{
    "contractName": "LUSDToken",
    "abi": [
        {
            "constant": false,
            "inputs": [
                {
                    "internalType": "address",
                    "name": "spender",
                    "type": "address"
                },
                {
                    "internalType": "uint256",
                    "name": "amount",
                    "type": "uint256"
                }
            ],
            "name": "approve",
            "outputs": [
                {
                    "internalType": "bool",
                    "name": "",
                    "type": "bool"
                }
            ],
            "payable": false,
            "stateMutability": "nonpayable",
            "type": "function"
        },
        {
            "constant": true,
            "inputs": [],
            "name": "totalSupply",
            "outputs": [
                {
                    "internalType": "uint256",
                    "name": "",
                    "type": "uint256"
                }
            ],
            "payable": false,
            "stateMutability": "view",
            "type": "function"
        },
        {
            "constant": false,
            "inputs": [
                {
                    "internalType": "address",
                    "name": "_destination",
                    "type": "address"
                },
                {
                    "internalType": "uint256",
                    "name": "_amount",
                    "type": "uint256"
                }
            ],
            "name": "returnFromPool",
            "outputs": [
                {
                    "internalType": "bool",
                    "name": "",
                    "type": "bool"
                }
            ],
            "payable": false,
            "stateMutability": "nonpayable",
            "type": "function"
        },
        {
            "constant": false,
            "inputs": [
                {
                    "internalType": "address",
                    "name": "sender",
                    "type": "address"
                },
                {
                    "internalType": "address",
                    "name": "recipient",
                    "type": "address"
                },
                {
                    "internalType": "uint256",
                    "name": "amount",
                    "type": "uint256"
                }
            ],
            "name": "transferFrom",
            "outputs": [
                {
                    "internalType": "bool",
                    "name": "",
                    "type": "bool"
                }
            ],
            "payable": false,
            "stateMutability": "nonpayable",
            "type": "function"
        },
        {
            "constant": false,
            "inputs": [
                {
                    "internalType": "address",
                    "name": "spender",
                    "type": "address"
                },
                {
                    "internalType": "uint256",
                    "name": "addedValue",
                    "type": "uint256"
                }
            ],
            "name": "increaseAllowance",
            "outputs": [
                {
                    "internalType": "bool",
                    "name": "",
                    "type": "bool"
                }
            ],
            "payable": false,
            "stateMutability": "nonpayable",
            "type": "function"
        },
        {
            "constant": false,
            "inputs": [
                {
                    "internalType": "address",
                    "name": "_account",
                    "type": "address"
                },
                {
                    "internalType": "uint256",
                    "name": "_amount",
                    "type": "uint256"
                }
            ],
            "name": "mint",
            "outputs": [
                {
                    "internalType": "bool",
                    "name": "",
                    "type": "bool"
                }
            ],
            "payable": false,
            "stateMutability": "nonpayable",
            "type": "function"
        },
        {
            "constant": true,
            "inputs": [
                {
                    "internalType": "address",
                    "name": "account",
                    "type": "address"
                }
            ],
            "name": "balanceOf",
            "outputs": [
                {
                    "internalType": "uint256",
                    "name": "",
                    "type": "uint256"
                }
            ],
            "payable": false,
            "stateMutability": "view",
            "type": "function"
        },
        {
            "constant": false,
            "inputs": [
                {
                    "internalType": "address",
                    "name": "_account",
                    "type": "address"
                },
                {
                    "internalType": "uint256",
                    "name": "_amount",
                    "type": "uint256"
                }
            ],
            "name": "burn",
            "outputs": [
                {
                    "internalType": "bool",
                    "name": "",
                    "type": "bool"
                }
            ],
            "payable": false,
            "stateMutability": "nonpayable",
            "type": "function"
        },
        {
            "constant": false,
            "inputs": [
                {
                    "internalType": "address",
                    "name": "spender",
                    "type": "address"
                },
                {
                    "internalType": "uint256",
                    "name": "subtractedValue",
                    "type": "uint256"
                }
            ],
            "name": "decreaseAllowance",
            "outputs": [
                {
                    "internalType": "bool",
                    "name": "",
                    "type": "bool"
                }
            ],
            "payable": false,
            "stateMutability": "nonpayable",
            "type": "function"
        },
        {
            "constant": false,
            "inputs": [
                {
                    "internalType": "address",
                    "name": "recipient",
                    "type": "address"
                },
                {
                    "internalType": "uint256",
                    "name": "amount",
                    "type": "uint256"
                }
            ],
            "name": "transfer",
            "outputs": [
                {
                    "internalType": "bool",
                    "name": "",
                    "type": "bool"
                }
            ],
            "payable": false,
            "stateMutability": "nonpayable",
            "type": "function"
        },
        {
            "constant": false,
            "inputs": [
                {
                    "internalType": "address",
                    "name": "_pool",
                    "type": "address"
                }
            ],
            "name": "registerPool",
            "outputs": [],
            "payable": false,
            "stateMutability": "nonpayable",
            "type": "function"
        },
        {
            "constant": true,
            "inputs": [
                {
                    "internalType": "address",
                    "name": "owner",
                    "type": "address"
                },
                {
                    "internalType": "address",
                    "name": "spender",
                    "type": "address"
                }
            ],
            "name": "allowance",
            "outputs": [
                {
                    "internalType": "uint256",
                    "name": "",
                    "type": "uint256"
                }
            ],
            "payable": false,
            "stateMutability": "view",
            "type": "function"
        },
        {
            "constant": false,
            "inputs": [
                {
                    "internalType": "address",
                    "name": "_sender",
                    "type": "address"
                },
                {
                    "internalType": "uint256",
                    "name": "_amount",
                    "type": "uint256"
                }
            ],
            "name": "sendToPool",
            "outputs": [
                {
                    "internalType": "bool",
                    "name": "",
                    "type": "bool"
                }
            ],
            "payable": false,
            "stateMutability": "nonpayable",
            "type": "function"
        },
        {
            "inputs": [
                {
                    "internalType": "bytes32",
                    "name": "_name",
                    "type": "bytes32"
                }
            ],
            "payable": false,
            "stateMutability": "nonpayable",
            "type": "constructor"
        },
        {
            "anonymous": false,
            "inputs": [
                {
                    "indexed": true,
                    "internalType": "address",
                    "name": "from",
                    "type": "address"
                },
                {
                    "indexed": true,
                    "internalType": "address",
                    "name": "to",
                    "type": "address"
                },
                {
                    "indexed": false,
                    "internalType": "uint256",
                    "name": "value",
                    "type": "uint256"
                }
            ],
            "name": "Transfer",
            "type": "event"
        },
        {
            "anonymous": false,
            "inputs": [
                {
                    "indexed": true,
                    "internalType": "address",
                    "name": "owner",
                    "type": "address"
                },
                {
                    "indexed": true,
                    "internalType": "address",
                    "name": "spender",
                    "type": "address"
                },
                {
                    "indexed": false,
                    "internalType": "uint256",
                    "name": "value",
                    "type": "uint256"
                }
            ],
            "name": "Approval",
            "type": "event"
        }
    ],
    "bytecode": "608060405234801561001057600080fd5b50604051610ed0380380610ed08339818101604052602081101561003357600080fd5b5051600380546001600160a01b03191633179055600555610e77806100596000396000f3fe608060405234801561001057600080fd5b50600436106100cf5760003560e01c806370a082311161008c578063a9059cbb11610066578063a9059cbb14610266578063abd9084614610292578063dd62ed3e146102ba578063f03a95b4146102e8576100cf565b806370a08231146101e85780639dc29fac1461020e578063a457c2d71461023a576100cf565b8063095ea7b3146100d457806318160ddd146101145780631c91a4d61461012e57806323b872dd1461015a578063395093511461019057806340c10f19146101bc575b600080fd5b610100600480360360408110156100ea57600080fd5b506001600160a01b038135169060200135610314565b604080519115158252519081900360200190f35b61011c610331565b60408051918252519081900360200190f35b6101006004803603604081101561014457600080fd5b506001600160a01b038135169060200135610337565b6101006004803603606081101561017057600080fd5b506001600160a01b0381358116916020810135909116906040013561039a565b610100600480360360408110156101a657600080fd5b506001600160a01b038135169060200135610427565b610100600480360360408110156101d257600080fd5b506001600160a01b03813516906020013561047b565b61011c600480360360208110156101fe57600080fd5b50356001600160a01b03166104d1565b6101006004803603604081101561022457600080fd5b506001600160a01b0381351690602001356104ec565b6101006004803603604081101561025057600080fd5b506001600160a01b038135169060200135610542565b6101006004803603604081101561027c57600080fd5b506001600160a01b0381351690602001356105b0565b6102b8600480360360208110156102a857600080fd5b50356001600160a01b03166105c4565b005b61011c600480360360408110156102d057600080fd5b506001600160a01b038135811691602001351661062f565b610100600480360360408110156102fe57600080fd5b506001600160a01b03813516906020013561065a565b60006103286103216106be565b84846106c2565b50600192915050565b60025490565b6004546000906001600160a01b031633146103835760405162461bcd60e51b8152600401808060200182810382526029815260200180610df56029913960400191505060405180910390fd5b600454610328906001600160a01b031684846107ae565b60006103a78484846107ae565b61041d846103b36106be565b61041885604051806060016040528060288152602001610d39602891396001600160a01b038a166000908152600160205260408120906103f16106be565b6001600160a01b03168152602081019190915260400160002054919063ffffffff61090a16565b6106c2565b5060019392505050565b60006103286104346106be565b8461041885600160006104456106be565b6001600160a01b03908116825260208083019390935260409182016000908120918c16815292529020549063ffffffff6109a116565b6004546000906001600160a01b031633146104c75760405162461bcd60e51b8152600401808060200182810382526027815260200180610d126027913960400191505060405180910390fd5b6103288383610a02565b6001600160a01b031660009081526020819052604090205490565b6004546000906001600160a01b031633146105385760405162461bcd60e51b8152600401808060200182810382526027815260200180610c546027913960400191505060405180910390fd5b6103288383610af2565b600061032861054f6106be565b8461041885604051806060016040528060258152602001610e1e60259139600160006105796106be565b6001600160a01b03908116825260208083019390935260409182016000908120918d1681529252902054919063ffffffff61090a16565b60006103286105bd6106be565b84846107ae565b6003546001600160a01b0316331461060d5760405162461bcd60e51b815260040180806020018281038252602d815260200180610ce5602d913960400191505060405180910390fd5b600480546001600160a01b0319166001600160a01b0392909216919091179055565b6001600160a01b03918216600090815260016020908152604080832093909416825291909152205490565b6004546000906001600160a01b031633146106a65760405162461bcd60e51b815260040180806020018281038252602a815260200180610dcb602a913960400191505060405180910390fd5b6004546103289084906001600160a01b0316846107ae565b3390565b6001600160a01b0383166107075760405162461bcd60e51b8152600401808060200182810382526024815260200180610da76024913960400191505060405180910390fd5b6001600160a01b03821661074c5760405162461bcd60e51b8152600401808060200182810382526022815260200180610c9d6022913960400191505060405180910390fd5b6001600160a01b03808416600081815260016020908152604080832094871680845294825291829020859055815185815291517f8c5be1e5ebec7d5bd14f71427d1e84f3dd0314c0f7b2291e5b200ac8c7c3b9259281900390910190a3505050565b6001600160a01b0383166107f35760405162461bcd60e51b8152600401808060200182810382526025815260200180610d826025913960400191505060405180910390fd5b6001600160a01b0382166108385760405162461bcd60e51b8152600401808060200182810382526023815260200180610c316023913960400191505060405180910390fd5b61087b81604051806060016040528060268152602001610cbf602691396001600160a01b038616600090815260208190526040902054919063ffffffff61090a16565b6001600160a01b0380851660009081526020819052604080822093909355908416815220546108b0908263ffffffff6109a116565b6001600160a01b038084166000818152602081815260409182902094909455805185815290519193928716927fddf252ad1be2c89b69c2b068fc378daa952ba7f163c4a11628f55a4df523b3ef92918290030190a3505050565b600081848411156109995760405162461bcd60e51b81526004018080602001828103825283818151815260200191508051906020019080838360005b8381101561095e578181015183820152602001610946565b50505050905090810190601f16801561098b5780820380516001836020036101000a031916815260200191505b509250505060405180910390fd5b505050900390565b6000828201838110156109fb576040805162461bcd60e51b815260206004820152601b60248201527f536166654d6174683a206164646974696f6e206f766572666c6f770000000000604482015290519081900360640190fd5b9392505050565b6001600160a01b038216610a5d576040805162461bcd60e51b815260206004820152601f60248201527f45524332303a206d696e7420746f20746865207a65726f206164647265737300604482015290519081900360640190fd5b600254610a70908263ffffffff6109a116565b6002556001600160a01b038216600090815260208190526040902054610a9c908263ffffffff6109a116565b6001600160a01b0383166000818152602081815260408083209490945583518581529351929391927fddf252ad1be2c89b69c2b068fc378daa952ba7f163c4a11628f55a4df523b3ef9281900390910190a35050565b6001600160a01b038216610b375760405162461bcd60e51b8152600401808060200182810382526021815260200180610d616021913960400191505060405180910390fd5b610b7a81604051806060016040528060228152602001610c7b602291396001600160a01b038516600090815260208190526040902054919063ffffffff61090a16565b6001600160a01b038316600090815260208190526040902055600254610ba6908263ffffffff610bee16565b6002556040805182815290516000916001600160a01b038516917fddf252ad1be2c89b69c2b068fc378daa952ba7f163c4a11628f55a4df523b3ef9181900360200190a35050565b60006109fb83836040518060400160405280601e81526020017f536166654d6174683a207375627472616374696f6e206f766572666c6f77000081525061090a56fe45524332303a207472616e7366657220746f20746865207a65726f20616464726573734f6e6c792074686520706f6f6c20697320617574686f72697a656420746f206275726e20434c5645524332303a206275726e20616d6f756e7420657863656564732062616c616e636545524332303a20617070726f766520746f20746865207a65726f206164647265737345524332303a207472616e7366657220616d6f756e7420657863656564732062616c616e63654f6e6c7920746865206f776e657220697320617574686f72697a656420746f20726567697374657220706f6f6c4f6e6c792074686520706f6f6c20697320617574686f72697a656420746f206d696e7420434c5645524332303a207472616e7366657220616d6f756e74206578636565647320616c6c6f77616e636545524332303a206275726e2066726f6d20746865207a65726f206164647265737345524332303a207472616e736665722066726f6d20746865207a65726f206164647265737345524332303a20617070726f76652066726f6d20746865207a65726f20616464726573734f6e6c792074686520706f6f6c20697320617574686f72697a656420746f206465706f73697420434c564f6e6c792074686520706f6f6c20697320617574686f72697a656420746f2072657475726e20434c5645524332303a2064656372656173656420616c6c6f77616e63652062656c6f77207a65726fa265627a7a723158209bfaba20be48e377599c4147b5250dc2f40682365c7b44da784a32094f471e0a64736f6c634300050b0032",
    "sourcePath": "c:/Users/Administrator/Desktop/Cleverage/contracts/Token.sol",
    "compiler": {
        "name": "solc",
        "version": "0.5.11+commit.c082d0b4"
    },
    "functionHashes": {
        "allowance(address,address)": "dd62ed3e",
        "approve(address,uint256)": "095ea7b3",
        "balanceOf(address)": "70a08231",
        "burn(address,uint256)": "9dc29fac",
        "decreaseAllowance(address,uint256)": "a457c2d7",
        "increaseAllowance(address,uint256)": "39509351",
        "mint(address,uint256)": "40c10f19",
        "registerPool(address)": "abd90846",
        "returnFromPool(address,uint256)": "1c91a4d6",
        "sendToPool(address,uint256)": "f03a95b4",
        "totalSupply()": "18160ddd",
        "transfer(address,uint256)": "a9059cbb",
        "transferFrom(address,address,uint256)": "23b872dd"
    },
    "gasEstimates": {
        "creation": {
            "codeDepositCost": "740600",
            "executionCost": "infinite",
            "totalCost": "infinite"
        },
        "external": {
            "allowance(address,address)": "716",
            "approve(address,uint256)": "infinite",
            "balanceOf(address)": "568",
            "burn(address,uint256)": "infinite",
            "decreaseAllowance(address,uint256)": "infinite",
            "increaseAllowance(address,uint256)": "infinite",
            "mint(address,uint256)": "infinite",
            "registerPool(address)": "infinite",
            "returnFromPool(address,uint256)": "infinite",
            "sendToPool(address,uint256)": "infinite",
            "totalSupply()": "421",
            "transfer(address,uint256)": "infinite",
            "transferFrom(address,address,uint256)": "infinite"
        }
    }
}