{
  "address": "0xeA7925865556a7DD7ba3a48eACe1A90C6F5c3a98",
  "abi": [
    {
      "inputs": [
        {
          "internalType": "address",
          "name": "_core",
          "type": "address"
        }
      ],
      "stateMutability": "nonpayable",
      "type": "constructor"
    },
    {
      "anonymous": false,
      "inputs": [
        {
          "indexed": true,
          "internalType": "address",
          "name": "_borrower",
          "type": "address"
        },
        {
          "indexed": false,
          "internalType": "uint256",
          "name": "_Fee",
          "type": "uint256"
        }
      ],
      "name": "BorrowingFeePaid",
      "type": "event"
    },
    {
      "anonymous": false,
      "inputs": [
        {
          "indexed": true,
          "internalType": "address",
          "name": "_borrower",
          "type": "address"
        },
        {
          "indexed": false,
          "internalType": "uint256",
          "name": "arrayIndex",
          "type": "uint256"
        }
      ],
      "name": "TroveCreated",
      "type": "event"
    },
    {
      "anonymous": false,
      "inputs": [
        {
          "indexed": true,
          "internalType": "address",
          "name": "_borrower",
          "type": "address"
        },
        {
          "indexed": false,
          "internalType": "uint256",
          "name": "_debt",
          "type": "uint256"
        },
        {
          "indexed": false,
          "internalType": "uint256",
          "name": "_coll",
          "type": "uint256"
        },
        {
          "indexed": false,
          "internalType": "uint256",
          "name": "stake",
          "type": "uint256"
        },
        {
          "indexed": false,
          "internalType": "uint256",
          "name": "_borrowingFee",
          "type": "uint256"
        },
        {
          "indexed": false,
          "internalType": "uint8",
          "name": "operation",
          "type": "uint8"
        }
      ],
      "name": "TroveUpdated",
      "type": "event"
    },
    {
      "inputs": [],
      "name": "BOOTSTRAP_PERIOD",
      "outputs": [
        {
          "internalType": "uint256",
          "name": "",
          "type": "uint256"
        }
      ],
      "stateMutability": "view",
      "type": "function"
    },
    {
      "inputs": [],
      "name": "BORROWING_FEE_FLOOR",
      "outputs": [
        {
          "internalType": "uint256",
          "name": "",
          "type": "uint256"
        }
      ],
      "stateMutability": "view",
      "type": "function"
    },
    {
      "inputs": [],
      "name": "CCR",
      "outputs": [
        {
          "internalType": "uint256",
          "name": "",
          "type": "uint256"
        }
      ],
      "stateMutability": "view",
      "type": "function"
    },
    {
      "inputs": [],
      "name": "DAI_GAS_COMPENSATION",
      "outputs": [
        {
          "internalType": "uint256",
          "name": "",
          "type": "uint256"
        }
      ],
      "stateMutability": "view",
      "type": "function"
    },
    {
      "inputs": [],
      "name": "DECIMAL_PRECISION",
      "outputs": [
        {
          "internalType": "uint256",
          "name": "",
          "type": "uint256"
        }
      ],
      "stateMutability": "view",
      "type": "function"
    },
    {
      "inputs": [],
      "name": "HALF_PERCENT_DIVISOR",
      "outputs": [
        {
          "internalType": "uint256",
          "name": "",
          "type": "uint256"
        }
      ],
      "stateMutability": "view",
      "type": "function"
    },
    {
      "inputs": [],
      "name": "MAX_UINT",
      "outputs": [
        {
          "internalType": "uint256",
          "name": "",
          "type": "uint256"
        }
      ],
      "stateMutability": "view",
      "type": "function"
    },
    {
      "inputs": [],
      "name": "MCR",
      "outputs": [
        {
          "internalType": "uint256",
          "name": "",
          "type": "uint256"
        }
      ],
      "stateMutability": "view",
      "type": "function"
    },
    {
      "inputs": [],
      "name": "MIN_NET_DEBT",
      "outputs": [
        {
          "internalType": "uint256",
          "name": "",
          "type": "uint256"
        }
      ],
      "stateMutability": "view",
      "type": "function"
    },
    {
      "inputs": [],
      "name": "SECONDS_IN_ONE_MINUTE",
      "outputs": [
        {
          "internalType": "uint256",
          "name": "",
          "type": "uint256"
        }
      ],
      "stateMutability": "view",
      "type": "function"
    },
    {
      "inputs": [],
      "name": "activePool",
      "outputs": [
        {
          "internalType": "contract IActivePool",
          "name": "",
          "type": "address"
        }
      ],
      "stateMutability": "view",
      "type": "function"
    },
    {
      "inputs": [
        {
          "internalType": "uint256",
          "name": "_collIncrease",
          "type": "uint256"
        },
        {
          "internalType": "address",
          "name": "_upperHint",
          "type": "address"
        },
        {
          "internalType": "address",
          "name": "_lowerHint",
          "type": "address"
        }
      ],
      "name": "addColl",
      "outputs": [],
      "stateMutability": "nonpayable",
      "type": "function"
    },
    {
      "inputs": [
        {
          "internalType": "uint256",
          "name": "_collChange",
          "type": "uint256"
        },
        {
          "internalType": "bool",
          "name": "_isCollIncrease",
          "type": "bool"
        },
        {
          "internalType": "uint256",
          "name": "_debtChange",
          "type": "uint256"
        },
        {
          "internalType": "bool",
          "name": "_isDebtIncrease",
          "type": "bool"
        },
        {
          "internalType": "address",
          "name": "_upperHint",
          "type": "address"
        },
        {
          "internalType": "address",
          "name": "_lowerHint",
          "type": "address"
        },
        {
          "internalType": "uint256",
          "name": "_maxFeePercentage",
          "type": "uint256"
        }
      ],
      "name": "adjustTrove",
      "outputs": [],
      "stateMutability": "nonpayable",
      "type": "function"
    },
    {
      "inputs": [],
      "name": "borrowerOperations",
      "outputs": [
        {
          "internalType": "contract IBorrowerOperations",
          "name": "",
          "type": "address"
        }
      ],
      "stateMutability": "view",
      "type": "function"
    },
    {
      "inputs": [],
      "name": "claimCollateral",
      "outputs": [],
      "stateMutability": "nonpayable",
      "type": "function"
    },
    {
      "inputs": [],
      "name": "closeTrove",
      "outputs": [],
      "stateMutability": "nonpayable",
      "type": "function"
    },
    {
      "inputs": [],
      "name": "collSurplusPool",
      "outputs": [
        {
          "internalType": "contract ICollSurplusPool",
          "name": "",
          "type": "address"
        }
      ],
      "stateMutability": "view",
      "type": "function"
    },
    {
      "inputs": [],
      "name": "core",
      "outputs": [
        {
          "internalType": "contract ICore",
          "name": "",
          "type": "address"
        }
      ],
      "stateMutability": "view",
      "type": "function"
    },
    {
      "inputs": [],
      "name": "defaultPool",
      "outputs": [
        {
          "internalType": "contract IDefaultPool",
          "name": "",
          "type": "address"
        }
      ],
      "stateMutability": "view",
      "type": "function"
    },
    {
      "inputs": [],
      "name": "gemToken",
      "outputs": [
        {
          "internalType": "contract IERC20",
          "name": "",
          "type": "address"
        }
      ],
      "stateMutability": "view",
      "type": "function"
    },
    {
      "inputs": [],
      "name": "getEntireSystemColl",
      "outputs": [
        {
          "internalType": "uint256",
          "name": "entireSystemColl",
          "type": "uint256"
        }
      ],
      "stateMutability": "view",
      "type": "function"
    },
    {
      "inputs": [],
      "name": "getEntireSystemDebt",
      "outputs": [
        {
          "internalType": "uint256",
          "name": "entireSystemDebt",
          "type": "uint256"
        }
      ],
      "stateMutability": "view",
      "type": "function"
    },
    {
      "inputs": [],
      "name": "myoStaking",
      "outputs": [
        {
          "internalType": "contract IMYOStaking",
          "name": "",
          "type": "address"
        }
      ],
      "stateMutability": "view",
      "type": "function"
    },
    {
      "inputs": [],
      "name": "myoToken",
      "outputs": [
        {
          "internalType": "contract IMYOToken",
          "name": "",
          "type": "address"
        }
      ],
      "stateMutability": "view",
      "type": "function"
    },
    {
      "inputs": [
        {
          "internalType": "uint256",
          "name": "_maxFeePercentage",
          "type": "uint256"
        },
        {
          "internalType": "uint256",
          "name": "_debt",
          "type": "uint256"
        },
        {
          "internalType": "uint256",
          "name": "_coll",
          "type": "uint256"
        },
        {
          "internalType": "address",
          "name": "_upperHint",
          "type": "address"
        },
        {
          "internalType": "address",
          "name": "_lowerHint",
          "type": "address"
        }
      ],
      "name": "openTrove",
      "outputs": [],
      "stateMutability": "nonpayable",
      "type": "function"
    },
    {
      "inputs": [],
      "name": "paiToken",
      "outputs": [
        {
          "internalType": "contract IPAIToken",
          "name": "",
          "type": "address"
        }
      ],
      "stateMutability": "view",
      "type": "function"
    },
    {
      "inputs": [],
      "name": "priceFeed",
      "outputs": [
        {
          "internalType": "contract IPriceFeed",
          "name": "",
          "type": "address"
        }
      ],
      "stateMutability": "view",
      "type": "function"
    },
    {
      "inputs": [
        {
          "internalType": "uint256",
          "name": "_paiAmount",
          "type": "uint256"
        },
        {
          "internalType": "address",
          "name": "_upperHint",
          "type": "address"
        },
        {
          "internalType": "address",
          "name": "_lowerHint",
          "type": "address"
        }
      ],
      "name": "repayPAI",
      "outputs": [],
      "stateMutability": "nonpayable",
      "type": "function"
    },
    {
      "inputs": [],
      "name": "sortedTroves",
      "outputs": [
        {
          "internalType": "contract ISortedTroves",
          "name": "",
          "type": "address"
        }
      ],
      "stateMutability": "view",
      "type": "function"
    },
    {
      "inputs": [],
      "name": "vault",
      "outputs": [
        {
          "internalType": "contract IVault",
          "name": "",
          "type": "address"
        }
      ],
      "stateMutability": "view",
      "type": "function"
    },
    {
      "inputs": [
        {
          "internalType": "uint256",
          "name": "_collWithdrawal",
          "type": "uint256"
        },
        {
          "internalType": "address",
          "name": "_upperHint",
          "type": "address"
        },
        {
          "internalType": "address",
          "name": "_lowerHint",
          "type": "address"
        }
      ],
      "name": "withdrawColl",
      "outputs": [],
      "stateMutability": "nonpayable",
      "type": "function"
    },
    {
      "inputs": [
        {
          "internalType": "uint256",
          "name": "_maxFeePercentage",
          "type": "uint256"
        },
        {
          "internalType": "uint256",
          "name": "_paiWithdrawal",
          "type": "uint256"
        },
        {
          "internalType": "address",
          "name": "_upperHint",
          "type": "address"
        },
        {
          "internalType": "address",
          "name": "_lowerHint",
          "type": "address"
        }
      ],
      "name": "withdrawPAI",
      "outputs": [],
      "stateMutability": "nonpayable",
      "type": "function"
    }
  ],
  "transactionHash": "0x93cdd19ea1af2e89a9c0b605c6c18c0970d85f059ec3cd27936cd0d32d35cdca",
  "args": [
    "0x37F6DFa518E3708727E7eD3CbF5cA3641412890e"
  ],
  "numDeployments": 2,
  "solcInputHash": "8aa079dc372efa4fb72dddab2b66ad11",
  "bytecode": "0x60a06040526000196000553480156200001757600080fd5b5060405162003204380380620032048339810160408190526200003a916200010e565b8062000046816200005d565b60601b6001600160601b031916608052506200013e565b6001600160a01b038116620000b95760405162461bcd60e51b815260206004820152601e60248201527f4163636f756e742063616e6e6f74206265207a65726f2061646472657373000060448201526064015b60405180910390fd5b803b806200010a5760405162461bcd60e51b815260206004820181905260248201527f4163636f756e7420636f64652073697a652063616e6e6f74206265207a65726f6044820152606401620000b0565b5050565b60006020828403121562000120578081fd5b81516001600160a01b038116811462000137578182fd5b9392505050565b60805160601c61305a620001aa60003960008181610307015281816107670152818161082f0152818161088a015281816109ef015281816110c6015281816111210152818161117c0152818161120301528181611280015281816112ee0152611349015261305a6000f3fe608060405234801561001057600080fd5b50600436106101b05760003560e01c80639e8ef390116100ef578063e2d8ef8d11610092578063e2d8ef8d146102f1578063e5b5019a146102f9578063f2f4eb2614610302578063f92d343314610329578063fbfa77cf14610331578063fe6ecf0b14610339578063ff2fb57c1461034c578063fff298df14610354576101b0565b80639e8ef3901461028b578063a20baee614610293578063ae918754146102a2578063c35bc550146102aa578063cda775f9146102b4578063d0ec5375146102bc578063d3c2f3c1146102cf578063d56d6bbe146102de576101b0565b8063741bef1a11610157578063741bef1a1461023957806377553ad414610241578063794e572414610249578063795d26c3146102585780637f7dde4a14610260578063887105d31461026857806389a8872f146102705780638f09162b14610278576101b0565b80630e704d50146101b55780631bf43555146101bf5780633cc74225146101e25780634da2bfb3146101f75780635530273c1461020a5780635733d58f1461021d57806361ec893d1461022c5780636f0b0c1c14610234575b600080fd5b6101bd61035c565b005b6101cf686194049f30f720000081565b6040519081526020015b60405180910390f35b6101ea610763565b6040516101d99190612e8e565b6101bd610205366004612df0565b6107fb565b6101bd610218366004612d35565b610813565b6101cf6714d1120d7b16000081565b6101cf603c81565b6101bd565b6101ea61082b565b6101ea610886565b6101cf670f43fc2c04ee000081565b6101cf6108e1565b6101ea6109eb565b6101cf610a46565b6101cf60c881565b6101bd610286366004612e39565b610b05565b6101ea6110c2565b6101cf670de0b6b3a764000081565b6101ea61111d565b6101cf6212750081565b6101ea611178565b6101bd6102ca366004612d76565b6111d3565b6101cf671bc16d674ec8000081565b6101bd6102ec366004612d35565b6111ec565b6101ea6111ff565b6101cf60005481565b6101ea7f000000000000000000000000000000000000000000000000000000000000000081565b6101cf61125a565b6101ea61127c565b6101bd610347366004612d35565b6112d7565b6101ea6112ea565b6101ea611345565b610365336113a0565b600061036f61082b565b6001600160a01b0316630fdb11cf6040518163ffffffff1660e01b8152600401602060405180830381600087803b1580156103a957600080fd5b505af11580156103bd573d6000803e3d6000fd5b505050506040513d601f19601f820116820180604052508101906103e19190612d1d565b90506103ec816114a3565b6103f461127c565b6001600160a01b0316630b076557336040518263ffffffff1660e01b815260040161041f9190612e8e565b600060405180830381600087803b15801561043957600080fd5b505af115801561044d573d6000803e3d6000fd5b50505050600061045b61127c565b6001600160a01b031663480cd578336040518263ffffffff1660e01b81526004016104869190612e8e565b60206040518083038186803b15801561049e57600080fd5b505afa1580156104b2573d6000803e3d6000fd5b505050506040513d601f19601f820116820180604052508101906104d69190612d1d565b905060006104e261127c565b6001600160a01b031663d66a2553336040518263ffffffff1660e01b815260040161050d9190612e8e565b60206040518083038186803b15801561052557600080fd5b505afa158015610539573d6000803e3d6000fd5b505050506040513d601f19601f8201168201806040525081019061055d9190612d1d565b9050610569338261151b565b600061057a83600084600088611611565b905061058581611684565b61058d61127c565b6001600160a01b031663fe2ba848336040518263ffffffff1660e01b81526004016105b89190612e8e565b600060405180830381600087803b1580156105d257600080fd5b505af11580156105e6573d6000803e3d6000fd5b505050506105f261127c565b6001600160a01b031663cbd138ae336040518263ffffffff1660e01b815260040161061d9190612e8e565b600060405180830381600087803b15801561063757600080fd5b505af115801561064b573d6000803e3d6000fd5b5050604051339250600080516020613005833981519152915061067990600090819081908190600190612ee6565b60405180910390a261068b3383611714565b6106936109eb565b6001600160a01b0316636ad32b1f6040518163ffffffff1660e01b8152600401600060405180830381600087803b1580156106cd57600080fd5b505af11580156106e1573d6000803e3d6000fd5b505050506106ed6109eb565b6001600160a01b0316639f4e511e3361070e86671bc16d674ec800006117e6565b6040518363ffffffff1660e01b815260040161072b929190612ea2565b600060405180830381600087803b15801561074557600080fd5b505af1158015610759573d6000803e3d6000fd5b5050505050505050565b60007f00000000000000000000000000000000000000000000000000000000000000006001600160a01b0316633cc742256040518163ffffffff1660e01b815260040160206040518083038186803b1580156107be57600080fd5b505afa1580156107d2573d6000803e3d6000fd5b505050506040513d601f19601f820116820180604052508101906107f69190612ce2565b905090565b61080d3360008086600187878b6117fb565b50505050565b61082633846000806000878760006117fb565b505050565b60007f00000000000000000000000000000000000000000000000000000000000000006001600160a01b031663741bef1a6040518163ffffffff1660e01b815260040160206040518083038186803b1580156107be57600080fd5b60007f00000000000000000000000000000000000000000000000000000000000000006001600160a01b03166377553ad46040518163ffffffff1660e01b815260040160206040518083038186803b1580156107be57600080fd5b6000806108ec6109eb565b6001600160a01b03166314a6bf0f6040518163ffffffff1660e01b815260040160206040518083038186803b15801561092457600080fd5b505afa158015610938573d6000803e3d6000fd5b505050506040513d601f19601f8201168201806040525081019061095c9190612d1d565b90506000610968610763565b6001600160a01b03166314a6bf0f6040518163ffffffff1660e01b815260040160206040518083038186803b1580156109a057600080fd5b505afa1580156109b4573d6000803e3d6000fd5b505050506040513d601f19601f820116820180604052508101906109d89190612d1d565b90506109e482826117e6565b9250505090565b60007f00000000000000000000000000000000000000000000000000000000000000006001600160a01b0316637f7dde4a6040518163ffffffff1660e01b815260040160206040518083038186803b1580156107be57600080fd5b600080610a516109eb565b6001600160a01b03166388bf5a9b6040518163ffffffff1660e01b815260040160206040518083038186803b158015610a8957600080fd5b505afa158015610a9d573d6000803e3d6000fd5b505050506040513d601f19601f82011682018060405250810190610ac19190612d1d565b90506000610acd610763565b6001600160a01b03166388bf5a9b6040518163ffffffff1660e01b815260040160206040518083038186803b1580156109a057600080fd5b610b0e33611d42565b6000610b1861082b565b6001600160a01b0316630fdb11cf6040518163ffffffff1660e01b8152600401602060405180830381600087803b158015610b5257600080fd5b505af1158015610b66573d6000803e3d6000fd5b505050506040513d601f19601f82011682018060405250810190610b8a9190612d1d565b90506000610b9782611e3e565b9050610ba38782611e5b565b60008582610c0757610bb58885611f90565b9150610bdd82610bd786610bd18c670de0b6b3a764000061207f565b9061208b565b8b612097565b818111610bfa57634e487b7160e01b600052600160045260246000fd5b610c048183612101565b90505b610c11818361210d565b610c2381671bc16d674ec80000612101565b90506000610c32828a876121a4565b90506000610c40838b6121d1565b90508415610c5657610c5182612200565b610c7d565b610c5f82612278565b6000610c708460018d60018b611611565b9050610c7b81611684565b505b610c8561127c565b6001600160a01b0316635d6b480f3360016040518363ffffffff1660e01b8152600401610cb3929190612ea2565b600060405180830381600087803b158015610ccd57600080fd5b505af1158015610ce1573d6000803e3d6000fd5b50505050610ced61127c565b6001600160a01b03166372423c1733856040518363ffffffff1660e01b8152600401610d1a929190612ea2565b602060405180830381600087803b158015610d3457600080fd5b505af1158015610d48573d6000803e3d6000fd5b505050506040513d601f19601f82011682018060405250810190610d6c9190612d1d565b50610d7561127c565b6001600160a01b0316639976cf45338c6040518363ffffffff1660e01b8152600401610da2929190612ea2565b602060405180830381600087803b158015610dbc57600080fd5b505af1158015610dd0573d6000803e3d6000fd5b505050506040513d601f19601f82011682018060405250810190610df49190612d1d565b50610dfd61127c565b6001600160a01b03166382fe3eb9336040518263ffffffff1660e01b8152600401610e289190612e8e565b600060405180830381600087803b158015610e4257600080fd5b505af1158015610e56573d6000803e3d6000fd5b505050506000610e6461127c565b6001600160a01b03166318f2817a336040518263ffffffff1660e01b8152600401610e8f9190612e8e565b602060405180830381600087803b158015610ea957600080fd5b505af1158015610ebd573d6000803e3d6000fd5b505050506040513d601f19601f82011682018060405250810190610ee19190612d1d565b9050610eeb61111d565b6001600160a01b03166346f7cf8733848c8c6040518563ffffffff1660e01b8152600401610f1c9493929190612ebb565b600060405180830381600087803b158015610f3657600080fd5b505af1158015610f4a573d6000803e3d6000fd5b505050506000610f5861127c565b6001600160a01b03166315d549f1336040518263ffffffff1660e01b8152600401610f839190612e8e565b602060405180830381600087803b158015610f9d57600080fd5b505af1158015610fb1573d6000803e3d6000fd5b505050506040513d601f19601f82011682018060405250810190610fd59190612d1d565b9050610fe1338d612308565b610feb338c6123a4565b610ff36109eb565b6001600160a01b0316637e16d1a26040518163ffffffff1660e01b8152600401600060405180830381600087803b15801561102d57600080fd5b505af1158015611041573d6000803e3d6000fd5b5050505061104f338761242b565b60405181815233907f59cfd0cd754bc5748b6770e94a4ffa5f678d885cb899dcfadc5734edb97c67ab9060200160405180910390a2336000805160206130058339815191528d87858a60006040516110ab959493929190612ee6565b60405180910390a250505050505050505050505050565b60007f00000000000000000000000000000000000000000000000000000000000000006001600160a01b0316639e8ef3906040518163ffffffff1660e01b815260040160206040518083038186803b1580156107be57600080fd5b60007f00000000000000000000000000000000000000000000000000000000000000006001600160a01b031663ae9187546040518163ffffffff1660e01b815260040160206040518083038186803b1580156107be57600080fd5b60007f00000000000000000000000000000000000000000000000000000000000000006001600160a01b031663cda775f96040518163ffffffff1660e01b815260040160206040518083038186803b1580156107be57600080fd5b6111e333888888888888886117fb565b50505050505050565b61082633846001600080878760006117fb565b60007f00000000000000000000000000000000000000000000000000000000000000006001600160a01b031663e2d8ef8d6040518163ffffffff1660e01b815260040160206040518083038186803b1580156107be57600080fd5b61126e6103e8670de0b6b3a7640000612f75565b611279906005612f95565b81565b60007f00000000000000000000000000000000000000000000000000000000000000006001600160a01b031663fbfa77cf6040518163ffffffff1660e01b815260040160206040518083038186803b1580156107be57600080fd5b61082633600080866000878760006117fb565b60007f00000000000000000000000000000000000000000000000000000000000000006001600160a01b031663ff2fb57c6040518163ffffffff1660e01b815260040160206040518083038186803b1580156107be57600080fd5b60007f00000000000000000000000000000000000000000000000000000000000000006001600160a01b031663fff298df6040518163ffffffff1660e01b815260040160206040518083038186803b1580156107be57600080fd5b60016113aa61127c565b6001600160a01b03166321e37801836040518263ffffffff1660e01b81526004016113d59190612e8e565b60206040518083038186803b1580156113ed57600080fd5b505afa158015611401573d6000803e3d6000fd5b505050506040513d601f19601f820116820180604052508101906114259190612cfe565b600481111561144457634e487b7160e01b600052602160045260246000fd5b146114a05760405162461bcd60e51b815260206004820152602160248201527f426f72726f7765724f70733a2054726f7665206d7573742062652061637469766044820152606560f81b60648201526084015b60405180910390fd5b50565b6114ac81611e3e565b156114a05760405162461bcd60e51b815260206004820152603960248201527f426f72726f7765724f70733a204f7065726174696f6e206e6f74207065726d696044820152787474656420647572696e67205265636f76657279204d6f646560381b6064820152608401611497565b60006115256110c2565b6001600160a01b03166370a08231846040518263ffffffff1660e01b81526004016115509190612e8e565b60206040518083038186803b15801561156857600080fd5b505afa15801561157c573d6000803e3d6000fd5b505050506040513d601f19601f820116820180604052508101906115a09190612d1d565b9050818110156108265760405162461bcd60e51b815260206004820152603660248201527f426f72726f7765724f70733a20426f72726f77657220646f6573206e6f74206860448201527561766520656e6f756768205041492062616c616e636560501b6064820152608401611497565b60008061161c610a46565b905060006116286108e1565b90508661163e576116398289612101565b611648565b61164882896117e6565b91508461165e576116598187612101565b611668565b61166881876117e6565b905060006116778383876121a4565b9998505050505050505050565b6714d1120d7b1600008110156114a05760405162461bcd60e51b815260206004820152604960248201527f426f72726f7765724f70733a20416e206f7065726174696f6e2074686174207760448201527f6f756c6420726573756c7420696e20544352203c20434352206973206e6f74206064820152681c195c9b5a5d1d195960ba1b608482015260a401611497565b61171c6109eb565b6001600160a01b0316632a7ba1f7826040518263ffffffff1660e01b815260040161174991815260200190565b600060405180830381600087803b15801561176357600080fd5b505af1158015611777573d6000803e3d6000fd5b505050506117836110c2565b6001600160a01b0316639dc29fac83836040518363ffffffff1660e01b81526004016117b0929190612ea2565b600060405180830381600087803b1580156117ca57600080fd5b505af11580156117de573d6000803e3d6000fd5b505050505050565b60006117f28284612f5d565b90505b92915050565b611804886113a0565b61180e87866124a3565b61186d604051806101600160405280600081526020016000151581526020016000815260200160008152602001600081526020016000815260200160008152602001600081526020016000815260200160008152602001600081525090565b61187561082b565b6001600160a01b0316630fdb11cf6040518163ffffffff1660e01b8152600401602060405180830381600087803b1580156118af57600080fd5b505af11580156118c3573d6000803e3d6000fd5b505050506040513d601f19601f820116820180604052508101906118e79190612d1d565b8082526118f390611e3e565b1515602082015284156119595761190e828260200151611e5b565b61191786612531565b80602001516119595761192e868260000151611f90565b61014082018190528151611959919061195390610bd18a670de0b6b3a764000061207f565b84612097565b61196161127c565b6001600160a01b0316630b0765578a6040518263ffffffff1660e01b815260040161198c9190612e8e565b600060405180830381600087803b1580156119a657600080fd5b505af11580156119ba573d6000803e3d6000fd5b505050506119c661127c565b6001600160a01b031663d66a25538a6040518263ffffffff1660e01b81526004016119f19190612e8e565b60206040518083038186803b158015611a0957600080fd5b505afa158015611a1d573d6000803e3d6000fd5b505050506040513d601f19601f82011682018060405250810190611a419190612d1d565b6040820152611a4e61127c565b6001600160a01b031663480cd5788a6040518263ffffffff1660e01b8152600401611a799190612e8e565b60206040518083038186803b158015611a9157600080fd5b505afa158015611aa5573d6000803e3d6000fd5b505050506040513d601f19601f82011682018060405250810190611ac99190612d1d565b60608201819052610140820151611ae491908a908a90612597565b611afb8160600151826040015183600001516121a4565b8160c0018181525050611b25816060015182604001518a8a8a8a8761014001518860000151612611565b60e08201819052602082015160c08301518351611b4a938c928c928c928c9291612646565b611b5d8989898989866101400151612697565b608083015260a082015284158015611b755750600086115b15611b9257611b88898260400151612968565b611b92898761151b565b611b9a61127c565b6001600160a01b03166318f2817a8a6040518263ffffffff1660e01b8152600401611bc59190612e8e565b602060405180830381600087803b158015611bdf57600080fd5b505af1158015611bf3573d6000803e3d6000fd5b505050506040513d601f19601f82011682018060405250810190611c179190612d1d565b81610100018181525050611c3d816060015182604001518a8a8a8a876101400151612a5d565b610120820152611c4b61111d565b6001600160a01b0316632be212608a83610120015187876040518563ffffffff1660e01b8152600401611c819493929190612ebb565b600060405180830381600087803b158015611c9b57600080fd5b505af1158015611caf573d6000803e3d6000fd5b50505050886001600160a01b031660008051602061300583398151915282608001518360a00151846101000151856101400151600280811115611d0257634e487b7160e01b600052602160045260246000fd5b604051611d13959493929190612ee6565b60405180910390a2611d2a8982610140015161242b565b611d378989898989612a90565b505050505050505050565b6001611d4c61127c565b6001600160a01b03166321e37801836040518263ffffffff1660e01b8152600401611d779190612e8e565b60206040518083038186803b158015611d8f57600080fd5b505afa158015611da3573d6000803e3d6000fd5b505050506040513d601f19601f82011682018060405250810190611dc79190612cfe565b6004811115611de657634e487b7160e01b600052602160045260246000fd5b14156114a05760405162461bcd60e51b815260206004820152602160248201527f426f72726f7765724f70733a2054726f766520616c72656164792065786973746044820152607360f81b6064820152608401611497565b600080611e4a83612b2e565b6714d1120d7b160000119392505050565b8015611ee457670de0b6b3a7640000821115611edf5760405162461bcd60e51b815260206004820152603f60248201527f426f72726f7765724f70733a204d6178206665652070657263656e746167652060448201527f6d757374206c657373207468616e206f7220657175616c20746f2031303025006064820152608401611497565b611f8c565b611ef86103e8670de0b6b3a7640000612f75565b611f03906005612f95565b8210158015611f1a5750670de0b6b3a76400008211155b611f8c5760405162461bcd60e51b815260206004820152603d60248201527f426f72726f7765724f70733a204d6178206665652070657263656e746167652060448201527f6d757374206265206265747765656e20302e352520616e6420313030250000006064820152608401611497565b5050565b6000611f9a61127c565b6001600160a01b0316635dba4c4a6040518163ffffffff1660e01b8152600401600060405180830381600087803b158015611fd457600080fd5b505af1158015611fe8573d6000803e3d6000fd5b505050506000611ff661127c565b604051632455c4e160e21b815260048101869052602481018590526001600160a01b03919091169063915713849060440160206040518083038186803b15801561203f57600080fd5b505afa158015612053573d6000803e3d6000fd5b505050506040513d601f19601f820116820180604052508101906120779190612d1d565b949350505050565b60006117f28284612f95565b60006117f28284612f75565b60006120af83610bd186670de0b6b3a764000061207f565b90508181111561080d5760405162461bcd60e51b815260206004820152601d60248201527f4665652065786365656465642070726f7669646564206d6178696d756d0000006044820152606401611497565b60006117f28284612fb4565b61211f671bc16d674ec80000826117e6565b821015611f8c5760405162461bcd60e51b815260206004820152604760248201527f426f72726f7765724f70733a204e6f7420656e6f75676820636f6c6c6174657260448201527f616c20666f722047617320436f6d70656e736174696f6e202620426f72726f77606482015266696e672046656560c81b608482015260a401611497565b600082156121c55760006121bc84610bd1878661207f565b91506121ca9050565b506000195b9392505050565b600081156121f7576121f082610bd18568056bc75e2d6310000061207f565b90506117f5565b506000196117f5565b6714d1120d7b1600008110156114a05760405162461bcd60e51b815260206004820152603760248201527f426f72726f7765724f70733a204f7065726174696f6e206d757374206c65617660448201527632903a3937bb32903bb4ba341024a1a9101f1e9021a1a960491b6064820152608401611497565b670f43fc2c04ee00008110156114a05760405162461bcd60e51b815260206004820152604960248201527f426f72726f7765724f70733a20416e206f7065726174696f6e2074686174207760448201527f6f756c6420726573756c7420696e20494352203c204d4352206973206e6f74206064820152681c195c9b5a5d1d195960ba1b608482015260a401611497565b6123106109eb565b6001600160a01b0316632b7c7b11826040518263ffffffff1660e01b815260040161233d91815260200190565b600060405180830381600087803b15801561235757600080fd5b505af115801561236b573d6000803e3d6000fd5b505050506123776110c2565b6001600160a01b03166340c10f1983836040518363ffffffff1660e01b81526004016117b0929190612ea2565b6123ac6109eb565b6001600160a01b0316634cd399b383836040518363ffffffff1660e01b81526004016123d9929190612ea2565b602060405180830381600087803b1580156123f357600080fd5b505af1158015612407573d6000803e3d6000fd5b505050506040513d601f19601f820116820180604052508101906108269190612cc6565b816001600160a01b03167f5d032cf8244d18503d44f7171954f352ff41fa2df69660eb897f4db36efe808e8260405161246691815260200190565b60405180910390a26124766109eb565b6001600160a01b0316634c38b4b2826040518263ffffffff1660e01b81526004016117b091815260200190565b811515806124b057508015155b611f8c5760405162461bcd60e51b815260206004820152604660248201527f426f72726f7765724f70733a205468657265206d75737420626520656974686560448201527f72206120636f6c6c61746572616c206368616e6765206f7220612064656274206064820152656368616e676560d01b608482015260a401611497565b600081116114a05760405162461bcd60e51b815260206004820152602d60248201527f426f72726f7765724f70733a204e6f6e2d5a65726f2064656274206368616e6760448201526c19481a5cc81c995c5d5a5c9959609a1b6064820152608401611497565b60006125ab82671bc16d674ec800006117e6565b905082156125e157806125be86866117e6565b10156125dc5760405162461bcd60e51b815260040161149790612f0c565b61260a565b6125eb84826117e6565b85101561260a5760405162461bcd60e51b815260040161149790612f0c565b5050505050565b60008060006126258b8b8b8b8b8b8b612b52565b9150915060006126368383876121a4565b9c9b505050505050505050505050565b8715612674576126568787612bcf565b831561266f5761266582612200565b61266f8284612c50565b610759565b61267d82612278565b600061268c8888888886611611565b9050611d3781611684565b60008060008661272d576126a961127c565b6001600160a01b031663d3d6f8438a8a6040518363ffffffff1660e01b81526004016126d6929190612ea2565b602060405180830381600087803b1580156126f057600080fd5b505af1158015612704573d6000803e3d6000fd5b505050506040513d601f19601f820116820180604052508101906127289190612d1d565b6127b4565b61273561127c565b6001600160a01b03166372423c178a8a6040518363ffffffff1660e01b8152600401612762929190612ea2565b602060405180830381600087803b15801561277c57600080fd5b505af1158015612790573d6000803e3d6000fd5b505050506040513d601f19601f820116820180604052508101906127b49190612d1d565b9050600085612849576127c561127c565b6001600160a01b03166312610e928b896040518363ffffffff1660e01b81526004016127f2929190612ea2565b602060405180830381600087803b15801561280c57600080fd5b505af1158015612820573d6000803e3d6000fd5b505050506040513d601f19601f820116820180604052508101906128449190612d1d565b6128d0565b61285161127c565b6001600160a01b0316639976cf458b896040518363ffffffff1660e01b815260040161287e929190612ea2565b602060405180830381600087803b15801561289857600080fd5b505af11580156128ac573d6000803e3d6000fd5b505050506040513d601f19601f820116820180604052508101906128d09190612d1d565b90506128da61127c565b6001600160a01b031663d3d6f8438b876040518363ffffffff1660e01b8152600401612907929190612ea2565b602060405180830381600087803b15801561292157600080fd5b505af1158015612935573d6000803e3d6000fd5b505050506040513d601f19601f820116820180604052508101906129599190612d1d565b9a909950975050505050505050565b600061297261127c565b6001600160a01b031663d66a2553846040518263ffffffff1660e01b815260040161299d9190612e8e565b60206040518083038186803b1580156129b557600080fd5b505afa1580156129c9573d6000803e3d6000fd5b505050506040513d601f19601f820116820180604052508101906129ed9190612d1d565b9050808211156108265760405162461bcd60e51b815260206004820152603560248201527f426f72726f7765724f70733a2054726f76652064656274206973206c657373206044820152741d1a185b881c995c185e5b595b9d08185b5bdd5b9d605a1b6064820152608401611497565b6000806000612a718a8a8a8a8a8a8a612b52565b915091506000612a8183836121d1565b9b9a5050505050505050505050565b8115612ab5578015612aab57612aa68583612308565b612ab5565b612ab58583611714565b831561260a578215612acb576125dc85856123a4565b612ad36109eb565b6001600160a01b0316639f4e511e86866040518363ffffffff1660e01b8152600401612b00929190612ea2565b600060405180830381600087803b158015612b1a57600080fd5b505af1158015611d37573d6000803e3d6000fd5b600080612b39610a46565b90506000612b456108e1565b90506120778282866121a4565b600080888887612b6b57612b668b8a612101565b612b75565b612b758b8a6117e6565b915085612b8b57612b868a88612101565b612b95565b612b958a886117e6565b905084821015612bb557634e487b7160e01b600052600160045260246000fd5b612bbf8286612101565b9b909a5098505050505050505050565b60018115151480612bde575081155b611f8c5760405162461bcd60e51b815260206004820152603e60248201527f426f72726f7765724f70733a20436f6c6c61746572616c20776974686472617760448201527f616c206e6f74207065726d6974746564205265636f76657279204d6f646500006064820152608401611497565b80821015611f8c5760405162461bcd60e51b815260206004820152603e60248201527f426f72726f7765724f70733a2043616e6e6f7420646563726561736520796f7560448201527f722054726f766527732049435220696e205265636f76657279204d6f646500006064820152608401611497565b600060208284031215612cd7578081fd5b81516121ca81612ff6565b600060208284031215612cf3578081fd5b81516121ca81612fe1565b600060208284031215612d0f578081fd5b8151600581106121ca578182fd5b600060208284031215612d2e578081fd5b5051919050565b600080600060608486031215612d49578182fd5b833592506020840135612d5b81612fe1565b91506040840135612d6b81612fe1565b809150509250925092565b600080600080600080600060e0888a031215612d90578485fd5b873596506020880135612da281612ff6565b9550604088013594506060880135612db981612ff6565b93506080880135612dc981612fe1565b925060a0880135612dd981612fe1565b8092505060c0880135905092959891949750929550565b60008060008060808587031215612e05578182fd5b84359350602085013592506040850135612e1e81612fe1565b91506060850135612e2e81612fe1565b939692955090935050565b600080600080600060a08688031215612e50578283fd5b8535945060208601359350604086013592506060860135612e7081612fe1565b91506080860135612e8081612fe1565b809150509295509295909350565b6001600160a01b0391909116815260200190565b6001600160a01b03929092168252602082015260400190565b6001600160a01b03948516815260208101939093529083166040830152909116606082015260800190565b94855260208501939093526040840191909152606083015260ff16608082015260a00190565b60208082526031908201527f426f72726f7765724f70733a204e6f7420656e6f75676820636f6c6c61746572604082015270185b08199bdc8818591a9d5cdd1b595b9d607a1b606082015260800190565b60008219821115612f7057612f70612fcb565b500190565b600082612f9057634e487b7160e01b81526012600452602481fd5b500490565b6000816000190483118215151615612faf57612faf612fcb565b500290565b600082821015612fc657612fc6612fcb565b500390565b634e487b7160e01b600052601160045260246000fd5b6001600160a01b03811681146114a057600080fd5b80151581146114a057600080fdfef575eb5cdee005607f56587351e18943ddacd11756b9d37980ec251797ff136ca2646970667358221220a0ee15b7e327863c0cff099f86a2b5eb64c72f7d9febfb15810219172c039ce564736f6c63430008030033",
  "devdoc": {
    "kind": "dev",
    "methods": {},
    "version": 1
  },
  "userdoc": {
    "kind": "user",
    "methods": {},
    "version": 1
  },
  "storageLayout": {
    "storage": [
      {
        "astId": 15613,
        "contract": "contracts/core/BorrowerOperations.sol:BorrowerOperations",
        "label": "MAX_UINT",
        "offset": 0,
        "slot": "0",
        "type": "t_uint256"
      }
    ],
    "types": {
      "t_uint256": {
        "encoding": "inplace",
        "label": "uint256",
        "numberOfBytes": "32"
      }
    }
  }
}