{
  "address": "0x867d0DfDbF1eAd9038d54D7Fa60a4D54e869E0f0",
  "abi": [
    {
      "inputs": [
        {
          "internalType": "address",
          "name": "_core",
          "type": "address"
        }
      ],
      "stateMutability": "nonpayable",
      "type": "constructor"
    },
    {
      "anonymous": false,
      "inputs": [
        {
          "indexed": true,
          "internalType": "address",
          "name": "_account",
          "type": "address"
        },
        {
          "indexed": false,
          "internalType": "uint256",
          "name": "_newBalance",
          "type": "uint256"
        }
      ],
      "name": "CollBalanceUpdated",
      "type": "event"
    },
    {
      "anonymous": false,
      "inputs": [
        {
          "indexed": false,
          "internalType": "address",
          "name": "_to",
          "type": "address"
        },
        {
          "indexed": false,
          "internalType": "uint256",
          "name": "_amount",
          "type": "uint256"
        }
      ],
      "name": "CollSent",
      "type": "event"
    },
    {
      "anonymous": false,
      "inputs": [
        {
          "indexed": true,
          "internalType": "address",
          "name": "previousOwner",
          "type": "address"
        },
        {
          "indexed": true,
          "internalType": "address",
          "name": "newOwner",
          "type": "address"
        }
      ],
      "name": "OwnershipTransferred",
      "type": "event"
    },
    {
      "inputs": [],
      "name": "BOOTSTRAP_PERIOD",
      "outputs": [
        {
          "internalType": "uint256",
          "name": "",
          "type": "uint256"
        }
      ],
      "stateMutability": "view",
      "type": "function"
    },
    {
      "inputs": [],
      "name": "BORROWING_FEE_FLOOR",
      "outputs": [
        {
          "internalType": "uint256",
          "name": "",
          "type": "uint256"
        }
      ],
      "stateMutability": "view",
      "type": "function"
    },
    {
      "inputs": [],
      "name": "CCR",
      "outputs": [
        {
          "internalType": "uint256",
          "name": "",
          "type": "uint256"
        }
      ],
      "stateMutability": "view",
      "type": "function"
    },
    {
      "inputs": [],
      "name": "DAI_GAS_COMPENSATION",
      "outputs": [
        {
          "internalType": "uint256",
          "name": "",
          "type": "uint256"
        }
      ],
      "stateMutability": "view",
      "type": "function"
    },
    {
      "inputs": [],
      "name": "DECIMAL_PRECISION",
      "outputs": [
        {
          "internalType": "uint256",
          "name": "",
          "type": "uint256"
        }
      ],
      "stateMutability": "view",
      "type": "function"
    },
    {
      "inputs": [],
      "name": "HALF_PERCENT_DIVISOR",
      "outputs": [
        {
          "internalType": "uint256",
          "name": "",
          "type": "uint256"
        }
      ],
      "stateMutability": "view",
      "type": "function"
    },
    {
      "inputs": [],
      "name": "MAX_UINT",
      "outputs": [
        {
          "internalType": "uint256",
          "name": "",
          "type": "uint256"
        }
      ],
      "stateMutability": "view",
      "type": "function"
    },
    {
      "inputs": [],
      "name": "MCR",
      "outputs": [
        {
          "internalType": "uint256",
          "name": "",
          "type": "uint256"
        }
      ],
      "stateMutability": "view",
      "type": "function"
    },
    {
      "inputs": [],
      "name": "MIN_NET_DEBT",
      "outputs": [
        {
          "internalType": "uint256",
          "name": "",
          "type": "uint256"
        }
      ],
      "stateMutability": "view",
      "type": "function"
    },
    {
      "inputs": [],
      "name": "NAME",
      "outputs": [
        {
          "internalType": "string",
          "name": "",
          "type": "string"
        }
      ],
      "stateMutability": "view",
      "type": "function"
    },
    {
      "inputs": [],
      "name": "SECONDS_IN_ONE_MINUTE",
      "outputs": [
        {
          "internalType": "uint256",
          "name": "",
          "type": "uint256"
        }
      ],
      "stateMutability": "view",
      "type": "function"
    },
    {
      "inputs": [
        {
          "internalType": "address",
          "name": "_account",
          "type": "address"
        },
        {
          "internalType": "uint256",
          "name": "_amount",
          "type": "uint256"
        }
      ],
      "name": "accountSurplus",
      "outputs": [],
      "stateMutability": "nonpayable",
      "type": "function"
    },
    {
      "inputs": [],
      "name": "activePool",
      "outputs": [
        {
          "internalType": "contract IActivePool",
          "name": "",
          "type": "address"
        }
      ],
      "stateMutability": "view",
      "type": "function"
    },
    {
      "inputs": [],
      "name": "activePoolAddress",
      "outputs": [
        {
          "internalType": "address",
          "name": "",
          "type": "address"
        }
      ],
      "stateMutability": "view",
      "type": "function"
    },
    {
      "inputs": [],
      "name": "borrowerOperations",
      "outputs": [
        {
          "internalType": "contract IBorrowerOperations",
          "name": "",
          "type": "address"
        }
      ],
      "stateMutability": "view",
      "type": "function"
    },
    {
      "inputs": [],
      "name": "borrowerOperationsAddress",
      "outputs": [
        {
          "internalType": "address",
          "name": "",
          "type": "address"
        }
      ],
      "stateMutability": "view",
      "type": "function"
    },
    {
      "inputs": [
        {
          "internalType": "address",
          "name": "_account",
          "type": "address"
        }
      ],
      "name": "claimColl",
      "outputs": [],
      "stateMutability": "nonpayable",
      "type": "function"
    },
    {
      "inputs": [],
      "name": "collSurplusPool",
      "outputs": [
        {
          "internalType": "contract ICollSurplusPool",
          "name": "",
          "type": "address"
        }
      ],
      "stateMutability": "view",
      "type": "function"
    },
    {
      "inputs": [],
      "name": "core",
      "outputs": [
        {
          "internalType": "contract ICore",
          "name": "",
          "type": "address"
        }
      ],
      "stateMutability": "view",
      "type": "function"
    },
    {
      "inputs": [],
      "name": "defaultPool",
      "outputs": [
        {
          "internalType": "contract IDefaultPool",
          "name": "",
          "type": "address"
        }
      ],
      "stateMutability": "view",
      "type": "function"
    },
    {
      "inputs": [],
      "name": "gemToken",
      "outputs": [
        {
          "internalType": "contract IERC20",
          "name": "",
          "type": "address"
        }
      ],
      "stateMutability": "view",
      "type": "function"
    },
    {
      "inputs": [],
      "name": "getColl",
      "outputs": [
        {
          "internalType": "uint256",
          "name": "",
          "type": "uint256"
        }
      ],
      "stateMutability": "view",
      "type": "function"
    },
    {
      "inputs": [
        {
          "internalType": "address",
          "name": "_account",
          "type": "address"
        }
      ],
      "name": "getCollateral",
      "outputs": [
        {
          "internalType": "uint256",
          "name": "",
          "type": "uint256"
        }
      ],
      "stateMutability": "view",
      "type": "function"
    },
    {
      "inputs": [],
      "name": "getEntireSystemColl",
      "outputs": [
        {
          "internalType": "uint256",
          "name": "entireSystemColl",
          "type": "uint256"
        }
      ],
      "stateMutability": "view",
      "type": "function"
    },
    {
      "inputs": [],
      "name": "getEntireSystemDebt",
      "outputs": [
        {
          "internalType": "uint256",
          "name": "entireSystemDebt",
          "type": "uint256"
        }
      ],
      "stateMutability": "view",
      "type": "function"
    },
    {
      "inputs": [],
      "name": "myoStaking",
      "outputs": [
        {
          "internalType": "contract IMYOStaking",
          "name": "",
          "type": "address"
        }
      ],
      "stateMutability": "view",
      "type": "function"
    },
    {
      "inputs": [],
      "name": "myoToken",
      "outputs": [
        {
          "internalType": "contract IMYOToken",
          "name": "",
          "type": "address"
        }
      ],
      "stateMutability": "view",
      "type": "function"
    },
    {
      "inputs": [],
      "name": "owner",
      "outputs": [
        {
          "internalType": "address",
          "name": "",
          "type": "address"
        }
      ],
      "stateMutability": "view",
      "type": "function"
    },
    {
      "inputs": [],
      "name": "paiToken",
      "outputs": [
        {
          "internalType": "contract IPAIToken",
          "name": "",
          "type": "address"
        }
      ],
      "stateMutability": "view",
      "type": "function"
    },
    {
      "inputs": [],
      "name": "priceFeed",
      "outputs": [
        {
          "internalType": "contract IPriceFeed",
          "name": "",
          "type": "address"
        }
      ],
      "stateMutability": "view",
      "type": "function"
    },
    {
      "inputs": [],
      "name": "renounceOwnership",
      "outputs": [],
      "stateMutability": "nonpayable",
      "type": "function"
    },
    {
      "inputs": [],
      "name": "sortedTroves",
      "outputs": [
        {
          "internalType": "contract ISortedTroves",
          "name": "",
          "type": "address"
        }
      ],
      "stateMutability": "view",
      "type": "function"
    },
    {
      "inputs": [
        {
          "internalType": "address",
          "name": "newOwner",
          "type": "address"
        }
      ],
      "name": "transferOwnership",
      "outputs": [],
      "stateMutability": "nonpayable",
      "type": "function"
    },
    {
      "inputs": [],
      "name": "troveManagerAddress",
      "outputs": [
        {
          "internalType": "address",
          "name": "",
          "type": "address"
        }
      ],
      "stateMutability": "view",
      "type": "function"
    },
    {
      "inputs": [],
      "name": "vault",
      "outputs": [
        {
          "internalType": "contract IVault",
          "name": "",
          "type": "address"
        }
      ],
      "stateMutability": "view",
      "type": "function"
    }
  ],
  "transactionHash": "0x400f95996519e4893784497749868c6ab766b711089927f26c36455958b7594d",
  "args": [
    "0x37F6DFa518E3708727E7eD3CbF5cA3641412890e"
  ],
  "numDeployments": 2,
  "solcInputHash": "8aa079dc372efa4fb72dddab2b66ad11",
  "bytecode": "0x60a060405260001960005534801561001657600080fd5b506040516200130c3803806200130c83398101604081905261003791610166565b8061004181610066565b60601b6001600160601b03191660805261006061005b3390565b610114565b50610194565b6001600160a01b0381166100c15760405162461bcd60e51b815260206004820152601e60248201527f4163636f756e742063616e6e6f74206265207a65726f2061646472657373000060448201526064015b60405180910390fd5b803b806101105760405162461bcd60e51b815260206004820181905260248201527f4163636f756e7420636f64652073697a652063616e6e6f74206265207a65726f60448201526064016100b8565b5050565b600180546001600160a01b038381166001600160a01b0319831681179093556040519116919082907f8be0079c531659141344cd1fd0a4f28419497f9722a3daafe3b4186f6b6457e090600090a35050565b600060208284031215610177578081fd5b81516001600160a01b038116811461018d578182fd5b9392505050565b60805160601c61110c62000200600039600081816103ab015281816104040152818161057e015281816105d90152818161073e01528181610858015281816108b301528181610b2a01528181610b8501528181610c9d01528181610cf80152610d53015261110c6000f3fe608060405234801561001057600080fd5b50600436106101d15760003560e01c80639e8ef39011610105578063d3c2f3c11161009d578063d3c2f3c114610386578063e2d8ef8d14610395578063e5b5019a1461039d578063f2f4eb26146103a6578063f2fde38b146103cd578063f92d3433146103e0578063fbfa77cf146103e8578063ff2fb57c146103f0578063fff298df146103f8576101d1565b80639e8ef390146102e1578063a20baee6146102e9578063a3f4df7e146102f8578063ae91875414610333578063b08bc7221461033b578063b32beb5b1461034e578063b7f8cf9b14610361578063c35bc55014610374578063cda775f91461037e576101d1565b806377553ad41161017857806377553ad414610268578063794e572414610270578063795d26c31461027f5780637f7dde4a14610287578063887105d31461028f57806388bf5a9b1461029757806389a8872f1461029f5780638da5cb5b146102a75780639b56d6c9146102b8576101d1565b80631bf43555146101d65780633cc74225146101f95780633f10abab146102195780635733d58f1461022e5780635a4d28bb1461023d57806361ec893d14610250578063715018a614610258578063741bef1a14610260575b600080fd5b6101e6686194049f30f720000081565b6040519081526020015b60405180910390f35b610201610400565b6040516001600160a01b0390911681526020016101f0565b61022c610227366004610f36565b610498565b005b6101e66714d1120d7b16000081565b600354610201906001600160a01b031681565b6101e6603c81565b61022c61053b565b61020161057a565b6102016105d5565b6101e6670f43fc2c04ee000081565b6101e6610630565b61020161073a565b6101e6610795565b6005546101e6565b6101e660c881565b6001546001600160a01b0316610201565b6101e66102c6366004610f1a565b6001600160a01b031660009081526006602052604090205490565b610201610854565b6101e6670de0b6b3a764000081565b6103266040518060400160405280600f81526020016e10dbdb1b14dd5c9c1b1d5cd41bdbdb608a1b81525081565b6040516101f09190610fb5565b6102016108af565b600454610201906001600160a01b031681565b61022c61035c366004610f1a565b61090a565b600254610201906001600160a01b031681565b6101e66212750081565b610201610b26565b6101e6671bc16d674ec8000081565b610201610b81565b6101e660005481565b6102017f000000000000000000000000000000000000000000000000000000000000000081565b61022c6103db366004610f1a565b610bdc565b6101e6610c77565b610201610c99565b610201610cf4565b610201610d4f565b60007f00000000000000000000000000000000000000000000000000000000000000006001600160a01b0316633cc742256040518163ffffffff1660e01b815260040160206040518083038186803b15801561045b57600080fd5b505afa15801561046f573d6000803e3d6000fd5b505050506040513d601f19601f820116820180604052508101906104939190610f81565b905090565b6104a0610daa565b6001600160a01b0382166000908152600660205260408120546104c39083610e26565b6001600160a01b0384166000908152600660205260408120829055600554919250906104ef9084610e26565b60058190556040518381529091506001600160a01b038516907ff0393a34d05e6567686ad4e097f9d9d2781565957394f1f0d984e5d8e6378f209060200160405180910390a250505050565b6001546001600160a01b0316331461056e5760405162461bcd60e51b815260040161056590611008565b60405180910390fd5b6105786000610e39565b565b60007f00000000000000000000000000000000000000000000000000000000000000006001600160a01b031663741bef1a6040518163ffffffff1660e01b815260040160206040518083038186803b15801561045b57600080fd5b60007f00000000000000000000000000000000000000000000000000000000000000006001600160a01b03166377553ad46040518163ffffffff1660e01b815260040160206040518083038186803b15801561045b57600080fd5b60008061063b61073a565b6001600160a01b03166314a6bf0f6040518163ffffffff1660e01b815260040160206040518083038186803b15801561067357600080fd5b505afa158015610687573d6000803e3d6000fd5b505050506040513d601f19601f820116820180604052508101906106ab9190610f9d565b905060006106b7610400565b6001600160a01b03166314a6bf0f6040518163ffffffff1660e01b815260040160206040518083038186803b1580156106ef57600080fd5b505afa158015610703573d6000803e3d6000fd5b505050506040513d601f19601f820116820180604052508101906107279190610f9d565b90506107338282610e26565b9250505090565b60007f00000000000000000000000000000000000000000000000000000000000000006001600160a01b0316637f7dde4a6040518163ffffffff1660e01b815260040160206040518083038186803b15801561045b57600080fd5b6000806107a061073a565b6001600160a01b03166388bf5a9b6040518163ffffffff1660e01b815260040160206040518083038186803b1580156107d857600080fd5b505afa1580156107ec573d6000803e3d6000fd5b505050506040513d601f19601f820116820180604052508101906108109190610f9d565b9050600061081c610400565b6001600160a01b03166388bf5a9b6040518163ffffffff1660e01b815260040160206040518083038186803b1580156106ef57600080fd5b60007f00000000000000000000000000000000000000000000000000000000000000006001600160a01b0316639e8ef3906040518163ffffffff1660e01b815260040160206040518083038186803b15801561045b57600080fd5b60007f00000000000000000000000000000000000000000000000000000000000000006001600160a01b031663ae9187546040518163ffffffff1660e01b815260040160206040518083038186803b15801561045b57600080fd5b610912610e8b565b6001600160a01b038116600090815260066020526040902054806109925760405162461bcd60e51b815260206004820152603160248201527f436f6c6c537572706c7573506f6f6c3a204e6f20636f6c6c61746572616c20616044820152707661696c61626c6520746f20636c61696d60781b6064820152608401610565565b6001600160a01b0382166000818152600660209081526040808320839055519182527ff0393a34d05e6567686ad4e097f9d9d2781565957394f1f0d984e5d8e6378f20910160405180910390a26005546109ec9082610f0e565b600555604080516001600160a01b0384168152602081018390527fd9ef88f073f4d2c68cdd01f32b61017d8f9e3937dfd5c1962104ec48951ea99d910160405180910390a16000610a3b610cf4565b60405163a9059cbb60e01b81526001600160a01b03858116600483015260248201859052919091169063a9059cbb90604401602060405180830381600087803b158015610a8757600080fd5b505af1158015610a9b573d6000803e3d6000fd5b505050506040513d601f19601f82011682018060405250810190610abf9190610f61565b905080610b215760405162461bcd60e51b815260206004820152602a60248201527f436f6c6c537572706c7573506f6f6c3a2073656e64696e6720436f6c6c6174656044820152691c985b0819985a5b195960b21b6064820152608401610565565b505050565b60007f00000000000000000000000000000000000000000000000000000000000000006001600160a01b031663cda775f96040518163ffffffff1660e01b815260040160206040518083038186803b15801561045b57600080fd5b60007f00000000000000000000000000000000000000000000000000000000000000006001600160a01b031663e2d8ef8d6040518163ffffffff1660e01b815260040160206040518083038186803b15801561045b57600080fd5b6001546001600160a01b03163314610c065760405162461bcd60e51b815260040161056590611008565b6001600160a01b038116610c6b5760405162461bcd60e51b815260206004820152602660248201527f4f776e61626c653a206e6577206f776e657220697320746865207a65726f206160448201526564647265737360d01b6064820152608401610565565b610c7481610e39565b50565b610c8b6103e8670de0b6b3a7640000611055565b610c96906005611075565b81565b60007f00000000000000000000000000000000000000000000000000000000000000006001600160a01b031663fbfa77cf6040518163ffffffff1660e01b815260040160206040518083038186803b15801561045b57600080fd5b60007f00000000000000000000000000000000000000000000000000000000000000006001600160a01b031663ff2fb57c6040518163ffffffff1660e01b815260040160206040518083038186803b15801561045b57600080fd5b60007f00000000000000000000000000000000000000000000000000000000000000006001600160a01b031663fff298df6040518163ffffffff1660e01b815260040160206040518083038186803b15801561045b57600080fd5b610db2610c99565b6001600160a01b0316336001600160a01b0316146105785760405162461bcd60e51b815260206004820152602b60248201527f436f6c6c537572706c7573506f6f6c3a2043616c6c6572206973206e6f74205460448201526a3937bb32a6b0b730b3b2b960a91b6064820152608401610565565b6000610e32828461103d565b9392505050565b600180546001600160a01b038381166001600160a01b0319831681179093556040519116919082907f8be0079c531659141344cd1fd0a4f28419497f9722a3daafe3b4186f6b6457e090600090a35050565b610e936105d5565b6001600160a01b0316336001600160a01b0316146105785760405162461bcd60e51b815260206004820152603260248201527f436f6c6c537572706c7573506f6f6c3a2043616c6c6572206973206e6f7420426044820152716f72726f776572204f7065726174696f6e7360701b6064820152608401610565565b6000610e328284611094565b600060208284031215610f2b578081fd5b8135610e32816110c1565b60008060408385031215610f48578081fd5b8235610f53816110c1565b946020939093013593505050565b600060208284031215610f72578081fd5b81518015158114610e32578182fd5b600060208284031215610f92578081fd5b8151610e32816110c1565b600060208284031215610fae578081fd5b5051919050565b6000602080835283518082850152825b81811015610fe157858101830151858201604001528201610fc5565b81811115610ff25783604083870101525b50601f01601f1916929092016040019392505050565b6020808252818101527f4f776e61626c653a2063616c6c6572206973206e6f7420746865206f776e6572604082015260600190565b60008219821115611050576110506110ab565b500190565b60008261107057634e487b7160e01b81526012600452602481fd5b500490565b600081600019048311821515161561108f5761108f6110ab565b500290565b6000828210156110a6576110a66110ab565b500390565b634e487b7160e01b600052601160045260246000fd5b6001600160a01b0381168114610c7457600080fdfea2646970667358221220ba35880c3e66c096e1c2f7eb98f6cff84dd2b02d0d641a0f0fc196927590b62464736f6c63430008030033",
  "devdoc": {
    "kind": "dev",
    "methods": {
      "owner()": {
        "details": "Returns the address of the current owner."
      },
      "renounceOwnership()": {
        "details": "Leaves the contract without owner. It will not be possible to call `onlyOwner` functions anymore. Can only be called by the current owner. NOTE: Renouncing ownership will leave the contract without an owner, thereby removing any functionality that is only available to the owner."
      },
      "transferOwnership(address)": {
        "details": "Transfers ownership of the contract to a new account (`newOwner`). Can only be called by the current owner."
      }
    },
    "version": 1
  },
  "userdoc": {
    "kind": "user",
    "methods": {},
    "version": 1
  },
  "storageLayout": {
    "storage": [
      {
        "astId": 15613,
        "contract": "contracts/core/CollSurplusPool.sol:CollSurplusPool",
        "label": "MAX_UINT",
        "offset": 0,
        "slot": "0",
        "type": "t_uint256"
      },
      {
        "astId": 53,
        "contract": "contracts/core/CollSurplusPool.sol:CollSurplusPool",
        "label": "_owner",
        "offset": 0,
        "slot": "1",
        "type": "t_address"
      },
      {
        "astId": 6404,
        "contract": "contracts/core/CollSurplusPool.sol:CollSurplusPool",
        "label": "borrowerOperationsAddress",
        "offset": 0,
        "slot": "2",
        "type": "t_address"
      },
      {
        "astId": 6406,
        "contract": "contracts/core/CollSurplusPool.sol:CollSurplusPool",
        "label": "troveManagerAddress",
        "offset": 0,
        "slot": "3",
        "type": "t_address"
      },
      {
        "astId": 6408,
        "contract": "contracts/core/CollSurplusPool.sol:CollSurplusPool",
        "label": "activePoolAddress",
        "offset": 0,
        "slot": "4",
        "type": "t_address"
      },
      {
        "astId": 6410,
        "contract": "contracts/core/CollSurplusPool.sol:CollSurplusPool",
        "label": "coll",
        "offset": 0,
        "slot": "5",
        "type": "t_uint256"
      },
      {
        "astId": 6414,
        "contract": "contracts/core/CollSurplusPool.sol:CollSurplusPool",
        "label": "balances",
        "offset": 0,
        "slot": "6",
        "type": "t_mapping(t_address,t_uint256)"
      }
    ],
    "types": {
      "t_address": {
        "encoding": "inplace",
        "label": "address",
        "numberOfBytes": "20"
      },
      "t_mapping(t_address,t_uint256)": {
        "encoding": "mapping",
        "key": "t_address",
        "label": "mapping(address => uint256)",
        "numberOfBytes": "32",
        "value": "t_uint256"
      },
      "t_uint256": {
        "encoding": "inplace",
        "label": "uint256",
        "numberOfBytes": "32"
      }
    }
  }
}