{
  "address": "0x232fEDAFAe2b8Bbcc6C350E42E33E1363C0b5299",
  "abi": [
    {
      "inputs": [],
      "stateMutability": "nonpayable",
      "type": "constructor"
    },
    {
      "anonymous": false,
      "inputs": [
        {
          "indexed": false,
          "internalType": "address",
          "name": "_lqtyTokenAddress",
          "type": "address"
        }
      ],
      "name": "MYOTokenAddressSet",
      "type": "event"
    },
    {
      "anonymous": false,
      "inputs": [
        {
          "indexed": true,
          "internalType": "address",
          "name": "previousOwner",
          "type": "address"
        },
        {
          "indexed": true,
          "internalType": "address",
          "name": "newOwner",
          "type": "address"
        }
      ],
      "name": "OwnershipTransferred",
      "type": "event"
    },
    {
      "anonymous": false,
      "inputs": [
        {
          "indexed": false,
          "internalType": "uint256",
          "name": "_totalLQTYIssued",
          "type": "uint256"
        }
      ],
      "name": "TotalMYOIssuedUpdated",
      "type": "event"
    },
    {
      "inputs": [],
      "name": "ISSUANCE_FACTOR",
      "outputs": [
        {
          "internalType": "uint256",
          "name": "",
          "type": "uint256"
        }
      ],
      "stateMutability": "view",
      "type": "function"
    },
    {
      "inputs": [],
      "name": "MYOSupplyCap",
      "outputs": [
        {
          "internalType": "uint256",
          "name": "",
          "type": "uint256"
        }
      ],
      "stateMutability": "view",
      "type": "function"
    },
    {
      "inputs": [],
      "name": "NAME",
      "outputs": [
        {
          "internalType": "string",
          "name": "",
          "type": "string"
        }
      ],
      "stateMutability": "view",
      "type": "function"
    },
    {
      "inputs": [],
      "name": "SECONDS_IN_ONE_MINUTE",
      "outputs": [
        {
          "internalType": "uint256",
          "name": "",
          "type": "uint256"
        }
      ],
      "stateMutability": "view",
      "type": "function"
    },
    {
      "inputs": [],
      "name": "deploymentTime",
      "outputs": [
        {
          "internalType": "uint256",
          "name": "",
          "type": "uint256"
        }
      ],
      "stateMutability": "view",
      "type": "function"
    },
    {
      "inputs": [],
      "name": "governor",
      "outputs": [
        {
          "internalType": "address",
          "name": "",
          "type": "address"
        }
      ],
      "stateMutability": "view",
      "type": "function"
    },
    {
      "inputs": [],
      "name": "issueMYO",
      "outputs": [
        {
          "internalType": "uint256",
          "name": "",
          "type": "uint256"
        }
      ],
      "stateMutability": "nonpayable",
      "type": "function"
    },
    {
      "inputs": [],
      "name": "myoToken",
      "outputs": [
        {
          "internalType": "contract IMYOToken",
          "name": "",
          "type": "address"
        }
      ],
      "stateMutability": "view",
      "type": "function"
    },
    {
      "inputs": [],
      "name": "owner",
      "outputs": [
        {
          "internalType": "address",
          "name": "",
          "type": "address"
        }
      ],
      "stateMutability": "view",
      "type": "function"
    },
    {
      "inputs": [],
      "name": "renounceOwnership",
      "outputs": [],
      "stateMutability": "nonpayable",
      "type": "function"
    },
    {
      "inputs": [
        {
          "internalType": "address",
          "name": "_account",
          "type": "address"
        },
        {
          "internalType": "uint256",
          "name": "_amount",
          "type": "uint256"
        }
      ],
      "name": "sendMYO",
      "outputs": [],
      "stateMutability": "nonpayable",
      "type": "function"
    },
    {
      "inputs": [
        {
          "internalType": "address",
          "name": "_myoTokenAddress",
          "type": "address"
        },
        {
          "internalType": "address",
          "name": "_governor",
          "type": "address"
        }
      ],
      "name": "setAddresses",
      "outputs": [],
      "stateMutability": "nonpayable",
      "type": "function"
    },
    {
      "inputs": [],
      "name": "totalMYOIssued",
      "outputs": [
        {
          "internalType": "uint256",
          "name": "",
          "type": "uint256"
        }
      ],
      "stateMutability": "view",
      "type": "function"
    },
    {
      "inputs": [
        {
          "internalType": "address",
          "name": "newOwner",
          "type": "address"
        }
      ],
      "name": "transferOwnership",
      "outputs": [],
      "stateMutability": "nonpayable",
      "type": "function"
    }
  ],
  "transactionHash": "0x0e73bfee1e6180e5712c006ff45ee7c721c8bd51dd773b9d72a14f7e71fbcdb6",
  "args": [],
  "numDeployments": 2,
  "solcInputHash": "8aa079dc372efa4fb72dddab2b66ad11",
  "bytecode": "0x60a060405234801561001057600080fd5b5061001a33610023565b42608052610073565b600080546001600160a01b038381166001600160a01b0319831681178455604051919092169283917f8be0079c531659141344cd1fd0a4f28419497f9722a3daafe3b4186f6b6457e09190a35050565b608051610aad610095600039600081816101ba01526106c90152610aad6000f3fe608060405234801561001057600080fd5b50600436106100ca5760003560e01c80639eaf23fd1161007c5780639eaf23fd1461015d578063a3f4df7e14610170578063e3172bed146101ad578063ecda10f5146101b5578063f075c4aa146101dc578063f2fde38b146101e5578063fff298df146101f8576100ca565b80630c340a24146100cf5780630fc83da3146100f85780635123209e1461011557806361ec893d14610127578063715018a61461012f5780638da5cb5b1461013957806390107afe1461014a575b600080fd5b6002546100e2906001600160a01b031681565b6040516100ef9190610939565b60405180910390f35b610107670de0b5809a6f939881565b6040519081526020016100ef565b6101076a14adf4b7320334b900000081565b610107603c81565b61013761020b565b005b6000546001600160a01b03166100e2565b61013761015836600461089f565b61024a565b61013761016b3660046108d1565b610398565b6101a060405180604001604052806011815260200170436f6d6d756e69747949737375616e636560781b81525081565b6040516100ef919061094d565b610107610426565b6101077f000000000000000000000000000000000000000000000000000000000000000081565b61010760035481565b6101376101f3366004610885565b6104bb565b6001546100e2906001600160a01b031681565b6000546001600160a01b0316331461023e5760405162461bcd60e51b8152600401610235906109a0565b60405180910390fd5b6102486000610556565b565b6000546001600160a01b031633146102745760405162461bcd60e51b8152600401610235906109a0565b61027d826105a6565b610286816105a6565b600180546001600160a01b038085166001600160a01b0319928316811790935560028054918516919092161790556040516370a0823160e01b8152600091906370a08231906102d9903090600401610939565b60206040518083038186803b1580156102f157600080fd5b505afa158015610305573d6000803e3d6000fd5b505050506040513d601f19601f820116820180604052508101906103299190610921565b90506a14adf4b7320334b900000081101561035457634e487b7160e01b600052600160045260246000fd5b7f33f77e2a6c541a8f668ac27735e35a31d6b55c1a19f3ce738c2958b618c92ce0836040516103839190610939565b60405180910390a161039361020b565b505050565b6103a061064f565b60015460405163a9059cbb60e01b81526001600160a01b038481166004830152602482018490529091169063a9059cbb90604401602060405180830381600087803b1580156103ee57600080fd5b505af1158015610402573d6000803e3d6000fd5b505050506040513d601f19601f8201168201806040525081019061039391906108fa565b600061043061064f565b6000610461670de0b6b3a764000061045b6104496106bb565b6a14adf4b7320334b900000090610748565b9061075d565b9050600061047a6003548361076990919063ffffffff16565b60038390556040518381529091507fe281cff86dbc4c355857b0eaa268d38e7ca7601c263c744df13f51ca4ac9cb449060200160405180910390a191505090565b6000546001600160a01b031633146104e55760405162461bcd60e51b8152600401610235906109a0565b6001600160a01b03811661054a5760405162461bcd60e51b815260206004820152602660248201527f4f776e61626c653a206e6577206f776e657220697320746865207a65726f206160448201526564647265737360d01b6064820152608401610235565b61055381610556565b50565b600080546001600160a01b038381166001600160a01b0319831681178455604051919092169283917f8be0079c531659141344cd1fd0a4f28419497f9722a3daafe3b4186f6b6457e09190a35050565b6001600160a01b0381166105fc5760405162461bcd60e51b815260206004820152601e60248201527f4163636f756e742063616e6e6f74206265207a65726f206164647265737300006044820152606401610235565b803b8061064b5760405162461bcd60e51b815260206004820181905260248201527f4163636f756e7420636f64652073697a652063616e6e6f74206265207a65726f6044820152606401610235565b5050565b6002546001600160a01b031633146102485760405162461bcd60e51b815260206004820152602960248201527f436f6d6d756e69747949737375616e63653a2063616c6c6572206973206e6f746044820152681033b7bb32b93737b960b91b6064820152608401610235565b6000806106ed603c61045b427f0000000000000000000000000000000000000000000000000000000000000000610769565b90506000610703670de0b5809a6f939883610775565b90506000610719670de0b6b3a764000083610769565b9050670de0b6b3a764000081111561074157634e487b7160e01b600052600160045260246000fd5b9250505090565b60006107548284610a01565b90505b92915050565b600061075482846109ed565b60006107548284610a20565b6000631f54050082111561078b57631f54050091505b8161079f5750670de0b6b3a7640000610757565b670de0b6b3a764000083835b6001811115610811576107bf600282610a37565b6107e1576107cd8283610825565b91506107da81600261075d565b905061080c565b6107eb8284610825565b92506107f78283610825565b9150610809600261045b836001610769565b90505b6107ab565b61081b8284610825565b9695505050505050565b6000806108328484610748565b9050610855670de0b6b3a764000061045b61084e6002836109ed565b849061085d565b949350505050565b600061075482846109d5565b80356001600160a01b038116811461088057600080fd5b919050565b600060208284031215610896578081fd5b61075482610869565b600080604083850312156108b1578081fd5b6108ba83610869565b91506108c860208401610869565b90509250929050565b600080604083850312156108e3578182fd5b6108ec83610869565b946020939093013593505050565b60006020828403121561090b578081fd5b8151801515811461091a578182fd5b9392505050565b600060208284031215610932578081fd5b5051919050565b6001600160a01b0391909116815260200190565b6000602080835283518082850152825b818110156109795785810183015185820160400152820161095d565b8181111561098a5783604083870101525b50601f01601f1916929092016040019392505050565b6020808252818101527f4f776e61626c653a2063616c6c6572206973206e6f7420746865206f776e6572604082015260600190565b600082198211156109e8576109e8610a4b565b500190565b6000826109fc576109fc610a61565b500490565b6000816000190483118215151615610a1b57610a1b610a4b565b500290565b600082821015610a3257610a32610a4b565b500390565b600082610a4657610a46610a61565b500690565b634e487b7160e01b600052601160045260246000fd5b634e487b7160e01b600052601260045260246000fdfea264697066735822122070002985f972b69fca36dd3cacb57965ca4d9c6a5387396b7ee96e9d4072cf0764736f6c63430008030033",
  "devdoc": {
    "kind": "dev",
    "methods": {
      "owner()": {
        "details": "Returns the address of the current owner."
      },
      "renounceOwnership()": {
        "details": "Leaves the contract without owner. It will not be possible to call `onlyOwner` functions anymore. Can only be called by the current owner. NOTE: Renouncing ownership will leave the contract without an owner, thereby removing any functionality that is only available to the owner."
      },
      "transferOwnership(address)": {
        "details": "Transfers ownership of the contract to a new account (`newOwner`). Can only be called by the current owner."
      }
    },
    "version": 1
  },
  "userdoc": {
    "kind": "user",
    "methods": {},
    "version": 1
  },
  "storageLayout": {
    "storage": [
      {
        "astId": 53,
        "contract": "contracts/MYO/CommunityIssuance.sol:CommunityIssuance",
        "label": "_owner",
        "offset": 0,
        "slot": "0",
        "type": "t_address"
      },
      {
        "astId": 2353,
        "contract": "contracts/MYO/CommunityIssuance.sol:CommunityIssuance",
        "label": "myoToken",
        "offset": 0,
        "slot": "1",
        "type": "t_contract(IMYOToken)16178"
      },
      {
        "astId": 2355,
        "contract": "contracts/MYO/CommunityIssuance.sol:CommunityIssuance",
        "label": "governor",
        "offset": 0,
        "slot": "2",
        "type": "t_address"
      },
      {
        "astId": 2357,
        "contract": "contracts/MYO/CommunityIssuance.sol:CommunityIssuance",
        "label": "totalMYOIssued",
        "offset": 0,
        "slot": "3",
        "type": "t_uint256"
      }
    ],
    "types": {
      "t_address": {
        "encoding": "inplace",
        "label": "address",
        "numberOfBytes": "20"
      },
      "t_contract(IMYOToken)16178": {
        "encoding": "inplace",
        "label": "contract IMYOToken",
        "numberOfBytes": "20"
      },
      "t_uint256": {
        "encoding": "inplace",
        "label": "uint256",
        "numberOfBytes": "32"
      }
    }
  }
}