{
  "address": "0x37F6DFa518E3708727E7eD3CbF5cA3641412890e",
  "abi": [
    {
      "anonymous": false,
      "inputs": [
        {
          "indexed": true,
          "internalType": "address",
          "name": "previousOwner",
          "type": "address"
        },
        {
          "indexed": true,
          "internalType": "address",
          "name": "newOwner",
          "type": "address"
        }
      ],
      "name": "OwnershipTransferred",
      "type": "event"
    },
    {
      "inputs": [],
      "name": "activePool",
      "outputs": [
        {
          "internalType": "contract IActivePool",
          "name": "",
          "type": "address"
        }
      ],
      "stateMutability": "view",
      "type": "function"
    },
    {
      "inputs": [],
      "name": "borrowerOperations",
      "outputs": [
        {
          "internalType": "contract IBorrowerOperations",
          "name": "",
          "type": "address"
        }
      ],
      "stateMutability": "view",
      "type": "function"
    },
    {
      "inputs": [],
      "name": "collSurplusPool",
      "outputs": [
        {
          "internalType": "contract ICollSurplusPool",
          "name": "",
          "type": "address"
        }
      ],
      "stateMutability": "view",
      "type": "function"
    },
    {
      "inputs": [],
      "name": "defaultPool",
      "outputs": [
        {
          "internalType": "contract IDefaultPool",
          "name": "",
          "type": "address"
        }
      ],
      "stateMutability": "view",
      "type": "function"
    },
    {
      "inputs": [],
      "name": "gemToken",
      "outputs": [
        {
          "internalType": "contract IERC20",
          "name": "",
          "type": "address"
        }
      ],
      "stateMutability": "view",
      "type": "function"
    },
    {
      "inputs": [],
      "name": "myoStaking",
      "outputs": [
        {
          "internalType": "contract IMYOStaking",
          "name": "",
          "type": "address"
        }
      ],
      "stateMutability": "view",
      "type": "function"
    },
    {
      "inputs": [],
      "name": "myoToken",
      "outputs": [
        {
          "internalType": "contract IMYOToken",
          "name": "",
          "type": "address"
        }
      ],
      "stateMutability": "view",
      "type": "function"
    },
    {
      "inputs": [],
      "name": "owner",
      "outputs": [
        {
          "internalType": "address",
          "name": "",
          "type": "address"
        }
      ],
      "stateMutability": "view",
      "type": "function"
    },
    {
      "inputs": [],
      "name": "paiToken",
      "outputs": [
        {
          "internalType": "contract IPAIToken",
          "name": "",
          "type": "address"
        }
      ],
      "stateMutability": "view",
      "type": "function"
    },
    {
      "inputs": [],
      "name": "priceFeed",
      "outputs": [
        {
          "internalType": "contract IPriceFeed",
          "name": "",
          "type": "address"
        }
      ],
      "stateMutability": "view",
      "type": "function"
    },
    {
      "inputs": [],
      "name": "renounceOwnership",
      "outputs": [],
      "stateMutability": "nonpayable",
      "type": "function"
    },
    {
      "inputs": [
        {
          "internalType": "address",
          "name": "_gemTokenAddress",
          "type": "address"
        },
        {
          "internalType": "address",
          "name": "_paiTokenAddress",
          "type": "address"
        },
        {
          "internalType": "address",
          "name": "_myoTokenAddress",
          "type": "address"
        },
        {
          "internalType": "address",
          "name": "_sortedTrovesAddress",
          "type": "address"
        },
        {
          "internalType": "address",
          "name": "_vaultAddress",
          "type": "address"
        },
        {
          "internalType": "address",
          "name": "_myoStakingAddress",
          "type": "address"
        },
        {
          "internalType": "address",
          "name": "_priceFeedAddress",
          "type": "address"
        },
        {
          "internalType": "address",
          "name": "_activePoolAddress",
          "type": "address"
        },
        {
          "internalType": "address",
          "name": "_defaultPoolAddress",
          "type": "address"
        },
        {
          "internalType": "address",
          "name": "_collSurplusPoolAddress",
          "type": "address"
        },
        {
          "internalType": "address",
          "name": "_borrowerOperationsAddress",
          "type": "address"
        }
      ],
      "name": "setAddresses",
      "outputs": [],
      "stateMutability": "nonpayable",
      "type": "function"
    },
    {
      "inputs": [],
      "name": "sortedTroves",
      "outputs": [
        {
          "internalType": "contract ISortedTroves",
          "name": "",
          "type": "address"
        }
      ],
      "stateMutability": "view",
      "type": "function"
    },
    {
      "inputs": [
        {
          "internalType": "address",
          "name": "newOwner",
          "type": "address"
        }
      ],
      "name": "transferOwnership",
      "outputs": [],
      "stateMutability": "nonpayable",
      "type": "function"
    },
    {
      "inputs": [],
      "name": "vault",
      "outputs": [
        {
          "internalType": "contract IVault",
          "name": "",
          "type": "address"
        }
      ],
      "stateMutability": "view",
      "type": "function"
    }
  ],
  "transactionHash": "0x662b67ed40dfc827f010693ceffb072c2eca81a104244efee824d7de37ab853c",
  "args": [],
  "numDeployments": 2,
  "solcInputHash": "8aa079dc372efa4fb72dddab2b66ad11",
  "bytecode": "0x608060405234801561001057600080fd5b5061001a3361001f565b61006f565b600080546001600160a01b038381166001600160a01b0319831681178455604051919092169283917f8be0079c531659141344cd1fd0a4f28419497f9722a3daafe3b4186f6b6457e09190a35050565b61068e8061007e6000396000f3fe608060405234801561001057600080fd5b50600436106100d55760003560e01c80639e8ef390116100875780639e8ef39014610170578063ae91875414610183578063cda775f914610196578063e2d8ef8d146101a9578063f2fde38b146101bc578063fbfa77cf146101cf578063ff2fb57c146101e2578063fff298df146101f5576100d5565b80633cc74225146100da578063715018a614610109578063741bef1a1461011357806377553ad4146101265780637985c5e4146101395780637f7dde4a1461014c5780638da5cb5b1461015f575b600080fd5b6007546100ed906001600160a01b031681565b6040516001600160a01b03909116815260200160405180910390f35b610111610208565b005b6006546100ed906001600160a01b031681565b600a546100ed906001600160a01b031681565b610111610147366004610558565b610247565b6008546100ed906001600160a01b031681565b6000546001600160a01b03166100ed565b6002546100ed906001600160a01b031681565b6004546100ed906001600160a01b031681565b6009546100ed906001600160a01b031681565b600b546100ed906001600160a01b031681565b6101116101ca366004610537565b610387565b6005546100ed906001600160a01b031681565b6001546100ed906001600160a01b031681565b6003546100ed906001600160a01b031681565b6000546001600160a01b0316331461023b5760405162461bcd60e51b815260040161023290610623565b60405180910390fd5b6102456000610422565b565b6000546001600160a01b031633146102715760405162461bcd60e51b815260040161023290610623565b61027a8b610472565b6102838a610472565b61028c89610472565b61029588610472565b61029e87610472565b6102a786610472565b6102b085610472565b6102b984610472565b6102c283610472565b6102cb82610472565b6102d481610472565b600180546001600160a01b03199081166001600160a01b038e8116919091179092556002805482168d84161790556003805482168c84161790556004805482168b84161790556005805482168a8416179055600b80548216898416179055600680548216888416179055600880548216878416179055600780548216868416179055600980548216858416179055600a805490911691831691909117905561037a610208565b5050505050505050505050565b6000546001600160a01b031633146103b15760405162461bcd60e51b815260040161023290610623565b6001600160a01b0381166104165760405162461bcd60e51b815260206004820152602660248201527f4f776e61626c653a206e6577206f776e657220697320746865207a65726f206160448201526564647265737360d01b6064820152608401610232565b61041f81610422565b50565b600080546001600160a01b038381166001600160a01b0319831681178455604051919092169283917f8be0079c531659141344cd1fd0a4f28419497f9722a3daafe3b4186f6b6457e09190a35050565b6001600160a01b0381166104c85760405162461bcd60e51b815260206004820152601e60248201527f4163636f756e742063616e6e6f74206265207a65726f206164647265737300006044820152606401610232565b803b806105175760405162461bcd60e51b815260206004820181905260248201527f4163636f756e7420636f64652073697a652063616e6e6f74206265207a65726f6044820152606401610232565b5050565b80356001600160a01b038116811461053257600080fd5b919050565b600060208284031215610548578081fd5b6105518261051b565b9392505050565b60008060008060008060008060008060006101608c8e031215610579578687fd5b6105828c61051b565b9a5061059060208d0161051b565b995061059e60408d0161051b565b98506105ac60608d0161051b565b97506105ba60808d0161051b565b96506105c860a08d0161051b565b95506105d660c08d0161051b565b94506105e460e08d0161051b565b93506105f36101008d0161051b565b92506106026101208d0161051b565b91506106116101408d0161051b565b90509295989b509295989b9093969950565b6020808252818101527f4f776e61626c653a2063616c6c6572206973206e6f7420746865206f776e657260408201526060019056fea26469706673582212209614bf6f3e0d40851200ce5ac719a6382daeb24bf0f3b0521e44caa5e7d84bdb64736f6c63430008030033",
  "devdoc": {
    "kind": "dev",
    "methods": {
      "owner()": {
        "details": "Returns the address of the current owner."
      },
      "renounceOwnership()": {
        "details": "Leaves the contract without owner. It will not be possible to call `onlyOwner` functions anymore. Can only be called by the current owner. NOTE: Renouncing ownership will leave the contract without an owner, thereby removing any functionality that is only available to the owner."
      },
      "transferOwnership(address)": {
        "details": "Transfers ownership of the contract to a new account (`newOwner`). Can only be called by the current owner."
      }
    },
    "version": 1
  },
  "userdoc": {
    "kind": "user",
    "methods": {},
    "version": 1
  },
  "storageLayout": {
    "storage": [
      {
        "astId": 53,
        "contract": "contracts/core/Core.sol:Core",
        "label": "_owner",
        "offset": 0,
        "slot": "0",
        "type": "t_address"
      },
      {
        "astId": 6623,
        "contract": "contracts/core/Core.sol:Core",
        "label": "gemToken",
        "offset": 0,
        "slot": "1",
        "type": "t_contract(IERC20)774"
      },
      {
        "astId": 6627,
        "contract": "contracts/core/Core.sol:Core",
        "label": "paiToken",
        "offset": 0,
        "slot": "2",
        "type": "t_contract(IPAIToken)16238"
      },
      {
        "astId": 6631,
        "contract": "contracts/core/Core.sol:Core",
        "label": "myoToken",
        "offset": 0,
        "slot": "3",
        "type": "t_contract(IMYOToken)16178"
      },
      {
        "astId": 6635,
        "contract": "contracts/core/Core.sol:Core",
        "label": "sortedTroves",
        "offset": 0,
        "slot": "4",
        "type": "t_contract(ISortedTroves)16382"
      },
      {
        "astId": 6639,
        "contract": "contracts/core/Core.sol:Core",
        "label": "vault",
        "offset": 0,
        "slot": "5",
        "type": "t_contract(IVault)16742"
      },
      {
        "astId": 6643,
        "contract": "contracts/core/Core.sol:Core",
        "label": "priceFeed",
        "offset": 0,
        "slot": "6",
        "type": "t_contract(IPriceFeed)16250"
      },
      {
        "astId": 6647,
        "contract": "contracts/core/Core.sol:Core",
        "label": "defaultPool",
        "offset": 0,
        "slot": "7",
        "type": "t_contract(IDefaultPool)16026"
      },
      {
        "astId": 6651,
        "contract": "contracts/core/Core.sol:Core",
        "label": "activePool",
        "offset": 0,
        "slot": "8",
        "type": "t_contract(IActivePool)15686"
      },
      {
        "astId": 6655,
        "contract": "contracts/core/Core.sol:Core",
        "label": "collSurplusPool",
        "offset": 0,
        "slot": "9",
        "type": "t_contract(ICollSurplusPool)15842"
      },
      {
        "astId": 6659,
        "contract": "contracts/core/Core.sol:Core",
        "label": "borrowerOperations",
        "offset": 0,
        "slot": "10",
        "type": "t_contract(IBorrowerOperations)15803"
      },
      {
        "astId": 6663,
        "contract": "contracts/core/Core.sol:Core",
        "label": "myoStaking",
        "offset": 0,
        "slot": "11",
        "type": "t_contract(IMYOStaking)16109"
      }
    ],
    "types": {
      "t_address": {
        "encoding": "inplace",
        "label": "address",
        "numberOfBytes": "20"
      },
      "t_contract(IActivePool)15686": {
        "encoding": "inplace",
        "label": "contract IActivePool",
        "numberOfBytes": "20"
      },
      "t_contract(IBorrowerOperations)15803": {
        "encoding": "inplace",
        "label": "contract IBorrowerOperations",
        "numberOfBytes": "20"
      },
      "t_contract(ICollSurplusPool)15842": {
        "encoding": "inplace",
        "label": "contract ICollSurplusPool",
        "numberOfBytes": "20"
      },
      "t_contract(IDefaultPool)16026": {
        "encoding": "inplace",
        "label": "contract IDefaultPool",
        "numberOfBytes": "20"
      },
      "t_contract(IERC20)774": {
        "encoding": "inplace",
        "label": "contract IERC20",
        "numberOfBytes": "20"
      },
      "t_contract(IMYOStaking)16109": {
        "encoding": "inplace",
        "label": "contract IMYOStaking",
        "numberOfBytes": "20"
      },
      "t_contract(IMYOToken)16178": {
        "encoding": "inplace",
        "label": "contract IMYOToken",
        "numberOfBytes": "20"
      },
      "t_contract(IPAIToken)16238": {
        "encoding": "inplace",
        "label": "contract IPAIToken",
        "numberOfBytes": "20"
      },
      "t_contract(IPriceFeed)16250": {
        "encoding": "inplace",
        "label": "contract IPriceFeed",
        "numberOfBytes": "20"
      },
      "t_contract(ISortedTroves)16382": {
        "encoding": "inplace",
        "label": "contract ISortedTroves",
        "numberOfBytes": "20"
      },
      "t_contract(IVault)16742": {
        "encoding": "inplace",
        "label": "contract IVault",
        "numberOfBytes": "20"
      }
    }
  }
}