{
  "address": "0x36c6A923D4D56Ac1f17305093a0255A3D8009490",
  "abi": [
    {
      "inputs": [
        {
          "internalType": "address",
          "name": "_core",
          "type": "address"
        }
      ],
      "stateMutability": "nonpayable",
      "type": "constructor"
    },
    {
      "anonymous": false,
      "inputs": [
        {
          "indexed": false,
          "internalType": "uint256",
          "name": "_amount",
          "type": "uint256"
        }
      ],
      "name": "DefaultPoolCollBalanceUpdated",
      "type": "event"
    },
    {
      "anonymous": false,
      "inputs": [
        {
          "indexed": false,
          "internalType": "uint256",
          "name": "_debt",
          "type": "uint256"
        }
      ],
      "name": "DefaultPoolDebtBalanceUpdated",
      "type": "event"
    },
    {
      "anonymous": false,
      "inputs": [
        {
          "indexed": false,
          "internalType": "address",
          "name": "_recipient",
          "type": "address"
        },
        {
          "indexed": false,
          "internalType": "uint256",
          "name": "_amount",
          "type": "uint256"
        }
      ],
      "name": "GemSent",
      "type": "event"
    },
    {
      "inputs": [],
      "name": "BOOTSTRAP_PERIOD",
      "outputs": [
        {
          "internalType": "uint256",
          "name": "",
          "type": "uint256"
        }
      ],
      "stateMutability": "view",
      "type": "function"
    },
    {
      "inputs": [],
      "name": "BORROWING_FEE_FLOOR",
      "outputs": [
        {
          "internalType": "uint256",
          "name": "",
          "type": "uint256"
        }
      ],
      "stateMutability": "view",
      "type": "function"
    },
    {
      "inputs": [],
      "name": "CCR",
      "outputs": [
        {
          "internalType": "uint256",
          "name": "",
          "type": "uint256"
        }
      ],
      "stateMutability": "view",
      "type": "function"
    },
    {
      "inputs": [],
      "name": "DAI_GAS_COMPENSATION",
      "outputs": [
        {
          "internalType": "uint256",
          "name": "",
          "type": "uint256"
        }
      ],
      "stateMutability": "view",
      "type": "function"
    },
    {
      "inputs": [],
      "name": "DECIMAL_PRECISION",
      "outputs": [
        {
          "internalType": "uint256",
          "name": "",
          "type": "uint256"
        }
      ],
      "stateMutability": "view",
      "type": "function"
    },
    {
      "inputs": [],
      "name": "HALF_PERCENT_DIVISOR",
      "outputs": [
        {
          "internalType": "uint256",
          "name": "",
          "type": "uint256"
        }
      ],
      "stateMutability": "view",
      "type": "function"
    },
    {
      "inputs": [],
      "name": "MAX_UINT",
      "outputs": [
        {
          "internalType": "uint256",
          "name": "",
          "type": "uint256"
        }
      ],
      "stateMutability": "view",
      "type": "function"
    },
    {
      "inputs": [],
      "name": "MCR",
      "outputs": [
        {
          "internalType": "uint256",
          "name": "",
          "type": "uint256"
        }
      ],
      "stateMutability": "view",
      "type": "function"
    },
    {
      "inputs": [],
      "name": "MIN_NET_DEBT",
      "outputs": [
        {
          "internalType": "uint256",
          "name": "",
          "type": "uint256"
        }
      ],
      "stateMutability": "view",
      "type": "function"
    },
    {
      "inputs": [],
      "name": "NAME",
      "outputs": [
        {
          "internalType": "string",
          "name": "",
          "type": "string"
        }
      ],
      "stateMutability": "view",
      "type": "function"
    },
    {
      "inputs": [],
      "name": "SECONDS_IN_ONE_MINUTE",
      "outputs": [
        {
          "internalType": "uint256",
          "name": "",
          "type": "uint256"
        }
      ],
      "stateMutability": "view",
      "type": "function"
    },
    {
      "inputs": [],
      "name": "activePool",
      "outputs": [
        {
          "internalType": "contract IActivePool",
          "name": "",
          "type": "address"
        }
      ],
      "stateMutability": "view",
      "type": "function"
    },
    {
      "inputs": [],
      "name": "borrowerOperations",
      "outputs": [
        {
          "internalType": "contract IBorrowerOperations",
          "name": "",
          "type": "address"
        }
      ],
      "stateMutability": "view",
      "type": "function"
    },
    {
      "inputs": [],
      "name": "coll",
      "outputs": [
        {
          "internalType": "uint256",
          "name": "",
          "type": "uint256"
        }
      ],
      "stateMutability": "view",
      "type": "function"
    },
    {
      "inputs": [],
      "name": "collSurplusPool",
      "outputs": [
        {
          "internalType": "contract ICollSurplusPool",
          "name": "",
          "type": "address"
        }
      ],
      "stateMutability": "view",
      "type": "function"
    },
    {
      "inputs": [],
      "name": "core",
      "outputs": [
        {
          "internalType": "contract ICore",
          "name": "",
          "type": "address"
        }
      ],
      "stateMutability": "view",
      "type": "function"
    },
    {
      "inputs": [],
      "name": "debt",
      "outputs": [
        {
          "internalType": "uint256",
          "name": "",
          "type": "uint256"
        }
      ],
      "stateMutability": "view",
      "type": "function"
    },
    {
      "inputs": [
        {
          "internalType": "uint256",
          "name": "_amount",
          "type": "uint256"
        }
      ],
      "name": "decreaseDebt",
      "outputs": [],
      "stateMutability": "nonpayable",
      "type": "function"
    },
    {
      "inputs": [],
      "name": "defaultPool",
      "outputs": [
        {
          "internalType": "contract IDefaultPool",
          "name": "",
          "type": "address"
        }
      ],
      "stateMutability": "view",
      "type": "function"
    },
    {
      "inputs": [],
      "name": "gemToken",
      "outputs": [
        {
          "internalType": "contract IERC20",
          "name": "",
          "type": "address"
        }
      ],
      "stateMutability": "view",
      "type": "function"
    },
    {
      "inputs": [],
      "name": "getColl",
      "outputs": [
        {
          "internalType": "uint256",
          "name": "",
          "type": "uint256"
        }
      ],
      "stateMutability": "view",
      "type": "function"
    },
    {
      "inputs": [],
      "name": "getDebt",
      "outputs": [
        {
          "internalType": "uint256",
          "name": "",
          "type": "uint256"
        }
      ],
      "stateMutability": "view",
      "type": "function"
    },
    {
      "inputs": [],
      "name": "getEntireSystemColl",
      "outputs": [
        {
          "internalType": "uint256",
          "name": "entireSystemColl",
          "type": "uint256"
        }
      ],
      "stateMutability": "view",
      "type": "function"
    },
    {
      "inputs": [],
      "name": "getEntireSystemDebt",
      "outputs": [
        {
          "internalType": "uint256",
          "name": "entireSystemDebt",
          "type": "uint256"
        }
      ],
      "stateMutability": "view",
      "type": "function"
    },
    {
      "inputs": [
        {
          "internalType": "uint256",
          "name": "_amount",
          "type": "uint256"
        }
      ],
      "name": "increaseDebt",
      "outputs": [],
      "stateMutability": "nonpayable",
      "type": "function"
    },
    {
      "inputs": [],
      "name": "myoStaking",
      "outputs": [
        {
          "internalType": "contract IMYOStaking",
          "name": "",
          "type": "address"
        }
      ],
      "stateMutability": "view",
      "type": "function"
    },
    {
      "inputs": [],
      "name": "myoToken",
      "outputs": [
        {
          "internalType": "contract IMYOToken",
          "name": "",
          "type": "address"
        }
      ],
      "stateMutability": "view",
      "type": "function"
    },
    {
      "inputs": [],
      "name": "paiToken",
      "outputs": [
        {
          "internalType": "contract IPAIToken",
          "name": "",
          "type": "address"
        }
      ],
      "stateMutability": "view",
      "type": "function"
    },
    {
      "inputs": [],
      "name": "priceFeed",
      "outputs": [
        {
          "internalType": "contract IPriceFeed",
          "name": "",
          "type": "address"
        }
      ],
      "stateMutability": "view",
      "type": "function"
    },
    {
      "inputs": [
        {
          "internalType": "uint256",
          "name": "_amount",
          "type": "uint256"
        }
      ],
      "name": "receiveColl",
      "outputs": [
        {
          "internalType": "bool",
          "name": "success",
          "type": "bool"
        }
      ],
      "stateMutability": "nonpayable",
      "type": "function"
    },
    {
      "inputs": [
        {
          "internalType": "uint256",
          "name": "_amount",
          "type": "uint256"
        }
      ],
      "name": "sendCollToActivePool",
      "outputs": [],
      "stateMutability": "nonpayable",
      "type": "function"
    },
    {
      "inputs": [],
      "name": "sortedTroves",
      "outputs": [
        {
          "internalType": "contract ISortedTroves",
          "name": "",
          "type": "address"
        }
      ],
      "stateMutability": "view",
      "type": "function"
    },
    {
      "inputs": [],
      "name": "vault",
      "outputs": [
        {
          "internalType": "contract IVault",
          "name": "",
          "type": "address"
        }
      ],
      "stateMutability": "view",
      "type": "function"
    }
  ],
  "transactionHash": "0x8b2bc4ad83a12c532a8ddffe1af5cdfb6b12225c472b9b011474fc1b550ed5a5",
  "args": [
    "0x37F6DFa518E3708727E7eD3CbF5cA3641412890e"
  ],
  "numDeployments": 2,
  "solcInputHash": "8aa079dc372efa4fb72dddab2b66ad11",
  "bytecode": "0x60a060405260001960005534801561001657600080fd5b506040516110cf3803806110cf83398101604081905261003591610103565b8061003f81610055565b60601b6001600160601b03191660805250610131565b6001600160a01b0381166100b05760405162461bcd60e51b815260206004820152601e60248201527f4163636f756e742063616e6e6f74206265207a65726f2061646472657373000060448201526064015b60405180910390fd5b803b806100ff5760405162461bcd60e51b815260206004820181905260248201527f4163636f756e7420636f64652073697a652063616e6e6f74206265207a65726f60448201526064016100a7565b5050565b600060208284031215610114578081fd5b81516001600160a01b038116811461012a578182fd5b9392505050565b60805160601c610f3361019c60003960008181610366015281816104100152818161064a015281816106a50152818161080a01528181610a6c01528181610ac701528181610b2201528181610b7d01528181610bfa01528181610c550152610cb00152610f336000f3fe608060405234801561001057600080fd5b50600436106101bb5760003560e01c806388bf5a9b116100fa578063d3c2f3c11161009d578063d3c2f3c114610338578063e2d8ef8d14610347578063e5b5019a1461034f578063e89355c214610358578063f2f4eb2614610361578063f92d343314610388578063fbfa77cf14610390578063ff2fb57c14610398578063fff298df146103a0576101bb565b806388bf5a9b146102c057806389a8872f146102c85780639e8ef390146102d0578063a20baee6146102d8578063a3f4df7e146102e7578063ae9187541461031e578063c35bc55014610326578063cda775f914610330576101bb565b806361ec893d1161016257806361ec893d1461025e578063741bef1a1461026657806377553ad41461026e578063794e572414610276578063795d26c3146102855780637f7dde4a1461028d57806383b60e4d14610295578063887105d3146102b8576101bb565b80630dca59c1146101c057806314a6bf0f146101dc5780631bf43555146101e45780632a7ba1f7146101f45780632b7c7b11146102095780633cc742251461021c5780633d5dae7a1461023c5780635733d58f1461024f575b600080fd5b6101c960025481565b6040519081526020015b60405180910390f35b6002546101c9565b6101c9686194049f30f720000081565b610207610202366004610dde565b6103a8565b005b610207610217366004610dde565b6103f7565b61022461040c565b6040516001600160a01b0390911681526020016101d3565b61020761024a366004610dde565b6104a4565b6101c96714d1120d7b16000081565b6101c9603c81565b610224610646565b6102246106a1565b6101c9670f43fc2c04ee000081565b6101c96106fc565b610224610806565b6102a86102a3366004610dde565b610861565b60405190151581526020016101d3565b6101c96109a9565b6001546101c9565b6101c960c881565b610224610a68565b6101c9670de0b6b3a764000081565b6103116040518060400160405280600b81526020016a111959985d5b1d141bdbdb60aa1b81525081565b6040516101d39190610e0e565b610224610ac3565b6101c96212750081565b610224610b1e565b6101c9671bc16d674ec8000081565b610224610b79565b6101c960005481565b6101c960015481565b6102247f000000000000000000000000000000000000000000000000000000000000000081565b6101c9610bd4565b610224610bf6565b610224610c51565b610224610cac565b6103b0610d07565b6002546103bd9082610d83565b60028190556040519081527e80fffc845c686f4b4eeb844cc56b29b8e0036bbfb8b4731a33556de38c9f569060200160405180910390a150565b6103ff610d07565b6002546103bd9082610d96565b60007f00000000000000000000000000000000000000000000000000000000000000006001600160a01b0316633cc742256040518163ffffffff1660e01b815260040160206040518083038186803b15801561046757600080fd5b505afa15801561047b573d6000803e3d6000fd5b505050506040513d601f19601f8201168201806040525081019061049f9190610dc2565b905090565b6104ac610d07565b6001546104b99082610d83565b60018190556040519081527fb81b9c2dfafac0a12c15a844bf9eeadd4056362c69dfce825ce7538d1706d8eb9060200160405180910390a17fd66b9725f20cf3768983e96d315b4ce002539a2765dfb13a7658b6baaeb62b3361051a610806565b604080516001600160a01b039092168252602082018490520160405180910390a16000610545610c51565b6001600160a01b031663a9059cbb61055b610806565b6040516001600160e01b031960e084901b1681526001600160a01b03909116600482015260248101859052604401602060405180830381600087803b1580156105a357600080fd5b505af11580156105b7573d6000803e3d6000fd5b505050506040513d601f19601f820116820180604052508101906105db9190610da2565b9050806106425760405162461bcd60e51b815260206004820152602a60248201527f44656661756c74506f6f6c3a2073656e64696e6720436f6c6c61746572616c2060448201526911d95b4819985a5b195960b21b60648201526084015b60405180910390fd5b5050565b60007f00000000000000000000000000000000000000000000000000000000000000006001600160a01b031663741bef1a6040518163ffffffff1660e01b815260040160206040518083038186803b15801561046757600080fd5b60007f00000000000000000000000000000000000000000000000000000000000000006001600160a01b03166377553ad46040518163ffffffff1660e01b815260040160206040518083038186803b15801561046757600080fd5b600080610707610806565b6001600160a01b03166314a6bf0f6040518163ffffffff1660e01b815260040160206040518083038186803b15801561073f57600080fd5b505afa158015610753573d6000803e3d6000fd5b505050506040513d601f19601f820116820180604052508101906107779190610df6565b9050600061078361040c565b6001600160a01b03166314a6bf0f6040518163ffffffff1660e01b815260040160206040518083038186803b1580156107bb57600080fd5b505afa1580156107cf573d6000803e3d6000fd5b505050506040513d601f19601f820116820180604052508101906107f39190610df6565b90506107ff8282610d96565b9250505090565b60007f00000000000000000000000000000000000000000000000000000000000000006001600160a01b0316637f7dde4a6040518163ffffffff1660e01b815260040160206040518083038186803b15801561046757600080fd5b600061086b610d07565b6001546108789083610d96565b60018190556040519081527fb81b9c2dfafac0a12c15a844bf9eeadd4056362c69dfce825ce7538d1706d8eb9060200160405180910390a16108b8610c51565b6040516323b872dd60e01b8152336004820152306024820152604481018490526001600160a01b0391909116906323b872dd90606401602060405180830381600087803b15801561090857600080fd5b505af115801561091c573d6000803e3d6000fd5b505050506040513d601f19601f820116820180604052508101906109409190610da2565b9050806109a45760405162461bcd60e51b815260206004820152602c60248201527f44656661756c74506f6f6c3a207265636569766520455243323020436f6c6c6160448201526b1d195c985b0811985a5b195960a21b6064820152608401610639565b919050565b6000806109b4610806565b6001600160a01b03166388bf5a9b6040518163ffffffff1660e01b815260040160206040518083038186803b1580156109ec57600080fd5b505afa158015610a00573d6000803e3d6000fd5b505050506040513d601f19601f82011682018060405250810190610a249190610df6565b90506000610a3061040c565b6001600160a01b03166388bf5a9b6040518163ffffffff1660e01b815260040160206040518083038186803b1580156107bb57600080fd5b60007f00000000000000000000000000000000000000000000000000000000000000006001600160a01b0316639e8ef3906040518163ffffffff1660e01b815260040160206040518083038186803b15801561046757600080fd5b60007f00000000000000000000000000000000000000000000000000000000000000006001600160a01b031663ae9187546040518163ffffffff1660e01b815260040160206040518083038186803b15801561046757600080fd5b60007f00000000000000000000000000000000000000000000000000000000000000006001600160a01b031663cda775f96040518163ffffffff1660e01b815260040160206040518083038186803b15801561046757600080fd5b60007f00000000000000000000000000000000000000000000000000000000000000006001600160a01b031663e2d8ef8d6040518163ffffffff1660e01b815260040160206040518083038186803b15801561046757600080fd5b610be86103e8670de0b6b3a7640000610e79565b610bf3906005610e99565b81565b60007f00000000000000000000000000000000000000000000000000000000000000006001600160a01b031663fbfa77cf6040518163ffffffff1660e01b815260040160206040518083038186803b15801561046757600080fd5b60007f00000000000000000000000000000000000000000000000000000000000000006001600160a01b031663ff2fb57c6040518163ffffffff1660e01b815260040160206040518083038186803b15801561046757600080fd5b60007f00000000000000000000000000000000000000000000000000000000000000006001600160a01b031663fff298df6040518163ffffffff1660e01b815260040160206040518083038186803b15801561046757600080fd5b610d0f610bf6565b6001600160a01b0316336001600160a01b031614610d815760405162461bcd60e51b815260206004820152602960248201527f44656661756c74506f6f6c3a2043616c6c6572206973206e6f7420746865204160448201526818dd1a5d99541bdbdb60ba1b6064820152608401610639565b565b6000610d8f8284610eb8565b9392505050565b6000610d8f8284610e61565b600060208284031215610db3578081fd5b81518015158114610d8f578182fd5b600060208284031215610dd3578081fd5b8151610d8f81610ee5565b600060208284031215610def578081fd5b5035919050565b600060208284031215610e07578081fd5b5051919050565b6000602080835283518082850152825b81811015610e3a57858101830151858201604001528201610e1e565b81811115610e4b5783604083870101525b50601f01601f1916929092016040019392505050565b60008219821115610e7457610e74610ecf565b500190565b600082610e9457634e487b7160e01b81526012600452602481fd5b500490565b6000816000190483118215151615610eb357610eb3610ecf565b500290565b600082821015610eca57610eca610ecf565b500390565b634e487b7160e01b600052601160045260246000fd5b6001600160a01b0381168114610efa57600080fd5b5056fea264697066735822122000348e5bebc910db077817c679690f39cba3fd0f3226244db6b789bed0403d0764736f6c63430008030033",
  "devdoc": {
    "kind": "dev",
    "methods": {},
    "version": 1
  },
  "userdoc": {
    "kind": "user",
    "methods": {},
    "version": 1
  },
  "storageLayout": {
    "storage": [
      {
        "astId": 15613,
        "contract": "contracts/core/DefaultPool.sol:DefaultPool",
        "label": "MAX_UINT",
        "offset": 0,
        "slot": "0",
        "type": "t_uint256"
      },
      {
        "astId": 7191,
        "contract": "contracts/core/DefaultPool.sol:DefaultPool",
        "label": "coll",
        "offset": 0,
        "slot": "1",
        "type": "t_uint256"
      },
      {
        "astId": 7193,
        "contract": "contracts/core/DefaultPool.sol:DefaultPool",
        "label": "debt",
        "offset": 0,
        "slot": "2",
        "type": "t_uint256"
      }
    ],
    "types": {
      "t_uint256": {
        "encoding": "inplace",
        "label": "uint256",
        "numberOfBytes": "32"
      }
    }
  }
}