{
  "address": "0x10942A8DF21809999634282fe0e981780A05CAe3",
  "abi": [
    {
      "anonymous": false,
      "inputs": [
        {
          "indexed": true,
          "internalType": "address",
          "name": "previousOwner",
          "type": "address"
        },
        {
          "indexed": true,
          "internalType": "address",
          "name": "newOwner",
          "type": "address"
        }
      ],
      "name": "OwnershipTransferred",
      "type": "event"
    },
    {
      "anonymous": false,
      "inputs": [
        {
          "indexed": false,
          "internalType": "address",
          "name": "_sortedTrovesAddress",
          "type": "address"
        }
      ],
      "name": "SortedTrovesAddressChanged",
      "type": "event"
    },
    {
      "anonymous": false,
      "inputs": [
        {
          "indexed": false,
          "internalType": "address",
          "name": "_vaultAddress",
          "type": "address"
        }
      ],
      "name": "VaultAddressChanged",
      "type": "event"
    },
    {
      "inputs": [],
      "name": "BOOTSTRAP_PERIOD",
      "outputs": [
        {
          "internalType": "uint256",
          "name": "",
          "type": "uint256"
        }
      ],
      "stateMutability": "view",
      "type": "function"
    },
    {
      "inputs": [],
      "name": "BORROWING_FEE_FLOOR",
      "outputs": [
        {
          "internalType": "uint256",
          "name": "",
          "type": "uint256"
        }
      ],
      "stateMutability": "view",
      "type": "function"
    },
    {
      "inputs": [],
      "name": "CCR",
      "outputs": [
        {
          "internalType": "uint256",
          "name": "",
          "type": "uint256"
        }
      ],
      "stateMutability": "view",
      "type": "function"
    },
    {
      "inputs": [],
      "name": "DAI_GAS_COMPENSATION",
      "outputs": [
        {
          "internalType": "uint256",
          "name": "",
          "type": "uint256"
        }
      ],
      "stateMutability": "view",
      "type": "function"
    },
    {
      "inputs": [],
      "name": "DECIMAL_PRECISION",
      "outputs": [
        {
          "internalType": "uint256",
          "name": "",
          "type": "uint256"
        }
      ],
      "stateMutability": "view",
      "type": "function"
    },
    {
      "inputs": [],
      "name": "HALF_PERCENT_DIVISOR",
      "outputs": [
        {
          "internalType": "uint256",
          "name": "",
          "type": "uint256"
        }
      ],
      "stateMutability": "view",
      "type": "function"
    },
    {
      "inputs": [],
      "name": "MAX_UINT",
      "outputs": [
        {
          "internalType": "uint256",
          "name": "",
          "type": "uint256"
        }
      ],
      "stateMutability": "view",
      "type": "function"
    },
    {
      "inputs": [],
      "name": "MCR",
      "outputs": [
        {
          "internalType": "uint256",
          "name": "",
          "type": "uint256"
        }
      ],
      "stateMutability": "view",
      "type": "function"
    },
    {
      "inputs": [],
      "name": "MIN_NET_DEBT",
      "outputs": [
        {
          "internalType": "uint256",
          "name": "",
          "type": "uint256"
        }
      ],
      "stateMutability": "view",
      "type": "function"
    },
    {
      "inputs": [],
      "name": "NAME",
      "outputs": [
        {
          "internalType": "string",
          "name": "",
          "type": "string"
        }
      ],
      "stateMutability": "view",
      "type": "function"
    },
    {
      "inputs": [],
      "name": "SECONDS_IN_ONE_MINUTE",
      "outputs": [
        {
          "internalType": "uint256",
          "name": "",
          "type": "uint256"
        }
      ],
      "stateMutability": "view",
      "type": "function"
    },
    {
      "inputs": [
        {
          "internalType": "uint256",
          "name": "_coll",
          "type": "uint256"
        },
        {
          "internalType": "uint256",
          "name": "_debt",
          "type": "uint256"
        },
        {
          "internalType": "uint256",
          "name": "_price",
          "type": "uint256"
        }
      ],
      "name": "computeCR",
      "outputs": [
        {
          "internalType": "uint256",
          "name": "",
          "type": "uint256"
        }
      ],
      "stateMutability": "pure",
      "type": "function"
    },
    {
      "inputs": [
        {
          "internalType": "uint256",
          "name": "_coll",
          "type": "uint256"
        },
        {
          "internalType": "uint256",
          "name": "_debt",
          "type": "uint256"
        }
      ],
      "name": "computeNominalCR",
      "outputs": [
        {
          "internalType": "uint256",
          "name": "",
          "type": "uint256"
        }
      ],
      "stateMutability": "pure",
      "type": "function"
    },
    {
      "inputs": [
        {
          "internalType": "uint256",
          "name": "_CR",
          "type": "uint256"
        },
        {
          "internalType": "uint256",
          "name": "_numTrials",
          "type": "uint256"
        },
        {
          "internalType": "uint256",
          "name": "_inputRandomSeed",
          "type": "uint256"
        }
      ],
      "name": "getApproxHint",
      "outputs": [
        {
          "internalType": "address",
          "name": "hintAddress",
          "type": "address"
        },
        {
          "internalType": "uint256",
          "name": "diff",
          "type": "uint256"
        },
        {
          "internalType": "uint256",
          "name": "latestRandomSeed",
          "type": "uint256"
        }
      ],
      "stateMutability": "view",
      "type": "function"
    },
    {
      "inputs": [
        {
          "internalType": "uint256",
          "name": "_PAIamount",
          "type": "uint256"
        },
        {
          "internalType": "uint256",
          "name": "_price",
          "type": "uint256"
        },
        {
          "internalType": "uint256",
          "name": "_maxIterations",
          "type": "uint256"
        }
      ],
      "name": "getRedemptionHints",
      "outputs": [
        {
          "internalType": "address",
          "name": "firstRedemptionHint",
          "type": "address"
        },
        {
          "internalType": "uint256",
          "name": "partialRedemptionHintNICR",
          "type": "uint256"
        },
        {
          "internalType": "uint256",
          "name": "truncatedPAIamount",
          "type": "uint256"
        }
      ],
      "stateMutability": "view",
      "type": "function"
    },
    {
      "inputs": [],
      "name": "owner",
      "outputs": [
        {
          "internalType": "address",
          "name": "",
          "type": "address"
        }
      ],
      "stateMutability": "view",
      "type": "function"
    },
    {
      "inputs": [],
      "name": "renounceOwnership",
      "outputs": [],
      "stateMutability": "nonpayable",
      "type": "function"
    },
    {
      "inputs": [
        {
          "internalType": "address",
          "name": "_sortedTrovesAddress",
          "type": "address"
        },
        {
          "internalType": "address",
          "name": "_vaultAddress",
          "type": "address"
        }
      ],
      "name": "setAddresses",
      "outputs": [],
      "stateMutability": "nonpayable",
      "type": "function"
    },
    {
      "inputs": [],
      "name": "sortedTroves",
      "outputs": [
        {
          "internalType": "contract ISortedTroves",
          "name": "",
          "type": "address"
        }
      ],
      "stateMutability": "view",
      "type": "function"
    },
    {
      "inputs": [
        {
          "internalType": "address",
          "name": "newOwner",
          "type": "address"
        }
      ],
      "name": "transferOwnership",
      "outputs": [],
      "stateMutability": "nonpayable",
      "type": "function"
    },
    {
      "inputs": [],
      "name": "vault",
      "outputs": [
        {
          "internalType": "contract IVault",
          "name": "",
          "type": "address"
        }
      ],
      "stateMutability": "view",
      "type": "function"
    }
  ],
  "transactionHash": "0x9e25fa4544b1e784ce6210320c292a56a4d429546026ee05ab9b83b6e974cb03",
  "args": [],
  "numDeployments": 2,
  "solcInputHash": "8aa079dc372efa4fb72dddab2b66ad11",
  "bytecode": "0x608060405260001960015534801561001657600080fd5b5061002033610025565b610075565b600080546001600160a01b038381166001600160a01b0319831681178455604051919092169283917f8be0079c531659141344cd1fd0a4f28419497f9722a3daafe3b4186f6b6457e09190a35050565b61114c806100846000396000f3fe608060405234801561001057600080fd5b50600436106101375760003560e01c806390107afe116100b8578063c394a7fa1161007c578063c394a7fa14610285578063d3c2f3c114610298578063e5b5019a146102a7578063f2fde38b146102b0578063f92d3433146102c3578063fbfa77cf146102cb57610137565b806390107afe1461020f578063a20baee614610222578063a3f4df7e14610231578063ae91875414610268578063c35bc5501461027b57610137565b8063715018a6116100ff578063715018a6146101c1578063794e5724146101cb5780637b41bdbe146101da57806389a8872f146101ed5780638da5cb5b146101f557610137565b806313144dba1461013c5780631bf4355514610179578063525acdbb146101975780635733d58f146101aa57806361ec893d146101b9575b600080fd5b61014f61014a366004610f66565b6102de565b604080516001600160a01b0390941684526020840192909252908201526060015b60405180910390f35b610189686194049f30f720000081565b604051908152602001610170565b6101896101a5366004610f66565b6107b7565b6101896714d1120d7b16000081565b610189603c81565b6101c96107ce565b005b610189670f43fc2c04ee000081565b61014f6101e8366004610f66565b61080d565b61018960c881565b6000546001600160a01b03165b6040516101709190610f91565b6101c961021d366004610ef5565b610b4d565b610189670de0b6b3a764000081565b61025b6040518060400160405280600b81526020016a48696e7448656c7065727360a81b81525081565b6040516101709190610fa5565b600254610202906001600160a01b031681565b6101896212750081565b610189610293366004610f45565b610c34565b610189671bc16d674ec8000081565b61018960015481565b6101c96102be366004610ebd565b610c49565b610189610ce4565b600354610202906001600160a01b031681565b60025460408051634d62283160e01b81529051600092839283926001600160a01b0390921691889184918491634d622831916004808301926020929190829003018186803b15801561032f57600080fd5b505afa158015610343573d6000803e3d6000fd5b505050506040513d601f19601f820116820180604052508101906103679190610ed9565b90505b6001600160a01b0381161580159061040b5750600354604051630d293c7160e41b81526001600160a01b038381166004830152602482018b9052670f43fc2c04ee000092169063d293c7109060440160206040518083038186803b1580156103d157600080fd5b505afa1580156103e5573d6000803e3d6000fd5b505050506040513d601f19601f820116820180604052508101906104099190610f2d565b105b1561049357604051632dc9c0eb60e21b81526001600160a01b0384169063b72703ac9061043c908490600401610f91565b60206040518083038186803b15801561045457600080fd5b505afa158015610468573d6000803e3d6000fd5b505050506040513d601f19601f8201168201806040525081019061048c9190610ed9565b905061036a565b945084866104a15760015496505b6001600160a01b038116158015906104b95750600082115b80156104c55750600087115b1561079f57866104d48161108f565b60035460405163f59fac2d60e01b8152919950600092506105e5916001600160a01b039091169063f59fac2d9061050f908690600401610f91565b60206040518083038186803b15801561052757600080fd5b505afa15801561053b573d6000803e3d6000fd5b505050506040513d601f19601f8201168201806040525081019061055f9190610f2d565b60035460405163d66a255360e01b81526001600160a01b039091169063d66a25539061058f908790600401610f91565b60206040518083038186803b1580156105a757600080fd5b505afa1580156105bb573d6000803e3d6000fd5b505050506040513d601f19601f820116820180604052508101906105df9190610f2d565b90610d06565b90508281111561070e5760006105fb8483610d12565b60035460405163d1149b8560e01b81529192506000916106b3916001600160a01b03169063d1149b8590610633908890600401610f91565b60206040518083038186803b15801561064b57600080fd5b505afa15801561065f573d6000803e3d6000fd5b505050506040513d601f19601f820116820180604052508101906106839190610f2d565b6003546040516309019aaf60e31b81526001600160a01b039091169063480cd5789061058f908990600401610f91565b905060006106dd6106d68d6106d086670de0b6b3a7640000610d28565b90610d34565b8390610d40565b905060006106eb8585610d40565b90506106f78282610d4c565b99506107038785610d40565b96505050505061071b565b6107188382610d40565b92505b604051632dc9c0eb60e21b81526001600160a01b0385169063b72703ac90610747908590600401610f91565b60206040518083038186803b15801561075f57600080fd5b505afa158015610773573d6000803e3d6000fd5b505050506040513d601f19601f820116820180604052508101906107979190610ed9565b9150506104a1565b6107a98983610d40565b935050505093509350939050565b60006107c4848484610d7b565b90505b9392505050565b6000546001600160a01b031633146108015760405162461bcd60e51b81526004016107f890610ff8565b60405180910390fd5b61080b6000610da5565b565b600080600080600360009054906101000a90046001600160a01b03166001600160a01b03166349eefeee6040518163ffffffff1660e01b815260040160206040518083038186803b15801561086157600080fd5b505afa158015610875573d6000803e3d6000fd5b505050506040513d601f19601f820116820180604052508101906108999190610f2d565b9050806108b0576000808693509350935050610b44565b600260009054906101000a90046001600160a01b03166001600160a01b0316634d6228316040518163ffffffff1660e01b815260040160206040518083038186803b1580156108fe57600080fd5b505afa158015610912573d6000803e3d6000fd5b505050506040513d601f19601f820116820180604052508101906109369190610ed9565b60035460405163b0d8e18160e01b81529195506109c29189916001600160a01b03169063b0d8e1819061096d908990600401610f91565b60206040518083038186803b15801561098557600080fd5b505afa158015610999573d6000803e3d6000fd5b505050506040513d601f19601f820116820180604052508101906109bd9190610f2d565b610df5565b925084915060015b86811015610b415760408051602081018590520160408051601f19818403018152919052805160209091012092506000610a0483856110c1565b600354604051633669c91160e21b8152600481018390529192506000916001600160a01b039091169063d9a724449060240160206040518083038186803b158015610a4e57600080fd5b505afa158015610a62573d6000803e3d6000fd5b505050506040513d601f19601f82011682018060405250810190610a869190610ed9565b60035460405163b0d8e18160e01b81529192506000916001600160a01b039091169063b0d8e18190610abc908590600401610f91565b60206040518083038186803b158015610ad457600080fd5b505afa158015610ae8573d6000803e3d6000fd5b505050506040513d601f19601f82011682018060405250810190610b0c9190610f2d565b90506000610b1a828d610df5565b905087811015610b2b578097508298505b84610b35816110a6565b955050505050506109ca565b50505b93509350939050565b6000546001600160a01b03163314610b775760405162461bcd60e51b81526004016107f890610ff8565b610b8082610e18565b610b8981610e18565b600280546001600160a01b038085166001600160a01b03199283161790925560038054928416929091169190911790556040517f65f4cf077bc01e4742eb5ad98326f6e95b63548ea24b17f8d5e823111fe7880090610be9908490610f91565b60405180910390a17fc66c1b80b9591e3cfb283fa3494103133ff7885d1d5aaa6c4ee203013adcd8d081604051610c209190610f91565b60405180910390a1610c306107ce565b5050565b6000610c408383610d4c565b90505b92915050565b6000546001600160a01b03163314610c735760405162461bcd60e51b81526004016107f890610ff8565b6001600160a01b038116610cd85760405162461bcd60e51b815260206004820152602660248201527f4f776e61626c653a206e6577206f776e657220697320746865207a65726f206160448201526564647265737360d01b60648201526084016107f8565b610ce181610da5565b50565b610cf86103e8670de0b6b3a7640000611045565b610d03906005611059565b81565b6000610c40828461102d565b6000818310610d215781610c40565b5090919050565b6000610c408284611059565b6000610c408284611045565b6000610c408284611078565b60008115610d7257610d6b826106d08568056bc75e2d63100000610d28565b9050610c43565b50600019610c43565b60008215610d9c576000610d93846106d08786610d28565b91506107c79050565b506000196107c7565b600080546001600160a01b038381166001600160a01b0319831681178455604051919092169283917f8be0079c531659141344cd1fd0a4f28419497f9722a3daafe3b4186f6b6457e09190a35050565b600081831015610e0e57610e098284610d40565b610c40565b610c408383610d40565b6001600160a01b038116610e6e5760405162461bcd60e51b815260206004820152601e60248201527f4163636f756e742063616e6e6f74206265207a65726f2061646472657373000060448201526064016107f8565b803b80610c305760405162461bcd60e51b815260206004820181905260248201527f4163636f756e7420636f64652073697a652063616e6e6f74206265207a65726f60448201526064016107f8565b600060208284031215610ece578081fd5b81356107c781611101565b600060208284031215610eea578081fd5b81516107c781611101565b60008060408385031215610f07578081fd5b8235610f1281611101565b91506020830135610f2281611101565b809150509250929050565b600060208284031215610f3e578081fd5b5051919050565b60008060408385031215610f57578182fd5b50508035926020909101359150565b600080600060608486031215610f7a578081fd5b505081359360208301359350604090920135919050565b6001600160a01b0391909116815260200190565b6000602080835283518082850152825b81811015610fd157858101830151858201604001528201610fb5565b81811115610fe25783604083870101525b50601f01601f1916929092016040019392505050565b6020808252818101527f4f776e61626c653a2063616c6c6572206973206e6f7420746865206f776e6572604082015260600190565b60008219821115611040576110406110d5565b500190565b600082611054576110546110eb565b500490565b6000816000190483118215151615611073576110736110d5565b500290565b60008282101561108a5761108a6110d5565b500390565b60008161109e5761109e6110d5565b506000190190565b60006000198214156110ba576110ba6110d5565b5060010190565b6000826110d0576110d06110eb565b500690565b634e487b7160e01b600052601160045260246000fd5b634e487b7160e01b600052601260045260246000fd5b6001600160a01b0381168114610ce157600080fdfea2646970667358221220829819078ff4834f00558bfd796cf3f044cb31a666b4bccc8e1fe88e17ed361664736f6c63430008030033",
  "devdoc": {
    "kind": "dev",
    "methods": {
      "owner()": {
        "details": "Returns the address of the current owner."
      },
      "renounceOwnership()": {
        "details": "Leaves the contract without owner. It will not be possible to call `onlyOwner` functions anymore. Can only be called by the current owner. NOTE: Renouncing ownership will leave the contract without an owner, thereby removing any functionality that is only available to the owner."
      },
      "transferOwnership(address)": {
        "details": "Transfers ownership of the contract to a new account (`newOwner`). Can only be called by the current owner."
      }
    },
    "version": 1
  },
  "userdoc": {
    "kind": "user",
    "methods": {},
    "version": 1
  },
  "storageLayout": {
    "storage": [
      {
        "astId": 53,
        "contract": "contracts/core/HintHelpers.sol:HintHelpers",
        "label": "_owner",
        "offset": 0,
        "slot": "0",
        "type": "t_address"
      },
      {
        "astId": 15613,
        "contract": "contracts/core/HintHelpers.sol:HintHelpers",
        "label": "MAX_UINT",
        "offset": 0,
        "slot": "1",
        "type": "t_uint256"
      },
      {
        "astId": 7392,
        "contract": "contracts/core/HintHelpers.sol:HintHelpers",
        "label": "sortedTroves",
        "offset": 0,
        "slot": "2",
        "type": "t_contract(ISortedTroves)16382"
      },
      {
        "astId": 7395,
        "contract": "contracts/core/HintHelpers.sol:HintHelpers",
        "label": "vault",
        "offset": 0,
        "slot": "3",
        "type": "t_contract(IVault)16742"
      }
    ],
    "types": {
      "t_address": {
        "encoding": "inplace",
        "label": "address",
        "numberOfBytes": "20"
      },
      "t_contract(ISortedTroves)16382": {
        "encoding": "inplace",
        "label": "contract ISortedTroves",
        "numberOfBytes": "20"
      },
      "t_contract(IVault)16742": {
        "encoding": "inplace",
        "label": "contract IVault",
        "numberOfBytes": "20"
      },
      "t_uint256": {
        "encoding": "inplace",
        "label": "uint256",
        "numberOfBytes": "32"
      }
    }
  }
}