{
  "address": "0x074936eFFc0CC47fB1A22c8D4b4e68Ce2018B7b0",
  "abi": [
    {
      "anonymous": false,
      "inputs": [
        {
          "indexed": false,
          "internalType": "address",
          "name": "_lockupContractAddress",
          "type": "address"
        },
        {
          "indexed": false,
          "internalType": "address",
          "name": "_beneficiary",
          "type": "address"
        },
        {
          "indexed": false,
          "internalType": "uint256",
          "name": "_unlockTime",
          "type": "uint256"
        },
        {
          "indexed": false,
          "internalType": "address",
          "name": "_deployer",
          "type": "address"
        }
      ],
      "name": "LockupContractDeployedThroughFactory",
      "type": "event"
    },
    {
      "anonymous": false,
      "inputs": [
        {
          "indexed": false,
          "internalType": "address",
          "name": "_myoTokenAddress",
          "type": "address"
        }
      ],
      "name": "MYOTokenAddressSet",
      "type": "event"
    },
    {
      "anonymous": false,
      "inputs": [
        {
          "indexed": true,
          "internalType": "address",
          "name": "previousOwner",
          "type": "address"
        },
        {
          "indexed": true,
          "internalType": "address",
          "name": "newOwner",
          "type": "address"
        }
      ],
      "name": "OwnershipTransferred",
      "type": "event"
    },
    {
      "inputs": [],
      "name": "NAME",
      "outputs": [
        {
          "internalType": "string",
          "name": "",
          "type": "string"
        }
      ],
      "stateMutability": "view",
      "type": "function"
    },
    {
      "inputs": [],
      "name": "SECONDS_IN_ONE_YEAR",
      "outputs": [
        {
          "internalType": "uint256",
          "name": "",
          "type": "uint256"
        }
      ],
      "stateMutability": "view",
      "type": "function"
    },
    {
      "inputs": [
        {
          "internalType": "address",
          "name": "_beneficiary",
          "type": "address"
        },
        {
          "internalType": "uint256",
          "name": "_unlockTime",
          "type": "uint256"
        }
      ],
      "name": "deployLockupContract",
      "outputs": [],
      "stateMutability": "nonpayable",
      "type": "function"
    },
    {
      "inputs": [
        {
          "internalType": "address",
          "name": "_contractAddress",
          "type": "address"
        }
      ],
      "name": "isRegisteredLockup",
      "outputs": [
        {
          "internalType": "bool",
          "name": "",
          "type": "bool"
        }
      ],
      "stateMutability": "view",
      "type": "function"
    },
    {
      "inputs": [
        {
          "internalType": "address",
          "name": "",
          "type": "address"
        }
      ],
      "name": "lockupContractToDeployer",
      "outputs": [
        {
          "internalType": "address",
          "name": "",
          "type": "address"
        }
      ],
      "stateMutability": "view",
      "type": "function"
    },
    {
      "inputs": [],
      "name": "myoTokenAddress",
      "outputs": [
        {
          "internalType": "address",
          "name": "",
          "type": "address"
        }
      ],
      "stateMutability": "view",
      "type": "function"
    },
    {
      "inputs": [],
      "name": "owner",
      "outputs": [
        {
          "internalType": "address",
          "name": "",
          "type": "address"
        }
      ],
      "stateMutability": "view",
      "type": "function"
    },
    {
      "inputs": [],
      "name": "renounceOwnership",
      "outputs": [],
      "stateMutability": "nonpayable",
      "type": "function"
    },
    {
      "inputs": [
        {
          "internalType": "address",
          "name": "_myoTokenAddress",
          "type": "address"
        }
      ],
      "name": "setMYOTokenAddress",
      "outputs": [],
      "stateMutability": "nonpayable",
      "type": "function"
    },
    {
      "inputs": [
        {
          "internalType": "address",
          "name": "newOwner",
          "type": "address"
        }
      ],
      "name": "transferOwnership",
      "outputs": [],
      "stateMutability": "nonpayable",
      "type": "function"
    }
  ],
  "transactionHash": "0x3c870225bb0562b56df93f1bb699ce85354316d594869599a18c06739f20f4bb",
  "args": [],
  "numDeployments": 2,
  "solcInputHash": "8aa079dc372efa4fb72dddab2b66ad11",
  "bytecode": "0x608060405234801561001057600080fd5b5061001a3361001f565b61006f565b600080546001600160a01b038381166001600160a01b0319831681178455604051919092169283917f8be0079c531659141344cd1fd0a4f28419497f9722a3daafe3b4186f6b6457e09190a35050565b610c398061007e6000396000f3fe608060405234801561001057600080fd5b506004361061009e5760003560e01c806398e5f3c41161006657806398e5f3c414610114578063a3f4df7e1461012d578063bb7603f11461016e578063d83c72db14610191578063f2fde38b146101ba5761009e565b806334c44b4d146100a35780635cec69d4146100b8578063715018a6146100cb5780637c208439146100d35780638da5cb5b14610103575b600080fd5b6100b66100b13660046105ca565b6101cd565b005b6100b66100c63660046105a9565b6102ad565b6100b6610345565b6001546100e6906001600160a01b031681565b6040516001600160a01b0390911681526020015b60405180910390f35b6000546001600160a01b03166100e6565b61011f6301e1338081565b6040519081526020016100fa565b610161604051806040016040528060158152602001744c6f636b7570436f6e7472616374466163746f727960581b81525081565b6040516100fa91906105f3565b61018161017c3660046105a9565b61037b565b60405190151581526020016100fa565b6100e661019f3660046105a9565b6002602052600090815260409020546001600160a01b031681565b6100b66101c83660046105a9565b61039e565b6001546001600160a01b03166101e281610436565b60008184846040516101f390610585565b6001600160a01b0393841681529290911660208301526040820152606001604051809103906000f08015801561022d573d6000803e3d6000fd5b506001600160a01b0381811660008181526002602090815260409182902080546001600160a01b03191633908117909155825193845293891690830152810186905260608101919091529091507ff534ff9ac4abb71a4aa2f8715f3a8f41c05155fbf8af61daecc51365e3a5c0089060800160405180910390a150505050565b6000546001600160a01b031633146102e05760405162461bcd60e51b81526004016102d790610646565b60405180910390fd5b6102e98161048c565b600180546001600160a01b0319166001600160a01b0383169081179091556040519081527f33f77e2a6c541a8f668ac27735e35a31d6b55c1a19f3ce738c2958b618c92ce09060200160405180910390a1610342610345565b50565b6000546001600160a01b0316331461036f5760405162461bcd60e51b81526004016102d790610646565b6103796000610535565b565b6001600160a01b038181166000908152600260205260409020541615155b919050565b6000546001600160a01b031633146103c85760405162461bcd60e51b81526004016102d790610646565b6001600160a01b03811661042d5760405162461bcd60e51b815260206004820152602660248201527f4f776e61626c653a206e6577206f776e657220697320746865207a65726f206160448201526564647265737360d01b60648201526084016102d7565b61034281610535565b6001600160a01b0381166103425760405162461bcd60e51b815260206004820152601b60248201527f4c43463a204d594f2041646472657373206973206e6f7420736574000000000060448201526064016102d7565b6001600160a01b0381166104e25760405162461bcd60e51b815260206004820152601e60248201527f4163636f756e742063616e6e6f74206265207a65726f2061646472657373000060448201526064016102d7565b803b806105315760405162461bcd60e51b815260206004820181905260248201527f4163636f756e7420636f64652073697a652063616e6e6f74206265207a65726f60448201526064016102d7565b5050565b600080546001600160a01b038381166001600160a01b0319831681178455604051919092169283917f8be0079c531659141344cd1fd0a4f28419497f9722a3daafe3b4186f6b6457e09190a35050565b6105888061067c83390190565b80356001600160a01b038116811461039957600080fd5b6000602082840312156105ba578081fd5b6105c382610592565b9392505050565b600080604083850312156105dc578081fd5b6105e583610592565b946020939093013593505050565b6000602080835283518082850152825b8181101561061f57858101830151858201604001528201610603565b818111156106305783604083870101525b50601f01601f1916929092016040019392505050565b6020808252818101527f4f776e61626c653a2063616c6c6572206973206e6f7420746865206f776e657260408201526060019056fe60a060405234801561001057600080fd5b5060405161058838038061058883398101604081905261002f916100c5565b600080546001600160a01b0319166001600160a01b03858116919091179091556001829055606083901b6001600160601b031916608052604080519184168252602082018390527f5faee922186516bf77266643c1fda130acefc439d571400e8697106c6aed9b54910160405180910390a1505050610100565b80516001600160a01b03811681146100c057600080fd5b919050565b6000806000606084860312156100d9578283fd5b6100e2846100a9565b92506100f0602085016100a9565b9150604084015190509250925092565b60805160601c61045d61012b600039600081816088015281816101ca015261029c015261045d6000f3fe608060405234801561001057600080fd5b50600436106100625760003560e01c8063251c1aa31461006757806338af3eed146100835780635fe2fc31146100c257806398e5f3c4146100cc578063a3f4df7e146100d7578063fff298df14610111575b600080fd5b61007060015481565b6040519081526020015b60405180910390f35b6100aa7f000000000000000000000000000000000000000000000000000000000000000081565b6040516001600160a01b03909116815260200161007a565b6100ca610124565b005b6100706301e1338081565b6101046040518060400160405280600e81526020016d131bd8dadd5c10dbdb9d1c9858dd60921b81525081565b60405161007a91906103d4565b6000546100aa906001600160a01b031681565b61012c610291565b610134610326565b600080546040516370a0823160e01b81523060048201526001600160a01b03909116919082906370a082319060240160206040518083038186803b15801561017b57600080fd5b505afa15801561018f573d6000803e3d6000fd5b505050506040513d601f19601f820116820180604052508101906101b391906103bc565b60405163a9059cbb60e01b81526001600160a01b037f000000000000000000000000000000000000000000000000000000000000000081166004830152602482018390529192509083169063a9059cbb90604401602060405180830381600087803b15801561022157600080fd5b505af1158015610235573d6000803e3d6000fd5b505050506040513d601f19601f820116820180604052508101906102599190610395565b506040518181527f7d17cbc0f78ccfed33842dd29dab2872e8347bf3981293ab2cfe35ca16371a2f9060200160405180910390a15050565b336001600160a01b037f000000000000000000000000000000000000000000000000000000000000000016146103245760405162461bcd60e51b815260206004820152602d60248201527f4c6f636b7570436f6e74726163743a2063616c6c6572206973206e6f7420746860448201526c652062656e656669636961727960981b60648201526084015b60405180910390fd5b565b6001544210156103245760405162461bcd60e51b815260206004820152603460248201527f4c6f636b7570436f6e74726163743a20546865206c6f636b75702064757261746044820152731a5bdb881b5d5cdd081a185d99481c185cdcd95960621b606482015260840161031b565b6000602082840312156103a6578081fd5b815180151581146103b5578182fd5b9392505050565b6000602082840312156103cd578081fd5b5051919050565b6000602080835283518082850152825b81811015610400578581018301518582016040015282016103e4565b818111156104115783604083870101525b50601f01601f191692909201604001939250505056fea2646970667358221220b7c554fe2494493c605568e7036b4acbc44b53b7b3c40d3eae3cc77283a838bc64736f6c63430008030033a2646970667358221220166ea94ce5413ce82a98e1087bb70c287214478bf070b15ba648769f54883e8264736f6c63430008030033",
  "devdoc": {
    "kind": "dev",
    "methods": {
      "owner()": {
        "details": "Returns the address of the current owner."
      },
      "renounceOwnership()": {
        "details": "Leaves the contract without owner. It will not be possible to call `onlyOwner` functions anymore. Can only be called by the current owner. NOTE: Renouncing ownership will leave the contract without an owner, thereby removing any functionality that is only available to the owner."
      },
      "transferOwnership(address)": {
        "details": "Transfers ownership of the contract to a new account (`newOwner`). Can only be called by the current owner."
      }
    },
    "version": 1
  },
  "userdoc": {
    "kind": "user",
    "methods": {},
    "version": 1
  },
  "storageLayout": {
    "storage": [
      {
        "astId": 53,
        "contract": "contracts/MYO/LockupContractFactory.sol:LockupContractFactory",
        "label": "_owner",
        "offset": 0,
        "slot": "0",
        "type": "t_address"
      },
      {
        "astId": 2700,
        "contract": "contracts/MYO/LockupContractFactory.sol:LockupContractFactory",
        "label": "myoTokenAddress",
        "offset": 0,
        "slot": "1",
        "type": "t_address"
      },
      {
        "astId": 2704,
        "contract": "contracts/MYO/LockupContractFactory.sol:LockupContractFactory",
        "label": "lockupContractToDeployer",
        "offset": 0,
        "slot": "2",
        "type": "t_mapping(t_address,t_address)"
      }
    ],
    "types": {
      "t_address": {
        "encoding": "inplace",
        "label": "address",
        "numberOfBytes": "20"
      },
      "t_mapping(t_address,t_address)": {
        "encoding": "mapping",
        "key": "t_address",
        "label": "mapping(address => address)",
        "numberOfBytes": "32",
        "value": "t_address"
      }
    }
  }
}