{
  "address": "0x499e057A88e927E02D6ADE85716084feDC7c489B",
  "abi": [
    {
      "anonymous": false,
      "inputs": [
        {
          "indexed": false,
          "internalType": "uint256",
          "name": "_lastGoodPrice",
          "type": "uint256"
        }
      ],
      "name": "LastGoodPriceUpdated",
      "type": "event"
    },
    {
      "anonymous": false,
      "inputs": [
        {
          "indexed": false,
          "internalType": "uint256",
          "name": "val",
          "type": "uint256"
        },
        {
          "indexed": false,
          "internalType": "uint256",
          "name": "age",
          "type": "uint256"
        }
      ],
      "name": "LogMedianPrice",
      "type": "event"
    },
    {
      "anonymous": false,
      "inputs": [
        {
          "indexed": true,
          "internalType": "address",
          "name": "previousOwner",
          "type": "address"
        },
        {
          "indexed": true,
          "internalType": "address",
          "name": "newOwner",
          "type": "address"
        }
      ],
      "name": "OwnershipTransferred",
      "type": "event"
    },
    {
      "inputs": [],
      "name": "WAT",
      "outputs": [
        {
          "internalType": "bytes32",
          "name": "",
          "type": "bytes32"
        }
      ],
      "stateMutability": "view",
      "type": "function"
    },
    {
      "inputs": [],
      "name": "age",
      "outputs": [
        {
          "internalType": "uint32",
          "name": "",
          "type": "uint32"
        }
      ],
      "stateMutability": "view",
      "type": "function"
    },
    {
      "inputs": [],
      "name": "bar",
      "outputs": [
        {
          "internalType": "uint256",
          "name": "",
          "type": "uint256"
        }
      ],
      "stateMutability": "view",
      "type": "function"
    },
    {
      "inputs": [
        {
          "internalType": "address",
          "name": "",
          "type": "address"
        }
      ],
      "name": "bud",
      "outputs": [
        {
          "internalType": "uint256",
          "name": "",
          "type": "uint256"
        }
      ],
      "stateMutability": "view",
      "type": "function"
    },
    {
      "inputs": [
        {
          "internalType": "address[]",
          "name": "_a",
          "type": "address[]"
        }
      ],
      "name": "diss",
      "outputs": [],
      "stateMutability": "nonpayable",
      "type": "function"
    },
    {
      "inputs": [
        {
          "internalType": "address",
          "name": "_a",
          "type": "address"
        }
      ],
      "name": "diss",
      "outputs": [],
      "stateMutability": "nonpayable",
      "type": "function"
    },
    {
      "inputs": [
        {
          "internalType": "address[]",
          "name": "_a",
          "type": "address[]"
        }
      ],
      "name": "drop",
      "outputs": [],
      "stateMutability": "nonpayable",
      "type": "function"
    },
    {
      "inputs": [],
      "name": "fetchPrice",
      "outputs": [
        {
          "internalType": "uint256",
          "name": "",
          "type": "uint256"
        }
      ],
      "stateMutability": "view",
      "type": "function"
    },
    {
      "inputs": [
        {
          "internalType": "address[]",
          "name": "_a",
          "type": "address[]"
        }
      ],
      "name": "kiss",
      "outputs": [],
      "stateMutability": "nonpayable",
      "type": "function"
    },
    {
      "inputs": [
        {
          "internalType": "address",
          "name": "_a",
          "type": "address"
        }
      ],
      "name": "kiss",
      "outputs": [],
      "stateMutability": "nonpayable",
      "type": "function"
    },
    {
      "inputs": [
        {
          "internalType": "address[]",
          "name": "_a",
          "type": "address[]"
        }
      ],
      "name": "lift",
      "outputs": [],
      "stateMutability": "nonpayable",
      "type": "function"
    },
    {
      "inputs": [
        {
          "internalType": "address",
          "name": "",
          "type": "address"
        }
      ],
      "name": "orcl",
      "outputs": [
        {
          "internalType": "uint256",
          "name": "",
          "type": "uint256"
        }
      ],
      "stateMutability": "view",
      "type": "function"
    },
    {
      "inputs": [],
      "name": "owner",
      "outputs": [
        {
          "internalType": "address",
          "name": "",
          "type": "address"
        }
      ],
      "stateMutability": "view",
      "type": "function"
    },
    {
      "inputs": [],
      "name": "peek",
      "outputs": [
        {
          "internalType": "uint256",
          "name": "",
          "type": "uint256"
        },
        {
          "internalType": "bool",
          "name": "",
          "type": "bool"
        }
      ],
      "stateMutability": "view",
      "type": "function"
    },
    {
      "inputs": [
        {
          "internalType": "uint256[]",
          "name": "_val",
          "type": "uint256[]"
        },
        {
          "internalType": "uint256[]",
          "name": "_age",
          "type": "uint256[]"
        },
        {
          "internalType": "uint8[]",
          "name": "_v",
          "type": "uint8[]"
        },
        {
          "internalType": "bytes32[]",
          "name": "_r",
          "type": "bytes32[]"
        },
        {
          "internalType": "bytes32[]",
          "name": "_s",
          "type": "bytes32[]"
        }
      ],
      "name": "poke",
      "outputs": [],
      "stateMutability": "nonpayable",
      "type": "function"
    },
    {
      "inputs": [],
      "name": "renounceOwnership",
      "outputs": [],
      "stateMutability": "nonpayable",
      "type": "function"
    },
    {
      "inputs": [
        {
          "internalType": "uint256",
          "name": "_bar",
          "type": "uint256"
        }
      ],
      "name": "setBar",
      "outputs": [],
      "stateMutability": "nonpayable",
      "type": "function"
    },
    {
      "inputs": [
        {
          "internalType": "uint8",
          "name": "",
          "type": "uint8"
        }
      ],
      "name": "slot",
      "outputs": [
        {
          "internalType": "address",
          "name": "",
          "type": "address"
        }
      ],
      "stateMutability": "view",
      "type": "function"
    },
    {
      "inputs": [
        {
          "internalType": "address",
          "name": "newOwner",
          "type": "address"
        }
      ],
      "name": "transferOwnership",
      "outputs": [],
      "stateMutability": "nonpayable",
      "type": "function"
    }
  ],
  "transactionHash": "0x2bcdd03bd4dfaa9da33a39a625a2de9009527c2d96943bb0107681a53da2b089",
  "args": [],
  "numDeployments": 1,
  "solcInputHash": "4eaea1d57c6d4a8394b16399b59c4465",
  "bytecode": "0x6080604052600160025534801561001557600080fd5b5061001f33610024565b610074565b600080546001600160a01b038381166001600160a01b0319831681178455604051919092169283917f8be0079c531659141344cd1fd0a4f28419497f9722a3daafe3b4186f6b6457e09190a35050565b611486806100836000396000f3fe608060405234801561001057600080fd5b50600436106101115760003560e01c806365c4ce7a116100ad5780638ef5eaf0116100715780638ef5eaf01461027c578063943181061461028f578063f29c29c4146102a2578063f2fde38b146102b5578063febb0f7e146102c857610111565b806365c4ce7a14610205578063715018a61461021857806389bbb8b2146102205780638d0e5a9a146102335780638da5cb5b1461027457610111565b8063020b2e32146101165780630fdb11cf146101495780631b25b65f14610151578063262a9dff14610166578063352d3fba1461019257806346d4577d146101a55780634e7d3422146101b85780634fce7a2a146101c857806359e02dd7146101e8575b600080fd5b6101366101243660046110a4565b60036020526000908152604090205481565b6040519081526020015b60405180910390f35b6101366102d1565b61016461015f3660046110d2565b61036d565b005b60015461017d90600160801b900463ffffffff1681565b60405163ffffffff9091168152602001610140565b6101646101a03660046111fd565b610471565b6101646101b33660046110d2565b610544565b61013665185c9cdd5cd960d21b81565b6101366101d63660046110a4565b60046020526000908152604090205481565b6101f06105e5565b60408051928352901515602083015201610140565b6101646102133660046110a4565b61062b565b610164610674565b61016461022e366004611112565b6106af565b61025c610241366004611215565b6005602052600090815260409020546001600160a01b031681565b6040516001600160a01b039091168152602001610140565b61025c610aa3565b61016461028a3660046110d2565b610ab2565b61016461029d3660046110d2565b610bde565b6101646102b03660046110a4565b610e13565b6101646102c33660046110a4565b610e85565b61013660025481565b336000908152600460205260408120546001146103095760405162461bcd60e51b815260040161030090611264565b60405180910390fd5b6001546001600160801b031661035d5760405162461bcd60e51b81526020600482015260196024820152781359591a585b8bda5b9d985b1a590b5c1c9a58d94b59995959603a1b6044820152606401610300565b506001546001600160801b031690565b33610376610aa3565b6001600160a01b03161461039c5760405162461bcd60e51b81526004016103009061129b565b60005b8181101561046c5760008383838181106103c957634e487b7160e01b600052603260045260246000fd5b90506020020160208101906103de91906110a4565b6001600160a01b031614156104055760405162461bcd60e51b815260040161030090611236565b60016004600085858581811061042b57634e487b7160e01b600052603260045260246000fd5b905060200201602081019061044091906110a4565b6001600160a01b0316815260208101919091526040016000205580610464816113ff565b91505061039f565b505050565b3361047a610aa3565b6001600160a01b0316146104a05760405162461bcd60e51b81526004016103009061129b565b600081116104e85760405162461bcd60e51b81526020600482015260156024820152744d656469616e2f71756f72756d2d69732d7a65726f60581b6044820152606401610300565b6104f360028261141a565b61053f5760405162461bcd60e51b815260206004820152601c60248201527f4d656469616e2f71756f72756d2d6e6f742d6f64642d6e756d626572000000006044820152606401610300565b600255565b3361054d610aa3565b6001600160a01b0316146105735760405162461bcd60e51b81526004016103009061129b565b60005b8181101561046c576000600460008585858181106105a457634e487b7160e01b600052603260045260246000fd5b90506020020160208101906105b991906110a4565b6001600160a01b03168152602081019190915260400160002055806105dd816113ff565b915050610576565b3360009081526004602052604081205481906001146106165760405162461bcd60e51b815260040161030090611264565b50506001546001600160801b03168015159091565b33610634610aa3565b6001600160a01b03161461065a5760405162461bcd60e51b81526004016103009061129b565b6001600160a01b0316600090815260046020526040812055565b3361067d610aa3565b6001600160a01b0316146106a35760405162461bcd60e51b81526004016103009061129b565b6106ad6000610f25565b565b6002548910156106f65760405162461bcd60e51b81526020600482015260126024820152714d656469616e2f6261722d746f6f2d6c6f7760701b6044820152606401610300565b6001546000908190600160801b900463ffffffff16815b8c8110156109ee5760006107f08f8f8481811061073a57634e487b7160e01b600052603260045260246000fd5b905060200201358e8e8581811061076157634e487b7160e01b600052603260045260246000fd5b905060200201358d8d8681811061078857634e487b7160e01b600052603260045260246000fd5b905060200201602081019061079d9190611215565b8c8c878181106107bd57634e487b7160e01b600052603260045260246000fd5b905060200201358b8b888181106107e457634e487b7160e01b600052603260045260246000fd5b90506020020135610f75565b6001600160a01b0381166000908152600360205260409020549091506001146108535760405162461bcd60e51b81526020600482015260156024820152744d656469616e2f696e76616c69642d6f7261636c6560581b6044820152606401610300565b828d8d8481811061087457634e487b7160e01b600052603260045260246000fd5b90506020020135116108bf5760405162461bcd60e51b81526020600482015260146024820152734d656469616e2f7374616c652d6d65737361676560601b6044820152606401610300565b838f8f848181106108e057634e487b7160e01b600052603260045260246000fd5b9050602002013510156109355760405162461bcd60e51b815260206004820152601c60248201527f4d656469616e2f6d657373616765732d6e6f742d696e2d6f72646572000000006044820152606401610300565b8e8e8381811061095557634e487b7160e01b600052603260045260246000fd5b602002919091013594505060ff609882901c16610975600287831c61141a565b156109c25760405162461bcd60e51b815260206004820152601c60248201527f4d656469616e2f6f7261636c652d616c72656164792d7369676e6564000000006044820152606401610300565b6109cd81600261132e565b6109d790876112d0565b9550505080806109e6906113ff565b91505061070d565b508c8c600181901c818110610a1357634e487b7160e01b600052603260045260246000fd5b60018054602092830294909401356001600160801b039081166001600160a01b031990951694909417600160801b4263ffffffff90811682029290921792839055604080519684168752920416918401919091527fb78ebc573f1f889ca9e1e0fb62c843c836f3d3a2e1f43ef62940e9b894f4ea4c9201905060405180910390a150505050505050505050505050565b6000546001600160a01b031690565b33610abb610aa3565b6001600160a01b031614610ae15760405162461bcd60e51b81526004016103009061129b565b60005b8181101561046c57600060036000858585818110610b1257634e487b7160e01b600052603260045260246000fd5b9050602002016020810190610b2791906110a4565b6001600160a01b03166001600160a01b03168152602001908152602001600020819055506000600560006098868686818110610b7357634e487b7160e01b600052603260045260246000fd5b9050602002016020810190610b8891906110a4565b6001600160a01b0316901c60ff1660ff16815260200190815260200160002060006101000a8154816001600160a01b0302191690836001600160a01b031602179055508080610bd6906113ff565b915050610ae4565b33610be7610aa3565b6001600160a01b031614610c0d5760405162461bcd60e51b81526004016103009061129b565b60005b8181101561046c576000838383818110610c3a57634e487b7160e01b600052603260045260246000fd5b9050602002016020810190610c4f91906110a4565b6001600160a01b03161415610c9b5760405162461bcd60e51b815260206004820152601260248201527104d656469616e2f6e6f2d6f7261636c652d360741b6044820152606401610300565b60006098848484818110610cbf57634e487b7160e01b600052603260045260246000fd5b9050602002016020810190610cd491906110a4565b6001600160a01b0390811690911c60ff81166000908152600560205260409020549092501615610d465760405162461bcd60e51b815260206004820152601c60248201527f4d656469616e2f7369676e65722d616c72656164792d657869737473000000006044820152606401610300565b600160036000868686818110610d6c57634e487b7160e01b600052603260045260246000fd5b9050602002016020810190610d8191906110a4565b6001600160a01b03168152602081019190915260400160002055838383818110610dbb57634e487b7160e01b600052603260045260246000fd5b9050602002016020810190610dd091906110a4565b60ff91909116600090815260056020526040902080546001600160a01b0319166001600160a01b0390921691909117905580610e0b816113ff565b915050610c10565b33610e1c610aa3565b6001600160a01b031614610e425760405162461bcd60e51b81526004016103009061129b565b6001600160a01b038116610e685760405162461bcd60e51b815260040161030090611236565b6001600160a01b0316600090815260046020526040902060019055565b33610e8e610aa3565b6001600160a01b031614610eb45760405162461bcd60e51b81526004016103009061129b565b6001600160a01b038116610f195760405162461bcd60e51b815260206004820152602660248201527f4f776e61626c653a206e6577206f776e657220697320746865207a65726f206160448201526564647265737360d01b6064820152608401610300565b610f2281610f25565b50565b600080546001600160a01b038381166001600160a01b0319831681178455604051919092169283917f8be0079c531659141344cd1fd0a4f28419497f9722a3daafe3b4186f6b6457e09190a35050565b604080516020810187905290810185905265185c9cdd5cd960d21b606082015260009060019060800160408051601f198184030181529082905280516020918201207f19457468657265756d205369676e6564204d6573736167653a0a33320000000091830191909152603c820152605c0160408051601f198184030181528282528051602091820120600084529083018083525260ff871690820152606081018590526080810184905260a0016020604051602081039080840390855afa158015611045573d6000803e3d6000fd5b5050604051601f190151979650505050505050565b60008083601f84011261106b578182fd5b50813567ffffffffffffffff811115611082578182fd5b6020830191508360208260051b850101111561109d57600080fd5b9250929050565b6000602082840312156110b5578081fd5b81356001600160a01b03811681146110cb578182fd5b9392505050565b600080602083850312156110e4578081fd5b823567ffffffffffffffff8111156110fa578182fd5b6111068582860161105a565b90969095509350505050565b60008060008060008060008060008060a08b8d031215611130578586fd5b8a3567ffffffffffffffff80821115611147578788fd5b6111538e838f0161105a565b909c509a5060208d013591508082111561116b578788fd5b6111778e838f0161105a565b909a50985060408d013591508082111561118f578788fd5b61119b8e838f0161105a565b909850965060608d01359150808211156111b3578586fd5b6111bf8e838f0161105a565b909650945060808d01359150808211156111d7578384fd5b506111e48d828e0161105a565b915080935050809150509295989b9194979a5092959850565b60006020828403121561120e578081fd5b5035919050565b600060208284031215611226578081fd5b813560ff811681146110cb578182fd5b60208082526014908201527304d656469616e2f6e6f2d636f6e74726163742d360641b604082015260600190565b6020808252601f908201527f4d656469616e2f636f6e74726163742d6e6f742d77686974656c697374656400604082015260600190565b6020808252818101527f4f776e61626c653a2063616c6c6572206973206e6f7420746865206f776e6572604082015260600190565b600082198211156112e3576112e361143a565b500190565b80825b60018086116112fa5750611325565b81870482111561130c5761130c61143a565b8086161561131957918102915b9490941c9380026112eb565b94509492505050565b60006110cb60001960ff85168460008261134a575060016110cb565b81611357575060006110cb565b816001811461136d5760028114611377576113a4565b60019150506110cb565b60ff8411156113885761138861143a565b6001841b91508482111561139e5761139e61143a565b506110cb565b5060208310610133831016604e8410600b84101617156113d7575081810a838111156113d2576113d261143a565b6110cb565b6113e484848460016112e8565b8086048211156113f6576113f661143a565b02949350505050565b60006000198214156114135761141361143a565b5060010190565b60008261143557634e487b7160e01b81526012600452602481fd5b500690565b634e487b7160e01b600052601160045260246000fdfea26469706673582212201ed5cf629e730e4add19e6a9cae9ea313e097db3d72135dba6bdad91b8253e4d64736f6c63430008030033",
  "devdoc": {
    "kind": "dev",
    "methods": {
      "owner()": {
        "details": "Returns the address of the current owner."
      },
      "renounceOwnership()": {
        "details": "Leaves the contract without owner. It will not be possible to call `onlyOwner` functions anymore. Can only be called by the current owner. NOTE: Renouncing ownership will leave the contract without an owner, thereby removing any functionality that is only available to the owner."
      },
      "transferOwnership(address)": {
        "details": "Transfers ownership of the contract to a new account (`newOwner`). Can only be called by the current owner."
      }
    },
    "version": 1
  },
  "userdoc": {
    "kind": "user",
    "methods": {},
    "version": 1
  },
  "storageLayout": {
    "storage": [
      {
        "astId": 53,
        "contract": "contracts/core/Median.sol:Median",
        "label": "_owner",
        "offset": 0,
        "slot": "0",
        "type": "t_address"
      },
      {
        "astId": 6671,
        "contract": "contracts/core/Median.sol:Median",
        "label": "val",
        "offset": 0,
        "slot": "1",
        "type": "t_uint128"
      },
      {
        "astId": 6673,
        "contract": "contracts/core/Median.sol:Median",
        "label": "age",
        "offset": 16,
        "slot": "1",
        "type": "t_uint32"
      },
      {
        "astId": 6679,
        "contract": "contracts/core/Median.sol:Median",
        "label": "bar",
        "offset": 0,
        "slot": "2",
        "type": "t_uint256"
      },
      {
        "astId": 6683,
        "contract": "contracts/core/Median.sol:Median",
        "label": "orcl",
        "offset": 0,
        "slot": "3",
        "type": "t_mapping(t_address,t_uint256)"
      },
      {
        "astId": 6687,
        "contract": "contracts/core/Median.sol:Median",
        "label": "bud",
        "offset": 0,
        "slot": "4",
        "type": "t_mapping(t_address,t_uint256)"
      },
      {
        "astId": 6691,
        "contract": "contracts/core/Median.sol:Median",
        "label": "slot",
        "offset": 0,
        "slot": "5",
        "type": "t_mapping(t_uint8,t_address)"
      }
    ],
    "types": {
      "t_address": {
        "encoding": "inplace",
        "label": "address",
        "numberOfBytes": "20"
      },
      "t_mapping(t_address,t_uint256)": {
        "encoding": "mapping",
        "key": "t_address",
        "label": "mapping(address => uint256)",
        "numberOfBytes": "32",
        "value": "t_uint256"
      },
      "t_mapping(t_uint8,t_address)": {
        "encoding": "mapping",
        "key": "t_uint8",
        "label": "mapping(uint8 => address)",
        "numberOfBytes": "32",
        "value": "t_address"
      },
      "t_uint128": {
        "encoding": "inplace",
        "label": "uint128",
        "numberOfBytes": "16"
      },
      "t_uint256": {
        "encoding": "inplace",
        "label": "uint256",
        "numberOfBytes": "32"
      },
      "t_uint32": {
        "encoding": "inplace",
        "label": "uint32",
        "numberOfBytes": "4"
      },
      "t_uint8": {
        "encoding": "inplace",
        "label": "uint8",
        "numberOfBytes": "1"
      }
    }
  }
}