{
  "address": "0xc71223738B82748a41560e69E4B57D8a95bDbcA1",
  "abi": [
    {
      "inputs": [
        {
          "internalType": "string",
          "name": "_name",
          "type": "string"
        },
        {
          "internalType": "string",
          "name": "_symbol",
          "type": "string"
        }
      ],
      "stateMutability": "nonpayable",
      "type": "constructor"
    },
    {
      "anonymous": false,
      "inputs": [
        {
          "indexed": true,
          "internalType": "address",
          "name": "owner",
          "type": "address"
        },
        {
          "indexed": true,
          "internalType": "address",
          "name": "spender",
          "type": "address"
        },
        {
          "indexed": false,
          "internalType": "uint256",
          "name": "value",
          "type": "uint256"
        }
      ],
      "name": "Approval",
      "type": "event"
    },
    {
      "anonymous": false,
      "inputs": [
        {
          "indexed": true,
          "internalType": "address",
          "name": "from",
          "type": "address"
        },
        {
          "indexed": true,
          "internalType": "address",
          "name": "to",
          "type": "address"
        },
        {
          "indexed": false,
          "internalType": "uint256",
          "name": "value",
          "type": "uint256"
        }
      ],
      "name": "Transfer",
      "type": "event"
    },
    {
      "inputs": [
        {
          "internalType": "address",
          "name": "owner",
          "type": "address"
        },
        {
          "internalType": "address",
          "name": "spender",
          "type": "address"
        }
      ],
      "name": "allowance",
      "outputs": [
        {
          "internalType": "uint256",
          "name": "",
          "type": "uint256"
        }
      ],
      "stateMutability": "view",
      "type": "function"
    },
    {
      "inputs": [
        {
          "internalType": "address",
          "name": "spender",
          "type": "address"
        },
        {
          "internalType": "uint256",
          "name": "amount",
          "type": "uint256"
        }
      ],
      "name": "approve",
      "outputs": [
        {
          "internalType": "bool",
          "name": "",
          "type": "bool"
        }
      ],
      "stateMutability": "nonpayable",
      "type": "function"
    },
    {
      "inputs": [
        {
          "internalType": "address",
          "name": "account",
          "type": "address"
        }
      ],
      "name": "balanceOf",
      "outputs": [
        {
          "internalType": "uint256",
          "name": "",
          "type": "uint256"
        }
      ],
      "stateMutability": "view",
      "type": "function"
    },
    {
      "inputs": [
        {
          "internalType": "uint256",
          "name": "_amount",
          "type": "uint256"
        }
      ],
      "name": "burn",
      "outputs": [],
      "stateMutability": "nonpayable",
      "type": "function"
    },
    {
      "inputs": [],
      "name": "decimals",
      "outputs": [
        {
          "internalType": "uint8",
          "name": "",
          "type": "uint8"
        }
      ],
      "stateMutability": "view",
      "type": "function"
    },
    {
      "inputs": [
        {
          "internalType": "address",
          "name": "spender",
          "type": "address"
        },
        {
          "internalType": "uint256",
          "name": "subtractedValue",
          "type": "uint256"
        }
      ],
      "name": "decreaseAllowance",
      "outputs": [
        {
          "internalType": "bool",
          "name": "",
          "type": "bool"
        }
      ],
      "stateMutability": "nonpayable",
      "type": "function"
    },
    {
      "inputs": [
        {
          "internalType": "address",
          "name": "spender",
          "type": "address"
        },
        {
          "internalType": "uint256",
          "name": "addedValue",
          "type": "uint256"
        }
      ],
      "name": "increaseAllowance",
      "outputs": [
        {
          "internalType": "bool",
          "name": "",
          "type": "bool"
        }
      ],
      "stateMutability": "nonpayable",
      "type": "function"
    },
    {
      "inputs": [
        {
          "internalType": "address",
          "name": "_recipient",
          "type": "address"
        },
        {
          "internalType": "uint256",
          "name": "_amount",
          "type": "uint256"
        }
      ],
      "name": "mint",
      "outputs": [],
      "stateMutability": "nonpayable",
      "type": "function"
    },
    {
      "inputs": [],
      "name": "name",
      "outputs": [
        {
          "internalType": "string",
          "name": "",
          "type": "string"
        }
      ],
      "stateMutability": "view",
      "type": "function"
    },
    {
      "inputs": [],
      "name": "symbol",
      "outputs": [
        {
          "internalType": "string",
          "name": "",
          "type": "string"
        }
      ],
      "stateMutability": "view",
      "type": "function"
    },
    {
      "inputs": [],
      "name": "totalSupply",
      "outputs": [
        {
          "internalType": "uint256",
          "name": "",
          "type": "uint256"
        }
      ],
      "stateMutability": "view",
      "type": "function"
    },
    {
      "inputs": [
        {
          "internalType": "address",
          "name": "recipient",
          "type": "address"
        },
        {
          "internalType": "uint256",
          "name": "amount",
          "type": "uint256"
        }
      ],
      "name": "transfer",
      "outputs": [
        {
          "internalType": "bool",
          "name": "",
          "type": "bool"
        }
      ],
      "stateMutability": "nonpayable",
      "type": "function"
    },
    {
      "inputs": [
        {
          "internalType": "address",
          "name": "sender",
          "type": "address"
        },
        {
          "internalType": "address",
          "name": "recipient",
          "type": "address"
        },
        {
          "internalType": "uint256",
          "name": "amount",
          "type": "uint256"
        }
      ],
      "name": "transferFrom",
      "outputs": [
        {
          "internalType": "bool",
          "name": "",
          "type": "bool"
        }
      ],
      "stateMutability": "nonpayable",
      "type": "function"
    }
  ],
  "transactionHash": "0x345e192f0a50a6041a07ac17bfcb2f306ece9c34bc0390f57f21a0764e91f768",
  "args": [
    "Mock DAI",
    "MDAI"
  ],
  "numDeployments": 1,
  "solcInputHash": "4eaea1d57c6d4a8394b16399b59c4465",
  "bytecode": "0x60806040523480156200001157600080fd5b5060405162000f1c38038062000f1c8339810160408190526200003491620002ca565b8151829082906200004d90600390602085019062000171565b5080516200006390600490602084019062000171565b505050620000813368056bc75e2d631000006200008960201b60201c565b5050620003a9565b6001600160a01b038216620000e45760405162461bcd60e51b815260206004820152601f60248201527f45524332303a206d696e7420746f20746865207a65726f206164647265737300604482015260640160405180910390fd5b8060026000828254620000f8919062000331565b90915550506001600160a01b038216600090815260208190526040812080548392906200012790849062000331565b90915550506040518181526001600160a01b038316906000907fddf252ad1be2c89b69c2b068fc378daa952ba7f163c4a11628f55a4df523b3ef9060200160405180910390a35050565b8280546200017f9062000356565b90600052602060002090601f016020900481019282620001a35760008555620001ee565b82601f10620001be57805160ff1916838001178555620001ee565b82800160010185558215620001ee579182015b82811115620001ee578251825591602001919060010190620001d1565b50620001fc92915062000200565b5090565b5b80821115620001fc576000815560010162000201565b600082601f83011262000228578081fd5b81516001600160401b038082111562000245576200024562000393565b604051601f8301601f19908116603f0116810190828211818310171562000270576200027062000393565b816040528381526020925086838588010111156200028c578485fd5b8491505b83821015620002af578582018301518183018401529082019062000290565b83821115620002c057848385830101525b9695505050505050565b60008060408385031215620002dd578182fd5b82516001600160401b0380821115620002f4578384fd5b620003028683870162000217565b9350602085015191508082111562000318578283fd5b50620003278582860162000217565b9150509250929050565b600082198211156200035157634e487b7160e01b81526011600452602481fd5b500190565b600181811c908216806200036b57607f821691505b602082108114156200038d57634e487b7160e01b600052602260045260246000fd5b50919050565b634e487b7160e01b600052604160045260246000fd5b610b6380620003b96000396000f3fe608060405234801561001057600080fd5b50600436106100bf5760003560e01c806340c10f191161007c57806340c10f191461014c57806342966c681461016157806370a082311461017457806395d89b4114610187578063a457c2d71461018f578063a9059cbb146101a2578063dd62ed3e146101b5576100bf565b806306fdde03146100c4578063095ea7b3146100e257806318160ddd1461010557806323b872dd14610117578063313ce5671461012a5780633950935114610139575b600080fd5b6100cc6101ee565b6040516100d99190610a3a565b60405180910390f35b6100f56100f03660046109f9565b610280565b60405190151581526020016100d9565b6002545b6040519081526020016100d9565b6100f56101253660046109be565b610296565b604051601281526020016100d9565b6100f56101473660046109f9565b610345565b61015f61015a3660046109f9565b610381565b005b61015f61016f366004610a22565b61038f565b61010961018236600461096b565b61039c565b6100cc6103bb565b6100f561019d3660046109f9565b6103ca565b6100f56101b03660046109f9565b610463565b6101096101c336600461098c565b6001600160a01b03918216600090815260016020908152604080832093909416825291909152205490565b6060600380546101fd90610abc565b80601f016020809104026020016040519081016040528092919081815260200182805461022990610abc565b80156102765780601f1061024b57610100808354040283529160200191610276565b820191906000526020600020905b81548152906001019060200180831161025957829003601f168201915b5050505050905090565b600061028d338484610470565b50600192915050565b60006102a3848484610595565b6001600160a01b03841660009081526001602090815260408083203384529091529020548281101561032d5760405162461bcd60e51b815260206004820152602860248201527f45524332303a207472616e7366657220616d6f756e74206578636565647320616044820152676c6c6f77616e636560c01b60648201526084015b60405180910390fd5b61033a8533858403610470565b506001949350505050565b3360008181526001602090815260408083206001600160a01b0387168452909152812054909161028d91859061037c908690610a8d565b610470565b61038b8282610752565b5050565b6103993382610820565b50565b6001600160a01b0381166000908152602081905260409020545b919050565b6060600480546101fd90610abc565b3360009081526001602090815260408083206001600160a01b03861684529091528120548281101561044c5760405162461bcd60e51b815260206004820152602560248201527f45524332303a2064656372656173656420616c6c6f77616e63652062656c6f77604482015264207a65726f60d81b6064820152608401610324565b6104593385858403610470565b5060019392505050565b600061028d338484610595565b6001600160a01b0383166104d25760405162461bcd60e51b8152602060048201526024808201527f45524332303a20617070726f76652066726f6d20746865207a65726f206164646044820152637265737360e01b6064820152608401610324565b6001600160a01b0382166105335760405162461bcd60e51b815260206004820152602260248201527f45524332303a20617070726f766520746f20746865207a65726f206164647265604482015261737360f01b6064820152608401610324565b6001600160a01b0383811660008181526001602090815260408083209487168084529482529182902085905590518481527f8c5be1e5ebec7d5bd14f71427d1e84f3dd0314c0f7b2291e5b200ac8c7c3b92591015b60405180910390a3505050565b6001600160a01b0383166105f95760405162461bcd60e51b815260206004820152602560248201527f45524332303a207472616e736665722066726f6d20746865207a65726f206164604482015264647265737360d81b6064820152608401610324565b6001600160a01b03821661065b5760405162461bcd60e51b815260206004820152602360248201527f45524332303a207472616e7366657220746f20746865207a65726f206164647260448201526265737360e81b6064820152608401610324565b6001600160a01b038316600090815260208190526040902054818110156106d35760405162461bcd60e51b815260206004820152602660248201527f45524332303a207472616e7366657220616d6f756e7420657863656564732062604482015265616c616e636560d01b6064820152608401610324565b6001600160a01b0380851660009081526020819052604080822085850390559185168152908120805484929061070a908490610a8d565b92505081905550826001600160a01b0316846001600160a01b0316600080516020610b0e8339815191528460405161074491815260200190565b60405180910390a350505050565b6001600160a01b0382166107a85760405162461bcd60e51b815260206004820152601f60248201527f45524332303a206d696e7420746f20746865207a65726f2061646472657373006044820152606401610324565b80600260008282546107ba9190610a8d565b90915550506001600160a01b038216600090815260208190526040812080548392906107e7908490610a8d565b90915550506040518181526001600160a01b03831690600090600080516020610b0e8339815191529060200160405180910390a361038b565b6001600160a01b0382166108805760405162461bcd60e51b815260206004820152602160248201527f45524332303a206275726e2066726f6d20746865207a65726f206164647265736044820152607360f81b6064820152608401610324565b6001600160a01b038216600090815260208190526040902054818110156108f45760405162461bcd60e51b815260206004820152602260248201527f45524332303a206275726e20616d6f756e7420657863656564732062616c616e604482015261636560f01b6064820152608401610324565b6001600160a01b0383166000908152602081905260408120838303905560028054849290610923908490610aa5565b90915550506040518281526000906001600160a01b03851690600080516020610b0e83398151915290602001610588565b80356001600160a01b03811681146103b657600080fd5b60006020828403121561097c578081fd5b61098582610954565b9392505050565b6000806040838503121561099e578081fd5b6109a783610954565b91506109b560208401610954565b90509250929050565b6000806000606084860312156109d2578081fd5b6109db84610954565b92506109e960208501610954565b9150604084013590509250925092565b60008060408385031215610a0b578182fd5b610a1483610954565b946020939093013593505050565b600060208284031215610a33578081fd5b5035919050565b6000602080835283518082850152825b81811015610a6657858101830151858201604001528201610a4a565b81811115610a775783604083870101525b50601f01601f1916929092016040019392505050565b60008219821115610aa057610aa0610af7565b500190565b600082821015610ab757610ab7610af7565b500390565b600181811c90821680610ad057607f821691505b60208210811415610af157634e487b7160e01b600052602260045260246000fd5b50919050565b634e487b7160e01b600052601160045260246000fdfeddf252ad1be2c89b69c2b068fc378daa952ba7f163c4a11628f55a4df523b3efa2646970667358221220a1d8d4813edb3b55b57db02d71c82d8b28cfd918f628f3580691642b70f05fa464736f6c63430008030033",
  "devdoc": {
    "kind": "dev",
    "methods": {
      "allowance(address,address)": {
        "details": "See {IERC20-allowance}."
      },
      "approve(address,uint256)": {
        "details": "See {IERC20-approve}. Requirements: - `spender` cannot be the zero address."
      },
      "balanceOf(address)": {
        "details": "See {IERC20-balanceOf}."
      },
      "decimals()": {
        "details": "Returns the number of decimals used to get its user representation. For example, if `decimals` equals `2`, a balance of `505` tokens should be displayed to a user as `5.05` (`505 / 10 ** 2`). Tokens usually opt for a value of 18, imitating the relationship between Ether and Wei. This is the value {ERC20} uses, unless this function is overridden; NOTE: This information is only used for _display_ purposes: it in no way affects any of the arithmetic of the contract, including {IERC20-balanceOf} and {IERC20-transfer}."
      },
      "decreaseAllowance(address,uint256)": {
        "details": "Atomically decreases the allowance granted to `spender` by the caller. This is an alternative to {approve} that can be used as a mitigation for problems described in {IERC20-approve}. Emits an {Approval} event indicating the updated allowance. Requirements: - `spender` cannot be the zero address. - `spender` must have allowance for the caller of at least `subtractedValue`."
      },
      "increaseAllowance(address,uint256)": {
        "details": "Atomically increases the allowance granted to `spender` by the caller. This is an alternative to {approve} that can be used as a mitigation for problems described in {IERC20-approve}. Emits an {Approval} event indicating the updated allowance. Requirements: - `spender` cannot be the zero address."
      },
      "name()": {
        "details": "Returns the name of the token."
      },
      "symbol()": {
        "details": "Returns the symbol of the token, usually a shorter version of the name."
      },
      "totalSupply()": {
        "details": "See {IERC20-totalSupply}."
      },
      "transfer(address,uint256)": {
        "details": "See {IERC20-transfer}. Requirements: - `recipient` cannot be the zero address. - the caller must have a balance of at least `amount`."
      },
      "transferFrom(address,address,uint256)": {
        "details": "See {IERC20-transferFrom}. Emits an {Approval} event indicating the updated allowance. This is not required by the EIP. See the note at the beginning of {ERC20}. Requirements: - `sender` and `recipient` cannot be the zero address. - `sender` must have a balance of at least `amount`. - the caller must have allowance for ``sender``'s tokens of at least `amount`."
      }
    },
    "version": 1
  },
  "userdoc": {
    "kind": "user",
    "methods": {},
    "version": 1
  },
  "storageLayout": {
    "storage": [
      {
        "astId": 166,
        "contract": "contracts/mocks/MockDAI.sol:MockDAI",
        "label": "_balances",
        "offset": 0,
        "slot": "0",
        "type": "t_mapping(t_address,t_uint256)"
      },
      {
        "astId": 172,
        "contract": "contracts/mocks/MockDAI.sol:MockDAI",
        "label": "_allowances",
        "offset": 0,
        "slot": "1",
        "type": "t_mapping(t_address,t_mapping(t_address,t_uint256))"
      },
      {
        "astId": 174,
        "contract": "contracts/mocks/MockDAI.sol:MockDAI",
        "label": "_totalSupply",
        "offset": 0,
        "slot": "2",
        "type": "t_uint256"
      },
      {
        "astId": 176,
        "contract": "contracts/mocks/MockDAI.sol:MockDAI",
        "label": "_name",
        "offset": 0,
        "slot": "3",
        "type": "t_string_storage"
      },
      {
        "astId": 178,
        "contract": "contracts/mocks/MockDAI.sol:MockDAI",
        "label": "_symbol",
        "offset": 0,
        "slot": "4",
        "type": "t_string_storage"
      }
    ],
    "types": {
      "t_address": {
        "encoding": "inplace",
        "label": "address",
        "numberOfBytes": "20"
      },
      "t_mapping(t_address,t_mapping(t_address,t_uint256))": {
        "encoding": "mapping",
        "key": "t_address",
        "label": "mapping(address => mapping(address => uint256))",
        "numberOfBytes": "32",
        "value": "t_mapping(t_address,t_uint256)"
      },
      "t_mapping(t_address,t_uint256)": {
        "encoding": "mapping",
        "key": "t_address",
        "label": "mapping(address => uint256)",
        "numberOfBytes": "32",
        "value": "t_uint256"
      },
      "t_string_storage": {
        "encoding": "bytes",
        "label": "string",
        "numberOfBytes": "32"
      },
      "t_uint256": {
        "encoding": "inplace",
        "label": "uint256",
        "numberOfBytes": "32"
      }
    }
  }
}