{
  "address": "0x2E01f9711F495f22f9d9D6ed0628ea68F20028Ce",
  "abi": [
    {
      "inputs": [
        {
          "internalType": "address",
          "name": "_core",
          "type": "address"
        }
      ],
      "stateMutability": "nonpayable",
      "type": "constructor"
    },
    {
      "anonymous": false,
      "inputs": [
        {
          "indexed": false,
          "internalType": "uint256",
          "name": "_F_GEM",
          "type": "uint256"
        }
      ],
      "name": "F_GEMUpdated",
      "type": "event"
    },
    {
      "anonymous": false,
      "inputs": [
        {
          "indexed": false,
          "internalType": "uint256",
          "name": "_F_PAI",
          "type": "uint256"
        }
      ],
      "name": "F_PAIUpdated",
      "type": "event"
    },
    {
      "anonymous": false,
      "inputs": [
        {
          "indexed": false,
          "internalType": "address",
          "name": "_account",
          "type": "address"
        },
        {
          "indexed": false,
          "internalType": "uint256",
          "name": "_amount",
          "type": "uint256"
        }
      ],
      "name": "GEMSent",
      "type": "event"
    },
    {
      "anonymous": false,
      "inputs": [
        {
          "indexed": false,
          "internalType": "address",
          "name": "_account",
          "type": "address"
        },
        {
          "indexed": false,
          "internalType": "uint256",
          "name": "_amount",
          "type": "uint256"
        }
      ],
      "name": "PAISent",
      "type": "event"
    },
    {
      "anonymous": false,
      "inputs": [
        {
          "indexed": true,
          "internalType": "address",
          "name": "staker",
          "type": "address"
        },
        {
          "indexed": false,
          "internalType": "uint256",
          "name": "newStake",
          "type": "uint256"
        }
      ],
      "name": "StakeChanged",
      "type": "event"
    },
    {
      "anonymous": false,
      "inputs": [
        {
          "indexed": false,
          "internalType": "address",
          "name": "_staker",
          "type": "address"
        },
        {
          "indexed": false,
          "internalType": "uint256",
          "name": "_F_GEM",
          "type": "uint256"
        },
        {
          "indexed": false,
          "internalType": "uint256",
          "name": "_F_PAI",
          "type": "uint256"
        }
      ],
      "name": "StakerSnapshotsUpdated",
      "type": "event"
    },
    {
      "anonymous": false,
      "inputs": [
        {
          "indexed": true,
          "internalType": "address",
          "name": "staker",
          "type": "address"
        },
        {
          "indexed": false,
          "internalType": "uint256",
          "name": "PAIGain",
          "type": "uint256"
        },
        {
          "indexed": false,
          "internalType": "uint256",
          "name": "GEMGain",
          "type": "uint256"
        }
      ],
      "name": "StakingGainsWithdrawn",
      "type": "event"
    },
    {
      "anonymous": false,
      "inputs": [
        {
          "indexed": false,
          "internalType": "uint256",
          "name": "_totalMYOStaked",
          "type": "uint256"
        }
      ],
      "name": "TotalMYOStakedUpdated",
      "type": "event"
    },
    {
      "inputs": [],
      "name": "BOOTSTRAP_PERIOD",
      "outputs": [
        {
          "internalType": "uint256",
          "name": "",
          "type": "uint256"
        }
      ],
      "stateMutability": "view",
      "type": "function"
    },
    {
      "inputs": [],
      "name": "BORROWING_FEE_FLOOR",
      "outputs": [
        {
          "internalType": "uint256",
          "name": "",
          "type": "uint256"
        }
      ],
      "stateMutability": "view",
      "type": "function"
    },
    {
      "inputs": [],
      "name": "CCR",
      "outputs": [
        {
          "internalType": "uint256",
          "name": "",
          "type": "uint256"
        }
      ],
      "stateMutability": "view",
      "type": "function"
    },
    {
      "inputs": [],
      "name": "DAI_GAS_COMPENSATION",
      "outputs": [
        {
          "internalType": "uint256",
          "name": "",
          "type": "uint256"
        }
      ],
      "stateMutability": "view",
      "type": "function"
    },
    {
      "inputs": [],
      "name": "DECIMAL_PRECISION",
      "outputs": [
        {
          "internalType": "uint256",
          "name": "",
          "type": "uint256"
        }
      ],
      "stateMutability": "view",
      "type": "function"
    },
    {
      "inputs": [],
      "name": "F_GEM",
      "outputs": [
        {
          "internalType": "uint256",
          "name": "",
          "type": "uint256"
        }
      ],
      "stateMutability": "view",
      "type": "function"
    },
    {
      "inputs": [],
      "name": "F_PAI",
      "outputs": [
        {
          "internalType": "uint256",
          "name": "",
          "type": "uint256"
        }
      ],
      "stateMutability": "view",
      "type": "function"
    },
    {
      "inputs": [],
      "name": "HALF_PERCENT_DIVISOR",
      "outputs": [
        {
          "internalType": "uint256",
          "name": "",
          "type": "uint256"
        }
      ],
      "stateMutability": "view",
      "type": "function"
    },
    {
      "inputs": [],
      "name": "MAX_UINT",
      "outputs": [
        {
          "internalType": "uint256",
          "name": "",
          "type": "uint256"
        }
      ],
      "stateMutability": "view",
      "type": "function"
    },
    {
      "inputs": [],
      "name": "MCR",
      "outputs": [
        {
          "internalType": "uint256",
          "name": "",
          "type": "uint256"
        }
      ],
      "stateMutability": "view",
      "type": "function"
    },
    {
      "inputs": [],
      "name": "MIN_NET_DEBT",
      "outputs": [
        {
          "internalType": "uint256",
          "name": "",
          "type": "uint256"
        }
      ],
      "stateMutability": "view",
      "type": "function"
    },
    {
      "inputs": [],
      "name": "NAME",
      "outputs": [
        {
          "internalType": "string",
          "name": "",
          "type": "string"
        }
      ],
      "stateMutability": "view",
      "type": "function"
    },
    {
      "inputs": [],
      "name": "SECONDS_IN_ONE_MINUTE",
      "outputs": [
        {
          "internalType": "uint256",
          "name": "",
          "type": "uint256"
        }
      ],
      "stateMutability": "view",
      "type": "function"
    },
    {
      "inputs": [],
      "name": "activePool",
      "outputs": [
        {
          "internalType": "contract IActivePool",
          "name": "",
          "type": "address"
        }
      ],
      "stateMutability": "view",
      "type": "function"
    },
    {
      "inputs": [],
      "name": "borrowerOperations",
      "outputs": [
        {
          "internalType": "contract IBorrowerOperations",
          "name": "",
          "type": "address"
        }
      ],
      "stateMutability": "view",
      "type": "function"
    },
    {
      "inputs": [],
      "name": "collSurplusPool",
      "outputs": [
        {
          "internalType": "contract ICollSurplusPool",
          "name": "",
          "type": "address"
        }
      ],
      "stateMutability": "view",
      "type": "function"
    },
    {
      "inputs": [],
      "name": "core",
      "outputs": [
        {
          "internalType": "contract ICore",
          "name": "",
          "type": "address"
        }
      ],
      "stateMutability": "view",
      "type": "function"
    },
    {
      "inputs": [],
      "name": "defaultPool",
      "outputs": [
        {
          "internalType": "contract IDefaultPool",
          "name": "",
          "type": "address"
        }
      ],
      "stateMutability": "view",
      "type": "function"
    },
    {
      "inputs": [],
      "name": "gemToken",
      "outputs": [
        {
          "internalType": "contract IERC20",
          "name": "",
          "type": "address"
        }
      ],
      "stateMutability": "view",
      "type": "function"
    },
    {
      "inputs": [],
      "name": "getAccruedGEMFees",
      "outputs": [
        {
          "internalType": "uint256",
          "name": "",
          "type": "uint256"
        }
      ],
      "stateMutability": "view",
      "type": "function"
    },
    {
      "inputs": [],
      "name": "getAccruedPAIFees",
      "outputs": [
        {
          "internalType": "uint256",
          "name": "",
          "type": "uint256"
        }
      ],
      "stateMutability": "view",
      "type": "function"
    },
    {
      "inputs": [],
      "name": "getEntireSystemColl",
      "outputs": [
        {
          "internalType": "uint256",
          "name": "entireSystemColl",
          "type": "uint256"
        }
      ],
      "stateMutability": "view",
      "type": "function"
    },
    {
      "inputs": [],
      "name": "getEntireSystemDebt",
      "outputs": [
        {
          "internalType": "uint256",
          "name": "entireSystemDebt",
          "type": "uint256"
        }
      ],
      "stateMutability": "view",
      "type": "function"
    },
    {
      "inputs": [
        {
          "internalType": "address",
          "name": "_user",
          "type": "address"
        }
      ],
      "name": "getPendingGEMGain",
      "outputs": [
        {
          "internalType": "uint256",
          "name": "",
          "type": "uint256"
        }
      ],
      "stateMutability": "view",
      "type": "function"
    },
    {
      "inputs": [
        {
          "internalType": "address",
          "name": "_user",
          "type": "address"
        }
      ],
      "name": "getPendingPAIGain",
      "outputs": [
        {
          "internalType": "uint256",
          "name": "",
          "type": "uint256"
        }
      ],
      "stateMutability": "view",
      "type": "function"
    },
    {
      "inputs": [
        {
          "internalType": "uint256",
          "name": "_GEMFee",
          "type": "uint256"
        }
      ],
      "name": "increaseF_GEM",
      "outputs": [],
      "stateMutability": "nonpayable",
      "type": "function"
    },
    {
      "inputs": [
        {
          "internalType": "uint256",
          "name": "_PAIFee",
          "type": "uint256"
        }
      ],
      "name": "increaseF_PAI",
      "outputs": [],
      "stateMutability": "nonpayable",
      "type": "function"
    },
    {
      "inputs": [],
      "name": "myoStaking",
      "outputs": [
        {
          "internalType": "contract IMYOStaking",
          "name": "",
          "type": "address"
        }
      ],
      "stateMutability": "view",
      "type": "function"
    },
    {
      "inputs": [],
      "name": "myoToken",
      "outputs": [
        {
          "internalType": "contract IMYOToken",
          "name": "",
          "type": "address"
        }
      ],
      "stateMutability": "view",
      "type": "function"
    },
    {
      "inputs": [],
      "name": "paiToken",
      "outputs": [
        {
          "internalType": "contract IPAIToken",
          "name": "",
          "type": "address"
        }
      ],
      "stateMutability": "view",
      "type": "function"
    },
    {
      "inputs": [],
      "name": "priceFeed",
      "outputs": [
        {
          "internalType": "contract IPriceFeed",
          "name": "",
          "type": "address"
        }
      ],
      "stateMutability": "view",
      "type": "function"
    },
    {
      "inputs": [
        {
          "internalType": "address",
          "name": "",
          "type": "address"
        }
      ],
      "name": "snapshots",
      "outputs": [
        {
          "internalType": "uint256",
          "name": "F_GEM_Snapshot",
          "type": "uint256"
        },
        {
          "internalType": "uint256",
          "name": "F_PAI_Snapshot",
          "type": "uint256"
        }
      ],
      "stateMutability": "view",
      "type": "function"
    },
    {
      "inputs": [],
      "name": "sortedTroves",
      "outputs": [
        {
          "internalType": "contract ISortedTroves",
          "name": "",
          "type": "address"
        }
      ],
      "stateMutability": "view",
      "type": "function"
    },
    {
      "inputs": [
        {
          "internalType": "uint256",
          "name": "_MYOamount",
          "type": "uint256"
        }
      ],
      "name": "stake",
      "outputs": [],
      "stateMutability": "nonpayable",
      "type": "function"
    },
    {
      "inputs": [
        {
          "internalType": "address",
          "name": "",
          "type": "address"
        }
      ],
      "name": "stakes",
      "outputs": [
        {
          "internalType": "uint256",
          "name": "",
          "type": "uint256"
        }
      ],
      "stateMutability": "view",
      "type": "function"
    },
    {
      "inputs": [],
      "name": "totalMYOStaked",
      "outputs": [
        {
          "internalType": "uint256",
          "name": "",
          "type": "uint256"
        }
      ],
      "stateMutability": "view",
      "type": "function"
    },
    {
      "inputs": [
        {
          "internalType": "uint256",
          "name": "_MYOamount",
          "type": "uint256"
        }
      ],
      "name": "unstake",
      "outputs": [],
      "stateMutability": "nonpayable",
      "type": "function"
    },
    {
      "inputs": [],
      "name": "vault",
      "outputs": [
        {
          "internalType": "contract IVault",
          "name": "",
          "type": "address"
        }
      ],
      "stateMutability": "view",
      "type": "function"
    }
  ],
  "transactionHash": "0xd24ccb9d952d655d16cf913683a22731f1df4ef4417c2210de7fcffe95ba1d29",
  "args": [
    "0x37F6DFa518E3708727E7eD3CbF5cA3641412890e"
  ],
  "numDeployments": 2,
  "solcInputHash": "8aa079dc372efa4fb72dddab2b66ad11",
  "bytecode": "0x60a06040526000196000553480156200001757600080fd5b50604051620017c7380380620017c78339810160408190526200003a916200010e565b8062000046816200005d565b60601b6001600160601b031916608052506200013e565b6001600160a01b038116620000b95760405162461bcd60e51b815260206004820152601e60248201527f4163636f756e742063616e6e6f74206265207a65726f2061646472657373000060448201526064015b60405180910390fd5b803b806200010a5760405162461bcd60e51b815260206004820181905260248201527f4163636f756e7420636f64652073697a652063616e6e6f74206265207a65726f6044820152606401620000b0565b5050565b60006020828403121562000120578081fd5b81516001600160a01b038116811462000137578182fd5b9392505050565b60805160601c61161d620001aa6000396000818161043701528181610657015281816106ef0152818161074a015281816108af01528181610a4801528181610cb101528181610d1701528181610d7201528181610def01528181610e4a0152610ea5015261161d6000f3fe608060405234801561001057600080fd5b50600436106102125760003560e01c8063a3f4df7e11610120578063d78f6a66116100b8578063f2f4eb261161007c578063f2f4eb2614610432578063f92d343314610459578063fbfa77cf14610461578063ff2fb57c14610469578063fff298df1461047157610212565b8063d78f6a6614610407578063e2d8ef8d1461040f578063e5b5019a14610417578063f05acd9e14610420578063f2a69a011461042957610212565b8063a3f4df7e14610367578063a66b72801461039d578063a694fc3a146103b0578063ae918754146103c3578063b563be91146103cb578063be8087a2146103de578063c35bc550146103e6578063cda775f9146103f0578063d3c2f3c1146103f857610212565b8063741bef1a116101ae578063887105d311610172578063887105d31461032d57806389a8872f146103355780639d205fc91461033d5780639e8ef39014610350578063a20baee61461035857610212565b8063741bef1a146102fe57806377553ad414610306578063794e57241461030e578063795d26c31461031d5780637f7dde4a1461032557610212565b80630b2092fa1461021757806316934fc41461023d5780631bf435551461025d5780632e17de781461026d57806334b3081f146102825780633cc74225146102be5780635733d58f146102de57806358f0c933146102ed57806361ec893d146102f6575b600080fd5b61022a61022536600461145a565b610479565b6040519081526020015b60405180910390f35b61022a61024b36600461145a565b60016020526000908152604090205481565b61022a686194049f30f720000081565b61028061027b3660046114b2565b61048a565b005b6102a961029036600461145a565b6005602052600090815260409020805460019091015482565b60408051928352602083019190915201610234565b6102c6610653565b6040516001600160a01b039091168152602001610234565b61022a6714d1120d7b16000081565b61022a60035481565b61022a603c81565b6102c66106eb565b6102c6610746565b61022a670f43fc2c04ee000081565b61022a6107a1565b6102c66108ab565b61022a610906565b61022a60c881565b61028061034b3660046114b2565b6109c5565b6102c6610a44565b61022a670de0b6b3a764000081565b6103906040518060400160405280600a8152602001694d594f5374616b696e6760b01b81525081565b60405161023491906114fb565b6102806103ab3660046114b2565b610a9f565b6102806103be3660046114b2565b610b10565b6102c6610cad565b61022a6103d936600461145a565b610d08565b60035461022a565b61022a6212750081565b6102c6610d13565b61022a671bc16d674ec8000081565b60045461022a565b6102c6610d6e565b61022a60005481565b61022a60045481565b61022a60025481565b6102c67f000000000000000000000000000000000000000000000000000000000000000081565b61022a610dc9565b6102c6610deb565b6102c6610e46565b6102c6610ea1565b600061048482610efc565b92915050565b336000908152600160205260409020546104a381610f5d565b60006104ae33610efc565b905060006104bb33610fc9565b90506104c633611006565b83156106005760006104d88585611076565b905060006104e6858361108e565b336000908152600160205260409020819055600254909150610508908361108e565b60028190556040519081527fcc90c7c7229235ea6efd2e1b424482f2381f7208dbdb390206e3f027d6e85e5d9060200160405180910390a1610548610ea1565b6001600160a01b031663a9059cbb33846040518363ffffffff1660e01b81526004016105759291906114e2565b602060405180830381600087803b15801561058f57600080fd5b505af11580156105a3573d6000803e3d6000fd5b505050506040513d601f19601f820116820180604052508101906105c79190611476565b5060405181815233907f39df0e5286a3ef2f42a0bf52f32cfe2c58e5b0405f47fe512f2c2439e4cfe2049060200160405180910390a250505b604080518281526020810184905233917ff744d34ca1cb25acfa4180df5f09a67306107110a9f4b6ed99bb3be259738215910160405180910390a26106448161109a565b61064d826111c6565b50505050565b60007f00000000000000000000000000000000000000000000000000000000000000006001600160a01b0316633cc742256040518163ffffffff1660e01b815260040160206040518083038186803b1580156106ae57600080fd5b505afa1580156106c2573d6000803e3d6000fd5b505050506040513d601f19601f820116820180604052508101906106e69190611496565b905090565b60007f00000000000000000000000000000000000000000000000000000000000000006001600160a01b031663741bef1a6040518163ffffffff1660e01b815260040160206040518083038186803b1580156106ae57600080fd5b60007f00000000000000000000000000000000000000000000000000000000000000006001600160a01b03166377553ad46040518163ffffffff1660e01b815260040160206040518083038186803b1580156106ae57600080fd5b6000806107ac6108ab565b6001600160a01b03166314a6bf0f6040518163ffffffff1660e01b815260040160206040518083038186803b1580156107e457600080fd5b505afa1580156107f8573d6000803e3d6000fd5b505050506040513d601f19601f8201168201806040525081019061081c91906114ca565b90506000610828610653565b6001600160a01b03166314a6bf0f6040518163ffffffff1660e01b815260040160206040518083038186803b15801561086057600080fd5b505afa158015610874573d6000803e3d6000fd5b505050506040513d601f19601f8201168201806040525081019061089891906114ca565b90506108a482826112ee565b9250505090565b60007f00000000000000000000000000000000000000000000000000000000000000006001600160a01b0316637f7dde4a6040518163ffffffff1660e01b815260040160206040518083038186803b1580156106ae57600080fd5b6000806109116108ab565b6001600160a01b03166388bf5a9b6040518163ffffffff1660e01b815260040160206040518083038186803b15801561094957600080fd5b505afa15801561095d573d6000803e3d6000fd5b505050506040513d601f19601f8201168201806040525081019061098191906114ca565b9050600061098d610653565b6001600160a01b03166388bf5a9b6040518163ffffffff1660e01b815260040160206040518083038186803b15801561086057600080fd5b6109cd6112fa565b600254600090156109fa576002546109f7906109f184670de0b6b3a7640000611372565b9061137e565b90505b600454610a0790826112ee565b60048190556040519081527f5c0e08ca3bb02ce6e95bb312534829d89bc5da761d4785eb4cd59c854227d112906020015b60405180910390a15050565b60007f00000000000000000000000000000000000000000000000000000000000000006001600160a01b0316639e8ef3906040518163ffffffff1660e01b815260040160206040518083038186803b1580156106ae57600080fd5b610aa761138a565b60025460009015610ace57600254610acb906109f184670de0b6b3a7640000611372565b90505b600354610adb90826112ee565b60038190556040519081527f9dc92430d985ba3a7ed7db68e66d71a7770a7af1138afd16bfa3b8d32d249a2990602001610a38565b610b19816113fe565b3360009081526001602052604081205490808215610b4857610b3a33610efc565b9150610b4533610fc9565b90505b610b5133611006565b6000610b5d84866112ee565b336000908152600160205260409020819055600254909150610b7f90866112ee565b60028190556040519081527fcc90c7c7229235ea6efd2e1b424482f2381f7208dbdb390206e3f027d6e85e5d9060200160405180910390a1610bbf610ea1565b6001600160a01b031663dea9981033876040518363ffffffff1660e01b8152600401610bec9291906114e2565b600060405180830381600087803b158015610c0657600080fd5b505af1158015610c1a573d6000803e3d6000fd5b50506040518381523392507f39df0e5286a3ef2f42a0bf52f32cfe2c58e5b0405f47fe512f2c2439e4cfe204915060200160405180910390a2604080518381526020810185905233917ff744d34ca1cb25acfa4180df5f09a67306107110a9f4b6ed99bb3be259738215910160405180910390a28315610ca657610c9d8261109a565b610ca6836111c6565b5050505050565b60007f00000000000000000000000000000000000000000000000000000000000000006001600160a01b031663ae9187546040518163ffffffff1660e01b815260040160206040518083038186803b1580156106ae57600080fd5b600061048482610fc9565b60007f00000000000000000000000000000000000000000000000000000000000000006001600160a01b031663cda775f96040518163ffffffff1660e01b815260040160206040518083038186803b1580156106ae57600080fd5b60007f00000000000000000000000000000000000000000000000000000000000000006001600160a01b031663e2d8ef8d6040518163ffffffff1660e01b815260040160206040518083038186803b1580156106ae57600080fd5b610ddd6103e8670de0b6b3a7640000611566565b610de8906005611586565b81565b60007f00000000000000000000000000000000000000000000000000000000000000006001600160a01b031663fbfa77cf6040518163ffffffff1660e01b815260040160206040518083038186803b1580156106ae57600080fd5b60007f00000000000000000000000000000000000000000000000000000000000000006001600160a01b031663ff2fb57c6040518163ffffffff1660e01b815260040160206040518083038186803b1580156106ae57600080fd5b60007f00000000000000000000000000000000000000000000000000000000000000006001600160a01b031663fff298df6040518163ffffffff1660e01b815260040160206040518083038186803b1580156106ae57600080fd5b6001600160a01b0381166000908152600560205260408120546003548290610f5590670de0b6b3a7640000906109f190610f36908661108e565b6001600160a01b03881660009081526001602052604090205490611372565b949350505050565b60008111610fc65760405162461bcd60e51b815260206004820152602b60248201527f4d594f5374616b696e673a2055736572206d75737420686176652061206e6f6e60448201526a2d7a65726f207374616b6560a81b60648201526084015b60405180910390fd5b50565b6001600160a01b0381166000908152600560205260408120600101546004548290610f5590670de0b6b3a7640000906109f190610f36908661108e565b600380546001600160a01b03831660008181526005602090815260409182902093845560045460019094018490559354815192835293820193909352918201527f6b5cf27595af4428271524e0a5abd2b63f6fee1a61e31970490f5a10e257a1cd9060600160405180910390a150565b60008183106110855781611087565b825b9392505050565b600061108782846115a5565b7fc81bfb631f2fb105e9adb381f67853e6dabd01ac63bd84fec24f384da434f2a233826040516110cb9291906114e2565b60405180910390a160006110dd610a44565b6001600160a01b031663a9059cbb33846040518363ffffffff1660e01b815260040161110a9291906114e2565b602060405180830381600087803b15801561112457600080fd5b505af1158015611138573d6000803e3d6000fd5b505050506040513d601f19601f8201168201806040525081019061115c9190611476565b9050806111c25760405162461bcd60e51b815260206004820152602e60248201527f4d594f5374616b696e673a204661696c656420746f2073656e6420616363756d60448201526d3ab630ba32b2102820a4a3b0b4b760911b6064820152608401610fbd565b5050565b7f7e8574df4304b4b3442eecd378d37c797c92760eb6ab4148c2feb7646f2580d833826040516111f79291906114e2565b60405180910390a16000611209610e46565b6001600160a01b031663a9059cbb33846040518363ffffffff1660e01b81526004016112369291906114e2565b602060405180830381600087803b15801561125057600080fd5b505af1158015611264573d6000803e3d6000fd5b505050506040513d601f19601f820116820180604052508101906112889190611476565b9050806111c25760405162461bcd60e51b815260206004820152602e60248201527f4d594f5374616b696e673a204661696c656420746f2073656e6420616363756d60448201526d3ab630ba32b21023a2a6a3b0b4b760911b6064820152608401610fbd565b6000611087828461154e565b611302610746565b6001600160a01b0316336001600160a01b0316146113705760405162461bcd60e51b815260206004820152602560248201527f4d594f5374616b696e673a2063616c6c6572206973206e6f7420426f72726f7760448201526465724f707360d81b6064820152608401610fbd565b565b60006110878284611586565b60006110878284611566565b6113926108ab565b6001600160a01b0316336001600160a01b0316146113705760405162461bcd60e51b8152602060048201526024808201527f4d594f5374616b696e673a2063616c6c6572206973206e6f7420416374697665604482015263141bdbdb60e21b6064820152608401610fbd565b60008111610fc65760405162461bcd60e51b815260206004820152602360248201527f4d594f5374616b696e673a20416d6f756e74206d757374206265206e6f6e2d7a60448201526265726f60e81b6064820152608401610fbd565b60006020828403121561146b578081fd5b8135611087816115d2565b600060208284031215611487578081fd5b81518015158114611087578182fd5b6000602082840312156114a7578081fd5b8151611087816115d2565b6000602082840312156114c3578081fd5b5035919050565b6000602082840312156114db578081fd5b5051919050565b6001600160a01b03929092168252602082015260400190565b6000602080835283518082850152825b818110156115275785810183015185820160400152820161150b565b818111156115385783604083870101525b50601f01601f1916929092016040019392505050565b60008219821115611561576115616115bc565b500190565b60008261158157634e487b7160e01b81526012600452602481fd5b500490565b60008160001904831182151516156115a0576115a06115bc565b500290565b6000828210156115b7576115b76115bc565b500390565b634e487b7160e01b600052601160045260246000fd5b6001600160a01b0381168114610fc657600080fdfea26469706673582212207c44bd20b0146e1a807e1095703510e0825edf5756e7f1a94ca439d17671fb7064736f6c63430008030033",
  "devdoc": {
    "kind": "dev",
    "methods": {},
    "version": 1
  },
  "userdoc": {
    "kind": "user",
    "methods": {},
    "version": 1
  },
  "storageLayout": {
    "storage": [
      {
        "astId": 15613,
        "contract": "contracts/MYO/MYOStaking.sol:MYOStaking",
        "label": "MAX_UINT",
        "offset": 0,
        "slot": "0",
        "type": "t_uint256"
      },
      {
        "astId": 2833,
        "contract": "contracts/MYO/MYOStaking.sol:MYOStaking",
        "label": "stakes",
        "offset": 0,
        "slot": "1",
        "type": "t_mapping(t_address,t_uint256)"
      },
      {
        "astId": 2835,
        "contract": "contracts/MYO/MYOStaking.sol:MYOStaking",
        "label": "totalMYOStaked",
        "offset": 0,
        "slot": "2",
        "type": "t_uint256"
      },
      {
        "astId": 2837,
        "contract": "contracts/MYO/MYOStaking.sol:MYOStaking",
        "label": "F_GEM",
        "offset": 0,
        "slot": "3",
        "type": "t_uint256"
      },
      {
        "astId": 2839,
        "contract": "contracts/MYO/MYOStaking.sol:MYOStaking",
        "label": "F_PAI",
        "offset": 0,
        "slot": "4",
        "type": "t_uint256"
      },
      {
        "astId": 2844,
        "contract": "contracts/MYO/MYOStaking.sol:MYOStaking",
        "label": "snapshots",
        "offset": 0,
        "slot": "5",
        "type": "t_mapping(t_address,t_struct(Snapshot)2849_storage)"
      }
    ],
    "types": {
      "t_address": {
        "encoding": "inplace",
        "label": "address",
        "numberOfBytes": "20"
      },
      "t_mapping(t_address,t_struct(Snapshot)2849_storage)": {
        "encoding": "mapping",
        "key": "t_address",
        "label": "mapping(address => struct MYOStaking.Snapshot)",
        "numberOfBytes": "32",
        "value": "t_struct(Snapshot)2849_storage"
      },
      "t_mapping(t_address,t_uint256)": {
        "encoding": "mapping",
        "key": "t_address",
        "label": "mapping(address => uint256)",
        "numberOfBytes": "32",
        "value": "t_uint256"
      },
      "t_struct(Snapshot)2849_storage": {
        "encoding": "inplace",
        "label": "struct MYOStaking.Snapshot",
        "members": [
          {
            "astId": 2846,
            "contract": "contracts/MYO/MYOStaking.sol:MYOStaking",
            "label": "F_GEM_Snapshot",
            "offset": 0,
            "slot": "0",
            "type": "t_uint256"
          },
          {
            "astId": 2848,
            "contract": "contracts/MYO/MYOStaking.sol:MYOStaking",
            "label": "F_PAI_Snapshot",
            "offset": 0,
            "slot": "1",
            "type": "t_uint256"
          }
        ],
        "numberOfBytes": "64"
      },
      "t_uint256": {
        "encoding": "inplace",
        "label": "uint256",
        "numberOfBytes": "32"
      }
    }
  }
}