{
  "address": "0xAF361290e430a7fF5d97701841412755BBE7103C",
  "abi": [
    {
      "inputs": [
        {
          "internalType": "address",
          "name": "_communityIssuanceAddress",
          "type": "address"
        },
        {
          "internalType": "address",
          "name": "_myoStakingAddress",
          "type": "address"
        },
        {
          "internalType": "address",
          "name": "_lockupFactoryAddress",
          "type": "address"
        },
        {
          "internalType": "address",
          "name": "_bountyAddress",
          "type": "address"
        },
        {
          "internalType": "address",
          "name": "_lpRewardsAddress",
          "type": "address"
        },
        {
          "internalType": "address",
          "name": "_multisigAddress",
          "type": "address"
        }
      ],
      "stateMutability": "nonpayable",
      "type": "constructor"
    },
    {
      "anonymous": false,
      "inputs": [
        {
          "indexed": true,
          "internalType": "address",
          "name": "owner",
          "type": "address"
        },
        {
          "indexed": true,
          "internalType": "address",
          "name": "spender",
          "type": "address"
        },
        {
          "indexed": false,
          "internalType": "uint256",
          "name": "value",
          "type": "uint256"
        }
      ],
      "name": "Approval",
      "type": "event"
    },
    {
      "anonymous": false,
      "inputs": [
        {
          "indexed": false,
          "internalType": "address",
          "name": "_communityIssuanceAddress",
          "type": "address"
        }
      ],
      "name": "CommunityIssuanceAddressSet",
      "type": "event"
    },
    {
      "anonymous": false,
      "inputs": [
        {
          "indexed": false,
          "internalType": "address",
          "name": "_lockupContractFactoryAddress",
          "type": "address"
        }
      ],
      "name": "LockupContractFactoryAddressSet",
      "type": "event"
    },
    {
      "anonymous": false,
      "inputs": [
        {
          "indexed": false,
          "internalType": "address",
          "name": "_myoStakingAddress",
          "type": "address"
        }
      ],
      "name": "MYOStakingAddressSet",
      "type": "event"
    },
    {
      "anonymous": false,
      "inputs": [
        {
          "indexed": true,
          "internalType": "address",
          "name": "from",
          "type": "address"
        },
        {
          "indexed": true,
          "internalType": "address",
          "name": "to",
          "type": "address"
        },
        {
          "indexed": false,
          "internalType": "uint256",
          "name": "value",
          "type": "uint256"
        }
      ],
      "name": "Transfer",
      "type": "event"
    },
    {
      "inputs": [],
      "name": "DOMAIN_SEPARATOR",
      "outputs": [
        {
          "internalType": "bytes32",
          "name": "",
          "type": "bytes32"
        }
      ],
      "stateMutability": "view",
      "type": "function"
    },
    {
      "inputs": [],
      "name": "ONE_YEAR_IN_SECONDS",
      "outputs": [
        {
          "internalType": "uint256",
          "name": "",
          "type": "uint256"
        }
      ],
      "stateMutability": "view",
      "type": "function"
    },
    {
      "inputs": [
        {
          "internalType": "address",
          "name": "owner",
          "type": "address"
        },
        {
          "internalType": "address",
          "name": "spender",
          "type": "address"
        }
      ],
      "name": "allowance",
      "outputs": [
        {
          "internalType": "uint256",
          "name": "",
          "type": "uint256"
        }
      ],
      "stateMutability": "view",
      "type": "function"
    },
    {
      "inputs": [
        {
          "internalType": "address",
          "name": "spender",
          "type": "address"
        },
        {
          "internalType": "uint256",
          "name": "amount",
          "type": "uint256"
        }
      ],
      "name": "approve",
      "outputs": [
        {
          "internalType": "bool",
          "name": "",
          "type": "bool"
        }
      ],
      "stateMutability": "nonpayable",
      "type": "function"
    },
    {
      "inputs": [
        {
          "internalType": "address",
          "name": "account",
          "type": "address"
        }
      ],
      "name": "balanceOf",
      "outputs": [
        {
          "internalType": "uint256",
          "name": "",
          "type": "uint256"
        }
      ],
      "stateMutability": "view",
      "type": "function"
    },
    {
      "inputs": [],
      "name": "communityIssuanceAddress",
      "outputs": [
        {
          "internalType": "address",
          "name": "",
          "type": "address"
        }
      ],
      "stateMutability": "view",
      "type": "function"
    },
    {
      "inputs": [],
      "name": "decimals",
      "outputs": [
        {
          "internalType": "uint8",
          "name": "",
          "type": "uint8"
        }
      ],
      "stateMutability": "pure",
      "type": "function"
    },
    {
      "inputs": [
        {
          "internalType": "address",
          "name": "spender",
          "type": "address"
        },
        {
          "internalType": "uint256",
          "name": "subtractedValue",
          "type": "uint256"
        }
      ],
      "name": "decreaseAllowance",
      "outputs": [
        {
          "internalType": "bool",
          "name": "",
          "type": "bool"
        }
      ],
      "stateMutability": "nonpayable",
      "type": "function"
    },
    {
      "inputs": [],
      "name": "getDeploymentStartTime",
      "outputs": [
        {
          "internalType": "uint256",
          "name": "",
          "type": "uint256"
        }
      ],
      "stateMutability": "view",
      "type": "function"
    },
    {
      "inputs": [],
      "name": "getLpRewardsEntitlement",
      "outputs": [
        {
          "internalType": "uint256",
          "name": "",
          "type": "uint256"
        }
      ],
      "stateMutability": "view",
      "type": "function"
    },
    {
      "inputs": [
        {
          "internalType": "address",
          "name": "spender",
          "type": "address"
        },
        {
          "internalType": "uint256",
          "name": "addedValue",
          "type": "uint256"
        }
      ],
      "name": "increaseAllowance",
      "outputs": [
        {
          "internalType": "bool",
          "name": "",
          "type": "bool"
        }
      ],
      "stateMutability": "nonpayable",
      "type": "function"
    },
    {
      "inputs": [],
      "name": "lockupContractFactory",
      "outputs": [
        {
          "internalType": "contract ILockupContractFactory",
          "name": "",
          "type": "address"
        }
      ],
      "stateMutability": "view",
      "type": "function"
    },
    {
      "inputs": [],
      "name": "multisigAddress",
      "outputs": [
        {
          "internalType": "address",
          "name": "",
          "type": "address"
        }
      ],
      "stateMutability": "view",
      "type": "function"
    },
    {
      "inputs": [],
      "name": "myoStakingAddress",
      "outputs": [
        {
          "internalType": "address",
          "name": "",
          "type": "address"
        }
      ],
      "stateMutability": "view",
      "type": "function"
    },
    {
      "inputs": [],
      "name": "name",
      "outputs": [
        {
          "internalType": "string",
          "name": "",
          "type": "string"
        }
      ],
      "stateMutability": "pure",
      "type": "function"
    },
    {
      "inputs": [
        {
          "internalType": "address",
          "name": "owner",
          "type": "address"
        }
      ],
      "name": "nonces",
      "outputs": [
        {
          "internalType": "uint256",
          "name": "",
          "type": "uint256"
        }
      ],
      "stateMutability": "view",
      "type": "function"
    },
    {
      "inputs": [
        {
          "internalType": "address",
          "name": "owner",
          "type": "address"
        },
        {
          "internalType": "address",
          "name": "spender",
          "type": "address"
        },
        {
          "internalType": "uint256",
          "name": "amount",
          "type": "uint256"
        },
        {
          "internalType": "uint256",
          "name": "deadline",
          "type": "uint256"
        },
        {
          "internalType": "uint8",
          "name": "v",
          "type": "uint8"
        },
        {
          "internalType": "bytes32",
          "name": "r",
          "type": "bytes32"
        },
        {
          "internalType": "bytes32",
          "name": "s",
          "type": "bytes32"
        }
      ],
      "name": "permit",
      "outputs": [],
      "stateMutability": "nonpayable",
      "type": "function"
    },
    {
      "inputs": [],
      "name": "permitTypeHash",
      "outputs": [
        {
          "internalType": "bytes32",
          "name": "",
          "type": "bytes32"
        }
      ],
      "stateMutability": "pure",
      "type": "function"
    },
    {
      "inputs": [
        {
          "internalType": "address",
          "name": "_sender",
          "type": "address"
        },
        {
          "internalType": "uint256",
          "name": "_amount",
          "type": "uint256"
        }
      ],
      "name": "sendToMYOStaking",
      "outputs": [],
      "stateMutability": "nonpayable",
      "type": "function"
    },
    {
      "inputs": [],
      "name": "symbol",
      "outputs": [
        {
          "internalType": "string",
          "name": "",
          "type": "string"
        }
      ],
      "stateMutability": "pure",
      "type": "function"
    },
    {
      "inputs": [],
      "name": "totalSupply",
      "outputs": [
        {
          "internalType": "uint256",
          "name": "",
          "type": "uint256"
        }
      ],
      "stateMutability": "view",
      "type": "function"
    },
    {
      "inputs": [
        {
          "internalType": "address",
          "name": "recipient",
          "type": "address"
        },
        {
          "internalType": "uint256",
          "name": "amount",
          "type": "uint256"
        }
      ],
      "name": "transfer",
      "outputs": [
        {
          "internalType": "bool",
          "name": "",
          "type": "bool"
        }
      ],
      "stateMutability": "nonpayable",
      "type": "function"
    },
    {
      "inputs": [
        {
          "internalType": "address",
          "name": "sender",
          "type": "address"
        },
        {
          "internalType": "address",
          "name": "recipient",
          "type": "address"
        },
        {
          "internalType": "uint256",
          "name": "amount",
          "type": "uint256"
        }
      ],
      "name": "transferFrom",
      "outputs": [
        {
          "internalType": "bool",
          "name": "",
          "type": "bool"
        }
      ],
      "stateMutability": "nonpayable",
      "type": "function"
    },
    {
      "inputs": [],
      "name": "version",
      "outputs": [
        {
          "internalType": "string",
          "name": "",
          "type": "string"
        }
      ],
      "stateMutability": "pure",
      "type": "function"
    }
  ],
  "transactionHash": "0x27a8aafa50b84b35041f62bcad5368eeccd28dc7586b3efc0cc1e5052f61aea4",
  "args": [
    "0x232fEDAFAe2b8Bbcc6C350E42E33E1363C0b5299",
    "0x2E01f9711F495f22f9d9D6ed0628ea68F20028Ce",
    "0x074936eFFc0CC47fB1A22c8D4b4e68Ce2018B7b0",
    "0xCb75bE34F6887d2792f91926d6E8b83b65e702dB",
    "0x4FE2853084bFE95B93D129Cf7E2CDa1435e4C06D",
    "0xCb75bE34F6887d2792f91926d6E8b83b65e702dB"
  ],
  "numDeployments": 2,
  "solcInputHash": "8aa079dc372efa4fb72dddab2b66ad11",
  "bytecode": "0x6101c060405269d3c21bcecceda10000006004553480156200002057600080fd5b50604051620019ff380380620019ff83398101604081905262000043916200042c565b6200004e8662000231565b620000598562000231565b620000648462000231565b606081811b6001600160601b031990811661012052426101005287821b81166101405286821b81166101605285821b166101a052604080519182019052602180825260009190620019de6020830139805160209182012060408051808201825260018152603160f81b9084015260c08281527fc89efdaa54c0f20c7adf612882df0950f5a951637e0307cdcb4c672f298b8bc660e08190524660a081815284517f8b73c3c69bb8fe3d512ecc4cf759cc79239f7b179b0ffacaa9a75d522b39400f81890152808601879052606081018490526080810192909252308282015284518083039091018152920190925280519301929092209092506080526004546200016f8682620002e2565b60006200018e6028600454620003de60201b620009461790919060201c565b90506200019c8a82620002e2565b6000620001bb6002600454620003de60201b620009461790919060201c565b6101808190529050620001cf8782620002e2565b60006200021182620001fd85620001fd88620001fd6064600454620003de60201b620009461790919060201c565b620003f360201b620009591790919060201c565b90506200021f8782620002e2565b50505050505050505050505062000519565b6001600160a01b0381166200028d5760405162461bcd60e51b815260206004820152601e60248201527f4163636f756e742063616e6e6f74206265207a65726f2061646472657373000060448201526064015b60405180910390fd5b803b80620002de5760405162461bcd60e51b815260206004820181905260248201527f4163636f756e7420636f64652073697a652063616e6e6f74206265207a65726f604482015260640162000284565b5050565b6001600160a01b0382166200033a5760405162461bcd60e51b815260206004820152601f60248201527f45524332303a206d696e7420746f20746865207a65726f206164647265737300604482015260640162000284565b62000356816002546200040160201b620009651790919060201c565b6002556001600160a01b03821660009081526020818152604090912054620003899183906200096562000401821b17901c565b6001600160a01b038316600081815260208181526040808320949094559251848152919290917fddf252ad1be2c89b69c2b068fc378daa952ba7f163c4a11628f55a4df523b3ef910160405180910390a35050565b6000620003ec8284620004c7565b9392505050565b6000620003ec8284620004e9565b6000620003ec8284620004ac565b80516001600160a01b03811681146200042757600080fd5b919050565b60008060008060008060c0878903121562000445578182fd5b62000450876200040f565b955062000460602088016200040f565b945062000470604088016200040f565b935062000480606088016200040f565b925062000490608088016200040f565b9150620004a060a088016200040f565b90509295509295509295565b60008219821115620004c257620004c262000503565b500190565b6000816000190483118215151615620004e457620004e462000503565b500290565b600082821015620004fe57620004fe62000503565b500390565b634e487b7160e01b600052601160045260246000fd5b60805160a05160c05160e051610100516101205160601c6101405160601c6101605160601c610180516101a05160601c611405620005d9600039600081816102fd0152610f830152600061034001526000818161029a0152818161091d01528181610cbf015261108a0152600081816103a40152610c8201526000818161023e01528181610b380152610f40015260008181610215015261097e0152600061059801526000610573015260006104f50152600061051e01526114056000f3fe608060405234801561001057600080fd5b50600436106101585760003560e01c806370a08231116100c3578063a9059cbb1161007c578063a9059cbb14610377578063d505accf1461038a578063d874ea741461039f578063dd62ed3e146103c6578063dea99810146103ff578063e7c8fed41461041257610158565b806370a08231146102bc5780637ecebe00146102cf578063811c5b4d146102f857806395d89b411461031f578063974f55901461033e578063a457c2d71461036457610158565b80633644e515116101155780633644e515146101f857806339509351146102005780633c84b7c2146102135780635462870d1461023957806354fd4d5014610278578063628ac7b21461029557610158565b806306fdde031461015d578063095ea7b31461017b57806310ce43bd1461019e57806318160ddd146101ce57806323b872dd146101d6578063313ce567146101e9575b600080fd5b61016561041d565b6040516101729190611269565b60405180910390f35b61018e610189366004611220565b61043e565b6040519015158152602001610172565b7f6e71edae12b1b97f4d1f60370fef10105fa2faae0126114a169c64845d6126c95b604051908152602001610172565b6002546101c0565b61018e6101e4366004611174565b610469565b60405160128152602001610172565b6101c06104f1565b61018e61020e366004611220565b6105e8565b7f00000000000000000000000000000000000000000000000000000000000000006101c0565b6102607f000000000000000000000000000000000000000000000000000000000000000081565b6040516001600160a01b039091168152602001610172565b6040805180820190915260018152603160f81b6020820152610165565b6102607f000000000000000000000000000000000000000000000000000000000000000081565b6101c06102ca366004611128565b610634565b6101c06102dd366004611128565b6001600160a01b031660009081526003602052604090205490565b6102607f000000000000000000000000000000000000000000000000000000000000000081565b6040805180820190915260038152624d594f60e81b6020820152610165565b7f00000000000000000000000000000000000000000000000000000000000000006101c0565b61018e610372366004611220565b610653565b61018e610385366004611220565b6106b7565b61039d6103983660046111af565b6106f2565b005b6102607f000000000000000000000000000000000000000000000000000000000000000081565b6101c06103d4366004611142565b6001600160a01b03918216600090815260016020908152604080832093909416825291909152205490565b61039d61040d366004611220565b6108f9565b6101c06301e1338081565b60606040518060600160405280602181526020016113626021913990505b90565b6000610448610971565b15610455576104556109a8565b610460338484610a11565b50600192915050565b6000610473610971565b156104815761048184610b36565b61048a83610bcd565b610495848484610d86565b6104e784336104e285604051806060016040528060288152602001611383602891396001600160a01b038a1660009081526001602090815260408083203384529091529020549190610f09565b610a11565b5060019392505050565b60007f000000000000000000000000000000000000000000000000000000000000000046141561054257507f000000000000000000000000000000000000000000000000000000000000000061043b565b50604080517f8b73c3c69bb8fe3d512ecc4cf759cc79239f7b179b0ffacaa9a75d522b39400f6020808301919091527f0000000000000000000000000000000000000000000000000000000000000000828401527f000000000000000000000000000000000000000000000000000000000000000060608301524660808301523060a0808401919091528351808403909101815260c0909201909252805191012061043b565b60006105f2610971565b156105ff576105ff6109a8565b3360008181526001602090815260408083206001600160a01b0388168452909152902054610460919085906104e29086610965565b6001600160a01b0381166000908152602081905260409020545b919050565b600061065d610971565b1561066a5761066a6109a8565b61046033846104e2856040518060600160405280602581526020016113ab602591393360009081526001602090815260408083206001600160a01b038d1684529091529020549190610f09565b60006106c1610f35565b80156106d057506106d0610971565b156106de576106de83610f64565b6106e783610bcd565b610460338484610d86565b428410156107405760405162461bcd60e51b81526020600482015260166024820152754c5154593a206578706972656420646561646c696e6560501b60448201526064015b60405180910390fd5b600061074a6104f1565b6001600160a01b038916600090815260036020526040812080547f6e71edae12b1b97f4d1f60370fef10105fa2faae0126114a169c64845d6126c9928c928c928c929091906107988361130a565b909155506040805160208101969096526001600160a01b0394851690860152929091166060840152608083015260a082015260c0810187905260e0016040516020818303038152906040528051906020012060405160200161081192919061190160f01b81526002810192909252602282015260420190565b60408051601f198184030181528282528051602091820120600080855291840180845281905260ff88169284019290925260608301869052608083018590529092509060019060a0016020604051602081039080840390855afa15801561087c573d6000803e3d6000fd5b505050602060405103519050886001600160a01b0316816001600160a01b0316146108e35760405162461bcd60e51b81526020600482015260176024820152764c5154593a20696e76616c6964207369676e617475726560481b6044820152606401610737565b6108ee898989610a11565b505050505050505050565b61090161107f565b610909610971565b156109175761091782610b36565b610942827f000000000000000000000000000000000000000000000000000000000000000083610d86565b5050565b600061095282846112d4565b9392505050565b600061095282846112f3565b600061095282846112bc565b60006301e133806109a2427f0000000000000000000000000000000000000000000000000000000000000000610959565b10905090565b6109b0610f35565b15610a0f5760405162461bcd60e51b815260206004820152602960248201527f4d594f546f6b656e3a2063616c6c6572206d757374206e6f7420626520746865604482015268206d756c746973696760b81b6064820152608401610737565b565b6001600160a01b038316610a735760405162461bcd60e51b8152602060048201526024808201527f45524332303a20617070726f76652066726f6d20746865207a65726f206164646044820152637265737360e01b6064820152608401610737565b6001600160a01b038216610ad45760405162461bcd60e51b815260206004820152602260248201527f45524332303a20617070726f766520746f20746865207a65726f206164647265604482015261737360f01b6064820152608401610737565b6001600160a01b0383811660008181526001602090815260408083209487168084529482529182902085905590518481527f8c5be1e5ebec7d5bd14f71427d1e84f3dd0314c0f7b2291e5b200ac8c7c3b92591015b60405180910390a3505050565b7f00000000000000000000000000000000000000000000000000000000000000006001600160a01b0316816001600160a01b03161415610bca5760405162461bcd60e51b815260206004820152602960248201527f4d594f546f6b656e3a2073656e646572206d757374206e6f7420626520746865604482015268206d756c746973696760b81b6064820152608401610737565b50565b6001600160a01b03811615801590610bee57506001600160a01b0381163014155b610c805760405162461bcd60e51b815260206004820152605760248201527f4d594f546f6b656e3a2043616e6e6f74207472616e7366657220746f6b656e7360448201527f206469726563746c7920746f20746865204d594f20746f6b656e20636f6e7472606482015276616374206f7220746865207a65726f206164647265737360481b608482015260a401610737565b7f00000000000000000000000000000000000000000000000000000000000000006001600160a01b0316816001600160a01b031614158015610cf457507f00000000000000000000000000000000000000000000000000000000000000006001600160a01b0316816001600160a01b031614155b610bca5760405162461bcd60e51b815260206004820152605760248201527f4d594f546f6b656e3a2043616e6e6f74207472616e7366657220746f6b656e7360448201527f206469726563746c7920746f2074686520636f6d6d756e6974792069737375616064820152761b98d9481bdc881cdd185ada5b99c818dbdb9d1c9858dd604a1b608482015260a401610737565b6001600160a01b038316610dea5760405162461bcd60e51b815260206004820152602560248201527f45524332303a207472616e736665722066726f6d20746865207a65726f206164604482015264647265737360d81b6064820152608401610737565b6001600160a01b038216610e4c5760405162461bcd60e51b815260206004820152602360248201527f45524332303a207472616e7366657220746f20746865207a65726f206164647260448201526265737360e81b6064820152608401610737565b610e898160405180606001604052806026815260200161133c602691396001600160a01b0386166000908152602081905260409020549190610f09565b6001600160a01b038085166000908152602081905260408082209390935590841681522054610eb89082610965565b6001600160a01b038381166000818152602081815260409182902094909455518481529092918616917fddf252ad1be2c89b69c2b068fc378daa952ba7f163c4a11628f55a4df523b3ef9101610b29565b60008184841115610f2d5760405162461bcd60e51b81526004016107379190611269565b505050900390565b336001600160a01b037f0000000000000000000000000000000000000000000000000000000000000000161490565b60405163bb7603f160e01b81526001600160a01b0382811660048301527f0000000000000000000000000000000000000000000000000000000000000000169063bb7603f19060240160206040518083038186803b158015610fc557600080fd5b505afa158015610fd9573d6000803e3d6000fd5b505050506040513d601f19601f82011682018060405250810190610ffd9190611249565b610bca5760405162461bcd60e51b815260206004820152604760248201527f4c515459546f6b656e3a20726563697069656e74206d7573742062652061204c60448201527f6f636b7570436f6e7472616374207265676973746572656420696e2074686520606482015266466163746f727960c81b608482015260a401610737565b336001600160a01b037f00000000000000000000000000000000000000000000000000000000000000001614610a0f5760405162461bcd60e51b815260206004820152603160248201527f4d594f546f6b656e3a2063616c6c6572206d75737420626520746865204c51546044820152701654dd185ada5b99c818dbdb9d1c9858dd607a1b6064820152608401610737565b80356001600160a01b038116811461064e57600080fd5b600060208284031215611139578081fd5b61095282611111565b60008060408385031215611154578081fd5b61115d83611111565b915061116b60208401611111565b90509250929050565b600080600060608486031215611188578081fd5b61119184611111565b925061119f60208501611111565b9150604084013590509250925092565b600080600080600080600060e0888a0312156111c9578283fd5b6111d288611111565b96506111e060208901611111565b95506040880135945060608801359350608088013560ff81168114611203578384fd5b9699959850939692959460a0840135945060c09093013592915050565b60008060408385031215611232578182fd5b61123b83611111565b946020939093013593505050565b60006020828403121561125a578081fd5b81518015158114610952578182fd5b6000602080835283518082850152825b8181101561129557858101830151858201604001528201611279565b818111156112a65783604083870101525b50601f01601f1916929092016040019392505050565b600082198211156112cf576112cf611325565b500190565b60008160001904831182151516156112ee576112ee611325565b500290565b60008282101561130557611305611325565b500390565b600060001982141561131e5761131e611325565b5060010190565b634e487b7160e01b600052601160045260246000fdfe45524332303a207472616e7366657220616d6f756e7420657863656564732062616c616e63654d594f3a205365636f6e64617279205041492050726f746f636f6c20546f6b656e45524332303a207472616e7366657220616d6f756e74206578636565647320616c6c6f77616e636545524332303a2064656372656173656420616c6c6f77616e63652062656c6f77207a65726fa26469706673582212204066f6eaaf0dc4268ff8efe293890f60a0bea7934c38267831bb8750b76e840064736f6c634300080300334d594f3a205365636f6e64617279205041492050726f746f636f6c20546f6b656e",
  "devdoc": {
    "kind": "dev",
    "methods": {
      "DOMAIN_SEPARATOR()": {
        "details": "Returns the domain separator used in the encoding of the signature for {permit}, as defined by {EIP712}."
      },
      "allowance(address,address)": {
        "details": "Returns the remaining number of tokens that `spender` will be allowed to spend on behalf of `owner` through {transferFrom}. This is zero by default. This value changes when {approve} or {transferFrom} are called."
      },
      "approve(address,uint256)": {
        "details": "Sets `amount` as the allowance of `spender` over the caller's tokens. Returns a boolean value indicating whether the operation succeeded. IMPORTANT: Beware that changing an allowance with this method brings the risk that someone may use both the old and the new allowance by unfortunate transaction ordering. One possible solution to mitigate this race condition is to first reduce the spender's allowance to 0 and set the desired value afterwards: https://github.com/ethereum/EIPs/issues/20#issuecomment-263524729 Emits an {Approval} event."
      },
      "balanceOf(address)": {
        "details": "Returns the amount of tokens owned by `account`."
      },
      "decimals()": {
        "details": "Returns the decimals places of the token."
      },
      "name()": {
        "details": "Returns the name of the token."
      },
      "nonces(address)": {
        "details": "Returns the current nonce for `owner`. This value must be included whenever a signature is generated for {permit}. Every successful call to {permit} increases ``owner``'s nonce by one. This prevents a signature from being used multiple times."
      },
      "symbol()": {
        "details": "Returns the symbol of the token."
      },
      "totalSupply()": {
        "details": "Returns the amount of tokens in existence."
      },
      "transfer(address,uint256)": {
        "details": "Moves `amount` tokens from the caller's account to `recipient`. Returns a boolean value indicating whether the operation succeeded. Emits a {Transfer} event."
      },
      "transferFrom(address,address,uint256)": {
        "details": "Moves `amount` tokens from `sender` to `recipient` using the allowance mechanism. `amount` is then deducted from the caller's allowance. Returns a boolean value indicating whether the operation succeeded. Emits a {Transfer} event."
      }
    },
    "version": 1
  },
  "userdoc": {
    "kind": "user",
    "methods": {},
    "version": 1
  },
  "storageLayout": {
    "storage": [
      {
        "astId": 3485,
        "contract": "contracts/MYO/MYOToken.sol:MYOToken",
        "label": "_balances",
        "offset": 0,
        "slot": "0",
        "type": "t_mapping(t_address,t_uint256)"
      },
      {
        "astId": 3491,
        "contract": "contracts/MYO/MYOToken.sol:MYOToken",
        "label": "_allowances",
        "offset": 0,
        "slot": "1",
        "type": "t_mapping(t_address,t_mapping(t_address,t_uint256))"
      },
      {
        "astId": 3493,
        "contract": "contracts/MYO/MYOToken.sol:MYOToken",
        "label": "_totalSupply",
        "offset": 0,
        "slot": "2",
        "type": "t_uint256"
      },
      {
        "astId": 3511,
        "contract": "contracts/MYO/MYOToken.sol:MYOToken",
        "label": "_nonces",
        "offset": 0,
        "slot": "3",
        "type": "t_mapping(t_address,t_uint256)"
      },
      {
        "astId": 3517,
        "contract": "contracts/MYO/MYOToken.sol:MYOToken",
        "label": "_1_MILLION",
        "offset": 0,
        "slot": "4",
        "type": "t_uint256"
      }
    ],
    "types": {
      "t_address": {
        "encoding": "inplace",
        "label": "address",
        "numberOfBytes": "20"
      },
      "t_mapping(t_address,t_mapping(t_address,t_uint256))": {
        "encoding": "mapping",
        "key": "t_address",
        "label": "mapping(address => mapping(address => uint256))",
        "numberOfBytes": "32",
        "value": "t_mapping(t_address,t_uint256)"
      },
      "t_mapping(t_address,t_uint256)": {
        "encoding": "mapping",
        "key": "t_address",
        "label": "mapping(address => uint256)",
        "numberOfBytes": "32",
        "value": "t_uint256"
      },
      "t_uint256": {
        "encoding": "inplace",
        "label": "uint256",
        "numberOfBytes": "32"
      }
    }
  }
}