{
  "address": "0x6e2EF2250877690D1Dd2EeF8167202854FfD8BdE",
  "abi": [
    {
      "inputs": [
        {
          "internalType": "address",
          "name": "_borrowerOperations",
          "type": "address"
        },
        {
          "internalType": "address",
          "name": "_vault",
          "type": "address"
        }
      ],
      "stateMutability": "nonpayable",
      "type": "constructor"
    },
    {
      "anonymous": false,
      "inputs": [
        {
          "indexed": true,
          "internalType": "address",
          "name": "owner",
          "type": "address"
        },
        {
          "indexed": true,
          "internalType": "address",
          "name": "spender",
          "type": "address"
        },
        {
          "indexed": false,
          "internalType": "uint256",
          "name": "value",
          "type": "uint256"
        }
      ],
      "name": "Approval",
      "type": "event"
    },
    {
      "anonymous": false,
      "inputs": [
        {
          "indexed": false,
          "internalType": "address",
          "name": "_user",
          "type": "address"
        },
        {
          "indexed": false,
          "internalType": "uint256",
          "name": "_amount",
          "type": "uint256"
        }
      ],
      "name": "PAITokenBalanceUpdated",
      "type": "event"
    },
    {
      "anonymous": false,
      "inputs": [
        {
          "indexed": true,
          "internalType": "address",
          "name": "from",
          "type": "address"
        },
        {
          "indexed": true,
          "internalType": "address",
          "name": "to",
          "type": "address"
        },
        {
          "indexed": false,
          "internalType": "uint256",
          "name": "value",
          "type": "uint256"
        }
      ],
      "name": "Transfer",
      "type": "event"
    },
    {
      "inputs": [],
      "name": "DOMAIN_SEPARATOR",
      "outputs": [
        {
          "internalType": "bytes32",
          "name": "",
          "type": "bytes32"
        }
      ],
      "stateMutability": "view",
      "type": "function"
    },
    {
      "inputs": [
        {
          "internalType": "address",
          "name": "owner",
          "type": "address"
        },
        {
          "internalType": "address",
          "name": "spender",
          "type": "address"
        }
      ],
      "name": "allowance",
      "outputs": [
        {
          "internalType": "uint256",
          "name": "",
          "type": "uint256"
        }
      ],
      "stateMutability": "view",
      "type": "function"
    },
    {
      "inputs": [
        {
          "internalType": "address",
          "name": "spender",
          "type": "address"
        },
        {
          "internalType": "uint256",
          "name": "amount",
          "type": "uint256"
        }
      ],
      "name": "approve",
      "outputs": [
        {
          "internalType": "bool",
          "name": "",
          "type": "bool"
        }
      ],
      "stateMutability": "nonpayable",
      "type": "function"
    },
    {
      "inputs": [
        {
          "internalType": "address",
          "name": "account",
          "type": "address"
        }
      ],
      "name": "balanceOf",
      "outputs": [
        {
          "internalType": "uint256",
          "name": "",
          "type": "uint256"
        }
      ],
      "stateMutability": "view",
      "type": "function"
    },
    {
      "inputs": [
        {
          "internalType": "address",
          "name": "_account",
          "type": "address"
        },
        {
          "internalType": "uint256",
          "name": "_amount",
          "type": "uint256"
        }
      ],
      "name": "burn",
      "outputs": [],
      "stateMutability": "nonpayable",
      "type": "function"
    },
    {
      "inputs": [],
      "name": "decimals",
      "outputs": [
        {
          "internalType": "uint8",
          "name": "",
          "type": "uint8"
        }
      ],
      "stateMutability": "pure",
      "type": "function"
    },
    {
      "inputs": [
        {
          "internalType": "address",
          "name": "spender",
          "type": "address"
        },
        {
          "internalType": "uint256",
          "name": "subtractedValue",
          "type": "uint256"
        }
      ],
      "name": "decreaseAllowance",
      "outputs": [
        {
          "internalType": "bool",
          "name": "",
          "type": "bool"
        }
      ],
      "stateMutability": "nonpayable",
      "type": "function"
    },
    {
      "inputs": [
        {
          "internalType": "address",
          "name": "spender",
          "type": "address"
        },
        {
          "internalType": "uint256",
          "name": "addedValue",
          "type": "uint256"
        }
      ],
      "name": "increaseAllowance",
      "outputs": [
        {
          "internalType": "bool",
          "name": "",
          "type": "bool"
        }
      ],
      "stateMutability": "nonpayable",
      "type": "function"
    },
    {
      "inputs": [
        {
          "internalType": "address",
          "name": "_account",
          "type": "address"
        },
        {
          "internalType": "uint256",
          "name": "_amount",
          "type": "uint256"
        }
      ],
      "name": "mint",
      "outputs": [],
      "stateMutability": "nonpayable",
      "type": "function"
    },
    {
      "inputs": [],
      "name": "name",
      "outputs": [
        {
          "internalType": "string",
          "name": "",
          "type": "string"
        }
      ],
      "stateMutability": "pure",
      "type": "function"
    },
    {
      "inputs": [
        {
          "internalType": "address",
          "name": "owner",
          "type": "address"
        }
      ],
      "name": "nonces",
      "outputs": [
        {
          "internalType": "uint256",
          "name": "",
          "type": "uint256"
        }
      ],
      "stateMutability": "view",
      "type": "function"
    },
    {
      "inputs": [
        {
          "internalType": "address",
          "name": "owner",
          "type": "address"
        },
        {
          "internalType": "address",
          "name": "spender",
          "type": "address"
        },
        {
          "internalType": "uint256",
          "name": "amount",
          "type": "uint256"
        },
        {
          "internalType": "uint256",
          "name": "deadline",
          "type": "uint256"
        },
        {
          "internalType": "uint8",
          "name": "v",
          "type": "uint8"
        },
        {
          "internalType": "bytes32",
          "name": "r",
          "type": "bytes32"
        },
        {
          "internalType": "bytes32",
          "name": "s",
          "type": "bytes32"
        }
      ],
      "name": "permit",
      "outputs": [],
      "stateMutability": "nonpayable",
      "type": "function"
    },
    {
      "inputs": [],
      "name": "permitTypeHash",
      "outputs": [
        {
          "internalType": "bytes32",
          "name": "",
          "type": "bytes32"
        }
      ],
      "stateMutability": "pure",
      "type": "function"
    },
    {
      "inputs": [],
      "name": "symbol",
      "outputs": [
        {
          "internalType": "string",
          "name": "",
          "type": "string"
        }
      ],
      "stateMutability": "pure",
      "type": "function"
    },
    {
      "inputs": [],
      "name": "totalSupply",
      "outputs": [
        {
          "internalType": "uint256",
          "name": "",
          "type": "uint256"
        }
      ],
      "stateMutability": "view",
      "type": "function"
    },
    {
      "inputs": [
        {
          "internalType": "address",
          "name": "recipient",
          "type": "address"
        },
        {
          "internalType": "uint256",
          "name": "amount",
          "type": "uint256"
        }
      ],
      "name": "transfer",
      "outputs": [
        {
          "internalType": "bool",
          "name": "",
          "type": "bool"
        }
      ],
      "stateMutability": "nonpayable",
      "type": "function"
    },
    {
      "inputs": [
        {
          "internalType": "address",
          "name": "sender",
          "type": "address"
        },
        {
          "internalType": "address",
          "name": "recipient",
          "type": "address"
        },
        {
          "internalType": "uint256",
          "name": "amount",
          "type": "uint256"
        }
      ],
      "name": "transferFrom",
      "outputs": [
        {
          "internalType": "bool",
          "name": "",
          "type": "bool"
        }
      ],
      "stateMutability": "nonpayable",
      "type": "function"
    },
    {
      "inputs": [],
      "name": "version",
      "outputs": [
        {
          "internalType": "string",
          "name": "",
          "type": "string"
        }
      ],
      "stateMutability": "pure",
      "type": "function"
    }
  ],
  "transactionHash": "0x79b59b6ddfeae89432d7c89c4c4fa502ebf5671a842440a02381f914af63255a",
  "args": [
    "0xeA7925865556a7DD7ba3a48eACe1A90C6F5c3a98",
    "0x894A3A191C5ae1498b873a5260A800fBe1D37610"
  ],
  "numDeployments": 2,
  "solcInputHash": "8aa079dc372efa4fb72dddab2b66ad11",
  "bytecode": "0x6101406040523480156200001257600080fd5b506040516200126338038062001263833981016040819052620000359162000241565b620000408262000173565b6200004b8162000173565b6001600160601b0319606083811b82166101005282901b1661012052604080518082018252601381527f5041493a2041525320537461626c65636f696e00000000000000000000000000602091820152815180830190925260018252603160f81b9101527f19c98c5df06b98e9e68894c7120f8fa14b40c9d8ad11f510c04b1409fdfdab9660c08190527fc89efdaa54c0f20c7adf612882df0950f5a951637e0307cdcb4c672f298b8bc660e0819052620001034690565b60a0908152604080517f8b73c3c69bb8fe3d512ecc4cf759cc79239f7b179b0ffacaa9a75d522b39400f6020808301919091528183018690526060820185905246608083015230828501528251808303909401845260c09091019091528151910120608052506200027892505050565b6001600160a01b038116620001cf5760405162461bcd60e51b815260206004820152601e60248201527f4163636f756e742063616e6e6f74206265207a65726f2061646472657373000060448201526064015b60405180910390fd5b803b80620002205760405162461bcd60e51b815260206004820181905260248201527f4163636f756e7420636f64652073697a652063616e6e6f74206265207a65726f6044820152606401620001c6565b5050565b80516001600160a01b03811681146200023c57600080fd5b919050565b6000806040838503121562000254578182fd5b6200025f8362000224565b91506200026f6020840162000224565b90509250929050565b60805160a05160c05160e0516101005160601c6101205160601c610f87620002dc6000396000818161082b0152610b58015260008181610a3b0152610b2601526000610420015260006103fb0152600061037d015260006103a60152610f876000f3fe608060405234801561001057600080fd5b50600436106100f65760003560e01c806354fd4d501161009257806354fd4d50146101c657806370a08231146101e35780637ecebe00146101f657806395d89b411461021f5780639dc29fac1461023e578063a457c2d714610251578063a9059cbb14610264578063d505accf14610277578063dd62ed3e1461028a576100f6565b806306fdde03146100fb578063095ea7b31461011957806310ce43bd1461013c57806318160ddd1461016c57806323b872dd14610174578063313ce567146101875780633644e51514610196578063395093511461019e57806340c10f19146101b1575b600080fd5b6101036102c3565b6040516101109190610d90565b60405180910390f35b61012c610127366004610d67565b6102f1565b6040519015158152602001610110565b7f6e71edae12b1b97f4d1f60370fef10105fa2faae0126114a169c64845d6126c95b604051908152602001610110565b60005461015e565b61012c610182366004610cbb565b610307565b60405160128152602001610110565b61015e610379565b61012c6101ac366004610d67565b610470565b6101c46101bf366004610d67565b6104a6565b005b6040805180820190915260018152603160f81b6020820152610103565b61015e6101f1366004610c6f565b6104bc565b61015e610204366004610c6f565b6001600160a01b031660009081526001602052604090205490565b60408051808201909152600381526250414960e81b6020820152610103565b6101c461024c366004610d67565b6104db565b61012c61025f366004610d67565b6104ed565b61012c610272366004610d67565b61053c565b6101c4610285366004610cf6565b610552565b61015e610298366004610c89565b6001600160a01b03918216600090815260036020908152604080832093909416825291909152205490565b6040805180820190915260138152722820a49d1020a9299029ba30b13632b1b7b4b760691b60208201525b90565b60006102fe338484610757565b50600192915050565b600061031283610801565b61031d8484846108fb565b61036f843361036a85604051806060016040528060288152602001610ee5602891396001600160a01b038a16600090815260036020908152604080832033845290915290205491906109f1565b610757565b5060019392505050565b60007f00000000000000000000000000000000000000000000000000000000000000004614156103ca57507f00000000000000000000000000000000000000000000000000000000000000006102ee565b50604080517f8b73c3c69bb8fe3d512ecc4cf759cc79239f7b179b0ffacaa9a75d522b39400f6020808301919091527f0000000000000000000000000000000000000000000000000000000000000000828401527f000000000000000000000000000000000000000000000000000000000000000060608301524660808301523060a0808401919091528351808403909101815260c090920190925280519101206102ee565b3360008181526003602090815260408083206001600160a01b038716845290915281205490916102fe91859061036a9086610a1d565b6104ae610a30565b6104b88282610a7a565b5050565b6001600160a01b0381166000908152600260205260409020545b919050565b6104e3610b1b565b6104b88282610b96565b60006102fe338461036a85604051806060016040528060258152602001610f2d602591393360009081526003602090815260408083206001600160a01b038d16845290915290205491906109f1565b600061054783610801565b6102fe3384846108fb565b4284101561059f5760405162461bcd60e51b81526020600482015260156024820152745041493a206578706972656420646561646c696e6560581b60448201526064015b60405180910390fd5b60006105a9610379565b6001600160a01b038916600090815260016020526040812080547f6e71edae12b1b97f4d1f60370fef10105fa2faae0126114a169c64845d6126c9928c928c928c929091906105f783610e6b565b909155506040805160208101969096526001600160a01b0394851690860152929091166060840152608083015260a082015260c0810187905260e0016040516020818303038152906040528051906020012060405160200161067092919061190160f01b81526002810192909252602282015260420190565b60408051601f198184030181528282528051602091820120600080855291840180845281905260ff88169284019290925260608301869052608083018590529092509060019060a0016020604051602081039080840390855afa1580156106db573d6000803e3d6000fd5b505050602060405103519050886001600160a01b0316816001600160a01b0316146107415760405162461bcd60e51b81526020600482015260166024820152755041493a20696e76616c6964207369676e617475726560501b6044820152606401610596565b61074c898989610757565b505050505050505050565b6001600160a01b03831661077b57634e487b7160e01b600052600160045260246000fd5b6001600160a01b03821661079f57634e487b7160e01b600052600160045260246000fd5b6001600160a01b0383811660008181526003602090815260408083209487168084529482529182902085905590518481527f8c5be1e5ebec7d5bd14f71427d1e84f3dd0314c0f7b2291e5b200ac8c7c3b92591015b60405180910390a3505050565b6001600160a01b0381161580159061082257506001600160a01b0381163014155b801561086057507f00000000000000000000000000000000000000000000000000000000000000006001600160a01b0316816001600160a01b031614155b6108f85760405162461bcd60e51b815260206004820152605e60248201527f5041493a2043616e6e6f74207472616e7366657220746f6b656e73206469726560448201527f63746c7920746f207468652050414920746f6b656e20636f6e74726163742c2060648201527f746865207661756c742c206f7220746865207a65726f20616464726573730000608482015260a401610596565b50565b6001600160a01b03831661091f57634e487b7160e01b600052600160045260246000fd5b6001600160a01b03821661094357634e487b7160e01b600052600160045260246000fd5b61098081604051806060016040528060268152602001610ebf602691396001600160a01b03861660009081526002602052604090205491906109f1565b6001600160a01b0380851660009081526002602052604080822093909355908416815220546109af9082610a1d565b6001600160a01b038084166000818152600260205260409081902093909355915190851690600080516020610f0d833981519152906107f49085815260200190565b60008184841115610a155760405162461bcd60e51b81526004016105969190610d90565b505050900390565b6000610a298284610e3c565b9392505050565b336001600160a01b037f00000000000000000000000000000000000000000000000000000000000000001614610a785760405162461bcd60e51b815260040161059690610de3565b565b6001600160a01b038216610a9e57634e487b7160e01b600052600160045260246000fd5b600054610aab9082610a1d565b60009081556001600160a01b038316815260026020526040902054610ad09082610a1d565b6001600160a01b038316600081815260026020526040808220939093559151909190600080516020610f0d83398151915290610b0f9085815260200190565b60405180910390a35050565b336001600160a01b037f0000000000000000000000000000000000000000000000000000000000000000161480610b7a5750336001600160a01b037f000000000000000000000000000000000000000000000000000000000000000016145b610a785760405162461bcd60e51b815260040161059690610de3565b6001600160a01b038216610bba57634e487b7160e01b600052600160045260246000fd5b610bf781604051806060016040528060228152602001610e9d602291396001600160a01b03851660009081526002602052604090205491906109f1565b6001600160a01b03831660009081526002602052604081209190915554610c1e9082610c4c565b60009081556040518281526001600160a01b03841690600080516020610f0d83398151915290602001610b0f565b6000610a298284610e54565b80356001600160a01b03811681146104d657600080fd5b600060208284031215610c80578081fd5b610a2982610c58565b60008060408385031215610c9b578081fd5b610ca483610c58565b9150610cb260208401610c58565b90509250929050565b600080600060608486031215610ccf578081fd5b610cd884610c58565b9250610ce660208501610c58565b9150604084013590509250925092565b600080600080600080600060e0888a031215610d10578283fd5b610d1988610c58565b9650610d2760208901610c58565b95506040880135945060608801359350608088013560ff81168114610d4a578384fd5b9699959850939692959460a0840135945060c09093013592915050565b60008060408385031215610d79578182fd5b610d8283610c58565b946020939093013593505050565b6000602080835283518082850152825b81811015610dbc57858101830151858201604001528201610da0565b81811115610dcd5783604083870101525b50601f01601f1916929092016040019392505050565b60208082526039908201527f504149546f6b656e3a20556e617574686f72697a65642c2063616c6c6572206d60408201527875737420626520426f72726f7765724f7065726174696f6e7360381b606082015260800190565b60008219821115610e4f57610e4f610e86565b500190565b600082821015610e6657610e66610e86565b500390565b6000600019821415610e7f57610e7f610e86565b5060010190565b634e487b7160e01b600052601160045260246000fdfe45524332303a206275726e20616d6f756e7420657863656564732062616c616e636545524332303a207472616e7366657220616d6f756e7420657863656564732062616c616e636545524332303a207472616e7366657220616d6f756e74206578636565647320616c6c6f77616e6365ddf252ad1be2c89b69c2b068fc378daa952ba7f163c4a11628f55a4df523b3ef45524332303a2064656372656173656420616c6c6f77616e63652062656c6f77207a65726fa2646970667358221220369f9283414ac36dab67acecbf144f29f9abf0dd52624fb2f9e926b0c909e1fc64736f6c63430008030033",
  "devdoc": {
    "kind": "dev",
    "methods": {
      "DOMAIN_SEPARATOR()": {
        "details": "Returns the domain separator used in the encoding of the signature for {permit}, as defined by {EIP712}."
      },
      "allowance(address,address)": {
        "details": "Returns the remaining number of tokens that `spender` will be allowed to spend on behalf of `owner` through {transferFrom}. This is zero by default. This value changes when {approve} or {transferFrom} are called."
      },
      "approve(address,uint256)": {
        "details": "Sets `amount` as the allowance of `spender` over the caller's tokens. Returns a boolean value indicating whether the operation succeeded. IMPORTANT: Beware that changing an allowance with this method brings the risk that someone may use both the old and the new allowance by unfortunate transaction ordering. One possible solution to mitigate this race condition is to first reduce the spender's allowance to 0 and set the desired value afterwards: https://github.com/ethereum/EIPs/issues/20#issuecomment-263524729 Emits an {Approval} event."
      },
      "balanceOf(address)": {
        "details": "Returns the amount of tokens owned by `account`."
      },
      "decimals()": {
        "details": "Returns the decimals places of the token."
      },
      "name()": {
        "details": "Returns the name of the token."
      },
      "nonces(address)": {
        "details": "Returns the current nonce for `owner`. This value must be included whenever a signature is generated for {permit}. Every successful call to {permit} increases ``owner``'s nonce by one. This prevents a signature from being used multiple times."
      },
      "symbol()": {
        "details": "Returns the symbol of the token."
      },
      "totalSupply()": {
        "details": "Returns the amount of tokens in existence."
      },
      "transfer(address,uint256)": {
        "details": "Moves `amount` tokens from the caller's account to `recipient`. Returns a boolean value indicating whether the operation succeeded. Emits a {Transfer} event."
      },
      "transferFrom(address,address,uint256)": {
        "details": "Moves `amount` tokens from `sender` to `recipient` using the allowance mechanism. `amount` is then deducted from the caller's allowance. Returns a boolean value indicating whether the operation succeeded. Emits a {Transfer} event."
      }
    },
    "version": 1
  },
  "userdoc": {
    "kind": "user",
    "methods": {},
    "version": 1
  },
  "storageLayout": {
    "storage": [
      {
        "astId": 8353,
        "contract": "contracts/core/PAIToken.sol:PAIToken",
        "label": "_totalSupply",
        "offset": 0,
        "slot": "0",
        "type": "t_uint256"
      },
      {
        "astId": 8383,
        "contract": "contracts/core/PAIToken.sol:PAIToken",
        "label": "_nonces",
        "offset": 0,
        "slot": "1",
        "type": "t_mapping(t_address,t_uint256)"
      },
      {
        "astId": 8387,
        "contract": "contracts/core/PAIToken.sol:PAIToken",
        "label": "_balances",
        "offset": 0,
        "slot": "2",
        "type": "t_mapping(t_address,t_uint256)"
      },
      {
        "astId": 8393,
        "contract": "contracts/core/PAIToken.sol:PAIToken",
        "label": "_allowances",
        "offset": 0,
        "slot": "3",
        "type": "t_mapping(t_address,t_mapping(t_address,t_uint256))"
      }
    ],
    "types": {
      "t_address": {
        "encoding": "inplace",
        "label": "address",
        "numberOfBytes": "20"
      },
      "t_mapping(t_address,t_mapping(t_address,t_uint256))": {
        "encoding": "mapping",
        "key": "t_address",
        "label": "mapping(address => mapping(address => uint256))",
        "numberOfBytes": "32",
        "value": "t_mapping(t_address,t_uint256)"
      },
      "t_mapping(t_address,t_uint256)": {
        "encoding": "mapping",
        "key": "t_address",
        "label": "mapping(address => uint256)",
        "numberOfBytes": "32",
        "value": "t_uint256"
      },
      "t_uint256": {
        "encoding": "inplace",
        "label": "uint256",
        "numberOfBytes": "32"
      }
    }
  }
}