{
  "address": "0x03f2aff7B87dEd4301c382D6dF4cb59131a47cd2",
  "abi": [
    {
      "anonymous": false,
      "inputs": [
        {
          "indexed": false,
          "internalType": "address",
          "name": "_borrowerOperationsAddress",
          "type": "address"
        }
      ],
      "name": "BorrowerOperationsAddressChanged",
      "type": "event"
    },
    {
      "anonymous": false,
      "inputs": [
        {
          "indexed": false,
          "internalType": "address",
          "name": "_id",
          "type": "address"
        },
        {
          "indexed": false,
          "internalType": "uint256",
          "name": "_NICR",
          "type": "uint256"
        }
      ],
      "name": "NodeAdded",
      "type": "event"
    },
    {
      "anonymous": false,
      "inputs": [
        {
          "indexed": false,
          "internalType": "address",
          "name": "_id",
          "type": "address"
        }
      ],
      "name": "NodeRemoved",
      "type": "event"
    },
    {
      "anonymous": false,
      "inputs": [
        {
          "indexed": true,
          "internalType": "address",
          "name": "previousOwner",
          "type": "address"
        },
        {
          "indexed": true,
          "internalType": "address",
          "name": "newOwner",
          "type": "address"
        }
      ],
      "name": "OwnershipTransferred",
      "type": "event"
    },
    {
      "anonymous": false,
      "inputs": [
        {
          "indexed": false,
          "internalType": "address",
          "name": "_vaultAddress",
          "type": "address"
        }
      ],
      "name": "VaultAddressChanged",
      "type": "event"
    },
    {
      "inputs": [],
      "name": "NAME",
      "outputs": [
        {
          "internalType": "string",
          "name": "",
          "type": "string"
        }
      ],
      "stateMutability": "view",
      "type": "function"
    },
    {
      "inputs": [],
      "name": "borrowerOperationsAddress",
      "outputs": [
        {
          "internalType": "address",
          "name": "",
          "type": "address"
        }
      ],
      "stateMutability": "view",
      "type": "function"
    },
    {
      "inputs": [
        {
          "internalType": "address",
          "name": "_id",
          "type": "address"
        }
      ],
      "name": "contains",
      "outputs": [
        {
          "internalType": "bool",
          "name": "",
          "type": "bool"
        }
      ],
      "stateMutability": "view",
      "type": "function"
    },
    {
      "inputs": [],
      "name": "data",
      "outputs": [
        {
          "internalType": "address",
          "name": "head",
          "type": "address"
        },
        {
          "internalType": "address",
          "name": "tail",
          "type": "address"
        },
        {
          "internalType": "uint256",
          "name": "maxSize",
          "type": "uint256"
        },
        {
          "internalType": "uint256",
          "name": "size",
          "type": "uint256"
        }
      ],
      "stateMutability": "view",
      "type": "function"
    },
    {
      "inputs": [
        {
          "internalType": "uint256",
          "name": "_NICR",
          "type": "uint256"
        },
        {
          "internalType": "address",
          "name": "_prevId",
          "type": "address"
        },
        {
          "internalType": "address",
          "name": "_nextId",
          "type": "address"
        }
      ],
      "name": "findInsertPosition",
      "outputs": [
        {
          "internalType": "address",
          "name": "",
          "type": "address"
        },
        {
          "internalType": "address",
          "name": "",
          "type": "address"
        }
      ],
      "stateMutability": "view",
      "type": "function"
    },
    {
      "inputs": [],
      "name": "getFirst",
      "outputs": [
        {
          "internalType": "address",
          "name": "",
          "type": "address"
        }
      ],
      "stateMutability": "view",
      "type": "function"
    },
    {
      "inputs": [],
      "name": "getLast",
      "outputs": [
        {
          "internalType": "address",
          "name": "",
          "type": "address"
        }
      ],
      "stateMutability": "view",
      "type": "function"
    },
    {
      "inputs": [],
      "name": "getMaxSize",
      "outputs": [
        {
          "internalType": "uint256",
          "name": "",
          "type": "uint256"
        }
      ],
      "stateMutability": "view",
      "type": "function"
    },
    {
      "inputs": [
        {
          "internalType": "address",
          "name": "_id",
          "type": "address"
        }
      ],
      "name": "getNext",
      "outputs": [
        {
          "internalType": "address",
          "name": "",
          "type": "address"
        }
      ],
      "stateMutability": "view",
      "type": "function"
    },
    {
      "inputs": [
        {
          "internalType": "address",
          "name": "_id",
          "type": "address"
        }
      ],
      "name": "getPrev",
      "outputs": [
        {
          "internalType": "address",
          "name": "",
          "type": "address"
        }
      ],
      "stateMutability": "view",
      "type": "function"
    },
    {
      "inputs": [],
      "name": "getSize",
      "outputs": [
        {
          "internalType": "uint256",
          "name": "",
          "type": "uint256"
        }
      ],
      "stateMutability": "view",
      "type": "function"
    },
    {
      "inputs": [
        {
          "internalType": "address",
          "name": "_id",
          "type": "address"
        },
        {
          "internalType": "uint256",
          "name": "_NICR",
          "type": "uint256"
        },
        {
          "internalType": "address",
          "name": "_prevId",
          "type": "address"
        },
        {
          "internalType": "address",
          "name": "_nextId",
          "type": "address"
        }
      ],
      "name": "insert",
      "outputs": [],
      "stateMutability": "nonpayable",
      "type": "function"
    },
    {
      "inputs": [],
      "name": "isEmpty",
      "outputs": [
        {
          "internalType": "bool",
          "name": "",
          "type": "bool"
        }
      ],
      "stateMutability": "view",
      "type": "function"
    },
    {
      "inputs": [],
      "name": "isFull",
      "outputs": [
        {
          "internalType": "bool",
          "name": "",
          "type": "bool"
        }
      ],
      "stateMutability": "view",
      "type": "function"
    },
    {
      "inputs": [],
      "name": "owner",
      "outputs": [
        {
          "internalType": "address",
          "name": "",
          "type": "address"
        }
      ],
      "stateMutability": "view",
      "type": "function"
    },
    {
      "inputs": [
        {
          "internalType": "address",
          "name": "_id",
          "type": "address"
        },
        {
          "internalType": "uint256",
          "name": "_newNICR",
          "type": "uint256"
        },
        {
          "internalType": "address",
          "name": "_prevId",
          "type": "address"
        },
        {
          "internalType": "address",
          "name": "_nextId",
          "type": "address"
        }
      ],
      "name": "reInsert",
      "outputs": [],
      "stateMutability": "nonpayable",
      "type": "function"
    },
    {
      "inputs": [
        {
          "internalType": "address",
          "name": "_id",
          "type": "address"
        }
      ],
      "name": "remove",
      "outputs": [],
      "stateMutability": "nonpayable",
      "type": "function"
    },
    {
      "inputs": [],
      "name": "renounceOwnership",
      "outputs": [],
      "stateMutability": "nonpayable",
      "type": "function"
    },
    {
      "inputs": [
        {
          "internalType": "uint256",
          "name": "_size",
          "type": "uint256"
        },
        {
          "internalType": "address",
          "name": "_vaultAddress",
          "type": "address"
        },
        {
          "internalType": "address",
          "name": "_borrowerOperationsAddress",
          "type": "address"
        }
      ],
      "name": "setParams",
      "outputs": [],
      "stateMutability": "nonpayable",
      "type": "function"
    },
    {
      "inputs": [
        {
          "internalType": "address",
          "name": "newOwner",
          "type": "address"
        }
      ],
      "name": "transferOwnership",
      "outputs": [],
      "stateMutability": "nonpayable",
      "type": "function"
    },
    {
      "inputs": [
        {
          "internalType": "uint256",
          "name": "_NICR",
          "type": "uint256"
        },
        {
          "internalType": "address",
          "name": "_prevId",
          "type": "address"
        },
        {
          "internalType": "address",
          "name": "_nextId",
          "type": "address"
        }
      ],
      "name": "validInsertPosition",
      "outputs": [
        {
          "internalType": "bool",
          "name": "",
          "type": "bool"
        }
      ],
      "stateMutability": "view",
      "type": "function"
    },
    {
      "inputs": [],
      "name": "vault",
      "outputs": [
        {
          "internalType": "contract IVault",
          "name": "",
          "type": "address"
        }
      ],
      "stateMutability": "view",
      "type": "function"
    }
  ],
  "transactionHash": "0x4b38428a6084a3c113e0eb1e203e6d43f9cd604812b3c77ded52fbfa5bac8662",
  "args": [],
  "numDeployments": 2,
  "solcInputHash": "8aa079dc372efa4fb72dddab2b66ad11",
  "bytecode": "0x608060405234801561001057600080fd5b5061001a3361001f565b61006f565b600080546001600160a01b038381166001600160a01b0319831681178455604051919092169283917f8be0079c531659141344cd1fd0a4f28419497f9722a3daafe3b4186f6b6457e09190a35050565b6117598061007e6000396000f3fe608060405234801561001057600080fd5b50600436106101425760003560e01c806373d4a13a116100b8578063b7f8cf9b1161007c578063b7f8cf9b14610338578063babd3d9a1461034b578063de8fa43114610357578063f2fde38b1461035f578063f376d79814610372578063fbfa77cf1461038557610142565b806373d4a13a14610242578063765e01591461028f5780638da5cb5b146102c0578063a3f4df7e146102d1578063b72703ac1461030957610142565b806346f7cf871161010a57806346f7cf87146101e85780634d622831146101fb5780635dbe47e81461020c57806363e1d57c1461021f578063681fe70c14610231578063715018a61461023a57610142565b80631e2231431461014757806329092d0e1461016a5780632be212601461017f5780633fce12d514610192578063416980dc146101b5575b600080fd5b6003546001600160a01b03165b60405161016191906115b5565b60405180910390f35b61017d6101783660046114fc565b610398565b005b61017d61018d366004611516565b6103ac565b6101a56101a036600461157a565b61041d565b6040519015158152602001610161565b6101c86101c336600461157a565b610434565b604080516001600160a01b03938416815292909116602083015201610161565b61017d6101f6366004611516565b61044f565b6004546001600160a01b0316610154565b6101a561021a3660046114fc565b610457565b6005545b604051908152602001610161565b600654156101a5565b61017d610479565b600354600454600554600654610264936001600160a01b039081169316919084565b604080516001600160a01b039586168152949093166020850152918301526060820152608001610161565b61015461029d3660046114fc565b6001600160a01b0390811660009081526007602052604090205461010090041690565b6000546001600160a01b0316610154565b6102fc6040518060400160405280600c81526020016b536f7274656454726f76657360a01b81525081565b60405161016191906115c9565b6101546103173660046114fc565b6001600160a01b039081166000908152600760205260409020600101541690565b600154610154906001600160a01b031681565b600554600654146101a5565b600654610223565b61017d61036d3660046114fc565b6104af565b61017d61038036600461157a565b610547565b600254610154906001600160a01b031681565b6103a061068f565b6103a98161071f565b50565b6103b461068f565b6103bd84610457565b6103e25760405162461bcd60e51b81526004016103d99061161c565b60405180910390fd5b600083116104025760405162461bcd60e51b81526004016103d99061169b565b61040b8461071f565b61041784848484610925565b50505050565b600061042a848484610c9a565b90505b9392505050565b600080610442858585610f11565b915091505b935093915050565b61040b6110ec565b6001600160a01b03811660009081526007602052604090205460ff165b919050565b6000546001600160a01b031633146104a35760405162461bcd60e51b81526004016103d990611666565b6104ad600061115e565b565b6000546001600160a01b031633146104d95760405162461bcd60e51b81526004016103d990611666565b6001600160a01b03811661053e5760405162461bcd60e51b815260206004820152602660248201527f4f776e61626c653a206e6577206f776e657220697320746865207a65726f206160448201526564647265737360d01b60648201526084016103d9565b6103a98161115e565b6000546001600160a01b031633146105715760405162461bcd60e51b81526004016103d990611666565b600083116105cc5760405162461bcd60e51b815260206004820152602260248201527f536f7274656454726f7665733a2053697a652063616e206e6f74206265207a65604482015261726f60f01b60648201526084016103d9565b6105d5826111ae565b6105de816111ae565b6005839055600280546001600160a01b038085166001600160a01b03199283161790925560018054928416929091169190911790556040517f3ca631ffcd2a9b5d9ae18543fc82f58eb4ca33af9e6ab01b7a8e95331e6ed985906106439083906115b5565b60405180910390a17fc66c1b80b9591e3cfb283fa3494103133ff7885d1d5aaa6c4ee203013adcd8d08260405161067a91906115b5565b60405180910390a161068a610479565b505050565b6001546001600160a01b03163314806106b257506002546001600160a01b031633145b6104ad5760405162461bcd60e51b815260206004820152603860248201527f536f7274656454726f7665733a2043616c6c6572206d75737420626520426f726044820152771c9bddd95c93dc195c985d1a5bdb9cc81bdc8815985d5b1d60421b60648201526084016103d9565b61072881610457565b6107445760405162461bcd60e51b81526004016103d99061161c565b60065460011015610885576003546001600160a01b03828116911614156107b1576001600160a01b0380821660009081526007602052604080822054600380546001600160a01b031990811661010090930490951691821790558252902060010180549091169055610880565b6004546001600160a01b0382811691161415610815576001600160a01b0380821660009081526007602052604080822060010154600480546001600160a01b03191691909416908117909355918152208054610100600160a81b0319169055610880565b6001600160a01b038082166000908152600760205260408082208054600180830180548716865284862080546101009485900489168502610100600160a81b03199091161790555492549190910485168452919092200180546001600160a01b031916919092161790555b6108a2565b600380546001600160a01b03199081169091556004805490911690555b6001600160a01b038116600090815260076020526040902080546001600160a81b0319168155600190810180546001600160a01b03191690556006546108e791611257565b6006556040517fcfc24166db4bb677e857cacabd1541fb2b30645021b27c5130419589b84db52b9061091a9083906115b5565b60405180910390a150565b60055460065414156109795760405162461bcd60e51b815260206004820152601a60248201527f536f7274656454726f7665733a204c6973742069732066756c6c00000000000060448201526064016103d9565b61098284610457565b156109e45760405162461bcd60e51b815260206004820152602c60248201527f536f7274656454726f7665733a204c69737420616c726561647920636f6e746160448201526b696e7320746865206e6f646560a01b60648201526084016103d9565b6001600160a01b038416610a3a5760405162461bcd60e51b815260206004820152601f60248201527f536f7274656454726f7665733a2049642063616e6e6f74206265207a65726f0060448201526064016103d9565b60008311610a5a5760405162461bcd60e51b81526004016103d99061169b565b8181610a67858383610c9a565b610a7c57610a76858383610f11565b90925090505b6001600160a01b038087166000908152600760205260409020805460ff191660011790558216158015610ab657506001600160a01b038116155b15610aeb57600380546001600160a01b0388166001600160a01b03199182168117909255600480549091169091179055610c3f565b6001600160a01b038216610b5f57600380546001600160a01b03888116600081815260076020526040808220805495851661010002610100600160a81b0319909616959095179094558454909216825291902060010180546001600160a01b03199081168317909155825416179055610c3f565b6001600160a01b038116610bcf57600480546001600160a01b0388811660008181526007602052604080822060010180549585166001600160a01b031996871617905585549093168152919091208054610100600160a81b03191661010083021790558254909116179055610c3f565b6001600160a01b038087166000818152600760205260408082208054858716610100818102610100600160a81b031993841617845560019384018054988b166001600160a01b0319998a168117909155865284862080549188029190931617909155835291200180549092161790555b600654610c4d906001611263565b600655604080516001600160a01b0388168152602081018790527fe02b43adbee0c123de070a04554a71877a0007e2fc161466299cae3c094fe82f910160405180910390a1505050505050565b60006001600160a01b038316158015610cba57506001600160a01b038216155b15610ccb57600654155b905061042d565b6001600160a01b038316610d7b576003546001600160a01b038381169116148015610cc4575060025460405163b0d8e18160e01b81526001600160a01b039091169063b0d8e18190610d219085906004016115b5565b60206040518083038186803b158015610d3957600080fd5b505afa158015610d4d573d6000803e3d6000fd5b505050506040513d601f19601f82011682018060405250810190610d719190611562565b841015905061042d565b6001600160a01b038216610e2b576004546001600160a01b038481169116148015610cc4575060025460405163b0d8e18160e01b81526001600160a01b039091169063b0d8e18190610dd19086906004016115b5565b60206040518083038186803b158015610de957600080fd5b505afa158015610dfd573d6000803e3d6000fd5b505050506040513d601f19601f82011682018060405250810190610e219190611562565b841115905061042d565b6001600160a01b0383811660009081526007602052604090205461010090048116908316148015610eda575060025460405163b0d8e18160e01b815285916001600160a01b03169063b0d8e18190610e879087906004016115b5565b60206040518083038186803b158015610e9f57600080fd5b505afa158015610eb3573d6000803e3d6000fd5b505050506040513d601f19601f82011682018060405250810190610ed79190611562565b10155b8015610cc4575060025460405163b0d8e18160e01b81526001600160a01b039091169063b0d8e18190610d219085906004016115b5565b60008083836001600160a01b03821615610fc257610f2e82610457565b1580610fb8575060025460405163b0d8e18160e01b81526001600160a01b039091169063b0d8e18190610f659085906004016115b5565b60206040518083038186803b158015610f7d57600080fd5b505afa158015610f91573d6000803e3d6000fd5b505050506040513d601f19601f82011682018060405250810190610fb59190611562565b87115b15610fc257600091505b6001600160a01b0381161561106d57610fda81610457565b1580611064575060025460405163b0d8e18160e01b81526001600160a01b039091169063b0d8e181906110119084906004016115b5565b60206040518083038186803b15801561102957600080fd5b505afa15801561103d573d6000803e3d6000fd5b505050506040513d601f19601f820116820180604052508101906110619190611562565b87105b1561106d575060005b6001600160a01b03821615801561108b57506001600160a01b038116155b156110b2576003546110a79088906001600160a01b031661126f565b935093505050610447565b6001600160a01b0382166110ca576110a787826113ae565b6001600160a01b0381166110e2576110a7878361126f565b6110a7878361126f565b6001546001600160a01b031633146104ad5760405162461bcd60e51b815260206004820152602f60248201527f536f7274656454726f7665733a2043616c6c6572206d75737420626520426f7260448201526e726f7765724f7065726174696f6e7360881b60648201526084016103d9565b600080546001600160a01b038381166001600160a01b0319831681178455604051919092169283917f8be0079c531659141344cd1fd0a4f28419497f9722a3daafe3b4186f6b6457e09190a35050565b6001600160a01b0381166112045760405162461bcd60e51b815260206004820152601e60248201527f4163636f756e742063616e6e6f74206265207a65726f2061646472657373000060448201526064016103d9565b803b806112535760405162461bcd60e51b815260206004820181905260248201527f4163636f756e7420636f64652073697a652063616e6e6f74206265207a65726f60448201526064016103d9565b5050565b600061042d82846116f6565b600061042d82846116de565b60035460009081906001600160a01b038481169116148015611310575060025460405163b0d8e18160e01b81526001600160a01b039091169063b0d8e181906112bc9086906004016115b5565b60206040518083038186803b1580156112d457600080fd5b505afa1580156112e8573d6000803e3d6000fd5b505050506040513d601f19601f8201168201806040525081019061130c9190611562565b8410155b15611320575060009050816113a7565b6001600160a01b038084166000908152600760205260409020548491610100909104165b6001600160a01b038216158015906113645750611362868383610c9a565b155b156113a157506001600160a01b03908116600090815260076020526040808220546101009081900484168084529190922054909291900416611344565b90925090505b9250929050565b60045460009081906001600160a01b03848116911614801561144f575060025460405163b0d8e18160e01b81526001600160a01b039091169063b0d8e181906113fb9086906004016115b5565b60206040518083038186803b15801561141357600080fd5b505afa158015611427573d6000803e3d6000fd5b505050506040513d601f19601f8201168201806040525081019061144b9190611562565b8411155b1561145f575081905060006113a7565b6001600160a01b038084166000908152600760205260409020600101548491165b6001600160a01b038216158015906114a0575061149e868284610c9a565b155b156114db57506001600160a01b0390811660009081526007602052604080822060019081015484168084529190922090910154909116611480565b9590945092505050565b80356001600160a01b038116811461047457600080fd5b60006020828403121561150d578081fd5b61042d826114e5565b6000806000806080858703121561152b578283fd5b611534856114e5565b935060208501359250611549604086016114e5565b9150611557606086016114e5565b905092959194509250565b600060208284031215611573578081fd5b5051919050565b60008060006060848603121561158e578283fd5b8335925061159e602085016114e5565b91506115ac604085016114e5565b90509250925092565b6001600160a01b0391909116815260200190565b6000602080835283518082850152825b818110156115f5578581018301518582016040015282016115d9565b818111156116065783604083870101525b50601f01601f1916929092016040019392505050565b6020808252602a908201527f536f7274656454726f7665733a204c69737420646f6573206e6f7420636f6e74604082015269185a5b881d1a19481a5960b21b606082015260800190565b6020808252818101527f4f776e61626c653a2063616c6c6572206973206e6f7420746865206f776e6572604082015260600190565b60208082526023908201527f536f7274656454726f7665733a204e494352206d75737420626520706f73697460408201526269766560e81b606082015260800190565b600082198211156116f1576116f161170d565b500190565b6000828210156117085761170861170d565b500390565b634e487b7160e01b600052601160045260246000fdfea26469706673582212200724853945b87eff572ee4f36aaf9e93fab08ecf3aaaece7c646a1450fa8171c64736f6c63430008030033",
  "devdoc": {
    "kind": "dev",
    "methods": {
      "owner()": {
        "details": "Returns the address of the current owner."
      },
      "renounceOwnership()": {
        "details": "Leaves the contract without owner. It will not be possible to call `onlyOwner` functions anymore. Can only be called by the current owner. NOTE: Renouncing ownership will leave the contract without an owner, thereby removing any functionality that is only available to the owner."
      },
      "transferOwnership(address)": {
        "details": "Transfers ownership of the contract to a new account (`newOwner`). Can only be called by the current owner."
      }
    },
    "version": 1
  },
  "userdoc": {
    "kind": "user",
    "methods": {},
    "version": 1
  },
  "storageLayout": {
    "storage": [
      {
        "astId": 53,
        "contract": "contracts/core/SortedTroves.sol:SortedTroves",
        "label": "_owner",
        "offset": 0,
        "slot": "0",
        "type": "t_address"
      },
      {
        "astId": 10361,
        "contract": "contracts/core/SortedTroves.sol:SortedTroves",
        "label": "borrowerOperationsAddress",
        "offset": 0,
        "slot": "1",
        "type": "t_address"
      },
      {
        "astId": 10364,
        "contract": "contracts/core/SortedTroves.sol:SortedTroves",
        "label": "vault",
        "offset": 0,
        "slot": "2",
        "type": "t_contract(IVault)16742"
      },
      {
        "astId": 10388,
        "contract": "contracts/core/SortedTroves.sol:SortedTroves",
        "label": "data",
        "offset": 0,
        "slot": "3",
        "type": "t_struct(Data)10385_storage"
      }
    ],
    "types": {
      "t_address": {
        "encoding": "inplace",
        "label": "address",
        "numberOfBytes": "20"
      },
      "t_bool": {
        "encoding": "inplace",
        "label": "bool",
        "numberOfBytes": "1"
      },
      "t_contract(IVault)16742": {
        "encoding": "inplace",
        "label": "contract IVault",
        "numberOfBytes": "20"
      },
      "t_mapping(t_address,t_struct(Node)10371_storage)": {
        "encoding": "mapping",
        "key": "t_address",
        "label": "mapping(address => struct SortedTroves.Node)",
        "numberOfBytes": "32",
        "value": "t_struct(Node)10371_storage"
      },
      "t_struct(Data)10385_storage": {
        "encoding": "inplace",
        "label": "struct SortedTroves.Data",
        "members": [
          {
            "astId": 10373,
            "contract": "contracts/core/SortedTroves.sol:SortedTroves",
            "label": "head",
            "offset": 0,
            "slot": "0",
            "type": "t_address"
          },
          {
            "astId": 10375,
            "contract": "contracts/core/SortedTroves.sol:SortedTroves",
            "label": "tail",
            "offset": 0,
            "slot": "1",
            "type": "t_address"
          },
          {
            "astId": 10377,
            "contract": "contracts/core/SortedTroves.sol:SortedTroves",
            "label": "maxSize",
            "offset": 0,
            "slot": "2",
            "type": "t_uint256"
          },
          {
            "astId": 10379,
            "contract": "contracts/core/SortedTroves.sol:SortedTroves",
            "label": "size",
            "offset": 0,
            "slot": "3",
            "type": "t_uint256"
          },
          {
            "astId": 10384,
            "contract": "contracts/core/SortedTroves.sol:SortedTroves",
            "label": "nodes",
            "offset": 0,
            "slot": "4",
            "type": "t_mapping(t_address,t_struct(Node)10371_storage)"
          }
        ],
        "numberOfBytes": "160"
      },
      "t_struct(Node)10371_storage": {
        "encoding": "inplace",
        "label": "struct SortedTroves.Node",
        "members": [
          {
            "astId": 10366,
            "contract": "contracts/core/SortedTroves.sol:SortedTroves",
            "label": "exists",
            "offset": 0,
            "slot": "0",
            "type": "t_bool"
          },
          {
            "astId": 10368,
            "contract": "contracts/core/SortedTroves.sol:SortedTroves",
            "label": "nextId",
            "offset": 1,
            "slot": "0",
            "type": "t_address"
          },
          {
            "astId": 10370,
            "contract": "contracts/core/SortedTroves.sol:SortedTroves",
            "label": "prevId",
            "offset": 0,
            "slot": "1",
            "type": "t_address"
          }
        ],
        "numberOfBytes": "64"
      },
      "t_uint256": {
        "encoding": "inplace",
        "label": "uint256",
        "numberOfBytes": "32"
      }
    }
  }
}