{
  "address": "0x4FE2853084bFE95B93D129Cf7E2CDa1435e4C06D",
  "abi": [
    {
      "anonymous": false,
      "inputs": [
        {
          "indexed": false,
          "internalType": "address",
          "name": "_myoTokenAddress",
          "type": "address"
        }
      ],
      "name": "MYOTokenAddressChanged",
      "type": "event"
    },
    {
      "anonymous": false,
      "inputs": [
        {
          "indexed": true,
          "internalType": "address",
          "name": "previousOwner",
          "type": "address"
        },
        {
          "indexed": true,
          "internalType": "address",
          "name": "newOwner",
          "type": "address"
        }
      ],
      "name": "OwnershipTransferred",
      "type": "event"
    },
    {
      "anonymous": false,
      "inputs": [
        {
          "indexed": false,
          "internalType": "uint256",
          "name": "reward",
          "type": "uint256"
        }
      ],
      "name": "RewardAdded",
      "type": "event"
    },
    {
      "anonymous": false,
      "inputs": [
        {
          "indexed": true,
          "internalType": "address",
          "name": "user",
          "type": "address"
        },
        {
          "indexed": false,
          "internalType": "uint256",
          "name": "reward",
          "type": "uint256"
        }
      ],
      "name": "RewardPaid",
      "type": "event"
    },
    {
      "anonymous": false,
      "inputs": [
        {
          "indexed": true,
          "internalType": "address",
          "name": "user",
          "type": "address"
        },
        {
          "indexed": false,
          "internalType": "uint256",
          "name": "amount",
          "type": "uint256"
        }
      ],
      "name": "Staked",
      "type": "event"
    },
    {
      "anonymous": false,
      "inputs": [
        {
          "indexed": false,
          "internalType": "address",
          "name": "_uniTokenAddress",
          "type": "address"
        }
      ],
      "name": "UniTokenAddressChanged",
      "type": "event"
    },
    {
      "anonymous": false,
      "inputs": [
        {
          "indexed": true,
          "internalType": "address",
          "name": "user",
          "type": "address"
        },
        {
          "indexed": false,
          "internalType": "uint256",
          "name": "amount",
          "type": "uint256"
        }
      ],
      "name": "Withdrawn",
      "type": "event"
    },
    {
      "inputs": [],
      "name": "NAME",
      "outputs": [
        {
          "internalType": "string",
          "name": "",
          "type": "string"
        }
      ],
      "stateMutability": "view",
      "type": "function"
    },
    {
      "inputs": [
        {
          "internalType": "address",
          "name": "account",
          "type": "address"
        }
      ],
      "name": "balanceOf",
      "outputs": [
        {
          "internalType": "uint256",
          "name": "",
          "type": "uint256"
        }
      ],
      "stateMutability": "view",
      "type": "function"
    },
    {
      "inputs": [],
      "name": "claimReward",
      "outputs": [],
      "stateMutability": "nonpayable",
      "type": "function"
    },
    {
      "inputs": [],
      "name": "duration",
      "outputs": [
        {
          "internalType": "uint256",
          "name": "",
          "type": "uint256"
        }
      ],
      "stateMutability": "view",
      "type": "function"
    },
    {
      "inputs": [
        {
          "internalType": "address",
          "name": "account",
          "type": "address"
        }
      ],
      "name": "earned",
      "outputs": [
        {
          "internalType": "uint256",
          "name": "",
          "type": "uint256"
        }
      ],
      "stateMutability": "view",
      "type": "function"
    },
    {
      "inputs": [],
      "name": "lastTimeRewardApplicable",
      "outputs": [
        {
          "internalType": "uint256",
          "name": "",
          "type": "uint256"
        }
      ],
      "stateMutability": "view",
      "type": "function"
    },
    {
      "inputs": [],
      "name": "lastUpdateTime",
      "outputs": [
        {
          "internalType": "uint256",
          "name": "",
          "type": "uint256"
        }
      ],
      "stateMutability": "view",
      "type": "function"
    },
    {
      "inputs": [],
      "name": "myoToken",
      "outputs": [
        {
          "internalType": "contract IMYOToken",
          "name": "",
          "type": "address"
        }
      ],
      "stateMutability": "view",
      "type": "function"
    },
    {
      "inputs": [],
      "name": "owner",
      "outputs": [
        {
          "internalType": "address",
          "name": "",
          "type": "address"
        }
      ],
      "stateMutability": "view",
      "type": "function"
    },
    {
      "inputs": [],
      "name": "periodFinish",
      "outputs": [
        {
          "internalType": "uint256",
          "name": "",
          "type": "uint256"
        }
      ],
      "stateMutability": "view",
      "type": "function"
    },
    {
      "inputs": [],
      "name": "renounceOwnership",
      "outputs": [],
      "stateMutability": "nonpayable",
      "type": "function"
    },
    {
      "inputs": [],
      "name": "rewardPerToken",
      "outputs": [
        {
          "internalType": "uint256",
          "name": "",
          "type": "uint256"
        }
      ],
      "stateMutability": "view",
      "type": "function"
    },
    {
      "inputs": [],
      "name": "rewardPerTokenStored",
      "outputs": [
        {
          "internalType": "uint256",
          "name": "",
          "type": "uint256"
        }
      ],
      "stateMutability": "view",
      "type": "function"
    },
    {
      "inputs": [],
      "name": "rewardRate",
      "outputs": [
        {
          "internalType": "uint256",
          "name": "",
          "type": "uint256"
        }
      ],
      "stateMutability": "view",
      "type": "function"
    },
    {
      "inputs": [
        {
          "internalType": "address",
          "name": "",
          "type": "address"
        }
      ],
      "name": "rewards",
      "outputs": [
        {
          "internalType": "uint256",
          "name": "",
          "type": "uint256"
        }
      ],
      "stateMutability": "view",
      "type": "function"
    },
    {
      "inputs": [
        {
          "internalType": "address",
          "name": "_myoTokenAddress",
          "type": "address"
        },
        {
          "internalType": "address",
          "name": "_uniTokenAddress",
          "type": "address"
        },
        {
          "internalType": "uint256",
          "name": "_duration",
          "type": "uint256"
        }
      ],
      "name": "setParams",
      "outputs": [],
      "stateMutability": "nonpayable",
      "type": "function"
    },
    {
      "inputs": [
        {
          "internalType": "uint256",
          "name": "amount",
          "type": "uint256"
        }
      ],
      "name": "stake",
      "outputs": [],
      "stateMutability": "nonpayable",
      "type": "function"
    },
    {
      "inputs": [],
      "name": "totalSupply",
      "outputs": [
        {
          "internalType": "uint256",
          "name": "",
          "type": "uint256"
        }
      ],
      "stateMutability": "view",
      "type": "function"
    },
    {
      "inputs": [
        {
          "internalType": "address",
          "name": "newOwner",
          "type": "address"
        }
      ],
      "name": "transferOwnership",
      "outputs": [],
      "stateMutability": "nonpayable",
      "type": "function"
    },
    {
      "inputs": [],
      "name": "uniToken",
      "outputs": [
        {
          "internalType": "contract IERC20",
          "name": "",
          "type": "address"
        }
      ],
      "stateMutability": "view",
      "type": "function"
    },
    {
      "inputs": [
        {
          "internalType": "address",
          "name": "",
          "type": "address"
        }
      ],
      "name": "userRewardPerTokenPaid",
      "outputs": [
        {
          "internalType": "uint256",
          "name": "",
          "type": "uint256"
        }
      ],
      "stateMutability": "view",
      "type": "function"
    },
    {
      "inputs": [
        {
          "internalType": "uint256",
          "name": "amount",
          "type": "uint256"
        }
      ],
      "name": "withdraw",
      "outputs": [],
      "stateMutability": "nonpayable",
      "type": "function"
    },
    {
      "inputs": [],
      "name": "withdrawAndClaim",
      "outputs": [],
      "stateMutability": "nonpayable",
      "type": "function"
    }
  ],
  "transactionHash": "0xdfdaa84c86e4932edcda2dd001a0c5e3b4c80f6512c455a2003b588a9c0e3316",
  "args": [],
  "numDeployments": 1,
  "solcInputHash": "8aa079dc372efa4fb72dddab2b66ad11",
  "bytecode": "0x60806040526000600655600060075534801561001a57600080fd5b5061002433610029565b61007b565b600380546001600160a01b038381166001600160a01b0319831681179093556040519116919082907f8be0079c531659141344cd1fd0a4f28419497f9722a3daafe3b4186f6b6457e090600090a35050565b6112538061008a6000396000f3fe608060405234801561001057600080fd5b506004361061014c5760003560e01c80638b876347116100c3578063cd3daf9d1161007c578063cd3daf9d146102a4578063d4437724146102ac578063df136d65146102b4578063ebe2b12b146102bd578063f2fde38b146102c6578063fff298df146102d95761014c565b80638b8763471461021c5780638da5cb5b1461023c578063a3f4df7e1461024d578063a694fc3a14610280578063b88a802f14610293578063c8f33c911461029b5761014c565b8063509db2f611610115578063509db2f6146101bd57806370a08231146101d0578063715018a6146101e35780637b0a47ee146101eb57806380faa57d146101f457806385ce4fee146101fc5761014c565b80628cc262146101515780630700037d146101775780630fb5a6b41461019757806318160ddd146101a05780632e1a7d4d146101a8575b600080fd5b61016461015f366004610fe7565b6102ec565b6040519081526020015b60405180910390f35b610164610185366004610fe7565b600b6020526000908152604090205481565b61016460045481565b61016461035c565b6101bb6101b636600461105c565b610363565b005b6101bb6101cb366004611001565b61041f565b6101646101de366004610fe7565b61057f565b6101bb61059a565b61016460075481565b6101646105d0565b60005461020f906001600160a01b031681565b60405161016e91906110a8565b61016461022a366004610fe7565b600a6020526000908152604090205481565b6003546001600160a01b031661020f565b61027360405180604001604052806007815260200166155b9a5c1bdbdb60ca1b81525081565b60405161016e91906110bc565b6101bb61028e36600461105c565b6105e3565b6101bb610698565b61016460085481565b6101646107f5565b6101bb610843565b61016460095481565b61016460065481565b6101bb6102d4366004610fe7565b610857565b60055461020f906001600160a01b031681565b6001600160a01b0381166000908152600b6020908152604080832054600a909252822054610354919061034e90670de0b6b3a76400009061034890610339906103336107f5565b906108f2565b6103428861057f565b90610905565b90610911565b9061091d565b90505b919050565b6001545b90565b600081116103ac5760405162461bcd60e51b8152602060048201526011602482015270043616e6e6f74207769746864726177203607c1b60448201526064015b60405180910390fd5b6000546001600160a01b03166103d45760405162461bcd60e51b81526004016103a3906110ef565b6103dd33610929565b6103e68161098c565b60405181815233907f7084f5476618d8e60b11ef0d7d3f06914655adb8793e28ff7f018d4c76d505d5906020015b60405180910390a250565b6003546001600160a01b031633146104495760405162461bcd60e51b81526004016103a390611138565b610452836109e1565b61045b826109e1565b600080546001600160a01b038085166001600160a01b031992831617909255600580549286169290911682179055600482815560408051630974f55960e41b81529051610504939263974f559092808201926020929091829003018186803b1580156104c657600080fd5b505afa1580156104da573d6000803e3d6000fd5b505050506040513d601f19601f820116820180604052508101906104fe9190611074565b82610a86565b7f2773a122ec7f919c5fc43861bcea01263b3d34465081f19728baef60bc17f25f8360405161053391906110a8565b60405180910390a17f15cb6984f76cb781da2b25c2024a3eaf5011914976381f844e09724cc9e21e948260405161056a91906110a8565b60405180910390a161057a61059a565b505050565b6001600160a01b031660009081526002602052604090205490565b6003546001600160a01b031633146105c45760405162461bcd60e51b81526004016103a390611138565b6105ce6000610bbd565b565b60006105de42600654610c0f565b905090565b600081116106245760405162461bcd60e51b815260206004820152600e60248201526d043616e6e6f74207374616b6520360941b60448201526064016103a3565b6000546001600160a01b031661064c5760405162461bcd60e51b81526004016103a3906110ef565b610654610c25565b61065d33610929565b61066681610c77565b60405181815233907f9e71bc8eea02a63969f509818f2dafb9254532904319f9dbda79b67bd34a5f3d90602001610414565b6000546001600160a01b03166106c05760405162461bcd60e51b81526004016103a3906110ef565b6106c8610c25565b6106d133610929565b60006106dc336102ec565b9050600081116107215760405162461bcd60e51b815260206004820152601060248201526f4e6f7468696e6720746f20636c61696d60801b60448201526064016103a3565b336000818152600b602052604080822091909155517fe2403640ba68fed3a2f88b7557551d1993f84b99bb10ff833f0cf8db0c5e0486906107659084815260200190565b60405180910390a260055460405163a9059cbb60e01b8152336004820152602481018390526001600160a01b039091169063a9059cbb90604401602060405180830381600087803b1580156107b957600080fd5b505af11580156107cd573d6000803e3d6000fd5b505050506040513d601f19601f820116820180604052508101906107f1919061103c565b5050565b60006107ff61035c565b61080c5750600954610360565b6105de61083a61081a61035c565b610348670de0b6b3a76400006103426007546103426008546103336105d0565b6009549061091d565b61084f6101b63361057f565b6105ce610698565b6003546001600160a01b031633146108815760405162461bcd60e51b81526004016103a390611138565b6001600160a01b0381166108e65760405162461bcd60e51b815260206004820152602660248201527f4f776e61626c653a206e6577206f776e657220697320746865207a65726f206160448201526564647265737360d01b60648201526084016103a3565b6108ef81610bbd565b50565b60006108fe82846111c4565b9392505050565b60006108fe82846111a5565b60006108fe8284611185565b60006108fe828461116d565b610931610ccd565b6001600160a01b03811661095557634e487b7160e01b600052600160045260246000fd5b61095e816102ec565b6001600160a01b039091166000908152600b6020908152604080832093909355600954600a90915291902055565b60015461099990826108f2565b600155336000908152600260205260409020546109b690826108f2565b3360008181526002602052604081209290925590546108ef916001600160a01b039091169083610ce5565b6001600160a01b038116610a375760405162461bcd60e51b815260206004820152601e60248201527f4163636f756e742063616e6e6f74206265207a65726f2061646472657373000060448201526064016103a3565b803b806107f15760405162461bcd60e51b815260206004820181905260248201527f4163636f756e7420636f64652073697a652063616e6e6f74206265207a65726f60448201526064016103a3565b60008211610aa457634e487b7160e01b600052600160045260246000fd5b6005546040516370a0823160e01b81526001600160a01b03909116906370a0823190610ad49030906004016110a8565b60206040518083038186803b158015610aec57600080fd5b505afa158015610b00573d6000803e3d6000fd5b505050506040513d601f19601f82011682018060405250810190610b249190611074565b8214610b4057634e487b7160e01b600052600160045260246000fd5b60065415610b5e57634e487b7160e01b600052600160045260246000fd5b610b66610ccd565b610b708282610911565b600755426008819055610b83908261091d565b6006556040518281527fde88a922e0d3b88b24e9623efeb464919c6bf9f66857a65e2bfcf2ce87a9433d9060200160405180910390a15050565b600380546001600160a01b038381166001600160a01b0319831681179093556040519116919082907f8be0079c531659141344cd1fd0a4f28419497f9722a3daafe3b4186f6b6457e090600090a35050565b6000818310610c1e57816108fe565b5090919050565b610c2d61035c565b6105ce57600060065411610c5157634e487b7160e01b600052600160045260246000fd5b610c72610c69600854426108f290919063ffffffff16565b6006549061091d565b600655565b600154610c84908261091d565b60015533600090815260026020526040902054610ca1908261091d565b3360008181526002602052604081209290925590546108ef916001600160a01b03909116903084610d48565b610cd56107f5565b600955610ce06105d0565b600855565b6040516001600160a01b03831660248201526044810182905261057a90849063a9059cbb60e01b906064015b60408051601f198184030181529190526020810180516001600160e01b03166001600160e01b031990931692909217909152610d86565b6040516001600160a01b0380851660248301528316604482015260648101829052610d809085906323b872dd60e01b90608401610d11565b50505050565b6000610ddb826040518060400160405280602081526020017f5361666545524332303a206c6f772d6c6576656c2063616c6c206661696c6564815250856001600160a01b0316610e589092919063ffffffff16565b80519091501561057a5780806020019051810190610df9919061103c565b61057a5760405162461bcd60e51b815260206004820152602a60248201527f5361666545524332303a204552433230206f7065726174696f6e20646964206e6044820152691bdd081cdd58d8d9595960b21b60648201526084016103a3565b6060610e678484600085610e6f565b949350505050565b606082471015610ed05760405162461bcd60e51b815260206004820152602660248201527f416464726573733a20696e73756666696369656e742062616c616e636520666f6044820152651c8818d85b1b60d21b60648201526084016103a3565b843b610f1e5760405162461bcd60e51b815260206004820152601d60248201527f416464726573733a2063616c6c20746f206e6f6e2d636f6e747261637400000060448201526064016103a3565b600080866001600160a01b03168587604051610f3a919061108c565b60006040518083038185875af1925050503d8060008114610f77576040519150601f19603f3d011682016040523d82523d6000602084013e610f7c565b606091505b5091509150610f8c828286610f97565b979650505050505050565b60608315610fa65750816108fe565b825115610fb65782518084602001fd5b8160405162461bcd60e51b81526004016103a391906110bc565b80356001600160a01b038116811461035757600080fd5b600060208284031215610ff8578081fd5b6108fe82610fd0565b600080600060608486031215611015578182fd5b61101e84610fd0565b925061102c60208501610fd0565b9150604084013590509250925092565b60006020828403121561104d578081fd5b815180151581146108fe578182fd5b60006020828403121561106d578081fd5b5035919050565b600060208284031215611085578081fd5b5051919050565b6000825161109e8184602087016111db565b9190910192915050565b6001600160a01b0391909116815260200190565b60006020825282518060208401526110db8160408501602087016111db565b601f01601f19169190910160400192915050565b60208082526029908201527f4c697175696469747920506f6f6c20546f6b656e20686173206e6f74206265656040820152681b881cd95d081e595d60ba1b606082015260800190565b6020808252818101527f4f776e61626c653a2063616c6c6572206973206e6f7420746865206f776e6572604082015260600190565b6000821982111561118057611180611207565b500190565b6000826111a057634e487b7160e01b81526012600452602481fd5b500490565b60008160001904831182151516156111bf576111bf611207565b500290565b6000828210156111d6576111d6611207565b500390565b60005b838110156111f65781810151838201526020016111de565b83811115610d805750506000910152565b634e487b7160e01b600052601160045260246000fdfea26469706673582212206577887f3fe9ed6f25b69b552e7550b354bcd0ff1fe8af99419bf427ae6a5e7c64736f6c63430008030033",
  "devdoc": {
    "kind": "dev",
    "methods": {
      "owner()": {
        "details": "Returns the address of the current owner."
      },
      "renounceOwnership()": {
        "details": "Leaves the contract without owner. It will not be possible to call `onlyOwner` functions anymore. Can only be called by the current owner. NOTE: Renouncing ownership will leave the contract without an owner, thereby removing any functionality that is only available to the owner."
      },
      "transferOwnership(address)": {
        "details": "Transfers ownership of the contract to a new account (`newOwner`). Can only be called by the current owner."
      }
    },
    "version": 1
  },
  "userdoc": {
    "kind": "user",
    "methods": {},
    "version": 1
  },
  "storageLayout": {
    "storage": [
      {
        "astId": 1715,
        "contract": "contracts/LPRewards/Unipool.sol:Unipool",
        "label": "uniToken",
        "offset": 0,
        "slot": "0",
        "type": "t_contract(IERC20)774"
      },
      {
        "astId": 1717,
        "contract": "contracts/LPRewards/Unipool.sol:Unipool",
        "label": "_totalSupply",
        "offset": 0,
        "slot": "1",
        "type": "t_uint256"
      },
      {
        "astId": 1721,
        "contract": "contracts/LPRewards/Unipool.sol:Unipool",
        "label": "_balances",
        "offset": 0,
        "slot": "2",
        "type": "t_mapping(t_address,t_uint256)"
      },
      {
        "astId": 53,
        "contract": "contracts/LPRewards/Unipool.sol:Unipool",
        "label": "_owner",
        "offset": 0,
        "slot": "3",
        "type": "t_address"
      },
      {
        "astId": 1834,
        "contract": "contracts/LPRewards/Unipool.sol:Unipool",
        "label": "duration",
        "offset": 0,
        "slot": "4",
        "type": "t_uint256"
      },
      {
        "astId": 1837,
        "contract": "contracts/LPRewards/Unipool.sol:Unipool",
        "label": "myoToken",
        "offset": 0,
        "slot": "5",
        "type": "t_contract(IMYOToken)16178"
      },
      {
        "astId": 1840,
        "contract": "contracts/LPRewards/Unipool.sol:Unipool",
        "label": "periodFinish",
        "offset": 0,
        "slot": "6",
        "type": "t_uint256"
      },
      {
        "astId": 1843,
        "contract": "contracts/LPRewards/Unipool.sol:Unipool",
        "label": "rewardRate",
        "offset": 0,
        "slot": "7",
        "type": "t_uint256"
      },
      {
        "astId": 1845,
        "contract": "contracts/LPRewards/Unipool.sol:Unipool",
        "label": "lastUpdateTime",
        "offset": 0,
        "slot": "8",
        "type": "t_uint256"
      },
      {
        "astId": 1847,
        "contract": "contracts/LPRewards/Unipool.sol:Unipool",
        "label": "rewardPerTokenStored",
        "offset": 0,
        "slot": "9",
        "type": "t_uint256"
      },
      {
        "astId": 1851,
        "contract": "contracts/LPRewards/Unipool.sol:Unipool",
        "label": "userRewardPerTokenPaid",
        "offset": 0,
        "slot": "10",
        "type": "t_mapping(t_address,t_uint256)"
      },
      {
        "astId": 1855,
        "contract": "contracts/LPRewards/Unipool.sol:Unipool",
        "label": "rewards",
        "offset": 0,
        "slot": "11",
        "type": "t_mapping(t_address,t_uint256)"
      }
    ],
    "types": {
      "t_address": {
        "encoding": "inplace",
        "label": "address",
        "numberOfBytes": "20"
      },
      "t_contract(IERC20)774": {
        "encoding": "inplace",
        "label": "contract IERC20",
        "numberOfBytes": "20"
      },
      "t_contract(IMYOToken)16178": {
        "encoding": "inplace",
        "label": "contract IMYOToken",
        "numberOfBytes": "20"
      },
      "t_mapping(t_address,t_uint256)": {
        "encoding": "mapping",
        "key": "t_address",
        "label": "mapping(address => uint256)",
        "numberOfBytes": "32",
        "value": "t_uint256"
      },
      "t_uint256": {
        "encoding": "inplace",
        "label": "uint256",
        "numberOfBytes": "32"
      }
    }
  }
}