{
  "address": "0x894A3A191C5ae1498b873a5260A800fBe1D37610",
  "abi": [
    {
      "inputs": [
        {
          "internalType": "address",
          "name": "_core",
          "type": "address"
        }
      ],
      "stateMutability": "nonpayable",
      "type": "constructor"
    },
    {
      "anonymous": false,
      "inputs": [
        {
          "indexed": false,
          "internalType": "uint256",
          "name": "_baseRate",
          "type": "uint256"
        }
      ],
      "name": "BaseRateUpdated",
      "type": "event"
    },
    {
      "anonymous": false,
      "inputs": [
        {
          "indexed": false,
          "internalType": "uint256",
          "name": "_L_Coll",
          "type": "uint256"
        },
        {
          "indexed": false,
          "internalType": "uint256",
          "name": "_L_Debt",
          "type": "uint256"
        }
      ],
      "name": "LTermsUpdated",
      "type": "event"
    },
    {
      "anonymous": false,
      "inputs": [
        {
          "indexed": false,
          "internalType": "uint256",
          "name": "_lastFeeOpTime",
          "type": "uint256"
        }
      ],
      "name": "LastFeeOpTimeUpdated",
      "type": "event"
    },
    {
      "anonymous": false,
      "inputs": [
        {
          "indexed": false,
          "internalType": "uint256",
          "name": "_liquidatedDebt",
          "type": "uint256"
        },
        {
          "indexed": false,
          "internalType": "uint256",
          "name": "_liquidatedColl",
          "type": "uint256"
        },
        {
          "indexed": false,
          "internalType": "uint256",
          "name": "_gasCompensation",
          "type": "uint256"
        }
      ],
      "name": "Liquidation",
      "type": "event"
    },
    {
      "anonymous": false,
      "inputs": [
        {
          "indexed": false,
          "internalType": "uint256",
          "name": "_attemptedPAIAmount",
          "type": "uint256"
        },
        {
          "indexed": false,
          "internalType": "uint256",
          "name": "_actualPAIAmount",
          "type": "uint256"
        },
        {
          "indexed": false,
          "internalType": "uint256",
          "name": "_collSent",
          "type": "uint256"
        },
        {
          "indexed": false,
          "internalType": "uint256",
          "name": "_collFee",
          "type": "uint256"
        }
      ],
      "name": "Redemption",
      "type": "event"
    },
    {
      "anonymous": false,
      "inputs": [
        {
          "indexed": false,
          "internalType": "uint256",
          "name": "_totalStakesSnapshot",
          "type": "uint256"
        },
        {
          "indexed": false,
          "internalType": "uint256",
          "name": "_totalCollateralSnapshot",
          "type": "uint256"
        }
      ],
      "name": "SystemSnapshotsUpdated",
      "type": "event"
    },
    {
      "anonymous": false,
      "inputs": [
        {
          "indexed": false,
          "internalType": "uint256",
          "name": "_newTotalStakes",
          "type": "uint256"
        }
      ],
      "name": "TotalStakesUpdated",
      "type": "event"
    },
    {
      "anonymous": false,
      "inputs": [
        {
          "indexed": false,
          "internalType": "address",
          "name": "_borrower",
          "type": "address"
        },
        {
          "indexed": false,
          "internalType": "uint256",
          "name": "_newIndex",
          "type": "uint256"
        }
      ],
      "name": "TroveIndexUpdated",
      "type": "event"
    },
    {
      "anonymous": false,
      "inputs": [
        {
          "indexed": true,
          "internalType": "address",
          "name": "_borrower",
          "type": "address"
        },
        {
          "indexed": false,
          "internalType": "uint256",
          "name": "_debt",
          "type": "uint256"
        },
        {
          "indexed": false,
          "internalType": "uint256",
          "name": "_coll",
          "type": "uint256"
        },
        {
          "indexed": false,
          "internalType": "uint8",
          "name": "operation",
          "type": "uint8"
        }
      ],
      "name": "TroveLiquidated",
      "type": "event"
    },
    {
      "anonymous": false,
      "inputs": [
        {
          "indexed": false,
          "internalType": "uint256",
          "name": "_L_Coll",
          "type": "uint256"
        },
        {
          "indexed": false,
          "internalType": "uint256",
          "name": "_L_Debt",
          "type": "uint256"
        }
      ],
      "name": "TroveSnapshotsUpdated",
      "type": "event"
    },
    {
      "anonymous": false,
      "inputs": [
        {
          "indexed": true,
          "internalType": "address",
          "name": "_borrower",
          "type": "address"
        },
        {
          "indexed": false,
          "internalType": "uint256",
          "name": "_debt",
          "type": "uint256"
        },
        {
          "indexed": false,
          "internalType": "uint256",
          "name": "_coll",
          "type": "uint256"
        },
        {
          "indexed": false,
          "internalType": "uint256",
          "name": "_borrowingFee",
          "type": "uint256"
        },
        {
          "indexed": false,
          "internalType": "uint256",
          "name": "_stake",
          "type": "uint256"
        },
        {
          "indexed": false,
          "internalType": "enum IBase.TroveOperation",
          "name": "_operation",
          "type": "uint8"
        }
      ],
      "name": "TroveUpdated",
      "type": "event"
    },
    {
      "inputs": [],
      "name": "BETA",
      "outputs": [
        {
          "internalType": "uint256",
          "name": "",
          "type": "uint256"
        }
      ],
      "stateMutability": "view",
      "type": "function"
    },
    {
      "inputs": [],
      "name": "BOOTSTRAP_PERIOD",
      "outputs": [
        {
          "internalType": "uint256",
          "name": "",
          "type": "uint256"
        }
      ],
      "stateMutability": "view",
      "type": "function"
    },
    {
      "inputs": [],
      "name": "BORROWING_FEE_FLOOR",
      "outputs": [
        {
          "internalType": "uint256",
          "name": "",
          "type": "uint256"
        }
      ],
      "stateMutability": "view",
      "type": "function"
    },
    {
      "inputs": [],
      "name": "CCR",
      "outputs": [
        {
          "internalType": "uint256",
          "name": "",
          "type": "uint256"
        }
      ],
      "stateMutability": "view",
      "type": "function"
    },
    {
      "inputs": [],
      "name": "DAI_GAS_COMPENSATION",
      "outputs": [
        {
          "internalType": "uint256",
          "name": "",
          "type": "uint256"
        }
      ],
      "stateMutability": "view",
      "type": "function"
    },
    {
      "inputs": [],
      "name": "DECIMAL_PRECISION",
      "outputs": [
        {
          "internalType": "uint256",
          "name": "",
          "type": "uint256"
        }
      ],
      "stateMutability": "view",
      "type": "function"
    },
    {
      "inputs": [],
      "name": "HALF_PERCENT_DIVISOR",
      "outputs": [
        {
          "internalType": "uint256",
          "name": "",
          "type": "uint256"
        }
      ],
      "stateMutability": "view",
      "type": "function"
    },
    {
      "inputs": [],
      "name": "L_Coll",
      "outputs": [
        {
          "internalType": "uint256",
          "name": "",
          "type": "uint256"
        }
      ],
      "stateMutability": "view",
      "type": "function"
    },
    {
      "inputs": [],
      "name": "L_Debt",
      "outputs": [
        {
          "internalType": "uint256",
          "name": "",
          "type": "uint256"
        }
      ],
      "stateMutability": "view",
      "type": "function"
    },
    {
      "inputs": [],
      "name": "MAX_BORROWING_FEE",
      "outputs": [
        {
          "internalType": "uint256",
          "name": "",
          "type": "uint256"
        }
      ],
      "stateMutability": "view",
      "type": "function"
    },
    {
      "inputs": [],
      "name": "MAX_UINT",
      "outputs": [
        {
          "internalType": "uint256",
          "name": "",
          "type": "uint256"
        }
      ],
      "stateMutability": "view",
      "type": "function"
    },
    {
      "inputs": [],
      "name": "MCR",
      "outputs": [
        {
          "internalType": "uint256",
          "name": "",
          "type": "uint256"
        }
      ],
      "stateMutability": "view",
      "type": "function"
    },
    {
      "inputs": [],
      "name": "MINUTE_DECAY_FACTOR",
      "outputs": [
        {
          "internalType": "uint256",
          "name": "",
          "type": "uint256"
        }
      ],
      "stateMutability": "view",
      "type": "function"
    },
    {
      "inputs": [],
      "name": "MIN_NET_DEBT",
      "outputs": [
        {
          "internalType": "uint256",
          "name": "",
          "type": "uint256"
        }
      ],
      "stateMutability": "view",
      "type": "function"
    },
    {
      "inputs": [],
      "name": "REDEMPTION_FEE_FLOOR",
      "outputs": [
        {
          "internalType": "uint256",
          "name": "",
          "type": "uint256"
        }
      ],
      "stateMutability": "view",
      "type": "function"
    },
    {
      "inputs": [],
      "name": "SECONDS_IN_ONE_MINUTE",
      "outputs": [
        {
          "internalType": "uint256",
          "name": "",
          "type": "uint256"
        }
      ],
      "stateMutability": "view",
      "type": "function"
    },
    {
      "inputs": [
        {
          "internalType": "uint256",
          "name": "",
          "type": "uint256"
        }
      ],
      "name": "TroveOwners",
      "outputs": [
        {
          "internalType": "address",
          "name": "",
          "type": "address"
        }
      ],
      "stateMutability": "view",
      "type": "function"
    },
    {
      "inputs": [
        {
          "internalType": "address",
          "name": "",
          "type": "address"
        }
      ],
      "name": "Troves",
      "outputs": [
        {
          "internalType": "uint256",
          "name": "debt",
          "type": "uint256"
        },
        {
          "internalType": "uint256",
          "name": "coll",
          "type": "uint256"
        },
        {
          "internalType": "uint256",
          "name": "stake",
          "type": "uint256"
        },
        {
          "internalType": "enum IBase.TroveStatus",
          "name": "status",
          "type": "uint8"
        },
        {
          "internalType": "uint128",
          "name": "arrayIndex",
          "type": "uint128"
        }
      ],
      "stateMutability": "view",
      "type": "function"
    },
    {
      "inputs": [],
      "name": "activePool",
      "outputs": [
        {
          "internalType": "contract IActivePool",
          "name": "",
          "type": "address"
        }
      ],
      "stateMutability": "view",
      "type": "function"
    },
    {
      "inputs": [
        {
          "internalType": "address",
          "name": "_borrower",
          "type": "address"
        }
      ],
      "name": "addTroveOwnerToArray",
      "outputs": [
        {
          "internalType": "uint256",
          "name": "index",
          "type": "uint256"
        }
      ],
      "stateMutability": "nonpayable",
      "type": "function"
    },
    {
      "inputs": [
        {
          "internalType": "address",
          "name": "_borrower",
          "type": "address"
        }
      ],
      "name": "applyPendingRewards",
      "outputs": [],
      "stateMutability": "nonpayable",
      "type": "function"
    },
    {
      "inputs": [],
      "name": "baseRate",
      "outputs": [
        {
          "internalType": "uint256",
          "name": "",
          "type": "uint256"
        }
      ],
      "stateMutability": "view",
      "type": "function"
    },
    {
      "inputs": [
        {
          "internalType": "address[]",
          "name": "_troveArray",
          "type": "address[]"
        }
      ],
      "name": "batchLiquidateTroves",
      "outputs": [],
      "stateMutability": "nonpayable",
      "type": "function"
    },
    {
      "inputs": [],
      "name": "borrowerOperations",
      "outputs": [
        {
          "internalType": "contract IBorrowerOperations",
          "name": "",
          "type": "address"
        }
      ],
      "stateMutability": "view",
      "type": "function"
    },
    {
      "inputs": [
        {
          "internalType": "address",
          "name": "_borrower",
          "type": "address"
        }
      ],
      "name": "closeTrove",
      "outputs": [],
      "stateMutability": "nonpayable",
      "type": "function"
    },
    {
      "inputs": [],
      "name": "collSurplusPool",
      "outputs": [
        {
          "internalType": "contract ICollSurplusPool",
          "name": "",
          "type": "address"
        }
      ],
      "stateMutability": "view",
      "type": "function"
    },
    {
      "inputs": [],
      "name": "core",
      "outputs": [
        {
          "internalType": "contract ICore",
          "name": "",
          "type": "address"
        }
      ],
      "stateMutability": "view",
      "type": "function"
    },
    {
      "inputs": [],
      "name": "decayBaseRateFromBorrowing",
      "outputs": [],
      "stateMutability": "nonpayable",
      "type": "function"
    },
    {
      "inputs": [
        {
          "internalType": "address",
          "name": "_borrower",
          "type": "address"
        },
        {
          "internalType": "uint256",
          "name": "_collDecrease",
          "type": "uint256"
        }
      ],
      "name": "decreaseTroveColl",
      "outputs": [
        {
          "internalType": "uint256",
          "name": "",
          "type": "uint256"
        }
      ],
      "stateMutability": "nonpayable",
      "type": "function"
    },
    {
      "inputs": [
        {
          "internalType": "address",
          "name": "_borrower",
          "type": "address"
        },
        {
          "internalType": "uint256",
          "name": "_debtDecrease",
          "type": "uint256"
        }
      ],
      "name": "decreaseTroveDebt",
      "outputs": [
        {
          "internalType": "uint256",
          "name": "",
          "type": "uint256"
        }
      ],
      "stateMutability": "nonpayable",
      "type": "function"
    },
    {
      "inputs": [],
      "name": "defaultPool",
      "outputs": [
        {
          "internalType": "contract IDefaultPool",
          "name": "",
          "type": "address"
        }
      ],
      "stateMutability": "view",
      "type": "function"
    },
    {
      "inputs": [],
      "name": "gemToken",
      "outputs": [
        {
          "internalType": "contract IERC20",
          "name": "",
          "type": "address"
        }
      ],
      "stateMutability": "view",
      "type": "function"
    },
    {
      "inputs": [
        {
          "internalType": "uint256",
          "name": "_debt",
          "type": "uint256"
        },
        {
          "internalType": "uint256",
          "name": "_price",
          "type": "uint256"
        }
      ],
      "name": "getBorrowingFee",
      "outputs": [
        {
          "internalType": "uint256",
          "name": "",
          "type": "uint256"
        }
      ],
      "stateMutability": "view",
      "type": "function"
    },
    {
      "inputs": [
        {
          "internalType": "uint256",
          "name": "_debt",
          "type": "uint256"
        },
        {
          "internalType": "uint256",
          "name": "_price",
          "type": "uint256"
        }
      ],
      "name": "getBorrowingFeeWithDecay",
      "outputs": [
        {
          "internalType": "uint256",
          "name": "",
          "type": "uint256"
        }
      ],
      "stateMutability": "view",
      "type": "function"
    },
    {
      "inputs": [],
      "name": "getBorrowingRate",
      "outputs": [
        {
          "internalType": "uint256",
          "name": "",
          "type": "uint256"
        }
      ],
      "stateMutability": "view",
      "type": "function"
    },
    {
      "inputs": [],
      "name": "getBorrowingRateWithDecay",
      "outputs": [
        {
          "internalType": "uint256",
          "name": "",
          "type": "uint256"
        }
      ],
      "stateMutability": "view",
      "type": "function"
    },
    {
      "inputs": [
        {
          "internalType": "address",
          "name": "_borrower",
          "type": "address"
        },
        {
          "internalType": "uint256",
          "name": "_price",
          "type": "uint256"
        }
      ],
      "name": "getCurrentICR",
      "outputs": [
        {
          "internalType": "uint256",
          "name": "",
          "type": "uint256"
        }
      ],
      "stateMutability": "view",
      "type": "function"
    },
    {
      "inputs": [
        {
          "internalType": "address",
          "name": "_borrower",
          "type": "address"
        }
      ],
      "name": "getEntireDebtAndColl",
      "outputs": [
        {
          "internalType": "uint256",
          "name": "debt",
          "type": "uint256"
        },
        {
          "internalType": "uint256",
          "name": "coll",
          "type": "uint256"
        },
        {
          "internalType": "uint256",
          "name": "pendingDebtReward",
          "type": "uint256"
        },
        {
          "internalType": "uint256",
          "name": "pendingCollReward",
          "type": "uint256"
        }
      ],
      "stateMutability": "view",
      "type": "function"
    },
    {
      "inputs": [],
      "name": "getEntireSystemColl",
      "outputs": [
        {
          "internalType": "uint256",
          "name": "entireSystemColl",
          "type": "uint256"
        }
      ],
      "stateMutability": "view",
      "type": "function"
    },
    {
      "inputs": [],
      "name": "getEntireSystemDebt",
      "outputs": [
        {
          "internalType": "uint256",
          "name": "entireSystemDebt",
          "type": "uint256"
        }
      ],
      "stateMutability": "view",
      "type": "function"
    },
    {
      "inputs": [
        {
          "internalType": "address",
          "name": "_borrower",
          "type": "address"
        }
      ],
      "name": "getNominalICR",
      "outputs": [
        {
          "internalType": "uint256",
          "name": "",
          "type": "uint256"
        }
      ],
      "stateMutability": "view",
      "type": "function"
    },
    {
      "inputs": [
        {
          "internalType": "address",
          "name": "_borrower",
          "type": "address"
        }
      ],
      "name": "getPendingCollReward",
      "outputs": [
        {
          "internalType": "uint256",
          "name": "",
          "type": "uint256"
        }
      ],
      "stateMutability": "view",
      "type": "function"
    },
    {
      "inputs": [
        {
          "internalType": "address",
          "name": "_borrower",
          "type": "address"
        }
      ],
      "name": "getPendingDebtReward",
      "outputs": [
        {
          "internalType": "uint256",
          "name": "",
          "type": "uint256"
        }
      ],
      "stateMutability": "view",
      "type": "function"
    },
    {
      "inputs": [
        {
          "internalType": "uint256",
          "name": "_collDrawn",
          "type": "uint256"
        }
      ],
      "name": "getRedemptionFeeWithDecay",
      "outputs": [
        {
          "internalType": "uint256",
          "name": "",
          "type": "uint256"
        }
      ],
      "stateMutability": "view",
      "type": "function"
    },
    {
      "inputs": [],
      "name": "getRedemptionRate",
      "outputs": [
        {
          "internalType": "uint256",
          "name": "",
          "type": "uint256"
        }
      ],
      "stateMutability": "view",
      "type": "function"
    },
    {
      "inputs": [],
      "name": "getRedemptionRateWithDecay",
      "outputs": [
        {
          "internalType": "uint256",
          "name": "",
          "type": "uint256"
        }
      ],
      "stateMutability": "view",
      "type": "function"
    },
    {
      "inputs": [
        {
          "internalType": "uint256",
          "name": "_price",
          "type": "uint256"
        }
      ],
      "name": "getTCR",
      "outputs": [
        {
          "internalType": "uint256",
          "name": "",
          "type": "uint256"
        }
      ],
      "stateMutability": "view",
      "type": "function"
    },
    {
      "inputs": [
        {
          "internalType": "address",
          "name": "_borrower",
          "type": "address"
        }
      ],
      "name": "getTroveColl",
      "outputs": [
        {
          "internalType": "uint256",
          "name": "",
          "type": "uint256"
        }
      ],
      "stateMutability": "view",
      "type": "function"
    },
    {
      "inputs": [
        {
          "internalType": "address",
          "name": "_borrower",
          "type": "address"
        }
      ],
      "name": "getTroveDebt",
      "outputs": [
        {
          "internalType": "uint256",
          "name": "",
          "type": "uint256"
        }
      ],
      "stateMutability": "view",
      "type": "function"
    },
    {
      "inputs": [
        {
          "internalType": "uint256",
          "name": "_index",
          "type": "uint256"
        }
      ],
      "name": "getTroveFromTroveOwnersArray",
      "outputs": [
        {
          "internalType": "address",
          "name": "",
          "type": "address"
        }
      ],
      "stateMutability": "view",
      "type": "function"
    },
    {
      "inputs": [],
      "name": "getTroveOwnersCount",
      "outputs": [
        {
          "internalType": "uint256",
          "name": "",
          "type": "uint256"
        }
      ],
      "stateMutability": "view",
      "type": "function"
    },
    {
      "inputs": [
        {
          "internalType": "address",
          "name": "_borrower",
          "type": "address"
        }
      ],
      "name": "getTroveStake",
      "outputs": [
        {
          "internalType": "uint256",
          "name": "",
          "type": "uint256"
        }
      ],
      "stateMutability": "view",
      "type": "function"
    },
    {
      "inputs": [
        {
          "internalType": "address",
          "name": "_borrower",
          "type": "address"
        }
      ],
      "name": "getTroveStatus",
      "outputs": [
        {
          "internalType": "enum IBase.TroveStatus",
          "name": "",
          "type": "uint8"
        }
      ],
      "stateMutability": "view",
      "type": "function"
    },
    {
      "inputs": [
        {
          "internalType": "address",
          "name": "_borrower",
          "type": "address"
        }
      ],
      "name": "hasPendingRewards",
      "outputs": [
        {
          "internalType": "bool",
          "name": "",
          "type": "bool"
        }
      ],
      "stateMutability": "view",
      "type": "function"
    },
    {
      "inputs": [
        {
          "internalType": "address",
          "name": "_borrower",
          "type": "address"
        },
        {
          "internalType": "uint256",
          "name": "_collIncrease",
          "type": "uint256"
        }
      ],
      "name": "increaseTroveColl",
      "outputs": [
        {
          "internalType": "uint256",
          "name": "",
          "type": "uint256"
        }
      ],
      "stateMutability": "nonpayable",
      "type": "function"
    },
    {
      "inputs": [
        {
          "internalType": "address",
          "name": "_borrower",
          "type": "address"
        },
        {
          "internalType": "uint256",
          "name": "_debtIncrease",
          "type": "uint256"
        }
      ],
      "name": "increaseTroveDebt",
      "outputs": [
        {
          "internalType": "uint256",
          "name": "",
          "type": "uint256"
        }
      ],
      "stateMutability": "nonpayable",
      "type": "function"
    },
    {
      "inputs": [],
      "name": "lastCollError_Redistribution",
      "outputs": [
        {
          "internalType": "uint256",
          "name": "",
          "type": "uint256"
        }
      ],
      "stateMutability": "view",
      "type": "function"
    },
    {
      "inputs": [],
      "name": "lastDebtError_Redistribution",
      "outputs": [
        {
          "internalType": "uint256",
          "name": "",
          "type": "uint256"
        }
      ],
      "stateMutability": "view",
      "type": "function"
    },
    {
      "inputs": [],
      "name": "lastFeeOperationTime",
      "outputs": [
        {
          "internalType": "uint256",
          "name": "",
          "type": "uint256"
        }
      ],
      "stateMutability": "view",
      "type": "function"
    },
    {
      "inputs": [
        {
          "internalType": "address",
          "name": "_borrower",
          "type": "address"
        }
      ],
      "name": "liquidate",
      "outputs": [],
      "stateMutability": "nonpayable",
      "type": "function"
    },
    {
      "inputs": [
        {
          "internalType": "uint256",
          "name": "_n",
          "type": "uint256"
        }
      ],
      "name": "liquidateTroves",
      "outputs": [],
      "stateMutability": "nonpayable",
      "type": "function"
    },
    {
      "inputs": [],
      "name": "myoStaking",
      "outputs": [
        {
          "internalType": "contract IMYOStaking",
          "name": "",
          "type": "address"
        }
      ],
      "stateMutability": "view",
      "type": "function"
    },
    {
      "inputs": [],
      "name": "myoToken",
      "outputs": [
        {
          "internalType": "contract IMYOToken",
          "name": "",
          "type": "address"
        }
      ],
      "stateMutability": "view",
      "type": "function"
    },
    {
      "inputs": [],
      "name": "paiToken",
      "outputs": [
        {
          "internalType": "contract IPAIToken",
          "name": "",
          "type": "address"
        }
      ],
      "stateMutability": "view",
      "type": "function"
    },
    {
      "inputs": [],
      "name": "priceFeed",
      "outputs": [
        {
          "internalType": "contract IPriceFeed",
          "name": "",
          "type": "address"
        }
      ],
      "stateMutability": "view",
      "type": "function"
    },
    {
      "inputs": [
        {
          "internalType": "uint256",
          "name": "_paiAmount",
          "type": "uint256"
        },
        {
          "internalType": "address",
          "name": "_firstRedemptionHint",
          "type": "address"
        },
        {
          "internalType": "address",
          "name": "_upperPartialRedemptionHint",
          "type": "address"
        },
        {
          "internalType": "address",
          "name": "_lowerPartialRedemptionHint",
          "type": "address"
        },
        {
          "internalType": "uint256",
          "name": "_partialRedemptionHintNICR",
          "type": "uint256"
        },
        {
          "internalType": "uint256",
          "name": "_maxIterations",
          "type": "uint256"
        },
        {
          "internalType": "uint256",
          "name": "_maxFeePercentage",
          "type": "uint256"
        }
      ],
      "name": "redeemCollateral",
      "outputs": [],
      "stateMutability": "nonpayable",
      "type": "function"
    },
    {
      "inputs": [
        {
          "internalType": "address",
          "name": "_borrower",
          "type": "address"
        }
      ],
      "name": "removeStake",
      "outputs": [],
      "stateMutability": "nonpayable",
      "type": "function"
    },
    {
      "inputs": [
        {
          "internalType": "address",
          "name": "",
          "type": "address"
        }
      ],
      "name": "rewardSnapshots",
      "outputs": [
        {
          "internalType": "uint256",
          "name": "coll",
          "type": "uint256"
        },
        {
          "internalType": "uint256",
          "name": "debt",
          "type": "uint256"
        }
      ],
      "stateMutability": "view",
      "type": "function"
    },
    {
      "inputs": [
        {
          "internalType": "address",
          "name": "_borrower",
          "type": "address"
        },
        {
          "internalType": "uint256",
          "name": "_num",
          "type": "uint256"
        }
      ],
      "name": "setTroveStatus",
      "outputs": [],
      "stateMutability": "nonpayable",
      "type": "function"
    },
    {
      "inputs": [],
      "name": "sortedTroves",
      "outputs": [
        {
          "internalType": "contract ISortedTroves",
          "name": "",
          "type": "address"
        }
      ],
      "stateMutability": "view",
      "type": "function"
    },
    {
      "inputs": [],
      "name": "totalCollateralSnapshot",
      "outputs": [
        {
          "internalType": "uint256",
          "name": "",
          "type": "uint256"
        }
      ],
      "stateMutability": "view",
      "type": "function"
    },
    {
      "inputs": [],
      "name": "totalStakes",
      "outputs": [
        {
          "internalType": "uint256",
          "name": "",
          "type": "uint256"
        }
      ],
      "stateMutability": "view",
      "type": "function"
    },
    {
      "inputs": [],
      "name": "totalStakesSnapshot",
      "outputs": [
        {
          "internalType": "uint256",
          "name": "",
          "type": "uint256"
        }
      ],
      "stateMutability": "view",
      "type": "function"
    },
    {
      "inputs": [
        {
          "internalType": "address",
          "name": "_borrower",
          "type": "address"
        }
      ],
      "name": "updateStakeAndTotalStakes",
      "outputs": [
        {
          "internalType": "uint256",
          "name": "",
          "type": "uint256"
        }
      ],
      "stateMutability": "nonpayable",
      "type": "function"
    },
    {
      "inputs": [
        {
          "internalType": "address",
          "name": "_borrower",
          "type": "address"
        }
      ],
      "name": "updateTroveRewardSnapshots",
      "outputs": [],
      "stateMutability": "nonpayable",
      "type": "function"
    },
    {
      "inputs": [],
      "name": "vault",
      "outputs": [
        {
          "internalType": "contract IVault",
          "name": "",
          "type": "address"
        }
      ],
      "stateMutability": "view",
      "type": "function"
    }
  ],
  "transactionHash": "0x16087477175570aa33dea0f4e9241a39e88757639cc2505af029e09cfff46565",
  "args": [
    "0x37F6DFa518E3708727E7eD3CbF5cA3641412890e"
  ],
  "numDeployments": 2,
  "solcInputHash": "8aa079dc372efa4fb72dddab2b66ad11",
  "bytecode": "0x60a06040526000196000553480156200001757600080fd5b5060405162004de438038062004de48339810160408190526200003a916200010e565b8062000046816200005d565b60601b6001600160601b031916608052506200013e565b6001600160a01b038116620000b95760405162461bcd60e51b815260206004820152601e60248201527f4163636f756e742063616e6e6f74206265207a65726f2061646472657373000060448201526064015b60405180910390fd5b803b806200010a5760405162461bcd60e51b815260206004820181905260248201527f4163636f756e7420636f64652073697a652063616e6e6f74206265207a65726f6044820152606401620000b0565b5050565b60006020828403121562000120578081fd5b81516001600160a01b038116811462000137578182fd5b9392505050565b60805160601c614c3a620001aa600039600081816108fe01528181610da2015281816110970152818161111c015281816112810152818161144d015281816114a801528181611cc401528181611f3501528181611fc801528181612034015261208f0152614c3a6000f3fe608060405234801561001057600080fd5b50600436106104145760003560e01c8063887105d311610221578063d1149b851161012b578063e2d8ef8d116100c3578063f92d343311610087578063f92d343314610537578063fbfa77cf1461093b578063fe2ba84814610943578063ff2fb57c14610956578063fff298df1461095e57610414565b8063e2d8ef8d146108e8578063e5b5019a146108f0578063f2f4eb26146108f9578063f36b242514610920578063f59fac2d1461092857610414565b8063d1149b8514610825578063d293c71014610838578063d380a37c1461084b578063d3c2f3c114610854578063d3d6f84314610863578063d5b3563514610876578063d66a255314610889578063d9a72444146108b2578063e2ac77b0146108c557610414565b8063b0d8e181116101b9578063c35bc5501161017d578063c35bc550146107e9578063c52861f2146107f3578063c7b55481146107fb578063cbd138ae1461080a578063cda775f91461081d57610414565b8063b0d8e18114610774578063b82f263d14610787578063b91af97c1461079a578063bcd37526146107cd578063bf9befb1146107e057610414565b8063887105d31461070d57806389a8872f14610715578063915713841461071d57806396d711ff146107305780639976cf45146107395780639e8ef3901461074c5780639ed7254214610754578063a20baee61461075d578063ae9187541461076c57610414565b80635733d58f116103225780636ef64338116102ba578063794e57241161027e578063794e5724146106d2578063795d26c3146106e15780637f7dde4a146106e9578063807d138d146106f157806382fe3eb9146106fa57610414565b80636ef643381461064257806372423c171461069c578063741bef1a146106af578063756b253e146106b757806377553ad4146106ca57610414565b80635733d58f146105ad5780635d6b480f146105bc5780635dba4c4a146105cf5780635f94c327146105d757806361ec893d146105ea57806364cee260146105f2578063653d46e71461061e57806366ca4a21146106315780636752be4f1461063957610414565b80631f68f20a116103b05780632f865568116103745780632f8655681461054757806331eaf05c1461055a5780633cc7422514610563578063480cd5781461057857806349eefeee146105a557610414565b80631f68f20a146104ea57806321e37801146104f3578063240926691461052f57806328d28b5b146105375780632b11551a1461053f57610414565b8063071a7541146104195780630ae72619146104345780630b0765571461043d57806312610e921461045257806315d549f1146104655780631673c79a1461047857806318f2817a146104b45780631bf43555146104c75780631e8b1c2b146104d7575b600080fd5b610421600281565b6040519081526020015b60405180910390f35b61042160055481565b61045061044b366004614801565b610966565b005b610421610460366004614839565b610972565b610421610473366004614801565b6109d8565b61049f610486366004614801565b6002602052600090815260409020805460019091015482565b6040805192835260208301919091520161042b565b6104216104c2366004614801565b6109fc565b610421686194049f30f720000081565b6104506104e5366004614864565b610a07565b610421600b5481565b610522610501366004614801565b6001600160a01b031660009081526001602052604090206003015460ff1690565b60405161042b9190614a5a565b610421610cdd565b610421610cfe565b610421610d12565b610450610555366004614801565b610d24565b61042160065481565b61056b610d9e565b60405161042b9190614a2d565b610421610586366004614801565b6001600160a01b03166000908152600160208190526040909120015490565b600a54610421565b6104216714d1120d7b16000081565b6104506105ca366004614839565b610e31565b610450610eab565b6104216105e53660046149e8565b610f25565b610421603c81565b610421610600366004614801565b6001600160a01b031660009081526001602052604090206002015490565b61045061062c36600461494b565b610f40565b61042161101f565b61042160035481565b61068b610650366004614801565b6001602081905260009182526040909120805491810154600282015460039092015490919060ff81169061010090046001600160801b031685565b60405161042b959493929190614a92565b6104216106aa366004614839565b611031565b61056b611093565b61056b6106c536600461494b565b6110ee565b61056b611118565b610421670f43fc2c04ee000081565b610421611173565b61056b61127d565b61042160085481565b610450610708366004614801565b6112d8565b610421611347565b61042160c881565b61042161072b3660046149e8565b611406565b61042160095481565b610421610747366004614839565b611413565b61056b611449565b61042160045481565b610421670de0b6b3a764000081565b61056b6114a4565b610421610782366004614801565b6114ff565b61042161079536600461494b565b611526565b6107ad6107a8366004614801565b611531565b60408051948552602085019390935291830152606082015260800161042b565b6104506107db36600461497b565b611588565b61042160075481565b6104216212750081565b610421611c9b565b610421670ddd4b8c6c7d70d881565b610450610818366004614801565b611cad565b61056b611cc0565b610421610833366004614801565b611d1b565b610421610846366004614839565b611de3565b610421600c5481565b610421671bc16d674ec8000081565b610421610871366004614839565b611e02565b61042161088436600461494b565b611e6e565b610421610897366004614801565b6001600160a01b031660009081526001602052604090205490565b61056b6108c036600461494b565b611e81565b6108d86108d3366004614801565b611ebf565b604051901515815260200161042b565b61056b611f31565b61042160005481565b61056b7f000000000000000000000000000000000000000000000000000000000000000081565b610421611f8c565b610421610936366004614801565b611f99565b61056b611fc4565b610450610951366004614801565b61201f565b61056b612030565b61056b61208b565b61096f816120e6565b50565b600061097c6121e1565b6109858361225c565b61098f83836122e9565b6001600160a01b0383166000908152600160205260408120546109b3908490614b1a565b6001600160a01b03851660009081526001602052604090208190559150505b92915050565b60006109e26121e1565b6109eb82612377565b6001600160801b031690505b919050565b60006109d282612411565b8051610a725760405162461bcd60e51b815260206004820152602f60248201527f5661756c743a2043616c6c646174612061646472657373206172726179206d7560448201526e7374206e6f7420626520656d70747960881b60648201526084015b60405180910390fd5b610a9f60405180608001604052806000815260200160001515815260200160008152602001600081525090565b610aa7614778565b610aaf611093565b6001600160a01b0316630fdb11cf6040518163ffffffff1660e01b8152600401602060405180830381600087803b158015610ae957600080fd5b505af1158015610afd573d6000803e3d6000fd5b505050506040513d601f19601f82011682018060405250810190610b219190614963565b808352610b2d906124b5565b1580156020840152610b4c578151610b4590846124d2565b9050610b5b565b8151610b5890846126a6565b90505b6000816020015111610baf5760405162461bcd60e51b815260206004820152601b60248201527f5661756c743a206e6f7468696e6720746f206c697175696461746500000000006044820152606401610a69565b610bc181608001518260a0015161275c565b60c081015115610c3e57610bd361127d565b6001600160a01b0316639f4e511e610be9611cc0565b8360c001516040518363ffffffff1660e01b8152600401610c0b929190614a41565b600060405180830381600087803b158015610c2557600080fd5b505af1158015610c39573d6000803e3d6000fd5b505050505b610c4b81604001516129c0565b602081015160408084019190915260c0820151908201518251610c799291610c739190612b17565b90612b17565b60608381018290526040808501518482015182519182526020820194909452908101929092527fc5cb827645ffa2009bf4c45a58df393302651bf85a1f49ba3bd75c05032bcde2910160405180910390a1610cd8338260400151612b23565b505050565b610cf06064670de0b6b3a7640000614ae7565b610cfb906005614afb565b81565b610cf06103e8670de0b6b3a7640000614ae7565b6000610d1f600b54612b94565b905090565b610d2d8161225c565b604080516001808252818301909252600091602080830190803683370190505090508181600081518110610d7157634e487b7160e01b600052603260045260246000fd5b60200260200101906001600160a01b031690816001600160a01b031681525050610d9a81610a07565b5050565b60007f00000000000000000000000000000000000000000000000000000000000000006001600160a01b0316633cc742256040518163ffffffff1660e01b815260040160206040518083038186803b158015610df957600080fd5b505afa158015610e0d573d6000803e3d6000fd5b505050506040513d601f19601f82011682018060405250810190610d1f919061481d565b610e396121e1565b806004811115610e5957634e487b7160e01b600052602160045260246000fd5b6001600160a01b03831660009081526001602081905260409091206003018054909160ff1990911690836004811115610ea257634e487b7160e01b600052602160045260246000fd5b02179055505050565b610eb36121e1565b6000610ebd612bca565b9050670de0b6b3a7640000811115610ee557634e487b7160e01b600052600160045260246000fd5b600b8190556040518181527fc454ee9b76c52f782a256af821b857ca6e125d1e3333bcede402fec2bed9600c9060200160405180910390a161096f612c0e565b6000610f39610f3261101f565b8484612c65565b9392505050565b610f6d60405180608001604052806000815260200160001515815260200160008152602001600081525090565b610f75614778565b610f7d611093565b6001600160a01b0316630fdb11cf6040518163ffffffff1660e01b8152600401602060405180830381600087803b158015610fb757600080fd5b505af1158015610fcb573d6000803e3d6000fd5b505050506040513d601f19601f82011682018060405250810190610fef9190614963565b808352610ffb906124b5565b1580156020840152611013578151610b459084612c96565b8151610b589084612fb4565b6000610d1f61102c612bca565b6130bb565b600061103b6121e1565b6110448361225c565b6001600160a01b03831660009081526001602081905260408220015461106b908490614acf565b6001600160a01b03851660009081526001602081905260409091200181905591505092915050565b60007f00000000000000000000000000000000000000000000000000000000000000006001600160a01b031663741bef1a6040518163ffffffff1660e01b815260040160206040518083038186803b158015610df957600080fd5b600a81815481106110fe57600080fd5b6000918252602090912001546001600160a01b0316905081565b60007f00000000000000000000000000000000000000000000000000000000000000006001600160a01b03166377553ad46040518163ffffffff1660e01b815260040160206040518083038186803b158015610df957600080fd5b60008061117e61127d565b6001600160a01b03166314a6bf0f6040518163ffffffff1660e01b815260040160206040518083038186803b1580156111b657600080fd5b505afa1580156111ca573d6000803e3d6000fd5b505050506040513d601f19601f820116820180604052508101906111ee9190614963565b905060006111fa610d9e565b6001600160a01b03166314a6bf0f6040518163ffffffff1660e01b815260040160206040518083038186803b15801561123257600080fd5b505afa158015611246573d6000803e3d6000fd5b505050506040513d601f19601f8201168201806040525081019061126a9190614963565b905061127682826130fb565b9250505090565b60007f00000000000000000000000000000000000000000000000000000000000000006001600160a01b0316637f7dde4a6040518163ffffffff1660e01b815260040160206040518083038186803b158015610df957600080fd5b600580546001600160a01b038316600090815260026020526040908190209182556006546001909201829055915491517fc437f324d85e369394148dd9d62f98f534b382e01ed3dd2eb98138fb6d3ab49a9261133c92908252602082015260400190565b60405180910390a150565b60008061135261127d565b6001600160a01b03166388bf5a9b6040518163ffffffff1660e01b815260040160206040518083038186803b15801561138a57600080fd5b505afa15801561139e573d6000803e3d6000fd5b505050506040513d601f19601f820116820180604052508101906113c29190614963565b905060006113ce610d9e565b6001600160a01b03166388bf5a9b6040518163ffffffff1660e01b815260040160206040518083038186803b15801561123257600080fd5b6000610f39610f32611f8c565b600061141d6121e1565b6114268361225c565b6001600160a01b0383166000908152600160205260408120546109b390846130fb565b60007f00000000000000000000000000000000000000000000000000000000000000006001600160a01b0316639e8ef3906040518163ffffffff1660e01b815260040160206040518083038186803b158015610df957600080fd5b60007f00000000000000000000000000000000000000000000000000000000000000006001600160a01b031663ae9187546040518163ffffffff1660e01b815260040160206040518083038186803b158015610df957600080fd5b600080600061150d84613107565b91509150600061151d8383613181565b95945050505050565b60006109d2826131b0565b6001600160a01b03811660009081526001602081905260408220805491015490918061155c85611f99565b915061156785611d1b565b905061157384836130fb565b935061157f83826130fb565b92509193509193565b6115d76040518061012001604052806000815260200160008152602001600081526020016000815260200160008152602001600081526020016000815260200160008152602001600081525090565b6115e0826131dc565b6115e861327e565b6115f0611093565b6001600160a01b0316630fdb11cf6040518163ffffffff1660e01b8152600401602060405180830381600087803b15801561162a57600080fd5b505af115801561163e573d6000803e3d6000fd5b505050506040513d601f19601f820116820180604052508101906116629190614963565b60e0820181905261167290613378565b61167b886133e4565b6116853389613444565b61168d611173565b610100820181905261169d611449565b6001600160a01b03166370a08231336040518263ffffffff1660e01b81526004016116c89190614a2d565b60206040518083038186803b1580156116e057600080fd5b505afa1580156116f4573d6000803e3d6000fd5b505050506040513d601f19601f820116820180604052508101906117189190614963565b111561173457634e487b7160e01b600052600160045260246000fd5b87815260e081015160009061174a90899061354b565b1561175657508661188c565b61175e6114a4565b6001600160a01b0316634d6228316040518163ffffffff1660e01b815260040160206040518083038186803b15801561179657600080fd5b505afa1580156117aa573d6000803e3d6000fd5b505050506040513d601f19601f820116820180604052508101906117ce919061481d565b90505b6001600160a01b038116158015906117fd5750670f43fc2c04ee00006117fb828460e00151611de3565b105b1561188c5761180a6114a4565b6001600160a01b031663b72703ac826040518263ffffffff1660e01b81526004016118359190614a2d565b60206040518083038186803b15801561184d57600080fd5b505afa158015611861573d6000803e3d6000fd5b505050506040513d601f19601f82011682018060405250810190611885919061481d565b90506117d1565b836118975760005493505b6001600160a01b038116158015906118af5750815115155b80156118bb5750600084115b156119ce57836118ca81614b31565b94505060006118d76114a4565b6001600160a01b031663b72703ac836040518263ffffffff1660e01b81526004016119029190614a2d565b60206040518083038186803b15801561191a57600080fd5b505afa15801561192e573d6000803e3d6000fd5b505050506040513d601f19601f82011682018060405250810190611952919061481d565b905061195d826120e6565b60006119758385600001518660e001518c8c8c6136bf565b90508060400151156119885750506119ce565b80516020850151611998916130fb565b60208086019190915281015160608501516119b2916130fb565b6060850152805184516119c491612b17565b8452509050611897565b6000826060015111611a2d5760405162461bcd60e51b815260206004820152602260248201527f5661756c743a20556e61626c6520746f2072656465656d20616e7920616d6f756044820152611b9d60f21b6064820152608401610a69565b611a4582606001518360e0015184610100015161390a565b50611a5382606001516139b4565b608083018190526060830151611a6a9190856139c1565b611a7261127d565b6001600160a01b0316634c38b4b283608001516040518263ffffffff1660e01b8152600401611aa391815260200190565b600060405180830381600087803b158015611abd57600080fd5b505af1158015611ad1573d6000803e3d6000fd5b5050505060808201516060830151611ae891612b17565b60a08301526020820151606083015160808401516040517f43a3f4082a4dbc33d78e317d2497d3a730bc7fc3574159dcea1056e62e5d9ad893611b47938e93919290919093845260208401929092526040830152606082015260800190565b60405180910390a1611b57611449565b6001600160a01b0316639dc29fac3384602001516040518363ffffffff1660e01b8152600401611b88929190614a41565b600060405180830381600087803b158015611ba257600080fd5b505af1158015611bb6573d6000803e3d6000fd5b50505050611bc261127d565b6001600160a01b0316632a7ba1f783604001516040518263ffffffff1660e01b8152600401611bf391815260200190565b600060405180830381600087803b158015611c0d57600080fd5b505af1158015611c21573d6000803e3d6000fd5b50505050611c2d61127d565b6001600160a01b0316639f4e511e338460a001516040518363ffffffff1660e01b8152600401611c5e929190614a41565b600060405180830381600087803b158015611c7857600080fd5b505af1158015611c8c573d6000803e3d6000fd5b50505050505050505050505050565b6000610d1f611ca8612bca565b612b94565b611cb56121e1565b61096f816002613a31565b60007f00000000000000000000000000000000000000000000000000000000000000006001600160a01b031663cda775f96040518163ffffffff1660e01b815260040160206040518083038186803b158015610df957600080fd5b6001600160a01b0381166000908152600260205260408120546005548290611d439083612b17565b9050801580611d90575060016001600160a01b03851660009081526001602052604090206003015460ff166004811115611d8d57634e487b7160e01b600052602160045260246000fd5b14155b15611da0576000925050506109f7565b6001600160a01b03841660009081526001602052604081206002015490611dd9670de0b6b3a7640000611dd38486613b99565b90613ba5565b9695505050505050565b6000806000611df185613107565b915091506000611dd9838387613bb1565b6000611e0c6121e1565b611e158361225c565b6001600160a01b038316600090815260016020819052604082200154611e3b9084612b17565b9050611e478484613bdb565b6001600160a01b038416600090815260016020819052604090912001819055905092915050565b60006109d2611e7b611c9b565b83613c6d565b6000600a8281548110611ea457634e487b7160e01b600052603260045260246000fd5b6000918252602090912001546001600160a01b031692915050565b600060016001600160a01b03831660009081526001602052604090206003015460ff166004811115611f0157634e487b7160e01b600052602160045260246000fd5b14611f0e575060006109f7565b506005546001600160a01b03821660009081526002602052604090205410919050565b60007f00000000000000000000000000000000000000000000000000000000000000006001600160a01b031663e2d8ef8d6040518163ffffffff1660e01b815260040160206040518083038186803b158015610df957600080fd5b6000610d1f600b546130bb565b6001600160a01b0381166000908152600260205260408120600101546006548290611d439083612b17565b60007f00000000000000000000000000000000000000000000000000000000000000006001600160a01b031663fbfa77cf6040518163ffffffff1660e01b815260040160206040518083038186803b158015610df957600080fd5b6120276121e1565b61096f81613cef565b60007f00000000000000000000000000000000000000000000000000000000000000006001600160a01b031663ff2fb57c6040518163ffffffff1660e01b815260040160206040518083038186803b158015610df957600080fd5b60007f00000000000000000000000000000000000000000000000000000000000000006001600160a01b031663fff298df6040518163ffffffff1660e01b815260040160206040518083038186803b158015610df957600080fd5b6120ef81611ebf565b1561096f576120fd8161225c565b600061210882611d1b565b9050600061211583611f99565b6001600160a01b0384166000908152600160208190526040909120015490915061213f90836130fb565b6001600160a01b0384166000908152600160208190526040909120908101919091555461216c90826130fb565b6001600160a01b03841660009081526001602052604090205561218e836112d8565b6001600160a01b03831660008181526001602081905260408083208054928101546002909101549151600080516020614be5833981519152946121d49493918190614a68565b60405180910390a2505050565b6121e9611118565b6001600160a01b0316336001600160a01b03161461225a5760405162461bcd60e51b815260206004820152602860248201527f5661756c743a2043616c6c6572206d75737420626520426f72726f7765724f7060448201526765726174696f6e7360c01b6064820152608401610a69565b565b60016001600160a01b03821660009081526001602052604090206003015460ff16600481111561229c57634e487b7160e01b600052602160045260246000fd5b1461096f5760405162461bcd60e51b815260206004820152601b60248201527f5661756c743a2054726f7665206d7573742062652061637469766500000000006044820152606401610a69565b6001600160a01b038216600090815260016020526040902054811115610d9a5760405162461bcd60e51b815260206004820152603e60248201527f5661756c743a20446562742064656372656173652063616e277420626520677260448201527f61746572207468616e2074726f7665277320646562742062616c616e636500006064820152608401610a69565b600a80546001808201835560008381527fc65a7bb8d6351c1cf70c95a316cc6a92839c986682d98bc35f958f4883f9d2a890920180546001600160a01b0319166001600160a01b038616179055915490916123d29190612b17565b6001600160a01b039290921660009081526001602052604090206003018054610100600160881b0319166101006001600160801b038516021790555090565b6001600160a01b038116600090815260016020819052604082200154819061243890613d39565b6001600160a01b0384166000908152600160205260409020600201805490829055600754919250906124769083906124709084612b17565b906130fb565b60078190556040519081527f6bac5e0eb3c44eb03a60ab11ec3a2c051771616aecadbcfff2630aabae5203829060200160405180910390a15092915050565b6000806124c1836131b0565b6714d1120d7b160000119392505050565b6124da614778565b6124e26147b5565b6124ea614778565b600060608301526124f9611173565b6080830152612506611347565b60a0830152600082525b83518251101561269e578382600001518151811061253e57634e487b7160e01b600052603260045260246000fd5b6020908102919091018101516001600160a01b03166040848101829052600091825260019283905290206003015460ff16600481111561258e57634e487b7160e01b600052602160045260246000fd5b146125985761268a565b6125a6826040015186611de3565b6020830152606082015161264d57670f43fc2c04ee00008260200151106125cc5761268a565b6125de82604001518360200151613d89565b90506125fb81606001518360800151612b1790919063ffffffff16565b608083015260c0810151604082015160a084015161261e9291610c739190612b17565b60a083015261262d8382613eef565b92506126428260a00151836080015187613f86565b15606083015261268a565b816060015180156126695750670f43fc2c04ee00008260200151105b1561268a5761267b8260400151613fa7565b90506126878382613eef565b92505b81518261269682614b48565b905250612510565b505092915050565b6126ae614778565b6126b66147b5565b6126be614778565b600082525b83518251101561269e57838260000151815181106126f157634e487b7160e01b600052603260045260246000fd5b60209081029190910101516001600160a01b0316604083018190526127169086611de3565b60208301819052670f43fc2c04ee00001115612748576127398260400151613fa7565b90506127458382613eef565b92505b81518261275482614b48565b9052506126c3565b8161276657610d9a565b6003546000906127829061247084670de0b6b3a7640000613b99565b905060006127a7600454612470670de0b6b3a764000087613b9990919063ffffffff16565b905060006127c060075484613ba590919063ffffffff16565b905060006127d960075484613ba590919063ffffffff16565b90506127fa6127f360075484613b9990919063ffffffff16565b8590612b17565b6003556007546128169061280f908390613b99565b8490612b17565b60045560055461282690836130fb565b60055560065461283690826130fb565b60068190556005546040517f9f8bc8ab0daf5bceef75ecfd2085d1fcc6548c657ea970d9a23a60610d0737e392612874928252602082015260400190565b60405180910390a161288461127d565b6001600160a01b0316632a7ba1f7876040518263ffffffff1660e01b81526004016128b191815260200190565b600060405180830381600087803b1580156128cb57600080fd5b505af11580156128df573d6000803e3d6000fd5b505050506128eb610d9e565b6001600160a01b0316632b7c7b11876040518263ffffffff1660e01b815260040161291891815260200190565b600060405180830381600087803b15801561293257600080fd5b505af1158015612946573d6000803e3d6000fd5b5050505061295261127d565b6001600160a01b0316639f4e511e612968610d9e565b876040518363ffffffff1660e01b8152600401612986929190614a41565b600060405180830381600087803b1580156129a057600080fd5b505af11580156129b4573d6000803e3d6000fd5b50505050505050505050565b60075460085560006129d061127d565b6001600160a01b03166388bf5a9b6040518163ffffffff1660e01b815260040160206040518083038186803b158015612a0857600080fd5b505afa158015612a1c573d6000803e3d6000fd5b505050506040513d601f19601f82011682018060405250810190612a409190614963565b90506000612a4c610d9e565b6001600160a01b03166388bf5a9b6040518163ffffffff1660e01b815260040160206040518083038186803b158015612a8457600080fd5b505afa158015612a98573d6000803e3d6000fd5b505050506040513d601f19601f82011682018060405250810190612abc9190614963565b9050612acc816124708486612b17565b60098190556008546040517f51bf4c63ec3cba9d03d43238abbdd979dd91bd16d9895c74ceea9118c7baaf6092612b0a928252602082015260400190565b60405180910390a1505050565b6000610f398284614b1a565b8015610d9a57612b3161127d565b6001600160a01b0316639f4e511e83836040518363ffffffff1660e01b8152600401612b5e929190614a41565b600060405180830381600087803b158015612b7857600080fd5b505af1158015612b8c573d6000803e3d6000fd5b505050505050565b60006109d2612bbc83612bb16103e8670de0b6b3a7640000614ae7565b612470906005614afb565b670de0b6b3a76400006140de565b600080612bd56140f4565b90506000612beb670ddd4b8c6c7d70d883614110565b9050611276670de0b6b3a7640000611dd383600b54613b9990919063ffffffff16565b6000612c25600c5442612b1790919063ffffffff16565b9050603c811061096f5742600c8190556040519081527f860f8d2f0c74dd487e89e2883e3b25b8159ce1e1b3433a291cba7b82c508f3bc9060200161133c565b600080612c7e670de0b6b3a7640000611dd38787613b99565b905061151d83611dd383670de0b6b3a7640000613b99565b612c9e614778565b612ca66147b5565b612cae614778565b60006060830152612cbd611173565b6080830152612cca611347565b60a0830152612cd76114a4565b6001600160a01b0316634d6228316040518163ffffffff1660e01b815260040160206040518083038186803b158015612d0f57600080fd5b505afa158015612d23573d6000803e3d6000fd5b505050506040513d601f19601f82011682018060405250810190612d47919061481d565b6001600160a01b031660408301526000612d5f6114a4565b6001600160a01b0316631e2231436040518163ffffffff1660e01b815260040160206040518083038186803b158015612d9757600080fd5b505afa158015612dab573d6000803e3d6000fd5b505050506040513d601f19601f82011682018060405250810190612dcf919061481d565b6000845290505b825185118015612dfc5750806001600160a01b031683604001516001600160a01b031614155b15612fab576000612e0b6114a4565b6001600160a01b031663b72703ac85604001516040518263ffffffff1660e01b8152600401612e3a9190614a2d565b60206040518083038186803b158015612e5257600080fd5b505afa158015612e66573d6000803e3d6000fd5b505050506040513d601f19601f82011682018060405250810190612e8a919061481d565b9050612e9a846040015188611de3565b60208501526060840151612f4257670f43fc2c04ee0000846020015110612ec15750612fab565b612ed384604001518560200151613d89565b9250612ef083606001518560800151612b1790919063ffffffff16565b608085015260c0830151604084015160a0860151612f139291610c739190612b17565b60a0850152612f228584613eef565b9450612f378460a00151856080015189613f86565b156060850152612f89565b83606001518015612f5e5750670f43fc2c04ee00008460200151105b15612f8357612f708460400151613fa7565b9250612f7c8584613eef565b9450612f89565b50612fab565b6001600160a01b03166040840152825183612fa382614b48565b905250612dd6565b50505092915050565b612fbc614778565b612fc46147b5565b612fcc614778565b600082525b815184111561269e57612fe26114a4565b6001600160a01b0316634d6228316040518163ffffffff1660e01b815260040160206040518083038186803b15801561301a57600080fd5b505afa15801561302e573d6000803e3d6000fd5b505050506040513d601f19601f82011682018060405250810190613052919061481d565b6001600160a01b03166040830181905261306c9086611de3565b60208301819052670f43fc2c04ee000011156130a25761308f8260400151613fa7565b905061309b8382613eef565b92506130a7565b61269e565b8151826130b382614b48565b905250612fd1565b60006109d26130d883612bb16103e8670de0b6b3a7640000614ae7565b6130eb6064670de0b6b3a7640000614ae7565b6130f6906005614afb565b6140de565b6000610f398284614acf565b600080600061311584611d1b565b9050600061312285611f99565b6001600160a01b0386166000908152600160208190526040822001549192509061314c90846130fb565b6001600160a01b0387166000908152600160205260408120549192509061317390846130fb565b919550909350505050915091565b600081156131a7576131a082611dd38568056bc75e2d63100000613b99565b90506109d2565b506000196109d2565b6000806131bb611347565b905060006131c7611173565b90506131d4828286613bb1565b949350505050565b6131f06103e8670de0b6b3a7640000614ae7565b6131fb906005614afb565b81101580156132125750670de0b6b3a76400008111155b61096f5760405162461bcd60e51b815260206004820152603760248201527f5661756c743a204d6178206665652070657263656e74616765206d757374206260448201527665206265747765656e20302e352520616e64203130302560481b6064820152608401610a69565b600061328861208b565b6001600160a01b0316633c84b7c26040518163ffffffff1660e01b815260040160206040518083038186803b1580156132c057600080fd5b505afa1580156132d4573d6000803e3d6000fd5b505050506040513d601f19601f820116820180604052508101906132f89190614963565b905061330781621275006130fb565b42101561096f5760405162461bcd60e51b815260206004820152603960248201527f5661756c743a20526564656d7074696f6e7320617265206e6f7420616c6c6f77604482015278656420647572696e6720626f6f74737472617020706861736560381b6064820152608401610a69565b670f43fc2c04ee000061338a826131b0565b101561096f5760405162461bcd60e51b815260206004820152602360248201527f5661756c743a2043616e6e6f742072656465656d207768656e20544352203c2060448201526226a1a960e91b6064820152608401610a69565b6000811161096f5760405162461bcd60e51b815260206004820152602760248201527f5661756c743a20416d6f756e74206d7573742062652067726561746572207468604482015266616e207a65726f60c81b6064820152608401610a69565b8061344d611449565b6001600160a01b03166370a08231846040518263ffffffff1660e01b81526004016134789190614a2d565b60206040518083038186803b15801561349057600080fd5b505afa1580156134a4573d6000803e3d6000fd5b505050506040513d601f19601f820116820180604052508101906134c89190614963565b1015610d9a5760405162461bcd60e51b815260206004820152604660248201527f5661756c743a2052657175657374656420726564656d7074696f6e20616d6f7560448201527f6e74206d757374206265203c3d207573657227732050414920746f6b656e2062606482015265616c616e636560d01b608482015260a401610a69565b60006001600160a01b03831615806135e357506135666114a4565b6001600160a01b0316635dbe47e8846040518263ffffffff1660e01b81526004016135919190614a2d565b60206040518083038186803b1580156135a957600080fd5b505afa1580156135bd573d6000803e3d6000fd5b505050506040513d601f19601f820116820180604052508101906135e1919061492b565b155b806135fe5750670f43fc2c04ee00006135fc8484611de3565b105b1561360b575060006109d2565b60006136156114a4565b6001600160a01b031663765e0159856040518263ffffffff1660e01b81526004016136409190614a2d565b60206040518083038186803b15801561365857600080fd5b505afa15801561366c573d6000803e3d6000fd5b505050506040513d601f19601f82011682018060405250810190613690919061481d565b90506001600160a01b03811615806131d45750670f43fc2c04ee00006136b68285611de3565b10949350505050565b6136e5604051806060016040528060008152602001600081526020016000151581525090565b6001600160a01b0387166000908152600160205260409020546137099087906140de565b808252613724908690611dd390670de0b6b3a7640000613b99565b60208083019190915281516001600160a01b03891660009081526001909252604082205461375191612b17565b6020808401516001600160a01b038b1660009081526001928390526040812090920154929350909161378291612b17565b9050816137e85761379289613cef565b61379d896004613a31565b6137a9896000836141b6565b886001600160a01b0316600080516020614be583398151915260008060008060036040516137db959493929190614a68565b60405180910390a26138fe565b60006137f48284613181565b905084811461380c5750506001604083015250611dd9565b6138146114a4565b60405163015f109360e51b81526001600160a01b038c8116600483015260248201849052898116604483015288811660648301529190911690632be2126090608401600060405180830381600087803b15801561387057600080fd5b505af1158015613884573d6000803e3d6000fd5b5050506001600160a01b038b16600090815260016020819052604090912085815501839055506138b38a612411565b506001600160a01b038a16600081815260016020526040808220600201549051600080516020614be5833981519152926138f4928892889290600390614a68565b60405180910390a2505b50509695505050505050565b600080613915612bca565b9050600061392784611dd38888613b99565b90506000613940613939836002613ba5565b84906130fb565b905061395481670de0b6b3a76400006140de565b90506000811161397457634e487b7160e01b600052600160045260246000fd5b600b8190556040518181527fc454ee9b76c52f782a256af821b857ca6e125d1e3333bcede402fec2bed9600c9060200160405180910390a1611dd9612c0e565b60006109d2611e7b610d12565b60006139d983611dd386670de0b6b3a7640000613b99565b905081811115613a2b5760405162461bcd60e51b815260206004820152601d60248201527f4665652065786365656465642070726f7669646564206d6178696d756d0000006044820152606401610a69565b50505050565b6000816004811115613a5357634e487b7160e01b600052602160045260246000fd5b14158015613a8157506001816004811115613a7e57634e487b7160e01b600052602160045260246000fd5b14155b613a9b57634e487b7160e01b600052600160045260246000fd5b600a54613aa781614317565b6001600160a01b03831660009081526001602081905260409091206003018054849260ff1990911690836004811115613af057634e487b7160e01b600052602160045260246000fd5b02179055506001600160a01b0383166000908152600160208181526040808420808401859055849055600290915282208281550155613b2f83826143f6565b613b376114a4565b6001600160a01b03166329092d0e846040518263ffffffff1660e01b8152600401613b629190614a2d565b600060405180830381600087803b158015613b7c57600080fd5b505af1158015613b90573d6000803e3d6000fd5b50505050505050565b6000610f398284614afb565b6000610f398284614ae7565b60008215613bd2576000613bc984611dd38786613b99565b9150610f399050565b50600019610f39565b6001600160a01b03821660009081526001602081905260409091200154811115610d9a5760405162461bcd60e51b815260206004820152603f60248201527f5661756c743a20436f6c6c61746572616c2064656372656173652063616e277460448201527f20626520677261746572207468616e2074726f766527732062616c616e6365006064820152608401610a69565b600080613c86670de0b6b3a7640000611dd38686613b99565b9050828110610f395760405162461bcd60e51b815260206004820152602f60248201527f5661756c743a2046656520776f756c642065617420757020616c6c207265747560448201526e1c9b99590818dbdb1b185d195c985b608a1b6064820152608401610a69565b6001600160a01b038116600090815260016020526040902060020154600754613d189082612b17565b600755506001600160a01b0316600090815260016020526040812060020155565b60008060095460001415613d4e5750816109d2565b600060085411613d6e57634e487b7160e01b600052600160045260246000fd5b610f39600954611dd360085486613b9990919063ffffffff16565b613d91614778565b613db560405180606001604052806000815260200160008152602001600081525090565b600a54600110613dc557506109d2565b613dce84611531565b60408501526020848101919091528401819052908352613ded9061462a565b604083018190526020830151613e0291612b17565b8152670f43fc2c04ee00008311613ed757613e258160200151826040015161464c565b613e2e84613cef565b81516080830152805160a0830152613e47846003613a31565b815160208084015160408051938452918301526002908201526001600160a01b038516907fea67486ed7ebe3eea8ab3390efd4a3c8aae48be5bea27df104a8af786c4084349060600160405180910390a2836001600160a01b0316600080516020614be58339815191526000806000806002604051613eca959493929190614a68565b60405180910390a2613ee8565b613edf614778565b91506109d29050565b5092915050565b613ef7614778565b60408083015190840151613f0a916130fb565b604082015281516020840151613f1f916130fb565b6020808301919091528201518351613f36916130fb565b815260808083015190840151613f4b916130fb565b608082015260a08083015190840151613f63916130fb565b60a082015260c08083015190840151613f7b916130fb565b60c082015292915050565b600080613f94858585613bb1565b6714d1120d7b1600001195945050505050565b613faf614778565b613fd360405180606001604052806000815260200160008152602001600081525090565b613fdc83611531565b60408501908152602085810192835286019290925291845290519051614002919061464c565b61400b83613cef565b614018826020015161462a565b6040830181905260208301516000916140319190612b17565b8351608085015260a08401819052905061404c846003613a31565b825160208085015160408051938452918301526001908201526001600160a01b038516907fea67486ed7ebe3eea8ab3390efd4a3c8aae48be5bea27df104a8af786c4084349060600160405180910390a2836001600160a01b0316600080516020614be583398151915260008060008060016040516140cf959493929190614a68565b60405180910390a25050919050565b60008183106140ed5781610f39565b5090919050565b6000610d1f603c611dd3600c5442612b1790919063ffffffff16565b6000631f54050082111561412657631f54050091505b8161413a5750670de0b6b3a76400006109d2565b670de0b6b3a764000083835b60018111156141ac5761415a600282614b63565b61417c57614168828361474f565b9150614175816002613ba5565b90506141a7565b614186828461474f565b9250614192828361474f565b91506141a46002611dd3836001612b17565b90505b614146565b611dd9828461474f565b6141be61127d565b6001600160a01b0316632a7ba1f7836040518263ffffffff1660e01b81526004016141eb91815260200190565b600060405180830381600087803b15801561420557600080fd5b505af1158015614219573d6000803e3d6000fd5b50505050600061423a671bc16d674ec80000836130fb90919063ffffffff16565b9050614244611cc0565b6001600160a01b0316633f10abab85836040518363ffffffff1660e01b8152600401614271929190614a41565b600060405180830381600087803b15801561428b57600080fd5b505af115801561429f573d6000803e3d6000fd5b505050506142ab61127d565b6001600160a01b0316639f4e511e6142c1611cc0565b836040518363ffffffff1660e01b81526004016142df929190614a41565b600060405180830381600087803b1580156142f957600080fd5b505af115801561430d573d6000803e3d6000fd5b5050505050505050565b60018111801561439e5750600161432c6114a4565b6001600160a01b031663de8fa4316040518163ffffffff1660e01b815260040160206040518083038186803b15801561436457600080fd5b505afa158015614378573d6000803e3d6000fd5b505050506040513d601f19601f8201168201806040525081019061439c9190614963565b115b61096f5760405162461bcd60e51b815260206004820152602360248201527f5661756c743a204f6e6c79206f6e652074726f766520696e207468652073797360448201526274656d60e81b6064820152608401610a69565b6001600160a01b03821660009081526001602052604081206003015460ff169081600481111561443657634e487b7160e01b600052602160045260246000fd5b141580156144645750600181600481111561446157634e487b7160e01b600052602160045260246000fd5b14155b61447e57634e487b7160e01b600052600160045260246000fd5b6001600160a01b038316600090815260016020819052604082206003015461010090046001600160801b03169184916144b8908390612b17565b905080836001600160801b031611156144e157634e487b7160e01b600052600160045260246000fd5b6000600a828154811061450457634e487b7160e01b600052603260045260246000fd5b600091825260209091200154600a80546001600160a01b03909216925082916001600160801b03871690811061454a57634e487b7160e01b600052603260045260246000fd5b600091825260208083209190910180546001600160a01b0319166001600160a01b03948516179055918316808252600183526040918290206003018054610100600160881b0319166101006001600160801b038a16908102919091179091558251918252928101929092527f02b04ae5f7be9ca7c103293a2aa15f3c339d15d6eda53b721fef7b0e609c831a910160405180910390a1600a8054806145ff57634e487b7160e01b600052603160045260246000fd5b600082815260209020810160001990810180546001600160a01b031916905501905550505050505050565b60008061463860c884614ae7565b9050610f3981671bc16d674ec800006130fb565b614654610d9e565b6001600160a01b0316632a7ba1f7836040518263ffffffff1660e01b815260040161468191815260200190565b600060405180830381600087803b15801561469b57600080fd5b505af11580156146af573d6000803e3d6000fd5b505050506146bb61127d565b6001600160a01b0316632b7c7b11836040518263ffffffff1660e01b81526004016146e891815260200190565b600060405180830381600087803b15801561470257600080fd5b505af1158015614716573d6000803e3d6000fd5b50505050614722610d9e565b6001600160a01b0316633d5dae7a826040518263ffffffff1660e01b8152600401612b5e91815260200190565b60008061475c8484613b99565b90506131d4670de0b6b3a7640000611dd3613939600283614ae7565b6040518060e00160405280600081526020016000815260200160008152602001600081526020016000815260200160008152602001600081525090565b6040518060c00160405280600081526020016000815260200160006001600160a01b0316815260200160001515815260200160008152602001600081525090565b80356109f781614bcf565b600060208284031215614812578081fd5b8135610f3981614bcf565b60006020828403121561482e578081fd5b8151610f3981614bcf565b6000806040838503121561484b578081fd5b823561485681614bcf565b946020939093013593505050565b60006020808385031215614876578182fd5b823567ffffffffffffffff8082111561488d578384fd5b818501915085601f8301126148a0578384fd5b8135818111156148b2576148b2614bb9565b8060051b604051601f19603f830116810181811085821117156148d7576148d7614bb9565b604052828152858101935084860182860187018a10156148f5578788fd5b8795505b8386101561491e5761490a816147f6565b8552600195909501949386019386016148f9565b5098975050505050505050565b60006020828403121561493c578081fd5b81518015158114610f39578182fd5b60006020828403121561495c578081fd5b5035919050565b600060208284031215614974578081fd5b5051919050565b600080600080600080600060e0888a031215614995578283fd5b8735965060208801356149a781614bcf565b955060408801356149b781614bcf565b945060608801356149c781614bcf565b9699959850939660808101359560a0820135955060c0909101359350915050565b600080604083850312156149fa578182fd5b50508035926020909101359150565b60048110614a1957614a19614ba3565b9052565b60058110614a1957614a19614ba3565b6001600160a01b0391909116815260200190565b6001600160a01b03929092168252602082015260400190565b602081016109d28284614a1d565b600060a082019050868252856020830152846040830152836060830152611dd96080830184614a09565b858152602081018590526040810184905260a08101614ab46060830185614a1d565b6001600160801b039290921660809190910152949350505050565b60008219821115614ae257614ae2614b77565b500190565b600082614af657614af6614b8d565b500490565b6000816000190483118215151615614b1557614b15614b77565b500290565b600082821015614b2c57614b2c614b77565b500390565b600081614b4057614b40614b77565b506000190190565b6000600019821415614b5c57614b5c614b77565b5060010190565b600082614b7257614b72614b8d565b500690565b634e487b7160e01b600052601160045260246000fd5b634e487b7160e01b600052601260045260246000fd5b634e487b7160e01b600052602160045260246000fd5b634e487b7160e01b600052604160045260246000fd5b6001600160a01b038116811461096f57600080fdfef575eb5cdee005607f56587351e18943ddacd11756b9d37980ec251797ff136ca2646970667358221220d291ca8eeb039152d4206a395821de4f39c99ef27894e4eb0276b99ea98e222f64736f6c63430008030033",
  "devdoc": {
    "kind": "dev",
    "methods": {},
    "version": 1
  },
  "userdoc": {
    "kind": "user",
    "methods": {},
    "version": 1
  },
  "storageLayout": {
    "storage": [
      {
        "astId": 15613,
        "contract": "contracts/core/Vault.sol:Vault",
        "label": "MAX_UINT",
        "offset": 0,
        "slot": "0",
        "type": "t_uint256"
      },
      {
        "astId": 11501,
        "contract": "contracts/core/Vault.sol:Vault",
        "label": "Troves",
        "offset": 0,
        "slot": "1",
        "type": "t_mapping(t_address,t_struct(Trove)11496_storage)"
      },
      {
        "astId": 11506,
        "contract": "contracts/core/Vault.sol:Vault",
        "label": "rewardSnapshots",
        "offset": 0,
        "slot": "2",
        "type": "t_mapping(t_address,t_struct(RewardSnapshot)11511_storage)"
      },
      {
        "astId": 11513,
        "contract": "contracts/core/Vault.sol:Vault",
        "label": "lastCollError_Redistribution",
        "offset": 0,
        "slot": "3",
        "type": "t_uint256"
      },
      {
        "astId": 11515,
        "contract": "contracts/core/Vault.sol:Vault",
        "label": "lastDebtError_Redistribution",
        "offset": 0,
        "slot": "4",
        "type": "t_uint256"
      },
      {
        "astId": 11517,
        "contract": "contracts/core/Vault.sol:Vault",
        "label": "L_Coll",
        "offset": 0,
        "slot": "5",
        "type": "t_uint256"
      },
      {
        "astId": 11519,
        "contract": "contracts/core/Vault.sol:Vault",
        "label": "L_Debt",
        "offset": 0,
        "slot": "6",
        "type": "t_uint256"
      },
      {
        "astId": 11521,
        "contract": "contracts/core/Vault.sol:Vault",
        "label": "totalStakes",
        "offset": 0,
        "slot": "7",
        "type": "t_uint256"
      },
      {
        "astId": 11523,
        "contract": "contracts/core/Vault.sol:Vault",
        "label": "totalStakesSnapshot",
        "offset": 0,
        "slot": "8",
        "type": "t_uint256"
      },
      {
        "astId": 11525,
        "contract": "contracts/core/Vault.sol:Vault",
        "label": "totalCollateralSnapshot",
        "offset": 0,
        "slot": "9",
        "type": "t_uint256"
      },
      {
        "astId": 11528,
        "contract": "contracts/core/Vault.sol:Vault",
        "label": "TroveOwners",
        "offset": 0,
        "slot": "10",
        "type": "t_array(t_address)dyn_storage"
      },
      {
        "astId": 11542,
        "contract": "contracts/core/Vault.sol:Vault",
        "label": "baseRate",
        "offset": 0,
        "slot": "11",
        "type": "t_uint256"
      },
      {
        "astId": 11544,
        "contract": "contracts/core/Vault.sol:Vault",
        "label": "lastFeeOperationTime",
        "offset": 0,
        "slot": "12",
        "type": "t_uint256"
      }
    ],
    "types": {
      "t_address": {
        "encoding": "inplace",
        "label": "address",
        "numberOfBytes": "20"
      },
      "t_array(t_address)dyn_storage": {
        "base": "t_address",
        "encoding": "dynamic_array",
        "label": "address[]",
        "numberOfBytes": "32"
      },
      "t_enum(TroveStatus)15699": {
        "encoding": "inplace",
        "label": "enum IBase.TroveStatus",
        "numberOfBytes": "1"
      },
      "t_mapping(t_address,t_struct(RewardSnapshot)11511_storage)": {
        "encoding": "mapping",
        "key": "t_address",
        "label": "mapping(address => struct Vault.RewardSnapshot)",
        "numberOfBytes": "32",
        "value": "t_struct(RewardSnapshot)11511_storage"
      },
      "t_mapping(t_address,t_struct(Trove)11496_storage)": {
        "encoding": "mapping",
        "key": "t_address",
        "label": "mapping(address => struct Vault.Trove)",
        "numberOfBytes": "32",
        "value": "t_struct(Trove)11496_storage"
      },
      "t_struct(RewardSnapshot)11511_storage": {
        "encoding": "inplace",
        "label": "struct Vault.RewardSnapshot",
        "members": [
          {
            "astId": 11508,
            "contract": "contracts/core/Vault.sol:Vault",
            "label": "coll",
            "offset": 0,
            "slot": "0",
            "type": "t_uint256"
          },
          {
            "astId": 11510,
            "contract": "contracts/core/Vault.sol:Vault",
            "label": "debt",
            "offset": 0,
            "slot": "1",
            "type": "t_uint256"
          }
        ],
        "numberOfBytes": "64"
      },
      "t_struct(Trove)11496_storage": {
        "encoding": "inplace",
        "label": "struct Vault.Trove",
        "members": [
          {
            "astId": 11486,
            "contract": "contracts/core/Vault.sol:Vault",
            "label": "debt",
            "offset": 0,
            "slot": "0",
            "type": "t_uint256"
          },
          {
            "astId": 11488,
            "contract": "contracts/core/Vault.sol:Vault",
            "label": "coll",
            "offset": 0,
            "slot": "1",
            "type": "t_uint256"
          },
          {
            "astId": 11490,
            "contract": "contracts/core/Vault.sol:Vault",
            "label": "stake",
            "offset": 0,
            "slot": "2",
            "type": "t_uint256"
          },
          {
            "astId": 11493,
            "contract": "contracts/core/Vault.sol:Vault",
            "label": "status",
            "offset": 0,
            "slot": "3",
            "type": "t_enum(TroveStatus)15699"
          },
          {
            "astId": 11495,
            "contract": "contracts/core/Vault.sol:Vault",
            "label": "arrayIndex",
            "offset": 1,
            "slot": "3",
            "type": "t_uint128"
          }
        ],
        "numberOfBytes": "128"
      },
      "t_uint128": {
        "encoding": "inplace",
        "label": "uint128",
        "numberOfBytes": "16"
      },
      "t_uint256": {
        "encoding": "inplace",
        "label": "uint256",
        "numberOfBytes": "32"
      }
    }
  }
}