{
  "_format": "hh-sol-artifact-1",
  "contractName": "BorrowerOperationsTester",
  "sourceName": "contracts/TestContracts/BorrowerOperationsTester.sol",
  "abi": [
    {
      "anonymous": false,
      "inputs": [
        {
          "indexed": false,
          "internalType": "address",
          "name": "_activePoolAddress",
          "type": "address"
        }
      ],
      "name": "ActivePoolAddressChanged",
      "type": "event"
    },
    {
      "anonymous": false,
      "inputs": [
        {
          "indexed": false,
          "internalType": "address",
          "name": "_collSurplusPoolAddress",
          "type": "address"
        }
      ],
      "name": "CollSurplusPoolAddressChanged",
      "type": "event"
    },
    {
      "anonymous": false,
      "inputs": [
        {
          "indexed": false,
          "internalType": "address",
          "name": "_defaultPoolAddress",
          "type": "address"
        }
      ],
      "name": "DefaultPoolAddressChanged",
      "type": "event"
    },
    {
      "anonymous": false,
      "inputs": [
        {
          "indexed": false,
          "internalType": "address",
          "name": "_gasPoolAddress",
          "type": "address"
        }
      ],
      "name": "GasPoolAddressChanged",
      "type": "event"
    },
    {
      "anonymous": false,
      "inputs": [
        {
          "indexed": false,
          "internalType": "address",
          "name": "_lqtyStakingAddress",
          "type": "address"
        }
      ],
      "name": "LQTYStakingAddressChanged",
      "type": "event"
    },
    {
      "anonymous": false,
      "inputs": [
        {
          "indexed": true,
          "internalType": "address",
          "name": "_borrower",
          "type": "address"
        },
        {
          "indexed": false,
          "internalType": "uint256",
          "name": "_LUSDFee",
          "type": "uint256"
        }
      ],
      "name": "LUSDBorrowingFeePaid",
      "type": "event"
    },
    {
      "anonymous": false,
      "inputs": [
        {
          "indexed": false,
          "internalType": "address",
          "name": "_lusdTokenAddress",
          "type": "address"
        }
      ],
      "name": "LUSDTokenAddressChanged",
      "type": "event"
    },
    {
      "anonymous": false,
      "inputs": [
        {
          "indexed": true,
          "internalType": "address",
          "name": "previousOwner",
          "type": "address"
        },
        {
          "indexed": true,
          "internalType": "address",
          "name": "newOwner",
          "type": "address"
        }
      ],
      "name": "OwnershipTransferred",
      "type": "event"
    },
    {
      "anonymous": false,
      "inputs": [
        {
          "indexed": false,
          "internalType": "address",
          "name": "_newPriceFeedAddress",
          "type": "address"
        }
      ],
      "name": "PriceFeedAddressChanged",
      "type": "event"
    },
    {
      "anonymous": false,
      "inputs": [
        {
          "indexed": false,
          "internalType": "address",
          "name": "_sortedTrovesAddress",
          "type": "address"
        }
      ],
      "name": "SortedTrovesAddressChanged",
      "type": "event"
    },
    {
      "anonymous": false,
      "inputs": [
        {
          "indexed": false,
          "internalType": "address",
          "name": "_stabilityPoolAddress",
          "type": "address"
        }
      ],
      "name": "StabilityPoolAddressChanged",
      "type": "event"
    },
    {
      "anonymous": false,
      "inputs": [
        {
          "indexed": true,
          "internalType": "address",
          "name": "_borrower",
          "type": "address"
        },
        {
          "indexed": false,
          "internalType": "uint256",
          "name": "arrayIndex",
          "type": "uint256"
        }
      ],
      "name": "TroveCreated",
      "type": "event"
    },
    {
      "anonymous": false,
      "inputs": [
        {
          "indexed": false,
          "internalType": "address",
          "name": "_newTroveManagerAddress",
          "type": "address"
        }
      ],
      "name": "TroveManagerAddressChanged",
      "type": "event"
    },
    {
      "anonymous": false,
      "inputs": [
        {
          "indexed": true,
          "internalType": "address",
          "name": "_borrower",
          "type": "address"
        },
        {
          "indexed": false,
          "internalType": "uint256",
          "name": "_debt",
          "type": "uint256"
        },
        {
          "indexed": false,
          "internalType": "uint256",
          "name": "_coll",
          "type": "uint256"
        },
        {
          "indexed": false,
          "internalType": "uint256",
          "name": "stake",
          "type": "uint256"
        },
        {
          "indexed": false,
          "internalType": "enum BorrowerOperations.BorrowerOperation",
          "name": "operation",
          "type": "uint8"
        }
      ],
      "name": "TroveUpdated",
      "type": "event"
    },
    {
      "inputs": [],
      "name": "CCR",
      "outputs": [
        {
          "internalType": "uint256",
          "name": "",
          "type": "uint256"
        }
      ],
      "stateMutability": "view",
      "type": "function"
    },
    {
      "inputs": [],
      "name": "DECIMAL_PRECISION",
      "outputs": [
        {
          "internalType": "uint256",
          "name": "",
          "type": "uint256"
        }
      ],
      "stateMutability": "view",
      "type": "function"
    },
    {
      "inputs": [],
      "name": "LUSD_GAS_COMPENSATION",
      "outputs": [
        {
          "internalType": "uint256",
          "name": "",
          "type": "uint256"
        }
      ],
      "stateMutability": "view",
      "type": "function"
    },
    {
      "inputs": [],
      "name": "MCR",
      "outputs": [
        {
          "internalType": "uint256",
          "name": "",
          "type": "uint256"
        }
      ],
      "stateMutability": "view",
      "type": "function"
    },
    {
      "inputs": [],
      "name": "PERCENT_DIVISOR",
      "outputs": [
        {
          "internalType": "uint256",
          "name": "",
          "type": "uint256"
        }
      ],
      "stateMutability": "view",
      "type": "function"
    },
    {
      "inputs": [],
      "name": "_100pct",
      "outputs": [
        {
          "internalType": "uint256",
          "name": "",
          "type": "uint256"
        }
      ],
      "stateMutability": "view",
      "type": "function"
    },
    {
      "inputs": [],
      "name": "activePool",
      "outputs": [
        {
          "internalType": "contract IActivePool",
          "name": "",
          "type": "address"
        }
      ],
      "stateMutability": "view",
      "type": "function"
    },
    {
      "inputs": [
        {
          "internalType": "address",
          "name": "_upperHint",
          "type": "address"
        },
        {
          "internalType": "address",
          "name": "_lowerHint",
          "type": "address"
        }
      ],
      "name": "addColl",
      "outputs": [],
      "stateMutability": "payable",
      "type": "function"
    },
    {
      "inputs": [
        {
          "internalType": "uint256",
          "name": "_maxFeePercentage",
          "type": "uint256"
        },
        {
          "internalType": "uint256",
          "name": "_collWithdrawal",
          "type": "uint256"
        },
        {
          "internalType": "uint256",
          "name": "_debtChange",
          "type": "uint256"
        },
        {
          "internalType": "bool",
          "name": "_isDebtIncrease",
          "type": "bool"
        },
        {
          "internalType": "address",
          "name": "_upperHint",
          "type": "address"
        },
        {
          "internalType": "address",
          "name": "_lowerHint",
          "type": "address"
        }
      ],
      "name": "adjustTrove",
      "outputs": [],
      "stateMutability": "payable",
      "type": "function"
    },
    {
      "inputs": [
        {
          "internalType": "address",
          "name": "_borrower",
          "type": "address"
        },
        {
          "internalType": "uint256",
          "name": "_collWithdrawal",
          "type": "uint256"
        },
        {
          "internalType": "uint256",
          "name": "_debtChange",
          "type": "uint256"
        },
        {
          "internalType": "bool",
          "name": "_isDebtIncrease",
          "type": "bool"
        },
        {
          "internalType": "address",
          "name": "_upperHint",
          "type": "address"
        },
        {
          "internalType": "address",
          "name": "_lowerHint",
          "type": "address"
        }
      ],
      "name": "callInternalAdjustLoan",
      "outputs": [],
      "stateMutability": "nonpayable",
      "type": "function"
    },
    {
      "inputs": [],
      "name": "claimCollateral",
      "outputs": [],
      "stateMutability": "nonpayable",
      "type": "function"
    },
    {
      "inputs": [],
      "name": "closeTrove",
      "outputs": [],
      "stateMutability": "nonpayable",
      "type": "function"
    },
    {
      "inputs": [],
      "name": "defaultPool",
      "outputs": [
        {
          "internalType": "contract IDefaultPool",
          "name": "",
          "type": "address"
        }
      ],
      "stateMutability": "view",
      "type": "function"
    },
    {
      "inputs": [
        {
          "internalType": "uint256",
          "name": "_debt",
          "type": "uint256"
        }
      ],
      "name": "getCompositeDebt",
      "outputs": [
        {
          "internalType": "uint256",
          "name": "",
          "type": "uint256"
        }
      ],
      "stateMutability": "pure",
      "type": "function"
    },
    {
      "inputs": [],
      "name": "getEntireSystemColl",
      "outputs": [
        {
          "internalType": "uint256",
          "name": "entireSystemColl",
          "type": "uint256"
        }
      ],
      "stateMutability": "view",
      "type": "function"
    },
    {
      "inputs": [],
      "name": "getEntireSystemDebt",
      "outputs": [
        {
          "internalType": "uint256",
          "name": "entireSystemDebt",
          "type": "uint256"
        }
      ],
      "stateMutability": "view",
      "type": "function"
    },
    {
      "inputs": [
        {
          "internalType": "uint256",
          "name": "_coll",
          "type": "uint256"
        },
        {
          "internalType": "uint256",
          "name": "_debt",
          "type": "uint256"
        },
        {
          "internalType": "uint256",
          "name": "_collChange",
          "type": "uint256"
        },
        {
          "internalType": "bool",
          "name": "isCollIncrease",
          "type": "bool"
        },
        {
          "internalType": "uint256",
          "name": "_debtChange",
          "type": "uint256"
        },
        {
          "internalType": "bool",
          "name": "isDebtIncrease",
          "type": "bool"
        },
        {
          "internalType": "uint256",
          "name": "_price",
          "type": "uint256"
        }
      ],
      "name": "getNewICRFromTroveChange",
      "outputs": [
        {
          "internalType": "uint256",
          "name": "",
          "type": "uint256"
        }
      ],
      "stateMutability": "pure",
      "type": "function"
    },
    {
      "inputs": [
        {
          "internalType": "uint256",
          "name": "_collChange",
          "type": "uint256"
        },
        {
          "internalType": "bool",
          "name": "isCollIncrease",
          "type": "bool"
        },
        {
          "internalType": "uint256",
          "name": "_debtChange",
          "type": "uint256"
        },
        {
          "internalType": "bool",
          "name": "isDebtIncrease",
          "type": "bool"
        },
        {
          "internalType": "uint256",
          "name": "_price",
          "type": "uint256"
        }
      ],
      "name": "getNewTCRFromTroveChange",
      "outputs": [
        {
          "internalType": "uint256",
          "name": "",
          "type": "uint256"
        }
      ],
      "stateMutability": "view",
      "type": "function"
    },
    {
      "inputs": [
        {
          "internalType": "uint256",
          "name": "_coll",
          "type": "uint256"
        },
        {
          "internalType": "uint256",
          "name": "_price",
          "type": "uint256"
        }
      ],
      "name": "getUSDValue",
      "outputs": [
        {
          "internalType": "uint256",
          "name": "",
          "type": "uint256"
        }
      ],
      "stateMutability": "pure",
      "type": "function"
    },
    {
      "inputs": [],
      "name": "isOwner",
      "outputs": [
        {
          "internalType": "bool",
          "name": "",
          "type": "bool"
        }
      ],
      "stateMutability": "view",
      "type": "function"
    },
    {
      "inputs": [],
      "name": "lqtyStaking",
      "outputs": [
        {
          "internalType": "contract ILQTYStaking",
          "name": "",
          "type": "address"
        }
      ],
      "stateMutability": "view",
      "type": "function"
    },
    {
      "inputs": [],
      "name": "lqtyStakingAddress",
      "outputs": [
        {
          "internalType": "address",
          "name": "",
          "type": "address"
        }
      ],
      "stateMutability": "view",
      "type": "function"
    },
    {
      "inputs": [],
      "name": "lusdToken",
      "outputs": [
        {
          "internalType": "contract ILUSDToken",
          "name": "",
          "type": "address"
        }
      ],
      "stateMutability": "view",
      "type": "function"
    },
    {
      "inputs": [
        {
          "internalType": "address",
          "name": "_borrower",
          "type": "address"
        },
        {
          "internalType": "address",
          "name": "_upperHint",
          "type": "address"
        },
        {
          "internalType": "address",
          "name": "_lowerHint",
          "type": "address"
        }
      ],
      "name": "moveETHGainToTrove",
      "outputs": [],
      "stateMutability": "payable",
      "type": "function"
    },
    {
      "inputs": [
        {
          "internalType": "uint256",
          "name": "_maxFeePercentage",
          "type": "uint256"
        },
        {
          "internalType": "uint256",
          "name": "_LUSDAmount",
          "type": "uint256"
        },
        {
          "internalType": "address",
          "name": "_upperHint",
          "type": "address"
        },
        {
          "internalType": "address",
          "name": "_lowerHint",
          "type": "address"
        }
      ],
      "name": "openTrove",
      "outputs": [],
      "stateMutability": "payable",
      "type": "function"
    },
    {
      "inputs": [],
      "name": "owner",
      "outputs": [
        {
          "internalType": "address",
          "name": "",
          "type": "address"
        }
      ],
      "stateMutability": "view",
      "type": "function"
    },
    {
      "inputs": [],
      "name": "priceFeed",
      "outputs": [
        {
          "internalType": "contract IPriceFeed",
          "name": "",
          "type": "address"
        }
      ],
      "stateMutability": "view",
      "type": "function"
    },
    {
      "inputs": [
        {
          "internalType": "uint256",
          "name": "_LUSDAmount",
          "type": "uint256"
        },
        {
          "internalType": "address",
          "name": "_upperHint",
          "type": "address"
        },
        {
          "internalType": "address",
          "name": "_lowerHint",
          "type": "address"
        }
      ],
      "name": "repayLUSD",
      "outputs": [],
      "stateMutability": "nonpayable",
      "type": "function"
    },
    {
      "inputs": [
        {
          "internalType": "address",
          "name": "_troveManagerAddress",
          "type": "address"
        },
        {
          "internalType": "address",
          "name": "_activePoolAddress",
          "type": "address"
        },
        {
          "internalType": "address",
          "name": "_defaultPoolAddress",
          "type": "address"
        },
        {
          "internalType": "address",
          "name": "_stabilityPoolAddress",
          "type": "address"
        },
        {
          "internalType": "address",
          "name": "_gasPoolAddress",
          "type": "address"
        },
        {
          "internalType": "address",
          "name": "_collSurplusPoolAddress",
          "type": "address"
        },
        {
          "internalType": "address",
          "name": "_priceFeedAddress",
          "type": "address"
        },
        {
          "internalType": "address",
          "name": "_sortedTrovesAddress",
          "type": "address"
        },
        {
          "internalType": "address",
          "name": "_lusdTokenAddress",
          "type": "address"
        },
        {
          "internalType": "address",
          "name": "_lqtyStakingAddress",
          "type": "address"
        }
      ],
      "name": "setAddresses",
      "outputs": [],
      "stateMutability": "nonpayable",
      "type": "function"
    },
    {
      "inputs": [],
      "name": "sortedTroves",
      "outputs": [
        {
          "internalType": "contract ISortedTroves",
          "name": "",
          "type": "address"
        }
      ],
      "stateMutability": "view",
      "type": "function"
    },
    {
      "inputs": [],
      "name": "troveManager",
      "outputs": [
        {
          "internalType": "contract ITroveManager",
          "name": "",
          "type": "address"
        }
      ],
      "stateMutability": "view",
      "type": "function"
    },
    {
      "inputs": [
        {
          "internalType": "uint256",
          "name": "_collWithdrawal",
          "type": "uint256"
        },
        {
          "internalType": "address",
          "name": "_upperHint",
          "type": "address"
        },
        {
          "internalType": "address",
          "name": "_lowerHint",
          "type": "address"
        }
      ],
      "name": "withdrawColl",
      "outputs": [],
      "stateMutability": "nonpayable",
      "type": "function"
    },
    {
      "inputs": [
        {
          "internalType": "uint256",
          "name": "_maxFeePercentage",
          "type": "uint256"
        },
        {
          "internalType": "uint256",
          "name": "_LUSDAmount",
          "type": "uint256"
        },
        {
          "internalType": "address",
          "name": "_upperHint",
          "type": "address"
        },
        {
          "internalType": "address",
          "name": "_lowerHint",
          "type": "address"
        }
      ],
      "name": "withdrawLUSD",
      "outputs": [],
      "stateMutability": "nonpayable",
      "type": "function"
    },
    {
      "stateMutability": "payable",
      "type": "receive"
    }
  ],
  "bytecode": "0x608060405234801561001057600080fd5b50600380546001600160a01b031916339081179091556040516000907f8be0079c531659141344cd1fd0a4f28419497f9722a3daafe3b4186f6b6457e0908290a361367c806100606000396000f3fe6080604052600436106101b25760003560e01c806372fe25aa116100ed578063887105d311610090578063887105d3146105f75780638da5cb5b1461060c5780638f32d59b14610621578063a20baee6146104f9578063a3a640171461064a578063ae9187541461065f578063b83f91a214610674578063c6a6cf2014610689578063ea9638bf146106d1576101b9565b806372fe25aa146104f9578063741bef1a1461050e578063761ab22c14610523578063794e572414610538578063795d26c31461054d5780637f7dde4a14610562578063860665b31461057757806387eb305d146105b1576101b9565b80634ff81443116101555780634ff814431461033657806351584ca4146103605780635530273c146103b25780635733d58f146103f357806368647db1146104085780636c37a4af146104365780636f0b0c1c146104b45780636f30d212146104c9576101b9565b806304491fa7146101be5780630e704d50146102015780631184e5f8146102165780632cdcd7221461025d5780632e86bbd8146102b45780633cc74225146102db5780633d83908a1461030c5780634870dd9a14610321576101b9565b366101b957005b600080fd5b3480156101ca57600080fd5b506101ff600480360360608110156101e157600080fd5b508035906001600160a01b0360208201358116916040013516610709565b005b34801561020d57600080fd5b506101ff610720565b34801561022257600080fd5b506101ff6004803603608081101561023957600080fd5b508035906020810135906001600160a01b0360408201358116916060013516610afe565b34801561026957600080fd5b506101ff600480360360c081101561028057600080fd5b506001600160a01b0381358116916020810135916040820135916060810135151591608082013581169160a0013516610b15565b3480156102c057600080fd5b506102c9610b2d565b60408051918252519081900360200190f35b3480156102e757600080fd5b506102f0610b3a565b604080516001600160a01b039092168252519081900360200190f35b34801561031857600080fd5b506102f0610b49565b34801561032d57600080fd5b506102c9610b58565b34801561034257600080fd5b506102c96004803603602081101561035957600080fd5b5035610b5d565b34801561036c57600080fd5b506102c9600480360360e081101561038357600080fd5b50803590602081013590604081013590606081013515159060808101359060a081013515159060c00135610b6e565b3480156103be57600080fd5b506101ff600480360360608110156103d557600080fd5b508035906001600160a01b0360208201358116916040013516610b8b565b3480156103ff57600080fd5b506102c9610b9c565b6101ff6004803603604081101561041e57600080fd5b506001600160a01b0381358116916020013516610ba8565b34801561044257600080fd5b506101ff600480360361014081101561045a57600080fd5b506001600160a01b038135811691602081013582169160408201358116916060810135821691608082013581169160a081013582169160c082013581169160e0810135821691610100820135811691610120013516610bbe565b3480156104c057600080fd5b506101ff610f63565b3480156104d557600080fd5b506102c9600480360360408110156104ec57600080fd5b5080359060200135610fc3565b34801561050557600080fd5b506102c9610fd6565b34801561051a57600080fd5b506102f0610fe2565b34801561052f57600080fd5b506102f0610ff1565b34801561054457600080fd5b506102c9611000565b34801561055957600080fd5b506102c961100c565b34801561056e57600080fd5b506102f061110d565b6101ff6004803603608081101561058d57600080fd5b508035906020810135906001600160a01b036040820135811691606001351661111c565b3480156105bd57600080fd5b506102c9600480360360a08110156105d457600080fd5b50803590602081013515159060408101359060608101351515906080013561175d565b34801561060357600080fd5b506102c9611776565b34801561061857600080fd5b506102f0611832565b34801561062d57600080fd5b50610636611841565b604080519115158252519081900360200190f35b34801561065657600080fd5b506102f0611852565b34801561066b57600080fd5b506102f0611861565b34801561068057600080fd5b506102f0611870565b6101ff600480360360c081101561069f57600080fd5b5080359060208101359060408101359060608101351515906001600160a01b03608082013581169160a001351661187f565b6101ff600480360360608110156106e757600080fd5b506001600160a01b03813581169160208101358216916040909101351661188e565b61071b336000856000868660006118a4565b505050565b600454600054600a546001600160a01b039283169291821691166107448333611ed7565b60025460408051630fdb11cf60e01b815290516000926001600160a01b031691630fdb11cf91600480830192602092919082900301818787803b15801561078a57600080fd5b505af115801561079e573d6000803e3d6000fd5b505050506040513d60208110156107b457600080fd5b505190506107c181611f9c565b60408051630b07655760e01b815233600482015290516001600160a01b03861691630b07655791602480830192600092919082900301818387803b15801561080857600080fd5b505af115801561081c573d6000803e3d6000fd5b5050604080516309019aaf60e31b81523360048201529051600093506001600160a01b038816925063480cd57891602480820192602092909190829003018186803b15801561086a57600080fd5b505afa15801561087e573d6000803e3d6000fd5b505050506040513d602081101561089457600080fd5b50516040805163d66a255360e01b815233600482015290519192506000916001600160a01b0388169163d66a2553916024808301926020929190829003018186803b1580156108e257600080fd5b505afa1580156108f6573d6000803e3d6000fd5b505050506040513d602081101561090c57600080fd5b50519050610933843361092e846802b5e3af16b188000063ffffffff611fe416565b612026565b60408051631fc5750960e31b815233600482015290516001600160a01b0388169163fe2ba84891602480830192600092919082900301818387803b15801561097a57600080fd5b505af115801561098e573d6000803e3d6000fd5b5050604080516365e89c5760e11b815233600482015290516001600160a01b038a16935063cbd138ae9250602480830192600092919082900301818387803b1580156109d957600080fd5b505af11580156109ed573d6000803e3d6000fd5b50505050336001600160a01b031660008051602061348d8339815191526000806000600160405180858152602001848152602001838152602001826006811115610a3357fe5b60ff16815260200194505050505060405180910390a2610a6d858533610a68856802b5e3af16b188000063ffffffff611fe416565b6120e6565b600654610a9090869086906001600160a01b03166802b5e3af16b18800006120e6565b604080516364a197f360e01b81523360048201526024810184905290516001600160a01b038716916364a197f391604480830192600092919082900301818387803b158015610ade57600080fd5b505af1158015610af2573d6000803e3d6000fd5b50505050505050505050565b610b0f33600085600186868a6118a4565b50505050565b610b2586868686868660006118a4565b505050505050565b6802b5e3af16b188000081565b6001546001600160a01b031681565b6004546001600160a01b031681565b60c881565b6000610b68826121c2565b92915050565b6000610b7f888888888888886121dd565b98975050505050505050565b61071b3384600080868660006118a4565b6714d1120d7b16000081565b610bba336000806000868660006118a4565b5050565b610bc6611841565b610c17576040805162461bcd60e51b815260206004820181905260248201527f4f776e61626c653a2063616c6c6572206973206e6f7420746865206f776e6572604482015290519081900360640190fd5b610c208a612210565b610c2989612210565b610c3288612210565b610c3b87612210565b610c4486612210565b610c4d85612210565b610c5684612210565b610c5f83612210565b610c6882612210565b610c7181612210565b600480546001600160a01b03199081166001600160a01b038d81169182179093556000805483168d85161790556001805483168c85161790556005805483168b85161790556006805483168a8516179055600780548316898516179055600280548316888516179055600b80548316878516179055600a80548316868516179055600980548316938516938417905560088054909216909217905560408051918252517f143219c9e69b09e07e095fcc889b43d8f46ca892bba65f08dc3a0050869a5678916020908290030190a1604080516001600160a01b038b16815290517f78f058b189175430c48dc02699e3a0031ea4ff781536dc2fab847de4babdd8829181900360200190a1604080516001600160a01b038a16815290517f5ee0cae2f063ed938bb55046f6a932fb6ae792bf43624806bb90abe68a50be9b9181900360200190a1604080516001600160a01b038916815290517f82966d27eea39b038ee0fa30cd16532bb24f6e65d31cb58fb227aa5766cdcc7f9181900360200190a1604080516001600160a01b038816815290517fcfb07d791fcafc032b35837b50eb84b74df518cf4cc287e8084f47630fa70fa09181900360200190a1604080516001600160a01b038716815290517fe67f36a6e961157d6eff83b91f3af5a62131ceb6f04954ef74f51c1c05e7f88d9181900360200190a1604080516001600160a01b038616815290517f8c537274438aa850a330284665d81a85dd38267d09e4050d416bfc94142db2649181900360200190a1604080516001600160a01b038516815290517f65f4cf077bc01e4742eb5ad98326f6e95b63548ea24b17f8d5e823111fe788009181900360200190a1604080516001600160a01b038416815290517f227eec0ec317af6ab1a9587ffa1c84332522eb4c583a908f89babc05f8f339bd9181900360200190a1604080516001600160a01b038316815290517f756ebc192164c295bba134b5aacd72cc7aff8098a670d1f0a5f6b3a0b4ce67079181900360200190a1610af26122bf565b6007546040805163b32beb5b60e01b815233600482015290516001600160a01b039092169163b32beb5b9160248082019260009290919082900301818387803b158015610faf57600080fd5b505af1158015610b0f573d6000803e3d6000fd5b6000610fcf8383612309565b9392505050565b670de0b6b3a764000081565b6002546001600160a01b031681565b6009546001600160a01b031681565b670f43fc2c04ee000081565b6000805460408051632f5a97e560e11b8152905183926001600160a01b031691635eb52fca916004808301926020929190829003018186803b15801561105157600080fd5b505afa158015611065573d6000803e3d6000fd5b505050506040513d602081101561107b57600080fd5b505160015460408051632f5a97e560e11b815290519293506000926001600160a01b0390921691635eb52fca91600480820192602092909190829003018186803b1580156110c857600080fd5b505afa1580156110dc573d6000803e3d6000fd5b505050506040513d60208110156110f257600080fd5b50519050611106828263ffffffff61233c16565b9250505090565b6000546001600160a01b031681565b6111246131da565b50604080516060810182526004546001600160a01b03908116825260005481166020830152600a54169181019190915261115c6131fa565b841561116b5761116b86612396565b815161117790336123f0565b600260009054906101000a90046001600160a01b03166001600160a01b0316630fdb11cf6040518163ffffffff1660e01b8152600401602060405180830381600087803b1580156111c757600080fd5b505af11580156111db573d6000803e3d6000fd5b505050506040513d60208110156111f157600080fd5b505180825260408201869052600090611209906124cc565b9050801580156112195750600086115b156112535761123283600001518460400151888a6124e9565b60208301819052604083015161124d9163ffffffff61233c16565b60408301525b61126082604001516121c2565b6060830181905261126d57fe5b6112803483606001518460000151612699565b608083015260608201516112959034906126cb565b60a083015280156112b2576112ad8260800151612700565b6112e5565b6112bf8260800151612747565b60006112d834600185606001516001876000015161278e565b90506112e381612819565b505b825160408051635d6b480f60e01b81523360048201526001602482015290516001600160a01b0390921691635d6b480f9160448082019260009290919082900301818387803b15801561133757600080fd5b505af115801561134b573d6000803e3d6000fd5b50508451604080516372423c1760e01b815233600482015234602482015290516001600160a01b0390921693506372423c1792506044808201926020929091908290030181600087803b1580156113a157600080fd5b505af11580156113b5573d6000803e3d6000fd5b505050506040513d60208110156113cb57600080fd5b50508251606083015160408051639976cf4560e01b81523360048201526024810192909252516001600160a01b0390921691639976cf45916044808201926020929091908290030181600087803b15801561142557600080fd5b505af1158015611439573d6000803e3d6000fd5b505050506040513d602081101561144f57600080fd5b50508251604080516382fe3eb960e01b815233600482015290516001600160a01b03909216916382fe3eb99160248082019260009290919082900301818387803b15801561149c57600080fd5b505af11580156114b0573d6000803e3d6000fd5b5050845160408051630c7940bd60e11b815233600482015290516001600160a01b0390921693506318f2817a92506024808201926020929091908290030181600087803b15801561150057600080fd5b505af1158015611514573d6000803e3d6000fd5b505050506040513d602081101561152a57600080fd5b505160c0830152600b5460a0830151604080516346f7cf8760e01b815233600482015260248101929092526001600160a01b038881166044840152878116606484015290519216916346f7cf879160848082019260009290919082900301818387803b15801561159957600080fd5b505af11580156115ad573d6000803e3d6000fd5b50508451604080516315d549f160e01b815233600482015290516001600160a01b0390921693506315d549f192506024808201926020929091908290030181600087803b1580156115fd57600080fd5b505af1158015611611573d6000803e3d6000fd5b505050506040513d602081101561162757600080fd5b505160e08301819052604080519182525133917f59cfd0cd754bc5748b6770e94a4ffa5f678d885cb899dcfadc5734edb97c67ab919081900360200190a2611673836020015134612860565b85156116925761169283602001518460400151338986604001516128f0565b602083015160408401516006546116be9291906001600160a01b03166802b5e3af16b1880000806128f0565b336001600160a01b031660008051602061348d8339815191528360600151348560c0015160006040518085815260200184815260200183815260200182600681111561170657fe5b60ff16815260200194505050505060405180910390a2602080830151604080519182525133927fa55c5f48fd29482ad55f4b59bf070cd1ac1a7132a31f7a136ebe8877ae37e1ff928290030190a250505050505050565b600061176c868686868661278e565b9695505050505050565b6000805460408051630a7b61df60e11b8152905183926001600160a01b0316916314f6c3be916004808301926020929190829003018186803b1580156117bb57600080fd5b505afa1580156117cf573d6000803e3d6000fd5b505050506040513d60208110156117e557600080fd5b505160015460408051630a7b61df60e11b815290519293506000926001600160a01b03909216916314f6c3be91600480820192602092909190829003018186803b1580156110c857600080fd5b6003546001600160a01b031690565b6003546001600160a01b0316331490565b6008546001600160a01b031681565b600b546001600160a01b031681565b600a546001600160a01b031681565b610b253386868686868c6118a4565b6118966129cd565b61071b836000806000868660005b6118ac6131da565b50604080516060810182526004546001600160a01b03908116825260005481166020830152600a54169181019190915284156118eb576118eb82612396565b6118f487612a18565b6118fe8787612a5e565b805161190a9089611ed7565b6000871515806119175750855b905080156119285761192889612ab0565b61193061323f565b600260009054906101000a90046001600160a01b03166001600160a01b0316630fdb11cf6040518163ffffffff1660e01b8152600401602060405180830381600087803b15801561198057600080fd5b505af1158015611994573d6000803e3d6000fd5b505050506040513d60208110156119aa57600080fd5b50518082526000906119bb906124cc565b905083600001516001600160a01b0316630b0765578c6040518263ffffffff1660e01b815260040180826001600160a01b03166001600160a01b03168152602001915050600060405180830381600087803b158015611a1957600080fd5b505af1158015611a2d573d6000803e3d6000fd5b50505050611a3b348b612af7565b151560608401526020830152604082018990528715611a9857611a5d89612b16565b80611a9857611a76846000015185604001518b886124e9565b61010083018190526040830151611a929163ffffffff61233c16565b60408301525b83600001516001600160a01b031663d66a25538c6040518263ffffffff1660e01b815260040180826001600160a01b03166001600160a01b0316815260200191505060206040518083038186803b158015611af257600080fd5b505afa158015611b06573d6000803e3d6000fd5b505050506040513d6020811015611b1c57600080fd5b505160808301528351604080516309019aaf60e31b81526001600160a01b038e811660048301529151919092169163480cd578916024808301926020929190829003018186803b158015611b6f57600080fd5b505afa158015611b83573d6000803e3d6000fd5b505050506040513d6020811015611b9957600080fd5b505160a0830181905260808301518351611bb4929190612699565b8260c0018181525050611be48260a0015183608001518460200151856060015186604001518d88600001516121dd565b60e08301528215611c34578160a001518a1115611bfd57fe5b6000611c1c8360200151846060015185604001518c876000015161278e565b9050611c32828460c001518560e0015184612b55565b505b87158015611c425750600089115b15611c6c57611c5982608001518360400151612b7b565b611c6c84604001518c8460400151612026565b611c8a84600001518c8460200151856060015186604001518d612bd2565b610120840152610140830152835160408051630c7940bd60e11b81526001600160a01b038e81166004830152915191909216916318f2817a9160248083019260209291908290030181600087803b158015611ce457600080fd5b505af1158015611cf8573d6000803e3d6000fd5b505050506040513d6020811015611d0e57600080fd5b505161016083015260a08201516080830151602084015160608501516040860151600094611d42949093909290918e612e32565b9050600b60009054906101000a90046001600160a01b03166001600160a01b0316632be212608d838b8b6040518563ffffffff1660e01b815260040180856001600160a01b03166001600160a01b03168152602001848152602001836001600160a01b03166001600160a01b03168152602001826001600160a01b03166001600160a01b03168152602001945050505050600060405180830381600087803b158015611ded57600080fd5b505af1158015611e01573d6000803e3d6000fd5b505050508b6001600160a01b031660008051602061348d833981519152846101200151856101400151866101600151600660405180858152602001848152602001838152602001826006811115611e5457fe5b60ff16815260200194505050505060405180910390a2610100830151604080519182525133917fa55c5f48fd29482ad55f4b59bf070cd1ac1a7132a31f7a136ebe8877ae37e1ff919081900360200190a2611ec98560200151866040015133866020015187606001518f8f8a60400151612e63565b505050505050505050505050565b6000826001600160a01b03166321e37801836040518263ffffffff1660e01b815260040180826001600160a01b03166001600160a01b0316815260200191505060206040518083038186803b158015611f2f57600080fd5b505afa158015611f43573d6000803e3d6000fd5b505050506040513d6020811015611f5957600080fd5b505190506001811461071b5760405162461bcd60e51b815260040180806020018281038252602e81526020018061345f602e913960400191505060405180910390fd5b611fa5816124cc565b15611fe15760405162461bcd60e51b81526004018080602001828103825260398152602001806133766039913960400191505060405180910390fd5b50565b6000610fcf83836040518060400160405280601e81526020017f536166654d6174683a207375627472616374696f6e206f766572666c6f770000815250612f10565b80836001600160a01b03166370a08231846040518263ffffffff1660e01b815260040180826001600160a01b03166001600160a01b0316815260200191505060206040518083038186803b15801561207d57600080fd5b505afa158015612091573d6000803e3d6000fd5b505050506040513d60208110156120a757600080fd5b5051101561071b5760405162461bcd60e51b81526004018080602001828103825260408152602001806134ad6040913960400191505060405180910390fd5b836001600160a01b03166338d995a8826040518263ffffffff1660e01b815260040180828152602001915050600060405180830381600087803b15801561212c57600080fd5b505af1158015612140573d6000803e3d6000fd5b50505050826001600160a01b0316639dc29fac83836040518363ffffffff1660e01b815260040180836001600160a01b03166001600160a01b0316815260200182815260200192505050600060405180830381600087803b1580156121a457600080fd5b505af11580156121b8573d6000803e3d6000fd5b5050505050505050565b6000610b68826802b5e3af16b188000063ffffffff61233c16565b60008060006121f08a8a8a8a8a8a612fa7565b915091506000612201838387612699565b9b9a5050505050505050505050565b6001600160a01b03811661226b576040805162461bcd60e51b815260206004820152601e60248201527f4163636f756e742063616e6e6f74206265207a65726f20616464726573730000604482015290519081900360640190fd5b803b80610bba576040805162461bcd60e51b815260206004820181905260248201527f4163636f756e7420636f64652073697a652063616e6e6f74206265207a65726f604482015290519081900360640190fd5b6003546040516000916001600160a01b0316907f8be0079c531659141344cd1fd0a4f28419497f9722a3daafe3b4186f6b6457e0908390a3600380546001600160a01b0319169055565b600080612334670de0b6b3a7640000612328858763ffffffff61300216565b9063ffffffff61305b16565b949350505050565b600082820183811015610fcf576040805162461bcd60e51b815260206004820152601b60248201527f536166654d6174683a206164646974696f6e206f766572666c6f770000000000604482015290519081900360640190fd5b6611c37937e0800081101580156123b55750670de0b6b3a76400008111155b611fe15760405162461bcd60e51b81526004018080602001828103825260308152602001806135a26030913960400191505060405180910390fd5b6000826001600160a01b03166321e37801836040518263ffffffff1660e01b815260040180826001600160a01b03166001600160a01b0316815260200191505060206040518083038186803b15801561244857600080fd5b505afa15801561245c573d6000803e3d6000fd5b505050506040513d602081101561247257600080fd5b50519050600181141561071b576040805162461bcd60e51b815260206004820152601c60248201527f426f72726f7765724f70733a2054726f76652069732061637469766500000000604482015290519081900360640190fd5b6000806124d88361309d565b6714d1120d7b160000119392505050565b6000846001600160a01b0316635dba4c4a6040518163ffffffff1660e01b8152600401600060405180830381600087803b15801561252657600080fd5b505af115801561253a573d6000803e3d6000fd5b505050506000856001600160a01b031663631203b0856040518263ffffffff1660e01b81526004018082815260200191505060206040518083038186803b15801561258457600080fd5b505afa158015612598573d6000803e3d6000fd5b505050506040513d60208110156125ae57600080fd5b505190506125bd8185856130c1565b60085460408051634677ffb360e01b81526004810184905290516001600160a01b0390921691634677ffb39160248082019260009290919082900301818387803b15801561260a57600080fd5b505af115801561261e573d6000803e3d6000fd5b5050600954604080516340c10f1960e01b81526001600160a01b03928316600482015260248101869052905191891693506340c10f19925060448082019260009290919082900301818387803b15801561267757600080fd5b505af115801561268b573d6000803e3d6000fd5b509298975050505050505050565b600082156126c05760006126b784612328878663ffffffff61300216565b9150610fcf9050565b506000199392505050565b600081156126f7576126f0826123288568056bc75e2d6310000063ffffffff61300216565b9050610b68565b50600019610b68565b6714d1120d7b160000811015611fe15760405162461bcd60e51b815260040180806020018281038252603d8152602001806132a3603d913960400191505060405180910390fd5b670f43fc2c04ee0000811015611fe15760405162461bcd60e51b81526004018080602001828103825260498152602001806134ed6049913960600191505060405180910390fd5b600080612799611776565b905060006127a561100c565b9050866127c1576127bc828963ffffffff611fe416565b6127d1565b6127d1828963ffffffff61233c16565b9150846127ed576127e8818763ffffffff611fe416565b6127fd565b6127fd818763ffffffff61233c16565b9050600061280c838387612699565b9998505050505050505050565b6714d1120d7b160000811015611fe15760405162461bcd60e51b81526004018080602001828103825260498152602001806134166049913960600191505060405180910390fd5b6040516000906001600160a01b0384169083908381818185875af1925050503d80600081146128ab576040519150601f19603f3d011682016040523d82523d6000602084013e6128b0565b606091505b505090508061071b5760405162461bcd60e51b815260040180806020018281038252602d8152602001806132e0602d913960400191505060405180910390fd5b846001600160a01b031663cfb9329a826040518263ffffffff1660e01b815260040180828152602001915050600060405180830381600087803b15801561293657600080fd5b505af115801561294a573d6000803e3d6000fd5b50505050836001600160a01b03166340c10f1984846040518363ffffffff1660e01b815260040180836001600160a01b03166001600160a01b0316815260200182815260200192505050600060405180830381600087803b1580156129ae57600080fd5b505af11580156129c2573d6000803e3d6000fd5b505050505050505050565b6005546001600160a01b03163314612a165760405162461bcd60e51b81526004018080602001828103825260298152602001806135796029913960400191505060405180910390fd5b565b341580612a23575080155b611fe15760405162461bcd60e51b81526004018080602001828103825260308152602001806133466030913960400191505060405180910390fd5b34151580612a6b57508115155b80612a7557508015155b610bba5760405162461bcd60e51b81526004018080602001828103825260468152602001806133af6046913960600191505060405180910390fd5b336001600160a01b03821614611fe15760405162461bcd60e51b815260040180806020018281038252603981526020018061330d6039913960400191505060405180910390fd5b6000808315612b0b57508290506001612b0f565b8291505b9250929050565b60008111611fe15760405162461bcd60e51b81526004018080602001828103825260378152602001806135d26037913960400191505060405180910390fd5b612b5e82612747565b83612b7157612b6c81612819565b610b0f565b610b0f8284613136565b612b94826802b5e3af16b188000063ffffffff611fe416565b811115610bba5760405162461bcd60e51b81526004018080602001828103825260438152602001806135366043913960600191505060405180910390fd5b600080600085612c6d57886001600160a01b031663d3d6f84389896040518363ffffffff1660e01b815260040180836001600160a01b03166001600160a01b0316815260200182815260200192505050602060405180830381600087803b158015612c3c57600080fd5b505af1158015612c50573d6000803e3d6000fd5b505050506040513d6020811015612c6657600080fd5b5051612cfa565b886001600160a01b03166372423c1789896040518363ffffffff1660e01b815260040180836001600160a01b03166001600160a01b0316815260200182815260200192505050602060405180830381600087803b158015612ccd57600080fd5b505af1158015612ce1573d6000803e3d6000fd5b505050506040513d6020811015612cf757600080fd5b50515b9050600084612d9457896001600160a01b03166312610e928a886040518363ffffffff1660e01b815260040180836001600160a01b03166001600160a01b0316815260200182815260200192505050602060405180830381600087803b158015612d6357600080fd5b505af1158015612d77573d6000803e3d6000fd5b505050506040513d6020811015612d8d57600080fd5b5051612e21565b896001600160a01b0316639976cf458a886040518363ffffffff1660e01b815260040180836001600160a01b03166001600160a01b0316815260200182815260200192505050602060405180830381600087803b158015612df457600080fd5b505af1158015612e08573d6000803e3d6000fd5b505050506040513d6020811015612e1e57600080fd5b50515b919a91995090975050505050505050565b6000806000612e45898989898989612fa7565b915091506000612e5583836126cb565b9a9950505050505050505050565b8115612e7b57612e7688888886856128f0565b612e87565b612e87888888866120e6565b8315612e9c57612e978886612860565b6121b8565b876001600160a01b03166364a197f387876040518363ffffffff1660e01b815260040180836001600160a01b03166001600160a01b0316815260200182815260200192505050600060405180830381600087803b158015612efc57600080fd5b505af1158015611ec9573d6000803e3d6000fd5b60008184841115612f9f5760405162461bcd60e51b81526004018080602001828103825283818151815260200191508051906020019080838360005b83811015612f64578181015183820152602001612f4c565b50505050905090810190601f168015612f915780820380516001836020036101000a031916815260200191505b509250505060405180910390fd5b505050900390565b600080878786612fc657612fc18a8963ffffffff611fe416565b612fd6565b612fd68a8963ffffffff61233c16565b915084612ff257612fed898763ffffffff611fe416565b612e21565b612e21898763ffffffff61233c16565b60008261301157506000610b68565b8282028284828161301e57fe5b0414610fcf5760405162461bcd60e51b81526004018080602001828103825260218152602001806133f56021913960400191505060405180910390fd5b6000610fcf83836040518060400160405280601a81526020017f536166654d6174683a206469766973696f6e206279207a65726f000000000000815250613175565b6000806130a8611776565b905060006130b461100c565b9050612334828286612699565b60006130df8361232886670de0b6b3a764000063ffffffff61300216565b905081811115610b0f576040805162461bcd60e51b815260206004820152601d60248201527f4665652065786365656465642070726f7669646564206d6178696d756d000000604482015290519081900360640190fd5b80821015610bba5760405162461bcd60e51b815260040180806020018281038252603e815260200180613609603e913960400191505060405180910390fd5b600081836131c45760405162461bcd60e51b8152602060048201818152835160248401528351909283926044909101919085019080838360008315612f64578181015183820152602001612f4c565b5060008385816131d057fe5b0495945050505050565b604080516060810182526000808252602082018190529181019190915290565b60405180610100016040528060008152602001600081526020016000815260200160008152602001600081526020016000815260200160008152602001600081525090565b6040518061018001604052806000815260200160008152602001600081526020016000151581526020016000815260200160008152602001600081526020016000815260200160008152602001600081526020016000815260200160008152509056fe426f72726f7765724f70733a20496e205265636f76657279204d6f6465206e65772074726f766573206d757374206861766520494352203e3d20434352426f72726f7765724f70733a2053656e64696e672045544820746f20416374697665506f6f6c206661696c6564426f72726f7765724f70733a2043616c6c6572206d7573742062652074686520626f72726f77657220666f722061207769746864726177616c426f72726f7765724f7065726174696f6e733a2043616e6e6f7420776974686472617720616e642061646420636f6c6c426f72726f7765724f70733a204f7065726174696f6e206e6f74207065726d697474656420647572696e67205265636f76657279204d6f6465426f72726f7765724f70733a205468657265206d75737420626520656974686572206120636f6c6c61746572616c206368616e6765206f7220612064656274206368616e6765536166654d6174683a206d756c7469706c69636174696f6e206f766572666c6f77426f72726f7765724f70733a20416e206f7065726174696f6e207468617420776f756c6420726573756c7420696e20544352203c20434352206973206e6f74207065726d6974746564426f72726f7765724f70733a2054726f766520646f6573206e6f74206578697374206f7220697320636c6f736564c3770d654ed33aeea6bf11ac8ef05d02a6a04ed4686dd2f624d853bbec43cc8b426f72726f7765724f70733a2043616c6c657220646f65736e74206861766520656e6f756768204c55534420746f20636c6f73652074686569722074726f7665426f72726f7765724f70733a20416e206f7065726174696f6e207468617420776f756c6420726573756c7420696e20494352203c204d4352206973206e6f74207065726d6974746564426f72726f7765724f70733a20416d6f756e7420726570616964206d757374206e6f74206265206c6172676572207468616e207468652054726f766527732064656274426f72726f7765724f70733a2043616c6c6572206973206e6f742053746162696c69747920506f6f6c4d6178206665652070657263656e74616765206d757374206265206265747765656e20302e352520616e642031303025426f72726f7765724f70733a204465627420696e637265617365207265717569726573206e6f6e2d7a65726f20646562744368616e6765426f72726f7765724f70733a2043616e6e6f7420646563726561736520796f75722054726f766527732049435220696e205265636f76657279204d6f6465a2646970667358221220add7f1d09e575e12e3f1d91c262350d84248623e556ed0b1216b7783795875fa64736f6c634300060b0033",
  "linkReferences": {},
  "deployedLinkReferences": {}
}