{
  "_format": "hh-sol-artifact-1",
  "contractName": "BorrowerOperationsTester",
  "sourceName": "contracts/TestContracts/BorrowerOperationsTester.sol",
  "abi": [
    {
      "anonymous": false,
      "inputs": [
        {
          "indexed": false,
          "internalType": "address",
          "name": "_activePoolAddress",
          "type": "address"
        }
      ],
      "name": "ActivePoolAddressChanged",
      "type": "event"
    },
    {
      "anonymous": false,
      "inputs": [
        {
          "indexed": false,
          "internalType": "address",
          "name": "_collSurplusPoolAddress",
          "type": "address"
        }
      ],
      "name": "CollSurplusPoolAddressChanged",
      "type": "event"
    },
    {
      "anonymous": false,
      "inputs": [
        {
          "indexed": false,
          "internalType": "address",
          "name": "_defaultPoolAddress",
          "type": "address"
        }
      ],
      "name": "DefaultPoolAddressChanged",
      "type": "event"
    },
    {
      "anonymous": false,
      "inputs": [
        {
          "indexed": false,
          "internalType": "address",
          "name": "_gasPoolAddress",
          "type": "address"
        }
      ],
      "name": "GasPoolAddressChanged",
      "type": "event"
    },
    {
      "anonymous": false,
      "inputs": [
        {
          "indexed": false,
          "internalType": "address",
          "name": "_lqtyStakingAddress",
          "type": "address"
        }
      ],
      "name": "LQTYStakingAddressChanged",
      "type": "event"
    },
    {
      "anonymous": false,
      "inputs": [
        {
          "indexed": true,
          "internalType": "address",
          "name": "_borrower",
          "type": "address"
        },
        {
          "indexed": false,
          "internalType": "uint256",
          "name": "_LUSDFee",
          "type": "uint256"
        }
      ],
      "name": "LUSDBorrowingFeePaid",
      "type": "event"
    },
    {
      "anonymous": false,
      "inputs": [
        {
          "indexed": false,
          "internalType": "address",
          "name": "_lusdTokenAddress",
          "type": "address"
        }
      ],
      "name": "LUSDTokenAddressChanged",
      "type": "event"
    },
    {
      "anonymous": false,
      "inputs": [
        {
          "indexed": true,
          "internalType": "address",
          "name": "previousOwner",
          "type": "address"
        },
        {
          "indexed": true,
          "internalType": "address",
          "name": "newOwner",
          "type": "address"
        }
      ],
      "name": "OwnershipTransferred",
      "type": "event"
    },
    {
      "anonymous": false,
      "inputs": [
        {
          "indexed": false,
          "internalType": "address",
          "name": "_newPriceFeedAddress",
          "type": "address"
        }
      ],
      "name": "PriceFeedAddressChanged",
      "type": "event"
    },
    {
      "anonymous": false,
      "inputs": [
        {
          "indexed": false,
          "internalType": "address",
          "name": "_sortedTrovesAddress",
          "type": "address"
        }
      ],
      "name": "SortedTrovesAddressChanged",
      "type": "event"
    },
    {
      "anonymous": false,
      "inputs": [
        {
          "indexed": false,
          "internalType": "address",
          "name": "_stabilityPoolAddress",
          "type": "address"
        }
      ],
      "name": "StabilityPoolAddressChanged",
      "type": "event"
    },
    {
      "anonymous": false,
      "inputs": [
        {
          "indexed": true,
          "internalType": "address",
          "name": "_borrower",
          "type": "address"
        },
        {
          "indexed": false,
          "internalType": "uint256",
          "name": "arrayIndex",
          "type": "uint256"
        }
      ],
      "name": "TroveCreated",
      "type": "event"
    },
    {
      "anonymous": false,
      "inputs": [
        {
          "indexed": false,
          "internalType": "address",
          "name": "_newTroveManagerAddress",
          "type": "address"
        }
      ],
      "name": "TroveManagerAddressChanged",
      "type": "event"
    },
    {
      "anonymous": false,
      "inputs": [
        {
          "indexed": true,
          "internalType": "address",
          "name": "_borrower",
          "type": "address"
        },
        {
          "indexed": false,
          "internalType": "uint256",
          "name": "_debt",
          "type": "uint256"
        },
        {
          "indexed": false,
          "internalType": "uint256",
          "name": "_coll",
          "type": "uint256"
        },
        {
          "indexed": false,
          "internalType": "uint256",
          "name": "stake",
          "type": "uint256"
        },
        {
          "indexed": false,
          "internalType": "enum BorrowerOperations.BorrowerOperation",
          "name": "operation",
          "type": "uint8"
        }
      ],
      "name": "TroveUpdated",
      "type": "event"
    },
    {
      "inputs": [],
      "name": "BORROWING_FEE_FLOOR",
      "outputs": [
        {
          "internalType": "uint256",
          "name": "",
          "type": "uint256"
        }
      ],
      "stateMutability": "view",
      "type": "function"
    },
    {
      "inputs": [],
      "name": "CCR",
      "outputs": [
        {
          "internalType": "uint256",
          "name": "",
          "type": "uint256"
        }
      ],
      "stateMutability": "view",
      "type": "function"
    },
    {
      "inputs": [],
      "name": "DECIMAL_PRECISION",
      "outputs": [
        {
          "internalType": "uint256",
          "name": "",
          "type": "uint256"
        }
      ],
      "stateMutability": "view",
      "type": "function"
    },
    {
      "inputs": [],
      "name": "LUSD_GAS_COMPENSATION",
      "outputs": [
        {
          "internalType": "uint256",
          "name": "",
          "type": "uint256"
        }
      ],
      "stateMutability": "view",
      "type": "function"
    },
    {
      "inputs": [],
      "name": "MCR",
      "outputs": [
        {
          "internalType": "uint256",
          "name": "",
          "type": "uint256"
        }
      ],
      "stateMutability": "view",
      "type": "function"
    },
    {
      "inputs": [],
      "name": "MIN_NET_DEBT",
      "outputs": [
        {
          "internalType": "uint256",
          "name": "",
          "type": "uint256"
        }
      ],
      "stateMutability": "view",
      "type": "function"
    },
    {
      "inputs": [],
      "name": "PERCENT_DIVISOR",
      "outputs": [
        {
          "internalType": "uint256",
          "name": "",
          "type": "uint256"
        }
      ],
      "stateMutability": "view",
      "type": "function"
    },
    {
      "inputs": [],
      "name": "_100pct",
      "outputs": [
        {
          "internalType": "uint256",
          "name": "",
          "type": "uint256"
        }
      ],
      "stateMutability": "view",
      "type": "function"
    },
    {
      "inputs": [],
      "name": "activePool",
      "outputs": [
        {
          "internalType": "contract IActivePool",
          "name": "",
          "type": "address"
        }
      ],
      "stateMutability": "view",
      "type": "function"
    },
    {
      "inputs": [
        {
          "internalType": "address",
          "name": "_upperHint",
          "type": "address"
        },
        {
          "internalType": "address",
          "name": "_lowerHint",
          "type": "address"
        }
      ],
      "name": "addColl",
      "outputs": [],
      "stateMutability": "payable",
      "type": "function"
    },
    {
      "inputs": [
        {
          "internalType": "uint256",
          "name": "_maxFeePercentage",
          "type": "uint256"
        },
        {
          "internalType": "uint256",
          "name": "_collWithdrawal",
          "type": "uint256"
        },
        {
          "internalType": "uint256",
          "name": "_LUSDChange",
          "type": "uint256"
        },
        {
          "internalType": "bool",
          "name": "_isDebtIncrease",
          "type": "bool"
        },
        {
          "internalType": "address",
          "name": "_upperHint",
          "type": "address"
        },
        {
          "internalType": "address",
          "name": "_lowerHint",
          "type": "address"
        }
      ],
      "name": "adjustTrove",
      "outputs": [],
      "stateMutability": "payable",
      "type": "function"
    },
    {
      "inputs": [
        {
          "internalType": "address",
          "name": "_borrower",
          "type": "address"
        },
        {
          "internalType": "uint256",
          "name": "_collWithdrawal",
          "type": "uint256"
        },
        {
          "internalType": "uint256",
          "name": "_debtChange",
          "type": "uint256"
        },
        {
          "internalType": "bool",
          "name": "_isDebtIncrease",
          "type": "bool"
        },
        {
          "internalType": "address",
          "name": "_upperHint",
          "type": "address"
        },
        {
          "internalType": "address",
          "name": "_lowerHint",
          "type": "address"
        }
      ],
      "name": "callInternalAdjustLoan",
      "outputs": [],
      "stateMutability": "nonpayable",
      "type": "function"
    },
    {
      "inputs": [],
      "name": "claimCollateral",
      "outputs": [],
      "stateMutability": "nonpayable",
      "type": "function"
    },
    {
      "inputs": [],
      "name": "closeTrove",
      "outputs": [],
      "stateMutability": "nonpayable",
      "type": "function"
    },
    {
      "inputs": [],
      "name": "defaultPool",
      "outputs": [
        {
          "internalType": "contract IDefaultPool",
          "name": "",
          "type": "address"
        }
      ],
      "stateMutability": "view",
      "type": "function"
    },
    {
      "inputs": [
        {
          "internalType": "uint256",
          "name": "_debt",
          "type": "uint256"
        }
      ],
      "name": "getCompositeDebt",
      "outputs": [
        {
          "internalType": "uint256",
          "name": "",
          "type": "uint256"
        }
      ],
      "stateMutability": "pure",
      "type": "function"
    },
    {
      "inputs": [],
      "name": "getEntireSystemColl",
      "outputs": [
        {
          "internalType": "uint256",
          "name": "entireSystemColl",
          "type": "uint256"
        }
      ],
      "stateMutability": "view",
      "type": "function"
    },
    {
      "inputs": [],
      "name": "getEntireSystemDebt",
      "outputs": [
        {
          "internalType": "uint256",
          "name": "entireSystemDebt",
          "type": "uint256"
        }
      ],
      "stateMutability": "view",
      "type": "function"
    },
    {
      "inputs": [
        {
          "internalType": "uint256",
          "name": "_coll",
          "type": "uint256"
        },
        {
          "internalType": "uint256",
          "name": "_debt",
          "type": "uint256"
        },
        {
          "internalType": "uint256",
          "name": "_collChange",
          "type": "uint256"
        },
        {
          "internalType": "bool",
          "name": "isCollIncrease",
          "type": "bool"
        },
        {
          "internalType": "uint256",
          "name": "_debtChange",
          "type": "uint256"
        },
        {
          "internalType": "bool",
          "name": "isDebtIncrease",
          "type": "bool"
        },
        {
          "internalType": "uint256",
          "name": "_price",
          "type": "uint256"
        }
      ],
      "name": "getNewICRFromTroveChange",
      "outputs": [
        {
          "internalType": "uint256",
          "name": "",
          "type": "uint256"
        }
      ],
      "stateMutability": "pure",
      "type": "function"
    },
    {
      "inputs": [
        {
          "internalType": "uint256",
          "name": "_collChange",
          "type": "uint256"
        },
        {
          "internalType": "bool",
          "name": "isCollIncrease",
          "type": "bool"
        },
        {
          "internalType": "uint256",
          "name": "_debtChange",
          "type": "uint256"
        },
        {
          "internalType": "bool",
          "name": "isDebtIncrease",
          "type": "bool"
        },
        {
          "internalType": "uint256",
          "name": "_price",
          "type": "uint256"
        }
      ],
      "name": "getNewTCRFromTroveChange",
      "outputs": [
        {
          "internalType": "uint256",
          "name": "",
          "type": "uint256"
        }
      ],
      "stateMutability": "view",
      "type": "function"
    },
    {
      "inputs": [
        {
          "internalType": "uint256",
          "name": "_coll",
          "type": "uint256"
        },
        {
          "internalType": "uint256",
          "name": "_price",
          "type": "uint256"
        }
      ],
      "name": "getUSDValue",
      "outputs": [
        {
          "internalType": "uint256",
          "name": "",
          "type": "uint256"
        }
      ],
      "stateMutability": "pure",
      "type": "function"
    },
    {
      "inputs": [],
      "name": "isOwner",
      "outputs": [
        {
          "internalType": "bool",
          "name": "",
          "type": "bool"
        }
      ],
      "stateMutability": "view",
      "type": "function"
    },
    {
      "inputs": [],
      "name": "lqtyStaking",
      "outputs": [
        {
          "internalType": "contract ILQTYStaking",
          "name": "",
          "type": "address"
        }
      ],
      "stateMutability": "view",
      "type": "function"
    },
    {
      "inputs": [],
      "name": "lqtyStakingAddress",
      "outputs": [
        {
          "internalType": "address",
          "name": "",
          "type": "address"
        }
      ],
      "stateMutability": "view",
      "type": "function"
    },
    {
      "inputs": [],
      "name": "lusdToken",
      "outputs": [
        {
          "internalType": "contract ILUSDToken",
          "name": "",
          "type": "address"
        }
      ],
      "stateMutability": "view",
      "type": "function"
    },
    {
      "inputs": [
        {
          "internalType": "address",
          "name": "_borrower",
          "type": "address"
        },
        {
          "internalType": "address",
          "name": "_upperHint",
          "type": "address"
        },
        {
          "internalType": "address",
          "name": "_lowerHint",
          "type": "address"
        }
      ],
      "name": "moveETHGainToTrove",
      "outputs": [],
      "stateMutability": "payable",
      "type": "function"
    },
    {
      "inputs": [
        {
          "internalType": "uint256",
          "name": "_maxFeePercentage",
          "type": "uint256"
        },
        {
          "internalType": "uint256",
          "name": "_LUSDAmount",
          "type": "uint256"
        },
        {
          "internalType": "address",
          "name": "_upperHint",
          "type": "address"
        },
        {
          "internalType": "address",
          "name": "_lowerHint",
          "type": "address"
        }
      ],
      "name": "openTrove",
      "outputs": [],
      "stateMutability": "payable",
      "type": "function"
    },
    {
      "inputs": [],
      "name": "owner",
      "outputs": [
        {
          "internalType": "address",
          "name": "",
          "type": "address"
        }
      ],
      "stateMutability": "view",
      "type": "function"
    },
    {
      "inputs": [],
      "name": "priceFeed",
      "outputs": [
        {
          "internalType": "contract IPriceFeed",
          "name": "",
          "type": "address"
        }
      ],
      "stateMutability": "view",
      "type": "function"
    },
    {
      "inputs": [
        {
          "internalType": "uint256",
          "name": "_LUSDAmount",
          "type": "uint256"
        },
        {
          "internalType": "address",
          "name": "_upperHint",
          "type": "address"
        },
        {
          "internalType": "address",
          "name": "_lowerHint",
          "type": "address"
        }
      ],
      "name": "repayLUSD",
      "outputs": [],
      "stateMutability": "nonpayable",
      "type": "function"
    },
    {
      "inputs": [
        {
          "internalType": "address",
          "name": "_troveManagerAddress",
          "type": "address"
        },
        {
          "internalType": "address",
          "name": "_activePoolAddress",
          "type": "address"
        },
        {
          "internalType": "address",
          "name": "_defaultPoolAddress",
          "type": "address"
        },
        {
          "internalType": "address",
          "name": "_stabilityPoolAddress",
          "type": "address"
        },
        {
          "internalType": "address",
          "name": "_gasPoolAddress",
          "type": "address"
        },
        {
          "internalType": "address",
          "name": "_collSurplusPoolAddress",
          "type": "address"
        },
        {
          "internalType": "address",
          "name": "_priceFeedAddress",
          "type": "address"
        },
        {
          "internalType": "address",
          "name": "_sortedTrovesAddress",
          "type": "address"
        },
        {
          "internalType": "address",
          "name": "_lusdTokenAddress",
          "type": "address"
        },
        {
          "internalType": "address",
          "name": "_lqtyStakingAddress",
          "type": "address"
        }
      ],
      "name": "setAddresses",
      "outputs": [],
      "stateMutability": "nonpayable",
      "type": "function"
    },
    {
      "inputs": [],
      "name": "sortedTroves",
      "outputs": [
        {
          "internalType": "contract ISortedTroves",
          "name": "",
          "type": "address"
        }
      ],
      "stateMutability": "view",
      "type": "function"
    },
    {
      "inputs": [],
      "name": "troveManager",
      "outputs": [
        {
          "internalType": "contract ITroveManager",
          "name": "",
          "type": "address"
        }
      ],
      "stateMutability": "view",
      "type": "function"
    },
    {
      "inputs": [
        {
          "internalType": "uint256",
          "name": "_collWithdrawal",
          "type": "uint256"
        },
        {
          "internalType": "address",
          "name": "_upperHint",
          "type": "address"
        },
        {
          "internalType": "address",
          "name": "_lowerHint",
          "type": "address"
        }
      ],
      "name": "withdrawColl",
      "outputs": [],
      "stateMutability": "nonpayable",
      "type": "function"
    },
    {
      "inputs": [
        {
          "internalType": "uint256",
          "name": "_maxFeePercentage",
          "type": "uint256"
        },
        {
          "internalType": "uint256",
          "name": "_LUSDAmount",
          "type": "uint256"
        },
        {
          "internalType": "address",
          "name": "_upperHint",
          "type": "address"
        },
        {
          "internalType": "address",
          "name": "_lowerHint",
          "type": "address"
        }
      ],
      "name": "withdrawLUSD",
      "outputs": [],
      "stateMutability": "nonpayable",
      "type": "function"
    },
    {
      "stateMutability": "payable",
      "type": "receive"
    }
  ],
  "bytecode": "0x608060405234801561001057600080fd5b50600380546001600160a01b031916339081179091556040516000907f8be0079c531659141344cd1fd0a4f28419497f9722a3daafe3b4186f6b6457e0908290a3613835806100606000396000f3fe6080604052600436106101c85760003560e01c806372fe25aa116100f85780638da5cb5b116100905780638da5cb5b146106375780638f32d59b1461064c578063a20baee614610524578063a3a6401714610675578063ae9187541461068a578063b83f91a21461069f578063c6a6cf20146106b4578063ea9638bf146106fc578063f92d343314610734576101cf565b806372fe25aa14610524578063741bef1a14610539578063761ab22c1461054e578063794e572414610563578063795d26c3146105785780637f7dde4a1461058d578063860665b3146105a257806387eb305d146105dc578063887105d314610622576101cf565b80634870dd9a1161016b5780634870dd9a1461034c5780634ff814431461036157806351584ca41461038b5780635530273c146103dd5780635733d58f1461041e57806368647db1146104335780636c37a4af146104615780636f0b0c1c146104df5780636f30d212146104f4576101cf565b806304491fa7146101d45780630e704d50146102175780631184e5f81461022c5780631bf43555146102735780632cdcd7221461029a5780632e86bbd8146102f15780633cc74225146103065780633d83908a14610337576101cf565b366101cf57005b600080fd5b3480156101e057600080fd5b50610215600480360360608110156101f757600080fd5b508035906001600160a01b0360208201358116916040013516610749565b005b34801561022357600080fd5b50610215610760565b34801561023857600080fd5b506102156004803603608081101561024f57600080fd5b508035906020810135906001600160a01b0360408201358116916060013516610b5b565b34801561027f57600080fd5b50610288610b72565b60408051918252519081900360200190f35b3480156102a657600080fd5b50610215600480360360c08110156102bd57600080fd5b506001600160a01b0381358116916020810135916040820135916060810135151591608082013581169160a0013516610b7f565b3480156102fd57600080fd5b50610288610b97565b34801561031257600080fd5b5061031b610ba4565b604080516001600160a01b039092168252519081900360200190f35b34801561034357600080fd5b5061031b610bb3565b34801561035857600080fd5b50610288610bc2565b34801561036d57600080fd5b506102886004803603602081101561038457600080fd5b5035610bc7565b34801561039757600080fd5b50610288600480360360e08110156103ae57600080fd5b50803590602081013590604081013590606081013515159060808101359060a081013515159060c00135610bd8565b3480156103e957600080fd5b506102156004803603606081101561040057600080fd5b508035906001600160a01b0360208201358116916040013516610bf5565b34801561042a57600080fd5b50610288610c06565b6102156004803603604081101561044957600080fd5b506001600160a01b0381358116916020013516610c12565b34801561046d57600080fd5b50610215600480360361014081101561048557600080fd5b506001600160a01b038135811691602081013582169160408201358116916060810135821691608082013581169160a081013582169160c082013581169160e0810135821691610100820135811691610120013516610c28565b3480156104eb57600080fd5b50610215610fd9565b34801561050057600080fd5b506102886004803603604081101561051757600080fd5b5080359060200135611039565b34801561053057600080fd5b5061028861104c565b34801561054557600080fd5b5061031b611058565b34801561055a57600080fd5b5061031b611067565b34801561056f57600080fd5b50610288611076565b34801561058457600080fd5b50610288611082565b34801561059957600080fd5b5061031b611183565b610215600480360360808110156105b857600080fd5b508035906020810135906001600160a01b0360408201358116916060013516611192565b3480156105e857600080fd5b50610288600480360360a08110156105ff57600080fd5b5080359060208101351515906040810135906060810135151590608001356117c7565b34801561062e57600080fd5b506102886117e0565b34801561064357600080fd5b5061031b61189c565b34801561065857600080fd5b506106616118ab565b604080519115158252519081900360200190f35b34801561068157600080fd5b5061031b6118bc565b34801561069657600080fd5b5061031b6118cb565b3480156106ab57600080fd5b5061031b6118da565b610215600480360360c08110156106ca57600080fd5b5080359060208101359060408101359060608101351515906001600160a01b03608082013581169160a00135166118e9565b6102156004803603606081101561071257600080fd5b506001600160a01b0381358116916020810135821691604090910135166118f8565b34801561074057600080fd5b50610288611912565b61075b3360008560008686600061191d565b505050565b600454600054600a546001600160a01b039283169291821691166107848333611f1a565b60025460408051630fdb11cf60e01b815290516000926001600160a01b031691630fdb11cf91600480830192602092919082900301818787803b1580156107ca57600080fd5b505af11580156107de573d6000803e3d6000fd5b505050506040513d60208110156107f457600080fd5b5051905061080181611fdf565b60408051630b07655760e01b815233600482015290516001600160a01b03861691630b07655791602480830192600092919082900301818387803b15801561084857600080fd5b505af115801561085c573d6000803e3d6000fd5b5050604080516309019aaf60e31b81523360048201529051600093506001600160a01b038816925063480cd57891602480820192602092909190829003018186803b1580156108aa57600080fd5b505afa1580156108be573d6000803e3d6000fd5b505050506040513d60208110156108d457600080fd5b50516040805163d66a255360e01b815233600482015290519192506000916001600160a01b0388169163d66a2553916024808301926020929190829003018186803b15801561092257600080fd5b505afa158015610936573d6000803e3d6000fd5b505050506040513d602081101561094c57600080fd5b50519050610973843361096e846802b5e3af16b188000063ffffffff61202716565b612069565b600061098483600084600088612129565b905061098f816121b4565b60408051631fc5750960e31b815233600482015290516001600160a01b0389169163fe2ba84891602480830192600092919082900301818387803b1580156109d657600080fd5b505af11580156109ea573d6000803e3d6000fd5b5050604080516365e89c5760e11b815233600482015290516001600160a01b038b16935063cbd138ae9250602480830192600092919082900301818387803b158015610a3557600080fd5b505af1158015610a49573d6000803e3d6000fd5b50505050336001600160a01b03166000805160206135d18339815191526000806000600160405180858152602001848152602001838152602001826002811115610a8f57fe5b60ff16815260200194505050505060405180910390a2610ac9868633610ac4866802b5e3af16b188000063ffffffff61202716565b6121fb565b600654610aec90879087906001600160a01b03166802b5e3af16b18800006121fb565b604080516364a197f360e01b81523360048201526024810185905290516001600160a01b038816916364a197f391604480830192600092919082900301818387803b158015610b3a57600080fd5b505af1158015610b4e573d6000803e3d6000fd5b5050505050505050505050565b610b6c33600085600186868a61191d565b50505050565b6869b5afac750bb8000081565b610b8f868686868686600061191d565b505050505050565b6802b5e3af16b188000081565b6001546001600160a01b031681565b6004546001600160a01b031681565b60c881565b6000610bd2826122d7565b92915050565b6000610be9888888888888886122f2565b98975050505050505050565b61075b33846000808686600061191d565b6714d1120d7b16000081565b610c243360008060008686600061191d565b5050565b610c306118ab565b610c81576040805162461bcd60e51b815260206004820181905260248201527f4f776e61626c653a2063616c6c6572206973206e6f7420746865206f776e6572604482015290519081900360640190fd5b610c8a8a612325565b610c9389612325565b610c9c88612325565b610ca587612325565b610cae86612325565b610cb785612325565b610cc084612325565b610cc983612325565b610cd282612325565b610cdb81612325565b600480546001600160a01b03199081166001600160a01b038d81169182179093556000805483168d85161790556001805483168c85161790556005805483168b85161790556006805483168a8516179055600780548316898516179055600280548316888516179055600b80548316878516179055600a80548316868516179055600980548316938516938417905560088054909216909217905560408051918252517f143219c9e69b09e07e095fcc889b43d8f46ca892bba65f08dc3a0050869a5678916020908290030190a1604080516001600160a01b038b16815290517f78f058b189175430c48dc02699e3a0031ea4ff781536dc2fab847de4babdd8829181900360200190a1604080516001600160a01b038a16815290517f5ee0cae2f063ed938bb55046f6a932fb6ae792bf43624806bb90abe68a50be9b9181900360200190a1604080516001600160a01b038916815290517f82966d27eea39b038ee0fa30cd16532bb24f6e65d31cb58fb227aa5766cdcc7f9181900360200190a1604080516001600160a01b038816815290517fcfb07d791fcafc032b35837b50eb84b74df518cf4cc287e8084f47630fa70fa09181900360200190a1604080516001600160a01b038716815290517fe67f36a6e961157d6eff83b91f3af5a62131ceb6f04954ef74f51c1c05e7f88d9181900360200190a1604080516001600160a01b038616815290517f8c537274438aa850a330284665d81a85dd38267d09e4050d416bfc94142db2649181900360200190a1604080516001600160a01b038516815290517f65f4cf077bc01e4742eb5ad98326f6e95b63548ea24b17f8d5e823111fe788009181900360200190a1604080516001600160a01b038416815290517f227eec0ec317af6ab1a9587ffa1c84332522eb4c583a908f89babc05f8f339bd9181900360200190a1604080516001600160a01b038316815290517f756ebc192164c295bba134b5aacd72cc7aff8098a670d1f0a5f6b3a0b4ce67079181900360200190a1610fcd6123d4565b50505050505050505050565b6007546040805163b32beb5b60e01b815233600482015290516001600160a01b039092169163b32beb5b9160248082019260009290919082900301818387803b15801561102557600080fd5b505af1158015610b6c573d6000803e3d6000fd5b6000611045838361241e565b9392505050565b670de0b6b3a764000081565b6002546001600160a01b031681565b6009546001600160a01b031681565b670f43fc2c04ee000081565b6000805460408051632f5a97e560e11b8152905183926001600160a01b031691635eb52fca916004808301926020929190829003018186803b1580156110c757600080fd5b505afa1580156110db573d6000803e3d6000fd5b505050506040513d60208110156110f157600080fd5b505160015460408051632f5a97e560e11b815290519293506000926001600160a01b0390921691635eb52fca91600480820192602092909190829003018186803b15801561113e57600080fd5b505afa158015611152573d6000803e3d6000fd5b505050506040513d602081101561116857600080fd5b5051905061117c828263ffffffff61245116565b9250505090565b6000546001600160a01b031681565b61119a613324565b50604080516060810182526004546001600160a01b03908116825260005481166020830152600a5416918101919091526111d2613344565b600260009054906101000a90046001600160a01b03166001600160a01b0316630fdb11cf6040518163ffffffff1660e01b8152600401602060405180830381600087803b15801561122257600080fd5b505af1158015611236573d6000803e3d6000fd5b505050506040513d602081101561124c57600080fd5b505180825260009061125d906124ab565b905061126987826124c8565b82516112759033612574565b60408201869052806112b65761129583600001518460400151888a612650565b6020830181905260408301516112b09163ffffffff61245116565b60408301525b6112c38260400151612800565b6112d082604001516122d7565b606083018190526112dd57fe5b6112f03483606001518460000151612848565b6080830152606082015161130590349061287a565b60a083015280156113225761131d82608001516128af565b611355565b61132f82608001516128f6565b6000611348346001856060015160018760000151612129565b9050611353816121b4565b505b825160408051635d6b480f60e01b81523360048201526001602482015290516001600160a01b0390921691635d6b480f9160448082019260009290919082900301818387803b1580156113a757600080fd5b505af11580156113bb573d6000803e3d6000fd5b50508451604080516372423c1760e01b815233600482015234602482015290516001600160a01b0390921693506372423c1792506044808201926020929091908290030181600087803b15801561141157600080fd5b505af1158015611425573d6000803e3d6000fd5b505050506040513d602081101561143b57600080fd5b50508251606083015160408051639976cf4560e01b81523360048201526024810192909252516001600160a01b0390921691639976cf45916044808201926020929091908290030181600087803b15801561149557600080fd5b505af11580156114a9573d6000803e3d6000fd5b505050506040513d60208110156114bf57600080fd5b50508251604080516382fe3eb960e01b815233600482015290516001600160a01b03909216916382fe3eb99160248082019260009290919082900301818387803b15801561150c57600080fd5b505af1158015611520573d6000803e3d6000fd5b5050845160408051630c7940bd60e11b815233600482015290516001600160a01b0390921693506318f2817a92506024808201926020929091908290030181600087803b15801561157057600080fd5b505af1158015611584573d6000803e3d6000fd5b505050506040513d602081101561159a57600080fd5b505160c0830152600b5460a0830151604080516346f7cf8760e01b815233600482015260248101929092526001600160a01b038881166044840152878116606484015290519216916346f7cf879160848082019260009290919082900301818387803b15801561160957600080fd5b505af115801561161d573d6000803e3d6000fd5b50508451604080516315d549f160e01b815233600482015290516001600160a01b0390921693506315d549f192506024808201926020929091908290030181600087803b15801561166d57600080fd5b505af1158015611681573d6000803e3d6000fd5b505050506040513d602081101561169757600080fd5b505160e08301819052604080519182525133917f59cfd0cd754bc5748b6770e94a4ffa5f678d885cb899dcfadc5734edb97c67ab919081900360200190a26116e383602001513461293d565b6116fc83602001518460400151338986604001516129cd565b602083015160408401516006546117289291906001600160a01b03166802b5e3af16b1880000806129cd565b336001600160a01b03166000805160206135d18339815191528360600151348560c0015160006040518085815260200184815260200183815260200182600281111561177057fe5b60ff16815260200194505050505060405180910390a2602080830151604080519182525133927fa55c5f48fd29482ad55f4b59bf070cd1ac1a7132a31f7a136ebe8877ae37e1ff928290030190a250505050505050565b60006117d68686868686612129565b9695505050505050565b6000805460408051630a7b61df60e11b8152905183926001600160a01b0316916314f6c3be916004808301926020929190829003018186803b15801561182557600080fd5b505afa158015611839573d6000803e3d6000fd5b505050506040513d602081101561184f57600080fd5b505160015460408051630a7b61df60e11b815290519293506000926001600160a01b03909216916314f6c3be91600480820192602092909190829003018186803b15801561113e57600080fd5b6003546001600160a01b031690565b6003546001600160a01b0316331490565b6008546001600160a01b031681565b600b546001600160a01b031681565b600a546001600160a01b031681565b610b8f3386868686868c61191d565b611900612aaa565b61075b8360008060008686600061191d565b6611c37937e0800081565b611925613324565b50604080516060810182526004546001600160a01b03908116825260005481166020830152600a54169181019190915261195d613389565b600260009054906101000a90046001600160a01b03166001600160a01b0316630fdb11cf6040518163ffffffff1660e01b8152600401602060405180830381600087803b1580156119ad57600080fd5b505af11580156119c1573d6000803e3d6000fd5b505050506040513d60208110156119d757600080fd5b50518082526000906119e8906124ab565b90508615611a03576119fa84826124c8565b611a0388612af5565b611a0c89612b34565b611a168989612b7a565b8251611a22908b611f1a565b336001600160a01b038b161480611a5857506005546001600160a01b031633148015611a4e5750600034115b8015611a58575087155b611a5e57fe5b82600001516001600160a01b0316630b0765578b6040518263ffffffff1660e01b815260040180826001600160a01b03166001600160a01b03168152602001915050600060405180830381600087803b158015611aba57600080fd5b505af1158015611ace573d6000803e3d6000fd5b50505050611adc348a612bcc565b15156060840152602083015260408201889052868015611afa575080155b15611b3557611b13836000015184604001518a87612650565b61012083018190526040830151611b2f9163ffffffff61245116565b60408301525b82600001516001600160a01b031663d66a25538b6040518263ffffffff1660e01b815260040180826001600160a01b03166001600160a01b0316815260200191505060206040518083038186803b158015611b8f57600080fd5b505afa158015611ba3573d6000803e3d6000fd5b505050506040513d6020811015611bb957600080fd5b505160808301528251604080516309019aaf60e31b81526001600160a01b038d811660048301529151919092169163480cd578916024808301926020929190829003018186803b158015611c0c57600080fd5b505afa158015611c20573d6000803e3d6000fd5b505050506040513d6020811015611c3657600080fd5b505160a0830181905260808301518351611c51929190612848565b8260c0018181525050611c818260a0015183608001518460200151856060015186604001518c88600001516122f2565b60e083015260a0820151891115611c9457fe5b611ca0818a8985612beb565b86158015611cae5750600088115b15611d0157611cdc611cd78360400151611ccb8560800151612c5f565b9063ffffffff61202716565b612800565b611cee82608001518360400151612c7a565b611d0183604001518b8460400151612069565b611d1f83600001518b8460200151856060015186604001518c612cd1565b610140840152610160830152825160408051630c7940bd60e11b81526001600160a01b038d81166004830152915191909216916318f2817a9160248083019260209291908290030181600087803b158015611d7957600080fd5b505af1158015611d8d573d6000803e3d6000fd5b505050506040513d6020811015611da357600080fd5b505161018083015260a08201516080830151602084015160608501516040860151600094611dd7949093909290918d612f31565b600b546040805163015f109360e51b81526001600160a01b038f81166004830152602482018590528b811660448301528a811660648301529151939450911691632be212609160848082019260009290919082900301818387803b158015611e3e57600080fd5b505af1158015611e52573d6000803e3d6000fd5b505050508a6001600160a01b03166000805160206135d1833981519152846101400151856101600151866101800151600260405180858152602001848152602001838152602001826002811115611ea557fe5b60ff16815260200194505050505060405180910390a2610120830151604080519182525133917fa55c5f48fd29482ad55f4b59bf070cd1ac1a7132a31f7a136ebe8877ae37e1ff919081900360200190a2610b4e8460200151856040015133866020015187606001518e8e8a60400151612f62565b6000826001600160a01b03166321e37801836040518263ffffffff1660e01b815260040180826001600160a01b03166001600160a01b0316815260200191505060206040518083038186803b158015611f7257600080fd5b505afa158015611f86573d6000803e3d6000fd5b505050506040513d6020811015611f9c57600080fd5b505190506001811461075b5760405162461bcd60e51b815260040180806020018281038252602e8152602001806135a3602e913960400191505060405180910390fd5b611fe8816124ab565b156120245760405162461bcd60e51b81526004018080602001828103825260398152602001806134516039913960400191505060405180910390fd5b50565b600061104583836040518060400160405280601e81526020017f536166654d6174683a207375627472616374696f6e206f766572666c6f77000081525061301d565b80836001600160a01b03166370a08231846040518263ffffffff1660e01b815260040180826001600160a01b03166001600160a01b0316815260200191505060206040518083038186803b1580156120c057600080fd5b505afa1580156120d4573d6000803e3d6000fd5b505050506040513d60208110156120ea57600080fd5b5051101561075b5760405162461bcd60e51b815260040180806020018281038252603d81526020018061362f603d913960400191505060405180910390fd5b6000806121346117e0565b90506000612140611082565b90508661215c57612157828963ffffffff61202716565b61216c565b61216c828963ffffffff61245116565b91508461218857612183818763ffffffff61202716565b612198565b612198818763ffffffff61245116565b905060006121a7838387612848565b9998505050505050505050565b6714d1120d7b1600008110156120245760405162461bcd60e51b815260040180806020018281038252604981526020018061355a6049913960600191505060405180910390fd5b836001600160a01b03166338d995a8826040518263ffffffff1660e01b815260040180828152602001915050600060405180830381600087803b15801561224157600080fd5b505af1158015612255573d6000803e3d6000fd5b50505050826001600160a01b0316639dc29fac83836040518363ffffffff1660e01b815260040180836001600160a01b03166001600160a01b0316815260200182815260200192505050600060405180830381600087803b1580156122b957600080fd5b505af11580156122cd573d6000803e3d6000fd5b5050505050505050565b6000610bd2826802b5e3af16b188000063ffffffff61245116565b60008060006123058a8a8a8a8a8a6130b4565b915091506000612316838387612848565b9b9a5050505050505050505050565b6001600160a01b038116612380576040805162461bcd60e51b815260206004820152601e60248201527f4163636f756e742063616e6e6f74206265207a65726f20616464726573730000604482015290519081900360640190fd5b803b80610c24576040805162461bcd60e51b815260206004820181905260248201527f4163636f756e7420636f64652073697a652063616e6e6f74206265207a65726f604482015290519081900360640190fd5b6003546040516000916001600160a01b0316907f8be0079c531659141344cd1fd0a4f28419497f9722a3daafe3b4186f6b6457e0908390a3600380546001600160a01b0319169055565b600080612449670de0b6b3a764000061243d858763ffffffff61310f16565b9063ffffffff61316816565b949350505050565b600082820183811015611045576040805162461bcd60e51b815260206004820152601b60248201527f536166654d6174683a206164646974696f6e206f766572666c6f770000000000604482015290519081900360640190fd5b6000806124b7836131aa565b6714d1120d7b160000119392505050565b801561251a57670de0b6b3a76400008211156125155760405162461bcd60e51b81526004018080602001828103825260328152602001806134c16032913960400191505060405180910390fd5b610c24565b6611c37937e0800082108015906125395750670de0b6b3a76400008211155b610c245760405162461bcd60e51b815260040180806020018281038252603081526020018061375b6030913960400191505060405180910390fd5b6000826001600160a01b03166321e37801836040518263ffffffff1660e01b815260040180826001600160a01b03166001600160a01b0316815260200191505060206040518083038186803b1580156125cc57600080fd5b505afa1580156125e0573d6000803e3d6000fd5b505050506040513d60208110156125f657600080fd5b50519050600181141561075b576040805162461bcd60e51b815260206004820152601c60248201527f426f72726f7765724f70733a2054726f76652069732061637469766500000000604482015290519081900360640190fd5b6000846001600160a01b0316635dba4c4a6040518163ffffffff1660e01b8152600401600060405180830381600087803b15801561268d57600080fd5b505af11580156126a1573d6000803e3d6000fd5b505050506000856001600160a01b031663631203b0856040518263ffffffff1660e01b81526004018082815260200191505060206040518083038186803b1580156126eb57600080fd5b505afa1580156126ff573d6000803e3d6000fd5b505050506040513d602081101561271557600080fd5b505190506127248185856131ce565b60085460408051634677ffb360e01b81526004810184905290516001600160a01b0390921691634677ffb39160248082019260009290919082900301818387803b15801561277157600080fd5b505af1158015612785573d6000803e3d6000fd5b5050600954604080516340c10f1960e01b81526001600160a01b03928316600482015260248101869052905191891693506340c10f19925060448082019260009290919082900301818387803b1580156127de57600080fd5b505af11580156127f2573d6000803e3d6000fd5b509298975050505050505050565b6869b5afac750bb800008110156120245760405162461bcd60e51b815260040180806020018281038252603a8152602001806136b5603a913960400191505060405180910390fd5b6000821561286f5760006128668461243d878663ffffffff61310f16565b91506110459050565b506000199392505050565b600081156128a65761289f8261243d8568056bc75e2d6310000063ffffffff61310f16565b9050610bd2565b50600019610bd2565b6714d1120d7b1600008110156120245760405162461bcd60e51b815260040180806020018281038252603781526020018061348a6037913960400191505060405180910390fd5b670f43fc2c04ee00008110156120245760405162461bcd60e51b815260040180806020018281038252604981526020018061366c6049913960600191505060405180910390fd5b6040516000906001600160a01b0384169083908381818185875af1925050503d8060008114612988576040519150601f19603f3d011682016040523d82523d6000602084013e61298d565b606091505b505090508061075b5760405162461bcd60e51b815260040180806020018281038252602d8152602001806133f4602d913960400191505060405180910390fd5b846001600160a01b031663cfb9329a826040518263ffffffff1660e01b815260040180828152602001915050600060405180830381600087803b158015612a1357600080fd5b505af1158015612a27573d6000803e3d6000fd5b50505050836001600160a01b03166340c10f1984846040518363ffffffff1660e01b815260040180836001600160a01b03166001600160a01b0316815260200182815260200192505050600060405180830381600087803b158015612a8b57600080fd5b505af1158015612a9f573d6000803e3d6000fd5b505050505050505050565b6005546001600160a01b03163314612af35760405162461bcd60e51b81526004018080602001828103825260298152602001806137326029913960400191505060405180910390fd5b565b600081116120245760405162461bcd60e51b815260040180806020018281038252603781526020018061378b6037913960400191505060405180910390fd5b341580612b3f575080155b6120245760405162461bcd60e51b81526004018080602001828103825260308152602001806134216030913960400191505060405180910390fd5b34151580612b8757508115155b80612b9157508015155b610c245760405162461bcd60e51b81526004018080602001828103825260468152602001806134f36046913960600191505060405180910390fd5b6000808315612be057508290506001612be4565b8291505b9250929050565b8315612c2457612bfa83613243565b8115612c1f57612c0d8160e001516128af565b612c1f8160e001518260c00151613280565b610b6c565b612c318160e001516128f6565b612c4e816020015182606001518360400151858560000151612129565b6101008201819052610b6c906121b4565b6000610bd2826802b5e3af16b188000063ffffffff61202716565b612c93826802b5e3af16b188000063ffffffff61202716565b811115610c245760405162461bcd60e51b81526004018080602001828103825260438152602001806136ef6043913960600191505060405180910390fd5b600080600085612d6c57886001600160a01b031663d3d6f84389896040518363ffffffff1660e01b815260040180836001600160a01b03166001600160a01b0316815260200182815260200192505050602060405180830381600087803b158015612d3b57600080fd5b505af1158015612d4f573d6000803e3d6000fd5b505050506040513d6020811015612d6557600080fd5b5051612df9565b886001600160a01b03166372423c1789896040518363ffffffff1660e01b815260040180836001600160a01b03166001600160a01b0316815260200182815260200192505050602060405180830381600087803b158015612dcc57600080fd5b505af1158015612de0573d6000803e3d6000fd5b505050506040513d6020811015612df657600080fd5b50515b9050600084612e9357896001600160a01b03166312610e928a886040518363ffffffff1660e01b815260040180836001600160a01b03166001600160a01b0316815260200182815260200192505050602060405180830381600087803b158015612e6257600080fd5b505af1158015612e76573d6000803e3d6000fd5b505050506040513d6020811015612e8c57600080fd5b5051612f20565b896001600160a01b0316639976cf458a886040518363ffffffff1660e01b815260040180836001600160a01b03166001600160a01b0316815260200182815260200192505050602060405180830381600087803b158015612ef357600080fd5b505af1158015612f07573d6000803e3d6000fd5b505050506040513d6020811015612f1d57600080fd5b50515b919a91995090975050505050505050565b6000806000612f448989898989896130b4565b915091506000612f54838361287a565b9a9950505050505050505050565b8115612f7a57612f7588888886856129cd565b612f86565b612f86888888866121fb565b8315612f9b57612f96888661293d565b6122cd565b876001600160a01b03166364a197f387876040518363ffffffff1660e01b815260040180836001600160a01b03166001600160a01b0316815260200182815260200192505050600060405180830381600087803b158015612ffb57600080fd5b505af115801561300f573d6000803e3d6000fd5b505050505050505050505050565b600081848411156130ac5760405162461bcd60e51b81526004018080602001828103825283818151815260200191508051906020019080838360005b83811015613071578181015183820152602001613059565b50505050905090810190601f16801561309e5780820380516001836020036101000a031916815260200191505b509250505060405180910390fd5b505050900390565b6000808787866130d3576130ce8a8963ffffffff61202716565b6130e3565b6130e38a8963ffffffff61245116565b9150846130ff576130fa898763ffffffff61202716565b612f20565b612f20898763ffffffff61245116565b60008261311e57506000610bd2565b8282028284828161312b57fe5b04146110455760405162461bcd60e51b81526004018080602001828103825260218152602001806135396021913960400191505060405180910390fd5b600061104583836040518060400160405280601a81526020017f536166654d6174683a206469766973696f6e206279207a65726f0000000000008152506132bf565b6000806131b56117e0565b905060006131c1611082565b9050612449828286612848565b60006131ec8361243d86670de0b6b3a764000063ffffffff61310f16565b905081811115610b6c576040805162461bcd60e51b815260206004820152601d60248201527f4665652065786365656465642070726f7669646564206d6178696d756d000000604482015290519081900360640190fd5b80156120245760405162461bcd60e51b815260040180806020018281038252603e8152602001806135f1603e913960400191505060405180910390fd5b80821015610c245760405162461bcd60e51b815260040180806020018281038252603e8152602001806137c2603e913960400191505060405180910390fd5b6000818361330e5760405162461bcd60e51b8152602060048201818152835160248401528351909283926044909101919085019080838360008315613071578181015183820152602001613059565b50600083858161331a57fe5b0495945050505050565b604080516060810182526000808252602082018190529181019190915290565b60405180610100016040528060008152602001600081526020016000815260200160008152602001600081526020016000815260200160008152602001600081525090565b604051806101a00160405280600081526020016000815260200160008152602001600015158152602001600081526020016000815260200160008152602001600081526020016000815260200160008152602001600081526020016000815260200160008152509056fe426f72726f7765724f70733a2053656e64696e672045544820746f20416374697665506f6f6c206661696c6564426f72726f7765724f7065726174696f6e733a2043616e6e6f7420776974686472617720616e642061646420636f6c6c426f72726f7765724f70733a204f7065726174696f6e206e6f74207065726d697474656420647572696e67205265636f76657279204d6f6465426f72726f7765724f70733a204f7065726174696f6e206d757374206c656176652074726f7665207769746820494352203e3d204343524d6178206665652070657263656e74616765206d757374206c657373207468616e206f7220657175616c20746f2031303025426f72726f7765724f70733a205468657265206d75737420626520656974686572206120636f6c6c61746572616c206368616e6765206f7220612064656274206368616e6765536166654d6174683a206d756c7469706c69636174696f6e206f766572666c6f77426f72726f7765724f70733a20416e206f7065726174696f6e207468617420776f756c6420726573756c7420696e20544352203c20434352206973206e6f74207065726d6974746564426f72726f7765724f70733a2054726f766520646f6573206e6f74206578697374206f7220697320636c6f736564c3770d654ed33aeea6bf11ac8ef05d02a6a04ed4686dd2f624d853bbec43cc8b426f72726f7765724f70733a20436f6c6c61746572616c207769746864726177616c206e6f74207065726d6974746564205265636f76657279204d6f6465426f72726f7765724f70733a2043616c6c657220646f65736e74206861766520656e6f756768204c55534420746f206d616b652072657061796d656e74426f72726f7765724f70733a20416e206f7065726174696f6e207468617420776f756c6420726573756c7420696e20494352203c204d4352206973206e6f74207065726d6974746564426f72726f7765724f70733a2054726f76652773206e65742064656274206d7573742062652067726561746572207468616e206d696e696d756d426f72726f7765724f70733a20416d6f756e7420726570616964206d757374206e6f74206265206c6172676572207468616e207468652054726f766527732064656274426f72726f7765724f70733a2043616c6c6572206973206e6f742053746162696c69747920506f6f6c4d6178206665652070657263656e74616765206d757374206265206265747765656e20302e352520616e642031303025426f72726f7765724f70733a204465627420696e637265617365207265717569726573206e6f6e2d7a65726f20646562744368616e6765426f72726f7765724f70733a2043616e6e6f7420646563726561736520796f75722054726f766527732049435220696e205265636f76657279204d6f6465a26469706673582212206e29861cf6b3bc80e5d02de11997e660df88e4d7109b75e67fd0fb03719ec31964736f6c634300060b0033",
  "linkReferences": {},
  "deployedLinkReferences": {}
}