{
  "_format": "hh-sol-artifact-1",
  "contractName": "BorrowerOperations",
  "sourceName": "contracts/BorrowerOperations.sol",
  "abi": [
    {
      "anonymous": false,
      "inputs": [
        {
          "indexed": false,
          "internalType": "address",
          "name": "_activePoolAddress",
          "type": "address"
        }
      ],
      "name": "ActivePoolAddressChanged",
      "type": "event"
    },
    {
      "anonymous": false,
      "inputs": [
        {
          "indexed": false,
          "internalType": "address",
          "name": "_collSurplusPoolAddress",
          "type": "address"
        }
      ],
      "name": "CollSurplusPoolAddressChanged",
      "type": "event"
    },
    {
      "anonymous": false,
      "inputs": [
        {
          "indexed": false,
          "internalType": "address",
          "name": "_defaultPoolAddress",
          "type": "address"
        }
      ],
      "name": "DefaultPoolAddressChanged",
      "type": "event"
    },
    {
      "anonymous": false,
      "inputs": [
        {
          "indexed": false,
          "internalType": "address",
          "name": "_gasPoolAddress",
          "type": "address"
        }
      ],
      "name": "GasPoolAddressChanged",
      "type": "event"
    },
    {
      "anonymous": false,
      "inputs": [
        {
          "indexed": false,
          "internalType": "address",
          "name": "_lqtyStakingAddress",
          "type": "address"
        }
      ],
      "name": "LQTYStakingAddressChanged",
      "type": "event"
    },
    {
      "anonymous": false,
      "inputs": [
        {
          "indexed": true,
          "internalType": "address",
          "name": "_borrower",
          "type": "address"
        },
        {
          "indexed": false,
          "internalType": "uint256",
          "name": "_LUSDFee",
          "type": "uint256"
        }
      ],
      "name": "LUSDBorrowingFeePaid",
      "type": "event"
    },
    {
      "anonymous": false,
      "inputs": [
        {
          "indexed": false,
          "internalType": "address",
          "name": "_lusdTokenAddress",
          "type": "address"
        }
      ],
      "name": "LUSDTokenAddressChanged",
      "type": "event"
    },
    {
      "anonymous": false,
      "inputs": [
        {
          "indexed": true,
          "internalType": "address",
          "name": "previousOwner",
          "type": "address"
        },
        {
          "indexed": true,
          "internalType": "address",
          "name": "newOwner",
          "type": "address"
        }
      ],
      "name": "OwnershipTransferred",
      "type": "event"
    },
    {
      "anonymous": false,
      "inputs": [
        {
          "indexed": false,
          "internalType": "address",
          "name": "_newPriceFeedAddress",
          "type": "address"
        }
      ],
      "name": "PriceFeedAddressChanged",
      "type": "event"
    },
    {
      "anonymous": false,
      "inputs": [
        {
          "indexed": false,
          "internalType": "address",
          "name": "_sortedTrovesAddress",
          "type": "address"
        }
      ],
      "name": "SortedTrovesAddressChanged",
      "type": "event"
    },
    {
      "anonymous": false,
      "inputs": [
        {
          "indexed": false,
          "internalType": "address",
          "name": "_stabilityPoolAddress",
          "type": "address"
        }
      ],
      "name": "StabilityPoolAddressChanged",
      "type": "event"
    },
    {
      "anonymous": false,
      "inputs": [
        {
          "indexed": true,
          "internalType": "address",
          "name": "_borrower",
          "type": "address"
        },
        {
          "indexed": false,
          "internalType": "uint256",
          "name": "arrayIndex",
          "type": "uint256"
        }
      ],
      "name": "TroveCreated",
      "type": "event"
    },
    {
      "anonymous": false,
      "inputs": [
        {
          "indexed": false,
          "internalType": "address",
          "name": "_newTroveManagerAddress",
          "type": "address"
        }
      ],
      "name": "TroveManagerAddressChanged",
      "type": "event"
    },
    {
      "anonymous": false,
      "inputs": [
        {
          "indexed": true,
          "internalType": "address",
          "name": "_borrower",
          "type": "address"
        },
        {
          "indexed": false,
          "internalType": "uint256",
          "name": "_debt",
          "type": "uint256"
        },
        {
          "indexed": false,
          "internalType": "uint256",
          "name": "_coll",
          "type": "uint256"
        },
        {
          "indexed": false,
          "internalType": "uint256",
          "name": "stake",
          "type": "uint256"
        },
        {
          "indexed": false,
          "internalType": "enum BorrowerOperations.BorrowerOperation",
          "name": "operation",
          "type": "uint8"
        }
      ],
      "name": "TroveUpdated",
      "type": "event"
    },
    {
      "inputs": [],
      "name": "CCR",
      "outputs": [
        {
          "internalType": "uint256",
          "name": "",
          "type": "uint256"
        }
      ],
      "stateMutability": "view",
      "type": "function"
    },
    {
      "inputs": [],
      "name": "DECIMAL_PRECISION",
      "outputs": [
        {
          "internalType": "uint256",
          "name": "",
          "type": "uint256"
        }
      ],
      "stateMutability": "view",
      "type": "function"
    },
    {
      "inputs": [],
      "name": "LUSD_GAS_COMPENSATION",
      "outputs": [
        {
          "internalType": "uint256",
          "name": "",
          "type": "uint256"
        }
      ],
      "stateMutability": "view",
      "type": "function"
    },
    {
      "inputs": [],
      "name": "MCR",
      "outputs": [
        {
          "internalType": "uint256",
          "name": "",
          "type": "uint256"
        }
      ],
      "stateMutability": "view",
      "type": "function"
    },
    {
      "inputs": [],
      "name": "PERCENT_DIVISOR",
      "outputs": [
        {
          "internalType": "uint256",
          "name": "",
          "type": "uint256"
        }
      ],
      "stateMutability": "view",
      "type": "function"
    },
    {
      "inputs": [],
      "name": "R_MCR",
      "outputs": [
        {
          "internalType": "uint256",
          "name": "",
          "type": "uint256"
        }
      ],
      "stateMutability": "view",
      "type": "function"
    },
    {
      "inputs": [],
      "name": "_100pct",
      "outputs": [
        {
          "internalType": "uint256",
          "name": "",
          "type": "uint256"
        }
      ],
      "stateMutability": "view",
      "type": "function"
    },
    {
      "inputs": [],
      "name": "activePool",
      "outputs": [
        {
          "internalType": "contract IActivePool",
          "name": "",
          "type": "address"
        }
      ],
      "stateMutability": "view",
      "type": "function"
    },
    {
      "inputs": [
        {
          "internalType": "address",
          "name": "_upperHint",
          "type": "address"
        },
        {
          "internalType": "address",
          "name": "_lowerHint",
          "type": "address"
        }
      ],
      "name": "addColl",
      "outputs": [],
      "stateMutability": "payable",
      "type": "function"
    },
    {
      "inputs": [
        {
          "internalType": "uint256",
          "name": "_maxFee",
          "type": "uint256"
        },
        {
          "internalType": "uint256",
          "name": "_collWithdrawal",
          "type": "uint256"
        },
        {
          "internalType": "uint256",
          "name": "_debtChange",
          "type": "uint256"
        },
        {
          "internalType": "bool",
          "name": "_isDebtIncrease",
          "type": "bool"
        },
        {
          "internalType": "address",
          "name": "_upperHint",
          "type": "address"
        },
        {
          "internalType": "address",
          "name": "_lowerHint",
          "type": "address"
        }
      ],
      "name": "adjustTrove",
      "outputs": [],
      "stateMutability": "payable",
      "type": "function"
    },
    {
      "inputs": [
        {
          "internalType": "address",
          "name": "_user",
          "type": "address"
        }
      ],
      "name": "claimRedeemedCollateral",
      "outputs": [],
      "stateMutability": "nonpayable",
      "type": "function"
    },
    {
      "inputs": [],
      "name": "closeTrove",
      "outputs": [],
      "stateMutability": "nonpayable",
      "type": "function"
    },
    {
      "inputs": [],
      "name": "defaultPool",
      "outputs": [
        {
          "internalType": "contract IDefaultPool",
          "name": "",
          "type": "address"
        }
      ],
      "stateMutability": "view",
      "type": "function"
    },
    {
      "inputs": [
        {
          "internalType": "uint256",
          "name": "_debt",
          "type": "uint256"
        }
      ],
      "name": "getCompositeDebt",
      "outputs": [
        {
          "internalType": "uint256",
          "name": "",
          "type": "uint256"
        }
      ],
      "stateMutability": "pure",
      "type": "function"
    },
    {
      "inputs": [],
      "name": "getEntireSystemColl",
      "outputs": [
        {
          "internalType": "uint256",
          "name": "entireSystemColl",
          "type": "uint256"
        }
      ],
      "stateMutability": "view",
      "type": "function"
    },
    {
      "inputs": [],
      "name": "getEntireSystemDebt",
      "outputs": [
        {
          "internalType": "uint256",
          "name": "entireSystemDebt",
          "type": "uint256"
        }
      ],
      "stateMutability": "view",
      "type": "function"
    },
    {
      "inputs": [],
      "name": "isOwner",
      "outputs": [
        {
          "internalType": "bool",
          "name": "",
          "type": "bool"
        }
      ],
      "stateMutability": "view",
      "type": "function"
    },
    {
      "inputs": [],
      "name": "lqtyStaking",
      "outputs": [
        {
          "internalType": "contract ILQTYStaking",
          "name": "",
          "type": "address"
        }
      ],
      "stateMutability": "view",
      "type": "function"
    },
    {
      "inputs": [],
      "name": "lqtyStakingAddress",
      "outputs": [
        {
          "internalType": "address",
          "name": "",
          "type": "address"
        }
      ],
      "stateMutability": "view",
      "type": "function"
    },
    {
      "inputs": [],
      "name": "lusdToken",
      "outputs": [
        {
          "internalType": "contract ILUSDToken",
          "name": "",
          "type": "address"
        }
      ],
      "stateMutability": "view",
      "type": "function"
    },
    {
      "inputs": [
        {
          "internalType": "address",
          "name": "_borrower",
          "type": "address"
        },
        {
          "internalType": "address",
          "name": "_upperHint",
          "type": "address"
        },
        {
          "internalType": "address",
          "name": "_lowerHint",
          "type": "address"
        }
      ],
      "name": "moveETHGainToTrove",
      "outputs": [],
      "stateMutability": "payable",
      "type": "function"
    },
    {
      "inputs": [
        {
          "internalType": "uint256",
          "name": "_maxFee",
          "type": "uint256"
        },
        {
          "internalType": "uint256",
          "name": "_LUSDAmount",
          "type": "uint256"
        },
        {
          "internalType": "address",
          "name": "_upperHint",
          "type": "address"
        },
        {
          "internalType": "address",
          "name": "_lowerHint",
          "type": "address"
        }
      ],
      "name": "openTrove",
      "outputs": [],
      "stateMutability": "payable",
      "type": "function"
    },
    {
      "inputs": [],
      "name": "owner",
      "outputs": [
        {
          "internalType": "address",
          "name": "",
          "type": "address"
        }
      ],
      "stateMutability": "view",
      "type": "function"
    },
    {
      "inputs": [],
      "name": "priceFeed",
      "outputs": [
        {
          "internalType": "contract IPriceFeed",
          "name": "",
          "type": "address"
        }
      ],
      "stateMutability": "view",
      "type": "function"
    },
    {
      "inputs": [
        {
          "internalType": "uint256",
          "name": "_LUSDAmount",
          "type": "uint256"
        },
        {
          "internalType": "address",
          "name": "_upperHint",
          "type": "address"
        },
        {
          "internalType": "address",
          "name": "_lowerHint",
          "type": "address"
        }
      ],
      "name": "repayLUSD",
      "outputs": [],
      "stateMutability": "nonpayable",
      "type": "function"
    },
    {
      "inputs": [
        {
          "internalType": "address",
          "name": "_troveManagerAddress",
          "type": "address"
        },
        {
          "internalType": "address",
          "name": "_activePoolAddress",
          "type": "address"
        },
        {
          "internalType": "address",
          "name": "_defaultPoolAddress",
          "type": "address"
        },
        {
          "internalType": "address",
          "name": "_stabilityPoolAddress",
          "type": "address"
        },
        {
          "internalType": "address",
          "name": "_gasPoolAddress",
          "type": "address"
        },
        {
          "internalType": "address",
          "name": "_collSurplusPoolAddress",
          "type": "address"
        },
        {
          "internalType": "address",
          "name": "_priceFeedAddress",
          "type": "address"
        },
        {
          "internalType": "address",
          "name": "_sortedTrovesAddress",
          "type": "address"
        },
        {
          "internalType": "address",
          "name": "_lusdTokenAddress",
          "type": "address"
        },
        {
          "internalType": "address",
          "name": "_lqtyStakingAddress",
          "type": "address"
        }
      ],
      "name": "setAddresses",
      "outputs": [],
      "stateMutability": "nonpayable",
      "type": "function"
    },
    {
      "inputs": [],
      "name": "sortedTroves",
      "outputs": [
        {
          "internalType": "contract ISortedTroves",
          "name": "",
          "type": "address"
        }
      ],
      "stateMutability": "view",
      "type": "function"
    },
    {
      "inputs": [],
      "name": "troveManager",
      "outputs": [
        {
          "internalType": "contract ITroveManager",
          "name": "",
          "type": "address"
        }
      ],
      "stateMutability": "view",
      "type": "function"
    },
    {
      "inputs": [
        {
          "internalType": "uint256",
          "name": "_collWithdrawal",
          "type": "uint256"
        },
        {
          "internalType": "address",
          "name": "_upperHint",
          "type": "address"
        },
        {
          "internalType": "address",
          "name": "_lowerHint",
          "type": "address"
        }
      ],
      "name": "withdrawColl",
      "outputs": [],
      "stateMutability": "nonpayable",
      "type": "function"
    },
    {
      "inputs": [
        {
          "internalType": "uint256",
          "name": "_maxFee",
          "type": "uint256"
        },
        {
          "internalType": "uint256",
          "name": "_LUSDAmount",
          "type": "uint256"
        },
        {
          "internalType": "address",
          "name": "_upperHint",
          "type": "address"
        },
        {
          "internalType": "address",
          "name": "_lowerHint",
          "type": "address"
        }
      ],
      "name": "withdrawLUSD",
      "outputs": [],
      "stateMutability": "nonpayable",
      "type": "function"
    }
  ],
  "bytecode": "0x608060405234801561001057600080fd5b50600380546001600160a01b031916339081179091556040516000907f8be0079c531659141344cd1fd0a4f28419497f9722a3daafe3b4186f6b6457e0908290a36133f0806100606000396000f3fe60806040526004361061018d5760003560e01c8063794e5724116100d7578063a20baee611610085578063a20baee6146103df578063a3a64017146104ea578063ae918754146104ff578063b83f91a214610514578063c6a6cf2014610529578063ea9638bf14610571578063f24344e6146105a9578063f6286f83146105be5761018d565b8063794e57241461041e578063795d26c3146104335780637f7dde4a14610448578063860665b31461045d578063887105d3146104975780638da5cb5b146104ac5780638f32d59b146104c15761018d565b80634ff814431161013f5780634ff81443146102b35780635530273c146102dd5780635733d58f1461031e57806368647db1146103335780636c37a4af1461036157806372fe25aa146103df578063741bef1a146103f4578063761ab22c146104095761018d565b806304491fa7146101925780630e704d50146101d55780631184e5f8146101ea5780632e86bbd8146102315780633cc74225146102585780633d83908a146102895780634870dd9a1461029e575b600080fd5b34801561019e57600080fd5b506101d3600480360360608110156101b557600080fd5b508035906001600160a01b03602082013581169160400135166105f1565b005b3480156101e157600080fd5b506101d3610608565b3480156101f657600080fd5b506101d36004803603608081101561020d57600080fd5b508035906020810135906001600160a01b0360408201358116916060013516610966565b34801561023d57600080fd5b5061024661097d565b60408051918252519081900360200190f35b34801561026457600080fd5b5061026d610989565b604080516001600160a01b039092168252519081900360200190f35b34801561029557600080fd5b5061026d610998565b3480156102aa57600080fd5b506102466109a7565b3480156102bf57600080fd5b50610246600480360360208110156102d657600080fd5b50356109ac565b3480156102e957600080fd5b506101d36004803603606081101561030057600080fd5b508035906001600160a01b03602082013581169160400135166109bd565b34801561032a57600080fd5b506102466109ce565b6101d36004803603604081101561034957600080fd5b506001600160a01b03813581169160200135166109da565b34801561036d57600080fd5b506101d3600480360361014081101561038557600080fd5b506001600160a01b038135811691602081013582169160408201358116916060810135821691608082013581169160a081013582169160c082013581169160e08101358216916101008201358116916101200135166109f0565b3480156103eb57600080fd5b50610246610ddd565b34801561040057600080fd5b5061026d610de9565b34801561041557600080fd5b5061026d610df8565b34801561042a57600080fd5b50610246610e07565b34801561043f57600080fd5b50610246610e13565b34801561045457600080fd5b5061026d610f14565b6101d36004803603608081101561047357600080fd5b508035906020810135906001600160a01b0360408201358116916060013516610f23565b3480156104a357600080fd5b5061024661165c565b3480156104b857600080fd5b5061026d611718565b3480156104cd57600080fd5b506104d6611727565b604080519115158252519081900360200190f35b3480156104f657600080fd5b5061026d611738565b34801561050b57600080fd5b5061026d611747565b34801561052057600080fd5b5061026d611756565b6101d3600480360360c081101561053f57600080fd5b5080359060208101359060408101359060608101351515906001600160a01b03608082013581169160a0013516611765565b6101d36004803603606081101561058757600080fd5b506001600160a01b038135811691602081013582169160409091013516611774565b3480156105b557600080fd5b5061024661178e565b3480156105ca57600080fd5b506101d3600480360360208110156105e157600080fd5b50356001600160a01b031661179a565b61060333600085600086866000611803565b505050565b610611336120d9565b610619612199565b6004805460408051630b07655760e01b81523393810193909352516001600160a01b0390911691630b07655791602480830192600092919082900301818387803b15801561066657600080fd5b505af115801561067a573d6000803e3d6000fd5b505060048054604080516309019aaf60e31b8152339381019390935251600094506001600160a01b03909116925063480cd57891602480820192602092909190829003018186803b1580156106ce57600080fd5b505afa1580156106e2573d6000803e3d6000fd5b505050506040513d60208110156106f857600080fd5b5051600480546040805163d66a255360e01b81523393810193909352519293506000926001600160a01b039091169163d66a2553916024808301926020929190829003018186803b15801561074c57600080fd5b505afa158015610760573d6000803e3d6000fd5b505050506040513d602081101561077657600080fd5b5051905061079b3361079683678ac7230489e8000063ffffffff6121df16565b612228565b6004805460408051631fc5750960e31b81523393810193909352516001600160a01b039091169163fe2ba84891602480830192600092919082900301818387803b1580156107e857600080fd5b505af11580156107fc573d6000803e3d6000fd5b505060048054604080516365e89c5760e11b81523393810193909352516001600160a01b03909116935063cbd138ae9250602480830192600092919082900301818387803b15801561084d57600080fd5b505af1158015610861573d6000803e3d6000fd5b50505050336001600160a01b03166000805160206131f283398151915260008060006001604051808581526020018481526020018381526020018260068111156108a757fe5b60ff16815260200194505050505060405180910390a26108de336108d983678ac7230489e8000063ffffffff6121df16565b6122e1565b6006546108fc906001600160a01b0316678ac7230489e800006122e1565b60008054604080516364a197f360e01b81523360048201526024810186905290516001600160a01b03909216926364a197f39260448084019382900301818387803b15801561094a57600080fd5b505af115801561095e573d6000803e3d6000fd5b505050505050565b61097733600085600186868a611803565b50505050565b678ac7230489e8000081565b6001546001600160a01b031681565b6004546001600160a01b031681565b60c881565b60006109b782612396565b92915050565b610603338460008086866000611803565b6714d1120d7b16000081565b6109ec33600080600086866000611803565b5050565b6109f8611727565b610a49576040805162461bcd60e51b815260206004820181905260248201527f4f776e61626c653a2063616c6c6572206973206e6f7420746865206f776e6572604482015290519081900360640190fd5b610a528a6123b0565b610a5b896123b0565b610a64886123b0565b610a6d876123b0565b610a76866123b0565b610a7f856123b0565b610a88846123b0565b610a91836123b0565b610a9a826123b0565b610aa3816123b0565b600480546001600160a01b03199081166001600160a01b038d81169182179093556000805483168d85161790556001805483168c85161790556005805483168b85161790556006805483168a8516179055600780548316898516179055600280548316888516179055600b80548316878516179055600a80548316868516179055600980548316938516938417905560088054909216909217905560408051918252517f143219c9e69b09e07e095fcc889b43d8f46ca892bba65f08dc3a0050869a5678916020908290030190a1604080516001600160a01b038b16815290517f78f058b189175430c48dc02699e3a0031ea4ff781536dc2fab847de4babdd8829181900360200190a1604080516001600160a01b038a16815290517f5ee0cae2f063ed938bb55046f6a932fb6ae792bf43624806bb90abe68a50be9b9181900360200190a1604080516001600160a01b038916815290517f82966d27eea39b038ee0fa30cd16532bb24f6e65d31cb58fb227aa5766cdcc7f9181900360200190a1604080516001600160a01b038816815290517fcfb07d791fcafc032b35837b50eb84b74df518cf4cc287e8084f47630fa70fa09181900360200190a1604080516001600160a01b038716815290517fe67f36a6e961157d6eff83b91f3af5a62131ceb6f04954ef74f51c1c05e7f88d9181900360200190a1604080516001600160a01b038416815290517f227eec0ec317af6ab1a9587ffa1c84332522eb4c583a908f89babc05f8f339bd9181900360200190a1604080516001600160a01b038616815290517f8c537274438aa850a330284665d81a85dd38267d09e4050d416bfc94142db2649181900360200190a1604080516001600160a01b038516815290517f65f4cf077bc01e4742eb5ad98326f6e95b63548ea24b17f8d5e823111fe788009181900360200190a1604080516001600160a01b038416815290517f227eec0ec317af6ab1a9587ffa1c84332522eb4c583a908f89babc05f8f339bd9181900360200190a1604080516001600160a01b038316815290517f756ebc192164c295bba134b5aacd72cc7aff8098a670d1f0a5f6b3a0b4ce67079181900360200190a1610dd161245f565b50505050505050505050565b670de0b6b3a764000081565b6002546001600160a01b031681565b6009546001600160a01b031681565b670f43fc2c04ee000081565b6000805460408051632f5a97e560e11b8152905183926001600160a01b031691635eb52fca916004808301926020929190829003018186803b158015610e5857600080fd5b505afa158015610e6c573d6000803e3d6000fd5b505050506040513d6020811015610e8257600080fd5b505160015460408051632f5a97e560e11b815290519293506000926001600160a01b0390921691635eb52fca91600480820192602092909190829003018186803b158015610ecf57600080fd5b505afa158015610ee3573d6000803e3d6000fd5b505050506040513d6020811015610ef957600080fd5b50519050610f0d828263ffffffff6124a916565b9250505090565b6000546001600160a01b031681565b60025460408051634c6afee560e11b815290516000926001600160a01b0316916398d5fdca916004808301926020929190829003018186803b158015610f6857600080fd5b505afa158015610f7c573d6000803e3d6000fd5b505050506040513d6020811015610f9257600080fd5b50519050610f9f33612503565b6004805460408051632edd262560e11b815290516001600160a01b0390921692635dba4c4a92828201926000929082900301818387803b158015610fe257600080fd5b505af1158015610ff6573d6000803e3d6000fd5b50506004805460408051630631203b60e41b815292830189905251600094506001600160a01b03909116925063631203b091602480820192602092909190829003018186803b15801561104857600080fd5b505afa15801561105c573d6000803e3d6000fd5b505050506040513d602081101561107257600080fd5b505190506000611088868363ffffffff6124a916565b90508187101580611097575086155b6110d25760405162461bcd60e51b815260040180806020018281038252602f8152602001806130e5602f913960400191505060405180910390fd5b60006110dd82612396565b9050600081116110e957fe5b60006110f63483876125da565b905060006111043484612618565b905061110e61264d565b156111215761111c82612668565b611139565b61112a826126b2565b6111393460018560018a6126f9565b6004805460408051635d6b480f60e01b8152339381019390935260016024840152516001600160a01b0390911691635d6b480f91604480830192600092919082900301818387803b15801561118d57600080fd5b505af11580156111a1573d6000803e3d6000fd5b505060048054604080516372423c1760e01b81523393810193909352346024840152516001600160a01b0390911693506372423c17925060448083019260209291908290030181600087803b1580156111f957600080fd5b505af115801561120d573d6000803e3d6000fd5b505050506040513d602081101561122357600080fd5b50506004805460408051639976cf4560e01b8152339381019390935260248301869052516001600160a01b0390911691639976cf459160448083019260209291908290030181600087803b15801561127a57600080fd5b505af115801561128e573d6000803e3d6000fd5b505050506040513d60208110156112a457600080fd5b505060048054604080516382fe3eb960e01b81523393810193909352516001600160a01b03909116916382fe3eb991602480830192600092919082900301818387803b1580156112f357600080fd5b505af1158015611307573d6000803e3d6000fd5b50506004805460408051630c7940bd60e11b8152339381019390935251600094506001600160a01b0390911692506318f2817a9160248082019260209290919082900301818787803b15801561135c57600080fd5b505af1158015611370573d6000803e3d6000fd5b505050506040513d602081101561138657600080fd5b5051600b54604080516346f7cf8760e01b8152336004820152602481018690526001600160a01b038d811660448301528c8116606483015291519394509116916346f7cf879160848082019260009290919082900301818387803b1580156113ed57600080fd5b505af1158015611401573d6000803e3d6000fd5b505060048054604080516315d549f160e01b8152339381019390935251600094506001600160a01b0390911692506315d549f19160248082019260209290919082900301818787803b15801561145657600080fd5b505af115801561146a573d6000803e3d6000fd5b505050506040513d602081101561148057600080fd5b505160408051828152905191925033917f59cfd0cd754bc5748b6770e94a4ffa5f678d885cb899dcfadc5734edb97c67ab9181900360200190a2600a54600954604080516340c10f1960e01b81526001600160a01b039283166004820152602481018b9052905191909216916340c10f1991604480830192600092919082900301818387803b15801561151257600080fd5b505af1158015611526573d6000803e3d6000fd5b505060085460408051634677ffb360e01b8152600481018c905290516001600160a01b039092169350634677ffb3925060248082019260009290919082900301818387803b15801561157757600080fd5b505af115801561158b573d6000803e3d6000fd5b5050505061159834612751565b6115a3338c886127b4565b6006546115c2906001600160a01b0316678ac7230489e80000806127b4565b336001600160a01b03166000805160206131f283398151915286348560006040518085815260200184815260200183815260200182600681111561160257fe5b60ff16815260200194505050505060405180910390a260408051888152905133917fa55c5f48fd29482ad55f4b59bf070cd1ac1a7132a31f7a136ebe8877ae37e1ff919081900360200190a2505050505050505050505050565b6000805460408051630a7b61df60e11b8152905183926001600160a01b0316916314f6c3be916004808301926020929190829003018186803b1580156116a157600080fd5b505afa1580156116b5573d6000803e3d6000fd5b505050506040513d60208110156116cb57600080fd5b505160015460408051630a7b61df60e11b815290519293506000926001600160a01b03909216916314f6c3be91600480820192602092909190829003018186803b158015610ecf57600080fd5b6003546001600160a01b031690565b6003546001600160a01b0316331490565b6008546001600160a01b031681565b600b546001600160a01b031681565b600a546001600160a01b031681565b61095e3386868686868c611803565b61177c612886565b61060383600080600086866000611803565b6729a2241af62c000081565b6007546040805163b32beb5b60e01b81526001600160a01b0384811660048301529151919092169163b32beb5b91602480830192600092919082900301818387803b1580156117e857600080fd5b505af11580156117fc573d6000803e3d6000fd5b5050505050565b34158061180e575085155b6118495760405162461bcd60e51b815260040180806020018281038252603081526020018061304c6030913960400191505060405180910390fd5b6000861515806118565750845b9050336001600160a01b038916148061186d575080155b6118a85760405162461bcd60e51b81526004018080602001828103825260308152602001806130b56030913960400191505060405180910390fd5b341515806118b557508615155b806118bf57508515155b6118fa5760405162461bcd60e51b81526004018080602001828103825260468152602001806131146046913960600191505060405180910390fd5b611903886120d9565b61190b612fc1565b600260009054906101000a90046001600160a01b03166001600160a01b03166398d5fdca6040518163ffffffff1660e01b815260040160206040518083038186803b15801561195957600080fd5b505afa15801561196d573d6000803e3d6000fd5b505050506040513d602081101561198357600080fd5b505181526004805460408051630b07655760e01b81526001600160a01b038d81169482019490945290519290911691630b0765579160248082019260009290919082900301818387803b1580156119d957600080fd5b505af11580156119ed573d6000803e3d6000fd5b505050506119fb34896128cf565b151560608301526020820152604081018790528515611c765760008711611a535760405162461bcd60e51b81526004018080602001828103825260378152602001806132916037913960400191505060405180910390fd5b6004805460408051632edd262560e11b815290516001600160a01b0390921692635dba4c4a92828201926000929082900301818387803b158015611a9657600080fd5b505af1158015611aaa573d6000803e3d6000fd5b50506004805460408051630631203b60e41b81529283018c9052516001600160a01b03909116935063631203b092506024808301926020929190829003018186803b158015611af857600080fd5b505afa158015611b0c573d6000803e3d6000fd5b505050506040513d6020811015611b2257600080fd5b5051610100820181905283101580611b38575082155b611b735760405162461bcd60e51b815260040180806020018281038252602f8152602001806130e5602f913960400191505060405180910390fd5b6101008101516040820151611b8d9163ffffffff6124a916565b6040808301919091526008546101008301518251634677ffb360e01b8152600481019190915291516001600160a01b0390911691634677ffb391602480830192600092919082900301818387803b158015611be757600080fd5b505af1158015611bfb573d6000803e3d6000fd5b5050600a54600954610100850151604080516340c10f1960e01b81526001600160a01b0393841660048201526024810192909252519190921693506340c10f199250604480830192600092919082900301818387803b158015611c5d57600080fd5b505af1158015611c71573d6000803e3d6000fd5b505050505b600480546040805163d66a255360e01b81526001600160a01b038d8116948201949094529051929091169163d66a255391602480820192602092909190829003018186803b158015611cc757600080fd5b505afa158015611cdb573d6000803e3d6000fd5b505050506040513d6020811015611cf157600080fd5b5051608082015260048054604080516309019aaf60e31b81526001600160a01b038d8116948201949094529051929091169163480cd57891602480820192602092909190829003018186803b158015611d4957600080fd5b505afa158015611d5d573d6000803e3d6000fd5b505050506040513d6020811015611d7357600080fd5b505160a0820181905260808201518251611d8e9291906125da565b8160c0018181525050611dbe8160a0015182608001518360200151846060015185604001518b87600001516128ee565b60e08201528115611e9757611dd161264d565b611e43576000611df48260200151836060015184604001518a8660000151612921565b90506714d1120d7b160000811015611e3d5760405162461bcd60e51b81526004018080602001828103825260278152602001806130256027913960400191505060405180910390fd5b50611e8a565b8060c001518160e001511015611e8a5760405162461bcd60e51b815260040180806020018281038252603e81526020018061337d603e913960400191505060405180910390fd5b611e978160e001516126b2565b85158015611ea55750600087115b15611eca57611ebc816080015182604001516129ac565b611eca898260400151612228565b611ee3898260200151836060015184604001518a612a02565b6101208301526101408201526004805460408051630c7940bd60e11b81526001600160a01b038d811694820194909452905192909116916318f2817a916024808201926020929091908290030181600087803b158015611f4257600080fd5b505af1158015611f56573d6000803e3d6000fd5b505050506040513d6020811015611f6c57600080fd5b505161016082015260a08101516080820151602083015160608401516040850151600094611fa0949093909290918c612c49565b600b546040805163015f109360e51b81526001600160a01b038e81166004830152602482018590528a8116604483015289811660648301529151939450911691632be212609160848082019260009290919082900301818387803b15801561200757600080fd5b505af115801561201b573d6000803e3d6000fd5b50505050896001600160a01b03166000805160206131f283398151915283610120015184610140015185610160015160066040518085815260200184815260200183815260200182600681111561206e57fe5b60ff16815260200194505050505060405180910390a2610100820151604080519182525133917fa55c5f48fd29482ad55f4b59bf070cd1ac1a7132a31f7a136ebe8877ae37e1ff919081900360200190a2610dd133836020015184606001518b8b8760400151612c7a565b60048054604080516321e3780160e01b81526001600160a01b03858116948201949094529051600093909216916321e3780191602480820192602092909190829003018186803b15801561212c57600080fd5b505afa158015612140573d6000803e3d6000fd5b505050506040513d602081101561215657600080fd5b50519050600181146109ec5760405162461bcd60e51b815260040180806020018281038252602e8152602001806131c4602e913960400191505060405180910390fd5b6121a161264d565b156121dd5760405162461bcd60e51b815260040180806020018281038252603981526020018061307c6039913960400191505060405180910390fd5b565b600061222183836040518060400160405280601e81526020017f536166654d6174683a207375627472616374696f6e206f766572666c6f770000815250612d14565b9392505050565b600a54604080516370a0823160e01b81526001600160a01b0385811660048301529151849392909216916370a0823191602480820192602092909190829003018186803b15801561227857600080fd5b505afa15801561228c573d6000803e3d6000fd5b505050506040513d60208110156122a257600080fd5b505110156109ec5760405162461bcd60e51b81526004018080602001828103825260408152602001806132126040913960400191505060405180910390fd5b600080546040805163071b32b560e31b81526004810185905290516001600160a01b03909216926338d995a89260248084019382900301818387803b15801561232957600080fd5b505af115801561233d573d6000803e3d6000fd5b5050600a5460408051632770a7eb60e21b81526001600160a01b038781166004830152602482018790529151919092169350639dc29fac9250604480830192600092919082900301818387803b15801561094a57600080fd5b60006109b782678ac7230489e8000063ffffffff6124a916565b6001600160a01b03811661240b576040805162461bcd60e51b815260206004820152601e60248201527f4163636f756e742063616e6e6f74206265207a65726f20616464726573730000604482015290519081900360640190fd5b803b806109ec576040805162461bcd60e51b815260206004820181905260248201527f4163636f756e7420636f64652073697a652063616e6e6f74206265207a65726f604482015290519081900360640190fd5b6003546040516000916001600160a01b0316907f8be0079c531659141344cd1fd0a4f28419497f9722a3daafe3b4186f6b6457e0908390a3600380546001600160a01b0319169055565b600082820183811015612221576040805162461bcd60e51b815260206004820152601b60248201527f536166654d6174683a206164646974696f6e206f766572666c6f770000000000604482015290519081900360640190fd5b60048054604080516321e3780160e01b81526001600160a01b03858116948201949094529051600093909216916321e3780191602480820192602092909190829003018186803b15801561255657600080fd5b505afa15801561256a573d6000803e3d6000fd5b505050506040513d602081101561258057600080fd5b5051905060018114156109ec576040805162461bcd60e51b815260206004820152601c60248201527f426f72726f7765724f70733a2054726f76652069732061637469766500000000604482015290519081900360640190fd5b6000821561260d576000612604846125f8878663ffffffff612dab16565b9063ffffffff612e0416565b91506122219050565b506000199392505050565b600081156126445761263d826125f88568056bc75e2d6310000063ffffffff612dab16565b90506109b7565b506000196109b7565b600080612658612e46565b6714d1120d7b1600001191505090565b6729a2241af62c00008110156126af5760405162461bcd60e51b815260040180806020018281038252603f815260200180613252603f913960400191505060405180910390fd5b50565b670f43fc2c04ee00008110156126af5760405162461bcd60e51b81526004018080602001828103825260498152602001806132c86049913960600191505060405180910390fd5b60006127088686868686612921565b90506714d1120d7b16000081101561095e5760405162461bcd60e51b815260040180806020018281038252604981526020018061317b6049913960600191505060405180910390fd5b600080546040516001600160a01b039091169083908381818185875af1925050503d806000811461279e576040519150601f19603f3d011682016040523d82523d6000602084013e6127a3565b606091505b50909150506001811515146109ec57fe5b60008054604080516367dc994d60e11b81526004810185905290516001600160a01b039092169263cfb9329a9260248084019382900301818387803b1580156127fc57600080fd5b505af1158015612810573d6000803e3d6000fd5b5050600a54604080516340c10f1960e01b81526001600160a01b0388811660048301526024820188905291519190921693506340c10f199250604480830192600092919082900301818387803b15801561286957600080fd5b505af115801561287d573d6000803e3d6000fd5b50505050505050565b6005546001600160a01b031633146121dd5760405162461bcd60e51b81526004018080602001828103825260298152602001806133546029913960400191505060405180910390fd5b60008083156128e3575082905060016128e7565b8291505b9250929050565b60008060006129018a8a8a8a8a8a612ef0565b9150915060006129128383876125da565b9b9a5050505050505050505050565b60008061292c61165c565b90506000612938610e13565b9050866129545761294f828963ffffffff6121df16565b612964565b612964828963ffffffff6124a916565b9150846129805761297b818763ffffffff6121df16565b612990565b612990818763ffffffff6124a916565b9050600061299f8383876125da565b9998505050505050505050565b6129c482678ac7230489e8000063ffffffff6121df16565b8111156109ec5760405162461bcd60e51b81526004018080602001828103825260438152602001806133116043913960600191505060405180910390fd5b600080600085612a9757600480546040805163d3d6f84360e01b81526001600160a01b038c811694820194909452602481018b90529051929091169163d3d6f843916044808201926020929091908290030181600087803b158015612a6657600080fd5b505af1158015612a7a573d6000803e3d6000fd5b505050506040513d6020811015612a9057600080fd5b5051612b1e565b60048054604080516372423c1760e01b81526001600160a01b038c811694820194909452602481018b9052905192909116916372423c17916044808201926020929091908290030181600087803b158015612af157600080fd5b505af1158015612b05573d6000803e3d6000fd5b505050506040513d6020811015612b1b57600080fd5b50515b9050600084612bb2576004805460408051630930874960e11b81526001600160a01b038d811694820194909452602481018a9052905192909116916312610e92916044808201926020929091908290030181600087803b158015612b8157600080fd5b505af1158015612b95573d6000803e3d6000fd5b505050506040513d6020811015612bab57600080fd5b5051612c39565b6004805460408051639976cf4560e01b81526001600160a01b038d811694820194909452602481018a905290519290911691639976cf45916044808201926020929091908290030181600087803b158015612c0c57600080fd5b505af1158015612c20573d6000803e3d6000fd5b505050506040513d6020811015612c3657600080fd5b50515b9199919850909650505050505050565b6000806000612c5c898989898989612ef0565b915091506000612c6c8383612618565b9a9950505050505050505050565b8115612c9057612c8b8684836127b4565b612c9a565b612c9a86846122e1565b8315612cae57612ca985612751565b61095e565b60008054604080516364a197f360e01b81526001600160a01b038a81166004830152602482018a9052915191909216926364a197f3926044808201939182900301818387803b158015612d0057600080fd5b505af1158015610dd1573d6000803e3d6000fd5b60008184841115612da35760405162461bcd60e51b81526004018080602001828103825283818151815260200191508051906020019080838360005b83811015612d68578181015183820152602001612d50565b50505050905090810190601f168015612d955780820380516001836020036101000a031916815260200191505b509250505060405180910390fd5b505050900390565b600082612dba575060006109b7565b82820282848281612dc757fe5b04146122215760405162461bcd60e51b815260040180806020018281038252602181526020018061315a6021913960400191505060405180910390fd5b600061222183836040518060400160405280601a81526020017f536166654d6174683a206469766973696f6e206279207a65726f000000000000815250612f5c565b600080600260009054906101000a90046001600160a01b03166001600160a01b03166398d5fdca6040518163ffffffff1660e01b815260040160206040518083038186803b158015612e9757600080fd5b505afa158015612eab573d6000803e3d6000fd5b505050506040513d6020811015612ec157600080fd5b505190506000612ecf61165c565b90506000612edb610e13565b9050612ee88282856125da565b935050505090565b600080878786612f0f57612f0a8a8963ffffffff6121df16565b612f1f565b612f1f8a8963ffffffff6124a916565b915084612f3b57612f36898763ffffffff6121df16565b612f4b565b612f4b898763ffffffff6124a916565b919a91995090975050505050505050565b60008183612fab5760405162461bcd60e51b8152602060048201818152835160248401528351909283926044909101919085019080838360008315612d68578181015183820152602001612d50565b506000838581612fb757fe5b0495945050505050565b6040518061018001604052806000815260200160008152602001600081526020016000151581526020016000815260200160008152602001600081526020016000815260200160008152602001600081526020016000815260200160008152509056fe426f72726f7765724f70733a2043616e6e6f74206272696e67205443522062656c6f7720434352426f72726f7765724f7065726174696f6e733a2043616e6e6f7420776974686472617720616e642061646420636f6c6c426f72726f7765724f70733a204f7065726174696f6e206e6f74207065726d697474656420647572696e67205265636f76657279204d6f6465426f72726f7765724f70733a2055736572206d7573742062652073656e64657220666f72207769746864726177616c73426f72726f7765724f70733a2069737375616e6365206665652065786365656465642070726f7669646564206d6178426f72726f7765724f70733a205468657265206d75737420626520656974686572206120636f6c6c61746572616c206368616e6765206f7220612064656274206368616e6765536166654d6174683a206d756c7469706c69636174696f6e206f766572666c6f77426f72726f7765724f70733a20416e206f7065726174696f6e207468617420776f756c6420726573756c7420696e20544352203c20434352206973206e6f74207065726d6974746564426f72726f7765724f70733a2054726f766520646f6573206e6f74206578697374206f7220697320636c6f736564c3770d654ed33aeea6bf11ac8ef05d02a6a04ed4686dd2f624d853bbec43cc8b426f72726f7765724f70733a2043616c6c657220646f65736e74206861766520656e6f756768204c55534420746f20636c6f73652074686569722074726f7665426f72726f7765724f70733a20496e205265636f76657279204d6f6465206e65772074726f766573206d757374206861766520494352203e3d20525f4d4352426f72726f7765724f70733a204465627420696e63726561736520726571756972657320706f73697469766520646562744368616e6765426f72726f7765724f70733a20416e206f7065726174696f6e207468617420776f756c6420726573756c7420696e20494352203c204d4352206973206e6f74207065726d6974746564426f72726f7765724f70733a20416d6f756e7420726570616964206d757374206e6f74206265206c6172676572207468616e207468652054726f766527732064656274426f72726f7765724f70733a2043616c6c6572206973206e6f742053746162696c69747920506f6f6c426f72726f7765724f70733a2043616e6e6f7420646563726561736520796f75722054726f766527732049435220696e205265636f76657279204d6f6465a26469706673582212204353647fc2e4233db695815943b17bfa01b3e72bb85a746a2e77790d884cacdf64736f6c634300060b0033",
  "linkReferences": {},
  "deployedLinkReferences": {}
}