{
  "_format": "hh-sol-artifact-1",
  "contractName": "BorrowerOperations",
  "sourceName": "contracts/BorrowerOperations.sol",
  "abi": [
    {
      "anonymous": false,
      "inputs": [
        {
          "indexed": false,
          "internalType": "address",
          "name": "_activePoolAddress",
          "type": "address"
        }
      ],
      "name": "ActivePoolAddressChanged",
      "type": "event"
    },
    {
      "anonymous": false,
      "inputs": [
        {
          "indexed": false,
          "internalType": "address",
          "name": "_collSurplusPoolAddress",
          "type": "address"
        }
      ],
      "name": "CollSurplusPoolAddressChanged",
      "type": "event"
    },
    {
      "anonymous": false,
      "inputs": [
        {
          "indexed": false,
          "internalType": "address",
          "name": "_defaultPoolAddress",
          "type": "address"
        }
      ],
      "name": "DefaultPoolAddressChanged",
      "type": "event"
    },
    {
      "anonymous": false,
      "inputs": [
        {
          "indexed": false,
          "internalType": "address",
          "name": "_gasPoolAddress",
          "type": "address"
        }
      ],
      "name": "GasPoolAddressChanged",
      "type": "event"
    },
    {
      "anonymous": false,
      "inputs": [
        {
          "indexed": false,
          "internalType": "address",
          "name": "_lqtyStakingAddress",
          "type": "address"
        }
      ],
      "name": "LQTYStakingAddressChanged",
      "type": "event"
    },
    {
      "anonymous": false,
      "inputs": [
        {
          "indexed": true,
          "internalType": "address",
          "name": "_borrower",
          "type": "address"
        },
        {
          "indexed": false,
          "internalType": "uint256",
          "name": "_LUSDFee",
          "type": "uint256"
        }
      ],
      "name": "LUSDBorrowingFeePaid",
      "type": "event"
    },
    {
      "anonymous": false,
      "inputs": [
        {
          "indexed": false,
          "internalType": "address",
          "name": "_lusdTokenAddress",
          "type": "address"
        }
      ],
      "name": "LUSDTokenAddressChanged",
      "type": "event"
    },
    {
      "anonymous": false,
      "inputs": [
        {
          "indexed": true,
          "internalType": "address",
          "name": "previousOwner",
          "type": "address"
        },
        {
          "indexed": true,
          "internalType": "address",
          "name": "newOwner",
          "type": "address"
        }
      ],
      "name": "OwnershipTransferred",
      "type": "event"
    },
    {
      "anonymous": false,
      "inputs": [
        {
          "indexed": false,
          "internalType": "address",
          "name": "_newPriceFeedAddress",
          "type": "address"
        }
      ],
      "name": "PriceFeedAddressChanged",
      "type": "event"
    },
    {
      "anonymous": false,
      "inputs": [
        {
          "indexed": false,
          "internalType": "address",
          "name": "_sortedTrovesAddress",
          "type": "address"
        }
      ],
      "name": "SortedTrovesAddressChanged",
      "type": "event"
    },
    {
      "anonymous": false,
      "inputs": [
        {
          "indexed": false,
          "internalType": "address",
          "name": "_stabilityPoolAddress",
          "type": "address"
        }
      ],
      "name": "StabilityPoolAddressChanged",
      "type": "event"
    },
    {
      "anonymous": false,
      "inputs": [
        {
          "indexed": true,
          "internalType": "address",
          "name": "_borrower",
          "type": "address"
        },
        {
          "indexed": false,
          "internalType": "uint256",
          "name": "arrayIndex",
          "type": "uint256"
        }
      ],
      "name": "TroveCreated",
      "type": "event"
    },
    {
      "anonymous": false,
      "inputs": [
        {
          "indexed": false,
          "internalType": "address",
          "name": "_newTroveManagerAddress",
          "type": "address"
        }
      ],
      "name": "TroveManagerAddressChanged",
      "type": "event"
    },
    {
      "anonymous": false,
      "inputs": [
        {
          "indexed": true,
          "internalType": "address",
          "name": "_borrower",
          "type": "address"
        },
        {
          "indexed": false,
          "internalType": "uint256",
          "name": "_debt",
          "type": "uint256"
        },
        {
          "indexed": false,
          "internalType": "uint256",
          "name": "_coll",
          "type": "uint256"
        },
        {
          "indexed": false,
          "internalType": "uint256",
          "name": "stake",
          "type": "uint256"
        },
        {
          "indexed": false,
          "internalType": "enum BorrowerOperations.BorrowerOperation",
          "name": "operation",
          "type": "uint8"
        }
      ],
      "name": "TroveUpdated",
      "type": "event"
    },
    {
      "inputs": [],
      "name": "BORROWING_FEE_FLOOR",
      "outputs": [
        {
          "internalType": "uint256",
          "name": "",
          "type": "uint256"
        }
      ],
      "stateMutability": "view",
      "type": "function"
    },
    {
      "inputs": [],
      "name": "CCR",
      "outputs": [
        {
          "internalType": "uint256",
          "name": "",
          "type": "uint256"
        }
      ],
      "stateMutability": "view",
      "type": "function"
    },
    {
      "inputs": [],
      "name": "DECIMAL_PRECISION",
      "outputs": [
        {
          "internalType": "uint256",
          "name": "",
          "type": "uint256"
        }
      ],
      "stateMutability": "view",
      "type": "function"
    },
    {
      "inputs": [],
      "name": "LUSD_GAS_COMPENSATION",
      "outputs": [
        {
          "internalType": "uint256",
          "name": "",
          "type": "uint256"
        }
      ],
      "stateMutability": "view",
      "type": "function"
    },
    {
      "inputs": [],
      "name": "MCR",
      "outputs": [
        {
          "internalType": "uint256",
          "name": "",
          "type": "uint256"
        }
      ],
      "stateMutability": "view",
      "type": "function"
    },
    {
      "inputs": [],
      "name": "MIN_NET_DEBT",
      "outputs": [
        {
          "internalType": "uint256",
          "name": "",
          "type": "uint256"
        }
      ],
      "stateMutability": "view",
      "type": "function"
    },
    {
      "inputs": [],
      "name": "PERCENT_DIVISOR",
      "outputs": [
        {
          "internalType": "uint256",
          "name": "",
          "type": "uint256"
        }
      ],
      "stateMutability": "view",
      "type": "function"
    },
    {
      "inputs": [],
      "name": "_100pct",
      "outputs": [
        {
          "internalType": "uint256",
          "name": "",
          "type": "uint256"
        }
      ],
      "stateMutability": "view",
      "type": "function"
    },
    {
      "inputs": [],
      "name": "activePool",
      "outputs": [
        {
          "internalType": "contract IActivePool",
          "name": "",
          "type": "address"
        }
      ],
      "stateMutability": "view",
      "type": "function"
    },
    {
      "inputs": [
        {
          "internalType": "address",
          "name": "_upperHint",
          "type": "address"
        },
        {
          "internalType": "address",
          "name": "_lowerHint",
          "type": "address"
        }
      ],
      "name": "addColl",
      "outputs": [],
      "stateMutability": "payable",
      "type": "function"
    },
    {
      "inputs": [
        {
          "internalType": "uint256",
          "name": "_maxFeePercentage",
          "type": "uint256"
        },
        {
          "internalType": "uint256",
          "name": "_collWithdrawal",
          "type": "uint256"
        },
        {
          "internalType": "uint256",
          "name": "_LUSDChange",
          "type": "uint256"
        },
        {
          "internalType": "bool",
          "name": "_isDebtIncrease",
          "type": "bool"
        },
        {
          "internalType": "address",
          "name": "_upperHint",
          "type": "address"
        },
        {
          "internalType": "address",
          "name": "_lowerHint",
          "type": "address"
        }
      ],
      "name": "adjustTrove",
      "outputs": [],
      "stateMutability": "payable",
      "type": "function"
    },
    {
      "inputs": [],
      "name": "claimCollateral",
      "outputs": [],
      "stateMutability": "nonpayable",
      "type": "function"
    },
    {
      "inputs": [],
      "name": "closeTrove",
      "outputs": [],
      "stateMutability": "nonpayable",
      "type": "function"
    },
    {
      "inputs": [],
      "name": "defaultPool",
      "outputs": [
        {
          "internalType": "contract IDefaultPool",
          "name": "",
          "type": "address"
        }
      ],
      "stateMutability": "view",
      "type": "function"
    },
    {
      "inputs": [
        {
          "internalType": "uint256",
          "name": "_debt",
          "type": "uint256"
        }
      ],
      "name": "getCompositeDebt",
      "outputs": [
        {
          "internalType": "uint256",
          "name": "",
          "type": "uint256"
        }
      ],
      "stateMutability": "pure",
      "type": "function"
    },
    {
      "inputs": [],
      "name": "getEntireSystemColl",
      "outputs": [
        {
          "internalType": "uint256",
          "name": "entireSystemColl",
          "type": "uint256"
        }
      ],
      "stateMutability": "view",
      "type": "function"
    },
    {
      "inputs": [],
      "name": "getEntireSystemDebt",
      "outputs": [
        {
          "internalType": "uint256",
          "name": "entireSystemDebt",
          "type": "uint256"
        }
      ],
      "stateMutability": "view",
      "type": "function"
    },
    {
      "inputs": [],
      "name": "isOwner",
      "outputs": [
        {
          "internalType": "bool",
          "name": "",
          "type": "bool"
        }
      ],
      "stateMutability": "view",
      "type": "function"
    },
    {
      "inputs": [],
      "name": "lqtyStaking",
      "outputs": [
        {
          "internalType": "contract ILQTYStaking",
          "name": "",
          "type": "address"
        }
      ],
      "stateMutability": "view",
      "type": "function"
    },
    {
      "inputs": [],
      "name": "lqtyStakingAddress",
      "outputs": [
        {
          "internalType": "address",
          "name": "",
          "type": "address"
        }
      ],
      "stateMutability": "view",
      "type": "function"
    },
    {
      "inputs": [],
      "name": "lusdToken",
      "outputs": [
        {
          "internalType": "contract ILUSDToken",
          "name": "",
          "type": "address"
        }
      ],
      "stateMutability": "view",
      "type": "function"
    },
    {
      "inputs": [
        {
          "internalType": "address",
          "name": "_borrower",
          "type": "address"
        },
        {
          "internalType": "address",
          "name": "_upperHint",
          "type": "address"
        },
        {
          "internalType": "address",
          "name": "_lowerHint",
          "type": "address"
        }
      ],
      "name": "moveETHGainToTrove",
      "outputs": [],
      "stateMutability": "payable",
      "type": "function"
    },
    {
      "inputs": [
        {
          "internalType": "uint256",
          "name": "_maxFeePercentage",
          "type": "uint256"
        },
        {
          "internalType": "uint256",
          "name": "_LUSDAmount",
          "type": "uint256"
        },
        {
          "internalType": "address",
          "name": "_upperHint",
          "type": "address"
        },
        {
          "internalType": "address",
          "name": "_lowerHint",
          "type": "address"
        }
      ],
      "name": "openTrove",
      "outputs": [],
      "stateMutability": "payable",
      "type": "function"
    },
    {
      "inputs": [],
      "name": "owner",
      "outputs": [
        {
          "internalType": "address",
          "name": "",
          "type": "address"
        }
      ],
      "stateMutability": "view",
      "type": "function"
    },
    {
      "inputs": [],
      "name": "priceFeed",
      "outputs": [
        {
          "internalType": "contract IPriceFeed",
          "name": "",
          "type": "address"
        }
      ],
      "stateMutability": "view",
      "type": "function"
    },
    {
      "inputs": [
        {
          "internalType": "uint256",
          "name": "_LUSDAmount",
          "type": "uint256"
        },
        {
          "internalType": "address",
          "name": "_upperHint",
          "type": "address"
        },
        {
          "internalType": "address",
          "name": "_lowerHint",
          "type": "address"
        }
      ],
      "name": "repayLUSD",
      "outputs": [],
      "stateMutability": "nonpayable",
      "type": "function"
    },
    {
      "inputs": [
        {
          "internalType": "address",
          "name": "_troveManagerAddress",
          "type": "address"
        },
        {
          "internalType": "address",
          "name": "_activePoolAddress",
          "type": "address"
        },
        {
          "internalType": "address",
          "name": "_defaultPoolAddress",
          "type": "address"
        },
        {
          "internalType": "address",
          "name": "_stabilityPoolAddress",
          "type": "address"
        },
        {
          "internalType": "address",
          "name": "_gasPoolAddress",
          "type": "address"
        },
        {
          "internalType": "address",
          "name": "_collSurplusPoolAddress",
          "type": "address"
        },
        {
          "internalType": "address",
          "name": "_priceFeedAddress",
          "type": "address"
        },
        {
          "internalType": "address",
          "name": "_sortedTrovesAddress",
          "type": "address"
        },
        {
          "internalType": "address",
          "name": "_lusdTokenAddress",
          "type": "address"
        },
        {
          "internalType": "address",
          "name": "_lqtyStakingAddress",
          "type": "address"
        }
      ],
      "name": "setAddresses",
      "outputs": [],
      "stateMutability": "nonpayable",
      "type": "function"
    },
    {
      "inputs": [],
      "name": "sortedTroves",
      "outputs": [
        {
          "internalType": "contract ISortedTroves",
          "name": "",
          "type": "address"
        }
      ],
      "stateMutability": "view",
      "type": "function"
    },
    {
      "inputs": [],
      "name": "troveManager",
      "outputs": [
        {
          "internalType": "contract ITroveManager",
          "name": "",
          "type": "address"
        }
      ],
      "stateMutability": "view",
      "type": "function"
    },
    {
      "inputs": [
        {
          "internalType": "uint256",
          "name": "_collWithdrawal",
          "type": "uint256"
        },
        {
          "internalType": "address",
          "name": "_upperHint",
          "type": "address"
        },
        {
          "internalType": "address",
          "name": "_lowerHint",
          "type": "address"
        }
      ],
      "name": "withdrawColl",
      "outputs": [],
      "stateMutability": "nonpayable",
      "type": "function"
    },
    {
      "inputs": [
        {
          "internalType": "uint256",
          "name": "_maxFeePercentage",
          "type": "uint256"
        },
        {
          "internalType": "uint256",
          "name": "_LUSDAmount",
          "type": "uint256"
        },
        {
          "internalType": "address",
          "name": "_upperHint",
          "type": "address"
        },
        {
          "internalType": "address",
          "name": "_lowerHint",
          "type": "address"
        }
      ],
      "name": "withdrawLUSD",
      "outputs": [],
      "stateMutability": "nonpayable",
      "type": "function"
    }
  ],
  "bytecode": "0x608060405234801561001057600080fd5b50600380546001600160a01b031916339081179091556040516000907f8be0079c531659141344cd1fd0a4f28419497f9722a3daafe3b4186f6b6457e0908290a36135c3806100606000396000f3fe6080604052600436106101985760003560e01c8063741bef1a116100e25780638f32d59b116100855780638f32d59b146104f6578063a20baee614610414578063a3a640171461051f578063ae91875414610534578063b83f91a214610549578063c6a6cf201461055e578063ea9638bf146105a6578063f92d3433146105de57610198565b8063741bef1a14610429578063761ab22c1461043e578063794e572414610453578063795d26c3146104685780637f7dde4a1461047d578063860665b314610492578063887105d3146104cc5780638da5cb5b146104e157610198565b80634870dd9a1161014a5780634870dd9a146102be5780634ff81443146102d35780635530273c146102fd5780635733d58f1461033e57806368647db1146103535780636c37a4af146103815780636f0b0c1c146103ff57806372fe25aa1461041457610198565b806304491fa71461019d5780630e704d50146101e05780631184e5f8146101f55780631bf435551461023c5780632e86bbd8146102635780633cc74225146102785780633d83908a146102a9575b600080fd5b3480156101a957600080fd5b506101de600480360360608110156101c057600080fd5b508035906001600160a01b03602082013581169160400135166105f3565b005b3480156101ec57600080fd5b506101de61060a565b34801561020157600080fd5b506101de6004803603608081101561021857600080fd5b508035906020810135906001600160a01b03604082013581169160600135166109e8565b34801561024857600080fd5b506102516109ff565b60408051918252519081900360200190f35b34801561026f57600080fd5b50610251610a0c565b34801561028457600080fd5b5061028d610a19565b604080516001600160a01b039092168252519081900360200190f35b3480156102b557600080fd5b5061028d610a28565b3480156102ca57600080fd5b50610251610a37565b3480156102df57600080fd5b50610251600480360360208110156102f657600080fd5b5035610a3c565b34801561030957600080fd5b506101de6004803603606081101561032057600080fd5b508035906001600160a01b0360208201358116916040013516610a4d565b34801561034a57600080fd5b50610251610a5e565b6101de6004803603604081101561036957600080fd5b506001600160a01b0381358116916020013516610a6a565b34801561038d57600080fd5b506101de60048036036101408110156103a557600080fd5b506001600160a01b038135811691602081013582169160408201358116916060810135821691608082013581169160a081013582169160c082013581169160e0810135821691610100820135811691610120013516610a80565b34801561040b57600080fd5b506101de610e25565b34801561042057600080fd5b50610251610e85565b34801561043557600080fd5b5061028d610e91565b34801561044a57600080fd5b5061028d610ea0565b34801561045f57600080fd5b50610251610eaf565b34801561047457600080fd5b50610251610ebb565b34801561048957600080fd5b5061028d610fbc565b6101de600480360360808110156104a857600080fd5b508035906020810135906001600160a01b0360408201358116916060013516610fcb565b3480156104d857600080fd5b50610251611600565b3480156104ed57600080fd5b5061028d6116bc565b34801561050257600080fd5b5061050b6116cb565b604080519115158252519081900360200190f35b34801561052b57600080fd5b5061028d6116dc565b34801561054057600080fd5b5061028d6116eb565b34801561055557600080fd5b5061028d6116fa565b6101de600480360360c081101561057457600080fd5b5080359060208101359060408101359060608101351515906001600160a01b03608082013581169160a0013516611709565b6101de600480360360608110156105bc57600080fd5b506001600160a01b038135811691602081013582169160409091013516611720565b3480156105ea57600080fd5b5061025161173a565b61060533600085600086866000611745565b505050565b600454600054600a546001600160a01b0392831692918216911661062e8333611d8a565b60025460408051630fdb11cf60e01b815290516000926001600160a01b031691630fdb11cf91600480830192602092919082900301818787803b15801561067457600080fd5b505af1158015610688573d6000803e3d6000fd5b505050506040513d602081101561069e57600080fd5b505190506106ab81611e4f565b60408051630b07655760e01b815233600482015290516001600160a01b03861691630b07655791602480830192600092919082900301818387803b1580156106f257600080fd5b505af1158015610706573d6000803e3d6000fd5b5050604080516309019aaf60e31b81523360048201529051600093506001600160a01b038816925063480cd57891602480820192602092909190829003018186803b15801561075457600080fd5b505afa158015610768573d6000803e3d6000fd5b505050506040513d602081101561077e57600080fd5b50516040805163d66a255360e01b815233600482015290519192506000916001600160a01b0388169163d66a2553916024808301926020929190829003018186803b1580156107cc57600080fd5b505afa1580156107e0573d6000803e3d6000fd5b505050506040513d60208110156107f657600080fd5b5051905061081d8433610818846802b5e3af16b188000063ffffffff611e9716565b611ee0565b60408051631fc5750960e31b815233600482015290516001600160a01b0388169163fe2ba84891602480830192600092919082900301818387803b15801561086457600080fd5b505af1158015610878573d6000803e3d6000fd5b5050604080516365e89c5760e11b815233600482015290516001600160a01b038a16935063cbd138ae9250602480830192600092919082900301818387803b1580156108c357600080fd5b505af11580156108d7573d6000803e3d6000fd5b50505050336001600160a01b031660008051602061339d833981519152600080600060016040518085815260200184815260200183815260200182600681111561091d57fe5b60ff16815260200194505050505060405180910390a2610957858533610952856802b5e3af16b188000063ffffffff611e9716565b611fa0565b60065461097a90869086906001600160a01b03166802b5e3af16b1880000611fa0565b604080516364a197f360e01b81523360048201526024810184905290516001600160a01b038716916364a197f391604480830192600092919082900301818387803b1580156109c857600080fd5b505af11580156109dc573d6000803e3d6000fd5b50505050505050505050565b6109f933600085600186868a611745565b50505050565b6869b5afac750bb8000081565b6802b5e3af16b188000081565b6001546001600160a01b031681565b6004546001600160a01b031681565b60c881565b6000610a478261207c565b92915050565b610605338460008086866000611745565b6714d1120d7b16000081565b610a7c33600080600086866000611745565b5050565b610a886116cb565b610ad9576040805162461bcd60e51b815260206004820181905260248201527f4f776e61626c653a2063616c6c6572206973206e6f7420746865206f776e6572604482015290519081900360640190fd5b610ae28a612097565b610aeb89612097565b610af488612097565b610afd87612097565b610b0686612097565b610b0f85612097565b610b1884612097565b610b2183612097565b610b2a82612097565b610b3381612097565b600480546001600160a01b03199081166001600160a01b038d81169182179093556000805483168d85161790556001805483168c85161790556005805483168b85161790556006805483168a8516179055600780548316898516179055600280548316888516179055600b80548316878516179055600a80548316868516179055600980548316938516938417905560088054909216909217905560408051918252517f143219c9e69b09e07e095fcc889b43d8f46ca892bba65f08dc3a0050869a5678916020908290030190a1604080516001600160a01b038b16815290517f78f058b189175430c48dc02699e3a0031ea4ff781536dc2fab847de4babdd8829181900360200190a1604080516001600160a01b038a16815290517f5ee0cae2f063ed938bb55046f6a932fb6ae792bf43624806bb90abe68a50be9b9181900360200190a1604080516001600160a01b038916815290517f82966d27eea39b038ee0fa30cd16532bb24f6e65d31cb58fb227aa5766cdcc7f9181900360200190a1604080516001600160a01b038816815290517fcfb07d791fcafc032b35837b50eb84b74df518cf4cc287e8084f47630fa70fa09181900360200190a1604080516001600160a01b038716815290517fe67f36a6e961157d6eff83b91f3af5a62131ceb6f04954ef74f51c1c05e7f88d9181900360200190a1604080516001600160a01b038616815290517f8c537274438aa850a330284665d81a85dd38267d09e4050d416bfc94142db2649181900360200190a1604080516001600160a01b038516815290517f65f4cf077bc01e4742eb5ad98326f6e95b63548ea24b17f8d5e823111fe788009181900360200190a1604080516001600160a01b038416815290517f227eec0ec317af6ab1a9587ffa1c84332522eb4c583a908f89babc05f8f339bd9181900360200190a1604080516001600160a01b038316815290517f756ebc192164c295bba134b5aacd72cc7aff8098a670d1f0a5f6b3a0b4ce67079181900360200190a16109dc612146565b6007546040805163b32beb5b60e01b815233600482015290516001600160a01b039092169163b32beb5b9160248082019260009290919082900301818387803b158015610e7157600080fd5b505af11580156109f9573d6000803e3d6000fd5b670de0b6b3a764000081565b6002546001600160a01b031681565b6009546001600160a01b031681565b670f43fc2c04ee000081565b6000805460408051632f5a97e560e11b8152905183926001600160a01b031691635eb52fca916004808301926020929190829003018186803b158015610f0057600080fd5b505afa158015610f14573d6000803e3d6000fd5b505050506040513d6020811015610f2a57600080fd5b505160015460408051632f5a97e560e11b815290519293506000926001600160a01b0390921691635eb52fca91600480820192602092909190829003018186803b158015610f7757600080fd5b505afa158015610f8b573d6000803e3d6000fd5b505050506040513d6020811015610fa157600080fd5b50519050610fb5828263ffffffff61219016565b9250505090565b6000546001600160a01b031681565b610fd36130f1565b50604080516060810182526004546001600160a01b03908116825260005481166020830152600a54169181019190915261100b613111565b600260009054906101000a90046001600160a01b03166001600160a01b0316630fdb11cf6040518163ffffffff1660e01b8152600401602060405180830381600087803b15801561105b57600080fd5b505af115801561106f573d6000803e3d6000fd5b505050506040513d602081101561108557600080fd5b5051808252600090611096906121ea565b90506110a28782612207565b82516110ae90336122b3565b60408201869052806110ef576110ce83600001518460400151888a61238f565b6020830181905260408301516110e99163ffffffff61219016565b60408301525b6110fc826040015161253f565b611109826040015161207c565b6060830181905261111657fe5b6111293483606001518460000151612587565b6080830152606082015161113e9034906125c5565b60a0830152801561115b5761115682608001516125fa565b61118e565b6111688260800151612641565b6000611181346001856060015160018760000151612688565b905061118c81612713565b505b825160408051635d6b480f60e01b81523360048201526001602482015290516001600160a01b0390921691635d6b480f9160448082019260009290919082900301818387803b1580156111e057600080fd5b505af11580156111f4573d6000803e3d6000fd5b50508451604080516372423c1760e01b815233600482015234602482015290516001600160a01b0390921693506372423c1792506044808201926020929091908290030181600087803b15801561124a57600080fd5b505af115801561125e573d6000803e3d6000fd5b505050506040513d602081101561127457600080fd5b50508251606083015160408051639976cf4560e01b81523360048201526024810192909252516001600160a01b0390921691639976cf45916044808201926020929091908290030181600087803b1580156112ce57600080fd5b505af11580156112e2573d6000803e3d6000fd5b505050506040513d60208110156112f857600080fd5b50508251604080516382fe3eb960e01b815233600482015290516001600160a01b03909216916382fe3eb99160248082019260009290919082900301818387803b15801561134557600080fd5b505af1158015611359573d6000803e3d6000fd5b5050845160408051630c7940bd60e11b815233600482015290516001600160a01b0390921693506318f2817a92506024808201926020929091908290030181600087803b1580156113a957600080fd5b505af11580156113bd573d6000803e3d6000fd5b505050506040513d60208110156113d357600080fd5b505160c0830152600b5460a0830151604080516346f7cf8760e01b815233600482015260248101929092526001600160a01b038881166044840152878116606484015290519216916346f7cf879160848082019260009290919082900301818387803b15801561144257600080fd5b505af1158015611456573d6000803e3d6000fd5b50508451604080516315d549f160e01b815233600482015290516001600160a01b0390921693506315d549f192506024808201926020929091908290030181600087803b1580156114a657600080fd5b505af11580156114ba573d6000803e3d6000fd5b505050506040513d60208110156114d057600080fd5b505160e08301819052604080519182525133917f59cfd0cd754bc5748b6770e94a4ffa5f678d885cb899dcfadc5734edb97c67ab919081900360200190a261151c83602001513461275a565b61153583602001518460400151338986604001516127ea565b602083015160408401516006546115619291906001600160a01b03166802b5e3af16b1880000806127ea565b336001600160a01b031660008051602061339d8339815191528360600151348560c001516000604051808581526020018481526020018381526020018260068111156115a957fe5b60ff16815260200194505050505060405180910390a2602080830151604080519182525133927fa55c5f48fd29482ad55f4b59bf070cd1ac1a7132a31f7a136ebe8877ae37e1ff928290030190a250505050505050565b6000805460408051630a7b61df60e11b8152905183926001600160a01b0316916314f6c3be916004808301926020929190829003018186803b15801561164557600080fd5b505afa158015611659573d6000803e3d6000fd5b505050506040513d602081101561166f57600080fd5b505160015460408051630a7b61df60e11b815290519293506000926001600160a01b03909216916314f6c3be91600480820192602092909190829003018186803b158015610f7757600080fd5b6003546001600160a01b031690565b6003546001600160a01b0316331490565b6008546001600160a01b031681565b600b546001600160a01b031681565b600a546001600160a01b031681565b6117183386868686868c611745565b505050505050565b6117286128c7565b61060583600080600086866000611745565b6611c37937e0800081565b61174d6130f1565b50604080516060810182526004546001600160a01b03908116825260005481166020830152600a541691810191909152611785613156565b600260009054906101000a90046001600160a01b03166001600160a01b0316630fdb11cf6040518163ffffffff1660e01b8152600401602060405180830381600087803b1580156117d557600080fd5b505af11580156117e9573d6000803e3d6000fd5b505050506040513d60208110156117ff57600080fd5b5051808252600090611810906121ea565b9050861561182b576118228482612207565b61182b88612912565b61183489612951565b61183e8989612997565b825161184a908b611d8a565b336001600160a01b038b16148061188057506005546001600160a01b0316331480156118765750600034115b8015611880575087155b61188657fe5b82600001516001600160a01b0316630b0765578b6040518263ffffffff1660e01b815260040180826001600160a01b03166001600160a01b03168152602001915050600060405180830381600087803b1580156118e257600080fd5b505af11580156118f6573d6000803e3d6000fd5b50505050611904348a6129e9565b15156060840152602083015260408201889052868015611922575080155b1561195d5761193b836000015184604001518a8761238f565b610100830181905260408301516119579163ffffffff61219016565b60408301525b82600001516001600160a01b031663d66a25538b6040518263ffffffff1660e01b815260040180826001600160a01b03166001600160a01b0316815260200191505060206040518083038186803b1580156119b757600080fd5b505afa1580156119cb573d6000803e3d6000fd5b505050506040513d60208110156119e157600080fd5b505160808301528251604080516309019aaf60e31b81526001600160a01b038d811660048301529151919092169163480cd578916024808301926020929190829003018186803b158015611a3457600080fd5b505afa158015611a48573d6000803e3d6000fd5b505050506040513d6020811015611a5e57600080fd5b505160a0830181905260808301518351611a79929190612587565b8260c0018181525050611aa98260a0015183608001518460200151856060015186604001518c8860000151612a08565b60e083015288151580611ab95750865b15611b03578160a00151891115611acc57fe5b6000611aeb8360200151846060015185604001518b8760000151612688565b9050611b01828460c001518560e0015184612a3b565b505b86158015611b115750600088115b15611b6457611b3f611b3a8360400151611b2e8560800151612a61565b9063ffffffff611e9716565b61253f565b611b5182608001518360400151612a7c565b611b6483604001518b8460400151611ee0565b611b8283600001518b8460200151856060015186604001518c612ad3565b610120840152610140830152825160408051630c7940bd60e11b81526001600160a01b038d81166004830152915191909216916318f2817a9160248083019260209291908290030181600087803b158015611bdc57600080fd5b505af1158015611bf0573d6000803e3d6000fd5b505050506040513d6020811015611c0657600080fd5b505161016083015260a08201516080830151602084015160608501516040860151600094611c3a949093909290918d612d33565b600b546040805163015f109360e51b81526001600160a01b038f81166004830152602482018590528b811660448301528a811660648301529151939450911691632be212609160848082019260009290919082900301818387803b158015611ca157600080fd5b505af1158015611cb5573d6000803e3d6000fd5b505050508a6001600160a01b031660008051602061339d833981519152846101200151856101400151866101600151600660405180858152602001848152602001838152602001826006811115611d0857fe5b60ff16815260200194505050505060405180910390a2610100830151604080519182525133917fa55c5f48fd29482ad55f4b59bf070cd1ac1a7132a31f7a136ebe8877ae37e1ff919081900360200190a2611d7d8460200151856040015133866020015187606001518e8e8a60400151612d64565b5050505050505050505050565b6000826001600160a01b03166321e37801836040518263ffffffff1660e01b815260040180826001600160a01b03166001600160a01b0316815260200191505060206040518083038186803b158015611de257600080fd5b505afa158015611df6573d6000803e3d6000fd5b505050506040513d6020811015611e0c57600080fd5b50519050600181146106055760405162461bcd60e51b815260040180806020018281038252602e81526020018061336f602e913960400191505060405180910390fd5b611e58816121ea565b15611e945760405162461bcd60e51b81526004018080602001828103825260398152602001806132546039913960400191505060405180910390fd5b50565b6000611ed983836040518060400160405280601e81526020017f536166654d6174683a207375627472616374696f6e206f766572666c6f770000815250612e1f565b9392505050565b80836001600160a01b03166370a08231846040518263ffffffff1660e01b815260040180826001600160a01b03166001600160a01b0316815260200191505060206040518083038186803b158015611f3757600080fd5b505afa158015611f4b573d6000803e3d6000fd5b505050506040513d6020811015611f6157600080fd5b505110156106055760405162461bcd60e51b815260040180806020018281038252603d8152602001806133bd603d913960400191505060405180910390fd5b836001600160a01b03166338d995a8826040518263ffffffff1660e01b815260040180828152602001915050600060405180830381600087803b158015611fe657600080fd5b505af1158015611ffa573d6000803e3d6000fd5b50505050826001600160a01b0316639dc29fac83836040518363ffffffff1660e01b815260040180836001600160a01b03166001600160a01b0316815260200182815260200192505050600060405180830381600087803b15801561205e57600080fd5b505af1158015612072573d6000803e3d6000fd5b5050505050505050565b6000610a47826802b5e3af16b188000063ffffffff61219016565b6001600160a01b0381166120f2576040805162461bcd60e51b815260206004820152601e60248201527f4163636f756e742063616e6e6f74206265207a65726f20616464726573730000604482015290519081900360640190fd5b803b80610a7c576040805162461bcd60e51b815260206004820181905260248201527f4163636f756e7420636f64652073697a652063616e6e6f74206265207a65726f604482015290519081900360640190fd5b6003546040516000916001600160a01b0316907f8be0079c531659141344cd1fd0a4f28419497f9722a3daafe3b4186f6b6457e0908390a3600380546001600160a01b0319169055565b600082820183811015611ed9576040805162461bcd60e51b815260206004820152601b60248201527f536166654d6174683a206164646974696f6e206f766572666c6f770000000000604482015290519081900360640190fd5b6000806121f683612eb6565b6714d1120d7b160000119392505050565b801561225957670de0b6b3a76400008211156122545760405162461bcd60e51b815260040180806020018281038252603281526020018061328d6032913960400191505060405180910390fd5b610a7c565b6611c37937e0800082108015906122785750670de0b6b3a76400008211155b610a7c5760405162461bcd60e51b81526004018080602001828103825260308152602001806134e96030913960400191505060405180910390fd5b6000826001600160a01b03166321e37801836040518263ffffffff1660e01b815260040180826001600160a01b03166001600160a01b0316815260200191505060206040518083038186803b15801561230b57600080fd5b505afa15801561231f573d6000803e3d6000fd5b505050506040513d602081101561233557600080fd5b505190506001811415610605576040805162461bcd60e51b815260206004820152601c60248201527f426f72726f7765724f70733a2054726f76652069732061637469766500000000604482015290519081900360640190fd5b6000846001600160a01b0316635dba4c4a6040518163ffffffff1660e01b8152600401600060405180830381600087803b1580156123cc57600080fd5b505af11580156123e0573d6000803e3d6000fd5b505050506000856001600160a01b031663631203b0856040518263ffffffff1660e01b81526004018082815260200191505060206040518083038186803b15801561242a57600080fd5b505afa15801561243e573d6000803e3d6000fd5b505050506040513d602081101561245457600080fd5b50519050612463818585612ee2565b60085460408051634677ffb360e01b81526004810184905290516001600160a01b0390921691634677ffb39160248082019260009290919082900301818387803b1580156124b057600080fd5b505af11580156124c4573d6000803e3d6000fd5b5050600954604080516340c10f1960e01b81526001600160a01b03928316600482015260248101869052905191891693506340c10f19925060448082019260009290919082900301818387803b15801561251d57600080fd5b505af1158015612531573d6000803e3d6000fd5b509298975050505050505050565b6869b5afac750bb80000811015611e945760405162461bcd60e51b815260040180806020018281038252603a815260200180613443603a913960400191505060405180910390fd5b600082156125ba5760006125b1846125a5878663ffffffff612f5716565b9063ffffffff612fb016565b9150611ed99050565b506000199392505050565b600081156125f1576125ea826125a58568056bc75e2d6310000063ffffffff612f5716565b9050610a47565b50600019610a47565b6714d1120d7b160000811015611e945760405162461bcd60e51b815260040180806020018281038252603d8152602001806131ba603d913960400191505060405180910390fd5b670f43fc2c04ee0000811015611e945760405162461bcd60e51b81526004018080602001828103825260498152602001806133fa6049913960600191505060405180910390fd5b600080612693611600565b9050600061269f610ebb565b9050866126bb576126b6828963ffffffff611e9716565b6126cb565b6126cb828963ffffffff61219016565b9150846126e7576126e2818763ffffffff611e9716565b6126f7565b6126f7818763ffffffff61219016565b90506000612706838387612587565b9998505050505050505050565b6714d1120d7b160000811015611e945760405162461bcd60e51b81526004018080602001828103825260498152602001806133266049913960600191505060405180910390fd5b6040516000906001600160a01b0384169083908381818185875af1925050503d80600081146127a5576040519150601f19603f3d011682016040523d82523d6000602084013e6127aa565b606091505b50509050806106055760405162461bcd60e51b815260040180806020018281038252602d8152602001806131f7602d913960400191505060405180910390fd5b846001600160a01b031663cfb9329a826040518263ffffffff1660e01b815260040180828152602001915050600060405180830381600087803b15801561283057600080fd5b505af1158015612844573d6000803e3d6000fd5b50505050836001600160a01b03166340c10f1984846040518363ffffffff1660e01b815260040180836001600160a01b03166001600160a01b0316815260200182815260200192505050600060405180830381600087803b1580156128a857600080fd5b505af11580156128bc573d6000803e3d6000fd5b505050505050505050565b6005546001600160a01b031633146129105760405162461bcd60e51b81526004018080602001828103825260298152602001806134c06029913960400191505060405180910390fd5b565b60008111611e945760405162461bcd60e51b81526004018080602001828103825260378152602001806135196037913960400191505060405180910390fd5b34158061295c575080155b611e945760405162461bcd60e51b81526004018080602001828103825260308152602001806132246030913960400191505060405180910390fd5b341515806129a457508115155b806129ae57508015155b610a7c5760405162461bcd60e51b81526004018080602001828103825260468152602001806132bf6046913960600191505060405180910390fd5b60008083156129fd57508290506001612a01565b8291505b9250929050565b6000806000612a1b8a8a8a8a8a8a612ff2565b915091506000612a2c838387612587565b9b9a5050505050505050505050565b612a4482612641565b83612a5757612a5281612713565b6109f9565b6109f9828461304d565b6000610a47826802b5e3af16b188000063ffffffff611e9716565b612a95826802b5e3af16b188000063ffffffff611e9716565b811115610a7c5760405162461bcd60e51b815260040180806020018281038252604381526020018061347d6043913960600191505060405180910390fd5b600080600085612b6e57886001600160a01b031663d3d6f84389896040518363ffffffff1660e01b815260040180836001600160a01b03166001600160a01b0316815260200182815260200192505050602060405180830381600087803b158015612b3d57600080fd5b505af1158015612b51573d6000803e3d6000fd5b505050506040513d6020811015612b6757600080fd5b5051612bfb565b886001600160a01b03166372423c1789896040518363ffffffff1660e01b815260040180836001600160a01b03166001600160a01b0316815260200182815260200192505050602060405180830381600087803b158015612bce57600080fd5b505af1158015612be2573d6000803e3d6000fd5b505050506040513d6020811015612bf857600080fd5b50515b9050600084612c9557896001600160a01b03166312610e928a886040518363ffffffff1660e01b815260040180836001600160a01b03166001600160a01b0316815260200182815260200192505050602060405180830381600087803b158015612c6457600080fd5b505af1158015612c78573d6000803e3d6000fd5b505050506040513d6020811015612c8e57600080fd5b5051612d22565b896001600160a01b0316639976cf458a886040518363ffffffff1660e01b815260040180836001600160a01b03166001600160a01b0316815260200182815260200192505050602060405180830381600087803b158015612cf557600080fd5b505af1158015612d09573d6000803e3d6000fd5b505050506040513d6020811015612d1f57600080fd5b50515b919a91995090975050505050505050565b6000806000612d46898989898989612ff2565b915091506000612d5683836125c5565b9a9950505050505050505050565b8115612d7c57612d7788888886856127ea565b612d88565b612d8888888886611fa0565b8315612d9d57612d98888661275a565b612072565b876001600160a01b03166364a197f387876040518363ffffffff1660e01b815260040180836001600160a01b03166001600160a01b0316815260200182815260200192505050600060405180830381600087803b158015612dfd57600080fd5b505af1158015612e11573d6000803e3d6000fd5b505050505050505050505050565b60008184841115612eae5760405162461bcd60e51b81526004018080602001828103825283818151815260200191508051906020019080838360005b83811015612e73578181015183820152602001612e5b565b50505050905090810190601f168015612ea05780820380516001836020036101000a031916815260200191505b509250505060405180910390fd5b505050900390565b600080612ec1611600565b90506000612ecd610ebb565b9050612eda828286612587565b949350505050565b6000612f00836125a586670de0b6b3a764000063ffffffff612f5716565b9050818111156109f9576040805162461bcd60e51b815260206004820152601d60248201527f4665652065786365656465642070726f7669646564206d6178696d756d000000604482015290519081900360640190fd5b600082612f6657506000610a47565b82820282848281612f7357fe5b0414611ed95760405162461bcd60e51b81526004018080602001828103825260218152602001806133056021913960400191505060405180910390fd5b6000611ed983836040518060400160405280601a81526020017f536166654d6174683a206469766973696f6e206279207a65726f00000000000081525061308c565b6000808787866130115761300c8a8963ffffffff611e9716565b613021565b6130218a8963ffffffff61219016565b91508461303d57613038898763ffffffff611e9716565b612d22565b612d22898763ffffffff61219016565b80821015610a7c5760405162461bcd60e51b815260040180806020018281038252603e815260200180613550603e913960400191505060405180910390fd5b600081836130db5760405162461bcd60e51b8152602060048201818152835160248401528351909283926044909101919085019080838360008315612e73578181015183820152602001612e5b565b5060008385816130e757fe5b0495945050505050565b604080516060810182526000808252602082018190529181019190915290565b60405180610100016040528060008152602001600081526020016000815260200160008152602001600081526020016000815260200160008152602001600081525090565b6040518061018001604052806000815260200160008152602001600081526020016000151581526020016000815260200160008152602001600081526020016000815260200160008152602001600081526020016000815260200160008152509056fe426f72726f7765724f70733a20496e205265636f76657279204d6f6465206e65772074726f766573206d757374206861766520494352203e3d20434352426f72726f7765724f70733a2053656e64696e672045544820746f20416374697665506f6f6c206661696c6564426f72726f7765724f7065726174696f6e733a2043616e6e6f7420776974686472617720616e642061646420636f6c6c426f72726f7765724f70733a204f7065726174696f6e206e6f74207065726d697474656420647572696e67205265636f76657279204d6f64654d6178206665652070657263656e74616765206d757374206c657373207468616e206f7220657175616c20746f2031303025426f72726f7765724f70733a205468657265206d75737420626520656974686572206120636f6c6c61746572616c206368616e6765206f7220612064656274206368616e6765536166654d6174683a206d756c7469706c69636174696f6e206f766572666c6f77426f72726f7765724f70733a20416e206f7065726174696f6e207468617420776f756c6420726573756c7420696e20544352203c20434352206973206e6f74207065726d6974746564426f72726f7765724f70733a2054726f766520646f6573206e6f74206578697374206f7220697320636c6f736564c3770d654ed33aeea6bf11ac8ef05d02a6a04ed4686dd2f624d853bbec43cc8b426f72726f7765724f70733a2043616c6c657220646f65736e74206861766520656e6f756768204c55534420746f206d616b652072657061796d656e74426f72726f7765724f70733a20416e206f7065726174696f6e207468617420776f756c6420726573756c7420696e20494352203c204d4352206973206e6f74207065726d6974746564426f72726f7765724f70733a2054726f76652773206e65742064656274206d7573742062652067726561746572207468616e206d696e696d756d426f72726f7765724f70733a20416d6f756e7420726570616964206d757374206e6f74206265206c6172676572207468616e207468652054726f766527732064656274426f72726f7765724f70733a2043616c6c6572206973206e6f742053746162696c69747920506f6f6c4d6178206665652070657263656e74616765206d757374206265206265747765656e20302e352520616e642031303025426f72726f7765724f70733a204465627420696e637265617365207265717569726573206e6f6e2d7a65726f20646562744368616e6765426f72726f7765724f70733a2043616e6e6f7420646563726561736520796f75722054726f766527732049435220696e205265636f76657279204d6f6465a264697066735822122039098bc2745b6962960ab24e159427de752efeb4a383fdf52b7752f1e25f93ce64736f6c634300060b0033",
  "linkReferences": {},
  "deployedLinkReferences": {}
}