{
  "_format": "hh-sol-artifact-1",
  "contractName": "BorrowerOperationsTester",
  "sourceName": "contracts/TestContracts/BorrowerOperationsTester.sol",
  "abi": [
    {
      "anonymous": false,
      "inputs": [
        {
          "indexed": false,
          "internalType": "address",
          "name": "_activePoolAddress",
          "type": "address"
        }
      ],
      "name": "ActivePoolAddressChanged",
      "type": "event"
    },
    {
      "anonymous": false,
      "inputs": [
        {
          "indexed": false,
          "internalType": "address",
          "name": "_collSurplusPoolAddress",
          "type": "address"
        }
      ],
      "name": "CollSurplusPoolAddressChanged",
      "type": "event"
    },
    {
      "anonymous": false,
      "inputs": [
        {
          "indexed": false,
          "internalType": "address",
          "name": "_defaultPoolAddress",
          "type": "address"
        }
      ],
      "name": "DefaultPoolAddressChanged",
      "type": "event"
    },
    {
      "anonymous": false,
      "inputs": [
        {
          "indexed": false,
          "internalType": "address",
          "name": "_gasPoolAddress",
          "type": "address"
        }
      ],
      "name": "GasPoolAddressChanged",
      "type": "event"
    },
    {
      "anonymous": false,
      "inputs": [
        {
          "indexed": false,
          "internalType": "address",
          "name": "_lqtyStakingAddress",
          "type": "address"
        }
      ],
      "name": "LQTYStakingAddressChanged",
      "type": "event"
    },
    {
      "anonymous": false,
      "inputs": [
        {
          "indexed": true,
          "internalType": "address",
          "name": "_borrower",
          "type": "address"
        },
        {
          "indexed": false,
          "internalType": "uint256",
          "name": "_LUSDFee",
          "type": "uint256"
        }
      ],
      "name": "LUSDBorrowingFeePaid",
      "type": "event"
    },
    {
      "anonymous": false,
      "inputs": [
        {
          "indexed": false,
          "internalType": "address",
          "name": "_lusdTokenAddress",
          "type": "address"
        }
      ],
      "name": "LUSDTokenAddressChanged",
      "type": "event"
    },
    {
      "anonymous": false,
      "inputs": [
        {
          "indexed": true,
          "internalType": "address",
          "name": "previousOwner",
          "type": "address"
        },
        {
          "indexed": true,
          "internalType": "address",
          "name": "newOwner",
          "type": "address"
        }
      ],
      "name": "OwnershipTransferred",
      "type": "event"
    },
    {
      "anonymous": false,
      "inputs": [
        {
          "indexed": false,
          "internalType": "address",
          "name": "_newPriceFeedAddress",
          "type": "address"
        }
      ],
      "name": "PriceFeedAddressChanged",
      "type": "event"
    },
    {
      "anonymous": false,
      "inputs": [
        {
          "indexed": false,
          "internalType": "address",
          "name": "_sortedTrovesAddress",
          "type": "address"
        }
      ],
      "name": "SortedTrovesAddressChanged",
      "type": "event"
    },
    {
      "anonymous": false,
      "inputs": [
        {
          "indexed": false,
          "internalType": "address",
          "name": "_stabilityPoolAddress",
          "type": "address"
        }
      ],
      "name": "StabilityPoolAddressChanged",
      "type": "event"
    },
    {
      "anonymous": false,
      "inputs": [
        {
          "indexed": true,
          "internalType": "address",
          "name": "_borrower",
          "type": "address"
        },
        {
          "indexed": false,
          "internalType": "uint256",
          "name": "arrayIndex",
          "type": "uint256"
        }
      ],
      "name": "TroveCreated",
      "type": "event"
    },
    {
      "anonymous": false,
      "inputs": [
        {
          "indexed": false,
          "internalType": "address",
          "name": "_newTroveManagerAddress",
          "type": "address"
        }
      ],
      "name": "TroveManagerAddressChanged",
      "type": "event"
    },
    {
      "anonymous": false,
      "inputs": [
        {
          "indexed": true,
          "internalType": "address",
          "name": "_borrower",
          "type": "address"
        },
        {
          "indexed": false,
          "internalType": "uint256",
          "name": "_debt",
          "type": "uint256"
        },
        {
          "indexed": false,
          "internalType": "uint256",
          "name": "_coll",
          "type": "uint256"
        },
        {
          "indexed": false,
          "internalType": "uint256",
          "name": "stake",
          "type": "uint256"
        },
        {
          "indexed": false,
          "internalType": "enum BorrowerOperations.BorrowerOperation",
          "name": "operation",
          "type": "uint8"
        }
      ],
      "name": "TroveUpdated",
      "type": "event"
    },
    {
      "inputs": [],
      "name": "CCR",
      "outputs": [
        {
          "internalType": "uint256",
          "name": "",
          "type": "uint256"
        }
      ],
      "stateMutability": "view",
      "type": "function"
    },
    {
      "inputs": [],
      "name": "DECIMAL_PRECISION",
      "outputs": [
        {
          "internalType": "uint256",
          "name": "",
          "type": "uint256"
        }
      ],
      "stateMutability": "view",
      "type": "function"
    },
    {
      "inputs": [],
      "name": "LUSD_GAS_COMPENSATION",
      "outputs": [
        {
          "internalType": "uint256",
          "name": "",
          "type": "uint256"
        }
      ],
      "stateMutability": "view",
      "type": "function"
    },
    {
      "inputs": [],
      "name": "MCR",
      "outputs": [
        {
          "internalType": "uint256",
          "name": "",
          "type": "uint256"
        }
      ],
      "stateMutability": "view",
      "type": "function"
    },
    {
      "inputs": [],
      "name": "PERCENT_DIVISOR",
      "outputs": [
        {
          "internalType": "uint256",
          "name": "",
          "type": "uint256"
        }
      ],
      "stateMutability": "view",
      "type": "function"
    },
    {
      "inputs": [],
      "name": "R_MCR",
      "outputs": [
        {
          "internalType": "uint256",
          "name": "",
          "type": "uint256"
        }
      ],
      "stateMutability": "view",
      "type": "function"
    },
    {
      "inputs": [],
      "name": "_100pct",
      "outputs": [
        {
          "internalType": "uint256",
          "name": "",
          "type": "uint256"
        }
      ],
      "stateMutability": "view",
      "type": "function"
    },
    {
      "inputs": [],
      "name": "activePool",
      "outputs": [
        {
          "internalType": "contract IActivePool",
          "name": "",
          "type": "address"
        }
      ],
      "stateMutability": "view",
      "type": "function"
    },
    {
      "inputs": [
        {
          "internalType": "address",
          "name": "_upperHint",
          "type": "address"
        },
        {
          "internalType": "address",
          "name": "_lowerHint",
          "type": "address"
        }
      ],
      "name": "addColl",
      "outputs": [],
      "stateMutability": "payable",
      "type": "function"
    },
    {
      "inputs": [
        {
          "internalType": "uint256",
          "name": "_maxFee",
          "type": "uint256"
        },
        {
          "internalType": "uint256",
          "name": "_collWithdrawal",
          "type": "uint256"
        },
        {
          "internalType": "uint256",
          "name": "_debtChange",
          "type": "uint256"
        },
        {
          "internalType": "bool",
          "name": "_isDebtIncrease",
          "type": "bool"
        },
        {
          "internalType": "address",
          "name": "_upperHint",
          "type": "address"
        },
        {
          "internalType": "address",
          "name": "_lowerHint",
          "type": "address"
        }
      ],
      "name": "adjustTrove",
      "outputs": [],
      "stateMutability": "payable",
      "type": "function"
    },
    {
      "inputs": [
        {
          "internalType": "address",
          "name": "_borrower",
          "type": "address"
        },
        {
          "internalType": "uint256",
          "name": "_collWithdrawal",
          "type": "uint256"
        },
        {
          "internalType": "uint256",
          "name": "_debtChange",
          "type": "uint256"
        },
        {
          "internalType": "bool",
          "name": "_isDebtIncrease",
          "type": "bool"
        },
        {
          "internalType": "address",
          "name": "_upperHint",
          "type": "address"
        },
        {
          "internalType": "address",
          "name": "_lowerHint",
          "type": "address"
        }
      ],
      "name": "callInternalAdjustLoan",
      "outputs": [],
      "stateMutability": "nonpayable",
      "type": "function"
    },
    {
      "inputs": [
        {
          "internalType": "address",
          "name": "_user",
          "type": "address"
        }
      ],
      "name": "claimRedeemedCollateral",
      "outputs": [],
      "stateMutability": "nonpayable",
      "type": "function"
    },
    {
      "inputs": [],
      "name": "closeTrove",
      "outputs": [],
      "stateMutability": "nonpayable",
      "type": "function"
    },
    {
      "inputs": [],
      "name": "defaultPool",
      "outputs": [
        {
          "internalType": "contract IDefaultPool",
          "name": "",
          "type": "address"
        }
      ],
      "stateMutability": "view",
      "type": "function"
    },
    {
      "inputs": [
        {
          "internalType": "uint256",
          "name": "_debt",
          "type": "uint256"
        }
      ],
      "name": "getCompositeDebt",
      "outputs": [
        {
          "internalType": "uint256",
          "name": "",
          "type": "uint256"
        }
      ],
      "stateMutability": "pure",
      "type": "function"
    },
    {
      "inputs": [],
      "name": "getEntireSystemColl",
      "outputs": [
        {
          "internalType": "uint256",
          "name": "entireSystemColl",
          "type": "uint256"
        }
      ],
      "stateMutability": "view",
      "type": "function"
    },
    {
      "inputs": [],
      "name": "getEntireSystemDebt",
      "outputs": [
        {
          "internalType": "uint256",
          "name": "entireSystemDebt",
          "type": "uint256"
        }
      ],
      "stateMutability": "view",
      "type": "function"
    },
    {
      "inputs": [
        {
          "internalType": "uint256",
          "name": "_coll",
          "type": "uint256"
        },
        {
          "internalType": "uint256",
          "name": "_debt",
          "type": "uint256"
        },
        {
          "internalType": "uint256",
          "name": "_collChange",
          "type": "uint256"
        },
        {
          "internalType": "bool",
          "name": "isCollIncrease",
          "type": "bool"
        },
        {
          "internalType": "uint256",
          "name": "_debtChange",
          "type": "uint256"
        },
        {
          "internalType": "bool",
          "name": "isDebtIncrease",
          "type": "bool"
        },
        {
          "internalType": "uint256",
          "name": "_price",
          "type": "uint256"
        }
      ],
      "name": "getNewICRFromTroveChange",
      "outputs": [
        {
          "internalType": "uint256",
          "name": "",
          "type": "uint256"
        }
      ],
      "stateMutability": "pure",
      "type": "function"
    },
    {
      "inputs": [
        {
          "internalType": "uint256",
          "name": "_collChange",
          "type": "uint256"
        },
        {
          "internalType": "bool",
          "name": "isCollIncrease",
          "type": "bool"
        },
        {
          "internalType": "uint256",
          "name": "_debtChange",
          "type": "uint256"
        },
        {
          "internalType": "bool",
          "name": "isDebtIncrease",
          "type": "bool"
        },
        {
          "internalType": "uint256",
          "name": "_price",
          "type": "uint256"
        }
      ],
      "name": "getNewTCRFromTroveChange",
      "outputs": [
        {
          "internalType": "uint256",
          "name": "",
          "type": "uint256"
        }
      ],
      "stateMutability": "view",
      "type": "function"
    },
    {
      "inputs": [
        {
          "internalType": "uint256",
          "name": "_coll",
          "type": "uint256"
        },
        {
          "internalType": "uint256",
          "name": "_price",
          "type": "uint256"
        }
      ],
      "name": "getUSDValue",
      "outputs": [
        {
          "internalType": "uint256",
          "name": "",
          "type": "uint256"
        }
      ],
      "stateMutability": "pure",
      "type": "function"
    },
    {
      "inputs": [],
      "name": "isOwner",
      "outputs": [
        {
          "internalType": "bool",
          "name": "",
          "type": "bool"
        }
      ],
      "stateMutability": "view",
      "type": "function"
    },
    {
      "inputs": [],
      "name": "lqtyStaking",
      "outputs": [
        {
          "internalType": "contract ILQTYStaking",
          "name": "",
          "type": "address"
        }
      ],
      "stateMutability": "view",
      "type": "function"
    },
    {
      "inputs": [],
      "name": "lqtyStakingAddress",
      "outputs": [
        {
          "internalType": "address",
          "name": "",
          "type": "address"
        }
      ],
      "stateMutability": "view",
      "type": "function"
    },
    {
      "inputs": [],
      "name": "lusdToken",
      "outputs": [
        {
          "internalType": "contract ILUSDToken",
          "name": "",
          "type": "address"
        }
      ],
      "stateMutability": "view",
      "type": "function"
    },
    {
      "inputs": [
        {
          "internalType": "address",
          "name": "_borrower",
          "type": "address"
        },
        {
          "internalType": "address",
          "name": "_upperHint",
          "type": "address"
        },
        {
          "internalType": "address",
          "name": "_lowerHint",
          "type": "address"
        }
      ],
      "name": "moveETHGainToTrove",
      "outputs": [],
      "stateMutability": "payable",
      "type": "function"
    },
    {
      "inputs": [
        {
          "internalType": "uint256",
          "name": "_maxFee",
          "type": "uint256"
        },
        {
          "internalType": "uint256",
          "name": "_LUSDAmount",
          "type": "uint256"
        },
        {
          "internalType": "address",
          "name": "_upperHint",
          "type": "address"
        },
        {
          "internalType": "address",
          "name": "_lowerHint",
          "type": "address"
        }
      ],
      "name": "openTrove",
      "outputs": [],
      "stateMutability": "payable",
      "type": "function"
    },
    {
      "inputs": [],
      "name": "owner",
      "outputs": [
        {
          "internalType": "address",
          "name": "",
          "type": "address"
        }
      ],
      "stateMutability": "view",
      "type": "function"
    },
    {
      "inputs": [],
      "name": "priceFeed",
      "outputs": [
        {
          "internalType": "contract IPriceFeed",
          "name": "",
          "type": "address"
        }
      ],
      "stateMutability": "view",
      "type": "function"
    },
    {
      "inputs": [
        {
          "internalType": "uint256",
          "name": "_LUSDAmount",
          "type": "uint256"
        },
        {
          "internalType": "address",
          "name": "_upperHint",
          "type": "address"
        },
        {
          "internalType": "address",
          "name": "_lowerHint",
          "type": "address"
        }
      ],
      "name": "repayLUSD",
      "outputs": [],
      "stateMutability": "nonpayable",
      "type": "function"
    },
    {
      "inputs": [
        {
          "internalType": "address",
          "name": "_troveManagerAddress",
          "type": "address"
        },
        {
          "internalType": "address",
          "name": "_activePoolAddress",
          "type": "address"
        },
        {
          "internalType": "address",
          "name": "_defaultPoolAddress",
          "type": "address"
        },
        {
          "internalType": "address",
          "name": "_stabilityPoolAddress",
          "type": "address"
        },
        {
          "internalType": "address",
          "name": "_gasPoolAddress",
          "type": "address"
        },
        {
          "internalType": "address",
          "name": "_collSurplusPoolAddress",
          "type": "address"
        },
        {
          "internalType": "address",
          "name": "_priceFeedAddress",
          "type": "address"
        },
        {
          "internalType": "address",
          "name": "_sortedTrovesAddress",
          "type": "address"
        },
        {
          "internalType": "address",
          "name": "_lusdTokenAddress",
          "type": "address"
        },
        {
          "internalType": "address",
          "name": "_lqtyStakingAddress",
          "type": "address"
        }
      ],
      "name": "setAddresses",
      "outputs": [],
      "stateMutability": "nonpayable",
      "type": "function"
    },
    {
      "inputs": [],
      "name": "sortedTroves",
      "outputs": [
        {
          "internalType": "contract ISortedTroves",
          "name": "",
          "type": "address"
        }
      ],
      "stateMutability": "view",
      "type": "function"
    },
    {
      "inputs": [],
      "name": "troveManager",
      "outputs": [
        {
          "internalType": "contract ITroveManager",
          "name": "",
          "type": "address"
        }
      ],
      "stateMutability": "view",
      "type": "function"
    },
    {
      "inputs": [
        {
          "internalType": "uint256",
          "name": "_collWithdrawal",
          "type": "uint256"
        },
        {
          "internalType": "address",
          "name": "_upperHint",
          "type": "address"
        },
        {
          "internalType": "address",
          "name": "_lowerHint",
          "type": "address"
        }
      ],
      "name": "withdrawColl",
      "outputs": [],
      "stateMutability": "nonpayable",
      "type": "function"
    },
    {
      "inputs": [
        {
          "internalType": "uint256",
          "name": "_maxFee",
          "type": "uint256"
        },
        {
          "internalType": "uint256",
          "name": "_LUSDAmount",
          "type": "uint256"
        },
        {
          "internalType": "address",
          "name": "_upperHint",
          "type": "address"
        },
        {
          "internalType": "address",
          "name": "_lowerHint",
          "type": "address"
        }
      ],
      "name": "withdrawLUSD",
      "outputs": [],
      "stateMutability": "nonpayable",
      "type": "function"
    },
    {
      "stateMutability": "payable",
      "type": "receive"
    }
  ],
  "bytecode": "0x608060405234801561001057600080fd5b50600380546001600160a01b031916339081179091556040516000907f8be0079c531659141344cd1fd0a4f28419497f9722a3daafe3b4186f6b6457e0908290a36135bf806100606000396000f3fe6080604052600436106101bd5760003560e01c8063761ab22c116100ed5780638f32d59b116100905780638f32d59b14610617578063a20baee6146104ef578063a3a6401714610640578063ae91875414610655578063b83f91a21461066a578063c6a6cf201461067f578063ea9638bf146106c7578063f24344e6146106ff578063f6286f8314610714576101c4565b8063761ab22c14610519578063794e57241461052e578063795d26c3146105435780637f7dde4a14610558578063860665b31461056d57806387eb305d146105a7578063887105d3146105ed5780638da5cb5b14610602576101c4565b80634ff81443116101605780634ff814431461034157806351584ca41461036b5780635530273c146103bd5780635733d58f146103fe57806368647db1146104135780636c37a4af146104415780636f30d212146104bf57806372fe25aa146104ef578063741bef1a14610504576101c4565b806304491fa7146101c95780630e704d501461020c5780631184e5f8146102215780632cdcd722146102685780632e86bbd8146102bf5780633cc74225146102e65780633d83908a146103175780634870dd9a1461032c576101c4565b366101c457005b600080fd5b3480156101d557600080fd5b5061020a600480360360608110156101ec57600080fd5b508035906001600160a01b0360208201358116916040013516610747565b005b34801561021857600080fd5b5061020a61075e565b34801561022d57600080fd5b5061020a6004803603608081101561024457600080fd5b508035906020810135906001600160a01b0360408201358116916060013516610abc565b34801561027457600080fd5b5061020a600480360360c081101561028b57600080fd5b506001600160a01b0381358116916020810135916040820135916060810135151591608082013581169160a0013516610ad3565b3480156102cb57600080fd5b506102d4610ae3565b60408051918252519081900360200190f35b3480156102f257600080fd5b506102fb610aef565b604080516001600160a01b039092168252519081900360200190f35b34801561032357600080fd5b506102fb610afe565b34801561033857600080fd5b506102d4610b0d565b34801561034d57600080fd5b506102d46004803603602081101561036457600080fd5b5035610b12565b34801561037757600080fd5b506102d4600480360360e081101561038e57600080fd5b50803590602081013590604081013590606081013515159060808101359060a081013515159060c00135610b23565b3480156103c957600080fd5b5061020a600480360360608110156103e057600080fd5b508035906001600160a01b0360208201358116916040013516610b40565b34801561040a57600080fd5b506102d4610b51565b61020a6004803603604081101561042957600080fd5b506001600160a01b0381358116916020013516610b5d565b34801561044d57600080fd5b5061020a600480360361014081101561046557600080fd5b506001600160a01b038135811691602081013582169160408201358116916060810135821691608082013581169160a081013582169160c082013581169160e0810135821691610100820135811691610120013516610b73565b3480156104cb57600080fd5b506102d4600480360360408110156104e257600080fd5b5080359060200135610f60565b3480156104fb57600080fd5b506102d4610f73565b34801561051057600080fd5b506102fb610f7f565b34801561052557600080fd5b506102fb610f8e565b34801561053a57600080fd5b506102d4610f9d565b34801561054f57600080fd5b506102d4610fa9565b34801561056457600080fd5b506102fb6110aa565b61020a6004803603608081101561058357600080fd5b508035906020810135906001600160a01b03604082013581169160600135166110b9565b3480156105b357600080fd5b506102d4600480360360a08110156105ca57600080fd5b5080359060208101351515906040810135906060810135151590608001356117f2565b3480156105f957600080fd5b506102d461180b565b34801561060e57600080fd5b506102fb6118c7565b34801561062357600080fd5b5061062c6118d6565b604080519115158252519081900360200190f35b34801561064c57600080fd5b506102fb6118e7565b34801561066157600080fd5b506102fb6118f6565b34801561067657600080fd5b506102fb611905565b61020a600480360360c081101561069557600080fd5b5080359060208101359060408101359060608101351515906001600160a01b03608082013581169160a0013516611914565b61020a600480360360608110156106dd57600080fd5b506001600160a01b038135811691602081013582169160409091013516611923565b34801561070b57600080fd5b506102d461193d565b34801561072057600080fd5b5061020a6004803603602081101561073757600080fd5b50356001600160a01b0316611949565b610759336000856000868660006119b2565b505050565b61076733612288565b61076f612348565b6004805460408051630b07655760e01b81523393810193909352516001600160a01b0390911691630b07655791602480830192600092919082900301818387803b1580156107bc57600080fd5b505af11580156107d0573d6000803e3d6000fd5b505060048054604080516309019aaf60e31b8152339381019390935251600094506001600160a01b03909116925063480cd57891602480820192602092909190829003018186803b15801561082457600080fd5b505afa158015610838573d6000803e3d6000fd5b505050506040513d602081101561084e57600080fd5b5051600480546040805163d66a255360e01b81523393810193909352519293506000926001600160a01b039091169163d66a2553916024808301926020929190829003018186803b1580156108a257600080fd5b505afa1580156108b6573d6000803e3d6000fd5b505050506040513d60208110156108cc57600080fd5b505190506108f1336108ec83678ac7230489e8000063ffffffff61238e16565b6123d0565b6004805460408051631fc5750960e31b81523393810193909352516001600160a01b039091169163fe2ba84891602480830192600092919082900301818387803b15801561093e57600080fd5b505af1158015610952573d6000803e3d6000fd5b505060048054604080516365e89c5760e11b81523393810193909352516001600160a01b03909116935063cbd138ae9250602480830192600092919082900301818387803b1580156109a357600080fd5b505af11580156109b7573d6000803e3d6000fd5b50505050336001600160a01b03166000805160206133c183398151915260008060006001604051808581526020018481526020018381526020018260068111156109fd57fe5b60ff16815260200194505050505060405180910390a2610a3433610a2f83678ac7230489e8000063ffffffff61238e16565b612489565b600654610a52906001600160a01b0316678ac7230489e80000612489565b60008054604080516364a197f360e01b81523360048201526024810186905290516001600160a01b03909216926364a197f39260448084019382900301818387803b158015610aa057600080fd5b505af1158015610ab4573d6000803e3d6000fd5b505050505050565b610acd33600085600186868a6119b2565b50505050565b610ab486868686868660006119b2565b678ac7230489e8000081565b6001546001600160a01b031681565b6004546001600160a01b031681565b60c881565b6000610b1d8261253e565b92915050565b6000610b3488888888888888612558565b98975050505050505050565b6107593384600080868660006119b2565b6714d1120d7b16000081565b610b6f336000806000868660006119b2565b5050565b610b7b6118d6565b610bcc576040805162461bcd60e51b815260206004820181905260248201527f4f776e61626c653a2063616c6c6572206973206e6f7420746865206f776e6572604482015290519081900360640190fd5b610bd58a61258b565b610bde8961258b565b610be78861258b565b610bf08761258b565b610bf98661258b565b610c028561258b565b610c0b8461258b565b610c148361258b565b610c1d8261258b565b610c268161258b565b600480546001600160a01b03199081166001600160a01b038d81169182179093556000805483168d85161790556001805483168c85161790556005805483168b85161790556006805483168a8516179055600780548316898516179055600280548316888516179055600b80548316878516179055600a80548316868516179055600980548316938516938417905560088054909216909217905560408051918252517f143219c9e69b09e07e095fcc889b43d8f46ca892bba65f08dc3a0050869a5678916020908290030190a1604080516001600160a01b038b16815290517f78f058b189175430c48dc02699e3a0031ea4ff781536dc2fab847de4babdd8829181900360200190a1604080516001600160a01b038a16815290517f5ee0cae2f063ed938bb55046f6a932fb6ae792bf43624806bb90abe68a50be9b9181900360200190a1604080516001600160a01b038916815290517f82966d27eea39b038ee0fa30cd16532bb24f6e65d31cb58fb227aa5766cdcc7f9181900360200190a1604080516001600160a01b038816815290517fcfb07d791fcafc032b35837b50eb84b74df518cf4cc287e8084f47630fa70fa09181900360200190a1604080516001600160a01b038716815290517fe67f36a6e961157d6eff83b91f3af5a62131ceb6f04954ef74f51c1c05e7f88d9181900360200190a1604080516001600160a01b038416815290517f227eec0ec317af6ab1a9587ffa1c84332522eb4c583a908f89babc05f8f339bd9181900360200190a1604080516001600160a01b038616815290517f8c537274438aa850a330284665d81a85dd38267d09e4050d416bfc94142db2649181900360200190a1604080516001600160a01b038516815290517f65f4cf077bc01e4742eb5ad98326f6e95b63548ea24b17f8d5e823111fe788009181900360200190a1604080516001600160a01b038416815290517f227eec0ec317af6ab1a9587ffa1c84332522eb4c583a908f89babc05f8f339bd9181900360200190a1604080516001600160a01b038316815290517f756ebc192164c295bba134b5aacd72cc7aff8098a670d1f0a5f6b3a0b4ce67079181900360200190a1610f5461263a565b50505050505050505050565b6000610f6c8383612684565b9392505050565b670de0b6b3a764000081565b6002546001600160a01b031681565b6009546001600160a01b031681565b670f43fc2c04ee000081565b6000805460408051632f5a97e560e11b8152905183926001600160a01b031691635eb52fca916004808301926020929190829003018186803b158015610fee57600080fd5b505afa158015611002573d6000803e3d6000fd5b505050506040513d602081101561101857600080fd5b505160015460408051632f5a97e560e11b815290519293506000926001600160a01b0390921691635eb52fca91600480820192602092909190829003018186803b15801561106557600080fd5b505afa158015611079573d6000803e3d6000fd5b505050506040513d602081101561108f57600080fd5b505190506110a3828263ffffffff6126b716565b9250505090565b6000546001600160a01b031681565b60025460408051634c6afee560e11b815290516000926001600160a01b0316916398d5fdca916004808301926020929190829003018186803b1580156110fe57600080fd5b505afa158015611112573d6000803e3d6000fd5b505050506040513d602081101561112857600080fd5b5051905061113533612711565b6004805460408051632edd262560e11b815290516001600160a01b0390921692635dba4c4a92828201926000929082900301818387803b15801561117857600080fd5b505af115801561118c573d6000803e3d6000fd5b50506004805460408051630631203b60e41b815292830189905251600094506001600160a01b03909116925063631203b091602480820192602092909190829003018186803b1580156111de57600080fd5b505afa1580156111f2573d6000803e3d6000fd5b505050506040513d602081101561120857600080fd5b50519050600061121e868363ffffffff6126b716565b9050818710158061122d575086155b6112685760405162461bcd60e51b815260040180806020018281038252602f8152602001806132b4602f913960400191505060405180910390fd5b60006112738261253e565b90506000811161127f57fe5b600061128c3483876127e8565b9050600061129a348461281a565b90506112a461284f565b156112b7576112b28261286a565b6112cf565b6112c0826128b4565b6112cf3460018560018a6128fb565b6004805460408051635d6b480f60e01b8152339381019390935260016024840152516001600160a01b0390911691635d6b480f91604480830192600092919082900301818387803b15801561132357600080fd5b505af1158015611337573d6000803e3d6000fd5b505060048054604080516372423c1760e01b81523393810193909352346024840152516001600160a01b0390911693506372423c17925060448083019260209291908290030181600087803b15801561138f57600080fd5b505af11580156113a3573d6000803e3d6000fd5b505050506040513d60208110156113b957600080fd5b50506004805460408051639976cf4560e01b8152339381019390935260248301869052516001600160a01b0390911691639976cf459160448083019260209291908290030181600087803b15801561141057600080fd5b505af1158015611424573d6000803e3d6000fd5b505050506040513d602081101561143a57600080fd5b505060048054604080516382fe3eb960e01b81523393810193909352516001600160a01b03909116916382fe3eb991602480830192600092919082900301818387803b15801561148957600080fd5b505af115801561149d573d6000803e3d6000fd5b50506004805460408051630c7940bd60e11b8152339381019390935251600094506001600160a01b0390911692506318f2817a9160248082019260209290919082900301818787803b1580156114f257600080fd5b505af1158015611506573d6000803e3d6000fd5b505050506040513d602081101561151c57600080fd5b5051600b54604080516346f7cf8760e01b8152336004820152602481018690526001600160a01b038d811660448301528c8116606483015291519394509116916346f7cf879160848082019260009290919082900301818387803b15801561158357600080fd5b505af1158015611597573d6000803e3d6000fd5b505060048054604080516315d549f160e01b8152339381019390935251600094506001600160a01b0390911692506315d549f19160248082019260209290919082900301818787803b1580156115ec57600080fd5b505af1158015611600573d6000803e3d6000fd5b505050506040513d602081101561161657600080fd5b505160408051828152905191925033917f59cfd0cd754bc5748b6770e94a4ffa5f678d885cb899dcfadc5734edb97c67ab9181900360200190a2600a54600954604080516340c10f1960e01b81526001600160a01b039283166004820152602481018b9052905191909216916340c10f1991604480830192600092919082900301818387803b1580156116a857600080fd5b505af11580156116bc573d6000803e3d6000fd5b505060085460408051634677ffb360e01b8152600481018c905290516001600160a01b039092169350634677ffb3925060248082019260009290919082900301818387803b15801561170d57600080fd5b505af1158015611721573d6000803e3d6000fd5b5050505061172e34612953565b611739338c886129b6565b600654611758906001600160a01b0316678ac7230489e80000806129b6565b336001600160a01b03166000805160206133c183398151915286348560006040518085815260200184815260200183815260200182600681111561179857fe5b60ff16815260200194505050505060405180910390a260408051888152905133917fa55c5f48fd29482ad55f4b59bf070cd1ac1a7132a31f7a136ebe8877ae37e1ff919081900360200190a2505050505050505050505050565b60006118018686868686612a88565b9695505050505050565b6000805460408051630a7b61df60e11b8152905183926001600160a01b0316916314f6c3be916004808301926020929190829003018186803b15801561185057600080fd5b505afa158015611864573d6000803e3d6000fd5b505050506040513d602081101561187a57600080fd5b505160015460408051630a7b61df60e11b815290519293506000926001600160a01b03909216916314f6c3be91600480820192602092909190829003018186803b15801561106557600080fd5b6003546001600160a01b031690565b6003546001600160a01b0316331490565b6008546001600160a01b031681565b600b546001600160a01b031681565b600a546001600160a01b031681565b610ab43386868686868c6119b2565b61192b612b13565b610759836000806000868660006119b2565b6729a2241af62c000081565b6007546040805163b32beb5b60e01b81526001600160a01b0384811660048301529151919092169163b32beb5b91602480830192600092919082900301818387803b15801561199757600080fd5b505af11580156119ab573d6000803e3d6000fd5b5050505050565b3415806119bd575085155b6119f85760405162461bcd60e51b815260040180806020018281038252603081526020018061321b6030913960400191505060405180910390fd5b600086151580611a055750845b9050336001600160a01b0389161480611a1c575080155b611a575760405162461bcd60e51b81526004018080602001828103825260308152602001806132846030913960400191505060405180910390fd5b34151580611a6457508615155b80611a6e57508515155b611aa95760405162461bcd60e51b81526004018080602001828103825260468152602001806132e36046913960600191505060405180910390fd5b611ab288612288565b611aba613190565b600260009054906101000a90046001600160a01b03166001600160a01b03166398d5fdca6040518163ffffffff1660e01b815260040160206040518083038186803b158015611b0857600080fd5b505afa158015611b1c573d6000803e3d6000fd5b505050506040513d6020811015611b3257600080fd5b505181526004805460408051630b07655760e01b81526001600160a01b038d81169482019490945290519290911691630b0765579160248082019260009290919082900301818387803b158015611b8857600080fd5b505af1158015611b9c573d6000803e3d6000fd5b50505050611baa3489612b5c565b151560608301526020820152604081018790528515611e255760008711611c025760405162461bcd60e51b81526004018080602001828103825260378152602001806134606037913960400191505060405180910390fd5b6004805460408051632edd262560e11b815290516001600160a01b0390921692635dba4c4a92828201926000929082900301818387803b158015611c4557600080fd5b505af1158015611c59573d6000803e3d6000fd5b50506004805460408051630631203b60e41b81529283018c9052516001600160a01b03909116935063631203b092506024808301926020929190829003018186803b158015611ca757600080fd5b505afa158015611cbb573d6000803e3d6000fd5b505050506040513d6020811015611cd157600080fd5b5051610100820181905283101580611ce7575082155b611d225760405162461bcd60e51b815260040180806020018281038252602f8152602001806132b4602f913960400191505060405180910390fd5b6101008101516040820151611d3c9163ffffffff6126b716565b6040808301919091526008546101008301518251634677ffb360e01b8152600481019190915291516001600160a01b0390911691634677ffb391602480830192600092919082900301818387803b158015611d9657600080fd5b505af1158015611daa573d6000803e3d6000fd5b5050600a54600954610100850151604080516340c10f1960e01b81526001600160a01b0393841660048201526024810192909252519190921693506340c10f199250604480830192600092919082900301818387803b158015611e0c57600080fd5b505af1158015611e20573d6000803e3d6000fd5b505050505b600480546040805163d66a255360e01b81526001600160a01b038d8116948201949094529051929091169163d66a255391602480820192602092909190829003018186803b158015611e7657600080fd5b505afa158015611e8a573d6000803e3d6000fd5b505050506040513d6020811015611ea057600080fd5b5051608082015260048054604080516309019aaf60e31b81526001600160a01b038d8116948201949094529051929091169163480cd57891602480820192602092909190829003018186803b158015611ef857600080fd5b505afa158015611f0c573d6000803e3d6000fd5b505050506040513d6020811015611f2257600080fd5b505160a0820181905260808201518251611f3d9291906127e8565b8160c0018181525050611f6d8160a0015182608001518360200151846060015185604001518b8760000151612558565b60e0820152811561204657611f8061284f565b611ff2576000611fa38260200151836060015184604001518a8660000151612a88565b90506714d1120d7b160000811015611fec5760405162461bcd60e51b81526004018080602001828103825260278152602001806131f46027913960400191505060405180910390fd5b50612039565b8060c001518160e0015110156120395760405162461bcd60e51b815260040180806020018281038252603e81526020018061354c603e913960400191505060405180910390fd5b6120468160e001516128b4565b851580156120545750600087115b156120795761206b81608001518260400151612b7b565b6120798982604001516123d0565b612092898260200151836060015184604001518a612bd1565b6101208301526101408201526004805460408051630c7940bd60e11b81526001600160a01b038d811694820194909452905192909116916318f2817a916024808201926020929091908290030181600087803b1580156120f157600080fd5b505af1158015612105573d6000803e3d6000fd5b505050506040513d602081101561211b57600080fd5b505161016082015260a0810151608082015160208301516060840151604085015160009461214f949093909290918c612e18565b600b546040805163015f109360e51b81526001600160a01b038e81166004830152602482018590528a8116604483015289811660648301529151939450911691632be212609160848082019260009290919082900301818387803b1580156121b657600080fd5b505af11580156121ca573d6000803e3d6000fd5b50505050896001600160a01b03166000805160206133c183398151915283610120015184610140015185610160015160066040518085815260200184815260200183815260200182600681111561221d57fe5b60ff16815260200194505050505060405180910390a2610100820151604080519182525133917fa55c5f48fd29482ad55f4b59bf070cd1ac1a7132a31f7a136ebe8877ae37e1ff919081900360200190a2610f5433836020015184606001518b8b8760400151612e49565b60048054604080516321e3780160e01b81526001600160a01b03858116948201949094529051600093909216916321e3780191602480820192602092909190829003018186803b1580156122db57600080fd5b505afa1580156122ef573d6000803e3d6000fd5b505050506040513d602081101561230557600080fd5b5051905060018114610b6f5760405162461bcd60e51b815260040180806020018281038252602e815260200180613393602e913960400191505060405180910390fd5b61235061284f565b1561238c5760405162461bcd60e51b815260040180806020018281038252603981526020018061324b6039913960400191505060405180910390fd5b565b6000610f6c83836040518060400160405280601e81526020017f536166654d6174683a207375627472616374696f6e206f766572666c6f770000815250612ee3565b600a54604080516370a0823160e01b81526001600160a01b0385811660048301529151849392909216916370a0823191602480820192602092909190829003018186803b15801561242057600080fd5b505afa158015612434573d6000803e3d6000fd5b505050506040513d602081101561244a57600080fd5b50511015610b6f5760405162461bcd60e51b81526004018080602001828103825260408152602001806133e16040913960400191505060405180910390fd5b600080546040805163071b32b560e31b81526004810185905290516001600160a01b03909216926338d995a89260248084019382900301818387803b1580156124d157600080fd5b505af11580156124e5573d6000803e3d6000fd5b5050600a5460408051632770a7eb60e21b81526001600160a01b038781166004830152602482018790529151919092169350639dc29fac9250604480830192600092919082900301818387803b158015610aa057600080fd5b6000610b1d82678ac7230489e8000063ffffffff6126b716565b600080600061256b8a8a8a8a8a8a612f7a565b91509150600061257c8383876127e8565b9b9a5050505050505050505050565b6001600160a01b0381166125e6576040805162461bcd60e51b815260206004820152601e60248201527f4163636f756e742063616e6e6f74206265207a65726f20616464726573730000604482015290519081900360640190fd5b803b80610b6f576040805162461bcd60e51b815260206004820181905260248201527f4163636f756e7420636f64652073697a652063616e6e6f74206265207a65726f604482015290519081900360640190fd5b6003546040516000916001600160a01b0316907f8be0079c531659141344cd1fd0a4f28419497f9722a3daafe3b4186f6b6457e0908390a3600380546001600160a01b0319169055565b6000806126af670de0b6b3a76400006126a3858763ffffffff612fe616565b9063ffffffff61303f16565b949350505050565b600082820183811015610f6c576040805162461bcd60e51b815260206004820152601b60248201527f536166654d6174683a206164646974696f6e206f766572666c6f770000000000604482015290519081900360640190fd5b60048054604080516321e3780160e01b81526001600160a01b03858116948201949094529051600093909216916321e3780191602480820192602092909190829003018186803b15801561276457600080fd5b505afa158015612778573d6000803e3d6000fd5b505050506040513d602081101561278e57600080fd5b505190506001811415610b6f576040805162461bcd60e51b815260206004820152601c60248201527f426f72726f7765724f70733a2054726f76652069732061637469766500000000604482015290519081900360640190fd5b6000821561280f576000612806846126a3878663ffffffff612fe616565b9150610f6c9050565b506000199392505050565b600081156128465761283f826126a38568056bc75e2d6310000063ffffffff612fe616565b9050610b1d565b50600019610b1d565b60008061285a613081565b6714d1120d7b1600001191505090565b6729a2241af62c00008110156128b15760405162461bcd60e51b815260040180806020018281038252603f815260200180613421603f913960400191505060405180910390fd5b50565b670f43fc2c04ee00008110156128b15760405162461bcd60e51b81526004018080602001828103825260498152602001806134976049913960600191505060405180910390fd5b600061290a8686868686612a88565b90506714d1120d7b160000811015610ab45760405162461bcd60e51b815260040180806020018281038252604981526020018061334a6049913960600191505060405180910390fd5b600080546040516001600160a01b039091169083908381818185875af1925050503d80600081146129a0576040519150601f19603f3d011682016040523d82523d6000602084013e6129a5565b606091505b5090915050600181151514610b6f57fe5b60008054604080516367dc994d60e11b81526004810185905290516001600160a01b039092169263cfb9329a9260248084019382900301818387803b1580156129fe57600080fd5b505af1158015612a12573d6000803e3d6000fd5b5050600a54604080516340c10f1960e01b81526001600160a01b0388811660048301526024820188905291519190921693506340c10f199250604480830192600092919082900301818387803b158015612a6b57600080fd5b505af1158015612a7f573d6000803e3d6000fd5b50505050505050565b600080612a9361180b565b90506000612a9f610fa9565b905086612abb57612ab6828963ffffffff61238e16565b612acb565b612acb828963ffffffff6126b716565b915084612ae757612ae2818763ffffffff61238e16565b612af7565b612af7818763ffffffff6126b716565b90506000612b068383876127e8565b9998505050505050505050565b6005546001600160a01b0316331461238c5760405162461bcd60e51b81526004018080602001828103825260298152602001806135236029913960400191505060405180910390fd5b6000808315612b7057508290506001612b74565b8291505b9250929050565b612b9382678ac7230489e8000063ffffffff61238e16565b811115610b6f5760405162461bcd60e51b81526004018080602001828103825260438152602001806134e06043913960600191505060405180910390fd5b600080600085612c6657600480546040805163d3d6f84360e01b81526001600160a01b038c811694820194909452602481018b90529051929091169163d3d6f843916044808201926020929091908290030181600087803b158015612c3557600080fd5b505af1158015612c49573d6000803e3d6000fd5b505050506040513d6020811015612c5f57600080fd5b5051612ced565b60048054604080516372423c1760e01b81526001600160a01b038c811694820194909452602481018b9052905192909116916372423c17916044808201926020929091908290030181600087803b158015612cc057600080fd5b505af1158015612cd4573d6000803e3d6000fd5b505050506040513d6020811015612cea57600080fd5b50515b9050600084612d81576004805460408051630930874960e11b81526001600160a01b038d811694820194909452602481018a9052905192909116916312610e92916044808201926020929091908290030181600087803b158015612d5057600080fd5b505af1158015612d64573d6000803e3d6000fd5b505050506040513d6020811015612d7a57600080fd5b5051612e08565b6004805460408051639976cf4560e01b81526001600160a01b038d811694820194909452602481018a905290519290911691639976cf45916044808201926020929091908290030181600087803b158015612ddb57600080fd5b505af1158015612def573d6000803e3d6000fd5b505050506040513d6020811015612e0557600080fd5b50515b9199919850909650505050505050565b6000806000612e2b898989898989612f7a565b915091506000612e3b838361281a565b9a9950505050505050505050565b8115612e5f57612e5a8684836129b6565b612e69565b612e698684612489565b8315612e7d57612e7885612953565b610ab4565b60008054604080516364a197f360e01b81526001600160a01b038a81166004830152602482018a9052915191909216926364a197f3926044808201939182900301818387803b158015612ecf57600080fd5b505af1158015610f54573d6000803e3d6000fd5b60008184841115612f725760405162461bcd60e51b81526004018080602001828103825283818151815260200191508051906020019080838360005b83811015612f37578181015183820152602001612f1f565b50505050905090810190601f168015612f645780820380516001836020036101000a031916815260200191505b509250505060405180910390fd5b505050900390565b600080878786612f9957612f948a8963ffffffff61238e16565b612fa9565b612fa98a8963ffffffff6126b716565b915084612fc557612fc0898763ffffffff61238e16565b612fd5565b612fd5898763ffffffff6126b716565b919a91995090975050505050505050565b600082612ff557506000610b1d565b8282028284828161300257fe5b0414610f6c5760405162461bcd60e51b81526004018080602001828103825260218152602001806133296021913960400191505060405180910390fd5b6000610f6c83836040518060400160405280601a81526020017f536166654d6174683a206469766973696f6e206279207a65726f00000000000081525061312b565b600080600260009054906101000a90046001600160a01b03166001600160a01b03166398d5fdca6040518163ffffffff1660e01b815260040160206040518083038186803b1580156130d257600080fd5b505afa1580156130e6573d6000803e3d6000fd5b505050506040513d60208110156130fc57600080fd5b50519050600061310a61180b565b90506000613116610fa9565b90506131238282856127e8565b935050505090565b6000818361317a5760405162461bcd60e51b8152602060048201818152835160248401528351909283926044909101919085019080838360008315612f37578181015183820152602001612f1f565b50600083858161318657fe5b0495945050505050565b6040518061018001604052806000815260200160008152602001600081526020016000151581526020016000815260200160008152602001600081526020016000815260200160008152602001600081526020016000815260200160008152509056fe426f72726f7765724f70733a2043616e6e6f74206272696e67205443522062656c6f7720434352426f72726f7765724f7065726174696f6e733a2043616e6e6f7420776974686472617720616e642061646420636f6c6c426f72726f7765724f70733a204f7065726174696f6e206e6f74207065726d697474656420647572696e67205265636f76657279204d6f6465426f72726f7765724f70733a2055736572206d7573742062652073656e64657220666f72207769746864726177616c73426f72726f7765724f70733a2069737375616e6365206665652065786365656465642070726f7669646564206d6178426f72726f7765724f70733a205468657265206d75737420626520656974686572206120636f6c6c61746572616c206368616e6765206f7220612064656274206368616e6765536166654d6174683a206d756c7469706c69636174696f6e206f766572666c6f77426f72726f7765724f70733a20416e206f7065726174696f6e207468617420776f756c6420726573756c7420696e20544352203c20434352206973206e6f74207065726d6974746564426f72726f7765724f70733a2054726f766520646f6573206e6f74206578697374206f7220697320636c6f736564c3770d654ed33aeea6bf11ac8ef05d02a6a04ed4686dd2f624d853bbec43cc8b426f72726f7765724f70733a2043616c6c657220646f65736e74206861766520656e6f756768204c55534420746f20636c6f73652074686569722074726f7665426f72726f7765724f70733a20496e205265636f76657279204d6f6465206e65772074726f766573206d757374206861766520494352203e3d20525f4d4352426f72726f7765724f70733a204465627420696e63726561736520726571756972657320706f73697469766520646562744368616e6765426f72726f7765724f70733a20416e206f7065726174696f6e207468617420776f756c6420726573756c7420696e20494352203c204d4352206973206e6f74207065726d6974746564426f72726f7765724f70733a20416d6f756e7420726570616964206d757374206e6f74206265206c6172676572207468616e207468652054726f766527732064656274426f72726f7765724f70733a2043616c6c6572206973206e6f742053746162696c69747920506f6f6c426f72726f7765724f70733a2043616e6e6f7420646563726561736520796f75722054726f766527732049435220696e205265636f76657279204d6f6465a2646970667358221220dc55e66c5b2d0b6d638bf142609decb2d3c21f1b0ffca4f25c1612afaa4c491c64736f6c634300060b0033",
  "linkReferences": {},
  "deployedLinkReferences": {}
}