{
  "_format": "hh-sol-artifact-1",
  "contractName": "BorrowerOperations",
  "sourceName": "contracts/BorrowerOperations.sol",
  "abi": [
    {
      "anonymous": false,
      "inputs": [
        {
          "indexed": false,
          "internalType": "address",
          "name": "_activePoolAddress",
          "type": "address"
        }
      ],
      "name": "ActivePoolAddressChanged",
      "type": "event"
    },
    {
      "anonymous": false,
      "inputs": [
        {
          "indexed": false,
          "internalType": "address",
          "name": "_collSurplusPoolAddress",
          "type": "address"
        }
      ],
      "name": "CollSurplusPoolAddressChanged",
      "type": "event"
    },
    {
      "anonymous": false,
      "inputs": [
        {
          "indexed": false,
          "internalType": "address",
          "name": "_defaultPoolAddress",
          "type": "address"
        }
      ],
      "name": "DefaultPoolAddressChanged",
      "type": "event"
    },
    {
      "anonymous": false,
      "inputs": [
        {
          "indexed": false,
          "internalType": "address",
          "name": "_gasPoolAddress",
          "type": "address"
        }
      ],
      "name": "GasPoolAddressChanged",
      "type": "event"
    },
    {
      "anonymous": false,
      "inputs": [
        {
          "indexed": false,
          "internalType": "address",
          "name": "_lqtyStakingAddress",
          "type": "address"
        }
      ],
      "name": "LQTYStakingAddressChanged",
      "type": "event"
    },
    {
      "anonymous": false,
      "inputs": [
        {
          "indexed": true,
          "internalType": "address",
          "name": "_borrower",
          "type": "address"
        },
        {
          "indexed": false,
          "internalType": "uint256",
          "name": "_LUSDFee",
          "type": "uint256"
        }
      ],
      "name": "LUSDBorrowingFeePaid",
      "type": "event"
    },
    {
      "anonymous": false,
      "inputs": [
        {
          "indexed": false,
          "internalType": "address",
          "name": "_lusdTokenAddress",
          "type": "address"
        }
      ],
      "name": "LUSDTokenAddressChanged",
      "type": "event"
    },
    {
      "anonymous": false,
      "inputs": [
        {
          "indexed": true,
          "internalType": "address",
          "name": "previousOwner",
          "type": "address"
        },
        {
          "indexed": true,
          "internalType": "address",
          "name": "newOwner",
          "type": "address"
        }
      ],
      "name": "OwnershipTransferred",
      "type": "event"
    },
    {
      "anonymous": false,
      "inputs": [
        {
          "indexed": false,
          "internalType": "address",
          "name": "_newPriceFeedAddress",
          "type": "address"
        }
      ],
      "name": "PriceFeedAddressChanged",
      "type": "event"
    },
    {
      "anonymous": false,
      "inputs": [
        {
          "indexed": false,
          "internalType": "address",
          "name": "_sortedTrovesAddress",
          "type": "address"
        }
      ],
      "name": "SortedTrovesAddressChanged",
      "type": "event"
    },
    {
      "anonymous": false,
      "inputs": [
        {
          "indexed": false,
          "internalType": "address",
          "name": "_stabilityPoolAddress",
          "type": "address"
        }
      ],
      "name": "StabilityPoolAddressChanged",
      "type": "event"
    },
    {
      "anonymous": false,
      "inputs": [
        {
          "indexed": true,
          "internalType": "address",
          "name": "_borrower",
          "type": "address"
        },
        {
          "indexed": false,
          "internalType": "uint256",
          "name": "arrayIndex",
          "type": "uint256"
        }
      ],
      "name": "TroveCreated",
      "type": "event"
    },
    {
      "anonymous": false,
      "inputs": [
        {
          "indexed": false,
          "internalType": "address",
          "name": "_newTroveManagerAddress",
          "type": "address"
        }
      ],
      "name": "TroveManagerAddressChanged",
      "type": "event"
    },
    {
      "anonymous": false,
      "inputs": [
        {
          "indexed": true,
          "internalType": "address",
          "name": "_borrower",
          "type": "address"
        },
        {
          "indexed": false,
          "internalType": "uint256",
          "name": "_debt",
          "type": "uint256"
        },
        {
          "indexed": false,
          "internalType": "uint256",
          "name": "_coll",
          "type": "uint256"
        },
        {
          "indexed": false,
          "internalType": "uint256",
          "name": "stake",
          "type": "uint256"
        },
        {
          "indexed": false,
          "internalType": "enum BorrowerOperations.BorrowerOperation",
          "name": "operation",
          "type": "uint8"
        }
      ],
      "name": "TroveUpdated",
      "type": "event"
    },
    {
      "inputs": [],
      "name": "BORROWING_FEE_FLOOR",
      "outputs": [
        {
          "internalType": "uint256",
          "name": "",
          "type": "uint256"
        }
      ],
      "stateMutability": "view",
      "type": "function"
    },
    {
      "inputs": [],
      "name": "CCR",
      "outputs": [
        {
          "internalType": "uint256",
          "name": "",
          "type": "uint256"
        }
      ],
      "stateMutability": "view",
      "type": "function"
    },
    {
      "inputs": [],
      "name": "DECIMAL_PRECISION",
      "outputs": [
        {
          "internalType": "uint256",
          "name": "",
          "type": "uint256"
        }
      ],
      "stateMutability": "view",
      "type": "function"
    },
    {
      "inputs": [],
      "name": "LUSD_GAS_COMPENSATION",
      "outputs": [
        {
          "internalType": "uint256",
          "name": "",
          "type": "uint256"
        }
      ],
      "stateMutability": "view",
      "type": "function"
    },
    {
      "inputs": [],
      "name": "MCR",
      "outputs": [
        {
          "internalType": "uint256",
          "name": "",
          "type": "uint256"
        }
      ],
      "stateMutability": "view",
      "type": "function"
    },
    {
      "inputs": [],
      "name": "MIN_NET_DEBT",
      "outputs": [
        {
          "internalType": "uint256",
          "name": "",
          "type": "uint256"
        }
      ],
      "stateMutability": "view",
      "type": "function"
    },
    {
      "inputs": [],
      "name": "NAME",
      "outputs": [
        {
          "internalType": "string",
          "name": "",
          "type": "string"
        }
      ],
      "stateMutability": "view",
      "type": "function"
    },
    {
      "inputs": [],
      "name": "PERCENT_DIVISOR",
      "outputs": [
        {
          "internalType": "uint256",
          "name": "",
          "type": "uint256"
        }
      ],
      "stateMutability": "view",
      "type": "function"
    },
    {
      "inputs": [],
      "name": "_100pct",
      "outputs": [
        {
          "internalType": "uint256",
          "name": "",
          "type": "uint256"
        }
      ],
      "stateMutability": "view",
      "type": "function"
    },
    {
      "inputs": [],
      "name": "activePool",
      "outputs": [
        {
          "internalType": "contract IActivePool",
          "name": "",
          "type": "address"
        }
      ],
      "stateMutability": "view",
      "type": "function"
    },
    {
      "inputs": [
        {
          "internalType": "address",
          "name": "_upperHint",
          "type": "address"
        },
        {
          "internalType": "address",
          "name": "_lowerHint",
          "type": "address"
        }
      ],
      "name": "addColl",
      "outputs": [],
      "stateMutability": "payable",
      "type": "function"
    },
    {
      "inputs": [
        {
          "internalType": "uint256",
          "name": "_maxFeePercentage",
          "type": "uint256"
        },
        {
          "internalType": "uint256",
          "name": "_collWithdrawal",
          "type": "uint256"
        },
        {
          "internalType": "uint256",
          "name": "_LUSDChange",
          "type": "uint256"
        },
        {
          "internalType": "bool",
          "name": "_isDebtIncrease",
          "type": "bool"
        },
        {
          "internalType": "address",
          "name": "_upperHint",
          "type": "address"
        },
        {
          "internalType": "address",
          "name": "_lowerHint",
          "type": "address"
        }
      ],
      "name": "adjustTrove",
      "outputs": [],
      "stateMutability": "payable",
      "type": "function"
    },
    {
      "inputs": [],
      "name": "claimCollateral",
      "outputs": [],
      "stateMutability": "nonpayable",
      "type": "function"
    },
    {
      "inputs": [],
      "name": "closeTrove",
      "outputs": [],
      "stateMutability": "nonpayable",
      "type": "function"
    },
    {
      "inputs": [],
      "name": "defaultPool",
      "outputs": [
        {
          "internalType": "contract IDefaultPool",
          "name": "",
          "type": "address"
        }
      ],
      "stateMutability": "view",
      "type": "function"
    },
    {
      "inputs": [
        {
          "internalType": "uint256",
          "name": "_debt",
          "type": "uint256"
        }
      ],
      "name": "getCompositeDebt",
      "outputs": [
        {
          "internalType": "uint256",
          "name": "",
          "type": "uint256"
        }
      ],
      "stateMutability": "pure",
      "type": "function"
    },
    {
      "inputs": [],
      "name": "getEntireSystemColl",
      "outputs": [
        {
          "internalType": "uint256",
          "name": "entireSystemColl",
          "type": "uint256"
        }
      ],
      "stateMutability": "view",
      "type": "function"
    },
    {
      "inputs": [],
      "name": "getEntireSystemDebt",
      "outputs": [
        {
          "internalType": "uint256",
          "name": "entireSystemDebt",
          "type": "uint256"
        }
      ],
      "stateMutability": "view",
      "type": "function"
    },
    {
      "inputs": [],
      "name": "isOwner",
      "outputs": [
        {
          "internalType": "bool",
          "name": "",
          "type": "bool"
        }
      ],
      "stateMutability": "view",
      "type": "function"
    },
    {
      "inputs": [],
      "name": "lqtyStaking",
      "outputs": [
        {
          "internalType": "contract ILQTYStaking",
          "name": "",
          "type": "address"
        }
      ],
      "stateMutability": "view",
      "type": "function"
    },
    {
      "inputs": [],
      "name": "lqtyStakingAddress",
      "outputs": [
        {
          "internalType": "address",
          "name": "",
          "type": "address"
        }
      ],
      "stateMutability": "view",
      "type": "function"
    },
    {
      "inputs": [],
      "name": "lusdToken",
      "outputs": [
        {
          "internalType": "contract ILUSDToken",
          "name": "",
          "type": "address"
        }
      ],
      "stateMutability": "view",
      "type": "function"
    },
    {
      "inputs": [
        {
          "internalType": "address",
          "name": "_borrower",
          "type": "address"
        },
        {
          "internalType": "address",
          "name": "_upperHint",
          "type": "address"
        },
        {
          "internalType": "address",
          "name": "_lowerHint",
          "type": "address"
        }
      ],
      "name": "moveETHGainToTrove",
      "outputs": [],
      "stateMutability": "payable",
      "type": "function"
    },
    {
      "inputs": [
        {
          "internalType": "uint256",
          "name": "_maxFeePercentage",
          "type": "uint256"
        },
        {
          "internalType": "uint256",
          "name": "_LUSDAmount",
          "type": "uint256"
        },
        {
          "internalType": "address",
          "name": "_upperHint",
          "type": "address"
        },
        {
          "internalType": "address",
          "name": "_lowerHint",
          "type": "address"
        }
      ],
      "name": "openTrove",
      "outputs": [],
      "stateMutability": "payable",
      "type": "function"
    },
    {
      "inputs": [],
      "name": "owner",
      "outputs": [
        {
          "internalType": "address",
          "name": "",
          "type": "address"
        }
      ],
      "stateMutability": "view",
      "type": "function"
    },
    {
      "inputs": [],
      "name": "priceFeed",
      "outputs": [
        {
          "internalType": "contract IPriceFeed",
          "name": "",
          "type": "address"
        }
      ],
      "stateMutability": "view",
      "type": "function"
    },
    {
      "inputs": [
        {
          "internalType": "uint256",
          "name": "_LUSDAmount",
          "type": "uint256"
        },
        {
          "internalType": "address",
          "name": "_upperHint",
          "type": "address"
        },
        {
          "internalType": "address",
          "name": "_lowerHint",
          "type": "address"
        }
      ],
      "name": "repayLUSD",
      "outputs": [],
      "stateMutability": "nonpayable",
      "type": "function"
    },
    {
      "inputs": [
        {
          "internalType": "address",
          "name": "_troveManagerAddress",
          "type": "address"
        },
        {
          "internalType": "address",
          "name": "_activePoolAddress",
          "type": "address"
        },
        {
          "internalType": "address",
          "name": "_defaultPoolAddress",
          "type": "address"
        },
        {
          "internalType": "address",
          "name": "_stabilityPoolAddress",
          "type": "address"
        },
        {
          "internalType": "address",
          "name": "_gasPoolAddress",
          "type": "address"
        },
        {
          "internalType": "address",
          "name": "_collSurplusPoolAddress",
          "type": "address"
        },
        {
          "internalType": "address",
          "name": "_priceFeedAddress",
          "type": "address"
        },
        {
          "internalType": "address",
          "name": "_sortedTrovesAddress",
          "type": "address"
        },
        {
          "internalType": "address",
          "name": "_lusdTokenAddress",
          "type": "address"
        },
        {
          "internalType": "address",
          "name": "_lqtyStakingAddress",
          "type": "address"
        }
      ],
      "name": "setAddresses",
      "outputs": [],
      "stateMutability": "nonpayable",
      "type": "function"
    },
    {
      "inputs": [],
      "name": "sortedTroves",
      "outputs": [
        {
          "internalType": "contract ISortedTroves",
          "name": "",
          "type": "address"
        }
      ],
      "stateMutability": "view",
      "type": "function"
    },
    {
      "inputs": [],
      "name": "troveManager",
      "outputs": [
        {
          "internalType": "contract ITroveManager",
          "name": "",
          "type": "address"
        }
      ],
      "stateMutability": "view",
      "type": "function"
    },
    {
      "inputs": [
        {
          "internalType": "uint256",
          "name": "_collWithdrawal",
          "type": "uint256"
        },
        {
          "internalType": "address",
          "name": "_upperHint",
          "type": "address"
        },
        {
          "internalType": "address",
          "name": "_lowerHint",
          "type": "address"
        }
      ],
      "name": "withdrawColl",
      "outputs": [],
      "stateMutability": "nonpayable",
      "type": "function"
    },
    {
      "inputs": [
        {
          "internalType": "uint256",
          "name": "_maxFeePercentage",
          "type": "uint256"
        },
        {
          "internalType": "uint256",
          "name": "_LUSDAmount",
          "type": "uint256"
        },
        {
          "internalType": "address",
          "name": "_upperHint",
          "type": "address"
        },
        {
          "internalType": "address",
          "name": "_lowerHint",
          "type": "address"
        }
      ],
      "name": "withdrawLUSD",
      "outputs": [],
      "stateMutability": "nonpayable",
      "type": "function"
    }
  ],
  "bytecode": "0x608060405234801561001057600080fd5b50600380546001600160a01b031916339081179091556040516000907f8be0079c531659141344cd1fd0a4f28419497f9722a3daafe3b4186f6b6457e0908290a3613731806100606000396000f3fe6080604052600436106101a35760003560e01c8063761ab22c116100e2578063a20baee611610085578063a20baee61461041f578063a3a640171461052a578063a3f4df7e1461053f578063ae918754146105c9578063b83f91a2146105de578063c6a6cf20146105f3578063ea9638bf1461063b578063f92d343314610673576101a3565b8063761ab22c14610449578063794e57241461045e578063795d26c3146104735780637f7dde4a14610488578063860665b31461049d578063887105d3146104d75780638da5cb5b146104ec5780638f32d59b14610501576101a3565b80634ff814431161014a5780634ff81443146102de5780635530273c146103085780635733d58f1461034957806368647db11461035e5780636c37a4af1461038c5780636f0b0c1c1461040a57806372fe25aa1461041f578063741bef1a14610434576101a3565b806304491fa7146101a85780630e704d50146101eb5780631184e5f8146102005780631bf43555146102475780632e86bbd81461026e5780633cc74225146102835780633d83908a146102b45780634870dd9a146102c9575b600080fd5b3480156101b457600080fd5b506101e9600480360360608110156101cb57600080fd5b508035906001600160a01b0360208201358116916040013516610688565b005b3480156101f757600080fd5b506101e961069f565b34801561020c57600080fd5b506101e96004803603608081101561022357600080fd5b508035906020810135906001600160a01b0360408201358116916060013516610a9a565b34801561025357600080fd5b5061025c610ab1565b60408051918252519081900360200190f35b34801561027a57600080fd5b5061025c610abe565b34801561028f57600080fd5b50610298610acb565b604080516001600160a01b039092168252519081900360200190f35b3480156102c057600080fd5b50610298610ada565b3480156102d557600080fd5b5061025c610ae9565b3480156102ea57600080fd5b5061025c6004803603602081101561030157600080fd5b5035610aee565b34801561031457600080fd5b506101e96004803603606081101561032b57600080fd5b508035906001600160a01b0360208201358116916040013516610aff565b34801561035557600080fd5b5061025c610b10565b6101e96004803603604081101561037457600080fd5b506001600160a01b0381358116916020013516610b1c565b34801561039857600080fd5b506101e960048036036101408110156103b057600080fd5b506001600160a01b038135811691602081013582169160408201358116916060810135821691608082013581169160a081013582169160c082013581169160e0810135821691610100820135811691610120013516610b32565b34801561041657600080fd5b506101e9610ee3565b34801561042b57600080fd5b5061025c610f43565b34801561044057600080fd5b50610298610f4f565b34801561045557600080fd5b50610298610f5e565b34801561046a57600080fd5b5061025c610f6d565b34801561047f57600080fd5b5061025c610f79565b34801561049457600080fd5b5061029861107a565b6101e9600480360360808110156104b357600080fd5b508035906020810135906001600160a01b0360408201358116916060013516611089565b3480156104e357600080fd5b5061025c6116be565b3480156104f857600080fd5b5061029861177a565b34801561050d57600080fd5b50610516611789565b604080519115158252519081900360200190f35b34801561053657600080fd5b5061029861179a565b34801561054b57600080fd5b506105546117a9565b6040805160208082528351818301528351919283929083019185019080838360005b8381101561058e578181015183820152602001610576565b50505050905090810190601f1680156105bb5780820380516001836020036101000a031916815260200191505b509250505060405180910390f35b3480156105d557600080fd5b506102986117d7565b3480156105ea57600080fd5b506102986117e6565b6101e9600480360360c081101561060957600080fd5b5080359060208101359060408101359060608101351515906001600160a01b03608082013581169160a00135166117f5565b6101e96004803603606081101561065157600080fd5b506001600160a01b03813581169160208101358216916040909101351661180c565b34801561067f57600080fd5b5061025c611826565b61069a33600085600086866000611831565b505050565b600454600054600a546001600160a01b039283169291821691166106c38333611e2e565b60025460408051630fdb11cf60e01b815290516000926001600160a01b031691630fdb11cf91600480830192602092919082900301818787803b15801561070957600080fd5b505af115801561071d573d6000803e3d6000fd5b505050506040513d602081101561073357600080fd5b5051905061074081611ef3565b60408051630b07655760e01b815233600482015290516001600160a01b03861691630b07655791602480830192600092919082900301818387803b15801561078757600080fd5b505af115801561079b573d6000803e3d6000fd5b5050604080516309019aaf60e31b81523360048201529051600093506001600160a01b038816925063480cd57891602480820192602092909190829003018186803b1580156107e957600080fd5b505afa1580156107fd573d6000803e3d6000fd5b505050506040513d602081101561081357600080fd5b50516040805163d66a255360e01b815233600482015290519192506000916001600160a01b0388169163d66a2553916024808301926020929190829003018186803b15801561086157600080fd5b505afa158015610875573d6000803e3d6000fd5b505050506040513d602081101561088b57600080fd5b505190506108b284336108ad84680ad78ebc5ac620000063ffffffff611f3b16565b611f84565b60006108c383600084600088612044565b90506108ce816120cf565b60408051631fc5750960e31b815233600482015290516001600160a01b0389169163fe2ba84891602480830192600092919082900301818387803b15801561091557600080fd5b505af1158015610929573d6000803e3d6000fd5b5050604080516365e89c5760e11b815233600482015290516001600160a01b038b16935063cbd138ae9250602480830192600092919082900301818387803b15801561097457600080fd5b505af1158015610988573d6000803e3d6000fd5b50505050336001600160a01b03166000805160206134cd83398151915260008060006001604051808581526020018481526020018381526020018260028111156109ce57fe5b60ff16815260200194505050505060405180910390a2610a08868633610a0386680ad78ebc5ac620000063ffffffff611f3b16565b612116565b600654610a2b90879087906001600160a01b0316680ad78ebc5ac6200000612116565b604080516364a197f360e01b81523360048201526024810185905290516001600160a01b038816916364a197f391604480830192600092919082900301818387803b158015610a7957600080fd5b505af1158015610a8d573d6000803e3d6000fd5b5050505050505050505050565b610aab33600085600186868a611831565b50505050565b686194049f30f720000081565b680ad78ebc5ac620000081565b6001546001600160a01b031681565b6004546001600160a01b031681565b60c881565b6000610af9826121f2565b92915050565b61069a338460008086866000611831565b6714d1120d7b16000081565b610b2e33600080600086866000611831565b5050565b610b3a611789565b610b8b576040805162461bcd60e51b815260206004820181905260248201527f4f776e61626c653a2063616c6c6572206973206e6f7420746865206f776e6572604482015290519081900360640190fd5b610b948a61220d565b610b9d8961220d565b610ba68861220d565b610baf8761220d565b610bb88661220d565b610bc18561220d565b610bca8461220d565b610bd38361220d565b610bdc8261220d565b610be58161220d565b600480546001600160a01b03199081166001600160a01b038d81169182179093556000805483168d85161790556001805483168c85161790556005805483168b85161790556006805483168a8516179055600780548316898516179055600280548316888516179055600b80548316878516179055600a80548316868516179055600980548316938516938417905560088054909216909217905560408051918252517f143219c9e69b09e07e095fcc889b43d8f46ca892bba65f08dc3a0050869a5678916020908290030190a1604080516001600160a01b038b16815290517f78f058b189175430c48dc02699e3a0031ea4ff781536dc2fab847de4babdd8829181900360200190a1604080516001600160a01b038a16815290517f5ee0cae2f063ed938bb55046f6a932fb6ae792bf43624806bb90abe68a50be9b9181900360200190a1604080516001600160a01b038916815290517f82966d27eea39b038ee0fa30cd16532bb24f6e65d31cb58fb227aa5766cdcc7f9181900360200190a1604080516001600160a01b038816815290517fcfb07d791fcafc032b35837b50eb84b74df518cf4cc287e8084f47630fa70fa09181900360200190a1604080516001600160a01b038716815290517fe67f36a6e961157d6eff83b91f3af5a62131ceb6f04954ef74f51c1c05e7f88d9181900360200190a1604080516001600160a01b038616815290517f8c537274438aa850a330284665d81a85dd38267d09e4050d416bfc94142db2649181900360200190a1604080516001600160a01b038516815290517f65f4cf077bc01e4742eb5ad98326f6e95b63548ea24b17f8d5e823111fe788009181900360200190a1604080516001600160a01b038416815290517f227eec0ec317af6ab1a9587ffa1c84332522eb4c583a908f89babc05f8f339bd9181900360200190a1604080516001600160a01b038316815290517f756ebc192164c295bba134b5aacd72cc7aff8098a670d1f0a5f6b3a0b4ce67079181900360200190a1610ed76122bc565b50505050505050505050565b6007546040805163b32beb5b60e01b815233600482015290516001600160a01b039092169163b32beb5b9160248082019260009290919082900301818387803b158015610f2f57600080fd5b505af1158015610aab573d6000803e3d6000fd5b670de0b6b3a764000081565b6002546001600160a01b031681565b6009546001600160a01b031681565b670f43fc2c04ee000081565b6000805460408051632f5a97e560e11b8152905183926001600160a01b031691635eb52fca916004808301926020929190829003018186803b158015610fbe57600080fd5b505afa158015610fd2573d6000803e3d6000fd5b505050506040513d6020811015610fe857600080fd5b505160015460408051632f5a97e560e11b815290519293506000926001600160a01b0390921691635eb52fca91600480820192602092909190829003018186803b15801561103557600080fd5b505afa158015611049573d6000803e3d6000fd5b505050506040513d602081101561105f57600080fd5b50519050611073828263ffffffff61230616565b9250505090565b6000546001600160a01b031681565b611091613220565b50604080516060810182526004546001600160a01b03908116825260005481166020830152600a5416918101919091526110c9613240565b600260009054906101000a90046001600160a01b03166001600160a01b0316630fdb11cf6040518163ffffffff1660e01b8152600401602060405180830381600087803b15801561111957600080fd5b505af115801561112d573d6000803e3d6000fd5b505050506040513d602081101561114357600080fd5b505180825260009061115490612360565b9050611160878261237d565b825161116c9033612429565b60408201869052806111ad5761118c83600001518460400151888a612505565b6020830181905260408301516111a79163ffffffff61230616565b60408301525b6111ba82604001516126b5565b6111c782604001516121f2565b606083018190526111d457fe5b6111e734836060015184600001516126fd565b608083015260608201516111fc90349061273b565b60a08301528015611219576112148260800151612770565b61124c565b61122682608001516127b7565b600061123f346001856060015160018760000151612044565b905061124a816120cf565b505b825160408051635d6b480f60e01b81523360048201526001602482015290516001600160a01b0390921691635d6b480f9160448082019260009290919082900301818387803b15801561129e57600080fd5b505af11580156112b2573d6000803e3d6000fd5b50508451604080516372423c1760e01b815233600482015234602482015290516001600160a01b0390921693506372423c1792506044808201926020929091908290030181600087803b15801561130857600080fd5b505af115801561131c573d6000803e3d6000fd5b505050506040513d602081101561133257600080fd5b50508251606083015160408051639976cf4560e01b81523360048201526024810192909252516001600160a01b0390921691639976cf45916044808201926020929091908290030181600087803b15801561138c57600080fd5b505af11580156113a0573d6000803e3d6000fd5b505050506040513d60208110156113b657600080fd5b50508251604080516382fe3eb960e01b815233600482015290516001600160a01b03909216916382fe3eb99160248082019260009290919082900301818387803b15801561140357600080fd5b505af1158015611417573d6000803e3d6000fd5b5050845160408051630c7940bd60e11b815233600482015290516001600160a01b0390921693506318f2817a92506024808201926020929091908290030181600087803b15801561146757600080fd5b505af115801561147b573d6000803e3d6000fd5b505050506040513d602081101561149157600080fd5b505160c0830152600b5460a0830151604080516346f7cf8760e01b815233600482015260248101929092526001600160a01b038881166044840152878116606484015290519216916346f7cf879160848082019260009290919082900301818387803b15801561150057600080fd5b505af1158015611514573d6000803e3d6000fd5b50508451604080516315d549f160e01b815233600482015290516001600160a01b0390921693506315d549f192506024808201926020929091908290030181600087803b15801561156457600080fd5b505af1158015611578573d6000803e3d6000fd5b505050506040513d602081101561158e57600080fd5b505160e08301819052604080519182525133917f59cfd0cd754bc5748b6770e94a4ffa5f678d885cb899dcfadc5734edb97c67ab919081900360200190a26115da8360200151346127fe565b6115f3836020015184604001513389866040015161288e565b6020830151604084015160065461161f9291906001600160a01b0316680ad78ebc5ac62000008061288e565b336001600160a01b03166000805160206134cd8339815191528360600151348560c0015160006040518085815260200184815260200183815260200182600281111561166757fe5b60ff16815260200194505050505060405180910390a2602080830151604080519182525133927fa55c5f48fd29482ad55f4b59bf070cd1ac1a7132a31f7a136ebe8877ae37e1ff928290030190a250505050505050565b6000805460408051630a7b61df60e11b8152905183926001600160a01b0316916314f6c3be916004808301926020929190829003018186803b15801561170357600080fd5b505afa158015611717573d6000803e3d6000fd5b505050506040513d602081101561172d57600080fd5b505160015460408051630a7b61df60e11b815290519293506000926001600160a01b03909216916314f6c3be91600480820192602092909190829003018186803b15801561103557600080fd5b6003546001600160a01b031690565b6003546001600160a01b0316331490565b6008546001600160a01b031681565b60405180604001604052806012815260200171426f72726f7765724f7065726174696f6e7360701b81525081565b600b546001600160a01b031681565b600a546001600160a01b031681565b6118043386868686868c611831565b505050505050565b61181461296b565b61069a83600080600086866000611831565b6611c37937e0800081565b611839613220565b50604080516060810182526004546001600160a01b03908116825260005481166020830152600a541691810191909152611871613285565b600260009054906101000a90046001600160a01b03166001600160a01b0316630fdb11cf6040518163ffffffff1660e01b8152600401602060405180830381600087803b1580156118c157600080fd5b505af11580156118d5573d6000803e3d6000fd5b505050506040513d60208110156118eb57600080fd5b50518082526000906118fc90612360565b905086156119175761190e848261237d565b611917886129b6565b611920896129f5565b61192a8989612a3b565b8251611936908b611e2e565b336001600160a01b038b16148061196c57506005546001600160a01b0316331480156119625750600034115b801561196c575087155b61197257fe5b82600001516001600160a01b0316630b0765578b6040518263ffffffff1660e01b815260040180826001600160a01b03166001600160a01b03168152602001915050600060405180830381600087803b1580156119ce57600080fd5b505af11580156119e2573d6000803e3d6000fd5b505050506119f0348a612a8d565b15156060840152602083015260408201889052868015611a0e575080155b15611a4957611a27836000015184604001518a87612505565b61012083018190526040830151611a439163ffffffff61230616565b60408301525b82600001516001600160a01b031663d66a25538b6040518263ffffffff1660e01b815260040180826001600160a01b03166001600160a01b0316815260200191505060206040518083038186803b158015611aa357600080fd5b505afa158015611ab7573d6000803e3d6000fd5b505050506040513d6020811015611acd57600080fd5b505160808301528251604080516309019aaf60e31b81526001600160a01b038d811660048301529151919092169163480cd578916024808301926020929190829003018186803b158015611b2057600080fd5b505afa158015611b34573d6000803e3d6000fd5b505050506040513d6020811015611b4a57600080fd5b505160a0830181905260808301518351611b659291906126fd565b8260c0018181525050611b958260a0015183608001518460200151856060015186604001518c8860000151612aac565b60e083015260a0820151891115611ba857fe5b611bb4818a8985612adf565b86158015611bc25750600088115b15611c1557611bf0611beb8360400151611bdf8560800151612b53565b9063ffffffff611f3b16565b6126b5565b611c0282608001518360400151612b6e565b611c1583604001518b8460400151611f84565b611c3383600001518b8460200151856060015186604001518c612bc5565b610140840152610160830152825160408051630c7940bd60e11b81526001600160a01b038d81166004830152915191909216916318f2817a9160248083019260209291908290030181600087803b158015611c8d57600080fd5b505af1158015611ca1573d6000803e3d6000fd5b505050506040513d6020811015611cb757600080fd5b505161018083015260a08201516080830151602084015160608501516040860151600094611ceb949093909290918d612e25565b600b546040805163015f109360e51b81526001600160a01b038f81166004830152602482018590528b811660448301528a811660648301529151939450911691632be212609160848082019260009290919082900301818387803b158015611d5257600080fd5b505af1158015611d66573d6000803e3d6000fd5b505050508a6001600160a01b03166000805160206134cd833981519152846101400151856101600151866101800151600260405180858152602001848152602001838152602001826002811115611db957fe5b60ff16815260200194505050505060405180910390a2610120830151604080519182525133917fa55c5f48fd29482ad55f4b59bf070cd1ac1a7132a31f7a136ebe8877ae37e1ff919081900360200190a2610a8d8460200151856040015133866020015187606001518e8e8a60400151612e56565b6000826001600160a01b03166321e37801836040518263ffffffff1660e01b815260040180826001600160a01b03166001600160a01b0316815260200191505060206040518083038186803b158015611e8657600080fd5b505afa158015611e9a573d6000803e3d6000fd5b505050506040513d6020811015611eb057600080fd5b505190506001811461069a5760405162461bcd60e51b815260040180806020018281038252602e81526020018061349f602e913960400191505060405180910390fd5b611efc81612360565b15611f385760405162461bcd60e51b815260040180806020018281038252603981526020018061334d6039913960400191505060405180910390fd5b50565b6000611f7d83836040518060400160405280601e81526020017f536166654d6174683a207375627472616374696f6e206f766572666c6f770000815250612f11565b9392505050565b80836001600160a01b03166370a08231846040518263ffffffff1660e01b815260040180826001600160a01b03166001600160a01b0316815260200191505060206040518083038186803b158015611fdb57600080fd5b505afa158015611fef573d6000803e3d6000fd5b505050506040513d602081101561200557600080fd5b5051101561069a5760405162461bcd60e51b815260040180806020018281038252603d81526020018061352b603d913960400191505060405180910390fd5b60008061204f6116be565b9050600061205b610f79565b90508661207757612072828963ffffffff611f3b16565b612087565b612087828963ffffffff61230616565b9150846120a35761209e818763ffffffff611f3b16565b6120b3565b6120b3818763ffffffff61230616565b905060006120c28383876126fd565b9998505050505050505050565b6714d1120d7b160000811015611f385760405162461bcd60e51b81526004018080602001828103825260498152602001806134566049913960600191505060405180910390fd5b836001600160a01b03166338d995a8826040518263ffffffff1660e01b815260040180828152602001915050600060405180830381600087803b15801561215c57600080fd5b505af1158015612170573d6000803e3d6000fd5b50505050826001600160a01b0316639dc29fac83836040518363ffffffff1660e01b815260040180836001600160a01b03166001600160a01b0316815260200182815260200192505050600060405180830381600087803b1580156121d457600080fd5b505af11580156121e8573d6000803e3d6000fd5b5050505050505050565b6000610af982680ad78ebc5ac620000063ffffffff61230616565b6001600160a01b038116612268576040805162461bcd60e51b815260206004820152601e60248201527f4163636f756e742063616e6e6f74206265207a65726f20616464726573730000604482015290519081900360640190fd5b803b80610b2e576040805162461bcd60e51b815260206004820181905260248201527f4163636f756e7420636f64652073697a652063616e6e6f74206265207a65726f604482015290519081900360640190fd5b6003546040516000916001600160a01b0316907f8be0079c531659141344cd1fd0a4f28419497f9722a3daafe3b4186f6b6457e0908390a3600380546001600160a01b0319169055565b600082820183811015611f7d576040805162461bcd60e51b815260206004820152601b60248201527f536166654d6174683a206164646974696f6e206f766572666c6f770000000000604482015290519081900360640190fd5b60008061236c83612fa8565b6714d1120d7b160000119392505050565b80156123cf57670de0b6b3a76400008211156123ca5760405162461bcd60e51b81526004018080602001828103825260328152602001806133bd6032913960400191505060405180910390fd5b610b2e565b6611c37937e0800082108015906123ee5750670de0b6b3a76400008211155b610b2e5760405162461bcd60e51b81526004018080602001828103825260308152602001806136576030913960400191505060405180910390fd5b6000826001600160a01b03166321e37801836040518263ffffffff1660e01b815260040180826001600160a01b03166001600160a01b0316815260200191505060206040518083038186803b15801561248157600080fd5b505afa158015612495573d6000803e3d6000fd5b505050506040513d60208110156124ab57600080fd5b50519050600181141561069a576040805162461bcd60e51b815260206004820152601c60248201527f426f72726f7765724f70733a2054726f76652069732061637469766500000000604482015290519081900360640190fd5b6000846001600160a01b0316635dba4c4a6040518163ffffffff1660e01b8152600401600060405180830381600087803b15801561254257600080fd5b505af1158015612556573d6000803e3d6000fd5b505050506000856001600160a01b031663631203b0856040518263ffffffff1660e01b81526004018082815260200191505060206040518083038186803b1580156125a057600080fd5b505afa1580156125b4573d6000803e3d6000fd5b505050506040513d60208110156125ca57600080fd5b505190506125d9818585612fd4565b60085460408051634677ffb360e01b81526004810184905290516001600160a01b0390921691634677ffb39160248082019260009290919082900301818387803b15801561262657600080fd5b505af115801561263a573d6000803e3d6000fd5b5050600954604080516340c10f1960e01b81526001600160a01b03928316600482015260248101869052905191891693506340c10f19925060448082019260009290919082900301818387803b15801561269357600080fd5b505af11580156126a7573d6000803e3d6000fd5b509298975050505050505050565b686194049f30f7200000811015611f385760405162461bcd60e51b815260040180806020018281038252603a8152602001806135b1603a913960400191505060405180910390fd5b600082156127305760006127278461271b878663ffffffff61304916565b9063ffffffff6130a216565b9150611f7d9050565b506000199392505050565b60008115612767576127608261271b8568056bc75e2d6310000063ffffffff61304916565b9050610af9565b50600019610af9565b6714d1120d7b160000811015611f385760405162461bcd60e51b81526004018080602001828103825260378152602001806133866037913960400191505060405180910390fd5b670f43fc2c04ee0000811015611f385760405162461bcd60e51b81526004018080602001828103825260498152602001806135686049913960600191505060405180910390fd5b6040516000906001600160a01b0384169083908381818185875af1925050503d8060008114612849576040519150601f19603f3d011682016040523d82523d6000602084013e61284e565b606091505b505090508061069a5760405162461bcd60e51b815260040180806020018281038252602d8152602001806132f0602d913960400191505060405180910390fd5b846001600160a01b031663cfb9329a826040518263ffffffff1660e01b815260040180828152602001915050600060405180830381600087803b1580156128d457600080fd5b505af11580156128e8573d6000803e3d6000fd5b50505050836001600160a01b03166340c10f1984846040518363ffffffff1660e01b815260040180836001600160a01b03166001600160a01b0316815260200182815260200192505050600060405180830381600087803b15801561294c57600080fd5b505af1158015612960573d6000803e3d6000fd5b505050505050505050565b6005546001600160a01b031633146129b45760405162461bcd60e51b815260040180806020018281038252602981526020018061362e6029913960400191505060405180910390fd5b565b60008111611f385760405162461bcd60e51b81526004018080602001828103825260378152602001806136876037913960400191505060405180910390fd5b341580612a00575080155b611f385760405162461bcd60e51b815260040180806020018281038252603081526020018061331d6030913960400191505060405180910390fd5b34151580612a4857508115155b80612a5257508015155b610b2e5760405162461bcd60e51b81526004018080602001828103825260468152602001806133ef6046913960600191505060405180910390fd5b6000808315612aa157508290506001612aa5565b8291505b9250929050565b6000806000612abf8a8a8a8a8a8a6130e4565b915091506000612ad08383876126fd565b9b9a5050505050505050505050565b8315612b1857612aee8361313f565b8115612b1357612b018160e00151612770565b612b138160e001518260c0015161317c565b610aab565b612b258160e001516127b7565b612b42816020015182606001518360400151858560000151612044565b6101008201819052610aab906120cf565b6000610af982680ad78ebc5ac620000063ffffffff611f3b16565b612b8782680ad78ebc5ac620000063ffffffff611f3b16565b811115610b2e5760405162461bcd60e51b81526004018080602001828103825260438152602001806135eb6043913960600191505060405180910390fd5b600080600085612c6057886001600160a01b031663d3d6f84389896040518363ffffffff1660e01b815260040180836001600160a01b03166001600160a01b0316815260200182815260200192505050602060405180830381600087803b158015612c2f57600080fd5b505af1158015612c43573d6000803e3d6000fd5b505050506040513d6020811015612c5957600080fd5b5051612ced565b886001600160a01b03166372423c1789896040518363ffffffff1660e01b815260040180836001600160a01b03166001600160a01b0316815260200182815260200192505050602060405180830381600087803b158015612cc057600080fd5b505af1158015612cd4573d6000803e3d6000fd5b505050506040513d6020811015612cea57600080fd5b50515b9050600084612d8757896001600160a01b03166312610e928a886040518363ffffffff1660e01b815260040180836001600160a01b03166001600160a01b0316815260200182815260200192505050602060405180830381600087803b158015612d5657600080fd5b505af1158015612d6a573d6000803e3d6000fd5b505050506040513d6020811015612d8057600080fd5b5051612e14565b896001600160a01b0316639976cf458a886040518363ffffffff1660e01b815260040180836001600160a01b03166001600160a01b0316815260200182815260200192505050602060405180830381600087803b158015612de757600080fd5b505af1158015612dfb573d6000803e3d6000fd5b505050506040513d6020811015612e1157600080fd5b50515b919a91995090975050505050505050565b6000806000612e388989898989896130e4565b915091506000612e48838361273b565b9a9950505050505050505050565b8115612e6e57612e69888888868561288e565b612e7a565b612e7a88888886612116565b8315612e8f57612e8a88866127fe565b6121e8565b876001600160a01b03166364a197f387876040518363ffffffff1660e01b815260040180836001600160a01b03166001600160a01b0316815260200182815260200192505050600060405180830381600087803b158015612eef57600080fd5b505af1158015612f03573d6000803e3d6000fd5b505050505050505050505050565b60008184841115612fa05760405162461bcd60e51b81526004018080602001828103825283818151815260200191508051906020019080838360005b83811015612f65578181015183820152602001612f4d565b50505050905090810190601f168015612f925780820380516001836020036101000a031916815260200191505b509250505060405180910390fd5b505050900390565b600080612fb36116be565b90506000612fbf610f79565b9050612fcc8282866126fd565b949350505050565b6000612ff28361271b86670de0b6b3a764000063ffffffff61304916565b905081811115610aab576040805162461bcd60e51b815260206004820152601d60248201527f4665652065786365656465642070726f7669646564206d6178696d756d000000604482015290519081900360640190fd5b60008261305857506000610af9565b8282028284828161306557fe5b0414611f7d5760405162461bcd60e51b81526004018080602001828103825260218152602001806134356021913960400191505060405180910390fd5b6000611f7d83836040518060400160405280601a81526020017f536166654d6174683a206469766973696f6e206279207a65726f0000000000008152506131bb565b600080878786613103576130fe8a8963ffffffff611f3b16565b613113565b6131138a8963ffffffff61230616565b91508461312f5761312a898763ffffffff611f3b16565b612e14565b612e14898763ffffffff61230616565b8015611f385760405162461bcd60e51b815260040180806020018281038252603e8152602001806134ed603e913960400191505060405180910390fd5b80821015610b2e5760405162461bcd60e51b815260040180806020018281038252603e8152602001806136be603e913960400191505060405180910390fd5b6000818361320a5760405162461bcd60e51b8152602060048201818152835160248401528351909283926044909101919085019080838360008315612f65578181015183820152602001612f4d565b50600083858161321657fe5b0495945050505050565b604080516060810182526000808252602082018190529181019190915290565b60405180610100016040528060008152602001600081526020016000815260200160008152602001600081526020016000815260200160008152602001600081525090565b604051806101a00160405280600081526020016000815260200160008152602001600015158152602001600081526020016000815260200160008152602001600081526020016000815260200160008152602001600081526020016000815260200160008152509056fe426f72726f7765724f70733a2053656e64696e672045544820746f20416374697665506f6f6c206661696c6564426f72726f7765724f7065726174696f6e733a2043616e6e6f7420776974686472617720616e642061646420636f6c6c426f72726f7765724f70733a204f7065726174696f6e206e6f74207065726d697474656420647572696e67205265636f76657279204d6f6465426f72726f7765724f70733a204f7065726174696f6e206d757374206c656176652074726f7665207769746820494352203e3d204343524d6178206665652070657263656e74616765206d757374206c657373207468616e206f7220657175616c20746f2031303025426f72726f7765724f70733a205468657265206d75737420626520656974686572206120636f6c6c61746572616c206368616e6765206f7220612064656274206368616e6765536166654d6174683a206d756c7469706c69636174696f6e206f766572666c6f77426f72726f7765724f70733a20416e206f7065726174696f6e207468617420776f756c6420726573756c7420696e20544352203c20434352206973206e6f74207065726d6974746564426f72726f7765724f70733a2054726f766520646f6573206e6f74206578697374206f7220697320636c6f736564c3770d654ed33aeea6bf11ac8ef05d02a6a04ed4686dd2f624d853bbec43cc8b426f72726f7765724f70733a20436f6c6c61746572616c207769746864726177616c206e6f74207065726d6974746564205265636f76657279204d6f6465426f72726f7765724f70733a2043616c6c657220646f65736e74206861766520656e6f756768204c55534420746f206d616b652072657061796d656e74426f72726f7765724f70733a20416e206f7065726174696f6e207468617420776f756c6420726573756c7420696e20494352203c204d4352206973206e6f74207065726d6974746564426f72726f7765724f70733a2054726f76652773206e65742064656274206d7573742062652067726561746572207468616e206d696e696d756d426f72726f7765724f70733a20416d6f756e7420726570616964206d757374206e6f74206265206c6172676572207468616e207468652054726f766527732064656274426f72726f7765724f70733a2043616c6c6572206973206e6f742053746162696c69747920506f6f6c4d6178206665652070657263656e74616765206d757374206265206265747765656e20302e352520616e642031303025426f72726f7765724f70733a204465627420696e637265617365207265717569726573206e6f6e2d7a65726f20646562744368616e6765426f72726f7765724f70733a2043616e6e6f7420646563726561736520796f75722054726f766527732049435220696e205265636f76657279204d6f6465a2646970667358221220ff6384a65471624c35cad7a77b32a2857e00b30cafdc8b20094aefc81c0eb04964736f6c634300060b0033",
  "linkReferences": {},
  "deployedLinkReferences": {}
}