{
  "_format": "hh-sol-artifact-1",
  "contractName": "BorrowerWrappersScript",
  "sourceName": "contracts/Proxy/BorrowerWrappersScript.sol",
  "abi": [
    {
      "inputs": [
        {
          "internalType": "address",
          "name": "_borrowerOperationsAddress",
          "type": "address"
        },
        {
          "internalType": "address",
          "name": "_troveManagerAddress",
          "type": "address"
        },
        {
          "internalType": "address",
          "name": "_stabilityPoolAddress",
          "type": "address"
        },
        {
          "internalType": "address",
          "name": "_priceFeedAddress",
          "type": "address"
        },
        {
          "internalType": "address",
          "name": "_lusdTokenAddress",
          "type": "address"
        },
        {
          "internalType": "address",
          "name": "_lqtyTokenAddress",
          "type": "address"
        },
        {
          "internalType": "address",
          "name": "_lqtyStakingAddress",
          "type": "address"
        }
      ],
      "stateMutability": "nonpayable",
      "type": "constructor"
    },
    {
      "inputs": [
        {
          "internalType": "address",
          "name": "_upperHint",
          "type": "address"
        },
        {
          "internalType": "address",
          "name": "_lowerHint",
          "type": "address"
        }
      ],
      "name": "addColl",
      "outputs": [],
      "stateMutability": "payable",
      "type": "function"
    },
    {
      "inputs": [
        {
          "internalType": "uint256",
          "name": "_maxFee",
          "type": "uint256"
        },
        {
          "internalType": "uint256",
          "name": "_collWithdrawal",
          "type": "uint256"
        },
        {
          "internalType": "uint256",
          "name": "_debtChange",
          "type": "uint256"
        },
        {
          "internalType": "bool",
          "name": "isDebtIncrease",
          "type": "bool"
        },
        {
          "internalType": "address",
          "name": "_upperHint",
          "type": "address"
        },
        {
          "internalType": "address",
          "name": "_lowerHint",
          "type": "address"
        }
      ],
      "name": "adjustTrove",
      "outputs": [],
      "stateMutability": "payable",
      "type": "function"
    },
    {
      "inputs": [],
      "name": "claimCollateral",
      "outputs": [],
      "stateMutability": "nonpayable",
      "type": "function"
    },
    {
      "inputs": [
        {
          "internalType": "uint256",
          "name": "_maxFee",
          "type": "uint256"
        },
        {
          "internalType": "uint256",
          "name": "_LUSDAmount",
          "type": "uint256"
        },
        {
          "internalType": "address",
          "name": "_upperHint",
          "type": "address"
        },
        {
          "internalType": "address",
          "name": "_lowerHint",
          "type": "address"
        }
      ],
      "name": "claimCollateralAndOpenTrove",
      "outputs": [],
      "stateMutability": "payable",
      "type": "function"
    },
    {
      "inputs": [
        {
          "internalType": "uint256",
          "name": "_maxFee",
          "type": "uint256"
        },
        {
          "internalType": "address",
          "name": "_upperHint",
          "type": "address"
        },
        {
          "internalType": "address",
          "name": "_lowerHint",
          "type": "address"
        }
      ],
      "name": "claimSPRewardsAndRecycle",
      "outputs": [],
      "stateMutability": "nonpayable",
      "type": "function"
    },
    {
      "inputs": [
        {
          "internalType": "uint256",
          "name": "_maxFee",
          "type": "uint256"
        },
        {
          "internalType": "address",
          "name": "_upperHint",
          "type": "address"
        },
        {
          "internalType": "address",
          "name": "_lowerHint",
          "type": "address"
        }
      ],
      "name": "claimStakingGainsAndRecycle",
      "outputs": [],
      "stateMutability": "nonpayable",
      "type": "function"
    },
    {
      "inputs": [],
      "name": "closeTrove",
      "outputs": [],
      "stateMutability": "nonpayable",
      "type": "function"
    },
    {
      "inputs": [
        {
          "internalType": "uint256",
          "name": "_maxFee",
          "type": "uint256"
        },
        {
          "internalType": "uint256",
          "name": "_LUSDAmount",
          "type": "uint256"
        },
        {
          "internalType": "address",
          "name": "_upperHint",
          "type": "address"
        },
        {
          "internalType": "address",
          "name": "_lowerHint",
          "type": "address"
        }
      ],
      "name": "openTrove",
      "outputs": [],
      "stateMutability": "payable",
      "type": "function"
    },
    {
      "inputs": [
        {
          "internalType": "uint256",
          "name": "_amount",
          "type": "uint256"
        },
        {
          "internalType": "address",
          "name": "_upperHint",
          "type": "address"
        },
        {
          "internalType": "address",
          "name": "_lowerHint",
          "type": "address"
        }
      ],
      "name": "repayLUSD",
      "outputs": [],
      "stateMutability": "nonpayable",
      "type": "function"
    },
    {
      "inputs": [
        {
          "internalType": "uint256",
          "name": "_LQTYamount",
          "type": "uint256"
        }
      ],
      "name": "stake",
      "outputs": [],
      "stateMutability": "nonpayable",
      "type": "function"
    },
    {
      "inputs": [
        {
          "internalType": "address",
          "name": "_recipient",
          "type": "address"
        },
        {
          "internalType": "uint256",
          "name": "_amount",
          "type": "uint256"
        }
      ],
      "name": "transferETH",
      "outputs": [
        {
          "internalType": "bool",
          "name": "",
          "type": "bool"
        }
      ],
      "stateMutability": "nonpayable",
      "type": "function"
    },
    {
      "inputs": [
        {
          "internalType": "uint256",
          "name": "_amount",
          "type": "uint256"
        },
        {
          "internalType": "address",
          "name": "_upperHint",
          "type": "address"
        },
        {
          "internalType": "address",
          "name": "_lowerHint",
          "type": "address"
        }
      ],
      "name": "withdrawColl",
      "outputs": [],
      "stateMutability": "nonpayable",
      "type": "function"
    },
    {
      "inputs": [
        {
          "internalType": "uint256",
          "name": "_maxFee",
          "type": "uint256"
        },
        {
          "internalType": "uint256",
          "name": "_amount",
          "type": "uint256"
        },
        {
          "internalType": "address",
          "name": "_upperHint",
          "type": "address"
        },
        {
          "internalType": "address",
          "name": "_lowerHint",
          "type": "address"
        }
      ],
      "name": "withdrawLUSD",
      "outputs": [],
      "stateMutability": "nonpayable",
      "type": "function"
    }
  ],
  "bytecode": "0x61018060405234801561001157600080fd5b50604051611a1f380380611a1f833981810160405260e081101561003457600080fd5b5080516020820151604083015160608085015160808087015160a08089015160c0998a01516001600160601b031999871b8a1690945292851b88169081905295841b871690975292821b851660e052811b84166101005293841b83166101205290921b16610140526101605260805160601c60a05160601c60c05160601c60e05160601c6101005160601c6101205160601c6101405160601c6101605160601c6118a161017e60003980610a3d5280610f14528061125752508061072952806108435280610e7c52806111c5525080610de45280610f9052508061146d5250806107c152806109c35280611148525080611387528061151f52806115bb525080610c8d5250806103c0528061042952806104d45280610543528061061c52806106ba52806109305280610aef5280610b3c5280610c2c5280610d5352806110a352506118a16000f3fe6080604052600436106100b25760003560e01c806368647db11161006f57806368647db1146102125780636f0b0c1c146102405780637b1a490914610255578063860665b3146102a2578063a694fc3a146102dc578063c6a6cf2014610306578063d08eb01b1461034e576100b2565b806304491fa7146100b75780630e704d50146100fa5780631184e5f81461010f578063233a2e39146101565780635530273c1461019057806358c9d977146101d1575b600080fd5b3480156100c357600080fd5b506100f8600480360360608110156100da57600080fd5b508035906001600160a01b036020820135811691604001351661038f565b005b34801561010657600080fd5b506100f8610427565b34801561011b57600080fd5b506100f86004803603608081101561013257600080fd5b508035906020810135906001600160a01b036040820135811691606001351661049c565b6100f86004803603608081101561016c57600080fd5b508035906020810135906001600160a01b036040820135811691606001351661053c565b34801561019c57600080fd5b506100f8600480360360608110156101b357600080fd5b508035906001600160a01b0360208201358116916040013516610689565b3480156101dd57600080fd5b506100f8600480360360608110156101f457600080fd5b508035906001600160a01b0360208201358116916040013516610704565b6100f86004803603604081101561022857600080fd5b506001600160a01b0381358116916020013516610ac5565b34801561024c57600080fd5b506100f8610b3a565b34801561026157600080fd5b5061028e6004803603604081101561027857600080fd5b506001600160a01b038135169060200135610b95565b604080519115158252519081900360200190f35b6100f8600480360360808110156102b857600080fd5b508035906020810135906001600160a01b0360408201358116916060013516610bf4565b3480156102e857600080fd5b506100f8600480360360208110156102ff57600080fd5b5035610c8b565b6100f8600480360360c081101561031c57600080fd5b5080359060208101359060408101359060608101351515906001600160a01b03608082013581169160a0013516610d0c565b34801561035a57600080fd5b506100f86004803603606081101561037157600080fd5b508035906001600160a01b0360208201358116916040013516610dbf565b604080516304491fa760e01b8152600481018590526001600160a01b038481166024830152838116604483015291517f0000000000000000000000000000000000000000000000000000000000000000909216916304491fa79160648082019260009290919082900301818387803b15801561040a57600080fd5b505af115801561041e573d6000803e3d6000fd5b50505050505050565b7f00000000000000000000000000000000000000000000000000000000000000006001600160a01b0316630e704d506040518163ffffffff1660e01b8152600401600060405180830381600087803b15801561048257600080fd5b505af1158015610496573d6000803e3d6000fd5b50505050565b604080516302309cbf60e31b815260048101869052602481018590526001600160a01b038481166044830152838116606483015291517f000000000000000000000000000000000000000000000000000000000000000090921691631184e5f89160848082019260009290919082900301818387803b15801561051e57600080fd5b505af1158015610532573d6000803e3d6000fd5b5050505050505050565b60004790507f00000000000000000000000000000000000000000000000000000000000000006001600160a01b0316636f0b0c1c6040518163ffffffff1660e01b8152600401600060405180830381600087803b15801561059c57600080fd5b505af11580156105b0573d6000803e3d6000fd5b5047925050508181116105bf57fe5b60006105e1346105d5848663ffffffff6112e216565b9063ffffffff61132b16565b6040805163860665b360e01b8152600481018a9052602481018990526001600160a01b038881166044830152878116606483015291519293507f00000000000000000000000000000000000000000000000000000000000000009091169163860665b3918491608480830192600092919082900301818588803b15801561066757600080fd5b505af115801561067b573d6000803e3d6000fd5b505050505050505050505050565b6040805163154c09cf60e21b8152600481018590526001600160a01b038481166024830152838116604483015291517f000000000000000000000000000000000000000000000000000000000000000090921691635530273c9160648082019260009290919082900301818387803b15801561040a57600080fd5b604080516370a0823160e01b8152306004820152905147916000916001600160a01b037f000000000000000000000000000000000000000000000000000000000000000016916370a08231916024808301926020929190829003018186803b15801561076f57600080fd5b505afa158015610783573d6000803e3d6000fd5b505050506040513d602081101561079957600080fd5b505160408051632e54bf9560e01b815260006004820181905291519293506001600160a01b037f00000000000000000000000000000000000000000000000000000000000000001692632e54bf959260248084019391929182900301818387803b15801561080657600080fd5b505af115801561081a573d6000803e3d6000fd5b5050604080516370a0823160e01b81523060048201529051479350600092506001600160a01b037f000000000000000000000000000000000000000000000000000000000000000016916370a08231916024808301926020929190829003018186803b15801561088957600080fd5b505afa15801561089d573d6000803e3d6000fd5b505050506040513d60208110156108b357600080fd5b5051905060006108c9838663ffffffff6112e216565b90508015610a21576108da30611385565b60006108e582611468565b60408051630635367960e51b8152600481018c905260006024820181905260448201849052600160648301526001600160a01b038c811660848401528b811660a484015292519394507f00000000000000000000000000000000000000000000000000000000000000009092169263c6a6cf2092869260c4808201939182900301818588803b15801561097757600080fd5b505af115801561098b573d6000803e3d6000fd5b50505050506000811115610a1f5760408051635f788d6560e01b81526004810183905260006024820181905291516001600160a01b037f00000000000000000000000000000000000000000000000000000000000000001692635f788d65926044808201939182900301818387803b158015610a0657600080fd5b505af1158015610a1a573d6000803e3d6000fd5b505050505b505b6000610a33838663ffffffff6112e216565b90508015610aba577f00000000000000000000000000000000000000000000000000000000000000006001600160a01b031663a694fc3a826040518263ffffffff1660e01b815260040180828152602001915050600060405180830381600087803b158015610aa157600080fd5b505af1158015610ab5573d6000803e3d6000fd5b505050505b505050505050505050565b604080516368647db160e01b81526001600160a01b038481166004830152838116602483015291517f0000000000000000000000000000000000000000000000000000000000000000909216916368647db1913491604480830192600092919082900301818588803b15801561040a57600080fd5b7f00000000000000000000000000000000000000000000000000000000000000006001600160a01b0316636f0b0c1c6040518163ffffffff1660e01b8152600401600060405180830381600087803b15801561048257600080fd5b60405160009081906001600160a01b0385169084908381818185875af1925050503d8060008114610be2576040519150601f19603f3d011682016040523d82523d6000602084013e610be7565b606091505b5090925050505b92915050565b6040805163860665b360e01b815260048101869052602481018590526001600160a01b038481166044830152838116606483015291517f00000000000000000000000000000000000000000000000000000000000000009092169163860665b3913491608480830192600092919082900301818588803b158015610c7757600080fd5b505af1158015610aba573d6000803e3d6000fd5b7f00000000000000000000000000000000000000000000000000000000000000006001600160a01b031663a694fc3a826040518263ffffffff1660e01b815260040180828152602001915050600060405180830381600087803b158015610cf157600080fd5b505af1158015610d05573d6000803e3d6000fd5b5050505050565b60408051630635367960e51b815260048101889052602481018790526044810186905284151560648201526001600160a01b03848116608483015283811660a483015291517f00000000000000000000000000000000000000000000000000000000000000009092169163c6a6cf2091349160c480830192600092919082900301818588803b158015610d9e57600080fd5b505af1158015610db2573d6000803e3d6000fd5b5050505050505050505050565b604080516370a0823160e01b8152306004820152905147916000916001600160a01b037f000000000000000000000000000000000000000000000000000000000000000016916370a08231916024808301926020929190829003018186803b158015610e2a57600080fd5b505afa158015610e3e573d6000803e3d6000fd5b505050506040513d6020811015610e5457600080fd5b5051604080516370a0823160e01b815230600482015290519192506000916001600160a01b037f000000000000000000000000000000000000000000000000000000000000000016916370a08231916024808301926020929190829003018186803b158015610ec257600080fd5b505afa158015610ed6573d6000803e3d6000fd5b505050506040513d6020811015610eec57600080fd5b5051604080516305c2fbcf60e31b815260006004820181905291519293506001600160a01b037f00000000000000000000000000000000000000000000000000000000000000001692632e17de789260248084019391929182900301818387803b158015610f5957600080fd5b505af1158015610f6d573d6000803e3d6000fd5b505050506000610f8684476112e290919063ffffffff16565b9050600061103c847f00000000000000000000000000000000000000000000000000000000000000006001600160a01b03166370a08231306040518263ffffffff1660e01b815260040180826001600160a01b03166001600160a01b0316815260200191505060206040518083038186803b15801561100457600080fd5b505afa158015611018573d6000803e3d6000fd5b505050506040513d602081101561102e57600080fd5b50519063ffffffff6112e216565b9050600082156111045761104f30611385565b61105883611468565b60408051630635367960e51b8152600481018c905260006024820181905260448201849052600160648301526001600160a01b038c811660848401528b811660a484015292519394507f00000000000000000000000000000000000000000000000000000000000000009092169263c6a6cf2092879260c4808201939182900301818588803b1580156110ea57600080fd5b505af11580156110fe573d6000803e3d6000fd5b50505050505b6000611116838363ffffffff61132b16565b905080156112d65760408051635f788d6560e01b81526004810183905260006024820181905291516001600160a01b037f00000000000000000000000000000000000000000000000000000000000000001692635f788d65926044808201939182900301818387803b15801561118b57600080fd5b505af115801561119f573d6000803e3d6000fd5b5050604080516370a0823160e01b81523060048201529051600093506001600160a01b037f00000000000000000000000000000000000000000000000000000000000000001692506370a0823191602480820192602092909190829003018186803b15801561120d57600080fd5b505afa158015611221573d6000803e3d6000fd5b505050506040513d602081101561123757600080fd5b50519050600061124d828863ffffffff6112e216565b9050801561067b577f00000000000000000000000000000000000000000000000000000000000000006001600160a01b031663a694fc3a826040518263ffffffff1660e01b815260040180828152602001915050600060405180830381600087803b1580156112bb57600080fd5b505af11580156112cf573d6000803e3d6000fd5b5050505050505b50505050505050505050565b600061132483836040518060400160405280601e81526020017f536166654d6174683a207375627472616374696f6e206f766572666c6f770000815250611680565b9392505050565b600082820183811015611324576040805162461bcd60e51b815260206004820152601b60248201527f536166654d6174683a206164646974696f6e206f766572666c6f770000000000604482015290519081900360640190fd5b7f00000000000000000000000000000000000000000000000000000000000000006001600160a01b03166321e37801826040518263ffffffff1660e01b815260040180826001600160a01b03166001600160a01b0316815260200191505060206040518083038186803b1580156113fb57600080fd5b505afa15801561140f573d6000803e3d6000fd5b505050506040513d602081101561142557600080fd5b50516001146114655760405162461bcd60e51b81526004018080602001828103825260388152602001806118136038913960400191505060405180910390fd5b50565b6000807f00000000000000000000000000000000000000000000000000000000000000006001600160a01b0316630fdb11cf6040518163ffffffff1660e01b8152600401602060405180830381600087803b1580156114c657600080fd5b505af11580156114da573d6000803e3d6000fd5b505050506040513d60208110156114f057600080fd5b505160408051630d293c7160e41b81523060048201526024810183905290519192506000916001600160a01b037f0000000000000000000000000000000000000000000000000000000000000000169163d293c710916044808301926020929190829003018186803b15801561156557600080fd5b505afa158015611579573d6000803e3d6000fd5b505050506040513d602081101561158f57600080fd5b5051905060006115b5826115a9878663ffffffff61171716565b9063ffffffff61177016565b905060007f00000000000000000000000000000000000000000000000000000000000000006001600160a01b03166366ca4a216040518163ffffffff1660e01b815260040160206040518083038186803b15801561161257600080fd5b505afa158015611626573d6000803e3d6000fd5b505050506040513d602081101561163c57600080fd5b50519050600061167561165d670de0b6b3a76400008463ffffffff61132b16565b6115a985670de0b6b3a764000063ffffffff61171716565b979650505050505050565b6000818484111561170f5760405162461bcd60e51b81526004018080602001828103825283818151815260200191508051906020019080838360005b838110156116d45781810151838201526020016116bc565b50505050905090810190601f1680156117015780820380516001836020036101000a031916815260200191505b509250505060405180910390fd5b505050900390565b60008261172657506000610bee565b8282028284828161173357fe5b04146113245760405162461bcd60e51b815260040180806020018281038252602181526020018061184b6021913960400191505060405180910390fd5b600061132483836040518060400160405280601a81526020017f536166654d6174683a206469766973696f6e206279207a65726f000000000000815250600081836117fc5760405162461bcd60e51b81526020600482018181528351602484015283519092839260449091019190850190808383600083156116d45781810151838201526020016116bc565b50600083858161180857fe5b049594505050505056fe426f72726f77657257726170706572735363726970743a2063616c6c6572206d757374206861766520616e206163746976652074726f7665536166654d6174683a206d756c7469706c69636174696f6e206f766572666c6f77a2646970667358221220c7eedc945689e74d2233db2205912588d9fd08fdc50bdff187fe441bfac74eb464736f6c634300060b0033",
  "linkReferences": {},
  "deployedLinkReferences": {}
}