{
  "_format": "hh-sol-artifact-1",
  "contractName": "BorrowerOperations",
  "sourceName": "contracts/BorrowerOperations.sol",
  "abi": [
    {
      "anonymous": false,
      "inputs": [
        {
          "indexed": false,
          "internalType": "address",
          "name": "_activePoolAddress",
          "type": "address"
        }
      ],
      "name": "ActivePoolAddressChanged",
      "type": "event"
    },
    {
      "anonymous": false,
      "inputs": [
        {
          "indexed": false,
          "internalType": "address",
          "name": "_collSurplusPoolAddress",
          "type": "address"
        }
      ],
      "name": "CollSurplusPoolAddressChanged",
      "type": "event"
    },
    {
      "anonymous": false,
      "inputs": [
        {
          "indexed": false,
          "internalType": "address",
          "name": "_defaultPoolAddress",
          "type": "address"
        }
      ],
      "name": "DefaultPoolAddressChanged",
      "type": "event"
    },
    {
      "anonymous": false,
      "inputs": [
        {
          "indexed": false,
          "internalType": "address",
          "name": "_gasPoolAddress",
          "type": "address"
        }
      ],
      "name": "GasPoolAddressChanged",
      "type": "event"
    },
    {
      "anonymous": false,
      "inputs": [
        {
          "indexed": false,
          "internalType": "address",
          "name": "_lqtyStakingAddress",
          "type": "address"
        }
      ],
      "name": "LQTYStakingAddressChanged",
      "type": "event"
    },
    {
      "anonymous": false,
      "inputs": [
        {
          "indexed": true,
          "internalType": "address",
          "name": "_borrower",
          "type": "address"
        },
        {
          "indexed": false,
          "internalType": "uint256",
          "name": "_LUSDFee",
          "type": "uint256"
        }
      ],
      "name": "LUSDBorrowingFeePaid",
      "type": "event"
    },
    {
      "anonymous": false,
      "inputs": [
        {
          "indexed": false,
          "internalType": "address",
          "name": "_lusdTokenAddress",
          "type": "address"
        }
      ],
      "name": "LUSDTokenAddressChanged",
      "type": "event"
    },
    {
      "anonymous": false,
      "inputs": [
        {
          "indexed": true,
          "internalType": "address",
          "name": "previousOwner",
          "type": "address"
        },
        {
          "indexed": true,
          "internalType": "address",
          "name": "newOwner",
          "type": "address"
        }
      ],
      "name": "OwnershipTransferred",
      "type": "event"
    },
    {
      "anonymous": false,
      "inputs": [
        {
          "indexed": false,
          "internalType": "address",
          "name": "_newPriceFeedAddress",
          "type": "address"
        }
      ],
      "name": "PriceFeedAddressChanged",
      "type": "event"
    },
    {
      "anonymous": false,
      "inputs": [
        {
          "indexed": false,
          "internalType": "address",
          "name": "_sortedTrovesAddress",
          "type": "address"
        }
      ],
      "name": "SortedTrovesAddressChanged",
      "type": "event"
    },
    {
      "anonymous": false,
      "inputs": [
        {
          "indexed": false,
          "internalType": "address",
          "name": "_stabilityPoolAddress",
          "type": "address"
        }
      ],
      "name": "StabilityPoolAddressChanged",
      "type": "event"
    },
    {
      "anonymous": false,
      "inputs": [
        {
          "indexed": true,
          "internalType": "address",
          "name": "_borrower",
          "type": "address"
        },
        {
          "indexed": false,
          "internalType": "uint256",
          "name": "arrayIndex",
          "type": "uint256"
        }
      ],
      "name": "TroveCreated",
      "type": "event"
    },
    {
      "anonymous": false,
      "inputs": [
        {
          "indexed": false,
          "internalType": "address",
          "name": "_newTroveManagerAddress",
          "type": "address"
        }
      ],
      "name": "TroveManagerAddressChanged",
      "type": "event"
    },
    {
      "anonymous": false,
      "inputs": [
        {
          "indexed": true,
          "internalType": "address",
          "name": "_borrower",
          "type": "address"
        },
        {
          "indexed": false,
          "internalType": "uint256",
          "name": "_debt",
          "type": "uint256"
        },
        {
          "indexed": false,
          "internalType": "uint256",
          "name": "_coll",
          "type": "uint256"
        },
        {
          "indexed": false,
          "internalType": "uint256",
          "name": "stake",
          "type": "uint256"
        },
        {
          "indexed": false,
          "internalType": "enum BorrowerOperations.BorrowerOperation",
          "name": "operation",
          "type": "uint8"
        }
      ],
      "name": "TroveUpdated",
      "type": "event"
    },
    {
      "inputs": [],
      "name": "CCR",
      "outputs": [
        {
          "internalType": "uint256",
          "name": "",
          "type": "uint256"
        }
      ],
      "stateMutability": "view",
      "type": "function"
    },
    {
      "inputs": [],
      "name": "DECIMAL_PRECISION",
      "outputs": [
        {
          "internalType": "uint256",
          "name": "",
          "type": "uint256"
        }
      ],
      "stateMutability": "view",
      "type": "function"
    },
    {
      "inputs": [],
      "name": "LUSD_GAS_COMPENSATION",
      "outputs": [
        {
          "internalType": "uint256",
          "name": "",
          "type": "uint256"
        }
      ],
      "stateMutability": "view",
      "type": "function"
    },
    {
      "inputs": [],
      "name": "MCR",
      "outputs": [
        {
          "internalType": "uint256",
          "name": "",
          "type": "uint256"
        }
      ],
      "stateMutability": "view",
      "type": "function"
    },
    {
      "inputs": [],
      "name": "PERCENT_DIVISOR",
      "outputs": [
        {
          "internalType": "uint256",
          "name": "",
          "type": "uint256"
        }
      ],
      "stateMutability": "view",
      "type": "function"
    },
    {
      "inputs": [],
      "name": "_100pct",
      "outputs": [
        {
          "internalType": "uint256",
          "name": "",
          "type": "uint256"
        }
      ],
      "stateMutability": "view",
      "type": "function"
    },
    {
      "inputs": [],
      "name": "activePool",
      "outputs": [
        {
          "internalType": "contract IActivePool",
          "name": "",
          "type": "address"
        }
      ],
      "stateMutability": "view",
      "type": "function"
    },
    {
      "inputs": [
        {
          "internalType": "address",
          "name": "_upperHint",
          "type": "address"
        },
        {
          "internalType": "address",
          "name": "_lowerHint",
          "type": "address"
        }
      ],
      "name": "addColl",
      "outputs": [],
      "stateMutability": "payable",
      "type": "function"
    },
    {
      "inputs": [
        {
          "internalType": "uint256",
          "name": "_maxFeePercentage",
          "type": "uint256"
        },
        {
          "internalType": "uint256",
          "name": "_collWithdrawal",
          "type": "uint256"
        },
        {
          "internalType": "uint256",
          "name": "_debtChange",
          "type": "uint256"
        },
        {
          "internalType": "bool",
          "name": "_isDebtIncrease",
          "type": "bool"
        },
        {
          "internalType": "address",
          "name": "_upperHint",
          "type": "address"
        },
        {
          "internalType": "address",
          "name": "_lowerHint",
          "type": "address"
        }
      ],
      "name": "adjustTrove",
      "outputs": [],
      "stateMutability": "payable",
      "type": "function"
    },
    {
      "inputs": [],
      "name": "claimCollateral",
      "outputs": [],
      "stateMutability": "nonpayable",
      "type": "function"
    },
    {
      "inputs": [],
      "name": "closeTrove",
      "outputs": [],
      "stateMutability": "nonpayable",
      "type": "function"
    },
    {
      "inputs": [],
      "name": "defaultPool",
      "outputs": [
        {
          "internalType": "contract IDefaultPool",
          "name": "",
          "type": "address"
        }
      ],
      "stateMutability": "view",
      "type": "function"
    },
    {
      "inputs": [
        {
          "internalType": "uint256",
          "name": "_debt",
          "type": "uint256"
        }
      ],
      "name": "getCompositeDebt",
      "outputs": [
        {
          "internalType": "uint256",
          "name": "",
          "type": "uint256"
        }
      ],
      "stateMutability": "pure",
      "type": "function"
    },
    {
      "inputs": [],
      "name": "getEntireSystemColl",
      "outputs": [
        {
          "internalType": "uint256",
          "name": "entireSystemColl",
          "type": "uint256"
        }
      ],
      "stateMutability": "view",
      "type": "function"
    },
    {
      "inputs": [],
      "name": "getEntireSystemDebt",
      "outputs": [
        {
          "internalType": "uint256",
          "name": "entireSystemDebt",
          "type": "uint256"
        }
      ],
      "stateMutability": "view",
      "type": "function"
    },
    {
      "inputs": [],
      "name": "isOwner",
      "outputs": [
        {
          "internalType": "bool",
          "name": "",
          "type": "bool"
        }
      ],
      "stateMutability": "view",
      "type": "function"
    },
    {
      "inputs": [],
      "name": "lqtyStaking",
      "outputs": [
        {
          "internalType": "contract ILQTYStaking",
          "name": "",
          "type": "address"
        }
      ],
      "stateMutability": "view",
      "type": "function"
    },
    {
      "inputs": [],
      "name": "lqtyStakingAddress",
      "outputs": [
        {
          "internalType": "address",
          "name": "",
          "type": "address"
        }
      ],
      "stateMutability": "view",
      "type": "function"
    },
    {
      "inputs": [],
      "name": "lusdToken",
      "outputs": [
        {
          "internalType": "contract ILUSDToken",
          "name": "",
          "type": "address"
        }
      ],
      "stateMutability": "view",
      "type": "function"
    },
    {
      "inputs": [
        {
          "internalType": "address",
          "name": "_borrower",
          "type": "address"
        },
        {
          "internalType": "address",
          "name": "_upperHint",
          "type": "address"
        },
        {
          "internalType": "address",
          "name": "_lowerHint",
          "type": "address"
        }
      ],
      "name": "moveETHGainToTrove",
      "outputs": [],
      "stateMutability": "payable",
      "type": "function"
    },
    {
      "inputs": [
        {
          "internalType": "uint256",
          "name": "_maxFeePercentage",
          "type": "uint256"
        },
        {
          "internalType": "uint256",
          "name": "_LUSDAmount",
          "type": "uint256"
        },
        {
          "internalType": "address",
          "name": "_upperHint",
          "type": "address"
        },
        {
          "internalType": "address",
          "name": "_lowerHint",
          "type": "address"
        }
      ],
      "name": "openTrove",
      "outputs": [],
      "stateMutability": "payable",
      "type": "function"
    },
    {
      "inputs": [],
      "name": "owner",
      "outputs": [
        {
          "internalType": "address",
          "name": "",
          "type": "address"
        }
      ],
      "stateMutability": "view",
      "type": "function"
    },
    {
      "inputs": [],
      "name": "priceFeed",
      "outputs": [
        {
          "internalType": "contract IPriceFeed",
          "name": "",
          "type": "address"
        }
      ],
      "stateMutability": "view",
      "type": "function"
    },
    {
      "inputs": [
        {
          "internalType": "uint256",
          "name": "_LUSDAmount",
          "type": "uint256"
        },
        {
          "internalType": "address",
          "name": "_upperHint",
          "type": "address"
        },
        {
          "internalType": "address",
          "name": "_lowerHint",
          "type": "address"
        }
      ],
      "name": "repayLUSD",
      "outputs": [],
      "stateMutability": "nonpayable",
      "type": "function"
    },
    {
      "inputs": [
        {
          "internalType": "address",
          "name": "_troveManagerAddress",
          "type": "address"
        },
        {
          "internalType": "address",
          "name": "_activePoolAddress",
          "type": "address"
        },
        {
          "internalType": "address",
          "name": "_defaultPoolAddress",
          "type": "address"
        },
        {
          "internalType": "address",
          "name": "_stabilityPoolAddress",
          "type": "address"
        },
        {
          "internalType": "address",
          "name": "_gasPoolAddress",
          "type": "address"
        },
        {
          "internalType": "address",
          "name": "_collSurplusPoolAddress",
          "type": "address"
        },
        {
          "internalType": "address",
          "name": "_priceFeedAddress",
          "type": "address"
        },
        {
          "internalType": "address",
          "name": "_sortedTrovesAddress",
          "type": "address"
        },
        {
          "internalType": "address",
          "name": "_lusdTokenAddress",
          "type": "address"
        },
        {
          "internalType": "address",
          "name": "_lqtyStakingAddress",
          "type": "address"
        }
      ],
      "name": "setAddresses",
      "outputs": [],
      "stateMutability": "nonpayable",
      "type": "function"
    },
    {
      "inputs": [],
      "name": "sortedTroves",
      "outputs": [
        {
          "internalType": "contract ISortedTroves",
          "name": "",
          "type": "address"
        }
      ],
      "stateMutability": "view",
      "type": "function"
    },
    {
      "inputs": [],
      "name": "troveManager",
      "outputs": [
        {
          "internalType": "contract ITroveManager",
          "name": "",
          "type": "address"
        }
      ],
      "stateMutability": "view",
      "type": "function"
    },
    {
      "inputs": [
        {
          "internalType": "uint256",
          "name": "_collWithdrawal",
          "type": "uint256"
        },
        {
          "internalType": "address",
          "name": "_upperHint",
          "type": "address"
        },
        {
          "internalType": "address",
          "name": "_lowerHint",
          "type": "address"
        }
      ],
      "name": "withdrawColl",
      "outputs": [],
      "stateMutability": "nonpayable",
      "type": "function"
    },
    {
      "inputs": [
        {
          "internalType": "uint256",
          "name": "_maxFeePercentage",
          "type": "uint256"
        },
        {
          "internalType": "uint256",
          "name": "_LUSDAmount",
          "type": "uint256"
        },
        {
          "internalType": "address",
          "name": "_upperHint",
          "type": "address"
        },
        {
          "internalType": "address",
          "name": "_lowerHint",
          "type": "address"
        }
      ],
      "name": "withdrawLUSD",
      "outputs": [],
      "stateMutability": "nonpayable",
      "type": "function"
    }
  ],
  "bytecode": "0x608060405234801561001057600080fd5b50600380546001600160a01b031916339081179091556040516000907f8be0079c531659141344cd1fd0a4f28419497f9722a3daafe3b4186f6b6457e0908290a36134b5806100606000396000f3fe6080604052600436106101825760003560e01c8063741bef1a116100d75780638da5cb5b116100855780638da5cb5b146104b65780638f32d59b146104cb578063a20baee6146103e9578063a3a64017146104f4578063ae91875414610509578063b83f91a21461051e578063c6a6cf2014610533578063ea9638bf1461057b57610182565b8063741bef1a146103fe578063761ab22c14610413578063794e572414610428578063795d26c31461043d5780637f7dde4a14610452578063860665b314610467578063887105d3146104a157610182565b80634ff81443116101345780634ff81443146102a85780635530273c146102d25780635733d58f1461031357806368647db1146103285780636c37a4af146103565780636f0b0c1c146103d457806372fe25aa146103e957610182565b806304491fa7146101875780630e704d50146101ca5780631184e5f8146101df5780632e86bbd8146102265780633cc742251461024d5780633d83908a1461027e5780634870dd9a14610293575b600080fd5b34801561019357600080fd5b506101c8600480360360608110156101aa57600080fd5b508035906001600160a01b03602082013581169160400135166105b3565b005b3480156101d657600080fd5b506101c86105ca565b3480156101eb57600080fd5b506101c86004803603608081101561020257600080fd5b508035906020810135906001600160a01b03604082013581169160600135166109a8565b34801561023257600080fd5b5061023b6109bf565b60408051918252519081900360200190f35b34801561025957600080fd5b506102626109cc565b604080516001600160a01b039092168252519081900360200190f35b34801561028a57600080fd5b506102626109db565b34801561029f57600080fd5b5061023b6109ea565b3480156102b457600080fd5b5061023b600480360360208110156102cb57600080fd5b50356109ef565b3480156102de57600080fd5b506101c8600480360360608110156102f557600080fd5b508035906001600160a01b0360208201358116916040013516610a00565b34801561031f57600080fd5b5061023b610a11565b6101c86004803603604081101561033e57600080fd5b506001600160a01b0381358116916020013516610a1d565b34801561036257600080fd5b506101c8600480360361014081101561037a57600080fd5b506001600160a01b038135811691602081013582169160408201358116916060810135821691608082013581169160a081013582169160c082013581169160e0810135821691610100820135811691610120013516610a33565b3480156103e057600080fd5b506101c8610dd8565b3480156103f557600080fd5b5061023b610e38565b34801561040a57600080fd5b50610262610e44565b34801561041f57600080fd5b50610262610e53565b34801561043457600080fd5b5061023b610e62565b34801561044957600080fd5b5061023b610e6e565b34801561045e57600080fd5b50610262610f6f565b6101c86004803603608081101561047d57600080fd5b508035906020810135906001600160a01b0360408201358116916060013516610f7e565b3480156104ad57600080fd5b5061023b6115bf565b3480156104c257600080fd5b5061026261167b565b3480156104d757600080fd5b506104e061168a565b604080519115158252519081900360200190f35b34801561050057600080fd5b5061026261169b565b34801561051557600080fd5b506102626116aa565b34801561052a57600080fd5b506102626116b9565b6101c8600480360360c081101561054957600080fd5b5080359060208101359060408101359060608101351515906001600160a01b03608082013581169160a00135166116c8565b6101c86004803603606081101561059157600080fd5b506001600160a01b0381358116916020810135821691604090910135166116df565b6105c5336000856000868660006116f5565b505050565b600454600054600a546001600160a01b039283169291821691166105ee8333611d28565b60025460408051630fdb11cf60e01b815290516000926001600160a01b031691630fdb11cf91600480830192602092919082900301818787803b15801561063457600080fd5b505af1158015610648573d6000803e3d6000fd5b505050506040513d602081101561065e57600080fd5b5051905061066b81611ded565b60408051630b07655760e01b815233600482015290516001600160a01b03861691630b07655791602480830192600092919082900301818387803b1580156106b257600080fd5b505af11580156106c6573d6000803e3d6000fd5b5050604080516309019aaf60e31b81523360048201529051600093506001600160a01b038816925063480cd57891602480820192602092909190829003018186803b15801561071457600080fd5b505afa158015610728573d6000803e3d6000fd5b505050506040513d602081101561073e57600080fd5b50516040805163d66a255360e01b815233600482015290519192506000916001600160a01b0388169163d66a2553916024808301926020929190829003018186803b15801561078c57600080fd5b505afa1580156107a0573d6000803e3d6000fd5b505050506040513d60208110156107b657600080fd5b505190506107dd84336107d8846802b5e3af16b188000063ffffffff611e3516565b611e7e565b60408051631fc5750960e31b815233600482015290516001600160a01b0388169163fe2ba84891602480830192600092919082900301818387803b15801561082457600080fd5b505af1158015610838573d6000803e3d6000fd5b5050604080516365e89c5760e11b815233600482015290516001600160a01b038a16935063cbd138ae9250602480830192600092919082900301818387803b15801561088357600080fd5b505af1158015610897573d6000803e3d6000fd5b50505050336001600160a01b03166000805160206132c683398151915260008060006001604051808581526020018481526020018381526020018260068111156108dd57fe5b60ff16815260200194505050505060405180910390a2610917858533610912856802b5e3af16b188000063ffffffff611e3516565b611f3e565b60065461093a90869086906001600160a01b03166802b5e3af16b1880000611f3e565b604080516364a197f360e01b81523360048201526024810184905290516001600160a01b038716916364a197f391604480830192600092919082900301818387803b15801561098857600080fd5b505af115801561099c573d6000803e3d6000fd5b50505050505050505050565b6109b933600085600186868a6116f5565b50505050565b6802b5e3af16b188000081565b6001546001600160a01b031681565b6004546001600160a01b031681565b60c881565b60006109fa8261201a565b92915050565b6105c53384600080868660006116f5565b6714d1120d7b16000081565b610a2f336000806000868660006116f5565b5050565b610a3b61168a565b610a8c576040805162461bcd60e51b815260206004820181905260248201527f4f776e61626c653a2063616c6c6572206973206e6f7420746865206f776e6572604482015290519081900360640190fd5b610a958a612035565b610a9e89612035565b610aa788612035565b610ab087612035565b610ab986612035565b610ac285612035565b610acb84612035565b610ad483612035565b610add82612035565b610ae681612035565b600480546001600160a01b03199081166001600160a01b038d81169182179093556000805483168d85161790556001805483168c85161790556005805483168b85161790556006805483168a8516179055600780548316898516179055600280548316888516179055600b80548316878516179055600a80548316868516179055600980548316938516938417905560088054909216909217905560408051918252517f143219c9e69b09e07e095fcc889b43d8f46ca892bba65f08dc3a0050869a5678916020908290030190a1604080516001600160a01b038b16815290517f78f058b189175430c48dc02699e3a0031ea4ff781536dc2fab847de4babdd8829181900360200190a1604080516001600160a01b038a16815290517f5ee0cae2f063ed938bb55046f6a932fb6ae792bf43624806bb90abe68a50be9b9181900360200190a1604080516001600160a01b038916815290517f82966d27eea39b038ee0fa30cd16532bb24f6e65d31cb58fb227aa5766cdcc7f9181900360200190a1604080516001600160a01b038816815290517fcfb07d791fcafc032b35837b50eb84b74df518cf4cc287e8084f47630fa70fa09181900360200190a1604080516001600160a01b038716815290517fe67f36a6e961157d6eff83b91f3af5a62131ceb6f04954ef74f51c1c05e7f88d9181900360200190a1604080516001600160a01b038616815290517f8c537274438aa850a330284665d81a85dd38267d09e4050d416bfc94142db2649181900360200190a1604080516001600160a01b038516815290517f65f4cf077bc01e4742eb5ad98326f6e95b63548ea24b17f8d5e823111fe788009181900360200190a1604080516001600160a01b038416815290517f227eec0ec317af6ab1a9587ffa1c84332522eb4c583a908f89babc05f8f339bd9181900360200190a1604080516001600160a01b038316815290517f756ebc192164c295bba134b5aacd72cc7aff8098a670d1f0a5f6b3a0b4ce67079181900360200190a161099c6120e4565b6007546040805163b32beb5b60e01b815233600482015290516001600160a01b039092169163b32beb5b9160248082019260009290919082900301818387803b158015610e2457600080fd5b505af11580156109b9573d6000803e3d6000fd5b670de0b6b3a764000081565b6002546001600160a01b031681565b6009546001600160a01b031681565b670f43fc2c04ee000081565b6000805460408051632f5a97e560e11b8152905183926001600160a01b031691635eb52fca916004808301926020929190829003018186803b158015610eb357600080fd5b505afa158015610ec7573d6000803e3d6000fd5b505050506040513d6020811015610edd57600080fd5b505160015460408051632f5a97e560e11b815290519293506000926001600160a01b0390921691635eb52fca91600480820192602092909190829003018186803b158015610f2a57600080fd5b505afa158015610f3e573d6000803e3d6000fd5b505050506040513d6020811015610f5457600080fd5b50519050610f68828263ffffffff61212e16565b9250505090565b6000546001600160a01b031681565b610f86613013565b50604080516060810182526004546001600160a01b03908116825260005481166020830152600a541691810191909152610fbe613033565b8415610fcd57610fcd86612188565b8151610fd990336121e2565b600260009054906101000a90046001600160a01b03166001600160a01b0316630fdb11cf6040518163ffffffff1660e01b8152600401602060405180830381600087803b15801561102957600080fd5b505af115801561103d573d6000803e3d6000fd5b505050506040513d602081101561105357600080fd5b50518082526040820186905260009061106b906122be565b90508015801561107b5750600086115b156110b55761109483600001518460400151888a6122db565b6020830181905260408301516110af9163ffffffff61212e16565b60408301525b6110c2826040015161201a565b606083018190526110cf57fe5b6110e2348360600151846000015161248b565b608083015260608201516110f79034906124c9565b60a083015280156111145761110f82608001516124fe565b611147565b6111218260800151612545565b600061113a34600185606001516001876000015161258c565b905061114581612617565b505b825160408051635d6b480f60e01b81523360048201526001602482015290516001600160a01b0390921691635d6b480f9160448082019260009290919082900301818387803b15801561119957600080fd5b505af11580156111ad573d6000803e3d6000fd5b50508451604080516372423c1760e01b815233600482015234602482015290516001600160a01b0390921693506372423c1792506044808201926020929091908290030181600087803b15801561120357600080fd5b505af1158015611217573d6000803e3d6000fd5b505050506040513d602081101561122d57600080fd5b50508251606083015160408051639976cf4560e01b81523360048201526024810192909252516001600160a01b0390921691639976cf45916044808201926020929091908290030181600087803b15801561128757600080fd5b505af115801561129b573d6000803e3d6000fd5b505050506040513d60208110156112b157600080fd5b50508251604080516382fe3eb960e01b815233600482015290516001600160a01b03909216916382fe3eb99160248082019260009290919082900301818387803b1580156112fe57600080fd5b505af1158015611312573d6000803e3d6000fd5b5050845160408051630c7940bd60e11b815233600482015290516001600160a01b0390921693506318f2817a92506024808201926020929091908290030181600087803b15801561136257600080fd5b505af1158015611376573d6000803e3d6000fd5b505050506040513d602081101561138c57600080fd5b505160c0830152600b5460a0830151604080516346f7cf8760e01b815233600482015260248101929092526001600160a01b038881166044840152878116606484015290519216916346f7cf879160848082019260009290919082900301818387803b1580156113fb57600080fd5b505af115801561140f573d6000803e3d6000fd5b50508451604080516315d549f160e01b815233600482015290516001600160a01b0390921693506315d549f192506024808201926020929091908290030181600087803b15801561145f57600080fd5b505af1158015611473573d6000803e3d6000fd5b505050506040513d602081101561148957600080fd5b505160e08301819052604080519182525133917f59cfd0cd754bc5748b6770e94a4ffa5f678d885cb899dcfadc5734edb97c67ab919081900360200190a26114d583602001513461265e565b85156114f4576114f483602001518460400151338986604001516126ee565b602083015160408401516006546115209291906001600160a01b03166802b5e3af16b1880000806126ee565b336001600160a01b03166000805160206132c68339815191528360600151348560c0015160006040518085815260200184815260200183815260200182600681111561156857fe5b60ff16815260200194505050505060405180910390a2602080830151604080519182525133927fa55c5f48fd29482ad55f4b59bf070cd1ac1a7132a31f7a136ebe8877ae37e1ff928290030190a250505050505050565b6000805460408051630a7b61df60e11b8152905183926001600160a01b0316916314f6c3be916004808301926020929190829003018186803b15801561160457600080fd5b505afa158015611618573d6000803e3d6000fd5b505050506040513d602081101561162e57600080fd5b505160015460408051630a7b61df60e11b815290519293506000926001600160a01b03909216916314f6c3be91600480820192602092909190829003018186803b158015610f2a57600080fd5b6003546001600160a01b031690565b6003546001600160a01b0316331490565b6008546001600160a01b031681565b600b546001600160a01b031681565b600a546001600160a01b031681565b6116d73386868686868c6116f5565b505050505050565b6116e76127cb565b6105c5836000806000868660005b6116fd613013565b50604080516060810182526004546001600160a01b03908116825260005481166020830152600a541691810191909152841561173c5761173c82612188565b61174587612816565b61174f878761285c565b805161175b9089611d28565b6000871515806117685750855b9050801561177957611779896128ae565b611781613078565b600260009054906101000a90046001600160a01b03166001600160a01b0316630fdb11cf6040518163ffffffff1660e01b8152600401602060405180830381600087803b1580156117d157600080fd5b505af11580156117e5573d6000803e3d6000fd5b505050506040513d60208110156117fb57600080fd5b505180825260009061180c906122be565b905083600001516001600160a01b0316630b0765578c6040518263ffffffff1660e01b815260040180826001600160a01b03166001600160a01b03168152602001915050600060405180830381600087803b15801561186a57600080fd5b505af115801561187e573d6000803e3d6000fd5b5050505061188c348b6128f5565b1515606084015260208301526040820189905287156118e9576118ae89612914565b806118e9576118c7846000015185604001518b886122db565b610100830181905260408301516118e39163ffffffff61212e16565b60408301525b83600001516001600160a01b031663d66a25538c6040518263ffffffff1660e01b815260040180826001600160a01b03166001600160a01b0316815260200191505060206040518083038186803b15801561194357600080fd5b505afa158015611957573d6000803e3d6000fd5b505050506040513d602081101561196d57600080fd5b505160808301528351604080516309019aaf60e31b81526001600160a01b038e811660048301529151919092169163480cd578916024808301926020929190829003018186803b1580156119c057600080fd5b505afa1580156119d4573d6000803e3d6000fd5b505050506040513d60208110156119ea57600080fd5b505160a0830181905260808301518351611a0592919061248b565b8260c0018181525050611a358260a0015183608001518460200151856060015186604001518d8860000151612953565b60e08301528215611a85578160a001518a1115611a4e57fe5b6000611a6d8360200151846060015185604001518c876000015161258c565b9050611a83828460c001518560e0015184612986565b505b87158015611a935750600089115b15611abd57611aaa826080015183604001516129ac565b611abd84604001518c8460400151611e7e565b611adb84600001518c8460200151856060015186604001518d612a03565b610120840152610140830152835160408051630c7940bd60e11b81526001600160a01b038e81166004830152915191909216916318f2817a9160248083019260209291908290030181600087803b158015611b3557600080fd5b505af1158015611b49573d6000803e3d6000fd5b505050506040513d6020811015611b5f57600080fd5b505161016083015260a08201516080830151602084015160608501516040860151600094611b93949093909290918e612c63565b9050600b60009054906101000a90046001600160a01b03166001600160a01b0316632be212608d838b8b6040518563ffffffff1660e01b815260040180856001600160a01b03166001600160a01b03168152602001848152602001836001600160a01b03166001600160a01b03168152602001826001600160a01b03166001600160a01b03168152602001945050505050600060405180830381600087803b158015611c3e57600080fd5b505af1158015611c52573d6000803e3d6000fd5b505050508b6001600160a01b03166000805160206132c6833981519152846101200151856101400151866101600151600660405180858152602001848152602001838152602001826006811115611ca557fe5b60ff16815260200194505050505060405180910390a2610100830151604080519182525133917fa55c5f48fd29482ad55f4b59bf070cd1ac1a7132a31f7a136ebe8877ae37e1ff919081900360200190a2611d1a8560200151866040015133866020015187606001518f8f8a60400151612c94565b505050505050505050505050565b6000826001600160a01b03166321e37801836040518263ffffffff1660e01b815260040180826001600160a01b03166001600160a01b0316815260200191505060206040518083038186803b158015611d8057600080fd5b505afa158015611d94573d6000803e3d6000fd5b505050506040513d6020811015611daa57600080fd5b50519050600181146105c55760405162461bcd60e51b815260040180806020018281038252602e815260200180613298602e913960400191505060405180910390fd5b611df6816122be565b15611e325760405162461bcd60e51b81526004018080602001828103825260398152602001806131af6039913960400191505060405180910390fd5b50565b6000611e7783836040518060400160405280601e81526020017f536166654d6174683a207375627472616374696f6e206f766572666c6f770000815250612d41565b9392505050565b80836001600160a01b03166370a08231846040518263ffffffff1660e01b815260040180826001600160a01b03166001600160a01b0316815260200191505060206040518083038186803b158015611ed557600080fd5b505afa158015611ee9573d6000803e3d6000fd5b505050506040513d6020811015611eff57600080fd5b505110156105c55760405162461bcd60e51b81526004018080602001828103825260408152602001806132e66040913960400191505060405180910390fd5b836001600160a01b03166338d995a8826040518263ffffffff1660e01b815260040180828152602001915050600060405180830381600087803b158015611f8457600080fd5b505af1158015611f98573d6000803e3d6000fd5b50505050826001600160a01b0316639dc29fac83836040518363ffffffff1660e01b815260040180836001600160a01b03166001600160a01b0316815260200182815260200192505050600060405180830381600087803b158015611ffc57600080fd5b505af1158015612010573d6000803e3d6000fd5b5050505050505050565b60006109fa826802b5e3af16b188000063ffffffff61212e16565b6001600160a01b038116612090576040805162461bcd60e51b815260206004820152601e60248201527f4163636f756e742063616e6e6f74206265207a65726f20616464726573730000604482015290519081900360640190fd5b803b80610a2f576040805162461bcd60e51b815260206004820181905260248201527f4163636f756e7420636f64652073697a652063616e6e6f74206265207a65726f604482015290519081900360640190fd5b6003546040516000916001600160a01b0316907f8be0079c531659141344cd1fd0a4f28419497f9722a3daafe3b4186f6b6457e0908390a3600380546001600160a01b0319169055565b600082820183811015611e77576040805162461bcd60e51b815260206004820152601b60248201527f536166654d6174683a206164646974696f6e206f766572666c6f770000000000604482015290519081900360640190fd5b6611c37937e0800081101580156121a75750670de0b6b3a76400008111155b611e325760405162461bcd60e51b81526004018080602001828103825260308152602001806133db6030913960400191505060405180910390fd5b6000826001600160a01b03166321e37801836040518263ffffffff1660e01b815260040180826001600160a01b03166001600160a01b0316815260200191505060206040518083038186803b15801561223a57600080fd5b505afa15801561224e573d6000803e3d6000fd5b505050506040513d602081101561226457600080fd5b5051905060018114156105c5576040805162461bcd60e51b815260206004820152601c60248201527f426f72726f7765724f70733a2054726f76652069732061637469766500000000604482015290519081900360640190fd5b6000806122ca83612dd8565b6714d1120d7b160000119392505050565b6000846001600160a01b0316635dba4c4a6040518163ffffffff1660e01b8152600401600060405180830381600087803b15801561231857600080fd5b505af115801561232c573d6000803e3d6000fd5b505050506000856001600160a01b031663631203b0856040518263ffffffff1660e01b81526004018082815260200191505060206040518083038186803b15801561237657600080fd5b505afa15801561238a573d6000803e3d6000fd5b505050506040513d60208110156123a057600080fd5b505190506123af818585612e04565b60085460408051634677ffb360e01b81526004810184905290516001600160a01b0390921691634677ffb39160248082019260009290919082900301818387803b1580156123fc57600080fd5b505af1158015612410573d6000803e3d6000fd5b5050600954604080516340c10f1960e01b81526001600160a01b03928316600482015260248101869052905191891693506340c10f19925060448082019260009290919082900301818387803b15801561246957600080fd5b505af115801561247d573d6000803e3d6000fd5b509298975050505050505050565b600082156124be5760006124b5846124a9878663ffffffff612e7916565b9063ffffffff612ed216565b9150611e779050565b506000199392505050565b600081156124f5576124ee826124a98568056bc75e2d6310000063ffffffff612e7916565b90506109fa565b506000196109fa565b6714d1120d7b160000811015611e325760405162461bcd60e51b815260040180806020018281038252603d8152602001806130dc603d913960400191505060405180910390fd5b670f43fc2c04ee0000811015611e325760405162461bcd60e51b81526004018080602001828103825260498152602001806133266049913960600191505060405180910390fd5b6000806125976115bf565b905060006125a3610e6e565b9050866125bf576125ba828963ffffffff611e3516565b6125cf565b6125cf828963ffffffff61212e16565b9150846125eb576125e6818763ffffffff611e3516565b6125fb565b6125fb818763ffffffff61212e16565b9050600061260a83838761248b565b9998505050505050505050565b6714d1120d7b160000811015611e325760405162461bcd60e51b815260040180806020018281038252604981526020018061324f6049913960600191505060405180910390fd5b6040516000906001600160a01b0384169083908381818185875af1925050503d80600081146126a9576040519150601f19603f3d011682016040523d82523d6000602084013e6126ae565b606091505b50509050806105c55760405162461bcd60e51b815260040180806020018281038252602d815260200180613119602d913960400191505060405180910390fd5b846001600160a01b031663cfb9329a826040518263ffffffff1660e01b815260040180828152602001915050600060405180830381600087803b15801561273457600080fd5b505af1158015612748573d6000803e3d6000fd5b50505050836001600160a01b03166340c10f1984846040518363ffffffff1660e01b815260040180836001600160a01b03166001600160a01b0316815260200182815260200192505050600060405180830381600087803b1580156127ac57600080fd5b505af11580156127c0573d6000803e3d6000fd5b505050505050505050565b6005546001600160a01b031633146128145760405162461bcd60e51b81526004018080602001828103825260298152602001806133b26029913960400191505060405180910390fd5b565b341580612821575080155b611e325760405162461bcd60e51b815260040180806020018281038252603081526020018061317f6030913960400191505060405180910390fd5b3415158061286957508115155b8061287357508015155b610a2f5760405162461bcd60e51b81526004018080602001828103825260468152602001806131e86046913960600191505060405180910390fd5b336001600160a01b03821614611e325760405162461bcd60e51b81526004018080602001828103825260398152602001806131466039913960400191505060405180910390fd5b60008083156129095750829050600161290d565b8291505b9250929050565b60008111611e325760405162461bcd60e51b815260040180806020018281038252603781526020018061340b6037913960400191505060405180910390fd5b60008060006129668a8a8a8a8a8a612f14565b91509150600061297783838761248b565b9b9a5050505050505050505050565b61298f82612545565b836129a25761299d81612617565b6109b9565b6109b98284612f6f565b6129c5826802b5e3af16b188000063ffffffff611e3516565b811115610a2f5760405162461bcd60e51b815260040180806020018281038252604381526020018061336f6043913960600191505060405180910390fd5b600080600085612a9e57886001600160a01b031663d3d6f84389896040518363ffffffff1660e01b815260040180836001600160a01b03166001600160a01b0316815260200182815260200192505050602060405180830381600087803b158015612a6d57600080fd5b505af1158015612a81573d6000803e3d6000fd5b505050506040513d6020811015612a9757600080fd5b5051612b2b565b886001600160a01b03166372423c1789896040518363ffffffff1660e01b815260040180836001600160a01b03166001600160a01b0316815260200182815260200192505050602060405180830381600087803b158015612afe57600080fd5b505af1158015612b12573d6000803e3d6000fd5b505050506040513d6020811015612b2857600080fd5b50515b9050600084612bc557896001600160a01b03166312610e928a886040518363ffffffff1660e01b815260040180836001600160a01b03166001600160a01b0316815260200182815260200192505050602060405180830381600087803b158015612b9457600080fd5b505af1158015612ba8573d6000803e3d6000fd5b505050506040513d6020811015612bbe57600080fd5b5051612c52565b896001600160a01b0316639976cf458a886040518363ffffffff1660e01b815260040180836001600160a01b03166001600160a01b0316815260200182815260200192505050602060405180830381600087803b158015612c2557600080fd5b505af1158015612c39573d6000803e3d6000fd5b505050506040513d6020811015612c4f57600080fd5b50515b919a91995090975050505050505050565b6000806000612c76898989898989612f14565b915091506000612c8683836124c9565b9a9950505050505050505050565b8115612cac57612ca788888886856126ee565b612cb8565b612cb888888886611f3e565b8315612ccd57612cc8888661265e565b612010565b876001600160a01b03166364a197f387876040518363ffffffff1660e01b815260040180836001600160a01b03166001600160a01b0316815260200182815260200192505050600060405180830381600087803b158015612d2d57600080fd5b505af1158015611d1a573d6000803e3d6000fd5b60008184841115612dd05760405162461bcd60e51b81526004018080602001828103825283818151815260200191508051906020019080838360005b83811015612d95578181015183820152602001612d7d565b50505050905090810190601f168015612dc25780820380516001836020036101000a031916815260200191505b509250505060405180910390fd5b505050900390565b600080612de36115bf565b90506000612def610e6e565b9050612dfc82828661248b565b949350505050565b6000612e22836124a986670de0b6b3a764000063ffffffff612e7916565b9050818111156109b9576040805162461bcd60e51b815260206004820152601d60248201527f4665652065786365656465642070726f7669646564206d6178696d756d000000604482015290519081900360640190fd5b600082612e88575060006109fa565b82820282848281612e9557fe5b0414611e775760405162461bcd60e51b815260040180806020018281038252602181526020018061322e6021913960400191505060405180910390fd5b6000611e7783836040518060400160405280601a81526020017f536166654d6174683a206469766973696f6e206279207a65726f000000000000815250612fae565b600080878786612f3357612f2e8a8963ffffffff611e3516565b612f43565b612f438a8963ffffffff61212e16565b915084612f5f57612f5a898763ffffffff611e3516565b612c52565b612c52898763ffffffff61212e16565b80821015610a2f5760405162461bcd60e51b815260040180806020018281038252603e815260200180613442603e913960400191505060405180910390fd5b60008183612ffd5760405162461bcd60e51b8152602060048201818152835160248401528351909283926044909101919085019080838360008315612d95578181015183820152602001612d7d565b50600083858161300957fe5b0495945050505050565b604080516060810182526000808252602082018190529181019190915290565b60405180610100016040528060008152602001600081526020016000815260200160008152602001600081526020016000815260200160008152602001600081525090565b6040518061018001604052806000815260200160008152602001600081526020016000151581526020016000815260200160008152602001600081526020016000815260200160008152602001600081526020016000815260200160008152509056fe426f72726f7765724f70733a20496e205265636f76657279204d6f6465206e65772074726f766573206d757374206861766520494352203e3d20434352426f72726f7765724f70733a2053656e64696e672045544820746f20416374697665506f6f6c206661696c6564426f72726f7765724f70733a2043616c6c6572206d7573742062652074686520626f72726f77657220666f722061207769746864726177616c426f72726f7765724f7065726174696f6e733a2043616e6e6f7420776974686472617720616e642061646420636f6c6c426f72726f7765724f70733a204f7065726174696f6e206e6f74207065726d697474656420647572696e67205265636f76657279204d6f6465426f72726f7765724f70733a205468657265206d75737420626520656974686572206120636f6c6c61746572616c206368616e6765206f7220612064656274206368616e6765536166654d6174683a206d756c7469706c69636174696f6e206f766572666c6f77426f72726f7765724f70733a20416e206f7065726174696f6e207468617420776f756c6420726573756c7420696e20544352203c20434352206973206e6f74207065726d6974746564426f72726f7765724f70733a2054726f766520646f6573206e6f74206578697374206f7220697320636c6f736564c3770d654ed33aeea6bf11ac8ef05d02a6a04ed4686dd2f624d853bbec43cc8b426f72726f7765724f70733a2043616c6c657220646f65736e74206861766520656e6f756768204c55534420746f20636c6f73652074686569722074726f7665426f72726f7765724f70733a20416e206f7065726174696f6e207468617420776f756c6420726573756c7420696e20494352203c204d4352206973206e6f74207065726d6974746564426f72726f7765724f70733a20416d6f756e7420726570616964206d757374206e6f74206265206c6172676572207468616e207468652054726f766527732064656274426f72726f7765724f70733a2043616c6c6572206973206e6f742053746162696c69747920506f6f6c4d6178206665652070657263656e74616765206d757374206265206265747765656e20302e352520616e642031303025426f72726f7765724f70733a204465627420696e637265617365207265717569726573206e6f6e2d7a65726f20646562744368616e6765426f72726f7765724f70733a2043616e6e6f7420646563726561736520796f75722054726f766527732049435220696e205265636f76657279204d6f6465a2646970667358221220a7e76632b01a99b11aa79c67762d76601f4164c363a4f66d0cd4b3861aae3bb864736f6c634300060b0033",
  "linkReferences": {},
  "deployedLinkReferences": {}
}