{
  "_format": "hh-sol-artifact-1",
  "contractName": "BorrowerOperationsTester",
  "sourceName": "contracts/TestContracts/BorrowerOperationsTester.sol",
  "abi": [
    {
      "anonymous": false,
      "inputs": [
        {
          "indexed": false,
          "internalType": "address",
          "name": "_activePoolAddress",
          "type": "address"
        }
      ],
      "name": "ActivePoolAddressChanged",
      "type": "event"
    },
    {
      "anonymous": false,
      "inputs": [
        {
          "indexed": false,
          "internalType": "address",
          "name": "_collSurplusPoolAddress",
          "type": "address"
        }
      ],
      "name": "CollSurplusPoolAddressChanged",
      "type": "event"
    },
    {
      "anonymous": false,
      "inputs": [
        {
          "indexed": false,
          "internalType": "address",
          "name": "_defaultPoolAddress",
          "type": "address"
        }
      ],
      "name": "DefaultPoolAddressChanged",
      "type": "event"
    },
    {
      "anonymous": false,
      "inputs": [
        {
          "indexed": false,
          "internalType": "address",
          "name": "_lqtyStakingAddress",
          "type": "address"
        }
      ],
      "name": "LQTYStakingAddressChanged",
      "type": "event"
    },
    {
      "anonymous": false,
      "inputs": [
        {
          "indexed": true,
          "internalType": "address",
          "name": "_borrower",
          "type": "address"
        },
        {
          "indexed": false,
          "internalType": "uint256",
          "name": "_LUSDFee",
          "type": "uint256"
        }
      ],
      "name": "LUSDBorrowingFeePaid",
      "type": "event"
    },
    {
      "anonymous": false,
      "inputs": [
        {
          "indexed": false,
          "internalType": "address",
          "name": "_lusdTokenAddress",
          "type": "address"
        }
      ],
      "name": "LUSDTokenAddressChanged",
      "type": "event"
    },
    {
      "anonymous": false,
      "inputs": [
        {
          "indexed": true,
          "internalType": "address",
          "name": "previousOwner",
          "type": "address"
        },
        {
          "indexed": true,
          "internalType": "address",
          "name": "newOwner",
          "type": "address"
        }
      ],
      "name": "OwnershipTransferred",
      "type": "event"
    },
    {
      "anonymous": false,
      "inputs": [
        {
          "indexed": false,
          "internalType": "address",
          "name": "_newPriceFeedAddress",
          "type": "address"
        }
      ],
      "name": "PriceFeedAddressChanged",
      "type": "event"
    },
    {
      "anonymous": false,
      "inputs": [
        {
          "indexed": true,
          "internalType": "address",
          "name": "_user",
          "type": "address"
        }
      ],
      "name": "RedeemedCollateralClaimed",
      "type": "event"
    },
    {
      "anonymous": false,
      "inputs": [
        {
          "indexed": false,
          "internalType": "address",
          "name": "_sortedTrovesAddress",
          "type": "address"
        }
      ],
      "name": "SortedTrovesAddressChanged",
      "type": "event"
    },
    {
      "anonymous": false,
      "inputs": [
        {
          "indexed": false,
          "internalType": "address",
          "name": "_stabilityPoolAddress",
          "type": "address"
        }
      ],
      "name": "StabilityPoolAddressChanged",
      "type": "event"
    },
    {
      "anonymous": false,
      "inputs": [
        {
          "indexed": true,
          "internalType": "address",
          "name": "_borrower",
          "type": "address"
        },
        {
          "indexed": false,
          "internalType": "uint256",
          "name": "arrayIndex",
          "type": "uint256"
        }
      ],
      "name": "TroveCreated",
      "type": "event"
    },
    {
      "anonymous": false,
      "inputs": [
        {
          "indexed": false,
          "internalType": "address",
          "name": "_newTroveManagerAddress",
          "type": "address"
        }
      ],
      "name": "TroveManagerAddressChanged",
      "type": "event"
    },
    {
      "anonymous": false,
      "inputs": [
        {
          "indexed": true,
          "internalType": "address",
          "name": "_borrower",
          "type": "address"
        },
        {
          "indexed": false,
          "internalType": "uint256",
          "name": "_debt",
          "type": "uint256"
        },
        {
          "indexed": false,
          "internalType": "uint256",
          "name": "_coll",
          "type": "uint256"
        },
        {
          "indexed": false,
          "internalType": "uint256",
          "name": "stake",
          "type": "uint256"
        },
        {
          "indexed": false,
          "internalType": "enum BorrowerOperations.BorrowerOperation",
          "name": "operation",
          "type": "uint8"
        }
      ],
      "name": "TroveUpdated",
      "type": "event"
    },
    {
      "inputs": [],
      "name": "CCR",
      "outputs": [
        {
          "internalType": "uint256",
          "name": "",
          "type": "uint256"
        }
      ],
      "stateMutability": "view",
      "type": "function"
    },
    {
      "inputs": [],
      "name": "GAS_POOL_ADDRESS",
      "outputs": [
        {
          "internalType": "address",
          "name": "",
          "type": "address"
        }
      ],
      "stateMutability": "view",
      "type": "function"
    },
    {
      "inputs": [],
      "name": "LUSD_GAS_COMPENSATION",
      "outputs": [
        {
          "internalType": "uint256",
          "name": "",
          "type": "uint256"
        }
      ],
      "stateMutability": "view",
      "type": "function"
    },
    {
      "inputs": [],
      "name": "MCR",
      "outputs": [
        {
          "internalType": "uint256",
          "name": "",
          "type": "uint256"
        }
      ],
      "stateMutability": "view",
      "type": "function"
    },
    {
      "inputs": [],
      "name": "PERCENT_DIVISOR",
      "outputs": [
        {
          "internalType": "uint256",
          "name": "",
          "type": "uint256"
        }
      ],
      "stateMutability": "view",
      "type": "function"
    },
    {
      "inputs": [],
      "name": "R_MCR",
      "outputs": [
        {
          "internalType": "uint256",
          "name": "",
          "type": "uint256"
        }
      ],
      "stateMutability": "view",
      "type": "function"
    },
    {
      "inputs": [],
      "name": "_100pct",
      "outputs": [
        {
          "internalType": "uint256",
          "name": "",
          "type": "uint256"
        }
      ],
      "stateMutability": "view",
      "type": "function"
    },
    {
      "inputs": [],
      "name": "activePool",
      "outputs": [
        {
          "internalType": "contract IPool",
          "name": "",
          "type": "address"
        }
      ],
      "stateMutability": "view",
      "type": "function"
    },
    {
      "inputs": [
        {
          "internalType": "address",
          "name": "_hint",
          "type": "address"
        }
      ],
      "name": "addColl",
      "outputs": [],
      "stateMutability": "payable",
      "type": "function"
    },
    {
      "inputs": [
        {
          "internalType": "uint256",
          "name": "_collWithdrawal",
          "type": "uint256"
        },
        {
          "internalType": "uint256",
          "name": "_debtChange",
          "type": "uint256"
        },
        {
          "internalType": "bool",
          "name": "_isDebtIncrease",
          "type": "bool"
        },
        {
          "internalType": "address",
          "name": "_hint",
          "type": "address"
        }
      ],
      "name": "adjustTrove",
      "outputs": [],
      "stateMutability": "payable",
      "type": "function"
    },
    {
      "inputs": [
        {
          "internalType": "address",
          "name": "_borrower",
          "type": "address"
        },
        {
          "internalType": "uint256",
          "name": "_collWithdrawal",
          "type": "uint256"
        },
        {
          "internalType": "uint256",
          "name": "_debtChange",
          "type": "uint256"
        },
        {
          "internalType": "bool",
          "name": "_isDebtIncrease",
          "type": "bool"
        },
        {
          "internalType": "address",
          "name": "_hint",
          "type": "address"
        }
      ],
      "name": "callInternalAdjustLoan",
      "outputs": [],
      "stateMutability": "nonpayable",
      "type": "function"
    },
    {
      "inputs": [
        {
          "internalType": "address",
          "name": "_user",
          "type": "address"
        }
      ],
      "name": "claimRedeemedCollateral",
      "outputs": [],
      "stateMutability": "nonpayable",
      "type": "function"
    },
    {
      "inputs": [],
      "name": "closeTrove",
      "outputs": [],
      "stateMutability": "nonpayable",
      "type": "function"
    },
    {
      "inputs": [],
      "name": "defaultPool",
      "outputs": [
        {
          "internalType": "contract IPool",
          "name": "",
          "type": "address"
        }
      ],
      "stateMutability": "view",
      "type": "function"
    },
    {
      "inputs": [
        {
          "internalType": "uint256",
          "name": "_debt",
          "type": "uint256"
        }
      ],
      "name": "getCompositeDebt",
      "outputs": [
        {
          "internalType": "uint256",
          "name": "",
          "type": "uint256"
        }
      ],
      "stateMutability": "pure",
      "type": "function"
    },
    {
      "inputs": [
        {
          "internalType": "uint256",
          "name": "_coll",
          "type": "uint256"
        },
        {
          "internalType": "uint256",
          "name": "_debt",
          "type": "uint256"
        },
        {
          "internalType": "uint256",
          "name": "_collChange",
          "type": "uint256"
        },
        {
          "internalType": "bool",
          "name": "isCollIncrease",
          "type": "bool"
        },
        {
          "internalType": "uint256",
          "name": "_debtChange",
          "type": "uint256"
        },
        {
          "internalType": "bool",
          "name": "isDebtIncrease",
          "type": "bool"
        },
        {
          "internalType": "uint256",
          "name": "_price",
          "type": "uint256"
        }
      ],
      "name": "getNewICRFromTroveChange",
      "outputs": [
        {
          "internalType": "uint256",
          "name": "",
          "type": "uint256"
        }
      ],
      "stateMutability": "pure",
      "type": "function"
    },
    {
      "inputs": [
        {
          "internalType": "uint256",
          "name": "_collChange",
          "type": "uint256"
        },
        {
          "internalType": "bool",
          "name": "isCollIncrease",
          "type": "bool"
        },
        {
          "internalType": "uint256",
          "name": "_debtChange",
          "type": "uint256"
        },
        {
          "internalType": "bool",
          "name": "isDebtIncrease",
          "type": "bool"
        },
        {
          "internalType": "uint256",
          "name": "_price",
          "type": "uint256"
        }
      ],
      "name": "getNewTCRFromTroveChange",
      "outputs": [
        {
          "internalType": "uint256",
          "name": "",
          "type": "uint256"
        }
      ],
      "stateMutability": "view",
      "type": "function"
    },
    {
      "inputs": [
        {
          "internalType": "uint256",
          "name": "_coll",
          "type": "uint256"
        },
        {
          "internalType": "uint256",
          "name": "_price",
          "type": "uint256"
        }
      ],
      "name": "getUSDValue",
      "outputs": [
        {
          "internalType": "uint256",
          "name": "",
          "type": "uint256"
        }
      ],
      "stateMutability": "pure",
      "type": "function"
    },
    {
      "inputs": [],
      "name": "isOwner",
      "outputs": [
        {
          "internalType": "bool",
          "name": "",
          "type": "bool"
        }
      ],
      "stateMutability": "view",
      "type": "function"
    },
    {
      "inputs": [],
      "name": "lqtyStaking",
      "outputs": [
        {
          "internalType": "contract ILQTYStaking",
          "name": "",
          "type": "address"
        }
      ],
      "stateMutability": "view",
      "type": "function"
    },
    {
      "inputs": [],
      "name": "lqtyStakingAddress",
      "outputs": [
        {
          "internalType": "address",
          "name": "",
          "type": "address"
        }
      ],
      "stateMutability": "view",
      "type": "function"
    },
    {
      "inputs": [],
      "name": "lusdToken",
      "outputs": [
        {
          "internalType": "contract ILUSDToken",
          "name": "",
          "type": "address"
        }
      ],
      "stateMutability": "view",
      "type": "function"
    },
    {
      "inputs": [
        {
          "internalType": "address",
          "name": "_borrower",
          "type": "address"
        },
        {
          "internalType": "address",
          "name": "_hint",
          "type": "address"
        }
      ],
      "name": "moveETHGainToTrove",
      "outputs": [],
      "stateMutability": "payable",
      "type": "function"
    },
    {
      "inputs": [
        {
          "internalType": "uint256",
          "name": "_LUSDAmount",
          "type": "uint256"
        },
        {
          "internalType": "address",
          "name": "_hint",
          "type": "address"
        }
      ],
      "name": "openTrove",
      "outputs": [],
      "stateMutability": "payable",
      "type": "function"
    },
    {
      "inputs": [],
      "name": "owner",
      "outputs": [
        {
          "internalType": "address",
          "name": "",
          "type": "address"
        }
      ],
      "stateMutability": "view",
      "type": "function"
    },
    {
      "inputs": [],
      "name": "priceFeed",
      "outputs": [
        {
          "internalType": "contract IPriceFeed",
          "name": "",
          "type": "address"
        }
      ],
      "stateMutability": "view",
      "type": "function"
    },
    {
      "inputs": [
        {
          "internalType": "uint256",
          "name": "_LUSDAmount",
          "type": "uint256"
        },
        {
          "internalType": "address",
          "name": "_hint",
          "type": "address"
        }
      ],
      "name": "repayLUSD",
      "outputs": [],
      "stateMutability": "nonpayable",
      "type": "function"
    },
    {
      "inputs": [
        {
          "internalType": "address",
          "name": "_troveManagerAddress",
          "type": "address"
        },
        {
          "internalType": "address",
          "name": "_activePoolAddress",
          "type": "address"
        },
        {
          "internalType": "address",
          "name": "_defaultPoolAddress",
          "type": "address"
        },
        {
          "internalType": "address",
          "name": "_stabilityPoolAddress",
          "type": "address"
        },
        {
          "internalType": "address",
          "name": "_collSurplusPoolAddress",
          "type": "address"
        },
        {
          "internalType": "address",
          "name": "_priceFeedAddress",
          "type": "address"
        },
        {
          "internalType": "address",
          "name": "_sortedTrovesAddress",
          "type": "address"
        },
        {
          "internalType": "address",
          "name": "_lusdTokenAddress",
          "type": "address"
        },
        {
          "internalType": "address",
          "name": "_lqtyStakingAddress",
          "type": "address"
        }
      ],
      "name": "setAddresses",
      "outputs": [],
      "stateMutability": "nonpayable",
      "type": "function"
    },
    {
      "inputs": [],
      "name": "sortedTroves",
      "outputs": [
        {
          "internalType": "contract ISortedTroves",
          "name": "",
          "type": "address"
        }
      ],
      "stateMutability": "view",
      "type": "function"
    },
    {
      "inputs": [],
      "name": "troveManager",
      "outputs": [
        {
          "internalType": "contract ITroveManager",
          "name": "",
          "type": "address"
        }
      ],
      "stateMutability": "view",
      "type": "function"
    },
    {
      "inputs": [
        {
          "internalType": "uint256",
          "name": "_collWithdrawal",
          "type": "uint256"
        },
        {
          "internalType": "address",
          "name": "_hint",
          "type": "address"
        }
      ],
      "name": "withdrawColl",
      "outputs": [],
      "stateMutability": "nonpayable",
      "type": "function"
    },
    {
      "inputs": [
        {
          "internalType": "uint256",
          "name": "_LUSDAmount",
          "type": "uint256"
        },
        {
          "internalType": "address",
          "name": "_hint",
          "type": "address"
        }
      ],
      "name": "withdrawLUSD",
      "outputs": [],
      "stateMutability": "nonpayable",
      "type": "function"
    },
    {
      "stateMutability": "payable",
      "type": "receive"
    }
  ],
  "bytecode": "0x608060405234801561001057600080fd5b50600080546001600160a01b0319163390811782556040519091907f8be0079c531659141344cd1fd0a4f28419497f9722a3daafe3b4186f6b6457e0908290a36132938061005f6000396000f3fe6080604052600436106101a75760003560e01c8063794e5724116100e2578063ae91875411610085578063ae91875414610568578063b83f91a21461057d578063c504047414610592578063d62d5bdc146105cb578063d6ed2ce514610604578063e4f15d7b14610655578063f24344e61461067b578063f6286f8314610690576101ae565b8063794e5724146104325780637f7dde4a14610447578063835353f71461045c57806387eb305d146104965780638da5cb5b146104dc5780638f32d59b146104f15780639f48090c1461051a578063a3a6401714610553576101ae565b80634ff814431161014a5780634ff81443146102bb57806351584ca4146102e55780635733d58f14610337578063662720441461034c5780636f30d212146103c357806372fe25aa146103f3578063741bef1a14610408578063761ab22c1461041d576101ae565b80630e704d50146101b35780630fba7805146101ca578063115096cd146101fb57806326a909f2146102295780632e86bbd8146102555780633cc742251461027c5780633d83908a146102915780634870dd9a146102a6576101ae565b366101ae57005b600080fd5b3480156101bf57600080fd5b506101c86106c3565b005b3480156101d657600080fd5b506101df6109f8565b604080516001600160a01b039092168252519081900360200190f35b6101c86004803603604081101561021157600080fd5b506001600160a01b03813581169160200135166109fe565b6101c86004803603604081101561023f57600080fd5b50803590602001356001600160a01b0316610a19565b34801561026157600080fd5b5061026a6110f8565b60408051918252519081900360200190f35b34801561028857600080fd5b506101df611104565b34801561029d57600080fd5b506101df611113565b3480156102b257600080fd5b5061026a611122565b3480156102c757600080fd5b5061026a600480360360208110156102de57600080fd5b5035611127565b3480156102f157600080fd5b5061026a600480360360e081101561030857600080fd5b50803590602081013590604081013590606081013515159060808101359060a081013515159060c00135611138565b34801561034357600080fd5b5061026a611155565b34801561035857600080fd5b506101c8600480360361012081101561037057600080fd5b506001600160a01b038135811691602081013582169160408201358116916060810135821691608082013581169160a081013582169160c082013581169160e08101358216916101009091013516611161565b3480156103cf57600080fd5b5061026a600480360360408110156103e657600080fd5b50803590602001356114ab565b3480156103ff57600080fd5b5061026a6114be565b34801561041457600080fd5b506101df6114ca565b34801561042957600080fd5b506101df6114d9565b34801561043e57600080fd5b5061026a6114e8565b34801561045357600080fd5b506101df6114f4565b6101c86004803603608081101561047257600080fd5b508035906020810135906040810135151590606001356001600160a01b0316611503565b3480156104a257600080fd5b5061026a600480360360a08110156104b957600080fd5b508035906020810135151590604081013590606081013515159060800135611516565b3480156104e857600080fd5b506101df61152f565b3480156104fd57600080fd5b5061050661153f565b604080519115158252519081900360200190f35b34801561052657600080fd5b506101c86004803603604081101561053d57600080fd5b50803590602001356001600160a01b0316611550565b34801561055f57600080fd5b506101df61155f565b34801561057457600080fd5b506101df61156e565b34801561058957600080fd5b506101df61157d565b34801561059e57600080fd5b506101c8600480360360408110156105b557600080fd5b50803590602001356001600160a01b031661158c565b3480156105d757600080fd5b506101c8600480360360408110156105ee57600080fd5b50803590602001356001600160a01b031661159a565b34801561061057600080fd5b506101c8600480360360a081101561062757600080fd5b506001600160a01b0381358116916020810135916040820135916060810135151591608090910135166115a9565b6101c86004803603602081101561066b57600080fd5b50356001600160a01b03166115bd565b34801561068757600080fd5b5061026a6115cf565b34801561069c57600080fd5b506101c8600480360360208110156106b357600080fd5b50356001600160a01b03166115db565b6106cc33611678565b6106d4611736565b60015460408051630b07655760e01b815233600482015290516001600160a01b0390921691630b0765579160248082019260009290919082900301818387803b15801561072057600080fd5b505af1158015610734573d6000803e3d6000fd5b5050600154604080516309019aaf60e31b81523360048201529051600094506001600160a01b03909216925063480cd578916024808301926020929190829003018186803b15801561078557600080fd5b505afa158015610799573d6000803e3d6000fd5b505050506040513d60208110156107af57600080fd5b50516001546040805163d66a255360e01b815233600482015290519293506000926001600160a01b039092169163d66a255391602480820192602092909190829003018186803b15801561080257600080fd5b505afa158015610816573d6000803e3d6000fd5b505050506040513d602081101561082c57600080fd5b505160015460408051631fc5750960e31b815233600482015290519293506001600160a01b039091169163fe2ba8489160248082019260009290919082900301818387803b15801561087d57600080fd5b505af1158015610891573d6000803e3d6000fd5b5050600154604080516365e89c5760e11b815233600482015290516001600160a01b03909216935063cbd138ae925060248082019260009290919082900301818387803b1580156108e157600080fd5b505af11580156108f5573d6000803e3d6000fd5b5050505061091d33610918678ac7230489e800008461177c90919063ffffffff16565b6117be565b600254604080516364a197f360e01b81523360048201526024810185905290516001600160a01b03909216916364a197f39160448082019260009290919082900301818387803b15801561097057600080fd5b505af1158015610984573d6000803e3d6000fd5b5050505061099c6109a5678ac7230489e800006117be565b336001600160a01b031660008051602061311683398151915260008060006001604051808581526020018481526020018381526020018260068111156109de57fe5b60ff16815260200194505050505060405180910390a25050565b6109a581565b610a06611894565b610a15826000806000856118dd565b5050565b60065460408051634c6afee560e11b815290516000926001600160a01b0316916398d5fdca916004808301926020929190829003018186803b158015610a5e57600080fd5b505afa158015610a72573d6000803e3d6000fd5b505050506040513d6020811015610a8857600080fd5b50519050610a9533612082565b600160009054906101000a90046001600160a01b03166001600160a01b0316635dba4c4a6040518163ffffffff1660e01b8152600401600060405180830381600087803b158015610ae557600080fd5b505af1158015610af9573d6000803e3d6000fd5b505060015460408051630631203b60e41b8152600481018890529051600094506001600160a01b03909216925063631203b0916024808301926020929190829003018186803b158015610b4b57600080fd5b505afa158015610b5f573d6000803e3d6000fd5b505050506040513d6020811015610b7557600080fd5b505190506000610b8b858363ffffffff61215716565b90506000610b98826121b1565b905060008111610ba457fe5b6000610bb13483876121cb565b9050610bbb612209565b15610bce57610bc98161223a565b610be6565b610bd781612281565b610be6346001846001896122c8565b6001805460408051635d6b480f60e01b81523360048201526024810193909352516001600160a01b0390911691635d6b480f91604480830192600092919082900301818387803b158015610c3957600080fd5b505af1158015610c4d573d6000803e3d6000fd5b5050600154604080516372423c1760e01b815233600482015234602482015290516001600160a01b0390921693506372423c1792506044808201926020929091908290030181600087803b158015610ca457600080fd5b505af1158015610cb8573d6000803e3d6000fd5b505050506040513d6020811015610cce57600080fd5b505060015460408051639976cf4560e01b81523360048201526024810185905290516001600160a01b0390921691639976cf45916044808201926020929091908290030181600087803b158015610d2457600080fd5b505af1158015610d38573d6000803e3d6000fd5b505050506040513d6020811015610d4e57600080fd5b5050600154604080516382fe3eb960e01b815233600482015290516001600160a01b03909216916382fe3eb99160248082019260009290919082900301818387803b158015610d9c57600080fd5b505af1158015610db0573d6000803e3d6000fd5b505060015460408051630c7940bd60e11b81523360048201529051600094506001600160a01b0390921692506318f2817a91602480830192602092919082900301818787803b158015610e0257600080fd5b505af1158015610e16573d6000803e3d6000fd5b505050506040513d6020811015610e2c57600080fd5b5051600a5460408051633a7bc51160e11b815233600482015260248101869052604481018a90526001600160a01b038b811660648301819052608483015291519394509116916374f78a229160a48082019260009290919082900301818387803b158015610e9957600080fd5b505af1158015610ead573d6000803e3d6000fd5b5050600154604080516315d549f160e01b81523360048201529051600094506001600160a01b0390921692506315d549f191602480830192602092919082900301818787803b158015610eff57600080fd5b505af1158015610f13573d6000803e3d6000fd5b505050506040513d6020811015610f2957600080fd5b505160408051828152905191925033917f59cfd0cd754bc5748b6770e94a4ffa5f678d885cb899dcfadc5734edb97c67ab9181900360200190a2600954600854604080516340c10f1960e01b81526001600160a01b039283166004820152602481018a9052905191909216916340c10f1991604480830192600092919082900301818387803b158015610fbb57600080fd5b505af1158015610fcf573d6000803e3d6000fd5b505060075460408051634677ffb360e01b8152600481018b905290516001600160a01b039092169350634677ffb3925060248082019260009290919082900301818387803b15801561102057600080fd5b505af1158015611034573d6000803e3d6000fd5b5050505061104134612320565b61104c338a87612383565b6110616109a5678ac7230489e8000080612383565b336001600160a01b03166000805160206131168339815191528634856000604051808581526020018481526020018381526020018260068111156110a157fe5b60ff16815260200194505050505060405180910390a260408051878152905133917fa55c5f48fd29482ad55f4b59bf070cd1ac1a7132a31f7a136ebe8877ae37e1ff919081900360200190a2505050505050505050565b678ac7230489e8000081565b6003546001600160a01b031681565b6001546001600160a01b031681565b60c881565b6000611132826121b1565b92915050565b60006111498888888888888861245a565b98975050505050505050565b6714d1120d7b16000081565b61116961153f565b6111ba576040805162461bcd60e51b815260206004820181905260248201527f4f776e61626c653a2063616c6c6572206973206e6f7420746865206f776e6572604482015290519081900360640190fd5b600180546001600160a01b03199081166001600160a01b038c81169182179093556002805483168c85161790556003805483168b85161790556004805483168a8516179055600580548316898516179055600680548316888516179055600a80548316878516179055600980548316868516179055600880548316938516938417905560078054909216909217905560408051918252517f143219c9e69b09e07e095fcc889b43d8f46ca892bba65f08dc3a0050869a5678916020908290030190a1604080516001600160a01b038a16815290517f78f058b189175430c48dc02699e3a0031ea4ff781536dc2fab847de4babdd8829181900360200190a1604080516001600160a01b038916815290517f5ee0cae2f063ed938bb55046f6a932fb6ae792bf43624806bb90abe68a50be9b9181900360200190a1604080516001600160a01b038816815290517f82966d27eea39b038ee0fa30cd16532bb24f6e65d31cb58fb227aa5766cdcc7f9181900360200190a1604080516001600160a01b038716815290517fe67f36a6e961157d6eff83b91f3af5a62131ceb6f04954ef74f51c1c05e7f88d9181900360200190a1604080516001600160a01b038416815290517f227eec0ec317af6ab1a9587ffa1c84332522eb4c583a908f89babc05f8f339bd9181900360200190a1604080516001600160a01b038616815290517f8c537274438aa850a330284665d81a85dd38267d09e4050d416bfc94142db2649181900360200190a1604080516001600160a01b038516815290517f65f4cf077bc01e4742eb5ad98326f6e95b63548ea24b17f8d5e823111fe788009181900360200190a1604080516001600160a01b038416815290517f227eec0ec317af6ab1a9587ffa1c84332522eb4c583a908f89babc05f8f339bd9181900360200190a1604080516001600160a01b038316815290517f756ebc192164c295bba134b5aacd72cc7aff8098a670d1f0a5f6b3a0b4ce67079181900360200190a16114a06124d2565b505050505050505050565b60006114b7838361251c565b9392505050565b670de0b6b3a764000081565b6006546001600160a01b031681565b6008546001600160a01b031681565b670f43fc2c04ee000081565b6002546001600160a01b031681565b61151033858585856118dd565b50505050565b60006115258686868686612543565b9695505050505050565b6000546001600160a01b03165b90565b6000546001600160a01b0316331490565b610a15336000846001856118dd565b6007546001600160a01b031681565b600a546001600160a01b031681565b6009546001600160a01b031681565b610a153383600080856118dd565b610a15336000846000856118dd565b6115b685858585856118dd565b5050505050565b6115cc336000806000856118dd565b50565b6729a2241af62c000081565b6005546040805163b32beb5b60e01b81526001600160a01b0384811660048301529151919092169163b32beb5b91602480830192600092919082900301818387803b15801561162957600080fd5b505af115801561163d573d6000803e3d6000fd5b50506040516001600160a01b03841692507f2d56203768a90f8fe9eca674729e0e96056d1c0c913ba11d6168b996e2f3f3169150600090a250565b600154604080516321e3780160e01b81526001600160a01b038481166004830152915160009392909216916321e3780191602480820192602092909190829003018186803b1580156116c957600080fd5b505afa1580156116dd573d6000803e3d6000fd5b505050506040513d60208110156116f357600080fd5b5051905060018114610a155760405162461bcd60e51b815260040180806020018281038252602e8152602001806130e8602e913960400191505060405180910390fd5b61173e612209565b1561177a5760405162461bcd60e51b8152600401808060200182810382526039815260200180612fcf6039913960400191505060405180910390fd5b565b60006114b783836040518060400160405280601e81526020017f536166654d6174683a207375627472616374696f6e206f766572666c6f77000081525061277d565b6002546040805163071b32b560e31b81526004810184905290516001600160a01b03909216916338d995a89160248082019260009290919082900301818387803b15801561180b57600080fd5b505af115801561181f573d6000803e3d6000fd5b505060095460408051632770a7eb60e21b81526001600160a01b038781166004830152602482018790529151919092169350639dc29fac9250604480830192600092919082900301818387803b15801561187857600080fd5b505af115801561188c573d6000803e3d6000fd5b505050505050565b6004546001600160a01b0316331461177a5760405162461bcd60e51b81526004018080602001828103825260298152602001806132016029913960400191505060405180910390fd5b3415806118e8575083155b6119235760405162461bcd60e51b8152600401808060200182810382526030815260200180612f9f6030913960400191505060405180910390fd5b6000841515806119305750825b9050336001600160a01b0387161480611947575080155b6119825760405162461bcd60e51b81526004018080602001828103825260308152602001806130086030913960400191505060405180910390fd5b3415158061198f57508415155b8061199957508315155b6119d45760405162461bcd60e51b81526004018080602001828103825260468152602001806130386046913960600191505060405180910390fd5b6119dc612f42565b6119e587611678565b81156119f3576119f3611736565b600660009054906101000a90046001600160a01b03166001600160a01b03166398d5fdca6040518163ffffffff1660e01b815260040160206040518083038186803b158015611a4157600080fd5b505afa158015611a55573d6000803e3d6000fd5b505050506040513d6020811015611a6b57600080fd5b5051815260015460408051630b07655760e01b81526001600160a01b038a8116600483015291519190921691630b07655791602480830192600092919082900301818387803b158015611abd57600080fd5b505af1158015611ad1573d6000803e3d6000fd5b50505050611adf3487612814565b15156060830152602082015260408101859052838015611aff5750600085115b15611ce657600160009054906101000a90046001600160a01b03166001600160a01b0316635dba4c4a6040518163ffffffff1660e01b8152600401600060405180830381600087803b158015611b5457600080fd5b505af1158015611b68573d6000803e3d6000fd5b505060015460408051630631203b60e41b8152600481018a905290516001600160a01b03909216935063631203b09250602480820192602092909190829003018186803b158015611bb857600080fd5b505afa158015611bcc573d6000803e3d6000fd5b505050506040513d6020811015611be257600080fd5b505160e082018190526040820151611bff9163ffffffff61215716565b60408083019190915260075460e08301518251634677ffb360e01b8152600481019190915291516001600160a01b0390911691634677ffb391602480830192600092919082900301818387803b158015611c5857600080fd5b505af1158015611c6c573d6000803e3d6000fd5b505060095460085460e0850151604080516340c10f1960e01b81526001600160a01b0393841660048201526024810192909252519190921693506340c10f199250604480830192600092919082900301818387803b158015611ccd57600080fd5b505af1158015611ce1573d6000803e3d6000fd5b505050505b6001546040805163d66a255360e01b81526001600160a01b038a811660048301529151919092169163d66a2553916024808301926020929190829003018186803b158015611d3357600080fd5b505afa158015611d47573d6000803e3d6000fd5b505050506040513d6020811015611d5d57600080fd5b50516080820152600154604080516309019aaf60e31b81526001600160a01b038a811660048301529151919092169163480cd578916024808301926020929190829003018186803b158015611db157600080fd5b505afa158015611dc5573d6000803e3d6000fd5b505050506040513d6020811015611ddb57600080fd5b505160a0820181905260808201516020830151606084015160408501518551611e0a9594939291908a9061245a565b60c08201528115611e2257611e228160c00151612281565b838015611e2f5750600085115b15611e5157611e518160200151826060015183604001518785600001516122c8565b8060600151611e6c57611e6c8160a001518260200151612833565b83158015611e7a5750600085115b15611e9157611e9181608001518260400151612872565b611eaa87826020015183606001518460400151886128c8565b61010083015261012082015260015460408051630c7940bd60e11b81526001600160a01b038a81166004830152915191909216916318f2817a9160248083019260209291908290030181600087803b158015611f0557600080fd5b505af1158015611f19573d6000803e3d6000fd5b505050506040513d6020811015611f2f57600080fd5b5051610140820152600a5460c0820151825160408051621d45b760e21b81526001600160a01b038c8116600483015260248201949094526044810192909252868316606483018190526084830152519190921691627516dc9160a480830192600092919082900301818387803b158015611fa857600080fd5b505af1158015611fbc573d6000803e3d6000fd5b50505050611fda338260200151836060015188888660400151612aff565b866001600160a01b031660008051602061311683398151915282610100015183610120015184610140015160066040518085815260200184815260200183815260200182600681111561202957fe5b60ff16815260200194505050505060405180910390a260e0810151604080519182525133917fa55c5f48fd29482ad55f4b59bf070cd1ac1a7132a31f7a136ebe8877ae37e1ff919081900360200190a250505050505050565b600154604080516321e3780160e01b81526001600160a01b038481166004830152915160009392909216916321e3780191602480820192602092909190829003018186803b1580156120d357600080fd5b505afa1580156120e7573d6000803e3d6000fd5b505050506040513d60208110156120fd57600080fd5b505190506001811415610a15576040805162461bcd60e51b815260206004820152601c60248201527f426f72726f7765724f70733a2054726f76652069732061637469766500000000604482015290519081900360640190fd5b6000828201838110156114b7576040805162461bcd60e51b815260206004820152601b60248201527f536166654d6174683a206164646974696f6e206f766572666c6f770000000000604482015290519081900360640190fd5b600061113282678ac7230489e8000063ffffffff61215716565b600082156121fe5760006121f5846121e9878663ffffffff612ba816565b9063ffffffff612c0116565b91506114b79050565b506000199392505050565b600080612214612c43565b90506714d1120d7b16000081101561223057600191505061153c565b600091505061153c565b6729a2241af62c00008110156115cc5760405162461bcd60e51b815260040180806020018281038252603f815260200180613136603f913960400191505060405180910390fd5b670f43fc2c04ee00008110156115cc5760405162461bcd60e51b81526004018080602001828103825260498152602001806131756049913960600191505060405180910390fd5b60006122d78686868686612543565b90506714d1120d7b16000081101561188c5760405162461bcd60e51b815260040180806020018281038252604981526020018061309f6049913960600191505060405180910390fd5b6002546040516000916001600160a01b03169083908381818185875af1925050503d806000811461236d576040519150601f19603f3d011682016040523d82523d6000602084013e612372565b606091505b5090915050600181151514610a1557fe5b600254604080516367dc994d60e11b81526004810184905290516001600160a01b039092169163cfb9329a9160248082019260009290919082900301818387803b1580156123d057600080fd5b505af11580156123e4573d6000803e3d6000fd5b5050600954604080516340c10f1960e01b81526001600160a01b0388811660048301526024820188905291519190921693506340c10f199250604480830192600092919082900301818387803b15801561243d57600080fd5b505af1158015612451573d6000803e3d6000fd5b50505050505050565b6000878786612478576124738a8963ffffffff61177c16565b612488565b6124888a8963ffffffff61215716565b9150846124a45761249f898763ffffffff61177c16565b6124b4565b6124b4898763ffffffff61215716565b905060006124c38383876121cb565b9b9a5050505050505050505050565b600080546040516001600160a01b03909116907f8be0079c531659141344cd1fd0a4f28419497f9722a3daafe3b4186f6b6457e0908390a3600080546001600160a01b0319169055565b60008061253b670de0b6b3a76400006121e9858763ffffffff612ba816565b949350505050565b600080612640600360009054906101000a90046001600160a01b03166001600160a01b03166314f6c3be6040518163ffffffff1660e01b815260040160206040518083038186803b15801561259757600080fd5b505afa1580156125ab573d6000803e3d6000fd5b505050506040513d60208110156125c157600080fd5b505160025460408051630a7b61df60e11b815290516001600160a01b03909216916314f6c3be91600480820192602092909190829003018186803b15801561260857600080fd5b505afa15801561261c573d6000803e3d6000fd5b505050506040513d602081101561263257600080fd5b50519063ffffffff61215716565b90506000612706600360009054906101000a90046001600160a01b03166001600160a01b0316635eb52fca6040518163ffffffff1660e01b815260040160206040518083038186803b15801561269557600080fd5b505afa1580156126a9573d6000803e3d6000fd5b505050506040513d60208110156126bf57600080fd5b505160025460408051632f5a97e560e11b815290516001600160a01b0390921691635eb52fca91600480820192602092909190829003018186803b15801561260857600080fd5b9050866127225761271d828963ffffffff61177c16565b612732565b612732828963ffffffff61215716565b91508461275157612749818763ffffffff61177c16565b905080612761565b612761818763ffffffff61215716565b905060006127708383876121cb565b9998505050505050505050565b6000818484111561280c5760405162461bcd60e51b81526004018080602001828103825283818151815260200191508051906020019080838360005b838110156127d15781810151838201526020016127b9565b50505050905090810190601f1680156127fe5780820380516001836020036101000a031916815260200191505b509250505060405180910390fd5b505050900390565b60008083156128285750829050600161282c565b8291505b9250929050565b81811115610a155760405162461bcd60e51b815260040180806020018281038252603481526020018061322a6034913960400191505060405180910390fd5b61288a82678ac7230489e8000063ffffffff61177c16565b811115610a155760405162461bcd60e51b81526004018080602001828103825260438152602001806131be6043913960600191505060405180910390fd5b600080600085612959576001546040805163d3d6f84360e01b81526001600160a01b038b81166004830152602482018b90529151919092169163d3d6f8439160448083019260209291908290030181600087803b15801561292857600080fd5b505af115801561293c573d6000803e3d6000fd5b505050506040513d602081101561295257600080fd5b50516129dc565b600154604080516372423c1760e01b81526001600160a01b038b81166004830152602482018b9052915191909216916372423c179160448083019260209291908290030181600087803b1580156129af57600080fd5b505af11580156129c3573d6000803e3d6000fd5b505050506040513d60208110156129d957600080fd5b50515b9050600084612a6c5760015460408051630930874960e11b81526001600160a01b038c81166004830152602482018a9052915191909216916312610e929160448083019260209291908290030181600087803b158015612a3b57600080fd5b505af1158015612a4f573d6000803e3d6000fd5b505050506040513d6020811015612a6557600080fd5b5051612aef565b60015460408051639976cf4560e01b81526001600160a01b038c81166004830152602482018a905291519190921691639976cf459160448083019260209291908290030181600087803b158015612ac257600080fd5b505af1158015612ad6573d6000803e3d6000fd5b505050506040513d6020811015612aec57600080fd5b50515b9199919850909650505050505050565b8115612b1557612b10868483612383565b612b1f565b612b1f86846117be565b8315612b3357612b2e85612320565b61188c565b600254604080516364a197f360e01b81526001600160a01b03898116600483015260248201899052915191909216916364a197f391604480830192600092919082900301818387803b158015612b8857600080fd5b505af1158015612b9c573d6000803e3d6000fd5b50505050505050505050565b600082612bb757506000611132565b82820282848281612bc457fe5b04146114b75760405162461bcd60e51b815260040180806020018281038252602181526020018061307e6021913960400191505060405180910390fd5b60006114b783836040518060400160405280601a81526020017f536166654d6174683a206469766973696f6e206279207a65726f000000000000815250612edd565b600080600660009054906101000a90046001600160a01b03166001600160a01b03166398d5fdca6040518163ffffffff1660e01b815260040160206040518083038186803b158015612c9457600080fd5b505afa158015612ca8573d6000803e3d6000fd5b505050506040513d6020811015612cbe57600080fd5b505160025460408051630a7b61df60e11b815290519293506000926001600160a01b03909216916314f6c3be91600480820192602092909190829003018186803b158015612d0b57600080fd5b505afa158015612d1f573d6000803e3d6000fd5b505050506040513d6020811015612d3557600080fd5b505160025460408051632f5a97e560e11b815290519293506000926001600160a01b0390921691635eb52fca91600480820192602092909190829003018186803b158015612d8257600080fd5b505afa158015612d96573d6000803e3d6000fd5b505050506040513d6020811015612dac57600080fd5b505160035460408051630a7b61df60e11b815290519293506000926001600160a01b03909216916314f6c3be91600480820192602092909190829003018186803b158015612df957600080fd5b505afa158015612e0d573d6000803e3d6000fd5b505050506040513d6020811015612e2357600080fd5b505160035460408051632f5a97e560e11b815290519293506000926001600160a01b0390921691635eb52fca91600480820192602092909190829003018186803b158015612e7057600080fd5b505afa158015612e84573d6000803e3d6000fd5b505050506040513d6020811015612e9a57600080fd5b505190506000612eb0858463ffffffff61215716565b90506000612ec4858463ffffffff61215716565b9050612ed18282896121cb565b97505050505050505090565b60008183612f2c5760405162461bcd60e51b81526020600482018181528351602484015283519092839260449091019190850190808383600083156127d15781810151838201526020016127b9565b506000838581612f3857fe5b0495945050505050565b60405180610160016040528060008152602001600081526020016000815260200160001515815260200160008152602001600081526020016000815260200160008152602001600081526020016000815260200160008152509056fe426f72726f7765724f7065726174696f6e733a2043616e6e6f7420776974686472617720616e642061646420636f6c6c426f72726f7765724f70733a204f7065726174696f6e206e6f74207065726d697474656420647572696e67205265636f76657279204d6f6465426f72726f7765724f70733a2055736572206d7573742062652073656e64657220666f72207769746864726177616c73426f72726f7765724f70733a205468657265206d75737420626520656974686572206120636f6c6c61746572616c206368616e6765206f7220612064656274206368616e6765536166654d6174683a206d756c7469706c69636174696f6e206f766572666c6f77426f72726f7765724f70733a20416e206f7065726174696f6e207468617420776f756c6420726573756c7420696e20544352203c20434352206973206e6f74207065726d6974746564426f72726f7765724f70733a2054726f766520646f6573206e6f74206578697374206f7220697320636c6f736564c3770d654ed33aeea6bf11ac8ef05d02a6a04ed4686dd2f624d853bbec43cc8b426f72726f7765724f70733a20496e205265636f76657279204d6f6465206e65772074726f766573206d757374206861766520494352203e3d20525f4d4352426f72726f7765724f70733a20416e206f7065726174696f6e207468617420776f756c6420726573756c7420696e20494352203c204d4352206973206e6f74207065726d6974746564426f72726f7765724f70733a20416d6f756e7420726570616964206d757374206e6f74206265206c6172676572207468616e207468652054726f766527732064656274426f72726f7765724f70733a2043616c6c6572206973206e6f742053746162696c69747920506f6f6c426f72726f7765724f70733a20496e73756666696369656e742062616c616e636520666f7220455448207769746864726177616ca2646970667358221220a01bc49b08543e81305ed5250db53f6a1aa046ab3a1756bf9c7b1fda18c6861c64736f6c634300060b0033",
  "linkReferences": {},
  "deployedLinkReferences": {}
}