{
  "_format": "hh-sol-artifact-1",
  "contractName": "BorrowerOperationsTester",
  "sourceName": "contracts/TestContracts/BorrowerOperationsTester.sol",
  "abi": [
    {
      "anonymous": false,
      "inputs": [
        {
          "indexed": false,
          "internalType": "address",
          "name": "_activePoolAddress",
          "type": "address"
        }
      ],
      "name": "ActivePoolAddressChanged",
      "type": "event"
    },
    {
      "anonymous": false,
      "inputs": [
        {
          "indexed": false,
          "internalType": "address",
          "name": "_collSurplusPoolAddress",
          "type": "address"
        }
      ],
      "name": "CollSurplusPoolAddressChanged",
      "type": "event"
    },
    {
      "anonymous": false,
      "inputs": [
        {
          "indexed": false,
          "internalType": "address",
          "name": "_defaultPoolAddress",
          "type": "address"
        }
      ],
      "name": "DefaultPoolAddressChanged",
      "type": "event"
    },
    {
      "anonymous": false,
      "inputs": [
        {
          "indexed": false,
          "internalType": "address",
          "name": "_gasPoolAddress",
          "type": "address"
        }
      ],
      "name": "GasPoolAddressChanged",
      "type": "event"
    },
    {
      "anonymous": false,
      "inputs": [
        {
          "indexed": false,
          "internalType": "address",
          "name": "_lqtyStakingAddress",
          "type": "address"
        }
      ],
      "name": "LQTYStakingAddressChanged",
      "type": "event"
    },
    {
      "anonymous": false,
      "inputs": [
        {
          "indexed": true,
          "internalType": "address",
          "name": "_borrower",
          "type": "address"
        },
        {
          "indexed": false,
          "internalType": "uint256",
          "name": "_LUSDFee",
          "type": "uint256"
        }
      ],
      "name": "LUSDBorrowingFeePaid",
      "type": "event"
    },
    {
      "anonymous": false,
      "inputs": [
        {
          "indexed": false,
          "internalType": "address",
          "name": "_lusdTokenAddress",
          "type": "address"
        }
      ],
      "name": "LUSDTokenAddressChanged",
      "type": "event"
    },
    {
      "anonymous": false,
      "inputs": [
        {
          "indexed": true,
          "internalType": "address",
          "name": "previousOwner",
          "type": "address"
        },
        {
          "indexed": true,
          "internalType": "address",
          "name": "newOwner",
          "type": "address"
        }
      ],
      "name": "OwnershipTransferred",
      "type": "event"
    },
    {
      "anonymous": false,
      "inputs": [
        {
          "indexed": false,
          "internalType": "address",
          "name": "_newPriceFeedAddress",
          "type": "address"
        }
      ],
      "name": "PriceFeedAddressChanged",
      "type": "event"
    },
    {
      "anonymous": false,
      "inputs": [
        {
          "indexed": false,
          "internalType": "address",
          "name": "_sortedTrovesAddress",
          "type": "address"
        }
      ],
      "name": "SortedTrovesAddressChanged",
      "type": "event"
    },
    {
      "anonymous": false,
      "inputs": [
        {
          "indexed": false,
          "internalType": "address",
          "name": "_stabilityPoolAddress",
          "type": "address"
        }
      ],
      "name": "StabilityPoolAddressChanged",
      "type": "event"
    },
    {
      "anonymous": false,
      "inputs": [
        {
          "indexed": true,
          "internalType": "address",
          "name": "_borrower",
          "type": "address"
        },
        {
          "indexed": false,
          "internalType": "uint256",
          "name": "arrayIndex",
          "type": "uint256"
        }
      ],
      "name": "TroveCreated",
      "type": "event"
    },
    {
      "anonymous": false,
      "inputs": [
        {
          "indexed": false,
          "internalType": "address",
          "name": "_newTroveManagerAddress",
          "type": "address"
        }
      ],
      "name": "TroveManagerAddressChanged",
      "type": "event"
    },
    {
      "anonymous": false,
      "inputs": [
        {
          "indexed": true,
          "internalType": "address",
          "name": "_borrower",
          "type": "address"
        },
        {
          "indexed": false,
          "internalType": "uint256",
          "name": "_debt",
          "type": "uint256"
        },
        {
          "indexed": false,
          "internalType": "uint256",
          "name": "_coll",
          "type": "uint256"
        },
        {
          "indexed": false,
          "internalType": "uint256",
          "name": "stake",
          "type": "uint256"
        },
        {
          "indexed": false,
          "internalType": "enum BorrowerOperations.BorrowerOperation",
          "name": "operation",
          "type": "uint8"
        }
      ],
      "name": "TroveUpdated",
      "type": "event"
    },
    {
      "inputs": [],
      "name": "BORROWING_FEE_FLOOR",
      "outputs": [
        {
          "internalType": "uint256",
          "name": "",
          "type": "uint256"
        }
      ],
      "stateMutability": "view",
      "type": "function"
    },
    {
      "inputs": [],
      "name": "CCR",
      "outputs": [
        {
          "internalType": "uint256",
          "name": "",
          "type": "uint256"
        }
      ],
      "stateMutability": "view",
      "type": "function"
    },
    {
      "inputs": [],
      "name": "DECIMAL_PRECISION",
      "outputs": [
        {
          "internalType": "uint256",
          "name": "",
          "type": "uint256"
        }
      ],
      "stateMutability": "view",
      "type": "function"
    },
    {
      "inputs": [],
      "name": "LUSD_GAS_COMPENSATION",
      "outputs": [
        {
          "internalType": "uint256",
          "name": "",
          "type": "uint256"
        }
      ],
      "stateMutability": "view",
      "type": "function"
    },
    {
      "inputs": [],
      "name": "MCR",
      "outputs": [
        {
          "internalType": "uint256",
          "name": "",
          "type": "uint256"
        }
      ],
      "stateMutability": "view",
      "type": "function"
    },
    {
      "inputs": [],
      "name": "MIN_NET_DEBT",
      "outputs": [
        {
          "internalType": "uint256",
          "name": "",
          "type": "uint256"
        }
      ],
      "stateMutability": "view",
      "type": "function"
    },
    {
      "inputs": [],
      "name": "PERCENT_DIVISOR",
      "outputs": [
        {
          "internalType": "uint256",
          "name": "",
          "type": "uint256"
        }
      ],
      "stateMutability": "view",
      "type": "function"
    },
    {
      "inputs": [],
      "name": "_100pct",
      "outputs": [
        {
          "internalType": "uint256",
          "name": "",
          "type": "uint256"
        }
      ],
      "stateMutability": "view",
      "type": "function"
    },
    {
      "inputs": [],
      "name": "activePool",
      "outputs": [
        {
          "internalType": "contract IActivePool",
          "name": "",
          "type": "address"
        }
      ],
      "stateMutability": "view",
      "type": "function"
    },
    {
      "inputs": [
        {
          "internalType": "address",
          "name": "_upperHint",
          "type": "address"
        },
        {
          "internalType": "address",
          "name": "_lowerHint",
          "type": "address"
        }
      ],
      "name": "addColl",
      "outputs": [],
      "stateMutability": "payable",
      "type": "function"
    },
    {
      "inputs": [
        {
          "internalType": "uint256",
          "name": "_maxFeePercentage",
          "type": "uint256"
        },
        {
          "internalType": "uint256",
          "name": "_collWithdrawal",
          "type": "uint256"
        },
        {
          "internalType": "uint256",
          "name": "_LUSDChange",
          "type": "uint256"
        },
        {
          "internalType": "bool",
          "name": "_isDebtIncrease",
          "type": "bool"
        },
        {
          "internalType": "address",
          "name": "_upperHint",
          "type": "address"
        },
        {
          "internalType": "address",
          "name": "_lowerHint",
          "type": "address"
        }
      ],
      "name": "adjustTrove",
      "outputs": [],
      "stateMutability": "payable",
      "type": "function"
    },
    {
      "inputs": [
        {
          "internalType": "address",
          "name": "_borrower",
          "type": "address"
        },
        {
          "internalType": "uint256",
          "name": "_collWithdrawal",
          "type": "uint256"
        },
        {
          "internalType": "uint256",
          "name": "_debtChange",
          "type": "uint256"
        },
        {
          "internalType": "bool",
          "name": "_isDebtIncrease",
          "type": "bool"
        },
        {
          "internalType": "address",
          "name": "_upperHint",
          "type": "address"
        },
        {
          "internalType": "address",
          "name": "_lowerHint",
          "type": "address"
        }
      ],
      "name": "callInternalAdjustLoan",
      "outputs": [],
      "stateMutability": "nonpayable",
      "type": "function"
    },
    {
      "inputs": [],
      "name": "claimCollateral",
      "outputs": [],
      "stateMutability": "nonpayable",
      "type": "function"
    },
    {
      "inputs": [],
      "name": "closeTrove",
      "outputs": [],
      "stateMutability": "nonpayable",
      "type": "function"
    },
    {
      "inputs": [],
      "name": "defaultPool",
      "outputs": [
        {
          "internalType": "contract IDefaultPool",
          "name": "",
          "type": "address"
        }
      ],
      "stateMutability": "view",
      "type": "function"
    },
    {
      "inputs": [
        {
          "internalType": "uint256",
          "name": "_debt",
          "type": "uint256"
        }
      ],
      "name": "getCompositeDebt",
      "outputs": [
        {
          "internalType": "uint256",
          "name": "",
          "type": "uint256"
        }
      ],
      "stateMutability": "pure",
      "type": "function"
    },
    {
      "inputs": [],
      "name": "getEntireSystemColl",
      "outputs": [
        {
          "internalType": "uint256",
          "name": "entireSystemColl",
          "type": "uint256"
        }
      ],
      "stateMutability": "view",
      "type": "function"
    },
    {
      "inputs": [],
      "name": "getEntireSystemDebt",
      "outputs": [
        {
          "internalType": "uint256",
          "name": "entireSystemDebt",
          "type": "uint256"
        }
      ],
      "stateMutability": "view",
      "type": "function"
    },
    {
      "inputs": [
        {
          "internalType": "uint256",
          "name": "_coll",
          "type": "uint256"
        },
        {
          "internalType": "uint256",
          "name": "_debt",
          "type": "uint256"
        },
        {
          "internalType": "uint256",
          "name": "_collChange",
          "type": "uint256"
        },
        {
          "internalType": "bool",
          "name": "isCollIncrease",
          "type": "bool"
        },
        {
          "internalType": "uint256",
          "name": "_debtChange",
          "type": "uint256"
        },
        {
          "internalType": "bool",
          "name": "isDebtIncrease",
          "type": "bool"
        },
        {
          "internalType": "uint256",
          "name": "_price",
          "type": "uint256"
        }
      ],
      "name": "getNewICRFromTroveChange",
      "outputs": [
        {
          "internalType": "uint256",
          "name": "",
          "type": "uint256"
        }
      ],
      "stateMutability": "pure",
      "type": "function"
    },
    {
      "inputs": [
        {
          "internalType": "uint256",
          "name": "_collChange",
          "type": "uint256"
        },
        {
          "internalType": "bool",
          "name": "isCollIncrease",
          "type": "bool"
        },
        {
          "internalType": "uint256",
          "name": "_debtChange",
          "type": "uint256"
        },
        {
          "internalType": "bool",
          "name": "isDebtIncrease",
          "type": "bool"
        },
        {
          "internalType": "uint256",
          "name": "_price",
          "type": "uint256"
        }
      ],
      "name": "getNewTCRFromTroveChange",
      "outputs": [
        {
          "internalType": "uint256",
          "name": "",
          "type": "uint256"
        }
      ],
      "stateMutability": "view",
      "type": "function"
    },
    {
      "inputs": [
        {
          "internalType": "uint256",
          "name": "_coll",
          "type": "uint256"
        },
        {
          "internalType": "uint256",
          "name": "_price",
          "type": "uint256"
        }
      ],
      "name": "getUSDValue",
      "outputs": [
        {
          "internalType": "uint256",
          "name": "",
          "type": "uint256"
        }
      ],
      "stateMutability": "pure",
      "type": "function"
    },
    {
      "inputs": [],
      "name": "isOwner",
      "outputs": [
        {
          "internalType": "bool",
          "name": "",
          "type": "bool"
        }
      ],
      "stateMutability": "view",
      "type": "function"
    },
    {
      "inputs": [],
      "name": "lqtyStaking",
      "outputs": [
        {
          "internalType": "contract ILQTYStaking",
          "name": "",
          "type": "address"
        }
      ],
      "stateMutability": "view",
      "type": "function"
    },
    {
      "inputs": [],
      "name": "lqtyStakingAddress",
      "outputs": [
        {
          "internalType": "address",
          "name": "",
          "type": "address"
        }
      ],
      "stateMutability": "view",
      "type": "function"
    },
    {
      "inputs": [],
      "name": "lusdToken",
      "outputs": [
        {
          "internalType": "contract ILUSDToken",
          "name": "",
          "type": "address"
        }
      ],
      "stateMutability": "view",
      "type": "function"
    },
    {
      "inputs": [
        {
          "internalType": "address",
          "name": "_borrower",
          "type": "address"
        },
        {
          "internalType": "address",
          "name": "_upperHint",
          "type": "address"
        },
        {
          "internalType": "address",
          "name": "_lowerHint",
          "type": "address"
        }
      ],
      "name": "moveETHGainToTrove",
      "outputs": [],
      "stateMutability": "payable",
      "type": "function"
    },
    {
      "inputs": [
        {
          "internalType": "uint256",
          "name": "_maxFeePercentage",
          "type": "uint256"
        },
        {
          "internalType": "uint256",
          "name": "_LUSDAmount",
          "type": "uint256"
        },
        {
          "internalType": "address",
          "name": "_upperHint",
          "type": "address"
        },
        {
          "internalType": "address",
          "name": "_lowerHint",
          "type": "address"
        }
      ],
      "name": "openTrove",
      "outputs": [],
      "stateMutability": "payable",
      "type": "function"
    },
    {
      "inputs": [],
      "name": "owner",
      "outputs": [
        {
          "internalType": "address",
          "name": "",
          "type": "address"
        }
      ],
      "stateMutability": "view",
      "type": "function"
    },
    {
      "inputs": [],
      "name": "priceFeed",
      "outputs": [
        {
          "internalType": "contract IPriceFeed",
          "name": "",
          "type": "address"
        }
      ],
      "stateMutability": "view",
      "type": "function"
    },
    {
      "inputs": [
        {
          "internalType": "uint256",
          "name": "_LUSDAmount",
          "type": "uint256"
        },
        {
          "internalType": "address",
          "name": "_upperHint",
          "type": "address"
        },
        {
          "internalType": "address",
          "name": "_lowerHint",
          "type": "address"
        }
      ],
      "name": "repayLUSD",
      "outputs": [],
      "stateMutability": "nonpayable",
      "type": "function"
    },
    {
      "inputs": [
        {
          "internalType": "address",
          "name": "_troveManagerAddress",
          "type": "address"
        },
        {
          "internalType": "address",
          "name": "_activePoolAddress",
          "type": "address"
        },
        {
          "internalType": "address",
          "name": "_defaultPoolAddress",
          "type": "address"
        },
        {
          "internalType": "address",
          "name": "_stabilityPoolAddress",
          "type": "address"
        },
        {
          "internalType": "address",
          "name": "_gasPoolAddress",
          "type": "address"
        },
        {
          "internalType": "address",
          "name": "_collSurplusPoolAddress",
          "type": "address"
        },
        {
          "internalType": "address",
          "name": "_priceFeedAddress",
          "type": "address"
        },
        {
          "internalType": "address",
          "name": "_sortedTrovesAddress",
          "type": "address"
        },
        {
          "internalType": "address",
          "name": "_lusdTokenAddress",
          "type": "address"
        },
        {
          "internalType": "address",
          "name": "_lqtyStakingAddress",
          "type": "address"
        }
      ],
      "name": "setAddresses",
      "outputs": [],
      "stateMutability": "nonpayable",
      "type": "function"
    },
    {
      "inputs": [],
      "name": "sortedTroves",
      "outputs": [
        {
          "internalType": "contract ISortedTroves",
          "name": "",
          "type": "address"
        }
      ],
      "stateMutability": "view",
      "type": "function"
    },
    {
      "inputs": [],
      "name": "troveManager",
      "outputs": [
        {
          "internalType": "contract ITroveManager",
          "name": "",
          "type": "address"
        }
      ],
      "stateMutability": "view",
      "type": "function"
    },
    {
      "inputs": [
        {
          "internalType": "uint256",
          "name": "_collWithdrawal",
          "type": "uint256"
        },
        {
          "internalType": "address",
          "name": "_upperHint",
          "type": "address"
        },
        {
          "internalType": "address",
          "name": "_lowerHint",
          "type": "address"
        }
      ],
      "name": "withdrawColl",
      "outputs": [],
      "stateMutability": "nonpayable",
      "type": "function"
    },
    {
      "inputs": [
        {
          "internalType": "uint256",
          "name": "_maxFeePercentage",
          "type": "uint256"
        },
        {
          "internalType": "uint256",
          "name": "_LUSDAmount",
          "type": "uint256"
        },
        {
          "internalType": "address",
          "name": "_upperHint",
          "type": "address"
        },
        {
          "internalType": "address",
          "name": "_lowerHint",
          "type": "address"
        }
      ],
      "name": "withdrawLUSD",
      "outputs": [],
      "stateMutability": "nonpayable",
      "type": "function"
    },
    {
      "stateMutability": "payable",
      "type": "receive"
    }
  ],
  "bytecode": "0x608060405234801561001057600080fd5b50600380546001600160a01b031916339081179091556040516000907f8be0079c531659141344cd1fd0a4f28419497f9722a3daafe3b4186f6b6457e0908290a361378a806100606000396000f3fe6080604052600436106101c85760003560e01c806372fe25aa116100f85780638da5cb5b116100905780638da5cb5b146106375780638f32d59b1461064c578063a20baee614610524578063a3a6401714610675578063ae9187541461068a578063b83f91a21461069f578063c6a6cf20146106b4578063ea9638bf146106fc578063f92d343314610734576101cf565b806372fe25aa14610524578063741bef1a14610539578063761ab22c1461054e578063794e572414610563578063795d26c3146105785780637f7dde4a1461058d578063860665b3146105a257806387eb305d146105dc578063887105d314610622576101cf565b80634870dd9a1161016b5780634870dd9a1461034c5780634ff814431461036157806351584ca41461038b5780635530273c146103dd5780635733d58f1461041e57806368647db1146104335780636c37a4af146104615780636f0b0c1c146104df5780636f30d212146104f4576101cf565b806304491fa7146101d45780630e704d50146102175780631184e5f81461022c5780631bf43555146102735780632cdcd7221461029a5780632e86bbd8146102f15780633cc74225146103065780633d83908a14610337576101cf565b366101cf57005b600080fd5b3480156101e057600080fd5b50610215600480360360608110156101f757600080fd5b508035906001600160a01b0360208201358116916040013516610749565b005b34801561022357600080fd5b50610215610760565b34801561023857600080fd5b506102156004803603608081101561024f57600080fd5b508035906020810135906001600160a01b0360408201358116916060013516610b3e565b34801561027f57600080fd5b50610288610b55565b60408051918252519081900360200190f35b3480156102a657600080fd5b50610215600480360360c08110156102bd57600080fd5b506001600160a01b0381358116916020810135916040820135916060810135151591608082013581169160a0013516610b62565b3480156102fd57600080fd5b50610288610b7a565b34801561031257600080fd5b5061031b610b87565b604080516001600160a01b039092168252519081900360200190f35b34801561034357600080fd5b5061031b610b96565b34801561035857600080fd5b50610288610ba5565b34801561036d57600080fd5b506102886004803603602081101561038457600080fd5b5035610baa565b34801561039757600080fd5b50610288600480360360e08110156103ae57600080fd5b50803590602081013590604081013590606081013515159060808101359060a081013515159060c00135610bbb565b3480156103e957600080fd5b506102156004803603606081101561040057600080fd5b508035906001600160a01b0360208201358116916040013516610bd8565b34801561042a57600080fd5b50610288610be9565b6102156004803603604081101561044957600080fd5b506001600160a01b0381358116916020013516610bf5565b34801561046d57600080fd5b50610215600480360361014081101561048557600080fd5b506001600160a01b038135811691602081013582169160408201358116916060810135821691608082013581169160a081013582169160c082013581169160e0810135821691610100820135811691610120013516610c0b565b3480156104eb57600080fd5b50610215610fb0565b34801561050057600080fd5b506102886004803603604081101561051757600080fd5b5080359060200135611010565b34801561053057600080fd5b50610288611023565b34801561054557600080fd5b5061031b61102f565b34801561055a57600080fd5b5061031b61103e565b34801561056f57600080fd5b5061028861104d565b34801561058457600080fd5b50610288611059565b34801561059957600080fd5b5061031b61115a565b610215600480360360808110156105b857600080fd5b508035906020810135906001600160a01b0360408201358116916060013516611169565b3480156105e857600080fd5b50610288600480360360a08110156105ff57600080fd5b50803590602081013515159060408101359060608101351515906080013561179e565b34801561062e57600080fd5b506102886117b7565b34801561064357600080fd5b5061031b611873565b34801561065857600080fd5b50610661611882565b604080519115158252519081900360200190f35b34801561068157600080fd5b5061031b611893565b34801561069657600080fd5b5061031b6118a2565b3480156106ab57600080fd5b5061031b6118b1565b610215600480360360c08110156106ca57600080fd5b5080359060208101359060408101359060608101351515906001600160a01b03608082013581169160a00135166118c0565b6102156004803603606081101561071257600080fd5b506001600160a01b0381358116916020810135821691604090910135166118cf565b34801561074057600080fd5b506102886118e9565b61075b336000856000868660006118f4565b505050565b600454600054600a546001600160a01b039283169291821691166107848333611f39565b60025460408051630fdb11cf60e01b815290516000926001600160a01b031691630fdb11cf91600480830192602092919082900301818787803b1580156107ca57600080fd5b505af11580156107de573d6000803e3d6000fd5b505050506040513d60208110156107f457600080fd5b5051905061080181611ffe565b60408051630b07655760e01b815233600482015290516001600160a01b03861691630b07655791602480830192600092919082900301818387803b15801561084857600080fd5b505af115801561085c573d6000803e3d6000fd5b5050604080516309019aaf60e31b81523360048201529051600093506001600160a01b038816925063480cd57891602480820192602092909190829003018186803b1580156108aa57600080fd5b505afa1580156108be573d6000803e3d6000fd5b505050506040513d60208110156108d457600080fd5b50516040805163d66a255360e01b815233600482015290519192506000916001600160a01b0388169163d66a2553916024808301926020929190829003018186803b15801561092257600080fd5b505afa158015610936573d6000803e3d6000fd5b505050506040513d602081101561094c57600080fd5b50519050610973843361096e846802b5e3af16b188000063ffffffff61204616565b612088565b60408051631fc5750960e31b815233600482015290516001600160a01b0388169163fe2ba84891602480830192600092919082900301818387803b1580156109ba57600080fd5b505af11580156109ce573d6000803e3d6000fd5b5050604080516365e89c5760e11b815233600482015290516001600160a01b038a16935063cbd138ae9250602480830192600092919082900301818387803b158015610a1957600080fd5b505af1158015610a2d573d6000803e3d6000fd5b50505050336001600160a01b03166000805160206135648339815191526000806000600160405180858152602001848152602001838152602001826002811115610a7357fe5b60ff16815260200194505050505060405180910390a2610aad858533610aa8856802b5e3af16b188000063ffffffff61204616565b612148565b600654610ad090869086906001600160a01b03166802b5e3af16b1880000612148565b604080516364a197f360e01b81523360048201526024810184905290516001600160a01b038716916364a197f391604480830192600092919082900301818387803b158015610b1e57600080fd5b505af1158015610b32573d6000803e3d6000fd5b50505050505050505050565b610b4f33600085600186868a6118f4565b50505050565b6869b5afac750bb8000081565b610b7286868686868660006118f4565b505050505050565b6802b5e3af16b188000081565b6001546001600160a01b031681565b6004546001600160a01b031681565b60c881565b6000610bb582612224565b92915050565b6000610bcc8888888888888861223f565b98975050505050505050565b61075b3384600080868660006118f4565b6714d1120d7b16000081565b610c07336000806000868660006118f4565b5050565b610c13611882565b610c64576040805162461bcd60e51b815260206004820181905260248201527f4f776e61626c653a2063616c6c6572206973206e6f7420746865206f776e6572604482015290519081900360640190fd5b610c6d8a612272565b610c7689612272565b610c7f88612272565b610c8887612272565b610c9186612272565b610c9a85612272565b610ca384612272565b610cac83612272565b610cb582612272565b610cbe81612272565b600480546001600160a01b03199081166001600160a01b038d81169182179093556000805483168d85161790556001805483168c85161790556005805483168b85161790556006805483168a8516179055600780548316898516179055600280548316888516179055600b80548316878516179055600a80548316868516179055600980548316938516938417905560088054909216909217905560408051918252517f143219c9e69b09e07e095fcc889b43d8f46ca892bba65f08dc3a0050869a5678916020908290030190a1604080516001600160a01b038b16815290517f78f058b189175430c48dc02699e3a0031ea4ff781536dc2fab847de4babdd8829181900360200190a1604080516001600160a01b038a16815290517f5ee0cae2f063ed938bb55046f6a932fb6ae792bf43624806bb90abe68a50be9b9181900360200190a1604080516001600160a01b038916815290517f82966d27eea39b038ee0fa30cd16532bb24f6e65d31cb58fb227aa5766cdcc7f9181900360200190a1604080516001600160a01b038816815290517fcfb07d791fcafc032b35837b50eb84b74df518cf4cc287e8084f47630fa70fa09181900360200190a1604080516001600160a01b038716815290517fe67f36a6e961157d6eff83b91f3af5a62131ceb6f04954ef74f51c1c05e7f88d9181900360200190a1604080516001600160a01b038616815290517f8c537274438aa850a330284665d81a85dd38267d09e4050d416bfc94142db2649181900360200190a1604080516001600160a01b038516815290517f65f4cf077bc01e4742eb5ad98326f6e95b63548ea24b17f8d5e823111fe788009181900360200190a1604080516001600160a01b038416815290517f227eec0ec317af6ab1a9587ffa1c84332522eb4c583a908f89babc05f8f339bd9181900360200190a1604080516001600160a01b038316815290517f756ebc192164c295bba134b5aacd72cc7aff8098a670d1f0a5f6b3a0b4ce67079181900360200190a1610b32612321565b6007546040805163b32beb5b60e01b815233600482015290516001600160a01b039092169163b32beb5b9160248082019260009290919082900301818387803b158015610ffc57600080fd5b505af1158015610b4f573d6000803e3d6000fd5b600061101c838361236b565b9392505050565b670de0b6b3a764000081565b6002546001600160a01b031681565b6009546001600160a01b031681565b670f43fc2c04ee000081565b6000805460408051632f5a97e560e11b8152905183926001600160a01b031691635eb52fca916004808301926020929190829003018186803b15801561109e57600080fd5b505afa1580156110b2573d6000803e3d6000fd5b505050506040513d60208110156110c857600080fd5b505160015460408051632f5a97e560e11b815290519293506000926001600160a01b0390921691635eb52fca91600480820192602092909190829003018186803b15801561111557600080fd5b505afa158015611129573d6000803e3d6000fd5b505050506040513d602081101561113f57600080fd5b50519050611153828263ffffffff61239e16565b9250505090565b6000546001600160a01b031681565b6111716132b8565b50604080516060810182526004546001600160a01b03908116825260005481166020830152600a5416918101919091526111a96132d8565b600260009054906101000a90046001600160a01b03166001600160a01b0316630fdb11cf6040518163ffffffff1660e01b8152600401602060405180830381600087803b1580156111f957600080fd5b505af115801561120d573d6000803e3d6000fd5b505050506040513d602081101561122357600080fd5b5051808252600090611234906123f8565b90506112408782612415565b825161124c90336124c1565b604082018690528061128d5761126c83600001518460400151888a61259d565b6020830181905260408301516112879163ffffffff61239e16565b60408301525b61129a826040015161274d565b6112a78260400151612224565b606083018190526112b457fe5b6112c73483606001518460000151612795565b608083015260608201516112dc9034906127c7565b60a083015280156112f9576112f482608001516127fc565b61132c565b6113068260800151612843565b600061131f34600185606001516001876000015161288a565b905061132a81612915565b505b825160408051635d6b480f60e01b81523360048201526001602482015290516001600160a01b0390921691635d6b480f9160448082019260009290919082900301818387803b15801561137e57600080fd5b505af1158015611392573d6000803e3d6000fd5b50508451604080516372423c1760e01b815233600482015234602482015290516001600160a01b0390921693506372423c1792506044808201926020929091908290030181600087803b1580156113e857600080fd5b505af11580156113fc573d6000803e3d6000fd5b505050506040513d602081101561141257600080fd5b50508251606083015160408051639976cf4560e01b81523360048201526024810192909252516001600160a01b0390921691639976cf45916044808201926020929091908290030181600087803b15801561146c57600080fd5b505af1158015611480573d6000803e3d6000fd5b505050506040513d602081101561149657600080fd5b50508251604080516382fe3eb960e01b815233600482015290516001600160a01b03909216916382fe3eb99160248082019260009290919082900301818387803b1580156114e357600080fd5b505af11580156114f7573d6000803e3d6000fd5b5050845160408051630c7940bd60e11b815233600482015290516001600160a01b0390921693506318f2817a92506024808201926020929091908290030181600087803b15801561154757600080fd5b505af115801561155b573d6000803e3d6000fd5b505050506040513d602081101561157157600080fd5b505160c0830152600b5460a0830151604080516346f7cf8760e01b815233600482015260248101929092526001600160a01b038881166044840152878116606484015290519216916346f7cf879160848082019260009290919082900301818387803b1580156115e057600080fd5b505af11580156115f4573d6000803e3d6000fd5b50508451604080516315d549f160e01b815233600482015290516001600160a01b0390921693506315d549f192506024808201926020929091908290030181600087803b15801561164457600080fd5b505af1158015611658573d6000803e3d6000fd5b505050506040513d602081101561166e57600080fd5b505160e08301819052604080519182525133917f59cfd0cd754bc5748b6770e94a4ffa5f678d885cb899dcfadc5734edb97c67ab919081900360200190a26116ba83602001513461295c565b6116d383602001518460400151338986604001516129ec565b602083015160408401516006546116ff9291906001600160a01b03166802b5e3af16b1880000806129ec565b336001600160a01b03166000805160206135648339815191528360600151348560c0015160006040518085815260200184815260200183815260200182600281111561174757fe5b60ff16815260200194505050505060405180910390a2602080830151604080519182525133927fa55c5f48fd29482ad55f4b59bf070cd1ac1a7132a31f7a136ebe8877ae37e1ff928290030190a250505050505050565b60006117ad868686868661288a565b9695505050505050565b6000805460408051630a7b61df60e11b8152905183926001600160a01b0316916314f6c3be916004808301926020929190829003018186803b1580156117fc57600080fd5b505afa158015611810573d6000803e3d6000fd5b505050506040513d602081101561182657600080fd5b505160015460408051630a7b61df60e11b815290519293506000926001600160a01b03909216916314f6c3be91600480820192602092909190829003018186803b15801561111557600080fd5b6003546001600160a01b031690565b6003546001600160a01b0316331490565b6008546001600160a01b031681565b600b546001600160a01b031681565b600a546001600160a01b031681565b610b723386868686868c6118f4565b6118d7612ac9565b61075b836000806000868660006118f4565b6611c37937e0800081565b6118fc6132b8565b50604080516060810182526004546001600160a01b03908116825260005481166020830152600a54169181019190915261193461331d565b600260009054906101000a90046001600160a01b03166001600160a01b0316630fdb11cf6040518163ffffffff1660e01b8152600401602060405180830381600087803b15801561198457600080fd5b505af1158015611998573d6000803e3d6000fd5b505050506040513d60208110156119ae57600080fd5b50518082526000906119bf906123f8565b905086156119da576119d18482612415565b6119da88612b14565b6119e389612b53565b6119ed8989612b99565b82516119f9908b611f39565b336001600160a01b038b161480611a2f57506005546001600160a01b031633148015611a255750600034115b8015611a2f575087155b611a3557fe5b82600001516001600160a01b0316630b0765578b6040518263ffffffff1660e01b815260040180826001600160a01b03166001600160a01b03168152602001915050600060405180830381600087803b158015611a9157600080fd5b505af1158015611aa5573d6000803e3d6000fd5b50505050611ab3348a612beb565b15156060840152602083015260408201889052868015611ad1575080155b15611b0c57611aea836000015184604001518a8761259d565b61010083018190526040830151611b069163ffffffff61239e16565b60408301525b82600001516001600160a01b031663d66a25538b6040518263ffffffff1660e01b815260040180826001600160a01b03166001600160a01b0316815260200191505060206040518083038186803b158015611b6657600080fd5b505afa158015611b7a573d6000803e3d6000fd5b505050506040513d6020811015611b9057600080fd5b505160808301528251604080516309019aaf60e31b81526001600160a01b038d811660048301529151919092169163480cd578916024808301926020929190829003018186803b158015611be357600080fd5b505afa158015611bf7573d6000803e3d6000fd5b505050506040513d6020811015611c0d57600080fd5b505160a0830181905260808301518351611c28929190612795565b8260c0018181525050611c588260a0015183608001518460200151856060015186604001518c886000015161223f565b60e083015288151580611c685750865b15611cb2578160a00151891115611c7b57fe5b6000611c9a8360200151846060015185604001518b876000015161288a565b9050611cb0828460c001518560e0015184612c0a565b505b86158015611cc05750600088115b15611d1357611cee611ce98360400151611cdd8560800151612c30565b9063ffffffff61204616565b61274d565b611d0082608001518360400151612c4b565b611d1383604001518b8460400151612088565b611d3183600001518b8460200151856060015186604001518c612ca2565b610120840152610140830152825160408051630c7940bd60e11b81526001600160a01b038d81166004830152915191909216916318f2817a9160248083019260209291908290030181600087803b158015611d8b57600080fd5b505af1158015611d9f573d6000803e3d6000fd5b505050506040513d6020811015611db557600080fd5b505161016083015260a08201516080830151602084015160608501516040860151600094611de9949093909290918d612f02565b600b546040805163015f109360e51b81526001600160a01b038f81166004830152602482018590528b811660448301528a811660648301529151939450911691632be212609160848082019260009290919082900301818387803b158015611e5057600080fd5b505af1158015611e64573d6000803e3d6000fd5b505050508a6001600160a01b0316600080516020613564833981519152846101200151856101400151866101600151600260405180858152602001848152602001838152602001826002811115611eb757fe5b60ff16815260200194505050505060405180910390a2610100830151604080519182525133917fa55c5f48fd29482ad55f4b59bf070cd1ac1a7132a31f7a136ebe8877ae37e1ff919081900360200190a2611f2c8460200151856040015133866020015187606001518e8e8a60400151612f33565b5050505050505050505050565b6000826001600160a01b03166321e37801836040518263ffffffff1660e01b815260040180826001600160a01b03166001600160a01b0316815260200191505060206040518083038186803b158015611f9157600080fd5b505afa158015611fa5573d6000803e3d6000fd5b505050506040513d6020811015611fbb57600080fd5b505190506001811461075b5760405162461bcd60e51b815260040180806020018281038252602e815260200180613536602e913960400191505060405180910390fd5b612007816123f8565b156120435760405162461bcd60e51b815260040180806020018281038252603981526020018061341b6039913960400191505060405180910390fd5b50565b600061101c83836040518060400160405280601e81526020017f536166654d6174683a207375627472616374696f6e206f766572666c6f770000815250612fee565b80836001600160a01b03166370a08231846040518263ffffffff1660e01b815260040180826001600160a01b03166001600160a01b0316815260200191505060206040518083038186803b1580156120df57600080fd5b505afa1580156120f3573d6000803e3d6000fd5b505050506040513d602081101561210957600080fd5b5051101561075b5760405162461bcd60e51b815260040180806020018281038252603d815260200180613584603d913960400191505060405180910390fd5b836001600160a01b03166338d995a8826040518263ffffffff1660e01b815260040180828152602001915050600060405180830381600087803b15801561218e57600080fd5b505af11580156121a2573d6000803e3d6000fd5b50505050826001600160a01b0316639dc29fac83836040518363ffffffff1660e01b815260040180836001600160a01b03166001600160a01b0316815260200182815260200192505050600060405180830381600087803b15801561220657600080fd5b505af115801561221a573d6000803e3d6000fd5b5050505050505050565b6000610bb5826802b5e3af16b188000063ffffffff61239e16565b60008060006122528a8a8a8a8a8a613085565b915091506000612263838387612795565b9b9a5050505050505050505050565b6001600160a01b0381166122cd576040805162461bcd60e51b815260206004820152601e60248201527f4163636f756e742063616e6e6f74206265207a65726f20616464726573730000604482015290519081900360640190fd5b803b80610c07576040805162461bcd60e51b815260206004820181905260248201527f4163636f756e7420636f64652073697a652063616e6e6f74206265207a65726f604482015290519081900360640190fd5b6003546040516000916001600160a01b0316907f8be0079c531659141344cd1fd0a4f28419497f9722a3daafe3b4186f6b6457e0908390a3600380546001600160a01b0319169055565b600080612396670de0b6b3a764000061238a858763ffffffff6130e016565b9063ffffffff61313916565b949350505050565b60008282018381101561101c576040805162461bcd60e51b815260206004820152601b60248201527f536166654d6174683a206164646974696f6e206f766572666c6f770000000000604482015290519081900360640190fd5b6000806124048361317b565b6714d1120d7b160000119392505050565b801561246757670de0b6b3a76400008211156124625760405162461bcd60e51b81526004018080602001828103825260328152602001806134546032913960400191505060405180910390fd5b610c07565b6611c37937e0800082108015906124865750670de0b6b3a76400008211155b610c075760405162461bcd60e51b81526004018080602001828103825260308152602001806136b06030913960400191505060405180910390fd5b6000826001600160a01b03166321e37801836040518263ffffffff1660e01b815260040180826001600160a01b03166001600160a01b0316815260200191505060206040518083038186803b15801561251957600080fd5b505afa15801561252d573d6000803e3d6000fd5b505050506040513d602081101561254357600080fd5b50519050600181141561075b576040805162461bcd60e51b815260206004820152601c60248201527f426f72726f7765724f70733a2054726f76652069732061637469766500000000604482015290519081900360640190fd5b6000846001600160a01b0316635dba4c4a6040518163ffffffff1660e01b8152600401600060405180830381600087803b1580156125da57600080fd5b505af11580156125ee573d6000803e3d6000fd5b505050506000856001600160a01b031663631203b0856040518263ffffffff1660e01b81526004018082815260200191505060206040518083038186803b15801561263857600080fd5b505afa15801561264c573d6000803e3d6000fd5b505050506040513d602081101561266257600080fd5b5051905061267181858561319f565b60085460408051634677ffb360e01b81526004810184905290516001600160a01b0390921691634677ffb39160248082019260009290919082900301818387803b1580156126be57600080fd5b505af11580156126d2573d6000803e3d6000fd5b5050600954604080516340c10f1960e01b81526001600160a01b03928316600482015260248101869052905191891693506340c10f19925060448082019260009290919082900301818387803b15801561272b57600080fd5b505af115801561273f573d6000803e3d6000fd5b509298975050505050505050565b6869b5afac750bb800008110156120435760405162461bcd60e51b815260040180806020018281038252603a81526020018061360a603a913960400191505060405180910390fd5b600082156127bc5760006127b38461238a878663ffffffff6130e016565b915061101c9050565b506000199392505050565b600081156127f3576127ec8261238a8568056bc75e2d6310000063ffffffff6130e016565b9050610bb5565b50600019610bb5565b6714d1120d7b1600008110156120435760405162461bcd60e51b815260040180806020018281038252603d815260200180613381603d913960400191505060405180910390fd5b670f43fc2c04ee00008110156120435760405162461bcd60e51b81526004018080602001828103825260498152602001806135c16049913960600191505060405180910390fd5b6000806128956117b7565b905060006128a1611059565b9050866128bd576128b8828963ffffffff61204616565b6128cd565b6128cd828963ffffffff61239e16565b9150846128e9576128e4818763ffffffff61204616565b6128f9565b6128f9818763ffffffff61239e16565b90506000612908838387612795565b9998505050505050505050565b6714d1120d7b1600008110156120435760405162461bcd60e51b81526004018080602001828103825260498152602001806134ed6049913960600191505060405180910390fd5b6040516000906001600160a01b0384169083908381818185875af1925050503d80600081146129a7576040519150601f19603f3d011682016040523d82523d6000602084013e6129ac565b606091505b505090508061075b5760405162461bcd60e51b815260040180806020018281038252602d8152602001806133be602d913960400191505060405180910390fd5b846001600160a01b031663cfb9329a826040518263ffffffff1660e01b815260040180828152602001915050600060405180830381600087803b158015612a3257600080fd5b505af1158015612a46573d6000803e3d6000fd5b50505050836001600160a01b03166340c10f1984846040518363ffffffff1660e01b815260040180836001600160a01b03166001600160a01b0316815260200182815260200192505050600060405180830381600087803b158015612aaa57600080fd5b505af1158015612abe573d6000803e3d6000fd5b505050505050505050565b6005546001600160a01b03163314612b125760405162461bcd60e51b81526004018080602001828103825260298152602001806136876029913960400191505060405180910390fd5b565b600081116120435760405162461bcd60e51b81526004018080602001828103825260378152602001806136e06037913960400191505060405180910390fd5b341580612b5e575080155b6120435760405162461bcd60e51b81526004018080602001828103825260308152602001806133eb6030913960400191505060405180910390fd5b34151580612ba657508115155b80612bb057508015155b610c075760405162461bcd60e51b81526004018080602001828103825260468152602001806134866046913960600191505060405180910390fd5b6000808315612bff57508290506001612c03565b8291505b9250929050565b612c1382612843565b83612c2657612c2181612915565b610b4f565b610b4f8284613214565b6000610bb5826802b5e3af16b188000063ffffffff61204616565b612c64826802b5e3af16b188000063ffffffff61204616565b811115610c075760405162461bcd60e51b81526004018080602001828103825260438152602001806136446043913960600191505060405180910390fd5b600080600085612d3d57886001600160a01b031663d3d6f84389896040518363ffffffff1660e01b815260040180836001600160a01b03166001600160a01b0316815260200182815260200192505050602060405180830381600087803b158015612d0c57600080fd5b505af1158015612d20573d6000803e3d6000fd5b505050506040513d6020811015612d3657600080fd5b5051612dca565b886001600160a01b03166372423c1789896040518363ffffffff1660e01b815260040180836001600160a01b03166001600160a01b0316815260200182815260200192505050602060405180830381600087803b158015612d9d57600080fd5b505af1158015612db1573d6000803e3d6000fd5b505050506040513d6020811015612dc757600080fd5b50515b9050600084612e6457896001600160a01b03166312610e928a886040518363ffffffff1660e01b815260040180836001600160a01b03166001600160a01b0316815260200182815260200192505050602060405180830381600087803b158015612e3357600080fd5b505af1158015612e47573d6000803e3d6000fd5b505050506040513d6020811015612e5d57600080fd5b5051612ef1565b896001600160a01b0316639976cf458a886040518363ffffffff1660e01b815260040180836001600160a01b03166001600160a01b0316815260200182815260200192505050602060405180830381600087803b158015612ec457600080fd5b505af1158015612ed8573d6000803e3d6000fd5b505050506040513d6020811015612eee57600080fd5b50515b919a91995090975050505050505050565b6000806000612f15898989898989613085565b915091506000612f2583836127c7565b9a9950505050505050505050565b8115612f4b57612f4688888886856129ec565b612f57565b612f5788888886612148565b8315612f6c57612f67888661295c565b61221a565b876001600160a01b03166364a197f387876040518363ffffffff1660e01b815260040180836001600160a01b03166001600160a01b0316815260200182815260200192505050600060405180830381600087803b158015612fcc57600080fd5b505af1158015612fe0573d6000803e3d6000fd5b505050505050505050505050565b6000818484111561307d5760405162461bcd60e51b81526004018080602001828103825283818151815260200191508051906020019080838360005b8381101561304257818101518382015260200161302a565b50505050905090810190601f16801561306f5780820380516001836020036101000a031916815260200191505b509250505060405180910390fd5b505050900390565b6000808787866130a45761309f8a8963ffffffff61204616565b6130b4565b6130b48a8963ffffffff61239e16565b9150846130d0576130cb898763ffffffff61204616565b612ef1565b612ef1898763ffffffff61239e16565b6000826130ef57506000610bb5565b828202828482816130fc57fe5b041461101c5760405162461bcd60e51b81526004018080602001828103825260218152602001806134cc6021913960400191505060405180910390fd5b600061101c83836040518060400160405280601a81526020017f536166654d6174683a206469766973696f6e206279207a65726f000000000000815250613253565b6000806131866117b7565b90506000613192611059565b9050612396828286612795565b60006131bd8361238a86670de0b6b3a764000063ffffffff6130e016565b905081811115610b4f576040805162461bcd60e51b815260206004820152601d60248201527f4665652065786365656465642070726f7669646564206d6178696d756d000000604482015290519081900360640190fd5b80821015610c075760405162461bcd60e51b815260040180806020018281038252603e815260200180613717603e913960400191505060405180910390fd5b600081836132a25760405162461bcd60e51b815260206004820181815283516024840152835190928392604490910191908501908083836000831561304257818101518382015260200161302a565b5060008385816132ae57fe5b0495945050505050565b604080516060810182526000808252602082018190529181019190915290565b60405180610100016040528060008152602001600081526020016000815260200160008152602001600081526020016000815260200160008152602001600081525090565b6040518061018001604052806000815260200160008152602001600081526020016000151581526020016000815260200160008152602001600081526020016000815260200160008152602001600081526020016000815260200160008152509056fe426f72726f7765724f70733a20496e205265636f76657279204d6f6465206e65772074726f766573206d757374206861766520494352203e3d20434352426f72726f7765724f70733a2053656e64696e672045544820746f20416374697665506f6f6c206661696c6564426f72726f7765724f7065726174696f6e733a2043616e6e6f7420776974686472617720616e642061646420636f6c6c426f72726f7765724f70733a204f7065726174696f6e206e6f74207065726d697474656420647572696e67205265636f76657279204d6f64654d6178206665652070657263656e74616765206d757374206c657373207468616e206f7220657175616c20746f2031303025426f72726f7765724f70733a205468657265206d75737420626520656974686572206120636f6c6c61746572616c206368616e6765206f7220612064656274206368616e6765536166654d6174683a206d756c7469706c69636174696f6e206f766572666c6f77426f72726f7765724f70733a20416e206f7065726174696f6e207468617420776f756c6420726573756c7420696e20544352203c20434352206973206e6f74207065726d6974746564426f72726f7765724f70733a2054726f766520646f6573206e6f74206578697374206f7220697320636c6f736564c3770d654ed33aeea6bf11ac8ef05d02a6a04ed4686dd2f624d853bbec43cc8b426f72726f7765724f70733a2043616c6c657220646f65736e74206861766520656e6f756768204c55534420746f206d616b652072657061796d656e74426f72726f7765724f70733a20416e206f7065726174696f6e207468617420776f756c6420726573756c7420696e20494352203c204d4352206973206e6f74207065726d6974746564426f72726f7765724f70733a2054726f76652773206e65742064656274206d7573742062652067726561746572207468616e206d696e696d756d426f72726f7765724f70733a20416d6f756e7420726570616964206d757374206e6f74206265206c6172676572207468616e207468652054726f766527732064656274426f72726f7765724f70733a2043616c6c6572206973206e6f742053746162696c69747920506f6f6c4d6178206665652070657263656e74616765206d757374206265206265747765656e20302e352520616e642031303025426f72726f7765724f70733a204465627420696e637265617365207265717569726573206e6f6e2d7a65726f20646562744368616e6765426f72726f7765724f70733a2043616e6e6f7420646563726561736520796f75722054726f766527732049435220696e205265636f76657279204d6f6465a2646970667358221220fda9827c887505148d75af9b2d5863495dfa651f8bb328317fe97efc0f440bab64736f6c634300060b0033",
  "linkReferences": {},
  "deployedLinkReferences": {}
}