{
  "_format": "hh-sol-artifact-1",
  "contractName": "CollSurplusPool",
  "sourceName": "contracts/CollSurplusPool.sol",
  "abi": [
    {
      "anonymous": false,
      "inputs": [
        {
          "indexed": false,
          "internalType": "address",
          "name": "_newActivePoolAddress",
          "type": "address"
        }
      ],
      "name": "ActivePoolAddressChanged",
      "type": "event"
    },
    {
      "anonymous": false,
      "inputs": [
        {
          "indexed": false,
          "internalType": "address",
          "name": "_newBorrowerOperationsAddress",
          "type": "address"
        }
      ],
      "name": "BorrowerOperationsAddressChanged",
      "type": "event"
    },
    {
      "anonymous": false,
      "inputs": [
        {
          "indexed": true,
          "internalType": "address",
          "name": "_account",
          "type": "address"
        },
        {
          "indexed": false,
          "internalType": "uint256",
          "name": "_newBalance",
          "type": "uint256"
        }
      ],
      "name": "CollBalanceUpdated",
      "type": "event"
    },
    {
      "anonymous": false,
      "inputs": [
        {
          "indexed": false,
          "internalType": "address",
          "name": "_to",
          "type": "address"
        },
        {
          "indexed": false,
          "internalType": "uint256",
          "name": "_amount",
          "type": "uint256"
        }
      ],
      "name": "EtherSent",
      "type": "event"
    },
    {
      "anonymous": false,
      "inputs": [
        {
          "indexed": true,
          "internalType": "address",
          "name": "previousOwner",
          "type": "address"
        },
        {
          "indexed": true,
          "internalType": "address",
          "name": "newOwner",
          "type": "address"
        }
      ],
      "name": "OwnershipTransferred",
      "type": "event"
    },
    {
      "anonymous": false,
      "inputs": [
        {
          "indexed": false,
          "internalType": "address",
          "name": "_newTroveManagerAddress",
          "type": "address"
        }
      ],
      "name": "TroveManagerAddressChanged",
      "type": "event"
    },
    {
      "inputs": [
        {
          "internalType": "address",
          "name": "_account",
          "type": "address"
        },
        {
          "internalType": "uint256",
          "name": "_amount",
          "type": "uint256"
        }
      ],
      "name": "accountSurplus",
      "outputs": [],
      "stateMutability": "nonpayable",
      "type": "function"
    },
    {
      "inputs": [],
      "name": "activePoolAddress",
      "outputs": [
        {
          "internalType": "address",
          "name": "",
          "type": "address"
        }
      ],
      "stateMutability": "view",
      "type": "function"
    },
    {
      "inputs": [],
      "name": "borrowerOperationsAddress",
      "outputs": [
        {
          "internalType": "address",
          "name": "",
          "type": "address"
        }
      ],
      "stateMutability": "view",
      "type": "function"
    },
    {
      "inputs": [
        {
          "internalType": "address",
          "name": "_account",
          "type": "address"
        }
      ],
      "name": "claimColl",
      "outputs": [],
      "stateMutability": "nonpayable",
      "type": "function"
    },
    {
      "inputs": [
        {
          "internalType": "address",
          "name": "_account",
          "type": "address"
        }
      ],
      "name": "getCollateral",
      "outputs": [
        {
          "internalType": "uint256",
          "name": "",
          "type": "uint256"
        }
      ],
      "stateMutability": "view",
      "type": "function"
    },
    {
      "inputs": [],
      "name": "getETH",
      "outputs": [
        {
          "internalType": "uint256",
          "name": "",
          "type": "uint256"
        }
      ],
      "stateMutability": "view",
      "type": "function"
    },
    {
      "inputs": [],
      "name": "isOwner",
      "outputs": [
        {
          "internalType": "bool",
          "name": "",
          "type": "bool"
        }
      ],
      "stateMutability": "view",
      "type": "function"
    },
    {
      "inputs": [],
      "name": "owner",
      "outputs": [
        {
          "internalType": "address",
          "name": "",
          "type": "address"
        }
      ],
      "stateMutability": "view",
      "type": "function"
    },
    {
      "inputs": [
        {
          "internalType": "address",
          "name": "_borrowerOperationsAddress",
          "type": "address"
        },
        {
          "internalType": "address",
          "name": "_troveManagerAddress",
          "type": "address"
        },
        {
          "internalType": "address",
          "name": "_activePoolAddress",
          "type": "address"
        }
      ],
      "name": "setAddresses",
      "outputs": [],
      "stateMutability": "nonpayable",
      "type": "function"
    },
    {
      "inputs": [],
      "name": "troveManagerAddress",
      "outputs": [
        {
          "internalType": "address",
          "name": "",
          "type": "address"
        }
      ],
      "stateMutability": "view",
      "type": "function"
    },
    {
      "stateMutability": "payable",
      "type": "receive"
    }
  ],
  "bytecode": "0x608060405234801561001057600080fd5b50600080546001600160a01b0319163390811782556040519091907f8be0079c531659141344cd1fd0a4f28419497f9722a3daafe3b4186f6b6457e0908290a3610a7a8061005f6000396000f3fe6080604052600436106100955760003560e01c80638f32d59b116100595780638f32d59b146101ac5780639b56d6c9146101d5578063b08bc72214610208578063b32beb5b1461021d578063b7f8cf9b14610250576100ba565b806314f6c3be146100bf578063363bf964146100e65780633f10abab1461012d5780635a4d28bb146101665780638da5cb5b14610197576100ba565b366100ba576100a2610265565b6004546100b5903463ffffffff6102b016565b600455005b600080fd5b3480156100cb57600080fd5b506100d4610311565b60408051918252519081900360200190f35b3480156100f257600080fd5b5061012b6004803603606081101561010957600080fd5b506001600160a01b038135811691602081013582169160409091013516610317565b005b34801561013957600080fd5b5061012b6004803603604081101561015057600080fd5b506001600160a01b03813516906020013561047d565b34801561017257600080fd5b5061017b610509565b604080516001600160a01b039092168252519081900360200190f35b3480156101a357600080fd5b5061017b610518565b3480156101b857600080fd5b506101c1610527565b604080519115158252519081900360200190f35b3480156101e157600080fd5b506100d4600480360360208110156101f857600080fd5b50356001600160a01b0316610538565b34801561021457600080fd5b5061017b610553565b34801561022957600080fd5b5061012b6004803603602081101561024057600080fd5b50356001600160a01b0316610562565b34801561025c57600080fd5b5061017b6106f7565b6003546001600160a01b031633146102ae5760405162461bcd60e51b815260040180806020018281038252602a81526020018061099b602a913960400191505060405180910390fd5b565b60008282018381101561030a576040805162461bcd60e51b815260206004820152601b60248201527f536166654d6174683a206164646974696f6e206f766572666c6f770000000000604482015290519081900360640190fd5b9392505050565b60045490565b61031f610527565b610370576040805162461bcd60e51b815260206004820181905260248201527f4f776e61626c653a2063616c6c6572206973206e6f7420746865206f776e6572604482015290519081900360640190fd5b61037983610706565b61038282610706565b61038b81610706565b600180546001600160a01b038086166001600160a01b0319928316811790935560028054868316908416179055600380549185169190921617905560408051918252517f3ca631ffcd2a9b5d9ae18543fc82f58eb4ca33af9e6ab01b7a8e95331e6ed9859181900360200190a1604080516001600160a01b038416815290517f143219c9e69b09e07e095fcc889b43d8f46ca892bba65f08dc3a0050869a56789181900360200190a1604080516001600160a01b038316815290517f78f058b189175430c48dc02699e3a0031ea4ff781536dc2fab847de4babdd8829181900360200190a16104786107b9565b505050565b610485610803565b6001600160a01b0382166000908152600560205260408120546104ae908363ffffffff6102b016565b6001600160a01b0384166000818152600560209081526040918290208490558151848152915193945091927ff0393a34d05e6567686ad4e097f9d9d2781565957394f1f0d984e5d8e6378f20929181900390910190a2505050565b6002546001600160a01b031681565b6000546001600160a01b031690565b6000546001600160a01b0316331490565b6001600160a01b031660009081526005602052604090205490565b6003546001600160a01b031681565b61056a61084c565b6001600160a01b038116600090815260056020526040902054806105bf5760405162461bcd60e51b815260040180806020018281038252603181526020018061096a6031913960400191505060405180910390fd5b6001600160a01b03821660008181526005602090815260408083208390558051928352517ff0393a34d05e6567686ad4e097f9d9d2781565957394f1f0d984e5d8e6378f209281900390910190a2600454610620908263ffffffff61089516565b600455604080516001600160a01b03841681526020810183905281517f6109e2559dfa766aaec7118351d48a523f0a4157f49c8d68749c8ac41318ad12929181900390910190a16040516000906001600160a01b0384169083908381818185875af1925050503d80600081146106b2576040519150601f19603f3d011682016040523d82523d6000602084013e6106b7565b606091505b50509050806104785760405162461bcd60e51b81526004018080602001828103825260238152602001806109c56023913960400191505060405180910390fd5b6001546001600160a01b031681565b6001600160a01b038116610761576040805162461bcd60e51b815260206004820152601e60248201527f4163636f756e742063616e6e6f74206265207a65726f20616464726573730000604482015290519081900360640190fd5b803b806107b5576040805162461bcd60e51b815260206004820181905260248201527f4163636f756e7420636f64652073697a652063616e6e6f74206265207a65726f604482015290519081900360640190fd5b5050565b600080546040516001600160a01b03909116907f8be0079c531659141344cd1fd0a4f28419497f9722a3daafe3b4186f6b6457e0908390a3600080546001600160a01b0319169055565b6002546001600160a01b031633146102ae5760405162461bcd60e51b815260040180806020018281038252602b815260200180610a1a602b913960400191505060405180910390fd5b6001546001600160a01b031633146102ae5760405162461bcd60e51b81526004018080602001828103825260328152602001806109e86032913960400191505060405180910390fd5b600061030a83836040518060400160405280601e81526020017f536166654d6174683a207375627472616374696f6e206f766572666c6f770000815250600081848411156109615760405162461bcd60e51b81526004018080602001828103825283818151815260200191508051906020019080838360005b8381101561092657818101518382015260200161090e565b50505050905090810190601f1680156109535780820380516001836020036101000a031916815260200191505b509250505060405180910390fd5b50505090039056fe436f6c6c537572706c7573506f6f6c3a204e6f20636f6c6c61746572616c20617661696c61626c6520746f20636c61696d436f6c6c537572706c7573506f6f6c3a2043616c6c6572206973206e6f742041637469766520506f6f6c436f6c6c537572706c7573506f6f6c3a2073656e64696e6720455448206661696c6564436f6c6c537572706c7573506f6f6c3a2043616c6c6572206973206e6f7420426f72726f776572204f7065726174696f6e73436f6c6c537572706c7573506f6f6c3a2043616c6c6572206973206e6f742054726f76654d616e61676572a2646970667358221220014e547511aab1be4e0d81b5cd82d2a552e5981c9a47d58d7a6746ce61148f0264736f6c634300060b0033",
  "linkReferences": {},
  "deployedLinkReferences": {}
}