{
  "_format": "hh-sol-artifact-1",
  "contractName": "CommunityIssuance",
  "sourceName": "contracts/LQTY/CommunityIssuance.sol",
  "abi": [
    {
      "inputs": [],
      "stateMutability": "nonpayable",
      "type": "constructor"
    },
    {
      "anonymous": false,
      "inputs": [
        {
          "indexed": false,
          "internalType": "address",
          "name": "_lqtyTokenAddress",
          "type": "address"
        }
      ],
      "name": "LQTYTokenAddressSet",
      "type": "event"
    },
    {
      "anonymous": false,
      "inputs": [
        {
          "indexed": true,
          "internalType": "address",
          "name": "previousOwner",
          "type": "address"
        },
        {
          "indexed": true,
          "internalType": "address",
          "name": "newOwner",
          "type": "address"
        }
      ],
      "name": "OwnershipTransferred",
      "type": "event"
    },
    {
      "anonymous": false,
      "inputs": [
        {
          "indexed": false,
          "internalType": "address",
          "name": "_stabilityPoolAddress",
          "type": "address"
        }
      ],
      "name": "StabilityPoolAddressSet",
      "type": "event"
    },
    {
      "anonymous": false,
      "inputs": [
        {
          "indexed": false,
          "internalType": "uint256",
          "name": "_totalLQTYIssued",
          "type": "uint256"
        }
      ],
      "name": "TotalLQTYIssuedUpdated",
      "type": "event"
    },
    {
      "inputs": [],
      "name": "DECIMAL_PRECISION",
      "outputs": [
        {
          "internalType": "uint256",
          "name": "",
          "type": "uint256"
        }
      ],
      "stateMutability": "view",
      "type": "function"
    },
    {
      "inputs": [],
      "name": "ISSUANCE_FACTOR",
      "outputs": [
        {
          "internalType": "uint256",
          "name": "",
          "type": "uint256"
        }
      ],
      "stateMutability": "view",
      "type": "function"
    },
    {
      "inputs": [],
      "name": "LQTYSupplyCap",
      "outputs": [
        {
          "internalType": "uint256",
          "name": "",
          "type": "uint256"
        }
      ],
      "stateMutability": "view",
      "type": "function"
    },
    {
      "inputs": [],
      "name": "NAME",
      "outputs": [
        {
          "internalType": "string",
          "name": "",
          "type": "string"
        }
      ],
      "stateMutability": "view",
      "type": "function"
    },
    {
      "inputs": [],
      "name": "SECONDS_IN_ONE_MINUTE",
      "outputs": [
        {
          "internalType": "uint256",
          "name": "",
          "type": "uint256"
        }
      ],
      "stateMutability": "view",
      "type": "function"
    },
    {
      "inputs": [],
      "name": "deploymentTime",
      "outputs": [
        {
          "internalType": "uint256",
          "name": "",
          "type": "uint256"
        }
      ],
      "stateMutability": "view",
      "type": "function"
    },
    {
      "inputs": [],
      "name": "isOwner",
      "outputs": [
        {
          "internalType": "bool",
          "name": "",
          "type": "bool"
        }
      ],
      "stateMutability": "view",
      "type": "function"
    },
    {
      "inputs": [],
      "name": "issueLQTY",
      "outputs": [
        {
          "internalType": "uint256",
          "name": "",
          "type": "uint256"
        }
      ],
      "stateMutability": "nonpayable",
      "type": "function"
    },
    {
      "inputs": [],
      "name": "lqtyToken",
      "outputs": [
        {
          "internalType": "contract ILQTYToken",
          "name": "",
          "type": "address"
        }
      ],
      "stateMutability": "view",
      "type": "function"
    },
    {
      "inputs": [],
      "name": "owner",
      "outputs": [
        {
          "internalType": "address",
          "name": "",
          "type": "address"
        }
      ],
      "stateMutability": "view",
      "type": "function"
    },
    {
      "inputs": [
        {
          "internalType": "address",
          "name": "_account",
          "type": "address"
        },
        {
          "internalType": "uint256",
          "name": "_LQTYamount",
          "type": "uint256"
        }
      ],
      "name": "sendLQTY",
      "outputs": [],
      "stateMutability": "nonpayable",
      "type": "function"
    },
    {
      "inputs": [
        {
          "internalType": "address",
          "name": "_lqtyTokenAddress",
          "type": "address"
        },
        {
          "internalType": "address",
          "name": "_stabilityPoolAddress",
          "type": "address"
        }
      ],
      "name": "setAddresses",
      "outputs": [],
      "stateMutability": "nonpayable",
      "type": "function"
    },
    {
      "inputs": [],
      "name": "stabilityPoolAddress",
      "outputs": [
        {
          "internalType": "address",
          "name": "",
          "type": "address"
        }
      ],
      "stateMutability": "view",
      "type": "function"
    },
    {
      "inputs": [],
      "name": "totalLQTYIssued",
      "outputs": [
        {
          "internalType": "uint256",
          "name": "",
          "type": "uint256"
        }
      ],
      "stateMutability": "view",
      "type": "function"
    }
  ],
  "bytecode": "0x60a060405234801561001057600080fd5b50600080546001600160a01b0319163390811782556040519091907f8be0079c531659141344cd1fd0a4f28419497f9722a3daafe3b4186f6b6457e0908290a342608052608051610b4c610073600039806105b752806106325250610b4c6000f3fe608060405234801561001057600080fd5b50600436106100ca5760003560e01c80638da5cb5b1161007c5780638da5cb5b1461015b5780638f32d59b1461016357806390107afe1461017f578063a20baee6146101ad578063a3f4df7e146101b5578063b140384b14610232578063ecda10f51461023a576100ca565b80630b622ab2146100cf5780630fc83da3146100f35780631f7af3c31461010d57806346ad34d9146101155780634e5c99571461011d578063614d2ab61461012557806361ec893d14610153575b600080fd5b6100d7610242565b604080516001600160a01b039092168252519081900360200190f35b6100fb610251565b60408051918252519081900360200190f35b6100d761025d565b6100fb61026c565b6100fb61030e565b6101516004803603604081101561013b57600080fd5b506001600160a01b03813516906020013561031d565b005b6100fb6103ab565b6100d76103b0565b61016b6103bf565b604080519115158252519081900360200190f35b6101516004803603604081101561019557600080fd5b506001600160a01b03813581169160200135166103d0565b6100fb610576565b6101bd610582565b6040805160208082528351818301528351919283929083019185019080838360005b838110156101f75781810151838201526020016101df565b50505050905090810190601f1680156102245780820380516001836020036101000a031916815260200191505b509250505060405180910390f35b6100fb6105af565b6100fb6105b5565b6002546001600160a01b031681565b670de0b5809a6f939881565b6001546001600160a01b031681565b60006102766105d9565b60006102b3670de0b6b3a76400006102a761028f610624565b6a1a784379d99db4200000009063ffffffff6106a916565b9063ffffffff61070b16565b905060006102cc6003548361074d90919063ffffffff16565b60038390556040805184815290519192507f033068abf93bdec23e781d0a3b3f3e688bfa8471c68b629ad68652cdc63a6e49919081900360200190a191505090565b6a1a784379d99db42000000081565b6103256105d9565b6001546040805163a9059cbb60e01b81526001600160a01b038581166004830152602482018590529151919092169163a9059cbb9160448083019260209291908290030181600087803b15801561037b57600080fd5b505af115801561038f573d6000803e3d6000fd5b505050506040513d60208110156103a557600080fd5b50505050565b603c81565b6000546001600160a01b031690565b6000546001600160a01b0316331490565b6103d86103bf565b610429576040805162461bcd60e51b815260206004820181905260248201527f4f776e61626c653a2063616c6c6572206973206e6f7420746865206f776e6572604482015290519081900360640190fd5b6104328261078f565b61043b8161078f565b600180546001600160a01b038085166001600160a01b0319928316179283905560028054858316931692909217909155604080516370a0823160e01b81523060048201529051600093909216916370a0823191602480820192602092909190829003018186803b1580156104ae57600080fd5b505afa1580156104c2573d6000803e3d6000fd5b505050506040513d60208110156104d857600080fd5b505190506a1a784379d99db4200000008110156104f157fe5b604080516001600160a01b038516815290517fb0c89119a7c10e4c2d02306921ba368ac83d0e4b302337916017485c2791bec59181900360200190a1604080516001600160a01b038416815290517f45c53611bc8ba9e11f4f8173bda9e3faf89c395ddb83f9a55230b156828db3159181900360200190a1610571610842565b505050565b670de0b6b3a764000081565b60405180604001604052806011815260200170436f6d6d756e69747949737375616e636560781b81525081565b60035481565b7f000000000000000000000000000000000000000000000000000000000000000081565b6002546001600160a01b031633146106225760405162461bcd60e51b8152600401808060200182810382526023815260200180610af46023913960400191505060405180910390fd5b565b60008061065c603c6102a7427f000000000000000000000000000000000000000000000000000000000000000063ffffffff61074d16565b90506000610672670de0b5809a6f93988361088c565b9050600061068e670de0b6b3a76400008363ffffffff61074d16565b9050670de0b6b3a76400008111156106a257fe5b9250505090565b6000826106b857506000610705565b828202828482816106c557fe5b04146107025760405162461bcd60e51b8152600401808060200182810382526021815260200180610ad36021913960400191505060405180910390fd5b90505b92915050565b600061070283836040518060400160405280601a81526020017f536166654d6174683a206469766973696f6e206279207a65726f000000000000815250610941565b600061070283836040518060400160405280601e81526020017f536166654d6174683a207375627472616374696f6e206f766572666c6f7700008152506109e3565b6001600160a01b0381166107ea576040805162461bcd60e51b815260206004820152601e60248201527f4163636f756e742063616e6e6f74206265207a65726f20616464726573730000604482015290519081900360640190fd5b803b8061083e576040805162461bcd60e51b815260206004820181905260248201527f4163636f756e7420636f64652073697a652063616e6e6f74206265207a65726f604482015290519081900360640190fd5b5050565b600080546040516001600160a01b03909116907f8be0079c531659141344cd1fd0a4f28419497f9722a3daafe3b4186f6b6457e0908390a3600080546001600160a01b0319169055565b6000631f5405008211156108a257631f54050091505b816108b65750670de0b6b3a7640000610705565b670de0b6b3a764000083835b600181111561092d57600281066108f7576108dd8283610a3d565b91506108f081600263ffffffff61070b16565b9050610928565b6109018284610a3d565b925061090d8283610a3d565b915061092560026102a783600163ffffffff61074d16565b90505b6108c2565b6109378284610a3d565b9695505050505050565b600081836109cd5760405162461bcd60e51b81526004018080602001828103825283818151815260200191508051906020019080838360005b8381101561099257818101518382015260200161097a565b50505050905090810190601f1680156109bf5780820380516001836020036101000a031916815260200191505b509250505060405180910390fd5b5060008385816109d957fe5b0495945050505050565b60008184841115610a355760405162461bcd60e51b815260206004820181815283516024840152835190928392604490910191908501908083836000831561099257818101518382015260200161097a565b505050900390565b600080610a50848463ffffffff6106a916565b9050610a70670de0b6b3a76400006102a7836706f05b59d3b20000610a78565b949350505050565b600082820183811015610702576040805162461bcd60e51b815260206004820152601b60248201527f536166654d6174683a206164646974696f6e206f766572666c6f770000000000604482015290519081900360640190fdfe536166654d6174683a206d756c7469706c69636174696f6e206f766572666c6f77436f6d6d756e69747949737375616e63653a2063616c6c6572206973206e6f74205350a2646970667358221220778de0bd5ab0b45f42584aa41727e1b2e94a61b7b6c2e2a086f4e923332541a164736f6c634300060b0033",
  "linkReferences": {},
  "deployedLinkReferences": {}
}