{
  "_format": "hh-sol-artifact-1",
  "contractName": "CommunityIssuance",
  "sourceName": "contracts/LQTY/CommunityIssuance.sol",
  "abi": [
    {
      "inputs": [],
      "stateMutability": "nonpayable",
      "type": "constructor"
    },
    {
      "anonymous": false,
      "inputs": [
        {
          "indexed": false,
          "internalType": "address",
          "name": "_lqtyTokenAddress",
          "type": "address"
        }
      ],
      "name": "LQTYTokenAddressSet",
      "type": "event"
    },
    {
      "anonymous": false,
      "inputs": [
        {
          "indexed": true,
          "internalType": "address",
          "name": "previousOwner",
          "type": "address"
        },
        {
          "indexed": true,
          "internalType": "address",
          "name": "newOwner",
          "type": "address"
        }
      ],
      "name": "OwnershipTransferred",
      "type": "event"
    },
    {
      "anonymous": false,
      "inputs": [
        {
          "indexed": false,
          "internalType": "address",
          "name": "_stabilityPoolAddress",
          "type": "address"
        }
      ],
      "name": "StabilityPoolAddressSet",
      "type": "event"
    },
    {
      "anonymous": false,
      "inputs": [
        {
          "indexed": false,
          "internalType": "uint256",
          "name": "_totalLQTYIssued",
          "type": "uint256"
        }
      ],
      "name": "TotalLQTYIssuedUpdated",
      "type": "event"
    },
    {
      "inputs": [],
      "name": "DECIMAL_PRECISION",
      "outputs": [
        {
          "internalType": "uint256",
          "name": "",
          "type": "uint256"
        }
      ],
      "stateMutability": "view",
      "type": "function"
    },
    {
      "inputs": [],
      "name": "ISSUANCE_FACTOR",
      "outputs": [
        {
          "internalType": "uint256",
          "name": "",
          "type": "uint256"
        }
      ],
      "stateMutability": "view",
      "type": "function"
    },
    {
      "inputs": [],
      "name": "LQTYSupplyCap",
      "outputs": [
        {
          "internalType": "uint256",
          "name": "",
          "type": "uint256"
        }
      ],
      "stateMutability": "view",
      "type": "function"
    },
    {
      "inputs": [],
      "name": "SECONDS_IN_ONE_MINUTE",
      "outputs": [
        {
          "internalType": "uint256",
          "name": "",
          "type": "uint256"
        }
      ],
      "stateMutability": "view",
      "type": "function"
    },
    {
      "inputs": [],
      "name": "deploymentTime",
      "outputs": [
        {
          "internalType": "uint256",
          "name": "",
          "type": "uint256"
        }
      ],
      "stateMutability": "view",
      "type": "function"
    },
    {
      "inputs": [],
      "name": "isOwner",
      "outputs": [
        {
          "internalType": "bool",
          "name": "",
          "type": "bool"
        }
      ],
      "stateMutability": "view",
      "type": "function"
    },
    {
      "inputs": [],
      "name": "issueLQTY",
      "outputs": [
        {
          "internalType": "uint256",
          "name": "",
          "type": "uint256"
        }
      ],
      "stateMutability": "nonpayable",
      "type": "function"
    },
    {
      "inputs": [],
      "name": "lqtyToken",
      "outputs": [
        {
          "internalType": "contract ILQTYToken",
          "name": "",
          "type": "address"
        }
      ],
      "stateMutability": "view",
      "type": "function"
    },
    {
      "inputs": [],
      "name": "owner",
      "outputs": [
        {
          "internalType": "address",
          "name": "",
          "type": "address"
        }
      ],
      "stateMutability": "view",
      "type": "function"
    },
    {
      "inputs": [
        {
          "internalType": "address",
          "name": "_account",
          "type": "address"
        },
        {
          "internalType": "uint256",
          "name": "_LQTYamount",
          "type": "uint256"
        }
      ],
      "name": "sendLQTY",
      "outputs": [],
      "stateMutability": "nonpayable",
      "type": "function"
    },
    {
      "inputs": [
        {
          "internalType": "address",
          "name": "_lqtyTokenAddress",
          "type": "address"
        },
        {
          "internalType": "address",
          "name": "_stabilityPoolAddress",
          "type": "address"
        }
      ],
      "name": "setAddresses",
      "outputs": [],
      "stateMutability": "nonpayable",
      "type": "function"
    },
    {
      "inputs": [],
      "name": "stabilityPoolAddress",
      "outputs": [
        {
          "internalType": "address",
          "name": "",
          "type": "address"
        }
      ],
      "stateMutability": "view",
      "type": "function"
    },
    {
      "inputs": [],
      "name": "totalLQTYIssued",
      "outputs": [
        {
          "internalType": "uint256",
          "name": "",
          "type": "uint256"
        }
      ],
      "stateMutability": "view",
      "type": "function"
    }
  ],
  "bytecode": "0x60a060405234801561001057600080fd5b50600080546001600160a01b0319163390811782556040519091907f8be0079c531659141344cd1fd0a4f28419497f9722a3daafe3b4186f6b6457e0908290a342608052608051610a9761007360003980610502528061057d5250610a976000f3fe608060405234801561001057600080fd5b50600436106100bf5760003560e01c806361ec893d1161007c57806361ec893d146101485780638da5cb5b146101505780638f32d59b1461015857806390107afe14610174578063a20baee6146101a2578063b140384b146101aa578063ecda10f5146101b2576100bf565b80630b622ab2146100c45780630fc83da3146100e85780631f7af3c31461010257806346ad34d91461010a5780634e5c995714610112578063614d2ab61461011a575b600080fd5b6100cc6101ba565b604080516001600160a01b039092168252519081900360200190f35b6100f06101c9565b60408051918252519081900360200190f35b6100cc6101d5565b6100f06101e4565b6100f0610286565b6101466004803603604081101561013057600080fd5b506001600160a01b038135169060200135610295565b005b6100f0610323565b6100cc610328565b610160610337565b604080519115158252519081900360200190f35b6101466004803603604081101561018a57600080fd5b506001600160a01b0381358116916020013516610348565b6100f06104ee565b6100f06104fa565b6100f0610500565b6002546001600160a01b031681565b670de0b5809a6f939881565b6001546001600160a01b031681565b60006101ee610524565b600061022b670de0b6b3a764000061021f61020761056f565b6a1a784379d99db4200000009063ffffffff6105f416565b9063ffffffff61065616565b905060006102446003548361069890919063ffffffff16565b60038390556040805184815290519192507f033068abf93bdec23e781d0a3b3f3e688bfa8471c68b629ad68652cdc63a6e49919081900360200190a191505090565b6a1a784379d99db42000000081565b61029d610524565b6001546040805163a9059cbb60e01b81526001600160a01b038581166004830152602482018590529151919092169163a9059cbb9160448083019260209291908290030181600087803b1580156102f357600080fd5b505af1158015610307573d6000803e3d6000fd5b505050506040513d602081101561031d57600080fd5b50505050565b603c81565b6000546001600160a01b031690565b6000546001600160a01b0316331490565b610350610337565b6103a1576040805162461bcd60e51b815260206004820181905260248201527f4f776e61626c653a2063616c6c6572206973206e6f7420746865206f776e6572604482015290519081900360640190fd5b6103aa826106da565b6103b3816106da565b600180546001600160a01b038085166001600160a01b0319928316179283905560028054858316931692909217909155604080516370a0823160e01b81523060048201529051600093909216916370a0823191602480820192602092909190829003018186803b15801561042657600080fd5b505afa15801561043a573d6000803e3d6000fd5b505050506040513d602081101561045057600080fd5b505190506a1a784379d99db42000000081101561046957fe5b604080516001600160a01b038516815290517fb0c89119a7c10e4c2d02306921ba368ac83d0e4b302337916017485c2791bec59181900360200190a1604080516001600160a01b038416815290517f45c53611bc8ba9e11f4f8173bda9e3faf89c395ddb83f9a55230b156828db3159181900360200190a16104e961078d565b505050565b670de0b6b3a764000081565b60035481565b7f000000000000000000000000000000000000000000000000000000000000000081565b6002546001600160a01b0316331461056d5760405162461bcd60e51b8152600401808060200182810382526023815260200180610a3f6023913960400191505060405180910390fd5b565b6000806105a7603c61021f427f000000000000000000000000000000000000000000000000000000000000000063ffffffff61069816565b905060006105bd670de0b5809a6f9398836107d7565b905060006105d9670de0b6b3a76400008363ffffffff61069816565b9050670de0b6b3a76400008111156105ed57fe5b9250505090565b60008261060357506000610650565b8282028284828161061057fe5b041461064d5760405162461bcd60e51b8152600401808060200182810382526021815260200180610a1e6021913960400191505060405180910390fd5b90505b92915050565b600061064d83836040518060400160405280601a81526020017f536166654d6174683a206469766973696f6e206279207a65726f00000000000081525061088c565b600061064d83836040518060400160405280601e81526020017f536166654d6174683a207375627472616374696f6e206f766572666c6f77000081525061092e565b6001600160a01b038116610735576040805162461bcd60e51b815260206004820152601e60248201527f4163636f756e742063616e6e6f74206265207a65726f20616464726573730000604482015290519081900360640190fd5b803b80610789576040805162461bcd60e51b815260206004820181905260248201527f4163636f756e7420636f64652073697a652063616e6e6f74206265207a65726f604482015290519081900360640190fd5b5050565b600080546040516001600160a01b03909116907f8be0079c531659141344cd1fd0a4f28419497f9722a3daafe3b4186f6b6457e0908390a3600080546001600160a01b0319169055565b6000631f5405008211156107ed57631f54050091505b816108015750670de0b6b3a7640000610650565b670de0b6b3a764000083835b60018111156108785760028106610842576108288283610988565b915061083b81600263ffffffff61065616565b9050610873565b61084c8284610988565b92506108588283610988565b9150610870600261021f83600163ffffffff61069816565b90505b61080d565b6108828284610988565b9695505050505050565b600081836109185760405162461bcd60e51b81526004018080602001828103825283818151815260200191508051906020019080838360005b838110156108dd5781810151838201526020016108c5565b50505050905090810190601f16801561090a5780820380516001836020036101000a031916815260200191505b509250505060405180910390fd5b50600083858161092457fe5b0495945050505050565b600081848411156109805760405162461bcd60e51b81526020600482018181528351602484015283519092839260449091019190850190808383600083156108dd5781810151838201526020016108c5565b505050900390565b60008061099b848463ffffffff6105f416565b90506109bb670de0b6b3a764000061021f836706f05b59d3b200006109c3565b949350505050565b60008282018381101561064d576040805162461bcd60e51b815260206004820152601b60248201527f536166654d6174683a206164646974696f6e206f766572666c6f770000000000604482015290519081900360640190fdfe536166654d6174683a206d756c7469706c69636174696f6e206f766572666c6f77436f6d6d756e69747949737375616e63653a2063616c6c6572206973206e6f74205350a2646970667358221220bc0453b20b889e9f21ac5a9f99d6865d9d9fa92b01c113ebf3deac054e99a7f264736f6c634300060b0033",
  "linkReferences": {},
  "deployedLinkReferences": {}
}