{
  "_format": "hh-sol-artifact-1",
  "contractName": "CommunityIssuanceTester",
  "sourceName": "contracts/TestContracts/CommunityIssuanceTester.sol",
  "abi": [
    {
      "anonymous": false,
      "inputs": [
        {
          "indexed": false,
          "internalType": "address",
          "name": "_lqtyTokenAddress",
          "type": "address"
        }
      ],
      "name": "LQTYTokenAddressSet",
      "type": "event"
    },
    {
      "anonymous": false,
      "inputs": [
        {
          "indexed": true,
          "internalType": "address",
          "name": "previousOwner",
          "type": "address"
        },
        {
          "indexed": true,
          "internalType": "address",
          "name": "newOwner",
          "type": "address"
        }
      ],
      "name": "OwnershipTransferred",
      "type": "event"
    },
    {
      "anonymous": false,
      "inputs": [
        {
          "indexed": false,
          "internalType": "address",
          "name": "_stabilityPoolAddress",
          "type": "address"
        }
      ],
      "name": "StabilityPoolAddressSet",
      "type": "event"
    },
    {
      "inputs": [],
      "name": "DECIMAL_PRECISION",
      "outputs": [
        {
          "internalType": "uint256",
          "name": "",
          "type": "uint256"
        }
      ],
      "stateMutability": "view",
      "type": "function"
    },
    {
      "inputs": [],
      "name": "ISSUANCE_FACTOR",
      "outputs": [
        {
          "internalType": "uint256",
          "name": "",
          "type": "uint256"
        }
      ],
      "stateMutability": "view",
      "type": "function"
    },
    {
      "inputs": [],
      "name": "LQTYSupplyCap",
      "outputs": [
        {
          "internalType": "uint256",
          "name": "",
          "type": "uint256"
        }
      ],
      "stateMutability": "view",
      "type": "function"
    },
    {
      "inputs": [],
      "name": "SECONDS_IN_ONE_MINUTE",
      "outputs": [
        {
          "internalType": "uint256",
          "name": "",
          "type": "uint256"
        }
      ],
      "stateMutability": "view",
      "type": "function"
    },
    {
      "inputs": [],
      "name": "deploymentTime",
      "outputs": [
        {
          "internalType": "uint256",
          "name": "",
          "type": "uint256"
        }
      ],
      "stateMutability": "view",
      "type": "function"
    },
    {
      "inputs": [],
      "name": "getCumulativeIssuanceFraction",
      "outputs": [
        {
          "internalType": "uint256",
          "name": "",
          "type": "uint256"
        }
      ],
      "stateMutability": "view",
      "type": "function"
    },
    {
      "inputs": [],
      "name": "isOwner",
      "outputs": [
        {
          "internalType": "bool",
          "name": "",
          "type": "bool"
        }
      ],
      "stateMutability": "view",
      "type": "function"
    },
    {
      "inputs": [],
      "name": "issueLQTY",
      "outputs": [
        {
          "internalType": "uint256",
          "name": "",
          "type": "uint256"
        }
      ],
      "stateMutability": "nonpayable",
      "type": "function"
    },
    {
      "inputs": [],
      "name": "lqtyToken",
      "outputs": [
        {
          "internalType": "contract ILQTYToken",
          "name": "",
          "type": "address"
        }
      ],
      "stateMutability": "view",
      "type": "function"
    },
    {
      "inputs": [
        {
          "internalType": "uint256",
          "name": "_amount",
          "type": "uint256"
        }
      ],
      "name": "obtainLQTY",
      "outputs": [],
      "stateMutability": "nonpayable",
      "type": "function"
    },
    {
      "inputs": [],
      "name": "owner",
      "outputs": [
        {
          "internalType": "address",
          "name": "",
          "type": "address"
        }
      ],
      "stateMutability": "view",
      "type": "function"
    },
    {
      "inputs": [
        {
          "internalType": "address",
          "name": "_account",
          "type": "address"
        },
        {
          "internalType": "uint256",
          "name": "_LQTYamount",
          "type": "uint256"
        }
      ],
      "name": "sendLQTY",
      "outputs": [],
      "stateMutability": "nonpayable",
      "type": "function"
    },
    {
      "inputs": [
        {
          "internalType": "address",
          "name": "_lqtyTokenAddress",
          "type": "address"
        },
        {
          "internalType": "address",
          "name": "_stabilityPoolAddress",
          "type": "address"
        }
      ],
      "name": "setAddresses",
      "outputs": [],
      "stateMutability": "nonpayable",
      "type": "function"
    },
    {
      "inputs": [],
      "name": "stabilityPoolAddress",
      "outputs": [
        {
          "internalType": "address",
          "name": "",
          "type": "address"
        }
      ],
      "stateMutability": "view",
      "type": "function"
    },
    {
      "inputs": [],
      "name": "totalLQTYIssued",
      "outputs": [
        {
          "internalType": "uint256",
          "name": "",
          "type": "uint256"
        }
      ],
      "stateMutability": "view",
      "type": "function"
    },
    {
      "inputs": [],
      "name": "unprotectedIssueLQTY",
      "outputs": [
        {
          "internalType": "uint256",
          "name": "",
          "type": "uint256"
        }
      ],
      "stateMutability": "nonpayable",
      "type": "function"
    }
  ],
  "bytecode": "0x60a060405234801561001057600080fd5b50600080546001600160a01b0319163390811782556040519091907f8be0079c531659141344cd1fd0a4f28419497f9722a3daafe3b4186f6b6457e0908290a342608052608051610b56610073600039806105c152806105f15250610b566000f3fe608060405234801561001057600080fd5b50600436106100e05760003560e01c806361fc8ab41161008757806361fc8ab4146101795780638da5cb5b146101965780638f32d59b1461019e57806390107afe146101ba5780639d5b044d146101e8578063a20baee6146101f0578063b140384b146101f8578063ecda10f514610200576100e0565b80630b622ab2146100e55780630fc83da3146101095780631f7af3c31461012357806343e0a60b1461012b57806346ad34d9146101335780634e5c99571461013b578063614d2ab61461014357806361ec893d14610171575b600080fd5b6100ed610208565b604080516001600160a01b039092168252519081900360200190f35b610111610217565b60408051918252519081900360200190f35b6100ed610223565b610111610232565b610111610295565b6101116102b8565b61016f6004803603604081101561015957600080fd5b506001600160a01b0381351690602001356102c7565b005b610111610355565b61016f6004803603602081101561018f57600080fd5b503561035a565b6100ed6103dd565b6101a66103ec565b604080519115158252519081900360200190f35b61016f600480360360408110156101d057600080fd5b506001600160a01b03813581169160200135166103fd565b61011161059e565b6101116105ad565b6101116105b9565b6101116105bf565b6002546001600160a01b031681565b670de0b5809a6f939881565b6001546001600160a01b031681565b600080610270670de0b6b3a764000061026461024c6105e3565b6a1a784379d99db4200000009063ffffffff61066816565b9063ffffffff6106ca16565b905060006102896003548361070c90919063ffffffff16565b60039290925550905090565b600061029f61074e565b6000610270670de0b6b3a764000061026461024c6105e3565b6a1a784379d99db42000000081565b6102cf61074e565b6001546040805163a9059cbb60e01b81526001600160a01b038581166004830152602482018590529151919092169163a9059cbb9160448083019260209291908290030181600087803b15801561032557600080fd5b505af1158015610339573d6000803e3d6000fd5b505050506040513d602081101561034f57600080fd5b50505050565b603c81565b6001546040805163a9059cbb60e01b81523360048201526024810184905290516001600160a01b039092169163a9059cbb916044808201926020929091908290030181600087803b1580156103ae57600080fd5b505af11580156103c2573d6000803e3d6000fd5b505050506040513d60208110156103d857600080fd5b505050565b6000546001600160a01b031690565b6000546001600160a01b0316331490565b6104056103ec565b610456576040805162461bcd60e51b815260206004820181905260248201527f4f776e61626c653a2063616c6c6572206973206e6f7420746865206f776e6572604482015290519081900360640190fd5b61045f82610799565b61046881610799565b600180546001600160a01b038085166001600160a01b0319928316179283905560028054858316931692909217909155604080516370a0823160e01b81523060048201529051600093909216916370a0823191602480820192602092909190829003018186803b1580156104db57600080fd5b505afa1580156104ef573d6000803e3d6000fd5b505050506040513d602081101561050557600080fd5b505190506a1a784379d99db42000000081101561051e57fe5b604080516001600160a01b038516815290517fb0c89119a7c10e4c2d02306921ba368ac83d0e4b302337916017485c2791bec59181900360200190a1604080516001600160a01b038416815290517f45c53611bc8ba9e11f4f8173bda9e3faf89c395ddb83f9a55230b156828db3159181900360200190a16103d861084c565b60006105a86105e3565b905090565b670de0b6b3a764000081565b60035481565b7f000000000000000000000000000000000000000000000000000000000000000081565b60008061061b603c610264427f000000000000000000000000000000000000000000000000000000000000000063ffffffff61070c16565b90506000610631670de0b5809a6f939883610896565b9050600061064d670de0b6b3a76400008363ffffffff61070c16565b9050670de0b6b3a764000081111561066157fe5b9250505090565b600082610677575060006106c4565b8282028284828161068457fe5b04146106c15760405162461bcd60e51b8152600401808060200182810382526021815260200180610add6021913960400191505060405180910390fd5b90505b92915050565b60006106c183836040518060400160405280601a81526020017f536166654d6174683a206469766973696f6e206279207a65726f00000000000081525061094b565b60006106c183836040518060400160405280601e81526020017f536166654d6174683a207375627472616374696f6e206f766572666c6f7700008152506109ed565b6002546001600160a01b031633146107975760405162461bcd60e51b8152600401808060200182810382526023815260200180610afe6023913960400191505060405180910390fd5b565b6001600160a01b0381166107f4576040805162461bcd60e51b815260206004820152601e60248201527f4163636f756e742063616e6e6f74206265207a65726f20616464726573730000604482015290519081900360640190fd5b803b80610848576040805162461bcd60e51b815260206004820181905260248201527f4163636f756e7420636f64652073697a652063616e6e6f74206265207a65726f604482015290519081900360640190fd5b5050565b600080546040516001600160a01b03909116907f8be0079c531659141344cd1fd0a4f28419497f9722a3daafe3b4186f6b6457e0908390a3600080546001600160a01b0319169055565b6000631f5405008211156108ac57631f54050091505b816108c05750670de0b6b3a76400006106c4565b670de0b6b3a764000083835b60018111156109375760028106610901576108e78283610a47565b91506108fa81600263ffffffff6106ca16565b9050610932565b61090b8284610a47565b92506109178283610a47565b915061092f600261026483600163ffffffff61070c16565b90505b6108cc565b6109418284610a47565b9695505050505050565b600081836109d75760405162461bcd60e51b81526004018080602001828103825283818151815260200191508051906020019080838360005b8381101561099c578181015183820152602001610984565b50505050905090810190601f1680156109c95780820380516001836020036101000a031916815260200191505b509250505060405180910390fd5b5060008385816109e357fe5b0495945050505050565b60008184841115610a3f5760405162461bcd60e51b815260206004820181815283516024840152835190928392604490910191908501908083836000831561099c578181015183820152602001610984565b505050900390565b600080610a5a848463ffffffff61066816565b9050610a7a670de0b6b3a7640000610264836706f05b59d3b20000610a82565b949350505050565b6000828201838110156106c1576040805162461bcd60e51b815260206004820152601b60248201527f536166654d6174683a206164646974696f6e206f766572666c6f770000000000604482015290519081900360640190fdfe536166654d6174683a206d756c7469706c69636174696f6e206f766572666c6f77436f6d6d756e69747949737375616e63653a2063616c6c6572206973206e6f74205350a264697066735822122066e5c57a4758689f03828a92448a7a1ed8a37292321fdfadfb2b0faa8aa0247f64736f6c634300060b0033",
  "linkReferences": {},
  "deployedLinkReferences": {}
}