{
  "_format": "hh-sol-artifact-1",
  "contractName": "CommunityIssuance",
  "sourceName": "contracts/LQTY/CommunityIssuance.sol",
  "abi": [
    {
      "inputs": [],
      "stateMutability": "nonpayable",
      "type": "constructor"
    },
    {
      "anonymous": false,
      "inputs": [
        {
          "indexed": false,
          "internalType": "address",
          "name": "_lqtyTokenAddress",
          "type": "address"
        }
      ],
      "name": "LQTYTokenAddressSet",
      "type": "event"
    },
    {
      "anonymous": false,
      "inputs": [
        {
          "indexed": true,
          "internalType": "address",
          "name": "previousOwner",
          "type": "address"
        },
        {
          "indexed": true,
          "internalType": "address",
          "name": "newOwner",
          "type": "address"
        }
      ],
      "name": "OwnershipTransferred",
      "type": "event"
    },
    {
      "anonymous": false,
      "inputs": [
        {
          "indexed": false,
          "internalType": "address",
          "name": "_stabilityPoolAddress",
          "type": "address"
        }
      ],
      "name": "StabilityPoolAddressSet",
      "type": "event"
    },
    {
      "inputs": [],
      "name": "DECIMAL_PRECISION",
      "outputs": [
        {
          "internalType": "uint256",
          "name": "",
          "type": "uint256"
        }
      ],
      "stateMutability": "view",
      "type": "function"
    },
    {
      "inputs": [],
      "name": "ISSUANCE_FACTOR",
      "outputs": [
        {
          "internalType": "uint256",
          "name": "",
          "type": "uint256"
        }
      ],
      "stateMutability": "view",
      "type": "function"
    },
    {
      "inputs": [],
      "name": "LQTYSupplyCap",
      "outputs": [
        {
          "internalType": "uint256",
          "name": "",
          "type": "uint256"
        }
      ],
      "stateMutability": "view",
      "type": "function"
    },
    {
      "inputs": [],
      "name": "SECONDS_IN_ONE_MINUTE",
      "outputs": [
        {
          "internalType": "uint256",
          "name": "",
          "type": "uint256"
        }
      ],
      "stateMutability": "view",
      "type": "function"
    },
    {
      "inputs": [],
      "name": "deploymentTime",
      "outputs": [
        {
          "internalType": "uint256",
          "name": "",
          "type": "uint256"
        }
      ],
      "stateMutability": "view",
      "type": "function"
    },
    {
      "inputs": [],
      "name": "isOwner",
      "outputs": [
        {
          "internalType": "bool",
          "name": "",
          "type": "bool"
        }
      ],
      "stateMutability": "view",
      "type": "function"
    },
    {
      "inputs": [],
      "name": "issueLQTY",
      "outputs": [
        {
          "internalType": "uint256",
          "name": "",
          "type": "uint256"
        }
      ],
      "stateMutability": "nonpayable",
      "type": "function"
    },
    {
      "inputs": [],
      "name": "lqtyToken",
      "outputs": [
        {
          "internalType": "contract ILQTYToken",
          "name": "",
          "type": "address"
        }
      ],
      "stateMutability": "view",
      "type": "function"
    },
    {
      "inputs": [],
      "name": "owner",
      "outputs": [
        {
          "internalType": "address",
          "name": "",
          "type": "address"
        }
      ],
      "stateMutability": "view",
      "type": "function"
    },
    {
      "inputs": [
        {
          "internalType": "address",
          "name": "_account",
          "type": "address"
        },
        {
          "internalType": "uint256",
          "name": "_LQTYamount",
          "type": "uint256"
        }
      ],
      "name": "sendLQTY",
      "outputs": [],
      "stateMutability": "nonpayable",
      "type": "function"
    },
    {
      "inputs": [
        {
          "internalType": "address",
          "name": "_lqtyTokenAddress",
          "type": "address"
        },
        {
          "internalType": "address",
          "name": "_stabilityPoolAddress",
          "type": "address"
        }
      ],
      "name": "setAddresses",
      "outputs": [],
      "stateMutability": "nonpayable",
      "type": "function"
    },
    {
      "inputs": [],
      "name": "stabilityPoolAddress",
      "outputs": [
        {
          "internalType": "address",
          "name": "",
          "type": "address"
        }
      ],
      "stateMutability": "view",
      "type": "function"
    },
    {
      "inputs": [],
      "name": "totalLQTYIssued",
      "outputs": [
        {
          "internalType": "uint256",
          "name": "",
          "type": "uint256"
        }
      ],
      "stateMutability": "view",
      "type": "function"
    }
  ],
  "bytecode": "0x60a060405234801561001057600080fd5b50600080546001600160a01b0319163390811782556040519091907f8be0079c531659141344cd1fd0a4f28419497f9722a3daafe3b4186f6b6457e0908290a342608052608051610a61610073600039806104cc52806105475250610a616000f3fe608060405234801561001057600080fd5b50600436106100bf5760003560e01c806361ec893d1161007c57806361ec893d146101485780638da5cb5b146101505780638f32d59b1461015857806390107afe14610174578063a20baee6146101a2578063b140384b146101aa578063ecda10f5146101b2576100bf565b80630b622ab2146100c45780630fc83da3146100e85780631f7af3c31461010257806346ad34d91461010a5780634e5c995714610112578063614d2ab61461011a575b600080fd5b6100cc6101ba565b604080516001600160a01b039092168252519081900360200190f35b6100f06101c9565b60408051918252519081900360200190f35b6100cc6101d5565b6100f06101e4565b6100f0610250565b6101466004803603604081101561013057600080fd5b506001600160a01b03813516906020013561025f565b005b6100f06102ed565b6100cc6102f2565b610160610301565b604080519115158252519081900360200190f35b6101466004803603604081101561018a57600080fd5b506001600160a01b0381358116916020013516610312565b6100f06104b8565b6100f06104c4565b6100f06104ca565b6002546001600160a01b031681565b670de0b5809a6f939881565b6001546001600160a01b031681565b60006101ee6104ee565b600061022b670de0b6b3a764000061021f610207610539565b6a14adf4b7320334b90000009063ffffffff6105be16565b9063ffffffff61062016565b905060006102446003548361066290919063ffffffff16565b60039290925550905090565b6a14adf4b7320334b900000081565b6102676104ee565b6001546040805163a9059cbb60e01b81526001600160a01b038581166004830152602482018590529151919092169163a9059cbb9160448083019260209291908290030181600087803b1580156102bd57600080fd5b505af11580156102d1573d6000803e3d6000fd5b505050506040513d60208110156102e757600080fd5b50505050565b603c81565b6000546001600160a01b031690565b6000546001600160a01b0316331490565b61031a610301565b61036b576040805162461bcd60e51b815260206004820181905260248201527f4f776e61626c653a2063616c6c6572206973206e6f7420746865206f776e6572604482015290519081900360640190fd5b610374826106a4565b61037d816106a4565b600180546001600160a01b038085166001600160a01b0319928316179283905560028054858316931692909217909155604080516370a0823160e01b81523060048201529051600093909216916370a0823191602480820192602092909190829003018186803b1580156103f057600080fd5b505afa158015610404573d6000803e3d6000fd5b505050506040513d602081101561041a57600080fd5b505190506a14adf4b7320334b900000081101561043357fe5b604080516001600160a01b038516815290517fb0c89119a7c10e4c2d02306921ba368ac83d0e4b302337916017485c2791bec59181900360200190a1604080516001600160a01b038416815290517f45c53611bc8ba9e11f4f8173bda9e3faf89c395ddb83f9a55230b156828db3159181900360200190a16104b3610757565b505050565b670de0b6b3a764000081565b60035481565b7f000000000000000000000000000000000000000000000000000000000000000081565b6002546001600160a01b031633146105375760405162461bcd60e51b8152600401808060200182810382526023815260200180610a096023913960400191505060405180910390fd5b565b600080610571603c61021f427f000000000000000000000000000000000000000000000000000000000000000063ffffffff61066216565b90506000610587670de0b5809a6f9398836107a1565b905060006105a3670de0b6b3a76400008363ffffffff61066216565b9050670de0b6b3a76400008111156105b757fe5b9250505090565b6000826105cd5750600061061a565b828202828482816105da57fe5b04146106175760405162461bcd60e51b81526004018080602001828103825260218152602001806109e86021913960400191505060405180910390fd5b90505b92915050565b600061061783836040518060400160405280601a81526020017f536166654d6174683a206469766973696f6e206279207a65726f000000000000815250610856565b600061061783836040518060400160405280601e81526020017f536166654d6174683a207375627472616374696f6e206f766572666c6f7700008152506108f8565b6001600160a01b0381166106ff576040805162461bcd60e51b815260206004820152601e60248201527f4163636f756e742063616e6e6f74206265207a65726f20616464726573730000604482015290519081900360640190fd5b803b80610753576040805162461bcd60e51b815260206004820181905260248201527f4163636f756e7420636f64652073697a652063616e6e6f74206265207a65726f604482015290519081900360640190fd5b5050565b600080546040516001600160a01b03909116907f8be0079c531659141344cd1fd0a4f28419497f9722a3daafe3b4186f6b6457e0908390a3600080546001600160a01b0319169055565b6000631f5405008211156107b757631f54050091505b816107cb5750670de0b6b3a764000061061a565b670de0b6b3a764000083835b6001811115610842576002810661080c576107f28283610952565b915061080581600263ffffffff61062016565b905061083d565b6108168284610952565b92506108228283610952565b915061083a600261021f83600163ffffffff61066216565b90505b6107d7565b61084c8284610952565b9695505050505050565b600081836108e25760405162461bcd60e51b81526004018080602001828103825283818151815260200191508051906020019080838360005b838110156108a757818101518382015260200161088f565b50505050905090810190601f1680156108d45780820380516001836020036101000a031916815260200191505b509250505060405180910390fd5b5060008385816108ee57fe5b0495945050505050565b6000818484111561094a5760405162461bcd60e51b81526020600482018181528351602484015283519092839260449091019190850190808383600083156108a757818101518382015260200161088f565b505050900390565b600080610965848463ffffffff6105be16565b9050610985670de0b6b3a764000061021f836706f05b59d3b2000061098d565b949350505050565b600082820183811015610617576040805162461bcd60e51b815260206004820152601b60248201527f536166654d6174683a206164646974696f6e206f766572666c6f770000000000604482015290519081900360640190fdfe536166654d6174683a206d756c7469706c69636174696f6e206f766572666c6f77436f6d6d756e69747949737375616e63653a2063616c6c6572206973206e6f74205350a2646970667358221220346554e5821887f60f46f972b5b60930ed6c61ca09c57899a13757dcb217746064736f6c634300060b0033",
  "linkReferences": {},
  "deployedLinkReferences": {}
}