{
  "_format": "hh-sol-artifact-1",
  "contractName": "CommunityIssuance",
  "sourceName": "contracts/LQTY/CommunityIssuance.sol",
  "abi": [
    {
      "inputs": [],
      "stateMutability": "nonpayable",
      "type": "constructor"
    },
    {
      "anonymous": false,
      "inputs": [
        {
          "indexed": false,
          "internalType": "address",
          "name": "_lqtyTokenAddress",
          "type": "address"
        }
      ],
      "name": "LQTYTokenAddressSet",
      "type": "event"
    },
    {
      "anonymous": false,
      "inputs": [
        {
          "indexed": true,
          "internalType": "address",
          "name": "previousOwner",
          "type": "address"
        },
        {
          "indexed": true,
          "internalType": "address",
          "name": "newOwner",
          "type": "address"
        }
      ],
      "name": "OwnershipTransferred",
      "type": "event"
    },
    {
      "anonymous": false,
      "inputs": [
        {
          "indexed": false,
          "internalType": "address",
          "name": "_stabilityPoolAddress",
          "type": "address"
        }
      ],
      "name": "StabilityPoolAddressSet",
      "type": "event"
    },
    {
      "inputs": [],
      "name": "ISSUANCE_FACTOR",
      "outputs": [
        {
          "internalType": "uint256",
          "name": "",
          "type": "uint256"
        }
      ],
      "stateMutability": "view",
      "type": "function"
    },
    {
      "inputs": [],
      "name": "LQTYSupplyCap",
      "outputs": [
        {
          "internalType": "uint256",
          "name": "",
          "type": "uint256"
        }
      ],
      "stateMutability": "view",
      "type": "function"
    },
    {
      "inputs": [],
      "name": "SECONDS_IN_ONE_MINUTE",
      "outputs": [
        {
          "internalType": "uint256",
          "name": "",
          "type": "uint256"
        }
      ],
      "stateMutability": "view",
      "type": "function"
    },
    {
      "inputs": [],
      "name": "deploymentTime",
      "outputs": [
        {
          "internalType": "uint256",
          "name": "",
          "type": "uint256"
        }
      ],
      "stateMutability": "view",
      "type": "function"
    },
    {
      "inputs": [],
      "name": "isOwner",
      "outputs": [
        {
          "internalType": "bool",
          "name": "",
          "type": "bool"
        }
      ],
      "stateMutability": "view",
      "type": "function"
    },
    {
      "inputs": [],
      "name": "issueLQTY",
      "outputs": [
        {
          "internalType": "uint256",
          "name": "",
          "type": "uint256"
        }
      ],
      "stateMutability": "nonpayable",
      "type": "function"
    },
    {
      "inputs": [],
      "name": "lqtyToken",
      "outputs": [
        {
          "internalType": "contract ILQTYToken",
          "name": "",
          "type": "address"
        }
      ],
      "stateMutability": "view",
      "type": "function"
    },
    {
      "inputs": [],
      "name": "owner",
      "outputs": [
        {
          "internalType": "address",
          "name": "",
          "type": "address"
        }
      ],
      "stateMutability": "view",
      "type": "function"
    },
    {
      "inputs": [
        {
          "internalType": "address",
          "name": "_account",
          "type": "address"
        },
        {
          "internalType": "uint256",
          "name": "_LQTYamount",
          "type": "uint256"
        }
      ],
      "name": "sendLQTY",
      "outputs": [],
      "stateMutability": "nonpayable",
      "type": "function"
    },
    {
      "inputs": [
        {
          "internalType": "address",
          "name": "_lqtyTokenAddress",
          "type": "address"
        },
        {
          "internalType": "address",
          "name": "_stabilityPoolAddress",
          "type": "address"
        }
      ],
      "name": "setAddresses",
      "outputs": [],
      "stateMutability": "nonpayable",
      "type": "function"
    },
    {
      "inputs": [],
      "name": "stabilityPoolAddress",
      "outputs": [
        {
          "internalType": "address",
          "name": "",
          "type": "address"
        }
      ],
      "stateMutability": "view",
      "type": "function"
    },
    {
      "inputs": [],
      "name": "totalLQTYIssued",
      "outputs": [
        {
          "internalType": "uint256",
          "name": "",
          "type": "uint256"
        }
      ],
      "stateMutability": "view",
      "type": "function"
    }
  ],
  "bytecode": "0x608060405234801561001057600080fd5b50600080546001600160a01b0319163390811782556040519091907f8be0079c531659141344cd1fd0a4f28419497f9722a3daafe3b4186f6b6457e0908290a34260045561094a806100636000396000f3fe608060405234801561001057600080fd5b50600436106100b45760003560e01c806361ec893d1161007157806361ec893d1461013d5780638da5cb5b146101455780638f32d59b1461014d57806390107afe14610169578063b140384b14610197578063ecda10f51461019f576100b4565b80630b622ab2146100b95780630fc83da3146100dd5780631f7af3c3146100f757806346ad34d9146100ff5780634e5c995714610107578063614d2ab61461010f575b600080fd5b6100c16101a7565b604080516001600160a01b039092168252519081900360200190f35b6100e56101b6565b60408051918252519081900360200190f35b6100c16101c2565b6100e56101d1565b6100e561023d565b61013b6004803603604081101561012557600080fd5b506001600160a01b03813516906020013561024c565b005b6100e56102da565b6100c16102df565b6101556102ee565b604080519115158252519081900360200190f35b61013b6004803603604081101561017f57600080fd5b506001600160a01b03813581169160200135166102ff565b6100e5610493565b6100e5610499565b6002546001600160a01b031681565b670de0b5809a6f939881565b6001546001600160a01b031681565b60006101db61049f565b6000610218670de0b6b3a764000061020c6101f46104ea565b6a1b929b9eed599ba15555559063ffffffff61055416565b9063ffffffff6105b616565b90506000610231600354836105f890919063ffffffff16565b60039290925550905090565b6a1b929b9eed599ba155555581565b61025461049f565b6001546040805163a9059cbb60e01b81526001600160a01b038581166004830152602482018590529151919092169163a9059cbb9160448083019260209291908290030181600087803b1580156102aa57600080fd5b505af11580156102be573d6000803e3d6000fd5b505050506040513d60208110156102d457600080fd5b50505050565b603c81565b6000546001600160a01b031690565b6000546001600160a01b0316331490565b6103076102ee565b610358576040805162461bcd60e51b815260206004820181905260248201527f4f776e61626c653a2063616c6c6572206973206e6f7420746865206f776e6572604482015290519081900360640190fd5b600180546001600160a01b038085166001600160a01b0319928316179283905560028054858316931692909217909155604080516370a0823160e01b81523060048201529051600093909216916370a0823191602480820192602092909190829003018186803b1580156103cb57600080fd5b505afa1580156103df573d6000803e3d6000fd5b505050506040513d60208110156103f557600080fd5b505190506a1b929b9eed599ba155555581101561040e57fe5b604080516001600160a01b038516815290517fb0c89119a7c10e4c2d02306921ba368ac83d0e4b302337916017485c2791bec59181900360200190a1604080516001600160a01b038416815290517f45c53611bc8ba9e11f4f8173bda9e3faf89c395ddb83f9a55230b156828db3159181900360200190a161048e61063a565b505050565b60035481565b60045481565b6002546001600160a01b031633146104e85760405162461bcd60e51b81526004018080602001828103825260238152602001806108f26023913960400191505060405180910390fd5b565b600080610507603c61020c600454426105f890919063ffffffff16565b9050600061051d670de0b5809a6f939883610684565b90506000610539670de0b6b3a76400008363ffffffff6105f816565b9050670de0b6b3a764000081111561054d57fe5b9250505090565b600082610563575060006105b0565b8282028284828161057057fe5b04146105ad5760405162461bcd60e51b81526004018080602001828103825260218152602001806108d16021913960400191505060405180910390fd5b90505b92915050565b60006105ad83836040518060400160405280601a81526020017f536166654d6174683a206469766973696f6e206279207a65726f000000000000815250610739565b60006105ad83836040518060400160405280601e81526020017f536166654d6174683a207375627472616374696f6e206f766572666c6f7700008152506107db565b600080546040516001600160a01b03909116907f8be0079c531659141344cd1fd0a4f28419497f9722a3daafe3b4186f6b6457e0908390a3600080546001600160a01b0319169055565b6000631f54050082111561069a57631f54050091505b816106ae5750670de0b6b3a76400006105b0565b670de0b6b3a764000083835b600181111561072557600281066106ef576106d58283610835565b91506106e881600263ffffffff6105b616565b9050610720565b6106f98284610835565b92506107058283610835565b915061071d600261020c83600163ffffffff6105f816565b90505b6106ba565b61072f8284610835565b9695505050505050565b600081836107c55760405162461bcd60e51b81526004018080602001828103825283818151815260200191508051906020019080838360005b8381101561078a578181015183820152602001610772565b50505050905090810190601f1680156107b75780820380516001836020036101000a031916815260200191505b509250505060405180910390fd5b5060008385816107d157fe5b0495945050505050565b6000818484111561082d5760405162461bcd60e51b815260206004820181815283516024840152835190928392604490910191908501908083836000831561078a578181015183820152602001610772565b505050900390565b600080610848848463ffffffff61055416565b905061086e670de0b6b3a764000061020c836706f05b59d3b2000063ffffffff61087616565b949350505050565b6000828201838110156105ad576040805162461bcd60e51b815260206004820152601b60248201527f536166654d6174683a206164646974696f6e206f766572666c6f770000000000604482015290519081900360640190fdfe536166654d6174683a206d756c7469706c69636174696f6e206f766572666c6f77436f6d6d756e69747949737375616e63653a2063616c6c6572206973206e6f74205350a26469706673582212205907e7e20fd3a57666d7c2b12ecf7be02a73114ea681c570e3c97154c394ac9764736f6c634300060b0033",
  "linkReferences": {},
  "deployedLinkReferences": {}
}