{
  "_format": "hh-sol-artifact-1",
  "contractName": "DefaultPool",
  "sourceName": "contracts/DefaultPool.sol",
  "abi": [
    {
      "anonymous": false,
      "inputs": [
        {
          "indexed": false,
          "internalType": "address",
          "name": "_newActivePoolAddress",
          "type": "address"
        }
      ],
      "name": "ActivePoolAddressChanged",
      "type": "event"
    },
    {
      "anonymous": false,
      "inputs": [
        {
          "indexed": false,
          "internalType": "address",
          "name": "_newDefaultPoolAddress",
          "type": "address"
        }
      ],
      "name": "DefaultPoolAddressChanged",
      "type": "event"
    },
    {
      "anonymous": false,
      "inputs": [
        {
          "indexed": false,
          "internalType": "uint256",
          "name": "_ETH",
          "type": "uint256"
        }
      ],
      "name": "DefaultPoolETHBalanceUpdated",
      "type": "event"
    },
    {
      "anonymous": false,
      "inputs": [
        {
          "indexed": false,
          "internalType": "uint256",
          "name": "_LUSDDebt",
          "type": "uint256"
        }
      ],
      "name": "DefaultPoolLUSDDebtUpdated",
      "type": "event"
    },
    {
      "anonymous": false,
      "inputs": [
        {
          "indexed": false,
          "internalType": "uint256",
          "name": "_newBalance",
          "type": "uint256"
        }
      ],
      "name": "ETHBalanceUpdated",
      "type": "event"
    },
    {
      "anonymous": false,
      "inputs": [
        {
          "indexed": false,
          "internalType": "address",
          "name": "_to",
          "type": "address"
        },
        {
          "indexed": false,
          "internalType": "uint256",
          "name": "_amount",
          "type": "uint256"
        }
      ],
      "name": "EtherSent",
      "type": "event"
    },
    {
      "anonymous": false,
      "inputs": [
        {
          "indexed": false,
          "internalType": "uint256",
          "name": "_newBalance",
          "type": "uint256"
        }
      ],
      "name": "LUSDBalanceUpdated",
      "type": "event"
    },
    {
      "anonymous": false,
      "inputs": [
        {
          "indexed": true,
          "internalType": "address",
          "name": "previousOwner",
          "type": "address"
        },
        {
          "indexed": true,
          "internalType": "address",
          "name": "newOwner",
          "type": "address"
        }
      ],
      "name": "OwnershipTransferred",
      "type": "event"
    },
    {
      "anonymous": false,
      "inputs": [
        {
          "indexed": false,
          "internalType": "address",
          "name": "_newStabilityPoolAddress",
          "type": "address"
        }
      ],
      "name": "StabilityPoolAddressChanged",
      "type": "event"
    },
    {
      "anonymous": false,
      "inputs": [
        {
          "indexed": false,
          "internalType": "address",
          "name": "_newTroveManagerAddress",
          "type": "address"
        }
      ],
      "name": "TroveManagerAddressChanged",
      "type": "event"
    },
    {
      "inputs": [],
      "name": "activePoolAddress",
      "outputs": [
        {
          "internalType": "address",
          "name": "",
          "type": "address"
        }
      ],
      "stateMutability": "view",
      "type": "function"
    },
    {
      "inputs": [
        {
          "internalType": "uint256",
          "name": "_amount",
          "type": "uint256"
        }
      ],
      "name": "decreaseLUSDDebt",
      "outputs": [],
      "stateMutability": "nonpayable",
      "type": "function"
    },
    {
      "inputs": [],
      "name": "getETH",
      "outputs": [
        {
          "internalType": "uint256",
          "name": "",
          "type": "uint256"
        }
      ],
      "stateMutability": "view",
      "type": "function"
    },
    {
      "inputs": [],
      "name": "getLUSDDebt",
      "outputs": [
        {
          "internalType": "uint256",
          "name": "",
          "type": "uint256"
        }
      ],
      "stateMutability": "view",
      "type": "function"
    },
    {
      "inputs": [
        {
          "internalType": "uint256",
          "name": "_amount",
          "type": "uint256"
        }
      ],
      "name": "increaseLUSDDebt",
      "outputs": [],
      "stateMutability": "nonpayable",
      "type": "function"
    },
    {
      "inputs": [],
      "name": "isOwner",
      "outputs": [
        {
          "internalType": "bool",
          "name": "",
          "type": "bool"
        }
      ],
      "stateMutability": "view",
      "type": "function"
    },
    {
      "inputs": [],
      "name": "owner",
      "outputs": [
        {
          "internalType": "address",
          "name": "",
          "type": "address"
        }
      ],
      "stateMutability": "view",
      "type": "function"
    },
    {
      "inputs": [
        {
          "internalType": "uint256",
          "name": "_amount",
          "type": "uint256"
        }
      ],
      "name": "sendETHToActivePool",
      "outputs": [],
      "stateMutability": "nonpayable",
      "type": "function"
    },
    {
      "inputs": [
        {
          "internalType": "address",
          "name": "_troveManagerAddress",
          "type": "address"
        },
        {
          "internalType": "address",
          "name": "_activePoolAddress",
          "type": "address"
        }
      ],
      "name": "setAddresses",
      "outputs": [],
      "stateMutability": "nonpayable",
      "type": "function"
    },
    {
      "inputs": [],
      "name": "troveManagerAddress",
      "outputs": [
        {
          "internalType": "address",
          "name": "",
          "type": "address"
        }
      ],
      "stateMutability": "view",
      "type": "function"
    },
    {
      "stateMutability": "payable",
      "type": "receive"
    }
  ],
  "bytecode": "0x608060405234801561001057600080fd5b50600080546001600160a01b0319163390811782556040519091907f8be0079c531659141344cd1fd0a4f28419497f9722a3daafe3b4186f6b6457e0908290a36108dc8061005f6000396000f3fe6080604052600436106100955760003560e01c80638f32d59b116100595780638f32d59b146101a157806390107afe146101ca578063b08bc72214610205578063be41205f1461021a578063cfb9329a14610244576100ee565b806314f6c3be146100f357806338d995a81461011a5780635a4d28bb146101465780635eb52fca146101775780638da5cb5b1461018c576100ee565b366100ee576100a261026e565b6003546100b5903463ffffffff6102b916565b600381905560408051918252517f9a14ae677a60400af9176bed2e2d5ce8dfa6405e6c1702debb27668f567214289181900360200190a1005b600080fd5b3480156100ff57600080fd5b5061010861031a565b60408051918252519081900360200190f35b34801561012657600080fd5b506101446004803603602081101561013d57600080fd5b5035610320565b005b34801561015257600080fd5b5061015b610375565b604080516001600160a01b039092168252519081900360200190f35b34801561018357600080fd5b50610108610384565b34801561019857600080fd5b5061015b61038a565b3480156101ad57600080fd5b506101b6610399565b604080519115158252519081900360200190f35b3480156101d657600080fd5b50610144600480360360408110156101ed57600080fd5b506001600160a01b03813581169160200135166103aa565b34801561021157600080fd5b5061015b6104bd565b34801561022657600080fd5b506101446004803603602081101561023d57600080fd5b50356104cc565b34801561025057600080fd5b506101446004803603602081101561026757600080fd5b503561061c565b6002546001600160a01b031633146102b75760405162461bcd60e51b81526004018080602001828103825260298152602001806108536029913960400191505060405180910390fd5b565b600082820183811015610313576040805162461bcd60e51b815260206004820152601b60248201527f536166654d6174683a206164646974696f6e206f766572666c6f770000000000604482015290519081900360640190fd5b9392505050565b60035490565b610328610637565b60045461033b908263ffffffff61068016565b600481905560408051918252517f7735d8b9c0814a13884384c73ec31633f708b4b920b2158764c6b306541341259181900360200190a150565b6001546001600160a01b031681565b60045490565b6000546001600160a01b031690565b6000546001600160a01b0316331490565b6103b2610399565b610403576040805162461bcd60e51b815260206004820181905260248201527f4f776e61626c653a2063616c6c6572206973206e6f7420746865206f776e6572604482015290519081900360640190fd5b61040c826106c2565b610415816106c2565b600180546001600160a01b038085166001600160a01b03199283168117909355600280549185169190921617905560408051918252517f143219c9e69b09e07e095fcc889b43d8f46ca892bba65f08dc3a0050869a56789181900360200190a1604080516001600160a01b038316815290517f78f058b189175430c48dc02699e3a0031ea4ff781536dc2fab847de4babdd8829181900360200190a16104b9610771565b5050565b6002546001600160a01b031681565b6104d4610637565b6002546003546001600160a01b03909116906104f6908363ffffffff61068016565b600381905560408051918252517f9a14ae677a60400af9176bed2e2d5ce8dfa6405e6c1702debb27668f567214289181900360200190a1604080516001600160a01b03831681526020810184905281517f6109e2559dfa766aaec7118351d48a523f0a4157f49c8d68749c8ac41318ad12929181900390910190a16040516000906001600160a01b0383169084908381818185875af1925050503d80600081146105bc576040519150601f19603f3d011682016040523d82523d6000602084013e6105c1565b606091505b5050905080610617576040805162461bcd60e51b815260206004820152601f60248201527f44656661756c74506f6f6c3a2073656e64696e6720455448206661696c656400604482015290519081900360640190fd5b505050565b610624610637565b60045461033b908263ffffffff6102b916565b6001546001600160a01b031633146102b75760405162461bcd60e51b815260040180806020018281038252602b81526020018061087c602b913960400191505060405180910390fd5b600061031383836040518060400160405280601e81526020017f536166654d6174683a207375627472616374696f6e206f766572666c6f7700008152506107bb565b6001600160a01b03811661071d576040805162461bcd60e51b815260206004820152601e60248201527f4163636f756e742063616e6e6f74206265207a65726f20616464726573730000604482015290519081900360640190fd5b803b806104b9576040805162461bcd60e51b815260206004820181905260248201527f4163636f756e7420636f64652073697a652063616e6e6f74206265207a65726f604482015290519081900360640190fd5b600080546040516001600160a01b03909116907f8be0079c531659141344cd1fd0a4f28419497f9722a3daafe3b4186f6b6457e0908390a3600080546001600160a01b0319169055565b6000818484111561084a5760405162461bcd60e51b81526004018080602001828103825283818151815260200191508051906020019080838360005b8381101561080f5781810151838201526020016107f7565b50505050905090810190601f16801561083c5780820380516001836020036101000a031916815260200191505b509250505060405180910390fd5b50505090039056fe44656661756c74506f6f6c3a2043616c6c6572206973206e6f742074686520416374697665506f6f6c44656661756c74506f6f6c3a2043616c6c6572206973206e6f74207468652054726f76654d616e61676572a26469706673582212208bc8c8b5b85056a4e53fd1e4706d4dae593bbe3c780a2bb7515b54fcb6f35e9164736f6c634300060b0033",
  "linkReferences": {},
  "deployedLinkReferences": {}
}