{
  "_format": "hh-sol-artifact-1",
  "contractName": "DefaultPoolTester",
  "sourceName": "contracts/TestContracts/DefaultPoolTester.sol",
  "abi": [
    {
      "anonymous": false,
      "inputs": [
        {
          "indexed": false,
          "internalType": "address",
          "name": "_newActivePoolAddress",
          "type": "address"
        }
      ],
      "name": "ActivePoolAddressChanged",
      "type": "event"
    },
    {
      "anonymous": false,
      "inputs": [
        {
          "indexed": false,
          "internalType": "address",
          "name": "_newDefaultPoolAddress",
          "type": "address"
        }
      ],
      "name": "DefaultPoolAddressChanged",
      "type": "event"
    },
    {
      "anonymous": false,
      "inputs": [
        {
          "indexed": false,
          "internalType": "uint256",
          "name": "_newBalance",
          "type": "uint256"
        }
      ],
      "name": "ETHBalanceUpdated",
      "type": "event"
    },
    {
      "anonymous": false,
      "inputs": [
        {
          "indexed": false,
          "internalType": "address",
          "name": "_to",
          "type": "address"
        },
        {
          "indexed": false,
          "internalType": "uint256",
          "name": "_amount",
          "type": "uint256"
        }
      ],
      "name": "EtherSent",
      "type": "event"
    },
    {
      "anonymous": false,
      "inputs": [
        {
          "indexed": false,
          "internalType": "uint256",
          "name": "_newBalance",
          "type": "uint256"
        }
      ],
      "name": "LUSDBalanceUpdated",
      "type": "event"
    },
    {
      "anonymous": false,
      "inputs": [
        {
          "indexed": true,
          "internalType": "address",
          "name": "previousOwner",
          "type": "address"
        },
        {
          "indexed": true,
          "internalType": "address",
          "name": "newOwner",
          "type": "address"
        }
      ],
      "name": "OwnershipTransferred",
      "type": "event"
    },
    {
      "anonymous": false,
      "inputs": [
        {
          "indexed": false,
          "internalType": "address",
          "name": "_newStabilityPoolAddress",
          "type": "address"
        }
      ],
      "name": "StabilityPoolAddressChanged",
      "type": "event"
    },
    {
      "anonymous": false,
      "inputs": [
        {
          "indexed": false,
          "internalType": "address",
          "name": "_newTroveManagerAddress",
          "type": "address"
        }
      ],
      "name": "TroveManagerAddressChanged",
      "type": "event"
    },
    {
      "inputs": [],
      "name": "activePoolAddress",
      "outputs": [
        {
          "internalType": "address",
          "name": "",
          "type": "address"
        }
      ],
      "stateMutability": "view",
      "type": "function"
    },
    {
      "inputs": [
        {
          "internalType": "uint256",
          "name": "_amount",
          "type": "uint256"
        }
      ],
      "name": "decreaseLUSDDebt",
      "outputs": [],
      "stateMutability": "nonpayable",
      "type": "function"
    },
    {
      "inputs": [],
      "name": "getETH",
      "outputs": [
        {
          "internalType": "uint256",
          "name": "",
          "type": "uint256"
        }
      ],
      "stateMutability": "view",
      "type": "function"
    },
    {
      "inputs": [],
      "name": "getLUSDDebt",
      "outputs": [
        {
          "internalType": "uint256",
          "name": "",
          "type": "uint256"
        }
      ],
      "stateMutability": "view",
      "type": "function"
    },
    {
      "inputs": [
        {
          "internalType": "uint256",
          "name": "_amount",
          "type": "uint256"
        }
      ],
      "name": "increaseLUSDDebt",
      "outputs": [],
      "stateMutability": "nonpayable",
      "type": "function"
    },
    {
      "inputs": [],
      "name": "isOwner",
      "outputs": [
        {
          "internalType": "bool",
          "name": "",
          "type": "bool"
        }
      ],
      "stateMutability": "view",
      "type": "function"
    },
    {
      "inputs": [],
      "name": "owner",
      "outputs": [
        {
          "internalType": "address",
          "name": "",
          "type": "address"
        }
      ],
      "stateMutability": "view",
      "type": "function"
    },
    {
      "inputs": [
        {
          "internalType": "uint256",
          "name": "_amount",
          "type": "uint256"
        }
      ],
      "name": "sendETHToActivePool",
      "outputs": [],
      "stateMutability": "nonpayable",
      "type": "function"
    },
    {
      "inputs": [
        {
          "internalType": "address",
          "name": "_troveManagerAddress",
          "type": "address"
        },
        {
          "internalType": "address",
          "name": "_activePoolAddress",
          "type": "address"
        }
      ],
      "name": "setAddresses",
      "outputs": [],
      "stateMutability": "nonpayable",
      "type": "function"
    },
    {
      "inputs": [],
      "name": "troveManagerAddress",
      "outputs": [
        {
          "internalType": "address",
          "name": "",
          "type": "address"
        }
      ],
      "stateMutability": "view",
      "type": "function"
    },
    {
      "inputs": [
        {
          "internalType": "uint256",
          "name": "_amount",
          "type": "uint256"
        }
      ],
      "name": "unprotectedIncreaseLUSDDebt",
      "outputs": [],
      "stateMutability": "nonpayable",
      "type": "function"
    },
    {
      "inputs": [],
      "name": "unprotectedPayable",
      "outputs": [],
      "stateMutability": "payable",
      "type": "function"
    },
    {
      "stateMutability": "payable",
      "type": "receive"
    }
  ],
  "bytecode": "0x608060405234801561001057600080fd5b50600080546001600160a01b0319163390811782556040519091907f8be0079c531659141344cd1fd0a4f28419497f9722a3daafe3b4186f6b6457e0908290a36108a08061005f6000396000f3fe6080604052600436106100ab5760003560e01c80638f32d59b116100645780638f32d59b146101ad57806390107afe146101d6578063b08bc72214610211578063be41205f14610226578063cfb9329a14610250578063f3af7c3b1461027a576100d0565b806314f6c3be146100d557806338d995a8146100fc57806344a57242146101285780635a4d28bb146101525780635eb52fca146101835780638da5cb5b14610198576100d0565b366100d0576100b8610282565b6003546100cb903463ffffffff6102cd16565b600355005b600080fd5b3480156100e157600080fd5b506100ea61032e565b60408051918252519081900360200190f35b34801561010857600080fd5b506101266004803603602081101561011f57600080fd5b5035610334565b005b34801561013457600080fd5b506101266004803603602081101561014b57600080fd5b5035610355565b34801561015e57600080fd5b50610167610368565b604080516001600160a01b039092168252519081900360200190f35b34801561018f57600080fd5b506100ea610377565b3480156101a457600080fd5b5061016761037d565b3480156101b957600080fd5b506101c261038c565b604080519115158252519081900360200190f35b3480156101e257600080fd5b50610126600480360360408110156101f957600080fd5b506001600160a01b038135811691602001351661039d565b34801561021d57600080fd5b506101676104b0565b34801561023257600080fd5b506101266004803603602081101561024957600080fd5b50356104bf565b34801561025c57600080fd5b506101266004803603602081101561027357600080fd5b50356105db565b6101266105e3565b6002546001600160a01b031633146102cb5760405162461bcd60e51b81526004018080602001828103825260298152602001806108176029913960400191505060405180910390fd5b565b600082820183811015610327576040805162461bcd60e51b815260206004820152601b60248201527f536166654d6174683a206164646974696f6e206f766572666c6f770000000000604482015290519081900360640190fd5b9392505050565b60035490565b61033c6105fb565b60045461034f908263ffffffff61064416565b60045550565b60045461034f908263ffffffff6102cd16565b6001546001600160a01b031681565b60045490565b6000546001600160a01b031690565b6000546001600160a01b0316331490565b6103a561038c565b6103f6576040805162461bcd60e51b815260206004820181905260248201527f4f776e61626c653a2063616c6c6572206973206e6f7420746865206f776e6572604482015290519081900360640190fd5b6103ff82610686565b61040881610686565b600180546001600160a01b038085166001600160a01b03199283168117909355600280549185169190921617905560408051918252517f143219c9e69b09e07e095fcc889b43d8f46ca892bba65f08dc3a0050869a56789181900360200190a1604080516001600160a01b038316815290517f78f058b189175430c48dc02699e3a0031ea4ff781536dc2fab847de4babdd8829181900360200190a16104ac610735565b5050565b6002546001600160a01b031681565b6104c76105fb565b6002546003546001600160a01b03909116906104e9908363ffffffff61064416565b600355604080516001600160a01b03831681526020810184905281517f6109e2559dfa766aaec7118351d48a523f0a4157f49c8d68749c8ac41318ad12929181900390910190a16040516000906001600160a01b0383169084908381818185875af1925050503d806000811461057b576040519150601f19603f3d011682016040523d82523d6000602084013e610580565b606091505b50509050806105d6576040805162461bcd60e51b815260206004820152601f60248201527f44656661756c74506f6f6c3a2073656e64696e6720455448206661696c656400604482015290519081900360640190fd5b505050565b6103556105fb565b6003546105f6903463ffffffff6102cd16565b600355565b6001546001600160a01b031633146102cb5760405162461bcd60e51b815260040180806020018281038252602b815260200180610840602b913960400191505060405180910390fd5b600061032783836040518060400160405280601e81526020017f536166654d6174683a207375627472616374696f6e206f766572666c6f77000081525061077f565b6001600160a01b0381166106e1576040805162461bcd60e51b815260206004820152601e60248201527f4163636f756e742063616e6e6f74206265207a65726f20616464726573730000604482015290519081900360640190fd5b803b806104ac576040805162461bcd60e51b815260206004820181905260248201527f4163636f756e7420636f64652073697a652063616e6e6f74206265207a65726f604482015290519081900360640190fd5b600080546040516001600160a01b03909116907f8be0079c531659141344cd1fd0a4f28419497f9722a3daafe3b4186f6b6457e0908390a3600080546001600160a01b0319169055565b6000818484111561080e5760405162461bcd60e51b81526004018080602001828103825283818151815260200191508051906020019080838360005b838110156107d35781810151838201526020016107bb565b50505050905090810190601f1680156108005780820380516001836020036101000a031916815260200191505b509250505060405180910390fd5b50505090039056fe44656661756c74506f6f6c3a2043616c6c6572206973206e6f742074686520416374697665506f6f6c44656661756c74506f6f6c3a2043616c6c6572206973206e6f74207468652054726f76654d616e61676572a26469706673582212200771791005ebdea70bae55080b22620153b1c3690d502bca4098b8eb15d68bb164736f6c634300060b0033",
  "linkReferences": {},
  "deployedLinkReferences": {}
}