{
  "_format": "hh-sol-artifact-1",
  "contractName": "DSProxy",
  "sourceName": "contracts/TestContracts/DappSys/proxy.sol",
  "abi": [
    {
      "constant": false,
      "inputs": [
        {
          "name": "owner_",
          "type": "address"
        }
      ],
      "name": "setOwner",
      "outputs": [],
      "payable": false,
      "stateMutability": "nonpayable",
      "type": "function"
    },
    {
      "constant": false,
      "inputs": [
        {
          "name": "_target",
          "type": "address"
        },
        {
          "name": "_data",
          "type": "bytes"
        }
      ],
      "name": "execute",
      "outputs": [
        {
          "name": "response",
          "type": "bytes32"
        }
      ],
      "payable": true,
      "stateMutability": "payable",
      "type": "function"
    },
    {
      "constant": false,
      "inputs": [
        {
          "name": "_code",
          "type": "bytes"
        },
        {
          "name": "_data",
          "type": "bytes"
        }
      ],
      "name": "execute",
      "outputs": [
        {
          "name": "target",
          "type": "address"
        },
        {
          "name": "response",
          "type": "bytes32"
        }
      ],
      "payable": true,
      "stateMutability": "payable",
      "type": "function"
    },
    {
      "constant": true,
      "inputs": [],
      "name": "cache",
      "outputs": [
        {
          "name": "",
          "type": "address"
        }
      ],
      "payable": false,
      "stateMutability": "view",
      "type": "function"
    },
    {
      "constant": false,
      "inputs": [
        {
          "name": "authority_",
          "type": "address"
        }
      ],
      "name": "setAuthority",
      "outputs": [],
      "payable": false,
      "stateMutability": "nonpayable",
      "type": "function"
    },
    {
      "constant": true,
      "inputs": [],
      "name": "owner",
      "outputs": [
        {
          "name": "",
          "type": "address"
        }
      ],
      "payable": false,
      "stateMutability": "view",
      "type": "function"
    },
    {
      "constant": false,
      "inputs": [
        {
          "name": "_cacheAddr",
          "type": "address"
        }
      ],
      "name": "setCache",
      "outputs": [
        {
          "name": "",
          "type": "bool"
        }
      ],
      "payable": false,
      "stateMutability": "nonpayable",
      "type": "function"
    },
    {
      "constant": true,
      "inputs": [],
      "name": "authority",
      "outputs": [
        {
          "name": "",
          "type": "address"
        }
      ],
      "payable": false,
      "stateMutability": "view",
      "type": "function"
    },
    {
      "inputs": [
        {
          "name": "_cacheAddr",
          "type": "address"
        }
      ],
      "payable": false,
      "stateMutability": "nonpayable",
      "type": "constructor"
    },
    {
      "payable": true,
      "stateMutability": "payable",
      "type": "fallback"
    },
    {
      "anonymous": true,
      "inputs": [
        {
          "indexed": true,
          "name": "sig",
          "type": "bytes4"
        },
        {
          "indexed": true,
          "name": "guy",
          "type": "address"
        },
        {
          "indexed": true,
          "name": "foo",
          "type": "bytes32"
        },
        {
          "indexed": true,
          "name": "bar",
          "type": "bytes32"
        },
        {
          "indexed": false,
          "name": "wad",
          "type": "uint256"
        },
        {
          "indexed": false,
          "name": "fax",
          "type": "bytes"
        }
      ],
      "name": "LogNote",
      "type": "event"
    },
    {
      "anonymous": false,
      "inputs": [
        {
          "indexed": true,
          "name": "authority",
          "type": "address"
        }
      ],
      "name": "LogSetAuthority",
      "type": "event"
    },
    {
      "anonymous": false,
      "inputs": [
        {
          "indexed": true,
          "name": "owner",
          "type": "address"
        }
      ],
      "name": "LogSetOwner",
      "type": "event"
    }
  ],
  "bytecode": "0x608060405234801561001057600080fd5b50604051602080610b37833981016040819052905160018054600160a060020a03191633600160a060020a031690811790915590917fce241d7ca1f669fee44b6fc00b8eba2df3bb514eed0f6f668f8f89096e81ed9490600090a261007d8164010000000061008e810204565b151561008857600080fd5b506102ac565b60006100c6337fffffffff00000000000000000000000000000000000000000000000000000000833516640100000000610180810204565b15156100d157600080fd5b6040805134808252602082018381523693830184905260043593602435938493869333600160a060020a031693600080357fffffffff0000000000000000000000000000000000000000000000000000000016949092606082018484808284376040519201829003965090945050505050a4600160a060020a038416151561015857600080fd5b60028054600160a060020a038616600160a060020a0319909116179055600192505050919050565b600030600160a060020a031683600160a060020a031614156101a4575060016102a6565b600154600160a060020a03848116911614156101c2575060016102a6565b600054600160a060020a031615156101dc575060006102a6565b60008054604080517fb7009613000000000000000000000000000000000000000000000000000000008152600160a060020a03878116600483015230811660248301527fffffffff00000000000000000000000000000000000000000000000000000000871660448301529151919092169263b700961392606480820193602093909283900390910190829087803b15801561027757600080fd5b505af115801561028b573d6000803e3d6000fd5b505050506040513d60208110156102a157600080fd5b505190505b92915050565b61087c806102bb6000396000f30060806040526004361061008d5763ffffffff7c010000000000000000000000000000000000000000000000000000000060003504166313af4035811461008f5780631cff79cd146100b05780631f6a1eb91461011c57806360c7d295146101c95780637a9e5e4b146101fa5780638da5cb5b1461021b578063948f507614610230578063bf7e214f14610265575b005b34801561009b57600080fd5b5061008d600160a060020a036004351661027a565b60408051602060046024803582810135601f810185900485028601850190965285855261010a958335600160a060020a03169536956044949193909101919081908401838280828437509497506102f89650505050505050565b60408051918252519081900360200190f35b6040805160206004803580820135601f81018490048402850184019095528484526101a694369492936024939284019190819084018382808284375050604080516020601f89358b018035918201839004830284018301909452808352979a9998810197919650918201945092508291508401838280828437509497506103be9650505050505050565b60408051600160a060020a03909316835260208301919091528051918290030190f35b3480156101d557600080fd5b506101de6105ce565b60408051600160a060020a039092168252519081900360200190f35b34801561020657600080fd5b5061008d600160a060020a03600435166105dd565b34801561022757600080fd5b506101de610657565b34801561023c57600080fd5b50610251600160a060020a0360043516610666565b604080519115158252519081900360200190f35b34801561027157600080fd5b506101de61072d565b61029033600035600160e060020a03191661073c565b151561029b57600080fd5b6001805473ffffffffffffffffffffffffffffffffffffffff1916600160a060020a0383811691909117918290556040519116907fce241d7ca1f669fee44b6fc00b8eba2df3bb514eed0f6f668f8f89096e81ed9490600090a250565b600061031033600035600160e060020a03191661073c565b151561031b57600080fd5b6040805134808252602082018381523693830184905260043593602435938493869333600160a060020a03169360008035600160e060020a031916949092606082018484808284376040519201829003965090945050505050a4600160a060020a038516151561038a57600080fd5b60206000855160208701886113885a03f460005193508015600181146103af576103b4565b600080fd5b5050505092915050565b6002546040517f8bf4515c0000000000000000000000000000000000000000000000000000000081526020600482018181528551602484015285516000948594600160a060020a0390911693638bf4515c93899390928392604490910191908501908083838b5b8381101561043d578181015183820152602001610425565b50505050905090810190601f16801561046a5780820380516001836020036101000a031916815260200191505b5092505050602060405180830381600087803b15801561048957600080fd5b505af115801561049d573d6000803e3d6000fd5b505050506040513d60208110156104b357600080fd5b50519150600160a060020a03821615156105bb576002546040517f7ed0c3b2000000000000000000000000000000000000000000000000000000008152602060048201818152875160248401528751600160a060020a0390941693637ed0c3b293899383926044909201919085019080838360005b83811015610540578181015183820152602001610528565b50505050905090810190601f16801561056d5780820380516001836020036101000a031916815260200191505b5092505050602060405180830381600087803b15801561058c57600080fd5b505af11580156105a0573d6000803e3d6000fd5b505050506040513d60208110156105b657600080fd5b505191505b6105c582846102f8565b90509250929050565b600254600160a060020a031681565b6105f333600035600160e060020a03191661073c565b15156105fe57600080fd5b6000805473ffffffffffffffffffffffffffffffffffffffff1916600160a060020a03838116919091178083556040519116917f1abebea81bfa2637f28358c371278fb15ede7ea8dd28d2e03b112ff6d936ada491a250565b600154600160a060020a031681565b600061067e33600035600160e060020a03191661073c565b151561068957600080fd5b6040805134808252602082018381523693830184905260043593602435938493869333600160a060020a03169360008035600160e060020a031916949092606082018484808284376040519201829003965090945050505050a4600160a060020a03841615156106f857600080fd5b60028054600160a060020a03861673ffffffffffffffffffffffffffffffffffffffff19909116179055600192505050919050565b600054600160a060020a031681565b600030600160a060020a031683600160a060020a031614156107605750600161084a565b600154600160a060020a038481169116141561077e5750600161084a565b600054600160a060020a031615156107985750600061084a565b60008054604080517fb7009613000000000000000000000000000000000000000000000000000000008152600160a060020a0387811660048301523081166024830152600160e060020a0319871660448301529151919092169263b700961392606480820193602093909283900390910190829087803b15801561081b57600080fd5b505af115801561082f573d6000803e3d6000fd5b505050506040513d602081101561084557600080fd5b505190505b929150505600a165627a7a72305820f46591861bbf263394a937adb5e126b0cb45c44e38c5d4aa0b5eb9bc8096f7ba0029",
  "linkReferences": {},
  "deployedLinkReferences": {}
}