{
  "_format": "hh-sol-artifact-1",
  "contractName": "DSProxyCache",
  "sourceName": "contracts/TestContracts/DappSys/proxy.sol",
  "abi": [
    {
      "constant": false,
      "inputs": [
        {
          "name": "_code",
          "type": "bytes"
        }
      ],
      "name": "write",
      "outputs": [
        {
          "name": "target",
          "type": "address"
        }
      ],
      "payable": false,
      "stateMutability": "nonpayable",
      "type": "function"
    },
    {
      "constant": true,
      "inputs": [
        {
          "name": "_code",
          "type": "bytes"
        }
      ],
      "name": "read",
      "outputs": [
        {
          "name": "",
          "type": "address"
        }
      ],
      "payable": false,
      "stateMutability": "view",
      "type": "function"
    }
  ],
  "bytecode": "0x608060405234801561001057600080fd5b5061029c806100206000396000f30060806040526004361061004b5763ffffffff7c01000000000000000000000000000000000000000000000000000000006000350416637ed0c3b281146100505780638bf4515c146100d2575b600080fd5b34801561005c57600080fd5b506040805160206004803580820135601f81018490048402850184019095528484526100a994369492936024939284019190819084018382808284375094975061012b9650505050505050565b6040805173ffffffffffffffffffffffffffffffffffffffff9092168252519081900360200190f35b3480156100de57600080fd5b506040805160206004803580820135601f81018490048402850184019095528484526100a99436949293602493928401919081908401838280828437509497506101e79650505050505050565b6000808251602084016000f09150813b156001811461004b5750826040518082805190602001908083835b602083106101755780518252601f199092019160209182019101610156565b51815160209384036101000a6000190180199092169116179052604080519290940182900390912060009081529081905291909120805473ffffffffffffffffffffffffffffffffffffffff191673ffffffffffffffffffffffffffffffffffffffff87161790555092949350505050565b600080826040518082805190602001908083835b6020831061021a5780518252601f1990920191602091820191016101fb565b51815160209384036101000a60001901801990921691161790526040805192909401829003909120600090815290819052919091205473ffffffffffffffffffffffffffffffffffffffff1696955050505050505600a165627a7a72305820cca688437ea0f5a5c06951982121f0528d0f9ad7fb1f4498cf419aeda2932a420029",
  "linkReferences": {},
  "deployedLinkReferences": {}
}