{
  "_format": "hh-sol-artifact-1",
  "contractName": "EchidnaTester",
  "sourceName": "contracts/TestContracts/EchidnaTester.sol",
  "abi": [
    {
      "inputs": [],
      "stateMutability": "payable",
      "type": "constructor"
    },
    {
      "inputs": [],
      "name": "activePool",
      "outputs": [
        {
          "internalType": "contract ActivePool",
          "name": "",
          "type": "address"
        }
      ],
      "stateMutability": "view",
      "type": "function"
    },
    {
      "inputs": [
        {
          "internalType": "uint256",
          "name": "_i",
          "type": "uint256"
        },
        {
          "internalType": "uint256",
          "name": "_ETH",
          "type": "uint256"
        }
      ],
      "name": "addCollExt",
      "outputs": [],
      "stateMutability": "payable",
      "type": "function"
    },
    {
      "inputs": [
        {
          "internalType": "uint256",
          "name": "_i",
          "type": "uint256"
        },
        {
          "internalType": "uint256",
          "name": "_ETH",
          "type": "uint256"
        },
        {
          "internalType": "address",
          "name": "_upperHint",
          "type": "address"
        },
        {
          "internalType": "address",
          "name": "_lowerHint",
          "type": "address"
        }
      ],
      "name": "addCollRawExt",
      "outputs": [],
      "stateMutability": "payable",
      "type": "function"
    },
    {
      "inputs": [
        {
          "internalType": "uint256",
          "name": "_i",
          "type": "uint256"
        },
        {
          "internalType": "uint256",
          "name": "_ETH",
          "type": "uint256"
        },
        {
          "internalType": "uint256",
          "name": "_collWithdrawal",
          "type": "uint256"
        },
        {
          "internalType": "uint256",
          "name": "_debtChange",
          "type": "uint256"
        },
        {
          "internalType": "bool",
          "name": "_isDebtIncrease",
          "type": "bool"
        }
      ],
      "name": "adjustTroveExt",
      "outputs": [],
      "stateMutability": "payable",
      "type": "function"
    },
    {
      "inputs": [
        {
          "internalType": "uint256",
          "name": "_i",
          "type": "uint256"
        },
        {
          "internalType": "uint256",
          "name": "_ETH",
          "type": "uint256"
        },
        {
          "internalType": "uint256",
          "name": "_collWithdrawal",
          "type": "uint256"
        },
        {
          "internalType": "uint256",
          "name": "_debtChange",
          "type": "uint256"
        },
        {
          "internalType": "bool",
          "name": "_isDebtIncrease",
          "type": "bool"
        },
        {
          "internalType": "address",
          "name": "_upperHint",
          "type": "address"
        },
        {
          "internalType": "address",
          "name": "_lowerHint",
          "type": "address"
        },
        {
          "internalType": "uint256",
          "name": "_maxFee",
          "type": "uint256"
        }
      ],
      "name": "adjustTroveRawExt",
      "outputs": [],
      "stateMutability": "payable",
      "type": "function"
    },
    {
      "inputs": [
        {
          "internalType": "uint256",
          "name": "_i",
          "type": "uint256"
        },
        {
          "internalType": "address",
          "name": "spender",
          "type": "address"
        },
        {
          "internalType": "uint256",
          "name": "amount",
          "type": "uint256"
        }
      ],
      "name": "approveExt",
      "outputs": [
        {
          "internalType": "bool",
          "name": "",
          "type": "bool"
        }
      ],
      "stateMutability": "nonpayable",
      "type": "function"
    },
    {
      "inputs": [
        {
          "internalType": "uint256",
          "name": "_i",
          "type": "uint256"
        },
        {
          "internalType": "address[]",
          "name": "_troveArray",
          "type": "address[]"
        }
      ],
      "name": "batchLiquidateTrovesExt",
      "outputs": [],
      "stateMutability": "nonpayable",
      "type": "function"
    },
    {
      "inputs": [],
      "name": "borrowerOperations",
      "outputs": [
        {
          "internalType": "contract BorrowerOperations",
          "name": "",
          "type": "address"
        }
      ],
      "stateMutability": "view",
      "type": "function"
    },
    {
      "inputs": [
        {
          "internalType": "uint256",
          "name": "_i",
          "type": "uint256"
        }
      ],
      "name": "closeTroveExt",
      "outputs": [],
      "stateMutability": "nonpayable",
      "type": "function"
    },
    {
      "inputs": [],
      "name": "collSurplusPool",
      "outputs": [
        {
          "internalType": "contract CollSurplusPool",
          "name": "",
          "type": "address"
        }
      ],
      "stateMutability": "view",
      "type": "function"
    },
    {
      "inputs": [
        {
          "internalType": "uint256",
          "name": "_i",
          "type": "uint256"
        },
        {
          "internalType": "address",
          "name": "spender",
          "type": "address"
        },
        {
          "internalType": "uint256",
          "name": "subtractedValue",
          "type": "uint256"
        }
      ],
      "name": "decreaseAllowanceExt",
      "outputs": [
        {
          "internalType": "bool",
          "name": "",
          "type": "bool"
        }
      ],
      "stateMutability": "nonpayable",
      "type": "function"
    },
    {
      "inputs": [],
      "name": "defaultPool",
      "outputs": [
        {
          "internalType": "contract DefaultPool",
          "name": "",
          "type": "address"
        }
      ],
      "stateMutability": "view",
      "type": "function"
    },
    {
      "inputs": [
        {
          "internalType": "uint256",
          "name": "",
          "type": "uint256"
        }
      ],
      "name": "echidnaProxies",
      "outputs": [
        {
          "internalType": "contract EchidnaProxy",
          "name": "",
          "type": "address"
        }
      ],
      "stateMutability": "view",
      "type": "function"
    },
    {
      "inputs": [],
      "name": "echidna_ETH_balances",
      "outputs": [
        {
          "internalType": "bool",
          "name": "",
          "type": "bool"
        }
      ],
      "stateMutability": "view",
      "type": "function"
    },
    {
      "inputs": [],
      "name": "echidna_LUSD_global_balances",
      "outputs": [
        {
          "internalType": "bool",
          "name": "",
          "type": "bool"
        }
      ],
      "stateMutability": "view",
      "type": "function"
    },
    {
      "inputs": [],
      "name": "echidna_canary_active_pool_balance",
      "outputs": [
        {
          "internalType": "bool",
          "name": "",
          "type": "bool"
        }
      ],
      "stateMutability": "view",
      "type": "function"
    },
    {
      "inputs": [],
      "name": "echidna_canary_number_of_troves",
      "outputs": [
        {
          "internalType": "bool",
          "name": "",
          "type": "bool"
        }
      ],
      "stateMutability": "view",
      "type": "function"
    },
    {
      "inputs": [],
      "name": "echidna_price",
      "outputs": [
        {
          "internalType": "bool",
          "name": "",
          "type": "bool"
        }
      ],
      "stateMutability": "view",
      "type": "function"
    },
    {
      "inputs": [],
      "name": "echidna_trove_properties",
      "outputs": [
        {
          "internalType": "bool",
          "name": "",
          "type": "bool"
        }
      ],
      "stateMutability": "view",
      "type": "function"
    },
    {
      "inputs": [],
      "name": "echidna_troves_order",
      "outputs": [
        {
          "internalType": "bool",
          "name": "",
          "type": "bool"
        }
      ],
      "stateMutability": "view",
      "type": "function"
    },
    {
      "inputs": [],
      "name": "gasPool",
      "outputs": [
        {
          "internalType": "contract GasPool",
          "name": "",
          "type": "address"
        }
      ],
      "stateMutability": "view",
      "type": "function"
    },
    {
      "inputs": [
        {
          "internalType": "uint256",
          "name": "_i",
          "type": "uint256"
        },
        {
          "internalType": "address",
          "name": "spender",
          "type": "address"
        },
        {
          "internalType": "uint256",
          "name": "addedValue",
          "type": "uint256"
        }
      ],
      "name": "increaseAllowanceExt",
      "outputs": [
        {
          "internalType": "bool",
          "name": "",
          "type": "bool"
        }
      ],
      "stateMutability": "nonpayable",
      "type": "function"
    },
    {
      "inputs": [
        {
          "internalType": "uint256",
          "name": "_i",
          "type": "uint256"
        },
        {
          "internalType": "address",
          "name": "_user",
          "type": "address"
        }
      ],
      "name": "liquidateExt",
      "outputs": [],
      "stateMutability": "nonpayable",
      "type": "function"
    },
    {
      "inputs": [
        {
          "internalType": "uint256",
          "name": "_i",
          "type": "uint256"
        },
        {
          "internalType": "uint256",
          "name": "_n",
          "type": "uint256"
        }
      ],
      "name": "liquidateTrovesExt",
      "outputs": [],
      "stateMutability": "nonpayable",
      "type": "function"
    },
    {
      "inputs": [],
      "name": "lusdToken",
      "outputs": [
        {
          "internalType": "contract LUSDToken",
          "name": "",
          "type": "address"
        }
      ],
      "stateMutability": "view",
      "type": "function"
    },
    {
      "inputs": [
        {
          "internalType": "uint256",
          "name": "_i",
          "type": "uint256"
        },
        {
          "internalType": "uint256",
          "name": "_ETH",
          "type": "uint256"
        },
        {
          "internalType": "uint256",
          "name": "_LUSDAmount",
          "type": "uint256"
        }
      ],
      "name": "openTroveExt",
      "outputs": [],
      "stateMutability": "payable",
      "type": "function"
    },
    {
      "inputs": [
        {
          "internalType": "uint256",
          "name": "_i",
          "type": "uint256"
        },
        {
          "internalType": "uint256",
          "name": "_ETH",
          "type": "uint256"
        },
        {
          "internalType": "uint256",
          "name": "_LUSDAmount",
          "type": "uint256"
        },
        {
          "internalType": "address",
          "name": "_upperHint",
          "type": "address"
        },
        {
          "internalType": "address",
          "name": "_lowerHint",
          "type": "address"
        },
        {
          "internalType": "uint256",
          "name": "_maxFee",
          "type": "uint256"
        }
      ],
      "name": "openTroveRawExt",
      "outputs": [],
      "stateMutability": "payable",
      "type": "function"
    },
    {
      "inputs": [
        {
          "internalType": "uint256",
          "name": "_i",
          "type": "uint256"
        },
        {
          "internalType": "uint256",
          "name": "_amount",
          "type": "uint256"
        },
        {
          "internalType": "address",
          "name": "_frontEndTag",
          "type": "address"
        }
      ],
      "name": "provideToSPExt",
      "outputs": [],
      "stateMutability": "nonpayable",
      "type": "function"
    },
    {
      "inputs": [
        {
          "internalType": "uint256",
          "name": "_i",
          "type": "uint256"
        },
        {
          "internalType": "uint256",
          "name": "_LUSDAmount",
          "type": "uint256"
        },
        {
          "internalType": "address",
          "name": "_firstRedemptionHint",
          "type": "address"
        },
        {
          "internalType": "address",
          "name": "_upperPartialRedemptionHint",
          "type": "address"
        },
        {
          "internalType": "address",
          "name": "_lowerPartialRedemptionHint",
          "type": "address"
        },
        {
          "internalType": "uint256",
          "name": "_partialRedemptionHintNICR",
          "type": "uint256"
        }
      ],
      "name": "redeemCollateralExt",
      "outputs": [],
      "stateMutability": "nonpayable",
      "type": "function"
    },
    {
      "inputs": [
        {
          "internalType": "uint256",
          "name": "_i",
          "type": "uint256"
        },
        {
          "internalType": "uint256",
          "name": "_amount",
          "type": "uint256"
        },
        {
          "internalType": "address",
          "name": "_upperHint",
          "type": "address"
        },
        {
          "internalType": "address",
          "name": "_lowerHint",
          "type": "address"
        }
      ],
      "name": "repayLUSDExt",
      "outputs": [],
      "stateMutability": "nonpayable",
      "type": "function"
    },
    {
      "inputs": [
        {
          "internalType": "uint256",
          "name": "_price",
          "type": "uint256"
        }
      ],
      "name": "setPriceExt",
      "outputs": [],
      "stateMutability": "nonpayable",
      "type": "function"
    },
    {
      "inputs": [],
      "name": "stabilityPool",
      "outputs": [
        {
          "internalType": "contract StabilityPool",
          "name": "",
          "type": "address"
        }
      ],
      "stateMutability": "view",
      "type": "function"
    },
    {
      "inputs": [
        {
          "internalType": "uint256",
          "name": "_i",
          "type": "uint256"
        },
        {
          "internalType": "address",
          "name": "recipient",
          "type": "address"
        },
        {
          "internalType": "uint256",
          "name": "amount",
          "type": "uint256"
        }
      ],
      "name": "transferExt",
      "outputs": [
        {
          "internalType": "bool",
          "name": "",
          "type": "bool"
        }
      ],
      "stateMutability": "nonpayable",
      "type": "function"
    },
    {
      "inputs": [
        {
          "internalType": "uint256",
          "name": "_i",
          "type": "uint256"
        },
        {
          "internalType": "address",
          "name": "sender",
          "type": "address"
        },
        {
          "internalType": "address",
          "name": "recipient",
          "type": "address"
        },
        {
          "internalType": "uint256",
          "name": "amount",
          "type": "uint256"
        }
      ],
      "name": "transferFromExt",
      "outputs": [
        {
          "internalType": "bool",
          "name": "",
          "type": "bool"
        }
      ],
      "stateMutability": "nonpayable",
      "type": "function"
    },
    {
      "inputs": [],
      "name": "troveManager",
      "outputs": [
        {
          "internalType": "contract TroveManager",
          "name": "",
          "type": "address"
        }
      ],
      "stateMutability": "view",
      "type": "function"
    },
    {
      "inputs": [
        {
          "internalType": "uint256",
          "name": "_i",
          "type": "uint256"
        },
        {
          "internalType": "uint256",
          "name": "_amount",
          "type": "uint256"
        },
        {
          "internalType": "address",
          "name": "_upperHint",
          "type": "address"
        },
        {
          "internalType": "address",
          "name": "_lowerHint",
          "type": "address"
        }
      ],
      "name": "withdrawCollExt",
      "outputs": [],
      "stateMutability": "nonpayable",
      "type": "function"
    },
    {
      "inputs": [
        {
          "internalType": "uint256",
          "name": "_i",
          "type": "uint256"
        },
        {
          "internalType": "uint256",
          "name": "_amount",
          "type": "uint256"
        }
      ],
      "name": "withdrawFromSPExt",
      "outputs": [],
      "stateMutability": "nonpayable",
      "type": "function"
    },
    {
      "inputs": [
        {
          "internalType": "uint256",
          "name": "_i",
          "type": "uint256"
        },
        {
          "internalType": "uint256",
          "name": "_amount",
          "type": "uint256"
        },
        {
          "internalType": "address",
          "name": "_upperHint",
          "type": "address"
        },
        {
          "internalType": "address",
          "name": "_lowerHint",
          "type": "address"
        },
        {
          "internalType": "uint256",
          "name": "_maxFee",
          "type": "uint256"
        }
      ],
      "name": "withdrawLUSDExt",
      "outputs": [],
      "stateMutability": "nonpayable",
      "type": "function"
    }
  ],
  "bytecode": "0x6080604052604051620000129062000ab0565b604051809103906000f0801580156200002f573d6000803e3d6000fd5b50600380546001600160a01b0319166001600160a01b03929092169190911790556040516200005e9062000abe565b604051809103906000f0801580156200007b573d6000803e3d6000fd5b50600480546001600160a01b0319166001600160a01b0392909216919091179055604051620000aa9062000acc565b604051809103906000f080158015620000c7573d6000803e3d6000fd5b50600580546001600160a01b0319166001600160a01b0392909216919091179055604051620000f69062000ada565b604051809103906000f08015801562000113573d6000803e3d6000fd5b50600680546001600160a01b0319166001600160a01b0392909216919091179055604051620001429062000ae8565b604051809103906000f0801580156200015f573d6000803e3d6000fd5b50600780546001600160a01b0319166001600160a01b03929092169190911790556040516200018e9062000af6565b604051809103906000f080158015620001ab573d6000803e3d6000fd5b50600880546001600160a01b0319166001600160a01b039283161790556003546007546004546040519284169391821692911690620001ea9062000b03565b6001600160a01b03938416815291831660208301529091166040808301919091525190819003606001906000f0801580156200022a573d6000803e3d6000fd5b50600a80546001600160a01b0319166001600160a01b0392909216919091179055604051620002599062000b11565b604051809103906000f08015801562000276573d6000803e3d6000fd5b50600980546001600160a01b0319166001600160a01b0392909216919091179055604051620002a59062000b1f565b604051809103906000f080158015620002c2573d6000803e3d6000fd5b50600b80546001600160a01b0319166001600160a01b0392909216919091179055604051620002f19062000b2c565b604051809103906000f0801580156200030e573d6000803e3d6000fd5b50600c80546001600160a01b0319166001600160a01b03928316179081905560035460048054600554600654600754600854600954600b54600a5460408051631e61717960e21b8152988d1699890199909952958b166024880152938a166044870152918916606486015288166084850152871660a4840152861660c4830152851660e482015292841661010484015260006101248401819052610144840181905290519190931692637985c5e492610164808201939182900301818387803b158015620003db57600080fd5b505af1158015620003f0573d6000803e3d6000fd5b505060048054600354600554600654600754600854600954600b54600c54600a5460408051636c37a4af60e01b81526001600160a01b039a8b169c81019c909c5297891660248c015295881660448b015293871660648a01529186166084890152851660a4880152841660c4870152831660e48601528216610104850152600061012485018190529051919092169450636c37a4af93506101448084019382900301818387803b158015620004a457600080fd5b505af1158015620004b9573d6000803e3d6000fd5b50506005546004805460035460075460065460408051634a945f8d60e01b81526001600160a01b039586169681019690965292841660248601529083166044850152821660648401525192169350634a945f8d925060848082019260009290919082900301818387803b1580156200053057600080fd5b505af115801562000545573d6000803e3d6000fd5b5050600654600354600554604080516348083d7f60e11b81526001600160a01b0393841660048201529183166024830152519190921693506390107afe9250604480830192600092919082900301818387803b158015620005a557600080fd5b505af1158015620005ba573d6000803e3d6000fd5b505060075460048054600354600554600a54600c54600b546040805163eaa8ba7f60e01b81526001600160a01b039788169881019890985294861660248801529285166044870152908416606486015283166084850152821660a4840152600060c48401819052905191909316945063eaa8ba7f935060e4808301939282900301818387803b1580156200064d57600080fd5b505af115801562000662573d6000803e3d6000fd5b50506009546004805460035460055460408051630d8efe5960e21b81526001600160a01b0394851695810195909552918316602485015282166044840152519216935063363bf964925060648082019260009290919082900301818387803b158015620006ce57600080fd5b505af1158015620006e3573d6000803e3d6000fd5b5050600c546003546004805460408051631e6edaf360e31b8152670de0b6b3a7640000938101939093526001600160a01b03938416602484015290831660448301525191909216935063f376d7989250606480830192600092919082900301818387803b1580156200075457600080fd5b505af115801562000769573d6000803e3d6000fd5b506000925050505b6064811015620008a957600354600454600754600a546040516001600160a01b0394851694938416939283169290911690620007ad9062000b3a565b6001600160a01b039485168152928416602084015290831660408084019190915292166060820152905190819003608001906000f080158015620007f5573d6000803e3d6000fd5b50600d82606481106200080457fe5b0180546001600160a01b0319166001600160a01b03929092169190911790556000600d82606481106200083357fe5b01546040516001600160a01b039091169069d3c21bcecceda100000090600081818185875af1925050503d80600081146200088b576040519150601f19603f3d011682016040523d82523d6000602084013e62000890565b606091505b50509050806200089f57600080fd5b5060010162000771565b506004805460408051631e5395c960e21b815290516001600160a01b039092169263794e5724928282019260209290829003018186803b158015620008ed57600080fd5b505afa15801562000902573d6000803e3d6000fd5b505050506040513d60208110156200091957600080fd5b50516000556004805460408051635733d58f60e01b815290516001600160a01b0390921692635733d58f928282019260209290829003018186803b1580156200096157600080fd5b505afa15801562000976573d6000803e3d6000fd5b505050506040513d60208110156200098d57600080fd5b505160015560048054604080516305d0d77b60e31b815290516001600160a01b0390921692632e86bbd8928282019260209290829003018186803b158015620009d557600080fd5b505afa158015620009ea573d6000803e3d6000fd5b505050506040513d602081101562000a0157600080fd5b505160025560005462000a1357600080fd5b60006001541162000a2357600080fd5b600b54604080516391b7f5ed60e01b815269021e19e0c9bab2400000600482015290516001600160a01b03909216916391b7f5ed916024808201926020929091908290030181600087803b15801562000a7b57600080fd5b505af115801562000a90573d6000803e3d6000fd5b505050506040513d602081101562000aa757600080fd5b5062000b489050565b6154b980620032e583390190565b613515806200879e83390190565b610ac5806200bcb383390190565b61089f806200c77883390190565b6136d7806200d01783390190565b605c80620106ee83390190565b6118ad806201074a83390190565b610ad98062011ff783390190565b60f78062012ad083390190565b6117fd8062012bc783390190565b610e3580620143c483390190565b61278d8062000b586000396000f3fe6080604052600436106102055760003560e01c80637f7dde4a11610113578063b83f91a2116100ab578063d21af9681161006f578063d21af96814610859578063e448912714610882578063efa83cf9146108b2578063f2a903a7146108fa578063fa08b0381461090f57610205565b8063b83f91a214610766578063baf5d65f1461077b578063c325347f146107ab578063c91b364a1461082f578063cda775f91461084457610205565b80637f7dde4a146105d45780638e4707d3146105e957806391a4a42614610628578063980c55d7146106525780639cdd0978146106675780639d9da9d8146106a65780639f56ac18146106f5578063a2f5cbdd1461070a578063a3d368341461071f57610205565b80634557559f116101a157806359bed84b1161016557806359bed84b146104d257806369690936146104e757806377553ad4146105215780637c22900e146105365780637ca8b0281461057f57610205565b80634557559f146103e05780634e792a301461040a57806357285cc5146104435780635895ac4e14610466578063597ec7991461047b57610205565b8063048c661d1461020a57806304bbf59c1461023b578063119be5d01461028e5780631c6fbd23146102cd5780633ca4afc1146103065780633cc74225146103455780633d83908a1461035a57806340ba2e271461036f5780634104fbd314610399575b600080fd5b34801561021657600080fd5b5061021f610924565b604080516001600160a01b039092168252519081900360200190f35b34801561024757600080fd5b5061027a6004803603606081101561025e57600080fd5b508035906001600160a01b036020820135169060400135610933565b604080519115158252519081900360200190f35b34801561029a57600080fd5b5061027a600480360360608110156102b157600080fd5b508035906001600160a01b0360208201351690604001356109d3565b610304600480360360a08110156102e357600080fd5b50803590602081013590604081013590606081013590608001351515610a3e565b005b34801561031257600080fd5b506103046004803603606081101561032957600080fd5b50803590602081013590604001356001600160a01b0316610b26565b34801561035157600080fd5b5061021f610bad565b34801561036657600080fd5b5061021f610bbc565b34801561037b57600080fd5b506103046004803603602081101561039257600080fd5b5035610bcb565b3480156103a557600080fd5b50610304600480360360808110156103bc57600080fd5b508035906020810135906001600160a01b0360408201358116916060013516610c4b565b3480156103ec57600080fd5b506103046004803603602081101561040357600080fd5b5035610cdb565b34801561041657600080fd5b506103046004803603604081101561042d57600080fd5b50803590602001356001600160a01b0316610d61565b6103046004803603604081101561045957600080fd5b5080359060200135610de0565b34801561047257600080fd5b5061027a610e93565b610304600480360361010081101561049257600080fd5b5080359060208101359060408101359060608101359060808101351515906001600160a01b0360a082013581169160c08101359091169060e00135610f2a565b3480156104de57600080fd5b5061027a610fdb565b610304600480360360808110156104fd57600080fd5b508035906020810135906001600160a01b0360408201358116916060013516611290565b34801561052d57600080fd5b5061021f611301565b34801561054257600080fd5b5061027a6004803603608081101561055957600080fd5b508035906001600160a01b03602082013581169160408101359091169060600135611310565b34801561058b57600080fd5b50610304600480360360c08110156105a257600080fd5b508035906020810135906001600160a01b03604082013581169160608101358216916080820135169060a001356113b9565b3480156105e057600080fd5b5061021f611466565b3480156105f557600080fd5b5061027a6004803603606081101561060c57600080fd5b508035906001600160a01b036020820135169060400135611475565b34801561063457600080fd5b5061021f6004803603602081101561064b57600080fd5b50356114e0565b34801561065e57600080fd5b5061027a6114fd565b34801561067357600080fd5b5061027a6004803603606081101561068a57600080fd5b508035906001600160a01b0360208201351690604001356117bf565b3480156106b257600080fd5b50610304600480360360a08110156106c957600080fd5b508035906020810135906001600160a01b0360408201358116916060810135909116906080013561182a565b34801561070157600080fd5b5061027a6118a2565b34801561071657600080fd5b5061027a6118c5565b34801561072b57600080fd5b506103046004803603608081101561074257600080fd5b508035906020810135906001600160a01b03604082013581169160600135166118da565b34801561077257600080fd5b5061021f61194b565b34801561078757600080fd5b506103046004803603604081101561079e57600080fd5b508035906020013561195a565b3480156107b757600080fd5b50610304600480360360408110156107ce57600080fd5b813591908101906040810160208201356401000000008111156107f057600080fd5b82018360208201111561080257600080fd5b8035906020019184602083028401116401000000008311171561082457600080fd5b5090925090506119bb565b34801561083b57600080fd5b5061027a611a4c565b34801561085057600080fd5b5061021f611e72565b6103046004803603606081101561086f57600080fd5b5080359060208101359060400135611e81565b34801561088e57600080fd5b50610304600480360360408110156108a557600080fd5b5080359060200135611fd2565b610304600480360360c08110156108c857600080fd5b508035906020810135906040810135906001600160a01b03606082013581169160808101359091169060a00135612033565b34801561090657600080fd5b5061027a6120b2565b34801561091b57600080fd5b5061021f6122f3565b6007546001600160a01b031681565b600080606485069050600d816064811061094957fe5b01546040805163d466e4eb60e01b81526001600160a01b038781166004830152602482018790529151919092169163d466e4eb9160448083019260209291908290030181600087803b15801561099e57600080fd5b505af11580156109b2573d6000803e3d6000fd5b505050506040513d60208110156109c857600080fd5b509195945050505050565b600080606485069050600d81606481106109e957fe5b01546040805163cf83544f60e01b81526001600160a01b038781166004830152602482018790529151919092169163cf83544f9160448083019260209291908290030181600087803b15801561099e57600080fd5b60006064860690506000600d8260648110610a5557fe5b0154600080546001600160a01b039092169250823191610a789083908a90612302565b9050858515610a9157610a8e82886000546123de565b90505b60408051631942d56760e21b815260048101849052602481018a905260448101839052871515606482015260006084820181905260a4820181905260c4820181905291516001600160a01b0387169263650b559c9260e4808201939182900301818387803b158015610b0257600080fd5b505af1158015610b16573d6000803e3d6000fd5b5050505050505050505050505050565b6000606484069050600d8160648110610b3b57fe5b015460408051634c36240b60e01b8152600481018690526001600160a01b03858116602483015291519190921691634c36240b91604480830192600092919082900301818387803b158015610b8f57600080fd5b505af1158015610ba3573d6000803e3d6000fd5b5050505050505050565b6006546001600160a01b031681565b6003546001600160a01b031681565b6000606482069050600d8160648110610be057fe5b0160009054906101000a90046001600160a01b03166001600160a01b0316634903a3dd6040518163ffffffff1660e01b8152600401600060405180830381600087803b158015610c2f57600080fd5b505af1158015610c43573d6000803e3d6000fd5b505050505050565b6000606485069050600d8160648110610c6057fe5b015460408051630f52fb0760e31b8152600481018790526001600160a01b038681166024830152858116604483015291519190921691637a97d83891606480830192600092919082900301818387803b158015610cbc57600080fd5b505af1158015610cd0573d6000803e3d6000fd5b505050505050505050565b600b54604080516391b7f5ed60e01b81526004810184905290516000926001600160a01b0316916391b7f5ed91602480830192602092919082900301818787803b158015610d2857600080fd5b505af1158015610d3c573d6000803e3d6000fd5b505050506040513d6020811015610d5257600080fd5b5051905080610d5d57fe5b5050565b6000606483069050600d8160648110610d7657fe5b015460408051634d37261f60e01b81526001600160a01b03858116600483015291519190921691634d37261f91602480830192600092919082900301818387803b158015610dc357600080fd5b505af1158015610dd7573d6000803e3d6000fd5b50505050505050565b60006064830690506000600d8260648110610df757fe5b0154600080546001600160a01b039092169250823191610e1a9083908790612302565b604080516332e859b960e01b8152600481018390526000602482018190526044820181905291519293506001600160a01b038616926332e859b99260648084019391929182900301818387803b158015610e7357600080fd5b505af1158015610e87573d6000803e3d6000fd5b50505050505050505050565b600080600b60009054906101000a90046001600160a01b03166001600160a01b03166398d5fdca6040518163ffffffff1660e01b815260040160206040518083038186803b158015610ee457600080fd5b505afa158015610ef8573d6000803e3d6000fd5b505050506040513d6020811015610f0e57600080fd5b5051905080610f21576000915050610f27565b60019150505b90565b6000606489069050600d8160648110610f3f57fe5b015460408051631942d56760e21b8152600481018b9052602481018a90526044810189905287151560648201526001600160a01b03878116608483015286811660a483015260c482018690529151919092169163650b559c9160e480830192600092919082900301818387803b158015610fb857600080fd5b505af1158015610fcc573d6000803e3d6000fd5b50505050505050505050505050565b600080600c60009054906101000a90046001600160a01b03166001600160a01b0316631e2231436040518163ffffffff1660e01b815260040160206040518083038186803b15801561102c57600080fd5b505afa158015611040573d6000803e3d6000fd5b505050506040513d602081101561105657600080fd5b5051600c546040805163765e015960e01b81526001600160a01b0380851660048301529151939450600093919092169163765e0159916024808301926020929190829003018186803b1580156110ab57600080fd5b505afa1580156110bf573d6000803e3d6000fd5b505050506040513d60208110156110d557600080fd5b505190505b6001600160a01b038216158015906110fa57506001600160a01b03811615155b15611287576003546040805163b0d8e18160e01b81526001600160a01b0385811660048301529151919092169163b0d8e181916024808301926020929190829003018186803b15801561114c57600080fd5b505afa158015611160573d6000803e3d6000fd5b505050506040513d602081101561117657600080fd5b50516003546040805163b0d8e18160e01b81526001600160a01b0385811660048301529151919092169163b0d8e181916024808301926020929190829003018186803b1580156111c557600080fd5b505afa1580156111d9573d6000803e3d6000fd5b505050506040513d60208110156111ef57600080fd5b5051111561120257600092505050610f27565b600c546040805163765e015960e01b81526001600160a01b03808516600483015291519394508493919092169163765e0159916024808301926020929190829003018186803b15801561125457600080fd5b505afa158015611268573d6000803e3d6000fd5b505050506040513d602081101561127e57600080fd5b505190506110da565b60019250505090565b6000606485069050600d81606481106112a557fe5b0154604080516332e859b960e01b8152600481018790526001600160a01b0386811660248301528581166044830152915191909216916332e859b991606480830192600092919082900301818387803b158015610cbc57600080fd5b6004546001600160a01b031681565b600080606486069050600d816064811061132657fe5b015460408051636ca5e76160e11b81526001600160a01b0388811660048301528781166024830152604482018790529151919092169163d94bcec29160648083019260209291908290030181600087803b15801561138357600080fd5b505af1158015611397573d6000803e3d6000fd5b505050506040513d60208110156113ad57600080fd5b50919695505050505050565b6000606487069050600d81606481106113ce57fe5b0154604080516335b1017960e01b8152600481018990526001600160a01b0388811660248301528781166044830152868116606483015260848201869052600060a4830181905260c4830181905292519316926335b101799260e48084019391929182900301818387803b15801561144557600080fd5b505af1158015611459573d6000803e3d6000fd5b5050505050505050505050565b6005546001600160a01b031681565b600080606485069050600d816064811061148b57fe5b015460408051636628d36160e11b81526001600160a01b038781166004830152602482018790529151919092169163cc51a6c29160448083019260209291908290030181600087803b15801561099e57600080fd5b600d81606481106114ed57fe5b01546001600160a01b0316905081565b600080600c60009054906101000a90046001600160a01b03166001600160a01b0316631e2231436040518163ffffffff1660e01b815260040160206040518083038186803b15801561154e57600080fd5b505afa158015611562573d6000803e3d6000fd5b505050506040513d602081101561157857600080fd5b505190505b6001600160a01b03811615610f21576001600354604080516321e3780160e01b81526001600160a01b038581166004830152915191909216916321e37801916024808301926020929190829003018186803b1580156115db57600080fd5b505afa1580156115ef573d6000803e3d6000fd5b505050506040513d602081101561160557600080fd5b5051600281111561161257fe5b600281111561161d57fe5b1461162c576000915050610f27565b6002546003546040805163d66a255360e01b81526001600160a01b0385811660048301529151919092169163d66a2553916024808301926020929190829003018186803b15801561167c57600080fd5b505afa158015611690573d6000803e3d6000fd5b505050506040513d60208110156116a657600080fd5b505110156116b8576000915050610f27565b60035460408051630326771360e51b81526001600160a01b038481166004830152915191909216916364cee260916024808301926020929190829003018186803b15801561170557600080fd5b505afa158015611719573d6000803e3d6000fd5b505050506040513d602081101561172f57600080fd5b505161173f576000915050610f27565b600c546040805163765e015960e01b81526001600160a01b0384811660048301529151919092169163765e0159916024808301926020929190829003018186803b15801561178c57600080fd5b505afa1580156117a0573d6000803e3d6000fd5b505050506040513d60208110156117b657600080fd5b5051905061157d565b600080606485069050600d81606481106117d557fe5b01546040805163390b5f2760e01b81526001600160a01b038781166004830152602482018790529151919092169163390b5f279160448083019260209291908290030181600087803b15801561099e57600080fd5b6000606486069050600d816064811061183f57fe5b015460408051633ee359ff60e21b8152600481018890526001600160a01b0387811660248301528681166044830152606482018690529151919092169163fb8d67fc91608480830192600092919082900301818387803b158015610e7357600080fd5b6005546000906001600160a01b031631156118bf57506000610f27565b50600190565b6000601460715411156118bf57506000610f27565b6000606485069050600d81606481106118ef57fe5b015460408051633ddd87af60e11b8152600481018790526001600160a01b038681166024830152858116604483015291519190921691637bbb0f5e91606480830192600092919082900301818387803b158015610cbc57600080fd5b600a546001600160a01b031681565b6000606483069050600d816064811061196f57fe5b01546040805163f47a1ea760e01b81526004810185905290516001600160a01b039092169163f47a1ea79160248082019260009290919082900301818387803b158015610dc357600080fd5b6000606484069050600d81606481106119d057fe5b0154604051634afbac5160e01b8152602060048201818152602483018690526001600160a01b0390931692634afbac5192879287929182916044909101908590850280828437600081840152601f19601f8201169050808301925050509350505050600060405180830381600087803b158015610b8f57600080fd5b600080600a60009054906101000a90046001600160a01b03166001600160a01b03166318160ddd6040518163ffffffff1660e01b815260040160206040518083038186803b158015611a9d57600080fd5b505afa158015611ab1573d6000803e3d6000fd5b505050506040513d6020811015611ac757600080fd5b5051600a54600854604080516370a0823160e01b81526001600160a01b039283166004820152905193945060009391909216916370a08231916024808301926020929190829003018186803b158015611b1f57600080fd5b505afa158015611b33573d6000803e3d6000fd5b505050506040513d6020811015611b4957600080fd5b505160055460408051632f5a97e560e11b815290519293506000926001600160a01b0390921691635eb52fca91600480820192602092909190829003018186803b158015611b9657600080fd5b505afa158015611baa573d6000803e3d6000fd5b505050506040513d6020811015611bc057600080fd5b505160065460408051632f5a97e560e11b815290519293506000926001600160a01b0390921691635eb52fca91600480820192602092909190829003018186803b158015611c0d57600080fd5b505afa158015611c21573d6000803e3d6000fd5b505050506040513d6020811015611c3757600080fd5b505190508181018414611c51576000945050505050610f27565b600754604080516326fcbc6b60e21b815290516000926001600160a01b031691639bf2f1ac916004808301926020929190829003018186803b158015611c9657600080fd5b505afa158015611caa573d6000803e3d6000fd5b505050506040513d6020811015611cc057600080fd5b5051600c5460408051631e22314360e01b815290519293506000926001600160a01b0390921691631e22314391600480820192602092909190829003018186803b158015611d0d57600080fd5b505afa158015611d21573d6000803e3d6000fd5b505050506040513d6020811015611d3757600080fd5b5051905060005b6001600160a01b03821615611e4957600a54604080516370a0823160e01b81526001600160a01b038581166004830152915191909216916370a08231916024808301926020929190829003018186803b158015611d9a57600080fd5b505afa158015611dae573d6000803e3d6000fd5b505050506040513d6020811015611dc457600080fd5b5051600c546040805163765e015960e01b81526001600160a01b0386811660048301529151949093019391169163765e0159916024808301926020929190829003018186803b158015611e1657600080fd5b505afa158015611e2a573d6000803e3d6000fd5b505050506040513d6020811015611e4057600080fd5b50519150611d3e565b85818401018711611e64576000975050505050505050610f27565b600197505050505050505090565b6009546001600160a01b031681565b60006064840690506000600d8260648110611e9857fe5b01546001546001600160a01b039091169150813190600090611ebd9083908890612302565b90506000611ece82876001546123de565b60408051639113473160e01b81526004810185905260248101839052600060448201819052606482018190526084820181905291519293506001600160a01b0387169263911347319260a48084019391929182900301818387803b158015611f3557600080fd5b505af1158015611f49573d6000803e3d6000fd5b50505050600360009054906101000a90046001600160a01b03166001600160a01b03166349eefeee6040518163ffffffff1660e01b815260040160206040518083038186803b158015611f9b57600080fd5b505afa158015611faf573d6000803e3d6000fd5b505050506040513d6020811015611fc557600080fd5b50516071819055610ba357fe5b6000606483069050600d8160648110611fe757fe5b01546040805163320d84db60e11b81526004810185905290516001600160a01b039092169163641b09b69160248082019260009290919082900301818387803b158015610dc357600080fd5b6000606487069050600d816064811061204857fe5b015460408051639113473160e01b815260048101899052602481018890526001600160a01b0387811660448301528681166064830152608482018690529151919092169163911347319160a480830192600092919082900301818387803b15801561144557600080fd5b6003546000906001600160a01b031631156120cf57506000610f27565b6004546001600160a01b031631156120e957506000610f27565b600560009054906101000a90046001600160a01b03166001600160a01b03166314f6c3be6040518163ffffffff1660e01b815260040160206040518083038186803b15801561213757600080fd5b505afa15801561214b573d6000803e3d6000fd5b505050506040513d602081101561216157600080fd5b50516005546001600160a01b0316311461217d57506000610f27565b600660009054906101000a90046001600160a01b03166001600160a01b03166314f6c3be6040518163ffffffff1660e01b815260040160206040518083038186803b1580156121cb57600080fd5b505afa1580156121df573d6000803e3d6000fd5b505050506040513d60208110156121f557600080fd5b50516006546001600160a01b0316311461221157506000610f27565b600760009054906101000a90046001600160a01b03166001600160a01b03166314f6c3be6040518163ffffffff1660e01b815260040160206040518083038186803b15801561225f57600080fd5b505afa158015612273573d6000803e3d6000fd5b505050506040513d602081101561228957600080fd5b50516007546001600160a01b031631146122a557506000610f27565b600a546001600160a01b031631156122bf57506000610f27565b600b546001600160a01b031631156122d957506000610f27565b600c546001600160a01b031631156118bf57506000610f27565b6008546001600160a01b031681565b600080600b60009054906101000a90046001600160a01b03166001600160a01b03166398d5fdca6040518163ffffffff1660e01b815260040160206040518083038186803b15801561235357600080fd5b505afa158015612367573d6000803e3d6000fd5b505050506040513d602081101561237d57600080fd5b505190508061238b57600080fd5b60006123b2826123a6600254876124ca90919063ffffffff16565b9063ffffffff61252c16565b90508086116123c057600080fd5b600081870386816123cd57fe5b0691909101925050505b9392505050565b600080600b60009054906101000a90046001600160a01b03166001600160a01b03166398d5fdca6040518163ffffffff1660e01b815260040160206040518083038186803b15801561242f57600080fd5b505afa158015612443573d6000803e3d6000fd5b505050506040513d602081101561245957600080fd5b5051600254909150849060009061247790839063ffffffff61256e16565b905060006124868883866125c8565b9050858110156124be576124a4866123a68a8763ffffffff6124ca16565b91506124bb600254836125f890919063ffffffff16565b92505b50909695505050505050565b6000826124d957506000612526565b828202828482816124e657fe5b04146125235760405162461bcd60e51b81526004018080602001828103825260218152602001806127376021913960400191505060405180910390fd5b90505b92915050565b600061252383836040518060400160405280601a81526020017f536166654d6174683a206469766973696f6e206279207a65726f00000000000081525061263a565b600082820183811015612523576040805162461bcd60e51b815260206004820152601b60248201527f536166654d6174683a206164646974696f6e206f766572666c6f770000000000604482015290519081900360640190fd5b600082156125ef5760006125e6846123a6878663ffffffff6124ca16565b91506123d79050565b506000196123d7565b600061252383836040518060400160405280601e81526020017f536166654d6174683a207375627472616374696f6e206f766572666c6f7700008152506126dc565b600081836126c65760405162461bcd60e51b81526004018080602001828103825283818151815260200191508051906020019080838360005b8381101561268b578181015183820152602001612673565b50505050905090810190601f1680156126b85780820380516001836020036101000a031916815260200191505b509250505060405180910390fd5b5060008385816126d257fe5b0495945050505050565b6000818484111561272e5760405162461bcd60e51b815260206004820181815283516024840152835190928392604490910191908501908083836000831561268b578181015183820152602001612673565b50505090039056fe536166654d6174683a206d756c7469706c69636174696f6e206f766572666c6f77a264697066735822122036c727c356986424536066c3b7efdf807fd63130bd44c7de36a28d8c129040d464736f6c634300060b0033608060405234801561001057600080fd5b50600380546001600160a01b031916339081179091556040516000907f8be0079c531659141344cd1fd0a4f28419497f9722a3daafe3b4186f6b6457e0908290a3615459806100606000396000f3fe608060405234801561001057600080fd5b50600436106103a85760003560e01c8063795d26c3116101eb578063b83f91a211610110578063d3d6f843116100a8578063d3d6f84314610a7f578063d66a255314610aab578063d9a7244414610ad1578063dba1c5f214610aee578063e2ac77b014610af6578063f34862de14610b1c578063f36b242514610b42578063f92d3433146105b3578063fe2ba84814610b4a576103a8565b8063b83f91a21461096b578063b91af97c14610973578063bcd37526146109bf578063bf9befb114610a0d578063c35bc55014610a15578063c7b5548114610a1d578063cbd138ae14610a25578063d293c71014610a4b578063d380a37c14610a77576103a8565b806396d711ff1161018357806396d711ff146108d45780639976cf45146108dc5780639dd233d214610908578063a20baee6146107c5578063a3a6401714610910578063ae91875414610918578063b0d8e18114610920578063b7f8cf9b14610946578063b82f263d1461094e576103a8565b8063795d26c3146107fa578063797250e3146108025780637985c5e41461080a5780637f7dde4a14610886578063807d138d1461088e57806382fe3eb914610896578063887105d3146108bc5780638da5cb5b146108c45780638f32d59b146108cc576103a8565b8063480cd578116102d1578063631203b011610269578063631203b0146106ca57806364cee260146106e7578063653d46e71461070d5780636ef643381461072a57806372423c171461079957806372fe25aa146107c5578063741bef1a146107cd578063756b253e146107d5578063794e5724146107f2576103a8565b8063480cd578146105f95780634870dd9a1461061f57806349eefeee146106275780634e443d9e1461062f5780635733d58f146106605780635d6b480f146106685780635d8c9609146106945780635dba4c4a146106ba57806361ec893d146106c2576103a8565b80631f68f20a116103445780631f68f20a146105755780631f7af3c31461057d57806321e378011461058557806324092669146105ab57806328d28b5b146105b35780632b11551a146105bb5780632e86bbd8146105c35780632f865568146105cb5780633cc74225146105f1576103a8565b8063048c661d146103ad578063060d49a3146103d1578063071a7541146103eb5780630b076557146103f357806312610e921461041b57806315d549f1146104475780631673c79a1461046d57806318f2817a146104ac5780631e8b1c2b146104d2575b600080fd5b6103b5610b70565b604080516001600160a01b039092168252519081900360200190f35b6103d9610b7f565b60408051918252519081900360200190f35b6103d9610b85565b6104196004803603602081101561040957600080fd5b50356001600160a01b0316610b8a565b005b6103d96004803603604081101561043157600080fd5b506001600160a01b038135169060200135610bb2565b6103d96004803603602081101561045d57600080fd5b50356001600160a01b0316610c0a565b6104936004803603602081101561048357600080fd5b50356001600160a01b0316610c2e565b6040805192835260208301919091528051918290030190f35b6103d9600480360360208110156104c257600080fd5b50356001600160a01b0316610c47565b610419600480360360208110156104e857600080fd5b81019060208101813564010000000081111561050357600080fd5b82018360208201111561051557600080fd5b8035906020019184602083028401116401000000008311171561053757600080fd5b919080806020026020016040519081016040528093929190818152602001838360200280828437600092019190915250929550610c5a945050505050565b6103d9610ffc565b6103b5611002565b6103d96004803603602081101561059b57600080fd5b50356001600160a01b0316611011565b6103d961103b565b6103d961104e565b6103d961105f565b6103d96110a2565b610419600480360360208110156105e157600080fd5b50356001600160a01b03166110af565b6103b5611115565b6103d96004803603602081101561060f57600080fd5b50356001600160a01b0316611124565b6103d9611142565b6103d9611147565b61064c6004803603602081101561064557600080fd5b503561114d565b604080519115158252519081900360200190f35b6103d9611158565b6104196004803603604081101561067e57600080fd5b506001600160a01b038135169060200135611164565b6103d9600480360360208110156106aa57600080fd5b50356001600160a01b03166111b0565b61041961123f565b6103d9611272565b6103d9600480360360208110156106e057600080fd5b5035611277565b6103d9600480360360208110156106fd57600080fd5b50356001600160a01b031661129d565b6104196004803603602081101561072357600080fd5b50356112bb565b6107506004803603602081101561074057600080fd5b50356001600160a01b0316611669565b6040518086815260200185815260200184815260200183600281111561077257fe5b60ff1681526001600160801b03909216602083015250604080519182900301945092505050f35b6103d9600480360360408110156107af57600080fd5b506001600160a01b0381351690602001356116a3565b6103d9611700565b6103b561170c565b6103b5600480360360208110156107eb57600080fd5b503561171b565b6103d9611742565b6103d961174e565b6103d961184f565b610419600480360361016081101561082157600080fd5b506001600160a01b038135811691602081013582169160408201358116916060810135821691608082013581169160a081013582169160c082013581169160e08101358216916101008201358116916101208101358216916101409091013516611855565b6103b5611c4e565b6103d9611c5d565b610419600480360360208110156108ac57600080fd5b50356001600160a01b0316611c63565b6103d9611c74565b6103b5611d30565b61064c611d3f565b6103d9611d50565b6103d9600480360360408110156108f257600080fd5b506001600160a01b038135169060200135611d56565b6103d9611d89565b6103b5611d8f565b6103b5611d9e565b6103d96004803603602081101561093657600080fd5b50356001600160a01b0316611dad565b6103b5611dd4565b6103d96004803603602081101561096457600080fd5b5035611de3565b6103b5611dee565b6109996004803603602081101561098957600080fd5b50356001600160a01b0316611dfd565b604080519485526020850193909352838301919091526060830152519081900360800190f35b610419600480360360e08110156109d557600080fd5b508035906001600160a01b03602082013581169160408101358216916060820135169060808101359060a08101359060c00135611e61565b6103d9612600565b6103d9612606565b6103d961260d565b61041960048036036020811015610a3b57600080fd5b50356001600160a01b0316612619565b6103d960048036036040811015610a6157600080fd5b506001600160a01b03813516906020013561262a565b6103d9612649565b6103d960048036036040811015610a9557600080fd5b506001600160a01b03813516906020013561264f565b6103d960048036036020811015610ac157600080fd5b50356001600160a01b0316612685565b6103b560048036036020811015610ae757600080fd5b50356126a0565b6103d96126ca565b61064c60048036036020811015610b0c57600080fd5b50356001600160a01b03166126d0565b6103d960048036036020811015610b3257600080fd5b50356001600160a01b03166126f2565b6103d9612723565b61041960048036036020811015610b6057600080fd5b50356001600160a01b031661274e565b6005546001600160a01b031681565b60175481565b600281565b610b9261275f565b600054600154610baf916001600160a01b039081169116836127aa565b50565b6000610bbc61275f565b6001600160a01b0383166000908152600e6020526040812054610be5908463ffffffff6128cc16565b6001600160a01b0385166000908152600e602052604090208190559150505b92915050565b6000610c1461275f565b610c1d82612915565b6001600160801b031690505b919050565b6014602052600090815260409020805460019091015482565b6000610c5161275f565b610c04826129af565b8051610c975760405162461bcd60e51b81526004018080602001828103825260368152602001806152df6036913960400191505060405180910390fd5b6000546001546005546001600160a01b03928316929182169116610cb9614fe0565b610cc1615011565b600260009054906101000a90046001600160a01b03166001600160a01b0316630fdb11cf6040518163ffffffff1660e01b8152600401602060405180830381600087803b158015610d1157600080fd5b505af1158015610d25573d6000803e3d6000fd5b505050506040513d6020811015610d3b57600080fd5b50518252604080516326fcbc6b60e21b815290516001600160a01b03851691639bf2f1ac916004808301926020929190829003018186803b158015610d7f57600080fd5b505afa158015610d93573d6000803e3d6000fd5b505050506040513d6020811015610da957600080fd5b505160208301528151610dbb90612a2a565b1580156040840152610de357610ddc8585846000015185602001518a612a47565b9050610dfb565b610df88585846000015185602001518a612c30565b90505b6000816020015111610e3e5760405162461bcd60e51b81526004018080602001828103825260228152602001806153d36022913960400191505060405180910390fd5b826001600160a01b031663335525ad82608001518360a001516040518363ffffffff1660e01b81526004018083815260200182815260200192505050600060405180830381600087803b158015610e9457600080fd5b505af1158015610ea8573d6000803e3d6000fd5b50505050610ec085858360c001518460e00151612cf8565b61010081015115610f3f57600754610100820151604080516364a197f360e01b81526001600160a01b039384166004820152602481019290925251918716916364a197f39160448082019260009290919082900301818387803b158015610f2657600080fd5b505af1158015610f3a573d6000803e3d6000fd5b505050505b610f4d858260400151612f3a565b6020810151606083015261010081015160408201518251610f859291610f79919063ffffffff6128cc16565b9063ffffffff6128cc16565b608080840182905260608085015160408086015186840151825193845260208401969096528282015291810193909352517f4152c73dd2614c4f9fc35e8c9cf16013cd588c75b49a4c1673ecffdcbcda94039281900390910190a1610ff4853383606001518460400151613040565b505050505050565b600c5481565b6009546001600160a01b031681565b6001600160a01b0381166000908152600e602052604081206003015460ff166002811115610c0457fe5b6064670de0b6b3a76400005b0460050281565b6103e8670de0b6b3a7640000611047565b600061109d61108f600c546103e8670de0b6b3a76400008161107d57fe5b0460050261314390919063ffffffff16565b670de0b6b3a764000061319d565b905090565b6802b5e3af16b188000081565b6110b8816131b3565b6040805160018082528183019092526060916020808301908036833701905050905081816000815181106110e857fe5b60200260200101906001600160a01b031690816001600160a01b03168152505061111181610c5a565b5050565b6001546001600160a01b031681565b6001600160a01b03166000908152600e602052604090206001015490565b60c881565b60155490565b6000610c0482612a2a565b6714d1120d7b16000081565b61116c61275f565b80600281111561117857fe5b6001600160a01b0383166000908152600e60205260409020600301805460ff191660018360028111156111a757fe5b02179055505050565b6001600160a01b03811660009081526014602052604081205460125482906111de908363ffffffff6128cc16565b9050806111f057600092505050610c29565b6001600160a01b0384166000908152600e602052604081206002015490611235670de0b6b3a7640000611229848663ffffffff61321b16565b9063ffffffff61327416565b9695505050505050565b61124761275f565b60006112516132b6565b9050670de0b6b3a764000081111561126557fe5b600c819055610baf6132fa565b603c81565b6000610c04670de0b6b3a764000061122984611291612723565b9063ffffffff61321b16565b6001600160a01b03166000908152600e602052604090206002015490565b6112c361505d565b506040805160e081018252600080546001600160a01b0390811683526001548116602084015292820181905260608201819052600b548316608083015260a0820181905260c082015260055490911661131a614fe0565b611322615011565b600260009054906101000a90046001600160a01b03166001600160a01b0316630fdb11cf6040518163ffffffff1660e01b8152600401602060405180830381600087803b15801561137257600080fd5b505af1158015611386573d6000803e3d6000fd5b505050506040513d602081101561139c57600080fd5b50518252604080516326fcbc6b60e21b815290516001600160a01b03851691639bf2f1ac916004808301926020929190829003018186803b1580156113e057600080fd5b505afa1580156113f4573d6000803e3d6000fd5b505050506040513d602081101561140a57600080fd5b50516020830152815161141c90612a2a565b15801560408401526114435761143c848360000151846020015188613322565b9050611463565b6114608460000151856020015184600001518560200151896136b5565b90505b60008160200151116114a65760405162461bcd60e51b81526004018080602001828103825260228152602001806153d36022913960400191505060405180910390fd5b826001600160a01b031663335525ad82608001518360a001516040518363ffffffff1660e01b81526004018083815260200182815260200192505050600060405180830381600087803b1580156114fc57600080fd5b505af1158015611510573d6000803e3d6000fd5b50505050611530846000015185602001518360c001518460e00151612cf8565b610100810151156115b1578351600754610100830151604080516364a197f360e01b81526001600160a01b03938416600482015260248101929092525191909216916364a197f391604480830192600092919082900301818387803b15801561159857600080fd5b505af11580156115ac573d6000803e3d6000fd5b505050505b6115c384600001518260400151612f3a565b60208101516060830152610100810151604082015182516115ef9291610f79919063ffffffff6128cc16565b608080840182905260608085015160408086015186840151825193845260208401969096528282015291810193909352517f4152c73dd2614c4f9fc35e8c9cf16013cd588c75b49a4c1673ecffdcbcda94039281900390910190a161166284600001513383606001518460400151613040565b5050505050565b600e6020526000908152604090208054600182015460028301546003909301549192909160ff81169061010090046001600160801b031685565b60006116ad61275f565b6001600160a01b0383166000908152600e60205260408120600101546116d9908463ffffffff61314316565b6001600160a01b0385166000908152600e6020526040902060010181905591505092915050565b670de0b6b3a764000081565b6002546001600160a01b031681565b6015818154811061172857fe5b6000918252602090912001546001600160a01b0316905081565b670f43fc2c04ee000081565b6000805460408051632f5a97e560e11b8152905183926001600160a01b031691635eb52fca916004808301926020929190829003018186803b15801561179357600080fd5b505afa1580156117a7573d6000803e3d6000fd5b505050506040513d60208110156117bd57600080fd5b505160015460408051632f5a97e560e11b815290519293506000926001600160a01b0390921691635eb52fca91600480820192602092909190829003018186803b15801561180a57600080fd5b505afa15801561181e573d6000803e3d6000fd5b505050506040513d602081101561183457600080fd5b50519050611848828263ffffffff61314316565b9250505090565b60165481565b61185d611d3f565b6118ae576040805162461bcd60e51b815260206004820181905260248201527f4f776e61626c653a2063616c6c6572206973206e6f7420746865206f776e6572604482015290519081900360640190fd5b6118b78b6137e7565b6118c08a6137e7565b6118c9896137e7565b6118d2886137e7565b6118db876137e7565b6118e4866137e7565b6118ed856137e7565b6118f6846137e7565b6118ff836137e7565b611908826137e7565b611911816137e7565b600480546001600160a01b03199081166001600160a01b038e81169182179093556000805483168e85161790556001805483168d85161790556005805483168c85161790556006805483168b85161790556007805483168a8516179055600280548316898516179055600880548316888516179055600b80548316878516179055600980548316868516179055600a805490921692841692909217905560408051918252517f3ca631ffcd2a9b5d9ae18543fc82f58eb4ca33af9e6ab01b7a8e95331e6ed985916020908290030190a1604080516001600160a01b038c16815290517f78f058b189175430c48dc02699e3a0031ea4ff781536dc2fab847de4babdd8829181900360200190a1604080516001600160a01b038b16815290517f5ee0cae2f063ed938bb55046f6a932fb6ae792bf43624806bb90abe68a50be9b9181900360200190a1604080516001600160a01b038a16815290517f82966d27eea39b038ee0fa30cd16532bb24f6e65d31cb58fb227aa5766cdcc7f9181900360200190a1604080516001600160a01b038916815290517fcfb07d791fcafc032b35837b50eb84b74df518cf4cc287e8084f47630fa70fa09181900360200190a1604080516001600160a01b038816815290517fe67f36a6e961157d6eff83b91f3af5a62131ceb6f04954ef74f51c1c05e7f88d9181900360200190a1604080516001600160a01b038716815290517f8c537274438aa850a330284665d81a85dd38267d09e4050d416bfc94142db2649181900360200190a1604080516001600160a01b038616815290517f227eec0ec317af6ab1a9587ffa1c84332522eb4c583a908f89babc05f8f339bd9181900360200190a1604080516001600160a01b038516815290517f65f4cf077bc01e4742eb5ad98326f6e95b63548ea24b17f8d5e823111fe788009181900360200190a1604080516001600160a01b038416815290517f2ac6e99201ddc1b6eac6f8f28662d1ecafee131f6eb98c29de54528a9888a7d19181900360200190a1604080516001600160a01b038316815290517f756ebc192164c295bba134b5aacd72cc7aff8098a670d1f0a5f6b3a0b4ce67079181900360200190a1611c41613896565b5050505050505050505050565b6000546001600160a01b031681565b60105481565b611c6b61275f565b610baf816138e0565b6000805460408051630a7b61df60e11b8152905183926001600160a01b0316916314f6c3be916004808301926020929190829003018186803b158015611cb957600080fd5b505afa158015611ccd573d6000803e3d6000fd5b505050506040513d6020811015611ce357600080fd5b505160015460408051630a7b61df60e11b815290519293506000926001600160a01b03909216916314f6c3be91600480820192602092909190829003018186803b15801561180a57600080fd5b6003546001600160a01b031690565b6003546001600160a01b0316331490565b60115481565b6000611d6061275f565b6001600160a01b0383166000908152600e6020526040812054610be5908463ffffffff61314316565b60125481565b600a546001600160a01b031681565b600b546001600160a01b031681565b6000806000611dbb8461390a565b915091506000611dcb8383613990565b95945050505050565b6004546001600160a01b031681565b6000610c04826139c5565b6008546001600160a01b031681565b6001600160a01b0381166000908152600e602052604081208054600190910154909180611e29856126f2565b9150611e34856111b0565b9050611e46848363ffffffff61314316565b9350611e58838263ffffffff61314316565b92509193509193565b611e6961505d565b506040805160e0810182526000546001600160a01b03908116825260015481166020830152600854811692820192909252600a5482166060820152600b5482166080820152600754821660a082015260065490911660c0820152611ecb615099565b611ed4836139f1565b611edc613a4b565b600260009054906101000a90046001600160a01b03166001600160a01b0316630fdb11cf6040518163ffffffff1660e01b8152600401602060405180830381600087803b158015611f2c57600080fd5b505af1158015611f40573d6000803e3d6000fd5b505050506040513d6020811015611f5657600080fd5b505160c08201819052611f6890613b0f565b611f7189613b5e565b611f808260400151338b613b9d565b611f8861174e565b60e0820181905260408084015181516370a0823160e01b815233600482015291516001600160a01b03909116916370a08231916024808301926020929190829003018186803b158015611fda57600080fd5b505afa158015611fee573d6000803e3d6000fd5b505050506040513d602081101561200457600080fd5b5051111561200e57fe5b888152608082015160c0820151600091612029918b90613c5d565b1561203557508761215f565b82608001516001600160a01b0316634d6228316040518163ffffffff1660e01b815260040160206040518083038186803b15801561207257600080fd5b505afa158015612086573d6000803e3d6000fd5b505050506040513d602081101561209c57600080fd5b505190505b6001600160a01b038116158015906120cd5750670f43fc2c04ee00006120cb828460c0015161262a565b105b1561215f5782608001516001600160a01b031663b72703ac826040518263ffffffff1660e01b815260040180826001600160a01b03166001600160a01b0316815260200191505060206040518083038186803b15801561212c57600080fd5b505afa158015612140573d6000803e3d6000fd5b505050506040513d602081101561215657600080fd5b505190506120a1565b8461216a5760001994505b6001600160a01b038116158015906121825750815115155b801561218e5750600085115b156122bf57848060019003955050600083608001516001600160a01b031663b72703ac836040518263ffffffff1660e01b815260040180826001600160a01b03166001600160a01b0316815260200191505060206040518083038186803b1580156121f857600080fd5b505afa15801561220c573d6000803e3d6000fd5b505050506040513d602081101561222257600080fd5b50518451602086015191925061223891846127aa565b6122406150de565b612257858486600001518760c001518e8e8e613dd0565b80519091506122675750506122bf565b8051602085015161227d9163ffffffff61314316565b602080860191909152810151604085015161229d9163ffffffff61314316565b6040850152805184516122b59163ffffffff6128cc16565b845250905061216a565b60008260400151116123025760405162461bcd60e51b81526004018080602001828103825260298152602001806151826029913960400191505060405180910390fd5b61231982604001518360c001518460e00151614067565b5061232782604001516140dc565b60608301819052604083015161233e919086614137565b82600001516001600160a01b03166364a197f3846060015184606001516040518363ffffffff1660e01b815260040180836001600160a01b03166001600160a01b0316815260200182815260200192505050600060405180830381600087803b1580156123aa57600080fd5b505af11580156123be573d6000803e3d6000fd5b5050505082606001516001600160a01b0316631e3e2a1a83606001516040518263ffffffff1660e01b815260040180828152602001915050600060405180830381600087803b15801561241057600080fd5b505af1158015612424573d6000803e3d6000fd5b505050506060820151604083015161243b916128cc565b8260800181815250507f43a3f4082a4dbc33d78e317d2497d3a730bc7fc3574159dcea1056e62e5d9ad88a8360200151846040015185606001516040518085815260200184815260200183815260200182815260200194505050505060405180910390a182604001516001600160a01b0316639dc29fac3384602001516040518363ffffffff1660e01b815260040180836001600160a01b03166001600160a01b0316815260200182815260200192505050600060405180830381600087803b15801561250757600080fd5b505af115801561251b573d6000803e3d6000fd5b5050505082600001516001600160a01b03166338d995a883602001516040518263ffffffff1660e01b815260040180828152602001915050600060405180830381600087803b15801561256d57600080fd5b505af1158015612581573d6000803e3d6000fd5b505084516080850151604080516364a197f360e01b81523360048201526024810192909252516001600160a01b0390921693506364a197f3925060448082019260009290919082900301818387803b1580156125dc57600080fd5b505af11580156125f0573d6000803e3d6000fd5b5050505050505050505050505050565b600f5481565b6212750081565b670ddd4b8c6c7d70d881565b61262161275f565b610baf816141ac565b60008060006126388561390a565b915091506000611235838387614266565b600d5481565b600061265961275f565b6001600160a01b0383166000908152600e60205260408120600101546116d9908463ffffffff6128cc16565b6001600160a01b03166000908152600e602052604090205490565b6000601582815481106126af57fe5b6000918252602090912001546001600160a01b031692915050565b60135481565b6012546001600160a01b03821660009081526014602052604090205410919050565b6001600160a01b03811660009081526014602052604081206001015460135482906111de908363ffffffff6128cc16565b600061109d612741600c546103e8670de0b6b3a76400008161107d57fe5b66b1a2bc2ec5000061319d565b61275661275f565b610baf81614296565b6004546001600160a01b031633146127a85760405162461bcd60e51b815260040180806020018281038252603b8152602001806152a4603b913960400191505060405180910390fd5b565b6127b3816126d0565b156128c7576127c1816131b3565b60006127cc826111b0565b905060006127d9836126f2565b6001600160a01b0384166000908152600e6020526040902060010154909150612808908363ffffffff61314316565b6001600160a01b0384166000908152600e60205260409020600181019190915554612839908263ffffffff61314316565b6001600160a01b0384166000908152600e602052604090205561285b836138e0565b612867858583856142e6565b6001600160a01b0383166000818152600e602090815260408083208054600182015460029092015483519182529381019190915280820192909252606082019290925290516000805160206152848339815191529181900360800190a250505b505050565b600061290e83836040518060400160405280601e81526020017f536166654d6174683a207375627472616374696f6e206f766572666c6f7700008152506143e8565b9392505050565b601580546001808201835560008381527f55f448fdea98c4d29eb340757ef0a66cd03dbb9538908a6a81d96026b71ec47590920180546001600160a01b0319166001600160a01b0386161790559154909161297091906128cc565b6001600160a01b03929092166000908152600e602052604090206003018054610100600160881b0319166101006001600160801b038516021790555090565b6001600160a01b0381166000908152600e602052604081206001015481906129d69061447f565b6001600160a01b0384166000908152600e60205260409020600201805490829055600f5491925090612a20908390612a14908463ffffffff6128cc16565b9063ffffffff61314316565b600f555092915050565b600080612a36836139c5565b6714d1120d7b160000119392505050565b612a4f615011565b612a576150f8565b612a5f615011565b84825260006080830152612a7161174e565b60a0830152612a7e611c74565b60c0830152600060208301525b835182602001511015612c255783826020015181518110612aa857fe5b60209081029190910101516001600160a01b031660608301819052612acd908761262a565b60408301526080820151612bb757670f43fc2c04ee0000826040015110158015612af657508151155b15612b0057612c15565b6000612b158360c001518460a0015189614266565b9050612b328989856060015186604001518760000151868d6144bb565b60808101518451919350612b4c919063ffffffff6128cc16565b8352608082015160a0840151612b679163ffffffff6128cc16565b60a08085019190915282015160c0840151612b879163ffffffff6128cc16565b60c0840152612b96848361476c565b9350612bab8360c001518460a0015189614883565b15608084015250612c15565b81608001518015612bd35750670f43fc2c04ee00008260400151105b15612c1557612bec8888846060015185600001516148a4565b60808101518351919250612c06919063ffffffff6128cc16565b8252612c12838261476c565b92505b6020820180516001019052612a8b565b505095945050505050565b612c38615011565b612c406150f8565b612c48615011565b848252600060208301525b835182602001511015612c255783826020015181518110612c7057fe5b60209081029190910101516001600160a01b031660608301819052612c95908761262a565b60408301819052670f43fc2c04ee00001115612ce857612cbf8888846060015185600001516148a4565b60808101518351919250612cd9919063ffffffff6128cc16565b8252612ce5838261476c565b92505b6020820180516001019052612c53565b81612d0257612f34565b601654600090612d2490612a1484670de0b6b3a764000063ffffffff61321b16565b90506000612d49601754612a14670de0b6b3a76400008761321b90919063ffffffff16565b90506000612d62600f548461327490919063ffffffff16565b90506000612d7b600f548461327490919063ffffffff16565b9050612da2612d95600f548461321b90919063ffffffff16565b859063ffffffff6128cc16565b601655600f54612dca90612dbd90839063ffffffff61321b16565b849063ffffffff6128cc16565b601755601254612de0908363ffffffff61314316565b601255601354612df6908263ffffffff61314316565b6013556040805163071b32b560e31b81526004810188905290516001600160a01b038a16916338d995a891602480830192600092919082900301818387803b158015612e4157600080fd5b505af1158015612e55573d6000803e3d6000fd5b50505050866001600160a01b031663cfb9329a876040518263ffffffff1660e01b815260040180828152602001915050600060405180830381600087803b158015612e9f57600080fd5b505af1158015612eb3573d6000803e3d6000fd5b50505050876001600160a01b03166364a197f388876040518363ffffffff1660e01b815260040180836001600160a01b03166001600160a01b0316815260200182815260200192505050600060405180830381600087803b158015612f1757600080fd5b505af1158015612f2b573d6000803e3d6000fd5b50505050505050505b50505050565b600f546010819055506000826001600160a01b03166314f6c3be6040518163ffffffff1660e01b815260040160206040518083038186803b158015612f7e57600080fd5b505afa158015612f92573d6000803e3d6000fd5b505050506040513d6020811015612fa857600080fd5b505160015460408051630a7b61df60e11b815290519293506000926001600160a01b03909216916314f6c3be91600480820192602092909190829003018186803b158015612ff557600080fd5b505afa158015613009573d6000803e3d6000fd5b505050506040513d602081101561301f57600080fd5b5051905061303781612a14848663ffffffff6128cc16565b60115550505050565b81156130bf5760085460065460408051631062c15f60e11b81526001600160a01b039283166004820152868316602482015260448101869052905191909216916320c582be91606480830192600092919082900301818387803b1580156130a657600080fd5b505af11580156130ba573d6000803e3d6000fd5b505050505b8015612f3457836001600160a01b03166364a197f384836040518363ffffffff1660e01b815260040180836001600160a01b03166001600160a01b0316815260200182815260200192505050600060405180830381600087803b15801561312557600080fd5b505af1158015613139573d6000803e3d6000fd5b5050505050505050565b60008282018381101561290e576040805162461bcd60e51b815260206004820152601b60248201527f536166654d6174683a206164646974696f6e206f766572666c6f770000000000604482015290519081900360640190fd5b60008183106131ac578161290e565b5090919050565b60016001600160a01b0382166000908152600e602052604090206003015460ff1660028111156131df57fe5b14610baf5760405162461bcd60e51b815260040180806020018281038252602f8152602001806153f5602f913960400191505060405180910390fd5b60008261322a57506000610c04565b8282028284828161323757fe5b041461290e5760405162461bcd60e51b81526004018080602001828103825260218152602001806152156021913960400191505060405180910390fd5b600061290e83836040518060400160405280601a81526020017f536166654d6174683a206469766973696f6e206279207a65726f0000000000008152506149b9565b6000806132c1614a1e565b905060006132d7670ddd4b8c6c7d70d883614a3a565b9050611848670de0b6b3a764000061122983600c5461321b90919063ffffffff16565b6000613311600d54426128cc90919063ffffffff16565b9050603c8110610baf5742600d5550565b61332a615011565b6133326150f8565b61333a615011565b8482526000608083015261334c61174e565b60a0830152613359611c74565b8260c001818152505086608001516001600160a01b0316634d6228316040518163ffffffff1660e01b815260040160206040518083038186803b15801561339f57600080fd5b505afa1580156133b3573d6000803e3d6000fd5b505050506040513d60208110156133c957600080fd5b50516001600160a01b039081166060840152608088015160408051631e22314360e01b815290516000939290921691631e22314391600480820192602092909190829003018186803b15801561341e57600080fd5b505afa158015613432573d6000803e3d6000fd5b505050506040513d602081101561344857600080fd5b50516000602085015290505b84836020015110801561347d5750806001600160a01b031683606001516001600160a01b031614155b156136aa57600088608001516001600160a01b031663b72703ac85606001516040518263ffffffff1660e01b815260040180826001600160a01b03166001600160a01b0316815260200191505060206040518083038186803b1580156134e257600080fd5b505afa1580156134f6573d6000803e3d6000fd5b505050506040513d602081101561350c57600080fd5b50516060850151909150613520908961262a565b6040850152608084015161361c57670f43fc2c04ee000084604001511015801561354957508351155b1561355457506136aa565b60006135698560c001518660a001518b614266565b8a5160208c015160608801516040890151895194955061358a94868f6144bb565b608081015186519195506135a4919063ffffffff6128cc16565b8552608084015160a08601516135bf9163ffffffff6128cc16565b8560a00181815250506135ec846101000151610f798660a001518860c001516128cc90919063ffffffff16565b60c08601526135fb868561476c565b95506136108560c001518660a001518b614883565b1560808601525061368c565b836080015180156136385750670f43fc2c04ee00008460400151105b156136865761365989600001518a60200151866060015187600001516148a4565b60808101518551919450613673919063ffffffff6128cc16565b845261367f858461476c565b945061368c565b506136aa565b6001600160a01b031660608401526020830180516001019052613454565b505050949350505050565b6136bd615011565b6136c56150f8565b6136cd615011565b600b54858352600060208401526001600160a01b03165b84836020015110156137db57806001600160a01b0316634d6228316040518163ffffffff1660e01b815260040160206040518083038186803b15801561372957600080fd5b505afa15801561373d573d6000803e3d6000fd5b505050506040513d602081101561375357600080fd5b50516001600160a01b03166060840181905261376f908861262a565b60408401819052670f43fc2c04ee000011156137c6576137998989856060015186600001516148a4565b608081015184519193506137b3919063ffffffff6128cc16565b83526137bf848361476c565b93506137cb565b6137db565b60208301805160010190526136e4565b50505095945050505050565b6001600160a01b038116613842576040805162461bcd60e51b815260206004820152601e60248201527f4163636f756e742063616e6e6f74206265207a65726f20616464726573730000604482015290519081900360640190fd5b803b80611111576040805162461bcd60e51b815260206004820181905260248201527f4163636f756e7420636f64652073697a652063616e6e6f74206265207a65726f604482015290519081900360640190fd5b6003546040516000916001600160a01b0316907f8be0079c531659141344cd1fd0a4f28419497f9722a3daafe3b4186f6b6457e0908390a3600380546001600160a01b0319169055565b6012546001600160a01b039091166000908152601460205260409020908155601354600190910155565b6000806000613918846111b0565b90506000613925856126f2565b6001600160a01b0386166000908152600e602052604081206001015491925090613955908463ffffffff61314316565b6001600160a01b0387166000908152600e602052604081205491925090613982908463ffffffff61314316565b919550909350505050915091565b600081156139bc576139b5826112298568056bc75e2d6310000063ffffffff61321b16565b9050610c04565b50600019610c04565b6000806139d0611c74565b905060006139dc61174e565b90506139e9828286614266565b949350505050565b6611c37937e080008110158015613a105750670de0b6b3a76400008111155b610baf5760405162461bcd60e51b81526004018080602001828103825260308152602001806153796030913960400191505060405180910390fd5b60095460408051631e425be160e11b815290516000926001600160a01b031691633c84b7c2916004808301926020929190829003018186803b158015613a9057600080fd5b505afa158015613aa4573d6000803e3d6000fd5b505050506040513d6020811015613aba57600080fd5b50519050613ad1816212750063ffffffff61314316565b421015610baf5760405162461bcd60e51b81526004018080602001828103825260408152602001806151d56040913960400191505060405180910390fd5b670f43fc2c04ee0000613b21826139c5565b1015610baf5760405162461bcd60e51b815260040180806020018281038252602a8152602001806153a9602a913960400191505060405180910390fd5b60008111610baf5760405162461bcd60e51b815260040180806020018281038252602e815260200180615315602e913960400191505060405180910390fd5b80836001600160a01b03166370a08231846040518263ffffffff1660e01b815260040180826001600160a01b03166001600160a01b0316815260200191505060206040518083038186803b158015613bf457600080fd5b505afa158015613c08573d6000803e3d6000fd5b505050506040513d6020811015613c1e57600080fd5b505110156128c75760405162461bcd60e51b815260040180806020018281038252604e815260200180615236604e913960600191505060405180910390fd5b60006001600160a01b0383161580613cf45750836001600160a01b0316635dbe47e8846040518263ffffffff1660e01b815260040180826001600160a01b03166001600160a01b0316815260200191505060206040518083038186803b158015613cc657600080fd5b505afa158015613cda573d6000803e3d6000fd5b505050506040513d6020811015613cf057600080fd5b5051155b80613d0f5750670f43fc2c04ee0000613d0d848461262a565b105b15613d1c5750600061290e565b6000846001600160a01b031663765e0159856040518263ffffffff1660e01b815260040180826001600160a01b03166001600160a01b0316815260200191505060206040518083038186803b158015613d7457600080fd5b505afa158015613d88573d6000803e3d6000fd5b505050506040513d6020811015613d9e57600080fd5b505190506001600160a01b0381161580611dcb5750670f43fc2c04ee0000613dc6828561262a565b1095945050505050565b613dd86150de565b6001600160a01b0387166000908152600e6020526040902054613e15908790613e10906802b5e3af16b188000063ffffffff6128cc16565b61319d565b808252613e3690869061122990670de0b6b3a764000063ffffffff61321b16565b60208083019190915281516001600160a01b0389166000908152600e9092526040822054613e699163ffffffff6128cc16565b6020808401516001600160a01b038b166000908152600e90925260408220600101549293509091613e9f9163ffffffff6128cc16565b90506802b5e3af16b1880000821415613f3657613ebb89614296565b613ec4896141ac565b613ed98a8a6802b5e3af16b188000084614ae5565b886001600160a01b03166000805160206152848339815191526000806000600360405180858152602001848152602001838152602001826003811115613f1b57fe5b60ff16815260200194505050505060405180910390a2614059565b6000613f428284613990565b9050848114613f5d575050600080835260208301525061405c565b60808b01516040805163015f109360e51b81526001600160a01b038d81166004830152602482018590528a81166044830152898116606483015291519190921691632be2126091608480830192600092919082900301818387803b158015613fc457600080fd5b505af1158015613fd8573d6000803e3d6000fd5b5050506001600160a01b038b166000908152600e60205260409020848155600101839055506140068a6129af565b506001600160a01b038a166000818152600e6020908152604091829020600201548251878152918201869052818301526003606082015290516000805160206152848339815191529181900360800190a2505b50505b979650505050505050565b6000806140726132b6565b9050600061408a84611229888863ffffffff61321b16565b905060006140af6140a283600263ffffffff61327416565b849063ffffffff61314316565b90506140c381670de0b6b3a764000061319d565b9050600081116140cf57fe5b600c8190556112356132fa565b6000806140f7670de0b6b3a76400006112298561129161105f565b9050828110610c045760405162461bcd60e51b81526004018080602001828103825260368152602001806153436036913960400191505060405180910390fd5b60006141558361122986670de0b6b3a764000063ffffffff61321b16565b905081811115612f34576040805162461bcd60e51b815260206004820152601d60248201527f4665652065786365656465642070726f7669646564206d6178696d756d000000604482015290519081900360640190fd5b6015546141b881614c9a565b6001600160a01b0382166000908152600e6020908152604080832060038101805460ff191660021790556001808201859055908490556014909252822082815501556142048282614d53565b600b5460408051631484968760e11b81526001600160a01b038581166004830152915191909216916329092d0e91602480830192600092919082900301818387803b15801561425257600080fd5b505af1158015610ff4573d6000803e3d6000fd5b6000821561428d57600061428484611229878663ffffffff61321b16565b915061290e9050565b5060001961290e565b6001600160a01b0381166000908152600e6020526040902060020154600f546142c5908263ffffffff6128cc16565b600f55506001600160a01b03166000908152600e6020526040812060020155565b826001600160a01b03166338d995a8836040518263ffffffff1660e01b815260040180828152602001915050600060405180830381600087803b15801561432c57600080fd5b505af1158015614340573d6000803e3d6000fd5b50505050836001600160a01b031663cfb9329a836040518263ffffffff1660e01b815260040180828152602001915050600060405180830381600087803b15801561438a57600080fd5b505af115801561439e573d6000803e3d6000fd5b50505050826001600160a01b031663be41205f826040518263ffffffff1660e01b815260040180828152602001915050600060405180830381600087803b15801561312557600080fd5b600081848411156144775760405162461bcd60e51b81526004018080602001828103825283818151815260200191508051906020019080838360005b8381101561443c578181015183820152602001614424565b50505050905090810190601f1680156144695780820380516001836020036101000a031916815260200191505b509250505060405180910390fd5b505050900390565b60008060115460001415614494575081610c04565b6000601054116144a057fe5b61290e6011546112296010548661321b90919063ffffffff16565b6144c3615011565b6144cb615140565b6015546001106144db575061405c565b6144e487611dfd565b6040850190815260208581019283528601929092529184529051905161450e918b918b91906142e6565b61451b8260200151614ea0565b604083018190526802b5e3af16b1880000606084015260208301516145459163ffffffff6128cc16565b8152670de0b6b3a764000086116145df5761455f87614296565b60006080830181905260a0830152815160c0830152805160e0830152614584876141ac565b866001600160a01b0316600080516020615162833981519152836000015184602001516002604051808481526020018381526020018260038111156145c557fe5b60ff168152602001935050505060405180910390a2614760565b670de0b6b3a7640000861180156145fd5750670f43fc2c04ee000086105b156146375761460b87614296565b8151815161461a919087614ea7565b60e086015260c085015260a08401526080830152614584876141ac565b670f43fc2c04ee0000861015801561464e57508386105b801561465b575081518510155b1561474f578461466757fe5b61467087614296565b6146838260000151836020015185614f13565b915061468e876141ac565b6101008201511561470e5760075461010083015160408051633f10abab60e01b81526001600160a01b038b81166004830152602482019390935290519190921691633f10abab91604480830192600092919082900301818387803b1580156146f557600080fd5b505af1158015614709573d6000803e3d6000fd5b505050505b866001600160a01b031660008051602061516283398151915283600001518460a001516002604051808481526020018381526020018260038111156145c557fe5b614757615011565b915061405c9050565b50979650505050505050565b614774615011565b6040808301519084015161478d9163ffffffff61314316565b6040820152606080830151908401516147ab9163ffffffff61314316565b6060820152815160208401516147c69163ffffffff61314316565b60208083019190915282015183516147e39163ffffffff61314316565b8152608080830151908401516147fe9163ffffffff61314316565b608082015260a0808301519084015161481c9163ffffffff61314316565b60a082015260c0808301519084015161483a9163ffffffff61314316565b60c082015260e080830151908401516148589163ffffffff61314316565b60e082015261010080830151908401516148779163ffffffff61314316565b61010082015292915050565b600080614891858585614266565b6714d1120d7b1600001195945050505050565b6148ac615011565b6148b4615140565b6148bd84611dfd565b604085019081526020858101928352860192909252918452905190516148e79188918891906142e6565b6148f084614296565b6148fd8260200151614ea0565b604083018190526802b5e3af16b18800006060840152602083015160009161492b919063ffffffff6128cc16565b905061493c83600001518286614ea7565b60e087015260c086015260a08501526080840152614959856141ac565b846001600160a01b03166000805160206151628339815191528460000151856020015160016040518084815260200183815260200182600381111561499a57fe5b60ff168152602001935050505060405180910390a25050949350505050565b60008183614a085760405162461bcd60e51b815260206004820181815283516024840152835190928392604490910191908501908083836000831561443c578181015183820152602001614424565b506000838581614a1457fe5b0495945050505050565b600061109d603c611229600d54426128cc90919063ffffffff16565b6000631f540500821115614a5057631f54050091505b81614a645750670de0b6b3a7640000610c04565b670de0b6b3a764000083835b6001811115614adb5760028106614aa557614a8b8283614fad565b9150614a9e81600263ffffffff61327416565b9050614ad6565b614aaf8284614fad565b9250614abb8283614fad565b9150614ad3600261122983600163ffffffff6128cc16565b90505b614a70565b6112358284614fad565b6040808501516006548251632770a7eb60e21b81526001600160a01b039182166004820152602481018690529251911691639dc29fac91604480830192600092919082900301818387803b158015614b3c57600080fd5b505af1158015614b50573d6000803e3d6000fd5b5050505083600001516001600160a01b03166338d995a8836040518263ffffffff1660e01b815260040180828152602001915050600060405180830381600087803b158015614b9e57600080fd5b505af1158015614bb2573d6000803e3d6000fd5b505050508360a001516001600160a01b0316633f10abab84836040518363ffffffff1660e01b815260040180836001600160a01b03166001600160a01b0316815260200182815260200192505050600060405180830381600087803b158015614c1a57600080fd5b505af1158015614c2e573d6000803e3d6000fd5b5050505083600001516001600160a01b03166364a197f38560a00151836040518363ffffffff1660e01b815260040180836001600160a01b03166001600160a01b0316815260200182815260200192505050600060405180830381600087803b15801561312557600080fd5b600181118015614d185750600b546040805163de8fa43160e01b815290516001926001600160a01b03169163de8fa431916004808301926020929190829003018186803b158015614cea57600080fd5b505afa158015614cfe573d6000803e3d6000fd5b505050506040513d6020811015614d1457600080fd5b5051115b610baf5760405162461bcd60e51b815260040180806020018281038252602a8152602001806151ab602a913960400191505060405180910390fd5b60026001600160a01b0383166000908152600e602052604090206003015460ff166002811115614d7f57fe5b14614d8657fe5b6001600160a01b0382166000908152600e602052604081206003015461010090046001600160801b0316908290614dbe8260016128cc565b905080836001600160801b03161115614dd357fe5b600060158281548110614de257fe5b600091825260209091200154601580546001600160a01b03909216925082916001600160801b038716908110614e1457fe5b600091825260208083209190910180546001600160a01b0319166001600160a01b039485161790559183168152600e909152604090206003018054610100600160881b0319166101006001600160801b038716021790556015805480614e7657fe5b600082815260209020810160001990810180546001600160a01b0319169055019055505050505050565b60c8900490565b60008080808415614efd57614ebc878661319d565b9350614ed287611229888763ffffffff61321b16565b9250614ee4878563ffffffff6128cc16565b9150614ef6868463ffffffff6128cc16565b9050614f0a565b5060009250829150859050845b93509350935093565b614f1b615011565b838152602081018390526000614f438361122987670f43fc2c04ee000063ffffffff61321b16565b9050614f4e81614ea0565b604083018190526802b5e3af16b1880000606084015260808301869052614f7c90829063ffffffff6128cc16565b60a0830152614f91848263ffffffff6128cc16565b61010083015250600060c0820181905260e08201529392505050565b600080614fc0848463ffffffff61321b16565b90506139e9670de0b6b3a7640000611229836706f05b59d3b20000613143565b6040518060a00160405280600081526020016000815260200160001515815260200160008152602001600081525090565b6040518061012001604052806000815260200160008152602001600081526020016000815260200160008152602001600081526020016000815260200160008152602001600081525090565b6040805160e081018252600080825260208201819052918101829052606081018290526080810182905260a0810182905260c081019190915290565b60405180610100016040528060008152602001600081526020016000815260200160008152602001600081526020016000815260200160008152602001600081525090565b604051806040016040528060008152602001600081525090565b6040518060e0016040528060008152602001600081526020016000815260200160006001600160a01b0316815260200160001515815260200160008152602001600081525090565b6040518060600160405280600081526020016000815260200160008152509056feea67486ed7ebe3eea8ab3390efd4a3c8aae48be5bea27df104a8af786c40843454726f76654d616e616765723a20556e61626c6520746f2072656465656d20616e7920616d6f756e7454726f76654d616e616765723a204f6e6c79206f6e652074726f766520696e207468652073797374656d54726f76654d616e616765723a20526564656d7074696f6e7320617265206e6f7420616c6c6f77656420647572696e6720626f6f747374726170207068617365536166654d6174683a206d756c7469706c69636174696f6e206f766572666c6f7754726f76654d616e616765723a2052657175657374656420726564656d7074696f6e20616d6f756e74206d757374206265203c3d20757365722773204c55534420746f6b656e2062616c616e6365c3770d654ed33aeea6bf11ac8ef05d02a6a04ed4686dd2f624d853bbec43cc8b54726f76654d616e616765723a2043616c6c6572206973206e6f742074686520426f72726f7765724f7065726174696f6e7320636f6e747261637454726f76654d616e616765723a2043616c6c646174612061646472657373206172726179206d757374206e6f7420626520656d70747954726f76654d616e616765723a20416d6f756e74206d7573742062652067726561746572207468616e207a65726f54726f76654d616e616765723a2046656520776f756c642065617420757020616c6c2072657475726e656420636f6c6c61746572616c4d6178206665652070657263656e74616765206d757374206265206265747765656e20302e352520616e64203130302554726f76654d616e616765723a2043616e6e6f742072656465656d207768656e20544352203c204d435254726f76654d616e616765723a206e6f7468696e6720746f206c697175696461746554726f76654d616e616765723a2054726f766520646f6573206e6f74206578697374206f7220697320636c6f736564a26469706673582212202445fed45be69270f7434ebdd33f529aa7cc52ad3fbe9da4530c1b5d192a2a0364736f6c634300060b0033608060405234801561001057600080fd5b50600380546001600160a01b031916339081179091556040516000907f8be0079c531659141344cd1fd0a4f28419497f9722a3daafe3b4186f6b6457e0908290a36134b5806100606000396000f3fe6080604052600436106101825760003560e01c8063741bef1a116100d75780638da5cb5b116100855780638da5cb5b146104b65780638f32d59b146104cb578063a20baee6146103e9578063a3a64017146104f4578063ae91875414610509578063b83f91a21461051e578063c6a6cf2014610533578063ea9638bf1461057b57610182565b8063741bef1a146103fe578063761ab22c14610413578063794e572414610428578063795d26c31461043d5780637f7dde4a14610452578063860665b314610467578063887105d3146104a157610182565b80634ff81443116101345780634ff81443146102a85780635530273c146102d25780635733d58f1461031357806368647db1146103285780636c37a4af146103565780636f0b0c1c146103d457806372fe25aa146103e957610182565b806304491fa7146101875780630e704d50146101ca5780631184e5f8146101df5780632e86bbd8146102265780633cc742251461024d5780633d83908a1461027e5780634870dd9a14610293575b600080fd5b34801561019357600080fd5b506101c8600480360360608110156101aa57600080fd5b508035906001600160a01b03602082013581169160400135166105b3565b005b3480156101d657600080fd5b506101c86105ca565b3480156101eb57600080fd5b506101c86004803603608081101561020257600080fd5b508035906020810135906001600160a01b03604082013581169160600135166109a8565b34801561023257600080fd5b5061023b6109bf565b60408051918252519081900360200190f35b34801561025957600080fd5b506102626109cc565b604080516001600160a01b039092168252519081900360200190f35b34801561028a57600080fd5b506102626109db565b34801561029f57600080fd5b5061023b6109ea565b3480156102b457600080fd5b5061023b600480360360208110156102cb57600080fd5b50356109ef565b3480156102de57600080fd5b506101c8600480360360608110156102f557600080fd5b508035906001600160a01b0360208201358116916040013516610a00565b34801561031f57600080fd5b5061023b610a11565b6101c86004803603604081101561033e57600080fd5b506001600160a01b0381358116916020013516610a1d565b34801561036257600080fd5b506101c8600480360361014081101561037a57600080fd5b506001600160a01b038135811691602081013582169160408201358116916060810135821691608082013581169160a081013582169160c082013581169160e0810135821691610100820135811691610120013516610a33565b3480156103e057600080fd5b506101c8610dd8565b3480156103f557600080fd5b5061023b610e38565b34801561040a57600080fd5b50610262610e44565b34801561041f57600080fd5b50610262610e53565b34801561043457600080fd5b5061023b610e62565b34801561044957600080fd5b5061023b610e6e565b34801561045e57600080fd5b50610262610f6f565b6101c86004803603608081101561047d57600080fd5b508035906020810135906001600160a01b0360408201358116916060013516610f7e565b3480156104ad57600080fd5b5061023b6115bf565b3480156104c257600080fd5b5061026261167b565b3480156104d757600080fd5b506104e061168a565b604080519115158252519081900360200190f35b34801561050057600080fd5b5061026261169b565b34801561051557600080fd5b506102626116aa565b34801561052a57600080fd5b506102626116b9565b6101c8600480360360c081101561054957600080fd5b5080359060208101359060408101359060608101351515906001600160a01b03608082013581169160a00135166116c8565b6101c86004803603606081101561059157600080fd5b506001600160a01b0381358116916020810135821691604090910135166116df565b6105c5336000856000868660006116f5565b505050565b600454600054600a546001600160a01b039283169291821691166105ee8333611d28565b60025460408051630fdb11cf60e01b815290516000926001600160a01b031691630fdb11cf91600480830192602092919082900301818787803b15801561063457600080fd5b505af1158015610648573d6000803e3d6000fd5b505050506040513d602081101561065e57600080fd5b5051905061066b81611ded565b60408051630b07655760e01b815233600482015290516001600160a01b03861691630b07655791602480830192600092919082900301818387803b1580156106b257600080fd5b505af11580156106c6573d6000803e3d6000fd5b5050604080516309019aaf60e31b81523360048201529051600093506001600160a01b038816925063480cd57891602480820192602092909190829003018186803b15801561071457600080fd5b505afa158015610728573d6000803e3d6000fd5b505050506040513d602081101561073e57600080fd5b50516040805163d66a255360e01b815233600482015290519192506000916001600160a01b0388169163d66a2553916024808301926020929190829003018186803b15801561078c57600080fd5b505afa1580156107a0573d6000803e3d6000fd5b505050506040513d60208110156107b657600080fd5b505190506107dd84336107d8846802b5e3af16b188000063ffffffff611e3516565b611e7e565b60408051631fc5750960e31b815233600482015290516001600160a01b0388169163fe2ba84891602480830192600092919082900301818387803b15801561082457600080fd5b505af1158015610838573d6000803e3d6000fd5b5050604080516365e89c5760e11b815233600482015290516001600160a01b038a16935063cbd138ae9250602480830192600092919082900301818387803b15801561088357600080fd5b505af1158015610897573d6000803e3d6000fd5b50505050336001600160a01b03166000805160206132c683398151915260008060006001604051808581526020018481526020018381526020018260068111156108dd57fe5b60ff16815260200194505050505060405180910390a2610917858533610912856802b5e3af16b188000063ffffffff611e3516565b611f3e565b60065461093a90869086906001600160a01b03166802b5e3af16b1880000611f3e565b604080516364a197f360e01b81523360048201526024810184905290516001600160a01b038716916364a197f391604480830192600092919082900301818387803b15801561098857600080fd5b505af115801561099c573d6000803e3d6000fd5b50505050505050505050565b6109b933600085600186868a6116f5565b50505050565b6802b5e3af16b188000081565b6001546001600160a01b031681565b6004546001600160a01b031681565b60c881565b60006109fa8261201a565b92915050565b6105c53384600080868660006116f5565b6714d1120d7b16000081565b610a2f336000806000868660006116f5565b5050565b610a3b61168a565b610a8c576040805162461bcd60e51b815260206004820181905260248201527f4f776e61626c653a2063616c6c6572206973206e6f7420746865206f776e6572604482015290519081900360640190fd5b610a958a612035565b610a9e89612035565b610aa788612035565b610ab087612035565b610ab986612035565b610ac285612035565b610acb84612035565b610ad483612035565b610add82612035565b610ae681612035565b600480546001600160a01b03199081166001600160a01b038d81169182179093556000805483168d85161790556001805483168c85161790556005805483168b85161790556006805483168a8516179055600780548316898516179055600280548316888516179055600b80548316878516179055600a80548316868516179055600980548316938516938417905560088054909216909217905560408051918252517f143219c9e69b09e07e095fcc889b43d8f46ca892bba65f08dc3a0050869a5678916020908290030190a1604080516001600160a01b038b16815290517f78f058b189175430c48dc02699e3a0031ea4ff781536dc2fab847de4babdd8829181900360200190a1604080516001600160a01b038a16815290517f5ee0cae2f063ed938bb55046f6a932fb6ae792bf43624806bb90abe68a50be9b9181900360200190a1604080516001600160a01b038916815290517f82966d27eea39b038ee0fa30cd16532bb24f6e65d31cb58fb227aa5766cdcc7f9181900360200190a1604080516001600160a01b038816815290517fcfb07d791fcafc032b35837b50eb84b74df518cf4cc287e8084f47630fa70fa09181900360200190a1604080516001600160a01b038716815290517fe67f36a6e961157d6eff83b91f3af5a62131ceb6f04954ef74f51c1c05e7f88d9181900360200190a1604080516001600160a01b038616815290517f8c537274438aa850a330284665d81a85dd38267d09e4050d416bfc94142db2649181900360200190a1604080516001600160a01b038516815290517f65f4cf077bc01e4742eb5ad98326f6e95b63548ea24b17f8d5e823111fe788009181900360200190a1604080516001600160a01b038416815290517f227eec0ec317af6ab1a9587ffa1c84332522eb4c583a908f89babc05f8f339bd9181900360200190a1604080516001600160a01b038316815290517f756ebc192164c295bba134b5aacd72cc7aff8098a670d1f0a5f6b3a0b4ce67079181900360200190a161099c6120e4565b6007546040805163b32beb5b60e01b815233600482015290516001600160a01b039092169163b32beb5b9160248082019260009290919082900301818387803b158015610e2457600080fd5b505af11580156109b9573d6000803e3d6000fd5b670de0b6b3a764000081565b6002546001600160a01b031681565b6009546001600160a01b031681565b670f43fc2c04ee000081565b6000805460408051632f5a97e560e11b8152905183926001600160a01b031691635eb52fca916004808301926020929190829003018186803b158015610eb357600080fd5b505afa158015610ec7573d6000803e3d6000fd5b505050506040513d6020811015610edd57600080fd5b505160015460408051632f5a97e560e11b815290519293506000926001600160a01b0390921691635eb52fca91600480820192602092909190829003018186803b158015610f2a57600080fd5b505afa158015610f3e573d6000803e3d6000fd5b505050506040513d6020811015610f5457600080fd5b50519050610f68828263ffffffff61212e16565b9250505090565b6000546001600160a01b031681565b610f86613013565b50604080516060810182526004546001600160a01b03908116825260005481166020830152600a541691810191909152610fbe613033565b8415610fcd57610fcd86612188565b8151610fd990336121e2565b600260009054906101000a90046001600160a01b03166001600160a01b0316630fdb11cf6040518163ffffffff1660e01b8152600401602060405180830381600087803b15801561102957600080fd5b505af115801561103d573d6000803e3d6000fd5b505050506040513d602081101561105357600080fd5b50518082526040820186905260009061106b906122be565b90508015801561107b5750600086115b156110b55761109483600001518460400151888a6122db565b6020830181905260408301516110af9163ffffffff61212e16565b60408301525b6110c2826040015161201a565b606083018190526110cf57fe5b6110e2348360600151846000015161248b565b608083015260608201516110f79034906124c9565b60a083015280156111145761110f82608001516124fe565b611147565b6111218260800151612545565b600061113a34600185606001516001876000015161258c565b905061114581612617565b505b825160408051635d6b480f60e01b81523360048201526001602482015290516001600160a01b0390921691635d6b480f9160448082019260009290919082900301818387803b15801561119957600080fd5b505af11580156111ad573d6000803e3d6000fd5b50508451604080516372423c1760e01b815233600482015234602482015290516001600160a01b0390921693506372423c1792506044808201926020929091908290030181600087803b15801561120357600080fd5b505af1158015611217573d6000803e3d6000fd5b505050506040513d602081101561122d57600080fd5b50508251606083015160408051639976cf4560e01b81523360048201526024810192909252516001600160a01b0390921691639976cf45916044808201926020929091908290030181600087803b15801561128757600080fd5b505af115801561129b573d6000803e3d6000fd5b505050506040513d60208110156112b157600080fd5b50508251604080516382fe3eb960e01b815233600482015290516001600160a01b03909216916382fe3eb99160248082019260009290919082900301818387803b1580156112fe57600080fd5b505af1158015611312573d6000803e3d6000fd5b5050845160408051630c7940bd60e11b815233600482015290516001600160a01b0390921693506318f2817a92506024808201926020929091908290030181600087803b15801561136257600080fd5b505af1158015611376573d6000803e3d6000fd5b505050506040513d602081101561138c57600080fd5b505160c0830152600b5460a0830151604080516346f7cf8760e01b815233600482015260248101929092526001600160a01b038881166044840152878116606484015290519216916346f7cf879160848082019260009290919082900301818387803b1580156113fb57600080fd5b505af115801561140f573d6000803e3d6000fd5b50508451604080516315d549f160e01b815233600482015290516001600160a01b0390921693506315d549f192506024808201926020929091908290030181600087803b15801561145f57600080fd5b505af1158015611473573d6000803e3d6000fd5b505050506040513d602081101561148957600080fd5b505160e08301819052604080519182525133917f59cfd0cd754bc5748b6770e94a4ffa5f678d885cb899dcfadc5734edb97c67ab919081900360200190a26114d583602001513461265e565b85156114f4576114f483602001518460400151338986604001516126ee565b602083015160408401516006546115209291906001600160a01b03166802b5e3af16b1880000806126ee565b336001600160a01b03166000805160206132c68339815191528360600151348560c0015160006040518085815260200184815260200183815260200182600681111561156857fe5b60ff16815260200194505050505060405180910390a2602080830151604080519182525133927fa55c5f48fd29482ad55f4b59bf070cd1ac1a7132a31f7a136ebe8877ae37e1ff928290030190a250505050505050565b6000805460408051630a7b61df60e11b8152905183926001600160a01b0316916314f6c3be916004808301926020929190829003018186803b15801561160457600080fd5b505afa158015611618573d6000803e3d6000fd5b505050506040513d602081101561162e57600080fd5b505160015460408051630a7b61df60e11b815290519293506000926001600160a01b03909216916314f6c3be91600480820192602092909190829003018186803b158015610f2a57600080fd5b6003546001600160a01b031690565b6003546001600160a01b0316331490565b6008546001600160a01b031681565b600b546001600160a01b031681565b600a546001600160a01b031681565b6116d73386868686868c6116f5565b505050505050565b6116e76127cb565b6105c5836000806000868660005b6116fd613013565b50604080516060810182526004546001600160a01b03908116825260005481166020830152600a541691810191909152841561173c5761173c82612188565b61174587612816565b61174f878761285c565b805161175b9089611d28565b6000871515806117685750855b9050801561177957611779896128ae565b611781613078565b600260009054906101000a90046001600160a01b03166001600160a01b0316630fdb11cf6040518163ffffffff1660e01b8152600401602060405180830381600087803b1580156117d157600080fd5b505af11580156117e5573d6000803e3d6000fd5b505050506040513d60208110156117fb57600080fd5b505180825260009061180c906122be565b905083600001516001600160a01b0316630b0765578c6040518263ffffffff1660e01b815260040180826001600160a01b03166001600160a01b03168152602001915050600060405180830381600087803b15801561186a57600080fd5b505af115801561187e573d6000803e3d6000fd5b5050505061188c348b6128f5565b1515606084015260208301526040820189905287156118e9576118ae89612914565b806118e9576118c7846000015185604001518b886122db565b610100830181905260408301516118e39163ffffffff61212e16565b60408301525b83600001516001600160a01b031663d66a25538c6040518263ffffffff1660e01b815260040180826001600160a01b03166001600160a01b0316815260200191505060206040518083038186803b15801561194357600080fd5b505afa158015611957573d6000803e3d6000fd5b505050506040513d602081101561196d57600080fd5b505160808301528351604080516309019aaf60e31b81526001600160a01b038e811660048301529151919092169163480cd578916024808301926020929190829003018186803b1580156119c057600080fd5b505afa1580156119d4573d6000803e3d6000fd5b505050506040513d60208110156119ea57600080fd5b505160a0830181905260808301518351611a0592919061248b565b8260c0018181525050611a358260a0015183608001518460200151856060015186604001518d8860000151612953565b60e08301528215611a85578160a001518a1115611a4e57fe5b6000611a6d8360200151846060015185604001518c876000015161258c565b9050611a83828460c001518560e0015184612986565b505b87158015611a935750600089115b15611abd57611aaa826080015183604001516129ac565b611abd84604001518c8460400151611e7e565b611adb84600001518c8460200151856060015186604001518d612a03565b610120840152610140830152835160408051630c7940bd60e11b81526001600160a01b038e81166004830152915191909216916318f2817a9160248083019260209291908290030181600087803b158015611b3557600080fd5b505af1158015611b49573d6000803e3d6000fd5b505050506040513d6020811015611b5f57600080fd5b505161016083015260a08201516080830151602084015160608501516040860151600094611b93949093909290918e612c63565b9050600b60009054906101000a90046001600160a01b03166001600160a01b0316632be212608d838b8b6040518563ffffffff1660e01b815260040180856001600160a01b03166001600160a01b03168152602001848152602001836001600160a01b03166001600160a01b03168152602001826001600160a01b03166001600160a01b03168152602001945050505050600060405180830381600087803b158015611c3e57600080fd5b505af1158015611c52573d6000803e3d6000fd5b505050508b6001600160a01b03166000805160206132c6833981519152846101200151856101400151866101600151600660405180858152602001848152602001838152602001826006811115611ca557fe5b60ff16815260200194505050505060405180910390a2610100830151604080519182525133917fa55c5f48fd29482ad55f4b59bf070cd1ac1a7132a31f7a136ebe8877ae37e1ff919081900360200190a2611d1a8560200151866040015133866020015187606001518f8f8a60400151612c94565b505050505050505050505050565b6000826001600160a01b03166321e37801836040518263ffffffff1660e01b815260040180826001600160a01b03166001600160a01b0316815260200191505060206040518083038186803b158015611d8057600080fd5b505afa158015611d94573d6000803e3d6000fd5b505050506040513d6020811015611daa57600080fd5b50519050600181146105c55760405162461bcd60e51b815260040180806020018281038252602e815260200180613298602e913960400191505060405180910390fd5b611df6816122be565b15611e325760405162461bcd60e51b81526004018080602001828103825260398152602001806131af6039913960400191505060405180910390fd5b50565b6000611e7783836040518060400160405280601e81526020017f536166654d6174683a207375627472616374696f6e206f766572666c6f770000815250612d41565b9392505050565b80836001600160a01b03166370a08231846040518263ffffffff1660e01b815260040180826001600160a01b03166001600160a01b0316815260200191505060206040518083038186803b158015611ed557600080fd5b505afa158015611ee9573d6000803e3d6000fd5b505050506040513d6020811015611eff57600080fd5b505110156105c55760405162461bcd60e51b81526004018080602001828103825260408152602001806132e66040913960400191505060405180910390fd5b836001600160a01b03166338d995a8826040518263ffffffff1660e01b815260040180828152602001915050600060405180830381600087803b158015611f8457600080fd5b505af1158015611f98573d6000803e3d6000fd5b50505050826001600160a01b0316639dc29fac83836040518363ffffffff1660e01b815260040180836001600160a01b03166001600160a01b0316815260200182815260200192505050600060405180830381600087803b158015611ffc57600080fd5b505af1158015612010573d6000803e3d6000fd5b5050505050505050565b60006109fa826802b5e3af16b188000063ffffffff61212e16565b6001600160a01b038116612090576040805162461bcd60e51b815260206004820152601e60248201527f4163636f756e742063616e6e6f74206265207a65726f20616464726573730000604482015290519081900360640190fd5b803b80610a2f576040805162461bcd60e51b815260206004820181905260248201527f4163636f756e7420636f64652073697a652063616e6e6f74206265207a65726f604482015290519081900360640190fd5b6003546040516000916001600160a01b0316907f8be0079c531659141344cd1fd0a4f28419497f9722a3daafe3b4186f6b6457e0908390a3600380546001600160a01b0319169055565b600082820183811015611e77576040805162461bcd60e51b815260206004820152601b60248201527f536166654d6174683a206164646974696f6e206f766572666c6f770000000000604482015290519081900360640190fd5b6611c37937e0800081101580156121a75750670de0b6b3a76400008111155b611e325760405162461bcd60e51b81526004018080602001828103825260308152602001806133db6030913960400191505060405180910390fd5b6000826001600160a01b03166321e37801836040518263ffffffff1660e01b815260040180826001600160a01b03166001600160a01b0316815260200191505060206040518083038186803b15801561223a57600080fd5b505afa15801561224e573d6000803e3d6000fd5b505050506040513d602081101561226457600080fd5b5051905060018114156105c5576040805162461bcd60e51b815260206004820152601c60248201527f426f72726f7765724f70733a2054726f76652069732061637469766500000000604482015290519081900360640190fd5b6000806122ca83612dd8565b6714d1120d7b160000119392505050565b6000846001600160a01b0316635dba4c4a6040518163ffffffff1660e01b8152600401600060405180830381600087803b15801561231857600080fd5b505af115801561232c573d6000803e3d6000fd5b505050506000856001600160a01b031663631203b0856040518263ffffffff1660e01b81526004018082815260200191505060206040518083038186803b15801561237657600080fd5b505afa15801561238a573d6000803e3d6000fd5b505050506040513d60208110156123a057600080fd5b505190506123af818585612e04565b60085460408051634677ffb360e01b81526004810184905290516001600160a01b0390921691634677ffb39160248082019260009290919082900301818387803b1580156123fc57600080fd5b505af1158015612410573d6000803e3d6000fd5b5050600954604080516340c10f1960e01b81526001600160a01b03928316600482015260248101869052905191891693506340c10f19925060448082019260009290919082900301818387803b15801561246957600080fd5b505af115801561247d573d6000803e3d6000fd5b509298975050505050505050565b600082156124be5760006124b5846124a9878663ffffffff612e7916565b9063ffffffff612ed216565b9150611e779050565b506000199392505050565b600081156124f5576124ee826124a98568056bc75e2d6310000063ffffffff612e7916565b90506109fa565b506000196109fa565b6714d1120d7b160000811015611e325760405162461bcd60e51b815260040180806020018281038252603d8152602001806130dc603d913960400191505060405180910390fd5b670f43fc2c04ee0000811015611e325760405162461bcd60e51b81526004018080602001828103825260498152602001806133266049913960600191505060405180910390fd5b6000806125976115bf565b905060006125a3610e6e565b9050866125bf576125ba828963ffffffff611e3516565b6125cf565b6125cf828963ffffffff61212e16565b9150846125eb576125e6818763ffffffff611e3516565b6125fb565b6125fb818763ffffffff61212e16565b9050600061260a83838761248b565b9998505050505050505050565b6714d1120d7b160000811015611e325760405162461bcd60e51b815260040180806020018281038252604981526020018061324f6049913960600191505060405180910390fd5b6040516000906001600160a01b0384169083908381818185875af1925050503d80600081146126a9576040519150601f19603f3d011682016040523d82523d6000602084013e6126ae565b606091505b50509050806105c55760405162461bcd60e51b815260040180806020018281038252602d815260200180613119602d913960400191505060405180910390fd5b846001600160a01b031663cfb9329a826040518263ffffffff1660e01b815260040180828152602001915050600060405180830381600087803b15801561273457600080fd5b505af1158015612748573d6000803e3d6000fd5b50505050836001600160a01b03166340c10f1984846040518363ffffffff1660e01b815260040180836001600160a01b03166001600160a01b0316815260200182815260200192505050600060405180830381600087803b1580156127ac57600080fd5b505af11580156127c0573d6000803e3d6000fd5b505050505050505050565b6005546001600160a01b031633146128145760405162461bcd60e51b81526004018080602001828103825260298152602001806133b26029913960400191505060405180910390fd5b565b341580612821575080155b611e325760405162461bcd60e51b815260040180806020018281038252603081526020018061317f6030913960400191505060405180910390fd5b3415158061286957508115155b8061287357508015155b610a2f5760405162461bcd60e51b81526004018080602001828103825260468152602001806131e86046913960600191505060405180910390fd5b336001600160a01b03821614611e325760405162461bcd60e51b81526004018080602001828103825260398152602001806131466039913960400191505060405180910390fd5b60008083156129095750829050600161290d565b8291505b9250929050565b60008111611e325760405162461bcd60e51b815260040180806020018281038252603781526020018061340b6037913960400191505060405180910390fd5b60008060006129668a8a8a8a8a8a612f14565b91509150600061297783838761248b565b9b9a5050505050505050505050565b61298f82612545565b836129a25761299d81612617565b6109b9565b6109b98284612f6f565b6129c5826802b5e3af16b188000063ffffffff611e3516565b811115610a2f5760405162461bcd60e51b815260040180806020018281038252604381526020018061336f6043913960600191505060405180910390fd5b600080600085612a9e57886001600160a01b031663d3d6f84389896040518363ffffffff1660e01b815260040180836001600160a01b03166001600160a01b0316815260200182815260200192505050602060405180830381600087803b158015612a6d57600080fd5b505af1158015612a81573d6000803e3d6000fd5b505050506040513d6020811015612a9757600080fd5b5051612b2b565b886001600160a01b03166372423c1789896040518363ffffffff1660e01b815260040180836001600160a01b03166001600160a01b0316815260200182815260200192505050602060405180830381600087803b158015612afe57600080fd5b505af1158015612b12573d6000803e3d6000fd5b505050506040513d6020811015612b2857600080fd5b50515b9050600084612bc557896001600160a01b03166312610e928a886040518363ffffffff1660e01b815260040180836001600160a01b03166001600160a01b0316815260200182815260200192505050602060405180830381600087803b158015612b9457600080fd5b505af1158015612ba8573d6000803e3d6000fd5b505050506040513d6020811015612bbe57600080fd5b5051612c52565b896001600160a01b0316639976cf458a886040518363ffffffff1660e01b815260040180836001600160a01b03166001600160a01b0316815260200182815260200192505050602060405180830381600087803b158015612c2557600080fd5b505af1158015612c39573d6000803e3d6000fd5b505050506040513d6020811015612c4f57600080fd5b50515b919a91995090975050505050505050565b6000806000612c76898989898989612f14565b915091506000612c8683836124c9565b9a9950505050505050505050565b8115612cac57612ca788888886856126ee565b612cb8565b612cb888888886611f3e565b8315612ccd57612cc8888661265e565b612010565b876001600160a01b03166364a197f387876040518363ffffffff1660e01b815260040180836001600160a01b03166001600160a01b0316815260200182815260200192505050600060405180830381600087803b158015612d2d57600080fd5b505af1158015611d1a573d6000803e3d6000fd5b60008184841115612dd05760405162461bcd60e51b81526004018080602001828103825283818151815260200191508051906020019080838360005b83811015612d95578181015183820152602001612d7d565b50505050905090810190601f168015612dc25780820380516001836020036101000a031916815260200191505b509250505060405180910390fd5b505050900390565b600080612de36115bf565b90506000612def610e6e565b9050612dfc82828661248b565b949350505050565b6000612e22836124a986670de0b6b3a764000063ffffffff612e7916565b9050818111156109b9576040805162461bcd60e51b815260206004820152601d60248201527f4665652065786365656465642070726f7669646564206d6178696d756d000000604482015290519081900360640190fd5b600082612e88575060006109fa565b82820282848281612e9557fe5b0414611e775760405162461bcd60e51b815260040180806020018281038252602181526020018061322e6021913960400191505060405180910390fd5b6000611e7783836040518060400160405280601a81526020017f536166654d6174683a206469766973696f6e206279207a65726f000000000000815250612fae565b600080878786612f3357612f2e8a8963ffffffff611e3516565b612f43565b612f438a8963ffffffff61212e16565b915084612f5f57612f5a898763ffffffff611e3516565b612c52565b612c52898763ffffffff61212e16565b80821015610a2f5760405162461bcd60e51b815260040180806020018281038252603e815260200180613442603e913960400191505060405180910390fd5b60008183612ffd5760405162461bcd60e51b8152602060048201818152835160248401528351909283926044909101919085019080838360008315612d95578181015183820152602001612d7d565b50600083858161300957fe5b0495945050505050565b604080516060810182526000808252602082018190529181019190915290565b60405180610100016040528060008152602001600081526020016000815260200160008152602001600081526020016000815260200160008152602001600081525090565b6040518061018001604052806000815260200160008152602001600081526020016000151581526020016000815260200160008152602001600081526020016000815260200160008152602001600081526020016000815260200160008152509056fe426f72726f7765724f70733a20496e205265636f76657279204d6f6465206e65772074726f766573206d757374206861766520494352203e3d20434352426f72726f7765724f70733a2053656e64696e672045544820746f20416374697665506f6f6c206661696c6564426f72726f7765724f70733a2043616c6c6572206d7573742062652074686520626f72726f77657220666f722061207769746864726177616c426f72726f7765724f7065726174696f6e733a2043616e6e6f7420776974686472617720616e642061646420636f6c6c426f72726f7765724f70733a204f7065726174696f6e206e6f74207065726d697474656420647572696e67205265636f76657279204d6f6465426f72726f7765724f70733a205468657265206d75737420626520656974686572206120636f6c6c61746572616c206368616e6765206f7220612064656274206368616e6765536166654d6174683a206d756c7469706c69636174696f6e206f766572666c6f77426f72726f7765724f70733a20416e206f7065726174696f6e207468617420776f756c6420726573756c7420696e20544352203c20434352206973206e6f74207065726d6974746564426f72726f7765724f70733a2054726f766520646f6573206e6f74206578697374206f7220697320636c6f736564c3770d654ed33aeea6bf11ac8ef05d02a6a04ed4686dd2f624d853bbec43cc8b426f72726f7765724f70733a2043616c6c657220646f65736e74206861766520656e6f756768204c55534420746f20636c6f73652074686569722074726f7665426f72726f7765724f70733a20416e206f7065726174696f6e207468617420776f756c6420726573756c7420696e20494352203c204d4352206973206e6f74207065726d6974746564426f72726f7765724f70733a20416d6f756e7420726570616964206d757374206e6f74206265206c6172676572207468616e207468652054726f766527732064656274426f72726f7765724f70733a2043616c6c6572206973206e6f742053746162696c69747920506f6f6c4d6178206665652070657263656e74616765206d757374206265206265747765656e20302e352520616e642031303025426f72726f7765724f70733a204465627420696e637265617365207265717569726573206e6f6e2d7a65726f20646562744368616e6765426f72726f7765724f70733a2043616e6e6f7420646563726561736520796f75722054726f766527732049435220696e205265636f76657279204d6f6465a2646970667358221220a7e76632b01a99b11aa79c67762d76601f4164c363a4f66d0cd4b3861aae3bb864736f6c634300060b0033608060405234801561001057600080fd5b50600080546001600160a01b0319163390811782556040519091907f8be0079c531659141344cd1fd0a4f28419497f9722a3daafe3b4186f6b6457e0908290a3610a668061005f6000396000f3fe6080604052600436106100ab5760003560e01c806364a197f31161006457806364a197f3146101ce5780638da5cb5b146102075780638f32d59b1461021c578063aac1846f14610245578063b7f8cf9b1461025a578063cfb9329a1461026f576100d0565b80630b622ab2146100d557806314f6c3be1461010657806338d995a81461012d5780634a945f8d146101595780635a4d28bb146101a45780635eb52fca146101b9576100d0565b366100d0576100b8610299565b6005546100cb903463ffffffff6102f916565b600555005b600080fd5b3480156100e157600080fd5b506100ea61035a565b604080516001600160a01b039092168252519081900360200190f35b34801561011257600080fd5b5061011b610369565b60408051918252519081900360200190f35b34801561013957600080fd5b506101576004803603602081101561015057600080fd5b503561036f565b005b34801561016557600080fd5b506101576004803603608081101561017c57600080fd5b506001600160a01b038135811691602081013582169160408201358116916060013516610390565b3480156101b057600080fd5b506100ea610549565b3480156101c557600080fd5b5061011b610558565b3480156101da57600080fd5b50610157600480360360408110156101f157600080fd5b506001600160a01b03813516906020013561055e565b34801561021357600080fd5b506100ea61066b565b34801561022857600080fd5b5061023161067a565b604080519115158252519081900360200190f35b34801561025157600080fd5b506100ea61068b565b34801561026657600080fd5b506100ea61069a565b34801561027b57600080fd5b506101576004803603602081101561029257600080fd5b50356106a9565b6001546001600160a01b03163314806102bc57506004546001600160a01b031633145b6102f75760405162461bcd60e51b8152600401808060200182810382526031815260200180610a006031913960400191505060405180910390fd5b565b600082820183811015610353576040805162461bcd60e51b815260206004820152601b60248201527f536166654d6174683a206164646974696f6e206f766572666c6f770000000000604482015290519081900360640190fd5b9392505050565b6003546001600160a01b031681565b60055490565b6103776106c4565b60065461038a908263ffffffff61073716565b60065550565b61039861067a565b6103e9576040805162461bcd60e51b815260206004820181905260248201527f4f776e61626c653a2063616c6c6572206973206e6f7420746865206f776e6572604482015290519081900360640190fd5b6103f284610779565b6103fb83610779565b61040482610779565b61040d81610779565b600180546001600160a01b038087166001600160a01b031992831681179093556002805487831690841617905560038054868316908416179055600480549185169190921617905560408051918252517f3ca631ffcd2a9b5d9ae18543fc82f58eb4ca33af9e6ab01b7a8e95331e6ed9859181900360200190a1604080516001600160a01b038516815290517f143219c9e69b09e07e095fcc889b43d8f46ca892bba65f08dc3a0050869a56789181900360200190a1604080516001600160a01b038416815290517f82966d27eea39b038ee0fa30cd16532bb24f6e65d31cb58fb227aa5766cdcc7f9181900360200190a1604080516001600160a01b038316815290517f5ee0cae2f063ed938bb55046f6a932fb6ae792bf43624806bb90abe68a50be9b9181900360200190a161054361082c565b50505050565b6002546001600160a01b031681565b60065490565b6105666106c4565b600554610579908263ffffffff61073716565b600555604080516001600160a01b03841681526020810183905281517f6109e2559dfa766aaec7118351d48a523f0a4157f49c8d68749c8ac41318ad12929181900390910190a16040516000906001600160a01b0384169083908381818185875af1925050503d806000811461060b576040519150601f19603f3d011682016040523d82523d6000602084013e610610565b606091505b5050905080610666576040805162461bcd60e51b815260206004820152601e60248201527f416374697665506f6f6c3a2073656e64696e6720455448206661696c65640000604482015290519081900360640190fd5b505050565b6000546001600160a01b031690565b6000546001600160a01b0316331490565b6004546001600160a01b031681565b6001546001600160a01b031681565b6106b1610876565b60065461038a908263ffffffff6102f916565b6001546001600160a01b03163314806106e757506002546001600160a01b031633145b806106fc57506003546001600160a01b031633145b6102f75760405162461bcd60e51b81526004018080602001828103825260538152602001806109ad6053913960600191505060405180910390fd5b600061035383836040518060400160405280601e81526020017f536166654d6174683a207375627472616374696f6e206f766572666c6f7700008152506108d4565b6001600160a01b0381166107d4576040805162461bcd60e51b815260206004820152601e60248201527f4163636f756e742063616e6e6f74206265207a65726f20616464726573730000604482015290519081900360640190fd5b803b80610828576040805162461bcd60e51b815260206004820181905260248201527f4163636f756e7420636f64652073697a652063616e6e6f74206265207a65726f604482015290519081900360640190fd5b5050565b600080546040516001600160a01b03909116907f8be0079c531659141344cd1fd0a4f28419497f9722a3daafe3b4186f6b6457e0908390a3600080546001600160a01b0319169055565b6001546001600160a01b031633148061089957506002546001600160a01b031633145b6102f75760405162461bcd60e51b815260040180806020018281038252604181526020018061096c6041913960600191505060405180910390fd5b600081848411156109635760405162461bcd60e51b81526004018080602001828103825283818151815260200191508051906020019080838360005b83811015610928578181015183820152602001610910565b50505050905090810190601f1680156109555780820380516001836020036101000a031916815260200191505b509250505060405180910390fd5b50505090039056fe416374697665506f6f6c3a2043616c6c6572206973206e65697468657220426f72726f7765724f7065726174696f6e73206e6f722054726f76654d616e61676572416374697665506f6f6c3a2043616c6c6572206973206e65697468657220426f72726f7765724f7065726174696f6e73206e6f722054726f76654d616e61676572206e6f722053746162696c697479506f6f6c416374697665506f6f6c3a2043616c6c6572206973206e65697468657220424f206e6f722044656661756c7420506f6f6ca2646970667358221220f2b0af9c3c75b13bd71b994bc8e64dcc0e6809e948f571a000eaf43c84c11a5b64736f6c634300060b0033608060405234801561001057600080fd5b50600080546001600160a01b0319163390811782556040519091907f8be0079c531659141344cd1fd0a4f28419497f9722a3daafe3b4186f6b6457e0908290a36108408061005f6000396000f3fe6080604052600436106100955760003560e01c80638f32d59b116100595780638f32d59b1461016d57806390107afe14610196578063b08bc722146101d1578063be41205f146101e6578063cfb9329a14610210576100ba565b806314f6c3be146100bf57806338d995a8146100e65780635a4d28bb146101125780635eb52fca146101435780638da5cb5b14610158576100ba565b366100ba576100a261023a565b6003546100b5903463ffffffff61028516565b600355005b600080fd5b3480156100cb57600080fd5b506100d46102e6565b60408051918252519081900360200190f35b3480156100f257600080fd5b506101106004803603602081101561010957600080fd5b50356102ec565b005b34801561011e57600080fd5b5061012761030d565b604080516001600160a01b039092168252519081900360200190f35b34801561014f57600080fd5b506100d461031c565b34801561016457600080fd5b50610127610322565b34801561017957600080fd5b50610182610331565b604080519115158252519081900360200190f35b3480156101a257600080fd5b50610110600480360360408110156101b957600080fd5b506001600160a01b0381358116916020013516610342565b3480156101dd57600080fd5b50610127610455565b3480156101f257600080fd5b506101106004803603602081101561020957600080fd5b5035610464565b34801561021c57600080fd5b506101106004803603602081101561023357600080fd5b5035610580565b6002546001600160a01b031633146102835760405162461bcd60e51b81526004018080602001828103825260298152602001806107b76029913960400191505060405180910390fd5b565b6000828201838110156102df576040805162461bcd60e51b815260206004820152601b60248201527f536166654d6174683a206164646974696f6e206f766572666c6f770000000000604482015290519081900360640190fd5b9392505050565b60035490565b6102f461059b565b600454610307908263ffffffff6105e416565b60045550565b6001546001600160a01b031681565b60045490565b6000546001600160a01b031690565b6000546001600160a01b0316331490565b61034a610331565b61039b576040805162461bcd60e51b815260206004820181905260248201527f4f776e61626c653a2063616c6c6572206973206e6f7420746865206f776e6572604482015290519081900360640190fd5b6103a482610626565b6103ad81610626565b600180546001600160a01b038085166001600160a01b03199283168117909355600280549185169190921617905560408051918252517f143219c9e69b09e07e095fcc889b43d8f46ca892bba65f08dc3a0050869a56789181900360200190a1604080516001600160a01b038316815290517f78f058b189175430c48dc02699e3a0031ea4ff781536dc2fab847de4babdd8829181900360200190a16104516106d5565b5050565b6002546001600160a01b031681565b61046c61059b565b6002546003546001600160a01b039091169061048e908363ffffffff6105e416565b600355604080516001600160a01b03831681526020810184905281517f6109e2559dfa766aaec7118351d48a523f0a4157f49c8d68749c8ac41318ad12929181900390910190a16040516000906001600160a01b0383169084908381818185875af1925050503d8060008114610520576040519150601f19603f3d011682016040523d82523d6000602084013e610525565b606091505b505090508061057b576040805162461bcd60e51b815260206004820152601f60248201527f44656661756c74506f6f6c3a2073656e64696e6720455448206661696c656400604482015290519081900360640190fd5b505050565b61058861059b565b600454610307908263ffffffff61028516565b6001546001600160a01b031633146102835760405162461bcd60e51b815260040180806020018281038252602b8152602001806107e0602b913960400191505060405180910390fd5b60006102df83836040518060400160405280601e81526020017f536166654d6174683a207375627472616374696f6e206f766572666c6f77000081525061071f565b6001600160a01b038116610681576040805162461bcd60e51b815260206004820152601e60248201527f4163636f756e742063616e6e6f74206265207a65726f20616464726573730000604482015290519081900360640190fd5b803b80610451576040805162461bcd60e51b815260206004820181905260248201527f4163636f756e7420636f64652073697a652063616e6e6f74206265207a65726f604482015290519081900360640190fd5b600080546040516001600160a01b03909116907f8be0079c531659141344cd1fd0a4f28419497f9722a3daafe3b4186f6b6457e0908390a3600080546001600160a01b0319169055565b600081848411156107ae5760405162461bcd60e51b81526004018080602001828103825283818151815260200191508051906020019080838360005b8381101561077357818101518382015260200161075b565b50505050905090810190601f1680156107a05780820380516001836020036101000a031916815260200191505b509250505060405180910390fd5b50505090039056fe44656661756c74506f6f6c3a2043616c6c6572206973206e6f742074686520416374697665506f6f6c44656661756c74506f6f6c3a2043616c6c6572206973206e6f74207468652054726f76654d616e61676572a2646970667358221220e8d5a0520a364dc5c8c3e34533f64e4b114ab2f949c8a94cdf525135c61f209b64736f6c634300060b00336080604052670de0b6b3a764000060105534801561001c57600080fd5b50600380546001600160a01b031916339081179091556040516000907f8be0079c531659141344cd1fd0a4f28419497f9722a3daafe3b4186f6b6457e0908290a361366b8061006c6000396000f3fe60806040526004361061026b5760003560e01c80637f7dde4a11610144578063ae918754116100b6578063df9cd84f1161007a578063df9cd84f146107a4578063eaa8ba7f146107d7578063eb6b2fa61461083c578063f5f1595d1461086c578063fc7e286d1461089f578063fda0101a146108f357610290565b8063ae9187541461071d578063b83f91a214610732578063cef941e814610747578063d4ca05751461075c578063d7fb04431461078f57610290565b80638f32d59b116101085780638f32d59b1461066957806395fb16bb146106925780639bf2f1ac146106a7578063a20baee614610548578063a4e59ac8146106bc578063a7bfff97146106d157610290565b80637f7dde4a146105e257806386da0824146105f7578063887105d31461062a5780638b8fbd921461063f5780638da5cb5b1461065457610290565b8063556be101116101dd57806372fe25aa116101a157806372fe25aa14610548578063741bef1a1461055d578063766718081461057257806377553ad4146105a3578063794e5724146105b8578063795d26c3146105cd57610290565b8063556be1011461046d5780635733d58f146104975780635a0edf77146104ac5780635d2de642146104dc5780635f788d651461050f57610290565b8063335525ad1161022f578063335525ad1461039a578063389e92a5146103ca5780633cc74225146103fd5780633d83908a1461042e5780634870dd9a14610443578063538153ca1461045857610290565b806314f6c3be1461029557806316b9d3c5146102bc5780631cdc4700146103265780632e54bf95146103595780632e86bbd81461038557610290565b366102905761027861092e565b60095461028b903463ffffffff61097916565b600955005b600080fd5b3480156102a157600080fd5b506102aa6109dc565b60408051918252519081900360200190f35b3480156102c857600080fd5b506102ef600480360360208110156102df57600080fd5b50356001600160a01b03166109e2565b604080519586526020860194909452848401929092526001600160801b039081166060850152166080830152519081900360a00190f35b34801561033257600080fd5b506102aa6004803603602081101561034957600080fd5b50356001600160a01b0316610a1d565b34801561036557600080fd5b506103836004803603602081101561037c57600080fd5b5035610ac5565b005b34801561039157600080fd5b506102aa610c4e565b3480156103a657600080fd5b50610383600480360360408110156103bd57600080fd5b5080359060200135610c5b565b3480156103d657600080fd5b506102aa600480360360208110156103ed57600080fd5b50356001600160a01b0316610cbf565b34801561040957600080fd5b50610412610d5c565b604080516001600160a01b039092168252519081900360200190f35b34801561043a57600080fd5b50610412610d6b565b34801561044f57600080fd5b506102aa610d7a565b34801561046457600080fd5b506102aa610d7f565b34801561047957600080fd5b506103836004803603602081101561049057600080fd5b5035610d85565b3480156104a357600080fd5b506102aa610dfa565b3480156104b857600080fd5b506102aa600480360360408110156104cf57600080fd5b5080359060200135610e06565b3480156104e857600080fd5b506102aa600480360360208110156104ff57600080fd5b50356001600160a01b0316610e23565b34801561051b57600080fd5b506103836004803603604081101561053257600080fd5b50803590602001356001600160a01b0316610e35565b34801561055457600080fd5b506102aa610fb6565b34801561056957600080fd5b50610412610fc2565b34801561057e57600080fd5b50610587610fd1565b604080516001600160801b039092168252519081900360200190f35b3480156105af57600080fd5b50610412610fe7565b3480156105c457600080fd5b506102aa610ff6565b3480156105d957600080fd5b506102aa611002565b3480156105ee57600080fd5b50610412611103565b34801561060357600080fd5b506102ef6004803603602081101561061a57600080fd5b50356001600160a01b0316611112565b34801561063657600080fd5b506102aa61114d565b34801561064b57600080fd5b506102aa611209565b34801561066057600080fd5b5061041261120f565b34801561067557600080fd5b5061067e61121e565b604080519115158252519081900360200190f35b34801561069e57600080fd5b5061041261122f565b3480156106b357600080fd5b506102aa61123e565b3480156106c857600080fd5b50610587611244565b3480156106dd57600080fd5b50610704600480360360208110156106f457600080fd5b50356001600160a01b0316611253565b6040805192835290151560208301528051918290030190f35b34801561072957600080fd5b5061041261126f565b34801561073e57600080fd5b5061041261127e565b34801561075357600080fd5b506102aa61128d565b34801561076857600080fd5b506102aa6004803603602081101561077f57600080fd5b50356001600160a01b0316611293565b34801561079b57600080fd5b506102aa611397565b3480156107b057600080fd5b506102aa600480360360208110156107c757600080fd5b50356001600160a01b031661139d565b3480156107e357600080fd5b50610383600480360360e08110156107fa57600080fd5b506001600160a01b038135811691602081013582169160408201358116916060810135821691608082013581169160a081013582169160c0909101351661143a565b34801561084857600080fd5b506102aa6004803603604081101561085f57600080fd5b50803590602001356116eb565b34801561087857600080fd5b506102aa6004803603602081101561088f57600080fd5b50356001600160a01b0316611708565b3480156108ab57600080fd5b506108d2600480360360208110156108c257600080fd5b50356001600160a01b0316611805565b604080519283526001600160a01b0390911660208301528051918290030190f35b3480156108ff57600080fd5b506103836004803603604081101561091657600080fd5b506001600160a01b0381358116916020013516611827565b6000546001600160a01b031633146109775760405162461bcd60e51b81526004018080602001828103825260278152602001806133986027913960400191505060405180910390fd5b565b6000828201838110156109d3576040805162461bcd60e51b815260206004820152601b60248201527f536166654d6174683a206164646974696f6e206f766572666c6f770000000000604482015290519081900360640190fd5b90505b92915050565b60095490565b600f602052600090815260409020805460018201546002830154600390930154919290916001600160801b0380821691600160801b90041685565b6001600160a01b0381166000908152600b602052604081205480610a45576000915050610ac0565b610a4d6132ca565b506001600160a01b0383166000908152600c60209081526040808320815160a08101835281548152600182015493810193909352600281015491830191909152600301546001600160801b038082166060840152600160801b90910416608082015290610aba8383611a69565b93505050505b919050565b8015610ad357610ad3611b69565b336000908152600b6020526040902054610aec81611d26565b6008546001600160a01b0316610b0181611d68565b6000610b0c33610cbf565b90506000610b1933610a1d565b90506000610b278683611ddc565b90506000610b3b868463ffffffff611df216565b336000818152600b60205260409020600101549192506001600160a01b0390911690610b6990879083611e34565b6000610b748261139d565b90506000610b88828663ffffffff611df216565b9050610b948382611fd3565b6040805182815233602082015281516001600160a01b03861692600080516020613585833981519152928290030190a2610bce338661211f565b6000610be0878763ffffffff611df216565b9050610bec33826121a5565b60408051828152905133916000805160206133f0833981519152919081900360200190a26040805189815260208101879052815133926000805160206134d4833981519152928290030190a2610c418861232b565b5050505050505050505050565b6802b5e3af16b188000081565b610c63612449565b600a54801580610c71575082155b15610c7c5750610cbb565b600854610c91906001600160a01b0316611d68565b600080610c9f848685612492565b91509150610cad8282612581565b610cb784866127a9565b5050505b5050565b6001600160a01b0381166000908152600b602052604081205480610ce7576000915050610ac0565b610cef6132ca565b506001600160a01b0383166000908152600c60209081526040808320815160a08101835281548152600182015493810193909352600281015491830191909152600301546001600160801b038082166060840152600160801b90910416608082015290610aba83836128e3565b6001546001600160a01b031681565b6005546001600160a01b031681565b60c881565b60165481565b610d8e336129e2565b610d9733612a3d565b610da081612a93565b336000818152600d60209081526040918290208481556001908101805460ff19169091179055815184815291517f19bc932fb9e16a8b5a1e41be9f4c2de59d5ddd7567b8b81405f532ca00a9880e9281900390910190a250565b6714d1120d7b16000081565b601360209081526000928352604080842090915290825290205481565b600e6020526000908152604090205481565b610e3e81612ada565b610e47336129e2565b610e5082612b46565b336000908152600b60205260409020546008546001600160a01b0316610e7581611d68565b81610e8457610e843384612b85565b6000610e8f33610cbf565b90506000610e9c33610a1d565b90506000610eb0858363ffffffff611df216565b336000818152600b60205260409020600101549192506001600160a01b0390911690610ede90869083611e34565b6000610ee98261139d565b90506000610efd828b63ffffffff61097916565b9050610f098382611fd3565b6040805182815233602082015281516001600160a01b03861692600080516020613585833981519152928290030190a2610f43338b612bb6565b6000610f55868c63ffffffff61097916565b9050610f6133826121a5565b60408051828152905133916000805160206133f0833981519152919081900360200190a26040805188815260208101879052815133926000805160206134d4833981519152928290030190a2610c418761232b565b670de0b6b3a764000081565b6002546001600160a01b031681565b601154600160801b90046001600160801b031681565b6004546001600160a01b031681565b670f43fc2c04ee000081565b6000805460408051632f5a97e560e11b8152905183926001600160a01b031691635eb52fca916004808301926020929190829003018186803b15801561104757600080fd5b505afa15801561105b573d6000803e3d6000fd5b505050506040513d602081101561107157600080fd5b505160015460408051632f5a97e560e11b815290519293506000926001600160a01b0390921691635eb52fca91600480820192602092909190829003018186803b1580156110be57600080fd5b505afa1580156110d2573d6000803e3d6000fd5b505050506040513d60208110156110e857600080fd5b505190506110fc828263ffffffff61097916565b9250505090565b6000546001600160a01b031681565b600c602052600090815260409020805460018201546002830154600390930154919290916001600160801b0380821691600160801b90041685565b6000805460408051630a7b61df60e11b8152905183926001600160a01b0316916314f6c3be916004808301926020929190829003018186803b15801561119257600080fd5b505afa1580156111a6573d6000803e3d6000fd5b505050506040513d60208110156111bc57600080fd5b505160015460408051630a7b61df60e11b815290519293506000926001600160a01b03909216916314f6c3be91600480820192602092909190829003018186803b1580156110be57600080fd5b60105481565b6003546001600160a01b031690565b6003546001600160a01b0316331490565b6008546001600160a01b031681565b600a5490565b6011546001600160801b031681565b600d602052600090815260409020805460019091015460ff1682565b6007546001600160a01b031681565b6006546001600160a01b031681565b60145481565b6001600160a01b0381166000908152600e6020526040812054806112bb576000915050610ac0565b6001600160a01b0383166000908152600d6020526040812054906112ed670de0b6b3a76400008363ffffffff611df216565b90506112f76132ca565b506001600160a01b0385166000908152600f60209081526040808320815160a08101835281548152600182015493810193909352600281015491830191909152600301546001600160801b038082166060840152600160801b9091041660808201529061138c670de0b6b3a76400006113806113738886612c80565b869063ffffffff612d1a16565b9063ffffffff612d7316565b979650505050505050565b60155481565b6001600160a01b0381166000908152600e6020526040812054806113c5576000915050610ac0565b6113cd6132ca565b506001600160a01b0383166000908152600f60209081526040808320815160a08101835281548152600182015493810193909352600281015491830191909152600301546001600160801b038082166060840152600160801b90910416608082015290610aba8383611a69565b61144261121e565b611493576040805162461bcd60e51b815260206004820181905260248201527f4f776e61626c653a2063616c6c6572206973206e6f7420746865206f776e6572604482015290519081900360640190fd5b61149c87612db5565b6114a586612db5565b6114ae85612db5565b6114b784612db5565b6114c083612db5565b6114c982612db5565b6114d281612db5565b600480546001600160a01b03199081166001600160a01b038a81169182179093556005805483168a85161790556000805483168985161790556006805483168885161790556007805483168785161790556002805483168685161790556008805490921692841692909217905560408051918252517f3ca631ffcd2a9b5d9ae18543fc82f58eb4ca33af9e6ab01b7a8e95331e6ed985916020908290030190a1604080516001600160a01b038816815290517f143219c9e69b09e07e095fcc889b43d8f46ca892bba65f08dc3a0050869a56789181900360200190a1604080516001600160a01b038716815290517f78f058b189175430c48dc02699e3a0031ea4ff781536dc2fab847de4babdd8829181900360200190a1604080516001600160a01b038616815290517f227eec0ec317af6ab1a9587ffa1c84332522eb4c583a908f89babc05f8f339bd9181900360200190a1604080516001600160a01b038516815290517f65f4cf077bc01e4742eb5ad98326f6e95b63548ea24b17f8d5e823111fe788009181900360200190a1604080516001600160a01b038416815290517f8c537274438aa850a330284665d81a85dd38267d09e4050d416bfc94142db2649181900360200190a1604080516001600160a01b038316815290517f3055265812fb8447b9ada4a5d804ec43bd528ec40e89c952bbc7b85dc5ac68119181900360200190a16116e2612e64565b50505050505050565b601260209081526000928352604080842090915290825290205481565b6001600160a01b0381166000908152600b602052604081205480611730576000915050610ac0565b6001600160a01b038084166000908152600b6020526040812060010154909116908115611775576001600160a01b0382166000908152600d602052604090205461177f565b670de0b6b3a76400005b90506117896132ca565b506001600160a01b0385166000908152600c60209081526040808320815160a08101835281548152600182015493810193909352600281015491830191909152600301546001600160801b038082166060840152600160801b9091041660808201529061138c670de0b6b3a76400006113806113738886612c80565b600b60205260009081526040902080546001909101546001600160a01b031682565b336000908152600b602052604090205461184081611d26565b61184933612eae565b61185233612f65565b6008546001600160a01b031661186781611d68565b600061187233610cbf565b9050600061187f33610a1d565b90506000611893858363ffffffff611df216565b336000818152600b60205260409020600101549192506001600160a01b03909116906118c190869083611e34565b60006118cc8261139d565b9050806118d98382611fd3565b6040805182815233602082015281516001600160a01b03861692600080516020613585833981519152928290030190a261191333866121a5565b6040805187815260208101869052815133926000805160206134d4833981519152928290030190a260408051868152905133916000805160206133f0833981519152919081900360200190a2600954611972908763ffffffff611df216565b600981905560408051918252517f7ab2bdf6e6d108cd138a8f6436723e8dfd0cb22727fe608e40b5adfb8357f1b99181900360200190a1604080513381526020810188905281517f6109e2559dfa766aaec7118351d48a523f0a4157f49c8d68749c8ac41318ad12929181900390910190a1600480546040805163ea9638bf60e01b815233938101939093526001600160a01b038d811660248501528c81166044850152905191169163ea9638bf91899160648082019260009290919082900301818588803b158015611a4457600080fd5b505af1158015611a58573d6000803e3d6000fd5b505050505050505050505050505050565b6020810151606082015160808301516011546000939291906001600160801b03600160801b90910481169082161015611aa857600093505050506109d6565b6011546000908190611ac9906001600160801b03168563ffffffff612fb116565b90506001600160801b038116611af957611af2856113806010548b612d1a90919063ffffffff16565b9150611b35565b806001600160801b031660011415611b3057611af2670de0b6b3a7640000611380876113806010548d612d1a90919063ffffffff16565b600091505b611b4988633b9aca0063ffffffff612d7316565b821015611b5e576000955050505050506109d6565b509695505050505050565b60025460408051630fdb11cf60e01b815290516000926001600160a01b031691630fdb11cf91600480830192602092919082900301818787803b158015611baf57600080fd5b505af1158015611bc3573d6000803e3d6000fd5b505050506040513d6020811015611bd957600080fd5b505160075460408051634d62283160e01b815290519293506000926001600160a01b0390921691634d62283191600480820192602092909190829003018186803b158015611c2657600080fd5b505afa158015611c3a573d6000803e3d6000fd5b505050506040513d6020811015611c5057600080fd5b505160055460408051630d293c7160e41b81526001600160a01b038085166004830152602482018790529151939450600093919092169163d293c710916044808301926020929190829003018186803b158015611cac57600080fd5b505afa158015611cc0573d6000803e3d6000fd5b505050506040513d6020811015611cd657600080fd5b50519050670f43fc2c04ee0000811015611d215760405162461bcd60e51b81526004018080602001828103825260448152602001806135f26044913960600191505060405180910390fd5b505050565b60008111611d655760405162461bcd60e51b81526004018080602001828103825260308152602001806135556030913960400191505060405180910390fd5b50565b6000816001600160a01b03166346ad34d96040518163ffffffff1660e01b8152600401602060405180830381600087803b158015611da557600080fd5b505af1158015611db9573d6000803e3d6000fd5b505050506040513d6020811015611dcf57600080fd5b50519050610cbb8161300a565b6000818310611deb57816109d3565b5090919050565b60006109d383836040518060400160405280601e81526020017f536166654d6174683a207375627472616374696f6e206f766572666c6f7700008152506130c3565b6001600160a01b03811615611f09576000611e4e82611293565b9050836001600160a01b031663614d2ab683836040518363ffffffff1660e01b815260040180836001600160a01b03166001600160a01b0316815260200182815260200192505050600060405180830381600087803b158015611eb057600080fd5b505af1158015611ec4573d6000803e3d6000fd5b50506040805184815290516001600160a01b03861693507fcd2cdc1a4af71051394e9c6facd9a266b2ac5bd65d219a701eeda009f47682bf92509081900360200190a2505b6000611f1483611708565b9050836001600160a01b031663614d2ab684836040518363ffffffff1660e01b815260040180836001600160a01b03166001600160a01b0316815260200182815260200192505050600060405180830381600087803b158015611f7657600080fd5b505af1158015611f8a573d6000803e3d6000fd5b50506040805184815290516001600160a01b03871693507f2608b986a6ac0f6c629ca37018e80af5561e366252ae93602a96d3ab2e73e42d92509081900360200190a250505050565b6001600160a01b0382166000908152600e6020526040902081905580612063576001600160a01b0382166000818152600f60209081526040808320838155600181018490556002810184905560030183905580518381529182019290925281517fbb1322f85cc7cc8bac4e172a5bc5dcc0c1959007f9a030032abf9258205f0e45929181900390910190a2610cbb565b6011546010546001600160801b03600160801b80840482166000818152601360209081526040808320978616808452978252808320546001600160a01b038b16808552600f845293829020600181018990556002810182905560030180546001600160801b0319168a17909716958502959095179095558451868152908101849052845192959491927fbb1322f85cc7cc8bac4e172a5bc5dcc0c1959007f9a030032abf9258205f0e45929181900390910190a2505050505050565b8061212957610cbb565b60065460408051631062c15f60e11b81523060048201526001600160a01b03858116602483015260448201859052915191909216916320c582be91606480830192600092919082900301818387803b15801561218457600080fd5b505af1158015612198573d6000803e3d6000fd5b50505050610cbb8161315a565b6001600160a01b0382166000908152600b6020526040902081905580612253576001600160a01b0382166000818152600b60209081526040808320600190810180546001600160a01b0319169055600c83528184208481559081018490556002810184905560030183905580518381529182018390528181019290925290517f2d6cc0bcdf72c9486f6451bde6b80f44066f4558f77f44dbfedbe7d8b295225a9181900360600190a2610cbb565b6011546010546001600160801b03600160801b8084048216600081815260126020908152604080832097861680845297825280832054848452601383528184208985528352818420546001600160a01b038c16808652600c855294839020600181018a90558281556002810182905560030180546001600160801b0319168b179098169686029690961790965580518781529182018690528181018590525192959493927f2d6cc0bcdf72c9486f6451bde6b80f44066f4558f77f44dbfedbe7d8b295225a916060908290030190a250505050505050565b8061233557611d65565b60095460009061234b908363ffffffff611df216565b60098190556040805182815290519192507f7ab2bdf6e6d108cd138a8f6436723e8dfd0cb22727fe608e40b5adfb8357f1b9919081900360200190a1604080513381526020810184905281517f6109e2559dfa766aaec7118351d48a523f0a4157f49c8d68749c8ac41318ad12929181900390910190a1604051600090339084908381818185875af1925050503d8060008114612404576040519150601f19603f3d011682016040523d82523d6000602084013e612409565b606091505b5050905080611d215760405162461bcd60e51b81526004018080602001828103825260218152602001806134396021913960400191505060405180910390fd5b6005546001600160a01b031633146109775760405162461bcd60e51b81526004018080602001828103825260298152602001806134106029913960400191505060405180910390fd5b60008060006124c46016546124b8670de0b6b3a764000088612d1a90919063ffffffff16565b9063ffffffff611df216565b905060006124f56015546124e9670de0b6b3a76400008a612d1a90919063ffffffff16565b9063ffffffff61097916565b9050848610612513576000601655670de0b6b3a76400009250612542565b61252860016124e9848863ffffffff612d7316565b925061253e826124b8858863ffffffff612d1a16565b6016555b612552818663ffffffff612d7316565b9350612574612567858763ffffffff612d1a16565b829063ffffffff611df216565b6015555050935093915050565b6010546000670de0b6b3a764000083111561259857fe5b6000670de0b6b3a76400008410156125c7576125c2670de0b6b3a76400008563ffffffff611df216565b6125ca565b60005b6011546001600160801b03600160801b82048116600081815260126020908152604080832094909516808352939052928320549394509092909161260e8988612d1a565b90506000612622838363ffffffff61097916565b6001600160801b038086166000908152601260209081526040808320938a16835292815290829020839055815183815291519293507fb3b0cd868e433c74c233db87efea57c13377de7056bf27b1a50feaab5bfd499192918290030190a1856126d65761269f6001600160801b038516600163ffffffff6131b016565b601180546001600160801b03928316600160801b029216919091176001600160801b0319169055670de0b6b3a76400009650612765565b670de0b6b3a76400006126ef898863ffffffff612d1a16565b101561274657612705888763ffffffff612d1a16565b96506127216001600160801b038616600163ffffffff6131b016565b601180546001600160801b0319166001600160801b0392909216919091179055612765565b612762670de0b6b3a76400006113808a8963ffffffff612d1a16565b96505b60108790556040805188815290517fc1a9618cb59ebca77cbdbc2949f126823c407ff13edb285fd0262519a9c18e8c9181900360200190a150505050505050505050565b600080546040805163071b32b560e31b81526004810185905290516001600160a01b039092169283926338d995a892602480820193929182900301818387803b1580156127f557600080fd5b505af1158015612809573d6000803e3d6000fd5b505050506128168261315a565b60065460408051632770a7eb60e21b81523060048201526024810185905290516001600160a01b0390921691639dc29fac9160448082019260009290919082900301818387803b15801561286957600080fd5b505af115801561287d573d6000803e3d6000fd5b5050604080516364a197f360e01b81523060048201526024810187905290516001600160a01b03851693506364a197f39250604480830192600092919082900301818387803b1580156128cf57600080fd5b505af11580156116e2573d6000803e3d6000fd5b6080810151606082015182516020808501516001600160801b03808616600090815260128452604080822092871682529190935282205491949392918590612931908463ffffffff611df216565b905060006129a2670de0b6b3a764000060126000896001600160801b03168152602001908152602001600020600061297c60018a6001600160801b03166131b090919063ffffffff16565b6001600160801b0316815260200190815260200160002054612d7390919063ffffffff16565b905060006129d4670de0b6b3a764000061138086816129c7888863ffffffff61097916565b8f9063ffffffff612d1a16565b9a9950505050505050505050565b6001600160a01b0381166000908152600d602052604090206001015460ff1615611d655760405162461bcd60e51b81526004018080602001828103825260398152602001806134f46039913960400191505060405180910390fd5b6001600160a01b0381166000908152600b60205260409020548015610cbb5760405162461bcd60e51b815260040180806020018281038252602881526020018061352d6028913960400191505060405180910390fd5b670de0b6b3a7640000811115611d655760405162461bcd60e51b815260040180806020018281038252603381526020018061347b6033913960400191505060405180910390fd5b6001600160a01b0381166000908152600d602052604090206001015460ff1680612b0b57506001600160a01b038116155b611d655760405162461bcd60e51b81526004018080602001828103825260468152602001806133526046913960600191505060405180910390fd5b60008111611d655760405162461bcd60e51b81526004018080602001828103825260268152602001806134ae6026913960400191505060405180910390fd5b6001600160a01b039182166000908152600b6020526040902060010180546001600160a01b03191691909216179055565b60065460408051632ee65eeb60e21b81526001600160a01b038581166004830152306024830152604482018590529151919092169163bb997bac91606480830192600092919082900301818387803b158015612c1157600080fd5b505af1158015612c25573d6000803e3d6000fd5b5050600a5460009250612c3f91508363ffffffff61097916565b600a8190556040805182815290519192507fb85aa39be26453c93060ffe42e1e6ea34980cb12e563f517cbce039dcd5af392919081900360200190a1505050565b608081015160608201516040808401516020808601516001600160801b03808716600090815260138452858120918716815292529281205490949392908590612ccf908463ffffffff611df216565b905060006129a2670de0b6b3a764000060136000896001600160801b03168152602001908152602001600020600061297c60018a6001600160801b03166131b090919063ffffffff16565b600082612d29575060006109d6565b82820282848281612d3657fe5b04146109d35760405162461bcd60e51b815260040180806020018281038252602181526020018061345a6021913960400191505060405180910390fd5b60006109d383836040518060400160405280601a81526020017f536166654d6174683a206469766973696f6e206279207a65726f000000000000815250613200565b6001600160a01b038116612e10576040805162461bcd60e51b815260206004820152601e60248201527f4163636f756e742063616e6e6f74206265207a65726f20616464726573730000604482015290519081900360640190fd5b803b80610cbb576040805162461bcd60e51b815260206004820181905260248201527f4163636f756e7420636f64652073697a652063616e6e6f74206265207a65726f604482015290519081900360640190fd5b6003546040516000916001600160a01b0316907f8be0079c531659141344cd1fd0a4f28419497f9722a3daafe3b4186f6b6457e0908390a3600380546001600160a01b0319169055565b600554604080516321e3780160e01b81526001600160a01b038481166004830152915191909216916321e37801916024808301926020929190829003018186803b158015612efb57600080fd5b505afa158015612f0f573d6000803e3d6000fd5b505050506040513d6020811015612f2557600080fd5b5051600114611d655760405162461bcd60e51b815260040180806020018281038252604681526020018061330c6046913960600191505060405180910390fd5b6000612f7082610cbf565b905060008111610cbb5760405162461bcd60e51b81526004018080602001828103825260318152602001806133bf6031913960400191505060405180910390fd5b6000826001600160801b0316826001600160801b031611156130045760405162461bcd60e51b81526004018080602001828103825260288152602001806135a56028913960400191505060405180910390fd5b50900390565b600a54801580613018575081155b156130235750611d65565b600061302f8383613265565b9050600061304860105483612d1a90919063ffffffff16565b6011546001600160801b03600160801b82048116600090815260136020908152604080832093909416825291909152205490915061308c908263ffffffff61097916565b6011546001600160801b03600160801b82048116600090815260136020908152604080832093909416825291909152205550505050565b600081848411156131525760405162461bcd60e51b81526004018080602001828103825283818151815260200191508051906020019080838360005b838110156131175781810151838201526020016130ff565b50505050905090810190601f1680156131445780820380516001836020036101000a031916815260200191505b509250505060405180910390fd5b505050900390565b600a54600090613170908363ffffffff611df216565b600a8190556040805182815290519192507fb85aa39be26453c93060ffe42e1e6ea34980cb12e563f517cbce039dcd5af392919081900360200190a15050565b60008282016001600160801b0380851690821610156109d35760405162461bcd60e51b81526004018080602001828103825260258152602001806135cd6025913960400191505060405180910390fd5b6000818361324f5760405162461bcd60e51b81526020600482018181528351602484015283519092839260449091019190850190808383600083156131175781810151838201526020016130ff565b50600083858161325b57fe5b0495945050505050565b6000806132896014546124e9670de0b6b3a764000087612d1a90919063ffffffff16565b9050600061329d828563ffffffff612d7316565b90506132bf6132b2828663ffffffff612d1a16565b839063ffffffff611df216565b601455949350505050565b6040518060a0016040528060008152602001600081526020016000815260200160006001600160801b0316815260200160006001600160801b03168152509056fe53746162696c697479506f6f6c3a2063616c6c6572206d757374206861766520616e206163746976652074726f766520746f207769746864726177204554484761696e20746f53746162696c697479506f6f6c3a20546167206d757374206265206120726567697374657265642066726f6e7420656e642c206f7220746865207a65726f206164647265737353746162696c697479506f6f6c3a2043616c6c6572206973206e6f7420416374697665506f6f6c53746162696c697479506f6f6c3a2063616c6c6572206d7573742068617665206e6f6e2d7a65726f20455448204761696ebce78369dccab09eec1986f4d409ab09ffbb47d65423e5148fcf98411c5111c953746162696c697479506f6f6c3a2043616c6c6572206973206e6f742054726f76654d616e6167657253746162696c697479506f6f6c3a2073656e64696e6720455448206661696c6564536166654d6174683a206d756c7469706c69636174696f6e206f766572666c6f7753746162696c697479506f6f6c3a204b69636b6261636b2072617465206d75737420626520696e2072616e6765205b302c315d53746162696c697479506f6f6c3a20416d6f756e74206d757374206265206e6f6e2d7a65726f51457222ebca92c335c9c86e2baa1cc0e40ffaa9084a51452980d5ba8dec2f6353746162696c697479506f6f6c3a206d757374206e6f7420616c7265616479206265206120726567697374657265642066726f6e7420656e6453746162696c697479506f6f6c3a2055736572206d7573742068617665206e6f206465706f73697453746162696c697479506f6f6c3a2055736572206d75737420686176652061206e6f6e2d7a65726f206465706f73697499920012339b5a3368d3a04b8606ce412c46ed92b7dcd8602d41fc8862cb8f254c697175697479536166654d6174683132383a207375627472616374696f6e206f766572666c6f774c697175697479536166654d6174683132383a206164646974696f6e206f766572666c6f7753746162696c697479506f6f6c3a2043616e6e6f74207769746864726177207768696c65207468657265206172652074726f766573207769746820494352203c204d4352a264697066735822122040dcaae5fd196327a3a935ae8b114d93985075307f169cc2e053e35a9118d4ba64736f6c634300060b00336080604052348015600f57600080fd5b50603f80601d6000396000f3fe6080604052600080fdfea26469706673582212201f7e3f755afa383b592db76e4062dc5f146d4c83d077b0f31b5b932f97ffa5d364736f6c634300060b00336101606040523480156200001257600080fd5b50604051620018ad380380620018ad833981810160405260608110156200003857600080fd5b50805160208201516040909201519091906200005d836001600160e01b036200025316565b62000071826001600160e01b036200025316565b62000085816001600160e01b036200025316565b6001600160601b0319606084901b1661010052604080516001600160a01b038516815290517f143219c9e69b09e07e095fcc889b43d8f46ca892bba65f08dc3a0050869a56789181900360200190a16001600160601b0319606083901b1661012052604080516001600160a01b038416815290517f82966d27eea39b038ee0fa30cd16532bb24f6e65d31cb58fb227aa5766cdcc7f9181900360200190a16001600160601b0319606082901b1661014052604080516001600160a01b038316815290517f3ca631ffcd2a9b5d9ae18543fc82f58eb4ca33af9e6ab01b7a8e95331e6ed9859181900360200190a1604080518082018252600f81526e262aa9a21029ba30b13632b1b7b4b760891b602091820152815180830190925260018252603160f81b9101527fabccaf2943f70764a048255e50e07d10e3c94973a6c6ba8b8ea62b1155209b0160c08190527fc89efdaa54c0f20c7adf612882df0950f5a951637e0307cdcb4c672f298b8bc660e08190526200020b6001600160e01b036200030816565b60a052620002447f8b73c3c69bb8fe3d512ecc4cf759cc79239f7b179b0ffacaa9a75d522b39400f83836001600160e01b036200030c16565b608052506200036d9350505050565b6001600160a01b038116620002af576040805162461bcd60e51b815260206004820152601e60248201527f4163636f756e742063616e6e6f74206265207a65726f20616464726573730000604482015290519081900360640190fd5b803b8062000304576040805162461bcd60e51b815260206004820181905260248201527f4163636f756e7420636f64652073697a652063616e6e6f74206265207a65726f604482015290519081900360640190fd5b5050565b4690565b6000838383620003246001600160e01b036200030816565b6040805160208082019690965280820194909452606084019290925260808301523060a0808401919091528151808403909101815260c090920190528051910120949350505050565b60805160a05160c05160e0516101005160601c6101205160601c6101405160601c6114b1620003fc6000398061076d5280610d5c5280610ed25280610fcd5250806105285280610b425280610ce1528061103252806111505250806106785280610b105280610d1e5280610fff525080610a58525080610a375250806109bd5250806109ed52506114b16000f3fe608060405234801561001057600080fd5b506004361061014d5760003560e01c80635a4d28bb116100c3578063a9059cbb1161007c578063a9059cbb146103f5578063b7f8cf9b14610421578063bb997bac14610429578063d505accf1461045f578063dd62ed3e146104b0578063f698da25146104de5761014d565b80635a4d28bb1461034157806370a08231146103495780637ecebe001461036f57806395d89b41146103955780639dc29fac1461039d578063a457c2d7146103c95761014d565b806320c582be1161011557806320c582be1461025557806323b872dd1461028d578063313ce567146102c357806339509351146102e157806340c10f191461030d57806354fd4d50146103395761014d565b806306fdde0314610152578063095ea7b3146101cf5780630b622ab21461020f57806310ce43bd1461023357806318160ddd1461024d575b600080fd5b61015a6104e6565b6040805160208082528351818301528351919283929083019185019080838360005b8381101561019457818101518382015260200161017c565b50505050905090810190601f1680156101c15780820380516001836020036101000a031916815260200191505b509250505060405180910390f35b6101fb600480360360408110156101e557600080fd5b506001600160a01b038135169060200135610510565b604080519115158252519081900360200190f35b610217610526565b604080516001600160a01b039092168252519081900360200190f35b61023b61054a565b60408051918252519081900360200190f35b61023b61056e565b61028b6004803603606081101561026b57600080fd5b506001600160a01b03813581169160208101359091169060400135610574565b005b6101fb600480360360608110156102a357600080fd5b506001600160a01b0381358116916020810135909116906040013561058c565b6102cb610604565b6040805160ff9092168252519081900360200190f35b6101fb600480360360408110156102f757600080fd5b506001600160a01b038135169060200135610609565b61028b6004803603604081101561032357600080fd5b506001600160a01b038135169060200135610645565b61015a61065b565b610217610676565b61023b6004803603602081101561035f57600080fd5b50356001600160a01b031661069a565b61023b6004803603602081101561038557600080fd5b50356001600160a01b03166106b5565b61015a6106d0565b61028b600480360360408110156103b357600080fd5b506001600160a01b0381351690602001356106ee565b6101fb600480360360408110156103df57600080fd5b506001600160a01b038135169060200135610700565b6101fb6004803603604081101561040b57600080fd5b506001600160a01b038135169060200135610755565b61021761076b565b61028b6004803603606081101561043f57600080fd5b506001600160a01b0381358116916020810135909116906040013561078f565b61028b600480360360e081101561047557600080fd5b506001600160a01b03813581169160208101359091169060408101359060608101359060ff6080820135169060a08101359060c00135610797565b61023b600480360360408110156104c657600080fd5b506001600160a01b038135811691602001351661098e565b61023b6109b9565b60408051808201909152600f81526e262aa9a21029ba30b13632b1b7b4b760891b60208201525b90565b600061051d338484610a83565b50600192915050565b7f000000000000000000000000000000000000000000000000000000000000000081565b7f6e71edae12b1b97f4d1f60370fef10105fa2faae0126114a169c64845d6126c990565b60005490565b61057c610b05565b610587838383610ba1565b505050565b600061059783610c83565b6105a2848484610ba1565b6105fa84336105f585604051806060016040528060288152602001611364602891396001600160a01b038a166000908152600360209081526040808320338452909152902054919063ffffffff610dcf16565b610a83565b5060019392505050565b601290565b3360008181526003602090815260408083206001600160a01b0387168452909152812054909161051d9185906105f5908663ffffffff610e6616565b61064d610ec7565b6106578282610f2e565b5050565b6040805180820190915260018152603160f81b602082015290565b7f000000000000000000000000000000000000000000000000000000000000000081565b6001600160a01b031660009081526002602052604090205490565b6001600160a01b031660009081526001602052604090205490565b604080518082019091526004815263131554d160e21b602082015290565b6106f6610fc2565b610657828261108f565b600061051d33846105f585604051806060016040528060258152602001611403602591393360009081526003602090815260408083206001600160a01b038d168452909152902054919063ffffffff610dcf16565b600061076083610c83565b61051d338484610ba1565b7f000000000000000000000000000000000000000000000000000000000000000081565b61057c611145565b428410156107e5576040805162461bcd60e51b81526020600482015260166024820152754c5553443a206578706972656420646561646c696e6560501b604482015290519081900360640190fd5b60006107ef6109b9565b6001600160a01b03808a166000818152600160208181526040808420805480850190915581517f6e71edae12b1b97f4d1f60370fef10105fa2faae0126114a169c64845d6126c98185015280830196909652958e166060860152608085018d905260a085019590955260c08085018c90528551808603909101815260e08501865280519082012061190160f01b6101008601526101028501969096526101228085019690965284518085039096018652610142840180865286519682019690962095839052610162840180865286905260ff8a166101828501526101a284018990526101c284018890529351949550909390926101e2808401939192601f1981019281900390910190855afa15801561090c573d6000803e3d6000fd5b505050602060405103519050886001600160a01b0316816001600160a01b031614610978576040805162461bcd60e51b81526020600482015260176024820152764c5553443a20696e76616c6964207369676e617475726560481b604482015290519081900360640190fd5b610983898989610a83565b505050505050505050565b6001600160a01b03918216600090815260036020908152604080832093909416825291909152205490565b60007f00000000000000000000000000000000000000000000000000000000000000006109e46111ac565b1415610a1157507f000000000000000000000000000000000000000000000000000000000000000061050d565b610a7c7f8b73c3c69bb8fe3d512ecc4cf759cc79239f7b179b0ffacaa9a75d522b39400f7f00000000000000000000000000000000000000000000000000000000000000007f00000000000000000000000000000000000000000000000000000000000000006111b0565b905061050d565b6001600160a01b038316610a9357fe5b6001600160a01b038216610aa357fe5b6001600160a01b03808416600081815260036020908152604080832094871680845294825291829020859055815185815291517f8c5be1e5ebec7d5bd14f71427d1e84f3dd0314c0f7b2291e5b200ac8c7c3b9259281900390910190a3505050565b336001600160a01b037f0000000000000000000000000000000000000000000000000000000000000000161480610b645750336001600160a01b037f000000000000000000000000000000000000000000000000000000000000000016145b610b9f5760405162461bcd60e51b81526004018080602001828103825260368152602001806112496036913960400191505060405180910390fd5b565b6001600160a01b038316610bb157fe5b6001600160a01b038216610bc157fe5b610c04816040518060600160405280602681526020016112a1602691396001600160a01b038616600090815260026020526040902054919063ffffffff610dcf16565b6001600160a01b038085166000908152600260205260408082209390935590841681522054610c39908263ffffffff610e6616565b6001600160a01b0380841660008181526002602090815260409182902094909455805185815290519193928716926000805160206113e383398151915292918290030190a3505050565b6001600160a01b03811615801590610ca457506001600160a01b0381163014155b610cdf5760405162461bcd60e51b81526004018080602001828103825260548152602001806114286054913960600191505060405180910390fd5b7f00000000000000000000000000000000000000000000000000000000000000006001600160a01b0316816001600160a01b031614158015610d5357507f00000000000000000000000000000000000000000000000000000000000000006001600160a01b0316816001600160a01b031614155b8015610d9157507f00000000000000000000000000000000000000000000000000000000000000006001600160a01b0316816001600160a01b031614155b610dcc5760405162461bcd60e51b815260040180806020018281038252605781526020018061138c6057913960600191505060405180910390fd5b50565b60008184841115610e5e5760405162461bcd60e51b81526004018080602001828103825283818151815260200191508051906020019080838360005b83811015610e23578181015183820152602001610e0b565b50505050905090810190601f168015610e505780820380516001836020036101000a031916815260200191505b509250505060405180910390fd5b505050900390565b600082820183811015610ec0576040805162461bcd60e51b815260206004820152601b60248201527f536166654d6174683a206164646974696f6e206f766572666c6f770000000000604482015290519081900360640190fd5b9392505050565b336001600160a01b037f00000000000000000000000000000000000000000000000000000000000000001614610b9f5760405162461bcd60e51b815260040180806020018281038252602b815260200180611339602b913960400191505060405180910390fd5b6001600160a01b038216610f3e57fe5b600054610f51908263ffffffff610e6616565b60009081556001600160a01b038316815260026020526040902054610f7c908263ffffffff610e6616565b6001600160a01b03831660008181526002602090815260408083209490945583518581529351929391926000805160206113e38339815191529281900390910190a35050565b336001600160a01b037f00000000000000000000000000000000000000000000000000000000000000001614806110215750336001600160a01b037f000000000000000000000000000000000000000000000000000000000000000016145b806110545750336001600160a01b037f000000000000000000000000000000000000000000000000000000000000000016145b610b9f5760405162461bcd60e51b815260040180806020018281038252604d8152602001806112c7604d913960600191505060405180910390fd5b6001600160a01b03821661109f57fe5b6110e28160405180606001604052806022815260200161127f602291396001600160a01b038516600090815260026020526040902054919063ffffffff610dcf16565b6001600160a01b0383166000908152600260205260408120919091555461110f908263ffffffff61120616565b60009081556040805183815290516001600160a01b038516916000805160206113e3833981519152919081900360200190a35050565b336001600160a01b037f00000000000000000000000000000000000000000000000000000000000000001614610b9f5760405162461bcd60e51b81526004018080602001828103825260258152602001806113146025913960400191505060405180910390fd5b4690565b60008383836111bd6111ac565b6040805160208082019690965280820194909452606084019290925260808301523060a0808401919091528151808403909101815260c090920190528051910120949350505050565b6000610ec083836040518060400160405280601e81526020017f536166654d6174683a207375627472616374696f6e206f766572666c6f770000815250610dcf56fe4c5553443a2043616c6c6572206973206e6569746865722054726f76654d616e61676572206e6f722053746162696c697479506f6f6c45524332303a206275726e20616d6f756e7420657863656564732062616c616e636545524332303a207472616e7366657220616d6f756e7420657863656564732062616c616e63654c5553443a2043616c6c6572206973206e65697468657220426f72726f7765724f7065726174696f6e73206e6f722054726f76654d616e61676572206e6f722053746162696c697479506f6f6c4c5553443a2043616c6c6572206973206e6f74207468652053746162696c697479506f6f6c4c555344546f6b656e3a2043616c6c6572206973206e6f7420426f72726f7765724f7065726174696f6e7345524332303a207472616e7366657220616d6f756e74206578636565647320616c6c6f77616e63654c5553443a2043616e6e6f74207472616e7366657220746f6b656e73206469726563746c7920746f207468652053746162696c697479506f6f6c2c2054726f76654d616e61676572206f7220426f72726f7765724f7073ddf252ad1be2c89b69c2b068fc378daa952ba7f163c4a11628f55a4df523b3ef45524332303a2064656372656173656420616c6c6f77616e63652062656c6f77207a65726f4c5553443a2043616e6e6f74207472616e7366657220746f6b656e73206469726563746c7920746f20746865204c55534420746f6b656e20636f6e7472616374206f7220746865207a65726f2061646472657373a26469706673582212208a2df6892bc70d0dd7a4ac23dc9f6e0f4ca5c0a9e36f4f8064ebb4cbfca4212764736f6c634300060b0033608060405234801561001057600080fd5b50600080546001600160a01b0319163390811782556040519091907f8be0079c531659141344cd1fd0a4f28419497f9722a3daafe3b4186f6b6457e0908290a3610a7a8061005f6000396000f3fe6080604052600436106100955760003560e01c80638f32d59b116100595780638f32d59b146101ac5780639b56d6c9146101d5578063b08bc72214610208578063b32beb5b1461021d578063b7f8cf9b14610250576100ba565b806314f6c3be146100bf578063363bf964146100e65780633f10abab1461012d5780635a4d28bb146101665780638da5cb5b14610197576100ba565b366100ba576100a2610265565b6004546100b5903463ffffffff6102b016565b600455005b600080fd5b3480156100cb57600080fd5b506100d4610311565b60408051918252519081900360200190f35b3480156100f257600080fd5b5061012b6004803603606081101561010957600080fd5b506001600160a01b038135811691602081013582169160409091013516610317565b005b34801561013957600080fd5b5061012b6004803603604081101561015057600080fd5b506001600160a01b03813516906020013561047d565b34801561017257600080fd5b5061017b610509565b604080516001600160a01b039092168252519081900360200190f35b3480156101a357600080fd5b5061017b610518565b3480156101b857600080fd5b506101c1610527565b604080519115158252519081900360200190f35b3480156101e157600080fd5b506100d4600480360360208110156101f857600080fd5b50356001600160a01b0316610538565b34801561021457600080fd5b5061017b610553565b34801561022957600080fd5b5061012b6004803603602081101561024057600080fd5b50356001600160a01b0316610562565b34801561025c57600080fd5b5061017b6106f7565b6003546001600160a01b031633146102ae5760405162461bcd60e51b815260040180806020018281038252602a81526020018061099b602a913960400191505060405180910390fd5b565b60008282018381101561030a576040805162461bcd60e51b815260206004820152601b60248201527f536166654d6174683a206164646974696f6e206f766572666c6f770000000000604482015290519081900360640190fd5b9392505050565b60045490565b61031f610527565b610370576040805162461bcd60e51b815260206004820181905260248201527f4f776e61626c653a2063616c6c6572206973206e6f7420746865206f776e6572604482015290519081900360640190fd5b61037983610706565b61038282610706565b61038b81610706565b600180546001600160a01b038086166001600160a01b0319928316811790935560028054868316908416179055600380549185169190921617905560408051918252517f3ca631ffcd2a9b5d9ae18543fc82f58eb4ca33af9e6ab01b7a8e95331e6ed9859181900360200190a1604080516001600160a01b038416815290517f143219c9e69b09e07e095fcc889b43d8f46ca892bba65f08dc3a0050869a56789181900360200190a1604080516001600160a01b038316815290517f78f058b189175430c48dc02699e3a0031ea4ff781536dc2fab847de4babdd8829181900360200190a16104786107b9565b505050565b610485610803565b6001600160a01b0382166000908152600560205260408120546104ae908363ffffffff6102b016565b6001600160a01b0384166000818152600560209081526040918290208490558151848152915193945091927ff0393a34d05e6567686ad4e097f9d9d2781565957394f1f0d984e5d8e6378f20929181900390910190a2505050565b6002546001600160a01b031681565b6000546001600160a01b031690565b6000546001600160a01b0316331490565b6001600160a01b031660009081526005602052604090205490565b6003546001600160a01b031681565b61056a61084c565b6001600160a01b038116600090815260056020526040902054806105bf5760405162461bcd60e51b815260040180806020018281038252603181526020018061096a6031913960400191505060405180910390fd5b6001600160a01b03821660008181526005602090815260408083208390558051928352517ff0393a34d05e6567686ad4e097f9d9d2781565957394f1f0d984e5d8e6378f209281900390910190a2600454610620908263ffffffff61089516565b600455604080516001600160a01b03841681526020810183905281517f6109e2559dfa766aaec7118351d48a523f0a4157f49c8d68749c8ac41318ad12929181900390910190a16040516000906001600160a01b0384169083908381818185875af1925050503d80600081146106b2576040519150601f19603f3d011682016040523d82523d6000602084013e6106b7565b606091505b50509050806104785760405162461bcd60e51b81526004018080602001828103825260238152602001806109c56023913960400191505060405180910390fd5b6001546001600160a01b031681565b6001600160a01b038116610761576040805162461bcd60e51b815260206004820152601e60248201527f4163636f756e742063616e6e6f74206265207a65726f20616464726573730000604482015290519081900360640190fd5b803b806107b5576040805162461bcd60e51b815260206004820181905260248201527f4163636f756e7420636f64652073697a652063616e6e6f74206265207a65726f604482015290519081900360640190fd5b5050565b600080546040516001600160a01b03909116907f8be0079c531659141344cd1fd0a4f28419497f9722a3daafe3b4186f6b6457e0908390a3600080546001600160a01b0319169055565b6002546001600160a01b031633146102ae5760405162461bcd60e51b815260040180806020018281038252602b815260200180610a1a602b913960400191505060405180910390fd5b6001546001600160a01b031633146102ae5760405162461bcd60e51b81526004018080602001828103825260328152602001806109e86032913960400191505060405180910390fd5b600061030a83836040518060400160405280601e81526020017f536166654d6174683a207375627472616374696f6e206f766572666c6f770000815250600081848411156109615760405162461bcd60e51b81526004018080602001828103825283818151815260200191508051906020019080838360005b8381101561092657818101518382015260200161090e565b50505050905090810190601f1680156109535780820380516001836020036101000a031916815260200191505b509250505060405180910390fd5b50505090039056fe436f6c6c537572706c7573506f6f6c3a204e6f20636f6c6c61746572616c20617661696c61626c6520746f20636c61696d436f6c6c537572706c7573506f6f6c3a2043616c6c6572206973206e6f742041637469766520506f6f6c436f6c6c537572706c7573506f6f6c3a2073656e64696e6720455448206661696c6564436f6c6c537572706c7573506f6f6c3a2043616c6c6572206973206e6f7420426f72726f776572204f7065726174696f6e73436f6c6c537572706c7573506f6f6c3a2043616c6c6572206973206e6f742054726f76654d616e61676572a26469706673582212200be024d04a4fa011c951f653f69071970e249b88834ea3ea0f11a3fd8c73ba9964736f6c634300060b00336080604052680ad78ebc5ac620000060005534801561001d57600080fd5b5060cb8061002c6000396000f3fe6080604052348015600f57600080fd5b5060043610603c5760003560e01c80630fdb11cf14604157806391b7f5ed14605957806398d5fdca146041575b600080fd5b60476087565b60408051918252519081900360200190f35b607360048036036020811015606d57600080fd5b5035608d565b604080519115158252519081900360200190f35b60005490565b60005560019056fea264697066735822122082099becd2a04691a04b7f0f325d42e8fb5724c72b63dc787802032b542466a864736f6c634300060b0033608060405234801561001057600080fd5b50600080546001600160a01b0319163390811782556040519091907f8be0079c531659141344cd1fd0a4f28419497f9722a3daafe3b4186f6b6457e0908290a361179e8061005f6000396000f3fe608060405234801561001057600080fd5b506004361061012c5760003560e01c8063681fe70c116100ad578063b72703ac11610071578063b72703ac1461035f578063b7f8cf9b14610385578063babd3d9a1461038d578063de8fa43114610395578063f376d7981461039d5761012c565b8063681fe70c146102e757806373d4a13a146102ef578063765e0159146103295780638da5cb5b1461034f5780638f32d59b146103575761012c565b8063416980dc116100f4578063416980dc1461020957806346f7cf87146102635780634d6228311461029f5780635dbe47e8146102a757806363e1d57c146102cd5761012c565b80631e2231431461013157806329092d0e146101555780632be212601461017d5780633d83908a146101b95780633fce12d5146101c1575b600080fd5b6101396103d1565b604080516001600160a01b039092168252519081900360200190f35b61017b6004803603602081101561016b57600080fd5b50356001600160a01b03166103e0565b005b61017b6004803603608081101561019357600080fd5b506001600160a01b038135811691602081013591604082013581169160600135166103f4565b6101396104a9565b6101f5600480360360608110156101d757600080fd5b508035906001600160a01b03602082013581169160400135166104b8565b604080519115158252519081900360200190f35b61023d6004803603606081101561021f57600080fd5b508035906001600160a01b03602082013581169160400135166104db565b604080516001600160a01b03938416815291909216602082015281519081900390910190f35b61017b6004803603608081101561027957600080fd5b506001600160a01b03813581169160208101359160408201358116916060013516610505565b61013961051a565b6101f5600480360360208110156102bd57600080fd5b50356001600160a01b0316610529565b6102d5610547565b60408051918252519081900360200190f35b6101f561054d565b6102f7610554565b604080516001600160a01b03958616815293909416602084015282840191909152606082015290519081900360800190f35b6101396004803603602081101561033f57600080fd5b50356001600160a01b0316610573565b610139610596565b6101f56105a5565b6101396004803603602081101561037557600080fd5b50356001600160a01b03166105b6565b6101396105d7565b6101f56105e6565b6102d56105f0565b61017b600480360360608110156103b357600080fd5b508035906001600160a01b03602082013581169160400135166105f6565b6003546001600160a01b031690565b6103e861074e565b6103f181610799565b50565b6002546001600160a01b031661040981610991565b61041285610529565b61044d5760405162461bcd60e51b815260040180806020018281038252602a8152602001806116a1602a913960400191505060405180910390fd5b6000841161048c5760405162461bcd60e51b81526004018080602001828103825260238152602001806117466023913960400191505060405180910390fd5b61049585610799565b6104a281868686866109ed565b5050505050565b6002546001600160a01b031681565b6002546000906104d3906001600160a01b0316858585610d2d565b949350505050565b60025460009081906104f8906001600160a01b0316868686610fd4565b915091505b935093915050565b6002546001600160a01b031661049581610991565b6004546001600160a01b031690565b6001600160a01b031660009081526007602052604090205460ff1690565b60055490565b6006541590565b6003546004546005546006546001600160a01b03938416939092169184565b6001600160a01b0390811660009081526007602052604090205461010090041690565b6000546001600160a01b031690565b6000546001600160a01b0316331490565b6001600160a01b039081166000908152600760205260409020600101541690565b6001546001600160a01b031681565b6005546006541490565b60065490565b6105fe6105a5565b61064f576040805162461bcd60e51b815260206004820181905260248201527f4f776e61626c653a2063616c6c6572206973206e6f7420746865206f776e6572604482015290519081900360640190fd5b6000831161068e5760405162461bcd60e51b81526004018080602001828103825260228152602001806116cb6022913960400191505060405180910390fd5b610697826111c1565b6106a0816111c1565b6005839055600280546001600160a01b038085166001600160a01b03199283168117909355600180549185169190921617905560408051918252517f143219c9e69b09e07e095fcc889b43d8f46ca892bba65f08dc3a0050869a56789181900360200190a1604080516001600160a01b038316815290517f3ca631ffcd2a9b5d9ae18543fc82f58eb4ca33af9e6ab01b7a8e95331e6ed9859181900360200190a1610749611274565b505050565b6002546001600160a01b031633146107975760405162461bcd60e51b815260040180806020018281038252602c8152602001806116ed602c913960400191505060405180910390fd5b565b6107a281610529565b6107dd5760405162461bcd60e51b815260040180806020018281038252602a8152602001806116a1602a913960400191505060405180910390fd5b60065460011015610923576003546001600160a01b038281169116141561084c576001600160a01b03818116600090815260076020526040808220546003805461010090920485166001600160a01b03199283161790819055909316825290206001018054909116905561091e565b6004546001600160a01b03828116911614156108b3576001600160a01b0380821660009081526007602052604080822060010154600480546001600160a01b03191691851691909117908190559092168152208054610100600160a81b031916905561091e565b6001600160a01b038082166000908152600760205260408082208054600180830180548716865284862080546101009485900489168502610100600160a81b03199091161790555492549190910485168452919092200180546001600160a01b031916919092161790555b610940565b600380546001600160a01b03199081169091556004805490911690555b6001600160a01b038116600090815260076020526040902080546001600160a81b0319168155600190810180546001600160a01b031916905560065461098b9163ffffffff6112be16565b60065550565b6001546001600160a01b03163314806109b25750336001600160a01b038216145b6103f15760405162461bcd60e51b815260040180806020018281038252602d815260200180611719602d913960400191505060405180910390fd5b6109f56105e6565b15610a47576040805162461bcd60e51b815260206004820152601a60248201527f536f7274656454726f7665733a204c6973742069732066756c6c000000000000604482015290519081900360640190fd5b610a5084610529565b15610a8c5760405162461bcd60e51b815260040180806020018281038252602c815260200180611675602c913960400191505060405180910390fd5b6001600160a01b038416610ae7576040805162461bcd60e51b815260206004820152601f60248201527f536f7274656454726f7665733a2049642063616e6e6f74206265207a65726f00604482015290519081900360640190fd5b60008311610b265760405162461bcd60e51b81526004018080602001828103825260238152602001806117466023913960400191505060405180910390fd5b8181610b3487868484610d2d565b610b4a57610b4487868484610fd4565b90925090505b6001600160a01b038087166000908152600760205260409020805460ff191660011790558216158015610b8457506001600160a01b038116155b15610bb957600380546001600160a01b0388166001600160a01b03199182168117909255600480549091169091179055610d0d565b6001600160a01b038216610c2d57600380546001600160a01b03888116600081815260076020526040808220805495851661010002610100600160a81b0319909616959095179094558454909216825291902060010180546001600160a01b03199081168317909155825416179055610d0d565b6001600160a01b038116610c9d57600480546001600160a01b0388811660008181526007602052604080822060010180549585166001600160a01b031996871617905585549093168152919091208054610100600160a81b03191661010083021790558254909116179055610d0d565b6001600160a01b038087166000818152600760205260408082208054858716610100818102610100600160a81b031993841617845560019384018054988b166001600160a01b0319998a168117909155865284862080549188029190931617909155835291200180549092161790555b600654610d2190600163ffffffff61130716565b60065550505050505050565b60006001600160a01b038316158015610d4d57506001600160a01b038216155b15610d6157610d5a61054d565b90506104d3565b6001600160a01b038316610e13576003546001600160a01b038381169116148015610d5a5750846001600160a01b031663b0d8e181836040518263ffffffff1660e01b815260040180826001600160a01b03166001600160a01b0316815260200191505060206040518083038186803b158015610ddd57600080fd5b505afa158015610df1573d6000803e3d6000fd5b505050506040513d6020811015610e0757600080fd5b505184101590506104d3565b6001600160a01b038216610ec5576004546001600160a01b038481169116148015610d5a5750846001600160a01b031663b0d8e181846040518263ffffffff1660e01b815260040180826001600160a01b03166001600160a01b0316815260200191505060206040518083038186803b158015610e8f57600080fd5b505afa158015610ea3573d6000803e3d6000fd5b505050506040513d6020811015610eb957600080fd5b505184111590506104d3565b6001600160a01b0383811660009081526007602052604090205461010090048116908316148015610f77575083856001600160a01b031663b0d8e181856040518263ffffffff1660e01b815260040180826001600160a01b03166001600160a01b0316815260200191505060206040518083038186803b158015610f4857600080fd5b505afa158015610f5c573d6000803e3d6000fd5b505050506040513d6020811015610f7257600080fd5b505110155b8015610d5a5750846001600160a01b031663b0d8e181836040518263ffffffff1660e01b815260040180826001600160a01b03166001600160a01b0316815260200191505060206040518083038186803b158015610ddd57600080fd5b60008083836001600160a01b0382161561108757610ff182610529565b158061107d5750876001600160a01b031663b0d8e181836040518263ffffffff1660e01b815260040180826001600160a01b03166001600160a01b0316815260200191505060206040518083038186803b15801561104e57600080fd5b505afa158015611062573d6000803e3d6000fd5b505050506040513d602081101561107857600080fd5b505187115b1561108757600091505b6001600160a01b038116156111345761109f81610529565b158061112b5750876001600160a01b031663b0d8e181826040518263ffffffff1660e01b815260040180826001600160a01b03166001600160a01b0316815260200191505060206040518083038186803b1580156110fc57600080fd5b505afa158015611110573d6000803e3d6000fd5b505050506040513d602081101561112657600080fd5b505187105b15611134575060005b6001600160a01b03821615801561115257506001600160a01b038116155b1561117b5760035461117090899089906001600160a01b0316611361565b9350935050506111b8565b6001600160a01b038216611194576111708888836114a2565b6001600160a01b0381166111ad57611170888884611361565b611170888884611361565b94509492505050565b6001600160a01b03811661121c576040805162461bcd60e51b815260206004820152601e60248201527f4163636f756e742063616e6e6f74206265207a65726f20616464726573730000604482015290519081900360640190fd5b803b80611270576040805162461bcd60e51b815260206004820181905260248201527f4163636f756e7420636f64652073697a652063616e6e6f74206265207a65726f604482015290519081900360640190fd5b5050565b600080546040516001600160a01b03909116907f8be0079c531659141344cd1fd0a4f28419497f9722a3daafe3b4186f6b6457e0908390a3600080546001600160a01b0319169055565b600061130083836040518060400160405280601e81526020017f536166654d6174683a207375627472616374696f6e206f766572666c6f7700008152506115dd565b9392505050565b600082820183811015611300576040805162461bcd60e51b815260206004820152601b60248201527f536166654d6174683a206164646974696f6e206f766572666c6f770000000000604482015290519081900360640190fd5b60035460009081906001600160a01b0384811691161480156114045750846001600160a01b031663b0d8e181846040518263ffffffff1660e01b815260040180826001600160a01b03166001600160a01b0316815260200191505060206040518083038186803b1580156113d457600080fd5b505afa1580156113e8573d6000803e3d6000fd5b505050506040513d60208110156113fe57600080fd5b50518410155b15611414575060009050816104fd565b6001600160a01b038084166000908152600760205260409020548491610100909104165b6001600160a01b03821615801590611459575061145787878484610d2d565b155b1561149657506001600160a01b03908116600090815260076020526040808220546101009081900484168084529190922054909291900416611438565b90969095509350505050565b60045460009081906001600160a01b0384811691161480156115455750846001600160a01b031663b0d8e181846040518263ffffffff1660e01b815260040180826001600160a01b03166001600160a01b0316815260200191505060206040518083038186803b15801561151557600080fd5b505afa158015611529573d6000803e3d6000fd5b505050506040513d602081101561153f57600080fd5b50518411155b15611555575081905060006104fd565b6001600160a01b038084166000908152600760205260409020600101548491165b6001600160a01b03821615801590611597575061159587878385610d2d565b155b156115d257506001600160a01b0390811660009081526007602052604080822060019081015484168084529190922090910154909116611576565b969095509350505050565b6000818484111561166c5760405162461bcd60e51b81526004018080602001828103825283818151815260200191508051906020019080838360005b83811015611631578181015183820152602001611619565b50505050905090810190601f16801561165e5780820380516001836020036101000a031916815260200191505b509250505060405180910390fd5b50505090039056fe536f7274656454726f7665733a204c69737420616c726561647920636f6e7461696e7320746865206e6f6465536f7274656454726f7665733a204c69737420646f6573206e6f7420636f6e7461696e20746865206964536f7274656454726f7665733a2053697a652063616ee2809974206265207a65726f536f7274656454726f7665733a2043616c6c6572206973206e6f74207468652054726f76654d616e61676572536f7274656454726f7665733a2043616c6c6572206973206e65697468657220424f206e6f722054726f76654d536f7274656454726f7665733a204e494352206d75737420626520706f736974697665a2646970667358221220872b3f4d9051c92d606656361443c331b6ed408ac8139aebedaf9aa426d88ec564736f6c634300060b0033608060405234801561001057600080fd5b50604051610e35380380610e358339818101604052608081101561003357600080fd5b50805160208201516040830151606090930151600080546001600160a01b039485166001600160a01b0319918216179091556001805493851693821693909317909255600280549484169483169490941790935560038054929093169116179055610d92806100a36000396000f3fe6080604052600436106100ed5760003560e01c80637a97d838116100855780637a97d8381461034f5780637bbb0f5e1461039057806391134731146103d1578063cc51a6c214610413578063cf83544f1461044c578063d466e4eb14610485578063d94bcec2146104be578063f47a1ea714610501578063fb8d67fc1461052b576100f4565b806332e859b9146100f957806335b101791461012f578063390b5f271461018a5780634903a3dd146101d75780634afbac51146101ec5780634c36240b146102695780634d37261f146102a2578063641b09b6146102d5578063650b559c146102ff576100f4565b366100f457005b600080fd5b61012d6004803603606081101561010f57600080fd5b508035906001600160a01b0360208201358116916040013516610574565b005b34801561013b57600080fd5b5061012d600480360360e081101561015257600080fd5b508035906001600160a01b03602082013581169160408101358216916060820135169060808101359060a08101359060c001356105eb565b34801561019657600080fd5b506101c3600480360360408110156101ad57600080fd5b506001600160a01b038135169060200135610683565b604080519115158252519081900360200190f35b3480156101e357600080fd5b5061012d61070f565b3480156101f857600080fd5b5061012d6004803603602081101561020f57600080fd5b81019060208101813564010000000081111561022a57600080fd5b82018360208201111561023c57600080fd5b8035906020019184602083028401116401000000008311171561025e57600080fd5b509092509050610779565b34801561027557600080fd5b5061012d6004803603604081101561028c57600080fd5b50803590602001356001600160a01b0316610812565b3480156102ae57600080fd5b5061012d600480360360208110156102c557600080fd5b50356001600160a01b0316610867565b3480156102e157600080fd5b5061012d600480360360208110156102f857600080fd5b50356108cd565b61012d600480360360e081101561031557600080fd5b5080359060208101359060408101359060608101351515906001600160a01b03608082013581169160a08101359091169060c0013561091a565b34801561035b57600080fd5b5061012d6004803603606081101561037257600080fd5b508035906001600160a01b03602082013581169160400135166109b2565b34801561039c57600080fd5b5061012d600480360360608110156103b357600080fd5b508035906001600160a01b0360208201358116916040013516610a2c565b61012d600480360360a08110156103e757600080fd5b508035906020810135906001600160a01b03604082013581169160608101359091169060800135610a89565b34801561041f57600080fd5b506101c36004803603604081101561043657600080fd5b506001600160a01b038135169060200135610b10565b34801561045857600080fd5b506101c36004803603604081101561046f57600080fd5b506001600160a01b038135169060200135610b69565b34801561049157600080fd5b506101c3600480360360408110156104a857600080fd5b506001600160a01b038135169060200135610bc2565b3480156104ca57600080fd5b506101c3600480360360608110156104e157600080fd5b506001600160a01b03813581169160208101359091169060400135610c1b565b34801561050d57600080fd5b5061012d6004803603602081101561052457600080fd5b5035610cb0565b34801561053757600080fd5b5061012d6004803603608081101561054e57600080fd5b508035906001600160a01b03602082013581169160408101359091169060600135610cf8565b600154604080516368647db160e01b81526001600160a01b0385811660048301528481166024830152915191909216916368647db191869160448082019260009290919082900301818588803b1580156105cd57600080fd5b505af11580156105e1573d6000803e3d6000fd5b5050505050505050565b6000805460408051635e69ba9360e11b8152600481018b90526001600160a01b038a81166024830152898116604483015288811660648301526084820188905260a4820187905260c482018690529151919092169263bcd375269260e4808201939182900301818387803b15801561066257600080fd5b505af1158015610676573d6000803e3d6000fd5b5050505050505050505050565b6003546040805163a9059cbb60e01b81526001600160a01b038581166004830152602482018590529151600093929092169163a9059cbb9160448082019260209290919082900301818787803b1580156106dc57600080fd5b505af11580156106f0573d6000803e3d6000fd5b505050506040513d602081101561070657600080fd5b50519392505050565b600160009054906101000a90046001600160a01b03166001600160a01b0316630e704d506040518163ffffffff1660e01b8152600401600060405180830381600087803b15801561075f57600080fd5b505af1158015610773573d6000803e3d6000fd5b50505050565b600054604051631e8b1c2b60e01b8152602060048201818152602483018590526001600160a01b0390931692631e8b1c2b92869286929182916044909101908590850280828437600081840152601f19601f8201169050808301925050509350505050600060405180830381600087803b1580156107f657600080fd5b505af115801561080a573d6000803e3d6000fd5b505050505050565b60025460408051635f788d6560e01b8152600481018590526001600160a01b03848116602483015291519190921691635f788d6591604480830192600092919082900301818387803b1580156107f657600080fd5b60008054604080516305f0caad60e31b81526001600160a01b03858116600483015291519190921692632f865568926024808201939182900301818387803b1580156108b257600080fd5b505af11580156108c6573d6000803e3d6000fd5b5050505050565b60025460408051632e54bf9560e01b81526004810184905290516001600160a01b0390921691632e54bf959160248082019260009290919082900301818387803b1580156108b257600080fd5b60015460408051630635367960e51b815260048101849052602481018990526044810188905286151560648201526001600160a01b03868116608483015285811660a48301529151919092169163c6a6cf20918a9160c48082019260009290919082900301818588803b15801561099057600080fd5b505af11580156109a4573d6000803e3d6000fd5b505050505050505050505050565b600154604080516304491fa760e01b8152600481018690526001600160a01b0385811660248301528481166044830152915191909216916304491fa791606480830192600092919082900301818387803b158015610a0f57600080fd5b505af1158015610a23573d6000803e3d6000fd5b50505050505050565b6001546040805163154c09cf60e21b8152600481018690526001600160a01b038581166024830152848116604483015291519190921691635530273c91606480830192600092919082900301818387803b158015610a0f57600080fd5b6001546040805163860665b360e01b815260048101849052602481018790526001600160a01b03868116604483015285811660648301529151919092169163860665b391889160848082019260009290919082900301818588803b158015610af057600080fd5b505af1158015610b04573d6000803e3d6000fd5b50505050505050505050565b60035460408051633950935160e01b81526001600160a01b038581166004830152602482018590529151600093929092169163395093519160448082019260209290919082900301818787803b1580156106dc57600080fd5b6003546040805163095ea7b360e01b81526001600160a01b038581166004830152602482018590529151600093929092169163095ea7b39160448082019260209290919082900301818787803b1580156106dc57600080fd5b6003546040805163a457c2d760e01b81526001600160a01b038581166004830152602482018590529151600093929092169163a457c2d79160448082019260209290919082900301818787803b1580156106dc57600080fd5b600354604080516323b872dd60e01b81526001600160a01b038681166004830152858116602483015260448201859052915160009392909216916323b872dd9160648082019260209290919082900301818787803b158015610c7c57600080fd5b505af1158015610c90573d6000803e3d6000fd5b505050506040513d6020811015610ca657600080fd5b5051949350505050565b600080546040805163653d46e760e01b81526004810185905290516001600160a01b039092169263653d46e79260248084019382900301818387803b1580156108b257600080fd5b600154604080516302309cbf60e31b815260048101849052602481018790526001600160a01b038681166044830152858116606483015291519190921691631184e5f891608480830192600092919082900301818387803b1580156105cd57600080fdfea2646970667358221220360b8403203edd00729a3b476a8372752cc1c6b922743b2c98dde83f0faff1e064736f6c634300060b0033",
  "linkReferences": {},
  "deployedLinkReferences": {}
}