{
  "_format": "hh-sol-artifact-1",
  "contractName": "EchidnaTester",
  "sourceName": "contracts/TestContracts/EchidnaTester.sol",
  "abi": [
    {
      "inputs": [],
      "stateMutability": "payable",
      "type": "constructor"
    },
    {
      "inputs": [],
      "name": "GAS_POOL_ADDRESS",
      "outputs": [
        {
          "internalType": "address",
          "name": "",
          "type": "address"
        }
      ],
      "stateMutability": "view",
      "type": "function"
    },
    {
      "inputs": [],
      "name": "activePool",
      "outputs": [
        {
          "internalType": "contract ActivePool",
          "name": "",
          "type": "address"
        }
      ],
      "stateMutability": "view",
      "type": "function"
    },
    {
      "inputs": [
        {
          "internalType": "uint256",
          "name": "_i",
          "type": "uint256"
        },
        {
          "internalType": "uint256",
          "name": "_ETH",
          "type": "uint256"
        }
      ],
      "name": "addCollExt",
      "outputs": [],
      "stateMutability": "payable",
      "type": "function"
    },
    {
      "inputs": [
        {
          "internalType": "uint256",
          "name": "_i",
          "type": "uint256"
        },
        {
          "internalType": "uint256",
          "name": "_ETH",
          "type": "uint256"
        },
        {
          "internalType": "address",
          "name": "_hint",
          "type": "address"
        }
      ],
      "name": "addCollRawExt",
      "outputs": [],
      "stateMutability": "payable",
      "type": "function"
    },
    {
      "inputs": [
        {
          "internalType": "uint256",
          "name": "_i",
          "type": "uint256"
        },
        {
          "internalType": "uint256",
          "name": "_ETH",
          "type": "uint256"
        },
        {
          "internalType": "uint256",
          "name": "_collWithdrawal",
          "type": "uint256"
        },
        {
          "internalType": "uint256",
          "name": "_debtChange",
          "type": "uint256"
        },
        {
          "internalType": "bool",
          "name": "_isDebtIncrease",
          "type": "bool"
        }
      ],
      "name": "adjustTroveExt",
      "outputs": [],
      "stateMutability": "payable",
      "type": "function"
    },
    {
      "inputs": [
        {
          "internalType": "uint256",
          "name": "_i",
          "type": "uint256"
        },
        {
          "internalType": "uint256",
          "name": "_ETH",
          "type": "uint256"
        },
        {
          "internalType": "uint256",
          "name": "_collWithdrawal",
          "type": "uint256"
        },
        {
          "internalType": "uint256",
          "name": "_debtChange",
          "type": "uint256"
        },
        {
          "internalType": "bool",
          "name": "_isDebtIncrease",
          "type": "bool"
        },
        {
          "internalType": "address",
          "name": "_hint",
          "type": "address"
        }
      ],
      "name": "adjustTroveRawExt",
      "outputs": [],
      "stateMutability": "payable",
      "type": "function"
    },
    {
      "inputs": [
        {
          "internalType": "uint256",
          "name": "_i",
          "type": "uint256"
        },
        {
          "internalType": "address",
          "name": "spender",
          "type": "address"
        },
        {
          "internalType": "uint256",
          "name": "amount",
          "type": "uint256"
        }
      ],
      "name": "approveExt",
      "outputs": [
        {
          "internalType": "bool",
          "name": "",
          "type": "bool"
        }
      ],
      "stateMutability": "nonpayable",
      "type": "function"
    },
    {
      "inputs": [
        {
          "internalType": "uint256",
          "name": "_i",
          "type": "uint256"
        },
        {
          "internalType": "address[]",
          "name": "_troveArray",
          "type": "address[]"
        }
      ],
      "name": "batchLiquidateTrovesExt",
      "outputs": [],
      "stateMutability": "nonpayable",
      "type": "function"
    },
    {
      "inputs": [],
      "name": "borrowerOperations",
      "outputs": [
        {
          "internalType": "contract BorrowerOperations",
          "name": "",
          "type": "address"
        }
      ],
      "stateMutability": "view",
      "type": "function"
    },
    {
      "inputs": [
        {
          "internalType": "uint256",
          "name": "_i",
          "type": "uint256"
        }
      ],
      "name": "closeTroveExt",
      "outputs": [],
      "stateMutability": "nonpayable",
      "type": "function"
    },
    {
      "inputs": [],
      "name": "collSurplusPool",
      "outputs": [
        {
          "internalType": "contract CollSurplusPool",
          "name": "",
          "type": "address"
        }
      ],
      "stateMutability": "view",
      "type": "function"
    },
    {
      "inputs": [
        {
          "internalType": "uint256",
          "name": "_i",
          "type": "uint256"
        },
        {
          "internalType": "address",
          "name": "spender",
          "type": "address"
        },
        {
          "internalType": "uint256",
          "name": "subtractedValue",
          "type": "uint256"
        }
      ],
      "name": "decreaseAllowanceExt",
      "outputs": [
        {
          "internalType": "bool",
          "name": "",
          "type": "bool"
        }
      ],
      "stateMutability": "nonpayable",
      "type": "function"
    },
    {
      "inputs": [],
      "name": "defaultPool",
      "outputs": [
        {
          "internalType": "contract DefaultPool",
          "name": "",
          "type": "address"
        }
      ],
      "stateMutability": "view",
      "type": "function"
    },
    {
      "inputs": [
        {
          "internalType": "uint256",
          "name": "",
          "type": "uint256"
        }
      ],
      "name": "echidnaProxies",
      "outputs": [
        {
          "internalType": "contract EchidnaProxy",
          "name": "",
          "type": "address"
        }
      ],
      "stateMutability": "view",
      "type": "function"
    },
    {
      "inputs": [],
      "name": "echidna_ETH_balances",
      "outputs": [
        {
          "internalType": "bool",
          "name": "",
          "type": "bool"
        }
      ],
      "stateMutability": "view",
      "type": "function"
    },
    {
      "inputs": [],
      "name": "echidna_LUSD_global_balances",
      "outputs": [
        {
          "internalType": "bool",
          "name": "",
          "type": "bool"
        }
      ],
      "stateMutability": "view",
      "type": "function"
    },
    {
      "inputs": [],
      "name": "echidna_canary_active_pool_balance",
      "outputs": [
        {
          "internalType": "bool",
          "name": "",
          "type": "bool"
        }
      ],
      "stateMutability": "view",
      "type": "function"
    },
    {
      "inputs": [],
      "name": "echidna_canary_number_of_troves",
      "outputs": [
        {
          "internalType": "bool",
          "name": "",
          "type": "bool"
        }
      ],
      "stateMutability": "view",
      "type": "function"
    },
    {
      "inputs": [],
      "name": "echidna_price",
      "outputs": [
        {
          "internalType": "bool",
          "name": "",
          "type": "bool"
        }
      ],
      "stateMutability": "view",
      "type": "function"
    },
    {
      "inputs": [],
      "name": "echidna_trove_properties",
      "outputs": [
        {
          "internalType": "bool",
          "name": "",
          "type": "bool"
        }
      ],
      "stateMutability": "view",
      "type": "function"
    },
    {
      "inputs": [],
      "name": "echidna_troves_order",
      "outputs": [
        {
          "internalType": "bool",
          "name": "",
          "type": "bool"
        }
      ],
      "stateMutability": "view",
      "type": "function"
    },
    {
      "inputs": [
        {
          "internalType": "uint256",
          "name": "_i",
          "type": "uint256"
        },
        {
          "internalType": "address",
          "name": "spender",
          "type": "address"
        },
        {
          "internalType": "uint256",
          "name": "addedValue",
          "type": "uint256"
        }
      ],
      "name": "increaseAllowanceExt",
      "outputs": [
        {
          "internalType": "bool",
          "name": "",
          "type": "bool"
        }
      ],
      "stateMutability": "nonpayable",
      "type": "function"
    },
    {
      "inputs": [
        {
          "internalType": "uint256",
          "name": "_i",
          "type": "uint256"
        },
        {
          "internalType": "address",
          "name": "_user",
          "type": "address"
        }
      ],
      "name": "liquidateExt",
      "outputs": [],
      "stateMutability": "nonpayable",
      "type": "function"
    },
    {
      "inputs": [
        {
          "internalType": "uint256",
          "name": "_i",
          "type": "uint256"
        },
        {
          "internalType": "uint256",
          "name": "_n",
          "type": "uint256"
        }
      ],
      "name": "liquidateTrovesExt",
      "outputs": [],
      "stateMutability": "nonpayable",
      "type": "function"
    },
    {
      "inputs": [],
      "name": "lusdToken",
      "outputs": [
        {
          "internalType": "contract LUSDToken",
          "name": "",
          "type": "address"
        }
      ],
      "stateMutability": "view",
      "type": "function"
    },
    {
      "inputs": [
        {
          "internalType": "uint256",
          "name": "_i",
          "type": "uint256"
        },
        {
          "internalType": "uint256",
          "name": "_ETH",
          "type": "uint256"
        },
        {
          "internalType": "uint256",
          "name": "_LUSDAmount",
          "type": "uint256"
        }
      ],
      "name": "openTroveExt",
      "outputs": [],
      "stateMutability": "payable",
      "type": "function"
    },
    {
      "inputs": [
        {
          "internalType": "uint256",
          "name": "_i",
          "type": "uint256"
        },
        {
          "internalType": "uint256",
          "name": "_ETH",
          "type": "uint256"
        },
        {
          "internalType": "uint256",
          "name": "_LUSDAmount",
          "type": "uint256"
        },
        {
          "internalType": "address",
          "name": "_hint",
          "type": "address"
        }
      ],
      "name": "openTroveRawExt",
      "outputs": [],
      "stateMutability": "payable",
      "type": "function"
    },
    {
      "inputs": [
        {
          "internalType": "uint256",
          "name": "_i",
          "type": "uint256"
        },
        {
          "internalType": "uint256",
          "name": "_amount",
          "type": "uint256"
        },
        {
          "internalType": "address",
          "name": "_frontEndTag",
          "type": "address"
        }
      ],
      "name": "provideToSPExt",
      "outputs": [],
      "stateMutability": "nonpayable",
      "type": "function"
    },
    {
      "inputs": [
        {
          "internalType": "uint256",
          "name": "_i",
          "type": "uint256"
        },
        {
          "internalType": "uint256",
          "name": "_LUSDAmount",
          "type": "uint256"
        },
        {
          "internalType": "address",
          "name": "_firstRedemptionHint",
          "type": "address"
        },
        {
          "internalType": "address",
          "name": "_partialRedemptionHint",
          "type": "address"
        },
        {
          "internalType": "uint256",
          "name": "_partialRedemptionHintICR",
          "type": "uint256"
        }
      ],
      "name": "redeemCollateralExt",
      "outputs": [],
      "stateMutability": "nonpayable",
      "type": "function"
    },
    {
      "inputs": [
        {
          "internalType": "uint256",
          "name": "_i",
          "type": "uint256"
        },
        {
          "internalType": "uint256",
          "name": "_amount",
          "type": "uint256"
        },
        {
          "internalType": "address",
          "name": "_hint",
          "type": "address"
        }
      ],
      "name": "repayLUSDExt",
      "outputs": [],
      "stateMutability": "nonpayable",
      "type": "function"
    },
    {
      "inputs": [
        {
          "internalType": "uint256",
          "name": "_price",
          "type": "uint256"
        }
      ],
      "name": "setPriceExt",
      "outputs": [],
      "stateMutability": "nonpayable",
      "type": "function"
    },
    {
      "inputs": [],
      "name": "stabilityPool",
      "outputs": [
        {
          "internalType": "contract StabilityPool",
          "name": "",
          "type": "address"
        }
      ],
      "stateMutability": "view",
      "type": "function"
    },
    {
      "inputs": [
        {
          "internalType": "uint256",
          "name": "_i",
          "type": "uint256"
        },
        {
          "internalType": "address",
          "name": "recipient",
          "type": "address"
        },
        {
          "internalType": "uint256",
          "name": "amount",
          "type": "uint256"
        }
      ],
      "name": "transferExt",
      "outputs": [
        {
          "internalType": "bool",
          "name": "",
          "type": "bool"
        }
      ],
      "stateMutability": "nonpayable",
      "type": "function"
    },
    {
      "inputs": [
        {
          "internalType": "uint256",
          "name": "_i",
          "type": "uint256"
        },
        {
          "internalType": "address",
          "name": "sender",
          "type": "address"
        },
        {
          "internalType": "address",
          "name": "recipient",
          "type": "address"
        },
        {
          "internalType": "uint256",
          "name": "amount",
          "type": "uint256"
        }
      ],
      "name": "transferFromExt",
      "outputs": [
        {
          "internalType": "bool",
          "name": "",
          "type": "bool"
        }
      ],
      "stateMutability": "nonpayable",
      "type": "function"
    },
    {
      "inputs": [],
      "name": "troveManager",
      "outputs": [
        {
          "internalType": "contract TroveManager",
          "name": "",
          "type": "address"
        }
      ],
      "stateMutability": "view",
      "type": "function"
    },
    {
      "inputs": [
        {
          "internalType": "uint256",
          "name": "_i",
          "type": "uint256"
        },
        {
          "internalType": "uint256",
          "name": "_amount",
          "type": "uint256"
        },
        {
          "internalType": "address",
          "name": "_hint",
          "type": "address"
        }
      ],
      "name": "withdrawCollExt",
      "outputs": [],
      "stateMutability": "nonpayable",
      "type": "function"
    },
    {
      "inputs": [
        {
          "internalType": "uint256",
          "name": "_i",
          "type": "uint256"
        },
        {
          "internalType": "uint256",
          "name": "_amount",
          "type": "uint256"
        }
      ],
      "name": "withdrawFromSPExt",
      "outputs": [],
      "stateMutability": "nonpayable",
      "type": "function"
    },
    {
      "inputs": [
        {
          "internalType": "uint256",
          "name": "_i",
          "type": "uint256"
        },
        {
          "internalType": "uint256",
          "name": "_amount",
          "type": "uint256"
        },
        {
          "internalType": "address",
          "name": "_hint",
          "type": "address"
        }
      ],
      "name": "withdrawLUSDExt",
      "outputs": [],
      "stateMutability": "nonpayable",
      "type": "function"
    }
  ],
  "bytecode": "0x6080604052604051620000129062000adf565b604051809103906000f0801580156200002f573d6000803e3d6000fd5b50600480546001600160a01b0319166001600160a01b03929092169190911790556040516200005e9062000aed565b604051809103906000f0801580156200007b573d6000803e3d6000fd5b50600580546001600160a01b0319166001600160a01b0392909216919091179055604051620000aa9062000afb565b604051809103906000f080158015620000c7573d6000803e3d6000fd5b50600680546001600160a01b0319166001600160a01b0392909216919091179055604051620000f69062000b09565b604051809103906000f08015801562000113573d6000803e3d6000fd5b50600780546001600160a01b0319166001600160a01b0392909216919091179055604051620001429062000b17565b604051809103906000f0801580156200015f573d6000803e3d6000fd5b50600880546001600160a01b0319166001600160a01b039283161790819055600454600554604051918416939283169216906200019c9062000b25565b6001600160a01b03938416815291831660208301529091166040808301919091525190819003606001906000f080158015620001dc573d6000803e3d6000fd5b50600a80546001600160a01b0319166001600160a01b03929092169190911790556040516200020b9062000b33565b604051809103906000f08015801562000228573d6000803e3d6000fd5b50600980546001600160a01b0319166001600160a01b0392909216919091179055604051620002579062000b41565b604051809103906000f08015801562000274573d6000803e3d6000fd5b50600b80546001600160a01b0319166001600160a01b0392909216919091179055604051620002a39062000b4e565b604051809103906000f080158015620002c0573d6000803e3d6000fd5b50600c80546001600160a01b0319166001600160a01b03928316179081905560048054600554600654600754600854600954600b54600a5460408051631989c81160e21b8152978c1699880199909952948a1660248701529289166044860152908816606485015287166084840152861660a4830152851660c482015292841660e484015260006101048401819052915193169263662720449261012480820193929182900301818387803b1580156200037957600080fd5b505af11580156200038e573d6000803e3d6000fd5b505060055460048054600654600754600854600954600b54600c54600a5460408051631989c81160e21b81526001600160a01b03998a169a81019a909a5296881660248a0152948716604489015292861660648801529085166084870152841660a4860152831660c4850152821660e484015260006101048401819052905191909316945063662720449350610124808301939282900301818387803b1580156200043857600080fd5b505af11580156200044d573d6000803e3d6000fd5b50506006546005546004805460085460075460408051634a945f8d60e01b81526001600160a01b0396871695810195909552928516602485015290841660448401528316606483015251919092169350634a945f8d9250608480830192600092919082900301818387803b158015620004c557600080fd5b505af1158015620004da573d6000803e3d6000fd5b505060075460048054600654604080516348083d7f60e11b81526001600160a01b0393841694810194909452908216602484015251921693506390107afe925060448082019260009290919082900301818387803b1580156200053c57600080fd5b505af115801562000551573d6000803e3d6000fd5b505060085460055460048054600654600a54600c54600b546040805163eaa8ba7f60e01b81526001600160a01b039889169781019790975294871660248701529286166044860152908516606485015284166084840152831660a4830152600060c48301819052905192909316945063eaa8ba7f935060e480820193929182900301818387803b158015620005e557600080fd5b505af1158015620005fa573d6000803e3d6000fd5b50506009546005546004805460065460408051630d8efe5960e21b81526001600160a01b03958616948101949094529184166024840152831660448301525191909216935063363bf9649250606480830192600092919082900301818387803b1580156200066757600080fd5b505af11580156200067c573d6000803e3d6000fd5b5050600c546004805460055460408051631e6edaf360e31b8152670de0b6b3a7640000948101949094526001600160a01b0392831660248501529082166044840152519216935063f376d798925060648082019260009290919082900301818387803b158015620006ec57600080fd5b505af115801562000701573d6000803e3d6000fd5b506000925050505b60648110156200084157600454600554600854600a546040516001600160a01b0394851694938416939283169290911690620007459062000b5c565b6001600160a01b039485168152928416602084015290831660408084019190915292166060820152905190819003608001906000f0801580156200078d573d6000803e3d6000fd5b50600d82606481106200079c57fe5b0180546001600160a01b0319166001600160a01b03929092169190911790556000600d8260648110620007cb57fe5b01546040516001600160a01b039091169069d3c21bcecceda100000090600081818185875af1925050503d806000811462000823576040519150601f19603f3d011682016040523d82523d6000602084013e62000828565b606091505b50509050806200083757600080fd5b5060010162000709565b50600560009054906101000a90046001600160a01b03166001600160a01b031663794e57246040518163ffffffff1660e01b815260040160206040518083038186803b1580156200089157600080fd5b505afa158015620008a6573d6000803e3d6000fd5b505050506040513d6020811015620008bd57600080fd5b505160005560055460408051635733d58f60e01b815290516001600160a01b0390921691635733d58f91600480820192602092909190829003018186803b1580156200090857600080fd5b505afa1580156200091d573d6000803e3d6000fd5b505050506040513d60208110156200093457600080fd5b5051600155600554604080516305d0d77b60e31b815290516001600160a01b0390921691632e86bbd891600480820192602092909190829003018186803b1580156200097f57600080fd5b505afa15801562000994573d6000803e3d6000fd5b505050506040513d6020811015620009ab57600080fd5b5051600255600054620009bd57600080fd5b600060015411620009cd57600080fd5b6004805460408051630fba780560e01b815290516001600160a01b0390921692630fba7805928282019260209290829003018186803b15801562000a1057600080fd5b505afa15801562000a25573d6000803e3d6000fd5b505050506040513d602081101562000a3c57600080fd5b5051600380546001600160a01b0319166001600160a01b03928316179055600b54604080516391b7f5ed60e01b815269021e19e0c9bab24000006004820152905191909216916391b7f5ed9160248083019260209291908290030181600087803b15801562000aaa57600080fd5b505af115801562000abf573d6000803e3d6000fd5b505050506040513d602081101562000ad657600080fd5b5062000b6a9050565b61506380620032ad83390190565b613125806200831083390190565b6109ee806200b43583390190565b6107de806200be2383390190565b613419806200c60183390190565b6116b6806200fa1a83390190565b610a1480620110d083390190565b60ed8062011ae483390190565b6117158062011bd183390190565b610d6980620132e683390190565b6127338062000b7a6000396000f3fe6080604052600436106102055760003560e01c80637f7dde4a11610113578063baf5d65f116100ab578063e44891271161006f578063e4489127146107bc578063e50296ab146107ec578063e68efb2e1461082b578063f2a903a71461087a578063fda7137b1461088f57610205565b8063baf5d65f146106b5578063c325347f146106e5578063c91b364a14610769578063cda775f91461077e578063d21af9681461079357610205565b80637f7dde4a146105655780638e4707d31461057a57806391a4a426146105b9578063980c55d7146105e35780639cdd0978146105f85780639f56ac1814610637578063a2f5cbdd1461064c578063afe0c4d514610661578063b83f91a2146106a057610205565b80633cc74225116101a157806357285cc51161016557806357285cc5146104ba5780635895ac4e146104dd57806359bed84b146104f257806377553ad4146105075780637c22900e1461051c57610205565b80633cc74225146104035780633d83908a1461041857806340ba2e271461042d5780634557559f146104575780634e792a301461048157610205565b8063048c661d1461020a57806304bbf59c1461023b57806306feaed51461028e5780630fba7805146102cf578063119be5d0146102e457806312caa2d2146103235780631c6fbd231461035b5780633ca4afc1146103925780633cbc7319146103d1575b600080fd5b34801561021657600080fd5b5061021f6108d5565b604080516001600160a01b039092168252519081900360200190f35b34801561024757600080fd5b5061027a6004803603606081101561025e57600080fd5b508035906001600160a01b0360208201351690604001356108e4565b604080519115158252519081900360200190f35b34801561029a57600080fd5b506102cd600480360360608110156102b157600080fd5b50803590602081013590604001356001600160a01b0316610984565b005b3480156102db57600080fd5b5061021f610a0b565b3480156102f057600080fd5b5061027a6004803603606081101561030757600080fd5b508035906001600160a01b036020820135169060400135610a1a565b6102cd6004803603608081101561033957600080fd5b50803590602081013590604081013590606001356001600160a01b0316610a85565b6102cd600480360360a081101561037157600080fd5b50803590602081013590604081013590606081013590608001351515610b14565b34801561039e57600080fd5b506102cd600480360360608110156103b557600080fd5b50803590602081013590604001356001600160a01b0316610bee565b6102cd600480360360608110156103e757600080fd5b50803590602081013590604001356001600160a01b0316610c57565b34801561040f57600080fd5b5061021f610cc0565b34801561042457600080fd5b5061021f610ccf565b34801561043957600080fd5b506102cd6004803603602081101561045057600080fd5b5035610cde565b34801561046357600080fd5b506102cd6004803603602081101561047a57600080fd5b5035610d5e565b34801561048d57600080fd5b506102cd600480360360408110156104a457600080fd5b50803590602001356001600160a01b0316610de4565b6102cd600480360360408110156104d057600080fd5b5080359060200135610e63565b3480156104e957600080fd5b5061027a610f0f565b3480156104fe57600080fd5b5061027a610fa6565b34801561051357600080fd5b5061021f6112ea565b34801561052857600080fd5b5061027a6004803603608081101561053f57600080fd5b508035906001600160a01b036020820135811691604081013590911690606001356112f9565b34801561057157600080fd5b5061021f6113a2565b34801561058657600080fd5b5061027a6004803603606081101561059d57600080fd5b508035906001600160a01b0360208201351690604001356113b1565b3480156105c557600080fd5b5061021f600480360360208110156105dc57600080fd5b503561141c565b3480156105ef57600080fd5b5061027a611439565b34801561060457600080fd5b5061027a6004803603606081101561061b57600080fd5b508035906001600160a01b036020820135169060400135611707565b34801561064357600080fd5b5061027a611772565b34801561065857600080fd5b5061027a611795565b34801561066d57600080fd5b506102cd6004803603606081101561068457600080fd5b50803590602081013590604001356001600160a01b03166117aa565b3480156106ac57600080fd5b5061021f611813565b3480156106c157600080fd5b506102cd600480360360408110156106d857600080fd5b5080359060200135611822565b3480156106f157600080fd5b506102cd6004803603604081101561070857600080fd5b8135919081019060408101602082013564010000000081111561072a57600080fd5b82018360208201111561073c57600080fd5b8035906020019184602083028401116401000000008311171561075e57600080fd5b509092509050611883565b34801561077557600080fd5b5061027a611914565b34801561078a57600080fd5b5061021f611d3a565b6102cd600480360360608110156107a957600080fd5b5080359060208101359060400135611d49565b3480156107c857600080fd5b506102cd600480360360408110156107df57600080fd5b5080359060200135611e80565b3480156107f857600080fd5b506102cd6004803603606081101561080f57600080fd5b50803590602081013590604001356001600160a01b0316611ee1565b34801561083757600080fd5b506102cd600480360360a081101561084e57600080fd5b508035906020810135906001600160a01b03604082013581169160608101359091169060800135611f4a565b34801561088657600080fd5b5061027a611fc7565b6102cd600480360360c08110156108a557600080fd5b50803590602081013590604081013590606081013590608081013515159060a001356001600160a01b0316612208565b6008546001600160a01b031681565b600080606485069050600d81606481106108fa57fe5b01546040805163d466e4eb60e01b81526001600160a01b038781166004830152602482018790529151919092169163d466e4eb9160448083019260209291908290030181600087803b15801561094f57600080fd5b505af1158015610963573d6000803e3d6000fd5b505050506040513d602081101561097957600080fd5b509195945050505050565b6000606484069050600d816064811061099957fe5b0154604080516325b288d160e21b8152600481018690526001600160a01b038581166024830152915191909216916396ca234491604480830192600092919082900301818387803b1580156109ed57600080fd5b505af1158015610a01573d6000803e3d6000fd5b5050505050505050565b6003546001600160a01b031681565b600080606485069050600d8160648110610a3057fe5b01546040805163cf83544f60e01b81526001600160a01b038781166004830152602482018790529151919092169163cf83544f9160448083019260209291908290030181600087803b15801561094f57600080fd5b6000606485069050600d8160648110610a9a57fe5b01546040805163c035307f60e01b815260048101879052602481018690526001600160a01b0385811660448301529151919092169163c035307f91606480830192600092919082900301818387803b158015610af557600080fd5b505af1158015610b09573d6000803e3d6000fd5b505050505050505050565b60006064860690506000600d8260648110610b2b57fe5b0154600080546001600160a01b039092169250823191610b4e9083908a906122a8565b9050858515610b6757610b648288600054612384565b90505b60408051632b7d8b0160e01b815260048101849052602481018a905260448101839052871515606482015260006084820181905291516001600160a01b03871692632b7d8b019260a4808201939182900301818387803b158015610bca57600080fd5b505af1158015610bde573d6000803e3d6000fd5b5050505050505050505050505050565b6000606484069050600d8160648110610c0357fe5b015460408051634c36240b60e01b8152600481018690526001600160a01b03858116602483015291519190921691634c36240b91604480830192600092919082900301818387803b1580156109ed57600080fd5b6000606484069050600d8160648110610c6c57fe5b01546040805163428cd75360e01b8152600481018690526001600160a01b0385811660248301529151919092169163428cd75391604480830192600092919082900301818387803b1580156109ed57600080fd5b6007546001600160a01b031681565b6004546001600160a01b031681565b6000606482069050600d8160648110610cf357fe5b0160009054906101000a90046001600160a01b03166001600160a01b0316634903a3dd6040518163ffffffff1660e01b8152600401600060405180830381600087803b158015610d4257600080fd5b505af1158015610d56573d6000803e3d6000fd5b505050505050565b600b54604080516391b7f5ed60e01b81526004810184905290516000926001600160a01b0316916391b7f5ed91602480830192602092919082900301818787803b158015610dab57600080fd5b505af1158015610dbf573d6000803e3d6000fd5b505050506040513d6020811015610dd557600080fd5b5051905080610de057fe5b5050565b6000606483069050600d8160648110610df957fe5b015460408051634d37261f60e01b81526001600160a01b03858116600483015291519190921691634d37261f91602480830192600092919082900301818387803b158015610e4657600080fd5b505af1158015610e5a573d6000803e3d6000fd5b50505050505050565b60006064830690506000600d8260648110610e7a57fe5b0154600080546001600160a01b039092169250823191610e9d90839087906122a8565b6040805163428cd75360e01b81526004810183905260006024820181905291519293506001600160a01b0386169263428cd7539260448084019391929182900301818387803b158015610eef57600080fd5b505af1158015610f03573d6000803e3d6000fd5b50505050505050505050565b600080600b60009054906101000a90046001600160a01b03166001600160a01b03166398d5fdca6040518163ffffffff1660e01b815260040160206040518083038186803b158015610f6057600080fd5b505afa158015610f74573d6000803e3d6000fd5b505050506040513d6020811015610f8a57600080fd5b5051905080610f9d576000915050610fa3565b60019150505b90565b600080600b60009054906101000a90046001600160a01b03166001600160a01b03166398d5fdca6040518163ffffffff1660e01b815260040160206040518083038186803b158015610ff757600080fd5b505afa15801561100b573d6000803e3d6000fd5b505050506040513d602081101561102157600080fd5b5051600c5460408051631e22314360e01b815290519293506000926001600160a01b0390921691631e22314391600480820192602092909190829003018186803b15801561106e57600080fd5b505afa158015611082573d6000803e3d6000fd5b505050506040513d602081101561109857600080fd5b5051600c546040805163765e015960e01b81526001600160a01b0380851660048301529151939450600093919092169163765e0159916024808301926020929190829003018186803b1580156110ed57600080fd5b505afa158015611101573d6000803e3d6000fd5b505050506040513d602081101561111757600080fd5b505190505b6001600160a01b0382161580159061113c57506001600160a01b03811615155b156112e0576004805460408051630d293c7160e41b81526001600160a01b0386811694820194909452602481018790529051929091169163d293c71091604480820192602092909190829003018186803b15801561119957600080fd5b505afa1580156111ad573d6000803e3d6000fd5b505050506040513d60208110156111c357600080fd5b50516004805460408051630d293c7160e41b81526001600160a01b0386811694820194909452602481018890529051929091169163d293c71091604480820192602092909190829003018186803b15801561121d57600080fd5b505afa158015611231573d6000803e3d6000fd5b505050506040513d602081101561124757600080fd5b5051111561125b5760009350505050610fa3565b600c546040805163765e015960e01b81526001600160a01b03808516600483015291519394508493919092169163765e0159916024808301926020929190829003018186803b1580156112ad57600080fd5b505afa1580156112c1573d6000803e3d6000fd5b505050506040513d60208110156112d757600080fd5b5051905061111c565b6001935050505090565b6005546001600160a01b031681565b600080606486069050600d816064811061130f57fe5b015460408051636ca5e76160e11b81526001600160a01b0388811660048301528781166024830152604482018790529151919092169163d94bcec29160648083019260209291908290030181600087803b15801561136c57600080fd5b505af1158015611380573d6000803e3d6000fd5b505050506040513d602081101561139657600080fd5b50919695505050505050565b6006546001600160a01b031681565b600080606485069050600d81606481106113c757fe5b015460408051636628d36160e11b81526001600160a01b038781166004830152602482018790529151919092169163cc51a6c29160448083019260209291908290030181600087803b15801561094f57600080fd5b600d816064811061142957fe5b01546001600160a01b0316905081565b600080600c60009054906101000a90046001600160a01b03166001600160a01b0316631e2231436040518163ffffffff1660e01b815260040160206040518083038186803b15801561148a57600080fd5b505afa15801561149e573d6000803e3d6000fd5b505050506040513d60208110156114b457600080fd5b505190505b6001600160a01b03811615610f9d57600160048054604080516321e3780160e01b81526001600160a01b0386811694820194909452905192909116916321e3780191602480820192602092909190829003018186803b15801561151b57600080fd5b505afa15801561152f573d6000803e3d6000fd5b505050506040513d602081101561154557600080fd5b5051600281111561155257fe5b600281111561155d57fe5b1461156c576000915050610fa3565b600254600480546040805163d66a255360e01b81526001600160a01b03868116948201949094529051929091169163d66a255391602480820192602092909190829003018186803b1580156115c057600080fd5b505afa1580156115d4573d6000803e3d6000fd5b505050506040513d60208110156115ea57600080fd5b505110156115fc576000915050610fa3565b6004805460408051630326771360e51b81526001600160a01b0385811694820194909452905192909116916364cee26091602480820192602092909190829003018186803b15801561164d57600080fd5b505afa158015611661573d6000803e3d6000fd5b505050506040513d602081101561167757600080fd5b5051611687576000915050610fa3565b600c546040805163765e015960e01b81526001600160a01b0384811660048301529151919092169163765e0159916024808301926020929190829003018186803b1580156116d457600080fd5b505afa1580156116e8573d6000803e3d6000fd5b505050506040513d60208110156116fe57600080fd5b505190506114b9565b600080606485069050600d816064811061171d57fe5b01546040805163390b5f2760e01b81526001600160a01b038781166004830152602482018790529151919092169163390b5f279160448083019260209291908290030181600087803b15801561094f57600080fd5b6006546000906001600160a01b0316311561178f57506000610fa3565b50600190565b60006014607154111561178f57506000610fa3565b6000606484069050600d81606481106117bf57fe5b01546040805163e947c56b60e01b8152600481018690526001600160a01b0385811660248301529151919092169163e947c56b91604480830192600092919082900301818387803b1580156109ed57600080fd5b600a546001600160a01b031681565b6000606483069050600d816064811061183757fe5b01546040805163f47a1ea760e01b81526004810185905290516001600160a01b039092169163f47a1ea79160248082019260009290919082900301818387803b158015610e4657600080fd5b6000606484069050600d816064811061189857fe5b0154604051634afbac5160e01b8152602060048201818152602483018690526001600160a01b0390931692634afbac5192879287929182916044909101908590850280828437600081840152601f19601f8201169050808301925050509350505050600060405180830381600087803b1580156109ed57600080fd5b600080600a60009054906101000a90046001600160a01b03166001600160a01b03166318160ddd6040518163ffffffff1660e01b815260040160206040518083038186803b15801561196557600080fd5b505afa158015611979573d6000803e3d6000fd5b505050506040513d602081101561198f57600080fd5b5051600a54600354604080516370a0823160e01b81526001600160a01b039283166004820152905193945060009391909216916370a08231916024808301926020929190829003018186803b1580156119e757600080fd5b505afa1580156119fb573d6000803e3d6000fd5b505050506040513d6020811015611a1157600080fd5b505160065460408051632f5a97e560e11b815290519293506000926001600160a01b0390921691635eb52fca91600480820192602092909190829003018186803b158015611a5e57600080fd5b505afa158015611a72573d6000803e3d6000fd5b505050506040513d6020811015611a8857600080fd5b505160075460408051632f5a97e560e11b815290519293506000926001600160a01b0390921691635eb52fca91600480820192602092909190829003018186803b158015611ad557600080fd5b505afa158015611ae9573d6000803e3d6000fd5b505050506040513d6020811015611aff57600080fd5b505190508181018414611b19576000945050505050610fa3565b600854604080516326fcbc6b60e21b815290516000926001600160a01b031691639bf2f1ac916004808301926020929190829003018186803b158015611b5e57600080fd5b505afa158015611b72573d6000803e3d6000fd5b505050506040513d6020811015611b8857600080fd5b5051600c5460408051631e22314360e01b815290519293506000926001600160a01b0390921691631e22314391600480820192602092909190829003018186803b158015611bd557600080fd5b505afa158015611be9573d6000803e3d6000fd5b505050506040513d6020811015611bff57600080fd5b5051905060005b6001600160a01b03821615611d1157600a54604080516370a0823160e01b81526001600160a01b038581166004830152915191909216916370a08231916024808301926020929190829003018186803b158015611c6257600080fd5b505afa158015611c76573d6000803e3d6000fd5b505050506040513d6020811015611c8c57600080fd5b5051600c546040805163765e015960e01b81526001600160a01b0386811660048301529151949093019391169163765e0159916024808301926020929190829003018186803b158015611cde57600080fd5b505afa158015611cf2573d6000803e3d6000fd5b505050506040513d6020811015611d0857600080fd5b50519150611c06565b85818401018711611d2c576000975050505050505050610fa3565b600197505050505050505090565b6009546001600160a01b031681565b60006064840690506000600d8260648110611d6057fe5b01546001546001600160a01b039091169150813190600090611d8590839088906122a8565b90506000611d968287600154612384565b6040805163c035307f60e01b8152600481018590526024810183905260006044820181905291519293506001600160a01b0387169263c035307f9260648084019391929182900301818387803b158015611def57600080fd5b505af1158015611e03573d6000803e3d6000fd5b505060048054604080516324f77f7760e11b815290516001600160a01b0390921694506349eefeee93508083019260209291829003018186803b158015611e4957600080fd5b505afa158015611e5d573d6000803e3d6000fd5b505050506040513d6020811015611e7357600080fd5b50516071819055610a0157fe5b6000606483069050600d8160648110611e9557fe5b01546040805163320d84db60e11b81526004810185905290516001600160a01b039092169163641b09b69160248082019260009290919082900301818387803b158015610e4657600080fd5b6000606484069050600d8160648110611ef657fe5b0154604080516378b20b5d60e11b8152600481018690526001600160a01b0385811660248301529151919092169163f16416ba91604480830192600092919082900301818387803b1580156109ed57600080fd5b6000606486069050600d8160648110611f5f57fe5b01546040805163c0ec048560e01b8152600481018890526001600160a01b038781166024830152868116604483015260648201869052600060848301819052925193169263c0ec04859260a48084019391929182900301818387803b158015610eef57600080fd5b6004546000906001600160a01b03163115611fe457506000610fa3565b6005546001600160a01b03163115611ffe57506000610fa3565b600660009054906101000a90046001600160a01b03166001600160a01b03166314f6c3be6040518163ffffffff1660e01b815260040160206040518083038186803b15801561204c57600080fd5b505afa158015612060573d6000803e3d6000fd5b505050506040513d602081101561207657600080fd5b50516006546001600160a01b0316311461209257506000610fa3565b600760009054906101000a90046001600160a01b03166001600160a01b03166314f6c3be6040518163ffffffff1660e01b815260040160206040518083038186803b1580156120e057600080fd5b505afa1580156120f4573d6000803e3d6000fd5b505050506040513d602081101561210a57600080fd5b50516007546001600160a01b0316311461212657506000610fa3565b600860009054906101000a90046001600160a01b03166001600160a01b03166314f6c3be6040518163ffffffff1660e01b815260040160206040518083038186803b15801561217457600080fd5b505afa158015612188573d6000803e3d6000fd5b505050506040513d602081101561219e57600080fd5b50516008546001600160a01b031631146121ba57506000610fa3565b600a546001600160a01b031631156121d457506000610fa3565b600b546001600160a01b031631156121ee57506000610fa3565b600c546001600160a01b0316311561178f57506000610fa3565b6000606487069050600d816064811061221d57fe5b015460408051632b7d8b0160e01b815260048101899052602481018890526044810187905285151560648201526001600160a01b03858116608483015291519190921691632b7d8b019160a480830192600092919082900301818387803b15801561228757600080fd5b505af115801561229b573d6000803e3d6000fd5b5050505050505050505050565b600080600b60009054906101000a90046001600160a01b03166001600160a01b03166398d5fdca6040518163ffffffff1660e01b815260040160206040518083038186803b1580156122f957600080fd5b505afa15801561230d573d6000803e3d6000fd5b505050506040513d602081101561232357600080fd5b505190508061233157600080fd5b60006123588261234c6002548761247090919063ffffffff16565b9063ffffffff6124d216565b905080861161236657600080fd5b6000818703868161237357fe5b0691909101925050505b9392505050565b600080600b60009054906101000a90046001600160a01b03166001600160a01b03166398d5fdca6040518163ffffffff1660e01b815260040160206040518083038186803b1580156123d557600080fd5b505afa1580156123e9573d6000803e3d6000fd5b505050506040513d60208110156123ff57600080fd5b5051600254909150849060009061241d90839063ffffffff61251416565b9050600061242c88838661256e565b9050858110156124645761244a8661234c8a8763ffffffff61247016565b91506124616002548361259e90919063ffffffff16565b92505b50909695505050505050565b60008261247f575060006124cc565b8282028284828161248c57fe5b04146124c95760405162461bcd60e51b81526004018080602001828103825260218152602001806126dd6021913960400191505060405180910390fd5b90505b92915050565b60006124c983836040518060400160405280601a81526020017f536166654d6174683a206469766973696f6e206279207a65726f0000000000008152506125e0565b6000828201838110156124c9576040805162461bcd60e51b815260206004820152601b60248201527f536166654d6174683a206164646974696f6e206f766572666c6f770000000000604482015290519081900360640190fd5b6000821561259557600061258c8461234c878663ffffffff61247016565b915061237d9050565b5060001961237d565b60006124c983836040518060400160405280601e81526020017f536166654d6174683a207375627472616374696f6e206f766572666c6f770000815250612682565b6000818361266c5760405162461bcd60e51b81526004018080602001828103825283818151815260200191508051906020019080838360005b83811015612631578181015183820152602001612619565b50505050905090810190601f16801561265e5780820380516001836020036101000a031916815260200191505b509250505060405180910390fd5b50600083858161267857fe5b0495945050505050565b600081848411156126d45760405162461bcd60e51b8152602060048201818152835160248401528351909283926044909101919085019080838360008315612631578181015183820152602001612619565b50505090039056fe536166654d6174683a206d756c7469706c69636174696f6e206f766572666c6f77a2646970667358221220bed25eece646de3050a88c4dd344bfd9798e7e7791eefd893b55b64c3a7c16bb64736f6c634300060b0033608060405234801561001057600080fd5b50600080546001600160a01b0319163390811782556040519091907f8be0079c531659141344cd1fd0a4f28419497f9722a3daafe3b4186f6b6457e0908290a36150048061005f6000396000f3fe608060405234801561001057600080fd5b50600436106103665760003560e01c8063761ab22c116101ca578063b7f8cf9b11610105578063d380a37c116100a8578063d380a37c146109af578063d3d6f843146109b7578063d66a2553146109e3578063d9a7244414610a09578063dba1c5f214610a26578063e2ac77b014610a2e578063f24344e614610a54578063f34862de14610a5c578063fe2ba84814610a8257610366565b8063b7f8cf9b146108af578063b83f91a2146108b7578063b91af97c146108bf578063bf9befb11461090b578063c1866f3314610913578063c7b5548114610955578063cbd138ae1461095d578063d293c7101461098357610366565b80638da5cb5b1161016d5780638da5cb5b1461084b5780638f32d59b1461085357806396d711ff1461085b5780639976cf45146108635780639dd233d21461088f578063a3a6401714610897578063ae9187541461089f578063b620115d146108a757610366565b8063761ab22c146107ed578063794e5724146107f5578063795d26c3146107fd578063797250e3146108055780637f7dde4a1461080d578063807d138d1461081557806382fe3eb91461081d578063887105d31461084357610366565b8063480cd578116102a5578063631203b011610248578063631203b01461065b57806364cee26014610678578063653d46e71461069e57806366272044146106bb5780636ef643381461072557806372423c171461079457806372fe25aa146107c0578063741bef1a146107c8578063756b253e146107d057610366565b8063480cd578146105bb5780634870dd9a146105e157806349eefeee146105e95780635733d58f146105f15780635d6b480f146105f95780635d8c9609146106255780635dba4c4a1461064b57806361ec893d1461065357610366565b806318f2817a1161030d57806318f2817a146104725780631e8b1c2b146104985780631f68f20a1461053b57806321e37801146105435780632e86bbd8146105695780632f865568146105715780633cc742251461059757806343a124fa1461059f57610366565b8063048c661d1461036b578063060d49a31461038f578063071a7541146103a95780630b076557146103b15780630fba7805146103d957806312610e92146103e157806315d549f11461040d5780631673c79a14610433575b600080fd5b610373610aa8565b604080516001600160a01b039092168252519081900360200190f35b610397610ab7565b60408051918252519081900360200190f35b610397610abd565b6103d7600480360360208110156103c757600080fd5b50356001600160a01b0316610ac2565b005b610373610ad6565b610397600480360360408110156103f757600080fd5b506001600160a01b038135169060200135610adc565b6103976004803603602081101561042357600080fd5b50356001600160a01b0316610b34565b6104596004803603602081101561044957600080fd5b50356001600160a01b0316610b58565b6040805192835260208301919091528051918290030190f35b6103976004803603602081101561048857600080fd5b50356001600160a01b0316610b71565b6103d7600480360360208110156104ae57600080fd5b8101906020810181356401000000008111156104c957600080fd5b8201836020820111156104db57600080fd5b803590602001918460208302840111640100000000831117156104fd57600080fd5b919080806020026020016040519081016040528093929190818152602001838360200280828437600092019190915250929550610b84945050505050565b610397610e9d565b6103976004803603602081101561055957600080fd5b50356001600160a01b0316610ea3565b610397610ecd565b6103d76004803603602081101561058757600080fd5b50356001600160a01b0316610ed9565b610373610f3f565b6105a7610f4e565b604080519115158252519081900360200190f35b610397600480360360208110156105d157600080fd5b50356001600160a01b0316610f7e565b610397610f9c565b610397610fa1565b610397610fa7565b6103d76004803603604081101561060f57600080fd5b506001600160a01b038135169060200135610fb3565b6103976004803603602081101561063b57600080fd5b50356001600160a01b0316610fff565b6103d761108e565b6103976110be565b6103976004803603602081101561067157600080fd5b50356110c3565b6103976004803603602081101561068e57600080fd5b50356001600160a01b03166110e6565b6103d7600480360360208110156106b457600080fd5b5035611104565b6103d760048036036101208110156106d257600080fd5b506001600160a01b038135811691602081013582169160408201358116916060810135821691608082013581169160a081013582169160c082013581169160e08101358216916101009091013516611242565b61074b6004803603602081101561073b57600080fd5b50356001600160a01b0316611550565b6040518086815260200185815260200184815260200183600281111561076d57fe5b60ff1681526001600160801b03909216602083015250604080519182900301945092505050f35b610397600480360360408110156107aa57600080fd5b506001600160a01b03813516906020013561158a565b6103976115e7565b6103736115f3565b610373600480360360208110156107e657600080fd5b5035611602565b610373611629565b610397611638565b610397611644565b610397611751565b610373611757565b610397611766565b6103d76004803603602081101561083357600080fd5b50356001600160a01b031661176c565b61039761177d565b610373611845565b6105a7611854565b610397611865565b6103976004803603604081101561087957600080fd5b506001600160a01b03813516906020013561186b565b61039761189e565b6103736118a4565b6103736118b3565b6103976118c2565b61037361196c565b61037361197b565b6108e5600480360360208110156108d557600080fd5b50356001600160a01b031661198a565b604080519485526020850193909352838301919091526060830152519081900360800190f35b6103976119ee565b6103d7600480360360a081101561092957600080fd5b508035906001600160a01b036020820135811691604081013590911690606081013590608001356119f4565b610397612007565b6103d76004803603602081101561097357600080fd5b50356001600160a01b0316612013565b6103976004803603604081101561099957600080fd5b506001600160a01b038135169060200135612024565b6103976120b5565b610397600480360360408110156109cd57600080fd5b506001600160a01b0381351690602001356120bb565b610397600480360360208110156109f957600080fd5b50356001600160a01b03166120f1565b61037360048036036020811015610a1f57600080fd5b503561210c565b610397612136565b6105a760048036036020811015610a4457600080fd5b50356001600160a01b031661213c565b61039761215e565b61039760048036036020811015610a7257600080fd5b50356001600160a01b031661216a565b6103d760048036036020811015610a9857600080fd5b50356001600160a01b031661219b565b6004546001600160a01b031681565b60165481565b600281565b610aca6121ac565b610ad3816121f5565b50565b6109a581565b6000610ae66121ac565b6001600160a01b0383166000908152600d6020526040812054610b0f908463ffffffff61231216565b6001600160a01b0385166000908152600d602052604090208190559150505b92915050565b6000610b3e6121ac565b610b478261235b565b6001600160801b031690505b919050565b6013602052600090815260409020805460019091015482565b6000610b7b6121ac565b610b2e826123f5565b8051610bc15760405162461bcd60e51b8152600401808060200182810382526036815260200180614f3c6036913960400191505060405180910390fd5b610bc9614c9e565b610bd1614ccf565b600760009054906101000a90046001600160a01b03166001600160a01b03166398d5fdca6040518163ffffffff1660e01b815260040160206040518083038186803b158015610c1f57600080fd5b505afa158015610c33573d6000803e3d6000fd5b505050506040513d6020811015610c4957600080fd5b5051825260048054604080516326fcbc6b60e21b815290516001600160a01b0390921692639bf2f1ac928282019260209290829003018186803b158015610c8f57600080fd5b505afa158015610ca3573d6000803e3d6000fd5b505050506040513d6020811015610cb957600080fd5b50516020830152610cc8610f4e565b15156040830181905260011415610cf357610cec8260000151836020015185612470565b9050610d09565b610d068260000151836020015185612808565b90505b60048054608083015160a08401516040805163335525ad60e01b8152948501929092526024840152516001600160a01b039091169163335525ad91604480830192600092919082900301818387803b158015610d6457600080fd5b505af1158015610d78573d6000803e3d6000fd5b50505050610d8e8160c001518260e001516128ce565b610db2610dad8260400151836101400151612b1190919063ffffffff16565b612b6b565b610ddd8161010001518261012001518361014001518461016001518561018001518760000151612c77565b6101208101516020820151610df79163ffffffff61231216565b606083015261014081015160408201518251610e2a9291610e1e919063ffffffff61231216565b9063ffffffff61231216565b608080840182905260608085015160408086015186840151825193845260208401969096528282015291810193909352517f4152c73dd2614c4f9fc35e8c9cf16013cd588c75b49a4c1673ecffdcbcda94039281900390910190a1610e983382606001518360400151612dc6565b505050565b600b5481565b6001600160a01b0381166000908152600d602052604081206003015460ff166002811115610b2e57fe5b678ac7230489e8000081565b610ee281612eba565b604080516001808252818301909252606091602080830190803683370190505090508181600081518110610f1257fe5b60200260200101906001600160a01b031690816001600160a01b031681525050610f3b81610b84565b5050565b6003546001600160a01b031681565b600080610f596118c2565b90506714d1120d7b160000811015610f75576001915050610f7b565b60009150505b90565b6001600160a01b03166000908152600d602052604090206001015490565b60c881565b60145490565b6714d1120d7b16000081565b610fbb6121ac565b806002811115610fc757fe5b6001600160a01b0383166000908152600d60205260409020600301805460ff19166001836002811115610ff657fe5b02179055505050565b6001600160a01b038116600090815260136020526040812054601154829061102d908363ffffffff61231216565b90508061103f57600092505050610b53565b6001600160a01b0384166000908152600d602052604081206002015490611084670de0b6b3a7640000611078848663ffffffff612f2216565b9063ffffffff612f7b16565b9695505050505050565b6110966121ac565b61109e612fbd565b600b819055670de0b6b3a764000010156110b457fe5b6110bc613001565b565b603c81565b6000610b2e670de0b6b3a7640000611078600b5485612f2290919063ffffffff16565b6001600160a01b03166000908152600d602052604090206002015490565b61110c614c9e565b611114614ccf565b600760009054906101000a90046001600160a01b03166001600160a01b03166398d5fdca6040518163ffffffff1660e01b815260040160206040518083038186803b15801561116257600080fd5b505afa158015611176573d6000803e3d6000fd5b505050506040513d602081101561118c57600080fd5b5051825260048054604080516326fcbc6b60e21b815290516001600160a01b0390921692639bf2f1ac928282019260209290829003018186803b1580156111d257600080fd5b505afa1580156111e6573d6000803e3d6000fd5b505050506040513d60208110156111fc57600080fd5b5051602083015261120b610f4e565b1515604083018190526001141561122f57610cec8260000151836020015185613029565b610d068260000151836020015185613305565b61124a611854565b61129b576040805162461bcd60e51b815260206004820181905260248201527f4f776e61626c653a2063616c6c6572206973206e6f7420746865206f776e6572604482015290519081900360640190fd5b600180546001600160a01b03199081166001600160a01b038c81169182179093556002805483168c85161790556003805483168b85161790556004805483168a8516179055600580548316898516179055600780548316888516179055600680548316878516179055600a80548316868516179055600980548316938516938417905560088054909216909217905560408051918252517f3ca631ffcd2a9b5d9ae18543fc82f58eb4ca33af9e6ab01b7a8e95331e6ed985916020908290030190a1604080516001600160a01b038a16815290517f78f058b189175430c48dc02699e3a0031ea4ff781536dc2fab847de4babdd8829181900360200190a1604080516001600160a01b038916815290517f5ee0cae2f063ed938bb55046f6a932fb6ae792bf43624806bb90abe68a50be9b9181900360200190a1604080516001600160a01b038816815290517f82966d27eea39b038ee0fa30cd16532bb24f6e65d31cb58fb227aa5766cdcc7f9181900360200190a1604080516001600160a01b038716815290517fe67f36a6e961157d6eff83b91f3af5a62131ceb6f04954ef74f51c1c05e7f88d9181900360200190a1604080516001600160a01b038616815290517f8c537274438aa850a330284665d81a85dd38267d09e4050d416bfc94142db2649181900360200190a1604080516001600160a01b038516815290517f227eec0ec317af6ab1a9587ffa1c84332522eb4c583a908f89babc05f8f339bd9181900360200190a1604080516001600160a01b038416815290517f65f4cf077bc01e4742eb5ad98326f6e95b63548ea24b17f8d5e823111fe788009181900360200190a1604080516001600160a01b038316815290517f756ebc192164c295bba134b5aacd72cc7aff8098a670d1f0a5f6b3a0b4ce67079181900360200190a16115456134bf565b505050505050505050565b600d6020526000908152604090208054600182015460028301546003909301549192909160ff81169061010090046001600160801b031685565b60006115946121ac565b6001600160a01b0383166000908152600d60205260408120600101546115c0908463ffffffff612b1116565b6001600160a01b0385166000908152600d6020526040902060010181905591505092915050565b670de0b6b3a764000081565b6007546001600160a01b031681565b6014818154811061160f57fe5b6000918252602090912001546001600160a01b0316905081565b6009546001600160a01b031681565b670f43fc2c04ee000081565b600080600260009054906101000a90046001600160a01b03166001600160a01b0316635eb52fca6040518163ffffffff1660e01b815260040160206040518083038186803b15801561169557600080fd5b505afa1580156116a9573d6000803e3d6000fd5b505050506040513d60208110156116bf57600080fd5b505160035460408051632f5a97e560e11b815290519293506000926001600160a01b0390921691635eb52fca91600480820192602092909190829003018186803b15801561170c57600080fd5b505afa158015611720573d6000803e3d6000fd5b505050506040513d602081101561173657600080fd5b5051905061174a828263ffffffff612b1116565b9250505090565b60155481565b6002546001600160a01b031681565b600f5481565b6117746121ac565b610ad381613509565b600080600260009054906101000a90046001600160a01b03166001600160a01b03166314f6c3be6040518163ffffffff1660e01b815260040160206040518083038186803b1580156117ce57600080fd5b505afa1580156117e2573d6000803e3d6000fd5b505050506040513d60208110156117f857600080fd5b505160035460408051630a7b61df60e11b815290519293506000926001600160a01b03909216916314f6c3be91600480820192602092909190829003018186803b15801561170c57600080fd5b6000546001600160a01b031690565b6000546001600160a01b0316331490565b60105481565b60006118756121ac565b6001600160a01b0383166000908152600d6020526040812054610b0f908463ffffffff612b1116565b60115481565b6008546001600160a01b031681565b600a546001600160a01b031681565b600080600760009054906101000a90046001600160a01b03166001600160a01b03166398d5fdca6040518163ffffffff1660e01b815260040160206040518083038186803b15801561191357600080fd5b505afa158015611927573d6000803e3d6000fd5b505050506040513d602081101561193d57600080fd5b50519050600061194b61177d565b90506000611957611644565b9050611964828285613533565b935050505090565b6001546001600160a01b031681565b6006546001600160a01b031681565b6001600160a01b0381166000908152600d6020526040812080546001909101549091806119b68561216a565b91506119c185610fff565b90506119d3848363ffffffff612b1116565b93506119e5838263ffffffff612b1116565b92509193509193565b600e5481565b60025460408051632f5a97e560e11b815290516000926001600160a01b031691635eb52fca916004808301926020929190829003018186803b158015611a3957600080fd5b505afa158015611a4d573d6000803e3d6000fd5b505050506040513d6020811015611a6357600080fd5b505160035460408051632f5a97e560e11b815290519293506000926001600160a01b0390921691635eb52fca91600480820192602092909190829003018186803b158015611ab057600080fd5b505afa158015611ac4573d6000803e3d6000fd5b505050506040513d6020811015611ada57600080fd5b50519050611ae6614d52565b611aef88613565565b611af933896135a4565b611b09838363ffffffff612b1116565b600654604080516370a0823160e01b815233600482015290516001600160a01b03909216916370a0823191602480820192602092909190829003018186803b158015611b5457600080fd5b505afa158015611b68573d6000803e3d6000fd5b505050506040513d6020811015611b7e57600080fd5b50511115611b8857fe5b60075460408051634c6afee560e11b815290518a926000926001600160a01b03909116916398d5fdca91600480820192602092909190829003018186803b158015611bd257600080fd5b505afa158015611be6573d6000803e3d6000fd5b505050506040513d6020811015611bfc57600080fd5b505190506000611c0c8a8361365d565b15611c18575088611d42565b600a60009054906101000a90046001600160a01b03166001600160a01b0316634d6228316040518163ffffffff1660e01b815260040160206040518083038186803b158015611c6657600080fd5b505afa158015611c7a573d6000803e3d6000fd5b505050506040513d6020811015611c9057600080fd5b505190505b6001600160a01b03811615801590611cbd5750670f43fc2c04ee0000611cbb8284612024565b105b15611d4257600a5460408051632dc9c0eb60e21b81526001600160a01b0384811660048301529151919092169163b72703ac916024808301926020929190829003018186803b158015611d0f57600080fd5b505afa158015611d23573d6000803e3d6000fd5b505050506040513d6020811015611d3957600080fd5b50519050611c95565b86611d4d5760001996505b6001600160a01b03811615801590611d655750600083115b8015611d715750600087115b15611e7c57600a5460408051632dc9c0eb60e21b81526001600160a01b0384811660048301529151600019909a0199600093929092169163b72703ac91602480820192602092909190829003018186803b158015611dce57600080fd5b505afa158015611de2573d6000803e3d6000fd5b505050506040513d6020811015611df857600080fd5b50519050611e05826121f5565b611e0d614d81565b611e1a8386868e8e6137c0565b8051909150611e2a575050611e7c565b80518651611e3d9163ffffffff612b1116565b865260208082015190870151611e589163ffffffff612b1116565b60208701528051611e7090869063ffffffff61231216565b94508192505050611d4d565b611e8a8460200151836139fc565b50611e988460200151613baa565b604080860182905260025460095482516364a197f360e01b81526001600160a01b039182166004820152602481019490945291519116916364a197f391604480830192600092919082900301818387803b158015611ef557600080fd5b505af1158015611f09573d6000803e3d6000fd5b50506008546040808801518151630f1f150d60e11b8152600481019190915290516001600160a01b039092169350631e3e2a1a925060248082019260009290919082900301818387803b158015611f5f57600080fd5b505af1158015611f73573d6000803e3d6000fd5b5050505060408401516020850151611f8a91612312565b606085018190528451611f9f91339190613bcd565b7f43a3f4082a4dbc33d78e317d2497d3a730bc7fc3574159dcea1056e62e5d9ad88b8560000151866020015187604001516040518085815260200184815260200183815260200182815260200194505050505060405180910390a15050505050505050505050565b670de01e5e7be69fc781565b61201b6121ac565b610ad381613cf4565b60008061203084610fff565b9050600061203d8561216a565b6001600160a01b0386166000908152600d60205260408120600101549192509061206d908463ffffffff612b1116565b6001600160a01b0387166000908152600d60205260408120549192509061209a908463ffffffff612b1116565b905060006120a9838389613533565b98975050505050505050565b600c5481565b60006120c56121ac565b6001600160a01b0383166000908152600d60205260408120600101546115c0908463ffffffff61231216565b6001600160a01b03166000908152600d602052604090205490565b60006014828154811061211b57fe5b6000918252602090912001546001600160a01b031692915050565b60125481565b6011546001600160a01b03821660009081526013602052604090205410919050565b6729a2241af62c000081565b6001600160a01b038116600090815260136020526040812060010154601254829061102d908363ffffffff61231216565b6121a36121ac565b610ad381613dae565b6001546001600160a01b031633146110bc5760405162461bcd60e51b815260040180806020018281038252603b815260200180614f01603b913960400191505060405180910390fd5b6121fe8161213c565b15610ad35761220c81612eba565b600061221782610fff565b905060006122248361216a565b6001600160a01b0384166000908152600d6020526040902060010154909150612253908363ffffffff612b1116565b6001600160a01b0384166000908152600d60205260409020600181019190915554612284908263ffffffff612b1116565b6001600160a01b0384166000908152600d60205260409020556122a683613509565b6122b08183613dfe565b6001600160a01b0383166000818152600d60209081526040808320805460018201546002909201548351918252938101919091528082019290925260608201929092529051600080516020614ee18339815191529181900360800190a2505050565b600061235483836040518060400160405280601e81526020017f536166654d6174683a207375627472616374696f6e206f766572666c6f770000815250613f20565b9392505050565b601480546001808201835560008381527fce6d7b5282bd9a3661ae061feed1dbda4e52ab073b1f9285be6e155d9c38d4ec90920180546001600160a01b0319166001600160a01b038616179055915490916123b69190612312565b6001600160a01b03929092166000908152600d602052604090206003018054610100600160881b0319166101006001600160801b038516021790555090565b6001600160a01b0381166000908152600d6020526040812060010154819061241c90613fb7565b6001600160a01b0384166000908152600d60205260409020600201805490829055600e549192509061246690839061245a908463ffffffff61231216565b9063ffffffff612b1116565b600e555092915050565b612478614ccf565b612480614d9b565b612488614ccf565b8482526000608083015260035460408051632f5a97e560e11b81529051612581926001600160a01b031691635eb52fca916004808301926020929190829003018186803b1580156124d857600080fd5b505afa1580156124ec573d6000803e3d6000fd5b505050506040513d602081101561250257600080fd5b505160025460408051632f5a97e560e11b815290516001600160a01b0390921691635eb52fca91600480820192602092909190829003018186803b15801561254957600080fd5b505afa15801561255d573d6000803e3d6000fd5b505050506040513d602081101561257357600080fd5b50519063ffffffff612b1116565b60a083015260035460408051630a7b61df60e11b8152905161263d926001600160a01b0316916314f6c3be916004808301926020929190829003018186803b1580156125cc57600080fd5b505afa1580156125e0573d6000803e3d6000fd5b505050506040513d60208110156125f657600080fd5b505160025460408051630a7b61df60e11b815290516001600160a01b03909216916314f6c3be91600480820192602092909190829003018186803b15801561254957600080fd5b60c0830152600060208301525b8351826020015110156127ff578382602001518151811061266757fe5b60209081029190910101516001600160a01b03166060830181905261268c9087612024565b6040830152608082015161278e57670f43fc2c04ee00008260400151101580156126b557508151155b156126bf576127ef565b60006126d48360c001518460a0015189613533565b90506126ee83606001518460400151856000015184613ff3565b60808101518451919350612708919063ffffffff61231216565b8352608082015160a08401516127239163ffffffff61231216565b60a08085019190915282015160c08401516127439163ffffffff61231216565b60c084015261275284836141d4565b6101008301519094506001600160a01b03161561276f57506127ff565b6127828360c001518460a0015189614315565b156080840152506127ef565b6080820151151560011480156127af5750670f43fc2c04ee00008260400151105b156127ef576127c682606001518360000151614349565b608081015183519192506127e0919063ffffffff61231216565b82526127ec83826141d4565b92505b602082018051600101905261264a565b50509392505050565b612810614ccf565b612818614d9b565b612820614ccf565b848252600060208301525b8351826020015110156127ff578382602001518151811061284857fe5b60209081029190910101516001600160a01b03166060830181905261286d9087612024565b60408301819052670f43fc2c04ee000011156128be5761289582606001518360000151614349565b608081015183519192506128af919063ffffffff61231216565b82526128bb83826141d4565b92505b602082018051600101905261282b565b816128d857610f3b565b6015546000906128fa9061245a84670de0b6b3a764000063ffffffff612f2216565b9050600061291f60165461245a670de0b6b3a764000087612f2290919063ffffffff16565b90506000612938600e5484612f7b90919063ffffffff16565b90506000612951600e5484612f7b90919063ffffffff16565b905061297861296b600e5484612f2290919063ffffffff16565b859063ffffffff61231216565b601555600e546129a09061299390839063ffffffff612f2216565b849063ffffffff61231216565b6016556011546129b6908363ffffffff612b1116565b6011556012546129cc908263ffffffff612b1116565b6012556002546040805163071b32b560e31b81526004810189905290516001600160a01b03909216916338d995a89160248082019260009290919082900301818387803b158015612a1c57600080fd5b505af1158015612a30573d6000803e3d6000fd5b5050600354604080516367dc994d60e11b8152600481018b905290516001600160a01b03909216935063cfb9329a925060248082019260009290919082900301818387803b158015612a8157600080fd5b505af1158015612a95573d6000803e3d6000fd5b5050600254600354604080516364a197f360e01b81526001600160a01b039283166004820152602481018b905290519190921693506364a197f39250604480830192600092919082900301818387803b158015612af157600080fd5b505af1158015612b05573d6000803e3d6000fd5b50505050505050505050565b600082820183811015612354576040805162461bcd60e51b815260206004820152601b60248201527f536166654d6174683a206164646974696f6e206f766572666c6f770000000000604482015290519081900360640190fd5b600e54600f5560025460408051630a7b61df60e11b815290516000926001600160a01b0316916314f6c3be916004808301926020929190829003018186803b158015612bb657600080fd5b505afa158015612bca573d6000803e3d6000fd5b505050506040513d6020811015612be057600080fd5b505160035460408051630a7b61df60e11b815290519293506000926001600160a01b03909216916314f6c3be91600480820192602092909190829003018186803b158015612c2d57600080fd5b505afa158015612c41573d6000803e3d6000fd5b505050506040513d6020811015612c5757600080fd5b50519050612c6f8161245a848663ffffffff61231216565b601055505050565b6001600160a01b038616612c8a57612dbe565b6001600160a01b0386166000908152600d6020526040902085815560018082018690556003909101805460ff19169091179055612cc686613509565b612ccf866123f5565b506000612cdc8783612024565b600a5460408051633a7bc51160e11b81526001600160a01b038b8116600483015260248201859052604482018790528881166064830152878116608483015291519394509116916374f78a229160a48082019260009290919082900301818387803b158015612d4a57600080fd5b505af1158015612d5e573d6000803e3d6000fd5b50505050612d6b8761235b565b506001600160a01b0387166000818152600d60209081526040918290206002015482518a815291820189905281830152600360608201529051600080516020614ee18339815191529181900360800190a2505b505050505050565b8115612e425760065460408051631062c15f60e11b81526109a560048201526001600160a01b03868116602483015260448201869052915191909216916320c582be91606480830192600092919082900301818387803b158015612e2957600080fd5b505af1158015612e3d573d6000803e3d6000fd5b505050505b8015610e9857600254604080516364a197f360e01b81526001600160a01b03868116600483015260248201859052915191909216916364a197f391604480830192600092919082900301818387803b158015612e9d57600080fd5b505af1158015612eb1573d6000803e3d6000fd5b50505050505050565b60016001600160a01b0382166000908152600d602052604090206003015460ff166002811115612ee657fe5b14610ad35760405162461bcd60e51b815260040180806020018281038252602f815260200180614fa0602f913960400191505060405180910390fd5b600082612f3157506000610b2e565b82820282848281612f3e57fe5b04146123545760405162461bcd60e51b8152600401808060200182810382526021815260200180614e726021913960400191505060405180910390fd5b600061235483836040518060400160405280601a81526020017f536166654d6174683a206469766973696f6e206279207a65726f000000000000815250614457565b600080612fc86144bc565b90506000612fde670de01e5e7be69fc7836144dd565b905061174a670de0b6b3a764000061107883600b54612f2290919063ffffffff16565b6000613018600c544261231290919063ffffffff16565b9050603c8110610ad35742600c5550565b613031614ccf565b613039614d9b565b613041614ccf565b8482526000608083015260035460408051632f5a97e560e11b81529051613091926001600160a01b031691635eb52fca916004808301926020929190829003018186803b1580156124d857600080fd5b60a083015260035460408051630a7b61df60e11b815290516130dc926001600160a01b0316916314f6c3be916004808301926020929190829003018186803b1580156125cc57600080fd5b60c0830152600060208301525b83826020015110156127ff57600a60009054906101000a90046001600160a01b03166001600160a01b0316634d6228316040518163ffffffff1660e01b815260040160206040518083038186803b15801561314357600080fd5b505afa158015613157573d6000803e3d6000fd5b505050506040513d602081101561316d57600080fd5b50516001600160a01b0316606083018190526131899087612024565b6040830152608082015161328b57670f43fc2c04ee00008260400151101580156131b257508151155b156131bc576127ff565b60006131d18360c001518460a0015189613533565b90506131eb83606001518460400151856000015184613ff3565b60808101518451919350613205919063ffffffff61231216565b8352608082015160a08401516132209163ffffffff61231216565b60a08085019190915282015160c08401516132409163ffffffff61231216565b60c084015261324f84836141d4565b6101008301519094506001600160a01b03161561326c57506127ff565b61327f8360c001518460a0015189614315565b156080840152506132f5565b6080820151151560011480156132ac5750670f43fc2c04ee00008260400151105b156132f0576132c382606001518360000151614349565b608081015183519192506132dd919063ffffffff61231216565b82526132e983826141d4565b92506132f5565b6127ff565b60208201805160010190526130e9565b61330d614ccf565b613315614d9b565b61331d614ccf565b848252600060208301525b83826020015110156127ff57600a60009054906101000a90046001600160a01b03166001600160a01b0316634d6228316040518163ffffffff1660e01b815260040160206040518083038186803b15801561338257600080fd5b505afa158015613396573d6000803e3d6000fd5b505050506040513d60208110156133ac57600080fd5b50516001600160a01b0316606083018190526133c89087612024565b60408301819052670f43fc2c04ee000011156132f0576133f082606001518360000151614349565b6080810151835191925061340a919063ffffffff61231216565b825261341683826141d4565b9250600a60009054906101000a90046001600160a01b03166001600160a01b0316631e2231436040518163ffffffff1660e01b815260040160206040518083038186803b15801561346657600080fd5b505afa15801561347a573d6000803e3d6000fd5b505050506040513d602081101561349057600080fd5b505160608301516001600160a01b03908116911614156134af576127ff565b6020820180516001019052613328565b600080546040516001600160a01b03909116907f8be0079c531659141344cd1fd0a4f28419497f9722a3daafe3b4186f6b6457e0908390a3600080546001600160a01b0319169055565b6011546001600160a01b039091166000908152601360205260409020908155601254600190910155565b6000821561355a57600061355184611078878663ffffffff612f2216565b91506123549050565b506000199392505050565b60008111610ad35760405162461bcd60e51b815260040180806020018281038252602e815260200180614f72602e913960400191505060405180910390fd5b600654604080516370a0823160e01b81526001600160a01b0385811660048301529151849392909216916370a0823191602480820192602092909190829003018186803b1580156135f457600080fd5b505afa158015613608573d6000803e3d6000fd5b505050506040513d602081101561361e57600080fd5b50511015610f3b5760405162461bcd60e51b815260040180806020018281038252604e815260200180614e93604e913960600191505060405180910390fd5b60006001600160a01b03831615806136eb5750600a5460408051630bb7c8fd60e31b81526001600160a01b03868116600483015291519190921691635dbe47e8916024808301926020929190829003018186803b1580156136bd57600080fd5b505afa1580156136d1573d6000803e3d6000fd5b505050506040513d60208110156136e757600080fd5b5051155b806137065750670f43fc2c04ee00006137048484612024565b105b1561371357506000610b2e565b600a546040805163765e015960e01b81526001600160a01b0386811660048301529151600093929092169163765e015991602480820192602092909190829003018186803b15801561376457600080fd5b505afa158015613778573d6000803e3d6000fd5b505050506040513d602081101561378e57600080fd5b505190506001600160a01b03811615806137b85750670f43fc2c04ee00006137b68285612024565b105b949350505050565b6137c8614d81565b6001600160a01b0386166000908152600d60205260409020546138049086906137ff90678ac7230489e8000063ffffffff61231216565b614588565b80825261382590859061107890670de0b6b3a764000063ffffffff612f2216565b60208083019190915281516001600160a01b0388166000908152600d90925260408220546138589163ffffffff61231216565b6020808401516001600160a01b038a166000908152600d9092526040822060010154929350909161388e9163ffffffff61231216565b9050678ac7230489e800008214156138ca576138a988613dae565b6138b288613cf4565b6138c588678ac7230489e800008361459e565b6139a0565b60006138d7828489613533565b90508481146138f257505060008083526020830152506139f3565b600a5460408051621d45b760e21b81526001600160a01b038c8116600483015260248201859052604482018b905289811660648301819052608483015291519190921691627516dc9160a480830192600092919082900301818387803b15801561395b57600080fd5b505af115801561396f573d6000803e3d6000fd5b5050506001600160a01b038a166000908152600d602052604090208481556001018390555061399d896123f5565b50505b6001600160a01b0388166000818152600d602090815260409182902060020154825186815291820185905281830152600460608201529051600080516020614ee18339815191529181900360800190a250505b95945050505050565b600080613a07612fbd565b90506000600260009054906101000a90046001600160a01b03166001600160a01b0316635eb52fca6040518163ffffffff1660e01b815260040160206040518083038186803b158015613a5957600080fd5b505afa158015613a6d573d6000803e3d6000fd5b505050506040513d6020811015613a8357600080fd5b505160035460408051632f5a97e560e11b815290519293506000926001600160a01b0390921691635eb52fca91600480820192602092909190829003018186803b158015613ad057600080fd5b505afa158015613ae4573d6000803e3d6000fd5b505050506040513d6020811015613afa57600080fd5b505190506000613b10838363ffffffff612b1116565b90506000613b28826110788a8a63ffffffff612f2216565b90506000613b4d613b4083600263ffffffff612f7b16565b879063ffffffff612b1116565b9050670de0b6b3a76400008110613b6c57670de0b6b3a7640000613b6e565b805b600b819055670de0b6b3a764000010801590613b8c57506000600b54115b613b9257fe5b613b9a613001565b5050600b54979650505050505050565b6000610b2e670de0b6b3a764000061107884600b54612f2290919063ffffffff16565b60065460408051632770a7eb60e21b81526001600160a01b0386811660048301526024820186905291519190921691639dc29fac91604480830192600092919082900301818387803b158015613c2257600080fd5b505af1158015613c36573d6000803e3d6000fd5b50506002546040805163071b32b560e31b81526004810187905290516001600160a01b0390921693506338d995a8925060248082019260009290919082900301818387803b158015613c8757600080fd5b505af1158015613c9b573d6000803e3d6000fd5b5050600254604080516364a197f360e01b81526001600160a01b0388811660048301526024820187905291519190921693506364a197f39250604480830192600092919082900301818387803b158015612e9d57600080fd5b601454613d0081614735565b6001600160a01b0382166000908152600d6020908152604080832060038101805460ff19166002179055600180820185905590849055601390925282208281550155613d4c82826147ee565b600a5460408051631484968760e11b81526001600160a01b038581166004830152915191909216916329092d0e91602480830192600092919082900301818387803b158015613d9a57600080fd5b505af1158015612dbe573d6000803e3d6000fd5b6001600160a01b0381166000908152600d6020526040902060020154600e54613ddd908263ffffffff61231216565b600e55506001600160a01b03166000908152600d6020526040812060020155565b6003546040805163071b32b560e31b81526004810185905290516001600160a01b03909216916338d995a89160248082019260009290919082900301818387803b158015613e4b57600080fd5b505af1158015613e5f573d6000803e3d6000fd5b5050600254604080516367dc994d60e11b81526004810187905290516001600160a01b03909216935063cfb9329a925060248082019260009290919082900301818387803b158015613eb057600080fd5b505af1158015613ec4573d6000803e3d6000fd5b5050600354600254604080516364a197f360e01b81526001600160a01b0392831660048201526024810187905290519190921693506364a197f39250604480830192600092919082900301818387803b158015613d9a57600080fd5b60008184841115613faf5760405162461bcd60e51b81526004018080602001828103825283818151815260200191508051906020019080838360005b83811015613f74578181015183820152602001613f5c565b50505050905090810190601f168015613fa15780820380516001836020036101000a031916815260200191505b509250505060405180910390fd5b505050900390565b60008060105460001415613fcc575081610b2e565b6000600f5411613fd857fe5b612354601054611078600f5486612f2290919063ffffffff16565b613ffb614ccf565b614003614de3565b60145460011061401357506137b8565b61401c8661198a565b604085019081526020858101928352860192909252918452905190516140429190613dfe565b61404f8260200151614970565b60408301819052678ac7230489e80000606084015260208301516140789163ffffffff61231216565b8152670de0b6b3a764000085116141125761409286613dae565b60006080830181905260a0830152815160c0830152805160e08301526140b786613cf4565b856001600160a01b0316600080516020614e05833981519152836000015184602001516002604051808481526020018381526020018260048111156140f857fe5b60ff168152602001935050505060405180910390a26141cb565b670de0b6b3a7640000851180156141305750670f43fc2c04ee000085105b1561416a5761413e86613dae565b8151815161414d919086614977565b60e086015260c085015260a084015260808301526140b786613cf4565b670f43fc2c04ee0000851015801561418157508285105b156141ba578361418d57fe5b61419686613dae565b6141aa8683600001518460200151876149e3565b91506141b586613cf4565b6141cb565b6141c2614ccf565b91506137b89050565b50949350505050565b6141dc614ccf565b604080830151908401516141f59163ffffffff612b1116565b6040820152606080830151908401516142139163ffffffff612b1116565b60608201528151602084015161422e9163ffffffff612b1116565b602080830191909152820151835161424b9163ffffffff612b1116565b8152608080830151908401516142669163ffffffff612b1116565b608082015260a080830151908401516142849163ffffffff612b1116565b60a082015260c080830151908401516142a29163ffffffff612b1116565b60c082015260e080830151908401516142c09163ffffffff612b1116565b60e0820152610100808301516001600160a01b03908116918301919091526101208084015190830152610140808401519083015261016080840151821690830152610180808401519091169082015292915050565b600080614323858585613533565b90506714d1120d7b16000081101561433f576001915050612354565b6000915050612354565b614351614ccf565b614359614de3565b6143628461198a565b604085019081526020858101928352860192909252918452905190516143889190613dfe565b61439184613dae565b61439e8260200151614970565b60408301819052678ac7230489e80000606084015260208301516000916143cb919063ffffffff61231216565b90506143dc83600001518286614977565b60e087015260c086015260a085015260808401526143f985613cf4565b846001600160a01b0316600080516020614e058339815191528460000151856020015160016040518084815260200183815260200182600481111561443a57fe5b60ff168152602001935050505060405180910390a2505092915050565b600081836144a65760405162461bcd60e51b8152602060048201818152835160248401528351909283926044909101919085019080838360008315613f74578181015183820152602001613f5c565b5060008385816144b257fe5b0495945050505050565b60006144d8603c611078600c544261231290919063ffffffff16565b905090565b6000631f5405008211156144f357631f54050091505b816145075750670de0b6b3a7640000610b2e565b670de0b6b3a764000083835b600181111561457e57600281066145485761452e8283614c55565b915061454181600263ffffffff612f7b16565b9050614579565b6145528284614c55565b925061455e8283614c55565b9150614576600261107883600163ffffffff61231216565b90505b614513565b6110848284614c55565b60008183106145975781612354565b5090919050565b60065460408051632770a7eb60e21b81526109a560048201526024810185905290516001600160a01b0390921691639dc29fac9160448082019260009290919082900301818387803b1580156145f357600080fd5b505af1158015614607573d6000803e3d6000fd5b50506002546040805163071b32b560e31b81526004810187905290516001600160a01b0390921693506338d995a8925060248082019260009290919082900301818387803b15801561465857600080fd5b505af115801561466c573d6000803e3d6000fd5b505060055460408051633f10abab60e01b81526001600160a01b038881166004830152602482018790529151919092169350633f10abab9250604480830192600092919082900301818387803b1580156146c557600080fd5b505af11580156146d9573d6000803e3d6000fd5b5050600254600554604080516364a197f360e01b81526001600160a01b0392831660048201526024810187905290519190921693506364a197f39250604480830192600092919082900301818387803b158015612e9d57600080fd5b6001811180156147b35750600a546040805163de8fa43160e01b815290516001926001600160a01b03169163de8fa431916004808301926020929190829003018186803b15801561478557600080fd5b505afa158015614799573d6000803e3d6000fd5b505050506040513d60208110156147af57600080fd5b5051115b610ad35760405162461bcd60e51b815260040180806020018281038252602a815260200180614e48602a913960400191505060405180910390fd5b60026001600160a01b0383166000908152600d602052604090206003015460ff16600281111561481a57fe5b146148565760405162461bcd60e51b8152600401808060200182810382526023815260200180614e256023913960400191505060405180910390fd5b6001600160a01b0382166000908152600d602052604081206003015461010090046001600160801b031690829061488e826001612312565b905080836001600160801b031611156148a357fe5b6000601482815481106148b257fe5b600091825260209091200154601480546001600160a01b03909216925082916001600160801b0387169081106148e457fe5b600091825260208083209190910180546001600160a01b0319166001600160a01b039485161790559183168152600d909152604090206003018054610100600160881b0319166101006001600160801b03871602179055601480548061494657fe5b600082815260209020810160001990810180546001600160a01b0319169055019055505050505050565b60c8900490565b600080808084156149cd5761498c8786614588565b93506149a287611078888763ffffffff612f2216565b92506149b4878563ffffffff61231216565b91506149c6868463ffffffff61231216565b90506149da565b5060009250829150859050845b93509350935093565b6149eb614ccf565b83815260208101839052818411614a8457614a0583614970565b60408201819052678ac7230489e80000606083015260808201859052614a3290849063ffffffff61231216565b60a0820152600060c0820181905260e0820152604080518581526020810185905260028183015290516001600160a01b03871691600080516020614e05833981519152919081900360600190a26137b8565b614aa5614a97858463ffffffff61231216565b678ac7230489e80000614c8e565b6101208201819052614abe90859063ffffffff61231216565b60808201819052600090614adf90869061107890879063ffffffff612f2216565b9050614aea81614970565b6040830181905260006060840152614b0990829063ffffffff61231216565b60a0830152600060e0830181905260c08301526001600160a01b038616610100830152614b3c848263ffffffff61231216565b610140830152600a5460408051632dc9c0eb60e21b81526001600160a01b0389811660048301529151919092169163b72703ac916024808301926020929190829003018186803b158015614b8f57600080fd5b505afa158015614ba3573d6000803e3d6000fd5b505050506040513d6020811015614bb957600080fd5b50516001600160a01b03908116610160840152600a546040805163765e015960e01b815289841660048201529051919092169163765e0159916024808301926020929190829003018186803b158015614c1157600080fd5b505afa158015614c25573d6000803e3d6000fd5b505050506040513d6020811015614c3b57600080fd5b50516001600160a01b031661018083015250949350505050565b600080614c68848463ffffffff612f2216565b90506137b8670de0b6b3a7640000611078836706f05b59d3b2000063ffffffff612b1116565b6000818310156145975781612354565b6040518060a00160405280600081526020016000815260200160001515815260200160008152602001600081525090565b604051806101a00160405280600081526020016000815260200160008152602001600081526020016000815260200160008152602001600081526020016000815260200160006001600160a01b03168152602001600081526020016000815260200160006001600160a01b0316815260200160006001600160a01b031681525090565b6040518060a0016040528060008152602001600081526020016000815260200160008152602001600081525090565b604051806040016040528060008152602001600081525090565b6040518060e0016040528060008152602001600081526020016000815260200160006001600160a01b0316815260200160001515815260200160008152602001600081525090565b6040518060600160405280600081526020016000815260200160008152509056feea67486ed7ebe3eea8ab3390efd4a3c8aae48be5bea27df104a8af786c40843454726f76654d616e616765723a2054726f7665206973207374696c6c2061637469766554726f76654d616e616765723a204f6e6c79206f6e652074726f766520696e207468652073797374656d536166654d6174683a206d756c7469706c69636174696f6e206f766572666c6f7754726f76654d616e616765723a2052657175657374656420726564656d7074696f6e20616d6f756e74206d757374206265203c3d20757365722773204c55534420746f6b656e2062616c616e6365c3770d654ed33aeea6bf11ac8ef05d02a6a04ed4686dd2f624d853bbec43cc8b54726f76654d616e616765723a2043616c6c6572206973206e6f742074686520426f72726f7765724f7065726174696f6e7320636f6e747261637454726f76654d616e616765723a2043616c6c646174612061646472657373206172726179206d757374206e6f7420626520656d70747954726f76654d616e616765723a20416d6f756e74206d7573742062652067726561746572207468616e207a65726f54726f76654d616e616765723a2054726f766520646f6573206e6f74206578697374206f7220697320636c6f736564a26469706673582212205d651c03c49d6d32a51e3e6ad03a2e58831ed508f18cfc3430170543758854b964736f6c634300060b0033608060405234801561001057600080fd5b50600080546001600160a01b0319163390811782556040519091907f8be0079c531659141344cd1fd0a4f28419497f9722a3daafe3b4186f6b6457e0908290a36130c68061005f6000396000f3fe6080604052600436106101775760003560e01c8063794e5724116100cc578063ae9187541161007a578063ae91875414610469578063b83f91a21461047e578063c504047414610493578063d62d5bdc146104cc578063e4f15d7b14610505578063f24344e61461052b578063f6286f831461054057610177565b8063794e5724146103795780637f7dde4a1461038e578063835353f7146103a35780638da5cb5b146103dd5780638f32d59b146103f25780639f48090c1461041b578063a3a640171461045457610177565b80634870dd9a116101295780634870dd9a1461026f5780634ff81443146102845780635733d58f146102ae57806366272044146102c357806372fe25aa1461033a578063741bef1a1461034f578063761ab22c1461036457610177565b80630e704d501461017c5780630fba780514610193578063115096cd146101c457806326a909f2146101f25780632e86bbd81461021e5780633cc74225146102455780633d83908a1461025a575b600080fd5b34801561018857600080fd5b50610191610573565b005b34801561019f57600080fd5b506101a86108a8565b604080516001600160a01b039092168252519081900360200190f35b610191600480360360408110156101da57600080fd5b506001600160a01b03813581169160200135166108ae565b6101916004803603604081101561020857600080fd5b50803590602001356001600160a01b03166108c9565b34801561022a57600080fd5b50610233610fa8565b60408051918252519081900360200190f35b34801561025157600080fd5b506101a8610fb4565b34801561026657600080fd5b506101a8610fc3565b34801561027b57600080fd5b50610233610fd2565b34801561029057600080fd5b50610233600480360360208110156102a757600080fd5b5035610fd7565b3480156102ba57600080fd5b50610233610fe8565b3480156102cf57600080fd5b5061019160048036036101208110156102e757600080fd5b506001600160a01b038135811691602081013582169160408201358116916060810135821691608082013581169160a081013582169160c082013581169160e08101358216916101009091013516610ff4565b34801561034657600080fd5b5061023361133e565b34801561035b57600080fd5b506101a861134a565b34801561037057600080fd5b506101a8611359565b34801561038557600080fd5b50610233611368565b34801561039a57600080fd5b506101a8611374565b610191600480360360808110156103b957600080fd5b508035906020810135906040810135151590606001356001600160a01b0316611383565b3480156103e957600080fd5b506101a8611396565b3480156103fe57600080fd5b506104076113a6565b604080519115158252519081900360200190f35b34801561042757600080fd5b506101916004803603604081101561043e57600080fd5b50803590602001356001600160a01b03166113b7565b34801561046057600080fd5b506101a86113c6565b34801561047557600080fd5b506101a86113d5565b34801561048a57600080fd5b506101a86113e4565b34801561049f57600080fd5b50610191600480360360408110156104b657600080fd5b50803590602001356001600160a01b03166113f3565b3480156104d857600080fd5b50610191600480360360408110156104ef57600080fd5b50803590602001356001600160a01b0316611401565b6101916004803603602081101561051b57600080fd5b50356001600160a01b0316611410565b34801561053757600080fd5b50610233611422565b34801561054c57600080fd5b506101916004803603602081101561056357600080fd5b50356001600160a01b031661142e565b61057c336114cb565b610584611589565b60015460408051630b07655760e01b815233600482015290516001600160a01b0390921691630b0765579160248082019260009290919082900301818387803b1580156105d057600080fd5b505af11580156105e4573d6000803e3d6000fd5b5050600154604080516309019aaf60e31b81523360048201529051600094506001600160a01b03909216925063480cd578916024808301926020929190829003018186803b15801561063557600080fd5b505afa158015610649573d6000803e3d6000fd5b505050506040513d602081101561065f57600080fd5b50516001546040805163d66a255360e01b815233600482015290519293506000926001600160a01b039092169163d66a255391602480820192602092909190829003018186803b1580156106b257600080fd5b505afa1580156106c6573d6000803e3d6000fd5b505050506040513d60208110156106dc57600080fd5b505160015460408051631fc5750960e31b815233600482015290519293506001600160a01b039091169163fe2ba8489160248082019260009290919082900301818387803b15801561072d57600080fd5b505af1158015610741573d6000803e3d6000fd5b5050600154604080516365e89c5760e11b815233600482015290516001600160a01b03909216935063cbd138ae925060248082019260009290919082900301818387803b15801561079157600080fd5b505af11580156107a5573d6000803e3d6000fd5b505050506107cd336107c8678ac7230489e80000846115cf90919063ffffffff16565b611618565b600254604080516364a197f360e01b81523360048201526024810185905290516001600160a01b03909216916364a197f39160448082019260009290919082900301818387803b15801561082057600080fd5b505af1158015610834573d6000803e3d6000fd5b5050505061084c6109a5678ac7230489e80000611618565b336001600160a01b0316600080516020612f49833981519152600080600060016040518085815260200184815260200183815260200182600681111561088e57fe5b60ff16815260200194505050505060405180910390a25050565b6109a581565b6108b66116ee565b6108c582600080600085611737565b5050565b60065460408051634c6afee560e11b815290516000926001600160a01b0316916398d5fdca916004808301926020929190829003018186803b15801561090e57600080fd5b505afa158015610922573d6000803e3d6000fd5b505050506040513d602081101561093857600080fd5b5051905061094533611edc565b600160009054906101000a90046001600160a01b03166001600160a01b0316635dba4c4a6040518163ffffffff1660e01b8152600401600060405180830381600087803b15801561099557600080fd5b505af11580156109a9573d6000803e3d6000fd5b505060015460408051630631203b60e41b8152600481018890529051600094506001600160a01b03909216925063631203b0916024808301926020929190829003018186803b1580156109fb57600080fd5b505afa158015610a0f573d6000803e3d6000fd5b505050506040513d6020811015610a2557600080fd5b505190506000610a3b858363ffffffff611fb116565b90506000610a488261200b565b905060008111610a5457fe5b6000610a61348387612025565b9050610a6b612063565b15610a7e57610a7981612094565b610a96565b610a87816120db565b610a9634600184600189612122565b6001805460408051635d6b480f60e01b81523360048201526024810193909352516001600160a01b0390911691635d6b480f91604480830192600092919082900301818387803b158015610ae957600080fd5b505af1158015610afd573d6000803e3d6000fd5b5050600154604080516372423c1760e01b815233600482015234602482015290516001600160a01b0390921693506372423c1792506044808201926020929091908290030181600087803b158015610b5457600080fd5b505af1158015610b68573d6000803e3d6000fd5b505050506040513d6020811015610b7e57600080fd5b505060015460408051639976cf4560e01b81523360048201526024810185905290516001600160a01b0390921691639976cf45916044808201926020929091908290030181600087803b158015610bd457600080fd5b505af1158015610be8573d6000803e3d6000fd5b505050506040513d6020811015610bfe57600080fd5b5050600154604080516382fe3eb960e01b815233600482015290516001600160a01b03909216916382fe3eb99160248082019260009290919082900301818387803b158015610c4c57600080fd5b505af1158015610c60573d6000803e3d6000fd5b505060015460408051630c7940bd60e11b81523360048201529051600094506001600160a01b0390921692506318f2817a91602480830192602092919082900301818787803b158015610cb257600080fd5b505af1158015610cc6573d6000803e3d6000fd5b505050506040513d6020811015610cdc57600080fd5b5051600a5460408051633a7bc51160e11b815233600482015260248101869052604481018a90526001600160a01b038b811660648301819052608483015291519394509116916374f78a229160a48082019260009290919082900301818387803b158015610d4957600080fd5b505af1158015610d5d573d6000803e3d6000fd5b5050600154604080516315d549f160e01b81523360048201529051600094506001600160a01b0390921692506315d549f191602480830192602092919082900301818787803b158015610daf57600080fd5b505af1158015610dc3573d6000803e3d6000fd5b505050506040513d6020811015610dd957600080fd5b505160408051828152905191925033917f59cfd0cd754bc5748b6770e94a4ffa5f678d885cb899dcfadc5734edb97c67ab9181900360200190a2600954600854604080516340c10f1960e01b81526001600160a01b039283166004820152602481018a9052905191909216916340c10f1991604480830192600092919082900301818387803b158015610e6b57600080fd5b505af1158015610e7f573d6000803e3d6000fd5b505060075460408051634677ffb360e01b8152600481018b905290516001600160a01b039092169350634677ffb3925060248082019260009290919082900301818387803b158015610ed057600080fd5b505af1158015610ee4573d6000803e3d6000fd5b50505050610ef13461217a565b610efc338a876121dd565b610f116109a5678ac7230489e80000806121dd565b336001600160a01b0316600080516020612f49833981519152863485600060405180858152602001848152602001838152602001826006811115610f5157fe5b60ff16815260200194505050505060405180910390a260408051878152905133917fa55c5f48fd29482ad55f4b59bf070cd1ac1a7132a31f7a136ebe8877ae37e1ff919081900360200190a2505050505050505050565b678ac7230489e8000081565b6003546001600160a01b031681565b6001546001600160a01b031681565b60c881565b6000610fe28261200b565b92915050565b6714d1120d7b16000081565b610ffc6113a6565b61104d576040805162461bcd60e51b815260206004820181905260248201527f4f776e61626c653a2063616c6c6572206973206e6f7420746865206f776e6572604482015290519081900360640190fd5b600180546001600160a01b03199081166001600160a01b038c81169182179093556002805483168c85161790556003805483168b85161790556004805483168a8516179055600580548316898516179055600680548316888516179055600a80548316878516179055600980548316868516179055600880548316938516938417905560078054909216909217905560408051918252517f143219c9e69b09e07e095fcc889b43d8f46ca892bba65f08dc3a0050869a5678916020908290030190a1604080516001600160a01b038a16815290517f78f058b189175430c48dc02699e3a0031ea4ff781536dc2fab847de4babdd8829181900360200190a1604080516001600160a01b038916815290517f5ee0cae2f063ed938bb55046f6a932fb6ae792bf43624806bb90abe68a50be9b9181900360200190a1604080516001600160a01b038816815290517f82966d27eea39b038ee0fa30cd16532bb24f6e65d31cb58fb227aa5766cdcc7f9181900360200190a1604080516001600160a01b038716815290517fe67f36a6e961157d6eff83b91f3af5a62131ceb6f04954ef74f51c1c05e7f88d9181900360200190a1604080516001600160a01b038416815290517f227eec0ec317af6ab1a9587ffa1c84332522eb4c583a908f89babc05f8f339bd9181900360200190a1604080516001600160a01b038616815290517f8c537274438aa850a330284665d81a85dd38267d09e4050d416bfc94142db2649181900360200190a1604080516001600160a01b038516815290517f65f4cf077bc01e4742eb5ad98326f6e95b63548ea24b17f8d5e823111fe788009181900360200190a1604080516001600160a01b038416815290517f227eec0ec317af6ab1a9587ffa1c84332522eb4c583a908f89babc05f8f339bd9181900360200190a1604080516001600160a01b038316815290517f756ebc192164c295bba134b5aacd72cc7aff8098a670d1f0a5f6b3a0b4ce67079181900360200190a16113336122b4565b505050505050505050565b670de0b6b3a764000081565b6006546001600160a01b031681565b6008546001600160a01b031681565b670f43fc2c04ee000081565b6002546001600160a01b031681565b6113903385858585611737565b50505050565b6000546001600160a01b03165b90565b6000546001600160a01b0316331490565b6108c533600084600185611737565b6007546001600160a01b031681565b600a546001600160a01b031681565b6009546001600160a01b031681565b6108c5338360008085611737565b6108c533600084600085611737565b61141f33600080600085611737565b50565b6729a2241af62c000081565b6005546040805163b32beb5b60e01b81526001600160a01b0384811660048301529151919092169163b32beb5b91602480830192600092919082900301818387803b15801561147c57600080fd5b505af1158015611490573d6000803e3d6000fd5b50506040516001600160a01b03841692507f2d56203768a90f8fe9eca674729e0e96056d1c0c913ba11d6168b996e2f3f3169150600090a250565b600154604080516321e3780160e01b81526001600160a01b038481166004830152915160009392909216916321e3780191602480820192602092909190829003018186803b15801561151c57600080fd5b505afa158015611530573d6000803e3d6000fd5b505050506040513d602081101561154657600080fd5b50519050600181146108c55760405162461bcd60e51b815260040180806020018281038252602e815260200180612f1b602e913960400191505060405180910390fd5b611591612063565b156115cd5760405162461bcd60e51b8152600401808060200182810382526039815260200180612e026039913960400191505060405180910390fd5b565b600061161183836040518060400160405280601e81526020017f536166654d6174683a207375627472616374696f6e206f766572666c6f7700008152506122fe565b9392505050565b6002546040805163071b32b560e31b81526004810184905290516001600160a01b03909216916338d995a89160248082019260009290919082900301818387803b15801561166557600080fd5b505af1158015611679573d6000803e3d6000fd5b505060095460408051632770a7eb60e21b81526001600160a01b038781166004830152602482018790529151919092169350639dc29fac9250604480830192600092919082900301818387803b1580156116d257600080fd5b505af11580156116e6573d6000803e3d6000fd5b505050505050565b6004546001600160a01b031633146115cd5760405162461bcd60e51b81526004018080602001828103825260298152602001806130346029913960400191505060405180910390fd5b341580611742575083155b61177d5760405162461bcd60e51b8152600401808060200182810382526030815260200180612dd26030913960400191505060405180910390fd5b60008415158061178a5750825b9050336001600160a01b03871614806117a1575080155b6117dc5760405162461bcd60e51b8152600401808060200182810382526030815260200180612e3b6030913960400191505060405180910390fd5b341515806117e957508415155b806117f357508315155b61182e5760405162461bcd60e51b8152600401808060200182810382526046815260200180612e6b6046913960600191505060405180910390fd5b611836612d75565b61183f876114cb565b811561184d5761184d611589565b600660009054906101000a90046001600160a01b03166001600160a01b03166398d5fdca6040518163ffffffff1660e01b815260040160206040518083038186803b15801561189b57600080fd5b505afa1580156118af573d6000803e3d6000fd5b505050506040513d60208110156118c557600080fd5b5051815260015460408051630b07655760e01b81526001600160a01b038a8116600483015291519190921691630b07655791602480830192600092919082900301818387803b15801561191757600080fd5b505af115801561192b573d6000803e3d6000fd5b505050506119393487612395565b151560608301526020820152604081018590528380156119595750600085115b15611b4057600160009054906101000a90046001600160a01b03166001600160a01b0316635dba4c4a6040518163ffffffff1660e01b8152600401600060405180830381600087803b1580156119ae57600080fd5b505af11580156119c2573d6000803e3d6000fd5b505060015460408051630631203b60e41b8152600481018a905290516001600160a01b03909216935063631203b09250602480820192602092909190829003018186803b158015611a1257600080fd5b505afa158015611a26573d6000803e3d6000fd5b505050506040513d6020811015611a3c57600080fd5b505160e082018190526040820151611a599163ffffffff611fb116565b60408083019190915260075460e08301518251634677ffb360e01b8152600481019190915291516001600160a01b0390911691634677ffb391602480830192600092919082900301818387803b158015611ab257600080fd5b505af1158015611ac6573d6000803e3d6000fd5b505060095460085460e0850151604080516340c10f1960e01b81526001600160a01b0393841660048201526024810192909252519190921693506340c10f199250604480830192600092919082900301818387803b158015611b2757600080fd5b505af1158015611b3b573d6000803e3d6000fd5b505050505b6001546040805163d66a255360e01b81526001600160a01b038a811660048301529151919092169163d66a2553916024808301926020929190829003018186803b158015611b8d57600080fd5b505afa158015611ba1573d6000803e3d6000fd5b505050506040513d6020811015611bb757600080fd5b50516080820152600154604080516309019aaf60e31b81526001600160a01b038a811660048301529151919092169163480cd578916024808301926020929190829003018186803b158015611c0b57600080fd5b505afa158015611c1f573d6000803e3d6000fd5b505050506040513d6020811015611c3557600080fd5b505160a0820181905260808201516020830151606084015160408501518551611c649594939291908a906123b4565b60c08201528115611c7c57611c7c8160c001516120db565b838015611c895750600085115b15611cab57611cab816020015182606001518360400151878560000151612122565b8060600151611cc657611cc68160a00151826020015161242c565b83158015611cd45750600085115b15611ceb57611ceb8160800151826040015161246b565b611d0487826020015183606001518460400151886124c1565b61010083015261012082015260015460408051630c7940bd60e11b81526001600160a01b038a81166004830152915191909216916318f2817a9160248083019260209291908290030181600087803b158015611d5f57600080fd5b505af1158015611d73573d6000803e3d6000fd5b505050506040513d6020811015611d8957600080fd5b5051610140820152600a5460c0820151825160408051621d45b760e21b81526001600160a01b038c8116600483015260248201949094526044810192909252868316606483018190526084830152519190921691627516dc9160a480830192600092919082900301818387803b158015611e0257600080fd5b505af1158015611e16573d6000803e3d6000fd5b50505050611e343382602001518360600151888886604001516126f8565b866001600160a01b0316600080516020612f49833981519152826101000151836101200151846101400151600660405180858152602001848152602001838152602001826006811115611e8357fe5b60ff16815260200194505050505060405180910390a260e0810151604080519182525133917fa55c5f48fd29482ad55f4b59bf070cd1ac1a7132a31f7a136ebe8877ae37e1ff919081900360200190a250505050505050565b600154604080516321e3780160e01b81526001600160a01b038481166004830152915160009392909216916321e3780191602480820192602092909190829003018186803b158015611f2d57600080fd5b505afa158015611f41573d6000803e3d6000fd5b505050506040513d6020811015611f5757600080fd5b5051905060018114156108c5576040805162461bcd60e51b815260206004820152601c60248201527f426f72726f7765724f70733a2054726f76652069732061637469766500000000604482015290519081900360640190fd5b600082820183811015611611576040805162461bcd60e51b815260206004820152601b60248201527f536166654d6174683a206164646974696f6e206f766572666c6f770000000000604482015290519081900360640190fd5b6000610fe282678ac7230489e8000063ffffffff611fb116565b6000821561205857600061204f84612043878663ffffffff6127a116565b9063ffffffff6127fa16565b91506116119050565b506000199392505050565b60008061206e61283c565b90506714d1120d7b16000081101561208a5760019150506113a3565b60009150506113a3565b6729a2241af62c000081101561141f5760405162461bcd60e51b815260040180806020018281038252603f815260200180612f69603f913960400191505060405180910390fd5b670f43fc2c04ee000081101561141f5760405162461bcd60e51b8152600401808060200182810382526049815260200180612fa86049913960600191505060405180910390fd5b60006121318686868686612ad6565b90506714d1120d7b1600008110156116e65760405162461bcd60e51b8152600401808060200182810382526049815260200180612ed26049913960600191505060405180910390fd5b6002546040516000916001600160a01b03169083908381818185875af1925050503d80600081146121c7576040519150601f19603f3d011682016040523d82523d6000602084013e6121cc565b606091505b50909150506001811515146108c557fe5b600254604080516367dc994d60e11b81526004810184905290516001600160a01b039092169163cfb9329a9160248082019260009290919082900301818387803b15801561222a57600080fd5b505af115801561223e573d6000803e3d6000fd5b5050600954604080516340c10f1960e01b81526001600160a01b0388811660048301526024820188905291519190921693506340c10f199250604480830192600092919082900301818387803b15801561229757600080fd5b505af11580156122ab573d6000803e3d6000fd5b50505050505050565b600080546040516001600160a01b03909116907f8be0079c531659141344cd1fd0a4f28419497f9722a3daafe3b4186f6b6457e0908390a3600080546001600160a01b0319169055565b6000818484111561238d5760405162461bcd60e51b81526004018080602001828103825283818151815260200191508051906020019080838360005b8381101561235257818101518382015260200161233a565b50505050905090810190601f16801561237f5780820380516001836020036101000a031916815260200191505b509250505060405180910390fd5b505050900390565b60008083156123a9575082905060016123ad565b8291505b9250929050565b60008787866123d2576123cd8a8963ffffffff6115cf16565b6123e2565b6123e28a8963ffffffff611fb116565b9150846123fe576123f9898763ffffffff6115cf16565b61240e565b61240e898763ffffffff611fb116565b9050600061241d838387612025565b9b9a5050505050505050505050565b818111156108c55760405162461bcd60e51b815260040180806020018281038252603481526020018061305d6034913960400191505060405180910390fd5b61248382678ac7230489e8000063ffffffff6115cf16565b8111156108c55760405162461bcd60e51b8152600401808060200182810382526043815260200180612ff16043913960600191505060405180910390fd5b600080600085612552576001546040805163d3d6f84360e01b81526001600160a01b038b81166004830152602482018b90529151919092169163d3d6f8439160448083019260209291908290030181600087803b15801561252157600080fd5b505af1158015612535573d6000803e3d6000fd5b505050506040513d602081101561254b57600080fd5b50516125d5565b600154604080516372423c1760e01b81526001600160a01b038b81166004830152602482018b9052915191909216916372423c179160448083019260209291908290030181600087803b1580156125a857600080fd5b505af11580156125bc573d6000803e3d6000fd5b505050506040513d60208110156125d257600080fd5b50515b90506000846126655760015460408051630930874960e11b81526001600160a01b038c81166004830152602482018a9052915191909216916312610e929160448083019260209291908290030181600087803b15801561263457600080fd5b505af1158015612648573d6000803e3d6000fd5b505050506040513d602081101561265e57600080fd5b50516126e8565b60015460408051639976cf4560e01b81526001600160a01b038c81166004830152602482018a905291519190921691639976cf459160448083019260209291908290030181600087803b1580156126bb57600080fd5b505af11580156126cf573d6000803e3d6000fd5b505050506040513d60208110156126e557600080fd5b50515b9199919850909650505050505050565b811561270e576127098684836121dd565b612718565b6127188684611618565b831561272c576127278561217a565b6116e6565b600254604080516364a197f360e01b81526001600160a01b03898116600483015260248201899052915191909216916364a197f391604480830192600092919082900301818387803b15801561278157600080fd5b505af1158015612795573d6000803e3d6000fd5b50505050505050505050565b6000826127b057506000610fe2565b828202828482816127bd57fe5b04146116115760405162461bcd60e51b8152600401808060200182810382526021815260200180612eb16021913960400191505060405180910390fd5b600061161183836040518060400160405280601a81526020017f536166654d6174683a206469766973696f6e206279207a65726f000000000000815250612d10565b600080600660009054906101000a90046001600160a01b03166001600160a01b03166398d5fdca6040518163ffffffff1660e01b815260040160206040518083038186803b15801561288d57600080fd5b505afa1580156128a1573d6000803e3d6000fd5b505050506040513d60208110156128b757600080fd5b505160025460408051630a7b61df60e11b815290519293506000926001600160a01b03909216916314f6c3be91600480820192602092909190829003018186803b15801561290457600080fd5b505afa158015612918573d6000803e3d6000fd5b505050506040513d602081101561292e57600080fd5b505160025460408051632f5a97e560e11b815290519293506000926001600160a01b0390921691635eb52fca91600480820192602092909190829003018186803b15801561297b57600080fd5b505afa15801561298f573d6000803e3d6000fd5b505050506040513d60208110156129a557600080fd5b505160035460408051630a7b61df60e11b815290519293506000926001600160a01b03909216916314f6c3be91600480820192602092909190829003018186803b1580156129f257600080fd5b505afa158015612a06573d6000803e3d6000fd5b505050506040513d6020811015612a1c57600080fd5b505160035460408051632f5a97e560e11b815290519293506000926001600160a01b0390921691635eb52fca91600480820192602092909190829003018186803b158015612a6957600080fd5b505afa158015612a7d573d6000803e3d6000fd5b505050506040513d6020811015612a9357600080fd5b505190506000612aa9858463ffffffff611fb116565b90506000612abd858463ffffffff611fb116565b9050612aca828289612025565b97505050505050505090565b600080612bd3600360009054906101000a90046001600160a01b03166001600160a01b03166314f6c3be6040518163ffffffff1660e01b815260040160206040518083038186803b158015612b2a57600080fd5b505afa158015612b3e573d6000803e3d6000fd5b505050506040513d6020811015612b5457600080fd5b505160025460408051630a7b61df60e11b815290516001600160a01b03909216916314f6c3be91600480820192602092909190829003018186803b158015612b9b57600080fd5b505afa158015612baf573d6000803e3d6000fd5b505050506040513d6020811015612bc557600080fd5b50519063ffffffff611fb116565b90506000612c99600360009054906101000a90046001600160a01b03166001600160a01b0316635eb52fca6040518163ffffffff1660e01b815260040160206040518083038186803b158015612c2857600080fd5b505afa158015612c3c573d6000803e3d6000fd5b505050506040513d6020811015612c5257600080fd5b505160025460408051632f5a97e560e11b815290516001600160a01b0390921691635eb52fca91600480820192602092909190829003018186803b158015612b9b57600080fd5b905086612cb557612cb0828963ffffffff6115cf16565b612cc5565b612cc5828963ffffffff611fb116565b915084612ce457612cdc818763ffffffff6115cf16565b905080612cf4565b612cf4818763ffffffff611fb116565b90506000612d03838387612025565b9998505050505050505050565b60008183612d5f5760405162461bcd60e51b815260206004820181815283516024840152835190928392604490910191908501908083836000831561235257818101518382015260200161233a565b506000838581612d6b57fe5b0495945050505050565b60405180610160016040528060008152602001600081526020016000815260200160001515815260200160008152602001600081526020016000815260200160008152602001600081526020016000815260200160008152509056fe426f72726f7765724f7065726174696f6e733a2043616e6e6f7420776974686472617720616e642061646420636f6c6c426f72726f7765724f70733a204f7065726174696f6e206e6f74207065726d697474656420647572696e67205265636f76657279204d6f6465426f72726f7765724f70733a2055736572206d7573742062652073656e64657220666f72207769746864726177616c73426f72726f7765724f70733a205468657265206d75737420626520656974686572206120636f6c6c61746572616c206368616e6765206f7220612064656274206368616e6765536166654d6174683a206d756c7469706c69636174696f6e206f766572666c6f77426f72726f7765724f70733a20416e206f7065726174696f6e207468617420776f756c6420726573756c7420696e20544352203c20434352206973206e6f74207065726d6974746564426f72726f7765724f70733a2054726f766520646f6573206e6f74206578697374206f7220697320636c6f736564c3770d654ed33aeea6bf11ac8ef05d02a6a04ed4686dd2f624d853bbec43cc8b426f72726f7765724f70733a20496e205265636f76657279204d6f6465206e65772074726f766573206d757374206861766520494352203e3d20525f4d4352426f72726f7765724f70733a20416e206f7065726174696f6e207468617420776f756c6420726573756c7420696e20494352203c204d4352206973206e6f74207065726d6974746564426f72726f7765724f70733a20416d6f756e7420726570616964206d757374206e6f74206265206c6172676572207468616e207468652054726f766527732064656274426f72726f7765724f70733a2043616c6c6572206973206e6f742053746162696c69747920506f6f6c426f72726f7765724f70733a20496e73756666696369656e742062616c616e636520666f7220455448207769746864726177616ca26469706673582212204e7a86d1291e4eda7b568b24e38de001ed7f1552149a8fe2daa85aea56e71e8364736f6c634300060b0033608060405234801561001057600080fd5b50600080546001600160a01b0319163390811782556040519091907f8be0079c531659141344cd1fd0a4f28419497f9722a3daafe3b4186f6b6457e0908290a361098f8061005f6000396000f3fe6080604052600436106100ab5760003560e01c806364a197f31161006457806364a197f3146101ce5780638da5cb5b146102075780638f32d59b1461021c578063aac1846f14610245578063b7f8cf9b1461025a578063cfb9329a1461026f576100d0565b80630b622ab2146100d557806314f6c3be1461010657806338d995a81461012d5780634a945f8d146101595780635a4d28bb146101a45780635eb52fca146101b9576100d0565b366100d0576100b8610299565b6005546100cb903463ffffffff6102f916565b600555005b600080fd5b3480156100e157600080fd5b506100ea61035a565b604080516001600160a01b039092168252519081900360200190f35b34801561011257600080fd5b5061011b610369565b60408051918252519081900360200190f35b34801561013957600080fd5b506101576004803603602081101561015057600080fd5b503561036f565b005b34801561016557600080fd5b506101576004803603608081101561017c57600080fd5b506001600160a01b038135811691602081013582169160408201358116916060013516610390565b3480156101b057600080fd5b506100ea610525565b3480156101c557600080fd5b5061011b610534565b3480156101da57600080fd5b50610157600480360360408110156101f157600080fd5b506001600160a01b03813516906020013561053a565b34801561021357600080fd5b506100ea610647565b34801561022857600080fd5b50610231610656565b604080519115158252519081900360200190f35b34801561025157600080fd5b506100ea610667565b34801561026657600080fd5b506100ea610676565b34801561027b57600080fd5b506101576004803603602081101561029257600080fd5b5035610685565b6001546001600160a01b03163314806102bc57506004546001600160a01b031633145b6102f75760405162461bcd60e51b81526004018080602001828103825260318152602001806109296031913960400191505060405180910390fd5b565b600082820183811015610353576040805162461bcd60e51b815260206004820152601b60248201527f536166654d6174683a206164646974696f6e206f766572666c6f770000000000604482015290519081900360640190fd5b9392505050565b6003546001600160a01b031681565b60055490565b6103776106a0565b60065461038a908263ffffffff61071316565b60065550565b610398610656565b6103e9576040805162461bcd60e51b815260206004820181905260248201527f4f776e61626c653a2063616c6c6572206973206e6f7420746865206f776e6572604482015290519081900360640190fd5b600180546001600160a01b038087166001600160a01b031992831681179093556002805487831690841617905560038054868316908416179055600480549185169190921617905560408051918252517f3ca631ffcd2a9b5d9ae18543fc82f58eb4ca33af9e6ab01b7a8e95331e6ed9859181900360200190a1604080516001600160a01b038516815290517f143219c9e69b09e07e095fcc889b43d8f46ca892bba65f08dc3a0050869a56789181900360200190a1604080516001600160a01b038416815290517f82966d27eea39b038ee0fa30cd16532bb24f6e65d31cb58fb227aa5766cdcc7f9181900360200190a1604080516001600160a01b038316815290517f5ee0cae2f063ed938bb55046f6a932fb6ae792bf43624806bb90abe68a50be9b9181900360200190a161051f610755565b50505050565b6002546001600160a01b031681565b60065490565b6105426106a0565b600554610555908263ffffffff61071316565b600555604080516001600160a01b03841681526020810183905281517f6109e2559dfa766aaec7118351d48a523f0a4157f49c8d68749c8ac41318ad12929181900390910190a16040516000906001600160a01b0384169083908381818185875af1925050503d80600081146105e7576040519150601f19603f3d011682016040523d82523d6000602084013e6105ec565b606091505b5050905080610642576040805162461bcd60e51b815260206004820152601e60248201527f416374697665506f6f6c3a2073656e64696e6720455448206661696c65640000604482015290519081900360640190fd5b505050565b6000546001600160a01b031690565b6000546001600160a01b0316331490565b6004546001600160a01b031681565b6001546001600160a01b031681565b61068d61079f565b60065461038a908263ffffffff6102f916565b6001546001600160a01b03163314806106c357506002546001600160a01b031633145b806106d857506003546001600160a01b031633145b6102f75760405162461bcd60e51b81526004018080602001828103825260538152602001806108d66053913960600191505060405180910390fd5b600061035383836040518060400160405280601e81526020017f536166654d6174683a207375627472616374696f6e206f766572666c6f7700008152506107fd565b600080546040516001600160a01b03909116907f8be0079c531659141344cd1fd0a4f28419497f9722a3daafe3b4186f6b6457e0908390a3600080546001600160a01b0319169055565b6001546001600160a01b03163314806107c257506002546001600160a01b031633145b6102f75760405162461bcd60e51b81526004018080602001828103825260418152602001806108956041913960600191505060405180910390fd5b6000818484111561088c5760405162461bcd60e51b81526004018080602001828103825283818151815260200191508051906020019080838360005b83811015610851578181015183820152602001610839565b50505050905090810190601f16801561087e5780820380516001836020036101000a031916815260200191505b509250505060405180910390fd5b50505090039056fe416374697665506f6f6c3a2043616c6c6572206973206e65697468657220426f72726f7765724f7065726174696f6e73206e6f722054726f76654d616e61676572416374697665506f6f6c3a2043616c6c6572206973206e65697468657220426f72726f7765724f7065726174696f6e73206e6f722054726f76654d616e61676572206e6f722053746162696c697479506f6f6c416374697665506f6f6c3a2043616c6c6572206973206e65697468657220424f206e6f722044656661756c7420506f6f6ca264697066735822122022eb0c6c1a1da53be681919319a65eff7317950178f0b52740c8992d228915e464736f6c634300060b0033608060405234801561001057600080fd5b50600080546001600160a01b0319163390811782556040519091907f8be0079c531659141344cd1fd0a4f28419497f9722a3daafe3b4186f6b6457e0908290a361077f8061005f6000396000f3fe6080604052600436106100955760003560e01c80638da5cb5b116100595780638da5cb5b146101915780638f32d59b146101a657806390107afe146101cf578063b08bc7221461020a578063cfb9329a1461021f576100ba565b806314f6c3be146100bf57806338d995a8146100e65780635a4d28bb146101125780635eb52fca1461014357806364a197f314610158576100ba565b366100ba576100a2610249565b6003546100b5903463ffffffff61029416565b600355005b600080fd5b3480156100cb57600080fd5b506100d46102f5565b60408051918252519081900360200190f35b3480156100f257600080fd5b506101106004803603602081101561010957600080fd5b50356102fb565b005b34801561011e57600080fd5b5061012761031c565b604080516001600160a01b039092168252519081900360200190f35b34801561014f57600080fd5b506100d461032b565b34801561016457600080fd5b506101106004803603604081101561017b57600080fd5b506001600160a01b038135169060200135610331565b34801561019d57600080fd5b5061012761043e565b3480156101b257600080fd5b506101bb61044d565b604080519115158252519081900360200190f35b3480156101db57600080fd5b50610110600480360360408110156101f257600080fd5b506001600160a01b038135811691602001351661045e565b34801561021657600080fd5b5061012761055f565b34801561022b57600080fd5b506101106004803603602081101561024257600080fd5b503561056e565b6002546001600160a01b031633146102925760405162461bcd60e51b81526004018080602001828103825260298152602001806106f66029913960400191505060405180910390fd5b565b6000828201838110156102ee576040805162461bcd60e51b815260206004820152601b60248201527f536166654d6174683a206164646974696f6e206f766572666c6f770000000000604482015290519081900360640190fd5b9392505050565b60035490565b610303610589565b600454610316908263ffffffff6105d216565b60045550565b6001546001600160a01b031681565b60045490565b610339610589565b60035461034c908263ffffffff6105d216565b600355604080516001600160a01b03841681526020810183905281517f6109e2559dfa766aaec7118351d48a523f0a4157f49c8d68749c8ac41318ad12929181900390910190a16040516000906001600160a01b0384169083908381818185875af1925050503d80600081146103de576040519150601f19603f3d011682016040523d82523d6000602084013e6103e3565b606091505b5050905080610439576040805162461bcd60e51b815260206004820152601f60248201527f44656661756c74506f6f6c3a2073656e64696e6720455448206661696c656400604482015290519081900360640190fd5b505050565b6000546001600160a01b031690565b6000546001600160a01b0316331490565b61046661044d565b6104b7576040805162461bcd60e51b815260206004820181905260248201527f4f776e61626c653a2063616c6c6572206973206e6f7420746865206f776e6572604482015290519081900360640190fd5b600180546001600160a01b038085166001600160a01b03199283168117909355600280549185169190921617905560408051918252517f143219c9e69b09e07e095fcc889b43d8f46ca892bba65f08dc3a0050869a56789181900360200190a1604080516001600160a01b038316815290517f78f058b189175430c48dc02699e3a0031ea4ff781536dc2fab847de4babdd8829181900360200190a161055b610614565b5050565b6002546001600160a01b031681565b610576610589565b600454610316908263ffffffff61029416565b6001546001600160a01b031633146102925760405162461bcd60e51b815260040180806020018281038252602b81526020018061071f602b913960400191505060405180910390fd5b60006102ee83836040518060400160405280601e81526020017f536166654d6174683a207375627472616374696f6e206f766572666c6f77000081525061065e565b600080546040516001600160a01b03909116907f8be0079c531659141344cd1fd0a4f28419497f9722a3daafe3b4186f6b6457e0908390a3600080546001600160a01b0319169055565b600081848411156106ed5760405162461bcd60e51b81526004018080602001828103825283818151815260200191508051906020019080838360005b838110156106b257818101518382015260200161069a565b50505050905090810190601f1680156106df5780820380516001836020036101000a031916815260200191505b509250505060405180910390fd5b50505090039056fe44656661756c74506f6f6c3a2043616c6c6572206973206e6f742074686520416374697665506f6f6c44656661756c74506f6f6c3a2043616c6c6572206973206e6f74207468652054726f76654d616e61676572a264697066735822122026dea979c812b3a1f9a2dea87a98048db1d5cd86bc8cde87161a09e9846e6e3e64736f6c634300060b00336080604052670de0b6b3a764000060115534801561001c57600080fd5b50600080546001600160a01b0319163390811782556040519091907f8be0079c531659141344cd1fd0a4f28419497f9722a3daafe3b4186f6b6457e0908290a36133ae8061006b6000396000f3fe60806040526004361061026b5760003560e01c80637f7dde4a11610144578063b83f91a2116100b6578063df9cd84f1161007a578063df9cd84f146107d7578063eaa8ba7f1461080a578063eb6b2fa61461086f578063f24344e61461089f578063f5f1595d146108b4578063fc7e286d146108e757610290565b8063b83f91a214610750578063cef941e814610765578063d4ca05751461077a578063d7fb0443146107ad578063d874ea74146107c257610290565b806395fb16bb1161010857806395fb16bb1461069b5780639bf2f1ac146106b0578063a4e59ac8146106c5578063a7bfff97146106da578063ae91875414610726578063b08bc7221461073b57610290565b80637f7dde4a1461060057806386da0824146106155780638b8fbd92146106485780638da5cb5b1461065d5780638f32d59b1461067257610290565b8063538153ca116101dd5780635f788d65116101a15780635f788d651461054257806372fe25aa1461057b578063741bef1a1461059057806376671808146105a557806377553ad4146105d6578063794e5724146105eb57610290565b8063538153ca1461048b578063556be101146104a05780635733d58f146104ca5780635a0edf77146104df5780635d2de6421461050f57610290565b80632e54bf951161022f5780632e54bf95146103bf5780632e86bbd8146103e9578063335525ad146103fe578063389e92a51461042e5780633d83908a146104615780634870dd9a1461047657610290565b80630b86273a146102955780630fba7805146102ca57806314f6c3be146102fb57806316b9d3c5146103225780631cdc47001461038c57610290565b366102905761027861093b565b600a5461028b903463ffffffff61098616565b600a55005b600080fd5b3480156102a157600080fd5b506102c8600480360360208110156102b857600080fd5b50356001600160a01b03166109e9565b005b3480156102d657600080fd5b506102df610c11565b604080516001600160a01b039092168252519081900360200190f35b34801561030757600080fd5b50610310610c17565b60408051918252519081900360200190f35b34801561032e57600080fd5b506103556004803603602081101561034557600080fd5b50356001600160a01b0316610c1d565b604080519586526020860194909452848401929092526001600160801b039081166060850152166080830152519081900360a00190f35b34801561039857600080fd5b50610310600480360360208110156103af57600080fd5b50356001600160a01b0316610c58565b3480156103cb57600080fd5b506102c8600480360360208110156103e257600080fd5b5035610d00565b3480156103f557600080fd5b50610310610e73565b34801561040a57600080fd5b506102c86004803603604081101561042157600080fd5b5080359060200135610e7f565b34801561043a57600080fd5b506103106004803603602081101561045157600080fd5b50356001600160a01b0316610ed6565b34801561046d57600080fd5b506102df610f73565b34801561048257600080fd5b50610310610f82565b34801561049757600080fd5b50610310610f87565b3480156104ac57600080fd5b506102c8600480360360208110156104c357600080fd5b5035610f8d565b3480156104d657600080fd5b50610310611002565b3480156104eb57600080fd5b506103106004803603604081101561050257600080fd5b508035906020013561100e565b34801561051b57600080fd5b506103106004803603602081101561053257600080fd5b50356001600160a01b031661102b565b34801561054e57600080fd5b506102c86004803603604081101561056557600080fd5b50803590602001356001600160a01b031661103d565b34801561058757600080fd5b506103106111bb565b34801561059c57600080fd5b506102df6111c7565b3480156105b157600080fd5b506105ba6111d6565b604080516001600160801b039092168252519081900360200190f35b3480156105e257600080fd5b506102df6111ec565b3480156105f757600080fd5b506103106111fb565b34801561060c57600080fd5b506102df611207565b34801561062157600080fd5b506103556004803603602081101561063857600080fd5b50356001600160a01b0316611216565b34801561065457600080fd5b50610310611251565b34801561066957600080fd5b506102df611257565b34801561067e57600080fd5b50610687611266565b604080519115158252519081900360200190f35b3480156106a757600080fd5b506102df611277565b3480156106bc57600080fd5b50610310611286565b3480156106d157600080fd5b506105ba61128c565b3480156106e657600080fd5b5061070d600480360360208110156106fd57600080fd5b50356001600160a01b031661129b565b6040805192835290151560208301528051918290030190f35b34801561073257600080fd5b506102df6112b7565b34801561074757600080fd5b506102df6112c6565b34801561075c57600080fd5b506102df6112d5565b34801561077157600080fd5b506103106112e4565b34801561078657600080fd5b506103106004803603602081101561079d57600080fd5b50356001600160a01b03166112ea565b3480156107b957600080fd5b506103106113ee565b3480156107ce57600080fd5b506102df6113f4565b3480156107e357600080fd5b50610310600480360360208110156107fa57600080fd5b50356001600160a01b0316611403565b34801561081657600080fd5b506102c8600480360360e081101561082d57600080fd5b506001600160a01b038135811691602081013582169160408201358116916060810135821691608082013581169160a081013582169160c090910135166114a0565b34801561087b57600080fd5b506103106004803603604081101561089257600080fd5b508035906020013561172a565b3480156108ab57600080fd5b50610310611747565b3480156108c057600080fd5b50610310600480360360208110156108d757600080fd5b50356001600160a01b0316611753565b3480156108f357600080fd5b5061091a6004803603602081101561090a57600080fd5b50356001600160a01b0316611850565b604080519283526001600160a01b0390911660208301528051918290030190f35b6005546001600160a01b031633146109845760405162461bcd60e51b81526004018080602001828103825260278152602001806130db6027913960400191505060405180910390fd5b565b6000828201838110156109e0576040805162461bcd60e51b815260206004820152601b60248201527f536166654d6174683a206164646974696f6e206f766572666c6f770000000000604482015290519081900360640190fd5b90505b92915050565b336000908152600c6020526040902054610a0281611872565b610a0b336118b4565b610a143361196b565b610a1c6119b7565b6000610a2733610ed6565b90506000610a3433610c58565b90506000610a48848363ffffffff611a3416565b336000818152600c60205260409020600101549192506001600160a01b0390911690610a749082611a76565b6000610a7f82611403565b905080610a8c8382611bfe565b6040805182815233602082015281516001600160a01b038616926000805160206132c8833981519152928290030190a2610ac63386611d4a565b604080518781526020810186905281513392600080516020613217833981519152928290030190a26040805186815290513391600080516020613133833981519152919081900360200190a2600a54610b25908763ffffffff611a3416565b600a81905560408051918252517f7ab2bdf6e6d108cd138a8f6436723e8dfd0cb22727fe608e40b5adfb8357f1b99181900360200190a1604080513381526020810188905281517f6109e2559dfa766aaec7118351d48a523f0a4157f49c8d68749c8ac41318ad12929181900390910190a16001546040805163115096cd60e01b81523360048201526001600160a01b038b811660248301529151919092169163115096cd91899160448082019260009290919082900301818588803b158015610bee57600080fd5b505af1158015610c02573d6000803e3d6000fd5b50505050505050505050505050565b6109a581565b600a5490565b6010602052600090815260409020805460018201546002830154600390930154919290916001600160801b0380821691600160801b90041685565b6001600160a01b0381166000908152600c602052604081205480610c80576000915050610cfb565b610c8861300d565b506001600160a01b0383166000908152600d60209081526040808320815160a08101835281548152600182015493810193909352600281015491830191909152600301546001600160801b038082166060840152600160801b90910416608082015290610cf58383611ed0565b93505050505b919050565b610d08611fd0565b336000908152600c6020526040902054610d2181611872565b610d296119b7565b6000610d3433610ed6565b90506000610d4133610c58565b90506000610d4f858361218c565b90506000610d63858463ffffffff611a3416565b336000818152600c60205260409020600101549192506001600160a01b0390911690610d8f9082611a76565b6000610d9a82611403565b90506000610dae828663ffffffff611a3416565b9050610dba8382611bfe565b6040805182815233602082015281516001600160a01b038616926000805160206132c8833981519152928290030190a2610df433866121a2565b6000610e06878763ffffffff611a3416565b9050610e123382611d4a565b6040805182815290513391600080516020613133833981519152919081900360200190a2610e3f8861221e565b604080518981526020810187905281513392600080516020613217833981519152928290030190a250505050505050505050565b678ac7230489e8000081565b610e8761233c565b600b54801580610e95575082155b15610ea05750610ed2565b610ea86119b7565b600080610eb6848685612385565b91509150610ec48282612474565b610ece848661269c565b5050505b5050565b6001600160a01b0381166000908152600c602052604081205480610efe576000915050610cfb565b610f0661300d565b506001600160a01b0383166000908152600d60209081526040808320815160a08101835281548152600182015493810193909352600281015491830191909152600301546001600160801b038082166060840152600160801b90910416608082015290610cf583836127e3565b6002546001600160a01b031681565b60c881565b60175481565b610f96336128e2565b610f9f3361293d565b610fa881612993565b336000818152600e60209081526040918290208481556001908101805460ff19169091179055815184815291517f19bc932fb9e16a8b5a1e41be9f4c2de59d5ddd7567b8b81405f532ca00a9880e9281900390910190a250565b6714d1120d7b16000081565b601460209081526000928352604080842090915290825290205481565b600f6020526000908152604090205481565b611046816129da565b61104f336128e2565b61105882612a46565b336000908152600c60205260409020546110706119b7565b8061107f5761107f3383612a85565b600061108a33610ed6565b9050600061109733610c58565b905060006110ab848363ffffffff611a3416565b336000818152600c60205260409020600101549192506001600160a01b03909116906110d79082611a76565b60006110e282611403565b905060006110f6828a63ffffffff61098616565b90506111028382611bfe565b6040805182815233602082015281516001600160a01b038616926000805160206132c8833981519152928290030190a261113c338a612ab6565b600061114e868b63ffffffff61098616565b905061115a3382611d4a565b6040805182815290513391600080516020613133833981519152919081900360200190a26111878761221e565b604080518881526020810187905281513392600080516020613217833981519152928290030190a250505050505050505050565b670de0b6b3a764000081565b6007546001600160a01b031681565b601254600160801b90046001600160801b031681565b6001546001600160a01b031681565b670f43fc2c04ee000081565b6004546001600160a01b031681565b600d602052600090815260409020805460018201546002830154600390930154919290916001600160801b0380821691600160801b90041685565b60115481565b6000546001600160a01b031690565b6000546001600160a01b0316331490565b6008546001600160a01b031681565b600b5490565b6012546001600160801b031681565b600e602052600090815260409020805460019091015460ff1682565b6006546001600160a01b031681565b6005546001600160a01b031681565b6003546001600160a01b031681565b60155481565b6001600160a01b0381166000908152600f602052604081205480611312576000915050610cfb565b6001600160a01b0383166000908152600e602052604081205490611344670de0b6b3a76400008363ffffffff611a3416565b905061134e61300d565b506001600160a01b0385166000908152601060209081526040808320815160a08101835281548152600182015493810193909352600281015491830191909152600301546001600160801b038082166060840152600160801b909104166080820152906113e3670de0b6b3a76400006113d76113ca8886612b80565b869063ffffffff612c1a16565b9063ffffffff612c7316565b979650505050505050565b60165481565b6009546001600160a01b031681565b6001600160a01b0381166000908152600f60205260408120548061142b576000915050610cfb565b61143361300d565b506001600160a01b0383166000908152601060209081526040808320815160a08101835281548152600182015493810193909352600281015491830191909152600301546001600160801b038082166060840152600160801b90910416608082015290610cf58383611ed0565b6114a8611266565b6114f9576040805162461bcd60e51b815260206004820181905260248201527f4f776e61626c653a2063616c6c6572206973206e6f7420746865206f776e6572604482015290519081900360640190fd5b600180546001600160a01b03808a166001600160a01b03199283168117909355600280548a8316908416179055600480548983169084168117909155600580548416909117905560038054888316908416179055600680548783169084161790556007805486831690841617905560098054918516918316821790556008805490921617905560408051918252517f3ca631ffcd2a9b5d9ae18543fc82f58eb4ca33af9e6ab01b7a8e95331e6ed9859181900360200190a1604080516001600160a01b038816815290517f143219c9e69b09e07e095fcc889b43d8f46ca892bba65f08dc3a0050869a56789181900360200190a1604080516001600160a01b038716815290517f78f058b189175430c48dc02699e3a0031ea4ff781536dc2fab847de4babdd8829181900360200190a1604080516001600160a01b038616815290517f227eec0ec317af6ab1a9587ffa1c84332522eb4c583a908f89babc05f8f339bd9181900360200190a1604080516001600160a01b038516815290517f65f4cf077bc01e4742eb5ad98326f6e95b63548ea24b17f8d5e823111fe788009181900360200190a1604080516001600160a01b038416815290517f8c537274438aa850a330284665d81a85dd38267d09e4050d416bfc94142db2649181900360200190a1604080516001600160a01b038316815290517f3055265812fb8447b9ada4a5d804ec43bd528ec40e89c952bbc7b85dc5ac68119181900360200190a1611721612cb5565b50505050505050565b601360209081526000928352604080842090915290825290205481565b6729a2241af62c000081565b6001600160a01b0381166000908152600c60205260408120548061177b576000915050610cfb565b6001600160a01b038084166000908152600c60205260408120600101549091169081156117c0576001600160a01b0382166000908152600e60205260409020546117ca565b670de0b6b3a76400005b90506117d461300d565b506001600160a01b0385166000908152600d60209081526040808320815160a08101835281548152600182015493810193909352600281015491830191909152600301546001600160801b038082166060840152600160801b909104166080820152906113e3670de0b6b3a76400006113d76113ca8886612b80565b600c60205260009081526040902080546001909101546001600160a01b031682565b600081116118b15760405162461bcd60e51b81526004018080602001828103825260308152602001806132986030913960400191505060405180910390fd5b50565b600254604080516321e3780160e01b81526001600160a01b038481166004830152915191909216916321e37801916024808301926020929190829003018186803b15801561190157600080fd5b505afa158015611915573d6000803e3d6000fd5b505050506040513d602081101561192b57600080fd5b50516001146118b15760405162461bcd60e51b815260040180806020018281038252604681526020018061304f6046913960600191505060405180910390fd5b600061197682610ed6565b905060008111610ed25760405162461bcd60e51b81526004018080602001828103825260318152602001806131026031913960400191505060405180910390fd5b600854604080516346ad34d960e01b815290516000926001600160a01b0316916346ad34d991600480830192602092919082900301818787803b1580156119fd57600080fd5b505af1158015611a11573d6000803e3d6000fd5b505050506040513d6020811015611a2757600080fd5b505190506118b181612cff565b60006109e083836040518060400160405280601e81526020017f536166654d6174683a207375627472616374696f6e206f766572666c6f770000815250612dad565b6001600160a01b03811615611b40576000611a90826112ea565b600854604080516330a6955b60e11b81526001600160a01b03868116600483015260248201859052915193945091169163614d2ab69160448082019260009290919082900301818387803b158015611ae757600080fd5b505af1158015611afb573d6000803e3d6000fd5b50506040805184815290516001600160a01b03861693507fcd2cdc1a4af71051394e9c6facd9a266b2ac5bd65d219a701eeda009f47682bf92509081900360200190a2505b6000611b4b83611753565b600854604080516330a6955b60e11b81526001600160a01b03878116600483015260248201859052915193945091169163614d2ab69160448082019260009290919082900301818387803b158015611ba257600080fd5b505af1158015611bb6573d6000803e3d6000fd5b50506040805184815290516001600160a01b03871693507f2608b986a6ac0f6c629ca37018e80af5561e366252ae93602a96d3ab2e73e42d92509081900360200190a2505050565b6001600160a01b0382166000908152600f6020526040902081905580611c8e576001600160a01b0382166000818152601060209081526040808320838155600181018490556002810184905560030183905580518381529182019290925281517fbb1322f85cc7cc8bac4e172a5bc5dcc0c1959007f9a030032abf9258205f0e45929181900390910190a2610ed2565b6012546011546001600160801b03600160801b80840482166000818152601460209081526040808320978616808452978252808320546001600160a01b038b168085526010845293829020600181018990556002810182905560030180546001600160801b0319168a17909716958502959095179095558451868152908101849052845192959491927fbb1322f85cc7cc8bac4e172a5bc5dcc0c1959007f9a030032abf9258205f0e45929181900390910190a2505050505050565b6001600160a01b0382166000908152600c6020526040902081905580611df8576001600160a01b0382166000818152600c60209081526040808320600190810180546001600160a01b0319169055600d83528184208481559081018490556002810184905560030183905580518381529182018390528181019290925290517f2d6cc0bcdf72c9486f6451bde6b80f44066f4558f77f44dbfedbe7d8b295225a9181900360600190a2610ed2565b6012546011546001600160801b03600160801b8084048216600081815260136020908152604080832097861680845297825280832054848452601483528184208985528352818420546001600160a01b038c16808652600d855294839020600181018a90558281556002810182905560030180546001600160801b0319168b179098169686029690961790965580518781529182018690528181018590525192959493927f2d6cc0bcdf72c9486f6451bde6b80f44066f4558f77f44dbfedbe7d8b295225a916060908290030190a250505050505050565b6020810151606082015160808301516012546000939291906001600160801b03600160801b90910481169082161015611f0f57600093505050506109e3565b6012546000908190611f30906001600160801b03168563ffffffff612e4416565b90506001600160801b038116611f6057611f59856113d76011548b612c1a90919063ffffffff16565b9150611f9c565b806001600160801b031660011415611f9757611f59670de0b6b3a76400006113d7876113d76011548d612c1a90919063ffffffff16565b600091505b611fb088633b9aca0063ffffffff612c7316565b821015611fc5576000955050505050506109e3565b509695505050505050565b60075460408051634c6afee560e11b815290516000926001600160a01b0316916398d5fdca916004808301926020929190829003018186803b15801561201557600080fd5b505afa158015612029573d6000803e3d6000fd5b505050506040513d602081101561203f57600080fd5b505160065460408051634d62283160e01b815290519293506000926001600160a01b0390921691634d62283191600480820192602092909190829003018186803b15801561208c57600080fd5b505afa1580156120a0573d6000803e3d6000fd5b505050506040513d60208110156120b657600080fd5b505160025460408051630d293c7160e41b81526001600160a01b038085166004830152602482018790529151939450600093919092169163d293c710916044808301926020929190829003018186803b15801561211257600080fd5b505afa158015612126573d6000803e3d6000fd5b505050506040513d602081101561213c57600080fd5b50519050670f43fc2c04ee00008110156121875760405162461bcd60e51b81526004018080602001828103825260448152602001806133356044913960600191505060405180910390fd5b505050565b600081831061219b57816109e0565b5090919050565b60035460408051631062c15f60e11b81523060048201526001600160a01b03858116602483015260448201859052915191909216916320c582be91606480830192600092919082900301818387803b1580156121fd57600080fd5b505af1158015612211573d6000803e3d6000fd5b50505050610ed281612e9d565b80612228576118b1565b600a5460009061223e908363ffffffff611a3416565b600a8190556040805182815290519192507f7ab2bdf6e6d108cd138a8f6436723e8dfd0cb22727fe608e40b5adfb8357f1b9919081900360200190a1604080513381526020810184905281517f6109e2559dfa766aaec7118351d48a523f0a4157f49c8d68749c8ac41318ad12929181900390910190a1604051600090339084908381818185875af1925050503d80600081146122f7576040519150601f19603f3d011682016040523d82523d6000602084013e6122fc565b606091505b50509050806121875760405162461bcd60e51b815260040180806020018281038252602181526020018061317c6021913960400191505060405180910390fd5b6002546001600160a01b031633146109845760405162461bcd60e51b81526004018080602001828103825260298152602001806131536029913960400191505060405180910390fd5b60008060006123b76017546123ab670de0b6b3a764000088612c1a90919063ffffffff16565b9063ffffffff611a3416565b905060006123e86016546123dc670de0b6b3a76400008a612c1a90919063ffffffff16565b9063ffffffff61098616565b9050848610612406576000601755670de0b6b3a76400009250612435565b61241b60016123dc848863ffffffff612c7316565b9250612431826123ab858863ffffffff612c1a16565b6017555b612445818663ffffffff612c7316565b935061246761245a858763ffffffff612c1a16565b829063ffffffff611a3416565b6016555050935093915050565b6011546000670de0b6b3a764000083111561248b57fe5b6000670de0b6b3a76400008410156124ba576124b5670de0b6b3a76400008563ffffffff611a3416565b6124bd565b60005b6012546001600160801b03600160801b8204811660008181526013602090815260408083209490951680835293905292832054939450909290916125018988612c1a565b90506000612515838363ffffffff61098616565b6001600160801b038086166000908152601360209081526040808320938a16835292815290829020839055815183815291519293507fb3b0cd868e433c74c233db87efea57c13377de7056bf27b1a50feaab5bfd499192918290030190a1856125c9576125926001600160801b038516600163ffffffff612ef316565b601280546001600160801b03928316600160801b029216919091176001600160801b0319169055670de0b6b3a76400009650612658565b670de0b6b3a76400006125e2898863ffffffff612c1a16565b1015612639576125f8888763ffffffff612c1a16565b96506126146001600160801b038616600163ffffffff612ef316565b601280546001600160801b0319166001600160801b0392909216919091179055612658565b612655670de0b6b3a76400006113d78a8963ffffffff612c1a16565b96505b60118790556040805188815290517fc1a9618cb59ebca77cbdbc2949f126823c407ff13edb285fd0262519a9c18e8c9181900360200190a150505050505050505050565b600480546040805163071b32b560e31b8152928301849052516001600160a01b03909116916338d995a891602480830192600092919082900301818387803b1580156126e757600080fd5b505af11580156126fb573d6000803e3d6000fd5b5050505061270881612e9d565b60035460408051632770a7eb60e21b81523060048201526024810184905290516001600160a01b0390921691639dc29fac9160448082019260009290919082900301818387803b15801561275b57600080fd5b505af115801561276f573d6000803e3d6000fd5b505060048054604080516364a197f360e01b8152309381019390935260248301879052516001600160a01b0390911693506364a197f39250604480830192600092919082900301818387803b1580156127c757600080fd5b505af11580156127db573d6000803e3d6000fd5b505050505050565b6080810151606082015182516020808501516001600160801b03808616600090815260138452604080822092871682529190935282205491949392918590612831908463ffffffff611a3416565b905060006128a2670de0b6b3a764000060136000896001600160801b03168152602001908152602001600020600061287c60018a6001600160801b0316612ef390919063ffffffff16565b6001600160801b0316815260200190815260200160002054612c7390919063ffffffff16565b905060006128d4670de0b6b3a76400006113d786816128c7888863ffffffff61098616565b8f9063ffffffff612c1a16565b9a9950505050505050505050565b6001600160a01b0381166000908152600e602052604090206001015460ff16156118b15760405162461bcd60e51b81526004018080602001828103825260398152602001806132376039913960400191505060405180910390fd5b6001600160a01b0381166000908152600c60205260409020548015610ed25760405162461bcd60e51b81526004018080602001828103825260288152602001806132706028913960400191505060405180910390fd5b670de0b6b3a76400008111156118b15760405162461bcd60e51b81526004018080602001828103825260338152602001806131be6033913960400191505060405180910390fd5b6001600160a01b0381166000908152600e602052604090206001015460ff1680612a0b57506001600160a01b038116155b6118b15760405162461bcd60e51b81526004018080602001828103825260468152602001806130956046913960600191505060405180910390fd5b600081116118b15760405162461bcd60e51b81526004018080602001828103825260268152602001806131f16026913960400191505060405180910390fd5b6001600160a01b039182166000908152600c6020526040902060010180546001600160a01b03191691909216179055565b60035460408051632ee65eeb60e21b81526001600160a01b038581166004830152306024830152604482018590529151919092169163bb997bac91606480830192600092919082900301818387803b158015612b1157600080fd5b505af1158015612b25573d6000803e3d6000fd5b5050600b5460009250612b3f91508363ffffffff61098616565b600b8190556040805182815290519192507fb85aa39be26453c93060ffe42e1e6ea34980cb12e563f517cbce039dcd5af392919081900360200190a1505050565b608081015160608201516040808401516020808601516001600160801b03808716600090815260148452858120918716815292529281205490949392908590612bcf908463ffffffff611a3416565b905060006128a2670de0b6b3a764000060146000896001600160801b03168152602001908152602001600020600061287c60018a6001600160801b0316612ef390919063ffffffff16565b600082612c29575060006109e3565b82820282848281612c3657fe5b04146109e05760405162461bcd60e51b815260040180806020018281038252602181526020018061319d6021913960400191505060405180910390fd5b60006109e083836040518060400160405280601a81526020017f536166654d6174683a206469766973696f6e206279207a65726f000000000000815250612f43565b600080546040516001600160a01b03909116907f8be0079c531659141344cd1fd0a4f28419497f9722a3daafe3b4186f6b6457e0908390a3600080546001600160a01b0319169055565b600b5480612d0d57506118b1565b6000612d198383612fa8565b90506000612d3260115483612c1a90919063ffffffff16565b6012546001600160801b03600160801b820481166000908152601460209081526040808320939094168252919091522054909150612d76908263ffffffff61098616565b6012546001600160801b03600160801b82048116600090815260146020908152604080832093909416825291909152205550505050565b60008184841115612e3c5760405162461bcd60e51b81526004018080602001828103825283818151815260200191508051906020019080838360005b83811015612e01578181015183820152602001612de9565b50505050905090810190601f168015612e2e5780820380516001836020036101000a031916815260200191505b509250505060405180910390fd5b505050900390565b6000826001600160801b0316826001600160801b03161115612e975760405162461bcd60e51b81526004018080602001828103825260288152602001806132e86028913960400191505060405180910390fd5b50900390565b600b54600090612eb3908363ffffffff611a3416565b600b8190556040805182815290519192507fb85aa39be26453c93060ffe42e1e6ea34980cb12e563f517cbce039dcd5af392919081900360200190a15050565b60008282016001600160801b0380851690821610156109e05760405162461bcd60e51b81526004018080602001828103825260258152602001806133106025913960400191505060405180910390fd5b60008183612f925760405162461bcd60e51b8152602060048201818152835160248401528351909283926044909101919085019080838360008315612e01578181015183820152602001612de9565b506000838581612f9e57fe5b0495945050505050565b600080612fcc6015546123dc670de0b6b3a764000087612c1a90919063ffffffff16565b90506000612fe0828563ffffffff612c7316565b9050613002612ff5828663ffffffff612c1a16565b839063ffffffff611a3416565b601555949350505050565b6040518060a0016040528060008152602001600081526020016000815260200160006001600160801b0316815260200160006001600160801b03168152509056fe53746162696c697479506f6f6c3a2063616c6c6572206d757374206861766520616e206163746976652074726f766520746f207769746864726177204554484761696e20746f53746162696c697479506f6f6c3a20546167206d757374206265206120726567697374657265642066726f6e7420656e642c206f7220746865207a65726f206164647265737353746162696c697479506f6f6c3a2043616c6c6572206973206e6f7420416374697665506f6f6c53746162696c697479506f6f6c3a2063616c6c6572206d7573742068617665206e6f6e2d7a65726f20455448204761696ebce78369dccab09eec1986f4d409ab09ffbb47d65423e5148fcf98411c5111c953746162696c697479506f6f6c3a2043616c6c6572206973206e6f742054726f76654d616e6167657253746162696c697479506f6f6c3a2073656e64696e6720455448206661696c6564536166654d6174683a206d756c7469706c69636174696f6e206f766572666c6f7753746162696c697479506f6f6c3a204b69636b6261636b2072617465206d75737420626520696e2072616e6765205b302c315d53746162696c697479506f6f6c3a20416d6f756e74206d757374206265206e6f6e2d7a65726f51457222ebca92c335c9c86e2baa1cc0e40ffaa9084a51452980d5ba8dec2f6353746162696c697479506f6f6c3a206d757374206e6f7420616c7265616479206265206120726567697374657265642066726f6e7420656e6453746162696c697479506f6f6c3a2055736572206d7573742068617665206e6f206465706f73697453746162696c697479506f6f6c3a2055736572206d75737420686176652061206e6f6e2d7a65726f206465706f73697499920012339b5a3368d3a04b8606ce412c46ed92b7dcd8602d41fc8862cb8f254c697175697479536166654d6174683132383a207375627472616374696f6e206f766572666c6f774c697175697479536166654d6174683132383a206164646974696f6e206f766572666c6f7753746162696c697479506f6f6c3a2043616e6e6f74207769746864726177207768696c65207468657265206172652074726f766573207769746820494352203c204d4352a26469706673582212209311e4d94532fba2fd1866acbff104b4bea1278495ad6dcfa776de775c8133ec64736f6c634300060b003360e060405234801561001057600080fd5b506040516116b63803806116b68339818101604052606081101561003357600080fd5b5080516020808301516040938401516001600160601b0319606085901b1660805284516001600160a01b038516815294519394919390927f143219c9e69b09e07e095fcc889b43d8f46ca892bba65f08dc3a0050869a5678928290030190a16001600160601b0319606083901b1660a052604080516001600160a01b038416815290517f82966d27eea39b038ee0fa30cd16532bb24f6e65d31cb58fb227aa5766cdcc7f9181900360200190a16001600160601b0319606082901b1660c052604080516001600160a01b038316815290517f3ca631ffcd2a9b5d9ae18543fc82f58eb4ca33af9e6ab01b7a8e95331e6ed9859181900360200190a150505060805160601c60a05160601c60c05160601c61151e6101986000398061076c5280610d985280610f0e52806110095250806105275280610b7e5280610d1d528061106e528061118c5250806106775280610b4c5280610d5a528061103b525061151e6000f3fe608060405234801561001057600080fd5b506004361061014d5760003560e01c80635a4d28bb116100c3578063a9059cbb1161007c578063a9059cbb146103f5578063b7f8cf9b14610421578063bb997bac14610429578063d505accf1461045f578063dd62ed3e146104b0578063f698da25146104de5761014d565b80635a4d28bb1461034157806370a08231146103495780637ecebe001461036f57806395d89b41146103955780639dc29fac1461039d578063a457c2d7146103c95761014d565b806320c582be1161011557806320c582be1461025557806323b872dd1461028d578063313ce567146102c357806339509351146102e157806340c10f191461030d57806354fd4d50146103395761014d565b806306fdde0314610152578063095ea7b3146101cf5780630b622ab21461020f57806310ce43bd1461023357806318160ddd1461024d575b600080fd5b61015a6104e6565b6040805160208082528351818301528351919283929083019185019080838360005b8381101561019457818101518382015260200161017c565b50505050905090810190601f1680156101c15780820380516001836020036101000a031916815260200191505b509250505060405180910390f35b6101fb600480360360408110156101e557600080fd5b506001600160a01b03813516906020013561050f565b604080519115158252519081900360200190f35b610217610525565b604080516001600160a01b039092168252519081900360200190f35b61023b610549565b60408051918252519081900360200190f35b61023b61056d565b61028b6004803603606081101561026b57600080fd5b506001600160a01b03813581169160208101359091169060400135610573565b005b6101fb600480360360608110156102a357600080fd5b506001600160a01b0381358116916020810135909116906040013561058b565b6102cb610603565b6040805160ff9092168252519081900360200190f35b6101fb600480360360408110156102f757600080fd5b506001600160a01b038135169060200135610608565b61028b6004803603604081101561032357600080fd5b506001600160a01b038135169060200135610644565b61015a61065a565b610217610675565b61023b6004803603602081101561035f57600080fd5b50356001600160a01b0316610699565b61023b6004803603602081101561038557600080fd5b50356001600160a01b03166106b4565b61015a6106cf565b61028b600480360360408110156103b357600080fd5b506001600160a01b0381351690602001356106ed565b6101fb600480360360408110156103df57600080fd5b506001600160a01b0381351690602001356106ff565b6101fb6004803603604081101561040b57600080fd5b506001600160a01b038135169060200135610754565b61021761076a565b61028b6004803603606081101561043f57600080fd5b506001600160a01b0381358116916020810135909116906040013561078e565b61028b600480360360e081101561047557600080fd5b506001600160a01b03813581169160208101359091169060408101359060608101359060ff6080820135169060a08101359060c00135610796565b61023b600480360360408110156104c657600080fd5b506001600160a01b03813581169160200135166109af565b61023b6109da565b60408051808201909152600f81526e262aa9a21029ba30b13632b1b7b4b760891b602082015290565b600061051c338484610abf565b50600192915050565b7f000000000000000000000000000000000000000000000000000000000000000081565b7f6e71edae12b1b97f4d1f60370fef10105fa2faae0126114a169c64845d6126c990565b60005490565b61057b610b41565b610586838383610bdd565b505050565b600061059683610cbf565b6105a1848484610bdd565b6105f984336105f4856040518060600160405280602881526020016113d1602891396001600160a01b038a166000908152600360209081526040808320338452909152902054919063ffffffff610e0b16565b610abf565b5060019392505050565b601290565b3360008181526003602090815260408083206001600160a01b0387168452909152812054909161051c9185906105f4908663ffffffff610ea216565b61064c610f03565b6106568282610f6a565b5050565b6040805180820190915260018152603160f81b602082015290565b7f000000000000000000000000000000000000000000000000000000000000000081565b6001600160a01b031660009081526002602052604090205490565b6001600160a01b031660009081526001602052604090205490565b604080518082019091526004815263131554d160e21b602082015290565b6106f5610ffe565b61065682826110cb565b600061051c33846105f485604051806060016040528060258152602001611470602591393360009081526003602090815260408083206001600160a01b038d168452909152902054919063ffffffff610e0b16565b600061075f83610cbf565b61051c338484610bdd565b7f000000000000000000000000000000000000000000000000000000000000000081565b61057b611181565b8315806107a35750428410155b6107f4576040805162461bcd60e51b815260206004820152601b60248201527f4c5553443a205369676e61747572652068617320657870697265640000000000604482015290519081900360640190fd5b60006119016108016109da565b6001600160a01b038a81166000818152600160208181526040808420805480850190915581517f6e71edae12b1b97f4d1f60370fef10105fa2faae0126114a169c64845d6126c98185015280830196909652958f166060860152608085018e905260a085019590955260c08085018d90528551808603909101815260e08501865280519082012060f09790971b6001600160f01b0319166101008501526101028401959095526101228084019690965283518084039096018652610142830180855286519686019690962095829052610162830180855286905260ff8a166101828401526101a283018990526101c2830188905292519495509391926101e2808301939192601f198301929081900390910190855afa158015610928573d6000803e3d6000fd5b5050604051601f1901519150506001600160a01b0381161580159061095e5750886001600160a01b0316816001600160a01b0316145b6109995760405162461bcd60e51b81526004018080602001828103825260358152602001806112876035913960400191505060405180910390fd5b6109a4898989610abf565b505050505050505050565b6001600160a01b03918216600090815260036020908152604080832093909416825291909152205490565b6000604051808061135460529139604080519182900360520182208282018252600f83526e262aa9a21029ba30b13632b1b7b4b760891b602093840152815180830190925260018252603160f81b919092015290507fabccaf2943f70764a048255e50e07d10e3c94973a6c6ba8b8ea62b1155209b017fc89efdaa54c0f20c7adf612882df0950f5a951637e0307cdcb4c672f298b8bc6610a796111e8565b6040805160208082019690965280820194909452606084019290925260808301523060a0808401919091528151808403909101815260c090920190528051910120905090565b6001600160a01b038316610acf57fe5b6001600160a01b038216610adf57fe5b6001600160a01b03808416600081815260036020908152604080832094871680845294825291829020859055815185815291517f8c5be1e5ebec7d5bd14f71427d1e84f3dd0314c0f7b2291e5b200ac8c7c3b9259281900390910190a3505050565b336001600160a01b037f0000000000000000000000000000000000000000000000000000000000000000161480610ba05750336001600160a01b037f000000000000000000000000000000000000000000000000000000000000000016145b610bdb5760405162461bcd60e51b815260040180806020018281038252603681526020018061122f6036913960400191505060405180910390fd5b565b6001600160a01b038316610bed57fe5b6001600160a01b038216610bfd57fe5b610c40816040518060600160405280602681526020016112bc602691396001600160a01b038616600090815260026020526040902054919063ffffffff610e0b16565b6001600160a01b038085166000908152600260205260408082209390935590841681522054610c75908263ffffffff610ea216565b6001600160a01b03808416600081815260026020908152604091829020949094558051858152905191939287169260008051602061145083398151915292918290030190a3505050565b6001600160a01b03811615801590610ce057506001600160a01b0381163014155b610d1b5760405162461bcd60e51b81526004018080602001828103825260548152602001806114956054913960600191505060405180910390fd5b7f00000000000000000000000000000000000000000000000000000000000000006001600160a01b0316816001600160a01b031614158015610d8f57507f00000000000000000000000000000000000000000000000000000000000000006001600160a01b0316816001600160a01b031614155b8015610dcd57507f00000000000000000000000000000000000000000000000000000000000000006001600160a01b0316816001600160a01b031614155b610e085760405162461bcd60e51b81526004018080602001828103825260578152602001806113f96057913960600191505060405180910390fd5b50565b60008184841115610e9a5760405162461bcd60e51b81526004018080602001828103825283818151815260200191508051906020019080838360005b83811015610e5f578181015183820152602001610e47565b50505050905090810190601f168015610e8c5780820380516001836020036101000a031916815260200191505b509250505060405180910390fd5b505050900390565b600082820183811015610efc576040805162461bcd60e51b815260206004820152601b60248201527f536166654d6174683a206164646974696f6e206f766572666c6f770000000000604482015290519081900360640190fd5b9392505050565b336001600160a01b037f00000000000000000000000000000000000000000000000000000000000000001614610bdb5760405162461bcd60e51b815260040180806020018281038252602b8152602001806113a6602b913960400191505060405180910390fd5b6001600160a01b038216610f7a57fe5b600054610f8d908263ffffffff610ea216565b60009081556001600160a01b038316815260026020526040902054610fb8908263ffffffff610ea216565b6001600160a01b03831660008181526002602090815260408083209490945583518581529351929391926000805160206114508339815191529281900390910190a35050565b336001600160a01b037f000000000000000000000000000000000000000000000000000000000000000016148061105d5750336001600160a01b037f000000000000000000000000000000000000000000000000000000000000000016145b806110905750336001600160a01b037f000000000000000000000000000000000000000000000000000000000000000016145b610bdb5760405162461bcd60e51b815260040180806020018281038252604d8152602001806112e2604d913960600191505060405180910390fd5b6001600160a01b0382166110db57fe5b61111e81604051806060016040528060228152602001611265602291396001600160a01b038516600090815260026020526040902054919063ffffffff610e0b16565b6001600160a01b0383166000908152600260205260408120919091555461114b908263ffffffff6111ec16565b60009081556040805183815290516001600160a01b03851691600080516020611450833981519152919081900360200190a35050565b336001600160a01b037f00000000000000000000000000000000000000000000000000000000000000001614610bdb5760405162461bcd60e51b815260040180806020018281038252602581526020018061132f6025913960400191505060405180910390fd5b4690565b6000610efc83836040518060400160405280601e81526020017f536166654d6174683a207375627472616374696f6e206f766572666c6f770000815250610e0b56fe4c5553443a2043616c6c6572206973206e6569746865722054726f76654d616e61676572206e6f722053746162696c697479506f6f6c45524332303a206275726e20616d6f756e7420657863656564732062616c616e63654c5553443a205265636f766572656420616464726573732066726f6d2074686520736967206973206e6f7420746865206f776e657245524332303a207472616e7366657220616d6f756e7420657863656564732062616c616e63654c5553443a2043616c6c6572206973206e65697468657220426f72726f7765724f7065726174696f6e73206e6f722054726f76654d616e61676572206e6f722053746162696c697479506f6f6c4c5553443a2043616c6c6572206973206e6f74207468652053746162696c697479506f6f6c454950373132446f6d61696e28737472696e67206e616d652c737472696e672076657273696f6e2c75696e7432353620636861696e49642c6164647265737320766572696679696e67436f6e7472616374294c555344546f6b656e3a2043616c6c6572206973206e6f7420426f72726f7765724f7065726174696f6e7345524332303a207472616e7366657220616d6f756e74206578636565647320616c6c6f77616e63654c5553443a2043616e6e6f74207472616e7366657220746f6b656e73206469726563746c7920746f207468652053746162696c697479506f6f6c2c2054726f76654d616e61676572206f7220426f72726f7765724f7073ddf252ad1be2c89b69c2b068fc378daa952ba7f163c4a11628f55a4df523b3ef45524332303a2064656372656173656420616c6c6f77616e63652062656c6f77207a65726f4c5553443a2043616e6e6f74207472616e7366657220746f6b656e73206469726563746c7920746f20746865204c55534420746f6b656e20636f6e7472616374206f7220746865207a65726f2061646472657373a264697066735822122051afbad0798379f94a5b20ff99bbc6d74ee25cd010aa56b270cbb1fa0b4e07c964736f6c634300060b0033608060405234801561001057600080fd5b50600080546001600160a01b0319163390811782556040519091907f8be0079c531659141344cd1fd0a4f28419497f9722a3daafe3b4186f6b6457e0908290a36109b58061005f6000396000f3fe6080604052600436106100955760003560e01c80638f32d59b116100595780638f32d59b146101ac5780639b56d6c9146101d5578063b08bc72214610208578063b32beb5b1461021d578063b7f8cf9b14610250576100ba565b806314f6c3be146100bf578063363bf964146100e65780633f10abab1461012d5780635a4d28bb146101665780638da5cb5b14610197576100ba565b366100ba576100a2610265565b6004546100b5903463ffffffff6102b016565b600455005b600080fd5b3480156100cb57600080fd5b506100d4610311565b60408051918252519081900360200190f35b3480156100f257600080fd5b5061012b6004803603606081101561010957600080fd5b506001600160a01b038135811691602081013582169160409091013516610317565b005b34801561013957600080fd5b5061012b6004803603604081101561015057600080fd5b506001600160a01b038135169060200135610462565b34801561017257600080fd5b5061017b6104ef565b604080516001600160a01b039092168252519081900360200190f35b3480156101a357600080fd5b5061017b6104fe565b3480156101b857600080fd5b506101c161050d565b604080519115158252519081900360200190f35b3480156101e157600080fd5b506100d4600480360360208110156101f857600080fd5b50356001600160a01b031661051e565b34801561021457600080fd5b5061017b610539565b34801561022957600080fd5b5061012b6004803603602081101561024057600080fd5b50356001600160a01b0316610548565b34801561025c57600080fd5b5061017b6106e5565b6003546001600160a01b031633146102ae5760405162461bcd60e51b815260040180806020018281038252602a8152602001806108d6602a913960400191505060405180910390fd5b565b60008282018381101561030a576040805162461bcd60e51b815260206004820152601b60248201527f536166654d6174683a206164646974696f6e206f766572666c6f770000000000604482015290519081900360640190fd5b9392505050565b60045490565b61031f61050d565b610370576040805162461bcd60e51b815260206004820181905260248201527f4f776e61626c653a2063616c6c6572206973206e6f7420746865206f776e6572604482015290519081900360640190fd5b600180546001600160a01b038086166001600160a01b0319928316811790935560028054868316908416179055600380549185169190921617905560408051918252517f3ca631ffcd2a9b5d9ae18543fc82f58eb4ca33af9e6ab01b7a8e95331e6ed9859181900360200190a1604080516001600160a01b038416815290517f143219c9e69b09e07e095fcc889b43d8f46ca892bba65f08dc3a0050869a56789181900360200190a1604080516001600160a01b038316815290517f78f058b189175430c48dc02699e3a0031ea4ff781536dc2fab847de4babdd8829181900360200190a161045d6106f4565b505050565b61046a61073e565b6001600160a01b038216600090815260056020526040812054610493908363ffffffff6102b016565b6001600160a01b0384166000818152600560209081526040918290208490558151928352820183905280519293507ff0393a34d05e6567686ad4e097f9d9d2781565957394f1f0d984e5d8e6378f2092918290030190a1505050565b6002546001600160a01b031681565b6000546001600160a01b031690565b6000546001600160a01b0316331490565b6001600160a01b031660009081526005602052604090205490565b6003546001600160a01b031681565b610550610787565b6001600160a01b038116600090815260056020526040902054806105a55760405162461bcd60e51b81526004018080602001828103825260318152602001806108a56031913960400191505060405180910390fd5b6001600160a01b038216600081815260056020908152604080832083905580519384529083019190915280517ff0393a34d05e6567686ad4e097f9d9d2781565957394f1f0d984e5d8e6378f209281900390910190a160045461060e908263ffffffff6107d016565b600455604080516001600160a01b03841681526020810183905281517f6109e2559dfa766aaec7118351d48a523f0a4157f49c8d68749c8ac41318ad12929181900390910190a16040516000906001600160a01b0384169083908381818185875af1925050503d80600081146106a0576040519150601f19603f3d011682016040523d82523d6000602084013e6106a5565b606091505b505090508061045d5760405162461bcd60e51b81526004018080602001828103825260238152602001806109006023913960400191505060405180910390fd5b6001546001600160a01b031681565b600080546040516001600160a01b03909116907f8be0079c531659141344cd1fd0a4f28419497f9722a3daafe3b4186f6b6457e0908390a3600080546001600160a01b0319169055565b6002546001600160a01b031633146102ae5760405162461bcd60e51b815260040180806020018281038252602b815260200180610955602b913960400191505060405180910390fd5b6001546001600160a01b031633146102ae5760405162461bcd60e51b81526004018080602001828103825260328152602001806109236032913960400191505060405180910390fd5b600061030a83836040518060400160405280601e81526020017f536166654d6174683a207375627472616374696f6e206f766572666c6f7700008152506000818484111561089c5760405162461bcd60e51b81526004018080602001828103825283818151815260200191508051906020019080838360005b83811015610861578181015183820152602001610849565b50505050905090810190601f16801561088e5780820380516001836020036101000a031916815260200191505b509250505060405180910390fd5b50505090039056fe436f6c6c537572706c7573506f6f6c3a204e6f20636f6c6c61746572616c20617661696c61626c6520746f20636c61696d436f6c6c537572706c7573506f6f6c3a2043616c6c6572206973206e6f742041637469766520506f6f6c436f6c6c537572706c7573506f6f6c3a2073656e64696e6720455448206661696c6564436f6c6c537572706c7573506f6f6c3a2043616c6c6572206973206e6f7420426f72726f776572204f7065726174696f6e73436f6c6c537572706c7573506f6f6c3a2043616c6c6572206973206e6f742054726f76654d616e61676572a2646970667358221220114da8103e496f32d2b9c7b40018a03dfc3a2a610451591f36a8ca78276cfb8b64736f6c634300060b00336080604052680ad78ebc5ac620000060005534801561001d57600080fd5b5060c18061002c6000396000f3fe6080604052348015600f57600080fd5b506004361060325760003560e01c806391b7f5ed14603757806398d5fdca146065575b600080fd5b605160048036036020811015604b57600080fd5b5035607d565b604080519115158252519081900360200190f35b606b6085565b60408051918252519081900360200190f35b600055600190565b6000549056fea264697066735822122007589ee650090985e15d3001431708c7276f4c097d31039770ffe7a36582500e64736f6c634300060b0033608060405234801561001057600080fd5b50600080546001600160a01b0319163390811782556040519091907f8be0079c531659141344cd1fd0a4f28419497f9722a3daafe3b4186f6b6457e0908290a36116b68061005f6000396000f3fe608060405234801561001057600080fd5b50600436106101365760003560e01c806374f78a22116100b85780638f32d59b1161007c5780638f32d59b14610385578063b72703ac1461038d578063b7f8cf9b146103b3578063babd3d9a146103bb578063de8fa431146103c3578063f376d798146103cb57610136565b806374f78a22146102d1578063765e01591461031557806377f238611461033b5780638000dd4c146103435780638da5cb5b1461037d57610136565b80634d622831116100ff5780634d622831146102335780635dbe47e81461023b57806363e1d57c14610275578063681fe70c1461028f57806373d4a13a1461029757610136565b80627516dc1461013b5780631e2231431461018157806329092d0e146101a557806336d23683146101cb5780633d83908a1461022b575b600080fd5b61017f600480360360a081101561015157600080fd5b506001600160a01b0381358116916020810135916040820135916060810135821691608090910135166103ff565b005b6101896104a7565b604080516001600160a01b039092168252519081900360200190f35b61017f600480360360208110156101bb57600080fd5b50356001600160a01b03166104b6565b610205600480360360808110156101e157600080fd5b508035906020810135906001600160a01b03604082013581169160600135166104ca565b604080516001600160a01b03938416815291909216602082015281519081900390910190f35b6101896106b3565b6101896106c2565b6102616004803603602081101561025157600080fd5b50356001600160a01b03166106d1565b604080519115158252519081900360200190f35b61027d6106ef565b60408051918252519081900360200190f35b6102616106f5565b61029f6106fc565b604080516001600160a01b03958616815293909416602084015282840191909152606082015290519081900360800190f35b61017f600480360360a08110156102e757600080fd5b506001600160a01b03813581169160208101359160408201359160608101358216916080909101351661071b565b6101896004803603602081101561032b57600080fd5b50356001600160a01b0316610723565b610189610746565b6102616004803603608081101561035957600080fd5b508035906020810135906001600160a01b0360408201358116916060013516610755565b6101896109fe565b610261610a0d565b610189600480360360208110156103a357600080fd5b50356001600160a01b0316610a1e565b610189610a3f565b610261610a4e565b61027d610a58565b61017f600480360360608110156103e157600080fd5b508035906001600160a01b0360208201358116916040013516610a5e565b610407610bae565b610410856106d1565b61044b5760405162461bcd60e51b815260040180806020018281038252602a8152602001806115ba602a913960400191505060405180910390fd5b6000841161048a5760405162461bcd60e51b81526004018080602001828103825260228152602001806116326022913960400191505060405180910390fd5b61049385610c0e565b6104a08585858585610e06565b5050505050565b6004546001600160a01b031690565b6104be611146565b6104c781610c0e565b50565b60008083836001600160a01b0382161561057b576104e7826106d1565b1580610571575060025460408051630d293c7160e41b81526001600160a01b038581166004830152602482018b90529151919092169163d293c710916044808301926020929190829003018186803b15801561054257600080fd5b505afa158015610556573d6000803e3d6000fd5b505050506040513d602081101561056c57600080fd5b505188115b1561057b57600091505b6001600160a01b0381161561062657610593816106d1565b158061061d575060025460408051630d293c7160e41b81526001600160a01b038481166004830152602482018b90529151919092169163d293c710916044808301926020929190829003018186803b1580156105ee57600080fd5b505afa158015610602573d6000803e3d6000fd5b505050506040513d602081101561061857600080fd5b505188105b15610626575060005b6001600160a01b03821615801561064457506001600160a01b038116155b1561066d5760045461066290899089906001600160a01b031661118f565b9350935050506106aa565b6001600160a01b038216610686576106628888836112d0565b6001600160a01b03811661069f5761066288888461118f565b61066288888461118f565b94509492505050565b6002546001600160a01b031681565b6005546001600160a01b031690565b6001600160a01b031660009081526008602052604090205460ff1690565b60065490565b6007541590565b6004546005546006546007546001600160a01b03938416939092169184565b610493610bae565b6001600160a01b0390811660009081526008602052604090205461010090041690565b6003546001600160a01b031681565b60006001600160a01b03831615801561077557506001600160a01b038216155b15610789576107826106f5565b90506109f6565b6001600160a01b038316610839576004546001600160a01b038381169116148015610782575060025460408051630d293c7160e41b81526001600160a01b038581166004830152602482018890529151919092169163d293c710916044808301926020929190829003018186803b15801561080357600080fd5b505afa158015610817573d6000803e3d6000fd5b505050506040513d602081101561082d57600080fd5b505185101590506109f6565b6001600160a01b0382166108e9576005546001600160a01b038481169116148015610782575060025460408051630d293c7160e41b81526001600160a01b038681166004830152602482018890529151919092169163d293c710916044808301926020929190829003018186803b1580156108b357600080fd5b505afa1580156108c7573d6000803e3d6000fd5b505050506040513d60208110156108dd57600080fd5b505185111590506109f6565b6001600160a01b038381166000908152600860205260409020546101009004811690831614801561099b575060025460408051630d293c7160e41b81526001600160a01b0386811660048301526024820188905291518893929092169163d293c71091604480820192602092909190829003018186803b15801561096c57600080fd5b505afa158015610980573d6000803e3d6000fd5b505050506040513d602081101561099657600080fd5b505110155b8015610782575060025460408051630d293c7160e41b81526001600160a01b038581166004830152602482018890529151919092169163d293c710916044808301926020929190829003018186803b15801561080357600080fd5b949350505050565b6000546001600160a01b031690565b6000546001600160a01b0316331490565b6001600160a01b039081166000908152600860205260409020600101541690565b6001546001600160a01b031681565b6006546007541490565b60075490565b610a66610a0d565b610ab7576040805162461bcd60e51b815260206004820181905260248201527f4f776e61626c653a2063616c6c6572206973206e6f7420746865206f776e6572604482015290519081900360640190fd5b60008311610af65760405162461bcd60e51b81526004018080602001828103825260228152602001806115e46022913960400191505060405180910390fd5b6006839055600380546001600160a01b038085166001600160a01b0319928316811790935560028054831684179055600180549185169190921617905560408051918252517f143219c9e69b09e07e095fcc889b43d8f46ca892bba65f08dc3a0050869a56789181900360200190a1604080516001600160a01b038316815290517f3ca631ffcd2a9b5d9ae18543fc82f58eb4ca33af9e6ab01b7a8e95331e6ed9859181900360200190a1610ba9611409565b505050565b6001546001600160a01b0316331480610bd157506003546001600160a01b031633145b610c0c5760405162461bcd60e51b815260040180806020018281038252602d815260200180611654602d913960400191505060405180910390fd5b565b610c17816106d1565b610c525760405162461bcd60e51b815260040180806020018281038252602a8152602001806115ba602a913960400191505060405180910390fd5b60075460011015610d98576004546001600160a01b0382811691161415610cc1576001600160a01b03818116600090815260086020526040808220546004805461010090920485166001600160a01b031992831617908190559093168252902060010180549091169055610d93565b6005546001600160a01b0382811691161415610d28576001600160a01b0380821660009081526008602052604080822060010154600580546001600160a01b03191691851691909117908190559092168152208054610100600160a81b0319169055610d93565b6001600160a01b038082166000908152600860205260408082208054600180830180548716865284862080546101009485900489168502610100600160a81b03199091161790555492549190910485168452919092200180546001600160a01b031916919092161790555b610db5565b600480546001600160a01b03199081169091556005805490911690555b6001600160a01b038116600090815260086020526040902080546001600160a81b0319168155600190810180546001600160a01b0319169055600754610e009163ffffffff61145316565b60075550565b610e0e610a4e565b15610e60576040805162461bcd60e51b815260206004820152601a60248201527f536f7274656454726f7665733a204c6973742069732066756c6c000000000000604482015290519081900360640190fd5b610e69856106d1565b15610ea55760405162461bcd60e51b815260040180806020018281038252602c81526020018061158e602c913960400191505060405180910390fd5b6001600160a01b038516610f00576040805162461bcd60e51b815260206004820152601f60248201527f536f7274656454726f7665733a2049642063616e6e6f74206265207a65726f00604482015290519081900360640190fd5b60008411610f3f5760405162461bcd60e51b81526004018080602001828103825260228152602001806116326022913960400191505060405180910390fd5b8181610f4d86868484610755565b610f6357610f5d868684846104ca565b90925090505b6001600160a01b038088166000908152600860205260409020805460ff191660011790558216158015610f9d57506001600160a01b038116155b15610fd257600480546001600160a01b0389166001600160a01b03199182168117909255600580549091169091179055611126565b6001600160a01b03821661104657600480546001600160a01b03898116600081815260086020526040808220805495851661010002610100600160a81b0319909616959095179094558454909216825291902060010180546001600160a01b03199081168317909155825416179055611126565b6001600160a01b0381166110b657600580546001600160a01b0389811660008181526008602052604080822060010180549585166001600160a01b031996871617905585549093168152919091208054610100600160a81b03191661010083021790558254909116179055611126565b6001600160a01b038088166000818152600860205260408082208054858716610100818102610100600160a81b031993841617845560019384018054988b166001600160a01b0319998a168117909155865284862080549188029190931617909155835291200180549092161790555b60075461113a90600163ffffffff61149c16565b60075550505050505050565b6003546001600160a01b03163314610c0c5760405162461bcd60e51b815260040180806020018281038252602c815260200180611606602c913960400191505060405180910390fd5b60045460009081906001600160a01b038481169116148015611230575060025460408051630d293c7160e41b81526001600160a01b038681166004830152602482018890529151919092169163d293c710916044808301926020929190829003018186803b15801561120057600080fd5b505afa158015611214573d6000803e3d6000fd5b505050506040513d602081101561122a57600080fd5b50518510155b15611240575060009050816112c8565b6001600160a01b038084166000908152600860205260409020548491610100909104165b6001600160a01b03821615801590611285575061128387878484610755565b155b156112c257506001600160a01b03908116600090815260086020526040808220546101009081900484168084529190922054909291900416611264565b90925090505b935093915050565b60055460009081906001600160a01b038481169116148015611371575060025460408051630d293c7160e41b81526001600160a01b038681166004830152602482018890529151919092169163d293c710916044808301926020929190829003018186803b15801561134157600080fd5b505afa158015611355573d6000803e3d6000fd5b505050506040513d602081101561136b57600080fd5b50518511155b15611381575081905060006112c8565b6001600160a01b038084166000908152600860205260409020600101548491165b6001600160a01b038216158015906113c357506113c187878385610755565b155b156113fe57506001600160a01b03908116600090815260086020526040808220600190810154841680845291909220909101549091166113a2565b969095509350505050565b600080546040516001600160a01b03909116907f8be0079c531659141344cd1fd0a4f28419497f9722a3daafe3b4186f6b6457e0908390a3600080546001600160a01b0319169055565b600061149583836040518060400160405280601e81526020017f536166654d6174683a207375627472616374696f6e206f766572666c6f7700008152506114f6565b9392505050565b600082820183811015611495576040805162461bcd60e51b815260206004820152601b60248201527f536166654d6174683a206164646974696f6e206f766572666c6f770000000000604482015290519081900360640190fd5b600081848411156115855760405162461bcd60e51b81526004018080602001828103825283818151815260200191508051906020019080838360005b8381101561154a578181015183820152602001611532565b50505050905090810190601f1680156115775780820380516001836020036101000a031916815260200191505b509250505060405180910390fd5b50505090039056fe536f7274656454726f7665733a204c69737420616c726561647920636f6e7461696e7320746865206e6f6465536f7274656454726f7665733a204c69737420646f6573206e6f7420636f6e7461696e20746865206964536f7274656454726f7665733a2053697a652063616ee2809974206265207a65726f536f7274656454726f7665733a2043616c6c6572206973206e6f74207468652054726f76654d616e61676572536f7274656454726f7665733a20494352206d75737420626520706f736974697665536f7274656454726f7665733a2043616c6c6572206973206e65697468657220424f206e6f722054726f76654da26469706673582212209573b514e9d60628dc9515f756265b836604668410384de2ba33eef94a2128e364736f6c634300060b0033608060405234801561001057600080fd5b50604051610d69380380610d698339818101604052608081101561003357600080fd5b50805160208201516040830151606090930151600080546001600160a01b039485166001600160a01b0319918216179091556001805493851693821693909317909255600280549484169483169490941790935560038054929093169116179055610cc6806100a36000396000f3fe6080604052600436106100ed5760003560e01c8063c035307f11610085578063c035307f14610315578063c0ec048514610347578063cc51a6c214610396578063cf83544f146103cf578063d466e4eb14610408578063d94bcec214610441578063e947c56b14610484578063f16416ba146104bd578063f47a1ea7146104f6576100f4565b80632b7d8b01146100f9578063390b5f271461013b578063428cd753146101885780634903a3dd146101b45780634afbac51146101c95780634c36240b146102465780634d37261f1461027f578063641b09b6146102b257806396ca2344146102dc576100f4565b366100f457005b600080fd5b610139600480360360a081101561010f57600080fd5b508035906020810135906040810135906060810135151590608001356001600160a01b0316610520565b005b34801561014757600080fd5b506101746004803603604081101561015e57600080fd5b506001600160a01b0381351690602001356105a7565b604080519115158252519081900360200190f35b6101396004803603604081101561019e57600080fd5b50803590602001356001600160a01b0316610633565b3480156101c057600080fd5b506101396106a1565b3480156101d557600080fd5b50610139600480360360208110156101ec57600080fd5b81019060208101813564010000000081111561020757600080fd5b82018360208201111561021957600080fd5b8035906020019184602083028401116401000000008311171561023b57600080fd5b50909250905061070b565b34801561025257600080fd5b506101396004803603604081101561026957600080fd5b50803590602001356001600160a01b03166107a4565b34801561028b57600080fd5b50610139600480360360208110156102a257600080fd5b50356001600160a01b03166107f9565b3480156102be57600080fd5b50610139600480360360208110156102d557600080fd5b503561085f565b3480156102e857600080fd5b50610139600480360360408110156102ff57600080fd5b50803590602001356001600160a01b03166108ac565b6101396004803603606081101561032b57600080fd5b50803590602081013590604001356001600160a01b0316610901565b34801561035357600080fd5b50610139600480360360a081101561036a57600080fd5b508035906001600160a01b03602082013581169160408101359091169060608101359060800135610977565b3480156103a257600080fd5b50610174600480360360408110156103b957600080fd5b506001600160a01b0381351690602001356109fe565b3480156103db57600080fd5b50610174600480360360408110156103f257600080fd5b506001600160a01b038135169060200135610a57565b34801561041457600080fd5b506101746004803603604081101561042b57600080fd5b506001600160a01b038135169060200135610ab0565b34801561044d57600080fd5b506101746004803603606081101561046457600080fd5b506001600160a01b03813581169160208101359091169060400135610b09565b34801561049057600080fd5b50610139600480360360408110156104a757600080fd5b50803590602001356001600160a01b0316610b9e565b3480156104c957600080fd5b50610139600480360360408110156104e057600080fd5b50803590602001356001600160a01b0316610bf3565b34801561050257600080fd5b506101396004803603602081101561051957600080fd5b5035610c48565b6001546040805163835353f760e01b8152600481018790526024810186905284151560448201526001600160a01b0384811660648301529151919092169163835353f791889160848082019260009290919082900301818588803b15801561058757600080fd5b505af115801561059b573d6000803e3d6000fd5b50505050505050505050565b6003546040805163a9059cbb60e01b81526001600160a01b038581166004830152602482018590529151600093929092169163a9059cbb9160448082019260209290919082900301818787803b15801561060057600080fd5b505af1158015610614573d6000803e3d6000fd5b505050506040513d602081101561062a57600080fd5b50519392505050565b6001546040805163e4f15d7b60e01b81526001600160a01b0384811660048301529151919092169163e4f15d7b91859160248082019260009290919082900301818588803b15801561068457600080fd5b505af1158015610698573d6000803e3d6000fd5b50505050505050565b600160009054906101000a90046001600160a01b03166001600160a01b0316630e704d506040518163ffffffff1660e01b8152600401600060405180830381600087803b1580156106f157600080fd5b505af1158015610705573d6000803e3d6000fd5b50505050565b600054604051631e8b1c2b60e01b8152602060048201818152602483018590526001600160a01b0390931692631e8b1c2b92869286929182916044909101908590850280828437600081840152601f19601f8201169050808301925050509350505050600060405180830381600087803b15801561078857600080fd5b505af115801561079c573d6000803e3d6000fd5b505050505050565b60025460408051635f788d6560e01b8152600481018590526001600160a01b03848116602483015291519190921691635f788d6591604480830192600092919082900301818387803b15801561078857600080fd5b60008054604080516305f0caad60e31b81526001600160a01b03858116600483015291519190921692632f865568926024808201939182900301818387803b15801561084457600080fd5b505af1158015610858573d6000803e3d6000fd5b5050505050565b60025460408051632e54bf9560e01b81526004810184905290516001600160a01b0390921691632e54bf959160248082019260009290919082900301818387803b15801561084457600080fd5b600154604080516327d2024360e21b8152600481018590526001600160a01b03848116602483015291519190921691639f48090c91604480830192600092919082900301818387803b15801561078857600080fd5b6001546040805163135484f960e11b8152600481018590526001600160a01b038481166024830152915191909216916326a909f291869160448082019260009290919082900301818588803b15801561095957600080fd5b505af115801561096d573d6000803e3d6000fd5b5050505050505050565b600080546040805163c1866f3360e01b8152600481018990526001600160a01b038881166024830152878116604483015260648201879052608482018690529151919092169263c1866f339260a4808201939182900301818387803b1580156109df57600080fd5b505af11580156109f3573d6000803e3d6000fd5b505050505050505050565b60035460408051633950935160e01b81526001600160a01b038581166004830152602482018590529151600093929092169163395093519160448082019260209290919082900301818787803b15801561060057600080fd5b6003546040805163095ea7b360e01b81526001600160a01b038581166004830152602482018590529151600093929092169163095ea7b39160448082019260209290919082900301818787803b15801561060057600080fd5b6003546040805163a457c2d760e01b81526001600160a01b038581166004830152602482018590529151600093929092169163a457c2d79160448082019260209290919082900301818787803b15801561060057600080fd5b600354604080516323b872dd60e01b81526001600160a01b038681166004830152858116602483015260448201859052915160009392909216916323b872dd9160648082019260209290919082900301818787803b158015610b6a57600080fd5b505af1158015610b7e573d6000803e3d6000fd5b505050506040513d6020811015610b9457600080fd5b5051949350505050565b60015460408051633141011d60e21b8152600481018590526001600160a01b0384811660248301529151919092169163c504047491604480830192600092919082900301818387803b15801561078857600080fd5b6001546040805163358b56f760e21b8152600481018590526001600160a01b0384811660248301529151919092169163d62d5bdc91604480830192600092919082900301818387803b15801561078857600080fd5b600080546040805163653d46e760e01b81526004810185905290516001600160a01b039092169263653d46e79260248084019382900301818387803b15801561084457600080fdfea2646970667358221220f9b356011c390cbbb46687d53ef7c97bde3645aad232bca22552d839fa666ac964736f6c634300060b0033",
  "linkReferences": {},
  "deployedLinkReferences": {}
}