{
  "_format": "hh-sol-artifact-1",
  "contractName": "EchidnaTester",
  "sourceName": "contracts/TestContracts/EchidnaTester.sol",
  "abi": [
    {
      "inputs": [],
      "stateMutability": "payable",
      "type": "constructor"
    },
    {
      "inputs": [],
      "name": "activePool",
      "outputs": [
        {
          "internalType": "contract ActivePool",
          "name": "",
          "type": "address"
        }
      ],
      "stateMutability": "view",
      "type": "function"
    },
    {
      "inputs": [
        {
          "internalType": "uint256",
          "name": "_i",
          "type": "uint256"
        },
        {
          "internalType": "uint256",
          "name": "_ETH",
          "type": "uint256"
        }
      ],
      "name": "addCollExt",
      "outputs": [],
      "stateMutability": "payable",
      "type": "function"
    },
    {
      "inputs": [
        {
          "internalType": "uint256",
          "name": "_i",
          "type": "uint256"
        },
        {
          "internalType": "uint256",
          "name": "_ETH",
          "type": "uint256"
        },
        {
          "internalType": "address",
          "name": "_upperHint",
          "type": "address"
        },
        {
          "internalType": "address",
          "name": "_lowerHint",
          "type": "address"
        }
      ],
      "name": "addCollRawExt",
      "outputs": [],
      "stateMutability": "payable",
      "type": "function"
    },
    {
      "inputs": [
        {
          "internalType": "uint256",
          "name": "_i",
          "type": "uint256"
        },
        {
          "internalType": "uint256",
          "name": "_ETH",
          "type": "uint256"
        },
        {
          "internalType": "uint256",
          "name": "_collWithdrawal",
          "type": "uint256"
        },
        {
          "internalType": "uint256",
          "name": "_debtChange",
          "type": "uint256"
        },
        {
          "internalType": "bool",
          "name": "_isDebtIncrease",
          "type": "bool"
        }
      ],
      "name": "adjustTroveExt",
      "outputs": [],
      "stateMutability": "payable",
      "type": "function"
    },
    {
      "inputs": [
        {
          "internalType": "uint256",
          "name": "_i",
          "type": "uint256"
        },
        {
          "internalType": "uint256",
          "name": "_ETH",
          "type": "uint256"
        },
        {
          "internalType": "uint256",
          "name": "_collWithdrawal",
          "type": "uint256"
        },
        {
          "internalType": "uint256",
          "name": "_debtChange",
          "type": "uint256"
        },
        {
          "internalType": "bool",
          "name": "_isDebtIncrease",
          "type": "bool"
        },
        {
          "internalType": "address",
          "name": "_upperHint",
          "type": "address"
        },
        {
          "internalType": "address",
          "name": "_lowerHint",
          "type": "address"
        },
        {
          "internalType": "uint256",
          "name": "_maxFee",
          "type": "uint256"
        }
      ],
      "name": "adjustTroveRawExt",
      "outputs": [],
      "stateMutability": "payable",
      "type": "function"
    },
    {
      "inputs": [
        {
          "internalType": "uint256",
          "name": "_i",
          "type": "uint256"
        },
        {
          "internalType": "address",
          "name": "spender",
          "type": "address"
        },
        {
          "internalType": "uint256",
          "name": "amount",
          "type": "uint256"
        }
      ],
      "name": "approveExt",
      "outputs": [
        {
          "internalType": "bool",
          "name": "",
          "type": "bool"
        }
      ],
      "stateMutability": "nonpayable",
      "type": "function"
    },
    {
      "inputs": [
        {
          "internalType": "uint256",
          "name": "_i",
          "type": "uint256"
        },
        {
          "internalType": "address[]",
          "name": "_troveArray",
          "type": "address[]"
        }
      ],
      "name": "batchLiquidateTrovesExt",
      "outputs": [],
      "stateMutability": "nonpayable",
      "type": "function"
    },
    {
      "inputs": [],
      "name": "borrowerOperations",
      "outputs": [
        {
          "internalType": "contract BorrowerOperations",
          "name": "",
          "type": "address"
        }
      ],
      "stateMutability": "view",
      "type": "function"
    },
    {
      "inputs": [
        {
          "internalType": "uint256",
          "name": "_i",
          "type": "uint256"
        }
      ],
      "name": "closeTroveExt",
      "outputs": [],
      "stateMutability": "nonpayable",
      "type": "function"
    },
    {
      "inputs": [],
      "name": "collSurplusPool",
      "outputs": [
        {
          "internalType": "contract CollSurplusPool",
          "name": "",
          "type": "address"
        }
      ],
      "stateMutability": "view",
      "type": "function"
    },
    {
      "inputs": [
        {
          "internalType": "uint256",
          "name": "_i",
          "type": "uint256"
        },
        {
          "internalType": "address",
          "name": "spender",
          "type": "address"
        },
        {
          "internalType": "uint256",
          "name": "subtractedValue",
          "type": "uint256"
        }
      ],
      "name": "decreaseAllowanceExt",
      "outputs": [
        {
          "internalType": "bool",
          "name": "",
          "type": "bool"
        }
      ],
      "stateMutability": "nonpayable",
      "type": "function"
    },
    {
      "inputs": [],
      "name": "defaultPool",
      "outputs": [
        {
          "internalType": "contract DefaultPool",
          "name": "",
          "type": "address"
        }
      ],
      "stateMutability": "view",
      "type": "function"
    },
    {
      "inputs": [
        {
          "internalType": "uint256",
          "name": "",
          "type": "uint256"
        }
      ],
      "name": "echidnaProxies",
      "outputs": [
        {
          "internalType": "contract EchidnaProxy",
          "name": "",
          "type": "address"
        }
      ],
      "stateMutability": "view",
      "type": "function"
    },
    {
      "inputs": [],
      "name": "echidna_ETH_balances",
      "outputs": [
        {
          "internalType": "bool",
          "name": "",
          "type": "bool"
        }
      ],
      "stateMutability": "view",
      "type": "function"
    },
    {
      "inputs": [],
      "name": "echidna_LUSD_global_balances",
      "outputs": [
        {
          "internalType": "bool",
          "name": "",
          "type": "bool"
        }
      ],
      "stateMutability": "view",
      "type": "function"
    },
    {
      "inputs": [],
      "name": "echidna_canary_active_pool_balance",
      "outputs": [
        {
          "internalType": "bool",
          "name": "",
          "type": "bool"
        }
      ],
      "stateMutability": "view",
      "type": "function"
    },
    {
      "inputs": [],
      "name": "echidna_canary_number_of_troves",
      "outputs": [
        {
          "internalType": "bool",
          "name": "",
          "type": "bool"
        }
      ],
      "stateMutability": "view",
      "type": "function"
    },
    {
      "inputs": [],
      "name": "echidna_price",
      "outputs": [
        {
          "internalType": "bool",
          "name": "",
          "type": "bool"
        }
      ],
      "stateMutability": "view",
      "type": "function"
    },
    {
      "inputs": [],
      "name": "echidna_trove_properties",
      "outputs": [
        {
          "internalType": "bool",
          "name": "",
          "type": "bool"
        }
      ],
      "stateMutability": "view",
      "type": "function"
    },
    {
      "inputs": [],
      "name": "echidna_troves_order",
      "outputs": [
        {
          "internalType": "bool",
          "name": "",
          "type": "bool"
        }
      ],
      "stateMutability": "view",
      "type": "function"
    },
    {
      "inputs": [],
      "name": "gasPool",
      "outputs": [
        {
          "internalType": "contract GasPool",
          "name": "",
          "type": "address"
        }
      ],
      "stateMutability": "view",
      "type": "function"
    },
    {
      "inputs": [
        {
          "internalType": "uint256",
          "name": "_i",
          "type": "uint256"
        },
        {
          "internalType": "address",
          "name": "spender",
          "type": "address"
        },
        {
          "internalType": "uint256",
          "name": "addedValue",
          "type": "uint256"
        }
      ],
      "name": "increaseAllowanceExt",
      "outputs": [
        {
          "internalType": "bool",
          "name": "",
          "type": "bool"
        }
      ],
      "stateMutability": "nonpayable",
      "type": "function"
    },
    {
      "inputs": [
        {
          "internalType": "uint256",
          "name": "_i",
          "type": "uint256"
        },
        {
          "internalType": "address",
          "name": "_user",
          "type": "address"
        }
      ],
      "name": "liquidateExt",
      "outputs": [],
      "stateMutability": "nonpayable",
      "type": "function"
    },
    {
      "inputs": [
        {
          "internalType": "uint256",
          "name": "_i",
          "type": "uint256"
        },
        {
          "internalType": "uint256",
          "name": "_n",
          "type": "uint256"
        }
      ],
      "name": "liquidateTrovesExt",
      "outputs": [],
      "stateMutability": "nonpayable",
      "type": "function"
    },
    {
      "inputs": [],
      "name": "lusdToken",
      "outputs": [
        {
          "internalType": "contract LUSDToken",
          "name": "",
          "type": "address"
        }
      ],
      "stateMutability": "view",
      "type": "function"
    },
    {
      "inputs": [
        {
          "internalType": "uint256",
          "name": "_i",
          "type": "uint256"
        },
        {
          "internalType": "uint256",
          "name": "_ETH",
          "type": "uint256"
        },
        {
          "internalType": "uint256",
          "name": "_LUSDAmount",
          "type": "uint256"
        }
      ],
      "name": "openTroveExt",
      "outputs": [],
      "stateMutability": "payable",
      "type": "function"
    },
    {
      "inputs": [
        {
          "internalType": "uint256",
          "name": "_i",
          "type": "uint256"
        },
        {
          "internalType": "uint256",
          "name": "_ETH",
          "type": "uint256"
        },
        {
          "internalType": "uint256",
          "name": "_LUSDAmount",
          "type": "uint256"
        },
        {
          "internalType": "address",
          "name": "_upperHint",
          "type": "address"
        },
        {
          "internalType": "address",
          "name": "_lowerHint",
          "type": "address"
        },
        {
          "internalType": "uint256",
          "name": "_maxFee",
          "type": "uint256"
        }
      ],
      "name": "openTroveRawExt",
      "outputs": [],
      "stateMutability": "payable",
      "type": "function"
    },
    {
      "inputs": [
        {
          "internalType": "uint256",
          "name": "_i",
          "type": "uint256"
        },
        {
          "internalType": "uint256",
          "name": "_amount",
          "type": "uint256"
        },
        {
          "internalType": "address",
          "name": "_frontEndTag",
          "type": "address"
        }
      ],
      "name": "provideToSPExt",
      "outputs": [],
      "stateMutability": "nonpayable",
      "type": "function"
    },
    {
      "inputs": [
        {
          "internalType": "uint256",
          "name": "_i",
          "type": "uint256"
        },
        {
          "internalType": "uint256",
          "name": "_LUSDAmount",
          "type": "uint256"
        },
        {
          "internalType": "address",
          "name": "_firstRedemptionHint",
          "type": "address"
        },
        {
          "internalType": "address",
          "name": "_upperPartialRedemptionHint",
          "type": "address"
        },
        {
          "internalType": "address",
          "name": "_lowerPartialRedemptionHint",
          "type": "address"
        },
        {
          "internalType": "uint256",
          "name": "_partialRedemptionHintNICR",
          "type": "uint256"
        }
      ],
      "name": "redeemCollateralExt",
      "outputs": [],
      "stateMutability": "nonpayable",
      "type": "function"
    },
    {
      "inputs": [
        {
          "internalType": "uint256",
          "name": "_i",
          "type": "uint256"
        },
        {
          "internalType": "uint256",
          "name": "_amount",
          "type": "uint256"
        },
        {
          "internalType": "address",
          "name": "_upperHint",
          "type": "address"
        },
        {
          "internalType": "address",
          "name": "_lowerHint",
          "type": "address"
        }
      ],
      "name": "repayLUSDExt",
      "outputs": [],
      "stateMutability": "nonpayable",
      "type": "function"
    },
    {
      "inputs": [
        {
          "internalType": "uint256",
          "name": "_price",
          "type": "uint256"
        }
      ],
      "name": "setPriceExt",
      "outputs": [],
      "stateMutability": "nonpayable",
      "type": "function"
    },
    {
      "inputs": [],
      "name": "stabilityPool",
      "outputs": [
        {
          "internalType": "contract StabilityPool",
          "name": "",
          "type": "address"
        }
      ],
      "stateMutability": "view",
      "type": "function"
    },
    {
      "inputs": [
        {
          "internalType": "uint256",
          "name": "_i",
          "type": "uint256"
        },
        {
          "internalType": "address",
          "name": "recipient",
          "type": "address"
        },
        {
          "internalType": "uint256",
          "name": "amount",
          "type": "uint256"
        }
      ],
      "name": "transferExt",
      "outputs": [
        {
          "internalType": "bool",
          "name": "",
          "type": "bool"
        }
      ],
      "stateMutability": "nonpayable",
      "type": "function"
    },
    {
      "inputs": [
        {
          "internalType": "uint256",
          "name": "_i",
          "type": "uint256"
        },
        {
          "internalType": "address",
          "name": "sender",
          "type": "address"
        },
        {
          "internalType": "address",
          "name": "recipient",
          "type": "address"
        },
        {
          "internalType": "uint256",
          "name": "amount",
          "type": "uint256"
        }
      ],
      "name": "transferFromExt",
      "outputs": [
        {
          "internalType": "bool",
          "name": "",
          "type": "bool"
        }
      ],
      "stateMutability": "nonpayable",
      "type": "function"
    },
    {
      "inputs": [],
      "name": "troveManager",
      "outputs": [
        {
          "internalType": "contract TroveManager",
          "name": "",
          "type": "address"
        }
      ],
      "stateMutability": "view",
      "type": "function"
    },
    {
      "inputs": [
        {
          "internalType": "uint256",
          "name": "_i",
          "type": "uint256"
        },
        {
          "internalType": "uint256",
          "name": "_amount",
          "type": "uint256"
        },
        {
          "internalType": "address",
          "name": "_upperHint",
          "type": "address"
        },
        {
          "internalType": "address",
          "name": "_lowerHint",
          "type": "address"
        }
      ],
      "name": "withdrawCollExt",
      "outputs": [],
      "stateMutability": "nonpayable",
      "type": "function"
    },
    {
      "inputs": [
        {
          "internalType": "uint256",
          "name": "_i",
          "type": "uint256"
        },
        {
          "internalType": "uint256",
          "name": "_amount",
          "type": "uint256"
        }
      ],
      "name": "withdrawFromSPExt",
      "outputs": [],
      "stateMutability": "nonpayable",
      "type": "function"
    },
    {
      "inputs": [
        {
          "internalType": "uint256",
          "name": "_i",
          "type": "uint256"
        },
        {
          "internalType": "uint256",
          "name": "_amount",
          "type": "uint256"
        },
        {
          "internalType": "address",
          "name": "_upperHint",
          "type": "address"
        },
        {
          "internalType": "address",
          "name": "_lowerHint",
          "type": "address"
        },
        {
          "internalType": "uint256",
          "name": "_maxFee",
          "type": "uint256"
        }
      ],
      "name": "withdrawLUSDExt",
      "outputs": [],
      "stateMutability": "nonpayable",
      "type": "function"
    }
  ],
  "bytecode": "0x6080604052604051620000129062000ab0565b604051809103906000f0801580156200002f573d6000803e3d6000fd5b50600380546001600160a01b0319166001600160a01b03929092169190911790556040516200005e9062000abe565b604051809103906000f0801580156200007b573d6000803e3d6000fd5b50600480546001600160a01b0319166001600160a01b0392909216919091179055604051620000aa9062000acc565b604051809103906000f080158015620000c7573d6000803e3d6000fd5b50600580546001600160a01b0319166001600160a01b0392909216919091179055604051620000f69062000ada565b604051809103906000f08015801562000113573d6000803e3d6000fd5b50600680546001600160a01b0319166001600160a01b0392909216919091179055604051620001429062000ae8565b604051809103906000f0801580156200015f573d6000803e3d6000fd5b50600780546001600160a01b0319166001600160a01b03929092169190911790556040516200018e9062000af6565b604051809103906000f080158015620001ab573d6000803e3d6000fd5b50600880546001600160a01b0319166001600160a01b039283161790556003546007546004546040519284169391821692911690620001ea9062000b03565b6001600160a01b03938416815291831660208301529091166040808301919091525190819003606001906000f0801580156200022a573d6000803e3d6000fd5b50600a80546001600160a01b0319166001600160a01b0392909216919091179055604051620002599062000b11565b604051809103906000f08015801562000276573d6000803e3d6000fd5b50600980546001600160a01b0319166001600160a01b0392909216919091179055604051620002a59062000b1f565b604051809103906000f080158015620002c2573d6000803e3d6000fd5b50600b80546001600160a01b0319166001600160a01b0392909216919091179055604051620002f19062000b2c565b604051809103906000f0801580156200030e573d6000803e3d6000fd5b50600c80546001600160a01b0319166001600160a01b03928316179081905560035460048054600554600654600754600854600954600b54600a5460408051631e61717960e21b8152988d1699890199909952958b166024880152938a166044870152918916606486015288166084850152871660a4840152861660c4830152851660e482015292841661010484015260006101248401819052610144840181905290519190931692637985c5e492610164808201939182900301818387803b158015620003db57600080fd5b505af1158015620003f0573d6000803e3d6000fd5b505060048054600354600554600654600754600854600954600b54600c54600a5460408051636c37a4af60e01b81526001600160a01b039a8b169c81019c909c5297891660248c015295881660448b015293871660648a01529186166084890152851660a4880152841660c4870152831660e48601528216610104850152600061012485018190529051919092169450636c37a4af93506101448084019382900301818387803b158015620004a457600080fd5b505af1158015620004b9573d6000803e3d6000fd5b50506005546004805460035460075460065460408051634a945f8d60e01b81526001600160a01b039586169681019690965292841660248601529083166044850152821660648401525192169350634a945f8d925060848082019260009290919082900301818387803b1580156200053057600080fd5b505af115801562000545573d6000803e3d6000fd5b5050600654600354600554604080516348083d7f60e11b81526001600160a01b0393841660048201529183166024830152519190921693506390107afe9250604480830192600092919082900301818387803b158015620005a557600080fd5b505af1158015620005ba573d6000803e3d6000fd5b505060075460048054600354600554600a54600c54600b546040805163eaa8ba7f60e01b81526001600160a01b039788169881019890985294861660248801529285166044870152908416606486015283166084850152821660a4840152600060c48401819052905191909316945063eaa8ba7f935060e4808301939282900301818387803b1580156200064d57600080fd5b505af115801562000662573d6000803e3d6000fd5b50506009546004805460035460055460408051630d8efe5960e21b81526001600160a01b0394851695810195909552918316602485015282166044840152519216935063363bf964925060648082019260009290919082900301818387803b158015620006ce57600080fd5b505af1158015620006e3573d6000803e3d6000fd5b5050600c546003546004805460408051631e6edaf360e31b8152670de0b6b3a7640000938101939093526001600160a01b03938416602484015290831660448301525191909216935063f376d7989250606480830192600092919082900301818387803b1580156200075457600080fd5b505af115801562000769573d6000803e3d6000fd5b506000925050505b6064811015620008a957600354600454600754600a546040516001600160a01b0394851694938416939283169290911690620007ad9062000b3a565b6001600160a01b039485168152928416602084015290831660408084019190915292166060820152905190819003608001906000f080158015620007f5573d6000803e3d6000fd5b50600d82606481106200080457fe5b0180546001600160a01b0319166001600160a01b03929092169190911790556000600d82606481106200083357fe5b01546040516001600160a01b039091169069d3c21bcecceda100000090600081818185875af1925050503d80600081146200088b576040519150601f19603f3d011682016040523d82523d6000602084013e62000890565b606091505b50509050806200089f57600080fd5b5060010162000771565b506004805460408051631e5395c960e21b815290516001600160a01b039092169263794e5724928282019260209290829003018186803b158015620008ed57600080fd5b505afa15801562000902573d6000803e3d6000fd5b505050506040513d60208110156200091957600080fd5b50516000556004805460408051635733d58f60e01b815290516001600160a01b0390921692635733d58f928282019260209290829003018186803b1580156200096157600080fd5b505afa15801562000976573d6000803e3d6000fd5b505050506040513d60208110156200098d57600080fd5b505160015560048054604080516305d0d77b60e31b815290516001600160a01b0390921692632e86bbd8928282019260209290829003018186803b158015620009d557600080fd5b505afa158015620009ea573d6000803e3d6000fd5b505050506040513d602081101562000a0157600080fd5b505160025560005462000a1357600080fd5b60006001541162000a2357600080fd5b600b54604080516391b7f5ed60e01b815269021e19e0c9bab2400000600482015290516001600160a01b03909216916391b7f5ed916024808201926020929091908290030181600087803b15801562000a7b57600080fd5b505af115801562000a90573d6000803e3d6000fd5b505050506040513d602081101562000aa757600080fd5b5062000b489050565b6159ea80620032e583390190565b6136ce8062008ccf83390190565b610b61806200c39d83390190565b61093b806200cefe83390190565b6138d2806200d83983390190565b605c806201110b83390190565b6118ad806201116783390190565b610ad98062012a1483390190565b60f780620134ed83390190565b61187d80620135e483390190565b610e358062014e6183390190565b61278d8062000b586000396000f3fe6080604052600436106102055760003560e01c80637f7dde4a11610113578063b83f91a2116100ab578063d21af9681161006f578063d21af96814610859578063e448912714610882578063efa83cf9146108b2578063f2a903a7146108fa578063fa08b0381461090f57610205565b8063b83f91a214610766578063baf5d65f1461077b578063c325347f146107ab578063c91b364a1461082f578063cda775f91461084457610205565b80637f7dde4a146105d45780638e4707d3146105e957806391a4a42614610628578063980c55d7146106525780639cdd0978146106675780639d9da9d8146106a65780639f56ac18146106f5578063a2f5cbdd1461070a578063a3d368341461071f57610205565b80634557559f116101a157806359bed84b1161016557806359bed84b146104d257806369690936146104e757806377553ad4146105215780637c22900e146105365780637ca8b0281461057f57610205565b80634557559f146103e05780634e792a301461040a57806357285cc5146104435780635895ac4e14610466578063597ec7991461047b57610205565b8063048c661d1461020a57806304bbf59c1461023b578063119be5d01461028e5780631c6fbd23146102cd5780633ca4afc1146103065780633cc74225146103455780633d83908a1461035a57806340ba2e271461036f5780634104fbd314610399575b600080fd5b34801561021657600080fd5b5061021f610924565b604080516001600160a01b039092168252519081900360200190f35b34801561024757600080fd5b5061027a6004803603606081101561025e57600080fd5b508035906001600160a01b036020820135169060400135610933565b604080519115158252519081900360200190f35b34801561029a57600080fd5b5061027a600480360360608110156102b157600080fd5b508035906001600160a01b0360208201351690604001356109d3565b610304600480360360a08110156102e357600080fd5b50803590602081013590604081013590606081013590608001351515610a3e565b005b34801561031257600080fd5b506103046004803603606081101561032957600080fd5b50803590602081013590604001356001600160a01b0316610b26565b34801561035157600080fd5b5061021f610bad565b34801561036657600080fd5b5061021f610bbc565b34801561037b57600080fd5b506103046004803603602081101561039257600080fd5b5035610bcb565b3480156103a557600080fd5b50610304600480360360808110156103bc57600080fd5b508035906020810135906001600160a01b0360408201358116916060013516610c4b565b3480156103ec57600080fd5b506103046004803603602081101561040357600080fd5b5035610cdb565b34801561041657600080fd5b506103046004803603604081101561042d57600080fd5b50803590602001356001600160a01b0316610d61565b6103046004803603604081101561045957600080fd5b5080359060200135610de0565b34801561047257600080fd5b5061027a610e93565b610304600480360361010081101561049257600080fd5b5080359060208101359060408101359060608101359060808101351515906001600160a01b0360a082013581169160c08101359091169060e00135610f2a565b3480156104de57600080fd5b5061027a610fdb565b610304600480360360808110156104fd57600080fd5b508035906020810135906001600160a01b0360408201358116916060013516611290565b34801561052d57600080fd5b5061021f611301565b34801561054257600080fd5b5061027a6004803603608081101561055957600080fd5b508035906001600160a01b03602082013581169160408101359091169060600135611310565b34801561058b57600080fd5b50610304600480360360c08110156105a257600080fd5b508035906020810135906001600160a01b03604082013581169160608101358216916080820135169060a001356113b9565b3480156105e057600080fd5b5061021f611466565b3480156105f557600080fd5b5061027a6004803603606081101561060c57600080fd5b508035906001600160a01b036020820135169060400135611475565b34801561063457600080fd5b5061021f6004803603602081101561064b57600080fd5b50356114e0565b34801561065e57600080fd5b5061027a6114fd565b34801561067357600080fd5b5061027a6004803603606081101561068a57600080fd5b508035906001600160a01b0360208201351690604001356117bf565b3480156106b257600080fd5b50610304600480360360a08110156106c957600080fd5b508035906020810135906001600160a01b0360408201358116916060810135909116906080013561182a565b34801561070157600080fd5b5061027a6118a2565b34801561071657600080fd5b5061027a6118c5565b34801561072b57600080fd5b506103046004803603608081101561074257600080fd5b508035906020810135906001600160a01b03604082013581169160600135166118da565b34801561077257600080fd5b5061021f61194b565b34801561078757600080fd5b506103046004803603604081101561079e57600080fd5b508035906020013561195a565b3480156107b757600080fd5b50610304600480360360408110156107ce57600080fd5b813591908101906040810160208201356401000000008111156107f057600080fd5b82018360208201111561080257600080fd5b8035906020019184602083028401116401000000008311171561082457600080fd5b5090925090506119bb565b34801561083b57600080fd5b5061027a611a4c565b34801561085057600080fd5b5061021f611e72565b6103046004803603606081101561086f57600080fd5b5080359060208101359060400135611e81565b34801561088e57600080fd5b50610304600480360360408110156108a557600080fd5b5080359060200135611fd2565b610304600480360360c08110156108c857600080fd5b508035906020810135906040810135906001600160a01b03606082013581169160808101359091169060a00135612033565b34801561090657600080fd5b5061027a6120b2565b34801561091b57600080fd5b5061021f6122f3565b6007546001600160a01b031681565b600080606485069050600d816064811061094957fe5b01546040805163d466e4eb60e01b81526001600160a01b038781166004830152602482018790529151919092169163d466e4eb9160448083019260209291908290030181600087803b15801561099e57600080fd5b505af11580156109b2573d6000803e3d6000fd5b505050506040513d60208110156109c857600080fd5b509195945050505050565b600080606485069050600d81606481106109e957fe5b01546040805163cf83544f60e01b81526001600160a01b038781166004830152602482018790529151919092169163cf83544f9160448083019260209291908290030181600087803b15801561099e57600080fd5b60006064860690506000600d8260648110610a5557fe5b0154600080546001600160a01b039092169250823191610a789083908a90612302565b9050858515610a9157610a8e82886000546123de565b90505b60408051631942d56760e21b815260048101849052602481018a905260448101839052871515606482015260006084820181905260a4820181905260c4820181905291516001600160a01b0387169263650b559c9260e4808201939182900301818387803b158015610b0257600080fd5b505af1158015610b16573d6000803e3d6000fd5b5050505050505050505050505050565b6000606484069050600d8160648110610b3b57fe5b015460408051634c36240b60e01b8152600481018690526001600160a01b03858116602483015291519190921691634c36240b91604480830192600092919082900301818387803b158015610b8f57600080fd5b505af1158015610ba3573d6000803e3d6000fd5b5050505050505050565b6006546001600160a01b031681565b6003546001600160a01b031681565b6000606482069050600d8160648110610be057fe5b0160009054906101000a90046001600160a01b03166001600160a01b0316634903a3dd6040518163ffffffff1660e01b8152600401600060405180830381600087803b158015610c2f57600080fd5b505af1158015610c43573d6000803e3d6000fd5b505050505050565b6000606485069050600d8160648110610c6057fe5b015460408051630f52fb0760e31b8152600481018790526001600160a01b038681166024830152858116604483015291519190921691637a97d83891606480830192600092919082900301818387803b158015610cbc57600080fd5b505af1158015610cd0573d6000803e3d6000fd5b505050505050505050565b600b54604080516391b7f5ed60e01b81526004810184905290516000926001600160a01b0316916391b7f5ed91602480830192602092919082900301818787803b158015610d2857600080fd5b505af1158015610d3c573d6000803e3d6000fd5b505050506040513d6020811015610d5257600080fd5b5051905080610d5d57fe5b5050565b6000606483069050600d8160648110610d7657fe5b015460408051634d37261f60e01b81526001600160a01b03858116600483015291519190921691634d37261f91602480830192600092919082900301818387803b158015610dc357600080fd5b505af1158015610dd7573d6000803e3d6000fd5b50505050505050565b60006064830690506000600d8260648110610df757fe5b0154600080546001600160a01b039092169250823191610e1a9083908790612302565b604080516332e859b960e01b8152600481018390526000602482018190526044820181905291519293506001600160a01b038616926332e859b99260648084019391929182900301818387803b158015610e7357600080fd5b505af1158015610e87573d6000803e3d6000fd5b50505050505050505050565b600080600b60009054906101000a90046001600160a01b03166001600160a01b03166398d5fdca6040518163ffffffff1660e01b815260040160206040518083038186803b158015610ee457600080fd5b505afa158015610ef8573d6000803e3d6000fd5b505050506040513d6020811015610f0e57600080fd5b5051905080610f21576000915050610f27565b60019150505b90565b6000606489069050600d8160648110610f3f57fe5b015460408051631942d56760e21b8152600481018b9052602481018a90526044810189905287151560648201526001600160a01b03878116608483015286811660a483015260c482018690529151919092169163650b559c9160e480830192600092919082900301818387803b158015610fb857600080fd5b505af1158015610fcc573d6000803e3d6000fd5b50505050505050505050505050565b600080600c60009054906101000a90046001600160a01b03166001600160a01b0316631e2231436040518163ffffffff1660e01b815260040160206040518083038186803b15801561102c57600080fd5b505afa158015611040573d6000803e3d6000fd5b505050506040513d602081101561105657600080fd5b5051600c546040805163765e015960e01b81526001600160a01b0380851660048301529151939450600093919092169163765e0159916024808301926020929190829003018186803b1580156110ab57600080fd5b505afa1580156110bf573d6000803e3d6000fd5b505050506040513d60208110156110d557600080fd5b505190505b6001600160a01b038216158015906110fa57506001600160a01b03811615155b15611287576003546040805163b0d8e18160e01b81526001600160a01b0385811660048301529151919092169163b0d8e181916024808301926020929190829003018186803b15801561114c57600080fd5b505afa158015611160573d6000803e3d6000fd5b505050506040513d602081101561117657600080fd5b50516003546040805163b0d8e18160e01b81526001600160a01b0385811660048301529151919092169163b0d8e181916024808301926020929190829003018186803b1580156111c557600080fd5b505afa1580156111d9573d6000803e3d6000fd5b505050506040513d60208110156111ef57600080fd5b5051111561120257600092505050610f27565b600c546040805163765e015960e01b81526001600160a01b03808516600483015291519394508493919092169163765e0159916024808301926020929190829003018186803b15801561125457600080fd5b505afa158015611268573d6000803e3d6000fd5b505050506040513d602081101561127e57600080fd5b505190506110da565b60019250505090565b6000606485069050600d81606481106112a557fe5b0154604080516332e859b960e01b8152600481018790526001600160a01b0386811660248301528581166044830152915191909216916332e859b991606480830192600092919082900301818387803b158015610cbc57600080fd5b6004546001600160a01b031681565b600080606486069050600d816064811061132657fe5b015460408051636ca5e76160e11b81526001600160a01b0388811660048301528781166024830152604482018790529151919092169163d94bcec29160648083019260209291908290030181600087803b15801561138357600080fd5b505af1158015611397573d6000803e3d6000fd5b505050506040513d60208110156113ad57600080fd5b50919695505050505050565b6000606487069050600d81606481106113ce57fe5b0154604080516335b1017960e01b8152600481018990526001600160a01b0388811660248301528781166044830152868116606483015260848201869052600060a4830181905260c4830181905292519316926335b101799260e48084019391929182900301818387803b15801561144557600080fd5b505af1158015611459573d6000803e3d6000fd5b5050505050505050505050565b6005546001600160a01b031681565b600080606485069050600d816064811061148b57fe5b015460408051636628d36160e11b81526001600160a01b038781166004830152602482018790529151919092169163cc51a6c29160448083019260209291908290030181600087803b15801561099e57600080fd5b600d81606481106114ed57fe5b01546001600160a01b0316905081565b600080600c60009054906101000a90046001600160a01b03166001600160a01b0316631e2231436040518163ffffffff1660e01b815260040160206040518083038186803b15801561154e57600080fd5b505afa158015611562573d6000803e3d6000fd5b505050506040513d602081101561157857600080fd5b505190505b6001600160a01b03811615610f21576001600354604080516321e3780160e01b81526001600160a01b038581166004830152915191909216916321e37801916024808301926020929190829003018186803b1580156115db57600080fd5b505afa1580156115ef573d6000803e3d6000fd5b505050506040513d602081101561160557600080fd5b5051600481111561161257fe5b600481111561161d57fe5b1461162c576000915050610f27565b6002546003546040805163d66a255360e01b81526001600160a01b0385811660048301529151919092169163d66a2553916024808301926020929190829003018186803b15801561167c57600080fd5b505afa158015611690573d6000803e3d6000fd5b505050506040513d60208110156116a657600080fd5b505110156116b8576000915050610f27565b60035460408051630326771360e51b81526001600160a01b038481166004830152915191909216916364cee260916024808301926020929190829003018186803b15801561170557600080fd5b505afa158015611719573d6000803e3d6000fd5b505050506040513d602081101561172f57600080fd5b505161173f576000915050610f27565b600c546040805163765e015960e01b81526001600160a01b0384811660048301529151919092169163765e0159916024808301926020929190829003018186803b15801561178c57600080fd5b505afa1580156117a0573d6000803e3d6000fd5b505050506040513d60208110156117b657600080fd5b5051905061157d565b600080606485069050600d81606481106117d557fe5b01546040805163390b5f2760e01b81526001600160a01b038781166004830152602482018790529151919092169163390b5f279160448083019260209291908290030181600087803b15801561099e57600080fd5b6000606486069050600d816064811061183f57fe5b015460408051633ee359ff60e21b8152600481018890526001600160a01b0387811660248301528681166044830152606482018690529151919092169163fb8d67fc91608480830192600092919082900301818387803b158015610e7357600080fd5b6005546000906001600160a01b031631156118bf57506000610f27565b50600190565b6000601460715411156118bf57506000610f27565b6000606485069050600d81606481106118ef57fe5b015460408051633ddd87af60e11b8152600481018790526001600160a01b038681166024830152858116604483015291519190921691637bbb0f5e91606480830192600092919082900301818387803b158015610cbc57600080fd5b600a546001600160a01b031681565b6000606483069050600d816064811061196f57fe5b01546040805163f47a1ea760e01b81526004810185905290516001600160a01b039092169163f47a1ea79160248082019260009290919082900301818387803b158015610dc357600080fd5b6000606484069050600d81606481106119d057fe5b0154604051634afbac5160e01b8152602060048201818152602483018690526001600160a01b0390931692634afbac5192879287929182916044909101908590850280828437600081840152601f19601f8201169050808301925050509350505050600060405180830381600087803b158015610b8f57600080fd5b600080600a60009054906101000a90046001600160a01b03166001600160a01b03166318160ddd6040518163ffffffff1660e01b815260040160206040518083038186803b158015611a9d57600080fd5b505afa158015611ab1573d6000803e3d6000fd5b505050506040513d6020811015611ac757600080fd5b5051600a54600854604080516370a0823160e01b81526001600160a01b039283166004820152905193945060009391909216916370a08231916024808301926020929190829003018186803b158015611b1f57600080fd5b505afa158015611b33573d6000803e3d6000fd5b505050506040513d6020811015611b4957600080fd5b505160055460408051632f5a97e560e11b815290519293506000926001600160a01b0390921691635eb52fca91600480820192602092909190829003018186803b158015611b9657600080fd5b505afa158015611baa573d6000803e3d6000fd5b505050506040513d6020811015611bc057600080fd5b505160065460408051632f5a97e560e11b815290519293506000926001600160a01b0390921691635eb52fca91600480820192602092909190829003018186803b158015611c0d57600080fd5b505afa158015611c21573d6000803e3d6000fd5b505050506040513d6020811015611c3757600080fd5b505190508181018414611c51576000945050505050610f27565b600754604080516326fcbc6b60e21b815290516000926001600160a01b031691639bf2f1ac916004808301926020929190829003018186803b158015611c9657600080fd5b505afa158015611caa573d6000803e3d6000fd5b505050506040513d6020811015611cc057600080fd5b5051600c5460408051631e22314360e01b815290519293506000926001600160a01b0390921691631e22314391600480820192602092909190829003018186803b158015611d0d57600080fd5b505afa158015611d21573d6000803e3d6000fd5b505050506040513d6020811015611d3757600080fd5b5051905060005b6001600160a01b03821615611e4957600a54604080516370a0823160e01b81526001600160a01b038581166004830152915191909216916370a08231916024808301926020929190829003018186803b158015611d9a57600080fd5b505afa158015611dae573d6000803e3d6000fd5b505050506040513d6020811015611dc457600080fd5b5051600c546040805163765e015960e01b81526001600160a01b0386811660048301529151949093019391169163765e0159916024808301926020929190829003018186803b158015611e1657600080fd5b505afa158015611e2a573d6000803e3d6000fd5b505050506040513d6020811015611e4057600080fd5b50519150611d3e565b85818401018711611e64576000975050505050505050610f27565b600197505050505050505090565b6009546001600160a01b031681565b60006064840690506000600d8260648110611e9857fe5b01546001546001600160a01b039091169150813190600090611ebd9083908890612302565b90506000611ece82876001546123de565b60408051639113473160e01b81526004810185905260248101839052600060448201819052606482018190526084820181905291519293506001600160a01b0387169263911347319260a48084019391929182900301818387803b158015611f3557600080fd5b505af1158015611f49573d6000803e3d6000fd5b50505050600360009054906101000a90046001600160a01b03166001600160a01b03166349eefeee6040518163ffffffff1660e01b815260040160206040518083038186803b158015611f9b57600080fd5b505afa158015611faf573d6000803e3d6000fd5b505050506040513d6020811015611fc557600080fd5b50516071819055610ba357fe5b6000606483069050600d8160648110611fe757fe5b01546040805163320d84db60e11b81526004810185905290516001600160a01b039092169163641b09b69160248082019260009290919082900301818387803b158015610dc357600080fd5b6000606487069050600d816064811061204857fe5b015460408051639113473160e01b815260048101899052602481018890526001600160a01b0387811660448301528681166064830152608482018690529151919092169163911347319160a480830192600092919082900301818387803b15801561144557600080fd5b6003546000906001600160a01b031631156120cf57506000610f27565b6004546001600160a01b031631156120e957506000610f27565b600560009054906101000a90046001600160a01b03166001600160a01b03166314f6c3be6040518163ffffffff1660e01b815260040160206040518083038186803b15801561213757600080fd5b505afa15801561214b573d6000803e3d6000fd5b505050506040513d602081101561216157600080fd5b50516005546001600160a01b0316311461217d57506000610f27565b600660009054906101000a90046001600160a01b03166001600160a01b03166314f6c3be6040518163ffffffff1660e01b815260040160206040518083038186803b1580156121cb57600080fd5b505afa1580156121df573d6000803e3d6000fd5b505050506040513d60208110156121f557600080fd5b50516006546001600160a01b0316311461221157506000610f27565b600760009054906101000a90046001600160a01b03166001600160a01b03166314f6c3be6040518163ffffffff1660e01b815260040160206040518083038186803b15801561225f57600080fd5b505afa158015612273573d6000803e3d6000fd5b505050506040513d602081101561228957600080fd5b50516007546001600160a01b031631146122a557506000610f27565b600a546001600160a01b031631156122bf57506000610f27565b600b546001600160a01b031631156122d957506000610f27565b600c546001600160a01b031631156118bf57506000610f27565b6008546001600160a01b031681565b600080600b60009054906101000a90046001600160a01b03166001600160a01b03166398d5fdca6040518163ffffffff1660e01b815260040160206040518083038186803b15801561235357600080fd5b505afa158015612367573d6000803e3d6000fd5b505050506040513d602081101561237d57600080fd5b505190508061238b57600080fd5b60006123b2826123a6600254876124ca90919063ffffffff16565b9063ffffffff61252c16565b90508086116123c057600080fd5b600081870386816123cd57fe5b0691909101925050505b9392505050565b600080600b60009054906101000a90046001600160a01b03166001600160a01b03166398d5fdca6040518163ffffffff1660e01b815260040160206040518083038186803b15801561242f57600080fd5b505afa158015612443573d6000803e3d6000fd5b505050506040513d602081101561245957600080fd5b5051600254909150849060009061247790839063ffffffff61256e16565b905060006124868883866125c8565b9050858110156124be576124a4866123a68a8763ffffffff6124ca16565b91506124bb600254836125f890919063ffffffff16565b92505b50909695505050505050565b6000826124d957506000612526565b828202828482816124e657fe5b04146125235760405162461bcd60e51b81526004018080602001828103825260218152602001806127376021913960400191505060405180910390fd5b90505b92915050565b600061252383836040518060400160405280601a81526020017f536166654d6174683a206469766973696f6e206279207a65726f00000000000081525061263a565b600082820183811015612523576040805162461bcd60e51b815260206004820152601b60248201527f536166654d6174683a206164646974696f6e206f766572666c6f770000000000604482015290519081900360640190fd5b600082156125ef5760006125e6846123a6878663ffffffff6124ca16565b91506123d79050565b506000196123d7565b600061252383836040518060400160405280601e81526020017f536166654d6174683a207375627472616374696f6e206f766572666c6f7700008152506126dc565b600081836126c65760405162461bcd60e51b81526004018080602001828103825283818151815260200191508051906020019080838360005b8381101561268b578181015183820152602001612673565b50505050905090810190601f1680156126b85780820380516001836020036101000a031916815260200191505b509250505060405180910390fd5b5060008385816126d257fe5b0495945050505050565b6000818484111561272e5760405162461bcd60e51b815260206004820181815283516024840152835190928392604490910191908501908083836000831561268b578181015183820152602001612673565b50505090039056fe536166654d6174683a206d756c7469706c69636174696f6e206f766572666c6f77a2646970667358221220a329f92c100a07e12508b07ca660a389a1696a9a38abe797baea973b9a77ee3f64736f6c634300060b0033608060405234801561001057600080fd5b50600380546001600160a01b031916339081179091556040516000907f8be0079c531659141344cd1fd0a4f28419497f9722a3daafe3b4186f6b6457e0908290a361598980620000616000396000f3fe608060405234801561001057600080fd5b506004361061042f5760003560e01c8063794e57241161023c578063b83f91a211610146578063d3d6f843116100c3578063e2ac77b011610087578063e2ac77b014610bcf578063f34862de14610bf5578063f36b242514610c1b578063f92d343314610642578063fe2ba84814610c235761042f565b8063d3d6f84314610b3b578063d5b3563514610b67578063d66a255314610b84578063d9a7244414610baa578063dba1c5f214610bc75761042f565b8063c52861f21161010a578063c52861f214610ad1578063c7b5548114610ad9578063cbd138ae14610ae1578063d293c71014610b07578063d380a37c14610b335761042f565b8063b83f91a214610a1f578063b91af97c14610a27578063bcd3752614610a73578063bf9befb114610ac1578063c35bc55014610ac95761042f565b80638f32d59b116101d4578063a3a6401711610198578063a3a64017146109c4578063ae918754146109cc578063b0d8e181146109d4578063b7f8cf9b146109fa578063b82f263d14610a025761042f565b80638f32d59b1461098057806396d711ff146109885780639976cf45146109905780639dd233d2146109bc578063a20baee6146108795761042f565b8063794e5724146108a6578063795d26c3146108ae578063797250e3146108b65780637985c5e4146108be5780637f7dde4a1461093a578063807d138d1461094257806382fe3eb91461094a578063887105d3146109705780638da5cb5b146109785761042f565b8063477d66cf1161033d57806361ec893d116102d55780636ef64338116102995780636ef64338146107de57806372423c171461084d57806372fe25aa14610879578063741bef1a14610881578063756b253e146108895761042f565b806361ec893d1461076e578063631203b01461077657806364cee26014610793578063653d46e7146107b957806366ca4a21146107d65761042f565b8063477d66cf14610688578063480cd578146106a55780634870dd9a146106cb57806349eefeee146106d35780634e443d9e146106db5780635733d58f1461070c5780635d6b480f146107145780635d8c9609146107405780635dba4c4a146107665761042f565b80631e8b1c2b116103cb57806328d28b5b1161038f57806328d28b5b146106425780632b11551a1461064a5780632e86bbd8146106525780632f8655681461065a5780633cc74225146106805761042f565b80631e8b1c2b146105615780631f68f20a146106045780631f7af3c31461060c57806321e3780114610614578063240926691461063a5761042f565b8063048c661d14610434578063060d49a314610458578063071a7541146104725780630b0765571461047a57806312610e92146104a257806315d549f1146104ce5780631673c79a146104f457806318f2817a146105335780631bf4355514610559575b600080fd5b61043c610c49565b604080516001600160a01b039092168252519081900360200190f35b610460610c58565b60408051918252519081900360200190f35b610460610c5e565b6104a06004803603602081101561049057600080fd5b50356001600160a01b0316610c63565b005b610460600480360360408110156104b857600080fd5b506001600160a01b038135169060200135610c8b565b610460600480360360208110156104e457600080fd5b50356001600160a01b0316610ce3565b61051a6004803603602081101561050a57600080fd5b50356001600160a01b0316610d07565b6040805192835260208301919091528051918290030190f35b6104606004803603602081101561054957600080fd5b50356001600160a01b0316610d20565b610460610d33565b6104a06004803603602081101561057757600080fd5b81019060208101813564010000000081111561059257600080fd5b8201836020820111156105a457600080fd5b803590602001918460208302840111640100000000831117156105c657600080fd5b919080806020026020016040519081016040528093929190818152602001838360200280828437600092019190915250929550610d40945050505050565b6104606110e2565b61043c6110e8565b6104606004803603602081101561062a57600080fd5b50356001600160a01b03166110f7565b610460611121565b610460611134565b610460611145565b610460611157565b6104a06004803603602081101561067057600080fd5b50356001600160a01b0316611164565b61043c6111ca565b6104606004803603602081101561069e57600080fd5b50356111d9565b610460600480360360208110156106bb57600080fd5b50356001600160a01b03166111ec565b61046061120a565b61046061120f565b6106f8600480360360208110156106f157600080fd5b5035611215565b604080519115158252519081900360200190f35b610460611220565b6104a06004803603604081101561072a57600080fd5b506001600160a01b03813516906020013561122c565b6104606004803603602081101561075657600080fd5b50356001600160a01b0316611278565b6104a061133e565b6104606113a4565b6104606004803603602081101561078c57600080fd5b50356113a9565b610460600480360360208110156107a957600080fd5b50356001600160a01b03166113b6565b6104a0600480360360208110156107cf57600080fd5b50356113d4565b610460611782565b610804600480360360208110156107f457600080fd5b50356001600160a01b0316611794565b6040518086815260200185815260200184815260200183600481111561082657fe5b60ff1681526001600160801b03909216602083015250604080519182900301945092505050f35b6104606004803603604081101561086357600080fd5b506001600160a01b0381351690602001356117ce565b61046061182b565b61043c611837565b61043c6004803603602081101561089f57600080fd5b5035611846565b61046061186d565b610460611879565b61046061197a565b6104a060048036036101608110156108d557600080fd5b506001600160a01b038135811691602081013582169160408201358116916060810135821691608082013581169160a081013582169160c082013581169160e08101358216916101008201358116916101208101358216916101409091013516611980565b61043c611d79565b610460611d88565b6104a06004803603602081101561096057600080fd5b50356001600160a01b0316611d8e565b610460611d9f565b61043c611e5b565b6106f8611e6a565b610460611e7b565b610460600480360360408110156109a657600080fd5b506001600160a01b038135169060200135611e81565b610460611eb4565b61043c611eba565b61043c611ec9565b610460600480360360208110156109ea57600080fd5b50356001600160a01b0316611ed8565b61043c611eff565b61046060048036036020811015610a1857600080fd5b5035611f0e565b61043c611f19565b610a4d60048036036020811015610a3d57600080fd5b50356001600160a01b0316611f28565b604080519485526020850193909352838301919091526060830152519081900360800190f35b6104a0600480360360e0811015610a8957600080fd5b508035906001600160a01b03602082013581169160408101358216916060820135169060808101359060a08101359060c00135611f8c565b61046061272e565b610460612734565b61046061273b565b61046061274d565b6104a060048036036020811015610af757600080fd5b50356001600160a01b0316612759565b61046060048036036040811015610b1d57600080fd5b506001600160a01b03813516906020013561276c565b61046061278b565b61046060048036036040811015610b5157600080fd5b506001600160a01b038135169060200135612791565b61046060048036036020811015610b7d57600080fd5b50356127c7565b61046060048036036020811015610b9a57600080fd5b50356001600160a01b03166127da565b61043c60048036036020811015610bc057600080fd5b50356127f5565b61046061281f565b6106f860048036036020811015610be557600080fd5b50356001600160a01b0316612825565b61046060048036036020811015610c0b57600080fd5b50356001600160a01b0316612883565b6104606128b4565b6104a060048036036020811015610c3957600080fd5b50356001600160a01b03166128c1565b6005546001600160a01b031681565b60175481565b600281565b610c6b6128d2565b600054600154610c88916001600160a01b0390811691168361291d565b50565b6000610c956128d2565b6001600160a01b0383166000908152600e6020526040812054610cbe908463ffffffff612a3f16565b6001600160a01b0385166000908152600e602052604090208190559150505b92915050565b6000610ced6128d2565b610cf682612a88565b6001600160801b031690505b919050565b6014602052600090815260409020805460019091015482565b6000610d2a6128d2565b610cdd82612b22565b6869b5afac750bb8000081565b8051610d7d5760405162461bcd60e51b815260040180806020018281038252603681526020018061580f6036913960400191505060405180910390fd5b6000546001546005546001600160a01b03928316929182169116610d9f615507565b610da7615538565b600260009054906101000a90046001600160a01b03166001600160a01b0316630fdb11cf6040518163ffffffff1660e01b8152600401602060405180830381600087803b158015610df757600080fd5b505af1158015610e0b573d6000803e3d6000fd5b505050506040513d6020811015610e2157600080fd5b50518252604080516326fcbc6b60e21b815290516001600160a01b03851691639bf2f1ac916004808301926020929190829003018186803b158015610e6557600080fd5b505afa158015610e79573d6000803e3d6000fd5b505050506040513d6020811015610e8f57600080fd5b505160208301528151610ea190612bd1565b1580156040840152610ec957610ec28585846000015185602001518a612bee565b9050610ee1565b610ede8585846000015185602001518a612dd7565b90505b6000816020015111610f245760405162461bcd60e51b81526004018080602001828103825260228152602001806159036022913960400191505060405180910390fd5b826001600160a01b031663335525ad82608001518360a001516040518363ffffffff1660e01b81526004018083815260200182815260200192505050600060405180830381600087803b158015610f7a57600080fd5b505af1158015610f8e573d6000803e3d6000fd5b50505050610fa685858360c001518460e00151612e9f565b6101008101511561102557600754610100820151604080516364a197f360e01b81526001600160a01b039384166004820152602481019290925251918716916364a197f39160448082019260009290919082900301818387803b15801561100c57600080fd5b505af1158015611020573d6000803e3d6000fd5b505050505b611033858260400151613120565b602081015160608301526101008101516040820151825161106b929161105f919063ffffffff612a3f16565b9063ffffffff612a3f16565b608080840182905260608085015160408086015186840151825193845260208401969096528282015291810193909352517f4152c73dd2614c4f9fc35e8c9cf16013cd588c75b49a4c1673ecffdcbcda94039281900390910190a16110da853383606001518460400151613267565b505050505050565b600c5481565b6009546001600160a01b031681565b6001600160a01b0381166000908152600e602052604081206003015460ff166004811115610cdd57fe5b6064670de0b6b3a76400005b0460050281565b6103e8670de0b6b3a764000061112d565b6000611152600c5461336a565b905090565b6802b5e3af16b188000081565b61116d816133a0565b60408051600180825281830190925260609160208083019080368337019050509050818160008151811061119d57fe5b60200260200101906001600160a01b031690816001600160a01b0316815250506111c681610d40565b5050565b6001546001600160a01b031681565b6000610cdd6111e6611782565b83613408565b6001600160a01b03166000908152600e602052604090206001015490565b60c881565b60155490565b6000610cdd82612bd1565b6714d1120d7b16000081565b6112346128d2565b80600481111561124057fe5b6001600160a01b0383166000908152600e60205260409020600301805460ff1916600183600481111561126f57fe5b02179055505050565b6001600160a01b03811660009081526014602052604081205460125482906112a6908363ffffffff612a3f16565b90508015806112df575060016001600160a01b0385166000908152600e602052604090206003015460ff1660048111156112dc57fe5b14155b156112ef57600092505050610d02565b6001600160a01b0384166000908152600e602052604081206002015490611334670de0b6b3a7640000611328848663ffffffff61342616565b9063ffffffff61347f16565b9695505050505050565b6113466128d2565b60006113506134c1565b9050670de0b6b3a764000081111561136457fe5b600c8190556040805182815290517fc454ee9b76c52f782a256af821b857ca6e125d1e3333bcede402fec2bed9600c9181900360200190a1610c88613505565b603c81565b6000610cdd6111e66128b4565b6001600160a01b03166000908152600e602052604090206002015490565b6113dc615584565b506040805160e081018252600080546001600160a01b0390811683526001548116602084015292820181905260608201819052600b548316608083015260a0820181905260c0820152600554909116611433615507565b61143b615538565b600260009054906101000a90046001600160a01b03166001600160a01b0316630fdb11cf6040518163ffffffff1660e01b8152600401602060405180830381600087803b15801561148b57600080fd5b505af115801561149f573d6000803e3d6000fd5b505050506040513d60208110156114b557600080fd5b50518252604080516326fcbc6b60e21b815290516001600160a01b03851691639bf2f1ac916004808301926020929190829003018186803b1580156114f957600080fd5b505afa15801561150d573d6000803e3d6000fd5b505050506040513d602081101561152357600080fd5b50516020830152815161153590612bd1565b158015604084015261155c57611555848360000151846020015188613561565b905061157c565b6115798460000151856020015184600001518560200151896138f4565b90505b60008160200151116115bf5760405162461bcd60e51b81526004018080602001828103825260228152602001806159036022913960400191505060405180910390fd5b826001600160a01b031663335525ad82608001518360a001516040518363ffffffff1660e01b81526004018083815260200182815260200192505050600060405180830381600087803b15801561161557600080fd5b505af1158015611629573d6000803e3d6000fd5b50505050611649846000015185602001518360c001518460e00151612e9f565b610100810151156116ca578351600754610100830151604080516364a197f360e01b81526001600160a01b03938416600482015260248101929092525191909216916364a197f391604480830192600092919082900301818387803b1580156116b157600080fd5b505af11580156116c5573d6000803e3d6000fd5b505050505b6116dc84600001518260400151613120565b6020810151606083015261010081015160408201518251611708929161105f919063ffffffff612a3f16565b608080840182905260608085015160408086015186840151825193845260208401969096528282015291810193909352517f4152c73dd2614c4f9fc35e8c9cf16013cd588c75b49a4c1673ecffdcbcda94039281900390910190a161177b84600001513383606001518460400151613267565b5050505050565b600061115261178f6134c1565b613a26565b600e6020526000908152604090208054600182015460028301546003909301549192909160ff81169061010090046001600160801b031685565b60006117d86128d2565b6001600160a01b0383166000908152600e6020526040812060010154611804908463ffffffff613a4d16565b6001600160a01b0385166000908152600e6020526040902060010181905591505092915050565b670de0b6b3a764000081565b6002546001600160a01b031681565b6015818154811061185357fe5b6000918252602090912001546001600160a01b0316905081565b670f43fc2c04ee000081565b6000805460408051632f5a97e560e11b8152905183926001600160a01b031691635eb52fca916004808301926020929190829003018186803b1580156118be57600080fd5b505afa1580156118d2573d6000803e3d6000fd5b505050506040513d60208110156118e857600080fd5b505160015460408051632f5a97e560e11b815290519293506000926001600160a01b0390921691635eb52fca91600480820192602092909190829003018186803b15801561193557600080fd5b505afa158015611949573d6000803e3d6000fd5b505050506040513d602081101561195f57600080fd5b50519050611973828263ffffffff613a4d16565b9250505090565b60165481565b611988611e6a565b6119d9576040805162461bcd60e51b815260206004820181905260248201527f4f776e61626c653a2063616c6c6572206973206e6f7420746865206f776e6572604482015290519081900360640190fd5b6119e28b613aa7565b6119eb8a613aa7565b6119f489613aa7565b6119fd88613aa7565b611a0687613aa7565b611a0f86613aa7565b611a1885613aa7565b611a2184613aa7565b611a2a83613aa7565b611a3382613aa7565b611a3c81613aa7565b600480546001600160a01b03199081166001600160a01b038e81169182179093556000805483168e85161790556001805483168d85161790556005805483168c85161790556006805483168b85161790556007805483168a8516179055600280548316898516179055600880548316888516179055600b80548316878516179055600980548316868516179055600a805490921692841692909217905560408051918252517f3ca631ffcd2a9b5d9ae18543fc82f58eb4ca33af9e6ab01b7a8e95331e6ed985916020908290030190a1604080516001600160a01b038c16815290517f78f058b189175430c48dc02699e3a0031ea4ff781536dc2fab847de4babdd8829181900360200190a1604080516001600160a01b038b16815290517f5ee0cae2f063ed938bb55046f6a932fb6ae792bf43624806bb90abe68a50be9b9181900360200190a1604080516001600160a01b038a16815290517f82966d27eea39b038ee0fa30cd16532bb24f6e65d31cb58fb227aa5766cdcc7f9181900360200190a1604080516001600160a01b038916815290517fcfb07d791fcafc032b35837b50eb84b74df518cf4cc287e8084f47630fa70fa09181900360200190a1604080516001600160a01b038816815290517fe67f36a6e961157d6eff83b91f3af5a62131ceb6f04954ef74f51c1c05e7f88d9181900360200190a1604080516001600160a01b038716815290517f8c537274438aa850a330284665d81a85dd38267d09e4050d416bfc94142db2649181900360200190a1604080516001600160a01b038616815290517f227eec0ec317af6ab1a9587ffa1c84332522eb4c583a908f89babc05f8f339bd9181900360200190a1604080516001600160a01b038516815290517f65f4cf077bc01e4742eb5ad98326f6e95b63548ea24b17f8d5e823111fe788009181900360200190a1604080516001600160a01b038416815290517f2ac6e99201ddc1b6eac6f8f28662d1ecafee131f6eb98c29de54528a9888a7d19181900360200190a1604080516001600160a01b038316815290517f756ebc192164c295bba134b5aacd72cc7aff8098a670d1f0a5f6b3a0b4ce67079181900360200190a1611d6c613b56565b5050505050505050505050565b6000546001600160a01b031681565b60105481565b611d966128d2565b610c8881613ba0565b6000805460408051630a7b61df60e11b8152905183926001600160a01b0316916314f6c3be916004808301926020929190829003018186803b158015611de457600080fd5b505afa158015611df8573d6000803e3d6000fd5b505050506040513d6020811015611e0e57600080fd5b505160015460408051630a7b61df60e11b815290519293506000926001600160a01b03909216916314f6c3be91600480820192602092909190829003018186803b15801561193557600080fd5b6003546001600160a01b031690565b6003546001600160a01b0316331490565b60115481565b6000611e8b6128d2565b6001600160a01b0383166000908152600e6020526040812054610cbe908463ffffffff613a4d16565b60125481565b600a546001600160a01b031681565b600b546001600160a01b031681565b6000806000611ee684613c0b565b915091506000611ef68383613c91565b95945050505050565b6004546001600160a01b031681565b6000610cdd82613cc6565b6008546001600160a01b031681565b6001600160a01b0381166000908152600e602052604081208054600190910154909180611f5485612883565b9150611f5f85611278565b9050611f71848363ffffffff613a4d16565b9350611f83838263ffffffff613a4d16565b92509193509193565b611f94615584565b506040805160e0810182526000546001600160a01b03908116825260015481166020830152600854811692820192909252600a5482166060820152600b5482166080820152600754821660a082015260065490911660c0820152611ff66155c0565b611fff83613cf2565b612007613d4c565b600260009054906101000a90046001600160a01b03166001600160a01b0316630fdb11cf6040518163ffffffff1660e01b8152600401602060405180830381600087803b15801561205757600080fd5b505af115801561206b573d6000803e3d6000fd5b505050506040513d602081101561208157600080fd5b505160c0820181905261209390613e10565b61209c89613e5f565b6120ab8260400151338b613e9e565b6120b3611879565b60e0820181905260408084015181516370a0823160e01b815233600482015291516001600160a01b03909116916370a08231916024808301926020929190829003018186803b15801561210557600080fd5b505afa158015612119573d6000803e3d6000fd5b505050506040513d602081101561212f57600080fd5b5051111561213957fe5b888152608082015160c0820151600091612154918b90613f5e565b1561216057508761228a565b82608001516001600160a01b0316634d6228316040518163ffffffff1660e01b815260040160206040518083038186803b15801561219d57600080fd5b505afa1580156121b1573d6000803e3d6000fd5b505050506040513d60208110156121c757600080fd5b505190505b6001600160a01b038116158015906121f85750670f43fc2c04ee00006121f6828460c0015161276c565b105b1561228a5782608001516001600160a01b031663b72703ac826040518263ffffffff1660e01b815260040180826001600160a01b03166001600160a01b0316815260200191505060206040518083038186803b15801561225757600080fd5b505afa15801561226b573d6000803e3d6000fd5b505050506040513d602081101561228157600080fd5b505190506121cc565b846122955760001994505b6001600160a01b038116158015906122ad5750815115155b80156122b95750600085115b156123ed57848060019003955050600083608001516001600160a01b031663b72703ac836040518263ffffffff1660e01b815260040180826001600160a01b03166001600160a01b0316815260200191505060206040518083038186803b15801561232357600080fd5b505afa158015612337573d6000803e3d6000fd5b505050506040513d602081101561234d57600080fd5b505184516020860151919250612363918461291d565b61236b615605565b612382858486600001518760c001518e8e8e6140d1565b90508060400151156123955750506123ed565b805160208501516123ab9163ffffffff613a4d16565b60208086019190915281015160408501516123cb9163ffffffff613a4d16565b6040850152805184516123e39163ffffffff612a3f16565b8452509050612295565b60008260400151116124305760405162461bcd60e51b81526004018080602001828103825260298152602001806156b26029913960400191505060405180910390fd5b61244782604001518360c001518460e00151614384565b50612455826040015161442c565b60608301819052604083015161246c919086614439565b82600001516001600160a01b03166364a197f3846060015184606001516040518363ffffffff1660e01b815260040180836001600160a01b03166001600160a01b0316815260200182815260200192505050600060405180830381600087803b1580156124d857600080fd5b505af11580156124ec573d6000803e3d6000fd5b5050505082606001516001600160a01b0316631e3e2a1a83606001516040518263ffffffff1660e01b815260040180828152602001915050600060405180830381600087803b15801561253e57600080fd5b505af1158015612552573d6000803e3d6000fd5b505050506060820151604083015161256991612a3f565b8260800181815250507f43a3f4082a4dbc33d78e317d2497d3a730bc7fc3574159dcea1056e62e5d9ad88a8360200151846040015185606001516040518085815260200184815260200183815260200182815260200194505050505060405180910390a182604001516001600160a01b0316639dc29fac3384602001516040518363ffffffff1660e01b815260040180836001600160a01b03166001600160a01b0316815260200182815260200192505050600060405180830381600087803b15801561263557600080fd5b505af1158015612649573d6000803e3d6000fd5b5050505082600001516001600160a01b03166338d995a883602001516040518263ffffffff1660e01b815260040180828152602001915050600060405180830381600087803b15801561269b57600080fd5b505af11580156126af573d6000803e3d6000fd5b505084516080850151604080516364a197f360e01b81523360048201526024810192909252516001600160a01b0390921693506364a197f3925060448082019260009290919082900301818387803b15801561270a57600080fd5b505af115801561271e573d6000803e3d6000fd5b5050505050505050505050505050565b600f5481565b6212750081565b60006111526127486134c1565b61336a565b670ddd4b8c6c7d70d881565b6127616128d2565b610c888160026144ae565b600080600061277a85613c0b565b9150915060006113348383876145c7565b600d5481565b600061279b6128d2565b6001600160a01b0383166000908152600e6020526040812060010154611804908463ffffffff612a3f16565b6000610cdd6127d461273b565b836145f7565b6001600160a01b03166000908152600e602052604090205490565b60006015828154811061280457fe5b6000918252602090912001546001600160a01b031692915050565b60135481565b600060016001600160a01b0383166000908152600e602052604090206003015460ff16600481111561285357fe5b1461286057506000610d02565b506012546001600160a01b03821660009081526014602052604090205410919050565b6001600160a01b03811660009081526014602052604081206001015460135482906112a6908363ffffffff612a3f16565b6000611152600c54613a26565b6128c96128d2565b610c8881614656565b6004546001600160a01b0316331461291b5760405162461bcd60e51b815260040180806020018281038252603b8152602001806157d4603b913960400191505060405180910390fd5b565b61292681612825565b15612a3a57612934816133a0565b600061293f82611278565b9050600061294c83612883565b6001600160a01b0384166000908152600e602052604090206001015490915061297b908363ffffffff613a4d16565b6001600160a01b0384166000908152600e602052604090206001810191909155546129ac908263ffffffff613a4d16565b6001600160a01b0384166000908152600e60205260409020556129ce83613ba0565b6129da858583856146a6565b6001600160a01b0383166000818152600e602090815260408083208054600182015460029092015483519182529381019190915280820192909252606082019290925290516000805160206157b48339815191529181900360800190a250505b505050565b6000612a8183836040518060400160405280601e81526020017f536166654d6174683a207375627472616374696f6e206f766572666c6f7700008152506147a8565b9392505050565b601580546001808201835560008381527f55f448fdea98c4d29eb340757ef0a66cd03dbb9538908a6a81d96026b71ec47590920180546001600160a01b0319166001600160a01b03861617905591549091612ae39190612a3f565b6001600160a01b03929092166000908152600e602052604090206003018054610100600160881b0319166101006001600160801b038516021790555090565b6001600160a01b0381166000908152600e60205260408120600101548190612b499061483f565b6001600160a01b0384166000908152600e60205260409020600201805490829055600f5491925090612b93908390612b87908463ffffffff612a3f16565b9063ffffffff613a4d16565b600f81905560408051918252517f6bac5e0eb3c44eb03a60ab11ec3a2c051771616aecadbcfff2630aabae5203829181900360200190a15092915050565b600080612bdd83613cc6565b6714d1120d7b160000119392505050565b612bf6615538565b612bfe615628565b612c06615538565b84825260006080830152612c18611879565b60a0830152612c25611d9f565b60c0830152600060208301525b835182602001511015612dcc5783826020015181518110612c4f57fe5b60209081029190910101516001600160a01b031660608301819052612c74908761276c565b60408301526080820151612d5e57670f43fc2c04ee0000826040015110158015612c9d57508151155b15612ca757612dbc565b6000612cbc8360c001518460a00151896145c7565b9050612cd98989856060015186604001518760000151868d61487b565b60808101518451919350612cf3919063ffffffff612a3f16565b8352608082015160a0840151612d0e9163ffffffff612a3f16565b60a08085019190915282015160c0840151612d2e9163ffffffff612a3f16565b60c0840152612d3d8483614bae565b9350612d528360c001518460a0015189614cc5565b15608084015250612dbc565b81608001518015612d7a5750670f43fc2c04ee00008260400151105b15612dbc57612d93888884606001518560000151614ce6565b60808101518351919250612dad919063ffffffff612a3f16565b8252612db98382614bae565b92505b6020820180516001019052612c32565b505095945050505050565b612ddf615538565b612de7615628565b612def615538565b848252600060208301525b835182602001511015612dcc5783826020015181518110612e1757fe5b60209081029190910101516001600160a01b031660608301819052612e3c908761276c565b60408301819052670f43fc2c04ee00001115612e8f57612e66888884606001518560000151614ce6565b60808101518351919250612e80919063ffffffff612a3f16565b8252612e8c8382614bae565b92505b6020820180516001019052612dfa565b81612ea95761311a565b601654600090612ecb90612b8784670de0b6b3a764000063ffffffff61342616565b90506000612ef0601754612b87670de0b6b3a76400008761342690919063ffffffff16565b90506000612f09600f548461347f90919063ffffffff16565b90506000612f22600f548461347f90919063ffffffff16565b9050612f49612f3c600f548461342690919063ffffffff16565b859063ffffffff612a3f16565b601655600f54612f7190612f6490839063ffffffff61342616565b849063ffffffff612a3f16565b601755601254612f87908363ffffffff613a4d16565b601255601354612f9d908263ffffffff613a4d16565b601381905560125460408051918252602082019290925281517f9f8bc8ab0daf5bceef75ecfd2085d1fcc6548c657ea970d9a23a60610d0737e3929181900390910190a1876001600160a01b03166338d995a8876040518263ffffffff1660e01b815260040180828152602001915050600060405180830381600087803b15801561302757600080fd5b505af115801561303b573d6000803e3d6000fd5b50505050866001600160a01b031663cfb9329a876040518263ffffffff1660e01b815260040180828152602001915050600060405180830381600087803b15801561308557600080fd5b505af1158015613099573d6000803e3d6000fd5b50505050876001600160a01b03166364a197f388876040518363ffffffff1660e01b815260040180836001600160a01b03166001600160a01b0316815260200182815260200192505050600060405180830381600087803b1580156130fd57600080fd5b505af1158015613111573d6000803e3d6000fd5b50505050505050505b50505050565b600f546010819055506000826001600160a01b03166314f6c3be6040518163ffffffff1660e01b815260040160206040518083038186803b15801561316457600080fd5b505afa158015613178573d6000803e3d6000fd5b505050506040513d602081101561318e57600080fd5b505160015460408051630a7b61df60e11b815290519293506000926001600160a01b03909216916314f6c3be91600480820192602092909190829003018186803b1580156131db57600080fd5b505afa1580156131ef573d6000803e3d6000fd5b505050506040513d602081101561320557600080fd5b5051905061321d81612b87848663ffffffff612a3f16565b601181905560105460408051918252602082019290925281517f51bf4c63ec3cba9d03d43238abbdd979dd91bd16d9895c74ceea9118c7baaf60929181900390910190a150505050565b81156132e65760085460065460408051631062c15f60e11b81526001600160a01b039283166004820152868316602482015260448101869052905191909216916320c582be91606480830192600092919082900301818387803b1580156132cd57600080fd5b505af11580156132e1573d6000803e3d6000fd5b505050505b801561311a57836001600160a01b03166364a197f384836040518363ffffffff1660e01b815260040180836001600160a01b03166001600160a01b0316815260200182815260200192505050600060405180830381600087803b15801561334c57600080fd5b505af1158015613360573d6000803e3d6000fd5b5050505050505050565b6000610cdd613392836103e8670de0b6b3a76400005b04600502613a4d90919063ffffffff16565b670de0b6b3a7640000614e55565b60016001600160a01b0382166000908152600e602052604090206003015460ff1660048111156133cc57fe5b14610c885760405162461bcd60e51b815260040180806020018281038252602f815260200180615925602f913960400191505060405180910390fd5b6000612a81670de0b6b3a7640000611328858563ffffffff61342616565b60008261343557506000610cdd565b8282028284828161344257fe5b0414612a815760405162461bcd60e51b81526004018080602001828103825260218152602001806157456021913960400191505060405180910390fd5b6000612a8183836040518060400160405280601a81526020017f536166654d6174683a206469766973696f6e206279207a65726f000000000000815250614e6b565b6000806134cc614ed0565b905060006134e2670ddd4b8c6c7d70d883614eec565b9050611973670de0b6b3a764000061132883600c5461342690919063ffffffff16565b600061351c600d5442612a3f90919063ffffffff16565b9050603c8110610c885742600d81905560408051918252517f860f8d2f0c74dd487e89e2883e3b25b8159ce1e1b3433a291cba7b82c508f3bc9181900360200190a150565b613569615538565b613571615628565b613579615538565b8482526000608083015261358b611879565b60a0830152613598611d9f565b8260c001818152505086608001516001600160a01b0316634d6228316040518163ffffffff1660e01b815260040160206040518083038186803b1580156135de57600080fd5b505afa1580156135f2573d6000803e3d6000fd5b505050506040513d602081101561360857600080fd5b50516001600160a01b039081166060840152608088015160408051631e22314360e01b815290516000939290921691631e22314391600480820192602092909190829003018186803b15801561365d57600080fd5b505afa158015613671573d6000803e3d6000fd5b505050506040513d602081101561368757600080fd5b50516000602085015290505b8483602001511080156136bc5750806001600160a01b031683606001516001600160a01b031614155b156138e957600088608001516001600160a01b031663b72703ac85606001516040518263ffffffff1660e01b815260040180826001600160a01b03166001600160a01b0316815260200191505060206040518083038186803b15801561372157600080fd5b505afa158015613735573d6000803e3d6000fd5b505050506040513d602081101561374b57600080fd5b5051606085015190915061375f908961276c565b6040850152608084015161385b57670f43fc2c04ee000084604001511015801561378857508351155b1561379357506138e9565b60006137a88560c001518660a001518b6145c7565b8a5160208c01516060880151604089015189519495506137c994868f61487b565b608081015186519195506137e3919063ffffffff612a3f16565b8552608084015160a08601516137fe9163ffffffff612a3f16565b8560a001818152505061382b84610100015161105f8660a001518860c00151612a3f90919063ffffffff16565b60c086015261383a8685614bae565b955061384f8560c001518660a001518b614cc5565b156080860152506138cb565b836080015180156138775750670f43fc2c04ee00008460400151105b156138c55761389889600001518a6020015186606001518760000151614ce6565b608081015185519194506138b2919063ffffffff612a3f16565b84526138be8584614bae565b94506138cb565b506138e9565b6001600160a01b031660608401526020830180516001019052613693565b505050949350505050565b6138fc615538565b613904615628565b61390c615538565b600b54858352600060208401526001600160a01b03165b8483602001511015613a1a57806001600160a01b0316634d6228316040518163ffffffff1660e01b815260040160206040518083038186803b15801561396857600080fd5b505afa15801561397c573d6000803e3d6000fd5b505050506040513d602081101561399257600080fd5b50516001600160a01b0316606084018190526139ae908861276c565b60408401819052670f43fc2c04ee00001115613a05576139d8898985606001518660000151614ce6565b608081015184519193506139f2919063ffffffff612a3f16565b83526139fe8483614bae565b9350613a0a565b613a1a565b6020830180516001019052613923565b50505095945050505050565b6000610cdd613a40836103e8670de0b6b3a7640000613380565b66b1a2bc2ec50000614e55565b600082820183811015612a81576040805162461bcd60e51b815260206004820152601b60248201527f536166654d6174683a206164646974696f6e206f766572666c6f770000000000604482015290519081900360640190fd5b6001600160a01b038116613b02576040805162461bcd60e51b815260206004820152601e60248201527f4163636f756e742063616e6e6f74206265207a65726f20616464726573730000604482015290519081900360640190fd5b803b806111c6576040805162461bcd60e51b815260206004820181905260248201527f4163636f756e7420636f64652073697a652063616e6e6f74206265207a65726f604482015290519081900360640190fd5b6003546040516000916001600160a01b0316907f8be0079c531659141344cd1fd0a4f28419497f9722a3daafe3b4186f6b6457e0908390a3600380546001600160a01b0319169055565b601280546001600160a01b0383166000908152601460209081526040918290209283556013546001909301839055925481519081529283019190915280517fc437f324d85e369394148dd9d62f98f534b382e01ed3dd2eb98138fb6d3ab49a9281900390910190a150565b6000806000613c1984611278565b90506000613c2685612883565b6001600160a01b0386166000908152600e602052604081206001015491925090613c56908463ffffffff613a4d16565b6001600160a01b0387166000908152600e602052604081205491925090613c83908463ffffffff613a4d16565b919550909350505050915091565b60008115613cbd57613cb6826113288568056bc75e2d6310000063ffffffff61342616565b9050610cdd565b50600019610cdd565b600080613cd1611d9f565b90506000613cdd611879565b9050613cea8282866145c7565b949350505050565b6611c37937e080008110801590613d115750670de0b6b3a76400008111155b610c885760405162461bcd60e51b81526004018080602001828103825260308152602001806158a96030913960400191505060405180910390fd5b60095460408051631e425be160e11b815290516000926001600160a01b031691633c84b7c2916004808301926020929190829003018186803b158015613d9157600080fd5b505afa158015613da5573d6000803e3d6000fd5b505050506040513d6020811015613dbb57600080fd5b50519050613dd2816212750063ffffffff613a4d16565b421015610c885760405162461bcd60e51b81526004018080602001828103825260408152602001806157056040913960400191505060405180910390fd5b670f43fc2c04ee0000613e2282613cc6565b1015610c885760405162461bcd60e51b815260040180806020018281038252602a8152602001806158d9602a913960400191505060405180910390fd5b60008111610c885760405162461bcd60e51b815260040180806020018281038252602e815260200180615845602e913960400191505060405180910390fd5b80836001600160a01b03166370a08231846040518263ffffffff1660e01b815260040180826001600160a01b03166001600160a01b0316815260200191505060206040518083038186803b158015613ef557600080fd5b505afa158015613f09573d6000803e3d6000fd5b505050506040513d6020811015613f1f57600080fd5b50511015612a3a5760405162461bcd60e51b815260040180806020018281038252604e815260200180615766604e913960600191505060405180910390fd5b60006001600160a01b0383161580613ff55750836001600160a01b0316635dbe47e8846040518263ffffffff1660e01b815260040180826001600160a01b03166001600160a01b0316815260200191505060206040518083038186803b158015613fc757600080fd5b505afa158015613fdb573d6000803e3d6000fd5b505050506040513d6020811015613ff157600080fd5b5051155b806140105750670f43fc2c04ee000061400e848461276c565b105b1561401d57506000612a81565b6000846001600160a01b031663765e0159856040518263ffffffff1660e01b815260040180826001600160a01b03166001600160a01b0316815260200191505060206040518083038186803b15801561407557600080fd5b505afa158015614089573d6000803e3d6000fd5b505050506040513d602081101561409f57600080fd5b505190506001600160a01b0381161580611ef65750670f43fc2c04ee00006140c7828561276c565b1095945050505050565b6140d9615605565b6001600160a01b0387166000908152600e6020526040902054614116908790614111906802b5e3af16b188000063ffffffff612a3f16565b614e55565b80825261413790869061132890670de0b6b3a764000063ffffffff61342616565b60208083019190915281516001600160a01b0389166000908152600e909252604082205461416a9163ffffffff612a3f16565b6020808401516001600160a01b038b166000908152600e909252604082206001015492935090916141a09163ffffffff612a3f16565b90506802b5e3af16b1880000821415614239576141bc89614656565b6141c78960046144ae565b6141dc8a8a6802b5e3af16b188000084614f97565b886001600160a01b03166000805160206157b4833981519152600080600060036040518085815260200184815260200183815260200182600381111561421e57fe5b60ff16815260200194505050505060405180910390a2614376565b60006142458284613c91565b9050848114158061426657506869b5afac750bb800006142648461514c565b105b1561427a5750506001604083015250614379565b60808b01516040805163015f109360e51b81526001600160a01b038d81166004830152602482018590528a81166044830152898116606483015291519190921691632be2126091608480830192600092919082900301818387803b1580156142e157600080fd5b505af11580156142f5573d6000803e3d6000fd5b5050506001600160a01b038b166000908152600e60205260409020848155600101839055506143238a612b22565b506001600160a01b038a166000818152600e6020908152604091829020600201548251878152918201869052818301526003606082015290516000805160206157b48339815191529181900360800190a2505b50505b979650505050505050565b60008061438f6134c1565b905060006143a784611328888863ffffffff61342616565b905060006143cc6143bf83600263ffffffff61347f16565b849063ffffffff613a4d16565b90506143e081670de0b6b3a7640000614e55565b9050600081116143ec57fe5b600c8190556040805182815290517fc454ee9b76c52f782a256af821b857ca6e125d1e3333bcede402fec2bed9600c9181900360200190a1611334613505565b6000610cdd6127d4611145565b60006144578361132886670de0b6b3a764000063ffffffff61342616565b90508181111561311a576040805162461bcd60e51b815260206004820152601d60248201527f4665652065786365656465642070726f7669646564206d6178696d756d000000604482015290519081900360640190fd5b60008160048111156144bc57fe5b141580156144d6575060018160048111156144d357fe5b14155b6144dc57fe5b6015546144e881615167565b6001600160a01b0383166000908152600e60205260409020600301805483919060ff1916600183600481111561451a57fe5b02179055506001600160a01b0383166000908152600e6020908152604080832060018082018590559084905560149092528220828155015561455c8382615220565b600b5460408051631484968760e11b81526001600160a01b038681166004830152915191909216916329092d0e91602480830192600092919082900301818387803b1580156145aa57600080fd5b505af11580156145be573d6000803e3d6000fd5b50505050505050565b600082156145ee5760006145e584611328878663ffffffff61342616565b9150612a819050565b50600019612a81565b600080614616670de0b6b3a7640000611328868663ffffffff61342616565b9050828110612a815760405162461bcd60e51b81526004018080602001828103825260368152602001806158736036913960400191505060405180910390fd5b6001600160a01b0381166000908152600e6020526040902060020154600f54614685908263ffffffff612a3f16565b600f55506001600160a01b03166000908152600e6020526040812060020155565b826001600160a01b03166338d995a8836040518263ffffffff1660e01b815260040180828152602001915050600060405180830381600087803b1580156146ec57600080fd5b505af1158015614700573d6000803e3d6000fd5b50505050836001600160a01b031663cfb9329a836040518263ffffffff1660e01b815260040180828152602001915050600060405180830381600087803b15801561474a57600080fd5b505af115801561475e573d6000803e3d6000fd5b50505050826001600160a01b031663be41205f826040518263ffffffff1660e01b815260040180828152602001915050600060405180830381600087803b15801561334c57600080fd5b600081848411156148375760405162461bcd60e51b81526004018080602001828103825283818151815260200191508051906020019080838360005b838110156147fc5781810151838201526020016147e4565b50505050905090810190601f1680156148295780820380516001836020036101000a031916815260200191505b509250505060405180910390fd5b505050900390565b60008060115460001415614854575081610cdd565b60006010541161486057fe5b612a816011546113286010548661342690919063ffffffff16565b614883615538565b61488b615670565b60155460011061489b5750614379565b6148a487611f28565b604085015260208481019190915284018190529083526148c3906153c7565b604083018190526802b5e3af16b1880000606084015260208301516148ed9163ffffffff612a3f16565b8152670de0b6b3a764000086116149f5576149128989836020015184604001516146a6565b61491b87614656565b60006080830181905260a0830152815160c0830152805160e08301526149428760036144ae565b866001600160a01b03166000805160206156928339815191528360000151846020015160026040518084815260200183815260200182600381111561498357fe5b60ff168152602001935050505060405180910390a2866001600160a01b03166000805160206157b483398151915260008060006002604051808581526020018481526020018381526020018260038111156149da57fe5b60ff16815260200194505050505060405180910390a2614ba2565b670de0b6b3a764000086118015614a135750670f43fc2c04ee000086105b15614a6357614a2c8989836020015184604001516146a6565b614a3587614656565b81518151614a449190876153ce565b60e086015260c085015260a084015260808301526149428760036144ae565b670f43fc2c04ee00008610158015614a7a57508386105b8015614a87575081518510155b15614b9157614aa08989836020015184604001516146a6565b84614aa757fe5b614ab087614656565b614ac3826000015183602001518561543a565b9150614ad08760036144ae565b61010082015115614b505760075461010083015160408051633f10abab60e01b81526001600160a01b038b81166004830152602482019390935290519190921691633f10abab91604480830192600092919082900301818387803b158015614b3757600080fd5b505af1158015614b4b573d6000803e3d6000fd5b505050505b866001600160a01b031660008051602061569283398151915283600001518460a0015160026040518084815260200183815260200182600381111561498357fe5b614b99615538565b91506143799050565b50979650505050505050565b614bb6615538565b60408083015190840151614bcf9163ffffffff613a4d16565b604082015260608083015190840151614bed9163ffffffff613a4d16565b606082015281516020840151614c089163ffffffff613a4d16565b6020808301919091528201518351614c259163ffffffff613a4d16565b815260808083015190840151614c409163ffffffff613a4d16565b608082015260a08083015190840151614c5e9163ffffffff613a4d16565b60a082015260c08083015190840151614c7c9163ffffffff613a4d16565b60c082015260e08083015190840151614c9a9163ffffffff613a4d16565b60e08201526101008083015190840151614cb99163ffffffff613a4d16565b61010082015292915050565b600080614cd38585856145c7565b6714d1120d7b1600001195945050505050565b614cee615538565b614cf6615670565b614cff84611f28565b60408501908152602085810192835286019290925291845290519051614d299188918891906146a6565b614d3284614656565b614d3f82602001516153c7565b604083018190526802b5e3af16b188000060608401526020830151600091614d6d919063ffffffff612a3f16565b9050614d7e836000015182866153ce565b60e087015260c086015260a08501526080840152614d9d8560036144ae565b846001600160a01b031660008051602061569283398151915284600001518560200151600160405180848152602001838152602001826003811115614dde57fe5b60ff168152602001935050505060405180910390a2846001600160a01b03166000805160206157b48339815191526000806000600160405180858152602001848152602001838152602001826003811115614e3557fe5b60ff16815260200194505050505060405180910390a25050949350505050565b6000818310614e645781612a81565b5090919050565b60008183614eba5760405162461bcd60e51b81526020600482018181528351602484015283519092839260449091019190850190808383600083156147fc5781810151838201526020016147e4565b506000838581614ec657fe5b0495945050505050565b6000611152603c611328600d5442612a3f90919063ffffffff16565b6000631f540500821115614f0257631f54050091505b81614f165750670de0b6b3a7640000610cdd565b670de0b6b3a764000083835b6001811115614f8d5760028106614f5757614f3d82836154d4565b9150614f5081600263ffffffff61347f16565b9050614f88565b614f6182846154d4565b9250614f6d82836154d4565b9150614f85600261132883600163ffffffff612a3f16565b90505b614f22565b61133482846154d4565b6040808501516006548251632770a7eb60e21b81526001600160a01b039182166004820152602481018690529251911691639dc29fac91604480830192600092919082900301818387803b158015614fee57600080fd5b505af1158015615002573d6000803e3d6000fd5b5050505083600001516001600160a01b03166338d995a8836040518263ffffffff1660e01b815260040180828152602001915050600060405180830381600087803b15801561505057600080fd5b505af1158015615064573d6000803e3d6000fd5b505050508360a001516001600160a01b0316633f10abab84836040518363ffffffff1660e01b815260040180836001600160a01b03166001600160a01b0316815260200182815260200192505050600060405180830381600087803b1580156150cc57600080fd5b505af11580156150e0573d6000803e3d6000fd5b5050505083600001516001600160a01b03166364a197f38560a00151836040518363ffffffff1660e01b815260040180836001600160a01b03166001600160a01b0316815260200182815260200192505050600060405180830381600087803b15801561334c57600080fd5b6000610cdd826802b5e3af16b188000063ffffffff612a3f16565b6001811180156151e55750600b546040805163de8fa43160e01b815290516001926001600160a01b03169163de8fa431916004808301926020929190829003018186803b1580156151b757600080fd5b505afa1580156151cb573d6000803e3d6000fd5b505050506040513d60208110156151e157600080fd5b5051115b610c885760405162461bcd60e51b815260040180806020018281038252602a8152602001806156db602a913960400191505060405180910390fd5b6001600160a01b0382166000908152600e602052604081206003015460ff169081600481111561524c57fe5b141580156152665750600181600481111561526357fe5b14155b61526c57fe5b6001600160a01b0383166000908152600e602052604081206003015461010090046001600160801b03169083906152a4826001612a3f565b905080836001600160801b031611156152b957fe5b6000601582815481106152c857fe5b600091825260209091200154601580546001600160a01b03909216925082916001600160801b0387169081106152fa57fe5b600091825260208083209190910180546001600160a01b0319166001600160a01b03948516179055918316808252600e83526040918290206003018054610100600160881b0319166101006001600160801b038a169081029190911790915582519182529281019290925280517f02b04ae5f7be9ca7c103293a2aa15f3c339d15d6eda53b721fef7b0e609c831a9281900390910190a1601580548061539c57fe5b600082815260209020810160001990810180546001600160a01b031916905501905550505050505050565b60c8900490565b60008080808415615424576153e38786614e55565b93506153f987611328888763ffffffff61342616565b925061540b878563ffffffff612a3f16565b915061541d868463ffffffff612a3f16565b9050615431565b5060009250829150859050845b93509350935093565b615442615538565b83815260208101839052600061546a8361132887670f43fc2c04ee000063ffffffff61342616565b9050615475816153c7565b604083018190526802b5e3af16b18800006060840152608083018690526154a390829063ffffffff612a3f16565b60a08301526154b8848263ffffffff612a3f16565b61010083015250600060c0820181905260e08201529392505050565b6000806154e7848463ffffffff61342616565b9050613cea670de0b6b3a7640000611328836706f05b59d3b20000613a4d565b6040518060a00160405280600081526020016000815260200160001515815260200160008152602001600081525090565b6040518061012001604052806000815260200160008152602001600081526020016000815260200160008152602001600081526020016000815260200160008152602001600081525090565b6040805160e081018252600080825260208201819052918101829052606081018290526080810182905260a0810182905260c081019190915290565b60405180610100016040528060008152602001600081526020016000815260200160008152602001600081526020016000815260200160008152602001600081525090565b604051806060016040528060008152602001600081526020016000151581525090565b6040518060e0016040528060008152602001600081526020016000815260200160006001600160a01b0316815260200160001515815260200160008152602001600081525090565b6040518060600160405280600081526020016000815260200160008152509056feea67486ed7ebe3eea8ab3390efd4a3c8aae48be5bea27df104a8af786c40843454726f76654d616e616765723a20556e61626c6520746f2072656465656d20616e7920616d6f756e7454726f76654d616e616765723a204f6e6c79206f6e652074726f766520696e207468652073797374656d54726f76654d616e616765723a20526564656d7074696f6e7320617265206e6f7420616c6c6f77656420647572696e6720626f6f747374726170207068617365536166654d6174683a206d756c7469706c69636174696f6e206f766572666c6f7754726f76654d616e616765723a2052657175657374656420726564656d7074696f6e20616d6f756e74206d757374206265203c3d20757365722773204c55534420746f6b656e2062616c616e6365c3770d654ed33aeea6bf11ac8ef05d02a6a04ed4686dd2f624d853bbec43cc8b54726f76654d616e616765723a2043616c6c6572206973206e6f742074686520426f72726f7765724f7065726174696f6e7320636f6e747261637454726f76654d616e616765723a2043616c6c646174612061646472657373206172726179206d757374206e6f7420626520656d70747954726f76654d616e616765723a20416d6f756e74206d7573742062652067726561746572207468616e207a65726f54726f76654d616e616765723a2046656520776f756c642065617420757020616c6c2072657475726e656420636f6c6c61746572616c4d6178206665652070657263656e74616765206d757374206265206265747765656e20302e352520616e64203130302554726f76654d616e616765723a2043616e6e6f742072656465656d207768656e20544352203c204d435254726f76654d616e616765723a206e6f7468696e6720746f206c697175696461746554726f76654d616e616765723a2054726f766520646f6573206e6f74206578697374206f7220697320636c6f736564a2646970667358221220b50d13af6f051699a65951341b0222adf92905b0dfde7a6b82d7f38710b2395364736f6c634300060b0033608060405234801561001057600080fd5b50600380546001600160a01b031916339081179091556040516000907f8be0079c531659141344cd1fd0a4f28419497f9722a3daafe3b4186f6b6457e0908290a361366e806100606000396000f3fe6080604052600436106101985760003560e01c8063741bef1a116100e25780638f32d59b116100855780638f32d59b146104f6578063a20baee614610414578063a3a640171461051f578063ae91875414610534578063b83f91a214610549578063c6a6cf201461055e578063ea9638bf146105a6578063f92d3433146105de57610198565b8063741bef1a14610429578063761ab22c1461043e578063794e572414610453578063795d26c3146104685780637f7dde4a1461047d578063860665b314610492578063887105d3146104cc5780638da5cb5b146104e157610198565b80634870dd9a1161014a5780634870dd9a146102be5780634ff81443146102d35780635530273c146102fd5780635733d58f1461033e57806368647db1146103535780636c37a4af146103815780636f0b0c1c146103ff57806372fe25aa1461041457610198565b806304491fa71461019d5780630e704d50146101e05780631184e5f8146101f55780631bf435551461023c5780632e86bbd8146102635780633cc74225146102785780633d83908a146102a9575b600080fd5b3480156101a957600080fd5b506101de600480360360608110156101c057600080fd5b508035906001600160a01b03602082013581169160400135166105f3565b005b3480156101ec57600080fd5b506101de61060a565b34801561020157600080fd5b506101de6004803603608081101561021857600080fd5b508035906020810135906001600160a01b0360408201358116916060013516610a05565b34801561024857600080fd5b50610251610a1c565b60408051918252519081900360200190f35b34801561026f57600080fd5b50610251610a29565b34801561028457600080fd5b5061028d610a36565b604080516001600160a01b039092168252519081900360200190f35b3480156102b557600080fd5b5061028d610a45565b3480156102ca57600080fd5b50610251610a54565b3480156102df57600080fd5b50610251600480360360208110156102f657600080fd5b5035610a59565b34801561030957600080fd5b506101de6004803603606081101561032057600080fd5b508035906001600160a01b0360208201358116916040013516610a6a565b34801561034a57600080fd5b50610251610a7b565b6101de6004803603604081101561036957600080fd5b506001600160a01b0381358116916020013516610a87565b34801561038d57600080fd5b506101de60048036036101408110156103a557600080fd5b506001600160a01b038135811691602081013582169160408201358116916060810135821691608082013581169160a081013582169160c082013581169160e0810135821691610100820135811691610120013516610a9d565b34801561040b57600080fd5b506101de610e4e565b34801561042057600080fd5b50610251610eae565b34801561043557600080fd5b5061028d610eba565b34801561044a57600080fd5b5061028d610ec9565b34801561045f57600080fd5b50610251610ed8565b34801561047457600080fd5b50610251610ee4565b34801561048957600080fd5b5061028d610fe5565b6101de600480360360808110156104a857600080fd5b508035906020810135906001600160a01b0360408201358116916060013516610ff4565b3480156104d857600080fd5b50610251611629565b3480156104ed57600080fd5b5061028d6116e5565b34801561050257600080fd5b5061050b6116f4565b604080519115158252519081900360200190f35b34801561052b57600080fd5b5061028d611705565b34801561054057600080fd5b5061028d611714565b34801561055557600080fd5b5061028d611723565b6101de600480360360c081101561057457600080fd5b5080359060208101359060408101359060608101351515906001600160a01b03608082013581169160a0013516611732565b6101de600480360360608110156105bc57600080fd5b506001600160a01b038135811691602081013582169160409091013516611749565b3480156105ea57600080fd5b50610251611763565b6106053360008560008686600061176e565b505050565b600454600054600a546001600160a01b0392831692918216911661062e8333611d6b565b60025460408051630fdb11cf60e01b815290516000926001600160a01b031691630fdb11cf91600480830192602092919082900301818787803b15801561067457600080fd5b505af1158015610688573d6000803e3d6000fd5b505050506040513d602081101561069e57600080fd5b505190506106ab81611e30565b60408051630b07655760e01b815233600482015290516001600160a01b03861691630b07655791602480830192600092919082900301818387803b1580156106f257600080fd5b505af1158015610706573d6000803e3d6000fd5b5050604080516309019aaf60e31b81523360048201529051600093506001600160a01b038816925063480cd57891602480820192602092909190829003018186803b15801561075457600080fd5b505afa158015610768573d6000803e3d6000fd5b505050506040513d602081101561077e57600080fd5b50516040805163d66a255360e01b815233600482015290519192506000916001600160a01b0388169163d66a2553916024808301926020929190829003018186803b1580156107cc57600080fd5b505afa1580156107e0573d6000803e3d6000fd5b505050506040513d60208110156107f657600080fd5b5051905061081d8433610818846802b5e3af16b188000063ffffffff611e7816565b611ec1565b600061082e83600084600088611f81565b90506108398161200c565b60408051631fc5750960e31b815233600482015290516001600160a01b0389169163fe2ba84891602480830192600092919082900301818387803b15801561088057600080fd5b505af1158015610894573d6000803e3d6000fd5b5050604080516365e89c5760e11b815233600482015290516001600160a01b038b16935063cbd138ae9250602480830192600092919082900301818387803b1580156108df57600080fd5b505af11580156108f3573d6000803e3d6000fd5b50505050336001600160a01b031660008051602061340a833981519152600080600060016040518085815260200184815260200183815260200182600281111561093957fe5b60ff16815260200194505050505060405180910390a261097386863361096e866802b5e3af16b188000063ffffffff611e7816565b612053565b60065461099690879087906001600160a01b03166802b5e3af16b1880000612053565b604080516364a197f360e01b81523360048201526024810185905290516001600160a01b038816916364a197f391604480830192600092919082900301818387803b1580156109e457600080fd5b505af11580156109f8573d6000803e3d6000fd5b5050505050505050505050565b610a1633600085600186868a61176e565b50505050565b6869b5afac750bb8000081565b6802b5e3af16b188000081565b6001546001600160a01b031681565b6004546001600160a01b031681565b60c881565b6000610a648261212f565b92915050565b61060533846000808686600061176e565b6714d1120d7b16000081565b610a993360008060008686600061176e565b5050565b610aa56116f4565b610af6576040805162461bcd60e51b815260206004820181905260248201527f4f776e61626c653a2063616c6c6572206973206e6f7420746865206f776e6572604482015290519081900360640190fd5b610aff8a61214a565b610b088961214a565b610b118861214a565b610b1a8761214a565b610b238661214a565b610b2c8561214a565b610b358461214a565b610b3e8361214a565b610b478261214a565b610b508161214a565b600480546001600160a01b03199081166001600160a01b038d81169182179093556000805483168d85161790556001805483168c85161790556005805483168b85161790556006805483168a8516179055600780548316898516179055600280548316888516179055600b80548316878516179055600a80548316868516179055600980548316938516938417905560088054909216909217905560408051918252517f143219c9e69b09e07e095fcc889b43d8f46ca892bba65f08dc3a0050869a5678916020908290030190a1604080516001600160a01b038b16815290517f78f058b189175430c48dc02699e3a0031ea4ff781536dc2fab847de4babdd8829181900360200190a1604080516001600160a01b038a16815290517f5ee0cae2f063ed938bb55046f6a932fb6ae792bf43624806bb90abe68a50be9b9181900360200190a1604080516001600160a01b038916815290517f82966d27eea39b038ee0fa30cd16532bb24f6e65d31cb58fb227aa5766cdcc7f9181900360200190a1604080516001600160a01b038816815290517fcfb07d791fcafc032b35837b50eb84b74df518cf4cc287e8084f47630fa70fa09181900360200190a1604080516001600160a01b038716815290517fe67f36a6e961157d6eff83b91f3af5a62131ceb6f04954ef74f51c1c05e7f88d9181900360200190a1604080516001600160a01b038616815290517f8c537274438aa850a330284665d81a85dd38267d09e4050d416bfc94142db2649181900360200190a1604080516001600160a01b038516815290517f65f4cf077bc01e4742eb5ad98326f6e95b63548ea24b17f8d5e823111fe788009181900360200190a1604080516001600160a01b038416815290517f227eec0ec317af6ab1a9587ffa1c84332522eb4c583a908f89babc05f8f339bd9181900360200190a1604080516001600160a01b038316815290517f756ebc192164c295bba134b5aacd72cc7aff8098a670d1f0a5f6b3a0b4ce67079181900360200190a1610e426121f9565b50505050505050505050565b6007546040805163b32beb5b60e01b815233600482015290516001600160a01b039092169163b32beb5b9160248082019260009290919082900301818387803b158015610e9a57600080fd5b505af1158015610a16573d6000803e3d6000fd5b670de0b6b3a764000081565b6002546001600160a01b031681565b6009546001600160a01b031681565b670f43fc2c04ee000081565b6000805460408051632f5a97e560e11b8152905183926001600160a01b031691635eb52fca916004808301926020929190829003018186803b158015610f2957600080fd5b505afa158015610f3d573d6000803e3d6000fd5b505050506040513d6020811015610f5357600080fd5b505160015460408051632f5a97e560e11b815290519293506000926001600160a01b0390921691635eb52fca91600480820192602092909190829003018186803b158015610fa057600080fd5b505afa158015610fb4573d6000803e3d6000fd5b505050506040513d6020811015610fca57600080fd5b50519050610fde828263ffffffff61224316565b9250505090565b6000546001600160a01b031681565b610ffc61315d565b50604080516060810182526004546001600160a01b03908116825260005481166020830152600a54169181019190915261103461317d565b600260009054906101000a90046001600160a01b03166001600160a01b0316630fdb11cf6040518163ffffffff1660e01b8152600401602060405180830381600087803b15801561108457600080fd5b505af1158015611098573d6000803e3d6000fd5b505050506040513d60208110156110ae57600080fd5b50518082526000906110bf9061229d565b90506110cb87826122ba565b82516110d79033612366565b6040820186905280611118576110f783600001518460400151888a612442565b6020830181905260408301516111129163ffffffff61224316565b60408301525b61112582604001516125f2565b611132826040015161212f565b6060830181905261113f57fe5b611152348360600151846000015161263a565b60808301526060820151611167903490612678565b60a083015280156111845761117f82608001516126ad565b6111b7565b61119182608001516126f4565b60006111aa346001856060015160018760000151611f81565b90506111b58161200c565b505b825160408051635d6b480f60e01b81523360048201526001602482015290516001600160a01b0390921691635d6b480f9160448082019260009290919082900301818387803b15801561120957600080fd5b505af115801561121d573d6000803e3d6000fd5b50508451604080516372423c1760e01b815233600482015234602482015290516001600160a01b0390921693506372423c1792506044808201926020929091908290030181600087803b15801561127357600080fd5b505af1158015611287573d6000803e3d6000fd5b505050506040513d602081101561129d57600080fd5b50508251606083015160408051639976cf4560e01b81523360048201526024810192909252516001600160a01b0390921691639976cf45916044808201926020929091908290030181600087803b1580156112f757600080fd5b505af115801561130b573d6000803e3d6000fd5b505050506040513d602081101561132157600080fd5b50508251604080516382fe3eb960e01b815233600482015290516001600160a01b03909216916382fe3eb99160248082019260009290919082900301818387803b15801561136e57600080fd5b505af1158015611382573d6000803e3d6000fd5b5050845160408051630c7940bd60e11b815233600482015290516001600160a01b0390921693506318f2817a92506024808201926020929091908290030181600087803b1580156113d257600080fd5b505af11580156113e6573d6000803e3d6000fd5b505050506040513d60208110156113fc57600080fd5b505160c0830152600b5460a0830151604080516346f7cf8760e01b815233600482015260248101929092526001600160a01b038881166044840152878116606484015290519216916346f7cf879160848082019260009290919082900301818387803b15801561146b57600080fd5b505af115801561147f573d6000803e3d6000fd5b50508451604080516315d549f160e01b815233600482015290516001600160a01b0390921693506315d549f192506024808201926020929091908290030181600087803b1580156114cf57600080fd5b505af11580156114e3573d6000803e3d6000fd5b505050506040513d60208110156114f957600080fd5b505160e08301819052604080519182525133917f59cfd0cd754bc5748b6770e94a4ffa5f678d885cb899dcfadc5734edb97c67ab919081900360200190a261154583602001513461273b565b61155e83602001518460400151338986604001516127cb565b6020830151604084015160065461158a9291906001600160a01b03166802b5e3af16b1880000806127cb565b336001600160a01b031660008051602061340a8339815191528360600151348560c001516000604051808581526020018481526020018381526020018260028111156115d257fe5b60ff16815260200194505050505060405180910390a2602080830151604080519182525133927fa55c5f48fd29482ad55f4b59bf070cd1ac1a7132a31f7a136ebe8877ae37e1ff928290030190a250505050505050565b6000805460408051630a7b61df60e11b8152905183926001600160a01b0316916314f6c3be916004808301926020929190829003018186803b15801561166e57600080fd5b505afa158015611682573d6000803e3d6000fd5b505050506040513d602081101561169857600080fd5b505160015460408051630a7b61df60e11b815290519293506000926001600160a01b03909216916314f6c3be91600480820192602092909190829003018186803b158015610fa057600080fd5b6003546001600160a01b031690565b6003546001600160a01b0316331490565b6008546001600160a01b031681565b600b546001600160a01b031681565b600a546001600160a01b031681565b6117413386868686868c61176e565b505050505050565b6117516128a8565b6106058360008060008686600061176e565b6611c37937e0800081565b61177661315d565b50604080516060810182526004546001600160a01b03908116825260005481166020830152600a5416918101919091526117ae6131c2565b600260009054906101000a90046001600160a01b03166001600160a01b0316630fdb11cf6040518163ffffffff1660e01b8152600401602060405180830381600087803b1580156117fe57600080fd5b505af1158015611812573d6000803e3d6000fd5b505050506040513d602081101561182857600080fd5b50518082526000906118399061229d565b905086156118545761184b84826122ba565b611854886128f3565b61185d89612932565b6118678989612978565b8251611873908b611d6b565b336001600160a01b038b1614806118a957506005546001600160a01b03163314801561189f5750600034115b80156118a9575087155b6118af57fe5b82600001516001600160a01b0316630b0765578b6040518263ffffffff1660e01b815260040180826001600160a01b03166001600160a01b03168152602001915050600060405180830381600087803b15801561190b57600080fd5b505af115801561191f573d6000803e3d6000fd5b5050505061192d348a6129ca565b1515606084015260208301526040820188905286801561194b575080155b1561198657611964836000015184604001518a87612442565b610120830181905260408301516119809163ffffffff61224316565b60408301525b82600001516001600160a01b031663d66a25538b6040518263ffffffff1660e01b815260040180826001600160a01b03166001600160a01b0316815260200191505060206040518083038186803b1580156119e057600080fd5b505afa1580156119f4573d6000803e3d6000fd5b505050506040513d6020811015611a0a57600080fd5b505160808301528251604080516309019aaf60e31b81526001600160a01b038d811660048301529151919092169163480cd578916024808301926020929190829003018186803b158015611a5d57600080fd5b505afa158015611a71573d6000803e3d6000fd5b505050506040513d6020811015611a8757600080fd5b505160a0830181905260808301518351611aa292919061263a565b8260c0018181525050611ad28260a0015183608001518460200151856060015186604001518c88600001516129e9565b60e083015260a0820151891115611ae557fe5b611af1818a8985612a1c565b86158015611aff5750600088115b15611b5257611b2d611b288360400151611b1c8560800151612a90565b9063ffffffff611e7816565b6125f2565b611b3f82608001518360400151612aab565b611b5283604001518b8460400151611ec1565b611b7083600001518b8460200151856060015186604001518c612b02565b610140840152610160830152825160408051630c7940bd60e11b81526001600160a01b038d81166004830152915191909216916318f2817a9160248083019260209291908290030181600087803b158015611bca57600080fd5b505af1158015611bde573d6000803e3d6000fd5b505050506040513d6020811015611bf457600080fd5b505161018083015260a08201516080830151602084015160608501516040860151600094611c28949093909290918d612d62565b600b546040805163015f109360e51b81526001600160a01b038f81166004830152602482018590528b811660448301528a811660648301529151939450911691632be212609160848082019260009290919082900301818387803b158015611c8f57600080fd5b505af1158015611ca3573d6000803e3d6000fd5b505050508a6001600160a01b031660008051602061340a833981519152846101400151856101600151866101800151600260405180858152602001848152602001838152602001826002811115611cf657fe5b60ff16815260200194505050505060405180910390a2610120830151604080519182525133917fa55c5f48fd29482ad55f4b59bf070cd1ac1a7132a31f7a136ebe8877ae37e1ff919081900360200190a26109f88460200151856040015133866020015187606001518e8e8a60400151612d93565b6000826001600160a01b03166321e37801836040518263ffffffff1660e01b815260040180826001600160a01b03166001600160a01b0316815260200191505060206040518083038186803b158015611dc357600080fd5b505afa158015611dd7573d6000803e3d6000fd5b505050506040513d6020811015611ded57600080fd5b50519050600181146106055760405162461bcd60e51b815260040180806020018281038252602e8152602001806133dc602e913960400191505060405180910390fd5b611e398161229d565b15611e755760405162461bcd60e51b815260040180806020018281038252603981526020018061328a6039913960400191505060405180910390fd5b50565b6000611eba83836040518060400160405280601e81526020017f536166654d6174683a207375627472616374696f6e206f766572666c6f770000815250612e4e565b9392505050565b80836001600160a01b03166370a08231846040518263ffffffff1660e01b815260040180826001600160a01b03166001600160a01b0316815260200191505060206040518083038186803b158015611f1857600080fd5b505afa158015611f2c573d6000803e3d6000fd5b505050506040513d6020811015611f4257600080fd5b505110156106055760405162461bcd60e51b815260040180806020018281038252603d815260200180613468603d913960400191505060405180910390fd5b600080611f8c611629565b90506000611f98610ee4565b905086611fb457611faf828963ffffffff611e7816565b611fc4565b611fc4828963ffffffff61224316565b915084611fe057611fdb818763ffffffff611e7816565b611ff0565b611ff0818763ffffffff61224316565b90506000611fff83838761263a565b9998505050505050505050565b6714d1120d7b160000811015611e755760405162461bcd60e51b81526004018080602001828103825260498152602001806133936049913960600191505060405180910390fd5b836001600160a01b03166338d995a8826040518263ffffffff1660e01b815260040180828152602001915050600060405180830381600087803b15801561209957600080fd5b505af11580156120ad573d6000803e3d6000fd5b50505050826001600160a01b0316639dc29fac83836040518363ffffffff1660e01b815260040180836001600160a01b03166001600160a01b0316815260200182815260200192505050600060405180830381600087803b15801561211157600080fd5b505af1158015612125573d6000803e3d6000fd5b5050505050505050565b6000610a64826802b5e3af16b188000063ffffffff61224316565b6001600160a01b0381166121a5576040805162461bcd60e51b815260206004820152601e60248201527f4163636f756e742063616e6e6f74206265207a65726f20616464726573730000604482015290519081900360640190fd5b803b80610a99576040805162461bcd60e51b815260206004820181905260248201527f4163636f756e7420636f64652073697a652063616e6e6f74206265207a65726f604482015290519081900360640190fd5b6003546040516000916001600160a01b0316907f8be0079c531659141344cd1fd0a4f28419497f9722a3daafe3b4186f6b6457e0908390a3600380546001600160a01b0319169055565b600082820183811015611eba576040805162461bcd60e51b815260206004820152601b60248201527f536166654d6174683a206164646974696f6e206f766572666c6f770000000000604482015290519081900360640190fd5b6000806122a983612ee5565b6714d1120d7b160000119392505050565b801561230c57670de0b6b3a76400008211156123075760405162461bcd60e51b81526004018080602001828103825260328152602001806132fa6032913960400191505060405180910390fd5b610a99565b6611c37937e08000821080159061232b5750670de0b6b3a76400008211155b610a995760405162461bcd60e51b81526004018080602001828103825260308152602001806135946030913960400191505060405180910390fd5b6000826001600160a01b03166321e37801836040518263ffffffff1660e01b815260040180826001600160a01b03166001600160a01b0316815260200191505060206040518083038186803b1580156123be57600080fd5b505afa1580156123d2573d6000803e3d6000fd5b505050506040513d60208110156123e857600080fd5b505190506001811415610605576040805162461bcd60e51b815260206004820152601c60248201527f426f72726f7765724f70733a2054726f76652069732061637469766500000000604482015290519081900360640190fd5b6000846001600160a01b0316635dba4c4a6040518163ffffffff1660e01b8152600401600060405180830381600087803b15801561247f57600080fd5b505af1158015612493573d6000803e3d6000fd5b505050506000856001600160a01b031663631203b0856040518263ffffffff1660e01b81526004018082815260200191505060206040518083038186803b1580156124dd57600080fd5b505afa1580156124f1573d6000803e3d6000fd5b505050506040513d602081101561250757600080fd5b50519050612516818585612f11565b60085460408051634677ffb360e01b81526004810184905290516001600160a01b0390921691634677ffb39160248082019260009290919082900301818387803b15801561256357600080fd5b505af1158015612577573d6000803e3d6000fd5b5050600954604080516340c10f1960e01b81526001600160a01b03928316600482015260248101869052905191891693506340c10f19925060448082019260009290919082900301818387803b1580156125d057600080fd5b505af11580156125e4573d6000803e3d6000fd5b509298975050505050505050565b6869b5afac750bb80000811015611e755760405162461bcd60e51b815260040180806020018281038252603a8152602001806134ee603a913960400191505060405180910390fd5b6000821561266d57600061266484612658878663ffffffff612f8616565b9063ffffffff612fdf16565b9150611eba9050565b506000199392505050565b600081156126a45761269d826126588568056bc75e2d6310000063ffffffff612f8616565b9050610a64565b50600019610a64565b6714d1120d7b160000811015611e755760405162461bcd60e51b81526004018080602001828103825260378152602001806132c36037913960400191505060405180910390fd5b670f43fc2c04ee0000811015611e755760405162461bcd60e51b81526004018080602001828103825260498152602001806134a56049913960600191505060405180910390fd5b6040516000906001600160a01b0384169083908381818185875af1925050503d8060008114612786576040519150601f19603f3d011682016040523d82523d6000602084013e61278b565b606091505b50509050806106055760405162461bcd60e51b815260040180806020018281038252602d81526020018061322d602d913960400191505060405180910390fd5b846001600160a01b031663cfb9329a826040518263ffffffff1660e01b815260040180828152602001915050600060405180830381600087803b15801561281157600080fd5b505af1158015612825573d6000803e3d6000fd5b50505050836001600160a01b03166340c10f1984846040518363ffffffff1660e01b815260040180836001600160a01b03166001600160a01b0316815260200182815260200192505050600060405180830381600087803b15801561288957600080fd5b505af115801561289d573d6000803e3d6000fd5b505050505050505050565b6005546001600160a01b031633146128f15760405162461bcd60e51b815260040180806020018281038252602981526020018061356b6029913960400191505060405180910390fd5b565b60008111611e755760405162461bcd60e51b81526004018080602001828103825260378152602001806135c46037913960400191505060405180910390fd5b34158061293d575080155b611e755760405162461bcd60e51b815260040180806020018281038252603081526020018061325a6030913960400191505060405180910390fd5b3415158061298557508115155b8061298f57508015155b610a995760405162461bcd60e51b815260040180806020018281038252604681526020018061332c6046913960600191505060405180910390fd5b60008083156129de575082905060016129e2565b8291505b9250929050565b60008060006129fc8a8a8a8a8a8a613021565b915091506000612a0d83838761263a565b9b9a5050505050505050505050565b8315612a5557612a2b8361307c565b8115612a5057612a3e8160e001516126ad565b612a508160e001518260c001516130b9565b610a16565b612a628160e001516126f4565b612a7f816020015182606001518360400151858560000151611f81565b6101008201819052610a169061200c565b6000610a64826802b5e3af16b188000063ffffffff611e7816565b612ac4826802b5e3af16b188000063ffffffff611e7816565b811115610a995760405162461bcd60e51b81526004018080602001828103825260438152602001806135286043913960600191505060405180910390fd5b600080600085612b9d57886001600160a01b031663d3d6f84389896040518363ffffffff1660e01b815260040180836001600160a01b03166001600160a01b0316815260200182815260200192505050602060405180830381600087803b158015612b6c57600080fd5b505af1158015612b80573d6000803e3d6000fd5b505050506040513d6020811015612b9657600080fd5b5051612c2a565b886001600160a01b03166372423c1789896040518363ffffffff1660e01b815260040180836001600160a01b03166001600160a01b0316815260200182815260200192505050602060405180830381600087803b158015612bfd57600080fd5b505af1158015612c11573d6000803e3d6000fd5b505050506040513d6020811015612c2757600080fd5b50515b9050600084612cc457896001600160a01b03166312610e928a886040518363ffffffff1660e01b815260040180836001600160a01b03166001600160a01b0316815260200182815260200192505050602060405180830381600087803b158015612c9357600080fd5b505af1158015612ca7573d6000803e3d6000fd5b505050506040513d6020811015612cbd57600080fd5b5051612d51565b896001600160a01b0316639976cf458a886040518363ffffffff1660e01b815260040180836001600160a01b03166001600160a01b0316815260200182815260200192505050602060405180830381600087803b158015612d2457600080fd5b505af1158015612d38573d6000803e3d6000fd5b505050506040513d6020811015612d4e57600080fd5b50515b919a91995090975050505050505050565b6000806000612d75898989898989613021565b915091506000612d858383612678565b9a9950505050505050505050565b8115612dab57612da688888886856127cb565b612db7565b612db788888886612053565b8315612dcc57612dc7888661273b565b612125565b876001600160a01b03166364a197f387876040518363ffffffff1660e01b815260040180836001600160a01b03166001600160a01b0316815260200182815260200192505050600060405180830381600087803b158015612e2c57600080fd5b505af1158015612e40573d6000803e3d6000fd5b505050505050505050505050565b60008184841115612edd5760405162461bcd60e51b81526004018080602001828103825283818151815260200191508051906020019080838360005b83811015612ea2578181015183820152602001612e8a565b50505050905090810190601f168015612ecf5780820380516001836020036101000a031916815260200191505b509250505060405180910390fd5b505050900390565b600080612ef0611629565b90506000612efc610ee4565b9050612f0982828661263a565b949350505050565b6000612f2f8361265886670de0b6b3a764000063ffffffff612f8616565b905081811115610a16576040805162461bcd60e51b815260206004820152601d60248201527f4665652065786365656465642070726f7669646564206d6178696d756d000000604482015290519081900360640190fd5b600082612f9557506000610a64565b82820282848281612fa257fe5b0414611eba5760405162461bcd60e51b81526004018080602001828103825260218152602001806133726021913960400191505060405180910390fd5b6000611eba83836040518060400160405280601a81526020017f536166654d6174683a206469766973696f6e206279207a65726f0000000000008152506130f8565b6000808787866130405761303b8a8963ffffffff611e7816565b613050565b6130508a8963ffffffff61224316565b91508461306c57613067898763ffffffff611e7816565b612d51565b612d51898763ffffffff61224316565b8015611e755760405162461bcd60e51b815260040180806020018281038252603e81526020018061342a603e913960400191505060405180910390fd5b80821015610a995760405162461bcd60e51b815260040180806020018281038252603e8152602001806135fb603e913960400191505060405180910390fd5b600081836131475760405162461bcd60e51b8152602060048201818152835160248401528351909283926044909101919085019080838360008315612ea2578181015183820152602001612e8a565b50600083858161315357fe5b0495945050505050565b604080516060810182526000808252602082018190529181019190915290565b60405180610100016040528060008152602001600081526020016000815260200160008152602001600081526020016000815260200160008152602001600081525090565b604051806101a00160405280600081526020016000815260200160008152602001600015158152602001600081526020016000815260200160008152602001600081526020016000815260200160008152602001600081526020016000815260200160008152509056fe426f72726f7765724f70733a2053656e64696e672045544820746f20416374697665506f6f6c206661696c6564426f72726f7765724f7065726174696f6e733a2043616e6e6f7420776974686472617720616e642061646420636f6c6c426f72726f7765724f70733a204f7065726174696f6e206e6f74207065726d697474656420647572696e67205265636f76657279204d6f6465426f72726f7765724f70733a204f7065726174696f6e206d757374206c656176652074726f7665207769746820494352203e3d204343524d6178206665652070657263656e74616765206d757374206c657373207468616e206f7220657175616c20746f2031303025426f72726f7765724f70733a205468657265206d75737420626520656974686572206120636f6c6c61746572616c206368616e6765206f7220612064656274206368616e6765536166654d6174683a206d756c7469706c69636174696f6e206f766572666c6f77426f72726f7765724f70733a20416e206f7065726174696f6e207468617420776f756c6420726573756c7420696e20544352203c20434352206973206e6f74207065726d6974746564426f72726f7765724f70733a2054726f766520646f6573206e6f74206578697374206f7220697320636c6f736564c3770d654ed33aeea6bf11ac8ef05d02a6a04ed4686dd2f624d853bbec43cc8b426f72726f7765724f70733a20436f6c6c61746572616c207769746864726177616c206e6f74207065726d6974746564205265636f76657279204d6f6465426f72726f7765724f70733a2043616c6c657220646f65736e74206861766520656e6f756768204c55534420746f206d616b652072657061796d656e74426f72726f7765724f70733a20416e206f7065726174696f6e207468617420776f756c6420726573756c7420696e20494352203c204d4352206973206e6f74207065726d6974746564426f72726f7765724f70733a2054726f76652773206e65742064656274206d7573742062652067726561746572207468616e206d696e696d756d426f72726f7765724f70733a20416d6f756e7420726570616964206d757374206e6f74206265206c6172676572207468616e207468652054726f766527732064656274426f72726f7765724f70733a2043616c6c6572206973206e6f742053746162696c69747920506f6f6c4d6178206665652070657263656e74616765206d757374206265206265747765656e20302e352520616e642031303025426f72726f7765724f70733a204465627420696e637265617365207265717569726573206e6f6e2d7a65726f20646562744368616e6765426f72726f7765724f70733a2043616e6e6f7420646563726561736520796f75722054726f766527732049435220696e205265636f76657279204d6f6465a26469706673582212205b75d041b00c33215e000356b2fe2a63df922d37be9d4dfc203c5f861eac7ff364736f6c634300060b0033608060405234801561001057600080fd5b50600080546001600160a01b0319163390811782556040519091907f8be0079c531659141344cd1fd0a4f28419497f9722a3daafe3b4186f6b6457e0908290a3610b028061005f6000396000f3fe6080604052600436106100ab5760003560e01c806364a197f31161006457806364a197f3146102025780638da5cb5b1461023b5780638f32d59b14610250578063aac1846f14610279578063b7f8cf9b1461028e578063cfb9329a146102a357610104565b80630b622ab21461010957806314f6c3be1461013a57806338d995a8146101615780634a945f8d1461018d5780635a4d28bb146101d85780635eb52fca146101ed57610104565b36610104576100b86102cd565b6005546100cb903463ffffffff61032d16565b600581905560408051918252517fca232b5abb988c540b959ff6c3bfae3e97fff964fd098c508f9613c0a6bf1a809181900360200190a1005b600080fd5b34801561011557600080fd5b5061011e61038e565b604080516001600160a01b039092168252519081900360200190f35b34801561014657600080fd5b5061014f61039d565b60408051918252519081900360200190f35b34801561016d57600080fd5b5061018b6004803603602081101561018457600080fd5b50356103a3565b005b34801561019957600080fd5b5061018b600480360360808110156101b057600080fd5b506001600160a01b0381358116916020810135821691604082013581169160600135166103f8565b3480156101e457600080fd5b5061011e6105b1565b3480156101f957600080fd5b5061014f6105c0565b34801561020e57600080fd5b5061018b6004803603604081101561022557600080fd5b506001600160a01b0381351690602001356105c6565b34801561024757600080fd5b5061011e610707565b34801561025c57600080fd5b50610265610716565b604080519115158252519081900360200190f35b34801561028557600080fd5b5061011e610727565b34801561029a57600080fd5b5061011e610736565b3480156102af57600080fd5b5061018b600480360360208110156102c657600080fd5b5035610745565b6001546001600160a01b03163314806102f057506004546001600160a01b031633145b61032b5760405162461bcd60e51b8152600401808060200182810382526031815260200180610a9c6031913960400191505060405180910390fd5b565b600082820183811015610387576040805162461bcd60e51b815260206004820152601b60248201527f536166654d6174683a206164646974696f6e206f766572666c6f770000000000604482015290519081900360640190fd5b9392505050565b6003546001600160a01b031681565b60055490565b6103ab610760565b6006546103be908263ffffffff6107d316565b600681905560408051918252517f0d4c964e4ceac5d740869d39789a7b91888a787b9c33e9365b1a658a21ffb6969181900360200190a150565b610400610716565b610451576040805162461bcd60e51b815260206004820181905260248201527f4f776e61626c653a2063616c6c6572206973206e6f7420746865206f776e6572604482015290519081900360640190fd5b61045a84610815565b61046383610815565b61046c82610815565b61047581610815565b600180546001600160a01b038087166001600160a01b031992831681179093556002805487831690841617905560038054868316908416179055600480549185169190921617905560408051918252517f3ca631ffcd2a9b5d9ae18543fc82f58eb4ca33af9e6ab01b7a8e95331e6ed9859181900360200190a1604080516001600160a01b038516815290517f143219c9e69b09e07e095fcc889b43d8f46ca892bba65f08dc3a0050869a56789181900360200190a1604080516001600160a01b038416815290517f82966d27eea39b038ee0fa30cd16532bb24f6e65d31cb58fb227aa5766cdcc7f9181900360200190a1604080516001600160a01b038316815290517f5ee0cae2f063ed938bb55046f6a932fb6ae792bf43624806bb90abe68a50be9b9181900360200190a16105ab6108c8565b50505050565b6002546001600160a01b031681565b60065490565b6105ce610760565b6005546105e1908263ffffffff6107d316565b600581905560408051918252517fca232b5abb988c540b959ff6c3bfae3e97fff964fd098c508f9613c0a6bf1a809181900360200190a1604080516001600160a01b03841681526020810183905281517f6109e2559dfa766aaec7118351d48a523f0a4157f49c8d68749c8ac41318ad12929181900390910190a16040516000906001600160a01b0384169083908381818185875af1925050503d80600081146106a7576040519150601f19603f3d011682016040523d82523d6000602084013e6106ac565b606091505b5050905080610702576040805162461bcd60e51b815260206004820152601e60248201527f416374697665506f6f6c3a2073656e64696e6720455448206661696c65640000604482015290519081900360640190fd5b505050565b6000546001600160a01b031690565b6000546001600160a01b0316331490565b6004546001600160a01b031681565b6001546001600160a01b031681565b61074d610912565b6006546103be908263ffffffff61032d16565b6001546001600160a01b031633148061078357506002546001600160a01b031633145b8061079857506003546001600160a01b031633145b61032b5760405162461bcd60e51b8152600401808060200182810382526053815260200180610a496053913960600191505060405180910390fd5b600061038783836040518060400160405280601e81526020017f536166654d6174683a207375627472616374696f6e206f766572666c6f770000815250610970565b6001600160a01b038116610870576040805162461bcd60e51b815260206004820152601e60248201527f4163636f756e742063616e6e6f74206265207a65726f20616464726573730000604482015290519081900360640190fd5b803b806108c4576040805162461bcd60e51b815260206004820181905260248201527f4163636f756e7420636f64652073697a652063616e6e6f74206265207a65726f604482015290519081900360640190fd5b5050565b600080546040516001600160a01b03909116907f8be0079c531659141344cd1fd0a4f28419497f9722a3daafe3b4186f6b6457e0908390a3600080546001600160a01b0319169055565b6001546001600160a01b031633148061093557506002546001600160a01b031633145b61032b5760405162461bcd60e51b8152600401808060200182810382526041815260200180610a086041913960600191505060405180910390fd5b600081848411156109ff5760405162461bcd60e51b81526004018080602001828103825283818151815260200191508051906020019080838360005b838110156109c45781810151838201526020016109ac565b50505050905090810190601f1680156109f15780820380516001836020036101000a031916815260200191505b509250505060405180910390fd5b50505090039056fe416374697665506f6f6c3a2043616c6c6572206973206e65697468657220426f72726f7765724f7065726174696f6e73206e6f722054726f76654d616e61676572416374697665506f6f6c3a2043616c6c6572206973206e65697468657220426f72726f7765724f7065726174696f6e73206e6f722054726f76654d616e61676572206e6f722053746162696c697479506f6f6c416374697665506f6f6c3a2043616c6c6572206973206e65697468657220424f206e6f722044656661756c7420506f6f6ca2646970667358221220895c2c8d9a4d49f4e38daa411bfe5790b8022c90fd49df18c54493b31b9018c464736f6c634300060b0033608060405234801561001057600080fd5b50600080546001600160a01b0319163390811782556040519091907f8be0079c531659141344cd1fd0a4f28419497f9722a3daafe3b4186f6b6457e0908290a36108dc8061005f6000396000f3fe6080604052600436106100955760003560e01c80638f32d59b116100595780638f32d59b146101a157806390107afe146101ca578063b08bc72214610205578063be41205f1461021a578063cfb9329a14610244576100ee565b806314f6c3be146100f357806338d995a81461011a5780635a4d28bb146101465780635eb52fca146101775780638da5cb5b1461018c576100ee565b366100ee576100a261026e565b6003546100b5903463ffffffff6102b916565b600381905560408051918252517f9a14ae677a60400af9176bed2e2d5ce8dfa6405e6c1702debb27668f567214289181900360200190a1005b600080fd5b3480156100ff57600080fd5b5061010861031a565b60408051918252519081900360200190f35b34801561012657600080fd5b506101446004803603602081101561013d57600080fd5b5035610320565b005b34801561015257600080fd5b5061015b610375565b604080516001600160a01b039092168252519081900360200190f35b34801561018357600080fd5b50610108610384565b34801561019857600080fd5b5061015b61038a565b3480156101ad57600080fd5b506101b6610399565b604080519115158252519081900360200190f35b3480156101d657600080fd5b50610144600480360360408110156101ed57600080fd5b506001600160a01b03813581169160200135166103aa565b34801561021157600080fd5b5061015b6104bd565b34801561022657600080fd5b506101446004803603602081101561023d57600080fd5b50356104cc565b34801561025057600080fd5b506101446004803603602081101561026757600080fd5b503561061c565b6002546001600160a01b031633146102b75760405162461bcd60e51b81526004018080602001828103825260298152602001806108536029913960400191505060405180910390fd5b565b600082820183811015610313576040805162461bcd60e51b815260206004820152601b60248201527f536166654d6174683a206164646974696f6e206f766572666c6f770000000000604482015290519081900360640190fd5b9392505050565b60035490565b610328610637565b60045461033b908263ffffffff61068016565b600481905560408051918252517f7735d8b9c0814a13884384c73ec31633f708b4b920b2158764c6b306541341259181900360200190a150565b6001546001600160a01b031681565b60045490565b6000546001600160a01b031690565b6000546001600160a01b0316331490565b6103b2610399565b610403576040805162461bcd60e51b815260206004820181905260248201527f4f776e61626c653a2063616c6c6572206973206e6f7420746865206f776e6572604482015290519081900360640190fd5b61040c826106c2565b610415816106c2565b600180546001600160a01b038085166001600160a01b03199283168117909355600280549185169190921617905560408051918252517f143219c9e69b09e07e095fcc889b43d8f46ca892bba65f08dc3a0050869a56789181900360200190a1604080516001600160a01b038316815290517f78f058b189175430c48dc02699e3a0031ea4ff781536dc2fab847de4babdd8829181900360200190a16104b9610771565b5050565b6002546001600160a01b031681565b6104d4610637565b6002546003546001600160a01b03909116906104f6908363ffffffff61068016565b600381905560408051918252517f9a14ae677a60400af9176bed2e2d5ce8dfa6405e6c1702debb27668f567214289181900360200190a1604080516001600160a01b03831681526020810184905281517f6109e2559dfa766aaec7118351d48a523f0a4157f49c8d68749c8ac41318ad12929181900390910190a16040516000906001600160a01b0383169084908381818185875af1925050503d80600081146105bc576040519150601f19603f3d011682016040523d82523d6000602084013e6105c1565b606091505b5050905080610617576040805162461bcd60e51b815260206004820152601f60248201527f44656661756c74506f6f6c3a2073656e64696e6720455448206661696c656400604482015290519081900360640190fd5b505050565b610624610637565b60045461033b908263ffffffff6102b916565b6001546001600160a01b031633146102b75760405162461bcd60e51b815260040180806020018281038252602b81526020018061087c602b913960400191505060405180910390fd5b600061031383836040518060400160405280601e81526020017f536166654d6174683a207375627472616374696f6e206f766572666c6f7700008152506107bb565b6001600160a01b03811661071d576040805162461bcd60e51b815260206004820152601e60248201527f4163636f756e742063616e6e6f74206265207a65726f20616464726573730000604482015290519081900360640190fd5b803b806104b9576040805162461bcd60e51b815260206004820181905260248201527f4163636f756e7420636f64652073697a652063616e6e6f74206265207a65726f604482015290519081900360640190fd5b600080546040516001600160a01b03909116907f8be0079c531659141344cd1fd0a4f28419497f9722a3daafe3b4186f6b6457e0908390a3600080546001600160a01b0319169055565b6000818484111561084a5760405162461bcd60e51b81526004018080602001828103825283818151815260200191508051906020019080838360005b8381101561080f5781810151838201526020016107f7565b50505050905090810190601f16801561083c5780820380516001836020036101000a031916815260200191505b509250505060405180910390fd5b50505090039056fe44656661756c74506f6f6c3a2043616c6c6572206973206e6f742074686520416374697665506f6f6c44656661756c74506f6f6c3a2043616c6c6572206973206e6f74207468652054726f76654d616e61676572a26469706673582212208bc8c8b5b85056a4e53fd1e4706d4dae593bbe3c780a2bb7515b54fcb6f35e9164736f6c634300060b00336080604052670de0b6b3a764000060105534801561001c57600080fd5b50600380546001600160a01b031916339081179091556040516000907f8be0079c531659141344cd1fd0a4f28419497f9722a3daafe3b4186f6b6457e0908290a36138668061006c6000396000f3fe60806040526004361061028c5760003560e01c80637f7dde4a1161015a578063ae918754116100c1578063df9cd84f1161007a578063df9cd84f14610857578063eaa8ba7f1461088a578063f5f1595d146108ef578063f92d343314610922578063fc7e286d14610937578063fda0101a1461098b576102d3565b8063ae918754146107bb578063b83f91a2146107d0578063ce4b5bbe146107e5578063cef941e8146107fa578063d4ca05751461080f578063d7fb044314610842576102d3565b80638f32d59b116101135780638f32d59b1461070757806395fb16bb146107305780639bf2f1ac14610745578063a20baee6146105ab578063a4e59ac81461075a578063a7bfff971461076f576102d3565b80637f7dde4a1461064557806382e0a5741461065a57806386da082414610695578063887105d3146106c85780638b8fbd92146106dd5780638da5cb5b146106f2576102d3565b80634870dd9a116101fe57806372fe25aa116101b757806372fe25aa146105ab578063741bef1a146105c057806376671808146105d557806377553ad414610606578063794e57241461061b578063795d26c314610630576102d3565b80634870dd9a146104d6578063538153ca146104eb578063556be101146105005780635733d58f1461052a5780635d2de6421461053f5780635f788d6514610572576102d3565b80632e54bf95116102505780632e54bf95146103ec5780632e86bbd814610418578063335525ad1461042d578063389e92a51461045d5780633cc74225146104905780633d83908a146104c1576102d3565b806314f6c3be146102d857806316b9d3c5146102ff5780631bf43555146103695780631cdc47001461037e57806328a0a04d146103b1576102d3565b366102d3576102996109c6565b6009546102ac903463ffffffff610a1116565b6009819055604080519182525160008051602061359a8339815191529181900360200190a1005b600080fd5b3480156102e457600080fd5b506102ed610a74565b60408051918252519081900360200190f35b34801561030b57600080fd5b506103326004803603602081101561032257600080fd5b50356001600160a01b0316610a7a565b604080519586526020860194909452848401929092526001600160801b039081166060850152166080830152519081900360a00190f35b34801561037557600080fd5b506102ed610ab5565b34801561038a57600080fd5b506102ed600480360360208110156103a157600080fd5b50356001600160a01b0316610ac2565b3480156103bd57600080fd5b506102ed600480360360408110156103d457600080fd5b506001600160801b0381358116916020013516610b6a565b3480156103f857600080fd5b506104166004803603602081101561040f57600080fd5b5035610b87565b005b34801561042457600080fd5b506102ed610d10565b34801561043957600080fd5b506104166004803603604081101561045057600080fd5b5080359060200135610d1d565b34801561046957600080fd5b506102ed6004803603602081101561048057600080fd5b50356001600160a01b0316610d81565b34801561049c57600080fd5b506104a5610e1e565b604080516001600160a01b039092168252519081900360200190f35b3480156104cd57600080fd5b506104a5610e2d565b3480156104e257600080fd5b506102ed610e3c565b3480156104f757600080fd5b506102ed610e41565b34801561050c57600080fd5b506104166004803603602081101561052357600080fd5b5035610e47565b34801561053657600080fd5b506102ed610ebc565b34801561054b57600080fd5b506102ed6004803603602081101561056257600080fd5b50356001600160a01b0316610ec8565b34801561057e57600080fd5b506104166004803603604081101561059557600080fd5b50803590602001356001600160a01b0316610eda565b3480156105b757600080fd5b506102ed61105b565b3480156105cc57600080fd5b506104a5611067565b3480156105e157600080fd5b506105ea611076565b604080516001600160801b039092168252519081900360200190f35b34801561061257600080fd5b506104a561108c565b34801561062757600080fd5b506102ed61109b565b34801561063c57600080fd5b506102ed6110a7565b34801561065157600080fd5b506104a56111a8565b34801561066657600080fd5b506102ed6004803603604081101561067d57600080fd5b506001600160801b03813581169160200135166111b7565b3480156106a157600080fd5b50610332600480360360208110156106b857600080fd5b50356001600160a01b03166111d4565b3480156106d457600080fd5b506102ed61120f565b3480156106e957600080fd5b506102ed6112cb565b3480156106fe57600080fd5b506104a56112d1565b34801561071357600080fd5b5061071c6112e0565b604080519115158252519081900360200190f35b34801561073c57600080fd5b506104a56112f1565b34801561075157600080fd5b506102ed611300565b34801561076657600080fd5b506105ea611306565b34801561077b57600080fd5b506107a26004803603602081101561079257600080fd5b50356001600160a01b0316611315565b6040805192835290151560208301528051918290030190f35b3480156107c757600080fd5b506104a5611331565b3480156107dc57600080fd5b506104a5611340565b3480156107f157600080fd5b506102ed61134f565b34801561080657600080fd5b506102ed611357565b34801561081b57600080fd5b506102ed6004803603602081101561083257600080fd5b50356001600160a01b031661135d565b34801561084e57600080fd5b506102ed611461565b34801561086357600080fd5b506102ed6004803603602081101561087a57600080fd5b50356001600160a01b0316611467565b34801561089657600080fd5b50610416600480360360e08110156108ad57600080fd5b506001600160a01b038135811691602081013582169160408201358116916060810135821691608082013581169160a081013582169160c09091013516611504565b3480156108fb57600080fd5b506102ed6004803603602081101561091257600080fd5b50356001600160a01b03166117b5565b34801561092e57600080fd5b506102ed6118b2565b34801561094357600080fd5b5061096a6004803603602081101561095a57600080fd5b50356001600160a01b03166118bd565b604080519283526001600160a01b0390911660208301528051918290030190f35b34801561099757600080fd5b50610416600480360360408110156109ae57600080fd5b506001600160a01b03813581169160200135166118df565b6000546001600160a01b03163314610a0f5760405162461bcd60e51b81526004018080602001828103825260278152602001806135736027913960400191505060405180910390fd5b565b600082820183811015610a6b576040805162461bcd60e51b815260206004820152601b60248201527f536166654d6174683a206164646974696f6e206f766572666c6f770000000000604482015290519081900360640190fd5b90505b92915050565b60095490565b600f602052600090815260409020805460018201546002830154600390930154919290916001600160801b0380821691600160801b90041685565b6869b5afac750bb8000081565b6001600160a01b0381166000908152600b602052604081205480610aea576000915050610b65565b610af26134a5565b506001600160a01b0383166000908152600c60209081526040808320815160a08101835281548152600182015493810193909352600281015491830191909152600301546001600160801b038082166060840152600160801b90910416608082015290610b5f8383611b0f565b93505050505b919050565b601260209081526000928352604080842090915290825290205481565b8015610b9557610b95611c0b565b336000908152600b6020526040902054610bae81611dc8565b6008546001600160a01b0316610bc381611e0a565b6000610bce33610d81565b90506000610bdb33610ac2565b90506000610be98683611e7e565b90506000610bfd868463ffffffff611e9416565b336000818152600b60205260409020600101549192506001600160a01b0390911690610c2b90879083611ed6565b6000610c3682611467565b90506000610c4a828663ffffffff611e9416565b9050610c568382612075565b6040805182815233602082015281516001600160a01b03861692600080516020613780833981519152928290030190a2610c9033866121c1565b6000610ca2878763ffffffff611e9416565b9050610cae3382612247565b60408051828152905133916000805160206135eb833981519152919081900360200190a26040805189815260208101879052815133926000805160206136cf833981519152928290030190a2610d03886123cd565b5050505050505050505050565b6802b5e3af16b188000081565b610d256124d9565b600a54801580610d33575082155b15610d3e5750610d7d565b600854610d53906001600160a01b0316611e0a565b600080610d61848685612522565b91509150610d6f828261261b565b610d798486612915565b5050505b5050565b6001600160a01b0381166000908152600b602052604081205480610da9576000915050610b65565b610db16134a5565b506001600160a01b0383166000908152600c60209081526040808320815160a08101835281548152600182015493810193909352600281015491830191909152600301546001600160801b038082166060840152600160801b90910416608082015290610b5f8383612a4f565b6001546001600160a01b031681565b6005546001600160a01b031681565b60c881565b60165481565b610e5033612b40565b610e5933612b9b565b610e6281612bf1565b336000818152600d60209081526040918290208481556001908101805460ff19169091179055815184815291517f19bc932fb9e16a8b5a1e41be9f4c2de59d5ddd7567b8b81405f532ca00a9880e9281900390910190a250565b6714d1120d7b16000081565b600e6020526000908152604090205481565b610ee381612c38565b610eec33612b40565b610ef582612ca4565b336000908152600b60205260409020546008546001600160a01b0316610f1a81611e0a565b81610f2957610f293384612ce3565b6000610f3433610d81565b90506000610f4133610ac2565b90506000610f55858363ffffffff611e9416565b336000818152600b60205260409020600101549192506001600160a01b0390911690610f8390869083611ed6565b6000610f8e82611467565b90506000610fa2828b63ffffffff610a1116565b9050610fae8382612075565b6040805182815233602082015281516001600160a01b03861692600080516020613780833981519152928290030190a2610fe8338b612d3d565b6000610ffa868c63ffffffff610a1116565b90506110063382612247565b60408051828152905133916000805160206135eb833981519152919081900360200190a26040805188815260208101879052815133926000805160206136cf833981519152928290030190a2610d03876123cd565b670de0b6b3a764000081565b6002546001600160a01b031681565b601154600160801b90046001600160801b031681565b6004546001600160a01b031681565b670f43fc2c04ee000081565b6000805460408051632f5a97e560e11b8152905183926001600160a01b031691635eb52fca916004808301926020929190829003018186803b1580156110ec57600080fd5b505afa158015611100573d6000803e3d6000fd5b505050506040513d602081101561111657600080fd5b505160015460408051632f5a97e560e11b815290519293506000926001600160a01b0390921691635eb52fca91600480820192602092909190829003018186803b15801561116357600080fd5b505afa158015611177573d6000803e3d6000fd5b505050506040513d602081101561118d57600080fd5b505190506111a1828263ffffffff610a1116565b9250505090565b6000546001600160a01b031681565b601360209081526000928352604080842090915290825290205481565b600c602052600090815260409020805460018201546002830154600390930154919290916001600160801b0380821691600160801b90041685565b6000805460408051630a7b61df60e11b8152905183926001600160a01b0316916314f6c3be916004808301926020929190829003018186803b15801561125457600080fd5b505afa158015611268573d6000803e3d6000fd5b505050506040513d602081101561127e57600080fd5b505160015460408051630a7b61df60e11b815290519293506000926001600160a01b03909216916314f6c3be91600480820192602092909190829003018186803b15801561116357600080fd5b60105481565b6003546001600160a01b031690565b6003546001600160a01b0316331490565b6008546001600160a01b031681565b600a5490565b6011546001600160801b031681565b600d602052600090815260409020805460019091015460ff1682565b6007546001600160a01b031681565b6006546001600160a01b031681565b633b9aca0081565b60145481565b6001600160a01b0381166000908152600e602052604081205480611385576000915050610b65565b6001600160a01b0383166000908152600d6020526040812054906113b7670de0b6b3a76400008363ffffffff611e9416565b90506113c16134a5565b506001600160a01b0385166000908152600f60209081526040808320815160a08101835281548152600182015493810193909352600281015491830191909152600301546001600160801b038082166060840152600160801b90910416608082015290611456670de0b6b3a764000061144a61143d8886612e07565b869063ffffffff612e9316565b9063ffffffff612eec16565b979650505050505050565b60155481565b6001600160a01b0381166000908152600e60205260408120548061148f576000915050610b65565b6114976134a5565b506001600160a01b0383166000908152600f60209081526040808320815160a08101835281548152600182015493810193909352600281015491830191909152600301546001600160801b038082166060840152600160801b90910416608082015290610b5f8383611b0f565b61150c6112e0565b61155d576040805162461bcd60e51b815260206004820181905260248201527f4f776e61626c653a2063616c6c6572206973206e6f7420746865206f776e6572604482015290519081900360640190fd5b61156687612f2e565b61156f86612f2e565b61157885612f2e565b61158184612f2e565b61158a83612f2e565b61159382612f2e565b61159c81612f2e565b600480546001600160a01b03199081166001600160a01b038a81169182179093556005805483168a85161790556000805483168985161790556006805483168885161790556007805483168785161790556002805483168685161790556008805490921692841692909217905560408051918252517f3ca631ffcd2a9b5d9ae18543fc82f58eb4ca33af9e6ab01b7a8e95331e6ed985916020908290030190a1604080516001600160a01b038816815290517f143219c9e69b09e07e095fcc889b43d8f46ca892bba65f08dc3a0050869a56789181900360200190a1604080516001600160a01b038716815290517f78f058b189175430c48dc02699e3a0031ea4ff781536dc2fab847de4babdd8829181900360200190a1604080516001600160a01b038616815290517f227eec0ec317af6ab1a9587ffa1c84332522eb4c583a908f89babc05f8f339bd9181900360200190a1604080516001600160a01b038516815290517f65f4cf077bc01e4742eb5ad98326f6e95b63548ea24b17f8d5e823111fe788009181900360200190a1604080516001600160a01b038416815290517f8c537274438aa850a330284665d81a85dd38267d09e4050d416bfc94142db2649181900360200190a1604080516001600160a01b038316815290517f3055265812fb8447b9ada4a5d804ec43bd528ec40e89c952bbc7b85dc5ac68119181900360200190a16117ac612fdd565b50505050505050565b6001600160a01b0381166000908152600b6020526040812054806117dd576000915050610b65565b6001600160a01b038084166000908152600b6020526040812060010154909116908115611822576001600160a01b0382166000908152600d602052604090205461182c565b670de0b6b3a76400005b90506118366134a5565b506001600160a01b0385166000908152600c60209081526040808320815160a08101835281548152600182015493810193909352600281015491830191909152600301546001600160801b038082166060840152600160801b90910416608082015290611456670de0b6b3a764000061144a61143d8886612e07565b6611c37937e0800081565b600b60205260009081526040902080546001909101546001600160a01b031682565b336000908152600b60205260409020546118f881611dc8565b61190133613027565b61190a336130de565b6008546001600160a01b031661191f81611e0a565b600061192a33610d81565b9050600061193733610ac2565b9050600061194b858363ffffffff611e9416565b336000818152600b60205260409020600101549192506001600160a01b039091169061197990869083611ed6565b600061198482611467565b9050806119918382612075565b6040805182815233602082015281516001600160a01b03861692600080516020613780833981519152928290030190a26119cb3386612247565b6040805187815260208101869052815133926000805160206136cf833981519152928290030190a260408051868152905133916000805160206135eb833981519152919081900360200190a2600954611a2a908763ffffffff611e9416565b6009819055604080519182525160008051602061359a8339815191529181900360200190a1604080513381526020810188905281517f6109e2559dfa766aaec7118351d48a523f0a4157f49c8d68749c8ac41318ad12929181900390910190a1600480546040805163ea9638bf60e01b815233938101939093526001600160a01b038d811660248501528c81166044850152905191169163ea9638bf91899160648082019260009290919082900301818588803b158015611aea57600080fd5b505af1158015611afe573d6000803e3d6000fd5b505050505050505050505050505050565b6020810151606082015160808301516011546000939291906001600160801b03600160801b90910481169082161015611b4e5760009350505050610a6e565b6011546000908190611b6f906001600160801b03168563ffffffff61312a16565b90506001600160801b038116611b9f57611b988561144a6010548b612e9390919063ffffffff16565b9150611bd7565b806001600160801b031660011415611bd257611b98633b9aca0061144a8761144a6010548d612e9390919063ffffffff16565b600091505b611beb88633b9aca0063ffffffff612eec16565b821015611c0057600095505050505050610a6e565b509695505050505050565b60025460408051630fdb11cf60e01b815290516000926001600160a01b031691630fdb11cf91600480830192602092919082900301818787803b158015611c5157600080fd5b505af1158015611c65573d6000803e3d6000fd5b505050506040513d6020811015611c7b57600080fd5b505160075460408051634d62283160e01b815290519293506000926001600160a01b0390921691634d62283191600480820192602092909190829003018186803b158015611cc857600080fd5b505afa158015611cdc573d6000803e3d6000fd5b505050506040513d6020811015611cf257600080fd5b505160055460408051630d293c7160e41b81526001600160a01b038085166004830152602482018790529151939450600093919092169163d293c710916044808301926020929190829003018186803b158015611d4e57600080fd5b505afa158015611d62573d6000803e3d6000fd5b505050506040513d6020811015611d7857600080fd5b50519050670f43fc2c04ee0000811015611dc35760405162461bcd60e51b81526004018080602001828103825260448152602001806137ed6044913960600191505060405180910390fd5b505050565b60008111611e075760405162461bcd60e51b81526004018080602001828103825260308152602001806137506030913960400191505060405180910390fd5b50565b6000816001600160a01b03166346ad34d96040518163ffffffff1660e01b8152600401602060405180830381600087803b158015611e4757600080fd5b505af1158015611e5b573d6000803e3d6000fd5b505050506040513d6020811015611e7157600080fd5b50519050610d7d81613183565b6000818310611e8d5781610a6b565b5090919050565b6000610a6b83836040518060400160405280601e81526020017f536166654d6174683a207375627472616374696f6e206f766572666c6f77000081525061329e565b6001600160a01b03811615611fab576000611ef08261135d565b9050836001600160a01b031663614d2ab683836040518363ffffffff1660e01b815260040180836001600160a01b03166001600160a01b0316815260200182815260200192505050600060405180830381600087803b158015611f5257600080fd5b505af1158015611f66573d6000803e3d6000fd5b50506040805184815290516001600160a01b03861693507fcd2cdc1a4af71051394e9c6facd9a266b2ac5bd65d219a701eeda009f47682bf92509081900360200190a2505b6000611fb6836117b5565b9050836001600160a01b031663614d2ab684836040518363ffffffff1660e01b815260040180836001600160a01b03166001600160a01b0316815260200182815260200192505050600060405180830381600087803b15801561201857600080fd5b505af115801561202c573d6000803e3d6000fd5b50506040805184815290516001600160a01b03871693507f2608b986a6ac0f6c629ca37018e80af5561e366252ae93602a96d3ab2e73e42d92509081900360200190a250505050565b6001600160a01b0382166000908152600e6020526040902081905580612105576001600160a01b0382166000818152600f60209081526040808320838155600181018490556002810184905560030183905580518381529182019290925281517fbb1322f85cc7cc8bac4e172a5bc5dcc0c1959007f9a030032abf9258205f0e45929181900390910190a2610d7d565b6011546010546001600160801b03600160801b80840482166000818152601360209081526040808320978616808452978252808320546001600160a01b038b16808552600f845293829020600181018990556002810182905560030180546001600160801b0319168a17909716958502959095179095558451868152908101849052845192959491927fbb1322f85cc7cc8bac4e172a5bc5dcc0c1959007f9a030032abf9258205f0e45929181900390910190a2505050505050565b806121cb57610d7d565b60065460408051631062c15f60e11b81523060048201526001600160a01b03858116602483015260448201859052915191909216916320c582be91606480830192600092919082900301818387803b15801561222657600080fd5b505af115801561223a573d6000803e3d6000fd5b50505050610d7d81613335565b6001600160a01b0382166000908152600b60205260409020819055806122f5576001600160a01b0382166000818152600b60209081526040808320600190810180546001600160a01b0319169055600c83528184208481559081018490556002810184905560030183905580518381529182018390528181019290925290517f2d6cc0bcdf72c9486f6451bde6b80f44066f4558f77f44dbfedbe7d8b295225a9181900360600190a2610d7d565b6011546010546001600160801b03600160801b8084048216600081815260126020908152604080832097861680845297825280832054848452601383528184208985528352818420546001600160a01b038c16808652600c855294839020600181018a90558281556002810182905560030180546001600160801b0319168b179098169686029690961790965580518781529182018690528181018590525192959493927f2d6cc0bcdf72c9486f6451bde6b80f44066f4558f77f44dbfedbe7d8b295225a916060908290030190a250505050505050565b806123d757611e07565b6009546000906123ed908363ffffffff611e9416565b600981905560408051828152905191925060008051602061359a833981519152919081900360200190a1604080513381526020810184905281517f6109e2559dfa766aaec7118351d48a523f0a4157f49c8d68749c8ac41318ad12929181900390910190a1604051600090339084908381818185875af1925050503d8060008114612494576040519150601f19603f3d011682016040523d82523d6000602084013e612499565b606091505b5050905080611dc35760405162461bcd60e51b81526004018080602001828103825260218152602001806136346021913960400191505060405180910390fd5b6005546001600160a01b03163314610a0f5760405162461bcd60e51b815260040180806020018281038252602981526020018061360b6029913960400191505060405180910390fd5b6000806000612554601554612548670de0b6b3a764000089612e9390919063ffffffff16565b9063ffffffff610a1116565b90508385111561256057fe5b8385141561257d576000601655670de0b6b3a764000091506125dd565b6016546000906125ab9061259f88670de0b6b3a764000063ffffffff612e9316565b9063ffffffff611e9416565b90506125c26001612548838863ffffffff612eec16565b92506125d88161259f858863ffffffff612e9316565b601655505b6125ed818563ffffffff612eec16565b925061260f612602848663ffffffff612e9316565b829063ffffffff611e9416565b60155550935093915050565b6010546000670de0b6b3a764000083111561263257fe5b600061264c670de0b6b3a76400008563ffffffff611e9416565b6011546001600160801b03600160801b8204811660008181526012602090815260408083209490951680835293905292832054939450909290916126908988612e93565b905060006126a4838363ffffffff610a1116565b6001600160801b038086166000818152601260209081526040808320948b16808452948252918290208590558151858152908101929092528181019290925290519192507fe12e2cd2c9afa8069203ca07e7eff1edce4a075686d0736a8e7e0d593597b207919081900360600190a1856127db576127326001600160801b038516600163ffffffff61338b16565b601180546001600160801b03908116600160801b938216840217918290556040805193909204168252517fb50f0f59e7cb5b421dc77581c3a9919e3806e076e5fa78a874c3f120cb7d874d916020908290030190a1601180546001600160801b0319169055604080516000815290517f1f9dfc70cd666adb18a39d60a797518f7b4febf4b6e24ef37d44f6e1e7219fbe9181900360200190a1670de0b6b3a764000096506128c7565b633b9aca006127fc670de0b6b3a764000061144a8b8a63ffffffff612e9316565b10156128a857612832670de0b6b3a764000061144a633b9aca006128268c8b63ffffffff612e9316565b9063ffffffff612e9316565b965061284e6001600160801b038616600163ffffffff61338b16565b601180546001600160801b0319166001600160801b0392831617908190556040805191909216815290517f1f9dfc70cd666adb18a39d60a797518f7b4febf4b6e24ef37d44f6e1e7219fbe916020908290030190a16128c7565b6128c4670de0b6b3a764000061144a8a8963ffffffff612e9316565b96505b600087116128d157fe5b60108790556040805188815290517fc1a9618cb59ebca77cbdbc2949f126823c407ff13edb285fd0262519a9c18e8c9181900360200190a150505050505050505050565b600080546040805163071b32b560e31b81526004810185905290516001600160a01b039092169283926338d995a892602480820193929182900301818387803b15801561296157600080fd5b505af1158015612975573d6000803e3d6000fd5b5050505061298282613335565b60065460408051632770a7eb60e21b81523060048201526024810185905290516001600160a01b0390921691639dc29fac9160448082019260009290919082900301818387803b1580156129d557600080fd5b505af11580156129e9573d6000803e3d6000fd5b5050604080516364a197f360e01b81523060048201526024810187905290516001600160a01b03851693506364a197f39250604480830192600092919082900301818387803b158015612a3b57600080fd5b505af11580156117ac573d6000803e3d6000fd5b6080810151606082015182516020808501516001600160801b03808616600090815260128452604080822092871682529190935282205491949392918590612a9d908463ffffffff611e9416565b6001600160801b03808716600090815260126020526040812092935091612b0091633b9aca0091908490612ada908a16600163ffffffff61338b16565b6001600160801b031681526020810191909152604001600020549063ffffffff612eec16565b90506000612b32670de0b6b3a764000061144a8681612b25888863ffffffff610a1116565b8f9063ffffffff612e9316565b9a9950505050505050505050565b6001600160a01b0381166000908152600d602052604090206001015460ff1615611e075760405162461bcd60e51b81526004018080602001828103825260398152602001806136ef6039913960400191505060405180910390fd5b6001600160a01b0381166000908152600b60205260409020548015610d7d5760405162461bcd60e51b81526004018080602001828103825260288152602001806137286028913960400191505060405180910390fd5b670de0b6b3a7640000811115611e075760405162461bcd60e51b81526004018080602001828103825260338152602001806136766033913960400191505060405180910390fd5b6001600160a01b0381166000908152600d602052604090206001015460ff1680612c6957506001600160a01b038116155b611e075760405162461bcd60e51b815260040180806020018281038252604681526020018061352d6046913960600191505060405180910390fd5b60008111611e075760405162461bcd60e51b81526004018080602001828103825260268152602001806136a96026913960400191505060405180910390fd5b6001600160a01b038281166000818152600b602052604080822060010180546001600160a01b0319169486169485179055517f094c08e96a8890877a8390b4f967180a7507ad8622244d05fcd0f9f8e086564e9190a35050565b60065460408051632ee65eeb60e21b81526001600160a01b038581166004830152306024830152604482018590529151919092169163bb997bac91606480830192600092919082900301818387803b158015612d9857600080fd5b505af1158015612dac573d6000803e3d6000fd5b5050600a5460009250612dc691508363ffffffff610a1116565b600a8190556040805182815290519192507fa8e886449d8f7e765877b4a4f54632da3943ae454d5a272bdccb1781f086ff29919081900360200190a1505050565b608081015160608201516040808401516020808601516001600160801b03808716600090815260138452858120918716815292529281205490949392908590612e56908463ffffffff611e9416565b6001600160801b03808716600090815260136020526040812092935091612b0091633b9aca0091908490612ada908a16600163ffffffff61338b16565b600082612ea257506000610a6e565b82820282848281612eaf57fe5b0414610a6b5760405162461bcd60e51b81526004018080602001828103825260218152602001806136556021913960400191505060405180910390fd5b6000610a6b83836040518060400160405280601a81526020017f536166654d6174683a206469766973696f6e206279207a65726f0000000000008152506133db565b6001600160a01b038116612f89576040805162461bcd60e51b815260206004820152601e60248201527f4163636f756e742063616e6e6f74206265207a65726f20616464726573730000604482015290519081900360640190fd5b803b80610d7d576040805162461bcd60e51b815260206004820181905260248201527f4163636f756e7420636f64652073697a652063616e6e6f74206265207a65726f604482015290519081900360640190fd5b6003546040516000916001600160a01b0316907f8be0079c531659141344cd1fd0a4f28419497f9722a3daafe3b4186f6b6457e0908390a3600380546001600160a01b0319169055565b600554604080516321e3780160e01b81526001600160a01b038481166004830152915191909216916321e37801916024808301926020929190829003018186803b15801561307457600080fd5b505afa158015613088573d6000803e3d6000fd5b505050506040513d602081101561309e57600080fd5b5051600114611e075760405162461bcd60e51b81526004018080602001828103825260468152602001806134e76046913960600191505060405180910390fd5b60006130e982610d81565b905060008111610d7d5760405162461bcd60e51b81526004018080602001828103825260318152602001806135ba6031913960400191505060405180910390fd5b6000826001600160801b0316826001600160801b0316111561317d5760405162461bcd60e51b81526004018080602001828103825260288152602001806137a06028913960400191505060405180910390fd5b50900390565b600a54801580613191575081155b1561319c5750611e07565b60006131a88383613440565b905060006131c160105483612e9390919063ffffffff16565b6011546001600160801b03600160801b820481166000908152601360209081526040808320939094168252919091522054909150613205908263ffffffff610a1116565b601180546001600160801b03600160801b808304821660009081526013602081815260408084209686168452958152858320979097559454918204831680825294865283812091909216808352908552908290205482519081529384019290925282810191909152517f2d6127771b164a9cc8827d24b5955db2a77e7a81dac389107ebb8bce9fb649689181900360600190a150505050565b6000818484111561332d5760405162461bcd60e51b81526004018080602001828103825283818151815260200191508051906020019080838360005b838110156132f25781810151838201526020016132da565b50505050905090810190601f16801561331f5780820380516001836020036101000a031916815260200191505b509250505060405180910390fd5b505050900390565b600a5460009061334b908363ffffffff611e9416565b600a8190556040805182815290519192507fa8e886449d8f7e765877b4a4f54632da3943ae454d5a272bdccb1781f086ff29919081900360200190a15050565b60008282016001600160801b038085169082161015610a6b5760405162461bcd60e51b81526004018080602001828103825260258152602001806137c86025913960400191505060405180910390fd5b6000818361342a5760405162461bcd60e51b81526020600482018181528351602484015283519092839260449091019190850190808383600083156132f25781810151838201526020016132da565b50600083858161343657fe5b0495945050505050565b600080613464601454612548670de0b6b3a764000087612e9390919063ffffffff16565b90506000613478828563ffffffff612eec16565b905061349a61348d828663ffffffff612e9316565b839063ffffffff611e9416565b601455949350505050565b6040518060a0016040528060008152602001600081526020016000815260200160006001600160801b0316815260200160006001600160801b03168152509056fe53746162696c697479506f6f6c3a2063616c6c6572206d757374206861766520616e206163746976652074726f766520746f207769746864726177204554484761696e20746f53746162696c697479506f6f6c3a20546167206d757374206265206120726567697374657265642066726f6e7420656e642c206f7220746865207a65726f206164647265737353746162696c697479506f6f6c3a2043616c6c6572206973206e6f7420416374697665506f6f6cceb6d671277d4354fd29977ada70695fbd93a16612abf765d6b0e25c28dc6db353746162696c697479506f6f6c3a2063616c6c6572206d7573742068617665206e6f6e2d7a65726f20455448204761696ebce78369dccab09eec1986f4d409ab09ffbb47d65423e5148fcf98411c5111c953746162696c697479506f6f6c3a2043616c6c6572206973206e6f742054726f76654d616e6167657253746162696c697479506f6f6c3a2073656e64696e6720455448206661696c6564536166654d6174683a206d756c7469706c69636174696f6e206f766572666c6f7753746162696c697479506f6f6c3a204b69636b6261636b2072617465206d75737420626520696e2072616e6765205b302c315d53746162696c697479506f6f6c3a20416d6f756e74206d757374206265206e6f6e2d7a65726f51457222ebca92c335c9c86e2baa1cc0e40ffaa9084a51452980d5ba8dec2f6353746162696c697479506f6f6c3a206d757374206e6f7420616c7265616479206265206120726567697374657265642066726f6e7420656e6453746162696c697479506f6f6c3a2055736572206d7573742068617665206e6f206465706f73697453746162696c697479506f6f6c3a2055736572206d75737420686176652061206e6f6e2d7a65726f206465706f73697499920012339b5a3368d3a04b8606ce412c46ed92b7dcd8602d41fc8862cb8f254c697175697479536166654d6174683132383a207375627472616374696f6e206f766572666c6f774c697175697479536166654d6174683132383a206164646974696f6e206f766572666c6f7753746162696c697479506f6f6c3a2043616e6e6f74207769746864726177207768696c65207468657265206172652074726f766573207769746820494352203c204d4352a264697066735822122025dc50cd59794deaa8263336a2b0ca8fd96532ae34b6191979f7f164def66ba964736f6c634300060b00336080604052348015600f57600080fd5b50603f80601d6000396000f3fe6080604052600080fdfea264697066735822122039256888add74d9ba1e587b30d8fba59588d324fa8a904bb5bafa6e715256de564736f6c634300060b00336101606040523480156200001257600080fd5b50604051620018ad380380620018ad833981810160405260608110156200003857600080fd5b50805160208201516040909201519091906200005d836001600160e01b036200025316565b62000071826001600160e01b036200025316565b62000085816001600160e01b036200025316565b6001600160601b0319606084901b1661010052604080516001600160a01b038516815290517f143219c9e69b09e07e095fcc889b43d8f46ca892bba65f08dc3a0050869a56789181900360200190a16001600160601b0319606083901b1661012052604080516001600160a01b038416815290517f82966d27eea39b038ee0fa30cd16532bb24f6e65d31cb58fb227aa5766cdcc7f9181900360200190a16001600160601b0319606082901b1661014052604080516001600160a01b038316815290517f3ca631ffcd2a9b5d9ae18543fc82f58eb4ca33af9e6ab01b7a8e95331e6ed9859181900360200190a1604080518082018252600f81526e262aa9a21029ba30b13632b1b7b4b760891b602091820152815180830190925260018252603160f81b9101527fabccaf2943f70764a048255e50e07d10e3c94973a6c6ba8b8ea62b1155209b0160c08190527fc89efdaa54c0f20c7adf612882df0950f5a951637e0307cdcb4c672f298b8bc660e08190526200020b6001600160e01b036200030816565b60a052620002447f8b73c3c69bb8fe3d512ecc4cf759cc79239f7b179b0ffacaa9a75d522b39400f83836001600160e01b036200030c16565b608052506200036d9350505050565b6001600160a01b038116620002af576040805162461bcd60e51b815260206004820152601e60248201527f4163636f756e742063616e6e6f74206265207a65726f20616464726573730000604482015290519081900360640190fd5b803b8062000304576040805162461bcd60e51b815260206004820181905260248201527f4163636f756e7420636f64652073697a652063616e6e6f74206265207a65726f604482015290519081900360640190fd5b5050565b4690565b6000838383620003246001600160e01b036200030816565b6040805160208082019690965280820194909452606084019290925260808301523060a0808401919091528151808403909101815260c090920190528051910120949350505050565b60805160a05160c05160e0516101005160601c6101205160601c6101405160601c6114b1620003fc6000398061076d5280610d5c5280610ed25280610fcd5250806105285280610b425280610ce1528061103252806111505250806106785280610b105280610d1e5280610fff525080610a58525080610a375250806109bd5250806109ed52506114b16000f3fe608060405234801561001057600080fd5b506004361061014d5760003560e01c80635a4d28bb116100c3578063a9059cbb1161007c578063a9059cbb146103f5578063b7f8cf9b14610421578063bb997bac14610429578063d505accf1461045f578063dd62ed3e146104b0578063f698da25146104de5761014d565b80635a4d28bb1461034157806370a08231146103495780637ecebe001461036f57806395d89b41146103955780639dc29fac1461039d578063a457c2d7146103c95761014d565b806320c582be1161011557806320c582be1461025557806323b872dd1461028d578063313ce567146102c357806339509351146102e157806340c10f191461030d57806354fd4d50146103395761014d565b806306fdde0314610152578063095ea7b3146101cf5780630b622ab21461020f57806310ce43bd1461023357806318160ddd1461024d575b600080fd5b61015a6104e6565b6040805160208082528351818301528351919283929083019185019080838360005b8381101561019457818101518382015260200161017c565b50505050905090810190601f1680156101c15780820380516001836020036101000a031916815260200191505b509250505060405180910390f35b6101fb600480360360408110156101e557600080fd5b506001600160a01b038135169060200135610510565b604080519115158252519081900360200190f35b610217610526565b604080516001600160a01b039092168252519081900360200190f35b61023b61054a565b60408051918252519081900360200190f35b61023b61056e565b61028b6004803603606081101561026b57600080fd5b506001600160a01b03813581169160208101359091169060400135610574565b005b6101fb600480360360608110156102a357600080fd5b506001600160a01b0381358116916020810135909116906040013561058c565b6102cb610604565b6040805160ff9092168252519081900360200190f35b6101fb600480360360408110156102f757600080fd5b506001600160a01b038135169060200135610609565b61028b6004803603604081101561032357600080fd5b506001600160a01b038135169060200135610645565b61015a61065b565b610217610676565b61023b6004803603602081101561035f57600080fd5b50356001600160a01b031661069a565b61023b6004803603602081101561038557600080fd5b50356001600160a01b03166106b5565b61015a6106d0565b61028b600480360360408110156103b357600080fd5b506001600160a01b0381351690602001356106ee565b6101fb600480360360408110156103df57600080fd5b506001600160a01b038135169060200135610700565b6101fb6004803603604081101561040b57600080fd5b506001600160a01b038135169060200135610755565b61021761076b565b61028b6004803603606081101561043f57600080fd5b506001600160a01b0381358116916020810135909116906040013561078f565b61028b600480360360e081101561047557600080fd5b506001600160a01b03813581169160208101359091169060408101359060608101359060ff6080820135169060a08101359060c00135610797565b61023b600480360360408110156104c657600080fd5b506001600160a01b038135811691602001351661098e565b61023b6109b9565b60408051808201909152600f81526e262aa9a21029ba30b13632b1b7b4b760891b60208201525b90565b600061051d338484610a83565b50600192915050565b7f000000000000000000000000000000000000000000000000000000000000000081565b7f6e71edae12b1b97f4d1f60370fef10105fa2faae0126114a169c64845d6126c990565b60005490565b61057c610b05565b610587838383610ba1565b505050565b600061059783610c83565b6105a2848484610ba1565b6105fa84336105f585604051806060016040528060288152602001611364602891396001600160a01b038a166000908152600360209081526040808320338452909152902054919063ffffffff610dcf16565b610a83565b5060019392505050565b601290565b3360008181526003602090815260408083206001600160a01b0387168452909152812054909161051d9185906105f5908663ffffffff610e6616565b61064d610ec7565b6106578282610f2e565b5050565b6040805180820190915260018152603160f81b602082015290565b7f000000000000000000000000000000000000000000000000000000000000000081565b6001600160a01b031660009081526002602052604090205490565b6001600160a01b031660009081526001602052604090205490565b604080518082019091526004815263131554d160e21b602082015290565b6106f6610fc2565b610657828261108f565b600061051d33846105f585604051806060016040528060258152602001611403602591393360009081526003602090815260408083206001600160a01b038d168452909152902054919063ffffffff610dcf16565b600061076083610c83565b61051d338484610ba1565b7f000000000000000000000000000000000000000000000000000000000000000081565b61057c611145565b428410156107e5576040805162461bcd60e51b81526020600482015260166024820152754c5553443a206578706972656420646561646c696e6560501b604482015290519081900360640190fd5b60006107ef6109b9565b6001600160a01b03808a166000818152600160208181526040808420805480850190915581517f6e71edae12b1b97f4d1f60370fef10105fa2faae0126114a169c64845d6126c98185015280830196909652958e166060860152608085018d905260a085019590955260c08085018c90528551808603909101815260e08501865280519082012061190160f01b6101008601526101028501969096526101228085019690965284518085039096018652610142840180865286519682019690962095839052610162840180865286905260ff8a166101828501526101a284018990526101c284018890529351949550909390926101e2808401939192601f1981019281900390910190855afa15801561090c573d6000803e3d6000fd5b505050602060405103519050886001600160a01b0316816001600160a01b031614610978576040805162461bcd60e51b81526020600482015260176024820152764c5553443a20696e76616c6964207369676e617475726560481b604482015290519081900360640190fd5b610983898989610a83565b505050505050505050565b6001600160a01b03918216600090815260036020908152604080832093909416825291909152205490565b60007f00000000000000000000000000000000000000000000000000000000000000006109e46111ac565b1415610a1157507f000000000000000000000000000000000000000000000000000000000000000061050d565b610a7c7f8b73c3c69bb8fe3d512ecc4cf759cc79239f7b179b0ffacaa9a75d522b39400f7f00000000000000000000000000000000000000000000000000000000000000007f00000000000000000000000000000000000000000000000000000000000000006111b0565b905061050d565b6001600160a01b038316610a9357fe5b6001600160a01b038216610aa357fe5b6001600160a01b03808416600081815260036020908152604080832094871680845294825291829020859055815185815291517f8c5be1e5ebec7d5bd14f71427d1e84f3dd0314c0f7b2291e5b200ac8c7c3b9259281900390910190a3505050565b336001600160a01b037f0000000000000000000000000000000000000000000000000000000000000000161480610b645750336001600160a01b037f000000000000000000000000000000000000000000000000000000000000000016145b610b9f5760405162461bcd60e51b81526004018080602001828103825260368152602001806112496036913960400191505060405180910390fd5b565b6001600160a01b038316610bb157fe5b6001600160a01b038216610bc157fe5b610c04816040518060600160405280602681526020016112a1602691396001600160a01b038616600090815260026020526040902054919063ffffffff610dcf16565b6001600160a01b038085166000908152600260205260408082209390935590841681522054610c39908263ffffffff610e6616565b6001600160a01b0380841660008181526002602090815260409182902094909455805185815290519193928716926000805160206113e383398151915292918290030190a3505050565b6001600160a01b03811615801590610ca457506001600160a01b0381163014155b610cdf5760405162461bcd60e51b81526004018080602001828103825260548152602001806114286054913960600191505060405180910390fd5b7f00000000000000000000000000000000000000000000000000000000000000006001600160a01b0316816001600160a01b031614158015610d5357507f00000000000000000000000000000000000000000000000000000000000000006001600160a01b0316816001600160a01b031614155b8015610d9157507f00000000000000000000000000000000000000000000000000000000000000006001600160a01b0316816001600160a01b031614155b610dcc5760405162461bcd60e51b815260040180806020018281038252605781526020018061138c6057913960600191505060405180910390fd5b50565b60008184841115610e5e5760405162461bcd60e51b81526004018080602001828103825283818151815260200191508051906020019080838360005b83811015610e23578181015183820152602001610e0b565b50505050905090810190601f168015610e505780820380516001836020036101000a031916815260200191505b509250505060405180910390fd5b505050900390565b600082820183811015610ec0576040805162461bcd60e51b815260206004820152601b60248201527f536166654d6174683a206164646974696f6e206f766572666c6f770000000000604482015290519081900360640190fd5b9392505050565b336001600160a01b037f00000000000000000000000000000000000000000000000000000000000000001614610b9f5760405162461bcd60e51b815260040180806020018281038252602b815260200180611339602b913960400191505060405180910390fd5b6001600160a01b038216610f3e57fe5b600054610f51908263ffffffff610e6616565b60009081556001600160a01b038316815260026020526040902054610f7c908263ffffffff610e6616565b6001600160a01b03831660008181526002602090815260408083209490945583518581529351929391926000805160206113e38339815191529281900390910190a35050565b336001600160a01b037f00000000000000000000000000000000000000000000000000000000000000001614806110215750336001600160a01b037f000000000000000000000000000000000000000000000000000000000000000016145b806110545750336001600160a01b037f000000000000000000000000000000000000000000000000000000000000000016145b610b9f5760405162461bcd60e51b815260040180806020018281038252604d8152602001806112c7604d913960600191505060405180910390fd5b6001600160a01b03821661109f57fe5b6110e28160405180606001604052806022815260200161127f602291396001600160a01b038516600090815260026020526040902054919063ffffffff610dcf16565b6001600160a01b0383166000908152600260205260408120919091555461110f908263ffffffff61120616565b60009081556040805183815290516001600160a01b038516916000805160206113e3833981519152919081900360200190a35050565b336001600160a01b037f00000000000000000000000000000000000000000000000000000000000000001614610b9f5760405162461bcd60e51b81526004018080602001828103825260258152602001806113146025913960400191505060405180910390fd5b4690565b60008383836111bd6111ac565b6040805160208082019690965280820194909452606084019290925260808301523060a0808401919091528151808403909101815260c090920190528051910120949350505050565b6000610ec083836040518060400160405280601e81526020017f536166654d6174683a207375627472616374696f6e206f766572666c6f770000815250610dcf56fe4c5553443a2043616c6c6572206973206e6569746865722054726f76654d616e61676572206e6f722053746162696c697479506f6f6c45524332303a206275726e20616d6f756e7420657863656564732062616c616e636545524332303a207472616e7366657220616d6f756e7420657863656564732062616c616e63654c5553443a2043616c6c6572206973206e65697468657220426f72726f7765724f7065726174696f6e73206e6f722054726f76654d616e61676572206e6f722053746162696c697479506f6f6c4c5553443a2043616c6c6572206973206e6f74207468652053746162696c697479506f6f6c4c555344546f6b656e3a2043616c6c6572206973206e6f7420426f72726f7765724f7065726174696f6e7345524332303a207472616e7366657220616d6f756e74206578636565647320616c6c6f77616e63654c5553443a2043616e6e6f74207472616e7366657220746f6b656e73206469726563746c7920746f207468652053746162696c697479506f6f6c2c2054726f76654d616e61676572206f7220426f72726f7765724f7073ddf252ad1be2c89b69c2b068fc378daa952ba7f163c4a11628f55a4df523b3ef45524332303a2064656372656173656420616c6c6f77616e63652062656c6f77207a65726f4c5553443a2043616e6e6f74207472616e7366657220746f6b656e73206469726563746c7920746f20746865204c55534420746f6b656e20636f6e7472616374206f7220746865207a65726f2061646472657373a26469706673582212206dc65db95e865cba6ffa713e3be890a08b3e49d6cbd99b74dd8407f56a90cb5a64736f6c634300060b0033608060405234801561001057600080fd5b50600080546001600160a01b0319163390811782556040519091907f8be0079c531659141344cd1fd0a4f28419497f9722a3daafe3b4186f6b6457e0908290a3610a7a8061005f6000396000f3fe6080604052600436106100955760003560e01c80638f32d59b116100595780638f32d59b146101ac5780639b56d6c9146101d5578063b08bc72214610208578063b32beb5b1461021d578063b7f8cf9b14610250576100ba565b806314f6c3be146100bf578063363bf964146100e65780633f10abab1461012d5780635a4d28bb146101665780638da5cb5b14610197576100ba565b366100ba576100a2610265565b6004546100b5903463ffffffff6102b016565b600455005b600080fd5b3480156100cb57600080fd5b506100d4610311565b60408051918252519081900360200190f35b3480156100f257600080fd5b5061012b6004803603606081101561010957600080fd5b506001600160a01b038135811691602081013582169160409091013516610317565b005b34801561013957600080fd5b5061012b6004803603604081101561015057600080fd5b506001600160a01b03813516906020013561047d565b34801561017257600080fd5b5061017b610509565b604080516001600160a01b039092168252519081900360200190f35b3480156101a357600080fd5b5061017b610518565b3480156101b857600080fd5b506101c1610527565b604080519115158252519081900360200190f35b3480156101e157600080fd5b506100d4600480360360208110156101f857600080fd5b50356001600160a01b0316610538565b34801561021457600080fd5b5061017b610553565b34801561022957600080fd5b5061012b6004803603602081101561024057600080fd5b50356001600160a01b0316610562565b34801561025c57600080fd5b5061017b6106f7565b6003546001600160a01b031633146102ae5760405162461bcd60e51b815260040180806020018281038252602a81526020018061099b602a913960400191505060405180910390fd5b565b60008282018381101561030a576040805162461bcd60e51b815260206004820152601b60248201527f536166654d6174683a206164646974696f6e206f766572666c6f770000000000604482015290519081900360640190fd5b9392505050565b60045490565b61031f610527565b610370576040805162461bcd60e51b815260206004820181905260248201527f4f776e61626c653a2063616c6c6572206973206e6f7420746865206f776e6572604482015290519081900360640190fd5b61037983610706565b61038282610706565b61038b81610706565b600180546001600160a01b038086166001600160a01b0319928316811790935560028054868316908416179055600380549185169190921617905560408051918252517f3ca631ffcd2a9b5d9ae18543fc82f58eb4ca33af9e6ab01b7a8e95331e6ed9859181900360200190a1604080516001600160a01b038416815290517f143219c9e69b09e07e095fcc889b43d8f46ca892bba65f08dc3a0050869a56789181900360200190a1604080516001600160a01b038316815290517f78f058b189175430c48dc02699e3a0031ea4ff781536dc2fab847de4babdd8829181900360200190a16104786107b9565b505050565b610485610803565b6001600160a01b0382166000908152600560205260408120546104ae908363ffffffff6102b016565b6001600160a01b0384166000818152600560209081526040918290208490558151848152915193945091927ff0393a34d05e6567686ad4e097f9d9d2781565957394f1f0d984e5d8e6378f20929181900390910190a2505050565b6002546001600160a01b031681565b6000546001600160a01b031690565b6000546001600160a01b0316331490565b6001600160a01b031660009081526005602052604090205490565b6003546001600160a01b031681565b61056a61084c565b6001600160a01b038116600090815260056020526040902054806105bf5760405162461bcd60e51b815260040180806020018281038252603181526020018061096a6031913960400191505060405180910390fd5b6001600160a01b03821660008181526005602090815260408083208390558051928352517ff0393a34d05e6567686ad4e097f9d9d2781565957394f1f0d984e5d8e6378f209281900390910190a2600454610620908263ffffffff61089516565b600455604080516001600160a01b03841681526020810183905281517f6109e2559dfa766aaec7118351d48a523f0a4157f49c8d68749c8ac41318ad12929181900390910190a16040516000906001600160a01b0384169083908381818185875af1925050503d80600081146106b2576040519150601f19603f3d011682016040523d82523d6000602084013e6106b7565b606091505b50509050806104785760405162461bcd60e51b81526004018080602001828103825260238152602001806109c56023913960400191505060405180910390fd5b6001546001600160a01b031681565b6001600160a01b038116610761576040805162461bcd60e51b815260206004820152601e60248201527f4163636f756e742063616e6e6f74206265207a65726f20616464726573730000604482015290519081900360640190fd5b803b806107b5576040805162461bcd60e51b815260206004820181905260248201527f4163636f756e7420636f64652073697a652063616e6e6f74206265207a65726f604482015290519081900360640190fd5b5050565b600080546040516001600160a01b03909116907f8be0079c531659141344cd1fd0a4f28419497f9722a3daafe3b4186f6b6457e0908390a3600080546001600160a01b0319169055565b6002546001600160a01b031633146102ae5760405162461bcd60e51b815260040180806020018281038252602b815260200180610a1a602b913960400191505060405180910390fd5b6001546001600160a01b031633146102ae5760405162461bcd60e51b81526004018080602001828103825260328152602001806109e86032913960400191505060405180910390fd5b600061030a83836040518060400160405280601e81526020017f536166654d6174683a207375627472616374696f6e206f766572666c6f770000815250600081848411156109615760405162461bcd60e51b81526004018080602001828103825283818151815260200191508051906020019080838360005b8381101561092657818101518382015260200161090e565b50505050905090810190601f1680156109535780820380516001836020036101000a031916815260200191505b509250505060405180910390fd5b50505090039056fe436f6c6c537572706c7573506f6f6c3a204e6f20636f6c6c61746572616c20617661696c61626c6520746f20636c61696d436f6c6c537572706c7573506f6f6c3a2043616c6c6572206973206e6f742041637469766520506f6f6c436f6c6c537572706c7573506f6f6c3a2073656e64696e6720455448206661696c6564436f6c6c537572706c7573506f6f6c3a2043616c6c6572206973206e6f7420426f72726f776572204f7065726174696f6e73436f6c6c537572706c7573506f6f6c3a2043616c6c6572206973206e6f742054726f76654d616e61676572a2646970667358221220014e547511aab1be4e0d81b5cd82d2a552e5981c9a47d58d7a6746ce61148f0264736f6c634300060b00336080604052680ad78ebc5ac620000060005534801561001d57600080fd5b5060cb8061002c6000396000f3fe6080604052348015600f57600080fd5b5060043610603c5760003560e01c80630fdb11cf14604157806391b7f5ed14605957806398d5fdca146041575b600080fd5b60476087565b60408051918252519081900360200190f35b607360048036036020811015606d57600080fd5b5035608d565b604080519115158252519081900360200190f35b60005490565b60005560019056fea2646970667358221220987d1afde74388e098a39b40724f88f529e6c3ebb79473037c7e38555b3a243e64736f6c634300060b0033608060405234801561001057600080fd5b50600080546001600160a01b0319163390811782556040519091907f8be0079c531659141344cd1fd0a4f28419497f9722a3daafe3b4186f6b6457e0908290a361181e8061005f6000396000f3fe608060405234801561001057600080fd5b506004361061012c5760003560e01c8063681fe70c116100ad578063b72703ac11610071578063b72703ac1461035f578063b7f8cf9b14610385578063babd3d9a1461038d578063de8fa43114610395578063f376d7981461039d5761012c565b8063681fe70c146102e757806373d4a13a146102ef578063765e0159146103295780638da5cb5b1461034f5780638f32d59b146103575761012c565b8063416980dc116100f4578063416980dc1461020957806346f7cf87146102635780634d6228311461029f5780635dbe47e8146102a757806363e1d57c146102cd5761012c565b80631e2231431461013157806329092d0e146101555780632be212601461017d5780633d83908a146101b95780633fce12d5146101c1575b600080fd5b6101396103d1565b604080516001600160a01b039092168252519081900360200190f35b61017b6004803603602081101561016b57600080fd5b50356001600160a01b03166103e0565b005b61017b6004803603608081101561019357600080fd5b506001600160a01b038135811691602081013591604082013581169160600135166103f4565b6101396104a9565b6101f5600480360360608110156101d757600080fd5b508035906001600160a01b03602082013581169160400135166104b8565b604080519115158252519081900360200190f35b61023d6004803603606081101561021f57600080fd5b508035906001600160a01b03602082013581169160400135166104db565b604080516001600160a01b03938416815291909216602082015281519081900390910190f35b61017b6004803603608081101561027957600080fd5b506001600160a01b03813581169160208101359160408201358116916060013516610505565b61013961051a565b6101f5600480360360208110156102bd57600080fd5b50356001600160a01b0316610529565b6102d5610547565b60408051918252519081900360200190f35b6101f561054d565b6102f7610554565b604080516001600160a01b03958616815293909416602084015282840191909152606082015290519081900360800190f35b6101396004803603602081101561033f57600080fd5b50356001600160a01b0316610573565b610139610596565b6101f56105a5565b6101396004803603602081101561037557600080fd5b50356001600160a01b03166105b6565b6101396105d7565b6101f56105e6565b6102d56105f0565b61017b600480360360608110156103b357600080fd5b508035906001600160a01b03602082013581169160400135166105f6565b6003546001600160a01b031690565b6103e861074e565b6103f181610799565b50565b6002546001600160a01b0316610409816109cd565b61041285610529565b61044d5760405162461bcd60e51b815260040180806020018281038252602a815260200180611721602a913960400191505060405180910390fd5b6000841161048c5760405162461bcd60e51b81526004018080602001828103825260238152602001806117c66023913960400191505060405180910390fd5b61049585610799565b6104a28186868686610a29565b5050505050565b6002546001600160a01b031681565b6002546000906104d3906001600160a01b0316858585610dad565b949350505050565b60025460009081906104f8906001600160a01b0316868686611054565b915091505b935093915050565b6002546001600160a01b0316610495816109cd565b6004546001600160a01b031690565b6001600160a01b031660009081526007602052604090205460ff1690565b60055490565b6006541590565b6003546004546005546006546001600160a01b03938416939092169184565b6001600160a01b0390811660009081526007602052604090205461010090041690565b6000546001600160a01b031690565b6000546001600160a01b0316331490565b6001600160a01b039081166000908152600760205260409020600101541690565b6001546001600160a01b031681565b6005546006541490565b60065490565b6105fe6105a5565b61064f576040805162461bcd60e51b815260206004820181905260248201527f4f776e61626c653a2063616c6c6572206973206e6f7420746865206f776e6572604482015290519081900360640190fd5b6000831161068e5760405162461bcd60e51b815260040180806020018281038252602281526020018061174b6022913960400191505060405180910390fd5b61069782611241565b6106a081611241565b6005839055600280546001600160a01b038085166001600160a01b03199283168117909355600180549185169190921617905560408051918252517f143219c9e69b09e07e095fcc889b43d8f46ca892bba65f08dc3a0050869a56789181900360200190a1604080516001600160a01b038316815290517f3ca631ffcd2a9b5d9ae18543fc82f58eb4ca33af9e6ab01b7a8e95331e6ed9859181900360200190a16107496112f4565b505050565b6002546001600160a01b031633146107975760405162461bcd60e51b815260040180806020018281038252602c81526020018061176d602c913960400191505060405180910390fd5b565b6107a281610529565b6107dd5760405162461bcd60e51b815260040180806020018281038252602a815260200180611721602a913960400191505060405180910390fd5b60065460011015610923576003546001600160a01b038281169116141561084c576001600160a01b03818116600090815260076020526040808220546003805461010090920485166001600160a01b03199283161790819055909316825290206001018054909116905561091e565b6004546001600160a01b03828116911614156108b3576001600160a01b0380821660009081526007602052604080822060010154600480546001600160a01b03191691851691909117908190559092168152208054610100600160a81b031916905561091e565b6001600160a01b038082166000908152600760205260408082208054600180830180548716865284862080546101009485900489168502610100600160a81b03199091161790555492549190910485168452919092200180546001600160a01b031916919092161790555b610940565b600380546001600160a01b03199081169091556004805490911690555b6001600160a01b038116600090815260076020526040902080546001600160a81b0319168155600190810180546001600160a01b031916905560065461098b9163ffffffff61133e16565b600655604080516001600160a01b038316815290517fcfc24166db4bb677e857cacabd1541fb2b30645021b27c5130419589b84db52b9181900360200190a150565b6001546001600160a01b03163314806109ee5750336001600160a01b038216145b6103f15760405162461bcd60e51b815260040180806020018281038252602d815260200180611799602d913960400191505060405180910390fd5b610a316105e6565b15610a83576040805162461bcd60e51b815260206004820152601a60248201527f536f7274656454726f7665733a204c6973742069732066756c6c000000000000604482015290519081900360640190fd5b610a8c84610529565b15610ac85760405162461bcd60e51b815260040180806020018281038252602c8152602001806116f5602c913960400191505060405180910390fd5b6001600160a01b038416610b23576040805162461bcd60e51b815260206004820152601f60248201527f536f7274656454726f7665733a2049642063616e6e6f74206265207a65726f00604482015290519081900360640190fd5b60008311610b625760405162461bcd60e51b81526004018080602001828103825260238152602001806117c66023913960400191505060405180910390fd5b8181610b7087868484610dad565b610b8657610b8087868484611054565b90925090505b6001600160a01b038087166000908152600760205260409020805460ff191660011790558216158015610bc057506001600160a01b038116155b15610bf557600380546001600160a01b0388166001600160a01b03199182168117909255600480549091169091179055610d49565b6001600160a01b038216610c6957600380546001600160a01b03888116600081815260076020526040808220805495851661010002610100600160a81b0319909616959095179094558454909216825291902060010180546001600160a01b03199081168317909155825416179055610d49565b6001600160a01b038116610cd957600480546001600160a01b0388811660008181526007602052604080822060010180549585166001600160a01b031996871617905585549093168152919091208054610100600160a81b03191661010083021790558254909116179055610d49565b6001600160a01b038087166000818152600760205260408082208054858716610100818102610100600160a81b031993841617845560019384018054988b166001600160a01b0319998a168117909155865284862080549188029190931617909155835291200180549092161790555b600654610d5d90600163ffffffff61138716565b600655604080516001600160a01b03881681526020810187905281517fe02b43adbee0c123de070a04554a71877a0007e2fc161466299cae3c094fe82f929181900390910190a150505050505050565b60006001600160a01b038316158015610dcd57506001600160a01b038216155b15610de157610dda61054d565b90506104d3565b6001600160a01b038316610e93576003546001600160a01b038381169116148015610dda5750846001600160a01b031663b0d8e181836040518263ffffffff1660e01b815260040180826001600160a01b03166001600160a01b0316815260200191505060206040518083038186803b158015610e5d57600080fd5b505afa158015610e71573d6000803e3d6000fd5b505050506040513d6020811015610e8757600080fd5b505184101590506104d3565b6001600160a01b038216610f45576004546001600160a01b038481169116148015610dda5750846001600160a01b031663b0d8e181846040518263ffffffff1660e01b815260040180826001600160a01b03166001600160a01b0316815260200191505060206040518083038186803b158015610f0f57600080fd5b505afa158015610f23573d6000803e3d6000fd5b505050506040513d6020811015610f3957600080fd5b505184111590506104d3565b6001600160a01b0383811660009081526007602052604090205461010090048116908316148015610ff7575083856001600160a01b031663b0d8e181856040518263ffffffff1660e01b815260040180826001600160a01b03166001600160a01b0316815260200191505060206040518083038186803b158015610fc857600080fd5b505afa158015610fdc573d6000803e3d6000fd5b505050506040513d6020811015610ff257600080fd5b505110155b8015610dda5750846001600160a01b031663b0d8e181836040518263ffffffff1660e01b815260040180826001600160a01b03166001600160a01b0316815260200191505060206040518083038186803b158015610e5d57600080fd5b60008083836001600160a01b038216156111075761107182610529565b15806110fd5750876001600160a01b031663b0d8e181836040518263ffffffff1660e01b815260040180826001600160a01b03166001600160a01b0316815260200191505060206040518083038186803b1580156110ce57600080fd5b505afa1580156110e2573d6000803e3d6000fd5b505050506040513d60208110156110f857600080fd5b505187115b1561110757600091505b6001600160a01b038116156111b45761111f81610529565b15806111ab5750876001600160a01b031663b0d8e181826040518263ffffffff1660e01b815260040180826001600160a01b03166001600160a01b0316815260200191505060206040518083038186803b15801561117c57600080fd5b505afa158015611190573d6000803e3d6000fd5b505050506040513d60208110156111a657600080fd5b505187105b156111b4575060005b6001600160a01b0382161580156111d257506001600160a01b038116155b156111fb576003546111f090899089906001600160a01b03166113e1565b935093505050611238565b6001600160a01b038216611214576111f0888883611522565b6001600160a01b03811661122d576111f08888846113e1565b6111f08888846113e1565b94509492505050565b6001600160a01b03811661129c576040805162461bcd60e51b815260206004820152601e60248201527f4163636f756e742063616e6e6f74206265207a65726f20616464726573730000604482015290519081900360640190fd5b803b806112f0576040805162461bcd60e51b815260206004820181905260248201527f4163636f756e7420636f64652073697a652063616e6e6f74206265207a65726f604482015290519081900360640190fd5b5050565b600080546040516001600160a01b03909116907f8be0079c531659141344cd1fd0a4f28419497f9722a3daafe3b4186f6b6457e0908390a3600080546001600160a01b0319169055565b600061138083836040518060400160405280601e81526020017f536166654d6174683a207375627472616374696f6e206f766572666c6f77000081525061165d565b9392505050565b600082820183811015611380576040805162461bcd60e51b815260206004820152601b60248201527f536166654d6174683a206164646974696f6e206f766572666c6f770000000000604482015290519081900360640190fd5b60035460009081906001600160a01b0384811691161480156114845750846001600160a01b031663b0d8e181846040518263ffffffff1660e01b815260040180826001600160a01b03166001600160a01b0316815260200191505060206040518083038186803b15801561145457600080fd5b505afa158015611468573d6000803e3d6000fd5b505050506040513d602081101561147e57600080fd5b50518410155b15611494575060009050816104fd565b6001600160a01b038084166000908152600760205260409020548491610100909104165b6001600160a01b038216158015906114d957506114d787878484610dad565b155b1561151657506001600160a01b039081166000908152600760205260408082205461010090819004841680845291909220549092919004166114b8565b90969095509350505050565b60045460009081906001600160a01b0384811691161480156115c55750846001600160a01b031663b0d8e181846040518263ffffffff1660e01b815260040180826001600160a01b03166001600160a01b0316815260200191505060206040518083038186803b15801561159557600080fd5b505afa1580156115a9573d6000803e3d6000fd5b505050506040513d60208110156115bf57600080fd5b50518411155b156115d5575081905060006104fd565b6001600160a01b038084166000908152600760205260409020600101548491165b6001600160a01b03821615801590611617575061161587878385610dad565b155b1561165257506001600160a01b03908116600090815260076020526040808220600190810154841680845291909220909101549091166115f6565b969095509350505050565b600081848411156116ec5760405162461bcd60e51b81526004018080602001828103825283818151815260200191508051906020019080838360005b838110156116b1578181015183820152602001611699565b50505050905090810190601f1680156116de5780820380516001836020036101000a031916815260200191505b509250505060405180910390fd5b50505090039056fe536f7274656454726f7665733a204c69737420616c726561647920636f6e7461696e7320746865206e6f6465536f7274656454726f7665733a204c69737420646f6573206e6f7420636f6e7461696e20746865206964536f7274656454726f7665733a2053697a652063616ee2809974206265207a65726f536f7274656454726f7665733a2043616c6c6572206973206e6f74207468652054726f76654d616e61676572536f7274656454726f7665733a2043616c6c6572206973206e65697468657220424f206e6f722054726f76654d536f7274656454726f7665733a204e494352206d75737420626520706f736974697665a2646970667358221220dad4613c6bab93e68017a8842c7ccf4da5d978634acba391970548b98b95f09a64736f6c634300060b0033608060405234801561001057600080fd5b50604051610e35380380610e358339818101604052608081101561003357600080fd5b50805160208201516040830151606090930151600080546001600160a01b039485166001600160a01b0319918216179091556001805493851693821693909317909255600280549484169483169490941790935560038054929093169116179055610d92806100a36000396000f3fe6080604052600436106100ed5760003560e01c80637a97d838116100855780637a97d8381461034f5780637bbb0f5e1461039057806391134731146103d1578063cc51a6c214610413578063cf83544f1461044c578063d466e4eb14610485578063d94bcec2146104be578063f47a1ea714610501578063fb8d67fc1461052b576100f4565b806332e859b9146100f957806335b101791461012f578063390b5f271461018a5780634903a3dd146101d75780634afbac51146101ec5780634c36240b146102695780634d37261f146102a2578063641b09b6146102d5578063650b559c146102ff576100f4565b366100f457005b600080fd5b61012d6004803603606081101561010f57600080fd5b508035906001600160a01b0360208201358116916040013516610574565b005b34801561013b57600080fd5b5061012d600480360360e081101561015257600080fd5b508035906001600160a01b03602082013581169160408101358216916060820135169060808101359060a08101359060c001356105eb565b34801561019657600080fd5b506101c3600480360360408110156101ad57600080fd5b506001600160a01b038135169060200135610683565b604080519115158252519081900360200190f35b3480156101e357600080fd5b5061012d61070f565b3480156101f857600080fd5b5061012d6004803603602081101561020f57600080fd5b81019060208101813564010000000081111561022a57600080fd5b82018360208201111561023c57600080fd5b8035906020019184602083028401116401000000008311171561025e57600080fd5b509092509050610779565b34801561027557600080fd5b5061012d6004803603604081101561028c57600080fd5b50803590602001356001600160a01b0316610812565b3480156102ae57600080fd5b5061012d600480360360208110156102c557600080fd5b50356001600160a01b0316610867565b3480156102e157600080fd5b5061012d600480360360208110156102f857600080fd5b50356108cd565b61012d600480360360e081101561031557600080fd5b5080359060208101359060408101359060608101351515906001600160a01b03608082013581169160a08101359091169060c0013561091a565b34801561035b57600080fd5b5061012d6004803603606081101561037257600080fd5b508035906001600160a01b03602082013581169160400135166109b2565b34801561039c57600080fd5b5061012d600480360360608110156103b357600080fd5b508035906001600160a01b0360208201358116916040013516610a2c565b61012d600480360360a08110156103e757600080fd5b508035906020810135906001600160a01b03604082013581169160608101359091169060800135610a89565b34801561041f57600080fd5b506101c36004803603604081101561043657600080fd5b506001600160a01b038135169060200135610b10565b34801561045857600080fd5b506101c36004803603604081101561046f57600080fd5b506001600160a01b038135169060200135610b69565b34801561049157600080fd5b506101c3600480360360408110156104a857600080fd5b506001600160a01b038135169060200135610bc2565b3480156104ca57600080fd5b506101c3600480360360608110156104e157600080fd5b506001600160a01b03813581169160208101359091169060400135610c1b565b34801561050d57600080fd5b5061012d6004803603602081101561052457600080fd5b5035610cb0565b34801561053757600080fd5b5061012d6004803603608081101561054e57600080fd5b508035906001600160a01b03602082013581169160408101359091169060600135610cf8565b600154604080516368647db160e01b81526001600160a01b0385811660048301528481166024830152915191909216916368647db191869160448082019260009290919082900301818588803b1580156105cd57600080fd5b505af11580156105e1573d6000803e3d6000fd5b5050505050505050565b6000805460408051635e69ba9360e11b8152600481018b90526001600160a01b038a81166024830152898116604483015288811660648301526084820188905260a4820187905260c482018690529151919092169263bcd375269260e4808201939182900301818387803b15801561066257600080fd5b505af1158015610676573d6000803e3d6000fd5b5050505050505050505050565b6003546040805163a9059cbb60e01b81526001600160a01b038581166004830152602482018590529151600093929092169163a9059cbb9160448082019260209290919082900301818787803b1580156106dc57600080fd5b505af11580156106f0573d6000803e3d6000fd5b505050506040513d602081101561070657600080fd5b50519392505050565b600160009054906101000a90046001600160a01b03166001600160a01b0316630e704d506040518163ffffffff1660e01b8152600401600060405180830381600087803b15801561075f57600080fd5b505af1158015610773573d6000803e3d6000fd5b50505050565b600054604051631e8b1c2b60e01b8152602060048201818152602483018590526001600160a01b0390931692631e8b1c2b92869286929182916044909101908590850280828437600081840152601f19601f8201169050808301925050509350505050600060405180830381600087803b1580156107f657600080fd5b505af115801561080a573d6000803e3d6000fd5b505050505050565b60025460408051635f788d6560e01b8152600481018590526001600160a01b03848116602483015291519190921691635f788d6591604480830192600092919082900301818387803b1580156107f657600080fd5b60008054604080516305f0caad60e31b81526001600160a01b03858116600483015291519190921692632f865568926024808201939182900301818387803b1580156108b257600080fd5b505af11580156108c6573d6000803e3d6000fd5b5050505050565b60025460408051632e54bf9560e01b81526004810184905290516001600160a01b0390921691632e54bf959160248082019260009290919082900301818387803b1580156108b257600080fd5b60015460408051630635367960e51b815260048101849052602481018990526044810188905286151560648201526001600160a01b03868116608483015285811660a48301529151919092169163c6a6cf20918a9160c48082019260009290919082900301818588803b15801561099057600080fd5b505af11580156109a4573d6000803e3d6000fd5b505050505050505050505050565b600154604080516304491fa760e01b8152600481018690526001600160a01b0385811660248301528481166044830152915191909216916304491fa791606480830192600092919082900301818387803b158015610a0f57600080fd5b505af1158015610a23573d6000803e3d6000fd5b50505050505050565b6001546040805163154c09cf60e21b8152600481018690526001600160a01b038581166024830152848116604483015291519190921691635530273c91606480830192600092919082900301818387803b158015610a0f57600080fd5b6001546040805163860665b360e01b815260048101849052602481018790526001600160a01b03868116604483015285811660648301529151919092169163860665b391889160848082019260009290919082900301818588803b158015610af057600080fd5b505af1158015610b04573d6000803e3d6000fd5b50505050505050505050565b60035460408051633950935160e01b81526001600160a01b038581166004830152602482018590529151600093929092169163395093519160448082019260209290919082900301818787803b1580156106dc57600080fd5b6003546040805163095ea7b360e01b81526001600160a01b038581166004830152602482018590529151600093929092169163095ea7b39160448082019260209290919082900301818787803b1580156106dc57600080fd5b6003546040805163a457c2d760e01b81526001600160a01b038581166004830152602482018590529151600093929092169163a457c2d79160448082019260209290919082900301818787803b1580156106dc57600080fd5b600354604080516323b872dd60e01b81526001600160a01b038681166004830152858116602483015260448201859052915160009392909216916323b872dd9160648082019260209290919082900301818787803b158015610c7c57600080fd5b505af1158015610c90573d6000803e3d6000fd5b505050506040513d6020811015610ca657600080fd5b5051949350505050565b600080546040805163653d46e760e01b81526004810185905290516001600160a01b039092169263653d46e79260248084019382900301818387803b1580156108b257600080fd5b600154604080516302309cbf60e31b815260048101849052602481018790526001600160a01b038681166044830152858116606483015291519190921691631184e5f891608480830192600092919082900301818387803b1580156105cd57600080fdfea2646970667358221220eb1cf8519a43f09eb9a19fb1486cf58e4774cbc78186b701f7ad4a73fa0a64bf64736f6c634300060b0033",
  "linkReferences": {},
  "deployedLinkReferences": {}
}