{
  "_format": "hh-sol-artifact-1",
  "contractName": "EchidnaTester",
  "sourceName": "contracts/TestContracts/EchidnaTester.sol",
  "abi": [
    {
      "inputs": [],
      "stateMutability": "payable",
      "type": "constructor"
    },
    {
      "inputs": [],
      "name": "activePool",
      "outputs": [
        {
          "internalType": "contract ActivePool",
          "name": "",
          "type": "address"
        }
      ],
      "stateMutability": "view",
      "type": "function"
    },
    {
      "inputs": [
        {
          "internalType": "uint256",
          "name": "_i",
          "type": "uint256"
        },
        {
          "internalType": "uint256",
          "name": "_ETH",
          "type": "uint256"
        }
      ],
      "name": "addCollExt",
      "outputs": [],
      "stateMutability": "payable",
      "type": "function"
    },
    {
      "inputs": [
        {
          "internalType": "uint256",
          "name": "_i",
          "type": "uint256"
        },
        {
          "internalType": "uint256",
          "name": "_ETH",
          "type": "uint256"
        },
        {
          "internalType": "address",
          "name": "_upperHint",
          "type": "address"
        },
        {
          "internalType": "address",
          "name": "_lowerHint",
          "type": "address"
        }
      ],
      "name": "addCollRawExt",
      "outputs": [],
      "stateMutability": "payable",
      "type": "function"
    },
    {
      "inputs": [
        {
          "internalType": "uint256",
          "name": "_i",
          "type": "uint256"
        },
        {
          "internalType": "uint256",
          "name": "_ETH",
          "type": "uint256"
        },
        {
          "internalType": "uint256",
          "name": "_collWithdrawal",
          "type": "uint256"
        },
        {
          "internalType": "uint256",
          "name": "_debtChange",
          "type": "uint256"
        },
        {
          "internalType": "bool",
          "name": "_isDebtIncrease",
          "type": "bool"
        }
      ],
      "name": "adjustTroveExt",
      "outputs": [],
      "stateMutability": "payable",
      "type": "function"
    },
    {
      "inputs": [
        {
          "internalType": "uint256",
          "name": "_i",
          "type": "uint256"
        },
        {
          "internalType": "uint256",
          "name": "_ETH",
          "type": "uint256"
        },
        {
          "internalType": "uint256",
          "name": "_collWithdrawal",
          "type": "uint256"
        },
        {
          "internalType": "uint256",
          "name": "_debtChange",
          "type": "uint256"
        },
        {
          "internalType": "bool",
          "name": "_isDebtIncrease",
          "type": "bool"
        },
        {
          "internalType": "address",
          "name": "_upperHint",
          "type": "address"
        },
        {
          "internalType": "address",
          "name": "_lowerHint",
          "type": "address"
        },
        {
          "internalType": "uint256",
          "name": "_maxFee",
          "type": "uint256"
        }
      ],
      "name": "adjustTroveRawExt",
      "outputs": [],
      "stateMutability": "payable",
      "type": "function"
    },
    {
      "inputs": [
        {
          "internalType": "uint256",
          "name": "_i",
          "type": "uint256"
        },
        {
          "internalType": "address",
          "name": "spender",
          "type": "address"
        },
        {
          "internalType": "uint256",
          "name": "amount",
          "type": "uint256"
        }
      ],
      "name": "approveExt",
      "outputs": [
        {
          "internalType": "bool",
          "name": "",
          "type": "bool"
        }
      ],
      "stateMutability": "nonpayable",
      "type": "function"
    },
    {
      "inputs": [
        {
          "internalType": "uint256",
          "name": "_i",
          "type": "uint256"
        },
        {
          "internalType": "address[]",
          "name": "_troveArray",
          "type": "address[]"
        }
      ],
      "name": "batchLiquidateTrovesExt",
      "outputs": [],
      "stateMutability": "nonpayable",
      "type": "function"
    },
    {
      "inputs": [],
      "name": "borrowerOperations",
      "outputs": [
        {
          "internalType": "contract BorrowerOperations",
          "name": "",
          "type": "address"
        }
      ],
      "stateMutability": "view",
      "type": "function"
    },
    {
      "inputs": [
        {
          "internalType": "uint256",
          "name": "_i",
          "type": "uint256"
        }
      ],
      "name": "closeTroveExt",
      "outputs": [],
      "stateMutability": "nonpayable",
      "type": "function"
    },
    {
      "inputs": [],
      "name": "collSurplusPool",
      "outputs": [
        {
          "internalType": "contract CollSurplusPool",
          "name": "",
          "type": "address"
        }
      ],
      "stateMutability": "view",
      "type": "function"
    },
    {
      "inputs": [
        {
          "internalType": "uint256",
          "name": "_i",
          "type": "uint256"
        },
        {
          "internalType": "address",
          "name": "spender",
          "type": "address"
        },
        {
          "internalType": "uint256",
          "name": "subtractedValue",
          "type": "uint256"
        }
      ],
      "name": "decreaseAllowanceExt",
      "outputs": [
        {
          "internalType": "bool",
          "name": "",
          "type": "bool"
        }
      ],
      "stateMutability": "nonpayable",
      "type": "function"
    },
    {
      "inputs": [],
      "name": "defaultPool",
      "outputs": [
        {
          "internalType": "contract DefaultPool",
          "name": "",
          "type": "address"
        }
      ],
      "stateMutability": "view",
      "type": "function"
    },
    {
      "inputs": [
        {
          "internalType": "uint256",
          "name": "",
          "type": "uint256"
        }
      ],
      "name": "echidnaProxies",
      "outputs": [
        {
          "internalType": "contract EchidnaProxy",
          "name": "",
          "type": "address"
        }
      ],
      "stateMutability": "view",
      "type": "function"
    },
    {
      "inputs": [],
      "name": "echidna_ETH_balances",
      "outputs": [
        {
          "internalType": "bool",
          "name": "",
          "type": "bool"
        }
      ],
      "stateMutability": "view",
      "type": "function"
    },
    {
      "inputs": [],
      "name": "echidna_LUSD_global_balances",
      "outputs": [
        {
          "internalType": "bool",
          "name": "",
          "type": "bool"
        }
      ],
      "stateMutability": "view",
      "type": "function"
    },
    {
      "inputs": [],
      "name": "echidna_canary_active_pool_balance",
      "outputs": [
        {
          "internalType": "bool",
          "name": "",
          "type": "bool"
        }
      ],
      "stateMutability": "view",
      "type": "function"
    },
    {
      "inputs": [],
      "name": "echidna_canary_number_of_troves",
      "outputs": [
        {
          "internalType": "bool",
          "name": "",
          "type": "bool"
        }
      ],
      "stateMutability": "view",
      "type": "function"
    },
    {
      "inputs": [],
      "name": "echidna_price",
      "outputs": [
        {
          "internalType": "bool",
          "name": "",
          "type": "bool"
        }
      ],
      "stateMutability": "view",
      "type": "function"
    },
    {
      "inputs": [],
      "name": "echidna_trove_properties",
      "outputs": [
        {
          "internalType": "bool",
          "name": "",
          "type": "bool"
        }
      ],
      "stateMutability": "view",
      "type": "function"
    },
    {
      "inputs": [],
      "name": "echidna_troves_order",
      "outputs": [
        {
          "internalType": "bool",
          "name": "",
          "type": "bool"
        }
      ],
      "stateMutability": "view",
      "type": "function"
    },
    {
      "inputs": [],
      "name": "gasPool",
      "outputs": [
        {
          "internalType": "contract GasPool",
          "name": "",
          "type": "address"
        }
      ],
      "stateMutability": "view",
      "type": "function"
    },
    {
      "inputs": [
        {
          "internalType": "uint256",
          "name": "_i",
          "type": "uint256"
        },
        {
          "internalType": "address",
          "name": "spender",
          "type": "address"
        },
        {
          "internalType": "uint256",
          "name": "addedValue",
          "type": "uint256"
        }
      ],
      "name": "increaseAllowanceExt",
      "outputs": [
        {
          "internalType": "bool",
          "name": "",
          "type": "bool"
        }
      ],
      "stateMutability": "nonpayable",
      "type": "function"
    },
    {
      "inputs": [
        {
          "internalType": "uint256",
          "name": "_i",
          "type": "uint256"
        },
        {
          "internalType": "address",
          "name": "_user",
          "type": "address"
        }
      ],
      "name": "liquidateExt",
      "outputs": [],
      "stateMutability": "nonpayable",
      "type": "function"
    },
    {
      "inputs": [
        {
          "internalType": "uint256",
          "name": "_i",
          "type": "uint256"
        },
        {
          "internalType": "uint256",
          "name": "_n",
          "type": "uint256"
        }
      ],
      "name": "liquidateTrovesExt",
      "outputs": [],
      "stateMutability": "nonpayable",
      "type": "function"
    },
    {
      "inputs": [],
      "name": "lusdToken",
      "outputs": [
        {
          "internalType": "contract LUSDToken",
          "name": "",
          "type": "address"
        }
      ],
      "stateMutability": "view",
      "type": "function"
    },
    {
      "inputs": [
        {
          "internalType": "uint256",
          "name": "_i",
          "type": "uint256"
        },
        {
          "internalType": "uint256",
          "name": "_ETH",
          "type": "uint256"
        },
        {
          "internalType": "uint256",
          "name": "_LUSDAmount",
          "type": "uint256"
        }
      ],
      "name": "openTroveExt",
      "outputs": [],
      "stateMutability": "payable",
      "type": "function"
    },
    {
      "inputs": [
        {
          "internalType": "uint256",
          "name": "_i",
          "type": "uint256"
        },
        {
          "internalType": "uint256",
          "name": "_ETH",
          "type": "uint256"
        },
        {
          "internalType": "uint256",
          "name": "_LUSDAmount",
          "type": "uint256"
        },
        {
          "internalType": "address",
          "name": "_upperHint",
          "type": "address"
        },
        {
          "internalType": "address",
          "name": "_lowerHint",
          "type": "address"
        },
        {
          "internalType": "uint256",
          "name": "_maxFee",
          "type": "uint256"
        }
      ],
      "name": "openTroveRawExt",
      "outputs": [],
      "stateMutability": "payable",
      "type": "function"
    },
    {
      "inputs": [
        {
          "internalType": "uint256",
          "name": "_i",
          "type": "uint256"
        },
        {
          "internalType": "uint256",
          "name": "_amount",
          "type": "uint256"
        },
        {
          "internalType": "address",
          "name": "_frontEndTag",
          "type": "address"
        }
      ],
      "name": "provideToSPExt",
      "outputs": [],
      "stateMutability": "nonpayable",
      "type": "function"
    },
    {
      "inputs": [
        {
          "internalType": "uint256",
          "name": "_i",
          "type": "uint256"
        },
        {
          "internalType": "uint256",
          "name": "_LUSDAmount",
          "type": "uint256"
        },
        {
          "internalType": "address",
          "name": "_firstRedemptionHint",
          "type": "address"
        },
        {
          "internalType": "address",
          "name": "_upperPartialRedemptionHint",
          "type": "address"
        },
        {
          "internalType": "address",
          "name": "_lowerPartialRedemptionHint",
          "type": "address"
        },
        {
          "internalType": "uint256",
          "name": "_partialRedemptionHintNICR",
          "type": "uint256"
        }
      ],
      "name": "redeemCollateralExt",
      "outputs": [],
      "stateMutability": "nonpayable",
      "type": "function"
    },
    {
      "inputs": [
        {
          "internalType": "uint256",
          "name": "_i",
          "type": "uint256"
        },
        {
          "internalType": "uint256",
          "name": "_amount",
          "type": "uint256"
        },
        {
          "internalType": "address",
          "name": "_upperHint",
          "type": "address"
        },
        {
          "internalType": "address",
          "name": "_lowerHint",
          "type": "address"
        }
      ],
      "name": "repayLUSDExt",
      "outputs": [],
      "stateMutability": "nonpayable",
      "type": "function"
    },
    {
      "inputs": [
        {
          "internalType": "uint256",
          "name": "_price",
          "type": "uint256"
        }
      ],
      "name": "setPriceExt",
      "outputs": [],
      "stateMutability": "nonpayable",
      "type": "function"
    },
    {
      "inputs": [],
      "name": "stabilityPool",
      "outputs": [
        {
          "internalType": "contract StabilityPool",
          "name": "",
          "type": "address"
        }
      ],
      "stateMutability": "view",
      "type": "function"
    },
    {
      "inputs": [
        {
          "internalType": "uint256",
          "name": "_i",
          "type": "uint256"
        },
        {
          "internalType": "address",
          "name": "recipient",
          "type": "address"
        },
        {
          "internalType": "uint256",
          "name": "amount",
          "type": "uint256"
        }
      ],
      "name": "transferExt",
      "outputs": [
        {
          "internalType": "bool",
          "name": "",
          "type": "bool"
        }
      ],
      "stateMutability": "nonpayable",
      "type": "function"
    },
    {
      "inputs": [
        {
          "internalType": "uint256",
          "name": "_i",
          "type": "uint256"
        },
        {
          "internalType": "address",
          "name": "sender",
          "type": "address"
        },
        {
          "internalType": "address",
          "name": "recipient",
          "type": "address"
        },
        {
          "internalType": "uint256",
          "name": "amount",
          "type": "uint256"
        }
      ],
      "name": "transferFromExt",
      "outputs": [
        {
          "internalType": "bool",
          "name": "",
          "type": "bool"
        }
      ],
      "stateMutability": "nonpayable",
      "type": "function"
    },
    {
      "inputs": [],
      "name": "troveManager",
      "outputs": [
        {
          "internalType": "contract TroveManager",
          "name": "",
          "type": "address"
        }
      ],
      "stateMutability": "view",
      "type": "function"
    },
    {
      "inputs": [
        {
          "internalType": "uint256",
          "name": "_i",
          "type": "uint256"
        },
        {
          "internalType": "uint256",
          "name": "_amount",
          "type": "uint256"
        },
        {
          "internalType": "address",
          "name": "_upperHint",
          "type": "address"
        },
        {
          "internalType": "address",
          "name": "_lowerHint",
          "type": "address"
        }
      ],
      "name": "withdrawCollExt",
      "outputs": [],
      "stateMutability": "nonpayable",
      "type": "function"
    },
    {
      "inputs": [
        {
          "internalType": "uint256",
          "name": "_i",
          "type": "uint256"
        },
        {
          "internalType": "uint256",
          "name": "_amount",
          "type": "uint256"
        }
      ],
      "name": "withdrawFromSPExt",
      "outputs": [],
      "stateMutability": "nonpayable",
      "type": "function"
    },
    {
      "inputs": [
        {
          "internalType": "uint256",
          "name": "_i",
          "type": "uint256"
        },
        {
          "internalType": "uint256",
          "name": "_amount",
          "type": "uint256"
        },
        {
          "internalType": "address",
          "name": "_upperHint",
          "type": "address"
        },
        {
          "internalType": "address",
          "name": "_lowerHint",
          "type": "address"
        },
        {
          "internalType": "uint256",
          "name": "_maxFee",
          "type": "uint256"
        }
      ],
      "name": "withdrawLUSDExt",
      "outputs": [],
      "stateMutability": "nonpayable",
      "type": "function"
    }
  ],
  "bytecode": "0x6080604052604051620000129062000aa8565b604051809103906000f0801580156200002f573d6000803e3d6000fd5b50600380546001600160a01b0319166001600160a01b03929092169190911790556040516200005e9062000ab6565b604051809103906000f0801580156200007b573d6000803e3d6000fd5b50600480546001600160a01b0319166001600160a01b0392909216919091179055604051620000aa9062000ac4565b604051809103906000f080158015620000c7573d6000803e3d6000fd5b50600580546001600160a01b0319166001600160a01b0392909216919091179055604051620000f69062000ad2565b604051809103906000f08015801562000113573d6000803e3d6000fd5b50600680546001600160a01b0319166001600160a01b0392909216919091179055604051620001429062000ae0565b604051809103906000f0801580156200015f573d6000803e3d6000fd5b50600780546001600160a01b0319166001600160a01b03929092169190911790556040516200018e9062000aee565b604051809103906000f080158015620001ab573d6000803e3d6000fd5b50600880546001600160a01b0319166001600160a01b039283161790556003546007546004546040519284169391821692911690620001ea9062000afb565b6001600160a01b03938416815291831660208301529091166040808301919091525190819003606001906000f0801580156200022a573d6000803e3d6000fd5b50600a80546001600160a01b0319166001600160a01b0392909216919091179055604051620002599062000b09565b604051809103906000f08015801562000276573d6000803e3d6000fd5b50600980546001600160a01b0319166001600160a01b0392909216919091179055604051620002a59062000b17565b604051809103906000f080158015620002c2573d6000803e3d6000fd5b50600b80546001600160a01b0319166001600160a01b0392909216919091179055604051620002f19062000b24565b604051809103906000f0801580156200030e573d6000803e3d6000fd5b50600c80546001600160a01b0319166001600160a01b03928316179081905560035460048054600554600654600754600854600954600b54600a5460408051636c37a4af60e01b8152988d1699890199909952958b166024880152938a166044870152918916606486015288166084850152871660a4840152861660c4830152851660e48201529284166101048401526000610124840181905290519190931692636c37a4af92610144808201939182900301818387803b158015620003d357600080fd5b505af1158015620003e8573d6000803e3d6000fd5b505060048054600354600554600654600754600854600954600b54600c54600a5460408051636c37a4af60e01b81526001600160a01b039a8b169c81019c909c5297891660248c015295881660448b015293871660648a01529186166084890152851660a4880152841660c4870152831660e48601528216610104850152600061012485018190529051919092169450636c37a4af93506101448084019382900301818387803b1580156200049c57600080fd5b505af1158015620004b1573d6000803e3d6000fd5b50506005546004805460035460075460065460408051634a945f8d60e01b81526001600160a01b039586169681019690965292841660248601529083166044850152821660648401525192169350634a945f8d925060848082019260009290919082900301818387803b1580156200052857600080fd5b505af11580156200053d573d6000803e3d6000fd5b5050600654600354600554604080516348083d7f60e11b81526001600160a01b0393841660048201529183166024830152519190921693506390107afe9250604480830192600092919082900301818387803b1580156200059d57600080fd5b505af1158015620005b2573d6000803e3d6000fd5b505060075460048054600354600554600a54600c54600b546040805163eaa8ba7f60e01b81526001600160a01b039788169881019890985294861660248801529285166044870152908416606486015283166084850152821660a4840152600060c48401819052905191909316945063eaa8ba7f935060e4808301939282900301818387803b1580156200064557600080fd5b505af11580156200065a573d6000803e3d6000fd5b50506009546004805460035460055460408051630d8efe5960e21b81526001600160a01b0394851695810195909552918316602485015282166044840152519216935063363bf964925060648082019260009290919082900301818387803b158015620006c657600080fd5b505af1158015620006db573d6000803e3d6000fd5b5050600c546003546004805460408051631e6edaf360e31b8152670de0b6b3a7640000938101939093526001600160a01b03938416602484015290831660448301525191909216935063f376d7989250606480830192600092919082900301818387803b1580156200074c57600080fd5b505af115801562000761573d6000803e3d6000fd5b506000925050505b6064811015620008a157600354600454600754600a546040516001600160a01b0394851694938416939283169290911690620007a59062000b32565b6001600160a01b039485168152928416602084015290831660408084019190915292166060820152905190819003608001906000f080158015620007ed573d6000803e3d6000fd5b50600d8260648110620007fc57fe5b0180546001600160a01b0319166001600160a01b03929092169190911790556000600d82606481106200082b57fe5b01546040516001600160a01b039091169069d3c21bcecceda100000090600081818185875af1925050503d806000811462000883576040519150601f19603f3d011682016040523d82523d6000602084013e62000888565b606091505b50509050806200089757600080fd5b5060010162000769565b506004805460408051631e5395c960e21b815290516001600160a01b039092169263794e5724928282019260209290829003018186803b158015620008e557600080fd5b505afa158015620008fa573d6000803e3d6000fd5b505050506040513d60208110156200091157600080fd5b50516000556004805460408051635733d58f60e01b815290516001600160a01b0390921692635733d58f928282019260209290829003018186803b1580156200095957600080fd5b505afa1580156200096e573d6000803e3d6000fd5b505050506040513d60208110156200098557600080fd5b505160015560048054604080516305d0d77b60e31b815290516001600160a01b0390921692632e86bbd8928282019260209290829003018186803b158015620009cd57600080fd5b505afa158015620009e2573d6000803e3d6000fd5b505050506040513d6020811015620009f957600080fd5b505160025560005462000a0b57600080fd5b60006001541162000a1b57600080fd5b600b54604080516391b7f5ed60e01b815269021e19e0c9bab2400000600482015290516001600160a01b03909216916391b7f5ed916024808201926020929091908290030181600087803b15801562000a7357600080fd5b505af115801562000a88573d6000803e3d6000fd5b505050506040513d602081101562000a9f57600080fd5b5062000b409050565b614ee380620032dd83390190565b61345080620081c083390190565b610ac5806200b61083390190565b61089f806200c0d583390190565b6136bd806200c97483390190565b605c806201003183390190565b6118ad806201008d83390190565b610ad9806201193a83390190565b60ed806201241383390190565b6117d2806201250083390190565b610e358062013cd283390190565b61278d8062000b506000396000f3fe6080604052600436106102055760003560e01c80637f7dde4a11610113578063b83f91a2116100ab578063d21af9681161006f578063d21af96814610859578063e448912714610882578063efa83cf9146108b2578063f2a903a7146108fa578063fa08b0381461090f57610205565b8063b83f91a214610766578063baf5d65f1461077b578063c325347f146107ab578063c91b364a1461082f578063cda775f91461084457610205565b80637f7dde4a146105d45780638e4707d3146105e957806391a4a42614610628578063980c55d7146106525780639cdd0978146106675780639d9da9d8146106a65780639f56ac18146106f5578063a2f5cbdd1461070a578063a3d368341461071f57610205565b80634557559f116101a157806359bed84b1161016557806359bed84b146104d257806369690936146104e757806377553ad4146105215780637c22900e146105365780637ca8b0281461057f57610205565b80634557559f146103e05780634e792a301461040a57806357285cc5146104435780635895ac4e14610466578063597ec7991461047b57610205565b8063048c661d1461020a57806304bbf59c1461023b578063119be5d01461028e5780631c6fbd23146102cd5780633ca4afc1146103065780633cc74225146103455780633d83908a1461035a57806340ba2e271461036f5780634104fbd314610399575b600080fd5b34801561021657600080fd5b5061021f610924565b604080516001600160a01b039092168252519081900360200190f35b34801561024757600080fd5b5061027a6004803603606081101561025e57600080fd5b508035906001600160a01b036020820135169060400135610933565b604080519115158252519081900360200190f35b34801561029a57600080fd5b5061027a600480360360608110156102b157600080fd5b508035906001600160a01b0360208201351690604001356109d3565b610304600480360360a08110156102e357600080fd5b50803590602081013590604081013590606081013590608001351515610a3e565b005b34801561031257600080fd5b506103046004803603606081101561032957600080fd5b50803590602081013590604001356001600160a01b0316610b26565b34801561035157600080fd5b5061021f610bad565b34801561036657600080fd5b5061021f610bbc565b34801561037b57600080fd5b506103046004803603602081101561039257600080fd5b5035610bcb565b3480156103a557600080fd5b50610304600480360360808110156103bc57600080fd5b508035906020810135906001600160a01b0360408201358116916060013516610c4b565b3480156103ec57600080fd5b506103046004803603602081101561040357600080fd5b5035610cdb565b34801561041657600080fd5b506103046004803603604081101561042d57600080fd5b50803590602001356001600160a01b0316610d61565b6103046004803603604081101561045957600080fd5b5080359060200135610de0565b34801561047257600080fd5b5061027a610e93565b610304600480360361010081101561049257600080fd5b5080359060208101359060408101359060608101359060808101351515906001600160a01b0360a082013581169160c08101359091169060e00135610f2a565b3480156104de57600080fd5b5061027a610fdb565b610304600480360360808110156104fd57600080fd5b508035906020810135906001600160a01b0360408201358116916060013516611290565b34801561052d57600080fd5b5061021f611301565b34801561054257600080fd5b5061027a6004803603608081101561055957600080fd5b508035906001600160a01b03602082013581169160408101359091169060600135611310565b34801561058b57600080fd5b50610304600480360360c08110156105a257600080fd5b508035906020810135906001600160a01b03604082013581169160608101358216916080820135169060a001356113b9565b3480156105e057600080fd5b5061021f611466565b3480156105f557600080fd5b5061027a6004803603606081101561060c57600080fd5b508035906001600160a01b036020820135169060400135611475565b34801561063457600080fd5b5061021f6004803603602081101561064b57600080fd5b50356114e0565b34801561065e57600080fd5b5061027a6114fd565b34801561067357600080fd5b5061027a6004803603606081101561068a57600080fd5b508035906001600160a01b0360208201351690604001356117bf565b3480156106b257600080fd5b50610304600480360360a08110156106c957600080fd5b508035906020810135906001600160a01b0360408201358116916060810135909116906080013561182a565b34801561070157600080fd5b5061027a6118a2565b34801561071657600080fd5b5061027a6118c5565b34801561072b57600080fd5b506103046004803603608081101561074257600080fd5b508035906020810135906001600160a01b03604082013581169160600135166118da565b34801561077257600080fd5b5061021f61194b565b34801561078757600080fd5b506103046004803603604081101561079e57600080fd5b508035906020013561195a565b3480156107b757600080fd5b50610304600480360360408110156107ce57600080fd5b813591908101906040810160208201356401000000008111156107f057600080fd5b82018360208201111561080257600080fd5b8035906020019184602083028401116401000000008311171561082457600080fd5b5090925090506119bb565b34801561083b57600080fd5b5061027a611a4c565b34801561085057600080fd5b5061021f611e72565b6103046004803603606081101561086f57600080fd5b5080359060208101359060400135611e81565b34801561088e57600080fd5b50610304600480360360408110156108a557600080fd5b5080359060200135611fd2565b610304600480360360c08110156108c857600080fd5b508035906020810135906040810135906001600160a01b03606082013581169160808101359091169060a00135612033565b34801561090657600080fd5b5061027a6120b2565b34801561091b57600080fd5b5061021f6122f3565b6007546001600160a01b031681565b600080606485069050600d816064811061094957fe5b01546040805163d466e4eb60e01b81526001600160a01b038781166004830152602482018790529151919092169163d466e4eb9160448083019260209291908290030181600087803b15801561099e57600080fd5b505af11580156109b2573d6000803e3d6000fd5b505050506040513d60208110156109c857600080fd5b509195945050505050565b600080606485069050600d81606481106109e957fe5b01546040805163cf83544f60e01b81526001600160a01b038781166004830152602482018790529151919092169163cf83544f9160448083019260209291908290030181600087803b15801561099e57600080fd5b60006064860690506000600d8260648110610a5557fe5b0154600080546001600160a01b039092169250823191610a789083908a90612302565b9050858515610a9157610a8e82886000546123de565b90505b60408051631942d56760e21b815260048101849052602481018a905260448101839052871515606482015260006084820181905260a4820181905260c4820181905291516001600160a01b0387169263650b559c9260e4808201939182900301818387803b158015610b0257600080fd5b505af1158015610b16573d6000803e3d6000fd5b5050505050505050505050505050565b6000606484069050600d8160648110610b3b57fe5b015460408051634c36240b60e01b8152600481018690526001600160a01b03858116602483015291519190921691634c36240b91604480830192600092919082900301818387803b158015610b8f57600080fd5b505af1158015610ba3573d6000803e3d6000fd5b5050505050505050565b6006546001600160a01b031681565b6003546001600160a01b031681565b6000606482069050600d8160648110610be057fe5b0160009054906101000a90046001600160a01b03166001600160a01b0316634903a3dd6040518163ffffffff1660e01b8152600401600060405180830381600087803b158015610c2f57600080fd5b505af1158015610c43573d6000803e3d6000fd5b505050505050565b6000606485069050600d8160648110610c6057fe5b015460408051630f52fb0760e31b8152600481018790526001600160a01b038681166024830152858116604483015291519190921691637a97d83891606480830192600092919082900301818387803b158015610cbc57600080fd5b505af1158015610cd0573d6000803e3d6000fd5b505050505050505050565b600b54604080516391b7f5ed60e01b81526004810184905290516000926001600160a01b0316916391b7f5ed91602480830192602092919082900301818787803b158015610d2857600080fd5b505af1158015610d3c573d6000803e3d6000fd5b505050506040513d6020811015610d5257600080fd5b5051905080610d5d57fe5b5050565b6000606483069050600d8160648110610d7657fe5b015460408051634d37261f60e01b81526001600160a01b03858116600483015291519190921691634d37261f91602480830192600092919082900301818387803b158015610dc357600080fd5b505af1158015610dd7573d6000803e3d6000fd5b50505050505050565b60006064830690506000600d8260648110610df757fe5b0154600080546001600160a01b039092169250823191610e1a9083908790612302565b604080516332e859b960e01b8152600481018390526000602482018190526044820181905291519293506001600160a01b038616926332e859b99260648084019391929182900301818387803b158015610e7357600080fd5b505af1158015610e87573d6000803e3d6000fd5b50505050505050505050565b600080600b60009054906101000a90046001600160a01b03166001600160a01b03166398d5fdca6040518163ffffffff1660e01b815260040160206040518083038186803b158015610ee457600080fd5b505afa158015610ef8573d6000803e3d6000fd5b505050506040513d6020811015610f0e57600080fd5b5051905080610f21576000915050610f27565b60019150505b90565b6000606489069050600d8160648110610f3f57fe5b015460408051631942d56760e21b8152600481018b9052602481018a90526044810189905287151560648201526001600160a01b03878116608483015286811660a483015260c482018690529151919092169163650b559c9160e480830192600092919082900301818387803b158015610fb857600080fd5b505af1158015610fcc573d6000803e3d6000fd5b50505050505050505050505050565b600080600c60009054906101000a90046001600160a01b03166001600160a01b0316631e2231436040518163ffffffff1660e01b815260040160206040518083038186803b15801561102c57600080fd5b505afa158015611040573d6000803e3d6000fd5b505050506040513d602081101561105657600080fd5b5051600c546040805163765e015960e01b81526001600160a01b0380851660048301529151939450600093919092169163765e0159916024808301926020929190829003018186803b1580156110ab57600080fd5b505afa1580156110bf573d6000803e3d6000fd5b505050506040513d60208110156110d557600080fd5b505190505b6001600160a01b038216158015906110fa57506001600160a01b03811615155b15611287576003546040805163b0d8e18160e01b81526001600160a01b0385811660048301529151919092169163b0d8e181916024808301926020929190829003018186803b15801561114c57600080fd5b505afa158015611160573d6000803e3d6000fd5b505050506040513d602081101561117657600080fd5b50516003546040805163b0d8e18160e01b81526001600160a01b0385811660048301529151919092169163b0d8e181916024808301926020929190829003018186803b1580156111c557600080fd5b505afa1580156111d9573d6000803e3d6000fd5b505050506040513d60208110156111ef57600080fd5b5051111561120257600092505050610f27565b600c546040805163765e015960e01b81526001600160a01b03808516600483015291519394508493919092169163765e0159916024808301926020929190829003018186803b15801561125457600080fd5b505afa158015611268573d6000803e3d6000fd5b505050506040513d602081101561127e57600080fd5b505190506110da565b60019250505090565b6000606485069050600d81606481106112a557fe5b0154604080516332e859b960e01b8152600481018790526001600160a01b0386811660248301528581166044830152915191909216916332e859b991606480830192600092919082900301818387803b158015610cbc57600080fd5b6004546001600160a01b031681565b600080606486069050600d816064811061132657fe5b015460408051636ca5e76160e11b81526001600160a01b0388811660048301528781166024830152604482018790529151919092169163d94bcec29160648083019260209291908290030181600087803b15801561138357600080fd5b505af1158015611397573d6000803e3d6000fd5b505050506040513d60208110156113ad57600080fd5b50919695505050505050565b6000606487069050600d81606481106113ce57fe5b0154604080516335b1017960e01b8152600481018990526001600160a01b0388811660248301528781166044830152868116606483015260848201869052600060a4830181905260c4830181905292519316926335b101799260e48084019391929182900301818387803b15801561144557600080fd5b505af1158015611459573d6000803e3d6000fd5b5050505050505050505050565b6005546001600160a01b031681565b600080606485069050600d816064811061148b57fe5b015460408051636628d36160e11b81526001600160a01b038781166004830152602482018790529151919092169163cc51a6c29160448083019260209291908290030181600087803b15801561099e57600080fd5b600d81606481106114ed57fe5b01546001600160a01b0316905081565b600080600c60009054906101000a90046001600160a01b03166001600160a01b0316631e2231436040518163ffffffff1660e01b815260040160206040518083038186803b15801561154e57600080fd5b505afa158015611562573d6000803e3d6000fd5b505050506040513d602081101561157857600080fd5b505190505b6001600160a01b03811615610f21576001600354604080516321e3780160e01b81526001600160a01b038581166004830152915191909216916321e37801916024808301926020929190829003018186803b1580156115db57600080fd5b505afa1580156115ef573d6000803e3d6000fd5b505050506040513d602081101561160557600080fd5b5051600281111561161257fe5b600281111561161d57fe5b1461162c576000915050610f27565b6002546003546040805163d66a255360e01b81526001600160a01b0385811660048301529151919092169163d66a2553916024808301926020929190829003018186803b15801561167c57600080fd5b505afa158015611690573d6000803e3d6000fd5b505050506040513d60208110156116a657600080fd5b505110156116b8576000915050610f27565b60035460408051630326771360e51b81526001600160a01b038481166004830152915191909216916364cee260916024808301926020929190829003018186803b15801561170557600080fd5b505afa158015611719573d6000803e3d6000fd5b505050506040513d602081101561172f57600080fd5b505161173f576000915050610f27565b600c546040805163765e015960e01b81526001600160a01b0384811660048301529151919092169163765e0159916024808301926020929190829003018186803b15801561178c57600080fd5b505afa1580156117a0573d6000803e3d6000fd5b505050506040513d60208110156117b657600080fd5b5051905061157d565b600080606485069050600d81606481106117d557fe5b01546040805163390b5f2760e01b81526001600160a01b038781166004830152602482018790529151919092169163390b5f279160448083019260209291908290030181600087803b15801561099e57600080fd5b6000606486069050600d816064811061183f57fe5b015460408051633ee359ff60e21b8152600481018890526001600160a01b0387811660248301528681166044830152606482018690529151919092169163fb8d67fc91608480830192600092919082900301818387803b158015610e7357600080fd5b6005546000906001600160a01b031631156118bf57506000610f27565b50600190565b6000601460715411156118bf57506000610f27565b6000606485069050600d81606481106118ef57fe5b015460408051633ddd87af60e11b8152600481018790526001600160a01b038681166024830152858116604483015291519190921691637bbb0f5e91606480830192600092919082900301818387803b158015610cbc57600080fd5b600a546001600160a01b031681565b6000606483069050600d816064811061196f57fe5b01546040805163f47a1ea760e01b81526004810185905290516001600160a01b039092169163f47a1ea79160248082019260009290919082900301818387803b158015610dc357600080fd5b6000606484069050600d81606481106119d057fe5b0154604051634afbac5160e01b8152602060048201818152602483018690526001600160a01b0390931692634afbac5192879287929182916044909101908590850280828437600081840152601f19601f8201169050808301925050509350505050600060405180830381600087803b158015610b8f57600080fd5b600080600a60009054906101000a90046001600160a01b03166001600160a01b03166318160ddd6040518163ffffffff1660e01b815260040160206040518083038186803b158015611a9d57600080fd5b505afa158015611ab1573d6000803e3d6000fd5b505050506040513d6020811015611ac757600080fd5b5051600a54600854604080516370a0823160e01b81526001600160a01b039283166004820152905193945060009391909216916370a08231916024808301926020929190829003018186803b158015611b1f57600080fd5b505afa158015611b33573d6000803e3d6000fd5b505050506040513d6020811015611b4957600080fd5b505160055460408051632f5a97e560e11b815290519293506000926001600160a01b0390921691635eb52fca91600480820192602092909190829003018186803b158015611b9657600080fd5b505afa158015611baa573d6000803e3d6000fd5b505050506040513d6020811015611bc057600080fd5b505160065460408051632f5a97e560e11b815290519293506000926001600160a01b0390921691635eb52fca91600480820192602092909190829003018186803b158015611c0d57600080fd5b505afa158015611c21573d6000803e3d6000fd5b505050506040513d6020811015611c3757600080fd5b505190508181018414611c51576000945050505050610f27565b600754604080516326fcbc6b60e21b815290516000926001600160a01b031691639bf2f1ac916004808301926020929190829003018186803b158015611c9657600080fd5b505afa158015611caa573d6000803e3d6000fd5b505050506040513d6020811015611cc057600080fd5b5051600c5460408051631e22314360e01b815290519293506000926001600160a01b0390921691631e22314391600480820192602092909190829003018186803b158015611d0d57600080fd5b505afa158015611d21573d6000803e3d6000fd5b505050506040513d6020811015611d3757600080fd5b5051905060005b6001600160a01b03821615611e4957600a54604080516370a0823160e01b81526001600160a01b038581166004830152915191909216916370a08231916024808301926020929190829003018186803b158015611d9a57600080fd5b505afa158015611dae573d6000803e3d6000fd5b505050506040513d6020811015611dc457600080fd5b5051600c546040805163765e015960e01b81526001600160a01b0386811660048301529151949093019391169163765e0159916024808301926020929190829003018186803b158015611e1657600080fd5b505afa158015611e2a573d6000803e3d6000fd5b505050506040513d6020811015611e4057600080fd5b50519150611d3e565b85818401018711611e64576000975050505050505050610f27565b600197505050505050505090565b6009546001600160a01b031681565b60006064840690506000600d8260648110611e9857fe5b01546001546001600160a01b039091169150813190600090611ebd9083908890612302565b90506000611ece82876001546123de565b60408051639113473160e01b81526004810185905260248101839052600060448201819052606482018190526084820181905291519293506001600160a01b0387169263911347319260a48084019391929182900301818387803b158015611f3557600080fd5b505af1158015611f49573d6000803e3d6000fd5b50505050600360009054906101000a90046001600160a01b03166001600160a01b03166349eefeee6040518163ffffffff1660e01b815260040160206040518083038186803b158015611f9b57600080fd5b505afa158015611faf573d6000803e3d6000fd5b505050506040513d6020811015611fc557600080fd5b50516071819055610ba357fe5b6000606483069050600d8160648110611fe757fe5b01546040805163320d84db60e11b81526004810185905290516001600160a01b039092169163641b09b69160248082019260009290919082900301818387803b158015610dc357600080fd5b6000606487069050600d816064811061204857fe5b015460408051639113473160e01b815260048101899052602481018890526001600160a01b0387811660448301528681166064830152608482018690529151919092169163911347319160a480830192600092919082900301818387803b15801561144557600080fd5b6003546000906001600160a01b031631156120cf57506000610f27565b6004546001600160a01b031631156120e957506000610f27565b600560009054906101000a90046001600160a01b03166001600160a01b03166314f6c3be6040518163ffffffff1660e01b815260040160206040518083038186803b15801561213757600080fd5b505afa15801561214b573d6000803e3d6000fd5b505050506040513d602081101561216157600080fd5b50516005546001600160a01b0316311461217d57506000610f27565b600660009054906101000a90046001600160a01b03166001600160a01b03166314f6c3be6040518163ffffffff1660e01b815260040160206040518083038186803b1580156121cb57600080fd5b505afa1580156121df573d6000803e3d6000fd5b505050506040513d60208110156121f557600080fd5b50516006546001600160a01b0316311461221157506000610f27565b600760009054906101000a90046001600160a01b03166001600160a01b03166314f6c3be6040518163ffffffff1660e01b815260040160206040518083038186803b15801561225f57600080fd5b505afa158015612273573d6000803e3d6000fd5b505050506040513d602081101561228957600080fd5b50516007546001600160a01b031631146122a557506000610f27565b600a546001600160a01b031631156122bf57506000610f27565b600b546001600160a01b031631156122d957506000610f27565b600c546001600160a01b031631156118bf57506000610f27565b6008546001600160a01b031681565b600080600b60009054906101000a90046001600160a01b03166001600160a01b03166398d5fdca6040518163ffffffff1660e01b815260040160206040518083038186803b15801561235357600080fd5b505afa158015612367573d6000803e3d6000fd5b505050506040513d602081101561237d57600080fd5b505190508061238b57600080fd5b60006123b2826123a6600254876124ca90919063ffffffff16565b9063ffffffff61252c16565b90508086116123c057600080fd5b600081870386816123cd57fe5b0691909101925050505b9392505050565b600080600b60009054906101000a90046001600160a01b03166001600160a01b03166398d5fdca6040518163ffffffff1660e01b815260040160206040518083038186803b15801561242f57600080fd5b505afa158015612443573d6000803e3d6000fd5b505050506040513d602081101561245957600080fd5b5051600254909150849060009061247790839063ffffffff61256e16565b905060006124868883866125c8565b9050858110156124be576124a4866123a68a8763ffffffff6124ca16565b91506124bb600254836125f890919063ffffffff16565b92505b50909695505050505050565b6000826124d957506000612526565b828202828482816124e657fe5b04146125235760405162461bcd60e51b81526004018080602001828103825260218152602001806127376021913960400191505060405180910390fd5b90505b92915050565b600061252383836040518060400160405280601a81526020017f536166654d6174683a206469766973696f6e206279207a65726f00000000000081525061263a565b600082820183811015612523576040805162461bcd60e51b815260206004820152601b60248201527f536166654d6174683a206164646974696f6e206f766572666c6f770000000000604482015290519081900360640190fd5b600082156125ef5760006125e6846123a6878663ffffffff6124ca16565b91506123d79050565b506000196123d7565b600061252383836040518060400160405280601e81526020017f536166654d6174683a207375627472616374696f6e206f766572666c6f7700008152506126dc565b600081836126c65760405162461bcd60e51b81526004018080602001828103825283818151815260200191508051906020019080838360005b8381101561268b578181015183820152602001612673565b50505050905090810190601f1680156126b85780820380516001836020036101000a031916815260200191505b509250505060405180910390fd5b5060008385816126d257fe5b0495945050505050565b6000818484111561272e5760405162461bcd60e51b815260206004820181815283516024840152835190928392604490910191908501908083836000831561268b578181015183820152602001612673565b50505090039056fe536166654d6174683a206d756c7469706c69636174696f6e206f766572666c6f77a264697066735822122031f58e5a5cac8cdadc84db160cbc67b4764ec8c862047189e4638c060957cc3d64736f6c634300060b0033608060405234801561001057600080fd5b50600380546001600160a01b031916339081179091556040516000907f8be0079c531659141344cd1fd0a4f28419497f9722a3daafe3b4186f6b6457e0908290a3614e83806100606000396000f3fe608060405234801561001057600080fd5b50600436106103665760003560e01c8063795d26c3116101ca578063b7f8cf9b11610105578063d380a37c116100a8578063d380a37c146109d8578063d3d6f843146109e0578063d66a255314610a0c578063d9a7244414610a32578063dba1c5f214610a4f578063e2ac77b014610a57578063f24344e614610a7d578063f34862de14610a85578063fe2ba84814610aab57610366565b8063b7f8cf9b146108cc578063b83f91a2146108d4578063b91af97c146108dc578063bcd3752614610928578063bf9befb114610976578063c7b554811461097e578063cbd138ae14610986578063d293c710146109ac57610366565b806396d711ff1161016d57806396d711ff146108525780639976cf451461085a5780639dd233d214610886578063a20baee6146107bf578063a3a640171461088e578063ae91875414610896578063b0d8e1811461089e578063b620115d146108c457610366565b8063795d26c3146107f4578063797250e3146107fc5780637f7dde4a14610804578063807d138d1461080c57806382fe3eb914610814578063887105d31461083a5780638da5cb5b146108425780638f32d59b1461084a57610366565b80634870dd9a116102a557806364cee2601161024857806364cee26014610670578063653d46e7146106965780636c37a4af146106b35780636ef643381461072457806372423c171461079357806372fe25aa146107bf578063741bef1a146107c7578063756b253e146107cf578063794e5724146107ec57610366565b80634870dd9a146105d957806349eefeee146105e15780635733d58f146105e95780635d6b480f146105f15780635d8c96091461061d5780635dba4c4a1461064357806361ec893d1461064b578063631203b01461065357610366565b80631e8b1c2b1161030d5780631e8b1c2b146104905780631f68f20a1461053357806321e378011461053b5780632e86bbd8146105615780632f865568146105695780633cc742251461058f57806343a124fa14610597578063480cd578146105b357610366565b8063048c661d1461036b578063060d49a31461038f578063071a7541146103a95780630b076557146103b157806312610e92146103d957806315d549f1146104055780631673c79a1461042b57806318f2817a1461046a575b600080fd5b610373610ad1565b604080516001600160a01b039092168252519081900360200190f35b610397610ae0565b60408051918252519081900360200190f35b610397610ae6565b6103d7600480360360208110156103c757600080fd5b50356001600160a01b0316610aeb565b005b610397600480360360408110156103ef57600080fd5b506001600160a01b038135169060200135610aff565b6103976004803603602081101561041b57600080fd5b50356001600160a01b0316610b57565b6104516004803603602081101561044157600080fd5b50356001600160a01b0316610b7b565b6040805192835260208301919091528051918290030190f35b6103976004803603602081101561048057600080fd5b50356001600160a01b0316610b94565b6103d7600480360360208110156104a657600080fd5b8101906020810181356401000000008111156104c157600080fd5b8201836020820111156104d357600080fd5b803590602001918460208302840111640100000000831117156104f557600080fd5b919080806020026020016040519081016040528093929190818152602001838360200280828437600092019190915250929550610ba7945050505050565b610397610eef565b6103976004803603602081101561055157600080fd5b50356001600160a01b0316610ef5565b610397610f1f565b6103d76004803603602081101561057f57600080fd5b50356001600160a01b0316610f2b565b610373610f91565b61059f610fa0565b604080519115158252519081900360200190f35b610397600480360360208110156105c957600080fd5b50356001600160a01b0316610faf565b610397610fcd565b610397610fd2565b610397610fd8565b6103d76004803603604081101561060757600080fd5b506001600160a01b038135169060200135610fe4565b6103976004803603602081101561063357600080fd5b50356001600160a01b0316611030565b6103d76110bf565b6103976110f2565b6103976004803603602081101561066957600080fd5b50356110f7565b6103976004803603602081101561068657600080fd5b50356001600160a01b031661111a565b6103d7600480360360208110156106ac57600080fd5b5035611138565b6103d760048036036101408110156106ca57600080fd5b506001600160a01b038135811691602081013582169160408201358116916060810135821691608082013581169160a081013582169160c082013581169160e0810135821691610100820135811691610120013516611279565b61074a6004803603602081101561073a57600080fd5b50356001600160a01b0316611620565b6040518086815260200185815260200184815260200183600281111561076c57fe5b60ff1681526001600160801b03909216602083015250604080519182900301945092505050f35b610397600480360360408110156107a957600080fd5b506001600160a01b03813516906020013561165a565b6103976116b7565b6103736116c3565b610373600480360360208110156107e557600080fd5b50356116d2565b6103976116f9565b610397611705565b610397611806565b61037361180c565b61039761181b565b6103d76004803603602081101561082a57600080fd5b50356001600160a01b0316611821565b610397611832565b6103736118ee565b61059f6118fd565b61039761190e565b6103976004803603604081101561087057600080fd5b506001600160a01b038135169060200135611914565b610397611947565b61037361194d565b61037361195c565b610397600480360360208110156108b457600080fd5b50356001600160a01b031661196b565b610397611992565b61037361199c565b6103736119ab565b610902600480360360208110156108f257600080fd5b50356001600160a01b03166119ba565b604080519485526020850193909352838301919091526060830152519081900360800190f35b6103d7600480360360e081101561093e57600080fd5b508035906001600160a01b03602082013581169160408101358216916060820135169060808101359060a08101359060c00135611a1e565b6103976120d1565b6103976120d7565b6103d76004803603602081101561099c57600080fd5b50356001600160a01b03166120e3565b610397600480360360408110156109c257600080fd5b506001600160a01b0381351690602001356120f4565b610397612113565b610397600480360360408110156109f657600080fd5b506001600160a01b038135169060200135612119565b61039760048036036020811015610a2257600080fd5b50356001600160a01b031661214f565b61037360048036036020811015610a4857600080fd5b503561216a565b610397612194565b61059f60048036036020811015610a6d57600080fd5b50356001600160a01b031661219a565b6103976121bc565b61039760048036036020811015610a9b57600080fd5b50356001600160a01b03166121c8565b6103d760048036036020811015610ac157600080fd5b50356001600160a01b03166121f9565b6005546001600160a01b031681565b60165481565b600281565b610af361220a565b610afc81612255565b50565b6000610b0961220a565b6001600160a01b0383166000908152600d6020526040812054610b32908463ffffffff61237216565b6001600160a01b0385166000908152600d602052604090208190559150505b92915050565b6000610b6161220a565b610b6a826123bb565b6001600160801b031690505b919050565b6013602052600090815260409020805460019091015482565b6000610b9e61220a565b610b5182612455565b8051610be45760405162461bcd60e51b8152600401808060200182810382526036815260200180614d916036913960400191505060405180910390fd5b610bec614b0b565b610bf4614b3c565b600260009054906101000a90046001600160a01b03166001600160a01b03166398d5fdca6040518163ffffffff1660e01b815260040160206040518083038186803b158015610c4257600080fd5b505afa158015610c56573d6000803e3d6000fd5b505050506040513d6020811015610c6c57600080fd5b50518252600554604080516326fcbc6b60e21b815290516001600160a01b0390921691639bf2f1ac91600480820192602092909190829003018186803b158015610cb557600080fd5b505afa158015610cc9573d6000803e3d6000fd5b505050506040513d6020811015610cdf57600080fd5b50516020830152610cee6124d0565b15156040830181905260011415610d1957610d1282600001518360200151856124eb565b9050610d2f565b610d2c82600001518360200151856126d3565b90505b600554608082015160a08301516040805163335525ad60e01b815260048101939093526024830191909152516001600160a01b039092169163335525ad9160448082019260009290919082900301818387803b158015610d8e57600080fd5b505af1158015610da2573d6000803e3d6000fd5b50505050610db88160c001518260e00151612799565b61010081015115610e375760008054600754610100840151604080516364a197f360e01b81526001600160a01b03938416600482015260248101929092525191909216926364a197f3926044808201939182900301818387803b158015610e1e57600080fd5b505af1158015610e32573d6000803e3d6000fd5b505050505b610e4481604001516129c8565b6020810151606083015261010081015160408201518251610e7c9291610e70919063ffffffff61237216565b9063ffffffff61237216565b608080840182905260608085015160408086015186840151825193845260208401969096528282015291810193909352517f4152c73dd2614c4f9fc35e8c9cf16013cd588c75b49a4c1673ecffdcbcda94039281900390910190a1610eea3382606001518360400151612ad5565b505050565b600b5481565b6001600160a01b0381166000908152600d602052604081206003015460ff166002811115610b5157fe5b678ac7230489e8000081565b610f3481612bc9565b604080516001808252818301909252606091602080830190803683370190505090508181600081518110610f6457fe5b60200260200101906001600160a01b031690816001600160a01b031681525050610f8d81610ba7565b5050565b6001546001600160a01b031681565b6000610faa6124d0565b905090565b6001600160a01b03166000908152600d602052604090206001015490565b60c881565b60145490565b6714d1120d7b16000081565b610fec61220a565b806002811115610ff857fe5b6001600160a01b0383166000908152600d60205260409020600301805460ff1916600183600281111561102757fe5b02179055505050565b6001600160a01b038116600090815260136020526040812054601154829061105e908363ffffffff61237216565b90508061107057600092505050610b76565b6001600160a01b0384166000908152600d6020526040812060020154906110b5670de0b6b3a76400006110a9848663ffffffff612c3116565b9063ffffffff612c8a16565b9695505050505050565b6110c761220a565b60006110d1612ccc565b9050670de0b6b3a76400008111156110e557fe5b600b819055610afc612d10565b603c81565b6000610b51670de0b6b3a76400006110a9600b5485612c3190919063ffffffff16565b6001600160a01b03166000908152600d602052604090206002015490565b611140614b0b565b611148614b3c565b600260009054906101000a90046001600160a01b03166001600160a01b03166398d5fdca6040518163ffffffff1660e01b815260040160206040518083038186803b15801561119657600080fd5b505afa1580156111aa573d6000803e3d6000fd5b505050506040513d60208110156111c057600080fd5b50518252600554604080516326fcbc6b60e21b815290516001600160a01b0390921691639bf2f1ac91600480820192602092909190829003018186803b15801561120957600080fd5b505afa15801561121d573d6000803e3d6000fd5b505050506040513d602081101561123357600080fd5b505160208301526112426124d0565b1515604083018190526001141561126657610d128260000151836020015185612d38565b610d2c82600001518360200151856130b7565b6112816118fd565b6112d2576040805162461bcd60e51b815260206004820181905260248201527f4f776e61626c653a2063616c6c6572206973206e6f7420746865206f776e6572604482015290519081900360640190fd5b6112db8a6131e4565b6112e4896131e4565b6112ed886131e4565b6112f6876131e4565b6112ff866131e4565b611308856131e4565b611311846131e4565b61131a836131e4565b611323826131e4565b61132c816131e4565b600480546001600160a01b03199081166001600160a01b038d81169182179093556000805483168d85161790556001805483168c85161790556005805483168b85161790556006805483168a8516179055600780548316898516179055600280548316888516179055600880548316878516179055600a805483168685161790556009805490921692841692909217905560408051918252517f3ca631ffcd2a9b5d9ae18543fc82f58eb4ca33af9e6ab01b7a8e95331e6ed985916020908290030190a1604080516001600160a01b038b16815290517f78f058b189175430c48dc02699e3a0031ea4ff781536dc2fab847de4babdd8829181900360200190a1604080516001600160a01b038a16815290517f5ee0cae2f063ed938bb55046f6a932fb6ae792bf43624806bb90abe68a50be9b9181900360200190a1604080516001600160a01b038916815290517f82966d27eea39b038ee0fa30cd16532bb24f6e65d31cb58fb227aa5766cdcc7f9181900360200190a1604080516001600160a01b038816815290517fcfb07d791fcafc032b35837b50eb84b74df518cf4cc287e8084f47630fa70fa09181900360200190a1604080516001600160a01b038716815290517fe67f36a6e961157d6eff83b91f3af5a62131ceb6f04954ef74f51c1c05e7f88d9181900360200190a1604080516001600160a01b038616815290517f8c537274438aa850a330284665d81a85dd38267d09e4050d416bfc94142db2649181900360200190a1604080516001600160a01b038516815290517f227eec0ec317af6ab1a9587ffa1c84332522eb4c583a908f89babc05f8f339bd9181900360200190a1604080516001600160a01b038416815290517f65f4cf077bc01e4742eb5ad98326f6e95b63548ea24b17f8d5e823111fe788009181900360200190a1604080516001600160a01b038316815290517f756ebc192164c295bba134b5aacd72cc7aff8098a670d1f0a5f6b3a0b4ce67079181900360200190a1611614613293565b50505050505050505050565b600d6020526000908152604090208054600182015460028301546003909301549192909160ff81169061010090046001600160801b031685565b600061166461220a565b6001600160a01b0383166000908152600d6020526040812060010154611690908463ffffffff6132dd16565b6001600160a01b0385166000908152600d6020526040902060010181905591505092915050565b670de0b6b3a764000081565b6002546001600160a01b031681565b601481815481106116df57fe5b6000918252602090912001546001600160a01b0316905081565b670f43fc2c04ee000081565b6000805460408051632f5a97e560e11b8152905183926001600160a01b031691635eb52fca916004808301926020929190829003018186803b15801561174a57600080fd5b505afa15801561175e573d6000803e3d6000fd5b505050506040513d602081101561177457600080fd5b505160015460408051632f5a97e560e11b815290519293506000926001600160a01b0390921691635eb52fca91600480820192602092909190829003018186803b1580156117c157600080fd5b505afa1580156117d5573d6000803e3d6000fd5b505050506040513d60208110156117eb57600080fd5b505190506117ff828263ffffffff6132dd16565b9250505090565b60155481565b6000546001600160a01b031681565b600f5481565b61182961220a565b610afc81613337565b6000805460408051630a7b61df60e11b8152905183926001600160a01b0316916314f6c3be916004808301926020929190829003018186803b15801561187757600080fd5b505afa15801561188b573d6000803e3d6000fd5b505050506040513d60208110156118a157600080fd5b505160015460408051630a7b61df60e11b815290519293506000926001600160a01b03909216916314f6c3be91600480820192602092909190829003018186803b1580156117c157600080fd5b6003546001600160a01b031690565b6003546001600160a01b0316331490565b60105481565b600061191e61220a565b6001600160a01b0383166000908152600d6020526040812054610b32908463ffffffff6132dd16565b60115481565b6009546001600160a01b031681565b600a546001600160a01b031681565b600080600061197984613361565b91509150600061198983836133e7565b95945050505050565b6000610faa61341c565b6004546001600160a01b031681565b6008546001600160a01b031681565b6001600160a01b0381166000908152600d6020526040812080546001909101549091806119e6856121c8565b91506119f185611030565b9050611a03848363ffffffff6132dd16565b9350611a15838263ffffffff6132dd16565b92509193509193565b611a266134c6565b611a2f87613514565b611a393388613553565b60008060009054906101000a90046001600160a01b03166001600160a01b0316635eb52fca6040518163ffffffff1660e01b815260040160206040518083038186803b158015611a8857600080fd5b505afa158015611a9c573d6000803e3d6000fd5b505050506040513d6020811015611ab257600080fd5b505160015460408051632f5a97e560e11b815290519293506000926001600160a01b0390921691635eb52fca91600480820192602092909190829003018186803b158015611aff57600080fd5b505afa158015611b13573d6000803e3d6000fd5b505050506040513d6020811015611b2957600080fd5b50519050611b3d828263ffffffff6132dd16565b600854604080516370a0823160e01b815233600482015290516001600160a01b03909216916370a0823191602480820192602092909190829003018186803b158015611b8857600080fd5b505afa158015611b9c573d6000803e3d6000fd5b505050506040513d6020811015611bb257600080fd5b50511115611bbc57fe5b60025460408051634c6afee560e11b815290518b926000926001600160a01b03909116916398d5fdca91600480820192602092909190829003018186803b158015611c0657600080fd5b505afa158015611c1a573d6000803e3d6000fd5b505050506040513d6020811015611c3057600080fd5b50519050611c3c614b88565b611c468b8361360c565b15611c5c576001600160a01b038b168152611d9f565b600a60009054906101000a90046001600160a01b03166001600160a01b0316634d6228316040518163ffffffff1660e01b815260040160206040518083038186803b158015611caa57600080fd5b505afa158015611cbe573d6000803e3d6000fd5b505050506040513d6020811015611cd457600080fd5b50516001600160a01b031681525b80516001600160a01b031615801590611d0f5750670f43fc2c04ee0000611d0d8260000151846120f4565b105b15611d9f57600a54815160408051632dc9c0eb60e21b81526001600160a01b0392831660048201529051919092169163b72703ac916024808301926020929190829003018186803b158015611d6357600080fd5b505afa158015611d77573d6000803e3d6000fd5b505050506040513d6020811015611d8d57600080fd5b50516001600160a01b03168152611ce2565b86611daa5760001996505b80516001600160a01b031615801590611dc35750600083115b8015611dcf5750600087115b15611ef357600a54815160408051632dc9c0eb60e21b81526001600160a01b0392831660048201529051600019909a0199600093929092169163b72703ac91602480820192602092909190829003018186803b158015611e2e57600080fd5b505afa158015611e42573d6000803e3d6000fd5b505050506040513d6020811015611e5857600080fd5b50518251909150611e6890612255565b611e70614bc7565b8251611e809086868f8f8f61376f565b8051909150611e90575050611ef3565b80516020840151611ea69163ffffffff6132dd16565b6020808501919091528101516040840151611ec69163ffffffff6132dd16565b60408401528051611ede90869063ffffffff61237216565b6001600160a01b039092168352509250611daa565b611f018160400151836139fe565b50611f0f8160400151613b87565b6060820181905286101580611f22575085155b611f5d5760405162461bcd60e51b8152600401808060200182810382526032815260200180614c6b6032913960400191505060405180910390fd5b600080546009546060840151604080516364a197f360e01b81526001600160a01b03938416600482015260248101929092525191909216926364a197f3926044808201939182900301818387803b158015611fb757600080fd5b505af1158015611fcb573d6000803e3d6000fd5b5050600954606084015160408051630f1f150d60e11b81526004810192909252516001600160a01b039092169350631e3e2a1a925060248082019260009290919082900301818387803b15801561202157600080fd5b505af1158015612035573d6000803e3d6000fd5b505050506060810151604082015161204c91612372565b8160800181815250507f43a3f4082a4dbc33d78e317d2497d3a730bc7fc3574159dcea1056e62e5d9ad88c8260200151836040015184606001516040518085815260200184815260200183815260200182815260200194505050505060405180910390a16120c33382602001518360800151613baa565b505050505050505050505050565b600e5481565b670de01e5e7be69fc781565b6120eb61220a565b610afc81613ccb565b600080600061210285613361565b9150915060006110b5838387613d8d565b600c5481565b600061212361220a565b6001600160a01b0383166000908152600d6020526040812060010154611690908463ffffffff61237216565b6001600160a01b03166000908152600d602052604090205490565b60006014828154811061217957fe5b6000918252602090912001546001600160a01b031692915050565b60125481565b6011546001600160a01b03821660009081526013602052604090205410919050565b6729a2241af62c000081565b6001600160a01b038116600090815260136020526040812060010154601254829061105e908363ffffffff61237216565b61220161220a565b610afc81613dbf565b6004546001600160a01b031633146122535760405162461bcd60e51b815260040180806020018281038252603b815260200180614d56603b913960400191505060405180910390fd5b565b61225e8161219a565b15610afc5761226c81612bc9565b600061227782611030565b90506000612284836121c8565b6001600160a01b0384166000908152600d60205260409020600101549091506122b3908363ffffffff6132dd16565b6001600160a01b0384166000908152600d602052604090206001810191909155546122e4908263ffffffff6132dd16565b6001600160a01b0384166000908152600d602052604090205561230683613337565b6123108183613e0f565b6001600160a01b0383166000818152600d60209081526040808320805460018201546002909201548351918252938101919091528082019290925260608201929092529051600080516020614d368339815191529181900360800190a2505050565b60006123b483836040518060400160405280601e81526020017f536166654d6174683a207375627472616374696f6e206f766572666c6f770000815250613f23565b9392505050565b601480546001808201835560008381527fce6d7b5282bd9a3661ae061feed1dbda4e52ab073b1f9285be6e155d9c38d4ec90920180546001600160a01b0319166001600160a01b038616179055915490916124169190612372565b6001600160a01b03929092166000908152600d602052604090206003018054610100600160881b0319166101006001600160801b038516021790555090565b6001600160a01b0381166000908152600d6020526040812060010154819061247c90613fba565b6001600160a01b0384166000908152600d60205260409020600201805490829055600e54919250906124c69083906124ba908463ffffffff61237216565b9063ffffffff6132dd16565b600e555092915050565b6000806124db61341c565b6714d1120d7b1600001191505090565b6124f3614b3c565b6124fb614be1565b612503614b3c565b84825260006080830152612515611705565b60a0830152612522611832565b60c0830152600060208301525b8351826020015110156126ca578382602001518151811061254c57fe5b60209081029190910101516001600160a01b03166060830181905261257190876120f4565b6040830152608082015161265957670f43fc2c04ee000082604001511015801561259a57508151155b156125a4576126ba565b60006125b98360c001518460a0015189613d8d565b90506125d4836060015184604001518560000151848b613ff6565b608081015184519193506125ee919063ffffffff61237216565b8352608082015160a08401516126099163ffffffff61237216565b60a08085019190915282015160c08401516126299163ffffffff61237216565b60c084015261263884836142a0565b935061264d8360c001518460a00151896143b7565b156080840152506126ba565b60808201511515600114801561267a5750670f43fc2c04ee00008260400151105b156126ba57612691826060015183600001516143d8565b608081015183519192506126ab919063ffffffff61237216565b82526126b783826142a0565b92505b602082018051600101905261252f565b50509392505050565b6126db614b3c565b6126e3614be1565b6126eb614b3c565b848252600060208301525b8351826020015110156126ca578382602001518151811061271357fe5b60209081029190910101516001600160a01b03166060830181905261273890876120f4565b60408301819052670f43fc2c04ee0000111561278957612760826060015183600001516143d8565b6080810151835191925061277a919063ffffffff61237216565b825261278683826142a0565b92505b60208201805160010190526126f6565b816127a357610f8d565b6015546000906127c5906124ba84670de0b6b3a764000063ffffffff612c3116565b905060006127ea6016546124ba670de0b6b3a764000087612c3190919063ffffffff16565b90506000612803600e5484612c8a90919063ffffffff16565b9050600061281c600e5484612c8a90919063ffffffff16565b9050612843612836600e5484612c3190919063ffffffff16565b859063ffffffff61237216565b601555600e5461286b9061285e90839063ffffffff612c3116565b849063ffffffff61237216565b601655601154612881908363ffffffff6132dd16565b601155601254612897908263ffffffff6132dd16565b601255600080546040805163071b32b560e31b8152600481018a905290516001600160a01b03909216926338d995a89260248084019382900301818387803b1580156128e257600080fd5b505af11580156128f6573d6000803e3d6000fd5b5050600154604080516367dc994d60e11b8152600481018b905290516001600160a01b03909216935063cfb9329a925060248082019260009290919082900301818387803b15801561294757600080fd5b505af115801561295b573d6000803e3d6000fd5b505060008054600154604080516364a197f360e01b81526001600160a01b039283166004820152602481018c905290519190921694506364a197f393506044808301939282900301818387803b1580156129b457600080fd5b505af1158015611614573d6000803e3d6000fd5b600e54600f556000805460408051630a7b61df60e11b815290516001600160a01b03909216916314f6c3be91600480820192602092909190829003018186803b158015612a1457600080fd5b505afa158015612a28573d6000803e3d6000fd5b505050506040513d6020811015612a3e57600080fd5b505160015460408051630a7b61df60e11b815290519293506000926001600160a01b03909216916314f6c3be91600480820192602092909190829003018186803b158015612a8b57600080fd5b505afa158015612a9f573d6000803e3d6000fd5b505050506040513d6020811015612ab557600080fd5b50519050612acd816124ba848663ffffffff61237216565b601055505050565b8115612b545760085460065460408051631062c15f60e11b81526001600160a01b039283166004820152868316602482015260448101869052905191909216916320c582be91606480830192600092919082900301818387803b158015612b3b57600080fd5b505af1158015612b4f573d6000803e3d6000fd5b505050505b8015610eea5760008054604080516364a197f360e01b81526001600160a01b03878116600483015260248201869052915191909216926364a197f3926044808201939182900301818387803b158015612bac57600080fd5b505af1158015612bc0573d6000803e3d6000fd5b50505050505050565b60016001600160a01b0382166000908152600d602052604090206003015460ff166002811115612bf557fe5b14610afc5760405162461bcd60e51b815260040180806020018281038252602f815260200180614e1f602f913960400191505060405180910390fd5b600082612c4057506000610b51565b82820282848281612c4d57fe5b04146123b45760405162461bcd60e51b8152600401808060200182810382526021815260200180614cc76021913960400191505060405180910390fd5b60006123b483836040518060400160405280601a81526020017f536166654d6174683a206469766973696f6e206279207a65726f0000000000008152506144e6565b600080612cd761454b565b90506000612ced670de01e5e7be69fc783614567565b90506117ff670de0b6b3a76400006110a983600b54612c3190919063ffffffff16565b6000612d27600c544261237290919063ffffffff16565b9050603c8110610afc5742600c5550565b612d40614b3c565b612d48614be1565b612d50614b3c565b84825260006080830152612d62611705565b60a0830152612d6f611832565b60c0830152600a5460408051634d62283160e01b815290516001600160a01b0390921691634d62283191600480820192602092909190829003018186803b158015612db957600080fd5b505afa158015612dcd573d6000803e3d6000fd5b505050506040513d6020811015612de357600080fd5b50516001600160a01b039081166060840152600a5460408051631e22314360e01b815290516000939290921691631e22314391600480820192602092909190829003018186803b158015612e3657600080fd5b505afa158015612e4a573d6000803e3d6000fd5b505050506040513d6020811015612e6057600080fd5b50516000602085015290505b848360200151108015612e955750806001600160a01b031683606001516001600160a01b031614155b156130ad57600a54606084015160408051632dc9c0eb60e21b81526001600160a01b0392831660048201529051600093929092169163b72703ac91602480820192602092909190829003018186803b158015612ef057600080fd5b505afa158015612f04573d6000803e3d6000fd5b505050506040513d6020811015612f1a57600080fd5b50516060850151909150612f2e90896120f4565b6040850152608084015161302457670f43fc2c04ee0000846040015110158015612f5757508351155b15612f6257506130ad565b6000612f778560c001518660a001518b613d8d565b9050612f92856060015186604001518760000151848d613ff6565b60808101518651919550612fac919063ffffffff61237216565b8552608084015160a0860151612fc79163ffffffff61237216565b8560a0018181525050612ff4846101000151610e708660a001518860c0015161237290919063ffffffff16565b60c086015261300386856142a0565b95506130188560c001518660a001518b6143b7565b1560808601525061308f565b6080840151151560011480156130455750670f43fc2c04ee00008460400151105b156130895761305c846060015185600001516143d8565b60808101518551919450613076919063ffffffff61237216565b845261308285846142a0565b945061308f565b506130ad565b6001600160a01b031660608401526020830180516001019052612e6c565b5050509392505050565b6130bf614b3c565b6130c7614be1565b6130cf614b3c565b848252600060208301525b83826020015110156126ca57600a60009054906101000a90046001600160a01b03166001600160a01b0316634d6228316040518163ffffffff1660e01b815260040160206040518083038186803b15801561313457600080fd5b505afa158015613148573d6000803e3d6000fd5b505050506040513d602081101561315e57600080fd5b50516001600160a01b03166060830181905261317a90876120f4565b60408301819052670f43fc2c04ee000011156131cf576131a2826060015183600001516143d8565b608081015183519192506131bc919063ffffffff61237216565b82526131c883826142a0565b92506131d4565b6126ca565b60208201805160010190526130da565b6001600160a01b03811661323f576040805162461bcd60e51b815260206004820152601e60248201527f4163636f756e742063616e6e6f74206265207a65726f20616464726573730000604482015290519081900360640190fd5b803b80610f8d576040805162461bcd60e51b815260206004820181905260248201527f4163636f756e7420636f64652073697a652063616e6e6f74206265207a65726f604482015290519081900360640190fd5b6003546040516000916001600160a01b0316907f8be0079c531659141344cd1fd0a4f28419497f9722a3daafe3b4186f6b6457e0908390a3600380546001600160a01b0319169055565b6000828201838110156123b4576040805162461bcd60e51b815260206004820152601b60248201527f536166654d6174683a206164646974696f6e206f766572666c6f770000000000604482015290519081900360640190fd5b6011546001600160a01b039091166000908152601360205260409020908155601254600190910155565b600080600061336f84611030565b9050600061337c856121c8565b6001600160a01b0386166000908152600d6020526040812060010154919250906133ac908463ffffffff6132dd16565b6001600160a01b0387166000908152600d6020526040812054919250906133d9908463ffffffff6132dd16565b919550909350505050915091565b600081156134135761340c826110a98568056bc75e2d6310000063ffffffff612c3116565b9050610b51565b50600019610b51565b600080600260009054906101000a90046001600160a01b03166001600160a01b03166398d5fdca6040518163ffffffff1660e01b815260040160206040518083038186803b15801561346d57600080fd5b505afa158015613481573d6000803e3d6000fd5b505050506040513d602081101561349757600080fd5b5051905060006134a5611832565b905060006134b1611705565b90506134be828285613d8d565b935050505090565b670f43fc2c04ee00006134d761341c565b10156122535760405162461bcd60e51b815260040180806020018281038252602a815260200180614df5602a913960400191505060405180910390fd5b60008111610afc5760405162461bcd60e51b815260040180806020018281038252602e815260200180614dc7602e913960400191505060405180910390fd5b600854604080516370a0823160e01b81526001600160a01b0385811660048301529151849392909216916370a0823191602480820192602092909190829003018186803b1580156135a357600080fd5b505afa1580156135b7573d6000803e3d6000fd5b505050506040513d60208110156135cd57600080fd5b50511015610f8d5760405162461bcd60e51b815260040180806020018281038252604e815260200180614ce8604e913960600191505060405180910390fd5b60006001600160a01b038316158061369a5750600a5460408051630bb7c8fd60e31b81526001600160a01b03868116600483015291519190921691635dbe47e8916024808301926020929190829003018186803b15801561366c57600080fd5b505afa158015613680573d6000803e3d6000fd5b505050506040513d602081101561369657600080fd5b5051155b806136b55750670f43fc2c04ee00006136b384846120f4565b105b156136c257506000610b51565b600a546040805163765e015960e01b81526001600160a01b0386811660048301529151600093929092169163765e015991602480820192602092909190829003018186803b15801561371357600080fd5b505afa158015613727573d6000803e3d6000fd5b505050506040513d602081101561373d57600080fd5b505190506001600160a01b03811615806137675750670f43fc2c04ee000061376582856120f4565b105b949350505050565b613777614bc7565b6001600160a01b0387166000908152600d60205260409020546137b39087906137ae90678ac7230489e8000063ffffffff61237216565b614612565b8082526137d49086906110a990670de0b6b3a764000063ffffffff612c3116565b60208083019190915281516001600160a01b0389166000908152600d90925260408220546138079163ffffffff61237216565b6020808401516001600160a01b038b166000908152600d9092526040822060010154929350909161383d9163ffffffff61237216565b9050678ac7230489e800008214156138d15761385889613dbf565b61386189613ccb565b61387489678ac7230489e8000083614628565b886001600160a01b0316600080516020614d3683398151915260008060006003604051808581526020018481526020018381526020018260038111156138b657fe5b60ff16815260200194505050505060405180910390a26139f2565b60006138dd82846133e7565b90508481146138f857505060008083526020830152506110b5565b600a546040805163015f109360e51b81526001600160a01b038d81166004830152602482018590528a81166044830152898116606483015291519190921691632be2126091608480830192600092919082900301818387803b15801561395d57600080fd5b505af1158015613971573d6000803e3d6000fd5b5050506001600160a01b038b166000908152600d602052604090208481556001018390555061399f8a612455565b506001600160a01b038a166000818152600d602090815260409182902060020154825187815291820186905281830152600360608201529051600080516020614d368339815191529181900360800190a2505b50509695505050505050565b600080613a09612ccc565b905060008060009054906101000a90046001600160a01b03166001600160a01b0316635eb52fca6040518163ffffffff1660e01b815260040160206040518083038186803b158015613a5a57600080fd5b505afa158015613a6e573d6000803e3d6000fd5b505050506040513d6020811015613a8457600080fd5b505160015460408051632f5a97e560e11b815290519293506000926001600160a01b0390921691635eb52fca91600480820192602092909190829003018186803b158015613ad157600080fd5b505afa158015613ae5573d6000803e3d6000fd5b505050506040513d6020811015613afb57600080fd5b505190506000613b11838363ffffffff6132dd16565b90506000613b29826110a98a8a63ffffffff612c3116565b90506000613b4e613b4183600263ffffffff612c8a16565b879063ffffffff6132dd16565b9050613b6281670de0b6b3a7640000614612565b905060008111613b6e57fe5b600b819055613b7b612d10565b98975050505050505050565b6000610b51670de0b6b3a76400006110a984600b54612c3190919063ffffffff16565b60085460408051632770a7eb60e21b81526001600160a01b0386811660048301526024820186905291519190921691639dc29fac91604480830192600092919082900301818387803b158015613bff57600080fd5b505af1158015613c13573d6000803e3d6000fd5b5050600080546040805163071b32b560e31b81526004810188905290516001600160a01b0390921694506338d995a89350602480820193929182900301818387803b158015613c6157600080fd5b505af1158015613c75573d6000803e3d6000fd5b505060008054604080516364a197f360e01b81526001600160a01b0389811660048301526024820188905291519190921694506364a197f393506044808301939282900301818387803b158015612bac57600080fd5b601454613cd781614704565b6001600160a01b0382166000908152600d6020908152604080832060038101805460ff19166002179055600180820185905590849055601390925282208281550155613d2382826147bd565b600a5460408051631484968760e11b81526001600160a01b038581166004830152915191909216916329092d0e91602480830192600092919082900301818387803b158015613d7157600080fd5b505af1158015613d85573d6000803e3d6000fd5b505050505050565b60008215613db4576000613dab846110a9878663ffffffff612c3116565b91506123b49050565b506000199392505050565b6001600160a01b0381166000908152600d6020526040902060020154600e54613dee908263ffffffff61237216565b600e55506001600160a01b03166000908152600d6020526040812060020155565b6001546040805163071b32b560e31b81526004810185905290516001600160a01b03909216916338d995a89160248082019260009290919082900301818387803b158015613e5c57600080fd5b505af1158015613e70573d6000803e3d6000fd5b505060008054604080516367dc994d60e11b81526004810188905290516001600160a01b03909216945063cfb9329a9350602480820193929182900301818387803b158015613ebe57600080fd5b505af1158015613ed2573d6000803e3d6000fd5b50506001546040805163be41205f60e01b81526004810186905290516001600160a01b03909216935063be41205f925060248082019260009290919082900301818387803b158015613d7157600080fd5b60008184841115613fb25760405162461bcd60e51b81526004018080602001828103825283818151815260200191508051906020019080838360005b83811015613f77578181015183820152602001613f5f565b50505050905090810190601f168015613fa45780820380516001836020036101000a031916815260200191505b509250505060405180910390fd5b505050900390565b60008060105460001415613fcf575081610b51565b6000600f5411613fdb57fe5b6123b46010546110a9600f5486612c3190919063ffffffff16565b613ffe614b3c565b614006614c29565b6014546001106140165750611989565b61401f876119ba565b604085019081526020858101928352860192909252918452905190516140459190613e0f565b614052826020015161490a565b60408301819052678ac7230489e800006060840152602083015161407b9163ffffffff61237216565b8152670de0b6b3a764000086116141155761409587613dbf565b60006080830181905260a0830152815160c0830152805160e08301526140ba87613ccb565b866001600160a01b0316600080516020614c4b833981519152836000015184602001516002604051808481526020018381526020018260038111156140fb57fe5b60ff168152602001935050505060405180910390a2614296565b670de0b6b3a7640000861180156141335750670f43fc2c04ee000086105b1561416d5761414187613dbf565b81518151614150919087614911565b60e086015260c085015260a084015260808301526140ba87613ccb565b670f43fc2c04ee0000861015801561418457508386105b8015614191575081518510155b15614285578461419d57fe5b6141a687613dbf565b6141b9826000015183602001518561497d565b91506141c487613ccb565b610100820151156142445760075461010083015160408051633f10abab60e01b81526001600160a01b038b81166004830152602482019390935290519190921691633f10abab91604480830192600092919082900301818387803b15801561422b57600080fd5b505af115801561423f573d6000803e3d6000fd5b505050505b866001600160a01b0316600080516020614c4b83398151915283600001518460a001516002604051808481526020018381526020018260038111156140fb57fe5b61428d614b3c565b91506119899050565b5095945050505050565b6142a8614b3c565b604080830151908401516142c19163ffffffff6132dd16565b6040820152606080830151908401516142df9163ffffffff6132dd16565b6060820152815160208401516142fa9163ffffffff6132dd16565b60208083019190915282015183516143179163ffffffff6132dd16565b8152608080830151908401516143329163ffffffff6132dd16565b608082015260a080830151908401516143509163ffffffff6132dd16565b60a082015260c0808301519084015161436e9163ffffffff6132dd16565b60c082015260e0808301519084015161438c9163ffffffff6132dd16565b60e082015261010080830151908401516143ab9163ffffffff6132dd16565b61010082015292915050565b6000806143c5858585613d8d565b6714d1120d7b1600001195945050505050565b6143e0614b3c565b6143e8614c29565b6143f1846119ba565b604085019081526020858101928352860192909252918452905190516144179190613e0f565b61442084613dbf565b61442d826020015161490a565b60408301819052678ac7230489e800006060840152602083015160009161445a919063ffffffff61237216565b905061446b83600001518286614911565b60e087015260c086015260a0850152608084015261448885613ccb565b846001600160a01b0316600080516020614c4b833981519152846000015185602001516001604051808481526020018381526020018260038111156144c957fe5b60ff168152602001935050505060405180910390a2505092915050565b600081836145355760405162461bcd60e51b8152602060048201818152835160248401528351909283926044909101919085019080838360008315613f77578181015183820152602001613f5f565b50600083858161454157fe5b0495945050505050565b6000610faa603c6110a9600c544261237290919063ffffffff16565b6000631f54050082111561457d57631f54050091505b816145915750670de0b6b3a7640000610b51565b670de0b6b3a764000083835b600181111561460857600281066145d2576145b88283614a16565b91506145cb81600263ffffffff612c8a16565b9050614603565b6145dc8284614a16565b92506145e88283614a16565b915061460060026110a983600163ffffffff61237216565b90505b61459d565b6110b58284614a16565b600081831061462157816123b4565b5090919050565b60085460065460408051632770a7eb60e21b81526001600160a01b0392831660048201526024810186905290519190921691639dc29fac91604480830192600092919082900301818387803b15801561468057600080fd5b505af1158015614694573d6000803e3d6000fd5b5050600080546040805163071b32b560e31b81526004810188905290516001600160a01b0390921694506338d995a89350602480820193929182900301818387803b1580156146e257600080fd5b505af11580156146f6573d6000803e3d6000fd5b50505050610eea8382614a49565b6001811180156147825750600a546040805163de8fa43160e01b815290516001926001600160a01b03169163de8fa431916004808301926020929190829003018186803b15801561475457600080fd5b505afa158015614768573d6000803e3d6000fd5b505050506040513d602081101561477e57600080fd5b5051115b610afc5760405162461bcd60e51b815260040180806020018281038252602a815260200180614c9d602a913960400191505060405180910390fd5b60026001600160a01b0383166000908152600d602052604090206003015460ff1660028111156147e957fe5b146147f057fe5b6001600160a01b0382166000908152600d602052604081206003015461010090046001600160801b0316908290614828826001612372565b905080836001600160801b0316111561483d57fe5b60006014828154811061484c57fe5b600091825260209091200154601480546001600160a01b03909216925082916001600160801b03871690811061487e57fe5b600091825260208083209190910180546001600160a01b0319166001600160a01b039485161790559183168152600d909152604090206003018054610100600160881b0319166101006001600160801b0387160217905560148054806148e057fe5b600082815260209020810160001990810180546001600160a01b0319169055019055505050505050565b60c8900490565b60008080808415614967576149268786614612565b935061493c876110a9888763ffffffff612c3116565b925061494e878563ffffffff61237216565b9150614960868463ffffffff61237216565b9050614974565b5060009250829150859050845b93509350935093565b614985614b3c565b8381526020810183905260006149ad836110a987670f43fc2c04ee000063ffffffff612c3116565b90506149b88161490a565b60408301819052678ac7230489e800006060840152608083018690526149e590829063ffffffff61237216565b60a08301526149fa848263ffffffff61237216565b61010083015250600060c0820181905260e08201529392505050565b600080614a29848463ffffffff612c3116565b9050613767670de0b6b3a76400006110a9836706f05b59d3b200006132dd565b60075460408051633f10abab60e01b81526001600160a01b0385811660048301526024820185905291519190921691633f10abab91604480830192600092919082900301818387803b158015614a9e57600080fd5b505af1158015614ab2573d6000803e3d6000fd5b505060008054600754604080516364a197f360e01b81526001600160a01b0392831660048201526024810188905290519190921694506364a197f393506044808301939282900301818387803b158015613d7157600080fd5b6040518060a00160405280600081526020016000815260200160001515815260200160008152602001600081525090565b6040518061012001604052806000815260200160008152602001600081526020016000815260200160008152602001600081526020016000815260200160008152602001600081525090565b6040518060c0016040528060006001600160a01b0316815260200160008152602001600081526020016000815260200160008152602001600081525090565b604051806040016040528060008152602001600081525090565b6040518060e0016040528060008152602001600081526020016000815260200160006001600160a01b0316815260200160001515815260200160008152602001600081525090565b6040518060600160405280600081526020016000815260200160008152509056feea67486ed7ebe3eea8ab3390efd4a3c8aae48be5bea27df104a8af786c40843454726f76654d616e616765723a20726564656d7074696f6e206665652065786365656465642070726f7669646564206d617854726f76654d616e616765723a204f6e6c79206f6e652074726f766520696e207468652073797374656d536166654d6174683a206d756c7469706c69636174696f6e206f766572666c6f7754726f76654d616e616765723a2052657175657374656420726564656d7074696f6e20616d6f756e74206d757374206265203c3d20757365722773204c55534420746f6b656e2062616c616e6365c3770d654ed33aeea6bf11ac8ef05d02a6a04ed4686dd2f624d853bbec43cc8b54726f76654d616e616765723a2043616c6c6572206973206e6f742074686520426f72726f7765724f7065726174696f6e7320636f6e747261637454726f76654d616e616765723a2043616c6c646174612061646472657373206172726179206d757374206e6f7420626520656d70747954726f76654d616e616765723a20416d6f756e74206d7573742062652067726561746572207468616e207a65726f54726f76654d616e616765723a2043616e6e6f742072656465656d207768656e20544352203c204d435254726f76654d616e616765723a2054726f766520646f6573206e6f74206578697374206f7220697320636c6f736564a264697066735822122027c0fe5dc607eb05b8d85d7f858d60ffe2814b08e010069efe566a679959f33764736f6c634300060b0033608060405234801561001057600080fd5b50600380546001600160a01b031916339081179091556040516000907f8be0079c531659141344cd1fd0a4f28419497f9722a3daafe3b4186f6b6457e0908290a36133f0806100606000396000f3fe60806040526004361061018d5760003560e01c8063794e5724116100d7578063a20baee611610085578063a20baee6146103df578063a3a64017146104ea578063ae918754146104ff578063b83f91a214610514578063c6a6cf2014610529578063ea9638bf14610571578063f24344e6146105a9578063f6286f83146105be5761018d565b8063794e57241461041e578063795d26c3146104335780637f7dde4a14610448578063860665b31461045d578063887105d3146104975780638da5cb5b146104ac5780638f32d59b146104c15761018d565b80634ff814431161013f5780634ff81443146102b35780635530273c146102dd5780635733d58f1461031e57806368647db1146103335780636c37a4af1461036157806372fe25aa146103df578063741bef1a146103f4578063761ab22c146104095761018d565b806304491fa7146101925780630e704d50146101d55780631184e5f8146101ea5780632e86bbd8146102315780633cc74225146102585780633d83908a146102895780634870dd9a1461029e575b600080fd5b34801561019e57600080fd5b506101d3600480360360608110156101b557600080fd5b508035906001600160a01b03602082013581169160400135166105f1565b005b3480156101e157600080fd5b506101d3610608565b3480156101f657600080fd5b506101d36004803603608081101561020d57600080fd5b508035906020810135906001600160a01b0360408201358116916060013516610966565b34801561023d57600080fd5b5061024661097d565b60408051918252519081900360200190f35b34801561026457600080fd5b5061026d610989565b604080516001600160a01b039092168252519081900360200190f35b34801561029557600080fd5b5061026d610998565b3480156102aa57600080fd5b506102466109a7565b3480156102bf57600080fd5b50610246600480360360208110156102d657600080fd5b50356109ac565b3480156102e957600080fd5b506101d36004803603606081101561030057600080fd5b508035906001600160a01b03602082013581169160400135166109bd565b34801561032a57600080fd5b506102466109ce565b6101d36004803603604081101561034957600080fd5b506001600160a01b03813581169160200135166109da565b34801561036d57600080fd5b506101d3600480360361014081101561038557600080fd5b506001600160a01b038135811691602081013582169160408201358116916060810135821691608082013581169160a081013582169160c082013581169160e08101358216916101008201358116916101200135166109f0565b3480156103eb57600080fd5b50610246610ddd565b34801561040057600080fd5b5061026d610de9565b34801561041557600080fd5b5061026d610df8565b34801561042a57600080fd5b50610246610e07565b34801561043f57600080fd5b50610246610e13565b34801561045457600080fd5b5061026d610f14565b6101d36004803603608081101561047357600080fd5b508035906020810135906001600160a01b0360408201358116916060013516610f23565b3480156104a357600080fd5b5061024661165c565b3480156104b857600080fd5b5061026d611718565b3480156104cd57600080fd5b506104d6611727565b604080519115158252519081900360200190f35b3480156104f657600080fd5b5061026d611738565b34801561050b57600080fd5b5061026d611747565b34801561052057600080fd5b5061026d611756565b6101d3600480360360c081101561053f57600080fd5b5080359060208101359060408101359060608101351515906001600160a01b03608082013581169160a0013516611765565b6101d36004803603606081101561058757600080fd5b506001600160a01b038135811691602081013582169160409091013516611774565b3480156105b557600080fd5b5061024661178e565b3480156105ca57600080fd5b506101d3600480360360208110156105e157600080fd5b50356001600160a01b031661179a565b61060333600085600086866000611803565b505050565b610611336120d9565b610619612199565b6004805460408051630b07655760e01b81523393810193909352516001600160a01b0390911691630b07655791602480830192600092919082900301818387803b15801561066657600080fd5b505af115801561067a573d6000803e3d6000fd5b505060048054604080516309019aaf60e31b8152339381019390935251600094506001600160a01b03909116925063480cd57891602480820192602092909190829003018186803b1580156106ce57600080fd5b505afa1580156106e2573d6000803e3d6000fd5b505050506040513d60208110156106f857600080fd5b5051600480546040805163d66a255360e01b81523393810193909352519293506000926001600160a01b039091169163d66a2553916024808301926020929190829003018186803b15801561074c57600080fd5b505afa158015610760573d6000803e3d6000fd5b505050506040513d602081101561077657600080fd5b5051905061079b3361079683678ac7230489e8000063ffffffff6121df16565b612228565b6004805460408051631fc5750960e31b81523393810193909352516001600160a01b039091169163fe2ba84891602480830192600092919082900301818387803b1580156107e857600080fd5b505af11580156107fc573d6000803e3d6000fd5b505060048054604080516365e89c5760e11b81523393810193909352516001600160a01b03909116935063cbd138ae9250602480830192600092919082900301818387803b15801561084d57600080fd5b505af1158015610861573d6000803e3d6000fd5b50505050336001600160a01b03166000805160206131f283398151915260008060006001604051808581526020018481526020018381526020018260068111156108a757fe5b60ff16815260200194505050505060405180910390a26108de336108d983678ac7230489e8000063ffffffff6121df16565b6122e1565b6006546108fc906001600160a01b0316678ac7230489e800006122e1565b60008054604080516364a197f360e01b81523360048201526024810186905290516001600160a01b03909216926364a197f39260448084019382900301818387803b15801561094a57600080fd5b505af115801561095e573d6000803e3d6000fd5b505050505050565b61097733600085600186868a611803565b50505050565b678ac7230489e8000081565b6001546001600160a01b031681565b6004546001600160a01b031681565b60c881565b60006109b782612396565b92915050565b610603338460008086866000611803565b6714d1120d7b16000081565b6109ec33600080600086866000611803565b5050565b6109f8611727565b610a49576040805162461bcd60e51b815260206004820181905260248201527f4f776e61626c653a2063616c6c6572206973206e6f7420746865206f776e6572604482015290519081900360640190fd5b610a528a6123b0565b610a5b896123b0565b610a64886123b0565b610a6d876123b0565b610a76866123b0565b610a7f856123b0565b610a88846123b0565b610a91836123b0565b610a9a826123b0565b610aa3816123b0565b600480546001600160a01b03199081166001600160a01b038d81169182179093556000805483168d85161790556001805483168c85161790556005805483168b85161790556006805483168a8516179055600780548316898516179055600280548316888516179055600b80548316878516179055600a80548316868516179055600980548316938516938417905560088054909216909217905560408051918252517f143219c9e69b09e07e095fcc889b43d8f46ca892bba65f08dc3a0050869a5678916020908290030190a1604080516001600160a01b038b16815290517f78f058b189175430c48dc02699e3a0031ea4ff781536dc2fab847de4babdd8829181900360200190a1604080516001600160a01b038a16815290517f5ee0cae2f063ed938bb55046f6a932fb6ae792bf43624806bb90abe68a50be9b9181900360200190a1604080516001600160a01b038916815290517f82966d27eea39b038ee0fa30cd16532bb24f6e65d31cb58fb227aa5766cdcc7f9181900360200190a1604080516001600160a01b038816815290517fcfb07d791fcafc032b35837b50eb84b74df518cf4cc287e8084f47630fa70fa09181900360200190a1604080516001600160a01b038716815290517fe67f36a6e961157d6eff83b91f3af5a62131ceb6f04954ef74f51c1c05e7f88d9181900360200190a1604080516001600160a01b038416815290517f227eec0ec317af6ab1a9587ffa1c84332522eb4c583a908f89babc05f8f339bd9181900360200190a1604080516001600160a01b038616815290517f8c537274438aa850a330284665d81a85dd38267d09e4050d416bfc94142db2649181900360200190a1604080516001600160a01b038516815290517f65f4cf077bc01e4742eb5ad98326f6e95b63548ea24b17f8d5e823111fe788009181900360200190a1604080516001600160a01b038416815290517f227eec0ec317af6ab1a9587ffa1c84332522eb4c583a908f89babc05f8f339bd9181900360200190a1604080516001600160a01b038316815290517f756ebc192164c295bba134b5aacd72cc7aff8098a670d1f0a5f6b3a0b4ce67079181900360200190a1610dd161245f565b50505050505050505050565b670de0b6b3a764000081565b6002546001600160a01b031681565b6009546001600160a01b031681565b670f43fc2c04ee000081565b6000805460408051632f5a97e560e11b8152905183926001600160a01b031691635eb52fca916004808301926020929190829003018186803b158015610e5857600080fd5b505afa158015610e6c573d6000803e3d6000fd5b505050506040513d6020811015610e8257600080fd5b505160015460408051632f5a97e560e11b815290519293506000926001600160a01b0390921691635eb52fca91600480820192602092909190829003018186803b158015610ecf57600080fd5b505afa158015610ee3573d6000803e3d6000fd5b505050506040513d6020811015610ef957600080fd5b50519050610f0d828263ffffffff6124a916565b9250505090565b6000546001600160a01b031681565b60025460408051634c6afee560e11b815290516000926001600160a01b0316916398d5fdca916004808301926020929190829003018186803b158015610f6857600080fd5b505afa158015610f7c573d6000803e3d6000fd5b505050506040513d6020811015610f9257600080fd5b50519050610f9f33612503565b6004805460408051632edd262560e11b815290516001600160a01b0390921692635dba4c4a92828201926000929082900301818387803b158015610fe257600080fd5b505af1158015610ff6573d6000803e3d6000fd5b50506004805460408051630631203b60e41b815292830189905251600094506001600160a01b03909116925063631203b091602480820192602092909190829003018186803b15801561104857600080fd5b505afa15801561105c573d6000803e3d6000fd5b505050506040513d602081101561107257600080fd5b505190506000611088868363ffffffff6124a916565b90508187101580611097575086155b6110d25760405162461bcd60e51b815260040180806020018281038252602f8152602001806130e5602f913960400191505060405180910390fd5b60006110dd82612396565b9050600081116110e957fe5b60006110f63483876125da565b905060006111043484612618565b905061110e61264d565b156111215761111c82612668565b611139565b61112a826126b2565b6111393460018560018a6126f9565b6004805460408051635d6b480f60e01b8152339381019390935260016024840152516001600160a01b0390911691635d6b480f91604480830192600092919082900301818387803b15801561118d57600080fd5b505af11580156111a1573d6000803e3d6000fd5b505060048054604080516372423c1760e01b81523393810193909352346024840152516001600160a01b0390911693506372423c17925060448083019260209291908290030181600087803b1580156111f957600080fd5b505af115801561120d573d6000803e3d6000fd5b505050506040513d602081101561122357600080fd5b50506004805460408051639976cf4560e01b8152339381019390935260248301869052516001600160a01b0390911691639976cf459160448083019260209291908290030181600087803b15801561127a57600080fd5b505af115801561128e573d6000803e3d6000fd5b505050506040513d60208110156112a457600080fd5b505060048054604080516382fe3eb960e01b81523393810193909352516001600160a01b03909116916382fe3eb991602480830192600092919082900301818387803b1580156112f357600080fd5b505af1158015611307573d6000803e3d6000fd5b50506004805460408051630c7940bd60e11b8152339381019390935251600094506001600160a01b0390911692506318f2817a9160248082019260209290919082900301818787803b15801561135c57600080fd5b505af1158015611370573d6000803e3d6000fd5b505050506040513d602081101561138657600080fd5b5051600b54604080516346f7cf8760e01b8152336004820152602481018690526001600160a01b038d811660448301528c8116606483015291519394509116916346f7cf879160848082019260009290919082900301818387803b1580156113ed57600080fd5b505af1158015611401573d6000803e3d6000fd5b505060048054604080516315d549f160e01b8152339381019390935251600094506001600160a01b0390911692506315d549f19160248082019260209290919082900301818787803b15801561145657600080fd5b505af115801561146a573d6000803e3d6000fd5b505050506040513d602081101561148057600080fd5b505160408051828152905191925033917f59cfd0cd754bc5748b6770e94a4ffa5f678d885cb899dcfadc5734edb97c67ab9181900360200190a2600a54600954604080516340c10f1960e01b81526001600160a01b039283166004820152602481018b9052905191909216916340c10f1991604480830192600092919082900301818387803b15801561151257600080fd5b505af1158015611526573d6000803e3d6000fd5b505060085460408051634677ffb360e01b8152600481018c905290516001600160a01b039092169350634677ffb3925060248082019260009290919082900301818387803b15801561157757600080fd5b505af115801561158b573d6000803e3d6000fd5b5050505061159834612751565b6115a3338c886127b4565b6006546115c2906001600160a01b0316678ac7230489e80000806127b4565b336001600160a01b03166000805160206131f283398151915286348560006040518085815260200184815260200183815260200182600681111561160257fe5b60ff16815260200194505050505060405180910390a260408051888152905133917fa55c5f48fd29482ad55f4b59bf070cd1ac1a7132a31f7a136ebe8877ae37e1ff919081900360200190a2505050505050505050505050565b6000805460408051630a7b61df60e11b8152905183926001600160a01b0316916314f6c3be916004808301926020929190829003018186803b1580156116a157600080fd5b505afa1580156116b5573d6000803e3d6000fd5b505050506040513d60208110156116cb57600080fd5b505160015460408051630a7b61df60e11b815290519293506000926001600160a01b03909216916314f6c3be91600480820192602092909190829003018186803b158015610ecf57600080fd5b6003546001600160a01b031690565b6003546001600160a01b0316331490565b6008546001600160a01b031681565b600b546001600160a01b031681565b600a546001600160a01b031681565b61095e3386868686868c611803565b61177c612886565b61060383600080600086866000611803565b6729a2241af62c000081565b6007546040805163b32beb5b60e01b81526001600160a01b0384811660048301529151919092169163b32beb5b91602480830192600092919082900301818387803b1580156117e857600080fd5b505af11580156117fc573d6000803e3d6000fd5b5050505050565b34158061180e575085155b6118495760405162461bcd60e51b815260040180806020018281038252603081526020018061304c6030913960400191505060405180910390fd5b6000861515806118565750845b9050336001600160a01b038916148061186d575080155b6118a85760405162461bcd60e51b81526004018080602001828103825260308152602001806130b56030913960400191505060405180910390fd5b341515806118b557508615155b806118bf57508515155b6118fa5760405162461bcd60e51b81526004018080602001828103825260468152602001806131146046913960600191505060405180910390fd5b611903886120d9565b61190b612fc1565b600260009054906101000a90046001600160a01b03166001600160a01b03166398d5fdca6040518163ffffffff1660e01b815260040160206040518083038186803b15801561195957600080fd5b505afa15801561196d573d6000803e3d6000fd5b505050506040513d602081101561198357600080fd5b505181526004805460408051630b07655760e01b81526001600160a01b038d81169482019490945290519290911691630b0765579160248082019260009290919082900301818387803b1580156119d957600080fd5b505af11580156119ed573d6000803e3d6000fd5b505050506119fb34896128cf565b151560608301526020820152604081018790528515611c765760008711611a535760405162461bcd60e51b81526004018080602001828103825260378152602001806132916037913960400191505060405180910390fd5b6004805460408051632edd262560e11b815290516001600160a01b0390921692635dba4c4a92828201926000929082900301818387803b158015611a9657600080fd5b505af1158015611aaa573d6000803e3d6000fd5b50506004805460408051630631203b60e41b81529283018c9052516001600160a01b03909116935063631203b092506024808301926020929190829003018186803b158015611af857600080fd5b505afa158015611b0c573d6000803e3d6000fd5b505050506040513d6020811015611b2257600080fd5b5051610100820181905283101580611b38575082155b611b735760405162461bcd60e51b815260040180806020018281038252602f8152602001806130e5602f913960400191505060405180910390fd5b6101008101516040820151611b8d9163ffffffff6124a916565b6040808301919091526008546101008301518251634677ffb360e01b8152600481019190915291516001600160a01b0390911691634677ffb391602480830192600092919082900301818387803b158015611be757600080fd5b505af1158015611bfb573d6000803e3d6000fd5b5050600a54600954610100850151604080516340c10f1960e01b81526001600160a01b0393841660048201526024810192909252519190921693506340c10f199250604480830192600092919082900301818387803b158015611c5d57600080fd5b505af1158015611c71573d6000803e3d6000fd5b505050505b600480546040805163d66a255360e01b81526001600160a01b038d8116948201949094529051929091169163d66a255391602480820192602092909190829003018186803b158015611cc757600080fd5b505afa158015611cdb573d6000803e3d6000fd5b505050506040513d6020811015611cf157600080fd5b5051608082015260048054604080516309019aaf60e31b81526001600160a01b038d8116948201949094529051929091169163480cd57891602480820192602092909190829003018186803b158015611d4957600080fd5b505afa158015611d5d573d6000803e3d6000fd5b505050506040513d6020811015611d7357600080fd5b505160a0820181905260808201518251611d8e9291906125da565b8160c0018181525050611dbe8160a0015182608001518360200151846060015185604001518b87600001516128ee565b60e08201528115611e9757611dd161264d565b611e43576000611df48260200151836060015184604001518a8660000151612921565b90506714d1120d7b160000811015611e3d5760405162461bcd60e51b81526004018080602001828103825260278152602001806130256027913960400191505060405180910390fd5b50611e8a565b8060c001518160e001511015611e8a5760405162461bcd60e51b815260040180806020018281038252603e81526020018061337d603e913960400191505060405180910390fd5b611e978160e001516126b2565b85158015611ea55750600087115b15611eca57611ebc816080015182604001516129ac565b611eca898260400151612228565b611ee3898260200151836060015184604001518a612a02565b6101208301526101408201526004805460408051630c7940bd60e11b81526001600160a01b038d811694820194909452905192909116916318f2817a916024808201926020929091908290030181600087803b158015611f4257600080fd5b505af1158015611f56573d6000803e3d6000fd5b505050506040513d6020811015611f6c57600080fd5b505161016082015260a08101516080820151602083015160608401516040850151600094611fa0949093909290918c612c49565b600b546040805163015f109360e51b81526001600160a01b038e81166004830152602482018590528a8116604483015289811660648301529151939450911691632be212609160848082019260009290919082900301818387803b15801561200757600080fd5b505af115801561201b573d6000803e3d6000fd5b50505050896001600160a01b03166000805160206131f283398151915283610120015184610140015185610160015160066040518085815260200184815260200183815260200182600681111561206e57fe5b60ff16815260200194505050505060405180910390a2610100820151604080519182525133917fa55c5f48fd29482ad55f4b59bf070cd1ac1a7132a31f7a136ebe8877ae37e1ff919081900360200190a2610dd133836020015184606001518b8b8760400151612c7a565b60048054604080516321e3780160e01b81526001600160a01b03858116948201949094529051600093909216916321e3780191602480820192602092909190829003018186803b15801561212c57600080fd5b505afa158015612140573d6000803e3d6000fd5b505050506040513d602081101561215657600080fd5b50519050600181146109ec5760405162461bcd60e51b815260040180806020018281038252602e8152602001806131c4602e913960400191505060405180910390fd5b6121a161264d565b156121dd5760405162461bcd60e51b815260040180806020018281038252603981526020018061307c6039913960400191505060405180910390fd5b565b600061222183836040518060400160405280601e81526020017f536166654d6174683a207375627472616374696f6e206f766572666c6f770000815250612d14565b9392505050565b600a54604080516370a0823160e01b81526001600160a01b0385811660048301529151849392909216916370a0823191602480820192602092909190829003018186803b15801561227857600080fd5b505afa15801561228c573d6000803e3d6000fd5b505050506040513d60208110156122a257600080fd5b505110156109ec5760405162461bcd60e51b81526004018080602001828103825260408152602001806132126040913960400191505060405180910390fd5b600080546040805163071b32b560e31b81526004810185905290516001600160a01b03909216926338d995a89260248084019382900301818387803b15801561232957600080fd5b505af115801561233d573d6000803e3d6000fd5b5050600a5460408051632770a7eb60e21b81526001600160a01b038781166004830152602482018790529151919092169350639dc29fac9250604480830192600092919082900301818387803b15801561094a57600080fd5b60006109b782678ac7230489e8000063ffffffff6124a916565b6001600160a01b03811661240b576040805162461bcd60e51b815260206004820152601e60248201527f4163636f756e742063616e6e6f74206265207a65726f20616464726573730000604482015290519081900360640190fd5b803b806109ec576040805162461bcd60e51b815260206004820181905260248201527f4163636f756e7420636f64652073697a652063616e6e6f74206265207a65726f604482015290519081900360640190fd5b6003546040516000916001600160a01b0316907f8be0079c531659141344cd1fd0a4f28419497f9722a3daafe3b4186f6b6457e0908390a3600380546001600160a01b0319169055565b600082820183811015612221576040805162461bcd60e51b815260206004820152601b60248201527f536166654d6174683a206164646974696f6e206f766572666c6f770000000000604482015290519081900360640190fd5b60048054604080516321e3780160e01b81526001600160a01b03858116948201949094529051600093909216916321e3780191602480820192602092909190829003018186803b15801561255657600080fd5b505afa15801561256a573d6000803e3d6000fd5b505050506040513d602081101561258057600080fd5b5051905060018114156109ec576040805162461bcd60e51b815260206004820152601c60248201527f426f72726f7765724f70733a2054726f76652069732061637469766500000000604482015290519081900360640190fd5b6000821561260d576000612604846125f8878663ffffffff612dab16565b9063ffffffff612e0416565b91506122219050565b506000199392505050565b600081156126445761263d826125f88568056bc75e2d6310000063ffffffff612dab16565b90506109b7565b506000196109b7565b600080612658612e46565b6714d1120d7b1600001191505090565b6729a2241af62c00008110156126af5760405162461bcd60e51b815260040180806020018281038252603f815260200180613252603f913960400191505060405180910390fd5b50565b670f43fc2c04ee00008110156126af5760405162461bcd60e51b81526004018080602001828103825260498152602001806132c86049913960600191505060405180910390fd5b60006127088686868686612921565b90506714d1120d7b16000081101561095e5760405162461bcd60e51b815260040180806020018281038252604981526020018061317b6049913960600191505060405180910390fd5b600080546040516001600160a01b039091169083908381818185875af1925050503d806000811461279e576040519150601f19603f3d011682016040523d82523d6000602084013e6127a3565b606091505b50909150506001811515146109ec57fe5b60008054604080516367dc994d60e11b81526004810185905290516001600160a01b039092169263cfb9329a9260248084019382900301818387803b1580156127fc57600080fd5b505af1158015612810573d6000803e3d6000fd5b5050600a54604080516340c10f1960e01b81526001600160a01b0388811660048301526024820188905291519190921693506340c10f199250604480830192600092919082900301818387803b15801561286957600080fd5b505af115801561287d573d6000803e3d6000fd5b50505050505050565b6005546001600160a01b031633146121dd5760405162461bcd60e51b81526004018080602001828103825260298152602001806133546029913960400191505060405180910390fd5b60008083156128e3575082905060016128e7565b8291505b9250929050565b60008060006129018a8a8a8a8a8a612ef0565b9150915060006129128383876125da565b9b9a5050505050505050505050565b60008061292c61165c565b90506000612938610e13565b9050866129545761294f828963ffffffff6121df16565b612964565b612964828963ffffffff6124a916565b9150846129805761297b818763ffffffff6121df16565b612990565b612990818763ffffffff6124a916565b9050600061299f8383876125da565b9998505050505050505050565b6129c482678ac7230489e8000063ffffffff6121df16565b8111156109ec5760405162461bcd60e51b81526004018080602001828103825260438152602001806133116043913960600191505060405180910390fd5b600080600085612a9757600480546040805163d3d6f84360e01b81526001600160a01b038c811694820194909452602481018b90529051929091169163d3d6f843916044808201926020929091908290030181600087803b158015612a6657600080fd5b505af1158015612a7a573d6000803e3d6000fd5b505050506040513d6020811015612a9057600080fd5b5051612b1e565b60048054604080516372423c1760e01b81526001600160a01b038c811694820194909452602481018b9052905192909116916372423c17916044808201926020929091908290030181600087803b158015612af157600080fd5b505af1158015612b05573d6000803e3d6000fd5b505050506040513d6020811015612b1b57600080fd5b50515b9050600084612bb2576004805460408051630930874960e11b81526001600160a01b038d811694820194909452602481018a9052905192909116916312610e92916044808201926020929091908290030181600087803b158015612b8157600080fd5b505af1158015612b95573d6000803e3d6000fd5b505050506040513d6020811015612bab57600080fd5b5051612c39565b6004805460408051639976cf4560e01b81526001600160a01b038d811694820194909452602481018a905290519290911691639976cf45916044808201926020929091908290030181600087803b158015612c0c57600080fd5b505af1158015612c20573d6000803e3d6000fd5b505050506040513d6020811015612c3657600080fd5b50515b9199919850909650505050505050565b6000806000612c5c898989898989612ef0565b915091506000612c6c8383612618565b9a9950505050505050505050565b8115612c9057612c8b8684836127b4565b612c9a565b612c9a86846122e1565b8315612cae57612ca985612751565b61095e565b60008054604080516364a197f360e01b81526001600160a01b038a81166004830152602482018a9052915191909216926364a197f3926044808201939182900301818387803b158015612d0057600080fd5b505af1158015610dd1573d6000803e3d6000fd5b60008184841115612da35760405162461bcd60e51b81526004018080602001828103825283818151815260200191508051906020019080838360005b83811015612d68578181015183820152602001612d50565b50505050905090810190601f168015612d955780820380516001836020036101000a031916815260200191505b509250505060405180910390fd5b505050900390565b600082612dba575060006109b7565b82820282848281612dc757fe5b04146122215760405162461bcd60e51b815260040180806020018281038252602181526020018061315a6021913960400191505060405180910390fd5b600061222183836040518060400160405280601a81526020017f536166654d6174683a206469766973696f6e206279207a65726f000000000000815250612f5c565b600080600260009054906101000a90046001600160a01b03166001600160a01b03166398d5fdca6040518163ffffffff1660e01b815260040160206040518083038186803b158015612e9757600080fd5b505afa158015612eab573d6000803e3d6000fd5b505050506040513d6020811015612ec157600080fd5b505190506000612ecf61165c565b90506000612edb610e13565b9050612ee88282856125da565b935050505090565b600080878786612f0f57612f0a8a8963ffffffff6121df16565b612f1f565b612f1f8a8963ffffffff6124a916565b915084612f3b57612f36898763ffffffff6121df16565b612f4b565b612f4b898763ffffffff6124a916565b919a91995090975050505050505050565b60008183612fab5760405162461bcd60e51b8152602060048201818152835160248401528351909283926044909101919085019080838360008315612d68578181015183820152602001612d50565b506000838581612fb757fe5b0495945050505050565b6040518061018001604052806000815260200160008152602001600081526020016000151581526020016000815260200160008152602001600081526020016000815260200160008152602001600081526020016000815260200160008152509056fe426f72726f7765724f70733a2043616e6e6f74206272696e67205443522062656c6f7720434352426f72726f7765724f7065726174696f6e733a2043616e6e6f7420776974686472617720616e642061646420636f6c6c426f72726f7765724f70733a204f7065726174696f6e206e6f74207065726d697474656420647572696e67205265636f76657279204d6f6465426f72726f7765724f70733a2055736572206d7573742062652073656e64657220666f72207769746864726177616c73426f72726f7765724f70733a2069737375616e6365206665652065786365656465642070726f7669646564206d6178426f72726f7765724f70733a205468657265206d75737420626520656974686572206120636f6c6c61746572616c206368616e6765206f7220612064656274206368616e6765536166654d6174683a206d756c7469706c69636174696f6e206f766572666c6f77426f72726f7765724f70733a20416e206f7065726174696f6e207468617420776f756c6420726573756c7420696e20544352203c20434352206973206e6f74207065726d6974746564426f72726f7765724f70733a2054726f766520646f6573206e6f74206578697374206f7220697320636c6f736564c3770d654ed33aeea6bf11ac8ef05d02a6a04ed4686dd2f624d853bbec43cc8b426f72726f7765724f70733a2043616c6c657220646f65736e74206861766520656e6f756768204c55534420746f20636c6f73652074686569722074726f7665426f72726f7765724f70733a20496e205265636f76657279204d6f6465206e65772074726f766573206d757374206861766520494352203e3d20525f4d4352426f72726f7765724f70733a204465627420696e63726561736520726571756972657320706f73697469766520646562744368616e6765426f72726f7765724f70733a20416e206f7065726174696f6e207468617420776f756c6420726573756c7420696e20494352203c204d4352206973206e6f74207065726d6974746564426f72726f7765724f70733a20416d6f756e7420726570616964206d757374206e6f74206265206c6172676572207468616e207468652054726f766527732064656274426f72726f7765724f70733a2043616c6c6572206973206e6f742053746162696c69747920506f6f6c426f72726f7765724f70733a2043616e6e6f7420646563726561736520796f75722054726f766527732049435220696e205265636f76657279204d6f6465a26469706673582212204353647fc2e4233db695815943b17bfa01b3e72bb85a746a2e77790d884cacdf64736f6c634300060b0033608060405234801561001057600080fd5b50600080546001600160a01b0319163390811782556040519091907f8be0079c531659141344cd1fd0a4f28419497f9722a3daafe3b4186f6b6457e0908290a3610a668061005f6000396000f3fe6080604052600436106100ab5760003560e01c806364a197f31161006457806364a197f3146101ce5780638da5cb5b146102075780638f32d59b1461021c578063aac1846f14610245578063b7f8cf9b1461025a578063cfb9329a1461026f576100d0565b80630b622ab2146100d557806314f6c3be1461010657806338d995a81461012d5780634a945f8d146101595780635a4d28bb146101a45780635eb52fca146101b9576100d0565b366100d0576100b8610299565b6005546100cb903463ffffffff6102f916565b600555005b600080fd5b3480156100e157600080fd5b506100ea61035a565b604080516001600160a01b039092168252519081900360200190f35b34801561011257600080fd5b5061011b610369565b60408051918252519081900360200190f35b34801561013957600080fd5b506101576004803603602081101561015057600080fd5b503561036f565b005b34801561016557600080fd5b506101576004803603608081101561017c57600080fd5b506001600160a01b038135811691602081013582169160408201358116916060013516610390565b3480156101b057600080fd5b506100ea610549565b3480156101c557600080fd5b5061011b610558565b3480156101da57600080fd5b50610157600480360360408110156101f157600080fd5b506001600160a01b03813516906020013561055e565b34801561021357600080fd5b506100ea61066b565b34801561022857600080fd5b5061023161067a565b604080519115158252519081900360200190f35b34801561025157600080fd5b506100ea61068b565b34801561026657600080fd5b506100ea61069a565b34801561027b57600080fd5b506101576004803603602081101561029257600080fd5b50356106a9565b6001546001600160a01b03163314806102bc57506004546001600160a01b031633145b6102f75760405162461bcd60e51b8152600401808060200182810382526031815260200180610a006031913960400191505060405180910390fd5b565b600082820183811015610353576040805162461bcd60e51b815260206004820152601b60248201527f536166654d6174683a206164646974696f6e206f766572666c6f770000000000604482015290519081900360640190fd5b9392505050565b6003546001600160a01b031681565b60055490565b6103776106c4565b60065461038a908263ffffffff61073716565b60065550565b61039861067a565b6103e9576040805162461bcd60e51b815260206004820181905260248201527f4f776e61626c653a2063616c6c6572206973206e6f7420746865206f776e6572604482015290519081900360640190fd5b6103f284610779565b6103fb83610779565b61040482610779565b61040d81610779565b600180546001600160a01b038087166001600160a01b031992831681179093556002805487831690841617905560038054868316908416179055600480549185169190921617905560408051918252517f3ca631ffcd2a9b5d9ae18543fc82f58eb4ca33af9e6ab01b7a8e95331e6ed9859181900360200190a1604080516001600160a01b038516815290517f143219c9e69b09e07e095fcc889b43d8f46ca892bba65f08dc3a0050869a56789181900360200190a1604080516001600160a01b038416815290517f82966d27eea39b038ee0fa30cd16532bb24f6e65d31cb58fb227aa5766cdcc7f9181900360200190a1604080516001600160a01b038316815290517f5ee0cae2f063ed938bb55046f6a932fb6ae792bf43624806bb90abe68a50be9b9181900360200190a161054361082c565b50505050565b6002546001600160a01b031681565b60065490565b6105666106c4565b600554610579908263ffffffff61073716565b600555604080516001600160a01b03841681526020810183905281517f6109e2559dfa766aaec7118351d48a523f0a4157f49c8d68749c8ac41318ad12929181900390910190a16040516000906001600160a01b0384169083908381818185875af1925050503d806000811461060b576040519150601f19603f3d011682016040523d82523d6000602084013e610610565b606091505b5050905080610666576040805162461bcd60e51b815260206004820152601e60248201527f416374697665506f6f6c3a2073656e64696e6720455448206661696c65640000604482015290519081900360640190fd5b505050565b6000546001600160a01b031690565b6000546001600160a01b0316331490565b6004546001600160a01b031681565b6001546001600160a01b031681565b6106b1610876565b60065461038a908263ffffffff6102f916565b6001546001600160a01b03163314806106e757506002546001600160a01b031633145b806106fc57506003546001600160a01b031633145b6102f75760405162461bcd60e51b81526004018080602001828103825260538152602001806109ad6053913960600191505060405180910390fd5b600061035383836040518060400160405280601e81526020017f536166654d6174683a207375627472616374696f6e206f766572666c6f7700008152506108d4565b6001600160a01b0381166107d4576040805162461bcd60e51b815260206004820152601e60248201527f4163636f756e742063616e6e6f74206265207a65726f20616464726573730000604482015290519081900360640190fd5b803b80610828576040805162461bcd60e51b815260206004820181905260248201527f4163636f756e7420636f64652073697a652063616e6e6f74206265207a65726f604482015290519081900360640190fd5b5050565b600080546040516001600160a01b03909116907f8be0079c531659141344cd1fd0a4f28419497f9722a3daafe3b4186f6b6457e0908390a3600080546001600160a01b0319169055565b6001546001600160a01b031633148061089957506002546001600160a01b031633145b6102f75760405162461bcd60e51b815260040180806020018281038252604181526020018061096c6041913960600191505060405180910390fd5b600081848411156109635760405162461bcd60e51b81526004018080602001828103825283818151815260200191508051906020019080838360005b83811015610928578181015183820152602001610910565b50505050905090810190601f1680156109555780820380516001836020036101000a031916815260200191505b509250505060405180910390fd5b50505090039056fe416374697665506f6f6c3a2043616c6c6572206973206e65697468657220426f72726f7765724f7065726174696f6e73206e6f722054726f76654d616e61676572416374697665506f6f6c3a2043616c6c6572206973206e65697468657220426f72726f7765724f7065726174696f6e73206e6f722054726f76654d616e61676572206e6f722053746162696c697479506f6f6c416374697665506f6f6c3a2043616c6c6572206973206e65697468657220424f206e6f722044656661756c7420506f6f6ca2646970667358221220f2b0af9c3c75b13bd71b994bc8e64dcc0e6809e948f571a000eaf43c84c11a5b64736f6c634300060b0033608060405234801561001057600080fd5b50600080546001600160a01b0319163390811782556040519091907f8be0079c531659141344cd1fd0a4f28419497f9722a3daafe3b4186f6b6457e0908290a36108408061005f6000396000f3fe6080604052600436106100955760003560e01c80638f32d59b116100595780638f32d59b1461016d57806390107afe14610196578063b08bc722146101d1578063be41205f146101e6578063cfb9329a14610210576100ba565b806314f6c3be146100bf57806338d995a8146100e65780635a4d28bb146101125780635eb52fca146101435780638da5cb5b14610158576100ba565b366100ba576100a261023a565b6003546100b5903463ffffffff61028516565b600355005b600080fd5b3480156100cb57600080fd5b506100d46102e6565b60408051918252519081900360200190f35b3480156100f257600080fd5b506101106004803603602081101561010957600080fd5b50356102ec565b005b34801561011e57600080fd5b5061012761030d565b604080516001600160a01b039092168252519081900360200190f35b34801561014f57600080fd5b506100d461031c565b34801561016457600080fd5b50610127610322565b34801561017957600080fd5b50610182610331565b604080519115158252519081900360200190f35b3480156101a257600080fd5b50610110600480360360408110156101b957600080fd5b506001600160a01b0381358116916020013516610342565b3480156101dd57600080fd5b50610127610455565b3480156101f257600080fd5b506101106004803603602081101561020957600080fd5b5035610464565b34801561021c57600080fd5b506101106004803603602081101561023357600080fd5b5035610580565b6002546001600160a01b031633146102835760405162461bcd60e51b81526004018080602001828103825260298152602001806107b76029913960400191505060405180910390fd5b565b6000828201838110156102df576040805162461bcd60e51b815260206004820152601b60248201527f536166654d6174683a206164646974696f6e206f766572666c6f770000000000604482015290519081900360640190fd5b9392505050565b60035490565b6102f461059b565b600454610307908263ffffffff6105e416565b60045550565b6001546001600160a01b031681565b60045490565b6000546001600160a01b031690565b6000546001600160a01b0316331490565b61034a610331565b61039b576040805162461bcd60e51b815260206004820181905260248201527f4f776e61626c653a2063616c6c6572206973206e6f7420746865206f776e6572604482015290519081900360640190fd5b6103a482610626565b6103ad81610626565b600180546001600160a01b038085166001600160a01b03199283168117909355600280549185169190921617905560408051918252517f143219c9e69b09e07e095fcc889b43d8f46ca892bba65f08dc3a0050869a56789181900360200190a1604080516001600160a01b038316815290517f78f058b189175430c48dc02699e3a0031ea4ff781536dc2fab847de4babdd8829181900360200190a16104516106d5565b5050565b6002546001600160a01b031681565b61046c61059b565b6002546003546001600160a01b039091169061048e908363ffffffff6105e416565b600355604080516001600160a01b03831681526020810184905281517f6109e2559dfa766aaec7118351d48a523f0a4157f49c8d68749c8ac41318ad12929181900390910190a16040516000906001600160a01b0383169084908381818185875af1925050503d8060008114610520576040519150601f19603f3d011682016040523d82523d6000602084013e610525565b606091505b505090508061057b576040805162461bcd60e51b815260206004820152601f60248201527f44656661756c74506f6f6c3a2073656e64696e6720455448206661696c656400604482015290519081900360640190fd5b505050565b61058861059b565b600454610307908263ffffffff61028516565b6001546001600160a01b031633146102835760405162461bcd60e51b815260040180806020018281038252602b8152602001806107e0602b913960400191505060405180910390fd5b60006102df83836040518060400160405280601e81526020017f536166654d6174683a207375627472616374696f6e206f766572666c6f77000081525061071f565b6001600160a01b038116610681576040805162461bcd60e51b815260206004820152601e60248201527f4163636f756e742063616e6e6f74206265207a65726f20616464726573730000604482015290519081900360640190fd5b803b80610451576040805162461bcd60e51b815260206004820181905260248201527f4163636f756e7420636f64652073697a652063616e6e6f74206265207a65726f604482015290519081900360640190fd5b600080546040516001600160a01b03909116907f8be0079c531659141344cd1fd0a4f28419497f9722a3daafe3b4186f6b6457e0908390a3600080546001600160a01b0319169055565b600081848411156107ae5760405162461bcd60e51b81526004018080602001828103825283818151815260200191508051906020019080838360005b8381101561077357818101518382015260200161075b565b50505050905090810190601f1680156107a05780820380516001836020036101000a031916815260200191505b509250505060405180910390fd5b50505090039056fe44656661756c74506f6f6c3a2043616c6c6572206973206e6f742074686520416374697665506f6f6c44656661756c74506f6f6c3a2043616c6c6572206973206e6f74207468652054726f76654d616e61676572a2646970667358221220e8d5a0520a364dc5c8c3e34533f64e4b114ab2f949c8a94cdf525135c61f209b64736f6c634300060b00336080604052670de0b6b3a764000060105534801561001c57600080fd5b50600380546001600160a01b031916339081179091556040516000907f8be0079c531659141344cd1fd0a4f28419497f9722a3daafe3b4186f6b6457e0908290a36136518061006c6000396000f3fe6080604052600436106102765760003560e01c80637f7dde4a1161014f578063ae918754116100c1578063eaa8ba7f1161007a578063eaa8ba7f146107e2578063eb6b2fa614610847578063f24344e614610877578063f5f1595d1461088c578063fc7e286d146108bf578063fda0101a146109135761029b565b8063ae91875414610728578063b83f91a21461073d578063cef941e814610752578063d4ca057514610767578063d7fb04431461079a578063df9cd84f146107af5761029b565b80638f32d59b116101135780638f32d59b1461067457806395fb16bb1461069d5780639bf2f1ac146106b2578063a20baee614610553578063a4e59ac8146106c7578063a7bfff97146106dc5761029b565b80637f7dde4a146105ed57806386da082414610602578063887105d3146106355780638b8fbd921461064a5780638da5cb5b1461065f5761029b565b8063556be101116101e857806372fe25aa116101ac57806372fe25aa14610553578063741bef1a14610568578063766718081461057d57806377553ad4146105ae578063794e5724146105c3578063795d26c3146105d85761029b565b8063556be101146104785780635733d58f146104a25780635a0edf77146104b75780635d2de642146104e75780635f788d651461051a5761029b565b8063335525ad1161023a578063335525ad146103a5578063389e92a5146103d55780633cc74225146104085780633d83908a146104395780634870dd9a1461044e578063538153ca146104635761029b565b806314f6c3be146102a057806316b9d3c5146102c75780631cdc4700146103315780632e54bf95146103645780632e86bbd8146103905761029b565b3661029b5761028361094e565b600954610296903463ffffffff61099916565b600955005b600080fd5b3480156102ac57600080fd5b506102b56109fc565b60408051918252519081900360200190f35b3480156102d357600080fd5b506102fa600480360360208110156102ea57600080fd5b50356001600160a01b0316610a02565b604080519586526020860194909452848401929092526001600160801b039081166060850152166080830152519081900360a00190f35b34801561033d57600080fd5b506102b56004803603602081101561035457600080fd5b50356001600160a01b0316610a3d565b34801561037057600080fd5b5061038e6004803603602081101561038757600080fd5b5035610ae5565b005b34801561039c57600080fd5b506102b5610c5e565b3480156103b157600080fd5b5061038e600480360360408110156103c857600080fd5b5080359060200135610c6a565b3480156103e157600080fd5b506102b5600480360360208110156103f857600080fd5b50356001600160a01b0316610cc1565b34801561041457600080fd5b5061041d610d5e565b604080516001600160a01b039092168252519081900360200190f35b34801561044557600080fd5b5061041d610d6d565b34801561045a57600080fd5b506102b5610d7c565b34801561046f57600080fd5b506102b5610d81565b34801561048457600080fd5b5061038e6004803603602081101561049b57600080fd5b5035610d87565b3480156104ae57600080fd5b506102b5610dfc565b3480156104c357600080fd5b506102b5600480360360408110156104da57600080fd5b5080359060200135610e08565b3480156104f357600080fd5b506102b56004803603602081101561050a57600080fd5b50356001600160a01b0316610e25565b34801561052657600080fd5b5061038e6004803603604081101561053d57600080fd5b50803590602001356001600160a01b0316610e37565b34801561055f57600080fd5b506102b5610fa9565b34801561057457600080fd5b5061041d610fb5565b34801561058957600080fd5b50610592610fc4565b604080516001600160801b039092168252519081900360200190f35b3480156105ba57600080fd5b5061041d610fda565b3480156105cf57600080fd5b506102b5610fe9565b3480156105e457600080fd5b506102b5610ff5565b3480156105f957600080fd5b5061041d6110f6565b34801561060e57600080fd5b506102fa6004803603602081101561062557600080fd5b50356001600160a01b0316611105565b34801561064157600080fd5b506102b5611140565b34801561065657600080fd5b506102b56111fc565b34801561066b57600080fd5b5061041d611202565b34801561068057600080fd5b50610689611211565b604080519115158252519081900360200190f35b3480156106a957600080fd5b5061041d611222565b3480156106be57600080fd5b506102b5611231565b3480156106d357600080fd5b50610592611237565b3480156106e857600080fd5b5061070f600480360360208110156106ff57600080fd5b50356001600160a01b0316611246565b6040805192835290151560208301528051918290030190f35b34801561073457600080fd5b5061041d611262565b34801561074957600080fd5b5061041d611271565b34801561075e57600080fd5b506102b5611280565b34801561077357600080fd5b506102b56004803603602081101561078a57600080fd5b50356001600160a01b0316611286565b3480156107a657600080fd5b506102b561138a565b3480156107bb57600080fd5b506102b5600480360360208110156107d257600080fd5b50356001600160a01b0316611390565b3480156107ee57600080fd5b5061038e600480360360e081101561080557600080fd5b506001600160a01b038135811691602081013582169160408201358116916060810135821691608082013581169160a081013582169160c0909101351661142d565b34801561085357600080fd5b506102b56004803603604081101561086a57600080fd5b50803590602001356116de565b34801561088357600080fd5b506102b56116fb565b34801561089857600080fd5b506102b5600480360360208110156108af57600080fd5b50356001600160a01b0316611707565b3480156108cb57600080fd5b506108f2600480360360208110156108e257600080fd5b50356001600160a01b0316611804565b604080519283526001600160a01b0390911660208301528051918290030190f35b34801561091f57600080fd5b5061038e6004803603604081101561093657600080fd5b506001600160a01b0381358116916020013516611826565b6000546001600160a01b031633146109975760405162461bcd60e51b815260040180806020018281038252602781526020018061337e6027913960400191505060405180910390fd5b565b6000828201838110156109f3576040805162461bcd60e51b815260206004820152601b60248201527f536166654d6174683a206164646974696f6e206f766572666c6f770000000000604482015290519081900360640190fd5b90505b92915050565b60095490565b600f602052600090815260409020805460018201546002830154600390930154919290916001600160801b0380821691600160801b90041685565b6001600160a01b0381166000908152600b602052604081205480610a65576000915050610ae0565b610a6d6132b0565b506001600160a01b0383166000908152600c60209081526040808320815160a08101835281548152600182015493810193909352600281015491830191909152600301546001600160801b038082166060840152600160801b90910416608082015290610ada8383611a58565b93505050505b919050565b8015610af357610af3611b58565b336000908152600b6020526040902054610b0c81611d14565b610b14611d56565b6000610b1f33610cc1565b90506000610b2c33610a3d565b90506000610b3a8583611dd3565b90506000610b4e858463ffffffff611de916565b336000818152600b60205260409020600101549192506001600160a01b0390911690610b7a9082611e2b565b6000610b8582611390565b90506000610b99828663ffffffff611de916565b9050610ba58382611fb3565b6040805182815233602082015281516001600160a01b0386169260008051602061356b833981519152928290030190a2610bdf33866120ff565b6000610bf1878763ffffffff611de916565b9050610bfd3382612185565b60408051828152905133916000805160206133d6833981519152919081900360200190a26040805189815260208101879052815133926000805160206134ba833981519152928290030190a2610c528861230b565b50505050505050505050565b678ac7230489e8000081565b610c72612429565b600a54801580610c80575082155b15610c8b5750610cbd565b610c93611d56565b600080610ca1848685612472565b91509150610caf8282612561565b610cb98486612789565b5050505b5050565b6001600160a01b0381166000908152600b602052604081205480610ce9576000915050610ae0565b610cf16132b0565b506001600160a01b0383166000908152600c60209081526040808320815160a08101835281548152600182015493810193909352600281015491830191909152600301546001600160801b038082166060840152600160801b90910416608082015290610ada83836128c9565b6001546001600160a01b031681565b6005546001600160a01b031681565b60c881565b60165481565b610d90336129c8565b610d9933612a23565b610da281612a79565b336000818152600d60209081526040918290208481556001908101805460ff19169091179055815184815291517f19bc932fb9e16a8b5a1e41be9f4c2de59d5ddd7567b8b81405f532ca00a9880e9281900390910190a250565b6714d1120d7b16000081565b601360209081526000928352604080842090915290825290205481565b600e6020526000908152604090205481565b610e4081612ac0565b610e49336129c8565b610e5282612b2c565b336000908152600b6020526040902054610e6a611d56565b80610e7957610e793383612b6b565b6000610e8433610cc1565b90506000610e9133610a3d565b90506000610ea5848363ffffffff611de916565b336000818152600b60205260409020600101549192506001600160a01b0390911690610ed19082611e2b565b6000610edc82611390565b90506000610ef0828a63ffffffff61099916565b9050610efc8382611fb3565b6040805182815233602082015281516001600160a01b0386169260008051602061356b833981519152928290030190a2610f36338a612b9c565b6000610f48868b63ffffffff61099916565b9050610f543382612185565b60408051828152905133916000805160206133d6833981519152919081900360200190a26040805188815260208101879052815133926000805160206134ba833981519152928290030190a2610c528761230b565b670de0b6b3a764000081565b6002546001600160a01b031681565b601154600160801b90046001600160801b031681565b6004546001600160a01b031681565b670f43fc2c04ee000081565b6000805460408051632f5a97e560e11b8152905183926001600160a01b031691635eb52fca916004808301926020929190829003018186803b15801561103a57600080fd5b505afa15801561104e573d6000803e3d6000fd5b505050506040513d602081101561106457600080fd5b505160015460408051632f5a97e560e11b815290519293506000926001600160a01b0390921691635eb52fca91600480820192602092909190829003018186803b1580156110b157600080fd5b505afa1580156110c5573d6000803e3d6000fd5b505050506040513d60208110156110db57600080fd5b505190506110ef828263ffffffff61099916565b9250505090565b6000546001600160a01b031681565b600c602052600090815260409020805460018201546002830154600390930154919290916001600160801b0380821691600160801b90041685565b6000805460408051630a7b61df60e11b8152905183926001600160a01b0316916314f6c3be916004808301926020929190829003018186803b15801561118557600080fd5b505afa158015611199573d6000803e3d6000fd5b505050506040513d60208110156111af57600080fd5b505160015460408051630a7b61df60e11b815290519293506000926001600160a01b03909216916314f6c3be91600480820192602092909190829003018186803b1580156110b157600080fd5b60105481565b6003546001600160a01b031690565b6003546001600160a01b0316331490565b6008546001600160a01b031681565b600a5490565b6011546001600160801b031681565b600d602052600090815260409020805460019091015460ff1682565b6007546001600160a01b031681565b6006546001600160a01b031681565b60145481565b6001600160a01b0381166000908152600e6020526040812054806112ae576000915050610ae0565b6001600160a01b0383166000908152600d6020526040812054906112e0670de0b6b3a76400008363ffffffff611de916565b90506112ea6132b0565b506001600160a01b0385166000908152600f60209081526040808320815160a08101835281548152600182015493810193909352600281015491830191909152600301546001600160801b038082166060840152600160801b9091041660808201529061137f670de0b6b3a76400006113736113668886612c66565b869063ffffffff612d0016565b9063ffffffff612d5916565b979650505050505050565b60155481565b6001600160a01b0381166000908152600e6020526040812054806113b8576000915050610ae0565b6113c06132b0565b506001600160a01b0383166000908152600f60209081526040808320815160a08101835281548152600182015493810193909352600281015491830191909152600301546001600160801b038082166060840152600160801b90910416608082015290610ada8383611a58565b611435611211565b611486576040805162461bcd60e51b815260206004820181905260248201527f4f776e61626c653a2063616c6c6572206973206e6f7420746865206f776e6572604482015290519081900360640190fd5b61148f87612d9b565b61149886612d9b565b6114a185612d9b565b6114aa84612d9b565b6114b383612d9b565b6114bc82612d9b565b6114c581612d9b565b600480546001600160a01b03199081166001600160a01b038a81169182179093556005805483168a85161790556000805483168985161790556006805483168885161790556007805483168785161790556002805483168685161790556008805490921692841692909217905560408051918252517f3ca631ffcd2a9b5d9ae18543fc82f58eb4ca33af9e6ab01b7a8e95331e6ed985916020908290030190a1604080516001600160a01b038816815290517f143219c9e69b09e07e095fcc889b43d8f46ca892bba65f08dc3a0050869a56789181900360200190a1604080516001600160a01b038716815290517f78f058b189175430c48dc02699e3a0031ea4ff781536dc2fab847de4babdd8829181900360200190a1604080516001600160a01b038616815290517f227eec0ec317af6ab1a9587ffa1c84332522eb4c583a908f89babc05f8f339bd9181900360200190a1604080516001600160a01b038516815290517f65f4cf077bc01e4742eb5ad98326f6e95b63548ea24b17f8d5e823111fe788009181900360200190a1604080516001600160a01b038416815290517f8c537274438aa850a330284665d81a85dd38267d09e4050d416bfc94142db2649181900360200190a1604080516001600160a01b038316815290517f3055265812fb8447b9ada4a5d804ec43bd528ec40e89c952bbc7b85dc5ac68119181900360200190a16116d5612e4a565b50505050505050565b601260209081526000928352604080842090915290825290205481565b6729a2241af62c000081565b6001600160a01b0381166000908152600b60205260408120548061172f576000915050610ae0565b6001600160a01b038084166000908152600b6020526040812060010154909116908115611774576001600160a01b0382166000908152600d602052604090205461177e565b670de0b6b3a76400005b90506117886132b0565b506001600160a01b0385166000908152600c60209081526040808320815160a08101835281548152600182015493810193909352600281015491830191909152600301546001600160801b038082166060840152600160801b9091041660808201529061137f670de0b6b3a76400006113736113668886612c66565b600b60205260009081526040902080546001909101546001600160a01b031682565b336000908152600b602052604090205461183f81611d14565b61184833612e94565b61185133612f4b565b611859611d56565b600061186433610cc1565b9050600061187133610a3d565b90506000611885848363ffffffff611de916565b336000818152600b60205260409020600101549192506001600160a01b03909116906118b19082611e2b565b60006118bc82611390565b9050806118c98382611fb3565b6040805182815233602082015281516001600160a01b0386169260008051602061356b833981519152928290030190a26119033386612185565b6040805187815260208101869052815133926000805160206134ba833981519152928290030190a260408051868152905133916000805160206133d6833981519152919081900360200190a2600954611962908763ffffffff611de916565b600981905560408051918252517f7ab2bdf6e6d108cd138a8f6436723e8dfd0cb22727fe608e40b5adfb8357f1b99181900360200190a1604080513381526020810188905281517f6109e2559dfa766aaec7118351d48a523f0a4157f49c8d68749c8ac41318ad12929181900390910190a1600480546040805163ea9638bf60e01b815233938101939093526001600160a01b038c811660248501528b81166044850152905191169163ea9638bf91899160648082019260009290919082900301818588803b158015611a3457600080fd5b505af1158015611a48573d6000803e3d6000fd5b5050505050505050505050505050565b6020810151606082015160808301516011546000939291906001600160801b03600160801b90910481169082161015611a9757600093505050506109f6565b6011546000908190611ab8906001600160801b03168563ffffffff612f9716565b90506001600160801b038116611ae857611ae1856113736010548b612d0090919063ffffffff16565b9150611b24565b806001600160801b031660011415611b1f57611ae1670de0b6b3a7640000611373876113736010548d612d0090919063ffffffff16565b600091505b611b3888633b9aca0063ffffffff612d5916565b821015611b4d576000955050505050506109f6565b509695505050505050565b60025460408051634c6afee560e11b815290516000926001600160a01b0316916398d5fdca916004808301926020929190829003018186803b158015611b9d57600080fd5b505afa158015611bb1573d6000803e3d6000fd5b505050506040513d6020811015611bc757600080fd5b505160075460408051634d62283160e01b815290519293506000926001600160a01b0390921691634d62283191600480820192602092909190829003018186803b158015611c1457600080fd5b505afa158015611c28573d6000803e3d6000fd5b505050506040513d6020811015611c3e57600080fd5b505160055460408051630d293c7160e41b81526001600160a01b038085166004830152602482018790529151939450600093919092169163d293c710916044808301926020929190829003018186803b158015611c9a57600080fd5b505afa158015611cae573d6000803e3d6000fd5b505050506040513d6020811015611cc457600080fd5b50519050670f43fc2c04ee0000811015611d0f5760405162461bcd60e51b81526004018080602001828103825260448152602001806135d86044913960600191505060405180910390fd5b505050565b60008111611d535760405162461bcd60e51b815260040180806020018281038252603081526020018061353b6030913960400191505060405180910390fd5b50565b600854604080516346ad34d960e01b815290516000926001600160a01b0316916346ad34d991600480830192602092919082900301818787803b158015611d9c57600080fd5b505af1158015611db0573d6000803e3d6000fd5b505050506040513d6020811015611dc657600080fd5b50519050611d5381612ff0565b6000818310611de257816109f3565b5090919050565b60006109f383836040518060400160405280601e81526020017f536166654d6174683a207375627472616374696f6e206f766572666c6f7700008152506130a9565b6001600160a01b03811615611ef5576000611e4582611286565b600854604080516330a6955b60e11b81526001600160a01b03868116600483015260248201859052915193945091169163614d2ab69160448082019260009290919082900301818387803b158015611e9c57600080fd5b505af1158015611eb0573d6000803e3d6000fd5b50506040805184815290516001600160a01b03861693507fcd2cdc1a4af71051394e9c6facd9a266b2ac5bd65d219a701eeda009f47682bf92509081900360200190a2505b6000611f0083611707565b600854604080516330a6955b60e11b81526001600160a01b03878116600483015260248201859052915193945091169163614d2ab69160448082019260009290919082900301818387803b158015611f5757600080fd5b505af1158015611f6b573d6000803e3d6000fd5b50506040805184815290516001600160a01b03871693507f2608b986a6ac0f6c629ca37018e80af5561e366252ae93602a96d3ab2e73e42d92509081900360200190a2505050565b6001600160a01b0382166000908152600e6020526040902081905580612043576001600160a01b0382166000818152600f60209081526040808320838155600181018490556002810184905560030183905580518381529182019290925281517fbb1322f85cc7cc8bac4e172a5bc5dcc0c1959007f9a030032abf9258205f0e45929181900390910190a2610cbd565b6011546010546001600160801b03600160801b80840482166000818152601360209081526040808320978616808452978252808320546001600160a01b038b16808552600f845293829020600181018990556002810182905560030180546001600160801b0319168a17909716958502959095179095558451868152908101849052845192959491927fbb1322f85cc7cc8bac4e172a5bc5dcc0c1959007f9a030032abf9258205f0e45929181900390910190a2505050505050565b8061210957610cbd565b60065460408051631062c15f60e11b81523060048201526001600160a01b03858116602483015260448201859052915191909216916320c582be91606480830192600092919082900301818387803b15801561216457600080fd5b505af1158015612178573d6000803e3d6000fd5b50505050610cbd81613140565b6001600160a01b0382166000908152600b6020526040902081905580612233576001600160a01b0382166000818152600b60209081526040808320600190810180546001600160a01b0319169055600c83528184208481559081018490556002810184905560030183905580518381529182018390528181019290925290517f2d6cc0bcdf72c9486f6451bde6b80f44066f4558f77f44dbfedbe7d8b295225a9181900360600190a2610cbd565b6011546010546001600160801b03600160801b8084048216600081815260126020908152604080832097861680845297825280832054848452601383528184208985528352818420546001600160a01b038c16808652600c855294839020600181018a90558281556002810182905560030180546001600160801b0319168b179098169686029690961790965580518781529182018690528181018590525192959493927f2d6cc0bcdf72c9486f6451bde6b80f44066f4558f77f44dbfedbe7d8b295225a916060908290030190a250505050505050565b8061231557611d53565b60095460009061232b908363ffffffff611de916565b60098190556040805182815290519192507f7ab2bdf6e6d108cd138a8f6436723e8dfd0cb22727fe608e40b5adfb8357f1b9919081900360200190a1604080513381526020810184905281517f6109e2559dfa766aaec7118351d48a523f0a4157f49c8d68749c8ac41318ad12929181900390910190a1604051600090339084908381818185875af1925050503d80600081146123e4576040519150601f19603f3d011682016040523d82523d6000602084013e6123e9565b606091505b5050905080611d0f5760405162461bcd60e51b815260040180806020018281038252602181526020018061341f6021913960400191505060405180910390fd5b6005546001600160a01b031633146109975760405162461bcd60e51b81526004018080602001828103825260298152602001806133f66029913960400191505060405180910390fd5b60008060006124a4601654612498670de0b6b3a764000088612d0090919063ffffffff16565b9063ffffffff611de916565b905060006124d56015546124c9670de0b6b3a76400008a612d0090919063ffffffff16565b9063ffffffff61099916565b90508486106124f3576000601655670de0b6b3a76400009250612522565b61250860016124c9848863ffffffff612d5916565b925061251e82612498858863ffffffff612d0016565b6016555b612532818663ffffffff612d5916565b9350612554612547858763ffffffff612d0016565b829063ffffffff611de916565b6015555050935093915050565b6010546000670de0b6b3a764000083111561257857fe5b6000670de0b6b3a76400008410156125a7576125a2670de0b6b3a76400008563ffffffff611de916565b6125aa565b60005b6011546001600160801b03600160801b8204811660008181526012602090815260408083209490951680835293905292832054939450909290916125ee8988612d00565b90506000612602838363ffffffff61099916565b6001600160801b038086166000908152601260209081526040808320938a16835292815290829020839055815183815291519293507fb3b0cd868e433c74c233db87efea57c13377de7056bf27b1a50feaab5bfd499192918290030190a1856126b65761267f6001600160801b038516600163ffffffff61319616565b601180546001600160801b03928316600160801b029216919091176001600160801b0319169055670de0b6b3a76400009650612745565b670de0b6b3a76400006126cf898863ffffffff612d0016565b1015612726576126e5888763ffffffff612d0016565b96506127016001600160801b038616600163ffffffff61319616565b601180546001600160801b0319166001600160801b0392909216919091179055612745565b612742670de0b6b3a76400006113738a8963ffffffff612d0016565b96505b60108790556040805188815290517fc1a9618cb59ebca77cbdbc2949f126823c407ff13edb285fd0262519a9c18e8c9181900360200190a150505050505050505050565b600080546040805163071b32b560e31b81526004810185905290516001600160a01b03909216926338d995a89260248084019382900301818387803b1580156127d157600080fd5b505af11580156127e5573d6000803e3d6000fd5b505050506127f281613140565b60065460408051632770a7eb60e21b81523060048201526024810184905290516001600160a01b0390921691639dc29fac9160448082019260009290919082900301818387803b15801561284557600080fd5b505af1158015612859573d6000803e3d6000fd5b505060008054604080516364a197f360e01b81523060048201526024810188905290516001600160a01b0390921694506364a197f39350604480820193929182900301818387803b1580156128ad57600080fd5b505af11580156128c1573d6000803e3d6000fd5b505050505050565b6080810151606082015182516020808501516001600160801b03808616600090815260128452604080822092871682529190935282205491949392918590612917908463ffffffff611de916565b90506000612988670de0b6b3a764000060126000896001600160801b03168152602001908152602001600020600061296260018a6001600160801b031661319690919063ffffffff16565b6001600160801b0316815260200190815260200160002054612d5990919063ffffffff16565b905060006129ba670de0b6b3a764000061137386816129ad888863ffffffff61099916565b8f9063ffffffff612d0016565b9a9950505050505050505050565b6001600160a01b0381166000908152600d602052604090206001015460ff1615611d535760405162461bcd60e51b81526004018080602001828103825260398152602001806134da6039913960400191505060405180910390fd5b6001600160a01b0381166000908152600b60205260409020548015610cbd5760405162461bcd60e51b81526004018080602001828103825260288152602001806135136028913960400191505060405180910390fd5b670de0b6b3a7640000811115611d535760405162461bcd60e51b81526004018080602001828103825260338152602001806134616033913960400191505060405180910390fd5b6001600160a01b0381166000908152600d602052604090206001015460ff1680612af157506001600160a01b038116155b611d535760405162461bcd60e51b81526004018080602001828103825260468152602001806133386046913960600191505060405180910390fd5b60008111611d535760405162461bcd60e51b81526004018080602001828103825260268152602001806134946026913960400191505060405180910390fd5b6001600160a01b039182166000908152600b6020526040902060010180546001600160a01b03191691909216179055565b60065460408051632ee65eeb60e21b81526001600160a01b038581166004830152306024830152604482018590529151919092169163bb997bac91606480830192600092919082900301818387803b158015612bf757600080fd5b505af1158015612c0b573d6000803e3d6000fd5b5050600a5460009250612c2591508363ffffffff61099916565b600a8190556040805182815290519192507fb85aa39be26453c93060ffe42e1e6ea34980cb12e563f517cbce039dcd5af392919081900360200190a1505050565b608081015160608201516040808401516020808601516001600160801b03808716600090815260138452858120918716815292529281205490949392908590612cb5908463ffffffff611de916565b90506000612988670de0b6b3a764000060136000896001600160801b03168152602001908152602001600020600061296260018a6001600160801b031661319690919063ffffffff16565b600082612d0f575060006109f6565b82820282848281612d1c57fe5b04146109f35760405162461bcd60e51b81526004018080602001828103825260218152602001806134406021913960400191505060405180910390fd5b60006109f383836040518060400160405280601a81526020017f536166654d6174683a206469766973696f6e206279207a65726f0000000000008152506131e6565b6001600160a01b038116612df6576040805162461bcd60e51b815260206004820152601e60248201527f4163636f756e742063616e6e6f74206265207a65726f20616464726573730000604482015290519081900360640190fd5b803b80610cbd576040805162461bcd60e51b815260206004820181905260248201527f4163636f756e7420636f64652073697a652063616e6e6f74206265207a65726f604482015290519081900360640190fd5b6003546040516000916001600160a01b0316907f8be0079c531659141344cd1fd0a4f28419497f9722a3daafe3b4186f6b6457e0908390a3600380546001600160a01b0319169055565b600554604080516321e3780160e01b81526001600160a01b038481166004830152915191909216916321e37801916024808301926020929190829003018186803b158015612ee157600080fd5b505afa158015612ef5573d6000803e3d6000fd5b505050506040513d6020811015612f0b57600080fd5b5051600114611d535760405162461bcd60e51b81526004018080602001828103825260468152602001806132f26046913960600191505060405180910390fd5b6000612f5682610cc1565b905060008111610cbd5760405162461bcd60e51b81526004018080602001828103825260318152602001806133a56031913960400191505060405180910390fd5b6000826001600160801b0316826001600160801b03161115612fea5760405162461bcd60e51b815260040180806020018281038252602881526020018061358b6028913960400191505060405180910390fd5b50900390565b600a54801580612ffe575081155b156130095750611d53565b6000613015838361324b565b9050600061302e60105483612d0090919063ffffffff16565b6011546001600160801b03600160801b820481166000908152601360209081526040808320939094168252919091522054909150613072908263ffffffff61099916565b6011546001600160801b03600160801b82048116600090815260136020908152604080832093909416825291909152205550505050565b600081848411156131385760405162461bcd60e51b81526004018080602001828103825283818151815260200191508051906020019080838360005b838110156130fd5781810151838201526020016130e5565b50505050905090810190601f16801561312a5780820380516001836020036101000a031916815260200191505b509250505060405180910390fd5b505050900390565b600a54600090613156908363ffffffff611de916565b600a8190556040805182815290519192507fb85aa39be26453c93060ffe42e1e6ea34980cb12e563f517cbce039dcd5af392919081900360200190a15050565b60008282016001600160801b0380851690821610156109f35760405162461bcd60e51b81526004018080602001828103825260258152602001806135b36025913960400191505060405180910390fd5b600081836132355760405162461bcd60e51b81526020600482018181528351602484015283519092839260449091019190850190808383600083156130fd5781810151838201526020016130e5565b50600083858161324157fe5b0495945050505050565b60008061326f6014546124c9670de0b6b3a764000087612d0090919063ffffffff16565b90506000613283828563ffffffff612d5916565b90506132a5613298828663ffffffff612d0016565b839063ffffffff611de916565b601455949350505050565b6040518060a0016040528060008152602001600081526020016000815260200160006001600160801b0316815260200160006001600160801b03168152509056fe53746162696c697479506f6f6c3a2063616c6c6572206d757374206861766520616e206163746976652074726f766520746f207769746864726177204554484761696e20746f53746162696c697479506f6f6c3a20546167206d757374206265206120726567697374657265642066726f6e7420656e642c206f7220746865207a65726f206164647265737353746162696c697479506f6f6c3a2043616c6c6572206973206e6f7420416374697665506f6f6c53746162696c697479506f6f6c3a2063616c6c6572206d7573742068617665206e6f6e2d7a65726f20455448204761696ebce78369dccab09eec1986f4d409ab09ffbb47d65423e5148fcf98411c5111c953746162696c697479506f6f6c3a2043616c6c6572206973206e6f742054726f76654d616e6167657253746162696c697479506f6f6c3a2073656e64696e6720455448206661696c6564536166654d6174683a206d756c7469706c69636174696f6e206f766572666c6f7753746162696c697479506f6f6c3a204b69636b6261636b2072617465206d75737420626520696e2072616e6765205b302c315d53746162696c697479506f6f6c3a20416d6f756e74206d757374206265206e6f6e2d7a65726f51457222ebca92c335c9c86e2baa1cc0e40ffaa9084a51452980d5ba8dec2f6353746162696c697479506f6f6c3a206d757374206e6f7420616c7265616479206265206120726567697374657265642066726f6e7420656e6453746162696c697479506f6f6c3a2055736572206d7573742068617665206e6f206465706f73697453746162696c697479506f6f6c3a2055736572206d75737420686176652061206e6f6e2d7a65726f206465706f73697499920012339b5a3368d3a04b8606ce412c46ed92b7dcd8602d41fc8862cb8f254c697175697479536166654d6174683132383a207375627472616374696f6e206f766572666c6f774c697175697479536166654d6174683132383a206164646974696f6e206f766572666c6f7753746162696c697479506f6f6c3a2043616e6e6f74207769746864726177207768696c65207468657265206172652074726f766573207769746820494352203c204d4352a2646970667358221220a16904411f035b154cd75fc1ac74f85b75f4c6a8b7cd1321a6e610728c3a517364736f6c634300060b00336080604052348015600f57600080fd5b50603f80601d6000396000f3fe6080604052600080fdfea26469706673582212201f7e3f755afa383b592db76e4062dc5f146d4c83d077b0f31b5b932f97ffa5d364736f6c634300060b00336101606040523480156200001257600080fd5b50604051620018ad380380620018ad833981810160405260608110156200003857600080fd5b50805160208201516040909201519091906200005d836001600160e01b036200025316565b62000071826001600160e01b036200025316565b62000085816001600160e01b036200025316565b6001600160601b0319606084901b1661010052604080516001600160a01b038516815290517f143219c9e69b09e07e095fcc889b43d8f46ca892bba65f08dc3a0050869a56789181900360200190a16001600160601b0319606083901b1661012052604080516001600160a01b038416815290517f82966d27eea39b038ee0fa30cd16532bb24f6e65d31cb58fb227aa5766cdcc7f9181900360200190a16001600160601b0319606082901b1661014052604080516001600160a01b038316815290517f3ca631ffcd2a9b5d9ae18543fc82f58eb4ca33af9e6ab01b7a8e95331e6ed9859181900360200190a1604080518082018252600f81526e262aa9a21029ba30b13632b1b7b4b760891b602091820152815180830190925260018252603160f81b9101527fabccaf2943f70764a048255e50e07d10e3c94973a6c6ba8b8ea62b1155209b0160c08190527fc89efdaa54c0f20c7adf612882df0950f5a951637e0307cdcb4c672f298b8bc660e08190526200020b6001600160e01b036200030816565b60a052620002447f8b73c3c69bb8fe3d512ecc4cf759cc79239f7b179b0ffacaa9a75d522b39400f83836001600160e01b036200030c16565b608052506200036d9350505050565b6001600160a01b038116620002af576040805162461bcd60e51b815260206004820152601e60248201527f4163636f756e742063616e6e6f74206265207a65726f20616464726573730000604482015290519081900360640190fd5b803b8062000304576040805162461bcd60e51b815260206004820181905260248201527f4163636f756e7420636f64652073697a652063616e6e6f74206265207a65726f604482015290519081900360640190fd5b5050565b4690565b6000838383620003246001600160e01b036200030816565b6040805160208082019690965280820194909452606084019290925260808301523060a0808401919091528151808403909101815260c090920190528051910120949350505050565b60805160a05160c05160e0516101005160601c6101205160601c6101405160601c6114b1620003fc6000398061076d5280610d5c5280610ed25280610fcd5250806105285280610b425280610ce1528061103252806111505250806106785280610b105280610d1e5280610fff525080610a58525080610a375250806109bd5250806109ed52506114b16000f3fe608060405234801561001057600080fd5b506004361061014d5760003560e01c80635a4d28bb116100c3578063a9059cbb1161007c578063a9059cbb146103f5578063b7f8cf9b14610421578063bb997bac14610429578063d505accf1461045f578063dd62ed3e146104b0578063f698da25146104de5761014d565b80635a4d28bb1461034157806370a08231146103495780637ecebe001461036f57806395d89b41146103955780639dc29fac1461039d578063a457c2d7146103c95761014d565b806320c582be1161011557806320c582be1461025557806323b872dd1461028d578063313ce567146102c357806339509351146102e157806340c10f191461030d57806354fd4d50146103395761014d565b806306fdde0314610152578063095ea7b3146101cf5780630b622ab21461020f57806310ce43bd1461023357806318160ddd1461024d575b600080fd5b61015a6104e6565b6040805160208082528351818301528351919283929083019185019080838360005b8381101561019457818101518382015260200161017c565b50505050905090810190601f1680156101c15780820380516001836020036101000a031916815260200191505b509250505060405180910390f35b6101fb600480360360408110156101e557600080fd5b506001600160a01b038135169060200135610510565b604080519115158252519081900360200190f35b610217610526565b604080516001600160a01b039092168252519081900360200190f35b61023b61054a565b60408051918252519081900360200190f35b61023b61056e565b61028b6004803603606081101561026b57600080fd5b506001600160a01b03813581169160208101359091169060400135610574565b005b6101fb600480360360608110156102a357600080fd5b506001600160a01b0381358116916020810135909116906040013561058c565b6102cb610604565b6040805160ff9092168252519081900360200190f35b6101fb600480360360408110156102f757600080fd5b506001600160a01b038135169060200135610609565b61028b6004803603604081101561032357600080fd5b506001600160a01b038135169060200135610645565b61015a61065b565b610217610676565b61023b6004803603602081101561035f57600080fd5b50356001600160a01b031661069a565b61023b6004803603602081101561038557600080fd5b50356001600160a01b03166106b5565b61015a6106d0565b61028b600480360360408110156103b357600080fd5b506001600160a01b0381351690602001356106ee565b6101fb600480360360408110156103df57600080fd5b506001600160a01b038135169060200135610700565b6101fb6004803603604081101561040b57600080fd5b506001600160a01b038135169060200135610755565b61021761076b565b61028b6004803603606081101561043f57600080fd5b506001600160a01b0381358116916020810135909116906040013561078f565b61028b600480360360e081101561047557600080fd5b506001600160a01b03813581169160208101359091169060408101359060608101359060ff6080820135169060a08101359060c00135610797565b61023b600480360360408110156104c657600080fd5b506001600160a01b038135811691602001351661098e565b61023b6109b9565b60408051808201909152600f81526e262aa9a21029ba30b13632b1b7b4b760891b60208201525b90565b600061051d338484610a83565b50600192915050565b7f000000000000000000000000000000000000000000000000000000000000000081565b7f6e71edae12b1b97f4d1f60370fef10105fa2faae0126114a169c64845d6126c990565b60005490565b61057c610b05565b610587838383610ba1565b505050565b600061059783610c83565b6105a2848484610ba1565b6105fa84336105f585604051806060016040528060288152602001611364602891396001600160a01b038a166000908152600360209081526040808320338452909152902054919063ffffffff610dcf16565b610a83565b5060019392505050565b601290565b3360008181526003602090815260408083206001600160a01b0387168452909152812054909161051d9185906105f5908663ffffffff610e6616565b61064d610ec7565b6106578282610f2e565b5050565b6040805180820190915260018152603160f81b602082015290565b7f000000000000000000000000000000000000000000000000000000000000000081565b6001600160a01b031660009081526002602052604090205490565b6001600160a01b031660009081526001602052604090205490565b604080518082019091526004815263131554d160e21b602082015290565b6106f6610fc2565b610657828261108f565b600061051d33846105f585604051806060016040528060258152602001611403602591393360009081526003602090815260408083206001600160a01b038d168452909152902054919063ffffffff610dcf16565b600061076083610c83565b61051d338484610ba1565b7f000000000000000000000000000000000000000000000000000000000000000081565b61057c611145565b428410156107e5576040805162461bcd60e51b81526020600482015260166024820152754c5553443a206578706972656420646561646c696e6560501b604482015290519081900360640190fd5b60006107ef6109b9565b6001600160a01b03808a166000818152600160208181526040808420805480850190915581517f6e71edae12b1b97f4d1f60370fef10105fa2faae0126114a169c64845d6126c98185015280830196909652958e166060860152608085018d905260a085019590955260c08085018c90528551808603909101815260e08501865280519082012061190160f01b6101008601526101028501969096526101228085019690965284518085039096018652610142840180865286519682019690962095839052610162840180865286905260ff8a166101828501526101a284018990526101c284018890529351949550909390926101e2808401939192601f1981019281900390910190855afa15801561090c573d6000803e3d6000fd5b505050602060405103519050886001600160a01b0316816001600160a01b031614610978576040805162461bcd60e51b81526020600482015260176024820152764c5553443a20696e76616c6964207369676e617475726560481b604482015290519081900360640190fd5b610983898989610a83565b505050505050505050565b6001600160a01b03918216600090815260036020908152604080832093909416825291909152205490565b60007f00000000000000000000000000000000000000000000000000000000000000006109e46111ac565b1415610a1157507f000000000000000000000000000000000000000000000000000000000000000061050d565b610a7c7f8b73c3c69bb8fe3d512ecc4cf759cc79239f7b179b0ffacaa9a75d522b39400f7f00000000000000000000000000000000000000000000000000000000000000007f00000000000000000000000000000000000000000000000000000000000000006111b0565b905061050d565b6001600160a01b038316610a9357fe5b6001600160a01b038216610aa357fe5b6001600160a01b03808416600081815260036020908152604080832094871680845294825291829020859055815185815291517f8c5be1e5ebec7d5bd14f71427d1e84f3dd0314c0f7b2291e5b200ac8c7c3b9259281900390910190a3505050565b336001600160a01b037f0000000000000000000000000000000000000000000000000000000000000000161480610b645750336001600160a01b037f000000000000000000000000000000000000000000000000000000000000000016145b610b9f5760405162461bcd60e51b81526004018080602001828103825260368152602001806112496036913960400191505060405180910390fd5b565b6001600160a01b038316610bb157fe5b6001600160a01b038216610bc157fe5b610c04816040518060600160405280602681526020016112a1602691396001600160a01b038616600090815260026020526040902054919063ffffffff610dcf16565b6001600160a01b038085166000908152600260205260408082209390935590841681522054610c39908263ffffffff610e6616565b6001600160a01b0380841660008181526002602090815260409182902094909455805185815290519193928716926000805160206113e383398151915292918290030190a3505050565b6001600160a01b03811615801590610ca457506001600160a01b0381163014155b610cdf5760405162461bcd60e51b81526004018080602001828103825260548152602001806114286054913960600191505060405180910390fd5b7f00000000000000000000000000000000000000000000000000000000000000006001600160a01b0316816001600160a01b031614158015610d5357507f00000000000000000000000000000000000000000000000000000000000000006001600160a01b0316816001600160a01b031614155b8015610d9157507f00000000000000000000000000000000000000000000000000000000000000006001600160a01b0316816001600160a01b031614155b610dcc5760405162461bcd60e51b815260040180806020018281038252605781526020018061138c6057913960600191505060405180910390fd5b50565b60008184841115610e5e5760405162461bcd60e51b81526004018080602001828103825283818151815260200191508051906020019080838360005b83811015610e23578181015183820152602001610e0b565b50505050905090810190601f168015610e505780820380516001836020036101000a031916815260200191505b509250505060405180910390fd5b505050900390565b600082820183811015610ec0576040805162461bcd60e51b815260206004820152601b60248201527f536166654d6174683a206164646974696f6e206f766572666c6f770000000000604482015290519081900360640190fd5b9392505050565b336001600160a01b037f00000000000000000000000000000000000000000000000000000000000000001614610b9f5760405162461bcd60e51b815260040180806020018281038252602b815260200180611339602b913960400191505060405180910390fd5b6001600160a01b038216610f3e57fe5b600054610f51908263ffffffff610e6616565b60009081556001600160a01b038316815260026020526040902054610f7c908263ffffffff610e6616565b6001600160a01b03831660008181526002602090815260408083209490945583518581529351929391926000805160206113e38339815191529281900390910190a35050565b336001600160a01b037f00000000000000000000000000000000000000000000000000000000000000001614806110215750336001600160a01b037f000000000000000000000000000000000000000000000000000000000000000016145b806110545750336001600160a01b037f000000000000000000000000000000000000000000000000000000000000000016145b610b9f5760405162461bcd60e51b815260040180806020018281038252604d8152602001806112c7604d913960600191505060405180910390fd5b6001600160a01b03821661109f57fe5b6110e28160405180606001604052806022815260200161127f602291396001600160a01b038516600090815260026020526040902054919063ffffffff610dcf16565b6001600160a01b0383166000908152600260205260408120919091555461110f908263ffffffff61120616565b60009081556040805183815290516001600160a01b038516916000805160206113e3833981519152919081900360200190a35050565b336001600160a01b037f00000000000000000000000000000000000000000000000000000000000000001614610b9f5760405162461bcd60e51b81526004018080602001828103825260258152602001806113146025913960400191505060405180910390fd5b4690565b60008383836111bd6111ac565b6040805160208082019690965280820194909452606084019290925260808301523060a0808401919091528151808403909101815260c090920190528051910120949350505050565b6000610ec083836040518060400160405280601e81526020017f536166654d6174683a207375627472616374696f6e206f766572666c6f770000815250610dcf56fe4c5553443a2043616c6c6572206973206e6569746865722054726f76654d616e61676572206e6f722053746162696c697479506f6f6c45524332303a206275726e20616d6f756e7420657863656564732062616c616e636545524332303a207472616e7366657220616d6f756e7420657863656564732062616c616e63654c5553443a2043616c6c6572206973206e65697468657220426f72726f7765724f7065726174696f6e73206e6f722054726f76654d616e61676572206e6f722053746162696c697479506f6f6c4c5553443a2043616c6c6572206973206e6f74207468652053746162696c697479506f6f6c4c555344546f6b656e3a2043616c6c6572206973206e6f7420426f72726f7765724f7065726174696f6e7345524332303a207472616e7366657220616d6f756e74206578636565647320616c6c6f77616e63654c5553443a2043616e6e6f74207472616e7366657220746f6b656e73206469726563746c7920746f207468652053746162696c697479506f6f6c2c2054726f76654d616e61676572206f7220426f72726f7765724f7073ddf252ad1be2c89b69c2b068fc378daa952ba7f163c4a11628f55a4df523b3ef45524332303a2064656372656173656420616c6c6f77616e63652062656c6f77207a65726f4c5553443a2043616e6e6f74207472616e7366657220746f6b656e73206469726563746c7920746f20746865204c55534420746f6b656e20636f6e7472616374206f7220746865207a65726f2061646472657373a26469706673582212208a2df6892bc70d0dd7a4ac23dc9f6e0f4ca5c0a9e36f4f8064ebb4cbfca4212764736f6c634300060b0033608060405234801561001057600080fd5b50600080546001600160a01b0319163390811782556040519091907f8be0079c531659141344cd1fd0a4f28419497f9722a3daafe3b4186f6b6457e0908290a3610a7a8061005f6000396000f3fe6080604052600436106100955760003560e01c80638f32d59b116100595780638f32d59b146101ac5780639b56d6c9146101d5578063b08bc72214610208578063b32beb5b1461021d578063b7f8cf9b14610250576100ba565b806314f6c3be146100bf578063363bf964146100e65780633f10abab1461012d5780635a4d28bb146101665780638da5cb5b14610197576100ba565b366100ba576100a2610265565b6004546100b5903463ffffffff6102b016565b600455005b600080fd5b3480156100cb57600080fd5b506100d4610311565b60408051918252519081900360200190f35b3480156100f257600080fd5b5061012b6004803603606081101561010957600080fd5b506001600160a01b038135811691602081013582169160409091013516610317565b005b34801561013957600080fd5b5061012b6004803603604081101561015057600080fd5b506001600160a01b03813516906020013561047d565b34801561017257600080fd5b5061017b610509565b604080516001600160a01b039092168252519081900360200190f35b3480156101a357600080fd5b5061017b610518565b3480156101b857600080fd5b506101c1610527565b604080519115158252519081900360200190f35b3480156101e157600080fd5b506100d4600480360360208110156101f857600080fd5b50356001600160a01b0316610538565b34801561021457600080fd5b5061017b610553565b34801561022957600080fd5b5061012b6004803603602081101561024057600080fd5b50356001600160a01b0316610562565b34801561025c57600080fd5b5061017b6106f7565b6003546001600160a01b031633146102ae5760405162461bcd60e51b815260040180806020018281038252602a81526020018061099b602a913960400191505060405180910390fd5b565b60008282018381101561030a576040805162461bcd60e51b815260206004820152601b60248201527f536166654d6174683a206164646974696f6e206f766572666c6f770000000000604482015290519081900360640190fd5b9392505050565b60045490565b61031f610527565b610370576040805162461bcd60e51b815260206004820181905260248201527f4f776e61626c653a2063616c6c6572206973206e6f7420746865206f776e6572604482015290519081900360640190fd5b61037983610706565b61038282610706565b61038b81610706565b600180546001600160a01b038086166001600160a01b0319928316811790935560028054868316908416179055600380549185169190921617905560408051918252517f3ca631ffcd2a9b5d9ae18543fc82f58eb4ca33af9e6ab01b7a8e95331e6ed9859181900360200190a1604080516001600160a01b038416815290517f143219c9e69b09e07e095fcc889b43d8f46ca892bba65f08dc3a0050869a56789181900360200190a1604080516001600160a01b038316815290517f78f058b189175430c48dc02699e3a0031ea4ff781536dc2fab847de4babdd8829181900360200190a16104786107b9565b505050565b610485610803565b6001600160a01b0382166000908152600560205260408120546104ae908363ffffffff6102b016565b6001600160a01b0384166000818152600560209081526040918290208490558151848152915193945091927ff0393a34d05e6567686ad4e097f9d9d2781565957394f1f0d984e5d8e6378f20929181900390910190a2505050565b6002546001600160a01b031681565b6000546001600160a01b031690565b6000546001600160a01b0316331490565b6001600160a01b031660009081526005602052604090205490565b6003546001600160a01b031681565b61056a61084c565b6001600160a01b038116600090815260056020526040902054806105bf5760405162461bcd60e51b815260040180806020018281038252603181526020018061096a6031913960400191505060405180910390fd5b6001600160a01b03821660008181526005602090815260408083208390558051928352517ff0393a34d05e6567686ad4e097f9d9d2781565957394f1f0d984e5d8e6378f209281900390910190a2600454610620908263ffffffff61089516565b600455604080516001600160a01b03841681526020810183905281517f6109e2559dfa766aaec7118351d48a523f0a4157f49c8d68749c8ac41318ad12929181900390910190a16040516000906001600160a01b0384169083908381818185875af1925050503d80600081146106b2576040519150601f19603f3d011682016040523d82523d6000602084013e6106b7565b606091505b50509050806104785760405162461bcd60e51b81526004018080602001828103825260238152602001806109c56023913960400191505060405180910390fd5b6001546001600160a01b031681565b6001600160a01b038116610761576040805162461bcd60e51b815260206004820152601e60248201527f4163636f756e742063616e6e6f74206265207a65726f20616464726573730000604482015290519081900360640190fd5b803b806107b5576040805162461bcd60e51b815260206004820181905260248201527f4163636f756e7420636f64652073697a652063616e6e6f74206265207a65726f604482015290519081900360640190fd5b5050565b600080546040516001600160a01b03909116907f8be0079c531659141344cd1fd0a4f28419497f9722a3daafe3b4186f6b6457e0908390a3600080546001600160a01b0319169055565b6002546001600160a01b031633146102ae5760405162461bcd60e51b815260040180806020018281038252602b815260200180610a1a602b913960400191505060405180910390fd5b6001546001600160a01b031633146102ae5760405162461bcd60e51b81526004018080602001828103825260328152602001806109e86032913960400191505060405180910390fd5b600061030a83836040518060400160405280601e81526020017f536166654d6174683a207375627472616374696f6e206f766572666c6f770000815250600081848411156109615760405162461bcd60e51b81526004018080602001828103825283818151815260200191508051906020019080838360005b8381101561092657818101518382015260200161090e565b50505050905090810190601f1680156109535780820380516001836020036101000a031916815260200191505b509250505060405180910390fd5b50505090039056fe436f6c6c537572706c7573506f6f6c3a204e6f20636f6c6c61746572616c20617661696c61626c6520746f20636c61696d436f6c6c537572706c7573506f6f6c3a2043616c6c6572206973206e6f742041637469766520506f6f6c436f6c6c537572706c7573506f6f6c3a2073656e64696e6720455448206661696c6564436f6c6c537572706c7573506f6f6c3a2043616c6c6572206973206e6f7420426f72726f776572204f7065726174696f6e73436f6c6c537572706c7573506f6f6c3a2043616c6c6572206973206e6f742054726f76654d616e61676572a26469706673582212200be024d04a4fa011c951f653f69071970e249b88834ea3ea0f11a3fd8c73ba9964736f6c634300060b00336080604052680ad78ebc5ac620000060005534801561001d57600080fd5b5060c18061002c6000396000f3fe6080604052348015600f57600080fd5b506004361060325760003560e01c806391b7f5ed14603757806398d5fdca146065575b600080fd5b605160048036036020811015604b57600080fd5b5035607d565b604080519115158252519081900360200190f35b606b6085565b60408051918252519081900360200190f35b600055600190565b6000549056fea264697066735822122007589ee650090985e15d3001431708c7276f4c097d31039770ffe7a36582500e64736f6c634300060b0033608060405234801561001057600080fd5b50600080546001600160a01b0319163390811782556040519091907f8be0079c531659141344cd1fd0a4f28419497f9722a3daafe3b4186f6b6457e0908290a36117738061005f6000396000f3fe608060405234801561001057600080fd5b50600436106101375760003560e01c806363e1d57c116100b85780638f32d59b1161007c5780638f32d59b1461036a578063b72703ac14610372578063b7f8cf9b14610398578063babd3d9a146103a0578063de8fa431146103a8578063f376d798146103b057610137565b806363e1d57c146102e0578063681fe70c146102fa57806373d4a13a14610302578063765e01591461033c5780638da5cb5b1461036257610137565b8063416980dc116100ff578063416980dc1461021457806346f7cf871461026e5780634d622831146102aa5780635a4d28bb146102b25780635dbe47e8146102ba57610137565b80631e2231431461013c57806329092d0e146101605780632be21260146101885780633d83908a146101c45780633fce12d5146101cc575b600080fd5b6101446103e4565b604080516001600160a01b039092168252519081900360200190f35b6101866004803603602081101561017657600080fd5b50356001600160a01b03166103f3565b005b6101866004803603608081101561019e57600080fd5b506001600160a01b03813581169160208101359160408201358116916060013516610407565b6101446104ec565b610200600480360360608110156101e257600080fd5b508035906001600160a01b03602082013581169160400135166104fb565b604080519115158252519081900360200190f35b6102486004803603606081101561022a57600080fd5b508035906001600160a01b0360208201358116916040013516610787565b604080516001600160a01b03938416815291909216602082015281519081900390910190f35b6101866004803603608081101561028457600080fd5b506001600160a01b0381358116916020810135916040820135811691606001351661095c565b610144610964565b610144610973565b610200600480360360208110156102d057600080fd5b50356001600160a01b0316610982565b6102e86109a0565b60408051918252519081900360200190f35b6102006109a6565b61030a6109ad565b604080516001600160a01b03958616815293909416602084015282840191909152606082015290519081900360800190f35b6101446004803603602081101561035257600080fd5b50356001600160a01b03166109cc565b6101446109ef565b6102006109fe565b6101446004803603602081101561038857600080fd5b50356001600160a01b0316610a0f565b610144610a30565b610200610a3f565b6102e8610a49565b610186600480360360608110156103c657600080fd5b508035906001600160a01b0360208201358116916040013516610a4f565b6004546001600160a01b031690565b6103fb610bb1565b61040481610bfc565b50565b61040f610df4565b61041884610982565b6104535760405162461bcd60e51b815260040180806020018281038252602a815260200180611654602a913960400191505060405180910390fd5b600083116104925760405162461bcd60e51b815260040180806020018281038252602381526020018061171b6023913960400191505060405180910390fd5b61049b84610bfc565b600083116104da5760405162461bcd60e51b81526004018080602001828103825260228152602001806116cc6022913960400191505060405180910390fd5b6104e684848484610e52565b50505050565b6002546001600160a01b031681565b60006001600160a01b03831615801561051b57506001600160a01b038216155b1561052f576105286109a6565b9050610780565b6001600160a01b0383166105d8576004546001600160a01b03838116911614801561052857506002546040805163b0d8e18160e01b81526001600160a01b0385811660048301529151919092169163b0d8e181916024808301926020929190829003018186803b1580156105a257600080fd5b505afa1580156105b6573d6000803e3d6000fd5b505050506040513d60208110156105cc57600080fd5b50518410159050610780565b6001600160a01b038216610681576005546001600160a01b03848116911614801561052857506002546040805163b0d8e18160e01b81526001600160a01b0386811660048301529151919092169163b0d8e181916024808301926020929190829003018186803b15801561064b57600080fd5b505afa15801561065f573d6000803e3d6000fd5b505050506040513d602081101561067557600080fd5b50518411159050610780565b6001600160a01b038381166000908152600860205260409020546101009004811690831614801561072c57506002546040805163b0d8e18160e01b81526001600160a01b03868116600483015291518793929092169163b0d8e18191602480820192602092909190829003018186803b1580156106fd57600080fd5b505afa158015610711573d6000803e3d6000fd5b505050506040513d602081101561072757600080fd5b505110155b801561052857506002546040805163b0d8e18160e01b81526001600160a01b0385811660048301529151919092169163b0d8e181916024808301926020929190829003018186803b1580156105a257600080fd5b9392505050565b60008083836001600160a01b03821615610831576107a482610982565b158061082757506002546040805163b0d8e18160e01b81526001600160a01b0385811660048301529151919092169163b0d8e181916024808301926020929190829003018186803b1580156107f857600080fd5b505afa15801561080c573d6000803e3d6000fd5b505050506040513d602081101561082257600080fd5b505187115b1561083157600091505b6001600160a01b038116156108d55761084981610982565b15806108cc57506002546040805163b0d8e18160e01b81526001600160a01b0384811660048301529151919092169163b0d8e181916024808301926020929190829003018186803b15801561089d57600080fd5b505afa1580156108b1573d6000803e3d6000fd5b505050506040513d60208110156108c757600080fd5b505187105b156108d5575060005b6001600160a01b0382161580156108f357506001600160a01b038116155b1561091a5760045461090f9088906001600160a01b031661118f565b935093505050610954565b6001600160a01b0382166109325761090f87826112c7565b6001600160a01b03811661094a5761090f878361118f565b61090f878361118f565b935093915050565b6104da610df4565b6005546001600160a01b031690565b6003546001600160a01b031681565b6001600160a01b031660009081526008602052604090205460ff1690565b60065490565b6007541590565b6004546005546006546007546001600160a01b03938416939092169184565b6001600160a01b0390811660009081526008602052604090205461010090041690565b6000546001600160a01b031690565b6000546001600160a01b0316331490565b6001600160a01b039081166000908152600860205260409020600101541690565b6001546001600160a01b031681565b6006546007541490565b60075490565b610a576109fe565b610aa8576040805162461bcd60e51b815260206004820181905260248201527f4f776e61626c653a2063616c6c6572206973206e6f7420746865206f776e6572604482015290519081900360640190fd5b60008311610ae75760405162461bcd60e51b815260040180806020018281038252602281526020018061167e6022913960400191505060405180910390fd5b610af0826113f7565b610af9816113f7565b6006839055600380546001600160a01b038085166001600160a01b0319928316811790935560028054831684179055600180549185169190921617905560408051918252517f143219c9e69b09e07e095fcc889b43d8f46ca892bba65f08dc3a0050869a56789181900360200190a1604080516001600160a01b038316815290517f3ca631ffcd2a9b5d9ae18543fc82f58eb4ca33af9e6ab01b7a8e95331e6ed9859181900360200190a1610bac6114aa565b505050565b6003546001600160a01b03163314610bfa5760405162461bcd60e51b815260040180806020018281038252602c8152602001806116a0602c913960400191505060405180910390fd5b565b610c0581610982565b610c405760405162461bcd60e51b815260040180806020018281038252602a815260200180611654602a913960400191505060405180910390fd5b60075460011015610d86576004546001600160a01b0382811691161415610caf576001600160a01b03818116600090815260086020526040808220546004805461010090920485166001600160a01b031992831617908190559093168252902060010180549091169055610d81565b6005546001600160a01b0382811691161415610d16576001600160a01b0380821660009081526008602052604080822060010154600580546001600160a01b03191691851691909117908190559092168152208054610100600160a81b0319169055610d81565b6001600160a01b038082166000908152600860205260408082208054600180830180548716865284862080546101009485900489168502610100600160a81b03199091161790555492549190910485168452919092200180546001600160a01b031916919092161790555b610da3565b600480546001600160a01b03199081169091556005805490911690555b6001600160a01b038116600090815260086020526040902080546001600160a81b0319168155600190810180546001600160a01b0319169055600754610dee9163ffffffff6114f416565b60075550565b6001546001600160a01b0316331480610e1757506003546001600160a01b031633145b610bfa5760405162461bcd60e51b815260040180806020018281038252602d8152602001806116ee602d913960400191505060405180910390fd5b610e5a610a3f565b15610eac576040805162461bcd60e51b815260206004820152601a60248201527f536f7274656454726f7665733a204c6973742069732066756c6c000000000000604482015290519081900360640190fd5b610eb584610982565b15610ef15760405162461bcd60e51b815260040180806020018281038252602c815260200180611628602c913960400191505060405180910390fd5b6001600160a01b038416610f4c576040805162461bcd60e51b815260206004820152601f60248201527f536f7274656454726f7665733a2049642063616e6e6f74206265207a65726f00604482015290519081900360640190fd5b60008311610f8b5760405162461bcd60e51b815260040180806020018281038252602381526020018061171b6023913960400191505060405180910390fd5b8181610f988583836104fb565b610fad57610fa7858383610787565b90925090505b6001600160a01b038087166000908152600860205260409020805460ff191660011790558216158015610fe757506001600160a01b038116155b1561101c57600480546001600160a01b0388166001600160a01b03199182168117909255600580549091169091179055611170565b6001600160a01b03821661109057600480546001600160a01b03888116600081815260086020526040808220805495851661010002610100600160a81b0319909616959095179094558454909216825291902060010180546001600160a01b03199081168317909155825416179055611170565b6001600160a01b03811661110057600580546001600160a01b0388811660008181526008602052604080822060010180549585166001600160a01b031996871617905585549093168152919091208054610100600160a81b03191661010083021790558254909116179055611170565b6001600160a01b038087166000818152600860205260408082208054858716610100818102610100600160a81b031993841617845560019384018054988b166001600160a01b0319998a168117909155865284862080549188029190931617909155835291200180549092161790555b60075461118490600163ffffffff61153616565b600755505050505050565b60045460009081906001600160a01b03848116911614801561122957506002546040805163b0d8e18160e01b81526001600160a01b0386811660048301529151919092169163b0d8e181916024808301926020929190829003018186803b1580156111f957600080fd5b505afa15801561120d573d6000803e3d6000fd5b505050506040513d602081101561122357600080fd5b50518410155b15611239575060009050816112c0565b6001600160a01b038084166000908152600860205260409020548491610100909104165b6001600160a01b0382161580159061127d575061127b8683836104fb565b155b156112ba57506001600160a01b0390811660009081526008602052604080822054610100908190048416808452919092205490929190041661125d565b90925090505b9250929050565b60055460009081906001600160a01b03848116911614801561136157506002546040805163b0d8e18160e01b81526001600160a01b0386811660048301529151919092169163b0d8e181916024808301926020929190829003018186803b15801561133157600080fd5b505afa158015611345573d6000803e3d6000fd5b505050506040513d602081101561135b57600080fd5b50518411155b15611371575081905060006112c0565b6001600160a01b038084166000908152600860205260409020600101548491165b6001600160a01b038216158015906113b257506113b08682846104fb565b155b156113ed57506001600160a01b0390811660009081526008602052604080822060019081015484168084529190922090910154909116611392565b9590945092505050565b6001600160a01b038116611452576040805162461bcd60e51b815260206004820152601e60248201527f4163636f756e742063616e6e6f74206265207a65726f20616464726573730000604482015290519081900360640190fd5b803b806114a6576040805162461bcd60e51b815260206004820181905260248201527f4163636f756e7420636f64652073697a652063616e6e6f74206265207a65726f604482015290519081900360640190fd5b5050565b600080546040516001600160a01b03909116907f8be0079c531659141344cd1fd0a4f28419497f9722a3daafe3b4186f6b6457e0908390a3600080546001600160a01b0319169055565b600061078083836040518060400160405280601e81526020017f536166654d6174683a207375627472616374696f6e206f766572666c6f770000815250611590565b600082820183811015610780576040805162461bcd60e51b815260206004820152601b60248201527f536166654d6174683a206164646974696f6e206f766572666c6f770000000000604482015290519081900360640190fd5b6000818484111561161f5760405162461bcd60e51b81526004018080602001828103825283818151815260200191508051906020019080838360005b838110156115e45781810151838201526020016115cc565b50505050905090810190601f1680156116115780820380516001836020036101000a031916815260200191505b509250505060405180910390fd5b50505090039056fe536f7274656454726f7665733a204c69737420616c726561647920636f6e7461696e7320746865206e6f6465536f7274656454726f7665733a204c69737420646f6573206e6f7420636f6e7461696e20746865206964536f7274656454726f7665733a2053697a652063616ee2809974206265207a65726f536f7274656454726f7665733a2043616c6c6572206973206e6f74207468652054726f76654d616e61676572536f7274656454726f7665733a20494352206d75737420626520706f736974697665536f7274656454726f7665733a2043616c6c6572206973206e65697468657220424f206e6f722054726f76654d536f7274656454726f7665733a204e494352206d75737420626520706f736974697665a264697066735822122093c33a8f6da41594f45ef26ddc80e46d2b98670854ffe92d4ca1da9d40ade64f64736f6c634300060b0033608060405234801561001057600080fd5b50604051610e35380380610e358339818101604052608081101561003357600080fd5b50805160208201516040830151606090930151600080546001600160a01b039485166001600160a01b0319918216179091556001805493851693821693909317909255600280549484169483169490941790935560038054929093169116179055610d92806100a36000396000f3fe6080604052600436106100ed5760003560e01c80637a97d838116100855780637a97d8381461034f5780637bbb0f5e1461039057806391134731146103d1578063cc51a6c214610413578063cf83544f1461044c578063d466e4eb14610485578063d94bcec2146104be578063f47a1ea714610501578063fb8d67fc1461052b576100f4565b806332e859b9146100f957806335b101791461012f578063390b5f271461018a5780634903a3dd146101d75780634afbac51146101ec5780634c36240b146102695780634d37261f146102a2578063641b09b6146102d5578063650b559c146102ff576100f4565b366100f457005b600080fd5b61012d6004803603606081101561010f57600080fd5b508035906001600160a01b0360208201358116916040013516610574565b005b34801561013b57600080fd5b5061012d600480360360e081101561015257600080fd5b508035906001600160a01b03602082013581169160408101358216916060820135169060808101359060a08101359060c001356105eb565b34801561019657600080fd5b506101c3600480360360408110156101ad57600080fd5b506001600160a01b038135169060200135610683565b604080519115158252519081900360200190f35b3480156101e357600080fd5b5061012d61070f565b3480156101f857600080fd5b5061012d6004803603602081101561020f57600080fd5b81019060208101813564010000000081111561022a57600080fd5b82018360208201111561023c57600080fd5b8035906020019184602083028401116401000000008311171561025e57600080fd5b509092509050610779565b34801561027557600080fd5b5061012d6004803603604081101561028c57600080fd5b50803590602001356001600160a01b0316610812565b3480156102ae57600080fd5b5061012d600480360360208110156102c557600080fd5b50356001600160a01b0316610867565b3480156102e157600080fd5b5061012d600480360360208110156102f857600080fd5b50356108cd565b61012d600480360360e081101561031557600080fd5b5080359060208101359060408101359060608101351515906001600160a01b03608082013581169160a08101359091169060c0013561091a565b34801561035b57600080fd5b5061012d6004803603606081101561037257600080fd5b508035906001600160a01b03602082013581169160400135166109b2565b34801561039c57600080fd5b5061012d600480360360608110156103b357600080fd5b508035906001600160a01b0360208201358116916040013516610a2c565b61012d600480360360a08110156103e757600080fd5b508035906020810135906001600160a01b03604082013581169160608101359091169060800135610a89565b34801561041f57600080fd5b506101c36004803603604081101561043657600080fd5b506001600160a01b038135169060200135610b10565b34801561045857600080fd5b506101c36004803603604081101561046f57600080fd5b506001600160a01b038135169060200135610b69565b34801561049157600080fd5b506101c3600480360360408110156104a857600080fd5b506001600160a01b038135169060200135610bc2565b3480156104ca57600080fd5b506101c3600480360360608110156104e157600080fd5b506001600160a01b03813581169160208101359091169060400135610c1b565b34801561050d57600080fd5b5061012d6004803603602081101561052457600080fd5b5035610cb0565b34801561053757600080fd5b5061012d6004803603608081101561054e57600080fd5b508035906001600160a01b03602082013581169160408101359091169060600135610cf8565b600154604080516368647db160e01b81526001600160a01b0385811660048301528481166024830152915191909216916368647db191869160448082019260009290919082900301818588803b1580156105cd57600080fd5b505af11580156105e1573d6000803e3d6000fd5b5050505050505050565b6000805460408051635e69ba9360e11b8152600481018b90526001600160a01b038a81166024830152898116604483015288811660648301526084820188905260a4820187905260c482018690529151919092169263bcd375269260e4808201939182900301818387803b15801561066257600080fd5b505af1158015610676573d6000803e3d6000fd5b5050505050505050505050565b6003546040805163a9059cbb60e01b81526001600160a01b038581166004830152602482018590529151600093929092169163a9059cbb9160448082019260209290919082900301818787803b1580156106dc57600080fd5b505af11580156106f0573d6000803e3d6000fd5b505050506040513d602081101561070657600080fd5b50519392505050565b600160009054906101000a90046001600160a01b03166001600160a01b0316630e704d506040518163ffffffff1660e01b8152600401600060405180830381600087803b15801561075f57600080fd5b505af1158015610773573d6000803e3d6000fd5b50505050565b600054604051631e8b1c2b60e01b8152602060048201818152602483018590526001600160a01b0390931692631e8b1c2b92869286929182916044909101908590850280828437600081840152601f19601f8201169050808301925050509350505050600060405180830381600087803b1580156107f657600080fd5b505af115801561080a573d6000803e3d6000fd5b505050505050565b60025460408051635f788d6560e01b8152600481018590526001600160a01b03848116602483015291519190921691635f788d6591604480830192600092919082900301818387803b1580156107f657600080fd5b60008054604080516305f0caad60e31b81526001600160a01b03858116600483015291519190921692632f865568926024808201939182900301818387803b1580156108b257600080fd5b505af11580156108c6573d6000803e3d6000fd5b5050505050565b60025460408051632e54bf9560e01b81526004810184905290516001600160a01b0390921691632e54bf959160248082019260009290919082900301818387803b1580156108b257600080fd5b60015460408051630635367960e51b815260048101849052602481018990526044810188905286151560648201526001600160a01b03868116608483015285811660a48301529151919092169163c6a6cf20918a9160c48082019260009290919082900301818588803b15801561099057600080fd5b505af11580156109a4573d6000803e3d6000fd5b505050505050505050505050565b600154604080516304491fa760e01b8152600481018690526001600160a01b0385811660248301528481166044830152915191909216916304491fa791606480830192600092919082900301818387803b158015610a0f57600080fd5b505af1158015610a23573d6000803e3d6000fd5b50505050505050565b6001546040805163154c09cf60e21b8152600481018690526001600160a01b038581166024830152848116604483015291519190921691635530273c91606480830192600092919082900301818387803b158015610a0f57600080fd5b6001546040805163860665b360e01b815260048101849052602481018790526001600160a01b03868116604483015285811660648301529151919092169163860665b391889160848082019260009290919082900301818588803b158015610af057600080fd5b505af1158015610b04573d6000803e3d6000fd5b50505050505050505050565b60035460408051633950935160e01b81526001600160a01b038581166004830152602482018590529151600093929092169163395093519160448082019260209290919082900301818787803b1580156106dc57600080fd5b6003546040805163095ea7b360e01b81526001600160a01b038581166004830152602482018590529151600093929092169163095ea7b39160448082019260209290919082900301818787803b1580156106dc57600080fd5b6003546040805163a457c2d760e01b81526001600160a01b038581166004830152602482018590529151600093929092169163a457c2d79160448082019260209290919082900301818787803b1580156106dc57600080fd5b600354604080516323b872dd60e01b81526001600160a01b038681166004830152858116602483015260448201859052915160009392909216916323b872dd9160648082019260209290919082900301818787803b158015610c7c57600080fd5b505af1158015610c90573d6000803e3d6000fd5b505050506040513d6020811015610ca657600080fd5b5051949350505050565b600080546040805163653d46e760e01b81526004810185905290516001600160a01b039092169263653d46e79260248084019382900301818387803b1580156108b257600080fd5b600154604080516302309cbf60e31b815260048101849052602481018790526001600160a01b038681166044830152858116606483015291519190921691631184e5f891608480830192600092919082900301818387803b1580156105cd57600080fdfea2646970667358221220d2c179badc33a7795efb723f41b9a16bbab43f7beaa1dfb7f51edf8879a34e6a64736f6c634300060b0033",
  "linkReferences": {},
  "deployedLinkReferences": {}
}