{
  "_format": "hh-sol-artifact-1",
  "contractName": "EchidnaTester",
  "sourceName": "contracts/TestContracts/EchidnaTester.sol",
  "abi": [
    {
      "inputs": [],
      "stateMutability": "payable",
      "type": "constructor"
    },
    {
      "inputs": [],
      "name": "activePool",
      "outputs": [
        {
          "internalType": "contract ActivePool",
          "name": "",
          "type": "address"
        }
      ],
      "stateMutability": "view",
      "type": "function"
    },
    {
      "inputs": [
        {
          "internalType": "uint256",
          "name": "_i",
          "type": "uint256"
        },
        {
          "internalType": "uint256",
          "name": "_ETH",
          "type": "uint256"
        }
      ],
      "name": "addCollExt",
      "outputs": [],
      "stateMutability": "payable",
      "type": "function"
    },
    {
      "inputs": [
        {
          "internalType": "uint256",
          "name": "_i",
          "type": "uint256"
        },
        {
          "internalType": "uint256",
          "name": "_ETH",
          "type": "uint256"
        },
        {
          "internalType": "address",
          "name": "_upperHint",
          "type": "address"
        },
        {
          "internalType": "address",
          "name": "_lowerHint",
          "type": "address"
        }
      ],
      "name": "addCollRawExt",
      "outputs": [],
      "stateMutability": "payable",
      "type": "function"
    },
    {
      "inputs": [
        {
          "internalType": "uint256",
          "name": "_i",
          "type": "uint256"
        },
        {
          "internalType": "uint256",
          "name": "_ETH",
          "type": "uint256"
        },
        {
          "internalType": "uint256",
          "name": "_collWithdrawal",
          "type": "uint256"
        },
        {
          "internalType": "uint256",
          "name": "_debtChange",
          "type": "uint256"
        },
        {
          "internalType": "bool",
          "name": "_isDebtIncrease",
          "type": "bool"
        }
      ],
      "name": "adjustTroveExt",
      "outputs": [],
      "stateMutability": "payable",
      "type": "function"
    },
    {
      "inputs": [
        {
          "internalType": "uint256",
          "name": "_i",
          "type": "uint256"
        },
        {
          "internalType": "uint256",
          "name": "_ETH",
          "type": "uint256"
        },
        {
          "internalType": "uint256",
          "name": "_collWithdrawal",
          "type": "uint256"
        },
        {
          "internalType": "uint256",
          "name": "_debtChange",
          "type": "uint256"
        },
        {
          "internalType": "bool",
          "name": "_isDebtIncrease",
          "type": "bool"
        },
        {
          "internalType": "address",
          "name": "_upperHint",
          "type": "address"
        },
        {
          "internalType": "address",
          "name": "_lowerHint",
          "type": "address"
        },
        {
          "internalType": "uint256",
          "name": "_maxFee",
          "type": "uint256"
        }
      ],
      "name": "adjustTroveRawExt",
      "outputs": [],
      "stateMutability": "payable",
      "type": "function"
    },
    {
      "inputs": [
        {
          "internalType": "uint256",
          "name": "_i",
          "type": "uint256"
        },
        {
          "internalType": "address",
          "name": "spender",
          "type": "address"
        },
        {
          "internalType": "uint256",
          "name": "amount",
          "type": "uint256"
        }
      ],
      "name": "approveExt",
      "outputs": [
        {
          "internalType": "bool",
          "name": "",
          "type": "bool"
        }
      ],
      "stateMutability": "nonpayable",
      "type": "function"
    },
    {
      "inputs": [
        {
          "internalType": "uint256",
          "name": "_i",
          "type": "uint256"
        },
        {
          "internalType": "address[]",
          "name": "_troveArray",
          "type": "address[]"
        }
      ],
      "name": "batchLiquidateTrovesExt",
      "outputs": [],
      "stateMutability": "nonpayable",
      "type": "function"
    },
    {
      "inputs": [],
      "name": "borrowerOperations",
      "outputs": [
        {
          "internalType": "contract BorrowerOperations",
          "name": "",
          "type": "address"
        }
      ],
      "stateMutability": "view",
      "type": "function"
    },
    {
      "inputs": [
        {
          "internalType": "uint256",
          "name": "_i",
          "type": "uint256"
        }
      ],
      "name": "closeTroveExt",
      "outputs": [],
      "stateMutability": "nonpayable",
      "type": "function"
    },
    {
      "inputs": [],
      "name": "collSurplusPool",
      "outputs": [
        {
          "internalType": "contract CollSurplusPool",
          "name": "",
          "type": "address"
        }
      ],
      "stateMutability": "view",
      "type": "function"
    },
    {
      "inputs": [
        {
          "internalType": "uint256",
          "name": "_i",
          "type": "uint256"
        },
        {
          "internalType": "address",
          "name": "spender",
          "type": "address"
        },
        {
          "internalType": "uint256",
          "name": "subtractedValue",
          "type": "uint256"
        }
      ],
      "name": "decreaseAllowanceExt",
      "outputs": [
        {
          "internalType": "bool",
          "name": "",
          "type": "bool"
        }
      ],
      "stateMutability": "nonpayable",
      "type": "function"
    },
    {
      "inputs": [],
      "name": "defaultPool",
      "outputs": [
        {
          "internalType": "contract DefaultPool",
          "name": "",
          "type": "address"
        }
      ],
      "stateMutability": "view",
      "type": "function"
    },
    {
      "inputs": [
        {
          "internalType": "uint256",
          "name": "",
          "type": "uint256"
        }
      ],
      "name": "echidnaProxies",
      "outputs": [
        {
          "internalType": "contract EchidnaProxy",
          "name": "",
          "type": "address"
        }
      ],
      "stateMutability": "view",
      "type": "function"
    },
    {
      "inputs": [],
      "name": "echidna_ETH_balances",
      "outputs": [
        {
          "internalType": "bool",
          "name": "",
          "type": "bool"
        }
      ],
      "stateMutability": "view",
      "type": "function"
    },
    {
      "inputs": [],
      "name": "echidna_LUSD_global_balances",
      "outputs": [
        {
          "internalType": "bool",
          "name": "",
          "type": "bool"
        }
      ],
      "stateMutability": "view",
      "type": "function"
    },
    {
      "inputs": [],
      "name": "echidna_canary_active_pool_balance",
      "outputs": [
        {
          "internalType": "bool",
          "name": "",
          "type": "bool"
        }
      ],
      "stateMutability": "view",
      "type": "function"
    },
    {
      "inputs": [],
      "name": "echidna_canary_number_of_troves",
      "outputs": [
        {
          "internalType": "bool",
          "name": "",
          "type": "bool"
        }
      ],
      "stateMutability": "view",
      "type": "function"
    },
    {
      "inputs": [],
      "name": "echidna_price",
      "outputs": [
        {
          "internalType": "bool",
          "name": "",
          "type": "bool"
        }
      ],
      "stateMutability": "view",
      "type": "function"
    },
    {
      "inputs": [],
      "name": "echidna_trove_properties",
      "outputs": [
        {
          "internalType": "bool",
          "name": "",
          "type": "bool"
        }
      ],
      "stateMutability": "view",
      "type": "function"
    },
    {
      "inputs": [],
      "name": "echidna_troves_order",
      "outputs": [
        {
          "internalType": "bool",
          "name": "",
          "type": "bool"
        }
      ],
      "stateMutability": "view",
      "type": "function"
    },
    {
      "inputs": [],
      "name": "gasPool",
      "outputs": [
        {
          "internalType": "contract GasPool",
          "name": "",
          "type": "address"
        }
      ],
      "stateMutability": "view",
      "type": "function"
    },
    {
      "inputs": [
        {
          "internalType": "uint256",
          "name": "_i",
          "type": "uint256"
        },
        {
          "internalType": "address",
          "name": "spender",
          "type": "address"
        },
        {
          "internalType": "uint256",
          "name": "addedValue",
          "type": "uint256"
        }
      ],
      "name": "increaseAllowanceExt",
      "outputs": [
        {
          "internalType": "bool",
          "name": "",
          "type": "bool"
        }
      ],
      "stateMutability": "nonpayable",
      "type": "function"
    },
    {
      "inputs": [
        {
          "internalType": "uint256",
          "name": "_i",
          "type": "uint256"
        },
        {
          "internalType": "address",
          "name": "_user",
          "type": "address"
        }
      ],
      "name": "liquidateExt",
      "outputs": [],
      "stateMutability": "nonpayable",
      "type": "function"
    },
    {
      "inputs": [
        {
          "internalType": "uint256",
          "name": "_i",
          "type": "uint256"
        },
        {
          "internalType": "uint256",
          "name": "_n",
          "type": "uint256"
        }
      ],
      "name": "liquidateTrovesExt",
      "outputs": [],
      "stateMutability": "nonpayable",
      "type": "function"
    },
    {
      "inputs": [],
      "name": "lusdToken",
      "outputs": [
        {
          "internalType": "contract LUSDToken",
          "name": "",
          "type": "address"
        }
      ],
      "stateMutability": "view",
      "type": "function"
    },
    {
      "inputs": [
        {
          "internalType": "uint256",
          "name": "_i",
          "type": "uint256"
        },
        {
          "internalType": "uint256",
          "name": "_ETH",
          "type": "uint256"
        },
        {
          "internalType": "uint256",
          "name": "_LUSDAmount",
          "type": "uint256"
        }
      ],
      "name": "openTroveExt",
      "outputs": [],
      "stateMutability": "payable",
      "type": "function"
    },
    {
      "inputs": [
        {
          "internalType": "uint256",
          "name": "_i",
          "type": "uint256"
        },
        {
          "internalType": "uint256",
          "name": "_ETH",
          "type": "uint256"
        },
        {
          "internalType": "uint256",
          "name": "_LUSDAmount",
          "type": "uint256"
        },
        {
          "internalType": "address",
          "name": "_upperHint",
          "type": "address"
        },
        {
          "internalType": "address",
          "name": "_lowerHint",
          "type": "address"
        },
        {
          "internalType": "uint256",
          "name": "_maxFee",
          "type": "uint256"
        }
      ],
      "name": "openTroveRawExt",
      "outputs": [],
      "stateMutability": "payable",
      "type": "function"
    },
    {
      "inputs": [
        {
          "internalType": "uint256",
          "name": "_i",
          "type": "uint256"
        },
        {
          "internalType": "uint256",
          "name": "_amount",
          "type": "uint256"
        },
        {
          "internalType": "address",
          "name": "_frontEndTag",
          "type": "address"
        }
      ],
      "name": "provideToSPExt",
      "outputs": [],
      "stateMutability": "nonpayable",
      "type": "function"
    },
    {
      "inputs": [
        {
          "internalType": "uint256",
          "name": "_i",
          "type": "uint256"
        },
        {
          "internalType": "uint256",
          "name": "_LUSDAmount",
          "type": "uint256"
        },
        {
          "internalType": "address",
          "name": "_firstRedemptionHint",
          "type": "address"
        },
        {
          "internalType": "address",
          "name": "_upperPartialRedemptionHint",
          "type": "address"
        },
        {
          "internalType": "address",
          "name": "_lowerPartialRedemptionHint",
          "type": "address"
        },
        {
          "internalType": "uint256",
          "name": "_partialRedemptionHintNICR",
          "type": "uint256"
        }
      ],
      "name": "redeemCollateralExt",
      "outputs": [],
      "stateMutability": "nonpayable",
      "type": "function"
    },
    {
      "inputs": [
        {
          "internalType": "uint256",
          "name": "_i",
          "type": "uint256"
        },
        {
          "internalType": "uint256",
          "name": "_amount",
          "type": "uint256"
        },
        {
          "internalType": "address",
          "name": "_upperHint",
          "type": "address"
        },
        {
          "internalType": "address",
          "name": "_lowerHint",
          "type": "address"
        }
      ],
      "name": "repayLUSDExt",
      "outputs": [],
      "stateMutability": "nonpayable",
      "type": "function"
    },
    {
      "inputs": [
        {
          "internalType": "uint256",
          "name": "_price",
          "type": "uint256"
        }
      ],
      "name": "setPriceExt",
      "outputs": [],
      "stateMutability": "nonpayable",
      "type": "function"
    },
    {
      "inputs": [],
      "name": "stabilityPool",
      "outputs": [
        {
          "internalType": "contract StabilityPool",
          "name": "",
          "type": "address"
        }
      ],
      "stateMutability": "view",
      "type": "function"
    },
    {
      "inputs": [
        {
          "internalType": "uint256",
          "name": "_i",
          "type": "uint256"
        },
        {
          "internalType": "address",
          "name": "recipient",
          "type": "address"
        },
        {
          "internalType": "uint256",
          "name": "amount",
          "type": "uint256"
        }
      ],
      "name": "transferExt",
      "outputs": [
        {
          "internalType": "bool",
          "name": "",
          "type": "bool"
        }
      ],
      "stateMutability": "nonpayable",
      "type": "function"
    },
    {
      "inputs": [
        {
          "internalType": "uint256",
          "name": "_i",
          "type": "uint256"
        },
        {
          "internalType": "address",
          "name": "sender",
          "type": "address"
        },
        {
          "internalType": "address",
          "name": "recipient",
          "type": "address"
        },
        {
          "internalType": "uint256",
          "name": "amount",
          "type": "uint256"
        }
      ],
      "name": "transferFromExt",
      "outputs": [
        {
          "internalType": "bool",
          "name": "",
          "type": "bool"
        }
      ],
      "stateMutability": "nonpayable",
      "type": "function"
    },
    {
      "inputs": [],
      "name": "troveManager",
      "outputs": [
        {
          "internalType": "contract TroveManager",
          "name": "",
          "type": "address"
        }
      ],
      "stateMutability": "view",
      "type": "function"
    },
    {
      "inputs": [
        {
          "internalType": "uint256",
          "name": "_i",
          "type": "uint256"
        },
        {
          "internalType": "uint256",
          "name": "_amount",
          "type": "uint256"
        },
        {
          "internalType": "address",
          "name": "_upperHint",
          "type": "address"
        },
        {
          "internalType": "address",
          "name": "_lowerHint",
          "type": "address"
        }
      ],
      "name": "withdrawCollExt",
      "outputs": [],
      "stateMutability": "nonpayable",
      "type": "function"
    },
    {
      "inputs": [
        {
          "internalType": "uint256",
          "name": "_i",
          "type": "uint256"
        },
        {
          "internalType": "uint256",
          "name": "_amount",
          "type": "uint256"
        }
      ],
      "name": "withdrawFromSPExt",
      "outputs": [],
      "stateMutability": "nonpayable",
      "type": "function"
    },
    {
      "inputs": [
        {
          "internalType": "uint256",
          "name": "_i",
          "type": "uint256"
        },
        {
          "internalType": "uint256",
          "name": "_amount",
          "type": "uint256"
        },
        {
          "internalType": "address",
          "name": "_upperHint",
          "type": "address"
        },
        {
          "internalType": "address",
          "name": "_lowerHint",
          "type": "address"
        },
        {
          "internalType": "uint256",
          "name": "_maxFee",
          "type": "uint256"
        }
      ],
      "name": "withdrawLUSDExt",
      "outputs": [],
      "stateMutability": "nonpayable",
      "type": "function"
    }
  ],
  "bytecode": "0x6080604052604051620000129062000ab0565b604051809103906000f0801580156200002f573d6000803e3d6000fd5b50600380546001600160a01b0319166001600160a01b03929092169190911790556040516200005e9062000abe565b604051809103906000f0801580156200007b573d6000803e3d6000fd5b50600480546001600160a01b0319166001600160a01b0392909216919091179055604051620000aa9062000acc565b604051809103906000f080158015620000c7573d6000803e3d6000fd5b50600580546001600160a01b0319166001600160a01b0392909216919091179055604051620000f69062000ada565b604051809103906000f08015801562000113573d6000803e3d6000fd5b50600680546001600160a01b0319166001600160a01b0392909216919091179055604051620001429062000ae8565b604051809103906000f0801580156200015f573d6000803e3d6000fd5b50600780546001600160a01b0319166001600160a01b03929092169190911790556040516200018e9062000af6565b604051809103906000f080158015620001ab573d6000803e3d6000fd5b50600880546001600160a01b0319166001600160a01b039283161790556003546007546004546040519284169391821692911690620001ea9062000b03565b6001600160a01b03938416815291831660208301529091166040808301919091525190819003606001906000f0801580156200022a573d6000803e3d6000fd5b50600a80546001600160a01b0319166001600160a01b0392909216919091179055604051620002599062000b11565b604051809103906000f08015801562000276573d6000803e3d6000fd5b50600980546001600160a01b0319166001600160a01b0392909216919091179055604051620002a59062000b1f565b604051809103906000f080158015620002c2573d6000803e3d6000fd5b50600b80546001600160a01b0319166001600160a01b0392909216919091179055604051620002f19062000b2c565b604051809103906000f0801580156200030e573d6000803e3d6000fd5b50600c80546001600160a01b0319166001600160a01b03928316179081905560035460048054600554600654600754600854600954600b54600a5460408051631e61717960e21b8152988d1699890199909952958b166024880152938a166044870152918916606486015288166084850152871660a4840152861660c4830152851660e482015292841661010484015260006101248401819052610144840181905290519190931692637985c5e492610164808201939182900301818387803b158015620003db57600080fd5b505af1158015620003f0573d6000803e3d6000fd5b505060048054600354600554600654600754600854600954600b54600c54600a5460408051636c37a4af60e01b81526001600160a01b039a8b169c81019c909c5297891660248c015295881660448b015293871660648a01529186166084890152851660a4880152841660c4870152831660e48601528216610104850152600061012485018190529051919092169450636c37a4af93506101448084019382900301818387803b158015620004a457600080fd5b505af1158015620004b9573d6000803e3d6000fd5b50506005546004805460035460075460065460408051634a945f8d60e01b81526001600160a01b039586169681019690965292841660248601529083166044850152821660648401525192169350634a945f8d925060848082019260009290919082900301818387803b1580156200053057600080fd5b505af115801562000545573d6000803e3d6000fd5b5050600654600354600554604080516348083d7f60e11b81526001600160a01b0393841660048201529183166024830152519190921693506390107afe9250604480830192600092919082900301818387803b158015620005a557600080fd5b505af1158015620005ba573d6000803e3d6000fd5b505060075460048054600354600554600a54600c54600b546040805163eaa8ba7f60e01b81526001600160a01b039788169881019890985294861660248801529285166044870152908416606486015283166084850152821660a4840152600060c48401819052905191909316945063eaa8ba7f935060e4808301939282900301818387803b1580156200064d57600080fd5b505af115801562000662573d6000803e3d6000fd5b50506009546004805460035460055460408051630d8efe5960e21b81526001600160a01b0394851695810195909552918316602485015282166044840152519216935063363bf964925060648082019260009290919082900301818387803b158015620006ce57600080fd5b505af1158015620006e3573d6000803e3d6000fd5b5050600c546003546004805460408051631e6edaf360e31b8152670de0b6b3a7640000938101939093526001600160a01b03938416602484015290831660448301525191909216935063f376d7989250606480830192600092919082900301818387803b1580156200075457600080fd5b505af115801562000769573d6000803e3d6000fd5b506000925050505b6064811015620008a957600354600454600754600a546040516001600160a01b0394851694938416939283169290911690620007ad9062000b3a565b6001600160a01b039485168152928416602084015290831660408084019190915292166060820152905190819003608001906000f080158015620007f5573d6000803e3d6000fd5b50600d82606481106200080457fe5b0180546001600160a01b0319166001600160a01b03929092169190911790556000600d82606481106200083357fe5b01546040516001600160a01b039091169069d3c21bcecceda100000090600081818185875af1925050503d80600081146200088b576040519150601f19603f3d011682016040523d82523d6000602084013e62000890565b606091505b50509050806200089f57600080fd5b5060010162000771565b506004805460408051631e5395c960e21b815290516001600160a01b039092169263794e5724928282019260209290829003018186803b158015620008ed57600080fd5b505afa15801562000902573d6000803e3d6000fd5b505050506040513d60208110156200091957600080fd5b50516000556004805460408051635733d58f60e01b815290516001600160a01b0390921692635733d58f928282019260209290829003018186803b1580156200096157600080fd5b505afa15801562000976573d6000803e3d6000fd5b505050506040513d60208110156200098d57600080fd5b505160015560048054604080516305d0d77b60e31b815290516001600160a01b0390921692632e86bbd8928282019260209290829003018186803b158015620009d557600080fd5b505afa158015620009ea573d6000803e3d6000fd5b505050506040513d602081101562000a0157600080fd5b505160025560005462000a1357600080fd5b60006001541162000a2357600080fd5b600b54604080516391b7f5ed60e01b815269021e19e0c9bab2400000600482015290516001600160a01b03909216916391b7f5ed916024808201926020929091908290030181600087803b15801562000a7b57600080fd5b505af115801562000a90573d6000803e3d6000fd5b505050506040513d602081101562000aa757600080fd5b5062000b489050565b615adc80620032e583390190565b6137918062008dc183390190565b610c1c806200c55283390190565b6109f7806200d16e83390190565b613990806200db6583390190565b605c80620114f583390190565b6118ad806201155183390190565b610b998062012dfe83390190565b60f7806201399783390190565b61192d8062013a8e83390190565b610e3580620153bb83390190565b61278d8062000b586000396000f3fe6080604052600436106102055760003560e01c80637f7dde4a11610113578063b83f91a2116100ab578063d21af9681161006f578063d21af96814610859578063e448912714610882578063efa83cf9146108b2578063f2a903a7146108fa578063fa08b0381461090f57610205565b8063b83f91a214610766578063baf5d65f1461077b578063c325347f146107ab578063c91b364a1461082f578063cda775f91461084457610205565b80637f7dde4a146105d45780638e4707d3146105e957806391a4a42614610628578063980c55d7146106525780639cdd0978146106675780639d9da9d8146106a65780639f56ac18146106f5578063a2f5cbdd1461070a578063a3d368341461071f57610205565b80634557559f116101a157806359bed84b1161016557806359bed84b146104d257806369690936146104e757806377553ad4146105215780637c22900e146105365780637ca8b0281461057f57610205565b80634557559f146103e05780634e792a301461040a57806357285cc5146104435780635895ac4e14610466578063597ec7991461047b57610205565b8063048c661d1461020a57806304bbf59c1461023b578063119be5d01461028e5780631c6fbd23146102cd5780633ca4afc1146103065780633cc74225146103455780633d83908a1461035a57806340ba2e271461036f5780634104fbd314610399575b600080fd5b34801561021657600080fd5b5061021f610924565b604080516001600160a01b039092168252519081900360200190f35b34801561024757600080fd5b5061027a6004803603606081101561025e57600080fd5b508035906001600160a01b036020820135169060400135610933565b604080519115158252519081900360200190f35b34801561029a57600080fd5b5061027a600480360360608110156102b157600080fd5b508035906001600160a01b0360208201351690604001356109d3565b610304600480360360a08110156102e357600080fd5b50803590602081013590604081013590606081013590608001351515610a3e565b005b34801561031257600080fd5b506103046004803603606081101561032957600080fd5b50803590602081013590604001356001600160a01b0316610b26565b34801561035157600080fd5b5061021f610bad565b34801561036657600080fd5b5061021f610bbc565b34801561037b57600080fd5b506103046004803603602081101561039257600080fd5b5035610bcb565b3480156103a557600080fd5b50610304600480360360808110156103bc57600080fd5b508035906020810135906001600160a01b0360408201358116916060013516610c4b565b3480156103ec57600080fd5b506103046004803603602081101561040357600080fd5b5035610cdb565b34801561041657600080fd5b506103046004803603604081101561042d57600080fd5b50803590602001356001600160a01b0316610d61565b6103046004803603604081101561045957600080fd5b5080359060200135610de0565b34801561047257600080fd5b5061027a610e93565b610304600480360361010081101561049257600080fd5b5080359060208101359060408101359060608101359060808101351515906001600160a01b0360a082013581169160c08101359091169060e00135610f2a565b3480156104de57600080fd5b5061027a610fdb565b610304600480360360808110156104fd57600080fd5b508035906020810135906001600160a01b0360408201358116916060013516611290565b34801561052d57600080fd5b5061021f611301565b34801561054257600080fd5b5061027a6004803603608081101561055957600080fd5b508035906001600160a01b03602082013581169160408101359091169060600135611310565b34801561058b57600080fd5b50610304600480360360c08110156105a257600080fd5b508035906020810135906001600160a01b03604082013581169160608101358216916080820135169060a001356113b9565b3480156105e057600080fd5b5061021f611466565b3480156105f557600080fd5b5061027a6004803603606081101561060c57600080fd5b508035906001600160a01b036020820135169060400135611475565b34801561063457600080fd5b5061021f6004803603602081101561064b57600080fd5b50356114e0565b34801561065e57600080fd5b5061027a6114fd565b34801561067357600080fd5b5061027a6004803603606081101561068a57600080fd5b508035906001600160a01b0360208201351690604001356117bf565b3480156106b257600080fd5b50610304600480360360a08110156106c957600080fd5b508035906020810135906001600160a01b0360408201358116916060810135909116906080013561182a565b34801561070157600080fd5b5061027a6118a2565b34801561071657600080fd5b5061027a6118c5565b34801561072b57600080fd5b506103046004803603608081101561074257600080fd5b508035906020810135906001600160a01b03604082013581169160600135166118da565b34801561077257600080fd5b5061021f61194b565b34801561078757600080fd5b506103046004803603604081101561079e57600080fd5b508035906020013561195a565b3480156107b757600080fd5b50610304600480360360408110156107ce57600080fd5b813591908101906040810160208201356401000000008111156107f057600080fd5b82018360208201111561080257600080fd5b8035906020019184602083028401116401000000008311171561082457600080fd5b5090925090506119bb565b34801561083b57600080fd5b5061027a611a4c565b34801561085057600080fd5b5061021f611e72565b6103046004803603606081101561086f57600080fd5b5080359060208101359060400135611e81565b34801561088e57600080fd5b50610304600480360360408110156108a557600080fd5b5080359060200135611fd2565b610304600480360360c08110156108c857600080fd5b508035906020810135906040810135906001600160a01b03606082013581169160808101359091169060a00135612033565b34801561090657600080fd5b5061027a6120b2565b34801561091b57600080fd5b5061021f6122f3565b6007546001600160a01b031681565b600080606485069050600d816064811061094957fe5b01546040805163d466e4eb60e01b81526001600160a01b038781166004830152602482018790529151919092169163d466e4eb9160448083019260209291908290030181600087803b15801561099e57600080fd5b505af11580156109b2573d6000803e3d6000fd5b505050506040513d60208110156109c857600080fd5b509195945050505050565b600080606485069050600d81606481106109e957fe5b01546040805163cf83544f60e01b81526001600160a01b038781166004830152602482018790529151919092169163cf83544f9160448083019260209291908290030181600087803b15801561099e57600080fd5b60006064860690506000600d8260648110610a5557fe5b0154600080546001600160a01b039092169250823191610a789083908a90612302565b9050858515610a9157610a8e82886000546123de565b90505b60408051631942d56760e21b815260048101849052602481018a905260448101839052871515606482015260006084820181905260a4820181905260c4820181905291516001600160a01b0387169263650b559c9260e4808201939182900301818387803b158015610b0257600080fd5b505af1158015610b16573d6000803e3d6000fd5b5050505050505050505050505050565b6000606484069050600d8160648110610b3b57fe5b015460408051634c36240b60e01b8152600481018690526001600160a01b03858116602483015291519190921691634c36240b91604480830192600092919082900301818387803b158015610b8f57600080fd5b505af1158015610ba3573d6000803e3d6000fd5b5050505050505050565b6006546001600160a01b031681565b6003546001600160a01b031681565b6000606482069050600d8160648110610be057fe5b0160009054906101000a90046001600160a01b03166001600160a01b0316634903a3dd6040518163ffffffff1660e01b8152600401600060405180830381600087803b158015610c2f57600080fd5b505af1158015610c43573d6000803e3d6000fd5b505050505050565b6000606485069050600d8160648110610c6057fe5b015460408051630f52fb0760e31b8152600481018790526001600160a01b038681166024830152858116604483015291519190921691637a97d83891606480830192600092919082900301818387803b158015610cbc57600080fd5b505af1158015610cd0573d6000803e3d6000fd5b505050505050505050565b600b54604080516391b7f5ed60e01b81526004810184905290516000926001600160a01b0316916391b7f5ed91602480830192602092919082900301818787803b158015610d2857600080fd5b505af1158015610d3c573d6000803e3d6000fd5b505050506040513d6020811015610d5257600080fd5b5051905080610d5d57fe5b5050565b6000606483069050600d8160648110610d7657fe5b015460408051634d37261f60e01b81526001600160a01b03858116600483015291519190921691634d37261f91602480830192600092919082900301818387803b158015610dc357600080fd5b505af1158015610dd7573d6000803e3d6000fd5b50505050505050565b60006064830690506000600d8260648110610df757fe5b0154600080546001600160a01b039092169250823191610e1a9083908790612302565b604080516332e859b960e01b8152600481018390526000602482018190526044820181905291519293506001600160a01b038616926332e859b99260648084019391929182900301818387803b158015610e7357600080fd5b505af1158015610e87573d6000803e3d6000fd5b50505050505050505050565b600080600b60009054906101000a90046001600160a01b03166001600160a01b03166398d5fdca6040518163ffffffff1660e01b815260040160206040518083038186803b158015610ee457600080fd5b505afa158015610ef8573d6000803e3d6000fd5b505050506040513d6020811015610f0e57600080fd5b5051905080610f21576000915050610f27565b60019150505b90565b6000606489069050600d8160648110610f3f57fe5b015460408051631942d56760e21b8152600481018b9052602481018a90526044810189905287151560648201526001600160a01b03878116608483015286811660a483015260c482018690529151919092169163650b559c9160e480830192600092919082900301818387803b158015610fb857600080fd5b505af1158015610fcc573d6000803e3d6000fd5b50505050505050505050505050565b600080600c60009054906101000a90046001600160a01b03166001600160a01b0316631e2231436040518163ffffffff1660e01b815260040160206040518083038186803b15801561102c57600080fd5b505afa158015611040573d6000803e3d6000fd5b505050506040513d602081101561105657600080fd5b5051600c546040805163765e015960e01b81526001600160a01b0380851660048301529151939450600093919092169163765e0159916024808301926020929190829003018186803b1580156110ab57600080fd5b505afa1580156110bf573d6000803e3d6000fd5b505050506040513d60208110156110d557600080fd5b505190505b6001600160a01b038216158015906110fa57506001600160a01b03811615155b15611287576003546040805163b0d8e18160e01b81526001600160a01b0385811660048301529151919092169163b0d8e181916024808301926020929190829003018186803b15801561114c57600080fd5b505afa158015611160573d6000803e3d6000fd5b505050506040513d602081101561117657600080fd5b50516003546040805163b0d8e18160e01b81526001600160a01b0385811660048301529151919092169163b0d8e181916024808301926020929190829003018186803b1580156111c557600080fd5b505afa1580156111d9573d6000803e3d6000fd5b505050506040513d60208110156111ef57600080fd5b5051111561120257600092505050610f27565b600c546040805163765e015960e01b81526001600160a01b03808516600483015291519394508493919092169163765e0159916024808301926020929190829003018186803b15801561125457600080fd5b505afa158015611268573d6000803e3d6000fd5b505050506040513d602081101561127e57600080fd5b505190506110da565b60019250505090565b6000606485069050600d81606481106112a557fe5b0154604080516332e859b960e01b8152600481018790526001600160a01b0386811660248301528581166044830152915191909216916332e859b991606480830192600092919082900301818387803b158015610cbc57600080fd5b6004546001600160a01b031681565b600080606486069050600d816064811061132657fe5b015460408051636ca5e76160e11b81526001600160a01b0388811660048301528781166024830152604482018790529151919092169163d94bcec29160648083019260209291908290030181600087803b15801561138357600080fd5b505af1158015611397573d6000803e3d6000fd5b505050506040513d60208110156113ad57600080fd5b50919695505050505050565b6000606487069050600d81606481106113ce57fe5b0154604080516335b1017960e01b8152600481018990526001600160a01b0388811660248301528781166044830152868116606483015260848201869052600060a4830181905260c4830181905292519316926335b101799260e48084019391929182900301818387803b15801561144557600080fd5b505af1158015611459573d6000803e3d6000fd5b5050505050505050505050565b6005546001600160a01b031681565b600080606485069050600d816064811061148b57fe5b015460408051636628d36160e11b81526001600160a01b038781166004830152602482018790529151919092169163cc51a6c29160448083019260209291908290030181600087803b15801561099e57600080fd5b600d81606481106114ed57fe5b01546001600160a01b0316905081565b600080600c60009054906101000a90046001600160a01b03166001600160a01b0316631e2231436040518163ffffffff1660e01b815260040160206040518083038186803b15801561154e57600080fd5b505afa158015611562573d6000803e3d6000fd5b505050506040513d602081101561157857600080fd5b505190505b6001600160a01b03811615610f21576001600354604080516321e3780160e01b81526001600160a01b038581166004830152915191909216916321e37801916024808301926020929190829003018186803b1580156115db57600080fd5b505afa1580156115ef573d6000803e3d6000fd5b505050506040513d602081101561160557600080fd5b5051600481111561161257fe5b600481111561161d57fe5b1461162c576000915050610f27565b6002546003546040805163d66a255360e01b81526001600160a01b0385811660048301529151919092169163d66a2553916024808301926020929190829003018186803b15801561167c57600080fd5b505afa158015611690573d6000803e3d6000fd5b505050506040513d60208110156116a657600080fd5b505110156116b8576000915050610f27565b60035460408051630326771360e51b81526001600160a01b038481166004830152915191909216916364cee260916024808301926020929190829003018186803b15801561170557600080fd5b505afa158015611719573d6000803e3d6000fd5b505050506040513d602081101561172f57600080fd5b505161173f576000915050610f27565b600c546040805163765e015960e01b81526001600160a01b0384811660048301529151919092169163765e0159916024808301926020929190829003018186803b15801561178c57600080fd5b505afa1580156117a0573d6000803e3d6000fd5b505050506040513d60208110156117b657600080fd5b5051905061157d565b600080606485069050600d81606481106117d557fe5b01546040805163390b5f2760e01b81526001600160a01b038781166004830152602482018790529151919092169163390b5f279160448083019260209291908290030181600087803b15801561099e57600080fd5b6000606486069050600d816064811061183f57fe5b015460408051633ee359ff60e21b8152600481018890526001600160a01b0387811660248301528681166044830152606482018690529151919092169163fb8d67fc91608480830192600092919082900301818387803b158015610e7357600080fd5b6005546000906001600160a01b031631156118bf57506000610f27565b50600190565b6000601460715411156118bf57506000610f27565b6000606485069050600d81606481106118ef57fe5b015460408051633ddd87af60e11b8152600481018790526001600160a01b038681166024830152858116604483015291519190921691637bbb0f5e91606480830192600092919082900301818387803b158015610cbc57600080fd5b600a546001600160a01b031681565b6000606483069050600d816064811061196f57fe5b01546040805163f47a1ea760e01b81526004810185905290516001600160a01b039092169163f47a1ea79160248082019260009290919082900301818387803b158015610dc357600080fd5b6000606484069050600d81606481106119d057fe5b0154604051634afbac5160e01b8152602060048201818152602483018690526001600160a01b0390931692634afbac5192879287929182916044909101908590850280828437600081840152601f19601f8201169050808301925050509350505050600060405180830381600087803b158015610b8f57600080fd5b600080600a60009054906101000a90046001600160a01b03166001600160a01b03166318160ddd6040518163ffffffff1660e01b815260040160206040518083038186803b158015611a9d57600080fd5b505afa158015611ab1573d6000803e3d6000fd5b505050506040513d6020811015611ac757600080fd5b5051600a54600854604080516370a0823160e01b81526001600160a01b039283166004820152905193945060009391909216916370a08231916024808301926020929190829003018186803b158015611b1f57600080fd5b505afa158015611b33573d6000803e3d6000fd5b505050506040513d6020811015611b4957600080fd5b505160055460408051632f5a97e560e11b815290519293506000926001600160a01b0390921691635eb52fca91600480820192602092909190829003018186803b158015611b9657600080fd5b505afa158015611baa573d6000803e3d6000fd5b505050506040513d6020811015611bc057600080fd5b505160065460408051632f5a97e560e11b815290519293506000926001600160a01b0390921691635eb52fca91600480820192602092909190829003018186803b158015611c0d57600080fd5b505afa158015611c21573d6000803e3d6000fd5b505050506040513d6020811015611c3757600080fd5b505190508181018414611c51576000945050505050610f27565b600754604080516326fcbc6b60e21b815290516000926001600160a01b031691639bf2f1ac916004808301926020929190829003018186803b158015611c9657600080fd5b505afa158015611caa573d6000803e3d6000fd5b505050506040513d6020811015611cc057600080fd5b5051600c5460408051631e22314360e01b815290519293506000926001600160a01b0390921691631e22314391600480820192602092909190829003018186803b158015611d0d57600080fd5b505afa158015611d21573d6000803e3d6000fd5b505050506040513d6020811015611d3757600080fd5b5051905060005b6001600160a01b03821615611e4957600a54604080516370a0823160e01b81526001600160a01b038581166004830152915191909216916370a08231916024808301926020929190829003018186803b158015611d9a57600080fd5b505afa158015611dae573d6000803e3d6000fd5b505050506040513d6020811015611dc457600080fd5b5051600c546040805163765e015960e01b81526001600160a01b0386811660048301529151949093019391169163765e0159916024808301926020929190829003018186803b158015611e1657600080fd5b505afa158015611e2a573d6000803e3d6000fd5b505050506040513d6020811015611e4057600080fd5b50519150611d3e565b85818401018711611e64576000975050505050505050610f27565b600197505050505050505090565b6009546001600160a01b031681565b60006064840690506000600d8260648110611e9857fe5b01546001546001600160a01b039091169150813190600090611ebd9083908890612302565b90506000611ece82876001546123de565b60408051639113473160e01b81526004810185905260248101839052600060448201819052606482018190526084820181905291519293506001600160a01b0387169263911347319260a48084019391929182900301818387803b158015611f3557600080fd5b505af1158015611f49573d6000803e3d6000fd5b50505050600360009054906101000a90046001600160a01b03166001600160a01b03166349eefeee6040518163ffffffff1660e01b815260040160206040518083038186803b158015611f9b57600080fd5b505afa158015611faf573d6000803e3d6000fd5b505050506040513d6020811015611fc557600080fd5b50516071819055610ba357fe5b6000606483069050600d8160648110611fe757fe5b01546040805163320d84db60e11b81526004810185905290516001600160a01b039092169163641b09b69160248082019260009290919082900301818387803b158015610dc357600080fd5b6000606487069050600d816064811061204857fe5b015460408051639113473160e01b815260048101899052602481018890526001600160a01b0387811660448301528681166064830152608482018690529151919092169163911347319160a480830192600092919082900301818387803b15801561144557600080fd5b6003546000906001600160a01b031631156120cf57506000610f27565b6004546001600160a01b031631156120e957506000610f27565b600560009054906101000a90046001600160a01b03166001600160a01b03166314f6c3be6040518163ffffffff1660e01b815260040160206040518083038186803b15801561213757600080fd5b505afa15801561214b573d6000803e3d6000fd5b505050506040513d602081101561216157600080fd5b50516005546001600160a01b0316311461217d57506000610f27565b600660009054906101000a90046001600160a01b03166001600160a01b03166314f6c3be6040518163ffffffff1660e01b815260040160206040518083038186803b1580156121cb57600080fd5b505afa1580156121df573d6000803e3d6000fd5b505050506040513d60208110156121f557600080fd5b50516006546001600160a01b0316311461221157506000610f27565b600760009054906101000a90046001600160a01b03166001600160a01b03166314f6c3be6040518163ffffffff1660e01b815260040160206040518083038186803b15801561225f57600080fd5b505afa158015612273573d6000803e3d6000fd5b505050506040513d602081101561228957600080fd5b50516007546001600160a01b031631146122a557506000610f27565b600a546001600160a01b031631156122bf57506000610f27565b600b546001600160a01b031631156122d957506000610f27565b600c546001600160a01b031631156118bf57506000610f27565b6008546001600160a01b031681565b600080600b60009054906101000a90046001600160a01b03166001600160a01b03166398d5fdca6040518163ffffffff1660e01b815260040160206040518083038186803b15801561235357600080fd5b505afa158015612367573d6000803e3d6000fd5b505050506040513d602081101561237d57600080fd5b505190508061238b57600080fd5b60006123b2826123a6600254876124ca90919063ffffffff16565b9063ffffffff61252c16565b90508086116123c057600080fd5b600081870386816123cd57fe5b0691909101925050505b9392505050565b600080600b60009054906101000a90046001600160a01b03166001600160a01b03166398d5fdca6040518163ffffffff1660e01b815260040160206040518083038186803b15801561242f57600080fd5b505afa158015612443573d6000803e3d6000fd5b505050506040513d602081101561245957600080fd5b5051600254909150849060009061247790839063ffffffff61256e16565b905060006124868883866125c8565b9050858110156124be576124a4866123a68a8763ffffffff6124ca16565b91506124bb600254836125f890919063ffffffff16565b92505b50909695505050505050565b6000826124d957506000612526565b828202828482816124e657fe5b04146125235760405162461bcd60e51b81526004018080602001828103825260218152602001806127376021913960400191505060405180910390fd5b90505b92915050565b600061252383836040518060400160405280601a81526020017f536166654d6174683a206469766973696f6e206279207a65726f00000000000081525061263a565b600082820183811015612523576040805162461bcd60e51b815260206004820152601b60248201527f536166654d6174683a206164646974696f6e206f766572666c6f770000000000604482015290519081900360640190fd5b600082156125ef5760006125e6846123a6878663ffffffff6124ca16565b91506123d79050565b506000196123d7565b600061252383836040518060400160405280601e81526020017f536166654d6174683a207375627472616374696f6e206f766572666c6f7700008152506126dc565b600081836126c65760405162461bcd60e51b81526004018080602001828103825283818151815260200191508051906020019080838360005b8381101561268b578181015183820152602001612673565b50505050905090810190601f1680156126b85780820380516001836020036101000a031916815260200191505b509250505060405180910390fd5b5060008385816126d257fe5b0495945050505050565b6000818484111561272e5760405162461bcd60e51b815260206004820181815283516024840152835190928392604490910191908501908083836000831561268b578181015183820152602001612673565b50505090039056fe536166654d6174683a206d756c7469706c69636174696f6e206f766572666c6f77a26469706673582212208b5ec761c42b41b18f4435d73b7aa36d71f94da091d5ac71bf9d4d768e602dde64736f6c634300060b0033608060405234801561001057600080fd5b50600380546001600160a01b031916339081179091556040516000907f8be0079c531659141344cd1fd0a4f28419497f9722a3daafe3b4186f6b6457e0908290a3615a7b80620000616000396000f3fe608060405234801561001057600080fd5b506004361061044a5760003560e01c8063795d26c31161023c578063b83f91a211610146578063d3d6f843116100c3578063e2ac77b011610087578063e2ac77b014610c67578063f34862de14610c8d578063f36b242514610cb3578063f92d34331461065d578063fe2ba84814610cbb5761044a565b8063d3d6f84314610bd3578063d5b3563514610bff578063d66a255314610c1c578063d9a7244414610c42578063dba1c5f214610c5f5761044a565b8063c52861f21161010a578063c52861f214610b69578063c7b5548114610b71578063cbd138ae14610b79578063d293c71014610b9f578063d380a37c14610bcb5761044a565b8063b83f91a214610ab7578063b91af97c14610abf578063bcd3752614610b0b578063bf9befb114610b59578063c35bc55014610b615761044a565b806396d711ff116101d4578063a3f4df7e11610198578063a3f4df7e146109e7578063ae91875414610a64578063b0d8e18114610a6c578063b7f8cf9b14610a92578063b82f263d14610a9a5761044a565b806396d711ff146109a35780639976cf45146109ab5780639dd233d2146109d7578063a20baee614610894578063a3a64017146109df5761044a565b8063795d26c3146108c9578063797250e3146108d15780637985c5e4146108d95780637f7dde4a14610955578063807d138d1461095d57806382fe3eb914610965578063887105d31461098b5780638da5cb5b146109935780638f32d59b1461099b5761044a565b8063477d66cf11610358578063631203b0116102d557806372423c171161029957806372423c171461086857806372fe25aa14610894578063741bef1a1461089c578063756b253e146108a4578063794e5724146108c15761044a565b8063631203b01461079157806364cee260146107ae578063653d46e7146107d457806366ca4a21146107f15780636ef64338146107f95761044a565b80635733d58f1161031c5780635733d58f146107275780635d6b480f1461072f5780635d8c96091461075b5780635dba4c4a1461078157806361ec893d146107895761044a565b8063477d66cf146106a3578063480cd578146106c05780634870dd9a146106e657806349eefeee146106ee5780634e443d9e146106f65761044a565b80631e8b1c2b116103e657806328d28b5b116103aa57806328d28b5b1461065d5780632b11551a146106655780632e86bbd81461066d5780632f865568146106755780633cc742251461069b5761044a565b80631e8b1c2b1461057c5780631f68f20a1461061f5780631f7af3c31461062757806321e378011461062f57806324092669146106555761044a565b8063048c661d1461044f578063060d49a314610473578063071a75411461048d5780630b0765571461049557806312610e92146104bd57806315d549f1146104e95780631673c79a1461050f57806318f2817a1461054e5780631bf4355514610574575b600080fd5b610457610ce1565b604080516001600160a01b039092168252519081900360200190f35b61047b610cf0565b60408051918252519081900360200190f35b61047b610cf6565b6104bb600480360360208110156104ab57600080fd5b50356001600160a01b0316610cfb565b005b61047b600480360360408110156104d357600080fd5b506001600160a01b038135169060200135610d23565b61047b600480360360208110156104ff57600080fd5b50356001600160a01b0316610d7b565b6105356004803603602081101561052557600080fd5b50356001600160a01b0316610d9f565b6040805192835260208301919091528051918290030190f35b61047b6004803603602081101561056457600080fd5b50356001600160a01b0316610db8565b61047b610dcb565b6104bb6004803603602081101561059257600080fd5b8101906020810181356401000000008111156105ad57600080fd5b8201836020820111156105bf57600080fd5b803590602001918460208302840111640100000000831117156105e157600080fd5b919080806020026020016040519081016040528093929190818152602001838360200280828437600092019190915250929550610dd8945050505050565b61047b61117a565b610457611180565b61047b6004803603602081101561064557600080fd5b50356001600160a01b031661118f565b61047b6111b9565b61047b6111cc565b61047b6111dd565b61047b6111ef565b6104bb6004803603602081101561068b57600080fd5b50356001600160a01b03166111fc565b610457611262565b61047b600480360360208110156106b957600080fd5b5035611271565b61047b600480360360208110156106d657600080fd5b50356001600160a01b0316611284565b61047b6112a2565b61047b6112a7565b6107136004803603602081101561070c57600080fd5b50356112ad565b604080519115158252519081900360200190f35b61047b6112b8565b6104bb6004803603604081101561074557600080fd5b506001600160a01b0381351690602001356112c4565b61047b6004803603602081101561077157600080fd5b50356001600160a01b0316611310565b6104bb6113d6565b61047b61143c565b61047b600480360360208110156107a757600080fd5b5035611441565b61047b600480360360208110156107c457600080fd5b50356001600160a01b031661144e565b6104bb600480360360208110156107ea57600080fd5b503561146c565b61047b61181a565b61081f6004803603602081101561080f57600080fd5b50356001600160a01b031661182c565b6040518086815260200185815260200184815260200183600481111561084157fe5b60ff1681526001600160801b03909216602083015250604080519182900301945092505050f35b61047b6004803603604081101561087e57600080fd5b506001600160a01b038135169060200135611866565b61047b6118c3565b6104576118cf565b610457600480360360208110156108ba57600080fd5b50356118de565b61047b611905565b61047b611911565b61047b611a12565b6104bb60048036036101608110156108f057600080fd5b506001600160a01b038135811691602081013582169160408201358116916060810135821691608082013581169160a081013582169160c082013581169160e08101358216916101008201358116916101208101358216916101409091013516611a18565b610457611e11565b61047b611e20565b6104bb6004803603602081101561097b57600080fd5b50356001600160a01b0316611e26565b61047b611e37565b610457611ef3565b610713611f02565b61047b611f13565b61047b600480360360408110156109c157600080fd5b506001600160a01b038135169060200135611f19565b61047b611f4c565b610457611f52565b6109ef611f61565b6040805160208082528351818301528351919283929083019185019080838360005b83811015610a29578181015183820152602001610a11565b50505050905090810190601f168015610a565780820380516001836020036101000a031916815260200191505b509250505060405180910390f35b610457611f89565b61047b60048036036020811015610a8257600080fd5b50356001600160a01b0316611f98565b610457611fbf565b61047b60048036036020811015610ab057600080fd5b5035611fce565b610457611fd9565b610ae560048036036020811015610ad557600080fd5b50356001600160a01b0316611fe8565b604080519485526020850193909352838301919091526060830152519081900360800190f35b6104bb600480360360e0811015610b2157600080fd5b508035906001600160a01b03602082013581169160408101358216916060820135169060808101359060a08101359060c0013561204c565b61047b6127ee565b61047b6127f4565b61047b6127fb565b61047b61280d565b6104bb60048036036020811015610b8f57600080fd5b50356001600160a01b0316612819565b61047b60048036036040811015610bb557600080fd5b506001600160a01b03813516906020013561282c565b61047b61284b565b61047b60048036036040811015610be957600080fd5b506001600160a01b038135169060200135612851565b61047b60048036036020811015610c1557600080fd5b5035612887565b61047b60048036036020811015610c3257600080fd5b50356001600160a01b031661289a565b61045760048036036020811015610c5857600080fd5b50356128b5565b61047b6128df565b61071360048036036020811015610c7d57600080fd5b50356001600160a01b03166128e5565b61047b60048036036020811015610ca357600080fd5b50356001600160a01b0316612943565b61047b612974565b6104bb60048036036020811015610cd157600080fd5b50356001600160a01b0316612981565b6005546001600160a01b031681565b60175481565b600281565b610d03612992565b600054600154610d20916001600160a01b039081169116836129dd565b50565b6000610d2d612992565b6001600160a01b0383166000908152600e6020526040812054610d56908463ffffffff612aff16565b6001600160a01b0385166000908152600e602052604090208190559150505b92915050565b6000610d85612992565b610d8e82612b48565b6001600160801b031690505b919050565b6014602052600090815260409020805460019091015482565b6000610dc2612992565b610d7582612be2565b686194049f30f720000081565b8051610e155760405162461bcd60e51b81526004018080602001828103825260368152602001806159016036913960400191505060405180910390fd5b6000546001546005546001600160a01b03928316929182169116610e376155f9565b610e3f61562a565b600260009054906101000a90046001600160a01b03166001600160a01b0316630fdb11cf6040518163ffffffff1660e01b8152600401602060405180830381600087803b158015610e8f57600080fd5b505af1158015610ea3573d6000803e3d6000fd5b505050506040513d6020811015610eb957600080fd5b50518252604080516326fcbc6b60e21b815290516001600160a01b03851691639bf2f1ac916004808301926020929190829003018186803b158015610efd57600080fd5b505afa158015610f11573d6000803e3d6000fd5b505050506040513d6020811015610f2757600080fd5b505160208301528151610f3990612c91565b1580156040840152610f6157610f5a8585846000015185602001518a612cae565b9050610f79565b610f768585846000015185602001518a612ec9565b90505b6000816020015111610fbc5760405162461bcd60e51b81526004018080602001828103825260228152602001806159f56022913960400191505060405180910390fd5b826001600160a01b031663335525ad82608001518360a001516040518363ffffffff1660e01b81526004018083815260200182815260200192505050600060405180830381600087803b15801561101257600080fd5b505af1158015611026573d6000803e3d6000fd5b5050505061103e85858360c001518460e00151612f91565b610100810151156110bd57600754610100820151604080516364a197f360e01b81526001600160a01b039384166004820152602481019290925251918716916364a197f39160448082019260009290919082900301818387803b1580156110a457600080fd5b505af11580156110b8573d6000803e3d6000fd5b505050505b6110cb858260400151613212565b602081015160608301526101008101516040820151825161110392916110f7919063ffffffff612aff16565b9063ffffffff612aff16565b608080840182905260608085015160408086015186840151825193845260208401969096528282015291810193909352517f4152c73dd2614c4f9fc35e8c9cf16013cd588c75b49a4c1673ecffdcbcda94039281900390910190a1611172853383606001518460400151613359565b505050505050565b600c5481565b6009546001600160a01b031681565b6001600160a01b0381166000908152600e602052604081206003015460ff166004811115610d7557fe5b6064670de0b6b3a76400005b0460050281565b6103e8670de0b6b3a76400006111c5565b60006111ea600c5461345c565b905090565b680ad78ebc5ac620000081565b61120581613492565b60408051600180825281830190925260609160208083019080368337019050509050818160008151811061123557fe5b60200260200101906001600160a01b031690816001600160a01b03168152505061125e81610dd8565b5050565b6001546001600160a01b031681565b6000610d7561127e61181a565b836134fa565b6001600160a01b03166000908152600e602052604090206001015490565b60c881565b60155490565b6000610d7582612c91565b6714d1120d7b16000081565b6112cc612992565b8060048111156112d857fe5b6001600160a01b0383166000908152600e60205260409020600301805460ff1916600183600481111561130757fe5b02179055505050565b6001600160a01b038116600090815260146020526040812054601254829061133e908363ffffffff612aff16565b9050801580611377575060016001600160a01b0385166000908152600e602052604090206003015460ff16600481111561137457fe5b14155b1561138757600092505050610d9a565b6001600160a01b0384166000908152600e6020526040812060020154906113cc670de0b6b3a76400006113c0848663ffffffff61351816565b9063ffffffff61357116565b9695505050505050565b6113de612992565b60006113e86135b3565b9050670de0b6b3a76400008111156113fc57fe5b600c8190556040805182815290517fc454ee9b76c52f782a256af821b857ca6e125d1e3333bcede402fec2bed9600c9181900360200190a1610d206135f7565b603c81565b6000610d7561127e612974565b6001600160a01b03166000908152600e602052604090206002015490565b611474615676565b506040805160e081018252600080546001600160a01b0390811683526001548116602084015292820181905260608201819052600b548316608083015260a0820181905260c08201526005549091166114cb6155f9565b6114d361562a565b600260009054906101000a90046001600160a01b03166001600160a01b0316630fdb11cf6040518163ffffffff1660e01b8152600401602060405180830381600087803b15801561152357600080fd5b505af1158015611537573d6000803e3d6000fd5b505050506040513d602081101561154d57600080fd5b50518252604080516326fcbc6b60e21b815290516001600160a01b03851691639bf2f1ac916004808301926020929190829003018186803b15801561159157600080fd5b505afa1580156115a5573d6000803e3d6000fd5b505050506040513d60208110156115bb57600080fd5b5051602083015281516115cd90612c91565b15801560408401526115f4576115ed848360000151846020015188613653565b9050611614565b6116118460000151856020015184600001518560200151896139e6565b90505b60008160200151116116575760405162461bcd60e51b81526004018080602001828103825260228152602001806159f56022913960400191505060405180910390fd5b826001600160a01b031663335525ad82608001518360a001516040518363ffffffff1660e01b81526004018083815260200182815260200192505050600060405180830381600087803b1580156116ad57600080fd5b505af11580156116c1573d6000803e3d6000fd5b505050506116e1846000015185602001518360c001518460e00151612f91565b61010081015115611762578351600754610100830151604080516364a197f360e01b81526001600160a01b03938416600482015260248101929092525191909216916364a197f391604480830192600092919082900301818387803b15801561174957600080fd5b505af115801561175d573d6000803e3d6000fd5b505050505b61177484600001518260400151613212565b60208101516060830152610100810151604082015182516117a092916110f7919063ffffffff612aff16565b608080840182905260608085015160408086015186840151825193845260208401969096528282015291810193909352517f4152c73dd2614c4f9fc35e8c9cf16013cd588c75b49a4c1673ecffdcbcda94039281900390910190a161181384600001513383606001518460400151613359565b5050505050565b60006111ea6118276135b3565b613b18565b600e6020526000908152604090208054600182015460028301546003909301549192909160ff81169061010090046001600160801b031685565b6000611870612992565b6001600160a01b0383166000908152600e602052604081206001015461189c908463ffffffff613b3f16565b6001600160a01b0385166000908152600e6020526040902060010181905591505092915050565b670de0b6b3a764000081565b6002546001600160a01b031681565b601581815481106118eb57fe5b6000918252602090912001546001600160a01b0316905081565b670f43fc2c04ee000081565b6000805460408051632f5a97e560e11b8152905183926001600160a01b031691635eb52fca916004808301926020929190829003018186803b15801561195657600080fd5b505afa15801561196a573d6000803e3d6000fd5b505050506040513d602081101561198057600080fd5b505160015460408051632f5a97e560e11b815290519293506000926001600160a01b0390921691635eb52fca91600480820192602092909190829003018186803b1580156119cd57600080fd5b505afa1580156119e1573d6000803e3d6000fd5b505050506040513d60208110156119f757600080fd5b50519050611a0b828263ffffffff613b3f16565b9250505090565b60165481565b611a20611f02565b611a71576040805162461bcd60e51b815260206004820181905260248201527f4f776e61626c653a2063616c6c6572206973206e6f7420746865206f776e6572604482015290519081900360640190fd5b611a7a8b613b99565b611a838a613b99565b611a8c89613b99565b611a9588613b99565b611a9e87613b99565b611aa786613b99565b611ab085613b99565b611ab984613b99565b611ac283613b99565b611acb82613b99565b611ad481613b99565b600480546001600160a01b03199081166001600160a01b038e81169182179093556000805483168e85161790556001805483168d85161790556005805483168c85161790556006805483168b85161790556007805483168a8516179055600280548316898516179055600880548316888516179055600b80548316878516179055600980548316868516179055600a805490921692841692909217905560408051918252517f3ca631ffcd2a9b5d9ae18543fc82f58eb4ca33af9e6ab01b7a8e95331e6ed985916020908290030190a1604080516001600160a01b038c16815290517f78f058b189175430c48dc02699e3a0031ea4ff781536dc2fab847de4babdd8829181900360200190a1604080516001600160a01b038b16815290517f5ee0cae2f063ed938bb55046f6a932fb6ae792bf43624806bb90abe68a50be9b9181900360200190a1604080516001600160a01b038a16815290517f82966d27eea39b038ee0fa30cd16532bb24f6e65d31cb58fb227aa5766cdcc7f9181900360200190a1604080516001600160a01b038916815290517fcfb07d791fcafc032b35837b50eb84b74df518cf4cc287e8084f47630fa70fa09181900360200190a1604080516001600160a01b038816815290517fe67f36a6e961157d6eff83b91f3af5a62131ceb6f04954ef74f51c1c05e7f88d9181900360200190a1604080516001600160a01b038716815290517f8c537274438aa850a330284665d81a85dd38267d09e4050d416bfc94142db2649181900360200190a1604080516001600160a01b038616815290517f227eec0ec317af6ab1a9587ffa1c84332522eb4c583a908f89babc05f8f339bd9181900360200190a1604080516001600160a01b038516815290517f65f4cf077bc01e4742eb5ad98326f6e95b63548ea24b17f8d5e823111fe788009181900360200190a1604080516001600160a01b038416815290517f2ac6e99201ddc1b6eac6f8f28662d1ecafee131f6eb98c29de54528a9888a7d19181900360200190a1604080516001600160a01b038316815290517f756ebc192164c295bba134b5aacd72cc7aff8098a670d1f0a5f6b3a0b4ce67079181900360200190a1611e04613c48565b5050505050505050505050565b6000546001600160a01b031681565b60105481565b611e2e612992565b610d2081613c92565b6000805460408051630a7b61df60e11b8152905183926001600160a01b0316916314f6c3be916004808301926020929190829003018186803b158015611e7c57600080fd5b505afa158015611e90573d6000803e3d6000fd5b505050506040513d6020811015611ea657600080fd5b505160015460408051630a7b61df60e11b815290519293506000926001600160a01b03909216916314f6c3be91600480820192602092909190829003018186803b1580156119cd57600080fd5b6003546001600160a01b031690565b6003546001600160a01b0316331490565b60115481565b6000611f23612992565b6001600160a01b0383166000908152600e6020526040812054610d56908463ffffffff613b3f16565b60125481565b600a546001600160a01b031681565b6040518060400160405280600c81526020016b2a3937bb32a6b0b730b3b2b960a11b81525081565b600b546001600160a01b031681565b6000806000611fa684613cfd565b915091506000611fb68383613d83565b95945050505050565b6004546001600160a01b031681565b6000610d7582613db8565b6008546001600160a01b031681565b6001600160a01b0381166000908152600e60205260408120805460019091015490918061201485612943565b915061201f85611310565b9050612031848363ffffffff613b3f16565b9350612043838263ffffffff613b3f16565b92509193509193565b612054615676565b506040805160e0810182526000546001600160a01b03908116825260015481166020830152600854811692820192909252600a5482166060820152600b5482166080820152600754821660a082015260065490911660c08201526120b66156b2565b6120bf83613de4565b6120c7613e3e565b600260009054906101000a90046001600160a01b03166001600160a01b0316630fdb11cf6040518163ffffffff1660e01b8152600401602060405180830381600087803b15801561211757600080fd5b505af115801561212b573d6000803e3d6000fd5b505050506040513d602081101561214157600080fd5b505160c0820181905261215390613f02565b61215c89613f51565b61216b8260400151338b613f90565b612173611911565b60e0820181905260408084015181516370a0823160e01b815233600482015291516001600160a01b03909116916370a08231916024808301926020929190829003018186803b1580156121c557600080fd5b505afa1580156121d9573d6000803e3d6000fd5b505050506040513d60208110156121ef57600080fd5b505111156121f957fe5b888152608082015160c0820151600091612214918b90614050565b1561222057508761234a565b82608001516001600160a01b0316634d6228316040518163ffffffff1660e01b815260040160206040518083038186803b15801561225d57600080fd5b505afa158015612271573d6000803e3d6000fd5b505050506040513d602081101561228757600080fd5b505190505b6001600160a01b038116158015906122b85750670f43fc2c04ee00006122b6828460c0015161282c565b105b1561234a5782608001516001600160a01b031663b72703ac826040518263ffffffff1660e01b815260040180826001600160a01b03166001600160a01b0316815260200191505060206040518083038186803b15801561231757600080fd5b505afa15801561232b573d6000803e3d6000fd5b505050506040513d602081101561234157600080fd5b5051905061228c565b846123555760001994505b6001600160a01b0381161580159061236d5750815115155b80156123795750600085115b156124ad57848060019003955050600083608001516001600160a01b031663b72703ac836040518263ffffffff1660e01b815260040180826001600160a01b03166001600160a01b0316815260200191505060206040518083038186803b1580156123e357600080fd5b505afa1580156123f7573d6000803e3d6000fd5b505050506040513d602081101561240d57600080fd5b50518451602086015191925061242391846129dd565b61242b6156f7565b612442858486600001518760c001518e8e8e6141c3565b90508060400151156124555750506124ad565b8051602085015161246b9163ffffffff613b3f16565b602080860191909152810151604085015161248b9163ffffffff613b3f16565b6040850152805184516124a39163ffffffff612aff16565b8452509050612355565b60008260400151116124f05760405162461bcd60e51b81526004018080602001828103825260298152602001806157a46029913960400191505060405180910390fd5b61250782604001518360c001518460e00151614476565b50612515826040015161451e565b60608301819052604083015161252c91908661452b565b82600001516001600160a01b03166364a197f3846060015184606001516040518363ffffffff1660e01b815260040180836001600160a01b03166001600160a01b0316815260200182815260200192505050600060405180830381600087803b15801561259857600080fd5b505af11580156125ac573d6000803e3d6000fd5b5050505082606001516001600160a01b0316631e3e2a1a83606001516040518263ffffffff1660e01b815260040180828152602001915050600060405180830381600087803b1580156125fe57600080fd5b505af1158015612612573d6000803e3d6000fd5b505050506060820151604083015161262991612aff565b8260800181815250507f43a3f4082a4dbc33d78e317d2497d3a730bc7fc3574159dcea1056e62e5d9ad88a8360200151846040015185606001516040518085815260200184815260200183815260200182815260200194505050505060405180910390a182604001516001600160a01b0316639dc29fac3384602001516040518363ffffffff1660e01b815260040180836001600160a01b03166001600160a01b0316815260200182815260200192505050600060405180830381600087803b1580156126f557600080fd5b505af1158015612709573d6000803e3d6000fd5b5050505082600001516001600160a01b03166338d995a883602001516040518263ffffffff1660e01b815260040180828152602001915050600060405180830381600087803b15801561275b57600080fd5b505af115801561276f573d6000803e3d6000fd5b505084516080850151604080516364a197f360e01b81523360048201526024810192909252516001600160a01b0390921693506364a197f3925060448082019260009290919082900301818387803b1580156127ca57600080fd5b505af11580156127de573d6000803e3d6000fd5b5050505050505050505050505050565b600f5481565b6212750081565b60006111ea6128086135b3565b61345c565b670ddd4b8c6c7d70d881565b612821612992565b610d208160026145a0565b600080600061283a85613cfd565b9150915060006113cc8383876146b9565b600d5481565b600061285b612992565b6001600160a01b0383166000908152600e602052604081206001015461189c908463ffffffff612aff16565b6000610d756128946127fb565b836146e9565b6001600160a01b03166000908152600e602052604090205490565b6000601582815481106128c457fe5b6000918252602090912001546001600160a01b031692915050565b60135481565b600060016001600160a01b0383166000908152600e602052604090206003015460ff16600481111561291357fe5b1461292057506000610d9a565b506012546001600160a01b03821660009081526014602052604090205410919050565b6001600160a01b038116600090815260146020526040812060010154601354829061133e908363ffffffff612aff16565b60006111ea600c54613b18565b612989612992565b610d2081614748565b6004546001600160a01b031633146129db5760405162461bcd60e51b815260040180806020018281038252603b8152602001806158c6603b913960400191505060405180910390fd5b565b6129e6816128e5565b15612afa576129f481613492565b60006129ff82611310565b90506000612a0c83612943565b6001600160a01b0384166000908152600e6020526040902060010154909150612a3b908363ffffffff613b3f16565b6001600160a01b0384166000908152600e60205260409020600181019190915554612a6c908263ffffffff613b3f16565b6001600160a01b0384166000908152600e6020526040902055612a8e83613c92565b612a9a85858385614798565b6001600160a01b0383166000818152600e602090815260408083208054600182015460029092015483519182529381019190915280820192909252606082019290925290516000805160206158a68339815191529181900360800190a250505b505050565b6000612b4183836040518060400160405280601e81526020017f536166654d6174683a207375627472616374696f6e206f766572666c6f77000081525061489a565b9392505050565b601580546001808201835560008381527f55f448fdea98c4d29eb340757ef0a66cd03dbb9538908a6a81d96026b71ec47590920180546001600160a01b0319166001600160a01b03861617905591549091612ba39190612aff565b6001600160a01b03929092166000908152600e602052604090206003018054610100600160881b0319166101006001600160801b038516021790555090565b6001600160a01b0381166000908152600e60205260408120600101548190612c0990614931565b6001600160a01b0384166000908152600e60205260409020600201805490829055600f5491925090612c53908390612c47908463ffffffff612aff16565b9063ffffffff613b3f16565b600f81905560408051918252517f6bac5e0eb3c44eb03a60ab11ec3a2c051771616aecadbcfff2630aabae5203829181900360200190a15092915050565b600080612c9d83613db8565b6714d1120d7b160000119392505050565b612cb661562a565b612cbe61571a565b612cc661562a565b84825260006080830152612cd8611911565b60a0830152612ce5611e37565b60c0830152600060208301525b835182602001511015612ebe5783826020015181518110612d0f57fe5b6020908102919091018101516001600160a01b0316606084018190526000908152600e909152604090206003015460019060ff166004811115612d4e57fe5b14612d5857612eae565b612d6682606001518761282c565b60408301526080820151612e5057670f43fc2c04ee0000826040015110158015612d8f57508151155b15612d9957612eae565b6000612dae8360c001518460a00151896146b9565b9050612dcb8989856060015186604001518760000151868d61496d565b60808101518451919350612de5919063ffffffff612aff16565b8352608082015160a0840151612e009163ffffffff612aff16565b60a08085019190915282015160c0840151612e209163ffffffff612aff16565b60c0840152612e2f8483614ca0565b9350612e448360c001518460a0015189614db7565b15608084015250612eae565b81608001518015612e6c5750670f43fc2c04ee00008260400151105b15612eae57612e85888884606001518560000151614dd8565b60808101518351919250612e9f919063ffffffff612aff16565b8252612eab8382614ca0565b92505b6020820180516001019052612cf2565b505095945050505050565b612ed161562a565b612ed961571a565b612ee161562a565b848252600060208301525b835182602001511015612ebe5783826020015181518110612f0957fe5b60209081029190910101516001600160a01b031660608301819052612f2e908761282c565b60408301819052670f43fc2c04ee00001115612f8157612f58888884606001518560000151614dd8565b60808101518351919250612f72919063ffffffff612aff16565b8252612f7e8382614ca0565b92505b6020820180516001019052612eec565b81612f9b5761320c565b601654600090612fbd90612c4784670de0b6b3a764000063ffffffff61351816565b90506000612fe2601754612c47670de0b6b3a76400008761351890919063ffffffff16565b90506000612ffb600f548461357190919063ffffffff16565b90506000613014600f548461357190919063ffffffff16565b905061303b61302e600f548461351890919063ffffffff16565b859063ffffffff612aff16565b601655600f546130639061305690839063ffffffff61351816565b849063ffffffff612aff16565b601755601254613079908363ffffffff613b3f16565b60125560135461308f908263ffffffff613b3f16565b601381905560125460408051918252602082019290925281517f9f8bc8ab0daf5bceef75ecfd2085d1fcc6548c657ea970d9a23a60610d0737e3929181900390910190a1876001600160a01b03166338d995a8876040518263ffffffff1660e01b815260040180828152602001915050600060405180830381600087803b15801561311957600080fd5b505af115801561312d573d6000803e3d6000fd5b50505050866001600160a01b031663cfb9329a876040518263ffffffff1660e01b815260040180828152602001915050600060405180830381600087803b15801561317757600080fd5b505af115801561318b573d6000803e3d6000fd5b50505050876001600160a01b03166364a197f388876040518363ffffffff1660e01b815260040180836001600160a01b03166001600160a01b0316815260200182815260200192505050600060405180830381600087803b1580156131ef57600080fd5b505af1158015613203573d6000803e3d6000fd5b50505050505050505b50505050565b600f546010819055506000826001600160a01b03166314f6c3be6040518163ffffffff1660e01b815260040160206040518083038186803b15801561325657600080fd5b505afa15801561326a573d6000803e3d6000fd5b505050506040513d602081101561328057600080fd5b505160015460408051630a7b61df60e11b815290519293506000926001600160a01b03909216916314f6c3be91600480820192602092909190829003018186803b1580156132cd57600080fd5b505afa1580156132e1573d6000803e3d6000fd5b505050506040513d60208110156132f757600080fd5b5051905061330f81612c47848663ffffffff612aff16565b601181905560105460408051918252602082019290925281517f51bf4c63ec3cba9d03d43238abbdd979dd91bd16d9895c74ceea9118c7baaf60929181900390910190a150505050565b81156133d85760085460065460408051631062c15f60e11b81526001600160a01b039283166004820152868316602482015260448101869052905191909216916320c582be91606480830192600092919082900301818387803b1580156133bf57600080fd5b505af11580156133d3573d6000803e3d6000fd5b505050505b801561320c57836001600160a01b03166364a197f384836040518363ffffffff1660e01b815260040180836001600160a01b03166001600160a01b0316815260200182815260200192505050600060405180830381600087803b15801561343e57600080fd5b505af1158015613452573d6000803e3d6000fd5b5050505050505050565b6000610d75613484836103e8670de0b6b3a76400005b04600502613b3f90919063ffffffff16565b670de0b6b3a7640000614f47565b60016001600160a01b0382166000908152600e602052604090206003015460ff1660048111156134be57fe5b14610d205760405162461bcd60e51b815260040180806020018281038252602f815260200180615a17602f913960400191505060405180910390fd5b6000612b41670de0b6b3a76400006113c0858563ffffffff61351816565b60008261352757506000610d75565b8282028284828161353457fe5b0414612b415760405162461bcd60e51b81526004018080602001828103825260218152602001806158376021913960400191505060405180910390fd5b6000612b4183836040518060400160405280601a81526020017f536166654d6174683a206469766973696f6e206279207a65726f000000000000815250614f5d565b6000806135be614fc2565b905060006135d4670ddd4b8c6c7d70d883614fde565b9050611a0b670de0b6b3a76400006113c083600c5461351890919063ffffffff16565b600061360e600d5442612aff90919063ffffffff16565b9050603c8110610d205742600d81905560408051918252517f860f8d2f0c74dd487e89e2883e3b25b8159ce1e1b3433a291cba7b82c508f3bc9181900360200190a150565b61365b61562a565b61366361571a565b61366b61562a565b8482526000608083015261367d611911565b60a083015261368a611e37565b8260c001818152505086608001516001600160a01b0316634d6228316040518163ffffffff1660e01b815260040160206040518083038186803b1580156136d057600080fd5b505afa1580156136e4573d6000803e3d6000fd5b505050506040513d60208110156136fa57600080fd5b50516001600160a01b039081166060840152608088015160408051631e22314360e01b815290516000939290921691631e22314391600480820192602092909190829003018186803b15801561374f57600080fd5b505afa158015613763573d6000803e3d6000fd5b505050506040513d602081101561377957600080fd5b50516000602085015290505b8483602001511080156137ae5750806001600160a01b031683606001516001600160a01b031614155b156139db57600088608001516001600160a01b031663b72703ac85606001516040518263ffffffff1660e01b815260040180826001600160a01b03166001600160a01b0316815260200191505060206040518083038186803b15801561381357600080fd5b505afa158015613827573d6000803e3d6000fd5b505050506040513d602081101561383d57600080fd5b50516060850151909150613851908961282c565b6040850152608084015161394d57670f43fc2c04ee000084604001511015801561387a57508351155b1561388557506139db565b600061389a8560c001518660a001518b6146b9565b8a5160208c01516060880151604089015189519495506138bb94868f61496d565b608081015186519195506138d5919063ffffffff612aff16565b8552608084015160a08601516138f09163ffffffff612aff16565b8560a001818152505061391d8461010001516110f78660a001518860c00151612aff90919063ffffffff16565b60c086015261392c8685614ca0565b95506139418560c001518660a001518b614db7565b156080860152506139bd565b836080015180156139695750670f43fc2c04ee00008460400151105b156139b75761398a89600001518a6020015186606001518760000151614dd8565b608081015185519194506139a4919063ffffffff612aff16565b84526139b08584614ca0565b94506139bd565b506139db565b6001600160a01b031660608401526020830180516001019052613785565b505050949350505050565b6139ee61562a565b6139f661571a565b6139fe61562a565b600b54858352600060208401526001600160a01b03165b8483602001511015613b0c57806001600160a01b0316634d6228316040518163ffffffff1660e01b815260040160206040518083038186803b158015613a5a57600080fd5b505afa158015613a6e573d6000803e3d6000fd5b505050506040513d6020811015613a8457600080fd5b50516001600160a01b031660608401819052613aa0908861282c565b60408401819052670f43fc2c04ee00001115613af757613aca898985606001518660000151614dd8565b60808101518451919350613ae4919063ffffffff612aff16565b8352613af08483614ca0565b9350613afc565b613b0c565b6020830180516001019052613a15565b50505095945050505050565b6000610d75613b32836103e8670de0b6b3a7640000613472565b66b1a2bc2ec50000614f47565b600082820183811015612b41576040805162461bcd60e51b815260206004820152601b60248201527f536166654d6174683a206164646974696f6e206f766572666c6f770000000000604482015290519081900360640190fd5b6001600160a01b038116613bf4576040805162461bcd60e51b815260206004820152601e60248201527f4163636f756e742063616e6e6f74206265207a65726f20616464726573730000604482015290519081900360640190fd5b803b8061125e576040805162461bcd60e51b815260206004820181905260248201527f4163636f756e7420636f64652073697a652063616e6e6f74206265207a65726f604482015290519081900360640190fd5b6003546040516000916001600160a01b0316907f8be0079c531659141344cd1fd0a4f28419497f9722a3daafe3b4186f6b6457e0908390a3600380546001600160a01b0319169055565b601280546001600160a01b0383166000908152601460209081526040918290209283556013546001909301839055925481519081529283019190915280517fc437f324d85e369394148dd9d62f98f534b382e01ed3dd2eb98138fb6d3ab49a9281900390910190a150565b6000806000613d0b84611310565b90506000613d1885612943565b6001600160a01b0386166000908152600e602052604081206001015491925090613d48908463ffffffff613b3f16565b6001600160a01b0387166000908152600e602052604081205491925090613d75908463ffffffff613b3f16565b919550909350505050915091565b60008115613daf57613da8826113c08568056bc75e2d6310000063ffffffff61351816565b9050610d75565b50600019610d75565b600080613dc3611e37565b90506000613dcf611911565b9050613ddc8282866146b9565b949350505050565b6611c37937e080008110801590613e035750670de0b6b3a76400008111155b610d205760405162461bcd60e51b815260040180806020018281038252603081526020018061599b6030913960400191505060405180910390fd5b60095460408051631e425be160e11b815290516000926001600160a01b031691633c84b7c2916004808301926020929190829003018186803b158015613e8357600080fd5b505afa158015613e97573d6000803e3d6000fd5b505050506040513d6020811015613ead57600080fd5b50519050613ec4816212750063ffffffff613b3f16565b421015610d205760405162461bcd60e51b81526004018080602001828103825260408152602001806157f76040913960400191505060405180910390fd5b670f43fc2c04ee0000613f1482613db8565b1015610d205760405162461bcd60e51b815260040180806020018281038252602a8152602001806159cb602a913960400191505060405180910390fd5b60008111610d205760405162461bcd60e51b815260040180806020018281038252602e815260200180615937602e913960400191505060405180910390fd5b80836001600160a01b03166370a08231846040518263ffffffff1660e01b815260040180826001600160a01b03166001600160a01b0316815260200191505060206040518083038186803b158015613fe757600080fd5b505afa158015613ffb573d6000803e3d6000fd5b505050506040513d602081101561401157600080fd5b50511015612afa5760405162461bcd60e51b815260040180806020018281038252604e815260200180615858604e913960600191505060405180910390fd5b60006001600160a01b03831615806140e75750836001600160a01b0316635dbe47e8846040518263ffffffff1660e01b815260040180826001600160a01b03166001600160a01b0316815260200191505060206040518083038186803b1580156140b957600080fd5b505afa1580156140cd573d6000803e3d6000fd5b505050506040513d60208110156140e357600080fd5b5051155b806141025750670f43fc2c04ee0000614100848461282c565b105b1561410f57506000612b41565b6000846001600160a01b031663765e0159856040518263ffffffff1660e01b815260040180826001600160a01b03166001600160a01b0316815260200191505060206040518083038186803b15801561416757600080fd5b505afa15801561417b573d6000803e3d6000fd5b505050506040513d602081101561419157600080fd5b505190506001600160a01b0381161580611fb65750670f43fc2c04ee00006141b9828561282c565b1095945050505050565b6141cb6156f7565b6001600160a01b0387166000908152600e602052604090205461420890879061420390680ad78ebc5ac620000063ffffffff612aff16565b614f47565b8082526142299086906113c090670de0b6b3a764000063ffffffff61351816565b60208083019190915281516001600160a01b0389166000908152600e909252604082205461425c9163ffffffff612aff16565b6020808401516001600160a01b038b166000908152600e909252604082206001015492935090916142929163ffffffff612aff16565b9050680ad78ebc5ac620000082141561432b576142ae89614748565b6142b98960046145a0565b6142ce8a8a680ad78ebc5ac620000084615089565b886001600160a01b03166000805160206158a6833981519152600080600060036040518085815260200184815260200183815260200182600381111561431057fe5b60ff16815260200194505050505060405180910390a2614468565b60006143378284613d83565b905084811415806143585750686194049f30f72000006143568461523e565b105b1561436c575050600160408301525061446b565b60808b01516040805163015f109360e51b81526001600160a01b038d81166004830152602482018590528a81166044830152898116606483015291519190921691632be2126091608480830192600092919082900301818387803b1580156143d357600080fd5b505af11580156143e7573d6000803e3d6000fd5b5050506001600160a01b038b166000908152600e60205260409020848155600101839055506144158a612be2565b506001600160a01b038a166000818152600e6020908152604091829020600201548251878152918201869052818301526003606082015290516000805160206158a68339815191529181900360800190a2505b50505b979650505050505050565b6000806144816135b3565b90506000614499846113c0888863ffffffff61351816565b905060006144be6144b183600263ffffffff61357116565b849063ffffffff613b3f16565b90506144d281670de0b6b3a7640000614f47565b9050600081116144de57fe5b600c8190556040805182815290517fc454ee9b76c52f782a256af821b857ca6e125d1e3333bcede402fec2bed9600c9181900360200190a16113cc6135f7565b6000610d756128946111dd565b6000614549836113c086670de0b6b3a764000063ffffffff61351816565b90508181111561320c576040805162461bcd60e51b815260206004820152601d60248201527f4665652065786365656465642070726f7669646564206d6178696d756d000000604482015290519081900360640190fd5b60008160048111156145ae57fe5b141580156145c8575060018160048111156145c557fe5b14155b6145ce57fe5b6015546145da81615259565b6001600160a01b0383166000908152600e60205260409020600301805483919060ff1916600183600481111561460c57fe5b02179055506001600160a01b0383166000908152600e6020908152604080832060018082018590559084905560149092528220828155015561464e8382615312565b600b5460408051631484968760e11b81526001600160a01b038681166004830152915191909216916329092d0e91602480830192600092919082900301818387803b15801561469c57600080fd5b505af11580156146b0573d6000803e3d6000fd5b50505050505050565b600082156146e05760006146d7846113c0878663ffffffff61351816565b9150612b419050565b50600019612b41565b600080614708670de0b6b3a76400006113c0868663ffffffff61351816565b9050828110612b415760405162461bcd60e51b81526004018080602001828103825260368152602001806159656036913960400191505060405180910390fd5b6001600160a01b0381166000908152600e6020526040902060020154600f54614777908263ffffffff612aff16565b600f55506001600160a01b03166000908152600e6020526040812060020155565b826001600160a01b03166338d995a8836040518263ffffffff1660e01b815260040180828152602001915050600060405180830381600087803b1580156147de57600080fd5b505af11580156147f2573d6000803e3d6000fd5b50505050836001600160a01b031663cfb9329a836040518263ffffffff1660e01b815260040180828152602001915050600060405180830381600087803b15801561483c57600080fd5b505af1158015614850573d6000803e3d6000fd5b50505050826001600160a01b031663be41205f826040518263ffffffff1660e01b815260040180828152602001915050600060405180830381600087803b15801561343e57600080fd5b600081848411156149295760405162461bcd60e51b81526004018080602001828103825283818151815260200191508051906020019080838360005b838110156148ee5781810151838201526020016148d6565b50505050905090810190601f16801561491b5780820380516001836020036101000a031916815260200191505b509250505060405180910390fd5b505050900390565b60008060115460001415614946575081610d75565b60006010541161495257fe5b612b416011546113c06010548661351890919063ffffffff16565b61497561562a565b61497d615762565b60155460011061498d575061446b565b61499687611fe8565b604085015260208481019190915284018190529083526149b5906154b9565b60408301819052680ad78ebc5ac6200000606084015260208301516149df9163ffffffff612aff16565b8152670de0b6b3a76400008611614ae757614a04898983602001518460400151614798565b614a0d87614748565b60006080830181905260a0830152815160c0830152805160e0830152614a348760036145a0565b866001600160a01b031660008051602061578483398151915283600001518460200151600260405180848152602001838152602001826003811115614a7557fe5b60ff168152602001935050505060405180910390a2866001600160a01b03166000805160206158a68339815191526000806000600260405180858152602001848152602001838152602001826003811115614acc57fe5b60ff16815260200194505050505060405180910390a2614c94565b670de0b6b3a764000086118015614b055750670f43fc2c04ee000086105b15614b5557614b1e898983602001518460400151614798565b614b2787614748565b81518151614b369190876154c0565b60e086015260c085015260a08401526080830152614a348760036145a0565b670f43fc2c04ee00008610158015614b6c57508386105b8015614b79575081518510155b15614c8357614b92898983602001518460400151614798565b84614b9957fe5b614ba287614748565b614bb5826000015183602001518561552c565b9150614bc28760036145a0565b61010082015115614c425760075461010083015160408051633f10abab60e01b81526001600160a01b038b81166004830152602482019390935290519190921691633f10abab91604480830192600092919082900301818387803b158015614c2957600080fd5b505af1158015614c3d573d6000803e3d6000fd5b505050505b866001600160a01b031660008051602061578483398151915283600001518460a00151600260405180848152602001838152602001826003811115614a7557fe5b614c8b61562a565b915061446b9050565b50979650505050505050565b614ca861562a565b60408083015190840151614cc19163ffffffff613b3f16565b604082015260608083015190840151614cdf9163ffffffff613b3f16565b606082015281516020840151614cfa9163ffffffff613b3f16565b6020808301919091528201518351614d179163ffffffff613b3f16565b815260808083015190840151614d329163ffffffff613b3f16565b608082015260a08083015190840151614d509163ffffffff613b3f16565b60a082015260c08083015190840151614d6e9163ffffffff613b3f16565b60c082015260e08083015190840151614d8c9163ffffffff613b3f16565b60e08201526101008083015190840151614dab9163ffffffff613b3f16565b61010082015292915050565b600080614dc58585856146b9565b6714d1120d7b1600001195945050505050565b614de061562a565b614de8615762565b614df184611fe8565b60408501908152602085810192835286019290925291845290519051614e1b918891889190614798565b614e2484614748565b614e3182602001516154b9565b60408301819052680ad78ebc5ac620000060608401526020830151600091614e5f919063ffffffff612aff16565b9050614e70836000015182866154c0565b60e087015260c086015260a08501526080840152614e8f8560036145a0565b846001600160a01b031660008051602061578483398151915284600001518560200151600160405180848152602001838152602001826003811115614ed057fe5b60ff168152602001935050505060405180910390a2846001600160a01b03166000805160206158a68339815191526000806000600160405180858152602001848152602001838152602001826003811115614f2757fe5b60ff16815260200194505050505060405180910390a25050949350505050565b6000818310614f565781612b41565b5090919050565b60008183614fac5760405162461bcd60e51b81526020600482018181528351602484015283519092839260449091019190850190808383600083156148ee5781810151838201526020016148d6565b506000838581614fb857fe5b0495945050505050565b60006111ea603c6113c0600d5442612aff90919063ffffffff16565b6000631f540500821115614ff457631f54050091505b816150085750670de0b6b3a7640000610d75565b670de0b6b3a764000083835b600181111561507f57600281066150495761502f82836155c6565b915061504281600263ffffffff61357116565b905061507a565b61505382846155c6565b925061505f82836155c6565b915061507760026113c083600163ffffffff612aff16565b90505b615014565b6113cc82846155c6565b6040808501516006548251632770a7eb60e21b81526001600160a01b039182166004820152602481018690529251911691639dc29fac91604480830192600092919082900301818387803b1580156150e057600080fd5b505af11580156150f4573d6000803e3d6000fd5b5050505083600001516001600160a01b03166338d995a8836040518263ffffffff1660e01b815260040180828152602001915050600060405180830381600087803b15801561514257600080fd5b505af1158015615156573d6000803e3d6000fd5b505050508360a001516001600160a01b0316633f10abab84836040518363ffffffff1660e01b815260040180836001600160a01b03166001600160a01b0316815260200182815260200192505050600060405180830381600087803b1580156151be57600080fd5b505af11580156151d2573d6000803e3d6000fd5b5050505083600001516001600160a01b03166364a197f38560a00151836040518363ffffffff1660e01b815260040180836001600160a01b03166001600160a01b0316815260200182815260200192505050600060405180830381600087803b15801561343e57600080fd5b6000610d7582680ad78ebc5ac620000063ffffffff612aff16565b6001811180156152d75750600b546040805163de8fa43160e01b815290516001926001600160a01b03169163de8fa431916004808301926020929190829003018186803b1580156152a957600080fd5b505afa1580156152bd573d6000803e3d6000fd5b505050506040513d60208110156152d357600080fd5b5051115b610d205760405162461bcd60e51b815260040180806020018281038252602a8152602001806157cd602a913960400191505060405180910390fd5b6001600160a01b0382166000908152600e602052604081206003015460ff169081600481111561533e57fe5b141580156153585750600181600481111561535557fe5b14155b61535e57fe5b6001600160a01b0383166000908152600e602052604081206003015461010090046001600160801b0316908390615396826001612aff565b905080836001600160801b031611156153ab57fe5b6000601582815481106153ba57fe5b600091825260209091200154601580546001600160a01b03909216925082916001600160801b0387169081106153ec57fe5b600091825260208083209190910180546001600160a01b0319166001600160a01b03948516179055918316808252600e83526040918290206003018054610100600160881b0319166101006001600160801b038a169081029190911790915582519182529281019290925280517f02b04ae5f7be9ca7c103293a2aa15f3c339d15d6eda53b721fef7b0e609c831a9281900390910190a1601580548061548e57fe5b600082815260209020810160001990810180546001600160a01b031916905501905550505050505050565b60c8900490565b60008080808415615516576154d58786614f47565b93506154eb876113c0888763ffffffff61351816565b92506154fd878563ffffffff612aff16565b915061550f868463ffffffff612aff16565b9050615523565b5060009250829150859050845b93509350935093565b61553461562a565b83815260208101839052600061555c836113c087670f43fc2c04ee000063ffffffff61351816565b9050615567816154b9565b60408301819052680ad78ebc5ac620000060608401526080830186905261559590829063ffffffff612aff16565b60a08301526155aa848263ffffffff612aff16565b61010083015250600060c0820181905260e08201529392505050565b6000806155d9848463ffffffff61351816565b9050613ddc670de0b6b3a76400006113c0836706f05b59d3b20000613b3f565b6040518060a00160405280600081526020016000815260200160001515815260200160008152602001600081525090565b6040518061012001604052806000815260200160008152602001600081526020016000815260200160008152602001600081526020016000815260200160008152602001600081525090565b6040805160e081018252600080825260208201819052918101829052606081018290526080810182905260a0810182905260c081019190915290565b60405180610100016040528060008152602001600081526020016000815260200160008152602001600081526020016000815260200160008152602001600081525090565b604051806060016040528060008152602001600081526020016000151581525090565b6040518060e0016040528060008152602001600081526020016000815260200160006001600160a01b0316815260200160001515815260200160008152602001600081525090565b6040518060600160405280600081526020016000815260200160008152509056feea67486ed7ebe3eea8ab3390efd4a3c8aae48be5bea27df104a8af786c40843454726f76654d616e616765723a20556e61626c6520746f2072656465656d20616e7920616d6f756e7454726f76654d616e616765723a204f6e6c79206f6e652074726f766520696e207468652073797374656d54726f76654d616e616765723a20526564656d7074696f6e7320617265206e6f7420616c6c6f77656420647572696e6720626f6f747374726170207068617365536166654d6174683a206d756c7469706c69636174696f6e206f766572666c6f7754726f76654d616e616765723a2052657175657374656420726564656d7074696f6e20616d6f756e74206d757374206265203c3d20757365722773204c55534420746f6b656e2062616c616e6365c3770d654ed33aeea6bf11ac8ef05d02a6a04ed4686dd2f624d853bbec43cc8b54726f76654d616e616765723a2043616c6c6572206973206e6f742074686520426f72726f7765724f7065726174696f6e7320636f6e747261637454726f76654d616e616765723a2043616c6c646174612061646472657373206172726179206d757374206e6f7420626520656d70747954726f76654d616e616765723a20416d6f756e74206d7573742062652067726561746572207468616e207a65726f54726f76654d616e616765723a2046656520776f756c642065617420757020616c6c2072657475726e656420636f6c6c61746572616c4d6178206665652070657263656e74616765206d757374206265206265747765656e20302e352520616e64203130302554726f76654d616e616765723a2043616e6e6f742072656465656d207768656e20544352203c204d435254726f76654d616e616765723a206e6f7468696e6720746f206c697175696461746554726f76654d616e616765723a2054726f766520646f6573206e6f74206578697374206f7220697320636c6f736564a264697066735822122058923a9d6c4f36ad9b75dd502c5a29ad6a2ac2fc57cafd7ae36a3c66af64ff7f64736f6c634300060b0033608060405234801561001057600080fd5b50600380546001600160a01b031916339081179091556040516000907f8be0079c531659141344cd1fd0a4f28419497f9722a3daafe3b4186f6b6457e0908290a3613731806100606000396000f3fe6080604052600436106101a35760003560e01c8063761ab22c116100e2578063a20baee611610085578063a20baee61461041f578063a3a640171461052a578063a3f4df7e1461053f578063ae918754146105c9578063b83f91a2146105de578063c6a6cf20146105f3578063ea9638bf1461063b578063f92d343314610673576101a3565b8063761ab22c14610449578063794e57241461045e578063795d26c3146104735780637f7dde4a14610488578063860665b31461049d578063887105d3146104d75780638da5cb5b146104ec5780638f32d59b14610501576101a3565b80634ff814431161014a5780634ff81443146102de5780635530273c146103085780635733d58f1461034957806368647db11461035e5780636c37a4af1461038c5780636f0b0c1c1461040a57806372fe25aa1461041f578063741bef1a14610434576101a3565b806304491fa7146101a85780630e704d50146101eb5780631184e5f8146102005780631bf43555146102475780632e86bbd81461026e5780633cc74225146102835780633d83908a146102b45780634870dd9a146102c9575b600080fd5b3480156101b457600080fd5b506101e9600480360360608110156101cb57600080fd5b508035906001600160a01b0360208201358116916040013516610688565b005b3480156101f757600080fd5b506101e961069f565b34801561020c57600080fd5b506101e96004803603608081101561022357600080fd5b508035906020810135906001600160a01b0360408201358116916060013516610a9a565b34801561025357600080fd5b5061025c610ab1565b60408051918252519081900360200190f35b34801561027a57600080fd5b5061025c610abe565b34801561028f57600080fd5b50610298610acb565b604080516001600160a01b039092168252519081900360200190f35b3480156102c057600080fd5b50610298610ada565b3480156102d557600080fd5b5061025c610ae9565b3480156102ea57600080fd5b5061025c6004803603602081101561030157600080fd5b5035610aee565b34801561031457600080fd5b506101e96004803603606081101561032b57600080fd5b508035906001600160a01b0360208201358116916040013516610aff565b34801561035557600080fd5b5061025c610b10565b6101e96004803603604081101561037457600080fd5b506001600160a01b0381358116916020013516610b1c565b34801561039857600080fd5b506101e960048036036101408110156103b057600080fd5b506001600160a01b038135811691602081013582169160408201358116916060810135821691608082013581169160a081013582169160c082013581169160e0810135821691610100820135811691610120013516610b32565b34801561041657600080fd5b506101e9610ee3565b34801561042b57600080fd5b5061025c610f43565b34801561044057600080fd5b50610298610f4f565b34801561045557600080fd5b50610298610f5e565b34801561046a57600080fd5b5061025c610f6d565b34801561047f57600080fd5b5061025c610f79565b34801561049457600080fd5b5061029861107a565b6101e9600480360360808110156104b357600080fd5b508035906020810135906001600160a01b0360408201358116916060013516611089565b3480156104e357600080fd5b5061025c6116be565b3480156104f857600080fd5b5061029861177a565b34801561050d57600080fd5b50610516611789565b604080519115158252519081900360200190f35b34801561053657600080fd5b5061029861179a565b34801561054b57600080fd5b506105546117a9565b6040805160208082528351818301528351919283929083019185019080838360005b8381101561058e578181015183820152602001610576565b50505050905090810190601f1680156105bb5780820380516001836020036101000a031916815260200191505b509250505060405180910390f35b3480156105d557600080fd5b506102986117d7565b3480156105ea57600080fd5b506102986117e6565b6101e9600480360360c081101561060957600080fd5b5080359060208101359060408101359060608101351515906001600160a01b03608082013581169160a00135166117f5565b6101e96004803603606081101561065157600080fd5b506001600160a01b03813581169160208101358216916040909101351661180c565b34801561067f57600080fd5b5061025c611826565b61069a33600085600086866000611831565b505050565b600454600054600a546001600160a01b039283169291821691166106c38333611e2e565b60025460408051630fdb11cf60e01b815290516000926001600160a01b031691630fdb11cf91600480830192602092919082900301818787803b15801561070957600080fd5b505af115801561071d573d6000803e3d6000fd5b505050506040513d602081101561073357600080fd5b5051905061074081611ef3565b60408051630b07655760e01b815233600482015290516001600160a01b03861691630b07655791602480830192600092919082900301818387803b15801561078757600080fd5b505af115801561079b573d6000803e3d6000fd5b5050604080516309019aaf60e31b81523360048201529051600093506001600160a01b038816925063480cd57891602480820192602092909190829003018186803b1580156107e957600080fd5b505afa1580156107fd573d6000803e3d6000fd5b505050506040513d602081101561081357600080fd5b50516040805163d66a255360e01b815233600482015290519192506000916001600160a01b0388169163d66a2553916024808301926020929190829003018186803b15801561086157600080fd5b505afa158015610875573d6000803e3d6000fd5b505050506040513d602081101561088b57600080fd5b505190506108b284336108ad84680ad78ebc5ac620000063ffffffff611f3b16565b611f84565b60006108c383600084600088612044565b90506108ce816120cf565b60408051631fc5750960e31b815233600482015290516001600160a01b0389169163fe2ba84891602480830192600092919082900301818387803b15801561091557600080fd5b505af1158015610929573d6000803e3d6000fd5b5050604080516365e89c5760e11b815233600482015290516001600160a01b038b16935063cbd138ae9250602480830192600092919082900301818387803b15801561097457600080fd5b505af1158015610988573d6000803e3d6000fd5b50505050336001600160a01b03166000805160206134cd83398151915260008060006001604051808581526020018481526020018381526020018260028111156109ce57fe5b60ff16815260200194505050505060405180910390a2610a08868633610a0386680ad78ebc5ac620000063ffffffff611f3b16565b612116565b600654610a2b90879087906001600160a01b0316680ad78ebc5ac6200000612116565b604080516364a197f360e01b81523360048201526024810185905290516001600160a01b038816916364a197f391604480830192600092919082900301818387803b158015610a7957600080fd5b505af1158015610a8d573d6000803e3d6000fd5b5050505050505050505050565b610aab33600085600186868a611831565b50505050565b686194049f30f720000081565b680ad78ebc5ac620000081565b6001546001600160a01b031681565b6004546001600160a01b031681565b60c881565b6000610af9826121f2565b92915050565b61069a338460008086866000611831565b6714d1120d7b16000081565b610b2e33600080600086866000611831565b5050565b610b3a611789565b610b8b576040805162461bcd60e51b815260206004820181905260248201527f4f776e61626c653a2063616c6c6572206973206e6f7420746865206f776e6572604482015290519081900360640190fd5b610b948a61220d565b610b9d8961220d565b610ba68861220d565b610baf8761220d565b610bb88661220d565b610bc18561220d565b610bca8461220d565b610bd38361220d565b610bdc8261220d565b610be58161220d565b600480546001600160a01b03199081166001600160a01b038d81169182179093556000805483168d85161790556001805483168c85161790556005805483168b85161790556006805483168a8516179055600780548316898516179055600280548316888516179055600b80548316878516179055600a80548316868516179055600980548316938516938417905560088054909216909217905560408051918252517f143219c9e69b09e07e095fcc889b43d8f46ca892bba65f08dc3a0050869a5678916020908290030190a1604080516001600160a01b038b16815290517f78f058b189175430c48dc02699e3a0031ea4ff781536dc2fab847de4babdd8829181900360200190a1604080516001600160a01b038a16815290517f5ee0cae2f063ed938bb55046f6a932fb6ae792bf43624806bb90abe68a50be9b9181900360200190a1604080516001600160a01b038916815290517f82966d27eea39b038ee0fa30cd16532bb24f6e65d31cb58fb227aa5766cdcc7f9181900360200190a1604080516001600160a01b038816815290517fcfb07d791fcafc032b35837b50eb84b74df518cf4cc287e8084f47630fa70fa09181900360200190a1604080516001600160a01b038716815290517fe67f36a6e961157d6eff83b91f3af5a62131ceb6f04954ef74f51c1c05e7f88d9181900360200190a1604080516001600160a01b038616815290517f8c537274438aa850a330284665d81a85dd38267d09e4050d416bfc94142db2649181900360200190a1604080516001600160a01b038516815290517f65f4cf077bc01e4742eb5ad98326f6e95b63548ea24b17f8d5e823111fe788009181900360200190a1604080516001600160a01b038416815290517f227eec0ec317af6ab1a9587ffa1c84332522eb4c583a908f89babc05f8f339bd9181900360200190a1604080516001600160a01b038316815290517f756ebc192164c295bba134b5aacd72cc7aff8098a670d1f0a5f6b3a0b4ce67079181900360200190a1610ed76122bc565b50505050505050505050565b6007546040805163b32beb5b60e01b815233600482015290516001600160a01b039092169163b32beb5b9160248082019260009290919082900301818387803b158015610f2f57600080fd5b505af1158015610aab573d6000803e3d6000fd5b670de0b6b3a764000081565b6002546001600160a01b031681565b6009546001600160a01b031681565b670f43fc2c04ee000081565b6000805460408051632f5a97e560e11b8152905183926001600160a01b031691635eb52fca916004808301926020929190829003018186803b158015610fbe57600080fd5b505afa158015610fd2573d6000803e3d6000fd5b505050506040513d6020811015610fe857600080fd5b505160015460408051632f5a97e560e11b815290519293506000926001600160a01b0390921691635eb52fca91600480820192602092909190829003018186803b15801561103557600080fd5b505afa158015611049573d6000803e3d6000fd5b505050506040513d602081101561105f57600080fd5b50519050611073828263ffffffff61230616565b9250505090565b6000546001600160a01b031681565b611091613220565b50604080516060810182526004546001600160a01b03908116825260005481166020830152600a5416918101919091526110c9613240565b600260009054906101000a90046001600160a01b03166001600160a01b0316630fdb11cf6040518163ffffffff1660e01b8152600401602060405180830381600087803b15801561111957600080fd5b505af115801561112d573d6000803e3d6000fd5b505050506040513d602081101561114357600080fd5b505180825260009061115490612360565b9050611160878261237d565b825161116c9033612429565b60408201869052806111ad5761118c83600001518460400151888a612505565b6020830181905260408301516111a79163ffffffff61230616565b60408301525b6111ba82604001516126b5565b6111c782604001516121f2565b606083018190526111d457fe5b6111e734836060015184600001516126fd565b608083015260608201516111fc90349061273b565b60a08301528015611219576112148260800151612770565b61124c565b61122682608001516127b7565b600061123f346001856060015160018760000151612044565b905061124a816120cf565b505b825160408051635d6b480f60e01b81523360048201526001602482015290516001600160a01b0390921691635d6b480f9160448082019260009290919082900301818387803b15801561129e57600080fd5b505af11580156112b2573d6000803e3d6000fd5b50508451604080516372423c1760e01b815233600482015234602482015290516001600160a01b0390921693506372423c1792506044808201926020929091908290030181600087803b15801561130857600080fd5b505af115801561131c573d6000803e3d6000fd5b505050506040513d602081101561133257600080fd5b50508251606083015160408051639976cf4560e01b81523360048201526024810192909252516001600160a01b0390921691639976cf45916044808201926020929091908290030181600087803b15801561138c57600080fd5b505af11580156113a0573d6000803e3d6000fd5b505050506040513d60208110156113b657600080fd5b50508251604080516382fe3eb960e01b815233600482015290516001600160a01b03909216916382fe3eb99160248082019260009290919082900301818387803b15801561140357600080fd5b505af1158015611417573d6000803e3d6000fd5b5050845160408051630c7940bd60e11b815233600482015290516001600160a01b0390921693506318f2817a92506024808201926020929091908290030181600087803b15801561146757600080fd5b505af115801561147b573d6000803e3d6000fd5b505050506040513d602081101561149157600080fd5b505160c0830152600b5460a0830151604080516346f7cf8760e01b815233600482015260248101929092526001600160a01b038881166044840152878116606484015290519216916346f7cf879160848082019260009290919082900301818387803b15801561150057600080fd5b505af1158015611514573d6000803e3d6000fd5b50508451604080516315d549f160e01b815233600482015290516001600160a01b0390921693506315d549f192506024808201926020929091908290030181600087803b15801561156457600080fd5b505af1158015611578573d6000803e3d6000fd5b505050506040513d602081101561158e57600080fd5b505160e08301819052604080519182525133917f59cfd0cd754bc5748b6770e94a4ffa5f678d885cb899dcfadc5734edb97c67ab919081900360200190a26115da8360200151346127fe565b6115f3836020015184604001513389866040015161288e565b6020830151604084015160065461161f9291906001600160a01b0316680ad78ebc5ac62000008061288e565b336001600160a01b03166000805160206134cd8339815191528360600151348560c0015160006040518085815260200184815260200183815260200182600281111561166757fe5b60ff16815260200194505050505060405180910390a2602080830151604080519182525133927fa55c5f48fd29482ad55f4b59bf070cd1ac1a7132a31f7a136ebe8877ae37e1ff928290030190a250505050505050565b6000805460408051630a7b61df60e11b8152905183926001600160a01b0316916314f6c3be916004808301926020929190829003018186803b15801561170357600080fd5b505afa158015611717573d6000803e3d6000fd5b505050506040513d602081101561172d57600080fd5b505160015460408051630a7b61df60e11b815290519293506000926001600160a01b03909216916314f6c3be91600480820192602092909190829003018186803b15801561103557600080fd5b6003546001600160a01b031690565b6003546001600160a01b0316331490565b6008546001600160a01b031681565b60405180604001604052806012815260200171426f72726f7765724f7065726174696f6e7360701b81525081565b600b546001600160a01b031681565b600a546001600160a01b031681565b6118043386868686868c611831565b505050505050565b61181461296b565b61069a83600080600086866000611831565b6611c37937e0800081565b611839613220565b50604080516060810182526004546001600160a01b03908116825260005481166020830152600a541691810191909152611871613285565b600260009054906101000a90046001600160a01b03166001600160a01b0316630fdb11cf6040518163ffffffff1660e01b8152600401602060405180830381600087803b1580156118c157600080fd5b505af11580156118d5573d6000803e3d6000fd5b505050506040513d60208110156118eb57600080fd5b50518082526000906118fc90612360565b905086156119175761190e848261237d565b611917886129b6565b611920896129f5565b61192a8989612a3b565b8251611936908b611e2e565b336001600160a01b038b16148061196c57506005546001600160a01b0316331480156119625750600034115b801561196c575087155b61197257fe5b82600001516001600160a01b0316630b0765578b6040518263ffffffff1660e01b815260040180826001600160a01b03166001600160a01b03168152602001915050600060405180830381600087803b1580156119ce57600080fd5b505af11580156119e2573d6000803e3d6000fd5b505050506119f0348a612a8d565b15156060840152602083015260408201889052868015611a0e575080155b15611a4957611a27836000015184604001518a87612505565b61012083018190526040830151611a439163ffffffff61230616565b60408301525b82600001516001600160a01b031663d66a25538b6040518263ffffffff1660e01b815260040180826001600160a01b03166001600160a01b0316815260200191505060206040518083038186803b158015611aa357600080fd5b505afa158015611ab7573d6000803e3d6000fd5b505050506040513d6020811015611acd57600080fd5b505160808301528251604080516309019aaf60e31b81526001600160a01b038d811660048301529151919092169163480cd578916024808301926020929190829003018186803b158015611b2057600080fd5b505afa158015611b34573d6000803e3d6000fd5b505050506040513d6020811015611b4a57600080fd5b505160a0830181905260808301518351611b659291906126fd565b8260c0018181525050611b958260a0015183608001518460200151856060015186604001518c8860000151612aac565b60e083015260a0820151891115611ba857fe5b611bb4818a8985612adf565b86158015611bc25750600088115b15611c1557611bf0611beb8360400151611bdf8560800151612b53565b9063ffffffff611f3b16565b6126b5565b611c0282608001518360400151612b6e565b611c1583604001518b8460400151611f84565b611c3383600001518b8460200151856060015186604001518c612bc5565b610140840152610160830152825160408051630c7940bd60e11b81526001600160a01b038d81166004830152915191909216916318f2817a9160248083019260209291908290030181600087803b158015611c8d57600080fd5b505af1158015611ca1573d6000803e3d6000fd5b505050506040513d6020811015611cb757600080fd5b505161018083015260a08201516080830151602084015160608501516040860151600094611ceb949093909290918d612e25565b600b546040805163015f109360e51b81526001600160a01b038f81166004830152602482018590528b811660448301528a811660648301529151939450911691632be212609160848082019260009290919082900301818387803b158015611d5257600080fd5b505af1158015611d66573d6000803e3d6000fd5b505050508a6001600160a01b03166000805160206134cd833981519152846101400151856101600151866101800151600260405180858152602001848152602001838152602001826002811115611db957fe5b60ff16815260200194505050505060405180910390a2610120830151604080519182525133917fa55c5f48fd29482ad55f4b59bf070cd1ac1a7132a31f7a136ebe8877ae37e1ff919081900360200190a2610a8d8460200151856040015133866020015187606001518e8e8a60400151612e56565b6000826001600160a01b03166321e37801836040518263ffffffff1660e01b815260040180826001600160a01b03166001600160a01b0316815260200191505060206040518083038186803b158015611e8657600080fd5b505afa158015611e9a573d6000803e3d6000fd5b505050506040513d6020811015611eb057600080fd5b505190506001811461069a5760405162461bcd60e51b815260040180806020018281038252602e81526020018061349f602e913960400191505060405180910390fd5b611efc81612360565b15611f385760405162461bcd60e51b815260040180806020018281038252603981526020018061334d6039913960400191505060405180910390fd5b50565b6000611f7d83836040518060400160405280601e81526020017f536166654d6174683a207375627472616374696f6e206f766572666c6f770000815250612f11565b9392505050565b80836001600160a01b03166370a08231846040518263ffffffff1660e01b815260040180826001600160a01b03166001600160a01b0316815260200191505060206040518083038186803b158015611fdb57600080fd5b505afa158015611fef573d6000803e3d6000fd5b505050506040513d602081101561200557600080fd5b5051101561069a5760405162461bcd60e51b815260040180806020018281038252603d81526020018061352b603d913960400191505060405180910390fd5b60008061204f6116be565b9050600061205b610f79565b90508661207757612072828963ffffffff611f3b16565b612087565b612087828963ffffffff61230616565b9150846120a35761209e818763ffffffff611f3b16565b6120b3565b6120b3818763ffffffff61230616565b905060006120c28383876126fd565b9998505050505050505050565b6714d1120d7b160000811015611f385760405162461bcd60e51b81526004018080602001828103825260498152602001806134566049913960600191505060405180910390fd5b836001600160a01b03166338d995a8826040518263ffffffff1660e01b815260040180828152602001915050600060405180830381600087803b15801561215c57600080fd5b505af1158015612170573d6000803e3d6000fd5b50505050826001600160a01b0316639dc29fac83836040518363ffffffff1660e01b815260040180836001600160a01b03166001600160a01b0316815260200182815260200192505050600060405180830381600087803b1580156121d457600080fd5b505af11580156121e8573d6000803e3d6000fd5b5050505050505050565b6000610af982680ad78ebc5ac620000063ffffffff61230616565b6001600160a01b038116612268576040805162461bcd60e51b815260206004820152601e60248201527f4163636f756e742063616e6e6f74206265207a65726f20616464726573730000604482015290519081900360640190fd5b803b80610b2e576040805162461bcd60e51b815260206004820181905260248201527f4163636f756e7420636f64652073697a652063616e6e6f74206265207a65726f604482015290519081900360640190fd5b6003546040516000916001600160a01b0316907f8be0079c531659141344cd1fd0a4f28419497f9722a3daafe3b4186f6b6457e0908390a3600380546001600160a01b0319169055565b600082820183811015611f7d576040805162461bcd60e51b815260206004820152601b60248201527f536166654d6174683a206164646974696f6e206f766572666c6f770000000000604482015290519081900360640190fd5b60008061236c83612fa8565b6714d1120d7b160000119392505050565b80156123cf57670de0b6b3a76400008211156123ca5760405162461bcd60e51b81526004018080602001828103825260328152602001806133bd6032913960400191505060405180910390fd5b610b2e565b6611c37937e0800082108015906123ee5750670de0b6b3a76400008211155b610b2e5760405162461bcd60e51b81526004018080602001828103825260308152602001806136576030913960400191505060405180910390fd5b6000826001600160a01b03166321e37801836040518263ffffffff1660e01b815260040180826001600160a01b03166001600160a01b0316815260200191505060206040518083038186803b15801561248157600080fd5b505afa158015612495573d6000803e3d6000fd5b505050506040513d60208110156124ab57600080fd5b50519050600181141561069a576040805162461bcd60e51b815260206004820152601c60248201527f426f72726f7765724f70733a2054726f76652069732061637469766500000000604482015290519081900360640190fd5b6000846001600160a01b0316635dba4c4a6040518163ffffffff1660e01b8152600401600060405180830381600087803b15801561254257600080fd5b505af1158015612556573d6000803e3d6000fd5b505050506000856001600160a01b031663631203b0856040518263ffffffff1660e01b81526004018082815260200191505060206040518083038186803b1580156125a057600080fd5b505afa1580156125b4573d6000803e3d6000fd5b505050506040513d60208110156125ca57600080fd5b505190506125d9818585612fd4565b60085460408051634677ffb360e01b81526004810184905290516001600160a01b0390921691634677ffb39160248082019260009290919082900301818387803b15801561262657600080fd5b505af115801561263a573d6000803e3d6000fd5b5050600954604080516340c10f1960e01b81526001600160a01b03928316600482015260248101869052905191891693506340c10f19925060448082019260009290919082900301818387803b15801561269357600080fd5b505af11580156126a7573d6000803e3d6000fd5b509298975050505050505050565b686194049f30f7200000811015611f385760405162461bcd60e51b815260040180806020018281038252603a8152602001806135b1603a913960400191505060405180910390fd5b600082156127305760006127278461271b878663ffffffff61304916565b9063ffffffff6130a216565b9150611f7d9050565b506000199392505050565b60008115612767576127608261271b8568056bc75e2d6310000063ffffffff61304916565b9050610af9565b50600019610af9565b6714d1120d7b160000811015611f385760405162461bcd60e51b81526004018080602001828103825260378152602001806133866037913960400191505060405180910390fd5b670f43fc2c04ee0000811015611f385760405162461bcd60e51b81526004018080602001828103825260498152602001806135686049913960600191505060405180910390fd5b6040516000906001600160a01b0384169083908381818185875af1925050503d8060008114612849576040519150601f19603f3d011682016040523d82523d6000602084013e61284e565b606091505b505090508061069a5760405162461bcd60e51b815260040180806020018281038252602d8152602001806132f0602d913960400191505060405180910390fd5b846001600160a01b031663cfb9329a826040518263ffffffff1660e01b815260040180828152602001915050600060405180830381600087803b1580156128d457600080fd5b505af11580156128e8573d6000803e3d6000fd5b50505050836001600160a01b03166340c10f1984846040518363ffffffff1660e01b815260040180836001600160a01b03166001600160a01b0316815260200182815260200192505050600060405180830381600087803b15801561294c57600080fd5b505af1158015612960573d6000803e3d6000fd5b505050505050505050565b6005546001600160a01b031633146129b45760405162461bcd60e51b815260040180806020018281038252602981526020018061362e6029913960400191505060405180910390fd5b565b60008111611f385760405162461bcd60e51b81526004018080602001828103825260378152602001806136876037913960400191505060405180910390fd5b341580612a00575080155b611f385760405162461bcd60e51b815260040180806020018281038252603081526020018061331d6030913960400191505060405180910390fd5b34151580612a4857508115155b80612a5257508015155b610b2e5760405162461bcd60e51b81526004018080602001828103825260468152602001806133ef6046913960600191505060405180910390fd5b6000808315612aa157508290506001612aa5565b8291505b9250929050565b6000806000612abf8a8a8a8a8a8a6130e4565b915091506000612ad08383876126fd565b9b9a5050505050505050505050565b8315612b1857612aee8361313f565b8115612b1357612b018160e00151612770565b612b138160e001518260c0015161317c565b610aab565b612b258160e001516127b7565b612b42816020015182606001518360400151858560000151612044565b6101008201819052610aab906120cf565b6000610af982680ad78ebc5ac620000063ffffffff611f3b16565b612b8782680ad78ebc5ac620000063ffffffff611f3b16565b811115610b2e5760405162461bcd60e51b81526004018080602001828103825260438152602001806135eb6043913960600191505060405180910390fd5b600080600085612c6057886001600160a01b031663d3d6f84389896040518363ffffffff1660e01b815260040180836001600160a01b03166001600160a01b0316815260200182815260200192505050602060405180830381600087803b158015612c2f57600080fd5b505af1158015612c43573d6000803e3d6000fd5b505050506040513d6020811015612c5957600080fd5b5051612ced565b886001600160a01b03166372423c1789896040518363ffffffff1660e01b815260040180836001600160a01b03166001600160a01b0316815260200182815260200192505050602060405180830381600087803b158015612cc057600080fd5b505af1158015612cd4573d6000803e3d6000fd5b505050506040513d6020811015612cea57600080fd5b50515b9050600084612d8757896001600160a01b03166312610e928a886040518363ffffffff1660e01b815260040180836001600160a01b03166001600160a01b0316815260200182815260200192505050602060405180830381600087803b158015612d5657600080fd5b505af1158015612d6a573d6000803e3d6000fd5b505050506040513d6020811015612d8057600080fd5b5051612e14565b896001600160a01b0316639976cf458a886040518363ffffffff1660e01b815260040180836001600160a01b03166001600160a01b0316815260200182815260200192505050602060405180830381600087803b158015612de757600080fd5b505af1158015612dfb573d6000803e3d6000fd5b505050506040513d6020811015612e1157600080fd5b50515b919a91995090975050505050505050565b6000806000612e388989898989896130e4565b915091506000612e48838361273b565b9a9950505050505050505050565b8115612e6e57612e69888888868561288e565b612e7a565b612e7a88888886612116565b8315612e8f57612e8a88866127fe565b6121e8565b876001600160a01b03166364a197f387876040518363ffffffff1660e01b815260040180836001600160a01b03166001600160a01b0316815260200182815260200192505050600060405180830381600087803b158015612eef57600080fd5b505af1158015612f03573d6000803e3d6000fd5b505050505050505050505050565b60008184841115612fa05760405162461bcd60e51b81526004018080602001828103825283818151815260200191508051906020019080838360005b83811015612f65578181015183820152602001612f4d565b50505050905090810190601f168015612f925780820380516001836020036101000a031916815260200191505b509250505060405180910390fd5b505050900390565b600080612fb36116be565b90506000612fbf610f79565b9050612fcc8282866126fd565b949350505050565b6000612ff28361271b86670de0b6b3a764000063ffffffff61304916565b905081811115610aab576040805162461bcd60e51b815260206004820152601d60248201527f4665652065786365656465642070726f7669646564206d6178696d756d000000604482015290519081900360640190fd5b60008261305857506000610af9565b8282028284828161306557fe5b0414611f7d5760405162461bcd60e51b81526004018080602001828103825260218152602001806134356021913960400191505060405180910390fd5b6000611f7d83836040518060400160405280601a81526020017f536166654d6174683a206469766973696f6e206279207a65726f0000000000008152506131bb565b600080878786613103576130fe8a8963ffffffff611f3b16565b613113565b6131138a8963ffffffff61230616565b91508461312f5761312a898763ffffffff611f3b16565b612e14565b612e14898763ffffffff61230616565b8015611f385760405162461bcd60e51b815260040180806020018281038252603e8152602001806134ed603e913960400191505060405180910390fd5b80821015610b2e5760405162461bcd60e51b815260040180806020018281038252603e8152602001806136be603e913960400191505060405180910390fd5b6000818361320a5760405162461bcd60e51b8152602060048201818152835160248401528351909283926044909101919085019080838360008315612f65578181015183820152602001612f4d565b50600083858161321657fe5b0495945050505050565b604080516060810182526000808252602082018190529181019190915290565b60405180610100016040528060008152602001600081526020016000815260200160008152602001600081526020016000815260200160008152602001600081525090565b604051806101a00160405280600081526020016000815260200160008152602001600015158152602001600081526020016000815260200160008152602001600081526020016000815260200160008152602001600081526020016000815260200160008152509056fe426f72726f7765724f70733a2053656e64696e672045544820746f20416374697665506f6f6c206661696c6564426f72726f7765724f7065726174696f6e733a2043616e6e6f7420776974686472617720616e642061646420636f6c6c426f72726f7765724f70733a204f7065726174696f6e206e6f74207065726d697474656420647572696e67205265636f76657279204d6f6465426f72726f7765724f70733a204f7065726174696f6e206d757374206c656176652074726f7665207769746820494352203e3d204343524d6178206665652070657263656e74616765206d757374206c657373207468616e206f7220657175616c20746f2031303025426f72726f7765724f70733a205468657265206d75737420626520656974686572206120636f6c6c61746572616c206368616e6765206f7220612064656274206368616e6765536166654d6174683a206d756c7469706c69636174696f6e206f766572666c6f77426f72726f7765724f70733a20416e206f7065726174696f6e207468617420776f756c6420726573756c7420696e20544352203c20434352206973206e6f74207065726d6974746564426f72726f7765724f70733a2054726f766520646f6573206e6f74206578697374206f7220697320636c6f736564c3770d654ed33aeea6bf11ac8ef05d02a6a04ed4686dd2f624d853bbec43cc8b426f72726f7765724f70733a20436f6c6c61746572616c207769746864726177616c206e6f74207065726d6974746564205265636f76657279204d6f6465426f72726f7765724f70733a2043616c6c657220646f65736e74206861766520656e6f756768204c55534420746f206d616b652072657061796d656e74426f72726f7765724f70733a20416e206f7065726174696f6e207468617420776f756c6420726573756c7420696e20494352203c204d4352206973206e6f74207065726d6974746564426f72726f7765724f70733a2054726f76652773206e65742064656274206d7573742062652067726561746572207468616e206d696e696d756d426f72726f7765724f70733a20416d6f756e7420726570616964206d757374206e6f74206265206c6172676572207468616e207468652054726f766527732064656274426f72726f7765724f70733a2043616c6c6572206973206e6f742053746162696c69747920506f6f6c4d6178206665652070657263656e74616765206d757374206265206265747765656e20302e352520616e642031303025426f72726f7765724f70733a204465627420696e637265617365207265717569726573206e6f6e2d7a65726f20646562744368616e6765426f72726f7765724f70733a2043616e6e6f7420646563726561736520796f75722054726f766527732049435220696e205265636f76657279204d6f6465a2646970667358221220ff6384a65471624c35cad7a77b32a2857e00b30cafdc8b20094aefc81c0eb04964736f6c634300060b0033608060405234801561001057600080fd5b50600080546001600160a01b0319163390811782556040519091907f8be0079c531659141344cd1fd0a4f28419497f9722a3daafe3b4186f6b6457e0908290a3610bbd8061005f6000396000f3fe6080604052600436106100b65760003560e01c806364a197f31161006f57806364a197f31461020d5780638da5cb5b146102465780638f32d59b1461025b578063a3f4df7e14610284578063aac1846f1461030e578063b7f8cf9b14610323578063cfb9329a146103385761010f565b80630b622ab21461011457806314f6c3be1461014557806338d995a81461016c5780634a945f8d146101985780635a4d28bb146101e35780635eb52fca146101f85761010f565b3661010f576100c3610362565b6005546100d6903463ffffffff6103c216565b600581905560408051918252517fca232b5abb988c540b959ff6c3bfae3e97fff964fd098c508f9613c0a6bf1a809181900360200190a1005b600080fd5b34801561012057600080fd5b50610129610423565b604080516001600160a01b039092168252519081900360200190f35b34801561015157600080fd5b5061015a610432565b60408051918252519081900360200190f35b34801561017857600080fd5b506101966004803603602081101561018f57600080fd5b5035610438565b005b3480156101a457600080fd5b50610196600480360360808110156101bb57600080fd5b506001600160a01b03813581169160208101358216916040820135811691606001351661048d565b3480156101ef57600080fd5b50610129610646565b34801561020457600080fd5b5061015a610655565b34801561021957600080fd5b506101966004803603604081101561023057600080fd5b506001600160a01b03813516906020013561065b565b34801561025257600080fd5b5061012961079c565b34801561026757600080fd5b506102706107ab565b604080519115158252519081900360200190f35b34801561029057600080fd5b506102996107bc565b6040805160208082528351818301528351919283929083019185019080838360005b838110156102d35781810151838201526020016102bb565b50505050905090810190601f1680156103005780820380516001836020036101000a031916815260200191505b509250505060405180910390f35b34801561031a57600080fd5b506101296107e2565b34801561032f57600080fd5b506101296107f1565b34801561034457600080fd5b506101966004803603602081101561035b57600080fd5b5035610800565b6001546001600160a01b031633148061038557506004546001600160a01b031633145b6103c05760405162461bcd60e51b8152600401808060200182810382526031815260200180610b576031913960400191505060405180910390fd5b565b60008282018381101561041c576040805162461bcd60e51b815260206004820152601b60248201527f536166654d6174683a206164646974696f6e206f766572666c6f770000000000604482015290519081900360640190fd5b9392505050565b6003546001600160a01b031681565b60055490565b61044061081b565b600654610453908263ffffffff61088e16565b600681905560408051918252517f0d4c964e4ceac5d740869d39789a7b91888a787b9c33e9365b1a658a21ffb6969181900360200190a150565b6104956107ab565b6104e6576040805162461bcd60e51b815260206004820181905260248201527f4f776e61626c653a2063616c6c6572206973206e6f7420746865206f776e6572604482015290519081900360640190fd5b6104ef846108d0565b6104f8836108d0565b610501826108d0565b61050a816108d0565b600180546001600160a01b038087166001600160a01b031992831681179093556002805487831690841617905560038054868316908416179055600480549185169190921617905560408051918252517f3ca631ffcd2a9b5d9ae18543fc82f58eb4ca33af9e6ab01b7a8e95331e6ed9859181900360200190a1604080516001600160a01b038516815290517f143219c9e69b09e07e095fcc889b43d8f46ca892bba65f08dc3a0050869a56789181900360200190a1604080516001600160a01b038416815290517f82966d27eea39b038ee0fa30cd16532bb24f6e65d31cb58fb227aa5766cdcc7f9181900360200190a1604080516001600160a01b038316815290517f5ee0cae2f063ed938bb55046f6a932fb6ae792bf43624806bb90abe68a50be9b9181900360200190a1610640610983565b50505050565b6002546001600160a01b031681565b60065490565b61066361081b565b600554610676908263ffffffff61088e16565b600581905560408051918252517fca232b5abb988c540b959ff6c3bfae3e97fff964fd098c508f9613c0a6bf1a809181900360200190a1604080516001600160a01b03841681526020810183905281517f6109e2559dfa766aaec7118351d48a523f0a4157f49c8d68749c8ac41318ad12929181900390910190a16040516000906001600160a01b0384169083908381818185875af1925050503d806000811461073c576040519150601f19603f3d011682016040523d82523d6000602084013e610741565b606091505b5050905080610797576040805162461bcd60e51b815260206004820152601e60248201527f416374697665506f6f6c3a2073656e64696e6720455448206661696c65640000604482015290519081900360640190fd5b505050565b6000546001600160a01b031690565b6000546001600160a01b0316331490565b6040518060400160405280600a8152602001691058dd1a5d99541bdbdb60b21b81525081565b6004546001600160a01b031681565b6001546001600160a01b031681565b6108086109cd565b600654610453908263ffffffff6103c216565b6001546001600160a01b031633148061083e57506002546001600160a01b031633145b8061085357506003546001600160a01b031633145b6103c05760405162461bcd60e51b8152600401808060200182810382526053815260200180610b046053913960600191505060405180910390fd5b600061041c83836040518060400160405280601e81526020017f536166654d6174683a207375627472616374696f6e206f766572666c6f770000815250610a2b565b6001600160a01b03811661092b576040805162461bcd60e51b815260206004820152601e60248201527f4163636f756e742063616e6e6f74206265207a65726f20616464726573730000604482015290519081900360640190fd5b803b8061097f576040805162461bcd60e51b815260206004820181905260248201527f4163636f756e7420636f64652073697a652063616e6e6f74206265207a65726f604482015290519081900360640190fd5b5050565b600080546040516001600160a01b03909116907f8be0079c531659141344cd1fd0a4f28419497f9722a3daafe3b4186f6b6457e0908390a3600080546001600160a01b0319169055565b6001546001600160a01b03163314806109f057506002546001600160a01b031633145b6103c05760405162461bcd60e51b8152600401808060200182810382526041815260200180610ac36041913960600191505060405180910390fd5b60008184841115610aba5760405162461bcd60e51b81526004018080602001828103825283818151815260200191508051906020019080838360005b83811015610a7f578181015183820152602001610a67565b50505050905090810190601f168015610aac5780820380516001836020036101000a031916815260200191505b509250505060405180910390fd5b50505090039056fe416374697665506f6f6c3a2043616c6c6572206973206e65697468657220426f72726f7765724f7065726174696f6e73206e6f722054726f76654d616e61676572416374697665506f6f6c3a2043616c6c6572206973206e65697468657220426f72726f7765724f7065726174696f6e73206e6f722054726f76654d616e61676572206e6f722053746162696c697479506f6f6c416374697665506f6f6c3a2043616c6c6572206973206e65697468657220424f206e6f722044656661756c7420506f6f6ca26469706673582212203aea0a6deebfc6f5960c1b84c7730ae5dd92ccf877d605d81e8467142b51aa7764736f6c634300060b0033608060405234801561001057600080fd5b50600080546001600160a01b0319163390811782556040519091907f8be0079c531659141344cd1fd0a4f28419497f9722a3daafe3b4186f6b6457e0908290a36109988061005f6000396000f3fe6080604052600436106100a05760003560e01c80638f32d59b116100645780638f32d59b146101ac57806390107afe146101d5578063a3f4df7e14610210578063b08bc7221461029a578063be41205f146102af578063cfb9329a146102d9576100f9565b806314f6c3be146100fe57806338d995a8146101255780635a4d28bb146101515780635eb52fca146101825780638da5cb5b14610197576100f9565b366100f9576100ad610303565b6003546100c0903463ffffffff61034e16565b600381905560408051918252517f9a14ae677a60400af9176bed2e2d5ce8dfa6405e6c1702debb27668f567214289181900360200190a1005b600080fd5b34801561010a57600080fd5b506101136103af565b60408051918252519081900360200190f35b34801561013157600080fd5b5061014f6004803603602081101561014857600080fd5b50356103b5565b005b34801561015d57600080fd5b5061016661040a565b604080516001600160a01b039092168252519081900360200190f35b34801561018e57600080fd5b50610113610419565b3480156101a357600080fd5b5061016661041f565b3480156101b857600080fd5b506101c161042e565b604080519115158252519081900360200190f35b3480156101e157600080fd5b5061014f600480360360408110156101f857600080fd5b506001600160a01b038135811691602001351661043f565b34801561021c57600080fd5b50610225610552565b6040805160208082528351818301528351919283929083019185019080838360005b8381101561025f578181015183820152602001610247565b50505050905090810190601f16801561028c5780820380516001836020036101000a031916815260200191505b509250505060405180910390f35b3480156102a657600080fd5b50610166610579565b3480156102bb57600080fd5b5061014f600480360360208110156102d257600080fd5b5035610588565b3480156102e557600080fd5b5061014f600480360360208110156102fc57600080fd5b50356106d8565b6002546001600160a01b0316331461034c5760405162461bcd60e51b815260040180806020018281038252602981526020018061090f6029913960400191505060405180910390fd5b565b6000828201838110156103a8576040805162461bcd60e51b815260206004820152601b60248201527f536166654d6174683a206164646974696f6e206f766572666c6f770000000000604482015290519081900360640190fd5b9392505050565b60035490565b6103bd6106f3565b6004546103d0908263ffffffff61073c16565b600481905560408051918252517f7735d8b9c0814a13884384c73ec31633f708b4b920b2158764c6b306541341259181900360200190a150565b6001546001600160a01b031681565b60045490565b6000546001600160a01b031690565b6000546001600160a01b0316331490565b61044761042e565b610498576040805162461bcd60e51b815260206004820181905260248201527f4f776e61626c653a2063616c6c6572206973206e6f7420746865206f776e6572604482015290519081900360640190fd5b6104a18261077e565b6104aa8161077e565b600180546001600160a01b038085166001600160a01b03199283168117909355600280549185169190921617905560408051918252517f143219c9e69b09e07e095fcc889b43d8f46ca892bba65f08dc3a0050869a56789181900360200190a1604080516001600160a01b038316815290517f78f058b189175430c48dc02699e3a0031ea4ff781536dc2fab847de4babdd8829181900360200190a161054e61082d565b5050565b6040518060400160405280600b81526020016a111959985d5b1d141bdbdb60aa1b81525081565b6002546001600160a01b031681565b6105906106f3565b6002546003546001600160a01b03909116906105b2908363ffffffff61073c16565b600381905560408051918252517f9a14ae677a60400af9176bed2e2d5ce8dfa6405e6c1702debb27668f567214289181900360200190a1604080516001600160a01b03831681526020810184905281517f6109e2559dfa766aaec7118351d48a523f0a4157f49c8d68749c8ac41318ad12929181900390910190a16040516000906001600160a01b0383169084908381818185875af1925050503d8060008114610678576040519150601f19603f3d011682016040523d82523d6000602084013e61067d565b606091505b50509050806106d3576040805162461bcd60e51b815260206004820152601f60248201527f44656661756c74506f6f6c3a2073656e64696e6720455448206661696c656400604482015290519081900360640190fd5b505050565b6106e06106f3565b6004546103d0908263ffffffff61034e16565b6001546001600160a01b0316331461034c5760405162461bcd60e51b815260040180806020018281038252602b815260200180610938602b913960400191505060405180910390fd5b60006103a883836040518060400160405280601e81526020017f536166654d6174683a207375627472616374696f6e206f766572666c6f770000815250610877565b6001600160a01b0381166107d9576040805162461bcd60e51b815260206004820152601e60248201527f4163636f756e742063616e6e6f74206265207a65726f20616464726573730000604482015290519081900360640190fd5b803b8061054e576040805162461bcd60e51b815260206004820181905260248201527f4163636f756e7420636f64652073697a652063616e6e6f74206265207a65726f604482015290519081900360640190fd5b600080546040516001600160a01b03909116907f8be0079c531659141344cd1fd0a4f28419497f9722a3daafe3b4186f6b6457e0908390a3600080546001600160a01b0319169055565b600081848411156109065760405162461bcd60e51b81526004018080602001828103825283818151815260200191508051906020019080838360005b838110156108cb5781810151838201526020016108b3565b50505050905090810190601f1680156108f85780820380516001836020036101000a031916815260200191505b509250505060405180910390fd5b50505090039056fe44656661756c74506f6f6c3a2043616c6c6572206973206e6f742074686520416374697665506f6f6c44656661756c74506f6f6c3a2043616c6c6572206973206e6f74207468652054726f76654d616e61676572a2646970667358221220cbcda65f34301c21fbf82e86e0ec82f47f28495dce5182eca3a040156ac7338c64736f6c634300060b00336080604052670de0b6b3a764000060105534801561001c57600080fd5b50600380546001600160a01b031916339081179091556040516000907f8be0079c531659141344cd1fd0a4f28419497f9722a3daafe3b4186f6b6457e0908290a36139248061006c6000396000f3fe6080604052600436106102975760003560e01c806382e0a5741161015a578063ae918754116100c1578063df9cd84f1161007a578063df9cd84f146108ec578063eaa8ba7f1461091f578063f5f1595d14610984578063f92d3433146109b7578063fc7e286d146109cc578063fda0101a14610a20576102de565b8063ae91875414610850578063b83f91a214610865578063ce4b5bbe1461087a578063cef941e81461088f578063d4ca0575146108a4578063d7fb0443146108d7576102de565b806395fb16bb1161011357806395fb16bb1461073b5780639bf2f1ac14610750578063a20baee6146105b6578063a3f4df7e14610765578063a4e59ac8146107ef578063a7bfff9714610804576102de565b806382e0a5741461066557806386da0824146106a0578063887105d3146106d35780638b8fbd92146106e85780638da5cb5b146106fd5780638f32d59b14610712576102de565b8063538153ca116101fe578063741bef1a116101b7578063741bef1a146105cb57806376671808146105e057806377553ad414610611578063794e572414610626578063795d26c31461063b5780637f7dde4a14610650576102de565b8063538153ca146104f6578063556be1011461050b5780635733d58f146105355780635d2de6421461054a5780635f788d651461057d57806372fe25aa146105b6576102de565b80632e86bbd8116102505780632e86bbd814610423578063335525ad14610438578063389e92a5146104685780633cc742251461049b5780633d83908a146104cc5780634870dd9a146104e1576102de565b806314f6c3be146102e357806316b9d3c51461030a5780631bf43555146103745780631cdc47001461038957806328a0a04d146103bc5780632e54bf95146103f7576102de565b366102de576102a4610a5b565b6009546102b7903463ffffffff610aa616565b600981905560408051918252516000805160206136588339815191529181900360200190a1005b600080fd5b3480156102ef57600080fd5b506102f8610b09565b60408051918252519081900360200190f35b34801561031657600080fd5b5061033d6004803603602081101561032d57600080fd5b50356001600160a01b0316610b0f565b604080519586526020860194909452848401929092526001600160801b039081166060850152166080830152519081900360a00190f35b34801561038057600080fd5b506102f8610b4a565b34801561039557600080fd5b506102f8600480360360208110156103ac57600080fd5b50356001600160a01b0316610b57565b3480156103c857600080fd5b506102f8600480360360408110156103df57600080fd5b506001600160801b0381358116916020013516610bff565b34801561040357600080fd5b506104216004803603602081101561041a57600080fd5b5035610c1c565b005b34801561042f57600080fd5b506102f8610da5565b34801561044457600080fd5b506104216004803603604081101561045b57600080fd5b5080359060200135610db2565b34801561047457600080fd5b506102f86004803603602081101561048b57600080fd5b50356001600160a01b0316610e16565b3480156104a757600080fd5b506104b0610eb3565b604080516001600160a01b039092168252519081900360200190f35b3480156104d857600080fd5b506104b0610ec2565b3480156104ed57600080fd5b506102f8610ed1565b34801561050257600080fd5b506102f8610ed6565b34801561051757600080fd5b506104216004803603602081101561052e57600080fd5b5035610edc565b34801561054157600080fd5b506102f8610f51565b34801561055657600080fd5b506102f86004803603602081101561056d57600080fd5b50356001600160a01b0316610f5d565b34801561058957600080fd5b50610421600480360360408110156105a057600080fd5b50803590602001356001600160a01b0316610f6f565b3480156105c257600080fd5b506102f86110f0565b3480156105d757600080fd5b506104b06110fc565b3480156105ec57600080fd5b506105f561110b565b604080516001600160801b039092168252519081900360200190f35b34801561061d57600080fd5b506104b0611121565b34801561063257600080fd5b506102f8611130565b34801561064757600080fd5b506102f861113c565b34801561065c57600080fd5b506104b061123d565b34801561067157600080fd5b506102f86004803603604081101561068857600080fd5b506001600160801b038135811691602001351661124c565b3480156106ac57600080fd5b5061033d600480360360208110156106c357600080fd5b50356001600160a01b0316611269565b3480156106df57600080fd5b506102f86112a4565b3480156106f457600080fd5b506102f8611360565b34801561070957600080fd5b506104b0611366565b34801561071e57600080fd5b50610727611375565b604080519115158252519081900360200190f35b34801561074757600080fd5b506104b0611386565b34801561075c57600080fd5b506102f8611395565b34801561077157600080fd5b5061077a61139b565b6040805160208082528351818301528351919283929083019185019080838360005b838110156107b457818101518382015260200161079c565b50505050905090810190601f1680156107e15780820380516001836020036101000a031916815260200191505b509250505060405180910390f35b3480156107fb57600080fd5b506105f56113c4565b34801561081057600080fd5b506108376004803603602081101561082757600080fd5b50356001600160a01b03166113d3565b6040805192835290151560208301528051918290030190f35b34801561085c57600080fd5b506104b06113ef565b34801561087157600080fd5b506104b06113fe565b34801561088657600080fd5b506102f861140d565b34801561089b57600080fd5b506102f8611415565b3480156108b057600080fd5b506102f8600480360360208110156108c757600080fd5b50356001600160a01b031661141b565b3480156108e357600080fd5b506102f861151f565b3480156108f857600080fd5b506102f86004803603602081101561090f57600080fd5b50356001600160a01b0316611525565b34801561092b57600080fd5b50610421600480360360e081101561094257600080fd5b506001600160a01b038135811691602081013582169160408201358116916060810135821691608082013581169160a081013582169160c090910135166115c2565b34801561099057600080fd5b506102f8600480360360208110156109a757600080fd5b50356001600160a01b0316611873565b3480156109c357600080fd5b506102f8611970565b3480156109d857600080fd5b506109ff600480360360208110156109ef57600080fd5b50356001600160a01b031661197b565b604080519283526001600160a01b0390911660208301528051918290030190f35b348015610a2c57600080fd5b5061042160048036036040811015610a4357600080fd5b506001600160a01b038135811691602001351661199d565b6000546001600160a01b03163314610aa45760405162461bcd60e51b81526004018080602001828103825260278152602001806136316027913960400191505060405180910390fd5b565b600082820183811015610b00576040805162461bcd60e51b815260206004820152601b60248201527f536166654d6174683a206164646974696f6e206f766572666c6f770000000000604482015290519081900360640190fd5b90505b92915050565b60095490565b600f602052600090815260409020805460018201546002830154600390930154919290916001600160801b0380821691600160801b90041685565b686194049f30f720000081565b6001600160a01b0381166000908152600b602052604081205480610b7f576000915050610bfa565b610b87613563565b506001600160a01b0383166000908152600c60209081526040808320815160a08101835281548152600182015493810193909352600281015491830191909152600301546001600160801b038082166060840152600160801b90910416608082015290610bf48383611bcd565b93505050505b919050565b601260209081526000928352604080842090915290825290205481565b8015610c2a57610c2a611cc9565b336000908152600b6020526040902054610c4381611e86565b6008546001600160a01b0316610c5881611ec8565b6000610c6333610e16565b90506000610c7033610b57565b90506000610c7e8683611f3c565b90506000610c92868463ffffffff611f5216565b336000818152600b60205260409020600101549192506001600160a01b0390911690610cc090879083611f94565b6000610ccb82611525565b90506000610cdf828663ffffffff611f5216565b9050610ceb8382612133565b6040805182815233602082015281516001600160a01b0386169260008051602061383e833981519152928290030190a2610d25338661227f565b6000610d37878763ffffffff611f5216565b9050610d433382612305565b60408051828152905133916000805160206136a9833981519152919081900360200190a260408051898152602081018790528151339260008051602061378d833981519152928290030190a2610d988861248b565b5050505050505050505050565b680ad78ebc5ac620000081565b610dba612597565b600a54801580610dc8575082155b15610dd35750610e12565b600854610de8906001600160a01b0316611ec8565b600080610df68486856125e0565b91509150610e0482826126d9565b610e0e84866129d3565b5050505b5050565b6001600160a01b0381166000908152600b602052604081205480610e3e576000915050610bfa565b610e46613563565b506001600160a01b0383166000908152600c60209081526040808320815160a08101835281548152600182015493810193909352600281015491830191909152600301546001600160801b038082166060840152600160801b90910416608082015290610bf48383612b0d565b6001546001600160a01b031681565b6005546001600160a01b031681565b60c881565b60165481565b610ee533612bfe565b610eee33612c59565b610ef781612caf565b336000818152600d60209081526040918290208481556001908101805460ff19169091179055815184815291517f19bc932fb9e16a8b5a1e41be9f4c2de59d5ddd7567b8b81405f532ca00a9880e9281900390910190a250565b6714d1120d7b16000081565b600e6020526000908152604090205481565b610f7881612cf6565b610f8133612bfe565b610f8a82612d62565b336000908152600b60205260409020546008546001600160a01b0316610faf81611ec8565b81610fbe57610fbe3384612da1565b6000610fc933610e16565b90506000610fd633610b57565b90506000610fea858363ffffffff611f5216565b336000818152600b60205260409020600101549192506001600160a01b039091169061101890869083611f94565b600061102382611525565b90506000611037828b63ffffffff610aa616565b90506110438382612133565b6040805182815233602082015281516001600160a01b0386169260008051602061383e833981519152928290030190a261107d338b612dfb565b600061108f868c63ffffffff610aa616565b905061109b3382612305565b60408051828152905133916000805160206136a9833981519152919081900360200190a260408051888152602081018790528151339260008051602061378d833981519152928290030190a2610d988761248b565b670de0b6b3a764000081565b6002546001600160a01b031681565b601154600160801b90046001600160801b031681565b6004546001600160a01b031681565b670f43fc2c04ee000081565b6000805460408051632f5a97e560e11b8152905183926001600160a01b031691635eb52fca916004808301926020929190829003018186803b15801561118157600080fd5b505afa158015611195573d6000803e3d6000fd5b505050506040513d60208110156111ab57600080fd5b505160015460408051632f5a97e560e11b815290519293506000926001600160a01b0390921691635eb52fca91600480820192602092909190829003018186803b1580156111f857600080fd5b505afa15801561120c573d6000803e3d6000fd5b505050506040513d602081101561122257600080fd5b50519050611236828263ffffffff610aa616565b9250505090565b6000546001600160a01b031681565b601360209081526000928352604080842090915290825290205481565b600c602052600090815260409020805460018201546002830154600390930154919290916001600160801b0380821691600160801b90041685565b6000805460408051630a7b61df60e11b8152905183926001600160a01b0316916314f6c3be916004808301926020929190829003018186803b1580156112e957600080fd5b505afa1580156112fd573d6000803e3d6000fd5b505050506040513d602081101561131357600080fd5b505160015460408051630a7b61df60e11b815290519293506000926001600160a01b03909216916314f6c3be91600480820192602092909190829003018186803b1580156111f857600080fd5b60105481565b6003546001600160a01b031690565b6003546001600160a01b0316331490565b6008546001600160a01b031681565b600a5490565b6040518060400160405280600d81526020016c14dd18589a5b1a5d1e541bdbdb609a1b81525081565b6011546001600160801b031681565b600d602052600090815260409020805460019091015460ff1682565b6007546001600160a01b031681565b6006546001600160a01b031681565b633b9aca0081565b60145481565b6001600160a01b0381166000908152600e602052604081205480611443576000915050610bfa565b6001600160a01b0383166000908152600d602052604081205490611475670de0b6b3a76400008363ffffffff611f5216565b905061147f613563565b506001600160a01b0385166000908152600f60209081526040808320815160a08101835281548152600182015493810193909352600281015491830191909152600301546001600160801b038082166060840152600160801b90910416608082015290611514670de0b6b3a76400006115086114fb8886612ec5565b869063ffffffff612f5116565b9063ffffffff612faa16565b979650505050505050565b60155481565b6001600160a01b0381166000908152600e60205260408120548061154d576000915050610bfa565b611555613563565b506001600160a01b0383166000908152600f60209081526040808320815160a08101835281548152600182015493810193909352600281015491830191909152600301546001600160801b038082166060840152600160801b90910416608082015290610bf48383611bcd565b6115ca611375565b61161b576040805162461bcd60e51b815260206004820181905260248201527f4f776e61626c653a2063616c6c6572206973206e6f7420746865206f776e6572604482015290519081900360640190fd5b61162487612fec565b61162d86612fec565b61163685612fec565b61163f84612fec565b61164883612fec565b61165182612fec565b61165a81612fec565b600480546001600160a01b03199081166001600160a01b038a81169182179093556005805483168a85161790556000805483168985161790556006805483168885161790556007805483168785161790556002805483168685161790556008805490921692841692909217905560408051918252517f3ca631ffcd2a9b5d9ae18543fc82f58eb4ca33af9e6ab01b7a8e95331e6ed985916020908290030190a1604080516001600160a01b038816815290517f143219c9e69b09e07e095fcc889b43d8f46ca892bba65f08dc3a0050869a56789181900360200190a1604080516001600160a01b038716815290517f78f058b189175430c48dc02699e3a0031ea4ff781536dc2fab847de4babdd8829181900360200190a1604080516001600160a01b038616815290517f227eec0ec317af6ab1a9587ffa1c84332522eb4c583a908f89babc05f8f339bd9181900360200190a1604080516001600160a01b038516815290517f65f4cf077bc01e4742eb5ad98326f6e95b63548ea24b17f8d5e823111fe788009181900360200190a1604080516001600160a01b038416815290517f8c537274438aa850a330284665d81a85dd38267d09e4050d416bfc94142db2649181900360200190a1604080516001600160a01b038316815290517f3055265812fb8447b9ada4a5d804ec43bd528ec40e89c952bbc7b85dc5ac68119181900360200190a161186a61309b565b50505050505050565b6001600160a01b0381166000908152600b60205260408120548061189b576000915050610bfa565b6001600160a01b038084166000908152600b60205260408120600101549091169081156118e0576001600160a01b0382166000908152600d60205260409020546118ea565b670de0b6b3a76400005b90506118f4613563565b506001600160a01b0385166000908152600c60209081526040808320815160a08101835281548152600182015493810193909352600281015491830191909152600301546001600160801b038082166060840152600160801b90910416608082015290611514670de0b6b3a76400006115086114fb8886612ec5565b6611c37937e0800081565b600b60205260009081526040902080546001909101546001600160a01b031682565b336000908152600b60205260409020546119b681611e86565b6119bf336130e5565b6119c83361319c565b6008546001600160a01b03166119dd81611ec8565b60006119e833610e16565b905060006119f533610b57565b90506000611a09858363ffffffff611f5216565b336000818152600b60205260409020600101549192506001600160a01b0390911690611a3790869083611f94565b6000611a4282611525565b905080611a4f8382612133565b6040805182815233602082015281516001600160a01b0386169260008051602061383e833981519152928290030190a2611a893386612305565b60408051878152602081018690528151339260008051602061378d833981519152928290030190a260408051868152905133916000805160206136a9833981519152919081900360200190a2600954611ae8908763ffffffff611f5216565b600981905560408051918252516000805160206136588339815191529181900360200190a1604080513381526020810188905281517f6109e2559dfa766aaec7118351d48a523f0a4157f49c8d68749c8ac41318ad12929181900390910190a1600480546040805163ea9638bf60e01b815233938101939093526001600160a01b038d811660248501528c81166044850152905191169163ea9638bf91899160648082019260009290919082900301818588803b158015611ba857600080fd5b505af1158015611bbc573d6000803e3d6000fd5b505050505050505050505050505050565b6020810151606082015160808301516011546000939291906001600160801b03600160801b90910481169082161015611c0c5760009350505050610b03565b6011546000908190611c2d906001600160801b03168563ffffffff6131e816565b90506001600160801b038116611c5d57611c56856115086010548b612f5190919063ffffffff16565b9150611c95565b806001600160801b031660011415611c9057611c56633b9aca00611508876115086010548d612f5190919063ffffffff16565b600091505b611ca988633b9aca0063ffffffff612faa16565b821015611cbe57600095505050505050610b03565b509695505050505050565b60025460408051630fdb11cf60e01b815290516000926001600160a01b031691630fdb11cf91600480830192602092919082900301818787803b158015611d0f57600080fd5b505af1158015611d23573d6000803e3d6000fd5b505050506040513d6020811015611d3957600080fd5b505160075460408051634d62283160e01b815290519293506000926001600160a01b0390921691634d62283191600480820192602092909190829003018186803b158015611d8657600080fd5b505afa158015611d9a573d6000803e3d6000fd5b505050506040513d6020811015611db057600080fd5b505160055460408051630d293c7160e41b81526001600160a01b038085166004830152602482018790529151939450600093919092169163d293c710916044808301926020929190829003018186803b158015611e0c57600080fd5b505afa158015611e20573d6000803e3d6000fd5b505050506040513d6020811015611e3657600080fd5b50519050670f43fc2c04ee0000811015611e815760405162461bcd60e51b81526004018080602001828103825260448152602001806138ab6044913960600191505060405180910390fd5b505050565b60008111611ec55760405162461bcd60e51b815260040180806020018281038252603081526020018061380e6030913960400191505060405180910390fd5b50565b6000816001600160a01b03166346ad34d96040518163ffffffff1660e01b8152600401602060405180830381600087803b158015611f0557600080fd5b505af1158015611f19573d6000803e3d6000fd5b505050506040513d6020811015611f2f57600080fd5b50519050610e1281613241565b6000818310611f4b5781610b00565b5090919050565b6000610b0083836040518060400160405280601e81526020017f536166654d6174683a207375627472616374696f6e206f766572666c6f77000081525061335c565b6001600160a01b03811615612069576000611fae8261141b565b9050836001600160a01b031663614d2ab683836040518363ffffffff1660e01b815260040180836001600160a01b03166001600160a01b0316815260200182815260200192505050600060405180830381600087803b15801561201057600080fd5b505af1158015612024573d6000803e3d6000fd5b50506040805184815290516001600160a01b03861693507fcd2cdc1a4af71051394e9c6facd9a266b2ac5bd65d219a701eeda009f47682bf92509081900360200190a2505b600061207483611873565b9050836001600160a01b031663614d2ab684836040518363ffffffff1660e01b815260040180836001600160a01b03166001600160a01b0316815260200182815260200192505050600060405180830381600087803b1580156120d657600080fd5b505af11580156120ea573d6000803e3d6000fd5b50506040805184815290516001600160a01b03871693507f2608b986a6ac0f6c629ca37018e80af5561e366252ae93602a96d3ab2e73e42d92509081900360200190a250505050565b6001600160a01b0382166000908152600e60205260409020819055806121c3576001600160a01b0382166000818152600f60209081526040808320838155600181018490556002810184905560030183905580518381529182019290925281517fbb1322f85cc7cc8bac4e172a5bc5dcc0c1959007f9a030032abf9258205f0e45929181900390910190a2610e12565b6011546010546001600160801b03600160801b80840482166000818152601360209081526040808320978616808452978252808320546001600160a01b038b16808552600f845293829020600181018990556002810182905560030180546001600160801b0319168a17909716958502959095179095558451868152908101849052845192959491927fbb1322f85cc7cc8bac4e172a5bc5dcc0c1959007f9a030032abf9258205f0e45929181900390910190a2505050505050565b8061228957610e12565b60065460408051631062c15f60e11b81523060048201526001600160a01b03858116602483015260448201859052915191909216916320c582be91606480830192600092919082900301818387803b1580156122e457600080fd5b505af11580156122f8573d6000803e3d6000fd5b50505050610e12816133f3565b6001600160a01b0382166000908152600b60205260409020819055806123b3576001600160a01b0382166000818152600b60209081526040808320600190810180546001600160a01b0319169055600c83528184208481559081018490556002810184905560030183905580518381529182018390528181019290925290517f2d6cc0bcdf72c9486f6451bde6b80f44066f4558f77f44dbfedbe7d8b295225a9181900360600190a2610e12565b6011546010546001600160801b03600160801b8084048216600081815260126020908152604080832097861680845297825280832054848452601383528184208985528352818420546001600160a01b038c16808652600c855294839020600181018a90558281556002810182905560030180546001600160801b0319168b179098169686029690961790965580518781529182018690528181018590525192959493927f2d6cc0bcdf72c9486f6451bde6b80f44066f4558f77f44dbfedbe7d8b295225a916060908290030190a250505050505050565b8061249557611ec5565b6009546000906124ab908363ffffffff611f5216565b6009819055604080518281529051919250600080516020613658833981519152919081900360200190a1604080513381526020810184905281517f6109e2559dfa766aaec7118351d48a523f0a4157f49c8d68749c8ac41318ad12929181900390910190a1604051600090339084908381818185875af1925050503d8060008114612552576040519150601f19603f3d011682016040523d82523d6000602084013e612557565b606091505b5050905080611e815760405162461bcd60e51b81526004018080602001828103825260218152602001806136f26021913960400191505060405180910390fd5b6005546001600160a01b03163314610aa45760405162461bcd60e51b81526004018080602001828103825260298152602001806136c96029913960400191505060405180910390fd5b6000806000612612601554612606670de0b6b3a764000089612f5190919063ffffffff16565b9063ffffffff610aa616565b90508385111561261e57fe5b8385141561263b576000601655670de0b6b3a7640000915061269b565b6016546000906126699061265d88670de0b6b3a764000063ffffffff612f5116565b9063ffffffff611f5216565b90506126806001612606838863ffffffff612faa16565b92506126968161265d858863ffffffff612f5116565b601655505b6126ab818563ffffffff612faa16565b92506126cd6126c0848663ffffffff612f5116565b829063ffffffff611f5216565b60155550935093915050565b6010546000670de0b6b3a76400008311156126f057fe5b600061270a670de0b6b3a76400008563ffffffff611f5216565b6011546001600160801b03600160801b82048116600081815260126020908152604080832094909516808352939052928320549394509092909161274e8988612f51565b90506000612762838363ffffffff610aa616565b6001600160801b038086166000818152601260209081526040808320948b16808452948252918290208590558151858152908101929092528181019290925290519192507fe12e2cd2c9afa8069203ca07e7eff1edce4a075686d0736a8e7e0d593597b207919081900360600190a185612899576127f06001600160801b038516600163ffffffff61344916565b601180546001600160801b03908116600160801b938216840217918290556040805193909204168252517fb50f0f59e7cb5b421dc77581c3a9919e3806e076e5fa78a874c3f120cb7d874d916020908290030190a1601180546001600160801b0319169055604080516000815290517f1f9dfc70cd666adb18a39d60a797518f7b4febf4b6e24ef37d44f6e1e7219fbe9181900360200190a1670de0b6b3a76400009650612985565b633b9aca006128ba670de0b6b3a76400006115088b8a63ffffffff612f5116565b1015612966576128f0670de0b6b3a7640000611508633b9aca006128e48c8b63ffffffff612f5116565b9063ffffffff612f5116565b965061290c6001600160801b038616600163ffffffff61344916565b601180546001600160801b0319166001600160801b0392831617908190556040805191909216815290517f1f9dfc70cd666adb18a39d60a797518f7b4febf4b6e24ef37d44f6e1e7219fbe916020908290030190a1612985565b612982670de0b6b3a76400006115088a8963ffffffff612f5116565b96505b6000871161298f57fe5b60108790556040805188815290517fc1a9618cb59ebca77cbdbc2949f126823c407ff13edb285fd0262519a9c18e8c9181900360200190a150505050505050505050565b600080546040805163071b32b560e31b81526004810185905290516001600160a01b039092169283926338d995a892602480820193929182900301818387803b158015612a1f57600080fd5b505af1158015612a33573d6000803e3d6000fd5b50505050612a40826133f3565b60065460408051632770a7eb60e21b81523060048201526024810185905290516001600160a01b0390921691639dc29fac9160448082019260009290919082900301818387803b158015612a9357600080fd5b505af1158015612aa7573d6000803e3d6000fd5b5050604080516364a197f360e01b81523060048201526024810187905290516001600160a01b03851693506364a197f39250604480830192600092919082900301818387803b158015612af957600080fd5b505af115801561186a573d6000803e3d6000fd5b6080810151606082015182516020808501516001600160801b03808616600090815260128452604080822092871682529190935282205491949392918590612b5b908463ffffffff611f5216565b6001600160801b03808716600090815260126020526040812092935091612bbe91633b9aca0091908490612b98908a16600163ffffffff61344916565b6001600160801b031681526020810191909152604001600020549063ffffffff612faa16565b90506000612bf0670de0b6b3a76400006115088681612be3888863ffffffff610aa616565b8f9063ffffffff612f5116565b9a9950505050505050505050565b6001600160a01b0381166000908152600d602052604090206001015460ff1615611ec55760405162461bcd60e51b81526004018080602001828103825260398152602001806137ad6039913960400191505060405180910390fd5b6001600160a01b0381166000908152600b60205260409020548015610e125760405162461bcd60e51b81526004018080602001828103825260288152602001806137e66028913960400191505060405180910390fd5b670de0b6b3a7640000811115611ec55760405162461bcd60e51b81526004018080602001828103825260338152602001806137346033913960400191505060405180910390fd5b6001600160a01b0381166000908152600d602052604090206001015460ff1680612d2757506001600160a01b038116155b611ec55760405162461bcd60e51b81526004018080602001828103825260468152602001806135eb6046913960600191505060405180910390fd5b60008111611ec55760405162461bcd60e51b81526004018080602001828103825260268152602001806137676026913960400191505060405180910390fd5b6001600160a01b038281166000818152600b602052604080822060010180546001600160a01b0319169486169485179055517f094c08e96a8890877a8390b4f967180a7507ad8622244d05fcd0f9f8e086564e9190a35050565b60065460408051632ee65eeb60e21b81526001600160a01b038581166004830152306024830152604482018590529151919092169163bb997bac91606480830192600092919082900301818387803b158015612e5657600080fd5b505af1158015612e6a573d6000803e3d6000fd5b5050600a5460009250612e8491508363ffffffff610aa616565b600a8190556040805182815290519192507fa8e886449d8f7e765877b4a4f54632da3943ae454d5a272bdccb1781f086ff29919081900360200190a1505050565b608081015160608201516040808401516020808601516001600160801b03808716600090815260138452858120918716815292529281205490949392908590612f14908463ffffffff611f5216565b6001600160801b03808716600090815260136020526040812092935091612bbe91633b9aca0091908490612b98908a16600163ffffffff61344916565b600082612f6057506000610b03565b82820282848281612f6d57fe5b0414610b005760405162461bcd60e51b81526004018080602001828103825260218152602001806137136021913960400191505060405180910390fd5b6000610b0083836040518060400160405280601a81526020017f536166654d6174683a206469766973696f6e206279207a65726f000000000000815250613499565b6001600160a01b038116613047576040805162461bcd60e51b815260206004820152601e60248201527f4163636f756e742063616e6e6f74206265207a65726f20616464726573730000604482015290519081900360640190fd5b803b80610e12576040805162461bcd60e51b815260206004820181905260248201527f4163636f756e7420636f64652073697a652063616e6e6f74206265207a65726f604482015290519081900360640190fd5b6003546040516000916001600160a01b0316907f8be0079c531659141344cd1fd0a4f28419497f9722a3daafe3b4186f6b6457e0908390a3600380546001600160a01b0319169055565b600554604080516321e3780160e01b81526001600160a01b038481166004830152915191909216916321e37801916024808301926020929190829003018186803b15801561313257600080fd5b505afa158015613146573d6000803e3d6000fd5b505050506040513d602081101561315c57600080fd5b5051600114611ec55760405162461bcd60e51b81526004018080602001828103825260468152602001806135a56046913960600191505060405180910390fd5b60006131a782610e16565b905060008111610e125760405162461bcd60e51b81526004018080602001828103825260318152602001806136786031913960400191505060405180910390fd5b6000826001600160801b0316826001600160801b0316111561323b5760405162461bcd60e51b815260040180806020018281038252602881526020018061385e6028913960400191505060405180910390fd5b50900390565b600a5480158061324f575081155b1561325a5750611ec5565b600061326683836134fe565b9050600061327f60105483612f5190919063ffffffff16565b6011546001600160801b03600160801b8204811660009081526013602090815260408083209390941682529190915220549091506132c3908263ffffffff610aa616565b601180546001600160801b03600160801b808304821660009081526013602081815260408084209686168452958152858320979097559454918204831680825294865283812091909216808352908552908290205482519081529384019290925282810191909152517f2d6127771b164a9cc8827d24b5955db2a77e7a81dac389107ebb8bce9fb649689181900360600190a150505050565b600081848411156133eb5760405162461bcd60e51b81526004018080602001828103825283818151815260200191508051906020019080838360005b838110156133b0578181015183820152602001613398565b50505050905090810190601f1680156133dd5780820380516001836020036101000a031916815260200191505b509250505060405180910390fd5b505050900390565b600a54600090613409908363ffffffff611f5216565b600a8190556040805182815290519192507fa8e886449d8f7e765877b4a4f54632da3943ae454d5a272bdccb1781f086ff29919081900360200190a15050565b60008282016001600160801b038085169082161015610b005760405162461bcd60e51b81526004018080602001828103825260258152602001806138866025913960400191505060405180910390fd5b600081836134e85760405162461bcd60e51b81526020600482018181528351602484015283519092839260449091019190850190808383600083156133b0578181015183820152602001613398565b5060008385816134f457fe5b0495945050505050565b600080613522601454612606670de0b6b3a764000087612f5190919063ffffffff16565b90506000613536828563ffffffff612faa16565b905061355861354b828663ffffffff612f5116565b839063ffffffff611f5216565b601455949350505050565b6040518060a0016040528060008152602001600081526020016000815260200160006001600160801b0316815260200160006001600160801b03168152509056fe53746162696c697479506f6f6c3a2063616c6c6572206d757374206861766520616e206163746976652074726f766520746f207769746864726177204554484761696e20746f53746162696c697479506f6f6c3a20546167206d757374206265206120726567697374657265642066726f6e7420656e642c206f7220746865207a65726f206164647265737353746162696c697479506f6f6c3a2043616c6c6572206973206e6f7420416374697665506f6f6cceb6d671277d4354fd29977ada70695fbd93a16612abf765d6b0e25c28dc6db353746162696c697479506f6f6c3a2063616c6c6572206d7573742068617665206e6f6e2d7a65726f20455448204761696ebce78369dccab09eec1986f4d409ab09ffbb47d65423e5148fcf98411c5111c953746162696c697479506f6f6c3a2043616c6c6572206973206e6f742054726f76654d616e6167657253746162696c697479506f6f6c3a2073656e64696e6720455448206661696c6564536166654d6174683a206d756c7469706c69636174696f6e206f766572666c6f7753746162696c697479506f6f6c3a204b69636b6261636b2072617465206d75737420626520696e2072616e6765205b302c315d53746162696c697479506f6f6c3a20416d6f756e74206d757374206265206e6f6e2d7a65726f51457222ebca92c335c9c86e2baa1cc0e40ffaa9084a51452980d5ba8dec2f6353746162696c697479506f6f6c3a206d757374206e6f7420616c7265616479206265206120726567697374657265642066726f6e7420656e6453746162696c697479506f6f6c3a2055736572206d7573742068617665206e6f206465706f73697453746162696c697479506f6f6c3a2055736572206d75737420686176652061206e6f6e2d7a65726f206465706f73697499920012339b5a3368d3a04b8606ce412c46ed92b7dcd8602d41fc8862cb8f254c697175697479536166654d6174683132383a207375627472616374696f6e206f766572666c6f774c697175697479536166654d6174683132383a206164646974696f6e206f766572666c6f7753746162696c697479506f6f6c3a2043616e6e6f74207769746864726177207768696c65207468657265206172652074726f766573207769746820494352203c204d4352a2646970667358221220a933496260fd68a40610a4fd1fa4621c153dab6beff4bfe0e8c5416c4fe4722164736f6c634300060b00336080604052348015600f57600080fd5b50603f80601d6000396000f3fe6080604052600080fdfea264697066735822122039256888add74d9ba1e587b30d8fba59588d324fa8a904bb5bafa6e715256de564736f6c634300060b00336101606040523480156200001257600080fd5b50604051620018ad380380620018ad833981810160405260608110156200003857600080fd5b50805160208201516040909201519091906200005d836001600160e01b036200025316565b62000071826001600160e01b036200025316565b62000085816001600160e01b036200025316565b6001600160601b0319606084901b1661010052604080516001600160a01b038516815290517f143219c9e69b09e07e095fcc889b43d8f46ca892bba65f08dc3a0050869a56789181900360200190a16001600160601b0319606083901b1661012052604080516001600160a01b038416815290517f82966d27eea39b038ee0fa30cd16532bb24f6e65d31cb58fb227aa5766cdcc7f9181900360200190a16001600160601b0319606082901b1661014052604080516001600160a01b038316815290517f3ca631ffcd2a9b5d9ae18543fc82f58eb4ca33af9e6ab01b7a8e95331e6ed9859181900360200190a1604080518082018252600f81526e262aa9a21029ba30b13632b1b7b4b760891b602091820152815180830190925260018252603160f81b9101527fabccaf2943f70764a048255e50e07d10e3c94973a6c6ba8b8ea62b1155209b0160c08190527fc89efdaa54c0f20c7adf612882df0950f5a951637e0307cdcb4c672f298b8bc660e08190526200020b6001600160e01b036200030816565b60a052620002447f8b73c3c69bb8fe3d512ecc4cf759cc79239f7b179b0ffacaa9a75d522b39400f83836001600160e01b036200030c16565b608052506200036d9350505050565b6001600160a01b038116620002af576040805162461bcd60e51b815260206004820152601e60248201527f4163636f756e742063616e6e6f74206265207a65726f20616464726573730000604482015290519081900360640190fd5b803b8062000304576040805162461bcd60e51b815260206004820181905260248201527f4163636f756e7420636f64652073697a652063616e6e6f74206265207a65726f604482015290519081900360640190fd5b5050565b4690565b6000838383620003246001600160e01b036200030816565b6040805160208082019690965280820194909452606084019290925260808301523060a0808401919091528151808403909101815260c090920190528051910120949350505050565b60805160a05160c05160e0516101005160601c6101205160601c6101405160601c6114b1620003fc6000398061076d5280610d5c5280610ed25280610fcd5250806105285280610b425280610ce1528061103252806111505250806106785280610b105280610d1e5280610fff525080610a58525080610a375250806109bd5250806109ed52506114b16000f3fe608060405234801561001057600080fd5b506004361061014d5760003560e01c80635a4d28bb116100c3578063a9059cbb1161007c578063a9059cbb146103f5578063b7f8cf9b14610421578063bb997bac14610429578063d505accf1461045f578063dd62ed3e146104b0578063f698da25146104de5761014d565b80635a4d28bb1461034157806370a08231146103495780637ecebe001461036f57806395d89b41146103955780639dc29fac1461039d578063a457c2d7146103c95761014d565b806320c582be1161011557806320c582be1461025557806323b872dd1461028d578063313ce567146102c357806339509351146102e157806340c10f191461030d57806354fd4d50146103395761014d565b806306fdde0314610152578063095ea7b3146101cf5780630b622ab21461020f57806310ce43bd1461023357806318160ddd1461024d575b600080fd5b61015a6104e6565b6040805160208082528351818301528351919283929083019185019080838360005b8381101561019457818101518382015260200161017c565b50505050905090810190601f1680156101c15780820380516001836020036101000a031916815260200191505b509250505060405180910390f35b6101fb600480360360408110156101e557600080fd5b506001600160a01b038135169060200135610510565b604080519115158252519081900360200190f35b610217610526565b604080516001600160a01b039092168252519081900360200190f35b61023b61054a565b60408051918252519081900360200190f35b61023b61056e565b61028b6004803603606081101561026b57600080fd5b506001600160a01b03813581169160208101359091169060400135610574565b005b6101fb600480360360608110156102a357600080fd5b506001600160a01b0381358116916020810135909116906040013561058c565b6102cb610604565b6040805160ff9092168252519081900360200190f35b6101fb600480360360408110156102f757600080fd5b506001600160a01b038135169060200135610609565b61028b6004803603604081101561032357600080fd5b506001600160a01b038135169060200135610645565b61015a61065b565b610217610676565b61023b6004803603602081101561035f57600080fd5b50356001600160a01b031661069a565b61023b6004803603602081101561038557600080fd5b50356001600160a01b03166106b5565b61015a6106d0565b61028b600480360360408110156103b357600080fd5b506001600160a01b0381351690602001356106ee565b6101fb600480360360408110156103df57600080fd5b506001600160a01b038135169060200135610700565b6101fb6004803603604081101561040b57600080fd5b506001600160a01b038135169060200135610755565b61021761076b565b61028b6004803603606081101561043f57600080fd5b506001600160a01b0381358116916020810135909116906040013561078f565b61028b600480360360e081101561047557600080fd5b506001600160a01b03813581169160208101359091169060408101359060608101359060ff6080820135169060a08101359060c00135610797565b61023b600480360360408110156104c657600080fd5b506001600160a01b038135811691602001351661098e565b61023b6109b9565b60408051808201909152600f81526e262aa9a21029ba30b13632b1b7b4b760891b60208201525b90565b600061051d338484610a83565b50600192915050565b7f000000000000000000000000000000000000000000000000000000000000000081565b7f6e71edae12b1b97f4d1f60370fef10105fa2faae0126114a169c64845d6126c990565b60005490565b61057c610b05565b610587838383610ba1565b505050565b600061059783610c83565b6105a2848484610ba1565b6105fa84336105f585604051806060016040528060288152602001611364602891396001600160a01b038a166000908152600360209081526040808320338452909152902054919063ffffffff610dcf16565b610a83565b5060019392505050565b601290565b3360008181526003602090815260408083206001600160a01b0387168452909152812054909161051d9185906105f5908663ffffffff610e6616565b61064d610ec7565b6106578282610f2e565b5050565b6040805180820190915260018152603160f81b602082015290565b7f000000000000000000000000000000000000000000000000000000000000000081565b6001600160a01b031660009081526002602052604090205490565b6001600160a01b031660009081526001602052604090205490565b604080518082019091526004815263131554d160e21b602082015290565b6106f6610fc2565b610657828261108f565b600061051d33846105f585604051806060016040528060258152602001611403602591393360009081526003602090815260408083206001600160a01b038d168452909152902054919063ffffffff610dcf16565b600061076083610c83565b61051d338484610ba1565b7f000000000000000000000000000000000000000000000000000000000000000081565b61057c611145565b428410156107e5576040805162461bcd60e51b81526020600482015260166024820152754c5553443a206578706972656420646561646c696e6560501b604482015290519081900360640190fd5b60006107ef6109b9565b6001600160a01b03808a166000818152600160208181526040808420805480850190915581517f6e71edae12b1b97f4d1f60370fef10105fa2faae0126114a169c64845d6126c98185015280830196909652958e166060860152608085018d905260a085019590955260c08085018c90528551808603909101815260e08501865280519082012061190160f01b6101008601526101028501969096526101228085019690965284518085039096018652610142840180865286519682019690962095839052610162840180865286905260ff8a166101828501526101a284018990526101c284018890529351949550909390926101e2808401939192601f1981019281900390910190855afa15801561090c573d6000803e3d6000fd5b505050602060405103519050886001600160a01b0316816001600160a01b031614610978576040805162461bcd60e51b81526020600482015260176024820152764c5553443a20696e76616c6964207369676e617475726560481b604482015290519081900360640190fd5b610983898989610a83565b505050505050505050565b6001600160a01b03918216600090815260036020908152604080832093909416825291909152205490565b60007f00000000000000000000000000000000000000000000000000000000000000006109e46111ac565b1415610a1157507f000000000000000000000000000000000000000000000000000000000000000061050d565b610a7c7f8b73c3c69bb8fe3d512ecc4cf759cc79239f7b179b0ffacaa9a75d522b39400f7f00000000000000000000000000000000000000000000000000000000000000007f00000000000000000000000000000000000000000000000000000000000000006111b0565b905061050d565b6001600160a01b038316610a9357fe5b6001600160a01b038216610aa357fe5b6001600160a01b03808416600081815260036020908152604080832094871680845294825291829020859055815185815291517f8c5be1e5ebec7d5bd14f71427d1e84f3dd0314c0f7b2291e5b200ac8c7c3b9259281900390910190a3505050565b336001600160a01b037f0000000000000000000000000000000000000000000000000000000000000000161480610b645750336001600160a01b037f000000000000000000000000000000000000000000000000000000000000000016145b610b9f5760405162461bcd60e51b81526004018080602001828103825260368152602001806112496036913960400191505060405180910390fd5b565b6001600160a01b038316610bb157fe5b6001600160a01b038216610bc157fe5b610c04816040518060600160405280602681526020016112a1602691396001600160a01b038616600090815260026020526040902054919063ffffffff610dcf16565b6001600160a01b038085166000908152600260205260408082209390935590841681522054610c39908263ffffffff610e6616565b6001600160a01b0380841660008181526002602090815260409182902094909455805185815290519193928716926000805160206113e383398151915292918290030190a3505050565b6001600160a01b03811615801590610ca457506001600160a01b0381163014155b610cdf5760405162461bcd60e51b81526004018080602001828103825260548152602001806114286054913960600191505060405180910390fd5b7f00000000000000000000000000000000000000000000000000000000000000006001600160a01b0316816001600160a01b031614158015610d5357507f00000000000000000000000000000000000000000000000000000000000000006001600160a01b0316816001600160a01b031614155b8015610d9157507f00000000000000000000000000000000000000000000000000000000000000006001600160a01b0316816001600160a01b031614155b610dcc5760405162461bcd60e51b815260040180806020018281038252605781526020018061138c6057913960600191505060405180910390fd5b50565b60008184841115610e5e5760405162461bcd60e51b81526004018080602001828103825283818151815260200191508051906020019080838360005b83811015610e23578181015183820152602001610e0b565b50505050905090810190601f168015610e505780820380516001836020036101000a031916815260200191505b509250505060405180910390fd5b505050900390565b600082820183811015610ec0576040805162461bcd60e51b815260206004820152601b60248201527f536166654d6174683a206164646974696f6e206f766572666c6f770000000000604482015290519081900360640190fd5b9392505050565b336001600160a01b037f00000000000000000000000000000000000000000000000000000000000000001614610b9f5760405162461bcd60e51b815260040180806020018281038252602b815260200180611339602b913960400191505060405180910390fd5b6001600160a01b038216610f3e57fe5b600054610f51908263ffffffff610e6616565b60009081556001600160a01b038316815260026020526040902054610f7c908263ffffffff610e6616565b6001600160a01b03831660008181526002602090815260408083209490945583518581529351929391926000805160206113e38339815191529281900390910190a35050565b336001600160a01b037f00000000000000000000000000000000000000000000000000000000000000001614806110215750336001600160a01b037f000000000000000000000000000000000000000000000000000000000000000016145b806110545750336001600160a01b037f000000000000000000000000000000000000000000000000000000000000000016145b610b9f5760405162461bcd60e51b815260040180806020018281038252604d8152602001806112c7604d913960600191505060405180910390fd5b6001600160a01b03821661109f57fe5b6110e28160405180606001604052806022815260200161127f602291396001600160a01b038516600090815260026020526040902054919063ffffffff610dcf16565b6001600160a01b0383166000908152600260205260408120919091555461110f908263ffffffff61120616565b60009081556040805183815290516001600160a01b038516916000805160206113e3833981519152919081900360200190a35050565b336001600160a01b037f00000000000000000000000000000000000000000000000000000000000000001614610b9f5760405162461bcd60e51b81526004018080602001828103825260258152602001806113146025913960400191505060405180910390fd5b4690565b60008383836111bd6111ac565b6040805160208082019690965280820194909452606084019290925260808301523060a0808401919091528151808403909101815260c090920190528051910120949350505050565b6000610ec083836040518060400160405280601e81526020017f536166654d6174683a207375627472616374696f6e206f766572666c6f770000815250610dcf56fe4c5553443a2043616c6c6572206973206e6569746865722054726f76654d616e61676572206e6f722053746162696c697479506f6f6c45524332303a206275726e20616d6f756e7420657863656564732062616c616e636545524332303a207472616e7366657220616d6f756e7420657863656564732062616c616e63654c5553443a2043616c6c6572206973206e65697468657220426f72726f7765724f7065726174696f6e73206e6f722054726f76654d616e61676572206e6f722053746162696c697479506f6f6c4c5553443a2043616c6c6572206973206e6f74207468652053746162696c697479506f6f6c4c555344546f6b656e3a2043616c6c6572206973206e6f7420426f72726f7765724f7065726174696f6e7345524332303a207472616e7366657220616d6f756e74206578636565647320616c6c6f77616e63654c5553443a2043616e6e6f74207472616e7366657220746f6b656e73206469726563746c7920746f207468652053746162696c697479506f6f6c2c2054726f76654d616e61676572206f7220426f72726f7765724f7073ddf252ad1be2c89b69c2b068fc378daa952ba7f163c4a11628f55a4df523b3ef45524332303a2064656372656173656420616c6c6f77616e63652062656c6f77207a65726f4c5553443a2043616e6e6f74207472616e7366657220746f6b656e73206469726563746c7920746f20746865204c55534420746f6b656e20636f6e7472616374206f7220746865207a65726f2061646472657373a26469706673582212206dc65db95e865cba6ffa713e3be890a08b3e49d6cbd99b74dd8407f56a90cb5a64736f6c634300060b0033608060405234801561001057600080fd5b50600080546001600160a01b0319163390811782556040519091907f8be0079c531659141344cd1fd0a4f28419497f9722a3daafe3b4186f6b6457e0908290a3610b3a8061005f6000396000f3fe6080604052600436106100a05760003560e01c80638f32d59b116100645780638f32d59b146101b75780639b56d6c9146101e0578063a3f4df7e14610213578063b08bc7221461029d578063b32beb5b146102b2578063b7f8cf9b146102e5576100c5565b806314f6c3be146100ca578063363bf964146100f15780633f10abab146101385780635a4d28bb146101715780638da5cb5b146101a2576100c5565b366100c5576100ad6102fa565b6004546100c0903463ffffffff61034516565b600455005b600080fd5b3480156100d657600080fd5b506100df6103a6565b60408051918252519081900360200190f35b3480156100fd57600080fd5b506101366004803603606081101561011457600080fd5b506001600160a01b0381358116916020810135821691604090910135166103ac565b005b34801561014457600080fd5b506101366004803603604081101561015b57600080fd5b506001600160a01b038135169060200135610512565b34801561017d57600080fd5b5061018661059e565b604080516001600160a01b039092168252519081900360200190f35b3480156101ae57600080fd5b506101866105ad565b3480156101c357600080fd5b506101cc6105bc565b604080519115158252519081900360200190f35b3480156101ec57600080fd5b506100df6004803603602081101561020357600080fd5b50356001600160a01b03166105cd565b34801561021f57600080fd5b506102286105e8565b6040805160208082528351818301528351919283929083019185019080838360005b8381101561026257818101518382015260200161024a565b50505050905090810190601f16801561028f5780820380516001836020036101000a031916815260200191505b509250505060405180910390f35b3480156102a957600080fd5b50610186610613565b3480156102be57600080fd5b50610136600480360360208110156102d557600080fd5b50356001600160a01b0316610622565b3480156102f157600080fd5b506101866107b7565b6003546001600160a01b031633146103435760405162461bcd60e51b815260040180806020018281038252602a815260200180610a5b602a913960400191505060405180910390fd5b565b60008282018381101561039f576040805162461bcd60e51b815260206004820152601b60248201527f536166654d6174683a206164646974696f6e206f766572666c6f770000000000604482015290519081900360640190fd5b9392505050565b60045490565b6103b46105bc565b610405576040805162461bcd60e51b815260206004820181905260248201527f4f776e61626c653a2063616c6c6572206973206e6f7420746865206f776e6572604482015290519081900360640190fd5b61040e836107c6565b610417826107c6565b610420816107c6565b600180546001600160a01b038086166001600160a01b0319928316811790935560028054868316908416179055600380549185169190921617905560408051918252517f3ca631ffcd2a9b5d9ae18543fc82f58eb4ca33af9e6ab01b7a8e95331e6ed9859181900360200190a1604080516001600160a01b038416815290517f143219c9e69b09e07e095fcc889b43d8f46ca892bba65f08dc3a0050869a56789181900360200190a1604080516001600160a01b038316815290517f78f058b189175430c48dc02699e3a0031ea4ff781536dc2fab847de4babdd8829181900360200190a161050d610879565b505050565b61051a6108c3565b6001600160a01b038216600090815260056020526040812054610543908363ffffffff61034516565b6001600160a01b0384166000818152600560209081526040918290208490558151848152915193945091927ff0393a34d05e6567686ad4e097f9d9d2781565957394f1f0d984e5d8e6378f20929181900390910190a2505050565b6002546001600160a01b031681565b6000546001600160a01b031690565b6000546001600160a01b0316331490565b6001600160a01b031660009081526005602052604090205490565b6040518060400160405280600f81526020016e10dbdb1b14dd5c9c1b1d5cd41bdbdb608a1b81525081565b6003546001600160a01b031681565b61062a61090c565b6001600160a01b0381166000908152600560205260409020548061067f5760405162461bcd60e51b8152600401808060200182810382526031815260200180610a2a6031913960400191505060405180910390fd5b6001600160a01b03821660008181526005602090815260408083208390558051928352517ff0393a34d05e6567686ad4e097f9d9d2781565957394f1f0d984e5d8e6378f209281900390910190a26004546106e0908263ffffffff61095516565b600455604080516001600160a01b03841681526020810183905281517f6109e2559dfa766aaec7118351d48a523f0a4157f49c8d68749c8ac41318ad12929181900390910190a16040516000906001600160a01b0384169083908381818185875af1925050503d8060008114610772576040519150601f19603f3d011682016040523d82523d6000602084013e610777565b606091505b505090508061050d5760405162461bcd60e51b8152600401808060200182810382526023815260200180610a856023913960400191505060405180910390fd5b6001546001600160a01b031681565b6001600160a01b038116610821576040805162461bcd60e51b815260206004820152601e60248201527f4163636f756e742063616e6e6f74206265207a65726f20616464726573730000604482015290519081900360640190fd5b803b80610875576040805162461bcd60e51b815260206004820181905260248201527f4163636f756e7420636f64652073697a652063616e6e6f74206265207a65726f604482015290519081900360640190fd5b5050565b600080546040516001600160a01b03909116907f8be0079c531659141344cd1fd0a4f28419497f9722a3daafe3b4186f6b6457e0908390a3600080546001600160a01b0319169055565b6002546001600160a01b031633146103435760405162461bcd60e51b815260040180806020018281038252602b815260200180610ada602b913960400191505060405180910390fd5b6001546001600160a01b031633146103435760405162461bcd60e51b8152600401808060200182810382526032815260200180610aa86032913960400191505060405180910390fd5b600061039f83836040518060400160405280601e81526020017f536166654d6174683a207375627472616374696f6e206f766572666c6f77000081525060008184841115610a215760405162461bcd60e51b81526004018080602001828103825283818151815260200191508051906020019080838360005b838110156109e65781810151838201526020016109ce565b50505050905090810190601f168015610a135780820380516001836020036101000a031916815260200191505b509250505060405180910390fd5b50505090039056fe436f6c6c537572706c7573506f6f6c3a204e6f20636f6c6c61746572616c20617661696c61626c6520746f20636c61696d436f6c6c537572706c7573506f6f6c3a2043616c6c6572206973206e6f742041637469766520506f6f6c436f6c6c537572706c7573506f6f6c3a2073656e64696e6720455448206661696c6564436f6c6c537572706c7573506f6f6c3a2043616c6c6572206973206e6f7420426f72726f776572204f7065726174696f6e73436f6c6c537572706c7573506f6f6c3a2043616c6c6572206973206e6f742054726f76654d616e61676572a2646970667358221220af768870d1a17ac3ec6f54f84701f8afa72397e127b7185e673efb442d546de864736f6c634300060b00336080604052680ad78ebc5ac620000060005534801561001d57600080fd5b5060cb8061002c6000396000f3fe6080604052348015600f57600080fd5b5060043610603c5760003560e01c80630fdb11cf14604157806391b7f5ed14605957806398d5fdca146041575b600080fd5b60476087565b60408051918252519081900360200190f35b607360048036036020811015606d57600080fd5b5035608d565b604080519115158252519081900360200190f35b60005490565b60005560019056fea2646970667358221220987d1afde74388e098a39b40724f88f529e6c3ebb79473037c7e38555b3a243e64736f6c634300060b0033608060405234801561001057600080fd5b50600080546001600160a01b0319163390811782556040519091907f8be0079c531659141344cd1fd0a4f28419497f9722a3daafe3b4186f6b6457e0908290a36118ce8061005f6000396000f3fe608060405234801561001057600080fd5b50600436106101375760003560e01c8063681fe70c116100b8578063a3f4df7e1161007c578063a3f4df7e1461036a578063b72703ac146103e7578063b7f8cf9b1461040d578063babd3d9a14610415578063de8fa4311461041d578063f376d7981461042557610137565b8063681fe70c146102f257806373d4a13a146102fa578063765e0159146103345780638da5cb5b1461035a5780638f32d59b1461036257610137565b8063416980dc116100ff578063416980dc1461021457806346f7cf871461026e5780634d622831146102aa5780635dbe47e8146102b257806363e1d57c146102d857610137565b80631e2231431461013c57806329092d0e146101605780632be21260146101885780633d83908a146101c45780633fce12d5146101cc575b600080fd5b610144610459565b604080516001600160a01b039092168252519081900360200190f35b6101866004803603602081101561017657600080fd5b50356001600160a01b0316610468565b005b6101866004803603608081101561019e57600080fd5b506001600160a01b0381358116916020810135916040820135811691606001351661047c565b610144610531565b610200600480360360608110156101e257600080fd5b508035906001600160a01b0360208201358116916040013516610540565b604080519115158252519081900360200190f35b6102486004803603606081101561022a57600080fd5b508035906001600160a01b0360208201358116916040013516610563565b604080516001600160a01b03938416815291909216602082015281519081900390910190f35b6101866004803603608081101561028457600080fd5b506001600160a01b0381358116916020810135916040820135811691606001351661058d565b6101446105a2565b610200600480360360208110156102c857600080fd5b50356001600160a01b03166105b1565b6102e06105cf565b60408051918252519081900360200190f35b6102006105d5565b6103026105dc565b604080516001600160a01b03958616815293909416602084015282840191909152606082015290519081900360800190f35b6101446004803603602081101561034a57600080fd5b50356001600160a01b03166105fb565b61014461061e565b61020061062d565b61037261063e565b6040805160208082528351818301528351919283929083019185019080838360005b838110156103ac578181015183820152602001610394565b50505050905090810190601f1680156103d95780820380516001836020036101000a031916815260200191505b509250505060405180910390f35b610144600480360360208110156103fd57600080fd5b50356001600160a01b0316610666565b610144610687565b610200610696565b6102e06106a0565b6101866004803603606081101561043b57600080fd5b508035906001600160a01b03602082013581169160400135166106a6565b6003546001600160a01b031690565b6104706107fe565b61047981610849565b50565b6002546001600160a01b031661049181610a7d565b61049a856105b1565b6104d55760405162461bcd60e51b815260040180806020018281038252602a8152602001806117d1602a913960400191505060405180910390fd5b600084116105145760405162461bcd60e51b81526004018080602001828103825260238152602001806118766023913960400191505060405180910390fd5b61051d85610849565b61052a8186868686610ad9565b5050505050565b6002546001600160a01b031681565b60025460009061055b906001600160a01b0316858585610e5d565b949350505050565b6002546000908190610580906001600160a01b0316868686611104565b915091505b935093915050565b6002546001600160a01b031661051d81610a7d565b6004546001600160a01b031690565b6001600160a01b031660009081526007602052604090205460ff1690565b60055490565b6006541590565b6003546004546005546006546001600160a01b03938416939092169184565b6001600160a01b0390811660009081526007602052604090205461010090041690565b6000546001600160a01b031690565b6000546001600160a01b0316331490565b6040518060400160405280600c81526020016b536f7274656454726f76657360a01b81525081565b6001600160a01b039081166000908152600760205260409020600101541690565b6001546001600160a01b031681565b6005546006541490565b60065490565b6106ae61062d565b6106ff576040805162461bcd60e51b815260206004820181905260248201527f4f776e61626c653a2063616c6c6572206973206e6f7420746865206f776e6572604482015290519081900360640190fd5b6000831161073e5760405162461bcd60e51b81526004018080602001828103825260228152602001806117fb6022913960400191505060405180910390fd5b610747826112f1565b610750816112f1565b6005839055600280546001600160a01b038085166001600160a01b03199283168117909355600180549185169190921617905560408051918252517f143219c9e69b09e07e095fcc889b43d8f46ca892bba65f08dc3a0050869a56789181900360200190a1604080516001600160a01b038316815290517f3ca631ffcd2a9b5d9ae18543fc82f58eb4ca33af9e6ab01b7a8e95331e6ed9859181900360200190a16107f96113a4565b505050565b6002546001600160a01b031633146108475760405162461bcd60e51b815260040180806020018281038252602c81526020018061181d602c913960400191505060405180910390fd5b565b610852816105b1565b61088d5760405162461bcd60e51b815260040180806020018281038252602a8152602001806117d1602a913960400191505060405180910390fd5b600654600110156109d3576003546001600160a01b03828116911614156108fc576001600160a01b03818116600090815260076020526040808220546003805461010090920485166001600160a01b0319928316179081905590931682529020600101805490911690556109ce565b6004546001600160a01b0382811691161415610963576001600160a01b0380821660009081526007602052604080822060010154600480546001600160a01b03191691851691909117908190559092168152208054610100600160a81b03191690556109ce565b6001600160a01b038082166000908152600760205260408082208054600180830180548716865284862080546101009485900489168502610100600160a81b03199091161790555492549190910485168452919092200180546001600160a01b031916919092161790555b6109f0565b600380546001600160a01b03199081169091556004805490911690555b6001600160a01b038116600090815260076020526040902080546001600160a81b0319168155600190810180546001600160a01b0319169055600654610a3b9163ffffffff6113ee16565b600655604080516001600160a01b038316815290517fcfc24166db4bb677e857cacabd1541fb2b30645021b27c5130419589b84db52b9181900360200190a150565b6001546001600160a01b0316331480610a9e5750336001600160a01b038216145b6104795760405162461bcd60e51b815260040180806020018281038252602d815260200180611849602d913960400191505060405180910390fd5b610ae1610696565b15610b33576040805162461bcd60e51b815260206004820152601a60248201527f536f7274656454726f7665733a204c6973742069732066756c6c000000000000604482015290519081900360640190fd5b610b3c846105b1565b15610b785760405162461bcd60e51b815260040180806020018281038252602c8152602001806117a5602c913960400191505060405180910390fd5b6001600160a01b038416610bd3576040805162461bcd60e51b815260206004820152601f60248201527f536f7274656454726f7665733a2049642063616e6e6f74206265207a65726f00604482015290519081900360640190fd5b60008311610c125760405162461bcd60e51b81526004018080602001828103825260238152602001806118766023913960400191505060405180910390fd5b8181610c2087868484610e5d565b610c3657610c3087868484611104565b90925090505b6001600160a01b038087166000908152600760205260409020805460ff191660011790558216158015610c7057506001600160a01b038116155b15610ca557600380546001600160a01b0388166001600160a01b03199182168117909255600480549091169091179055610df9565b6001600160a01b038216610d1957600380546001600160a01b03888116600081815260076020526040808220805495851661010002610100600160a81b0319909616959095179094558454909216825291902060010180546001600160a01b03199081168317909155825416179055610df9565b6001600160a01b038116610d8957600480546001600160a01b0388811660008181526007602052604080822060010180549585166001600160a01b031996871617905585549093168152919091208054610100600160a81b03191661010083021790558254909116179055610df9565b6001600160a01b038087166000818152600760205260408082208054858716610100818102610100600160a81b031993841617845560019384018054988b166001600160a01b0319998a168117909155865284862080549188029190931617909155835291200180549092161790555b600654610e0d90600163ffffffff61143716565b600655604080516001600160a01b03881681526020810187905281517fe02b43adbee0c123de070a04554a71877a0007e2fc161466299cae3c094fe82f929181900390910190a150505050505050565b60006001600160a01b038316158015610e7d57506001600160a01b038216155b15610e9157610e8a6105d5565b905061055b565b6001600160a01b038316610f43576003546001600160a01b038381169116148015610e8a5750846001600160a01b031663b0d8e181836040518263ffffffff1660e01b815260040180826001600160a01b03166001600160a01b0316815260200191505060206040518083038186803b158015610f0d57600080fd5b505afa158015610f21573d6000803e3d6000fd5b505050506040513d6020811015610f3757600080fd5b5051841015905061055b565b6001600160a01b038216610ff5576004546001600160a01b038481169116148015610e8a5750846001600160a01b031663b0d8e181846040518263ffffffff1660e01b815260040180826001600160a01b03166001600160a01b0316815260200191505060206040518083038186803b158015610fbf57600080fd5b505afa158015610fd3573d6000803e3d6000fd5b505050506040513d6020811015610fe957600080fd5b5051841115905061055b565b6001600160a01b03838116600090815260076020526040902054610100900481169083161480156110a7575083856001600160a01b031663b0d8e181856040518263ffffffff1660e01b815260040180826001600160a01b03166001600160a01b0316815260200191505060206040518083038186803b15801561107857600080fd5b505afa15801561108c573d6000803e3d6000fd5b505050506040513d60208110156110a257600080fd5b505110155b8015610e8a5750846001600160a01b031663b0d8e181836040518263ffffffff1660e01b815260040180826001600160a01b03166001600160a01b0316815260200191505060206040518083038186803b158015610f0d57600080fd5b60008083836001600160a01b038216156111b757611121826105b1565b15806111ad5750876001600160a01b031663b0d8e181836040518263ffffffff1660e01b815260040180826001600160a01b03166001600160a01b0316815260200191505060206040518083038186803b15801561117e57600080fd5b505afa158015611192573d6000803e3d6000fd5b505050506040513d60208110156111a857600080fd5b505187115b156111b757600091505b6001600160a01b03811615611264576111cf816105b1565b158061125b5750876001600160a01b031663b0d8e181826040518263ffffffff1660e01b815260040180826001600160a01b03166001600160a01b0316815260200191505060206040518083038186803b15801561122c57600080fd5b505afa158015611240573d6000803e3d6000fd5b505050506040513d602081101561125657600080fd5b505187105b15611264575060005b6001600160a01b03821615801561128257506001600160a01b038116155b156112ab576003546112a090899089906001600160a01b0316611491565b9350935050506112e8565b6001600160a01b0382166112c4576112a08888836115d2565b6001600160a01b0381166112dd576112a0888884611491565b6112a0888884611491565b94509492505050565b6001600160a01b03811661134c576040805162461bcd60e51b815260206004820152601e60248201527f4163636f756e742063616e6e6f74206265207a65726f20616464726573730000604482015290519081900360640190fd5b803b806113a0576040805162461bcd60e51b815260206004820181905260248201527f4163636f756e7420636f64652073697a652063616e6e6f74206265207a65726f604482015290519081900360640190fd5b5050565b600080546040516001600160a01b03909116907f8be0079c531659141344cd1fd0a4f28419497f9722a3daafe3b4186f6b6457e0908390a3600080546001600160a01b0319169055565b600061143083836040518060400160405280601e81526020017f536166654d6174683a207375627472616374696f6e206f766572666c6f77000081525061170d565b9392505050565b600082820183811015611430576040805162461bcd60e51b815260206004820152601b60248201527f536166654d6174683a206164646974696f6e206f766572666c6f770000000000604482015290519081900360640190fd5b60035460009081906001600160a01b0384811691161480156115345750846001600160a01b031663b0d8e181846040518263ffffffff1660e01b815260040180826001600160a01b03166001600160a01b0316815260200191505060206040518083038186803b15801561150457600080fd5b505afa158015611518573d6000803e3d6000fd5b505050506040513d602081101561152e57600080fd5b50518410155b1561154457506000905081610585565b6001600160a01b038084166000908152600760205260409020548491610100909104165b6001600160a01b03821615801590611589575061158787878484610e5d565b155b156115c657506001600160a01b03908116600090815260076020526040808220546101009081900484168084529190922054909291900416611568565b90969095509350505050565b60045460009081906001600160a01b0384811691161480156116755750846001600160a01b031663b0d8e181846040518263ffffffff1660e01b815260040180826001600160a01b03166001600160a01b0316815260200191505060206040518083038186803b15801561164557600080fd5b505afa158015611659573d6000803e3d6000fd5b505050506040513d602081101561166f57600080fd5b50518411155b1561168557508190506000610585565b6001600160a01b038084166000908152600760205260409020600101548491165b6001600160a01b038216158015906116c757506116c587878385610e5d565b155b1561170257506001600160a01b03908116600090815260076020526040808220600190810154841680845291909220909101549091166116a6565b969095509350505050565b6000818484111561179c5760405162461bcd60e51b81526004018080602001828103825283818151815260200191508051906020019080838360005b83811015611761578181015183820152602001611749565b50505050905090810190601f16801561178e5780820380516001836020036101000a031916815260200191505b509250505060405180910390fd5b50505090039056fe536f7274656454726f7665733a204c69737420616c726561647920636f6e7461696e7320746865206e6f6465536f7274656454726f7665733a204c69737420646f6573206e6f7420636f6e7461696e20746865206964536f7274656454726f7665733a2053697a652063616ee2809974206265207a65726f536f7274656454726f7665733a2043616c6c6572206973206e6f74207468652054726f76654d616e61676572536f7274656454726f7665733a2043616c6c6572206973206e65697468657220424f206e6f722054726f76654d536f7274656454726f7665733a204e494352206d75737420626520706f736974697665a26469706673582212201d874b55cf00dbe12667ece34475e1aad0be33f636deb090d42aa2285522364f64736f6c634300060b0033608060405234801561001057600080fd5b50604051610e35380380610e358339818101604052608081101561003357600080fd5b50805160208201516040830151606090930151600080546001600160a01b039485166001600160a01b0319918216179091556001805493851693821693909317909255600280549484169483169490941790935560038054929093169116179055610d92806100a36000396000f3fe6080604052600436106100ed5760003560e01c80637a97d838116100855780637a97d8381461034f5780637bbb0f5e1461039057806391134731146103d1578063cc51a6c214610413578063cf83544f1461044c578063d466e4eb14610485578063d94bcec2146104be578063f47a1ea714610501578063fb8d67fc1461052b576100f4565b806332e859b9146100f957806335b101791461012f578063390b5f271461018a5780634903a3dd146101d75780634afbac51146101ec5780634c36240b146102695780634d37261f146102a2578063641b09b6146102d5578063650b559c146102ff576100f4565b366100f457005b600080fd5b61012d6004803603606081101561010f57600080fd5b508035906001600160a01b0360208201358116916040013516610574565b005b34801561013b57600080fd5b5061012d600480360360e081101561015257600080fd5b508035906001600160a01b03602082013581169160408101358216916060820135169060808101359060a08101359060c001356105eb565b34801561019657600080fd5b506101c3600480360360408110156101ad57600080fd5b506001600160a01b038135169060200135610683565b604080519115158252519081900360200190f35b3480156101e357600080fd5b5061012d61070f565b3480156101f857600080fd5b5061012d6004803603602081101561020f57600080fd5b81019060208101813564010000000081111561022a57600080fd5b82018360208201111561023c57600080fd5b8035906020019184602083028401116401000000008311171561025e57600080fd5b509092509050610779565b34801561027557600080fd5b5061012d6004803603604081101561028c57600080fd5b50803590602001356001600160a01b0316610812565b3480156102ae57600080fd5b5061012d600480360360208110156102c557600080fd5b50356001600160a01b0316610867565b3480156102e157600080fd5b5061012d600480360360208110156102f857600080fd5b50356108cd565b61012d600480360360e081101561031557600080fd5b5080359060208101359060408101359060608101351515906001600160a01b03608082013581169160a08101359091169060c0013561091a565b34801561035b57600080fd5b5061012d6004803603606081101561037257600080fd5b508035906001600160a01b03602082013581169160400135166109b2565b34801561039c57600080fd5b5061012d600480360360608110156103b357600080fd5b508035906001600160a01b0360208201358116916040013516610a2c565b61012d600480360360a08110156103e757600080fd5b508035906020810135906001600160a01b03604082013581169160608101359091169060800135610a89565b34801561041f57600080fd5b506101c36004803603604081101561043657600080fd5b506001600160a01b038135169060200135610b10565b34801561045857600080fd5b506101c36004803603604081101561046f57600080fd5b506001600160a01b038135169060200135610b69565b34801561049157600080fd5b506101c3600480360360408110156104a857600080fd5b506001600160a01b038135169060200135610bc2565b3480156104ca57600080fd5b506101c3600480360360608110156104e157600080fd5b506001600160a01b03813581169160208101359091169060400135610c1b565b34801561050d57600080fd5b5061012d6004803603602081101561052457600080fd5b5035610cb0565b34801561053757600080fd5b5061012d6004803603608081101561054e57600080fd5b508035906001600160a01b03602082013581169160408101359091169060600135610cf8565b600154604080516368647db160e01b81526001600160a01b0385811660048301528481166024830152915191909216916368647db191869160448082019260009290919082900301818588803b1580156105cd57600080fd5b505af11580156105e1573d6000803e3d6000fd5b5050505050505050565b6000805460408051635e69ba9360e11b8152600481018b90526001600160a01b038a81166024830152898116604483015288811660648301526084820188905260a4820187905260c482018690529151919092169263bcd375269260e4808201939182900301818387803b15801561066257600080fd5b505af1158015610676573d6000803e3d6000fd5b5050505050505050505050565b6003546040805163a9059cbb60e01b81526001600160a01b038581166004830152602482018590529151600093929092169163a9059cbb9160448082019260209290919082900301818787803b1580156106dc57600080fd5b505af11580156106f0573d6000803e3d6000fd5b505050506040513d602081101561070657600080fd5b50519392505050565b600160009054906101000a90046001600160a01b03166001600160a01b0316630e704d506040518163ffffffff1660e01b8152600401600060405180830381600087803b15801561075f57600080fd5b505af1158015610773573d6000803e3d6000fd5b50505050565b600054604051631e8b1c2b60e01b8152602060048201818152602483018590526001600160a01b0390931692631e8b1c2b92869286929182916044909101908590850280828437600081840152601f19601f8201169050808301925050509350505050600060405180830381600087803b1580156107f657600080fd5b505af115801561080a573d6000803e3d6000fd5b505050505050565b60025460408051635f788d6560e01b8152600481018590526001600160a01b03848116602483015291519190921691635f788d6591604480830192600092919082900301818387803b1580156107f657600080fd5b60008054604080516305f0caad60e31b81526001600160a01b03858116600483015291519190921692632f865568926024808201939182900301818387803b1580156108b257600080fd5b505af11580156108c6573d6000803e3d6000fd5b5050505050565b60025460408051632e54bf9560e01b81526004810184905290516001600160a01b0390921691632e54bf959160248082019260009290919082900301818387803b1580156108b257600080fd5b60015460408051630635367960e51b815260048101849052602481018990526044810188905286151560648201526001600160a01b03868116608483015285811660a48301529151919092169163c6a6cf20918a9160c48082019260009290919082900301818588803b15801561099057600080fd5b505af11580156109a4573d6000803e3d6000fd5b505050505050505050505050565b600154604080516304491fa760e01b8152600481018690526001600160a01b0385811660248301528481166044830152915191909216916304491fa791606480830192600092919082900301818387803b158015610a0f57600080fd5b505af1158015610a23573d6000803e3d6000fd5b50505050505050565b6001546040805163154c09cf60e21b8152600481018690526001600160a01b038581166024830152848116604483015291519190921691635530273c91606480830192600092919082900301818387803b158015610a0f57600080fd5b6001546040805163860665b360e01b815260048101849052602481018790526001600160a01b03868116604483015285811660648301529151919092169163860665b391889160848082019260009290919082900301818588803b158015610af057600080fd5b505af1158015610b04573d6000803e3d6000fd5b50505050505050505050565b60035460408051633950935160e01b81526001600160a01b038581166004830152602482018590529151600093929092169163395093519160448082019260209290919082900301818787803b1580156106dc57600080fd5b6003546040805163095ea7b360e01b81526001600160a01b038581166004830152602482018590529151600093929092169163095ea7b39160448082019260209290919082900301818787803b1580156106dc57600080fd5b6003546040805163a457c2d760e01b81526001600160a01b038581166004830152602482018590529151600093929092169163a457c2d79160448082019260209290919082900301818787803b1580156106dc57600080fd5b600354604080516323b872dd60e01b81526001600160a01b038681166004830152858116602483015260448201859052915160009392909216916323b872dd9160648082019260209290919082900301818787803b158015610c7c57600080fd5b505af1158015610c90573d6000803e3d6000fd5b505050506040513d6020811015610ca657600080fd5b5051949350505050565b600080546040805163653d46e760e01b81526004810185905290516001600160a01b039092169263653d46e79260248084019382900301818387803b1580156108b257600080fd5b600154604080516302309cbf60e31b815260048101849052602481018790526001600160a01b038681166044830152858116606483015291519190921691631184e5f891608480830192600092919082900301818387803b1580156105cd57600080fdfea2646970667358221220e0c37da3993278cfbf2118993e869007153c5e698727c39e00e1693577976eaf64736f6c634300060b0033",
  "linkReferences": {},
  "deployedLinkReferences": {}
}