{
  "_format": "hh-sol-artifact-1",
  "contractName": "FunctionCaller",
  "sourceName": "contracts/TestContracts/FunctionCaller.sol",
  "abi": [
    {
      "inputs": [],
      "name": "priceFeedAddress",
      "outputs": [
        {
          "internalType": "address",
          "name": "",
          "type": "address"
        }
      ],
      "stateMutability": "view",
      "type": "function"
    },
    {
      "inputs": [
        {
          "internalType": "address",
          "name": "_priceFeedAddress",
          "type": "address"
        }
      ],
      "name": "setPriceFeedAddress",
      "outputs": [],
      "stateMutability": "nonpayable",
      "type": "function"
    },
    {
      "inputs": [
        {
          "internalType": "address",
          "name": "_sortedTrovesAddress",
          "type": "address"
        }
      ],
      "name": "setSortedTrovesAddress",
      "outputs": [],
      "stateMutability": "nonpayable",
      "type": "function"
    },
    {
      "inputs": [
        {
          "internalType": "address",
          "name": "_troveManagerAddress",
          "type": "address"
        }
      ],
      "name": "setTroveManagerAddress",
      "outputs": [],
      "stateMutability": "nonpayable",
      "type": "function"
    },
    {
      "inputs": [],
      "name": "sortedTrovesAddress",
      "outputs": [
        {
          "internalType": "address",
          "name": "",
          "type": "address"
        }
      ],
      "stateMutability": "view",
      "type": "function"
    },
    {
      "inputs": [
        {
          "internalType": "uint256",
          "name": "_ICR",
          "type": "uint256"
        },
        {
          "internalType": "uint256",
          "name": "_price",
          "type": "uint256"
        },
        {
          "internalType": "address",
          "name": "_prevId",
          "type": "address"
        },
        {
          "internalType": "address",
          "name": "_nextId",
          "type": "address"
        }
      ],
      "name": "sortedTroves_findInsertPosition",
      "outputs": [
        {
          "internalType": "address",
          "name": "",
          "type": "address"
        },
        {
          "internalType": "address",
          "name": "",
          "type": "address"
        }
      ],
      "stateMutability": "nonpayable",
      "type": "function"
    },
    {
      "inputs": [],
      "name": "troveManagerAddress",
      "outputs": [
        {
          "internalType": "address",
          "name": "",
          "type": "address"
        }
      ],
      "stateMutability": "view",
      "type": "function"
    },
    {
      "inputs": [
        {
          "internalType": "address",
          "name": "_address",
          "type": "address"
        },
        {
          "internalType": "uint256",
          "name": "_price",
          "type": "uint256"
        }
      ],
      "name": "troveManager_getCurrentICR",
      "outputs": [
        {
          "internalType": "uint256",
          "name": "",
          "type": "uint256"
        }
      ],
      "stateMutability": "nonpayable",
      "type": "function"
    }
  ],
  "bytecode": "0x608060405234801561001057600080fd5b506103d4806100206000396000f3fe608060405234801561001057600080fd5b50600436106100775760003560e01c8062cf5db41461007c5780632caffa81146100a45780634a5f2f45146100c85780635a4d28bb14610128578063a06dec7114610130578063ced2027c14610156578063e0abca0b1461017c578063f4f9e54614610184575b600080fd5b6100a26004803603602081101561009257600080fd5b50356001600160a01b03166101c2565b005b6100ac6101ee565b604080516001600160a01b039092168252519081900360200190f35b610102600480360360808110156100de57600080fd5b508035906020810135906001600160a01b03604082013581169160600135166101fd565b604080516001600160a01b03938416815291909216602082015281519081900390910190f35b6100ac6102a0565b6100a26004803603602081101561014657600080fd5b50356001600160a01b03166102af565b6100a26004803603602081101561016c57600080fd5b50356001600160a01b03166102db565b6100ac610307565b6101b06004803603604081101561019a57600080fd5b506001600160a01b038135169060200135610316565b60408051918252519081900360200190f35b600580546001600160a01b039092166001600160a01b0319928316811790915560048054909216179055565b6003546001600160a01b031681565b600254604080516336d2368360e01b815260048101879052602481018690526001600160a01b0385811660448301528481166064830152825160009485949216926336d23683926084808301939192829003018186803b15801561026057600080fd5b505afa158015610274573d6000803e3d6000fd5b505050506040513d604081101561028a57600080fd5b5080516020909101519097909650945050505050565b6001546001600160a01b031681565b600180546001600160a01b039092166001600160a01b0319928316811790915560028054909216179055565b600180546001600160a01b039092166001600160a01b0319928316811790915560008054909216179055565b6005546001600160a01b031681565b6000805460408051630d293c7160e41b81526001600160a01b038681166004830152602482018690529151919092169163d293c710916044808301926020929190829003018186803b15801561036b57600080fd5b505afa15801561037f573d6000803e3d6000fd5b505050506040513d602081101561039557600080fd5b5051939250505056fea264697066735822122019668ed6b8be83ea612556049a88a02b4f759d29c6be8d09392d8477826ad0fc64736f6c634300060b0033",
  "linkReferences": {},
  "deployedLinkReferences": {}
}