{
  "_format": "hh-sol-artifact-1",
  "contractName": "HintHelpers",
  "sourceName": "contracts/HintHelpers.sol",
  "abi": [
    {
      "anonymous": false,
      "inputs": [
        {
          "indexed": true,
          "internalType": "address",
          "name": "previousOwner",
          "type": "address"
        },
        {
          "indexed": true,
          "internalType": "address",
          "name": "newOwner",
          "type": "address"
        }
      ],
      "name": "OwnershipTransferred",
      "type": "event"
    },
    {
      "anonymous": false,
      "inputs": [
        {
          "indexed": false,
          "internalType": "address",
          "name": "_sortedTrovesAddress",
          "type": "address"
        }
      ],
      "name": "SortedTrovesAddressChanged",
      "type": "event"
    },
    {
      "anonymous": false,
      "inputs": [
        {
          "indexed": false,
          "internalType": "address",
          "name": "_troveManagerAddress",
          "type": "address"
        }
      ],
      "name": "TroveManagerAddressChanged",
      "type": "event"
    },
    {
      "inputs": [],
      "name": "CCR",
      "outputs": [
        {
          "internalType": "uint256",
          "name": "",
          "type": "uint256"
        }
      ],
      "stateMutability": "view",
      "type": "function"
    },
    {
      "inputs": [],
      "name": "DECIMAL_PRECISION",
      "outputs": [
        {
          "internalType": "uint256",
          "name": "",
          "type": "uint256"
        }
      ],
      "stateMutability": "view",
      "type": "function"
    },
    {
      "inputs": [],
      "name": "LUSD_GAS_COMPENSATION",
      "outputs": [
        {
          "internalType": "uint256",
          "name": "",
          "type": "uint256"
        }
      ],
      "stateMutability": "view",
      "type": "function"
    },
    {
      "inputs": [],
      "name": "MCR",
      "outputs": [
        {
          "internalType": "uint256",
          "name": "",
          "type": "uint256"
        }
      ],
      "stateMutability": "view",
      "type": "function"
    },
    {
      "inputs": [],
      "name": "PERCENT_DIVISOR",
      "outputs": [
        {
          "internalType": "uint256",
          "name": "",
          "type": "uint256"
        }
      ],
      "stateMutability": "view",
      "type": "function"
    },
    {
      "inputs": [],
      "name": "R_MCR",
      "outputs": [
        {
          "internalType": "uint256",
          "name": "",
          "type": "uint256"
        }
      ],
      "stateMutability": "view",
      "type": "function"
    },
    {
      "inputs": [],
      "name": "_100pct",
      "outputs": [
        {
          "internalType": "uint256",
          "name": "",
          "type": "uint256"
        }
      ],
      "stateMutability": "view",
      "type": "function"
    },
    {
      "inputs": [],
      "name": "activePool",
      "outputs": [
        {
          "internalType": "contract IActivePool",
          "name": "",
          "type": "address"
        }
      ],
      "stateMutability": "view",
      "type": "function"
    },
    {
      "inputs": [
        {
          "internalType": "uint256",
          "name": "_coll",
          "type": "uint256"
        },
        {
          "internalType": "uint256",
          "name": "_debt",
          "type": "uint256"
        },
        {
          "internalType": "uint256",
          "name": "_price",
          "type": "uint256"
        }
      ],
      "name": "computeCR",
      "outputs": [
        {
          "internalType": "uint256",
          "name": "",
          "type": "uint256"
        }
      ],
      "stateMutability": "pure",
      "type": "function"
    },
    {
      "inputs": [
        {
          "internalType": "uint256",
          "name": "_coll",
          "type": "uint256"
        },
        {
          "internalType": "uint256",
          "name": "_debt",
          "type": "uint256"
        }
      ],
      "name": "computeNominalCR",
      "outputs": [
        {
          "internalType": "uint256",
          "name": "",
          "type": "uint256"
        }
      ],
      "stateMutability": "pure",
      "type": "function"
    },
    {
      "inputs": [],
      "name": "defaultPool",
      "outputs": [
        {
          "internalType": "contract IDefaultPool",
          "name": "",
          "type": "address"
        }
      ],
      "stateMutability": "view",
      "type": "function"
    },
    {
      "inputs": [
        {
          "internalType": "uint256",
          "name": "_CR",
          "type": "uint256"
        },
        {
          "internalType": "uint256",
          "name": "_numTrials",
          "type": "uint256"
        },
        {
          "internalType": "uint256",
          "name": "_inputRandomSeed",
          "type": "uint256"
        }
      ],
      "name": "getApproxHint",
      "outputs": [
        {
          "internalType": "address",
          "name": "hintAddress",
          "type": "address"
        },
        {
          "internalType": "uint256",
          "name": "diff",
          "type": "uint256"
        },
        {
          "internalType": "uint256",
          "name": "latestRandomSeed",
          "type": "uint256"
        }
      ],
      "stateMutability": "view",
      "type": "function"
    },
    {
      "inputs": [],
      "name": "getEntireSystemColl",
      "outputs": [
        {
          "internalType": "uint256",
          "name": "entireSystemColl",
          "type": "uint256"
        }
      ],
      "stateMutability": "view",
      "type": "function"
    },
    {
      "inputs": [],
      "name": "getEntireSystemDebt",
      "outputs": [
        {
          "internalType": "uint256",
          "name": "entireSystemDebt",
          "type": "uint256"
        }
      ],
      "stateMutability": "view",
      "type": "function"
    },
    {
      "inputs": [
        {
          "internalType": "uint256",
          "name": "_LUSDamount",
          "type": "uint256"
        },
        {
          "internalType": "uint256",
          "name": "_price",
          "type": "uint256"
        },
        {
          "internalType": "uint256",
          "name": "_maxIterations",
          "type": "uint256"
        }
      ],
      "name": "getRedemptionHints",
      "outputs": [
        {
          "internalType": "address",
          "name": "firstRedemptionHint",
          "type": "address"
        },
        {
          "internalType": "uint256",
          "name": "partialRedemptionHintNICR",
          "type": "uint256"
        }
      ],
      "stateMutability": "view",
      "type": "function"
    },
    {
      "inputs": [],
      "name": "isOwner",
      "outputs": [
        {
          "internalType": "bool",
          "name": "",
          "type": "bool"
        }
      ],
      "stateMutability": "view",
      "type": "function"
    },
    {
      "inputs": [],
      "name": "owner",
      "outputs": [
        {
          "internalType": "address",
          "name": "",
          "type": "address"
        }
      ],
      "stateMutability": "view",
      "type": "function"
    },
    {
      "inputs": [],
      "name": "priceFeed",
      "outputs": [
        {
          "internalType": "contract IPriceFeed",
          "name": "",
          "type": "address"
        }
      ],
      "stateMutability": "view",
      "type": "function"
    },
    {
      "inputs": [
        {
          "internalType": "address",
          "name": "_sortedTrovesAddress",
          "type": "address"
        },
        {
          "internalType": "address",
          "name": "_troveManagerAddress",
          "type": "address"
        }
      ],
      "name": "setAddresses",
      "outputs": [],
      "stateMutability": "nonpayable",
      "type": "function"
    },
    {
      "inputs": [],
      "name": "sortedTroves",
      "outputs": [
        {
          "internalType": "contract ISortedTroves",
          "name": "",
          "type": "address"
        }
      ],
      "stateMutability": "view",
      "type": "function"
    },
    {
      "inputs": [],
      "name": "troveManager",
      "outputs": [
        {
          "internalType": "contract ITroveManager",
          "name": "",
          "type": "address"
        }
      ],
      "stateMutability": "view",
      "type": "function"
    }
  ],
  "bytecode": "0x608060405234801561001057600080fd5b50600380546001600160a01b031916339081179091556040516000907f8be0079c531659141344cd1fd0a4f28419497f9722a3daafe3b4186f6b6457e0908290a361131f806100606000396000f3fe608060405234801561001057600080fd5b50600436106101375760003560e01c8063795d26c3116100b85780638f32d59b1161007c5780638f32d59b1461029057806390107afe146102ac578063a20baee614610207578063ae918754146102dc578063c394a7fa146102e4578063f24344e61461030757610137565b8063795d26c31461021f5780637b41bdbe146102275780637f7dde4a14610278578063887105d3146102805780638da5cb5b1461028857610137565b8063525acdbb116100ff578063525acdbb146101d65780635733d58f146101ff57806372fe25aa14610207578063741bef1a1461020f578063794e57241461021757610137565b806313144dba1461013c5780632e86bbd8146101885780633cc74225146101a25780633d83908a146101c65780634870dd9a146101ce575b600080fd5b6101656004803603606081101561015257600080fd5b508035906020810135906040013561030f565b604080516001600160a01b03909316835260208301919091528051918290030190f35b61019061081b565b60408051918252519081900360200190f35b6101aa610827565b604080516001600160a01b039092168252519081900360200190f35b6101aa610836565b610190610845565b610190600480360360608110156101ec57600080fd5b508035906020810135906040013561084a565b610190610861565b61019061086d565b6101aa610879565b610190610888565b610190610894565b6102506004803603606081101561023d57600080fd5b5080359060208101359060400135610995565b604080516001600160a01b039094168452602084019290925282820152519081900360600190f35b6101aa610ca6565b610190610cb5565b6101aa610d71565b610298610d80565b604080519115158252519081900360200190f35b6102da600480360360408110156102c257600080fd5b506001600160a01b0381358116916020013516610d91565b005b6101aa610ea4565b610190600480360360408110156102fa57600080fd5b5080359060200135610eb3565b610190610ec8565b6004805460408051634d62283160e01b815290516000938493889385936001600160a01b0390921692634d622831928282019260209290829003018186803b15801561035a57600080fd5b505afa15801561036e573d6000803e3d6000fd5b505050506040513d602081101561038457600080fd5b505190505b6001600160a01b03811615801590610429575060055460408051630d293c7160e41b81526001600160a01b038481166004830152602482018a90529151670f43fc2c04ee000093929092169163d293c71091604480820192602092909190829003018186803b1580156103fb57600080fd5b505afa15801561040f573d6000803e3d6000fd5b505050506040513d602081101561042557600080fd5b5051105b156104b2576004805460408051632dc9c0eb60e21b81526001600160a01b03858116948201949094529051929091169163b72703ac91602480820192602092909190829003018186803b15801561047f57600080fd5b505afa158015610493573d6000803e3d6000fd5b505050506040513d60208110156104a957600080fd5b50519050610389565b925082846104c05760001994505b6001600160a01b038116158015906104d85750600082115b80156104e8575060001985019415155b1561081157600554604080516379a4316f60e11b81526001600160a01b03848116600483015291516000936105f993169163f34862de916024808301926020929190829003018186803b15801561053e57600080fd5b505afa158015610552573d6000803e3d6000fd5b505050506040513d602081101561056857600080fd5b50516005546040805163d66a255360e01b81526001600160a01b03878116600483015291516105ed93929092169163d66a255391602480820192602092909190829003018186803b1580156105bc57600080fd5b505afa1580156105d0573d6000803e3d6000fd5b505050506040513d60208110156105e657600080fd5b5051610ed4565b9063ffffffff610eee16565b90508281111561077a5760055460408051635d8c960960e01b81526001600160a01b0385811660048301529151600093610705931691635d8c9609916024808301926020929190829003018186803b15801561065457600080fd5b505afa158015610668573d6000803e3d6000fd5b505050506040513d602081101561067e57600080fd5b5051600554604080516309019aaf60e31b81526001600160a01b0388811660048301529151919092169163480cd578916024808301926020929190829003018186803b1580156106cd57600080fd5b505afa1580156106e1573d6000803e3d6000fd5b505050506040513d60208110156106f757600080fd5b50519063ffffffff610eee16565b905060006107416107348a61072888670de0b6b3a764000063ffffffff610f4816565b9063ffffffff610fa116565b839063ffffffff610fe316565b90506000610755848763ffffffff610fe316565b9050600061076282611025565b905061076e838261103f565b97505050505050610811565b61078a838263ffffffff610fe316565b6004805460408051632dc9c0eb60e21b81526001600160a01b0387811694820194909452905193965091169163b72703ac91602480820192602092909190829003018186803b1580156107dc57600080fd5b505afa1580156107f0573d6000803e3d6000fd5b505050506040513d602081101561080657600080fd5b505191506104c09050565b5050935093915050565b678ac7230489e8000081565b6001546001600160a01b031681565b6005546001600160a01b031681565b60c881565b6000610857848484611074565b90505b9392505050565b6714d1120d7b16000081565b670de0b6b3a764000081565b6002546001600160a01b031681565b670f43fc2c04ee000081565b6000805460408051632f5a97e560e11b8152905183926001600160a01b031691635eb52fca916004808301926020929190829003018186803b1580156108d957600080fd5b505afa1580156108ed573d6000803e3d6000fd5b505050506040513d602081101561090357600080fd5b505160015460408051632f5a97e560e11b815290519293506000926001600160a01b0390921691635eb52fca91600480820192602092909190829003018186803b15801561095057600080fd5b505afa158015610964573d6000803e3d6000fd5b505050506040513d602081101561097a57600080fd5b5051905061098e828263ffffffff610eee16565b9250505090565b600080600080600560009054906101000a90046001600160a01b03166001600160a01b03166349eefeee6040518163ffffffff1660e01b815260040160206040518083038186803b1580156109e957600080fd5b505afa1580156109fd573d6000803e3d6000fd5b505050506040513d6020811015610a1357600080fd5b5051905080610a2c575060009250829150839050610c9d565b6004805460408051634d62283160e01b815290516001600160a01b0390921692634d622831928282019260209290829003018186803b158015610a6e57600080fd5b505afa158015610a82573d6000803e3d6000fd5b505050506040513d6020811015610a9857600080fd5b50516005546040805163b0d8e18160e01b81526001600160a01b0380851660048301529151939750610b22938b93929092169163b0d8e18191602480820192602092909190829003018186803b158015610af157600080fd5b505afa158015610b05573d6000803e3d6000fd5b505050506040513d6020811015610b1b57600080fd5b50516110a4565b925084915060015b86811015610c9a57604080516020808201959095528151808203860181529082019091528051930192909220916000828481610b6257fe5b0690506000600560009054906101000a90046001600160a01b03166001600160a01b031663d9a72444836040518263ffffffff1660e01b81526004018082815260200191505060206040518083038186803b158015610bc057600080fd5b505afa158015610bd4573d6000803e3d6000fd5b505050506040513d6020811015610bea57600080fd5b50516005546040805163b0d8e18160e01b81526001600160a01b0380851660048301529151939450600093919092169163b0d8e181916024808301926020929190829003018186803b158015610c3f57600080fd5b505afa158015610c53573d6000803e3d6000fd5b505050506040513d6020811015610c6957600080fd5b505190506000610c79828d6110a4565b905087811015610c8a578097508298505b505060019092019150610b2a9050565b50505b93509350939050565b6000546001600160a01b031681565b6000805460408051630a7b61df60e11b8152905183926001600160a01b0316916314f6c3be916004808301926020929190829003018186803b158015610cfa57600080fd5b505afa158015610d0e573d6000803e3d6000fd5b505050506040513d6020811015610d2457600080fd5b505160015460408051630a7b61df60e11b815290519293506000926001600160a01b03909216916314f6c3be91600480820192602092909190829003018186803b15801561095057600080fd5b6003546001600160a01b031690565b6003546001600160a01b0316331490565b610d99610d80565b610dea576040805162461bcd60e51b815260206004820181905260248201527f4f776e61626c653a2063616c6c6572206973206e6f7420746865206f776e6572604482015290519081900360640190fd5b610df3826110d3565b610dfc816110d3565b600480546001600160a01b038085166001600160a01b03199283168117909355600580549185169190921617905560408051918252517f65f4cf077bc01e4742eb5ad98326f6e95b63548ea24b17f8d5e823111fe788009181900360200190a1604080516001600160a01b038316815290517f143219c9e69b09e07e095fcc889b43d8f46ca892bba65f08dc3a0050869a56789181900360200190a1610ea0611182565b5050565b6004546001600160a01b031681565b6000610ebf838361103f565b90505b92915050565b6729a2241af62c000081565b6000610ec282678ac7230489e8000063ffffffff610fe316565b600082820183811015610ebf576040805162461bcd60e51b815260206004820152601b60248201527f536166654d6174683a206164646974696f6e206f766572666c6f770000000000604482015290519081900360640190fd5b600082610f5757506000610ec2565b82820282848281610f6457fe5b0414610ebf5760405162461bcd60e51b81526004018080602001828103825260218152602001806112c96021913960400191505060405180910390fd5b6000610ebf83836040518060400160405280601a81526020017f536166654d6174683a206469766973696f6e206279207a65726f0000000000008152506111cc565b6000610ebf83836040518060400160405280601e81526020017f536166654d6174683a207375627472616374696f6e206f766572666c6f77000081525061126e565b6000610ec282678ac7230489e8000063ffffffff610eee16565b6000811561106b57611064826107288568056bc75e2d6310000063ffffffff610f4816565b9050610ec2565b50600019610ec2565b6000821561109b57600061109284610728878663ffffffff610f4816565b915061085a9050565b5060001961085a565b6000818310156110c3576110be828463ffffffff610fe316565b610ebf565b610ebf838363ffffffff610fe316565b6001600160a01b03811661112e576040805162461bcd60e51b815260206004820152601e60248201527f4163636f756e742063616e6e6f74206265207a65726f20616464726573730000604482015290519081900360640190fd5b803b80610ea0576040805162461bcd60e51b815260206004820181905260248201527f4163636f756e7420636f64652073697a652063616e6e6f74206265207a65726f604482015290519081900360640190fd5b6003546040516000916001600160a01b0316907f8be0079c531659141344cd1fd0a4f28419497f9722a3daafe3b4186f6b6457e0908390a3600380546001600160a01b0319169055565b600081836112585760405162461bcd60e51b81526004018080602001828103825283818151815260200191508051906020019080838360005b8381101561121d578181015183820152602001611205565b50505050905090810190601f16801561124a5780820380516001836020036101000a031916815260200191505b509250505060405180910390fd5b50600083858161126457fe5b0495945050505050565b600081848411156112c05760405162461bcd60e51b815260206004820181815283516024840152835190928392604490910191908501908083836000831561121d578181015183820152602001611205565b50505090039056fe536166654d6174683a206d756c7469706c69636174696f6e206f766572666c6f77a26469706673582212207f54d7b42ef16fb532d59e21a5776c1fa672f41c9720c656e03a9414cf71083a64736f6c634300060b0033",
  "linkReferences": {},
  "deployedLinkReferences": {}
}