{
  "_format": "hh-sol-artifact-1",
  "contractName": "HintHelpers",
  "sourceName": "contracts/HintHelpers.sol",
  "abi": [
    {
      "anonymous": false,
      "inputs": [
        {
          "indexed": true,
          "internalType": "address",
          "name": "previousOwner",
          "type": "address"
        },
        {
          "indexed": true,
          "internalType": "address",
          "name": "newOwner",
          "type": "address"
        }
      ],
      "name": "OwnershipTransferred",
      "type": "event"
    },
    {
      "anonymous": false,
      "inputs": [
        {
          "indexed": false,
          "internalType": "address",
          "name": "_sortedTrovesAddress",
          "type": "address"
        }
      ],
      "name": "SortedTrovesAddressChanged",
      "type": "event"
    },
    {
      "anonymous": false,
      "inputs": [
        {
          "indexed": false,
          "internalType": "address",
          "name": "_troveManagerAddress",
          "type": "address"
        }
      ],
      "name": "TroveManagerAddressChanged",
      "type": "event"
    },
    {
      "inputs": [],
      "name": "BORROWING_FEE_FLOOR",
      "outputs": [
        {
          "internalType": "uint256",
          "name": "",
          "type": "uint256"
        }
      ],
      "stateMutability": "view",
      "type": "function"
    },
    {
      "inputs": [],
      "name": "CCR",
      "outputs": [
        {
          "internalType": "uint256",
          "name": "",
          "type": "uint256"
        }
      ],
      "stateMutability": "view",
      "type": "function"
    },
    {
      "inputs": [],
      "name": "DECIMAL_PRECISION",
      "outputs": [
        {
          "internalType": "uint256",
          "name": "",
          "type": "uint256"
        }
      ],
      "stateMutability": "view",
      "type": "function"
    },
    {
      "inputs": [],
      "name": "LUSD_GAS_COMPENSATION",
      "outputs": [
        {
          "internalType": "uint256",
          "name": "",
          "type": "uint256"
        }
      ],
      "stateMutability": "view",
      "type": "function"
    },
    {
      "inputs": [],
      "name": "MCR",
      "outputs": [
        {
          "internalType": "uint256",
          "name": "",
          "type": "uint256"
        }
      ],
      "stateMutability": "view",
      "type": "function"
    },
    {
      "inputs": [],
      "name": "MIN_NET_DEBT",
      "outputs": [
        {
          "internalType": "uint256",
          "name": "",
          "type": "uint256"
        }
      ],
      "stateMutability": "view",
      "type": "function"
    },
    {
      "inputs": [],
      "name": "PERCENT_DIVISOR",
      "outputs": [
        {
          "internalType": "uint256",
          "name": "",
          "type": "uint256"
        }
      ],
      "stateMutability": "view",
      "type": "function"
    },
    {
      "inputs": [],
      "name": "_100pct",
      "outputs": [
        {
          "internalType": "uint256",
          "name": "",
          "type": "uint256"
        }
      ],
      "stateMutability": "view",
      "type": "function"
    },
    {
      "inputs": [],
      "name": "activePool",
      "outputs": [
        {
          "internalType": "contract IActivePool",
          "name": "",
          "type": "address"
        }
      ],
      "stateMutability": "view",
      "type": "function"
    },
    {
      "inputs": [
        {
          "internalType": "uint256",
          "name": "_coll",
          "type": "uint256"
        },
        {
          "internalType": "uint256",
          "name": "_debt",
          "type": "uint256"
        },
        {
          "internalType": "uint256",
          "name": "_price",
          "type": "uint256"
        }
      ],
      "name": "computeCR",
      "outputs": [
        {
          "internalType": "uint256",
          "name": "",
          "type": "uint256"
        }
      ],
      "stateMutability": "pure",
      "type": "function"
    },
    {
      "inputs": [
        {
          "internalType": "uint256",
          "name": "_coll",
          "type": "uint256"
        },
        {
          "internalType": "uint256",
          "name": "_debt",
          "type": "uint256"
        }
      ],
      "name": "computeNominalCR",
      "outputs": [
        {
          "internalType": "uint256",
          "name": "",
          "type": "uint256"
        }
      ],
      "stateMutability": "pure",
      "type": "function"
    },
    {
      "inputs": [],
      "name": "defaultPool",
      "outputs": [
        {
          "internalType": "contract IDefaultPool",
          "name": "",
          "type": "address"
        }
      ],
      "stateMutability": "view",
      "type": "function"
    },
    {
      "inputs": [
        {
          "internalType": "uint256",
          "name": "_CR",
          "type": "uint256"
        },
        {
          "internalType": "uint256",
          "name": "_numTrials",
          "type": "uint256"
        },
        {
          "internalType": "uint256",
          "name": "_inputRandomSeed",
          "type": "uint256"
        }
      ],
      "name": "getApproxHint",
      "outputs": [
        {
          "internalType": "address",
          "name": "hintAddress",
          "type": "address"
        },
        {
          "internalType": "uint256",
          "name": "diff",
          "type": "uint256"
        },
        {
          "internalType": "uint256",
          "name": "latestRandomSeed",
          "type": "uint256"
        }
      ],
      "stateMutability": "view",
      "type": "function"
    },
    {
      "inputs": [],
      "name": "getEntireSystemColl",
      "outputs": [
        {
          "internalType": "uint256",
          "name": "entireSystemColl",
          "type": "uint256"
        }
      ],
      "stateMutability": "view",
      "type": "function"
    },
    {
      "inputs": [],
      "name": "getEntireSystemDebt",
      "outputs": [
        {
          "internalType": "uint256",
          "name": "entireSystemDebt",
          "type": "uint256"
        }
      ],
      "stateMutability": "view",
      "type": "function"
    },
    {
      "inputs": [
        {
          "internalType": "uint256",
          "name": "_LUSDamount",
          "type": "uint256"
        },
        {
          "internalType": "uint256",
          "name": "_price",
          "type": "uint256"
        },
        {
          "internalType": "uint256",
          "name": "_maxIterations",
          "type": "uint256"
        }
      ],
      "name": "getRedemptionHints",
      "outputs": [
        {
          "internalType": "address",
          "name": "firstRedemptionHint",
          "type": "address"
        },
        {
          "internalType": "uint256",
          "name": "partialRedemptionHintNICR",
          "type": "uint256"
        },
        {
          "internalType": "uint256",
          "name": "truncatedLUSDamount",
          "type": "uint256"
        }
      ],
      "stateMutability": "view",
      "type": "function"
    },
    {
      "inputs": [],
      "name": "isOwner",
      "outputs": [
        {
          "internalType": "bool",
          "name": "",
          "type": "bool"
        }
      ],
      "stateMutability": "view",
      "type": "function"
    },
    {
      "inputs": [],
      "name": "owner",
      "outputs": [
        {
          "internalType": "address",
          "name": "",
          "type": "address"
        }
      ],
      "stateMutability": "view",
      "type": "function"
    },
    {
      "inputs": [],
      "name": "priceFeed",
      "outputs": [
        {
          "internalType": "contract IPriceFeed",
          "name": "",
          "type": "address"
        }
      ],
      "stateMutability": "view",
      "type": "function"
    },
    {
      "inputs": [
        {
          "internalType": "address",
          "name": "_sortedTrovesAddress",
          "type": "address"
        },
        {
          "internalType": "address",
          "name": "_troveManagerAddress",
          "type": "address"
        }
      ],
      "name": "setAddresses",
      "outputs": [],
      "stateMutability": "nonpayable",
      "type": "function"
    },
    {
      "inputs": [],
      "name": "sortedTroves",
      "outputs": [
        {
          "internalType": "contract ISortedTroves",
          "name": "",
          "type": "address"
        }
      ],
      "stateMutability": "view",
      "type": "function"
    },
    {
      "inputs": [],
      "name": "troveManager",
      "outputs": [
        {
          "internalType": "contract ITroveManager",
          "name": "",
          "type": "address"
        }
      ],
      "stateMutability": "view",
      "type": "function"
    }
  ],
  "bytecode": "0x608060405234801561001057600080fd5b50600380546001600160a01b031916339081179091556040516000907f8be0079c531659141344cd1fd0a4f28419497f9722a3daafe3b4186f6b6457e0908290a36113a8806100606000396000f3fe608060405234801561001057600080fd5b50600436106101425760003560e01c8063795d26c3116100b85780638f32d59b1161007c5780638f32d59b1461028057806390107afe1461029c578063a20baee61461021f578063ae918754146102cc578063c394a7fa146102d4578063f92d3433146102f757610142565b8063795d26c3146102375780637b41bdbe1461023f5780637f7dde4a14610268578063887105d3146102705780638da5cb5b1461027857610142565b80634870dd9a1161010a5780634870dd9a146101e6578063525acdbb146101ee5780635733d58f1461021757806372fe25aa1461021f578063741bef1a14610227578063794e57241461022f57610142565b806313144dba146101475780631bf43555146101985780632e86bbd8146101b25780633cc74225146101ba5780633d83908a146101de575b600080fd5b6101706004803603606081101561015d57600080fd5b50803590602081013590604001356102ff565b604080516001600160a01b039094168452602084019290925282820152519081900360600190f35b6101a061087f565b60408051918252519081900360200190f35b6101a061088c565b6101c2610899565b604080516001600160a01b039092168252519081900360200190f35b6101c26108a8565b6101a06108b7565b6101a06004803603606081101561020457600080fd5b50803590602081013590604001356108bc565b6101a06108d3565b6101a06108df565b6101c26108eb565b6101a06108fa565b6101a0610906565b6101706004803603606081101561025557600080fd5b5080359060208101359060400135610a07565b6101c2610d18565b6101a0610d27565b6101c2610de3565b610288610df2565b604080519115158252519081900360200190f35b6102ca600480360360408110156102b257600080fd5b506001600160a01b0381358116916020013516610e03565b005b6101c2610f16565b6101a0600480360360408110156102ea57600080fd5b5080359060200135610f25565b6101a0610f3a565b6004805460408051634d62283160e01b81529051600093849384936001600160a01b0390911692899285928592634d62283192828101926020929190829003018186803b15801561034f57600080fd5b505afa158015610363573d6000803e3d6000fd5b505050506040513d602081101561037957600080fd5b505190505b6001600160a01b0381161580159061041e575060055460408051630d293c7160e41b81526001600160a01b038481166004830152602482018c90529151670f43fc2c04ee000093929092169163d293c71091604480820192602092909190829003018186803b1580156103f057600080fd5b505afa158015610404573d6000803e3d6000fd5b505050506040513d602081101561041a57600080fd5b5051105b156104ac57826001600160a01b031663b72703ac826040518263ffffffff1660e01b815260040180826001600160a01b03166001600160a01b0316815260200191505060206040518083038186803b15801561047957600080fd5b505afa15801561048d573d6000803e3d6000fd5b505050506040513d60208110156104a357600080fd5b5051905061037e565b945084866104ba5760001996505b6001600160a01b038116158015906104d25750600082115b80156104e2575060001987019615155b1561086157600554604080516379a4316f60e11b81526001600160a01b03848116600483015291516000936105f393169163f34862de916024808301926020929190829003018186803b15801561053857600080fd5b505afa15801561054c573d6000803e3d6000fd5b505050506040513d602081101561056257600080fd5b50516005546040805163d66a255360e01b81526001600160a01b03878116600483015291516105e793929092169163d66a255391602480820192602092909190829003018186803b1580156105b657600080fd5b505afa1580156105ca573d6000803e3d6000fd5b505050506040513d60208110156105e057600080fd5b5051610f45565b9063ffffffff610f6016565b9050828111156107c4576869b5afac750bb800008111156107be5760006106328461062d846869b5afac750bb8000063ffffffff610fba16565b610ffc565b60055460408051635d8c960960e01b81526001600160a01b038781166004830152915193945060009361073b939290921691635d8c960991602480820192602092909190829003018186803b15801561068a57600080fd5b505afa15801561069e573d6000803e3d6000fd5b505050506040513d60208110156106b457600080fd5b5051600554604080516309019aaf60e31b81526001600160a01b0389811660048301529151919092169163480cd578916024808301926020929190829003018186803b15801561070357600080fd5b505afa158015610717573d6000803e3d6000fd5b505050506040513d602081101561072d57600080fd5b50519063ffffffff610f6016565b9050600061077761076a8d61075e86670de0b6b3a764000063ffffffff61101216565b9063ffffffff61106b16565b839063ffffffff610fba16565b9050600061078b858563ffffffff610fba16565b90506000610798826110ad565b90506107a483826110c8565b9a506107b6888663ffffffff610fba16565b975050505050505b50610861565b6107d4838263ffffffff610fba16565b9250836001600160a01b031663b72703ac836040518263ffffffff1660e01b815260040180826001600160a01b03166001600160a01b0316815260200191505060206040518083038186803b15801561082c57600080fd5b505afa158015610840573d6000803e3d6000fd5b505050506040513d602081101561085657600080fd5b505191506104ba9050565b610871898363ffffffff610fba16565b935050505093509350939050565b6869b5afac750bb8000081565b6802b5e3af16b188000081565b6001546001600160a01b031681565b6005546001600160a01b031681565b60c881565b60006108c98484846110fd565b90505b9392505050565b6714d1120d7b16000081565b670de0b6b3a764000081565b6002546001600160a01b031681565b670f43fc2c04ee000081565b6000805460408051632f5a97e560e11b8152905183926001600160a01b031691635eb52fca916004808301926020929190829003018186803b15801561094b57600080fd5b505afa15801561095f573d6000803e3d6000fd5b505050506040513d602081101561097557600080fd5b505160015460408051632f5a97e560e11b815290519293506000926001600160a01b0390921691635eb52fca91600480820192602092909190829003018186803b1580156109c257600080fd5b505afa1580156109d6573d6000803e3d6000fd5b505050506040513d60208110156109ec57600080fd5b50519050610a00828263ffffffff610f6016565b9250505090565b600080600080600560009054906101000a90046001600160a01b03166001600160a01b03166349eefeee6040518163ffffffff1660e01b815260040160206040518083038186803b158015610a5b57600080fd5b505afa158015610a6f573d6000803e3d6000fd5b505050506040513d6020811015610a8557600080fd5b5051905080610a9e575060009250829150839050610d0f565b6004805460408051634d62283160e01b815290516001600160a01b0390921692634d622831928282019260209290829003018186803b158015610ae057600080fd5b505afa158015610af4573d6000803e3d6000fd5b505050506040513d6020811015610b0a57600080fd5b50516005546040805163b0d8e18160e01b81526001600160a01b0380851660048301529151939750610b94938b93929092169163b0d8e18191602480820192602092909190829003018186803b158015610b6357600080fd5b505afa158015610b77573d6000803e3d6000fd5b505050506040513d6020811015610b8d57600080fd5b505161112d565b925084915060015b86811015610d0c57604080516020808201959095528151808203860181529082019091528051930192909220916000828481610bd457fe5b0690506000600560009054906101000a90046001600160a01b03166001600160a01b031663d9a72444836040518263ffffffff1660e01b81526004018082815260200191505060206040518083038186803b158015610c3257600080fd5b505afa158015610c46573d6000803e3d6000fd5b505050506040513d6020811015610c5c57600080fd5b50516005546040805163b0d8e18160e01b81526001600160a01b0380851660048301529151939450600093919092169163b0d8e181916024808301926020929190829003018186803b158015610cb157600080fd5b505afa158015610cc5573d6000803e3d6000fd5b505050506040513d6020811015610cdb57600080fd5b505190506000610ceb828d61112d565b905087811015610cfc578097508298505b505060019092019150610b9c9050565b50505b93509350939050565b6000546001600160a01b031681565b6000805460408051630a7b61df60e11b8152905183926001600160a01b0316916314f6c3be916004808301926020929190829003018186803b158015610d6c57600080fd5b505afa158015610d80573d6000803e3d6000fd5b505050506040513d6020811015610d9657600080fd5b505160015460408051630a7b61df60e11b815290519293506000926001600160a01b03909216916314f6c3be91600480820192602092909190829003018186803b1580156109c257600080fd5b6003546001600160a01b031690565b6003546001600160a01b0316331490565b610e0b610df2565b610e5c576040805162461bcd60e51b815260206004820181905260248201527f4f776e61626c653a2063616c6c6572206973206e6f7420746865206f776e6572604482015290519081900360640190fd5b610e658261115c565b610e6e8161115c565b600480546001600160a01b038085166001600160a01b03199283168117909355600580549185169190921617905560408051918252517f65f4cf077bc01e4742eb5ad98326f6e95b63548ea24b17f8d5e823111fe788009181900360200190a1604080516001600160a01b038316815290517f143219c9e69b09e07e095fcc889b43d8f46ca892bba65f08dc3a0050869a56789181900360200190a1610f1261120b565b5050565b6004546001600160a01b031681565b6000610f3183836110c8565b90505b92915050565b6611c37937e0800081565b6000610f34826802b5e3af16b188000063ffffffff610fba16565b600082820183811015610f31576040805162461bcd60e51b815260206004820152601b60248201527f536166654d6174683a206164646974696f6e206f766572666c6f770000000000604482015290519081900360640190fd5b6000610f3183836040518060400160405280601e81526020017f536166654d6174683a207375627472616374696f6e206f766572666c6f770000815250611255565b600081831061100b5781610f31565b5090919050565b60008261102157506000610f34565b8282028284828161102e57fe5b0414610f315760405162461bcd60e51b81526004018080602001828103825260218152602001806113526021913960400191505060405180910390fd5b6000610f3183836040518060400160405280601a81526020017f536166654d6174683a206469766973696f6e206279207a65726f0000000000008152506112ec565b6000610f34826802b5e3af16b188000063ffffffff610f6016565b600081156110f4576110ed8261075e8568056bc75e2d6310000063ffffffff61101216565b9050610f34565b50600019610f34565b6000821561112457600061111b8461075e878663ffffffff61101216565b91506108cc9050565b506000196108cc565b60008183101561114c57611147828463ffffffff610fba16565b610f31565b610f31838363ffffffff610fba16565b6001600160a01b0381166111b7576040805162461bcd60e51b815260206004820152601e60248201527f4163636f756e742063616e6e6f74206265207a65726f20616464726573730000604482015290519081900360640190fd5b803b80610f12576040805162461bcd60e51b815260206004820181905260248201527f4163636f756e7420636f64652073697a652063616e6e6f74206265207a65726f604482015290519081900360640190fd5b6003546040516000916001600160a01b0316907f8be0079c531659141344cd1fd0a4f28419497f9722a3daafe3b4186f6b6457e0908390a3600380546001600160a01b0319169055565b600081848411156112e45760405162461bcd60e51b81526004018080602001828103825283818151815260200191508051906020019080838360005b838110156112a9578181015183820152602001611291565b50505050905090810190601f1680156112d65780820380516001836020036101000a031916815260200191505b509250505060405180910390fd5b505050900390565b6000818361133b5760405162461bcd60e51b81526020600482018181528351602484015283519092839260449091019190850190808383600083156112a9578181015183820152602001611291565b50600083858161134757fe5b049594505050505056fe536166654d6174683a206d756c7469706c69636174696f6e206f766572666c6f77a2646970667358221220edfe991c9d72f730bc16d2bb0e573fa65fcad72b879490c8a8b31923912ef0be64736f6c634300060b0033",
  "linkReferences": {},
  "deployedLinkReferences": {}
}