{
  "_format": "hh-sol-artifact-1",
  "contractName": "HintHelpers",
  "sourceName": "contracts/HintHelpers.sol",
  "abi": [
    {
      "anonymous": false,
      "inputs": [
        {
          "indexed": true,
          "internalType": "address",
          "name": "previousOwner",
          "type": "address"
        },
        {
          "indexed": true,
          "internalType": "address",
          "name": "newOwner",
          "type": "address"
        }
      ],
      "name": "OwnershipTransferred",
      "type": "event"
    },
    {
      "anonymous": false,
      "inputs": [
        {
          "indexed": false,
          "internalType": "address",
          "name": "_sortedTrovesAddress",
          "type": "address"
        }
      ],
      "name": "SortedTrovesAddressChanged",
      "type": "event"
    },
    {
      "anonymous": false,
      "inputs": [
        {
          "indexed": false,
          "internalType": "address",
          "name": "_troveManagerAddress",
          "type": "address"
        }
      ],
      "name": "TroveManagerAddressChanged",
      "type": "event"
    },
    {
      "inputs": [],
      "name": "CCR",
      "outputs": [
        {
          "internalType": "uint256",
          "name": "",
          "type": "uint256"
        }
      ],
      "stateMutability": "view",
      "type": "function"
    },
    {
      "inputs": [],
      "name": "DECIMAL_PRECISION",
      "outputs": [
        {
          "internalType": "uint256",
          "name": "",
          "type": "uint256"
        }
      ],
      "stateMutability": "view",
      "type": "function"
    },
    {
      "inputs": [],
      "name": "LUSD_GAS_COMPENSATION",
      "outputs": [
        {
          "internalType": "uint256",
          "name": "",
          "type": "uint256"
        }
      ],
      "stateMutability": "view",
      "type": "function"
    },
    {
      "inputs": [],
      "name": "MCR",
      "outputs": [
        {
          "internalType": "uint256",
          "name": "",
          "type": "uint256"
        }
      ],
      "stateMutability": "view",
      "type": "function"
    },
    {
      "inputs": [],
      "name": "PERCENT_DIVISOR",
      "outputs": [
        {
          "internalType": "uint256",
          "name": "",
          "type": "uint256"
        }
      ],
      "stateMutability": "view",
      "type": "function"
    },
    {
      "inputs": [],
      "name": "_100pct",
      "outputs": [
        {
          "internalType": "uint256",
          "name": "",
          "type": "uint256"
        }
      ],
      "stateMutability": "view",
      "type": "function"
    },
    {
      "inputs": [],
      "name": "activePool",
      "outputs": [
        {
          "internalType": "contract IActivePool",
          "name": "",
          "type": "address"
        }
      ],
      "stateMutability": "view",
      "type": "function"
    },
    {
      "inputs": [
        {
          "internalType": "uint256",
          "name": "_coll",
          "type": "uint256"
        },
        {
          "internalType": "uint256",
          "name": "_debt",
          "type": "uint256"
        },
        {
          "internalType": "uint256",
          "name": "_price",
          "type": "uint256"
        }
      ],
      "name": "computeCR",
      "outputs": [
        {
          "internalType": "uint256",
          "name": "",
          "type": "uint256"
        }
      ],
      "stateMutability": "pure",
      "type": "function"
    },
    {
      "inputs": [
        {
          "internalType": "uint256",
          "name": "_coll",
          "type": "uint256"
        },
        {
          "internalType": "uint256",
          "name": "_debt",
          "type": "uint256"
        }
      ],
      "name": "computeNominalCR",
      "outputs": [
        {
          "internalType": "uint256",
          "name": "",
          "type": "uint256"
        }
      ],
      "stateMutability": "pure",
      "type": "function"
    },
    {
      "inputs": [],
      "name": "defaultPool",
      "outputs": [
        {
          "internalType": "contract IDefaultPool",
          "name": "",
          "type": "address"
        }
      ],
      "stateMutability": "view",
      "type": "function"
    },
    {
      "inputs": [
        {
          "internalType": "uint256",
          "name": "_CR",
          "type": "uint256"
        },
        {
          "internalType": "uint256",
          "name": "_numTrials",
          "type": "uint256"
        },
        {
          "internalType": "uint256",
          "name": "_inputRandomSeed",
          "type": "uint256"
        }
      ],
      "name": "getApproxHint",
      "outputs": [
        {
          "internalType": "address",
          "name": "hintAddress",
          "type": "address"
        },
        {
          "internalType": "uint256",
          "name": "diff",
          "type": "uint256"
        },
        {
          "internalType": "uint256",
          "name": "latestRandomSeed",
          "type": "uint256"
        }
      ],
      "stateMutability": "view",
      "type": "function"
    },
    {
      "inputs": [],
      "name": "getEntireSystemColl",
      "outputs": [
        {
          "internalType": "uint256",
          "name": "entireSystemColl",
          "type": "uint256"
        }
      ],
      "stateMutability": "view",
      "type": "function"
    },
    {
      "inputs": [],
      "name": "getEntireSystemDebt",
      "outputs": [
        {
          "internalType": "uint256",
          "name": "entireSystemDebt",
          "type": "uint256"
        }
      ],
      "stateMutability": "view",
      "type": "function"
    },
    {
      "inputs": [
        {
          "internalType": "uint256",
          "name": "_LUSDamount",
          "type": "uint256"
        },
        {
          "internalType": "uint256",
          "name": "_price",
          "type": "uint256"
        },
        {
          "internalType": "uint256",
          "name": "_maxIterations",
          "type": "uint256"
        }
      ],
      "name": "getRedemptionHints",
      "outputs": [
        {
          "internalType": "address",
          "name": "firstRedemptionHint",
          "type": "address"
        },
        {
          "internalType": "uint256",
          "name": "partialRedemptionHintNICR",
          "type": "uint256"
        }
      ],
      "stateMutability": "view",
      "type": "function"
    },
    {
      "inputs": [],
      "name": "isOwner",
      "outputs": [
        {
          "internalType": "bool",
          "name": "",
          "type": "bool"
        }
      ],
      "stateMutability": "view",
      "type": "function"
    },
    {
      "inputs": [],
      "name": "owner",
      "outputs": [
        {
          "internalType": "address",
          "name": "",
          "type": "address"
        }
      ],
      "stateMutability": "view",
      "type": "function"
    },
    {
      "inputs": [],
      "name": "priceFeed",
      "outputs": [
        {
          "internalType": "contract IPriceFeed",
          "name": "",
          "type": "address"
        }
      ],
      "stateMutability": "view",
      "type": "function"
    },
    {
      "inputs": [
        {
          "internalType": "address",
          "name": "_sortedTrovesAddress",
          "type": "address"
        },
        {
          "internalType": "address",
          "name": "_troveManagerAddress",
          "type": "address"
        }
      ],
      "name": "setAddresses",
      "outputs": [],
      "stateMutability": "nonpayable",
      "type": "function"
    },
    {
      "inputs": [],
      "name": "sortedTroves",
      "outputs": [
        {
          "internalType": "contract ISortedTroves",
          "name": "",
          "type": "address"
        }
      ],
      "stateMutability": "view",
      "type": "function"
    },
    {
      "inputs": [],
      "name": "troveManager",
      "outputs": [
        {
          "internalType": "contract ITroveManager",
          "name": "",
          "type": "address"
        }
      ],
      "stateMutability": "view",
      "type": "function"
    }
  ],
  "bytecode": "0x608060405234801561001057600080fd5b50600380546001600160a01b031916339081179091556040516000907f8be0079c531659141344cd1fd0a4f28419497f9722a3daafe3b4186f6b6457e0908290a361130e806100606000396000f3fe608060405234801561001057600080fd5b506004361061012c5760003560e01c8063795d26c3116100ad5780638f32d59b116100715780638f32d59b1461028557806390107afe146102a1578063a20baee6146101fc578063ae918754146102d1578063c394a7fa146102d95761012c565b8063795d26c3146102145780637b41bdbe1461021c5780637f7dde4a1461026d578063887105d3146102755780638da5cb5b1461027d5761012c565b8063525acdbb116100f4578063525acdbb146101cb5780635733d58f146101f457806372fe25aa146101fc578063741bef1a14610204578063794e57241461020c5761012c565b806313144dba146101315780632e86bbd81461017d5780633cc74225146101975780633d83908a146101bb5780634870dd9a146101c3575b600080fd5b61015a6004803603606081101561014757600080fd5b50803590602081013590604001356102fc565b604080516001600160a01b03909316835260208301919091528051918290030190f35b610185610813565b60408051918252519081900360200190f35b61019f610820565b604080516001600160a01b039092168252519081900360200190f35b61019f61082f565b61018561083e565b610185600480360360608110156101e157600080fd5b5080359060208101359060400135610843565b61018561085a565b610185610866565b61019f610872565b610185610881565b61018561088d565b6102456004803603606081101561023257600080fd5b508035906020810135906040013561098e565b604080516001600160a01b039094168452602084019290925282820152519081900360600190f35b61019f610c9f565b610185610cae565b61019f610d6a565b61028d610d79565b604080519115158252519081900360200190f35b6102cf600480360360408110156102b757600080fd5b506001600160a01b0381358116916020013516610d8a565b005b61019f610e9d565b610185600480360360408110156102ef57600080fd5b5080359060200135610eac565b6004805460408051634d62283160e01b8152905160009384936001600160a01b031692889285928592634d6228319281830192602092829003018186803b15801561034657600080fd5b505afa15801561035a573d6000803e3d6000fd5b505050506040513d602081101561037057600080fd5b505190505b6001600160a01b03811615801590610415575060055460408051630d293c7160e41b81526001600160a01b038481166004830152602482018b90529151670f43fc2c04ee000093929092169163d293c71091604480820192602092909190829003018186803b1580156103e757600080fd5b505afa1580156103fb573d6000803e3d6000fd5b505050506040513d602081101561041157600080fd5b5051105b156104a357826001600160a01b031663b72703ac826040518263ffffffff1660e01b815260040180826001600160a01b03166001600160a01b0316815260200191505060206040518083038186803b15801561047057600080fd5b505afa158015610484573d6000803e3d6000fd5b505050506040513d602081101561049a57600080fd5b50519050610375565b935083856104b15760001995505b6001600160a01b038116158015906104c95750600082115b80156104d9575060001986019515155b1561080857600554604080516379a4316f60e11b81526001600160a01b03848116600483015291516000936105ea93169163f34862de916024808301926020929190829003018186803b15801561052f57600080fd5b505afa158015610543573d6000803e3d6000fd5b505050506040513d602081101561055957600080fd5b50516005546040805163d66a255360e01b81526001600160a01b03878116600483015291516105de93929092169163d66a255391602480820192602092909190829003018186803b1580156105ad57600080fd5b505afa1580156105c1573d6000803e3d6000fd5b505050506040513d60208110156105d757600080fd5b5051610ec1565b9063ffffffff610edc16565b90508281111561076b5760055460408051635d8c960960e01b81526001600160a01b03858116600483015291516000936106f6931691635d8c9609916024808301926020929190829003018186803b15801561064557600080fd5b505afa158015610659573d6000803e3d6000fd5b505050506040513d602081101561066f57600080fd5b5051600554604080516309019aaf60e31b81526001600160a01b0388811660048301529151919092169163480cd578916024808301926020929190829003018186803b1580156106be57600080fd5b505afa1580156106d2573d6000803e3d6000fd5b505050506040513d60208110156106e857600080fd5b50519063ffffffff610edc16565b905060006107326107258b61071988670de0b6b3a764000063ffffffff610f3616565b9063ffffffff610f8f16565b839063ffffffff610fd116565b90506000610746848763ffffffff610fd116565b9050600061075382611013565b905061075f838261102e565b98505050505050610808565b61077b838263ffffffff610fd116565b9250836001600160a01b031663b72703ac836040518263ffffffff1660e01b815260040180826001600160a01b03166001600160a01b0316815260200191505060206040518083038186803b1580156107d357600080fd5b505afa1580156107e7573d6000803e3d6000fd5b505050506040513d60208110156107fd57600080fd5b505191506104b19050565b505050935093915050565b6802b5e3af16b188000081565b6001546001600160a01b031681565b6005546001600160a01b031681565b60c881565b6000610850848484611063565b90505b9392505050565b6714d1120d7b16000081565b670de0b6b3a764000081565b6002546001600160a01b031681565b670f43fc2c04ee000081565b6000805460408051632f5a97e560e11b8152905183926001600160a01b031691635eb52fca916004808301926020929190829003018186803b1580156108d257600080fd5b505afa1580156108e6573d6000803e3d6000fd5b505050506040513d60208110156108fc57600080fd5b505160015460408051632f5a97e560e11b815290519293506000926001600160a01b0390921691635eb52fca91600480820192602092909190829003018186803b15801561094957600080fd5b505afa15801561095d573d6000803e3d6000fd5b505050506040513d602081101561097357600080fd5b50519050610987828263ffffffff610edc16565b9250505090565b600080600080600560009054906101000a90046001600160a01b03166001600160a01b03166349eefeee6040518163ffffffff1660e01b815260040160206040518083038186803b1580156109e257600080fd5b505afa1580156109f6573d6000803e3d6000fd5b505050506040513d6020811015610a0c57600080fd5b5051905080610a25575060009250829150839050610c96565b6004805460408051634d62283160e01b815290516001600160a01b0390921692634d622831928282019260209290829003018186803b158015610a6757600080fd5b505afa158015610a7b573d6000803e3d6000fd5b505050506040513d6020811015610a9157600080fd5b50516005546040805163b0d8e18160e01b81526001600160a01b0380851660048301529151939750610b1b938b93929092169163b0d8e18191602480820192602092909190829003018186803b158015610aea57600080fd5b505afa158015610afe573d6000803e3d6000fd5b505050506040513d6020811015610b1457600080fd5b5051611093565b925084915060015b86811015610c9357604080516020808201959095528151808203860181529082019091528051930192909220916000828481610b5b57fe5b0690506000600560009054906101000a90046001600160a01b03166001600160a01b031663d9a72444836040518263ffffffff1660e01b81526004018082815260200191505060206040518083038186803b158015610bb957600080fd5b505afa158015610bcd573d6000803e3d6000fd5b505050506040513d6020811015610be357600080fd5b50516005546040805163b0d8e18160e01b81526001600160a01b0380851660048301529151939450600093919092169163b0d8e181916024808301926020929190829003018186803b158015610c3857600080fd5b505afa158015610c4c573d6000803e3d6000fd5b505050506040513d6020811015610c6257600080fd5b505190506000610c72828d611093565b905087811015610c83578097508298505b505060019092019150610b239050565b50505b93509350939050565b6000546001600160a01b031681565b6000805460408051630a7b61df60e11b8152905183926001600160a01b0316916314f6c3be916004808301926020929190829003018186803b158015610cf357600080fd5b505afa158015610d07573d6000803e3d6000fd5b505050506040513d6020811015610d1d57600080fd5b505160015460408051630a7b61df60e11b815290519293506000926001600160a01b03909216916314f6c3be91600480820192602092909190829003018186803b15801561094957600080fd5b6003546001600160a01b031690565b6003546001600160a01b0316331490565b610d92610d79565b610de3576040805162461bcd60e51b815260206004820181905260248201527f4f776e61626c653a2063616c6c6572206973206e6f7420746865206f776e6572604482015290519081900360640190fd5b610dec826110c2565b610df5816110c2565b600480546001600160a01b038085166001600160a01b03199283168117909355600580549185169190921617905560408051918252517f65f4cf077bc01e4742eb5ad98326f6e95b63548ea24b17f8d5e823111fe788009181900360200190a1604080516001600160a01b038316815290517f143219c9e69b09e07e095fcc889b43d8f46ca892bba65f08dc3a0050869a56789181900360200190a1610e99611171565b5050565b6004546001600160a01b031681565b6000610eb8838361102e565b90505b92915050565b6000610ebb826802b5e3af16b188000063ffffffff610fd116565b600082820183811015610eb8576040805162461bcd60e51b815260206004820152601b60248201527f536166654d6174683a206164646974696f6e206f766572666c6f770000000000604482015290519081900360640190fd5b600082610f4557506000610ebb565b82820282848281610f5257fe5b0414610eb85760405162461bcd60e51b81526004018080602001828103825260218152602001806112b86021913960400191505060405180910390fd5b6000610eb883836040518060400160405280601a81526020017f536166654d6174683a206469766973696f6e206279207a65726f0000000000008152506111bb565b6000610eb883836040518060400160405280601e81526020017f536166654d6174683a207375627472616374696f6e206f766572666c6f77000081525061125d565b6000610ebb826802b5e3af16b188000063ffffffff610edc16565b6000811561105a57611053826107198568056bc75e2d6310000063ffffffff610f3616565b9050610ebb565b50600019610ebb565b6000821561108a57600061108184610719878663ffffffff610f3616565b91506108539050565b50600019610853565b6000818310156110b2576110ad828463ffffffff610fd116565b610eb8565b610eb8838363ffffffff610fd116565b6001600160a01b03811661111d576040805162461bcd60e51b815260206004820152601e60248201527f4163636f756e742063616e6e6f74206265207a65726f20616464726573730000604482015290519081900360640190fd5b803b80610e99576040805162461bcd60e51b815260206004820181905260248201527f4163636f756e7420636f64652073697a652063616e6e6f74206265207a65726f604482015290519081900360640190fd5b6003546040516000916001600160a01b0316907f8be0079c531659141344cd1fd0a4f28419497f9722a3daafe3b4186f6b6457e0908390a3600380546001600160a01b0319169055565b600081836112475760405162461bcd60e51b81526004018080602001828103825283818151815260200191508051906020019080838360005b8381101561120c5781810151838201526020016111f4565b50505050905090810190601f1680156112395780820380516001836020036101000a031916815260200191505b509250505060405180910390fd5b50600083858161125357fe5b0495945050505050565b600081848411156112af5760405162461bcd60e51b815260206004820181815283516024840152835190928392604490910191908501908083836000831561120c5781810151838201526020016111f4565b50505090039056fe536166654d6174683a206d756c7469706c69636174696f6e206f766572666c6f77a26469706673582212204a9391893af50d5a2e88a3561f7ac1de085ef2c53becb9359cd89952874e500b64736f6c634300060b0033",
  "linkReferences": {},
  "deployedLinkReferences": {}
}