{
  "_format": "hh-sol-artifact-1",
  "contractName": "LiquityMathTester",
  "sourceName": "contracts/TestContracts/LiquityMathTester.sol",
  "abi": [
    {
      "inputs": [
        {
          "internalType": "uint256",
          "name": "_base",
          "type": "uint256"
        },
        {
          "internalType": "uint256",
          "name": "_n",
          "type": "uint256"
        }
      ],
      "name": "callDecPow",
      "outputs": [
        {
          "internalType": "uint256",
          "name": "",
          "type": "uint256"
        }
      ],
      "stateMutability": "pure",
      "type": "function"
    },
    {
      "inputs": [
        {
          "internalType": "uint256",
          "name": "_base",
          "type": "uint256"
        },
        {
          "internalType": "uint256",
          "name": "_n",
          "type": "uint256"
        }
      ],
      "name": "callDecPowTx",
      "outputs": [
        {
          "internalType": "uint256",
          "name": "",
          "type": "uint256"
        }
      ],
      "stateMutability": "nonpayable",
      "type": "function"
    }
  ],
  "bytecode": "0x608060405234801561001057600080fd5b5061040a806100206000396000f3fe608060405234801561001057600080fd5b50600436106100355760003560e01c8062fa72ff1461003a578063d40772521461003a575b600080fd5b61005d6004803603604081101561005057600080fd5b508035906020013561006f565b60408051918252519081900360200190f35b600061007b8383610084565b90505b92915050565b6000631f54050082111561009a57631f54050091505b816100ae5750670de0b6b3a764000061007e565b670de0b6b3a764000083835b600181111561013157600281066100ef576100d58283610145565b91506100e881600263ffffffff61018016565b905061012c565b6100f98284610145565b92506101058283610145565b9150610129600261011d83600163ffffffff6101c216565b9063ffffffff61018016565b90505b6100ba565b61013b8284610145565b9695505050505050565b600080610158848463ffffffff61020416565b9050610178670de0b6b3a764000061011d836706f05b59d3b2000061025d565b949350505050565b600061007b83836040518060400160405280601a81526020017f536166654d6174683a206469766973696f6e206279207a65726f0000000000008152506102b7565b600061007b83836040518060400160405280601e81526020017f536166654d6174683a207375627472616374696f6e206f766572666c6f770000815250610359565b6000826102135750600061007e565b8282028284828161022057fe5b041461007b5760405162461bcd60e51b81526004018080602001828103825260218152602001806103b46021913960400191505060405180910390fd5b60008282018381101561007b576040805162461bcd60e51b815260206004820152601b60248201527f536166654d6174683a206164646974696f6e206f766572666c6f770000000000604482015290519081900360640190fd5b600081836103435760405162461bcd60e51b81526004018080602001828103825283818151815260200191508051906020019080838360005b838110156103085781810151838201526020016102f0565b50505050905090810190601f1680156103355780820380516001836020036101000a031916815260200191505b509250505060405180910390fd5b50600083858161034f57fe5b0495945050505050565b600081848411156103ab5760405162461bcd60e51b81526020600482018181528351602484015283519092839260449091019190850190808383600083156103085781810151838201526020016102f0565b50505090039056fe536166654d6174683a206d756c7469706c69636174696f6e206f766572666c6f77a2646970667358221220099a909c4a1ea50fb08b9bfa194446d684d0e06c6f5db819111a710ea089c0a564736f6c634300060b0033",
  "linkReferences": {},
  "deployedLinkReferences": {}
}