{
  "_format": "hh-sol-artifact-1",
  "contractName": "LiquityMathTester",
  "sourceName": "contracts/TestContracts/LiquityMathTester.sol",
  "abi": [
    {
      "inputs": [
        {
          "internalType": "uint256",
          "name": "_base",
          "type": "uint256"
        },
        {
          "internalType": "uint256",
          "name": "_n",
          "type": "uint256"
        }
      ],
      "name": "callDecPow",
      "outputs": [
        {
          "internalType": "uint256",
          "name": "",
          "type": "uint256"
        }
      ],
      "stateMutability": "pure",
      "type": "function"
    },
    {
      "inputs": [
        {
          "internalType": "uint256",
          "name": "_base",
          "type": "uint256"
        },
        {
          "internalType": "uint256",
          "name": "_n",
          "type": "uint256"
        }
      ],
      "name": "callDecPowTx",
      "outputs": [
        {
          "internalType": "uint256",
          "name": "",
          "type": "uint256"
        }
      ],
      "stateMutability": "nonpayable",
      "type": "function"
    }
  ],
  "bytecode": "0x608060405234801561001057600080fd5b50610410806100206000396000f3fe608060405234801561001057600080fd5b50600436106100355760003560e01c8062fa72ff1461003a578063d40772521461003a575b600080fd5b61005d6004803603604081101561005057600080fd5b508035906020013561006f565b60408051918252519081900360200190f35b600061007b8383610084565b90505b92915050565b6000631f54050082111561009a57631f54050091505b816100ae5750670de0b6b3a764000061007e565b670de0b6b3a764000083835b600181111561013157600281066100ef576100d58283610145565b91506100e881600263ffffffff61018616565b905061012c565b6100f98284610145565b92506101058283610145565b9150610129600261011d83600163ffffffff6101c816565b9063ffffffff61018616565b90505b6100ba565b61013b8284610145565b9695505050505050565b600080610158848463ffffffff61020a16565b905061017e670de0b6b3a764000061011d836706f05b59d3b2000063ffffffff61026316565b949350505050565b600061007b83836040518060400160405280601a81526020017f536166654d6174683a206469766973696f6e206279207a65726f0000000000008152506102bd565b600061007b83836040518060400160405280601e81526020017f536166654d6174683a207375627472616374696f6e206f766572666c6f77000081525061035f565b6000826102195750600061007e565b8282028284828161022657fe5b041461007b5760405162461bcd60e51b81526004018080602001828103825260218152602001806103ba6021913960400191505060405180910390fd5b60008282018381101561007b576040805162461bcd60e51b815260206004820152601b60248201527f536166654d6174683a206164646974696f6e206f766572666c6f770000000000604482015290519081900360640190fd5b600081836103495760405162461bcd60e51b81526004018080602001828103825283818151815260200191508051906020019080838360005b8381101561030e5781810151838201526020016102f6565b50505050905090810190601f16801561033b5780820380516001836020036101000a031916815260200191505b509250505060405180910390fd5b50600083858161035557fe5b0495945050505050565b600081848411156103b15760405162461bcd60e51b815260206004820181815283516024840152835190928392604490910191908501908083836000831561030e5781810151838201526020016102f6565b50505090039056fe536166654d6174683a206d756c7469706c69636174696f6e206f766572666c6f77a264697066735822122014fb149bb0a51fec72aaa76d692c39eac3849ef8f210746706dd08b16075858e64736f6c634300060b0033",
  "linkReferences": {},
  "deployedLinkReferences": {}
}