{
  "_format": "hh-sol-artifact-1",
  "contractName": "LockupContractFactory",
  "sourceName": "contracts/LQTY/LockupContractFactory.sol",
  "abi": [
    {
      "inputs": [],
      "stateMutability": "nonpayable",
      "type": "constructor"
    },
    {
      "anonymous": false,
      "inputs": [
        {
          "indexed": false,
          "internalType": "address",
          "name": "_CDLCAddress",
          "type": "address"
        },
        {
          "indexed": false,
          "internalType": "address",
          "name": "_beneficiary",
          "type": "address"
        },
        {
          "indexed": false,
          "internalType": "uint256",
          "name": "_initialEntitlement",
          "type": "uint256"
        }
      ],
      "name": "CDLCDeployed",
      "type": "event"
    },
    {
      "anonymous": false,
      "inputs": [
        {
          "indexed": false,
          "internalType": "address",
          "name": "_lqtyTokenAddress",
          "type": "address"
        }
      ],
      "name": "LQTYTokenAddressSet",
      "type": "event"
    },
    {
      "anonymous": false,
      "inputs": [
        {
          "indexed": false,
          "internalType": "address",
          "name": "_OYLCAddress",
          "type": "address"
        },
        {
          "indexed": false,
          "internalType": "address",
          "name": "_beneficiary",
          "type": "address"
        },
        {
          "indexed": false,
          "internalType": "uint256",
          "name": "_entitlement",
          "type": "uint256"
        }
      ],
      "name": "OYLCDeployed",
      "type": "event"
    },
    {
      "inputs": [],
      "name": "ONE_YEAR_IN_SECONDS",
      "outputs": [
        {
          "internalType": "uint256",
          "name": "",
          "type": "uint256"
        }
      ],
      "stateMutability": "view",
      "type": "function"
    },
    {
      "inputs": [
        {
          "internalType": "address",
          "name": "",
          "type": "address"
        }
      ],
      "name": "customDurationLockupContractToDeployer",
      "outputs": [
        {
          "internalType": "address",
          "name": "",
          "type": "address"
        }
      ],
      "stateMutability": "view",
      "type": "function"
    },
    {
      "inputs": [
        {
          "internalType": "address",
          "name": "beneficiary",
          "type": "address"
        },
        {
          "internalType": "uint256",
          "name": "initialEntitlement",
          "type": "uint256"
        },
        {
          "internalType": "uint256",
          "name": "lockupDuration",
          "type": "uint256"
        }
      ],
      "name": "deployCustomDurationLockupContract",
      "outputs": [],
      "stateMutability": "nonpayable",
      "type": "function"
    },
    {
      "inputs": [
        {
          "internalType": "address",
          "name": "beneficiary",
          "type": "address"
        },
        {
          "internalType": "uint256",
          "name": "initialEntitlement",
          "type": "uint256"
        }
      ],
      "name": "deployOneYearLockupContract",
      "outputs": [],
      "stateMutability": "nonpayable",
      "type": "function"
    },
    {
      "inputs": [],
      "name": "deployer",
      "outputs": [
        {
          "internalType": "address",
          "name": "",
          "type": "address"
        }
      ],
      "stateMutability": "view",
      "type": "function"
    },
    {
      "inputs": [],
      "name": "deploymentTime",
      "outputs": [
        {
          "internalType": "uint256",
          "name": "",
          "type": "uint256"
        }
      ],
      "stateMutability": "view",
      "type": "function"
    },
    {
      "inputs": [
        {
          "internalType": "address",
          "name": "_contractAddress",
          "type": "address"
        }
      ],
      "name": "isRegisteredCustomDurationLockup",
      "outputs": [
        {
          "internalType": "bool",
          "name": "",
          "type": "bool"
        }
      ],
      "stateMutability": "view",
      "type": "function"
    },
    {
      "inputs": [
        {
          "internalType": "address",
          "name": "_contractAddress",
          "type": "address"
        }
      ],
      "name": "isRegisteredOneYearLockup",
      "outputs": [
        {
          "internalType": "bool",
          "name": "",
          "type": "bool"
        }
      ],
      "stateMutability": "view",
      "type": "function"
    },
    {
      "inputs": [
        {
          "internalType": "address[]",
          "name": "addresses",
          "type": "address[]"
        }
      ],
      "name": "lockCustomDurationContracts",
      "outputs": [],
      "stateMutability": "nonpayable",
      "type": "function"
    },
    {
      "inputs": [
        {
          "internalType": "address[]",
          "name": "addresses",
          "type": "address[]"
        }
      ],
      "name": "lockOneYearContracts",
      "outputs": [],
      "stateMutability": "nonpayable",
      "type": "function"
    },
    {
      "inputs": [],
      "name": "lqtyToken",
      "outputs": [
        {
          "internalType": "contract ILQTYToken",
          "name": "",
          "type": "address"
        }
      ],
      "stateMutability": "view",
      "type": "function"
    },
    {
      "inputs": [
        {
          "internalType": "address",
          "name": "",
          "type": "address"
        }
      ],
      "name": "oneYearLockupContractToDeployer",
      "outputs": [
        {
          "internalType": "address",
          "name": "",
          "type": "address"
        }
      ],
      "stateMutability": "view",
      "type": "function"
    },
    {
      "inputs": [
        {
          "internalType": "address",
          "name": "_lqtyTokenAddress",
          "type": "address"
        }
      ],
      "name": "setLQTYTokenAddress",
      "outputs": [],
      "stateMutability": "nonpayable",
      "type": "function"
    }
  ],
  "bytecode": "0x608060405234801561001057600080fd5b5042600055600180546001600160a01b03191633179055611bd7806100366000396000f3fe608060405234801561001057600080fd5b50600436106100bf5760003560e01c8063d5f394881161007c578063d5f3948814610202578063d763298c1461020a578063dc2afb2414610244578063e7c8fed41461026a578063ecda10f514610284578063f7358b041461028c578063fcadb4da146102fa576100bf565b806319d08303146100c45780631f7af3c3146100ec57806323d91f061461011057806343dde5b9146101365780636b23907514610168578063cbb60296146101d6575b600080fd5b6100ea600480360360208110156100da57600080fd5b50356001600160a01b0316610320565b005b6100f461037c565b604080516001600160a01b039092168252519081900360200190f35b6100f46004803603602081101561012657600080fd5b50356001600160a01b031661038b565b6100ea6004803603606081101561014c57600080fd5b506001600160a01b0381351690602081013590604001356103a6565b6100ea6004803603602081101561017e57600080fd5b810190602081018135600160201b81111561019857600080fd5b8201836020820111156101aa57600080fd5b803590602001918460208302840111600160201b831117156101cb57600080fd5b509092509050610497565b6100ea600480360360408110156101ec57600080fd5b506001600160a01b038135169060200135610553565b6100f4610631565b6102306004803603602081101561022057600080fd5b50356001600160a01b0316610640565b604080519115158252519081900360200190f35b6100f46004803603602081101561025a57600080fd5b50356001600160a01b0316610651565b61027261066c565b60408051918252519081900360200190f35b610272610674565b6100ea600480360360208110156102a257600080fd5b810190602081018135600160201b8111156102bc57600080fd5b8201836020820111156102ce57600080fd5b803590602001918460208302840111600160201b831117156102ef57600080fd5b50909250905061067a565b6102306004803603602081101561031057600080fd5b50356001600160a01b0316610731565b61032861073c565b600280546001600160a01b0383166001600160a01b0319909116811790915560408051918252517fb0c89119a7c10e4c2d02306921ba368ac83d0e4b302337916017485c2791bec59181900360200190a150565b6002546001600160a01b031681565b6003602052600090815260409020546001600160a01b031681565b6103ae61079d565b6103b66107fa565b6002546040516000916001600160a01b0316908590859085906103d890610ab2565b6001600160a01b0394851681529290931660208301526040808301919091526060820192909252905190819003608001906000f08015801561041e573d6000803e3d6000fd5b506001600160a01b0380821660008181526004602090815260409182902080546001600160a01b0319163317905581519283529288169282019290925280820186905290519192507f36d45fe8c71763f2861863604e42daf919638f6b991d0bb3117bdfb636639a3c919081900360600190a150505050565b60005b8181101561054e5760008383838181106104b057fe5b905060200201356001600160a01b0316905060008190506104d082610851565b6104d982610898565b806001600160a01b031663753868e36040518163ffffffff1660e01b8152600401602060405180830381600087803b15801561051457600080fd5b505af1158015610528573d6000803e3d6000fd5b505050506040513d602081101561053e57600080fd5b50506001909201915061049a9050565b505050565b61055b61079d565b6002546040516000916001600160a01b0316908490849061057b90610abf565b6001600160a01b039384168152919092166020820152604080820192909252905190819003606001906000f0801580156105b9573d6000803e3d6000fd5b506001600160a01b0380821660008181526003602090815260409182902080546001600160a01b0319163317905581519283529287169282019290925280820185905290519192507fb0cd3190cce15ab3c0e2dd44fb5a6db4b58fe5331abe1148d8b292bd262336ee919081900360600190a1505050565b6001546001600160a01b031681565b600061064b826108f5565b92915050565b6004602052600090815260409020546001600160a01b031681565b6301e1338081565b60005481565b60005b8181101561054e57600083838381811061069357fe5b905060200201356001600160a01b0316905060008190506106b382610915565b6106bc82610959565b806001600160a01b031663753868e36040518163ffffffff1660e01b8152600401602060405180830381600087803b1580156106f757600080fd5b505af115801561070b573d6000803e3d6000fd5b505050506040513d602081101561072157600080fd5b50506001909201915061067d9050565b600061064b826109b2565b6001546001600160a01b0316331461079b576040805162461bcd60e51b815260206004820152601f60248201527f4c43463a2063616c6c6572206973206e6f74204c4346206465706c6f79657200604482015290519081900360640190fd5b565b6002546001600160a01b031661079b576040805162461bcd60e51b815260206004820152601c60248201527f4c43463a204c5154592041646472657373206973206e6f742073657400000000604482015290519081900360640190fd5b6301e13380610814600054426109d290919063ffffffff16565b101561079b5760405162461bcd60e51b8152600401808060200182810382526025815260200180611ac36025913960400191505060405180910390fd5b61085a816109b2565b6108955760405162461bcd60e51b815260040180806020018281038252603d815260200180611ae8603d913960400191505060405180910390fd5b50565b6001600160a01b03808216600090815260036020526040902054163381146108f15760405162461bcd60e51b8152600401808060200182810382526039815260200180611b696039913960400191505060405180910390fd5b5050565b6001600160a01b0390811660009081526004602052604090205416151590565b61091e816108f5565b6108955760405162461bcd60e51b8152600401808060200182810382526044815260200180611b256044913960600191505060405180910390fd5b6001600160a01b03808216600090815260046020526040902054163381146108f15760405162461bcd60e51b8152600401808060200182810382526040815260200180611a836040913960400191505060405180910390fd5b6001600160a01b0390811660009081526003602052604090205416151590565b6000610a1483836040518060400160405280601e81526020017f536166654d6174683a207375627472616374696f6e206f766572666c6f770000815250610a1b565b9392505050565b60008184841115610aaa5760405162461bcd60e51b81526004018080602001828103825283818151815260200191508051906020019080838360005b83811015610a6f578181015183820152602001610a57565b50505050905090810190601f168015610a9c5780820380516001836020036101000a031916815260200191505b509250505060405180910390fd5b505050900390565b6107d680610acd83390190565b6107e0806112a38339019056fe608060405234801561001057600080fd5b506040516107d63803806107d68339818101604052608081101561003357600080fd5b50805160208201516040830151606090930151600080546001600160a01b03199081163317909155600280546001600160a01b039586169083161790556001805494909316931692909217905560039190915560055561073e806100986000396000f3fe608060405234801561001057600080fd5b50600436106100835760003560e01c806302fb0c5e146100885780631f7af3c3146100a457806338af3eed146100c8578063753868e3146100d0578063ab8f8d97146100d8578063ac214c97146100f2578063b9470a46146100fa578063d5f3948814610104578063fac8170b1461010c575b600080fd5b610090610114565b604080519115158252519081900360200190f35b6100ac61011d565b604080516001600160a01b039092168252519081900360200190f35b6100ac61012c565b61009061013b565b6100e06101a0565b60408051918252519081900360200190f35b6100e06101a6565b6101026101ac565b005b6100ac6102fe565b6100e061030d565b60065460ff1681565b6002546001600160a01b031681565b6001546001600160a01b031681565b6000610145610313565b61014d61035e565b6101556103a0565b4260048190556006805460ff1916600117905560408051918252517f38bce1a287be60f4318ab364ff89b3feaa11bcbfb421e666117c31658f3906129181900360200190a150600190565b60045481565b60035481565b6101b461045e565b6101bc6104a7565b6101c4610503565b600254604080516370a0823160e01b815230600482015290516000926001600160a01b0316916370a08231916024808301926020929190829003018186803b15801561020f57600080fd5b505afa158015610223573d6000803e3d6000fd5b505050506040513d602081101561023957600080fd5b50516002546040805163a9059cbb60e01b81523360048201526024810184905290519293506001600160a01b039091169163a9059cbb916044808201926020929091908290030181600087803b15801561029257600080fd5b505af11580156102a6573d6000803e3d6000fd5b505050506040513d60208110156102bc57600080fd5b50506006805460ff191690556040805142815290517fae1df3e45f830ec52fff221a200a074edbc5fe9a09978061c1716f52fee386969181900360200190a150565b6000546001600160a01b031681565b60055481565b6000546001600160a01b0316331461035c5760405162461bcd60e51b81526004018080602001828103825260218152602001806106856021913960400191505060405180910390fd5b565b60065460ff161561035c5760405162461bcd60e51b81526004018080602001828103825260218152602001806106a66021913960400191505060405180910390fd5b600254604080516370a0823160e01b815230600482015290516000926001600160a01b0316916370a08231916024808301926020929190829003018186803b1580156103eb57600080fd5b505afa1580156103ff573d6000803e3d6000fd5b505050506040513d602081101561041557600080fd5b505160035490915081101561045b5760405162461bcd60e51b81526004018080602001828103825260428152602001806106c76042913960600191505060405180910390fd5b50565b6001546001600160a01b0316331461035c5760405162461bcd60e51b81526004018080602001828103825260238152602001806106386023913960400191505060405180910390fd5b60065460ff16151560011461035c576040805162461bcd60e51b815260206004820152601f60248201527f43444c433a20436f6e7472616374206d75737420626520696e61637469766500604482015290519081900360640190fd5b60055460045461051a90429063ffffffff61055716565b101561035c5760405162461bcd60e51b815260040180806020018281038252602a81526020018061065b602a913960400191505060405180910390fd5b600061059983836040518060400160405280601e81526020017f536166654d6174683a207375627472616374696f6e206f766572666c6f7700008152506105a0565b9392505050565b6000818484111561062f5760405162461bcd60e51b81526004018080602001828103825283818151815260200191508051906020019080838360005b838110156105f45781810151838201526020016105dc565b50505050905090810190601f1680156106215780820380516001836020036101000a031916815260200191505b509250505060405180910390fd5b50505090039056fe4f594c433a2063616c6c6572206973206e6f74207468652062656e656669636961727943444c433a20546865206c6f636b7570206475726174696f6e206d7573742068617665207061737365644f594c433a2063616c6c6572206973206e6f74204f594c43206465706c6f79657243444c433a20436f6e7472616374206d757374206e6f742062652061637469766543444c433a204c5154592062616c616e6365206f6620746869732043444c43206d75737420636f7665722074686520696e697469616c20656e7469746c656d656e74a2646970667358221220baa9ad0c189518edd7e313604040601c40b41ea8e4a88ed345c24acebbfe117864736f6c634300060b0033608060405234801561001057600080fd5b506040516107e03803806107e08339818101604052606081101561003357600080fd5b5080516020820151604090920151600080546001600160a01b03199081163317909155600280546001600160a01b0394851690831617905560018054939094169216919091179091556003556107528061008e6000396000f3fe608060405234801561001057600080fd5b50600436106100835760003560e01c806302fb0c5e146100885780631f7af3c3146100a457806338af3eed146100c857806353e3ad27146100d0578063753868e3146100ea578063ac214c97146100f2578063b9470a46146100fa578063d5f3948814610104578063e7c8fed41461010c575b600080fd5b610090610114565b604080519115158252519081900360200190f35b6100ac61011d565b604080516001600160a01b039092168252519081900360200190f35b6100ac61012c565b6100d861013b565b60408051918252519081900360200190f35b610090610141565b6100d86101a6565b6101026101ac565b005b6100ac610302565b6100d8610311565b60055460ff1681565b6002546001600160a01b031681565b6001546001600160a01b031681565b60045481565b600061014b610319565b610153610364565b61015b6103a6565b6005805460ff1916600117905542600481905560408051918252517f2a77f1f754345e63f9efc97db6e93c356a098e8d9ba8e03feeda686dac15164c9181900360200190a150600190565b60035481565b6101b4610464565b6101bc6104ad565b6101c4610509565b6005805460ff19169055600254604080516370a0823160e01b815230600482015290516000926001600160a01b0316916370a08231916024808301926020929190829003018186803b15801561021957600080fd5b505afa15801561022d573d6000803e3d6000fd5b505050506040513d602081101561024357600080fd5b50516002546001546040805163a9059cbb60e01b81526001600160a01b03928316600482015260248101859052905193945091169163a9059cbb916044808201926020929091908290030181600087803b1580156102a057600080fd5b505af11580156102b4573d6000803e3d6000fd5b505050506040513d60208110156102ca57600080fd5b50506040805142815290517f37a6b507e45499a87316de0af2e623eb09ef270a6e2914f5f38df6974489eb0c9181900360200190a150565b6000546001600160a01b031681565b6301e1338081565b6000546001600160a01b031633146103625760405162461bcd60e51b81526004018080602001828103825260218152602001806106a66021913960400191505060405180910390fd5b565b60055460ff16156103625760405162461bcd60e51b81526004018080602001828103825260218152602001806106fc6021913960400191505060405180910390fd5b600254604080516370a0823160e01b815230600482015290516000926001600160a01b0316916370a08231916024808301926020929190829003018186803b1580156103f157600080fd5b505afa158015610405573d6000803e3d6000fd5b505050506040513d602081101561041b57600080fd5b50516003549091508110156104615760405162461bcd60e51b81526004018080602001828103825260428152602001806106646042913960600191505060405180910390fd5b50565b6001546001600160a01b031633146103625760405162461bcd60e51b81526004018080602001828103825260238152602001806106416023913960400191505060405180910390fd5b60055460ff161515600114610362576040805162461bcd60e51b815260206004820152601d60248201527f4f594c433a20436f6e7472616374206d75737420626520616374697665000000604482015290519081900360640190fd5b6301e133806105236004544261056090919063ffffffff16565b10156103625760405162461bcd60e51b81526004018080602001828103825260358152602001806106c76035913960400191505060405180910390fd5b60006105a283836040518060400160405280601e81526020017f536166654d6174683a207375627472616374696f6e206f766572666c6f7700008152506105a9565b9392505050565b600081848411156106385760405162461bcd60e51b81526004018080602001828103825283818151815260200191508051906020019080838360005b838110156105fd5781810151838201526020016105e5565b50505050905090810190601f16801561062a5780820380516001836020036101000a031916815260200191505b509250505060405180910390fd5b50505090039056fe4f594c433a2063616c6c6572206973206e6f74207468652062656e65666963696172794f594c433a204c5154592062616c616e6365206f662074686973204f594c43206d75737420636f7665722074686520696e697469616c20656e7469746c656d656e744f594c433a2063616c6c6572206973206e6f74204f594c43206465706c6f7965724f594c433a204174206c65617374206f6e6520796561722073696e6365206c6f636b7570206d7573742068617665207061737365644f594c433a20436f6e7472616374206d757374206e6f7420626520616374697665a2646970667358221220c5a7252f9ee373c40c17c06f97ee13a09f0f60b45f70e80227db58ed974a5a0264736f6c634300060b00334c43463a20637573746f6d4475726174696f6e4c6f636b7570436f6e747261637420776173206e6f74206465706c6f796564206279207468652063616c6c6572466163746f7279206d757374206265206174206c65617374206f6e652079656172206f6c644c43463a206973206e6f74207468652061646472657373206f6620612072656769737465726564204f6e65596561724c6f636b7570436f6e74726163744c43463a206973206e6f74207468652061646472657373206f662061207265676973746572656420437573746f6d4475726174696f6e4c6f636b7570436f6e74726163744c43463a204f6e65596561724c6f636b7570436f6e747261637420776173206e6f74206465706c6f796564206279207468652063616c6c6572a26469706673582212205e7b831a6897137a7e2124bb3c8014e66517954ff946bdea4703bf978c3cfd2764736f6c634300060b0033",
  "linkReferences": {},
  "deployedLinkReferences": {}
}