{
  "_format": "hh-sol-artifact-1",
  "contractName": "LockupContract",
  "sourceName": "contracts/LQTY/LockupContract.sol",
  "abi": [
    {
      "inputs": [
        {
          "internalType": "address",
          "name": "_lqtyTokenAddress",
          "type": "address"
        },
        {
          "internalType": "address",
          "name": "_beneficiary",
          "type": "address"
        },
        {
          "internalType": "uint256",
          "name": "_unlockTime",
          "type": "uint256"
        }
      ],
      "stateMutability": "nonpayable",
      "type": "constructor"
    },
    {
      "anonymous": false,
      "inputs": [
        {
          "indexed": false,
          "internalType": "address",
          "name": "_beneficiary",
          "type": "address"
        },
        {
          "indexed": false,
          "internalType": "uint256",
          "name": "_unlockTime",
          "type": "uint256"
        }
      ],
      "name": "LockupContractCreated",
      "type": "event"
    },
    {
      "anonymous": false,
      "inputs": [
        {
          "indexed": false,
          "internalType": "uint256",
          "name": "_LQTYwithdrawal",
          "type": "uint256"
        }
      ],
      "name": "LockupContractEmptied",
      "type": "event"
    },
    {
      "inputs": [],
      "name": "SECONDS_IN_ONE_YEAR",
      "outputs": [
        {
          "internalType": "uint256",
          "name": "",
          "type": "uint256"
        }
      ],
      "stateMutability": "view",
      "type": "function"
    },
    {
      "inputs": [],
      "name": "beneficiary",
      "outputs": [
        {
          "internalType": "address",
          "name": "",
          "type": "address"
        }
      ],
      "stateMutability": "view",
      "type": "function"
    },
    {
      "inputs": [],
      "name": "lqtyToken",
      "outputs": [
        {
          "internalType": "contract ILQTYToken",
          "name": "",
          "type": "address"
        }
      ],
      "stateMutability": "view",
      "type": "function"
    },
    {
      "inputs": [],
      "name": "unlockTime",
      "outputs": [
        {
          "internalType": "uint256",
          "name": "",
          "type": "uint256"
        }
      ],
      "stateMutability": "view",
      "type": "function"
    },
    {
      "inputs": [],
      "name": "withdrawLQTY",
      "outputs": [],
      "stateMutability": "nonpayable",
      "type": "function"
    }
  ],
  "bytecode": "0x60a060405234801561001057600080fd5b506040516106713803806106718339818101604052606081101561003357600080fd5b5080516020820151604090920151600080546001600160a01b0319166001600160a01b038416179055909190610068816100cb565b60018190556001600160601b0319606083901b16608052604080516001600160a01b03841681526020810183905281517f5faee922186516bf77266643c1fda130acefc439d571400e8697106c6aed9b54929181900390910190a1505050610204565b60008060009054906101000a90046001600160a01b03166001600160a01b0316633c84b7c26040518163ffffffff1660e01b815260040160206040518083038186803b15801561011a57600080fd5b505afa15801561012e573d6000803e3d6000fd5b505050506040513d602081101561014457600080fd5b50519050610161816301e133806101a3602090811b61025817901c565b82101561019f5760405162461bcd60e51b815260040180806020018281038252604d815260200180610624604d913960600191505060405180910390fd5b5050565b6000828201838110156101fd576040805162461bcd60e51b815260206004820152601b60248201527f536166654d6174683a206164646974696f6e206f766572666c6f770000000000604482015290519081900360640190fd5b9392505050565b60805160601c6103fa61022a6000398060cb528061019752806102c452506103fa6000f3fe608060405234801561001057600080fd5b50600436106100575760003560e01c80631f7af3c31461005c578063251c1aa31461008057806338af3eed1461009a57806398e5f3c4146100a2578063b9470a46146100aa575b600080fd5b6100646100b4565b604080516001600160a01b039092168252519081900360200190f35b6100886100c3565b60408051918252519081900360200190f35b6100646100c9565b6100886100ed565b6100b26100f5565b005b6000546001600160a01b031681565b60015481565b7f000000000000000000000000000000000000000000000000000000000000000081565b6301e1338081565b6100fd6102b9565b610105610322565b60008054604080516370a0823160e01b815230600482015290516001600160a01b03909216929183916370a08231916024808301926020929190829003018186803b15801561015357600080fd5b505afa158015610167573d6000803e3d6000fd5b505050506040513d602081101561017d57600080fd5b50516040805163a9059cbb60e01b81526001600160a01b037f0000000000000000000000000000000000000000000000000000000000000000811660048301526024820184905291519293509084169163a9059cbb916044808201926020929091908290030181600087803b1580156101f557600080fd5b505af1158015610209573d6000803e3d6000fd5b505050506040513d602081101561021f57600080fd5b50506040805182815290517f7d17cbc0f78ccfed33842dd29dab2872e8347bf3981293ab2cfe35ca16371a2f9181900360200190a15050565b6000828201838110156102b2576040805162461bcd60e51b815260206004820152601b60248201527f536166654d6174683a206164646974696f6e206f766572666c6f770000000000604482015290519081900360640190fd5b9392505050565b336001600160a01b037f000000000000000000000000000000000000000000000000000000000000000016146103205760405162461bcd60e51b815260040180806020018281038252602d815260200180610398602d913960400191505060405180910390fd5b565b6001544210156103205760405162461bcd60e51b81526004018080602001828103825260348152602001806103646034913960400191505060405180910390fdfe4c6f636b7570436f6e74726163743a20546865206c6f636b7570206475726174696f6e206d7573742068617665207061737365644c6f636b7570436f6e74726163743a2063616c6c6572206973206e6f74207468652062656e6566696369617279a26469706673582212205016d664cd8ade6fd89adccb1fdc424b4ae8edaa49aee04692ee0b4c224cbd1a64736f6c634300060b00334c6f636b7570436f6e74726163743a20756e6c6f636b2074696d65206d757374206265206174206c65617374206f6e6520796561722061667465722073797374656d206465706c6f796d656e74",
  "linkReferences": {},
  "deployedLinkReferences": {}
}