{
  "_format": "hh-sol-artifact-1",
  "contractName": "LockupContractFactory",
  "sourceName": "contracts/LQTY/LockupContractFactory.sol",
  "abi": [
    {
      "anonymous": false,
      "inputs": [
        {
          "indexed": false,
          "internalType": "address",
          "name": "_lqtyTokenAddress",
          "type": "address"
        }
      ],
      "name": "LQTYTokenAddressSet",
      "type": "event"
    },
    {
      "anonymous": false,
      "inputs": [
        {
          "indexed": false,
          "internalType": "address",
          "name": "_lockupContractAddress",
          "type": "address"
        },
        {
          "indexed": false,
          "internalType": "address",
          "name": "_beneficiary",
          "type": "address"
        },
        {
          "indexed": false,
          "internalType": "uint256",
          "name": "_unlockTime",
          "type": "uint256"
        }
      ],
      "name": "LockupContractDeployed",
      "type": "event"
    },
    {
      "anonymous": false,
      "inputs": [
        {
          "indexed": true,
          "internalType": "address",
          "name": "previousOwner",
          "type": "address"
        },
        {
          "indexed": true,
          "internalType": "address",
          "name": "newOwner",
          "type": "address"
        }
      ],
      "name": "OwnershipTransferred",
      "type": "event"
    },
    {
      "inputs": [],
      "name": "SECONDS_IN_ONE_YEAR",
      "outputs": [
        {
          "internalType": "uint256",
          "name": "",
          "type": "uint256"
        }
      ],
      "stateMutability": "view",
      "type": "function"
    },
    {
      "inputs": [
        {
          "internalType": "address",
          "name": "_beneficiary",
          "type": "address"
        },
        {
          "internalType": "uint256",
          "name": "_unlockTime",
          "type": "uint256"
        }
      ],
      "name": "deployLockupContract",
      "outputs": [],
      "stateMutability": "nonpayable",
      "type": "function"
    },
    {
      "inputs": [],
      "name": "isOwner",
      "outputs": [
        {
          "internalType": "bool",
          "name": "",
          "type": "bool"
        }
      ],
      "stateMutability": "view",
      "type": "function"
    },
    {
      "inputs": [
        {
          "internalType": "address",
          "name": "_contractAddress",
          "type": "address"
        }
      ],
      "name": "isRegisteredLockup",
      "outputs": [
        {
          "internalType": "bool",
          "name": "",
          "type": "bool"
        }
      ],
      "stateMutability": "view",
      "type": "function"
    },
    {
      "inputs": [
        {
          "internalType": "address",
          "name": "",
          "type": "address"
        }
      ],
      "name": "lockupContractToDeployer",
      "outputs": [
        {
          "internalType": "address",
          "name": "",
          "type": "address"
        }
      ],
      "stateMutability": "view",
      "type": "function"
    },
    {
      "inputs": [],
      "name": "lqtyTokenAddress",
      "outputs": [
        {
          "internalType": "address",
          "name": "",
          "type": "address"
        }
      ],
      "stateMutability": "view",
      "type": "function"
    },
    {
      "inputs": [],
      "name": "owner",
      "outputs": [
        {
          "internalType": "address",
          "name": "",
          "type": "address"
        }
      ],
      "stateMutability": "view",
      "type": "function"
    },
    {
      "inputs": [
        {
          "internalType": "address",
          "name": "_lqtyTokenAddress",
          "type": "address"
        }
      ],
      "name": "setLQTYTokenAddress",
      "outputs": [],
      "stateMutability": "nonpayable",
      "type": "function"
    }
  ],
  "bytecode": "0x608060405234801561001057600080fd5b50600080546001600160a01b0319163390811782556040519091907f8be0079c531659141344cd1fd0a4f28419497f9722a3daafe3b4186f6b6457e0908290a3610b548061005f6000396000f3fe608060405234801561001057600080fd5b50600436106100785760003560e01c806319d083031461007d57806334c44b4d146100a5578063817f6481146100d15780638da5cb5b146100f55780638f32d59b146100fd57806398e5f3c414610119578063bb7603f114610133578063d83c72db14610159575b600080fd5b6100a36004803603602081101561009357600080fd5b50356001600160a01b031661017f565b005b6100a3600480360360408110156100bb57600080fd5b506001600160a01b03813516906020013561023d565b6100d961031b565b604080516001600160a01b039092168252519081900360200190f35b6100d961032a565b610105610339565b604080519115158252519081900360200190f35b61012161034a565b60408051918252519081900360200190f35b6101056004803603602081101561014957600080fd5b50356001600160a01b0316610352565b6100d96004803603602081101561016f57600080fd5b50356001600160a01b0316610372565b610187610339565b6101d8576040805162461bcd60e51b815260206004820181905260248201527f4f776e61626c653a2063616c6c6572206973206e6f7420746865206f776e6572604482015290519081900360640190fd5b6101e18161038d565b600180546001600160a01b0383166001600160a01b0319909116811790915560408051918252517fb0c89119a7c10e4c2d02306921ba368ac83d0e4b302337916017485c2791bec59181900360200190a161023a610440565b50565b61024561048a565b6001546040516000916001600160a01b03169084908490610265906104e9565b6001600160a01b039384168152919092166020820152604080820192909252905190819003606001906000f0801580156102a3573d6000803e3d6000fd5b506001600160a01b0380821660008181526002602090815260409182902080546001600160a01b0319163317905581519283529287169282019290925280820185905290519192507f21d5daecc536bb5e7bc36bcdf3c2714bdea4d973fb5941d0e5cb83d14ace4bf8919081900360600190a1505050565b6001546001600160a01b031681565b6000546001600160a01b031690565b6000546001600160a01b0316331490565b6301e1338081565b6001600160a01b0390811660009081526002602052604090205416151590565b6002602052600090815260409020546001600160a01b031681565b6001600160a01b0381166103e8576040805162461bcd60e51b815260206004820152601e60248201527f4163636f756e742063616e6e6f74206265207a65726f20616464726573730000604482015290519081900360640190fd5b803b8061043c576040805162461bcd60e51b815260206004820181905260248201527f4163636f756e7420636f64652073697a652063616e6e6f74206265207a65726f604482015290519081900360640190fd5b5050565b600080546040516001600160a01b03909116907f8be0079c531659141344cd1fd0a4f28419497f9722a3daafe3b4186f6b6457e0908390a3600080546001600160a01b0319169055565b6001546001600160a01b03166104e7576040805162461bcd60e51b815260206004820152601c60248201527f4c43463a204c5154592041646472657373206973206e6f742073657400000000604482015290519081900360640190fd5b565b610628806104f78339019056fe60a060405234801561001057600080fd5b506040516106283803806106288339818101604052606081101561003357600080fd5b5080516020820151604090920151600080546001600160a01b0319166001600160a01b03841617905590919061006881610081565b60015560601b6001600160601b031916608052506101ba565b60008060009054906101000a90046001600160a01b03166001600160a01b0316633c84b7c26040518163ffffffff1660e01b815260040160206040518083038186803b1580156100d057600080fd5b505afa1580156100e4573d6000803e3d6000fd5b505050506040513d60208110156100fa57600080fd5b50519050610117816301e13380610159602090811b61025917901c565b8210156101555760405162461bcd60e51b815260040180806020018281038252604d8152602001806105db604d913960600191505060405180910390fd5b5050565b6000828201838110156101b3576040805162461bcd60e51b815260206004820152601b60248201527f536166654d6174683a206164646974696f6e206f766572666c6f770000000000604482015290519081900360640190fd5b9392505050565b60805160601c6103fb6101e06000398060cb528061019952806102c552506103fb6000f3fe608060405234801561001057600080fd5b50600436106100575760003560e01c80631f7af3c31461005c578063251c1aa31461008057806338af3eed1461009a57806398e5f3c4146100a2578063b9470a46146100aa575b600080fd5b6100646100b4565b604080516001600160a01b039092168252519081900360200190f35b6100886100c3565b60408051918252519081900360200190f35b6100646100c9565b6100886100ed565b6100b26100f5565b005b6000546001600160a01b031681565b60015481565b7f000000000000000000000000000000000000000000000000000000000000000081565b6301e1338081565b6100fd6102ba565b610105610323565b60008054604080516370a0823160e01b815230600482015290516001600160a01b03909216916370a0823191602480820192602092909190829003018186803b15801561015157600080fd5b505afa158015610165573d6000803e3d6000fd5b505050506040513d602081101561017b57600080fd5b5051600080546040805163a9059cbb60e01b81526001600160a01b037f00000000000000000000000000000000000000000000000000000000000000008116600483015260248201869052915194955091169263a9059cbb92604480840193602093929083900390910190829087803b1580156101f757600080fd5b505af115801561020b573d6000803e3d6000fd5b505050506040513d602081101561022157600080fd5b50506040805182815290517f7d17cbc0f78ccfed33842dd29dab2872e8347bf3981293ab2cfe35ca16371a2f9181900360200190a150565b6000828201838110156102b3576040805162461bcd60e51b815260206004820152601b60248201527f536166654d6174683a206164646974696f6e206f766572666c6f770000000000604482015290519081900360640190fd5b9392505050565b336001600160a01b037f000000000000000000000000000000000000000000000000000000000000000016146103215760405162461bcd60e51b815260040180806020018281038252602d815260200180610399602d913960400191505060405180910390fd5b565b6001544210156103215760405162461bcd60e51b81526004018080602001828103825260348152602001806103656034913960400191505060405180910390fdfe4c6f636b7570436f6e74726163743a20546865206c6f636b7570206475726174696f6e206d7573742068617665207061737365644c6f636b7570436f6e74726163743a2063616c6c6572206973206e6f74207468652062656e6566696369617279a2646970667358221220ef6859d0932b3a62c65b5bbf060c39d6e239f04119805465d0bec6a1e11c866c64736f6c634300060b00334c6f636b7570436f6e74726163743a20756e6c6f636b2074696d65206d757374206265206174206c65617374206f6e6520796561722061667465722073797374656d206465706c6f796d656e74a2646970667358221220b13b99337a67365c300a4bedaa3e6ef55cedbcc4f81810e726ba7f8f78ddade564736f6c634300060b0033",
  "linkReferences": {},
  "deployedLinkReferences": {}
}