{
  "_format": "hh-sol-artifact-1",
  "contractName": "LockupContract",
  "sourceName": "contracts/LQTY/LockupContract.sol",
  "abi": [
    {
      "inputs": [
        {
          "internalType": "address",
          "name": "_lqtyTokenAddress",
          "type": "address"
        },
        {
          "internalType": "address",
          "name": "_beneficiary",
          "type": "address"
        },
        {
          "internalType": "uint256",
          "name": "_unlockTime",
          "type": "uint256"
        }
      ],
      "stateMutability": "nonpayable",
      "type": "constructor"
    },
    {
      "anonymous": false,
      "inputs": [
        {
          "indexed": false,
          "internalType": "address",
          "name": "_beneficiary",
          "type": "address"
        },
        {
          "indexed": false,
          "internalType": "uint256",
          "name": "_unlockTime",
          "type": "uint256"
        }
      ],
      "name": "LockupContractCreated",
      "type": "event"
    },
    {
      "anonymous": false,
      "inputs": [
        {
          "indexed": false,
          "internalType": "uint256",
          "name": "_LQTYwithdrawal",
          "type": "uint256"
        }
      ],
      "name": "LockupContractEmptied",
      "type": "event"
    },
    {
      "inputs": [],
      "name": "NAME",
      "outputs": [
        {
          "internalType": "string",
          "name": "",
          "type": "string"
        }
      ],
      "stateMutability": "view",
      "type": "function"
    },
    {
      "inputs": [],
      "name": "SECONDS_IN_ONE_YEAR",
      "outputs": [
        {
          "internalType": "uint256",
          "name": "",
          "type": "uint256"
        }
      ],
      "stateMutability": "view",
      "type": "function"
    },
    {
      "inputs": [],
      "name": "beneficiary",
      "outputs": [
        {
          "internalType": "address",
          "name": "",
          "type": "address"
        }
      ],
      "stateMutability": "view",
      "type": "function"
    },
    {
      "inputs": [],
      "name": "lqtyToken",
      "outputs": [
        {
          "internalType": "contract ILQTYToken",
          "name": "",
          "type": "address"
        }
      ],
      "stateMutability": "view",
      "type": "function"
    },
    {
      "inputs": [],
      "name": "unlockTime",
      "outputs": [
        {
          "internalType": "uint256",
          "name": "",
          "type": "uint256"
        }
      ],
      "stateMutability": "view",
      "type": "function"
    },
    {
      "inputs": [],
      "name": "withdrawLQTY",
      "outputs": [],
      "stateMutability": "nonpayable",
      "type": "function"
    }
  ],
  "bytecode": "0x60a060405234801561001057600080fd5b506040516107243803806107248339818101604052606081101561003357600080fd5b5080516020820151604090920151600080546001600160a01b0319166001600160a01b038416179055909190610068816100cb565b60018190556001600160601b0319606083901b16608052604080516001600160a01b03841681526020810183905281517f5faee922186516bf77266643c1fda130acefc439d571400e8697106c6aed9b54929181900390910190a1505050610204565b60008060009054906101000a90046001600160a01b03166001600160a01b0316633c84b7c26040518163ffffffff1660e01b815260040160206040518083038186803b15801561011a57600080fd5b505afa15801561012e573d6000803e3d6000fd5b505050506040513d602081101561014457600080fd5b50519050610161816301e133806101a3602090811b61030a17901c565b82101561019f5760405162461bcd60e51b815260040180806020018281038252604d8152602001806106d7604d913960600191505060405180910390fd5b5050565b6000828201838110156101fd576040805162461bcd60e51b815260206004820152601b60248201527f536166654d6174683a206164646974696f6e206f766572666c6f770000000000604482015290519081900360640190fd5b9392505050565b60805160601c6104ac61022b600039806101535280610249528061037652506104ac6000f3fe608060405234801561001057600080fd5b50600436106100625760003560e01c80631f7af3c314610067578063251c1aa31461008b57806338af3eed146100a557806398e5f3c4146100ad578063a3f4df7e146100b5578063b9470a4614610132575b600080fd5b61006f61013c565b604080516001600160a01b039092168252519081900360200190f35b61009361014b565b60408051918252519081900360200190f35b61006f610151565b610093610175565b6100bd61017d565b6040805160208082528351818301528351919283929083019185019080838360005b838110156100f75781810151838201526020016100df565b50505050905090810190601f1680156101245780820380516001836020036101000a031916815260200191505b509250505060405180910390f35b61013a6101a7565b005b6000546001600160a01b031681565b60015481565b7f000000000000000000000000000000000000000000000000000000000000000081565b6301e1338081565b6040518060400160405280600e81526020016d131bd8dadd5c10dbdb9d1c9858dd60921b81525081565b6101af61036b565b6101b76103d4565b60008054604080516370a0823160e01b815230600482015290516001600160a01b03909216929183916370a08231916024808301926020929190829003018186803b15801561020557600080fd5b505afa158015610219573d6000803e3d6000fd5b505050506040513d602081101561022f57600080fd5b50516040805163a9059cbb60e01b81526001600160a01b037f0000000000000000000000000000000000000000000000000000000000000000811660048301526024820184905291519293509084169163a9059cbb916044808201926020929091908290030181600087803b1580156102a757600080fd5b505af11580156102bb573d6000803e3d6000fd5b505050506040513d60208110156102d157600080fd5b50506040805182815290517f7d17cbc0f78ccfed33842dd29dab2872e8347bf3981293ab2cfe35ca16371a2f9181900360200190a15050565b600082820183811015610364576040805162461bcd60e51b815260206004820152601b60248201527f536166654d6174683a206164646974696f6e206f766572666c6f770000000000604482015290519081900360640190fd5b9392505050565b336001600160a01b037f000000000000000000000000000000000000000000000000000000000000000016146103d25760405162461bcd60e51b815260040180806020018281038252602d81526020018061044a602d913960400191505060405180910390fd5b565b6001544210156103d25760405162461bcd60e51b81526004018080602001828103825260348152602001806104166034913960400191505060405180910390fdfe4c6f636b7570436f6e74726163743a20546865206c6f636b7570206475726174696f6e206d7573742068617665207061737365644c6f636b7570436f6e74726163743a2063616c6c6572206973206e6f74207468652062656e6566696369617279a2646970667358221220a3533d4a22e7d00d2227d12bf3317fdc33b762edad5da99343ef64b5ae50574364736f6c634300060b00334c6f636b7570436f6e74726163743a20756e6c6f636b2074696d65206d757374206265206174206c65617374206f6e6520796561722061667465722073797374656d206465706c6f796d656e74",
  "linkReferences": {},
  "deployedLinkReferences": {}
}