{
  "_format": "hh-sol-artifact-1",
  "contractName": "LPTokenWrapper",
  "sourceName": "contracts/LPRewards/Unipool.sol",
  "abi": [
    {
      "inputs": [
        {
          "internalType": "address",
          "name": "account",
          "type": "address"
        }
      ],
      "name": "balanceOf",
      "outputs": [
        {
          "internalType": "uint256",
          "name": "",
          "type": "uint256"
        }
      ],
      "stateMutability": "view",
      "type": "function"
    },
    {
      "inputs": [
        {
          "internalType": "uint256",
          "name": "amount",
          "type": "uint256"
        }
      ],
      "name": "stake",
      "outputs": [],
      "stateMutability": "nonpayable",
      "type": "function"
    },
    {
      "inputs": [],
      "name": "totalSupply",
      "outputs": [
        {
          "internalType": "uint256",
          "name": "",
          "type": "uint256"
        }
      ],
      "stateMutability": "view",
      "type": "function"
    },
    {
      "inputs": [],
      "name": "uniToken",
      "outputs": [
        {
          "internalType": "contract IERC20",
          "name": "",
          "type": "address"
        }
      ],
      "stateMutability": "view",
      "type": "function"
    },
    {
      "inputs": [
        {
          "internalType": "uint256",
          "name": "amount",
          "type": "uint256"
        }
      ],
      "name": "withdraw",
      "outputs": [],
      "stateMutability": "nonpayable",
      "type": "function"
    }
  ],
  "bytecode": "0x608060405234801561001057600080fd5b506106f9806100206000396000f3fe608060405234801561001057600080fd5b50600436106100575760003560e01c806318160ddd1461005c5780632e1a7d4d1461007657806370a082311461009557806385ce4fee146100bb578063a694fc3a146100df575b600080fd5b6100646100fc565b60408051918252519081900360200190f35b6100936004803603602081101561008c57600080fd5b5035610102565b005b610064600480360360208110156100ab57600080fd5b50356001600160a01b0316610166565b6100c3610181565b604080516001600160a01b039092168252519081900360200190f35b610093600480360360208110156100f557600080fd5b5035610190565b60015490565b600154610115908263ffffffff6101f216565b60015533600090815260026020526040902054610138908263ffffffff6101f216565b336000818152600260205260408120929092559054610163916001600160a01b03909116908361023b565b50565b6001600160a01b031660009081526002602052604090205490565b6000546001600160a01b031681565b6001546101a3908263ffffffff61029216565b600155336000908152600260205260409020546101c6908263ffffffff61029216565b336000818152600260205260408120929092559054610163916001600160a01b039091169030846102ec565b600061023483836040518060400160405280601e81526020017f536166654d6174683a207375627472616374696f6e206f766572666c6f77000081525061034c565b9392505050565b604080516001600160a01b038416602482015260448082018490528251808303909101815260649091019091526020810180516001600160e01b031663a9059cbb60e01b17905261028d9084906103e3565b505050565b600082820183811015610234576040805162461bcd60e51b815260206004820152601b60248201527f536166654d6174683a206164646974696f6e206f766572666c6f770000000000604482015290519081900360640190fd5b604080516001600160a01b0380861660248301528416604482015260648082018490528251808303909101815260849091019091526020810180516001600160e01b03166323b872dd60e01b1790526103469085906103e3565b50505050565b600081848411156103db5760405162461bcd60e51b81526004018080602001828103825283818151815260200191508051906020019080838360005b838110156103a0578181015183820152602001610388565b50505050905090810190601f1680156103cd5780820380516001836020036101000a031916815260200191505b509250505060405180910390fd5b505050900390565b6060610438826040518060400160405280602081526020017f5361666545524332303a206c6f772d6c6576656c2063616c6c206661696c6564815250856001600160a01b03166104949092919063ffffffff16565b80519091501561028d5780806020019051602081101561045757600080fd5b505161028d5760405162461bcd60e51b815260040180806020018281038252602a81526020018061069a602a913960400191505060405180910390fd5b60606104a384846000856104ab565b949350505050565b6060824710156104ec5760405162461bcd60e51b81526004018080602001828103825260268152602001806106746026913960400191505060405180910390fd5b6104f585610607565b610546576040805162461bcd60e51b815260206004820152601d60248201527f416464726573733a2063616c6c20746f206e6f6e2d636f6e7472616374000000604482015290519081900360640190fd5b60006060866001600160a01b031685876040518082805190602001908083835b602083106105855780518252601f199092019160209182019101610566565b6001836020036101000a03801982511681845116808217855250505050505090500191505060006040518083038185875af1925050503d80600081146105e7576040519150601f19603f3d011682016040523d82523d6000602084013e6105ec565b606091505b50915091506105fc82828661060d565b979650505050505050565b3b151590565b6060831561061c575081610234565b82511561062c5782518084602001fd5b60405162461bcd60e51b81526020600482018181528451602484015284518593919283926044019190850190808383600083156103a057818101518382015260200161038856fe416464726573733a20696e73756666696369656e742062616c616e636520666f722063616c6c5361666545524332303a204552433230206f7065726174696f6e20646964206e6f742073756363656564a264697066735822122069b824822996faedac3bfafdd057a01077e7fab41f984ac866daf49934319dca64736f6c634300060b0033",
  "linkReferences": {},
  "deployedLinkReferences": {}
}