{
  "_format": "hh-sol-artifact-1",
  "contractName": "LQTYToken",
  "sourceName": "contracts/LQTY/LQTYToken.sol",
  "abi": [
    {
      "inputs": [
        {
          "internalType": "address",
          "name": "_communityIssuanceAddress",
          "type": "address"
        },
        {
          "internalType": "address",
          "name": "_lqtyStakingAddress",
          "type": "address"
        },
        {
          "internalType": "address",
          "name": "_lockupFactoryAddress",
          "type": "address"
        }
      ],
      "stateMutability": "nonpayable",
      "type": "constructor"
    },
    {
      "anonymous": false,
      "inputs": [
        {
          "indexed": true,
          "internalType": "address",
          "name": "owner",
          "type": "address"
        },
        {
          "indexed": true,
          "internalType": "address",
          "name": "spender",
          "type": "address"
        },
        {
          "indexed": false,
          "internalType": "uint256",
          "name": "value",
          "type": "uint256"
        }
      ],
      "name": "Approval",
      "type": "event"
    },
    {
      "anonymous": false,
      "inputs": [
        {
          "indexed": false,
          "internalType": "address",
          "name": "_communityIssuanceAddress",
          "type": "address"
        }
      ],
      "name": "CommunityIssuanceAddressSet",
      "type": "event"
    },
    {
      "anonymous": false,
      "inputs": [
        {
          "indexed": false,
          "internalType": "address",
          "name": "_lqtyStakingAddress",
          "type": "address"
        }
      ],
      "name": "LQTYStakingAddressSet",
      "type": "event"
    },
    {
      "anonymous": false,
      "inputs": [
        {
          "indexed": false,
          "internalType": "address",
          "name": "_lockupContractFactoryAddress",
          "type": "address"
        }
      ],
      "name": "LockupContractFactoryAddressSet",
      "type": "event"
    },
    {
      "anonymous": false,
      "inputs": [
        {
          "indexed": true,
          "internalType": "address",
          "name": "from",
          "type": "address"
        },
        {
          "indexed": true,
          "internalType": "address",
          "name": "to",
          "type": "address"
        },
        {
          "indexed": false,
          "internalType": "uint256",
          "name": "value",
          "type": "uint256"
        }
      ],
      "name": "Transfer",
      "type": "event"
    },
    {
      "inputs": [],
      "name": "ONE_YEAR_IN_SECONDS",
      "outputs": [
        {
          "internalType": "uint256",
          "name": "",
          "type": "uint256"
        }
      ],
      "stateMutability": "view",
      "type": "function"
    },
    {
      "inputs": [
        {
          "internalType": "address",
          "name": "owner",
          "type": "address"
        },
        {
          "internalType": "address",
          "name": "spender",
          "type": "address"
        }
      ],
      "name": "allowance",
      "outputs": [
        {
          "internalType": "uint256",
          "name": "",
          "type": "uint256"
        }
      ],
      "stateMutability": "view",
      "type": "function"
    },
    {
      "inputs": [
        {
          "internalType": "address",
          "name": "spender",
          "type": "address"
        },
        {
          "internalType": "uint256",
          "name": "amount",
          "type": "uint256"
        }
      ],
      "name": "approve",
      "outputs": [
        {
          "internalType": "bool",
          "name": "",
          "type": "bool"
        }
      ],
      "stateMutability": "nonpayable",
      "type": "function"
    },
    {
      "inputs": [
        {
          "internalType": "address",
          "name": "account",
          "type": "address"
        }
      ],
      "name": "balanceOf",
      "outputs": [
        {
          "internalType": "uint256",
          "name": "",
          "type": "uint256"
        }
      ],
      "stateMutability": "view",
      "type": "function"
    },
    {
      "inputs": [],
      "name": "communityIssuanceAddress",
      "outputs": [
        {
          "internalType": "address",
          "name": "",
          "type": "address"
        }
      ],
      "stateMutability": "view",
      "type": "function"
    },
    {
      "inputs": [],
      "name": "decimals",
      "outputs": [
        {
          "internalType": "uint8",
          "name": "",
          "type": "uint8"
        }
      ],
      "stateMutability": "view",
      "type": "function"
    },
    {
      "inputs": [
        {
          "internalType": "address",
          "name": "spender",
          "type": "address"
        },
        {
          "internalType": "uint256",
          "name": "subtractedValue",
          "type": "uint256"
        }
      ],
      "name": "decreaseAllowance",
      "outputs": [
        {
          "internalType": "bool",
          "name": "",
          "type": "bool"
        }
      ],
      "stateMutability": "nonpayable",
      "type": "function"
    },
    {
      "inputs": [],
      "name": "deployer",
      "outputs": [
        {
          "internalType": "address",
          "name": "",
          "type": "address"
        }
      ],
      "stateMutability": "view",
      "type": "function"
    },
    {
      "inputs": [],
      "name": "deploymentStartTime",
      "outputs": [
        {
          "internalType": "uint256",
          "name": "",
          "type": "uint256"
        }
      ],
      "stateMutability": "view",
      "type": "function"
    },
    {
      "inputs": [],
      "name": "domainSeparator",
      "outputs": [
        {
          "internalType": "bytes32",
          "name": "",
          "type": "bytes32"
        }
      ],
      "stateMutability": "view",
      "type": "function"
    },
    {
      "inputs": [
        {
          "internalType": "address",
          "name": "spender",
          "type": "address"
        },
        {
          "internalType": "uint256",
          "name": "addedValue",
          "type": "uint256"
        }
      ],
      "name": "increaseAllowance",
      "outputs": [
        {
          "internalType": "bool",
          "name": "",
          "type": "bool"
        }
      ],
      "stateMutability": "nonpayable",
      "type": "function"
    },
    {
      "inputs": [],
      "name": "lockupContractFactory",
      "outputs": [
        {
          "internalType": "contract ILockupContractFactory",
          "name": "",
          "type": "address"
        }
      ],
      "stateMutability": "view",
      "type": "function"
    },
    {
      "inputs": [],
      "name": "lqtyStakingAddress",
      "outputs": [
        {
          "internalType": "address",
          "name": "",
          "type": "address"
        }
      ],
      "stateMutability": "view",
      "type": "function"
    },
    {
      "inputs": [],
      "name": "name",
      "outputs": [
        {
          "internalType": "string",
          "name": "",
          "type": "string"
        }
      ],
      "stateMutability": "view",
      "type": "function"
    },
    {
      "inputs": [
        {
          "internalType": "address",
          "name": "owner",
          "type": "address"
        }
      ],
      "name": "nonces",
      "outputs": [
        {
          "internalType": "uint256",
          "name": "",
          "type": "uint256"
        }
      ],
      "stateMutability": "view",
      "type": "function"
    },
    {
      "inputs": [
        {
          "internalType": "address",
          "name": "owner",
          "type": "address"
        },
        {
          "internalType": "address",
          "name": "spender",
          "type": "address"
        },
        {
          "internalType": "uint256",
          "name": "amount",
          "type": "uint256"
        },
        {
          "internalType": "uint256",
          "name": "deadline",
          "type": "uint256"
        },
        {
          "internalType": "uint8",
          "name": "v",
          "type": "uint8"
        },
        {
          "internalType": "bytes32",
          "name": "r",
          "type": "bytes32"
        },
        {
          "internalType": "bytes32",
          "name": "s",
          "type": "bytes32"
        }
      ],
      "name": "permit",
      "outputs": [],
      "stateMutability": "nonpayable",
      "type": "function"
    },
    {
      "inputs": [],
      "name": "permitTypeHash",
      "outputs": [
        {
          "internalType": "bytes32",
          "name": "",
          "type": "bytes32"
        }
      ],
      "stateMutability": "view",
      "type": "function"
    },
    {
      "inputs": [
        {
          "internalType": "address",
          "name": "_sender",
          "type": "address"
        },
        {
          "internalType": "uint256",
          "name": "_amount",
          "type": "uint256"
        }
      ],
      "name": "sendToLQTYStaking",
      "outputs": [],
      "stateMutability": "nonpayable",
      "type": "function"
    },
    {
      "inputs": [],
      "name": "symbol",
      "outputs": [
        {
          "internalType": "string",
          "name": "",
          "type": "string"
        }
      ],
      "stateMutability": "view",
      "type": "function"
    },
    {
      "inputs": [],
      "name": "totalSupply",
      "outputs": [
        {
          "internalType": "uint256",
          "name": "",
          "type": "uint256"
        }
      ],
      "stateMutability": "view",
      "type": "function"
    },
    {
      "inputs": [
        {
          "internalType": "address",
          "name": "recipient",
          "type": "address"
        },
        {
          "internalType": "uint256",
          "name": "amount",
          "type": "uint256"
        }
      ],
      "name": "transfer",
      "outputs": [
        {
          "internalType": "bool",
          "name": "",
          "type": "bool"
        }
      ],
      "stateMutability": "nonpayable",
      "type": "function"
    },
    {
      "inputs": [
        {
          "internalType": "address",
          "name": "sender",
          "type": "address"
        },
        {
          "internalType": "address",
          "name": "recipient",
          "type": "address"
        },
        {
          "internalType": "uint256",
          "name": "amount",
          "type": "uint256"
        }
      ],
      "name": "transferFrom",
      "outputs": [
        {
          "internalType": "bool",
          "name": "",
          "type": "bool"
        }
      ],
      "stateMutability": "nonpayable",
      "type": "function"
    },
    {
      "inputs": [],
      "name": "version",
      "outputs": [
        {
          "internalType": "string",
          "name": "",
          "type": "string"
        }
      ],
      "stateMutability": "view",
      "type": "function"
    }
  ],
  "bytecode": "0x60c06040526a52b7d2dcc80cd2e40000006004553480156200002057600080fd5b506040516200199938038062001999833981810160405260608110156200004657600080fd5b508051602080830151604090930151600680546001600160a01b03199081163317909155426005556001600160601b0319606085811b821660805286901b1660a052600780546001600160a01b03841692169190911790556004549293929091600091620000dc91600391620000c89160029062000a8e6200013a821b17901c565b620001a160201b62000aee1790919060201c565b9050620000f333826001600160e01b03620001eb16565b6000620001186003620000c860016004546200013a60201b62000a8e1790919060201c565b90506200012f85826001600160e01b03620001eb16565b5050505050620003ee565b6000826200014b575060006200019b565b828202828482816200015957fe5b0414620001985760405162461bcd60e51b8152600401808060200182810382526021815260200180620019786021913960400191505060405180910390fd5b90505b92915050565b60006200019883836040518060400160405280601a81526020017f536166654d6174683a206469766973696f6e206279207a65726f000000000000815250620002ec60201b60201c565b6001600160a01b03821662000247576040805162461bcd60e51b815260206004820152601f60248201527f45524332303a206d696e7420746f20746865207a65726f206164647265737300604482015290519081900360640190fd5b62000263816002546200039360201b62000b301790919060201c565b6002556001600160a01b038216600090815260208181526040909120546200029691839062000b3062000393821b17901c565b6001600160a01b0383166000818152602081815260408083209490945583518581529351929391927fddf252ad1be2c89b69c2b068fc378daa952ba7f163c4a11628f55a4df523b3ef9281900390910190a35050565b600081836200037c5760405162461bcd60e51b81526004018080602001828103825283818151815260200191508051906020019080838360005b838110156200034057818101518382015260200162000326565b50505050905090810190601f1680156200036e5780820380516001836020036101000a031916815260200191505b509250505060405180910390fd5b5060008385816200038957fe5b0495945050505050565b60008282018381101562000198576040805162461bcd60e51b815260206004820152601b60248201527f536166654d6174683a206164646974696f6e206f766572666c6f770000000000604482015290519081900360640190fd5b60805160601c60a05160601c61154c6200042c600039806105ef52806109855280610dc952806110fc52508061090c5280610d8c525061154c6000f3fe608060405234801561001057600080fd5b506004361061014d5760003560e01c8063811c5b4d116100c3578063d874ea741161007c578063d874ea74146103e4578063dd62ed3e146103ec578063e7c8fed41461041a578063f3a2568b14610422578063f698da251461044e578063fdf27dba146104565761014d565b8063811c5b4d1461032957806395d89b4114610152578063a457c2d714610331578063a9059cbb1461035d578063d505accf14610389578063d5f39488146103dc5761014d565b8063313ce56711610115578063313ce56714610267578063395093511461028557806354fd4d50146102b157806370a08231146102b9578063761ab22c146102df5780637ecebe00146103035761014d565b806306fdde0314610152578063095ea7b3146101cf57806310ce43bd1461020f57806318160ddd1461022957806323b872dd14610231575b600080fd5b61015a61045e565b6040805160208082528351818301528351919283929083019185019080838360005b8381101561019457818101518382015260200161017c565b50505050905090810190601f1680156101c15780820380516001836020036101000a031916815260200191505b509250505060405180910390f35b6101fb600480360360408110156101e557600080fd5b506001600160a01b03813516906020013561047c565b604080519115158252519081900360200190f35b6102176104a8565b60408051918252519081900360200190f35b6102176104cc565b6101fb6004803603606081101561024757600080fd5b506001600160a01b038135811691602081013590911690604001356104d2565b61026f610560565b6040805160ff9092168252519081900360200190f35b6101fb6004803603604081101561029b57600080fd5b506001600160a01b038135169060200135610565565b61015a6105b7565b610217600480360360208110156102cf57600080fd5b50356001600160a01b03166105d2565b6102e76105ed565b604080516001600160a01b039092168252519081900360200190f35b6102176004803603602081101561031957600080fd5b50356001600160a01b0316610611565b6102e761062c565b6101fb6004803603604081101561034757600080fd5b506001600160a01b03813516906020013561063b565b6101fb6004803603604081101561037357600080fd5b506001600160a01b0381351690602001356106a5565b6103da600480360360e081101561039f57600080fd5b506001600160a01b03813581169160208101359091169060408101359060608101359060ff6080820135169060a08101359060c001356106e0565b005b6102e76108fb565b6102e761090a565b6102176004803603604081101561040257600080fd5b506001600160a01b038135811691602001351661092e565b610217610959565b6103da6004803603604081101561043857600080fd5b506001600160a01b038135169060200135610961565b6102176109ae565b610217610a88565b6040805180820190915260048152634c51545960e01b602082015290565b6000610486610b8a565b1561049357610493610bac565b61049e338484610bf2565b5060015b92915050565b7f6e71edae12b1b97f4d1f60370fef10105fa2faae0126114a169c64845d6126c990565b60025490565b60006104dc610b8a565b156104ea576104ea84610cde565b6104f383610d2e565b6104fe848484610e39565b61055684336105518560405180606001604052806028815260200161136b602891396001600160a01b038a166000908152600160209081526040808320338452909152902054919063ffffffff610f9516565b610bf2565b5060019392505050565b601290565b600061056f610b8a565b1561057c5761057c610bac565b3360008181526001602090815260408083206001600160a01b038816845290915290205461049e91908590610551908663ffffffff610b3016565b6040805180820190915260018152603160f81b602082015290565b6001600160a01b031660009081526020819052604090205490565b7f000000000000000000000000000000000000000000000000000000000000000081565b6001600160a01b031660009081526003602052604090205490565b6007546001600160a01b031681565b6000610645610b8a565b1561065257610652610bac565b61049e3384610551856040518060600160405280602581526020016114f2602591393360009081526001602090815260408083206001600160a01b038d168452909152902054919063ffffffff610f9516565b60006106af61102c565b80156106be57506106be610b8a565b156106cc576106cc8361103d565b6106d583610d2e565b61049e338484610e39565b8315806106ed5750428410155b61073e576040805162461bcd60e51b815260206004820152601b60248201527f4c5553443a205369676e61747572652068617320657870697265640000000000604482015290519081900360640190fd5b600061190161074b6109ae565b6001600160a01b038a811660008181526003602090815260408083208054600180820190925582517f6e71edae12b1b97f4d1f60370fef10105fa2faae0126114a169c64845d6126c98186015280840196909652958f166060860152608085018e905260a085019590955260c08085018d90528151808603909101815260e08501825280519083012060f09790971b6001600160f01b0319166101008501526101028401959095526101228084019690965284518084039096018652610142830180865286519682019690962095829052610162830180865286905260ff8a166101828401526101a283018990526101c2830188905293519495509391926101e2808301939192601f198301929081900390910190855afa158015610874573d6000803e3d6000fd5b5050604051601f1901519150506001600160a01b038116158015906108aa5750886001600160a01b0316816001600160a01b0316145b6108e55760405162461bcd60e51b81526004018080602001828103825260358152602001806112736035913960400191505060405180910390fd5b6108f0898989610bf2565b505050505050505050565b6006546001600160a01b031681565b7f000000000000000000000000000000000000000000000000000000000000000081565b6001600160a01b03918216600090815260016020908152604080832093909416825291909152205490565b6301e1338081565b6109696110f1565b610971610b8a565b1561097f5761097f82610cde565b6109aa827f000000000000000000000000000000000000000000000000000000000000000083610e39565b5050565b600060405180806112f86052913960408051918290036052018220828201825260048352634c51545960e01b602093840152815180830190925260018252603160f81b919092015290507f3a81c10f33bb8529c37240b8a654b1c488a9f8c7e205411c4bef216f358130477fc89efdaa54c0f20c7adf612882df0950f5a951637e0307cdcb4c672f298b8bc6610a42611158565b6040805160208082019690965280820194909452606084019290925260808301523060a0808401919091528151808403909101815260c090920190528051910120905090565b60055481565b600082610a9d575060006104a2565b82820282848281610aaa57fe5b0414610ae75760405162461bcd60e51b815260040180806020018281038252602181526020018061134a6021913960400191505060405180910390fd5b9392505050565b6000610ae783836040518060400160405280601a81526020017f536166654d6174683a206469766973696f6e206279207a65726f00000000000081525061115c565b600082820183811015610ae7576040805162461bcd60e51b815260206004820152601b60248201527f536166654d6174683a206164646974696f6e206f766572666c6f770000000000604482015290519081900360640190fd5b60006301e13380610ba6600554426111c190919063ffffffff16565b10905090565b610bb461102c565b15610bf05760405162461bcd60e51b815260040180806020018281038252602a815260200180611227602a913960400191505060405180910390fd5b565b6001600160a01b038316610c375760405162461bcd60e51b81526004018080602001828103825260248152602001806113b86024913960400191505060405180910390fd5b6001600160a01b038216610c7c5760405162461bcd60e51b81526004018080602001828103825260228152602001806112516022913960400191505060405180910390fd5b6001600160a01b03808416600081815260016020908152604080832094871680845294825291829020859055815185815291517f8c5be1e5ebec7d5bd14f71427d1e84f3dd0314c0f7b2291e5b200ac8c7c3b9259281900390910190a3505050565b6006546001600160a01b0382811691161415610d2b5760405162461bcd60e51b815260040180806020018281038252602a8152602001806112ce602a913960400191505060405180910390fd5b50565b6001600160a01b03811615801590610d4f57506001600160a01b0381163014155b610d8a5760405162461bcd60e51b815260040180806020018281038252605481526020018061140e6054913960600191505060405180910390fd5b7f00000000000000000000000000000000000000000000000000000000000000006001600160a01b0316816001600160a01b031614158015610dfe57507f00000000000000000000000000000000000000000000000000000000000000006001600160a01b0316816001600160a01b031614155b610d2b5760405162461bcd60e51b815260040180806020018281038252605381526020018061149f6053913960600191505060405180910390fd5b6001600160a01b038316610e7e5760405162461bcd60e51b81526004018080602001828103825260258152602001806113936025913960400191505060405180910390fd5b6001600160a01b038216610ec35760405162461bcd60e51b81526004018080602001828103825260238152602001806112046023913960400191505060405180910390fd5b610f06816040518060600160405280602681526020016112a8602691396001600160a01b038616600090815260208190526040902054919063ffffffff610f9516565b6001600160a01b038085166000908152602081905260408082209390935590841681522054610f3b908263ffffffff610b3016565b6001600160a01b038084166000818152602081815260409182902094909455805185815290519193928716927fddf252ad1be2c89b69c2b068fc378daa952ba7f163c4a11628f55a4df523b3ef92918290030190a3505050565b600081848411156110245760405162461bcd60e51b81526004018080602001828103825283818151815260200191508051906020019080838360005b83811015610fe9578181015183820152602001610fd1565b50505050905090810190601f1680156110165780820380516001836020036101000a031916815260200191505b509250505060405180910390fd5b505050900390565b6006546001600160a01b0316331490565b60075460408051637e56da6d60e11b81526001600160a01b0384811660048301529151919092169163fcadb4da916024808301926020929190829003018186803b15801561108a57600080fd5b505afa15801561109e573d6000803e3d6000fd5b505050506040513d60208110156110b457600080fd5b5051610d2b5760405162461bcd60e51b815260040180806020018281038252603d815260200180611462603d913960400191505060405180910390fd5b336001600160a01b037f00000000000000000000000000000000000000000000000000000000000000001614610bf05760405162461bcd60e51b81526004018080602001828103825260328152602001806113dc6032913960400191505060405180910390fd5b4690565b600081836111ab5760405162461bcd60e51b8152602060048201818152835160248401528351909283926044909101919085019080838360008315610fe9578181015183820152602001610fd1565b5060008385816111b757fe5b0495945050505050565b6000610ae783836040518060400160405280601e81526020017f536166654d6174683a207375627472616374696f6e206f766572666c6f770000815250610f9556fe45524332303a207472616e7366657220746f20746865207a65726f20616464726573734c515459546f6b656e3a2063616c6c6572206d757374206e6f7420626520746865206465706c6f79657245524332303a20617070726f766520746f20746865207a65726f20616464726573734c5553443a205265636f766572656420616464726573732066726f6d2074686520736967206973206e6f7420746865206f776e657245524332303a207472616e7366657220616d6f756e7420657863656564732062616c616e63654c515459546f6b656e3a2073656e646572206d757374206e6f7420626520746865206465706c6f796572454950373132446f6d61696e28737472696e67206e616d652c737472696e672076657273696f6e2c75696e7432353620636861696e49642c6164647265737320766572696679696e67436f6e747261637429536166654d6174683a206d756c7469706c69636174696f6e206f766572666c6f7745524332303a207472616e7366657220616d6f756e74206578636565647320616c6c6f77616e636545524332303a207472616e736665722066726f6d20746865207a65726f206164647265737345524332303a20617070726f76652066726f6d20746865207a65726f20616464726573734c515459546f6b656e3a2063616c6c6572206d75737420626520746865204c5154595374616b696e6720636f6e74726163744c5154593a2043616e6e6f74207472616e7366657220746f6b656e73206469726563746c7920746f20746865204c51545920746f6b656e20636f6e7472616374206f7220746865207a65726f20616464726573734c515459546f6b656e3a20726563697069656e74206d7573742062652061204f594c43207265676973746572656420696e2074686520466163746f72794c5154593a2043616e6e6f74207472616e7366657220746f6b656e73206469726563746c7920746f2074686520636f6d6d756e6974792069737375616e6365206f72207374616b696e6720636f6e747261637445524332303a2064656372656173656420616c6c6f77616e63652062656c6f77207a65726fa2646970667358221220c11d18905559306b61fb57d107c5a74fa6da3de01f5c50d545e4434e69a72d9864736f6c634300060b0033536166654d6174683a206d756c7469706c69636174696f6e206f766572666c6f77",
  "linkReferences": {},
  "deployedLinkReferences": {}
}