{
  "_format": "hh-sol-artifact-1",
  "contractName": "LQTYToken",
  "sourceName": "contracts/LQTY/LQTYToken.sol",
  "abi": [
    {
      "inputs": [
        {
          "internalType": "address",
          "name": "_communityIssuanceAddress",
          "type": "address"
        },
        {
          "internalType": "address",
          "name": "_lqtyStakingAddress",
          "type": "address"
        },
        {
          "internalType": "address",
          "name": "_lockupFactoryAddress",
          "type": "address"
        },
        {
          "internalType": "address",
          "name": "_bountyAddress",
          "type": "address"
        },
        {
          "internalType": "address",
          "name": "_lpRewardsAddress",
          "type": "address"
        },
        {
          "internalType": "address",
          "name": "_multisigAddress",
          "type": "address"
        }
      ],
      "stateMutability": "nonpayable",
      "type": "constructor"
    },
    {
      "anonymous": false,
      "inputs": [
        {
          "indexed": true,
          "internalType": "address",
          "name": "owner",
          "type": "address"
        },
        {
          "indexed": true,
          "internalType": "address",
          "name": "spender",
          "type": "address"
        },
        {
          "indexed": false,
          "internalType": "uint256",
          "name": "value",
          "type": "uint256"
        }
      ],
      "name": "Approval",
      "type": "event"
    },
    {
      "anonymous": false,
      "inputs": [
        {
          "indexed": false,
          "internalType": "address",
          "name": "_communityIssuanceAddress",
          "type": "address"
        }
      ],
      "name": "CommunityIssuanceAddressSet",
      "type": "event"
    },
    {
      "anonymous": false,
      "inputs": [
        {
          "indexed": false,
          "internalType": "address",
          "name": "_lqtyStakingAddress",
          "type": "address"
        }
      ],
      "name": "LQTYStakingAddressSet",
      "type": "event"
    },
    {
      "anonymous": false,
      "inputs": [
        {
          "indexed": false,
          "internalType": "address",
          "name": "_lockupContractFactoryAddress",
          "type": "address"
        }
      ],
      "name": "LockupContractFactoryAddressSet",
      "type": "event"
    },
    {
      "anonymous": false,
      "inputs": [
        {
          "indexed": true,
          "internalType": "address",
          "name": "from",
          "type": "address"
        },
        {
          "indexed": true,
          "internalType": "address",
          "name": "to",
          "type": "address"
        },
        {
          "indexed": false,
          "internalType": "uint256",
          "name": "value",
          "type": "uint256"
        }
      ],
      "name": "Transfer",
      "type": "event"
    },
    {
      "inputs": [],
      "name": "ONE_YEAR_IN_SECONDS",
      "outputs": [
        {
          "internalType": "uint256",
          "name": "",
          "type": "uint256"
        }
      ],
      "stateMutability": "view",
      "type": "function"
    },
    {
      "inputs": [
        {
          "internalType": "address",
          "name": "owner",
          "type": "address"
        },
        {
          "internalType": "address",
          "name": "spender",
          "type": "address"
        }
      ],
      "name": "allowance",
      "outputs": [
        {
          "internalType": "uint256",
          "name": "",
          "type": "uint256"
        }
      ],
      "stateMutability": "view",
      "type": "function"
    },
    {
      "inputs": [
        {
          "internalType": "address",
          "name": "spender",
          "type": "address"
        },
        {
          "internalType": "uint256",
          "name": "amount",
          "type": "uint256"
        }
      ],
      "name": "approve",
      "outputs": [
        {
          "internalType": "bool",
          "name": "",
          "type": "bool"
        }
      ],
      "stateMutability": "nonpayable",
      "type": "function"
    },
    {
      "inputs": [
        {
          "internalType": "address",
          "name": "account",
          "type": "address"
        }
      ],
      "name": "balanceOf",
      "outputs": [
        {
          "internalType": "uint256",
          "name": "",
          "type": "uint256"
        }
      ],
      "stateMutability": "view",
      "type": "function"
    },
    {
      "inputs": [],
      "name": "communityIssuanceAddress",
      "outputs": [
        {
          "internalType": "address",
          "name": "",
          "type": "address"
        }
      ],
      "stateMutability": "view",
      "type": "function"
    },
    {
      "inputs": [],
      "name": "decimals",
      "outputs": [
        {
          "internalType": "uint8",
          "name": "",
          "type": "uint8"
        }
      ],
      "stateMutability": "view",
      "type": "function"
    },
    {
      "inputs": [
        {
          "internalType": "address",
          "name": "spender",
          "type": "address"
        },
        {
          "internalType": "uint256",
          "name": "subtractedValue",
          "type": "uint256"
        }
      ],
      "name": "decreaseAllowance",
      "outputs": [
        {
          "internalType": "bool",
          "name": "",
          "type": "bool"
        }
      ],
      "stateMutability": "nonpayable",
      "type": "function"
    },
    {
      "inputs": [],
      "name": "domainSeparator",
      "outputs": [
        {
          "internalType": "bytes32",
          "name": "",
          "type": "bytes32"
        }
      ],
      "stateMutability": "view",
      "type": "function"
    },
    {
      "inputs": [],
      "name": "getDeploymentStartTime",
      "outputs": [
        {
          "internalType": "uint256",
          "name": "",
          "type": "uint256"
        }
      ],
      "stateMutability": "view",
      "type": "function"
    },
    {
      "inputs": [],
      "name": "getLpRewardsEntitlement",
      "outputs": [
        {
          "internalType": "uint256",
          "name": "",
          "type": "uint256"
        }
      ],
      "stateMutability": "view",
      "type": "function"
    },
    {
      "inputs": [
        {
          "internalType": "address",
          "name": "spender",
          "type": "address"
        },
        {
          "internalType": "uint256",
          "name": "addedValue",
          "type": "uint256"
        }
      ],
      "name": "increaseAllowance",
      "outputs": [
        {
          "internalType": "bool",
          "name": "",
          "type": "bool"
        }
      ],
      "stateMutability": "nonpayable",
      "type": "function"
    },
    {
      "inputs": [],
      "name": "lockupContractFactory",
      "outputs": [
        {
          "internalType": "contract ILockupContractFactory",
          "name": "",
          "type": "address"
        }
      ],
      "stateMutability": "view",
      "type": "function"
    },
    {
      "inputs": [],
      "name": "lqtyStakingAddress",
      "outputs": [
        {
          "internalType": "address",
          "name": "",
          "type": "address"
        }
      ],
      "stateMutability": "view",
      "type": "function"
    },
    {
      "inputs": [],
      "name": "multisigAddress",
      "outputs": [
        {
          "internalType": "address",
          "name": "",
          "type": "address"
        }
      ],
      "stateMutability": "view",
      "type": "function"
    },
    {
      "inputs": [],
      "name": "name",
      "outputs": [
        {
          "internalType": "string",
          "name": "",
          "type": "string"
        }
      ],
      "stateMutability": "view",
      "type": "function"
    },
    {
      "inputs": [
        {
          "internalType": "address",
          "name": "owner",
          "type": "address"
        }
      ],
      "name": "nonces",
      "outputs": [
        {
          "internalType": "uint256",
          "name": "",
          "type": "uint256"
        }
      ],
      "stateMutability": "view",
      "type": "function"
    },
    {
      "inputs": [
        {
          "internalType": "address",
          "name": "owner",
          "type": "address"
        },
        {
          "internalType": "address",
          "name": "spender",
          "type": "address"
        },
        {
          "internalType": "uint256",
          "name": "amount",
          "type": "uint256"
        },
        {
          "internalType": "uint256",
          "name": "deadline",
          "type": "uint256"
        },
        {
          "internalType": "uint8",
          "name": "v",
          "type": "uint8"
        },
        {
          "internalType": "bytes32",
          "name": "r",
          "type": "bytes32"
        },
        {
          "internalType": "bytes32",
          "name": "s",
          "type": "bytes32"
        }
      ],
      "name": "permit",
      "outputs": [],
      "stateMutability": "nonpayable",
      "type": "function"
    },
    {
      "inputs": [],
      "name": "permitTypeHash",
      "outputs": [
        {
          "internalType": "bytes32",
          "name": "",
          "type": "bytes32"
        }
      ],
      "stateMutability": "view",
      "type": "function"
    },
    {
      "inputs": [
        {
          "internalType": "address",
          "name": "_sender",
          "type": "address"
        },
        {
          "internalType": "uint256",
          "name": "_amount",
          "type": "uint256"
        }
      ],
      "name": "sendToLQTYStaking",
      "outputs": [],
      "stateMutability": "nonpayable",
      "type": "function"
    },
    {
      "inputs": [],
      "name": "symbol",
      "outputs": [
        {
          "internalType": "string",
          "name": "",
          "type": "string"
        }
      ],
      "stateMutability": "view",
      "type": "function"
    },
    {
      "inputs": [],
      "name": "totalSupply",
      "outputs": [
        {
          "internalType": "uint256",
          "name": "",
          "type": "uint256"
        }
      ],
      "stateMutability": "view",
      "type": "function"
    },
    {
      "inputs": [
        {
          "internalType": "address",
          "name": "recipient",
          "type": "address"
        },
        {
          "internalType": "uint256",
          "name": "amount",
          "type": "uint256"
        }
      ],
      "name": "transfer",
      "outputs": [
        {
          "internalType": "bool",
          "name": "",
          "type": "bool"
        }
      ],
      "stateMutability": "nonpayable",
      "type": "function"
    },
    {
      "inputs": [
        {
          "internalType": "address",
          "name": "sender",
          "type": "address"
        },
        {
          "internalType": "address",
          "name": "recipient",
          "type": "address"
        },
        {
          "internalType": "uint256",
          "name": "amount",
          "type": "uint256"
        }
      ],
      "name": "transferFrom",
      "outputs": [
        {
          "internalType": "bool",
          "name": "",
          "type": "bool"
        }
      ],
      "stateMutability": "nonpayable",
      "type": "function"
    },
    {
      "inputs": [],
      "name": "version",
      "outputs": [
        {
          "internalType": "string",
          "name": "",
          "type": "string"
        }
      ],
      "stateMutability": "view",
      "type": "function"
    }
  ],
  "bytecode": "0x6101c060405269d3c21bcecceda10000006004553480156200002057600080fd5b5060405162001e0238038062001e02833981810160405260c08110156200004657600080fd5b508051602082015160408301516060840151608085015160a09095015193949293919290916200007f866001600160e01b03620002d116565b62000093856001600160e01b03620002d116565b620000a7846001600160e01b03620002d116565b6001600160601b0319606082811b821661012052426101005287811b82166101405286811b82166101605285901b166101a05260408051808201825260048152634c51545960e01b602091820152815180830190925260018252603160f81b9101527f3a81c10f33bb8529c37240b8a654b1c488a9f8c7e205411c4bef216f3581304760c08190527fc89efdaa54c0f20c7adf612882df0950f5a951637e0307cdcb4c672f298b8bc660e0819052620001686001600160e01b036200038616565b60a052620001a17f8b73c3c69bb8fe3d512ecc4cf759cc79239f7b179b0ffacaa9a75d522b39400f83836001600160e01b036200038a16565b608081815250506000620001c76002600454620003eb60201b62000ad81790919060201c565b9050620001de86826001600160e01b036200045216565b600454600090620001fa90602062000ad8620003eb821b17811c565b9050620002118a826001600160e01b036200045216565b60006200024960036200023560048054620003eb60201b62000ad81790919060201c565b6200055360201b62000b381790919060201c565b61018081905290506200026687826001600160e01b036200045216565b6000620002a88262000294856200029488620002946064600454620003eb60201b62000ad81790919060201c565b6200059d60201b62000b7a1790919060201c565b9050620002bf87826001600160e01b036200045216565b50505050505050505050505062000746565b6001600160a01b0381166200032d576040805162461bcd60e51b815260206004820152601e60248201527f4163636f756e742063616e6e6f74206265207a65726f20616464726573730000604482015290519081900360640190fd5b803b8062000382576040805162461bcd60e51b815260206004820181905260248201527f4163636f756e7420636f64652073697a652063616e6e6f74206265207a65726f604482015290519081900360640190fd5b5050565b4690565b6000838383620003a26001600160e01b036200038616565b6040805160208082019690965280820194909452606084019290925260808301523060a0808401919091528151808403909101815260c090920190528051910120949350505050565b600082620003fc575060006200044c565b828202828482816200040a57fe5b0414620004495760405162461bcd60e51b815260040180806020018281038252602181526020018062001de16021913960400191505060405180910390fd5b90505b92915050565b6001600160a01b038216620004ae576040805162461bcd60e51b815260206004820152601f60248201527f45524332303a206d696e7420746f20746865207a65726f206164647265737300604482015290519081900360640190fd5b620004ca81600254620005e760201b62000bbc1790919060201c565b6002556001600160a01b03821660009081526020818152604090912054620004fd91839062000bbc620005e7821b17901c565b6001600160a01b0383166000818152602081815260408083209490945583518581529351929391927fddf252ad1be2c89b69c2b068fc378daa952ba7f163c4a11628f55a4df523b3ef9281900390910190a35050565b60006200044983836040518060400160405280601a81526020017f536166654d6174683a206469766973696f6e206279207a65726f0000000000008152506200064260201b60201c565b60006200044983836040518060400160405280601e81526020017f536166654d6174683a207375627472616374696f6e206f766572666c6f770000815250620006e960201b60201c565b60008282018381101562000449576040805162461bcd60e51b815260206004820152601b60248201527f536166654d6174683a206164646974696f6e206f766572666c6f770000000000604482015290519081900360640190fd5b60008183620006d25760405162461bcd60e51b81526004018080602001828103825283818151815260200191508051906020019080838360005b83811015620006965781810151838201526020016200067c565b50505050905090810190601f168015620006c45780820380516001836020036101000a031916815260200191505b509250505060405180910390fd5b506000838581620006df57fe5b0495945050505050565b600081848411156200073e5760405162461bcd60e51b8152602060048201818152835160248401528351909283926044909101919085019080838360008315620006965781810151838201526020016200067c565b505050900390565b60805160a05160c05160e051610100516101205160601c6101405160601c6101605160601c610180516101a05160601c6115f5620007ec6000398061068a52806111285250806106ae52508061064b52806109e55280610e94528061120e52508061096c5280610e575250806105f15280610d8752806111025250806105cd5280610c23525080610aad525080610a8c525080610a12525080610a4252506115f56000f3fe608060405234801561001057600080fd5b50600436106101585760003560e01c80637ecebe00116100c3578063d505accf1161007c578063d505accf146103ac578063d874ea74146103ff578063dd62ed3e14610407578063e7c8fed414610435578063f3a2568b1461043d578063f698da251461046957610158565b80637ecebe001461031e578063811c5b4d1461034457806395d89b411461015d578063974f55901461034c578063a457c2d714610354578063a9059cbb1461038057610158565b8063395093511161011557806339509351146102905780633c84b7c2146102bc5780635462870d146102c457806354fd4d50146102e857806370a08231146102f0578063761ab22c1461031657610158565b806306fdde031461015d578063095ea7b3146101da57806310ce43bd1461021a57806318160ddd1461023457806323b872dd1461023c578063313ce56714610272575b600080fd5b610165610471565b6040805160208082528351818301528351919283929083019185019080838360005b8381101561019f578181015183820152602001610187565b50505050905090810190601f1680156101cc5780820380516001836020036101000a031916815260200191505b509250505060405180910390f35b610206600480360360408110156101f057600080fd5b506001600160a01b038135169060200135610490565b604080519115158252519081900360200190f35b6102226104bc565b60408051918252519081900360200190f35b6102226104e0565b6102066004803603606081101561025257600080fd5b506001600160a01b038135811691602081013590911690604001356104e6565b61027a610574565b6040805160ff9092168252519081900360200190f35b610206600480360360408110156102a657600080fd5b506001600160a01b038135169060200135610579565b6102226105cb565b6102cc6105ef565b604080516001600160a01b039092168252519081900360200190f35b610165610613565b6102226004803603602081101561030657600080fd5b50356001600160a01b031661062e565b6102cc610649565b6102226004803603602081101561033457600080fd5b50356001600160a01b031661066d565b6102cc610688565b6102226106ac565b6102066004803603604081101561036a57600080fd5b506001600160a01b0381351690602001356106d0565b6102066004803603604081101561039657600080fd5b506001600160a01b03813516906020013561073a565b6103fd600480360360e08110156103c257600080fd5b506001600160a01b03813581169160208101359091169060408101359060608101359060ff6080820135169060a08101359060c00135610775565b005b6102cc61096a565b6102226004803603604081101561041d57600080fd5b506001600160a01b038135811691602001351661098e565b6102226109b9565b6103fd6004803603604081101561045357600080fd5b506001600160a01b0381351690602001356109c1565b610222610a0e565b6040805180820190915260048152634c51545960e01b60208201525b90565b600061049a610c16565b156104a7576104a7610c53565b6104b2338484610c99565b5060015b92915050565b7f6e71edae12b1b97f4d1f60370fef10105fa2faae0126114a169c64845d6126c990565b60025490565b60006104f0610c16565b156104fe576104fe84610d85565b61050783610df9565b610512848484610f04565b61056a84336105658560405180606001604052806028815260200161140a602891396001600160a01b038a166000908152600160209081526040808320338452909152902054919063ffffffff61106016565b610c99565b5060019392505050565b601290565b6000610583610c16565b1561059057610590610c53565b3360008181526001602090815260408083206001600160a01b03881684529091529020546104b291908590610565908663ffffffff610bbc16565b7f000000000000000000000000000000000000000000000000000000000000000090565b7f000000000000000000000000000000000000000000000000000000000000000081565b6040805180820190915260018152603160f81b602082015290565b6001600160a01b031660009081526020819052604090205490565b7f000000000000000000000000000000000000000000000000000000000000000081565b6001600160a01b031660009081526003602052604090205490565b7f000000000000000000000000000000000000000000000000000000000000000081565b7f000000000000000000000000000000000000000000000000000000000000000090565b60006106da610c16565b156106e7576106e7610c53565b6104b233846105658560405180606001604052806025815260200161159b602591393360009081526001602090815260408083206001600160a01b038d168452909152902054919063ffffffff61106016565b60006107446110f7565b80156107535750610753610c16565b156107615761076183611126565b61076a83610df9565b6104b2338484610f04565b428410156107c3576040805162461bcd60e51b81526020600482015260166024820152754c5154593a206578706972656420646561646c696e6560501b604482015290519081900360640190fd5b60006107cd610a0e565b6001600160a01b03808a1660008181526003602090815260408083208054600180820190925582517f6e71edae12b1b97f4d1f60370fef10105fa2faae0126114a169c64845d6126c98186015280840196909652958e166060860152608085018d905260a085019590955260c08085018c90528151808603909101815260e08501825280519083012061190160f01b6101008601526101028501969096526101228085019690965280518085039096018652610142840180825286519683019690962095839052610162840180825286905260ff8a166101828501526101a284018990526101c284018890525194955090936101e280840193601f198301929081900390910190855afa1580156108e8573d6000803e3d6000fd5b505050602060405103519050886001600160a01b0316816001600160a01b031614610954576040805162461bcd60e51b81526020600482015260176024820152764c5154593a20696e76616c6964207369676e617475726560481b604482015290519081900360640190fd5b61095f898989610c99565b505050505050505050565b7f000000000000000000000000000000000000000000000000000000000000000081565b6001600160a01b03918216600090815260016020908152604080832093909416825291909152205490565b6301e1338081565b6109c9611203565b6109d1610c16565b156109df576109df82610d85565b610a0a827f000000000000000000000000000000000000000000000000000000000000000083610f04565b5050565b60007f0000000000000000000000000000000000000000000000000000000000000000610a3961126a565b1415610a6657507f000000000000000000000000000000000000000000000000000000000000000061048d565b610ad17f8b73c3c69bb8fe3d512ecc4cf759cc79239f7b179b0ffacaa9a75d522b39400f7f00000000000000000000000000000000000000000000000000000000000000007f000000000000000000000000000000000000000000000000000000000000000061126e565b905061048d565b600082610ae7575060006104b6565b82820282848281610af457fe5b0414610b315760405162461bcd60e51b81526004018080602001828103825260218152602001806113bf6021913960400191505060405180910390fd5b9392505050565b6000610b3183836040518060400160405280601a81526020017f536166654d6174683a206469766973696f6e206279207a65726f0000000000008152506112c4565b6000610b3183836040518060400160405280601e81526020017f536166654d6174683a207375627472616374696f6e206f766572666c6f770000815250611060565b600082820183811015610b31576040805162461bcd60e51b815260206004820152601b60248201527f536166654d6174683a206164646974696f6e206f766572666c6f770000000000604482015290519081900360640190fd5b60006301e13380610c4d427f000000000000000000000000000000000000000000000000000000000000000063ffffffff610b7a16565b10905090565b610c5b6110f7565b15610c975760405162461bcd60e51b815260040180806020018281038252602a81526020018061136f602a913960400191505060405180910390fd5b565b6001600160a01b038316610cde5760405162461bcd60e51b81526004018080602001828103825260248152602001806114576024913960400191505060405180910390fd5b6001600160a01b038216610d235760405162461bcd60e51b815260040180806020018281038252602281526020018061134d6022913960400191505060405180910390fd5b6001600160a01b03808416600081815260016020908152604080832094871680845294825291829020859055815185815291517f8c5be1e5ebec7d5bd14f71427d1e84f3dd0314c0f7b2291e5b200ac8c7c3b9259281900390910190a3505050565b7f00000000000000000000000000000000000000000000000000000000000000006001600160a01b0316816001600160a01b03161415610df65760405162461bcd60e51b815260040180806020018281038252602a8152602001806113e0602a913960400191505060405180910390fd5b50565b6001600160a01b03811615801590610e1a57506001600160a01b0381163014155b610e555760405162461bcd60e51b81526004018080602001828103825260548152602001806114ad6054913960600191505060405180910390fd5b7f00000000000000000000000000000000000000000000000000000000000000006001600160a01b0316816001600160a01b031614158015610ec957507f00000000000000000000000000000000000000000000000000000000000000006001600160a01b0316816001600160a01b031614155b610df65760405162461bcd60e51b81526004018080602001828103825260538152602001806115016053913960600191505060405180910390fd5b6001600160a01b038316610f495760405162461bcd60e51b81526004018080602001828103825260258152602001806114326025913960400191505060405180910390fd5b6001600160a01b038216610f8e5760405162461bcd60e51b815260040180806020018281038252602381526020018061132a6023913960400191505060405180910390fd5b610fd181604051806060016040528060268152602001611399602691396001600160a01b038616600090815260208190526040902054919063ffffffff61106016565b6001600160a01b038085166000908152602081905260408082209390935590841681522054611006908263ffffffff610bbc16565b6001600160a01b038084166000818152602081815260409182902094909455805185815290519193928716927fddf252ad1be2c89b69c2b068fc378daa952ba7f163c4a11628f55a4df523b3ef92918290030190a3505050565b600081848411156110ef5760405162461bcd60e51b81526004018080602001828103825283818151815260200191508051906020019080838360005b838110156110b457818101518382015260200161109c565b50505050905090810190601f1680156110e15780820380516001836020036101000a031916815260200191505b509250505060405180910390fd5b505050900390565b336001600160a01b037f0000000000000000000000000000000000000000000000000000000000000000161490565b7f00000000000000000000000000000000000000000000000000000000000000006001600160a01b031663bb7603f1826040518263ffffffff1660e01b815260040180826001600160a01b03166001600160a01b0316815260200191505060206040518083038186803b15801561119c57600080fd5b505afa1580156111b0573d6000803e3d6000fd5b505050506040513d60208110156111c657600080fd5b5051610df65760405162461bcd60e51b81526004018080602001828103825260478152602001806115546047913960600191505060405180910390fd5b336001600160a01b037f00000000000000000000000000000000000000000000000000000000000000001614610c975760405162461bcd60e51b815260040180806020018281038252603281526020018061147b6032913960400191505060405180910390fd5b4690565b600083838361127b61126a565b6040805160208082019690965280820194909452606084019290925260808301523060a0808401919091528151808403909101815260c090920190528051910120949350505050565b600081836113135760405162461bcd60e51b81526020600482018181528351602484015283519092839260449091019190850190808383600083156110b457818101518382015260200161109c565b50600083858161131f57fe5b049594505050505056fe45524332303a207472616e7366657220746f20746865207a65726f206164647265737345524332303a20617070726f766520746f20746865207a65726f20616464726573734c515459546f6b656e3a2063616c6c6572206d757374206e6f7420626520746865206d756c746973696745524332303a207472616e7366657220616d6f756e7420657863656564732062616c616e6365536166654d6174683a206d756c7469706c69636174696f6e206f766572666c6f774c515459546f6b656e3a2073656e646572206d757374206e6f7420626520746865206d756c746973696745524332303a207472616e7366657220616d6f756e74206578636565647320616c6c6f77616e636545524332303a207472616e736665722066726f6d20746865207a65726f206164647265737345524332303a20617070726f76652066726f6d20746865207a65726f20616464726573734c515459546f6b656e3a2063616c6c6572206d75737420626520746865204c5154595374616b696e6720636f6e74726163744c5154593a2043616e6e6f74207472616e7366657220746f6b656e73206469726563746c7920746f20746865204c51545920746f6b656e20636f6e7472616374206f7220746865207a65726f20616464726573734c5154593a2043616e6e6f74207472616e7366657220746f6b656e73206469726563746c7920746f2074686520636f6d6d756e6974792069737375616e6365206f72207374616b696e6720636f6e74726163744c515459546f6b656e3a20726563697069656e74206d7573742062652061204c6f636b7570436f6e7472616374207265676973746572656420696e2074686520466163746f727945524332303a2064656372656173656420616c6c6f77616e63652062656c6f77207a65726fa264697066735822122080907c6508eebb384558bbe088be6a13271c444e7eefc2ea9333c03fe760818f64736f6c634300060b0033536166654d6174683a206d756c7469706c69636174696f6e206f766572666c6f77",
  "linkReferences": {},
  "deployedLinkReferences": {}
}