{
  "_format": "hh-sol-artifact-1",
  "contractName": "LQTYTokenTester",
  "sourceName": "contracts/TestContracts/GrowthTokenTester.sol",
  "abi": [
    {
      "inputs": [
        {
          "internalType": "address",
          "name": "_communityIssuanceAddress",
          "type": "address"
        },
        {
          "internalType": "address",
          "name": "_lqtyStakingAddress",
          "type": "address"
        },
        {
          "internalType": "address",
          "name": "_lockupFactoryAddress",
          "type": "address"
        },
        {
          "internalType": "address",
          "name": "_bountyAddress",
          "type": "address"
        },
        {
          "internalType": "address",
          "name": "_lpRewardsAddress",
          "type": "address"
        }
      ],
      "stateMutability": "nonpayable",
      "type": "constructor"
    },
    {
      "anonymous": false,
      "inputs": [
        {
          "indexed": true,
          "internalType": "address",
          "name": "owner",
          "type": "address"
        },
        {
          "indexed": true,
          "internalType": "address",
          "name": "spender",
          "type": "address"
        },
        {
          "indexed": false,
          "internalType": "uint256",
          "name": "value",
          "type": "uint256"
        }
      ],
      "name": "Approval",
      "type": "event"
    },
    {
      "anonymous": false,
      "inputs": [
        {
          "indexed": false,
          "internalType": "address",
          "name": "_communityIssuanceAddress",
          "type": "address"
        }
      ],
      "name": "CommunityIssuanceAddressSet",
      "type": "event"
    },
    {
      "anonymous": false,
      "inputs": [
        {
          "indexed": false,
          "internalType": "address",
          "name": "_lqtyStakingAddress",
          "type": "address"
        }
      ],
      "name": "LQTYStakingAddressSet",
      "type": "event"
    },
    {
      "anonymous": false,
      "inputs": [
        {
          "indexed": false,
          "internalType": "address",
          "name": "_lockupContractFactoryAddress",
          "type": "address"
        }
      ],
      "name": "LockupContractFactoryAddressSet",
      "type": "event"
    },
    {
      "anonymous": false,
      "inputs": [
        {
          "indexed": true,
          "internalType": "address",
          "name": "from",
          "type": "address"
        },
        {
          "indexed": true,
          "internalType": "address",
          "name": "to",
          "type": "address"
        },
        {
          "indexed": false,
          "internalType": "uint256",
          "name": "value",
          "type": "uint256"
        }
      ],
      "name": "Transfer",
      "type": "event"
    },
    {
      "inputs": [],
      "name": "ONE_YEAR_IN_SECONDS",
      "outputs": [
        {
          "internalType": "uint256",
          "name": "",
          "type": "uint256"
        }
      ],
      "stateMutability": "view",
      "type": "function"
    },
    {
      "inputs": [
        {
          "internalType": "address",
          "name": "owner",
          "type": "address"
        },
        {
          "internalType": "address",
          "name": "spender",
          "type": "address"
        }
      ],
      "name": "allowance",
      "outputs": [
        {
          "internalType": "uint256",
          "name": "",
          "type": "uint256"
        }
      ],
      "stateMutability": "view",
      "type": "function"
    },
    {
      "inputs": [
        {
          "internalType": "address",
          "name": "spender",
          "type": "address"
        },
        {
          "internalType": "uint256",
          "name": "amount",
          "type": "uint256"
        }
      ],
      "name": "approve",
      "outputs": [
        {
          "internalType": "bool",
          "name": "",
          "type": "bool"
        }
      ],
      "stateMutability": "nonpayable",
      "type": "function"
    },
    {
      "inputs": [
        {
          "internalType": "address",
          "name": "account",
          "type": "address"
        }
      ],
      "name": "balanceOf",
      "outputs": [
        {
          "internalType": "uint256",
          "name": "",
          "type": "uint256"
        }
      ],
      "stateMutability": "view",
      "type": "function"
    },
    {
      "inputs": [
        {
          "internalType": "address",
          "name": "owner",
          "type": "address"
        },
        {
          "internalType": "address",
          "name": "spender",
          "type": "address"
        },
        {
          "internalType": "uint256",
          "name": "amount",
          "type": "uint256"
        }
      ],
      "name": "callInternalApprove",
      "outputs": [
        {
          "internalType": "bool",
          "name": "",
          "type": "bool"
        }
      ],
      "stateMutability": "nonpayable",
      "type": "function"
    },
    {
      "inputs": [
        {
          "internalType": "address",
          "name": "sender",
          "type": "address"
        },
        {
          "internalType": "address",
          "name": "recipient",
          "type": "address"
        },
        {
          "internalType": "uint256",
          "name": "amount",
          "type": "uint256"
        }
      ],
      "name": "callInternalTransfer",
      "outputs": [
        {
          "internalType": "bool",
          "name": "",
          "type": "bool"
        }
      ],
      "stateMutability": "nonpayable",
      "type": "function"
    },
    {
      "inputs": [],
      "name": "communityIssuanceAddress",
      "outputs": [
        {
          "internalType": "address",
          "name": "",
          "type": "address"
        }
      ],
      "stateMutability": "view",
      "type": "function"
    },
    {
      "inputs": [],
      "name": "decimals",
      "outputs": [
        {
          "internalType": "uint8",
          "name": "",
          "type": "uint8"
        }
      ],
      "stateMutability": "view",
      "type": "function"
    },
    {
      "inputs": [
        {
          "internalType": "address",
          "name": "spender",
          "type": "address"
        },
        {
          "internalType": "uint256",
          "name": "subtractedValue",
          "type": "uint256"
        }
      ],
      "name": "decreaseAllowance",
      "outputs": [
        {
          "internalType": "bool",
          "name": "",
          "type": "bool"
        }
      ],
      "stateMutability": "nonpayable",
      "type": "function"
    },
    {
      "inputs": [],
      "name": "deployer",
      "outputs": [
        {
          "internalType": "address",
          "name": "",
          "type": "address"
        }
      ],
      "stateMutability": "view",
      "type": "function"
    },
    {
      "inputs": [],
      "name": "domainSeparator",
      "outputs": [
        {
          "internalType": "bytes32",
          "name": "",
          "type": "bytes32"
        }
      ],
      "stateMutability": "view",
      "type": "function"
    },
    {
      "inputs": [],
      "name": "getChainId",
      "outputs": [
        {
          "internalType": "uint256",
          "name": "chainID",
          "type": "uint256"
        }
      ],
      "stateMutability": "pure",
      "type": "function"
    },
    {
      "inputs": [],
      "name": "getDeploymentStartTime",
      "outputs": [
        {
          "internalType": "uint256",
          "name": "",
          "type": "uint256"
        }
      ],
      "stateMutability": "view",
      "type": "function"
    },
    {
      "inputs": [
        {
          "internalType": "address",
          "name": "spender",
          "type": "address"
        },
        {
          "internalType": "uint256",
          "name": "addedValue",
          "type": "uint256"
        }
      ],
      "name": "increaseAllowance",
      "outputs": [
        {
          "internalType": "bool",
          "name": "",
          "type": "bool"
        }
      ],
      "stateMutability": "nonpayable",
      "type": "function"
    },
    {
      "inputs": [],
      "name": "lockupContractFactory",
      "outputs": [
        {
          "internalType": "contract ILockupContractFactory",
          "name": "",
          "type": "address"
        }
      ],
      "stateMutability": "view",
      "type": "function"
    },
    {
      "inputs": [],
      "name": "lqtyStakingAddress",
      "outputs": [
        {
          "internalType": "address",
          "name": "",
          "type": "address"
        }
      ],
      "stateMutability": "view",
      "type": "function"
    },
    {
      "inputs": [],
      "name": "name",
      "outputs": [
        {
          "internalType": "string",
          "name": "",
          "type": "string"
        }
      ],
      "stateMutability": "view",
      "type": "function"
    },
    {
      "inputs": [
        {
          "internalType": "address",
          "name": "owner",
          "type": "address"
        }
      ],
      "name": "nonces",
      "outputs": [
        {
          "internalType": "uint256",
          "name": "",
          "type": "uint256"
        }
      ],
      "stateMutability": "view",
      "type": "function"
    },
    {
      "inputs": [
        {
          "internalType": "address",
          "name": "owner",
          "type": "address"
        },
        {
          "internalType": "address",
          "name": "spender",
          "type": "address"
        },
        {
          "internalType": "uint256",
          "name": "amount",
          "type": "uint256"
        },
        {
          "internalType": "uint256",
          "name": "deadline",
          "type": "uint256"
        },
        {
          "internalType": "uint8",
          "name": "v",
          "type": "uint8"
        },
        {
          "internalType": "bytes32",
          "name": "r",
          "type": "bytes32"
        },
        {
          "internalType": "bytes32",
          "name": "s",
          "type": "bytes32"
        }
      ],
      "name": "permit",
      "outputs": [],
      "stateMutability": "nonpayable",
      "type": "function"
    },
    {
      "inputs": [],
      "name": "permitTypeHash",
      "outputs": [
        {
          "internalType": "bytes32",
          "name": "",
          "type": "bytes32"
        }
      ],
      "stateMutability": "view",
      "type": "function"
    },
    {
      "inputs": [
        {
          "internalType": "address",
          "name": "_sender",
          "type": "address"
        },
        {
          "internalType": "uint256",
          "name": "_amount",
          "type": "uint256"
        }
      ],
      "name": "sendToLQTYStaking",
      "outputs": [],
      "stateMutability": "nonpayable",
      "type": "function"
    },
    {
      "inputs": [],
      "name": "symbol",
      "outputs": [
        {
          "internalType": "string",
          "name": "",
          "type": "string"
        }
      ],
      "stateMutability": "view",
      "type": "function"
    },
    {
      "inputs": [],
      "name": "totalSupply",
      "outputs": [
        {
          "internalType": "uint256",
          "name": "",
          "type": "uint256"
        }
      ],
      "stateMutability": "view",
      "type": "function"
    },
    {
      "inputs": [
        {
          "internalType": "address",
          "name": "recipient",
          "type": "address"
        },
        {
          "internalType": "uint256",
          "name": "amount",
          "type": "uint256"
        }
      ],
      "name": "transfer",
      "outputs": [
        {
          "internalType": "bool",
          "name": "",
          "type": "bool"
        }
      ],
      "stateMutability": "nonpayable",
      "type": "function"
    },
    {
      "inputs": [
        {
          "internalType": "address",
          "name": "sender",
          "type": "address"
        },
        {
          "internalType": "address",
          "name": "recipient",
          "type": "address"
        },
        {
          "internalType": "uint256",
          "name": "amount",
          "type": "uint256"
        }
      ],
      "name": "transferFrom",
      "outputs": [
        {
          "internalType": "bool",
          "name": "",
          "type": "bool"
        }
      ],
      "stateMutability": "nonpayable",
      "type": "function"
    },
    {
      "inputs": [
        {
          "internalType": "address",
          "name": "account",
          "type": "address"
        },
        {
          "internalType": "uint256",
          "name": "amount",
          "type": "uint256"
        }
      ],
      "name": "unprotectedMint",
      "outputs": [],
      "stateMutability": "nonpayable",
      "type": "function"
    },
    {
      "inputs": [
        {
          "internalType": "address",
          "name": "_sender",
          "type": "address"
        },
        {
          "internalType": "uint256",
          "name": "_amount",
          "type": "uint256"
        }
      ],
      "name": "unprotectedSendToLQTYStaking",
      "outputs": [],
      "stateMutability": "nonpayable",
      "type": "function"
    },
    {
      "inputs": [],
      "name": "version",
      "outputs": [
        {
          "internalType": "string",
          "name": "",
          "type": "string"
        }
      ],
      "stateMutability": "view",
      "type": "function"
    }
  ],
  "bytecode": "0x6101a060405269d3c21bcecceda10000006004553480156200002057600080fd5b5060405162001fde38038062001fde833981810160405260a08110156200004657600080fd5b5080516020820151604083015160608401516080909401519293919290919084848484846200007e856001600160e01b03620002d716565b62000092846001600160e01b03620002d716565b620000a6836001600160e01b03620002d716565b33606090811b6101205242610100526001600160601b031986821b81166101405285821b8116610160529084901b166101805260408051808201825260048152634c51545960e01b602091820152815180830190925260018252603160f81b9101527f3a81c10f33bb8529c37240b8a654b1c488a9f8c7e205411c4bef216f3581304760c08190527fc89efdaa54c0f20c7adf612882df0950f5a951637e0307cdcb4c672f298b8bc660e0819052620001676001600160e01b036200038c16565b60a052620001a07f8b73c3c69bb8fe3d512ecc4cf759cc79239f7b179b0ffacaa9a75d522b39400f83836001600160e01b036200039016565b608081815250506000620001c66003600454620003f160201b62000bd31790919060201c565b9050620001dd85826001600160e01b036200045816565b6000620001fc6019600454620003f160201b62000bd31790919060201c565b90506200021389826001600160e01b036200045816565b600062000265826200025160036200023d6064600454620003f160201b62000bd31790919060201c565b6200055960201b62000c2c1790919060201c565b620005a360201b62000c6e1790919060201c565b90506200027c86826001600160e01b036200045816565b6000620002aa8262000251856200025188620002516064600454620003f160201b62000bd31790919060201c565b9050620002c133826001600160e01b036200045816565b505050505050505050505050505050506200074c565b6001600160a01b03811662000333576040805162461bcd60e51b815260206004820152601e60248201527f4163636f756e742063616e6e6f74206265207a65726f20616464726573730000604482015290519081900360640190fd5b803b8062000388576040805162461bcd60e51b815260206004820181905260248201527f4163636f756e7420636f64652073697a652063616e6e6f74206265207a65726f604482015290519081900360640190fd5b5050565b4690565b6000838383620003a86001600160e01b036200038c16565b6040805160208082019690965280820194909452606084019290925260808301523060a0808401919091528151808403909101815260c090920190528051910120949350505050565b600082620004025750600062000452565b828202828482816200041057fe5b04146200044f5760405162461bcd60e51b815260040180806020018281038252602181526020018062001fbd6021913960400191505060405180910390fd5b90505b92915050565b6001600160a01b038216620004b4576040805162461bcd60e51b815260206004820152601f60248201527f45524332303a206d696e7420746f20746865207a65726f206164647265737300604482015290519081900360640190fd5b620004d081600254620005ed60201b62000cb01790919060201c565b6002556001600160a01b038216600090815260208181526040909120546200050391839062000cb0620005ed821b17901c565b6001600160a01b0383166000818152602081815260408083209490945583518581529351929391927fddf252ad1be2c89b69c2b068fc378daa952ba7f163c4a11628f55a4df523b3ef9281900390910190a35050565b60006200044f83836040518060400160405280601a81526020017f536166654d6174683a206469766973696f6e206279207a65726f0000000000008152506200064860201b60201c565b60006200044f83836040518060400160405280601e81526020017f536166654d6174683a207375627472616374696f6e206f766572666c6f770000815250620006ef60201b60201c565b6000828201838110156200044f576040805162461bcd60e51b815260206004820152601b60248201527f536166654d6174683a206164646974696f6e206f766572666c6f770000000000604482015290519081900360640190fd5b60008183620006d85760405162461bcd60e51b81526004018080602001828103825283818151815260200191508051906020019080838360005b838110156200069c57818101518382015260200162000682565b50505050905090810190601f168015620006ca5780820380516001836020036101000a031916815260200191505b509250505060405180910390fd5b506000838581620006e557fe5b0495945050505050565b60008184841115620007445760405162461bcd60e51b81526020600482018181528351602484015283519092839260449091019190850190808383600083156200069c57818101518382015260200162000682565b505050900390565b60805160a05160c05160e051610100516101205160601c6101405160601c6101605160601c6101805160601c6117d5620007e8600039806107ca528061130c525080610720528061078b5280610f8852806113f2525080610aac5280610f4b525080610a885280610e7b52806112e65250806106e25280610e03525080610ba8525080610b87525080610b0d525080610b3d52506117d56000f3fe608060405234801561001057600080fd5b50600436106101845760003560e01c806370a08231116100d9578063d505accf11610087578063d505accf14610496578063d5f39488146104e7578063d874ea74146104ef578063dd62ed3e146104f7578063e7c8fed414610525578063f3a2568b1461052d578063f698da251461055957610184565b806370a08231146103c6578063761ab22c146103ec5780637ecebe0014610410578063811c5b4d1461043657806395d89b41146101d3578063a457c2d71461043e578063a9059cbb1461046a57610184565b80633408e470116101365780633408e470146102f2578063387a54d9146102fa57806339509351146103305780633c84b7c21461035c5780634655018c146103645780635099f99f1461039257806354fd4d50146103be57610184565b806303d999461461018957806306fdde03146101d3578063095ea7b31461025057806310ce43bd1461027c57806318160ddd1461029657806323b872dd1461029e578063313ce567146102d4575b600080fd5b6101bf6004803603606081101561019f57600080fd5b506001600160a01b03813581169160208101359091169060400135610561565b604080519115158252519081900360200190f35b6101db610575565b6040805160208082528351818301528351919283929083019185019080838360005b838110156102155781810151838201526020016101fd565b50505050905090810190601f1680156102425780820380516001836020036101000a031916815260200191505b509250505060405180910390f35b6101bf6004803603604081101561026657600080fd5b506001600160a01b038135169060200135610594565b6102846105c0565b60408051918252519081900360200190f35b6102846105e4565b6101bf600480360360608110156102b457600080fd5b506001600160a01b038135811691602081013590911690604001356105ea565b6102dc610678565b6040805160ff9092168252519081900360200190f35b61028461067d565b6101bf6004803603606081101561031057600080fd5b506001600160a01b03813581169160208101359091169060400135610681565b6101bf6004803603604081101561034657600080fd5b506001600160a01b03813516906020013561068e565b6102846106e0565b6103906004803603604081101561037a57600080fd5b506001600160a01b038135169060200135610704565b005b610390600480360360408110156103a857600080fd5b506001600160a01b038135169060200135610749565b6101db610753565b610284600480360360208110156103dc57600080fd5b50356001600160a01b031661076e565b6103f4610789565b604080516001600160a01b039092168252519081900360200190f35b6102846004803603602081101561042657600080fd5b50356001600160a01b03166107ad565b6103f46107c8565b6101bf6004803603604081101561045457600080fd5b506001600160a01b0381351690602001356107ec565b6101bf6004803603604081101561048057600080fd5b506001600160a01b038135169060200135610856565b610390600480360360e08110156104ac57600080fd5b506001600160a01b03813581169160208101359091169060408101359060608101359060ff6080820135169060a08101359060c00135610891565b6103f4610a86565b6103f4610aaa565b6102846004803603604081101561050d57600080fd5b506001600160a01b0381358116916020013516610ace565b610284610af9565b6103906004803603604081101561054357600080fd5b506001600160a01b038135169060200135610b01565b610284610b09565b600061056e848484610d0a565b9392505050565b6040805180820190915260048152634c51545960e01b60208201525b90565b600061059e610df6565b156105ab576105ab610e33565b6105b6338484610d0a565b5060015b92915050565b7f6e71edae12b1b97f4d1f60370fef10105fa2faae0126114a169c64845d6126c990565b60025490565b60006105f4610df6565b156106025761060284610e79565b61060b83610eed565b610616848484610ff8565b61066e8433610669856040518060600160405280602881526020016115ea602891396001600160a01b038a166000908152600160209081526040808320338452909152902054919063ffffffff61115416565b610d0a565b5060019392505050565b601290565b4690565b600061056e848484610ff8565b6000610698610df6565b156106a5576106a5610e33565b3360008181526001602090815260408083206001600160a01b03881684529091529020546105b691908590610669908663ffffffff610cb016565b7f000000000000000000000000000000000000000000000000000000000000000090565b61070c610df6565b1561071a5761071a82610e79565b610745827f000000000000000000000000000000000000000000000000000000000000000083610ff8565b5050565b61074582826111eb565b6040805180820190915260018152603160f81b602082015290565b6001600160a01b031660009081526020819052604090205490565b7f000000000000000000000000000000000000000000000000000000000000000081565b6001600160a01b031660009081526003602052604090205490565b7f000000000000000000000000000000000000000000000000000000000000000081565b60006107f6610df6565b1561080357610803610e33565b6105b633846106698560405180606001604052806025815260200161177b602591393360009081526001602090815260408083206001600160a01b038d168452909152902054919063ffffffff61115416565b60006108606112db565b801561086f575061086f610df6565b1561087d5761087d8361130a565b61088683610eed565b6105b6338484610ff8565b428410156108df576040805162461bcd60e51b81526020600482015260166024820152754c5154593a206578706972656420646561646c696e6560501b604482015290519081900360640190fd5b60006108e9610b09565b6001600160a01b03808a1660008181526003602090815260408083208054600180820190925582517f6e71edae12b1b97f4d1f60370fef10105fa2faae0126114a169c64845d6126c98186015280840196909652958e166060860152608085018d905260a085019590955260c08085018c90528151808603909101815260e08501825280519083012061190160f01b6101008601526101028501969096526101228085019690965280518085039096018652610142840180825286519683019690962095839052610162840180825286905260ff8a166101828501526101a284018990526101c284018890525194955090936101e280840193601f198301929081900390910190855afa158015610a04573d6000803e3d6000fd5b505050602060405103519050886001600160a01b0316816001600160a01b031614610a70576040805162461bcd60e51b81526020600482015260176024820152764c5154593a20696e76616c6964207369676e617475726560481b604482015290519081900360640190fd5b610a7b898989610d0a565b505050505050505050565b7f000000000000000000000000000000000000000000000000000000000000000081565b7f000000000000000000000000000000000000000000000000000000000000000081565b6001600160a01b03918216600090815260016020908152604080832093909416825291909152205490565b6301e1338081565b6107046113e7565b60007f0000000000000000000000000000000000000000000000000000000000000000610b3461067d565b1415610b6157507f0000000000000000000000000000000000000000000000000000000000000000610591565b610bcc7f8b73c3c69bb8fe3d512ecc4cf759cc79239f7b179b0ffacaa9a75d522b39400f7f00000000000000000000000000000000000000000000000000000000000000007f000000000000000000000000000000000000000000000000000000000000000061144e565b9050610591565b600082610be2575060006105ba565b82820282848281610bef57fe5b041461056e5760405162461bcd60e51b81526004018080602001828103825260218152602001806115c96021913960400191505060405180910390fd5b600061056e83836040518060400160405280601a81526020017f536166654d6174683a206469766973696f6e206279207a65726f0000000000008152506114a4565b600061056e83836040518060400160405280601e81526020017f536166654d6174683a207375627472616374696f6e206f766572666c6f770000815250611154565b60008282018381101561056e576040805162461bcd60e51b815260206004820152601b60248201527f536166654d6174683a206164646974696f6e206f766572666c6f770000000000604482015290519081900360640190fd5b6001600160a01b038316610d4f5760405162461bcd60e51b81526004018080602001828103825260248152602001806116376024913960400191505060405180910390fd5b6001600160a01b038216610d945760405162461bcd60e51b81526004018080602001828103825260228152602001806115576022913960400191505060405180910390fd5b6001600160a01b03808416600081815260016020908152604080832094871680845294825291829020859055815185815291517f8c5be1e5ebec7d5bd14f71427d1e84f3dd0314c0f7b2291e5b200ac8c7c3b9259281900390910190a3505050565b60006301e13380610e2d427f000000000000000000000000000000000000000000000000000000000000000063ffffffff610c6e16565b10905090565b610e3b6112db565b15610e775760405162461bcd60e51b815260040180806020018281038252602a81526020018061152d602a913960400191505060405180910390fd5b565b7f00000000000000000000000000000000000000000000000000000000000000006001600160a01b0316816001600160a01b03161415610eea5760405162461bcd60e51b815260040180806020018281038252602a81526020018061159f602a913960400191505060405180910390fd5b50565b6001600160a01b03811615801590610f0e57506001600160a01b0381163014155b610f495760405162461bcd60e51b815260040180806020018281038252605481526020018061168d6054913960600191505060405180910390fd5b7f00000000000000000000000000000000000000000000000000000000000000006001600160a01b0316816001600160a01b031614158015610fbd57507f00000000000000000000000000000000000000000000000000000000000000006001600160a01b0316816001600160a01b031614155b610eea5760405162461bcd60e51b81526004018080602001828103825260538152602001806116e16053913960600191505060405180910390fd5b6001600160a01b03831661103d5760405162461bcd60e51b81526004018080602001828103825260258152602001806116126025913960400191505060405180910390fd5b6001600160a01b0382166110825760405162461bcd60e51b815260040180806020018281038252602381526020018061150a6023913960400191505060405180910390fd5b6110c581604051806060016040528060268152602001611579602691396001600160a01b038616600090815260208190526040902054919063ffffffff61115416565b6001600160a01b0380851660009081526020819052604080822093909355908416815220546110fa908263ffffffff610cb016565b6001600160a01b038084166000818152602081815260409182902094909455805185815290519193928716927fddf252ad1be2c89b69c2b068fc378daa952ba7f163c4a11628f55a4df523b3ef92918290030190a3505050565b600081848411156111e35760405162461bcd60e51b81526004018080602001828103825283818151815260200191508051906020019080838360005b838110156111a8578181015183820152602001611190565b50505050905090810190601f1680156111d55780820380516001836020036101000a031916815260200191505b509250505060405180910390fd5b505050900390565b6001600160a01b038216611246576040805162461bcd60e51b815260206004820152601f60248201527f45524332303a206d696e7420746f20746865207a65726f206164647265737300604482015290519081900360640190fd5b600254611259908263ffffffff610cb016565b6002556001600160a01b038216600090815260208190526040902054611285908263ffffffff610cb016565b6001600160a01b0383166000818152602081815260408083209490945583518581529351929391927fddf252ad1be2c89b69c2b068fc378daa952ba7f163c4a11628f55a4df523b3ef9281900390910190a35050565b336001600160a01b037f0000000000000000000000000000000000000000000000000000000000000000161490565b7f00000000000000000000000000000000000000000000000000000000000000006001600160a01b031663bb7603f1826040518263ffffffff1660e01b815260040180826001600160a01b03166001600160a01b0316815260200191505060206040518083038186803b15801561138057600080fd5b505afa158015611394573d6000803e3d6000fd5b505050506040513d60208110156113aa57600080fd5b5051610eea5760405162461bcd60e51b81526004018080602001828103825260478152602001806117346047913960600191505060405180910390fd5b336001600160a01b037f00000000000000000000000000000000000000000000000000000000000000001614610e775760405162461bcd60e51b815260040180806020018281038252603281526020018061165b6032913960400191505060405180910390fd5b600083838361145b61067d565b6040805160208082019690965280820194909452606084019290925260808301523060a0808401919091528151808403909101815260c090920190528051910120949350505050565b600081836114f35760405162461bcd60e51b81526020600482018181528351602484015283519092839260449091019190850190808383600083156111a8578181015183820152602001611190565b5060008385816114ff57fe5b049594505050505056fe45524332303a207472616e7366657220746f20746865207a65726f20616464726573734c515459546f6b656e3a2063616c6c6572206d757374206e6f7420626520746865206465706c6f79657245524332303a20617070726f766520746f20746865207a65726f206164647265737345524332303a207472616e7366657220616d6f756e7420657863656564732062616c616e63654c515459546f6b656e3a2073656e646572206d757374206e6f7420626520746865206465706c6f796572536166654d6174683a206d756c7469706c69636174696f6e206f766572666c6f7745524332303a207472616e7366657220616d6f756e74206578636565647320616c6c6f77616e636545524332303a207472616e736665722066726f6d20746865207a65726f206164647265737345524332303a20617070726f76652066726f6d20746865207a65726f20616464726573734c515459546f6b656e3a2063616c6c6572206d75737420626520746865204c5154595374616b696e6720636f6e74726163744c5154593a2043616e6e6f74207472616e7366657220746f6b656e73206469726563746c7920746f20746865204c51545920746f6b656e20636f6e7472616374206f7220746865207a65726f20616464726573734c5154593a2043616e6e6f74207472616e7366657220746f6b656e73206469726563746c7920746f2074686520636f6d6d756e6974792069737375616e6365206f72207374616b696e6720636f6e74726163744c515459546f6b656e3a20726563697069656e74206d7573742062652061204c6f636b7570436f6e7472616374207265676973746572656420696e2074686520466163746f727945524332303a2064656372656173656420616c6c6f77616e63652062656c6f77207a65726fa2646970667358221220f143bf3da2639c67c19c678e11b2a65b0ec90ada4ab78db3e4cbcb4b321d155064736f6c634300060b0033536166654d6174683a206d756c7469706c69636174696f6e206f766572666c6f77",
  "linkReferences": {},
  "deployedLinkReferences": {}
}