{
  "_format": "hh-sol-artifact-1",
  "contractName": "LQTYStaking",
  "sourceName": "contracts/LQTY/LQTYStaking.sol",
  "abi": [
    {
      "anonymous": false,
      "inputs": [
        {
          "indexed": false,
          "internalType": "address",
          "name": "_activePoolAddress",
          "type": "address"
        }
      ],
      "name": "ActivePoolAddressSet",
      "type": "event"
    },
    {
      "anonymous": false,
      "inputs": [
        {
          "indexed": false,
          "internalType": "address",
          "name": "_borrowerOperationsAddress",
          "type": "address"
        }
      ],
      "name": "BorrowerOperationsAddressSet",
      "type": "event"
    },
    {
      "anonymous": false,
      "inputs": [
        {
          "indexed": false,
          "internalType": "address",
          "name": "_lqtyTokenAddress",
          "type": "address"
        }
      ],
      "name": "LQTYTokenAddressSet",
      "type": "event"
    },
    {
      "anonymous": false,
      "inputs": [
        {
          "indexed": false,
          "internalType": "address",
          "name": "_lusdTokenAddress",
          "type": "address"
        }
      ],
      "name": "LUSDTokenAddressSet",
      "type": "event"
    },
    {
      "anonymous": false,
      "inputs": [
        {
          "indexed": true,
          "internalType": "address",
          "name": "previousOwner",
          "type": "address"
        },
        {
          "indexed": true,
          "internalType": "address",
          "name": "newOwner",
          "type": "address"
        }
      ],
      "name": "OwnershipTransferred",
      "type": "event"
    },
    {
      "anonymous": false,
      "inputs": [
        {
          "indexed": true,
          "internalType": "address",
          "name": "staker",
          "type": "address"
        },
        {
          "indexed": false,
          "internalType": "uint256",
          "name": "newStake",
          "type": "uint256"
        }
      ],
      "name": "StakeChanged",
      "type": "event"
    },
    {
      "anonymous": false,
      "inputs": [
        {
          "indexed": true,
          "internalType": "address",
          "name": "staker",
          "type": "address"
        },
        {
          "indexed": false,
          "internalType": "uint256",
          "name": "LUSDGain",
          "type": "uint256"
        },
        {
          "indexed": false,
          "internalType": "uint256",
          "name": "ETHGain",
          "type": "uint256"
        }
      ],
      "name": "StakingGainsWithdrawn",
      "type": "event"
    },
    {
      "anonymous": false,
      "inputs": [
        {
          "indexed": false,
          "internalType": "address",
          "name": "_troveManager",
          "type": "address"
        }
      ],
      "name": "TroveManagerAddressSet",
      "type": "event"
    },
    {
      "inputs": [],
      "name": "DECIMAL_PRECISION",
      "outputs": [
        {
          "internalType": "uint256",
          "name": "",
          "type": "uint256"
        }
      ],
      "stateMutability": "view",
      "type": "function"
    },
    {
      "inputs": [],
      "name": "F_ETH",
      "outputs": [
        {
          "internalType": "uint256",
          "name": "",
          "type": "uint256"
        }
      ],
      "stateMutability": "view",
      "type": "function"
    },
    {
      "inputs": [],
      "name": "F_LUSD",
      "outputs": [
        {
          "internalType": "uint256",
          "name": "",
          "type": "uint256"
        }
      ],
      "stateMutability": "view",
      "type": "function"
    },
    {
      "inputs": [],
      "name": "activePoolAddress",
      "outputs": [
        {
          "internalType": "address",
          "name": "",
          "type": "address"
        }
      ],
      "stateMutability": "view",
      "type": "function"
    },
    {
      "inputs": [],
      "name": "borrowerOperationsAddress",
      "outputs": [
        {
          "internalType": "address",
          "name": "",
          "type": "address"
        }
      ],
      "stateMutability": "view",
      "type": "function"
    },
    {
      "inputs": [
        {
          "internalType": "address",
          "name": "_user",
          "type": "address"
        }
      ],
      "name": "getPendingETHGain",
      "outputs": [
        {
          "internalType": "uint256",
          "name": "",
          "type": "uint256"
        }
      ],
      "stateMutability": "view",
      "type": "function"
    },
    {
      "inputs": [
        {
          "internalType": "address",
          "name": "_user",
          "type": "address"
        }
      ],
      "name": "getPendingLUSDGain",
      "outputs": [
        {
          "internalType": "uint256",
          "name": "",
          "type": "uint256"
        }
      ],
      "stateMutability": "view",
      "type": "function"
    },
    {
      "inputs": [
        {
          "internalType": "uint256",
          "name": "_ETHFee",
          "type": "uint256"
        }
      ],
      "name": "increaseF_ETH",
      "outputs": [],
      "stateMutability": "nonpayable",
      "type": "function"
    },
    {
      "inputs": [
        {
          "internalType": "uint256",
          "name": "_LUSDFee",
          "type": "uint256"
        }
      ],
      "name": "increaseF_LUSD",
      "outputs": [],
      "stateMutability": "nonpayable",
      "type": "function"
    },
    {
      "inputs": [],
      "name": "isOwner",
      "outputs": [
        {
          "internalType": "bool",
          "name": "",
          "type": "bool"
        }
      ],
      "stateMutability": "view",
      "type": "function"
    },
    {
      "inputs": [],
      "name": "lqtyToken",
      "outputs": [
        {
          "internalType": "contract ILQTYToken",
          "name": "",
          "type": "address"
        }
      ],
      "stateMutability": "view",
      "type": "function"
    },
    {
      "inputs": [],
      "name": "lusdToken",
      "outputs": [
        {
          "internalType": "contract ILUSDToken",
          "name": "",
          "type": "address"
        }
      ],
      "stateMutability": "view",
      "type": "function"
    },
    {
      "inputs": [],
      "name": "owner",
      "outputs": [
        {
          "internalType": "address",
          "name": "",
          "type": "address"
        }
      ],
      "stateMutability": "view",
      "type": "function"
    },
    {
      "inputs": [
        {
          "internalType": "address",
          "name": "_lqtyTokenAddress",
          "type": "address"
        },
        {
          "internalType": "address",
          "name": "_lusdTokenAddress",
          "type": "address"
        },
        {
          "internalType": "address",
          "name": "_troveManagerAddress",
          "type": "address"
        },
        {
          "internalType": "address",
          "name": "_borrowerOperationsAddress",
          "type": "address"
        },
        {
          "internalType": "address",
          "name": "_activePoolAddress",
          "type": "address"
        }
      ],
      "name": "setAddresses",
      "outputs": [],
      "stateMutability": "nonpayable",
      "type": "function"
    },
    {
      "inputs": [
        {
          "internalType": "address",
          "name": "",
          "type": "address"
        }
      ],
      "name": "snapshots",
      "outputs": [
        {
          "internalType": "uint256",
          "name": "F_ETH_Snapshot",
          "type": "uint256"
        },
        {
          "internalType": "uint256",
          "name": "F_LUSD_Snapshot",
          "type": "uint256"
        }
      ],
      "stateMutability": "view",
      "type": "function"
    },
    {
      "inputs": [
        {
          "internalType": "uint256",
          "name": "_LQTYamount",
          "type": "uint256"
        }
      ],
      "name": "stake",
      "outputs": [],
      "stateMutability": "nonpayable",
      "type": "function"
    },
    {
      "inputs": [
        {
          "internalType": "address",
          "name": "",
          "type": "address"
        }
      ],
      "name": "stakes",
      "outputs": [
        {
          "internalType": "uint256",
          "name": "",
          "type": "uint256"
        }
      ],
      "stateMutability": "view",
      "type": "function"
    },
    {
      "inputs": [],
      "name": "totalLQTYStaked",
      "outputs": [
        {
          "internalType": "uint256",
          "name": "",
          "type": "uint256"
        }
      ],
      "stateMutability": "view",
      "type": "function"
    },
    {
      "inputs": [],
      "name": "troveManagerAddress",
      "outputs": [
        {
          "internalType": "address",
          "name": "",
          "type": "address"
        }
      ],
      "stateMutability": "view",
      "type": "function"
    },
    {
      "inputs": [
        {
          "internalType": "uint256",
          "name": "_LQTYamount",
          "type": "uint256"
        }
      ],
      "name": "unstake",
      "outputs": [],
      "stateMutability": "nonpayable",
      "type": "function"
    },
    {
      "stateMutability": "payable",
      "type": "receive"
    }
  ],
  "bytecode": "0x608060405234801561001057600080fd5b50600080546001600160a01b0319163390811782556040519091907f8be0079c531659141344cd1fd0a4f28419497f9722a3daafe3b4186f6b6457e0908290a36112a78061005f6000396000f3fe6080604052600436106101235760003560e01c80638b9345ad116100a0578063a694fc3a11610064578063a694fc3a146103c4578063b08bc722146103ee578063b7f8cf9b14610403578063b83f91a214610418578063b9bbe00f1461042d57610132565b80638b9345ad1461030b5780638da5cb5b1461033e5780638f32d59b146103535780639beab5c01461037c578063a20baee6146103af57610132565b806334b3081f116100e757806334b3081f146102165780634677ffb3146102625780635a4d28bb1461028c5780635dd68acd146102a157806369b83185146102f657610132565b8063077ee4c61461013757806316934fc41461015e5780631e3e2a1a146101915780631f7af3c3146101bb5780632e17de78146101ec57610132565b3661013257610130610442565b005b600080fd5b34801561014357600080fd5b5061014c61048d565b60408051918252519081900360200190f35b34801561016a57600080fd5b5061014c6004803603602081101561018157600080fd5b50356001600160a01b0316610493565b34801561019d57600080fd5b50610130600480360360208110156101b457600080fd5b50356104a5565b3480156101c757600080fd5b506101d0610500565b604080516001600160a01b039092168252519081900360200190f35b3480156101f857600080fd5b506101306004803603602081101561020f57600080fd5b503561050f565b34801561022257600080fd5b506102496004803603602081101561023957600080fd5b50356001600160a01b0316610719565b6040805192835260208301919091528051918290030190f35b34801561026e57600080fd5b506101306004803603602081101561028557600080fd5b5035610732565b34801561029857600080fd5b506101d0610781565b3480156102ad57600080fd5b50610130600480360360a08110156102c457600080fd5b506001600160a01b03813581169160208101358216916040820135811691606081013582169160809091013516610790565b34801561030257600080fd5b5061014c61099c565b34801561031757600080fd5b5061014c6004803603602081101561032e57600080fd5b50356001600160a01b03166109a2565b34801561034a57600080fd5b506101d06109b3565b34801561035f57600080fd5b506103686109c2565b604080519115158252519081900360200190f35b34801561038857600080fd5b5061014c6004803603602081101561039f57600080fd5b50356001600160a01b03166109d3565b3480156103bb57600080fd5b5061014c6109de565b3480156103d057600080fd5b50610130600480360360208110156103e757600080fd5b50356109ea565b3480156103fa57600080fd5b506101d0610bcc565b34801561040f57600080fd5b506101d0610bdb565b34801561042457600080fd5b506101d0610bea565b34801561043957600080fd5b5061014c610bf9565b600a546001600160a01b0316331461048b5760405162461bcd60e51b81526004018080602001828103825260258152602001806111fd6025913960400191505060405180910390fd5b565b60025481565b60016020526000908152604090205481565b6104ad610bff565b600254600090156104e6576002546104e3906104d784670de0b6b3a764000063ffffffff610c4816565b9063ffffffff610ca816565b90505b6003546104f9908263ffffffff610cea16565b6003555050565b6006546001600160a01b031681565b3360009081526001602052604090205461052881610d44565b600061053333610d86565b9050600061054033610df3565b905061054b33610e36565b60006105578585610e60565b9050600061056b858363ffffffff610e7616565b336000908152600160205260409020819055600254909150610593908363ffffffff610e7616565b6002556006546040805163a9059cbb60e01b81523360048201526024810185905290516001600160a01b039092169163a9059cbb916044808201926020929091908290030181600087803b1580156105ea57600080fd5b505af11580156105fe573d6000803e3d6000fd5b505050506040513d602081101561061457600080fd5b505060408051828152905133917f39df0e5286a3ef2f42a0bf52f32cfe2c58e5b0405f47fe512f2c2439e4cfe204919081900360200190a26040805184815260208101869052815133927ff744d34ca1cb25acfa4180df5f09a67306107110a9f4b6ed99bb3be259738215928290030190a26007546040805163a9059cbb60e01b81523360048201526024810186905290516001600160a01b039092169163a9059cbb916044808201926020929091908290030181600087803b1580156106da57600080fd5b505af11580156106ee573d6000803e3d6000fd5b505050506040513d602081101561070457600080fd5b50610710905084610eb8565b50505050505050565b6005602052600090815260409020805460019091015482565b61073a610f47565b6002546000901561076757600254610764906104d784670de0b6b3a764000063ffffffff610c4816565b90505b60045461077a908263ffffffff610cea16565b6004555050565b6008546001600160a01b031681565b6107986109c2565b6107e9576040805162461bcd60e51b815260206004820181905260248201527f4f776e61626c653a2063616c6c6572206973206e6f7420746865206f776e6572604482015290519081900360640190fd5b6107f285610f90565b6107fb84610f90565b61080483610f90565b61080d82610f90565b61081681610f90565b600680546001600160a01b038088166001600160a01b03199283168117909355600780548883169084161790556008805487831690841617905560098054868316908416179055600a80549185169190921617905560408051918252517fb0c89119a7c10e4c2d02306921ba368ac83d0e4b302337916017485c2791bec59181900360200190a1604080516001600160a01b038616815290517fb0c89119a7c10e4c2d02306921ba368ac83d0e4b302337916017485c2791bec59181900360200190a1604080516001600160a01b038516815290517f41097dcc1f7cbd663d822443d7972f05b04f71918b30fe9fc59dd6e42e2280609181900360200190a1604080516001600160a01b038416815290517f5962f8af633c4df1ab230096f773a514ee5adf7785c621ecdcdb764cb7f6e3919181900360200190a1604080516001600160a01b038316815290517f8f6a6e7d20a3233e0a79883272259ffbd7a243734e397bc2b4642c79d7fa8a6d9181900360200190a1610995611043565b5050505050565b60045481565b60006109ad82610d86565b92915050565b6000546001600160a01b031690565b6000546001600160a01b0316331490565b60006109ad82610df3565b670de0b6b3a764000081565b3360009081526001602052604081205490808215610a1957610a0b33610d86565b9150610a1633610df3565b90505b610a2233610e36565b6000610a34848663ffffffff610cea16565b336000908152600160205260409020819055600254909150610a5c908663ffffffff610cea16565b6002556006546040805163f3a2568b60e01b81523360048201526024810188905290516001600160a01b039092169163f3a2568b9160448082019260009290919082900301818387803b158015610ab257600080fd5b505af1158015610ac6573d6000803e3d6000fd5b50506040805184815290513393507f39df0e5286a3ef2f42a0bf52f32cfe2c58e5b0405f47fe512f2c2439e4cfe20492509081900360200190a26040805183815260208101859052815133927ff744d34ca1cb25acfa4180df5f09a67306107110a9f4b6ed99bb3be259738215928290030190a26007546040805163a9059cbb60e01b81523360048201526024810185905290516001600160a01b039092169163a9059cbb916044808201926020929091908290030181600087803b158015610b8e57600080fd5b505af1158015610ba2573d6000803e3d6000fd5b505050506040513d6020811015610bb857600080fd5b50610bc4905083610eb8565b505050505050565b600a546001600160a01b031681565b6009546001600160a01b031681565b6007546001600160a01b031681565b60035481565b6008546001600160a01b0316331461048b5760405162461bcd60e51b81526004018080602001828103825260218152602001806112226021913960400191505060405180910390fd5b600082610c57575060006109ad565b82820282848281610c6457fe5b0414610ca15760405162461bcd60e51b81526004018080602001828103825260218152602001806111dc6021913960400191505060405180910390fd5b9392505050565b6000610ca183836040518060400160405280601a81526020017f536166654d6174683a206469766973696f6e206279207a65726f00000000000081525061108d565b600082820183811015610ca1576040805162461bcd60e51b815260206004820152601b60248201527f536166654d6174683a206164646974696f6e206f766572666c6f770000000000604482015290519081900360640190fd5b60008111610d835760405162461bcd60e51b815260040180806020018281038252602c81526020018061118a602c913960400191505060405180910390fd5b50565b6001600160a01b0381166000908152600560205260408120546003548290610deb90670de0b6b3a7640000906104d790610dc6908663ffffffff610e7616565b6001600160a01b0388166000908152600160205260409020549063ffffffff610c4816565b949350505050565b6001600160a01b0381166000908152600560205260408120600101546004548290610deb90670de0b6b3a7640000906104d790610dc6908663ffffffff610e7616565b6003546001600160a01b039091166000908152600560205260409020908155600454600190910155565b6000818310610e6f5781610ca1565b5090919050565b6000610ca183836040518060400160405280601e81526020017f536166654d6174683a207375627472616374696f6e206f766572666c6f77000081525061112f565b6040516000908190339084908381818185875af1925050503d8060008114610efc576040519150601f19603f3d011682016040523d82523d6000602084013e610f01565b606091505b5050905080610f415760405162461bcd60e51b815260040180806020018281038252602f815260200180611243602f913960400191505060405180910390fd5b50919050565b6009546001600160a01b0316331461048b5760405162461bcd60e51b81526004018080602001828103825260268152602001806111b66026913960400191505060405180910390fd5b6001600160a01b038116610feb576040805162461bcd60e51b815260206004820152601e60248201527f4163636f756e742063616e6e6f74206265207a65726f20616464726573730000604482015290519081900360640190fd5b803b8061103f576040805162461bcd60e51b815260206004820181905260248201527f4163636f756e7420636f64652073697a652063616e6e6f74206265207a65726f604482015290519081900360640190fd5b5050565b600080546040516001600160a01b03909116907f8be0079c531659141344cd1fd0a4f28419497f9722a3daafe3b4186f6b6457e0908390a3600080546001600160a01b0319169055565b600081836111195760405162461bcd60e51b81526004018080602001828103825283818151815260200191508051906020019080838360005b838110156110de5781810151838201526020016110c6565b50505050905090810190601f16801561110b5780820380516001836020036101000a031916815260200191505b509250505060405180910390fd5b50600083858161112557fe5b0495945050505050565b600081848411156111815760405162461bcd60e51b81526020600482018181528351602484015283519092839260449091019190850190808383600083156110de5781810151838201526020016110c6565b50505090039056fe4c5154595374616b696e673a2055736572206d75737420686176652061206e6f6e2d7a65726f207374616b654c5154595374616b696e673a2063616c6c6572206973206e6f7420426f72726f7765724f7073536166654d6174683a206d756c7469706c69636174696f6e206f766572666c6f774c5154595374616b696e673a2063616c6c6572206973206e6f7420416374697665506f6f6c4c5154595374616b696e673a2063616c6c6572206973206e6f742054726f76654d4c5154595374616b696e673a204661696c656420746f2073656e6420616363756d756c61746564204554484761696ea26469706673582212205b456626c360ae7a87283de5bf2ab39af5d52559156ef01712e8933de62d7a8b64736f6c634300060b0033",
  "linkReferences": {},
  "deployedLinkReferences": {}
}