{
  "_format": "hh-sol-artifact-1",
  "contractName": "LQTYTokenTester",
  "sourceName": "contracts/TestContracts/GrowthTokenTester.sol",
  "abi": [
    {
      "inputs": [
        {
          "internalType": "address",
          "name": "_communityIssuanceAddress",
          "type": "address"
        },
        {
          "internalType": "address",
          "name": "_lqtyStakingAddress",
          "type": "address"
        },
        {
          "internalType": "address",
          "name": "_lockupFactoryAddress",
          "type": "address"
        }
      ],
      "stateMutability": "nonpayable",
      "type": "constructor"
    },
    {
      "anonymous": false,
      "inputs": [
        {
          "indexed": true,
          "internalType": "address",
          "name": "owner",
          "type": "address"
        },
        {
          "indexed": true,
          "internalType": "address",
          "name": "spender",
          "type": "address"
        },
        {
          "indexed": false,
          "internalType": "uint256",
          "name": "value",
          "type": "uint256"
        }
      ],
      "name": "Approval",
      "type": "event"
    },
    {
      "anonymous": false,
      "inputs": [
        {
          "indexed": false,
          "internalType": "address",
          "name": "_communityIssuanceAddress",
          "type": "address"
        }
      ],
      "name": "CommunityIssuanceAddressSet",
      "type": "event"
    },
    {
      "anonymous": false,
      "inputs": [
        {
          "indexed": false,
          "internalType": "address",
          "name": "_lqtyStakingAddress",
          "type": "address"
        }
      ],
      "name": "LQTYStakingAddressSet",
      "type": "event"
    },
    {
      "anonymous": false,
      "inputs": [
        {
          "indexed": false,
          "internalType": "address",
          "name": "_lockupContractFactoryAddress",
          "type": "address"
        }
      ],
      "name": "LockupContractFactoryAddressSet",
      "type": "event"
    },
    {
      "anonymous": false,
      "inputs": [
        {
          "indexed": true,
          "internalType": "address",
          "name": "from",
          "type": "address"
        },
        {
          "indexed": true,
          "internalType": "address",
          "name": "to",
          "type": "address"
        },
        {
          "indexed": false,
          "internalType": "uint256",
          "name": "value",
          "type": "uint256"
        }
      ],
      "name": "Transfer",
      "type": "event"
    },
    {
      "inputs": [],
      "name": "ONE_YEAR_IN_SECONDS",
      "outputs": [
        {
          "internalType": "uint256",
          "name": "",
          "type": "uint256"
        }
      ],
      "stateMutability": "view",
      "type": "function"
    },
    {
      "inputs": [
        {
          "internalType": "address",
          "name": "owner",
          "type": "address"
        },
        {
          "internalType": "address",
          "name": "spender",
          "type": "address"
        }
      ],
      "name": "allowance",
      "outputs": [
        {
          "internalType": "uint256",
          "name": "",
          "type": "uint256"
        }
      ],
      "stateMutability": "view",
      "type": "function"
    },
    {
      "inputs": [
        {
          "internalType": "address",
          "name": "spender",
          "type": "address"
        },
        {
          "internalType": "uint256",
          "name": "amount",
          "type": "uint256"
        }
      ],
      "name": "approve",
      "outputs": [
        {
          "internalType": "bool",
          "name": "",
          "type": "bool"
        }
      ],
      "stateMutability": "nonpayable",
      "type": "function"
    },
    {
      "inputs": [
        {
          "internalType": "address",
          "name": "account",
          "type": "address"
        }
      ],
      "name": "balanceOf",
      "outputs": [
        {
          "internalType": "uint256",
          "name": "",
          "type": "uint256"
        }
      ],
      "stateMutability": "view",
      "type": "function"
    },
    {
      "inputs": [
        {
          "internalType": "address",
          "name": "owner",
          "type": "address"
        },
        {
          "internalType": "address",
          "name": "spender",
          "type": "address"
        },
        {
          "internalType": "uint256",
          "name": "amount",
          "type": "uint256"
        }
      ],
      "name": "callInternalApprove",
      "outputs": [
        {
          "internalType": "bool",
          "name": "",
          "type": "bool"
        }
      ],
      "stateMutability": "nonpayable",
      "type": "function"
    },
    {
      "inputs": [
        {
          "internalType": "address",
          "name": "sender",
          "type": "address"
        },
        {
          "internalType": "address",
          "name": "recipient",
          "type": "address"
        },
        {
          "internalType": "uint256",
          "name": "amount",
          "type": "uint256"
        }
      ],
      "name": "callInternalTransfer",
      "outputs": [
        {
          "internalType": "bool",
          "name": "",
          "type": "bool"
        }
      ],
      "stateMutability": "nonpayable",
      "type": "function"
    },
    {
      "inputs": [],
      "name": "communityIssuanceAddress",
      "outputs": [
        {
          "internalType": "address",
          "name": "",
          "type": "address"
        }
      ],
      "stateMutability": "view",
      "type": "function"
    },
    {
      "inputs": [],
      "name": "decimals",
      "outputs": [
        {
          "internalType": "uint8",
          "name": "",
          "type": "uint8"
        }
      ],
      "stateMutability": "view",
      "type": "function"
    },
    {
      "inputs": [
        {
          "internalType": "address",
          "name": "spender",
          "type": "address"
        },
        {
          "internalType": "uint256",
          "name": "subtractedValue",
          "type": "uint256"
        }
      ],
      "name": "decreaseAllowance",
      "outputs": [
        {
          "internalType": "bool",
          "name": "",
          "type": "bool"
        }
      ],
      "stateMutability": "nonpayable",
      "type": "function"
    },
    {
      "inputs": [],
      "name": "deployer",
      "outputs": [
        {
          "internalType": "address",
          "name": "",
          "type": "address"
        }
      ],
      "stateMutability": "view",
      "type": "function"
    },
    {
      "inputs": [],
      "name": "deploymentStartTime",
      "outputs": [
        {
          "internalType": "uint256",
          "name": "",
          "type": "uint256"
        }
      ],
      "stateMutability": "view",
      "type": "function"
    },
    {
      "inputs": [],
      "name": "domainSeparator",
      "outputs": [
        {
          "internalType": "bytes32",
          "name": "",
          "type": "bytes32"
        }
      ],
      "stateMutability": "view",
      "type": "function"
    },
    {
      "inputs": [],
      "name": "getChainId",
      "outputs": [
        {
          "internalType": "uint256",
          "name": "chainID",
          "type": "uint256"
        }
      ],
      "stateMutability": "pure",
      "type": "function"
    },
    {
      "inputs": [
        {
          "internalType": "address",
          "name": "spender",
          "type": "address"
        },
        {
          "internalType": "uint256",
          "name": "addedValue",
          "type": "uint256"
        }
      ],
      "name": "increaseAllowance",
      "outputs": [
        {
          "internalType": "bool",
          "name": "",
          "type": "bool"
        }
      ],
      "stateMutability": "nonpayable",
      "type": "function"
    },
    {
      "inputs": [],
      "name": "lockupContractFactory",
      "outputs": [
        {
          "internalType": "contract ILockupContractFactory",
          "name": "",
          "type": "address"
        }
      ],
      "stateMutability": "view",
      "type": "function"
    },
    {
      "inputs": [],
      "name": "lqtyStakingAddress",
      "outputs": [
        {
          "internalType": "address",
          "name": "",
          "type": "address"
        }
      ],
      "stateMutability": "view",
      "type": "function"
    },
    {
      "inputs": [],
      "name": "name",
      "outputs": [
        {
          "internalType": "string",
          "name": "",
          "type": "string"
        }
      ],
      "stateMutability": "view",
      "type": "function"
    },
    {
      "inputs": [
        {
          "internalType": "address",
          "name": "owner",
          "type": "address"
        }
      ],
      "name": "nonces",
      "outputs": [
        {
          "internalType": "uint256",
          "name": "",
          "type": "uint256"
        }
      ],
      "stateMutability": "view",
      "type": "function"
    },
    {
      "inputs": [
        {
          "internalType": "address",
          "name": "owner",
          "type": "address"
        },
        {
          "internalType": "address",
          "name": "spender",
          "type": "address"
        },
        {
          "internalType": "uint256",
          "name": "amount",
          "type": "uint256"
        },
        {
          "internalType": "uint256",
          "name": "deadline",
          "type": "uint256"
        },
        {
          "internalType": "uint8",
          "name": "v",
          "type": "uint8"
        },
        {
          "internalType": "bytes32",
          "name": "r",
          "type": "bytes32"
        },
        {
          "internalType": "bytes32",
          "name": "s",
          "type": "bytes32"
        }
      ],
      "name": "permit",
      "outputs": [],
      "stateMutability": "nonpayable",
      "type": "function"
    },
    {
      "inputs": [],
      "name": "permitTypeHash",
      "outputs": [
        {
          "internalType": "bytes32",
          "name": "",
          "type": "bytes32"
        }
      ],
      "stateMutability": "view",
      "type": "function"
    },
    {
      "inputs": [
        {
          "internalType": "address",
          "name": "_sender",
          "type": "address"
        },
        {
          "internalType": "uint256",
          "name": "_amount",
          "type": "uint256"
        }
      ],
      "name": "sendToLQTYStaking",
      "outputs": [],
      "stateMutability": "nonpayable",
      "type": "function"
    },
    {
      "inputs": [],
      "name": "symbol",
      "outputs": [
        {
          "internalType": "string",
          "name": "",
          "type": "string"
        }
      ],
      "stateMutability": "view",
      "type": "function"
    },
    {
      "inputs": [],
      "name": "totalSupply",
      "outputs": [
        {
          "internalType": "uint256",
          "name": "",
          "type": "uint256"
        }
      ],
      "stateMutability": "view",
      "type": "function"
    },
    {
      "inputs": [
        {
          "internalType": "address",
          "name": "recipient",
          "type": "address"
        },
        {
          "internalType": "uint256",
          "name": "amount",
          "type": "uint256"
        }
      ],
      "name": "transfer",
      "outputs": [
        {
          "internalType": "bool",
          "name": "",
          "type": "bool"
        }
      ],
      "stateMutability": "nonpayable",
      "type": "function"
    },
    {
      "inputs": [
        {
          "internalType": "address",
          "name": "sender",
          "type": "address"
        },
        {
          "internalType": "address",
          "name": "recipient",
          "type": "address"
        },
        {
          "internalType": "uint256",
          "name": "amount",
          "type": "uint256"
        }
      ],
      "name": "transferFrom",
      "outputs": [
        {
          "internalType": "bool",
          "name": "",
          "type": "bool"
        }
      ],
      "stateMutability": "nonpayable",
      "type": "function"
    },
    {
      "inputs": [
        {
          "internalType": "address",
          "name": "account",
          "type": "address"
        },
        {
          "internalType": "uint256",
          "name": "amount",
          "type": "uint256"
        }
      ],
      "name": "unprotectedMint",
      "outputs": [],
      "stateMutability": "nonpayable",
      "type": "function"
    },
    {
      "inputs": [
        {
          "internalType": "address",
          "name": "_sender",
          "type": "address"
        },
        {
          "internalType": "uint256",
          "name": "_amount",
          "type": "uint256"
        }
      ],
      "name": "unprotectedSendToLQTYStaking",
      "outputs": [],
      "stateMutability": "nonpayable",
      "type": "function"
    },
    {
      "inputs": [],
      "name": "version",
      "outputs": [
        {
          "internalType": "string",
          "name": "",
          "type": "string"
        }
      ],
      "stateMutability": "view",
      "type": "function"
    }
  ],
  "bytecode": "0x60c06040526a52b7d2dcc80cd2e40000006004553480156200002057600080fd5b5060405162001bba38038062001bba833981810160405260608110156200004657600080fd5b508051602080830151604090930151600680546001600160a01b03199081163317909155426005556001600160601b0319606085811b821660805286901b1660a052600780546001600160a01b03841692169190911790556004549293929091849184918491600091620000e391600391620000cf919060029062000bc062000144821b17901c565b620001ab60201b62000c191790919060201c565b9050620000fa33826001600160e01b03620001f516565b60006200011f6003620000cf60016004546200014460201b62000bc01790919060201c565b90506200013685826001600160e01b03620001f516565b5050505050505050620003f8565b6000826200015557506000620001a5565b828202828482816200016357fe5b0414620001a25760405162461bcd60e51b815260040180806020018281038252602181526020018062001b996021913960400191505060405180910390fd5b90505b92915050565b6000620001a283836040518060400160405280601a81526020017f536166654d6174683a206469766973696f6e206279207a65726f000000000000815250620002f660201b60201c565b6001600160a01b03821662000251576040805162461bcd60e51b815260206004820152601f60248201527f45524332303a206d696e7420746f20746865207a65726f206164647265737300604482015290519081900360640190fd5b6200026d816002546200039d60201b62000c5b1790919060201c565b6002556001600160a01b03821660009081526020818152604090912054620002a091839062000c5b6200039d821b17901c565b6001600160a01b0383166000818152602081815260408083209490945583518581529351929391927fddf252ad1be2c89b69c2b068fc378daa952ba7f163c4a11628f55a4df523b3ef9281900390910190a35050565b60008183620003865760405162461bcd60e51b81526004018080602001828103825283818151815260200191508051906020019080838360005b838110156200034a57818101518382015260200162000330565b50505050905090810190601f168015620003785780820380516001836020036101000a031916815260200191505b509250505060405180910390fd5b5060008385816200039357fe5b0495945050505050565b600082820183811015620001a2576040805162461bcd60e51b815260206004820152601b60248201527f536166654d6174683a206164646974696f6e206f766572666c6f770000000000604482015290519081900360640190fd5b60805160601c60a05160601c61176362000436600039806106fb52806107665280610ef45280611317525080610a835280610eb752506117636000f3fe608060405234801561001057600080fd5b50600436106101845760003560e01c8063761ab22c116100d9578063d5f3948811610087578063d5f39488146104df578063d874ea74146104e7578063dd62ed3e146104ef578063e7c8fed41461051d578063f3a2568b14610525578063f698da2514610551578063fdf27dba1461055957610184565b8063761ab22c146103e45780637ecebe0014610408578063811c5b4d1461042e57806395d89b41146101d3578063a457c2d714610436578063a9059cbb14610462578063d505accf1461048e57610184565b80633408e470116101365780633408e470146102f2578063387a54d9146102fa57806339509351146103305780634655018c1461035c5780635099f99f1461038a57806354fd4d50146103b657806370a08231146103be57610184565b806303d999461461018957806306fdde03146101d3578063095ea7b31461025057806310ce43bd1461027c57806318160ddd1461029657806323b872dd1461029e578063313ce567146102d4575b600080fd5b6101bf6004803603606081101561019f57600080fd5b506001600160a01b03813581169160208101359091169060400135610561565b604080519115158252519081900360200190f35b6101db610575565b6040805160208082528351818301528351919283929083019185019080838360005b838110156102155781810151838201526020016101fd565b50505050905090810190601f1680156102425780820380516001836020036101000a031916815260200191505b509250505060405180910390f35b6101bf6004803603604081101561026657600080fd5b506001600160a01b038135169060200135610593565b6102846105bf565b60408051918252519081900360200190f35b6102846105e3565b6101bf600480360360608110156102b457600080fd5b506001600160a01b038135811691602081013590911690604001356105e9565b6102dc610677565b6040805160ff9092168252519081900360200190f35b61028461067c565b6101bf6004803603606081101561031057600080fd5b506001600160a01b03813581169160208101359091169060400135610680565b6101bf6004803603604081101561034657600080fd5b506001600160a01b03813516906020013561068d565b6103886004803603604081101561037257600080fd5b506001600160a01b0381351690602001356106df565b005b610388600480360360408110156103a057600080fd5b506001600160a01b038135169060200135610724565b6101db61072e565b610284600480360360208110156103d457600080fd5b50356001600160a01b0316610749565b6103ec610764565b604080516001600160a01b039092168252519081900360200190f35b6102846004803603602081101561041e57600080fd5b50356001600160a01b0316610788565b6103ec6107a3565b6101bf6004803603604081101561044c57600080fd5b506001600160a01b0381351690602001356107b2565b6101bf6004803603604081101561047857600080fd5b506001600160a01b03813516906020013561081c565b610388600480360360e08110156104a457600080fd5b506001600160a01b03813581169160208101359091169060408101359060608101359060ff6080820135169060a08101359060c00135610857565b6103ec610a72565b6103ec610a81565b6102846004803603604081101561050557600080fd5b506001600160a01b0381358116916020013516610aa5565b610284610ad0565b6103886004803603604081101561053b57600080fd5b506001600160a01b038135169060200135610ad8565b610284610ae0565b610284610bba565b600061056e848484610cb5565b9392505050565b6040805180820190915260048152634c51545960e01b602082015290565b600061059d610da1565b156105aa576105aa610dc3565b6105b5338484610cb5565b5060015b92915050565b7f6e71edae12b1b97f4d1f60370fef10105fa2faae0126114a169c64845d6126c990565b60025490565b60006105f3610da1565b156106015761060184610e09565b61060a83610e59565b610615848484610f64565b61066d843361066885604051806060016040528060288152602001611582602891396001600160a01b038a166000908152600160209081526040808320338452909152902054919063ffffffff6110c016565b610cb5565b5060019392505050565b601290565b4690565b600061056e848484610f64565b6000610697610da1565b156106a4576106a4610dc3565b3360008181526001602090815260408083206001600160a01b03881684529091529020546105b591908590610668908663ffffffff610c5b16565b6106e7610da1565b156106f5576106f582610e09565b610720827f000000000000000000000000000000000000000000000000000000000000000083610f64565b5050565b6107208282611157565b6040805180820190915260018152603160f81b602082015290565b6001600160a01b031660009081526020819052604090205490565b7f000000000000000000000000000000000000000000000000000000000000000081565b6001600160a01b031660009081526003602052604090205490565b6007546001600160a01b031681565b60006107bc610da1565b156107c9576107c9610dc3565b6105b5338461066885604051806060016040528060258152602001611709602591393360009081526001602090815260408083206001600160a01b038d168452909152902054919063ffffffff6110c016565b6000610826611247565b80156108355750610835610da1565b156108435761084383611258565b61084c83610e59565b6105b5338484610f64565b8315806108645750428410155b6108b5576040805162461bcd60e51b815260206004820152601b60248201527f4c5553443a205369676e61747572652068617320657870697265640000000000604482015290519081900360640190fd5b60006119016108c2610ae0565b6001600160a01b038a811660008181526003602090815260408083208054600180820190925582517f6e71edae12b1b97f4d1f60370fef10105fa2faae0126114a169c64845d6126c98186015280840196909652958f166060860152608085018e905260a085019590955260c08085018d90528151808603909101815260e08501825280519083012060f09790971b6001600160f01b0319166101008501526101028401959095526101228084019690965284518084039096018652610142830180865286519682019690962095829052610162830180865286905260ff8a166101828401526101a283018990526101c2830188905293519495509391926101e2808301939192601f198301929081900390910190855afa1580156109eb573d6000803e3d6000fd5b5050604051601f1901519150506001600160a01b03811615801590610a215750886001600160a01b0316816001600160a01b0316145b610a5c5760405162461bcd60e51b815260040180806020018281038252603581526020018061148a6035913960400191505060405180910390fd5b610a67898989610cb5565b505050505050505050565b6006546001600160a01b031681565b7f000000000000000000000000000000000000000000000000000000000000000081565b6001600160a01b03918216600090815260016020908152604080832093909416825291909152205490565b6301e1338081565b6106df61130c565b6000604051808061150f6052913960408051918290036052018220828201825260048352634c51545960e01b602093840152815180830190925260018252603160f81b919092015290507f3a81c10f33bb8529c37240b8a654b1c488a9f8c7e205411c4bef216f358130477fc89efdaa54c0f20c7adf612882df0950f5a951637e0307cdcb4c672f298b8bc6610b7461067c565b6040805160208082019690965280820194909452606084019290925260808301523060a0808401919091528151808403909101815260c090920190528051910120905090565b60055481565b600082610bcf575060006105b9565b82820282848281610bdc57fe5b041461056e5760405162461bcd60e51b81526004018080602001828103825260218152602001806115616021913960400191505060405180910390fd5b600061056e83836040518060400160405280601a81526020017f536166654d6174683a206469766973696f6e206279207a65726f000000000000815250611373565b60008282018381101561056e576040805162461bcd60e51b815260206004820152601b60248201527f536166654d6174683a206164646974696f6e206f766572666c6f770000000000604482015290519081900360640190fd5b6001600160a01b038316610cfa5760405162461bcd60e51b81526004018080602001828103825260248152602001806115cf6024913960400191505060405180910390fd5b6001600160a01b038216610d3f5760405162461bcd60e51b81526004018080602001828103825260228152602001806114686022913960400191505060405180910390fd5b6001600160a01b03808416600081815260016020908152604080832094871680845294825291829020859055815185815291517f8c5be1e5ebec7d5bd14f71427d1e84f3dd0314c0f7b2291e5b200ac8c7c3b9259281900390910190a3505050565b60006301e13380610dbd600554426113d890919063ffffffff16565b10905090565b610dcb611247565b15610e075760405162461bcd60e51b815260040180806020018281038252602a81526020018061143e602a913960400191505060405180910390fd5b565b6006546001600160a01b0382811691161415610e565760405162461bcd60e51b815260040180806020018281038252602a8152602001806114e5602a913960400191505060405180910390fd5b50565b6001600160a01b03811615801590610e7a57506001600160a01b0381163014155b610eb55760405162461bcd60e51b81526004018080602001828103825260548152602001806116256054913960600191505060405180910390fd5b7f00000000000000000000000000000000000000000000000000000000000000006001600160a01b0316816001600160a01b031614158015610f2957507f00000000000000000000000000000000000000000000000000000000000000006001600160a01b0316816001600160a01b031614155b610e565760405162461bcd60e51b81526004018080602001828103825260538152602001806116b66053913960600191505060405180910390fd5b6001600160a01b038316610fa95760405162461bcd60e51b81526004018080602001828103825260258152602001806115aa6025913960400191505060405180910390fd5b6001600160a01b038216610fee5760405162461bcd60e51b815260040180806020018281038252602381526020018061141b6023913960400191505060405180910390fd5b611031816040518060600160405280602681526020016114bf602691396001600160a01b038616600090815260208190526040902054919063ffffffff6110c016565b6001600160a01b038085166000908152602081905260408082209390935590841681522054611066908263ffffffff610c5b16565b6001600160a01b038084166000818152602081815260409182902094909455805185815290519193928716927fddf252ad1be2c89b69c2b068fc378daa952ba7f163c4a11628f55a4df523b3ef92918290030190a3505050565b6000818484111561114f5760405162461bcd60e51b81526004018080602001828103825283818151815260200191508051906020019080838360005b838110156111145781810151838201526020016110fc565b50505050905090810190601f1680156111415780820380516001836020036101000a031916815260200191505b509250505060405180910390fd5b505050900390565b6001600160a01b0382166111b2576040805162461bcd60e51b815260206004820152601f60248201527f45524332303a206d696e7420746f20746865207a65726f206164647265737300604482015290519081900360640190fd5b6002546111c5908263ffffffff610c5b16565b6002556001600160a01b0382166000908152602081905260409020546111f1908263ffffffff610c5b16565b6001600160a01b0383166000818152602081815260408083209490945583518581529351929391927fddf252ad1be2c89b69c2b068fc378daa952ba7f163c4a11628f55a4df523b3ef9281900390910190a35050565b6006546001600160a01b0316331490565b60075460408051637e56da6d60e11b81526001600160a01b0384811660048301529151919092169163fcadb4da916024808301926020929190829003018186803b1580156112a557600080fd5b505afa1580156112b9573d6000803e3d6000fd5b505050506040513d60208110156112cf57600080fd5b5051610e565760405162461bcd60e51b815260040180806020018281038252603d815260200180611679603d913960400191505060405180910390fd5b336001600160a01b037f00000000000000000000000000000000000000000000000000000000000000001614610e075760405162461bcd60e51b81526004018080602001828103825260328152602001806115f36032913960400191505060405180910390fd5b600081836113c25760405162461bcd60e51b81526020600482018181528351602484015283519092839260449091019190850190808383600083156111145781810151838201526020016110fc565b5060008385816113ce57fe5b0495945050505050565b600061056e83836040518060400160405280601e81526020017f536166654d6174683a207375627472616374696f6e206f766572666c6f7700008152506110c056fe45524332303a207472616e7366657220746f20746865207a65726f20616464726573734c515459546f6b656e3a2063616c6c6572206d757374206e6f7420626520746865206465706c6f79657245524332303a20617070726f766520746f20746865207a65726f20616464726573734c5553443a205265636f766572656420616464726573732066726f6d2074686520736967206973206e6f7420746865206f776e657245524332303a207472616e7366657220616d6f756e7420657863656564732062616c616e63654c515459546f6b656e3a2073656e646572206d757374206e6f7420626520746865206465706c6f796572454950373132446f6d61696e28737472696e67206e616d652c737472696e672076657273696f6e2c75696e7432353620636861696e49642c6164647265737320766572696679696e67436f6e747261637429536166654d6174683a206d756c7469706c69636174696f6e206f766572666c6f7745524332303a207472616e7366657220616d6f756e74206578636565647320616c6c6f77616e636545524332303a207472616e736665722066726f6d20746865207a65726f206164647265737345524332303a20617070726f76652066726f6d20746865207a65726f20616464726573734c515459546f6b656e3a2063616c6c6572206d75737420626520746865204c5154595374616b696e6720636f6e74726163744c5154593a2043616e6e6f74207472616e7366657220746f6b656e73206469726563746c7920746f20746865204c51545920746f6b656e20636f6e7472616374206f7220746865207a65726f20616464726573734c515459546f6b656e3a20726563697069656e74206d7573742062652061204f594c43207265676973746572656420696e2074686520466163746f72794c5154593a2043616e6e6f74207472616e7366657220746f6b656e73206469726563746c7920746f2074686520636f6d6d756e6974792069737375616e6365206f72207374616b696e6720636f6e747261637445524332303a2064656372656173656420616c6c6f77616e63652062656c6f77207a65726fa2646970667358221220b694be65c2658c2b20239759d0ece2fb2a14aefc164a87ac994e11954329756064736f6c634300060b0033536166654d6174683a206d756c7469706c69636174696f6e206f766572666c6f77",
  "linkReferences": {},
  "deployedLinkReferences": {}
}