{
  "_format": "hh-sol-artifact-1",
  "contractName": "LQTYStakingScript",
  "sourceName": "contracts/Proxy/LQTYStakingScript.sol",
  "abi": [
    {
      "inputs": [
        {
          "internalType": "address",
          "name": "_LQTYStakingAddress",
          "type": "address"
        }
      ],
      "stateMutability": "nonpayable",
      "type": "constructor"
    },
    {
      "inputs": [
        {
          "internalType": "uint256",
          "name": "_LQTYamount",
          "type": "uint256"
        }
      ],
      "name": "stake",
      "outputs": [],
      "stateMutability": "nonpayable",
      "type": "function"
    }
  ],
  "bytecode": "0x60a060405234801561001057600080fd5b506040516101623803806101628339818101604052602081101561003357600080fd5b5051606081901b6001600160601b0319166080526001600160a01b031660fe61006460003980604b525060fe6000f3fe6080604052348015600f57600080fd5b506004361060285760003560e01c8063a694fc3a14602d575b600080fd5b604760048036036020811015604157600080fd5b50356049565b005b7f00000000000000000000000000000000000000000000000000000000000000006001600160a01b031663a694fc3a826040518263ffffffff1660e01b815260040180828152602001915050600060405180830381600087803b15801560ae57600080fd5b505af115801560c1573d6000803e3d6000fd5b505050505056fea264697066735822122066c6d68beb2cf733b140b9c9046c3d130b7478eda69e1f32e9987579aad04fe064736f6c634300060b0033",
  "linkReferences": {},
  "deployedLinkReferences": {}
}