{
  "_format": "hh-sol-artifact-1",
  "contractName": "LQTYStakingTester",
  "sourceName": "contracts/TestContracts/LQTYStakingTester.sol",
  "abi": [
    {
      "anonymous": false,
      "inputs": [
        {
          "indexed": false,
          "internalType": "address",
          "name": "_activePoolAddress",
          "type": "address"
        }
      ],
      "name": "ActivePoolAddressSet",
      "type": "event"
    },
    {
      "anonymous": false,
      "inputs": [
        {
          "indexed": false,
          "internalType": "address",
          "name": "_borrowerOperationsAddress",
          "type": "address"
        }
      ],
      "name": "BorrowerOperationsAddressSet",
      "type": "event"
    },
    {
      "anonymous": false,
      "inputs": [
        {
          "indexed": false,
          "internalType": "address",
          "name": "_lqtyTokenAddress",
          "type": "address"
        }
      ],
      "name": "LQTYTokenAddressSet",
      "type": "event"
    },
    {
      "anonymous": false,
      "inputs": [
        {
          "indexed": false,
          "internalType": "address",
          "name": "_lusdTokenAddress",
          "type": "address"
        }
      ],
      "name": "LUSDTokenAddressSet",
      "type": "event"
    },
    {
      "anonymous": false,
      "inputs": [
        {
          "indexed": true,
          "internalType": "address",
          "name": "previousOwner",
          "type": "address"
        },
        {
          "indexed": true,
          "internalType": "address",
          "name": "newOwner",
          "type": "address"
        }
      ],
      "name": "OwnershipTransferred",
      "type": "event"
    },
    {
      "anonymous": false,
      "inputs": [
        {
          "indexed": true,
          "internalType": "address",
          "name": "staker",
          "type": "address"
        },
        {
          "indexed": false,
          "internalType": "uint256",
          "name": "newStake",
          "type": "uint256"
        }
      ],
      "name": "StakeChanged",
      "type": "event"
    },
    {
      "anonymous": false,
      "inputs": [
        {
          "indexed": true,
          "internalType": "address",
          "name": "staker",
          "type": "address"
        },
        {
          "indexed": false,
          "internalType": "uint256",
          "name": "LUSDGain",
          "type": "uint256"
        },
        {
          "indexed": false,
          "internalType": "uint256",
          "name": "ETHGain",
          "type": "uint256"
        }
      ],
      "name": "StakingGainsWithdrawn",
      "type": "event"
    },
    {
      "anonymous": false,
      "inputs": [
        {
          "indexed": false,
          "internalType": "address",
          "name": "_troveManager",
          "type": "address"
        }
      ],
      "name": "TroveManagerAddressSet",
      "type": "event"
    },
    {
      "inputs": [],
      "name": "DECIMAL_PRECISION",
      "outputs": [
        {
          "internalType": "uint256",
          "name": "",
          "type": "uint256"
        }
      ],
      "stateMutability": "view",
      "type": "function"
    },
    {
      "inputs": [],
      "name": "F_ETH",
      "outputs": [
        {
          "internalType": "uint256",
          "name": "",
          "type": "uint256"
        }
      ],
      "stateMutability": "view",
      "type": "function"
    },
    {
      "inputs": [],
      "name": "F_LUSD",
      "outputs": [
        {
          "internalType": "uint256",
          "name": "",
          "type": "uint256"
        }
      ],
      "stateMutability": "view",
      "type": "function"
    },
    {
      "inputs": [],
      "name": "activePoolAddress",
      "outputs": [
        {
          "internalType": "address",
          "name": "",
          "type": "address"
        }
      ],
      "stateMutability": "view",
      "type": "function"
    },
    {
      "inputs": [],
      "name": "borrowerOperationsAddress",
      "outputs": [
        {
          "internalType": "address",
          "name": "",
          "type": "address"
        }
      ],
      "stateMutability": "view",
      "type": "function"
    },
    {
      "inputs": [
        {
          "internalType": "address",
          "name": "_user",
          "type": "address"
        }
      ],
      "name": "getPendingETHGain",
      "outputs": [
        {
          "internalType": "uint256",
          "name": "",
          "type": "uint256"
        }
      ],
      "stateMutability": "view",
      "type": "function"
    },
    {
      "inputs": [
        {
          "internalType": "address",
          "name": "_user",
          "type": "address"
        }
      ],
      "name": "getPendingLUSDGain",
      "outputs": [
        {
          "internalType": "uint256",
          "name": "",
          "type": "uint256"
        }
      ],
      "stateMutability": "view",
      "type": "function"
    },
    {
      "inputs": [
        {
          "internalType": "uint256",
          "name": "_ETHFee",
          "type": "uint256"
        }
      ],
      "name": "increaseF_ETH",
      "outputs": [],
      "stateMutability": "nonpayable",
      "type": "function"
    },
    {
      "inputs": [
        {
          "internalType": "uint256",
          "name": "_LUSDFee",
          "type": "uint256"
        }
      ],
      "name": "increaseF_LUSD",
      "outputs": [],
      "stateMutability": "nonpayable",
      "type": "function"
    },
    {
      "inputs": [],
      "name": "isOwner",
      "outputs": [
        {
          "internalType": "bool",
          "name": "",
          "type": "bool"
        }
      ],
      "stateMutability": "view",
      "type": "function"
    },
    {
      "inputs": [],
      "name": "lqtyToken",
      "outputs": [
        {
          "internalType": "contract ILQTYToken",
          "name": "",
          "type": "address"
        }
      ],
      "stateMutability": "view",
      "type": "function"
    },
    {
      "inputs": [],
      "name": "lusdToken",
      "outputs": [
        {
          "internalType": "contract ILUSDToken",
          "name": "",
          "type": "address"
        }
      ],
      "stateMutability": "view",
      "type": "function"
    },
    {
      "inputs": [],
      "name": "owner",
      "outputs": [
        {
          "internalType": "address",
          "name": "",
          "type": "address"
        }
      ],
      "stateMutability": "view",
      "type": "function"
    },
    {
      "inputs": [],
      "name": "requireCallerIsTroveManager",
      "outputs": [],
      "stateMutability": "view",
      "type": "function"
    },
    {
      "inputs": [
        {
          "internalType": "address",
          "name": "_lqtyTokenAddress",
          "type": "address"
        },
        {
          "internalType": "address",
          "name": "_lusdTokenAddress",
          "type": "address"
        },
        {
          "internalType": "address",
          "name": "_troveManagerAddress",
          "type": "address"
        },
        {
          "internalType": "address",
          "name": "_borrowerOperationsAddress",
          "type": "address"
        },
        {
          "internalType": "address",
          "name": "_activePoolAddress",
          "type": "address"
        }
      ],
      "name": "setAddresses",
      "outputs": [],
      "stateMutability": "nonpayable",
      "type": "function"
    },
    {
      "inputs": [
        {
          "internalType": "address",
          "name": "",
          "type": "address"
        }
      ],
      "name": "snapshots",
      "outputs": [
        {
          "internalType": "uint256",
          "name": "F_ETH_Snapshot",
          "type": "uint256"
        },
        {
          "internalType": "uint256",
          "name": "F_LUSD_Snapshot",
          "type": "uint256"
        }
      ],
      "stateMutability": "view",
      "type": "function"
    },
    {
      "inputs": [
        {
          "internalType": "uint256",
          "name": "_LQTYamount",
          "type": "uint256"
        }
      ],
      "name": "stake",
      "outputs": [],
      "stateMutability": "nonpayable",
      "type": "function"
    },
    {
      "inputs": [
        {
          "internalType": "address",
          "name": "",
          "type": "address"
        }
      ],
      "name": "stakes",
      "outputs": [
        {
          "internalType": "uint256",
          "name": "",
          "type": "uint256"
        }
      ],
      "stateMutability": "view",
      "type": "function"
    },
    {
      "inputs": [],
      "name": "totalLQTYStaked",
      "outputs": [
        {
          "internalType": "uint256",
          "name": "",
          "type": "uint256"
        }
      ],
      "stateMutability": "view",
      "type": "function"
    },
    {
      "inputs": [],
      "name": "troveManagerAddress",
      "outputs": [
        {
          "internalType": "address",
          "name": "",
          "type": "address"
        }
      ],
      "stateMutability": "view",
      "type": "function"
    },
    {
      "inputs": [
        {
          "internalType": "uint256",
          "name": "_LQTYamount",
          "type": "uint256"
        }
      ],
      "name": "unstake",
      "outputs": [],
      "stateMutability": "nonpayable",
      "type": "function"
    },
    {
      "stateMutability": "payable",
      "type": "receive"
    }
  ],
  "bytecode": "0x608060405234801561001057600080fd5b50600080546001600160a01b0319163390811782556040519091907f8be0079c531659141344cd1fd0a4f28419497f9722a3daafe3b4186f6b6457e0908290a36112c48061005f6000396000f3fe60806040526004361061012e5760003560e01c806369b83185116100ab578063a20baee61161006f578063a20baee6146103cf578063a694fc3a146103e4578063b08bc7221461040e578063b7f8cf9b14610423578063b83f91a214610438578063b9bbe00f1461044d5761013d565b806369b83185146103165780638b9345ad1461032b5780638da5cb5b1461035e5780638f32d59b146103735780639beab5c01461039c5761013d565b806334b3081f116100f257806334b3081f146102215780633b95b91d1461026d5780634677ffb3146102825780635a4d28bb146102ac5780635dd68acd146102c15761013d565b8063077ee4c61461014257806316934fc4146101695780631e3e2a1a1461019c5780631f7af3c3146101c65780632e17de78146101f75761013d565b3661013d5761013b610462565b005b600080fd5b34801561014e57600080fd5b506101576104ad565b60408051918252519081900360200190f35b34801561017557600080fd5b506101576004803603602081101561018c57600080fd5b50356001600160a01b03166104b3565b3480156101a857600080fd5b5061013b600480360360208110156101bf57600080fd5b50356104c5565b3480156101d257600080fd5b506101db610520565b604080516001600160a01b039092168252519081900360200190f35b34801561020357600080fd5b5061013b6004803603602081101561021a57600080fd5b503561052f565b34801561022d57600080fd5b506102546004803603602081101561024457600080fd5b50356001600160a01b0316610738565b6040805192835260208301919091528051918290030190f35b34801561027957600080fd5b5061013b610751565b34801561028e57600080fd5b5061013b600480360360208110156102a557600080fd5b5035610759565b3480156102b857600080fd5b506101db6107a8565b3480156102cd57600080fd5b5061013b600480360360a08110156102e457600080fd5b506001600160a01b038135811691602081013582169160408201358116916060810135821691608090910135166107b7565b34801561032257600080fd5b506101576109c3565b34801561033757600080fd5b506101576004803603602081101561034e57600080fd5b50356001600160a01b03166109c9565b34801561036a57600080fd5b506101db6109da565b34801561037f57600080fd5b506103886109e9565b604080519115158252519081900360200190f35b3480156103a857600080fd5b50610157600480360360208110156103bf57600080fd5b50356001600160a01b03166109fa565b3480156103db57600080fd5b50610157610a05565b3480156103f057600080fd5b5061013b6004803603602081101561040757600080fd5b5035610a11565b34801561041a57600080fd5b506101db610bf1565b34801561042f57600080fd5b506101db610c00565b34801561044457600080fd5b506101db610c0f565b34801561045957600080fd5b50610157610c1e565b600a546001600160a01b031633146104ab5760405162461bcd60e51b815260040180806020018281038252602581526020018061121a6025913960400191505060405180910390fd5b565b60025481565b60016020526000908152604090205481565b6104cd610c24565b6002546000901561050657600254610503906104f784670de0b6b3a764000063ffffffff610c6d16565b9063ffffffff610ccd16565b90505b600354610519908263ffffffff610d0f16565b6003555050565b6006546001600160a01b031681565b3360009081526001602052604090205461054881610d69565b600061055333610dab565b9050600061056033610e18565b905061056b33610e5b565b60006105778585610e85565b9050600061058b858363ffffffff610e9b16565b3360009081526001602052604090208190556002549091506105b3908363ffffffff610e9b16565b6002556006546040805163a9059cbb60e01b81523360048201526024810185905290516001600160a01b039092169163a9059cbb916044808201926020929091908290030181600087803b15801561060a57600080fd5b505af115801561061e573d6000803e3d6000fd5b505050506040513d602081101561063457600080fd5b505060408051828152905133917f39df0e5286a3ef2f42a0bf52f32cfe2c58e5b0405f47fe512f2c2439e4cfe204919081900360200190a26040805184815260208101869052815133927ff744d34ca1cb25acfa4180df5f09a67306107110a9f4b6ed99bb3be259738215928290030190a26007546040805163a9059cbb60e01b81523360048201526024810186905290516001600160a01b039092169163a9059cbb916044808201926020929091908290030181600087803b1580156106fa57600080fd5b505af115801561070e573d6000803e3d6000fd5b505050506040513d602081101561072457600080fd5b50610730905084610edd565b505050505050565b6005602052600090815260409020805460019091015482565b6104ab610c24565b610761610f68565b6002546000901561078e5760025461078b906104f784670de0b6b3a764000063ffffffff610c6d16565b90505b6004546107a1908263ffffffff610d0f16565b6004555050565b6008546001600160a01b031681565b6107bf6109e9565b610810576040805162461bcd60e51b815260206004820181905260248201527f4f776e61626c653a2063616c6c6572206973206e6f7420746865206f776e6572604482015290519081900360640190fd5b61081985610fb1565b61082284610fb1565b61082b83610fb1565b61083482610fb1565b61083d81610fb1565b600680546001600160a01b038088166001600160a01b03199283168117909355600780548883169084161790556008805487831690841617905560098054868316908416179055600a80549185169190921617905560408051918252517fb0c89119a7c10e4c2d02306921ba368ac83d0e4b302337916017485c2791bec59181900360200190a1604080516001600160a01b038616815290517fb0c89119a7c10e4c2d02306921ba368ac83d0e4b302337916017485c2791bec59181900360200190a1604080516001600160a01b038516815290517f41097dcc1f7cbd663d822443d7972f05b04f71918b30fe9fc59dd6e42e2280609181900360200190a1604080516001600160a01b038416815290517f5962f8af633c4df1ab230096f773a514ee5adf7785c621ecdcdb764cb7f6e3919181900360200190a1604080516001600160a01b038316815290517f8f6a6e7d20a3233e0a79883272259ffbd7a243734e397bc2b4642c79d7fa8a6d9181900360200190a16109bc611060565b5050505050565b60045481565b60006109d482610dab565b92915050565b6000546001600160a01b031690565b6000546001600160a01b0316331490565b60006109d482610e18565b670de0b6b3a764000081565b3360009081526001602052604081205490808215610a4057610a3233610dab565b9150610a3d33610e18565b90505b610a4933610e5b565b6000610a5b848663ffffffff610d0f16565b336000908152600160205260409020819055600254909150610a83908663ffffffff610d0f16565b6002556006546040805163f3a2568b60e01b81523360048201526024810188905290516001600160a01b039092169163f3a2568b9160448082019260009290919082900301818387803b158015610ad957600080fd5b505af1158015610aed573d6000803e3d6000fd5b50506040805184815290513393507f39df0e5286a3ef2f42a0bf52f32cfe2c58e5b0405f47fe512f2c2439e4cfe20492509081900360200190a26040805183815260208101859052815133927ff744d34ca1cb25acfa4180df5f09a67306107110a9f4b6ed99bb3be259738215928290030190a283156109bc576007546040805163a9059cbb60e01b81523360048201526024810185905290516001600160a01b039092169163a9059cbb916044808201926020929091908290030181600087803b158015610bbb57600080fd5b505af1158015610bcf573d6000803e3d6000fd5b505050506040513d6020811015610be557600080fd5b506109bc905083610edd565b600a546001600160a01b031681565b6009546001600160a01b031681565b6007546001600160a01b031681565b60035481565b6008546001600160a01b031633146104ab5760405162461bcd60e51b815260040180806020018281038252602181526020018061123f6021913960400191505060405180910390fd5b600082610c7c575060006109d4565b82820282848281610c8957fe5b0414610cc65760405162461bcd60e51b81526004018080602001828103825260218152602001806111f96021913960400191505060405180910390fd5b9392505050565b6000610cc683836040518060400160405280601a81526020017f536166654d6174683a206469766973696f6e206279207a65726f0000000000008152506110aa565b600082820183811015610cc6576040805162461bcd60e51b815260206004820152601b60248201527f536166654d6174683a206164646974696f6e206f766572666c6f770000000000604482015290519081900360640190fd5b60008111610da85760405162461bcd60e51b815260040180806020018281038252602c8152602001806111a7602c913960400191505060405180910390fd5b50565b6001600160a01b0381166000908152600560205260408120546003548290610e1090670de0b6b3a7640000906104f790610deb908663ffffffff610e9b16565b6001600160a01b0388166000908152600160205260409020549063ffffffff610c6d16565b949350505050565b6001600160a01b0381166000908152600560205260408120600101546004548290610e1090670de0b6b3a7640000906104f790610deb908663ffffffff610e9b16565b6003546001600160a01b039091166000908152600560205260409020908155600454600190910155565b6000818310610e945781610cc6565b5090919050565b6000610cc683836040518060400160405280601e81526020017f536166654d6174683a207375627472616374696f6e206f766572666c6f77000081525061114c565b604051600090339083908381818185875af1925050503d8060008114610f1f576040519150601f19603f3d011682016040523d82523d6000602084013e610f24565b606091505b5050905080610f645760405162461bcd60e51b815260040180806020018281038252602f815260200180611260602f913960400191505060405180910390fd5b5050565b6009546001600160a01b031633146104ab5760405162461bcd60e51b81526004018080602001828103825260268152602001806111d36026913960400191505060405180910390fd5b6001600160a01b03811661100c576040805162461bcd60e51b815260206004820152601e60248201527f4163636f756e742063616e6e6f74206265207a65726f20616464726573730000604482015290519081900360640190fd5b803b80610f64576040805162461bcd60e51b815260206004820181905260248201527f4163636f756e7420636f64652073697a652063616e6e6f74206265207a65726f604482015290519081900360640190fd5b600080546040516001600160a01b03909116907f8be0079c531659141344cd1fd0a4f28419497f9722a3daafe3b4186f6b6457e0908390a3600080546001600160a01b0319169055565b600081836111365760405162461bcd60e51b81526004018080602001828103825283818151815260200191508051906020019080838360005b838110156110fb5781810151838201526020016110e3565b50505050905090810190601f1680156111285780820380516001836020036101000a031916815260200191505b509250505060405180910390fd5b50600083858161114257fe5b0495945050505050565b6000818484111561119e5760405162461bcd60e51b81526020600482018181528351602484015283519092839260449091019190850190808383600083156110fb5781810151838201526020016110e3565b50505090039056fe4c5154595374616b696e673a2055736572206d75737420686176652061206e6f6e2d7a65726f207374616b654c5154595374616b696e673a2063616c6c6572206973206e6f7420426f72726f7765724f7073536166654d6174683a206d756c7469706c69636174696f6e206f766572666c6f774c5154595374616b696e673a2063616c6c6572206973206e6f7420416374697665506f6f6c4c5154595374616b696e673a2063616c6c6572206973206e6f742054726f76654d4c5154595374616b696e673a204661696c656420746f2073656e6420616363756d756c61746564204554484761696ea2646970667358221220acef83928697e136ae30b7603a4e49d64d4499022c7561d9bed40217b182ffa564736f6c634300060b0033",
  "linkReferences": {},
  "deployedLinkReferences": {}
}