{
  "_format": "hh-sol-artifact-1",
  "contractName": "LQTYStaking",
  "sourceName": "contracts/LQTY/LQTYStaking.sol",
  "abi": [
    {
      "anonymous": false,
      "inputs": [
        {
          "indexed": false,
          "internalType": "address",
          "name": "_activePoolAddress",
          "type": "address"
        }
      ],
      "name": "ActivePoolAddressSet",
      "type": "event"
    },
    {
      "anonymous": false,
      "inputs": [
        {
          "indexed": false,
          "internalType": "address",
          "name": "_borrowerOperationsAddress",
          "type": "address"
        }
      ],
      "name": "BorrowerOperationsAddressSet",
      "type": "event"
    },
    {
      "anonymous": false,
      "inputs": [
        {
          "indexed": false,
          "internalType": "address",
          "name": "_account",
          "type": "address"
        },
        {
          "indexed": false,
          "internalType": "uint256",
          "name": "_amount",
          "type": "uint256"
        }
      ],
      "name": "EtherSent",
      "type": "event"
    },
    {
      "anonymous": false,
      "inputs": [
        {
          "indexed": false,
          "internalType": "uint256",
          "name": "_F_ETH",
          "type": "uint256"
        }
      ],
      "name": "F_ETHUpdated",
      "type": "event"
    },
    {
      "anonymous": false,
      "inputs": [
        {
          "indexed": false,
          "internalType": "uint256",
          "name": "_F_LUSD",
          "type": "uint256"
        }
      ],
      "name": "F_LUSDUpdated",
      "type": "event"
    },
    {
      "anonymous": false,
      "inputs": [
        {
          "indexed": false,
          "internalType": "address",
          "name": "_lqtyTokenAddress",
          "type": "address"
        }
      ],
      "name": "LQTYTokenAddressSet",
      "type": "event"
    },
    {
      "anonymous": false,
      "inputs": [
        {
          "indexed": false,
          "internalType": "address",
          "name": "_lusdTokenAddress",
          "type": "address"
        }
      ],
      "name": "LUSDTokenAddressSet",
      "type": "event"
    },
    {
      "anonymous": false,
      "inputs": [
        {
          "indexed": true,
          "internalType": "address",
          "name": "previousOwner",
          "type": "address"
        },
        {
          "indexed": true,
          "internalType": "address",
          "name": "newOwner",
          "type": "address"
        }
      ],
      "name": "OwnershipTransferred",
      "type": "event"
    },
    {
      "anonymous": false,
      "inputs": [
        {
          "indexed": true,
          "internalType": "address",
          "name": "staker",
          "type": "address"
        },
        {
          "indexed": false,
          "internalType": "uint256",
          "name": "newStake",
          "type": "uint256"
        }
      ],
      "name": "StakeChanged",
      "type": "event"
    },
    {
      "anonymous": false,
      "inputs": [
        {
          "indexed": false,
          "internalType": "address",
          "name": "_staker",
          "type": "address"
        },
        {
          "indexed": false,
          "internalType": "uint256",
          "name": "_F_ETH",
          "type": "uint256"
        },
        {
          "indexed": false,
          "internalType": "uint256",
          "name": "_F_LUSD",
          "type": "uint256"
        }
      ],
      "name": "StakerSnapshotsUpdated",
      "type": "event"
    },
    {
      "anonymous": false,
      "inputs": [
        {
          "indexed": true,
          "internalType": "address",
          "name": "staker",
          "type": "address"
        },
        {
          "indexed": false,
          "internalType": "uint256",
          "name": "LUSDGain",
          "type": "uint256"
        },
        {
          "indexed": false,
          "internalType": "uint256",
          "name": "ETHGain",
          "type": "uint256"
        }
      ],
      "name": "StakingGainsWithdrawn",
      "type": "event"
    },
    {
      "anonymous": false,
      "inputs": [
        {
          "indexed": false,
          "internalType": "uint256",
          "name": "_totalLQTYStaked",
          "type": "uint256"
        }
      ],
      "name": "TotalLQTYStakedUpdated",
      "type": "event"
    },
    {
      "anonymous": false,
      "inputs": [
        {
          "indexed": false,
          "internalType": "address",
          "name": "_troveManager",
          "type": "address"
        }
      ],
      "name": "TroveManagerAddressSet",
      "type": "event"
    },
    {
      "inputs": [],
      "name": "DECIMAL_PRECISION",
      "outputs": [
        {
          "internalType": "uint256",
          "name": "",
          "type": "uint256"
        }
      ],
      "stateMutability": "view",
      "type": "function"
    },
    {
      "inputs": [],
      "name": "F_ETH",
      "outputs": [
        {
          "internalType": "uint256",
          "name": "",
          "type": "uint256"
        }
      ],
      "stateMutability": "view",
      "type": "function"
    },
    {
      "inputs": [],
      "name": "F_LUSD",
      "outputs": [
        {
          "internalType": "uint256",
          "name": "",
          "type": "uint256"
        }
      ],
      "stateMutability": "view",
      "type": "function"
    },
    {
      "inputs": [],
      "name": "activePoolAddress",
      "outputs": [
        {
          "internalType": "address",
          "name": "",
          "type": "address"
        }
      ],
      "stateMutability": "view",
      "type": "function"
    },
    {
      "inputs": [],
      "name": "borrowerOperationsAddress",
      "outputs": [
        {
          "internalType": "address",
          "name": "",
          "type": "address"
        }
      ],
      "stateMutability": "view",
      "type": "function"
    },
    {
      "inputs": [
        {
          "internalType": "address",
          "name": "_user",
          "type": "address"
        }
      ],
      "name": "getPendingETHGain",
      "outputs": [
        {
          "internalType": "uint256",
          "name": "",
          "type": "uint256"
        }
      ],
      "stateMutability": "view",
      "type": "function"
    },
    {
      "inputs": [
        {
          "internalType": "address",
          "name": "_user",
          "type": "address"
        }
      ],
      "name": "getPendingLUSDGain",
      "outputs": [
        {
          "internalType": "uint256",
          "name": "",
          "type": "uint256"
        }
      ],
      "stateMutability": "view",
      "type": "function"
    },
    {
      "inputs": [
        {
          "internalType": "uint256",
          "name": "_ETHFee",
          "type": "uint256"
        }
      ],
      "name": "increaseF_ETH",
      "outputs": [],
      "stateMutability": "nonpayable",
      "type": "function"
    },
    {
      "inputs": [
        {
          "internalType": "uint256",
          "name": "_LUSDFee",
          "type": "uint256"
        }
      ],
      "name": "increaseF_LUSD",
      "outputs": [],
      "stateMutability": "nonpayable",
      "type": "function"
    },
    {
      "inputs": [],
      "name": "isOwner",
      "outputs": [
        {
          "internalType": "bool",
          "name": "",
          "type": "bool"
        }
      ],
      "stateMutability": "view",
      "type": "function"
    },
    {
      "inputs": [],
      "name": "lqtyToken",
      "outputs": [
        {
          "internalType": "contract ILQTYToken",
          "name": "",
          "type": "address"
        }
      ],
      "stateMutability": "view",
      "type": "function"
    },
    {
      "inputs": [],
      "name": "lusdToken",
      "outputs": [
        {
          "internalType": "contract ILUSDToken",
          "name": "",
          "type": "address"
        }
      ],
      "stateMutability": "view",
      "type": "function"
    },
    {
      "inputs": [],
      "name": "owner",
      "outputs": [
        {
          "internalType": "address",
          "name": "",
          "type": "address"
        }
      ],
      "stateMutability": "view",
      "type": "function"
    },
    {
      "inputs": [
        {
          "internalType": "address",
          "name": "_lqtyTokenAddress",
          "type": "address"
        },
        {
          "internalType": "address",
          "name": "_lusdTokenAddress",
          "type": "address"
        },
        {
          "internalType": "address",
          "name": "_troveManagerAddress",
          "type": "address"
        },
        {
          "internalType": "address",
          "name": "_borrowerOperationsAddress",
          "type": "address"
        },
        {
          "internalType": "address",
          "name": "_activePoolAddress",
          "type": "address"
        }
      ],
      "name": "setAddresses",
      "outputs": [],
      "stateMutability": "nonpayable",
      "type": "function"
    },
    {
      "inputs": [
        {
          "internalType": "address",
          "name": "",
          "type": "address"
        }
      ],
      "name": "snapshots",
      "outputs": [
        {
          "internalType": "uint256",
          "name": "F_ETH_Snapshot",
          "type": "uint256"
        },
        {
          "internalType": "uint256",
          "name": "F_LUSD_Snapshot",
          "type": "uint256"
        }
      ],
      "stateMutability": "view",
      "type": "function"
    },
    {
      "inputs": [
        {
          "internalType": "uint256",
          "name": "_LQTYamount",
          "type": "uint256"
        }
      ],
      "name": "stake",
      "outputs": [],
      "stateMutability": "nonpayable",
      "type": "function"
    },
    {
      "inputs": [
        {
          "internalType": "address",
          "name": "",
          "type": "address"
        }
      ],
      "name": "stakes",
      "outputs": [
        {
          "internalType": "uint256",
          "name": "",
          "type": "uint256"
        }
      ],
      "stateMutability": "view",
      "type": "function"
    },
    {
      "inputs": [],
      "name": "totalLQTYStaked",
      "outputs": [
        {
          "internalType": "uint256",
          "name": "",
          "type": "uint256"
        }
      ],
      "stateMutability": "view",
      "type": "function"
    },
    {
      "inputs": [],
      "name": "troveManagerAddress",
      "outputs": [
        {
          "internalType": "address",
          "name": "",
          "type": "address"
        }
      ],
      "stateMutability": "view",
      "type": "function"
    },
    {
      "inputs": [
        {
          "internalType": "uint256",
          "name": "_LQTYamount",
          "type": "uint256"
        }
      ],
      "name": "unstake",
      "outputs": [],
      "stateMutability": "nonpayable",
      "type": "function"
    },
    {
      "stateMutability": "payable",
      "type": "receive"
    }
  ],
  "bytecode": "0x608060405234801561001057600080fd5b50600080546001600160a01b0319163390811782556040519091907f8be0079c531659141344cd1fd0a4f28419497f9722a3daafe3b4186f6b6457e0908290a36114668061005f6000396000f3fe6080604052600436106101235760003560e01c80638b9345ad116100a0578063a694fc3a11610064578063a694fc3a146103c4578063b08bc722146103ee578063b7f8cf9b14610403578063b83f91a214610418578063b9bbe00f1461042d57610132565b80638b9345ad1461030b5780638da5cb5b1461033e5780638f32d59b146103535780639beab5c01461037c578063a20baee6146103af57610132565b806334b3081f116100e757806334b3081f146102165780634677ffb3146102625780635a4d28bb1461028c5780635dd68acd146102a157806369b83185146102f657610132565b8063077ee4c61461013757806316934fc41461015e5780631e3e2a1a146101915780631f7af3c3146101bb5780632e17de78146101ec57610132565b3661013257610130610442565b005b600080fd5b34801561014357600080fd5b5061014c61048d565b60408051918252519081900360200190f35b34801561016a57600080fd5b5061014c6004803603602081101561018157600080fd5b50356001600160a01b0316610493565b34801561019d57600080fd5b50610130600480360360208110156101b457600080fd5b50356104a5565b3480156101c757600080fd5b506101d0610534565b604080516001600160a01b039092168252519081900360200190f35b3480156101f857600080fd5b506101306004803603602081101561020f57600080fd5b5035610543565b34801561022257600080fd5b506102496004803603602081101561023957600080fd5b50356001600160a01b0316610787565b6040805192835260208301919091528051918290030190f35b34801561026e57600080fd5b506101306004803603602081101561028557600080fd5b50356107a0565b34801561029857600080fd5b506101d0610823565b3480156102ad57600080fd5b50610130600480360360a08110156102c457600080fd5b506001600160a01b03813581169160208101358216916040820135811691606081013582169160809091013516610832565b34801561030257600080fd5b5061014c610a3e565b34801561031757600080fd5b5061014c6004803603602081101561032e57600080fd5b50356001600160a01b0316610a44565b34801561034a57600080fd5b506101d0610a55565b34801561035f57600080fd5b50610368610a64565b604080519115158252519081900360200190f35b34801561038857600080fd5b5061014c6004803603602081101561039f57600080fd5b50356001600160a01b0316610a75565b3480156103bb57600080fd5b5061014c610a80565b3480156103d057600080fd5b50610130600480360360208110156103e757600080fd5b5035610a8c565b3480156103fa57600080fd5b506101d0610ca9565b34801561040f57600080fd5b506101d0610cb8565b34801561042457600080fd5b506101d0610cc7565b34801561043957600080fd5b5061014c610cd6565b600a546001600160a01b0316331461048b5760405162461bcd60e51b81526004018080602001828103825260258152602001806113bc6025913960400191505060405180910390fd5b565b60025481565b60016020526000908152604090205481565b6104ad610cdc565b600254600090156104e6576002546104e3906104d784670de0b6b3a764000063ffffffff610d2516565b9063ffffffff610d8516565b90505b6003546104f9908263ffffffff610dc716565b600381905560408051918252517f4c56a0cf74da9899410b818edf6758c8af9b7b3070da97d2dcb6a5b1bf96317e9181900360200190a15050565b6006546001600160a01b031681565b3360009081526001602052604090205461055c81610e21565b600061056733610e63565b9050600061057433610ed0565b905061057f33610f13565b83156106bd5760006105918585610f85565b905060006105a5858363ffffffff610f9b16565b3360009081526001602052604090208190556002549091506105cd908363ffffffff610f9b16565b600281905560408051918252517f1fb085b6fe1998bfcd59bfb91fb9a84d3a3a8c63a97b2b5c43247235a5ca1df79181900360200190a16006546040805163a9059cbb60e01b81523360048201526024810185905290516001600160a01b039092169163a9059cbb916044808201926020929091908290030181600087803b15801561065857600080fd5b505af115801561066c573d6000803e3d6000fd5b505050506040513d602081101561068257600080fd5b505060408051828152905133917f39df0e5286a3ef2f42a0bf52f32cfe2c58e5b0405f47fe512f2c2439e4cfe204919081900360200190a250505b6040805182815260208101849052815133927ff744d34ca1cb25acfa4180df5f09a67306107110a9f4b6ed99bb3be259738215928290030190a26007546040805163a9059cbb60e01b81523360048201526024810184905290516001600160a01b039092169163a9059cbb916044808201926020929091908290030181600087803b15801561074b57600080fd5b505af115801561075f573d6000803e3d6000fd5b505050506040513d602081101561077557600080fd5b50610781905082610fdd565b50505050565b6005602052600090815260409020805460019091015482565b6107a86110a3565b600254600090156107d5576002546107d2906104d784670de0b6b3a764000063ffffffff610d2516565b90505b6004546107e8908263ffffffff610dc716565b600481905560408051918252517fdc043c079acfe2ef669592e1598aa8f95877fa0ba0e91d06c214a9f73d3521f99181900360200190a15050565b6008546001600160a01b031681565b61083a610a64565b61088b576040805162461bcd60e51b815260206004820181905260248201527f4f776e61626c653a2063616c6c6572206973206e6f7420746865206f776e6572604482015290519081900360640190fd5b610894856110ec565b61089d846110ec565b6108a6836110ec565b6108af826110ec565b6108b8816110ec565b600680546001600160a01b038088166001600160a01b03199283168117909355600780548883169084161790556008805487831690841617905560098054868316908416179055600a80549185169190921617905560408051918252517fb0c89119a7c10e4c2d02306921ba368ac83d0e4b302337916017485c2791bec59181900360200190a1604080516001600160a01b038616815290517fb0c89119a7c10e4c2d02306921ba368ac83d0e4b302337916017485c2791bec59181900360200190a1604080516001600160a01b038516815290517f41097dcc1f7cbd663d822443d7972f05b04f71918b30fe9fc59dd6e42e2280609181900360200190a1604080516001600160a01b038416815290517f5962f8af633c4df1ab230096f773a514ee5adf7785c621ecdcdb764cb7f6e3919181900360200190a1604080516001600160a01b038316815290517f8f6a6e7d20a3233e0a79883272259ffbd7a243734e397bc2b4642c79d7fa8a6d9181900360200190a1610a3761119f565b5050505050565b60045481565b6000610a4f82610e63565b92915050565b6000546001600160a01b031690565b6000546001600160a01b0316331490565b6000610a4f82610ed0565b670de0b6b3a764000081565b610a95816111e9565b3360009081526001602052604081205490808215610ac457610ab633610e63565b9150610ac133610ed0565b90505b610acd33610f13565b6000610adf848663ffffffff610dc716565b336000908152600160205260409020819055600254909150610b07908663ffffffff610dc716565b600281905560408051918252517f1fb085b6fe1998bfcd59bfb91fb9a84d3a3a8c63a97b2b5c43247235a5ca1df79181900360200190a16006546040805163f3a2568b60e01b81523360048201526024810188905290516001600160a01b039092169163f3a2568b9160448082019260009290919082900301818387803b158015610b9157600080fd5b505af1158015610ba5573d6000803e3d6000fd5b50506040805184815290513393507f39df0e5286a3ef2f42a0bf52f32cfe2c58e5b0405f47fe512f2c2439e4cfe20492509081900360200190a26040805183815260208101859052815133927ff744d34ca1cb25acfa4180df5f09a67306107110a9f4b6ed99bb3be259738215928290030190a28315610a37576007546040805163a9059cbb60e01b81523360048201526024810185905290516001600160a01b039092169163a9059cbb916044808201926020929091908290030181600087803b158015610c7357600080fd5b505af1158015610c87573d6000803e3d6000fd5b505050506040513d6020811015610c9d57600080fd5b50610a37905083610fdd565b600a546001600160a01b031681565b6009546001600160a01b031681565b6007546001600160a01b031681565b60035481565b6008546001600160a01b0316331461048b5760405162461bcd60e51b81526004018080602001828103825260218152602001806113e16021913960400191505060405180910390fd5b600082610d3457506000610a4f565b82820282848281610d4157fe5b0414610d7e5760405162461bcd60e51b815260040180806020018281038252602181526020018061139b6021913960400191505060405180910390fd5b9392505050565b6000610d7e83836040518060400160405280601a81526020017f536166654d6174683a206469766973696f6e206279207a65726f000000000000815250611228565b600082820183811015610d7e576040805162461bcd60e51b815260206004820152601b60248201527f536166654d6174683a206164646974696f6e206f766572666c6f770000000000604482015290519081900360640190fd5b60008111610e605760405162461bcd60e51b815260040180806020018281038252602c815260200180611349602c913960400191505060405180910390fd5b50565b6001600160a01b0381166000908152600560205260408120546003548290610ec890670de0b6b3a7640000906104d790610ea3908663ffffffff610f9b16565b6001600160a01b0388166000908152600160205260409020549063ffffffff610d2516565b949350505050565b6001600160a01b0381166000908152600560205260408120600101546004548290610ec890670de0b6b3a7640000906104d790610ea3908663ffffffff610f9b16565b600380546001600160a01b038316600081815260056020908152604091829020938455600454600190940184905593548151928352938201939093528083019190915290517f6b5cf27595af4428271524e0a5abd2b63f6fee1a61e31970490f5a10e257a1cd9181900360600190a150565b6000818310610f945781610d7e565b5090919050565b6000610d7e83836040518060400160405280601e81526020017f536166654d6174683a207375627472616374696f6e206f766572666c6f7700008152506112ca565b604051600090339083908381818185875af1925050503d806000811461101f576040519150601f19603f3d011682016040523d82523d6000602084013e611024565b606091505b50509050806110645760405162461bcd60e51b815260040180806020018281038252602f815260200180611402602f913960400191505060405180910390fd5b604080513381526020810184905281517f6109e2559dfa766aaec7118351d48a523f0a4157f49c8d68749c8ac41318ad12929181900390910190a15050565b6009546001600160a01b0316331461048b5760405162461bcd60e51b81526004018080602001828103825260268152602001806113756026913960400191505060405180910390fd5b6001600160a01b038116611147576040805162461bcd60e51b815260206004820152601e60248201527f4163636f756e742063616e6e6f74206265207a65726f20616464726573730000604482015290519081900360640190fd5b803b8061119b576040805162461bcd60e51b815260206004820181905260248201527f4163636f756e7420636f64652073697a652063616e6e6f74206265207a65726f604482015290519081900360640190fd5b5050565b600080546040516001600160a01b03909116907f8be0079c531659141344cd1fd0a4f28419497f9722a3daafe3b4186f6b6457e0908390a3600080546001600160a01b0319169055565b60008111610e605760405162461bcd60e51b81526004018080602001828103825260248152602001806113256024913960400191505060405180910390fd5b600081836112b45760405162461bcd60e51b81526004018080602001828103825283818151815260200191508051906020019080838360005b83811015611279578181015183820152602001611261565b50505050905090810190601f1680156112a65780820380516001836020036101000a031916815260200191505b509250505060405180910390fd5b5060008385816112c057fe5b0495945050505050565b6000818484111561131c5760405162461bcd60e51b8152602060048201818152835160248401528351909283926044909101919085019080838360008315611279578181015183820152602001611261565b50505090039056fe4c5154595374616b696e673a20416d6f756e74206d757374206265206e6f6e2d7a65726f4c5154595374616b696e673a2055736572206d75737420686176652061206e6f6e2d7a65726f207374616b654c5154595374616b696e673a2063616c6c6572206973206e6f7420426f72726f7765724f7073536166654d6174683a206d756c7469706c69636174696f6e206f766572666c6f774c5154595374616b696e673a2063616c6c6572206973206e6f7420416374697665506f6f6c4c5154595374616b696e673a2063616c6c6572206973206e6f742054726f76654d4c5154595374616b696e673a204661696c656420746f2073656e6420616363756d756c61746564204554484761696ea264697066735822122091434802539cc5d341e6385b5c1bb5fe8e848f6d2ecc206a59371e35325b041b64736f6c634300060b0033",
  "linkReferences": {},
  "deployedLinkReferences": {}
}