{
  "_format": "hh-sol-artifact-1",
  "contractName": "LQTYStakingTester",
  "sourceName": "contracts/TestContracts/LQTYStakingTester.sol",
  "abi": [
    {
      "anonymous": false,
      "inputs": [
        {
          "indexed": false,
          "internalType": "address",
          "name": "_activePoolAddress",
          "type": "address"
        }
      ],
      "name": "ActivePoolAddressSet",
      "type": "event"
    },
    {
      "anonymous": false,
      "inputs": [
        {
          "indexed": false,
          "internalType": "address",
          "name": "_borrowerOperationsAddress",
          "type": "address"
        }
      ],
      "name": "BorrowerOperationsAddressSet",
      "type": "event"
    },
    {
      "anonymous": false,
      "inputs": [
        {
          "indexed": false,
          "internalType": "address",
          "name": "_account",
          "type": "address"
        },
        {
          "indexed": false,
          "internalType": "uint256",
          "name": "_amount",
          "type": "uint256"
        }
      ],
      "name": "EtherSent",
      "type": "event"
    },
    {
      "anonymous": false,
      "inputs": [
        {
          "indexed": false,
          "internalType": "uint256",
          "name": "_F_ETH",
          "type": "uint256"
        }
      ],
      "name": "F_ETHUpdated",
      "type": "event"
    },
    {
      "anonymous": false,
      "inputs": [
        {
          "indexed": false,
          "internalType": "uint256",
          "name": "_F_LUSD",
          "type": "uint256"
        }
      ],
      "name": "F_LUSDUpdated",
      "type": "event"
    },
    {
      "anonymous": false,
      "inputs": [
        {
          "indexed": false,
          "internalType": "address",
          "name": "_lqtyTokenAddress",
          "type": "address"
        }
      ],
      "name": "LQTYTokenAddressSet",
      "type": "event"
    },
    {
      "anonymous": false,
      "inputs": [
        {
          "indexed": false,
          "internalType": "address",
          "name": "_lusdTokenAddress",
          "type": "address"
        }
      ],
      "name": "LUSDTokenAddressSet",
      "type": "event"
    },
    {
      "anonymous": false,
      "inputs": [
        {
          "indexed": true,
          "internalType": "address",
          "name": "previousOwner",
          "type": "address"
        },
        {
          "indexed": true,
          "internalType": "address",
          "name": "newOwner",
          "type": "address"
        }
      ],
      "name": "OwnershipTransferred",
      "type": "event"
    },
    {
      "anonymous": false,
      "inputs": [
        {
          "indexed": true,
          "internalType": "address",
          "name": "staker",
          "type": "address"
        },
        {
          "indexed": false,
          "internalType": "uint256",
          "name": "newStake",
          "type": "uint256"
        }
      ],
      "name": "StakeChanged",
      "type": "event"
    },
    {
      "anonymous": false,
      "inputs": [
        {
          "indexed": false,
          "internalType": "address",
          "name": "_staker",
          "type": "address"
        },
        {
          "indexed": false,
          "internalType": "uint256",
          "name": "_F_ETH",
          "type": "uint256"
        },
        {
          "indexed": false,
          "internalType": "uint256",
          "name": "_F_LUSD",
          "type": "uint256"
        }
      ],
      "name": "StakerSnapshotsUpdated",
      "type": "event"
    },
    {
      "anonymous": false,
      "inputs": [
        {
          "indexed": true,
          "internalType": "address",
          "name": "staker",
          "type": "address"
        },
        {
          "indexed": false,
          "internalType": "uint256",
          "name": "LUSDGain",
          "type": "uint256"
        },
        {
          "indexed": false,
          "internalType": "uint256",
          "name": "ETHGain",
          "type": "uint256"
        }
      ],
      "name": "StakingGainsWithdrawn",
      "type": "event"
    },
    {
      "anonymous": false,
      "inputs": [
        {
          "indexed": false,
          "internalType": "uint256",
          "name": "_totalLQTYStaked",
          "type": "uint256"
        }
      ],
      "name": "TotalLQTYStakedUpdated",
      "type": "event"
    },
    {
      "anonymous": false,
      "inputs": [
        {
          "indexed": false,
          "internalType": "address",
          "name": "_troveManager",
          "type": "address"
        }
      ],
      "name": "TroveManagerAddressSet",
      "type": "event"
    },
    {
      "inputs": [],
      "name": "DECIMAL_PRECISION",
      "outputs": [
        {
          "internalType": "uint256",
          "name": "",
          "type": "uint256"
        }
      ],
      "stateMutability": "view",
      "type": "function"
    },
    {
      "inputs": [],
      "name": "F_ETH",
      "outputs": [
        {
          "internalType": "uint256",
          "name": "",
          "type": "uint256"
        }
      ],
      "stateMutability": "view",
      "type": "function"
    },
    {
      "inputs": [],
      "name": "F_LUSD",
      "outputs": [
        {
          "internalType": "uint256",
          "name": "",
          "type": "uint256"
        }
      ],
      "stateMutability": "view",
      "type": "function"
    },
    {
      "inputs": [],
      "name": "NAME",
      "outputs": [
        {
          "internalType": "string",
          "name": "",
          "type": "string"
        }
      ],
      "stateMutability": "view",
      "type": "function"
    },
    {
      "inputs": [],
      "name": "activePoolAddress",
      "outputs": [
        {
          "internalType": "address",
          "name": "",
          "type": "address"
        }
      ],
      "stateMutability": "view",
      "type": "function"
    },
    {
      "inputs": [],
      "name": "borrowerOperationsAddress",
      "outputs": [
        {
          "internalType": "address",
          "name": "",
          "type": "address"
        }
      ],
      "stateMutability": "view",
      "type": "function"
    },
    {
      "inputs": [
        {
          "internalType": "address",
          "name": "_user",
          "type": "address"
        }
      ],
      "name": "getPendingETHGain",
      "outputs": [
        {
          "internalType": "uint256",
          "name": "",
          "type": "uint256"
        }
      ],
      "stateMutability": "view",
      "type": "function"
    },
    {
      "inputs": [
        {
          "internalType": "address",
          "name": "_user",
          "type": "address"
        }
      ],
      "name": "getPendingLUSDGain",
      "outputs": [
        {
          "internalType": "uint256",
          "name": "",
          "type": "uint256"
        }
      ],
      "stateMutability": "view",
      "type": "function"
    },
    {
      "inputs": [
        {
          "internalType": "uint256",
          "name": "_ETHFee",
          "type": "uint256"
        }
      ],
      "name": "increaseF_ETH",
      "outputs": [],
      "stateMutability": "nonpayable",
      "type": "function"
    },
    {
      "inputs": [
        {
          "internalType": "uint256",
          "name": "_LUSDFee",
          "type": "uint256"
        }
      ],
      "name": "increaseF_LUSD",
      "outputs": [],
      "stateMutability": "nonpayable",
      "type": "function"
    },
    {
      "inputs": [],
      "name": "isOwner",
      "outputs": [
        {
          "internalType": "bool",
          "name": "",
          "type": "bool"
        }
      ],
      "stateMutability": "view",
      "type": "function"
    },
    {
      "inputs": [],
      "name": "lqtyToken",
      "outputs": [
        {
          "internalType": "contract ILQTYToken",
          "name": "",
          "type": "address"
        }
      ],
      "stateMutability": "view",
      "type": "function"
    },
    {
      "inputs": [],
      "name": "lusdToken",
      "outputs": [
        {
          "internalType": "contract ILUSDToken",
          "name": "",
          "type": "address"
        }
      ],
      "stateMutability": "view",
      "type": "function"
    },
    {
      "inputs": [],
      "name": "owner",
      "outputs": [
        {
          "internalType": "address",
          "name": "",
          "type": "address"
        }
      ],
      "stateMutability": "view",
      "type": "function"
    },
    {
      "inputs": [],
      "name": "requireCallerIsTroveManager",
      "outputs": [],
      "stateMutability": "view",
      "type": "function"
    },
    {
      "inputs": [
        {
          "internalType": "address",
          "name": "_lqtyTokenAddress",
          "type": "address"
        },
        {
          "internalType": "address",
          "name": "_lusdTokenAddress",
          "type": "address"
        },
        {
          "internalType": "address",
          "name": "_troveManagerAddress",
          "type": "address"
        },
        {
          "internalType": "address",
          "name": "_borrowerOperationsAddress",
          "type": "address"
        },
        {
          "internalType": "address",
          "name": "_activePoolAddress",
          "type": "address"
        }
      ],
      "name": "setAddresses",
      "outputs": [],
      "stateMutability": "nonpayable",
      "type": "function"
    },
    {
      "inputs": [
        {
          "internalType": "address",
          "name": "",
          "type": "address"
        }
      ],
      "name": "snapshots",
      "outputs": [
        {
          "internalType": "uint256",
          "name": "F_ETH_Snapshot",
          "type": "uint256"
        },
        {
          "internalType": "uint256",
          "name": "F_LUSD_Snapshot",
          "type": "uint256"
        }
      ],
      "stateMutability": "view",
      "type": "function"
    },
    {
      "inputs": [
        {
          "internalType": "uint256",
          "name": "_LQTYamount",
          "type": "uint256"
        }
      ],
      "name": "stake",
      "outputs": [],
      "stateMutability": "nonpayable",
      "type": "function"
    },
    {
      "inputs": [
        {
          "internalType": "address",
          "name": "",
          "type": "address"
        }
      ],
      "name": "stakes",
      "outputs": [
        {
          "internalType": "uint256",
          "name": "",
          "type": "uint256"
        }
      ],
      "stateMutability": "view",
      "type": "function"
    },
    {
      "inputs": [],
      "name": "totalLQTYStaked",
      "outputs": [
        {
          "internalType": "uint256",
          "name": "",
          "type": "uint256"
        }
      ],
      "stateMutability": "view",
      "type": "function"
    },
    {
      "inputs": [],
      "name": "troveManagerAddress",
      "outputs": [
        {
          "internalType": "address",
          "name": "",
          "type": "address"
        }
      ],
      "stateMutability": "view",
      "type": "function"
    },
    {
      "inputs": [
        {
          "internalType": "uint256",
          "name": "_LQTYamount",
          "type": "uint256"
        }
      ],
      "name": "unstake",
      "outputs": [],
      "stateMutability": "nonpayable",
      "type": "function"
    },
    {
      "stateMutability": "payable",
      "type": "receive"
    }
  ],
  "bytecode": "0x608060405234801561001057600080fd5b50600080546001600160a01b0319163390811782556040519091907f8be0079c531659141344cd1fd0a4f28419497f9722a3daafe3b4186f6b6457e0908290a36115468061005f6000396000f3fe6080604052600436106101395760003560e01c80638b9345ad116100ab578063a3f4df7e1161006f578063a3f4df7e146103ef578063a694fc3a14610479578063b08bc722146104a3578063b7f8cf9b146104b8578063b83f91a2146104cd578063b9bbe00f146104e257610148565b80638b9345ad146103365780638da5cb5b146103695780638f32d59b1461037e5780639beab5c0146103a7578063a20baee6146103da57610148565b806334b3081f116100fd57806334b3081f1461022c5780633b95b91d146102785780634677ffb31461028d5780635a4d28bb146102b75780635dd68acd146102cc57806369b831851461032157610148565b8063077ee4c61461014d57806316934fc4146101745780631e3e2a1a146101a75780631f7af3c3146101d15780632e17de781461020257610148565b36610148576101466104f7565b005b600080fd5b34801561015957600080fd5b50610162610542565b60408051918252519081900360200190f35b34801561018057600080fd5b506101626004803603602081101561019757600080fd5b50356001600160a01b0316610548565b3480156101b357600080fd5b50610146600480360360208110156101ca57600080fd5b503561055a565b3480156101dd57600080fd5b506101e66105e9565b604080516001600160a01b039092168252519081900360200190f35b34801561020e57600080fd5b506101466004803603602081101561022557600080fd5b50356105f8565b34801561023857600080fd5b5061025f6004803603602081101561024f57600080fd5b50356001600160a01b031661083c565b6040805192835260208301919091528051918290030190f35b34801561028457600080fd5b50610146610855565b34801561029957600080fd5b50610146600480360360208110156102b057600080fd5b503561085d565b3480156102c357600080fd5b506101e66108e0565b3480156102d857600080fd5b50610146600480360360a08110156102ef57600080fd5b506001600160a01b038135811691602081013582169160408201358116916060810135821691608090910135166108ef565b34801561032d57600080fd5b50610162610afb565b34801561034257600080fd5b506101626004803603602081101561035957600080fd5b50356001600160a01b0316610b01565b34801561037557600080fd5b506101e6610b12565b34801561038a57600080fd5b50610393610b21565b604080519115158252519081900360200190f35b3480156103b357600080fd5b50610162600480360360208110156103ca57600080fd5b50356001600160a01b0316610b32565b3480156103e657600080fd5b50610162610b3d565b3480156103fb57600080fd5b50610404610b49565b6040805160208082528351818301528351919283929083019185019080838360005b8381101561043e578181015183820152602001610426565b50505050905090810190601f16801561046b5780820380516001836020036101000a031916815260200191505b509250505060405180910390f35b34801561048557600080fd5b506101466004803603602081101561049c57600080fd5b5035610b70565b3480156104af57600080fd5b506101e6610d8d565b3480156104c457600080fd5b506101e6610d9c565b3480156104d957600080fd5b506101e6610dab565b3480156104ee57600080fd5b50610162610dba565b600a546001600160a01b031633146105405760405162461bcd60e51b815260040180806020018281038252602581526020018061149c6025913960400191505060405180910390fd5b565b60025481565b60016020526000908152604090205481565b610562610dc0565b6002546000901561059b576002546105989061058c84670de0b6b3a764000063ffffffff610e0916565b9063ffffffff610e6916565b90505b6003546105ae908263ffffffff610eab16565b600381905560408051918252517f4c56a0cf74da9899410b818edf6758c8af9b7b3070da97d2dcb6a5b1bf96317e9181900360200190a15050565b6006546001600160a01b031681565b3360009081526001602052604090205461061181610f05565b600061061c33610f47565b9050600061062933610fb4565b905061063433610ff7565b83156107725760006106468585611069565b9050600061065a858363ffffffff61107f16565b336000908152600160205260409020819055600254909150610682908363ffffffff61107f16565b600281905560408051918252517f1fb085b6fe1998bfcd59bfb91fb9a84d3a3a8c63a97b2b5c43247235a5ca1df79181900360200190a16006546040805163a9059cbb60e01b81523360048201526024810185905290516001600160a01b039092169163a9059cbb916044808201926020929091908290030181600087803b15801561070d57600080fd5b505af1158015610721573d6000803e3d6000fd5b505050506040513d602081101561073757600080fd5b505060408051828152905133917f39df0e5286a3ef2f42a0bf52f32cfe2c58e5b0405f47fe512f2c2439e4cfe204919081900360200190a250505b6040805182815260208101849052815133927ff744d34ca1cb25acfa4180df5f09a67306107110a9f4b6ed99bb3be259738215928290030190a26007546040805163a9059cbb60e01b81523360048201526024810184905290516001600160a01b039092169163a9059cbb916044808201926020929091908290030181600087803b15801561080057600080fd5b505af1158015610814573d6000803e3d6000fd5b505050506040513d602081101561082a57600080fd5b506108369050826110c1565b50505050565b6005602052600090815260409020805460019091015482565b610540610dc0565b610865611187565b600254600090156108925760025461088f9061058c84670de0b6b3a764000063ffffffff610e0916565b90505b6004546108a5908263ffffffff610eab16565b600481905560408051918252517fdc043c079acfe2ef669592e1598aa8f95877fa0ba0e91d06c214a9f73d3521f99181900360200190a15050565b6008546001600160a01b031681565b6108f7610b21565b610948576040805162461bcd60e51b815260206004820181905260248201527f4f776e61626c653a2063616c6c6572206973206e6f7420746865206f776e6572604482015290519081900360640190fd5b610951856111d0565b61095a846111d0565b610963836111d0565b61096c826111d0565b610975816111d0565b600680546001600160a01b038088166001600160a01b03199283168117909355600780548883169084161790556008805487831690841617905560098054868316908416179055600a80549185169190921617905560408051918252517fb0c89119a7c10e4c2d02306921ba368ac83d0e4b302337916017485c2791bec59181900360200190a1604080516001600160a01b038616815290517fb0c89119a7c10e4c2d02306921ba368ac83d0e4b302337916017485c2791bec59181900360200190a1604080516001600160a01b038516815290517f41097dcc1f7cbd663d822443d7972f05b04f71918b30fe9fc59dd6e42e2280609181900360200190a1604080516001600160a01b038416815290517f5962f8af633c4df1ab230096f773a514ee5adf7785c621ecdcdb764cb7f6e3919181900360200190a1604080516001600160a01b038316815290517f8f6a6e7d20a3233e0a79883272259ffbd7a243734e397bc2b4642c79d7fa8a6d9181900360200190a1610af461127f565b5050505050565b60045481565b6000610b0c82610f47565b92915050565b6000546001600160a01b031690565b6000546001600160a01b0316331490565b6000610b0c82610fb4565b670de0b6b3a764000081565b6040518060400160405280600b81526020016a4c5154595374616b696e6760a81b81525081565b610b79816112c9565b3360009081526001602052604081205490808215610ba857610b9a33610f47565b9150610ba533610fb4565b90505b610bb133610ff7565b6000610bc3848663ffffffff610eab16565b336000908152600160205260409020819055600254909150610beb908663ffffffff610eab16565b600281905560408051918252517f1fb085b6fe1998bfcd59bfb91fb9a84d3a3a8c63a97b2b5c43247235a5ca1df79181900360200190a16006546040805163f3a2568b60e01b81523360048201526024810188905290516001600160a01b039092169163f3a2568b9160448082019260009290919082900301818387803b158015610c7557600080fd5b505af1158015610c89573d6000803e3d6000fd5b50506040805184815290513393507f39df0e5286a3ef2f42a0bf52f32cfe2c58e5b0405f47fe512f2c2439e4cfe20492509081900360200190a26040805183815260208101859052815133927ff744d34ca1cb25acfa4180df5f09a67306107110a9f4b6ed99bb3be259738215928290030190a28315610af4576007546040805163a9059cbb60e01b81523360048201526024810185905290516001600160a01b039092169163a9059cbb916044808201926020929091908290030181600087803b158015610d5757600080fd5b505af1158015610d6b573d6000803e3d6000fd5b505050506040513d6020811015610d8157600080fd5b50610af49050836110c1565b600a546001600160a01b031681565b6009546001600160a01b031681565b6007546001600160a01b031681565b60035481565b6008546001600160a01b031633146105405760405162461bcd60e51b81526004018080602001828103825260218152602001806114c16021913960400191505060405180910390fd5b600082610e1857506000610b0c565b82820282848281610e2557fe5b0414610e625760405162461bcd60e51b815260040180806020018281038252602181526020018061147b6021913960400191505060405180910390fd5b9392505050565b6000610e6283836040518060400160405280601a81526020017f536166654d6174683a206469766973696f6e206279207a65726f000000000000815250611308565b600082820183811015610e62576040805162461bcd60e51b815260206004820152601b60248201527f536166654d6174683a206164646974696f6e206f766572666c6f770000000000604482015290519081900360640190fd5b60008111610f445760405162461bcd60e51b815260040180806020018281038252602c815260200180611429602c913960400191505060405180910390fd5b50565b6001600160a01b0381166000908152600560205260408120546003548290610fac90670de0b6b3a76400009061058c90610f87908663ffffffff61107f16565b6001600160a01b0388166000908152600160205260409020549063ffffffff610e0916565b949350505050565b6001600160a01b0381166000908152600560205260408120600101546004548290610fac90670de0b6b3a76400009061058c90610f87908663ffffffff61107f16565b600380546001600160a01b038316600081815260056020908152604091829020938455600454600190940184905593548151928352938201939093528083019190915290517f6b5cf27595af4428271524e0a5abd2b63f6fee1a61e31970490f5a10e257a1cd9181900360600190a150565b60008183106110785781610e62565b5090919050565b6000610e6283836040518060400160405280601e81526020017f536166654d6174683a207375627472616374696f6e206f766572666c6f7700008152506113aa565b604080513381526020810183905281517f6109e2559dfa766aaec7118351d48a523f0a4157f49c8d68749c8ac41318ad12929181900390910190a1604051600090339083908381818185875af1925050503d806000811461113e576040519150601f19603f3d011682016040523d82523d6000602084013e611143565b606091505b50509050806111835760405162461bcd60e51b815260040180806020018281038252602f8152602001806114e2602f913960400191505060405180910390fd5b5050565b6009546001600160a01b031633146105405760405162461bcd60e51b81526004018080602001828103825260268152602001806114556026913960400191505060405180910390fd5b6001600160a01b03811661122b576040805162461bcd60e51b815260206004820152601e60248201527f4163636f756e742063616e6e6f74206265207a65726f20616464726573730000604482015290519081900360640190fd5b803b80611183576040805162461bcd60e51b815260206004820181905260248201527f4163636f756e7420636f64652073697a652063616e6e6f74206265207a65726f604482015290519081900360640190fd5b600080546040516001600160a01b03909116907f8be0079c531659141344cd1fd0a4f28419497f9722a3daafe3b4186f6b6457e0908390a3600080546001600160a01b0319169055565b60008111610f445760405162461bcd60e51b81526004018080602001828103825260248152602001806114056024913960400191505060405180910390fd5b600081836113945760405162461bcd60e51b81526004018080602001828103825283818151815260200191508051906020019080838360005b83811015611359578181015183820152602001611341565b50505050905090810190601f1680156113865780820380516001836020036101000a031916815260200191505b509250505060405180910390fd5b5060008385816113a057fe5b0495945050505050565b600081848411156113fc5760405162461bcd60e51b8152602060048201818152835160248401528351909283926044909101919085019080838360008315611359578181015183820152602001611341565b50505090039056fe4c5154595374616b696e673a20416d6f756e74206d757374206265206e6f6e2d7a65726f4c5154595374616b696e673a2055736572206d75737420686176652061206e6f6e2d7a65726f207374616b654c5154595374616b696e673a2063616c6c6572206973206e6f7420426f72726f7765724f7073536166654d6174683a206d756c7469706c69636174696f6e206f766572666c6f774c5154595374616b696e673a2063616c6c6572206973206e6f7420416374697665506f6f6c4c5154595374616b696e673a2063616c6c6572206973206e6f742054726f76654d4c5154595374616b696e673a204661696c656420746f2073656e6420616363756d756c61746564204554484761696ea2646970667358221220621387617a854c6e6d7f9ddefdaa7571b4f72c31f8a87a6af841cce1a07ce1e464736f6c634300060b0033",
  "linkReferences": {},
  "deployedLinkReferences": {}
}