{
  "_format": "hh-sol-artifact-1",
  "contractName": "LQTYToken",
  "sourceName": "contracts/LQTY/LQTYToken.sol",
  "abi": [
    {
      "inputs": [
        {
          "internalType": "address",
          "name": "_communityIssuanceAddress",
          "type": "address"
        },
        {
          "internalType": "address",
          "name": "_lqtyStakingAddress",
          "type": "address"
        },
        {
          "internalType": "address",
          "name": "_lockupFactoryAddress",
          "type": "address"
        },
        {
          "internalType": "address",
          "name": "_bountyAddress",
          "type": "address"
        },
        {
          "internalType": "address",
          "name": "_lpRewardsAddress",
          "type": "address"
        }
      ],
      "stateMutability": "nonpayable",
      "type": "constructor"
    },
    {
      "anonymous": false,
      "inputs": [
        {
          "indexed": true,
          "internalType": "address",
          "name": "owner",
          "type": "address"
        },
        {
          "indexed": true,
          "internalType": "address",
          "name": "spender",
          "type": "address"
        },
        {
          "indexed": false,
          "internalType": "uint256",
          "name": "value",
          "type": "uint256"
        }
      ],
      "name": "Approval",
      "type": "event"
    },
    {
      "anonymous": false,
      "inputs": [
        {
          "indexed": false,
          "internalType": "address",
          "name": "_communityIssuanceAddress",
          "type": "address"
        }
      ],
      "name": "CommunityIssuanceAddressSet",
      "type": "event"
    },
    {
      "anonymous": false,
      "inputs": [
        {
          "indexed": false,
          "internalType": "address",
          "name": "_lqtyStakingAddress",
          "type": "address"
        }
      ],
      "name": "LQTYStakingAddressSet",
      "type": "event"
    },
    {
      "anonymous": false,
      "inputs": [
        {
          "indexed": false,
          "internalType": "address",
          "name": "_lockupContractFactoryAddress",
          "type": "address"
        }
      ],
      "name": "LockupContractFactoryAddressSet",
      "type": "event"
    },
    {
      "anonymous": false,
      "inputs": [
        {
          "indexed": true,
          "internalType": "address",
          "name": "from",
          "type": "address"
        },
        {
          "indexed": true,
          "internalType": "address",
          "name": "to",
          "type": "address"
        },
        {
          "indexed": false,
          "internalType": "uint256",
          "name": "value",
          "type": "uint256"
        }
      ],
      "name": "Transfer",
      "type": "event"
    },
    {
      "inputs": [],
      "name": "ONE_YEAR_IN_SECONDS",
      "outputs": [
        {
          "internalType": "uint256",
          "name": "",
          "type": "uint256"
        }
      ],
      "stateMutability": "view",
      "type": "function"
    },
    {
      "inputs": [
        {
          "internalType": "address",
          "name": "owner",
          "type": "address"
        },
        {
          "internalType": "address",
          "name": "spender",
          "type": "address"
        }
      ],
      "name": "allowance",
      "outputs": [
        {
          "internalType": "uint256",
          "name": "",
          "type": "uint256"
        }
      ],
      "stateMutability": "view",
      "type": "function"
    },
    {
      "inputs": [
        {
          "internalType": "address",
          "name": "spender",
          "type": "address"
        },
        {
          "internalType": "uint256",
          "name": "amount",
          "type": "uint256"
        }
      ],
      "name": "approve",
      "outputs": [
        {
          "internalType": "bool",
          "name": "",
          "type": "bool"
        }
      ],
      "stateMutability": "nonpayable",
      "type": "function"
    },
    {
      "inputs": [
        {
          "internalType": "address",
          "name": "account",
          "type": "address"
        }
      ],
      "name": "balanceOf",
      "outputs": [
        {
          "internalType": "uint256",
          "name": "",
          "type": "uint256"
        }
      ],
      "stateMutability": "view",
      "type": "function"
    },
    {
      "inputs": [],
      "name": "communityIssuanceAddress",
      "outputs": [
        {
          "internalType": "address",
          "name": "",
          "type": "address"
        }
      ],
      "stateMutability": "view",
      "type": "function"
    },
    {
      "inputs": [],
      "name": "decimals",
      "outputs": [
        {
          "internalType": "uint8",
          "name": "",
          "type": "uint8"
        }
      ],
      "stateMutability": "view",
      "type": "function"
    },
    {
      "inputs": [
        {
          "internalType": "address",
          "name": "spender",
          "type": "address"
        },
        {
          "internalType": "uint256",
          "name": "subtractedValue",
          "type": "uint256"
        }
      ],
      "name": "decreaseAllowance",
      "outputs": [
        {
          "internalType": "bool",
          "name": "",
          "type": "bool"
        }
      ],
      "stateMutability": "nonpayable",
      "type": "function"
    },
    {
      "inputs": [],
      "name": "deployer",
      "outputs": [
        {
          "internalType": "address",
          "name": "",
          "type": "address"
        }
      ],
      "stateMutability": "view",
      "type": "function"
    },
    {
      "inputs": [],
      "name": "domainSeparator",
      "outputs": [
        {
          "internalType": "bytes32",
          "name": "",
          "type": "bytes32"
        }
      ],
      "stateMutability": "view",
      "type": "function"
    },
    {
      "inputs": [],
      "name": "getDeploymentStartTime",
      "outputs": [
        {
          "internalType": "uint256",
          "name": "",
          "type": "uint256"
        }
      ],
      "stateMutability": "view",
      "type": "function"
    },
    {
      "inputs": [
        {
          "internalType": "address",
          "name": "spender",
          "type": "address"
        },
        {
          "internalType": "uint256",
          "name": "addedValue",
          "type": "uint256"
        }
      ],
      "name": "increaseAllowance",
      "outputs": [
        {
          "internalType": "bool",
          "name": "",
          "type": "bool"
        }
      ],
      "stateMutability": "nonpayable",
      "type": "function"
    },
    {
      "inputs": [],
      "name": "lockupContractFactory",
      "outputs": [
        {
          "internalType": "contract ILockupContractFactory",
          "name": "",
          "type": "address"
        }
      ],
      "stateMutability": "view",
      "type": "function"
    },
    {
      "inputs": [],
      "name": "lqtyStakingAddress",
      "outputs": [
        {
          "internalType": "address",
          "name": "",
          "type": "address"
        }
      ],
      "stateMutability": "view",
      "type": "function"
    },
    {
      "inputs": [],
      "name": "name",
      "outputs": [
        {
          "internalType": "string",
          "name": "",
          "type": "string"
        }
      ],
      "stateMutability": "view",
      "type": "function"
    },
    {
      "inputs": [
        {
          "internalType": "address",
          "name": "owner",
          "type": "address"
        }
      ],
      "name": "nonces",
      "outputs": [
        {
          "internalType": "uint256",
          "name": "",
          "type": "uint256"
        }
      ],
      "stateMutability": "view",
      "type": "function"
    },
    {
      "inputs": [
        {
          "internalType": "address",
          "name": "owner",
          "type": "address"
        },
        {
          "internalType": "address",
          "name": "spender",
          "type": "address"
        },
        {
          "internalType": "uint256",
          "name": "amount",
          "type": "uint256"
        },
        {
          "internalType": "uint256",
          "name": "deadline",
          "type": "uint256"
        },
        {
          "internalType": "uint8",
          "name": "v",
          "type": "uint8"
        },
        {
          "internalType": "bytes32",
          "name": "r",
          "type": "bytes32"
        },
        {
          "internalType": "bytes32",
          "name": "s",
          "type": "bytes32"
        }
      ],
      "name": "permit",
      "outputs": [],
      "stateMutability": "nonpayable",
      "type": "function"
    },
    {
      "inputs": [],
      "name": "permitTypeHash",
      "outputs": [
        {
          "internalType": "bytes32",
          "name": "",
          "type": "bytes32"
        }
      ],
      "stateMutability": "view",
      "type": "function"
    },
    {
      "inputs": [
        {
          "internalType": "address",
          "name": "_sender",
          "type": "address"
        },
        {
          "internalType": "uint256",
          "name": "_amount",
          "type": "uint256"
        }
      ],
      "name": "sendToLQTYStaking",
      "outputs": [],
      "stateMutability": "nonpayable",
      "type": "function"
    },
    {
      "inputs": [],
      "name": "symbol",
      "outputs": [
        {
          "internalType": "string",
          "name": "",
          "type": "string"
        }
      ],
      "stateMutability": "view",
      "type": "function"
    },
    {
      "inputs": [],
      "name": "totalSupply",
      "outputs": [
        {
          "internalType": "uint256",
          "name": "",
          "type": "uint256"
        }
      ],
      "stateMutability": "view",
      "type": "function"
    },
    {
      "inputs": [
        {
          "internalType": "address",
          "name": "recipient",
          "type": "address"
        },
        {
          "internalType": "uint256",
          "name": "amount",
          "type": "uint256"
        }
      ],
      "name": "transfer",
      "outputs": [
        {
          "internalType": "bool",
          "name": "",
          "type": "bool"
        }
      ],
      "stateMutability": "nonpayable",
      "type": "function"
    },
    {
      "inputs": [
        {
          "internalType": "address",
          "name": "sender",
          "type": "address"
        },
        {
          "internalType": "address",
          "name": "recipient",
          "type": "address"
        },
        {
          "internalType": "uint256",
          "name": "amount",
          "type": "uint256"
        }
      ],
      "name": "transferFrom",
      "outputs": [
        {
          "internalType": "bool",
          "name": "",
          "type": "bool"
        }
      ],
      "stateMutability": "nonpayable",
      "type": "function"
    },
    {
      "inputs": [],
      "name": "version",
      "outputs": [
        {
          "internalType": "string",
          "name": "",
          "type": "string"
        }
      ],
      "stateMutability": "view",
      "type": "function"
    }
  ],
  "bytecode": "0x6101a060405269d3c21bcecceda10000006004553480156200002057600080fd5b5060405162001dbd38038062001dbd833981810160405260a08110156200004657600080fd5b5080516020820151604083015160608401516080909401519293919290919062000079856001600160e01b03620002cd16565b6200008d846001600160e01b03620002cd16565b620000a1836001600160e01b03620002cd16565b33606090811b6101205242610100526001600160601b031986821b81166101405285821b8116610160529084901b166101805260408051808201825260048152634c51545960e01b602091820152815180830190925260018252603160f81b9101527f3a81c10f33bb8529c37240b8a654b1c488a9f8c7e205411c4bef216f3581304760c08190527fc89efdaa54c0f20c7adf612882df0950f5a951637e0307cdcb4c672f298b8bc660e0819052620001626001600160e01b036200038216565b60a0526200019b7f8b73c3c69bb8fe3d512ecc4cf759cc79239f7b179b0ffacaa9a75d522b39400f83836001600160e01b036200038616565b608081815250506000620001c16003600454620003e760201b62000aa11790919060201c565b9050620001d885826001600160e01b036200044e16565b6000620001f76019600454620003e760201b62000aa11790919060201c565b90506200020e89826001600160e01b036200044e16565b600062000260826200024c6003620002386064600454620003e760201b62000aa11790919060201c565b6200054f60201b62000b011790919060201c565b6200059960201b62000b431790919060201c565b90506200027786826001600160e01b036200044e16565b6000620002a5826200024c856200024c886200024c6064600454620003e760201b62000aa11790919060201c565b9050620002bc33826001600160e01b036200044e16565b505050505050505050505062000742565b6001600160a01b03811662000329576040805162461bcd60e51b815260206004820152601e60248201527f4163636f756e742063616e6e6f74206265207a65726f20616464726573730000604482015290519081900360640190fd5b803b806200037e576040805162461bcd60e51b815260206004820181905260248201527f4163636f756e7420636f64652073697a652063616e6e6f74206265207a65726f604482015290519081900360640190fd5b5050565b4690565b60008383836200039e6001600160e01b036200038216565b6040805160208082019690965280820194909452606084019290925260808301523060a0808401919091528151808403909101815260c090920190528051910120949350505050565b600082620003f85750600062000448565b828202828482816200040657fe5b0414620004455760405162461bcd60e51b815260040180806020018281038252602181526020018062001d9c6021913960400191505060405180910390fd5b90505b92915050565b6001600160a01b038216620004aa576040805162461bcd60e51b815260206004820152601f60248201527f45524332303a206d696e7420746f20746865207a65726f206164647265737300604482015290519081900360640190fd5b620004c681600254620005e360201b62000b851790919060201c565b6002556001600160a01b03821660009081526020818152604090912054620004f991839062000b85620005e3821b17901c565b6001600160a01b0383166000818152602081815260408083209490945583518581529351929391927fddf252ad1be2c89b69c2b068fc378daa952ba7f163c4a11628f55a4df523b3ef9281900390910190a35050565b60006200044583836040518060400160405280601a81526020017f536166654d6174683a206469766973696f6e206279207a65726f0000000000008152506200063e60201b60201c565b60006200044583836040518060400160405280601e81526020017f536166654d6174683a207375627472616374696f6e206f766572666c6f770000815250620006e560201b60201c565b60008282018381101562000445576040805162461bcd60e51b815260206004820152601b60248201527f536166654d6174683a206164646974696f6e206f766572666c6f770000000000604482015290519081900360640190fd5b60008183620006ce5760405162461bcd60e51b81526004018080602001828103825283818151815260200191508051906020019080838360005b838110156200069257818101518382015260200162000678565b50505050905090810190601f168015620006c05780820380516001836020036101000a031916815260200191505b509250505060405180910390fd5b506000838581620006db57fe5b0495945050505050565b600081848411156200073a5760405162461bcd60e51b81526020600482018181528351602484015283519092839260449091019190850190808383600083156200069257818101518382015260200162000678565b505050900390565b60805160a05160c05160e051610100516101205160601c6101405160601c6101605160601c6101805160601c6115be620007de6000398061065352806110f152508061061452806109ae5280610e5d52806111d75250806109355280610e205250806109115280610d5052806110cb5250806105ba5280610bec525080610a76525080610a555250806109db525080610a0b52506115be6000f3fe608060405234801561001057600080fd5b506004361061014d5760003560e01c80637ecebe00116100c3578063d5f394881161007c578063d5f39488146103e4578063d874ea74146103ec578063dd62ed3e146103f4578063e7c8fed414610422578063f3a2568b1461042a578063f698da25146104565761014d565b80637ecebe001461030b578063811c5b4d1461033157806395d89b4114610152578063a457c2d714610339578063a9059cbb14610365578063d505accf146103915761014d565b8063313ce56711610115578063313ce5671461026757806339509351146102855780633c84b7c2146102b157806354fd4d50146102b957806370a08231146102c1578063761ab22c146102e75761014d565b806306fdde0314610152578063095ea7b3146101cf57806310ce43bd1461020f57806318160ddd1461022957806323b872dd14610231575b600080fd5b61015a61045e565b6040805160208082528351818301528351919283929083019185019080838360005b8381101561019457818101518382015260200161017c565b50505050905090810190601f1680156101c15780820380516001836020036101000a031916815260200191505b509250505060405180910390f35b6101fb600480360360408110156101e557600080fd5b506001600160a01b03813516906020013561047d565b604080519115158252519081900360200190f35b6102176104a9565b60408051918252519081900360200190f35b6102176104cd565b6101fb6004803603606081101561024757600080fd5b506001600160a01b038135811691602081013590911690604001356104d3565b61026f610561565b6040805160ff9092168252519081900360200190f35b6101fb6004803603604081101561029b57600080fd5b506001600160a01b038135169060200135610566565b6102176105b8565b61015a6105dc565b610217600480360360208110156102d757600080fd5b50356001600160a01b03166105f7565b6102ef610612565b604080516001600160a01b039092168252519081900360200190f35b6102176004803603602081101561032157600080fd5b50356001600160a01b0316610636565b6102ef610651565b6101fb6004803603604081101561034f57600080fd5b506001600160a01b038135169060200135610675565b6101fb6004803603604081101561037b57600080fd5b506001600160a01b0381351690602001356106df565b6103e2600480360360e08110156103a757600080fd5b506001600160a01b03813581169160208101359091169060408101359060608101359060ff6080820135169060a08101359060c0013561071a565b005b6102ef61090f565b6102ef610933565b6102176004803603604081101561040a57600080fd5b506001600160a01b0381358116916020013516610957565b610217610982565b6103e26004803603604081101561044057600080fd5b506001600160a01b03813516906020013561098a565b6102176109d7565b6040805180820190915260048152634c51545960e01b60208201525b90565b6000610487610bdf565b1561049457610494610c1c565b61049f338484610c62565b5060015b92915050565b7f6e71edae12b1b97f4d1f60370fef10105fa2faae0126114a169c64845d6126c990565b60025490565b60006104dd610bdf565b156104eb576104eb84610d4e565b6104f483610dc2565b6104ff848484610ecd565b6105578433610552856040518060600160405280602881526020016113d3602891396001600160a01b038a166000908152600160209081526040808320338452909152902054919063ffffffff61102916565b610c62565b5060019392505050565b601290565b6000610570610bdf565b1561057d5761057d610c1c565b3360008181526001602090815260408083206001600160a01b038816845290915290205461049f91908590610552908663ffffffff610b8516565b7f000000000000000000000000000000000000000000000000000000000000000090565b6040805180820190915260018152603160f81b602082015290565b6001600160a01b031660009081526020819052604090205490565b7f000000000000000000000000000000000000000000000000000000000000000081565b6001600160a01b031660009081526003602052604090205490565b7f000000000000000000000000000000000000000000000000000000000000000081565b600061067f610bdf565b1561068c5761068c610c1c565b61049f338461055285604051806060016040528060258152602001611564602591393360009081526001602090815260408083206001600160a01b038d168452909152902054919063ffffffff61102916565b60006106e96110c0565b80156106f857506106f8610bdf565b1561070657610706836110ef565b61070f83610dc2565b61049f338484610ecd565b42841015610768576040805162461bcd60e51b81526020600482015260166024820152754c5154593a206578706972656420646561646c696e6560501b604482015290519081900360640190fd5b60006107726109d7565b6001600160a01b03808a1660008181526003602090815260408083208054600180820190925582517f6e71edae12b1b97f4d1f60370fef10105fa2faae0126114a169c64845d6126c98186015280840196909652958e166060860152608085018d905260a085019590955260c08085018c90528151808603909101815260e08501825280519083012061190160f01b6101008601526101028501969096526101228085019690965280518085039096018652610142840180825286519683019690962095839052610162840180825286905260ff8a166101828501526101a284018990526101c284018890525194955090936101e280840193601f198301929081900390910190855afa15801561088d573d6000803e3d6000fd5b505050602060405103519050886001600160a01b0316816001600160a01b0316146108f9576040805162461bcd60e51b81526020600482015260176024820152764c5154593a20696e76616c6964207369676e617475726560481b604482015290519081900360640190fd5b610904898989610c62565b505050505050505050565b7f000000000000000000000000000000000000000000000000000000000000000081565b7f000000000000000000000000000000000000000000000000000000000000000081565b6001600160a01b03918216600090815260016020908152604080832093909416825291909152205490565b6301e1338081565b6109926111cc565b61099a610bdf565b156109a8576109a882610d4e565b6109d3827f000000000000000000000000000000000000000000000000000000000000000083610ecd565b5050565b60007f0000000000000000000000000000000000000000000000000000000000000000610a02611233565b1415610a2f57507f000000000000000000000000000000000000000000000000000000000000000061047a565b610a9a7f8b73c3c69bb8fe3d512ecc4cf759cc79239f7b179b0ffacaa9a75d522b39400f7f00000000000000000000000000000000000000000000000000000000000000007f0000000000000000000000000000000000000000000000000000000000000000611237565b905061047a565b600082610ab0575060006104a3565b82820282848281610abd57fe5b0414610afa5760405162461bcd60e51b81526004018080602001828103825260218152602001806113b26021913960400191505060405180910390fd5b9392505050565b6000610afa83836040518060400160405280601a81526020017f536166654d6174683a206469766973696f6e206279207a65726f00000000000081525061128d565b6000610afa83836040518060400160405280601e81526020017f536166654d6174683a207375627472616374696f6e206f766572666c6f770000815250611029565b600082820183811015610afa576040805162461bcd60e51b815260206004820152601b60248201527f536166654d6174683a206164646974696f6e206f766572666c6f770000000000604482015290519081900360640190fd5b60006301e13380610c16427f000000000000000000000000000000000000000000000000000000000000000063ffffffff610b4316565b10905090565b610c246110c0565b15610c605760405162461bcd60e51b815260040180806020018281038252602a815260200180611316602a913960400191505060405180910390fd5b565b6001600160a01b038316610ca75760405162461bcd60e51b81526004018080602001828103825260248152602001806114206024913960400191505060405180910390fd5b6001600160a01b038216610cec5760405162461bcd60e51b81526004018080602001828103825260228152602001806113406022913960400191505060405180910390fd5b6001600160a01b03808416600081815260016020908152604080832094871680845294825291829020859055815185815291517f8c5be1e5ebec7d5bd14f71427d1e84f3dd0314c0f7b2291e5b200ac8c7c3b9259281900390910190a3505050565b7f00000000000000000000000000000000000000000000000000000000000000006001600160a01b0316816001600160a01b03161415610dbf5760405162461bcd60e51b815260040180806020018281038252602a815260200180611388602a913960400191505060405180910390fd5b50565b6001600160a01b03811615801590610de357506001600160a01b0381163014155b610e1e5760405162461bcd60e51b81526004018080602001828103825260548152602001806114766054913960600191505060405180910390fd5b7f00000000000000000000000000000000000000000000000000000000000000006001600160a01b0316816001600160a01b031614158015610e9257507f00000000000000000000000000000000000000000000000000000000000000006001600160a01b0316816001600160a01b031614155b610dbf5760405162461bcd60e51b81526004018080602001828103825260538152602001806114ca6053913960600191505060405180910390fd5b6001600160a01b038316610f125760405162461bcd60e51b81526004018080602001828103825260258152602001806113fb6025913960400191505060405180910390fd5b6001600160a01b038216610f575760405162461bcd60e51b81526004018080602001828103825260238152602001806112f36023913960400191505060405180910390fd5b610f9a81604051806060016040528060268152602001611362602691396001600160a01b038616600090815260208190526040902054919063ffffffff61102916565b6001600160a01b038085166000908152602081905260408082209390935590841681522054610fcf908263ffffffff610b8516565b6001600160a01b038084166000818152602081815260409182902094909455805185815290519193928716927fddf252ad1be2c89b69c2b068fc378daa952ba7f163c4a11628f55a4df523b3ef92918290030190a3505050565b600081848411156110b85760405162461bcd60e51b81526004018080602001828103825283818151815260200191508051906020019080838360005b8381101561107d578181015183820152602001611065565b50505050905090810190601f1680156110aa5780820380516001836020036101000a031916815260200191505b509250505060405180910390fd5b505050900390565b336001600160a01b037f0000000000000000000000000000000000000000000000000000000000000000161490565b7f00000000000000000000000000000000000000000000000000000000000000006001600160a01b031663bb7603f1826040518263ffffffff1660e01b815260040180826001600160a01b03166001600160a01b0316815260200191505060206040518083038186803b15801561116557600080fd5b505afa158015611179573d6000803e3d6000fd5b505050506040513d602081101561118f57600080fd5b5051610dbf5760405162461bcd60e51b815260040180806020018281038252604781526020018061151d6047913960600191505060405180910390fd5b336001600160a01b037f00000000000000000000000000000000000000000000000000000000000000001614610c605760405162461bcd60e51b81526004018080602001828103825260328152602001806114446032913960400191505060405180910390fd5b4690565b6000838383611244611233565b6040805160208082019690965280820194909452606084019290925260808301523060a0808401919091528151808403909101815260c090920190528051910120949350505050565b600081836112dc5760405162461bcd60e51b815260206004820181815283516024840152835190928392604490910191908501908083836000831561107d578181015183820152602001611065565b5060008385816112e857fe5b049594505050505056fe45524332303a207472616e7366657220746f20746865207a65726f20616464726573734c515459546f6b656e3a2063616c6c6572206d757374206e6f7420626520746865206465706c6f79657245524332303a20617070726f766520746f20746865207a65726f206164647265737345524332303a207472616e7366657220616d6f756e7420657863656564732062616c616e63654c515459546f6b656e3a2073656e646572206d757374206e6f7420626520746865206465706c6f796572536166654d6174683a206d756c7469706c69636174696f6e206f766572666c6f7745524332303a207472616e7366657220616d6f756e74206578636565647320616c6c6f77616e636545524332303a207472616e736665722066726f6d20746865207a65726f206164647265737345524332303a20617070726f76652066726f6d20746865207a65726f20616464726573734c515459546f6b656e3a2063616c6c6572206d75737420626520746865204c5154595374616b696e6720636f6e74726163744c5154593a2043616e6e6f74207472616e7366657220746f6b656e73206469726563746c7920746f20746865204c51545920746f6b656e20636f6e7472616374206f7220746865207a65726f20616464726573734c5154593a2043616e6e6f74207472616e7366657220746f6b656e73206469726563746c7920746f2074686520636f6d6d756e6974792069737375616e6365206f72207374616b696e6720636f6e74726163744c515459546f6b656e3a20726563697069656e74206d7573742062652061204c6f636b7570436f6e7472616374207265676973746572656420696e2074686520466163746f727945524332303a2064656372656173656420616c6c6f77616e63652062656c6f77207a65726fa2646970667358221220e71f5209fd6a0b19f97331aaedd971fc35292c2c95676496e05b1070c4a90c1d64736f6c634300060b0033536166654d6174683a206d756c7469706c69636174696f6e206f766572666c6f77",
  "linkReferences": {},
  "deployedLinkReferences": {}
}