{
  "_format": "hh-sol-artifact-1",
  "contractName": "LQTYTokenTester",
  "sourceName": "contracts/TestContracts/LQTYTokenTester.sol",
  "abi": [
    {
      "inputs": [
        {
          "internalType": "address",
          "name": "_communityIssuanceAddress",
          "type": "address"
        },
        {
          "internalType": "address",
          "name": "_lqtyStakingAddress",
          "type": "address"
        },
        {
          "internalType": "address",
          "name": "_lockupFactoryAddress",
          "type": "address"
        },
        {
          "internalType": "address",
          "name": "_bountyAddress",
          "type": "address"
        },
        {
          "internalType": "address",
          "name": "_lpRewardsAddress",
          "type": "address"
        }
      ],
      "stateMutability": "nonpayable",
      "type": "constructor"
    },
    {
      "anonymous": false,
      "inputs": [
        {
          "indexed": true,
          "internalType": "address",
          "name": "owner",
          "type": "address"
        },
        {
          "indexed": true,
          "internalType": "address",
          "name": "spender",
          "type": "address"
        },
        {
          "indexed": false,
          "internalType": "uint256",
          "name": "value",
          "type": "uint256"
        }
      ],
      "name": "Approval",
      "type": "event"
    },
    {
      "anonymous": false,
      "inputs": [
        {
          "indexed": false,
          "internalType": "address",
          "name": "_communityIssuanceAddress",
          "type": "address"
        }
      ],
      "name": "CommunityIssuanceAddressSet",
      "type": "event"
    },
    {
      "anonymous": false,
      "inputs": [
        {
          "indexed": false,
          "internalType": "address",
          "name": "_lqtyStakingAddress",
          "type": "address"
        }
      ],
      "name": "LQTYStakingAddressSet",
      "type": "event"
    },
    {
      "anonymous": false,
      "inputs": [
        {
          "indexed": false,
          "internalType": "address",
          "name": "_lockupContractFactoryAddress",
          "type": "address"
        }
      ],
      "name": "LockupContractFactoryAddressSet",
      "type": "event"
    },
    {
      "anonymous": false,
      "inputs": [
        {
          "indexed": true,
          "internalType": "address",
          "name": "from",
          "type": "address"
        },
        {
          "indexed": true,
          "internalType": "address",
          "name": "to",
          "type": "address"
        },
        {
          "indexed": false,
          "internalType": "uint256",
          "name": "value",
          "type": "uint256"
        }
      ],
      "name": "Transfer",
      "type": "event"
    },
    {
      "inputs": [],
      "name": "ONE_YEAR_IN_SECONDS",
      "outputs": [
        {
          "internalType": "uint256",
          "name": "",
          "type": "uint256"
        }
      ],
      "stateMutability": "view",
      "type": "function"
    },
    {
      "inputs": [
        {
          "internalType": "address",
          "name": "owner",
          "type": "address"
        },
        {
          "internalType": "address",
          "name": "spender",
          "type": "address"
        }
      ],
      "name": "allowance",
      "outputs": [
        {
          "internalType": "uint256",
          "name": "",
          "type": "uint256"
        }
      ],
      "stateMutability": "view",
      "type": "function"
    },
    {
      "inputs": [
        {
          "internalType": "address",
          "name": "spender",
          "type": "address"
        },
        {
          "internalType": "uint256",
          "name": "amount",
          "type": "uint256"
        }
      ],
      "name": "approve",
      "outputs": [
        {
          "internalType": "bool",
          "name": "",
          "type": "bool"
        }
      ],
      "stateMutability": "nonpayable",
      "type": "function"
    },
    {
      "inputs": [
        {
          "internalType": "address",
          "name": "account",
          "type": "address"
        }
      ],
      "name": "balanceOf",
      "outputs": [
        {
          "internalType": "uint256",
          "name": "",
          "type": "uint256"
        }
      ],
      "stateMutability": "view",
      "type": "function"
    },
    {
      "inputs": [
        {
          "internalType": "address",
          "name": "owner",
          "type": "address"
        },
        {
          "internalType": "address",
          "name": "spender",
          "type": "address"
        },
        {
          "internalType": "uint256",
          "name": "amount",
          "type": "uint256"
        }
      ],
      "name": "callInternalApprove",
      "outputs": [
        {
          "internalType": "bool",
          "name": "",
          "type": "bool"
        }
      ],
      "stateMutability": "nonpayable",
      "type": "function"
    },
    {
      "inputs": [
        {
          "internalType": "address",
          "name": "sender",
          "type": "address"
        },
        {
          "internalType": "address",
          "name": "recipient",
          "type": "address"
        },
        {
          "internalType": "uint256",
          "name": "amount",
          "type": "uint256"
        }
      ],
      "name": "callInternalTransfer",
      "outputs": [
        {
          "internalType": "bool",
          "name": "",
          "type": "bool"
        }
      ],
      "stateMutability": "nonpayable",
      "type": "function"
    },
    {
      "inputs": [],
      "name": "communityIssuanceAddress",
      "outputs": [
        {
          "internalType": "address",
          "name": "",
          "type": "address"
        }
      ],
      "stateMutability": "view",
      "type": "function"
    },
    {
      "inputs": [],
      "name": "decimals",
      "outputs": [
        {
          "internalType": "uint8",
          "name": "",
          "type": "uint8"
        }
      ],
      "stateMutability": "view",
      "type": "function"
    },
    {
      "inputs": [
        {
          "internalType": "address",
          "name": "spender",
          "type": "address"
        },
        {
          "internalType": "uint256",
          "name": "subtractedValue",
          "type": "uint256"
        }
      ],
      "name": "decreaseAllowance",
      "outputs": [
        {
          "internalType": "bool",
          "name": "",
          "type": "bool"
        }
      ],
      "stateMutability": "nonpayable",
      "type": "function"
    },
    {
      "inputs": [],
      "name": "deployer",
      "outputs": [
        {
          "internalType": "address",
          "name": "",
          "type": "address"
        }
      ],
      "stateMutability": "view",
      "type": "function"
    },
    {
      "inputs": [],
      "name": "domainSeparator",
      "outputs": [
        {
          "internalType": "bytes32",
          "name": "",
          "type": "bytes32"
        }
      ],
      "stateMutability": "view",
      "type": "function"
    },
    {
      "inputs": [],
      "name": "getChainId",
      "outputs": [
        {
          "internalType": "uint256",
          "name": "chainID",
          "type": "uint256"
        }
      ],
      "stateMutability": "pure",
      "type": "function"
    },
    {
      "inputs": [],
      "name": "getDeploymentStartTime",
      "outputs": [
        {
          "internalType": "uint256",
          "name": "",
          "type": "uint256"
        }
      ],
      "stateMutability": "view",
      "type": "function"
    },
    {
      "inputs": [],
      "name": "getLpRewardsEntitlement",
      "outputs": [
        {
          "internalType": "uint256",
          "name": "",
          "type": "uint256"
        }
      ],
      "stateMutability": "view",
      "type": "function"
    },
    {
      "inputs": [
        {
          "internalType": "address",
          "name": "spender",
          "type": "address"
        },
        {
          "internalType": "uint256",
          "name": "addedValue",
          "type": "uint256"
        }
      ],
      "name": "increaseAllowance",
      "outputs": [
        {
          "internalType": "bool",
          "name": "",
          "type": "bool"
        }
      ],
      "stateMutability": "nonpayable",
      "type": "function"
    },
    {
      "inputs": [],
      "name": "lockupContractFactory",
      "outputs": [
        {
          "internalType": "contract ILockupContractFactory",
          "name": "",
          "type": "address"
        }
      ],
      "stateMutability": "view",
      "type": "function"
    },
    {
      "inputs": [],
      "name": "lqtyStakingAddress",
      "outputs": [
        {
          "internalType": "address",
          "name": "",
          "type": "address"
        }
      ],
      "stateMutability": "view",
      "type": "function"
    },
    {
      "inputs": [],
      "name": "name",
      "outputs": [
        {
          "internalType": "string",
          "name": "",
          "type": "string"
        }
      ],
      "stateMutability": "view",
      "type": "function"
    },
    {
      "inputs": [
        {
          "internalType": "address",
          "name": "owner",
          "type": "address"
        }
      ],
      "name": "nonces",
      "outputs": [
        {
          "internalType": "uint256",
          "name": "",
          "type": "uint256"
        }
      ],
      "stateMutability": "view",
      "type": "function"
    },
    {
      "inputs": [
        {
          "internalType": "address",
          "name": "owner",
          "type": "address"
        },
        {
          "internalType": "address",
          "name": "spender",
          "type": "address"
        },
        {
          "internalType": "uint256",
          "name": "amount",
          "type": "uint256"
        },
        {
          "internalType": "uint256",
          "name": "deadline",
          "type": "uint256"
        },
        {
          "internalType": "uint8",
          "name": "v",
          "type": "uint8"
        },
        {
          "internalType": "bytes32",
          "name": "r",
          "type": "bytes32"
        },
        {
          "internalType": "bytes32",
          "name": "s",
          "type": "bytes32"
        }
      ],
      "name": "permit",
      "outputs": [],
      "stateMutability": "nonpayable",
      "type": "function"
    },
    {
      "inputs": [],
      "name": "permitTypeHash",
      "outputs": [
        {
          "internalType": "bytes32",
          "name": "",
          "type": "bytes32"
        }
      ],
      "stateMutability": "view",
      "type": "function"
    },
    {
      "inputs": [
        {
          "internalType": "address",
          "name": "_sender",
          "type": "address"
        },
        {
          "internalType": "uint256",
          "name": "_amount",
          "type": "uint256"
        }
      ],
      "name": "sendToLQTYStaking",
      "outputs": [],
      "stateMutability": "nonpayable",
      "type": "function"
    },
    {
      "inputs": [],
      "name": "symbol",
      "outputs": [
        {
          "internalType": "string",
          "name": "",
          "type": "string"
        }
      ],
      "stateMutability": "view",
      "type": "function"
    },
    {
      "inputs": [],
      "name": "totalSupply",
      "outputs": [
        {
          "internalType": "uint256",
          "name": "",
          "type": "uint256"
        }
      ],
      "stateMutability": "view",
      "type": "function"
    },
    {
      "inputs": [
        {
          "internalType": "address",
          "name": "recipient",
          "type": "address"
        },
        {
          "internalType": "uint256",
          "name": "amount",
          "type": "uint256"
        }
      ],
      "name": "transfer",
      "outputs": [
        {
          "internalType": "bool",
          "name": "",
          "type": "bool"
        }
      ],
      "stateMutability": "nonpayable",
      "type": "function"
    },
    {
      "inputs": [
        {
          "internalType": "address",
          "name": "sender",
          "type": "address"
        },
        {
          "internalType": "address",
          "name": "recipient",
          "type": "address"
        },
        {
          "internalType": "uint256",
          "name": "amount",
          "type": "uint256"
        }
      ],
      "name": "transferFrom",
      "outputs": [
        {
          "internalType": "bool",
          "name": "",
          "type": "bool"
        }
      ],
      "stateMutability": "nonpayable",
      "type": "function"
    },
    {
      "inputs": [
        {
          "internalType": "address",
          "name": "account",
          "type": "address"
        },
        {
          "internalType": "uint256",
          "name": "amount",
          "type": "uint256"
        }
      ],
      "name": "unprotectedMint",
      "outputs": [],
      "stateMutability": "nonpayable",
      "type": "function"
    },
    {
      "inputs": [
        {
          "internalType": "address",
          "name": "_sender",
          "type": "address"
        },
        {
          "internalType": "uint256",
          "name": "_amount",
          "type": "uint256"
        }
      ],
      "name": "unprotectedSendToLQTYStaking",
      "outputs": [],
      "stateMutability": "nonpayable",
      "type": "function"
    },
    {
      "inputs": [],
      "name": "version",
      "outputs": [
        {
          "internalType": "string",
          "name": "",
          "type": "string"
        }
      ],
      "stateMutability": "view",
      "type": "function"
    }
  ],
  "bytecode": "0x6101c060405269d3c21bcecceda10000006004553480156200002057600080fd5b5060405162001ffa38038062001ffa833981810160405260a08110156200004657600080fd5b5080516020820151604083015160608401516080909401519293919290919084848484846200007e856001600160e01b03620002b216565b62000092846001600160e01b03620002b216565b620000a6836001600160e01b03620002b216565b33606090811b6101205242610100526001600160601b031986821b81166101405285821b8116610160529084901b166101a05260408051808201825260048152634c51545960e01b602091820152815180830190925260018252603160f81b9101527f3a81c10f33bb8529c37240b8a654b1c488a9f8c7e205411c4bef216f3581304760c08190527fc89efdaa54c0f20c7adf612882df0950f5a951637e0307cdcb4c672f298b8bc660e0819052620001676001600160e01b036200036716565b60a052620001a07f8b73c3c69bb8fe3d512ecc4cf759cc79239f7b179b0ffacaa9a75d522b39400f83836001600160e01b036200036b16565b608052600454620001bb85826001600160e01b03620003cc16565b600454600090620001d790602062000c0a620004cd821b17811c565b9050620001ee89826001600160e01b03620003cc16565b60006200022660036200021260048054620004cd60201b62000c0a1790919060201c565b6200053460201b62000c631790919060201c565b61018081905290506200024386826001600160e01b03620003cc16565b6000620002858262000271856200027188620002716064600454620004cd60201b62000c0a1790919060201c565b6200057e60201b62000ca51790919060201c565b90506200029c33826001600160e01b03620003cc16565b5050505050505050505050505050505062000727565b6001600160a01b0381166200030e576040805162461bcd60e51b815260206004820152601e60248201527f4163636f756e742063616e6e6f74206265207a65726f20616464726573730000604482015290519081900360640190fd5b803b8062000363576040805162461bcd60e51b815260206004820181905260248201527f4163636f756e7420636f64652073697a652063616e6e6f74206265207a65726f604482015290519081900360640190fd5b5050565b4690565b6000838383620003836001600160e01b036200036716565b6040805160208082019690965280820194909452606084019290925260808301523060a0808401919091528151808403909101815260c090920190528051910120949350505050565b6001600160a01b03821662000428576040805162461bcd60e51b815260206004820152601f60248201527f45524332303a206d696e7420746f20746865207a65726f206164647265737300604482015290519081900360640190fd5b6200044481600254620005c860201b62000ce71790919060201c565b6002556001600160a01b038216600090815260208181526040909120546200047791839062000ce7620005c8821b17901c565b6001600160a01b0383166000818152602081815260408083209490945583518581529351929391927fddf252ad1be2c89b69c2b068fc378daa952ba7f163c4a11628f55a4df523b3ef9281900390910190a35050565b600082620004de575060006200052e565b82820282848281620004ec57fe5b04146200052b5760405162461bcd60e51b815260040180806020018281038252602181526020018062001fd96021913960400191505060405180910390fd5b90505b92915050565b60006200052b83836040518060400160405280601a81526020017f536166654d6174683a206469766973696f6e206279207a65726f0000000000008152506200062360201b60201c565b60006200052b83836040518060400160405280601e81526020017f536166654d6174683a207375627472616374696f6e206f766572666c6f770000815250620006ca60201b60201c565b6000828201838110156200052b576040805162461bcd60e51b815260206004820152601b60248201527f536166654d6174683a206164646974696f6e206f766572666c6f770000000000604482015290519081900360640190fd5b60008183620006b35760405162461bcd60e51b81526004018080602001828103825283818151815260200191508051906020019080838360005b83811015620006775781810151838201526020016200065d565b50505050905090810190601f168015620006a55780820380516001836020036101000a031916815260200191505b509250505060405180910390fd5b506000838581620006c057fe5b0495945050505050565b600081848411156200071f5760405162461bcd60e51b8152602060048201818152835160248401528351909283926044909101919085019080838360008315620006775781810151838201526020016200065d565b505050900390565b60805160a05160c05160e051610100516101205160601c6101405160601c6101605160601c610180516101a05160601c61180c620007cd600039806107dd5280611343525080610801525080610733528061079e5280610fbf5280611429525080610ae35280610f82525080610abf5280610eb2528061131d5250806106f55280610e3a525080610bdf525080610bbe525080610b44525080610b74525061180c6000f3fe608060405234801561001057600080fd5b506004361061018f5760003560e01c806370a08231116100e4578063a9059cbb11610092578063a9059cbb1461047d578063d505accf146104a9578063d5f39488146104fa578063d874ea7414610502578063dd62ed3e1461050a578063e7c8fed414610538578063f3a2568b14610540578063f698da251461056c5761018f565b806370a08231146103d1578063761ab22c146103f75780637ecebe001461041b578063811c5b4d1461044157806395d89b41146101de578063974f559014610449578063a457c2d7146104515761018f565b80633408e470116101415780633408e470146102fd578063387a54d914610305578063395093511461033b5780633c84b7c2146103675780634655018c1461036f5780635099f99f1461039d57806354fd4d50146103c95761018f565b806303d999461461019457806306fdde03146101de578063095ea7b31461025b57806310ce43bd1461028757806318160ddd146102a157806323b872dd146102a9578063313ce567146102df575b600080fd5b6101ca600480360360608110156101aa57600080fd5b506001600160a01b03813581169160208101359091169060400135610574565b604080519115158252519081900360200190f35b6101e6610588565b6040805160208082528351818301528351919283929083019185019080838360005b83811015610220578181015183820152602001610208565b50505050905090810190601f16801561024d5780820380516001836020036101000a031916815260200191505b509250505060405180910390f35b6101ca6004803603604081101561027157600080fd5b506001600160a01b0381351690602001356105a7565b61028f6105d3565b60408051918252519081900360200190f35b61028f6105f7565b6101ca600480360360608110156102bf57600080fd5b506001600160a01b038135811691602081013590911690604001356105fd565b6102e761068b565b6040805160ff9092168252519081900360200190f35b61028f610690565b6101ca6004803603606081101561031b57600080fd5b506001600160a01b03813581169160208101359091169060400135610694565b6101ca6004803603604081101561035157600080fd5b506001600160a01b0381351690602001356106a1565b61028f6106f3565b61039b6004803603604081101561038557600080fd5b506001600160a01b038135169060200135610717565b005b61039b600480360360408110156103b357600080fd5b506001600160a01b03813516906020013561075c565b6101e6610766565b61028f600480360360208110156103e757600080fd5b50356001600160a01b0316610781565b6103ff61079c565b604080516001600160a01b039092168252519081900360200190f35b61028f6004803603602081101561043157600080fd5b50356001600160a01b03166107c0565b6103ff6107db565b61028f6107ff565b6101ca6004803603604081101561046757600080fd5b506001600160a01b038135169060200135610823565b6101ca6004803603604081101561049357600080fd5b506001600160a01b03813516906020013561088d565b61039b600480360360e08110156104bf57600080fd5b506001600160a01b03813581169160208101359091169060408101359060608101359060ff6080820135169060a08101359060c001356108c8565b6103ff610abd565b6103ff610ae1565b61028f6004803603604081101561052057600080fd5b506001600160a01b0381358116916020013516610b05565b61028f610b30565b61039b6004803603604081101561055657600080fd5b506001600160a01b038135169060200135610b38565b61028f610b40565b6000610581848484610d41565b9392505050565b6040805180820190915260048152634c51545960e01b60208201525b90565b60006105b1610e2d565b156105be576105be610e6a565b6105c9338484610d41565b5060015b92915050565b7f6e71edae12b1b97f4d1f60370fef10105fa2faae0126114a169c64845d6126c990565b60025490565b6000610607610e2d565b156106155761061584610eb0565b61061e83610f24565b61062984848461102f565b610681843361067c85604051806060016040528060288152602001611621602891396001600160a01b038a166000908152600160209081526040808320338452909152902054919063ffffffff61118b16565b610d41565b5060019392505050565b601290565b4690565b600061058184848461102f565b60006106ab610e2d565b156106b8576106b8610e6a565b3360008181526001602090815260408083206001600160a01b03881684529091529020546105c99190859061067c908663ffffffff610ce716565b7f000000000000000000000000000000000000000000000000000000000000000090565b61071f610e2d565b1561072d5761072d82610eb0565b610758827f00000000000000000000000000000000000000000000000000000000000000008361102f565b5050565b6107588282611222565b6040805180820190915260018152603160f81b602082015290565b6001600160a01b031660009081526020819052604090205490565b7f000000000000000000000000000000000000000000000000000000000000000081565b6001600160a01b031660009081526003602052604090205490565b7f000000000000000000000000000000000000000000000000000000000000000081565b7f000000000000000000000000000000000000000000000000000000000000000090565b600061082d610e2d565b1561083a5761083a610e6a565b6105c9338461067c856040518060600160405280602581526020016117b2602591393360009081526001602090815260408083206001600160a01b038d168452909152902054919063ffffffff61118b16565b6000610897611312565b80156108a657506108a6610e2d565b156108b4576108b483611341565b6108bd83610f24565b6105c933848461102f565b42841015610916576040805162461bcd60e51b81526020600482015260166024820152754c5154593a206578706972656420646561646c696e6560501b604482015290519081900360640190fd5b6000610920610b40565b6001600160a01b03808a1660008181526003602090815260408083208054600180820190925582517f6e71edae12b1b97f4d1f60370fef10105fa2faae0126114a169c64845d6126c98186015280840196909652958e166060860152608085018d905260a085019590955260c08085018c90528151808603909101815260e08501825280519083012061190160f01b6101008601526101028501969096526101228085019690965280518085039096018652610142840180825286519683019690962095839052610162840180825286905260ff8a166101828501526101a284018990526101c284018890525194955090936101e280840193601f198301929081900390910190855afa158015610a3b573d6000803e3d6000fd5b505050602060405103519050886001600160a01b0316816001600160a01b031614610aa7576040805162461bcd60e51b81526020600482015260176024820152764c5154593a20696e76616c6964207369676e617475726560481b604482015290519081900360640190fd5b610ab2898989610d41565b505050505050505050565b7f000000000000000000000000000000000000000000000000000000000000000081565b7f000000000000000000000000000000000000000000000000000000000000000081565b6001600160a01b03918216600090815260016020908152604080832093909416825291909152205490565b6301e1338081565b61071761141e565b60007f0000000000000000000000000000000000000000000000000000000000000000610b6b610690565b1415610b9857507f00000000000000000000000000000000000000000000000000000000000000006105a4565b610c037f8b73c3c69bb8fe3d512ecc4cf759cc79239f7b179b0ffacaa9a75d522b39400f7f00000000000000000000000000000000000000000000000000000000000000007f0000000000000000000000000000000000000000000000000000000000000000611485565b90506105a4565b600082610c19575060006105cd565b82820282848281610c2657fe5b04146105815760405162461bcd60e51b81526004018080602001828103825260218152602001806116006021913960400191505060405180910390fd5b600061058183836040518060400160405280601a81526020017f536166654d6174683a206469766973696f6e206279207a65726f0000000000008152506114db565b600061058183836040518060400160405280601e81526020017f536166654d6174683a207375627472616374696f6e206f766572666c6f77000081525061118b565b600082820183811015610581576040805162461bcd60e51b815260206004820152601b60248201527f536166654d6174683a206164646974696f6e206f766572666c6f770000000000604482015290519081900360640190fd5b6001600160a01b038316610d865760405162461bcd60e51b815260040180806020018281038252602481526020018061166e6024913960400191505060405180910390fd5b6001600160a01b038216610dcb5760405162461bcd60e51b815260040180806020018281038252602281526020018061158e6022913960400191505060405180910390fd5b6001600160a01b03808416600081815260016020908152604080832094871680845294825291829020859055815185815291517f8c5be1e5ebec7d5bd14f71427d1e84f3dd0314c0f7b2291e5b200ac8c7c3b9259281900390910190a3505050565b60006301e13380610e64427f000000000000000000000000000000000000000000000000000000000000000063ffffffff610ca516565b10905090565b610e72611312565b15610eae5760405162461bcd60e51b815260040180806020018281038252602a815260200180611564602a913960400191505060405180910390fd5b565b7f00000000000000000000000000000000000000000000000000000000000000006001600160a01b0316816001600160a01b03161415610f215760405162461bcd60e51b815260040180806020018281038252602a8152602001806115d6602a913960400191505060405180910390fd5b50565b6001600160a01b03811615801590610f4557506001600160a01b0381163014155b610f805760405162461bcd60e51b81526004018080602001828103825260548152602001806116c46054913960600191505060405180910390fd5b7f00000000000000000000000000000000000000000000000000000000000000006001600160a01b0316816001600160a01b031614158015610ff457507f00000000000000000000000000000000000000000000000000000000000000006001600160a01b0316816001600160a01b031614155b610f215760405162461bcd60e51b81526004018080602001828103825260538152602001806117186053913960600191505060405180910390fd5b6001600160a01b0383166110745760405162461bcd60e51b81526004018080602001828103825260258152602001806116496025913960400191505060405180910390fd5b6001600160a01b0382166110b95760405162461bcd60e51b81526004018080602001828103825260238152602001806115416023913960400191505060405180910390fd5b6110fc816040518060600160405280602681526020016115b0602691396001600160a01b038616600090815260208190526040902054919063ffffffff61118b16565b6001600160a01b038085166000908152602081905260408082209390935590841681522054611131908263ffffffff610ce716565b6001600160a01b038084166000818152602081815260409182902094909455805185815290519193928716927fddf252ad1be2c89b69c2b068fc378daa952ba7f163c4a11628f55a4df523b3ef92918290030190a3505050565b6000818484111561121a5760405162461bcd60e51b81526004018080602001828103825283818151815260200191508051906020019080838360005b838110156111df5781810151838201526020016111c7565b50505050905090810190601f16801561120c5780820380516001836020036101000a031916815260200191505b509250505060405180910390fd5b505050900390565b6001600160a01b03821661127d576040805162461bcd60e51b815260206004820152601f60248201527f45524332303a206d696e7420746f20746865207a65726f206164647265737300604482015290519081900360640190fd5b600254611290908263ffffffff610ce716565b6002556001600160a01b0382166000908152602081905260409020546112bc908263ffffffff610ce716565b6001600160a01b0383166000818152602081815260408083209490945583518581529351929391927fddf252ad1be2c89b69c2b068fc378daa952ba7f163c4a11628f55a4df523b3ef9281900390910190a35050565b336001600160a01b037f0000000000000000000000000000000000000000000000000000000000000000161490565b7f00000000000000000000000000000000000000000000000000000000000000006001600160a01b031663bb7603f1826040518263ffffffff1660e01b815260040180826001600160a01b03166001600160a01b0316815260200191505060206040518083038186803b1580156113b757600080fd5b505afa1580156113cb573d6000803e3d6000fd5b505050506040513d60208110156113e157600080fd5b5051610f215760405162461bcd60e51b815260040180806020018281038252604781526020018061176b6047913960600191505060405180910390fd5b336001600160a01b037f00000000000000000000000000000000000000000000000000000000000000001614610eae5760405162461bcd60e51b81526004018080602001828103825260328152602001806116926032913960400191505060405180910390fd5b6000838383611492610690565b6040805160208082019690965280820194909452606084019290925260808301523060a0808401919091528151808403909101815260c090920190528051910120949350505050565b6000818361152a5760405162461bcd60e51b81526020600482018181528351602484015283519092839260449091019190850190808383600083156111df5781810151838201526020016111c7565b50600083858161153657fe5b049594505050505056fe45524332303a207472616e7366657220746f20746865207a65726f20616464726573734c515459546f6b656e3a2063616c6c6572206d757374206e6f7420626520746865206465706c6f79657245524332303a20617070726f766520746f20746865207a65726f206164647265737345524332303a207472616e7366657220616d6f756e7420657863656564732062616c616e63654c515459546f6b656e3a2073656e646572206d757374206e6f7420626520746865206465706c6f796572536166654d6174683a206d756c7469706c69636174696f6e206f766572666c6f7745524332303a207472616e7366657220616d6f756e74206578636565647320616c6c6f77616e636545524332303a207472616e736665722066726f6d20746865207a65726f206164647265737345524332303a20617070726f76652066726f6d20746865207a65726f20616464726573734c515459546f6b656e3a2063616c6c6572206d75737420626520746865204c5154595374616b696e6720636f6e74726163744c5154593a2043616e6e6f74207472616e7366657220746f6b656e73206469726563746c7920746f20746865204c51545920746f6b656e20636f6e7472616374206f7220746865207a65726f20616464726573734c5154593a2043616e6e6f74207472616e7366657220746f6b656e73206469726563746c7920746f2074686520636f6d6d756e6974792069737375616e6365206f72207374616b696e6720636f6e74726163744c515459546f6b656e3a20726563697069656e74206d7573742062652061204c6f636b7570436f6e7472616374207265676973746572656420696e2074686520466163746f727945524332303a2064656372656173656420616c6c6f77616e63652062656c6f77207a65726fa26469706673582212201ad7f8ddb91f82e38fee1a05230256d355986429d10dd1c1808684cffa67a00864736f6c634300060b0033536166654d6174683a206d756c7469706c69636174696f6e206f766572666c6f77",
  "linkReferences": {},
  "deployedLinkReferences": {}
}