{
  "_format": "hh-sol-artifact-1",
  "contractName": "LUSDTokenCaller",
  "sourceName": "contracts/TestContracts/LUSDTokenCaller.sol",
  "abi": [
    {
      "inputs": [
        {
          "internalType": "address",
          "name": "_account",
          "type": "address"
        },
        {
          "internalType": "uint256",
          "name": "_amount",
          "type": "uint256"
        }
      ],
      "name": "lusdBurn",
      "outputs": [],
      "stateMutability": "nonpayable",
      "type": "function"
    },
    {
      "inputs": [
        {
          "internalType": "address",
          "name": "_account",
          "type": "address"
        },
        {
          "internalType": "uint256",
          "name": "_amount",
          "type": "uint256"
        }
      ],
      "name": "lusdMint",
      "outputs": [],
      "stateMutability": "nonpayable",
      "type": "function"
    },
    {
      "inputs": [
        {
          "internalType": "address",
          "name": "_poolAddress",
          "type": "address"
        },
        {
          "internalType": "address",
          "name": "_receiver",
          "type": "address"
        },
        {
          "internalType": "uint256",
          "name": "_amount",
          "type": "uint256"
        }
      ],
      "name": "lusdReturnFromPool",
      "outputs": [],
      "stateMutability": "nonpayable",
      "type": "function"
    },
    {
      "inputs": [
        {
          "internalType": "address",
          "name": "_sender",
          "type": "address"
        },
        {
          "internalType": "address",
          "name": "_poolAddress",
          "type": "address"
        },
        {
          "internalType": "uint256",
          "name": "_amount",
          "type": "uint256"
        }
      ],
      "name": "lusdSendToPool",
      "outputs": [],
      "stateMutability": "nonpayable",
      "type": "function"
    },
    {
      "inputs": [
        {
          "internalType": "contract ILUSDToken",
          "name": "_LUSD",
          "type": "address"
        }
      ],
      "name": "setLUSD",
      "outputs": [],
      "stateMutability": "nonpayable",
      "type": "function"
    }
  ],
  "bytecode": "0x608060405234801561001057600080fd5b50610331806100206000396000f3fe608060405234801561001057600080fd5b50600436106100575760003560e01c806375f289251461005c578063800dea4514610094578063845576e3146100c057806387ce3a58146100f6578063e990cbfd14610122575b600080fd5b6100926004803603606081101561007257600080fd5b506001600160a01b03813581169160208101359091169060400135610148565b005b610092600480360360408110156100aa57600080fd5b506001600160a01b0381351690602001356101bf565b610092600480360360608110156100d657600080fd5b506001600160a01b0381358116916020810135909116906040013561022d565b6100926004803603604081101561010c57600080fd5b506001600160a01b038135169060200135610287565b6100926004803603602081101561013857600080fd5b50356001600160a01b03166102d9565b6000805460408051631062c15f60e11b81526001600160a01b038781166004830152868116602483015260448201869052915191909216926320c582be926064808201939182900301818387803b1580156101a257600080fd5b505af11580156101b6573d6000803e3d6000fd5b50505050505050565b6000805460408051632770a7eb60e21b81526001600160a01b0386811660048301526024820186905291519190921692639dc29fac926044808201939182900301818387803b15801561021157600080fd5b505af1158015610225573d6000803e3d6000fd5b505050505050565b6000805460408051632ee65eeb60e21b81526001600160a01b0387811660048301528681166024830152604482018690529151919092169263bb997bac926064808201939182900301818387803b1580156101a257600080fd5b60008054604080516340c10f1960e01b81526001600160a01b03868116600483015260248201869052915191909216926340c10f19926044808201939182900301818387803b15801561021157600080fd5b600080546001600160a01b0319166001600160a01b039290921691909117905556fea264697066735822122053157f6ec29bb2c3cecee7b3028d2b9da51556f4725346b06b828716851b360064736f6c634300060b0033",
  "linkReferences": {},
  "deployedLinkReferences": {}
}