{
  "_format": "hh-sol-artifact-1",
  "contractName": "MockAggregator",
  "sourceName": "contracts/TestContracts/MockAggregator.sol",
  "abi": [
    {
      "inputs": [],
      "name": "decimals",
      "outputs": [
        {
          "internalType": "uint8",
          "name": "",
          "type": "uint8"
        }
      ],
      "stateMutability": "view",
      "type": "function"
    },
    {
      "inputs": [],
      "name": "description",
      "outputs": [
        {
          "internalType": "string",
          "name": "",
          "type": "string"
        }
      ],
      "stateMutability": "view",
      "type": "function"
    },
    {
      "inputs": [
        {
          "internalType": "uint80",
          "name": "",
          "type": "uint80"
        }
      ],
      "name": "getRoundData",
      "outputs": [
        {
          "internalType": "uint80",
          "name": "roundId",
          "type": "uint80"
        },
        {
          "internalType": "int256",
          "name": "answer",
          "type": "int256"
        },
        {
          "internalType": "uint256",
          "name": "startedAt",
          "type": "uint256"
        },
        {
          "internalType": "uint256",
          "name": "updatedAt",
          "type": "uint256"
        },
        {
          "internalType": "uint80",
          "name": "answeredInRound",
          "type": "uint80"
        }
      ],
      "stateMutability": "view",
      "type": "function"
    },
    {
      "inputs": [],
      "name": "latestRoundData",
      "outputs": [
        {
          "internalType": "uint80",
          "name": "roundId",
          "type": "uint80"
        },
        {
          "internalType": "int256",
          "name": "answer",
          "type": "int256"
        },
        {
          "internalType": "uint256",
          "name": "startedAt",
          "type": "uint256"
        },
        {
          "internalType": "uint256",
          "name": "updatedAt",
          "type": "uint256"
        },
        {
          "internalType": "uint80",
          "name": "answeredInRound",
          "type": "uint80"
        }
      ],
      "stateMutability": "view",
      "type": "function"
    },
    {
      "inputs": [
        {
          "internalType": "uint8",
          "name": "path",
          "type": "uint8"
        }
      ],
      "name": "setPath",
      "outputs": [
        {
          "internalType": "bool",
          "name": "",
          "type": "bool"
        }
      ],
      "stateMutability": "nonpayable",
      "type": "function"
    },
    {
      "inputs": [],
      "name": "version",
      "outputs": [
        {
          "internalType": "uint256",
          "name": "",
          "type": "uint256"
        }
      ],
      "stateMutability": "view",
      "type": "function"
    }
  ],
  "bytecode": "0x60806040526000805460ff1916600117905534801561001d57600080fd5b506103008061002d6000396000f3fe608060405234801561001057600080fd5b50600436106100625760003560e01c8063313ce5671461006757806354fd4d50146100855780637284e4161461009f5780638c9aee921461011c5780639a6fc8f514610150578063feaf968c146101b8575b600080fd5b61006f6101c0565b6040805160ff9092168252519081900360200190f35b61008d610202565b60408051918252519081900360200190f35b6100a7610207565b6040805160208082528351818301528351919283929083019185019080838360005b838110156100e15781810151838201526020016100c9565b50505050905090810190601f16801561010e5780820380516001836020036101000a031916815260200191505b509250505060405180910390f35b61013c6004803603602081101561013257600080fd5b503560ff16610219565b604080519115158252519081900360200190f35b6101796004803603602081101561016657600080fd5b503569ffffffffffffffffffff16610231565b6040805169ffffffffffffffffffff96871681526020810195909552848101939093526060840191909152909216608082015290519081900360a00190f35b61017961023f565b6000805460ff16600114156101d7575060126101ff565b60005460ff16600214156101ed575060156101ff565b60005460ff16600314156101ff575060115b90565b600190565b60408051602081019091526000815290565b6000805460ff831660ff199091161790556001919050565b506000908190819081908190565b60008054819081908190819060ff16158015906102635750600054600460ff909116105b1561027f5750600093506103e8925083915060019050816102c3565b60005460ff16600414156102a257506000935060019250839150819050806102c3565b60005460ff16600514156102c3575060009350600419925083915060019050815b909192939456fea264697066735822122073f788df8e6e61779347948b8367d324c00b2621449d9aae4a151dcd68600fd564736f6c634300060b0033",
  "linkReferences": {},
  "deployedLinkReferences": {}
}