{
  "_format": "hh-sol-artifact-1",
  "contractName": "MockAggregator",
  "sourceName": "contracts/TestContracts/MockAggregator.sol",
  "abi": [
    {
      "inputs": [],
      "name": "decimals",
      "outputs": [
        {
          "internalType": "uint8",
          "name": "",
          "type": "uint8"
        }
      ],
      "stateMutability": "view",
      "type": "function"
    },
    {
      "inputs": [],
      "name": "description",
      "outputs": [
        {
          "internalType": "string",
          "name": "",
          "type": "string"
        }
      ],
      "stateMutability": "view",
      "type": "function"
    },
    {
      "inputs": [
        {
          "internalType": "uint80",
          "name": "",
          "type": "uint80"
        }
      ],
      "name": "getRoundData",
      "outputs": [
        {
          "internalType": "uint80",
          "name": "roundId",
          "type": "uint80"
        },
        {
          "internalType": "int256",
          "name": "answer",
          "type": "int256"
        },
        {
          "internalType": "uint256",
          "name": "startedAt",
          "type": "uint256"
        },
        {
          "internalType": "uint256",
          "name": "updatedAt",
          "type": "uint256"
        },
        {
          "internalType": "uint80",
          "name": "answeredInRound",
          "type": "uint80"
        }
      ],
      "stateMutability": "view",
      "type": "function"
    },
    {
      "inputs": [],
      "name": "latestRoundData",
      "outputs": [
        {
          "internalType": "uint80",
          "name": "roundId",
          "type": "uint80"
        },
        {
          "internalType": "int256",
          "name": "answer",
          "type": "int256"
        },
        {
          "internalType": "uint256",
          "name": "startedAt",
          "type": "uint256"
        },
        {
          "internalType": "uint256",
          "name": "updatedAt",
          "type": "uint256"
        },
        {
          "internalType": "uint80",
          "name": "answeredInRound",
          "type": "uint80"
        }
      ],
      "stateMutability": "view",
      "type": "function"
    },
    {
      "inputs": [
        {
          "internalType": "uint8",
          "name": "_decimals",
          "type": "uint8"
        }
      ],
      "name": "setDecimals",
      "outputs": [],
      "stateMutability": "nonpayable",
      "type": "function"
    },
    {
      "inputs": [],
      "name": "setDecimalsRevert",
      "outputs": [],
      "stateMutability": "nonpayable",
      "type": "function"
    },
    {
      "inputs": [],
      "name": "setLatestRevert",
      "outputs": [],
      "stateMutability": "nonpayable",
      "type": "function"
    },
    {
      "inputs": [
        {
          "internalType": "uint80",
          "name": "_latestRoundId",
          "type": "uint80"
        }
      ],
      "name": "setLatestRoundId",
      "outputs": [],
      "stateMutability": "nonpayable",
      "type": "function"
    },
    {
      "inputs": [
        {
          "internalType": "int256",
          "name": "_prevPrice",
          "type": "int256"
        }
      ],
      "name": "setPrevPrice",
      "outputs": [],
      "stateMutability": "nonpayable",
      "type": "function"
    },
    {
      "inputs": [],
      "name": "setPrevRevert",
      "outputs": [],
      "stateMutability": "nonpayable",
      "type": "function"
    },
    {
      "inputs": [
        {
          "internalType": "uint80",
          "name": "_prevRoundId",
          "type": "uint80"
        }
      ],
      "name": "setPrevRoundId",
      "outputs": [],
      "stateMutability": "nonpayable",
      "type": "function"
    },
    {
      "inputs": [
        {
          "internalType": "uint256",
          "name": "_prevUpdateTime",
          "type": "uint256"
        }
      ],
      "name": "setPrevUpdateTime",
      "outputs": [],
      "stateMutability": "nonpayable",
      "type": "function"
    },
    {
      "inputs": [
        {
          "internalType": "int256",
          "name": "_price",
          "type": "int256"
        }
      ],
      "name": "setPrice",
      "outputs": [],
      "stateMutability": "nonpayable",
      "type": "function"
    },
    {
      "inputs": [
        {
          "internalType": "uint256",
          "name": "_updateTime",
          "type": "uint256"
        }
      ],
      "name": "setUpdateTime",
      "outputs": [],
      "stateMutability": "nonpayable",
      "type": "function"
    },
    {
      "inputs": [],
      "name": "version",
      "outputs": [
        {
          "internalType": "uint256",
          "name": "",
          "type": "uint256"
        }
      ],
      "stateMutability": "view",
      "type": "function"
    }
  ],
  "bytecode": "0x60806040526000805460ff1916600817905534801561001d57600080fd5b506105998061002d6000396000f3fe608060405234801561001057600080fd5b50600436106100d55760003560e01c80637394e789116100875780637394e789146101e457806375354ffa146102015780637a1395aa146102275780639a6fc8f514610247578063a68e5945146102a9578063bf73eea6146102b1578063f7a30806146102ce578063feaf968c146102eb576100d5565b806313886538146100da57806329ccf0cf146100f9578063313ce5671461010157806354fd4d501461011f57806366543a6c146101395780637134b990146101415780637284e41614610167575b600080fd5b6100f7600480360360208110156100f057600080fd5b50356102f3565b005b6100f76102f8565b610109610319565b6040805160ff9092168252519081900360200190f35b610127610379565b60408051918252519081900360200190f35b6100f761037e565b6100f76004803603602081101561015757600080fd5b50356001600160501b031661039f565b61016f6103c4565b6040805160208082528351818301528351919283929083019185019080838360005b838110156101a9578181015183820152602001610191565b50505050905090810190601f1680156101d65780820380516001836020036101000a031916815260200191505b509250505060405180910390f35b6100f7600480360360208110156101fa57600080fd5b50356103d6565b6100f76004803603602081101561021757600080fd5b50356001600160501b03166103db565b6100f76004803603602081101561023d57600080fd5b503560ff1661040a565b61026d6004803603602081101561025d57600080fd5b50356001600160501b0316610420565b604080516001600160501b0396871681526020810195909552848101939093526060840191909152909216608082015290519081900360a00190f35b6100f76104ae565b6100f7600480360360208110156102c757600080fd5b50356104cf565b6100f7600480360360208110156102e457600080fd5b50356104d4565b61026d6104d9565b600255565b6005805460ff60b01b198116600160b01b9182900460ff1615909102179055565b600554600090600160b01b900460ff161561036f576040805162461bcd60e51b8152602060048201526011602482015270191958da5b585b1cc81c995d995c9d1959607a1b604482015290519081900360640190fd5b5060005460ff1690565b600190565b6005805460ff60a01b198116600160a01b9182900460ff1615909102179055565b6005805469ffffffffffffffffffff19166001600160501b0392909216919091179055565b60408051602081019091526000815290565b600455565b600580546001600160501b03909216600160501b0269ffffffffffffffffffff60501b19909216919091179055565b6000805460ff191660ff92909216919091179055565b6000806000806000600560159054906101000a900460ff1615610482576040805162461bcd60e51b815260206004820152601560248201527419d95d149bdd5b9911185d18481c995d995c9d1959605a1b604482015290519081900360640190fd5b5050600554600254600354600160501b9092046001600160501b03169690955060009450909250839150565b6005805460ff60a81b198116600160a81b9182900460ff1615909102179055565b600355565b600155565b6000806000806000600560149054906101000a900460ff161561053e576040805162461bcd60e51b81526020600482015260186024820152771b185d195cdd149bdd5b9911185d18481c995d995c9d195960421b604482015290519081900360640190fd5b50506005546001546003546001600160501b039092169590945060009350909150829056fea2646970667358221220ed099b5821cd2aa08f9d89428bb844af999bfb098d74b80565fb4aac091ab22864736f6c634300060b0033",
  "linkReferences": {},
  "deployedLinkReferences": {}
}