{
  "_format": "hh-sol-artifact-1",
  "contractName": "NonPayable",
  "sourceName": "contracts/TestContracts/NonPayable.sol",
  "abi": [
    {
      "inputs": [
        {
          "internalType": "address",
          "name": "_dest",
          "type": "address"
        },
        {
          "internalType": "bytes",
          "name": "_data",
          "type": "bytes"
        }
      ],
      "name": "forward",
      "outputs": [],
      "stateMutability": "payable",
      "type": "function"
    },
    {
      "inputs": [
        {
          "internalType": "bool",
          "name": "_isPayable",
          "type": "bool"
        }
      ],
      "name": "setPayable",
      "outputs": [],
      "stateMutability": "nonpayable",
      "type": "function"
    },
    {
      "stateMutability": "payable",
      "type": "receive"
    }
  ],
  "bytecode": "0x608060405234801561001057600080fd5b5061023c806100206000396000f3fe60806040526004361061002d5760003560e01c80636fadcf7214610048578063f124a300146100c857610043565b366100435760005460ff1661004157600080fd5b005b600080fd5b6100416004803603604081101561005e57600080fd5b6001600160a01b03823516919081019060408101602082013564010000000081111561008957600080fd5b82018360208201111561009b57600080fd5b803590602001918460018302840111640100000000831117156100bd57600080fd5b5090925090506100f4565b3480156100d457600080fd5b50610041600480360360208110156100eb57600080fd5b503515156101f3565b60006060846001600160a01b0316348585604051808383808284376040519201945060009350909150508083038185875af1925050503d8060008114610156576040519150601f19603f3d011682016040523d82523d6000602084013e61015b565b606091505b50915091508181906101eb5760405162461bcd60e51b81526004018080602001828103825283818151815260200191508051906020019080838360005b838110156101b0578181015183820152602001610198565b50505050905090810190601f1680156101dd5780820380516001836020036101000a031916815260200191505b509250505060405180910390fd5b505050505050565b6000805460ff191691151591909117905556fea2646970667358221220bc1d5e25f416353cd88608bd4d916d99bd8c83bc14eb11c1440a0c3bcce05b8564736f6c634300060b0033",
  "linkReferences": {},
  "deployedLinkReferences": {}
}