{
  "_format": "hh-sol-artifact-1",
  "contractName": "PriceFeed",
  "sourceName": "contracts/PriceFeed.sol",
  "abi": [
    {
      "anonymous": false,
      "inputs": [
        {
          "indexed": false,
          "internalType": "uint256",
          "name": "_lastGoodPrice",
          "type": "uint256"
        }
      ],
      "name": "LastGoodPriceUpdated",
      "type": "event"
    },
    {
      "anonymous": false,
      "inputs": [
        {
          "indexed": true,
          "internalType": "address",
          "name": "previousOwner",
          "type": "address"
        },
        {
          "indexed": true,
          "internalType": "address",
          "name": "newOwner",
          "type": "address"
        }
      ],
      "name": "OwnershipTransferred",
      "type": "event"
    },
    {
      "anonymous": false,
      "inputs": [
        {
          "indexed": false,
          "internalType": "enum PriceFeed.Status",
          "name": "newStatus",
          "type": "uint8"
        }
      ],
      "name": "StatusChanged",
      "type": "event"
    },
    {
      "inputs": [],
      "name": "DECIMAL_PRECISION",
      "outputs": [
        {
          "internalType": "uint256",
          "name": "",
          "type": "uint256"
        }
      ],
      "stateMutability": "view",
      "type": "function"
    },
    {
      "inputs": [],
      "name": "ETHUSD_TELLOR_REQ_ID",
      "outputs": [
        {
          "internalType": "uint256",
          "name": "",
          "type": "uint256"
        }
      ],
      "stateMutability": "view",
      "type": "function"
    },
    {
      "inputs": [],
      "name": "MAX_PRICE_DEVIATION_FROM_PREVIOUS_ROUND",
      "outputs": [
        {
          "internalType": "uint256",
          "name": "",
          "type": "uint256"
        }
      ],
      "stateMutability": "view",
      "type": "function"
    },
    {
      "inputs": [],
      "name": "MAX_PRICE_DIFFERENCE_BETWEEN_ORACLES",
      "outputs": [
        {
          "internalType": "uint256",
          "name": "",
          "type": "uint256"
        }
      ],
      "stateMutability": "view",
      "type": "function"
    },
    {
      "inputs": [],
      "name": "TARGET_DIGITS",
      "outputs": [
        {
          "internalType": "uint256",
          "name": "",
          "type": "uint256"
        }
      ],
      "stateMutability": "view",
      "type": "function"
    },
    {
      "inputs": [],
      "name": "TELLOR_DIGITS",
      "outputs": [
        {
          "internalType": "uint256",
          "name": "",
          "type": "uint256"
        }
      ],
      "stateMutability": "view",
      "type": "function"
    },
    {
      "inputs": [],
      "name": "TIMEOUT",
      "outputs": [
        {
          "internalType": "uint256",
          "name": "",
          "type": "uint256"
        }
      ],
      "stateMutability": "view",
      "type": "function"
    },
    {
      "inputs": [],
      "name": "fetchPrice",
      "outputs": [
        {
          "internalType": "uint256",
          "name": "",
          "type": "uint256"
        }
      ],
      "stateMutability": "nonpayable",
      "type": "function"
    },
    {
      "inputs": [],
      "name": "isOwner",
      "outputs": [
        {
          "internalType": "bool",
          "name": "",
          "type": "bool"
        }
      ],
      "stateMutability": "view",
      "type": "function"
    },
    {
      "inputs": [],
      "name": "lastGoodPrice",
      "outputs": [
        {
          "internalType": "uint256",
          "name": "",
          "type": "uint256"
        }
      ],
      "stateMutability": "view",
      "type": "function"
    },
    {
      "inputs": [],
      "name": "owner",
      "outputs": [
        {
          "internalType": "address",
          "name": "",
          "type": "address"
        }
      ],
      "stateMutability": "view",
      "type": "function"
    },
    {
      "inputs": [],
      "name": "priceAggregator",
      "outputs": [
        {
          "internalType": "contract AggregatorV3Interface",
          "name": "",
          "type": "address"
        }
      ],
      "stateMutability": "view",
      "type": "function"
    },
    {
      "inputs": [
        {
          "internalType": "address",
          "name": "_priceAggregatorAddress",
          "type": "address"
        },
        {
          "internalType": "address",
          "name": "_tellorCallerAddress",
          "type": "address"
        }
      ],
      "name": "setAddresses",
      "outputs": [],
      "stateMutability": "nonpayable",
      "type": "function"
    },
    {
      "inputs": [],
      "name": "status",
      "outputs": [
        {
          "internalType": "enum PriceFeed.Status",
          "name": "",
          "type": "uint8"
        }
      ],
      "stateMutability": "view",
      "type": "function"
    },
    {
      "inputs": [],
      "name": "tellorCaller",
      "outputs": [
        {
          "internalType": "contract ITellorCaller",
          "name": "",
          "type": "address"
        }
      ],
      "stateMutability": "view",
      "type": "function"
    }
  ],
  "bytecode": "0x608060405234801561001057600080fd5b50600080546001600160a01b0319163390811782556040519091907f8be0079c531659141344cd1fd0a4f28419497f9722a3daafe3b4186f6b6457e0908290a36110f68061005f6000396000f3fe608060405234801561001057600080fd5b50600436106100d55760003560e01c80635f42caf8116100875780635f42caf8146101645780637c61e3bf1461016c5780638da5cb5b146101745780638f32d59b1461017c57806390107afe14610198578063a20baee6146101c8578063ebf8e6c6146101d0578063f56f48f2146101d8576100d5565b80630490be83146100da5780630fdb11cf146100f45780631be5c92f146100fc578063200d2ed2146101045780633078fff51461013057806345079cb41461015457806358a6aa881461015c575b600080fd5b6100e26101e0565b60408051918252519081900360200190f35b6100e26101e6565b6100e26104eb565b61010c6104f0565b6040518082600481111561011c57fe5b60ff16815260200191505060405180910390f35b6101386104f9565b604080516001600160a01b039092168252519081900360200190f35b6100e2610508565b6100e2610513565b6100e261051f565b610138610524565b610138610533565b610184610542565b604080519115158252519081900360200190f35b6101c6600480360360408110156101ae57600080fd5b506001600160a01b0381358116916020013516610553565b005b6100e2610696565b6100e26106a2565b6100e26106a7565b60055481565b60006101f0611015565b6101f86106ad565b9050610202611015565b610214826000015183608001516107f7565b905061021e611043565b6102266108d2565b9050600060065460ff16600481111561023b57fe5b141561036d5761024b838361097e565b156102aa576102598161099f565b156102755761026860026109ed565b60055493505050506104e8565b61027e81610a53565b1561028d5761026860016109ed565b61029760016109ed565b6102a081610a76565b93505050506104e8565b6102b383610a53565b156102f5576102c18161099f565b156102d05761026860046109ed565b6102da60036109ed565b6102e381610a53565b156102975760055493505050506104e8565b6102ff8383610a91565b1561034c5761030d8161099f565b1561031c5761026860026109ed565b61032581610a53565b156103345761026860016109ed565b61033e8382610b30565b1561028d576102a083610baf565b6103558161099f565b156103645761036460046109ed565b6102a083610baf565b600160065460ff16600481111561038057fe5b14156103b857610391838383610bc7565b156103a05761036460006109ed565b6103a98161099f565b156102da5761026860026109ed565b600260065460ff1660048111156103cb57fe5b14156103eb576103dc838383610bc7565b156102685761036460006109ed565b600360065460ff1660048111156103fe57fe5b141561047d5761040e838361097e565b156104355761041c8161099f565b1561042b5761026860026109ed565b6102da60016109ed565b61043e83610a53565b1561045b5761044c8161099f565b156102da5761026860046109ed565b6104648161099f565b156104735761036460046109ed565b61036460006109ed565b600460065460ff16600481111561049057fe5b14156104e4576104a0838361097e565b156104af5761026860026109ed565b6104b883610a53565b156104ca5760055493505050506104e8565b6104d5838383610bc7565b156103645761036460006109ed565b5050505b90565b601281565b60065460ff1681565b6001546001600160a01b031681565b66b1a2bc2ec5000081565b6706f05b59d3b2000081565b600181565b6002546001600160a01b031681565b6000546001600160a01b031690565b6000546001600160a01b0316331490565b61055b610542565b6105ac576040805162461bcd60e51b815260206004820181905260248201527f4f776e61626c653a2063616c6c6572206973206e6f7420746865206f776e6572604482015290519081900360640190fd5b6105b582610c1f565b6105be81610c1f565b600180546001600160a01b038481166001600160a01b03199283161790925560028054928416929091169190911790556006805460ff19169055610600611015565b6106086106ad565b9050610612611015565b610624826000015183608001516107f7565b9050610630828261097e565b158015610643575061064182610a53565b155b61067e5760405162461bcd60e51b81526004018080602001828103825260308152602001806110916030913960400191505060405180910390fd5b61068782610baf565b50610690610cd2565b50505050565b670de0b6b3a764000081565b600681565b61384081565b6106b5611015565b600160009054906101000a90046001600160a01b03166001600160a01b031663313ce5676040518163ffffffff1660e01b815260040160206040518083038186803b15801561070357600080fd5b505afa92505050801561072857506040513d602081101561072357600080fd5b505160015b610731576104e8565b60ff166080820152600160009054906101000a90046001600160a01b03166001600160a01b031663feaf968c6040518163ffffffff1660e01b815260040160a06040518083038186803b15801561078757600080fd5b505afa9250505080156107c957506040513d60a08110156107a757600080fd5b5080516020820151604083015160608401516080909401519293919290919060015b6107d2576104e8565b506001600160501b0390931684525060208301526040820152600160608201526104e8565b6107ff611015565b60015460408051639a6fc8f560e01b81526001600160501b03600019870116600482015290516001600160a01b0390921691639a6fc8f59160248082019260a092909190829003018186803b15801561085757600080fd5b505afa92505050801561089957506040513d60a081101561087757600080fd5b5080516020820151604083015160608401516080909401519293919290919060015b6108a2576108cc565b506001600160501b039093168452506020830152604082015260ff82166080820152600160608201525b92915050565b6108da611043565b600254604080516332e6aadb60e01b81526001600482015290516001600160a01b03909216916332e6aadb91602480820192606092909190829003018186803b15801561092657600080fd5b505afa92505050801561095a57506040513d606081101561094657600080fd5b508051602082015160409092015190919060015b610963576104e8565b911515835260208301526040820152600160608201526104e8565b600061098983610d1c565b80610998575061099882610d1c565b9392505050565b600081606001516109b2575060016109e8565b604082015115806109c65750428260400151115b156109d3575060016109e8565b60208201516109e4575060016109e8565b5060005b919050565b6006805482919060ff19166001836004811115610a0657fe5b02179055507fafa725e7f44cadb687a7043853fa1a7e7b8f0da74ce87ec546e9420f04da8c1e8160405180826004811115610a3d57fe5b60ff16815260200191505060405180910390a150565b6000613840610a6f836040015142610d7b90919063ffffffff16565b1192915050565b600080610a868360200151610dbd565b90506108cc81610dd4565b600080610aa98460200151856080015160ff16610e0f565b90506000610ac28460200151856080015160ff16610e0f565b90506000610ad08383610e58565b90506000610ade8484610e6e565b90506000610b1a82610b0e670de0b6b3a7640000610b02838863ffffffff610d7b16565b9063ffffffff610e7e16565b9063ffffffff610ed716565b6706f05b59d3b200001098975050505050505050565b600080610b488460200151856080015160ff16610e0f565b90506000610b598460200151610dbd565b90506000610b678284610e58565b90506000610b758385610e6e565b90506000610b9983610b0e670de0b6b3a7640000610b02868463ffffffff610d7b16565b66b1a2bc2ec50000101598975050505050505050565b600080610a868360200151846080015160ff16610e0f565b6000610bd28261099f565b80610be15750610be182610a53565b80610bf15750610bf1848461097e565b80610c005750610c0084610a53565b15610c0d57506000610998565b610c178483610b30565b949350505050565b6001600160a01b038116610c7a576040805162461bcd60e51b815260206004820152601e60248201527f4163636f756e742063616e6e6f74206265207a65726f20616464726573730000604482015290519081900360640190fd5b803b80610cce576040805162461bcd60e51b815260206004820181905260248201527f4163636f756e7420636f64652073697a652063616e6e6f74206265207a65726f604482015290519081900360640190fd5b5050565b600080546040516001600160a01b03909116907f8be0079c531659141344cd1fd0a4f28419497f9722a3daafe3b4186f6b6457e0908390a3600080546001600160a01b0319169055565b60008160600151610d2f575060016109e8565b81516001600160501b0316610d46575060016109e8565b60408201511580610d5a5750428260400151115b15610d67575060016109e8565b60008260200151136109e4575060016109e8565b600061099883836040518060400160405280601e81526020017f536166654d6174683a207375627472616374696f6e206f766572666c6f770000815250610f19565b60006108cc8264e8d4a5100063ffffffff610e7e16565b60058190556040805182815290517f4d29de21de555af78a62fc82dd4bc05e9ae5b0660a37f04729527e0f22780cd39181900360200190a150565b60008060128310610e3857610e31846011198501600a0a63ffffffff610ed716565b9050610998565b601283101561099857610c17846012859003600a0a63ffffffff610e7e16565b6000818310610e675781610998565b5090919050565b600081831015610e675781610998565b600082610e8d575060006108cc565b82820282848281610e9a57fe5b04146109985760405162461bcd60e51b81526004018080602001828103825260218152602001806110706021913960400191505060405180910390fd5b600061099883836040518060400160405280601a81526020017f536166654d6174683a206469766973696f6e206279207a65726f000000000000815250610fb0565b60008184841115610fa85760405162461bcd60e51b81526004018080602001828103825283818151815260200191508051906020019080838360005b83811015610f6d578181015183820152602001610f55565b50505050905090810190601f168015610f9a5780820380516001836020036101000a031916815260200191505b509250505060405180910390fd5b505050900390565b60008183610fff5760405162461bcd60e51b8152602060048201818152835160248401528351909283926044909101919085019080838360008315610f6d578181015183820152602001610f55565b50600083858161100b57fe5b0495945050505050565b6040805160a08101825260008082526020820181905291810182905260608101829052608081019190915290565b60405180608001604052806000151581526020016000815260200160008152602001600015158152509056fe536166654d6174683a206d756c7469706c69636174696f6e206f766572666c6f775072696365466565643a20436861696e6c696e6b206d75737420626520776f726b696e6720616e642063757272656e74a2646970667358221220db8a52fe109cab7072d583cf9dd08a15d5edc7c8286fd03da4f50dd2a7c1651064736f6c634300060b0033",
  "linkReferences": {},
  "deployedLinkReferences": {}
}