{
  "_format": "hh-sol-artifact-1",
  "contractName": "PriceFeedTester",
  "sourceName": "contracts/TestContracts/PriceFeedTester.sol",
  "abi": [
    {
      "anonymous": false,
      "inputs": [
        {
          "indexed": false,
          "internalType": "uint256",
          "name": "_lastGoodPrice",
          "type": "uint256"
        }
      ],
      "name": "LastGoodPriceUpdated",
      "type": "event"
    },
    {
      "anonymous": false,
      "inputs": [
        {
          "indexed": true,
          "internalType": "address",
          "name": "previousOwner",
          "type": "address"
        },
        {
          "indexed": true,
          "internalType": "address",
          "name": "newOwner",
          "type": "address"
        }
      ],
      "name": "OwnershipTransferred",
      "type": "event"
    },
    {
      "anonymous": false,
      "inputs": [
        {
          "indexed": false,
          "internalType": "enum PriceFeed.Status",
          "name": "newStatus",
          "type": "uint8"
        }
      ],
      "name": "PriceFeedStatusChanged",
      "type": "event"
    },
    {
      "inputs": [],
      "name": "DECIMAL_PRECISION",
      "outputs": [
        {
          "internalType": "uint256",
          "name": "",
          "type": "uint256"
        }
      ],
      "stateMutability": "view",
      "type": "function"
    },
    {
      "inputs": [],
      "name": "ETHUSD_TELLOR_REQ_ID",
      "outputs": [
        {
          "internalType": "uint256",
          "name": "",
          "type": "uint256"
        }
      ],
      "stateMutability": "view",
      "type": "function"
    },
    {
      "inputs": [],
      "name": "MAX_PRICE_DEVIATION_FROM_PREVIOUS_ROUND",
      "outputs": [
        {
          "internalType": "uint256",
          "name": "",
          "type": "uint256"
        }
      ],
      "stateMutability": "view",
      "type": "function"
    },
    {
      "inputs": [],
      "name": "MAX_PRICE_DIFFERENCE_BETWEEN_ORACLES",
      "outputs": [
        {
          "internalType": "uint256",
          "name": "",
          "type": "uint256"
        }
      ],
      "stateMutability": "view",
      "type": "function"
    },
    {
      "inputs": [],
      "name": "TARGET_DIGITS",
      "outputs": [
        {
          "internalType": "uint256",
          "name": "",
          "type": "uint256"
        }
      ],
      "stateMutability": "view",
      "type": "function"
    },
    {
      "inputs": [],
      "name": "TELLOR_DIGITS",
      "outputs": [
        {
          "internalType": "uint256",
          "name": "",
          "type": "uint256"
        }
      ],
      "stateMutability": "view",
      "type": "function"
    },
    {
      "inputs": [],
      "name": "TIMEOUT",
      "outputs": [
        {
          "internalType": "uint256",
          "name": "",
          "type": "uint256"
        }
      ],
      "stateMutability": "view",
      "type": "function"
    },
    {
      "inputs": [],
      "name": "fetchPrice",
      "outputs": [
        {
          "internalType": "uint256",
          "name": "",
          "type": "uint256"
        }
      ],
      "stateMutability": "nonpayable",
      "type": "function"
    },
    {
      "inputs": [],
      "name": "isOwner",
      "outputs": [
        {
          "internalType": "bool",
          "name": "",
          "type": "bool"
        }
      ],
      "stateMutability": "view",
      "type": "function"
    },
    {
      "inputs": [],
      "name": "lastGoodPrice",
      "outputs": [
        {
          "internalType": "uint256",
          "name": "",
          "type": "uint256"
        }
      ],
      "stateMutability": "view",
      "type": "function"
    },
    {
      "inputs": [],
      "name": "owner",
      "outputs": [
        {
          "internalType": "address",
          "name": "",
          "type": "address"
        }
      ],
      "stateMutability": "view",
      "type": "function"
    },
    {
      "inputs": [],
      "name": "priceAggregator",
      "outputs": [
        {
          "internalType": "contract AggregatorV3Interface",
          "name": "",
          "type": "address"
        }
      ],
      "stateMutability": "view",
      "type": "function"
    },
    {
      "inputs": [
        {
          "internalType": "address",
          "name": "_priceAggregatorAddress",
          "type": "address"
        },
        {
          "internalType": "address",
          "name": "_tellorCallerAddress",
          "type": "address"
        }
      ],
      "name": "setAddresses",
      "outputs": [],
      "stateMutability": "nonpayable",
      "type": "function"
    },
    {
      "inputs": [
        {
          "internalType": "uint256",
          "name": "_lastGoodPrice",
          "type": "uint256"
        }
      ],
      "name": "setLastGoodPrice",
      "outputs": [],
      "stateMutability": "nonpayable",
      "type": "function"
    },
    {
      "inputs": [
        {
          "internalType": "enum PriceFeed.Status",
          "name": "_status",
          "type": "uint8"
        }
      ],
      "name": "setStatus",
      "outputs": [],
      "stateMutability": "nonpayable",
      "type": "function"
    },
    {
      "inputs": [],
      "name": "status",
      "outputs": [
        {
          "internalType": "enum PriceFeed.Status",
          "name": "",
          "type": "uint8"
        }
      ],
      "stateMutability": "view",
      "type": "function"
    },
    {
      "inputs": [],
      "name": "tellorCaller",
      "outputs": [
        {
          "internalType": "contract ITellorCaller",
          "name": "",
          "type": "address"
        }
      ],
      "stateMutability": "view",
      "type": "function"
    }
  ],
  "bytecode": "0x608060405234801561001057600080fd5b50600080546001600160a01b0319163390811782556040519091907f8be0079c531659141344cd1fd0a4f28419497f9722a3daafe3b4186f6b6457e0908290a36111b28061005f6000396000f3fe608060405234801561001057600080fd5b50600436106100eb5760003560e01c80635f42caf8116100925780635f42caf81461019c5780637c61e3bf146101a45780638da5cb5b146101ac5780638f32d59b146101b457806390107afe146101d0578063a20baee6146101fe578063c521b3f514610206578063ebf8e6c614610223578063f56f48f21461022b576100eb565b80630490be83146100f05780630fdb11cf1461010a5780631be5c92f14610112578063200d2ed21461011a5780632e49d78b146101465780633078fff51461016857806345079cb41461018c57806358a6aa8814610194575b600080fd5b6100f8610233565b60408051918252519081900360200190f35b6100f8610239565b6100f8610581565b610122610586565b6040518082600481111561013257fe5b60ff16815260200191505060405180910390f35b6101666004803603602081101561015c57600080fd5b503560ff1661058f565b005b6101706105b0565b604080516001600160a01b039092168252519081900360200190f35b6100f86105bf565b6100f86105ca565b6100f86105d6565b6101706105db565b6101706105ea565b6101bc6105f9565b604080519115158252519081900360200190f35b610166600480360360408110156101e657600080fd5b506001600160a01b038135811691602001351661060a565b6100f861074d565b6101666004803603602081101561021c57600080fd5b5035610759565b6100f861075e565b6100f8610763565b60055481565b60006102436110d1565b61024b610769565b90506102556110d1565b610267826000015183608001516108b3565b90506102716110ff565b61027961098e565b9050600060065460ff16600481111561028e57fe5b14156103c05761029e8383610a3a565b156102fd576102ac81610a5b565b156102c8576102bb6002610aa9565b600554935050505061057e565b6102d181610b0f565b156102e0576102bb6001610aa9565b6102ea6001610aa9565b6102f381610b32565b935050505061057e565b61030683610b0f565b156103485761031481610a5b565b15610323576102bb6004610aa9565b61032d6003610aa9565b61033681610b0f565b156102ea57600554935050505061057e565b6103528383610b4d565b1561039f5761036081610a5b565b1561036f576102bb6002610aa9565b61037881610b0f565b15610387576102bb6001610aa9565b6103918382610bec565b156102e0576102f383610c6b565b6103a881610a5b565b156103b7576103b76004610aa9565b6102f383610c6b565b600160065460ff1660048111156103d357fe5b141561040b576103e4838383610c83565b156103f3576103b76000610aa9565b6103fc81610a5b565b1561032d576102bb6002610aa9565b600260065460ff16600481111561041e57fe5b141561043e5761042f838383610c83565b156102bb576103b76000610aa9565b600360065460ff16600481111561045157fe5b14156104fa576104618383610a3a565b156104885761046f81610a5b565b1561047e576102bb6002610aa9565b61032d6001610aa9565b61049183610b0f565b156104ae5761049f81610a5b565b1561032d576102bb6004610aa9565b6104b781610a5b565b156104c6576103b76004610aa9565b6104cf81610b0f565b156104e157600554935050505061057e565b6104eb8382610bec565b156102e0576103b76000610aa9565b600460065460ff16600481111561050d57fe5b141561057a5761051d8383610a3a565b1561052c576102bb6002610aa9565b61053583610b0f565b1561054757600554935050505061057e565b610552838383610c83565b15610561576103b76000610aa9565b61056b8383610b4d565b156103b7576102bb6002610aa9565b5050505b90565b601281565b60065460ff1681565b6006805482919060ff191660018360048111156105a857fe5b021790555050565b6001546001600160a01b031681565b66b1a2bc2ec5000081565b6706f05b59d3b2000081565b600181565b6002546001600160a01b031681565b6000546001600160a01b031690565b6000546001600160a01b0316331490565b6106126105f9565b610663576040805162461bcd60e51b815260206004820181905260248201527f4f776e61626c653a2063616c6c6572206973206e6f7420746865206f776e6572604482015290519081900360640190fd5b61066c82610cdb565b61067581610cdb565b600180546001600160a01b038481166001600160a01b03199283161790925560028054928416929091169190911790556006805460ff191690556106b76110d1565b6106bf610769565b90506106c96110d1565b6106db826000015183608001516108b3565b90506106e78282610a3a565b1580156106fa57506106f882610b0f565b155b6107355760405162461bcd60e51b815260040180806020018281038252603081526020018061114d6030913960400191505060405180910390fd5b61073e82610c6b565b50610747610d8e565b50505050565b670de0b6b3a764000081565b600555565b600681565b61384081565b6107716110d1565b600160009054906101000a90046001600160a01b03166001600160a01b031663313ce5676040518163ffffffff1660e01b815260040160206040518083038186803b1580156107bf57600080fd5b505afa9250505080156107e457506040513d60208110156107df57600080fd5b505160015b6107ed5761057e565b60ff166080820152600160009054906101000a90046001600160a01b03166001600160a01b031663feaf968c6040518163ffffffff1660e01b815260040160a06040518083038186803b15801561084357600080fd5b505afa92505050801561088557506040513d60a081101561086357600080fd5b5080516020820151604083015160608401516080909401519293919290919060015b61088e5761057e565b506001600160501b03909316845250602083015260408201526001606082015261057e565b6108bb6110d1565b60015460408051639a6fc8f560e01b81526001600160501b03600019870116600482015290516001600160a01b0390921691639a6fc8f59160248082019260a092909190829003018186803b15801561091357600080fd5b505afa92505050801561095557506040513d60a081101561093357600080fd5b5080516020820151604083015160608401516080909401519293919290919060015b61095e57610988565b506001600160501b039093168452506020830152604082015260ff82166080820152600160608201525b92915050565b6109966110ff565b600254604080516332e6aadb60e01b81526001600482015290516001600160a01b03909216916332e6aadb91602480820192606092909190829003018186803b1580156109e257600080fd5b505afa925050508015610a1657506040513d6060811015610a0257600080fd5b508051602082015160409092015190919060015b610a1f5761057e565b9115158352602083015260408201526001606082015261057e565b6000610a4583610dd8565b80610a545750610a5482610dd8565b9392505050565b60008160600151610a6e57506001610aa4565b60408201511580610a825750428260400151115b15610a8f57506001610aa4565b6020820151610aa057506001610aa4565b5060005b919050565b6006805482919060ff19166001836004811115610ac257fe5b02179055507f5c57579a8214fe4f710c1c56fa829f045b9fa6d225a744225a30c32188064d4e8160405180826004811115610af957fe5b60ff16815260200191505060405180910390a150565b6000613840610b2b836040015142610e3790919063ffffffff16565b1192915050565b600080610b428360200151610e79565b905061098881610e90565b600080610b658460200151856080015160ff16610ecb565b90506000610b7e8460200151856080015160ff16610ecb565b90506000610b8c8383610f14565b90506000610b9a8484610f2a565b90506000610bd682610bca670de0b6b3a7640000610bbe838863ffffffff610e3716565b9063ffffffff610f3a16565b9063ffffffff610f9316565b6706f05b59d3b200001098975050505050505050565b600080610c048460200151856080015160ff16610ecb565b90506000610c158460200151610e79565b90506000610c238284610f14565b90506000610c318385610f2a565b90506000610c5583610bca670de0b6b3a7640000610bbe868463ffffffff610e3716565b66b1a2bc2ec50000101598975050505050505050565b600080610b428360200151846080015160ff16610ecb565b6000610c8e82610a5b565b80610c9d5750610c9d82610b0f565b80610cad5750610cad8484610a3a565b80610cbc5750610cbc84610b0f565b15610cc957506000610a54565b610cd38483610bec565b949350505050565b6001600160a01b038116610d36576040805162461bcd60e51b815260206004820152601e60248201527f4163636f756e742063616e6e6f74206265207a65726f20616464726573730000604482015290519081900360640190fd5b803b80610d8a576040805162461bcd60e51b815260206004820181905260248201527f4163636f756e7420636f64652073697a652063616e6e6f74206265207a65726f604482015290519081900360640190fd5b5050565b600080546040516001600160a01b03909116907f8be0079c531659141344cd1fd0a4f28419497f9722a3daafe3b4186f6b6457e0908390a3600080546001600160a01b0319169055565b60008160600151610deb57506001610aa4565b81516001600160501b0316610e0257506001610aa4565b60408201511580610e165750428260400151115b15610e2357506001610aa4565b6000826020015113610aa057506001610aa4565b6000610a5483836040518060400160405280601e81526020017f536166654d6174683a207375627472616374696f6e206f766572666c6f770000815250610fd5565b60006109888264e8d4a5100063ffffffff610f3a16565b60058190556040805182815290517f4d29de21de555af78a62fc82dd4bc05e9ae5b0660a37f04729527e0f22780cd39181900360200190a150565b60008060128310610ef457610eed846011198501600a0a63ffffffff610f9316565b9050610a54565b6012831015610a5457610cd3846012859003600a0a63ffffffff610f3a16565b6000818310610f235781610a54565b5090919050565b600081831015610f235781610a54565b600082610f4957506000610988565b82820282848281610f5657fe5b0414610a545760405162461bcd60e51b815260040180806020018281038252602181526020018061112c6021913960400191505060405180910390fd5b6000610a5483836040518060400160405280601a81526020017f536166654d6174683a206469766973696f6e206279207a65726f00000000000081525061106c565b600081848411156110645760405162461bcd60e51b81526004018080602001828103825283818151815260200191508051906020019080838360005b83811015611029578181015183820152602001611011565b50505050905090810190601f1680156110565780820380516001836020036101000a031916815260200191505b509250505060405180910390fd5b505050900390565b600081836110bb5760405162461bcd60e51b8152602060048201818152835160248401528351909283926044909101919085019080838360008315611029578181015183820152602001611011565b5060008385816110c757fe5b0495945050505050565b6040805160a08101825260008082526020820181905291810182905260608101829052608081019190915290565b60405180608001604052806000151581526020016000815260200160008152602001600015158152509056fe536166654d6174683a206d756c7469706c69636174696f6e206f766572666c6f775072696365466565643a20436861696e6c696e6b206d75737420626520776f726b696e6720616e642063757272656e74a2646970667358221220aff4882b878602498c5502c24433aa2d4e02241da9ad77a8885dccd768fa317864736f6c634300060b0033",
  "linkReferences": {},
  "deployedLinkReferences": {}
}