{
  "_format": "hh-sol-artifact-1",
  "contractName": "PriceFeed",
  "sourceName": "contracts/PriceFeed.sol",
  "abi": [
    {
      "anonymous": false,
      "inputs": [
        {
          "indexed": false,
          "internalType": "uint256",
          "name": "_lastGoodPrice",
          "type": "uint256"
        }
      ],
      "name": "LastGoodPriceUpdated",
      "type": "event"
    },
    {
      "anonymous": false,
      "inputs": [
        {
          "indexed": true,
          "internalType": "address",
          "name": "previousOwner",
          "type": "address"
        },
        {
          "indexed": true,
          "internalType": "address",
          "name": "newOwner",
          "type": "address"
        }
      ],
      "name": "OwnershipTransferred",
      "type": "event"
    },
    {
      "anonymous": false,
      "inputs": [
        {
          "indexed": false,
          "internalType": "enum PriceFeed.Status",
          "name": "newStatus",
          "type": "uint8"
        }
      ],
      "name": "PriceFeedStatusChanged",
      "type": "event"
    },
    {
      "inputs": [],
      "name": "DECIMAL_PRECISION",
      "outputs": [
        {
          "internalType": "uint256",
          "name": "",
          "type": "uint256"
        }
      ],
      "stateMutability": "view",
      "type": "function"
    },
    {
      "inputs": [],
      "name": "ETHUSD_TELLOR_REQ_ID",
      "outputs": [
        {
          "internalType": "uint256",
          "name": "",
          "type": "uint256"
        }
      ],
      "stateMutability": "view",
      "type": "function"
    },
    {
      "inputs": [],
      "name": "MAX_PRICE_DEVIATION_FROM_PREVIOUS_ROUND",
      "outputs": [
        {
          "internalType": "uint256",
          "name": "",
          "type": "uint256"
        }
      ],
      "stateMutability": "view",
      "type": "function"
    },
    {
      "inputs": [],
      "name": "MAX_PRICE_DIFFERENCE_BETWEEN_ORACLES",
      "outputs": [
        {
          "internalType": "uint256",
          "name": "",
          "type": "uint256"
        }
      ],
      "stateMutability": "view",
      "type": "function"
    },
    {
      "inputs": [],
      "name": "TARGET_DIGITS",
      "outputs": [
        {
          "internalType": "uint256",
          "name": "",
          "type": "uint256"
        }
      ],
      "stateMutability": "view",
      "type": "function"
    },
    {
      "inputs": [],
      "name": "TELLOR_DIGITS",
      "outputs": [
        {
          "internalType": "uint256",
          "name": "",
          "type": "uint256"
        }
      ],
      "stateMutability": "view",
      "type": "function"
    },
    {
      "inputs": [],
      "name": "TIMEOUT",
      "outputs": [
        {
          "internalType": "uint256",
          "name": "",
          "type": "uint256"
        }
      ],
      "stateMutability": "view",
      "type": "function"
    },
    {
      "inputs": [],
      "name": "fetchPrice",
      "outputs": [
        {
          "internalType": "uint256",
          "name": "",
          "type": "uint256"
        }
      ],
      "stateMutability": "nonpayable",
      "type": "function"
    },
    {
      "inputs": [],
      "name": "isOwner",
      "outputs": [
        {
          "internalType": "bool",
          "name": "",
          "type": "bool"
        }
      ],
      "stateMutability": "view",
      "type": "function"
    },
    {
      "inputs": [],
      "name": "lastGoodPrice",
      "outputs": [
        {
          "internalType": "uint256",
          "name": "",
          "type": "uint256"
        }
      ],
      "stateMutability": "view",
      "type": "function"
    },
    {
      "inputs": [],
      "name": "owner",
      "outputs": [
        {
          "internalType": "address",
          "name": "",
          "type": "address"
        }
      ],
      "stateMutability": "view",
      "type": "function"
    },
    {
      "inputs": [],
      "name": "priceAggregator",
      "outputs": [
        {
          "internalType": "contract AggregatorV3Interface",
          "name": "",
          "type": "address"
        }
      ],
      "stateMutability": "view",
      "type": "function"
    },
    {
      "inputs": [
        {
          "internalType": "address",
          "name": "_priceAggregatorAddress",
          "type": "address"
        },
        {
          "internalType": "address",
          "name": "_tellorCallerAddress",
          "type": "address"
        }
      ],
      "name": "setAddresses",
      "outputs": [],
      "stateMutability": "nonpayable",
      "type": "function"
    },
    {
      "inputs": [],
      "name": "status",
      "outputs": [
        {
          "internalType": "enum PriceFeed.Status",
          "name": "",
          "type": "uint8"
        }
      ],
      "stateMutability": "view",
      "type": "function"
    },
    {
      "inputs": [],
      "name": "tellorCaller",
      "outputs": [
        {
          "internalType": "contract ITellorCaller",
          "name": "",
          "type": "address"
        }
      ],
      "stateMutability": "view",
      "type": "function"
    }
  ],
  "bytecode": "0x608060405234801561001057600080fd5b50600080546001600160a01b0319163390811782556040519091907f8be0079c531659141344cd1fd0a4f28419497f9722a3daafe3b4186f6b6457e0908290a36111398061005f6000396000f3fe608060405234801561001057600080fd5b50600436106100d55760003560e01c80635f42caf8116100875780635f42caf8146101645780637c61e3bf1461016c5780638da5cb5b146101745780638f32d59b1461017c57806390107afe14610198578063a20baee6146101c8578063ebf8e6c6146101d0578063f56f48f2146101d8576100d5565b80630490be83146100da5780630fdb11cf146100f45780631be5c92f146100fc578063200d2ed2146101045780633078fff51461013057806345079cb41461015457806358a6aa881461015c575b600080fd5b6100e26101e0565b60408051918252519081900360200190f35b6100e26101e6565b6100e261052e565b61010c610533565b6040518082600481111561011c57fe5b60ff16815260200191505060405180910390f35b61013861053c565b604080516001600160a01b039092168252519081900360200190f35b6100e261054b565b6100e2610556565b6100e2610562565b610138610567565b610138610576565b610184610585565b604080519115158252519081900360200190f35b6101c6600480360360408110156101ae57600080fd5b506001600160a01b0381358116916020013516610596565b005b6100e26106d9565b6100e26106e5565b6100e26106ea565b60055481565b60006101f0611058565b6101f86106f0565b9050610202611058565b6102148260000151836080015161083a565b905061021e611086565b610226610915565b9050600060065460ff16600481111561023b57fe5b141561036d5761024b83836109c1565b156102aa57610259816109e2565b15610275576102686002610a30565b600554935050505061052b565b61027e81610a96565b1561028d576102686001610a30565b6102976001610a30565b6102a081610ab9565b935050505061052b565b6102b383610a96565b156102f5576102c1816109e2565b156102d0576102686004610a30565b6102da6003610a30565b6102e381610a96565b1561029757600554935050505061052b565b6102ff8383610ad4565b1561034c5761030d816109e2565b1561031c576102686002610a30565b61032581610a96565b15610334576102686001610a30565b61033e8382610b73565b1561028d576102a083610bf2565b610355816109e2565b15610364576103646004610a30565b6102a083610bf2565b600160065460ff16600481111561038057fe5b14156103b857610391838383610c0a565b156103a0576103646000610a30565b6103a9816109e2565b156102da576102686002610a30565b600260065460ff1660048111156103cb57fe5b14156103eb576103dc838383610c0a565b15610268576103646000610a30565b600360065460ff1660048111156103fe57fe5b14156104a75761040e83836109c1565b156104355761041c816109e2565b1561042b576102686002610a30565b6102da6001610a30565b61043e83610a96565b1561045b5761044c816109e2565b156102da576102686004610a30565b610464816109e2565b15610473576103646004610a30565b61047c81610a96565b1561048e57600554935050505061052b565b6104988382610b73565b1561028d576103646000610a30565b600460065460ff1660048111156104ba57fe5b1415610527576104ca83836109c1565b156104d9576102686002610a30565b6104e283610a96565b156104f457600554935050505061052b565b6104ff838383610c0a565b1561050e576103646000610a30565b6105188383610ad4565b15610364576102686002610a30565b5050505b90565b601281565b60065460ff1681565b6001546001600160a01b031681565b66b1a2bc2ec5000081565b6706f05b59d3b2000081565b600181565b6002546001600160a01b031681565b6000546001600160a01b031690565b6000546001600160a01b0316331490565b61059e610585565b6105ef576040805162461bcd60e51b815260206004820181905260248201527f4f776e61626c653a2063616c6c6572206973206e6f7420746865206f776e6572604482015290519081900360640190fd5b6105f882610c62565b61060181610c62565b600180546001600160a01b038481166001600160a01b03199283161790925560028054928416929091169190911790556006805460ff19169055610643611058565b61064b6106f0565b9050610655611058565b6106678260000151836080015161083a565b905061067382826109c1565b158015610686575061068482610a96565b155b6106c15760405162461bcd60e51b81526004018080602001828103825260308152602001806110d46030913960400191505060405180910390fd5b6106ca82610bf2565b506106d3610d15565b50505050565b670de0b6b3a764000081565b600681565b61384081565b6106f8611058565b600160009054906101000a90046001600160a01b03166001600160a01b031663313ce5676040518163ffffffff1660e01b815260040160206040518083038186803b15801561074657600080fd5b505afa92505050801561076b57506040513d602081101561076657600080fd5b505160015b6107745761052b565b60ff166080820152600160009054906101000a90046001600160a01b03166001600160a01b031663feaf968c6040518163ffffffff1660e01b815260040160a06040518083038186803b1580156107ca57600080fd5b505afa92505050801561080c57506040513d60a08110156107ea57600080fd5b5080516020820151604083015160608401516080909401519293919290919060015b6108155761052b565b506001600160501b03909316845250602083015260408201526001606082015261052b565b610842611058565b60015460408051639a6fc8f560e01b81526001600160501b03600019870116600482015290516001600160a01b0390921691639a6fc8f59160248082019260a092909190829003018186803b15801561089a57600080fd5b505afa9250505080156108dc57506040513d60a08110156108ba57600080fd5b5080516020820151604083015160608401516080909401519293919290919060015b6108e55761090f565b506001600160501b039093168452506020830152604082015260ff82166080820152600160608201525b92915050565b61091d611086565b600254604080516332e6aadb60e01b81526001600482015290516001600160a01b03909216916332e6aadb91602480820192606092909190829003018186803b15801561096957600080fd5b505afa92505050801561099d57506040513d606081101561098957600080fd5b508051602082015160409092015190919060015b6109a65761052b565b9115158352602083015260408201526001606082015261052b565b60006109cc83610d5f565b806109db57506109db82610d5f565b9392505050565b600081606001516109f557506001610a2b565b60408201511580610a095750428260400151115b15610a1657506001610a2b565b6020820151610a2757506001610a2b565b5060005b919050565b6006805482919060ff19166001836004811115610a4957fe5b02179055507f5c57579a8214fe4f710c1c56fa829f045b9fa6d225a744225a30c32188064d4e8160405180826004811115610a8057fe5b60ff16815260200191505060405180910390a150565b6000613840610ab2836040015142610dbe90919063ffffffff16565b1192915050565b600080610ac98360200151610e00565b905061090f81610e17565b600080610aec8460200151856080015160ff16610e52565b90506000610b058460200151856080015160ff16610e52565b90506000610b138383610e9b565b90506000610b218484610eb1565b90506000610b5d82610b51670de0b6b3a7640000610b45838863ffffffff610dbe16565b9063ffffffff610ec116565b9063ffffffff610f1a16565b6706f05b59d3b200001098975050505050505050565b600080610b8b8460200151856080015160ff16610e52565b90506000610b9c8460200151610e00565b90506000610baa8284610e9b565b90506000610bb88385610eb1565b90506000610bdc83610b51670de0b6b3a7640000610b45868463ffffffff610dbe16565b66b1a2bc2ec50000101598975050505050505050565b600080610ac98360200151846080015160ff16610e52565b6000610c15826109e2565b80610c245750610c2482610a96565b80610c345750610c3484846109c1565b80610c435750610c4384610a96565b15610c50575060006109db565b610c5a8483610b73565b949350505050565b6001600160a01b038116610cbd576040805162461bcd60e51b815260206004820152601e60248201527f4163636f756e742063616e6e6f74206265207a65726f20616464726573730000604482015290519081900360640190fd5b803b80610d11576040805162461bcd60e51b815260206004820181905260248201527f4163636f756e7420636f64652073697a652063616e6e6f74206265207a65726f604482015290519081900360640190fd5b5050565b600080546040516001600160a01b03909116907f8be0079c531659141344cd1fd0a4f28419497f9722a3daafe3b4186f6b6457e0908390a3600080546001600160a01b0319169055565b60008160600151610d7257506001610a2b565b81516001600160501b0316610d8957506001610a2b565b60408201511580610d9d5750428260400151115b15610daa57506001610a2b565b6000826020015113610a2757506001610a2b565b60006109db83836040518060400160405280601e81526020017f536166654d6174683a207375627472616374696f6e206f766572666c6f770000815250610f5c565b600061090f8264e8d4a5100063ffffffff610ec116565b60058190556040805182815290517f4d29de21de555af78a62fc82dd4bc05e9ae5b0660a37f04729527e0f22780cd39181900360200190a150565b60008060128310610e7b57610e74846011198501600a0a63ffffffff610f1a16565b90506109db565b60128310156109db57610c5a846012859003600a0a63ffffffff610ec116565b6000818310610eaa57816109db565b5090919050565b600081831015610eaa57816109db565b600082610ed05750600061090f565b82820282848281610edd57fe5b04146109db5760405162461bcd60e51b81526004018080602001828103825260218152602001806110b36021913960400191505060405180910390fd5b60006109db83836040518060400160405280601a81526020017f536166654d6174683a206469766973696f6e206279207a65726f000000000000815250610ff3565b60008184841115610feb5760405162461bcd60e51b81526004018080602001828103825283818151815260200191508051906020019080838360005b83811015610fb0578181015183820152602001610f98565b50505050905090810190601f168015610fdd5780820380516001836020036101000a031916815260200191505b509250505060405180910390fd5b505050900390565b600081836110425760405162461bcd60e51b8152602060048201818152835160248401528351909283926044909101919085019080838360008315610fb0578181015183820152602001610f98565b50600083858161104e57fe5b0495945050505050565b6040805160a08101825260008082526020820181905291810182905260608101829052608081019190915290565b60405180608001604052806000151581526020016000815260200160008152602001600015158152509056fe536166654d6174683a206d756c7469706c69636174696f6e206f766572666c6f775072696365466565643a20436861696e6c696e6b206d75737420626520776f726b696e6720616e642063757272656e74a2646970667358221220da108151d4049809ad3eecbc295f955eaae06f456f7dc95ecc4add13f2c47aa164736f6c634300060b0033",
  "linkReferences": {},
  "deployedLinkReferences": {}
}