{
  "_format": "hh-sol-artifact-1",
  "contractName": "PriceFeed",
  "sourceName": "contracts/PriceFeed.sol",
  "abi": [
    {
      "anonymous": false,
      "inputs": [
        {
          "indexed": false,
          "internalType": "uint256",
          "name": "_lastGoodPrice",
          "type": "uint256"
        }
      ],
      "name": "LastGoodPriceUpdated",
      "type": "event"
    },
    {
      "anonymous": false,
      "inputs": [
        {
          "indexed": true,
          "internalType": "address",
          "name": "previousOwner",
          "type": "address"
        },
        {
          "indexed": true,
          "internalType": "address",
          "name": "newOwner",
          "type": "address"
        }
      ],
      "name": "OwnershipTransferred",
      "type": "event"
    },
    {
      "anonymous": false,
      "inputs": [
        {
          "indexed": false,
          "internalType": "enum PriceFeed.Status",
          "name": "newStatus",
          "type": "uint8"
        }
      ],
      "name": "PriceFeedStatusChanged",
      "type": "event"
    },
    {
      "inputs": [],
      "name": "DECIMAL_PRECISION",
      "outputs": [
        {
          "internalType": "uint256",
          "name": "",
          "type": "uint256"
        }
      ],
      "stateMutability": "view",
      "type": "function"
    },
    {
      "inputs": [],
      "name": "ETHUSD_TELLOR_REQ_ID",
      "outputs": [
        {
          "internalType": "uint256",
          "name": "",
          "type": "uint256"
        }
      ],
      "stateMutability": "view",
      "type": "function"
    },
    {
      "inputs": [],
      "name": "MAX_PRICE_DEVIATION_FROM_PREVIOUS_ROUND",
      "outputs": [
        {
          "internalType": "uint256",
          "name": "",
          "type": "uint256"
        }
      ],
      "stateMutability": "view",
      "type": "function"
    },
    {
      "inputs": [],
      "name": "MAX_PRICE_DIFFERENCE_BETWEEN_ORACLES",
      "outputs": [
        {
          "internalType": "uint256",
          "name": "",
          "type": "uint256"
        }
      ],
      "stateMutability": "view",
      "type": "function"
    },
    {
      "inputs": [],
      "name": "NAME",
      "outputs": [
        {
          "internalType": "string",
          "name": "",
          "type": "string"
        }
      ],
      "stateMutability": "view",
      "type": "function"
    },
    {
      "inputs": [],
      "name": "TARGET_DIGITS",
      "outputs": [
        {
          "internalType": "uint256",
          "name": "",
          "type": "uint256"
        }
      ],
      "stateMutability": "view",
      "type": "function"
    },
    {
      "inputs": [],
      "name": "TELLOR_DIGITS",
      "outputs": [
        {
          "internalType": "uint256",
          "name": "",
          "type": "uint256"
        }
      ],
      "stateMutability": "view",
      "type": "function"
    },
    {
      "inputs": [],
      "name": "TIMEOUT",
      "outputs": [
        {
          "internalType": "uint256",
          "name": "",
          "type": "uint256"
        }
      ],
      "stateMutability": "view",
      "type": "function"
    },
    {
      "inputs": [],
      "name": "fetchPrice",
      "outputs": [
        {
          "internalType": "uint256",
          "name": "",
          "type": "uint256"
        }
      ],
      "stateMutability": "nonpayable",
      "type": "function"
    },
    {
      "inputs": [],
      "name": "isOwner",
      "outputs": [
        {
          "internalType": "bool",
          "name": "",
          "type": "bool"
        }
      ],
      "stateMutability": "view",
      "type": "function"
    },
    {
      "inputs": [],
      "name": "lastGoodPrice",
      "outputs": [
        {
          "internalType": "uint256",
          "name": "",
          "type": "uint256"
        }
      ],
      "stateMutability": "view",
      "type": "function"
    },
    {
      "inputs": [],
      "name": "owner",
      "outputs": [
        {
          "internalType": "address",
          "name": "",
          "type": "address"
        }
      ],
      "stateMutability": "view",
      "type": "function"
    },
    {
      "inputs": [],
      "name": "priceAggregator",
      "outputs": [
        {
          "internalType": "contract AggregatorV3Interface",
          "name": "",
          "type": "address"
        }
      ],
      "stateMutability": "view",
      "type": "function"
    },
    {
      "inputs": [
        {
          "internalType": "address",
          "name": "_priceAggregatorAddress",
          "type": "address"
        },
        {
          "internalType": "address",
          "name": "_tellorCallerAddress",
          "type": "address"
        }
      ],
      "name": "setAddresses",
      "outputs": [],
      "stateMutability": "nonpayable",
      "type": "function"
    },
    {
      "inputs": [],
      "name": "status",
      "outputs": [
        {
          "internalType": "enum PriceFeed.Status",
          "name": "",
          "type": "uint8"
        }
      ],
      "stateMutability": "view",
      "type": "function"
    },
    {
      "inputs": [],
      "name": "tellorCaller",
      "outputs": [
        {
          "internalType": "contract ITellorCaller",
          "name": "",
          "type": "address"
        }
      ],
      "stateMutability": "view",
      "type": "function"
    }
  ],
  "bytecode": "0x608060405234801561001057600080fd5b50600080546001600160a01b0319163390811782556040519091907f8be0079c531659141344cd1fd0a4f28419497f9722a3daafe3b4186f6b6457e0908290a36111e68061005f6000396000f3fe608060405234801561001057600080fd5b50600436106100e05760003560e01c80637c61e3bf116100875780637c61e3bf146101775780638da5cb5b1461017f5780638f32d59b1461018757806390107afe146101a3578063a20baee6146101d3578063a3f4df7e146101db578063ebf8e6c614610258578063f56f48f214610260576100e0565b80630490be83146100e55780630fdb11cf146100ff5780631be5c92f14610107578063200d2ed21461010f5780633078fff51461013b57806345079cb41461015f57806358a6aa88146101675780635f42caf81461016f575b600080fd5b6100ed610268565b60408051918252519081900360200190f35b6100ed61026e565b6100ed6105b6565b6101176105bb565b6040518082600481111561012757fe5b60ff16815260200191505060405180910390f35b6101436105c4565b604080516001600160a01b039092168252519081900360200190f35b6100ed6105d3565b6100ed6105de565b6100ed6105ea565b6101436105ef565b6101436105fe565b61018f61060d565b604080519115158252519081900360200190f35b6101d1600480360360408110156101b957600080fd5b506001600160a01b038135811691602001351661061e565b005b6100ed610761565b6101e361076d565b6040805160208082528351818301528351919283929083019185019080838360005b8381101561021d578181015183820152602001610205565b50505050905090810190601f16801561024a5780820380516001836020036101000a031916815260200191505b509250505060405180910390f35b6100ed610792565b6100ed610797565b60055481565b6000610278611105565b61028061079d565b905061028a611105565b61029c826000015183608001516108e7565b90506102a6611133565b6102ae6109c2565b9050600060065460ff1660048111156102c357fe5b14156103f5576102d38383610a6e565b15610332576102e181610a8f565b156102fd576102f06002610add565b60055493505050506105b3565b61030681610b43565b15610315576102f06001610add565b61031f6001610add565b61032881610b66565b93505050506105b3565b61033b83610b43565b1561037d5761034981610a8f565b15610358576102f06004610add565b6103626003610add565b61036b81610b43565b1561031f5760055493505050506105b3565b6103878383610b81565b156103d45761039581610a8f565b156103a4576102f06002610add565b6103ad81610b43565b156103bc576102f06001610add565b6103c68382610c20565b156103155761032883610c9f565b6103dd81610a8f565b156103ec576103ec6004610add565b61032883610c9f565b600160065460ff16600481111561040857fe5b141561044057610419838383610cb7565b15610428576103ec6000610add565b61043181610a8f565b15610362576102f06002610add565b600260065460ff16600481111561045357fe5b141561047357610464838383610cb7565b156102f0576103ec6000610add565b600360065460ff16600481111561048657fe5b141561052f576104968383610a6e565b156104bd576104a481610a8f565b156104b3576102f06002610add565b6103626001610add565b6104c683610b43565b156104e3576104d481610a8f565b15610362576102f06004610add565b6104ec81610a8f565b156104fb576103ec6004610add565b61050481610b43565b156105165760055493505050506105b3565b6105208382610c20565b15610315576103ec6000610add565b600460065460ff16600481111561054257fe5b14156105af576105528383610a6e565b15610561576102f06002610add565b61056a83610b43565b1561057c5760055493505050506105b3565b610587838383610cb7565b15610596576103ec6000610add565b6105a08383610b81565b156103ec576102f06002610add565b5050505b90565b601281565b60065460ff1681565b6001546001600160a01b031681565b66b1a2bc2ec5000081565b6706f05b59d3b2000081565b600181565b6002546001600160a01b031681565b6000546001600160a01b031690565b6000546001600160a01b0316331490565b61062661060d565b610677576040805162461bcd60e51b815260206004820181905260248201527f4f776e61626c653a2063616c6c6572206973206e6f7420746865206f776e6572604482015290519081900360640190fd5b61068082610d0f565b61068981610d0f565b600180546001600160a01b038481166001600160a01b03199283161790925560028054928416929091169190911790556006805460ff191690556106cb611105565b6106d361079d565b90506106dd611105565b6106ef826000015183608001516108e7565b90506106fb8282610a6e565b15801561070e575061070c82610b43565b155b6107495760405162461bcd60e51b81526004018080602001828103825260308152602001806111816030913960400191505060405180910390fd5b61075282610c9f565b5061075b610dc2565b50505050565b670de0b6b3a764000081565b60405180604001604052806009815260200168141c9a58d95199595960ba1b81525081565b600681565b61384081565b6107a5611105565b600160009054906101000a90046001600160a01b03166001600160a01b031663313ce5676040518163ffffffff1660e01b815260040160206040518083038186803b1580156107f357600080fd5b505afa92505050801561081857506040513d602081101561081357600080fd5b505160015b610821576105b3565b60ff166080820152600160009054906101000a90046001600160a01b03166001600160a01b031663feaf968c6040518163ffffffff1660e01b815260040160a06040518083038186803b15801561087757600080fd5b505afa9250505080156108b957506040513d60a081101561089757600080fd5b5080516020820151604083015160608401516080909401519293919290919060015b6108c2576105b3565b506001600160501b0390931684525060208301526040820152600160608201526105b3565b6108ef611105565b60015460408051639a6fc8f560e01b81526001600160501b03600019870116600482015290516001600160a01b0390921691639a6fc8f59160248082019260a092909190829003018186803b15801561094757600080fd5b505afa92505050801561098957506040513d60a081101561096757600080fd5b5080516020820151604083015160608401516080909401519293919290919060015b610992576109bc565b506001600160501b039093168452506020830152604082015260ff82166080820152600160608201525b92915050565b6109ca611133565b600254604080516332e6aadb60e01b81526001600482015290516001600160a01b03909216916332e6aadb91602480820192606092909190829003018186803b158015610a1657600080fd5b505afa925050508015610a4a57506040513d6060811015610a3657600080fd5b508051602082015160409092015190919060015b610a53576105b3565b911515835260208301526040820152600160608201526105b3565b6000610a7983610e0c565b80610a885750610a8882610e0c565b9392505050565b60008160600151610aa257506001610ad8565b60408201511580610ab65750428260400151115b15610ac357506001610ad8565b6020820151610ad457506001610ad8565b5060005b919050565b6006805482919060ff19166001836004811115610af657fe5b02179055507f5c57579a8214fe4f710c1c56fa829f045b9fa6d225a744225a30c32188064d4e8160405180826004811115610b2d57fe5b60ff16815260200191505060405180910390a150565b6000613840610b5f836040015142610e6b90919063ffffffff16565b1192915050565b600080610b768360200151610ead565b90506109bc81610ec4565b600080610b998460200151856080015160ff16610eff565b90506000610bb28460200151856080015160ff16610eff565b90506000610bc08383610f48565b90506000610bce8484610f5e565b90506000610c0a82610bfe670de0b6b3a7640000610bf2838863ffffffff610e6b16565b9063ffffffff610f6e16565b9063ffffffff610fc716565b6706f05b59d3b200001098975050505050505050565b600080610c388460200151856080015160ff16610eff565b90506000610c498460200151610ead565b90506000610c578284610f48565b90506000610c658385610f5e565b90506000610c8983610bfe670de0b6b3a7640000610bf2868463ffffffff610e6b16565b66b1a2bc2ec50000101598975050505050505050565b600080610b768360200151846080015160ff16610eff565b6000610cc282610a8f565b80610cd15750610cd182610b43565b80610ce15750610ce18484610a6e565b80610cf05750610cf084610b43565b15610cfd57506000610a88565b610d078483610c20565b949350505050565b6001600160a01b038116610d6a576040805162461bcd60e51b815260206004820152601e60248201527f4163636f756e742063616e6e6f74206265207a65726f20616464726573730000604482015290519081900360640190fd5b803b80610dbe576040805162461bcd60e51b815260206004820181905260248201527f4163636f756e7420636f64652073697a652063616e6e6f74206265207a65726f604482015290519081900360640190fd5b5050565b600080546040516001600160a01b03909116907f8be0079c531659141344cd1fd0a4f28419497f9722a3daafe3b4186f6b6457e0908390a3600080546001600160a01b0319169055565b60008160600151610e1f57506001610ad8565b81516001600160501b0316610e3657506001610ad8565b60408201511580610e4a5750428260400151115b15610e5757506001610ad8565b6000826020015113610ad457506001610ad8565b6000610a8883836040518060400160405280601e81526020017f536166654d6174683a207375627472616374696f6e206f766572666c6f770000815250611009565b60006109bc8264e8d4a5100063ffffffff610f6e16565b60058190556040805182815290517f4d29de21de555af78a62fc82dd4bc05e9ae5b0660a37f04729527e0f22780cd39181900360200190a150565b60008060128310610f2857610f21846011198501600a0a63ffffffff610fc716565b9050610a88565b6012831015610a8857610d07846012859003600a0a63ffffffff610f6e16565b6000818310610f575781610a88565b5090919050565b600081831015610f575781610a88565b600082610f7d575060006109bc565b82820282848281610f8a57fe5b0414610a885760405162461bcd60e51b81526004018080602001828103825260218152602001806111606021913960400191505060405180910390fd5b6000610a8883836040518060400160405280601a81526020017f536166654d6174683a206469766973696f6e206279207a65726f0000000000008152506110a0565b600081848411156110985760405162461bcd60e51b81526004018080602001828103825283818151815260200191508051906020019080838360005b8381101561105d578181015183820152602001611045565b50505050905090810190601f16801561108a5780820380516001836020036101000a031916815260200191505b509250505060405180910390fd5b505050900390565b600081836110ef5760405162461bcd60e51b815260206004820181815283516024840152835190928392604490910191908501908083836000831561105d578181015183820152602001611045565b5060008385816110fb57fe5b0495945050505050565b6040805160a08101825260008082526020820181905291810182905260608101829052608081019190915290565b60405180608001604052806000151581526020016000815260200160008152602001600015158152509056fe536166654d6174683a206d756c7469706c69636174696f6e206f766572666c6f775072696365466565643a20436861696e6c696e6b206d75737420626520776f726b696e6720616e642063757272656e74a264697066735822122016dd8016e1c4378daa47ef3e95079078b3c2a1bfc44efdec1780fe7c1eb4009b64736f6c634300060b0033",
  "linkReferences": {},
  "deployedLinkReferences": {}
}