{
  "_format": "hh-sol-artifact-1",
  "contractName": "PriceFeedTester",
  "sourceName": "contracts/TestContracts/PriceFeedTester.sol",
  "abi": [
    {
      "anonymous": false,
      "inputs": [
        {
          "indexed": false,
          "internalType": "uint256",
          "name": "_lastGoodPrice",
          "type": "uint256"
        }
      ],
      "name": "LastGoodPriceUpdated",
      "type": "event"
    },
    {
      "anonymous": false,
      "inputs": [
        {
          "indexed": true,
          "internalType": "address",
          "name": "previousOwner",
          "type": "address"
        },
        {
          "indexed": true,
          "internalType": "address",
          "name": "newOwner",
          "type": "address"
        }
      ],
      "name": "OwnershipTransferred",
      "type": "event"
    },
    {
      "anonymous": false,
      "inputs": [
        {
          "indexed": false,
          "internalType": "enum PriceFeed.Status",
          "name": "newStatus",
          "type": "uint8"
        }
      ],
      "name": "StatusChanged",
      "type": "event"
    },
    {
      "inputs": [],
      "name": "DECIMAL_PRECISION",
      "outputs": [
        {
          "internalType": "uint256",
          "name": "",
          "type": "uint256"
        }
      ],
      "stateMutability": "view",
      "type": "function"
    },
    {
      "inputs": [],
      "name": "ETHUSD_TELLOR_REQ_ID",
      "outputs": [
        {
          "internalType": "uint256",
          "name": "",
          "type": "uint256"
        }
      ],
      "stateMutability": "view",
      "type": "function"
    },
    {
      "inputs": [],
      "name": "MAX_PRICE_DEVIATION_FROM_PREVIOUS_ROUND",
      "outputs": [
        {
          "internalType": "uint256",
          "name": "",
          "type": "uint256"
        }
      ],
      "stateMutability": "view",
      "type": "function"
    },
    {
      "inputs": [],
      "name": "MAX_PRICE_DIFFERENCE_BETWEEN_ORACLES",
      "outputs": [
        {
          "internalType": "uint256",
          "name": "",
          "type": "uint256"
        }
      ],
      "stateMutability": "view",
      "type": "function"
    },
    {
      "inputs": [],
      "name": "TARGET_DIGITS",
      "outputs": [
        {
          "internalType": "uint256",
          "name": "",
          "type": "uint256"
        }
      ],
      "stateMutability": "view",
      "type": "function"
    },
    {
      "inputs": [],
      "name": "TELLOR_DIGITS",
      "outputs": [
        {
          "internalType": "uint256",
          "name": "",
          "type": "uint256"
        }
      ],
      "stateMutability": "view",
      "type": "function"
    },
    {
      "inputs": [],
      "name": "TIMEOUT",
      "outputs": [
        {
          "internalType": "uint256",
          "name": "",
          "type": "uint256"
        }
      ],
      "stateMutability": "view",
      "type": "function"
    },
    {
      "inputs": [],
      "name": "fetchPrice",
      "outputs": [
        {
          "internalType": "uint256",
          "name": "",
          "type": "uint256"
        }
      ],
      "stateMutability": "nonpayable",
      "type": "function"
    },
    {
      "inputs": [],
      "name": "isOwner",
      "outputs": [
        {
          "internalType": "bool",
          "name": "",
          "type": "bool"
        }
      ],
      "stateMutability": "view",
      "type": "function"
    },
    {
      "inputs": [],
      "name": "lastGoodPrice",
      "outputs": [
        {
          "internalType": "uint256",
          "name": "",
          "type": "uint256"
        }
      ],
      "stateMutability": "view",
      "type": "function"
    },
    {
      "inputs": [],
      "name": "owner",
      "outputs": [
        {
          "internalType": "address",
          "name": "",
          "type": "address"
        }
      ],
      "stateMutability": "view",
      "type": "function"
    },
    {
      "inputs": [],
      "name": "priceAggregator",
      "outputs": [
        {
          "internalType": "contract AggregatorV3Interface",
          "name": "",
          "type": "address"
        }
      ],
      "stateMutability": "view",
      "type": "function"
    },
    {
      "inputs": [
        {
          "internalType": "address",
          "name": "_priceAggregatorAddress",
          "type": "address"
        },
        {
          "internalType": "address",
          "name": "_tellorCallerAddress",
          "type": "address"
        }
      ],
      "name": "setAddresses",
      "outputs": [],
      "stateMutability": "nonpayable",
      "type": "function"
    },
    {
      "inputs": [
        {
          "internalType": "uint256",
          "name": "_lastGoodPrice",
          "type": "uint256"
        }
      ],
      "name": "setLastGoodPrice",
      "outputs": [],
      "stateMutability": "nonpayable",
      "type": "function"
    },
    {
      "inputs": [
        {
          "internalType": "enum PriceFeed.Status",
          "name": "_status",
          "type": "uint8"
        }
      ],
      "name": "setStatus",
      "outputs": [],
      "stateMutability": "nonpayable",
      "type": "function"
    },
    {
      "inputs": [],
      "name": "status",
      "outputs": [
        {
          "internalType": "enum PriceFeed.Status",
          "name": "",
          "type": "uint8"
        }
      ],
      "stateMutability": "view",
      "type": "function"
    },
    {
      "inputs": [],
      "name": "tellorCaller",
      "outputs": [
        {
          "internalType": "contract ITellorCaller",
          "name": "",
          "type": "address"
        }
      ],
      "stateMutability": "view",
      "type": "function"
    }
  ],
  "bytecode": "0x608060405234801561001057600080fd5b50600080546001600160a01b0319163390811782556040519091907f8be0079c531659141344cd1fd0a4f28419497f9722a3daafe3b4186f6b6457e0908290a361116f8061005f6000396000f3fe608060405234801561001057600080fd5b50600436106100eb5760003560e01c80635f42caf8116100925780635f42caf81461019c5780637c61e3bf146101a45780638da5cb5b146101ac5780638f32d59b146101b457806390107afe146101d0578063a20baee6146101fe578063c521b3f514610206578063ebf8e6c614610223578063f56f48f21461022b576100eb565b80630490be83146100f05780630fdb11cf1461010a5780631be5c92f14610112578063200d2ed21461011a5780632e49d78b146101465780633078fff51461016857806345079cb41461018c57806358a6aa8814610194575b600080fd5b6100f8610233565b60408051918252519081900360200190f35b6100f8610239565b6100f861053e565b610122610543565b6040518082600481111561013257fe5b60ff16815260200191505060405180910390f35b6101666004803603602081101561015c57600080fd5b503560ff1661054c565b005b61017061056d565b604080516001600160a01b039092168252519081900360200190f35b6100f861057c565b6100f8610587565b6100f8610593565b610170610598565b6101706105a7565b6101bc6105b6565b604080519115158252519081900360200190f35b610166600480360360408110156101e657600080fd5b506001600160a01b03813581169160200135166105c7565b6100f861070a565b6101666004803603602081101561021c57600080fd5b5035610716565b6100f861071b565b6100f8610720565b60055481565b600061024361108e565b61024b610726565b905061025561108e565b61026782600001518360800151610870565b90506102716110bc565b61027961094b565b9050600060065460ff16600481111561028e57fe5b14156103c05761029e83836109f7565b156102fd576102ac81610a18565b156102c8576102bb6002610a66565b600554935050505061053b565b6102d181610acc565b156102e0576102bb6001610a66565b6102ea6001610a66565b6102f381610aef565b935050505061053b565b61030683610acc565b156103485761031481610a18565b15610323576102bb6004610a66565b61032d6003610a66565b61033681610acc565b156102ea57600554935050505061053b565b6103528383610b0a565b1561039f5761036081610a18565b1561036f576102bb6002610a66565b61037881610acc565b15610387576102bb6001610a66565b6103918382610ba9565b156102e0576102f383610c28565b6103a881610a18565b156103b7576103b76004610a66565b6102f383610c28565b600160065460ff1660048111156103d357fe5b141561040b576103e4838383610c40565b156103f3576103b76000610a66565b6103fc81610a18565b1561032d576102bb6002610a66565b600260065460ff16600481111561041e57fe5b141561043e5761042f838383610c40565b156102bb576103b76000610a66565b600360065460ff16600481111561045157fe5b14156104d05761046183836109f7565b156104885761046f81610a18565b1561047e576102bb6002610a66565b61032d6001610a66565b61049183610acc565b156104ae5761049f81610a18565b1561032d576102bb6004610a66565b6104b781610a18565b156104c6576103b76004610a66565b6103b76000610a66565b600460065460ff1660048111156104e357fe5b1415610537576104f383836109f7565b15610502576102bb6002610a66565b61050b83610acc565b1561051d57600554935050505061053b565b610528838383610c40565b156103b7576103b76000610a66565b5050505b90565b601281565b60065460ff1681565b6006805482919060ff1916600183600481111561056557fe5b021790555050565b6001546001600160a01b031681565b66b1a2bc2ec5000081565b6706f05b59d3b2000081565b600181565b6002546001600160a01b031681565b6000546001600160a01b031690565b6000546001600160a01b0316331490565b6105cf6105b6565b610620576040805162461bcd60e51b815260206004820181905260248201527f4f776e61626c653a2063616c6c6572206973206e6f7420746865206f776e6572604482015290519081900360640190fd5b61062982610c98565b61063281610c98565b600180546001600160a01b038481166001600160a01b03199283161790925560028054928416929091169190911790556006805460ff1916905561067461108e565b61067c610726565b905061068661108e565b61069882600001518360800151610870565b90506106a482826109f7565b1580156106b757506106b582610acc565b155b6106f25760405162461bcd60e51b815260040180806020018281038252603081526020018061110a6030913960400191505060405180910390fd5b6106fb82610c28565b50610704610d4b565b50505050565b670de0b6b3a764000081565b600555565b600681565b61384081565b61072e61108e565b600160009054906101000a90046001600160a01b03166001600160a01b031663313ce5676040518163ffffffff1660e01b815260040160206040518083038186803b15801561077c57600080fd5b505afa9250505080156107a157506040513d602081101561079c57600080fd5b505160015b6107aa5761053b565b60ff166080820152600160009054906101000a90046001600160a01b03166001600160a01b031663feaf968c6040518163ffffffff1660e01b815260040160a06040518083038186803b15801561080057600080fd5b505afa92505050801561084257506040513d60a081101561082057600080fd5b5080516020820151604083015160608401516080909401519293919290919060015b61084b5761053b565b506001600160501b03909316845250602083015260408201526001606082015261053b565b61087861108e565b60015460408051639a6fc8f560e01b81526001600160501b03600019870116600482015290516001600160a01b0390921691639a6fc8f59160248082019260a092909190829003018186803b1580156108d057600080fd5b505afa92505050801561091257506040513d60a08110156108f057600080fd5b5080516020820151604083015160608401516080909401519293919290919060015b61091b57610945565b506001600160501b039093168452506020830152604082015260ff82166080820152600160608201525b92915050565b6109536110bc565b600254604080516332e6aadb60e01b81526001600482015290516001600160a01b03909216916332e6aadb91602480820192606092909190829003018186803b15801561099f57600080fd5b505afa9250505080156109d357506040513d60608110156109bf57600080fd5b508051602082015160409092015190919060015b6109dc5761053b565b9115158352602083015260408201526001606082015261053b565b6000610a0283610d95565b80610a115750610a1182610d95565b9392505050565b60008160600151610a2b57506001610a61565b60408201511580610a3f5750428260400151115b15610a4c57506001610a61565b6020820151610a5d57506001610a61565b5060005b919050565b6006805482919060ff19166001836004811115610a7f57fe5b02179055507fafa725e7f44cadb687a7043853fa1a7e7b8f0da74ce87ec546e9420f04da8c1e8160405180826004811115610ab657fe5b60ff16815260200191505060405180910390a150565b6000613840610ae8836040015142610df490919063ffffffff16565b1192915050565b600080610aff8360200151610e36565b905061094581610e4d565b600080610b228460200151856080015160ff16610e88565b90506000610b3b8460200151856080015160ff16610e88565b90506000610b498383610ed1565b90506000610b578484610ee7565b90506000610b9382610b87670de0b6b3a7640000610b7b838863ffffffff610df416565b9063ffffffff610ef716565b9063ffffffff610f5016565b6706f05b59d3b200001098975050505050505050565b600080610bc18460200151856080015160ff16610e88565b90506000610bd28460200151610e36565b90506000610be08284610ed1565b90506000610bee8385610ee7565b90506000610c1283610b87670de0b6b3a7640000610b7b868463ffffffff610df416565b66b1a2bc2ec50000101598975050505050505050565b600080610aff8360200151846080015160ff16610e88565b6000610c4b82610a18565b80610c5a5750610c5a82610acc565b80610c6a5750610c6a84846109f7565b80610c795750610c7984610acc565b15610c8657506000610a11565b610c908483610ba9565b949350505050565b6001600160a01b038116610cf3576040805162461bcd60e51b815260206004820152601e60248201527f4163636f756e742063616e6e6f74206265207a65726f20616464726573730000604482015290519081900360640190fd5b803b80610d47576040805162461bcd60e51b815260206004820181905260248201527f4163636f756e7420636f64652073697a652063616e6e6f74206265207a65726f604482015290519081900360640190fd5b5050565b600080546040516001600160a01b03909116907f8be0079c531659141344cd1fd0a4f28419497f9722a3daafe3b4186f6b6457e0908390a3600080546001600160a01b0319169055565b60008160600151610da857506001610a61565b81516001600160501b0316610dbf57506001610a61565b60408201511580610dd35750428260400151115b15610de057506001610a61565b6000826020015113610a5d57506001610a61565b6000610a1183836040518060400160405280601e81526020017f536166654d6174683a207375627472616374696f6e206f766572666c6f770000815250610f92565b60006109458264e8d4a5100063ffffffff610ef716565b60058190556040805182815290517f4d29de21de555af78a62fc82dd4bc05e9ae5b0660a37f04729527e0f22780cd39181900360200190a150565b60008060128310610eb157610eaa846011198501600a0a63ffffffff610f5016565b9050610a11565b6012831015610a1157610c90846012859003600a0a63ffffffff610ef716565b6000818310610ee05781610a11565b5090919050565b600081831015610ee05781610a11565b600082610f0657506000610945565b82820282848281610f1357fe5b0414610a115760405162461bcd60e51b81526004018080602001828103825260218152602001806110e96021913960400191505060405180910390fd5b6000610a1183836040518060400160405280601a81526020017f536166654d6174683a206469766973696f6e206279207a65726f000000000000815250611029565b600081848411156110215760405162461bcd60e51b81526004018080602001828103825283818151815260200191508051906020019080838360005b83811015610fe6578181015183820152602001610fce565b50505050905090810190601f1680156110135780820380516001836020036101000a031916815260200191505b509250505060405180910390fd5b505050900390565b600081836110785760405162461bcd60e51b8152602060048201818152835160248401528351909283926044909101919085019080838360008315610fe6578181015183820152602001610fce565b50600083858161108457fe5b0495945050505050565b6040805160a08101825260008082526020820181905291810182905260608101829052608081019190915290565b60405180608001604052806000151581526020016000815260200160008152602001600015158152509056fe536166654d6174683a206d756c7469706c69636174696f6e206f766572666c6f775072696365466565643a20436861696e6c696e6b206d75737420626520776f726b696e6720616e642063757272656e74a2646970667358221220ef1046b8fae448e18a16e02de47a5d52990cdee5c0d1ff129fa2cc2de7f118f164736f6c634300060b0033",
  "linkReferences": {},
  "deployedLinkReferences": {}
}