{
  "_format": "hh-sol-artifact-1",
  "contractName": "PriceFeedTestnet",
  "sourceName": "contracts/TestContracts/PriceFeedTestnet.sol",
  "abi": [
    {
      "inputs": [],
      "name": "getPrice",
      "outputs": [
        {
          "internalType": "uint256",
          "name": "",
          "type": "uint256"
        }
      ],
      "stateMutability": "view",
      "type": "function"
    },
    {
      "inputs": [
        {
          "internalType": "uint256",
          "name": "price",
          "type": "uint256"
        }
      ],
      "name": "setPrice",
      "outputs": [
        {
          "internalType": "bool",
          "name": "",
          "type": "bool"
        }
      ],
      "stateMutability": "nonpayable",
      "type": "function"
    }
  ],
  "bytecode": "0x6080604052680ad78ebc5ac620000060005534801561001d57600080fd5b5060c18061002c6000396000f3fe6080604052348015600f57600080fd5b506004361060325760003560e01c806391b7f5ed14603757806398d5fdca146065575b600080fd5b605160048036036020811015604b57600080fd5b5035607d565b604080519115158252519081900360200190f35b606b6085565b60408051918252519081900360200190f35b600055600190565b6000549056fea264697066735822122007589ee650090985e15d3001431708c7276f4c097d31039770ffe7a36582500e64736f6c634300060b0033",
  "linkReferences": {},
  "deployedLinkReferences": {}
}