{
  "_format": "hh-sol-artifact-1",
  "contractName": "PriceFeedTester",
  "sourceName": "contracts/TestContracts/PriceFeedTester.sol",
  "abi": [
    {
      "anonymous": false,
      "inputs": [
        {
          "indexed": false,
          "internalType": "uint256",
          "name": "_lastGoodPrice",
          "type": "uint256"
        }
      ],
      "name": "LastGoodPriceUpdated",
      "type": "event"
    },
    {
      "anonymous": false,
      "inputs": [
        {
          "indexed": true,
          "internalType": "address",
          "name": "previousOwner",
          "type": "address"
        },
        {
          "indexed": true,
          "internalType": "address",
          "name": "newOwner",
          "type": "address"
        }
      ],
      "name": "OwnershipTransferred",
      "type": "event"
    },
    {
      "anonymous": false,
      "inputs": [
        {
          "indexed": false,
          "internalType": "enum PriceFeed.Status",
          "name": "newStatus",
          "type": "uint8"
        }
      ],
      "name": "PriceFeedStatusChanged",
      "type": "event"
    },
    {
      "inputs": [],
      "name": "DECIMAL_PRECISION",
      "outputs": [
        {
          "internalType": "uint256",
          "name": "",
          "type": "uint256"
        }
      ],
      "stateMutability": "view",
      "type": "function"
    },
    {
      "inputs": [],
      "name": "ETHUSD_TELLOR_REQ_ID",
      "outputs": [
        {
          "internalType": "uint256",
          "name": "",
          "type": "uint256"
        }
      ],
      "stateMutability": "view",
      "type": "function"
    },
    {
      "inputs": [],
      "name": "MAX_PRICE_DEVIATION_FROM_PREVIOUS_ROUND",
      "outputs": [
        {
          "internalType": "uint256",
          "name": "",
          "type": "uint256"
        }
      ],
      "stateMutability": "view",
      "type": "function"
    },
    {
      "inputs": [],
      "name": "MAX_PRICE_DIFFERENCE_BETWEEN_ORACLES",
      "outputs": [
        {
          "internalType": "uint256",
          "name": "",
          "type": "uint256"
        }
      ],
      "stateMutability": "view",
      "type": "function"
    },
    {
      "inputs": [],
      "name": "NAME",
      "outputs": [
        {
          "internalType": "string",
          "name": "",
          "type": "string"
        }
      ],
      "stateMutability": "view",
      "type": "function"
    },
    {
      "inputs": [],
      "name": "TARGET_DIGITS",
      "outputs": [
        {
          "internalType": "uint256",
          "name": "",
          "type": "uint256"
        }
      ],
      "stateMutability": "view",
      "type": "function"
    },
    {
      "inputs": [],
      "name": "TELLOR_DIGITS",
      "outputs": [
        {
          "internalType": "uint256",
          "name": "",
          "type": "uint256"
        }
      ],
      "stateMutability": "view",
      "type": "function"
    },
    {
      "inputs": [],
      "name": "TIMEOUT",
      "outputs": [
        {
          "internalType": "uint256",
          "name": "",
          "type": "uint256"
        }
      ],
      "stateMutability": "view",
      "type": "function"
    },
    {
      "inputs": [],
      "name": "fetchPrice",
      "outputs": [
        {
          "internalType": "uint256",
          "name": "",
          "type": "uint256"
        }
      ],
      "stateMutability": "nonpayable",
      "type": "function"
    },
    {
      "inputs": [],
      "name": "isOwner",
      "outputs": [
        {
          "internalType": "bool",
          "name": "",
          "type": "bool"
        }
      ],
      "stateMutability": "view",
      "type": "function"
    },
    {
      "inputs": [],
      "name": "lastGoodPrice",
      "outputs": [
        {
          "internalType": "uint256",
          "name": "",
          "type": "uint256"
        }
      ],
      "stateMutability": "view",
      "type": "function"
    },
    {
      "inputs": [],
      "name": "owner",
      "outputs": [
        {
          "internalType": "address",
          "name": "",
          "type": "address"
        }
      ],
      "stateMutability": "view",
      "type": "function"
    },
    {
      "inputs": [],
      "name": "priceAggregator",
      "outputs": [
        {
          "internalType": "contract AggregatorV3Interface",
          "name": "",
          "type": "address"
        }
      ],
      "stateMutability": "view",
      "type": "function"
    },
    {
      "inputs": [
        {
          "internalType": "address",
          "name": "_priceAggregatorAddress",
          "type": "address"
        },
        {
          "internalType": "address",
          "name": "_tellorCallerAddress",
          "type": "address"
        }
      ],
      "name": "setAddresses",
      "outputs": [],
      "stateMutability": "nonpayable",
      "type": "function"
    },
    {
      "inputs": [
        {
          "internalType": "uint256",
          "name": "_lastGoodPrice",
          "type": "uint256"
        }
      ],
      "name": "setLastGoodPrice",
      "outputs": [],
      "stateMutability": "nonpayable",
      "type": "function"
    },
    {
      "inputs": [
        {
          "internalType": "enum PriceFeed.Status",
          "name": "_status",
          "type": "uint8"
        }
      ],
      "name": "setStatus",
      "outputs": [],
      "stateMutability": "nonpayable",
      "type": "function"
    },
    {
      "inputs": [],
      "name": "status",
      "outputs": [
        {
          "internalType": "enum PriceFeed.Status",
          "name": "",
          "type": "uint8"
        }
      ],
      "stateMutability": "view",
      "type": "function"
    },
    {
      "inputs": [],
      "name": "tellorCaller",
      "outputs": [
        {
          "internalType": "contract ITellorCaller",
          "name": "",
          "type": "address"
        }
      ],
      "stateMutability": "view",
      "type": "function"
    }
  ],
  "bytecode": "0x608060405234801561001057600080fd5b50600080546001600160a01b0319163390811782556040519091907f8be0079c531659141344cd1fd0a4f28419497f9722a3daafe3b4186f6b6457e0908290a361125f8061005f6000396000f3fe608060405234801561001057600080fd5b50600436106100f65760003560e01c80637c61e3bf116100925780637c61e3bf146101af5780638da5cb5b146101b75780638f32d59b146101bf57806390107afe146101db578063a20baee614610209578063a3f4df7e14610211578063c521b3f51461028e578063ebf8e6c6146102ab578063f56f48f2146102b3576100f6565b80630490be83146100fb5780630fdb11cf146101155780631be5c92f1461011d578063200d2ed2146101255780632e49d78b146101515780633078fff51461017357806345079cb41461019757806358a6aa881461019f5780635f42caf8146101a7575b600080fd5b6101036102bb565b60408051918252519081900360200190f35b6101036102c1565b610103610609565b61012d61060e565b6040518082600481111561013d57fe5b60ff16815260200191505060405180910390f35b6101716004803603602081101561016757600080fd5b503560ff16610617565b005b61017b610638565b604080516001600160a01b039092168252519081900360200190f35b610103610647565b610103610652565b61010361065e565b61017b610663565b61017b610672565b6101c7610681565b604080519115158252519081900360200190f35b610171600480360360408110156101f157600080fd5b506001600160a01b0381358116916020013516610692565b6101036107d5565b6102196107e1565b6040805160208082528351818301528351919283929083019185019080838360005b8381101561025357818101518382015260200161023b565b50505050905090810190601f1680156102805780820380516001836020036101000a031916815260200191505b509250505060405180910390f35b610171600480360360208110156102a457600080fd5b5035610806565b61010361080b565b610103610810565b60055481565b60006102cb61117e565b6102d3610816565b90506102dd61117e565b6102ef82600001518360800151610960565b90506102f96111ac565b610301610a3b565b9050600060065460ff16600481111561031657fe5b1415610448576103268383610ae7565b156103855761033481610b08565b15610350576103436002610b56565b6005549350505050610606565b61035981610bbc565b15610368576103436001610b56565b6103726001610b56565b61037b81610bdf565b9350505050610606565b61038e83610bbc565b156103d05761039c81610b08565b156103ab576103436004610b56565b6103b56003610b56565b6103be81610bbc565b15610372576005549350505050610606565b6103da8383610bfa565b15610427576103e881610b08565b156103f7576103436002610b56565b61040081610bbc565b1561040f576103436001610b56565b6104198382610c99565b156103685761037b83610d18565b61043081610b08565b1561043f5761043f6004610b56565b61037b83610d18565b600160065460ff16600481111561045b57fe5b14156104935761046c838383610d30565b1561047b5761043f6000610b56565b61048481610b08565b156103b5576103436002610b56565b600260065460ff1660048111156104a657fe5b14156104c6576104b7838383610d30565b156103435761043f6000610b56565b600360065460ff1660048111156104d957fe5b1415610582576104e98383610ae7565b15610510576104f781610b08565b15610506576103436002610b56565b6103b56001610b56565b61051983610bbc565b156105365761052781610b08565b156103b5576103436004610b56565b61053f81610b08565b1561054e5761043f6004610b56565b61055781610bbc565b15610569576005549350505050610606565b6105738382610c99565b156103685761043f6000610b56565b600460065460ff16600481111561059557fe5b1415610602576105a58383610ae7565b156105b4576103436002610b56565b6105bd83610bbc565b156105cf576005549350505050610606565b6105da838383610d30565b156105e95761043f6000610b56565b6105f38383610bfa565b1561043f576103436002610b56565b5050505b90565b601281565b60065460ff1681565b6006805482919060ff1916600183600481111561063057fe5b021790555050565b6001546001600160a01b031681565b66b1a2bc2ec5000081565b6706f05b59d3b2000081565b600181565b6002546001600160a01b031681565b6000546001600160a01b031690565b6000546001600160a01b0316331490565b61069a610681565b6106eb576040805162461bcd60e51b815260206004820181905260248201527f4f776e61626c653a2063616c6c6572206973206e6f7420746865206f776e6572604482015290519081900360640190fd5b6106f482610d88565b6106fd81610d88565b600180546001600160a01b038481166001600160a01b03199283161790925560028054928416929091169190911790556006805460ff1916905561073f61117e565b610747610816565b905061075161117e565b61076382600001518360800151610960565b905061076f8282610ae7565b158015610782575061078082610bbc565b155b6107bd5760405162461bcd60e51b81526004018080602001828103825260308152602001806111fa6030913960400191505060405180910390fd5b6107c682610d18565b506107cf610e3b565b50505050565b670de0b6b3a764000081565b60405180604001604052806009815260200168141c9a58d95199595960ba1b81525081565b600555565b600681565b61384081565b61081e61117e565b600160009054906101000a90046001600160a01b03166001600160a01b031663313ce5676040518163ffffffff1660e01b815260040160206040518083038186803b15801561086c57600080fd5b505afa92505050801561089157506040513d602081101561088c57600080fd5b505160015b61089a57610606565b60ff166080820152600160009054906101000a90046001600160a01b03166001600160a01b031663feaf968c6040518163ffffffff1660e01b815260040160a06040518083038186803b1580156108f057600080fd5b505afa92505050801561093257506040513d60a081101561091057600080fd5b5080516020820151604083015160608401516080909401519293919290919060015b61093b57610606565b506001600160501b039093168452506020830152604082015260016060820152610606565b61096861117e565b60015460408051639a6fc8f560e01b81526001600160501b03600019870116600482015290516001600160a01b0390921691639a6fc8f59160248082019260a092909190829003018186803b1580156109c057600080fd5b505afa925050508015610a0257506040513d60a08110156109e057600080fd5b5080516020820151604083015160608401516080909401519293919290919060015b610a0b57610a35565b506001600160501b039093168452506020830152604082015260ff82166080820152600160608201525b92915050565b610a436111ac565b600254604080516332e6aadb60e01b81526001600482015290516001600160a01b03909216916332e6aadb91602480820192606092909190829003018186803b158015610a8f57600080fd5b505afa925050508015610ac357506040513d6060811015610aaf57600080fd5b508051602082015160409092015190919060015b610acc57610606565b91151583526020830152604082015260016060820152610606565b6000610af283610e85565b80610b015750610b0182610e85565b9392505050565b60008160600151610b1b57506001610b51565b60408201511580610b2f5750428260400151115b15610b3c57506001610b51565b6020820151610b4d57506001610b51565b5060005b919050565b6006805482919060ff19166001836004811115610b6f57fe5b02179055507f5c57579a8214fe4f710c1c56fa829f045b9fa6d225a744225a30c32188064d4e8160405180826004811115610ba657fe5b60ff16815260200191505060405180910390a150565b6000613840610bd8836040015142610ee490919063ffffffff16565b1192915050565b600080610bef8360200151610f26565b9050610a3581610f3d565b600080610c128460200151856080015160ff16610f78565b90506000610c2b8460200151856080015160ff16610f78565b90506000610c398383610fc1565b90506000610c478484610fd7565b90506000610c8382610c77670de0b6b3a7640000610c6b838863ffffffff610ee416565b9063ffffffff610fe716565b9063ffffffff61104016565b6706f05b59d3b200001098975050505050505050565b600080610cb18460200151856080015160ff16610f78565b90506000610cc28460200151610f26565b90506000610cd08284610fc1565b90506000610cde8385610fd7565b90506000610d0283610c77670de0b6b3a7640000610c6b868463ffffffff610ee416565b66b1a2bc2ec50000101598975050505050505050565b600080610bef8360200151846080015160ff16610f78565b6000610d3b82610b08565b80610d4a5750610d4a82610bbc565b80610d5a5750610d5a8484610ae7565b80610d695750610d6984610bbc565b15610d7657506000610b01565b610d808483610c99565b949350505050565b6001600160a01b038116610de3576040805162461bcd60e51b815260206004820152601e60248201527f4163636f756e742063616e6e6f74206265207a65726f20616464726573730000604482015290519081900360640190fd5b803b80610e37576040805162461bcd60e51b815260206004820181905260248201527f4163636f756e7420636f64652073697a652063616e6e6f74206265207a65726f604482015290519081900360640190fd5b5050565b600080546040516001600160a01b03909116907f8be0079c531659141344cd1fd0a4f28419497f9722a3daafe3b4186f6b6457e0908390a3600080546001600160a01b0319169055565b60008160600151610e9857506001610b51565b81516001600160501b0316610eaf57506001610b51565b60408201511580610ec35750428260400151115b15610ed057506001610b51565b6000826020015113610b4d57506001610b51565b6000610b0183836040518060400160405280601e81526020017f536166654d6174683a207375627472616374696f6e206f766572666c6f770000815250611082565b6000610a358264e8d4a5100063ffffffff610fe716565b60058190556040805182815290517f4d29de21de555af78a62fc82dd4bc05e9ae5b0660a37f04729527e0f22780cd39181900360200190a150565b60008060128310610fa157610f9a846011198501600a0a63ffffffff61104016565b9050610b01565b6012831015610b0157610d80846012859003600a0a63ffffffff610fe716565b6000818310610fd05781610b01565b5090919050565b600081831015610fd05781610b01565b600082610ff657506000610a35565b8282028284828161100357fe5b0414610b015760405162461bcd60e51b81526004018080602001828103825260218152602001806111d96021913960400191505060405180910390fd5b6000610b0183836040518060400160405280601a81526020017f536166654d6174683a206469766973696f6e206279207a65726f000000000000815250611119565b600081848411156111115760405162461bcd60e51b81526004018080602001828103825283818151815260200191508051906020019080838360005b838110156110d65781810151838201526020016110be565b50505050905090810190601f1680156111035780820380516001836020036101000a031916815260200191505b509250505060405180910390fd5b505050900390565b600081836111685760405162461bcd60e51b81526020600482018181528351602484015283519092839260449091019190850190808383600083156110d65781810151838201526020016110be565b50600083858161117457fe5b0495945050505050565b6040805160a08101825260008082526020820181905291810182905260608101829052608081019190915290565b60405180608001604052806000151581526020016000815260200160008152602001600015158152509056fe536166654d6174683a206d756c7469706c69636174696f6e206f766572666c6f775072696365466565643a20436861696e6c696e6b206d75737420626520776f726b696e6720616e642063757272656e74a2646970667358221220bc06eede700e6db44e26a889a89820153013199c031b5a02156743c8df15f81264736f6c634300060b0033",
  "linkReferences": {},
  "deployedLinkReferences": {}
}