{
  "_format": "hh-sol-artifact-1",
  "contractName": "PriceFeed",
  "sourceName": "contracts/PriceFeed.sol",
  "abi": [
    {
      "anonymous": false,
      "inputs": [
        {
          "indexed": true,
          "internalType": "address",
          "name": "previousOwner",
          "type": "address"
        },
        {
          "indexed": true,
          "internalType": "address",
          "name": "newOwner",
          "type": "address"
        }
      ],
      "name": "OwnershipTransferred",
      "type": "event"
    },
    {
      "inputs": [],
      "name": "TARGET_DIGITS",
      "outputs": [
        {
          "internalType": "uint256",
          "name": "",
          "type": "uint256"
        }
      ],
      "stateMutability": "view",
      "type": "function"
    },
    {
      "inputs": [],
      "name": "getPrice",
      "outputs": [
        {
          "internalType": "uint256",
          "name": "",
          "type": "uint256"
        }
      ],
      "stateMutability": "view",
      "type": "function"
    },
    {
      "inputs": [],
      "name": "isOwner",
      "outputs": [
        {
          "internalType": "bool",
          "name": "",
          "type": "bool"
        }
      ],
      "stateMutability": "view",
      "type": "function"
    },
    {
      "inputs": [],
      "name": "owner",
      "outputs": [
        {
          "internalType": "address",
          "name": "",
          "type": "address"
        }
      ],
      "stateMutability": "view",
      "type": "function"
    },
    {
      "inputs": [],
      "name": "priceAggregator",
      "outputs": [
        {
          "internalType": "contract AggregatorV3Interface",
          "name": "",
          "type": "address"
        }
      ],
      "stateMutability": "view",
      "type": "function"
    },
    {
      "inputs": [
        {
          "internalType": "address",
          "name": "_priceAggregatorAddress",
          "type": "address"
        }
      ],
      "name": "setAddresses",
      "outputs": [],
      "stateMutability": "nonpayable",
      "type": "function"
    }
  ],
  "bytecode": "0x608060405234801561001057600080fd5b50600080546001600160a01b0319163390811782556040519091907f8be0079c531659141344cd1fd0a4f28419497f9722a3daafe3b4186f6b6457e0908290a36105ec8061005f6000396000f3fe608060405234801561001057600080fd5b50600436106100625760003560e01c80631be5c92f146100675780633078fff51461008157806381d3c435146100a55780638da5cb5b146100cd5780638f32d59b146100d557806398d5fdca146100f1575b600080fd5b61006f6100f9565b60408051918252519081900360200190f35b6100896100fe565b604080516001600160a01b039092168252519081900360200190f35b6100cb600480360360208110156100bb57600080fd5b50356001600160a01b031661010d565b005b61008961018c565b6100dd61019b565b604080519115158252519081900360200190f35b61006f6101ac565b601281565b6001546001600160a01b031681565b61011561019b565b610166576040805162461bcd60e51b815260206004820181905260248201527f4f776e61626c653a2063616c6c6572206973206e6f7420746865206f776e6572604482015290519081900360640190fd5b600180546001600160a01b0319166001600160a01b038316179055610189610395565b50565b6000546001600160a01b031690565b6000546001600160a01b0316331490565b6000806000600160009054906101000a90046001600160a01b03166001600160a01b031663feaf968c6040518163ffffffff1660e01b815260040160a06040518083038186803b1580156101ff57600080fd5b505afa158015610213573d6000803e3d6000fd5b505050506040513d60a081101561022957600080fd5b506020810151606090910151909250905080158015906102495750428111155b6102845760405162461bcd60e51b815260040180806020018281038252603d815260200180610526603d913960400191505060405180910390fd5b60008212156102c45760405162461bcd60e51b81526004018080602001828103825260338152602001806105846033913960400191505060405180910390fd5b6001546040805163313ce56760e01b815290516000926001600160a01b03169163313ce567916004808301926020929190829003018186803b15801561030957600080fd5b505afa15801561031d573d6000803e3d6000fd5b505050506040513d602081101561033357600080fd5b5051905082601260ff831611156103655761035e8160111960ff851601600a0a63ffffffff6103df16565b905061038d565b60128260ff16101561038d5761038a8160ff8416601203600a0a63ffffffff61042a16565b90505b935050505090565b600080546040516001600160a01b03909116907f8be0079c531659141344cd1fd0a4f28419497f9722a3daafe3b4186f6b6457e0908390a3600080546001600160a01b0319169055565b600061042183836040518060400160405280601a81526020017f536166654d6174683a206469766973696f6e206279207a65726f000000000000815250610483565b90505b92915050565b60008261043957506000610424565b8282028284828161044657fe5b04146104215760405162461bcd60e51b81526004018080602001828103825260218152602001806105636021913960400191505060405180910390fd5b6000818361050f5760405162461bcd60e51b81526004018080602001828103825283818151815260200191508051906020019080838360005b838110156104d45781810151838201526020016104bc565b50505050905090810190601f1680156105015780820380516001836020036101000a031916815260200191505b509250505060405180910390fd5b50600083858161051b57fe5b049594505050505056fe5072696365466565643a2070726963652074696d657374616d702066726f6d2061676772656761746f7220697320302c206f7220696e20667574757265536166654d6174683a206d756c7469706c69636174696f6e206f766572666c6f775072696365466565643a20707269636520616e737765722066726f6d2061676772656761746f72206973206e65676174697665a2646970667358221220e485be36e285cb0d910b52775438abca1cb5349f6c615f1e65e7198edf38bd0264736f6c634300060b0033",
  "linkReferences": {},
  "deployedLinkReferences": {}
}