{
  "_format": "hh-sol-artifact-1",
  "contractName": "SortedTroves",
  "sourceName": "contracts/SortedTroves.sol",
  "abi": [
    {
      "anonymous": false,
      "inputs": [
        {
          "indexed": false,
          "internalType": "address",
          "name": "_borrowerOperationsAddress",
          "type": "address"
        }
      ],
      "name": "BorrowerOperationsAddressChanged",
      "type": "event"
    },
    {
      "anonymous": false,
      "inputs": [
        {
          "indexed": true,
          "internalType": "address",
          "name": "previousOwner",
          "type": "address"
        },
        {
          "indexed": true,
          "internalType": "address",
          "name": "newOwner",
          "type": "address"
        }
      ],
      "name": "OwnershipTransferred",
      "type": "event"
    },
    {
      "anonymous": false,
      "inputs": [
        {
          "indexed": false,
          "internalType": "address",
          "name": "_sortedDoublyLLAddress",
          "type": "address"
        }
      ],
      "name": "SortedTrovesAddressChanged",
      "type": "event"
    },
    {
      "anonymous": false,
      "inputs": [
        {
          "indexed": false,
          "internalType": "address",
          "name": "_troveManagerAddress",
          "type": "address"
        }
      ],
      "name": "TroveManagerAddressChanged",
      "type": "event"
    },
    {
      "inputs": [],
      "name": "borrowerOperationsAddress",
      "outputs": [
        {
          "internalType": "address",
          "name": "",
          "type": "address"
        }
      ],
      "stateMutability": "view",
      "type": "function"
    },
    {
      "inputs": [
        {
          "internalType": "address",
          "name": "_id",
          "type": "address"
        }
      ],
      "name": "contains",
      "outputs": [
        {
          "internalType": "bool",
          "name": "",
          "type": "bool"
        }
      ],
      "stateMutability": "view",
      "type": "function"
    },
    {
      "inputs": [],
      "name": "data",
      "outputs": [
        {
          "internalType": "address",
          "name": "head",
          "type": "address"
        },
        {
          "internalType": "address",
          "name": "tail",
          "type": "address"
        },
        {
          "internalType": "uint256",
          "name": "maxSize",
          "type": "uint256"
        },
        {
          "internalType": "uint256",
          "name": "size",
          "type": "uint256"
        }
      ],
      "stateMutability": "view",
      "type": "function"
    },
    {
      "inputs": [
        {
          "internalType": "uint256",
          "name": "_NICR",
          "type": "uint256"
        },
        {
          "internalType": "address",
          "name": "_prevId",
          "type": "address"
        },
        {
          "internalType": "address",
          "name": "_nextId",
          "type": "address"
        }
      ],
      "name": "findInsertPosition",
      "outputs": [
        {
          "internalType": "address",
          "name": "",
          "type": "address"
        },
        {
          "internalType": "address",
          "name": "",
          "type": "address"
        }
      ],
      "stateMutability": "view",
      "type": "function"
    },
    {
      "inputs": [],
      "name": "getFirst",
      "outputs": [
        {
          "internalType": "address",
          "name": "",
          "type": "address"
        }
      ],
      "stateMutability": "view",
      "type": "function"
    },
    {
      "inputs": [],
      "name": "getLast",
      "outputs": [
        {
          "internalType": "address",
          "name": "",
          "type": "address"
        }
      ],
      "stateMutability": "view",
      "type": "function"
    },
    {
      "inputs": [],
      "name": "getMaxSize",
      "outputs": [
        {
          "internalType": "uint256",
          "name": "",
          "type": "uint256"
        }
      ],
      "stateMutability": "view",
      "type": "function"
    },
    {
      "inputs": [
        {
          "internalType": "address",
          "name": "_id",
          "type": "address"
        }
      ],
      "name": "getNext",
      "outputs": [
        {
          "internalType": "address",
          "name": "",
          "type": "address"
        }
      ],
      "stateMutability": "view",
      "type": "function"
    },
    {
      "inputs": [
        {
          "internalType": "address",
          "name": "_id",
          "type": "address"
        }
      ],
      "name": "getPrev",
      "outputs": [
        {
          "internalType": "address",
          "name": "",
          "type": "address"
        }
      ],
      "stateMutability": "view",
      "type": "function"
    },
    {
      "inputs": [],
      "name": "getSize",
      "outputs": [
        {
          "internalType": "uint256",
          "name": "",
          "type": "uint256"
        }
      ],
      "stateMutability": "view",
      "type": "function"
    },
    {
      "inputs": [
        {
          "internalType": "address",
          "name": "_id",
          "type": "address"
        },
        {
          "internalType": "uint256",
          "name": "_NICR",
          "type": "uint256"
        },
        {
          "internalType": "address",
          "name": "_prevId",
          "type": "address"
        },
        {
          "internalType": "address",
          "name": "_nextId",
          "type": "address"
        }
      ],
      "name": "insert",
      "outputs": [],
      "stateMutability": "nonpayable",
      "type": "function"
    },
    {
      "inputs": [],
      "name": "isEmpty",
      "outputs": [
        {
          "internalType": "bool",
          "name": "",
          "type": "bool"
        }
      ],
      "stateMutability": "view",
      "type": "function"
    },
    {
      "inputs": [],
      "name": "isFull",
      "outputs": [
        {
          "internalType": "bool",
          "name": "",
          "type": "bool"
        }
      ],
      "stateMutability": "view",
      "type": "function"
    },
    {
      "inputs": [],
      "name": "isOwner",
      "outputs": [
        {
          "internalType": "bool",
          "name": "",
          "type": "bool"
        }
      ],
      "stateMutability": "view",
      "type": "function"
    },
    {
      "inputs": [],
      "name": "owner",
      "outputs": [
        {
          "internalType": "address",
          "name": "",
          "type": "address"
        }
      ],
      "stateMutability": "view",
      "type": "function"
    },
    {
      "inputs": [
        {
          "internalType": "address",
          "name": "_id",
          "type": "address"
        },
        {
          "internalType": "uint256",
          "name": "_newNICR",
          "type": "uint256"
        },
        {
          "internalType": "address",
          "name": "_prevId",
          "type": "address"
        },
        {
          "internalType": "address",
          "name": "_nextId",
          "type": "address"
        }
      ],
      "name": "reInsert",
      "outputs": [],
      "stateMutability": "nonpayable",
      "type": "function"
    },
    {
      "inputs": [
        {
          "internalType": "address",
          "name": "_id",
          "type": "address"
        }
      ],
      "name": "remove",
      "outputs": [],
      "stateMutability": "nonpayable",
      "type": "function"
    },
    {
      "inputs": [
        {
          "internalType": "uint256",
          "name": "_size",
          "type": "uint256"
        },
        {
          "internalType": "address",
          "name": "_troveManagerAddress",
          "type": "address"
        },
        {
          "internalType": "address",
          "name": "_borrowerOperationsAddress",
          "type": "address"
        }
      ],
      "name": "setParams",
      "outputs": [],
      "stateMutability": "nonpayable",
      "type": "function"
    },
    {
      "inputs": [],
      "name": "troveManager",
      "outputs": [
        {
          "internalType": "contract ITroveManager",
          "name": "",
          "type": "address"
        }
      ],
      "stateMutability": "view",
      "type": "function"
    },
    {
      "inputs": [
        {
          "internalType": "uint256",
          "name": "_NICR",
          "type": "uint256"
        },
        {
          "internalType": "address",
          "name": "_prevId",
          "type": "address"
        },
        {
          "internalType": "address",
          "name": "_nextId",
          "type": "address"
        }
      ],
      "name": "validInsertPosition",
      "outputs": [
        {
          "internalType": "bool",
          "name": "",
          "type": "bool"
        }
      ],
      "stateMutability": "view",
      "type": "function"
    }
  ],
  "bytecode": "0x608060405234801561001057600080fd5b50600080546001600160a01b0319163390811782556040519091907f8be0079c531659141344cd1fd0a4f28419497f9722a3daafe3b4186f6b6457e0908290a361179e8061005f6000396000f3fe608060405234801561001057600080fd5b506004361061012c5760003560e01c8063681fe70c116100ad578063b72703ac11610071578063b72703ac1461035f578063b7f8cf9b14610385578063babd3d9a1461038d578063de8fa43114610395578063f376d7981461039d5761012c565b8063681fe70c146102e757806373d4a13a146102ef578063765e0159146103295780638da5cb5b1461034f5780638f32d59b146103575761012c565b8063416980dc116100f4578063416980dc1461020957806346f7cf87146102635780634d6228311461029f5780635dbe47e8146102a757806363e1d57c146102cd5761012c565b80631e2231431461013157806329092d0e146101555780632be212601461017d5780633d83908a146101b95780633fce12d5146101c1575b600080fd5b6101396103d1565b604080516001600160a01b039092168252519081900360200190f35b61017b6004803603602081101561016b57600080fd5b50356001600160a01b03166103e0565b005b61017b6004803603608081101561019357600080fd5b506001600160a01b038135811691602081013591604082013581169160600135166103f4565b6101396104a9565b6101f5600480360360608110156101d757600080fd5b508035906001600160a01b03602082013581169160400135166104b8565b604080519115158252519081900360200190f35b61023d6004803603606081101561021f57600080fd5b508035906001600160a01b03602082013581169160400135166104db565b604080516001600160a01b03938416815291909216602082015281519081900390910190f35b61017b6004803603608081101561027957600080fd5b506001600160a01b03813581169160208101359160408201358116916060013516610505565b61013961051a565b6101f5600480360360208110156102bd57600080fd5b50356001600160a01b0316610529565b6102d5610547565b60408051918252519081900360200190f35b6101f561054d565b6102f7610554565b604080516001600160a01b03958616815293909416602084015282840191909152606082015290519081900360800190f35b6101396004803603602081101561033f57600080fd5b50356001600160a01b0316610573565b610139610596565b6101f56105a5565b6101396004803603602081101561037557600080fd5b50356001600160a01b03166105b6565b6101396105d7565b6101f56105e6565b6102d56105f0565b61017b600480360360608110156103b357600080fd5b508035906001600160a01b03602082013581169160400135166105f6565b6003546001600160a01b031690565b6103e861074e565b6103f181610799565b50565b6002546001600160a01b031661040981610991565b61041285610529565b61044d5760405162461bcd60e51b815260040180806020018281038252602a8152602001806116a1602a913960400191505060405180910390fd5b6000841161048c5760405162461bcd60e51b81526004018080602001828103825260238152602001806117466023913960400191505060405180910390fd5b61049585610799565b6104a281868686866109ed565b5050505050565b6002546001600160a01b031681565b6002546000906104d3906001600160a01b0316858585610d2d565b949350505050565b60025460009081906104f8906001600160a01b0316868686610fd4565b915091505b935093915050565b6002546001600160a01b031661049581610991565b6004546001600160a01b031690565b6001600160a01b031660009081526007602052604090205460ff1690565b60055490565b6006541590565b6003546004546005546006546001600160a01b03938416939092169184565b6001600160a01b0390811660009081526007602052604090205461010090041690565b6000546001600160a01b031690565b6000546001600160a01b0316331490565b6001600160a01b039081166000908152600760205260409020600101541690565b6001546001600160a01b031681565b6005546006541490565b60065490565b6105fe6105a5565b61064f576040805162461bcd60e51b815260206004820181905260248201527f4f776e61626c653a2063616c6c6572206973206e6f7420746865206f776e6572604482015290519081900360640190fd5b6000831161068e5760405162461bcd60e51b81526004018080602001828103825260228152602001806116cb6022913960400191505060405180910390fd5b610697826111c1565b6106a0816111c1565b6005839055600280546001600160a01b038085166001600160a01b03199283168117909355600180549185169190921617905560408051918252517f143219c9e69b09e07e095fcc889b43d8f46ca892bba65f08dc3a0050869a56789181900360200190a1604080516001600160a01b038316815290517f3ca631ffcd2a9b5d9ae18543fc82f58eb4ca33af9e6ab01b7a8e95331e6ed9859181900360200190a1610749611274565b505050565b6002546001600160a01b031633146107975760405162461bcd60e51b815260040180806020018281038252602c8152602001806116ed602c913960400191505060405180910390fd5b565b6107a281610529565b6107dd5760405162461bcd60e51b815260040180806020018281038252602a8152602001806116a1602a913960400191505060405180910390fd5b60065460011015610923576003546001600160a01b038281169116141561084c576001600160a01b03818116600090815260076020526040808220546003805461010090920485166001600160a01b03199283161790819055909316825290206001018054909116905561091e565b6004546001600160a01b03828116911614156108b3576001600160a01b0380821660009081526007602052604080822060010154600480546001600160a01b03191691851691909117908190559092168152208054610100600160a81b031916905561091e565b6001600160a01b038082166000908152600760205260408082208054600180830180548716865284862080546101009485900489168502610100600160a81b03199091161790555492549190910485168452919092200180546001600160a01b031916919092161790555b610940565b600380546001600160a01b03199081169091556004805490911690555b6001600160a01b038116600090815260076020526040902080546001600160a81b0319168155600190810180546001600160a01b031916905560065461098b9163ffffffff6112be16565b60065550565b6001546001600160a01b03163314806109b25750336001600160a01b038216145b6103f15760405162461bcd60e51b815260040180806020018281038252602d815260200180611719602d913960400191505060405180910390fd5b6109f56105e6565b15610a47576040805162461bcd60e51b815260206004820152601a60248201527f536f7274656454726f7665733a204c6973742069732066756c6c000000000000604482015290519081900360640190fd5b610a5084610529565b15610a8c5760405162461bcd60e51b815260040180806020018281038252602c815260200180611675602c913960400191505060405180910390fd5b6001600160a01b038416610ae7576040805162461bcd60e51b815260206004820152601f60248201527f536f7274656454726f7665733a2049642063616e6e6f74206265207a65726f00604482015290519081900360640190fd5b60008311610b265760405162461bcd60e51b81526004018080602001828103825260238152602001806117466023913960400191505060405180910390fd5b8181610b3487868484610d2d565b610b4a57610b4487868484610fd4565b90925090505b6001600160a01b038087166000908152600760205260409020805460ff191660011790558216158015610b8457506001600160a01b038116155b15610bb957600380546001600160a01b0388166001600160a01b03199182168117909255600480549091169091179055610d0d565b6001600160a01b038216610c2d57600380546001600160a01b03888116600081815260076020526040808220805495851661010002610100600160a81b0319909616959095179094558454909216825291902060010180546001600160a01b03199081168317909155825416179055610d0d565b6001600160a01b038116610c9d57600480546001600160a01b0388811660008181526007602052604080822060010180549585166001600160a01b031996871617905585549093168152919091208054610100600160a81b03191661010083021790558254909116179055610d0d565b6001600160a01b038087166000818152600760205260408082208054858716610100818102610100600160a81b031993841617845560019384018054988b166001600160a01b0319998a168117909155865284862080549188029190931617909155835291200180549092161790555b600654610d2190600163ffffffff61130716565b60065550505050505050565b60006001600160a01b038316158015610d4d57506001600160a01b038216155b15610d6157610d5a61054d565b90506104d3565b6001600160a01b038316610e13576003546001600160a01b038381169116148015610d5a5750846001600160a01b031663b0d8e181836040518263ffffffff1660e01b815260040180826001600160a01b03166001600160a01b0316815260200191505060206040518083038186803b158015610ddd57600080fd5b505afa158015610df1573d6000803e3d6000fd5b505050506040513d6020811015610e0757600080fd5b505184101590506104d3565b6001600160a01b038216610ec5576004546001600160a01b038481169116148015610d5a5750846001600160a01b031663b0d8e181846040518263ffffffff1660e01b815260040180826001600160a01b03166001600160a01b0316815260200191505060206040518083038186803b158015610e8f57600080fd5b505afa158015610ea3573d6000803e3d6000fd5b505050506040513d6020811015610eb957600080fd5b505184111590506104d3565b6001600160a01b0383811660009081526007602052604090205461010090048116908316148015610f77575083856001600160a01b031663b0d8e181856040518263ffffffff1660e01b815260040180826001600160a01b03166001600160a01b0316815260200191505060206040518083038186803b158015610f4857600080fd5b505afa158015610f5c573d6000803e3d6000fd5b505050506040513d6020811015610f7257600080fd5b505110155b8015610d5a5750846001600160a01b031663b0d8e181836040518263ffffffff1660e01b815260040180826001600160a01b03166001600160a01b0316815260200191505060206040518083038186803b158015610ddd57600080fd5b60008083836001600160a01b0382161561108757610ff182610529565b158061107d5750876001600160a01b031663b0d8e181836040518263ffffffff1660e01b815260040180826001600160a01b03166001600160a01b0316815260200191505060206040518083038186803b15801561104e57600080fd5b505afa158015611062573d6000803e3d6000fd5b505050506040513d602081101561107857600080fd5b505187115b1561108757600091505b6001600160a01b038116156111345761109f81610529565b158061112b5750876001600160a01b031663b0d8e181826040518263ffffffff1660e01b815260040180826001600160a01b03166001600160a01b0316815260200191505060206040518083038186803b1580156110fc57600080fd5b505afa158015611110573d6000803e3d6000fd5b505050506040513d602081101561112657600080fd5b505187105b15611134575060005b6001600160a01b03821615801561115257506001600160a01b038116155b1561117b5760035461117090899089906001600160a01b0316611361565b9350935050506111b8565b6001600160a01b038216611194576111708888836114a2565b6001600160a01b0381166111ad57611170888884611361565b611170888884611361565b94509492505050565b6001600160a01b03811661121c576040805162461bcd60e51b815260206004820152601e60248201527f4163636f756e742063616e6e6f74206265207a65726f20616464726573730000604482015290519081900360640190fd5b803b80611270576040805162461bcd60e51b815260206004820181905260248201527f4163636f756e7420636f64652073697a652063616e6e6f74206265207a65726f604482015290519081900360640190fd5b5050565b600080546040516001600160a01b03909116907f8be0079c531659141344cd1fd0a4f28419497f9722a3daafe3b4186f6b6457e0908390a3600080546001600160a01b0319169055565b600061130083836040518060400160405280601e81526020017f536166654d6174683a207375627472616374696f6e206f766572666c6f7700008152506115dd565b9392505050565b600082820183811015611300576040805162461bcd60e51b815260206004820152601b60248201527f536166654d6174683a206164646974696f6e206f766572666c6f770000000000604482015290519081900360640190fd5b60035460009081906001600160a01b0384811691161480156114045750846001600160a01b031663b0d8e181846040518263ffffffff1660e01b815260040180826001600160a01b03166001600160a01b0316815260200191505060206040518083038186803b1580156113d457600080fd5b505afa1580156113e8573d6000803e3d6000fd5b505050506040513d60208110156113fe57600080fd5b50518410155b15611414575060009050816104fd565b6001600160a01b038084166000908152600760205260409020548491610100909104165b6001600160a01b03821615801590611459575061145787878484610d2d565b155b1561149657506001600160a01b03908116600090815260076020526040808220546101009081900484168084529190922054909291900416611438565b90969095509350505050565b60045460009081906001600160a01b0384811691161480156115455750846001600160a01b031663b0d8e181846040518263ffffffff1660e01b815260040180826001600160a01b03166001600160a01b0316815260200191505060206040518083038186803b15801561151557600080fd5b505afa158015611529573d6000803e3d6000fd5b505050506040513d602081101561153f57600080fd5b50518411155b15611555575081905060006104fd565b6001600160a01b038084166000908152600760205260409020600101548491165b6001600160a01b03821615801590611597575061159587878385610d2d565b155b156115d257506001600160a01b0390811660009081526007602052604080822060019081015484168084529190922090910154909116611576565b969095509350505050565b6000818484111561166c5760405162461bcd60e51b81526004018080602001828103825283818151815260200191508051906020019080838360005b83811015611631578181015183820152602001611619565b50505050905090810190601f16801561165e5780820380516001836020036101000a031916815260200191505b509250505060405180910390fd5b50505090039056fe536f7274656454726f7665733a204c69737420616c726561647920636f6e7461696e7320746865206e6f6465536f7274656454726f7665733a204c69737420646f6573206e6f7420636f6e7461696e20746865206964536f7274656454726f7665733a2053697a652063616ee2809974206265207a65726f536f7274656454726f7665733a2043616c6c6572206973206e6f74207468652054726f76654d616e61676572536f7274656454726f7665733a2043616c6c6572206973206e65697468657220424f206e6f722054726f76654d536f7274656454726f7665733a204e494352206d75737420626520706f736974697665a2646970667358221220872b3f4d9051c92d606656361443c331b6ed408ac8139aebedaf9aa426d88ec564736f6c634300060b0033",
  "linkReferences": {},
  "deployedLinkReferences": {}
}