{
  "_format": "hh-sol-artifact-1",
  "contractName": "SortedTroves",
  "sourceName": "contracts/SortedTroves.sol",
  "abi": [
    {
      "anonymous": false,
      "inputs": [
        {
          "indexed": false,
          "internalType": "address",
          "name": "_borrowerOperationsAddress",
          "type": "address"
        }
      ],
      "name": "BorrowerOperationsAddressChanged",
      "type": "event"
    },
    {
      "anonymous": false,
      "inputs": [
        {
          "indexed": true,
          "internalType": "address",
          "name": "previousOwner",
          "type": "address"
        },
        {
          "indexed": true,
          "internalType": "address",
          "name": "newOwner",
          "type": "address"
        }
      ],
      "name": "OwnershipTransferred",
      "type": "event"
    },
    {
      "anonymous": false,
      "inputs": [
        {
          "indexed": false,
          "internalType": "address",
          "name": "_sortedDoublyLLAddress",
          "type": "address"
        }
      ],
      "name": "SortedTrovesAddressChanged",
      "type": "event"
    },
    {
      "anonymous": false,
      "inputs": [
        {
          "indexed": false,
          "internalType": "address",
          "name": "_newTrovelManagerAddress",
          "type": "address"
        }
      ],
      "name": "TroveManagerAddressChanged",
      "type": "event"
    },
    {
      "inputs": [],
      "name": "borrowerOperationsAddress",
      "outputs": [
        {
          "internalType": "address",
          "name": "",
          "type": "address"
        }
      ],
      "stateMutability": "view",
      "type": "function"
    },
    {
      "inputs": [
        {
          "internalType": "address",
          "name": "_id",
          "type": "address"
        }
      ],
      "name": "contains",
      "outputs": [
        {
          "internalType": "bool",
          "name": "",
          "type": "bool"
        }
      ],
      "stateMutability": "view",
      "type": "function"
    },
    {
      "inputs": [],
      "name": "data",
      "outputs": [
        {
          "internalType": "address",
          "name": "head",
          "type": "address"
        },
        {
          "internalType": "address",
          "name": "tail",
          "type": "address"
        },
        {
          "internalType": "uint256",
          "name": "maxSize",
          "type": "uint256"
        },
        {
          "internalType": "uint256",
          "name": "size",
          "type": "uint256"
        }
      ],
      "stateMutability": "view",
      "type": "function"
    },
    {
      "inputs": [
        {
          "internalType": "uint256",
          "name": "_NICR",
          "type": "uint256"
        },
        {
          "internalType": "address",
          "name": "_prevId",
          "type": "address"
        },
        {
          "internalType": "address",
          "name": "_nextId",
          "type": "address"
        }
      ],
      "name": "findInsertPosition",
      "outputs": [
        {
          "internalType": "address",
          "name": "",
          "type": "address"
        },
        {
          "internalType": "address",
          "name": "",
          "type": "address"
        }
      ],
      "stateMutability": "view",
      "type": "function"
    },
    {
      "inputs": [],
      "name": "getFirst",
      "outputs": [
        {
          "internalType": "address",
          "name": "",
          "type": "address"
        }
      ],
      "stateMutability": "view",
      "type": "function"
    },
    {
      "inputs": [],
      "name": "getLast",
      "outputs": [
        {
          "internalType": "address",
          "name": "",
          "type": "address"
        }
      ],
      "stateMutability": "view",
      "type": "function"
    },
    {
      "inputs": [],
      "name": "getMaxSize",
      "outputs": [
        {
          "internalType": "uint256",
          "name": "",
          "type": "uint256"
        }
      ],
      "stateMutability": "view",
      "type": "function"
    },
    {
      "inputs": [
        {
          "internalType": "address",
          "name": "_id",
          "type": "address"
        }
      ],
      "name": "getNext",
      "outputs": [
        {
          "internalType": "address",
          "name": "",
          "type": "address"
        }
      ],
      "stateMutability": "view",
      "type": "function"
    },
    {
      "inputs": [
        {
          "internalType": "address",
          "name": "_id",
          "type": "address"
        }
      ],
      "name": "getPrev",
      "outputs": [
        {
          "internalType": "address",
          "name": "",
          "type": "address"
        }
      ],
      "stateMutability": "view",
      "type": "function"
    },
    {
      "inputs": [],
      "name": "getSize",
      "outputs": [
        {
          "internalType": "uint256",
          "name": "",
          "type": "uint256"
        }
      ],
      "stateMutability": "view",
      "type": "function"
    },
    {
      "inputs": [
        {
          "internalType": "address",
          "name": "_id",
          "type": "address"
        },
        {
          "internalType": "uint256",
          "name": "_NICR",
          "type": "uint256"
        },
        {
          "internalType": "address",
          "name": "_prevId",
          "type": "address"
        },
        {
          "internalType": "address",
          "name": "_nextId",
          "type": "address"
        }
      ],
      "name": "insert",
      "outputs": [],
      "stateMutability": "nonpayable",
      "type": "function"
    },
    {
      "inputs": [],
      "name": "isEmpty",
      "outputs": [
        {
          "internalType": "bool",
          "name": "",
          "type": "bool"
        }
      ],
      "stateMutability": "view",
      "type": "function"
    },
    {
      "inputs": [],
      "name": "isFull",
      "outputs": [
        {
          "internalType": "bool",
          "name": "",
          "type": "bool"
        }
      ],
      "stateMutability": "view",
      "type": "function"
    },
    {
      "inputs": [],
      "name": "isOwner",
      "outputs": [
        {
          "internalType": "bool",
          "name": "",
          "type": "bool"
        }
      ],
      "stateMutability": "view",
      "type": "function"
    },
    {
      "inputs": [],
      "name": "owner",
      "outputs": [
        {
          "internalType": "address",
          "name": "",
          "type": "address"
        }
      ],
      "stateMutability": "view",
      "type": "function"
    },
    {
      "inputs": [
        {
          "internalType": "address",
          "name": "_id",
          "type": "address"
        },
        {
          "internalType": "uint256",
          "name": "_newNICR",
          "type": "uint256"
        },
        {
          "internalType": "address",
          "name": "_prevId",
          "type": "address"
        },
        {
          "internalType": "address",
          "name": "_nextId",
          "type": "address"
        }
      ],
      "name": "reInsert",
      "outputs": [],
      "stateMutability": "nonpayable",
      "type": "function"
    },
    {
      "inputs": [
        {
          "internalType": "address",
          "name": "_id",
          "type": "address"
        }
      ],
      "name": "remove",
      "outputs": [],
      "stateMutability": "nonpayable",
      "type": "function"
    },
    {
      "inputs": [
        {
          "internalType": "uint256",
          "name": "_size",
          "type": "uint256"
        },
        {
          "internalType": "address",
          "name": "_troveManagerAddress",
          "type": "address"
        },
        {
          "internalType": "address",
          "name": "_borrowerOperationsAddress",
          "type": "address"
        }
      ],
      "name": "setParams",
      "outputs": [],
      "stateMutability": "nonpayable",
      "type": "function"
    },
    {
      "inputs": [],
      "name": "troveManager",
      "outputs": [
        {
          "internalType": "contract ITroveManager",
          "name": "",
          "type": "address"
        }
      ],
      "stateMutability": "view",
      "type": "function"
    },
    {
      "inputs": [],
      "name": "troveManagerAddress",
      "outputs": [
        {
          "internalType": "address",
          "name": "",
          "type": "address"
        }
      ],
      "stateMutability": "view",
      "type": "function"
    },
    {
      "inputs": [
        {
          "internalType": "uint256",
          "name": "_NICR",
          "type": "uint256"
        },
        {
          "internalType": "address",
          "name": "_prevId",
          "type": "address"
        },
        {
          "internalType": "address",
          "name": "_nextId",
          "type": "address"
        }
      ],
      "name": "validInsertPosition",
      "outputs": [
        {
          "internalType": "bool",
          "name": "",
          "type": "bool"
        }
      ],
      "stateMutability": "view",
      "type": "function"
    }
  ],
  "bytecode": "0x608060405234801561001057600080fd5b50600080546001600160a01b0319163390811782556040519091907f8be0079c531659141344cd1fd0a4f28419497f9722a3daafe3b4186f6b6457e0908290a36117738061005f6000396000f3fe608060405234801561001057600080fd5b50600436106101375760003560e01c806363e1d57c116100b85780638f32d59b1161007c5780638f32d59b1461036a578063b72703ac14610372578063b7f8cf9b14610398578063babd3d9a146103a0578063de8fa431146103a8578063f376d798146103b057610137565b806363e1d57c146102e0578063681fe70c146102fa57806373d4a13a14610302578063765e01591461033c5780638da5cb5b1461036257610137565b8063416980dc116100ff578063416980dc1461021457806346f7cf871461026e5780634d622831146102aa5780635a4d28bb146102b25780635dbe47e8146102ba57610137565b80631e2231431461013c57806329092d0e146101605780632be21260146101885780633d83908a146101c45780633fce12d5146101cc575b600080fd5b6101446103e4565b604080516001600160a01b039092168252519081900360200190f35b6101866004803603602081101561017657600080fd5b50356001600160a01b03166103f3565b005b6101866004803603608081101561019e57600080fd5b506001600160a01b03813581169160208101359160408201358116916060013516610407565b6101446104ec565b610200600480360360608110156101e257600080fd5b508035906001600160a01b03602082013581169160400135166104fb565b604080519115158252519081900360200190f35b6102486004803603606081101561022a57600080fd5b508035906001600160a01b0360208201358116916040013516610787565b604080516001600160a01b03938416815291909216602082015281519081900390910190f35b6101866004803603608081101561028457600080fd5b506001600160a01b0381358116916020810135916040820135811691606001351661095c565b610144610964565b610144610973565b610200600480360360208110156102d057600080fd5b50356001600160a01b0316610982565b6102e86109a0565b60408051918252519081900360200190f35b6102006109a6565b61030a6109ad565b604080516001600160a01b03958616815293909416602084015282840191909152606082015290519081900360800190f35b6101446004803603602081101561035257600080fd5b50356001600160a01b03166109cc565b6101446109ef565b6102006109fe565b6101446004803603602081101561038857600080fd5b50356001600160a01b0316610a0f565b610144610a30565b610200610a3f565b6102e8610a49565b610186600480360360608110156103c657600080fd5b508035906001600160a01b0360208201358116916040013516610a4f565b6004546001600160a01b031690565b6103fb610bb1565b61040481610bfc565b50565b61040f610df4565b61041884610982565b6104535760405162461bcd60e51b815260040180806020018281038252602a815260200180611654602a913960400191505060405180910390fd5b600083116104925760405162461bcd60e51b815260040180806020018281038252602381526020018061171b6023913960400191505060405180910390fd5b61049b84610bfc565b600083116104da5760405162461bcd60e51b81526004018080602001828103825260228152602001806116cc6022913960400191505060405180910390fd5b6104e684848484610e52565b50505050565b6002546001600160a01b031681565b60006001600160a01b03831615801561051b57506001600160a01b038216155b1561052f576105286109a6565b9050610780565b6001600160a01b0383166105d8576004546001600160a01b03838116911614801561052857506002546040805163b0d8e18160e01b81526001600160a01b0385811660048301529151919092169163b0d8e181916024808301926020929190829003018186803b1580156105a257600080fd5b505afa1580156105b6573d6000803e3d6000fd5b505050506040513d60208110156105cc57600080fd5b50518410159050610780565b6001600160a01b038216610681576005546001600160a01b03848116911614801561052857506002546040805163b0d8e18160e01b81526001600160a01b0386811660048301529151919092169163b0d8e181916024808301926020929190829003018186803b15801561064b57600080fd5b505afa15801561065f573d6000803e3d6000fd5b505050506040513d602081101561067557600080fd5b50518411159050610780565b6001600160a01b038381166000908152600860205260409020546101009004811690831614801561072c57506002546040805163b0d8e18160e01b81526001600160a01b03868116600483015291518793929092169163b0d8e18191602480820192602092909190829003018186803b1580156106fd57600080fd5b505afa158015610711573d6000803e3d6000fd5b505050506040513d602081101561072757600080fd5b505110155b801561052857506002546040805163b0d8e18160e01b81526001600160a01b0385811660048301529151919092169163b0d8e181916024808301926020929190829003018186803b1580156105a257600080fd5b9392505050565b60008083836001600160a01b03821615610831576107a482610982565b158061082757506002546040805163b0d8e18160e01b81526001600160a01b0385811660048301529151919092169163b0d8e181916024808301926020929190829003018186803b1580156107f857600080fd5b505afa15801561080c573d6000803e3d6000fd5b505050506040513d602081101561082257600080fd5b505187115b1561083157600091505b6001600160a01b038116156108d55761084981610982565b15806108cc57506002546040805163b0d8e18160e01b81526001600160a01b0384811660048301529151919092169163b0d8e181916024808301926020929190829003018186803b15801561089d57600080fd5b505afa1580156108b1573d6000803e3d6000fd5b505050506040513d60208110156108c757600080fd5b505187105b156108d5575060005b6001600160a01b0382161580156108f357506001600160a01b038116155b1561091a5760045461090f9088906001600160a01b031661118f565b935093505050610954565b6001600160a01b0382166109325761090f87826112c7565b6001600160a01b03811661094a5761090f878361118f565b61090f878361118f565b935093915050565b6104da610df4565b6005546001600160a01b031690565b6003546001600160a01b031681565b6001600160a01b031660009081526008602052604090205460ff1690565b60065490565b6007541590565b6004546005546006546007546001600160a01b03938416939092169184565b6001600160a01b0390811660009081526008602052604090205461010090041690565b6000546001600160a01b031690565b6000546001600160a01b0316331490565b6001600160a01b039081166000908152600860205260409020600101541690565b6001546001600160a01b031681565b6006546007541490565b60075490565b610a576109fe565b610aa8576040805162461bcd60e51b815260206004820181905260248201527f4f776e61626c653a2063616c6c6572206973206e6f7420746865206f776e6572604482015290519081900360640190fd5b60008311610ae75760405162461bcd60e51b815260040180806020018281038252602281526020018061167e6022913960400191505060405180910390fd5b610af0826113f7565b610af9816113f7565b6006839055600380546001600160a01b038085166001600160a01b0319928316811790935560028054831684179055600180549185169190921617905560408051918252517f143219c9e69b09e07e095fcc889b43d8f46ca892bba65f08dc3a0050869a56789181900360200190a1604080516001600160a01b038316815290517f3ca631ffcd2a9b5d9ae18543fc82f58eb4ca33af9e6ab01b7a8e95331e6ed9859181900360200190a1610bac6114aa565b505050565b6003546001600160a01b03163314610bfa5760405162461bcd60e51b815260040180806020018281038252602c8152602001806116a0602c913960400191505060405180910390fd5b565b610c0581610982565b610c405760405162461bcd60e51b815260040180806020018281038252602a815260200180611654602a913960400191505060405180910390fd5b60075460011015610d86576004546001600160a01b0382811691161415610caf576001600160a01b03818116600090815260086020526040808220546004805461010090920485166001600160a01b031992831617908190559093168252902060010180549091169055610d81565b6005546001600160a01b0382811691161415610d16576001600160a01b0380821660009081526008602052604080822060010154600580546001600160a01b03191691851691909117908190559092168152208054610100600160a81b0319169055610d81565b6001600160a01b038082166000908152600860205260408082208054600180830180548716865284862080546101009485900489168502610100600160a81b03199091161790555492549190910485168452919092200180546001600160a01b031916919092161790555b610da3565b600480546001600160a01b03199081169091556005805490911690555b6001600160a01b038116600090815260086020526040902080546001600160a81b0319168155600190810180546001600160a01b0319169055600754610dee9163ffffffff6114f416565b60075550565b6001546001600160a01b0316331480610e1757506003546001600160a01b031633145b610bfa5760405162461bcd60e51b815260040180806020018281038252602d8152602001806116ee602d913960400191505060405180910390fd5b610e5a610a3f565b15610eac576040805162461bcd60e51b815260206004820152601a60248201527f536f7274656454726f7665733a204c6973742069732066756c6c000000000000604482015290519081900360640190fd5b610eb584610982565b15610ef15760405162461bcd60e51b815260040180806020018281038252602c815260200180611628602c913960400191505060405180910390fd5b6001600160a01b038416610f4c576040805162461bcd60e51b815260206004820152601f60248201527f536f7274656454726f7665733a2049642063616e6e6f74206265207a65726f00604482015290519081900360640190fd5b60008311610f8b5760405162461bcd60e51b815260040180806020018281038252602381526020018061171b6023913960400191505060405180910390fd5b8181610f988583836104fb565b610fad57610fa7858383610787565b90925090505b6001600160a01b038087166000908152600860205260409020805460ff191660011790558216158015610fe757506001600160a01b038116155b1561101c57600480546001600160a01b0388166001600160a01b03199182168117909255600580549091169091179055611170565b6001600160a01b03821661109057600480546001600160a01b03888116600081815260086020526040808220805495851661010002610100600160a81b0319909616959095179094558454909216825291902060010180546001600160a01b03199081168317909155825416179055611170565b6001600160a01b03811661110057600580546001600160a01b0388811660008181526008602052604080822060010180549585166001600160a01b031996871617905585549093168152919091208054610100600160a81b03191661010083021790558254909116179055611170565b6001600160a01b038087166000818152600860205260408082208054858716610100818102610100600160a81b031993841617845560019384018054988b166001600160a01b0319998a168117909155865284862080549188029190931617909155835291200180549092161790555b60075461118490600163ffffffff61153616565b600755505050505050565b60045460009081906001600160a01b03848116911614801561122957506002546040805163b0d8e18160e01b81526001600160a01b0386811660048301529151919092169163b0d8e181916024808301926020929190829003018186803b1580156111f957600080fd5b505afa15801561120d573d6000803e3d6000fd5b505050506040513d602081101561122357600080fd5b50518410155b15611239575060009050816112c0565b6001600160a01b038084166000908152600860205260409020548491610100909104165b6001600160a01b0382161580159061127d575061127b8683836104fb565b155b156112ba57506001600160a01b0390811660009081526008602052604080822054610100908190048416808452919092205490929190041661125d565b90925090505b9250929050565b60055460009081906001600160a01b03848116911614801561136157506002546040805163b0d8e18160e01b81526001600160a01b0386811660048301529151919092169163b0d8e181916024808301926020929190829003018186803b15801561133157600080fd5b505afa158015611345573d6000803e3d6000fd5b505050506040513d602081101561135b57600080fd5b50518411155b15611371575081905060006112c0565b6001600160a01b038084166000908152600860205260409020600101548491165b6001600160a01b038216158015906113b257506113b08682846104fb565b155b156113ed57506001600160a01b0390811660009081526008602052604080822060019081015484168084529190922090910154909116611392565b9590945092505050565b6001600160a01b038116611452576040805162461bcd60e51b815260206004820152601e60248201527f4163636f756e742063616e6e6f74206265207a65726f20616464726573730000604482015290519081900360640190fd5b803b806114a6576040805162461bcd60e51b815260206004820181905260248201527f4163636f756e7420636f64652073697a652063616e6e6f74206265207a65726f604482015290519081900360640190fd5b5050565b600080546040516001600160a01b03909116907f8be0079c531659141344cd1fd0a4f28419497f9722a3daafe3b4186f6b6457e0908390a3600080546001600160a01b0319169055565b600061078083836040518060400160405280601e81526020017f536166654d6174683a207375627472616374696f6e206f766572666c6f770000815250611590565b600082820183811015610780576040805162461bcd60e51b815260206004820152601b60248201527f536166654d6174683a206164646974696f6e206f766572666c6f770000000000604482015290519081900360640190fd5b6000818484111561161f5760405162461bcd60e51b81526004018080602001828103825283818151815260200191508051906020019080838360005b838110156115e45781810151838201526020016115cc565b50505050905090810190601f1680156116115780820380516001836020036101000a031916815260200191505b509250505060405180910390fd5b50505090039056fe536f7274656454726f7665733a204c69737420616c726561647920636f6e7461696e7320746865206e6f6465536f7274656454726f7665733a204c69737420646f6573206e6f7420636f6e7461696e20746865206964536f7274656454726f7665733a2053697a652063616ee2809974206265207a65726f536f7274656454726f7665733a2043616c6c6572206973206e6f74207468652054726f76654d616e61676572536f7274656454726f7665733a20494352206d75737420626520706f736974697665536f7274656454726f7665733a2043616c6c6572206973206e65697468657220424f206e6f722054726f76654d536f7274656454726f7665733a204e494352206d75737420626520706f736974697665a264697066735822122093c33a8f6da41594f45ef26ddc80e46d2b98670854ffe92d4ca1da9d40ade64f64736f6c634300060b0033",
  "linkReferences": {},
  "deployedLinkReferences": {}
}