{
  "_format": "hh-sol-artifact-1",
  "contractName": "StabilityPool",
  "sourceName": "contracts/StabilityPool.sol",
  "abi": [
    {
      "anonymous": false,
      "inputs": [
        {
          "indexed": false,
          "internalType": "address",
          "name": "_newActivePoolAddress",
          "type": "address"
        }
      ],
      "name": "ActivePoolAddressChanged",
      "type": "event"
    },
    {
      "anonymous": false,
      "inputs": [
        {
          "indexed": false,
          "internalType": "address",
          "name": "_newBorrowerOperationsAddress",
          "type": "address"
        }
      ],
      "name": "BorrowerOperationsAddressChanged",
      "type": "event"
    },
    {
      "anonymous": false,
      "inputs": [
        {
          "indexed": false,
          "internalType": "address",
          "name": "_newCommunityIssuanceAddress",
          "type": "address"
        }
      ],
      "name": "CommunityIssuanceAddressChanged",
      "type": "event"
    },
    {
      "anonymous": false,
      "inputs": [
        {
          "indexed": false,
          "internalType": "address",
          "name": "_newDefaultPoolAddress",
          "type": "address"
        }
      ],
      "name": "DefaultPoolAddressChanged",
      "type": "event"
    },
    {
      "anonymous": false,
      "inputs": [
        {
          "indexed": true,
          "internalType": "address",
          "name": "_depositor",
          "type": "address"
        },
        {
          "indexed": false,
          "internalType": "uint256",
          "name": "_P",
          "type": "uint256"
        },
        {
          "indexed": false,
          "internalType": "uint256",
          "name": "_S",
          "type": "uint256"
        },
        {
          "indexed": false,
          "internalType": "uint256",
          "name": "_G",
          "type": "uint256"
        }
      ],
      "name": "DepositSnapshotUpdated",
      "type": "event"
    },
    {
      "anonymous": false,
      "inputs": [
        {
          "indexed": false,
          "internalType": "uint256",
          "name": "_newBalance",
          "type": "uint256"
        }
      ],
      "name": "ETHBalanceUpdated",
      "type": "event"
    },
    {
      "anonymous": false,
      "inputs": [
        {
          "indexed": true,
          "internalType": "address",
          "name": "_depositor",
          "type": "address"
        },
        {
          "indexed": false,
          "internalType": "uint256",
          "name": "_ETH",
          "type": "uint256"
        },
        {
          "indexed": false,
          "internalType": "uint256",
          "name": "_LUSDLoss",
          "type": "uint256"
        }
      ],
      "name": "ETHGainWithdrawn",
      "type": "event"
    },
    {
      "anonymous": false,
      "inputs": [
        {
          "indexed": false,
          "internalType": "address",
          "name": "_to",
          "type": "address"
        },
        {
          "indexed": false,
          "internalType": "uint256",
          "name": "_amount",
          "type": "uint256"
        }
      ],
      "name": "EtherSent",
      "type": "event"
    },
    {
      "anonymous": false,
      "inputs": [
        {
          "indexed": true,
          "internalType": "address",
          "name": "_frontEnd",
          "type": "address"
        },
        {
          "indexed": false,
          "internalType": "uint256",
          "name": "_kickbackRate",
          "type": "uint256"
        }
      ],
      "name": "FrontEndRegistered",
      "type": "event"
    },
    {
      "anonymous": false,
      "inputs": [
        {
          "indexed": true,
          "internalType": "address",
          "name": "_frontEnd",
          "type": "address"
        },
        {
          "indexed": false,
          "internalType": "uint256",
          "name": "_P",
          "type": "uint256"
        },
        {
          "indexed": false,
          "internalType": "uint256",
          "name": "_G",
          "type": "uint256"
        }
      ],
      "name": "FrontEndSnapshotUpdated",
      "type": "event"
    },
    {
      "anonymous": false,
      "inputs": [
        {
          "indexed": true,
          "internalType": "address",
          "name": "_frontEnd",
          "type": "address"
        },
        {
          "indexed": false,
          "internalType": "uint256",
          "name": "_newFrontEndStake",
          "type": "uint256"
        },
        {
          "indexed": false,
          "internalType": "address",
          "name": "_depositor",
          "type": "address"
        }
      ],
      "name": "FrontEndStakeChanged",
      "type": "event"
    },
    {
      "anonymous": false,
      "inputs": [
        {
          "indexed": false,
          "internalType": "uint256",
          "name": "_G",
          "type": "uint256"
        }
      ],
      "name": "G_Updated",
      "type": "event"
    },
    {
      "anonymous": false,
      "inputs": [
        {
          "indexed": true,
          "internalType": "address",
          "name": "_depositor",
          "type": "address"
        },
        {
          "indexed": false,
          "internalType": "uint256",
          "name": "_LQTY",
          "type": "uint256"
        }
      ],
      "name": "LQTYPaidToDepositor",
      "type": "event"
    },
    {
      "anonymous": false,
      "inputs": [
        {
          "indexed": true,
          "internalType": "address",
          "name": "_frontEnd",
          "type": "address"
        },
        {
          "indexed": false,
          "internalType": "uint256",
          "name": "_LQTY",
          "type": "uint256"
        }
      ],
      "name": "LQTYPaidToFrontEnd",
      "type": "event"
    },
    {
      "anonymous": false,
      "inputs": [
        {
          "indexed": false,
          "internalType": "uint256",
          "name": "_newBalance",
          "type": "uint256"
        }
      ],
      "name": "LUSDBalanceUpdated",
      "type": "event"
    },
    {
      "anonymous": false,
      "inputs": [
        {
          "indexed": false,
          "internalType": "address",
          "name": "_newLUSDTokenAddress",
          "type": "address"
        }
      ],
      "name": "LUSDTokenAddressChanged",
      "type": "event"
    },
    {
      "anonymous": false,
      "inputs": [
        {
          "indexed": true,
          "internalType": "address",
          "name": "previousOwner",
          "type": "address"
        },
        {
          "indexed": true,
          "internalType": "address",
          "name": "newOwner",
          "type": "address"
        }
      ],
      "name": "OwnershipTransferred",
      "type": "event"
    },
    {
      "anonymous": false,
      "inputs": [
        {
          "indexed": false,
          "internalType": "uint256",
          "name": "_P",
          "type": "uint256"
        }
      ],
      "name": "P_Updated",
      "type": "event"
    },
    {
      "anonymous": false,
      "inputs": [
        {
          "indexed": false,
          "internalType": "address",
          "name": "_newPriceFeedAddress",
          "type": "address"
        }
      ],
      "name": "PriceFeedAddressChanged",
      "type": "event"
    },
    {
      "anonymous": false,
      "inputs": [
        {
          "indexed": false,
          "internalType": "uint256",
          "name": "_S",
          "type": "uint256"
        }
      ],
      "name": "S_Updated",
      "type": "event"
    },
    {
      "anonymous": false,
      "inputs": [
        {
          "indexed": false,
          "internalType": "address",
          "name": "_newSortedTrovesAddress",
          "type": "address"
        }
      ],
      "name": "SortedTrovesAddressChanged",
      "type": "event"
    },
    {
      "anonymous": false,
      "inputs": [
        {
          "indexed": false,
          "internalType": "address",
          "name": "_newTroveManagerAddress",
          "type": "address"
        }
      ],
      "name": "TroveManagerAddressChanged",
      "type": "event"
    },
    {
      "anonymous": false,
      "inputs": [
        {
          "indexed": true,
          "internalType": "address",
          "name": "_depositor",
          "type": "address"
        },
        {
          "indexed": false,
          "internalType": "uint256",
          "name": "_newDeposit",
          "type": "uint256"
        }
      ],
      "name": "UserDepositChanged",
      "type": "event"
    },
    {
      "inputs": [],
      "name": "CCR",
      "outputs": [
        {
          "internalType": "uint256",
          "name": "",
          "type": "uint256"
        }
      ],
      "stateMutability": "view",
      "type": "function"
    },
    {
      "inputs": [],
      "name": "DECIMAL_PRECISION",
      "outputs": [
        {
          "internalType": "uint256",
          "name": "",
          "type": "uint256"
        }
      ],
      "stateMutability": "view",
      "type": "function"
    },
    {
      "inputs": [],
      "name": "LUSD_GAS_COMPENSATION",
      "outputs": [
        {
          "internalType": "uint256",
          "name": "",
          "type": "uint256"
        }
      ],
      "stateMutability": "view",
      "type": "function"
    },
    {
      "inputs": [],
      "name": "MCR",
      "outputs": [
        {
          "internalType": "uint256",
          "name": "",
          "type": "uint256"
        }
      ],
      "stateMutability": "view",
      "type": "function"
    },
    {
      "inputs": [],
      "name": "P",
      "outputs": [
        {
          "internalType": "uint256",
          "name": "",
          "type": "uint256"
        }
      ],
      "stateMutability": "view",
      "type": "function"
    },
    {
      "inputs": [],
      "name": "PERCENT_DIVISOR",
      "outputs": [
        {
          "internalType": "uint256",
          "name": "",
          "type": "uint256"
        }
      ],
      "stateMutability": "view",
      "type": "function"
    },
    {
      "inputs": [],
      "name": "_100pct",
      "outputs": [
        {
          "internalType": "uint256",
          "name": "",
          "type": "uint256"
        }
      ],
      "stateMutability": "view",
      "type": "function"
    },
    {
      "inputs": [],
      "name": "activePool",
      "outputs": [
        {
          "internalType": "contract IActivePool",
          "name": "",
          "type": "address"
        }
      ],
      "stateMutability": "view",
      "type": "function"
    },
    {
      "inputs": [],
      "name": "borrowerOperations",
      "outputs": [
        {
          "internalType": "contract IBorrowerOperations",
          "name": "",
          "type": "address"
        }
      ],
      "stateMutability": "view",
      "type": "function"
    },
    {
      "inputs": [],
      "name": "communityIssuance",
      "outputs": [
        {
          "internalType": "contract ICommunityIssuance",
          "name": "",
          "type": "address"
        }
      ],
      "stateMutability": "view",
      "type": "function"
    },
    {
      "inputs": [],
      "name": "currentEpoch",
      "outputs": [
        {
          "internalType": "uint128",
          "name": "",
          "type": "uint128"
        }
      ],
      "stateMutability": "view",
      "type": "function"
    },
    {
      "inputs": [],
      "name": "currentScale",
      "outputs": [
        {
          "internalType": "uint128",
          "name": "",
          "type": "uint128"
        }
      ],
      "stateMutability": "view",
      "type": "function"
    },
    {
      "inputs": [],
      "name": "defaultPool",
      "outputs": [
        {
          "internalType": "contract IDefaultPool",
          "name": "",
          "type": "address"
        }
      ],
      "stateMutability": "view",
      "type": "function"
    },
    {
      "inputs": [
        {
          "internalType": "address",
          "name": "",
          "type": "address"
        }
      ],
      "name": "depositSnapshots",
      "outputs": [
        {
          "internalType": "uint256",
          "name": "S",
          "type": "uint256"
        },
        {
          "internalType": "uint256",
          "name": "P",
          "type": "uint256"
        },
        {
          "internalType": "uint256",
          "name": "G",
          "type": "uint256"
        },
        {
          "internalType": "uint128",
          "name": "scale",
          "type": "uint128"
        },
        {
          "internalType": "uint128",
          "name": "epoch",
          "type": "uint128"
        }
      ],
      "stateMutability": "view",
      "type": "function"
    },
    {
      "inputs": [
        {
          "internalType": "address",
          "name": "",
          "type": "address"
        }
      ],
      "name": "deposits",
      "outputs": [
        {
          "internalType": "uint256",
          "name": "initialValue",
          "type": "uint256"
        },
        {
          "internalType": "address",
          "name": "frontEndTag",
          "type": "address"
        }
      ],
      "stateMutability": "view",
      "type": "function"
    },
    {
      "inputs": [
        {
          "internalType": "uint256",
          "name": "",
          "type": "uint256"
        },
        {
          "internalType": "uint256",
          "name": "",
          "type": "uint256"
        }
      ],
      "name": "epochToScaleToG",
      "outputs": [
        {
          "internalType": "uint256",
          "name": "",
          "type": "uint256"
        }
      ],
      "stateMutability": "view",
      "type": "function"
    },
    {
      "inputs": [
        {
          "internalType": "uint256",
          "name": "",
          "type": "uint256"
        },
        {
          "internalType": "uint256",
          "name": "",
          "type": "uint256"
        }
      ],
      "name": "epochToScaleToSum",
      "outputs": [
        {
          "internalType": "uint256",
          "name": "",
          "type": "uint256"
        }
      ],
      "stateMutability": "view",
      "type": "function"
    },
    {
      "inputs": [
        {
          "internalType": "address",
          "name": "",
          "type": "address"
        }
      ],
      "name": "frontEndSnapshots",
      "outputs": [
        {
          "internalType": "uint256",
          "name": "S",
          "type": "uint256"
        },
        {
          "internalType": "uint256",
          "name": "P",
          "type": "uint256"
        },
        {
          "internalType": "uint256",
          "name": "G",
          "type": "uint256"
        },
        {
          "internalType": "uint128",
          "name": "scale",
          "type": "uint128"
        },
        {
          "internalType": "uint128",
          "name": "epoch",
          "type": "uint128"
        }
      ],
      "stateMutability": "view",
      "type": "function"
    },
    {
      "inputs": [
        {
          "internalType": "address",
          "name": "",
          "type": "address"
        }
      ],
      "name": "frontEndStakes",
      "outputs": [
        {
          "internalType": "uint256",
          "name": "",
          "type": "uint256"
        }
      ],
      "stateMutability": "view",
      "type": "function"
    },
    {
      "inputs": [
        {
          "internalType": "address",
          "name": "",
          "type": "address"
        }
      ],
      "name": "frontEnds",
      "outputs": [
        {
          "internalType": "uint256",
          "name": "kickbackRate",
          "type": "uint256"
        },
        {
          "internalType": "bool",
          "name": "registered",
          "type": "bool"
        }
      ],
      "stateMutability": "view",
      "type": "function"
    },
    {
      "inputs": [
        {
          "internalType": "address",
          "name": "_frontEnd",
          "type": "address"
        }
      ],
      "name": "getCompoundedFrontEndStake",
      "outputs": [
        {
          "internalType": "uint256",
          "name": "",
          "type": "uint256"
        }
      ],
      "stateMutability": "view",
      "type": "function"
    },
    {
      "inputs": [
        {
          "internalType": "address",
          "name": "_depositor",
          "type": "address"
        }
      ],
      "name": "getCompoundedLUSDDeposit",
      "outputs": [
        {
          "internalType": "uint256",
          "name": "",
          "type": "uint256"
        }
      ],
      "stateMutability": "view",
      "type": "function"
    },
    {
      "inputs": [
        {
          "internalType": "address",
          "name": "_depositor",
          "type": "address"
        }
      ],
      "name": "getDepositorETHGain",
      "outputs": [
        {
          "internalType": "uint256",
          "name": "",
          "type": "uint256"
        }
      ],
      "stateMutability": "view",
      "type": "function"
    },
    {
      "inputs": [
        {
          "internalType": "address",
          "name": "_depositor",
          "type": "address"
        }
      ],
      "name": "getDepositorLQTYGain",
      "outputs": [
        {
          "internalType": "uint256",
          "name": "",
          "type": "uint256"
        }
      ],
      "stateMutability": "view",
      "type": "function"
    },
    {
      "inputs": [],
      "name": "getETH",
      "outputs": [
        {
          "internalType": "uint256",
          "name": "",
          "type": "uint256"
        }
      ],
      "stateMutability": "view",
      "type": "function"
    },
    {
      "inputs": [],
      "name": "getEntireSystemColl",
      "outputs": [
        {
          "internalType": "uint256",
          "name": "entireSystemColl",
          "type": "uint256"
        }
      ],
      "stateMutability": "view",
      "type": "function"
    },
    {
      "inputs": [],
      "name": "getEntireSystemDebt",
      "outputs": [
        {
          "internalType": "uint256",
          "name": "entireSystemDebt",
          "type": "uint256"
        }
      ],
      "stateMutability": "view",
      "type": "function"
    },
    {
      "inputs": [
        {
          "internalType": "address",
          "name": "_frontEnd",
          "type": "address"
        }
      ],
      "name": "getFrontEndLQTYGain",
      "outputs": [
        {
          "internalType": "uint256",
          "name": "",
          "type": "uint256"
        }
      ],
      "stateMutability": "view",
      "type": "function"
    },
    {
      "inputs": [],
      "name": "getTotalLUSDDeposits",
      "outputs": [
        {
          "internalType": "uint256",
          "name": "",
          "type": "uint256"
        }
      ],
      "stateMutability": "view",
      "type": "function"
    },
    {
      "inputs": [],
      "name": "isOwner",
      "outputs": [
        {
          "internalType": "bool",
          "name": "",
          "type": "bool"
        }
      ],
      "stateMutability": "view",
      "type": "function"
    },
    {
      "inputs": [],
      "name": "lastETHError_Offset",
      "outputs": [
        {
          "internalType": "uint256",
          "name": "",
          "type": "uint256"
        }
      ],
      "stateMutability": "view",
      "type": "function"
    },
    {
      "inputs": [],
      "name": "lastLQTYError",
      "outputs": [
        {
          "internalType": "uint256",
          "name": "",
          "type": "uint256"
        }
      ],
      "stateMutability": "view",
      "type": "function"
    },
    {
      "inputs": [],
      "name": "lastLUSDLossError_Offset",
      "outputs": [
        {
          "internalType": "uint256",
          "name": "",
          "type": "uint256"
        }
      ],
      "stateMutability": "view",
      "type": "function"
    },
    {
      "inputs": [],
      "name": "lusdToken",
      "outputs": [
        {
          "internalType": "contract ILUSDToken",
          "name": "",
          "type": "address"
        }
      ],
      "stateMutability": "view",
      "type": "function"
    },
    {
      "inputs": [
        {
          "internalType": "uint256",
          "name": "_debtToOffset",
          "type": "uint256"
        },
        {
          "internalType": "uint256",
          "name": "_collToAdd",
          "type": "uint256"
        }
      ],
      "name": "offset",
      "outputs": [],
      "stateMutability": "nonpayable",
      "type": "function"
    },
    {
      "inputs": [],
      "name": "owner",
      "outputs": [
        {
          "internalType": "address",
          "name": "",
          "type": "address"
        }
      ],
      "stateMutability": "view",
      "type": "function"
    },
    {
      "inputs": [],
      "name": "priceFeed",
      "outputs": [
        {
          "internalType": "contract IPriceFeed",
          "name": "",
          "type": "address"
        }
      ],
      "stateMutability": "view",
      "type": "function"
    },
    {
      "inputs": [
        {
          "internalType": "uint256",
          "name": "_amount",
          "type": "uint256"
        },
        {
          "internalType": "address",
          "name": "_frontEndTag",
          "type": "address"
        }
      ],
      "name": "provideToSP",
      "outputs": [],
      "stateMutability": "nonpayable",
      "type": "function"
    },
    {
      "inputs": [
        {
          "internalType": "uint256",
          "name": "_kickbackRate",
          "type": "uint256"
        }
      ],
      "name": "registerFrontEnd",
      "outputs": [],
      "stateMutability": "nonpayable",
      "type": "function"
    },
    {
      "inputs": [
        {
          "internalType": "address",
          "name": "_borrowerOperationsAddress",
          "type": "address"
        },
        {
          "internalType": "address",
          "name": "_troveManagerAddress",
          "type": "address"
        },
        {
          "internalType": "address",
          "name": "_activePoolAddress",
          "type": "address"
        },
        {
          "internalType": "address",
          "name": "_lusdTokenAddress",
          "type": "address"
        },
        {
          "internalType": "address",
          "name": "_sortedTrovesAddress",
          "type": "address"
        },
        {
          "internalType": "address",
          "name": "_priceFeedAddress",
          "type": "address"
        },
        {
          "internalType": "address",
          "name": "_communityIssuanceAddress",
          "type": "address"
        }
      ],
      "name": "setAddresses",
      "outputs": [],
      "stateMutability": "nonpayable",
      "type": "function"
    },
    {
      "inputs": [],
      "name": "sortedTroves",
      "outputs": [
        {
          "internalType": "contract ISortedTroves",
          "name": "",
          "type": "address"
        }
      ],
      "stateMutability": "view",
      "type": "function"
    },
    {
      "inputs": [],
      "name": "troveManager",
      "outputs": [
        {
          "internalType": "contract ITroveManager",
          "name": "",
          "type": "address"
        }
      ],
      "stateMutability": "view",
      "type": "function"
    },
    {
      "inputs": [
        {
          "internalType": "address",
          "name": "_upperHint",
          "type": "address"
        },
        {
          "internalType": "address",
          "name": "_lowerHint",
          "type": "address"
        }
      ],
      "name": "withdrawETHGainToTrove",
      "outputs": [],
      "stateMutability": "nonpayable",
      "type": "function"
    },
    {
      "inputs": [
        {
          "internalType": "uint256",
          "name": "_amount",
          "type": "uint256"
        }
      ],
      "name": "withdrawFromSP",
      "outputs": [],
      "stateMutability": "nonpayable",
      "type": "function"
    },
    {
      "stateMutability": "payable",
      "type": "receive"
    }
  ],
  "bytecode": "0x6080604052670de0b6b3a764000060105534801561001c57600080fd5b50600380546001600160a01b031916339081179091556040516000907f8be0079c531659141344cd1fd0a4f28419497f9722a3daafe3b4186f6b6457e0908290a361366b8061006c6000396000f3fe60806040526004361061026b5760003560e01c80637f7dde4a11610144578063ae918754116100b6578063df9cd84f1161007a578063df9cd84f146107a4578063eaa8ba7f146107d7578063eb6b2fa61461083c578063f5f1595d1461086c578063fc7e286d1461089f578063fda0101a146108f357610290565b8063ae9187541461071d578063b83f91a214610732578063cef941e814610747578063d4ca05751461075c578063d7fb04431461078f57610290565b80638f32d59b116101085780638f32d59b1461066957806395fb16bb146106925780639bf2f1ac146106a7578063a20baee614610548578063a4e59ac8146106bc578063a7bfff97146106d157610290565b80637f7dde4a146105e257806386da0824146105f7578063887105d31461062a5780638b8fbd921461063f5780638da5cb5b1461065457610290565b8063556be101116101dd57806372fe25aa116101a157806372fe25aa14610548578063741bef1a1461055d578063766718081461057257806377553ad4146105a3578063794e5724146105b8578063795d26c3146105cd57610290565b8063556be1011461046d5780635733d58f146104975780635a0edf77146104ac5780635d2de642146104dc5780635f788d651461050f57610290565b8063335525ad1161022f578063335525ad1461039a578063389e92a5146103ca5780633cc74225146103fd5780633d83908a1461042e5780634870dd9a14610443578063538153ca1461045857610290565b806314f6c3be1461029557806316b9d3c5146102bc5780631cdc4700146103265780632e54bf95146103595780632e86bbd81461038557610290565b366102905761027861092e565b60095461028b903463ffffffff61097916565b600955005b600080fd5b3480156102a157600080fd5b506102aa6109dc565b60408051918252519081900360200190f35b3480156102c857600080fd5b506102ef600480360360208110156102df57600080fd5b50356001600160a01b03166109e2565b604080519586526020860194909452848401929092526001600160801b039081166060850152166080830152519081900360a00190f35b34801561033257600080fd5b506102aa6004803603602081101561034957600080fd5b50356001600160a01b0316610a1d565b34801561036557600080fd5b506103836004803603602081101561037c57600080fd5b5035610ac5565b005b34801561039157600080fd5b506102aa610c4e565b3480156103a657600080fd5b50610383600480360360408110156103bd57600080fd5b5080359060200135610c5b565b3480156103d657600080fd5b506102aa600480360360208110156103ed57600080fd5b50356001600160a01b0316610cbf565b34801561040957600080fd5b50610412610d5c565b604080516001600160a01b039092168252519081900360200190f35b34801561043a57600080fd5b50610412610d6b565b34801561044f57600080fd5b506102aa610d7a565b34801561046457600080fd5b506102aa610d7f565b34801561047957600080fd5b506103836004803603602081101561049057600080fd5b5035610d85565b3480156104a357600080fd5b506102aa610dfa565b3480156104b857600080fd5b506102aa600480360360408110156104cf57600080fd5b5080359060200135610e06565b3480156104e857600080fd5b506102aa600480360360208110156104ff57600080fd5b50356001600160a01b0316610e23565b34801561051b57600080fd5b506103836004803603604081101561053257600080fd5b50803590602001356001600160a01b0316610e35565b34801561055457600080fd5b506102aa610fb6565b34801561056957600080fd5b50610412610fc2565b34801561057e57600080fd5b50610587610fd1565b604080516001600160801b039092168252519081900360200190f35b3480156105af57600080fd5b50610412610fe7565b3480156105c457600080fd5b506102aa610ff6565b3480156105d957600080fd5b506102aa611002565b3480156105ee57600080fd5b50610412611103565b34801561060357600080fd5b506102ef6004803603602081101561061a57600080fd5b50356001600160a01b0316611112565b34801561063657600080fd5b506102aa61114d565b34801561064b57600080fd5b506102aa611209565b34801561066057600080fd5b5061041261120f565b34801561067557600080fd5b5061067e61121e565b604080519115158252519081900360200190f35b34801561069e57600080fd5b5061041261122f565b3480156106b357600080fd5b506102aa61123e565b3480156106c857600080fd5b50610587611244565b3480156106dd57600080fd5b50610704600480360360208110156106f457600080fd5b50356001600160a01b0316611253565b6040805192835290151560208301528051918290030190f35b34801561072957600080fd5b5061041261126f565b34801561073e57600080fd5b5061041261127e565b34801561075357600080fd5b506102aa61128d565b34801561076857600080fd5b506102aa6004803603602081101561077f57600080fd5b50356001600160a01b0316611293565b34801561079b57600080fd5b506102aa611397565b3480156107b057600080fd5b506102aa600480360360208110156107c757600080fd5b50356001600160a01b031661139d565b3480156107e357600080fd5b50610383600480360360e08110156107fa57600080fd5b506001600160a01b038135811691602081013582169160408201358116916060810135821691608082013581169160a081013582169160c0909101351661143a565b34801561084857600080fd5b506102aa6004803603604081101561085f57600080fd5b50803590602001356116eb565b34801561087857600080fd5b506102aa6004803603602081101561088f57600080fd5b50356001600160a01b0316611708565b3480156108ab57600080fd5b506108d2600480360360208110156108c257600080fd5b50356001600160a01b0316611805565b604080519283526001600160a01b0390911660208301528051918290030190f35b3480156108ff57600080fd5b506103836004803603604081101561091657600080fd5b506001600160a01b0381358116916020013516611827565b6000546001600160a01b031633146109775760405162461bcd60e51b81526004018080602001828103825260278152602001806133986027913960400191505060405180910390fd5b565b6000828201838110156109d3576040805162461bcd60e51b815260206004820152601b60248201527f536166654d6174683a206164646974696f6e206f766572666c6f770000000000604482015290519081900360640190fd5b90505b92915050565b60095490565b600f602052600090815260409020805460018201546002830154600390930154919290916001600160801b0380821691600160801b90041685565b6001600160a01b0381166000908152600b602052604081205480610a45576000915050610ac0565b610a4d6132ca565b506001600160a01b0383166000908152600c60209081526040808320815160a08101835281548152600182015493810193909352600281015491830191909152600301546001600160801b038082166060840152600160801b90910416608082015290610aba8383611a69565b93505050505b919050565b8015610ad357610ad3611b69565b336000908152600b6020526040902054610aec81611d26565b6008546001600160a01b0316610b0181611d68565b6000610b0c33610cbf565b90506000610b1933610a1d565b90506000610b278683611ddc565b90506000610b3b868463ffffffff611df216565b336000818152600b60205260409020600101549192506001600160a01b0390911690610b6990879083611e34565b6000610b748261139d565b90506000610b88828663ffffffff611df216565b9050610b948382611fd3565b6040805182815233602082015281516001600160a01b03861692600080516020613585833981519152928290030190a2610bce338661211f565b6000610be0878763ffffffff611df216565b9050610bec33826121a5565b60408051828152905133916000805160206133f0833981519152919081900360200190a26040805189815260208101879052815133926000805160206134d4833981519152928290030190a2610c418861232b565b5050505050505050505050565b6802b5e3af16b188000081565b610c63612449565b600a54801580610c71575082155b15610c7c5750610cbb565b600854610c91906001600160a01b0316611d68565b600080610c9f848685612492565b91509150610cad8282612581565b610cb784866127a9565b5050505b5050565b6001600160a01b0381166000908152600b602052604081205480610ce7576000915050610ac0565b610cef6132ca565b506001600160a01b0383166000908152600c60209081526040808320815160a08101835281548152600182015493810193909352600281015491830191909152600301546001600160801b038082166060840152600160801b90910416608082015290610aba83836128e3565b6001546001600160a01b031681565b6005546001600160a01b031681565b60c881565b60165481565b610d8e336129e2565b610d9733612a3d565b610da081612a93565b336000818152600d60209081526040918290208481556001908101805460ff19169091179055815184815291517f19bc932fb9e16a8b5a1e41be9f4c2de59d5ddd7567b8b81405f532ca00a9880e9281900390910190a250565b6714d1120d7b16000081565b601360209081526000928352604080842090915290825290205481565b600e6020526000908152604090205481565b610e3e81612ada565b610e47336129e2565b610e5082612b46565b336000908152600b60205260409020546008546001600160a01b0316610e7581611d68565b81610e8457610e843384612b85565b6000610e8f33610cbf565b90506000610e9c33610a1d565b90506000610eb0858363ffffffff611df216565b336000818152600b60205260409020600101549192506001600160a01b0390911690610ede90869083611e34565b6000610ee98261139d565b90506000610efd828b63ffffffff61097916565b9050610f098382611fd3565b6040805182815233602082015281516001600160a01b03861692600080516020613585833981519152928290030190a2610f43338b612bb6565b6000610f55868c63ffffffff61097916565b9050610f6133826121a5565b60408051828152905133916000805160206133f0833981519152919081900360200190a26040805188815260208101879052815133926000805160206134d4833981519152928290030190a2610c418761232b565b670de0b6b3a764000081565b6002546001600160a01b031681565b601154600160801b90046001600160801b031681565b6004546001600160a01b031681565b670f43fc2c04ee000081565b6000805460408051632f5a97e560e11b8152905183926001600160a01b031691635eb52fca916004808301926020929190829003018186803b15801561104757600080fd5b505afa15801561105b573d6000803e3d6000fd5b505050506040513d602081101561107157600080fd5b505160015460408051632f5a97e560e11b815290519293506000926001600160a01b0390921691635eb52fca91600480820192602092909190829003018186803b1580156110be57600080fd5b505afa1580156110d2573d6000803e3d6000fd5b505050506040513d60208110156110e857600080fd5b505190506110fc828263ffffffff61097916565b9250505090565b6000546001600160a01b031681565b600c602052600090815260409020805460018201546002830154600390930154919290916001600160801b0380821691600160801b90041685565b6000805460408051630a7b61df60e11b8152905183926001600160a01b0316916314f6c3be916004808301926020929190829003018186803b15801561119257600080fd5b505afa1580156111a6573d6000803e3d6000fd5b505050506040513d60208110156111bc57600080fd5b505160015460408051630a7b61df60e11b815290519293506000926001600160a01b03909216916314f6c3be91600480820192602092909190829003018186803b1580156110be57600080fd5b60105481565b6003546001600160a01b031690565b6003546001600160a01b0316331490565b6008546001600160a01b031681565b600a5490565b6011546001600160801b031681565b600d602052600090815260409020805460019091015460ff1682565b6007546001600160a01b031681565b6006546001600160a01b031681565b60145481565b6001600160a01b0381166000908152600e6020526040812054806112bb576000915050610ac0565b6001600160a01b0383166000908152600d6020526040812054906112ed670de0b6b3a76400008363ffffffff611df216565b90506112f76132ca565b506001600160a01b0385166000908152600f60209081526040808320815160a08101835281548152600182015493810193909352600281015491830191909152600301546001600160801b038082166060840152600160801b9091041660808201529061138c670de0b6b3a76400006113806113738886612c80565b869063ffffffff612d1a16565b9063ffffffff612d7316565b979650505050505050565b60155481565b6001600160a01b0381166000908152600e6020526040812054806113c5576000915050610ac0565b6113cd6132ca565b506001600160a01b0383166000908152600f60209081526040808320815160a08101835281548152600182015493810193909352600281015491830191909152600301546001600160801b038082166060840152600160801b90910416608082015290610aba8383611a69565b61144261121e565b611493576040805162461bcd60e51b815260206004820181905260248201527f4f776e61626c653a2063616c6c6572206973206e6f7420746865206f776e6572604482015290519081900360640190fd5b61149c87612db5565b6114a586612db5565b6114ae85612db5565b6114b784612db5565b6114c083612db5565b6114c982612db5565b6114d281612db5565b600480546001600160a01b03199081166001600160a01b038a81169182179093556005805483168a85161790556000805483168985161790556006805483168885161790556007805483168785161790556002805483168685161790556008805490921692841692909217905560408051918252517f3ca631ffcd2a9b5d9ae18543fc82f58eb4ca33af9e6ab01b7a8e95331e6ed985916020908290030190a1604080516001600160a01b038816815290517f143219c9e69b09e07e095fcc889b43d8f46ca892bba65f08dc3a0050869a56789181900360200190a1604080516001600160a01b038716815290517f78f058b189175430c48dc02699e3a0031ea4ff781536dc2fab847de4babdd8829181900360200190a1604080516001600160a01b038616815290517f227eec0ec317af6ab1a9587ffa1c84332522eb4c583a908f89babc05f8f339bd9181900360200190a1604080516001600160a01b038516815290517f65f4cf077bc01e4742eb5ad98326f6e95b63548ea24b17f8d5e823111fe788009181900360200190a1604080516001600160a01b038416815290517f8c537274438aa850a330284665d81a85dd38267d09e4050d416bfc94142db2649181900360200190a1604080516001600160a01b038316815290517f3055265812fb8447b9ada4a5d804ec43bd528ec40e89c952bbc7b85dc5ac68119181900360200190a16116e2612e64565b50505050505050565b601260209081526000928352604080842090915290825290205481565b6001600160a01b0381166000908152600b602052604081205480611730576000915050610ac0565b6001600160a01b038084166000908152600b6020526040812060010154909116908115611775576001600160a01b0382166000908152600d602052604090205461177f565b670de0b6b3a76400005b90506117896132ca565b506001600160a01b0385166000908152600c60209081526040808320815160a08101835281548152600182015493810193909352600281015491830191909152600301546001600160801b038082166060840152600160801b9091041660808201529061138c670de0b6b3a76400006113806113738886612c80565b600b60205260009081526040902080546001909101546001600160a01b031682565b336000908152600b602052604090205461184081611d26565b61184933612eae565b61185233612f65565b6008546001600160a01b031661186781611d68565b600061187233610cbf565b9050600061187f33610a1d565b90506000611893858363ffffffff611df216565b336000818152600b60205260409020600101549192506001600160a01b03909116906118c190869083611e34565b60006118cc8261139d565b9050806118d98382611fd3565b6040805182815233602082015281516001600160a01b03861692600080516020613585833981519152928290030190a261191333866121a5565b6040805187815260208101869052815133926000805160206134d4833981519152928290030190a260408051868152905133916000805160206133f0833981519152919081900360200190a2600954611972908763ffffffff611df216565b600981905560408051918252517f7ab2bdf6e6d108cd138a8f6436723e8dfd0cb22727fe608e40b5adfb8357f1b99181900360200190a1604080513381526020810188905281517f6109e2559dfa766aaec7118351d48a523f0a4157f49c8d68749c8ac41318ad12929181900390910190a1600480546040805163ea9638bf60e01b815233938101939093526001600160a01b038d811660248501528c81166044850152905191169163ea9638bf91899160648082019260009290919082900301818588803b158015611a4457600080fd5b505af1158015611a58573d6000803e3d6000fd5b505050505050505050505050505050565b6020810151606082015160808301516011546000939291906001600160801b03600160801b90910481169082161015611aa857600093505050506109d6565b6011546000908190611ac9906001600160801b03168563ffffffff612fb116565b90506001600160801b038116611af957611af2856113806010548b612d1a90919063ffffffff16565b9150611b35565b806001600160801b031660011415611b3057611af2670de0b6b3a7640000611380876113806010548d612d1a90919063ffffffff16565b600091505b611b4988633b9aca0063ffffffff612d7316565b821015611b5e576000955050505050506109d6565b509695505050505050565b60025460408051630fdb11cf60e01b815290516000926001600160a01b031691630fdb11cf91600480830192602092919082900301818787803b158015611baf57600080fd5b505af1158015611bc3573d6000803e3d6000fd5b505050506040513d6020811015611bd957600080fd5b505160075460408051634d62283160e01b815290519293506000926001600160a01b0390921691634d62283191600480820192602092909190829003018186803b158015611c2657600080fd5b505afa158015611c3a573d6000803e3d6000fd5b505050506040513d6020811015611c5057600080fd5b505160055460408051630d293c7160e41b81526001600160a01b038085166004830152602482018790529151939450600093919092169163d293c710916044808301926020929190829003018186803b158015611cac57600080fd5b505afa158015611cc0573d6000803e3d6000fd5b505050506040513d6020811015611cd657600080fd5b50519050670f43fc2c04ee0000811015611d215760405162461bcd60e51b81526004018080602001828103825260448152602001806135f26044913960600191505060405180910390fd5b505050565b60008111611d655760405162461bcd60e51b81526004018080602001828103825260308152602001806135556030913960400191505060405180910390fd5b50565b6000816001600160a01b03166346ad34d96040518163ffffffff1660e01b8152600401602060405180830381600087803b158015611da557600080fd5b505af1158015611db9573d6000803e3d6000fd5b505050506040513d6020811015611dcf57600080fd5b50519050610cbb8161300a565b6000818310611deb57816109d3565b5090919050565b60006109d383836040518060400160405280601e81526020017f536166654d6174683a207375627472616374696f6e206f766572666c6f7700008152506130c3565b6001600160a01b03811615611f09576000611e4e82611293565b9050836001600160a01b031663614d2ab683836040518363ffffffff1660e01b815260040180836001600160a01b03166001600160a01b0316815260200182815260200192505050600060405180830381600087803b158015611eb057600080fd5b505af1158015611ec4573d6000803e3d6000fd5b50506040805184815290516001600160a01b03861693507fcd2cdc1a4af71051394e9c6facd9a266b2ac5bd65d219a701eeda009f47682bf92509081900360200190a2505b6000611f1483611708565b9050836001600160a01b031663614d2ab684836040518363ffffffff1660e01b815260040180836001600160a01b03166001600160a01b0316815260200182815260200192505050600060405180830381600087803b158015611f7657600080fd5b505af1158015611f8a573d6000803e3d6000fd5b50506040805184815290516001600160a01b03871693507f2608b986a6ac0f6c629ca37018e80af5561e366252ae93602a96d3ab2e73e42d92509081900360200190a250505050565b6001600160a01b0382166000908152600e6020526040902081905580612063576001600160a01b0382166000818152600f60209081526040808320838155600181018490556002810184905560030183905580518381529182019290925281517fbb1322f85cc7cc8bac4e172a5bc5dcc0c1959007f9a030032abf9258205f0e45929181900390910190a2610cbb565b6011546010546001600160801b03600160801b80840482166000818152601360209081526040808320978616808452978252808320546001600160a01b038b16808552600f845293829020600181018990556002810182905560030180546001600160801b0319168a17909716958502959095179095558451868152908101849052845192959491927fbb1322f85cc7cc8bac4e172a5bc5dcc0c1959007f9a030032abf9258205f0e45929181900390910190a2505050505050565b8061212957610cbb565b60065460408051631062c15f60e11b81523060048201526001600160a01b03858116602483015260448201859052915191909216916320c582be91606480830192600092919082900301818387803b15801561218457600080fd5b505af1158015612198573d6000803e3d6000fd5b50505050610cbb8161315a565b6001600160a01b0382166000908152600b6020526040902081905580612253576001600160a01b0382166000818152600b60209081526040808320600190810180546001600160a01b0319169055600c83528184208481559081018490556002810184905560030183905580518381529182018390528181019290925290517f2d6cc0bcdf72c9486f6451bde6b80f44066f4558f77f44dbfedbe7d8b295225a9181900360600190a2610cbb565b6011546010546001600160801b03600160801b8084048216600081815260126020908152604080832097861680845297825280832054848452601383528184208985528352818420546001600160a01b038c16808652600c855294839020600181018a90558281556002810182905560030180546001600160801b0319168b179098169686029690961790965580518781529182018690528181018590525192959493927f2d6cc0bcdf72c9486f6451bde6b80f44066f4558f77f44dbfedbe7d8b295225a916060908290030190a250505050505050565b8061233557611d65565b60095460009061234b908363ffffffff611df216565b60098190556040805182815290519192507f7ab2bdf6e6d108cd138a8f6436723e8dfd0cb22727fe608e40b5adfb8357f1b9919081900360200190a1604080513381526020810184905281517f6109e2559dfa766aaec7118351d48a523f0a4157f49c8d68749c8ac41318ad12929181900390910190a1604051600090339084908381818185875af1925050503d8060008114612404576040519150601f19603f3d011682016040523d82523d6000602084013e612409565b606091505b5050905080611d215760405162461bcd60e51b81526004018080602001828103825260218152602001806134396021913960400191505060405180910390fd5b6005546001600160a01b031633146109775760405162461bcd60e51b81526004018080602001828103825260298152602001806134106029913960400191505060405180910390fd5b60008060006124c46016546124b8670de0b6b3a764000088612d1a90919063ffffffff16565b9063ffffffff611df216565b905060006124f56015546124e9670de0b6b3a76400008a612d1a90919063ffffffff16565b9063ffffffff61097916565b9050848610612513576000601655670de0b6b3a76400009250612542565b61252860016124e9848863ffffffff612d7316565b925061253e826124b8858863ffffffff612d1a16565b6016555b612552818663ffffffff612d7316565b9350612574612567858763ffffffff612d1a16565b829063ffffffff611df216565b6015555050935093915050565b6010546000670de0b6b3a764000083111561259857fe5b6000670de0b6b3a76400008410156125c7576125c2670de0b6b3a76400008563ffffffff611df216565b6125ca565b60005b6011546001600160801b03600160801b82048116600081815260126020908152604080832094909516808352939052928320549394509092909161260e8988612d1a565b90506000612622838363ffffffff61097916565b6001600160801b038086166000908152601260209081526040808320938a16835292815290829020839055815183815291519293507fb3b0cd868e433c74c233db87efea57c13377de7056bf27b1a50feaab5bfd499192918290030190a1856126d65761269f6001600160801b038516600163ffffffff6131b016565b601180546001600160801b03928316600160801b029216919091176001600160801b0319169055670de0b6b3a76400009650612765565b670de0b6b3a76400006126ef898863ffffffff612d1a16565b101561274657612705888763ffffffff612d1a16565b96506127216001600160801b038616600163ffffffff6131b016565b601180546001600160801b0319166001600160801b0392909216919091179055612765565b612762670de0b6b3a76400006113808a8963ffffffff612d1a16565b96505b60108790556040805188815290517fc1a9618cb59ebca77cbdbc2949f126823c407ff13edb285fd0262519a9c18e8c9181900360200190a150505050505050505050565b600080546040805163071b32b560e31b81526004810185905290516001600160a01b039092169283926338d995a892602480820193929182900301818387803b1580156127f557600080fd5b505af1158015612809573d6000803e3d6000fd5b505050506128168261315a565b60065460408051632770a7eb60e21b81523060048201526024810185905290516001600160a01b0390921691639dc29fac9160448082019260009290919082900301818387803b15801561286957600080fd5b505af115801561287d573d6000803e3d6000fd5b5050604080516364a197f360e01b81523060048201526024810187905290516001600160a01b03851693506364a197f39250604480830192600092919082900301818387803b1580156128cf57600080fd5b505af11580156116e2573d6000803e3d6000fd5b6080810151606082015182516020808501516001600160801b03808616600090815260128452604080822092871682529190935282205491949392918590612931908463ffffffff611df216565b905060006129a2670de0b6b3a764000060126000896001600160801b03168152602001908152602001600020600061297c60018a6001600160801b03166131b090919063ffffffff16565b6001600160801b0316815260200190815260200160002054612d7390919063ffffffff16565b905060006129d4670de0b6b3a764000061138086816129c7888863ffffffff61097916565b8f9063ffffffff612d1a16565b9a9950505050505050505050565b6001600160a01b0381166000908152600d602052604090206001015460ff1615611d655760405162461bcd60e51b81526004018080602001828103825260398152602001806134f46039913960400191505060405180910390fd5b6001600160a01b0381166000908152600b60205260409020548015610cbb5760405162461bcd60e51b815260040180806020018281038252602881526020018061352d6028913960400191505060405180910390fd5b670de0b6b3a7640000811115611d655760405162461bcd60e51b815260040180806020018281038252603381526020018061347b6033913960400191505060405180910390fd5b6001600160a01b0381166000908152600d602052604090206001015460ff1680612b0b57506001600160a01b038116155b611d655760405162461bcd60e51b81526004018080602001828103825260468152602001806133526046913960600191505060405180910390fd5b60008111611d655760405162461bcd60e51b81526004018080602001828103825260268152602001806134ae6026913960400191505060405180910390fd5b6001600160a01b039182166000908152600b6020526040902060010180546001600160a01b03191691909216179055565b60065460408051632ee65eeb60e21b81526001600160a01b038581166004830152306024830152604482018590529151919092169163bb997bac91606480830192600092919082900301818387803b158015612c1157600080fd5b505af1158015612c25573d6000803e3d6000fd5b5050600a5460009250612c3f91508363ffffffff61097916565b600a8190556040805182815290519192507fb85aa39be26453c93060ffe42e1e6ea34980cb12e563f517cbce039dcd5af392919081900360200190a1505050565b608081015160608201516040808401516020808601516001600160801b03808716600090815260138452858120918716815292529281205490949392908590612ccf908463ffffffff611df216565b905060006129a2670de0b6b3a764000060136000896001600160801b03168152602001908152602001600020600061297c60018a6001600160801b03166131b090919063ffffffff16565b600082612d29575060006109d6565b82820282848281612d3657fe5b04146109d35760405162461bcd60e51b815260040180806020018281038252602181526020018061345a6021913960400191505060405180910390fd5b60006109d383836040518060400160405280601a81526020017f536166654d6174683a206469766973696f6e206279207a65726f000000000000815250613200565b6001600160a01b038116612e10576040805162461bcd60e51b815260206004820152601e60248201527f4163636f756e742063616e6e6f74206265207a65726f20616464726573730000604482015290519081900360640190fd5b803b80610cbb576040805162461bcd60e51b815260206004820181905260248201527f4163636f756e7420636f64652073697a652063616e6e6f74206265207a65726f604482015290519081900360640190fd5b6003546040516000916001600160a01b0316907f8be0079c531659141344cd1fd0a4f28419497f9722a3daafe3b4186f6b6457e0908390a3600380546001600160a01b0319169055565b600554604080516321e3780160e01b81526001600160a01b038481166004830152915191909216916321e37801916024808301926020929190829003018186803b158015612efb57600080fd5b505afa158015612f0f573d6000803e3d6000fd5b505050506040513d6020811015612f2557600080fd5b5051600114611d655760405162461bcd60e51b815260040180806020018281038252604681526020018061330c6046913960600191505060405180910390fd5b6000612f7082610cbf565b905060008111610cbb5760405162461bcd60e51b81526004018080602001828103825260318152602001806133bf6031913960400191505060405180910390fd5b6000826001600160801b0316826001600160801b031611156130045760405162461bcd60e51b81526004018080602001828103825260288152602001806135a56028913960400191505060405180910390fd5b50900390565b600a54801580613018575081155b156130235750611d65565b600061302f8383613265565b9050600061304860105483612d1a90919063ffffffff16565b6011546001600160801b03600160801b82048116600090815260136020908152604080832093909416825291909152205490915061308c908263ffffffff61097916565b6011546001600160801b03600160801b82048116600090815260136020908152604080832093909416825291909152205550505050565b600081848411156131525760405162461bcd60e51b81526004018080602001828103825283818151815260200191508051906020019080838360005b838110156131175781810151838201526020016130ff565b50505050905090810190601f1680156131445780820380516001836020036101000a031916815260200191505b509250505060405180910390fd5b505050900390565b600a54600090613170908363ffffffff611df216565b600a8190556040805182815290519192507fb85aa39be26453c93060ffe42e1e6ea34980cb12e563f517cbce039dcd5af392919081900360200190a15050565b60008282016001600160801b0380851690821610156109d35760405162461bcd60e51b81526004018080602001828103825260258152602001806135cd6025913960400191505060405180910390fd5b6000818361324f5760405162461bcd60e51b81526020600482018181528351602484015283519092839260449091019190850190808383600083156131175781810151838201526020016130ff565b50600083858161325b57fe5b0495945050505050565b6000806132896014546124e9670de0b6b3a764000087612d1a90919063ffffffff16565b9050600061329d828563ffffffff612d7316565b90506132bf6132b2828663ffffffff612d1a16565b839063ffffffff611df216565b601455949350505050565b6040518060a0016040528060008152602001600081526020016000815260200160006001600160801b0316815260200160006001600160801b03168152509056fe53746162696c697479506f6f6c3a2063616c6c6572206d757374206861766520616e206163746976652074726f766520746f207769746864726177204554484761696e20746f53746162696c697479506f6f6c3a20546167206d757374206265206120726567697374657265642066726f6e7420656e642c206f7220746865207a65726f206164647265737353746162696c697479506f6f6c3a2043616c6c6572206973206e6f7420416374697665506f6f6c53746162696c697479506f6f6c3a2063616c6c6572206d7573742068617665206e6f6e2d7a65726f20455448204761696ebce78369dccab09eec1986f4d409ab09ffbb47d65423e5148fcf98411c5111c953746162696c697479506f6f6c3a2043616c6c6572206973206e6f742054726f76654d616e6167657253746162696c697479506f6f6c3a2073656e64696e6720455448206661696c6564536166654d6174683a206d756c7469706c69636174696f6e206f766572666c6f7753746162696c697479506f6f6c3a204b69636b6261636b2072617465206d75737420626520696e2072616e6765205b302c315d53746162696c697479506f6f6c3a20416d6f756e74206d757374206265206e6f6e2d7a65726f51457222ebca92c335c9c86e2baa1cc0e40ffaa9084a51452980d5ba8dec2f6353746162696c697479506f6f6c3a206d757374206e6f7420616c7265616479206265206120726567697374657265642066726f6e7420656e6453746162696c697479506f6f6c3a2055736572206d7573742068617665206e6f206465706f73697453746162696c697479506f6f6c3a2055736572206d75737420686176652061206e6f6e2d7a65726f206465706f73697499920012339b5a3368d3a04b8606ce412c46ed92b7dcd8602d41fc8862cb8f254c697175697479536166654d6174683132383a207375627472616374696f6e206f766572666c6f774c697175697479536166654d6174683132383a206164646974696f6e206f766572666c6f7753746162696c697479506f6f6c3a2043616e6e6f74207769746864726177207768696c65207468657265206172652074726f766573207769746820494352203c204d4352a264697066735822122040dcaae5fd196327a3a935ae8b114d93985075307f169cc2e053e35a9118d4ba64736f6c634300060b0033",
  "linkReferences": {},
  "deployedLinkReferences": {}
}