{
  "_format": "hh-sol-artifact-1",
  "contractName": "StabilityPoolTester",
  "sourceName": "contracts/TestContracts/StabilityPoolTester.sol",
  "abi": [
    {
      "anonymous": false,
      "inputs": [
        {
          "indexed": false,
          "internalType": "address",
          "name": "_newActivePoolAddress",
          "type": "address"
        }
      ],
      "name": "ActivePoolAddressChanged",
      "type": "event"
    },
    {
      "anonymous": false,
      "inputs": [
        {
          "indexed": false,
          "internalType": "address",
          "name": "_newBorrowerOperationsAddress",
          "type": "address"
        }
      ],
      "name": "BorrowerOperationsAddressChanged",
      "type": "event"
    },
    {
      "anonymous": false,
      "inputs": [
        {
          "indexed": false,
          "internalType": "address",
          "name": "_newCommunityIssuanceAddress",
          "type": "address"
        }
      ],
      "name": "CommunityIssuanceAddressChanged",
      "type": "event"
    },
    {
      "anonymous": false,
      "inputs": [
        {
          "indexed": false,
          "internalType": "address",
          "name": "_newDefaultPoolAddress",
          "type": "address"
        }
      ],
      "name": "DefaultPoolAddressChanged",
      "type": "event"
    },
    {
      "anonymous": false,
      "inputs": [
        {
          "indexed": true,
          "internalType": "address",
          "name": "_depositor",
          "type": "address"
        },
        {
          "indexed": false,
          "internalType": "uint256",
          "name": "_P",
          "type": "uint256"
        },
        {
          "indexed": false,
          "internalType": "uint256",
          "name": "_S",
          "type": "uint256"
        },
        {
          "indexed": false,
          "internalType": "uint256",
          "name": "_G",
          "type": "uint256"
        }
      ],
      "name": "DepositSnapshotUpdated",
      "type": "event"
    },
    {
      "anonymous": false,
      "inputs": [
        {
          "indexed": false,
          "internalType": "uint256",
          "name": "_newBalance",
          "type": "uint256"
        }
      ],
      "name": "ETHBalanceUpdated",
      "type": "event"
    },
    {
      "anonymous": false,
      "inputs": [
        {
          "indexed": true,
          "internalType": "address",
          "name": "_depositor",
          "type": "address"
        },
        {
          "indexed": false,
          "internalType": "uint256",
          "name": "_ETH",
          "type": "uint256"
        },
        {
          "indexed": false,
          "internalType": "uint256",
          "name": "_LUSDLoss",
          "type": "uint256"
        }
      ],
      "name": "ETHGainWithdrawn",
      "type": "event"
    },
    {
      "anonymous": false,
      "inputs": [
        {
          "indexed": false,
          "internalType": "address",
          "name": "_to",
          "type": "address"
        },
        {
          "indexed": false,
          "internalType": "uint256",
          "name": "_amount",
          "type": "uint256"
        }
      ],
      "name": "EtherSent",
      "type": "event"
    },
    {
      "anonymous": false,
      "inputs": [
        {
          "indexed": true,
          "internalType": "address",
          "name": "_frontEnd",
          "type": "address"
        },
        {
          "indexed": false,
          "internalType": "uint256",
          "name": "_kickbackRate",
          "type": "uint256"
        }
      ],
      "name": "FrontEndRegistered",
      "type": "event"
    },
    {
      "anonymous": false,
      "inputs": [
        {
          "indexed": true,
          "internalType": "address",
          "name": "_frontEnd",
          "type": "address"
        },
        {
          "indexed": false,
          "internalType": "uint256",
          "name": "_P",
          "type": "uint256"
        },
        {
          "indexed": false,
          "internalType": "uint256",
          "name": "_G",
          "type": "uint256"
        }
      ],
      "name": "FrontEndSnapshotUpdated",
      "type": "event"
    },
    {
      "anonymous": false,
      "inputs": [
        {
          "indexed": true,
          "internalType": "address",
          "name": "_frontEnd",
          "type": "address"
        },
        {
          "indexed": false,
          "internalType": "uint256",
          "name": "_newFrontEndStake",
          "type": "uint256"
        },
        {
          "indexed": false,
          "internalType": "address",
          "name": "_depositor",
          "type": "address"
        }
      ],
      "name": "FrontEndStakeChanged",
      "type": "event"
    },
    {
      "anonymous": false,
      "inputs": [
        {
          "indexed": false,
          "internalType": "uint256",
          "name": "_G",
          "type": "uint256"
        }
      ],
      "name": "G_Updated",
      "type": "event"
    },
    {
      "anonymous": false,
      "inputs": [
        {
          "indexed": true,
          "internalType": "address",
          "name": "_depositor",
          "type": "address"
        },
        {
          "indexed": false,
          "internalType": "uint256",
          "name": "_LQTY",
          "type": "uint256"
        }
      ],
      "name": "LQTYPaidToDepositor",
      "type": "event"
    },
    {
      "anonymous": false,
      "inputs": [
        {
          "indexed": true,
          "internalType": "address",
          "name": "_frontEnd",
          "type": "address"
        },
        {
          "indexed": false,
          "internalType": "uint256",
          "name": "_LQTY",
          "type": "uint256"
        }
      ],
      "name": "LQTYPaidToFrontEnd",
      "type": "event"
    },
    {
      "anonymous": false,
      "inputs": [
        {
          "indexed": false,
          "internalType": "uint256",
          "name": "_newBalance",
          "type": "uint256"
        }
      ],
      "name": "LUSDBalanceUpdated",
      "type": "event"
    },
    {
      "anonymous": false,
      "inputs": [
        {
          "indexed": false,
          "internalType": "address",
          "name": "_newLUSDTokenAddress",
          "type": "address"
        }
      ],
      "name": "LUSDTokenAddressChanged",
      "type": "event"
    },
    {
      "anonymous": false,
      "inputs": [
        {
          "indexed": true,
          "internalType": "address",
          "name": "previousOwner",
          "type": "address"
        },
        {
          "indexed": true,
          "internalType": "address",
          "name": "newOwner",
          "type": "address"
        }
      ],
      "name": "OwnershipTransferred",
      "type": "event"
    },
    {
      "anonymous": false,
      "inputs": [
        {
          "indexed": false,
          "internalType": "uint256",
          "name": "_P",
          "type": "uint256"
        }
      ],
      "name": "P_Updated",
      "type": "event"
    },
    {
      "anonymous": false,
      "inputs": [
        {
          "indexed": false,
          "internalType": "address",
          "name": "_newPriceFeedAddress",
          "type": "address"
        }
      ],
      "name": "PriceFeedAddressChanged",
      "type": "event"
    },
    {
      "anonymous": false,
      "inputs": [
        {
          "indexed": false,
          "internalType": "uint256",
          "name": "_S",
          "type": "uint256"
        }
      ],
      "name": "S_Updated",
      "type": "event"
    },
    {
      "anonymous": false,
      "inputs": [
        {
          "indexed": false,
          "internalType": "address",
          "name": "_newSortedTrovesAddress",
          "type": "address"
        }
      ],
      "name": "SortedTrovesAddressChanged",
      "type": "event"
    },
    {
      "anonymous": false,
      "inputs": [
        {
          "indexed": false,
          "internalType": "address",
          "name": "_newTroveManagerAddress",
          "type": "address"
        }
      ],
      "name": "TroveManagerAddressChanged",
      "type": "event"
    },
    {
      "anonymous": false,
      "inputs": [
        {
          "indexed": true,
          "internalType": "address",
          "name": "_depositor",
          "type": "address"
        },
        {
          "indexed": false,
          "internalType": "uint256",
          "name": "_newDeposit",
          "type": "uint256"
        }
      ],
      "name": "UserDepositChanged",
      "type": "event"
    },
    {
      "inputs": [],
      "name": "CCR",
      "outputs": [
        {
          "internalType": "uint256",
          "name": "",
          "type": "uint256"
        }
      ],
      "stateMutability": "view",
      "type": "function"
    },
    {
      "inputs": [],
      "name": "DECIMAL_PRECISION",
      "outputs": [
        {
          "internalType": "uint256",
          "name": "",
          "type": "uint256"
        }
      ],
      "stateMutability": "view",
      "type": "function"
    },
    {
      "inputs": [],
      "name": "LUSD_GAS_COMPENSATION",
      "outputs": [
        {
          "internalType": "uint256",
          "name": "",
          "type": "uint256"
        }
      ],
      "stateMutability": "view",
      "type": "function"
    },
    {
      "inputs": [],
      "name": "MCR",
      "outputs": [
        {
          "internalType": "uint256",
          "name": "",
          "type": "uint256"
        }
      ],
      "stateMutability": "view",
      "type": "function"
    },
    {
      "inputs": [],
      "name": "P",
      "outputs": [
        {
          "internalType": "uint256",
          "name": "",
          "type": "uint256"
        }
      ],
      "stateMutability": "view",
      "type": "function"
    },
    {
      "inputs": [],
      "name": "PERCENT_DIVISOR",
      "outputs": [
        {
          "internalType": "uint256",
          "name": "",
          "type": "uint256"
        }
      ],
      "stateMutability": "view",
      "type": "function"
    },
    {
      "inputs": [],
      "name": "R_MCR",
      "outputs": [
        {
          "internalType": "uint256",
          "name": "",
          "type": "uint256"
        }
      ],
      "stateMutability": "view",
      "type": "function"
    },
    {
      "inputs": [],
      "name": "_100pct",
      "outputs": [
        {
          "internalType": "uint256",
          "name": "",
          "type": "uint256"
        }
      ],
      "stateMutability": "view",
      "type": "function"
    },
    {
      "inputs": [],
      "name": "activePool",
      "outputs": [
        {
          "internalType": "contract IActivePool",
          "name": "",
          "type": "address"
        }
      ],
      "stateMutability": "view",
      "type": "function"
    },
    {
      "inputs": [],
      "name": "borrowerOperations",
      "outputs": [
        {
          "internalType": "contract IBorrowerOperations",
          "name": "",
          "type": "address"
        }
      ],
      "stateMutability": "view",
      "type": "function"
    },
    {
      "inputs": [],
      "name": "communityIssuance",
      "outputs": [
        {
          "internalType": "contract ICommunityIssuance",
          "name": "",
          "type": "address"
        }
      ],
      "stateMutability": "view",
      "type": "function"
    },
    {
      "inputs": [],
      "name": "currentEpoch",
      "outputs": [
        {
          "internalType": "uint128",
          "name": "",
          "type": "uint128"
        }
      ],
      "stateMutability": "view",
      "type": "function"
    },
    {
      "inputs": [],
      "name": "currentScale",
      "outputs": [
        {
          "internalType": "uint128",
          "name": "",
          "type": "uint128"
        }
      ],
      "stateMutability": "view",
      "type": "function"
    },
    {
      "inputs": [],
      "name": "defaultPool",
      "outputs": [
        {
          "internalType": "contract IDefaultPool",
          "name": "",
          "type": "address"
        }
      ],
      "stateMutability": "view",
      "type": "function"
    },
    {
      "inputs": [
        {
          "internalType": "address",
          "name": "",
          "type": "address"
        }
      ],
      "name": "depositSnapshots",
      "outputs": [
        {
          "internalType": "uint256",
          "name": "S",
          "type": "uint256"
        },
        {
          "internalType": "uint256",
          "name": "P",
          "type": "uint256"
        },
        {
          "internalType": "uint256",
          "name": "G",
          "type": "uint256"
        },
        {
          "internalType": "uint128",
          "name": "scale",
          "type": "uint128"
        },
        {
          "internalType": "uint128",
          "name": "epoch",
          "type": "uint128"
        }
      ],
      "stateMutability": "view",
      "type": "function"
    },
    {
      "inputs": [
        {
          "internalType": "address",
          "name": "",
          "type": "address"
        }
      ],
      "name": "deposits",
      "outputs": [
        {
          "internalType": "uint256",
          "name": "initialValue",
          "type": "uint256"
        },
        {
          "internalType": "address",
          "name": "frontEndTag",
          "type": "address"
        }
      ],
      "stateMutability": "view",
      "type": "function"
    },
    {
      "inputs": [
        {
          "internalType": "uint256",
          "name": "",
          "type": "uint256"
        },
        {
          "internalType": "uint256",
          "name": "",
          "type": "uint256"
        }
      ],
      "name": "epochToScaleToG",
      "outputs": [
        {
          "internalType": "uint256",
          "name": "",
          "type": "uint256"
        }
      ],
      "stateMutability": "view",
      "type": "function"
    },
    {
      "inputs": [
        {
          "internalType": "uint256",
          "name": "",
          "type": "uint256"
        },
        {
          "internalType": "uint256",
          "name": "",
          "type": "uint256"
        }
      ],
      "name": "epochToScaleToSum",
      "outputs": [
        {
          "internalType": "uint256",
          "name": "",
          "type": "uint256"
        }
      ],
      "stateMutability": "view",
      "type": "function"
    },
    {
      "inputs": [
        {
          "internalType": "address",
          "name": "",
          "type": "address"
        }
      ],
      "name": "frontEndSnapshots",
      "outputs": [
        {
          "internalType": "uint256",
          "name": "S",
          "type": "uint256"
        },
        {
          "internalType": "uint256",
          "name": "P",
          "type": "uint256"
        },
        {
          "internalType": "uint256",
          "name": "G",
          "type": "uint256"
        },
        {
          "internalType": "uint128",
          "name": "scale",
          "type": "uint128"
        },
        {
          "internalType": "uint128",
          "name": "epoch",
          "type": "uint128"
        }
      ],
      "stateMutability": "view",
      "type": "function"
    },
    {
      "inputs": [
        {
          "internalType": "address",
          "name": "",
          "type": "address"
        }
      ],
      "name": "frontEndStakes",
      "outputs": [
        {
          "internalType": "uint256",
          "name": "",
          "type": "uint256"
        }
      ],
      "stateMutability": "view",
      "type": "function"
    },
    {
      "inputs": [
        {
          "internalType": "address",
          "name": "",
          "type": "address"
        }
      ],
      "name": "frontEnds",
      "outputs": [
        {
          "internalType": "uint256",
          "name": "kickbackRate",
          "type": "uint256"
        },
        {
          "internalType": "bool",
          "name": "registered",
          "type": "bool"
        }
      ],
      "stateMutability": "view",
      "type": "function"
    },
    {
      "inputs": [
        {
          "internalType": "address",
          "name": "_frontEnd",
          "type": "address"
        }
      ],
      "name": "getCompoundedFrontEndStake",
      "outputs": [
        {
          "internalType": "uint256",
          "name": "",
          "type": "uint256"
        }
      ],
      "stateMutability": "view",
      "type": "function"
    },
    {
      "inputs": [
        {
          "internalType": "address",
          "name": "_depositor",
          "type": "address"
        }
      ],
      "name": "getCompoundedLUSDDeposit",
      "outputs": [
        {
          "internalType": "uint256",
          "name": "",
          "type": "uint256"
        }
      ],
      "stateMutability": "view",
      "type": "function"
    },
    {
      "inputs": [
        {
          "internalType": "address",
          "name": "_depositor",
          "type": "address"
        }
      ],
      "name": "getDepositorETHGain",
      "outputs": [
        {
          "internalType": "uint256",
          "name": "",
          "type": "uint256"
        }
      ],
      "stateMutability": "view",
      "type": "function"
    },
    {
      "inputs": [
        {
          "internalType": "address",
          "name": "_depositor",
          "type": "address"
        }
      ],
      "name": "getDepositorLQTYGain",
      "outputs": [
        {
          "internalType": "uint256",
          "name": "",
          "type": "uint256"
        }
      ],
      "stateMutability": "view",
      "type": "function"
    },
    {
      "inputs": [],
      "name": "getETH",
      "outputs": [
        {
          "internalType": "uint256",
          "name": "",
          "type": "uint256"
        }
      ],
      "stateMutability": "view",
      "type": "function"
    },
    {
      "inputs": [],
      "name": "getEntireSystemColl",
      "outputs": [
        {
          "internalType": "uint256",
          "name": "entireSystemColl",
          "type": "uint256"
        }
      ],
      "stateMutability": "view",
      "type": "function"
    },
    {
      "inputs": [],
      "name": "getEntireSystemDebt",
      "outputs": [
        {
          "internalType": "uint256",
          "name": "entireSystemDebt",
          "type": "uint256"
        }
      ],
      "stateMutability": "view",
      "type": "function"
    },
    {
      "inputs": [
        {
          "internalType": "address",
          "name": "_frontEnd",
          "type": "address"
        }
      ],
      "name": "getFrontEndLQTYGain",
      "outputs": [
        {
          "internalType": "uint256",
          "name": "",
          "type": "uint256"
        }
      ],
      "stateMutability": "view",
      "type": "function"
    },
    {
      "inputs": [],
      "name": "getTotalLUSDDeposits",
      "outputs": [
        {
          "internalType": "uint256",
          "name": "",
          "type": "uint256"
        }
      ],
      "stateMutability": "view",
      "type": "function"
    },
    {
      "inputs": [],
      "name": "isOwner",
      "outputs": [
        {
          "internalType": "bool",
          "name": "",
          "type": "bool"
        }
      ],
      "stateMutability": "view",
      "type": "function"
    },
    {
      "inputs": [],
      "name": "lastETHError_Offset",
      "outputs": [
        {
          "internalType": "uint256",
          "name": "",
          "type": "uint256"
        }
      ],
      "stateMutability": "view",
      "type": "function"
    },
    {
      "inputs": [],
      "name": "lastLQTYError",
      "outputs": [
        {
          "internalType": "uint256",
          "name": "",
          "type": "uint256"
        }
      ],
      "stateMutability": "view",
      "type": "function"
    },
    {
      "inputs": [],
      "name": "lastLUSDLossError_Offset",
      "outputs": [
        {
          "internalType": "uint256",
          "name": "",
          "type": "uint256"
        }
      ],
      "stateMutability": "view",
      "type": "function"
    },
    {
      "inputs": [],
      "name": "lusdToken",
      "outputs": [
        {
          "internalType": "contract ILUSDToken",
          "name": "",
          "type": "address"
        }
      ],
      "stateMutability": "view",
      "type": "function"
    },
    {
      "inputs": [
        {
          "internalType": "uint256",
          "name": "_debtToOffset",
          "type": "uint256"
        },
        {
          "internalType": "uint256",
          "name": "_collToAdd",
          "type": "uint256"
        }
      ],
      "name": "offset",
      "outputs": [],
      "stateMutability": "nonpayable",
      "type": "function"
    },
    {
      "inputs": [],
      "name": "owner",
      "outputs": [
        {
          "internalType": "address",
          "name": "",
          "type": "address"
        }
      ],
      "stateMutability": "view",
      "type": "function"
    },
    {
      "inputs": [],
      "name": "priceFeed",
      "outputs": [
        {
          "internalType": "contract IPriceFeed",
          "name": "",
          "type": "address"
        }
      ],
      "stateMutability": "view",
      "type": "function"
    },
    {
      "inputs": [
        {
          "internalType": "uint256",
          "name": "_amount",
          "type": "uint256"
        },
        {
          "internalType": "address",
          "name": "_frontEndTag",
          "type": "address"
        }
      ],
      "name": "provideToSP",
      "outputs": [],
      "stateMutability": "nonpayable",
      "type": "function"
    },
    {
      "inputs": [
        {
          "internalType": "uint256",
          "name": "_kickbackRate",
          "type": "uint256"
        }
      ],
      "name": "registerFrontEnd",
      "outputs": [],
      "stateMutability": "nonpayable",
      "type": "function"
    },
    {
      "inputs": [
        {
          "internalType": "address",
          "name": "_borrowerOperationsAddress",
          "type": "address"
        },
        {
          "internalType": "address",
          "name": "_troveManagerAddress",
          "type": "address"
        },
        {
          "internalType": "address",
          "name": "_activePoolAddress",
          "type": "address"
        },
        {
          "internalType": "address",
          "name": "_lusdTokenAddress",
          "type": "address"
        },
        {
          "internalType": "address",
          "name": "_sortedTrovesAddress",
          "type": "address"
        },
        {
          "internalType": "address",
          "name": "_priceFeedAddress",
          "type": "address"
        },
        {
          "internalType": "address",
          "name": "_communityIssuanceAddress",
          "type": "address"
        }
      ],
      "name": "setAddresses",
      "outputs": [],
      "stateMutability": "nonpayable",
      "type": "function"
    },
    {
      "inputs": [],
      "name": "sortedTroves",
      "outputs": [
        {
          "internalType": "contract ISortedTroves",
          "name": "",
          "type": "address"
        }
      ],
      "stateMutability": "view",
      "type": "function"
    },
    {
      "inputs": [],
      "name": "troveManager",
      "outputs": [
        {
          "internalType": "contract ITroveManager",
          "name": "",
          "type": "address"
        }
      ],
      "stateMutability": "view",
      "type": "function"
    },
    {
      "inputs": [],
      "name": "unprotectedPayable",
      "outputs": [],
      "stateMutability": "payable",
      "type": "function"
    },
    {
      "inputs": [
        {
          "internalType": "address",
          "name": "_upperHint",
          "type": "address"
        },
        {
          "internalType": "address",
          "name": "_lowerHint",
          "type": "address"
        }
      ],
      "name": "withdrawETHGainToTrove",
      "outputs": [],
      "stateMutability": "nonpayable",
      "type": "function"
    },
    {
      "inputs": [
        {
          "internalType": "uint256",
          "name": "_amount",
          "type": "uint256"
        }
      ],
      "name": "withdrawFromSP",
      "outputs": [],
      "stateMutability": "nonpayable",
      "type": "function"
    },
    {
      "stateMutability": "payable",
      "type": "receive"
    }
  ],
  "bytecode": "0x6080604052670de0b6b3a764000060105534801561001c57600080fd5b50600380546001600160a01b031916339081179091556040516000907f8be0079c531659141344cd1fd0a4f28419497f9722a3daafe3b4186f6b6457e0908290a361367c8061006c6000396000f3fe6080604052600436106102815760003560e01c806386da08241161014f578063b83f91a2116100c1578063eb6b2fa61161007a578063eb6b2fa614610852578063f24344e614610882578063f3af7c3b14610897578063f5f1595d1461089f578063fc7e286d146108d2578063fda0101a14610926576102a6565b8063b83f91a214610748578063cef941e81461075d578063d4ca057514610772578063d7fb0443146107a5578063df9cd84f146107ba578063eaa8ba7f146107ed576102a6565b806395fb16bb1161011357806395fb16bb146106a85780639bf2f1ac146106bd578063a20baee61461055e578063a4e59ac8146106d2578063a7bfff97146106e7578063ae91875414610733576102a6565b806386da08241461060d578063887105d3146106405780638b8fbd92146106555780638da5cb5b1461066a5780638f32d59b1461067f576102a6565b8063556be101116101f3578063741bef1a116101ac578063741bef1a14610573578063766718081461058857806377553ad4146105b9578063794e5724146105ce578063795d26c3146105e35780637f7dde4a146105f8576102a6565b8063556be101146104835780635733d58f146104ad5780635a0edf77146104c25780635d2de642146104f25780635f788d651461052557806372fe25aa1461055e576102a6565b8063335525ad11610245578063335525ad146103b0578063389e92a5146103e05780633cc74225146104135780633d83908a146104445780634870dd9a14610459578063538153ca1461046e576102a6565b806314f6c3be146102ab57806316b9d3c5146102d25780631cdc47001461033c5780632e54bf951461036f5780632e86bbd81461039b576102a6565b366102a65761028e610961565b6009546102a1903463ffffffff6109ac16565b600955005b600080fd5b3480156102b757600080fd5b506102c0610a0f565b60408051918252519081900360200190f35b3480156102de57600080fd5b50610305600480360360208110156102f557600080fd5b50356001600160a01b0316610a15565b604080519586526020860194909452848401929092526001600160801b039081166060850152166080830152519081900360a00190f35b34801561034857600080fd5b506102c06004803603602081101561035f57600080fd5b50356001600160a01b0316610a50565b34801561037b57600080fd5b506103996004803603602081101561039257600080fd5b5035610af8565b005b3480156103a757600080fd5b506102c0610c71565b3480156103bc57600080fd5b50610399600480360360408110156103d357600080fd5b5080359060200135610c7d565b3480156103ec57600080fd5b506102c06004803603602081101561040357600080fd5b50356001600160a01b0316610cd4565b34801561041f57600080fd5b50610428610d71565b604080516001600160a01b039092168252519081900360200190f35b34801561045057600080fd5b50610428610d80565b34801561046557600080fd5b506102c0610d8f565b34801561047a57600080fd5b506102c0610d94565b34801561048f57600080fd5b50610399600480360360208110156104a657600080fd5b5035610d9a565b3480156104b957600080fd5b506102c0610e0f565b3480156104ce57600080fd5b506102c0600480360360408110156104e557600080fd5b5080359060200135610e1b565b3480156104fe57600080fd5b506102c06004803603602081101561051557600080fd5b50356001600160a01b0316610e38565b34801561053157600080fd5b506103996004803603604081101561054857600080fd5b50803590602001356001600160a01b0316610e4a565b34801561056a57600080fd5b506102c0610fbc565b34801561057f57600080fd5b50610428610fc8565b34801561059457600080fd5b5061059d610fd7565b604080516001600160801b039092168252519081900360200190f35b3480156105c557600080fd5b50610428610fed565b3480156105da57600080fd5b506102c0610ffc565b3480156105ef57600080fd5b506102c0611008565b34801561060457600080fd5b50610428611109565b34801561061957600080fd5b506103056004803603602081101561063057600080fd5b50356001600160a01b0316611118565b34801561064c57600080fd5b506102c0611153565b34801561066157600080fd5b506102c061120f565b34801561067657600080fd5b50610428611215565b34801561068b57600080fd5b50610694611224565b604080519115158252519081900360200190f35b3480156106b457600080fd5b50610428611235565b3480156106c957600080fd5b506102c0611244565b3480156106de57600080fd5b5061059d61124a565b3480156106f357600080fd5b5061071a6004803603602081101561070a57600080fd5b50356001600160a01b0316611259565b6040805192835290151560208301528051918290030190f35b34801561073f57600080fd5b50610428611275565b34801561075457600080fd5b50610428611284565b34801561076957600080fd5b506102c0611293565b34801561077e57600080fd5b506102c06004803603602081101561079557600080fd5b50356001600160a01b0316611299565b3480156107b157600080fd5b506102c061139d565b3480156107c657600080fd5b506102c0600480360360208110156107dd57600080fd5b50356001600160a01b03166113a3565b3480156107f957600080fd5b50610399600480360360e081101561081057600080fd5b506001600160a01b038135811691602081013582169160408201358116916060810135821691608082013581169160a081013582169160c09091013516611440565b34801561085e57600080fd5b506102c06004803603604081101561087557600080fd5b50803590602001356116f1565b34801561088e57600080fd5b506102c061170e565b61039961171a565b3480156108ab57600080fd5b506102c0600480360360208110156108c257600080fd5b50356001600160a01b0316611732565b3480156108de57600080fd5b50610905600480360360208110156108f557600080fd5b50356001600160a01b031661182f565b604080519283526001600160a01b0390911660208301528051918290030190f35b34801561093257600080fd5b506103996004803603604081101561094957600080fd5b506001600160a01b0381358116916020013516611851565b6000546001600160a01b031633146109aa5760405162461bcd60e51b81526004018080602001828103825260278152602001806133a96027913960400191505060405180910390fd5b565b600082820183811015610a06576040805162461bcd60e51b815260206004820152601b60248201527f536166654d6174683a206164646974696f6e206f766572666c6f770000000000604482015290519081900360640190fd5b90505b92915050565b60095490565b600f602052600090815260409020805460018201546002830154600390930154919290916001600160801b0380821691600160801b90041685565b6001600160a01b0381166000908152600b602052604081205480610a78576000915050610af3565b610a806132db565b506001600160a01b0383166000908152600c60209081526040808320815160a08101835281548152600182015493810193909352600281015491830191909152600301546001600160801b038082166060840152600160801b90910416608082015290610aed8383611a83565b93505050505b919050565b8015610b0657610b06611b83565b336000908152600b6020526040902054610b1f81611d3f565b610b27611d81565b6000610b3233610cd4565b90506000610b3f33610a50565b90506000610b4d8583611dfe565b90506000610b61858463ffffffff611e1416565b336000818152600b60205260409020600101549192506001600160a01b0390911690610b8d9082611e56565b6000610b98826113a3565b90506000610bac828663ffffffff611e1416565b9050610bb88382611fde565b6040805182815233602082015281516001600160a01b03861692600080516020613596833981519152928290030190a2610bf2338661212a565b6000610c04878763ffffffff611e1416565b9050610c1033826121b0565b6040805182815290513391600080516020613401833981519152919081900360200190a26040805189815260208101879052815133926000805160206134e5833981519152928290030190a2610c6588612336565b50505050505050505050565b678ac7230489e8000081565b610c85612454565b600a54801580610c93575082155b15610c9e5750610cd0565b610ca6611d81565b600080610cb484868561249d565b91509150610cc2828261258c565b610ccc84866127b4565b5050505b5050565b6001600160a01b0381166000908152600b602052604081205480610cfc576000915050610af3565b610d046132db565b506001600160a01b0383166000908152600c60209081526040808320815160a08101835281548152600182015493810193909352600281015491830191909152600301546001600160801b038082166060840152600160801b90910416608082015290610aed83836128f4565b6001546001600160a01b031681565b6005546001600160a01b031681565b60c881565b60165481565b610da3336129f3565b610dac33612a4e565b610db581612aa4565b336000818152600d60209081526040918290208481556001908101805460ff19169091179055815184815291517f19bc932fb9e16a8b5a1e41be9f4c2de59d5ddd7567b8b81405f532ca00a9880e9281900390910190a250565b6714d1120d7b16000081565b601360209081526000928352604080842090915290825290205481565b600e6020526000908152604090205481565b610e5381612aeb565b610e5c336129f3565b610e6582612b57565b336000908152600b6020526040902054610e7d611d81565b80610e8c57610e8c3383612b96565b6000610e9733610cd4565b90506000610ea433610a50565b90506000610eb8848363ffffffff611e1416565b336000818152600b60205260409020600101549192506001600160a01b0390911690610ee49082611e56565b6000610eef826113a3565b90506000610f03828a63ffffffff6109ac16565b9050610f0f8382611fde565b6040805182815233602082015281516001600160a01b03861692600080516020613596833981519152928290030190a2610f49338a612bc7565b6000610f5b868b63ffffffff6109ac16565b9050610f6733826121b0565b6040805182815290513391600080516020613401833981519152919081900360200190a26040805188815260208101879052815133926000805160206134e5833981519152928290030190a2610c6587612336565b670de0b6b3a764000081565b6002546001600160a01b031681565b601154600160801b90046001600160801b031681565b6004546001600160a01b031681565b670f43fc2c04ee000081565b6000805460408051632f5a97e560e11b8152905183926001600160a01b031691635eb52fca916004808301926020929190829003018186803b15801561104d57600080fd5b505afa158015611061573d6000803e3d6000fd5b505050506040513d602081101561107757600080fd5b505160015460408051632f5a97e560e11b815290519293506000926001600160a01b0390921691635eb52fca91600480820192602092909190829003018186803b1580156110c457600080fd5b505afa1580156110d8573d6000803e3d6000fd5b505050506040513d60208110156110ee57600080fd5b50519050611102828263ffffffff6109ac16565b9250505090565b6000546001600160a01b031681565b600c602052600090815260409020805460018201546002830154600390930154919290916001600160801b0380821691600160801b90041685565b6000805460408051630a7b61df60e11b8152905183926001600160a01b0316916314f6c3be916004808301926020929190829003018186803b15801561119857600080fd5b505afa1580156111ac573d6000803e3d6000fd5b505050506040513d60208110156111c257600080fd5b505160015460408051630a7b61df60e11b815290519293506000926001600160a01b03909216916314f6c3be91600480820192602092909190829003018186803b1580156110c457600080fd5b60105481565b6003546001600160a01b031690565b6003546001600160a01b0316331490565b6008546001600160a01b031681565b600a5490565b6011546001600160801b031681565b600d602052600090815260409020805460019091015460ff1682565b6007546001600160a01b031681565b6006546001600160a01b031681565b60145481565b6001600160a01b0381166000908152600e6020526040812054806112c1576000915050610af3565b6001600160a01b0383166000908152600d6020526040812054906112f3670de0b6b3a76400008363ffffffff611e1416565b90506112fd6132db565b506001600160a01b0385166000908152600f60209081526040808320815160a08101835281548152600182015493810193909352600281015491830191909152600301546001600160801b038082166060840152600160801b90910416608082015290611392670de0b6b3a76400006113866113798886612c91565b869063ffffffff612d2b16565b9063ffffffff612d8416565b979650505050505050565b60155481565b6001600160a01b0381166000908152600e6020526040812054806113cb576000915050610af3565b6113d36132db565b506001600160a01b0383166000908152600f60209081526040808320815160a08101835281548152600182015493810193909352600281015491830191909152600301546001600160801b038082166060840152600160801b90910416608082015290610aed8383611a83565b611448611224565b611499576040805162461bcd60e51b815260206004820181905260248201527f4f776e61626c653a2063616c6c6572206973206e6f7420746865206f776e6572604482015290519081900360640190fd5b6114a287612dc6565b6114ab86612dc6565b6114b485612dc6565b6114bd84612dc6565b6114c683612dc6565b6114cf82612dc6565b6114d881612dc6565b600480546001600160a01b03199081166001600160a01b038a81169182179093556005805483168a85161790556000805483168985161790556006805483168885161790556007805483168785161790556002805483168685161790556008805490921692841692909217905560408051918252517f3ca631ffcd2a9b5d9ae18543fc82f58eb4ca33af9e6ab01b7a8e95331e6ed985916020908290030190a1604080516001600160a01b038816815290517f143219c9e69b09e07e095fcc889b43d8f46ca892bba65f08dc3a0050869a56789181900360200190a1604080516001600160a01b038716815290517f78f058b189175430c48dc02699e3a0031ea4ff781536dc2fab847de4babdd8829181900360200190a1604080516001600160a01b038616815290517f227eec0ec317af6ab1a9587ffa1c84332522eb4c583a908f89babc05f8f339bd9181900360200190a1604080516001600160a01b038516815290517f65f4cf077bc01e4742eb5ad98326f6e95b63548ea24b17f8d5e823111fe788009181900360200190a1604080516001600160a01b038416815290517f8c537274438aa850a330284665d81a85dd38267d09e4050d416bfc94142db2649181900360200190a1604080516001600160a01b038316815290517f3055265812fb8447b9ada4a5d804ec43bd528ec40e89c952bbc7b85dc5ac68119181900360200190a16116e8612e75565b50505050505050565b601260209081526000928352604080842090915290825290205481565b6729a2241af62c000081565b60095461172d903463ffffffff6109ac16565b600955565b6001600160a01b0381166000908152600b60205260408120548061175a576000915050610af3565b6001600160a01b038084166000908152600b602052604081206001015490911690811561179f576001600160a01b0382166000908152600d60205260409020546117a9565b670de0b6b3a76400005b90506117b36132db565b506001600160a01b0385166000908152600c60209081526040808320815160a08101835281548152600182015493810193909352600281015491830191909152600301546001600160801b038082166060840152600160801b90910416608082015290611392670de0b6b3a76400006113866113798886612c91565b600b60205260009081526040902080546001909101546001600160a01b031682565b336000908152600b602052604090205461186a81611d3f565b61187333612ebf565b61187c33612f76565b611884611d81565b600061188f33610cd4565b9050600061189c33610a50565b905060006118b0848363ffffffff611e1416565b336000818152600b60205260409020600101549192506001600160a01b03909116906118dc9082611e56565b60006118e7826113a3565b9050806118f48382611fde565b6040805182815233602082015281516001600160a01b03861692600080516020613596833981519152928290030190a261192e33866121b0565b6040805187815260208101869052815133926000805160206134e5833981519152928290030190a26040805186815290513391600080516020613401833981519152919081900360200190a260095461198d908763ffffffff611e1416565b600981905560408051918252517f7ab2bdf6e6d108cd138a8f6436723e8dfd0cb22727fe608e40b5adfb8357f1b99181900360200190a1604080513381526020810188905281517f6109e2559dfa766aaec7118351d48a523f0a4157f49c8d68749c8ac41318ad12929181900390910190a1600480546040805163ea9638bf60e01b815233938101939093526001600160a01b038c811660248501528b81166044850152905191169163ea9638bf91899160648082019260009290919082900301818588803b158015611a5f57600080fd5b505af1158015611a73573d6000803e3d6000fd5b5050505050505050505050505050565b6020810151606082015160808301516011546000939291906001600160801b03600160801b90910481169082161015611ac25760009350505050610a09565b6011546000908190611ae3906001600160801b03168563ffffffff612fc216565b90506001600160801b038116611b1357611b0c856113866010548b612d2b90919063ffffffff16565b9150611b4f565b806001600160801b031660011415611b4a57611b0c670de0b6b3a7640000611386876113866010548d612d2b90919063ffffffff16565b600091505b611b6388633b9aca0063ffffffff612d8416565b821015611b7857600095505050505050610a09565b509695505050505050565b60025460408051634c6afee560e11b815290516000926001600160a01b0316916398d5fdca916004808301926020929190829003018186803b158015611bc857600080fd5b505afa158015611bdc573d6000803e3d6000fd5b505050506040513d6020811015611bf257600080fd5b505160075460408051634d62283160e01b815290519293506000926001600160a01b0390921691634d62283191600480820192602092909190829003018186803b158015611c3f57600080fd5b505afa158015611c53573d6000803e3d6000fd5b505050506040513d6020811015611c6957600080fd5b505160055460408051630d293c7160e41b81526001600160a01b038085166004830152602482018790529151939450600093919092169163d293c710916044808301926020929190829003018186803b158015611cc557600080fd5b505afa158015611cd9573d6000803e3d6000fd5b505050506040513d6020811015611cef57600080fd5b50519050670f43fc2c04ee0000811015611d3a5760405162461bcd60e51b81526004018080602001828103825260448152602001806136036044913960600191505060405180910390fd5b505050565b60008111611d7e5760405162461bcd60e51b81526004018080602001828103825260308152602001806135666030913960400191505060405180910390fd5b50565b600854604080516346ad34d960e01b815290516000926001600160a01b0316916346ad34d991600480830192602092919082900301818787803b158015611dc757600080fd5b505af1158015611ddb573d6000803e3d6000fd5b505050506040513d6020811015611df157600080fd5b50519050611d7e8161301b565b6000818310611e0d5781610a06565b5090919050565b6000610a0683836040518060400160405280601e81526020017f536166654d6174683a207375627472616374696f6e206f766572666c6f7700008152506130d4565b6001600160a01b03811615611f20576000611e7082611299565b600854604080516330a6955b60e11b81526001600160a01b03868116600483015260248201859052915193945091169163614d2ab69160448082019260009290919082900301818387803b158015611ec757600080fd5b505af1158015611edb573d6000803e3d6000fd5b50506040805184815290516001600160a01b03861693507fcd2cdc1a4af71051394e9c6facd9a266b2ac5bd65d219a701eeda009f47682bf92509081900360200190a2505b6000611f2b83611732565b600854604080516330a6955b60e11b81526001600160a01b03878116600483015260248201859052915193945091169163614d2ab69160448082019260009290919082900301818387803b158015611f8257600080fd5b505af1158015611f96573d6000803e3d6000fd5b50506040805184815290516001600160a01b03871693507f2608b986a6ac0f6c629ca37018e80af5561e366252ae93602a96d3ab2e73e42d92509081900360200190a2505050565b6001600160a01b0382166000908152600e602052604090208190558061206e576001600160a01b0382166000818152600f60209081526040808320838155600181018490556002810184905560030183905580518381529182019290925281517fbb1322f85cc7cc8bac4e172a5bc5dcc0c1959007f9a030032abf9258205f0e45929181900390910190a2610cd0565b6011546010546001600160801b03600160801b80840482166000818152601360209081526040808320978616808452978252808320546001600160a01b038b16808552600f845293829020600181018990556002810182905560030180546001600160801b0319168a17909716958502959095179095558451868152908101849052845192959491927fbb1322f85cc7cc8bac4e172a5bc5dcc0c1959007f9a030032abf9258205f0e45929181900390910190a2505050505050565b8061213457610cd0565b60065460408051631062c15f60e11b81523060048201526001600160a01b03858116602483015260448201859052915191909216916320c582be91606480830192600092919082900301818387803b15801561218f57600080fd5b505af11580156121a3573d6000803e3d6000fd5b50505050610cd08161316b565b6001600160a01b0382166000908152600b602052604090208190558061225e576001600160a01b0382166000818152600b60209081526040808320600190810180546001600160a01b0319169055600c83528184208481559081018490556002810184905560030183905580518381529182018390528181019290925290517f2d6cc0bcdf72c9486f6451bde6b80f44066f4558f77f44dbfedbe7d8b295225a9181900360600190a2610cd0565b6011546010546001600160801b03600160801b8084048216600081815260126020908152604080832097861680845297825280832054848452601383528184208985528352818420546001600160a01b038c16808652600c855294839020600181018a90558281556002810182905560030180546001600160801b0319168b179098169686029690961790965580518781529182018690528181018590525192959493927f2d6cc0bcdf72c9486f6451bde6b80f44066f4558f77f44dbfedbe7d8b295225a916060908290030190a250505050505050565b8061234057611d7e565b600954600090612356908363ffffffff611e1416565b60098190556040805182815290519192507f7ab2bdf6e6d108cd138a8f6436723e8dfd0cb22727fe608e40b5adfb8357f1b9919081900360200190a1604080513381526020810184905281517f6109e2559dfa766aaec7118351d48a523f0a4157f49c8d68749c8ac41318ad12929181900390910190a1604051600090339084908381818185875af1925050503d806000811461240f576040519150601f19603f3d011682016040523d82523d6000602084013e612414565b606091505b5050905080611d3a5760405162461bcd60e51b815260040180806020018281038252602181526020018061344a6021913960400191505060405180910390fd5b6005546001600160a01b031633146109aa5760405162461bcd60e51b81526004018080602001828103825260298152602001806134216029913960400191505060405180910390fd5b60008060006124cf6016546124c3670de0b6b3a764000088612d2b90919063ffffffff16565b9063ffffffff611e1416565b905060006125006015546124f4670de0b6b3a76400008a612d2b90919063ffffffff16565b9063ffffffff6109ac16565b905084861061251e576000601655670de0b6b3a7640000925061254d565b61253360016124f4848863ffffffff612d8416565b9250612549826124c3858863ffffffff612d2b16565b6016555b61255d818663ffffffff612d8416565b935061257f612572858763ffffffff612d2b16565b829063ffffffff611e1416565b6015555050935093915050565b6010546000670de0b6b3a76400008311156125a357fe5b6000670de0b6b3a76400008410156125d2576125cd670de0b6b3a76400008563ffffffff611e1416565b6125d5565b60005b6011546001600160801b03600160801b8204811660008181526012602090815260408083209490951680835293905292832054939450909290916126198988612d2b565b9050600061262d838363ffffffff6109ac16565b6001600160801b038086166000908152601260209081526040808320938a16835292815290829020839055815183815291519293507fb3b0cd868e433c74c233db87efea57c13377de7056bf27b1a50feaab5bfd499192918290030190a1856126e1576126aa6001600160801b038516600163ffffffff6131c116565b601180546001600160801b03928316600160801b029216919091176001600160801b0319169055670de0b6b3a76400009650612770565b670de0b6b3a76400006126fa898863ffffffff612d2b16565b101561275157612710888763ffffffff612d2b16565b965061272c6001600160801b038616600163ffffffff6131c116565b601180546001600160801b0319166001600160801b0392909216919091179055612770565b61276d670de0b6b3a76400006113868a8963ffffffff612d2b16565b96505b60108790556040805188815290517fc1a9618cb59ebca77cbdbc2949f126823c407ff13edb285fd0262519a9c18e8c9181900360200190a150505050505050505050565b600080546040805163071b32b560e31b81526004810185905290516001600160a01b03909216926338d995a89260248084019382900301818387803b1580156127fc57600080fd5b505af1158015612810573d6000803e3d6000fd5b5050505061281d8161316b565b60065460408051632770a7eb60e21b81523060048201526024810184905290516001600160a01b0390921691639dc29fac9160448082019260009290919082900301818387803b15801561287057600080fd5b505af1158015612884573d6000803e3d6000fd5b505060008054604080516364a197f360e01b81523060048201526024810188905290516001600160a01b0390921694506364a197f39350604480820193929182900301818387803b1580156128d857600080fd5b505af11580156128ec573d6000803e3d6000fd5b505050505050565b6080810151606082015182516020808501516001600160801b03808616600090815260128452604080822092871682529190935282205491949392918590612942908463ffffffff611e1416565b905060006129b3670de0b6b3a764000060126000896001600160801b03168152602001908152602001600020600061298d60018a6001600160801b03166131c190919063ffffffff16565b6001600160801b0316815260200190815260200160002054612d8490919063ffffffff16565b905060006129e5670de0b6b3a764000061138686816129d8888863ffffffff6109ac16565b8f9063ffffffff612d2b16565b9a9950505050505050505050565b6001600160a01b0381166000908152600d602052604090206001015460ff1615611d7e5760405162461bcd60e51b81526004018080602001828103825260398152602001806135056039913960400191505060405180910390fd5b6001600160a01b0381166000908152600b60205260409020548015610cd05760405162461bcd60e51b815260040180806020018281038252602881526020018061353e6028913960400191505060405180910390fd5b670de0b6b3a7640000811115611d7e5760405162461bcd60e51b815260040180806020018281038252603381526020018061348c6033913960400191505060405180910390fd5b6001600160a01b0381166000908152600d602052604090206001015460ff1680612b1c57506001600160a01b038116155b611d7e5760405162461bcd60e51b81526004018080602001828103825260468152602001806133636046913960600191505060405180910390fd5b60008111611d7e5760405162461bcd60e51b81526004018080602001828103825260268152602001806134bf6026913960400191505060405180910390fd5b6001600160a01b039182166000908152600b6020526040902060010180546001600160a01b03191691909216179055565b60065460408051632ee65eeb60e21b81526001600160a01b038581166004830152306024830152604482018590529151919092169163bb997bac91606480830192600092919082900301818387803b158015612c2257600080fd5b505af1158015612c36573d6000803e3d6000fd5b5050600a5460009250612c5091508363ffffffff6109ac16565b600a8190556040805182815290519192507fb85aa39be26453c93060ffe42e1e6ea34980cb12e563f517cbce039dcd5af392919081900360200190a1505050565b608081015160608201516040808401516020808601516001600160801b03808716600090815260138452858120918716815292529281205490949392908590612ce0908463ffffffff611e1416565b905060006129b3670de0b6b3a764000060136000896001600160801b03168152602001908152602001600020600061298d60018a6001600160801b03166131c190919063ffffffff16565b600082612d3a57506000610a09565b82820282848281612d4757fe5b0414610a065760405162461bcd60e51b815260040180806020018281038252602181526020018061346b6021913960400191505060405180910390fd5b6000610a0683836040518060400160405280601a81526020017f536166654d6174683a206469766973696f6e206279207a65726f000000000000815250613211565b6001600160a01b038116612e21576040805162461bcd60e51b815260206004820152601e60248201527f4163636f756e742063616e6e6f74206265207a65726f20616464726573730000604482015290519081900360640190fd5b803b80610cd0576040805162461bcd60e51b815260206004820181905260248201527f4163636f756e7420636f64652073697a652063616e6e6f74206265207a65726f604482015290519081900360640190fd5b6003546040516000916001600160a01b0316907f8be0079c531659141344cd1fd0a4f28419497f9722a3daafe3b4186f6b6457e0908390a3600380546001600160a01b0319169055565b600554604080516321e3780160e01b81526001600160a01b038481166004830152915191909216916321e37801916024808301926020929190829003018186803b158015612f0c57600080fd5b505afa158015612f20573d6000803e3d6000fd5b505050506040513d6020811015612f3657600080fd5b5051600114611d7e5760405162461bcd60e51b815260040180806020018281038252604681526020018061331d6046913960600191505060405180910390fd5b6000612f8182610cd4565b905060008111610cd05760405162461bcd60e51b81526004018080602001828103825260318152602001806133d06031913960400191505060405180910390fd5b6000826001600160801b0316826001600160801b031611156130155760405162461bcd60e51b81526004018080602001828103825260288152602001806135b66028913960400191505060405180910390fd5b50900390565b600a54801580613029575081155b156130345750611d7e565b60006130408383613276565b9050600061305960105483612d2b90919063ffffffff16565b6011546001600160801b03600160801b82048116600090815260136020908152604080832093909416825291909152205490915061309d908263ffffffff6109ac16565b6011546001600160801b03600160801b82048116600090815260136020908152604080832093909416825291909152205550505050565b600081848411156131635760405162461bcd60e51b81526004018080602001828103825283818151815260200191508051906020019080838360005b83811015613128578181015183820152602001613110565b50505050905090810190601f1680156131555780820380516001836020036101000a031916815260200191505b509250505060405180910390fd5b505050900390565b600a54600090613181908363ffffffff611e1416565b600a8190556040805182815290519192507fb85aa39be26453c93060ffe42e1e6ea34980cb12e563f517cbce039dcd5af392919081900360200190a15050565b60008282016001600160801b038085169082161015610a065760405162461bcd60e51b81526004018080602001828103825260258152602001806135de6025913960400191505060405180910390fd5b600081836132605760405162461bcd60e51b8152602060048201818152835160248401528351909283926044909101919085019080838360008315613128578181015183820152602001613110565b50600083858161326c57fe5b0495945050505050565b60008061329a6014546124f4670de0b6b3a764000087612d2b90919063ffffffff16565b905060006132ae828563ffffffff612d8416565b90506132d06132c3828663ffffffff612d2b16565b839063ffffffff611e1416565b601455949350505050565b6040518060a0016040528060008152602001600081526020016000815260200160006001600160801b0316815260200160006001600160801b03168152509056fe53746162696c697479506f6f6c3a2063616c6c6572206d757374206861766520616e206163746976652074726f766520746f207769746864726177204554484761696e20746f53746162696c697479506f6f6c3a20546167206d757374206265206120726567697374657265642066726f6e7420656e642c206f7220746865207a65726f206164647265737353746162696c697479506f6f6c3a2043616c6c6572206973206e6f7420416374697665506f6f6c53746162696c697479506f6f6c3a2063616c6c6572206d7573742068617665206e6f6e2d7a65726f20455448204761696ebce78369dccab09eec1986f4d409ab09ffbb47d65423e5148fcf98411c5111c953746162696c697479506f6f6c3a2043616c6c6572206973206e6f742054726f76654d616e6167657253746162696c697479506f6f6c3a2073656e64696e6720455448206661696c6564536166654d6174683a206d756c7469706c69636174696f6e206f766572666c6f7753746162696c697479506f6f6c3a204b69636b6261636b2072617465206d75737420626520696e2072616e6765205b302c315d53746162696c697479506f6f6c3a20416d6f756e74206d757374206265206e6f6e2d7a65726f51457222ebca92c335c9c86e2baa1cc0e40ffaa9084a51452980d5ba8dec2f6353746162696c697479506f6f6c3a206d757374206e6f7420616c7265616479206265206120726567697374657265642066726f6e7420656e6453746162696c697479506f6f6c3a2055736572206d7573742068617665206e6f206465706f73697453746162696c697479506f6f6c3a2055736572206d75737420686176652061206e6f6e2d7a65726f206465706f73697499920012339b5a3368d3a04b8606ce412c46ed92b7dcd8602d41fc8862cb8f254c697175697479536166654d6174683132383a207375627472616374696f6e206f766572666c6f774c697175697479536166654d6174683132383a206164646974696f6e206f766572666c6f7753746162696c697479506f6f6c3a2043616e6e6f74207769746864726177207768696c65207468657265206172652074726f766573207769746820494352203c204d4352a26469706673582212203cc39d4ecbb24c9dc22b090b34a0dfb219acea2d4ae841b7269c48cda394e86464736f6c634300060b0033",
  "linkReferences": {},
  "deployedLinkReferences": {}
}