{
  "_format": "hh-sol-artifact-1",
  "contractName": "StabilityPoolScript",
  "sourceName": "contracts/Proxy/StabilityPoolScript.sol",
  "abi": [
    {
      "inputs": [
        {
          "internalType": "contract IStabilityPool",
          "name": "_stabilityPool",
          "type": "address"
        }
      ],
      "stateMutability": "nonpayable",
      "type": "constructor"
    },
    {
      "inputs": [
        {
          "internalType": "uint256",
          "name": "_amount",
          "type": "uint256"
        },
        {
          "internalType": "address",
          "name": "_frontEndTag",
          "type": "address"
        }
      ],
      "name": "provideToSP",
      "outputs": [],
      "stateMutability": "nonpayable",
      "type": "function"
    },
    {
      "inputs": [
        {
          "internalType": "address",
          "name": "_upperHint",
          "type": "address"
        },
        {
          "internalType": "address",
          "name": "_lowerHint",
          "type": "address"
        }
      ],
      "name": "withdrawETHGainToTrove",
      "outputs": [],
      "stateMutability": "nonpayable",
      "type": "function"
    },
    {
      "inputs": [
        {
          "internalType": "uint256",
          "name": "_amount",
          "type": "uint256"
        }
      ],
      "name": "withdrawFromSP",
      "outputs": [],
      "stateMutability": "nonpayable",
      "type": "function"
    }
  ],
  "bytecode": "0x60a060405234801561001057600080fd5b506040516103bb3803806103bb8339818101604052602081101561003357600080fd5b5051610047816001600160e01b0361005c16565b60601b6001600160601b03191660805261010f565b6001600160a01b0381166100b7576040805162461bcd60e51b815260206004820152601e60248201527f4163636f756e742063616e6e6f74206265207a65726f20616464726573730000604482015290519081900360640190fd5b803b8061010b576040805162461bcd60e51b815260206004820181905260248201527f4163636f756e7420636f64652073697a652063616e6e6f74206265207a65726f604482015290519081900360640190fd5b5050565b60805160601c6102866101356000398060c15280610142528061020652506102866000f3fe608060405234801561001057600080fd5b50600436106100415760003560e01c80632e54bf95146100465780635f788d6514610065578063fda0101a14610091575b600080fd5b6100636004803603602081101561005c57600080fd5b50356100bf565b005b6100636004803603604081101561007b57600080fd5b50803590602001356001600160a01b0316610140565b610063600480360360408110156100a757600080fd5b506001600160a01b03813581169160200135166101dc565b7f00000000000000000000000000000000000000000000000000000000000000006001600160a01b0316632e54bf95826040518263ffffffff1660e01b815260040180828152602001915050600060405180830381600087803b15801561012557600080fd5b505af1158015610139573d6000803e3d6000fd5b5050505050565b7f00000000000000000000000000000000000000000000000000000000000000006001600160a01b0316635f788d6583836040518363ffffffff1660e01b815260040180838152602001826001600160a01b03166001600160a01b0316815260200192505050600060405180830381600087803b1580156101c057600080fd5b505af11580156101d4573d6000803e3d6000fd5b505050505050565b60408051637ed0080d60e11b81526001600160a01b038481166004830152838116602483015291517f00000000000000000000000000000000000000000000000000000000000000009092169163fda0101a9160448082019260009290919082900301818387803b1580156101c057600080fdfea26469706673582212205dd89598bbee6b798eca4fb92c896bea72a21f8ca08ff9d6382cc6eee338df6064736f6c634300060b0033",
  "linkReferences": {},
  "deployedLinkReferences": {}
}