{
  "_format": "hh-sol-artifact-1",
  "contractName": "StabilityPool",
  "sourceName": "contracts/StabilityPool.sol",
  "abi": [
    {
      "anonymous": false,
      "inputs": [
        {
          "indexed": false,
          "internalType": "address",
          "name": "_newActivePoolAddress",
          "type": "address"
        }
      ],
      "name": "ActivePoolAddressChanged",
      "type": "event"
    },
    {
      "anonymous": false,
      "inputs": [
        {
          "indexed": false,
          "internalType": "address",
          "name": "_newBorrowerOperationsAddress",
          "type": "address"
        }
      ],
      "name": "BorrowerOperationsAddressChanged",
      "type": "event"
    },
    {
      "anonymous": false,
      "inputs": [
        {
          "indexed": false,
          "internalType": "address",
          "name": "_newCommunityIssuanceAddress",
          "type": "address"
        }
      ],
      "name": "CommunityIssuanceAddressChanged",
      "type": "event"
    },
    {
      "anonymous": false,
      "inputs": [
        {
          "indexed": false,
          "internalType": "address",
          "name": "_newDefaultPoolAddress",
          "type": "address"
        }
      ],
      "name": "DefaultPoolAddressChanged",
      "type": "event"
    },
    {
      "anonymous": false,
      "inputs": [
        {
          "indexed": true,
          "internalType": "address",
          "name": "_depositor",
          "type": "address"
        },
        {
          "indexed": false,
          "internalType": "uint256",
          "name": "_P",
          "type": "uint256"
        },
        {
          "indexed": false,
          "internalType": "uint256",
          "name": "_S",
          "type": "uint256"
        },
        {
          "indexed": false,
          "internalType": "uint256",
          "name": "_G",
          "type": "uint256"
        }
      ],
      "name": "DepositSnapshotUpdated",
      "type": "event"
    },
    {
      "anonymous": false,
      "inputs": [
        {
          "indexed": false,
          "internalType": "uint256",
          "name": "_newBalance",
          "type": "uint256"
        }
      ],
      "name": "ETHBalanceUpdated",
      "type": "event"
    },
    {
      "anonymous": false,
      "inputs": [
        {
          "indexed": true,
          "internalType": "address",
          "name": "_depositor",
          "type": "address"
        },
        {
          "indexed": false,
          "internalType": "uint256",
          "name": "_ETH",
          "type": "uint256"
        },
        {
          "indexed": false,
          "internalType": "uint256",
          "name": "_LUSDLoss",
          "type": "uint256"
        }
      ],
      "name": "ETHGainWithdrawn",
      "type": "event"
    },
    {
      "anonymous": false,
      "inputs": [
        {
          "indexed": false,
          "internalType": "address",
          "name": "_to",
          "type": "address"
        },
        {
          "indexed": false,
          "internalType": "uint256",
          "name": "_amount",
          "type": "uint256"
        }
      ],
      "name": "EtherSent",
      "type": "event"
    },
    {
      "anonymous": false,
      "inputs": [
        {
          "indexed": true,
          "internalType": "address",
          "name": "_frontEnd",
          "type": "address"
        },
        {
          "indexed": false,
          "internalType": "uint256",
          "name": "_kickbackRate",
          "type": "uint256"
        }
      ],
      "name": "FrontEndRegistered",
      "type": "event"
    },
    {
      "anonymous": false,
      "inputs": [
        {
          "indexed": true,
          "internalType": "address",
          "name": "_frontEnd",
          "type": "address"
        },
        {
          "indexed": false,
          "internalType": "uint256",
          "name": "_P",
          "type": "uint256"
        },
        {
          "indexed": false,
          "internalType": "uint256",
          "name": "_G",
          "type": "uint256"
        }
      ],
      "name": "FrontEndSnapshotUpdated",
      "type": "event"
    },
    {
      "anonymous": false,
      "inputs": [
        {
          "indexed": true,
          "internalType": "address",
          "name": "_frontEnd",
          "type": "address"
        },
        {
          "indexed": false,
          "internalType": "uint256",
          "name": "_newFrontEndStake",
          "type": "uint256"
        },
        {
          "indexed": false,
          "internalType": "address",
          "name": "_depositor",
          "type": "address"
        }
      ],
      "name": "FrontEndStakeChanged",
      "type": "event"
    },
    {
      "anonymous": false,
      "inputs": [
        {
          "indexed": false,
          "internalType": "uint256",
          "name": "_G",
          "type": "uint256"
        }
      ],
      "name": "G_Updated",
      "type": "event"
    },
    {
      "anonymous": false,
      "inputs": [
        {
          "indexed": true,
          "internalType": "address",
          "name": "_depositor",
          "type": "address"
        },
        {
          "indexed": false,
          "internalType": "uint256",
          "name": "_LQTY",
          "type": "uint256"
        }
      ],
      "name": "LQTYPaidToDepositor",
      "type": "event"
    },
    {
      "anonymous": false,
      "inputs": [
        {
          "indexed": true,
          "internalType": "address",
          "name": "_frontEnd",
          "type": "address"
        },
        {
          "indexed": false,
          "internalType": "uint256",
          "name": "_LQTY",
          "type": "uint256"
        }
      ],
      "name": "LQTYPaidToFrontEnd",
      "type": "event"
    },
    {
      "anonymous": false,
      "inputs": [
        {
          "indexed": false,
          "internalType": "uint256",
          "name": "_newBalance",
          "type": "uint256"
        }
      ],
      "name": "LUSDBalanceUpdated",
      "type": "event"
    },
    {
      "anonymous": false,
      "inputs": [
        {
          "indexed": false,
          "internalType": "address",
          "name": "_newLUSDTokenAddress",
          "type": "address"
        }
      ],
      "name": "LUSDTokenAddressChanged",
      "type": "event"
    },
    {
      "anonymous": false,
      "inputs": [
        {
          "indexed": true,
          "internalType": "address",
          "name": "previousOwner",
          "type": "address"
        },
        {
          "indexed": true,
          "internalType": "address",
          "name": "newOwner",
          "type": "address"
        }
      ],
      "name": "OwnershipTransferred",
      "type": "event"
    },
    {
      "anonymous": false,
      "inputs": [
        {
          "indexed": false,
          "internalType": "uint256",
          "name": "_P",
          "type": "uint256"
        }
      ],
      "name": "P_Updated",
      "type": "event"
    },
    {
      "anonymous": false,
      "inputs": [
        {
          "indexed": false,
          "internalType": "address",
          "name": "_newPriceFeedAddress",
          "type": "address"
        }
      ],
      "name": "PriceFeedAddressChanged",
      "type": "event"
    },
    {
      "anonymous": false,
      "inputs": [
        {
          "indexed": false,
          "internalType": "uint256",
          "name": "_S",
          "type": "uint256"
        }
      ],
      "name": "S_Updated",
      "type": "event"
    },
    {
      "anonymous": false,
      "inputs": [
        {
          "indexed": false,
          "internalType": "address",
          "name": "_newSortedTrovesAddress",
          "type": "address"
        }
      ],
      "name": "SortedTrovesAddressChanged",
      "type": "event"
    },
    {
      "anonymous": false,
      "inputs": [
        {
          "indexed": false,
          "internalType": "address",
          "name": "_newTroveManagerAddress",
          "type": "address"
        }
      ],
      "name": "TroveManagerAddressChanged",
      "type": "event"
    },
    {
      "anonymous": false,
      "inputs": [
        {
          "indexed": true,
          "internalType": "address",
          "name": "_depositor",
          "type": "address"
        },
        {
          "indexed": false,
          "internalType": "uint256",
          "name": "_newDeposit",
          "type": "uint256"
        }
      ],
      "name": "UserDepositChanged",
      "type": "event"
    },
    {
      "inputs": [],
      "name": "CCR",
      "outputs": [
        {
          "internalType": "uint256",
          "name": "",
          "type": "uint256"
        }
      ],
      "stateMutability": "view",
      "type": "function"
    },
    {
      "inputs": [],
      "name": "DECIMAL_PRECISION",
      "outputs": [
        {
          "internalType": "uint256",
          "name": "",
          "type": "uint256"
        }
      ],
      "stateMutability": "view",
      "type": "function"
    },
    {
      "inputs": [],
      "name": "LUSD_GAS_COMPENSATION",
      "outputs": [
        {
          "internalType": "uint256",
          "name": "",
          "type": "uint256"
        }
      ],
      "stateMutability": "view",
      "type": "function"
    },
    {
      "inputs": [],
      "name": "MCR",
      "outputs": [
        {
          "internalType": "uint256",
          "name": "",
          "type": "uint256"
        }
      ],
      "stateMutability": "view",
      "type": "function"
    },
    {
      "inputs": [],
      "name": "P",
      "outputs": [
        {
          "internalType": "uint256",
          "name": "",
          "type": "uint256"
        }
      ],
      "stateMutability": "view",
      "type": "function"
    },
    {
      "inputs": [],
      "name": "PERCENT_DIVISOR",
      "outputs": [
        {
          "internalType": "uint256",
          "name": "",
          "type": "uint256"
        }
      ],
      "stateMutability": "view",
      "type": "function"
    },
    {
      "inputs": [],
      "name": "R_MCR",
      "outputs": [
        {
          "internalType": "uint256",
          "name": "",
          "type": "uint256"
        }
      ],
      "stateMutability": "view",
      "type": "function"
    },
    {
      "inputs": [],
      "name": "_100pct",
      "outputs": [
        {
          "internalType": "uint256",
          "name": "",
          "type": "uint256"
        }
      ],
      "stateMutability": "view",
      "type": "function"
    },
    {
      "inputs": [],
      "name": "activePool",
      "outputs": [
        {
          "internalType": "contract IActivePool",
          "name": "",
          "type": "address"
        }
      ],
      "stateMutability": "view",
      "type": "function"
    },
    {
      "inputs": [],
      "name": "borrowerOperations",
      "outputs": [
        {
          "internalType": "contract IBorrowerOperations",
          "name": "",
          "type": "address"
        }
      ],
      "stateMutability": "view",
      "type": "function"
    },
    {
      "inputs": [],
      "name": "communityIssuance",
      "outputs": [
        {
          "internalType": "contract ICommunityIssuance",
          "name": "",
          "type": "address"
        }
      ],
      "stateMutability": "view",
      "type": "function"
    },
    {
      "inputs": [],
      "name": "currentEpoch",
      "outputs": [
        {
          "internalType": "uint128",
          "name": "",
          "type": "uint128"
        }
      ],
      "stateMutability": "view",
      "type": "function"
    },
    {
      "inputs": [],
      "name": "currentScale",
      "outputs": [
        {
          "internalType": "uint128",
          "name": "",
          "type": "uint128"
        }
      ],
      "stateMutability": "view",
      "type": "function"
    },
    {
      "inputs": [],
      "name": "defaultPool",
      "outputs": [
        {
          "internalType": "contract IDefaultPool",
          "name": "",
          "type": "address"
        }
      ],
      "stateMutability": "view",
      "type": "function"
    },
    {
      "inputs": [
        {
          "internalType": "address",
          "name": "",
          "type": "address"
        }
      ],
      "name": "depositSnapshots",
      "outputs": [
        {
          "internalType": "uint256",
          "name": "S",
          "type": "uint256"
        },
        {
          "internalType": "uint256",
          "name": "P",
          "type": "uint256"
        },
        {
          "internalType": "uint256",
          "name": "G",
          "type": "uint256"
        },
        {
          "internalType": "uint128",
          "name": "scale",
          "type": "uint128"
        },
        {
          "internalType": "uint128",
          "name": "epoch",
          "type": "uint128"
        }
      ],
      "stateMutability": "view",
      "type": "function"
    },
    {
      "inputs": [
        {
          "internalType": "address",
          "name": "",
          "type": "address"
        }
      ],
      "name": "deposits",
      "outputs": [
        {
          "internalType": "uint256",
          "name": "initialValue",
          "type": "uint256"
        },
        {
          "internalType": "address",
          "name": "frontEndTag",
          "type": "address"
        }
      ],
      "stateMutability": "view",
      "type": "function"
    },
    {
      "inputs": [
        {
          "internalType": "uint256",
          "name": "",
          "type": "uint256"
        },
        {
          "internalType": "uint256",
          "name": "",
          "type": "uint256"
        }
      ],
      "name": "epochToScaleToG",
      "outputs": [
        {
          "internalType": "uint256",
          "name": "",
          "type": "uint256"
        }
      ],
      "stateMutability": "view",
      "type": "function"
    },
    {
      "inputs": [
        {
          "internalType": "uint256",
          "name": "",
          "type": "uint256"
        },
        {
          "internalType": "uint256",
          "name": "",
          "type": "uint256"
        }
      ],
      "name": "epochToScaleToSum",
      "outputs": [
        {
          "internalType": "uint256",
          "name": "",
          "type": "uint256"
        }
      ],
      "stateMutability": "view",
      "type": "function"
    },
    {
      "inputs": [
        {
          "internalType": "address",
          "name": "",
          "type": "address"
        }
      ],
      "name": "frontEndSnapshots",
      "outputs": [
        {
          "internalType": "uint256",
          "name": "S",
          "type": "uint256"
        },
        {
          "internalType": "uint256",
          "name": "P",
          "type": "uint256"
        },
        {
          "internalType": "uint256",
          "name": "G",
          "type": "uint256"
        },
        {
          "internalType": "uint128",
          "name": "scale",
          "type": "uint128"
        },
        {
          "internalType": "uint128",
          "name": "epoch",
          "type": "uint128"
        }
      ],
      "stateMutability": "view",
      "type": "function"
    },
    {
      "inputs": [
        {
          "internalType": "address",
          "name": "",
          "type": "address"
        }
      ],
      "name": "frontEndStakes",
      "outputs": [
        {
          "internalType": "uint256",
          "name": "",
          "type": "uint256"
        }
      ],
      "stateMutability": "view",
      "type": "function"
    },
    {
      "inputs": [
        {
          "internalType": "address",
          "name": "",
          "type": "address"
        }
      ],
      "name": "frontEnds",
      "outputs": [
        {
          "internalType": "uint256",
          "name": "kickbackRate",
          "type": "uint256"
        },
        {
          "internalType": "bool",
          "name": "registered",
          "type": "bool"
        }
      ],
      "stateMutability": "view",
      "type": "function"
    },
    {
      "inputs": [
        {
          "internalType": "address",
          "name": "_frontEnd",
          "type": "address"
        }
      ],
      "name": "getCompoundedFrontEndStake",
      "outputs": [
        {
          "internalType": "uint256",
          "name": "",
          "type": "uint256"
        }
      ],
      "stateMutability": "view",
      "type": "function"
    },
    {
      "inputs": [
        {
          "internalType": "address",
          "name": "_depositor",
          "type": "address"
        }
      ],
      "name": "getCompoundedLUSDDeposit",
      "outputs": [
        {
          "internalType": "uint256",
          "name": "",
          "type": "uint256"
        }
      ],
      "stateMutability": "view",
      "type": "function"
    },
    {
      "inputs": [
        {
          "internalType": "address",
          "name": "_depositor",
          "type": "address"
        }
      ],
      "name": "getDepositorETHGain",
      "outputs": [
        {
          "internalType": "uint256",
          "name": "",
          "type": "uint256"
        }
      ],
      "stateMutability": "view",
      "type": "function"
    },
    {
      "inputs": [
        {
          "internalType": "address",
          "name": "_depositor",
          "type": "address"
        }
      ],
      "name": "getDepositorLQTYGain",
      "outputs": [
        {
          "internalType": "uint256",
          "name": "",
          "type": "uint256"
        }
      ],
      "stateMutability": "view",
      "type": "function"
    },
    {
      "inputs": [],
      "name": "getETH",
      "outputs": [
        {
          "internalType": "uint256",
          "name": "",
          "type": "uint256"
        }
      ],
      "stateMutability": "view",
      "type": "function"
    },
    {
      "inputs": [],
      "name": "getEntireSystemColl",
      "outputs": [
        {
          "internalType": "uint256",
          "name": "entireSystemColl",
          "type": "uint256"
        }
      ],
      "stateMutability": "view",
      "type": "function"
    },
    {
      "inputs": [],
      "name": "getEntireSystemDebt",
      "outputs": [
        {
          "internalType": "uint256",
          "name": "entireSystemDebt",
          "type": "uint256"
        }
      ],
      "stateMutability": "view",
      "type": "function"
    },
    {
      "inputs": [
        {
          "internalType": "address",
          "name": "_frontEnd",
          "type": "address"
        }
      ],
      "name": "getFrontEndLQTYGain",
      "outputs": [
        {
          "internalType": "uint256",
          "name": "",
          "type": "uint256"
        }
      ],
      "stateMutability": "view",
      "type": "function"
    },
    {
      "inputs": [],
      "name": "getTotalLUSDDeposits",
      "outputs": [
        {
          "internalType": "uint256",
          "name": "",
          "type": "uint256"
        }
      ],
      "stateMutability": "view",
      "type": "function"
    },
    {
      "inputs": [],
      "name": "isOwner",
      "outputs": [
        {
          "internalType": "bool",
          "name": "",
          "type": "bool"
        }
      ],
      "stateMutability": "view",
      "type": "function"
    },
    {
      "inputs": [],
      "name": "lastETHError_Offset",
      "outputs": [
        {
          "internalType": "uint256",
          "name": "",
          "type": "uint256"
        }
      ],
      "stateMutability": "view",
      "type": "function"
    },
    {
      "inputs": [],
      "name": "lastLQTYError",
      "outputs": [
        {
          "internalType": "uint256",
          "name": "",
          "type": "uint256"
        }
      ],
      "stateMutability": "view",
      "type": "function"
    },
    {
      "inputs": [],
      "name": "lastLUSDLossError_Offset",
      "outputs": [
        {
          "internalType": "uint256",
          "name": "",
          "type": "uint256"
        }
      ],
      "stateMutability": "view",
      "type": "function"
    },
    {
      "inputs": [],
      "name": "lusdToken",
      "outputs": [
        {
          "internalType": "contract ILUSDToken",
          "name": "",
          "type": "address"
        }
      ],
      "stateMutability": "view",
      "type": "function"
    },
    {
      "inputs": [
        {
          "internalType": "uint256",
          "name": "_debtToOffset",
          "type": "uint256"
        },
        {
          "internalType": "uint256",
          "name": "_collToAdd",
          "type": "uint256"
        }
      ],
      "name": "offset",
      "outputs": [],
      "stateMutability": "nonpayable",
      "type": "function"
    },
    {
      "inputs": [],
      "name": "owner",
      "outputs": [
        {
          "internalType": "address",
          "name": "",
          "type": "address"
        }
      ],
      "stateMutability": "view",
      "type": "function"
    },
    {
      "inputs": [],
      "name": "priceFeed",
      "outputs": [
        {
          "internalType": "contract IPriceFeed",
          "name": "",
          "type": "address"
        }
      ],
      "stateMutability": "view",
      "type": "function"
    },
    {
      "inputs": [
        {
          "internalType": "uint256",
          "name": "_amount",
          "type": "uint256"
        },
        {
          "internalType": "address",
          "name": "_frontEndTag",
          "type": "address"
        }
      ],
      "name": "provideToSP",
      "outputs": [],
      "stateMutability": "nonpayable",
      "type": "function"
    },
    {
      "inputs": [
        {
          "internalType": "uint256",
          "name": "_kickbackRate",
          "type": "uint256"
        }
      ],
      "name": "registerFrontEnd",
      "outputs": [],
      "stateMutability": "nonpayable",
      "type": "function"
    },
    {
      "inputs": [
        {
          "internalType": "address",
          "name": "_borrowerOperationsAddress",
          "type": "address"
        },
        {
          "internalType": "address",
          "name": "_troveManagerAddress",
          "type": "address"
        },
        {
          "internalType": "address",
          "name": "_activePoolAddress",
          "type": "address"
        },
        {
          "internalType": "address",
          "name": "_lusdTokenAddress",
          "type": "address"
        },
        {
          "internalType": "address",
          "name": "_sortedTrovesAddress",
          "type": "address"
        },
        {
          "internalType": "address",
          "name": "_priceFeedAddress",
          "type": "address"
        },
        {
          "internalType": "address",
          "name": "_communityIssuanceAddress",
          "type": "address"
        }
      ],
      "name": "setAddresses",
      "outputs": [],
      "stateMutability": "nonpayable",
      "type": "function"
    },
    {
      "inputs": [],
      "name": "sortedTroves",
      "outputs": [
        {
          "internalType": "contract ISortedTroves",
          "name": "",
          "type": "address"
        }
      ],
      "stateMutability": "view",
      "type": "function"
    },
    {
      "inputs": [],
      "name": "troveManager",
      "outputs": [
        {
          "internalType": "contract ITroveManager",
          "name": "",
          "type": "address"
        }
      ],
      "stateMutability": "view",
      "type": "function"
    },
    {
      "inputs": [
        {
          "internalType": "address",
          "name": "_upperHint",
          "type": "address"
        },
        {
          "internalType": "address",
          "name": "_lowerHint",
          "type": "address"
        }
      ],
      "name": "withdrawETHGainToTrove",
      "outputs": [],
      "stateMutability": "nonpayable",
      "type": "function"
    },
    {
      "inputs": [
        {
          "internalType": "uint256",
          "name": "_amount",
          "type": "uint256"
        }
      ],
      "name": "withdrawFromSP",
      "outputs": [],
      "stateMutability": "nonpayable",
      "type": "function"
    },
    {
      "stateMutability": "payable",
      "type": "receive"
    }
  ],
  "bytecode": "0x6080604052670de0b6b3a764000060105534801561001c57600080fd5b50600380546001600160a01b031916339081179091556040516000907f8be0079c531659141344cd1fd0a4f28419497f9722a3daafe3b4186f6b6457e0908290a36136518061006c6000396000f3fe6080604052600436106102765760003560e01c80637f7dde4a1161014f578063ae918754116100c1578063eaa8ba7f1161007a578063eaa8ba7f146107e2578063eb6b2fa614610847578063f24344e614610877578063f5f1595d1461088c578063fc7e286d146108bf578063fda0101a146109135761029b565b8063ae91875414610728578063b83f91a21461073d578063cef941e814610752578063d4ca057514610767578063d7fb04431461079a578063df9cd84f146107af5761029b565b80638f32d59b116101135780638f32d59b1461067457806395fb16bb1461069d5780639bf2f1ac146106b2578063a20baee614610553578063a4e59ac8146106c7578063a7bfff97146106dc5761029b565b80637f7dde4a146105ed57806386da082414610602578063887105d3146106355780638b8fbd921461064a5780638da5cb5b1461065f5761029b565b8063556be101116101e857806372fe25aa116101ac57806372fe25aa14610553578063741bef1a14610568578063766718081461057d57806377553ad4146105ae578063794e5724146105c3578063795d26c3146105d85761029b565b8063556be101146104785780635733d58f146104a25780635a0edf77146104b75780635d2de642146104e75780635f788d651461051a5761029b565b8063335525ad1161023a578063335525ad146103a5578063389e92a5146103d55780633cc74225146104085780633d83908a146104395780634870dd9a1461044e578063538153ca146104635761029b565b806314f6c3be146102a057806316b9d3c5146102c75780631cdc4700146103315780632e54bf95146103645780632e86bbd8146103905761029b565b3661029b5761028361094e565b600954610296903463ffffffff61099916565b600955005b600080fd5b3480156102ac57600080fd5b506102b56109fc565b60408051918252519081900360200190f35b3480156102d357600080fd5b506102fa600480360360208110156102ea57600080fd5b50356001600160a01b0316610a02565b604080519586526020860194909452848401929092526001600160801b039081166060850152166080830152519081900360a00190f35b34801561033d57600080fd5b506102b56004803603602081101561035457600080fd5b50356001600160a01b0316610a3d565b34801561037057600080fd5b5061038e6004803603602081101561038757600080fd5b5035610ae5565b005b34801561039c57600080fd5b506102b5610c5e565b3480156103b157600080fd5b5061038e600480360360408110156103c857600080fd5b5080359060200135610c6a565b3480156103e157600080fd5b506102b5600480360360208110156103f857600080fd5b50356001600160a01b0316610cc1565b34801561041457600080fd5b5061041d610d5e565b604080516001600160a01b039092168252519081900360200190f35b34801561044557600080fd5b5061041d610d6d565b34801561045a57600080fd5b506102b5610d7c565b34801561046f57600080fd5b506102b5610d81565b34801561048457600080fd5b5061038e6004803603602081101561049b57600080fd5b5035610d87565b3480156104ae57600080fd5b506102b5610dfc565b3480156104c357600080fd5b506102b5600480360360408110156104da57600080fd5b5080359060200135610e08565b3480156104f357600080fd5b506102b56004803603602081101561050a57600080fd5b50356001600160a01b0316610e25565b34801561052657600080fd5b5061038e6004803603604081101561053d57600080fd5b50803590602001356001600160a01b0316610e37565b34801561055f57600080fd5b506102b5610fa9565b34801561057457600080fd5b5061041d610fb5565b34801561058957600080fd5b50610592610fc4565b604080516001600160801b039092168252519081900360200190f35b3480156105ba57600080fd5b5061041d610fda565b3480156105cf57600080fd5b506102b5610fe9565b3480156105e457600080fd5b506102b5610ff5565b3480156105f957600080fd5b5061041d6110f6565b34801561060e57600080fd5b506102fa6004803603602081101561062557600080fd5b50356001600160a01b0316611105565b34801561064157600080fd5b506102b5611140565b34801561065657600080fd5b506102b56111fc565b34801561066b57600080fd5b5061041d611202565b34801561068057600080fd5b50610689611211565b604080519115158252519081900360200190f35b3480156106a957600080fd5b5061041d611222565b3480156106be57600080fd5b506102b5611231565b3480156106d357600080fd5b50610592611237565b3480156106e857600080fd5b5061070f600480360360208110156106ff57600080fd5b50356001600160a01b0316611246565b6040805192835290151560208301528051918290030190f35b34801561073457600080fd5b5061041d611262565b34801561074957600080fd5b5061041d611271565b34801561075e57600080fd5b506102b5611280565b34801561077357600080fd5b506102b56004803603602081101561078a57600080fd5b50356001600160a01b0316611286565b3480156107a657600080fd5b506102b561138a565b3480156107bb57600080fd5b506102b5600480360360208110156107d257600080fd5b50356001600160a01b0316611390565b3480156107ee57600080fd5b5061038e600480360360e081101561080557600080fd5b506001600160a01b038135811691602081013582169160408201358116916060810135821691608082013581169160a081013582169160c0909101351661142d565b34801561085357600080fd5b506102b56004803603604081101561086a57600080fd5b50803590602001356116de565b34801561088357600080fd5b506102b56116fb565b34801561089857600080fd5b506102b5600480360360208110156108af57600080fd5b50356001600160a01b0316611707565b3480156108cb57600080fd5b506108f2600480360360208110156108e257600080fd5b50356001600160a01b0316611804565b604080519283526001600160a01b0390911660208301528051918290030190f35b34801561091f57600080fd5b5061038e6004803603604081101561093657600080fd5b506001600160a01b0381358116916020013516611826565b6000546001600160a01b031633146109975760405162461bcd60e51b815260040180806020018281038252602781526020018061337e6027913960400191505060405180910390fd5b565b6000828201838110156109f3576040805162461bcd60e51b815260206004820152601b60248201527f536166654d6174683a206164646974696f6e206f766572666c6f770000000000604482015290519081900360640190fd5b90505b92915050565b60095490565b600f602052600090815260409020805460018201546002830154600390930154919290916001600160801b0380821691600160801b90041685565b6001600160a01b0381166000908152600b602052604081205480610a65576000915050610ae0565b610a6d6132b0565b506001600160a01b0383166000908152600c60209081526040808320815160a08101835281548152600182015493810193909352600281015491830191909152600301546001600160801b038082166060840152600160801b90910416608082015290610ada8383611a58565b93505050505b919050565b8015610af357610af3611b58565b336000908152600b6020526040902054610b0c81611d14565b610b14611d56565b6000610b1f33610cc1565b90506000610b2c33610a3d565b90506000610b3a8583611dd3565b90506000610b4e858463ffffffff611de916565b336000818152600b60205260409020600101549192506001600160a01b0390911690610b7a9082611e2b565b6000610b8582611390565b90506000610b99828663ffffffff611de916565b9050610ba58382611fb3565b6040805182815233602082015281516001600160a01b0386169260008051602061356b833981519152928290030190a2610bdf33866120ff565b6000610bf1878763ffffffff611de916565b9050610bfd3382612185565b60408051828152905133916000805160206133d6833981519152919081900360200190a26040805189815260208101879052815133926000805160206134ba833981519152928290030190a2610c528861230b565b50505050505050505050565b678ac7230489e8000081565b610c72612429565b600a54801580610c80575082155b15610c8b5750610cbd565b610c93611d56565b600080610ca1848685612472565b91509150610caf8282612561565b610cb98486612789565b5050505b5050565b6001600160a01b0381166000908152600b602052604081205480610ce9576000915050610ae0565b610cf16132b0565b506001600160a01b0383166000908152600c60209081526040808320815160a08101835281548152600182015493810193909352600281015491830191909152600301546001600160801b038082166060840152600160801b90910416608082015290610ada83836128c9565b6001546001600160a01b031681565b6005546001600160a01b031681565b60c881565b60165481565b610d90336129c8565b610d9933612a23565b610da281612a79565b336000818152600d60209081526040918290208481556001908101805460ff19169091179055815184815291517f19bc932fb9e16a8b5a1e41be9f4c2de59d5ddd7567b8b81405f532ca00a9880e9281900390910190a250565b6714d1120d7b16000081565b601360209081526000928352604080842090915290825290205481565b600e6020526000908152604090205481565b610e4081612ac0565b610e49336129c8565b610e5282612b2c565b336000908152600b6020526040902054610e6a611d56565b80610e7957610e793383612b6b565b6000610e8433610cc1565b90506000610e9133610a3d565b90506000610ea5848363ffffffff611de916565b336000818152600b60205260409020600101549192506001600160a01b0390911690610ed19082611e2b565b6000610edc82611390565b90506000610ef0828a63ffffffff61099916565b9050610efc8382611fb3565b6040805182815233602082015281516001600160a01b0386169260008051602061356b833981519152928290030190a2610f36338a612b9c565b6000610f48868b63ffffffff61099916565b9050610f543382612185565b60408051828152905133916000805160206133d6833981519152919081900360200190a26040805188815260208101879052815133926000805160206134ba833981519152928290030190a2610c528761230b565b670de0b6b3a764000081565b6002546001600160a01b031681565b601154600160801b90046001600160801b031681565b6004546001600160a01b031681565b670f43fc2c04ee000081565b6000805460408051632f5a97e560e11b8152905183926001600160a01b031691635eb52fca916004808301926020929190829003018186803b15801561103a57600080fd5b505afa15801561104e573d6000803e3d6000fd5b505050506040513d602081101561106457600080fd5b505160015460408051632f5a97e560e11b815290519293506000926001600160a01b0390921691635eb52fca91600480820192602092909190829003018186803b1580156110b157600080fd5b505afa1580156110c5573d6000803e3d6000fd5b505050506040513d60208110156110db57600080fd5b505190506110ef828263ffffffff61099916565b9250505090565b6000546001600160a01b031681565b600c602052600090815260409020805460018201546002830154600390930154919290916001600160801b0380821691600160801b90041685565b6000805460408051630a7b61df60e11b8152905183926001600160a01b0316916314f6c3be916004808301926020929190829003018186803b15801561118557600080fd5b505afa158015611199573d6000803e3d6000fd5b505050506040513d60208110156111af57600080fd5b505160015460408051630a7b61df60e11b815290519293506000926001600160a01b03909216916314f6c3be91600480820192602092909190829003018186803b1580156110b157600080fd5b60105481565b6003546001600160a01b031690565b6003546001600160a01b0316331490565b6008546001600160a01b031681565b600a5490565b6011546001600160801b031681565b600d602052600090815260409020805460019091015460ff1682565b6007546001600160a01b031681565b6006546001600160a01b031681565b60145481565b6001600160a01b0381166000908152600e6020526040812054806112ae576000915050610ae0565b6001600160a01b0383166000908152600d6020526040812054906112e0670de0b6b3a76400008363ffffffff611de916565b90506112ea6132b0565b506001600160a01b0385166000908152600f60209081526040808320815160a08101835281548152600182015493810193909352600281015491830191909152600301546001600160801b038082166060840152600160801b9091041660808201529061137f670de0b6b3a76400006113736113668886612c66565b869063ffffffff612d0016565b9063ffffffff612d5916565b979650505050505050565b60155481565b6001600160a01b0381166000908152600e6020526040812054806113b8576000915050610ae0565b6113c06132b0565b506001600160a01b0383166000908152600f60209081526040808320815160a08101835281548152600182015493810193909352600281015491830191909152600301546001600160801b038082166060840152600160801b90910416608082015290610ada8383611a58565b611435611211565b611486576040805162461bcd60e51b815260206004820181905260248201527f4f776e61626c653a2063616c6c6572206973206e6f7420746865206f776e6572604482015290519081900360640190fd5b61148f87612d9b565b61149886612d9b565b6114a185612d9b565b6114aa84612d9b565b6114b383612d9b565b6114bc82612d9b565b6114c581612d9b565b600480546001600160a01b03199081166001600160a01b038a81169182179093556005805483168a85161790556000805483168985161790556006805483168885161790556007805483168785161790556002805483168685161790556008805490921692841692909217905560408051918252517f3ca631ffcd2a9b5d9ae18543fc82f58eb4ca33af9e6ab01b7a8e95331e6ed985916020908290030190a1604080516001600160a01b038816815290517f143219c9e69b09e07e095fcc889b43d8f46ca892bba65f08dc3a0050869a56789181900360200190a1604080516001600160a01b038716815290517f78f058b189175430c48dc02699e3a0031ea4ff781536dc2fab847de4babdd8829181900360200190a1604080516001600160a01b038616815290517f227eec0ec317af6ab1a9587ffa1c84332522eb4c583a908f89babc05f8f339bd9181900360200190a1604080516001600160a01b038516815290517f65f4cf077bc01e4742eb5ad98326f6e95b63548ea24b17f8d5e823111fe788009181900360200190a1604080516001600160a01b038416815290517f8c537274438aa850a330284665d81a85dd38267d09e4050d416bfc94142db2649181900360200190a1604080516001600160a01b038316815290517f3055265812fb8447b9ada4a5d804ec43bd528ec40e89c952bbc7b85dc5ac68119181900360200190a16116d5612e4a565b50505050505050565b601260209081526000928352604080842090915290825290205481565b6729a2241af62c000081565b6001600160a01b0381166000908152600b60205260408120548061172f576000915050610ae0565b6001600160a01b038084166000908152600b6020526040812060010154909116908115611774576001600160a01b0382166000908152600d602052604090205461177e565b670de0b6b3a76400005b90506117886132b0565b506001600160a01b0385166000908152600c60209081526040808320815160a08101835281548152600182015493810193909352600281015491830191909152600301546001600160801b038082166060840152600160801b9091041660808201529061137f670de0b6b3a76400006113736113668886612c66565b600b60205260009081526040902080546001909101546001600160a01b031682565b336000908152600b602052604090205461183f81611d14565b61184833612e94565b61185133612f4b565b611859611d56565b600061186433610cc1565b9050600061187133610a3d565b90506000611885848363ffffffff611de916565b336000818152600b60205260409020600101549192506001600160a01b03909116906118b19082611e2b565b60006118bc82611390565b9050806118c98382611fb3565b6040805182815233602082015281516001600160a01b0386169260008051602061356b833981519152928290030190a26119033386612185565b6040805187815260208101869052815133926000805160206134ba833981519152928290030190a260408051868152905133916000805160206133d6833981519152919081900360200190a2600954611962908763ffffffff611de916565b600981905560408051918252517f7ab2bdf6e6d108cd138a8f6436723e8dfd0cb22727fe608e40b5adfb8357f1b99181900360200190a1604080513381526020810188905281517f6109e2559dfa766aaec7118351d48a523f0a4157f49c8d68749c8ac41318ad12929181900390910190a1600480546040805163ea9638bf60e01b815233938101939093526001600160a01b038c811660248501528b81166044850152905191169163ea9638bf91899160648082019260009290919082900301818588803b158015611a3457600080fd5b505af1158015611a48573d6000803e3d6000fd5b5050505050505050505050505050565b6020810151606082015160808301516011546000939291906001600160801b03600160801b90910481169082161015611a9757600093505050506109f6565b6011546000908190611ab8906001600160801b03168563ffffffff612f9716565b90506001600160801b038116611ae857611ae1856113736010548b612d0090919063ffffffff16565b9150611b24565b806001600160801b031660011415611b1f57611ae1670de0b6b3a7640000611373876113736010548d612d0090919063ffffffff16565b600091505b611b3888633b9aca0063ffffffff612d5916565b821015611b4d576000955050505050506109f6565b509695505050505050565b60025460408051634c6afee560e11b815290516000926001600160a01b0316916398d5fdca916004808301926020929190829003018186803b158015611b9d57600080fd5b505afa158015611bb1573d6000803e3d6000fd5b505050506040513d6020811015611bc757600080fd5b505160075460408051634d62283160e01b815290519293506000926001600160a01b0390921691634d62283191600480820192602092909190829003018186803b158015611c1457600080fd5b505afa158015611c28573d6000803e3d6000fd5b505050506040513d6020811015611c3e57600080fd5b505160055460408051630d293c7160e41b81526001600160a01b038085166004830152602482018790529151939450600093919092169163d293c710916044808301926020929190829003018186803b158015611c9a57600080fd5b505afa158015611cae573d6000803e3d6000fd5b505050506040513d6020811015611cc457600080fd5b50519050670f43fc2c04ee0000811015611d0f5760405162461bcd60e51b81526004018080602001828103825260448152602001806135d86044913960600191505060405180910390fd5b505050565b60008111611d535760405162461bcd60e51b815260040180806020018281038252603081526020018061353b6030913960400191505060405180910390fd5b50565b600854604080516346ad34d960e01b815290516000926001600160a01b0316916346ad34d991600480830192602092919082900301818787803b158015611d9c57600080fd5b505af1158015611db0573d6000803e3d6000fd5b505050506040513d6020811015611dc657600080fd5b50519050611d5381612ff0565b6000818310611de257816109f3565b5090919050565b60006109f383836040518060400160405280601e81526020017f536166654d6174683a207375627472616374696f6e206f766572666c6f7700008152506130a9565b6001600160a01b03811615611ef5576000611e4582611286565b600854604080516330a6955b60e11b81526001600160a01b03868116600483015260248201859052915193945091169163614d2ab69160448082019260009290919082900301818387803b158015611e9c57600080fd5b505af1158015611eb0573d6000803e3d6000fd5b50506040805184815290516001600160a01b03861693507fcd2cdc1a4af71051394e9c6facd9a266b2ac5bd65d219a701eeda009f47682bf92509081900360200190a2505b6000611f0083611707565b600854604080516330a6955b60e11b81526001600160a01b03878116600483015260248201859052915193945091169163614d2ab69160448082019260009290919082900301818387803b158015611f5757600080fd5b505af1158015611f6b573d6000803e3d6000fd5b50506040805184815290516001600160a01b03871693507f2608b986a6ac0f6c629ca37018e80af5561e366252ae93602a96d3ab2e73e42d92509081900360200190a2505050565b6001600160a01b0382166000908152600e6020526040902081905580612043576001600160a01b0382166000818152600f60209081526040808320838155600181018490556002810184905560030183905580518381529182019290925281517fbb1322f85cc7cc8bac4e172a5bc5dcc0c1959007f9a030032abf9258205f0e45929181900390910190a2610cbd565b6011546010546001600160801b03600160801b80840482166000818152601360209081526040808320978616808452978252808320546001600160a01b038b16808552600f845293829020600181018990556002810182905560030180546001600160801b0319168a17909716958502959095179095558451868152908101849052845192959491927fbb1322f85cc7cc8bac4e172a5bc5dcc0c1959007f9a030032abf9258205f0e45929181900390910190a2505050505050565b8061210957610cbd565b60065460408051631062c15f60e11b81523060048201526001600160a01b03858116602483015260448201859052915191909216916320c582be91606480830192600092919082900301818387803b15801561216457600080fd5b505af1158015612178573d6000803e3d6000fd5b50505050610cbd81613140565b6001600160a01b0382166000908152600b6020526040902081905580612233576001600160a01b0382166000818152600b60209081526040808320600190810180546001600160a01b0319169055600c83528184208481559081018490556002810184905560030183905580518381529182018390528181019290925290517f2d6cc0bcdf72c9486f6451bde6b80f44066f4558f77f44dbfedbe7d8b295225a9181900360600190a2610cbd565b6011546010546001600160801b03600160801b8084048216600081815260126020908152604080832097861680845297825280832054848452601383528184208985528352818420546001600160a01b038c16808652600c855294839020600181018a90558281556002810182905560030180546001600160801b0319168b179098169686029690961790965580518781529182018690528181018590525192959493927f2d6cc0bcdf72c9486f6451bde6b80f44066f4558f77f44dbfedbe7d8b295225a916060908290030190a250505050505050565b8061231557611d53565b60095460009061232b908363ffffffff611de916565b60098190556040805182815290519192507f7ab2bdf6e6d108cd138a8f6436723e8dfd0cb22727fe608e40b5adfb8357f1b9919081900360200190a1604080513381526020810184905281517f6109e2559dfa766aaec7118351d48a523f0a4157f49c8d68749c8ac41318ad12929181900390910190a1604051600090339084908381818185875af1925050503d80600081146123e4576040519150601f19603f3d011682016040523d82523d6000602084013e6123e9565b606091505b5050905080611d0f5760405162461bcd60e51b815260040180806020018281038252602181526020018061341f6021913960400191505060405180910390fd5b6005546001600160a01b031633146109975760405162461bcd60e51b81526004018080602001828103825260298152602001806133f66029913960400191505060405180910390fd5b60008060006124a4601654612498670de0b6b3a764000088612d0090919063ffffffff16565b9063ffffffff611de916565b905060006124d56015546124c9670de0b6b3a76400008a612d0090919063ffffffff16565b9063ffffffff61099916565b90508486106124f3576000601655670de0b6b3a76400009250612522565b61250860016124c9848863ffffffff612d5916565b925061251e82612498858863ffffffff612d0016565b6016555b612532818663ffffffff612d5916565b9350612554612547858763ffffffff612d0016565b829063ffffffff611de916565b6015555050935093915050565b6010546000670de0b6b3a764000083111561257857fe5b6000670de0b6b3a76400008410156125a7576125a2670de0b6b3a76400008563ffffffff611de916565b6125aa565b60005b6011546001600160801b03600160801b8204811660008181526012602090815260408083209490951680835293905292832054939450909290916125ee8988612d00565b90506000612602838363ffffffff61099916565b6001600160801b038086166000908152601260209081526040808320938a16835292815290829020839055815183815291519293507fb3b0cd868e433c74c233db87efea57c13377de7056bf27b1a50feaab5bfd499192918290030190a1856126b65761267f6001600160801b038516600163ffffffff61319616565b601180546001600160801b03928316600160801b029216919091176001600160801b0319169055670de0b6b3a76400009650612745565b670de0b6b3a76400006126cf898863ffffffff612d0016565b1015612726576126e5888763ffffffff612d0016565b96506127016001600160801b038616600163ffffffff61319616565b601180546001600160801b0319166001600160801b0392909216919091179055612745565b612742670de0b6b3a76400006113738a8963ffffffff612d0016565b96505b60108790556040805188815290517fc1a9618cb59ebca77cbdbc2949f126823c407ff13edb285fd0262519a9c18e8c9181900360200190a150505050505050505050565b600080546040805163071b32b560e31b81526004810185905290516001600160a01b03909216926338d995a89260248084019382900301818387803b1580156127d157600080fd5b505af11580156127e5573d6000803e3d6000fd5b505050506127f281613140565b60065460408051632770a7eb60e21b81523060048201526024810184905290516001600160a01b0390921691639dc29fac9160448082019260009290919082900301818387803b15801561284557600080fd5b505af1158015612859573d6000803e3d6000fd5b505060008054604080516364a197f360e01b81523060048201526024810188905290516001600160a01b0390921694506364a197f39350604480820193929182900301818387803b1580156128ad57600080fd5b505af11580156128c1573d6000803e3d6000fd5b505050505050565b6080810151606082015182516020808501516001600160801b03808616600090815260128452604080822092871682529190935282205491949392918590612917908463ffffffff611de916565b90506000612988670de0b6b3a764000060126000896001600160801b03168152602001908152602001600020600061296260018a6001600160801b031661319690919063ffffffff16565b6001600160801b0316815260200190815260200160002054612d5990919063ffffffff16565b905060006129ba670de0b6b3a764000061137386816129ad888863ffffffff61099916565b8f9063ffffffff612d0016565b9a9950505050505050505050565b6001600160a01b0381166000908152600d602052604090206001015460ff1615611d535760405162461bcd60e51b81526004018080602001828103825260398152602001806134da6039913960400191505060405180910390fd5b6001600160a01b0381166000908152600b60205260409020548015610cbd5760405162461bcd60e51b81526004018080602001828103825260288152602001806135136028913960400191505060405180910390fd5b670de0b6b3a7640000811115611d535760405162461bcd60e51b81526004018080602001828103825260338152602001806134616033913960400191505060405180910390fd5b6001600160a01b0381166000908152600d602052604090206001015460ff1680612af157506001600160a01b038116155b611d535760405162461bcd60e51b81526004018080602001828103825260468152602001806133386046913960600191505060405180910390fd5b60008111611d535760405162461bcd60e51b81526004018080602001828103825260268152602001806134946026913960400191505060405180910390fd5b6001600160a01b039182166000908152600b6020526040902060010180546001600160a01b03191691909216179055565b60065460408051632ee65eeb60e21b81526001600160a01b038581166004830152306024830152604482018590529151919092169163bb997bac91606480830192600092919082900301818387803b158015612bf757600080fd5b505af1158015612c0b573d6000803e3d6000fd5b5050600a5460009250612c2591508363ffffffff61099916565b600a8190556040805182815290519192507fb85aa39be26453c93060ffe42e1e6ea34980cb12e563f517cbce039dcd5af392919081900360200190a1505050565b608081015160608201516040808401516020808601516001600160801b03808716600090815260138452858120918716815292529281205490949392908590612cb5908463ffffffff611de916565b90506000612988670de0b6b3a764000060136000896001600160801b03168152602001908152602001600020600061296260018a6001600160801b031661319690919063ffffffff16565b600082612d0f575060006109f6565b82820282848281612d1c57fe5b04146109f35760405162461bcd60e51b81526004018080602001828103825260218152602001806134406021913960400191505060405180910390fd5b60006109f383836040518060400160405280601a81526020017f536166654d6174683a206469766973696f6e206279207a65726f0000000000008152506131e6565b6001600160a01b038116612df6576040805162461bcd60e51b815260206004820152601e60248201527f4163636f756e742063616e6e6f74206265207a65726f20616464726573730000604482015290519081900360640190fd5b803b80610cbd576040805162461bcd60e51b815260206004820181905260248201527f4163636f756e7420636f64652073697a652063616e6e6f74206265207a65726f604482015290519081900360640190fd5b6003546040516000916001600160a01b0316907f8be0079c531659141344cd1fd0a4f28419497f9722a3daafe3b4186f6b6457e0908390a3600380546001600160a01b0319169055565b600554604080516321e3780160e01b81526001600160a01b038481166004830152915191909216916321e37801916024808301926020929190829003018186803b158015612ee157600080fd5b505afa158015612ef5573d6000803e3d6000fd5b505050506040513d6020811015612f0b57600080fd5b5051600114611d535760405162461bcd60e51b81526004018080602001828103825260468152602001806132f26046913960600191505060405180910390fd5b6000612f5682610cc1565b905060008111610cbd5760405162461bcd60e51b81526004018080602001828103825260318152602001806133a56031913960400191505060405180910390fd5b6000826001600160801b0316826001600160801b03161115612fea5760405162461bcd60e51b815260040180806020018281038252602881526020018061358b6028913960400191505060405180910390fd5b50900390565b600a54801580612ffe575081155b156130095750611d53565b6000613015838361324b565b9050600061302e60105483612d0090919063ffffffff16565b6011546001600160801b03600160801b820481166000908152601360209081526040808320939094168252919091522054909150613072908263ffffffff61099916565b6011546001600160801b03600160801b82048116600090815260136020908152604080832093909416825291909152205550505050565b600081848411156131385760405162461bcd60e51b81526004018080602001828103825283818151815260200191508051906020019080838360005b838110156130fd5781810151838201526020016130e5565b50505050905090810190601f16801561312a5780820380516001836020036101000a031916815260200191505b509250505060405180910390fd5b505050900390565b600a54600090613156908363ffffffff611de916565b600a8190556040805182815290519192507fb85aa39be26453c93060ffe42e1e6ea34980cb12e563f517cbce039dcd5af392919081900360200190a15050565b60008282016001600160801b0380851690821610156109f35760405162461bcd60e51b81526004018080602001828103825260258152602001806135b36025913960400191505060405180910390fd5b600081836132355760405162461bcd60e51b81526020600482018181528351602484015283519092839260449091019190850190808383600083156130fd5781810151838201526020016130e5565b50600083858161324157fe5b0495945050505050565b60008061326f6014546124c9670de0b6b3a764000087612d0090919063ffffffff16565b90506000613283828563ffffffff612d5916565b90506132a5613298828663ffffffff612d0016565b839063ffffffff611de916565b601455949350505050565b6040518060a0016040528060008152602001600081526020016000815260200160006001600160801b0316815260200160006001600160801b03168152509056fe53746162696c697479506f6f6c3a2063616c6c6572206d757374206861766520616e206163746976652074726f766520746f207769746864726177204554484761696e20746f53746162696c697479506f6f6c3a20546167206d757374206265206120726567697374657265642066726f6e7420656e642c206f7220746865207a65726f206164647265737353746162696c697479506f6f6c3a2043616c6c6572206973206e6f7420416374697665506f6f6c53746162696c697479506f6f6c3a2063616c6c6572206d7573742068617665206e6f6e2d7a65726f20455448204761696ebce78369dccab09eec1986f4d409ab09ffbb47d65423e5148fcf98411c5111c953746162696c697479506f6f6c3a2043616c6c6572206973206e6f742054726f76654d616e6167657253746162696c697479506f6f6c3a2073656e64696e6720455448206661696c6564536166654d6174683a206d756c7469706c69636174696f6e206f766572666c6f7753746162696c697479506f6f6c3a204b69636b6261636b2072617465206d75737420626520696e2072616e6765205b302c315d53746162696c697479506f6f6c3a20416d6f756e74206d757374206265206e6f6e2d7a65726f51457222ebca92c335c9c86e2baa1cc0e40ffaa9084a51452980d5ba8dec2f6353746162696c697479506f6f6c3a206d757374206e6f7420616c7265616479206265206120726567697374657265642066726f6e7420656e6453746162696c697479506f6f6c3a2055736572206d7573742068617665206e6f206465706f73697453746162696c697479506f6f6c3a2055736572206d75737420686176652061206e6f6e2d7a65726f206465706f73697499920012339b5a3368d3a04b8606ce412c46ed92b7dcd8602d41fc8862cb8f254c697175697479536166654d6174683132383a207375627472616374696f6e206f766572666c6f774c697175697479536166654d6174683132383a206164646974696f6e206f766572666c6f7753746162696c697479506f6f6c3a2043616e6e6f74207769746864726177207768696c65207468657265206172652074726f766573207769746820494352203c204d4352a2646970667358221220a16904411f035b154cd75fc1ac74f85b75f4c6a8b7cd1321a6e610728c3a517364736f6c634300060b0033",
  "linkReferences": {},
  "deployedLinkReferences": {}
}