{
  "_format": "hh-sol-artifact-1",
  "contractName": "TellorCaller",
  "sourceName": "contracts/Dependencies/TellorCaller.sol",
  "abi": [
    {
      "inputs": [
        {
          "internalType": "address",
          "name": "_tellorMasterAddress",
          "type": "address"
        }
      ],
      "stateMutability": "nonpayable",
      "type": "constructor"
    },
    {
      "inputs": [
        {
          "internalType": "uint256",
          "name": "_requestId",
          "type": "uint256"
        }
      ],
      "name": "getTellorCurrentValue",
      "outputs": [
        {
          "internalType": "bool",
          "name": "ifRetrieve",
          "type": "bool"
        },
        {
          "internalType": "uint256",
          "name": "value",
          "type": "uint256"
        },
        {
          "internalType": "uint256",
          "name": "_timestampRetrieved",
          "type": "uint256"
        }
      ],
      "stateMutability": "view",
      "type": "function"
    },
    {
      "inputs": [],
      "name": "tellor",
      "outputs": [
        {
          "internalType": "contract ITellor",
          "name": "",
          "type": "address"
        }
      ],
      "stateMutability": "view",
      "type": "function"
    }
  ],
  "bytecode": "0x608060405234801561001057600080fd5b506040516103e23803806103e28339818101604052602081101561003357600080fd5b5051600080546001600160a01b039092166001600160a01b031990921691909117905561037d806100656000396000f3fe608060405234801561001057600080fd5b50600436106100365760003560e01c80631959ad5b1461003b57806332e6aadb1461005f575b600080fd5b61004361009c565b604080516001600160a01b039092168252519081900360200190f35b61007c6004803603602081101561007557600080fd5b50356100ab565b604080519315158452602084019290925282820152519081900360600190f35b6000546001600160a01b031681565b60008054604080516311bbb87160e21b81526004810185905290518392839283926001600160a01b03909216916346eee1c491602480820192602092909190829003018186803b1580156100fe57600080fd5b505afa158015610112573d6000803e3d6000fd5b505050506040513d602081101561012857600080fd5b505160008054919250906001600160a01b03166377fbb6638761015285600163ffffffff61026716565b6040518363ffffffff1660e01b8152600401808381526020018281526020019250505060206040518083038186803b15801561018d57600080fd5b505afa1580156101a1573d6000803e3d6000fd5b505050506040513d60208110156101b757600080fd5b505160008054604080516393fa491560e01b8152600481018b905260248101859052905193945091926001600160a01b03909116916393fa4915916044808301926020929190829003018186803b15801561021157600080fd5b505afa158015610225573d6000803e3d6000fd5b505050506040513d602081101561023b57600080fd5b5051905080156102545760019550935091506102609050565b50600094508493509150505b9193909250565b60006102a983836040518060400160405280601e81526020017f536166654d6174683a207375627472616374696f6e206f766572666c6f7700008152506102b0565b9392505050565b6000818484111561033f5760405162461bcd60e51b81526004018080602001828103825283818151815260200191508051906020019080838360005b838110156103045781810151838201526020016102ec565b50505050905090810190601f1680156103315780820380516001836020036101000a031916815260200191505b509250505060405180910390fd5b50505090039056fea2646970667358221220879aa73e09e5c62ff7d037637f6e57fe40db960d4d45297080ca4c12462ca76164736f6c634300060b0033",
  "linkReferences": {},
  "deployedLinkReferences": {}
}