{
  "_format": "hh-sol-artifact-1",
  "contractName": "TellorCaller",
  "sourceName": "contracts/Dependencies/TellorCaller.sol",
  "abi": [
    {
      "inputs": [
        {
          "internalType": "address",
          "name": "_tellorMasterAddress",
          "type": "address"
        }
      ],
      "stateMutability": "nonpayable",
      "type": "constructor"
    },
    {
      "inputs": [
        {
          "internalType": "uint256",
          "name": "_requestId",
          "type": "uint256"
        }
      ],
      "name": "getTellorCurrentValue",
      "outputs": [
        {
          "internalType": "bool",
          "name": "ifRetrieve",
          "type": "bool"
        },
        {
          "internalType": "uint256",
          "name": "value",
          "type": "uint256"
        },
        {
          "internalType": "uint256",
          "name": "_timestampRetrieved",
          "type": "uint256"
        }
      ],
      "stateMutability": "view",
      "type": "function"
    }
  ],
  "bytecode": "0x608060405234801561001057600080fd5b506040516103a43803806103a48339818101604052602081101561003357600080fd5b5051600080546001600160a01b039092166001600160a01b031990921691909117905561033f806100656000396000f3fe608060405234801561001057600080fd5b506004361061002b5760003560e01c806332e6aadb14610030575b600080fd5b61004d6004803603602081101561004657600080fd5b503561006d565b604080519315158452602084019290925282820152519081900360600190f35b60008054604080516311bbb87160e21b81526004810185905290518392839283926001600160a01b03909216916346eee1c491602480820192602092909190829003018186803b1580156100c057600080fd5b505afa1580156100d4573d6000803e3d6000fd5b505050506040513d60208110156100ea57600080fd5b505160008054919250906001600160a01b03166377fbb6638761011485600163ffffffff61022916565b6040518363ffffffff1660e01b8152600401808381526020018281526020019250505060206040518083038186803b15801561014f57600080fd5b505afa158015610163573d6000803e3d6000fd5b505050506040513d602081101561017957600080fd5b505160008054604080516393fa491560e01b8152600481018b905260248101859052905193945091926001600160a01b03909116916393fa4915916044808301926020929190829003018186803b1580156101d357600080fd5b505afa1580156101e7573d6000803e3d6000fd5b505050506040513d60208110156101fd57600080fd5b5051905080156102165760019550935091506102229050565b50600094508493509150505b9193909250565b600061026b83836040518060400160405280601e81526020017f536166654d6174683a207375627472616374696f6e206f766572666c6f770000815250610272565b9392505050565b600081848411156103015760405162461bcd60e51b81526004018080602001828103825283818151815260200191508051906020019080838360005b838110156102c65781810151838201526020016102ae565b50505050905090810190601f1680156102f35780820380516001836020036101000a031916815260200191505b509250505060405180910390fd5b50505090039056fea2646970667358221220b1a8cb180c5881a83e3010bb4f930d3e179d456de3aa0da8c6dfbebd7ee1d5b064736f6c634300060b0033",
  "linkReferences": {},
  "deployedLinkReferences": {}
}