{
  "_format": "hh-sol-artifact-1",
  "contractName": "TokenScript",
  "sourceName": "contracts/Proxy/TokenScript.sol",
  "abi": [
    {
      "inputs": [
        {
          "internalType": "address",
          "name": "_tokenAddress",
          "type": "address"
        }
      ],
      "stateMutability": "nonpayable",
      "type": "constructor"
    },
    {
      "inputs": [
        {
          "internalType": "address",
          "name": "owner",
          "type": "address"
        },
        {
          "internalType": "address",
          "name": "spender",
          "type": "address"
        }
      ],
      "name": "allowance",
      "outputs": [
        {
          "internalType": "uint256",
          "name": "",
          "type": "uint256"
        }
      ],
      "stateMutability": "view",
      "type": "function"
    },
    {
      "inputs": [
        {
          "internalType": "address",
          "name": "spender",
          "type": "address"
        },
        {
          "internalType": "uint256",
          "name": "amount",
          "type": "uint256"
        }
      ],
      "name": "approve",
      "outputs": [
        {
          "internalType": "bool",
          "name": "",
          "type": "bool"
        }
      ],
      "stateMutability": "nonpayable",
      "type": "function"
    },
    {
      "inputs": [
        {
          "internalType": "address",
          "name": "spender",
          "type": "address"
        },
        {
          "internalType": "uint256",
          "name": "subtractedValue",
          "type": "uint256"
        }
      ],
      "name": "decreaseAllowance",
      "outputs": [
        {
          "internalType": "bool",
          "name": "",
          "type": "bool"
        }
      ],
      "stateMutability": "nonpayable",
      "type": "function"
    },
    {
      "inputs": [
        {
          "internalType": "address",
          "name": "spender",
          "type": "address"
        },
        {
          "internalType": "uint256",
          "name": "addedValue",
          "type": "uint256"
        }
      ],
      "name": "increaseAllowance",
      "outputs": [
        {
          "internalType": "bool",
          "name": "",
          "type": "bool"
        }
      ],
      "stateMutability": "nonpayable",
      "type": "function"
    },
    {
      "inputs": [
        {
          "internalType": "address",
          "name": "recipient",
          "type": "address"
        },
        {
          "internalType": "uint256",
          "name": "amount",
          "type": "uint256"
        }
      ],
      "name": "transfer",
      "outputs": [
        {
          "internalType": "bool",
          "name": "",
          "type": "bool"
        }
      ],
      "stateMutability": "nonpayable",
      "type": "function"
    },
    {
      "inputs": [
        {
          "internalType": "address",
          "name": "sender",
          "type": "address"
        },
        {
          "internalType": "address",
          "name": "recipient",
          "type": "address"
        },
        {
          "internalType": "uint256",
          "name": "amount",
          "type": "uint256"
        }
      ],
      "name": "transferFrom",
      "outputs": [
        {
          "internalType": "bool",
          "name": "",
          "type": "bool"
        }
      ],
      "stateMutability": "nonpayable",
      "type": "function"
    }
  ],
  "bytecode": "0x60a060405234801561001057600080fd5b506040516106513803806106518339818101604052602081101561003357600080fd5b5051610047816001600160e01b0361005c16565b60601b6001600160601b03191660805261010f565b6001600160a01b0381166100b7576040805162461bcd60e51b815260206004820152601e60248201527f4163636f756e742063616e6e6f74206265207a65726f20616464726573730000604482015290519081900360640190fd5b803b8061010b576040805162461bcd60e51b815260206004820181905260248201527f4163636f756e7420636f64652073697a652063616e6e6f74206265207a65726f604482015290519081900360640190fd5b5050565b60805160601c61050c610145600039806101cd528061027b528061032252806103955280610408528061047c525061050c6000f3fe608060405234801561001057600080fd5b50600436106100625760003560e01c8063095ea7b31461006757806323b872dd146100a757806339509351146100dd578063a457c2d714610109578063a9059cbb14610135578063dd62ed3e14610161575b600080fd5b6100936004803603604081101561007d57600080fd5b506001600160a01b0381351690602001356101a1565b604080519115158252519081900360200190f35b610093600480360360608110156100bd57600080fd5b506001600160a01b03813581169160208101359091169060400135610247565b610093600480360360408110156100f357600080fd5b506001600160a01b0381351690602001356102f6565b6100936004803603604081101561011f57600080fd5b506001600160a01b038135169060200135610369565b6100936004803603604081101561014b57600080fd5b506001600160a01b0381351690602001356103dc565b61018f6004803603604081101561017757600080fd5b506001600160a01b038135811691602001351661044f565b60408051918252519081900360200190f35b6040805163095ea7b360e01b81526001600160a01b0384811660048301526024820184905291516000927f0000000000000000000000000000000000000000000000000000000000000000169163095ea7b391604480830192602092919082900301818787803b15801561021457600080fd5b505af1158015610228573d6000803e3d6000fd5b505050506040513d602081101561023e57600080fd5b50909392505050565b604080516323b872dd60e01b81526001600160a01b03858116600483015284811660248301526044820184905291516000927f000000000000000000000000000000000000000000000000000000000000000016916323b872dd91606480830192602092919082900301818787803b1580156102c257600080fd5b505af11580156102d6573d6000803e3d6000fd5b505050506040513d60208110156102ec57600080fd5b5090949350505050565b60408051633950935160e01b81526001600160a01b0384811660048301526024820184905291516000927f00000000000000000000000000000000000000000000000000000000000000001691633950935191604480830192602092919082900301818787803b15801561021457600080fd5b6040805163a457c2d760e01b81526001600160a01b0384811660048301526024820184905291516000927f0000000000000000000000000000000000000000000000000000000000000000169163a457c2d791604480830192602092919082900301818787803b15801561021457600080fd5b6040805163a9059cbb60e01b81526001600160a01b0384811660048301526024820184905291516000927f0000000000000000000000000000000000000000000000000000000000000000169163a9059cbb91604480830192602092919082900301818787803b15801561021457600080fd5b60408051636eb1769f60e11b81526001600160a01b038481166004830152838116602483015291516000927f0000000000000000000000000000000000000000000000000000000000000000169163dd62ed3e916044808301926020929190829003018186803b1580156104c257600080fd5b505afa158015610228573d6000803e3d6000fdfea2646970667358221220214dd7e50d9f6d31797aef1c840b9e8662facf83534921c475b1a8526341660564736f6c634300060b0033",
  "linkReferences": {},
  "deployedLinkReferences": {}
}