{
  "_format": "hh-sol-artifact-1",
  "contractName": "TroveManagerTester",
  "sourceName": "contracts/TestContracts/CDPManagerTester.sol",
  "abi": [
    {
      "anonymous": false,
      "inputs": [
        {
          "indexed": false,
          "internalType": "address",
          "name": "_activePoolAddress",
          "type": "address"
        }
      ],
      "name": "ActivePoolAddressChanged",
      "type": "event"
    },
    {
      "anonymous": false,
      "inputs": [
        {
          "indexed": false,
          "internalType": "uint256",
          "name": "_baseRate",
          "type": "uint256"
        }
      ],
      "name": "BaseRateUpdated",
      "type": "event"
    },
    {
      "anonymous": false,
      "inputs": [
        {
          "indexed": false,
          "internalType": "address",
          "name": "_newBorrowerOperationsAddress",
          "type": "address"
        }
      ],
      "name": "BorrowerOperationsAddressChanged",
      "type": "event"
    },
    {
      "anonymous": false,
      "inputs": [
        {
          "indexed": false,
          "internalType": "address",
          "name": "_collSurplusPoolAddress",
          "type": "address"
        }
      ],
      "name": "CollSurplusPoolAddressChanged",
      "type": "event"
    },
    {
      "anonymous": false,
      "inputs": [
        {
          "indexed": false,
          "internalType": "address",
          "name": "_defaultPoolAddress",
          "type": "address"
        }
      ],
      "name": "DefaultPoolAddressChanged",
      "type": "event"
    },
    {
      "anonymous": false,
      "inputs": [
        {
          "indexed": false,
          "internalType": "address",
          "name": "_gasPoolAddress",
          "type": "address"
        }
      ],
      "name": "GasPoolAddressChanged",
      "type": "event"
    },
    {
      "anonymous": false,
      "inputs": [
        {
          "indexed": false,
          "internalType": "address",
          "name": "_lqtyStakingAddress",
          "type": "address"
        }
      ],
      "name": "LQTYStakingAddressChanged",
      "type": "event"
    },
    {
      "anonymous": false,
      "inputs": [
        {
          "indexed": false,
          "internalType": "address",
          "name": "_lqtyTokenAddress",
          "type": "address"
        }
      ],
      "name": "LQTYTokenAddressChanged",
      "type": "event"
    },
    {
      "anonymous": false,
      "inputs": [
        {
          "indexed": false,
          "internalType": "uint256",
          "name": "_L_ETH",
          "type": "uint256"
        },
        {
          "indexed": false,
          "internalType": "uint256",
          "name": "_L_LUSDDebt",
          "type": "uint256"
        }
      ],
      "name": "LTermsUpdated",
      "type": "event"
    },
    {
      "anonymous": false,
      "inputs": [
        {
          "indexed": false,
          "internalType": "address",
          "name": "_newLUSDTokenAddress",
          "type": "address"
        }
      ],
      "name": "LUSDTokenAddressChanged",
      "type": "event"
    },
    {
      "anonymous": false,
      "inputs": [
        {
          "indexed": false,
          "internalType": "uint256",
          "name": "_lastFeeOpTime",
          "type": "uint256"
        }
      ],
      "name": "LastFeeOpTimeUpdated",
      "type": "event"
    },
    {
      "anonymous": false,
      "inputs": [
        {
          "indexed": false,
          "internalType": "uint256",
          "name": "_liquidatedDebt",
          "type": "uint256"
        },
        {
          "indexed": false,
          "internalType": "uint256",
          "name": "_liquidatedColl",
          "type": "uint256"
        },
        {
          "indexed": false,
          "internalType": "uint256",
          "name": "_collGasCompensation",
          "type": "uint256"
        },
        {
          "indexed": false,
          "internalType": "uint256",
          "name": "_LUSDGasCompensation",
          "type": "uint256"
        }
      ],
      "name": "Liquidation",
      "type": "event"
    },
    {
      "anonymous": false,
      "inputs": [
        {
          "indexed": true,
          "internalType": "address",
          "name": "previousOwner",
          "type": "address"
        },
        {
          "indexed": true,
          "internalType": "address",
          "name": "newOwner",
          "type": "address"
        }
      ],
      "name": "OwnershipTransferred",
      "type": "event"
    },
    {
      "anonymous": false,
      "inputs": [
        {
          "indexed": false,
          "internalType": "address",
          "name": "_newPriceFeedAddress",
          "type": "address"
        }
      ],
      "name": "PriceFeedAddressChanged",
      "type": "event"
    },
    {
      "anonymous": false,
      "inputs": [
        {
          "indexed": false,
          "internalType": "uint256",
          "name": "_attemptedLUSDAmount",
          "type": "uint256"
        },
        {
          "indexed": false,
          "internalType": "uint256",
          "name": "_actualLUSDAmount",
          "type": "uint256"
        },
        {
          "indexed": false,
          "internalType": "uint256",
          "name": "_ETHSent",
          "type": "uint256"
        },
        {
          "indexed": false,
          "internalType": "uint256",
          "name": "_ETHFee",
          "type": "uint256"
        }
      ],
      "name": "Redemption",
      "type": "event"
    },
    {
      "anonymous": false,
      "inputs": [
        {
          "indexed": false,
          "internalType": "address",
          "name": "_sortedTrovesAddress",
          "type": "address"
        }
      ],
      "name": "SortedTrovesAddressChanged",
      "type": "event"
    },
    {
      "anonymous": false,
      "inputs": [
        {
          "indexed": false,
          "internalType": "address",
          "name": "_stabilityPoolAddress",
          "type": "address"
        }
      ],
      "name": "StabilityPoolAddressChanged",
      "type": "event"
    },
    {
      "anonymous": false,
      "inputs": [
        {
          "indexed": false,
          "internalType": "uint256",
          "name": "_totalStakesSnapshot",
          "type": "uint256"
        },
        {
          "indexed": false,
          "internalType": "uint256",
          "name": "_totalCollateralSnapshot",
          "type": "uint256"
        }
      ],
      "name": "SystemSnapshotsUpdated",
      "type": "event"
    },
    {
      "anonymous": false,
      "inputs": [
        {
          "indexed": false,
          "internalType": "uint256",
          "name": "_newTotalStakes",
          "type": "uint256"
        }
      ],
      "name": "TotalStakesUpdated",
      "type": "event"
    },
    {
      "anonymous": false,
      "inputs": [
        {
          "indexed": false,
          "internalType": "address",
          "name": "_borrower",
          "type": "address"
        },
        {
          "indexed": false,
          "internalType": "uint256",
          "name": "_newIndex",
          "type": "uint256"
        }
      ],
      "name": "TroveIndexUpdated",
      "type": "event"
    },
    {
      "anonymous": false,
      "inputs": [
        {
          "indexed": true,
          "internalType": "address",
          "name": "_borrower",
          "type": "address"
        },
        {
          "indexed": false,
          "internalType": "uint256",
          "name": "_debt",
          "type": "uint256"
        },
        {
          "indexed": false,
          "internalType": "uint256",
          "name": "_coll",
          "type": "uint256"
        },
        {
          "indexed": false,
          "internalType": "enum TroveManager.TroveManagerOperation",
          "name": "_operation",
          "type": "uint8"
        }
      ],
      "name": "TroveLiquidated",
      "type": "event"
    },
    {
      "anonymous": false,
      "inputs": [
        {
          "indexed": false,
          "internalType": "uint256",
          "name": "_L_ETH",
          "type": "uint256"
        },
        {
          "indexed": false,
          "internalType": "uint256",
          "name": "_L_LUSDDebt",
          "type": "uint256"
        }
      ],
      "name": "TroveSnapshotsUpdated",
      "type": "event"
    },
    {
      "anonymous": false,
      "inputs": [
        {
          "indexed": true,
          "internalType": "address",
          "name": "_borrower",
          "type": "address"
        },
        {
          "indexed": false,
          "internalType": "uint256",
          "name": "_debt",
          "type": "uint256"
        },
        {
          "indexed": false,
          "internalType": "uint256",
          "name": "_coll",
          "type": "uint256"
        },
        {
          "indexed": false,
          "internalType": "uint256",
          "name": "_stake",
          "type": "uint256"
        },
        {
          "indexed": false,
          "internalType": "enum TroveManager.TroveManagerOperation",
          "name": "_operation",
          "type": "uint8"
        }
      ],
      "name": "TroveUpdated",
      "type": "event"
    },
    {
      "inputs": [],
      "name": "BETA",
      "outputs": [
        {
          "internalType": "uint256",
          "name": "",
          "type": "uint256"
        }
      ],
      "stateMutability": "view",
      "type": "function"
    },
    {
      "inputs": [],
      "name": "BOOTSTRAP_PERIOD",
      "outputs": [
        {
          "internalType": "uint256",
          "name": "",
          "type": "uint256"
        }
      ],
      "stateMutability": "view",
      "type": "function"
    },
    {
      "inputs": [],
      "name": "BORROWING_FEE_FLOOR",
      "outputs": [
        {
          "internalType": "uint256",
          "name": "",
          "type": "uint256"
        }
      ],
      "stateMutability": "view",
      "type": "function"
    },
    {
      "inputs": [],
      "name": "CCR",
      "outputs": [
        {
          "internalType": "uint256",
          "name": "",
          "type": "uint256"
        }
      ],
      "stateMutability": "view",
      "type": "function"
    },
    {
      "inputs": [],
      "name": "DECIMAL_PRECISION",
      "outputs": [
        {
          "internalType": "uint256",
          "name": "",
          "type": "uint256"
        }
      ],
      "stateMutability": "view",
      "type": "function"
    },
    {
      "inputs": [],
      "name": "LUSD_GAS_COMPENSATION",
      "outputs": [
        {
          "internalType": "uint256",
          "name": "",
          "type": "uint256"
        }
      ],
      "stateMutability": "view",
      "type": "function"
    },
    {
      "inputs": [],
      "name": "L_ETH",
      "outputs": [
        {
          "internalType": "uint256",
          "name": "",
          "type": "uint256"
        }
      ],
      "stateMutability": "view",
      "type": "function"
    },
    {
      "inputs": [],
      "name": "L_LUSDDebt",
      "outputs": [
        {
          "internalType": "uint256",
          "name": "",
          "type": "uint256"
        }
      ],
      "stateMutability": "view",
      "type": "function"
    },
    {
      "inputs": [],
      "name": "MAX_BORROWING_FEE",
      "outputs": [
        {
          "internalType": "uint256",
          "name": "",
          "type": "uint256"
        }
      ],
      "stateMutability": "view",
      "type": "function"
    },
    {
      "inputs": [],
      "name": "MCR",
      "outputs": [
        {
          "internalType": "uint256",
          "name": "",
          "type": "uint256"
        }
      ],
      "stateMutability": "view",
      "type": "function"
    },
    {
      "inputs": [],
      "name": "MINUTE_DECAY_FACTOR",
      "outputs": [
        {
          "internalType": "uint256",
          "name": "",
          "type": "uint256"
        }
      ],
      "stateMutability": "view",
      "type": "function"
    },
    {
      "inputs": [],
      "name": "MIN_NET_DEBT",
      "outputs": [
        {
          "internalType": "uint256",
          "name": "",
          "type": "uint256"
        }
      ],
      "stateMutability": "view",
      "type": "function"
    },
    {
      "inputs": [],
      "name": "NAME",
      "outputs": [
        {
          "internalType": "string",
          "name": "",
          "type": "string"
        }
      ],
      "stateMutability": "view",
      "type": "function"
    },
    {
      "inputs": [],
      "name": "PERCENT_DIVISOR",
      "outputs": [
        {
          "internalType": "uint256",
          "name": "",
          "type": "uint256"
        }
      ],
      "stateMutability": "view",
      "type": "function"
    },
    {
      "inputs": [],
      "name": "REDEMPTION_FEE_FLOOR",
      "outputs": [
        {
          "internalType": "uint256",
          "name": "",
          "type": "uint256"
        }
      ],
      "stateMutability": "view",
      "type": "function"
    },
    {
      "inputs": [],
      "name": "SECONDS_IN_ONE_MINUTE",
      "outputs": [
        {
          "internalType": "uint256",
          "name": "",
          "type": "uint256"
        }
      ],
      "stateMutability": "view",
      "type": "function"
    },
    {
      "inputs": [
        {
          "internalType": "uint256",
          "name": "",
          "type": "uint256"
        }
      ],
      "name": "TroveOwners",
      "outputs": [
        {
          "internalType": "address",
          "name": "",
          "type": "address"
        }
      ],
      "stateMutability": "view",
      "type": "function"
    },
    {
      "inputs": [
        {
          "internalType": "address",
          "name": "",
          "type": "address"
        }
      ],
      "name": "Troves",
      "outputs": [
        {
          "internalType": "uint256",
          "name": "debt",
          "type": "uint256"
        },
        {
          "internalType": "uint256",
          "name": "coll",
          "type": "uint256"
        },
        {
          "internalType": "uint256",
          "name": "stake",
          "type": "uint256"
        },
        {
          "internalType": "enum TroveManager.Status",
          "name": "status",
          "type": "uint8"
        },
        {
          "internalType": "uint128",
          "name": "arrayIndex",
          "type": "uint128"
        }
      ],
      "stateMutability": "view",
      "type": "function"
    },
    {
      "inputs": [],
      "name": "_100pct",
      "outputs": [
        {
          "internalType": "uint256",
          "name": "",
          "type": "uint256"
        }
      ],
      "stateMutability": "view",
      "type": "function"
    },
    {
      "inputs": [],
      "name": "activePool",
      "outputs": [
        {
          "internalType": "contract IActivePool",
          "name": "",
          "type": "address"
        }
      ],
      "stateMutability": "view",
      "type": "function"
    },
    {
      "inputs": [
        {
          "internalType": "address",
          "name": "_borrower",
          "type": "address"
        }
      ],
      "name": "addTroveOwnerToArray",
      "outputs": [
        {
          "internalType": "uint256",
          "name": "index",
          "type": "uint256"
        }
      ],
      "stateMutability": "nonpayable",
      "type": "function"
    },
    {
      "inputs": [
        {
          "internalType": "address",
          "name": "_borrower",
          "type": "address"
        }
      ],
      "name": "applyPendingRewards",
      "outputs": [],
      "stateMutability": "nonpayable",
      "type": "function"
    },
    {
      "inputs": [],
      "name": "baseRate",
      "outputs": [
        {
          "internalType": "uint256",
          "name": "",
          "type": "uint256"
        }
      ],
      "stateMutability": "view",
      "type": "function"
    },
    {
      "inputs": [
        {
          "internalType": "address[]",
          "name": "_troveArray",
          "type": "address[]"
        }
      ],
      "name": "batchLiquidateTroves",
      "outputs": [],
      "stateMutability": "nonpayable",
      "type": "function"
    },
    {
      "inputs": [],
      "name": "borrowerOperationsAddress",
      "outputs": [
        {
          "internalType": "address",
          "name": "",
          "type": "address"
        }
      ],
      "stateMutability": "view",
      "type": "function"
    },
    {
      "inputs": [
        {
          "internalType": "uint256",
          "name": "_ETHDrawn",
          "type": "uint256"
        }
      ],
      "name": "callGetRedemptionFee",
      "outputs": [
        {
          "internalType": "uint256",
          "name": "",
          "type": "uint256"
        }
      ],
      "stateMutability": "view",
      "type": "function"
    },
    {
      "inputs": [
        {
          "internalType": "address",
          "name": "_troveOwner",
          "type": "address"
        }
      ],
      "name": "callInternalRemoveTroveOwner",
      "outputs": [],
      "stateMutability": "nonpayable",
      "type": "function"
    },
    {
      "inputs": [
        {
          "internalType": "uint256",
          "name": "_price",
          "type": "uint256"
        }
      ],
      "name": "checkRecoveryMode",
      "outputs": [
        {
          "internalType": "bool",
          "name": "",
          "type": "bool"
        }
      ],
      "stateMutability": "view",
      "type": "function"
    },
    {
      "inputs": [
        {
          "internalType": "address",
          "name": "_borrower",
          "type": "address"
        }
      ],
      "name": "closeTrove",
      "outputs": [],
      "stateMutability": "nonpayable",
      "type": "function"
    },
    {
      "inputs": [
        {
          "internalType": "uint256",
          "name": "_coll",
          "type": "uint256"
        },
        {
          "internalType": "uint256",
          "name": "_debt",
          "type": "uint256"
        },
        {
          "internalType": "uint256",
          "name": "_price",
          "type": "uint256"
        }
      ],
      "name": "computeICR",
      "outputs": [
        {
          "internalType": "uint256",
          "name": "",
          "type": "uint256"
        }
      ],
      "stateMutability": "pure",
      "type": "function"
    },
    {
      "inputs": [],
      "name": "decayBaseRateFromBorrowing",
      "outputs": [],
      "stateMutability": "nonpayable",
      "type": "function"
    },
    {
      "inputs": [
        {
          "internalType": "address",
          "name": "_borrower",
          "type": "address"
        },
        {
          "internalType": "uint256",
          "name": "_collDecrease",
          "type": "uint256"
        }
      ],
      "name": "decreaseTroveColl",
      "outputs": [
        {
          "internalType": "uint256",
          "name": "",
          "type": "uint256"
        }
      ],
      "stateMutability": "nonpayable",
      "type": "function"
    },
    {
      "inputs": [
        {
          "internalType": "address",
          "name": "_borrower",
          "type": "address"
        },
        {
          "internalType": "uint256",
          "name": "_debtDecrease",
          "type": "uint256"
        }
      ],
      "name": "decreaseTroveDebt",
      "outputs": [
        {
          "internalType": "uint256",
          "name": "",
          "type": "uint256"
        }
      ],
      "stateMutability": "nonpayable",
      "type": "function"
    },
    {
      "inputs": [],
      "name": "defaultPool",
      "outputs": [
        {
          "internalType": "contract IDefaultPool",
          "name": "",
          "type": "address"
        }
      ],
      "stateMutability": "view",
      "type": "function"
    },
    {
      "inputs": [
        {
          "internalType": "uint256",
          "name": "_debtVal",
          "type": "uint256"
        }
      ],
      "name": "getActualDebtFromComposite",
      "outputs": [
        {
          "internalType": "uint256",
          "name": "",
          "type": "uint256"
        }
      ],
      "stateMutability": "pure",
      "type": "function"
    },
    {
      "inputs": [
        {
          "internalType": "uint256",
          "name": "_LUSDDebt",
          "type": "uint256"
        }
      ],
      "name": "getBorrowingFee",
      "outputs": [
        {
          "internalType": "uint256",
          "name": "",
          "type": "uint256"
        }
      ],
      "stateMutability": "view",
      "type": "function"
    },
    {
      "inputs": [
        {
          "internalType": "uint256",
          "name": "_LUSDDebt",
          "type": "uint256"
        }
      ],
      "name": "getBorrowingFeeWithDecay",
      "outputs": [
        {
          "internalType": "uint256",
          "name": "",
          "type": "uint256"
        }
      ],
      "stateMutability": "view",
      "type": "function"
    },
    {
      "inputs": [],
      "name": "getBorrowingRate",
      "outputs": [
        {
          "internalType": "uint256",
          "name": "",
          "type": "uint256"
        }
      ],
      "stateMutability": "view",
      "type": "function"
    },
    {
      "inputs": [],
      "name": "getBorrowingRateWithDecay",
      "outputs": [
        {
          "internalType": "uint256",
          "name": "",
          "type": "uint256"
        }
      ],
      "stateMutability": "view",
      "type": "function"
    },
    {
      "inputs": [
        {
          "internalType": "uint256",
          "name": "_coll",
          "type": "uint256"
        }
      ],
      "name": "getCollGasCompensation",
      "outputs": [
        {
          "internalType": "uint256",
          "name": "",
          "type": "uint256"
        }
      ],
      "stateMutability": "pure",
      "type": "function"
    },
    {
      "inputs": [
        {
          "internalType": "uint256",
          "name": "_debt",
          "type": "uint256"
        }
      ],
      "name": "getCompositeDebt",
      "outputs": [
        {
          "internalType": "uint256",
          "name": "",
          "type": "uint256"
        }
      ],
      "stateMutability": "pure",
      "type": "function"
    },
    {
      "inputs": [
        {
          "internalType": "address",
          "name": "_borrower",
          "type": "address"
        },
        {
          "internalType": "uint256",
          "name": "_price",
          "type": "uint256"
        }
      ],
      "name": "getCurrentICR",
      "outputs": [
        {
          "internalType": "uint256",
          "name": "",
          "type": "uint256"
        }
      ],
      "stateMutability": "view",
      "type": "function"
    },
    {
      "inputs": [
        {
          "internalType": "address",
          "name": "_borrower",
          "type": "address"
        }
      ],
      "name": "getEntireDebtAndColl",
      "outputs": [
        {
          "internalType": "uint256",
          "name": "debt",
          "type": "uint256"
        },
        {
          "internalType": "uint256",
          "name": "coll",
          "type": "uint256"
        },
        {
          "internalType": "uint256",
          "name": "pendingLUSDDebtReward",
          "type": "uint256"
        },
        {
          "internalType": "uint256",
          "name": "pendingETHReward",
          "type": "uint256"
        }
      ],
      "stateMutability": "view",
      "type": "function"
    },
    {
      "inputs": [],
      "name": "getEntireSystemColl",
      "outputs": [
        {
          "internalType": "uint256",
          "name": "entireSystemColl",
          "type": "uint256"
        }
      ],
      "stateMutability": "view",
      "type": "function"
    },
    {
      "inputs": [],
      "name": "getEntireSystemDebt",
      "outputs": [
        {
          "internalType": "uint256",
          "name": "entireSystemDebt",
          "type": "uint256"
        }
      ],
      "stateMutability": "view",
      "type": "function"
    },
    {
      "inputs": [],
      "name": "getLUSDGasCompensation",
      "outputs": [
        {
          "internalType": "uint256",
          "name": "",
          "type": "uint256"
        }
      ],
      "stateMutability": "pure",
      "type": "function"
    },
    {
      "inputs": [
        {
          "internalType": "address",
          "name": "_borrower",
          "type": "address"
        }
      ],
      "name": "getNominalICR",
      "outputs": [
        {
          "internalType": "uint256",
          "name": "",
          "type": "uint256"
        }
      ],
      "stateMutability": "view",
      "type": "function"
    },
    {
      "inputs": [
        {
          "internalType": "address",
          "name": "_borrower",
          "type": "address"
        }
      ],
      "name": "getPendingETHReward",
      "outputs": [
        {
          "internalType": "uint256",
          "name": "",
          "type": "uint256"
        }
      ],
      "stateMutability": "view",
      "type": "function"
    },
    {
      "inputs": [
        {
          "internalType": "address",
          "name": "_borrower",
          "type": "address"
        }
      ],
      "name": "getPendingLUSDDebtReward",
      "outputs": [
        {
          "internalType": "uint256",
          "name": "",
          "type": "uint256"
        }
      ],
      "stateMutability": "view",
      "type": "function"
    },
    {
      "inputs": [
        {
          "internalType": "uint256",
          "name": "_ETHDrawn",
          "type": "uint256"
        }
      ],
      "name": "getRedemptionFeeWithDecay",
      "outputs": [
        {
          "internalType": "uint256",
          "name": "",
          "type": "uint256"
        }
      ],
      "stateMutability": "view",
      "type": "function"
    },
    {
      "inputs": [],
      "name": "getRedemptionRate",
      "outputs": [
        {
          "internalType": "uint256",
          "name": "",
          "type": "uint256"
        }
      ],
      "stateMutability": "view",
      "type": "function"
    },
    {
      "inputs": [],
      "name": "getRedemptionRateWithDecay",
      "outputs": [
        {
          "internalType": "uint256",
          "name": "",
          "type": "uint256"
        }
      ],
      "stateMutability": "view",
      "type": "function"
    },
    {
      "inputs": [
        {
          "internalType": "uint256",
          "name": "_price",
          "type": "uint256"
        }
      ],
      "name": "getTCR",
      "outputs": [
        {
          "internalType": "uint256",
          "name": "",
          "type": "uint256"
        }
      ],
      "stateMutability": "view",
      "type": "function"
    },
    {
      "inputs": [
        {
          "internalType": "address",
          "name": "_borrower",
          "type": "address"
        }
      ],
      "name": "getTroveColl",
      "outputs": [
        {
          "internalType": "uint256",
          "name": "",
          "type": "uint256"
        }
      ],
      "stateMutability": "view",
      "type": "function"
    },
    {
      "inputs": [
        {
          "internalType": "address",
          "name": "_borrower",
          "type": "address"
        }
      ],
      "name": "getTroveDebt",
      "outputs": [
        {
          "internalType": "uint256",
          "name": "",
          "type": "uint256"
        }
      ],
      "stateMutability": "view",
      "type": "function"
    },
    {
      "inputs": [
        {
          "internalType": "uint256",
          "name": "_index",
          "type": "uint256"
        }
      ],
      "name": "getTroveFromTroveOwnersArray",
      "outputs": [
        {
          "internalType": "address",
          "name": "",
          "type": "address"
        }
      ],
      "stateMutability": "view",
      "type": "function"
    },
    {
      "inputs": [],
      "name": "getTroveOwnersCount",
      "outputs": [
        {
          "internalType": "uint256",
          "name": "",
          "type": "uint256"
        }
      ],
      "stateMutability": "view",
      "type": "function"
    },
    {
      "inputs": [
        {
          "internalType": "address",
          "name": "_borrower",
          "type": "address"
        }
      ],
      "name": "getTroveStake",
      "outputs": [
        {
          "internalType": "uint256",
          "name": "",
          "type": "uint256"
        }
      ],
      "stateMutability": "view",
      "type": "function"
    },
    {
      "inputs": [
        {
          "internalType": "address",
          "name": "_borrower",
          "type": "address"
        }
      ],
      "name": "getTroveStatus",
      "outputs": [
        {
          "internalType": "uint256",
          "name": "",
          "type": "uint256"
        }
      ],
      "stateMutability": "view",
      "type": "function"
    },
    {
      "inputs": [
        {
          "internalType": "address",
          "name": "_borrower",
          "type": "address"
        }
      ],
      "name": "hasPendingRewards",
      "outputs": [
        {
          "internalType": "bool",
          "name": "",
          "type": "bool"
        }
      ],
      "stateMutability": "view",
      "type": "function"
    },
    {
      "inputs": [
        {
          "internalType": "address",
          "name": "_borrower",
          "type": "address"
        },
        {
          "internalType": "uint256",
          "name": "_collIncrease",
          "type": "uint256"
        }
      ],
      "name": "increaseTroveColl",
      "outputs": [
        {
          "internalType": "uint256",
          "name": "",
          "type": "uint256"
        }
      ],
      "stateMutability": "nonpayable",
      "type": "function"
    },
    {
      "inputs": [
        {
          "internalType": "address",
          "name": "_borrower",
          "type": "address"
        },
        {
          "internalType": "uint256",
          "name": "_debtIncrease",
          "type": "uint256"
        }
      ],
      "name": "increaseTroveDebt",
      "outputs": [
        {
          "internalType": "uint256",
          "name": "",
          "type": "uint256"
        }
      ],
      "stateMutability": "nonpayable",
      "type": "function"
    },
    {
      "inputs": [],
      "name": "isOwner",
      "outputs": [
        {
          "internalType": "bool",
          "name": "",
          "type": "bool"
        }
      ],
      "stateMutability": "view",
      "type": "function"
    },
    {
      "inputs": [],
      "name": "lastETHError_Redistribution",
      "outputs": [
        {
          "internalType": "uint256",
          "name": "",
          "type": "uint256"
        }
      ],
      "stateMutability": "view",
      "type": "function"
    },
    {
      "inputs": [],
      "name": "lastFeeOperationTime",
      "outputs": [
        {
          "internalType": "uint256",
          "name": "",
          "type": "uint256"
        }
      ],
      "stateMutability": "view",
      "type": "function"
    },
    {
      "inputs": [],
      "name": "lastLUSDDebtError_Redistribution",
      "outputs": [
        {
          "internalType": "uint256",
          "name": "",
          "type": "uint256"
        }
      ],
      "stateMutability": "view",
      "type": "function"
    },
    {
      "inputs": [
        {
          "internalType": "address",
          "name": "_borrower",
          "type": "address"
        }
      ],
      "name": "liquidate",
      "outputs": [],
      "stateMutability": "nonpayable",
      "type": "function"
    },
    {
      "inputs": [
        {
          "internalType": "uint256",
          "name": "_n",
          "type": "uint256"
        }
      ],
      "name": "liquidateTroves",
      "outputs": [],
      "stateMutability": "nonpayable",
      "type": "function"
    },
    {
      "inputs": [],
      "name": "lqtyStaking",
      "outputs": [
        {
          "internalType": "contract ILQTYStaking",
          "name": "",
          "type": "address"
        }
      ],
      "stateMutability": "view",
      "type": "function"
    },
    {
      "inputs": [],
      "name": "lqtyToken",
      "outputs": [
        {
          "internalType": "contract ILQTYToken",
          "name": "",
          "type": "address"
        }
      ],
      "stateMutability": "view",
      "type": "function"
    },
    {
      "inputs": [],
      "name": "lusdToken",
      "outputs": [
        {
          "internalType": "contract ILUSDToken",
          "name": "",
          "type": "address"
        }
      ],
      "stateMutability": "view",
      "type": "function"
    },
    {
      "inputs": [],
      "name": "minutesPassedSinceLastFeeOp",
      "outputs": [
        {
          "internalType": "uint256",
          "name": "",
          "type": "uint256"
        }
      ],
      "stateMutability": "view",
      "type": "function"
    },
    {
      "inputs": [],
      "name": "owner",
      "outputs": [
        {
          "internalType": "address",
          "name": "",
          "type": "address"
        }
      ],
      "stateMutability": "view",
      "type": "function"
    },
    {
      "inputs": [],
      "name": "priceFeed",
      "outputs": [
        {
          "internalType": "contract IPriceFeed",
          "name": "",
          "type": "address"
        }
      ],
      "stateMutability": "view",
      "type": "function"
    },
    {
      "inputs": [
        {
          "internalType": "uint256",
          "name": "_LUSDamount",
          "type": "uint256"
        },
        {
          "internalType": "address",
          "name": "_firstRedemptionHint",
          "type": "address"
        },
        {
          "internalType": "address",
          "name": "_upperPartialRedemptionHint",
          "type": "address"
        },
        {
          "internalType": "address",
          "name": "_lowerPartialRedemptionHint",
          "type": "address"
        },
        {
          "internalType": "uint256",
          "name": "_partialRedemptionHintNICR",
          "type": "uint256"
        },
        {
          "internalType": "uint256",
          "name": "_maxIterations",
          "type": "uint256"
        },
        {
          "internalType": "uint256",
          "name": "_maxFeePercentage",
          "type": "uint256"
        }
      ],
      "name": "redeemCollateral",
      "outputs": [],
      "stateMutability": "nonpayable",
      "type": "function"
    },
    {
      "inputs": [
        {
          "internalType": "address",
          "name": "_borrower",
          "type": "address"
        }
      ],
      "name": "removeStake",
      "outputs": [],
      "stateMutability": "nonpayable",
      "type": "function"
    },
    {
      "inputs": [
        {
          "internalType": "address",
          "name": "",
          "type": "address"
        }
      ],
      "name": "rewardSnapshots",
      "outputs": [
        {
          "internalType": "uint256",
          "name": "ETH",
          "type": "uint256"
        },
        {
          "internalType": "uint256",
          "name": "LUSDDebt",
          "type": "uint256"
        }
      ],
      "stateMutability": "view",
      "type": "function"
    },
    {
      "inputs": [
        {
          "internalType": "address",
          "name": "_borrowerOperationsAddress",
          "type": "address"
        },
        {
          "internalType": "address",
          "name": "_activePoolAddress",
          "type": "address"
        },
        {
          "internalType": "address",
          "name": "_defaultPoolAddress",
          "type": "address"
        },
        {
          "internalType": "address",
          "name": "_stabilityPoolAddress",
          "type": "address"
        },
        {
          "internalType": "address",
          "name": "_gasPoolAddress",
          "type": "address"
        },
        {
          "internalType": "address",
          "name": "_collSurplusPoolAddress",
          "type": "address"
        },
        {
          "internalType": "address",
          "name": "_priceFeedAddress",
          "type": "address"
        },
        {
          "internalType": "address",
          "name": "_lusdTokenAddress",
          "type": "address"
        },
        {
          "internalType": "address",
          "name": "_sortedTrovesAddress",
          "type": "address"
        },
        {
          "internalType": "address",
          "name": "_lqtyTokenAddress",
          "type": "address"
        },
        {
          "internalType": "address",
          "name": "_lqtyStakingAddress",
          "type": "address"
        }
      ],
      "name": "setAddresses",
      "outputs": [],
      "stateMutability": "nonpayable",
      "type": "function"
    },
    {
      "inputs": [
        {
          "internalType": "uint256",
          "name": "_baseRate",
          "type": "uint256"
        }
      ],
      "name": "setBaseRate",
      "outputs": [],
      "stateMutability": "nonpayable",
      "type": "function"
    },
    {
      "inputs": [],
      "name": "setLastFeeOpTimeToNow",
      "outputs": [],
      "stateMutability": "nonpayable",
      "type": "function"
    },
    {
      "inputs": [
        {
          "internalType": "address",
          "name": "_borrower",
          "type": "address"
        },
        {
          "internalType": "uint256",
          "name": "_num",
          "type": "uint256"
        }
      ],
      "name": "setTroveStatus",
      "outputs": [],
      "stateMutability": "nonpayable",
      "type": "function"
    },
    {
      "inputs": [],
      "name": "sortedTroves",
      "outputs": [
        {
          "internalType": "contract ISortedTroves",
          "name": "",
          "type": "address"
        }
      ],
      "stateMutability": "view",
      "type": "function"
    },
    {
      "inputs": [],
      "name": "stabilityPool",
      "outputs": [
        {
          "internalType": "contract IStabilityPool",
          "name": "",
          "type": "address"
        }
      ],
      "stateMutability": "view",
      "type": "function"
    },
    {
      "inputs": [],
      "name": "totalCollateralSnapshot",
      "outputs": [
        {
          "internalType": "uint256",
          "name": "",
          "type": "uint256"
        }
      ],
      "stateMutability": "view",
      "type": "function"
    },
    {
      "inputs": [],
      "name": "totalStakes",
      "outputs": [
        {
          "internalType": "uint256",
          "name": "",
          "type": "uint256"
        }
      ],
      "stateMutability": "view",
      "type": "function"
    },
    {
      "inputs": [],
      "name": "totalStakesSnapshot",
      "outputs": [
        {
          "internalType": "uint256",
          "name": "",
          "type": "uint256"
        }
      ],
      "stateMutability": "view",
      "type": "function"
    },
    {
      "inputs": [],
      "name": "unprotectedDecayBaseRateFromBorrowing",
      "outputs": [
        {
          "internalType": "uint256",
          "name": "",
          "type": "uint256"
        }
      ],
      "stateMutability": "nonpayable",
      "type": "function"
    },
    {
      "inputs": [
        {
          "internalType": "address",
          "name": "_borrower",
          "type": "address"
        }
      ],
      "name": "updateStakeAndTotalStakes",
      "outputs": [
        {
          "internalType": "uint256",
          "name": "",
          "type": "uint256"
        }
      ],
      "stateMutability": "nonpayable",
      "type": "function"
    },
    {
      "inputs": [
        {
          "internalType": "address",
          "name": "_borrower",
          "type": "address"
        }
      ],
      "name": "updateTroveRewardSnapshots",
      "outputs": [],
      "stateMutability": "nonpayable",
      "type": "function"
    }
  ],
  "bytecode": "0x608060405234801561001057600080fd5b50600380546001600160a01b031916339081179091556040516000907f8be0079c531659141344cd1fd0a4f28419497f9722a3daafe3b4186f6b6457e0908290a3615cd080620000616000396000f3fe608060405234801561001057600080fd5b50600436106104e35760003560e01c8063795d26c31161028e578063b91af97c11610167578063d5b35635116100d9578063e2ac77b011610092578063e2ac77b014610de3578063f34862de14610e09578063f36b242514610e2f578063f92d343314610723578063fe2ba84814610e37578063febb33de14610e5d576104e3565b8063d5b3563514610d4d578063d66a255314610d6a578063d9a7244414610d90578063da303f1414610dad578063dba1c5f214610db5578063dc62a70214610dbd576104e3565b8063c7b554811161012b578063c7b5548114610cb7578063cbd138ae14610cbf578063d293c71014610ce5578063d380a37c14610d11578063d3d6f84314610d19578063d5205e4814610d45576104e3565b8063b91af97c14610c05578063bcd3752614610c51578063bf9befb114610c9f578063c35bc55014610ca7578063c52861f214610caf576104e3565b80639976cf4511610200578063a537896f116101c4578063a537896f14610b8d578063ae91875414610baa578063b0d8e18114610bb2578063b7f8cf9b14610bd8578063b82f263d14610be0578063b83f91a214610bfd576104e3565b80639976cf4514610ad45780639dd233d214610b00578063a20baee614610994578063a3a6401714610b08578063a3f4df7e14610b10576104e3565b8063814a0a4511610252578063814a0a4514610a6557806382fe3eb914610a8e578063887105d314610ab45780638da5cb5b14610abc5780638f32d59b14610ac457806396d711ff14610acc576104e3565b8063795d26c3146109c9578063797250e3146109d15780637985c5e4146109d95780637f7dde4a14610a55578063807d138d14610a5d576104e3565b8063477d66cf116103c057806361ec893d116103325780636ef64338116102f65780636ef64338146108f957806372423c171461096857806372fe25aa14610994578063741bef1a1461099c578063756b253e146109a4578063794e5724146109c1576104e3565b806361ec893d14610889578063631203b01461089157806364cee260146108ae578063653d46e7146108d457806366ca4a21146108f1576104e3565b80634ff81443116103845780634ff81443146107ed57806354062a451461080a5780635733d58f146108275780635d6b480f1461082f5780635d8c96091461085b5780635dba4c4a14610881576104e3565b8063477d66cf14610769578063480cd578146107865780634870dd9a146107ac57806349eefeee146107b45780634e443d9e146107bc576104e3565b80631d08837b11610459578063240926691161041d578063240926691461071b57806328d28b5b146107235780632b11551a1461072b5780632e86bbd8146107335780632f8655681461073b5780633cc7422514610761576104e3565b80631d08837b146106255780631e8b1c2b146106425780631f68f20a146106e55780631f7af3c3146106ed57806321e37801146106f5576104e3565b8063105bb15c116104ab578063105bb15c1461055e57806312610e921461056657806315d549f1146105925780631673c79a146105b857806318f2817a146105f75780631bf435551461061d576104e3565b8063043782fb146104e8578063048c661d146104f2578063060d49a314610516578063071a7541146105305780630b07655714610538575b600080fd5b6104f0610e7a565b005b6104fa610e80565b604080516001600160a01b039092168252519081900360200190f35b61051e610e8f565b60408051918252519081900360200190f35b61051e610e95565b6104f06004803603602081101561054e57600080fd5b50356001600160a01b0316610e9a565b61051e610ec2565b61051e6004803603604081101561057c57600080fd5b506001600160a01b038135169060200135610ed1565b61051e600480360360208110156105a857600080fd5b50356001600160a01b0316610f29565b6105de600480360360208110156105ce57600080fd5b50356001600160a01b0316610f4d565b6040805192835260208301919091528051918290030190f35b61051e6004803603602081101561060d57600080fd5b50356001600160a01b0316610f66565b61051e610f79565b6104f06004803603602081101561063b57600080fd5b5035610f86565b6104f06004803603602081101561065857600080fd5b81019060208101813564010000000081111561067357600080fd5b82018360208201111561068557600080fd5b803590602001918460208302840111640100000000831117156106a757600080fd5b919080806020026020016040519081016040528093929190818152602001838360200280828437600092019190915250929550610f8b945050505050565b61051e61132d565b6104fa611333565b61051e6004803603602081101561070b57600080fd5b50356001600160a01b0316611342565b61051e61136c565b61051e61137f565b61051e611390565b61051e61139d565b6104f06004803603602081101561075157600080fd5b50356001600160a01b03166113aa565b6104fa611410565b61051e6004803603602081101561077f57600080fd5b503561141f565b61051e6004803603602081101561079c57600080fd5b50356001600160a01b0316611432565b61051e611450565b61051e611455565b6107d9600480360360208110156107d257600080fd5b503561145b565b604080519115158252519081900360200190f35b61051e6004803603602081101561080357600080fd5b5035611466565b61051e6004803603602081101561082057600080fd5b5035611471565b61051e61147c565b6104f06004803603604081101561084557600080fd5b506001600160a01b038135169060200135611488565b61051e6004803603602081101561087157600080fd5b50356001600160a01b03166114d4565b6104f061159a565b61051e611600565b61051e600480360360208110156108a757600080fd5b5035611605565b61051e600480360360208110156108c457600080fd5b50356001600160a01b0316611612565b6104f0600480360360208110156108ea57600080fd5b5035611630565b61051e6119de565b61091f6004803603602081101561090f57600080fd5b50356001600160a01b03166119f0565b6040518086815260200185815260200184815260200183600481111561094157fe5b60ff1681526001600160801b03909216602083015250604080519182900301945092505050f35b61051e6004803603604081101561097e57600080fd5b506001600160a01b038135169060200135611a2a565b61051e611a87565b6104fa611a93565b6104fa600480360360208110156109ba57600080fd5b5035611aa2565b61051e611ac9565b61051e611ad5565b61051e611bd6565b6104f060048036036101608110156109f057600080fd5b506001600160a01b038135811691602081013582169160408201358116916060810135821691608082013581169160a081013582169160c082013581169160e08101358216916101008201358116916101208101358216916101409091013516611bdc565b6104fa611fd5565b61051e611fe4565b61051e60048036036060811015610a7b57600080fd5b5080359060208101359060400135611fea565b6104f060048036036020811015610aa457600080fd5b50356001600160a01b0316612001565b61051e612012565b6104fa6120ce565b6107d96120dd565b61051e6120ee565b61051e60048036036040811015610aea57600080fd5b506001600160a01b0381351690602001356120f4565b61051e612127565b6104fa61212d565b610b1861213c565b6040805160208082528351818301528351919283929083019185019080838360005b83811015610b52578181015183820152602001610b3a565b50505050905090810190601f168015610b7f5780820380516001836020036101000a031916815260200191505b509250505060405180910390f35b61051e60048036036020811015610ba357600080fd5b5035612164565b6104fa61216f565b61051e60048036036020811015610bc857600080fd5b50356001600160a01b031661217e565b6104fa6121a5565b61051e60048036036020811015610bf657600080fd5b50356121b4565b6104fa6121bf565b610c2b60048036036020811015610c1b57600080fd5b50356001600160a01b03166121ce565b604080519485526020850193909352838301919091526060830152519081900360800190f35b6104f0600480360360e0811015610c6757600080fd5b508035906001600160a01b03602082013581169160408101358216916060820135169060808101359060a08101359060c00135612232565b61051e6129d4565b61051e6129da565b61051e6129e1565b61051e6129f3565b6104f060048036036020811015610cd557600080fd5b50356001600160a01b03166129ff565b61051e60048036036040811015610cfb57600080fd5b506001600160a01b038135169060200135612a12565b61051e612a31565b61051e60048036036040811015610d2f57600080fd5b506001600160a01b038135169060200135612a37565b61051e612a6d565b61051e60048036036020811015610d6357600080fd5b5035612a7a565b61051e60048036036020811015610d8057600080fd5b50356001600160a01b0316612a8d565b6104fa60048036036020811015610da657600080fd5b5035612aa8565b61051e612ad2565b61051e612b02565b6104f060048036036020811015610dd357600080fd5b50356001600160a01b0316612b08565b6107d960048036036020811015610df957600080fd5b50356001600160a01b0316612b15565b61051e60048036036020811015610e1f57600080fd5b50356001600160a01b0316612b73565b61051e612ba4565b6104f060048036036020811015610e4d57600080fd5b50356001600160a01b0316612bb1565b61051e60048036036020811015610e7357600080fd5b5035612bc2565b42600d55565b6005546001600160a01b031681565b60175481565b600281565b610ea2612bd3565b600054600154610ebf916001600160a01b03908116911683612c1e565b50565b6000610ecc612d40565b905090565b6000610edb612bd3565b6001600160a01b0383166000908152600e6020526040812054610f04908463ffffffff612d5c16565b6001600160a01b0385166000908152600e602052604090208190559150505b92915050565b6000610f33612bd3565b610f3c82612d9e565b6001600160801b031690505b919050565b6014602052600090815260409020805460019091015482565b6000610f70612bd3565b610f2382612e38565b686194049f30f720000081565b600c55565b8051610fc85760405162461bcd60e51b8152600401808060200182810382526036815260200180615b566036913960400191505060405180910390fd5b6000546001546005546001600160a01b03928316929182169116610fea61584e565b610ff261587f565b600260009054906101000a90046001600160a01b03166001600160a01b0316630fdb11cf6040518163ffffffff1660e01b8152600401602060405180830381600087803b15801561104257600080fd5b505af1158015611056573d6000803e3d6000fd5b505050506040513d602081101561106c57600080fd5b50518252604080516326fcbc6b60e21b815290516001600160a01b03851691639bf2f1ac916004808301926020929190829003018186803b1580156110b057600080fd5b505afa1580156110c4573d6000803e3d6000fd5b505050506040513d60208110156110da57600080fd5b5051602083015281516110ec90612ee7565b15801560408401526111145761110d8585846000015185602001518a612f04565b905061112c565b6111298585846000015185602001518a61311f565b90505b600081602001511161116f5760405162461bcd60e51b8152600401808060200182810382526022815260200180615c4a6022913960400191505060405180910390fd5b826001600160a01b031663335525ad82608001518360a001516040518363ffffffff1660e01b81526004018083815260200182815260200192505050600060405180830381600087803b1580156111c557600080fd5b505af11580156111d9573d6000803e3d6000fd5b505050506111f185858360c001518460e001516131e7565b6101008101511561127057600754610100820151604080516364a197f360e01b81526001600160a01b039384166004820152602481019290925251918716916364a197f39160448082019260009290919082900301818387803b15801561125757600080fd5b505af115801561126b573d6000803e3d6000fd5b505050505b61127e858260400151613468565b60208101516060830152610100810151604082015182516112b692916112aa919063ffffffff612d5c16565b9063ffffffff612d5c16565b608080840182905260608085015160408086015186840151825193845260208401969096528282015291810193909352517f4152c73dd2614c4f9fc35e8c9cf16013cd588c75b49a4c1673ecffdcbcda94039281900390910190a16113258533836060015184604001516135af565b505050505050565b600c5481565b6009546001600160a01b031681565b6001600160a01b0381166000908152600e602052604081206003015460ff166004811115610f2357fe5b6064670de0b6b3a76400005b0460050281565b6103e8670de0b6b3a7640000611378565b6000610ecc600c546136b2565b680ad78ebc5ac620000081565b6113b3816136e8565b6040805160018082528183019092526060916020808301908036833701905050905081816000815181106113e357fe5b60200260200101906001600160a01b031690816001600160a01b03168152505061140c81610f8b565b5050565b6001546001600160a01b031681565b6000610f2361142c6119de565b83613750565b6001600160a01b03166000908152600e602052604090206001015490565b60c881565b60155490565b6000610f2382612ee7565b6000610f238261376e565b6000610f2382613789565b6714d1120d7b16000081565b611490612bd3565b80600481111561149c57fe5b6001600160a01b0383166000908152600e60205260409020600301805460ff191660018360048111156114cb57fe5b02179055505050565b6001600160a01b0381166000908152601460205260408120546012548290611502908363ffffffff612d5c16565b905080158061153b575060016001600160a01b0385166000908152600e602052604090206003015460ff16600481111561153857fe5b14155b1561154b57600092505050610f48565b6001600160a01b0384166000908152600e602052604081206002015490611590670de0b6b3a7640000611584848663ffffffff6137a416565b9063ffffffff6137fd16565b9695505050505050565b6115a2612bd3565b60006115ac61383f565b9050670de0b6b3a76400008111156115c057fe5b600c8190556040805182815290517fc454ee9b76c52f782a256af821b857ca6e125d1e3333bcede402fec2bed9600c9181900360200190a1610ebf613883565b603c81565b6000610f2361142c612ba4565b6001600160a01b03166000908152600e602052604090206002015490565b6116386158cb565b506040805160e081018252600080546001600160a01b0390811683526001548116602084015292820181905260608201819052600b548316608083015260a0820181905260c082015260055490911661168f61584e565b61169761587f565b600260009054906101000a90046001600160a01b03166001600160a01b0316630fdb11cf6040518163ffffffff1660e01b8152600401602060405180830381600087803b1580156116e757600080fd5b505af11580156116fb573d6000803e3d6000fd5b505050506040513d602081101561171157600080fd5b50518252604080516326fcbc6b60e21b815290516001600160a01b03851691639bf2f1ac916004808301926020929190829003018186803b15801561175557600080fd5b505afa158015611769573d6000803e3d6000fd5b505050506040513d602081101561177f57600080fd5b50516020830152815161179190612ee7565b15801560408401526117b8576117b18483600001518460200151886138df565b90506117d8565b6117d5846000015185602001518460000151856020015189613c72565b90505b600081602001511161181b5760405162461bcd60e51b8152600401808060200182810382526022815260200180615c4a6022913960400191505060405180910390fd5b826001600160a01b031663335525ad82608001518360a001516040518363ffffffff1660e01b81526004018083815260200182815260200192505050600060405180830381600087803b15801561187157600080fd5b505af1158015611885573d6000803e3d6000fd5b505050506118a5846000015185602001518360c001518460e001516131e7565b61010081015115611926578351600754610100830151604080516364a197f360e01b81526001600160a01b03938416600482015260248101929092525191909216916364a197f391604480830192600092919082900301818387803b15801561190d57600080fd5b505af1158015611921573d6000803e3d6000fd5b505050505b61193884600001518260400151613468565b602081015160608301526101008101516040820151825161196492916112aa919063ffffffff612d5c16565b608080840182905260608085015160408086015186840151825193845260208401969096528282015291810193909352517f4152c73dd2614c4f9fc35e8c9cf16013cd588c75b49a4c1673ecffdcbcda94039281900390910190a16119d7846000015133836060015184604001516135af565b5050505050565b6000610ecc6119eb61383f565b613da4565b600e6020526000908152604090208054600182015460028301546003909301549192909160ff81169061010090046001600160801b031685565b6000611a34612bd3565b6001600160a01b0383166000908152600e6020526040812060010154611a60908463ffffffff613dcb16565b6001600160a01b0385166000908152600e6020526040902060010181905591505092915050565b670de0b6b3a764000081565b6002546001600160a01b031681565b60158181548110611aaf57fe5b6000918252602090912001546001600160a01b0316905081565b670f43fc2c04ee000081565b6000805460408051632f5a97e560e11b8152905183926001600160a01b031691635eb52fca916004808301926020929190829003018186803b158015611b1a57600080fd5b505afa158015611b2e573d6000803e3d6000fd5b505050506040513d6020811015611b4457600080fd5b505160015460408051632f5a97e560e11b815290519293506000926001600160a01b0390921691635eb52fca91600480820192602092909190829003018186803b158015611b9157600080fd5b505afa158015611ba5573d6000803e3d6000fd5b505050506040513d6020811015611bbb57600080fd5b50519050611bcf828263ffffffff613dcb16565b9250505090565b60165481565b611be46120dd565b611c35576040805162461bcd60e51b815260206004820181905260248201527f4f776e61626c653a2063616c6c6572206973206e6f7420746865206f776e6572604482015290519081900360640190fd5b611c3e8b613e25565b611c478a613e25565b611c5089613e25565b611c5988613e25565b611c6287613e25565b611c6b86613e25565b611c7485613e25565b611c7d84613e25565b611c8683613e25565b611c8f82613e25565b611c9881613e25565b600480546001600160a01b03199081166001600160a01b038e81169182179093556000805483168e85161790556001805483168d85161790556005805483168c85161790556006805483168b85161790556007805483168a8516179055600280548316898516179055600880548316888516179055600b80548316878516179055600980548316868516179055600a805490921692841692909217905560408051918252517f3ca631ffcd2a9b5d9ae18543fc82f58eb4ca33af9e6ab01b7a8e95331e6ed985916020908290030190a1604080516001600160a01b038c16815290517f78f058b189175430c48dc02699e3a0031ea4ff781536dc2fab847de4babdd8829181900360200190a1604080516001600160a01b038b16815290517f5ee0cae2f063ed938bb55046f6a932fb6ae792bf43624806bb90abe68a50be9b9181900360200190a1604080516001600160a01b038a16815290517f82966d27eea39b038ee0fa30cd16532bb24f6e65d31cb58fb227aa5766cdcc7f9181900360200190a1604080516001600160a01b038916815290517fcfb07d791fcafc032b35837b50eb84b74df518cf4cc287e8084f47630fa70fa09181900360200190a1604080516001600160a01b038816815290517fe67f36a6e961157d6eff83b91f3af5a62131ceb6f04954ef74f51c1c05e7f88d9181900360200190a1604080516001600160a01b038716815290517f8c537274438aa850a330284665d81a85dd38267d09e4050d416bfc94142db2649181900360200190a1604080516001600160a01b038616815290517f227eec0ec317af6ab1a9587ffa1c84332522eb4c583a908f89babc05f8f339bd9181900360200190a1604080516001600160a01b038516815290517f65f4cf077bc01e4742eb5ad98326f6e95b63548ea24b17f8d5e823111fe788009181900360200190a1604080516001600160a01b038416815290517f2ac6e99201ddc1b6eac6f8f28662d1ecafee131f6eb98c29de54528a9888a7d19181900360200190a1604080516001600160a01b038316815290517f756ebc192164c295bba134b5aacd72cc7aff8098a670d1f0a5f6b3a0b4ce67079181900360200190a1611fc8613ed4565b5050505050505050505050565b6000546001600160a01b031681565b60105481565b6000611ff7848484613f1e565b90505b9392505050565b612009612bd3565b610ebf81613f4e565b6000805460408051630a7b61df60e11b8152905183926001600160a01b0316916314f6c3be916004808301926020929190829003018186803b15801561205757600080fd5b505afa15801561206b573d6000803e3d6000fd5b505050506040513d602081101561208157600080fd5b505160015460408051630a7b61df60e11b815290519293506000926001600160a01b03909216916314f6c3be91600480820192602092909190829003018186803b158015611b9157600080fd5b6003546001600160a01b031690565b6003546001600160a01b0316331490565b60115481565b60006120fe612bd3565b6001600160a01b0383166000908152600e6020526040812054610f04908463ffffffff613dcb16565b60125481565b600a546001600160a01b031681565b6040518060400160405280600c81526020016b2a3937bb32a6b0b730b3b2b960a11b81525081565b6000610f2382613fb9565b600b546001600160a01b031681565b600080600061218c84613fc0565b91509150600061219c8383614046565b95945050505050565b6004546001600160a01b031681565b6000610f238261407b565b6008546001600160a01b031681565b6001600160a01b0381166000908152600e6020526040812080546001909101549091806121fa85612b73565b9150612205856114d4565b9050612217848363ffffffff613dcb16565b9350612229838263ffffffff613dcb16565b92509193509193565b61223a6158cb565b506040805160e0810182526000546001600160a01b03908116825260015481166020830152600854811692820192909252600a5482166060820152600b5482166080820152600754821660a082015260065490911660c082015261229c615907565b6122a5836140a7565b6122ad614101565b600260009054906101000a90046001600160a01b03166001600160a01b0316630fdb11cf6040518163ffffffff1660e01b8152600401602060405180830381600087803b1580156122fd57600080fd5b505af1158015612311573d6000803e3d6000fd5b505050506040513d602081101561232757600080fd5b505160c08201819052612339906141c5565b61234289614214565b6123518260400151338b614253565b612359611ad5565b60e0820181905260408084015181516370a0823160e01b815233600482015291516001600160a01b03909116916370a08231916024808301926020929190829003018186803b1580156123ab57600080fd5b505afa1580156123bf573d6000803e3d6000fd5b505050506040513d60208110156123d557600080fd5b505111156123df57fe5b888152608082015160c08201516000916123fa918b90614313565b15612406575087612530565b82608001516001600160a01b0316634d6228316040518163ffffffff1660e01b815260040160206040518083038186803b15801561244357600080fd5b505afa158015612457573d6000803e3d6000fd5b505050506040513d602081101561246d57600080fd5b505190505b6001600160a01b0381161580159061249e5750670f43fc2c04ee000061249c828460c00151612a12565b105b156125305782608001516001600160a01b031663b72703ac826040518263ffffffff1660e01b815260040180826001600160a01b03166001600160a01b0316815260200191505060206040518083038186803b1580156124fd57600080fd5b505afa158015612511573d6000803e3d6000fd5b505050506040513d602081101561252757600080fd5b50519050612472565b8461253b5760001994505b6001600160a01b038116158015906125535750815115155b801561255f5750600085115b1561269357848060019003955050600083608001516001600160a01b031663b72703ac836040518263ffffffff1660e01b815260040180826001600160a01b03166001600160a01b0316815260200191505060206040518083038186803b1580156125c957600080fd5b505afa1580156125dd573d6000803e3d6000fd5b505050506040513d60208110156125f357600080fd5b5051845160208601519192506126099184612c1e565b61261161594c565b612628858486600001518760c001518e8e8e614486565b905080604001511561263b575050612693565b805160208501516126519163ffffffff613dcb16565b60208086019190915281015160408501516126719163ffffffff613dcb16565b6040850152805184516126899163ffffffff612d5c16565b845250905061253b565b60008260400151116126d65760405162461bcd60e51b81526004018080602001828103825260298152602001806159f96029913960400191505060405180910390fd5b6126ed82604001518360c001518460e00151614739565b506126fb82604001516147e1565b6060830181905260408301516127129190866147ee565b82600001516001600160a01b03166364a197f3846060015184606001516040518363ffffffff1660e01b815260040180836001600160a01b03166001600160a01b0316815260200182815260200192505050600060405180830381600087803b15801561277e57600080fd5b505af1158015612792573d6000803e3d6000fd5b5050505082606001516001600160a01b0316631e3e2a1a83606001516040518263ffffffff1660e01b815260040180828152602001915050600060405180830381600087803b1580156127e457600080fd5b505af11580156127f8573d6000803e3d6000fd5b505050506060820151604083015161280f91612d5c565b8260800181815250507f43a3f4082a4dbc33d78e317d2497d3a730bc7fc3574159dcea1056e62e5d9ad88a8360200151846040015185606001516040518085815260200184815260200183815260200182815260200194505050505060405180910390a182604001516001600160a01b0316639dc29fac3384602001516040518363ffffffff1660e01b815260040180836001600160a01b03166001600160a01b0316815260200182815260200192505050600060405180830381600087803b1580156128db57600080fd5b505af11580156128ef573d6000803e3d6000fd5b5050505082600001516001600160a01b03166338d995a883602001516040518263ffffffff1660e01b815260040180828152602001915050600060405180830381600087803b15801561294157600080fd5b505af1158015612955573d6000803e3d6000fd5b505084516080850151604080516364a197f360e01b81523360048201526024810192909252516001600160a01b0390921693506364a197f3925060448082019260009290919082900301818387803b1580156129b057600080fd5b505af11580156129c4573d6000803e3d6000fd5b5050505050505050505050505050565b600f5481565b6212750081565b6000610ecc6129ee61383f565b6136b2565b670ddd4b8c6c7d70d881565b612a07612bd3565b610ebf816002614863565b6000806000612a2085613fc0565b915091506000611590838387613f1e565b600d5481565b6000612a41612bd3565b6001600160a01b0383166000908152600e6020526040812060010154611a60908463ffffffff612d5c16565b680ad78ebc5ac620000090565b6000610f23612a876129e1565b8361497c565b6001600160a01b03166000908152600e602052604090205490565b600060158281548110612ab757fe5b6000918252602090912001546001600160a01b031692915050565b6000612adc61383f565b600c55670de0b6b3a7640000600c541115612af357fe5b612afb613883565b50600c5490565b60135481565b60155461140c82826149db565b600060016001600160a01b0383166000908152600e602052604090206003015460ff166004811115612b4357fe5b14612b5057506000610f48565b506012546001600160a01b03821660009081526014602052604090205410919050565b6001600160a01b0381166000908152601460205260408120600101546013548290611502908363ffffffff612d5c16565b6000610ecc600c54613da4565b612bb9612bd3565b610ebf81614b82565b6000612bcd826147e1565b50919050565b6004546001600160a01b03163314612c1c5760405162461bcd60e51b815260040180806020018281038252603b815260200180615b1b603b913960400191505060405180910390fd5b565b612c2781612b15565b15612d3b57612c35816136e8565b6000612c40826114d4565b90506000612c4d83612b73565b6001600160a01b0384166000908152600e6020526040902060010154909150612c7c908363ffffffff613dcb16565b6001600160a01b0384166000908152600e60205260409020600181019190915554612cad908263ffffffff613dcb16565b6001600160a01b0384166000908152600e6020526040902055612ccf83613f4e565b612cdb85858385614bd2565b6001600160a01b0383166000818152600e60209081526040808320805460018201546002909201548351918252938101919091528082019290925260608201929092529051600080516020615afb8339815191529181900360800190a250505b505050565b6000610ecc603c611584600d5442612d5c90919063ffffffff16565b6000611ffa83836040518060400160405280601e81526020017f536166654d6174683a207375627472616374696f6e206f766572666c6f770000815250614cd4565b601580546001808201835560008381527f55f448fdea98c4d29eb340757ef0a66cd03dbb9538908a6a81d96026b71ec47590920180546001600160a01b0319166001600160a01b03861617905591549091612df99190612d5c565b6001600160a01b03929092166000908152600e602052604090206003018054610100600160881b0319166101006001600160801b038516021790555090565b6001600160a01b0381166000908152600e60205260408120600101548190612e5f90614d6b565b6001600160a01b0384166000908152600e60205260409020600201805490829055600f5491925090612ea9908390612e9d908463ffffffff612d5c16565b9063ffffffff613dcb16565b600f81905560408051918252517f6bac5e0eb3c44eb03a60ab11ec3a2c051771616aecadbcfff2630aabae5203829181900360200190a15092915050565b600080612ef38361407b565b6714d1120d7b160000119392505050565b612f0c61587f565b612f1461596f565b612f1c61587f565b84825260006080830152612f2e611ad5565b60a0830152612f3b612012565b60c0830152600060208301525b8351826020015110156131145783826020015181518110612f6557fe5b6020908102919091018101516001600160a01b0316606084018190526000908152600e909152604090206003015460019060ff166004811115612fa457fe5b14612fae57613104565b612fbc826060015187612a12565b604083015260808201516130a657670f43fc2c04ee0000826040015110158015612fe557508151155b15612fef57613104565b60006130048360c001518460a0015189613f1e565b90506130218989856060015186604001518760000151868d614da7565b6080810151845191935061303b919063ffffffff612d5c16565b8352608082015160a08401516130569163ffffffff612d5c16565b60a08085019190915282015160c08401516130769163ffffffff612d5c16565b60c084015261308584836150da565b935061309a8360c001518460a00151896151f1565b15608084015250613104565b816080015180156130c25750670f43fc2c04ee00008260400151105b15613104576130db888884606001518560000151615212565b608081015183519192506130f5919063ffffffff612d5c16565b825261310183826150da565b92505b6020820180516001019052612f48565b505095945050505050565b61312761587f565b61312f61596f565b61313761587f565b848252600060208301525b835182602001511015613114578382602001518151811061315f57fe5b60209081029190910101516001600160a01b0316606083018190526131849087612a12565b60408301819052670f43fc2c04ee000011156131d7576131ae888884606001518560000151615212565b608081015183519192506131c8919063ffffffff612d5c16565b82526131d483826150da565b92505b6020820180516001019052613142565b816131f157613462565b60165460009061321390612e9d84670de0b6b3a764000063ffffffff6137a416565b90506000613238601754612e9d670de0b6b3a7640000876137a490919063ffffffff16565b90506000613251600f54846137fd90919063ffffffff16565b9050600061326a600f54846137fd90919063ffffffff16565b9050613291613284600f54846137a490919063ffffffff16565b859063ffffffff612d5c16565b601655600f546132b9906132ac90839063ffffffff6137a416565b849063ffffffff612d5c16565b6017556012546132cf908363ffffffff613dcb16565b6012556013546132e5908263ffffffff613dcb16565b601381905560125460408051918252602082019290925281517f9f8bc8ab0daf5bceef75ecfd2085d1fcc6548c657ea970d9a23a60610d0737e3929181900390910190a1876001600160a01b03166338d995a8876040518263ffffffff1660e01b815260040180828152602001915050600060405180830381600087803b15801561336f57600080fd5b505af1158015613383573d6000803e3d6000fd5b50505050866001600160a01b031663cfb9329a876040518263ffffffff1660e01b815260040180828152602001915050600060405180830381600087803b1580156133cd57600080fd5b505af11580156133e1573d6000803e3d6000fd5b50505050876001600160a01b03166364a197f388876040518363ffffffff1660e01b815260040180836001600160a01b03166001600160a01b0316815260200182815260200192505050600060405180830381600087803b15801561344557600080fd5b505af1158015613459573d6000803e3d6000fd5b50505050505050505b50505050565b600f546010819055506000826001600160a01b03166314f6c3be6040518163ffffffff1660e01b815260040160206040518083038186803b1580156134ac57600080fd5b505afa1580156134c0573d6000803e3d6000fd5b505050506040513d60208110156134d657600080fd5b505160015460408051630a7b61df60e11b815290519293506000926001600160a01b03909216916314f6c3be91600480820192602092909190829003018186803b15801561352357600080fd5b505afa158015613537573d6000803e3d6000fd5b505050506040513d602081101561354d57600080fd5b5051905061356581612e9d848663ffffffff612d5c16565b601181905560105460408051918252602082019290925281517f51bf4c63ec3cba9d03d43238abbdd979dd91bd16d9895c74ceea9118c7baaf60929181900390910190a150505050565b811561362e5760085460065460408051631062c15f60e11b81526001600160a01b039283166004820152868316602482015260448101869052905191909216916320c582be91606480830192600092919082900301818387803b15801561361557600080fd5b505af1158015613629573d6000803e3d6000fd5b505050505b801561346257836001600160a01b03166364a197f384836040518363ffffffff1660e01b815260040180836001600160a01b03166001600160a01b0316815260200182815260200192505050600060405180830381600087803b15801561369457600080fd5b505af11580156136a8573d6000803e3d6000fd5b5050505050505050565b6000610f236136da836103e8670de0b6b3a76400005b04600502613dcb90919063ffffffff16565b670de0b6b3a7640000615381565b60016001600160a01b0382166000908152600e602052604090206003015460ff16600481111561371457fe5b14610ebf5760405162461bcd60e51b815260040180806020018281038252602f815260200180615c6c602f913960400191505060405180910390fd5b6000611ffa670de0b6b3a7640000611584858563ffffffff6137a416565b6000610f2382680ad78ebc5ac620000063ffffffff613dcb16565b6000610f2382680ad78ebc5ac620000063ffffffff612d5c16565b6000826137b357506000610f23565b828202828482816137c057fe5b0414611ffa5760405162461bcd60e51b8152600401808060200182810382526021815260200180615a8c6021913960400191505060405180910390fd5b6000611ffa83836040518060400160405280601a81526020017f536166654d6174683a206469766973696f6e206279207a65726f000000000000815250615397565b60008061384a612d40565b90506000613860670ddd4b8c6c7d70d8836153fc565b9050611bcf670de0b6b3a764000061158483600c546137a490919063ffffffff16565b600061389a600d5442612d5c90919063ffffffff16565b9050603c8110610ebf5742600d81905560408051918252517f860f8d2f0c74dd487e89e2883e3b25b8159ce1e1b3433a291cba7b82c508f3bc9181900360200190a150565b6138e761587f565b6138ef61596f565b6138f761587f565b84825260006080830152613909611ad5565b60a0830152613916612012565b8260c001818152505086608001516001600160a01b0316634d6228316040518163ffffffff1660e01b815260040160206040518083038186803b15801561395c57600080fd5b505afa158015613970573d6000803e3d6000fd5b505050506040513d602081101561398657600080fd5b50516001600160a01b039081166060840152608088015160408051631e22314360e01b815290516000939290921691631e22314391600480820192602092909190829003018186803b1580156139db57600080fd5b505afa1580156139ef573d6000803e3d6000fd5b505050506040513d6020811015613a0557600080fd5b50516000602085015290505b848360200151108015613a3a5750806001600160a01b031683606001516001600160a01b031614155b15613c6757600088608001516001600160a01b031663b72703ac85606001516040518263ffffffff1660e01b815260040180826001600160a01b03166001600160a01b0316815260200191505060206040518083038186803b158015613a9f57600080fd5b505afa158015613ab3573d6000803e3d6000fd5b505050506040513d6020811015613ac957600080fd5b50516060850151909150613add9089612a12565b60408501526080840151613bd957670f43fc2c04ee0000846040015110158015613b0657508351155b15613b115750613c67565b6000613b268560c001518660a001518b613f1e565b8a5160208c0151606088015160408901518951949550613b4794868f614da7565b60808101518651919550613b61919063ffffffff612d5c16565b8552608084015160a0860151613b7c9163ffffffff612d5c16565b8560a0018181525050613ba98461010001516112aa8660a001518860c00151612d5c90919063ffffffff16565b60c0860152613bb886856150da565b9550613bcd8560c001518660a001518b6151f1565b15608086015250613c49565b83608001518015613bf55750670f43fc2c04ee00008460400151105b15613c4357613c1689600001518a6020015186606001518760000151615212565b60808101518551919450613c30919063ffffffff612d5c16565b8452613c3c85846150da565b9450613c49565b50613c67565b6001600160a01b031660608401526020830180516001019052613a11565b505050949350505050565b613c7a61587f565b613c8261596f565b613c8a61587f565b600b54858352600060208401526001600160a01b03165b8483602001511015613d9857806001600160a01b0316634d6228316040518163ffffffff1660e01b815260040160206040518083038186803b158015613ce657600080fd5b505afa158015613cfa573d6000803e3d6000fd5b505050506040513d6020811015613d1057600080fd5b50516001600160a01b031660608401819052613d2c9088612a12565b60408401819052670f43fc2c04ee00001115613d8357613d56898985606001518660000151615212565b60808101518451919350613d70919063ffffffff612d5c16565b8352613d7c84836150da565b9350613d88565b613d98565b6020830180516001019052613ca1565b50505095945050505050565b6000610f23613dbe836103e8670de0b6b3a76400006136c8565b66b1a2bc2ec50000615381565b600082820183811015611ffa576040805162461bcd60e51b815260206004820152601b60248201527f536166654d6174683a206164646974696f6e206f766572666c6f770000000000604482015290519081900360640190fd5b6001600160a01b038116613e80576040805162461bcd60e51b815260206004820152601e60248201527f4163636f756e742063616e6e6f74206265207a65726f20616464726573730000604482015290519081900360640190fd5b803b8061140c576040805162461bcd60e51b815260206004820181905260248201527f4163636f756e7420636f64652073697a652063616e6e6f74206265207a65726f604482015290519081900360640190fd5b6003546040516000916001600160a01b0316907f8be0079c531659141344cd1fd0a4f28419497f9722a3daafe3b4186f6b6457e0908390a3600380546001600160a01b0319169055565b60008215613f45576000613f3c84611584878663ffffffff6137a416565b9150611ffa9050565b50600019611ffa565b601280546001600160a01b0383166000908152601460209081526040918290209283556013546001909301839055925481519081529283019190915280517fc437f324d85e369394148dd9d62f98f534b382e01ed3dd2eb98138fb6d3ab49a9281900390910190a150565b60c8900490565b6000806000613fce846114d4565b90506000613fdb85612b73565b6001600160a01b0386166000908152600e60205260408120600101549192509061400b908463ffffffff613dcb16565b6001600160a01b0387166000908152600e602052604081205491925090614038908463ffffffff613dcb16565b919550909350505050915091565b600081156140725761406b826115848568056bc75e2d6310000063ffffffff6137a416565b9050610f23565b50600019610f23565b600080614086612012565b90506000614092611ad5565b905061409f828286613f1e565b949350505050565b6611c37937e0800081108015906140c65750670de0b6b3a76400008111155b610ebf5760405162461bcd60e51b8152600401808060200182810382526030815260200180615bf06030913960400191505060405180910390fd5b60095460408051631e425be160e11b815290516000926001600160a01b031691633c84b7c2916004808301926020929190829003018186803b15801561414657600080fd5b505afa15801561415a573d6000803e3d6000fd5b505050506040513d602081101561417057600080fd5b50519050614187816212750063ffffffff613dcb16565b421015610ebf5760405162461bcd60e51b8152600401808060200182810382526040815260200180615a4c6040913960400191505060405180910390fd5b670f43fc2c04ee00006141d78261407b565b1015610ebf5760405162461bcd60e51b815260040180806020018281038252602a815260200180615c20602a913960400191505060405180910390fd5b60008111610ebf5760405162461bcd60e51b815260040180806020018281038252602e815260200180615b8c602e913960400191505060405180910390fd5b80836001600160a01b03166370a08231846040518263ffffffff1660e01b815260040180826001600160a01b03166001600160a01b0316815260200191505060206040518083038186803b1580156142aa57600080fd5b505afa1580156142be573d6000803e3d6000fd5b505050506040513d60208110156142d457600080fd5b50511015612d3b5760405162461bcd60e51b815260040180806020018281038252604e815260200180615aad604e913960600191505060405180910390fd5b60006001600160a01b03831615806143aa5750836001600160a01b0316635dbe47e8846040518263ffffffff1660e01b815260040180826001600160a01b03166001600160a01b0316815260200191505060206040518083038186803b15801561437c57600080fd5b505afa158015614390573d6000803e3d6000fd5b505050506040513d60208110156143a657600080fd5b5051155b806143c55750670f43fc2c04ee00006143c38484612a12565b105b156143d257506000611ffa565b6000846001600160a01b031663765e0159856040518263ffffffff1660e01b815260040180826001600160a01b03166001600160a01b0316815260200191505060206040518083038186803b15801561442a57600080fd5b505afa15801561443e573d6000803e3d6000fd5b505050506040513d602081101561445457600080fd5b505190506001600160a01b038116158061219c5750670f43fc2c04ee000061447c8285612a12565b1095945050505050565b61448e61594c565b6001600160a01b0387166000908152600e60205260409020546144cb9087906144c690680ad78ebc5ac620000063ffffffff612d5c16565b615381565b8082526144ec90869061158490670de0b6b3a764000063ffffffff6137a416565b60208083019190915281516001600160a01b0389166000908152600e909252604082205461451f9163ffffffff612d5c16565b6020808401516001600160a01b038b166000908152600e909252604082206001015492935090916145559163ffffffff612d5c16565b9050680ad78ebc5ac62000008214156145ee5761457189614b82565b61457c896004614863565b6145918a8a680ad78ebc5ac6200000846154a7565b886001600160a01b0316600080516020615afb83398151915260008060006003604051808581526020018481526020018381526020018260038111156145d357fe5b60ff16815260200194505050505060405180910390a261472b565b60006145fa8284614046565b9050848114158061461b5750686194049f30f720000061461984613789565b105b1561462f575050600160408301525061472e565b60808b01516040805163015f109360e51b81526001600160a01b038d81166004830152602482018590528a81166044830152898116606483015291519190921691632be2126091608480830192600092919082900301818387803b15801561469657600080fd5b505af11580156146aa573d6000803e3d6000fd5b5050506001600160a01b038b166000908152600e60205260409020848155600101839055506146d88a612e38565b506001600160a01b038a166000818152600e602090815260409182902060020154825187815291820186905281830152600360608201529051600080516020615afb8339815191529181900360800190a2505b50505b979650505050505050565b60008061474461383f565b9050600061475c84611584888863ffffffff6137a416565b9050600061478161477483600263ffffffff6137fd16565b849063ffffffff613dcb16565b905061479581670de0b6b3a7640000615381565b9050600081116147a157fe5b600c8190556040805182815290517fc454ee9b76c52f782a256af821b857ca6e125d1e3333bcede402fec2bed9600c9181900360200190a1611590613883565b6000610f23612a87611390565b600061480c8361158486670de0b6b3a764000063ffffffff6137a416565b905081811115613462576040805162461bcd60e51b815260206004820152601d60248201527f4665652065786365656465642070726f7669646564206d6178696d756d000000604482015290519081900360640190fd5b600081600481111561487157fe5b1415801561488b5750600181600481111561488857fe5b14155b61489157fe5b60155461489d8161565c565b6001600160a01b0383166000908152600e60205260409020600301805483919060ff191660018360048111156148cf57fe5b02179055506001600160a01b0383166000908152600e6020908152604080832060018082018590559084905560149092528220828155015561491183826149db565b600b5460408051631484968760e11b81526001600160a01b038681166004830152915191909216916329092d0e91602480830192600092919082900301818387803b15801561495f57600080fd5b505af1158015614973573d6000803e3d6000fd5b50505050505050565b60008061499b670de0b6b3a7640000611584868663ffffffff6137a416565b9050828110611ffa5760405162461bcd60e51b8152600401808060200182810382526036815260200180615bba6036913960400191505060405180910390fd5b6001600160a01b0382166000908152600e602052604081206003015460ff1690816004811115614a0757fe5b14158015614a2157506001816004811115614a1e57fe5b14155b614a2757fe5b6001600160a01b0383166000908152600e602052604081206003015461010090046001600160801b0316908390614a5f826001612d5c565b905080836001600160801b03161115614a7457fe5b600060158281548110614a8357fe5b600091825260209091200154601580546001600160a01b03909216925082916001600160801b038716908110614ab557fe5b600091825260208083209190910180546001600160a01b0319166001600160a01b03948516179055918316808252600e83526040918290206003018054610100600160881b0319166101006001600160801b038a169081029190911790915582519182529281019290925280517f02b04ae5f7be9ca7c103293a2aa15f3c339d15d6eda53b721fef7b0e609c831a9281900390910190a16015805480614b5757fe5b600082815260209020810160001990810180546001600160a01b031916905501905550505050505050565b6001600160a01b0381166000908152600e6020526040902060020154600f54614bb1908263ffffffff612d5c16565b600f55506001600160a01b03166000908152600e6020526040812060020155565b826001600160a01b03166338d995a8836040518263ffffffff1660e01b815260040180828152602001915050600060405180830381600087803b158015614c1857600080fd5b505af1158015614c2c573d6000803e3d6000fd5b50505050836001600160a01b031663cfb9329a836040518263ffffffff1660e01b815260040180828152602001915050600060405180830381600087803b158015614c7657600080fd5b505af1158015614c8a573d6000803e3d6000fd5b50505050826001600160a01b031663be41205f826040518263ffffffff1660e01b815260040180828152602001915050600060405180830381600087803b15801561369457600080fd5b60008184841115614d635760405162461bcd60e51b81526004018080602001828103825283818151815260200191508051906020019080838360005b83811015614d28578181015183820152602001614d10565b50505050905090810190601f168015614d555780820380516001836020036101000a031916815260200191505b509250505060405180910390fd5b505050900390565b60008060115460001415614d80575081610f23565b600060105411614d8c57fe5b611ffa601154611584601054866137a490919063ffffffff16565b614daf61587f565b614db76159b7565b601554600110614dc7575061472e565b614dd0876121ce565b60408501526020848101919091528401819052908352614def90613fb9565b60408301819052680ad78ebc5ac620000060608401526020830151614e199163ffffffff612d5c16565b8152670de0b6b3a76400008611614f2157614e3e898983602001518460400151614bd2565b614e4787614b82565b60006080830181905260a0830152815160c0830152805160e0830152614e6e876003614863565b866001600160a01b03166000805160206159d983398151915283600001518460200151600260405180848152602001838152602001826003811115614eaf57fe5b60ff168152602001935050505060405180910390a2866001600160a01b0316600080516020615afb8339815191526000806000600260405180858152602001848152602001838152602001826003811115614f0657fe5b60ff16815260200194505050505060405180910390a26150ce565b670de0b6b3a764000086118015614f3f5750670f43fc2c04ee000086105b15614f8f57614f58898983602001518460400151614bd2565b614f6187614b82565b81518151614f70919087615715565b60e086015260c085015260a08401526080830152614e6e876003614863565b670f43fc2c04ee00008610158015614fa657508386105b8015614fb3575081518510155b156150bd57614fcc898983602001518460400151614bd2565b84614fd357fe5b614fdc87614b82565b614fef8260000151836020015185615781565b9150614ffc876003614863565b6101008201511561507c5760075461010083015160408051633f10abab60e01b81526001600160a01b038b81166004830152602482019390935290519190921691633f10abab91604480830192600092919082900301818387803b15801561506357600080fd5b505af1158015615077573d6000803e3d6000fd5b505050505b866001600160a01b03166000805160206159d983398151915283600001518460a00151600260405180848152602001838152602001826003811115614eaf57fe5b6150c561587f565b915061472e9050565b50979650505050505050565b6150e261587f565b604080830151908401516150fb9163ffffffff613dcb16565b6040820152606080830151908401516151199163ffffffff613dcb16565b6060820152815160208401516151349163ffffffff613dcb16565b60208083019190915282015183516151519163ffffffff613dcb16565b81526080808301519084015161516c9163ffffffff613dcb16565b608082015260a0808301519084015161518a9163ffffffff613dcb16565b60a082015260c080830151908401516151a89163ffffffff613dcb16565b60c082015260e080830151908401516151c69163ffffffff613dcb16565b60e082015261010080830151908401516151e59163ffffffff613dcb16565b61010082015292915050565b6000806151ff858585613f1e565b6714d1120d7b1600001195945050505050565b61521a61587f565b6152226159b7565b61522b846121ce565b60408501908152602085810192835286019290925291845290519051615255918891889190614bd2565b61525e84614b82565b61526b8260200151613fb9565b60408301819052680ad78ebc5ac620000060608401526020830151600091615299919063ffffffff612d5c16565b90506152aa83600001518286615715565b60e087015260c086015260a085015260808401526152c9856003614863565b846001600160a01b03166000805160206159d98339815191528460000151856020015160016040518084815260200183815260200182600381111561530a57fe5b60ff168152602001935050505060405180910390a2846001600160a01b0316600080516020615afb833981519152600080600060016040518085815260200184815260200183815260200182600381111561536157fe5b60ff16815260200194505050505060405180910390a25050949350505050565b60008183106153905781611ffa565b5090919050565b600081836153e65760405162461bcd60e51b8152602060048201818152835160248401528351909283926044909101919085019080838360008315614d28578181015183820152602001614d10565b5060008385816153f257fe5b0495945050505050565b6000631f54050082111561541257631f54050091505b816154265750670de0b6b3a7640000610f23565b670de0b6b3a764000083835b600181111561549d57600281066154675761544d828361581b565b915061546081600263ffffffff6137fd16565b9050615498565b615471828461581b565b925061547d828361581b565b9150615495600261158483600163ffffffff612d5c16565b90505b615432565b611590828461581b565b6040808501516006548251632770a7eb60e21b81526001600160a01b039182166004820152602481018690529251911691639dc29fac91604480830192600092919082900301818387803b1580156154fe57600080fd5b505af1158015615512573d6000803e3d6000fd5b5050505083600001516001600160a01b03166338d995a8836040518263ffffffff1660e01b815260040180828152602001915050600060405180830381600087803b15801561556057600080fd5b505af1158015615574573d6000803e3d6000fd5b505050508360a001516001600160a01b0316633f10abab84836040518363ffffffff1660e01b815260040180836001600160a01b03166001600160a01b0316815260200182815260200192505050600060405180830381600087803b1580156155dc57600080fd5b505af11580156155f0573d6000803e3d6000fd5b5050505083600001516001600160a01b03166364a197f38560a00151836040518363ffffffff1660e01b815260040180836001600160a01b03166001600160a01b0316815260200182815260200192505050600060405180830381600087803b15801561369457600080fd5b6001811180156156da5750600b546040805163de8fa43160e01b815290516001926001600160a01b03169163de8fa431916004808301926020929190829003018186803b1580156156ac57600080fd5b505afa1580156156c0573d6000803e3d6000fd5b505050506040513d60208110156156d657600080fd5b5051115b610ebf5760405162461bcd60e51b815260040180806020018281038252602a815260200180615a22602a913960400191505060405180910390fd5b6000808080841561576b5761572a8786615381565b935061574087611584888763ffffffff6137a416565b9250615752878563ffffffff612d5c16565b9150615764868463ffffffff612d5c16565b9050615778565b5060009250829150859050845b93509350935093565b61578961587f565b8381526020810183905260006157b18361158487670f43fc2c04ee000063ffffffff6137a416565b90506157bc81613fb9565b60408301819052680ad78ebc5ac62000006060840152608083018690526157ea90829063ffffffff612d5c16565b60a08301526157ff848263ffffffff612d5c16565b61010083015250600060c0820181905260e08201529392505050565b60008061582e848463ffffffff6137a416565b905061409f670de0b6b3a7640000611584836706f05b59d3b20000613dcb565b6040518060a00160405280600081526020016000815260200160001515815260200160008152602001600081525090565b6040518061012001604052806000815260200160008152602001600081526020016000815260200160008152602001600081526020016000815260200160008152602001600081525090565b6040805160e081018252600080825260208201819052918101829052606081018290526080810182905260a0810182905260c081019190915290565b60405180610100016040528060008152602001600081526020016000815260200160008152602001600081526020016000815260200160008152602001600081525090565b604051806060016040528060008152602001600081526020016000151581525090565b6040518060e0016040528060008152602001600081526020016000815260200160006001600160a01b0316815260200160001515815260200160008152602001600081525090565b6040518060600160405280600081526020016000815260200160008152509056feea67486ed7ebe3eea8ab3390efd4a3c8aae48be5bea27df104a8af786c40843454726f76654d616e616765723a20556e61626c6520746f2072656465656d20616e7920616d6f756e7454726f76654d616e616765723a204f6e6c79206f6e652074726f766520696e207468652073797374656d54726f76654d616e616765723a20526564656d7074696f6e7320617265206e6f7420616c6c6f77656420647572696e6720626f6f747374726170207068617365536166654d6174683a206d756c7469706c69636174696f6e206f766572666c6f7754726f76654d616e616765723a2052657175657374656420726564656d7074696f6e20616d6f756e74206d757374206265203c3d20757365722773204c55534420746f6b656e2062616c616e6365c3770d654ed33aeea6bf11ac8ef05d02a6a04ed4686dd2f624d853bbec43cc8b54726f76654d616e616765723a2043616c6c6572206973206e6f742074686520426f72726f7765724f7065726174696f6e7320636f6e747261637454726f76654d616e616765723a2043616c6c646174612061646472657373206172726179206d757374206e6f7420626520656d70747954726f76654d616e616765723a20416d6f756e74206d7573742062652067726561746572207468616e207a65726f54726f76654d616e616765723a2046656520776f756c642065617420757020616c6c2072657475726e656420636f6c6c61746572616c4d6178206665652070657263656e74616765206d757374206265206265747765656e20302e352520616e64203130302554726f76654d616e616765723a2043616e6e6f742072656465656d207768656e20544352203c204d435254726f76654d616e616765723a206e6f7468696e6720746f206c697175696461746554726f76654d616e616765723a2054726f766520646f6573206e6f74206578697374206f7220697320636c6f736564a264697066735822122003662565164cd9e72ac126874f797defe7bac2dc7f2360fe8cd27b870ec316d164736f6c634300060b0033",
  "linkReferences": {},
  "deployedLinkReferences": {}
}