{
  "_format": "hh-sol-artifact-1",
  "contractName": "TroveManagerTester",
  "sourceName": "contracts/TestContracts/CDPManagerTester.sol",
  "abi": [
    {
      "anonymous": false,
      "inputs": [
        {
          "indexed": false,
          "internalType": "address",
          "name": "_activePoolAddress",
          "type": "address"
        }
      ],
      "name": "ActivePoolAddressChanged",
      "type": "event"
    },
    {
      "anonymous": false,
      "inputs": [
        {
          "indexed": false,
          "internalType": "address",
          "name": "_newBorrowerOperationsAddress",
          "type": "address"
        }
      ],
      "name": "BorrowerOperationsAddressChanged",
      "type": "event"
    },
    {
      "anonymous": false,
      "inputs": [
        {
          "indexed": false,
          "internalType": "address",
          "name": "_collSurplusPoolAddress",
          "type": "address"
        }
      ],
      "name": "CollSurplusPoolAddressChanged",
      "type": "event"
    },
    {
      "anonymous": false,
      "inputs": [
        {
          "indexed": false,
          "internalType": "address",
          "name": "_defaultPoolAddress",
          "type": "address"
        }
      ],
      "name": "DefaultPoolAddressChanged",
      "type": "event"
    },
    {
      "anonymous": false,
      "inputs": [
        {
          "indexed": false,
          "internalType": "address",
          "name": "_gasPoolAddress",
          "type": "address"
        }
      ],
      "name": "GasPoolAddressChanged",
      "type": "event"
    },
    {
      "anonymous": false,
      "inputs": [
        {
          "indexed": false,
          "internalType": "address",
          "name": "_lqtyStakingAddress",
          "type": "address"
        }
      ],
      "name": "LQTYStakingAddressChanged",
      "type": "event"
    },
    {
      "anonymous": false,
      "inputs": [
        {
          "indexed": false,
          "internalType": "address",
          "name": "_newLUSDTokenAddress",
          "type": "address"
        }
      ],
      "name": "LUSDTokenAddressChanged",
      "type": "event"
    },
    {
      "anonymous": false,
      "inputs": [
        {
          "indexed": false,
          "internalType": "uint256",
          "name": "_liquidatedDebt",
          "type": "uint256"
        },
        {
          "indexed": false,
          "internalType": "uint256",
          "name": "_liquidatedColl",
          "type": "uint256"
        },
        {
          "indexed": false,
          "internalType": "uint256",
          "name": "_collGasCompensation",
          "type": "uint256"
        },
        {
          "indexed": false,
          "internalType": "uint256",
          "name": "_LUSDGasCompensation",
          "type": "uint256"
        }
      ],
      "name": "Liquidation",
      "type": "event"
    },
    {
      "anonymous": false,
      "inputs": [
        {
          "indexed": true,
          "internalType": "address",
          "name": "previousOwner",
          "type": "address"
        },
        {
          "indexed": true,
          "internalType": "address",
          "name": "newOwner",
          "type": "address"
        }
      ],
      "name": "OwnershipTransferred",
      "type": "event"
    },
    {
      "anonymous": false,
      "inputs": [
        {
          "indexed": false,
          "internalType": "address",
          "name": "_newPriceFeedAddress",
          "type": "address"
        }
      ],
      "name": "PriceFeedAddressChanged",
      "type": "event"
    },
    {
      "anonymous": false,
      "inputs": [
        {
          "indexed": false,
          "internalType": "uint256",
          "name": "_attemptedLUSDAmount",
          "type": "uint256"
        },
        {
          "indexed": false,
          "internalType": "uint256",
          "name": "_actualLUSDAmount",
          "type": "uint256"
        },
        {
          "indexed": false,
          "internalType": "uint256",
          "name": "_ETHSent",
          "type": "uint256"
        },
        {
          "indexed": false,
          "internalType": "uint256",
          "name": "_ETHFee",
          "type": "uint256"
        }
      ],
      "name": "Redemption",
      "type": "event"
    },
    {
      "anonymous": false,
      "inputs": [
        {
          "indexed": false,
          "internalType": "address",
          "name": "_sortedTrovesAddress",
          "type": "address"
        }
      ],
      "name": "SortedTrovesAddressChanged",
      "type": "event"
    },
    {
      "anonymous": false,
      "inputs": [
        {
          "indexed": false,
          "internalType": "address",
          "name": "_stabilityPoolAddress",
          "type": "address"
        }
      ],
      "name": "StabilityPoolAddressChanged",
      "type": "event"
    },
    {
      "anonymous": false,
      "inputs": [
        {
          "indexed": true,
          "internalType": "address",
          "name": "_borrower",
          "type": "address"
        },
        {
          "indexed": false,
          "internalType": "uint256",
          "name": "_arrayIndex",
          "type": "uint256"
        }
      ],
      "name": "TroveCreated",
      "type": "event"
    },
    {
      "anonymous": false,
      "inputs": [
        {
          "indexed": true,
          "internalType": "address",
          "name": "_borrower",
          "type": "address"
        },
        {
          "indexed": false,
          "internalType": "uint256",
          "name": "_debt",
          "type": "uint256"
        },
        {
          "indexed": false,
          "internalType": "uint256",
          "name": "_coll",
          "type": "uint256"
        },
        {
          "indexed": false,
          "internalType": "enum TroveManager.TroveManagerOperation",
          "name": "_operation",
          "type": "uint8"
        }
      ],
      "name": "TroveLiquidated",
      "type": "event"
    },
    {
      "anonymous": false,
      "inputs": [
        {
          "indexed": true,
          "internalType": "address",
          "name": "_borrower",
          "type": "address"
        },
        {
          "indexed": false,
          "internalType": "uint256",
          "name": "_debt",
          "type": "uint256"
        },
        {
          "indexed": false,
          "internalType": "uint256",
          "name": "_coll",
          "type": "uint256"
        },
        {
          "indexed": false,
          "internalType": "uint256",
          "name": "_stake",
          "type": "uint256"
        },
        {
          "indexed": false,
          "internalType": "enum TroveManager.TroveManagerOperation",
          "name": "_operation",
          "type": "uint8"
        }
      ],
      "name": "TroveUpdated",
      "type": "event"
    },
    {
      "inputs": [],
      "name": "BETA",
      "outputs": [
        {
          "internalType": "uint256",
          "name": "",
          "type": "uint256"
        }
      ],
      "stateMutability": "view",
      "type": "function"
    },
    {
      "inputs": [],
      "name": "CCR",
      "outputs": [
        {
          "internalType": "uint256",
          "name": "",
          "type": "uint256"
        }
      ],
      "stateMutability": "view",
      "type": "function"
    },
    {
      "inputs": [],
      "name": "DECIMAL_PRECISION",
      "outputs": [
        {
          "internalType": "uint256",
          "name": "",
          "type": "uint256"
        }
      ],
      "stateMutability": "view",
      "type": "function"
    },
    {
      "inputs": [],
      "name": "LUSD_GAS_COMPENSATION",
      "outputs": [
        {
          "internalType": "uint256",
          "name": "",
          "type": "uint256"
        }
      ],
      "stateMutability": "view",
      "type": "function"
    },
    {
      "inputs": [],
      "name": "L_ETH",
      "outputs": [
        {
          "internalType": "uint256",
          "name": "",
          "type": "uint256"
        }
      ],
      "stateMutability": "view",
      "type": "function"
    },
    {
      "inputs": [],
      "name": "L_LUSDDebt",
      "outputs": [
        {
          "internalType": "uint256",
          "name": "",
          "type": "uint256"
        }
      ],
      "stateMutability": "view",
      "type": "function"
    },
    {
      "inputs": [],
      "name": "MCR",
      "outputs": [
        {
          "internalType": "uint256",
          "name": "",
          "type": "uint256"
        }
      ],
      "stateMutability": "view",
      "type": "function"
    },
    {
      "inputs": [],
      "name": "MINUTE_DECAY_FACTOR",
      "outputs": [
        {
          "internalType": "uint256",
          "name": "",
          "type": "uint256"
        }
      ],
      "stateMutability": "view",
      "type": "function"
    },
    {
      "inputs": [],
      "name": "PERCENT_DIVISOR",
      "outputs": [
        {
          "internalType": "uint256",
          "name": "",
          "type": "uint256"
        }
      ],
      "stateMutability": "view",
      "type": "function"
    },
    {
      "inputs": [],
      "name": "R_MCR",
      "outputs": [
        {
          "internalType": "uint256",
          "name": "",
          "type": "uint256"
        }
      ],
      "stateMutability": "view",
      "type": "function"
    },
    {
      "inputs": [],
      "name": "SECONDS_IN_ONE_MINUTE",
      "outputs": [
        {
          "internalType": "uint256",
          "name": "",
          "type": "uint256"
        }
      ],
      "stateMutability": "view",
      "type": "function"
    },
    {
      "inputs": [
        {
          "internalType": "uint256",
          "name": "",
          "type": "uint256"
        }
      ],
      "name": "TroveOwners",
      "outputs": [
        {
          "internalType": "address",
          "name": "",
          "type": "address"
        }
      ],
      "stateMutability": "view",
      "type": "function"
    },
    {
      "inputs": [
        {
          "internalType": "address",
          "name": "",
          "type": "address"
        }
      ],
      "name": "Troves",
      "outputs": [
        {
          "internalType": "uint256",
          "name": "debt",
          "type": "uint256"
        },
        {
          "internalType": "uint256",
          "name": "coll",
          "type": "uint256"
        },
        {
          "internalType": "uint256",
          "name": "stake",
          "type": "uint256"
        },
        {
          "internalType": "enum TroveManager.Status",
          "name": "status",
          "type": "uint8"
        },
        {
          "internalType": "uint128",
          "name": "arrayIndex",
          "type": "uint128"
        }
      ],
      "stateMutability": "view",
      "type": "function"
    },
    {
      "inputs": [],
      "name": "_100pct",
      "outputs": [
        {
          "internalType": "uint256",
          "name": "",
          "type": "uint256"
        }
      ],
      "stateMutability": "view",
      "type": "function"
    },
    {
      "inputs": [],
      "name": "activePool",
      "outputs": [
        {
          "internalType": "contract IActivePool",
          "name": "",
          "type": "address"
        }
      ],
      "stateMutability": "view",
      "type": "function"
    },
    {
      "inputs": [
        {
          "internalType": "address",
          "name": "_borrower",
          "type": "address"
        }
      ],
      "name": "addTroveOwnerToArray",
      "outputs": [
        {
          "internalType": "uint256",
          "name": "index",
          "type": "uint256"
        }
      ],
      "stateMutability": "nonpayable",
      "type": "function"
    },
    {
      "inputs": [
        {
          "internalType": "address",
          "name": "_borrower",
          "type": "address"
        }
      ],
      "name": "applyPendingRewards",
      "outputs": [],
      "stateMutability": "nonpayable",
      "type": "function"
    },
    {
      "inputs": [],
      "name": "baseRate",
      "outputs": [
        {
          "internalType": "uint256",
          "name": "",
          "type": "uint256"
        }
      ],
      "stateMutability": "view",
      "type": "function"
    },
    {
      "inputs": [
        {
          "internalType": "address[]",
          "name": "_troveArray",
          "type": "address[]"
        }
      ],
      "name": "batchLiquidateTroves",
      "outputs": [],
      "stateMutability": "nonpayable",
      "type": "function"
    },
    {
      "inputs": [],
      "name": "borrowerOperationsAddress",
      "outputs": [
        {
          "internalType": "address",
          "name": "",
          "type": "address"
        }
      ],
      "stateMutability": "view",
      "type": "function"
    },
    {
      "inputs": [
        {
          "internalType": "uint256",
          "name": "_ETHDrawn",
          "type": "uint256"
        }
      ],
      "name": "callGetRedemptionFee",
      "outputs": [
        {
          "internalType": "uint256",
          "name": "",
          "type": "uint256"
        }
      ],
      "stateMutability": "view",
      "type": "function"
    },
    {
      "inputs": [
        {
          "internalType": "address",
          "name": "_troveOwner",
          "type": "address"
        }
      ],
      "name": "callInternalRemoveTroveOwner",
      "outputs": [],
      "stateMutability": "nonpayable",
      "type": "function"
    },
    {
      "inputs": [],
      "name": "checkRecoveryMode",
      "outputs": [
        {
          "internalType": "bool",
          "name": "",
          "type": "bool"
        }
      ],
      "stateMutability": "view",
      "type": "function"
    },
    {
      "inputs": [
        {
          "internalType": "address",
          "name": "_borrower",
          "type": "address"
        }
      ],
      "name": "closeTrove",
      "outputs": [],
      "stateMutability": "nonpayable",
      "type": "function"
    },
    {
      "inputs": [
        {
          "internalType": "uint256",
          "name": "_coll",
          "type": "uint256"
        },
        {
          "internalType": "uint256",
          "name": "_debt",
          "type": "uint256"
        },
        {
          "internalType": "uint256",
          "name": "_price",
          "type": "uint256"
        }
      ],
      "name": "computeICR",
      "outputs": [
        {
          "internalType": "uint256",
          "name": "",
          "type": "uint256"
        }
      ],
      "stateMutability": "pure",
      "type": "function"
    },
    {
      "inputs": [],
      "name": "decayBaseRateFromBorrowing",
      "outputs": [],
      "stateMutability": "nonpayable",
      "type": "function"
    },
    {
      "inputs": [
        {
          "internalType": "address",
          "name": "_borrower",
          "type": "address"
        },
        {
          "internalType": "uint256",
          "name": "_collDecrease",
          "type": "uint256"
        }
      ],
      "name": "decreaseTroveColl",
      "outputs": [
        {
          "internalType": "uint256",
          "name": "",
          "type": "uint256"
        }
      ],
      "stateMutability": "nonpayable",
      "type": "function"
    },
    {
      "inputs": [
        {
          "internalType": "address",
          "name": "_borrower",
          "type": "address"
        },
        {
          "internalType": "uint256",
          "name": "_debtDecrease",
          "type": "uint256"
        }
      ],
      "name": "decreaseTroveDebt",
      "outputs": [
        {
          "internalType": "uint256",
          "name": "",
          "type": "uint256"
        }
      ],
      "stateMutability": "nonpayable",
      "type": "function"
    },
    {
      "inputs": [],
      "name": "defaultPool",
      "outputs": [
        {
          "internalType": "contract IDefaultPool",
          "name": "",
          "type": "address"
        }
      ],
      "stateMutability": "view",
      "type": "function"
    },
    {
      "inputs": [
        {
          "internalType": "uint256",
          "name": "_debtVal",
          "type": "uint256"
        }
      ],
      "name": "getActualDebtFromComposite",
      "outputs": [
        {
          "internalType": "uint256",
          "name": "",
          "type": "uint256"
        }
      ],
      "stateMutability": "pure",
      "type": "function"
    },
    {
      "inputs": [
        {
          "internalType": "uint256",
          "name": "_LUSDDebt",
          "type": "uint256"
        }
      ],
      "name": "getBorrowingFee",
      "outputs": [
        {
          "internalType": "uint256",
          "name": "",
          "type": "uint256"
        }
      ],
      "stateMutability": "view",
      "type": "function"
    },
    {
      "inputs": [
        {
          "internalType": "uint256",
          "name": "_coll",
          "type": "uint256"
        }
      ],
      "name": "getCollGasCompensation",
      "outputs": [
        {
          "internalType": "uint256",
          "name": "",
          "type": "uint256"
        }
      ],
      "stateMutability": "pure",
      "type": "function"
    },
    {
      "inputs": [
        {
          "internalType": "uint256",
          "name": "_debt",
          "type": "uint256"
        }
      ],
      "name": "getCompositeDebt",
      "outputs": [
        {
          "internalType": "uint256",
          "name": "",
          "type": "uint256"
        }
      ],
      "stateMutability": "pure",
      "type": "function"
    },
    {
      "inputs": [
        {
          "internalType": "address",
          "name": "_borrower",
          "type": "address"
        },
        {
          "internalType": "uint256",
          "name": "_price",
          "type": "uint256"
        }
      ],
      "name": "getCurrentICR",
      "outputs": [
        {
          "internalType": "uint256",
          "name": "",
          "type": "uint256"
        }
      ],
      "stateMutability": "view",
      "type": "function"
    },
    {
      "inputs": [
        {
          "internalType": "address",
          "name": "_borrower",
          "type": "address"
        }
      ],
      "name": "getEntireDebtAndColl",
      "outputs": [
        {
          "internalType": "uint256",
          "name": "debt",
          "type": "uint256"
        },
        {
          "internalType": "uint256",
          "name": "coll",
          "type": "uint256"
        },
        {
          "internalType": "uint256",
          "name": "pendingLUSDDebtReward",
          "type": "uint256"
        },
        {
          "internalType": "uint256",
          "name": "pendingETHReward",
          "type": "uint256"
        }
      ],
      "stateMutability": "view",
      "type": "function"
    },
    {
      "inputs": [],
      "name": "getEntireSystemColl",
      "outputs": [
        {
          "internalType": "uint256",
          "name": "entireSystemColl",
          "type": "uint256"
        }
      ],
      "stateMutability": "view",
      "type": "function"
    },
    {
      "inputs": [],
      "name": "getEntireSystemDebt",
      "outputs": [
        {
          "internalType": "uint256",
          "name": "entireSystemDebt",
          "type": "uint256"
        }
      ],
      "stateMutability": "view",
      "type": "function"
    },
    {
      "inputs": [],
      "name": "getLUSDGasCompensation",
      "outputs": [
        {
          "internalType": "uint256",
          "name": "",
          "type": "uint256"
        }
      ],
      "stateMutability": "pure",
      "type": "function"
    },
    {
      "inputs": [
        {
          "internalType": "address",
          "name": "_borrower",
          "type": "address"
        }
      ],
      "name": "getNominalICR",
      "outputs": [
        {
          "internalType": "uint256",
          "name": "",
          "type": "uint256"
        }
      ],
      "stateMutability": "view",
      "type": "function"
    },
    {
      "inputs": [
        {
          "internalType": "address",
          "name": "_borrower",
          "type": "address"
        }
      ],
      "name": "getPendingETHReward",
      "outputs": [
        {
          "internalType": "uint256",
          "name": "",
          "type": "uint256"
        }
      ],
      "stateMutability": "view",
      "type": "function"
    },
    {
      "inputs": [
        {
          "internalType": "address",
          "name": "_borrower",
          "type": "address"
        }
      ],
      "name": "getPendingLUSDDebtReward",
      "outputs": [
        {
          "internalType": "uint256",
          "name": "",
          "type": "uint256"
        }
      ],
      "stateMutability": "view",
      "type": "function"
    },
    {
      "inputs": [],
      "name": "getTCR",
      "outputs": [
        {
          "internalType": "uint256",
          "name": "",
          "type": "uint256"
        }
      ],
      "stateMutability": "view",
      "type": "function"
    },
    {
      "inputs": [
        {
          "internalType": "address",
          "name": "_borrower",
          "type": "address"
        }
      ],
      "name": "getTroveColl",
      "outputs": [
        {
          "internalType": "uint256",
          "name": "",
          "type": "uint256"
        }
      ],
      "stateMutability": "view",
      "type": "function"
    },
    {
      "inputs": [
        {
          "internalType": "address",
          "name": "_borrower",
          "type": "address"
        }
      ],
      "name": "getTroveDebt",
      "outputs": [
        {
          "internalType": "uint256",
          "name": "",
          "type": "uint256"
        }
      ],
      "stateMutability": "view",
      "type": "function"
    },
    {
      "inputs": [
        {
          "internalType": "uint256",
          "name": "_index",
          "type": "uint256"
        }
      ],
      "name": "getTroveFromTroveOwnersArray",
      "outputs": [
        {
          "internalType": "address",
          "name": "",
          "type": "address"
        }
      ],
      "stateMutability": "view",
      "type": "function"
    },
    {
      "inputs": [],
      "name": "getTroveOwnersCount",
      "outputs": [
        {
          "internalType": "uint256",
          "name": "",
          "type": "uint256"
        }
      ],
      "stateMutability": "view",
      "type": "function"
    },
    {
      "inputs": [
        {
          "internalType": "address",
          "name": "_borrower",
          "type": "address"
        }
      ],
      "name": "getTroveStake",
      "outputs": [
        {
          "internalType": "uint256",
          "name": "",
          "type": "uint256"
        }
      ],
      "stateMutability": "view",
      "type": "function"
    },
    {
      "inputs": [
        {
          "internalType": "address",
          "name": "_borrower",
          "type": "address"
        }
      ],
      "name": "getTroveStatus",
      "outputs": [
        {
          "internalType": "uint256",
          "name": "",
          "type": "uint256"
        }
      ],
      "stateMutability": "view",
      "type": "function"
    },
    {
      "inputs": [
        {
          "internalType": "address",
          "name": "_borrower",
          "type": "address"
        }
      ],
      "name": "hasPendingRewards",
      "outputs": [
        {
          "internalType": "bool",
          "name": "",
          "type": "bool"
        }
      ],
      "stateMutability": "view",
      "type": "function"
    },
    {
      "inputs": [
        {
          "internalType": "address",
          "name": "_borrower",
          "type": "address"
        },
        {
          "internalType": "uint256",
          "name": "_collIncrease",
          "type": "uint256"
        }
      ],
      "name": "increaseTroveColl",
      "outputs": [
        {
          "internalType": "uint256",
          "name": "",
          "type": "uint256"
        }
      ],
      "stateMutability": "nonpayable",
      "type": "function"
    },
    {
      "inputs": [
        {
          "internalType": "address",
          "name": "_borrower",
          "type": "address"
        },
        {
          "internalType": "uint256",
          "name": "_debtIncrease",
          "type": "uint256"
        }
      ],
      "name": "increaseTroveDebt",
      "outputs": [
        {
          "internalType": "uint256",
          "name": "",
          "type": "uint256"
        }
      ],
      "stateMutability": "nonpayable",
      "type": "function"
    },
    {
      "inputs": [],
      "name": "isOwner",
      "outputs": [
        {
          "internalType": "bool",
          "name": "",
          "type": "bool"
        }
      ],
      "stateMutability": "view",
      "type": "function"
    },
    {
      "inputs": [],
      "name": "lastETHError_Redistribution",
      "outputs": [
        {
          "internalType": "uint256",
          "name": "",
          "type": "uint256"
        }
      ],
      "stateMutability": "view",
      "type": "function"
    },
    {
      "inputs": [],
      "name": "lastFeeOperationTime",
      "outputs": [
        {
          "internalType": "uint256",
          "name": "",
          "type": "uint256"
        }
      ],
      "stateMutability": "view",
      "type": "function"
    },
    {
      "inputs": [],
      "name": "lastLUSDDebtError_Redistribution",
      "outputs": [
        {
          "internalType": "uint256",
          "name": "",
          "type": "uint256"
        }
      ],
      "stateMutability": "view",
      "type": "function"
    },
    {
      "inputs": [
        {
          "internalType": "address",
          "name": "_borrower",
          "type": "address"
        }
      ],
      "name": "liquidate",
      "outputs": [],
      "stateMutability": "nonpayable",
      "type": "function"
    },
    {
      "inputs": [
        {
          "internalType": "uint256",
          "name": "_n",
          "type": "uint256"
        }
      ],
      "name": "liquidateTroves",
      "outputs": [],
      "stateMutability": "nonpayable",
      "type": "function"
    },
    {
      "inputs": [],
      "name": "lqtyStaking",
      "outputs": [
        {
          "internalType": "contract ILQTYStaking",
          "name": "",
          "type": "address"
        }
      ],
      "stateMutability": "view",
      "type": "function"
    },
    {
      "inputs": [],
      "name": "lusdToken",
      "outputs": [
        {
          "internalType": "contract ILUSDToken",
          "name": "",
          "type": "address"
        }
      ],
      "stateMutability": "view",
      "type": "function"
    },
    {
      "inputs": [],
      "name": "minutesPassedSinceLastFeeOp",
      "outputs": [
        {
          "internalType": "uint256",
          "name": "",
          "type": "uint256"
        }
      ],
      "stateMutability": "view",
      "type": "function"
    },
    {
      "inputs": [],
      "name": "owner",
      "outputs": [
        {
          "internalType": "address",
          "name": "",
          "type": "address"
        }
      ],
      "stateMutability": "view",
      "type": "function"
    },
    {
      "inputs": [],
      "name": "priceFeed",
      "outputs": [
        {
          "internalType": "contract IPriceFeed",
          "name": "",
          "type": "address"
        }
      ],
      "stateMutability": "view",
      "type": "function"
    },
    {
      "inputs": [
        {
          "internalType": "uint256",
          "name": "_LUSDamount",
          "type": "uint256"
        },
        {
          "internalType": "address",
          "name": "_firstRedemptionHint",
          "type": "address"
        },
        {
          "internalType": "address",
          "name": "_upperPartialRedemptionHint",
          "type": "address"
        },
        {
          "internalType": "address",
          "name": "_lowerPartialRedemptionHint",
          "type": "address"
        },
        {
          "internalType": "uint256",
          "name": "_partialRedemptionHintNICR",
          "type": "uint256"
        },
        {
          "internalType": "uint256",
          "name": "_maxIterations",
          "type": "uint256"
        },
        {
          "internalType": "uint256",
          "name": "_maxFee",
          "type": "uint256"
        }
      ],
      "name": "redeemCollateral",
      "outputs": [],
      "stateMutability": "nonpayable",
      "type": "function"
    },
    {
      "inputs": [
        {
          "internalType": "address",
          "name": "_borrower",
          "type": "address"
        }
      ],
      "name": "removeStake",
      "outputs": [],
      "stateMutability": "nonpayable",
      "type": "function"
    },
    {
      "inputs": [
        {
          "internalType": "address",
          "name": "",
          "type": "address"
        }
      ],
      "name": "rewardSnapshots",
      "outputs": [
        {
          "internalType": "uint256",
          "name": "ETH",
          "type": "uint256"
        },
        {
          "internalType": "uint256",
          "name": "LUSDDebt",
          "type": "uint256"
        }
      ],
      "stateMutability": "view",
      "type": "function"
    },
    {
      "inputs": [
        {
          "internalType": "address",
          "name": "_borrowerOperationsAddress",
          "type": "address"
        },
        {
          "internalType": "address",
          "name": "_activePoolAddress",
          "type": "address"
        },
        {
          "internalType": "address",
          "name": "_defaultPoolAddress",
          "type": "address"
        },
        {
          "internalType": "address",
          "name": "_stabilityPoolAddress",
          "type": "address"
        },
        {
          "internalType": "address",
          "name": "_gasPoolAddress",
          "type": "address"
        },
        {
          "internalType": "address",
          "name": "_collSurplusPoolAddress",
          "type": "address"
        },
        {
          "internalType": "address",
          "name": "_priceFeedAddress",
          "type": "address"
        },
        {
          "internalType": "address",
          "name": "_lusdTokenAddress",
          "type": "address"
        },
        {
          "internalType": "address",
          "name": "_sortedTrovesAddress",
          "type": "address"
        },
        {
          "internalType": "address",
          "name": "_lqtyStakingAddress",
          "type": "address"
        }
      ],
      "name": "setAddresses",
      "outputs": [],
      "stateMutability": "nonpayable",
      "type": "function"
    },
    {
      "inputs": [
        {
          "internalType": "uint256",
          "name": "_baseRate",
          "type": "uint256"
        }
      ],
      "name": "setBaseRate",
      "outputs": [],
      "stateMutability": "nonpayable",
      "type": "function"
    },
    {
      "inputs": [],
      "name": "setLastFeeOpTimeToNow",
      "outputs": [],
      "stateMutability": "nonpayable",
      "type": "function"
    },
    {
      "inputs": [
        {
          "internalType": "address",
          "name": "_borrower",
          "type": "address"
        },
        {
          "internalType": "uint256",
          "name": "_num",
          "type": "uint256"
        }
      ],
      "name": "setTroveStatus",
      "outputs": [],
      "stateMutability": "nonpayable",
      "type": "function"
    },
    {
      "inputs": [],
      "name": "sortedTroves",
      "outputs": [
        {
          "internalType": "contract ISortedTroves",
          "name": "",
          "type": "address"
        }
      ],
      "stateMutability": "view",
      "type": "function"
    },
    {
      "inputs": [],
      "name": "stabilityPool",
      "outputs": [
        {
          "internalType": "contract IStabilityPool",
          "name": "",
          "type": "address"
        }
      ],
      "stateMutability": "view",
      "type": "function"
    },
    {
      "inputs": [],
      "name": "totalCollateralSnapshot",
      "outputs": [
        {
          "internalType": "uint256",
          "name": "",
          "type": "uint256"
        }
      ],
      "stateMutability": "view",
      "type": "function"
    },
    {
      "inputs": [],
      "name": "totalStakes",
      "outputs": [
        {
          "internalType": "uint256",
          "name": "",
          "type": "uint256"
        }
      ],
      "stateMutability": "view",
      "type": "function"
    },
    {
      "inputs": [],
      "name": "totalStakesSnapshot",
      "outputs": [
        {
          "internalType": "uint256",
          "name": "",
          "type": "uint256"
        }
      ],
      "stateMutability": "view",
      "type": "function"
    },
    {
      "inputs": [],
      "name": "unprotectedDecayBaseRateFromBorrowing",
      "outputs": [
        {
          "internalType": "uint256",
          "name": "",
          "type": "uint256"
        }
      ],
      "stateMutability": "nonpayable",
      "type": "function"
    },
    {
      "inputs": [
        {
          "internalType": "address",
          "name": "_borrower",
          "type": "address"
        }
      ],
      "name": "updateStakeAndTotalStakes",
      "outputs": [
        {
          "internalType": "uint256",
          "name": "",
          "type": "uint256"
        }
      ],
      "stateMutability": "nonpayable",
      "type": "function"
    },
    {
      "inputs": [
        {
          "internalType": "address",
          "name": "_borrower",
          "type": "address"
        }
      ],
      "name": "updateTroveRewardSnapshots",
      "outputs": [],
      "stateMutability": "nonpayable",
      "type": "function"
    }
  ],
  "bytecode": "0x608060405234801561001057600080fd5b50600380546001600160a01b031916339081179091556040516000907f8be0079c531659141344cd1fd0a4f28419497f9722a3daafe3b4186f6b6457e0908290a361511e806100606000396000f3fe608060405234801561001057600080fd5b506004361061042f5760003560e01c8063795d26c31161023c578063b83f91a211610146578063d66a2553116100c3578063e2ac77b011610087578063e2ac77b014610c03578063f24344e614610c29578063f34862de14610c31578063fe2ba84814610c57578063febb33de14610c7d5761042f565b8063d66a255314610b8a578063d9a7244414610bb0578063da303f1414610bcd578063dba1c5f214610bd5578063dc62a70214610bdd5761042f565b8063cbd138ae1161010a578063cbd138ae14610afc578063d293c71014610b22578063d380a37c14610b4e578063d3d6f84314610b56578063d5205e4814610b825761042f565b8063b83f91a214610a4a578063b91af97c14610a52578063bcd3752614610a9e578063bf9befb114610aec578063c7b5548114610af45761042f565b806396d711ff116101d4578063a537896f11610198578063a537896f146109ef578063ae91875414610a0c578063b0d8e18114610a14578063b620115d14610a3a578063b7f8cf9b14610a425761042f565b806396d711ff146109ab5780639976cf45146109b35780639dd233d2146109df578063a20baee6146108ef578063a3a64017146109e75761042f565b8063795d26c314610924578063797250e31461092c5780637f7dde4a14610934578063807d138d1461093c578063814a0a451461094457806382fe3eb91461096d578063887105d3146109935780638da5cb5b1461099b5780638f32d59b146109a35761042f565b80634870dd9a1161033d578063631203b0116102d557806372423c171161029957806372423c17146108c357806372fe25aa146108ef578063741bef1a146108f7578063756b253e146108ff578063794e57241461091c5761042f565b8063631203b01461078357806364cee260146107a0578063653d46e7146107c65780636c37a4af146107e35780636ef64338146108545761042f565b80634870dd9a146106cf57806349eefeee146106d75780634ff81443146106df57806354062a45146106fc5780635733d58f146107195780635d6b480f146107215780635d8c96091461074d5780635dba4c4a1461077357806361ec893d1461077b5761042f565b806318f2817a116103cb5780632e86bbd81161038f5780632e86bbd8146106575780632f8655681461065f5780633cc742251461068557806343a124fa1461068d578063480cd578146106a95761042f565b806318f2817a146105435780631d08837b146105695780631e8b1c2b146105865780631f68f20a1461062957806321e37801146106315761042f565b8063043782fb14610434578063048c661d1461043e578063060d49a314610462578063071a75411461047c5780630b07655714610484578063105bb15c146104aa57806312610e92146104b257806315d549f1146104de5780631673c79a14610504575b600080fd5b61043c610c9a565b005b610446610ca0565b604080516001600160a01b039092168252519081900360200190f35b61046a610caf565b60408051918252519081900360200190f35b61046a610cb5565b61043c6004803603602081101561049a57600080fd5b50356001600160a01b0316610cba565b61046a610cce565b61046a600480360360408110156104c857600080fd5b506001600160a01b038135169060200135610cdd565b61046a600480360360208110156104f457600080fd5b50356001600160a01b0316610d35565b61052a6004803603602081101561051a57600080fd5b50356001600160a01b0316610d59565b6040805192835260208301919091528051918290030190f35b61046a6004803603602081101561055957600080fd5b50356001600160a01b0316610d72565b61043c6004803603602081101561057f57600080fd5b5035610d85565b61043c6004803603602081101561059c57600080fd5b8101906020810181356401000000008111156105b757600080fd5b8201836020820111156105c957600080fd5b803590602001918460208302840111640100000000831117156105eb57600080fd5b919080806020026020016040519081016040528093929190818152602001838360200280828437600092019190915250929550610d8a945050505050565b61046a6110d2565b61046a6004803603602081101561064757600080fd5b50356001600160a01b03166110d8565b61046a611102565b61043c6004803603602081101561067557600080fd5b50356001600160a01b031661110e565b610446611174565b610695611183565b604080519115158252519081900360200190f35b61046a600480360360208110156106bf57600080fd5b50356001600160a01b031661118d565b61046a6111ab565b61046a6111b0565b61046a600480360360208110156106f557600080fd5b50356111b6565b61046a6004803603602081101561071257600080fd5b50356111c1565b61046a6111cc565b61043c6004803603604081101561073757600080fd5b506001600160a01b0381351690602001356111d8565b61046a6004803603602081101561076357600080fd5b50356001600160a01b0316611224565b61043c6112b3565b61046a6112e6565b61046a6004803603602081101561079957600080fd5b50356112eb565b61046a600480360360208110156107b657600080fd5b50356001600160a01b031661130e565b61043c600480360360208110156107dc57600080fd5b503561132c565b61043c60048036036101408110156107fa57600080fd5b506001600160a01b038135811691602081013582169160408201358116916060810135821691608082013581169160a081013582169160c082013581169160e081013582169161010082013581169161012001351661146d565b61087a6004803603602081101561086a57600080fd5b50356001600160a01b0316611814565b6040518086815260200185815260200184815260200183600281111561089c57fe5b60ff1681526001600160801b03909216602083015250604080519182900301945092505050f35b61046a600480360360408110156108d957600080fd5b506001600160a01b03813516906020013561184e565b61046a6118ab565b6104466118b7565b6104466004803603602081101561091557600080fd5b50356118c6565b61046a6118ed565b61046a6118f9565b61046a6119fa565b610446611a00565b61046a611a0f565b61046a6004803603606081101561095a57600080fd5b5080359060208101359060400135611a15565b61043c6004803603602081101561098357600080fd5b50356001600160a01b0316611a2c565b61046a611a3d565b610446611af9565b610695611b08565b61046a611b19565b61046a600480360360408110156109c957600080fd5b506001600160a01b038135169060200135611b1f565b61046a611b52565b610446611b58565b61046a60048036036020811015610a0557600080fd5b5035611b67565b610446611b72565b61046a60048036036020811015610a2a57600080fd5b50356001600160a01b0316611b81565b61046a611ba8565b610446611bb2565b610446611bc1565b610a7860048036036020811015610a6857600080fd5b50356001600160a01b0316611bd0565b604080519485526020850193909352838301919091526060830152519081900360800190f35b61043c600480360360e0811015610ab457600080fd5b508035906001600160a01b03602082013581169160408101358216916060820135169060808101359060a08101359060c00135611c34565b61046a6122e7565b61046a6122ed565b61043c60048036036020811015610b1257600080fd5b50356001600160a01b03166122f9565b61046a60048036036040811015610b3857600080fd5b506001600160a01b03813516906020013561230a565b61046a612329565b61046a60048036036040811015610b6c57600080fd5b506001600160a01b03813516906020013561232f565b61046a612365565b61046a60048036036020811015610ba057600080fd5b50356001600160a01b0316612371565b61044660048036036020811015610bc657600080fd5b503561238c565b61046a6123b6565b61046a6123e6565b61043c60048036036020811015610bf357600080fd5b50356001600160a01b03166123ec565b61069560048036036020811015610c1957600080fd5b50356001600160a01b03166123f9565b61046a61241b565b61046a60048036036020811015610c4757600080fd5b50356001600160a01b0316612427565b61043c60048036036020811015610c6d57600080fd5b50356001600160a01b0316612458565b61046a60048036036020811015610c9357600080fd5b5035612469565b42600c55565b6005546001600160a01b031681565b60165481565b600281565b610cc261247a565b610ccb816124c5565b50565b6000610cd86125e2565b905090565b6000610ce761247a565b6001600160a01b0383166000908152600d6020526040812054610d10908463ffffffff6125fe16565b6001600160a01b0385166000908152600d602052604090208190559150505b92915050565b6000610d3f61247a565b610d4882612640565b6001600160801b031690505b919050565b6013602052600090815260409020805460019091015482565b6000610d7c61247a565b610d2f826126da565b600b55565b8051610dc75760405162461bcd60e51b815260040180806020018281038252603681526020018061502c6036913960400191505060405180910390fd5b610dcf614da6565b610dd7614dd7565b600260009054906101000a90046001600160a01b03166001600160a01b03166398d5fdca6040518163ffffffff1660e01b815260040160206040518083038186803b158015610e2557600080fd5b505afa158015610e39573d6000803e3d6000fd5b505050506040513d6020811015610e4f57600080fd5b50518252600554604080516326fcbc6b60e21b815290516001600160a01b0390921691639bf2f1ac91600480820192602092909190829003018186803b158015610e9857600080fd5b505afa158015610eac573d6000803e3d6000fd5b505050506040513d6020811015610ec257600080fd5b50516020830152610ed1612755565b15156040830181905260011415610efc57610ef58260000151836020015185612770565b9050610f12565b610f0f8260000151836020015185612958565b90505b600554608082015160a08301516040805163335525ad60e01b815260048101939093526024830191909152516001600160a01b039092169163335525ad9160448082019260009290919082900301818387803b158015610f7157600080fd5b505af1158015610f85573d6000803e3d6000fd5b50505050610f9b8160c001518260e00151612a1e565b6101008101511561101a5760008054600754610100840151604080516364a197f360e01b81526001600160a01b03938416600482015260248101929092525191909216926364a197f3926044808201939182900301818387803b15801561100157600080fd5b505af1158015611015573d6000803e3d6000fd5b505050505b6110278160400151612c4d565b602081015160608301526101008101516040820151825161105f9291611053919063ffffffff6125fe16565b9063ffffffff6125fe16565b608080840182905260608085015160408086015186840151825193845260208401969096528282015291810193909352517f4152c73dd2614c4f9fc35e8c9cf16013cd588c75b49a4c1673ecffdcbcda94039281900390910190a16110cd3382606001518360400151612d5a565b505050565b600b5481565b6001600160a01b0381166000908152600d602052604081206003015460ff166002811115610d2f57fe5b678ac7230489e8000081565b61111781612e4e565b60408051600180825281830190925260609160208083019080368337019050509050818160008151811061114757fe5b60200260200101906001600160a01b031690816001600160a01b03168152505061117081610d8a565b5050565b6001546001600160a01b031681565b6000610cd8612755565b6001600160a01b03166000908152600d602052604090206001015490565b60c881565b60145490565b6000610d2f82612eb6565b6000610d2f82612ed0565b6714d1120d7b16000081565b6111e061247a565b8060028111156111ec57fe5b6001600160a01b0383166000908152600d60205260409020600301805460ff1916600183600281111561121b57fe5b02179055505050565b6001600160a01b0381166000908152601360205260408120546011548290611252908363ffffffff6125fe16565b90508061126457600092505050610d54565b6001600160a01b0384166000908152600d6020526040812060020154906112a9670de0b6b3a764000061129d848663ffffffff612eea16565b9063ffffffff612f4316565b9695505050505050565b6112bb61247a565b60006112c5612f85565b9050670de0b6b3a76400008111156112d957fe5b600b819055610ccb612fc9565b603c81565b6000610d2f670de0b6b3a764000061129d600b5485612eea90919063ffffffff16565b6001600160a01b03166000908152600d602052604090206002015490565b611334614da6565b61133c614dd7565b600260009054906101000a90046001600160a01b03166001600160a01b03166398d5fdca6040518163ffffffff1660e01b815260040160206040518083038186803b15801561138a57600080fd5b505afa15801561139e573d6000803e3d6000fd5b505050506040513d60208110156113b457600080fd5b50518252600554604080516326fcbc6b60e21b815290516001600160a01b0390921691639bf2f1ac91600480820192602092909190829003018186803b1580156113fd57600080fd5b505afa158015611411573d6000803e3d6000fd5b505050506040513d602081101561142757600080fd5b50516020830152611436612755565b1515604083018190526001141561145a57610ef58260000151836020015185612ff1565b610f0f8260000151836020015185613370565b611475611b08565b6114c6576040805162461bcd60e51b815260206004820181905260248201527f4f776e61626c653a2063616c6c6572206973206e6f7420746865206f776e6572604482015290519081900360640190fd5b6114cf8a61349d565b6114d88961349d565b6114e18861349d565b6114ea8761349d565b6114f38661349d565b6114fc8561349d565b6115058461349d565b61150e8361349d565b6115178261349d565b6115208161349d565b600480546001600160a01b03199081166001600160a01b038d81169182179093556000805483168d85161790556001805483168c85161790556005805483168b85161790556006805483168a8516179055600780548316898516179055600280548316888516179055600880548316878516179055600a805483168685161790556009805490921692841692909217905560408051918252517f3ca631ffcd2a9b5d9ae18543fc82f58eb4ca33af9e6ab01b7a8e95331e6ed985916020908290030190a1604080516001600160a01b038b16815290517f78f058b189175430c48dc02699e3a0031ea4ff781536dc2fab847de4babdd8829181900360200190a1604080516001600160a01b038a16815290517f5ee0cae2f063ed938bb55046f6a932fb6ae792bf43624806bb90abe68a50be9b9181900360200190a1604080516001600160a01b038916815290517f82966d27eea39b038ee0fa30cd16532bb24f6e65d31cb58fb227aa5766cdcc7f9181900360200190a1604080516001600160a01b038816815290517fcfb07d791fcafc032b35837b50eb84b74df518cf4cc287e8084f47630fa70fa09181900360200190a1604080516001600160a01b038716815290517fe67f36a6e961157d6eff83b91f3af5a62131ceb6f04954ef74f51c1c05e7f88d9181900360200190a1604080516001600160a01b038616815290517f8c537274438aa850a330284665d81a85dd38267d09e4050d416bfc94142db2649181900360200190a1604080516001600160a01b038516815290517f227eec0ec317af6ab1a9587ffa1c84332522eb4c583a908f89babc05f8f339bd9181900360200190a1604080516001600160a01b038416815290517f65f4cf077bc01e4742eb5ad98326f6e95b63548ea24b17f8d5e823111fe788009181900360200190a1604080516001600160a01b038316815290517f756ebc192164c295bba134b5aacd72cc7aff8098a670d1f0a5f6b3a0b4ce67079181900360200190a161180861354c565b50505050505050505050565b600d6020526000908152604090208054600182015460028301546003909301549192909160ff81169061010090046001600160801b031685565b600061185861247a565b6001600160a01b0383166000908152600d6020526040812060010154611884908463ffffffff61359616565b6001600160a01b0385166000908152600d6020526040902060010181905591505092915050565b670de0b6b3a764000081565b6002546001600160a01b031681565b601481815481106118d357fe5b6000918252602090912001546001600160a01b0316905081565b670f43fc2c04ee000081565b6000805460408051632f5a97e560e11b8152905183926001600160a01b031691635eb52fca916004808301926020929190829003018186803b15801561193e57600080fd5b505afa158015611952573d6000803e3d6000fd5b505050506040513d602081101561196857600080fd5b505160015460408051632f5a97e560e11b815290519293506000926001600160a01b0390921691635eb52fca91600480820192602092909190829003018186803b1580156119b557600080fd5b505afa1580156119c9573d6000803e3d6000fd5b505050506040513d60208110156119df57600080fd5b505190506119f3828263ffffffff61359616565b9250505090565b60155481565b6000546001600160a01b031681565b600f5481565b6000611a228484846135f0565b90505b9392505050565b611a3461247a565b610ccb81613620565b6000805460408051630a7b61df60e11b8152905183926001600160a01b0316916314f6c3be916004808301926020929190829003018186803b158015611a8257600080fd5b505afa158015611a96573d6000803e3d6000fd5b505050506040513d6020811015611aac57600080fd5b505160015460408051630a7b61df60e11b815290519293506000926001600160a01b03909216916314f6c3be91600480820192602092909190829003018186803b1580156119b557600080fd5b6003546001600160a01b031690565b6003546001600160a01b0316331490565b60105481565b6000611b2961247a565b6001600160a01b0383166000908152600d6020526040812054610d10908463ffffffff61359616565b60115481565b6009546001600160a01b031681565b6000610d2f8261364a565b600a546001600160a01b031681565b6000806000611b8f84613651565b915091506000611b9f83836136d7565b95945050505050565b6000610cd861370c565b6004546001600160a01b031681565b6008546001600160a01b031681565b6001600160a01b0381166000908152600d602052604081208054600190910154909180611bfc85612427565b9150611c0785611224565b9050611c19848363ffffffff61359616565b9350611c2b838263ffffffff61359616565b92509193509193565b611c3c6137b6565b611c4587613804565b611c4f3388613843565b60008060009054906101000a90046001600160a01b03166001600160a01b0316635eb52fca6040518163ffffffff1660e01b815260040160206040518083038186803b158015611c9e57600080fd5b505afa158015611cb2573d6000803e3d6000fd5b505050506040513d6020811015611cc857600080fd5b505160015460408051632f5a97e560e11b815290519293506000926001600160a01b0390921691635eb52fca91600480820192602092909190829003018186803b158015611d1557600080fd5b505afa158015611d29573d6000803e3d6000fd5b505050506040513d6020811015611d3f57600080fd5b50519050611d53828263ffffffff61359616565b600854604080516370a0823160e01b815233600482015290516001600160a01b03909216916370a0823191602480820192602092909190829003018186803b158015611d9e57600080fd5b505afa158015611db2573d6000803e3d6000fd5b505050506040513d6020811015611dc857600080fd5b50511115611dd257fe5b60025460408051634c6afee560e11b815290518b926000926001600160a01b03909116916398d5fdca91600480820192602092909190829003018186803b158015611e1c57600080fd5b505afa158015611e30573d6000803e3d6000fd5b505050506040513d6020811015611e4657600080fd5b50519050611e52614e23565b611e5c8b836138fc565b15611e72576001600160a01b038b168152611fb5565b600a60009054906101000a90046001600160a01b03166001600160a01b0316634d6228316040518163ffffffff1660e01b815260040160206040518083038186803b158015611ec057600080fd5b505afa158015611ed4573d6000803e3d6000fd5b505050506040513d6020811015611eea57600080fd5b50516001600160a01b031681525b80516001600160a01b031615801590611f255750670f43fc2c04ee0000611f2382600001518461230a565b105b15611fb557600a54815160408051632dc9c0eb60e21b81526001600160a01b0392831660048201529051919092169163b72703ac916024808301926020929190829003018186803b158015611f7957600080fd5b505afa158015611f8d573d6000803e3d6000fd5b505050506040513d6020811015611fa357600080fd5b50516001600160a01b03168152611ef8565b86611fc05760001996505b80516001600160a01b031615801590611fd95750600083115b8015611fe55750600087115b1561210957600a54815160408051632dc9c0eb60e21b81526001600160a01b0392831660048201529051600019909a0199600093929092169163b72703ac91602480820192602092909190829003018186803b15801561204457600080fd5b505afa158015612058573d6000803e3d6000fd5b505050506040513d602081101561206e57600080fd5b5051825190915061207e906124c5565b612086614e62565b82516120969086868f8f8f613a5f565b80519091506120a6575050612109565b805160208401516120bc9163ffffffff61359616565b60208085019190915281015160408401516120dc9163ffffffff61359616565b604084015280516120f490869063ffffffff6125fe16565b6001600160a01b039092168352509250611fc0565b612117816040015183613cee565b506121258160400151613e77565b6060820181905286101580612138575085155b6121735760405162461bcd60e51b8152600401808060200182810382526032815260200180614f066032913960400191505060405180910390fd5b600080546009546060840151604080516364a197f360e01b81526001600160a01b03938416600482015260248101929092525191909216926364a197f3926044808201939182900301818387803b1580156121cd57600080fd5b505af11580156121e1573d6000803e3d6000fd5b5050600954606084015160408051630f1f150d60e11b81526004810192909252516001600160a01b039092169350631e3e2a1a925060248082019260009290919082900301818387803b15801561223757600080fd5b505af115801561224b573d6000803e3d6000fd5b5050505060608101516040820151612262916125fe565b8160800181815250507f43a3f4082a4dbc33d78e317d2497d3a730bc7fc3574159dcea1056e62e5d9ad88c8260200151836040015184606001516040518085815260200184815260200183815260200182815260200194505050505060405180910390a16122d93382602001518360800151613e9a565b505050505050505050505050565b600e5481565b670de01e5e7be69fc781565b61230161247a565b610ccb81613fbb565b600080600061231885613651565b9150915060006112a98383876135f0565b600c5481565b600061233961247a565b6001600160a01b0383166000908152600d6020526040812060010154611884908463ffffffff6125fe16565b678ac7230489e8000090565b6001600160a01b03166000908152600d602052604090205490565b60006014828154811061239b57fe5b6000918252602090912001546001600160a01b031692915050565b60006123c0612f85565b600b55670de0b6b3a7640000600b5411156123d757fe5b6123df612fc9565b50600b5490565b60125481565b601454611170828261407d565b6011546001600160a01b03821660009081526013602052604090205410919050565b6729a2241af62c000081565b6001600160a01b0381166000908152601360205260408120600101546012548290611252908363ffffffff6125fe16565b61246061247a565b610ccb816141ca565b600061247482613e77565b50919050565b6004546001600160a01b031633146124c35760405162461bcd60e51b815260040180806020018281038252603b815260200180614ff1603b913960400191505060405180910390fd5b565b6124ce816123f9565b15610ccb576124dc81612e4e565b60006124e782611224565b905060006124f483612427565b6001600160a01b0384166000908152600d6020526040902060010154909150612523908363ffffffff61359616565b6001600160a01b0384166000908152600d60205260409020600181019190915554612554908263ffffffff61359616565b6001600160a01b0384166000908152600d602052604090205561257683613620565b612580818361421a565b6001600160a01b0383166000818152600d60209081526040808320805460018201546002909201548351918252938101919091528082019290925260608201929092529051600080516020614fd18339815191529181900360800190a2505050565b6000610cd8603c61129d600c54426125fe90919063ffffffff16565b6000611a2583836040518060400160405280601e81526020017f536166654d6174683a207375627472616374696f6e206f766572666c6f77000081525061432e565b601480546001808201835560008381527fce6d7b5282bd9a3661ae061feed1dbda4e52ab073b1f9285be6e155d9c38d4ec90920180546001600160a01b0319166001600160a01b0386161790559154909161269b91906125fe565b6001600160a01b03929092166000908152600d602052604090206003018054610100600160881b0319166101006001600160801b038516021790555090565b6001600160a01b0381166000908152600d60205260408120600101548190612701906143c5565b6001600160a01b0384166000908152600d60205260409020600201805490829055600e549192509061274b90839061273f908463ffffffff6125fe16565b9063ffffffff61359616565b600e555092915050565b60008061276061370c565b6714d1120d7b1600001191505090565b612778614dd7565b612780614e7c565b612788614dd7565b8482526000608083015261279a6118f9565b60a08301526127a7611a3d565b60c0830152600060208301525b83518260200151101561294f57838260200151815181106127d157fe5b60209081029190910101516001600160a01b0316606083018190526127f6908761230a565b604083015260808201516128de57670f43fc2c04ee000082604001511015801561281f57508151155b156128295761293f565b600061283e8360c001518460a00151896135f0565b9050612859836060015184604001518560000151848b614401565b60808101518451919350612873919063ffffffff6125fe16565b8352608082015160a084015161288e9163ffffffff6125fe16565b60a08085019190915282015160c08401516128ae9163ffffffff6125fe16565b60c08401526128bd84836146ab565b93506128d28360c001518460a00151896147c2565b1560808401525061293f565b6080820151151560011480156128ff5750670f43fc2c04ee00008260400151105b1561293f57612916826060015183600001516147e3565b60808101518351919250612930919063ffffffff6125fe16565b825261293c83826146ab565b92505b60208201805160010190526127b4565b50509392505050565b612960614dd7565b612968614e7c565b612970614dd7565b848252600060208301525b83518260200151101561294f578382602001518151811061299857fe5b60209081029190910101516001600160a01b0316606083018190526129bd908761230a565b60408301819052670f43fc2c04ee00001115612a0e576129e5826060015183600001516147e3565b608081015183519192506129ff919063ffffffff6125fe16565b8252612a0b83826146ab565b92505b602082018051600101905261297b565b81612a2857611170565b601554600090612a4a9061273f84670de0b6b3a764000063ffffffff612eea16565b90506000612a6f60165461273f670de0b6b3a764000087612eea90919063ffffffff16565b90506000612a88600e5484612f4390919063ffffffff16565b90506000612aa1600e5484612f4390919063ffffffff16565b9050612ac8612abb600e5484612eea90919063ffffffff16565b859063ffffffff6125fe16565b601555600e54612af090612ae390839063ffffffff612eea16565b849063ffffffff6125fe16565b601655601154612b06908363ffffffff61359616565b601155601254612b1c908263ffffffff61359616565b601255600080546040805163071b32b560e31b8152600481018a905290516001600160a01b03909216926338d995a89260248084019382900301818387803b158015612b6757600080fd5b505af1158015612b7b573d6000803e3d6000fd5b5050600154604080516367dc994d60e11b8152600481018b905290516001600160a01b03909216935063cfb9329a925060248082019260009290919082900301818387803b158015612bcc57600080fd5b505af1158015612be0573d6000803e3d6000fd5b505060008054600154604080516364a197f360e01b81526001600160a01b039283166004820152602481018c905290519190921694506364a197f393506044808301939282900301818387803b158015612c3957600080fd5b505af1158015611808573d6000803e3d6000fd5b600e54600f556000805460408051630a7b61df60e11b815290516001600160a01b03909216916314f6c3be91600480820192602092909190829003018186803b158015612c9957600080fd5b505afa158015612cad573d6000803e3d6000fd5b505050506040513d6020811015612cc357600080fd5b505160015460408051630a7b61df60e11b815290519293506000926001600160a01b03909216916314f6c3be91600480820192602092909190829003018186803b158015612d1057600080fd5b505afa158015612d24573d6000803e3d6000fd5b505050506040513d6020811015612d3a57600080fd5b50519050612d528161273f848663ffffffff6125fe16565b601055505050565b8115612dd95760085460065460408051631062c15f60e11b81526001600160a01b039283166004820152868316602482015260448101869052905191909216916320c582be91606480830192600092919082900301818387803b158015612dc057600080fd5b505af1158015612dd4573d6000803e3d6000fd5b505050505b80156110cd5760008054604080516364a197f360e01b81526001600160a01b03878116600483015260248201869052915191909216926364a197f3926044808201939182900301818387803b158015612e3157600080fd5b505af1158015612e45573d6000803e3d6000fd5b50505050505050565b60016001600160a01b0382166000908152600d602052604090206003015460ff166002811115612e7a57fe5b14610ccb5760405162461bcd60e51b815260040180806020018281038252602f8152602001806150ba602f913960400191505060405180910390fd5b6000610d2f82678ac7230489e8000063ffffffff61359616565b6000610d2f82678ac7230489e8000063ffffffff6125fe16565b600082612ef957506000610d2f565b82820282848281612f0657fe5b0414611a255760405162461bcd60e51b8152600401808060200182810382526021815260200180614f626021913960400191505060405180910390fd5b6000611a2583836040518060400160405280601a81526020017f536166654d6174683a206469766973696f6e206279207a65726f0000000000008152506148f1565b600080612f906125e2565b90506000612fa6670de01e5e7be69fc783614956565b90506119f3670de0b6b3a764000061129d83600b54612eea90919063ffffffff16565b6000612fe0600c54426125fe90919063ffffffff16565b9050603c8110610ccb5742600c5550565b612ff9614dd7565b613001614e7c565b613009614dd7565b8482526000608083015261301b6118f9565b60a0830152613028611a3d565b60c0830152600a5460408051634d62283160e01b815290516001600160a01b0390921691634d62283191600480820192602092909190829003018186803b15801561307257600080fd5b505afa158015613086573d6000803e3d6000fd5b505050506040513d602081101561309c57600080fd5b50516001600160a01b039081166060840152600a5460408051631e22314360e01b815290516000939290921691631e22314391600480820192602092909190829003018186803b1580156130ef57600080fd5b505afa158015613103573d6000803e3d6000fd5b505050506040513d602081101561311957600080fd5b50516000602085015290505b84836020015110801561314e5750806001600160a01b031683606001516001600160a01b031614155b1561336657600a54606084015160408051632dc9c0eb60e21b81526001600160a01b0392831660048201529051600093929092169163b72703ac91602480820192602092909190829003018186803b1580156131a957600080fd5b505afa1580156131bd573d6000803e3d6000fd5b505050506040513d60208110156131d357600080fd5b505160608501519091506131e7908961230a565b604085015260808401516132dd57670f43fc2c04ee000084604001511015801561321057508351155b1561321b5750613366565b60006132308560c001518660a001518b6135f0565b905061324b856060015186604001518760000151848d614401565b60808101518651919550613265919063ffffffff6125fe16565b8552608084015160a08601516132809163ffffffff6125fe16565b8560a00181815250506132ad8461010001516110538660a001518860c001516125fe90919063ffffffff16565b60c08601526132bc86856146ab565b95506132d18560c001518660a001518b6147c2565b15608086015250613348565b6080840151151560011480156132fe5750670f43fc2c04ee00008460400151105b1561334257613315846060015185600001516147e3565b6080810151855191945061332f919063ffffffff6125fe16565b845261333b85846146ab565b9450613348565b50613366565b6001600160a01b031660608401526020830180516001019052613125565b5050509392505050565b613378614dd7565b613380614e7c565b613388614dd7565b848252600060208301525b838260200151101561294f57600a60009054906101000a90046001600160a01b03166001600160a01b0316634d6228316040518163ffffffff1660e01b815260040160206040518083038186803b1580156133ed57600080fd5b505afa158015613401573d6000803e3d6000fd5b505050506040513d602081101561341757600080fd5b50516001600160a01b031660608301819052613433908761230a565b60408301819052670f43fc2c04ee000011156134885761345b826060015183600001516147e3565b60808101518351919250613475919063ffffffff6125fe16565b825261348183826146ab565b925061348d565b61294f565b6020820180516001019052613393565b6001600160a01b0381166134f8576040805162461bcd60e51b815260206004820152601e60248201527f4163636f756e742063616e6e6f74206265207a65726f20616464726573730000604482015290519081900360640190fd5b803b80611170576040805162461bcd60e51b815260206004820181905260248201527f4163636f756e7420636f64652073697a652063616e6e6f74206265207a65726f604482015290519081900360640190fd5b6003546040516000916001600160a01b0316907f8be0079c531659141344cd1fd0a4f28419497f9722a3daafe3b4186f6b6457e0908390a3600380546001600160a01b0319169055565b600082820183811015611a25576040805162461bcd60e51b815260206004820152601b60248201527f536166654d6174683a206164646974696f6e206f766572666c6f770000000000604482015290519081900360640190fd5b6000821561361757600061360e8461129d878663ffffffff612eea16565b9150611a259050565b50600019611a25565b6011546001600160a01b039091166000908152601360205260409020908155601254600190910155565b60c8900490565b600080600061365f84611224565b9050600061366c85612427565b6001600160a01b0386166000908152600d60205260408120600101549192509061369c908463ffffffff61359616565b6001600160a01b0387166000908152600d6020526040812054919250906136c9908463ffffffff61359616565b919550909350505050915091565b60008115613703576136fc8261129d8568056bc75e2d6310000063ffffffff612eea16565b9050610d2f565b50600019610d2f565b600080600260009054906101000a90046001600160a01b03166001600160a01b03166398d5fdca6040518163ffffffff1660e01b815260040160206040518083038186803b15801561375d57600080fd5b505afa158015613771573d6000803e3d6000fd5b505050506040513d602081101561378757600080fd5b505190506000613795611a3d565b905060006137a16118f9565b90506137ae8282856135f0565b935050505090565b670f43fc2c04ee00006137c761370c565b10156124c35760405162461bcd60e51b815260040180806020018281038252602a815260200180615090602a913960400191505060405180910390fd5b60008111610ccb5760405162461bcd60e51b815260040180806020018281038252602e815260200180615062602e913960400191505060405180910390fd5b600854604080516370a0823160e01b81526001600160a01b0385811660048301529151849392909216916370a0823191602480820192602092909190829003018186803b15801561389357600080fd5b505afa1580156138a7573d6000803e3d6000fd5b505050506040513d60208110156138bd57600080fd5b505110156111705760405162461bcd60e51b815260040180806020018281038252604e815260200180614f83604e913960600191505060405180910390fd5b60006001600160a01b038316158061398a5750600a5460408051630bb7c8fd60e31b81526001600160a01b03868116600483015291519190921691635dbe47e8916024808301926020929190829003018186803b15801561395c57600080fd5b505afa158015613970573d6000803e3d6000fd5b505050506040513d602081101561398657600080fd5b5051155b806139a55750670f43fc2c04ee00006139a3848461230a565b105b156139b257506000610d2f565b600a546040805163765e015960e01b81526001600160a01b0386811660048301529151600093929092169163765e015991602480820192602092909190829003018186803b158015613a0357600080fd5b505afa158015613a17573d6000803e3d6000fd5b505050506040513d6020811015613a2d57600080fd5b505190506001600160a01b0381161580613a575750670f43fc2c04ee0000613a55828561230a565b105b949350505050565b613a67614e62565b6001600160a01b0387166000908152600d6020526040902054613aa3908790613a9e90678ac7230489e8000063ffffffff6125fe16565b614a01565b808252613ac490869061129d90670de0b6b3a764000063ffffffff612eea16565b60208083019190915281516001600160a01b0389166000908152600d9092526040822054613af79163ffffffff6125fe16565b6020808401516001600160a01b038b166000908152600d90925260408220600101549293509091613b2d9163ffffffff6125fe16565b9050678ac7230489e80000821415613bc157613b48896141ca565b613b5189613fbb565b613b6489678ac7230489e8000083614a17565b886001600160a01b0316600080516020614fd18339815191526000806000600360405180858152602001848152602001838152602001826003811115613ba657fe5b60ff16815260200194505050505060405180910390a2613ce2565b6000613bcd82846136d7565b9050848114613be857505060008083526020830152506112a9565b600a546040805163015f109360e51b81526001600160a01b038d81166004830152602482018590528a81166044830152898116606483015291519190921691632be2126091608480830192600092919082900301818387803b158015613c4d57600080fd5b505af1158015613c61573d6000803e3d6000fd5b5050506001600160a01b038b166000908152600d6020526040902084815560010183905550613c8f8a6126da565b506001600160a01b038a166000818152600d602090815260409182902060020154825187815291820186905281830152600360608201529051600080516020614fd18339815191529181900360800190a2505b50509695505050505050565b600080613cf9612f85565b905060008060009054906101000a90046001600160a01b03166001600160a01b0316635eb52fca6040518163ffffffff1660e01b815260040160206040518083038186803b158015613d4a57600080fd5b505afa158015613d5e573d6000803e3d6000fd5b505050506040513d6020811015613d7457600080fd5b505160015460408051632f5a97e560e11b815290519293506000926001600160a01b0390921691635eb52fca91600480820192602092909190829003018186803b158015613dc157600080fd5b505afa158015613dd5573d6000803e3d6000fd5b505050506040513d6020811015613deb57600080fd5b505190506000613e01838363ffffffff61359616565b90506000613e198261129d8a8a63ffffffff612eea16565b90506000613e3e613e3183600263ffffffff612f4316565b879063ffffffff61359616565b9050613e5281670de0b6b3a7640000614a01565b905060008111613e5e57fe5b600b819055613e6b612fc9565b98975050505050505050565b6000610d2f670de0b6b3a764000061129d84600b54612eea90919063ffffffff16565b60085460408051632770a7eb60e21b81526001600160a01b0386811660048301526024820186905291519190921691639dc29fac91604480830192600092919082900301818387803b158015613eef57600080fd5b505af1158015613f03573d6000803e3d6000fd5b5050600080546040805163071b32b560e31b81526004810188905290516001600160a01b0390921694506338d995a89350602480820193929182900301818387803b158015613f5157600080fd5b505af1158015613f65573d6000803e3d6000fd5b505060008054604080516364a197f360e01b81526001600160a01b0389811660048301526024820188905291519190921694506364a197f393506044808301939282900301818387803b158015612e3157600080fd5b601454613fc781614af3565b6001600160a01b0382166000908152600d6020908152604080832060038101805460ff19166002179055600180820185905590849055601390925282208281550155614013828261407d565b600a5460408051631484968760e11b81526001600160a01b038581166004830152915191909216916329092d0e91602480830192600092919082900301818387803b15801561406157600080fd5b505af1158015614075573d6000803e3d6000fd5b505050505050565b60026001600160a01b0383166000908152600d602052604090206003015460ff1660028111156140a957fe5b146140b057fe5b6001600160a01b0382166000908152600d602052604081206003015461010090046001600160801b03169082906140e88260016125fe565b905080836001600160801b031611156140fd57fe5b60006014828154811061410c57fe5b600091825260209091200154601480546001600160a01b03909216925082916001600160801b03871690811061413e57fe5b600091825260208083209190910180546001600160a01b0319166001600160a01b039485161790559183168152600d909152604090206003018054610100600160881b0319166101006001600160801b0387160217905560148054806141a057fe5b600082815260209020810160001990810180546001600160a01b0319169055019055505050505050565b6001600160a01b0381166000908152600d6020526040902060020154600e546141f9908263ffffffff6125fe16565b600e55506001600160a01b03166000908152600d6020526040812060020155565b6001546040805163071b32b560e31b81526004810185905290516001600160a01b03909216916338d995a89160248082019260009290919082900301818387803b15801561426757600080fd5b505af115801561427b573d6000803e3d6000fd5b505060008054604080516367dc994d60e11b81526004810188905290516001600160a01b03909216945063cfb9329a9350602480820193929182900301818387803b1580156142c957600080fd5b505af11580156142dd573d6000803e3d6000fd5b50506001546040805163be41205f60e01b81526004810186905290516001600160a01b03909216935063be41205f925060248082019260009290919082900301818387803b15801561406157600080fd5b600081848411156143bd5760405162461bcd60e51b81526004018080602001828103825283818151815260200191508051906020019080838360005b8381101561438257818101518382015260200161436a565b50505050905090810190601f1680156143af5780820380516001836020036101000a031916815260200191505b509250505060405180910390fd5b505050900390565b600080601054600014156143da575081610d2f565b6000600f54116143e657fe5b611a2560105461129d600f5486612eea90919063ffffffff16565b614409614dd7565b614411614ec4565b6014546001106144215750611b9f565b61442a87611bd0565b60408501908152602085810192835286019290925291845290519051614450919061421a565b61445d826020015161364a565b60408301819052678ac7230489e80000606084015260208301516144869163ffffffff6125fe16565b8152670de0b6b3a76400008611614520576144a0876141ca565b60006080830181905260a0830152815160c0830152805160e08301526144c587613fbb565b866001600160a01b0316600080516020614ee68339815191528360000151846020015160026040518084815260200183815260200182600381111561450657fe5b60ff168152602001935050505060405180910390a26146a1565b670de0b6b3a76400008611801561453e5750670f43fc2c04ee000086105b156145785761454c876141ca565b8151815161455b919087614bac565b60e086015260c085015260a084015260808301526144c587613fbb565b670f43fc2c04ee0000861015801561458f57508386105b801561459c575081518510155b1561469057846145a857fe5b6145b1876141ca565b6145c48260000151836020015185614c18565b91506145cf87613fbb565b6101008201511561464f5760075461010083015160408051633f10abab60e01b81526001600160a01b038b81166004830152602482019390935290519190921691633f10abab91604480830192600092919082900301818387803b15801561463657600080fd5b505af115801561464a573d6000803e3d6000fd5b505050505b866001600160a01b0316600080516020614ee683398151915283600001518460a0015160026040518084815260200183815260200182600381111561450657fe5b614698614dd7565b9150611b9f9050565b5095945050505050565b6146b3614dd7565b604080830151908401516146cc9163ffffffff61359616565b6040820152606080830151908401516146ea9163ffffffff61359616565b6060820152815160208401516147059163ffffffff61359616565b60208083019190915282015183516147229163ffffffff61359616565b81526080808301519084015161473d9163ffffffff61359616565b608082015260a0808301519084015161475b9163ffffffff61359616565b60a082015260c080830151908401516147799163ffffffff61359616565b60c082015260e080830151908401516147979163ffffffff61359616565b60e082015261010080830151908401516147b69163ffffffff61359616565b61010082015292915050565b6000806147d08585856135f0565b6714d1120d7b1600001195945050505050565b6147eb614dd7565b6147f3614ec4565b6147fc84611bd0565b60408501908152602085810192835286019290925291845290519051614822919061421a565b61482b846141ca565b614838826020015161364a565b60408301819052678ac7230489e8000060608401526020830151600091614865919063ffffffff6125fe16565b905061487683600001518286614bac565b60e087015260c086015260a0850152608084015261489385613fbb565b846001600160a01b0316600080516020614ee6833981519152846000015185602001516001604051808481526020018381526020018260038111156148d457fe5b60ff168152602001935050505060405180910390a2505092915050565b600081836149405760405162461bcd60e51b815260206004820181815283516024840152835190928392604490910191908501908083836000831561438257818101518382015260200161436a565b50600083858161494c57fe5b0495945050505050565b6000631f54050082111561496c57631f54050091505b816149805750670de0b6b3a7640000610d2f565b670de0b6b3a764000083835b60018111156149f757600281066149c1576149a78283614cb1565b91506149ba81600263ffffffff612f4316565b90506149f2565b6149cb8284614cb1565b92506149d78283614cb1565b91506149ef600261129d83600163ffffffff6125fe16565b90505b61498c565b6112a98284614cb1565b6000818310614a105781611a25565b5090919050565b60085460065460408051632770a7eb60e21b81526001600160a01b0392831660048201526024810186905290519190921691639dc29fac91604480830192600092919082900301818387803b158015614a6f57600080fd5b505af1158015614a83573d6000803e3d6000fd5b5050600080546040805163071b32b560e31b81526004810188905290516001600160a01b0390921694506338d995a89350602480820193929182900301818387803b158015614ad157600080fd5b505af1158015614ae5573d6000803e3d6000fd5b505050506110cd8382614ce4565b600181118015614b715750600a546040805163de8fa43160e01b815290516001926001600160a01b03169163de8fa431916004808301926020929190829003018186803b158015614b4357600080fd5b505afa158015614b57573d6000803e3d6000fd5b505050506040513d6020811015614b6d57600080fd5b5051115b610ccb5760405162461bcd60e51b815260040180806020018281038252602a815260200180614f38602a913960400191505060405180910390fd5b60008080808415614c0257614bc18786614a01565b9350614bd78761129d888763ffffffff612eea16565b9250614be9878563ffffffff6125fe16565b9150614bfb868463ffffffff6125fe16565b9050614c0f565b5060009250829150859050845b93509350935093565b614c20614dd7565b838152602081018390526000614c488361129d87670f43fc2c04ee000063ffffffff612eea16565b9050614c538161364a565b60408301819052678ac7230489e80000606084015260808301869052614c8090829063ffffffff6125fe16565b60a0830152614c95848263ffffffff6125fe16565b61010083015250600060c0820181905260e08201529392505050565b600080614cc4848463ffffffff612eea16565b9050613a57670de0b6b3a764000061129d836706f05b59d3b20000613596565b60075460408051633f10abab60e01b81526001600160a01b0385811660048301526024820185905291519190921691633f10abab91604480830192600092919082900301818387803b158015614d3957600080fd5b505af1158015614d4d573d6000803e3d6000fd5b505060008054600754604080516364a197f360e01b81526001600160a01b0392831660048201526024810188905290519190921694506364a197f393506044808301939282900301818387803b15801561406157600080fd5b6040518060a00160405280600081526020016000815260200160001515815260200160008152602001600081525090565b6040518061012001604052806000815260200160008152602001600081526020016000815260200160008152602001600081526020016000815260200160008152602001600081525090565b6040518060c0016040528060006001600160a01b0316815260200160008152602001600081526020016000815260200160008152602001600081525090565b604051806040016040528060008152602001600081525090565b6040518060e0016040528060008152602001600081526020016000815260200160006001600160a01b0316815260200160001515815260200160008152602001600081525090565b6040518060600160405280600081526020016000815260200160008152509056feea67486ed7ebe3eea8ab3390efd4a3c8aae48be5bea27df104a8af786c40843454726f76654d616e616765723a20726564656d7074696f6e206665652065786365656465642070726f7669646564206d617854726f76654d616e616765723a204f6e6c79206f6e652074726f766520696e207468652073797374656d536166654d6174683a206d756c7469706c69636174696f6e206f766572666c6f7754726f76654d616e616765723a2052657175657374656420726564656d7074696f6e20616d6f756e74206d757374206265203c3d20757365722773204c55534420746f6b656e2062616c616e6365c3770d654ed33aeea6bf11ac8ef05d02a6a04ed4686dd2f624d853bbec43cc8b54726f76654d616e616765723a2043616c6c6572206973206e6f742074686520426f72726f7765724f7065726174696f6e7320636f6e747261637454726f76654d616e616765723a2043616c6c646174612061646472657373206172726179206d757374206e6f7420626520656d70747954726f76654d616e616765723a20416d6f756e74206d7573742062652067726561746572207468616e207a65726f54726f76654d616e616765723a2043616e6e6f742072656465656d207768656e20544352203c204d435254726f76654d616e616765723a2054726f766520646f6573206e6f74206578697374206f7220697320636c6f736564a2646970667358221220d45a35ec70523be9e952485bac6425e0f5e16c851bf78791fd1cd0343dd706c664736f6c634300060b0033",
  "linkReferences": {},
  "deployedLinkReferences": {}
}