{
  "_format": "hh-sol-artifact-1",
  "contractName": "TroveManagerScript",
  "sourceName": "contracts/Proxy/TroveManagerScript.sol",
  "abi": [
    {
      "inputs": [
        {
          "internalType": "contract ITroveManager",
          "name": "_troveManager",
          "type": "address"
        }
      ],
      "stateMutability": "nonpayable",
      "type": "constructor"
    },
    {
      "inputs": [
        {
          "internalType": "uint256",
          "name": "_LUSDAmount",
          "type": "uint256"
        },
        {
          "internalType": "address",
          "name": "_firstRedemptionHint",
          "type": "address"
        },
        {
          "internalType": "address",
          "name": "_upperPartialRedemptionHint",
          "type": "address"
        },
        {
          "internalType": "address",
          "name": "_lowerPartialRedemptionHint",
          "type": "address"
        },
        {
          "internalType": "uint256",
          "name": "_partialRedemptionHintNICR",
          "type": "uint256"
        },
        {
          "internalType": "uint256",
          "name": "_maxIterations",
          "type": "uint256"
        },
        {
          "internalType": "uint256",
          "name": "_maxFee",
          "type": "uint256"
        }
      ],
      "name": "redeemCollateral",
      "outputs": [
        {
          "internalType": "uint256",
          "name": "",
          "type": "uint256"
        }
      ],
      "stateMutability": "nonpayable",
      "type": "function"
    }
  ],
  "bytecode": "0x60a060405234801561001057600080fd5b506040516102ab3803806102ab8339818101604052602081101561003357600080fd5b5051610047816001600160e01b0361005c16565b60601b6001600160601b03191660805261010f565b6001600160a01b0381166100b7576040805162461bcd60e51b815260206004820152601e60248201527f4163636f756e742063616e6e6f74206265207a65726f20616464726573730000604482015290519081900360640190fd5b803b8061010b576040805162461bcd60e51b815260206004820181905260248201527f4163636f756e7420636f64652073697a652063616e6e6f74206265207a65726f604482015290519081900360640190fd5b5050565b60805160601c61018061012b6000398060e152506101806000f3fe608060405234801561001057600080fd5b506004361061002b5760003560e01c8063bcd3752614610030575b600080fd5b61007e600480360360e081101561004657600080fd5b508035906001600160a01b03602082013581169160408101358216916060820135169060808101359060a08101359060c00135610090565b60408051918252519081900360200190f35b60408051635e69ba9360e11b8152600481018990526001600160a01b038881166024830152878116604483015286811660648301526084820186905260a4820185905260c4820184905291516000927f0000000000000000000000000000000000000000000000000000000000000000169163bcd375269160e4808301928692919082900301818387803b15801561012757600080fd5b505af115801561013b573d6000803e3d6000fd5b5050505097965050505050505056fea2646970667358221220f3747f2015935c8bd4b3e22c3a5ad1db718b12ab45ed39f3ef07d5a4591b490764736f6c634300060b0033",
  "linkReferences": {},
  "deployedLinkReferences": {}
}