{
  "_format": "hh-sol-artifact-1",
  "contractName": "TroveManagerTester",
  "sourceName": "contracts/TestContracts/CDPManagerTester.sol",
  "abi": [
    {
      "anonymous": false,
      "inputs": [
        {
          "indexed": false,
          "internalType": "address",
          "name": "_activePoolAddress",
          "type": "address"
        }
      ],
      "name": "ActivePoolAddressChanged",
      "type": "event"
    },
    {
      "anonymous": false,
      "inputs": [
        {
          "indexed": false,
          "internalType": "address",
          "name": "_newBorrowerOperationsAddress",
          "type": "address"
        }
      ],
      "name": "BorrowerOperationsAddressChanged",
      "type": "event"
    },
    {
      "anonymous": false,
      "inputs": [
        {
          "indexed": false,
          "internalType": "address",
          "name": "_collSurplusPoolAddress",
          "type": "address"
        }
      ],
      "name": "CollSurplusPoolAddressChanged",
      "type": "event"
    },
    {
      "anonymous": false,
      "inputs": [
        {
          "indexed": false,
          "internalType": "address",
          "name": "_defaultPoolAddress",
          "type": "address"
        }
      ],
      "name": "DefaultPoolAddressChanged",
      "type": "event"
    },
    {
      "anonymous": false,
      "inputs": [
        {
          "indexed": false,
          "internalType": "address",
          "name": "_lqtyStakingAddress",
          "type": "address"
        }
      ],
      "name": "LQTYStakingAddressChanged",
      "type": "event"
    },
    {
      "anonymous": false,
      "inputs": [
        {
          "indexed": false,
          "internalType": "address",
          "name": "_newLUSDTokenAddress",
          "type": "address"
        }
      ],
      "name": "LUSDTokenAddressChanged",
      "type": "event"
    },
    {
      "anonymous": false,
      "inputs": [
        {
          "indexed": false,
          "internalType": "uint256",
          "name": "_liquidatedDebt",
          "type": "uint256"
        },
        {
          "indexed": false,
          "internalType": "uint256",
          "name": "_liquidatedColl",
          "type": "uint256"
        },
        {
          "indexed": false,
          "internalType": "uint256",
          "name": "_collGasCompensation",
          "type": "uint256"
        },
        {
          "indexed": false,
          "internalType": "uint256",
          "name": "_LUSDGasCompensation",
          "type": "uint256"
        }
      ],
      "name": "Liquidation",
      "type": "event"
    },
    {
      "anonymous": false,
      "inputs": [
        {
          "indexed": true,
          "internalType": "address",
          "name": "previousOwner",
          "type": "address"
        },
        {
          "indexed": true,
          "internalType": "address",
          "name": "newOwner",
          "type": "address"
        }
      ],
      "name": "OwnershipTransferred",
      "type": "event"
    },
    {
      "anonymous": false,
      "inputs": [
        {
          "indexed": false,
          "internalType": "address",
          "name": "_newPriceFeedAddress",
          "type": "address"
        }
      ],
      "name": "PriceFeedAddressChanged",
      "type": "event"
    },
    {
      "anonymous": false,
      "inputs": [
        {
          "indexed": false,
          "internalType": "uint256",
          "name": "_attemptedLUSDAmount",
          "type": "uint256"
        },
        {
          "indexed": false,
          "internalType": "uint256",
          "name": "_actualLUSDAmount",
          "type": "uint256"
        },
        {
          "indexed": false,
          "internalType": "uint256",
          "name": "_ETHSent",
          "type": "uint256"
        },
        {
          "indexed": false,
          "internalType": "uint256",
          "name": "_ETHFee",
          "type": "uint256"
        }
      ],
      "name": "Redemption",
      "type": "event"
    },
    {
      "anonymous": false,
      "inputs": [
        {
          "indexed": false,
          "internalType": "address",
          "name": "_sortedTrovesAddress",
          "type": "address"
        }
      ],
      "name": "SortedTrovesAddressChanged",
      "type": "event"
    },
    {
      "anonymous": false,
      "inputs": [
        {
          "indexed": false,
          "internalType": "address",
          "name": "_stabilityPoolAddress",
          "type": "address"
        }
      ],
      "name": "StabilityPoolAddressChanged",
      "type": "event"
    },
    {
      "anonymous": false,
      "inputs": [
        {
          "indexed": true,
          "internalType": "address",
          "name": "_borrower",
          "type": "address"
        },
        {
          "indexed": false,
          "internalType": "uint256",
          "name": "_arrayIndex",
          "type": "uint256"
        }
      ],
      "name": "TroveCreated",
      "type": "event"
    },
    {
      "anonymous": false,
      "inputs": [
        {
          "indexed": true,
          "internalType": "address",
          "name": "_borrower",
          "type": "address"
        },
        {
          "indexed": false,
          "internalType": "uint256",
          "name": "_debt",
          "type": "uint256"
        },
        {
          "indexed": false,
          "internalType": "uint256",
          "name": "_coll",
          "type": "uint256"
        },
        {
          "indexed": false,
          "internalType": "enum TroveManager.TroveManagerOperation",
          "name": "_operation",
          "type": "uint8"
        }
      ],
      "name": "TroveLiquidated",
      "type": "event"
    },
    {
      "anonymous": false,
      "inputs": [
        {
          "indexed": true,
          "internalType": "address",
          "name": "_borrower",
          "type": "address"
        },
        {
          "indexed": false,
          "internalType": "uint256",
          "name": "_debt",
          "type": "uint256"
        },
        {
          "indexed": false,
          "internalType": "uint256",
          "name": "_coll",
          "type": "uint256"
        },
        {
          "indexed": false,
          "internalType": "uint256",
          "name": "_stake",
          "type": "uint256"
        },
        {
          "indexed": false,
          "internalType": "enum TroveManager.TroveManagerOperation",
          "name": "_operation",
          "type": "uint8"
        }
      ],
      "name": "TroveUpdated",
      "type": "event"
    },
    {
      "inputs": [],
      "name": "BETA",
      "outputs": [
        {
          "internalType": "uint256",
          "name": "",
          "type": "uint256"
        }
      ],
      "stateMutability": "view",
      "type": "function"
    },
    {
      "inputs": [],
      "name": "CCR",
      "outputs": [
        {
          "internalType": "uint256",
          "name": "",
          "type": "uint256"
        }
      ],
      "stateMutability": "view",
      "type": "function"
    },
    {
      "inputs": [],
      "name": "GAS_POOL_ADDRESS",
      "outputs": [
        {
          "internalType": "address",
          "name": "",
          "type": "address"
        }
      ],
      "stateMutability": "view",
      "type": "function"
    },
    {
      "inputs": [],
      "name": "LUSD_GAS_COMPENSATION",
      "outputs": [
        {
          "internalType": "uint256",
          "name": "",
          "type": "uint256"
        }
      ],
      "stateMutability": "view",
      "type": "function"
    },
    {
      "inputs": [],
      "name": "L_ETH",
      "outputs": [
        {
          "internalType": "uint256",
          "name": "",
          "type": "uint256"
        }
      ],
      "stateMutability": "view",
      "type": "function"
    },
    {
      "inputs": [],
      "name": "L_LUSDDebt",
      "outputs": [
        {
          "internalType": "uint256",
          "name": "",
          "type": "uint256"
        }
      ],
      "stateMutability": "view",
      "type": "function"
    },
    {
      "inputs": [],
      "name": "MCR",
      "outputs": [
        {
          "internalType": "uint256",
          "name": "",
          "type": "uint256"
        }
      ],
      "stateMutability": "view",
      "type": "function"
    },
    {
      "inputs": [],
      "name": "MINUTE_DECAY_FACTOR",
      "outputs": [
        {
          "internalType": "uint256",
          "name": "",
          "type": "uint256"
        }
      ],
      "stateMutability": "view",
      "type": "function"
    },
    {
      "inputs": [],
      "name": "PERCENT_DIVISOR",
      "outputs": [
        {
          "internalType": "uint256",
          "name": "",
          "type": "uint256"
        }
      ],
      "stateMutability": "view",
      "type": "function"
    },
    {
      "inputs": [],
      "name": "R_MCR",
      "outputs": [
        {
          "internalType": "uint256",
          "name": "",
          "type": "uint256"
        }
      ],
      "stateMutability": "view",
      "type": "function"
    },
    {
      "inputs": [],
      "name": "SECONDS_IN_ONE_MINUTE",
      "outputs": [
        {
          "internalType": "uint256",
          "name": "",
          "type": "uint256"
        }
      ],
      "stateMutability": "view",
      "type": "function"
    },
    {
      "inputs": [
        {
          "internalType": "uint256",
          "name": "",
          "type": "uint256"
        }
      ],
      "name": "TroveOwners",
      "outputs": [
        {
          "internalType": "address",
          "name": "",
          "type": "address"
        }
      ],
      "stateMutability": "view",
      "type": "function"
    },
    {
      "inputs": [
        {
          "internalType": "address",
          "name": "",
          "type": "address"
        }
      ],
      "name": "Troves",
      "outputs": [
        {
          "internalType": "uint256",
          "name": "debt",
          "type": "uint256"
        },
        {
          "internalType": "uint256",
          "name": "coll",
          "type": "uint256"
        },
        {
          "internalType": "uint256",
          "name": "stake",
          "type": "uint256"
        },
        {
          "internalType": "enum TroveManager.Status",
          "name": "status",
          "type": "uint8"
        },
        {
          "internalType": "uint128",
          "name": "arrayIndex",
          "type": "uint128"
        }
      ],
      "stateMutability": "view",
      "type": "function"
    },
    {
      "inputs": [],
      "name": "_100pct",
      "outputs": [
        {
          "internalType": "uint256",
          "name": "",
          "type": "uint256"
        }
      ],
      "stateMutability": "view",
      "type": "function"
    },
    {
      "inputs": [],
      "name": "activePool",
      "outputs": [
        {
          "internalType": "contract IPool",
          "name": "",
          "type": "address"
        }
      ],
      "stateMutability": "view",
      "type": "function"
    },
    {
      "inputs": [
        {
          "internalType": "address",
          "name": "_borrower",
          "type": "address"
        }
      ],
      "name": "addTroveOwnerToArray",
      "outputs": [
        {
          "internalType": "uint256",
          "name": "index",
          "type": "uint256"
        }
      ],
      "stateMutability": "nonpayable",
      "type": "function"
    },
    {
      "inputs": [
        {
          "internalType": "address",
          "name": "_borrower",
          "type": "address"
        }
      ],
      "name": "applyPendingRewards",
      "outputs": [],
      "stateMutability": "nonpayable",
      "type": "function"
    },
    {
      "inputs": [],
      "name": "baseRate",
      "outputs": [
        {
          "internalType": "uint256",
          "name": "",
          "type": "uint256"
        }
      ],
      "stateMutability": "view",
      "type": "function"
    },
    {
      "inputs": [
        {
          "internalType": "address[]",
          "name": "_troveArray",
          "type": "address[]"
        }
      ],
      "name": "batchLiquidateTroves",
      "outputs": [],
      "stateMutability": "nonpayable",
      "type": "function"
    },
    {
      "inputs": [],
      "name": "borrowerOperationsAddress",
      "outputs": [
        {
          "internalType": "address",
          "name": "",
          "type": "address"
        }
      ],
      "stateMutability": "view",
      "type": "function"
    },
    {
      "inputs": [
        {
          "internalType": "uint256",
          "name": "_ETHDrawn",
          "type": "uint256"
        }
      ],
      "name": "callGetRedemptionFee",
      "outputs": [
        {
          "internalType": "uint256",
          "name": "",
          "type": "uint256"
        }
      ],
      "stateMutability": "view",
      "type": "function"
    },
    {
      "inputs": [
        {
          "internalType": "address",
          "name": "_troveOwner",
          "type": "address"
        }
      ],
      "name": "callInternalRemoveTroveOwner",
      "outputs": [],
      "stateMutability": "nonpayable",
      "type": "function"
    },
    {
      "inputs": [],
      "name": "checkRecoveryMode",
      "outputs": [
        {
          "internalType": "bool",
          "name": "",
          "type": "bool"
        }
      ],
      "stateMutability": "view",
      "type": "function"
    },
    {
      "inputs": [
        {
          "internalType": "address",
          "name": "_borrower",
          "type": "address"
        }
      ],
      "name": "closeTrove",
      "outputs": [],
      "stateMutability": "nonpayable",
      "type": "function"
    },
    {
      "inputs": [
        {
          "internalType": "uint256",
          "name": "_coll",
          "type": "uint256"
        },
        {
          "internalType": "uint256",
          "name": "_debt",
          "type": "uint256"
        },
        {
          "internalType": "uint256",
          "name": "_price",
          "type": "uint256"
        }
      ],
      "name": "computeICR",
      "outputs": [
        {
          "internalType": "uint256",
          "name": "",
          "type": "uint256"
        }
      ],
      "stateMutability": "pure",
      "type": "function"
    },
    {
      "inputs": [],
      "name": "decayBaseRateFromBorrowing",
      "outputs": [],
      "stateMutability": "nonpayable",
      "type": "function"
    },
    {
      "inputs": [
        {
          "internalType": "address",
          "name": "_borrower",
          "type": "address"
        },
        {
          "internalType": "uint256",
          "name": "_collDecrease",
          "type": "uint256"
        }
      ],
      "name": "decreaseTroveColl",
      "outputs": [
        {
          "internalType": "uint256",
          "name": "",
          "type": "uint256"
        }
      ],
      "stateMutability": "nonpayable",
      "type": "function"
    },
    {
      "inputs": [
        {
          "internalType": "address",
          "name": "_borrower",
          "type": "address"
        },
        {
          "internalType": "uint256",
          "name": "_debtDecrease",
          "type": "uint256"
        }
      ],
      "name": "decreaseTroveDebt",
      "outputs": [
        {
          "internalType": "uint256",
          "name": "",
          "type": "uint256"
        }
      ],
      "stateMutability": "nonpayable",
      "type": "function"
    },
    {
      "inputs": [],
      "name": "defaultPool",
      "outputs": [
        {
          "internalType": "contract IPool",
          "name": "",
          "type": "address"
        }
      ],
      "stateMutability": "view",
      "type": "function"
    },
    {
      "inputs": [
        {
          "internalType": "uint256",
          "name": "_debtVal",
          "type": "uint256"
        }
      ],
      "name": "getActualDebtFromComposite",
      "outputs": [
        {
          "internalType": "uint256",
          "name": "",
          "type": "uint256"
        }
      ],
      "stateMutability": "pure",
      "type": "function"
    },
    {
      "inputs": [
        {
          "internalType": "uint256",
          "name": "_LUSDDebt",
          "type": "uint256"
        }
      ],
      "name": "getBorrowingFee",
      "outputs": [
        {
          "internalType": "uint256",
          "name": "",
          "type": "uint256"
        }
      ],
      "stateMutability": "view",
      "type": "function"
    },
    {
      "inputs": [
        {
          "internalType": "uint256",
          "name": "_coll",
          "type": "uint256"
        }
      ],
      "name": "getCollGasCompensation",
      "outputs": [
        {
          "internalType": "uint256",
          "name": "",
          "type": "uint256"
        }
      ],
      "stateMutability": "pure",
      "type": "function"
    },
    {
      "inputs": [
        {
          "internalType": "uint256",
          "name": "_debt",
          "type": "uint256"
        }
      ],
      "name": "getCompositeDebt",
      "outputs": [
        {
          "internalType": "uint256",
          "name": "",
          "type": "uint256"
        }
      ],
      "stateMutability": "pure",
      "type": "function"
    },
    {
      "inputs": [
        {
          "internalType": "address",
          "name": "_borrower",
          "type": "address"
        },
        {
          "internalType": "uint256",
          "name": "_price",
          "type": "uint256"
        }
      ],
      "name": "getCurrentICR",
      "outputs": [
        {
          "internalType": "uint256",
          "name": "",
          "type": "uint256"
        }
      ],
      "stateMutability": "view",
      "type": "function"
    },
    {
      "inputs": [
        {
          "internalType": "address",
          "name": "_borrower",
          "type": "address"
        }
      ],
      "name": "getEntireDebtAndColl",
      "outputs": [
        {
          "internalType": "uint256",
          "name": "debt",
          "type": "uint256"
        },
        {
          "internalType": "uint256",
          "name": "coll",
          "type": "uint256"
        },
        {
          "internalType": "uint256",
          "name": "pendingLUSDDebtReward",
          "type": "uint256"
        },
        {
          "internalType": "uint256",
          "name": "pendingETHReward",
          "type": "uint256"
        }
      ],
      "stateMutability": "view",
      "type": "function"
    },
    {
      "inputs": [],
      "name": "getEntireSystemColl",
      "outputs": [
        {
          "internalType": "uint256",
          "name": "entireSystemColl",
          "type": "uint256"
        }
      ],
      "stateMutability": "view",
      "type": "function"
    },
    {
      "inputs": [],
      "name": "getEntireSystemDebt",
      "outputs": [
        {
          "internalType": "uint256",
          "name": "entireSystemDebt",
          "type": "uint256"
        }
      ],
      "stateMutability": "view",
      "type": "function"
    },
    {
      "inputs": [],
      "name": "getLUSDGasCompensation",
      "outputs": [
        {
          "internalType": "uint256",
          "name": "",
          "type": "uint256"
        }
      ],
      "stateMutability": "pure",
      "type": "function"
    },
    {
      "inputs": [
        {
          "internalType": "address",
          "name": "_borrower",
          "type": "address"
        }
      ],
      "name": "getPendingETHReward",
      "outputs": [
        {
          "internalType": "uint256",
          "name": "",
          "type": "uint256"
        }
      ],
      "stateMutability": "view",
      "type": "function"
    },
    {
      "inputs": [
        {
          "internalType": "address",
          "name": "_borrower",
          "type": "address"
        }
      ],
      "name": "getPendingLUSDDebtReward",
      "outputs": [
        {
          "internalType": "uint256",
          "name": "",
          "type": "uint256"
        }
      ],
      "stateMutability": "view",
      "type": "function"
    },
    {
      "inputs": [],
      "name": "getTCR",
      "outputs": [
        {
          "internalType": "uint256",
          "name": "TCR",
          "type": "uint256"
        }
      ],
      "stateMutability": "view",
      "type": "function"
    },
    {
      "inputs": [
        {
          "internalType": "address",
          "name": "_borrower",
          "type": "address"
        }
      ],
      "name": "getTroveColl",
      "outputs": [
        {
          "internalType": "uint256",
          "name": "",
          "type": "uint256"
        }
      ],
      "stateMutability": "view",
      "type": "function"
    },
    {
      "inputs": [
        {
          "internalType": "address",
          "name": "_borrower",
          "type": "address"
        }
      ],
      "name": "getTroveDebt",
      "outputs": [
        {
          "internalType": "uint256",
          "name": "",
          "type": "uint256"
        }
      ],
      "stateMutability": "view",
      "type": "function"
    },
    {
      "inputs": [
        {
          "internalType": "uint256",
          "name": "_index",
          "type": "uint256"
        }
      ],
      "name": "getTroveFromTroveOwnersArray",
      "outputs": [
        {
          "internalType": "address",
          "name": "",
          "type": "address"
        }
      ],
      "stateMutability": "view",
      "type": "function"
    },
    {
      "inputs": [],
      "name": "getTroveOwnersCount",
      "outputs": [
        {
          "internalType": "uint256",
          "name": "",
          "type": "uint256"
        }
      ],
      "stateMutability": "view",
      "type": "function"
    },
    {
      "inputs": [
        {
          "internalType": "address",
          "name": "_borrower",
          "type": "address"
        }
      ],
      "name": "getTroveStake",
      "outputs": [
        {
          "internalType": "uint256",
          "name": "",
          "type": "uint256"
        }
      ],
      "stateMutability": "view",
      "type": "function"
    },
    {
      "inputs": [
        {
          "internalType": "address",
          "name": "_borrower",
          "type": "address"
        }
      ],
      "name": "getTroveStatus",
      "outputs": [
        {
          "internalType": "uint256",
          "name": "",
          "type": "uint256"
        }
      ],
      "stateMutability": "view",
      "type": "function"
    },
    {
      "inputs": [
        {
          "internalType": "address",
          "name": "_borrower",
          "type": "address"
        }
      ],
      "name": "hasPendingRewards",
      "outputs": [
        {
          "internalType": "bool",
          "name": "",
          "type": "bool"
        }
      ],
      "stateMutability": "view",
      "type": "function"
    },
    {
      "inputs": [
        {
          "internalType": "address",
          "name": "_borrower",
          "type": "address"
        },
        {
          "internalType": "uint256",
          "name": "_collIncrease",
          "type": "uint256"
        }
      ],
      "name": "increaseTroveColl",
      "outputs": [
        {
          "internalType": "uint256",
          "name": "",
          "type": "uint256"
        }
      ],
      "stateMutability": "nonpayable",
      "type": "function"
    },
    {
      "inputs": [
        {
          "internalType": "address",
          "name": "_borrower",
          "type": "address"
        },
        {
          "internalType": "uint256",
          "name": "_debtIncrease",
          "type": "uint256"
        }
      ],
      "name": "increaseTroveDebt",
      "outputs": [
        {
          "internalType": "uint256",
          "name": "",
          "type": "uint256"
        }
      ],
      "stateMutability": "nonpayable",
      "type": "function"
    },
    {
      "inputs": [],
      "name": "isOwner",
      "outputs": [
        {
          "internalType": "bool",
          "name": "",
          "type": "bool"
        }
      ],
      "stateMutability": "view",
      "type": "function"
    },
    {
      "inputs": [],
      "name": "lastETHError_Redistribution",
      "outputs": [
        {
          "internalType": "uint256",
          "name": "",
          "type": "uint256"
        }
      ],
      "stateMutability": "view",
      "type": "function"
    },
    {
      "inputs": [],
      "name": "lastFeeOperationTime",
      "outputs": [
        {
          "internalType": "uint256",
          "name": "",
          "type": "uint256"
        }
      ],
      "stateMutability": "view",
      "type": "function"
    },
    {
      "inputs": [],
      "name": "lastLUSDDebtError_Redistribution",
      "outputs": [
        {
          "internalType": "uint256",
          "name": "",
          "type": "uint256"
        }
      ],
      "stateMutability": "view",
      "type": "function"
    },
    {
      "inputs": [
        {
          "internalType": "address",
          "name": "_borrower",
          "type": "address"
        }
      ],
      "name": "liquidate",
      "outputs": [],
      "stateMutability": "nonpayable",
      "type": "function"
    },
    {
      "inputs": [
        {
          "internalType": "uint256",
          "name": "_n",
          "type": "uint256"
        }
      ],
      "name": "liquidateTroves",
      "outputs": [],
      "stateMutability": "nonpayable",
      "type": "function"
    },
    {
      "inputs": [],
      "name": "lqtyStaking",
      "outputs": [
        {
          "internalType": "contract ILQTYStaking",
          "name": "",
          "type": "address"
        }
      ],
      "stateMutability": "view",
      "type": "function"
    },
    {
      "inputs": [],
      "name": "lqtyStakingAddress",
      "outputs": [
        {
          "internalType": "address",
          "name": "",
          "type": "address"
        }
      ],
      "stateMutability": "view",
      "type": "function"
    },
    {
      "inputs": [],
      "name": "lusdToken",
      "outputs": [
        {
          "internalType": "contract ILUSDToken",
          "name": "",
          "type": "address"
        }
      ],
      "stateMutability": "view",
      "type": "function"
    },
    {
      "inputs": [],
      "name": "minutesPassedSinceLastFeeOp",
      "outputs": [
        {
          "internalType": "uint256",
          "name": "",
          "type": "uint256"
        }
      ],
      "stateMutability": "view",
      "type": "function"
    },
    {
      "inputs": [],
      "name": "owner",
      "outputs": [
        {
          "internalType": "address",
          "name": "",
          "type": "address"
        }
      ],
      "stateMutability": "view",
      "type": "function"
    },
    {
      "inputs": [],
      "name": "priceFeed",
      "outputs": [
        {
          "internalType": "contract IPriceFeed",
          "name": "",
          "type": "address"
        }
      ],
      "stateMutability": "view",
      "type": "function"
    },
    {
      "inputs": [
        {
          "internalType": "uint256",
          "name": "_LUSDamount",
          "type": "uint256"
        },
        {
          "internalType": "address",
          "name": "_firstRedemptionHint",
          "type": "address"
        },
        {
          "internalType": "address",
          "name": "_partialRedemptionHint",
          "type": "address"
        },
        {
          "internalType": "uint256",
          "name": "_partialRedemptionHintICR",
          "type": "uint256"
        },
        {
          "internalType": "uint256",
          "name": "_maxIterations",
          "type": "uint256"
        }
      ],
      "name": "redeemCollateral",
      "outputs": [],
      "stateMutability": "nonpayable",
      "type": "function"
    },
    {
      "inputs": [
        {
          "internalType": "address",
          "name": "_borrower",
          "type": "address"
        }
      ],
      "name": "removeStake",
      "outputs": [],
      "stateMutability": "nonpayable",
      "type": "function"
    },
    {
      "inputs": [
        {
          "internalType": "address",
          "name": "",
          "type": "address"
        }
      ],
      "name": "rewardSnapshots",
      "outputs": [
        {
          "internalType": "uint256",
          "name": "ETH",
          "type": "uint256"
        },
        {
          "internalType": "uint256",
          "name": "LUSDDebt",
          "type": "uint256"
        }
      ],
      "stateMutability": "view",
      "type": "function"
    },
    {
      "inputs": [
        {
          "internalType": "address",
          "name": "_borrowerOperationsAddress",
          "type": "address"
        },
        {
          "internalType": "address",
          "name": "_activePoolAddress",
          "type": "address"
        },
        {
          "internalType": "address",
          "name": "_defaultPoolAddress",
          "type": "address"
        },
        {
          "internalType": "address",
          "name": "_stabilityPoolAddress",
          "type": "address"
        },
        {
          "internalType": "address",
          "name": "_collSurplusPoolAddress",
          "type": "address"
        },
        {
          "internalType": "address",
          "name": "_priceFeedAddress",
          "type": "address"
        },
        {
          "internalType": "address",
          "name": "_lusdTokenAddress",
          "type": "address"
        },
        {
          "internalType": "address",
          "name": "_sortedTrovesAddress",
          "type": "address"
        },
        {
          "internalType": "address",
          "name": "_lqtyStakingAddress",
          "type": "address"
        }
      ],
      "name": "setAddresses",
      "outputs": [],
      "stateMutability": "nonpayable",
      "type": "function"
    },
    {
      "inputs": [
        {
          "internalType": "uint256",
          "name": "_baseRate",
          "type": "uint256"
        }
      ],
      "name": "setBaseRate",
      "outputs": [],
      "stateMutability": "nonpayable",
      "type": "function"
    },
    {
      "inputs": [],
      "name": "setLastFeeOpTimeToNow",
      "outputs": [],
      "stateMutability": "nonpayable",
      "type": "function"
    },
    {
      "inputs": [
        {
          "internalType": "address",
          "name": "_borrower",
          "type": "address"
        },
        {
          "internalType": "uint256",
          "name": "_num",
          "type": "uint256"
        }
      ],
      "name": "setTroveStatus",
      "outputs": [],
      "stateMutability": "nonpayable",
      "type": "function"
    },
    {
      "inputs": [],
      "name": "sortedTroves",
      "outputs": [
        {
          "internalType": "contract ISortedTroves",
          "name": "",
          "type": "address"
        }
      ],
      "stateMutability": "view",
      "type": "function"
    },
    {
      "inputs": [],
      "name": "stabilityPool",
      "outputs": [
        {
          "internalType": "contract IStabilityPool",
          "name": "",
          "type": "address"
        }
      ],
      "stateMutability": "view",
      "type": "function"
    },
    {
      "inputs": [],
      "name": "totalCollateralSnapshot",
      "outputs": [
        {
          "internalType": "uint256",
          "name": "",
          "type": "uint256"
        }
      ],
      "stateMutability": "view",
      "type": "function"
    },
    {
      "inputs": [],
      "name": "totalStakes",
      "outputs": [
        {
          "internalType": "uint256",
          "name": "",
          "type": "uint256"
        }
      ],
      "stateMutability": "view",
      "type": "function"
    },
    {
      "inputs": [],
      "name": "totalStakesSnapshot",
      "outputs": [
        {
          "internalType": "uint256",
          "name": "",
          "type": "uint256"
        }
      ],
      "stateMutability": "view",
      "type": "function"
    },
    {
      "inputs": [],
      "name": "unprotectedDecayBaseRateFromBorrowing",
      "outputs": [
        {
          "internalType": "uint256",
          "name": "",
          "type": "uint256"
        }
      ],
      "stateMutability": "nonpayable",
      "type": "function"
    },
    {
      "inputs": [
        {
          "internalType": "address",
          "name": "_borrower",
          "type": "address"
        }
      ],
      "name": "updateStakeAndTotalStakes",
      "outputs": [
        {
          "internalType": "uint256",
          "name": "",
          "type": "uint256"
        }
      ],
      "stateMutability": "nonpayable",
      "type": "function"
    },
    {
      "inputs": [
        {
          "internalType": "address",
          "name": "_borrower",
          "type": "address"
        }
      ],
      "name": "updateTroveRewardSnapshots",
      "outputs": [],
      "stateMutability": "nonpayable",
      "type": "function"
    }
  ],
  "bytecode": "0x608060405234801561001057600080fd5b50600080546001600160a01b0319163390811782556040519091907f8be0079c531659141344cd1fd0a4f28419497f9722a3daafe3b4186f6b6457e0908290a36152a18061005f6000396000f3fe608060405234801561001057600080fd5b506004361061042f5760003560e01c8063761ab22c1161023c578063b83f91a211610146578063d66a2553116100c3578063e2ac77b011610087578063e2ac77b014610bda578063f24344e614610c00578063f34862de14610c08578063fe2ba84814610c2e578063febb33de14610c545761042f565b8063d66a255314610b61578063d9a7244414610b87578063da303f1414610ba4578063dba1c5f214610bac578063dc62a70214610bb45761042f565b8063cbd138ae1161010a578063cbd138ae14610ad3578063d293c71014610af9578063d380a37c14610b25578063d3d6f84314610b2d578063d5205e4814610b595761042f565b8063b83f91a214610a2d578063b91af97c14610a35578063bf9befb114610a81578063c1866f3314610a89578063c7b5548114610acb5761042f565b80638da5cb5b116101d4578063a3a6401711610198578063a3a64017146109f0578063a537896f146109f8578063ae91875414610a15578063b620115d14610a1d578063b7f8cf9b14610a255761042f565b80638da5cb5b146109a45780638f32d59b146109ac57806396d711ff146109b45780639976cf45146109bc5780639dd233d2146109e85761042f565b8063761ab22c1461091d578063794e572414610925578063795d26c31461092d578063797250e3146109355780637f7dde4a1461093d578063807d138d14610945578063814a0a451461094d57806382fe3eb914610976578063887105d31461099c5761042f565b8063480cd5781161033d57806361ec893d116102d55780636ef64338116102995780636ef643381461085557806372423c17146108c457806372fe25aa146108f0578063741bef1a146108f8578063756b253e146109005761042f565b806361ec893d14610783578063631203b01461078b57806364cee260146107a8578063653d46e7146107ce57806366272044146107eb5761042f565b8063480cd578146106b15780634870dd9a146106d757806349eefeee146106df5780634ff81443146106e757806354062a45146107045780635733d58f146107215780635d6b480f146107295780635d8c9609146107555780635dba4c4a1461077b5761042f565b80631673c79a116103cb57806321e378011161038f57806321e37801146106395780632e86bbd81461065f5780632f865568146106675780633cc742251461068d57806343a124fa146106955761042f565b80631673c79a1461050c57806318f2817a1461054b5780631d08837b146105715780631e8b1c2b1461058e5780631f68f20a146106315761042f565b8063043782fb14610434578063048c661d1461043e578063060d49a314610462578063071a75411461047c5780630b076557146104845780630fba7805146104aa578063105bb15c146104b257806312610e92146104ba57806315d549f1146104e6575b600080fd5b61043c610c71565b005b610446610c77565b604080516001600160a01b039092168252519081900360200190f35b61046a610c86565b60408051918252519081900360200190f35b61046a610c8c565b61043c6004803603602081101561049a57600080fd5b50356001600160a01b0316610c91565b610446610ca5565b61046a610cab565b61046a600480360360408110156104d057600080fd5b506001600160a01b038135169060200135610cbb565b61046a600480360360208110156104fc57600080fd5b50356001600160a01b0316610d13565b6105326004803603602081101561052257600080fd5b50356001600160a01b0316610d37565b6040805192835260208301919091528051918290030190f35b61046a6004803603602081101561056157600080fd5b50356001600160a01b0316610d50565b61043c6004803603602081101561058757600080fd5b5035610d63565b61043c600480360360208110156105a457600080fd5b8101906020810181356401000000008111156105bf57600080fd5b8201836020820111156105d157600080fd5b803590602001918460208302840111640100000000831117156105f357600080fd5b919080806020026020016040519081016040528093929190818152602001838360200280828437600092019190915250929550610d68945050505050565b61046a611081565b61046a6004803603602081101561064f57600080fd5b50356001600160a01b0316611087565b61046a6110b1565b61043c6004803603602081101561067d57600080fd5b50356001600160a01b03166110bd565b610446611123565b61069d611132565b604080519115158252519081900360200190f35b61046a600480360360208110156106c757600080fd5b50356001600160a01b0316611163565b61046a611181565b61046a611186565b61046a600480360360208110156106fd57600080fd5b503561118c565b61046a6004803603602081101561071a57600080fd5b5035611197565b61046a6111a2565b61043c6004803603604081101561073f57600080fd5b506001600160a01b0381351690602001356111ae565b61046a6004803603602081101561076b57600080fd5b50356001600160a01b03166111fa565b61043c611289565b61046a6112b9565b61046a600480360360208110156107a157600080fd5b50356112be565b61046a600480360360208110156107be57600080fd5b50356001600160a01b03166112e1565b61043c600480360360208110156107e457600080fd5b50356112ff565b61043c600480360361012081101561080257600080fd5b506001600160a01b038135811691602081013582169160408201358116916060810135821691608082013581169160a081013582169160c082013581169160e0810135821691610100909101351661143d565b61087b6004803603602081101561086b57600080fd5b50356001600160a01b031661174b565b6040518086815260200185815260200184815260200183600281111561089d57fe5b60ff1681526001600160801b03909216602083015250604080519182900301945092505050f35b61046a600480360360408110156108da57600080fd5b506001600160a01b038135169060200135611785565b61046a6117e2565b6104466117ee565b6104466004803603602081101561091657600080fd5b50356117fd565b610446611824565b61046a611833565b61046a61183f565b61046a61194c565b610446611952565b61046a611961565b61046a6004803603606081101561096357600080fd5b5080359060208101359060400135611967565b61043c6004803603602081101561098c57600080fd5b50356001600160a01b031661197e565b61046a61198f565b610446611a57565b61069d611a66565b61046a611a77565b61046a600480360360408110156109d257600080fd5b506001600160a01b038135169060200135611a7d565b61046a611ab0565b610446611ab6565b61046a60048036036020811015610a0e57600080fd5b5035611ac5565b610446611ad0565b61046a611adf565b610446611b89565b610446611b98565b610a5b60048036036020811015610a4b57600080fd5b50356001600160a01b0316611ba7565b604080519485526020850193909352838301919091526060830152519081900360800190f35b61046a611c0b565b61043c600480360360a0811015610a9f57600080fd5b508035906001600160a01b03602082013581169160408101359091169060608101359060800135611c11565b61046a612224565b61043c60048036036020811015610ae957600080fd5b50356001600160a01b0316612230565b61046a60048036036040811015610b0f57600080fd5b506001600160a01b038135169060200135612241565b61046a6122d2565b61046a60048036036040811015610b4357600080fd5b506001600160a01b0381351690602001356122d8565b61046a61230e565b61046a60048036036020811015610b7757600080fd5b50356001600160a01b031661231a565b61044660048036036020811015610b9d57600080fd5b5035612335565b61046a61235f565b61046a61238f565b61043c60048036036020811015610bca57600080fd5b50356001600160a01b0316612395565b61069d60048036036020811015610bf057600080fd5b50356001600160a01b03166123a2565b61046a6123c4565b61046a60048036036020811015610c1e57600080fd5b50356001600160a01b03166123d0565b61043c60048036036020811015610c4457600080fd5b50356001600160a01b0316612401565b61046a60048036036020811015610c6a57600080fd5b5035612412565b42600c55565b6004546001600160a01b031681565b60165481565b600281565b610c99612423565b610ca28161246c565b50565b6109a581565b6000610cb5612589565b90505b90565b6000610cc5612423565b6001600160a01b0383166000908152600d6020526040812054610cee908463ffffffff6125a516565b6001600160a01b0385166000908152600d602052604090208190559150505b92915050565b6000610d1d612423565b610d26826125e7565b6001600160801b031690505b919050565b6013602052600090815260409020805460019091015482565b6000610d5a612423565b610d0d82612681565b600b55565b8051610da55760405162461bcd60e51b81526004018080602001828103825260368152602001806151d96036913960400191505060405180910390fd5b610dad614f3b565b610db5614f6c565b600760009054906101000a90046001600160a01b03166001600160a01b03166398d5fdca6040518163ffffffff1660e01b815260040160206040518083038186803b158015610e0357600080fd5b505afa158015610e17573d6000803e3d6000fd5b505050506040513d6020811015610e2d57600080fd5b5051825260048054604080516326fcbc6b60e21b815290516001600160a01b0390921692639bf2f1ac928282019260209290829003018186803b158015610e7357600080fd5b505afa158015610e87573d6000803e3d6000fd5b505050506040513d6020811015610e9d57600080fd5b50516020830152610eac611132565b15156040830181905260011415610ed757610ed082600001518360200151856126fc565b9050610eed565b610eea8260000151836020015185612a94565b90505b60048054608083015160a08401516040805163335525ad60e01b8152948501929092526024840152516001600160a01b039091169163335525ad91604480830192600092919082900301818387803b158015610f4857600080fd5b505af1158015610f5c573d6000803e3d6000fd5b50505050610f728160c001518260e00151612b5a565b610f96610f918260400151836101400151612d9d90919063ffffffff16565b612df7565b610fc18161010001518261012001518361014001518461016001518561018001518760000151612f03565b6101208101516020820151610fdb9163ffffffff6125a516565b60608301526101408101516040820151825161100e9291611002919063ffffffff6125a516565b9063ffffffff6125a516565b608080840182905260608085015160408086015186840151825193845260208401969096528282015291810193909352517f4152c73dd2614c4f9fc35e8c9cf16013cd588c75b49a4c1673ecffdcbcda94039281900390910190a161107c3382606001518360400151613052565b505050565b600b5481565b6001600160a01b0381166000908152600d602052604081206003015460ff166002811115610d0d57fe5b678ac7230489e8000081565b6110c681613146565b6040805160018082528183019092526060916020808301908036833701905050905081816000815181106110f657fe5b60200260200101906001600160a01b031690816001600160a01b03168152505061111f81610d68565b5050565b6003546001600160a01b031681565b60008061113d611adf565b90506714d1120d7b160000811015611159576001915050610cb8565b6000915050610cb8565b6001600160a01b03166000908152600d602052604090206001015490565b60c881565b60145490565b6000610d0d826131ae565b6000610d0d826131c8565b6714d1120d7b16000081565b6111b6612423565b8060028111156111c257fe5b6001600160a01b0383166000908152600d60205260409020600301805460ff191660018360028111156111f157fe5b02179055505050565b6001600160a01b0381166000908152601360205260408120546011548290611228908363ffffffff6125a516565b90508061123a57600092505050610d32565b6001600160a01b0384166000908152600d60205260408120600201549061127f670de0b6b3a7640000611273848663ffffffff6131e216565b9063ffffffff61323b16565b9695505050505050565b611291612423565b61129961327d565b600b819055670de0b6b3a764000010156112af57fe5b6112b76132c1565b565b603c81565b6000610d0d670de0b6b3a7640000611273600b54856131e290919063ffffffff16565b6001600160a01b03166000908152600d602052604090206002015490565b611307614f3b565b61130f614f6c565b600760009054906101000a90046001600160a01b03166001600160a01b03166398d5fdca6040518163ffffffff1660e01b815260040160206040518083038186803b15801561135d57600080fd5b505afa158015611371573d6000803e3d6000fd5b505050506040513d602081101561138757600080fd5b5051825260048054604080516326fcbc6b60e21b815290516001600160a01b0390921692639bf2f1ac928282019260209290829003018186803b1580156113cd57600080fd5b505afa1580156113e1573d6000803e3d6000fd5b505050506040513d60208110156113f757600080fd5b50516020830152611406611132565b1515604083018190526001141561142a57610ed082600001518360200151856132e9565b610eea82600001518360200151856135c5565b611445611a66565b611496576040805162461bcd60e51b815260206004820181905260248201527f4f776e61626c653a2063616c6c6572206973206e6f7420746865206f776e6572604482015290519081900360640190fd5b600180546001600160a01b03199081166001600160a01b038c81169182179093556002805483168c85161790556003805483168b85161790556004805483168a8516179055600580548316898516179055600780548316888516179055600680548316878516179055600a80548316868516179055600980548316938516938417905560088054909216909217905560408051918252517f3ca631ffcd2a9b5d9ae18543fc82f58eb4ca33af9e6ab01b7a8e95331e6ed985916020908290030190a1604080516001600160a01b038a16815290517f78f058b189175430c48dc02699e3a0031ea4ff781536dc2fab847de4babdd8829181900360200190a1604080516001600160a01b038916815290517f5ee0cae2f063ed938bb55046f6a932fb6ae792bf43624806bb90abe68a50be9b9181900360200190a1604080516001600160a01b038816815290517f82966d27eea39b038ee0fa30cd16532bb24f6e65d31cb58fb227aa5766cdcc7f9181900360200190a1604080516001600160a01b038716815290517fe67f36a6e961157d6eff83b91f3af5a62131ceb6f04954ef74f51c1c05e7f88d9181900360200190a1604080516001600160a01b038616815290517f8c537274438aa850a330284665d81a85dd38267d09e4050d416bfc94142db2649181900360200190a1604080516001600160a01b038516815290517f227eec0ec317af6ab1a9587ffa1c84332522eb4c583a908f89babc05f8f339bd9181900360200190a1604080516001600160a01b038416815290517f65f4cf077bc01e4742eb5ad98326f6e95b63548ea24b17f8d5e823111fe788009181900360200190a1604080516001600160a01b038316815290517f756ebc192164c295bba134b5aacd72cc7aff8098a670d1f0a5f6b3a0b4ce67079181900360200190a161174061377f565b505050505050505050565b600d6020526000908152604090208054600182015460028301546003909301549192909160ff81169061010090046001600160801b031685565b600061178f612423565b6001600160a01b0383166000908152600d60205260408120600101546117bb908463ffffffff612d9d16565b6001600160a01b0385166000908152600d6020526040902060010181905591505092915050565b670de0b6b3a764000081565b6007546001600160a01b031681565b6014818154811061180a57fe5b6000918252602090912001546001600160a01b0316905081565b6009546001600160a01b031681565b670f43fc2c04ee000081565b600080600260009054906101000a90046001600160a01b03166001600160a01b0316635eb52fca6040518163ffffffff1660e01b815260040160206040518083038186803b15801561189057600080fd5b505afa1580156118a4573d6000803e3d6000fd5b505050506040513d60208110156118ba57600080fd5b505160035460408051632f5a97e560e11b815290519293506000926001600160a01b0390921691635eb52fca91600480820192602092909190829003018186803b15801561190757600080fd5b505afa15801561191b573d6000803e3d6000fd5b505050506040513d602081101561193157600080fd5b50519050611945828263ffffffff612d9d16565b9250505090565b60155481565b6002546001600160a01b031681565b600f5481565b60006119748484846137c9565b90505b9392505050565b611986612423565b610ca2816137f9565b600080600260009054906101000a90046001600160a01b03166001600160a01b03166314f6c3be6040518163ffffffff1660e01b815260040160206040518083038186803b1580156119e057600080fd5b505afa1580156119f4573d6000803e3d6000fd5b505050506040513d6020811015611a0a57600080fd5b505160035460408051630a7b61df60e11b815290519293506000926001600160a01b03909216916314f6c3be91600480820192602092909190829003018186803b15801561190757600080fd5b6000546001600160a01b031690565b6000546001600160a01b0316331490565b60105481565b6000611a87612423565b6001600160a01b0383166000908152600d6020526040812054610cee908463ffffffff612d9d16565b60115481565b6008546001600160a01b031681565b6000610d0d82613823565b600a546001600160a01b031681565b600080600760009054906101000a90046001600160a01b03166001600160a01b03166398d5fdca6040518163ffffffff1660e01b815260040160206040518083038186803b158015611b3057600080fd5b505afa158015611b44573d6000803e3d6000fd5b505050506040513d6020811015611b5a57600080fd5b505190506000611b6861198f565b90506000611b7461183f565b9050611b818282856137c9565b935050505090565b6001546001600160a01b031681565b6006546001600160a01b031681565b6001600160a01b0381166000908152600d602052604081208054600190910154909180611bd3856123d0565b9150611bde856111fa565b9050611bf0848363ffffffff612d9d16565b9350611c02838263ffffffff612d9d16565b92509193509193565b600e5481565b60025460408051632f5a97e560e11b815290516000926001600160a01b031691635eb52fca916004808301926020929190829003018186803b158015611c5657600080fd5b505afa158015611c6a573d6000803e3d6000fd5b505050506040513d6020811015611c8057600080fd5b505160035460408051632f5a97e560e11b815290519293506000926001600160a01b0390921691635eb52fca91600480820192602092909190829003018186803b158015611ccd57600080fd5b505afa158015611ce1573d6000803e3d6000fd5b505050506040513d6020811015611cf757600080fd5b50519050611d03614fef565b611d0c8861382a565b611d163389613869565b611d26838363ffffffff612d9d16565b600654604080516370a0823160e01b815233600482015290516001600160a01b03909216916370a0823191602480820192602092909190829003018186803b158015611d7157600080fd5b505afa158015611d85573d6000803e3d6000fd5b505050506040513d6020811015611d9b57600080fd5b50511115611da557fe5b60075460408051634c6afee560e11b815290518a926000926001600160a01b03909116916398d5fdca91600480820192602092909190829003018186803b158015611def57600080fd5b505afa158015611e03573d6000803e3d6000fd5b505050506040513d6020811015611e1957600080fd5b505190506000611e298a83613922565b15611e35575088611f5f565b600a60009054906101000a90046001600160a01b03166001600160a01b0316634d6228316040518163ffffffff1660e01b815260040160206040518083038186803b158015611e8357600080fd5b505afa158015611e97573d6000803e3d6000fd5b505050506040513d6020811015611ead57600080fd5b505190505b6001600160a01b03811615801590611eda5750670f43fc2c04ee0000611ed88284612241565b105b15611f5f57600a5460408051632dc9c0eb60e21b81526001600160a01b0384811660048301529151919092169163b72703ac916024808301926020929190829003018186803b158015611f2c57600080fd5b505afa158015611f40573d6000803e3d6000fd5b505050506040513d6020811015611f5657600080fd5b50519050611eb2565b86611f6a5760001996505b6001600160a01b03811615801590611f825750600083115b8015611f8e5750600087115b1561209957600a5460408051632dc9c0eb60e21b81526001600160a01b0384811660048301529151600019909a0199600093929092169163b72703ac91602480820192602092909190829003018186803b158015611feb57600080fd5b505afa158015611fff573d6000803e3d6000fd5b505050506040513d602081101561201557600080fd5b505190506120228261246c565b61202a61501e565b6120378386868e8e613a85565b8051909150612047575050612099565b8051865161205a9163ffffffff612d9d16565b8652602080820151908701516120759163ffffffff612d9d16565b6020870152805161208d90869063ffffffff6125a516565b94508192505050611f6a565b6120a7846020015183613cc1565b506120b58460200151613e6f565b604080860182905260025460095482516364a197f360e01b81526001600160a01b039182166004820152602481019490945291519116916364a197f391604480830192600092919082900301818387803b15801561211257600080fd5b505af1158015612126573d6000803e3d6000fd5b50506008546040808801518151630f1f150d60e11b8152600481019190915290516001600160a01b039092169350631e3e2a1a925060248082019260009290919082900301818387803b15801561217c57600080fd5b505af1158015612190573d6000803e3d6000fd5b50505050604084015160208501516121a7916125a5565b6060850181905284516121bc91339190613e92565b7f43a3f4082a4dbc33d78e317d2497d3a730bc7fc3574159dcea1056e62e5d9ad88b8560000151866020015187604001516040518085815260200184815260200183815260200182815260200194505050505060405180910390a15050505050505050505050565b670de01e5e7be69fc781565b612238612423565b610ca281613fb9565b60008061224d846111fa565b9050600061225a856123d0565b6001600160a01b0386166000908152600d60205260408120600101549192509061228a908463ffffffff612d9d16565b6001600160a01b0387166000908152600d6020526040812054919250906122b7908463ffffffff612d9d16565b905060006122c68383896137c9565b98975050505050505050565b600c5481565b60006122e2612423565b6001600160a01b0383166000908152600d60205260408120600101546117bb908463ffffffff6125a516565b678ac7230489e8000090565b6001600160a01b03166000908152600d602052604090205490565b60006014828154811061234457fe5b6000918252602090912001546001600160a01b031692915050565b600061236961327d565b600b55670de0b6b3a7640000600b54111561238057fe5b6123886132c1565b50600b5490565b60125481565b60145461111f8282614073565b6011546001600160a01b03821660009081526013602052604090205410919050565b6729a2241af62c000081565b6001600160a01b0381166000908152601360205260408120600101546012548290611228908363ffffffff6125a516565b612409612423565b610ca2816141f5565b600061241d82613e6f565b50919050565b6001546001600160a01b031633146112b75760405162461bcd60e51b815260040180806020018281038252603b81526020018061519e603b913960400191505060405180910390fd5b612475816123a2565b15610ca25761248381613146565b600061248e826111fa565b9050600061249b836123d0565b6001600160a01b0384166000908152600d60205260409020600101549091506124ca908363ffffffff612d9d16565b6001600160a01b0384166000908152600d602052604090206001810191909155546124fb908263ffffffff612d9d16565b6001600160a01b0384166000908152600d602052604090205561251d836137f9565b6125278183614245565b6001600160a01b0383166000818152600d6020908152604080832080546001820154600290920154835191825293810191909152808201929092526060820192909252905160008051602061517e8339815191529181900360800190a2505050565b6000610cb5603c611273600c54426125a590919063ffffffff16565b600061197783836040518060400160405280601e81526020017f536166654d6174683a207375627472616374696f6e206f766572666c6f770000815250614367565b601480546001808201835560008381527fce6d7b5282bd9a3661ae061feed1dbda4e52ab073b1f9285be6e155d9c38d4ec90920180546001600160a01b0319166001600160a01b0386161790559154909161264291906125a5565b6001600160a01b03929092166000908152600d602052604090206003018054610100600160881b0319166101006001600160801b038516021790555090565b6001600160a01b0381166000908152600d602052604081206001015481906126a8906143fe565b6001600160a01b0384166000908152600d60205260409020600201805490829055600e54919250906126f29083906126e6908463ffffffff6125a516565b9063ffffffff612d9d16565b600e555092915050565b612704614f6c565b61270c615038565b612714614f6c565b8482526000608083015260035460408051632f5a97e560e11b8152905161280d926001600160a01b031691635eb52fca916004808301926020929190829003018186803b15801561276457600080fd5b505afa158015612778573d6000803e3d6000fd5b505050506040513d602081101561278e57600080fd5b505160025460408051632f5a97e560e11b815290516001600160a01b0390921691635eb52fca91600480820192602092909190829003018186803b1580156127d557600080fd5b505afa1580156127e9573d6000803e3d6000fd5b505050506040513d60208110156127ff57600080fd5b50519063ffffffff612d9d16565b60a083015260035460408051630a7b61df60e11b815290516128c9926001600160a01b0316916314f6c3be916004808301926020929190829003018186803b15801561285857600080fd5b505afa15801561286c573d6000803e3d6000fd5b505050506040513d602081101561288257600080fd5b505160025460408051630a7b61df60e11b815290516001600160a01b03909216916314f6c3be91600480820192602092909190829003018186803b1580156127d557600080fd5b60c0830152600060208301525b835182602001511015612a8b57838260200151815181106128f357fe5b60209081029190910101516001600160a01b0316606083018190526129189087612241565b60408301526080820151612a1a57670f43fc2c04ee000082604001511015801561294157508151155b1561294b57612a7b565b60006129608360c001518460a00151896137c9565b905061297a8360600151846040015185600001518461443a565b60808101518451919350612994919063ffffffff6125a516565b8352608082015160a08401516129af9163ffffffff6125a516565b60a08085019190915282015160c08401516129cf9163ffffffff6125a516565b60c08401526129de848361461b565b6101008301519094506001600160a01b0316156129fb5750612a8b565b612a0e8360c001518460a001518961475c565b15608084015250612a7b565b608082015115156001148015612a3b5750670f43fc2c04ee00008260400151105b15612a7b57612a5282606001518360000151614790565b60808101518351919250612a6c919063ffffffff6125a516565b8252612a78838261461b565b92505b60208201805160010190526128d6565b50509392505050565b612a9c614f6c565b612aa4615038565b612aac614f6c565b848252600060208301525b835182602001511015612a8b5783826020015181518110612ad457fe5b60209081029190910101516001600160a01b031660608301819052612af99087612241565b60408301819052670f43fc2c04ee00001115612b4a57612b2182606001518360000151614790565b60808101518351919250612b3b919063ffffffff6125a516565b8252612b47838261461b565b92505b6020820180516001019052612ab7565b81612b645761111f565b601554600090612b86906126e684670de0b6b3a764000063ffffffff6131e216565b90506000612bab6016546126e6670de0b6b3a7640000876131e290919063ffffffff16565b90506000612bc4600e548461323b90919063ffffffff16565b90506000612bdd600e548461323b90919063ffffffff16565b9050612c04612bf7600e54846131e290919063ffffffff16565b859063ffffffff6125a516565b601555600e54612c2c90612c1f90839063ffffffff6131e216565b849063ffffffff6125a516565b601655601154612c42908363ffffffff612d9d16565b601155601254612c58908263ffffffff612d9d16565b6012556002546040805163071b32b560e31b81526004810189905290516001600160a01b03909216916338d995a89160248082019260009290919082900301818387803b158015612ca857600080fd5b505af1158015612cbc573d6000803e3d6000fd5b5050600354604080516367dc994d60e11b8152600481018b905290516001600160a01b03909216935063cfb9329a925060248082019260009290919082900301818387803b158015612d0d57600080fd5b505af1158015612d21573d6000803e3d6000fd5b5050600254600354604080516364a197f360e01b81526001600160a01b039283166004820152602481018b905290519190921693506364a197f39250604480830192600092919082900301818387803b158015612d7d57600080fd5b505af1158015612d91573d6000803e3d6000fd5b50505050505050505050565b600082820183811015611977576040805162461bcd60e51b815260206004820152601b60248201527f536166654d6174683a206164646974696f6e206f766572666c6f770000000000604482015290519081900360640190fd5b600e54600f5560025460408051630a7b61df60e11b815290516000926001600160a01b0316916314f6c3be916004808301926020929190829003018186803b158015612e4257600080fd5b505afa158015612e56573d6000803e3d6000fd5b505050506040513d6020811015612e6c57600080fd5b505160035460408051630a7b61df60e11b815290519293506000926001600160a01b03909216916314f6c3be91600480820192602092909190829003018186803b158015612eb957600080fd5b505afa158015612ecd573d6000803e3d6000fd5b505050506040513d6020811015612ee357600080fd5b50519050612efb816126e6848663ffffffff6125a516565b601055505050565b6001600160a01b038616612f165761304a565b6001600160a01b0386166000908152600d6020526040902085815560018082018690556003909101805460ff19169091179055612f52866137f9565b612f5b86612681565b506000612f688783612241565b600a5460408051633a7bc51160e11b81526001600160a01b038b8116600483015260248201859052604482018790528881166064830152878116608483015291519394509116916374f78a229160a48082019260009290919082900301818387803b158015612fd657600080fd5b505af1158015612fea573d6000803e3d6000fd5b50505050612ff7876125e7565b506001600160a01b0387166000818152600d60209081526040918290206002015482518a81529182018990528183015260036060820152905160008051602061517e8339815191529181900360800190a2505b505050505050565b81156130ce5760065460408051631062c15f60e11b81526109a560048201526001600160a01b03868116602483015260448201869052915191909216916320c582be91606480830192600092919082900301818387803b1580156130b557600080fd5b505af11580156130c9573d6000803e3d6000fd5b505050505b801561107c57600254604080516364a197f360e01b81526001600160a01b03868116600483015260248201859052915191909216916364a197f391604480830192600092919082900301818387803b15801561312957600080fd5b505af115801561313d573d6000803e3d6000fd5b50505050505050565b60016001600160a01b0382166000908152600d602052604090206003015460ff16600281111561317257fe5b14610ca25760405162461bcd60e51b815260040180806020018281038252602f81526020018061523d602f913960400191505060405180910390fd5b6000610d0d82678ac7230489e8000063ffffffff612d9d16565b6000610d0d82678ac7230489e8000063ffffffff6125a516565b6000826131f157506000610d0d565b828202828482816131fe57fe5b04146119775760405162461bcd60e51b815260040180806020018281038252602181526020018061510f6021913960400191505060405180910390fd5b600061197783836040518060400160405280601a81526020017f536166654d6174683a206469766973696f6e206279207a65726f00000000000081525061489e565b600080613288612589565b9050600061329e670de01e5e7be69fc783614903565b9050611945670de0b6b3a764000061127383600b546131e290919063ffffffff16565b60006132d8600c54426125a590919063ffffffff16565b9050603c8110610ca25742600c5550565b6132f1614f6c565b6132f9615038565b613301614f6c565b8482526000608083015260035460408051632f5a97e560e11b81529051613351926001600160a01b031691635eb52fca916004808301926020929190829003018186803b15801561276457600080fd5b60a083015260035460408051630a7b61df60e11b8152905161339c926001600160a01b0316916314f6c3be916004808301926020929190829003018186803b15801561285857600080fd5b60c0830152600060208301525b8382602001511015612a8b57600a60009054906101000a90046001600160a01b03166001600160a01b0316634d6228316040518163ffffffff1660e01b815260040160206040518083038186803b15801561340357600080fd5b505afa158015613417573d6000803e3d6000fd5b505050506040513d602081101561342d57600080fd5b50516001600160a01b0316606083018190526134499087612241565b6040830152608082015161354b57670f43fc2c04ee000082604001511015801561347257508151155b1561347c57612a8b565b60006134918360c001518460a00151896137c9565b90506134ab8360600151846040015185600001518461443a565b608081015184519193506134c5919063ffffffff6125a516565b8352608082015160a08401516134e09163ffffffff6125a516565b60a08085019190915282015160c08401516135009163ffffffff6125a516565b60c084015261350f848361461b565b6101008301519094506001600160a01b03161561352c5750612a8b565b61353f8360c001518460a001518961475c565b156080840152506135b5565b60808201511515600114801561356c5750670f43fc2c04ee00008260400151105b156135b05761358382606001518360000151614790565b6080810151835191925061359d919063ffffffff6125a516565b82526135a9838261461b565b92506135b5565b612a8b565b60208201805160010190526133a9565b6135cd614f6c565b6135d5615038565b6135dd614f6c565b848252600060208301525b8382602001511015612a8b57600a60009054906101000a90046001600160a01b03166001600160a01b0316634d6228316040518163ffffffff1660e01b815260040160206040518083038186803b15801561364257600080fd5b505afa158015613656573d6000803e3d6000fd5b505050506040513d602081101561366c57600080fd5b50516001600160a01b0316606083018190526136889087612241565b60408301819052670f43fc2c04ee000011156135b0576136b082606001518360000151614790565b608081015183519192506136ca919063ffffffff6125a516565b82526136d6838261461b565b9250600a60009054906101000a90046001600160a01b03166001600160a01b0316631e2231436040518163ffffffff1660e01b815260040160206040518083038186803b15801561372657600080fd5b505afa15801561373a573d6000803e3d6000fd5b505050506040513d602081101561375057600080fd5b505160608301516001600160a01b039081169116141561376f57612a8b565b60208201805160010190526135e8565b600080546040516001600160a01b03909116907f8be0079c531659141344cd1fd0a4f28419497f9722a3daafe3b4186f6b6457e0908390a3600080546001600160a01b0319169055565b600082156137f05760006137e784611273878663ffffffff6131e216565b91506119779050565b50600019611977565b6011546001600160a01b039091166000908152601360205260409020908155601254600190910155565b60c8900490565b60008111610ca25760405162461bcd60e51b815260040180806020018281038252602e81526020018061520f602e913960400191505060405180910390fd5b600654604080516370a0823160e01b81526001600160a01b0385811660048301529151849392909216916370a0823191602480820192602092909190829003018186803b1580156138b957600080fd5b505afa1580156138cd573d6000803e3d6000fd5b505050506040513d60208110156138e357600080fd5b5051101561111f5760405162461bcd60e51b815260040180806020018281038252604e815260200180615130604e913960600191505060405180910390fd5b60006001600160a01b03831615806139b05750600a5460408051630bb7c8fd60e31b81526001600160a01b03868116600483015291519190921691635dbe47e8916024808301926020929190829003018186803b15801561398257600080fd5b505afa158015613996573d6000803e3d6000fd5b505050506040513d60208110156139ac57600080fd5b5051155b806139cb5750670f43fc2c04ee00006139c98484612241565b105b156139d857506000610d0d565b600a546040805163765e015960e01b81526001600160a01b0386811660048301529151600093929092169163765e015991602480820192602092909190829003018186803b158015613a2957600080fd5b505afa158015613a3d573d6000803e3d6000fd5b505050506040513d6020811015613a5357600080fd5b505190506001600160a01b0381161580613a7d5750670f43fc2c04ee0000613a7b8285612241565b105b949350505050565b613a8d61501e565b6001600160a01b0386166000908152600d6020526040902054613ac9908690613ac490678ac7230489e8000063ffffffff6125a516565b6149ae565b808252613aea90859061127390670de0b6b3a764000063ffffffff6131e216565b60208083019190915281516001600160a01b0388166000908152600d9092526040822054613b1d9163ffffffff6125a516565b6020808401516001600160a01b038a166000908152600d90925260408220600101549293509091613b539163ffffffff6125a516565b9050678ac7230489e80000821415613b8f57613b6e886141f5565b613b7788613fb9565b613b8a88678ac7230489e80000836149c4565b613c65565b6000613b9c8284896137c9565b9050848114613bb75750506000808352602083015250613cb8565b600a5460408051621d45b760e21b81526001600160a01b038c8116600483015260248201859052604482018b905289811660648301819052608483015291519190921691627516dc9160a480830192600092919082900301818387803b158015613c2057600080fd5b505af1158015613c34573d6000803e3d6000fd5b5050506001600160a01b038a166000908152600d6020526040902084815560010183905550613c6289612681565b50505b6001600160a01b0388166000818152600d60209081526040918290206002015482518681529182018590528183015260046060820152905160008051602061517e8339815191529181900360800190a250505b95945050505050565b600080613ccc61327d565b90506000600260009054906101000a90046001600160a01b03166001600160a01b0316635eb52fca6040518163ffffffff1660e01b815260040160206040518083038186803b158015613d1e57600080fd5b505afa158015613d32573d6000803e3d6000fd5b505050506040513d6020811015613d4857600080fd5b505160035460408051632f5a97e560e11b815290519293506000926001600160a01b0390921691635eb52fca91600480820192602092909190829003018186803b158015613d9557600080fd5b505afa158015613da9573d6000803e3d6000fd5b505050506040513d6020811015613dbf57600080fd5b505190506000613dd5838363ffffffff612d9d16565b90506000613ded826112738a8a63ffffffff6131e216565b90506000613e12613e0583600263ffffffff61323b16565b879063ffffffff612d9d16565b9050670de0b6b3a76400008110613e3157670de0b6b3a7640000613e33565b805b600b819055670de0b6b3a764000010801590613e5157506000600b54115b613e5757fe5b613e5f6132c1565b5050600b54979650505050505050565b6000610d0d670de0b6b3a764000061127384600b546131e290919063ffffffff16565b60065460408051632770a7eb60e21b81526001600160a01b0386811660048301526024820186905291519190921691639dc29fac91604480830192600092919082900301818387803b158015613ee757600080fd5b505af1158015613efb573d6000803e3d6000fd5b50506002546040805163071b32b560e31b81526004810187905290516001600160a01b0390921693506338d995a8925060248082019260009290919082900301818387803b158015613f4c57600080fd5b505af1158015613f60573d6000803e3d6000fd5b5050600254604080516364a197f360e01b81526001600160a01b0388811660048301526024820187905291519190921693506364a197f39250604480830192600092919082900301818387803b15801561312957600080fd5b601454613fc581614b5b565b6001600160a01b0382166000908152600d6020908152604080832060038101805460ff191660021790556001808201859055908490556013909252822082815501556140118282614073565b600a5460408051631484968760e11b81526001600160a01b038581166004830152915191909216916329092d0e91602480830192600092919082900301818387803b15801561405f57600080fd5b505af115801561304a573d6000803e3d6000fd5b60026001600160a01b0383166000908152600d602052604090206003015460ff16600281111561409f57fe5b146140db5760405162461bcd60e51b81526004018080602001828103825260238152602001806150c26023913960400191505060405180910390fd5b6001600160a01b0382166000908152600d602052604081206003015461010090046001600160801b03169082906141138260016125a5565b905080836001600160801b0316111561412857fe5b60006014828154811061413757fe5b600091825260209091200154601480546001600160a01b03909216925082916001600160801b03871690811061416957fe5b600091825260208083209190910180546001600160a01b0319166001600160a01b039485161790559183168152600d909152604090206003018054610100600160881b0319166101006001600160801b0387160217905560148054806141cb57fe5b600082815260209020810160001990810180546001600160a01b0319169055019055505050505050565b6001600160a01b0381166000908152600d6020526040902060020154600e54614224908263ffffffff6125a516565b600e55506001600160a01b03166000908152600d6020526040812060020155565b6003546040805163071b32b560e31b81526004810185905290516001600160a01b03909216916338d995a89160248082019260009290919082900301818387803b15801561429257600080fd5b505af11580156142a6573d6000803e3d6000fd5b5050600254604080516367dc994d60e11b81526004810187905290516001600160a01b03909216935063cfb9329a925060248082019260009290919082900301818387803b1580156142f757600080fd5b505af115801561430b573d6000803e3d6000fd5b5050600354600254604080516364a197f360e01b81526001600160a01b0392831660048201526024810187905290519190921693506364a197f39250604480830192600092919082900301818387803b15801561405f57600080fd5b600081848411156143f65760405162461bcd60e51b81526004018080602001828103825283818151815260200191508051906020019080838360005b838110156143bb5781810151838201526020016143a3565b50505050905090810190601f1680156143e85780820380516001836020036101000a031916815260200191505b509250505060405180910390fd5b505050900390565b60008060105460001415614413575081610d0d565b6000600f541161441f57fe5b611977601054611273600f54866131e290919063ffffffff16565b614442614f6c565b61444a615080565b60145460011061445a5750613a7d565b61446386611ba7565b604085019081526020858101928352860192909252918452905190516144899190614245565b6144968260200151613823565b60408301819052678ac7230489e80000606084015260208301516144bf9163ffffffff6125a516565b8152670de0b6b3a76400008511614559576144d9866141f5565b60006080830181905260a0830152815160c0830152805160e08301526144fe86613fb9565b856001600160a01b03166000805160206150a28339815191528360000151846020015160026040518084815260200183815260200182600481111561453f57fe5b60ff168152602001935050505060405180910390a2614612565b670de0b6b3a7640000851180156145775750670f43fc2c04ee000085105b156145b157614585866141f5565b81518151614594919086614c14565b60e086015260c085015260a084015260808301526144fe86613fb9565b670f43fc2c04ee000085101580156145c857508285105b1561460157836145d457fe5b6145dd866141f5565b6145f1868360000151846020015187614c80565b91506145fc86613fb9565b614612565b614609614f6c565b9150613a7d9050565b50949350505050565b614623614f6c565b6040808301519084015161463c9163ffffffff612d9d16565b60408201526060808301519084015161465a9163ffffffff612d9d16565b6060820152815160208401516146759163ffffffff612d9d16565b60208083019190915282015183516146929163ffffffff612d9d16565b8152608080830151908401516146ad9163ffffffff612d9d16565b608082015260a080830151908401516146cb9163ffffffff612d9d16565b60a082015260c080830151908401516146e99163ffffffff612d9d16565b60c082015260e080830151908401516147079163ffffffff612d9d16565b60e0820152610100808301516001600160a01b03908116918301919091526101208084015190830152610140808401519083015261016080840151821690830152610180808401519091169082015292915050565b60008061476a8585856137c9565b90506714d1120d7b160000811015614786576001915050611977565b6000915050611977565b614798614f6c565b6147a0615080565b6147a984611ba7565b604085019081526020858101928352860192909252918452905190516147cf9190614245565b6147d8846141f5565b6147e58260200151613823565b60408301819052678ac7230489e8000060608401526020830151600091614812919063ffffffff6125a516565b905061482383600001518286614c14565b60e087015260c086015260a0850152608084015261484085613fb9565b846001600160a01b03166000805160206150a28339815191528460000151856020015160016040518084815260200183815260200182600481111561488157fe5b60ff168152602001935050505060405180910390a2505092915050565b600081836148ed5760405162461bcd60e51b81526020600482018181528351602484015283519092839260449091019190850190808383600083156143bb5781810151838201526020016143a3565b5060008385816148f957fe5b0495945050505050565b6000631f54050082111561491957631f54050091505b8161492d5750670de0b6b3a7640000610d0d565b670de0b6b3a764000083835b60018111156149a4576002810661496e576149548283614ef2565b915061496781600263ffffffff61323b16565b905061499f565b6149788284614ef2565b92506149848283614ef2565b915061499c600261127383600163ffffffff6125a516565b90505b614939565b61127f8284614ef2565b60008183106149bd5781611977565b5090919050565b60065460408051632770a7eb60e21b81526109a560048201526024810185905290516001600160a01b0390921691639dc29fac9160448082019260009290919082900301818387803b158015614a1957600080fd5b505af1158015614a2d573d6000803e3d6000fd5b50506002546040805163071b32b560e31b81526004810187905290516001600160a01b0390921693506338d995a8925060248082019260009290919082900301818387803b158015614a7e57600080fd5b505af1158015614a92573d6000803e3d6000fd5b505060055460408051633f10abab60e01b81526001600160a01b038881166004830152602482018790529151919092169350633f10abab9250604480830192600092919082900301818387803b158015614aeb57600080fd5b505af1158015614aff573d6000803e3d6000fd5b5050600254600554604080516364a197f360e01b81526001600160a01b0392831660048201526024810187905290519190921693506364a197f39250604480830192600092919082900301818387803b15801561312957600080fd5b600181118015614bd95750600a546040805163de8fa43160e01b815290516001926001600160a01b03169163de8fa431916004808301926020929190829003018186803b158015614bab57600080fd5b505afa158015614bbf573d6000803e3d6000fd5b505050506040513d6020811015614bd557600080fd5b5051115b610ca25760405162461bcd60e51b815260040180806020018281038252602a8152602001806150e5602a913960400191505060405180910390fd5b60008080808415614c6a57614c2987866149ae565b9350614c3f87611273888763ffffffff6131e216565b9250614c51878563ffffffff6125a516565b9150614c63868463ffffffff6125a516565b9050614c77565b5060009250829150859050845b93509350935093565b614c88614f6c565b83815260208101839052818411614d2157614ca283613823565b60408201819052678ac7230489e80000606083015260808201859052614ccf90849063ffffffff6125a516565b60a0820152600060c0820181905260e0820152604080518581526020810185905260028183015290516001600160a01b038716916000805160206150a2833981519152919081900360600190a2613a7d565b614d42614d34858463ffffffff6125a516565b678ac7230489e80000614f2b565b6101208201819052614d5b90859063ffffffff6125a516565b60808201819052600090614d7c90869061127390879063ffffffff6131e216565b9050614d8781613823565b6040830181905260006060840152614da690829063ffffffff6125a516565b60a0830152600060e0830181905260c08301526001600160a01b038616610100830152614dd9848263ffffffff6125a516565b610140830152600a5460408051632dc9c0eb60e21b81526001600160a01b0389811660048301529151919092169163b72703ac916024808301926020929190829003018186803b158015614e2c57600080fd5b505afa158015614e40573d6000803e3d6000fd5b505050506040513d6020811015614e5657600080fd5b50516001600160a01b03908116610160840152600a546040805163765e015960e01b815289841660048201529051919092169163765e0159916024808301926020929190829003018186803b158015614eae57600080fd5b505afa158015614ec2573d6000803e3d6000fd5b505050506040513d6020811015614ed857600080fd5b50516001600160a01b031661018083015250949350505050565b600080614f05848463ffffffff6131e216565b9050613a7d670de0b6b3a7640000611273836706f05b59d3b2000063ffffffff612d9d16565b6000818310156149bd5781611977565b6040518060a00160405280600081526020016000815260200160001515815260200160008152602001600081525090565b604051806101a00160405280600081526020016000815260200160008152602001600081526020016000815260200160008152602001600081526020016000815260200160006001600160a01b03168152602001600081526020016000815260200160006001600160a01b0316815260200160006001600160a01b031681525090565b6040518060a0016040528060008152602001600081526020016000815260200160008152602001600081525090565b604051806040016040528060008152602001600081525090565b6040518060e0016040528060008152602001600081526020016000815260200160006001600160a01b0316815260200160001515815260200160008152602001600081525090565b6040518060600160405280600081526020016000815260200160008152509056feea67486ed7ebe3eea8ab3390efd4a3c8aae48be5bea27df104a8af786c40843454726f76654d616e616765723a2054726f7665206973207374696c6c2061637469766554726f76654d616e616765723a204f6e6c79206f6e652074726f766520696e207468652073797374656d536166654d6174683a206d756c7469706c69636174696f6e206f766572666c6f7754726f76654d616e616765723a2052657175657374656420726564656d7074696f6e20616d6f756e74206d757374206265203c3d20757365722773204c55534420746f6b656e2062616c616e6365c3770d654ed33aeea6bf11ac8ef05d02a6a04ed4686dd2f624d853bbec43cc8b54726f76654d616e616765723a2043616c6c6572206973206e6f742074686520426f72726f7765724f7065726174696f6e7320636f6e747261637454726f76654d616e616765723a2043616c6c646174612061646472657373206172726179206d757374206e6f7420626520656d70747954726f76654d616e616765723a20416d6f756e74206d7573742062652067726561746572207468616e207a65726f54726f76654d616e616765723a2054726f766520646f6573206e6f74206578697374206f7220697320636c6f736564a264697066735822122040768cadf46a6763c9a52088d9f7094944023537ff78594e6febd6c911b45dc164736f6c634300060b0033",
  "linkReferences": {},
  "deployedLinkReferences": {}
}