{
  "_format": "hh-sol-artifact-1",
  "contractName": "TroveManagerTester",
  "sourceName": "contracts/TestContracts/CDPManagerTester.sol",
  "abi": [
    {
      "anonymous": false,
      "inputs": [
        {
          "indexed": false,
          "internalType": "address",
          "name": "_activePoolAddress",
          "type": "address"
        }
      ],
      "name": "ActivePoolAddressChanged",
      "type": "event"
    },
    {
      "anonymous": false,
      "inputs": [
        {
          "indexed": false,
          "internalType": "address",
          "name": "_newBorrowerOperationsAddress",
          "type": "address"
        }
      ],
      "name": "BorrowerOperationsAddressChanged",
      "type": "event"
    },
    {
      "anonymous": false,
      "inputs": [
        {
          "indexed": false,
          "internalType": "address",
          "name": "_collSurplusPoolAddress",
          "type": "address"
        }
      ],
      "name": "CollSurplusPoolAddressChanged",
      "type": "event"
    },
    {
      "anonymous": false,
      "inputs": [
        {
          "indexed": false,
          "internalType": "address",
          "name": "_defaultPoolAddress",
          "type": "address"
        }
      ],
      "name": "DefaultPoolAddressChanged",
      "type": "event"
    },
    {
      "anonymous": false,
      "inputs": [
        {
          "indexed": false,
          "internalType": "address",
          "name": "_gasPoolAddress",
          "type": "address"
        }
      ],
      "name": "GasPoolAddressChanged",
      "type": "event"
    },
    {
      "anonymous": false,
      "inputs": [
        {
          "indexed": false,
          "internalType": "address",
          "name": "_lqtyStakingAddress",
          "type": "address"
        }
      ],
      "name": "LQTYStakingAddressChanged",
      "type": "event"
    },
    {
      "anonymous": false,
      "inputs": [
        {
          "indexed": false,
          "internalType": "address",
          "name": "_lqtyTokenAddress",
          "type": "address"
        }
      ],
      "name": "LQTYTokenAddressChanged",
      "type": "event"
    },
    {
      "anonymous": false,
      "inputs": [
        {
          "indexed": false,
          "internalType": "address",
          "name": "_newLUSDTokenAddress",
          "type": "address"
        }
      ],
      "name": "LUSDTokenAddressChanged",
      "type": "event"
    },
    {
      "anonymous": false,
      "inputs": [
        {
          "indexed": false,
          "internalType": "uint256",
          "name": "_liquidatedDebt",
          "type": "uint256"
        },
        {
          "indexed": false,
          "internalType": "uint256",
          "name": "_liquidatedColl",
          "type": "uint256"
        },
        {
          "indexed": false,
          "internalType": "uint256",
          "name": "_collGasCompensation",
          "type": "uint256"
        },
        {
          "indexed": false,
          "internalType": "uint256",
          "name": "_LUSDGasCompensation",
          "type": "uint256"
        }
      ],
      "name": "Liquidation",
      "type": "event"
    },
    {
      "anonymous": false,
      "inputs": [
        {
          "indexed": true,
          "internalType": "address",
          "name": "previousOwner",
          "type": "address"
        },
        {
          "indexed": true,
          "internalType": "address",
          "name": "newOwner",
          "type": "address"
        }
      ],
      "name": "OwnershipTransferred",
      "type": "event"
    },
    {
      "anonymous": false,
      "inputs": [
        {
          "indexed": false,
          "internalType": "address",
          "name": "_newPriceFeedAddress",
          "type": "address"
        }
      ],
      "name": "PriceFeedAddressChanged",
      "type": "event"
    },
    {
      "anonymous": false,
      "inputs": [
        {
          "indexed": false,
          "internalType": "uint256",
          "name": "_attemptedLUSDAmount",
          "type": "uint256"
        },
        {
          "indexed": false,
          "internalType": "uint256",
          "name": "_actualLUSDAmount",
          "type": "uint256"
        },
        {
          "indexed": false,
          "internalType": "uint256",
          "name": "_ETHSent",
          "type": "uint256"
        },
        {
          "indexed": false,
          "internalType": "uint256",
          "name": "_ETHFee",
          "type": "uint256"
        }
      ],
      "name": "Redemption",
      "type": "event"
    },
    {
      "anonymous": false,
      "inputs": [
        {
          "indexed": false,
          "internalType": "address",
          "name": "_sortedTrovesAddress",
          "type": "address"
        }
      ],
      "name": "SortedTrovesAddressChanged",
      "type": "event"
    },
    {
      "anonymous": false,
      "inputs": [
        {
          "indexed": false,
          "internalType": "address",
          "name": "_stabilityPoolAddress",
          "type": "address"
        }
      ],
      "name": "StabilityPoolAddressChanged",
      "type": "event"
    },
    {
      "anonymous": false,
      "inputs": [
        {
          "indexed": true,
          "internalType": "address",
          "name": "_borrower",
          "type": "address"
        },
        {
          "indexed": false,
          "internalType": "uint256",
          "name": "_arrayIndex",
          "type": "uint256"
        }
      ],
      "name": "TroveCreated",
      "type": "event"
    },
    {
      "anonymous": false,
      "inputs": [
        {
          "indexed": true,
          "internalType": "address",
          "name": "_borrower",
          "type": "address"
        },
        {
          "indexed": false,
          "internalType": "uint256",
          "name": "_debt",
          "type": "uint256"
        },
        {
          "indexed": false,
          "internalType": "uint256",
          "name": "_coll",
          "type": "uint256"
        },
        {
          "indexed": false,
          "internalType": "enum TroveManager.TroveManagerOperation",
          "name": "_operation",
          "type": "uint8"
        }
      ],
      "name": "TroveLiquidated",
      "type": "event"
    },
    {
      "anonymous": false,
      "inputs": [
        {
          "indexed": true,
          "internalType": "address",
          "name": "_borrower",
          "type": "address"
        },
        {
          "indexed": false,
          "internalType": "uint256",
          "name": "_debt",
          "type": "uint256"
        },
        {
          "indexed": false,
          "internalType": "uint256",
          "name": "_coll",
          "type": "uint256"
        },
        {
          "indexed": false,
          "internalType": "uint256",
          "name": "_stake",
          "type": "uint256"
        },
        {
          "indexed": false,
          "internalType": "enum TroveManager.TroveManagerOperation",
          "name": "_operation",
          "type": "uint8"
        }
      ],
      "name": "TroveUpdated",
      "type": "event"
    },
    {
      "inputs": [],
      "name": "BETA",
      "outputs": [
        {
          "internalType": "uint256",
          "name": "",
          "type": "uint256"
        }
      ],
      "stateMutability": "view",
      "type": "function"
    },
    {
      "inputs": [],
      "name": "BOOTSTRAP_PERIOD",
      "outputs": [
        {
          "internalType": "uint256",
          "name": "",
          "type": "uint256"
        }
      ],
      "stateMutability": "view",
      "type": "function"
    },
    {
      "inputs": [],
      "name": "BORROWING_FEE_FLOOR",
      "outputs": [
        {
          "internalType": "uint256",
          "name": "",
          "type": "uint256"
        }
      ],
      "stateMutability": "view",
      "type": "function"
    },
    {
      "inputs": [],
      "name": "CCR",
      "outputs": [
        {
          "internalType": "uint256",
          "name": "",
          "type": "uint256"
        }
      ],
      "stateMutability": "view",
      "type": "function"
    },
    {
      "inputs": [],
      "name": "DECIMAL_PRECISION",
      "outputs": [
        {
          "internalType": "uint256",
          "name": "",
          "type": "uint256"
        }
      ],
      "stateMutability": "view",
      "type": "function"
    },
    {
      "inputs": [],
      "name": "LUSD_GAS_COMPENSATION",
      "outputs": [
        {
          "internalType": "uint256",
          "name": "",
          "type": "uint256"
        }
      ],
      "stateMutability": "view",
      "type": "function"
    },
    {
      "inputs": [],
      "name": "L_ETH",
      "outputs": [
        {
          "internalType": "uint256",
          "name": "",
          "type": "uint256"
        }
      ],
      "stateMutability": "view",
      "type": "function"
    },
    {
      "inputs": [],
      "name": "L_LUSDDebt",
      "outputs": [
        {
          "internalType": "uint256",
          "name": "",
          "type": "uint256"
        }
      ],
      "stateMutability": "view",
      "type": "function"
    },
    {
      "inputs": [],
      "name": "MAX_BORROWING_FEE",
      "outputs": [
        {
          "internalType": "uint256",
          "name": "",
          "type": "uint256"
        }
      ],
      "stateMutability": "view",
      "type": "function"
    },
    {
      "inputs": [],
      "name": "MCR",
      "outputs": [
        {
          "internalType": "uint256",
          "name": "",
          "type": "uint256"
        }
      ],
      "stateMutability": "view",
      "type": "function"
    },
    {
      "inputs": [],
      "name": "MINUTE_DECAY_FACTOR",
      "outputs": [
        {
          "internalType": "uint256",
          "name": "",
          "type": "uint256"
        }
      ],
      "stateMutability": "view",
      "type": "function"
    },
    {
      "inputs": [],
      "name": "PERCENT_DIVISOR",
      "outputs": [
        {
          "internalType": "uint256",
          "name": "",
          "type": "uint256"
        }
      ],
      "stateMutability": "view",
      "type": "function"
    },
    {
      "inputs": [],
      "name": "REDEMPTION_FEE_FLOOR",
      "outputs": [
        {
          "internalType": "uint256",
          "name": "",
          "type": "uint256"
        }
      ],
      "stateMutability": "view",
      "type": "function"
    },
    {
      "inputs": [],
      "name": "SECONDS_IN_ONE_MINUTE",
      "outputs": [
        {
          "internalType": "uint256",
          "name": "",
          "type": "uint256"
        }
      ],
      "stateMutability": "view",
      "type": "function"
    },
    {
      "inputs": [
        {
          "internalType": "uint256",
          "name": "",
          "type": "uint256"
        }
      ],
      "name": "TroveOwners",
      "outputs": [
        {
          "internalType": "address",
          "name": "",
          "type": "address"
        }
      ],
      "stateMutability": "view",
      "type": "function"
    },
    {
      "inputs": [
        {
          "internalType": "address",
          "name": "",
          "type": "address"
        }
      ],
      "name": "Troves",
      "outputs": [
        {
          "internalType": "uint256",
          "name": "debt",
          "type": "uint256"
        },
        {
          "internalType": "uint256",
          "name": "coll",
          "type": "uint256"
        },
        {
          "internalType": "uint256",
          "name": "stake",
          "type": "uint256"
        },
        {
          "internalType": "enum TroveManager.Status",
          "name": "status",
          "type": "uint8"
        },
        {
          "internalType": "uint128",
          "name": "arrayIndex",
          "type": "uint128"
        }
      ],
      "stateMutability": "view",
      "type": "function"
    },
    {
      "inputs": [],
      "name": "_100pct",
      "outputs": [
        {
          "internalType": "uint256",
          "name": "",
          "type": "uint256"
        }
      ],
      "stateMutability": "view",
      "type": "function"
    },
    {
      "inputs": [],
      "name": "activePool",
      "outputs": [
        {
          "internalType": "contract IActivePool",
          "name": "",
          "type": "address"
        }
      ],
      "stateMutability": "view",
      "type": "function"
    },
    {
      "inputs": [
        {
          "internalType": "address",
          "name": "_borrower",
          "type": "address"
        }
      ],
      "name": "addTroveOwnerToArray",
      "outputs": [
        {
          "internalType": "uint256",
          "name": "index",
          "type": "uint256"
        }
      ],
      "stateMutability": "nonpayable",
      "type": "function"
    },
    {
      "inputs": [
        {
          "internalType": "address",
          "name": "_borrower",
          "type": "address"
        }
      ],
      "name": "applyPendingRewards",
      "outputs": [],
      "stateMutability": "nonpayable",
      "type": "function"
    },
    {
      "inputs": [],
      "name": "baseRate",
      "outputs": [
        {
          "internalType": "uint256",
          "name": "",
          "type": "uint256"
        }
      ],
      "stateMutability": "view",
      "type": "function"
    },
    {
      "inputs": [
        {
          "internalType": "address[]",
          "name": "_troveArray",
          "type": "address[]"
        }
      ],
      "name": "batchLiquidateTroves",
      "outputs": [],
      "stateMutability": "nonpayable",
      "type": "function"
    },
    {
      "inputs": [],
      "name": "borrowerOperationsAddress",
      "outputs": [
        {
          "internalType": "address",
          "name": "",
          "type": "address"
        }
      ],
      "stateMutability": "view",
      "type": "function"
    },
    {
      "inputs": [
        {
          "internalType": "uint256",
          "name": "_ETHDrawn",
          "type": "uint256"
        }
      ],
      "name": "callGetRedemptionFee",
      "outputs": [
        {
          "internalType": "uint256",
          "name": "",
          "type": "uint256"
        }
      ],
      "stateMutability": "view",
      "type": "function"
    },
    {
      "inputs": [
        {
          "internalType": "address",
          "name": "_troveOwner",
          "type": "address"
        }
      ],
      "name": "callInternalRemoveTroveOwner",
      "outputs": [],
      "stateMutability": "nonpayable",
      "type": "function"
    },
    {
      "inputs": [
        {
          "internalType": "uint256",
          "name": "_price",
          "type": "uint256"
        }
      ],
      "name": "checkRecoveryMode",
      "outputs": [
        {
          "internalType": "bool",
          "name": "",
          "type": "bool"
        }
      ],
      "stateMutability": "view",
      "type": "function"
    },
    {
      "inputs": [
        {
          "internalType": "address",
          "name": "_borrower",
          "type": "address"
        }
      ],
      "name": "closeTrove",
      "outputs": [],
      "stateMutability": "nonpayable",
      "type": "function"
    },
    {
      "inputs": [
        {
          "internalType": "uint256",
          "name": "_coll",
          "type": "uint256"
        },
        {
          "internalType": "uint256",
          "name": "_debt",
          "type": "uint256"
        },
        {
          "internalType": "uint256",
          "name": "_price",
          "type": "uint256"
        }
      ],
      "name": "computeICR",
      "outputs": [
        {
          "internalType": "uint256",
          "name": "",
          "type": "uint256"
        }
      ],
      "stateMutability": "pure",
      "type": "function"
    },
    {
      "inputs": [],
      "name": "decayBaseRateFromBorrowing",
      "outputs": [],
      "stateMutability": "nonpayable",
      "type": "function"
    },
    {
      "inputs": [
        {
          "internalType": "address",
          "name": "_borrower",
          "type": "address"
        },
        {
          "internalType": "uint256",
          "name": "_collDecrease",
          "type": "uint256"
        }
      ],
      "name": "decreaseTroveColl",
      "outputs": [
        {
          "internalType": "uint256",
          "name": "",
          "type": "uint256"
        }
      ],
      "stateMutability": "nonpayable",
      "type": "function"
    },
    {
      "inputs": [
        {
          "internalType": "address",
          "name": "_borrower",
          "type": "address"
        },
        {
          "internalType": "uint256",
          "name": "_debtDecrease",
          "type": "uint256"
        }
      ],
      "name": "decreaseTroveDebt",
      "outputs": [
        {
          "internalType": "uint256",
          "name": "",
          "type": "uint256"
        }
      ],
      "stateMutability": "nonpayable",
      "type": "function"
    },
    {
      "inputs": [],
      "name": "defaultPool",
      "outputs": [
        {
          "internalType": "contract IDefaultPool",
          "name": "",
          "type": "address"
        }
      ],
      "stateMutability": "view",
      "type": "function"
    },
    {
      "inputs": [
        {
          "internalType": "uint256",
          "name": "_debtVal",
          "type": "uint256"
        }
      ],
      "name": "getActualDebtFromComposite",
      "outputs": [
        {
          "internalType": "uint256",
          "name": "",
          "type": "uint256"
        }
      ],
      "stateMutability": "pure",
      "type": "function"
    },
    {
      "inputs": [
        {
          "internalType": "uint256",
          "name": "_LUSDDebt",
          "type": "uint256"
        }
      ],
      "name": "getBorrowingFee",
      "outputs": [
        {
          "internalType": "uint256",
          "name": "",
          "type": "uint256"
        }
      ],
      "stateMutability": "view",
      "type": "function"
    },
    {
      "inputs": [],
      "name": "getBorrowingRate",
      "outputs": [
        {
          "internalType": "uint256",
          "name": "",
          "type": "uint256"
        }
      ],
      "stateMutability": "view",
      "type": "function"
    },
    {
      "inputs": [
        {
          "internalType": "uint256",
          "name": "_coll",
          "type": "uint256"
        }
      ],
      "name": "getCollGasCompensation",
      "outputs": [
        {
          "internalType": "uint256",
          "name": "",
          "type": "uint256"
        }
      ],
      "stateMutability": "pure",
      "type": "function"
    },
    {
      "inputs": [
        {
          "internalType": "uint256",
          "name": "_debt",
          "type": "uint256"
        }
      ],
      "name": "getCompositeDebt",
      "outputs": [
        {
          "internalType": "uint256",
          "name": "",
          "type": "uint256"
        }
      ],
      "stateMutability": "pure",
      "type": "function"
    },
    {
      "inputs": [
        {
          "internalType": "address",
          "name": "_borrower",
          "type": "address"
        },
        {
          "internalType": "uint256",
          "name": "_price",
          "type": "uint256"
        }
      ],
      "name": "getCurrentICR",
      "outputs": [
        {
          "internalType": "uint256",
          "name": "",
          "type": "uint256"
        }
      ],
      "stateMutability": "view",
      "type": "function"
    },
    {
      "inputs": [
        {
          "internalType": "address",
          "name": "_borrower",
          "type": "address"
        }
      ],
      "name": "getEntireDebtAndColl",
      "outputs": [
        {
          "internalType": "uint256",
          "name": "debt",
          "type": "uint256"
        },
        {
          "internalType": "uint256",
          "name": "coll",
          "type": "uint256"
        },
        {
          "internalType": "uint256",
          "name": "pendingLUSDDebtReward",
          "type": "uint256"
        },
        {
          "internalType": "uint256",
          "name": "pendingETHReward",
          "type": "uint256"
        }
      ],
      "stateMutability": "view",
      "type": "function"
    },
    {
      "inputs": [],
      "name": "getEntireSystemColl",
      "outputs": [
        {
          "internalType": "uint256",
          "name": "entireSystemColl",
          "type": "uint256"
        }
      ],
      "stateMutability": "view",
      "type": "function"
    },
    {
      "inputs": [],
      "name": "getEntireSystemDebt",
      "outputs": [
        {
          "internalType": "uint256",
          "name": "entireSystemDebt",
          "type": "uint256"
        }
      ],
      "stateMutability": "view",
      "type": "function"
    },
    {
      "inputs": [],
      "name": "getLUSDGasCompensation",
      "outputs": [
        {
          "internalType": "uint256",
          "name": "",
          "type": "uint256"
        }
      ],
      "stateMutability": "pure",
      "type": "function"
    },
    {
      "inputs": [
        {
          "internalType": "address",
          "name": "_borrower",
          "type": "address"
        }
      ],
      "name": "getNominalICR",
      "outputs": [
        {
          "internalType": "uint256",
          "name": "",
          "type": "uint256"
        }
      ],
      "stateMutability": "view",
      "type": "function"
    },
    {
      "inputs": [
        {
          "internalType": "address",
          "name": "_borrower",
          "type": "address"
        }
      ],
      "name": "getPendingETHReward",
      "outputs": [
        {
          "internalType": "uint256",
          "name": "",
          "type": "uint256"
        }
      ],
      "stateMutability": "view",
      "type": "function"
    },
    {
      "inputs": [
        {
          "internalType": "address",
          "name": "_borrower",
          "type": "address"
        }
      ],
      "name": "getPendingLUSDDebtReward",
      "outputs": [
        {
          "internalType": "uint256",
          "name": "",
          "type": "uint256"
        }
      ],
      "stateMutability": "view",
      "type": "function"
    },
    {
      "inputs": [],
      "name": "getRedemptionRate",
      "outputs": [
        {
          "internalType": "uint256",
          "name": "",
          "type": "uint256"
        }
      ],
      "stateMutability": "view",
      "type": "function"
    },
    {
      "inputs": [
        {
          "internalType": "uint256",
          "name": "_price",
          "type": "uint256"
        }
      ],
      "name": "getTCR",
      "outputs": [
        {
          "internalType": "uint256",
          "name": "",
          "type": "uint256"
        }
      ],
      "stateMutability": "view",
      "type": "function"
    },
    {
      "inputs": [
        {
          "internalType": "address",
          "name": "_borrower",
          "type": "address"
        }
      ],
      "name": "getTroveColl",
      "outputs": [
        {
          "internalType": "uint256",
          "name": "",
          "type": "uint256"
        }
      ],
      "stateMutability": "view",
      "type": "function"
    },
    {
      "inputs": [
        {
          "internalType": "address",
          "name": "_borrower",
          "type": "address"
        }
      ],
      "name": "getTroveDebt",
      "outputs": [
        {
          "internalType": "uint256",
          "name": "",
          "type": "uint256"
        }
      ],
      "stateMutability": "view",
      "type": "function"
    },
    {
      "inputs": [
        {
          "internalType": "uint256",
          "name": "_index",
          "type": "uint256"
        }
      ],
      "name": "getTroveFromTroveOwnersArray",
      "outputs": [
        {
          "internalType": "address",
          "name": "",
          "type": "address"
        }
      ],
      "stateMutability": "view",
      "type": "function"
    },
    {
      "inputs": [],
      "name": "getTroveOwnersCount",
      "outputs": [
        {
          "internalType": "uint256",
          "name": "",
          "type": "uint256"
        }
      ],
      "stateMutability": "view",
      "type": "function"
    },
    {
      "inputs": [
        {
          "internalType": "address",
          "name": "_borrower",
          "type": "address"
        }
      ],
      "name": "getTroveStake",
      "outputs": [
        {
          "internalType": "uint256",
          "name": "",
          "type": "uint256"
        }
      ],
      "stateMutability": "view",
      "type": "function"
    },
    {
      "inputs": [
        {
          "internalType": "address",
          "name": "_borrower",
          "type": "address"
        }
      ],
      "name": "getTroveStatus",
      "outputs": [
        {
          "internalType": "uint256",
          "name": "",
          "type": "uint256"
        }
      ],
      "stateMutability": "view",
      "type": "function"
    },
    {
      "inputs": [
        {
          "internalType": "address",
          "name": "_borrower",
          "type": "address"
        }
      ],
      "name": "hasPendingRewards",
      "outputs": [
        {
          "internalType": "bool",
          "name": "",
          "type": "bool"
        }
      ],
      "stateMutability": "view",
      "type": "function"
    },
    {
      "inputs": [
        {
          "internalType": "address",
          "name": "_borrower",
          "type": "address"
        },
        {
          "internalType": "uint256",
          "name": "_collIncrease",
          "type": "uint256"
        }
      ],
      "name": "increaseTroveColl",
      "outputs": [
        {
          "internalType": "uint256",
          "name": "",
          "type": "uint256"
        }
      ],
      "stateMutability": "nonpayable",
      "type": "function"
    },
    {
      "inputs": [
        {
          "internalType": "address",
          "name": "_borrower",
          "type": "address"
        },
        {
          "internalType": "uint256",
          "name": "_debtIncrease",
          "type": "uint256"
        }
      ],
      "name": "increaseTroveDebt",
      "outputs": [
        {
          "internalType": "uint256",
          "name": "",
          "type": "uint256"
        }
      ],
      "stateMutability": "nonpayable",
      "type": "function"
    },
    {
      "inputs": [],
      "name": "isOwner",
      "outputs": [
        {
          "internalType": "bool",
          "name": "",
          "type": "bool"
        }
      ],
      "stateMutability": "view",
      "type": "function"
    },
    {
      "inputs": [],
      "name": "lastETHError_Redistribution",
      "outputs": [
        {
          "internalType": "uint256",
          "name": "",
          "type": "uint256"
        }
      ],
      "stateMutability": "view",
      "type": "function"
    },
    {
      "inputs": [],
      "name": "lastFeeOperationTime",
      "outputs": [
        {
          "internalType": "uint256",
          "name": "",
          "type": "uint256"
        }
      ],
      "stateMutability": "view",
      "type": "function"
    },
    {
      "inputs": [],
      "name": "lastLUSDDebtError_Redistribution",
      "outputs": [
        {
          "internalType": "uint256",
          "name": "",
          "type": "uint256"
        }
      ],
      "stateMutability": "view",
      "type": "function"
    },
    {
      "inputs": [
        {
          "internalType": "address",
          "name": "_borrower",
          "type": "address"
        }
      ],
      "name": "liquidate",
      "outputs": [],
      "stateMutability": "nonpayable",
      "type": "function"
    },
    {
      "inputs": [
        {
          "internalType": "uint256",
          "name": "_n",
          "type": "uint256"
        }
      ],
      "name": "liquidateTroves",
      "outputs": [],
      "stateMutability": "nonpayable",
      "type": "function"
    },
    {
      "inputs": [],
      "name": "lqtyStaking",
      "outputs": [
        {
          "internalType": "contract ILQTYStaking",
          "name": "",
          "type": "address"
        }
      ],
      "stateMutability": "view",
      "type": "function"
    },
    {
      "inputs": [],
      "name": "lqtyToken",
      "outputs": [
        {
          "internalType": "contract ILQTYToken",
          "name": "",
          "type": "address"
        }
      ],
      "stateMutability": "view",
      "type": "function"
    },
    {
      "inputs": [],
      "name": "lusdToken",
      "outputs": [
        {
          "internalType": "contract ILUSDToken",
          "name": "",
          "type": "address"
        }
      ],
      "stateMutability": "view",
      "type": "function"
    },
    {
      "inputs": [],
      "name": "minutesPassedSinceLastFeeOp",
      "outputs": [
        {
          "internalType": "uint256",
          "name": "",
          "type": "uint256"
        }
      ],
      "stateMutability": "view",
      "type": "function"
    },
    {
      "inputs": [],
      "name": "owner",
      "outputs": [
        {
          "internalType": "address",
          "name": "",
          "type": "address"
        }
      ],
      "stateMutability": "view",
      "type": "function"
    },
    {
      "inputs": [],
      "name": "priceFeed",
      "outputs": [
        {
          "internalType": "contract IPriceFeed",
          "name": "",
          "type": "address"
        }
      ],
      "stateMutability": "view",
      "type": "function"
    },
    {
      "inputs": [
        {
          "internalType": "uint256",
          "name": "_LUSDamount",
          "type": "uint256"
        },
        {
          "internalType": "address",
          "name": "_firstRedemptionHint",
          "type": "address"
        },
        {
          "internalType": "address",
          "name": "_upperPartialRedemptionHint",
          "type": "address"
        },
        {
          "internalType": "address",
          "name": "_lowerPartialRedemptionHint",
          "type": "address"
        },
        {
          "internalType": "uint256",
          "name": "_partialRedemptionHintNICR",
          "type": "uint256"
        },
        {
          "internalType": "uint256",
          "name": "_maxIterations",
          "type": "uint256"
        },
        {
          "internalType": "uint256",
          "name": "_maxFeePercentage",
          "type": "uint256"
        }
      ],
      "name": "redeemCollateral",
      "outputs": [],
      "stateMutability": "nonpayable",
      "type": "function"
    },
    {
      "inputs": [
        {
          "internalType": "address",
          "name": "_borrower",
          "type": "address"
        }
      ],
      "name": "removeStake",
      "outputs": [],
      "stateMutability": "nonpayable",
      "type": "function"
    },
    {
      "inputs": [
        {
          "internalType": "address",
          "name": "",
          "type": "address"
        }
      ],
      "name": "rewardSnapshots",
      "outputs": [
        {
          "internalType": "uint256",
          "name": "ETH",
          "type": "uint256"
        },
        {
          "internalType": "uint256",
          "name": "LUSDDebt",
          "type": "uint256"
        }
      ],
      "stateMutability": "view",
      "type": "function"
    },
    {
      "inputs": [
        {
          "internalType": "address",
          "name": "_borrowerOperationsAddress",
          "type": "address"
        },
        {
          "internalType": "address",
          "name": "_activePoolAddress",
          "type": "address"
        },
        {
          "internalType": "address",
          "name": "_defaultPoolAddress",
          "type": "address"
        },
        {
          "internalType": "address",
          "name": "_stabilityPoolAddress",
          "type": "address"
        },
        {
          "internalType": "address",
          "name": "_gasPoolAddress",
          "type": "address"
        },
        {
          "internalType": "address",
          "name": "_collSurplusPoolAddress",
          "type": "address"
        },
        {
          "internalType": "address",
          "name": "_priceFeedAddress",
          "type": "address"
        },
        {
          "internalType": "address",
          "name": "_lusdTokenAddress",
          "type": "address"
        },
        {
          "internalType": "address",
          "name": "_sortedTrovesAddress",
          "type": "address"
        },
        {
          "internalType": "address",
          "name": "_lqtyTokenAddress",
          "type": "address"
        },
        {
          "internalType": "address",
          "name": "_lqtyStakingAddress",
          "type": "address"
        }
      ],
      "name": "setAddresses",
      "outputs": [],
      "stateMutability": "nonpayable",
      "type": "function"
    },
    {
      "inputs": [
        {
          "internalType": "uint256",
          "name": "_baseRate",
          "type": "uint256"
        }
      ],
      "name": "setBaseRate",
      "outputs": [],
      "stateMutability": "nonpayable",
      "type": "function"
    },
    {
      "inputs": [],
      "name": "setLastFeeOpTimeToNow",
      "outputs": [],
      "stateMutability": "nonpayable",
      "type": "function"
    },
    {
      "inputs": [
        {
          "internalType": "address",
          "name": "_borrower",
          "type": "address"
        },
        {
          "internalType": "uint256",
          "name": "_num",
          "type": "uint256"
        }
      ],
      "name": "setTroveStatus",
      "outputs": [],
      "stateMutability": "nonpayable",
      "type": "function"
    },
    {
      "inputs": [],
      "name": "sortedTroves",
      "outputs": [
        {
          "internalType": "contract ISortedTroves",
          "name": "",
          "type": "address"
        }
      ],
      "stateMutability": "view",
      "type": "function"
    },
    {
      "inputs": [],
      "name": "stabilityPool",
      "outputs": [
        {
          "internalType": "contract IStabilityPool",
          "name": "",
          "type": "address"
        }
      ],
      "stateMutability": "view",
      "type": "function"
    },
    {
      "inputs": [],
      "name": "totalCollateralSnapshot",
      "outputs": [
        {
          "internalType": "uint256",
          "name": "",
          "type": "uint256"
        }
      ],
      "stateMutability": "view",
      "type": "function"
    },
    {
      "inputs": [],
      "name": "totalStakes",
      "outputs": [
        {
          "internalType": "uint256",
          "name": "",
          "type": "uint256"
        }
      ],
      "stateMutability": "view",
      "type": "function"
    },
    {
      "inputs": [],
      "name": "totalStakesSnapshot",
      "outputs": [
        {
          "internalType": "uint256",
          "name": "",
          "type": "uint256"
        }
      ],
      "stateMutability": "view",
      "type": "function"
    },
    {
      "inputs": [],
      "name": "unprotectedDecayBaseRateFromBorrowing",
      "outputs": [
        {
          "internalType": "uint256",
          "name": "",
          "type": "uint256"
        }
      ],
      "stateMutability": "nonpayable",
      "type": "function"
    },
    {
      "inputs": [
        {
          "internalType": "address",
          "name": "_borrower",
          "type": "address"
        }
      ],
      "name": "updateStakeAndTotalStakes",
      "outputs": [
        {
          "internalType": "uint256",
          "name": "",
          "type": "uint256"
        }
      ],
      "stateMutability": "nonpayable",
      "type": "function"
    },
    {
      "inputs": [
        {
          "internalType": "address",
          "name": "_borrower",
          "type": "address"
        }
      ],
      "name": "updateTroveRewardSnapshots",
      "outputs": [],
      "stateMutability": "nonpayable",
      "type": "function"
    }
  ],
  "bytecode": "0x608060405234801561001057600080fd5b50600380546001600160a01b031916339081179091556040516000907f8be0079c531659141344cd1fd0a4f28419497f9722a3daafe3b4186f6b6457e0908290a3615729806100606000396000f3fe608060405234801561001057600080fd5b50600436106104a15760003560e01c8063795d26c31161026d578063b91af97c11610151578063d66a2553116100ce578063e2ac77b011610092578063e2ac77b014610cd2578063f34862de14610cf8578063f36b242514610d1e578063f92d3433146106d9578063fe2ba84814610d26578063febb33de14610d4c576104a1565b8063d66a255314610c59578063d9a7244414610c7f578063da303f1414610c9c578063dba1c5f214610ca4578063dc62a70214610cac576104a1565b8063cbd138ae11610115578063cbd138ae14610bcb578063d293c71014610bf1578063d380a37c14610c1d578063d3d6f84314610c25578063d5205e4814610c51576104a1565b8063b91af97c14610b19578063bcd3752614610b65578063bf9befb114610bb3578063c35bc55014610bbb578063c7b5548114610bc3576104a1565b806396d711ff116101ea578063a537896f116101ae578063a537896f14610aa1578063ae91875414610abe578063b0d8e18114610ac6578063b7f8cf9b14610aec578063b82f263d14610af4578063b83f91a214610b11576104a1565b806396d711ff14610a5d5780639976cf4514610a655780639dd233d214610a91578063a20baee614610925578063a3a6401714610a99576104a1565b8063814a0a4511610231578063814a0a45146109f657806382fe3eb914610a1f578063887105d314610a455780638da5cb5b14610a4d5780638f32d59b14610a55576104a1565b8063795d26c31461095a578063797250e3146109625780637985c5e41461096a5780637f7dde4a146109e6578063807d138d146109ee576104a1565b80633cc74225116103945780635dba4c4a116103115780636ef64338116102d55780636ef643381461088a57806372423c17146108f957806372fe25aa14610925578063741bef1a1461092d578063756b253e14610935578063794e572414610952576104a1565b80635dba4c4a1461081a57806361ec893d14610822578063631203b01461082a57806364cee26014610847578063653d46e71461086d576104a1565b80634ff81443116103585780634ff814431461078657806354062a45146107a35780635733d58f146107c05780635d6b480f146107c85780635d8c9609146107f4576104a1565b80633cc7422514610717578063480cd5781461071f5780634870dd9a1461074557806349eefeee1461074d5780634e443d9e14610755576104a1565b80631d08837b1161042257806324092669116103e657806324092669146106d157806328d28b5b146106d95780632b11551a146106e15780632e86bbd8146106e95780632f865568146106f1576104a1565b80631d08837b146105db5780631e8b1c2b146105f85780631f68f20a1461069b5780631f7af3c3146106a357806321e37801146106ab576104a1565b8063105bb15c11610469578063105bb15c1461051c57806312610e921461052457806315d549f1146105505780631673c79a1461057657806318f2817a146105b5576104a1565b8063043782fb146104a6578063048c661d146104b0578063060d49a3146104d4578063071a7541146104ee5780630b076557146104f6575b600080fd5b6104ae610d69565b005b6104b8610d6f565b604080516001600160a01b039092168252519081900360200190f35b6104dc610d7e565b60408051918252519081900360200190f35b6104dc610d84565b6104ae6004803603602081101561050c57600080fd5b50356001600160a01b0316610d89565b6104dc610db1565b6104dc6004803603604081101561053a57600080fd5b506001600160a01b038135169060200135610dc0565b6104dc6004803603602081101561056657600080fd5b50356001600160a01b0316610e18565b61059c6004803603602081101561058c57600080fd5b50356001600160a01b0316610e3c565b6040805192835260208301919091528051918290030190f35b6104dc600480360360208110156105cb57600080fd5b50356001600160a01b0316610e55565b6104ae600480360360208110156105f157600080fd5b5035610e68565b6104ae6004803603602081101561060e57600080fd5b81019060208101813564010000000081111561062957600080fd5b82018360208201111561063b57600080fd5b8035906020019184602083028401116401000000008311171561065d57600080fd5b919080806020026020016040519081016040528093929190818152602001838360200280828437600092019190915250929550610e6d945050505050565b6104dc61120f565b6104b8611215565b6104dc600480360360208110156106c157600080fd5b50356001600160a01b0316611224565b6104dc61124e565b6104dc611261565b6104dc611272565b6104dc6112b0565b6104ae6004803603602081101561070757600080fd5b50356001600160a01b03166112bd565b6104b8611323565b6104dc6004803603602081101561073557600080fd5b50356001600160a01b0316611332565b6104dc611350565b6104dc611355565b6107726004803603602081101561076b57600080fd5b503561135b565b604080519115158252519081900360200190f35b6104dc6004803603602081101561079c57600080fd5b5035611366565b6104dc600480360360208110156107b957600080fd5b5035611371565b6104dc61137c565b6104ae600480360360408110156107de57600080fd5b506001600160a01b038135169060200135611388565b6104dc6004803603602081101561080a57600080fd5b50356001600160a01b03166113d4565b6104ae611463565b6104dc611496565b6104dc6004803603602081101561084057600080fd5b503561149b565b6104dc6004803603602081101561085d57600080fd5b50356001600160a01b03166114c1565b6104ae6004803603602081101561088357600080fd5b50356114df565b6108b0600480360360208110156108a057600080fd5b50356001600160a01b031661188d565b604051808681526020018581526020018481526020018360028111156108d257fe5b60ff1681526001600160801b03909216602083015250604080519182900301945092505050f35b6104dc6004803603604081101561090f57600080fd5b506001600160a01b0381351690602001356118c7565b6104dc611924565b6104b8611930565b6104b86004803603602081101561094b57600080fd5b503561193f565b6104dc611966565b6104dc611972565b6104dc611a73565b6104ae600480360361016081101561098157600080fd5b506001600160a01b038135811691602081013582169160408201358116916060810135821691608082013581169160a081013582169160c082013581169160e08101358216916101008201358116916101208101358216916101409091013516611a79565b6104b8611e72565b6104dc611e81565b6104dc60048036036060811015610a0c57600080fd5b5080359060208101359060400135611e87565b6104ae60048036036020811015610a3557600080fd5b50356001600160a01b0316611e9e565b6104dc611eaf565b6104b8611f6b565b610772611f7a565b6104dc611f8b565b6104dc60048036036040811015610a7b57600080fd5b506001600160a01b038135169060200135611f91565b6104dc611fc4565b6104b8611fca565b6104dc60048036036020811015610ab757600080fd5b5035611fd9565b6104b8611fe4565b6104dc60048036036020811015610adc57600080fd5b50356001600160a01b0316611ff3565b6104b861201a565b6104dc60048036036020811015610b0a57600080fd5b5035612029565b6104b8612034565b610b3f60048036036020811015610b2f57600080fd5b50356001600160a01b0316612043565b604080519485526020850193909352838301919091526060830152519081900360800190f35b6104ae600480360360e0811015610b7b57600080fd5b508035906001600160a01b03602082013581169160408101358216916060820135169060808101359060a08101359060c001356120a7565b6104dc612846565b6104dc61284c565b6104dc612853565b6104ae60048036036020811015610be157600080fd5b50356001600160a01b031661285f565b6104dc60048036036040811015610c0757600080fd5b506001600160a01b038135169060200135612870565b6104dc61288f565b6104dc60048036036040811015610c3b57600080fd5b506001600160a01b038135169060200135612895565b6104dc6128cb565b6104dc60048036036020811015610c6f57600080fd5b50356001600160a01b03166128d8565b6104b860048036036020811015610c9557600080fd5b50356128f3565b6104dc61291d565b6104dc61294d565b6104ae60048036036020811015610cc257600080fd5b50356001600160a01b0316612953565b61077260048036036020811015610ce857600080fd5b50356001600160a01b0316612960565b6104dc60048036036020811015610d0e57600080fd5b50356001600160a01b0316612982565b6104dc6129b3565b6104ae60048036036020811015610d3c57600080fd5b50356001600160a01b03166129de565b6104dc60048036036020811015610d6257600080fd5b50356129ef565b42600d55565b6005546001600160a01b031681565b60175481565b600281565b610d91612a00565b600054600154610dae916001600160a01b03908116911683612a4b565b50565b6000610dbb612b6d565b905090565b6000610dca612a00565b6001600160a01b0383166000908152600e6020526040812054610df3908463ffffffff612b8916565b6001600160a01b0385166000908152600e602052604090208190559150505b92915050565b6000610e22612a00565b610e2b82612bcb565b6001600160801b031690505b919050565b6014602052600090815260409020805460019091015482565b6000610e5f612a00565b610e1282612c65565b600c55565b8051610eaa5760405162461bcd60e51b81526004018080602001828103825260368152602001806155af6036913960400191505060405180910390fd5b6000546001546005546001600160a01b03928316929182169116610ecc6152b0565b610ed46152e1565b600260009054906101000a90046001600160a01b03166001600160a01b0316630fdb11cf6040518163ffffffff1660e01b8152600401602060405180830381600087803b158015610f2457600080fd5b505af1158015610f38573d6000803e3d6000fd5b505050506040513d6020811015610f4e57600080fd5b50518252604080516326fcbc6b60e21b815290516001600160a01b03851691639bf2f1ac916004808301926020929190829003018186803b158015610f9257600080fd5b505afa158015610fa6573d6000803e3d6000fd5b505050506040513d6020811015610fbc57600080fd5b505160208301528151610fce90612ce0565b1580156040840152610ff657610fef8585846000015185602001518a612cfd565b905061100e565b61100b8585846000015185602001518a612ee6565b90505b60008160200151116110515760405162461bcd60e51b81526004018080602001828103825260228152602001806156a36022913960400191505060405180910390fd5b826001600160a01b031663335525ad82608001518360a001516040518363ffffffff1660e01b81526004018083815260200182815260200192505050600060405180830381600087803b1580156110a757600080fd5b505af11580156110bb573d6000803e3d6000fd5b505050506110d385858360c001518460e00151612fae565b6101008101511561115257600754610100820151604080516364a197f360e01b81526001600160a01b039384166004820152602481019290925251918716916364a197f39160448082019260009290919082900301818387803b15801561113957600080fd5b505af115801561114d573d6000803e3d6000fd5b505050505b6111608582604001516131f0565b6020810151606083015261010081015160408201518251611198929161118c919063ffffffff612b8916565b9063ffffffff612b8916565b608080840182905260608085015160408086015186840151825193845260208401969096528282015291810193909352517f4152c73dd2614c4f9fc35e8c9cf16013cd588c75b49a4c1673ecffdcbcda94039281900390910190a16112078533836060015184604001516132f6565b505050505050565b600c5481565b6009546001600160a01b031681565b6001600160a01b0381166000908152600e602052604081206003015460ff166002811115610e1257fe5b6064670de0b6b3a76400005b0460050281565b6103e8670de0b6b3a764000061125a565b6000610dbb6112a2600c546103e8670de0b6b3a76400008161129057fe5b046005026133f990919063ffffffff16565b670de0b6b3a7640000613453565b6802b5e3af16b188000081565b6112c681613469565b6040805160018082528183019092526060916020808301908036833701905050905081816000815181106112f657fe5b60200260200101906001600160a01b031690816001600160a01b03168152505061131f81610e6d565b5050565b6001546001600160a01b031681565b6001600160a01b03166000908152600e602052604090206001015490565b60c881565b60155490565b6000610e1282612ce0565b6000610e12826134d1565b6000610e12826134ec565b6714d1120d7b16000081565b611390612a00565b80600281111561139c57fe5b6001600160a01b0383166000908152600e60205260409020600301805460ff191660018360028111156113cb57fe5b02179055505050565b6001600160a01b0381166000908152601460205260408120546012548290611402908363ffffffff612b8916565b90508061141457600092505050610e37565b6001600160a01b0384166000908152600e602052604081206002015490611459670de0b6b3a764000061144d848663ffffffff61350716565b9063ffffffff61356016565b9695505050505050565b61146b612a00565b60006114756135a2565b9050670de0b6b3a764000081111561148957fe5b600c819055610dae6135e6565b603c81565b6000610e12670de0b6b3a764000061144d846114b56129b3565b9063ffffffff61350716565b6001600160a01b03166000908152600e602052604090206002015490565b6114e761532d565b506040805160e081018252600080546001600160a01b0390811683526001548116602084015292820181905260608201819052600b548316608083015260a0820181905260c082015260055490911661153e6152b0565b6115466152e1565b600260009054906101000a90046001600160a01b03166001600160a01b0316630fdb11cf6040518163ffffffff1660e01b8152600401602060405180830381600087803b15801561159657600080fd5b505af11580156115aa573d6000803e3d6000fd5b505050506040513d60208110156115c057600080fd5b50518252604080516326fcbc6b60e21b815290516001600160a01b03851691639bf2f1ac916004808301926020929190829003018186803b15801561160457600080fd5b505afa158015611618573d6000803e3d6000fd5b505050506040513d602081101561162e57600080fd5b50516020830152815161164090612ce0565b15801560408401526116675761166084836000015184602001518861360e565b9050611687565b6116848460000151856020015184600001518560200151896139a1565b90505b60008160200151116116ca5760405162461bcd60e51b81526004018080602001828103825260228152602001806156a36022913960400191505060405180910390fd5b826001600160a01b031663335525ad82608001518360a001516040518363ffffffff1660e01b81526004018083815260200182815260200192505050600060405180830381600087803b15801561172057600080fd5b505af1158015611734573d6000803e3d6000fd5b50505050611754846000015185602001518360c001518460e00151612fae565b610100810151156117d5578351600754610100830151604080516364a197f360e01b81526001600160a01b03938416600482015260248101929092525191909216916364a197f391604480830192600092919082900301818387803b1580156117bc57600080fd5b505af11580156117d0573d6000803e3d6000fd5b505050505b6117e7846000015182604001516131f0565b6020810151606083015261010081015160408201518251611813929161118c919063ffffffff612b8916565b608080840182905260608085015160408086015186840151825193845260208401969096528282015291810193909352517f4152c73dd2614c4f9fc35e8c9cf16013cd588c75b49a4c1673ecffdcbcda94039281900390910190a1611886846000015133836060015184604001516132f6565b5050505050565b600e6020526000908152604090208054600182015460028301546003909301549192909160ff81169061010090046001600160801b031685565b60006118d1612a00565b6001600160a01b0383166000908152600e60205260408120600101546118fd908463ffffffff6133f916565b6001600160a01b0385166000908152600e6020526040902060010181905591505092915050565b670de0b6b3a764000081565b6002546001600160a01b031681565b6015818154811061194c57fe5b6000918252602090912001546001600160a01b0316905081565b670f43fc2c04ee000081565b6000805460408051632f5a97e560e11b8152905183926001600160a01b031691635eb52fca916004808301926020929190829003018186803b1580156119b757600080fd5b505afa1580156119cb573d6000803e3d6000fd5b505050506040513d60208110156119e157600080fd5b505160015460408051632f5a97e560e11b815290519293506000926001600160a01b0390921691635eb52fca91600480820192602092909190829003018186803b158015611a2e57600080fd5b505afa158015611a42573d6000803e3d6000fd5b505050506040513d6020811015611a5857600080fd5b50519050611a6c828263ffffffff6133f916565b9250505090565b60165481565b611a81611f7a565b611ad2576040805162461bcd60e51b815260206004820181905260248201527f4f776e61626c653a2063616c6c6572206973206e6f7420746865206f776e6572604482015290519081900360640190fd5b611adb8b613ad3565b611ae48a613ad3565b611aed89613ad3565b611af688613ad3565b611aff87613ad3565b611b0886613ad3565b611b1185613ad3565b611b1a84613ad3565b611b2383613ad3565b611b2c82613ad3565b611b3581613ad3565b600480546001600160a01b03199081166001600160a01b038e81169182179093556000805483168e85161790556001805483168d85161790556005805483168c85161790556006805483168b85161790556007805483168a8516179055600280548316898516179055600880548316888516179055600b80548316878516179055600980548316868516179055600a805490921692841692909217905560408051918252517f3ca631ffcd2a9b5d9ae18543fc82f58eb4ca33af9e6ab01b7a8e95331e6ed985916020908290030190a1604080516001600160a01b038c16815290517f78f058b189175430c48dc02699e3a0031ea4ff781536dc2fab847de4babdd8829181900360200190a1604080516001600160a01b038b16815290517f5ee0cae2f063ed938bb55046f6a932fb6ae792bf43624806bb90abe68a50be9b9181900360200190a1604080516001600160a01b038a16815290517f82966d27eea39b038ee0fa30cd16532bb24f6e65d31cb58fb227aa5766cdcc7f9181900360200190a1604080516001600160a01b038916815290517fcfb07d791fcafc032b35837b50eb84b74df518cf4cc287e8084f47630fa70fa09181900360200190a1604080516001600160a01b038816815290517fe67f36a6e961157d6eff83b91f3af5a62131ceb6f04954ef74f51c1c05e7f88d9181900360200190a1604080516001600160a01b038716815290517f8c537274438aa850a330284665d81a85dd38267d09e4050d416bfc94142db2649181900360200190a1604080516001600160a01b038616815290517f227eec0ec317af6ab1a9587ffa1c84332522eb4c583a908f89babc05f8f339bd9181900360200190a1604080516001600160a01b038516815290517f65f4cf077bc01e4742eb5ad98326f6e95b63548ea24b17f8d5e823111fe788009181900360200190a1604080516001600160a01b038416815290517f2ac6e99201ddc1b6eac6f8f28662d1ecafee131f6eb98c29de54528a9888a7d19181900360200190a1604080516001600160a01b038316815290517f756ebc192164c295bba134b5aacd72cc7aff8098a670d1f0a5f6b3a0b4ce67079181900360200190a1611e65613b82565b5050505050505050505050565b6000546001600160a01b031681565b60105481565b6000611e94848484613bcc565b90505b9392505050565b611ea6612a00565b610dae81613bfc565b6000805460408051630a7b61df60e11b8152905183926001600160a01b0316916314f6c3be916004808301926020929190829003018186803b158015611ef457600080fd5b505afa158015611f08573d6000803e3d6000fd5b505050506040513d6020811015611f1e57600080fd5b505160015460408051630a7b61df60e11b815290519293506000926001600160a01b03909216916314f6c3be91600480820192602092909190829003018186803b158015611a2e57600080fd5b6003546001600160a01b031690565b6003546001600160a01b0316331490565b60115481565b6000611f9b612a00565b6001600160a01b0383166000908152600e6020526040812054610df3908463ffffffff6133f916565b60125481565b600a546001600160a01b031681565b6000610e1282613c26565b600b546001600160a01b031681565b600080600061200184613c2d565b9150915060006120118383613cb3565b95945050505050565b6004546001600160a01b031681565b6000610e1282613ce8565b6008546001600160a01b031681565b6001600160a01b0381166000908152600e60205260408120805460019091015490918061206f85612982565b915061207a856113d4565b905061208c848363ffffffff6133f916565b935061209e838263ffffffff6133f916565b92509193509193565b6120af61532d565b506040805160e0810182526000546001600160a01b03908116825260015481166020830152600854811692820192909252600a5482166060820152600b5482166080820152600754821660a082015260065490911660c0820152612111615369565b61211a83613d14565b612122613d6e565b600260009054906101000a90046001600160a01b03166001600160a01b0316630fdb11cf6040518163ffffffff1660e01b8152600401602060405180830381600087803b15801561217257600080fd5b505af1158015612186573d6000803e3d6000fd5b505050506040513d602081101561219c57600080fd5b505160c082018190526121ae90613e32565b6121b789613e81565b6121c68260400151338b613ec0565b6121ce611972565b60e0820181905260408084015181516370a0823160e01b815233600482015291516001600160a01b03909116916370a08231916024808301926020929190829003018186803b15801561222057600080fd5b505afa158015612234573d6000803e3d6000fd5b505050506040513d602081101561224a57600080fd5b5051111561225457fe5b888152608082015160c082015160009161226f918b90613f80565b1561227b5750876123a5565b82608001516001600160a01b0316634d6228316040518163ffffffff1660e01b815260040160206040518083038186803b1580156122b857600080fd5b505afa1580156122cc573d6000803e3d6000fd5b505050506040513d60208110156122e257600080fd5b505190505b6001600160a01b038116158015906123135750670f43fc2c04ee0000612311828460c00151612870565b105b156123a55782608001516001600160a01b031663b72703ac826040518263ffffffff1660e01b815260040180826001600160a01b03166001600160a01b0316815260200191505060206040518083038186803b15801561237257600080fd5b505afa158015612386573d6000803e3d6000fd5b505050506040513d602081101561239c57600080fd5b505190506122e7565b846123b05760001994505b6001600160a01b038116158015906123c85750815115155b80156123d45750600085115b1561250557848060019003955050600083608001516001600160a01b031663b72703ac836040518263ffffffff1660e01b815260040180826001600160a01b03166001600160a01b0316815260200191505060206040518083038186803b15801561243e57600080fd5b505afa158015612452573d6000803e3d6000fd5b505050506040513d602081101561246857600080fd5b50518451602086015191925061247e9184612a4b565b6124866153ae565b61249d858486600001518760c001518e8e8e6140f3565b80519091506124ad575050612505565b805160208501516124c39163ffffffff6133f916565b60208086019190915281015160408501516124e39163ffffffff6133f916565b6040850152805184516124fb9163ffffffff612b8916565b84525090506123b0565b60008260400151116125485760405162461bcd60e51b81526004018080602001828103825260298152602001806154526029913960400191505060405180910390fd5b61255f82604001518360c001518460e0015161438a565b5061256d82604001516143ff565b60608301819052604083015161258491908661445a565b82600001516001600160a01b03166364a197f3846060015184606001516040518363ffffffff1660e01b815260040180836001600160a01b03166001600160a01b0316815260200182815260200192505050600060405180830381600087803b1580156125f057600080fd5b505af1158015612604573d6000803e3d6000fd5b5050505082606001516001600160a01b0316631e3e2a1a83606001516040518263ffffffff1660e01b815260040180828152602001915050600060405180830381600087803b15801561265657600080fd5b505af115801561266a573d6000803e3d6000fd5b505050506060820151604083015161268191612b89565b8260800181815250507f43a3f4082a4dbc33d78e317d2497d3a730bc7fc3574159dcea1056e62e5d9ad88a8360200151846040015185606001516040518085815260200184815260200183815260200182815260200194505050505060405180910390a182604001516001600160a01b0316639dc29fac3384602001516040518363ffffffff1660e01b815260040180836001600160a01b03166001600160a01b0316815260200182815260200192505050600060405180830381600087803b15801561274d57600080fd5b505af1158015612761573d6000803e3d6000fd5b5050505082600001516001600160a01b03166338d995a883602001516040518263ffffffff1660e01b815260040180828152602001915050600060405180830381600087803b1580156127b357600080fd5b505af11580156127c7573d6000803e3d6000fd5b505084516080850151604080516364a197f360e01b81523360048201526024810192909252516001600160a01b0390921693506364a197f3925060448082019260009290919082900301818387803b15801561282257600080fd5b505af1158015612836573d6000803e3d6000fd5b5050505050505050505050505050565b600f5481565b6212750081565b670ddd4b8c6c7d70d881565b612867612a00565b610dae816144cf565b600080600061287e85613c2d565b915091506000611459838387613bcc565b600d5481565b600061289f612a00565b6001600160a01b0383166000908152600e60205260408120600101546118fd908463ffffffff612b8916565b6802b5e3af16b188000090565b6001600160a01b03166000908152600e602052604090205490565b60006015828154811061290257fe5b6000918252602090912001546001600160a01b031692915050565b60006129276135a2565b600c55670de0b6b3a7640000600c54111561293e57fe5b6129466135e6565b50600c5490565b60135481565b60155461131f8282614589565b6012546001600160a01b03821660009081526014602052604090205410919050565b6001600160a01b0381166000908152601460205260408120600101546013548290611402908363ffffffff612b8916565b6000610dbb6129d1600c546103e8670de0b6b3a76400008161129057fe5b66b1a2bc2ec50000613453565b6129e6612a00565b610dae816146d6565b60006129fa826143ff565b50919050565b6004546001600160a01b03163314612a495760405162461bcd60e51b815260040180806020018281038252603b815260200180615574603b913960400191505060405180910390fd5b565b612a5481612960565b15612b6857612a6281613469565b6000612a6d826113d4565b90506000612a7a83612982565b6001600160a01b0384166000908152600e6020526040902060010154909150612aa9908363ffffffff6133f916565b6001600160a01b0384166000908152600e60205260409020600181019190915554612ada908263ffffffff6133f916565b6001600160a01b0384166000908152600e6020526040902055612afc83613bfc565b612b0885858385614726565b6001600160a01b0383166000818152600e602090815260408083208054600182015460029092015483519182529381019190915280820192909252606082019290925290516000805160206155548339815191529181900360800190a250505b505050565b6000610dbb603c61144d600d5442612b8990919063ffffffff16565b6000611e9783836040518060400160405280601e81526020017f536166654d6174683a207375627472616374696f6e206f766572666c6f770000815250614828565b601580546001808201835560008381527f55f448fdea98c4d29eb340757ef0a66cd03dbb9538908a6a81d96026b71ec47590920180546001600160a01b0319166001600160a01b03861617905591549091612c269190612b89565b6001600160a01b03929092166000908152600e602052604090206003018054610100600160881b0319166101006001600160801b038516021790555090565b6001600160a01b0381166000908152600e60205260408120600101548190612c8c906148bf565b6001600160a01b0384166000908152600e60205260409020600201805490829055600f5491925090612cd6908390612cca908463ffffffff612b8916565b9063ffffffff6133f916565b600f555092915050565b600080612cec83613ce8565b6714d1120d7b160000119392505050565b612d056152e1565b612d0d6153c8565b612d156152e1565b84825260006080830152612d27611972565b60a0830152612d34611eaf565b60c0830152600060208301525b835182602001511015612edb5783826020015181518110612d5e57fe5b60209081029190910101516001600160a01b031660608301819052612d839087612870565b60408301526080820151612e6d57670f43fc2c04ee0000826040015110158015612dac57508151155b15612db657612ecb565b6000612dcb8360c001518460a0015189613bcc565b9050612de88989856060015186604001518760000151868d6148fb565b60808101518451919350612e02919063ffffffff612b8916565b8352608082015160a0840151612e1d9163ffffffff612b8916565b60a08085019190915282015160c0840151612e3d9163ffffffff612b8916565b60c0840152612e4c8483614bac565b9350612e618360c001518460a0015189614cc3565b15608084015250612ecb565b81608001518015612e895750670f43fc2c04ee00008260400151105b15612ecb57612ea2888884606001518560000151614ce4565b60808101518351919250612ebc919063ffffffff612b8916565b8252612ec88382614bac565b92505b6020820180516001019052612d41565b505095945050505050565b612eee6152e1565b612ef66153c8565b612efe6152e1565b848252600060208301525b835182602001511015612edb5783826020015181518110612f2657fe5b60209081029190910101516001600160a01b031660608301819052612f4b9087612870565b60408301819052670f43fc2c04ee00001115612f9e57612f75888884606001518560000151614ce4565b60808101518351919250612f8f919063ffffffff612b8916565b8252612f9b8382614bac565b92505b6020820180516001019052612f09565b81612fb8576131ea565b601654600090612fda90612cca84670de0b6b3a764000063ffffffff61350716565b90506000612fff601754612cca670de0b6b3a76400008761350790919063ffffffff16565b90506000613018600f548461356090919063ffffffff16565b90506000613031600f548461356090919063ffffffff16565b905061305861304b600f548461350790919063ffffffff16565b859063ffffffff612b8916565b601655600f546130809061307390839063ffffffff61350716565b849063ffffffff612b8916565b601755601254613096908363ffffffff6133f916565b6012556013546130ac908263ffffffff6133f916565b6013556040805163071b32b560e31b81526004810188905290516001600160a01b038a16916338d995a891602480830192600092919082900301818387803b1580156130f757600080fd5b505af115801561310b573d6000803e3d6000fd5b50505050866001600160a01b031663cfb9329a876040518263ffffffff1660e01b815260040180828152602001915050600060405180830381600087803b15801561315557600080fd5b505af1158015613169573d6000803e3d6000fd5b50505050876001600160a01b03166364a197f388876040518363ffffffff1660e01b815260040180836001600160a01b03166001600160a01b0316815260200182815260200192505050600060405180830381600087803b1580156131cd57600080fd5b505af11580156131e1573d6000803e3d6000fd5b50505050505050505b50505050565b600f546010819055506000826001600160a01b03166314f6c3be6040518163ffffffff1660e01b815260040160206040518083038186803b15801561323457600080fd5b505afa158015613248573d6000803e3d6000fd5b505050506040513d602081101561325e57600080fd5b505160015460408051630a7b61df60e11b815290519293506000926001600160a01b03909216916314f6c3be91600480820192602092909190829003018186803b1580156132ab57600080fd5b505afa1580156132bf573d6000803e3d6000fd5b505050506040513d60208110156132d557600080fd5b505190506132ed81612cca848663ffffffff612b8916565b60115550505050565b81156133755760085460065460408051631062c15f60e11b81526001600160a01b039283166004820152868316602482015260448101869052905191909216916320c582be91606480830192600092919082900301818387803b15801561335c57600080fd5b505af1158015613370573d6000803e3d6000fd5b505050505b80156131ea57836001600160a01b03166364a197f384836040518363ffffffff1660e01b815260040180836001600160a01b03166001600160a01b0316815260200182815260200192505050600060405180830381600087803b1580156133db57600080fd5b505af11580156133ef573d6000803e3d6000fd5b5050505050505050565b600082820183811015611e97576040805162461bcd60e51b815260206004820152601b60248201527f536166654d6174683a206164646974696f6e206f766572666c6f770000000000604482015290519081900360640190fd5b60008183106134625781611e97565b5090919050565b60016001600160a01b0382166000908152600e602052604090206003015460ff16600281111561349557fe5b14610dae5760405162461bcd60e51b815260040180806020018281038252602f8152602001806156c5602f913960400191505060405180910390fd5b6000610e12826802b5e3af16b188000063ffffffff6133f916565b6000610e12826802b5e3af16b188000063ffffffff612b8916565b60008261351657506000610e12565b8282028284828161352357fe5b0414611e975760405162461bcd60e51b81526004018080602001828103825260218152602001806154e56021913960400191505060405180910390fd5b6000611e9783836040518060400160405280601a81526020017f536166654d6174683a206469766973696f6e206279207a65726f000000000000815250614df9565b6000806135ad612b6d565b905060006135c3670ddd4b8c6c7d70d883614e5e565b9050611a6c670de0b6b3a764000061144d83600c5461350790919063ffffffff16565b60006135fd600d5442612b8990919063ffffffff16565b9050603c8110610dae5742600d5550565b6136166152e1565b61361e6153c8565b6136266152e1565b84825260006080830152613638611972565b60a0830152613645611eaf565b8260c001818152505086608001516001600160a01b0316634d6228316040518163ffffffff1660e01b815260040160206040518083038186803b15801561368b57600080fd5b505afa15801561369f573d6000803e3d6000fd5b505050506040513d60208110156136b557600080fd5b50516001600160a01b039081166060840152608088015160408051631e22314360e01b815290516000939290921691631e22314391600480820192602092909190829003018186803b15801561370a57600080fd5b505afa15801561371e573d6000803e3d6000fd5b505050506040513d602081101561373457600080fd5b50516000602085015290505b8483602001511080156137695750806001600160a01b031683606001516001600160a01b031614155b1561399657600088608001516001600160a01b031663b72703ac85606001516040518263ffffffff1660e01b815260040180826001600160a01b03166001600160a01b0316815260200191505060206040518083038186803b1580156137ce57600080fd5b505afa1580156137e2573d6000803e3d6000fd5b505050506040513d60208110156137f857600080fd5b5051606085015190915061380c9089612870565b6040850152608084015161390857670f43fc2c04ee000084604001511015801561383557508351155b156138405750613996565b60006138558560c001518660a001518b613bcc565b8a5160208c015160608801516040890151895194955061387694868f6148fb565b60808101518651919550613890919063ffffffff612b8916565b8552608084015160a08601516138ab9163ffffffff612b8916565b8560a00181815250506138d884610100015161118c8660a001518860c00151612b8990919063ffffffff16565b60c08601526138e78685614bac565b95506138fc8560c001518660a001518b614cc3565b15608086015250613978565b836080015180156139245750670f43fc2c04ee00008460400151105b156139725761394589600001518a6020015186606001518760000151614ce4565b6080810151855191945061395f919063ffffffff612b8916565b845261396b8584614bac565b9450613978565b50613996565b6001600160a01b031660608401526020830180516001019052613740565b505050949350505050565b6139a96152e1565b6139b16153c8565b6139b96152e1565b600b54858352600060208401526001600160a01b03165b8483602001511015613ac757806001600160a01b0316634d6228316040518163ffffffff1660e01b815260040160206040518083038186803b158015613a1557600080fd5b505afa158015613a29573d6000803e3d6000fd5b505050506040513d6020811015613a3f57600080fd5b50516001600160a01b031660608401819052613a5b9088612870565b60408401819052670f43fc2c04ee00001115613ab257613a85898985606001518660000151614ce4565b60808101518451919350613a9f919063ffffffff612b8916565b8352613aab8483614bac565b9350613ab7565b613ac7565b60208301805160010190526139d0565b50505095945050505050565b6001600160a01b038116613b2e576040805162461bcd60e51b815260206004820152601e60248201527f4163636f756e742063616e6e6f74206265207a65726f20616464726573730000604482015290519081900360640190fd5b803b8061131f576040805162461bcd60e51b815260206004820181905260248201527f4163636f756e7420636f64652073697a652063616e6e6f74206265207a65726f604482015290519081900360640190fd5b6003546040516000916001600160a01b0316907f8be0079c531659141344cd1fd0a4f28419497f9722a3daafe3b4186f6b6457e0908390a3600380546001600160a01b0319169055565b60008215613bf3576000613bea8461144d878663ffffffff61350716565b9150611e979050565b50600019611e97565b6012546001600160a01b039091166000908152601460205260409020908155601354600190910155565b60c8900490565b6000806000613c3b846113d4565b90506000613c4885612982565b6001600160a01b0386166000908152600e602052604081206001015491925090613c78908463ffffffff6133f916565b6001600160a01b0387166000908152600e602052604081205491925090613ca5908463ffffffff6133f916565b919550909350505050915091565b60008115613cdf57613cd88261144d8568056bc75e2d6310000063ffffffff61350716565b9050610e12565b50600019610e12565b600080613cf3611eaf565b90506000613cff611972565b9050613d0c828286613bcc565b949350505050565b6611c37937e080008110158015613d335750670de0b6b3a76400008111155b610dae5760405162461bcd60e51b81526004018080602001828103825260308152602001806156496030913960400191505060405180910390fd5b60095460408051631e425be160e11b815290516000926001600160a01b031691633c84b7c2916004808301926020929190829003018186803b158015613db357600080fd5b505afa158015613dc7573d6000803e3d6000fd5b505050506040513d6020811015613ddd57600080fd5b50519050613df4816212750063ffffffff6133f916565b421015610dae5760405162461bcd60e51b81526004018080602001828103825260408152602001806154a56040913960400191505060405180910390fd5b670f43fc2c04ee0000613e4482613ce8565b1015610dae5760405162461bcd60e51b815260040180806020018281038252602a815260200180615679602a913960400191505060405180910390fd5b60008111610dae5760405162461bcd60e51b815260040180806020018281038252602e8152602001806155e5602e913960400191505060405180910390fd5b80836001600160a01b03166370a08231846040518263ffffffff1660e01b815260040180826001600160a01b03166001600160a01b0316815260200191505060206040518083038186803b158015613f1757600080fd5b505afa158015613f2b573d6000803e3d6000fd5b505050506040513d6020811015613f4157600080fd5b50511015612b685760405162461bcd60e51b815260040180806020018281038252604e815260200180615506604e913960600191505060405180910390fd5b60006001600160a01b03831615806140175750836001600160a01b0316635dbe47e8846040518263ffffffff1660e01b815260040180826001600160a01b03166001600160a01b0316815260200191505060206040518083038186803b158015613fe957600080fd5b505afa158015613ffd573d6000803e3d6000fd5b505050506040513d602081101561401357600080fd5b5051155b806140325750670f43fc2c04ee00006140308484612870565b105b1561403f57506000611e97565b6000846001600160a01b031663765e0159856040518263ffffffff1660e01b815260040180826001600160a01b03166001600160a01b0316815260200191505060206040518083038186803b15801561409757600080fd5b505afa1580156140ab573d6000803e3d6000fd5b505050506040513d60208110156140c157600080fd5b505190506001600160a01b03811615806120115750670f43fc2c04ee00006140e98285612870565b1095945050505050565b6140fb6153ae565b6001600160a01b0387166000908152600e6020526040902054614138908790614133906802b5e3af16b188000063ffffffff612b8916565b613453565b80825261415990869061144d90670de0b6b3a764000063ffffffff61350716565b60208083019190915281516001600160a01b0389166000908152600e909252604082205461418c9163ffffffff612b8916565b6020808401516001600160a01b038b166000908152600e909252604082206001015492935090916141c29163ffffffff612b8916565b90506802b5e3af16b1880000821415614259576141de896146d6565b6141e7896144cf565b6141fc8a8a6802b5e3af16b188000084614f09565b886001600160a01b0316600080516020615554833981519152600080600060036040518085815260200184815260200183815260200182600381111561423e57fe5b60ff16815260200194505050505060405180910390a261437c565b60006142658284613cb3565b9050848114614280575050600080835260208301525061437f565b60808b01516040805163015f109360e51b81526001600160a01b038d81166004830152602482018590528a81166044830152898116606483015291519190921691632be2126091608480830192600092919082900301818387803b1580156142e757600080fd5b505af11580156142fb573d6000803e3d6000fd5b5050506001600160a01b038b166000908152600e60205260409020848155600101839055506143298a612c65565b506001600160a01b038a166000818152600e6020908152604091829020600201548251878152918201869052818301526003606082015290516000805160206155548339815191529181900360800190a2505b50505b979650505050505050565b6000806143956135a2565b905060006143ad8461144d888863ffffffff61350716565b905060006143d26143c583600263ffffffff61356016565b849063ffffffff6133f916565b90506143e681670de0b6b3a7640000613453565b9050600081116143f257fe5b600c8190556114596135e6565b60008061441a670de0b6b3a764000061144d856114b5611272565b9050828110610e125760405162461bcd60e51b81526004018080602001828103825260368152602001806156136036913960400191505060405180910390fd5b60006144788361144d86670de0b6b3a764000063ffffffff61350716565b9050818111156131ea576040805162461bcd60e51b815260206004820152601d60248201527f4665652065786365656465642070726f7669646564206d6178696d756d000000604482015290519081900360640190fd5b6015546144db816150be565b6001600160a01b0382166000908152600e6020908152604080832060038101805460ff191660021790556001808201859055908490556014909252822082815501556145278282614589565b600b5460408051631484968760e11b81526001600160a01b038581166004830152915191909216916329092d0e91602480830192600092919082900301818387803b15801561457557600080fd5b505af1158015611207573d6000803e3d6000fd5b60026001600160a01b0383166000908152600e602052604090206003015460ff1660028111156145b557fe5b146145bc57fe5b6001600160a01b0382166000908152600e602052604081206003015461010090046001600160801b03169082906145f4826001612b89565b905080836001600160801b0316111561460957fe5b60006015828154811061461857fe5b600091825260209091200154601580546001600160a01b03909216925082916001600160801b03871690811061464a57fe5b600091825260208083209190910180546001600160a01b0319166001600160a01b039485161790559183168152600e909152604090206003018054610100600160881b0319166101006001600160801b0387160217905560158054806146ac57fe5b600082815260209020810160001990810180546001600160a01b0319169055019055505050505050565b6001600160a01b0381166000908152600e6020526040902060020154600f54614705908263ffffffff612b8916565b600f55506001600160a01b03166000908152600e6020526040812060020155565b826001600160a01b03166338d995a8836040518263ffffffff1660e01b815260040180828152602001915050600060405180830381600087803b15801561476c57600080fd5b505af1158015614780573d6000803e3d6000fd5b50505050836001600160a01b031663cfb9329a836040518263ffffffff1660e01b815260040180828152602001915050600060405180830381600087803b1580156147ca57600080fd5b505af11580156147de573d6000803e3d6000fd5b50505050826001600160a01b031663be41205f826040518263ffffffff1660e01b815260040180828152602001915050600060405180830381600087803b1580156133db57600080fd5b600081848411156148b75760405162461bcd60e51b81526004018080602001828103825283818151815260200191508051906020019080838360005b8381101561487c578181015183820152602001614864565b50505050905090810190601f1680156148a95780820380516001836020036101000a031916815260200191505b509250505060405180910390fd5b505050900390565b600080601154600014156148d4575081610e12565b6000601054116148e057fe5b611e9760115461144d6010548661350790919063ffffffff16565b6149036152e1565b61490b615410565b60155460011061491b575061437f565b61492487612043565b6040850190815260208581019283528601929092529184529051905161494e918b918b9190614726565b61495b8260200151613c26565b604083018190526802b5e3af16b1880000606084015260208301516149859163ffffffff612b8916565b8152670de0b6b3a76400008611614a1f5761499f876146d6565b60006080830181905260a0830152815160c0830152805160e08301526149c4876144cf565b866001600160a01b031660008051602061543283398151915283600001518460200151600260405180848152602001838152602001826003811115614a0557fe5b60ff168152602001935050505060405180910390a2614ba0565b670de0b6b3a764000086118015614a3d5750670f43fc2c04ee000086105b15614a7757614a4b876146d6565b81518151614a5a919087615177565b60e086015260c085015260a084015260808301526149c4876144cf565b670f43fc2c04ee00008610158015614a8e57508386105b8015614a9b575081518510155b15614b8f5784614aa757fe5b614ab0876146d6565b614ac382600001518360200151856151e3565b9150614ace876144cf565b61010082015115614b4e5760075461010083015160408051633f10abab60e01b81526001600160a01b038b81166004830152602482019390935290519190921691633f10abab91604480830192600092919082900301818387803b158015614b3557600080fd5b505af1158015614b49573d6000803e3d6000fd5b505050505b866001600160a01b031660008051602061543283398151915283600001518460a00151600260405180848152602001838152602001826003811115614a0557fe5b614b976152e1565b915061437f9050565b50979650505050505050565b614bb46152e1565b60408083015190840151614bcd9163ffffffff6133f916565b604082015260608083015190840151614beb9163ffffffff6133f916565b606082015281516020840151614c069163ffffffff6133f916565b6020808301919091528201518351614c239163ffffffff6133f916565b815260808083015190840151614c3e9163ffffffff6133f916565b608082015260a08083015190840151614c5c9163ffffffff6133f916565b60a082015260c08083015190840151614c7a9163ffffffff6133f916565b60c082015260e08083015190840151614c989163ffffffff6133f916565b60e08201526101008083015190840151614cb79163ffffffff6133f916565b61010082015292915050565b600080614cd1858585613bcc565b6714d1120d7b1600001195945050505050565b614cec6152e1565b614cf4615410565b614cfd84612043565b60408501908152602085810192835286019290925291845290519051614d27918891889190614726565b614d30846146d6565b614d3d8260200151613c26565b604083018190526802b5e3af16b188000060608401526020830151600091614d6b919063ffffffff612b8916565b9050614d7c83600001518286615177565b60e087015260c086015260a08501526080840152614d99856144cf565b846001600160a01b031660008051602061543283398151915284600001518560200151600160405180848152602001838152602001826003811115614dda57fe5b60ff168152602001935050505060405180910390a25050949350505050565b60008183614e485760405162461bcd60e51b815260206004820181815283516024840152835190928392604490910191908501908083836000831561487c578181015183820152602001614864565b506000838581614e5457fe5b0495945050505050565b6000631f540500821115614e7457631f54050091505b81614e885750670de0b6b3a7640000610e12565b670de0b6b3a764000083835b6001811115614eff5760028106614ec957614eaf828361527d565b9150614ec281600263ffffffff61356016565b9050614efa565b614ed3828461527d565b9250614edf828361527d565b9150614ef7600261144d83600163ffffffff612b8916565b90505b614e94565b611459828461527d565b6040808501516006548251632770a7eb60e21b81526001600160a01b039182166004820152602481018690529251911691639dc29fac91604480830192600092919082900301818387803b158015614f6057600080fd5b505af1158015614f74573d6000803e3d6000fd5b5050505083600001516001600160a01b03166338d995a8836040518263ffffffff1660e01b815260040180828152602001915050600060405180830381600087803b158015614fc257600080fd5b505af1158015614fd6573d6000803e3d6000fd5b505050508360a001516001600160a01b0316633f10abab84836040518363ffffffff1660e01b815260040180836001600160a01b03166001600160a01b0316815260200182815260200192505050600060405180830381600087803b15801561503e57600080fd5b505af1158015615052573d6000803e3d6000fd5b5050505083600001516001600160a01b03166364a197f38560a00151836040518363ffffffff1660e01b815260040180836001600160a01b03166001600160a01b0316815260200182815260200192505050600060405180830381600087803b1580156133db57600080fd5b60018111801561513c5750600b546040805163de8fa43160e01b815290516001926001600160a01b03169163de8fa431916004808301926020929190829003018186803b15801561510e57600080fd5b505afa158015615122573d6000803e3d6000fd5b505050506040513d602081101561513857600080fd5b5051115b610dae5760405162461bcd60e51b815260040180806020018281038252602a81526020018061547b602a913960400191505060405180910390fd5b600080808084156151cd5761518c8786613453565b93506151a28761144d888763ffffffff61350716565b92506151b4878563ffffffff612b8916565b91506151c6868463ffffffff612b8916565b90506151da565b5060009250829150859050845b93509350935093565b6151eb6152e1565b8381526020810183905260006152138361144d87670f43fc2c04ee000063ffffffff61350716565b905061521e81613c26565b604083018190526802b5e3af16b188000060608401526080830186905261524c90829063ffffffff612b8916565b60a0830152615261848263ffffffff612b8916565b61010083015250600060c0820181905260e08201529392505050565b600080615290848463ffffffff61350716565b9050613d0c670de0b6b3a764000061144d836706f05b59d3b200006133f9565b6040518060a00160405280600081526020016000815260200160001515815260200160008152602001600081525090565b6040518061012001604052806000815260200160008152602001600081526020016000815260200160008152602001600081526020016000815260200160008152602001600081525090565b6040805160e081018252600080825260208201819052918101829052606081018290526080810182905260a0810182905260c081019190915290565b60405180610100016040528060008152602001600081526020016000815260200160008152602001600081526020016000815260200160008152602001600081525090565b604051806040016040528060008152602001600081525090565b6040518060e0016040528060008152602001600081526020016000815260200160006001600160a01b0316815260200160001515815260200160008152602001600081525090565b6040518060600160405280600081526020016000815260200160008152509056feea67486ed7ebe3eea8ab3390efd4a3c8aae48be5bea27df104a8af786c40843454726f76654d616e616765723a20556e61626c6520746f2072656465656d20616e7920616d6f756e7454726f76654d616e616765723a204f6e6c79206f6e652074726f766520696e207468652073797374656d54726f76654d616e616765723a20526564656d7074696f6e7320617265206e6f7420616c6c6f77656420647572696e6720626f6f747374726170207068617365536166654d6174683a206d756c7469706c69636174696f6e206f766572666c6f7754726f76654d616e616765723a2052657175657374656420726564656d7074696f6e20616d6f756e74206d757374206265203c3d20757365722773204c55534420746f6b656e2062616c616e6365c3770d654ed33aeea6bf11ac8ef05d02a6a04ed4686dd2f624d853bbec43cc8b54726f76654d616e616765723a2043616c6c6572206973206e6f742074686520426f72726f7765724f7065726174696f6e7320636f6e747261637454726f76654d616e616765723a2043616c6c646174612061646472657373206172726179206d757374206e6f7420626520656d70747954726f76654d616e616765723a20416d6f756e74206d7573742062652067726561746572207468616e207a65726f54726f76654d616e616765723a2046656520776f756c642065617420757020616c6c2072657475726e656420636f6c6c61746572616c4d6178206665652070657263656e74616765206d757374206265206265747765656e20302e352520616e64203130302554726f76654d616e616765723a2043616e6e6f742072656465656d207768656e20544352203c204d435254726f76654d616e616765723a206e6f7468696e6720746f206c697175696461746554726f76654d616e616765723a2054726f766520646f6573206e6f74206578697374206f7220697320636c6f736564a26469706673582212203b19c987a81c507ea600c5fa7f12564424171ec81fc3f6c2491284b7dcde01f364736f6c634300060b0033",
  "linkReferences": {},
  "deployedLinkReferences": {}
}