{
  "_format": "hh-sol-artifact-1",
  "contractName": "TroveManagerScript",
  "sourceName": "contracts/Proxy/TroveManagerScript.sol",
  "abi": [
    {
      "inputs": [
        {
          "internalType": "contract ITroveManager",
          "name": "_troveManager",
          "type": "address"
        }
      ],
      "stateMutability": "nonpayable",
      "type": "constructor"
    },
    {
      "inputs": [
        {
          "internalType": "uint256",
          "name": "_LUSDAmount",
          "type": "uint256"
        },
        {
          "internalType": "address",
          "name": "_firstRedemptionHint",
          "type": "address"
        },
        {
          "internalType": "address",
          "name": "_upperPartialRedemptionHint",
          "type": "address"
        },
        {
          "internalType": "address",
          "name": "_lowerPartialRedemptionHint",
          "type": "address"
        },
        {
          "internalType": "uint256",
          "name": "_partialRedemptionHintNICR",
          "type": "uint256"
        },
        {
          "internalType": "uint256",
          "name": "_maxIterations",
          "type": "uint256"
        },
        {
          "internalType": "uint256",
          "name": "_maxFee",
          "type": "uint256"
        }
      ],
      "name": "redeemCollateral",
      "outputs": [
        {
          "internalType": "uint256",
          "name": "",
          "type": "uint256"
        }
      ],
      "stateMutability": "nonpayable",
      "type": "function"
    }
  ],
  "bytecode": "0x60a060405234801561001057600080fd5b506040516101e63803806101e68339818101604052602081101561003357600080fd5b5051606081901b6001600160601b0319166080526001600160a01b03166101806100666000398060e152506101806000f3fe608060405234801561001057600080fd5b506004361061002b5760003560e01c8063bcd3752614610030575b600080fd5b61007e600480360360e081101561004657600080fd5b508035906001600160a01b03602082013581169160408101358216916060820135169060808101359060a08101359060c00135610090565b60408051918252519081900360200190f35b60408051635e69ba9360e11b8152600481018990526001600160a01b038881166024830152878116604483015286811660648301526084820186905260a4820185905260c4820184905291516000927f0000000000000000000000000000000000000000000000000000000000000000169163bcd375269160e4808301928692919082900301818387803b15801561012757600080fd5b505af115801561013b573d6000803e3d6000fd5b5050505097965050505050505056fea26469706673582212202341ef2df39fb3f00a956f2349ec4c389fd42661e0e4e346b9cac8bf24b0a68464736f6c634300060b0033",
  "linkReferences": {},
  "deployedLinkReferences": {}
}