{
  "_format": "hh-sol-artifact-1",
  "contractName": "TroveManager",
  "sourceName": "contracts/TroveManager.sol",
  "abi": [
    {
      "anonymous": false,
      "inputs": [
        {
          "indexed": false,
          "internalType": "address",
          "name": "_activePoolAddress",
          "type": "address"
        }
      ],
      "name": "ActivePoolAddressChanged",
      "type": "event"
    },
    {
      "anonymous": false,
      "inputs": [
        {
          "indexed": false,
          "internalType": "uint256",
          "name": "_baseRate",
          "type": "uint256"
        }
      ],
      "name": "BaseRateUpdated",
      "type": "event"
    },
    {
      "anonymous": false,
      "inputs": [
        {
          "indexed": false,
          "internalType": "address",
          "name": "_newBorrowerOperationsAddress",
          "type": "address"
        }
      ],
      "name": "BorrowerOperationsAddressChanged",
      "type": "event"
    },
    {
      "anonymous": false,
      "inputs": [
        {
          "indexed": false,
          "internalType": "address",
          "name": "_collSurplusPoolAddress",
          "type": "address"
        }
      ],
      "name": "CollSurplusPoolAddressChanged",
      "type": "event"
    },
    {
      "anonymous": false,
      "inputs": [
        {
          "indexed": false,
          "internalType": "address",
          "name": "_defaultPoolAddress",
          "type": "address"
        }
      ],
      "name": "DefaultPoolAddressChanged",
      "type": "event"
    },
    {
      "anonymous": false,
      "inputs": [
        {
          "indexed": false,
          "internalType": "address",
          "name": "_gasPoolAddress",
          "type": "address"
        }
      ],
      "name": "GasPoolAddressChanged",
      "type": "event"
    },
    {
      "anonymous": false,
      "inputs": [
        {
          "indexed": false,
          "internalType": "address",
          "name": "_lqtyStakingAddress",
          "type": "address"
        }
      ],
      "name": "LQTYStakingAddressChanged",
      "type": "event"
    },
    {
      "anonymous": false,
      "inputs": [
        {
          "indexed": false,
          "internalType": "address",
          "name": "_lqtyTokenAddress",
          "type": "address"
        }
      ],
      "name": "LQTYTokenAddressChanged",
      "type": "event"
    },
    {
      "anonymous": false,
      "inputs": [
        {
          "indexed": false,
          "internalType": "uint256",
          "name": "_L_ETH",
          "type": "uint256"
        },
        {
          "indexed": false,
          "internalType": "uint256",
          "name": "_L_LUSDDebt",
          "type": "uint256"
        }
      ],
      "name": "LTermsUpdated",
      "type": "event"
    },
    {
      "anonymous": false,
      "inputs": [
        {
          "indexed": false,
          "internalType": "address",
          "name": "_newLUSDTokenAddress",
          "type": "address"
        }
      ],
      "name": "LUSDTokenAddressChanged",
      "type": "event"
    },
    {
      "anonymous": false,
      "inputs": [
        {
          "indexed": false,
          "internalType": "uint256",
          "name": "_lastFeeOpTime",
          "type": "uint256"
        }
      ],
      "name": "LastFeeOpTimeUpdated",
      "type": "event"
    },
    {
      "anonymous": false,
      "inputs": [
        {
          "indexed": false,
          "internalType": "uint256",
          "name": "_liquidatedDebt",
          "type": "uint256"
        },
        {
          "indexed": false,
          "internalType": "uint256",
          "name": "_liquidatedColl",
          "type": "uint256"
        },
        {
          "indexed": false,
          "internalType": "uint256",
          "name": "_collGasCompensation",
          "type": "uint256"
        },
        {
          "indexed": false,
          "internalType": "uint256",
          "name": "_LUSDGasCompensation",
          "type": "uint256"
        }
      ],
      "name": "Liquidation",
      "type": "event"
    },
    {
      "anonymous": false,
      "inputs": [
        {
          "indexed": true,
          "internalType": "address",
          "name": "previousOwner",
          "type": "address"
        },
        {
          "indexed": true,
          "internalType": "address",
          "name": "newOwner",
          "type": "address"
        }
      ],
      "name": "OwnershipTransferred",
      "type": "event"
    },
    {
      "anonymous": false,
      "inputs": [
        {
          "indexed": false,
          "internalType": "address",
          "name": "_newPriceFeedAddress",
          "type": "address"
        }
      ],
      "name": "PriceFeedAddressChanged",
      "type": "event"
    },
    {
      "anonymous": false,
      "inputs": [
        {
          "indexed": false,
          "internalType": "uint256",
          "name": "_attemptedLUSDAmount",
          "type": "uint256"
        },
        {
          "indexed": false,
          "internalType": "uint256",
          "name": "_actualLUSDAmount",
          "type": "uint256"
        },
        {
          "indexed": false,
          "internalType": "uint256",
          "name": "_ETHSent",
          "type": "uint256"
        },
        {
          "indexed": false,
          "internalType": "uint256",
          "name": "_ETHFee",
          "type": "uint256"
        }
      ],
      "name": "Redemption",
      "type": "event"
    },
    {
      "anonymous": false,
      "inputs": [
        {
          "indexed": false,
          "internalType": "address",
          "name": "_sortedTrovesAddress",
          "type": "address"
        }
      ],
      "name": "SortedTrovesAddressChanged",
      "type": "event"
    },
    {
      "anonymous": false,
      "inputs": [
        {
          "indexed": false,
          "internalType": "address",
          "name": "_stabilityPoolAddress",
          "type": "address"
        }
      ],
      "name": "StabilityPoolAddressChanged",
      "type": "event"
    },
    {
      "anonymous": false,
      "inputs": [
        {
          "indexed": false,
          "internalType": "uint256",
          "name": "_totalStakesSnapshot",
          "type": "uint256"
        },
        {
          "indexed": false,
          "internalType": "uint256",
          "name": "_totalCollateralSnapshot",
          "type": "uint256"
        }
      ],
      "name": "SystemSnapshotsUpdated",
      "type": "event"
    },
    {
      "anonymous": false,
      "inputs": [
        {
          "indexed": false,
          "internalType": "uint256",
          "name": "_newTotalStakes",
          "type": "uint256"
        }
      ],
      "name": "TotalStakesUpdated",
      "type": "event"
    },
    {
      "anonymous": false,
      "inputs": [
        {
          "indexed": false,
          "internalType": "address",
          "name": "_borrower",
          "type": "address"
        },
        {
          "indexed": false,
          "internalType": "uint256",
          "name": "_newIndex",
          "type": "uint256"
        }
      ],
      "name": "TroveIndexUpdated",
      "type": "event"
    },
    {
      "anonymous": false,
      "inputs": [
        {
          "indexed": true,
          "internalType": "address",
          "name": "_borrower",
          "type": "address"
        },
        {
          "indexed": false,
          "internalType": "uint256",
          "name": "_debt",
          "type": "uint256"
        },
        {
          "indexed": false,
          "internalType": "uint256",
          "name": "_coll",
          "type": "uint256"
        },
        {
          "indexed": false,
          "internalType": "enum TroveManager.TroveManagerOperation",
          "name": "_operation",
          "type": "uint8"
        }
      ],
      "name": "TroveLiquidated",
      "type": "event"
    },
    {
      "anonymous": false,
      "inputs": [
        {
          "indexed": false,
          "internalType": "uint256",
          "name": "_L_ETH",
          "type": "uint256"
        },
        {
          "indexed": false,
          "internalType": "uint256",
          "name": "_L_LUSDDebt",
          "type": "uint256"
        }
      ],
      "name": "TroveSnapshotsUpdated",
      "type": "event"
    },
    {
      "anonymous": false,
      "inputs": [
        {
          "indexed": true,
          "internalType": "address",
          "name": "_borrower",
          "type": "address"
        },
        {
          "indexed": false,
          "internalType": "uint256",
          "name": "_debt",
          "type": "uint256"
        },
        {
          "indexed": false,
          "internalType": "uint256",
          "name": "_coll",
          "type": "uint256"
        },
        {
          "indexed": false,
          "internalType": "uint256",
          "name": "_stake",
          "type": "uint256"
        },
        {
          "indexed": false,
          "internalType": "enum TroveManager.TroveManagerOperation",
          "name": "_operation",
          "type": "uint8"
        }
      ],
      "name": "TroveUpdated",
      "type": "event"
    },
    {
      "inputs": [],
      "name": "BETA",
      "outputs": [
        {
          "internalType": "uint256",
          "name": "",
          "type": "uint256"
        }
      ],
      "stateMutability": "view",
      "type": "function"
    },
    {
      "inputs": [],
      "name": "BOOTSTRAP_PERIOD",
      "outputs": [
        {
          "internalType": "uint256",
          "name": "",
          "type": "uint256"
        }
      ],
      "stateMutability": "view",
      "type": "function"
    },
    {
      "inputs": [],
      "name": "BORROWING_FEE_FLOOR",
      "outputs": [
        {
          "internalType": "uint256",
          "name": "",
          "type": "uint256"
        }
      ],
      "stateMutability": "view",
      "type": "function"
    },
    {
      "inputs": [],
      "name": "CCR",
      "outputs": [
        {
          "internalType": "uint256",
          "name": "",
          "type": "uint256"
        }
      ],
      "stateMutability": "view",
      "type": "function"
    },
    {
      "inputs": [],
      "name": "DECIMAL_PRECISION",
      "outputs": [
        {
          "internalType": "uint256",
          "name": "",
          "type": "uint256"
        }
      ],
      "stateMutability": "view",
      "type": "function"
    },
    {
      "inputs": [],
      "name": "LUSD_GAS_COMPENSATION",
      "outputs": [
        {
          "internalType": "uint256",
          "name": "",
          "type": "uint256"
        }
      ],
      "stateMutability": "view",
      "type": "function"
    },
    {
      "inputs": [],
      "name": "L_ETH",
      "outputs": [
        {
          "internalType": "uint256",
          "name": "",
          "type": "uint256"
        }
      ],
      "stateMutability": "view",
      "type": "function"
    },
    {
      "inputs": [],
      "name": "L_LUSDDebt",
      "outputs": [
        {
          "internalType": "uint256",
          "name": "",
          "type": "uint256"
        }
      ],
      "stateMutability": "view",
      "type": "function"
    },
    {
      "inputs": [],
      "name": "MAX_BORROWING_FEE",
      "outputs": [
        {
          "internalType": "uint256",
          "name": "",
          "type": "uint256"
        }
      ],
      "stateMutability": "view",
      "type": "function"
    },
    {
      "inputs": [],
      "name": "MCR",
      "outputs": [
        {
          "internalType": "uint256",
          "name": "",
          "type": "uint256"
        }
      ],
      "stateMutability": "view",
      "type": "function"
    },
    {
      "inputs": [],
      "name": "MINUTE_DECAY_FACTOR",
      "outputs": [
        {
          "internalType": "uint256",
          "name": "",
          "type": "uint256"
        }
      ],
      "stateMutability": "view",
      "type": "function"
    },
    {
      "inputs": [],
      "name": "MIN_NET_DEBT",
      "outputs": [
        {
          "internalType": "uint256",
          "name": "",
          "type": "uint256"
        }
      ],
      "stateMutability": "view",
      "type": "function"
    },
    {
      "inputs": [],
      "name": "PERCENT_DIVISOR",
      "outputs": [
        {
          "internalType": "uint256",
          "name": "",
          "type": "uint256"
        }
      ],
      "stateMutability": "view",
      "type": "function"
    },
    {
      "inputs": [],
      "name": "REDEMPTION_FEE_FLOOR",
      "outputs": [
        {
          "internalType": "uint256",
          "name": "",
          "type": "uint256"
        }
      ],
      "stateMutability": "view",
      "type": "function"
    },
    {
      "inputs": [],
      "name": "SECONDS_IN_ONE_MINUTE",
      "outputs": [
        {
          "internalType": "uint256",
          "name": "",
          "type": "uint256"
        }
      ],
      "stateMutability": "view",
      "type": "function"
    },
    {
      "inputs": [
        {
          "internalType": "uint256",
          "name": "",
          "type": "uint256"
        }
      ],
      "name": "TroveOwners",
      "outputs": [
        {
          "internalType": "address",
          "name": "",
          "type": "address"
        }
      ],
      "stateMutability": "view",
      "type": "function"
    },
    {
      "inputs": [
        {
          "internalType": "address",
          "name": "",
          "type": "address"
        }
      ],
      "name": "Troves",
      "outputs": [
        {
          "internalType": "uint256",
          "name": "debt",
          "type": "uint256"
        },
        {
          "internalType": "uint256",
          "name": "coll",
          "type": "uint256"
        },
        {
          "internalType": "uint256",
          "name": "stake",
          "type": "uint256"
        },
        {
          "internalType": "enum TroveManager.Status",
          "name": "status",
          "type": "uint8"
        },
        {
          "internalType": "uint128",
          "name": "arrayIndex",
          "type": "uint128"
        }
      ],
      "stateMutability": "view",
      "type": "function"
    },
    {
      "inputs": [],
      "name": "_100pct",
      "outputs": [
        {
          "internalType": "uint256",
          "name": "",
          "type": "uint256"
        }
      ],
      "stateMutability": "view",
      "type": "function"
    },
    {
      "inputs": [],
      "name": "activePool",
      "outputs": [
        {
          "internalType": "contract IActivePool",
          "name": "",
          "type": "address"
        }
      ],
      "stateMutability": "view",
      "type": "function"
    },
    {
      "inputs": [
        {
          "internalType": "address",
          "name": "_borrower",
          "type": "address"
        }
      ],
      "name": "addTroveOwnerToArray",
      "outputs": [
        {
          "internalType": "uint256",
          "name": "index",
          "type": "uint256"
        }
      ],
      "stateMutability": "nonpayable",
      "type": "function"
    },
    {
      "inputs": [
        {
          "internalType": "address",
          "name": "_borrower",
          "type": "address"
        }
      ],
      "name": "applyPendingRewards",
      "outputs": [],
      "stateMutability": "nonpayable",
      "type": "function"
    },
    {
      "inputs": [],
      "name": "baseRate",
      "outputs": [
        {
          "internalType": "uint256",
          "name": "",
          "type": "uint256"
        }
      ],
      "stateMutability": "view",
      "type": "function"
    },
    {
      "inputs": [
        {
          "internalType": "address[]",
          "name": "_troveArray",
          "type": "address[]"
        }
      ],
      "name": "batchLiquidateTroves",
      "outputs": [],
      "stateMutability": "nonpayable",
      "type": "function"
    },
    {
      "inputs": [],
      "name": "borrowerOperationsAddress",
      "outputs": [
        {
          "internalType": "address",
          "name": "",
          "type": "address"
        }
      ],
      "stateMutability": "view",
      "type": "function"
    },
    {
      "inputs": [
        {
          "internalType": "uint256",
          "name": "_price",
          "type": "uint256"
        }
      ],
      "name": "checkRecoveryMode",
      "outputs": [
        {
          "internalType": "bool",
          "name": "",
          "type": "bool"
        }
      ],
      "stateMutability": "view",
      "type": "function"
    },
    {
      "inputs": [
        {
          "internalType": "address",
          "name": "_borrower",
          "type": "address"
        }
      ],
      "name": "closeTrove",
      "outputs": [],
      "stateMutability": "nonpayable",
      "type": "function"
    },
    {
      "inputs": [],
      "name": "decayBaseRateFromBorrowing",
      "outputs": [],
      "stateMutability": "nonpayable",
      "type": "function"
    },
    {
      "inputs": [
        {
          "internalType": "address",
          "name": "_borrower",
          "type": "address"
        },
        {
          "internalType": "uint256",
          "name": "_collDecrease",
          "type": "uint256"
        }
      ],
      "name": "decreaseTroveColl",
      "outputs": [
        {
          "internalType": "uint256",
          "name": "",
          "type": "uint256"
        }
      ],
      "stateMutability": "nonpayable",
      "type": "function"
    },
    {
      "inputs": [
        {
          "internalType": "address",
          "name": "_borrower",
          "type": "address"
        },
        {
          "internalType": "uint256",
          "name": "_debtDecrease",
          "type": "uint256"
        }
      ],
      "name": "decreaseTroveDebt",
      "outputs": [
        {
          "internalType": "uint256",
          "name": "",
          "type": "uint256"
        }
      ],
      "stateMutability": "nonpayable",
      "type": "function"
    },
    {
      "inputs": [],
      "name": "defaultPool",
      "outputs": [
        {
          "internalType": "contract IDefaultPool",
          "name": "",
          "type": "address"
        }
      ],
      "stateMutability": "view",
      "type": "function"
    },
    {
      "inputs": [
        {
          "internalType": "uint256",
          "name": "_LUSDDebt",
          "type": "uint256"
        }
      ],
      "name": "getBorrowingFee",
      "outputs": [
        {
          "internalType": "uint256",
          "name": "",
          "type": "uint256"
        }
      ],
      "stateMutability": "view",
      "type": "function"
    },
    {
      "inputs": [
        {
          "internalType": "uint256",
          "name": "_LUSDDebt",
          "type": "uint256"
        }
      ],
      "name": "getBorrowingFeeWithDecay",
      "outputs": [
        {
          "internalType": "uint256",
          "name": "",
          "type": "uint256"
        }
      ],
      "stateMutability": "view",
      "type": "function"
    },
    {
      "inputs": [],
      "name": "getBorrowingRate",
      "outputs": [
        {
          "internalType": "uint256",
          "name": "",
          "type": "uint256"
        }
      ],
      "stateMutability": "view",
      "type": "function"
    },
    {
      "inputs": [],
      "name": "getBorrowingRateWithDecay",
      "outputs": [
        {
          "internalType": "uint256",
          "name": "",
          "type": "uint256"
        }
      ],
      "stateMutability": "view",
      "type": "function"
    },
    {
      "inputs": [
        {
          "internalType": "address",
          "name": "_borrower",
          "type": "address"
        },
        {
          "internalType": "uint256",
          "name": "_price",
          "type": "uint256"
        }
      ],
      "name": "getCurrentICR",
      "outputs": [
        {
          "internalType": "uint256",
          "name": "",
          "type": "uint256"
        }
      ],
      "stateMutability": "view",
      "type": "function"
    },
    {
      "inputs": [
        {
          "internalType": "address",
          "name": "_borrower",
          "type": "address"
        }
      ],
      "name": "getEntireDebtAndColl",
      "outputs": [
        {
          "internalType": "uint256",
          "name": "debt",
          "type": "uint256"
        },
        {
          "internalType": "uint256",
          "name": "coll",
          "type": "uint256"
        },
        {
          "internalType": "uint256",
          "name": "pendingLUSDDebtReward",
          "type": "uint256"
        },
        {
          "internalType": "uint256",
          "name": "pendingETHReward",
          "type": "uint256"
        }
      ],
      "stateMutability": "view",
      "type": "function"
    },
    {
      "inputs": [],
      "name": "getEntireSystemColl",
      "outputs": [
        {
          "internalType": "uint256",
          "name": "entireSystemColl",
          "type": "uint256"
        }
      ],
      "stateMutability": "view",
      "type": "function"
    },
    {
      "inputs": [],
      "name": "getEntireSystemDebt",
      "outputs": [
        {
          "internalType": "uint256",
          "name": "entireSystemDebt",
          "type": "uint256"
        }
      ],
      "stateMutability": "view",
      "type": "function"
    },
    {
      "inputs": [
        {
          "internalType": "address",
          "name": "_borrower",
          "type": "address"
        }
      ],
      "name": "getNominalICR",
      "outputs": [
        {
          "internalType": "uint256",
          "name": "",
          "type": "uint256"
        }
      ],
      "stateMutability": "view",
      "type": "function"
    },
    {
      "inputs": [
        {
          "internalType": "address",
          "name": "_borrower",
          "type": "address"
        }
      ],
      "name": "getPendingETHReward",
      "outputs": [
        {
          "internalType": "uint256",
          "name": "",
          "type": "uint256"
        }
      ],
      "stateMutability": "view",
      "type": "function"
    },
    {
      "inputs": [
        {
          "internalType": "address",
          "name": "_borrower",
          "type": "address"
        }
      ],
      "name": "getPendingLUSDDebtReward",
      "outputs": [
        {
          "internalType": "uint256",
          "name": "",
          "type": "uint256"
        }
      ],
      "stateMutability": "view",
      "type": "function"
    },
    {
      "inputs": [
        {
          "internalType": "uint256",
          "name": "_ETHDrawn",
          "type": "uint256"
        }
      ],
      "name": "getRedemptionFeeWithDecay",
      "outputs": [
        {
          "internalType": "uint256",
          "name": "",
          "type": "uint256"
        }
      ],
      "stateMutability": "view",
      "type": "function"
    },
    {
      "inputs": [],
      "name": "getRedemptionRate",
      "outputs": [
        {
          "internalType": "uint256",
          "name": "",
          "type": "uint256"
        }
      ],
      "stateMutability": "view",
      "type": "function"
    },
    {
      "inputs": [],
      "name": "getRedemptionRateWithDecay",
      "outputs": [
        {
          "internalType": "uint256",
          "name": "",
          "type": "uint256"
        }
      ],
      "stateMutability": "view",
      "type": "function"
    },
    {
      "inputs": [
        {
          "internalType": "uint256",
          "name": "_price",
          "type": "uint256"
        }
      ],
      "name": "getTCR",
      "outputs": [
        {
          "internalType": "uint256",
          "name": "",
          "type": "uint256"
        }
      ],
      "stateMutability": "view",
      "type": "function"
    },
    {
      "inputs": [
        {
          "internalType": "address",
          "name": "_borrower",
          "type": "address"
        }
      ],
      "name": "getTroveColl",
      "outputs": [
        {
          "internalType": "uint256",
          "name": "",
          "type": "uint256"
        }
      ],
      "stateMutability": "view",
      "type": "function"
    },
    {
      "inputs": [
        {
          "internalType": "address",
          "name": "_borrower",
          "type": "address"
        }
      ],
      "name": "getTroveDebt",
      "outputs": [
        {
          "internalType": "uint256",
          "name": "",
          "type": "uint256"
        }
      ],
      "stateMutability": "view",
      "type": "function"
    },
    {
      "inputs": [
        {
          "internalType": "uint256",
          "name": "_index",
          "type": "uint256"
        }
      ],
      "name": "getTroveFromTroveOwnersArray",
      "outputs": [
        {
          "internalType": "address",
          "name": "",
          "type": "address"
        }
      ],
      "stateMutability": "view",
      "type": "function"
    },
    {
      "inputs": [],
      "name": "getTroveOwnersCount",
      "outputs": [
        {
          "internalType": "uint256",
          "name": "",
          "type": "uint256"
        }
      ],
      "stateMutability": "view",
      "type": "function"
    },
    {
      "inputs": [
        {
          "internalType": "address",
          "name": "_borrower",
          "type": "address"
        }
      ],
      "name": "getTroveStake",
      "outputs": [
        {
          "internalType": "uint256",
          "name": "",
          "type": "uint256"
        }
      ],
      "stateMutability": "view",
      "type": "function"
    },
    {
      "inputs": [
        {
          "internalType": "address",
          "name": "_borrower",
          "type": "address"
        }
      ],
      "name": "getTroveStatus",
      "outputs": [
        {
          "internalType": "uint256",
          "name": "",
          "type": "uint256"
        }
      ],
      "stateMutability": "view",
      "type": "function"
    },
    {
      "inputs": [
        {
          "internalType": "address",
          "name": "_borrower",
          "type": "address"
        }
      ],
      "name": "hasPendingRewards",
      "outputs": [
        {
          "internalType": "bool",
          "name": "",
          "type": "bool"
        }
      ],
      "stateMutability": "view",
      "type": "function"
    },
    {
      "inputs": [
        {
          "internalType": "address",
          "name": "_borrower",
          "type": "address"
        },
        {
          "internalType": "uint256",
          "name": "_collIncrease",
          "type": "uint256"
        }
      ],
      "name": "increaseTroveColl",
      "outputs": [
        {
          "internalType": "uint256",
          "name": "",
          "type": "uint256"
        }
      ],
      "stateMutability": "nonpayable",
      "type": "function"
    },
    {
      "inputs": [
        {
          "internalType": "address",
          "name": "_borrower",
          "type": "address"
        },
        {
          "internalType": "uint256",
          "name": "_debtIncrease",
          "type": "uint256"
        }
      ],
      "name": "increaseTroveDebt",
      "outputs": [
        {
          "internalType": "uint256",
          "name": "",
          "type": "uint256"
        }
      ],
      "stateMutability": "nonpayable",
      "type": "function"
    },
    {
      "inputs": [],
      "name": "isOwner",
      "outputs": [
        {
          "internalType": "bool",
          "name": "",
          "type": "bool"
        }
      ],
      "stateMutability": "view",
      "type": "function"
    },
    {
      "inputs": [],
      "name": "lastETHError_Redistribution",
      "outputs": [
        {
          "internalType": "uint256",
          "name": "",
          "type": "uint256"
        }
      ],
      "stateMutability": "view",
      "type": "function"
    },
    {
      "inputs": [],
      "name": "lastFeeOperationTime",
      "outputs": [
        {
          "internalType": "uint256",
          "name": "",
          "type": "uint256"
        }
      ],
      "stateMutability": "view",
      "type": "function"
    },
    {
      "inputs": [],
      "name": "lastLUSDDebtError_Redistribution",
      "outputs": [
        {
          "internalType": "uint256",
          "name": "",
          "type": "uint256"
        }
      ],
      "stateMutability": "view",
      "type": "function"
    },
    {
      "inputs": [
        {
          "internalType": "address",
          "name": "_borrower",
          "type": "address"
        }
      ],
      "name": "liquidate",
      "outputs": [],
      "stateMutability": "nonpayable",
      "type": "function"
    },
    {
      "inputs": [
        {
          "internalType": "uint256",
          "name": "_n",
          "type": "uint256"
        }
      ],
      "name": "liquidateTroves",
      "outputs": [],
      "stateMutability": "nonpayable",
      "type": "function"
    },
    {
      "inputs": [],
      "name": "lqtyStaking",
      "outputs": [
        {
          "internalType": "contract ILQTYStaking",
          "name": "",
          "type": "address"
        }
      ],
      "stateMutability": "view",
      "type": "function"
    },
    {
      "inputs": [],
      "name": "lqtyToken",
      "outputs": [
        {
          "internalType": "contract ILQTYToken",
          "name": "",
          "type": "address"
        }
      ],
      "stateMutability": "view",
      "type": "function"
    },
    {
      "inputs": [],
      "name": "lusdToken",
      "outputs": [
        {
          "internalType": "contract ILUSDToken",
          "name": "",
          "type": "address"
        }
      ],
      "stateMutability": "view",
      "type": "function"
    },
    {
      "inputs": [],
      "name": "owner",
      "outputs": [
        {
          "internalType": "address",
          "name": "",
          "type": "address"
        }
      ],
      "stateMutability": "view",
      "type": "function"
    },
    {
      "inputs": [],
      "name": "priceFeed",
      "outputs": [
        {
          "internalType": "contract IPriceFeed",
          "name": "",
          "type": "address"
        }
      ],
      "stateMutability": "view",
      "type": "function"
    },
    {
      "inputs": [
        {
          "internalType": "uint256",
          "name": "_LUSDamount",
          "type": "uint256"
        },
        {
          "internalType": "address",
          "name": "_firstRedemptionHint",
          "type": "address"
        },
        {
          "internalType": "address",
          "name": "_upperPartialRedemptionHint",
          "type": "address"
        },
        {
          "internalType": "address",
          "name": "_lowerPartialRedemptionHint",
          "type": "address"
        },
        {
          "internalType": "uint256",
          "name": "_partialRedemptionHintNICR",
          "type": "uint256"
        },
        {
          "internalType": "uint256",
          "name": "_maxIterations",
          "type": "uint256"
        },
        {
          "internalType": "uint256",
          "name": "_maxFeePercentage",
          "type": "uint256"
        }
      ],
      "name": "redeemCollateral",
      "outputs": [],
      "stateMutability": "nonpayable",
      "type": "function"
    },
    {
      "inputs": [
        {
          "internalType": "address",
          "name": "_borrower",
          "type": "address"
        }
      ],
      "name": "removeStake",
      "outputs": [],
      "stateMutability": "nonpayable",
      "type": "function"
    },
    {
      "inputs": [
        {
          "internalType": "address",
          "name": "",
          "type": "address"
        }
      ],
      "name": "rewardSnapshots",
      "outputs": [
        {
          "internalType": "uint256",
          "name": "ETH",
          "type": "uint256"
        },
        {
          "internalType": "uint256",
          "name": "LUSDDebt",
          "type": "uint256"
        }
      ],
      "stateMutability": "view",
      "type": "function"
    },
    {
      "inputs": [
        {
          "internalType": "address",
          "name": "_borrowerOperationsAddress",
          "type": "address"
        },
        {
          "internalType": "address",
          "name": "_activePoolAddress",
          "type": "address"
        },
        {
          "internalType": "address",
          "name": "_defaultPoolAddress",
          "type": "address"
        },
        {
          "internalType": "address",
          "name": "_stabilityPoolAddress",
          "type": "address"
        },
        {
          "internalType": "address",
          "name": "_gasPoolAddress",
          "type": "address"
        },
        {
          "internalType": "address",
          "name": "_collSurplusPoolAddress",
          "type": "address"
        },
        {
          "internalType": "address",
          "name": "_priceFeedAddress",
          "type": "address"
        },
        {
          "internalType": "address",
          "name": "_lusdTokenAddress",
          "type": "address"
        },
        {
          "internalType": "address",
          "name": "_sortedTrovesAddress",
          "type": "address"
        },
        {
          "internalType": "address",
          "name": "_lqtyTokenAddress",
          "type": "address"
        },
        {
          "internalType": "address",
          "name": "_lqtyStakingAddress",
          "type": "address"
        }
      ],
      "name": "setAddresses",
      "outputs": [],
      "stateMutability": "nonpayable",
      "type": "function"
    },
    {
      "inputs": [
        {
          "internalType": "address",
          "name": "_borrower",
          "type": "address"
        },
        {
          "internalType": "uint256",
          "name": "_num",
          "type": "uint256"
        }
      ],
      "name": "setTroveStatus",
      "outputs": [],
      "stateMutability": "nonpayable",
      "type": "function"
    },
    {
      "inputs": [],
      "name": "sortedTroves",
      "outputs": [
        {
          "internalType": "contract ISortedTroves",
          "name": "",
          "type": "address"
        }
      ],
      "stateMutability": "view",
      "type": "function"
    },
    {
      "inputs": [],
      "name": "stabilityPool",
      "outputs": [
        {
          "internalType": "contract IStabilityPool",
          "name": "",
          "type": "address"
        }
      ],
      "stateMutability": "view",
      "type": "function"
    },
    {
      "inputs": [],
      "name": "totalCollateralSnapshot",
      "outputs": [
        {
          "internalType": "uint256",
          "name": "",
          "type": "uint256"
        }
      ],
      "stateMutability": "view",
      "type": "function"
    },
    {
      "inputs": [],
      "name": "totalStakes",
      "outputs": [
        {
          "internalType": "uint256",
          "name": "",
          "type": "uint256"
        }
      ],
      "stateMutability": "view",
      "type": "function"
    },
    {
      "inputs": [],
      "name": "totalStakesSnapshot",
      "outputs": [
        {
          "internalType": "uint256",
          "name": "",
          "type": "uint256"
        }
      ],
      "stateMutability": "view",
      "type": "function"
    },
    {
      "inputs": [
        {
          "internalType": "address",
          "name": "_borrower",
          "type": "address"
        }
      ],
      "name": "updateStakeAndTotalStakes",
      "outputs": [
        {
          "internalType": "uint256",
          "name": "",
          "type": "uint256"
        }
      ],
      "stateMutability": "nonpayable",
      "type": "function"
    },
    {
      "inputs": [
        {
          "internalType": "address",
          "name": "_borrower",
          "type": "address"
        }
      ],
      "name": "updateTroveRewardSnapshots",
      "outputs": [],
      "stateMutability": "nonpayable",
      "type": "function"
    }
  ],
  "bytecode": "0x608060405234801561001057600080fd5b50600380546001600160a01b031916339081179091556040516000907f8be0079c531659141344cd1fd0a4f28419497f9722a3daafe3b4186f6b6457e0908290a361590480620000616000396000f3fe608060405234801561001057600080fd5b506004361061042f5760003560e01c8063794e57241161023c578063b83f91a211610146578063d3d6f843116100c3578063e2ac77b011610087578063e2ac77b014610bcf578063f34862de14610bf5578063f36b242514610c1b578063f92d343314610642578063fe2ba84814610c235761042f565b8063d3d6f84314610b3b578063d5b3563514610b67578063d66a255314610b84578063d9a7244414610baa578063dba1c5f214610bc75761042f565b8063c52861f21161010a578063c52861f214610ad1578063c7b5548114610ad9578063cbd138ae14610ae1578063d293c71014610b07578063d380a37c14610b335761042f565b8063b83f91a214610a1f578063b91af97c14610a27578063bcd3752614610a73578063bf9befb114610ac1578063c35bc55014610ac95761042f565b80638f32d59b116101d4578063a3a6401711610198578063a3a64017146109c4578063ae918754146109cc578063b0d8e181146109d4578063b7f8cf9b146109fa578063b82f263d14610a025761042f565b80638f32d59b1461098057806396d711ff146109885780639976cf45146109905780639dd233d2146109bc578063a20baee6146108795761042f565b8063794e5724146108a6578063795d26c3146108ae578063797250e3146108b65780637985c5e4146108be5780637f7dde4a1461093a578063807d138d1461094257806382fe3eb91461094a578063887105d3146109705780638da5cb5b146109785761042f565b8063477d66cf1161033d57806361ec893d116102d55780636ef64338116102995780636ef64338146107de57806372423c171461084d57806372fe25aa14610879578063741bef1a14610881578063756b253e146108895761042f565b806361ec893d1461076e578063631203b01461077657806364cee26014610793578063653d46e7146107b957806366ca4a21146107d65761042f565b8063477d66cf14610688578063480cd578146106a55780634870dd9a146106cb57806349eefeee146106d35780634e443d9e146106db5780635733d58f1461070c5780635d6b480f146107145780635d8c9609146107405780635dba4c4a146107665761042f565b80631e8b1c2b116103cb57806328d28b5b1161038f57806328d28b5b146106425780632b11551a1461064a5780632e86bbd8146106525780632f8655681461065a5780633cc74225146106805761042f565b80631e8b1c2b146105615780631f68f20a146106045780631f7af3c31461060c57806321e3780114610614578063240926691461063a5761042f565b8063048c661d14610434578063060d49a314610458578063071a7541146104725780630b0765571461047a57806312610e92146104a257806315d549f1146104ce5780631673c79a146104f457806318f2817a146105335780631bf4355514610559575b600080fd5b61043c610c49565b604080516001600160a01b039092168252519081900360200190f35b610460610c58565b60408051918252519081900360200190f35b610460610c5e565b6104a06004803603602081101561049057600080fd5b50356001600160a01b0316610c63565b005b610460600480360360408110156104b857600080fd5b506001600160a01b038135169060200135610c8b565b610460600480360360208110156104e457600080fd5b50356001600160a01b0316610ce3565b61051a6004803603602081101561050a57600080fd5b50356001600160a01b0316610d07565b6040805192835260208301919091528051918290030190f35b6104606004803603602081101561054957600080fd5b50356001600160a01b0316610d20565b610460610d33565b6104a06004803603602081101561057757600080fd5b81019060208101813564010000000081111561059257600080fd5b8201836020820111156105a457600080fd5b803590602001918460208302840111640100000000831117156105c657600080fd5b919080806020026020016040519081016040528093929190818152602001838360200280828437600092019190915250929550610d40945050505050565b6104606110e2565b61043c6110e8565b6104606004803603602081101561062a57600080fd5b50356001600160a01b03166110f7565b610460611121565b610460611134565b610460611145565b610460611157565b6104a06004803603602081101561067057600080fd5b50356001600160a01b0316611164565b61043c6111ca565b6104606004803603602081101561069e57600080fd5b50356111d9565b610460600480360360208110156106bb57600080fd5b50356001600160a01b03166111ec565b61046061120a565b61046061120f565b6106f8600480360360208110156106f157600080fd5b5035611215565b604080519115158252519081900360200190f35b610460611220565b6104a06004803603604081101561072a57600080fd5b506001600160a01b03813516906020013561122c565b6104606004803603602081101561075657600080fd5b50356001600160a01b0316611278565b6104a061133e565b6104606113a4565b6104606004803603602081101561078c57600080fd5b50356113a9565b610460600480360360208110156107a957600080fd5b50356001600160a01b03166113b6565b6104a0600480360360208110156107cf57600080fd5b50356113d4565b610460611782565b610804600480360360208110156107f457600080fd5b50356001600160a01b0316611794565b6040518086815260200185815260200184815260200183600281111561082657fe5b60ff1681526001600160801b03909216602083015250604080519182900301945092505050f35b6104606004803603604081101561086357600080fd5b506001600160a01b0381351690602001356117ce565b61046061182b565b61043c611837565b61043c6004803603602081101561089f57600080fd5b5035611846565b61046061186d565b610460611879565b61046061197a565b6104a060048036036101608110156108d557600080fd5b506001600160a01b038135811691602081013582169160408201358116916060810135821691608082013581169160a081013582169160c082013581169160e08101358216916101008201358116916101208101358216916101409091013516611980565b61043c611d79565b610460611d88565b6104a06004803603602081101561096057600080fd5b50356001600160a01b0316611d8e565b610460611d9f565b61043c611e5b565b6106f8611e6a565b610460611e7b565b610460600480360360408110156109a657600080fd5b506001600160a01b038135169060200135611e81565b610460611eb4565b61043c611eba565b61043c611ec9565b610460600480360360208110156109ea57600080fd5b50356001600160a01b0316611ed8565b61043c611eff565b61046060048036036020811015610a1857600080fd5b5035611f0e565b61043c611f19565b610a4d60048036036020811015610a3d57600080fd5b50356001600160a01b0316611f28565b604080519485526020850193909352838301919091526060830152519081900360800190f35b6104a0600480360360e0811015610a8957600080fd5b508035906001600160a01b03602082013581169160408101358216916060820135169060808101359060a08101359060c00135611f8c565b61046061272e565b610460612734565b61046061273b565b61046061274d565b6104a060048036036020811015610af757600080fd5b50356001600160a01b0316612759565b61046060048036036040811015610b1d57600080fd5b506001600160a01b03813516906020013561276a565b610460612789565b61046060048036036040811015610b5157600080fd5b506001600160a01b03813516906020013561278f565b61046060048036036020811015610b7d57600080fd5b50356127c5565b61046060048036036020811015610b9a57600080fd5b50356001600160a01b03166127d8565b61043c60048036036020811015610bc057600080fd5b50356127f3565b61046061281d565b6106f860048036036020811015610be557600080fd5b50356001600160a01b0316612823565b61046060048036036020811015610c0b57600080fd5b50356001600160a01b0316612881565b6104606128b2565b6104a060048036036020811015610c3957600080fd5b50356001600160a01b03166128bf565b6005546001600160a01b031681565b60175481565b600281565b610c6b6128d0565b600054600154610c88916001600160a01b0390811691168361291b565b50565b6000610c956128d0565b6001600160a01b0383166000908152600e6020526040812054610cbe908463ffffffff612a3d16565b6001600160a01b0385166000908152600e602052604090208190559150505b92915050565b6000610ced6128d0565b610cf682612a86565b6001600160801b031690505b919050565b6014602052600090815260409020805460019091015482565b6000610d2a6128d0565b610cdd82612b20565b6869b5afac750bb8000081565b8051610d7d5760405162461bcd60e51b815260040180806020018281038252603681526020018061578a6036913960400191505060405180910390fd5b6000546001546005546001600160a01b03928316929182169116610d9f615482565b610da76154b3565b600260009054906101000a90046001600160a01b03166001600160a01b0316630fdb11cf6040518163ffffffff1660e01b8152600401602060405180830381600087803b158015610df757600080fd5b505af1158015610e0b573d6000803e3d6000fd5b505050506040513d6020811015610e2157600080fd5b50518252604080516326fcbc6b60e21b815290516001600160a01b03851691639bf2f1ac916004808301926020929190829003018186803b158015610e6557600080fd5b505afa158015610e79573d6000803e3d6000fd5b505050506040513d6020811015610e8f57600080fd5b505160208301528151610ea190612bcf565b1580156040840152610ec957610ec28585846000015185602001518a612bec565b9050610ee1565b610ede8585846000015185602001518a612dd5565b90505b6000816020015111610f245760405162461bcd60e51b815260040180806020018281038252602281526020018061587e6022913960400191505060405180910390fd5b826001600160a01b031663335525ad82608001518360a001516040518363ffffffff1660e01b81526004018083815260200182815260200192505050600060405180830381600087803b158015610f7a57600080fd5b505af1158015610f8e573d6000803e3d6000fd5b50505050610fa685858360c001518460e00151612e9d565b6101008101511561102557600754610100820151604080516364a197f360e01b81526001600160a01b039384166004820152602481019290925251918716916364a197f39160448082019260009290919082900301818387803b15801561100c57600080fd5b505af1158015611020573d6000803e3d6000fd5b505050505b61103385826040015161311e565b602081015160608301526101008101516040820151825161106b929161105f919063ffffffff612a3d16565b9063ffffffff612a3d16565b608080840182905260608085015160408086015186840151825193845260208401969096528282015291810193909352517f4152c73dd2614c4f9fc35e8c9cf16013cd588c75b49a4c1673ecffdcbcda94039281900390910190a16110da853383606001518460400151613265565b505050505050565b600c5481565b6009546001600160a01b031681565b6001600160a01b0381166000908152600e602052604081206003015460ff166002811115610cdd57fe5b6064670de0b6b3a76400005b0460050281565b6103e8670de0b6b3a764000061112d565b6000611152600c54613368565b905090565b6802b5e3af16b188000081565b61116d8161339e565b60408051600180825281830190925260609160208083019080368337019050509050818160008151811061119d57fe5b60200260200101906001600160a01b031690816001600160a01b0316815250506111c681610d40565b5050565b6001546001600160a01b031681565b6000610cdd6111e6611782565b83613406565b6001600160a01b03166000908152600e602052604090206001015490565b60c881565b60155490565b6000610cdd82612bcf565b6714d1120d7b16000081565b6112346128d0565b80600281111561124057fe5b6001600160a01b0383166000908152600e60205260409020600301805460ff1916600183600281111561126f57fe5b02179055505050565b6001600160a01b03811660009081526014602052604081205460125482906112a6908363ffffffff612a3d16565b90508015806112df575060016001600160a01b0385166000908152600e602052604090206003015460ff1660028111156112dc57fe5b14155b156112ef57600092505050610d02565b6001600160a01b0384166000908152600e602052604081206002015490611334670de0b6b3a7640000611328848663ffffffff61342416565b9063ffffffff61347d16565b9695505050505050565b6113466128d0565b60006113506134bf565b9050670de0b6b3a764000081111561136457fe5b600c8190556040805182815290517fc454ee9b76c52f782a256af821b857ca6e125d1e3333bcede402fec2bed9600c9181900360200190a1610c88613503565b603c81565b6000610cdd6111e66128b2565b6001600160a01b03166000908152600e602052604090206002015490565b6113dc6154ff565b506040805160e081018252600080546001600160a01b0390811683526001548116602084015292820181905260608201819052600b548316608083015260a0820181905260c0820152600554909116611433615482565b61143b6154b3565b600260009054906101000a90046001600160a01b03166001600160a01b0316630fdb11cf6040518163ffffffff1660e01b8152600401602060405180830381600087803b15801561148b57600080fd5b505af115801561149f573d6000803e3d6000fd5b505050506040513d60208110156114b557600080fd5b50518252604080516326fcbc6b60e21b815290516001600160a01b03851691639bf2f1ac916004808301926020929190829003018186803b1580156114f957600080fd5b505afa15801561150d573d6000803e3d6000fd5b505050506040513d602081101561152357600080fd5b50516020830152815161153590612bcf565b158015604084015261155c5761155584836000015184602001518861355f565b905061157c565b6115798460000151856020015184600001518560200151896138f2565b90505b60008160200151116115bf5760405162461bcd60e51b815260040180806020018281038252602281526020018061587e6022913960400191505060405180910390fd5b826001600160a01b031663335525ad82608001518360a001516040518363ffffffff1660e01b81526004018083815260200182815260200192505050600060405180830381600087803b15801561161557600080fd5b505af1158015611629573d6000803e3d6000fd5b50505050611649846000015185602001518360c001518460e00151612e9d565b610100810151156116ca578351600754610100830151604080516364a197f360e01b81526001600160a01b03938416600482015260248101929092525191909216916364a197f391604480830192600092919082900301818387803b1580156116b157600080fd5b505af11580156116c5573d6000803e3d6000fd5b505050505b6116dc8460000151826040015161311e565b6020810151606083015261010081015160408201518251611708929161105f919063ffffffff612a3d16565b608080840182905260608085015160408086015186840151825193845260208401969096528282015291810193909352517f4152c73dd2614c4f9fc35e8c9cf16013cd588c75b49a4c1673ecffdcbcda94039281900390910190a161177b84600001513383606001518460400151613265565b5050505050565b600061115261178f6134bf565b613a24565b600e6020526000908152604090208054600182015460028301546003909301549192909160ff81169061010090046001600160801b031685565b60006117d86128d0565b6001600160a01b0383166000908152600e6020526040812060010154611804908463ffffffff613a4b16565b6001600160a01b0385166000908152600e6020526040902060010181905591505092915050565b670de0b6b3a764000081565b6002546001600160a01b031681565b6015818154811061185357fe5b6000918252602090912001546001600160a01b0316905081565b670f43fc2c04ee000081565b6000805460408051632f5a97e560e11b8152905183926001600160a01b031691635eb52fca916004808301926020929190829003018186803b1580156118be57600080fd5b505afa1580156118d2573d6000803e3d6000fd5b505050506040513d60208110156118e857600080fd5b505160015460408051632f5a97e560e11b815290519293506000926001600160a01b0390921691635eb52fca91600480820192602092909190829003018186803b15801561193557600080fd5b505afa158015611949573d6000803e3d6000fd5b505050506040513d602081101561195f57600080fd5b50519050611973828263ffffffff613a4b16565b9250505090565b60165481565b611988611e6a565b6119d9576040805162461bcd60e51b815260206004820181905260248201527f4f776e61626c653a2063616c6c6572206973206e6f7420746865206f776e6572604482015290519081900360640190fd5b6119e28b613aa5565b6119eb8a613aa5565b6119f489613aa5565b6119fd88613aa5565b611a0687613aa5565b611a0f86613aa5565b611a1885613aa5565b611a2184613aa5565b611a2a83613aa5565b611a3382613aa5565b611a3c81613aa5565b600480546001600160a01b03199081166001600160a01b038e81169182179093556000805483168e85161790556001805483168d85161790556005805483168c85161790556006805483168b85161790556007805483168a8516179055600280548316898516179055600880548316888516179055600b80548316878516179055600980548316868516179055600a805490921692841692909217905560408051918252517f3ca631ffcd2a9b5d9ae18543fc82f58eb4ca33af9e6ab01b7a8e95331e6ed985916020908290030190a1604080516001600160a01b038c16815290517f78f058b189175430c48dc02699e3a0031ea4ff781536dc2fab847de4babdd8829181900360200190a1604080516001600160a01b038b16815290517f5ee0cae2f063ed938bb55046f6a932fb6ae792bf43624806bb90abe68a50be9b9181900360200190a1604080516001600160a01b038a16815290517f82966d27eea39b038ee0fa30cd16532bb24f6e65d31cb58fb227aa5766cdcc7f9181900360200190a1604080516001600160a01b038916815290517fcfb07d791fcafc032b35837b50eb84b74df518cf4cc287e8084f47630fa70fa09181900360200190a1604080516001600160a01b038816815290517fe67f36a6e961157d6eff83b91f3af5a62131ceb6f04954ef74f51c1c05e7f88d9181900360200190a1604080516001600160a01b038716815290517f8c537274438aa850a330284665d81a85dd38267d09e4050d416bfc94142db2649181900360200190a1604080516001600160a01b038616815290517f227eec0ec317af6ab1a9587ffa1c84332522eb4c583a908f89babc05f8f339bd9181900360200190a1604080516001600160a01b038516815290517f65f4cf077bc01e4742eb5ad98326f6e95b63548ea24b17f8d5e823111fe788009181900360200190a1604080516001600160a01b038416815290517f2ac6e99201ddc1b6eac6f8f28662d1ecafee131f6eb98c29de54528a9888a7d19181900360200190a1604080516001600160a01b038316815290517f756ebc192164c295bba134b5aacd72cc7aff8098a670d1f0a5f6b3a0b4ce67079181900360200190a1611d6c613b54565b5050505050505050505050565b6000546001600160a01b031681565b60105481565b611d966128d0565b610c8881613b9e565b6000805460408051630a7b61df60e11b8152905183926001600160a01b0316916314f6c3be916004808301926020929190829003018186803b158015611de457600080fd5b505afa158015611df8573d6000803e3d6000fd5b505050506040513d6020811015611e0e57600080fd5b505160015460408051630a7b61df60e11b815290519293506000926001600160a01b03909216916314f6c3be91600480820192602092909190829003018186803b15801561193557600080fd5b6003546001600160a01b031690565b6003546001600160a01b0316331490565b60115481565b6000611e8b6128d0565b6001600160a01b0383166000908152600e6020526040812054610cbe908463ffffffff613a4b16565b60125481565b600a546001600160a01b031681565b600b546001600160a01b031681565b6000806000611ee684613c09565b915091506000611ef68383613c8f565b95945050505050565b6004546001600160a01b031681565b6000610cdd82613cc4565b6008546001600160a01b031681565b6001600160a01b0381166000908152600e602052604081208054600190910154909180611f5485612881565b9150611f5f85611278565b9050611f71848363ffffffff613a4b16565b9350611f83838263ffffffff613a4b16565b92509193509193565b611f946154ff565b506040805160e0810182526000546001600160a01b03908116825260015481166020830152600854811692820192909252600a5482166060820152600b5482166080820152600754821660a082015260065490911660c0820152611ff661553b565b611fff83613cf0565b612007613d4a565b600260009054906101000a90046001600160a01b03166001600160a01b0316630fdb11cf6040518163ffffffff1660e01b8152600401602060405180830381600087803b15801561205757600080fd5b505af115801561206b573d6000803e3d6000fd5b505050506040513d602081101561208157600080fd5b505160c0820181905261209390613e0e565b61209c89613e5d565b6120ab8260400151338b613e9c565b6120b3611879565b60e0820181905260408084015181516370a0823160e01b815233600482015291516001600160a01b03909116916370a08231916024808301926020929190829003018186803b15801561210557600080fd5b505afa158015612119573d6000803e3d6000fd5b505050506040513d602081101561212f57600080fd5b5051111561213957fe5b888152608082015160c0820151600091612154918b90613f5c565b1561216057508761228a565b82608001516001600160a01b0316634d6228316040518163ffffffff1660e01b815260040160206040518083038186803b15801561219d57600080fd5b505afa1580156121b1573d6000803e3d6000fd5b505050506040513d60208110156121c757600080fd5b505190505b6001600160a01b038116158015906121f85750670f43fc2c04ee00006121f6828460c0015161276a565b105b1561228a5782608001516001600160a01b031663b72703ac826040518263ffffffff1660e01b815260040180826001600160a01b03166001600160a01b0316815260200191505060206040518083038186803b15801561225757600080fd5b505afa15801561226b573d6000803e3d6000fd5b505050506040513d602081101561228157600080fd5b505190506121cc565b846122955760001994505b6001600160a01b038116158015906122ad5750815115155b80156122b95750600085115b156123ed57848060019003955050600083608001516001600160a01b031663b72703ac836040518263ffffffff1660e01b815260040180826001600160a01b03166001600160a01b0316815260200191505060206040518083038186803b15801561232357600080fd5b505afa158015612337573d6000803e3d6000fd5b505050506040513d602081101561234d57600080fd5b505184516020860151919250612363918461291b565b61236b615580565b612382858486600001518760c001518e8e8e6140cf565b90508060400151156123955750506123ed565b805160208501516123ab9163ffffffff613a4b16565b60208086019190915281015160408501516123cb9163ffffffff613a4b16565b6040850152805184516123e39163ffffffff612a3d16565b8452509050612295565b60008260400151116124305760405162461bcd60e51b815260040180806020018281038252602981526020018061562d6029913960400191505060405180910390fd5b61244782604001518360c001518460e00151614380565b506124558260400151614428565b60608301819052604083015161246c919086614435565b82600001516001600160a01b03166364a197f3846060015184606001516040518363ffffffff1660e01b815260040180836001600160a01b03166001600160a01b0316815260200182815260200192505050600060405180830381600087803b1580156124d857600080fd5b505af11580156124ec573d6000803e3d6000fd5b5050505082606001516001600160a01b0316631e3e2a1a83606001516040518263ffffffff1660e01b815260040180828152602001915050600060405180830381600087803b15801561253e57600080fd5b505af1158015612552573d6000803e3d6000fd5b505050506060820151604083015161256991612a3d565b8260800181815250507f43a3f4082a4dbc33d78e317d2497d3a730bc7fc3574159dcea1056e62e5d9ad88a8360200151846040015185606001516040518085815260200184815260200183815260200182815260200194505050505060405180910390a182604001516001600160a01b0316639dc29fac3384602001516040518363ffffffff1660e01b815260040180836001600160a01b03166001600160a01b0316815260200182815260200192505050600060405180830381600087803b15801561263557600080fd5b505af1158015612649573d6000803e3d6000fd5b5050505082600001516001600160a01b03166338d995a883602001516040518263ffffffff1660e01b815260040180828152602001915050600060405180830381600087803b15801561269b57600080fd5b505af11580156126af573d6000803e3d6000fd5b505084516080850151604080516364a197f360e01b81523360048201526024810192909252516001600160a01b0390921693506364a197f3925060448082019260009290919082900301818387803b15801561270a57600080fd5b505af115801561271e573d6000803e3d6000fd5b5050505050505050505050505050565b600f5481565b6212750081565b60006111526127486134bf565b613368565b670ddd4b8c6c7d70d881565b6127616128d0565b610c88816144aa565b600080600061277885613c09565b915091506000611334838387614564565b600d5481565b60006127996128d0565b6001600160a01b0383166000908152600e6020526040812060010154611804908463ffffffff612a3d16565b6000610cdd6127d261273b565b83614594565b6001600160a01b03166000908152600e602052604090205490565b60006015828154811061280257fe5b6000918252602090912001546001600160a01b031692915050565b60135481565b600060016001600160a01b0383166000908152600e602052604090206003015460ff16600281111561285157fe5b1461285e57506000610d02565b506012546001600160a01b03821660009081526014602052604090205410919050565b6001600160a01b03811660009081526014602052604081206001015460135482906112a6908363ffffffff612a3d16565b6000611152600c54613a24565b6128c76128d0565b610c88816145f3565b6004546001600160a01b031633146129195760405162461bcd60e51b815260040180806020018281038252603b81526020018061574f603b913960400191505060405180910390fd5b565b61292481612823565b15612a38576129328161339e565b600061293d82611278565b9050600061294a83612881565b6001600160a01b0384166000908152600e6020526040902060010154909150612979908363ffffffff613a4b16565b6001600160a01b0384166000908152600e602052604090206001810191909155546129aa908263ffffffff613a4b16565b6001600160a01b0384166000908152600e60205260409020556129cc83613b9e565b6129d885858385614643565b6001600160a01b0383166000818152600e6020908152604080832080546001820154600290920154835191825293810191909152808201929092526060820192909252905160008051602061572f8339815191529181900360800190a250505b505050565b6000612a7f83836040518060400160405280601e81526020017f536166654d6174683a207375627472616374696f6e206f766572666c6f770000815250614745565b9392505050565b601580546001808201835560008381527f55f448fdea98c4d29eb340757ef0a66cd03dbb9538908a6a81d96026b71ec47590920180546001600160a01b0319166001600160a01b03861617905591549091612ae19190612a3d565b6001600160a01b03929092166000908152600e602052604090206003018054610100600160881b0319166101006001600160801b038516021790555090565b6001600160a01b0381166000908152600e60205260408120600101548190612b47906147dc565b6001600160a01b0384166000908152600e60205260409020600201805490829055600f5491925090612b91908390612b85908463ffffffff612a3d16565b9063ffffffff613a4b16565b600f81905560408051918252517f6bac5e0eb3c44eb03a60ab11ec3a2c051771616aecadbcfff2630aabae5203829181900360200190a15092915050565b600080612bdb83613cc4565b6714d1120d7b160000119392505050565b612bf46154b3565b612bfc6155a3565b612c046154b3565b84825260006080830152612c16611879565b60a0830152612c23611d9f565b60c0830152600060208301525b835182602001511015612dca5783826020015181518110612c4d57fe5b60209081029190910101516001600160a01b031660608301819052612c72908761276a565b60408301526080820151612d5c57670f43fc2c04ee0000826040015110158015612c9b57508151155b15612ca557612dba565b6000612cba8360c001518460a0015189614564565b9050612cd78989856060015186604001518760000151868d614818565b60808101518451919350612cf1919063ffffffff612a3d16565b8352608082015160a0840151612d0c9163ffffffff612a3d16565b60a08085019190915282015160c0840151612d2c9163ffffffff612a3d16565b60c0840152612d3b8483614b45565b9350612d508360c001518460a0015189614c5c565b15608084015250612dba565b81608001518015612d785750670f43fc2c04ee00008260400151105b15612dba57612d91888884606001518560000151614c7d565b60808101518351919250612dab919063ffffffff612a3d16565b8252612db78382614b45565b92505b6020820180516001019052612c30565b505095945050505050565b612ddd6154b3565b612de56155a3565b612ded6154b3565b848252600060208301525b835182602001511015612dca5783826020015181518110612e1557fe5b60209081029190910101516001600160a01b031660608301819052612e3a908761276a565b60408301819052670f43fc2c04ee00001115612e8d57612e64888884606001518560000151614c7d565b60808101518351919250612e7e919063ffffffff612a3d16565b8252612e8a8382614b45565b92505b6020820180516001019052612df8565b81612ea757613118565b601654600090612ec990612b8584670de0b6b3a764000063ffffffff61342416565b90506000612eee601754612b85670de0b6b3a76400008761342490919063ffffffff16565b90506000612f07600f548461347d90919063ffffffff16565b90506000612f20600f548461347d90919063ffffffff16565b9050612f47612f3a600f548461342490919063ffffffff16565b859063ffffffff612a3d16565b601655600f54612f6f90612f6290839063ffffffff61342416565b849063ffffffff612a3d16565b601755601254612f85908363ffffffff613a4b16565b601255601354612f9b908263ffffffff613a4b16565b601381905560125460408051918252602082019290925281517f9f8bc8ab0daf5bceef75ecfd2085d1fcc6548c657ea970d9a23a60610d0737e3929181900390910190a1876001600160a01b03166338d995a8876040518263ffffffff1660e01b815260040180828152602001915050600060405180830381600087803b15801561302557600080fd5b505af1158015613039573d6000803e3d6000fd5b50505050866001600160a01b031663cfb9329a876040518263ffffffff1660e01b815260040180828152602001915050600060405180830381600087803b15801561308357600080fd5b505af1158015613097573d6000803e3d6000fd5b50505050876001600160a01b03166364a197f388876040518363ffffffff1660e01b815260040180836001600160a01b03166001600160a01b0316815260200182815260200192505050600060405180830381600087803b1580156130fb57600080fd5b505af115801561310f573d6000803e3d6000fd5b50505050505050505b50505050565b600f546010819055506000826001600160a01b03166314f6c3be6040518163ffffffff1660e01b815260040160206040518083038186803b15801561316257600080fd5b505afa158015613176573d6000803e3d6000fd5b505050506040513d602081101561318c57600080fd5b505160015460408051630a7b61df60e11b815290519293506000926001600160a01b03909216916314f6c3be91600480820192602092909190829003018186803b1580156131d957600080fd5b505afa1580156131ed573d6000803e3d6000fd5b505050506040513d602081101561320357600080fd5b5051905061321b81612b85848663ffffffff612a3d16565b601181905560105460408051918252602082019290925281517f51bf4c63ec3cba9d03d43238abbdd979dd91bd16d9895c74ceea9118c7baaf60929181900390910190a150505050565b81156132e45760085460065460408051631062c15f60e11b81526001600160a01b039283166004820152868316602482015260448101869052905191909216916320c582be91606480830192600092919082900301818387803b1580156132cb57600080fd5b505af11580156132df573d6000803e3d6000fd5b505050505b801561311857836001600160a01b03166364a197f384836040518363ffffffff1660e01b815260040180836001600160a01b03166001600160a01b0316815260200182815260200192505050600060405180830381600087803b15801561334a57600080fd5b505af115801561335e573d6000803e3d6000fd5b5050505050505050565b6000610cdd613390836103e8670de0b6b3a76400005b04600502613a4b90919063ffffffff16565b670de0b6b3a7640000614dea565b60016001600160a01b0382166000908152600e602052604090206003015460ff1660028111156133ca57fe5b14610c885760405162461bcd60e51b815260040180806020018281038252602f8152602001806158a0602f913960400191505060405180910390fd5b6000612a7f670de0b6b3a7640000611328858563ffffffff61342416565b60008261343357506000610cdd565b8282028284828161344057fe5b0414612a7f5760405162461bcd60e51b81526004018080602001828103825260218152602001806156c06021913960400191505060405180910390fd5b6000612a7f83836040518060400160405280601a81526020017f536166654d6174683a206469766973696f6e206279207a65726f000000000000815250614e00565b6000806134ca614e65565b905060006134e0670ddd4b8c6c7d70d883614e81565b9050611973670de0b6b3a764000061132883600c5461342490919063ffffffff16565b600061351a600d5442612a3d90919063ffffffff16565b9050603c8110610c885742600d81905560408051918252517f860f8d2f0c74dd487e89e2883e3b25b8159ce1e1b3433a291cba7b82c508f3bc9181900360200190a150565b6135676154b3565b61356f6155a3565b6135776154b3565b84825260006080830152613589611879565b60a0830152613596611d9f565b8260c001818152505086608001516001600160a01b0316634d6228316040518163ffffffff1660e01b815260040160206040518083038186803b1580156135dc57600080fd5b505afa1580156135f0573d6000803e3d6000fd5b505050506040513d602081101561360657600080fd5b50516001600160a01b039081166060840152608088015160408051631e22314360e01b815290516000939290921691631e22314391600480820192602092909190829003018186803b15801561365b57600080fd5b505afa15801561366f573d6000803e3d6000fd5b505050506040513d602081101561368557600080fd5b50516000602085015290505b8483602001511080156136ba5750806001600160a01b031683606001516001600160a01b031614155b156138e757600088608001516001600160a01b031663b72703ac85606001516040518263ffffffff1660e01b815260040180826001600160a01b03166001600160a01b0316815260200191505060206040518083038186803b15801561371f57600080fd5b505afa158015613733573d6000803e3d6000fd5b505050506040513d602081101561374957600080fd5b5051606085015190915061375d908961276a565b6040850152608084015161385957670f43fc2c04ee000084604001511015801561378657508351155b1561379157506138e7565b60006137a68560c001518660a001518b614564565b8a5160208c01516060880151604089015189519495506137c794868f614818565b608081015186519195506137e1919063ffffffff612a3d16565b8552608084015160a08601516137fc9163ffffffff612a3d16565b8560a001818152505061382984610100015161105f8660a001518860c00151612a3d90919063ffffffff16565b60c08601526138388685614b45565b955061384d8560c001518660a001518b614c5c565b156080860152506138c9565b836080015180156138755750670f43fc2c04ee00008460400151105b156138c35761389689600001518a6020015186606001518760000151614c7d565b608081015185519194506138b0919063ffffffff612a3d16565b84526138bc8584614b45565b94506138c9565b506138e7565b6001600160a01b031660608401526020830180516001019052613691565b505050949350505050565b6138fa6154b3565b6139026155a3565b61390a6154b3565b600b54858352600060208401526001600160a01b03165b8483602001511015613a1857806001600160a01b0316634d6228316040518163ffffffff1660e01b815260040160206040518083038186803b15801561396657600080fd5b505afa15801561397a573d6000803e3d6000fd5b505050506040513d602081101561399057600080fd5b50516001600160a01b0316606084018190526139ac908861276a565b60408401819052670f43fc2c04ee00001115613a03576139d6898985606001518660000151614c7d565b608081015184519193506139f0919063ffffffff612a3d16565b83526139fc8483614b45565b9350613a08565b613a18565b6020830180516001019052613921565b50505095945050505050565b6000610cdd613a3e836103e8670de0b6b3a764000061337e565b66b1a2bc2ec50000614dea565b600082820183811015612a7f576040805162461bcd60e51b815260206004820152601b60248201527f536166654d6174683a206164646974696f6e206f766572666c6f770000000000604482015290519081900360640190fd5b6001600160a01b038116613b00576040805162461bcd60e51b815260206004820152601e60248201527f4163636f756e742063616e6e6f74206265207a65726f20616464726573730000604482015290519081900360640190fd5b803b806111c6576040805162461bcd60e51b815260206004820181905260248201527f4163636f756e7420636f64652073697a652063616e6e6f74206265207a65726f604482015290519081900360640190fd5b6003546040516000916001600160a01b0316907f8be0079c531659141344cd1fd0a4f28419497f9722a3daafe3b4186f6b6457e0908390a3600380546001600160a01b0319169055565b601280546001600160a01b0383166000908152601460209081526040918290209283556013546001909301839055925481519081529283019190915280517fc437f324d85e369394148dd9d62f98f534b382e01ed3dd2eb98138fb6d3ab49a9281900390910190a150565b6000806000613c1784611278565b90506000613c2485612881565b6001600160a01b0386166000908152600e602052604081206001015491925090613c54908463ffffffff613a4b16565b6001600160a01b0387166000908152600e602052604081205491925090613c81908463ffffffff613a4b16565b919550909350505050915091565b60008115613cbb57613cb4826113288568056bc75e2d6310000063ffffffff61342416565b9050610cdd565b50600019610cdd565b600080613ccf611d9f565b90506000613cdb611879565b9050613ce8828286614564565b949350505050565b6611c37937e080008110801590613d0f5750670de0b6b3a76400008111155b610c885760405162461bcd60e51b81526004018080602001828103825260308152602001806158246030913960400191505060405180910390fd5b60095460408051631e425be160e11b815290516000926001600160a01b031691633c84b7c2916004808301926020929190829003018186803b158015613d8f57600080fd5b505afa158015613da3573d6000803e3d6000fd5b505050506040513d6020811015613db957600080fd5b50519050613dd0816212750063ffffffff613a4b16565b421015610c885760405162461bcd60e51b81526004018080602001828103825260408152602001806156806040913960400191505060405180910390fd5b670f43fc2c04ee0000613e2082613cc4565b1015610c885760405162461bcd60e51b815260040180806020018281038252602a815260200180615854602a913960400191505060405180910390fd5b60008111610c885760405162461bcd60e51b815260040180806020018281038252602e8152602001806157c0602e913960400191505060405180910390fd5b80836001600160a01b03166370a08231846040518263ffffffff1660e01b815260040180826001600160a01b03166001600160a01b0316815260200191505060206040518083038186803b158015613ef357600080fd5b505afa158015613f07573d6000803e3d6000fd5b505050506040513d6020811015613f1d57600080fd5b50511015612a385760405162461bcd60e51b815260040180806020018281038252604e8152602001806156e1604e913960600191505060405180910390fd5b60006001600160a01b0383161580613ff35750836001600160a01b0316635dbe47e8846040518263ffffffff1660e01b815260040180826001600160a01b03166001600160a01b0316815260200191505060206040518083038186803b158015613fc557600080fd5b505afa158015613fd9573d6000803e3d6000fd5b505050506040513d6020811015613fef57600080fd5b5051155b8061400e5750670f43fc2c04ee000061400c848461276a565b105b1561401b57506000612a7f565b6000846001600160a01b031663765e0159856040518263ffffffff1660e01b815260040180826001600160a01b03166001600160a01b0316815260200191505060206040518083038186803b15801561407357600080fd5b505afa158015614087573d6000803e3d6000fd5b505050506040513d602081101561409d57600080fd5b505190506001600160a01b0381161580611ef65750670f43fc2c04ee00006140c5828561276a565b1095945050505050565b6140d7615580565b6001600160a01b0387166000908152600e602052604090205461411490879061410f906802b5e3af16b188000063ffffffff612a3d16565b614dea565b80825261413590869061132890670de0b6b3a764000063ffffffff61342416565b60208083019190915281516001600160a01b0389166000908152600e90925260408220546141689163ffffffff612a3d16565b6020808401516001600160a01b038b166000908152600e9092526040822060010154929350909161419e9163ffffffff612a3d16565b90506802b5e3af16b1880000821415614235576141ba896145f3565b6141c3896144aa565b6141d88a8a6802b5e3af16b188000084614f2c565b886001600160a01b031660008051602061572f833981519152600080600060036040518085815260200184815260200183815260200182600381111561421a57fe5b60ff16815260200194505050505060405180910390a2614372565b60006142418284613c8f565b9050848114158061426257506869b5afac750bb80000614260846150e1565b105b156142765750506001604083015250614375565b60808b01516040805163015f109360e51b81526001600160a01b038d81166004830152602482018590528a81166044830152898116606483015291519190921691632be2126091608480830192600092919082900301818387803b1580156142dd57600080fd5b505af11580156142f1573d6000803e3d6000fd5b5050506001600160a01b038b166000908152600e602052604090208481556001018390555061431f8a612b20565b506001600160a01b038a166000818152600e60209081526040918290206002015482518781529182018690528183015260036060820152905160008051602061572f8339815191529181900360800190a2505b50505b979650505050505050565b60008061438b6134bf565b905060006143a384611328888863ffffffff61342416565b905060006143c86143bb83600263ffffffff61347d16565b849063ffffffff613a4b16565b90506143dc81670de0b6b3a7640000614dea565b9050600081116143e857fe5b600c8190556040805182815290517fc454ee9b76c52f782a256af821b857ca6e125d1e3333bcede402fec2bed9600c9181900360200190a1611334613503565b6000610cdd6127d2611145565b60006144538361132886670de0b6b3a764000063ffffffff61342416565b905081811115613118576040805162461bcd60e51b815260206004820152601d60248201527f4665652065786365656465642070726f7669646564206d6178696d756d000000604482015290519081900360640190fd5b6015546144b6816150fc565b6001600160a01b0382166000908152600e6020908152604080832060038101805460ff1916600217905560018082018590559084905560149092528220828155015561450282826151b5565b600b5460408051631484968760e11b81526001600160a01b038581166004830152915191909216916329092d0e91602480830192600092919082900301818387803b15801561455057600080fd5b505af11580156110da573d6000803e3d6000fd5b6000821561458b57600061458284611328878663ffffffff61342416565b9150612a7f9050565b50600019612a7f565b6000806145b3670de0b6b3a7640000611328868663ffffffff61342416565b9050828110612a7f5760405162461bcd60e51b81526004018080602001828103825260368152602001806157ee6036913960400191505060405180910390fd5b6001600160a01b0381166000908152600e6020526040902060020154600f54614622908263ffffffff612a3d16565b600f55506001600160a01b03166000908152600e6020526040812060020155565b826001600160a01b03166338d995a8836040518263ffffffff1660e01b815260040180828152602001915050600060405180830381600087803b15801561468957600080fd5b505af115801561469d573d6000803e3d6000fd5b50505050836001600160a01b031663cfb9329a836040518263ffffffff1660e01b815260040180828152602001915050600060405180830381600087803b1580156146e757600080fd5b505af11580156146fb573d6000803e3d6000fd5b50505050826001600160a01b031663be41205f826040518263ffffffff1660e01b815260040180828152602001915050600060405180830381600087803b15801561334a57600080fd5b600081848411156147d45760405162461bcd60e51b81526004018080602001828103825283818151815260200191508051906020019080838360005b83811015614799578181015183820152602001614781565b50505050905090810190601f1680156147c65780820380516001836020036101000a031916815260200191505b509250505060405180910390fd5b505050900390565b600080601154600014156147f1575081610cdd565b6000601054116147fd57fe5b612a7f6011546113286010548661342490919063ffffffff16565b6148206154b3565b6148286155eb565b6015546001106148385750614375565b61484187611f28565b6040850152602084810191909152840181905290835261486090615342565b604083018190526802b5e3af16b18800006060840152602083015161488a9163ffffffff612a3d16565b8152670de0b6b3a76400008611614990576148af898983602001518460400151614643565b6148b8876145f3565b60006080830181905260a0830152815160c0830152805160e08301526148dd876144aa565b866001600160a01b031660008051602061560d8339815191528360000151846020015160026040518084815260200183815260200182600381111561491e57fe5b60ff168152602001935050505060405180910390a2866001600160a01b031660008051602061572f833981519152600080600060026040518085815260200184815260200183815260200182600381111561497557fe5b60ff16815260200194505050505060405180910390a2614b39565b670de0b6b3a7640000861180156149ae5750670f43fc2c04ee000086105b156149fc576149c7898983602001518460400151614643565b6149d0876145f3565b815181516149df919087615349565b60e086015260c085015260a084015260808301526148dd876144aa565b670f43fc2c04ee00008610158015614a1357508386105b8015614a20575081518510155b15614b2857614a39898983602001518460400151614643565b84614a4057fe5b614a49876145f3565b614a5c82600001518360200151856153b5565b9150614a67876144aa565b61010082015115614ae75760075461010083015160408051633f10abab60e01b81526001600160a01b038b81166004830152602482019390935290519190921691633f10abab91604480830192600092919082900301818387803b158015614ace57600080fd5b505af1158015614ae2573d6000803e3d6000fd5b505050505b866001600160a01b031660008051602061560d83398151915283600001518460a0015160026040518084815260200183815260200182600381111561491e57fe5b614b306154b3565b91506143759050565b50979650505050505050565b614b4d6154b3565b60408083015190840151614b669163ffffffff613a4b16565b604082015260608083015190840151614b849163ffffffff613a4b16565b606082015281516020840151614b9f9163ffffffff613a4b16565b6020808301919091528201518351614bbc9163ffffffff613a4b16565b815260808083015190840151614bd79163ffffffff613a4b16565b608082015260a08083015190840151614bf59163ffffffff613a4b16565b60a082015260c08083015190840151614c139163ffffffff613a4b16565b60c082015260e08083015190840151614c319163ffffffff613a4b16565b60e08201526101008083015190840151614c509163ffffffff613a4b16565b61010082015292915050565b600080614c6a858585614564565b6714d1120d7b1600001195945050505050565b614c856154b3565b614c8d6155eb565b614c9684611f28565b60408501908152602085810192835286019290925291845290519051614cc0918891889190614643565b614cc9846145f3565b614cd68260200151615342565b604083018190526802b5e3af16b188000060608401526020830151600091614d04919063ffffffff612a3d16565b9050614d1583600001518286615349565b60e087015260c086015260a08501526080840152614d32856144aa565b846001600160a01b031660008051602061560d83398151915284600001518560200151600160405180848152602001838152602001826003811115614d7357fe5b60ff168152602001935050505060405180910390a2846001600160a01b031660008051602061572f8339815191526000806000600160405180858152602001848152602001838152602001826003811115614dca57fe5b60ff16815260200194505050505060405180910390a25050949350505050565b6000818310614df95781612a7f565b5090919050565b60008183614e4f5760405162461bcd60e51b8152602060048201818152835160248401528351909283926044909101919085019080838360008315614799578181015183820152602001614781565b506000838581614e5b57fe5b0495945050505050565b6000611152603c611328600d5442612a3d90919063ffffffff16565b6000631f540500821115614e9757631f54050091505b81614eab5750670de0b6b3a7640000610cdd565b670de0b6b3a764000083835b6001811115614f225760028106614eec57614ed2828361544f565b9150614ee581600263ffffffff61347d16565b9050614f1d565b614ef6828461544f565b9250614f02828361544f565b9150614f1a600261132883600163ffffffff612a3d16565b90505b614eb7565b611334828461544f565b6040808501516006548251632770a7eb60e21b81526001600160a01b039182166004820152602481018690529251911691639dc29fac91604480830192600092919082900301818387803b158015614f8357600080fd5b505af1158015614f97573d6000803e3d6000fd5b5050505083600001516001600160a01b03166338d995a8836040518263ffffffff1660e01b815260040180828152602001915050600060405180830381600087803b158015614fe557600080fd5b505af1158015614ff9573d6000803e3d6000fd5b505050508360a001516001600160a01b0316633f10abab84836040518363ffffffff1660e01b815260040180836001600160a01b03166001600160a01b0316815260200182815260200192505050600060405180830381600087803b15801561506157600080fd5b505af1158015615075573d6000803e3d6000fd5b5050505083600001516001600160a01b03166364a197f38560a00151836040518363ffffffff1660e01b815260040180836001600160a01b03166001600160a01b0316815260200182815260200192505050600060405180830381600087803b15801561334a57600080fd5b6000610cdd826802b5e3af16b188000063ffffffff612a3d16565b60018111801561517a5750600b546040805163de8fa43160e01b815290516001926001600160a01b03169163de8fa431916004808301926020929190829003018186803b15801561514c57600080fd5b505afa158015615160573d6000803e3d6000fd5b505050506040513d602081101561517657600080fd5b5051115b610c885760405162461bcd60e51b815260040180806020018281038252602a815260200180615656602a913960400191505060405180910390fd5b60026001600160a01b0383166000908152600e602052604090206003015460ff1660028111156151e157fe5b146151e857fe5b6001600160a01b0382166000908152600e602052604081206003015461010090046001600160801b0316908290615220826001612a3d565b905080836001600160801b0316111561523557fe5b60006015828154811061524457fe5b600091825260209091200154601580546001600160a01b03909216925082916001600160801b03871690811061527657fe5b600091825260208083209190910180546001600160a01b0319166001600160a01b03948516179055918316808252600e83526040918290206003018054610100600160881b0319166101006001600160801b038a169081029190911790915582519182529281019290925280517f02b04ae5f7be9ca7c103293a2aa15f3c339d15d6eda53b721fef7b0e609c831a9281900390910190a1601580548061531857fe5b600082815260209020810160001990810180546001600160a01b0319169055019055505050505050565b60c8900490565b6000808080841561539f5761535e8786614dea565b935061537487611328888763ffffffff61342416565b9250615386878563ffffffff612a3d16565b9150615398868463ffffffff612a3d16565b90506153ac565b5060009250829150859050845b93509350935093565b6153bd6154b3565b8381526020810183905260006153e58361132887670f43fc2c04ee000063ffffffff61342416565b90506153f081615342565b604083018190526802b5e3af16b188000060608401526080830186905261541e90829063ffffffff612a3d16565b60a0830152615433848263ffffffff612a3d16565b61010083015250600060c0820181905260e08201529392505050565b600080615462848463ffffffff61342416565b9050613ce8670de0b6b3a7640000611328836706f05b59d3b20000613a4b565b6040518060a00160405280600081526020016000815260200160001515815260200160008152602001600081525090565b6040518061012001604052806000815260200160008152602001600081526020016000815260200160008152602001600081526020016000815260200160008152602001600081525090565b6040805160e081018252600080825260208201819052918101829052606081018290526080810182905260a0810182905260c081019190915290565b60405180610100016040528060008152602001600081526020016000815260200160008152602001600081526020016000815260200160008152602001600081525090565b604051806060016040528060008152602001600081526020016000151581525090565b6040518060e0016040528060008152602001600081526020016000815260200160006001600160a01b0316815260200160001515815260200160008152602001600081525090565b6040518060600160405280600081526020016000815260200160008152509056feea67486ed7ebe3eea8ab3390efd4a3c8aae48be5bea27df104a8af786c40843454726f76654d616e616765723a20556e61626c6520746f2072656465656d20616e7920616d6f756e7454726f76654d616e616765723a204f6e6c79206f6e652074726f766520696e207468652073797374656d54726f76654d616e616765723a20526564656d7074696f6e7320617265206e6f7420616c6c6f77656420647572696e6720626f6f747374726170207068617365536166654d6174683a206d756c7469706c69636174696f6e206f766572666c6f7754726f76654d616e616765723a2052657175657374656420726564656d7074696f6e20616d6f756e74206d757374206265203c3d20757365722773204c55534420746f6b656e2062616c616e6365c3770d654ed33aeea6bf11ac8ef05d02a6a04ed4686dd2f624d853bbec43cc8b54726f76654d616e616765723a2043616c6c6572206973206e6f742074686520426f72726f7765724f7065726174696f6e7320636f6e747261637454726f76654d616e616765723a2043616c6c646174612061646472657373206172726179206d757374206e6f7420626520656d70747954726f76654d616e616765723a20416d6f756e74206d7573742062652067726561746572207468616e207a65726f54726f76654d616e616765723a2046656520776f756c642065617420757020616c6c2072657475726e656420636f6c6c61746572616c4d6178206665652070657263656e74616765206d757374206265206265747765656e20302e352520616e64203130302554726f76654d616e616765723a2043616e6e6f742072656465656d207768656e20544352203c204d435254726f76654d616e616765723a206e6f7468696e6720746f206c697175696461746554726f76654d616e616765723a2054726f766520646f6573206e6f74206578697374206f7220697320636c6f736564a2646970667358221220cc8ac16cc4d16e5f8859e8c8c739fd6822aa7df35cb30acf4d37bfb85d5dca9664736f6c634300060b0033",
  "linkReferences": {},
  "deployedLinkReferences": {}
}