{
  "_format": "hh-sol-artifact-1",
  "contractName": "TroveManager",
  "sourceName": "contracts/TroveManager.sol",
  "abi": [
    {
      "anonymous": false,
      "inputs": [
        {
          "indexed": false,
          "internalType": "address",
          "name": "_activePoolAddress",
          "type": "address"
        }
      ],
      "name": "ActivePoolAddressChanged",
      "type": "event"
    },
    {
      "anonymous": false,
      "inputs": [
        {
          "indexed": false,
          "internalType": "address",
          "name": "_newBorrowerOperationsAddress",
          "type": "address"
        }
      ],
      "name": "BorrowerOperationsAddressChanged",
      "type": "event"
    },
    {
      "anonymous": false,
      "inputs": [
        {
          "indexed": false,
          "internalType": "address",
          "name": "_collSurplusPoolAddress",
          "type": "address"
        }
      ],
      "name": "CollSurplusPoolAddressChanged",
      "type": "event"
    },
    {
      "anonymous": false,
      "inputs": [
        {
          "indexed": false,
          "internalType": "address",
          "name": "_defaultPoolAddress",
          "type": "address"
        }
      ],
      "name": "DefaultPoolAddressChanged",
      "type": "event"
    },
    {
      "anonymous": false,
      "inputs": [
        {
          "indexed": false,
          "internalType": "address",
          "name": "_gasPoolAddress",
          "type": "address"
        }
      ],
      "name": "GasPoolAddressChanged",
      "type": "event"
    },
    {
      "anonymous": false,
      "inputs": [
        {
          "indexed": false,
          "internalType": "address",
          "name": "_lqtyStakingAddress",
          "type": "address"
        }
      ],
      "name": "LQTYStakingAddressChanged",
      "type": "event"
    },
    {
      "anonymous": false,
      "inputs": [
        {
          "indexed": false,
          "internalType": "address",
          "name": "_newLUSDTokenAddress",
          "type": "address"
        }
      ],
      "name": "LUSDTokenAddressChanged",
      "type": "event"
    },
    {
      "anonymous": false,
      "inputs": [
        {
          "indexed": false,
          "internalType": "uint256",
          "name": "_liquidatedDebt",
          "type": "uint256"
        },
        {
          "indexed": false,
          "internalType": "uint256",
          "name": "_liquidatedColl",
          "type": "uint256"
        },
        {
          "indexed": false,
          "internalType": "uint256",
          "name": "_collGasCompensation",
          "type": "uint256"
        },
        {
          "indexed": false,
          "internalType": "uint256",
          "name": "_LUSDGasCompensation",
          "type": "uint256"
        }
      ],
      "name": "Liquidation",
      "type": "event"
    },
    {
      "anonymous": false,
      "inputs": [
        {
          "indexed": true,
          "internalType": "address",
          "name": "previousOwner",
          "type": "address"
        },
        {
          "indexed": true,
          "internalType": "address",
          "name": "newOwner",
          "type": "address"
        }
      ],
      "name": "OwnershipTransferred",
      "type": "event"
    },
    {
      "anonymous": false,
      "inputs": [
        {
          "indexed": false,
          "internalType": "address",
          "name": "_newPriceFeedAddress",
          "type": "address"
        }
      ],
      "name": "PriceFeedAddressChanged",
      "type": "event"
    },
    {
      "anonymous": false,
      "inputs": [
        {
          "indexed": false,
          "internalType": "uint256",
          "name": "_attemptedLUSDAmount",
          "type": "uint256"
        },
        {
          "indexed": false,
          "internalType": "uint256",
          "name": "_actualLUSDAmount",
          "type": "uint256"
        },
        {
          "indexed": false,
          "internalType": "uint256",
          "name": "_ETHSent",
          "type": "uint256"
        },
        {
          "indexed": false,
          "internalType": "uint256",
          "name": "_ETHFee",
          "type": "uint256"
        }
      ],
      "name": "Redemption",
      "type": "event"
    },
    {
      "anonymous": false,
      "inputs": [
        {
          "indexed": false,
          "internalType": "address",
          "name": "_sortedTrovesAddress",
          "type": "address"
        }
      ],
      "name": "SortedTrovesAddressChanged",
      "type": "event"
    },
    {
      "anonymous": false,
      "inputs": [
        {
          "indexed": false,
          "internalType": "address",
          "name": "_stabilityPoolAddress",
          "type": "address"
        }
      ],
      "name": "StabilityPoolAddressChanged",
      "type": "event"
    },
    {
      "anonymous": false,
      "inputs": [
        {
          "indexed": true,
          "internalType": "address",
          "name": "_borrower",
          "type": "address"
        },
        {
          "indexed": false,
          "internalType": "uint256",
          "name": "_arrayIndex",
          "type": "uint256"
        }
      ],
      "name": "TroveCreated",
      "type": "event"
    },
    {
      "anonymous": false,
      "inputs": [
        {
          "indexed": true,
          "internalType": "address",
          "name": "_borrower",
          "type": "address"
        },
        {
          "indexed": false,
          "internalType": "uint256",
          "name": "_debt",
          "type": "uint256"
        },
        {
          "indexed": false,
          "internalType": "uint256",
          "name": "_coll",
          "type": "uint256"
        },
        {
          "indexed": false,
          "internalType": "enum TroveManager.TroveManagerOperation",
          "name": "_operation",
          "type": "uint8"
        }
      ],
      "name": "TroveLiquidated",
      "type": "event"
    },
    {
      "anonymous": false,
      "inputs": [
        {
          "indexed": true,
          "internalType": "address",
          "name": "_borrower",
          "type": "address"
        },
        {
          "indexed": false,
          "internalType": "uint256",
          "name": "_debt",
          "type": "uint256"
        },
        {
          "indexed": false,
          "internalType": "uint256",
          "name": "_coll",
          "type": "uint256"
        },
        {
          "indexed": false,
          "internalType": "uint256",
          "name": "_stake",
          "type": "uint256"
        },
        {
          "indexed": false,
          "internalType": "enum TroveManager.TroveManagerOperation",
          "name": "_operation",
          "type": "uint8"
        }
      ],
      "name": "TroveUpdated",
      "type": "event"
    },
    {
      "inputs": [],
      "name": "BETA",
      "outputs": [
        {
          "internalType": "uint256",
          "name": "",
          "type": "uint256"
        }
      ],
      "stateMutability": "view",
      "type": "function"
    },
    {
      "inputs": [],
      "name": "CCR",
      "outputs": [
        {
          "internalType": "uint256",
          "name": "",
          "type": "uint256"
        }
      ],
      "stateMutability": "view",
      "type": "function"
    },
    {
      "inputs": [],
      "name": "DECIMAL_PRECISION",
      "outputs": [
        {
          "internalType": "uint256",
          "name": "",
          "type": "uint256"
        }
      ],
      "stateMutability": "view",
      "type": "function"
    },
    {
      "inputs": [],
      "name": "LUSD_GAS_COMPENSATION",
      "outputs": [
        {
          "internalType": "uint256",
          "name": "",
          "type": "uint256"
        }
      ],
      "stateMutability": "view",
      "type": "function"
    },
    {
      "inputs": [],
      "name": "L_ETH",
      "outputs": [
        {
          "internalType": "uint256",
          "name": "",
          "type": "uint256"
        }
      ],
      "stateMutability": "view",
      "type": "function"
    },
    {
      "inputs": [],
      "name": "L_LUSDDebt",
      "outputs": [
        {
          "internalType": "uint256",
          "name": "",
          "type": "uint256"
        }
      ],
      "stateMutability": "view",
      "type": "function"
    },
    {
      "inputs": [],
      "name": "MCR",
      "outputs": [
        {
          "internalType": "uint256",
          "name": "",
          "type": "uint256"
        }
      ],
      "stateMutability": "view",
      "type": "function"
    },
    {
      "inputs": [],
      "name": "MINUTE_DECAY_FACTOR",
      "outputs": [
        {
          "internalType": "uint256",
          "name": "",
          "type": "uint256"
        }
      ],
      "stateMutability": "view",
      "type": "function"
    },
    {
      "inputs": [],
      "name": "PERCENT_DIVISOR",
      "outputs": [
        {
          "internalType": "uint256",
          "name": "",
          "type": "uint256"
        }
      ],
      "stateMutability": "view",
      "type": "function"
    },
    {
      "inputs": [],
      "name": "R_MCR",
      "outputs": [
        {
          "internalType": "uint256",
          "name": "",
          "type": "uint256"
        }
      ],
      "stateMutability": "view",
      "type": "function"
    },
    {
      "inputs": [],
      "name": "SECONDS_IN_ONE_MINUTE",
      "outputs": [
        {
          "internalType": "uint256",
          "name": "",
          "type": "uint256"
        }
      ],
      "stateMutability": "view",
      "type": "function"
    },
    {
      "inputs": [
        {
          "internalType": "uint256",
          "name": "",
          "type": "uint256"
        }
      ],
      "name": "TroveOwners",
      "outputs": [
        {
          "internalType": "address",
          "name": "",
          "type": "address"
        }
      ],
      "stateMutability": "view",
      "type": "function"
    },
    {
      "inputs": [
        {
          "internalType": "address",
          "name": "",
          "type": "address"
        }
      ],
      "name": "Troves",
      "outputs": [
        {
          "internalType": "uint256",
          "name": "debt",
          "type": "uint256"
        },
        {
          "internalType": "uint256",
          "name": "coll",
          "type": "uint256"
        },
        {
          "internalType": "uint256",
          "name": "stake",
          "type": "uint256"
        },
        {
          "internalType": "enum TroveManager.Status",
          "name": "status",
          "type": "uint8"
        },
        {
          "internalType": "uint128",
          "name": "arrayIndex",
          "type": "uint128"
        }
      ],
      "stateMutability": "view",
      "type": "function"
    },
    {
      "inputs": [],
      "name": "_100pct",
      "outputs": [
        {
          "internalType": "uint256",
          "name": "",
          "type": "uint256"
        }
      ],
      "stateMutability": "view",
      "type": "function"
    },
    {
      "inputs": [],
      "name": "activePool",
      "outputs": [
        {
          "internalType": "contract IActivePool",
          "name": "",
          "type": "address"
        }
      ],
      "stateMutability": "view",
      "type": "function"
    },
    {
      "inputs": [
        {
          "internalType": "address",
          "name": "_borrower",
          "type": "address"
        }
      ],
      "name": "addTroveOwnerToArray",
      "outputs": [
        {
          "internalType": "uint256",
          "name": "index",
          "type": "uint256"
        }
      ],
      "stateMutability": "nonpayable",
      "type": "function"
    },
    {
      "inputs": [
        {
          "internalType": "address",
          "name": "_borrower",
          "type": "address"
        }
      ],
      "name": "applyPendingRewards",
      "outputs": [],
      "stateMutability": "nonpayable",
      "type": "function"
    },
    {
      "inputs": [],
      "name": "baseRate",
      "outputs": [
        {
          "internalType": "uint256",
          "name": "",
          "type": "uint256"
        }
      ],
      "stateMutability": "view",
      "type": "function"
    },
    {
      "inputs": [
        {
          "internalType": "address[]",
          "name": "_troveArray",
          "type": "address[]"
        }
      ],
      "name": "batchLiquidateTroves",
      "outputs": [],
      "stateMutability": "nonpayable",
      "type": "function"
    },
    {
      "inputs": [],
      "name": "borrowerOperationsAddress",
      "outputs": [
        {
          "internalType": "address",
          "name": "",
          "type": "address"
        }
      ],
      "stateMutability": "view",
      "type": "function"
    },
    {
      "inputs": [],
      "name": "checkRecoveryMode",
      "outputs": [
        {
          "internalType": "bool",
          "name": "",
          "type": "bool"
        }
      ],
      "stateMutability": "view",
      "type": "function"
    },
    {
      "inputs": [
        {
          "internalType": "address",
          "name": "_borrower",
          "type": "address"
        }
      ],
      "name": "closeTrove",
      "outputs": [],
      "stateMutability": "nonpayable",
      "type": "function"
    },
    {
      "inputs": [],
      "name": "decayBaseRateFromBorrowing",
      "outputs": [],
      "stateMutability": "nonpayable",
      "type": "function"
    },
    {
      "inputs": [
        {
          "internalType": "address",
          "name": "_borrower",
          "type": "address"
        },
        {
          "internalType": "uint256",
          "name": "_collDecrease",
          "type": "uint256"
        }
      ],
      "name": "decreaseTroveColl",
      "outputs": [
        {
          "internalType": "uint256",
          "name": "",
          "type": "uint256"
        }
      ],
      "stateMutability": "nonpayable",
      "type": "function"
    },
    {
      "inputs": [
        {
          "internalType": "address",
          "name": "_borrower",
          "type": "address"
        },
        {
          "internalType": "uint256",
          "name": "_debtDecrease",
          "type": "uint256"
        }
      ],
      "name": "decreaseTroveDebt",
      "outputs": [
        {
          "internalType": "uint256",
          "name": "",
          "type": "uint256"
        }
      ],
      "stateMutability": "nonpayable",
      "type": "function"
    },
    {
      "inputs": [],
      "name": "defaultPool",
      "outputs": [
        {
          "internalType": "contract IDefaultPool",
          "name": "",
          "type": "address"
        }
      ],
      "stateMutability": "view",
      "type": "function"
    },
    {
      "inputs": [
        {
          "internalType": "uint256",
          "name": "_LUSDDebt",
          "type": "uint256"
        }
      ],
      "name": "getBorrowingFee",
      "outputs": [
        {
          "internalType": "uint256",
          "name": "",
          "type": "uint256"
        }
      ],
      "stateMutability": "view",
      "type": "function"
    },
    {
      "inputs": [
        {
          "internalType": "address",
          "name": "_borrower",
          "type": "address"
        },
        {
          "internalType": "uint256",
          "name": "_price",
          "type": "uint256"
        }
      ],
      "name": "getCurrentICR",
      "outputs": [
        {
          "internalType": "uint256",
          "name": "",
          "type": "uint256"
        }
      ],
      "stateMutability": "view",
      "type": "function"
    },
    {
      "inputs": [
        {
          "internalType": "address",
          "name": "_borrower",
          "type": "address"
        }
      ],
      "name": "getEntireDebtAndColl",
      "outputs": [
        {
          "internalType": "uint256",
          "name": "debt",
          "type": "uint256"
        },
        {
          "internalType": "uint256",
          "name": "coll",
          "type": "uint256"
        },
        {
          "internalType": "uint256",
          "name": "pendingLUSDDebtReward",
          "type": "uint256"
        },
        {
          "internalType": "uint256",
          "name": "pendingETHReward",
          "type": "uint256"
        }
      ],
      "stateMutability": "view",
      "type": "function"
    },
    {
      "inputs": [],
      "name": "getEntireSystemColl",
      "outputs": [
        {
          "internalType": "uint256",
          "name": "entireSystemColl",
          "type": "uint256"
        }
      ],
      "stateMutability": "view",
      "type": "function"
    },
    {
      "inputs": [],
      "name": "getEntireSystemDebt",
      "outputs": [
        {
          "internalType": "uint256",
          "name": "entireSystemDebt",
          "type": "uint256"
        }
      ],
      "stateMutability": "view",
      "type": "function"
    },
    {
      "inputs": [
        {
          "internalType": "address",
          "name": "_borrower",
          "type": "address"
        }
      ],
      "name": "getNominalICR",
      "outputs": [
        {
          "internalType": "uint256",
          "name": "",
          "type": "uint256"
        }
      ],
      "stateMutability": "view",
      "type": "function"
    },
    {
      "inputs": [
        {
          "internalType": "address",
          "name": "_borrower",
          "type": "address"
        }
      ],
      "name": "getPendingETHReward",
      "outputs": [
        {
          "internalType": "uint256",
          "name": "",
          "type": "uint256"
        }
      ],
      "stateMutability": "view",
      "type": "function"
    },
    {
      "inputs": [
        {
          "internalType": "address",
          "name": "_borrower",
          "type": "address"
        }
      ],
      "name": "getPendingLUSDDebtReward",
      "outputs": [
        {
          "internalType": "uint256",
          "name": "",
          "type": "uint256"
        }
      ],
      "stateMutability": "view",
      "type": "function"
    },
    {
      "inputs": [],
      "name": "getTCR",
      "outputs": [
        {
          "internalType": "uint256",
          "name": "",
          "type": "uint256"
        }
      ],
      "stateMutability": "view",
      "type": "function"
    },
    {
      "inputs": [
        {
          "internalType": "address",
          "name": "_borrower",
          "type": "address"
        }
      ],
      "name": "getTroveColl",
      "outputs": [
        {
          "internalType": "uint256",
          "name": "",
          "type": "uint256"
        }
      ],
      "stateMutability": "view",
      "type": "function"
    },
    {
      "inputs": [
        {
          "internalType": "address",
          "name": "_borrower",
          "type": "address"
        }
      ],
      "name": "getTroveDebt",
      "outputs": [
        {
          "internalType": "uint256",
          "name": "",
          "type": "uint256"
        }
      ],
      "stateMutability": "view",
      "type": "function"
    },
    {
      "inputs": [
        {
          "internalType": "uint256",
          "name": "_index",
          "type": "uint256"
        }
      ],
      "name": "getTroveFromTroveOwnersArray",
      "outputs": [
        {
          "internalType": "address",
          "name": "",
          "type": "address"
        }
      ],
      "stateMutability": "view",
      "type": "function"
    },
    {
      "inputs": [],
      "name": "getTroveOwnersCount",
      "outputs": [
        {
          "internalType": "uint256",
          "name": "",
          "type": "uint256"
        }
      ],
      "stateMutability": "view",
      "type": "function"
    },
    {
      "inputs": [
        {
          "internalType": "address",
          "name": "_borrower",
          "type": "address"
        }
      ],
      "name": "getTroveStake",
      "outputs": [
        {
          "internalType": "uint256",
          "name": "",
          "type": "uint256"
        }
      ],
      "stateMutability": "view",
      "type": "function"
    },
    {
      "inputs": [
        {
          "internalType": "address",
          "name": "_borrower",
          "type": "address"
        }
      ],
      "name": "getTroveStatus",
      "outputs": [
        {
          "internalType": "uint256",
          "name": "",
          "type": "uint256"
        }
      ],
      "stateMutability": "view",
      "type": "function"
    },
    {
      "inputs": [
        {
          "internalType": "address",
          "name": "_borrower",
          "type": "address"
        }
      ],
      "name": "hasPendingRewards",
      "outputs": [
        {
          "internalType": "bool",
          "name": "",
          "type": "bool"
        }
      ],
      "stateMutability": "view",
      "type": "function"
    },
    {
      "inputs": [
        {
          "internalType": "address",
          "name": "_borrower",
          "type": "address"
        },
        {
          "internalType": "uint256",
          "name": "_collIncrease",
          "type": "uint256"
        }
      ],
      "name": "increaseTroveColl",
      "outputs": [
        {
          "internalType": "uint256",
          "name": "",
          "type": "uint256"
        }
      ],
      "stateMutability": "nonpayable",
      "type": "function"
    },
    {
      "inputs": [
        {
          "internalType": "address",
          "name": "_borrower",
          "type": "address"
        },
        {
          "internalType": "uint256",
          "name": "_debtIncrease",
          "type": "uint256"
        }
      ],
      "name": "increaseTroveDebt",
      "outputs": [
        {
          "internalType": "uint256",
          "name": "",
          "type": "uint256"
        }
      ],
      "stateMutability": "nonpayable",
      "type": "function"
    },
    {
      "inputs": [],
      "name": "isOwner",
      "outputs": [
        {
          "internalType": "bool",
          "name": "",
          "type": "bool"
        }
      ],
      "stateMutability": "view",
      "type": "function"
    },
    {
      "inputs": [],
      "name": "lastETHError_Redistribution",
      "outputs": [
        {
          "internalType": "uint256",
          "name": "",
          "type": "uint256"
        }
      ],
      "stateMutability": "view",
      "type": "function"
    },
    {
      "inputs": [],
      "name": "lastFeeOperationTime",
      "outputs": [
        {
          "internalType": "uint256",
          "name": "",
          "type": "uint256"
        }
      ],
      "stateMutability": "view",
      "type": "function"
    },
    {
      "inputs": [],
      "name": "lastLUSDDebtError_Redistribution",
      "outputs": [
        {
          "internalType": "uint256",
          "name": "",
          "type": "uint256"
        }
      ],
      "stateMutability": "view",
      "type": "function"
    },
    {
      "inputs": [
        {
          "internalType": "address",
          "name": "_borrower",
          "type": "address"
        }
      ],
      "name": "liquidate",
      "outputs": [],
      "stateMutability": "nonpayable",
      "type": "function"
    },
    {
      "inputs": [
        {
          "internalType": "uint256",
          "name": "_n",
          "type": "uint256"
        }
      ],
      "name": "liquidateTroves",
      "outputs": [],
      "stateMutability": "nonpayable",
      "type": "function"
    },
    {
      "inputs": [],
      "name": "lqtyStaking",
      "outputs": [
        {
          "internalType": "contract ILQTYStaking",
          "name": "",
          "type": "address"
        }
      ],
      "stateMutability": "view",
      "type": "function"
    },
    {
      "inputs": [],
      "name": "lusdToken",
      "outputs": [
        {
          "internalType": "contract ILUSDToken",
          "name": "",
          "type": "address"
        }
      ],
      "stateMutability": "view",
      "type": "function"
    },
    {
      "inputs": [],
      "name": "owner",
      "outputs": [
        {
          "internalType": "address",
          "name": "",
          "type": "address"
        }
      ],
      "stateMutability": "view",
      "type": "function"
    },
    {
      "inputs": [],
      "name": "priceFeed",
      "outputs": [
        {
          "internalType": "contract IPriceFeed",
          "name": "",
          "type": "address"
        }
      ],
      "stateMutability": "view",
      "type": "function"
    },
    {
      "inputs": [
        {
          "internalType": "uint256",
          "name": "_LUSDamount",
          "type": "uint256"
        },
        {
          "internalType": "address",
          "name": "_firstRedemptionHint",
          "type": "address"
        },
        {
          "internalType": "address",
          "name": "_upperPartialRedemptionHint",
          "type": "address"
        },
        {
          "internalType": "address",
          "name": "_lowerPartialRedemptionHint",
          "type": "address"
        },
        {
          "internalType": "uint256",
          "name": "_partialRedemptionHintNICR",
          "type": "uint256"
        },
        {
          "internalType": "uint256",
          "name": "_maxIterations",
          "type": "uint256"
        },
        {
          "internalType": "uint256",
          "name": "_maxFee",
          "type": "uint256"
        }
      ],
      "name": "redeemCollateral",
      "outputs": [],
      "stateMutability": "nonpayable",
      "type": "function"
    },
    {
      "inputs": [
        {
          "internalType": "address",
          "name": "_borrower",
          "type": "address"
        }
      ],
      "name": "removeStake",
      "outputs": [],
      "stateMutability": "nonpayable",
      "type": "function"
    },
    {
      "inputs": [
        {
          "internalType": "address",
          "name": "",
          "type": "address"
        }
      ],
      "name": "rewardSnapshots",
      "outputs": [
        {
          "internalType": "uint256",
          "name": "ETH",
          "type": "uint256"
        },
        {
          "internalType": "uint256",
          "name": "LUSDDebt",
          "type": "uint256"
        }
      ],
      "stateMutability": "view",
      "type": "function"
    },
    {
      "inputs": [
        {
          "internalType": "address",
          "name": "_borrowerOperationsAddress",
          "type": "address"
        },
        {
          "internalType": "address",
          "name": "_activePoolAddress",
          "type": "address"
        },
        {
          "internalType": "address",
          "name": "_defaultPoolAddress",
          "type": "address"
        },
        {
          "internalType": "address",
          "name": "_stabilityPoolAddress",
          "type": "address"
        },
        {
          "internalType": "address",
          "name": "_gasPoolAddress",
          "type": "address"
        },
        {
          "internalType": "address",
          "name": "_collSurplusPoolAddress",
          "type": "address"
        },
        {
          "internalType": "address",
          "name": "_priceFeedAddress",
          "type": "address"
        },
        {
          "internalType": "address",
          "name": "_lusdTokenAddress",
          "type": "address"
        },
        {
          "internalType": "address",
          "name": "_sortedTrovesAddress",
          "type": "address"
        },
        {
          "internalType": "address",
          "name": "_lqtyStakingAddress",
          "type": "address"
        }
      ],
      "name": "setAddresses",
      "outputs": [],
      "stateMutability": "nonpayable",
      "type": "function"
    },
    {
      "inputs": [
        {
          "internalType": "address",
          "name": "_borrower",
          "type": "address"
        },
        {
          "internalType": "uint256",
          "name": "_num",
          "type": "uint256"
        }
      ],
      "name": "setTroveStatus",
      "outputs": [],
      "stateMutability": "nonpayable",
      "type": "function"
    },
    {
      "inputs": [],
      "name": "sortedTroves",
      "outputs": [
        {
          "internalType": "contract ISortedTroves",
          "name": "",
          "type": "address"
        }
      ],
      "stateMutability": "view",
      "type": "function"
    },
    {
      "inputs": [],
      "name": "stabilityPool",
      "outputs": [
        {
          "internalType": "contract IStabilityPool",
          "name": "",
          "type": "address"
        }
      ],
      "stateMutability": "view",
      "type": "function"
    },
    {
      "inputs": [],
      "name": "totalCollateralSnapshot",
      "outputs": [
        {
          "internalType": "uint256",
          "name": "",
          "type": "uint256"
        }
      ],
      "stateMutability": "view",
      "type": "function"
    },
    {
      "inputs": [],
      "name": "totalStakes",
      "outputs": [
        {
          "internalType": "uint256",
          "name": "",
          "type": "uint256"
        }
      ],
      "stateMutability": "view",
      "type": "function"
    },
    {
      "inputs": [],
      "name": "totalStakesSnapshot",
      "outputs": [
        {
          "internalType": "uint256",
          "name": "",
          "type": "uint256"
        }
      ],
      "stateMutability": "view",
      "type": "function"
    },
    {
      "inputs": [
        {
          "internalType": "address",
          "name": "_borrower",
          "type": "address"
        }
      ],
      "name": "updateStakeAndTotalStakes",
      "outputs": [
        {
          "internalType": "uint256",
          "name": "",
          "type": "uint256"
        }
      ],
      "stateMutability": "nonpayable",
      "type": "function"
    },
    {
      "inputs": [
        {
          "internalType": "address",
          "name": "_borrower",
          "type": "address"
        }
      ],
      "name": "updateTroveRewardSnapshots",
      "outputs": [],
      "stateMutability": "nonpayable",
      "type": "function"
    }
  ],
  "bytecode": "0x608060405234801561001057600080fd5b50600380546001600160a01b031916339081179091556040516000907f8be0079c531659141344cd1fd0a4f28419497f9722a3daafe3b4186f6b6457e0908290a3614e83806100606000396000f3fe608060405234801561001057600080fd5b50600436106103665760003560e01c8063795d26c3116101ca578063b7f8cf9b11610105578063d380a37c116100a8578063d380a37c146109d8578063d3d6f843146109e0578063d66a255314610a0c578063d9a7244414610a32578063dba1c5f214610a4f578063e2ac77b014610a57578063f24344e614610a7d578063f34862de14610a85578063fe2ba84814610aab57610366565b8063b7f8cf9b146108cc578063b83f91a2146108d4578063b91af97c146108dc578063bcd3752614610928578063bf9befb114610976578063c7b554811461097e578063cbd138ae14610986578063d293c710146109ac57610366565b806396d711ff1161016d57806396d711ff146108525780639976cf451461085a5780639dd233d214610886578063a20baee6146107bf578063a3a640171461088e578063ae91875414610896578063b0d8e1811461089e578063b620115d146108c457610366565b8063795d26c3146107f4578063797250e3146107fc5780637f7dde4a14610804578063807d138d1461080c57806382fe3eb914610814578063887105d31461083a5780638da5cb5b146108425780638f32d59b1461084a57610366565b80634870dd9a116102a557806364cee2601161024857806364cee26014610670578063653d46e7146106965780636c37a4af146106b35780636ef643381461072457806372423c171461079357806372fe25aa146107bf578063741bef1a146107c7578063756b253e146107cf578063794e5724146107ec57610366565b80634870dd9a146105d957806349eefeee146105e15780635733d58f146105e95780635d6b480f146105f15780635d8c96091461061d5780635dba4c4a1461064357806361ec893d1461064b578063631203b01461065357610366565b80631e8b1c2b1161030d5780631e8b1c2b146104905780631f68f20a1461053357806321e378011461053b5780632e86bbd8146105615780632f865568146105695780633cc742251461058f57806343a124fa14610597578063480cd578146105b357610366565b8063048c661d1461036b578063060d49a31461038f578063071a7541146103a95780630b076557146103b157806312610e92146103d957806315d549f1146104055780631673c79a1461042b57806318f2817a1461046a575b600080fd5b610373610ad1565b604080516001600160a01b039092168252519081900360200190f35b610397610ae0565b60408051918252519081900360200190f35b610397610ae6565b6103d7600480360360208110156103c757600080fd5b50356001600160a01b0316610aeb565b005b610397600480360360408110156103ef57600080fd5b506001600160a01b038135169060200135610aff565b6103976004803603602081101561041b57600080fd5b50356001600160a01b0316610b57565b6104516004803603602081101561044157600080fd5b50356001600160a01b0316610b7b565b6040805192835260208301919091528051918290030190f35b6103976004803603602081101561048057600080fd5b50356001600160a01b0316610b94565b6103d7600480360360208110156104a657600080fd5b8101906020810181356401000000008111156104c157600080fd5b8201836020820111156104d357600080fd5b803590602001918460208302840111640100000000831117156104f557600080fd5b919080806020026020016040519081016040528093929190818152602001838360200280828437600092019190915250929550610ba7945050505050565b610397610eef565b6103976004803603602081101561055157600080fd5b50356001600160a01b0316610ef5565b610397610f1f565b6103d76004803603602081101561057f57600080fd5b50356001600160a01b0316610f2b565b610373610f91565b61059f610fa0565b604080519115158252519081900360200190f35b610397600480360360208110156105c957600080fd5b50356001600160a01b0316610faf565b610397610fcd565b610397610fd2565b610397610fd8565b6103d76004803603604081101561060757600080fd5b506001600160a01b038135169060200135610fe4565b6103976004803603602081101561063357600080fd5b50356001600160a01b0316611030565b6103d76110bf565b6103976110f2565b6103976004803603602081101561066957600080fd5b50356110f7565b6103976004803603602081101561068657600080fd5b50356001600160a01b031661111a565b6103d7600480360360208110156106ac57600080fd5b5035611138565b6103d760048036036101408110156106ca57600080fd5b506001600160a01b038135811691602081013582169160408201358116916060810135821691608082013581169160a081013582169160c082013581169160e0810135821691610100820135811691610120013516611279565b61074a6004803603602081101561073a57600080fd5b50356001600160a01b0316611620565b6040518086815260200185815260200184815260200183600281111561076c57fe5b60ff1681526001600160801b03909216602083015250604080519182900301945092505050f35b610397600480360360408110156107a957600080fd5b506001600160a01b03813516906020013561165a565b6103976116b7565b6103736116c3565b610373600480360360208110156107e557600080fd5b50356116d2565b6103976116f9565b610397611705565b610397611806565b61037361180c565b61039761181b565b6103d76004803603602081101561082a57600080fd5b50356001600160a01b0316611821565b610397611832565b6103736118ee565b61059f6118fd565b61039761190e565b6103976004803603604081101561087057600080fd5b506001600160a01b038135169060200135611914565b610397611947565b61037361194d565b61037361195c565b610397600480360360208110156108b457600080fd5b50356001600160a01b031661196b565b610397611992565b61037361199c565b6103736119ab565b610902600480360360208110156108f257600080fd5b50356001600160a01b03166119ba565b604080519485526020850193909352838301919091526060830152519081900360800190f35b6103d7600480360360e081101561093e57600080fd5b508035906001600160a01b03602082013581169160408101358216916060820135169060808101359060a08101359060c00135611a1e565b6103976120d1565b6103976120d7565b6103d76004803603602081101561099c57600080fd5b50356001600160a01b03166120e3565b610397600480360360408110156109c257600080fd5b506001600160a01b0381351690602001356120f4565b610397612113565b610397600480360360408110156109f657600080fd5b506001600160a01b038135169060200135612119565b61039760048036036020811015610a2257600080fd5b50356001600160a01b031661214f565b61037360048036036020811015610a4857600080fd5b503561216a565b610397612194565b61059f60048036036020811015610a6d57600080fd5b50356001600160a01b031661219a565b6103976121bc565b61039760048036036020811015610a9b57600080fd5b50356001600160a01b03166121c8565b6103d760048036036020811015610ac157600080fd5b50356001600160a01b03166121f9565b6005546001600160a01b031681565b60165481565b600281565b610af361220a565b610afc81612255565b50565b6000610b0961220a565b6001600160a01b0383166000908152600d6020526040812054610b32908463ffffffff61237216565b6001600160a01b0385166000908152600d602052604090208190559150505b92915050565b6000610b6161220a565b610b6a826123bb565b6001600160801b031690505b919050565b6013602052600090815260409020805460019091015482565b6000610b9e61220a565b610b5182612455565b8051610be45760405162461bcd60e51b8152600401808060200182810382526036815260200180614d916036913960400191505060405180910390fd5b610bec614b0b565b610bf4614b3c565b600260009054906101000a90046001600160a01b03166001600160a01b03166398d5fdca6040518163ffffffff1660e01b815260040160206040518083038186803b158015610c4257600080fd5b505afa158015610c56573d6000803e3d6000fd5b505050506040513d6020811015610c6c57600080fd5b50518252600554604080516326fcbc6b60e21b815290516001600160a01b0390921691639bf2f1ac91600480820192602092909190829003018186803b158015610cb557600080fd5b505afa158015610cc9573d6000803e3d6000fd5b505050506040513d6020811015610cdf57600080fd5b50516020830152610cee6124d0565b15156040830181905260011415610d1957610d1282600001518360200151856124eb565b9050610d2f565b610d2c82600001518360200151856126d3565b90505b600554608082015160a08301516040805163335525ad60e01b815260048101939093526024830191909152516001600160a01b039092169163335525ad9160448082019260009290919082900301818387803b158015610d8e57600080fd5b505af1158015610da2573d6000803e3d6000fd5b50505050610db88160c001518260e00151612799565b61010081015115610e375760008054600754610100840151604080516364a197f360e01b81526001600160a01b03938416600482015260248101929092525191909216926364a197f3926044808201939182900301818387803b158015610e1e57600080fd5b505af1158015610e32573d6000803e3d6000fd5b505050505b610e4481604001516129c8565b6020810151606083015261010081015160408201518251610e7c9291610e70919063ffffffff61237216565b9063ffffffff61237216565b608080840182905260608085015160408086015186840151825193845260208401969096528282015291810193909352517f4152c73dd2614c4f9fc35e8c9cf16013cd588c75b49a4c1673ecffdcbcda94039281900390910190a1610eea3382606001518360400151612ad5565b505050565b600b5481565b6001600160a01b0381166000908152600d602052604081206003015460ff166002811115610b5157fe5b678ac7230489e8000081565b610f3481612bc9565b604080516001808252818301909252606091602080830190803683370190505090508181600081518110610f6457fe5b60200260200101906001600160a01b031690816001600160a01b031681525050610f8d81610ba7565b5050565b6001546001600160a01b031681565b6000610faa6124d0565b905090565b6001600160a01b03166000908152600d602052604090206001015490565b60c881565b60145490565b6714d1120d7b16000081565b610fec61220a565b806002811115610ff857fe5b6001600160a01b0383166000908152600d60205260409020600301805460ff1916600183600281111561102757fe5b02179055505050565b6001600160a01b038116600090815260136020526040812054601154829061105e908363ffffffff61237216565b90508061107057600092505050610b76565b6001600160a01b0384166000908152600d6020526040812060020154906110b5670de0b6b3a76400006110a9848663ffffffff612c3116565b9063ffffffff612c8a16565b9695505050505050565b6110c761220a565b60006110d1612ccc565b9050670de0b6b3a76400008111156110e557fe5b600b819055610afc612d10565b603c81565b6000610b51670de0b6b3a76400006110a9600b5485612c3190919063ffffffff16565b6001600160a01b03166000908152600d602052604090206002015490565b611140614b0b565b611148614b3c565b600260009054906101000a90046001600160a01b03166001600160a01b03166398d5fdca6040518163ffffffff1660e01b815260040160206040518083038186803b15801561119657600080fd5b505afa1580156111aa573d6000803e3d6000fd5b505050506040513d60208110156111c057600080fd5b50518252600554604080516326fcbc6b60e21b815290516001600160a01b0390921691639bf2f1ac91600480820192602092909190829003018186803b15801561120957600080fd5b505afa15801561121d573d6000803e3d6000fd5b505050506040513d602081101561123357600080fd5b505160208301526112426124d0565b1515604083018190526001141561126657610d128260000151836020015185612d38565b610d2c82600001518360200151856130b7565b6112816118fd565b6112d2576040805162461bcd60e51b815260206004820181905260248201527f4f776e61626c653a2063616c6c6572206973206e6f7420746865206f776e6572604482015290519081900360640190fd5b6112db8a6131e4565b6112e4896131e4565b6112ed886131e4565b6112f6876131e4565b6112ff866131e4565b611308856131e4565b611311846131e4565b61131a836131e4565b611323826131e4565b61132c816131e4565b600480546001600160a01b03199081166001600160a01b038d81169182179093556000805483168d85161790556001805483168c85161790556005805483168b85161790556006805483168a8516179055600780548316898516179055600280548316888516179055600880548316878516179055600a805483168685161790556009805490921692841692909217905560408051918252517f3ca631ffcd2a9b5d9ae18543fc82f58eb4ca33af9e6ab01b7a8e95331e6ed985916020908290030190a1604080516001600160a01b038b16815290517f78f058b189175430c48dc02699e3a0031ea4ff781536dc2fab847de4babdd8829181900360200190a1604080516001600160a01b038a16815290517f5ee0cae2f063ed938bb55046f6a932fb6ae792bf43624806bb90abe68a50be9b9181900360200190a1604080516001600160a01b038916815290517f82966d27eea39b038ee0fa30cd16532bb24f6e65d31cb58fb227aa5766cdcc7f9181900360200190a1604080516001600160a01b038816815290517fcfb07d791fcafc032b35837b50eb84b74df518cf4cc287e8084f47630fa70fa09181900360200190a1604080516001600160a01b038716815290517fe67f36a6e961157d6eff83b91f3af5a62131ceb6f04954ef74f51c1c05e7f88d9181900360200190a1604080516001600160a01b038616815290517f8c537274438aa850a330284665d81a85dd38267d09e4050d416bfc94142db2649181900360200190a1604080516001600160a01b038516815290517f227eec0ec317af6ab1a9587ffa1c84332522eb4c583a908f89babc05f8f339bd9181900360200190a1604080516001600160a01b038416815290517f65f4cf077bc01e4742eb5ad98326f6e95b63548ea24b17f8d5e823111fe788009181900360200190a1604080516001600160a01b038316815290517f756ebc192164c295bba134b5aacd72cc7aff8098a670d1f0a5f6b3a0b4ce67079181900360200190a1611614613293565b50505050505050505050565b600d6020526000908152604090208054600182015460028301546003909301549192909160ff81169061010090046001600160801b031685565b600061166461220a565b6001600160a01b0383166000908152600d6020526040812060010154611690908463ffffffff6132dd16565b6001600160a01b0385166000908152600d6020526040902060010181905591505092915050565b670de0b6b3a764000081565b6002546001600160a01b031681565b601481815481106116df57fe5b6000918252602090912001546001600160a01b0316905081565b670f43fc2c04ee000081565b6000805460408051632f5a97e560e11b8152905183926001600160a01b031691635eb52fca916004808301926020929190829003018186803b15801561174a57600080fd5b505afa15801561175e573d6000803e3d6000fd5b505050506040513d602081101561177457600080fd5b505160015460408051632f5a97e560e11b815290519293506000926001600160a01b0390921691635eb52fca91600480820192602092909190829003018186803b1580156117c157600080fd5b505afa1580156117d5573d6000803e3d6000fd5b505050506040513d60208110156117eb57600080fd5b505190506117ff828263ffffffff6132dd16565b9250505090565b60155481565b6000546001600160a01b031681565b600f5481565b61182961220a565b610afc81613337565b6000805460408051630a7b61df60e11b8152905183926001600160a01b0316916314f6c3be916004808301926020929190829003018186803b15801561187757600080fd5b505afa15801561188b573d6000803e3d6000fd5b505050506040513d60208110156118a157600080fd5b505160015460408051630a7b61df60e11b815290519293506000926001600160a01b03909216916314f6c3be91600480820192602092909190829003018186803b1580156117c157600080fd5b6003546001600160a01b031690565b6003546001600160a01b0316331490565b60105481565b600061191e61220a565b6001600160a01b0383166000908152600d6020526040812054610b32908463ffffffff6132dd16565b60115481565b6009546001600160a01b031681565b600a546001600160a01b031681565b600080600061197984613361565b91509150600061198983836133e7565b95945050505050565b6000610faa61341c565b6004546001600160a01b031681565b6008546001600160a01b031681565b6001600160a01b0381166000908152600d6020526040812080546001909101549091806119e6856121c8565b91506119f185611030565b9050611a03848363ffffffff6132dd16565b9350611a15838263ffffffff6132dd16565b92509193509193565b611a266134c6565b611a2f87613514565b611a393388613553565b60008060009054906101000a90046001600160a01b03166001600160a01b0316635eb52fca6040518163ffffffff1660e01b815260040160206040518083038186803b158015611a8857600080fd5b505afa158015611a9c573d6000803e3d6000fd5b505050506040513d6020811015611ab257600080fd5b505160015460408051632f5a97e560e11b815290519293506000926001600160a01b0390921691635eb52fca91600480820192602092909190829003018186803b158015611aff57600080fd5b505afa158015611b13573d6000803e3d6000fd5b505050506040513d6020811015611b2957600080fd5b50519050611b3d828263ffffffff6132dd16565b600854604080516370a0823160e01b815233600482015290516001600160a01b03909216916370a0823191602480820192602092909190829003018186803b158015611b8857600080fd5b505afa158015611b9c573d6000803e3d6000fd5b505050506040513d6020811015611bb257600080fd5b50511115611bbc57fe5b60025460408051634c6afee560e11b815290518b926000926001600160a01b03909116916398d5fdca91600480820192602092909190829003018186803b158015611c0657600080fd5b505afa158015611c1a573d6000803e3d6000fd5b505050506040513d6020811015611c3057600080fd5b50519050611c3c614b88565b611c468b8361360c565b15611c5c576001600160a01b038b168152611d9f565b600a60009054906101000a90046001600160a01b03166001600160a01b0316634d6228316040518163ffffffff1660e01b815260040160206040518083038186803b158015611caa57600080fd5b505afa158015611cbe573d6000803e3d6000fd5b505050506040513d6020811015611cd457600080fd5b50516001600160a01b031681525b80516001600160a01b031615801590611d0f5750670f43fc2c04ee0000611d0d8260000151846120f4565b105b15611d9f57600a54815160408051632dc9c0eb60e21b81526001600160a01b0392831660048201529051919092169163b72703ac916024808301926020929190829003018186803b158015611d6357600080fd5b505afa158015611d77573d6000803e3d6000fd5b505050506040513d6020811015611d8d57600080fd5b50516001600160a01b03168152611ce2565b86611daa5760001996505b80516001600160a01b031615801590611dc35750600083115b8015611dcf5750600087115b15611ef357600a54815160408051632dc9c0eb60e21b81526001600160a01b0392831660048201529051600019909a0199600093929092169163b72703ac91602480820192602092909190829003018186803b158015611e2e57600080fd5b505afa158015611e42573d6000803e3d6000fd5b505050506040513d6020811015611e5857600080fd5b50518251909150611e6890612255565b611e70614bc7565b8251611e809086868f8f8f61376f565b8051909150611e90575050611ef3565b80516020840151611ea69163ffffffff6132dd16565b6020808501919091528101516040840151611ec69163ffffffff6132dd16565b60408401528051611ede90869063ffffffff61237216565b6001600160a01b039092168352509250611daa565b611f018160400151836139fe565b50611f0f8160400151613b87565b6060820181905286101580611f22575085155b611f5d5760405162461bcd60e51b8152600401808060200182810382526032815260200180614c6b6032913960400191505060405180910390fd5b600080546009546060840151604080516364a197f360e01b81526001600160a01b03938416600482015260248101929092525191909216926364a197f3926044808201939182900301818387803b158015611fb757600080fd5b505af1158015611fcb573d6000803e3d6000fd5b5050600954606084015160408051630f1f150d60e11b81526004810192909252516001600160a01b039092169350631e3e2a1a925060248082019260009290919082900301818387803b15801561202157600080fd5b505af1158015612035573d6000803e3d6000fd5b505050506060810151604082015161204c91612372565b8160800181815250507f43a3f4082a4dbc33d78e317d2497d3a730bc7fc3574159dcea1056e62e5d9ad88c8260200151836040015184606001516040518085815260200184815260200183815260200182815260200194505050505060405180910390a16120c33382602001518360800151613baa565b505050505050505050505050565b600e5481565b670de01e5e7be69fc781565b6120eb61220a565b610afc81613ccb565b600080600061210285613361565b9150915060006110b5838387613d8d565b600c5481565b600061212361220a565b6001600160a01b0383166000908152600d6020526040812060010154611690908463ffffffff61237216565b6001600160a01b03166000908152600d602052604090205490565b60006014828154811061217957fe5b6000918252602090912001546001600160a01b031692915050565b60125481565b6011546001600160a01b03821660009081526013602052604090205410919050565b6729a2241af62c000081565b6001600160a01b038116600090815260136020526040812060010154601254829061105e908363ffffffff61237216565b61220161220a565b610afc81613dbf565b6004546001600160a01b031633146122535760405162461bcd60e51b815260040180806020018281038252603b815260200180614d56603b913960400191505060405180910390fd5b565b61225e8161219a565b15610afc5761226c81612bc9565b600061227782611030565b90506000612284836121c8565b6001600160a01b0384166000908152600d60205260409020600101549091506122b3908363ffffffff6132dd16565b6001600160a01b0384166000908152600d602052604090206001810191909155546122e4908263ffffffff6132dd16565b6001600160a01b0384166000908152600d602052604090205561230683613337565b6123108183613e0f565b6001600160a01b0383166000818152600d60209081526040808320805460018201546002909201548351918252938101919091528082019290925260608201929092529051600080516020614d368339815191529181900360800190a2505050565b60006123b483836040518060400160405280601e81526020017f536166654d6174683a207375627472616374696f6e206f766572666c6f770000815250613f23565b9392505050565b601480546001808201835560008381527fce6d7b5282bd9a3661ae061feed1dbda4e52ab073b1f9285be6e155d9c38d4ec90920180546001600160a01b0319166001600160a01b038616179055915490916124169190612372565b6001600160a01b03929092166000908152600d602052604090206003018054610100600160881b0319166101006001600160801b038516021790555090565b6001600160a01b0381166000908152600d6020526040812060010154819061247c90613fba565b6001600160a01b0384166000908152600d60205260409020600201805490829055600e54919250906124c69083906124ba908463ffffffff61237216565b9063ffffffff6132dd16565b600e555092915050565b6000806124db61341c565b6714d1120d7b1600001191505090565b6124f3614b3c565b6124fb614be1565b612503614b3c565b84825260006080830152612515611705565b60a0830152612522611832565b60c0830152600060208301525b8351826020015110156126ca578382602001518151811061254c57fe5b60209081029190910101516001600160a01b03166060830181905261257190876120f4565b6040830152608082015161265957670f43fc2c04ee000082604001511015801561259a57508151155b156125a4576126ba565b60006125b98360c001518460a0015189613d8d565b90506125d4836060015184604001518560000151848b613ff6565b608081015184519193506125ee919063ffffffff61237216565b8352608082015160a08401516126099163ffffffff61237216565b60a08085019190915282015160c08401516126299163ffffffff61237216565b60c084015261263884836142a0565b935061264d8360c001518460a00151896143b7565b156080840152506126ba565b60808201511515600114801561267a5750670f43fc2c04ee00008260400151105b156126ba57612691826060015183600001516143d8565b608081015183519192506126ab919063ffffffff61237216565b82526126b783826142a0565b92505b602082018051600101905261252f565b50509392505050565b6126db614b3c565b6126e3614be1565b6126eb614b3c565b848252600060208301525b8351826020015110156126ca578382602001518151811061271357fe5b60209081029190910101516001600160a01b03166060830181905261273890876120f4565b60408301819052670f43fc2c04ee0000111561278957612760826060015183600001516143d8565b6080810151835191925061277a919063ffffffff61237216565b825261278683826142a0565b92505b60208201805160010190526126f6565b816127a357610f8d565b6015546000906127c5906124ba84670de0b6b3a764000063ffffffff612c3116565b905060006127ea6016546124ba670de0b6b3a764000087612c3190919063ffffffff16565b90506000612803600e5484612c8a90919063ffffffff16565b9050600061281c600e5484612c8a90919063ffffffff16565b9050612843612836600e5484612c3190919063ffffffff16565b859063ffffffff61237216565b601555600e5461286b9061285e90839063ffffffff612c3116565b849063ffffffff61237216565b601655601154612881908363ffffffff6132dd16565b601155601254612897908263ffffffff6132dd16565b601255600080546040805163071b32b560e31b8152600481018a905290516001600160a01b03909216926338d995a89260248084019382900301818387803b1580156128e257600080fd5b505af11580156128f6573d6000803e3d6000fd5b5050600154604080516367dc994d60e11b8152600481018b905290516001600160a01b03909216935063cfb9329a925060248082019260009290919082900301818387803b15801561294757600080fd5b505af115801561295b573d6000803e3d6000fd5b505060008054600154604080516364a197f360e01b81526001600160a01b039283166004820152602481018c905290519190921694506364a197f393506044808301939282900301818387803b1580156129b457600080fd5b505af1158015611614573d6000803e3d6000fd5b600e54600f556000805460408051630a7b61df60e11b815290516001600160a01b03909216916314f6c3be91600480820192602092909190829003018186803b158015612a1457600080fd5b505afa158015612a28573d6000803e3d6000fd5b505050506040513d6020811015612a3e57600080fd5b505160015460408051630a7b61df60e11b815290519293506000926001600160a01b03909216916314f6c3be91600480820192602092909190829003018186803b158015612a8b57600080fd5b505afa158015612a9f573d6000803e3d6000fd5b505050506040513d6020811015612ab557600080fd5b50519050612acd816124ba848663ffffffff61237216565b601055505050565b8115612b545760085460065460408051631062c15f60e11b81526001600160a01b039283166004820152868316602482015260448101869052905191909216916320c582be91606480830192600092919082900301818387803b158015612b3b57600080fd5b505af1158015612b4f573d6000803e3d6000fd5b505050505b8015610eea5760008054604080516364a197f360e01b81526001600160a01b03878116600483015260248201869052915191909216926364a197f3926044808201939182900301818387803b158015612bac57600080fd5b505af1158015612bc0573d6000803e3d6000fd5b50505050505050565b60016001600160a01b0382166000908152600d602052604090206003015460ff166002811115612bf557fe5b14610afc5760405162461bcd60e51b815260040180806020018281038252602f815260200180614e1f602f913960400191505060405180910390fd5b600082612c4057506000610b51565b82820282848281612c4d57fe5b04146123b45760405162461bcd60e51b8152600401808060200182810382526021815260200180614cc76021913960400191505060405180910390fd5b60006123b483836040518060400160405280601a81526020017f536166654d6174683a206469766973696f6e206279207a65726f0000000000008152506144e6565b600080612cd761454b565b90506000612ced670de01e5e7be69fc783614567565b90506117ff670de0b6b3a76400006110a983600b54612c3190919063ffffffff16565b6000612d27600c544261237290919063ffffffff16565b9050603c8110610afc5742600c5550565b612d40614b3c565b612d48614be1565b612d50614b3c565b84825260006080830152612d62611705565b60a0830152612d6f611832565b60c0830152600a5460408051634d62283160e01b815290516001600160a01b0390921691634d62283191600480820192602092909190829003018186803b158015612db957600080fd5b505afa158015612dcd573d6000803e3d6000fd5b505050506040513d6020811015612de357600080fd5b50516001600160a01b039081166060840152600a5460408051631e22314360e01b815290516000939290921691631e22314391600480820192602092909190829003018186803b158015612e3657600080fd5b505afa158015612e4a573d6000803e3d6000fd5b505050506040513d6020811015612e6057600080fd5b50516000602085015290505b848360200151108015612e955750806001600160a01b031683606001516001600160a01b031614155b156130ad57600a54606084015160408051632dc9c0eb60e21b81526001600160a01b0392831660048201529051600093929092169163b72703ac91602480820192602092909190829003018186803b158015612ef057600080fd5b505afa158015612f04573d6000803e3d6000fd5b505050506040513d6020811015612f1a57600080fd5b50516060850151909150612f2e90896120f4565b6040850152608084015161302457670f43fc2c04ee0000846040015110158015612f5757508351155b15612f6257506130ad565b6000612f778560c001518660a001518b613d8d565b9050612f92856060015186604001518760000151848d613ff6565b60808101518651919550612fac919063ffffffff61237216565b8552608084015160a0860151612fc79163ffffffff61237216565b8560a0018181525050612ff4846101000151610e708660a001518860c0015161237290919063ffffffff16565b60c086015261300386856142a0565b95506130188560c001518660a001518b6143b7565b1560808601525061308f565b6080840151151560011480156130455750670f43fc2c04ee00008460400151105b156130895761305c846060015185600001516143d8565b60808101518551919450613076919063ffffffff61237216565b845261308285846142a0565b945061308f565b506130ad565b6001600160a01b031660608401526020830180516001019052612e6c565b5050509392505050565b6130bf614b3c565b6130c7614be1565b6130cf614b3c565b848252600060208301525b83826020015110156126ca57600a60009054906101000a90046001600160a01b03166001600160a01b0316634d6228316040518163ffffffff1660e01b815260040160206040518083038186803b15801561313457600080fd5b505afa158015613148573d6000803e3d6000fd5b505050506040513d602081101561315e57600080fd5b50516001600160a01b03166060830181905261317a90876120f4565b60408301819052670f43fc2c04ee000011156131cf576131a2826060015183600001516143d8565b608081015183519192506131bc919063ffffffff61237216565b82526131c883826142a0565b92506131d4565b6126ca565b60208201805160010190526130da565b6001600160a01b03811661323f576040805162461bcd60e51b815260206004820152601e60248201527f4163636f756e742063616e6e6f74206265207a65726f20616464726573730000604482015290519081900360640190fd5b803b80610f8d576040805162461bcd60e51b815260206004820181905260248201527f4163636f756e7420636f64652073697a652063616e6e6f74206265207a65726f604482015290519081900360640190fd5b6003546040516000916001600160a01b0316907f8be0079c531659141344cd1fd0a4f28419497f9722a3daafe3b4186f6b6457e0908390a3600380546001600160a01b0319169055565b6000828201838110156123b4576040805162461bcd60e51b815260206004820152601b60248201527f536166654d6174683a206164646974696f6e206f766572666c6f770000000000604482015290519081900360640190fd5b6011546001600160a01b039091166000908152601360205260409020908155601254600190910155565b600080600061336f84611030565b9050600061337c856121c8565b6001600160a01b0386166000908152600d6020526040812060010154919250906133ac908463ffffffff6132dd16565b6001600160a01b0387166000908152600d6020526040812054919250906133d9908463ffffffff6132dd16565b919550909350505050915091565b600081156134135761340c826110a98568056bc75e2d6310000063ffffffff612c3116565b9050610b51565b50600019610b51565b600080600260009054906101000a90046001600160a01b03166001600160a01b03166398d5fdca6040518163ffffffff1660e01b815260040160206040518083038186803b15801561346d57600080fd5b505afa158015613481573d6000803e3d6000fd5b505050506040513d602081101561349757600080fd5b5051905060006134a5611832565b905060006134b1611705565b90506134be828285613d8d565b935050505090565b670f43fc2c04ee00006134d761341c565b10156122535760405162461bcd60e51b815260040180806020018281038252602a815260200180614df5602a913960400191505060405180910390fd5b60008111610afc5760405162461bcd60e51b815260040180806020018281038252602e815260200180614dc7602e913960400191505060405180910390fd5b600854604080516370a0823160e01b81526001600160a01b0385811660048301529151849392909216916370a0823191602480820192602092909190829003018186803b1580156135a357600080fd5b505afa1580156135b7573d6000803e3d6000fd5b505050506040513d60208110156135cd57600080fd5b50511015610f8d5760405162461bcd60e51b815260040180806020018281038252604e815260200180614ce8604e913960600191505060405180910390fd5b60006001600160a01b038316158061369a5750600a5460408051630bb7c8fd60e31b81526001600160a01b03868116600483015291519190921691635dbe47e8916024808301926020929190829003018186803b15801561366c57600080fd5b505afa158015613680573d6000803e3d6000fd5b505050506040513d602081101561369657600080fd5b5051155b806136b55750670f43fc2c04ee00006136b384846120f4565b105b156136c257506000610b51565b600a546040805163765e015960e01b81526001600160a01b0386811660048301529151600093929092169163765e015991602480820192602092909190829003018186803b15801561371357600080fd5b505afa158015613727573d6000803e3d6000fd5b505050506040513d602081101561373d57600080fd5b505190506001600160a01b03811615806137675750670f43fc2c04ee000061376582856120f4565b105b949350505050565b613777614bc7565b6001600160a01b0387166000908152600d60205260409020546137b39087906137ae90678ac7230489e8000063ffffffff61237216565b614612565b8082526137d49086906110a990670de0b6b3a764000063ffffffff612c3116565b60208083019190915281516001600160a01b0389166000908152600d90925260408220546138079163ffffffff61237216565b6020808401516001600160a01b038b166000908152600d9092526040822060010154929350909161383d9163ffffffff61237216565b9050678ac7230489e800008214156138d15761385889613dbf565b61386189613ccb565b61387489678ac7230489e8000083614628565b886001600160a01b0316600080516020614d3683398151915260008060006003604051808581526020018481526020018381526020018260038111156138b657fe5b60ff16815260200194505050505060405180910390a26139f2565b60006138dd82846133e7565b90508481146138f857505060008083526020830152506110b5565b600a546040805163015f109360e51b81526001600160a01b038d81166004830152602482018590528a81166044830152898116606483015291519190921691632be2126091608480830192600092919082900301818387803b15801561395d57600080fd5b505af1158015613971573d6000803e3d6000fd5b5050506001600160a01b038b166000908152600d602052604090208481556001018390555061399f8a612455565b506001600160a01b038a166000818152600d602090815260409182902060020154825187815291820186905281830152600360608201529051600080516020614d368339815191529181900360800190a2505b50509695505050505050565b600080613a09612ccc565b905060008060009054906101000a90046001600160a01b03166001600160a01b0316635eb52fca6040518163ffffffff1660e01b815260040160206040518083038186803b158015613a5a57600080fd5b505afa158015613a6e573d6000803e3d6000fd5b505050506040513d6020811015613a8457600080fd5b505160015460408051632f5a97e560e11b815290519293506000926001600160a01b0390921691635eb52fca91600480820192602092909190829003018186803b158015613ad157600080fd5b505afa158015613ae5573d6000803e3d6000fd5b505050506040513d6020811015613afb57600080fd5b505190506000613b11838363ffffffff6132dd16565b90506000613b29826110a98a8a63ffffffff612c3116565b90506000613b4e613b4183600263ffffffff612c8a16565b879063ffffffff6132dd16565b9050613b6281670de0b6b3a7640000614612565b905060008111613b6e57fe5b600b819055613b7b612d10565b98975050505050505050565b6000610b51670de0b6b3a76400006110a984600b54612c3190919063ffffffff16565b60085460408051632770a7eb60e21b81526001600160a01b0386811660048301526024820186905291519190921691639dc29fac91604480830192600092919082900301818387803b158015613bff57600080fd5b505af1158015613c13573d6000803e3d6000fd5b5050600080546040805163071b32b560e31b81526004810188905290516001600160a01b0390921694506338d995a89350602480820193929182900301818387803b158015613c6157600080fd5b505af1158015613c75573d6000803e3d6000fd5b505060008054604080516364a197f360e01b81526001600160a01b0389811660048301526024820188905291519190921694506364a197f393506044808301939282900301818387803b158015612bac57600080fd5b601454613cd781614704565b6001600160a01b0382166000908152600d6020908152604080832060038101805460ff19166002179055600180820185905590849055601390925282208281550155613d2382826147bd565b600a5460408051631484968760e11b81526001600160a01b038581166004830152915191909216916329092d0e91602480830192600092919082900301818387803b158015613d7157600080fd5b505af1158015613d85573d6000803e3d6000fd5b505050505050565b60008215613db4576000613dab846110a9878663ffffffff612c3116565b91506123b49050565b506000199392505050565b6001600160a01b0381166000908152600d6020526040902060020154600e54613dee908263ffffffff61237216565b600e55506001600160a01b03166000908152600d6020526040812060020155565b6001546040805163071b32b560e31b81526004810185905290516001600160a01b03909216916338d995a89160248082019260009290919082900301818387803b158015613e5c57600080fd5b505af1158015613e70573d6000803e3d6000fd5b505060008054604080516367dc994d60e11b81526004810188905290516001600160a01b03909216945063cfb9329a9350602480820193929182900301818387803b158015613ebe57600080fd5b505af1158015613ed2573d6000803e3d6000fd5b50506001546040805163be41205f60e01b81526004810186905290516001600160a01b03909216935063be41205f925060248082019260009290919082900301818387803b158015613d7157600080fd5b60008184841115613fb25760405162461bcd60e51b81526004018080602001828103825283818151815260200191508051906020019080838360005b83811015613f77578181015183820152602001613f5f565b50505050905090810190601f168015613fa45780820380516001836020036101000a031916815260200191505b509250505060405180910390fd5b505050900390565b60008060105460001415613fcf575081610b51565b6000600f5411613fdb57fe5b6123b46010546110a9600f5486612c3190919063ffffffff16565b613ffe614b3c565b614006614c29565b6014546001106140165750611989565b61401f876119ba565b604085019081526020858101928352860192909252918452905190516140459190613e0f565b614052826020015161490a565b60408301819052678ac7230489e800006060840152602083015161407b9163ffffffff61237216565b8152670de0b6b3a764000086116141155761409587613dbf565b60006080830181905260a0830152815160c0830152805160e08301526140ba87613ccb565b866001600160a01b0316600080516020614c4b833981519152836000015184602001516002604051808481526020018381526020018260038111156140fb57fe5b60ff168152602001935050505060405180910390a2614296565b670de0b6b3a7640000861180156141335750670f43fc2c04ee000086105b1561416d5761414187613dbf565b81518151614150919087614911565b60e086015260c085015260a084015260808301526140ba87613ccb565b670f43fc2c04ee0000861015801561418457508386105b8015614191575081518510155b15614285578461419d57fe5b6141a687613dbf565b6141b9826000015183602001518561497d565b91506141c487613ccb565b610100820151156142445760075461010083015160408051633f10abab60e01b81526001600160a01b038b81166004830152602482019390935290519190921691633f10abab91604480830192600092919082900301818387803b15801561422b57600080fd5b505af115801561423f573d6000803e3d6000fd5b505050505b866001600160a01b0316600080516020614c4b83398151915283600001518460a001516002604051808481526020018381526020018260038111156140fb57fe5b61428d614b3c565b91506119899050565b5095945050505050565b6142a8614b3c565b604080830151908401516142c19163ffffffff6132dd16565b6040820152606080830151908401516142df9163ffffffff6132dd16565b6060820152815160208401516142fa9163ffffffff6132dd16565b60208083019190915282015183516143179163ffffffff6132dd16565b8152608080830151908401516143329163ffffffff6132dd16565b608082015260a080830151908401516143509163ffffffff6132dd16565b60a082015260c0808301519084015161436e9163ffffffff6132dd16565b60c082015260e0808301519084015161438c9163ffffffff6132dd16565b60e082015261010080830151908401516143ab9163ffffffff6132dd16565b61010082015292915050565b6000806143c5858585613d8d565b6714d1120d7b1600001195945050505050565b6143e0614b3c565b6143e8614c29565b6143f1846119ba565b604085019081526020858101928352860192909252918452905190516144179190613e0f565b61442084613dbf565b61442d826020015161490a565b60408301819052678ac7230489e800006060840152602083015160009161445a919063ffffffff61237216565b905061446b83600001518286614911565b60e087015260c086015260a0850152608084015261448885613ccb565b846001600160a01b0316600080516020614c4b833981519152846000015185602001516001604051808481526020018381526020018260038111156144c957fe5b60ff168152602001935050505060405180910390a2505092915050565b600081836145355760405162461bcd60e51b8152602060048201818152835160248401528351909283926044909101919085019080838360008315613f77578181015183820152602001613f5f565b50600083858161454157fe5b0495945050505050565b6000610faa603c6110a9600c544261237290919063ffffffff16565b6000631f54050082111561457d57631f54050091505b816145915750670de0b6b3a7640000610b51565b670de0b6b3a764000083835b600181111561460857600281066145d2576145b88283614a16565b91506145cb81600263ffffffff612c8a16565b9050614603565b6145dc8284614a16565b92506145e88283614a16565b915061460060026110a983600163ffffffff61237216565b90505b61459d565b6110b58284614a16565b600081831061462157816123b4565b5090919050565b60085460065460408051632770a7eb60e21b81526001600160a01b0392831660048201526024810186905290519190921691639dc29fac91604480830192600092919082900301818387803b15801561468057600080fd5b505af1158015614694573d6000803e3d6000fd5b5050600080546040805163071b32b560e31b81526004810188905290516001600160a01b0390921694506338d995a89350602480820193929182900301818387803b1580156146e257600080fd5b505af11580156146f6573d6000803e3d6000fd5b50505050610eea8382614a49565b6001811180156147825750600a546040805163de8fa43160e01b815290516001926001600160a01b03169163de8fa431916004808301926020929190829003018186803b15801561475457600080fd5b505afa158015614768573d6000803e3d6000fd5b505050506040513d602081101561477e57600080fd5b5051115b610afc5760405162461bcd60e51b815260040180806020018281038252602a815260200180614c9d602a913960400191505060405180910390fd5b60026001600160a01b0383166000908152600d602052604090206003015460ff1660028111156147e957fe5b146147f057fe5b6001600160a01b0382166000908152600d602052604081206003015461010090046001600160801b0316908290614828826001612372565b905080836001600160801b0316111561483d57fe5b60006014828154811061484c57fe5b600091825260209091200154601480546001600160a01b03909216925082916001600160801b03871690811061487e57fe5b600091825260208083209190910180546001600160a01b0319166001600160a01b039485161790559183168152600d909152604090206003018054610100600160881b0319166101006001600160801b0387160217905560148054806148e057fe5b600082815260209020810160001990810180546001600160a01b0319169055019055505050505050565b60c8900490565b60008080808415614967576149268786614612565b935061493c876110a9888763ffffffff612c3116565b925061494e878563ffffffff61237216565b9150614960868463ffffffff61237216565b9050614974565b5060009250829150859050845b93509350935093565b614985614b3c565b8381526020810183905260006149ad836110a987670f43fc2c04ee000063ffffffff612c3116565b90506149b88161490a565b60408301819052678ac7230489e800006060840152608083018690526149e590829063ffffffff61237216565b60a08301526149fa848263ffffffff61237216565b61010083015250600060c0820181905260e08201529392505050565b600080614a29848463ffffffff612c3116565b9050613767670de0b6b3a76400006110a9836706f05b59d3b200006132dd565b60075460408051633f10abab60e01b81526001600160a01b0385811660048301526024820185905291519190921691633f10abab91604480830192600092919082900301818387803b158015614a9e57600080fd5b505af1158015614ab2573d6000803e3d6000fd5b505060008054600754604080516364a197f360e01b81526001600160a01b0392831660048201526024810188905290519190921694506364a197f393506044808301939282900301818387803b158015613d7157600080fd5b6040518060a00160405280600081526020016000815260200160001515815260200160008152602001600081525090565b6040518061012001604052806000815260200160008152602001600081526020016000815260200160008152602001600081526020016000815260200160008152602001600081525090565b6040518060c0016040528060006001600160a01b0316815260200160008152602001600081526020016000815260200160008152602001600081525090565b604051806040016040528060008152602001600081525090565b6040518060e0016040528060008152602001600081526020016000815260200160006001600160a01b0316815260200160001515815260200160008152602001600081525090565b6040518060600160405280600081526020016000815260200160008152509056feea67486ed7ebe3eea8ab3390efd4a3c8aae48be5bea27df104a8af786c40843454726f76654d616e616765723a20726564656d7074696f6e206665652065786365656465642070726f7669646564206d617854726f76654d616e616765723a204f6e6c79206f6e652074726f766520696e207468652073797374656d536166654d6174683a206d756c7469706c69636174696f6e206f766572666c6f7754726f76654d616e616765723a2052657175657374656420726564656d7074696f6e20616d6f756e74206d757374206265203c3d20757365722773204c55534420746f6b656e2062616c616e6365c3770d654ed33aeea6bf11ac8ef05d02a6a04ed4686dd2f624d853bbec43cc8b54726f76654d616e616765723a2043616c6c6572206973206e6f742074686520426f72726f7765724f7065726174696f6e7320636f6e747261637454726f76654d616e616765723a2043616c6c646174612061646472657373206172726179206d757374206e6f7420626520656d70747954726f76654d616e616765723a20416d6f756e74206d7573742062652067726561746572207468616e207a65726f54726f76654d616e616765723a2043616e6e6f742072656465656d207768656e20544352203c204d435254726f76654d616e616765723a2054726f766520646f6573206e6f74206578697374206f7220697320636c6f736564a264697066735822122027c0fe5dc607eb05b8d85d7f858d60ffe2814b08e010069efe566a679959f33764736f6c634300060b0033",
  "linkReferences": {},
  "deployedLinkReferences": {}
}