{
  "_format": "hh-sol-artifact-1",
  "contractName": "TroveManager",
  "sourceName": "contracts/TroveManager.sol",
  "abi": [
    {
      "anonymous": false,
      "inputs": [
        {
          "indexed": false,
          "internalType": "address",
          "name": "_activePoolAddress",
          "type": "address"
        }
      ],
      "name": "ActivePoolAddressChanged",
      "type": "event"
    },
    {
      "anonymous": false,
      "inputs": [
        {
          "indexed": false,
          "internalType": "uint256",
          "name": "_baseRate",
          "type": "uint256"
        }
      ],
      "name": "BaseRateUpdated",
      "type": "event"
    },
    {
      "anonymous": false,
      "inputs": [
        {
          "indexed": false,
          "internalType": "address",
          "name": "_newBorrowerOperationsAddress",
          "type": "address"
        }
      ],
      "name": "BorrowerOperationsAddressChanged",
      "type": "event"
    },
    {
      "anonymous": false,
      "inputs": [
        {
          "indexed": false,
          "internalType": "address",
          "name": "_collSurplusPoolAddress",
          "type": "address"
        }
      ],
      "name": "CollSurplusPoolAddressChanged",
      "type": "event"
    },
    {
      "anonymous": false,
      "inputs": [
        {
          "indexed": false,
          "internalType": "address",
          "name": "_defaultPoolAddress",
          "type": "address"
        }
      ],
      "name": "DefaultPoolAddressChanged",
      "type": "event"
    },
    {
      "anonymous": false,
      "inputs": [
        {
          "indexed": false,
          "internalType": "address",
          "name": "_gasPoolAddress",
          "type": "address"
        }
      ],
      "name": "GasPoolAddressChanged",
      "type": "event"
    },
    {
      "anonymous": false,
      "inputs": [
        {
          "indexed": false,
          "internalType": "address",
          "name": "_lqtyStakingAddress",
          "type": "address"
        }
      ],
      "name": "LQTYStakingAddressChanged",
      "type": "event"
    },
    {
      "anonymous": false,
      "inputs": [
        {
          "indexed": false,
          "internalType": "address",
          "name": "_lqtyTokenAddress",
          "type": "address"
        }
      ],
      "name": "LQTYTokenAddressChanged",
      "type": "event"
    },
    {
      "anonymous": false,
      "inputs": [
        {
          "indexed": false,
          "internalType": "uint256",
          "name": "_L_ETH",
          "type": "uint256"
        },
        {
          "indexed": false,
          "internalType": "uint256",
          "name": "_L_LUSDDebt",
          "type": "uint256"
        }
      ],
      "name": "LTermsUpdated",
      "type": "event"
    },
    {
      "anonymous": false,
      "inputs": [
        {
          "indexed": false,
          "internalType": "address",
          "name": "_newLUSDTokenAddress",
          "type": "address"
        }
      ],
      "name": "LUSDTokenAddressChanged",
      "type": "event"
    },
    {
      "anonymous": false,
      "inputs": [
        {
          "indexed": false,
          "internalType": "uint256",
          "name": "_lastFeeOpTime",
          "type": "uint256"
        }
      ],
      "name": "LastFeeOpTimeUpdated",
      "type": "event"
    },
    {
      "anonymous": false,
      "inputs": [
        {
          "indexed": false,
          "internalType": "uint256",
          "name": "_liquidatedDebt",
          "type": "uint256"
        },
        {
          "indexed": false,
          "internalType": "uint256",
          "name": "_liquidatedColl",
          "type": "uint256"
        },
        {
          "indexed": false,
          "internalType": "uint256",
          "name": "_collGasCompensation",
          "type": "uint256"
        },
        {
          "indexed": false,
          "internalType": "uint256",
          "name": "_LUSDGasCompensation",
          "type": "uint256"
        }
      ],
      "name": "Liquidation",
      "type": "event"
    },
    {
      "anonymous": false,
      "inputs": [
        {
          "indexed": true,
          "internalType": "address",
          "name": "previousOwner",
          "type": "address"
        },
        {
          "indexed": true,
          "internalType": "address",
          "name": "newOwner",
          "type": "address"
        }
      ],
      "name": "OwnershipTransferred",
      "type": "event"
    },
    {
      "anonymous": false,
      "inputs": [
        {
          "indexed": false,
          "internalType": "address",
          "name": "_newPriceFeedAddress",
          "type": "address"
        }
      ],
      "name": "PriceFeedAddressChanged",
      "type": "event"
    },
    {
      "anonymous": false,
      "inputs": [
        {
          "indexed": false,
          "internalType": "uint256",
          "name": "_attemptedLUSDAmount",
          "type": "uint256"
        },
        {
          "indexed": false,
          "internalType": "uint256",
          "name": "_actualLUSDAmount",
          "type": "uint256"
        },
        {
          "indexed": false,
          "internalType": "uint256",
          "name": "_ETHSent",
          "type": "uint256"
        },
        {
          "indexed": false,
          "internalType": "uint256",
          "name": "_ETHFee",
          "type": "uint256"
        }
      ],
      "name": "Redemption",
      "type": "event"
    },
    {
      "anonymous": false,
      "inputs": [
        {
          "indexed": false,
          "internalType": "address",
          "name": "_sortedTrovesAddress",
          "type": "address"
        }
      ],
      "name": "SortedTrovesAddressChanged",
      "type": "event"
    },
    {
      "anonymous": false,
      "inputs": [
        {
          "indexed": false,
          "internalType": "address",
          "name": "_stabilityPoolAddress",
          "type": "address"
        }
      ],
      "name": "StabilityPoolAddressChanged",
      "type": "event"
    },
    {
      "anonymous": false,
      "inputs": [
        {
          "indexed": false,
          "internalType": "uint256",
          "name": "_totalStakesSnapshot",
          "type": "uint256"
        },
        {
          "indexed": false,
          "internalType": "uint256",
          "name": "_totalCollateralSnapshot",
          "type": "uint256"
        }
      ],
      "name": "SystemSnapshotsUpdated",
      "type": "event"
    },
    {
      "anonymous": false,
      "inputs": [
        {
          "indexed": false,
          "internalType": "uint256",
          "name": "_newTotalStakes",
          "type": "uint256"
        }
      ],
      "name": "TotalStakesUpdated",
      "type": "event"
    },
    {
      "anonymous": false,
      "inputs": [
        {
          "indexed": false,
          "internalType": "address",
          "name": "_borrower",
          "type": "address"
        },
        {
          "indexed": false,
          "internalType": "uint256",
          "name": "_newIndex",
          "type": "uint256"
        }
      ],
      "name": "TroveIndexUpdated",
      "type": "event"
    },
    {
      "anonymous": false,
      "inputs": [
        {
          "indexed": true,
          "internalType": "address",
          "name": "_borrower",
          "type": "address"
        },
        {
          "indexed": false,
          "internalType": "uint256",
          "name": "_debt",
          "type": "uint256"
        },
        {
          "indexed": false,
          "internalType": "uint256",
          "name": "_coll",
          "type": "uint256"
        },
        {
          "indexed": false,
          "internalType": "enum TroveManager.TroveManagerOperation",
          "name": "_operation",
          "type": "uint8"
        }
      ],
      "name": "TroveLiquidated",
      "type": "event"
    },
    {
      "anonymous": false,
      "inputs": [
        {
          "indexed": false,
          "internalType": "uint256",
          "name": "_L_ETH",
          "type": "uint256"
        },
        {
          "indexed": false,
          "internalType": "uint256",
          "name": "_L_LUSDDebt",
          "type": "uint256"
        }
      ],
      "name": "TroveSnapshotsUpdated",
      "type": "event"
    },
    {
      "anonymous": false,
      "inputs": [
        {
          "indexed": true,
          "internalType": "address",
          "name": "_borrower",
          "type": "address"
        },
        {
          "indexed": false,
          "internalType": "uint256",
          "name": "_debt",
          "type": "uint256"
        },
        {
          "indexed": false,
          "internalType": "uint256",
          "name": "_coll",
          "type": "uint256"
        },
        {
          "indexed": false,
          "internalType": "uint256",
          "name": "_stake",
          "type": "uint256"
        },
        {
          "indexed": false,
          "internalType": "enum TroveManager.TroveManagerOperation",
          "name": "_operation",
          "type": "uint8"
        }
      ],
      "name": "TroveUpdated",
      "type": "event"
    },
    {
      "inputs": [],
      "name": "BETA",
      "outputs": [
        {
          "internalType": "uint256",
          "name": "",
          "type": "uint256"
        }
      ],
      "stateMutability": "view",
      "type": "function"
    },
    {
      "inputs": [],
      "name": "BOOTSTRAP_PERIOD",
      "outputs": [
        {
          "internalType": "uint256",
          "name": "",
          "type": "uint256"
        }
      ],
      "stateMutability": "view",
      "type": "function"
    },
    {
      "inputs": [],
      "name": "BORROWING_FEE_FLOOR",
      "outputs": [
        {
          "internalType": "uint256",
          "name": "",
          "type": "uint256"
        }
      ],
      "stateMutability": "view",
      "type": "function"
    },
    {
      "inputs": [],
      "name": "CCR",
      "outputs": [
        {
          "internalType": "uint256",
          "name": "",
          "type": "uint256"
        }
      ],
      "stateMutability": "view",
      "type": "function"
    },
    {
      "inputs": [],
      "name": "DECIMAL_PRECISION",
      "outputs": [
        {
          "internalType": "uint256",
          "name": "",
          "type": "uint256"
        }
      ],
      "stateMutability": "view",
      "type": "function"
    },
    {
      "inputs": [],
      "name": "LUSD_GAS_COMPENSATION",
      "outputs": [
        {
          "internalType": "uint256",
          "name": "",
          "type": "uint256"
        }
      ],
      "stateMutability": "view",
      "type": "function"
    },
    {
      "inputs": [],
      "name": "L_ETH",
      "outputs": [
        {
          "internalType": "uint256",
          "name": "",
          "type": "uint256"
        }
      ],
      "stateMutability": "view",
      "type": "function"
    },
    {
      "inputs": [],
      "name": "L_LUSDDebt",
      "outputs": [
        {
          "internalType": "uint256",
          "name": "",
          "type": "uint256"
        }
      ],
      "stateMutability": "view",
      "type": "function"
    },
    {
      "inputs": [],
      "name": "MAX_BORROWING_FEE",
      "outputs": [
        {
          "internalType": "uint256",
          "name": "",
          "type": "uint256"
        }
      ],
      "stateMutability": "view",
      "type": "function"
    },
    {
      "inputs": [],
      "name": "MCR",
      "outputs": [
        {
          "internalType": "uint256",
          "name": "",
          "type": "uint256"
        }
      ],
      "stateMutability": "view",
      "type": "function"
    },
    {
      "inputs": [],
      "name": "MINUTE_DECAY_FACTOR",
      "outputs": [
        {
          "internalType": "uint256",
          "name": "",
          "type": "uint256"
        }
      ],
      "stateMutability": "view",
      "type": "function"
    },
    {
      "inputs": [],
      "name": "MIN_NET_DEBT",
      "outputs": [
        {
          "internalType": "uint256",
          "name": "",
          "type": "uint256"
        }
      ],
      "stateMutability": "view",
      "type": "function"
    },
    {
      "inputs": [],
      "name": "NAME",
      "outputs": [
        {
          "internalType": "string",
          "name": "",
          "type": "string"
        }
      ],
      "stateMutability": "view",
      "type": "function"
    },
    {
      "inputs": [],
      "name": "PERCENT_DIVISOR",
      "outputs": [
        {
          "internalType": "uint256",
          "name": "",
          "type": "uint256"
        }
      ],
      "stateMutability": "view",
      "type": "function"
    },
    {
      "inputs": [],
      "name": "REDEMPTION_FEE_FLOOR",
      "outputs": [
        {
          "internalType": "uint256",
          "name": "",
          "type": "uint256"
        }
      ],
      "stateMutability": "view",
      "type": "function"
    },
    {
      "inputs": [],
      "name": "SECONDS_IN_ONE_MINUTE",
      "outputs": [
        {
          "internalType": "uint256",
          "name": "",
          "type": "uint256"
        }
      ],
      "stateMutability": "view",
      "type": "function"
    },
    {
      "inputs": [
        {
          "internalType": "uint256",
          "name": "",
          "type": "uint256"
        }
      ],
      "name": "TroveOwners",
      "outputs": [
        {
          "internalType": "address",
          "name": "",
          "type": "address"
        }
      ],
      "stateMutability": "view",
      "type": "function"
    },
    {
      "inputs": [
        {
          "internalType": "address",
          "name": "",
          "type": "address"
        }
      ],
      "name": "Troves",
      "outputs": [
        {
          "internalType": "uint256",
          "name": "debt",
          "type": "uint256"
        },
        {
          "internalType": "uint256",
          "name": "coll",
          "type": "uint256"
        },
        {
          "internalType": "uint256",
          "name": "stake",
          "type": "uint256"
        },
        {
          "internalType": "enum TroveManager.Status",
          "name": "status",
          "type": "uint8"
        },
        {
          "internalType": "uint128",
          "name": "arrayIndex",
          "type": "uint128"
        }
      ],
      "stateMutability": "view",
      "type": "function"
    },
    {
      "inputs": [],
      "name": "_100pct",
      "outputs": [
        {
          "internalType": "uint256",
          "name": "",
          "type": "uint256"
        }
      ],
      "stateMutability": "view",
      "type": "function"
    },
    {
      "inputs": [],
      "name": "activePool",
      "outputs": [
        {
          "internalType": "contract IActivePool",
          "name": "",
          "type": "address"
        }
      ],
      "stateMutability": "view",
      "type": "function"
    },
    {
      "inputs": [
        {
          "internalType": "address",
          "name": "_borrower",
          "type": "address"
        }
      ],
      "name": "addTroveOwnerToArray",
      "outputs": [
        {
          "internalType": "uint256",
          "name": "index",
          "type": "uint256"
        }
      ],
      "stateMutability": "nonpayable",
      "type": "function"
    },
    {
      "inputs": [
        {
          "internalType": "address",
          "name": "_borrower",
          "type": "address"
        }
      ],
      "name": "applyPendingRewards",
      "outputs": [],
      "stateMutability": "nonpayable",
      "type": "function"
    },
    {
      "inputs": [],
      "name": "baseRate",
      "outputs": [
        {
          "internalType": "uint256",
          "name": "",
          "type": "uint256"
        }
      ],
      "stateMutability": "view",
      "type": "function"
    },
    {
      "inputs": [
        {
          "internalType": "address[]",
          "name": "_troveArray",
          "type": "address[]"
        }
      ],
      "name": "batchLiquidateTroves",
      "outputs": [],
      "stateMutability": "nonpayable",
      "type": "function"
    },
    {
      "inputs": [],
      "name": "borrowerOperationsAddress",
      "outputs": [
        {
          "internalType": "address",
          "name": "",
          "type": "address"
        }
      ],
      "stateMutability": "view",
      "type": "function"
    },
    {
      "inputs": [
        {
          "internalType": "uint256",
          "name": "_price",
          "type": "uint256"
        }
      ],
      "name": "checkRecoveryMode",
      "outputs": [
        {
          "internalType": "bool",
          "name": "",
          "type": "bool"
        }
      ],
      "stateMutability": "view",
      "type": "function"
    },
    {
      "inputs": [
        {
          "internalType": "address",
          "name": "_borrower",
          "type": "address"
        }
      ],
      "name": "closeTrove",
      "outputs": [],
      "stateMutability": "nonpayable",
      "type": "function"
    },
    {
      "inputs": [],
      "name": "decayBaseRateFromBorrowing",
      "outputs": [],
      "stateMutability": "nonpayable",
      "type": "function"
    },
    {
      "inputs": [
        {
          "internalType": "address",
          "name": "_borrower",
          "type": "address"
        },
        {
          "internalType": "uint256",
          "name": "_collDecrease",
          "type": "uint256"
        }
      ],
      "name": "decreaseTroveColl",
      "outputs": [
        {
          "internalType": "uint256",
          "name": "",
          "type": "uint256"
        }
      ],
      "stateMutability": "nonpayable",
      "type": "function"
    },
    {
      "inputs": [
        {
          "internalType": "address",
          "name": "_borrower",
          "type": "address"
        },
        {
          "internalType": "uint256",
          "name": "_debtDecrease",
          "type": "uint256"
        }
      ],
      "name": "decreaseTroveDebt",
      "outputs": [
        {
          "internalType": "uint256",
          "name": "",
          "type": "uint256"
        }
      ],
      "stateMutability": "nonpayable",
      "type": "function"
    },
    {
      "inputs": [],
      "name": "defaultPool",
      "outputs": [
        {
          "internalType": "contract IDefaultPool",
          "name": "",
          "type": "address"
        }
      ],
      "stateMutability": "view",
      "type": "function"
    },
    {
      "inputs": [
        {
          "internalType": "uint256",
          "name": "_LUSDDebt",
          "type": "uint256"
        }
      ],
      "name": "getBorrowingFee",
      "outputs": [
        {
          "internalType": "uint256",
          "name": "",
          "type": "uint256"
        }
      ],
      "stateMutability": "view",
      "type": "function"
    },
    {
      "inputs": [
        {
          "internalType": "uint256",
          "name": "_LUSDDebt",
          "type": "uint256"
        }
      ],
      "name": "getBorrowingFeeWithDecay",
      "outputs": [
        {
          "internalType": "uint256",
          "name": "",
          "type": "uint256"
        }
      ],
      "stateMutability": "view",
      "type": "function"
    },
    {
      "inputs": [],
      "name": "getBorrowingRate",
      "outputs": [
        {
          "internalType": "uint256",
          "name": "",
          "type": "uint256"
        }
      ],
      "stateMutability": "view",
      "type": "function"
    },
    {
      "inputs": [],
      "name": "getBorrowingRateWithDecay",
      "outputs": [
        {
          "internalType": "uint256",
          "name": "",
          "type": "uint256"
        }
      ],
      "stateMutability": "view",
      "type": "function"
    },
    {
      "inputs": [
        {
          "internalType": "address",
          "name": "_borrower",
          "type": "address"
        },
        {
          "internalType": "uint256",
          "name": "_price",
          "type": "uint256"
        }
      ],
      "name": "getCurrentICR",
      "outputs": [
        {
          "internalType": "uint256",
          "name": "",
          "type": "uint256"
        }
      ],
      "stateMutability": "view",
      "type": "function"
    },
    {
      "inputs": [
        {
          "internalType": "address",
          "name": "_borrower",
          "type": "address"
        }
      ],
      "name": "getEntireDebtAndColl",
      "outputs": [
        {
          "internalType": "uint256",
          "name": "debt",
          "type": "uint256"
        },
        {
          "internalType": "uint256",
          "name": "coll",
          "type": "uint256"
        },
        {
          "internalType": "uint256",
          "name": "pendingLUSDDebtReward",
          "type": "uint256"
        },
        {
          "internalType": "uint256",
          "name": "pendingETHReward",
          "type": "uint256"
        }
      ],
      "stateMutability": "view",
      "type": "function"
    },
    {
      "inputs": [],
      "name": "getEntireSystemColl",
      "outputs": [
        {
          "internalType": "uint256",
          "name": "entireSystemColl",
          "type": "uint256"
        }
      ],
      "stateMutability": "view",
      "type": "function"
    },
    {
      "inputs": [],
      "name": "getEntireSystemDebt",
      "outputs": [
        {
          "internalType": "uint256",
          "name": "entireSystemDebt",
          "type": "uint256"
        }
      ],
      "stateMutability": "view",
      "type": "function"
    },
    {
      "inputs": [
        {
          "internalType": "address",
          "name": "_borrower",
          "type": "address"
        }
      ],
      "name": "getNominalICR",
      "outputs": [
        {
          "internalType": "uint256",
          "name": "",
          "type": "uint256"
        }
      ],
      "stateMutability": "view",
      "type": "function"
    },
    {
      "inputs": [
        {
          "internalType": "address",
          "name": "_borrower",
          "type": "address"
        }
      ],
      "name": "getPendingETHReward",
      "outputs": [
        {
          "internalType": "uint256",
          "name": "",
          "type": "uint256"
        }
      ],
      "stateMutability": "view",
      "type": "function"
    },
    {
      "inputs": [
        {
          "internalType": "address",
          "name": "_borrower",
          "type": "address"
        }
      ],
      "name": "getPendingLUSDDebtReward",
      "outputs": [
        {
          "internalType": "uint256",
          "name": "",
          "type": "uint256"
        }
      ],
      "stateMutability": "view",
      "type": "function"
    },
    {
      "inputs": [
        {
          "internalType": "uint256",
          "name": "_ETHDrawn",
          "type": "uint256"
        }
      ],
      "name": "getRedemptionFeeWithDecay",
      "outputs": [
        {
          "internalType": "uint256",
          "name": "",
          "type": "uint256"
        }
      ],
      "stateMutability": "view",
      "type": "function"
    },
    {
      "inputs": [],
      "name": "getRedemptionRate",
      "outputs": [
        {
          "internalType": "uint256",
          "name": "",
          "type": "uint256"
        }
      ],
      "stateMutability": "view",
      "type": "function"
    },
    {
      "inputs": [],
      "name": "getRedemptionRateWithDecay",
      "outputs": [
        {
          "internalType": "uint256",
          "name": "",
          "type": "uint256"
        }
      ],
      "stateMutability": "view",
      "type": "function"
    },
    {
      "inputs": [
        {
          "internalType": "uint256",
          "name": "_price",
          "type": "uint256"
        }
      ],
      "name": "getTCR",
      "outputs": [
        {
          "internalType": "uint256",
          "name": "",
          "type": "uint256"
        }
      ],
      "stateMutability": "view",
      "type": "function"
    },
    {
      "inputs": [
        {
          "internalType": "address",
          "name": "_borrower",
          "type": "address"
        }
      ],
      "name": "getTroveColl",
      "outputs": [
        {
          "internalType": "uint256",
          "name": "",
          "type": "uint256"
        }
      ],
      "stateMutability": "view",
      "type": "function"
    },
    {
      "inputs": [
        {
          "internalType": "address",
          "name": "_borrower",
          "type": "address"
        }
      ],
      "name": "getTroveDebt",
      "outputs": [
        {
          "internalType": "uint256",
          "name": "",
          "type": "uint256"
        }
      ],
      "stateMutability": "view",
      "type": "function"
    },
    {
      "inputs": [
        {
          "internalType": "uint256",
          "name": "_index",
          "type": "uint256"
        }
      ],
      "name": "getTroveFromTroveOwnersArray",
      "outputs": [
        {
          "internalType": "address",
          "name": "",
          "type": "address"
        }
      ],
      "stateMutability": "view",
      "type": "function"
    },
    {
      "inputs": [],
      "name": "getTroveOwnersCount",
      "outputs": [
        {
          "internalType": "uint256",
          "name": "",
          "type": "uint256"
        }
      ],
      "stateMutability": "view",
      "type": "function"
    },
    {
      "inputs": [
        {
          "internalType": "address",
          "name": "_borrower",
          "type": "address"
        }
      ],
      "name": "getTroveStake",
      "outputs": [
        {
          "internalType": "uint256",
          "name": "",
          "type": "uint256"
        }
      ],
      "stateMutability": "view",
      "type": "function"
    },
    {
      "inputs": [
        {
          "internalType": "address",
          "name": "_borrower",
          "type": "address"
        }
      ],
      "name": "getTroveStatus",
      "outputs": [
        {
          "internalType": "uint256",
          "name": "",
          "type": "uint256"
        }
      ],
      "stateMutability": "view",
      "type": "function"
    },
    {
      "inputs": [
        {
          "internalType": "address",
          "name": "_borrower",
          "type": "address"
        }
      ],
      "name": "hasPendingRewards",
      "outputs": [
        {
          "internalType": "bool",
          "name": "",
          "type": "bool"
        }
      ],
      "stateMutability": "view",
      "type": "function"
    },
    {
      "inputs": [
        {
          "internalType": "address",
          "name": "_borrower",
          "type": "address"
        },
        {
          "internalType": "uint256",
          "name": "_collIncrease",
          "type": "uint256"
        }
      ],
      "name": "increaseTroveColl",
      "outputs": [
        {
          "internalType": "uint256",
          "name": "",
          "type": "uint256"
        }
      ],
      "stateMutability": "nonpayable",
      "type": "function"
    },
    {
      "inputs": [
        {
          "internalType": "address",
          "name": "_borrower",
          "type": "address"
        },
        {
          "internalType": "uint256",
          "name": "_debtIncrease",
          "type": "uint256"
        }
      ],
      "name": "increaseTroveDebt",
      "outputs": [
        {
          "internalType": "uint256",
          "name": "",
          "type": "uint256"
        }
      ],
      "stateMutability": "nonpayable",
      "type": "function"
    },
    {
      "inputs": [],
      "name": "isOwner",
      "outputs": [
        {
          "internalType": "bool",
          "name": "",
          "type": "bool"
        }
      ],
      "stateMutability": "view",
      "type": "function"
    },
    {
      "inputs": [],
      "name": "lastETHError_Redistribution",
      "outputs": [
        {
          "internalType": "uint256",
          "name": "",
          "type": "uint256"
        }
      ],
      "stateMutability": "view",
      "type": "function"
    },
    {
      "inputs": [],
      "name": "lastFeeOperationTime",
      "outputs": [
        {
          "internalType": "uint256",
          "name": "",
          "type": "uint256"
        }
      ],
      "stateMutability": "view",
      "type": "function"
    },
    {
      "inputs": [],
      "name": "lastLUSDDebtError_Redistribution",
      "outputs": [
        {
          "internalType": "uint256",
          "name": "",
          "type": "uint256"
        }
      ],
      "stateMutability": "view",
      "type": "function"
    },
    {
      "inputs": [
        {
          "internalType": "address",
          "name": "_borrower",
          "type": "address"
        }
      ],
      "name": "liquidate",
      "outputs": [],
      "stateMutability": "nonpayable",
      "type": "function"
    },
    {
      "inputs": [
        {
          "internalType": "uint256",
          "name": "_n",
          "type": "uint256"
        }
      ],
      "name": "liquidateTroves",
      "outputs": [],
      "stateMutability": "nonpayable",
      "type": "function"
    },
    {
      "inputs": [],
      "name": "lqtyStaking",
      "outputs": [
        {
          "internalType": "contract ILQTYStaking",
          "name": "",
          "type": "address"
        }
      ],
      "stateMutability": "view",
      "type": "function"
    },
    {
      "inputs": [],
      "name": "lqtyToken",
      "outputs": [
        {
          "internalType": "contract ILQTYToken",
          "name": "",
          "type": "address"
        }
      ],
      "stateMutability": "view",
      "type": "function"
    },
    {
      "inputs": [],
      "name": "lusdToken",
      "outputs": [
        {
          "internalType": "contract ILUSDToken",
          "name": "",
          "type": "address"
        }
      ],
      "stateMutability": "view",
      "type": "function"
    },
    {
      "inputs": [],
      "name": "owner",
      "outputs": [
        {
          "internalType": "address",
          "name": "",
          "type": "address"
        }
      ],
      "stateMutability": "view",
      "type": "function"
    },
    {
      "inputs": [],
      "name": "priceFeed",
      "outputs": [
        {
          "internalType": "contract IPriceFeed",
          "name": "",
          "type": "address"
        }
      ],
      "stateMutability": "view",
      "type": "function"
    },
    {
      "inputs": [
        {
          "internalType": "uint256",
          "name": "_LUSDamount",
          "type": "uint256"
        },
        {
          "internalType": "address",
          "name": "_firstRedemptionHint",
          "type": "address"
        },
        {
          "internalType": "address",
          "name": "_upperPartialRedemptionHint",
          "type": "address"
        },
        {
          "internalType": "address",
          "name": "_lowerPartialRedemptionHint",
          "type": "address"
        },
        {
          "internalType": "uint256",
          "name": "_partialRedemptionHintNICR",
          "type": "uint256"
        },
        {
          "internalType": "uint256",
          "name": "_maxIterations",
          "type": "uint256"
        },
        {
          "internalType": "uint256",
          "name": "_maxFeePercentage",
          "type": "uint256"
        }
      ],
      "name": "redeemCollateral",
      "outputs": [],
      "stateMutability": "nonpayable",
      "type": "function"
    },
    {
      "inputs": [
        {
          "internalType": "address",
          "name": "_borrower",
          "type": "address"
        }
      ],
      "name": "removeStake",
      "outputs": [],
      "stateMutability": "nonpayable",
      "type": "function"
    },
    {
      "inputs": [
        {
          "internalType": "address",
          "name": "",
          "type": "address"
        }
      ],
      "name": "rewardSnapshots",
      "outputs": [
        {
          "internalType": "uint256",
          "name": "ETH",
          "type": "uint256"
        },
        {
          "internalType": "uint256",
          "name": "LUSDDebt",
          "type": "uint256"
        }
      ],
      "stateMutability": "view",
      "type": "function"
    },
    {
      "inputs": [
        {
          "internalType": "address",
          "name": "_borrowerOperationsAddress",
          "type": "address"
        },
        {
          "internalType": "address",
          "name": "_activePoolAddress",
          "type": "address"
        },
        {
          "internalType": "address",
          "name": "_defaultPoolAddress",
          "type": "address"
        },
        {
          "internalType": "address",
          "name": "_stabilityPoolAddress",
          "type": "address"
        },
        {
          "internalType": "address",
          "name": "_gasPoolAddress",
          "type": "address"
        },
        {
          "internalType": "address",
          "name": "_collSurplusPoolAddress",
          "type": "address"
        },
        {
          "internalType": "address",
          "name": "_priceFeedAddress",
          "type": "address"
        },
        {
          "internalType": "address",
          "name": "_lusdTokenAddress",
          "type": "address"
        },
        {
          "internalType": "address",
          "name": "_sortedTrovesAddress",
          "type": "address"
        },
        {
          "internalType": "address",
          "name": "_lqtyTokenAddress",
          "type": "address"
        },
        {
          "internalType": "address",
          "name": "_lqtyStakingAddress",
          "type": "address"
        }
      ],
      "name": "setAddresses",
      "outputs": [],
      "stateMutability": "nonpayable",
      "type": "function"
    },
    {
      "inputs": [
        {
          "internalType": "address",
          "name": "_borrower",
          "type": "address"
        },
        {
          "internalType": "uint256",
          "name": "_num",
          "type": "uint256"
        }
      ],
      "name": "setTroveStatus",
      "outputs": [],
      "stateMutability": "nonpayable",
      "type": "function"
    },
    {
      "inputs": [],
      "name": "sortedTroves",
      "outputs": [
        {
          "internalType": "contract ISortedTroves",
          "name": "",
          "type": "address"
        }
      ],
      "stateMutability": "view",
      "type": "function"
    },
    {
      "inputs": [],
      "name": "stabilityPool",
      "outputs": [
        {
          "internalType": "contract IStabilityPool",
          "name": "",
          "type": "address"
        }
      ],
      "stateMutability": "view",
      "type": "function"
    },
    {
      "inputs": [],
      "name": "totalCollateralSnapshot",
      "outputs": [
        {
          "internalType": "uint256",
          "name": "",
          "type": "uint256"
        }
      ],
      "stateMutability": "view",
      "type": "function"
    },
    {
      "inputs": [],
      "name": "totalStakes",
      "outputs": [
        {
          "internalType": "uint256",
          "name": "",
          "type": "uint256"
        }
      ],
      "stateMutability": "view",
      "type": "function"
    },
    {
      "inputs": [],
      "name": "totalStakesSnapshot",
      "outputs": [
        {
          "internalType": "uint256",
          "name": "",
          "type": "uint256"
        }
      ],
      "stateMutability": "view",
      "type": "function"
    },
    {
      "inputs": [
        {
          "internalType": "address",
          "name": "_borrower",
          "type": "address"
        }
      ],
      "name": "updateStakeAndTotalStakes",
      "outputs": [
        {
          "internalType": "uint256",
          "name": "",
          "type": "uint256"
        }
      ],
      "stateMutability": "nonpayable",
      "type": "function"
    },
    {
      "inputs": [
        {
          "internalType": "address",
          "name": "_borrower",
          "type": "address"
        }
      ],
      "name": "updateTroveRewardSnapshots",
      "outputs": [],
      "stateMutability": "nonpayable",
      "type": "function"
    }
  ],
  "bytecode": "0x608060405234801561001057600080fd5b50600380546001600160a01b031916339081179091556040516000907f8be0079c531659141344cd1fd0a4f28419497f9722a3daafe3b4186f6b6457e0908290a3615a9880620000616000396000f3fe608060405234801561001057600080fd5b506004361061044a5760003560e01c8063795d26c31161023c578063b83f91a211610146578063d3d6f843116100c3578063e2ac77b011610087578063e2ac77b014610c67578063f34862de14610c8d578063f36b242514610cb3578063f92d34331461065d578063fe2ba84814610cbb5761044a565b8063d3d6f84314610bd3578063d5b3563514610bff578063d66a255314610c1c578063d9a7244414610c42578063dba1c5f214610c5f5761044a565b8063c52861f21161010a578063c52861f214610b69578063c7b5548114610b71578063cbd138ae14610b79578063d293c71014610b9f578063d380a37c14610bcb5761044a565b8063b83f91a214610ab7578063b91af97c14610abf578063bcd3752614610b0b578063bf9befb114610b59578063c35bc55014610b615761044a565b806396d711ff116101d4578063a3f4df7e11610198578063a3f4df7e146109e7578063ae91875414610a64578063b0d8e18114610a6c578063b7f8cf9b14610a92578063b82f263d14610a9a5761044a565b806396d711ff146109a35780639976cf45146109ab5780639dd233d2146109d7578063a20baee614610894578063a3a64017146109df5761044a565b8063795d26c3146108c9578063797250e3146108d15780637985c5e4146108d95780637f7dde4a14610955578063807d138d1461095d57806382fe3eb914610965578063887105d31461098b5780638da5cb5b146109935780638f32d59b1461099b5761044a565b8063477d66cf11610358578063631203b0116102d557806372423c171161029957806372423c171461086857806372fe25aa14610894578063741bef1a1461089c578063756b253e146108a4578063794e5724146108c15761044a565b8063631203b01461079157806364cee260146107ae578063653d46e7146107d457806366ca4a21146107f15780636ef64338146107f95761044a565b80635733d58f1161031c5780635733d58f146107275780635d6b480f1461072f5780635d8c96091461075b5780635dba4c4a1461078157806361ec893d146107895761044a565b8063477d66cf146106a3578063480cd578146106c05780634870dd9a146106e657806349eefeee146106ee5780634e443d9e146106f65761044a565b80631e8b1c2b116103e657806328d28b5b116103aa57806328d28b5b1461065d5780632b11551a146106655780632e86bbd81461066d5780632f865568146106755780633cc742251461069b5761044a565b80631e8b1c2b1461057c5780631f68f20a1461061f5780631f7af3c31461062757806321e378011461062f57806324092669146106555761044a565b8063048c661d1461044f578063060d49a314610473578063071a75411461048d5780630b0765571461049557806312610e92146104bd57806315d549f1146104e95780631673c79a1461050f57806318f2817a1461054e5780631bf4355514610574575b600080fd5b610457610ce1565b604080516001600160a01b039092168252519081900360200190f35b61047b610cf0565b60408051918252519081900360200190f35b61047b610cf6565b6104bb600480360360208110156104ab57600080fd5b50356001600160a01b0316610cfb565b005b61047b600480360360408110156104d357600080fd5b506001600160a01b038135169060200135610d23565b61047b600480360360208110156104ff57600080fd5b50356001600160a01b0316610d7b565b6105356004803603602081101561052557600080fd5b50356001600160a01b0316610d9f565b6040805192835260208301919091528051918290030190f35b61047b6004803603602081101561056457600080fd5b50356001600160a01b0316610db8565b61047b610dcb565b6104bb6004803603602081101561059257600080fd5b8101906020810181356401000000008111156105ad57600080fd5b8201836020820111156105bf57600080fd5b803590602001918460208302840111640100000000831117156105e157600080fd5b919080806020026020016040519081016040528093929190818152602001838360200280828437600092019190915250929550610dd8945050505050565b61047b61117a565b610457611180565b61047b6004803603602081101561064557600080fd5b50356001600160a01b031661118f565b61047b6111b9565b61047b6111cc565b61047b6111dd565b61047b6111ef565b6104bb6004803603602081101561068b57600080fd5b50356001600160a01b03166111fc565b610457611262565b61047b600480360360208110156106b957600080fd5b5035611271565b61047b600480360360208110156106d657600080fd5b50356001600160a01b0316611284565b61047b6112a2565b61047b6112a7565b6107136004803603602081101561070c57600080fd5b50356112ad565b604080519115158252519081900360200190f35b61047b6112b8565b6104bb6004803603604081101561074557600080fd5b506001600160a01b0381351690602001356112c4565b61047b6004803603602081101561077157600080fd5b50356001600160a01b0316611310565b6104bb6113d6565b61047b61143c565b61047b600480360360208110156107a757600080fd5b5035611441565b61047b600480360360208110156107c457600080fd5b50356001600160a01b031661144e565b6104bb600480360360208110156107ea57600080fd5b503561146c565b61047b61181a565b61081f6004803603602081101561080f57600080fd5b50356001600160a01b031661182c565b6040518086815260200185815260200184815260200183600481111561084157fe5b60ff1681526001600160801b03909216602083015250604080519182900301945092505050f35b61047b6004803603604081101561087e57600080fd5b506001600160a01b038135169060200135611866565b61047b6118c3565b6104576118cf565b610457600480360360208110156108ba57600080fd5b50356118de565b61047b611905565b61047b611911565b61047b611a12565b6104bb60048036036101608110156108f057600080fd5b506001600160a01b038135811691602081013582169160408201358116916060810135821691608082013581169160a081013582169160c082013581169160e08101358216916101008201358116916101208101358216916101409091013516611a18565b610457611e11565b61047b611e20565b6104bb6004803603602081101561097b57600080fd5b50356001600160a01b0316611e26565b61047b611e37565b610457611ef3565b610713611f02565b61047b611f13565b61047b600480360360408110156109c157600080fd5b506001600160a01b038135169060200135611f19565b61047b611f4c565b610457611f52565b6109ef611f61565b6040805160208082528351818301528351919283929083019185019080838360005b83811015610a29578181015183820152602001610a11565b50505050905090810190601f168015610a565780820380516001836020036101000a031916815260200191505b509250505060405180910390f35b610457611f89565b61047b60048036036020811015610a8257600080fd5b50356001600160a01b0316611f98565b610457611fbf565b61047b60048036036020811015610ab057600080fd5b5035611fce565b610457611fd9565b610ae560048036036020811015610ad557600080fd5b50356001600160a01b0316611fe8565b604080519485526020850193909352838301919091526060830152519081900360800190f35b6104bb600480360360e0811015610b2157600080fd5b508035906001600160a01b03602082013581169160408101358216916060820135169060808101359060a08101359060c0013561204c565b61047b6127ee565b61047b6127f4565b61047b6127fb565b61047b61280d565b6104bb60048036036020811015610b8f57600080fd5b50356001600160a01b0316612819565b61047b60048036036040811015610bb557600080fd5b506001600160a01b03813516906020013561282c565b61047b61284b565b61047b60048036036040811015610be957600080fd5b506001600160a01b038135169060200135612851565b61047b60048036036020811015610c1557600080fd5b5035612887565b61047b60048036036020811015610c3257600080fd5b50356001600160a01b031661289a565b61045760048036036020811015610c5857600080fd5b50356128b5565b61047b6128df565b61071360048036036020811015610c7d57600080fd5b50356001600160a01b03166128e5565b61047b60048036036020811015610ca357600080fd5b50356001600160a01b0316612943565b61047b612974565b6104bb60048036036020811015610cd157600080fd5b50356001600160a01b0316612981565b6005546001600160a01b031681565b60175481565b600281565b610d03612992565b600054600154610d20916001600160a01b039081169116836129dd565b50565b6000610d2d612992565b6001600160a01b0383166000908152600e6020526040812054610d56908463ffffffff612aff16565b6001600160a01b0385166000908152600e602052604090208190559150505b92915050565b6000610d85612992565b610d8e82612b48565b6001600160801b031690505b919050565b6014602052600090815260409020805460019091015482565b6000610dc2612992565b610d7582612be2565b686194049f30f720000081565b8051610e155760405162461bcd60e51b815260040180806020018281038252603681526020018061591e6036913960400191505060405180910390fd5b6000546001546005546001600160a01b03928316929182169116610e37615616565b610e3f615647565b600260009054906101000a90046001600160a01b03166001600160a01b0316630fdb11cf6040518163ffffffff1660e01b8152600401602060405180830381600087803b158015610e8f57600080fd5b505af1158015610ea3573d6000803e3d6000fd5b505050506040513d6020811015610eb957600080fd5b50518252604080516326fcbc6b60e21b815290516001600160a01b03851691639bf2f1ac916004808301926020929190829003018186803b158015610efd57600080fd5b505afa158015610f11573d6000803e3d6000fd5b505050506040513d6020811015610f2757600080fd5b505160208301528151610f3990612c91565b1580156040840152610f6157610f5a8585846000015185602001518a612cae565b9050610f79565b610f768585846000015185602001518a612ede565b90505b6000816020015111610fbc5760405162461bcd60e51b8152600401808060200182810382526022815260200180615a126022913960400191505060405180910390fd5b826001600160a01b031663335525ad82608001518360a001516040518363ffffffff1660e01b81526004018083815260200182815260200192505050600060405180830381600087803b15801561101257600080fd5b505af1158015611026573d6000803e3d6000fd5b5050505061103e85858360c001518460e00151612fa6565b610100810151156110bd57600754610100820151604080516364a197f360e01b81526001600160a01b039384166004820152602481019290925251918716916364a197f39160448082019260009290919082900301818387803b1580156110a457600080fd5b505af11580156110b8573d6000803e3d6000fd5b505050505b6110cb858260400151613227565b602081015160608301526101008101516040820151825161110392916110f7919063ffffffff612aff16565b9063ffffffff612aff16565b608080840182905260608085015160408086015186840151825193845260208401969096528282015291810193909352517f4152c73dd2614c4f9fc35e8c9cf16013cd588c75b49a4c1673ecffdcbcda94039281900390910190a161117285338360600151846040015161336e565b505050505050565b600c5481565b6009546001600160a01b031681565b6001600160a01b0381166000908152600e602052604081206003015460ff166004811115610d7557fe5b6064670de0b6b3a76400005b0460050281565b6103e8670de0b6b3a76400006111c5565b60006111ea600c54613471565b905090565b680ad78ebc5ac620000081565b611205816134a7565b60408051600180825281830190925260609160208083019080368337019050509050818160008151811061123557fe5b60200260200101906001600160a01b031690816001600160a01b03168152505061125e81610dd8565b5050565b6001546001600160a01b031681565b6000610d7561127e61181a565b8361350f565b6001600160a01b03166000908152600e602052604090206001015490565b60c881565b60155490565b6000610d7582612c91565b6714d1120d7b16000081565b6112cc612992565b8060048111156112d857fe5b6001600160a01b0383166000908152600e60205260409020600301805460ff1916600183600481111561130757fe5b02179055505050565b6001600160a01b038116600090815260146020526040812054601254829061133e908363ffffffff612aff16565b9050801580611377575060016001600160a01b0385166000908152600e602052604090206003015460ff16600481111561137457fe5b14155b1561138757600092505050610d9a565b6001600160a01b0384166000908152600e6020526040812060020154906113cc670de0b6b3a76400006113c0848663ffffffff61352d16565b9063ffffffff61358616565b9695505050505050565b6113de612992565b60006113e86135c8565b9050670de0b6b3a76400008111156113fc57fe5b600c8190556040805182815290517fc454ee9b76c52f782a256af821b857ca6e125d1e3333bcede402fec2bed9600c9181900360200190a1610d2061360c565b603c81565b6000610d7561127e612974565b6001600160a01b03166000908152600e602052604090206002015490565b611474615693565b506040805160e081018252600080546001600160a01b0390811683526001548116602084015292820181905260608201819052600b548316608083015260a0820181905260c08201526005549091166114cb615616565b6114d3615647565b600260009054906101000a90046001600160a01b03166001600160a01b0316630fdb11cf6040518163ffffffff1660e01b8152600401602060405180830381600087803b15801561152357600080fd5b505af1158015611537573d6000803e3d6000fd5b505050506040513d602081101561154d57600080fd5b50518252604080516326fcbc6b60e21b815290516001600160a01b03851691639bf2f1ac916004808301926020929190829003018186803b15801561159157600080fd5b505afa1580156115a5573d6000803e3d6000fd5b505050506040513d60208110156115bb57600080fd5b5051602083015281516115cd90612c91565b15801560408401526115f4576115ed848360000151846020015188613668565b9050611614565b611611846000015185602001518460000151856020015189613a03565b90505b60008160200151116116575760405162461bcd60e51b8152600401808060200182810382526022815260200180615a126022913960400191505060405180910390fd5b826001600160a01b031663335525ad82608001518360a001516040518363ffffffff1660e01b81526004018083815260200182815260200192505050600060405180830381600087803b1580156116ad57600080fd5b505af11580156116c1573d6000803e3d6000fd5b505050506116e1846000015185602001518360c001518460e00151612fa6565b61010081015115611762578351600754610100830151604080516364a197f360e01b81526001600160a01b03938416600482015260248101929092525191909216916364a197f391604480830192600092919082900301818387803b15801561174957600080fd5b505af115801561175d573d6000803e3d6000fd5b505050505b61177484600001518260400151613227565b60208101516060830152610100810151604082015182516117a092916110f7919063ffffffff612aff16565b608080840182905260608085015160408086015186840151825193845260208401969096528282015291810193909352517f4152c73dd2614c4f9fc35e8c9cf16013cd588c75b49a4c1673ecffdcbcda94039281900390910190a16118138460000151338360600151846040015161336e565b5050505050565b60006111ea6118276135c8565b613b35565b600e6020526000908152604090208054600182015460028301546003909301549192909160ff81169061010090046001600160801b031685565b6000611870612992565b6001600160a01b0383166000908152600e602052604081206001015461189c908463ffffffff613b5c16565b6001600160a01b0385166000908152600e6020526040902060010181905591505092915050565b670de0b6b3a764000081565b6002546001600160a01b031681565b601581815481106118eb57fe5b6000918252602090912001546001600160a01b0316905081565b670f43fc2c04ee000081565b6000805460408051632f5a97e560e11b8152905183926001600160a01b031691635eb52fca916004808301926020929190829003018186803b15801561195657600080fd5b505afa15801561196a573d6000803e3d6000fd5b505050506040513d602081101561198057600080fd5b505160015460408051632f5a97e560e11b815290519293506000926001600160a01b0390921691635eb52fca91600480820192602092909190829003018186803b1580156119cd57600080fd5b505afa1580156119e1573d6000803e3d6000fd5b505050506040513d60208110156119f757600080fd5b50519050611a0b828263ffffffff613b5c16565b9250505090565b60165481565b611a20611f02565b611a71576040805162461bcd60e51b815260206004820181905260248201527f4f776e61626c653a2063616c6c6572206973206e6f7420746865206f776e6572604482015290519081900360640190fd5b611a7a8b613bb6565b611a838a613bb6565b611a8c89613bb6565b611a9588613bb6565b611a9e87613bb6565b611aa786613bb6565b611ab085613bb6565b611ab984613bb6565b611ac283613bb6565b611acb82613bb6565b611ad481613bb6565b600480546001600160a01b03199081166001600160a01b038e81169182179093556000805483168e85161790556001805483168d85161790556005805483168c85161790556006805483168b85161790556007805483168a8516179055600280548316898516179055600880548316888516179055600b80548316878516179055600980548316868516179055600a805490921692841692909217905560408051918252517f3ca631ffcd2a9b5d9ae18543fc82f58eb4ca33af9e6ab01b7a8e95331e6ed985916020908290030190a1604080516001600160a01b038c16815290517f78f058b189175430c48dc02699e3a0031ea4ff781536dc2fab847de4babdd8829181900360200190a1604080516001600160a01b038b16815290517f5ee0cae2f063ed938bb55046f6a932fb6ae792bf43624806bb90abe68a50be9b9181900360200190a1604080516001600160a01b038a16815290517f82966d27eea39b038ee0fa30cd16532bb24f6e65d31cb58fb227aa5766cdcc7f9181900360200190a1604080516001600160a01b038916815290517fcfb07d791fcafc032b35837b50eb84b74df518cf4cc287e8084f47630fa70fa09181900360200190a1604080516001600160a01b038816815290517fe67f36a6e961157d6eff83b91f3af5a62131ceb6f04954ef74f51c1c05e7f88d9181900360200190a1604080516001600160a01b038716815290517f8c537274438aa850a330284665d81a85dd38267d09e4050d416bfc94142db2649181900360200190a1604080516001600160a01b038616815290517f227eec0ec317af6ab1a9587ffa1c84332522eb4c583a908f89babc05f8f339bd9181900360200190a1604080516001600160a01b038516815290517f65f4cf077bc01e4742eb5ad98326f6e95b63548ea24b17f8d5e823111fe788009181900360200190a1604080516001600160a01b038416815290517f2ac6e99201ddc1b6eac6f8f28662d1ecafee131f6eb98c29de54528a9888a7d19181900360200190a1604080516001600160a01b038316815290517f756ebc192164c295bba134b5aacd72cc7aff8098a670d1f0a5f6b3a0b4ce67079181900360200190a1611e04613c65565b5050505050505050505050565b6000546001600160a01b031681565b60105481565b611e2e612992565b610d2081613caf565b6000805460408051630a7b61df60e11b8152905183926001600160a01b0316916314f6c3be916004808301926020929190829003018186803b158015611e7c57600080fd5b505afa158015611e90573d6000803e3d6000fd5b505050506040513d6020811015611ea657600080fd5b505160015460408051630a7b61df60e11b815290519293506000926001600160a01b03909216916314f6c3be91600480820192602092909190829003018186803b1580156119cd57600080fd5b6003546001600160a01b031690565b6003546001600160a01b0316331490565b60115481565b6000611f23612992565b6001600160a01b0383166000908152600e6020526040812054610d56908463ffffffff613b5c16565b60125481565b600a546001600160a01b031681565b6040518060400160405280600c81526020016b2a3937bb32a6b0b730b3b2b960a11b81525081565b600b546001600160a01b031681565b6000806000611fa684613d1a565b915091506000611fb68383613da0565b95945050505050565b6004546001600160a01b031681565b6000610d7582613dd5565b6008546001600160a01b031681565b6001600160a01b0381166000908152600e60205260408120805460019091015490918061201485612943565b915061201f85611310565b9050612031848363ffffffff613b5c16565b9350612043838263ffffffff613b5c16565b92509193509193565b612054615693565b506040805160e0810182526000546001600160a01b03908116825260015481166020830152600854811692820192909252600a5482166060820152600b5482166080820152600754821660a082015260065490911660c08201526120b66156cf565b6120bf83613e01565b6120c7613e5b565b600260009054906101000a90046001600160a01b03166001600160a01b0316630fdb11cf6040518163ffffffff1660e01b8152600401602060405180830381600087803b15801561211757600080fd5b505af115801561212b573d6000803e3d6000fd5b505050506040513d602081101561214157600080fd5b505160c0820181905261215390613f1f565b61215c89613f6e565b61216b8260400151338b613fad565b612173611911565b60e0820181905260408084015181516370a0823160e01b815233600482015291516001600160a01b03909116916370a08231916024808301926020929190829003018186803b1580156121c557600080fd5b505afa1580156121d9573d6000803e3d6000fd5b505050506040513d60208110156121ef57600080fd5b505111156121f957fe5b888152608082015160c0820151600091612214918b9061406d565b1561222057508761234a565b82608001516001600160a01b0316634d6228316040518163ffffffff1660e01b815260040160206040518083038186803b15801561225d57600080fd5b505afa158015612271573d6000803e3d6000fd5b505050506040513d602081101561228757600080fd5b505190505b6001600160a01b038116158015906122b85750670f43fc2c04ee00006122b6828460c0015161282c565b105b1561234a5782608001516001600160a01b031663b72703ac826040518263ffffffff1660e01b815260040180826001600160a01b03166001600160a01b0316815260200191505060206040518083038186803b15801561231757600080fd5b505afa15801561232b573d6000803e3d6000fd5b505050506040513d602081101561234157600080fd5b5051905061228c565b846123555760001994505b6001600160a01b0381161580159061236d5750815115155b80156123795750600085115b156124ad57848060019003955050600083608001516001600160a01b031663b72703ac836040518263ffffffff1660e01b815260040180826001600160a01b03166001600160a01b0316815260200191505060206040518083038186803b1580156123e357600080fd5b505afa1580156123f7573d6000803e3d6000fd5b505050506040513d602081101561240d57600080fd5b50518451602086015191925061242391846129dd565b61242b615714565b612442858486600001518760c001518e8e8e6141e0565b90508060400151156124555750506124ad565b8051602085015161246b9163ffffffff613b5c16565b602080860191909152810151604085015161248b9163ffffffff613b5c16565b6040850152805184516124a39163ffffffff612aff16565b8452509050612355565b60008260400151116124f05760405162461bcd60e51b81526004018080602001828103825260298152602001806157c16029913960400191505060405180910390fd5b61250782604001518360c001518460e00151614493565b50612515826040015161453b565b60608301819052604083015161252c919086614548565b82600001516001600160a01b03166364a197f3846060015184606001516040518363ffffffff1660e01b815260040180836001600160a01b03166001600160a01b0316815260200182815260200192505050600060405180830381600087803b15801561259857600080fd5b505af11580156125ac573d6000803e3d6000fd5b5050505082606001516001600160a01b0316631e3e2a1a83606001516040518263ffffffff1660e01b815260040180828152602001915050600060405180830381600087803b1580156125fe57600080fd5b505af1158015612612573d6000803e3d6000fd5b505050506060820151604083015161262991612aff565b8260800181815250507f43a3f4082a4dbc33d78e317d2497d3a730bc7fc3574159dcea1056e62e5d9ad88a8360200151846040015185606001516040518085815260200184815260200183815260200182815260200194505050505060405180910390a182604001516001600160a01b0316639dc29fac3384602001516040518363ffffffff1660e01b815260040180836001600160a01b03166001600160a01b0316815260200182815260200192505050600060405180830381600087803b1580156126f557600080fd5b505af1158015612709573d6000803e3d6000fd5b5050505082600001516001600160a01b03166338d995a883602001516040518263ffffffff1660e01b815260040180828152602001915050600060405180830381600087803b15801561275b57600080fd5b505af115801561276f573d6000803e3d6000fd5b505084516080850151604080516364a197f360e01b81523360048201526024810192909252516001600160a01b0390921693506364a197f3925060448082019260009290919082900301818387803b1580156127ca57600080fd5b505af11580156127de573d6000803e3d6000fd5b5050505050505050505050505050565b600f5481565b6212750081565b60006111ea6128086135c8565b613471565b670ddd4b8c6c7d70d881565b612821612992565b610d208160026145bd565b600080600061283a85613d1a565b9150915060006113cc8383876146d6565b600d5481565b600061285b612992565b6001600160a01b0383166000908152600e602052604081206001015461189c908463ffffffff612aff16565b6000610d756128946127fb565b83614706565b6001600160a01b03166000908152600e602052604090205490565b6000601582815481106128c457fe5b6000918252602090912001546001600160a01b031692915050565b60135481565b600060016001600160a01b0383166000908152600e602052604090206003015460ff16600481111561291357fe5b1461292057506000610d9a565b506012546001600160a01b03821660009081526014602052604090205410919050565b6001600160a01b038116600090815260146020526040812060010154601354829061133e908363ffffffff612aff16565b60006111ea600c54613b35565b612989612992565b610d2081614765565b6004546001600160a01b031633146129db5760405162461bcd60e51b815260040180806020018281038252603b8152602001806158e3603b913960400191505060405180910390fd5b565b6129e6816128e5565b15612afa576129f4816134a7565b60006129ff82611310565b90506000612a0c83612943565b6001600160a01b0384166000908152600e6020526040902060010154909150612a3b908363ffffffff613b5c16565b6001600160a01b0384166000908152600e60205260409020600181019190915554612a6c908263ffffffff613b5c16565b6001600160a01b0384166000908152600e6020526040902055612a8e83613caf565b612a9a858583856147b5565b6001600160a01b0383166000818152600e602090815260408083208054600182015460029092015483519182529381019190915280820192909252606082019290925290516000805160206158c38339815191529181900360800190a250505b505050565b6000612b4183836040518060400160405280601e81526020017f536166654d6174683a207375627472616374696f6e206f766572666c6f7700008152506148b7565b9392505050565b601580546001808201835560008381527f55f448fdea98c4d29eb340757ef0a66cd03dbb9538908a6a81d96026b71ec47590920180546001600160a01b0319166001600160a01b03861617905591549091612ba39190612aff565b6001600160a01b03929092166000908152600e602052604090206003018054610100600160881b0319166101006001600160801b038516021790555090565b6001600160a01b0381166000908152600e60205260408120600101548190612c099061494e565b6001600160a01b0384166000908152600e60205260409020600201805490829055600f5491925090612c53908390612c47908463ffffffff612aff16565b9063ffffffff613b5c16565b600f81905560408051918252517f6bac5e0eb3c44eb03a60ab11ec3a2c051771616aecadbcfff2630aabae5203829181900360200190a15092915050565b600080612c9d83613dd5565b6714d1120d7b160000119392505050565b612cb6615647565b612cbe615737565b612cc6615647565b84825260006080830152612cd8611911565b60a0830152612ce5611e37565b60c0830152600060208301525b835182602001511015612ed35783826020015181518110612d0f57fe5b6020908102919091018101516001600160a01b0316606084018190526000908152600e909152604090206003015460019060ff166004811115612d4e57fe5b14612d5857612ec3565b612d6682606001518761282c565b60408301526080820151612e6557670f43fc2c04ee0000826040015110158015612d8f57508151155b15612d9957612ec3565b6000612dae8360c001518460a00151896146d6565b9050612dcb8989856060015186604001518760000151868d61498a565b60808101518451919350612de5919063ffffffff612aff16565b8352608082015160a0840151612e009163ffffffff612aff16565b8360a0018181525050612e358261010001516110f784604001516110f78660a001518860c00151612aff90919063ffffffff16565b60c0840152612e448483614cbd565b9350612e598360c001518460a0015189614dd4565b15608084015250612ec3565b81608001518015612e815750670f43fc2c04ee00008260400151105b15612ec357612e9a888884606001518560000151614df5565b60808101518351919250612eb4919063ffffffff612aff16565b8252612ec08382614cbd565b92505b6020820180516001019052612cf2565b505095945050505050565b612ee6615647565b612eee615737565b612ef6615647565b848252600060208301525b835182602001511015612ed35783826020015181518110612f1e57fe5b60209081029190910101516001600160a01b031660608301819052612f43908761282c565b60408301819052670f43fc2c04ee00001115612f9657612f6d888884606001518560000151614df5565b60808101518351919250612f87919063ffffffff612aff16565b8252612f938382614cbd565b92505b6020820180516001019052612f01565b81612fb057613221565b601654600090612fd290612c4784670de0b6b3a764000063ffffffff61352d16565b90506000612ff7601754612c47670de0b6b3a76400008761352d90919063ffffffff16565b90506000613010600f548461358690919063ffffffff16565b90506000613029600f548461358690919063ffffffff16565b9050613050613043600f548461352d90919063ffffffff16565b859063ffffffff612aff16565b601655600f546130789061306b90839063ffffffff61352d16565b849063ffffffff612aff16565b60175560125461308e908363ffffffff613b5c16565b6012556013546130a4908263ffffffff613b5c16565b601381905560125460408051918252602082019290925281517f9f8bc8ab0daf5bceef75ecfd2085d1fcc6548c657ea970d9a23a60610d0737e3929181900390910190a1876001600160a01b03166338d995a8876040518263ffffffff1660e01b815260040180828152602001915050600060405180830381600087803b15801561312e57600080fd5b505af1158015613142573d6000803e3d6000fd5b50505050866001600160a01b031663cfb9329a876040518263ffffffff1660e01b815260040180828152602001915050600060405180830381600087803b15801561318c57600080fd5b505af11580156131a0573d6000803e3d6000fd5b50505050876001600160a01b03166364a197f388876040518363ffffffff1660e01b815260040180836001600160a01b03166001600160a01b0316815260200182815260200192505050600060405180830381600087803b15801561320457600080fd5b505af1158015613218573d6000803e3d6000fd5b50505050505050505b50505050565b600f546010819055506000826001600160a01b03166314f6c3be6040518163ffffffff1660e01b815260040160206040518083038186803b15801561326b57600080fd5b505afa15801561327f573d6000803e3d6000fd5b505050506040513d602081101561329557600080fd5b505160015460408051630a7b61df60e11b815290519293506000926001600160a01b03909216916314f6c3be91600480820192602092909190829003018186803b1580156132e257600080fd5b505afa1580156132f6573d6000803e3d6000fd5b505050506040513d602081101561330c57600080fd5b5051905061332481612c47848663ffffffff612aff16565b601181905560105460408051918252602082019290925281517f51bf4c63ec3cba9d03d43238abbdd979dd91bd16d9895c74ceea9118c7baaf60929181900390910190a150505050565b81156133ed5760085460065460408051631062c15f60e11b81526001600160a01b039283166004820152868316602482015260448101869052905191909216916320c582be91606480830192600092919082900301818387803b1580156133d457600080fd5b505af11580156133e8573d6000803e3d6000fd5b505050505b801561322157836001600160a01b03166364a197f384836040518363ffffffff1660e01b815260040180836001600160a01b03166001600160a01b0316815260200182815260200192505050600060405180830381600087803b15801561345357600080fd5b505af1158015613467573d6000803e3d6000fd5b5050505050505050565b6000610d75613499836103e8670de0b6b3a76400005b04600502613b5c90919063ffffffff16565b670de0b6b3a7640000614f64565b60016001600160a01b0382166000908152600e602052604090206003015460ff1660048111156134d357fe5b14610d205760405162461bcd60e51b815260040180806020018281038252602f815260200180615a34602f913960400191505060405180910390fd5b6000612b41670de0b6b3a76400006113c0858563ffffffff61352d16565b60008261353c57506000610d75565b8282028284828161354957fe5b0414612b415760405162461bcd60e51b81526004018080602001828103825260218152602001806158546021913960400191505060405180910390fd5b6000612b4183836040518060400160405280601a81526020017f536166654d6174683a206469766973696f6e206279207a65726f000000000000815250614f7a565b6000806135d3614fdf565b905060006135e9670ddd4b8c6c7d70d883614ffb565b9050611a0b670de0b6b3a76400006113c083600c5461352d90919063ffffffff16565b6000613623600d5442612aff90919063ffffffff16565b9050603c8110610d205742600d81905560408051918252517f860f8d2f0c74dd487e89e2883e3b25b8159ce1e1b3433a291cba7b82c508f3bc9181900360200190a150565b613670615647565b613678615737565b613680615647565b84825260006080830152613692611911565b60a083015261369f611e37565b8260c001818152505086608001516001600160a01b0316634d6228316040518163ffffffff1660e01b815260040160206040518083038186803b1580156136e557600080fd5b505afa1580156136f9573d6000803e3d6000fd5b505050506040513d602081101561370f57600080fd5b50516001600160a01b039081166060840152608088015160408051631e22314360e01b815290516000939290921691631e22314391600480820192602092909190829003018186803b15801561376457600080fd5b505afa158015613778573d6000803e3d6000fd5b505050506040513d602081101561378e57600080fd5b50516000602085015290505b8483602001511080156137c35750806001600160a01b031683606001516001600160a01b031614155b156139f857600088608001516001600160a01b031663b72703ac85606001516040518263ffffffff1660e01b815260040180826001600160a01b03166001600160a01b0316815260200191505060206040518083038186803b15801561382857600080fd5b505afa15801561383c573d6000803e3d6000fd5b505050506040513d602081101561385257600080fd5b50516060850151909150613866908961282c565b6040850152608084015161396a57670f43fc2c04ee000084604001511015801561388f57508351155b1561389a57506139f8565b60006138af8560c001518660a001518b6146d6565b8a5160208c01516060880151604089015189519495506138d094868f61498a565b608081015186519195506138ea919063ffffffff612aff16565b8552608084015160a08601516139059163ffffffff612aff16565b8560a001818152505061393a8461010001516110f786604001516110f78860a001518a60c00151612aff90919063ffffffff16565b60c08601526139498685614cbd565b955061395e8560c001518660a001518b614dd4565b156080860152506139da565b836080015180156139865750670f43fc2c04ee00008460400151105b156139d4576139a789600001518a6020015186606001518760000151614df5565b608081015185519194506139c1919063ffffffff612aff16565b84526139cd8584614cbd565b94506139da565b506139f8565b6001600160a01b03166060840152602083018051600101905261379a565b505050949350505050565b613a0b615647565b613a13615737565b613a1b615647565b600b54858352600060208401526001600160a01b03165b8483602001511015613b2957806001600160a01b0316634d6228316040518163ffffffff1660e01b815260040160206040518083038186803b158015613a7757600080fd5b505afa158015613a8b573d6000803e3d6000fd5b505050506040513d6020811015613aa157600080fd5b50516001600160a01b031660608401819052613abd908861282c565b60408401819052670f43fc2c04ee00001115613b1457613ae7898985606001518660000151614df5565b60808101518451919350613b01919063ffffffff612aff16565b8352613b0d8483614cbd565b9350613b19565b613b29565b6020830180516001019052613a32565b50505095945050505050565b6000610d75613b4f836103e8670de0b6b3a7640000613487565b66b1a2bc2ec50000614f64565b600082820183811015612b41576040805162461bcd60e51b815260206004820152601b60248201527f536166654d6174683a206164646974696f6e206f766572666c6f770000000000604482015290519081900360640190fd5b6001600160a01b038116613c11576040805162461bcd60e51b815260206004820152601e60248201527f4163636f756e742063616e6e6f74206265207a65726f20616464726573730000604482015290519081900360640190fd5b803b8061125e576040805162461bcd60e51b815260206004820181905260248201527f4163636f756e7420636f64652073697a652063616e6e6f74206265207a65726f604482015290519081900360640190fd5b6003546040516000916001600160a01b0316907f8be0079c531659141344cd1fd0a4f28419497f9722a3daafe3b4186f6b6457e0908390a3600380546001600160a01b0319169055565b601280546001600160a01b0383166000908152601460209081526040918290209283556013546001909301839055925481519081529283019190915280517fc437f324d85e369394148dd9d62f98f534b382e01ed3dd2eb98138fb6d3ab49a9281900390910190a150565b6000806000613d2884611310565b90506000613d3585612943565b6001600160a01b0386166000908152600e602052604081206001015491925090613d65908463ffffffff613b5c16565b6001600160a01b0387166000908152600e602052604081205491925090613d92908463ffffffff613b5c16565b919550909350505050915091565b60008115613dcc57613dc5826113c08568056bc75e2d6310000063ffffffff61352d16565b9050610d75565b50600019610d75565b600080613de0611e37565b90506000613dec611911565b9050613df98282866146d6565b949350505050565b6611c37937e080008110801590613e205750670de0b6b3a76400008111155b610d205760405162461bcd60e51b81526004018080602001828103825260308152602001806159b86030913960400191505060405180910390fd5b60095460408051631e425be160e11b815290516000926001600160a01b031691633c84b7c2916004808301926020929190829003018186803b158015613ea057600080fd5b505afa158015613eb4573d6000803e3d6000fd5b505050506040513d6020811015613eca57600080fd5b50519050613ee1816212750063ffffffff613b5c16565b421015610d205760405162461bcd60e51b81526004018080602001828103825260408152602001806158146040913960400191505060405180910390fd5b670f43fc2c04ee0000613f3182613dd5565b1015610d205760405162461bcd60e51b815260040180806020018281038252602a8152602001806159e8602a913960400191505060405180910390fd5b60008111610d205760405162461bcd60e51b815260040180806020018281038252602e815260200180615954602e913960400191505060405180910390fd5b80836001600160a01b03166370a08231846040518263ffffffff1660e01b815260040180826001600160a01b03166001600160a01b0316815260200191505060206040518083038186803b15801561400457600080fd5b505afa158015614018573d6000803e3d6000fd5b505050506040513d602081101561402e57600080fd5b50511015612afa5760405162461bcd60e51b815260040180806020018281038252604e815260200180615875604e913960600191505060405180910390fd5b60006001600160a01b03831615806141045750836001600160a01b0316635dbe47e8846040518263ffffffff1660e01b815260040180826001600160a01b03166001600160a01b0316815260200191505060206040518083038186803b1580156140d657600080fd5b505afa1580156140ea573d6000803e3d6000fd5b505050506040513d602081101561410057600080fd5b5051155b8061411f5750670f43fc2c04ee000061411d848461282c565b105b1561412c57506000612b41565b6000846001600160a01b031663765e0159856040518263ffffffff1660e01b815260040180826001600160a01b03166001600160a01b0316815260200191505060206040518083038186803b15801561418457600080fd5b505afa158015614198573d6000803e3d6000fd5b505050506040513d60208110156141ae57600080fd5b505190506001600160a01b0381161580611fb65750670f43fc2c04ee00006141d6828561282c565b1095945050505050565b6141e8615714565b6001600160a01b0387166000908152600e602052604090205461422590879061422090680ad78ebc5ac620000063ffffffff612aff16565b614f64565b8082526142469086906113c090670de0b6b3a764000063ffffffff61352d16565b60208083019190915281516001600160a01b0389166000908152600e90925260408220546142799163ffffffff612aff16565b6020808401516001600160a01b038b166000908152600e909252604082206001015492935090916142af9163ffffffff612aff16565b9050680ad78ebc5ac6200000821415614348576142cb89614765565b6142d68960046145bd565b6142eb8a8a680ad78ebc5ac6200000846150a6565b886001600160a01b03166000805160206158c3833981519152600080600060036040518085815260200184815260200183815260200182600381111561432d57fe5b60ff16815260200194505050505060405180910390a2614485565b60006143548284613da0565b905084811415806143755750686194049f30f72000006143738461525b565b105b156143895750506001604083015250614488565b60808b01516040805163015f109360e51b81526001600160a01b038d81166004830152602482018590528a81166044830152898116606483015291519190921691632be2126091608480830192600092919082900301818387803b1580156143f057600080fd5b505af1158015614404573d6000803e3d6000fd5b5050506001600160a01b038b166000908152600e60205260409020848155600101839055506144328a612be2565b506001600160a01b038a166000818152600e6020908152604091829020600201548251878152918201869052818301526003606082015290516000805160206158c38339815191529181900360800190a2505b50505b979650505050505050565b60008061449e6135c8565b905060006144b6846113c0888863ffffffff61352d16565b905060006144db6144ce83600263ffffffff61358616565b849063ffffffff613b5c16565b90506144ef81670de0b6b3a7640000614f64565b9050600081116144fb57fe5b600c8190556040805182815290517fc454ee9b76c52f782a256af821b857ca6e125d1e3333bcede402fec2bed9600c9181900360200190a16113cc61360c565b6000610d756128946111dd565b6000614566836113c086670de0b6b3a764000063ffffffff61352d16565b905081811115613221576040805162461bcd60e51b815260206004820152601d60248201527f4665652065786365656465642070726f7669646564206d6178696d756d000000604482015290519081900360640190fd5b60008160048111156145cb57fe5b141580156145e5575060018160048111156145e257fe5b14155b6145eb57fe5b6015546145f781615276565b6001600160a01b0383166000908152600e60205260409020600301805483919060ff1916600183600481111561462957fe5b02179055506001600160a01b0383166000908152600e6020908152604080832060018082018590559084905560149092528220828155015561466b838261532f565b600b5460408051631484968760e11b81526001600160a01b038681166004830152915191909216916329092d0e91602480830192600092919082900301818387803b1580156146b957600080fd5b505af11580156146cd573d6000803e3d6000fd5b50505050505050565b600082156146fd5760006146f4846113c0878663ffffffff61352d16565b9150612b419050565b50600019612b41565b600080614725670de0b6b3a76400006113c0868663ffffffff61352d16565b9050828110612b415760405162461bcd60e51b81526004018080602001828103825260368152602001806159826036913960400191505060405180910390fd5b6001600160a01b0381166000908152600e6020526040902060020154600f54614794908263ffffffff612aff16565b600f55506001600160a01b03166000908152600e6020526040812060020155565b826001600160a01b03166338d995a8836040518263ffffffff1660e01b815260040180828152602001915050600060405180830381600087803b1580156147fb57600080fd5b505af115801561480f573d6000803e3d6000fd5b50505050836001600160a01b031663cfb9329a836040518263ffffffff1660e01b815260040180828152602001915050600060405180830381600087803b15801561485957600080fd5b505af115801561486d573d6000803e3d6000fd5b50505050826001600160a01b031663be41205f826040518263ffffffff1660e01b815260040180828152602001915050600060405180830381600087803b15801561345357600080fd5b600081848411156149465760405162461bcd60e51b81526004018080602001828103825283818151815260200191508051906020019080838360005b8381101561490b5781810151838201526020016148f3565b50505050905090810190601f1680156149385780820380516001836020036101000a031916815260200191505b509250505060405180910390fd5b505050900390565b60008060115460001415614963575081610d75565b60006010541161496f57fe5b612b416011546113c06010548661352d90919063ffffffff16565b614992615647565b61499a61577f565b6015546001106149aa5750614488565b6149b387611fe8565b604085015260208481019190915284018190529083526149d2906154d6565b60408301819052680ad78ebc5ac6200000606084015260208301516149fc9163ffffffff612aff16565b8152670de0b6b3a76400008611614b0457614a218989836020015184604001516147b5565b614a2a87614765565b60006080830181905260a0830152815160c0830152805160e0830152614a518760036145bd565b866001600160a01b03166000805160206157a183398151915283600001518460200151600260405180848152602001838152602001826003811115614a9257fe5b60ff168152602001935050505060405180910390a2866001600160a01b03166000805160206158c38339815191526000806000600260405180858152602001848152602001838152602001826003811115614ae957fe5b60ff16815260200194505050505060405180910390a2614cb1565b670de0b6b3a764000086118015614b225750670f43fc2c04ee000086105b15614b7257614b3b8989836020015184604001516147b5565b614b4487614765565b81518151614b539190876154dd565b60e086015260c085015260a08401526080830152614a518760036145bd565b670f43fc2c04ee00008610158015614b8957508386105b8015614b96575081518510155b15614ca057614baf8989836020015184604001516147b5565b84614bb657fe5b614bbf87614765565b614bd28260000151836020015185615549565b9150614bdf8760036145bd565b61010082015115614c5f5760075461010083015160408051633f10abab60e01b81526001600160a01b038b81166004830152602482019390935290519190921691633f10abab91604480830192600092919082900301818387803b158015614c4657600080fd5b505af1158015614c5a573d6000803e3d6000fd5b505050505b866001600160a01b03166000805160206157a183398151915283600001518460a00151600260405180848152602001838152602001826003811115614a9257fe5b614ca8615647565b91506144889050565b50979650505050505050565b614cc5615647565b60408083015190840151614cde9163ffffffff613b5c16565b604082015260608083015190840151614cfc9163ffffffff613b5c16565b606082015281516020840151614d179163ffffffff613b5c16565b6020808301919091528201518351614d349163ffffffff613b5c16565b815260808083015190840151614d4f9163ffffffff613b5c16565b608082015260a08083015190840151614d6d9163ffffffff613b5c16565b60a082015260c08083015190840151614d8b9163ffffffff613b5c16565b60c082015260e08083015190840151614da99163ffffffff613b5c16565b60e08201526101008083015190840151614dc89163ffffffff613b5c16565b61010082015292915050565b600080614de28585856146d6565b6714d1120d7b1600001195945050505050565b614dfd615647565b614e0561577f565b614e0e84611fe8565b60408501908152602085810192835286019290925291845290519051614e389188918891906147b5565b614e4184614765565b614e4e82602001516154d6565b60408301819052680ad78ebc5ac620000060608401526020830151600091614e7c919063ffffffff612aff16565b9050614e8d836000015182866154dd565b60e087015260c086015260a08501526080840152614eac8560036145bd565b846001600160a01b03166000805160206157a183398151915284600001518560200151600160405180848152602001838152602001826003811115614eed57fe5b60ff168152602001935050505060405180910390a2846001600160a01b03166000805160206158c38339815191526000806000600160405180858152602001848152602001838152602001826003811115614f4457fe5b60ff16815260200194505050505060405180910390a25050949350505050565b6000818310614f735781612b41565b5090919050565b60008183614fc95760405162461bcd60e51b815260206004820181815283516024840152835190928392604490910191908501908083836000831561490b5781810151838201526020016148f3565b506000838581614fd557fe5b0495945050505050565b60006111ea603c6113c0600d5442612aff90919063ffffffff16565b6000631f54050082111561501157631f54050091505b816150255750670de0b6b3a7640000610d75565b670de0b6b3a764000083835b600181111561509c57600281066150665761504c82836155e3565b915061505f81600263ffffffff61358616565b9050615097565b61507082846155e3565b925061507c82836155e3565b915061509460026113c083600163ffffffff612aff16565b90505b615031565b6113cc82846155e3565b6040808501516006548251632770a7eb60e21b81526001600160a01b039182166004820152602481018690529251911691639dc29fac91604480830192600092919082900301818387803b1580156150fd57600080fd5b505af1158015615111573d6000803e3d6000fd5b5050505083600001516001600160a01b03166338d995a8836040518263ffffffff1660e01b815260040180828152602001915050600060405180830381600087803b15801561515f57600080fd5b505af1158015615173573d6000803e3d6000fd5b505050508360a001516001600160a01b0316633f10abab84836040518363ffffffff1660e01b815260040180836001600160a01b03166001600160a01b0316815260200182815260200192505050600060405180830381600087803b1580156151db57600080fd5b505af11580156151ef573d6000803e3d6000fd5b5050505083600001516001600160a01b03166364a197f38560a00151836040518363ffffffff1660e01b815260040180836001600160a01b03166001600160a01b0316815260200182815260200192505050600060405180830381600087803b15801561345357600080fd5b6000610d7582680ad78ebc5ac620000063ffffffff612aff16565b6001811180156152f45750600b546040805163de8fa43160e01b815290516001926001600160a01b03169163de8fa431916004808301926020929190829003018186803b1580156152c657600080fd5b505afa1580156152da573d6000803e3d6000fd5b505050506040513d60208110156152f057600080fd5b5051115b610d205760405162461bcd60e51b815260040180806020018281038252602a8152602001806157ea602a913960400191505060405180910390fd5b6001600160a01b0382166000908152600e602052604081206003015460ff169081600481111561535b57fe5b141580156153755750600181600481111561537257fe5b14155b61537b57fe5b6001600160a01b0383166000908152600e602052604081206003015461010090046001600160801b03169083906153b3826001612aff565b905080836001600160801b031611156153c857fe5b6000601582815481106153d757fe5b600091825260209091200154601580546001600160a01b03909216925082916001600160801b03871690811061540957fe5b600091825260208083209190910180546001600160a01b0319166001600160a01b03948516179055918316808252600e83526040918290206003018054610100600160881b0319166101006001600160801b038a169081029190911790915582519182529281019290925280517f02b04ae5f7be9ca7c103293a2aa15f3c339d15d6eda53b721fef7b0e609c831a9281900390910190a160158054806154ab57fe5b600082815260209020810160001990810180546001600160a01b031916905501905550505050505050565b60c8900490565b60008080808415615533576154f28786614f64565b9350615508876113c0888763ffffffff61352d16565b925061551a878563ffffffff612aff16565b915061552c868463ffffffff612aff16565b9050615540565b5060009250829150859050845b93509350935093565b615551615647565b838152602081018390526000615579836113c087670f43fc2c04ee000063ffffffff61352d16565b9050615584816154d6565b60408301819052680ad78ebc5ac62000006060840152608083018690526155b290829063ffffffff612aff16565b60a08301526155c7848263ffffffff612aff16565b61010083015250600060c0820181905260e08201529392505050565b6000806155f6848463ffffffff61352d16565b9050613df9670de0b6b3a76400006113c0836706f05b59d3b20000613b5c565b6040518060a00160405280600081526020016000815260200160001515815260200160008152602001600081525090565b6040518061012001604052806000815260200160008152602001600081526020016000815260200160008152602001600081526020016000815260200160008152602001600081525090565b6040805160e081018252600080825260208201819052918101829052606081018290526080810182905260a0810182905260c081019190915290565b60405180610100016040528060008152602001600081526020016000815260200160008152602001600081526020016000815260200160008152602001600081525090565b604051806060016040528060008152602001600081526020016000151581525090565b6040518060e0016040528060008152602001600081526020016000815260200160006001600160a01b0316815260200160001515815260200160008152602001600081525090565b6040518060600160405280600081526020016000815260200160008152509056feea67486ed7ebe3eea8ab3390efd4a3c8aae48be5bea27df104a8af786c40843454726f76654d616e616765723a20556e61626c6520746f2072656465656d20616e7920616d6f756e7454726f76654d616e616765723a204f6e6c79206f6e652074726f766520696e207468652073797374656d54726f76654d616e616765723a20526564656d7074696f6e7320617265206e6f7420616c6c6f77656420647572696e6720626f6f747374726170207068617365536166654d6174683a206d756c7469706c69636174696f6e206f766572666c6f7754726f76654d616e616765723a2052657175657374656420726564656d7074696f6e20616d6f756e74206d757374206265203c3d20757365722773204c55534420746f6b656e2062616c616e6365c3770d654ed33aeea6bf11ac8ef05d02a6a04ed4686dd2f624d853bbec43cc8b54726f76654d616e616765723a2043616c6c6572206973206e6f742074686520426f72726f7765724f7065726174696f6e7320636f6e747261637454726f76654d616e616765723a2043616c6c646174612061646472657373206172726179206d757374206e6f7420626520656d70747954726f76654d616e616765723a20416d6f756e74206d7573742062652067726561746572207468616e207a65726f54726f76654d616e616765723a2046656520776f756c642065617420757020616c6c2072657475726e656420636f6c6c61746572616c4d6178206665652070657263656e74616765206d757374206265206265747765656e20302e352520616e64203130302554726f76654d616e616765723a2043616e6e6f742072656465656d207768656e20544352203c204d435254726f76654d616e616765723a206e6f7468696e6720746f206c697175696461746554726f76654d616e616765723a2054726f766520646f6573206e6f74206578697374206f7220697320636c6f736564a26469706673582212208e2c9a54ec7308d22bdbafa34f089b75df7a08f5a97d74166e101ab73392b06e64736f6c634300060b0033",
  "linkReferences": {},
  "deployedLinkReferences": {}
}