{
  "_format": "hh-sol-artifact-1",
  "contractName": "TroveManagerTester",
  "sourceName": "contracts/TestContracts/CDPManagerTester.sol",
  "abi": [
    {
      "anonymous": false,
      "inputs": [
        {
          "indexed": false,
          "internalType": "address",
          "name": "_activePoolAddress",
          "type": "address"
        }
      ],
      "name": "ActivePoolAddressChanged",
      "type": "event"
    },
    {
      "anonymous": false,
      "inputs": [
        {
          "indexed": false,
          "internalType": "uint256",
          "name": "_baseRate",
          "type": "uint256"
        }
      ],
      "name": "BaseRateUpdated",
      "type": "event"
    },
    {
      "anonymous": false,
      "inputs": [
        {
          "indexed": false,
          "internalType": "address",
          "name": "_newBorrowerOperationsAddress",
          "type": "address"
        }
      ],
      "name": "BorrowerOperationsAddressChanged",
      "type": "event"
    },
    {
      "anonymous": false,
      "inputs": [
        {
          "indexed": false,
          "internalType": "address",
          "name": "_collSurplusPoolAddress",
          "type": "address"
        }
      ],
      "name": "CollSurplusPoolAddressChanged",
      "type": "event"
    },
    {
      "anonymous": false,
      "inputs": [
        {
          "indexed": false,
          "internalType": "address",
          "name": "_defaultPoolAddress",
          "type": "address"
        }
      ],
      "name": "DefaultPoolAddressChanged",
      "type": "event"
    },
    {
      "anonymous": false,
      "inputs": [
        {
          "indexed": false,
          "internalType": "address",
          "name": "_gasPoolAddress",
          "type": "address"
        }
      ],
      "name": "GasPoolAddressChanged",
      "type": "event"
    },
    {
      "anonymous": false,
      "inputs": [
        {
          "indexed": false,
          "internalType": "address",
          "name": "_lqtyStakingAddress",
          "type": "address"
        }
      ],
      "name": "LQTYStakingAddressChanged",
      "type": "event"
    },
    {
      "anonymous": false,
      "inputs": [
        {
          "indexed": false,
          "internalType": "address",
          "name": "_lqtyTokenAddress",
          "type": "address"
        }
      ],
      "name": "LQTYTokenAddressChanged",
      "type": "event"
    },
    {
      "anonymous": false,
      "inputs": [
        {
          "indexed": false,
          "internalType": "uint256",
          "name": "_L_ETH",
          "type": "uint256"
        },
        {
          "indexed": false,
          "internalType": "uint256",
          "name": "_L_LUSDDebt",
          "type": "uint256"
        }
      ],
      "name": "LTermsUpdated",
      "type": "event"
    },
    {
      "anonymous": false,
      "inputs": [
        {
          "indexed": false,
          "internalType": "address",
          "name": "_newLUSDTokenAddress",
          "type": "address"
        }
      ],
      "name": "LUSDTokenAddressChanged",
      "type": "event"
    },
    {
      "anonymous": false,
      "inputs": [
        {
          "indexed": false,
          "internalType": "uint256",
          "name": "_lastFeeOpTime",
          "type": "uint256"
        }
      ],
      "name": "LastFeeOpTimeUpdated",
      "type": "event"
    },
    {
      "anonymous": false,
      "inputs": [
        {
          "indexed": false,
          "internalType": "uint256",
          "name": "_liquidatedDebt",
          "type": "uint256"
        },
        {
          "indexed": false,
          "internalType": "uint256",
          "name": "_liquidatedColl",
          "type": "uint256"
        },
        {
          "indexed": false,
          "internalType": "uint256",
          "name": "_collGasCompensation",
          "type": "uint256"
        },
        {
          "indexed": false,
          "internalType": "uint256",
          "name": "_LUSDGasCompensation",
          "type": "uint256"
        }
      ],
      "name": "Liquidation",
      "type": "event"
    },
    {
      "anonymous": false,
      "inputs": [
        {
          "indexed": true,
          "internalType": "address",
          "name": "previousOwner",
          "type": "address"
        },
        {
          "indexed": true,
          "internalType": "address",
          "name": "newOwner",
          "type": "address"
        }
      ],
      "name": "OwnershipTransferred",
      "type": "event"
    },
    {
      "anonymous": false,
      "inputs": [
        {
          "indexed": false,
          "internalType": "address",
          "name": "_newPriceFeedAddress",
          "type": "address"
        }
      ],
      "name": "PriceFeedAddressChanged",
      "type": "event"
    },
    {
      "anonymous": false,
      "inputs": [
        {
          "indexed": false,
          "internalType": "uint256",
          "name": "_attemptedLUSDAmount",
          "type": "uint256"
        },
        {
          "indexed": false,
          "internalType": "uint256",
          "name": "_actualLUSDAmount",
          "type": "uint256"
        },
        {
          "indexed": false,
          "internalType": "uint256",
          "name": "_ETHSent",
          "type": "uint256"
        },
        {
          "indexed": false,
          "internalType": "uint256",
          "name": "_ETHFee",
          "type": "uint256"
        }
      ],
      "name": "Redemption",
      "type": "event"
    },
    {
      "anonymous": false,
      "inputs": [
        {
          "indexed": false,
          "internalType": "address",
          "name": "_sortedTrovesAddress",
          "type": "address"
        }
      ],
      "name": "SortedTrovesAddressChanged",
      "type": "event"
    },
    {
      "anonymous": false,
      "inputs": [
        {
          "indexed": false,
          "internalType": "address",
          "name": "_stabilityPoolAddress",
          "type": "address"
        }
      ],
      "name": "StabilityPoolAddressChanged",
      "type": "event"
    },
    {
      "anonymous": false,
      "inputs": [
        {
          "indexed": false,
          "internalType": "uint256",
          "name": "_totalStakesSnapshot",
          "type": "uint256"
        },
        {
          "indexed": false,
          "internalType": "uint256",
          "name": "_totalCollateralSnapshot",
          "type": "uint256"
        }
      ],
      "name": "SystemSnapshotsUpdated",
      "type": "event"
    },
    {
      "anonymous": false,
      "inputs": [
        {
          "indexed": false,
          "internalType": "uint256",
          "name": "_newTotalStakes",
          "type": "uint256"
        }
      ],
      "name": "TotalStakesUpdated",
      "type": "event"
    },
    {
      "anonymous": false,
      "inputs": [
        {
          "indexed": false,
          "internalType": "address",
          "name": "_borrower",
          "type": "address"
        },
        {
          "indexed": false,
          "internalType": "uint256",
          "name": "_newIndex",
          "type": "uint256"
        }
      ],
      "name": "TroveIndexUpdated",
      "type": "event"
    },
    {
      "anonymous": false,
      "inputs": [
        {
          "indexed": true,
          "internalType": "address",
          "name": "_borrower",
          "type": "address"
        },
        {
          "indexed": false,
          "internalType": "uint256",
          "name": "_debt",
          "type": "uint256"
        },
        {
          "indexed": false,
          "internalType": "uint256",
          "name": "_coll",
          "type": "uint256"
        },
        {
          "indexed": false,
          "internalType": "enum TroveManager.TroveManagerOperation",
          "name": "_operation",
          "type": "uint8"
        }
      ],
      "name": "TroveLiquidated",
      "type": "event"
    },
    {
      "anonymous": false,
      "inputs": [
        {
          "indexed": false,
          "internalType": "uint256",
          "name": "_L_ETH",
          "type": "uint256"
        },
        {
          "indexed": false,
          "internalType": "uint256",
          "name": "_L_LUSDDebt",
          "type": "uint256"
        }
      ],
      "name": "TroveSnapshotsUpdated",
      "type": "event"
    },
    {
      "anonymous": false,
      "inputs": [
        {
          "indexed": true,
          "internalType": "address",
          "name": "_borrower",
          "type": "address"
        },
        {
          "indexed": false,
          "internalType": "uint256",
          "name": "_debt",
          "type": "uint256"
        },
        {
          "indexed": false,
          "internalType": "uint256",
          "name": "_coll",
          "type": "uint256"
        },
        {
          "indexed": false,
          "internalType": "uint256",
          "name": "_stake",
          "type": "uint256"
        },
        {
          "indexed": false,
          "internalType": "enum TroveManager.TroveManagerOperation",
          "name": "_operation",
          "type": "uint8"
        }
      ],
      "name": "TroveUpdated",
      "type": "event"
    },
    {
      "inputs": [],
      "name": "BETA",
      "outputs": [
        {
          "internalType": "uint256",
          "name": "",
          "type": "uint256"
        }
      ],
      "stateMutability": "view",
      "type": "function"
    },
    {
      "inputs": [],
      "name": "BOOTSTRAP_PERIOD",
      "outputs": [
        {
          "internalType": "uint256",
          "name": "",
          "type": "uint256"
        }
      ],
      "stateMutability": "view",
      "type": "function"
    },
    {
      "inputs": [],
      "name": "BORROWING_FEE_FLOOR",
      "outputs": [
        {
          "internalType": "uint256",
          "name": "",
          "type": "uint256"
        }
      ],
      "stateMutability": "view",
      "type": "function"
    },
    {
      "inputs": [],
      "name": "CCR",
      "outputs": [
        {
          "internalType": "uint256",
          "name": "",
          "type": "uint256"
        }
      ],
      "stateMutability": "view",
      "type": "function"
    },
    {
      "inputs": [],
      "name": "DECIMAL_PRECISION",
      "outputs": [
        {
          "internalType": "uint256",
          "name": "",
          "type": "uint256"
        }
      ],
      "stateMutability": "view",
      "type": "function"
    },
    {
      "inputs": [],
      "name": "LUSD_GAS_COMPENSATION",
      "outputs": [
        {
          "internalType": "uint256",
          "name": "",
          "type": "uint256"
        }
      ],
      "stateMutability": "view",
      "type": "function"
    },
    {
      "inputs": [],
      "name": "L_ETH",
      "outputs": [
        {
          "internalType": "uint256",
          "name": "",
          "type": "uint256"
        }
      ],
      "stateMutability": "view",
      "type": "function"
    },
    {
      "inputs": [],
      "name": "L_LUSDDebt",
      "outputs": [
        {
          "internalType": "uint256",
          "name": "",
          "type": "uint256"
        }
      ],
      "stateMutability": "view",
      "type": "function"
    },
    {
      "inputs": [],
      "name": "MAX_BORROWING_FEE",
      "outputs": [
        {
          "internalType": "uint256",
          "name": "",
          "type": "uint256"
        }
      ],
      "stateMutability": "view",
      "type": "function"
    },
    {
      "inputs": [],
      "name": "MCR",
      "outputs": [
        {
          "internalType": "uint256",
          "name": "",
          "type": "uint256"
        }
      ],
      "stateMutability": "view",
      "type": "function"
    },
    {
      "inputs": [],
      "name": "MINUTE_DECAY_FACTOR",
      "outputs": [
        {
          "internalType": "uint256",
          "name": "",
          "type": "uint256"
        }
      ],
      "stateMutability": "view",
      "type": "function"
    },
    {
      "inputs": [],
      "name": "MIN_NET_DEBT",
      "outputs": [
        {
          "internalType": "uint256",
          "name": "",
          "type": "uint256"
        }
      ],
      "stateMutability": "view",
      "type": "function"
    },
    {
      "inputs": [],
      "name": "PERCENT_DIVISOR",
      "outputs": [
        {
          "internalType": "uint256",
          "name": "",
          "type": "uint256"
        }
      ],
      "stateMutability": "view",
      "type": "function"
    },
    {
      "inputs": [],
      "name": "REDEMPTION_FEE_FLOOR",
      "outputs": [
        {
          "internalType": "uint256",
          "name": "",
          "type": "uint256"
        }
      ],
      "stateMutability": "view",
      "type": "function"
    },
    {
      "inputs": [],
      "name": "SECONDS_IN_ONE_MINUTE",
      "outputs": [
        {
          "internalType": "uint256",
          "name": "",
          "type": "uint256"
        }
      ],
      "stateMutability": "view",
      "type": "function"
    },
    {
      "inputs": [
        {
          "internalType": "uint256",
          "name": "",
          "type": "uint256"
        }
      ],
      "name": "TroveOwners",
      "outputs": [
        {
          "internalType": "address",
          "name": "",
          "type": "address"
        }
      ],
      "stateMutability": "view",
      "type": "function"
    },
    {
      "inputs": [
        {
          "internalType": "address",
          "name": "",
          "type": "address"
        }
      ],
      "name": "Troves",
      "outputs": [
        {
          "internalType": "uint256",
          "name": "debt",
          "type": "uint256"
        },
        {
          "internalType": "uint256",
          "name": "coll",
          "type": "uint256"
        },
        {
          "internalType": "uint256",
          "name": "stake",
          "type": "uint256"
        },
        {
          "internalType": "enum TroveManager.Status",
          "name": "status",
          "type": "uint8"
        },
        {
          "internalType": "uint128",
          "name": "arrayIndex",
          "type": "uint128"
        }
      ],
      "stateMutability": "view",
      "type": "function"
    },
    {
      "inputs": [],
      "name": "_100pct",
      "outputs": [
        {
          "internalType": "uint256",
          "name": "",
          "type": "uint256"
        }
      ],
      "stateMutability": "view",
      "type": "function"
    },
    {
      "inputs": [],
      "name": "activePool",
      "outputs": [
        {
          "internalType": "contract IActivePool",
          "name": "",
          "type": "address"
        }
      ],
      "stateMutability": "view",
      "type": "function"
    },
    {
      "inputs": [
        {
          "internalType": "address",
          "name": "_borrower",
          "type": "address"
        }
      ],
      "name": "addTroveOwnerToArray",
      "outputs": [
        {
          "internalType": "uint256",
          "name": "index",
          "type": "uint256"
        }
      ],
      "stateMutability": "nonpayable",
      "type": "function"
    },
    {
      "inputs": [
        {
          "internalType": "address",
          "name": "_borrower",
          "type": "address"
        }
      ],
      "name": "applyPendingRewards",
      "outputs": [],
      "stateMutability": "nonpayable",
      "type": "function"
    },
    {
      "inputs": [],
      "name": "baseRate",
      "outputs": [
        {
          "internalType": "uint256",
          "name": "",
          "type": "uint256"
        }
      ],
      "stateMutability": "view",
      "type": "function"
    },
    {
      "inputs": [
        {
          "internalType": "address[]",
          "name": "_troveArray",
          "type": "address[]"
        }
      ],
      "name": "batchLiquidateTroves",
      "outputs": [],
      "stateMutability": "nonpayable",
      "type": "function"
    },
    {
      "inputs": [],
      "name": "borrowerOperationsAddress",
      "outputs": [
        {
          "internalType": "address",
          "name": "",
          "type": "address"
        }
      ],
      "stateMutability": "view",
      "type": "function"
    },
    {
      "inputs": [
        {
          "internalType": "uint256",
          "name": "_ETHDrawn",
          "type": "uint256"
        }
      ],
      "name": "callGetRedemptionFee",
      "outputs": [
        {
          "internalType": "uint256",
          "name": "",
          "type": "uint256"
        }
      ],
      "stateMutability": "view",
      "type": "function"
    },
    {
      "inputs": [
        {
          "internalType": "address",
          "name": "_troveOwner",
          "type": "address"
        }
      ],
      "name": "callInternalRemoveTroveOwner",
      "outputs": [],
      "stateMutability": "nonpayable",
      "type": "function"
    },
    {
      "inputs": [
        {
          "internalType": "uint256",
          "name": "_price",
          "type": "uint256"
        }
      ],
      "name": "checkRecoveryMode",
      "outputs": [
        {
          "internalType": "bool",
          "name": "",
          "type": "bool"
        }
      ],
      "stateMutability": "view",
      "type": "function"
    },
    {
      "inputs": [
        {
          "internalType": "address",
          "name": "_borrower",
          "type": "address"
        }
      ],
      "name": "closeTrove",
      "outputs": [],
      "stateMutability": "nonpayable",
      "type": "function"
    },
    {
      "inputs": [
        {
          "internalType": "uint256",
          "name": "_coll",
          "type": "uint256"
        },
        {
          "internalType": "uint256",
          "name": "_debt",
          "type": "uint256"
        },
        {
          "internalType": "uint256",
          "name": "_price",
          "type": "uint256"
        }
      ],
      "name": "computeICR",
      "outputs": [
        {
          "internalType": "uint256",
          "name": "",
          "type": "uint256"
        }
      ],
      "stateMutability": "pure",
      "type": "function"
    },
    {
      "inputs": [],
      "name": "decayBaseRateFromBorrowing",
      "outputs": [],
      "stateMutability": "nonpayable",
      "type": "function"
    },
    {
      "inputs": [
        {
          "internalType": "address",
          "name": "_borrower",
          "type": "address"
        },
        {
          "internalType": "uint256",
          "name": "_collDecrease",
          "type": "uint256"
        }
      ],
      "name": "decreaseTroveColl",
      "outputs": [
        {
          "internalType": "uint256",
          "name": "",
          "type": "uint256"
        }
      ],
      "stateMutability": "nonpayable",
      "type": "function"
    },
    {
      "inputs": [
        {
          "internalType": "address",
          "name": "_borrower",
          "type": "address"
        },
        {
          "internalType": "uint256",
          "name": "_debtDecrease",
          "type": "uint256"
        }
      ],
      "name": "decreaseTroveDebt",
      "outputs": [
        {
          "internalType": "uint256",
          "name": "",
          "type": "uint256"
        }
      ],
      "stateMutability": "nonpayable",
      "type": "function"
    },
    {
      "inputs": [],
      "name": "defaultPool",
      "outputs": [
        {
          "internalType": "contract IDefaultPool",
          "name": "",
          "type": "address"
        }
      ],
      "stateMutability": "view",
      "type": "function"
    },
    {
      "inputs": [
        {
          "internalType": "uint256",
          "name": "_debtVal",
          "type": "uint256"
        }
      ],
      "name": "getActualDebtFromComposite",
      "outputs": [
        {
          "internalType": "uint256",
          "name": "",
          "type": "uint256"
        }
      ],
      "stateMutability": "pure",
      "type": "function"
    },
    {
      "inputs": [
        {
          "internalType": "uint256",
          "name": "_LUSDDebt",
          "type": "uint256"
        }
      ],
      "name": "getBorrowingFee",
      "outputs": [
        {
          "internalType": "uint256",
          "name": "",
          "type": "uint256"
        }
      ],
      "stateMutability": "view",
      "type": "function"
    },
    {
      "inputs": [
        {
          "internalType": "uint256",
          "name": "_LUSDDebt",
          "type": "uint256"
        }
      ],
      "name": "getBorrowingFeeWithDecay",
      "outputs": [
        {
          "internalType": "uint256",
          "name": "",
          "type": "uint256"
        }
      ],
      "stateMutability": "view",
      "type": "function"
    },
    {
      "inputs": [],
      "name": "getBorrowingRate",
      "outputs": [
        {
          "internalType": "uint256",
          "name": "",
          "type": "uint256"
        }
      ],
      "stateMutability": "view",
      "type": "function"
    },
    {
      "inputs": [],
      "name": "getBorrowingRateWithDecay",
      "outputs": [
        {
          "internalType": "uint256",
          "name": "",
          "type": "uint256"
        }
      ],
      "stateMutability": "view",
      "type": "function"
    },
    {
      "inputs": [
        {
          "internalType": "uint256",
          "name": "_coll",
          "type": "uint256"
        }
      ],
      "name": "getCollGasCompensation",
      "outputs": [
        {
          "internalType": "uint256",
          "name": "",
          "type": "uint256"
        }
      ],
      "stateMutability": "pure",
      "type": "function"
    },
    {
      "inputs": [
        {
          "internalType": "uint256",
          "name": "_debt",
          "type": "uint256"
        }
      ],
      "name": "getCompositeDebt",
      "outputs": [
        {
          "internalType": "uint256",
          "name": "",
          "type": "uint256"
        }
      ],
      "stateMutability": "pure",
      "type": "function"
    },
    {
      "inputs": [
        {
          "internalType": "address",
          "name": "_borrower",
          "type": "address"
        },
        {
          "internalType": "uint256",
          "name": "_price",
          "type": "uint256"
        }
      ],
      "name": "getCurrentICR",
      "outputs": [
        {
          "internalType": "uint256",
          "name": "",
          "type": "uint256"
        }
      ],
      "stateMutability": "view",
      "type": "function"
    },
    {
      "inputs": [
        {
          "internalType": "address",
          "name": "_borrower",
          "type": "address"
        }
      ],
      "name": "getEntireDebtAndColl",
      "outputs": [
        {
          "internalType": "uint256",
          "name": "debt",
          "type": "uint256"
        },
        {
          "internalType": "uint256",
          "name": "coll",
          "type": "uint256"
        },
        {
          "internalType": "uint256",
          "name": "pendingLUSDDebtReward",
          "type": "uint256"
        },
        {
          "internalType": "uint256",
          "name": "pendingETHReward",
          "type": "uint256"
        }
      ],
      "stateMutability": "view",
      "type": "function"
    },
    {
      "inputs": [],
      "name": "getEntireSystemColl",
      "outputs": [
        {
          "internalType": "uint256",
          "name": "entireSystemColl",
          "type": "uint256"
        }
      ],
      "stateMutability": "view",
      "type": "function"
    },
    {
      "inputs": [],
      "name": "getEntireSystemDebt",
      "outputs": [
        {
          "internalType": "uint256",
          "name": "entireSystemDebt",
          "type": "uint256"
        }
      ],
      "stateMutability": "view",
      "type": "function"
    },
    {
      "inputs": [],
      "name": "getLUSDGasCompensation",
      "outputs": [
        {
          "internalType": "uint256",
          "name": "",
          "type": "uint256"
        }
      ],
      "stateMutability": "pure",
      "type": "function"
    },
    {
      "inputs": [
        {
          "internalType": "address",
          "name": "_borrower",
          "type": "address"
        }
      ],
      "name": "getNominalICR",
      "outputs": [
        {
          "internalType": "uint256",
          "name": "",
          "type": "uint256"
        }
      ],
      "stateMutability": "view",
      "type": "function"
    },
    {
      "inputs": [
        {
          "internalType": "address",
          "name": "_borrower",
          "type": "address"
        }
      ],
      "name": "getPendingETHReward",
      "outputs": [
        {
          "internalType": "uint256",
          "name": "",
          "type": "uint256"
        }
      ],
      "stateMutability": "view",
      "type": "function"
    },
    {
      "inputs": [
        {
          "internalType": "address",
          "name": "_borrower",
          "type": "address"
        }
      ],
      "name": "getPendingLUSDDebtReward",
      "outputs": [
        {
          "internalType": "uint256",
          "name": "",
          "type": "uint256"
        }
      ],
      "stateMutability": "view",
      "type": "function"
    },
    {
      "inputs": [
        {
          "internalType": "uint256",
          "name": "_ETHDrawn",
          "type": "uint256"
        }
      ],
      "name": "getRedemptionFeeWithDecay",
      "outputs": [
        {
          "internalType": "uint256",
          "name": "",
          "type": "uint256"
        }
      ],
      "stateMutability": "view",
      "type": "function"
    },
    {
      "inputs": [],
      "name": "getRedemptionRate",
      "outputs": [
        {
          "internalType": "uint256",
          "name": "",
          "type": "uint256"
        }
      ],
      "stateMutability": "view",
      "type": "function"
    },
    {
      "inputs": [],
      "name": "getRedemptionRateWithDecay",
      "outputs": [
        {
          "internalType": "uint256",
          "name": "",
          "type": "uint256"
        }
      ],
      "stateMutability": "view",
      "type": "function"
    },
    {
      "inputs": [
        {
          "internalType": "uint256",
          "name": "_price",
          "type": "uint256"
        }
      ],
      "name": "getTCR",
      "outputs": [
        {
          "internalType": "uint256",
          "name": "",
          "type": "uint256"
        }
      ],
      "stateMutability": "view",
      "type": "function"
    },
    {
      "inputs": [
        {
          "internalType": "address",
          "name": "_borrower",
          "type": "address"
        }
      ],
      "name": "getTroveColl",
      "outputs": [
        {
          "internalType": "uint256",
          "name": "",
          "type": "uint256"
        }
      ],
      "stateMutability": "view",
      "type": "function"
    },
    {
      "inputs": [
        {
          "internalType": "address",
          "name": "_borrower",
          "type": "address"
        }
      ],
      "name": "getTroveDebt",
      "outputs": [
        {
          "internalType": "uint256",
          "name": "",
          "type": "uint256"
        }
      ],
      "stateMutability": "view",
      "type": "function"
    },
    {
      "inputs": [
        {
          "internalType": "uint256",
          "name": "_index",
          "type": "uint256"
        }
      ],
      "name": "getTroveFromTroveOwnersArray",
      "outputs": [
        {
          "internalType": "address",
          "name": "",
          "type": "address"
        }
      ],
      "stateMutability": "view",
      "type": "function"
    },
    {
      "inputs": [],
      "name": "getTroveOwnersCount",
      "outputs": [
        {
          "internalType": "uint256",
          "name": "",
          "type": "uint256"
        }
      ],
      "stateMutability": "view",
      "type": "function"
    },
    {
      "inputs": [
        {
          "internalType": "address",
          "name": "_borrower",
          "type": "address"
        }
      ],
      "name": "getTroveStake",
      "outputs": [
        {
          "internalType": "uint256",
          "name": "",
          "type": "uint256"
        }
      ],
      "stateMutability": "view",
      "type": "function"
    },
    {
      "inputs": [
        {
          "internalType": "address",
          "name": "_borrower",
          "type": "address"
        }
      ],
      "name": "getTroveStatus",
      "outputs": [
        {
          "internalType": "uint256",
          "name": "",
          "type": "uint256"
        }
      ],
      "stateMutability": "view",
      "type": "function"
    },
    {
      "inputs": [
        {
          "internalType": "address",
          "name": "_borrower",
          "type": "address"
        }
      ],
      "name": "hasPendingRewards",
      "outputs": [
        {
          "internalType": "bool",
          "name": "",
          "type": "bool"
        }
      ],
      "stateMutability": "view",
      "type": "function"
    },
    {
      "inputs": [
        {
          "internalType": "address",
          "name": "_borrower",
          "type": "address"
        },
        {
          "internalType": "uint256",
          "name": "_collIncrease",
          "type": "uint256"
        }
      ],
      "name": "increaseTroveColl",
      "outputs": [
        {
          "internalType": "uint256",
          "name": "",
          "type": "uint256"
        }
      ],
      "stateMutability": "nonpayable",
      "type": "function"
    },
    {
      "inputs": [
        {
          "internalType": "address",
          "name": "_borrower",
          "type": "address"
        },
        {
          "internalType": "uint256",
          "name": "_debtIncrease",
          "type": "uint256"
        }
      ],
      "name": "increaseTroveDebt",
      "outputs": [
        {
          "internalType": "uint256",
          "name": "",
          "type": "uint256"
        }
      ],
      "stateMutability": "nonpayable",
      "type": "function"
    },
    {
      "inputs": [],
      "name": "isOwner",
      "outputs": [
        {
          "internalType": "bool",
          "name": "",
          "type": "bool"
        }
      ],
      "stateMutability": "view",
      "type": "function"
    },
    {
      "inputs": [],
      "name": "lastETHError_Redistribution",
      "outputs": [
        {
          "internalType": "uint256",
          "name": "",
          "type": "uint256"
        }
      ],
      "stateMutability": "view",
      "type": "function"
    },
    {
      "inputs": [],
      "name": "lastFeeOperationTime",
      "outputs": [
        {
          "internalType": "uint256",
          "name": "",
          "type": "uint256"
        }
      ],
      "stateMutability": "view",
      "type": "function"
    },
    {
      "inputs": [],
      "name": "lastLUSDDebtError_Redistribution",
      "outputs": [
        {
          "internalType": "uint256",
          "name": "",
          "type": "uint256"
        }
      ],
      "stateMutability": "view",
      "type": "function"
    },
    {
      "inputs": [
        {
          "internalType": "address",
          "name": "_borrower",
          "type": "address"
        }
      ],
      "name": "liquidate",
      "outputs": [],
      "stateMutability": "nonpayable",
      "type": "function"
    },
    {
      "inputs": [
        {
          "internalType": "uint256",
          "name": "_n",
          "type": "uint256"
        }
      ],
      "name": "liquidateTroves",
      "outputs": [],
      "stateMutability": "nonpayable",
      "type": "function"
    },
    {
      "inputs": [],
      "name": "lqtyStaking",
      "outputs": [
        {
          "internalType": "contract ILQTYStaking",
          "name": "",
          "type": "address"
        }
      ],
      "stateMutability": "view",
      "type": "function"
    },
    {
      "inputs": [],
      "name": "lqtyToken",
      "outputs": [
        {
          "internalType": "contract ILQTYToken",
          "name": "",
          "type": "address"
        }
      ],
      "stateMutability": "view",
      "type": "function"
    },
    {
      "inputs": [],
      "name": "lusdToken",
      "outputs": [
        {
          "internalType": "contract ILUSDToken",
          "name": "",
          "type": "address"
        }
      ],
      "stateMutability": "view",
      "type": "function"
    },
    {
      "inputs": [],
      "name": "minutesPassedSinceLastFeeOp",
      "outputs": [
        {
          "internalType": "uint256",
          "name": "",
          "type": "uint256"
        }
      ],
      "stateMutability": "view",
      "type": "function"
    },
    {
      "inputs": [],
      "name": "owner",
      "outputs": [
        {
          "internalType": "address",
          "name": "",
          "type": "address"
        }
      ],
      "stateMutability": "view",
      "type": "function"
    },
    {
      "inputs": [],
      "name": "priceFeed",
      "outputs": [
        {
          "internalType": "contract IPriceFeed",
          "name": "",
          "type": "address"
        }
      ],
      "stateMutability": "view",
      "type": "function"
    },
    {
      "inputs": [
        {
          "internalType": "uint256",
          "name": "_LUSDamount",
          "type": "uint256"
        },
        {
          "internalType": "address",
          "name": "_firstRedemptionHint",
          "type": "address"
        },
        {
          "internalType": "address",
          "name": "_upperPartialRedemptionHint",
          "type": "address"
        },
        {
          "internalType": "address",
          "name": "_lowerPartialRedemptionHint",
          "type": "address"
        },
        {
          "internalType": "uint256",
          "name": "_partialRedemptionHintNICR",
          "type": "uint256"
        },
        {
          "internalType": "uint256",
          "name": "_maxIterations",
          "type": "uint256"
        },
        {
          "internalType": "uint256",
          "name": "_maxFeePercentage",
          "type": "uint256"
        }
      ],
      "name": "redeemCollateral",
      "outputs": [],
      "stateMutability": "nonpayable",
      "type": "function"
    },
    {
      "inputs": [
        {
          "internalType": "address",
          "name": "_borrower",
          "type": "address"
        }
      ],
      "name": "removeStake",
      "outputs": [],
      "stateMutability": "nonpayable",
      "type": "function"
    },
    {
      "inputs": [
        {
          "internalType": "address",
          "name": "",
          "type": "address"
        }
      ],
      "name": "rewardSnapshots",
      "outputs": [
        {
          "internalType": "uint256",
          "name": "ETH",
          "type": "uint256"
        },
        {
          "internalType": "uint256",
          "name": "LUSDDebt",
          "type": "uint256"
        }
      ],
      "stateMutability": "view",
      "type": "function"
    },
    {
      "inputs": [
        {
          "internalType": "address",
          "name": "_borrowerOperationsAddress",
          "type": "address"
        },
        {
          "internalType": "address",
          "name": "_activePoolAddress",
          "type": "address"
        },
        {
          "internalType": "address",
          "name": "_defaultPoolAddress",
          "type": "address"
        },
        {
          "internalType": "address",
          "name": "_stabilityPoolAddress",
          "type": "address"
        },
        {
          "internalType": "address",
          "name": "_gasPoolAddress",
          "type": "address"
        },
        {
          "internalType": "address",
          "name": "_collSurplusPoolAddress",
          "type": "address"
        },
        {
          "internalType": "address",
          "name": "_priceFeedAddress",
          "type": "address"
        },
        {
          "internalType": "address",
          "name": "_lusdTokenAddress",
          "type": "address"
        },
        {
          "internalType": "address",
          "name": "_sortedTrovesAddress",
          "type": "address"
        },
        {
          "internalType": "address",
          "name": "_lqtyTokenAddress",
          "type": "address"
        },
        {
          "internalType": "address",
          "name": "_lqtyStakingAddress",
          "type": "address"
        }
      ],
      "name": "setAddresses",
      "outputs": [],
      "stateMutability": "nonpayable",
      "type": "function"
    },
    {
      "inputs": [
        {
          "internalType": "uint256",
          "name": "_baseRate",
          "type": "uint256"
        }
      ],
      "name": "setBaseRate",
      "outputs": [],
      "stateMutability": "nonpayable",
      "type": "function"
    },
    {
      "inputs": [],
      "name": "setLastFeeOpTimeToNow",
      "outputs": [],
      "stateMutability": "nonpayable",
      "type": "function"
    },
    {
      "inputs": [
        {
          "internalType": "address",
          "name": "_borrower",
          "type": "address"
        },
        {
          "internalType": "uint256",
          "name": "_num",
          "type": "uint256"
        }
      ],
      "name": "setTroveStatus",
      "outputs": [],
      "stateMutability": "nonpayable",
      "type": "function"
    },
    {
      "inputs": [],
      "name": "sortedTroves",
      "outputs": [
        {
          "internalType": "contract ISortedTroves",
          "name": "",
          "type": "address"
        }
      ],
      "stateMutability": "view",
      "type": "function"
    },
    {
      "inputs": [],
      "name": "stabilityPool",
      "outputs": [
        {
          "internalType": "contract IStabilityPool",
          "name": "",
          "type": "address"
        }
      ],
      "stateMutability": "view",
      "type": "function"
    },
    {
      "inputs": [],
      "name": "totalCollateralSnapshot",
      "outputs": [
        {
          "internalType": "uint256",
          "name": "",
          "type": "uint256"
        }
      ],
      "stateMutability": "view",
      "type": "function"
    },
    {
      "inputs": [],
      "name": "totalStakes",
      "outputs": [
        {
          "internalType": "uint256",
          "name": "",
          "type": "uint256"
        }
      ],
      "stateMutability": "view",
      "type": "function"
    },
    {
      "inputs": [],
      "name": "totalStakesSnapshot",
      "outputs": [
        {
          "internalType": "uint256",
          "name": "",
          "type": "uint256"
        }
      ],
      "stateMutability": "view",
      "type": "function"
    },
    {
      "inputs": [],
      "name": "unprotectedDecayBaseRateFromBorrowing",
      "outputs": [
        {
          "internalType": "uint256",
          "name": "",
          "type": "uint256"
        }
      ],
      "stateMutability": "nonpayable",
      "type": "function"
    },
    {
      "inputs": [
        {
          "internalType": "address",
          "name": "_borrower",
          "type": "address"
        }
      ],
      "name": "updateStakeAndTotalStakes",
      "outputs": [
        {
          "internalType": "uint256",
          "name": "",
          "type": "uint256"
        }
      ],
      "stateMutability": "nonpayable",
      "type": "function"
    },
    {
      "inputs": [
        {
          "internalType": "address",
          "name": "_borrower",
          "type": "address"
        }
      ],
      "name": "updateTroveRewardSnapshots",
      "outputs": [],
      "stateMutability": "nonpayable",
      "type": "function"
    }
  ],
  "bytecode": "0x608060405234801561001057600080fd5b50600380546001600160a01b031916339081179091556040516000907f8be0079c531659141344cd1fd0a4f28419497f9722a3daafe3b4186f6b6457e0908290a3615b6980620000616000396000f3fe608060405234801561001057600080fd5b50600436106104d85760003560e01c8063795d26c311610283578063bcd375261161015c578063d66a2553116100ce578063e2ac77b011610092578063e2ac77b014610d5b578063f34862de14610d81578063f36b242514610da7578063f92d343314610718578063fe2ba84814610daf578063febb33de14610dd5576104d8565b8063d66a255314610ce2578063d9a7244414610d08578063da303f1414610d25578063dba1c5f214610d2d578063dc62a70214610d35576104d8565b8063cbd138ae11610120578063cbd138ae14610c37578063d293c71014610c5d578063d380a37c14610c89578063d3d6f84314610c91578063d5205e4814610cbd578063d5b3563514610cc5576104d8565b8063bcd3752614610bc9578063bf9befb114610c17578063c35bc55014610c1f578063c52861f214610c27578063c7b5548114610c2f576104d8565b80639976cf45116101f5578063ae918754116101b9578063ae91875414610b22578063b0d8e18114610b2a578063b7f8cf9b14610b50578063b82f263d14610b58578063b83f91a214610b75578063b91af97c14610b7d576104d8565b80639976cf4514610ac95780639dd233d214610af5578063a20baee614610989578063a3a6401714610afd578063a537896f14610b05576104d8565b8063814a0a4511610247578063814a0a4514610a5a57806382fe3eb914610a83578063887105d314610aa95780638da5cb5b14610ab15780638f32d59b14610ab957806396d711ff14610ac1576104d8565b8063795d26c3146109be578063797250e3146109c65780637985c5e4146109ce5780637f7dde4a14610a4a578063807d138d14610a52576104d8565b8063477d66cf116103b557806361ec893d116103275780636ef64338116102eb5780636ef64338146108ee57806372423c171461095d57806372fe25aa14610989578063741bef1a14610991578063756b253e14610999578063794e5724146109b6576104d8565b806361ec893d1461087e578063631203b01461088657806364cee260146108a3578063653d46e7146108c957806366ca4a21146108e6576104d8565b80634ff81443116103795780634ff81443146107e257806354062a45146107ff5780635733d58f1461081c5780635d6b480f146108245780635d8c9609146108505780635dba4c4a14610876576104d8565b8063477d66cf1461075e578063480cd5781461077b5780634870dd9a146107a157806349eefeee146107a95780634e443d9e146107b1576104d8565b80631d08837b1161044e5780632409266911610412578063240926691461071057806328d28b5b146107185780632b11551a146107205780632e86bbd8146107285780632f865568146107305780633cc7422514610756576104d8565b80631d08837b1461061a5780631e8b1c2b146106375780631f68f20a146106da5780631f7af3c3146106e257806321e37801146106ea576104d8565b8063105bb15c116104a0578063105bb15c1461055357806312610e921461055b57806315d549f1146105875780631673c79a146105ad57806318f2817a146105ec5780631bf4355514610612576104d8565b8063043782fb146104dd578063048c661d146104e7578063060d49a31461050b578063071a7541146105255780630b0765571461052d575b600080fd5b6104e5610df2565b005b6104ef610df8565b604080516001600160a01b039092168252519081900360200190f35b610513610e07565b60408051918252519081900360200190f35b610513610e0d565b6104e56004803603602081101561054357600080fd5b50356001600160a01b0316610e12565b610513610e3a565b6105136004803603604081101561057157600080fd5b506001600160a01b038135169060200135610e49565b6105136004803603602081101561059d57600080fd5b50356001600160a01b0316610ea1565b6105d3600480360360208110156105c357600080fd5b50356001600160a01b0316610ec5565b6040805192835260208301919091528051918290030190f35b6105136004803603602081101561060257600080fd5b50356001600160a01b0316610ede565b610513610ef1565b6104e56004803603602081101561063057600080fd5b5035610efe565b6104e56004803603602081101561064d57600080fd5b81019060208101813564010000000081111561066857600080fd5b82018360208201111561067a57600080fd5b8035906020019184602083028401116401000000008311171561069c57600080fd5b919080806020026020016040519081016040528093929190818152602001838360200280828437600092019190915250929550610f03945050505050565b6105136112a5565b6104ef6112ab565b6105136004803603602081101561070057600080fd5b50356001600160a01b03166112ba565b6105136112e4565b6105136112f7565b610513611308565b610513611315565b6104e56004803603602081101561074657600080fd5b50356001600160a01b0316611322565b6104ef611388565b6105136004803603602081101561077457600080fd5b5035611397565b6105136004803603602081101561079157600080fd5b50356001600160a01b03166113aa565b6105136113c8565b6105136113cd565b6107ce600480360360208110156107c757600080fd5b50356113d3565b604080519115158252519081900360200190f35b610513600480360360208110156107f857600080fd5b50356113de565b6105136004803603602081101561081557600080fd5b50356113e9565b6105136113f4565b6104e56004803603604081101561083a57600080fd5b506001600160a01b038135169060200135611400565b6105136004803603602081101561086657600080fd5b50356001600160a01b031661144c565b6104e5611512565b610513611578565b6105136004803603602081101561089c57600080fd5b503561157d565b610513600480360360208110156108b957600080fd5b50356001600160a01b031661158a565b6104e5600480360360208110156108df57600080fd5b50356115a8565b610513611956565b6109146004803603602081101561090457600080fd5b50356001600160a01b0316611968565b6040518086815260200185815260200184815260200183600281111561093657fe5b60ff1681526001600160801b03909216602083015250604080519182900301945092505050f35b6105136004803603604081101561097357600080fd5b506001600160a01b0381351690602001356119a2565b6105136119ff565b6104ef611a0b565b6104ef600480360360208110156109af57600080fd5b5035611a1a565b610513611a41565b610513611a4d565b610513611b4e565b6104e560048036036101608110156109e557600080fd5b506001600160a01b038135811691602081013582169160408201358116916060810135821691608082013581169160a081013582169160c082013581169160e08101358216916101008201358116916101208101358216916101409091013516611b54565b6104ef611f4d565b610513611f5c565b61051360048036036060811015610a7057600080fd5b5080359060208101359060400135611f62565b6104e560048036036020811015610a9957600080fd5b50356001600160a01b0316611f79565b610513611f8a565b6104ef612046565b6107ce612055565b610513612066565b61051360048036036040811015610adf57600080fd5b506001600160a01b03813516906020013561206c565b61051361209f565b6104ef6120a5565b61051360048036036020811015610b1b57600080fd5b50356120b4565b6104ef6120bf565b61051360048036036020811015610b4057600080fd5b50356001600160a01b03166120ce565b6104ef6120f5565b61051360048036036020811015610b6e57600080fd5b5035612104565b6104ef61210f565b610ba360048036036020811015610b9357600080fd5b50356001600160a01b031661211e565b604080519485526020850193909352838301919091526060830152519081900360800190f35b6104e5600480360360e0811015610bdf57600080fd5b508035906001600160a01b03602082013581169160408101358216916060820135169060808101359060a08101359060c00135612182565b610513612924565b61051361292a565b610513612931565b610513612943565b6104e560048036036020811015610c4d57600080fd5b50356001600160a01b031661294f565b61051360048036036040811015610c7357600080fd5b506001600160a01b038135169060200135612960565b61051361297f565b61051360048036036040811015610ca757600080fd5b506001600160a01b038135169060200135612985565b6105136129bb565b61051360048036036020811015610cdb57600080fd5b50356129c8565b61051360048036036020811015610cf857600080fd5b50356001600160a01b03166129db565b6104ef60048036036020811015610d1e57600080fd5b50356129f6565b610513612a20565b610513612a50565b6104e560048036036020811015610d4b57600080fd5b50356001600160a01b0316612a56565b6107ce60048036036020811015610d7157600080fd5b50356001600160a01b0316612a63565b61051360048036036020811015610d9757600080fd5b50356001600160a01b0316612ac1565b610513612af2565b6104e560048036036020811015610dc557600080fd5b50356001600160a01b0316612aff565b61051360048036036020811015610deb57600080fd5b5035612b10565b42600d55565b6005546001600160a01b031681565b60175481565b600281565b610e1a612b21565b600054600154610e37916001600160a01b03908116911683612b6c565b50565b6000610e44612c8e565b905090565b6000610e53612b21565b6001600160a01b0383166000908152600e6020526040812054610e7c908463ffffffff612caa16565b6001600160a01b0385166000908152600e602052604090208190559150505b92915050565b6000610eab612b21565b610eb482612cec565b6001600160801b031690505b919050565b6014602052600090815260409020805460019091015482565b6000610ee8612b21565b610e9b82612d86565b6869b5afac750bb8000081565b600c55565b8051610f405760405162461bcd60e51b81526004018080602001828103825260368152602001806159ef6036913960400191505060405180910390fd5b6000546001546005546001600160a01b03928316929182169116610f626156e7565b610f6a615718565b600260009054906101000a90046001600160a01b03166001600160a01b0316630fdb11cf6040518163ffffffff1660e01b8152600401602060405180830381600087803b158015610fba57600080fd5b505af1158015610fce573d6000803e3d6000fd5b505050506040513d6020811015610fe457600080fd5b50518252604080516326fcbc6b60e21b815290516001600160a01b03851691639bf2f1ac916004808301926020929190829003018186803b15801561102857600080fd5b505afa15801561103c573d6000803e3d6000fd5b505050506040513d602081101561105257600080fd5b50516020830152815161106490612e35565b158015604084015261108c576110858585846000015185602001518a612e52565b90506110a4565b6110a18585846000015185602001518a61303b565b90505b60008160200151116110e75760405162461bcd60e51b8152600401808060200182810382526022815260200180615ae36022913960400191505060405180910390fd5b826001600160a01b031663335525ad82608001518360a001516040518363ffffffff1660e01b81526004018083815260200182815260200192505050600060405180830381600087803b15801561113d57600080fd5b505af1158015611151573d6000803e3d6000fd5b5050505061116985858360c001518460e00151613103565b610100810151156111e857600754610100820151604080516364a197f360e01b81526001600160a01b039384166004820152602481019290925251918716916364a197f39160448082019260009290919082900301818387803b1580156111cf57600080fd5b505af11580156111e3573d6000803e3d6000fd5b505050505b6111f6858260400151613384565b602081015160608301526101008101516040820151825161122e9291611222919063ffffffff612caa16565b9063ffffffff612caa16565b608080840182905260608085015160408086015186840151825193845260208401969096528282015291810193909352517f4152c73dd2614c4f9fc35e8c9cf16013cd588c75b49a4c1673ecffdcbcda94039281900390910190a161129d8533836060015184604001516134cb565b505050505050565b600c5481565b6009546001600160a01b031681565b6001600160a01b0381166000908152600e602052604081206003015460ff166002811115610e9b57fe5b6064670de0b6b3a76400005b0460050281565b6103e8670de0b6b3a76400006112f0565b6000610e44600c546135ce565b6802b5e3af16b188000081565b61132b81613604565b60408051600180825281830190925260609160208083019080368337019050509050818160008151811061135b57fe5b60200260200101906001600160a01b031690816001600160a01b03168152505061138481610f03565b5050565b6001546001600160a01b031681565b6000610e9b6113a4611956565b8361366c565b6001600160a01b03166000908152600e602052604090206001015490565b60c881565b60155490565b6000610e9b82612e35565b6000610e9b8261368a565b6000610e9b826136a5565b6714d1120d7b16000081565b611408612b21565b80600281111561141457fe5b6001600160a01b0383166000908152600e60205260409020600301805460ff1916600183600281111561144357fe5b02179055505050565b6001600160a01b038116600090815260146020526040812054601254829061147a908363ffffffff612caa16565b90508015806114b3575060016001600160a01b0385166000908152600e602052604090206003015460ff1660028111156114b057fe5b14155b156114c357600092505050610ec0565b6001600160a01b0384166000908152600e602052604081206002015490611508670de0b6b3a76400006114fc848663ffffffff6136c016565b9063ffffffff61371916565b9695505050505050565b61151a612b21565b600061152461375b565b9050670de0b6b3a764000081111561153857fe5b600c8190556040805182815290517fc454ee9b76c52f782a256af821b857ca6e125d1e3333bcede402fec2bed9600c9181900360200190a1610e3761379f565b603c81565b6000610e9b6113a4612af2565b6001600160a01b03166000908152600e602052604090206002015490565b6115b0615764565b506040805160e081018252600080546001600160a01b0390811683526001548116602084015292820181905260608201819052600b548316608083015260a0820181905260c08201526005549091166116076156e7565b61160f615718565b600260009054906101000a90046001600160a01b03166001600160a01b0316630fdb11cf6040518163ffffffff1660e01b8152600401602060405180830381600087803b15801561165f57600080fd5b505af1158015611673573d6000803e3d6000fd5b505050506040513d602081101561168957600080fd5b50518252604080516326fcbc6b60e21b815290516001600160a01b03851691639bf2f1ac916004808301926020929190829003018186803b1580156116cd57600080fd5b505afa1580156116e1573d6000803e3d6000fd5b505050506040513d60208110156116f757600080fd5b50516020830152815161170990612e35565b1580156040840152611730576117298483600001518460200151886137fb565b9050611750565b61174d846000015185602001518460000151856020015189613b8e565b90505b60008160200151116117935760405162461bcd60e51b8152600401808060200182810382526022815260200180615ae36022913960400191505060405180910390fd5b826001600160a01b031663335525ad82608001518360a001516040518363ffffffff1660e01b81526004018083815260200182815260200192505050600060405180830381600087803b1580156117e957600080fd5b505af11580156117fd573d6000803e3d6000fd5b5050505061181d846000015185602001518360c001518460e00151613103565b6101008101511561189e578351600754610100830151604080516364a197f360e01b81526001600160a01b03938416600482015260248101929092525191909216916364a197f391604480830192600092919082900301818387803b15801561188557600080fd5b505af1158015611899573d6000803e3d6000fd5b505050505b6118b084600001518260400151613384565b60208101516060830152610100810151604082015182516118dc9291611222919063ffffffff612caa16565b608080840182905260608085015160408086015186840151825193845260208401969096528282015291810193909352517f4152c73dd2614c4f9fc35e8c9cf16013cd588c75b49a4c1673ecffdcbcda94039281900390910190a161194f846000015133836060015184604001516134cb565b5050505050565b6000610e4461196361375b565b613cc0565b600e6020526000908152604090208054600182015460028301546003909301549192909160ff81169061010090046001600160801b031685565b60006119ac612b21565b6001600160a01b0383166000908152600e60205260408120600101546119d8908463ffffffff613ce716565b6001600160a01b0385166000908152600e6020526040902060010181905591505092915050565b670de0b6b3a764000081565b6002546001600160a01b031681565b60158181548110611a2757fe5b6000918252602090912001546001600160a01b0316905081565b670f43fc2c04ee000081565b6000805460408051632f5a97e560e11b8152905183926001600160a01b031691635eb52fca916004808301926020929190829003018186803b158015611a9257600080fd5b505afa158015611aa6573d6000803e3d6000fd5b505050506040513d6020811015611abc57600080fd5b505160015460408051632f5a97e560e11b815290519293506000926001600160a01b0390921691635eb52fca91600480820192602092909190829003018186803b158015611b0957600080fd5b505afa158015611b1d573d6000803e3d6000fd5b505050506040513d6020811015611b3357600080fd5b50519050611b47828263ffffffff613ce716565b9250505090565b60165481565b611b5c612055565b611bad576040805162461bcd60e51b815260206004820181905260248201527f4f776e61626c653a2063616c6c6572206973206e6f7420746865206f776e6572604482015290519081900360640190fd5b611bb68b613d41565b611bbf8a613d41565b611bc889613d41565b611bd188613d41565b611bda87613d41565b611be386613d41565b611bec85613d41565b611bf584613d41565b611bfe83613d41565b611c0782613d41565b611c1081613d41565b600480546001600160a01b03199081166001600160a01b038e81169182179093556000805483168e85161790556001805483168d85161790556005805483168c85161790556006805483168b85161790556007805483168a8516179055600280548316898516179055600880548316888516179055600b80548316878516179055600980548316868516179055600a805490921692841692909217905560408051918252517f3ca631ffcd2a9b5d9ae18543fc82f58eb4ca33af9e6ab01b7a8e95331e6ed985916020908290030190a1604080516001600160a01b038c16815290517f78f058b189175430c48dc02699e3a0031ea4ff781536dc2fab847de4babdd8829181900360200190a1604080516001600160a01b038b16815290517f5ee0cae2f063ed938bb55046f6a932fb6ae792bf43624806bb90abe68a50be9b9181900360200190a1604080516001600160a01b038a16815290517f82966d27eea39b038ee0fa30cd16532bb24f6e65d31cb58fb227aa5766cdcc7f9181900360200190a1604080516001600160a01b038916815290517fcfb07d791fcafc032b35837b50eb84b74df518cf4cc287e8084f47630fa70fa09181900360200190a1604080516001600160a01b038816815290517fe67f36a6e961157d6eff83b91f3af5a62131ceb6f04954ef74f51c1c05e7f88d9181900360200190a1604080516001600160a01b038716815290517f8c537274438aa850a330284665d81a85dd38267d09e4050d416bfc94142db2649181900360200190a1604080516001600160a01b038616815290517f227eec0ec317af6ab1a9587ffa1c84332522eb4c583a908f89babc05f8f339bd9181900360200190a1604080516001600160a01b038516815290517f65f4cf077bc01e4742eb5ad98326f6e95b63548ea24b17f8d5e823111fe788009181900360200190a1604080516001600160a01b038416815290517f2ac6e99201ddc1b6eac6f8f28662d1ecafee131f6eb98c29de54528a9888a7d19181900360200190a1604080516001600160a01b038316815290517f756ebc192164c295bba134b5aacd72cc7aff8098a670d1f0a5f6b3a0b4ce67079181900360200190a1611f40613df0565b5050505050505050505050565b6000546001600160a01b031681565b60105481565b6000611f6f848484613e3a565b90505b9392505050565b611f81612b21565b610e3781613e6a565b6000805460408051630a7b61df60e11b8152905183926001600160a01b0316916314f6c3be916004808301926020929190829003018186803b158015611fcf57600080fd5b505afa158015611fe3573d6000803e3d6000fd5b505050506040513d6020811015611ff957600080fd5b505160015460408051630a7b61df60e11b815290519293506000926001600160a01b03909216916314f6c3be91600480820192602092909190829003018186803b158015611b0957600080fd5b6003546001600160a01b031690565b6003546001600160a01b0316331490565b60115481565b6000612076612b21565b6001600160a01b0383166000908152600e6020526040812054610e7c908463ffffffff613ce716565b60125481565b600a546001600160a01b031681565b6000610e9b82613ed5565b600b546001600160a01b031681565b60008060006120dc84613edc565b9150915060006120ec8383613f62565b95945050505050565b6004546001600160a01b031681565b6000610e9b82613f97565b6008546001600160a01b031681565b6001600160a01b0381166000908152600e60205260408120805460019091015490918061214a85612ac1565b91506121558561144c565b9050612167848363ffffffff613ce716565b9350612179838263ffffffff613ce716565b92509193509193565b61218a615764565b506040805160e0810182526000546001600160a01b03908116825260015481166020830152600854811692820192909252600a5482166060820152600b5482166080820152600754821660a082015260065490911660c08201526121ec6157a0565b6121f583613fc3565b6121fd61401d565b600260009054906101000a90046001600160a01b03166001600160a01b0316630fdb11cf6040518163ffffffff1660e01b8152600401602060405180830381600087803b15801561224d57600080fd5b505af1158015612261573d6000803e3d6000fd5b505050506040513d602081101561227757600080fd5b505160c08201819052612289906140e1565b61229289614130565b6122a18260400151338b61416f565b6122a9611a4d565b60e0820181905260408084015181516370a0823160e01b815233600482015291516001600160a01b03909116916370a08231916024808301926020929190829003018186803b1580156122fb57600080fd5b505afa15801561230f573d6000803e3d6000fd5b505050506040513d602081101561232557600080fd5b5051111561232f57fe5b888152608082015160c082015160009161234a918b9061422f565b15612356575087612480565b82608001516001600160a01b0316634d6228316040518163ffffffff1660e01b815260040160206040518083038186803b15801561239357600080fd5b505afa1580156123a7573d6000803e3d6000fd5b505050506040513d60208110156123bd57600080fd5b505190505b6001600160a01b038116158015906123ee5750670f43fc2c04ee00006123ec828460c00151612960565b105b156124805782608001516001600160a01b031663b72703ac826040518263ffffffff1660e01b815260040180826001600160a01b03166001600160a01b0316815260200191505060206040518083038186803b15801561244d57600080fd5b505afa158015612461573d6000803e3d6000fd5b505050506040513d602081101561247757600080fd5b505190506123c2565b8461248b5760001994505b6001600160a01b038116158015906124a35750815115155b80156124af5750600085115b156125e357848060019003955050600083608001516001600160a01b031663b72703ac836040518263ffffffff1660e01b815260040180826001600160a01b03166001600160a01b0316815260200191505060206040518083038186803b15801561251957600080fd5b505afa15801561252d573d6000803e3d6000fd5b505050506040513d602081101561254357600080fd5b5051845160208601519192506125599184612b6c565b6125616157e5565b612578858486600001518760c001518e8e8e6143a2565b905080604001511561258b5750506125e3565b805160208501516125a19163ffffffff613ce716565b60208086019190915281015160408501516125c19163ffffffff613ce716565b6040850152805184516125d99163ffffffff612caa16565b845250905061248b565b60008260400151116126265760405162461bcd60e51b81526004018080602001828103825260298152602001806158926029913960400191505060405180910390fd5b61263d82604001518360c001518460e00151614653565b5061264b82604001516146fb565b606083018190526040830151612662919086614708565b82600001516001600160a01b03166364a197f3846060015184606001516040518363ffffffff1660e01b815260040180836001600160a01b03166001600160a01b0316815260200182815260200192505050600060405180830381600087803b1580156126ce57600080fd5b505af11580156126e2573d6000803e3d6000fd5b5050505082606001516001600160a01b0316631e3e2a1a83606001516040518263ffffffff1660e01b815260040180828152602001915050600060405180830381600087803b15801561273457600080fd5b505af1158015612748573d6000803e3d6000fd5b505050506060820151604083015161275f91612caa565b8260800181815250507f43a3f4082a4dbc33d78e317d2497d3a730bc7fc3574159dcea1056e62e5d9ad88a8360200151846040015185606001516040518085815260200184815260200183815260200182815260200194505050505060405180910390a182604001516001600160a01b0316639dc29fac3384602001516040518363ffffffff1660e01b815260040180836001600160a01b03166001600160a01b0316815260200182815260200192505050600060405180830381600087803b15801561282b57600080fd5b505af115801561283f573d6000803e3d6000fd5b5050505082600001516001600160a01b03166338d995a883602001516040518263ffffffff1660e01b815260040180828152602001915050600060405180830381600087803b15801561289157600080fd5b505af11580156128a5573d6000803e3d6000fd5b505084516080850151604080516364a197f360e01b81523360048201526024810192909252516001600160a01b0390921693506364a197f3925060448082019260009290919082900301818387803b15801561290057600080fd5b505af1158015612914573d6000803e3d6000fd5b5050505050505050505050505050565b600f5481565b6212750081565b6000610e4461293e61375b565b6135ce565b670ddd4b8c6c7d70d881565b612957612b21565b610e378161477d565b600080600061296e85613edc565b915091506000611508838387613e3a565b600d5481565b600061298f612b21565b6001600160a01b0383166000908152600e60205260408120600101546119d8908463ffffffff612caa16565b6802b5e3af16b188000090565b6000610e9b6129d5612931565b83614837565b6001600160a01b03166000908152600e602052604090205490565b600060158281548110612a0557fe5b6000918252602090912001546001600160a01b031692915050565b6000612a2a61375b565b600c55670de0b6b3a7640000600c541115612a4157fe5b612a4961379f565b50600c5490565b60135481565b6015546113848282614896565b600060016001600160a01b0383166000908152600e602052604090206003015460ff166002811115612a9157fe5b14612a9e57506000610ec0565b506012546001600160a01b03821660009081526014602052604090205410919050565b6001600160a01b038116600090815260146020526040812060010154601354829061147a908363ffffffff612caa16565b6000610e44600c54613cc0565b612b07612b21565b610e3781614a23565b6000612b1b826146fb565b50919050565b6004546001600160a01b03163314612b6a5760405162461bcd60e51b815260040180806020018281038252603b8152602001806159b4603b913960400191505060405180910390fd5b565b612b7581612a63565b15612c8957612b8381613604565b6000612b8e8261144c565b90506000612b9b83612ac1565b6001600160a01b0384166000908152600e6020526040902060010154909150612bca908363ffffffff613ce716565b6001600160a01b0384166000908152600e60205260409020600181019190915554612bfb908263ffffffff613ce716565b6001600160a01b0384166000908152600e6020526040902055612c1d83613e6a565b612c2985858385614a73565b6001600160a01b0383166000818152600e602090815260408083208054600182015460029092015483519182529381019190915280820192909252606082019290925290516000805160206159948339815191529181900360800190a250505b505050565b6000610e44603c6114fc600d5442612caa90919063ffffffff16565b6000611f7283836040518060400160405280601e81526020017f536166654d6174683a207375627472616374696f6e206f766572666c6f770000815250614b75565b601580546001808201835560008381527f55f448fdea98c4d29eb340757ef0a66cd03dbb9538908a6a81d96026b71ec47590920180546001600160a01b0319166001600160a01b03861617905591549091612d479190612caa565b6001600160a01b03929092166000908152600e602052604090206003018054610100600160881b0319166101006001600160801b038516021790555090565b6001600160a01b0381166000908152600e60205260408120600101548190612dad90614c0c565b6001600160a01b0384166000908152600e60205260409020600201805490829055600f5491925090612df7908390612deb908463ffffffff612caa16565b9063ffffffff613ce716565b600f81905560408051918252517f6bac5e0eb3c44eb03a60ab11ec3a2c051771616aecadbcfff2630aabae5203829181900360200190a15092915050565b600080612e4183613f97565b6714d1120d7b160000119392505050565b612e5a615718565b612e62615808565b612e6a615718565b84825260006080830152612e7c611a4d565b60a0830152612e89611f8a565b60c0830152600060208301525b8351826020015110156130305783826020015181518110612eb357fe5b60209081029190910101516001600160a01b031660608301819052612ed89087612960565b60408301526080820151612fc257670f43fc2c04ee0000826040015110158015612f0157508151155b15612f0b57613020565b6000612f208360c001518460a0015189613e3a565b9050612f3d8989856060015186604001518760000151868d614c48565b60808101518451919350612f57919063ffffffff612caa16565b8352608082015160a0840151612f729163ffffffff612caa16565b60a08085019190915282015160c0840151612f929163ffffffff612caa16565b60c0840152612fa18483614f75565b9350612fb68360c001518460a001518961508c565b15608084015250613020565b81608001518015612fde5750670f43fc2c04ee00008260400151105b1561302057612ff78888846060015185600001516150ad565b60808101518351919250613011919063ffffffff612caa16565b825261301d8382614f75565b92505b6020820180516001019052612e96565b505095945050505050565b613043615718565b61304b615808565b613053615718565b848252600060208301525b835182602001511015613030578382602001518151811061307b57fe5b60209081029190910101516001600160a01b0316606083018190526130a09087612960565b60408301819052670f43fc2c04ee000011156130f3576130ca8888846060015185600001516150ad565b608081015183519192506130e4919063ffffffff612caa16565b82526130f08382614f75565b92505b602082018051600101905261305e565b8161310d5761337e565b60165460009061312f90612deb84670de0b6b3a764000063ffffffff6136c016565b90506000613154601754612deb670de0b6b3a7640000876136c090919063ffffffff16565b9050600061316d600f548461371990919063ffffffff16565b90506000613186600f548461371990919063ffffffff16565b90506131ad6131a0600f54846136c090919063ffffffff16565b859063ffffffff612caa16565b601655600f546131d5906131c890839063ffffffff6136c016565b849063ffffffff612caa16565b6017556012546131eb908363ffffffff613ce716565b601255601354613201908263ffffffff613ce716565b601381905560125460408051918252602082019290925281517f9f8bc8ab0daf5bceef75ecfd2085d1fcc6548c657ea970d9a23a60610d0737e3929181900390910190a1876001600160a01b03166338d995a8876040518263ffffffff1660e01b815260040180828152602001915050600060405180830381600087803b15801561328b57600080fd5b505af115801561329f573d6000803e3d6000fd5b50505050866001600160a01b031663cfb9329a876040518263ffffffff1660e01b815260040180828152602001915050600060405180830381600087803b1580156132e957600080fd5b505af11580156132fd573d6000803e3d6000fd5b50505050876001600160a01b03166364a197f388876040518363ffffffff1660e01b815260040180836001600160a01b03166001600160a01b0316815260200182815260200192505050600060405180830381600087803b15801561336157600080fd5b505af1158015613375573d6000803e3d6000fd5b50505050505050505b50505050565b600f546010819055506000826001600160a01b03166314f6c3be6040518163ffffffff1660e01b815260040160206040518083038186803b1580156133c857600080fd5b505afa1580156133dc573d6000803e3d6000fd5b505050506040513d60208110156133f257600080fd5b505160015460408051630a7b61df60e11b815290519293506000926001600160a01b03909216916314f6c3be91600480820192602092909190829003018186803b15801561343f57600080fd5b505afa158015613453573d6000803e3d6000fd5b505050506040513d602081101561346957600080fd5b5051905061348181612deb848663ffffffff612caa16565b601181905560105460408051918252602082019290925281517f51bf4c63ec3cba9d03d43238abbdd979dd91bd16d9895c74ceea9118c7baaf60929181900390910190a150505050565b811561354a5760085460065460408051631062c15f60e11b81526001600160a01b039283166004820152868316602482015260448101869052905191909216916320c582be91606480830192600092919082900301818387803b15801561353157600080fd5b505af1158015613545573d6000803e3d6000fd5b505050505b801561337e57836001600160a01b03166364a197f384836040518363ffffffff1660e01b815260040180836001600160a01b03166001600160a01b0316815260200182815260200192505050600060405180830381600087803b1580156135b057600080fd5b505af11580156135c4573d6000803e3d6000fd5b5050505050505050565b6000610e9b6135f6836103e8670de0b6b3a76400005b04600502613ce790919063ffffffff16565b670de0b6b3a764000061521a565b60016001600160a01b0382166000908152600e602052604090206003015460ff16600281111561363057fe5b14610e375760405162461bcd60e51b815260040180806020018281038252602f815260200180615b05602f913960400191505060405180910390fd5b6000611f72670de0b6b3a76400006114fc858563ffffffff6136c016565b6000610e9b826802b5e3af16b188000063ffffffff613ce716565b6000610e9b826802b5e3af16b188000063ffffffff612caa16565b6000826136cf57506000610e9b565b828202828482816136dc57fe5b0414611f725760405162461bcd60e51b81526004018080602001828103825260218152602001806159256021913960400191505060405180910390fd5b6000611f7283836040518060400160405280601a81526020017f536166654d6174683a206469766973696f6e206279207a65726f000000000000815250615230565b600080613766612c8e565b9050600061377c670ddd4b8c6c7d70d883615295565b9050611b47670de0b6b3a76400006114fc83600c546136c090919063ffffffff16565b60006137b6600d5442612caa90919063ffffffff16565b9050603c8110610e375742600d81905560408051918252517f860f8d2f0c74dd487e89e2883e3b25b8159ce1e1b3433a291cba7b82c508f3bc9181900360200190a150565b613803615718565b61380b615808565b613813615718565b84825260006080830152613825611a4d565b60a0830152613832611f8a565b8260c001818152505086608001516001600160a01b0316634d6228316040518163ffffffff1660e01b815260040160206040518083038186803b15801561387857600080fd5b505afa15801561388c573d6000803e3d6000fd5b505050506040513d60208110156138a257600080fd5b50516001600160a01b039081166060840152608088015160408051631e22314360e01b815290516000939290921691631e22314391600480820192602092909190829003018186803b1580156138f757600080fd5b505afa15801561390b573d6000803e3d6000fd5b505050506040513d602081101561392157600080fd5b50516000602085015290505b8483602001511080156139565750806001600160a01b031683606001516001600160a01b031614155b15613b8357600088608001516001600160a01b031663b72703ac85606001516040518263ffffffff1660e01b815260040180826001600160a01b03166001600160a01b0316815260200191505060206040518083038186803b1580156139bb57600080fd5b505afa1580156139cf573d6000803e3d6000fd5b505050506040513d60208110156139e557600080fd5b505160608501519091506139f99089612960565b60408501526080840151613af557670f43fc2c04ee0000846040015110158015613a2257508351155b15613a2d5750613b83565b6000613a428560c001518660a001518b613e3a565b8a5160208c0151606088015160408901518951949550613a6394868f614c48565b60808101518651919550613a7d919063ffffffff612caa16565b8552608084015160a0860151613a989163ffffffff612caa16565b8560a0018181525050613ac58461010001516112228660a001518860c00151612caa90919063ffffffff16565b60c0860152613ad48685614f75565b9550613ae98560c001518660a001518b61508c565b15608086015250613b65565b83608001518015613b115750670f43fc2c04ee00008460400151105b15613b5f57613b3289600001518a60200151866060015187600001516150ad565b60808101518551919450613b4c919063ffffffff612caa16565b8452613b588584614f75565b9450613b65565b50613b83565b6001600160a01b03166060840152602083018051600101905261392d565b505050949350505050565b613b96615718565b613b9e615808565b613ba6615718565b600b54858352600060208401526001600160a01b03165b8483602001511015613cb457806001600160a01b0316634d6228316040518163ffffffff1660e01b815260040160206040518083038186803b158015613c0257600080fd5b505afa158015613c16573d6000803e3d6000fd5b505050506040513d6020811015613c2c57600080fd5b50516001600160a01b031660608401819052613c489088612960565b60408401819052670f43fc2c04ee00001115613c9f57613c728989856060015186600001516150ad565b60808101518451919350613c8c919063ffffffff612caa16565b8352613c988483614f75565b9350613ca4565b613cb4565b6020830180516001019052613bbd565b50505095945050505050565b6000610e9b613cda836103e8670de0b6b3a76400006135e4565b66b1a2bc2ec5000061521a565b600082820183811015611f72576040805162461bcd60e51b815260206004820152601b60248201527f536166654d6174683a206164646974696f6e206f766572666c6f770000000000604482015290519081900360640190fd5b6001600160a01b038116613d9c576040805162461bcd60e51b815260206004820152601e60248201527f4163636f756e742063616e6e6f74206265207a65726f20616464726573730000604482015290519081900360640190fd5b803b80611384576040805162461bcd60e51b815260206004820181905260248201527f4163636f756e7420636f64652073697a652063616e6e6f74206265207a65726f604482015290519081900360640190fd5b6003546040516000916001600160a01b0316907f8be0079c531659141344cd1fd0a4f28419497f9722a3daafe3b4186f6b6457e0908390a3600380546001600160a01b0319169055565b60008215613e61576000613e58846114fc878663ffffffff6136c016565b9150611f729050565b50600019611f72565b601280546001600160a01b0383166000908152601460209081526040918290209283556013546001909301839055925481519081529283019190915280517fc437f324d85e369394148dd9d62f98f534b382e01ed3dd2eb98138fb6d3ab49a9281900390910190a150565b60c8900490565b6000806000613eea8461144c565b90506000613ef785612ac1565b6001600160a01b0386166000908152600e602052604081206001015491925090613f27908463ffffffff613ce716565b6001600160a01b0387166000908152600e602052604081205491925090613f54908463ffffffff613ce716565b919550909350505050915091565b60008115613f8e57613f87826114fc8568056bc75e2d6310000063ffffffff6136c016565b9050610e9b565b50600019610e9b565b600080613fa2611f8a565b90506000613fae611a4d565b9050613fbb828286613e3a565b949350505050565b6611c37937e080008110801590613fe25750670de0b6b3a76400008111155b610e375760405162461bcd60e51b8152600401808060200182810382526030815260200180615a896030913960400191505060405180910390fd5b60095460408051631e425be160e11b815290516000926001600160a01b031691633c84b7c2916004808301926020929190829003018186803b15801561406257600080fd5b505afa158015614076573d6000803e3d6000fd5b505050506040513d602081101561408c57600080fd5b505190506140a3816212750063ffffffff613ce716565b421015610e375760405162461bcd60e51b81526004018080602001828103825260408152602001806158e56040913960400191505060405180910390fd5b670f43fc2c04ee00006140f382613f97565b1015610e375760405162461bcd60e51b815260040180806020018281038252602a815260200180615ab9602a913960400191505060405180910390fd5b60008111610e375760405162461bcd60e51b815260040180806020018281038252602e815260200180615a25602e913960400191505060405180910390fd5b80836001600160a01b03166370a08231846040518263ffffffff1660e01b815260040180826001600160a01b03166001600160a01b0316815260200191505060206040518083038186803b1580156141c657600080fd5b505afa1580156141da573d6000803e3d6000fd5b505050506040513d60208110156141f057600080fd5b50511015612c895760405162461bcd60e51b815260040180806020018281038252604e815260200180615946604e913960600191505060405180910390fd5b60006001600160a01b03831615806142c65750836001600160a01b0316635dbe47e8846040518263ffffffff1660e01b815260040180826001600160a01b03166001600160a01b0316815260200191505060206040518083038186803b15801561429857600080fd5b505afa1580156142ac573d6000803e3d6000fd5b505050506040513d60208110156142c257600080fd5b5051155b806142e15750670f43fc2c04ee00006142df8484612960565b105b156142ee57506000611f72565b6000846001600160a01b031663765e0159856040518263ffffffff1660e01b815260040180826001600160a01b03166001600160a01b0316815260200191505060206040518083038186803b15801561434657600080fd5b505afa15801561435a573d6000803e3d6000fd5b505050506040513d602081101561437057600080fd5b505190506001600160a01b03811615806120ec5750670f43fc2c04ee00006143988285612960565b1095945050505050565b6143aa6157e5565b6001600160a01b0387166000908152600e60205260409020546143e79087906143e2906802b5e3af16b188000063ffffffff612caa16565b61521a565b8082526144089086906114fc90670de0b6b3a764000063ffffffff6136c016565b60208083019190915281516001600160a01b0389166000908152600e909252604082205461443b9163ffffffff612caa16565b6020808401516001600160a01b038b166000908152600e909252604082206001015492935090916144719163ffffffff612caa16565b90506802b5e3af16b18800008214156145085761448d89614a23565b6144968961477d565b6144ab8a8a6802b5e3af16b188000084615340565b886001600160a01b031660008051602061599483398151915260008060006003604051808581526020018481526020018381526020018260038111156144ed57fe5b60ff16815260200194505050505060405180910390a2614645565b60006145148284613f62565b9050848114158061453557506869b5afac750bb80000614533846136a5565b105b156145495750506001604083015250614648565b60808b01516040805163015f109360e51b81526001600160a01b038d81166004830152602482018590528a81166044830152898116606483015291519190921691632be2126091608480830192600092919082900301818387803b1580156145b057600080fd5b505af11580156145c4573d6000803e3d6000fd5b5050506001600160a01b038b166000908152600e60205260409020848155600101839055506145f28a612d86565b506001600160a01b038a166000818152600e6020908152604091829020600201548251878152918201869052818301526003606082015290516000805160206159948339815191529181900360800190a2505b50505b979650505050505050565b60008061465e61375b565b90506000614676846114fc888863ffffffff6136c016565b9050600061469b61468e83600263ffffffff61371916565b849063ffffffff613ce716565b90506146af81670de0b6b3a764000061521a565b9050600081116146bb57fe5b600c8190556040805182815290517fc454ee9b76c52f782a256af821b857ca6e125d1e3333bcede402fec2bed9600c9181900360200190a161150861379f565b6000610e9b6129d5611308565b6000614726836114fc86670de0b6b3a764000063ffffffff6136c016565b90508181111561337e576040805162461bcd60e51b815260206004820152601d60248201527f4665652065786365656465642070726f7669646564206d6178696d756d000000604482015290519081900360640190fd5b601554614789816154f5565b6001600160a01b0382166000908152600e6020908152604080832060038101805460ff191660021790556001808201859055908490556014909252822082815501556147d58282614896565b600b5460408051631484968760e11b81526001600160a01b038581166004830152915191909216916329092d0e91602480830192600092919082900301818387803b15801561482357600080fd5b505af115801561129d573d6000803e3d6000fd5b600080614856670de0b6b3a76400006114fc868663ffffffff6136c016565b9050828110611f725760405162461bcd60e51b8152600401808060200182810382526036815260200180615a536036913960400191505060405180910390fd5b60026001600160a01b0383166000908152600e602052604090206003015460ff1660028111156148c257fe5b146148c957fe5b6001600160a01b0382166000908152600e602052604081206003015461010090046001600160801b0316908290614901826001612caa565b905080836001600160801b0316111561491657fe5b60006015828154811061492557fe5b600091825260209091200154601580546001600160a01b03909216925082916001600160801b03871690811061495757fe5b600091825260208083209190910180546001600160a01b0319166001600160a01b03948516179055918316808252600e83526040918290206003018054610100600160881b0319166101006001600160801b038a169081029190911790915582519182529281019290925280517f02b04ae5f7be9ca7c103293a2aa15f3c339d15d6eda53b721fef7b0e609c831a9281900390910190a160158054806149f957fe5b600082815260209020810160001990810180546001600160a01b0319169055019055505050505050565b6001600160a01b0381166000908152600e6020526040902060020154600f54614a52908263ffffffff612caa16565b600f55506001600160a01b03166000908152600e6020526040812060020155565b826001600160a01b03166338d995a8836040518263ffffffff1660e01b815260040180828152602001915050600060405180830381600087803b158015614ab957600080fd5b505af1158015614acd573d6000803e3d6000fd5b50505050836001600160a01b031663cfb9329a836040518263ffffffff1660e01b815260040180828152602001915050600060405180830381600087803b158015614b1757600080fd5b505af1158015614b2b573d6000803e3d6000fd5b50505050826001600160a01b031663be41205f826040518263ffffffff1660e01b815260040180828152602001915050600060405180830381600087803b1580156135b057600080fd5b60008184841115614c045760405162461bcd60e51b81526004018080602001828103825283818151815260200191508051906020019080838360005b83811015614bc9578181015183820152602001614bb1565b50505050905090810190601f168015614bf65780820380516001836020036101000a031916815260200191505b509250505060405180910390fd5b505050900390565b60008060115460001415614c21575081610e9b565b600060105411614c2d57fe5b611f726011546114fc601054866136c090919063ffffffff16565b614c50615718565b614c58615850565b601554600110614c685750614648565b614c718761211e565b60408501526020848101919091528401819052908352614c9090613ed5565b604083018190526802b5e3af16b188000060608401526020830151614cba9163ffffffff612caa16565b8152670de0b6b3a76400008611614dc057614cdf898983602001518460400151614a73565b614ce887614a23565b60006080830181905260a0830152815160c0830152805160e0830152614d0d8761477d565b866001600160a01b031660008051602061587283398151915283600001518460200151600260405180848152602001838152602001826003811115614d4e57fe5b60ff168152602001935050505060405180910390a2866001600160a01b03166000805160206159948339815191526000806000600260405180858152602001848152602001838152602001826003811115614da557fe5b60ff16815260200194505050505060405180910390a2614f69565b670de0b6b3a764000086118015614dde5750670f43fc2c04ee000086105b15614e2c57614df7898983602001518460400151614a73565b614e0087614a23565b81518151614e0f9190876155ae565b60e086015260c085015260a08401526080830152614d0d8761477d565b670f43fc2c04ee00008610158015614e4357508386105b8015614e50575081518510155b15614f5857614e69898983602001518460400151614a73565b84614e7057fe5b614e7987614a23565b614e8c826000015183602001518561561a565b9150614e978761477d565b61010082015115614f175760075461010083015160408051633f10abab60e01b81526001600160a01b038b81166004830152602482019390935290519190921691633f10abab91604480830192600092919082900301818387803b158015614efe57600080fd5b505af1158015614f12573d6000803e3d6000fd5b505050505b866001600160a01b031660008051602061587283398151915283600001518460a00151600260405180848152602001838152602001826003811115614d4e57fe5b614f60615718565b91506146489050565b50979650505050505050565b614f7d615718565b60408083015190840151614f969163ffffffff613ce716565b604082015260608083015190840151614fb49163ffffffff613ce716565b606082015281516020840151614fcf9163ffffffff613ce716565b6020808301919091528201518351614fec9163ffffffff613ce716565b8152608080830151908401516150079163ffffffff613ce716565b608082015260a080830151908401516150259163ffffffff613ce716565b60a082015260c080830151908401516150439163ffffffff613ce716565b60c082015260e080830151908401516150619163ffffffff613ce716565b60e082015261010080830151908401516150809163ffffffff613ce716565b61010082015292915050565b60008061509a858585613e3a565b6714d1120d7b1600001195945050505050565b6150b5615718565b6150bd615850565b6150c68461211e565b604085019081526020858101928352860192909252918452905190516150f0918891889190614a73565b6150f984614a23565b6151068260200151613ed5565b604083018190526802b5e3af16b188000060608401526020830151600091615134919063ffffffff612caa16565b9050615145836000015182866155ae565b60e087015260c086015260a085015260808401526151628561477d565b846001600160a01b0316600080516020615872833981519152846000015185602001516001604051808481526020018381526020018260038111156151a357fe5b60ff168152602001935050505060405180910390a2846001600160a01b031660008051602061599483398151915260008060006001604051808581526020018481526020018381526020018260038111156151fa57fe5b60ff16815260200194505050505060405180910390a25050949350505050565b60008183106152295781611f72565b5090919050565b6000818361527f5760405162461bcd60e51b8152602060048201818152835160248401528351909283926044909101919085019080838360008315614bc9578181015183820152602001614bb1565b50600083858161528b57fe5b0495945050505050565b6000631f5405008211156152ab57631f54050091505b816152bf5750670de0b6b3a7640000610e9b565b670de0b6b3a764000083835b60018111156153365760028106615300576152e682836156b4565b91506152f981600263ffffffff61371916565b9050615331565b61530a82846156b4565b925061531682836156b4565b915061532e60026114fc83600163ffffffff612caa16565b90505b6152cb565b61150882846156b4565b6040808501516006548251632770a7eb60e21b81526001600160a01b039182166004820152602481018690529251911691639dc29fac91604480830192600092919082900301818387803b15801561539757600080fd5b505af11580156153ab573d6000803e3d6000fd5b5050505083600001516001600160a01b03166338d995a8836040518263ffffffff1660e01b815260040180828152602001915050600060405180830381600087803b1580156153f957600080fd5b505af115801561540d573d6000803e3d6000fd5b505050508360a001516001600160a01b0316633f10abab84836040518363ffffffff1660e01b815260040180836001600160a01b03166001600160a01b0316815260200182815260200192505050600060405180830381600087803b15801561547557600080fd5b505af1158015615489573d6000803e3d6000fd5b5050505083600001516001600160a01b03166364a197f38560a00151836040518363ffffffff1660e01b815260040180836001600160a01b03166001600160a01b0316815260200182815260200192505050600060405180830381600087803b1580156135b057600080fd5b6001811180156155735750600b546040805163de8fa43160e01b815290516001926001600160a01b03169163de8fa431916004808301926020929190829003018186803b15801561554557600080fd5b505afa158015615559573d6000803e3d6000fd5b505050506040513d602081101561556f57600080fd5b5051115b610e375760405162461bcd60e51b815260040180806020018281038252602a8152602001806158bb602a913960400191505060405180910390fd5b60008080808415615604576155c3878661521a565b93506155d9876114fc888763ffffffff6136c016565b92506155eb878563ffffffff612caa16565b91506155fd868463ffffffff612caa16565b9050615611565b5060009250829150859050845b93509350935093565b615622615718565b83815260208101839052600061564a836114fc87670f43fc2c04ee000063ffffffff6136c016565b905061565581613ed5565b604083018190526802b5e3af16b188000060608401526080830186905261568390829063ffffffff612caa16565b60a0830152615698848263ffffffff612caa16565b61010083015250600060c0820181905260e08201529392505050565b6000806156c7848463ffffffff6136c016565b9050613fbb670de0b6b3a76400006114fc836706f05b59d3b20000613ce7565b6040518060a00160405280600081526020016000815260200160001515815260200160008152602001600081525090565b6040518061012001604052806000815260200160008152602001600081526020016000815260200160008152602001600081526020016000815260200160008152602001600081525090565b6040805160e081018252600080825260208201819052918101829052606081018290526080810182905260a0810182905260c081019190915290565b60405180610100016040528060008152602001600081526020016000815260200160008152602001600081526020016000815260200160008152602001600081525090565b604051806060016040528060008152602001600081526020016000151581525090565b6040518060e0016040528060008152602001600081526020016000815260200160006001600160a01b0316815260200160001515815260200160008152602001600081525090565b6040518060600160405280600081526020016000815260200160008152509056feea67486ed7ebe3eea8ab3390efd4a3c8aae48be5bea27df104a8af786c40843454726f76654d616e616765723a20556e61626c6520746f2072656465656d20616e7920616d6f756e7454726f76654d616e616765723a204f6e6c79206f6e652074726f766520696e207468652073797374656d54726f76654d616e616765723a20526564656d7074696f6e7320617265206e6f7420616c6c6f77656420647572696e6720626f6f747374726170207068617365536166654d6174683a206d756c7469706c69636174696f6e206f766572666c6f7754726f76654d616e616765723a2052657175657374656420726564656d7074696f6e20616d6f756e74206d757374206265203c3d20757365722773204c55534420746f6b656e2062616c616e6365c3770d654ed33aeea6bf11ac8ef05d02a6a04ed4686dd2f624d853bbec43cc8b54726f76654d616e616765723a2043616c6c6572206973206e6f742074686520426f72726f7765724f7065726174696f6e7320636f6e747261637454726f76654d616e616765723a2043616c6c646174612061646472657373206172726179206d757374206e6f7420626520656d70747954726f76654d616e616765723a20416d6f756e74206d7573742062652067726561746572207468616e207a65726f54726f76654d616e616765723a2046656520776f756c642065617420757020616c6c2072657475726e656420636f6c6c61746572616c4d6178206665652070657263656e74616765206d757374206265206265747765656e20302e352520616e64203130302554726f76654d616e616765723a2043616e6e6f742072656465656d207768656e20544352203c204d435254726f76654d616e616765723a206e6f7468696e6720746f206c697175696461746554726f76654d616e616765723a2054726f766520646f6573206e6f74206578697374206f7220697320636c6f736564a2646970667358221220c4a13ca8fb3c5051379eddac7df749860e5e4b576a05ef2adc917dcd9acf526264736f6c634300060b0033",
  "linkReferences": {},
  "deployedLinkReferences": {}
}