{
  "_format": "hh-sol-artifact-1",
  "contractName": "TroveManager",
  "sourceName": "contracts/TroveManager.sol",
  "abi": [
    {
      "anonymous": false,
      "inputs": [
        {
          "indexed": false,
          "internalType": "address",
          "name": "_activePoolAddress",
          "type": "address"
        }
      ],
      "name": "ActivePoolAddressChanged",
      "type": "event"
    },
    {
      "anonymous": false,
      "inputs": [
        {
          "indexed": false,
          "internalType": "address",
          "name": "_newBorrowerOperationsAddress",
          "type": "address"
        }
      ],
      "name": "BorrowerOperationsAddressChanged",
      "type": "event"
    },
    {
      "anonymous": false,
      "inputs": [
        {
          "indexed": false,
          "internalType": "address",
          "name": "_collSurplusPoolAddress",
          "type": "address"
        }
      ],
      "name": "CollSurplusPoolAddressChanged",
      "type": "event"
    },
    {
      "anonymous": false,
      "inputs": [
        {
          "indexed": false,
          "internalType": "address",
          "name": "_defaultPoolAddress",
          "type": "address"
        }
      ],
      "name": "DefaultPoolAddressChanged",
      "type": "event"
    },
    {
      "anonymous": false,
      "inputs": [
        {
          "indexed": false,
          "internalType": "address",
          "name": "_gasPoolAddress",
          "type": "address"
        }
      ],
      "name": "GasPoolAddressChanged",
      "type": "event"
    },
    {
      "anonymous": false,
      "inputs": [
        {
          "indexed": false,
          "internalType": "address",
          "name": "_lqtyStakingAddress",
          "type": "address"
        }
      ],
      "name": "LQTYStakingAddressChanged",
      "type": "event"
    },
    {
      "anonymous": false,
      "inputs": [
        {
          "indexed": false,
          "internalType": "address",
          "name": "_lqtyTokenAddress",
          "type": "address"
        }
      ],
      "name": "LQTYTokenAddressChanged",
      "type": "event"
    },
    {
      "anonymous": false,
      "inputs": [
        {
          "indexed": false,
          "internalType": "address",
          "name": "_newLUSDTokenAddress",
          "type": "address"
        }
      ],
      "name": "LUSDTokenAddressChanged",
      "type": "event"
    },
    {
      "anonymous": false,
      "inputs": [
        {
          "indexed": false,
          "internalType": "uint256",
          "name": "_liquidatedDebt",
          "type": "uint256"
        },
        {
          "indexed": false,
          "internalType": "uint256",
          "name": "_liquidatedColl",
          "type": "uint256"
        },
        {
          "indexed": false,
          "internalType": "uint256",
          "name": "_collGasCompensation",
          "type": "uint256"
        },
        {
          "indexed": false,
          "internalType": "uint256",
          "name": "_LUSDGasCompensation",
          "type": "uint256"
        }
      ],
      "name": "Liquidation",
      "type": "event"
    },
    {
      "anonymous": false,
      "inputs": [
        {
          "indexed": true,
          "internalType": "address",
          "name": "previousOwner",
          "type": "address"
        },
        {
          "indexed": true,
          "internalType": "address",
          "name": "newOwner",
          "type": "address"
        }
      ],
      "name": "OwnershipTransferred",
      "type": "event"
    },
    {
      "anonymous": false,
      "inputs": [
        {
          "indexed": false,
          "internalType": "address",
          "name": "_newPriceFeedAddress",
          "type": "address"
        }
      ],
      "name": "PriceFeedAddressChanged",
      "type": "event"
    },
    {
      "anonymous": false,
      "inputs": [
        {
          "indexed": false,
          "internalType": "uint256",
          "name": "_attemptedLUSDAmount",
          "type": "uint256"
        },
        {
          "indexed": false,
          "internalType": "uint256",
          "name": "_actualLUSDAmount",
          "type": "uint256"
        },
        {
          "indexed": false,
          "internalType": "uint256",
          "name": "_ETHSent",
          "type": "uint256"
        },
        {
          "indexed": false,
          "internalType": "uint256",
          "name": "_ETHFee",
          "type": "uint256"
        }
      ],
      "name": "Redemption",
      "type": "event"
    },
    {
      "anonymous": false,
      "inputs": [
        {
          "indexed": false,
          "internalType": "address",
          "name": "_sortedTrovesAddress",
          "type": "address"
        }
      ],
      "name": "SortedTrovesAddressChanged",
      "type": "event"
    },
    {
      "anonymous": false,
      "inputs": [
        {
          "indexed": false,
          "internalType": "address",
          "name": "_stabilityPoolAddress",
          "type": "address"
        }
      ],
      "name": "StabilityPoolAddressChanged",
      "type": "event"
    },
    {
      "anonymous": false,
      "inputs": [
        {
          "indexed": true,
          "internalType": "address",
          "name": "_borrower",
          "type": "address"
        },
        {
          "indexed": false,
          "internalType": "uint256",
          "name": "_arrayIndex",
          "type": "uint256"
        }
      ],
      "name": "TroveCreated",
      "type": "event"
    },
    {
      "anonymous": false,
      "inputs": [
        {
          "indexed": true,
          "internalType": "address",
          "name": "_borrower",
          "type": "address"
        },
        {
          "indexed": false,
          "internalType": "uint256",
          "name": "_debt",
          "type": "uint256"
        },
        {
          "indexed": false,
          "internalType": "uint256",
          "name": "_coll",
          "type": "uint256"
        },
        {
          "indexed": false,
          "internalType": "enum TroveManager.TroveManagerOperation",
          "name": "_operation",
          "type": "uint8"
        }
      ],
      "name": "TroveLiquidated",
      "type": "event"
    },
    {
      "anonymous": false,
      "inputs": [
        {
          "indexed": true,
          "internalType": "address",
          "name": "_borrower",
          "type": "address"
        },
        {
          "indexed": false,
          "internalType": "uint256",
          "name": "_debt",
          "type": "uint256"
        },
        {
          "indexed": false,
          "internalType": "uint256",
          "name": "_coll",
          "type": "uint256"
        },
        {
          "indexed": false,
          "internalType": "uint256",
          "name": "_stake",
          "type": "uint256"
        },
        {
          "indexed": false,
          "internalType": "enum TroveManager.TroveManagerOperation",
          "name": "_operation",
          "type": "uint8"
        }
      ],
      "name": "TroveUpdated",
      "type": "event"
    },
    {
      "inputs": [],
      "name": "BETA",
      "outputs": [
        {
          "internalType": "uint256",
          "name": "",
          "type": "uint256"
        }
      ],
      "stateMutability": "view",
      "type": "function"
    },
    {
      "inputs": [],
      "name": "BOOTSTRAP_PERIOD",
      "outputs": [
        {
          "internalType": "uint256",
          "name": "",
          "type": "uint256"
        }
      ],
      "stateMutability": "view",
      "type": "function"
    },
    {
      "inputs": [],
      "name": "BORROWING_FEE_FLOOR",
      "outputs": [
        {
          "internalType": "uint256",
          "name": "",
          "type": "uint256"
        }
      ],
      "stateMutability": "view",
      "type": "function"
    },
    {
      "inputs": [],
      "name": "CCR",
      "outputs": [
        {
          "internalType": "uint256",
          "name": "",
          "type": "uint256"
        }
      ],
      "stateMutability": "view",
      "type": "function"
    },
    {
      "inputs": [],
      "name": "DECIMAL_PRECISION",
      "outputs": [
        {
          "internalType": "uint256",
          "name": "",
          "type": "uint256"
        }
      ],
      "stateMutability": "view",
      "type": "function"
    },
    {
      "inputs": [],
      "name": "LUSD_GAS_COMPENSATION",
      "outputs": [
        {
          "internalType": "uint256",
          "name": "",
          "type": "uint256"
        }
      ],
      "stateMutability": "view",
      "type": "function"
    },
    {
      "inputs": [],
      "name": "L_ETH",
      "outputs": [
        {
          "internalType": "uint256",
          "name": "",
          "type": "uint256"
        }
      ],
      "stateMutability": "view",
      "type": "function"
    },
    {
      "inputs": [],
      "name": "L_LUSDDebt",
      "outputs": [
        {
          "internalType": "uint256",
          "name": "",
          "type": "uint256"
        }
      ],
      "stateMutability": "view",
      "type": "function"
    },
    {
      "inputs": [],
      "name": "MAX_BORROWING_FEE",
      "outputs": [
        {
          "internalType": "uint256",
          "name": "",
          "type": "uint256"
        }
      ],
      "stateMutability": "view",
      "type": "function"
    },
    {
      "inputs": [],
      "name": "MCR",
      "outputs": [
        {
          "internalType": "uint256",
          "name": "",
          "type": "uint256"
        }
      ],
      "stateMutability": "view",
      "type": "function"
    },
    {
      "inputs": [],
      "name": "MINUTE_DECAY_FACTOR",
      "outputs": [
        {
          "internalType": "uint256",
          "name": "",
          "type": "uint256"
        }
      ],
      "stateMutability": "view",
      "type": "function"
    },
    {
      "inputs": [],
      "name": "PERCENT_DIVISOR",
      "outputs": [
        {
          "internalType": "uint256",
          "name": "",
          "type": "uint256"
        }
      ],
      "stateMutability": "view",
      "type": "function"
    },
    {
      "inputs": [],
      "name": "REDEMPTION_FEE_FLOOR",
      "outputs": [
        {
          "internalType": "uint256",
          "name": "",
          "type": "uint256"
        }
      ],
      "stateMutability": "view",
      "type": "function"
    },
    {
      "inputs": [],
      "name": "SECONDS_IN_ONE_MINUTE",
      "outputs": [
        {
          "internalType": "uint256",
          "name": "",
          "type": "uint256"
        }
      ],
      "stateMutability": "view",
      "type": "function"
    },
    {
      "inputs": [
        {
          "internalType": "uint256",
          "name": "",
          "type": "uint256"
        }
      ],
      "name": "TroveOwners",
      "outputs": [
        {
          "internalType": "address",
          "name": "",
          "type": "address"
        }
      ],
      "stateMutability": "view",
      "type": "function"
    },
    {
      "inputs": [
        {
          "internalType": "address",
          "name": "",
          "type": "address"
        }
      ],
      "name": "Troves",
      "outputs": [
        {
          "internalType": "uint256",
          "name": "debt",
          "type": "uint256"
        },
        {
          "internalType": "uint256",
          "name": "coll",
          "type": "uint256"
        },
        {
          "internalType": "uint256",
          "name": "stake",
          "type": "uint256"
        },
        {
          "internalType": "enum TroveManager.Status",
          "name": "status",
          "type": "uint8"
        },
        {
          "internalType": "uint128",
          "name": "arrayIndex",
          "type": "uint128"
        }
      ],
      "stateMutability": "view",
      "type": "function"
    },
    {
      "inputs": [],
      "name": "_100pct",
      "outputs": [
        {
          "internalType": "uint256",
          "name": "",
          "type": "uint256"
        }
      ],
      "stateMutability": "view",
      "type": "function"
    },
    {
      "inputs": [],
      "name": "activePool",
      "outputs": [
        {
          "internalType": "contract IActivePool",
          "name": "",
          "type": "address"
        }
      ],
      "stateMutability": "view",
      "type": "function"
    },
    {
      "inputs": [
        {
          "internalType": "address",
          "name": "_borrower",
          "type": "address"
        }
      ],
      "name": "addTroveOwnerToArray",
      "outputs": [
        {
          "internalType": "uint256",
          "name": "index",
          "type": "uint256"
        }
      ],
      "stateMutability": "nonpayable",
      "type": "function"
    },
    {
      "inputs": [
        {
          "internalType": "address",
          "name": "_borrower",
          "type": "address"
        }
      ],
      "name": "applyPendingRewards",
      "outputs": [],
      "stateMutability": "nonpayable",
      "type": "function"
    },
    {
      "inputs": [],
      "name": "baseRate",
      "outputs": [
        {
          "internalType": "uint256",
          "name": "",
          "type": "uint256"
        }
      ],
      "stateMutability": "view",
      "type": "function"
    },
    {
      "inputs": [
        {
          "internalType": "address[]",
          "name": "_troveArray",
          "type": "address[]"
        }
      ],
      "name": "batchLiquidateTroves",
      "outputs": [],
      "stateMutability": "nonpayable",
      "type": "function"
    },
    {
      "inputs": [],
      "name": "borrowerOperationsAddress",
      "outputs": [
        {
          "internalType": "address",
          "name": "",
          "type": "address"
        }
      ],
      "stateMutability": "view",
      "type": "function"
    },
    {
      "inputs": [
        {
          "internalType": "uint256",
          "name": "_price",
          "type": "uint256"
        }
      ],
      "name": "checkRecoveryMode",
      "outputs": [
        {
          "internalType": "bool",
          "name": "",
          "type": "bool"
        }
      ],
      "stateMutability": "view",
      "type": "function"
    },
    {
      "inputs": [
        {
          "internalType": "address",
          "name": "_borrower",
          "type": "address"
        }
      ],
      "name": "closeTrove",
      "outputs": [],
      "stateMutability": "nonpayable",
      "type": "function"
    },
    {
      "inputs": [],
      "name": "decayBaseRateFromBorrowing",
      "outputs": [],
      "stateMutability": "nonpayable",
      "type": "function"
    },
    {
      "inputs": [
        {
          "internalType": "address",
          "name": "_borrower",
          "type": "address"
        },
        {
          "internalType": "uint256",
          "name": "_collDecrease",
          "type": "uint256"
        }
      ],
      "name": "decreaseTroveColl",
      "outputs": [
        {
          "internalType": "uint256",
          "name": "",
          "type": "uint256"
        }
      ],
      "stateMutability": "nonpayable",
      "type": "function"
    },
    {
      "inputs": [
        {
          "internalType": "address",
          "name": "_borrower",
          "type": "address"
        },
        {
          "internalType": "uint256",
          "name": "_debtDecrease",
          "type": "uint256"
        }
      ],
      "name": "decreaseTroveDebt",
      "outputs": [
        {
          "internalType": "uint256",
          "name": "",
          "type": "uint256"
        }
      ],
      "stateMutability": "nonpayable",
      "type": "function"
    },
    {
      "inputs": [],
      "name": "defaultPool",
      "outputs": [
        {
          "internalType": "contract IDefaultPool",
          "name": "",
          "type": "address"
        }
      ],
      "stateMutability": "view",
      "type": "function"
    },
    {
      "inputs": [
        {
          "internalType": "uint256",
          "name": "_LUSDDebt",
          "type": "uint256"
        }
      ],
      "name": "getBorrowingFee",
      "outputs": [
        {
          "internalType": "uint256",
          "name": "",
          "type": "uint256"
        }
      ],
      "stateMutability": "view",
      "type": "function"
    },
    {
      "inputs": [],
      "name": "getBorrowingRate",
      "outputs": [
        {
          "internalType": "uint256",
          "name": "",
          "type": "uint256"
        }
      ],
      "stateMutability": "view",
      "type": "function"
    },
    {
      "inputs": [
        {
          "internalType": "address",
          "name": "_borrower",
          "type": "address"
        },
        {
          "internalType": "uint256",
          "name": "_price",
          "type": "uint256"
        }
      ],
      "name": "getCurrentICR",
      "outputs": [
        {
          "internalType": "uint256",
          "name": "",
          "type": "uint256"
        }
      ],
      "stateMutability": "view",
      "type": "function"
    },
    {
      "inputs": [
        {
          "internalType": "address",
          "name": "_borrower",
          "type": "address"
        }
      ],
      "name": "getEntireDebtAndColl",
      "outputs": [
        {
          "internalType": "uint256",
          "name": "debt",
          "type": "uint256"
        },
        {
          "internalType": "uint256",
          "name": "coll",
          "type": "uint256"
        },
        {
          "internalType": "uint256",
          "name": "pendingLUSDDebtReward",
          "type": "uint256"
        },
        {
          "internalType": "uint256",
          "name": "pendingETHReward",
          "type": "uint256"
        }
      ],
      "stateMutability": "view",
      "type": "function"
    },
    {
      "inputs": [],
      "name": "getEntireSystemColl",
      "outputs": [
        {
          "internalType": "uint256",
          "name": "entireSystemColl",
          "type": "uint256"
        }
      ],
      "stateMutability": "view",
      "type": "function"
    },
    {
      "inputs": [],
      "name": "getEntireSystemDebt",
      "outputs": [
        {
          "internalType": "uint256",
          "name": "entireSystemDebt",
          "type": "uint256"
        }
      ],
      "stateMutability": "view",
      "type": "function"
    },
    {
      "inputs": [
        {
          "internalType": "address",
          "name": "_borrower",
          "type": "address"
        }
      ],
      "name": "getNominalICR",
      "outputs": [
        {
          "internalType": "uint256",
          "name": "",
          "type": "uint256"
        }
      ],
      "stateMutability": "view",
      "type": "function"
    },
    {
      "inputs": [
        {
          "internalType": "address",
          "name": "_borrower",
          "type": "address"
        }
      ],
      "name": "getPendingETHReward",
      "outputs": [
        {
          "internalType": "uint256",
          "name": "",
          "type": "uint256"
        }
      ],
      "stateMutability": "view",
      "type": "function"
    },
    {
      "inputs": [
        {
          "internalType": "address",
          "name": "_borrower",
          "type": "address"
        }
      ],
      "name": "getPendingLUSDDebtReward",
      "outputs": [
        {
          "internalType": "uint256",
          "name": "",
          "type": "uint256"
        }
      ],
      "stateMutability": "view",
      "type": "function"
    },
    {
      "inputs": [],
      "name": "getRedemptionRate",
      "outputs": [
        {
          "internalType": "uint256",
          "name": "",
          "type": "uint256"
        }
      ],
      "stateMutability": "view",
      "type": "function"
    },
    {
      "inputs": [
        {
          "internalType": "uint256",
          "name": "_price",
          "type": "uint256"
        }
      ],
      "name": "getTCR",
      "outputs": [
        {
          "internalType": "uint256",
          "name": "",
          "type": "uint256"
        }
      ],
      "stateMutability": "view",
      "type": "function"
    },
    {
      "inputs": [
        {
          "internalType": "address",
          "name": "_borrower",
          "type": "address"
        }
      ],
      "name": "getTroveColl",
      "outputs": [
        {
          "internalType": "uint256",
          "name": "",
          "type": "uint256"
        }
      ],
      "stateMutability": "view",
      "type": "function"
    },
    {
      "inputs": [
        {
          "internalType": "address",
          "name": "_borrower",
          "type": "address"
        }
      ],
      "name": "getTroveDebt",
      "outputs": [
        {
          "internalType": "uint256",
          "name": "",
          "type": "uint256"
        }
      ],
      "stateMutability": "view",
      "type": "function"
    },
    {
      "inputs": [
        {
          "internalType": "uint256",
          "name": "_index",
          "type": "uint256"
        }
      ],
      "name": "getTroveFromTroveOwnersArray",
      "outputs": [
        {
          "internalType": "address",
          "name": "",
          "type": "address"
        }
      ],
      "stateMutability": "view",
      "type": "function"
    },
    {
      "inputs": [],
      "name": "getTroveOwnersCount",
      "outputs": [
        {
          "internalType": "uint256",
          "name": "",
          "type": "uint256"
        }
      ],
      "stateMutability": "view",
      "type": "function"
    },
    {
      "inputs": [
        {
          "internalType": "address",
          "name": "_borrower",
          "type": "address"
        }
      ],
      "name": "getTroveStake",
      "outputs": [
        {
          "internalType": "uint256",
          "name": "",
          "type": "uint256"
        }
      ],
      "stateMutability": "view",
      "type": "function"
    },
    {
      "inputs": [
        {
          "internalType": "address",
          "name": "_borrower",
          "type": "address"
        }
      ],
      "name": "getTroveStatus",
      "outputs": [
        {
          "internalType": "uint256",
          "name": "",
          "type": "uint256"
        }
      ],
      "stateMutability": "view",
      "type": "function"
    },
    {
      "inputs": [
        {
          "internalType": "address",
          "name": "_borrower",
          "type": "address"
        }
      ],
      "name": "hasPendingRewards",
      "outputs": [
        {
          "internalType": "bool",
          "name": "",
          "type": "bool"
        }
      ],
      "stateMutability": "view",
      "type": "function"
    },
    {
      "inputs": [
        {
          "internalType": "address",
          "name": "_borrower",
          "type": "address"
        },
        {
          "internalType": "uint256",
          "name": "_collIncrease",
          "type": "uint256"
        }
      ],
      "name": "increaseTroveColl",
      "outputs": [
        {
          "internalType": "uint256",
          "name": "",
          "type": "uint256"
        }
      ],
      "stateMutability": "nonpayable",
      "type": "function"
    },
    {
      "inputs": [
        {
          "internalType": "address",
          "name": "_borrower",
          "type": "address"
        },
        {
          "internalType": "uint256",
          "name": "_debtIncrease",
          "type": "uint256"
        }
      ],
      "name": "increaseTroveDebt",
      "outputs": [
        {
          "internalType": "uint256",
          "name": "",
          "type": "uint256"
        }
      ],
      "stateMutability": "nonpayable",
      "type": "function"
    },
    {
      "inputs": [],
      "name": "isOwner",
      "outputs": [
        {
          "internalType": "bool",
          "name": "",
          "type": "bool"
        }
      ],
      "stateMutability": "view",
      "type": "function"
    },
    {
      "inputs": [],
      "name": "lastETHError_Redistribution",
      "outputs": [
        {
          "internalType": "uint256",
          "name": "",
          "type": "uint256"
        }
      ],
      "stateMutability": "view",
      "type": "function"
    },
    {
      "inputs": [],
      "name": "lastFeeOperationTime",
      "outputs": [
        {
          "internalType": "uint256",
          "name": "",
          "type": "uint256"
        }
      ],
      "stateMutability": "view",
      "type": "function"
    },
    {
      "inputs": [],
      "name": "lastLUSDDebtError_Redistribution",
      "outputs": [
        {
          "internalType": "uint256",
          "name": "",
          "type": "uint256"
        }
      ],
      "stateMutability": "view",
      "type": "function"
    },
    {
      "inputs": [
        {
          "internalType": "address",
          "name": "_borrower",
          "type": "address"
        }
      ],
      "name": "liquidate",
      "outputs": [],
      "stateMutability": "nonpayable",
      "type": "function"
    },
    {
      "inputs": [
        {
          "internalType": "uint256",
          "name": "_n",
          "type": "uint256"
        }
      ],
      "name": "liquidateTroves",
      "outputs": [],
      "stateMutability": "nonpayable",
      "type": "function"
    },
    {
      "inputs": [],
      "name": "lqtyStaking",
      "outputs": [
        {
          "internalType": "contract ILQTYStaking",
          "name": "",
          "type": "address"
        }
      ],
      "stateMutability": "view",
      "type": "function"
    },
    {
      "inputs": [],
      "name": "lqtyToken",
      "outputs": [
        {
          "internalType": "contract ILQTYToken",
          "name": "",
          "type": "address"
        }
      ],
      "stateMutability": "view",
      "type": "function"
    },
    {
      "inputs": [],
      "name": "lusdToken",
      "outputs": [
        {
          "internalType": "contract ILUSDToken",
          "name": "",
          "type": "address"
        }
      ],
      "stateMutability": "view",
      "type": "function"
    },
    {
      "inputs": [],
      "name": "owner",
      "outputs": [
        {
          "internalType": "address",
          "name": "",
          "type": "address"
        }
      ],
      "stateMutability": "view",
      "type": "function"
    },
    {
      "inputs": [],
      "name": "priceFeed",
      "outputs": [
        {
          "internalType": "contract IPriceFeed",
          "name": "",
          "type": "address"
        }
      ],
      "stateMutability": "view",
      "type": "function"
    },
    {
      "inputs": [
        {
          "internalType": "uint256",
          "name": "_LUSDamount",
          "type": "uint256"
        },
        {
          "internalType": "address",
          "name": "_firstRedemptionHint",
          "type": "address"
        },
        {
          "internalType": "address",
          "name": "_upperPartialRedemptionHint",
          "type": "address"
        },
        {
          "internalType": "address",
          "name": "_lowerPartialRedemptionHint",
          "type": "address"
        },
        {
          "internalType": "uint256",
          "name": "_partialRedemptionHintNICR",
          "type": "uint256"
        },
        {
          "internalType": "uint256",
          "name": "_maxIterations",
          "type": "uint256"
        },
        {
          "internalType": "uint256",
          "name": "_maxFeePercentage",
          "type": "uint256"
        }
      ],
      "name": "redeemCollateral",
      "outputs": [],
      "stateMutability": "nonpayable",
      "type": "function"
    },
    {
      "inputs": [
        {
          "internalType": "address",
          "name": "_borrower",
          "type": "address"
        }
      ],
      "name": "removeStake",
      "outputs": [],
      "stateMutability": "nonpayable",
      "type": "function"
    },
    {
      "inputs": [
        {
          "internalType": "address",
          "name": "",
          "type": "address"
        }
      ],
      "name": "rewardSnapshots",
      "outputs": [
        {
          "internalType": "uint256",
          "name": "ETH",
          "type": "uint256"
        },
        {
          "internalType": "uint256",
          "name": "LUSDDebt",
          "type": "uint256"
        }
      ],
      "stateMutability": "view",
      "type": "function"
    },
    {
      "inputs": [
        {
          "internalType": "address",
          "name": "_borrowerOperationsAddress",
          "type": "address"
        },
        {
          "internalType": "address",
          "name": "_activePoolAddress",
          "type": "address"
        },
        {
          "internalType": "address",
          "name": "_defaultPoolAddress",
          "type": "address"
        },
        {
          "internalType": "address",
          "name": "_stabilityPoolAddress",
          "type": "address"
        },
        {
          "internalType": "address",
          "name": "_gasPoolAddress",
          "type": "address"
        },
        {
          "internalType": "address",
          "name": "_collSurplusPoolAddress",
          "type": "address"
        },
        {
          "internalType": "address",
          "name": "_priceFeedAddress",
          "type": "address"
        },
        {
          "internalType": "address",
          "name": "_lusdTokenAddress",
          "type": "address"
        },
        {
          "internalType": "address",
          "name": "_sortedTrovesAddress",
          "type": "address"
        },
        {
          "internalType": "address",
          "name": "_lqtyTokenAddress",
          "type": "address"
        },
        {
          "internalType": "address",
          "name": "_lqtyStakingAddress",
          "type": "address"
        }
      ],
      "name": "setAddresses",
      "outputs": [],
      "stateMutability": "nonpayable",
      "type": "function"
    },
    {
      "inputs": [
        {
          "internalType": "address",
          "name": "_borrower",
          "type": "address"
        },
        {
          "internalType": "uint256",
          "name": "_num",
          "type": "uint256"
        }
      ],
      "name": "setTroveStatus",
      "outputs": [],
      "stateMutability": "nonpayable",
      "type": "function"
    },
    {
      "inputs": [],
      "name": "sortedTroves",
      "outputs": [
        {
          "internalType": "contract ISortedTroves",
          "name": "",
          "type": "address"
        }
      ],
      "stateMutability": "view",
      "type": "function"
    },
    {
      "inputs": [],
      "name": "stabilityPool",
      "outputs": [
        {
          "internalType": "contract IStabilityPool",
          "name": "",
          "type": "address"
        }
      ],
      "stateMutability": "view",
      "type": "function"
    },
    {
      "inputs": [],
      "name": "totalCollateralSnapshot",
      "outputs": [
        {
          "internalType": "uint256",
          "name": "",
          "type": "uint256"
        }
      ],
      "stateMutability": "view",
      "type": "function"
    },
    {
      "inputs": [],
      "name": "totalStakes",
      "outputs": [
        {
          "internalType": "uint256",
          "name": "",
          "type": "uint256"
        }
      ],
      "stateMutability": "view",
      "type": "function"
    },
    {
      "inputs": [],
      "name": "totalStakesSnapshot",
      "outputs": [
        {
          "internalType": "uint256",
          "name": "",
          "type": "uint256"
        }
      ],
      "stateMutability": "view",
      "type": "function"
    },
    {
      "inputs": [
        {
          "internalType": "address",
          "name": "_borrower",
          "type": "address"
        }
      ],
      "name": "updateStakeAndTotalStakes",
      "outputs": [
        {
          "internalType": "uint256",
          "name": "",
          "type": "uint256"
        }
      ],
      "stateMutability": "nonpayable",
      "type": "function"
    },
    {
      "inputs": [
        {
          "internalType": "address",
          "name": "_borrower",
          "type": "address"
        }
      ],
      "name": "updateTroveRewardSnapshots",
      "outputs": [],
      "stateMutability": "nonpayable",
      "type": "function"
    }
  ],
  "bytecode": "0x608060405234801561001057600080fd5b50600380546001600160a01b031916339081179091556040516000907f8be0079c531659141344cd1fd0a4f28419497f9722a3daafe3b4186f6b6457e0908290a3615459806100606000396000f3fe608060405234801561001057600080fd5b50600436106103a85760003560e01c8063795d26c3116101eb578063b83f91a211610110578063d3d6f843116100a8578063d3d6f84314610a7f578063d66a255314610aab578063d9a7244414610ad1578063dba1c5f214610aee578063e2ac77b014610af6578063f34862de14610b1c578063f36b242514610b42578063f92d3433146105b3578063fe2ba84814610b4a576103a8565b8063b83f91a21461096b578063b91af97c14610973578063bcd37526146109bf578063bf9befb114610a0d578063c35bc55014610a15578063c7b5548114610a1d578063cbd138ae14610a25578063d293c71014610a4b578063d380a37c14610a77576103a8565b806396d711ff1161018357806396d711ff146108d45780639976cf45146108dc5780639dd233d214610908578063a20baee6146107c5578063a3a6401714610910578063ae91875414610918578063b0d8e18114610920578063b7f8cf9b14610946578063b82f263d1461094e576103a8565b8063795d26c3146107fa578063797250e3146108025780637985c5e41461080a5780637f7dde4a14610886578063807d138d1461088e57806382fe3eb914610896578063887105d3146108bc5780638da5cb5b146108c45780638f32d59b146108cc576103a8565b8063480cd578116102d1578063631203b011610269578063631203b0146106ca57806364cee260146106e7578063653d46e71461070d5780636ef643381461072a57806372423c171461079957806372fe25aa146107c5578063741bef1a146107cd578063756b253e146107d5578063794e5724146107f2576103a8565b8063480cd578146105f95780634870dd9a1461061f57806349eefeee146106275780634e443d9e1461062f5780635733d58f146106605780635d6b480f146106685780635d8c9609146106945780635dba4c4a146106ba57806361ec893d146106c2576103a8565b80631f68f20a116103445780631f68f20a146105755780631f7af3c31461057d57806321e378011461058557806324092669146105ab57806328d28b5b146105b35780632b11551a146105bb5780632e86bbd8146105c35780632f865568146105cb5780633cc74225146105f1576103a8565b8063048c661d146103ad578063060d49a3146103d1578063071a7541146103eb5780630b076557146103f357806312610e921461041b57806315d549f1146104475780631673c79a1461046d57806318f2817a146104ac5780631e8b1c2b146104d2575b600080fd5b6103b5610b70565b604080516001600160a01b039092168252519081900360200190f35b6103d9610b7f565b60408051918252519081900360200190f35b6103d9610b85565b6104196004803603602081101561040957600080fd5b50356001600160a01b0316610b8a565b005b6103d96004803603604081101561043157600080fd5b506001600160a01b038135169060200135610bb2565b6103d96004803603602081101561045d57600080fd5b50356001600160a01b0316610c0a565b6104936004803603602081101561048357600080fd5b50356001600160a01b0316610c2e565b6040805192835260208301919091528051918290030190f35b6103d9600480360360208110156104c257600080fd5b50356001600160a01b0316610c47565b610419600480360360208110156104e857600080fd5b81019060208101813564010000000081111561050357600080fd5b82018360208201111561051557600080fd5b8035906020019184602083028401116401000000008311171561053757600080fd5b919080806020026020016040519081016040528093929190818152602001838360200280828437600092019190915250929550610c5a945050505050565b6103d9610ffc565b6103b5611002565b6103d96004803603602081101561059b57600080fd5b50356001600160a01b0316611011565b6103d961103b565b6103d961104e565b6103d961105f565b6103d96110a2565b610419600480360360208110156105e157600080fd5b50356001600160a01b03166110af565b6103b5611115565b6103d96004803603602081101561060f57600080fd5b50356001600160a01b0316611124565b6103d9611142565b6103d9611147565b61064c6004803603602081101561064557600080fd5b503561114d565b604080519115158252519081900360200190f35b6103d9611158565b6104196004803603604081101561067e57600080fd5b506001600160a01b038135169060200135611164565b6103d9600480360360208110156106aa57600080fd5b50356001600160a01b03166111b0565b61041961123f565b6103d9611272565b6103d9600480360360208110156106e057600080fd5b5035611277565b6103d9600480360360208110156106fd57600080fd5b50356001600160a01b031661129d565b6104196004803603602081101561072357600080fd5b50356112bb565b6107506004803603602081101561074057600080fd5b50356001600160a01b0316611669565b6040518086815260200185815260200184815260200183600281111561077257fe5b60ff1681526001600160801b03909216602083015250604080519182900301945092505050f35b6103d9600480360360408110156107af57600080fd5b506001600160a01b0381351690602001356116a3565b6103d9611700565b6103b561170c565b6103b5600480360360208110156107eb57600080fd5b503561171b565b6103d9611742565b6103d961174e565b6103d961184f565b610419600480360361016081101561082157600080fd5b506001600160a01b038135811691602081013582169160408201358116916060810135821691608082013581169160a081013582169160c082013581169160e08101358216916101008201358116916101208101358216916101409091013516611855565b6103b5611c4e565b6103d9611c5d565b610419600480360360208110156108ac57600080fd5b50356001600160a01b0316611c63565b6103d9611c74565b6103b5611d30565b61064c611d3f565b6103d9611d50565b6103d9600480360360408110156108f257600080fd5b506001600160a01b038135169060200135611d56565b6103d9611d89565b6103b5611d8f565b6103b5611d9e565b6103d96004803603602081101561093657600080fd5b50356001600160a01b0316611dad565b6103b5611dd4565b6103d96004803603602081101561096457600080fd5b5035611de3565b6103b5611dee565b6109996004803603602081101561098957600080fd5b50356001600160a01b0316611dfd565b604080519485526020850193909352838301919091526060830152519081900360800190f35b610419600480360360e08110156109d557600080fd5b508035906001600160a01b03602082013581169160408101358216916060820135169060808101359060a08101359060c00135611e61565b6103d9612600565b6103d9612606565b6103d961260d565b61041960048036036020811015610a3b57600080fd5b50356001600160a01b0316612619565b6103d960048036036040811015610a6157600080fd5b506001600160a01b03813516906020013561262a565b6103d9612649565b6103d960048036036040811015610a9557600080fd5b506001600160a01b03813516906020013561264f565b6103d960048036036020811015610ac157600080fd5b50356001600160a01b0316612685565b6103b560048036036020811015610ae757600080fd5b50356126a0565b6103d96126ca565b61064c60048036036020811015610b0c57600080fd5b50356001600160a01b03166126d0565b6103d960048036036020811015610b3257600080fd5b50356001600160a01b03166126f2565b6103d9612723565b61041960048036036020811015610b6057600080fd5b50356001600160a01b031661274e565b6005546001600160a01b031681565b60175481565b600281565b610b9261275f565b600054600154610baf916001600160a01b039081169116836127aa565b50565b6000610bbc61275f565b6001600160a01b0383166000908152600e6020526040812054610be5908463ffffffff6128cc16565b6001600160a01b0385166000908152600e602052604090208190559150505b92915050565b6000610c1461275f565b610c1d82612915565b6001600160801b031690505b919050565b6014602052600090815260409020805460019091015482565b6000610c5161275f565b610c04826129af565b8051610c975760405162461bcd60e51b81526004018080602001828103825260368152602001806152df6036913960400191505060405180910390fd5b6000546001546005546001600160a01b03928316929182169116610cb9614fe0565b610cc1615011565b600260009054906101000a90046001600160a01b03166001600160a01b0316630fdb11cf6040518163ffffffff1660e01b8152600401602060405180830381600087803b158015610d1157600080fd5b505af1158015610d25573d6000803e3d6000fd5b505050506040513d6020811015610d3b57600080fd5b50518252604080516326fcbc6b60e21b815290516001600160a01b03851691639bf2f1ac916004808301926020929190829003018186803b158015610d7f57600080fd5b505afa158015610d93573d6000803e3d6000fd5b505050506040513d6020811015610da957600080fd5b505160208301528151610dbb90612a2a565b1580156040840152610de357610ddc8585846000015185602001518a612a47565b9050610dfb565b610df88585846000015185602001518a612c30565b90505b6000816020015111610e3e5760405162461bcd60e51b81526004018080602001828103825260228152602001806153d36022913960400191505060405180910390fd5b826001600160a01b031663335525ad82608001518360a001516040518363ffffffff1660e01b81526004018083815260200182815260200192505050600060405180830381600087803b158015610e9457600080fd5b505af1158015610ea8573d6000803e3d6000fd5b50505050610ec085858360c001518460e00151612cf8565b61010081015115610f3f57600754610100820151604080516364a197f360e01b81526001600160a01b039384166004820152602481019290925251918716916364a197f39160448082019260009290919082900301818387803b158015610f2657600080fd5b505af1158015610f3a573d6000803e3d6000fd5b505050505b610f4d858260400151612f3a565b6020810151606083015261010081015160408201518251610f859291610f79919063ffffffff6128cc16565b9063ffffffff6128cc16565b608080840182905260608085015160408086015186840151825193845260208401969096528282015291810193909352517f4152c73dd2614c4f9fc35e8c9cf16013cd588c75b49a4c1673ecffdcbcda94039281900390910190a1610ff4853383606001518460400151613040565b505050505050565b600c5481565b6009546001600160a01b031681565b6001600160a01b0381166000908152600e602052604081206003015460ff166002811115610c0457fe5b6064670de0b6b3a76400005b0460050281565b6103e8670de0b6b3a7640000611047565b600061109d61108f600c546103e8670de0b6b3a76400008161107d57fe5b0460050261314390919063ffffffff16565b670de0b6b3a764000061319d565b905090565b6802b5e3af16b188000081565b6110b8816131b3565b6040805160018082528183019092526060916020808301908036833701905050905081816000815181106110e857fe5b60200260200101906001600160a01b031690816001600160a01b03168152505061111181610c5a565b5050565b6001546001600160a01b031681565b6001600160a01b03166000908152600e602052604090206001015490565b60c881565b60155490565b6000610c0482612a2a565b6714d1120d7b16000081565b61116c61275f565b80600281111561117857fe5b6001600160a01b0383166000908152600e60205260409020600301805460ff191660018360028111156111a757fe5b02179055505050565b6001600160a01b03811660009081526014602052604081205460125482906111de908363ffffffff6128cc16565b9050806111f057600092505050610c29565b6001600160a01b0384166000908152600e602052604081206002015490611235670de0b6b3a7640000611229848663ffffffff61321b16565b9063ffffffff61327416565b9695505050505050565b61124761275f565b60006112516132b6565b9050670de0b6b3a764000081111561126557fe5b600c819055610baf6132fa565b603c81565b6000610c04670de0b6b3a764000061122984611291612723565b9063ffffffff61321b16565b6001600160a01b03166000908152600e602052604090206002015490565b6112c361505d565b506040805160e081018252600080546001600160a01b0390811683526001548116602084015292820181905260608201819052600b548316608083015260a0820181905260c082015260055490911661131a614fe0565b611322615011565b600260009054906101000a90046001600160a01b03166001600160a01b0316630fdb11cf6040518163ffffffff1660e01b8152600401602060405180830381600087803b15801561137257600080fd5b505af1158015611386573d6000803e3d6000fd5b505050506040513d602081101561139c57600080fd5b50518252604080516326fcbc6b60e21b815290516001600160a01b03851691639bf2f1ac916004808301926020929190829003018186803b1580156113e057600080fd5b505afa1580156113f4573d6000803e3d6000fd5b505050506040513d602081101561140a57600080fd5b50516020830152815161141c90612a2a565b15801560408401526114435761143c848360000151846020015188613322565b9050611463565b6114608460000151856020015184600001518560200151896136b5565b90505b60008160200151116114a65760405162461bcd60e51b81526004018080602001828103825260228152602001806153d36022913960400191505060405180910390fd5b826001600160a01b031663335525ad82608001518360a001516040518363ffffffff1660e01b81526004018083815260200182815260200192505050600060405180830381600087803b1580156114fc57600080fd5b505af1158015611510573d6000803e3d6000fd5b50505050611530846000015185602001518360c001518460e00151612cf8565b610100810151156115b1578351600754610100830151604080516364a197f360e01b81526001600160a01b03938416600482015260248101929092525191909216916364a197f391604480830192600092919082900301818387803b15801561159857600080fd5b505af11580156115ac573d6000803e3d6000fd5b505050505b6115c384600001518260400151612f3a565b60208101516060830152610100810151604082015182516115ef9291610f79919063ffffffff6128cc16565b608080840182905260608085015160408086015186840151825193845260208401969096528282015291810193909352517f4152c73dd2614c4f9fc35e8c9cf16013cd588c75b49a4c1673ecffdcbcda94039281900390910190a161166284600001513383606001518460400151613040565b5050505050565b600e6020526000908152604090208054600182015460028301546003909301549192909160ff81169061010090046001600160801b031685565b60006116ad61275f565b6001600160a01b0383166000908152600e60205260408120600101546116d9908463ffffffff61314316565b6001600160a01b0385166000908152600e6020526040902060010181905591505092915050565b670de0b6b3a764000081565b6002546001600160a01b031681565b6015818154811061172857fe5b6000918252602090912001546001600160a01b0316905081565b670f43fc2c04ee000081565b6000805460408051632f5a97e560e11b8152905183926001600160a01b031691635eb52fca916004808301926020929190829003018186803b15801561179357600080fd5b505afa1580156117a7573d6000803e3d6000fd5b505050506040513d60208110156117bd57600080fd5b505160015460408051632f5a97e560e11b815290519293506000926001600160a01b0390921691635eb52fca91600480820192602092909190829003018186803b15801561180a57600080fd5b505afa15801561181e573d6000803e3d6000fd5b505050506040513d602081101561183457600080fd5b50519050611848828263ffffffff61314316565b9250505090565b60165481565b61185d611d3f565b6118ae576040805162461bcd60e51b815260206004820181905260248201527f4f776e61626c653a2063616c6c6572206973206e6f7420746865206f776e6572604482015290519081900360640190fd5b6118b78b6137e7565b6118c08a6137e7565b6118c9896137e7565b6118d2886137e7565b6118db876137e7565b6118e4866137e7565b6118ed856137e7565b6118f6846137e7565b6118ff836137e7565b611908826137e7565b611911816137e7565b600480546001600160a01b03199081166001600160a01b038e81169182179093556000805483168e85161790556001805483168d85161790556005805483168c85161790556006805483168b85161790556007805483168a8516179055600280548316898516179055600880548316888516179055600b80548316878516179055600980548316868516179055600a805490921692841692909217905560408051918252517f3ca631ffcd2a9b5d9ae18543fc82f58eb4ca33af9e6ab01b7a8e95331e6ed985916020908290030190a1604080516001600160a01b038c16815290517f78f058b189175430c48dc02699e3a0031ea4ff781536dc2fab847de4babdd8829181900360200190a1604080516001600160a01b038b16815290517f5ee0cae2f063ed938bb55046f6a932fb6ae792bf43624806bb90abe68a50be9b9181900360200190a1604080516001600160a01b038a16815290517f82966d27eea39b038ee0fa30cd16532bb24f6e65d31cb58fb227aa5766cdcc7f9181900360200190a1604080516001600160a01b038916815290517fcfb07d791fcafc032b35837b50eb84b74df518cf4cc287e8084f47630fa70fa09181900360200190a1604080516001600160a01b038816815290517fe67f36a6e961157d6eff83b91f3af5a62131ceb6f04954ef74f51c1c05e7f88d9181900360200190a1604080516001600160a01b038716815290517f8c537274438aa850a330284665d81a85dd38267d09e4050d416bfc94142db2649181900360200190a1604080516001600160a01b038616815290517f227eec0ec317af6ab1a9587ffa1c84332522eb4c583a908f89babc05f8f339bd9181900360200190a1604080516001600160a01b038516815290517f65f4cf077bc01e4742eb5ad98326f6e95b63548ea24b17f8d5e823111fe788009181900360200190a1604080516001600160a01b038416815290517f2ac6e99201ddc1b6eac6f8f28662d1ecafee131f6eb98c29de54528a9888a7d19181900360200190a1604080516001600160a01b038316815290517f756ebc192164c295bba134b5aacd72cc7aff8098a670d1f0a5f6b3a0b4ce67079181900360200190a1611c41613896565b5050505050505050505050565b6000546001600160a01b031681565b60105481565b611c6b61275f565b610baf816138e0565b6000805460408051630a7b61df60e11b8152905183926001600160a01b0316916314f6c3be916004808301926020929190829003018186803b158015611cb957600080fd5b505afa158015611ccd573d6000803e3d6000fd5b505050506040513d6020811015611ce357600080fd5b505160015460408051630a7b61df60e11b815290519293506000926001600160a01b03909216916314f6c3be91600480820192602092909190829003018186803b15801561180a57600080fd5b6003546001600160a01b031690565b6003546001600160a01b0316331490565b60115481565b6000611d6061275f565b6001600160a01b0383166000908152600e6020526040812054610be5908463ffffffff61314316565b60125481565b600a546001600160a01b031681565b600b546001600160a01b031681565b6000806000611dbb8461390a565b915091506000611dcb8383613990565b95945050505050565b6004546001600160a01b031681565b6000610c04826139c5565b6008546001600160a01b031681565b6001600160a01b0381166000908152600e602052604081208054600190910154909180611e29856126f2565b9150611e34856111b0565b9050611e46848363ffffffff61314316565b9350611e58838263ffffffff61314316565b92509193509193565b611e6961505d565b506040805160e0810182526000546001600160a01b03908116825260015481166020830152600854811692820192909252600a5482166060820152600b5482166080820152600754821660a082015260065490911660c0820152611ecb615099565b611ed4836139f1565b611edc613a4b565b600260009054906101000a90046001600160a01b03166001600160a01b0316630fdb11cf6040518163ffffffff1660e01b8152600401602060405180830381600087803b158015611f2c57600080fd5b505af1158015611f40573d6000803e3d6000fd5b505050506040513d6020811015611f5657600080fd5b505160c08201819052611f6890613b0f565b611f7189613b5e565b611f808260400151338b613b9d565b611f8861174e565b60e0820181905260408084015181516370a0823160e01b815233600482015291516001600160a01b03909116916370a08231916024808301926020929190829003018186803b158015611fda57600080fd5b505afa158015611fee573d6000803e3d6000fd5b505050506040513d602081101561200457600080fd5b5051111561200e57fe5b888152608082015160c0820151600091612029918b90613c5d565b1561203557508761215f565b82608001516001600160a01b0316634d6228316040518163ffffffff1660e01b815260040160206040518083038186803b15801561207257600080fd5b505afa158015612086573d6000803e3d6000fd5b505050506040513d602081101561209c57600080fd5b505190505b6001600160a01b038116158015906120cd5750670f43fc2c04ee00006120cb828460c0015161262a565b105b1561215f5782608001516001600160a01b031663b72703ac826040518263ffffffff1660e01b815260040180826001600160a01b03166001600160a01b0316815260200191505060206040518083038186803b15801561212c57600080fd5b505afa158015612140573d6000803e3d6000fd5b505050506040513d602081101561215657600080fd5b505190506120a1565b8461216a5760001994505b6001600160a01b038116158015906121825750815115155b801561218e5750600085115b156122bf57848060019003955050600083608001516001600160a01b031663b72703ac836040518263ffffffff1660e01b815260040180826001600160a01b03166001600160a01b0316815260200191505060206040518083038186803b1580156121f857600080fd5b505afa15801561220c573d6000803e3d6000fd5b505050506040513d602081101561222257600080fd5b50518451602086015191925061223891846127aa565b6122406150de565b612257858486600001518760c001518e8e8e613dd0565b80519091506122675750506122bf565b8051602085015161227d9163ffffffff61314316565b602080860191909152810151604085015161229d9163ffffffff61314316565b6040850152805184516122b59163ffffffff6128cc16565b845250905061216a565b60008260400151116123025760405162461bcd60e51b81526004018080602001828103825260298152602001806151826029913960400191505060405180910390fd5b61231982604001518360c001518460e00151614067565b5061232782604001516140dc565b60608301819052604083015161233e919086614137565b82600001516001600160a01b03166364a197f3846060015184606001516040518363ffffffff1660e01b815260040180836001600160a01b03166001600160a01b0316815260200182815260200192505050600060405180830381600087803b1580156123aa57600080fd5b505af11580156123be573d6000803e3d6000fd5b5050505082606001516001600160a01b0316631e3e2a1a83606001516040518263ffffffff1660e01b815260040180828152602001915050600060405180830381600087803b15801561241057600080fd5b505af1158015612424573d6000803e3d6000fd5b505050506060820151604083015161243b916128cc565b8260800181815250507f43a3f4082a4dbc33d78e317d2497d3a730bc7fc3574159dcea1056e62e5d9ad88a8360200151846040015185606001516040518085815260200184815260200183815260200182815260200194505050505060405180910390a182604001516001600160a01b0316639dc29fac3384602001516040518363ffffffff1660e01b815260040180836001600160a01b03166001600160a01b0316815260200182815260200192505050600060405180830381600087803b15801561250757600080fd5b505af115801561251b573d6000803e3d6000fd5b5050505082600001516001600160a01b03166338d995a883602001516040518263ffffffff1660e01b815260040180828152602001915050600060405180830381600087803b15801561256d57600080fd5b505af1158015612581573d6000803e3d6000fd5b505084516080850151604080516364a197f360e01b81523360048201526024810192909252516001600160a01b0390921693506364a197f3925060448082019260009290919082900301818387803b1580156125dc57600080fd5b505af11580156125f0573d6000803e3d6000fd5b5050505050505050505050505050565b600f5481565b6212750081565b670ddd4b8c6c7d70d881565b61262161275f565b610baf816141ac565b60008060006126388561390a565b915091506000611235838387614266565b600d5481565b600061265961275f565b6001600160a01b0383166000908152600e60205260408120600101546116d9908463ffffffff6128cc16565b6001600160a01b03166000908152600e602052604090205490565b6000601582815481106126af57fe5b6000918252602090912001546001600160a01b031692915050565b60135481565b6012546001600160a01b03821660009081526014602052604090205410919050565b6001600160a01b03811660009081526014602052604081206001015460135482906111de908363ffffffff6128cc16565b600061109d612741600c546103e8670de0b6b3a76400008161107d57fe5b66b1a2bc2ec5000061319d565b61275661275f565b610baf81614296565b6004546001600160a01b031633146127a85760405162461bcd60e51b815260040180806020018281038252603b8152602001806152a4603b913960400191505060405180910390fd5b565b6127b3816126d0565b156128c7576127c1816131b3565b60006127cc826111b0565b905060006127d9836126f2565b6001600160a01b0384166000908152600e6020526040902060010154909150612808908363ffffffff61314316565b6001600160a01b0384166000908152600e60205260409020600181019190915554612839908263ffffffff61314316565b6001600160a01b0384166000908152600e602052604090205561285b836138e0565b612867858583856142e6565b6001600160a01b0383166000818152600e602090815260408083208054600182015460029092015483519182529381019190915280820192909252606082019290925290516000805160206152848339815191529181900360800190a250505b505050565b600061290e83836040518060400160405280601e81526020017f536166654d6174683a207375627472616374696f6e206f766572666c6f7700008152506143e8565b9392505050565b601580546001808201835560008381527f55f448fdea98c4d29eb340757ef0a66cd03dbb9538908a6a81d96026b71ec47590920180546001600160a01b0319166001600160a01b0386161790559154909161297091906128cc565b6001600160a01b03929092166000908152600e602052604090206003018054610100600160881b0319166101006001600160801b038516021790555090565b6001600160a01b0381166000908152600e602052604081206001015481906129d69061447f565b6001600160a01b0384166000908152600e60205260409020600201805490829055600f5491925090612a20908390612a14908463ffffffff6128cc16565b9063ffffffff61314316565b600f555092915050565b600080612a36836139c5565b6714d1120d7b160000119392505050565b612a4f615011565b612a576150f8565b612a5f615011565b84825260006080830152612a7161174e565b60a0830152612a7e611c74565b60c0830152600060208301525b835182602001511015612c255783826020015181518110612aa857fe5b60209081029190910101516001600160a01b031660608301819052612acd908761262a565b60408301526080820151612bb757670f43fc2c04ee0000826040015110158015612af657508151155b15612b0057612c15565b6000612b158360c001518460a0015189614266565b9050612b328989856060015186604001518760000151868d6144bb565b60808101518451919350612b4c919063ffffffff6128cc16565b8352608082015160a0840151612b679163ffffffff6128cc16565b60a08085019190915282015160c0840151612b879163ffffffff6128cc16565b60c0840152612b96848361476c565b9350612bab8360c001518460a0015189614883565b15608084015250612c15565b81608001518015612bd35750670f43fc2c04ee00008260400151105b15612c1557612bec8888846060015185600001516148a4565b60808101518351919250612c06919063ffffffff6128cc16565b8252612c12838261476c565b92505b6020820180516001019052612a8b565b505095945050505050565b612c38615011565b612c406150f8565b612c48615011565b848252600060208301525b835182602001511015612c255783826020015181518110612c7057fe5b60209081029190910101516001600160a01b031660608301819052612c95908761262a565b60408301819052670f43fc2c04ee00001115612ce857612cbf8888846060015185600001516148a4565b60808101518351919250612cd9919063ffffffff6128cc16565b8252612ce5838261476c565b92505b6020820180516001019052612c53565b81612d0257612f34565b601654600090612d2490612a1484670de0b6b3a764000063ffffffff61321b16565b90506000612d49601754612a14670de0b6b3a76400008761321b90919063ffffffff16565b90506000612d62600f548461327490919063ffffffff16565b90506000612d7b600f548461327490919063ffffffff16565b9050612da2612d95600f548461321b90919063ffffffff16565b859063ffffffff6128cc16565b601655600f54612dca90612dbd90839063ffffffff61321b16565b849063ffffffff6128cc16565b601755601254612de0908363ffffffff61314316565b601255601354612df6908263ffffffff61314316565b6013556040805163071b32b560e31b81526004810188905290516001600160a01b038a16916338d995a891602480830192600092919082900301818387803b158015612e4157600080fd5b505af1158015612e55573d6000803e3d6000fd5b50505050866001600160a01b031663cfb9329a876040518263ffffffff1660e01b815260040180828152602001915050600060405180830381600087803b158015612e9f57600080fd5b505af1158015612eb3573d6000803e3d6000fd5b50505050876001600160a01b03166364a197f388876040518363ffffffff1660e01b815260040180836001600160a01b03166001600160a01b0316815260200182815260200192505050600060405180830381600087803b158015612f1757600080fd5b505af1158015612f2b573d6000803e3d6000fd5b50505050505050505b50505050565b600f546010819055506000826001600160a01b03166314f6c3be6040518163ffffffff1660e01b815260040160206040518083038186803b158015612f7e57600080fd5b505afa158015612f92573d6000803e3d6000fd5b505050506040513d6020811015612fa857600080fd5b505160015460408051630a7b61df60e11b815290519293506000926001600160a01b03909216916314f6c3be91600480820192602092909190829003018186803b158015612ff557600080fd5b505afa158015613009573d6000803e3d6000fd5b505050506040513d602081101561301f57600080fd5b5051905061303781612a14848663ffffffff6128cc16565b60115550505050565b81156130bf5760085460065460408051631062c15f60e11b81526001600160a01b039283166004820152868316602482015260448101869052905191909216916320c582be91606480830192600092919082900301818387803b1580156130a657600080fd5b505af11580156130ba573d6000803e3d6000fd5b505050505b8015612f3457836001600160a01b03166364a197f384836040518363ffffffff1660e01b815260040180836001600160a01b03166001600160a01b0316815260200182815260200192505050600060405180830381600087803b15801561312557600080fd5b505af1158015613139573d6000803e3d6000fd5b5050505050505050565b60008282018381101561290e576040805162461bcd60e51b815260206004820152601b60248201527f536166654d6174683a206164646974696f6e206f766572666c6f770000000000604482015290519081900360640190fd5b60008183106131ac578161290e565b5090919050565b60016001600160a01b0382166000908152600e602052604090206003015460ff1660028111156131df57fe5b14610baf5760405162461bcd60e51b815260040180806020018281038252602f8152602001806153f5602f913960400191505060405180910390fd5b60008261322a57506000610c04565b8282028284828161323757fe5b041461290e5760405162461bcd60e51b81526004018080602001828103825260218152602001806152156021913960400191505060405180910390fd5b600061290e83836040518060400160405280601a81526020017f536166654d6174683a206469766973696f6e206279207a65726f0000000000008152506149b9565b6000806132c1614a1e565b905060006132d7670ddd4b8c6c7d70d883614a3a565b9050611848670de0b6b3a764000061122983600c5461321b90919063ffffffff16565b6000613311600d54426128cc90919063ffffffff16565b9050603c8110610baf5742600d5550565b61332a615011565b6133326150f8565b61333a615011565b8482526000608083015261334c61174e565b60a0830152613359611c74565b8260c001818152505086608001516001600160a01b0316634d6228316040518163ffffffff1660e01b815260040160206040518083038186803b15801561339f57600080fd5b505afa1580156133b3573d6000803e3d6000fd5b505050506040513d60208110156133c957600080fd5b50516001600160a01b039081166060840152608088015160408051631e22314360e01b815290516000939290921691631e22314391600480820192602092909190829003018186803b15801561341e57600080fd5b505afa158015613432573d6000803e3d6000fd5b505050506040513d602081101561344857600080fd5b50516000602085015290505b84836020015110801561347d5750806001600160a01b031683606001516001600160a01b031614155b156136aa57600088608001516001600160a01b031663b72703ac85606001516040518263ffffffff1660e01b815260040180826001600160a01b03166001600160a01b0316815260200191505060206040518083038186803b1580156134e257600080fd5b505afa1580156134f6573d6000803e3d6000fd5b505050506040513d602081101561350c57600080fd5b50516060850151909150613520908961262a565b6040850152608084015161361c57670f43fc2c04ee000084604001511015801561354957508351155b1561355457506136aa565b60006135698560c001518660a001518b614266565b8a5160208c015160608801516040890151895194955061358a94868f6144bb565b608081015186519195506135a4919063ffffffff6128cc16565b8552608084015160a08601516135bf9163ffffffff6128cc16565b8560a00181815250506135ec846101000151610f798660a001518860c001516128cc90919063ffffffff16565b60c08601526135fb868561476c565b95506136108560c001518660a001518b614883565b1560808601525061368c565b836080015180156136385750670f43fc2c04ee00008460400151105b156136865761365989600001518a60200151866060015187600001516148a4565b60808101518551919450613673919063ffffffff6128cc16565b845261367f858461476c565b945061368c565b506136aa565b6001600160a01b031660608401526020830180516001019052613454565b505050949350505050565b6136bd615011565b6136c56150f8565b6136cd615011565b600b54858352600060208401526001600160a01b03165b84836020015110156137db57806001600160a01b0316634d6228316040518163ffffffff1660e01b815260040160206040518083038186803b15801561372957600080fd5b505afa15801561373d573d6000803e3d6000fd5b505050506040513d602081101561375357600080fd5b50516001600160a01b03166060840181905261376f908861262a565b60408401819052670f43fc2c04ee000011156137c6576137998989856060015186600001516148a4565b608081015184519193506137b3919063ffffffff6128cc16565b83526137bf848361476c565b93506137cb565b6137db565b60208301805160010190526136e4565b50505095945050505050565b6001600160a01b038116613842576040805162461bcd60e51b815260206004820152601e60248201527f4163636f756e742063616e6e6f74206265207a65726f20616464726573730000604482015290519081900360640190fd5b803b80611111576040805162461bcd60e51b815260206004820181905260248201527f4163636f756e7420636f64652073697a652063616e6e6f74206265207a65726f604482015290519081900360640190fd5b6003546040516000916001600160a01b0316907f8be0079c531659141344cd1fd0a4f28419497f9722a3daafe3b4186f6b6457e0908390a3600380546001600160a01b0319169055565b6012546001600160a01b039091166000908152601460205260409020908155601354600190910155565b6000806000613918846111b0565b90506000613925856126f2565b6001600160a01b0386166000908152600e602052604081206001015491925090613955908463ffffffff61314316565b6001600160a01b0387166000908152600e602052604081205491925090613982908463ffffffff61314316565b919550909350505050915091565b600081156139bc576139b5826112298568056bc75e2d6310000063ffffffff61321b16565b9050610c04565b50600019610c04565b6000806139d0611c74565b905060006139dc61174e565b90506139e9828286614266565b949350505050565b6611c37937e080008110158015613a105750670de0b6b3a76400008111155b610baf5760405162461bcd60e51b81526004018080602001828103825260308152602001806153796030913960400191505060405180910390fd5b60095460408051631e425be160e11b815290516000926001600160a01b031691633c84b7c2916004808301926020929190829003018186803b158015613a9057600080fd5b505afa158015613aa4573d6000803e3d6000fd5b505050506040513d6020811015613aba57600080fd5b50519050613ad1816212750063ffffffff61314316565b421015610baf5760405162461bcd60e51b81526004018080602001828103825260408152602001806151d56040913960400191505060405180910390fd5b670f43fc2c04ee0000613b21826139c5565b1015610baf5760405162461bcd60e51b815260040180806020018281038252602a8152602001806153a9602a913960400191505060405180910390fd5b60008111610baf5760405162461bcd60e51b815260040180806020018281038252602e815260200180615315602e913960400191505060405180910390fd5b80836001600160a01b03166370a08231846040518263ffffffff1660e01b815260040180826001600160a01b03166001600160a01b0316815260200191505060206040518083038186803b158015613bf457600080fd5b505afa158015613c08573d6000803e3d6000fd5b505050506040513d6020811015613c1e57600080fd5b505110156128c75760405162461bcd60e51b815260040180806020018281038252604e815260200180615236604e913960600191505060405180910390fd5b60006001600160a01b0383161580613cf45750836001600160a01b0316635dbe47e8846040518263ffffffff1660e01b815260040180826001600160a01b03166001600160a01b0316815260200191505060206040518083038186803b158015613cc657600080fd5b505afa158015613cda573d6000803e3d6000fd5b505050506040513d6020811015613cf057600080fd5b5051155b80613d0f5750670f43fc2c04ee0000613d0d848461262a565b105b15613d1c5750600061290e565b6000846001600160a01b031663765e0159856040518263ffffffff1660e01b815260040180826001600160a01b03166001600160a01b0316815260200191505060206040518083038186803b158015613d7457600080fd5b505afa158015613d88573d6000803e3d6000fd5b505050506040513d6020811015613d9e57600080fd5b505190506001600160a01b0381161580611dcb5750670f43fc2c04ee0000613dc6828561262a565b1095945050505050565b613dd86150de565b6001600160a01b0387166000908152600e6020526040902054613e15908790613e10906802b5e3af16b188000063ffffffff6128cc16565b61319d565b808252613e3690869061122990670de0b6b3a764000063ffffffff61321b16565b60208083019190915281516001600160a01b0389166000908152600e9092526040822054613e699163ffffffff6128cc16565b6020808401516001600160a01b038b166000908152600e90925260408220600101549293509091613e9f9163ffffffff6128cc16565b90506802b5e3af16b1880000821415613f3657613ebb89614296565b613ec4896141ac565b613ed98a8a6802b5e3af16b188000084614ae5565b886001600160a01b03166000805160206152848339815191526000806000600360405180858152602001848152602001838152602001826003811115613f1b57fe5b60ff16815260200194505050505060405180910390a2614059565b6000613f428284613990565b9050848114613f5d575050600080835260208301525061405c565b60808b01516040805163015f109360e51b81526001600160a01b038d81166004830152602482018590528a81166044830152898116606483015291519190921691632be2126091608480830192600092919082900301818387803b158015613fc457600080fd5b505af1158015613fd8573d6000803e3d6000fd5b5050506001600160a01b038b166000908152600e60205260409020848155600101839055506140068a6129af565b506001600160a01b038a166000818152600e6020908152604091829020600201548251878152918201869052818301526003606082015290516000805160206152848339815191529181900360800190a2505b50505b979650505050505050565b6000806140726132b6565b9050600061408a84611229888863ffffffff61321b16565b905060006140af6140a283600263ffffffff61327416565b849063ffffffff61314316565b90506140c381670de0b6b3a764000061319d565b9050600081116140cf57fe5b600c8190556112356132fa565b6000806140f7670de0b6b3a76400006112298561129161105f565b9050828110610c045760405162461bcd60e51b81526004018080602001828103825260368152602001806153436036913960400191505060405180910390fd5b60006141558361122986670de0b6b3a764000063ffffffff61321b16565b905081811115612f34576040805162461bcd60e51b815260206004820152601d60248201527f4665652065786365656465642070726f7669646564206d6178696d756d000000604482015290519081900360640190fd5b6015546141b881614c9a565b6001600160a01b0382166000908152600e6020908152604080832060038101805460ff191660021790556001808201859055908490556014909252822082815501556142048282614d53565b600b5460408051631484968760e11b81526001600160a01b038581166004830152915191909216916329092d0e91602480830192600092919082900301818387803b15801561425257600080fd5b505af1158015610ff4573d6000803e3d6000fd5b6000821561428d57600061428484611229878663ffffffff61321b16565b915061290e9050565b5060001961290e565b6001600160a01b0381166000908152600e6020526040902060020154600f546142c5908263ffffffff6128cc16565b600f55506001600160a01b03166000908152600e6020526040812060020155565b826001600160a01b03166338d995a8836040518263ffffffff1660e01b815260040180828152602001915050600060405180830381600087803b15801561432c57600080fd5b505af1158015614340573d6000803e3d6000fd5b50505050836001600160a01b031663cfb9329a836040518263ffffffff1660e01b815260040180828152602001915050600060405180830381600087803b15801561438a57600080fd5b505af115801561439e573d6000803e3d6000fd5b50505050826001600160a01b031663be41205f826040518263ffffffff1660e01b815260040180828152602001915050600060405180830381600087803b15801561312557600080fd5b600081848411156144775760405162461bcd60e51b81526004018080602001828103825283818151815260200191508051906020019080838360005b8381101561443c578181015183820152602001614424565b50505050905090810190601f1680156144695780820380516001836020036101000a031916815260200191505b509250505060405180910390fd5b505050900390565b60008060115460001415614494575081610c04565b6000601054116144a057fe5b61290e6011546112296010548661321b90919063ffffffff16565b6144c3615011565b6144cb615140565b6015546001106144db575061405c565b6144e487611dfd565b6040850190815260208581019283528601929092529184529051905161450e918b918b91906142e6565b61451b8260200151614ea0565b604083018190526802b5e3af16b1880000606084015260208301516145459163ffffffff6128cc16565b8152670de0b6b3a764000086116145df5761455f87614296565b60006080830181905260a0830152815160c0830152805160e0830152614584876141ac565b866001600160a01b0316600080516020615162833981519152836000015184602001516002604051808481526020018381526020018260038111156145c557fe5b60ff168152602001935050505060405180910390a2614760565b670de0b6b3a7640000861180156145fd5750670f43fc2c04ee000086105b156146375761460b87614296565b8151815161461a919087614ea7565b60e086015260c085015260a08401526080830152614584876141ac565b670f43fc2c04ee0000861015801561464e57508386105b801561465b575081518510155b1561474f578461466757fe5b61467087614296565b6146838260000151836020015185614f13565b915061468e876141ac565b6101008201511561470e5760075461010083015160408051633f10abab60e01b81526001600160a01b038b81166004830152602482019390935290519190921691633f10abab91604480830192600092919082900301818387803b1580156146f557600080fd5b505af1158015614709573d6000803e3d6000fd5b505050505b866001600160a01b031660008051602061516283398151915283600001518460a001516002604051808481526020018381526020018260038111156145c557fe5b614757615011565b915061405c9050565b50979650505050505050565b614774615011565b6040808301519084015161478d9163ffffffff61314316565b6040820152606080830151908401516147ab9163ffffffff61314316565b6060820152815160208401516147c69163ffffffff61314316565b60208083019190915282015183516147e39163ffffffff61314316565b8152608080830151908401516147fe9163ffffffff61314316565b608082015260a0808301519084015161481c9163ffffffff61314316565b60a082015260c0808301519084015161483a9163ffffffff61314316565b60c082015260e080830151908401516148589163ffffffff61314316565b60e082015261010080830151908401516148779163ffffffff61314316565b61010082015292915050565b600080614891858585614266565b6714d1120d7b1600001195945050505050565b6148ac615011565b6148b4615140565b6148bd84611dfd565b604085019081526020858101928352860192909252918452905190516148e79188918891906142e6565b6148f084614296565b6148fd8260200151614ea0565b604083018190526802b5e3af16b18800006060840152602083015160009161492b919063ffffffff6128cc16565b905061493c83600001518286614ea7565b60e087015260c086015260a08501526080840152614959856141ac565b846001600160a01b03166000805160206151628339815191528460000151856020015160016040518084815260200183815260200182600381111561499a57fe5b60ff168152602001935050505060405180910390a25050949350505050565b60008183614a085760405162461bcd60e51b815260206004820181815283516024840152835190928392604490910191908501908083836000831561443c578181015183820152602001614424565b506000838581614a1457fe5b0495945050505050565b600061109d603c611229600d54426128cc90919063ffffffff16565b6000631f540500821115614a5057631f54050091505b81614a645750670de0b6b3a7640000610c04565b670de0b6b3a764000083835b6001811115614adb5760028106614aa557614a8b8283614fad565b9150614a9e81600263ffffffff61327416565b9050614ad6565b614aaf8284614fad565b9250614abb8283614fad565b9150614ad3600261122983600163ffffffff6128cc16565b90505b614a70565b6112358284614fad565b6040808501516006548251632770a7eb60e21b81526001600160a01b039182166004820152602481018690529251911691639dc29fac91604480830192600092919082900301818387803b158015614b3c57600080fd5b505af1158015614b50573d6000803e3d6000fd5b5050505083600001516001600160a01b03166338d995a8836040518263ffffffff1660e01b815260040180828152602001915050600060405180830381600087803b158015614b9e57600080fd5b505af1158015614bb2573d6000803e3d6000fd5b505050508360a001516001600160a01b0316633f10abab84836040518363ffffffff1660e01b815260040180836001600160a01b03166001600160a01b0316815260200182815260200192505050600060405180830381600087803b158015614c1a57600080fd5b505af1158015614c2e573d6000803e3d6000fd5b5050505083600001516001600160a01b03166364a197f38560a00151836040518363ffffffff1660e01b815260040180836001600160a01b03166001600160a01b0316815260200182815260200192505050600060405180830381600087803b15801561312557600080fd5b600181118015614d185750600b546040805163de8fa43160e01b815290516001926001600160a01b03169163de8fa431916004808301926020929190829003018186803b158015614cea57600080fd5b505afa158015614cfe573d6000803e3d6000fd5b505050506040513d6020811015614d1457600080fd5b5051115b610baf5760405162461bcd60e51b815260040180806020018281038252602a8152602001806151ab602a913960400191505060405180910390fd5b60026001600160a01b0383166000908152600e602052604090206003015460ff166002811115614d7f57fe5b14614d8657fe5b6001600160a01b0382166000908152600e602052604081206003015461010090046001600160801b0316908290614dbe8260016128cc565b905080836001600160801b03161115614dd357fe5b600060158281548110614de257fe5b600091825260209091200154601580546001600160a01b03909216925082916001600160801b038716908110614e1457fe5b600091825260208083209190910180546001600160a01b0319166001600160a01b039485161790559183168152600e909152604090206003018054610100600160881b0319166101006001600160801b038716021790556015805480614e7657fe5b600082815260209020810160001990810180546001600160a01b0319169055019055505050505050565b60c8900490565b60008080808415614efd57614ebc878661319d565b9350614ed287611229888763ffffffff61321b16565b9250614ee4878563ffffffff6128cc16565b9150614ef6868463ffffffff6128cc16565b9050614f0a565b5060009250829150859050845b93509350935093565b614f1b615011565b838152602081018390526000614f438361122987670f43fc2c04ee000063ffffffff61321b16565b9050614f4e81614ea0565b604083018190526802b5e3af16b1880000606084015260808301869052614f7c90829063ffffffff6128cc16565b60a0830152614f91848263ffffffff6128cc16565b61010083015250600060c0820181905260e08201529392505050565b600080614fc0848463ffffffff61321b16565b90506139e9670de0b6b3a7640000611229836706f05b59d3b20000613143565b6040518060a00160405280600081526020016000815260200160001515815260200160008152602001600081525090565b6040518061012001604052806000815260200160008152602001600081526020016000815260200160008152602001600081526020016000815260200160008152602001600081525090565b6040805160e081018252600080825260208201819052918101829052606081018290526080810182905260a0810182905260c081019190915290565b60405180610100016040528060008152602001600081526020016000815260200160008152602001600081526020016000815260200160008152602001600081525090565b604051806040016040528060008152602001600081525090565b6040518060e0016040528060008152602001600081526020016000815260200160006001600160a01b0316815260200160001515815260200160008152602001600081525090565b6040518060600160405280600081526020016000815260200160008152509056feea67486ed7ebe3eea8ab3390efd4a3c8aae48be5bea27df104a8af786c40843454726f76654d616e616765723a20556e61626c6520746f2072656465656d20616e7920616d6f756e7454726f76654d616e616765723a204f6e6c79206f6e652074726f766520696e207468652073797374656d54726f76654d616e616765723a20526564656d7074696f6e7320617265206e6f7420616c6c6f77656420647572696e6720626f6f747374726170207068617365536166654d6174683a206d756c7469706c69636174696f6e206f766572666c6f7754726f76654d616e616765723a2052657175657374656420726564656d7074696f6e20616d6f756e74206d757374206265203c3d20757365722773204c55534420746f6b656e2062616c616e6365c3770d654ed33aeea6bf11ac8ef05d02a6a04ed4686dd2f624d853bbec43cc8b54726f76654d616e616765723a2043616c6c6572206973206e6f742074686520426f72726f7765724f7065726174696f6e7320636f6e747261637454726f76654d616e616765723a2043616c6c646174612061646472657373206172726179206d757374206e6f7420626520656d70747954726f76654d616e616765723a20416d6f756e74206d7573742062652067726561746572207468616e207a65726f54726f76654d616e616765723a2046656520776f756c642065617420757020616c6c2072657475726e656420636f6c6c61746572616c4d6178206665652070657263656e74616765206d757374206265206265747765656e20302e352520616e64203130302554726f76654d616e616765723a2043616e6e6f742072656465656d207768656e20544352203c204d435254726f76654d616e616765723a206e6f7468696e6720746f206c697175696461746554726f76654d616e616765723a2054726f766520646f6573206e6f74206578697374206f7220697320636c6f736564a26469706673582212202445fed45be69270f7434ebdd33f529aa7cc52ad3fbe9da4530c1b5d192a2a0364736f6c634300060b0033",
  "linkReferences": {},
  "deployedLinkReferences": {}
}