{
  "_format": "hh-sol-artifact-1",
  "contractName": "Unipool",
  "sourceName": "contracts/LPRewards/Unipool.sol",
  "abi": [
    {
      "anonymous": false,
      "inputs": [
        {
          "indexed": false,
          "internalType": "address",
          "name": "_lqtyTokenAddress",
          "type": "address"
        }
      ],
      "name": "LQTYTokenAddressChanged",
      "type": "event"
    },
    {
      "anonymous": false,
      "inputs": [
        {
          "indexed": true,
          "internalType": "address",
          "name": "previousOwner",
          "type": "address"
        },
        {
          "indexed": true,
          "internalType": "address",
          "name": "newOwner",
          "type": "address"
        }
      ],
      "name": "OwnershipTransferred",
      "type": "event"
    },
    {
      "anonymous": false,
      "inputs": [
        {
          "indexed": false,
          "internalType": "uint256",
          "name": "reward",
          "type": "uint256"
        }
      ],
      "name": "RewardAdded",
      "type": "event"
    },
    {
      "anonymous": false,
      "inputs": [
        {
          "indexed": true,
          "internalType": "address",
          "name": "user",
          "type": "address"
        },
        {
          "indexed": false,
          "internalType": "uint256",
          "name": "reward",
          "type": "uint256"
        }
      ],
      "name": "RewardPaid",
      "type": "event"
    },
    {
      "anonymous": false,
      "inputs": [
        {
          "indexed": true,
          "internalType": "address",
          "name": "user",
          "type": "address"
        },
        {
          "indexed": false,
          "internalType": "uint256",
          "name": "amount",
          "type": "uint256"
        }
      ],
      "name": "Staked",
      "type": "event"
    },
    {
      "anonymous": false,
      "inputs": [
        {
          "indexed": false,
          "internalType": "address",
          "name": "_uniTokenAddress",
          "type": "address"
        }
      ],
      "name": "UniTokenAddressChanged",
      "type": "event"
    },
    {
      "anonymous": false,
      "inputs": [
        {
          "indexed": true,
          "internalType": "address",
          "name": "user",
          "type": "address"
        },
        {
          "indexed": false,
          "internalType": "uint256",
          "name": "amount",
          "type": "uint256"
        }
      ],
      "name": "Withdrawn",
      "type": "event"
    },
    {
      "inputs": [],
      "name": "NAME",
      "outputs": [
        {
          "internalType": "string",
          "name": "",
          "type": "string"
        }
      ],
      "stateMutability": "view",
      "type": "function"
    },
    {
      "inputs": [
        {
          "internalType": "address",
          "name": "account",
          "type": "address"
        }
      ],
      "name": "balanceOf",
      "outputs": [
        {
          "internalType": "uint256",
          "name": "",
          "type": "uint256"
        }
      ],
      "stateMutability": "view",
      "type": "function"
    },
    {
      "inputs": [],
      "name": "claimReward",
      "outputs": [],
      "stateMutability": "nonpayable",
      "type": "function"
    },
    {
      "inputs": [],
      "name": "duration",
      "outputs": [
        {
          "internalType": "uint256",
          "name": "",
          "type": "uint256"
        }
      ],
      "stateMutability": "view",
      "type": "function"
    },
    {
      "inputs": [
        {
          "internalType": "address",
          "name": "account",
          "type": "address"
        }
      ],
      "name": "earned",
      "outputs": [
        {
          "internalType": "uint256",
          "name": "",
          "type": "uint256"
        }
      ],
      "stateMutability": "view",
      "type": "function"
    },
    {
      "inputs": [],
      "name": "isOwner",
      "outputs": [
        {
          "internalType": "bool",
          "name": "",
          "type": "bool"
        }
      ],
      "stateMutability": "view",
      "type": "function"
    },
    {
      "inputs": [],
      "name": "lastTimeRewardApplicable",
      "outputs": [
        {
          "internalType": "uint256",
          "name": "",
          "type": "uint256"
        }
      ],
      "stateMutability": "view",
      "type": "function"
    },
    {
      "inputs": [],
      "name": "lastUpdateTime",
      "outputs": [
        {
          "internalType": "uint256",
          "name": "",
          "type": "uint256"
        }
      ],
      "stateMutability": "view",
      "type": "function"
    },
    {
      "inputs": [],
      "name": "lqtyToken",
      "outputs": [
        {
          "internalType": "contract ILQTYToken",
          "name": "",
          "type": "address"
        }
      ],
      "stateMutability": "view",
      "type": "function"
    },
    {
      "inputs": [],
      "name": "owner",
      "outputs": [
        {
          "internalType": "address",
          "name": "",
          "type": "address"
        }
      ],
      "stateMutability": "view",
      "type": "function"
    },
    {
      "inputs": [],
      "name": "periodFinish",
      "outputs": [
        {
          "internalType": "uint256",
          "name": "",
          "type": "uint256"
        }
      ],
      "stateMutability": "view",
      "type": "function"
    },
    {
      "inputs": [],
      "name": "rewardPerToken",
      "outputs": [
        {
          "internalType": "uint256",
          "name": "",
          "type": "uint256"
        }
      ],
      "stateMutability": "view",
      "type": "function"
    },
    {
      "inputs": [],
      "name": "rewardPerTokenStored",
      "outputs": [
        {
          "internalType": "uint256",
          "name": "",
          "type": "uint256"
        }
      ],
      "stateMutability": "view",
      "type": "function"
    },
    {
      "inputs": [],
      "name": "rewardRate",
      "outputs": [
        {
          "internalType": "uint256",
          "name": "",
          "type": "uint256"
        }
      ],
      "stateMutability": "view",
      "type": "function"
    },
    {
      "inputs": [
        {
          "internalType": "address",
          "name": "",
          "type": "address"
        }
      ],
      "name": "rewards",
      "outputs": [
        {
          "internalType": "uint256",
          "name": "",
          "type": "uint256"
        }
      ],
      "stateMutability": "view",
      "type": "function"
    },
    {
      "inputs": [
        {
          "internalType": "address",
          "name": "_lqtyTokenAddress",
          "type": "address"
        },
        {
          "internalType": "address",
          "name": "_uniTokenAddress",
          "type": "address"
        },
        {
          "internalType": "uint256",
          "name": "_duration",
          "type": "uint256"
        }
      ],
      "name": "setParams",
      "outputs": [],
      "stateMutability": "nonpayable",
      "type": "function"
    },
    {
      "inputs": [
        {
          "internalType": "uint256",
          "name": "amount",
          "type": "uint256"
        }
      ],
      "name": "stake",
      "outputs": [],
      "stateMutability": "nonpayable",
      "type": "function"
    },
    {
      "inputs": [],
      "name": "totalSupply",
      "outputs": [
        {
          "internalType": "uint256",
          "name": "",
          "type": "uint256"
        }
      ],
      "stateMutability": "view",
      "type": "function"
    },
    {
      "inputs": [],
      "name": "uniToken",
      "outputs": [
        {
          "internalType": "contract IERC20",
          "name": "",
          "type": "address"
        }
      ],
      "stateMutability": "view",
      "type": "function"
    },
    {
      "inputs": [
        {
          "internalType": "address",
          "name": "",
          "type": "address"
        }
      ],
      "name": "userRewardPerTokenPaid",
      "outputs": [
        {
          "internalType": "uint256",
          "name": "",
          "type": "uint256"
        }
      ],
      "stateMutability": "view",
      "type": "function"
    },
    {
      "inputs": [
        {
          "internalType": "uint256",
          "name": "amount",
          "type": "uint256"
        }
      ],
      "name": "withdraw",
      "outputs": [],
      "stateMutability": "nonpayable",
      "type": "function"
    },
    {
      "inputs": [],
      "name": "withdrawAndClaim",
      "outputs": [],
      "stateMutability": "nonpayable",
      "type": "function"
    }
  ],
  "bytecode": "0x60806040526000600655600060075534801561001a57600080fd5b50600380546001600160a01b031916339081179091556040516000907f8be0079c531659141344cd1fd0a4f28419497f9722a3daafe3b4186f6b6457e0908290a36113df8061006a6000396000f3fe608060405234801561001057600080fd5b50600436106101415760003560e01c80638b876347116100b8578063b88a802f1161007c578063b88a802f1461034f578063c8f33c9114610357578063cd3daf9d1461035f578063d443772414610367578063df136d651461036f578063ebe2b12b1461037757610141565b80638b8763471461026b5780638da5cb5b146102915780638f32d59b14610299578063a3f4df7e146102b5578063a694fc3a1461033257610141565b80632e1a7d4d1161010a5780632e1a7d4d146101d8578063509db2f6146101f757806370a082311461022d5780637b0a47ee1461025357806380faa57d1461025b57806385ce4fee1461026357610141565b80628cc262146101465780630700037d1461017e5780630fb5a6b4146101a457806318160ddd146101ac5780631f7af3c3146101b4575b600080fd5b61016c6004803603602081101561015c57600080fd5b50356001600160a01b031661037f565b60408051918252519081900360200190f35b61016c6004803603602081101561019457600080fd5b50356001600160a01b0316610405565b61016c610417565b61016c61041d565b6101bc610424565b604080516001600160a01b039092168252519081900360200190f35b6101f5600480360360208110156101ee57600080fd5b5035610433565b005b6101f56004803603606081101561020d57600080fd5b506001600160a01b0381358116916020810135909116906040013561050e565b61016c6004803603602081101561024357600080fd5b50356001600160a01b03166106a1565b61016c6106bc565b61016c6106c2565b6101bc6106d5565b61016c6004803603602081101561028157600080fd5b50356001600160a01b03166106e4565b6101bc6106f6565b6102a1610705565b604080519115158252519081900360200190f35b6102bd610716565b6040805160208082528351818301528351919283929083019185019080838360005b838110156102f75781810151838201526020016102df565b50505050905090810190601f1680156103245780820380516001836020036101000a031916815260200191505b509250505060405180910390f35b6101f56004803603602081101561034857600080fd5b5035610739565b6101f5610819565b61016c610990565b61016c610996565b6101f56109ea565b61016c610a05565b61016c610a0b565b6001600160a01b0381166000908152600b6020908152604080832054600a9092528220546103ff91906103f390670de0b6b3a7640000906103e7906103d2906103c6610996565b9063ffffffff610a1116565b6103db886106a1565b9063ffffffff610a5a16565b9063ffffffff610ab316565b9063ffffffff610af516565b92915050565b600b6020526000908152604090205481565b60045481565b6001545b90565b6005546001600160a01b031681565b6000811161047c576040805162461bcd60e51b8152602060048201526011602482015270043616e6e6f74207769746864726177203607c1b604482015290519081900360640190fd5b6000546001600160a01b03166104c35760405162461bcd60e51b81526004018080602001828103825260298152602001806113106029913960400191505060405180910390fd5b6104cc33610b4f565b6104d581610b9e565b60408051828152905133917f7084f5476618d8e60b11ef0d7d3f06914655adb8793e28ff7f018d4c76d505d5919081900360200190a250565b610516610705565b610567576040805162461bcd60e51b815260206004820181905260248201527f4f776e61626c653a2063616c6c6572206973206e6f7420746865206f776e6572604482015290519081900360640190fd5b61057083610c02565b61057982610c02565b600080546001600160a01b038085166001600160a01b0319928316179092556005805486841692169190911790819055600483815560408051630974f55960e41b8152905161061c94939093169263974f559092828101926020929190829003018186803b1580156105ea57600080fd5b505afa1580156105fe573d6000803e3d6000fd5b505050506040513d602081101561061457600080fd5b505182610cb5565b604080516001600160a01b038516815290517f2ac6e99201ddc1b6eac6f8f28662d1ecafee131f6eb98c29de54528a9888a7d19181900360200190a1604080516001600160a01b038416815290517f15cb6984f76cb781da2b25c2024a3eaf5011914976381f844e09724cc9e21e949181900360200190a161069c610db3565b505050565b6001600160a01b031660009081526002602052604090205490565b60075481565b60006106d042600654610dfd565b905090565b6000546001600160a01b031681565b600a6020526000908152604090205481565b6003546001600160a01b031690565b6003546001600160a01b0316331490565b60405180604001604052806007815260200166155b9a5c1bdbdb60ca1b81525081565b6000811161077f576040805162461bcd60e51b815260206004820152600e60248201526d043616e6e6f74207374616b6520360941b604482015290519081900360640190fd5b6000546001600160a01b03166107c65760405162461bcd60e51b81526004018080602001828103825260298152602001806113106029913960400191505060405180910390fd5b6107ce610e13565b6107d733610b4f565b6107e081610e57565b60408051828152905133917f9e71bc8eea02a63969f509818f2dafb9254532904319f9dbda79b67bd34a5f3d919081900360200190a250565b6000546001600160a01b03166108605760405162461bcd60e51b81526004018080602001828103825260298152602001806113106029913960400191505060405180910390fd5b610868610e13565b61087133610b4f565b600061087c3361037f565b9050600081116108c6576040805162461bcd60e51b815260206004820152601060248201526f4e6f7468696e6720746f20636c61696d60801b604482015290519081900360640190fd5b336000818152600b60209081526040808320839055600554815163a9059cbb60e01b815260048101959095526024850186905290516001600160a01b039091169363a9059cbb9360448083019493928390030190829087803b15801561092b57600080fd5b505af115801561093f573d6000803e3d6000fd5b505050506040513d602081101561095557600080fd5b505060408051828152905133917fe2403640ba68fed3a2f88b7557551d1993f84b99bb10ff833f0cf8db0c5e0486919081900360200190a250565b60085481565b60006109a061041d565b6109ad5750600954610421565b6106d06109db6109bb61041d565b6103e7670de0b6b3a76400006103db6007546103db6008546103c66106c2565b6009549063ffffffff610af516565b6109fb6109f6336106a1565b610433565b610a03610819565b565b60095481565b60065481565b6000610a5383836040518060400160405280601e81526020017f536166654d6174683a207375627472616374696f6e206f766572666c6f770000815250610eb9565b9392505050565b600082610a69575060006103ff565b82820282848281610a7657fe5b0414610a535760405162461bcd60e51b815260040180806020018281038252602181526020018061135f6021913960400191505060405180910390fd5b6000610a5383836040518060400160405280601a81526020017f536166654d6174683a206469766973696f6e206279207a65726f000000000000815250610f50565b600082820183811015610a53576040805162461bcd60e51b815260206004820152601b60248201527f536166654d6174683a206164646974696f6e206f766572666c6f770000000000604482015290519081900360640190fd5b610b57610fb5565b6001600160a01b038116610b6757fe5b610b708161037f565b6001600160a01b039091166000908152600b6020908152604080832093909355600954600a90915291902055565b600154610bb1908263ffffffff610a1116565b60015533600090815260026020526040902054610bd4908263ffffffff610a1116565b336000818152600260205260408120929092559054610bff916001600160a01b039091169083610fcd565b50565b6001600160a01b038116610c5d576040805162461bcd60e51b815260206004820152601e60248201527f4163636f756e742063616e6e6f74206265207a65726f20616464726573730000604482015290519081900360640190fd5b803b80610cb1576040805162461bcd60e51b815260206004820181905260248201527f4163636f756e7420636f64652073697a652063616e6e6f74206265207a65726f604482015290519081900360640190fd5b5050565b60008211610cbf57fe5b600554604080516370a0823160e01b815230600482015290516001600160a01b03909216916370a0823191602480820192602092909190829003018186803b158015610d0a57600080fd5b505afa158015610d1e573d6000803e3d6000fd5b505050506040513d6020811015610d3457600080fd5b50518214610d3e57fe5b60065415610d4857fe5b610d50610fb5565b610d60828263ffffffff610ab316565b600755426008819055610d79908263ffffffff610af516565b6006556040805183815290517fde88a922e0d3b88b24e9623efeb464919c6bf9f66857a65e2bfcf2ce87a9433d9181900360200190a15050565b6003546040516000916001600160a01b0316907f8be0079c531659141344cd1fd0a4f28419497f9722a3daafe3b4186f6b6457e0908390a3600380546001600160a01b0319169055565b6000818310610e0c5781610a53565b5090919050565b610e1b61041d565b610a0357600060065411610e2b57fe5b610e52610e4360085442610a1190919063ffffffff16565b6006549063ffffffff610af516565b600655565b600154610e6a908263ffffffff610af516565b60015533600090815260026020526040902054610e8d908263ffffffff610af516565b336000818152600260205260408120929092559054610bff916001600160a01b0390911690308461101f565b60008184841115610f485760405162461bcd60e51b81526004018080602001828103825283818151815260200191508051906020019080838360005b83811015610f0d578181015183820152602001610ef5565b50505050905090810190601f168015610f3a5780820380516001836020036101000a031916815260200191505b509250505060405180910390fd5b505050900390565b60008183610f9f5760405162461bcd60e51b8152602060048201818152835160248401528351909283926044909101919085019080838360008315610f0d578181015183820152602001610ef5565b506000838581610fab57fe5b0495945050505050565b610fbd610996565b600955610fc86106c2565b600855565b604080516001600160a01b038416602482015260448082018490528251808303909101815260649091019091526020810180516001600160e01b031663a9059cbb60e01b17905261069c90849061107f565b604080516001600160a01b0380861660248301528416604482015260648082018490528251808303909101815260849091019091526020810180516001600160e01b03166323b872dd60e01b17905261107990859061107f565b50505050565b60606110d4826040518060400160405280602081526020017f5361666545524332303a206c6f772d6c6576656c2063616c6c206661696c6564815250856001600160a01b03166111309092919063ffffffff16565b80519091501561069c578080602001905160208110156110f357600080fd5b505161069c5760405162461bcd60e51b815260040180806020018281038252602a815260200180611380602a913960400191505060405180910390fd5b606061113f8484600085611147565b949350505050565b6060824710156111885760405162461bcd60e51b81526004018080602001828103825260268152602001806113396026913960400191505060405180910390fd5b611191856112a3565b6111e2576040805162461bcd60e51b815260206004820152601d60248201527f416464726573733a2063616c6c20746f206e6f6e2d636f6e7472616374000000604482015290519081900360640190fd5b60006060866001600160a01b031685876040518082805190602001908083835b602083106112215780518252601f199092019160209182019101611202565b6001836020036101000a03801982511681845116808217855250505050505090500191505060006040518083038185875af1925050503d8060008114611283576040519150601f19603f3d011682016040523d82523d6000602084013e611288565b606091505b50915091506112988282866112a9565b979650505050505050565b3b151590565b606083156112b8575081610a53565b8251156112c85782518084602001fd5b60405162461bcd60e51b8152602060048201818152845160248401528451859391928392604401919085019080838360008315610f0d578181015183820152602001610ef556fe4c697175696469747920506f6f6c20546f6b656e20686173206e6f74206265656e2073657420796574416464726573733a20696e73756666696369656e742062616c616e636520666f722063616c6c536166654d6174683a206d756c7469706c69636174696f6e206f766572666c6f775361666545524332303a204552433230206f7065726174696f6e20646964206e6f742073756363656564a2646970667358221220c099e6ca17ea564a5b20a5c2704ac4719419f49b39846917af5f3a6bd8a311ed64736f6c634300060b0033",
  "linkReferences": {},
  "deployedLinkReferences": {}
}