{
  "_format": "hh-sol-artifact-1",
  "contractName": "Unipool",
  "sourceName": "contracts/LPRewards/Unipool.sol",
  "abi": [
    {
      "anonymous": false,
      "inputs": [
        {
          "indexed": false,
          "internalType": "address",
          "name": "_lqtyTokenAddress",
          "type": "address"
        }
      ],
      "name": "LQTYTokenAddressChanged",
      "type": "event"
    },
    {
      "anonymous": false,
      "inputs": [
        {
          "indexed": true,
          "internalType": "address",
          "name": "previousOwner",
          "type": "address"
        },
        {
          "indexed": true,
          "internalType": "address",
          "name": "newOwner",
          "type": "address"
        }
      ],
      "name": "OwnershipTransferred",
      "type": "event"
    },
    {
      "anonymous": false,
      "inputs": [
        {
          "indexed": false,
          "internalType": "uint256",
          "name": "reward",
          "type": "uint256"
        }
      ],
      "name": "RewardAdded",
      "type": "event"
    },
    {
      "anonymous": false,
      "inputs": [
        {
          "indexed": true,
          "internalType": "address",
          "name": "user",
          "type": "address"
        },
        {
          "indexed": false,
          "internalType": "uint256",
          "name": "reward",
          "type": "uint256"
        }
      ],
      "name": "RewardPaid",
      "type": "event"
    },
    {
      "anonymous": false,
      "inputs": [
        {
          "indexed": true,
          "internalType": "address",
          "name": "user",
          "type": "address"
        },
        {
          "indexed": false,
          "internalType": "uint256",
          "name": "amount",
          "type": "uint256"
        }
      ],
      "name": "Staked",
      "type": "event"
    },
    {
      "anonymous": false,
      "inputs": [
        {
          "indexed": false,
          "internalType": "address",
          "name": "_uniTokenAddress",
          "type": "address"
        }
      ],
      "name": "UniTokenAddressChanged",
      "type": "event"
    },
    {
      "anonymous": false,
      "inputs": [
        {
          "indexed": true,
          "internalType": "address",
          "name": "user",
          "type": "address"
        },
        {
          "indexed": false,
          "internalType": "uint256",
          "name": "amount",
          "type": "uint256"
        }
      ],
      "name": "Withdrawn",
      "type": "event"
    },
    {
      "inputs": [
        {
          "internalType": "address",
          "name": "account",
          "type": "address"
        }
      ],
      "name": "balanceOf",
      "outputs": [
        {
          "internalType": "uint256",
          "name": "",
          "type": "uint256"
        }
      ],
      "stateMutability": "view",
      "type": "function"
    },
    {
      "inputs": [],
      "name": "claimReward",
      "outputs": [],
      "stateMutability": "nonpayable",
      "type": "function"
    },
    {
      "inputs": [],
      "name": "duration",
      "outputs": [
        {
          "internalType": "uint256",
          "name": "",
          "type": "uint256"
        }
      ],
      "stateMutability": "view",
      "type": "function"
    },
    {
      "inputs": [
        {
          "internalType": "address",
          "name": "account",
          "type": "address"
        }
      ],
      "name": "earned",
      "outputs": [
        {
          "internalType": "uint256",
          "name": "",
          "type": "uint256"
        }
      ],
      "stateMutability": "view",
      "type": "function"
    },
    {
      "inputs": [],
      "name": "isOwner",
      "outputs": [
        {
          "internalType": "bool",
          "name": "",
          "type": "bool"
        }
      ],
      "stateMutability": "view",
      "type": "function"
    },
    {
      "inputs": [],
      "name": "lastTimeRewardApplicable",
      "outputs": [
        {
          "internalType": "uint256",
          "name": "",
          "type": "uint256"
        }
      ],
      "stateMutability": "view",
      "type": "function"
    },
    {
      "inputs": [],
      "name": "lastUpdateTime",
      "outputs": [
        {
          "internalType": "uint256",
          "name": "",
          "type": "uint256"
        }
      ],
      "stateMutability": "view",
      "type": "function"
    },
    {
      "inputs": [],
      "name": "lqtyToken",
      "outputs": [
        {
          "internalType": "contract ILQTYToken",
          "name": "",
          "type": "address"
        }
      ],
      "stateMutability": "view",
      "type": "function"
    },
    {
      "inputs": [],
      "name": "owner",
      "outputs": [
        {
          "internalType": "address",
          "name": "",
          "type": "address"
        }
      ],
      "stateMutability": "view",
      "type": "function"
    },
    {
      "inputs": [],
      "name": "periodFinish",
      "outputs": [
        {
          "internalType": "uint256",
          "name": "",
          "type": "uint256"
        }
      ],
      "stateMutability": "view",
      "type": "function"
    },
    {
      "inputs": [],
      "name": "rewardPerToken",
      "outputs": [
        {
          "internalType": "uint256",
          "name": "",
          "type": "uint256"
        }
      ],
      "stateMutability": "view",
      "type": "function"
    },
    {
      "inputs": [],
      "name": "rewardPerTokenStored",
      "outputs": [
        {
          "internalType": "uint256",
          "name": "",
          "type": "uint256"
        }
      ],
      "stateMutability": "view",
      "type": "function"
    },
    {
      "inputs": [],
      "name": "rewardRate",
      "outputs": [
        {
          "internalType": "uint256",
          "name": "",
          "type": "uint256"
        }
      ],
      "stateMutability": "view",
      "type": "function"
    },
    {
      "inputs": [
        {
          "internalType": "address",
          "name": "",
          "type": "address"
        }
      ],
      "name": "rewards",
      "outputs": [
        {
          "internalType": "uint256",
          "name": "",
          "type": "uint256"
        }
      ],
      "stateMutability": "view",
      "type": "function"
    },
    {
      "inputs": [
        {
          "internalType": "address",
          "name": "_lqtyTokenAddress",
          "type": "address"
        },
        {
          "internalType": "address",
          "name": "_uniTokenAddress",
          "type": "address"
        },
        {
          "internalType": "uint256",
          "name": "_duration",
          "type": "uint256"
        }
      ],
      "name": "setParams",
      "outputs": [],
      "stateMutability": "nonpayable",
      "type": "function"
    },
    {
      "inputs": [
        {
          "internalType": "uint256",
          "name": "amount",
          "type": "uint256"
        }
      ],
      "name": "stake",
      "outputs": [],
      "stateMutability": "nonpayable",
      "type": "function"
    },
    {
      "inputs": [],
      "name": "totalSupply",
      "outputs": [
        {
          "internalType": "uint256",
          "name": "",
          "type": "uint256"
        }
      ],
      "stateMutability": "view",
      "type": "function"
    },
    {
      "inputs": [],
      "name": "uniToken",
      "outputs": [
        {
          "internalType": "contract IERC20",
          "name": "",
          "type": "address"
        }
      ],
      "stateMutability": "view",
      "type": "function"
    },
    {
      "inputs": [
        {
          "internalType": "address",
          "name": "",
          "type": "address"
        }
      ],
      "name": "userRewardPerTokenPaid",
      "outputs": [
        {
          "internalType": "uint256",
          "name": "",
          "type": "uint256"
        }
      ],
      "stateMutability": "view",
      "type": "function"
    },
    {
      "inputs": [
        {
          "internalType": "uint256",
          "name": "amount",
          "type": "uint256"
        }
      ],
      "name": "withdraw",
      "outputs": [],
      "stateMutability": "nonpayable",
      "type": "function"
    },
    {
      "inputs": [],
      "name": "withdrawAndClaim",
      "outputs": [],
      "stateMutability": "nonpayable",
      "type": "function"
    }
  ],
  "bytecode": "0x60806040526000600655600060075534801561001a57600080fd5b50600380546001600160a01b031916339081179091556040516000907f8be0079c531659141344cd1fd0a4f28419497f9722a3daafe3b4186f6b6457e0908290a36113338061006a6000396000f3fe608060405234801561001057600080fd5b50600436106101365760003560e01c806385ce4fee116100b8578063b88a802f1161007c578063b88a802f146102c7578063c8f33c91146102cf578063cd3daf9d146102d7578063d4437724146102df578063df136d65146102e7578063ebe2b12b146102ef57610136565b806385ce4fee146102585780638b876347146102605780638da5cb5b146102865780638f32d59b1461028e578063a694fc3a146102aa57610136565b80632e1a7d4d116100ff5780632e1a7d4d146101cd578063509db2f6146101ec57806370a08231146102225780637b0a47ee1461024857806380faa57d1461025057610136565b80628cc2621461013b5780630700037d146101735780630fb5a6b41461019957806318160ddd146101a15780631f7af3c3146101a9575b600080fd5b6101616004803603602081101561015157600080fd5b50356001600160a01b03166102f7565b60408051918252519081900360200190f35b6101616004803603602081101561018957600080fd5b50356001600160a01b031661037d565b61016161038f565b610161610395565b6101b161039c565b604080516001600160a01b039092168252519081900360200190f35b6101ea600480360360208110156101e357600080fd5b50356103ab565b005b6101ea6004803603606081101561020257600080fd5b506001600160a01b03813581169160208101359091169060400135610486565b6101616004803603602081101561023857600080fd5b50356001600160a01b0316610619565b610161610634565b61016161063a565b6101b161064d565b6101616004803603602081101561027657600080fd5b50356001600160a01b031661065c565b6101b161066e565b61029661067d565b604080519115158252519081900360200190f35b6101ea600480360360208110156102c057600080fd5b503561068e565b6101ea61076e565b6101616108e5565b6101616108eb565b6101ea61093f565b61016161095a565b610161610960565b6001600160a01b0381166000908152600b6020908152604080832054600a909252822054610377919061036b90670de0b6b3a76400009061035f9061034a9061033e6108eb565b9063ffffffff61096616565b61035388610619565b9063ffffffff6109af16565b9063ffffffff610a0816565b9063ffffffff610a4a16565b92915050565b600b6020526000908152604090205481565b60045481565b6001545b90565b6005546001600160a01b031681565b600081116103f4576040805162461bcd60e51b8152602060048201526011602482015270043616e6e6f74207769746864726177203607c1b604482015290519081900360640190fd5b6000546001600160a01b031661043b5760405162461bcd60e51b81526004018080602001828103825260288152602001806112656028913960400191505060405180910390fd5b61044433610aa4565b61044d81610af3565b60408051828152905133917f7084f5476618d8e60b11ef0d7d3f06914655adb8793e28ff7f018d4c76d505d5919081900360200190a250565b61048e61067d565b6104df576040805162461bcd60e51b815260206004820181905260248201527f4f776e61626c653a2063616c6c6572206973206e6f7420746865206f776e6572604482015290519081900360640190fd5b6104e883610b57565b6104f182610b57565b600080546001600160a01b038085166001600160a01b0319928316179092556005805486841692169190911790819055600483815560408051630974f55960e41b8152905161059494939093169263974f559092828101926020929190829003018186803b15801561056257600080fd5b505afa158015610576573d6000803e3d6000fd5b505050506040513d602081101561058c57600080fd5b505182610c0a565b604080516001600160a01b038516815290517f2ac6e99201ddc1b6eac6f8f28662d1ecafee131f6eb98c29de54528a9888a7d19181900360200190a1604080516001600160a01b038416815290517f15cb6984f76cb781da2b25c2024a3eaf5011914976381f844e09724cc9e21e949181900360200190a1610614610d08565b505050565b6001600160a01b031660009081526002602052604090205490565b60075481565b600061064842600654610d52565b905090565b6000546001600160a01b031681565b600a6020526000908152604090205481565b6003546001600160a01b031690565b6003546001600160a01b0316331490565b600081116106d4576040805162461bcd60e51b815260206004820152600e60248201526d043616e6e6f74207374616b6520360941b604482015290519081900360640190fd5b6000546001600160a01b031661071b5760405162461bcd60e51b81526004018080602001828103825260288152602001806112656028913960400191505060405180910390fd5b610723610d68565b61072c33610aa4565b61073581610dac565b60408051828152905133917f9e71bc8eea02a63969f509818f2dafb9254532904319f9dbda79b67bd34a5f3d919081900360200190a250565b6000546001600160a01b03166107b55760405162461bcd60e51b81526004018080602001828103825260288152602001806112656028913960400191505060405180910390fd5b6107bd610d68565b6107c633610aa4565b60006107d1336102f7565b90506000811161081b576040805162461bcd60e51b815260206004820152601060248201526f4e6f7468696e6720746f20636c61696d60801b604482015290519081900360640190fd5b336000818152600b60209081526040808320839055600554815163a9059cbb60e01b815260048101959095526024850186905290516001600160a01b039091169363a9059cbb9360448083019493928390030190829087803b15801561088057600080fd5b505af1158015610894573d6000803e3d6000fd5b505050506040513d60208110156108aa57600080fd5b505060408051828152905133917fe2403640ba68fed3a2f88b7557551d1993f84b99bb10ff833f0cf8db0c5e0486919081900360200190a250565b60085481565b60006108f5610395565b6109025750600954610399565b610648610930610910610395565b61035f670de0b6b3a764000061035360075461035360085461033e61063a565b6009549063ffffffff610a4a16565b61095061094b33610619565b6103ab565b61095861076e565b565b60095481565b60065481565b60006109a883836040518060400160405280601e81526020017f536166654d6174683a207375627472616374696f6e206f766572666c6f770000815250610e0e565b9392505050565b6000826109be57506000610377565b828202828482816109cb57fe5b04146109a85760405162461bcd60e51b81526004018080602001828103825260218152602001806112b36021913960400191505060405180910390fd5b60006109a883836040518060400160405280601a81526020017f536166654d6174683a206469766973696f6e206279207a65726f000000000000815250610ea5565b6000828201838110156109a8576040805162461bcd60e51b815260206004820152601b60248201527f536166654d6174683a206164646974696f6e206f766572666c6f770000000000604482015290519081900360640190fd5b610aac610f0a565b6001600160a01b038116610abc57fe5b610ac5816102f7565b6001600160a01b039091166000908152600b6020908152604080832093909355600954600a90915291902055565b600154610b06908263ffffffff61096616565b60015533600090815260026020526040902054610b29908263ffffffff61096616565b336000818152600260205260408120929092559054610b54916001600160a01b039091169083610f22565b50565b6001600160a01b038116610bb2576040805162461bcd60e51b815260206004820152601e60248201527f4163636f756e742063616e6e6f74206265207a65726f20616464726573730000604482015290519081900360640190fd5b803b80610c06576040805162461bcd60e51b815260206004820181905260248201527f4163636f756e7420636f64652073697a652063616e6e6f74206265207a65726f604482015290519081900360640190fd5b5050565b60008211610c1457fe5b600554604080516370a0823160e01b815230600482015290516001600160a01b03909216916370a0823191602480820192602092909190829003018186803b158015610c5f57600080fd5b505afa158015610c73573d6000803e3d6000fd5b505050506040513d6020811015610c8957600080fd5b50518214610c9357fe5b60065415610c9d57fe5b610ca5610f0a565b610cb5828263ffffffff610a0816565b600755426008819055610cce908263ffffffff610a4a16565b6006556040805183815290517fde88a922e0d3b88b24e9623efeb464919c6bf9f66857a65e2bfcf2ce87a9433d9181900360200190a15050565b6003546040516000916001600160a01b0316907f8be0079c531659141344cd1fd0a4f28419497f9722a3daafe3b4186f6b6457e0908390a3600380546001600160a01b0319169055565b6000818310610d6157816109a8565b5090919050565b610d70610395565b61095857600060065411610d8057fe5b610da7610d986008544261096690919063ffffffff16565b6006549063ffffffff610a4a16565b600655565b600154610dbf908263ffffffff610a4a16565b60015533600090815260026020526040902054610de2908263ffffffff610a4a16565b336000818152600260205260408120929092559054610b54916001600160a01b03909116903084610f74565b60008184841115610e9d5760405162461bcd60e51b81526004018080602001828103825283818151815260200191508051906020019080838360005b83811015610e62578181015183820152602001610e4a565b50505050905090810190601f168015610e8f5780820380516001836020036101000a031916815260200191505b509250505060405180910390fd5b505050900390565b60008183610ef45760405162461bcd60e51b8152602060048201818152835160248401528351909283926044909101919085019080838360008315610e62578181015183820152602001610e4a565b506000838581610f0057fe5b0495945050505050565b610f126108eb565b600955610f1d61063a565b600855565b604080516001600160a01b038416602482015260448082018490528251808303909101815260649091019091526020810180516001600160e01b031663a9059cbb60e01b179052610614908490610fd4565b604080516001600160a01b0380861660248301528416604482015260648082018490528251808303909101815260849091019091526020810180516001600160e01b03166323b872dd60e01b179052610fce908590610fd4565b50505050565b6060611029826040518060400160405280602081526020017f5361666545524332303a206c6f772d6c6576656c2063616c6c206661696c6564815250856001600160a01b03166110859092919063ffffffff16565b8051909150156106145780806020019051602081101561104857600080fd5b50516106145760405162461bcd60e51b815260040180806020018281038252602a8152602001806112d4602a913960400191505060405180910390fd5b6060611094848460008561109c565b949350505050565b6060824710156110dd5760405162461bcd60e51b815260040180806020018281038252602681526020018061128d6026913960400191505060405180910390fd5b6110e6856111f8565b611137576040805162461bcd60e51b815260206004820152601d60248201527f416464726573733a2063616c6c20746f206e6f6e2d636f6e7472616374000000604482015290519081900360640190fd5b60006060866001600160a01b031685876040518082805190602001908083835b602083106111765780518252601f199092019160209182019101611157565b6001836020036101000a03801982511681845116808217855250505050505090500191505060006040518083038185875af1925050503d80600081146111d8576040519150601f19603f3d011682016040523d82523d6000602084013e6111dd565b606091505b50915091506111ed8282866111fe565b979650505050505050565b3b151590565b6060831561120d5750816109a8565b82511561121d5782518084602001fd5b60405162461bcd60e51b8152602060048201818152845160248401528451859391928392604401919085019080838360008315610e62578181015183820152602001610e4a56fe4c6971756469747920506f6f6c20546f6b656e20686173206e6f74206265656e2073657420796574416464726573733a20696e73756666696369656e742062616c616e636520666f722063616c6c536166654d6174683a206d756c7469706c69636174696f6e206f766572666c6f775361666545524332303a204552433230206f7065726174696f6e20646964206e6f742073756363656564a26469706673582212206548d4b834690cbf4736dee18eba5728744f27e2342bfdfad0747c5c248df41f64736f6c634300060b0033",
  "linkReferences": {},
  "deployedLinkReferences": {}
}