{
  "contractName": "ActivePool",
  "abi": [
    {
      "inputs": [],
      "payable": false,
      "stateMutability": "nonpayable",
      "type": "constructor"
    },
    {
      "anonymous": false,
      "inputs": [
        {
          "indexed": false,
          "internalType": "address",
          "name": "_newActivePoolAddress",
          "type": "address"
        }
      ],
      "name": "ActivePoolAddressChanged",
      "type": "event"
    },
    {
      "anonymous": false,
      "inputs": [
        {
          "indexed": false,
          "internalType": "uint256",
          "name": "_newBalance",
          "type": "uint256"
        }
      ],
      "name": "CLVBalanceUpdated",
      "type": "event"
    },
    {
      "anonymous": false,
      "inputs": [
        {
          "indexed": false,
          "internalType": "address",
          "name": "_newDefaultPoolAddress",
          "type": "address"
        }
      ],
      "name": "DefaultPoolAddressChanged",
      "type": "event"
    },
    {
      "anonymous": false,
      "inputs": [
        {
          "indexed": false,
          "internalType": "uint256",
          "name": "_newBalance",
          "type": "uint256"
        }
      ],
      "name": "ETHBalanceUpdated",
      "type": "event"
    },
    {
      "anonymous": false,
      "inputs": [
        {
          "indexed": false,
          "internalType": "address",
          "name": "_to",
          "type": "address"
        },
        {
          "indexed": false,
          "internalType": "uint256",
          "name": "_amount",
          "type": "uint256"
        }
      ],
      "name": "EtherSent",
      "type": "event"
    },
    {
      "anonymous": false,
      "inputs": [
        {
          "indexed": true,
          "internalType": "address",
          "name": "previousOwner",
          "type": "address"
        },
        {
          "indexed": true,
          "internalType": "address",
          "name": "newOwner",
          "type": "address"
        }
      ],
      "name": "OwnershipTransferred",
      "type": "event"
    },
    {
      "anonymous": false,
      "inputs": [
        {
          "indexed": false,
          "internalType": "address",
          "name": "_newAddress",
          "type": "address"
        }
      ],
      "name": "PoolManagerAddressChanged",
      "type": "event"
    },
    {
      "anonymous": false,
      "inputs": [
        {
          "indexed": false,
          "internalType": "address",
          "name": "_newStabilityPoolAddress",
          "type": "address"
        }
      ],
      "name": "StabilityPoolAddressChanged",
      "type": "event"
    },
    {
      "payable": true,
      "stateMutability": "payable",
      "type": "fallback"
    },
    {
      "constant": true,
      "inputs": [],
      "name": "CLV",
      "outputs": [
        {
          "internalType": "uint256",
          "name": "",
          "type": "uint256"
        }
      ],
      "payable": false,
      "stateMutability": "view",
      "type": "function"
    },
    {
      "constant": true,
      "inputs": [],
      "name": "ETH",
      "outputs": [
        {
          "internalType": "uint256",
          "name": "",
          "type": "uint256"
        }
      ],
      "payable": false,
      "stateMutability": "view",
      "type": "function"
    },
    {
      "constant": true,
      "inputs": [],
      "name": "defaultPoolAddress",
      "outputs": [
        {
          "internalType": "address",
          "name": "",
          "type": "address"
        }
      ],
      "payable": false,
      "stateMutability": "view",
      "type": "function"
    },
    {
      "constant": true,
      "inputs": [],
      "name": "isOwner",
      "outputs": [
        {
          "internalType": "bool",
          "name": "",
          "type": "bool"
        }
      ],
      "payable": false,
      "stateMutability": "view",
      "type": "function"
    },
    {
      "constant": true,
      "inputs": [],
      "name": "owner",
      "outputs": [
        {
          "internalType": "address",
          "name": "",
          "type": "address"
        }
      ],
      "payable": false,
      "stateMutability": "view",
      "type": "function"
    },
    {
      "constant": true,
      "inputs": [],
      "name": "poolManagerAddress",
      "outputs": [
        {
          "internalType": "address",
          "name": "",
          "type": "address"
        }
      ],
      "payable": false,
      "stateMutability": "view",
      "type": "function"
    },
    {
      "constant": false,
      "inputs": [],
      "name": "renounceOwnership",
      "outputs": [],
      "payable": false,
      "stateMutability": "nonpayable",
      "type": "function"
    },
    {
      "constant": true,
      "inputs": [],
      "name": "stabilityPoolAddress",
      "outputs": [
        {
          "internalType": "address",
          "name": "",
          "type": "address"
        }
      ],
      "payable": false,
      "stateMutability": "view",
      "type": "function"
    },
    {
      "constant": false,
      "inputs": [
        {
          "internalType": "address",
          "name": "newOwner",
          "type": "address"
        }
      ],
      "name": "transferOwnership",
      "outputs": [],
      "payable": false,
      "stateMutability": "nonpayable",
      "type": "function"
    },
    {
      "constant": false,
      "inputs": [
        {
          "internalType": "address",
          "name": "_poolManagerAddress",
          "type": "address"
        }
      ],
      "name": "setPoolManagerAddress",
      "outputs": [],
      "payable": false,
      "stateMutability": "nonpayable",
      "type": "function"
    },
    {
      "constant": false,
      "inputs": [
        {
          "internalType": "address",
          "name": "_defaultPoolAddress",
          "type": "address"
        }
      ],
      "name": "setDefaultPoolAddress",
      "outputs": [],
      "payable": false,
      "stateMutability": "nonpayable",
      "type": "function"
    },
    {
      "constant": false,
      "inputs": [
        {
          "internalType": "address",
          "name": "_stabilityPoolAddress",
          "type": "address"
        }
      ],
      "name": "setStabilityPoolAddress",
      "outputs": [],
      "payable": false,
      "stateMutability": "nonpayable",
      "type": "function"
    },
    {
      "constant": true,
      "inputs": [],
      "name": "getETH",
      "outputs": [
        {
          "internalType": "uint256",
          "name": "",
          "type": "uint256"
        }
      ],
      "payable": false,
      "stateMutability": "view",
      "type": "function"
    },
    {
      "constant": true,
      "inputs": [],
      "name": "getCLV",
      "outputs": [
        {
          "internalType": "uint256",
          "name": "",
          "type": "uint256"
        }
      ],
      "payable": false,
      "stateMutability": "view",
      "type": "function"
    },
    {
      "constant": false,
      "inputs": [
        {
          "internalType": "address",
          "name": "_account",
          "type": "address"
        },
        {
          "internalType": "uint256",
          "name": "_amount",
          "type": "uint256"
        }
      ],
      "name": "sendETH",
      "outputs": [
        {
          "internalType": "bool",
          "name": "",
          "type": "bool"
        }
      ],
      "payable": false,
      "stateMutability": "nonpayable",
      "type": "function"
    },
    {
      "constant": false,
      "inputs": [
        {
          "internalType": "uint256",
          "name": "_amount",
          "type": "uint256"
        }
      ],
      "name": "increaseCLV",
      "outputs": [],
      "payable": false,
      "stateMutability": "nonpayable",
      "type": "function"
    },
    {
      "constant": false,
      "inputs": [
        {
          "internalType": "uint256",
          "name": "_amount",
          "type": "uint256"
        }
      ],
      "name": "decreaseCLV",
      "outputs": [],
      "payable": false,
      "stateMutability": "nonpayable",
      "type": "function"
    },
    {
      "constant": true,
      "inputs": [],
      "name": "getRawETHBalance",
      "outputs": [
        {
          "internalType": "uint256",
          "name": "",
          "type": "uint256"
        }
      ],
      "payable": false,
      "stateMutability": "view",
      "type": "function"
    }
  ],
  "bytecode": "0x608060405234801561001057600080fd5b5060006100246001600160e01b0361007316565b600080546001600160a01b0319166001600160a01b0383169081178255604051929350917f8be0079c531659141344cd1fd0a4f28419497f9722a3daafe3b4186f6b6457e0908290a350610077565b3390565b610ce5806100866000396000f3fe6080604052600436106101295760003560e01c80638f32d59b116100a5578063ad09d65811610074578063e6a13f3011610059578063e6a13f30146103f6578063e9c839571461040b578063f2fde38b1461043557610129565b8063ad09d658146103ae578063e1cf19c1146103e157610129565b80638f32d59b1461031e5780639822339d14610333578063aac1846f14610366578063ab95b1a21461037b57610129565b806364a197f3116100fc578063715018a6116100e1578063715018a6146102df5780638322fff2146102f45780638da5cb5b1461030957610129565b806364a197f31461027d57806366416219146102ca57610129565b80630617edb4146101e45780630b622ab21461020b57806314f6c3be1461023c5780634de7363114610251575b6001546001600160a01b031661013d610468565b6001600160a01b0316148061016c57506002546001600160a01b0316610161610468565b6001600160a01b0316145b8061019157506003546001600160a01b0316610186610468565b6001600160a01b0316145b6101cc5760405162461bcd60e51b8152600401808060200182810382526035815260200180610c7c6035913960400191505060405180910390fd5b6004546101df903463ffffffff61046c16565b600455005b3480156101f057600080fd5b506101f96104cd565b60408051918252519081900360200190f35b34801561021757600080fd5b506102206104d1565b604080516001600160a01b039092168252519081900360200190f35b34801561024857600080fd5b506101f96104e0565b34801561025d57600080fd5b5061027b6004803603602081101561027457600080fd5b50356104e6565b005b34801561028957600080fd5b506102b6600480360360408110156102a057600080fd5b506001600160a01b038135169060200135610558565b604080519115158252519081900360200190f35b3480156102d657600080fd5b506101f96106c4565b3480156102eb57600080fd5b5061027b6106ca565b34801561030057600080fd5b506101f961076d565b34801561031557600080fd5b50610220610773565b34801561032a57600080fd5b506102b6610782565b34801561033f57600080fd5b5061027b6004803603602081101561035657600080fd5b50356001600160a01b03166107a6565b34801561037257600080fd5b50610220610859565b34801561038757600080fd5b5061027b6004803603602081101561039e57600080fd5b50356001600160a01b0316610868565b3480156103ba57600080fd5b5061027b600480360360208110156103d157600080fd5b50356001600160a01b0316610915565b3480156103ed57600080fd5b506101f96109c8565b34801561040257600080fd5b506102206109ce565b34801561041757600080fd5b5061027b6004803603602081101561042e57600080fd5b50356109dd565b34801561044157600080fd5b5061027b6004803603602081101561045857600080fd5b50356001600160a01b0316610a49565b3390565b6000828201838110156104c6576040805162461bcd60e51b815260206004820152601b60248201527f536166654d6174683a206164646974696f6e206f766572666c6f770000000000604482015290519081900360640190fd5b9392505050565b4790565b6002546001600160a01b031681565b60045490565b6001546001600160a01b03166104fa610468565b6001600160a01b03161461053f5760405162461bcd60e51b815260040180806020018281038252602e815260200180610c28602e913960400191505060405180910390fd5b600554610552908263ffffffff61046c16565b60055550565b6001546000906001600160a01b031661056f610468565b6001600160a01b0316146105b45760405162461bcd60e51b815260040180806020018281038252602e815260200180610c28602e913960400191505060405180910390fd5b6004546105c7908363ffffffff610aae16565b6004556040516000906001600160a01b0385169084908381818185875af1925050503d8060008114610615576040519150601f19603f3d011682016040523d82523d6000602084013e61061a565b606091505b5090915050600181151514610676576040805162461bcd60e51b815260206004820181905260248201527f416374697665506f6f6c3a207472616e73616374696f6e207265766572746564604482015290519081900360640190fd5b604080516001600160a01b03861681526020810185905281517f6109e2559dfa766aaec7118351d48a523f0a4157f49c8d68749c8ac41318ad12929181900390910190a15060019392505050565b60055481565b6106d2610782565b610723576040805162461bcd60e51b815260206004820181905260248201527f4f776e61626c653a2063616c6c6572206973206e6f7420746865206f776e6572604482015290519081900360640190fd5b600080546040516001600160a01b03909116907f8be0079c531659141344cd1fd0a4f28419497f9722a3daafe3b4186f6b6457e0908390a3600080546001600160a01b0319169055565b60045481565b6000546001600160a01b031690565b600080546001600160a01b0316610797610468565b6001600160a01b031614905090565b6107ae610782565b6107ff576040805162461bcd60e51b815260206004820181905260248201527f4f776e61626c653a2063616c6c6572206973206e6f7420746865206f776e6572604482015290519081900360640190fd5b600380546001600160a01b0319166001600160a01b03838116919091179182905560408051929091168252517f5ee0cae2f063ed938bb55046f6a932fb6ae792bf43624806bb90abe68a50be9b916020908290030190a150565b6003546001600160a01b031681565b610870610782565b6108c1576040805162461bcd60e51b815260206004820181905260248201527f4f776e61626c653a2063616c6c6572206973206e6f7420746865206f776e6572604482015290519081900360640190fd5b600180546001600160a01b0383166001600160a01b0319909116811790915560408051918252517f4d839b74477afe774fbb734df87db25e56c0427973aac588bb3ce7ce937f88509181900360200190a150565b61091d610782565b61096e576040805162461bcd60e51b815260206004820181905260248201527f4f776e61626c653a2063616c6c6572206973206e6f7420746865206f776e6572604482015290519081900360640190fd5b600280546001600160a01b0319166001600160a01b03838116919091179182905560408051929091168252517f82966d27eea39b038ee0fa30cd16532bb24f6e65d31cb58fb227aa5766cdcc7f916020908290030190a150565b60055490565b6001546001600160a01b031681565b6001546001600160a01b03166109f1610468565b6001600160a01b031614610a365760405162461bcd60e51b815260040180806020018281038252602e815260200180610c28602e913960400191505060405180910390fd5b600554610552908263ffffffff610aae16565b610a51610782565b610aa2576040805162461bcd60e51b815260206004820181905260248201527f4f776e61626c653a2063616c6c6572206973206e6f7420746865206f776e6572604482015290519081900360640190fd5b610aab81610af0565b50565b60006104c683836040518060400160405280601e81526020017f536166654d6174683a207375627472616374696f6e206f766572666c6f770000815250610b90565b6001600160a01b038116610b355760405162461bcd60e51b8152600401808060200182810382526026815260200180610c566026913960400191505060405180910390fd5b600080546040516001600160a01b03808516939216917f8be0079c531659141344cd1fd0a4f28419497f9722a3daafe3b4186f6b6457e091a3600080546001600160a01b0319166001600160a01b0392909216919091179055565b60008184841115610c1f5760405162461bcd60e51b81526004018080602001828103825283818151815260200191508051906020019080838360005b83811015610be4578181015183820152602001610bcc565b50505050905090810190601f168015610c115780820380516001836020036101000a031916815260200191505b509250505060405180910390fd5b50505090039056fe416374697665506f6f6c3a204f6e6c792074686520706f6f6c4d616e6167657220697320617574686f72697a65644f776e61626c653a206e6577206f776e657220697320746865207a65726f2061646472657373416374697665506f6f6c3a206f6e6c792072656365697665204554482066726f6d20506f6f6c206f7220506f6f6c4d616e61676572a265627a7a72315820ab4551442792fbae1c736ea2d6b1e500a5a135b6c92f92e63ccbfa1b96c5739564736f6c63430005100032",
  "source": "pragma solidity ^0.5.16;\r\n\r\nimport './Interfaces/IPool.sol';\r\n// import '@openzeppelin/contracts/ownership/Ownable.sol';\r\n// import '@openzeppelin/contracts/math/SafeMath.sol';\r\n// import \"@nomiclabs/buidler/console.sol\";\r\nimport \"./SafeMath.sol\";\r\nimport \"./Ownable.sol\";\r\nimport \"./console.sol\";\r\n\r\ncontract ActivePool is Ownable, IPool {\r\n    using SafeMath for uint256;\r\n\r\n    address public poolManagerAddress;\r\n    address public stabilityPoolAddress;\r\n    address public defaultPoolAddress;\r\n    uint256 public ETH;  // deposited ether tracker\r\n    uint256 public CLV;  // total outstanding CDP debt\r\n\r\n    constructor() public {}\r\n\r\n    // --- Contract setters ---\r\n\r\n    function setPoolManagerAddress(address _poolManagerAddress) public onlyOwner {\r\n        poolManagerAddress = _poolManagerAddress;\r\n        emit PoolManagerAddressChanged(_poolManagerAddress);\r\n    }\r\n\r\n    function setDefaultPoolAddress(address _defaultPoolAddress) public onlyOwner {\r\n        defaultPoolAddress = _defaultPoolAddress; \r\n        emit DefaultPoolAddressChanged(defaultPoolAddress);\r\n    }\r\n\r\n    function setStabilityPoolAddress(address _stabilityPoolAddress) public onlyOwner {\r\n        stabilityPoolAddress = _stabilityPoolAddress;\r\n        emit StabilityPoolAddressChanged(stabilityPoolAddress);\r\n    }\r\n\r\n    // --- Getters for public variables. Required by IPool interface ---\r\n\r\n    function getETH() public view returns(uint) {\r\n        return ETH;\r\n    }\r\n\r\n    function getCLV() public view returns(uint) {\r\n        return CLV;\r\n    }\r\n\r\n    // --- Pool functionality ---\r\n\r\n    function sendETH(address _account, uint _amount) public onlyPoolManager returns(bool) {\r\n        ETH = ETH.sub(_amount);  \r\n        (bool success, ) = _account.call.value(_amount)(\"\"); //  use call.value()('') as per Consensys latest advice \r\n        require (success == true, 'ActivePool: transaction reverted'); \r\n       \r\n        emit EtherSent(_account, _amount);  \r\n        return true;\r\n    }\r\n\r\n    function increaseCLV(uint _amount) public onlyPoolManager () {\r\n        CLV  = CLV.add(_amount); \r\n    }\r\n\r\n    function decreaseCLV(uint _amount) public onlyPoolManager () {\r\n        CLV = CLV.sub(_amount); \r\n    }\r\n\r\n    /* Returns the raw ether balance at ActivePool address.  \r\n    Not necessarily equal to the ETH state variable - ether can be forcibly sent to contracts. */\r\n    function getRawETHBalance() public view returns(uint) {\r\n        return address(this).balance;\r\n    }\r\n\r\n    // --- Modifiers ---\r\n    modifier onlyPoolManager {\r\n        require(_msgSender() == poolManagerAddress, \"ActivePool: Only the poolManager is authorized\");\r\n        _;\r\n    }\r\n\r\n    modifier onlyPoolManagerOrPool {\r\n        require(\r\n            _msgSender() == poolManagerAddress || \r\n            _msgSender() == stabilityPoolAddress || \r\n            _msgSender() == defaultPoolAddress, \r\n            \"ActivePool: only receive ETH from Pool or PoolManager\");\r\n        _;\r\n    }\r\n\r\n    function () external payable onlyPoolManagerOrPool {\r\n        ETH = ETH.add(msg.value);\r\n    }\r\n}\r\n",
  "sourcePath": "/home/training/contracts/ActivePool.sol",
  "compiler": {
    "name": "solc",
    "version": "0.5.16+commit.9c3226ce.Emscripten.clang"
  },
  "schemaVersion": "3.1.0",
  "updatedAt": "2020-06-03T00:09:09.593Z",
  "devdoc": {
    "methods": {
      "isOwner()": {
        "details": "Returns true if the caller is the current owner."
      },
      "owner()": {
        "details": "Returns the address of the current owner."
      },
      "renounceOwnership()": {
        "details": "Leaves the contract without owner. It will not be possible to call `onlyOwner` functions anymore. Can only be called by the current owner.     * NOTE: Renouncing ownership will leave the contract without an owner, thereby removing any functionality that is only available to the owner."
      },
      "transferOwnership(address)": {
        "details": "Transfers ownership of the contract to a new account (`newOwner`). Can only be called by the current owner."
      }
    }
  },
  "userdoc": {
    "methods": {}
  }
}