{
  "contractName": "BorrowerOperations",
  "abi": [
    {
      "anonymous": false,
      "inputs": [
        {
          "indexed": false,
          "internalType": "address",
          "name": "_activePoolAddress",
          "type": "address"
        }
      ],
      "name": "ActivePoolAddressChanged",
      "type": "event"
    },
    {
      "anonymous": false,
      "inputs": [
        {
          "indexed": true,
          "internalType": "address",
          "name": "_user",
          "type": "address"
        },
        {
          "indexed": false,
          "internalType": "uint256",
          "name": "arrayIndex",
          "type": "uint256"
        }
      ],
      "name": "CDPCreated",
      "type": "event"
    },
    {
      "anonymous": false,
      "inputs": [
        {
          "indexed": false,
          "internalType": "address",
          "name": "_newCDPManagerAddress",
          "type": "address"
        }
      ],
      "name": "CDPManagerAddressChanged",
      "type": "event"
    },
    {
      "anonymous": false,
      "inputs": [
        {
          "indexed": true,
          "internalType": "address",
          "name": "_user",
          "type": "address"
        },
        {
          "indexed": false,
          "internalType": "uint256",
          "name": "_debt",
          "type": "uint256"
        },
        {
          "indexed": false,
          "internalType": "uint256",
          "name": "_coll",
          "type": "uint256"
        },
        {
          "indexed": false,
          "internalType": "uint256",
          "name": "stake",
          "type": "uint256"
        }
      ],
      "name": "CDPUpdated",
      "type": "event"
    },
    {
      "anonymous": false,
      "inputs": [
        {
          "indexed": false,
          "internalType": "address",
          "name": "_defaultPoolAddress",
          "type": "address"
        }
      ],
      "name": "DefaultPoolAddressChanged",
      "type": "event"
    },
    {
      "anonymous": false,
      "inputs": [
        {
          "indexed": true,
          "internalType": "address",
          "name": "previousOwner",
          "type": "address"
        },
        {
          "indexed": true,
          "internalType": "address",
          "name": "newOwner",
          "type": "address"
        }
      ],
      "name": "OwnershipTransferred",
      "type": "event"
    },
    {
      "anonymous": false,
      "inputs": [
        {
          "indexed": false,
          "internalType": "address",
          "name": "_newPoolManagerAddress",
          "type": "address"
        }
      ],
      "name": "PoolManagerAddressChanged",
      "type": "event"
    },
    {
      "anonymous": false,
      "inputs": [
        {
          "indexed": false,
          "internalType": "address",
          "name": "_newPriceFeedAddress",
          "type": "address"
        }
      ],
      "name": "PriceFeedAddressChanged",
      "type": "event"
    },
    {
      "anonymous": false,
      "inputs": [
        {
          "indexed": false,
          "internalType": "address",
          "name": "_sortedCDPsAddress",
          "type": "address"
        }
      ],
      "name": "SortedCDPsAddressChanged",
      "type": "event"
    },
    {
      "constant": true,
      "inputs": [],
      "name": "CCR",
      "outputs": [
        {
          "internalType": "uint256",
          "name": "",
          "type": "uint256"
        }
      ],
      "payable": false,
      "stateMutability": "view",
      "type": "function"
    },
    {
      "constant": true,
      "inputs": [],
      "name": "MCR",
      "outputs": [
        {
          "internalType": "uint256",
          "name": "",
          "type": "uint256"
        }
      ],
      "payable": false,
      "stateMutability": "view",
      "type": "function"
    },
    {
      "constant": true,
      "inputs": [],
      "name": "MIN_COLL_IN_USD",
      "outputs": [
        {
          "internalType": "uint256",
          "name": "",
          "type": "uint256"
        }
      ],
      "payable": false,
      "stateMutability": "view",
      "type": "function"
    },
    {
      "constant": true,
      "inputs": [],
      "name": "activePoolAddress",
      "outputs": [
        {
          "internalType": "address",
          "name": "",
          "type": "address"
        }
      ],
      "payable": false,
      "stateMutability": "view",
      "type": "function"
    },
    {
      "constant": true,
      "inputs": [],
      "name": "cdpManagerAddress",
      "outputs": [
        {
          "internalType": "address",
          "name": "",
          "type": "address"
        }
      ],
      "payable": false,
      "stateMutability": "view",
      "type": "function"
    },
    {
      "constant": true,
      "inputs": [],
      "name": "defaultPoolAddress",
      "outputs": [
        {
          "internalType": "address",
          "name": "",
          "type": "address"
        }
      ],
      "payable": false,
      "stateMutability": "view",
      "type": "function"
    },
    {
      "constant": true,
      "inputs": [],
      "name": "isOwner",
      "outputs": [
        {
          "internalType": "bool",
          "name": "",
          "type": "bool"
        }
      ],
      "payable": false,
      "stateMutability": "view",
      "type": "function"
    },
    {
      "constant": true,
      "inputs": [],
      "name": "owner",
      "outputs": [
        {
          "internalType": "address",
          "name": "",
          "type": "address"
        }
      ],
      "payable": false,
      "stateMutability": "view",
      "type": "function"
    },
    {
      "constant": true,
      "inputs": [],
      "name": "poolManagerAddress",
      "outputs": [
        {
          "internalType": "address",
          "name": "",
          "type": "address"
        }
      ],
      "payable": false,
      "stateMutability": "view",
      "type": "function"
    },
    {
      "constant": true,
      "inputs": [],
      "name": "priceFeedAddress",
      "outputs": [
        {
          "internalType": "address",
          "name": "",
          "type": "address"
        }
      ],
      "payable": false,
      "stateMutability": "view",
      "type": "function"
    },
    {
      "constant": false,
      "inputs": [],
      "name": "renounceOwnership",
      "outputs": [],
      "payable": false,
      "stateMutability": "nonpayable",
      "type": "function"
    },
    {
      "constant": true,
      "inputs": [],
      "name": "sortedCDPsAddress",
      "outputs": [
        {
          "internalType": "address",
          "name": "",
          "type": "address"
        }
      ],
      "payable": false,
      "stateMutability": "view",
      "type": "function"
    },
    {
      "constant": false,
      "inputs": [
        {
          "internalType": "address",
          "name": "newOwner",
          "type": "address"
        }
      ],
      "name": "transferOwnership",
      "outputs": [],
      "payable": false,
      "stateMutability": "nonpayable",
      "type": "function"
    },
    {
      "constant": false,
      "inputs": [
        {
          "internalType": "address",
          "name": "_cdpManagerAddress",
          "type": "address"
        }
      ],
      "name": "setCDPManager",
      "outputs": [],
      "payable": false,
      "stateMutability": "nonpayable",
      "type": "function"
    },
    {
      "constant": false,
      "inputs": [
        {
          "internalType": "address",
          "name": "_poolManagerAddress",
          "type": "address"
        }
      ],
      "name": "setPoolManager",
      "outputs": [],
      "payable": false,
      "stateMutability": "nonpayable",
      "type": "function"
    },
    {
      "constant": false,
      "inputs": [
        {
          "internalType": "address",
          "name": "_activePoolAddress",
          "type": "address"
        }
      ],
      "name": "setActivePool",
      "outputs": [],
      "payable": false,
      "stateMutability": "nonpayable",
      "type": "function"
    },
    {
      "constant": false,
      "inputs": [
        {
          "internalType": "address",
          "name": "_defaultPoolAddress",
          "type": "address"
        }
      ],
      "name": "setDefaultPool",
      "outputs": [],
      "payable": false,
      "stateMutability": "nonpayable",
      "type": "function"
    },
    {
      "constant": false,
      "inputs": [
        {
          "internalType": "address",
          "name": "_priceFeedAddress",
          "type": "address"
        }
      ],
      "name": "setPriceFeed",
      "outputs": [],
      "payable": false,
      "stateMutability": "nonpayable",
      "type": "function"
    },
    {
      "constant": false,
      "inputs": [
        {
          "internalType": "address",
          "name": "_sortedCDPsAddress",
          "type": "address"
        }
      ],
      "name": "setSortedCDPs",
      "outputs": [],
      "payable": false,
      "stateMutability": "nonpayable",
      "type": "function"
    },
    {
      "constant": false,
      "inputs": [
        {
          "internalType": "uint256",
          "name": "_CLVAmount",
          "type": "uint256"
        },
        {
          "internalType": "address",
          "name": "_hint",
          "type": "address"
        }
      ],
      "name": "openLoan",
      "outputs": [
        {
          "internalType": "bool",
          "name": "",
          "type": "bool"
        }
      ],
      "payable": true,
      "stateMutability": "payable",
      "type": "function"
    },
    {
      "constant": false,
      "inputs": [
        {
          "internalType": "address",
          "name": "_user",
          "type": "address"
        },
        {
          "internalType": "address",
          "name": "_hint",
          "type": "address"
        }
      ],
      "name": "addColl",
      "outputs": [
        {
          "internalType": "bool",
          "name": "",
          "type": "bool"
        }
      ],
      "payable": true,
      "stateMutability": "payable",
      "type": "function"
    },
    {
      "constant": false,
      "inputs": [
        {
          "internalType": "uint256",
          "name": "_amount",
          "type": "uint256"
        },
        {
          "internalType": "address",
          "name": "_hint",
          "type": "address"
        }
      ],
      "name": "withdrawColl",
      "outputs": [
        {
          "internalType": "bool",
          "name": "",
          "type": "bool"
        }
      ],
      "payable": false,
      "stateMutability": "nonpayable",
      "type": "function"
    },
    {
      "constant": false,
      "inputs": [
        {
          "internalType": "uint256",
          "name": "_amount",
          "type": "uint256"
        },
        {
          "internalType": "address",
          "name": "_hint",
          "type": "address"
        }
      ],
      "name": "withdrawCLV",
      "outputs": [
        {
          "internalType": "bool",
          "name": "",
          "type": "bool"
        }
      ],
      "payable": false,
      "stateMutability": "nonpayable",
      "type": "function"
    },
    {
      "constant": false,
      "inputs": [
        {
          "internalType": "uint256",
          "name": "_amount",
          "type": "uint256"
        },
        {
          "internalType": "address",
          "name": "_hint",
          "type": "address"
        }
      ],
      "name": "repayCLV",
      "outputs": [
        {
          "internalType": "bool",
          "name": "",
          "type": "bool"
        }
      ],
      "payable": false,
      "stateMutability": "nonpayable",
      "type": "function"
    },
    {
      "constant": false,
      "inputs": [],
      "name": "closeLoan",
      "outputs": [
        {
          "internalType": "bool",
          "name": "",
          "type": "bool"
        }
      ],
      "payable": false,
      "stateMutability": "nonpayable",
      "type": "function"
    },
    {
      "constant": false,
      "inputs": [
        {
          "internalType": "uint256",
          "name": "_collWithdrawal",
          "type": "uint256"
        },
        {
          "internalType": "int256",
          "name": "_debtChange",
          "type": "int256"
        },
        {
          "internalType": "address",
          "name": "_hint",
          "type": "address"
        }
      ],
      "name": "adjustLoan",
      "outputs": [
        {
          "internalType": "bool",
          "name": "",
          "type": "bool"
        }
      ],
      "payable": true,
      "stateMutability": "payable",
      "type": "function"
    }
  ],
  "bytecode": "0x60806040526000620000196001600160e01b036200006916565b600080546001600160a01b0319166001600160a01b0383169081178255604051929350917f8be0079c531659141344cd1fd0a4f28419497f9722a3daafe3b4186f6b6457e0908290a3506200006d565b3390565b61468a806200007d6000396000f3fe6080604052600436106101a15760003560e01c8063a532483e116100e1578063c50404741161008a578063e6a13f3011610064578063e6a13f30146104e3578063f2fde38b146104f8578063f7883a8b1461052b578063f78b33881461055e576101a1565b8063c504047414610463578063d5ee93851461049c578063e0abca0b146104ce576101a1565b8063b1e9da1f116100bb578063b1e9da1f146103ef578063be32837014610404578063c254f69614610430576101a1565b8063a532483e1461038c578063aac1846f146103c5578063b08bc722146103da576101a1565b8063715018a61161014e5780637aef6715116101285780637aef6715146102fc5780638c192ed41461032f5780638da5cb5b146103625780638f32d59b14610377576101a1565b8063715018a61461029f578063724e78da146102b4578063794e5724146102e7576101a1565b80635733d58f1161017f5780635733d58f146102155780636828482d1461023c57806368647db114610271576101a1565b806302f6567f146101a6578063232fa733146101d75780634ecf572614610200575b600080fd5b3480156101b257600080fd5b506101bb610597565b604080516001600160a01b039092168252519081900360200190f35b3480156101e357600080fd5b506101ec6105a6565b604080519115158252519081900360200190f35b34801561020c57600080fd5b506101bb610a26565b34801561022157600080fd5b5061022a610a35565b60408051918252519081900360200190f35b34801561024857600080fd5b5061026f6004803603602081101561025f57600080fd5b50356001600160a01b0316610a41565b005b6101ec6004803603604081101561028757600080fd5b506001600160a01b0381358116916020013516610af9565b3480156102ab57600080fd5b5061026f6111b7565b3480156102c057600080fd5b5061026f600480360360208110156102d757600080fd5b50356001600160a01b031661125a565b3480156102f357600080fd5b5061022a61131a565b34801561030857600080fd5b5061026f6004803603602081101561031f57600080fd5b50356001600160a01b0316611326565b34801561033b57600080fd5b5061026f6004803603602081101561035257600080fd5b50356001600160a01b03166113de565b34801561036e57600080fd5b506101bb611496565b34801561038357600080fd5b506101ec6114a5565b34801561039857600080fd5b506101ec600480360360408110156103af57600080fd5b50803590602001356001600160a01b03166114c9565b3480156103d157600080fd5b506101bb611a06565b3480156103e657600080fd5b506101bb611a15565b3480156103fb57600080fd5b5061022a611a24565b6101ec6004803603604081101561041a57600080fd5b50803590602001356001600160a01b0316611a31565b34801561043c57600080fd5b5061026f6004803603602081101561045357600080fd5b50356001600160a01b0316612031565b34801561046f57600080fd5b506101ec6004803603604081101561048657600080fd5b50803590602001356001600160a01b03166120e9565b6101ec600480360360608110156104b257600080fd5b50803590602081013590604001356001600160a01b03166126b0565b3480156104da57600080fd5b506101bb612c38565b3480156104ef57600080fd5b506101bb612c47565b34801561050457600080fd5b5061026f6004803603602081101561051b57600080fd5b50356001600160a01b0316612c56565b34801561053757600080fd5b5061026f6004803603602081101561054e57600080fd5b50356001600160a01b0316612cbb565b34801561056a57600080fd5b506101ec6004803603604081101561058157600080fd5b50803590602001356001600160a01b0316612d73565b6002546001600160a01b031681565b6000806105b1613307565b60015460408051633f96e9dd60e01b81526001600160a01b03808516600483015291519394506000939190921691633f96e9dd916024808301926020929190829003018186803b15801561060457600080fd5b505afa158015610618573d6000803e3d6000fd5b505050506040513d602081101561062e57600080fd5b5051905061063b8161330b565b61064361334a565b60015460408051630b07655760e01b81526001600160a01b03858116600483015291519190921691630b0765579160248083019260209291908290030181600087803b15801561069257600080fd5b505af11580156106a6573d6000803e3d6000fd5b505050506040513d60208110156106bc57600080fd5b505060015460408051630b4a128160e11b81526001600160a01b03858116600483015291516000939290921691631694250291602480820192602092909190829003018186803b15801561070f57600080fd5b505afa158015610723573d6000803e3d6000fd5b505050506040513d602081101561073957600080fd5b50516001546040805163b3fd666160e01b81526001600160a01b0387811660048301529151939450600093919092169163b3fd6661916024808301926020929190829003018186803b15801561078e57600080fd5b505afa1580156107a2573d6000803e3d6000fd5b505050506040513d60208110156107b857600080fd5b5051600154604080517ffe2ba8480000000000000000000000000000000000000000000000000000000081526001600160a01b038881166004830152915193945091169163fe2ba848916024808201926020929091908290030181600087803b15801561082457600080fd5b505af1158015610838573d6000803e3d6000fd5b505050506040513d602081101561084e57600080fd5b50506001546040805162bf8d7f60e51b81526001600160a01b038781166004830152915191909216916317f1afe09160248083019260209291908290030181600087803b15801561089e57600080fd5b505af11580156108b2573d6000803e3d6000fd5b505050506040513d60208110156108c857600080fd5b50506003546040805163b96c518160e01b81526001600160a01b038781166004830152602482018590529151919092169163b96c51819160448083019260209291908290030181600087803b15801561092057600080fd5b505af1158015610934573d6000803e3d6000fd5b505050506040513d602081101561094a57600080fd5b505060035460408051637ab46ec760e11b81526001600160a01b038781166004830152602482018690529151919092169163f568dd8e9160448083019260209291908290030181600087803b1580156109a257600080fd5b505af11580156109b6573d6000803e3d6000fd5b505050506040513d60208110156109cc57600080fd5b5050604080516000808252602082018190528183015290516001600160a01b038616917f2089894292d66b85abed43c6f71beaa6404b56065da9b6ef3112fddf9c53d9ac919081900360600190a260019450505050505b90565b600c546001600160a01b031681565b6714d1120d7b16000081565b610a496114a5565b610a9a576040805162461bcd60e51b815260206004820181905260248201527f4f776e61626c653a2063616c6c6572206973206e6f7420746865206f776e6572604482015290519081900360640190fd5b600c80546001600160a01b0383166001600160a01b03199182168117909255600b80549091168217905560408051918252517f328bb7558e87ad9d5a9ba346a1e55a13c7998dd76b12ae08ee93a729ff23147a9181900360200190a150565b6000806000600960009054906101000a90046001600160a01b03166001600160a01b03166398d5fdca6040518163ffffffff1660e01b815260040160206040518083038186803b158015610b4c57600080fd5b505afa158015610b60573d6000803e3d6000fd5b505050506040513d6020811015610b7657600080fd5b505160015460408051633f96e9dd60e01b81526001600160a01b03898116600483015291519394506000939190921691633f96e9dd916024808301926020929190829003018186803b158015610bcb57600080fd5b505afa158015610bdf573d6000803e3d6000fd5b505050506040513d6020811015610bf557600080fd5b50519050801580610c065750806002145b15610c8657610c153483613390565b600180546040805163823a3be560e01b81526001600160a01b038a8116600483015260248201859052915193965091169163823a3be59160448082019260009290919082900301818387803b158015610c6d57600080fd5b505af1158015610c81573d6000803e3d6000fd5b505050505b60015460408051630b07655760e01b81526001600160a01b03898116600483015291519190921691630b0765579160248083019260209291908290030181600087803b158015610cd557600080fd5b505af1158015610ce9573d6000803e3d6000fd5b505050506040513d6020811015610cff57600080fd5b505060015460408051630729273760e21b81526001600160a01b03898116600483015234602483015291516000939290921691631ca49cdc9160448082019260209290919082900301818787803b158015610d5957600080fd5b505af1158015610d6d573d6000803e3d6000fd5b505050506040513d6020811015610d8357600080fd5b505160015460408051630c7940bd60e11b81526001600160a01b038b81166004830152915193945060009391909216916318f2817a91602480830192602092919082900301818787803b158015610dd957600080fd5b505af1158015610ded573d6000803e3d6000fd5b505050506040513d6020811015610e0357600080fd5b505160015460408051630d293c7160e41b81526001600160a01b038c81166004830152602482018990529151939450600093919092169163d293c710916044808301926020929190829003018186803b158015610e5f57600080fd5b505afa158015610e73573d6000803e3d6000fd5b505050506040513d6020811015610e8957600080fd5b505190508515610fdb57600b5460408051633a7bc51160e11b81526001600160a01b038c8116600483015260248201859052604482018990528b8116606483018190526084830152915191909216916374f78a229160a480830192600092919082900301818387803b158015610efe57600080fd5b505af1158015610f12573d6000803e3d6000fd5b5050600154604080516349e40df760e01b81526001600160a01b038e811660048301529151600095509190921692506349e40df79160248082019260209290919082900301818787803b158015610f6857600080fd5b505af1158015610f7c573d6000803e3d6000fd5b505050506040513d6020811015610f9257600080fd5b50516040805182815290519192506001600160a01b038c16917f9aae360b1167f55ad3b0cb0b44f33887cdbbffea820e0a955295af4a05fa31f49181900360200190a25061105d565b600b5460408051621d45b760e21b81526001600160a01b038c8116600483015260248201859052604482018990528b811660648301819052608483015291519190921691627516dc9160a480830192600092919082900301818387803b15801561104457600080fd5b505af1158015611058573d6000803e3d6000fd5b505050505b600360009054906101000a90046001600160a01b03166001600160a01b03166325a2e6e7346040518263ffffffff1660e01b81526004016020604051808303818588803b1580156110ad57600080fd5b505af11580156110c1573d6000803e3d6000fd5b50505050506040513d60208110156110d857600080fd5b50506001546040805163b3fd666160e01b81526001600160a01b038c811660048301529151600093929092169163b3fd666191602480820192602092909190829003018186803b15801561112b57600080fd5b505afa15801561113f573d6000803e3d6000fd5b505050506040513d602081101561115557600080fd5b5051604080518281526020810187905280820186905290519192506001600160a01b038c16917f2089894292d66b85abed43c6f71beaa6404b56065da9b6ef3112fddf9c53d9ac9181900360600190a260019750505050505050505b92915050565b6111bf6114a5565b611210576040805162461bcd60e51b815260206004820181905260248201527f4f776e61626c653a2063616c6c6572206973206e6f7420746865206f776e6572604482015290519081900360640190fd5b600080546040516001600160a01b03909116907f8be0079c531659141344cd1fd0a4f28419497f9722a3daafe3b4186f6b6457e0908390a3600080546001600160a01b0319169055565b6112626114a5565b6112b3576040805162461bcd60e51b815260206004820181905260248201527f4f776e61626c653a2063616c6c6572206973206e6f7420746865206f776e6572604482015290519081900360640190fd5b600a80546001600160a01b038084166001600160a01b0319928316811793849055600980549093169390911692909217905560408051918252517f8c537274438aa850a330284665d81a85dd38267d09e4050d416bfc94142db2649181900360200190a150565b670f43fc2c04ee000081565b61132e6114a5565b61137f576040805162461bcd60e51b815260206004820181905260248201527f4f776e61626c653a2063616c6c6572206973206e6f7420746865206f776e6572604482015290519081900360640190fd5b600480546001600160a01b0383166001600160a01b03199182168117909255600380549091168217905560408051918252517f4d839b74477afe774fbb734df87db25e56c0427973aac588bb3ce7ce937f88509181900360200190a150565b6113e66114a5565b611437576040805162461bcd60e51b815260206004820181905260248201527f4f776e61626c653a2063616c6c6572206973206e6f7420746865206f776e6572604482015290519081900360640190fd5b600880546001600160a01b0383166001600160a01b03199182168117909255600780549091168217905560408051918252517f5ee0cae2f063ed938bb55046f6a932fb6ae792bf43624806bb90abe68a50be9b9181900360200190a150565b6000546001600160a01b031690565b600080546001600160a01b03166114ba613307565b6001600160a01b031614905090565b6000806114d4613307565b60015460408051633f96e9dd60e01b81526001600160a01b03808516600483015291519394506000939190921691633f96e9dd916024808301926020929190829003018186803b15801561152757600080fd5b505afa15801561153b573d6000803e3d6000fd5b505050506040513d602081101561155157600080fd5b5051905061155e8161330b565b611567856133e5565b61156f61334a565b60095460408051634c6afee560e11b815290516000926001600160a01b0316916398d5fdca916004808301926020929190829003018186803b1580156115b457600080fd5b505afa1580156115c8573d6000803e3d6000fd5b505050506040513d60208110156115de57600080fd5b505160015460408051630b07655760e01b81526001600160a01b0387811660048301529151939450911691630b076557916024808201926020929091908290030181600087803b15801561163157600080fd5b505af1158015611645573d6000803e3d6000fd5b505050506040513d602081101561165b57600080fd5b505060015460408051630b4a128160e11b81526001600160a01b03868116600483015291516000939290921691631694250291602480820192602092909190829003018186803b1580156116ae57600080fd5b505afa1580156116c2573d6000803e3d6000fd5b505050506040513d60208110156116d857600080fd5b50516001546040805163b3fd666160e01b81526001600160a01b0388811660048301529151939450600093919092169163b3fd6661916024808301926020929190829003018186803b15801561172d57600080fd5b505afa158015611741573d6000803e3d6000fd5b505050506040513d602081101561175757600080fd5b50519050600061176a8383838c88613424565b9050611775816134da565b61178160008a86613521565b6001546040805163ab8e5b2f60e01b81526001600160a01b038981166004830152602482018d90529151600093929092169163ab8e5b2f9160448082019260209290919082900301818787803b1580156117da57600080fd5b505af11580156117ee573d6000803e3d6000fd5b505050506040513d602081101561180457600080fd5b5051600b5460408051621d45b760e21b81526001600160a01b038b8116600483015260248201879052604482018a90528d81166064830181905260848301529151939450911691627516dc9160a48082019260009290919082900301818387803b15801561187157600080fd5b505af1158015611885573d6000803e3d6000fd5b50505050600360009054906101000a90046001600160a01b03166001600160a01b0316632e90bbd8888c6040518363ffffffff1660e01b815260040180836001600160a01b03166001600160a01b0316815260200182815260200192505050602060405180830381600087803b1580156118fe57600080fd5b505af1158015611912573d6000803e3d6000fd5b505050506040513d602081101561192857600080fd5b5050600154604080516368060f0760e01b81526001600160a01b038a81166004830152915160009392909216916368060f0791602480820192602092909190829003018186803b15801561197b57600080fd5b505afa15801561198f573d6000803e3d6000fd5b505050506040513d60208110156119a557600080fd5b5051604080518481526020810188905280820183905290519192506001600160a01b038a16917f2089894292d66b85abed43c6f71beaa6404b56065da9b6ef3112fddf9c53d9ac9181900360600190a25060019a9950505050505050505050565b6008546001600160a01b031681565b6006546001600160a01b031681565b6801158e460913d0000081565b600080611a3c613307565b90506000600960009054906101000a90046001600160a01b03166001600160a01b03166398d5fdca6040518163ffffffff1660e01b815260040160206040518083038186803b158015611a8e57600080fd5b505afa158015611aa2573d6000803e3d6000fd5b505050506040513d6020811015611ab857600080fd5b50519050611ac63482613390565b6000611ad334878461357d565b90508515611af757611ae361334a565b611aec816134da565b611af7348784613521565b600180546040805163823a3be560e01b81526001600160a01b03878116600483015260248201949094529051929091169163823a3be59160448082019260009290919082900301818387803b158015611b4f57600080fd5b505af1158015611b63573d6000803e3d6000fd5b505060015460408051630729273760e21b81526001600160a01b0388811660048301523460248301529151919092169350631ca49cdc925060448083019260209291908290030181600087803b158015611bbc57600080fd5b505af1158015611bd0573d6000803e3d6000fd5b505050506040513d6020811015611be657600080fd5b50506001546040805163ab8e5b2f60e01b81526001600160a01b038681166004830152602482018a90529151919092169163ab8e5b2f9160448083019260209291908290030181600087803b158015611c3e57600080fd5b505af1158015611c52573d6000803e3d6000fd5b505050506040513d6020811015611c6857600080fd5b5050600154604080517f075e56dd0000000000000000000000000000000000000000000000000000000081526001600160a01b0386811660048301529151919092169163075e56dd9160248083019260209291908290030181600087803b158015611cd257600080fd5b505af1158015611ce6573d6000803e3d6000fd5b505050506040513d6020811015611cfc57600080fd5b505060015460408051630c7940bd60e11b81526001600160a01b038681166004830152915160009392909216916318f2817a9160248082019260209290919082900301818787803b158015611d5057600080fd5b505af1158015611d64573d6000803e3d6000fd5b505050506040513d6020811015611d7a57600080fd5b5051600b5460408051633a7bc51160e11b81526001600160a01b03888116600483015260248201879052604482018890528a811660648301819052608483015291519394509116916374f78a229160a48082019260009290919082900301818387803b158015611de957600080fd5b505af1158015611dfd573d6000803e3d6000fd5b5050600154604080516349e40df760e01b81526001600160a01b0389811660048301529151600095509190921692506349e40df79160248082019260209290919082900301818787803b158015611e5357600080fd5b505af1158015611e67573d6000803e3d6000fd5b505050506040513d6020811015611e7d57600080fd5b50516040805182815290519192506001600160a01b038716917f9aae360b1167f55ad3b0cb0b44f33887cdbbffea820e0a955295af4a05fa31f49181900360200190a2600360009054906101000a90046001600160a01b03166001600160a01b03166325a2e6e7346040518263ffffffff1660e01b81526004016020604051808303818588803b158015611f1057600080fd5b505af1158015611f24573d6000803e3d6000fd5b50505050506040513d6020811015611f3b57600080fd5b5050600354604080517f2e90bbd80000000000000000000000000000000000000000000000000000000081526001600160a01b038881166004830152602482018c905291519190921691632e90bbd89160448083019260209291908290030181600087803b158015611fac57600080fd5b505af1158015611fc0573d6000803e3d6000fd5b505050506040513d6020811015611fd657600080fd5b50506040805189815234602082015280820184905290516001600160a01b038716917f2089894292d66b85abed43c6f71beaa6404b56065da9b6ef3112fddf9c53d9ac919081900360600190a2506001979650505050505050565b6120396114a5565b61208a576040805162461bcd60e51b815260206004820181905260248201527f4f776e61626c653a2063616c6c6572206973206e6f7420746865206f776e6572604482015290519081900360640190fd5b600280546001600160a01b0383166001600160a01b03199182168117909255600180549091168217905560408051918252517f0addbd30df51ac41ccaf56a058c50522fbdc092b4e2ec8b829b29ad6716bd0979181900360200190a150565b6000806120f4613307565b60015460408051633f96e9dd60e01b81526001600160a01b03808516600483015291519394506000939190921691633f96e9dd916024808301926020929190829003018186803b15801561214757600080fd5b505afa15801561215b573d6000803e3d6000fd5b505050506040513d602081101561217157600080fd5b5051905061217e8161330b565b61218661334a565b60095460408051634c6afee560e11b815290516000926001600160a01b0316916398d5fdca916004808301926020929190829003018186803b1580156121cb57600080fd5b505afa1580156121df573d6000803e3d6000fd5b505050506040513d60208110156121f557600080fd5b505160015460408051630b07655760e01b81526001600160a01b0387811660048301529151939450911691630b076557916024808201926020929091908290030181600087803b15801561224857600080fd5b505af115801561225c573d6000803e3d6000fd5b505050506040513d602081101561227257600080fd5b50506001546040805163b3fd666160e01b81526001600160a01b0386811660048301529151600093929092169163b3fd666191602480820192602092909190829003018186803b1580156122c557600080fd5b505afa1580156122d9573d6000803e3d6000fd5b505050506040513d60208110156122ef57600080fd5b505160015460408051630b4a128160e11b81526001600160a01b038881166004830152915193945060009391909216916316942502916024808301926020929190829003018186803b15801561234457600080fd5b505afa158015612358573d6000803e3d6000fd5b505050506040513d602081101561236e57600080fd5b5051905061237d8189856135b9565b600061239082848b600003600088613424565b905061239b816134da565b600154604080517f59e96ed30000000000000000000000000000000000000000000000000000000081526001600160a01b038981166004830152602482018d9052915191909216916359e96ed39160448083019260209291908290030181600087803b15801561240a57600080fd5b505af115801561241e573d6000803e3d6000fd5b505050506040513d602081101561243457600080fd5b505060015460408051630c7940bd60e11b81526001600160a01b038981166004830152915160009392909216916318f2817a9160248082019260209290919082900301818787803b15801561248857600080fd5b505af115801561249c573d6000803e3d6000fd5b505050506040513d60208110156124b257600080fd5b5051905060006124c8848c63ffffffff61367116565b90508061254f576001546040805162bf8d7f60e51b81526001600160a01b038b81166004830152915191909216916317f1afe09160248083019260209291908290030181600087803b15801561251d57600080fd5b505af1158015612531573d6000803e3d6000fd5b505050506040513d602081101561254757600080fd5b506125d19050565b600b5460408051621d45b760e21b81526001600160a01b038b8116600483015260248201879052604482018a90528d811660648301819052608483015291519190921691627516dc9160a480830192600092919082900301818387803b1580156125b857600080fd5b505af11580156125cc573d6000803e3d6000fd5b505050505b60035460408051637ab46ec760e11b81526001600160a01b038b81166004830152602482018f90529151919092169163f568dd8e9160448083019260209291908290030181600087803b15801561262757600080fd5b505af115801561263b573d6000803e3d6000fd5b505050506040513d602081101561265157600080fd5b5050604080518681526020810183905280820184905290516001600160a01b038a16917f2089894292d66b85abed43c6f71beaa6404b56065da9b6ef3112fddf9c53d9ac919081900360600190a25060019a9950505050505050505050565b600154600090612747906001600160a01b0316633f96e9dd6126d0613307565b6040518263ffffffff1660e01b815260040180826001600160a01b03166001600160a01b0316815260200191505060206040518083038186803b15801561271657600080fd5b505afa15801561272a573d6000803e3d6000fd5b505050506040513d602081101561274057600080fd5b505161330b565b61274f61334a565b60095460408051634c6afee560e11b815290516000926001600160a01b0316916398d5fdca916004808301926020929190829003018186803b15801561279457600080fd5b505afa1580156127a8573d6000803e3d6000fd5b505050506040513d60208110156127be57600080fd5b50516001549091506001600160a01b0316630b0765576127dc613307565b6040518263ffffffff1660e01b815260040180826001600160a01b03166001600160a01b03168152602001915050602060405180830381600087803b15801561282457600080fd5b505af1158015612838573d6000803e3d6000fd5b505050506040513d602081101561284e57600080fd5b5060009050346128615785600003612863565b345b6001549091506000906001600160a01b031663b3fd6661612882613307565b6040518263ffffffff1660e01b815260040180826001600160a01b03166001600160a01b0316815260200191505060206040518083038186803b1580156128c857600080fd5b505afa1580156128dc573d6000803e3d6000fd5b505050506040513d60208110156128f257600080fd5b50516001549091506000906001600160a01b03166316942502612913613307565b6040518263ffffffff1660e01b815260040180826001600160a01b03166001600160a01b0316815260200191505060206040518083038186803b15801561295957600080fd5b505afa15801561296d573d6000803e3d6000fd5b505050506040513d602081101561298357600080fd5b5051905060006129968284868b89613424565b90506129a1816134da565b6129ac848987613521565b6129b683896136b3565b6129c1828a876135b9565b6000806129d66129cf613307565b878c613703565b60015491935091506000906001600160a01b03166318f2817a6129f7613307565b6040518263ffffffff1660e01b815260040180826001600160a01b03166001600160a01b03168152602001915050602060405180830381600087803b158015612a3f57600080fd5b505af1158015612a53573d6000803e3d6000fd5b505050506040513d6020811015612a6957600080fd5b5051905081158015612a79575082155b15612b11576001546001600160a01b03166317f1afe0612a97613307565b6040518263ffffffff1660e01b815260040180826001600160a01b03166001600160a01b03168152602001915050602060405180830381600087803b158015612adf57600080fd5b505af1158015612af3573d6000803e3d6000fd5b505050506040513d6020811015612b0957600080fd5b50612bbd9050565b600b546001600160a01b0316627516dc612b29613307565b604080517fffffffff0000000000000000000000000000000000000000000000000000000060e085901b1681526001600160a01b03928316600482015260248101899052604481018d9052918e166064830181905260848301525160a480830192600092919082900301818387803b158015612ba457600080fd5b505af1158015612bb8573d6000803e3d6000fd5b505050505b612bcf612bc8613307565b888d61398c565b612bd7613307565b604080518481526020810186905280820184905290516001600160a01b0392909216917f2089894292d66b85abed43c6f71beaa6404b56065da9b6ef3112fddf9c53d9ac9181900360600190a26001985050505050505050505b9392505050565b600a546001600160a01b031681565b6004546001600160a01b031681565b612c5e6114a5565b612caf576040805162461bcd60e51b815260206004820181905260248201527f4f776e61626c653a2063616c6c6572206973206e6f7420746865206f776e6572604482015290519081900360640190fd5b612cb881613bf6565b50565b612cc36114a5565b612d14576040805162461bcd60e51b815260206004820181905260248201527f4f776e61626c653a2063616c6c6572206973206e6f7420746865206f776e6572604482015290519081900360640190fd5b600680546001600160a01b0383166001600160a01b03199182168117909255600580549091168217905560408051918252517f78f058b189175430c48dc02699e3a0031ea4ff781536dc2fab847de4babdd8829181900360200190a150565b600080612d7e613307565b60015460408051633f96e9dd60e01b81526001600160a01b03808516600483015291519394506000939190921691633f96e9dd916024808301926020929190829003018186803b158015612dd157600080fd5b505afa158015612de5573d6000803e3d6000fd5b505050506040513d6020811015612dfb57600080fd5b50519050612e088161330b565b60095460408051634c6afee560e11b815290516000926001600160a01b0316916398d5fdca916004808301926020929190829003018186803b158015612e4d57600080fd5b505afa158015612e61573d6000803e3d6000fd5b505050506040513d6020811015612e7757600080fd5b505160015460408051630b07655760e01b81526001600160a01b0387811660048301529151939450911691630b076557916024808201926020929091908290030181600087803b158015612eca57600080fd5b505af1158015612ede573d6000803e3d6000fd5b505050506040513d6020811015612ef457600080fd5b50506001546040805163b3fd666160e01b81526001600160a01b0386811660048301529151600093929092169163b3fd666191602480820192602092909190829003018186803b158015612f4757600080fd5b505afa158015612f5b573d6000803e3d6000fd5b505050506040513d6020811015612f7157600080fd5b50519050612f838160008990036136b3565b600154604080517fa2a591210000000000000000000000000000000000000000000000000000000081526001600160a01b038781166004830152602482018b90529151600093929092169163a2a591219160448082019260209290919082900301818787803b158015612ff557600080fd5b505af1158015613009573d6000803e3d6000fd5b505050506040513d602081101561301f57600080fd5b505160015460408051630d293c7160e41b81526001600160a01b038981166004830152602482018890529151939450600093919092169163d293c710916044808301926020929190829003018186803b15801561307b57600080fd5b505afa15801561308f573d6000803e3d6000fd5b505050506040513d60208110156130a557600080fd5b5051600b5460408051621d45b760e21b81526001600160a01b038a8116600483015260248201859052604482018990528c81166064830181905260848301529151939450911691627516dc9160a48082019260009290919082900301818387803b15801561311257600080fd5b505af1158015613126573d6000803e3d6000fd5b50506003546040805163b96c518160e01b81526001600160a01b038b81166004830152602482018f9052915191909216935063b96c5181925060448083019260209291908290030181600087803b15801561318057600080fd5b505af1158015613194573d6000803e3d6000fd5b505050506040513d60208110156131aa57600080fd5b505060015460408051630b4a128160e11b81526001600160a01b03898116600483015291516000939290921691631694250291602480820192602092909190829003018186803b1580156131fd57600080fd5b505afa158015613211573d6000803e3d6000fd5b505050506040513d602081101561322757600080fd5b5051600154604080516368060f0760e01b81526001600160a01b038b81166004830152915193945060009391909216916368060f07916024808301926020929190829003018186803b15801561327c57600080fd5b505afa158015613290573d6000803e3d6000fd5b505050506040513d60208110156132a657600080fd5b5051604080518681526020810185905280820183905290519192506001600160a01b038a16917f2089894292d66b85abed43c6f71beaa6404b56065da9b6ef3112fddf9c53d9ac9181900360600190a25060019a9950505050505050505050565b3390565b80600114612cb85760405162461bcd60e51b815260040180806020018281038252602b8152602001806144a2602b913960400191505060405180910390fd5b613352613c96565b1561338e5760405162461bcd60e51b81526004018080602001828103825260388152602001806145d66038913960400191505060405180910390fd5b565b6801158e460913d000006133a48383613f5a565b10156133e15760405162461bcd60e51b81526004018080602001828103825260318152602001806144cd6031913960400191505060405180910390fd5b5050565b60008111612cb85760405162461bcd60e51b81526004018080602001828103825260288152602001806144fe6028913960400191505060405180910390fd5b60008585828613156134505761344961343c87613f81565b899063ffffffff613f9e16565b9150613475565b60008612156134755761347261346587613f81565b899063ffffffff61367116565b91505b600085131561349e5761349761348a86613f81565b889063ffffffff613f9e16565b90506134c3565b60008512156134c3576134c06134b386613f81565b889063ffffffff61367116565b90505b6134ce82828661357d565b98975050505050505050565b670f43fc2c04ee0000811015612cb85760405162461bcd60e51b815260040180806020018281038252604881526020018061460e6048913960600191505060405180910390fd5b600061352e848484613ff8565b90506714d1120d7b1600008110156135775760405162461bcd60e51b81526004018080602001828103825260488152602001806145476048913960600191505060405180910390fd5b50505050565b600082156135b05760006135a78461359b878663ffffffff61427116565b9063ffffffff6142ca16565b9150612c319050565b50600019612c31565b811561366c57828211156135fe5760405162461bcd60e51b815260040180806020018281038252603381526020018061446f6033913960400191505060405180910390fd5b6000613610848463ffffffff61367116565b90506801158e460913d000006136268284613f5a565b101580613631575080155b6135775760405162461bcd60e51b815260040180806020018281038252604781526020018061458f6047913960600191505060405180910390fd5b505050565b6000612c3183836040518060400160405280601e81526020017f536166654d6174683a207375627472616374696f6e206f766572666c6f77000081525061430c565b60008112156133e157816136c682613f81565b11156133e15760405162461bcd60e51b81526004018080602001828103825260408152602001806144096040913960400191505060405180910390fd5b60008060008085136137aa576001546001600160a01b03166359e96ed38761372a88613f81565b6040518363ffffffff1660e01b815260040180836001600160a01b03166001600160a01b0316815260200182815260200192505050602060405180830381600087803b15801561377957600080fd5b505af115801561378d573d6000803e3d6000fd5b505050506040513d60208110156137a357600080fd5b5051613841565b6001546001600160a01b0316631ca49cdc876137c588613f81565b6040518363ffffffff1660e01b815260040180836001600160a01b03166001600160a01b0316815260200182815260200192505050602060405180830381600087803b15801561381457600080fd5b505af1158015613828573d6000803e3d6000fd5b505050506040513d602081101561383e57600080fd5b50515b905060008085136138e7576001546001600160a01b031663a2a591218861386788613f81565b6040518363ffffffff1660e01b815260040180836001600160a01b03166001600160a01b0316815260200182815260200192505050602060405180830381600087803b1580156138b657600080fd5b505af11580156138ca573d6000803e3d6000fd5b505050506040513d60208110156138e057600080fd5b505161397e565b6001546001600160a01b031663ab8e5b2f8861390288613f81565b6040518363ffffffff1660e01b815260040180836001600160a01b03166001600160a01b0316815260200182815260200192505050602060405180830381600087803b15801561395157600080fd5b505af1158015613965573d6000803e3d6000fd5b505050506040513d602081101561397b57600080fd5b50515b919791965090945050505050565b6000821315613a0d576003546001600160a01b03166325a2e6e76139af84613f81565b6040518263ffffffff1660e01b81526004016020604051808303818588803b1580156139da57600080fd5b505af11580156139ee573d6000803e3d6000fd5b50505050506040513d6020811015613a0557600080fd5b50613aad9050565b6000821215613aad576003546001600160a01b031663f568dd8e84613a3185613f81565b6040518363ffffffff1660e01b815260040180836001600160a01b03166001600160a01b0316815260200182815260200192505050602060405180830381600087803b158015613a8057600080fd5b505af1158015613a94573d6000803e3d6000fd5b505050506040513d6020811015613aaa57600080fd5b50505b6000811315613b52576003546001600160a01b0316632e90bbd884613ad184613f81565b6040518363ffffffff1660e01b815260040180836001600160a01b03166001600160a01b0316815260200182815260200192505050602060405180830381600087803b158015613b2057600080fd5b505af1158015613b34573d6000803e3d6000fd5b505050506040513d6020811015613b4a57600080fd5b5061366c9050565b600081121561366c576003546001600160a01b031663b96c518184613b7684613f81565b6040518363ffffffff1660e01b815260040180836001600160a01b03166001600160a01b0316815260200182815260200192505050602060405180830381600087803b158015613bc557600080fd5b505af1158015613bd9573d6000803e3d6000fd5b505050506040513d6020811015613bef57600080fd5b5050505050565b6001600160a01b038116613c3b5760405162461bcd60e51b81526004018080602001828103825260268152602001806144496026913960400191505060405180910390fd5b600080546040516001600160a01b03808516939216917f8be0079c531659141344cd1fd0a4f28419497f9722a3daafe3b4186f6b6457e091a3600080546001600160a01b0319166001600160a01b0392909216919091179055565b600080600960009054906101000a90046001600160a01b03166001600160a01b03166398d5fdca6040518163ffffffff1660e01b815260040160206040518083038186803b158015613ce757600080fd5b505afa158015613cfb573d6000803e3d6000fd5b505050506040513d6020811015613d1157600080fd5b505160055460408051630a7b61df60e11b815290519293506000926001600160a01b03909216916314f6c3be91600480820192602092909190829003018186803b158015613d5e57600080fd5b505afa158015613d72573d6000803e3d6000fd5b505050506040513d6020811015613d8857600080fd5b50516005546040805163e1cf19c160e01b815290519293506000926001600160a01b039092169163e1cf19c191600480820192602092909190829003018186803b158015613dd557600080fd5b505afa158015613de9573d6000803e3d6000fd5b505050506040513d6020811015613dff57600080fd5b505160075460408051630a7b61df60e11b815290519293506000926001600160a01b03909216916314f6c3be91600480820192602092909190829003018186803b158015613e4c57600080fd5b505afa158015613e60573d6000803e3d6000fd5b505050506040513d6020811015613e7657600080fd5b50516007546040805163e1cf19c160e01b815290519293506000926001600160a01b039092169163e1cf19c191600480820192602092909190829003018186803b158015613ec357600080fd5b505afa158015613ed7573d6000803e3d6000fd5b505050506040513d6020811015613eed57600080fd5b505190506000613f03858463ffffffff613f9e16565b90506000613f17858463ffffffff613f9e16565b90506000613f2683838a61357d565b90506714d1120d7b160000811015613f4957600198505050505050505050610a23565b600098505050505050505050610a23565b600080613f79670de0b6b3a764000061359b858763ffffffff61427116565b949350505050565b600080821215613f9657816000039050613f99565b50805b919050565b600082820183811015612c31576040805162461bcd60e51b815260206004820152601b60248201527f536166654d6174683a206164646974696f6e206f766572666c6f770000000000604482015290519081900360640190fd5b6000806140f5600760009054906101000a90046001600160a01b03166001600160a01b03166314f6c3be6040518163ffffffff1660e01b815260040160206040518083038186803b15801561404c57600080fd5b505afa158015614060573d6000803e3d6000fd5b505050506040513d602081101561407657600080fd5b505160055460408051630a7b61df60e11b815290516001600160a01b03909216916314f6c3be91600480820192602092909190829003018186803b1580156140bd57600080fd5b505afa1580156140d1573d6000803e3d6000fd5b505050506040513d60208110156140e757600080fd5b50519063ffffffff613f9e16565b905060006141bb600760009054906101000a90046001600160a01b03166001600160a01b031663e1cf19c16040518163ffffffff1660e01b815260040160206040518083038186803b15801561414a57600080fd5b505afa15801561415e573d6000803e3d6000fd5b505050506040513d602081101561417457600080fd5b50516005546040805163e1cf19c160e01b815290516001600160a01b039092169163e1cf19c191600480820192602092909190829003018186803b1580156140bd57600080fd5b905060008613156141e6576141df6141d287613f81565b839063ffffffff613f9e16565b915061420b565b600086121561420b576142086141fb87613f81565b839063ffffffff61367116565b91505b60008513156142345761422d61422086613f81565b829063ffffffff613f9e16565b9050614259565b60008512156142595761425661424986613f81565b829063ffffffff61367116565b90505b600061426683838761357d565b979650505050505050565b600082614280575060006111b1565b8282028284828161428d57fe5b0414612c315760405162461bcd60e51b81526004018080602001828103825260218152602001806145266021913960400191505060405180910390fd5b6000612c3183836040518060400160405280601a81526020017f536166654d6174683a206469766973696f6e206279207a65726f0000000000008152506143a3565b6000818484111561439b5760405162461bcd60e51b81526004018080602001828103825283818151815260200191508051906020019080838360005b83811015614360578181015183820152602001614348565b50505050905090810190601f16801561438d5780820380516001836020036101000a031916815260200191505b509250505060405180910390fd5b505050900390565b600081836143f25760405162461bcd60e51b8152602060048201818152835160248401528351909283926044909101919085019080838360008315614360578181015183820152602001614348565b5060008385816143fe57fe5b049594505050505056fe4344504d616e616765723a20416d6f756e7420726570616964206d757374206e6f74206265206c6172676572207468616e2074686520434450277320646562744f776e61626c653a206e6577206f776e657220697320746865207a65726f20616464726573734344504d616e616765723a20496e73756666696369656e742062616c616e636520666f7220455448207769746864726177616c4344504d616e616765723a2043445020646f6573206e6f74206578697374206f7220697320636c6f7365644344504d616e616765723a20436f6c6c61746572616c206d757374206861766520245553442076616c7565203e3d2032304344504d616e616765723a20416d6f756e74206d757374206265206c6172676572207468616e2030536166654d6174683a206d756c7469706c69636174696f6e206f766572666c6f774344504d616e616765723a20416e206f7065726174696f6e207468617420776f756c6420726573756c7420696e20544352203c20434352206973206e6f74207065726d69747465644344504d616e616765723a2052656d61696e696e6720636f6c6c61746572616c206d757374206861766520245553442076616c7565203e3d2032302c206f72206265207a65726f4344504d616e616765723a204f7065726174696f6e206e6f74207065726d697474656420647572696e67205265636f76657279204d6f64654344504d616e616765723a20416e206f7065726174696f6e207468617420776f756c6420726573756c7420696e20494352203c204d4352206973206e6f74207065726d6974746564a265627a7a7231582045f5f5b064f4a63a61accd541b48b7812ec52b69eae00e1de18e5d468af6fb5b64736f6c63430005100032",
  "source": "pragma solidity ^0.5.16;\r\n\r\nimport \"./Interfaces/IBorrowerOperations.sol\";\r\nimport \"./Interfaces/ICDPManager.sol\";\r\nimport \"./Interfaces/IPool.sol\";\r\nimport \"./Interfaces/IPriceFeed.sol\";\r\nimport \"./Interfaces/ISortedCDPs.sol\";\r\nimport \"./Interfaces/IPoolManager.sol\";\r\nimport \"./DeciMath.sol\";\r\n// import \"@openzeppelin/contracts/math/SafeMath.sol\";\r\n// import \"@openzeppelin/contracts/ownership/Ownable.sol\";\r\n// import \"@nomiclabs/buidler/console.sol\";\r\n\r\nimport \"./SafeMath.sol\";\r\nimport \"./Ownable.sol\";\r\nimport \"./console.sol\";\r\n\r\ncontract BorrowerOperations is Ownable, IBorrowerOperations {\r\n    using SafeMath for uint;\r\n\r\n    uint constant public MCR = 1100000000000000000; // Minimal collateral ratio.\r\n    uint constant public  CCR = 1500000000000000000; // Critical system collateral ratio. If the total system collateral (TCR) falls below the CCR, Recovery Mode is triggered.\r\n    uint constant public MIN_COLL_IN_USD = 20000000000000000000;\r\n\r\n    // --- Events --- \r\n\r\n    event CDPManagerAddressChanged(address _newCDPManagerAddress);\r\n    event PoolManagerAddressChanged(address _newPoolManagerAddress);\r\n    event ActivePoolAddressChanged(address _activePoolAddress);\r\n    event DefaultPoolAddressChanged(address _defaultPoolAddress);\r\n    event PriceFeedAddressChanged(address  _newPriceFeedAddress);\r\n    event SortedCDPsAddressChanged(address _sortedCDPsAddress);\r\n\r\n    event CDPCreated(address indexed _user, uint arrayIndex);\r\n    event CDPUpdated(address indexed _user, uint _debt, uint _coll, uint stake);\r\n   \r\n    // --- Connected contract declarations ---\r\n\r\n    ICDPManager cdpManager;\r\n    address public cdpManagerAddress;\r\n\r\n    IPoolManager poolManager;\r\n    address public poolManagerAddress;\r\n\r\n    IPool activePool;\r\n    address public activePoolAddress;\r\n\r\n    IPool defaultPool;\r\n    address public defaultPoolAddress;\r\n\r\n    IPriceFeed priceFeed;\r\n    address public priceFeedAddress;\r\n\r\n    // A doubly linked list of CDPs, sorted by their sorted by their collateral ratios\r\n    ISortedCDPs sortedCDPs;\r\n    address public sortedCDPsAddress;\r\n\r\n    // --- Dependency setters --- \r\n\r\n    function setCDPManager(address _cdpManagerAddress) public onlyOwner {\r\n        cdpManagerAddress = _cdpManagerAddress;\r\n        cdpManager = ICDPManager(_cdpManagerAddress);\r\n        emit CDPManagerAddressChanged(_cdpManagerAddress);\r\n    }\r\n\r\n    function setPoolManager(address _poolManagerAddress) public onlyOwner {\r\n        poolManagerAddress = _poolManagerAddress;\r\n        poolManager = IPoolManager(_poolManagerAddress);\r\n        emit PoolManagerAddressChanged(_poolManagerAddress);\r\n    }\r\n\r\n    function setActivePool(address _activePoolAddress) public onlyOwner {\r\n        activePoolAddress = _activePoolAddress;\r\n        activePool = IPool(_activePoolAddress);\r\n        emit ActivePoolAddressChanged(_activePoolAddress);\r\n    }\r\n\r\n    function setDefaultPool(address _defaultPoolAddress) public onlyOwner {\r\n        defaultPoolAddress = _defaultPoolAddress;\r\n        defaultPool = IPool(_defaultPoolAddress);\r\n        emit DefaultPoolAddressChanged(_defaultPoolAddress);\r\n    }\r\n\r\n    function setPriceFeed(address _priceFeedAddress) public onlyOwner {\r\n        priceFeedAddress = _priceFeedAddress;\r\n        priceFeed = IPriceFeed(priceFeedAddress);\r\n        emit PriceFeedAddressChanged(_priceFeedAddress);\r\n    }\r\n\r\n    function setSortedCDPs(address _sortedCDPsAddress) public onlyOwner {\r\n        sortedCDPsAddress = _sortedCDPsAddress;\r\n        sortedCDPs = ISortedCDPs(_sortedCDPsAddress);\r\n        emit SortedCDPsAddressChanged(_sortedCDPsAddress);\r\n    }\r\n\r\n    // --- Borrower Trove Operations ---\r\n\r\n    function openLoan(uint _CLVAmount, address _hint) public payable returns (bool) {\r\n        address user = _msgSender(); \r\n        uint price = priceFeed.getPrice(); \r\n\r\n        requireValueIsGreaterThan20Dollars(msg.value, price);\r\n        \r\n        uint ICR = computeICR(msg.value, _CLVAmount, price);  \r\n\r\n        if (_CLVAmount > 0) {\r\n            requireNotInRecoveryMode();\r\n            requireICRisAboveMCR(ICR);\r\n\r\n            requireNewTCRisAboveCCR(int(msg.value), int(_CLVAmount), price); \r\n        }\r\n        \r\n        // Update loan properties\r\n        cdpManager.setCDPStatus(user, 1);\r\n        cdpManager.increaseCDPColl(user, msg.value);\r\n        cdpManager.increaseCDPDebt(user, _CLVAmount);\r\n        \r\n        cdpManager.updateRewardSnapshots(user); \r\n        uint stake = cdpManager.updateStakeAndTotalStakes(user); \r\n        \r\n        sortedCDPs.insert(user, ICR, price, _hint, _hint); \r\n        uint arrayIndex = cdpManager.addCDPOwnerToArray(user);\r\n        emit CDPCreated(user, arrayIndex);\r\n        \r\n        // Tell PM to move the ether to the Active Pool, and mint CLV to the borrower\r\n        poolManager.addColl.value(msg.value)(); \r\n        poolManager.withdrawCLV(user, _CLVAmount); \r\n       \r\n        emit CDPUpdated(user, _CLVAmount, msg.value, stake); \r\n        return true;\r\n    }\r\n\r\n    // Send ETH as collateral to a CDP\r\n    function addColl(address _user, address _hint) public payable returns (bool) {\r\n        bool isFirstCollDeposit;\r\n\r\n        uint price = priceFeed.getPrice();\r\n        uint status = cdpManager.getCDPStatus(_user);\r\n    \r\n        // If non-existent or closed, open a new trove\r\n        if (status == 0 || status == 2 ) {\r\n            requireValueIsGreaterThan20Dollars(msg.value, price);\r\n\r\n            isFirstCollDeposit = true; \r\n            cdpManager.setCDPStatus(_user, 1);\r\n        } \r\n\r\n        cdpManager.applyPendingRewards(_user);\r\n       \r\n        // Update the CDP's coll and stake\r\n        uint newColl = cdpManager.increaseCDPColl(_user, msg.value);\r\n        uint stake = cdpManager.updateStakeAndTotalStakes(_user);\r\n        uint newICR = cdpManager.getCurrentICR(_user, price);\r\n   \r\n        if (isFirstCollDeposit) { \r\n            sortedCDPs.insert(_user, newICR, price, _hint, _hint);\r\n            uint arrayIndex = cdpManager.addCDPOwnerToArray(_user);\r\n            emit CDPCreated(_user, arrayIndex);\r\n        } else {\r\n            sortedCDPs.reInsert(_user, newICR, price, _hint, _hint);  \r\n        }\r\n\r\n        // Tell PM to move the ether to the Active Pool\r\n        poolManager.addColl.value(msg.value)();\r\n  \r\n        uint debt = cdpManager.getCDPDebt(_user);\r\n        emit CDPUpdated(_user, debt, newColl, stake);\r\n        return true;\r\n    }\r\n    \r\n    // Withdraw ETH collateral from a CDP\r\n    function withdrawColl(uint _amount, address _hint) public returns (bool) {\r\n        address user = _msgSender();\r\n        uint status = cdpManager.getCDPStatus(user);\r\n        requireCDPisActive(status);\r\n        requireNotInRecoveryMode();\r\n       \r\n        uint price = priceFeed.getPrice();\r\n        cdpManager.applyPendingRewards(user);\r\n\r\n        uint debt = cdpManager.getCDPDebt(user);\r\n        uint coll = cdpManager.getCDPColl(user);\r\n        \r\n        requireCollAmountIsWithdrawable(coll, _amount, price);\r\n\r\n        uint newICR = getNewICRFromTroveChange(coll, debt, -int(_amount), 0, price);\r\n        requireICRisAboveMCR(newICR);\r\n        \r\n        // Update the CDP's coll and stake\r\n        cdpManager.decreaseCDPColl(user, _amount);\r\n        uint stake = cdpManager.updateStakeAndTotalStakes(user);\r\n\r\n        uint newColl = coll.sub(_amount);\r\n\r\n        if (newColl == 0) { \r\n            cdpManager.closeCDP(user);  \r\n        }  else { \r\n            sortedCDPs.reInsert(user, newICR, price, _hint, _hint);\r\n        }\r\n\r\n        // Remove _amount ETH from ActivePool and send it to the user\r\n        poolManager.withdrawColl(user, _amount);\r\n\r\n        emit CDPUpdated(user, debt, newColl, stake); \r\n        return true;\r\n    }\r\n    \r\n    // Withdraw CLV tokens from a CDP: mint new CLV to the owner, and increase the debt accordingly\r\n    function withdrawCLV(uint _amount, address _hint) public returns (bool) {\r\n        address user = _msgSender();\r\n        uint status = cdpManager.getCDPStatus(user);\r\n        requireCDPisActive(status);\r\n        requireNonZeroAmount(_amount); \r\n        requireNotInRecoveryMode();\r\n        \r\n        uint price = priceFeed.getPrice();\r\n        cdpManager.applyPendingRewards(user);\r\n\r\n        uint coll = cdpManager.getCDPColl(user);\r\n        uint debt = cdpManager.getCDPDebt(user);\r\n\r\n        uint newICR = getNewICRFromTroveChange(coll, debt, 0, int(_amount), price);\r\n        requireICRisAboveMCR(newICR);\r\n\r\n        requireNewTCRisAboveCCR(0, int(_amount), price);\r\n        \r\n        // Increase the CDP's debt\r\n        uint newDebt = cdpManager.increaseCDPDebt(user, _amount);\r\n       \r\n        // Update CDP's position in sortedCDPs\r\n        sortedCDPs.reInsert(user, newICR, price, _hint, _hint);\r\n\r\n        // Mint the given amount of CLV to the owner's address and add them to the ActivePool\r\n        poolManager.withdrawCLV(user, _amount);\r\n        \r\n        uint stake = cdpManager.getCDPStake(user);\r\n        emit CDPUpdated(user, newDebt, coll, stake); \r\n        return true; \r\n    }\r\n    \r\n    // Repay CLV tokens to a CDP: Burn the repaid CLV tokens, and reduce the debt accordingly\r\n    function repayCLV(uint _amount, address _hint) public returns (bool) {\r\n        address user = _msgSender();\r\n        uint status = cdpManager.getCDPStatus(user);\r\n        requireCDPisActive(status);\r\n\r\n        uint price = priceFeed.getPrice();\r\n        cdpManager.applyPendingRewards(user);\r\n\r\n        uint debt = cdpManager.getCDPDebt(user);\r\n        requireCLVRepaymentAllowed(debt, -int(_amount));\r\n        \r\n        // Update the CDP's debt\r\n        uint newDebt = cdpManager.decreaseCDPDebt(user, _amount);\r\n       \r\n        uint newICR = cdpManager.getCurrentICR(user, price);\r\n        \r\n        // Update CDP's position in sortedCDPs\r\n        sortedCDPs.reInsert(user, newICR, price, _hint, _hint);\r\n\r\n        // Burn the received amount of CLV from the user's balance, and remove it from the ActivePool\r\n        poolManager.repayCLV(user, _amount);\r\n        \r\n        uint coll = cdpManager.getCDPColl(user);\r\n        uint stake = cdpManager.getCDPStake(user);\r\n        emit CDPUpdated(user, newDebt, coll, stake); \r\n        return true;\r\n    }\r\n\r\n    function closeLoan() public returns (bool) {\r\n        address user = _msgSender();\r\n        uint status = cdpManager.getCDPStatus(user);\r\n        requireCDPisActive(status);\r\n        requireNotInRecoveryMode();\r\n\r\n        cdpManager.applyPendingRewards(user);\r\n        \r\n        uint coll = cdpManager.getCDPColl(user);\r\n        uint debt = cdpManager.getCDPDebt(user);\r\n\r\n        cdpManager.removeStake(user);\r\n        cdpManager.closeCDP(user);\r\n    \r\n        // Tell PM to burn the debt from the user's balance, and send the collateral back to the user\r\n        poolManager.repayCLV(user, debt);\r\n        poolManager.withdrawColl(user, coll);\r\n\r\n        emit CDPUpdated(user, 0, 0, 0);\r\n        return true; \r\n    }\r\n\r\n    /* If ether is sent, the operation is considered as an increase in ether, and the first parameter \r\n    _collWithdrawal is ignored  */\r\n    function adjustLoan(uint _collWithdrawal, int _debtChange, address _hint) public payable returns (bool) {\r\n        requireCDPisActive(cdpManager.getCDPStatus(_msgSender()));\r\n        requireNotInRecoveryMode();\r\n        \r\n        uint price = priceFeed.getPrice();\r\n     \r\n        cdpManager.applyPendingRewards(_msgSender());\r\n\r\n        // If Ether is sent, grab the amount. Otherwise, grab the specified collateral withdrawal\r\n        int collChange = (msg.value != 0) ? int(msg.value) : -int(_collWithdrawal);\r\n\r\n        uint debt = cdpManager.getCDPDebt(_msgSender());\r\n        uint coll = cdpManager.getCDPColl(_msgSender());\r\n       \r\n        uint newICR = getNewICRFromTroveChange(coll, debt, collChange, _debtChange, price);\r\n       \r\n        // --- Checks --- \r\n        requireICRisAboveMCR(newICR);\r\n        requireNewTCRisAboveCCR(collChange, _debtChange, price);\r\n        requireCLVRepaymentAllowed(debt, _debtChange);\r\n        requireCollAmountIsWithdrawable(coll, _collWithdrawal, price);\r\n\r\n        //  --- Effects --- \r\n        (uint newColl, uint newDebt) = updateTroveFromAdjustment(_msgSender(), collChange, _debtChange);\r\n        \r\n        uint stake = cdpManager.updateStakeAndTotalStakes(_msgSender());\r\n       \r\n        // Close a CDP if it is empty, otherwise, re-insert it in the sorted list\r\n        if (newDebt == 0 && newColl == 0) {\r\n            cdpManager.closeCDP(_msgSender());\r\n        } else {\r\n            sortedCDPs.reInsert(_msgSender(), newICR, price, _hint, _hint);\r\n        }\r\n\r\n        //  --- Interactions ---\r\n        moveTokensAndETHfromAdjustment(_msgSender(), collChange, _debtChange);   \r\n    \r\n        emit CDPUpdated(_msgSender(), newDebt, newColl, stake); \r\n        return true;\r\n    }\r\n\r\n    // --- Helper functions --- \r\n\r\n    /* Converts the magnitude of an int to a uint\r\n    TODO:  check validity for num in region (num > 2**255) or (num < -2**255) */\r\n    function intToUint(int num) internal pure returns (uint) {\r\n        if (num < 0) {\r\n            return uint(-num);\r\n        } else {\r\n            return uint(num);\r\n        }\r\n    }\r\n\r\n    function getUSDValue(uint _coll, uint _price) internal view returns (uint) {\r\n        uint usdValue = _price.mul(_coll).div(1e18);\r\n\r\n        return usdValue;\r\n    }\r\n\r\n    // Update trove's coll and debt based on whether they increase or decrease\r\n    function updateTroveFromAdjustment(address _user, int _collChange, int _debtChange ) internal returns (uint, uint) {\r\n        uint newColl = (_collChange > 0) ? cdpManager.increaseCDPColl(_user, intToUint(_collChange)) \r\n                                         : cdpManager.decreaseCDPColl(_user, intToUint(_collChange));\r\n        uint newDebt = (_debtChange > 0) ? cdpManager.increaseCDPDebt(_user, intToUint(_debtChange)) \r\n                                         : cdpManager.decreaseCDPDebt(_user, intToUint(_debtChange));\r\n\r\n        return (newColl, newDebt);\r\n    }\r\n\r\n    function moveTokensAndETHfromAdjustment(address _user, int _collChange, int _debtChange) internal {\r\n        if (_collChange > 0 ) {\r\n            poolManager.addColl.value(intToUint(_collChange))();\r\n        } else if (_collChange < 0) {\r\n            poolManager.withdrawColl(_user, intToUint(_collChange));\r\n        }\r\n\r\n        if (_debtChange > 0){\r\n            poolManager.withdrawCLV(_user, intToUint(_debtChange));\r\n        } else if (_debtChange < 0) {\r\n            poolManager.repayCLV(_user, intToUint(_debtChange));\r\n        }\r\n    }\r\n    \r\n    // --- 'Require' wrapper functions ---\r\n\r\n    function requireCDPisActive(uint status) internal view {\r\n        require(status == 1, \"CDPManager: CDP does not exist or is closed\");\r\n    }\r\n\r\n    function requireNotInRecoveryMode() internal view {\r\n        require(checkRecoveryMode() == false, \"CDPManager: Operation not permitted during Recovery Mode\");\r\n    }\r\n\r\n    function requireICRisAboveMCR(uint _newICR)  internal view {\r\n        require(_newICR >= MCR, \"CDPManager: An operation that would result in ICR < MCR is not permitted\");\r\n    }\r\n\r\n    function requireNewTCRisAboveCCR(int _collChange, int _debtChange, uint _price) internal view {\r\n        uint newTCR = getNewTCRFromTroveChange(_collChange, _debtChange, _price);\r\n        require(newTCR >= CCR, \"CDPManager: An operation that would result in TCR < CCR is not permitted\");\r\n    }\r\n\r\n    function requireCLVRepaymentAllowed(uint _currentDebt, int _debtChange) internal pure {\r\n        if (_debtChange < 0) {\r\n            require(intToUint(_debtChange) <= _currentDebt, \"CDPManager: Amount repaid must not be larger than the CDP's debt\");\r\n        }\r\n    }\r\n\r\n    function requireValueIsGreaterThan20Dollars(uint _amount, uint _price) internal view {\r\n         require(getUSDValue(_amount, _price) >= MIN_COLL_IN_USD,  \r\n            \"CDPManager: Collateral must have $USD value >= 20\");\r\n    }\r\n\r\n    function requireNonZeroAmount(uint _amount) internal pure {\r\n        require(_amount > 0, \"CDPManager: Amount must be larger than 0\");\r\n    }\r\n\r\n    function requireCollAmountIsWithdrawable(uint _currentColl, uint _collWithdrawal, uint _price) \r\n    internal \r\n    view \r\n    {\r\n        if (_collWithdrawal > 0) {\r\n            require(_collWithdrawal <= _currentColl, \"CDPManager: Insufficient balance for ETH withdrawal\");\r\n            \r\n            uint newColl = _currentColl.sub(_collWithdrawal);\r\n            require(getUSDValue(newColl, _price) >= MIN_COLL_IN_USD || newColl == 0,\r\n                \"CDPManager: Remaining collateral must have $USD value >= 20, or be zero\");\r\n        }\r\n    }\r\n\r\n    // --- ICR and TCR checks ---\r\n\r\n    // Compute the new collateral ratio, considering the change in coll and debt. Assumes 0 pending rewards.\r\n    function getNewICRFromTroveChange(uint _coll, uint _debt, int _collChange, int _debtChange, uint _price) \r\n    view\r\n    internal \r\n    returns(uint)\r\n    {\r\n        uint newColl = _coll;\r\n        uint newDebt = _debt;\r\n\r\n        if (_collChange > 0) {\r\n            newColl = _coll.add(intToUint(_collChange));\r\n        } else if (_collChange < 0) {\r\n            newColl = _coll.sub(intToUint(_collChange));\r\n        }\r\n\r\n        if (_debtChange > 0) {\r\n            newDebt = _debt.add(intToUint(_debtChange));\r\n        } else if (_debtChange < 0) {\r\n            newDebt = _debt.sub(intToUint(_debtChange));\r\n        }\r\n\r\n        return computeICR(newColl, newDebt, _price);\r\n    }\r\n\r\n    function getNewTCRFromTroveChange(int _collChange, int _debtChange, uint _price) internal view returns (uint) {\r\n        uint totalColl = activePool.getETH().add(defaultPool.getETH());\r\n        uint totalDebt = activePool.getCLV().add(defaultPool.getCLV());\r\n       \r\n        if (_collChange > 0) {\r\n            totalColl = totalColl.add(intToUint(_collChange));\r\n        } else if (_collChange < 0) {\r\n            totalColl = totalColl.sub(intToUint(_collChange));\r\n        }\r\n\r\n        if (_debtChange > 0) {\r\n            totalDebt = totalDebt.add(intToUint(_debtChange));\r\n        } else if (_debtChange < 0) {\r\n            totalDebt = totalDebt.sub(intToUint(_debtChange));\r\n        }\r\n\r\n        uint newTCR = computeICR(totalColl, totalDebt, _price);\r\n        return newTCR;\r\n    }\r\n\r\n    // --- Common helper functions, duplicated in CDPManager ---\r\n\r\n    function checkRecoveryMode() internal view returns (bool){\r\n        uint price = priceFeed.getPrice();\r\n\r\n        uint activeColl = activePool.getETH();\r\n        uint activeDebt = activePool.getCLV();\r\n        uint liquidatedColl = defaultPool.getETH();\r\n        uint closedDebt = defaultPool.getCLV();\r\n\r\n        uint totalCollateral = activeColl.add(liquidatedColl);\r\n        uint totalDebt = activeDebt.add(closedDebt); \r\n\r\n        uint TCR = computeICR(totalCollateral, totalDebt, price); \r\n        \r\n        if (TCR < CCR) {\r\n            return true;\r\n        } else {\r\n            return false;\r\n        }\r\n    }\r\n\r\n    function computeICR(uint _coll, uint _debt, uint _price) view internal returns(uint) {\r\n        // Check if the total debt is higher than 0, to avoid division by 0\r\n        if (_debt > 0) {\r\n\r\n            // Pure division to decimal\r\n            uint newCollRatio = _coll.mul(_price).div(_debt);\r\n\r\n            return newCollRatio;\r\n        }\r\n        // Return the maximal value for uint256 if the CDP has a debt of 0\r\n        else {\r\n            return 2**256 - 1; \r\n        }\r\n    }\r\n}\r\n\r\n\r\n\r\n\r\n",
  "sourcePath": "/home/training/contracts/BorrowerOperations.sol",
  "compiler": {
    "name": "solc",
    "version": "0.5.16+commit.9c3226ce.Emscripten.clang"
  },
  "schemaVersion": "3.1.0",
  "updatedAt": "2020-06-03T00:09:09.698Z",
  "devdoc": {
    "methods": {
      "isOwner()": {
        "details": "Returns true if the caller is the current owner."
      },
      "owner()": {
        "details": "Returns the address of the current owner."
      },
      "renounceOwnership()": {
        "details": "Leaves the contract without owner. It will not be possible to call `onlyOwner` functions anymore. Can only be called by the current owner.     * NOTE: Renouncing ownership will leave the contract without an owner, thereby removing any functionality that is only available to the owner."
      },
      "transferOwnership(address)": {
        "details": "Transfers ownership of the contract to a new account (`newOwner`). Can only be called by the current owner."
      }
    }
  },
  "userdoc": {
    "methods": {}
  }
}