{
  "contractName": "CDPManager",
  "abi": [
    {
      "anonymous": false,
      "inputs": [
        {
          "indexed": false,
          "internalType": "address",
          "name": "_activePoolAddress",
          "type": "address"
        }
      ],
      "name": "ActivePoolAddressChanged",
      "type": "event"
    },
    {
      "anonymous": false,
      "inputs": [
        {
          "indexed": false,
          "internalType": "address",
          "name": "_newBorrowerOperationsAddress",
          "type": "address"
        }
      ],
      "name": "BorrowerOperationsAddressChanged",
      "type": "event"
    },
    {
      "anonymous": false,
      "inputs": [
        {
          "indexed": true,
          "internalType": "address",
          "name": "_user",
          "type": "address"
        },
        {
          "indexed": false,
          "internalType": "uint256",
          "name": "arrayIndex",
          "type": "uint256"
        }
      ],
      "name": "CDPCreated",
      "type": "event"
    },
    {
      "anonymous": false,
      "inputs": [
        {
          "indexed": true,
          "internalType": "address",
          "name": "_user",
          "type": "address"
        },
        {
          "indexed": false,
          "internalType": "uint256",
          "name": "_debt",
          "type": "uint256"
        },
        {
          "indexed": false,
          "internalType": "uint256",
          "name": "_coll",
          "type": "uint256"
        },
        {
          "indexed": false,
          "internalType": "uint256",
          "name": "stake",
          "type": "uint256"
        }
      ],
      "name": "CDPUpdated",
      "type": "event"
    },
    {
      "anonymous": false,
      "inputs": [
        {
          "indexed": false,
          "internalType": "address",
          "name": "_newCLVTokenAddress",
          "type": "address"
        }
      ],
      "name": "CLVTokenAddressChanged",
      "type": "event"
    },
    {
      "anonymous": false,
      "inputs": [
        {
          "indexed": false,
          "internalType": "address",
          "name": "_defaultPoolAddress",
          "type": "address"
        }
      ],
      "name": "DefaultPoolAddressChanged",
      "type": "event"
    },
    {
      "anonymous": false,
      "inputs": [
        {
          "indexed": true,
          "internalType": "address",
          "name": "previousOwner",
          "type": "address"
        },
        {
          "indexed": true,
          "internalType": "address",
          "name": "newOwner",
          "type": "address"
        }
      ],
      "name": "OwnershipTransferred",
      "type": "event"
    },
    {
      "anonymous": false,
      "inputs": [
        {
          "indexed": false,
          "internalType": "address",
          "name": "_newPoolManagerAddress",
          "type": "address"
        }
      ],
      "name": "PoolManagerAddressChanged",
      "type": "event"
    },
    {
      "anonymous": false,
      "inputs": [
        {
          "indexed": false,
          "internalType": "address",
          "name": "_newPriceFeedAddress",
          "type": "address"
        }
      ],
      "name": "PriceFeedAddressChanged",
      "type": "event"
    },
    {
      "anonymous": false,
      "inputs": [
        {
          "indexed": false,
          "internalType": "address",
          "name": "_sortedCDPsAddress",
          "type": "address"
        }
      ],
      "name": "SortedCDPsAddressChanged",
      "type": "event"
    },
    {
      "anonymous": false,
      "inputs": [
        {
          "indexed": false,
          "internalType": "address",
          "name": "_stabilityPoolAddress",
          "type": "address"
        }
      ],
      "name": "StabilityPoolAddressChanged",
      "type": "event"
    },
    {
      "constant": true,
      "inputs": [],
      "name": "CCR",
      "outputs": [
        {
          "internalType": "uint256",
          "name": "",
          "type": "uint256"
        }
      ],
      "payable": false,
      "stateMutability": "view",
      "type": "function"
    },
    {
      "constant": true,
      "inputs": [
        {
          "internalType": "address",
          "name": "",
          "type": "address"
        }
      ],
      "name": "CDPs",
      "outputs": [
        {
          "internalType": "uint256",
          "name": "debt",
          "type": "uint256"
        },
        {
          "internalType": "uint256",
          "name": "coll",
          "type": "uint256"
        },
        {
          "internalType": "uint256",
          "name": "stake",
          "type": "uint256"
        },
        {
          "internalType": "enum CDPManager.Status",
          "name": "status",
          "type": "uint8"
        },
        {
          "internalType": "uint256",
          "name": "arrayIndex",
          "type": "uint256"
        }
      ],
      "payable": false,
      "stateMutability": "view",
      "type": "function"
    },
    {
      "constant": true,
      "inputs": [],
      "name": "L_CLVDebt",
      "outputs": [
        {
          "internalType": "uint256",
          "name": "",
          "type": "uint256"
        }
      ],
      "payable": false,
      "stateMutability": "view",
      "type": "function"
    },
    {
      "constant": true,
      "inputs": [],
      "name": "L_ETH",
      "outputs": [
        {
          "internalType": "uint256",
          "name": "",
          "type": "uint256"
        }
      ],
      "payable": false,
      "stateMutability": "view",
      "type": "function"
    },
    {
      "constant": true,
      "inputs": [],
      "name": "MCR",
      "outputs": [
        {
          "internalType": "uint256",
          "name": "",
          "type": "uint256"
        }
      ],
      "payable": false,
      "stateMutability": "view",
      "type": "function"
    },
    {
      "constant": true,
      "inputs": [],
      "name": "MIN_COLL_IN_USD",
      "outputs": [
        {
          "internalType": "uint256",
          "name": "",
          "type": "uint256"
        }
      ],
      "payable": false,
      "stateMutability": "view",
      "type": "function"
    },
    {
      "constant": true,
      "inputs": [],
      "name": "activePoolAddress",
      "outputs": [
        {
          "internalType": "address",
          "name": "",
          "type": "address"
        }
      ],
      "payable": false,
      "stateMutability": "view",
      "type": "function"
    },
    {
      "constant": true,
      "inputs": [],
      "name": "borrowerOperationsAddress",
      "outputs": [
        {
          "internalType": "address",
          "name": "",
          "type": "address"
        }
      ],
      "payable": false,
      "stateMutability": "view",
      "type": "function"
    },
    {
      "constant": true,
      "inputs": [],
      "name": "clvTokenAddress",
      "outputs": [
        {
          "internalType": "address",
          "name": "",
          "type": "address"
        }
      ],
      "payable": false,
      "stateMutability": "view",
      "type": "function"
    },
    {
      "constant": true,
      "inputs": [],
      "name": "defaultPoolAddress",
      "outputs": [
        {
          "internalType": "address",
          "name": "",
          "type": "address"
        }
      ],
      "payable": false,
      "stateMutability": "view",
      "type": "function"
    },
    {
      "constant": true,
      "inputs": [],
      "name": "isOwner",
      "outputs": [
        {
          "internalType": "bool",
          "name": "",
          "type": "bool"
        }
      ],
      "payable": false,
      "stateMutability": "view",
      "type": "function"
    },
    {
      "constant": true,
      "inputs": [],
      "name": "owner",
      "outputs": [
        {
          "internalType": "address",
          "name": "",
          "type": "address"
        }
      ],
      "payable": false,
      "stateMutability": "view",
      "type": "function"
    },
    {
      "constant": true,
      "inputs": [],
      "name": "poolManagerAddress",
      "outputs": [
        {
          "internalType": "address",
          "name": "",
          "type": "address"
        }
      ],
      "payable": false,
      "stateMutability": "view",
      "type": "function"
    },
    {
      "constant": true,
      "inputs": [],
      "name": "priceFeedAddress",
      "outputs": [
        {
          "internalType": "address",
          "name": "",
          "type": "address"
        }
      ],
      "payable": false,
      "stateMutability": "view",
      "type": "function"
    },
    {
      "constant": false,
      "inputs": [],
      "name": "renounceOwnership",
      "outputs": [],
      "payable": false,
      "stateMutability": "nonpayable",
      "type": "function"
    },
    {
      "constant": true,
      "inputs": [
        {
          "internalType": "address",
          "name": "",
          "type": "address"
        }
      ],
      "name": "rewardSnapshots",
      "outputs": [
        {
          "internalType": "uint256",
          "name": "ETH",
          "type": "uint256"
        },
        {
          "internalType": "uint256",
          "name": "CLVDebt",
          "type": "uint256"
        }
      ],
      "payable": false,
      "stateMutability": "view",
      "type": "function"
    },
    {
      "constant": true,
      "inputs": [],
      "name": "sortedCDPsAddress",
      "outputs": [
        {
          "internalType": "address",
          "name": "",
          "type": "address"
        }
      ],
      "payable": false,
      "stateMutability": "view",
      "type": "function"
    },
    {
      "constant": true,
      "inputs": [],
      "name": "stabilityPoolAddress",
      "outputs": [
        {
          "internalType": "address",
          "name": "",
          "type": "address"
        }
      ],
      "payable": false,
      "stateMutability": "view",
      "type": "function"
    },
    {
      "constant": true,
      "inputs": [],
      "name": "totalCollateralSnapshot",
      "outputs": [
        {
          "internalType": "uint256",
          "name": "",
          "type": "uint256"
        }
      ],
      "payable": false,
      "stateMutability": "view",
      "type": "function"
    },
    {
      "constant": true,
      "inputs": [],
      "name": "totalStakes",
      "outputs": [
        {
          "internalType": "uint256",
          "name": "",
          "type": "uint256"
        }
      ],
      "payable": false,
      "stateMutability": "view",
      "type": "function"
    },
    {
      "constant": true,
      "inputs": [],
      "name": "totalStakesSnapshot",
      "outputs": [
        {
          "internalType": "uint256",
          "name": "",
          "type": "uint256"
        }
      ],
      "payable": false,
      "stateMutability": "view",
      "type": "function"
    },
    {
      "constant": false,
      "inputs": [
        {
          "internalType": "address",
          "name": "newOwner",
          "type": "address"
        }
      ],
      "name": "transferOwnership",
      "outputs": [],
      "payable": false,
      "stateMutability": "nonpayable",
      "type": "function"
    },
    {
      "constant": false,
      "inputs": [
        {
          "internalType": "address",
          "name": "_borrowerOperationsAddress",
          "type": "address"
        }
      ],
      "name": "setBorrowerOperations",
      "outputs": [],
      "payable": false,
      "stateMutability": "nonpayable",
      "type": "function"
    },
    {
      "constant": false,
      "inputs": [
        {
          "internalType": "address",
          "name": "_poolManagerAddress",
          "type": "address"
        }
      ],
      "name": "setPoolManager",
      "outputs": [],
      "payable": false,
      "stateMutability": "nonpayable",
      "type": "function"
    },
    {
      "constant": false,
      "inputs": [
        {
          "internalType": "address",
          "name": "_activePoolAddress",
          "type": "address"
        }
      ],
      "name": "setActivePool",
      "outputs": [],
      "payable": false,
      "stateMutability": "nonpayable",
      "type": "function"
    },
    {
      "constant": false,
      "inputs": [
        {
          "internalType": "address",
          "name": "_defaultPoolAddress",
          "type": "address"
        }
      ],
      "name": "setDefaultPool",
      "outputs": [],
      "payable": false,
      "stateMutability": "nonpayable",
      "type": "function"
    },
    {
      "constant": false,
      "inputs": [
        {
          "internalType": "address",
          "name": "_stabilityPoolAddress",
          "type": "address"
        }
      ],
      "name": "setStabilityPool",
      "outputs": [],
      "payable": false,
      "stateMutability": "nonpayable",
      "type": "function"
    },
    {
      "constant": false,
      "inputs": [
        {
          "internalType": "address",
          "name": "_priceFeedAddress",
          "type": "address"
        }
      ],
      "name": "setPriceFeed",
      "outputs": [],
      "payable": false,
      "stateMutability": "nonpayable",
      "type": "function"
    },
    {
      "constant": false,
      "inputs": [
        {
          "internalType": "address",
          "name": "_clvTokenAddress",
          "type": "address"
        }
      ],
      "name": "setCLVToken",
      "outputs": [],
      "payable": false,
      "stateMutability": "nonpayable",
      "type": "function"
    },
    {
      "constant": false,
      "inputs": [
        {
          "internalType": "address",
          "name": "_sortedCDPsAddress",
          "type": "address"
        }
      ],
      "name": "setSortedCDPs",
      "outputs": [],
      "payable": false,
      "stateMutability": "nonpayable",
      "type": "function"
    },
    {
      "constant": true,
      "inputs": [],
      "name": "getCDPOwnersCount",
      "outputs": [
        {
          "internalType": "uint256",
          "name": "",
          "type": "uint256"
        }
      ],
      "payable": false,
      "stateMutability": "view",
      "type": "function"
    },
    {
      "constant": false,
      "inputs": [
        {
          "internalType": "address",
          "name": "_user",
          "type": "address"
        }
      ],
      "name": "liquidate",
      "outputs": [
        {
          "internalType": "bool",
          "name": "",
          "type": "bool"
        }
      ],
      "payable": false,
      "stateMutability": "nonpayable",
      "type": "function"
    },
    {
      "constant": false,
      "inputs": [
        {
          "internalType": "uint256",
          "name": "n",
          "type": "uint256"
        }
      ],
      "name": "liquidateCDPs",
      "outputs": [
        {
          "internalType": "bool",
          "name": "",
          "type": "bool"
        }
      ],
      "payable": false,
      "stateMutability": "nonpayable",
      "type": "function"
    },
    {
      "constant": false,
      "inputs": [
        {
          "internalType": "uint256",
          "name": "_CLVamount",
          "type": "uint256"
        },
        {
          "internalType": "address",
          "name": "_firstRedemptionHint",
          "type": "address"
        },
        {
          "internalType": "address",
          "name": "_partialRedemptionHint",
          "type": "address"
        },
        {
          "internalType": "uint256",
          "name": "_partialRedemptionHintICR",
          "type": "uint256"
        }
      ],
      "name": "redeemCollateral",
      "outputs": [
        {
          "internalType": "bool",
          "name": "",
          "type": "bool"
        }
      ],
      "payable": false,
      "stateMutability": "nonpayable",
      "type": "function"
    },
    {
      "constant": true,
      "inputs": [
        {
          "internalType": "uint256",
          "name": "_CLVamount",
          "type": "uint256"
        },
        {
          "internalType": "uint256",
          "name": "_price",
          "type": "uint256"
        }
      ],
      "name": "getRedemptionHints",
      "outputs": [
        {
          "internalType": "address",
          "name": "firstRedemptionHint",
          "type": "address"
        },
        {
          "internalType": "uint256",
          "name": "partialRedemptionHintICR",
          "type": "uint256"
        }
      ],
      "payable": false,
      "stateMutability": "view",
      "type": "function"
    },
    {
      "constant": true,
      "inputs": [
        {
          "internalType": "uint256",
          "name": "CR",
          "type": "uint256"
        },
        {
          "internalType": "uint256",
          "name": "numTrials",
          "type": "uint256"
        }
      ],
      "name": "getApproxHint",
      "outputs": [
        {
          "internalType": "address",
          "name": "",
          "type": "address"
        }
      ],
      "payable": false,
      "stateMutability": "view",
      "type": "function"
    },
    {
      "constant": true,
      "inputs": [
        {
          "internalType": "address",
          "name": "_user",
          "type": "address"
        },
        {
          "internalType": "uint256",
          "name": "_price",
          "type": "uint256"
        }
      ],
      "name": "getCurrentICR",
      "outputs": [
        {
          "internalType": "uint256",
          "name": "",
          "type": "uint256"
        }
      ],
      "payable": false,
      "stateMutability": "view",
      "type": "function"
    },
    {
      "constant": false,
      "inputs": [
        {
          "internalType": "address",
          "name": "_user",
          "type": "address"
        }
      ],
      "name": "applyPendingRewards",
      "outputs": [
        {
          "internalType": "bool",
          "name": "",
          "type": "bool"
        }
      ],
      "payable": false,
      "stateMutability": "nonpayable",
      "type": "function"
    },
    {
      "constant": false,
      "inputs": [
        {
          "internalType": "address",
          "name": "_user",
          "type": "address"
        }
      ],
      "name": "updateRewardSnapshots",
      "outputs": [
        {
          "internalType": "bool",
          "name": "",
          "type": "bool"
        }
      ],
      "payable": false,
      "stateMutability": "nonpayable",
      "type": "function"
    },
    {
      "constant": true,
      "inputs": [
        {
          "internalType": "address",
          "name": "_user",
          "type": "address"
        }
      ],
      "name": "hasPendingRewards",
      "outputs": [
        {
          "internalType": "bool",
          "name": "",
          "type": "bool"
        }
      ],
      "payable": false,
      "stateMutability": "view",
      "type": "function"
    },
    {
      "constant": false,
      "inputs": [
        {
          "internalType": "address",
          "name": "_user",
          "type": "address"
        }
      ],
      "name": "removeStake",
      "outputs": [
        {
          "internalType": "bool",
          "name": "",
          "type": "bool"
        }
      ],
      "payable": false,
      "stateMutability": "nonpayable",
      "type": "function"
    },
    {
      "constant": false,
      "inputs": [
        {
          "internalType": "address",
          "name": "_user",
          "type": "address"
        }
      ],
      "name": "updateStakeAndTotalStakes",
      "outputs": [
        {
          "internalType": "uint256",
          "name": "",
          "type": "uint256"
        }
      ],
      "payable": false,
      "stateMutability": "nonpayable",
      "type": "function"
    },
    {
      "constant": false,
      "inputs": [
        {
          "internalType": "address",
          "name": "_user",
          "type": "address"
        }
      ],
      "name": "closeCDP",
      "outputs": [
        {
          "internalType": "bool",
          "name": "",
          "type": "bool"
        }
      ],
      "payable": false,
      "stateMutability": "nonpayable",
      "type": "function"
    },
    {
      "constant": false,
      "inputs": [
        {
          "internalType": "address",
          "name": "_user",
          "type": "address"
        }
      ],
      "name": "addCDPOwnerToArray",
      "outputs": [
        {
          "internalType": "uint256",
          "name": "index",
          "type": "uint256"
        }
      ],
      "payable": false,
      "stateMutability": "nonpayable",
      "type": "function"
    },
    {
      "constant": true,
      "inputs": [],
      "name": "checkRecoveryMode",
      "outputs": [
        {
          "internalType": "bool",
          "name": "",
          "type": "bool"
        }
      ],
      "payable": false,
      "stateMutability": "view",
      "type": "function"
    },
    {
      "constant": true,
      "inputs": [
        {
          "internalType": "address",
          "name": "_user",
          "type": "address"
        }
      ],
      "name": "getCDPStatus",
      "outputs": [
        {
          "internalType": "uint256",
          "name": "",
          "type": "uint256"
        }
      ],
      "payable": false,
      "stateMutability": "view",
      "type": "function"
    },
    {
      "constant": true,
      "inputs": [
        {
          "internalType": "address",
          "name": "_user",
          "type": "address"
        }
      ],
      "name": "getCDPStake",
      "outputs": [
        {
          "internalType": "uint256",
          "name": "",
          "type": "uint256"
        }
      ],
      "payable": false,
      "stateMutability": "view",
      "type": "function"
    },
    {
      "constant": true,
      "inputs": [
        {
          "internalType": "address",
          "name": "_user",
          "type": "address"
        }
      ],
      "name": "getCDPDebt",
      "outputs": [
        {
          "internalType": "uint256",
          "name": "",
          "type": "uint256"
        }
      ],
      "payable": false,
      "stateMutability": "view",
      "type": "function"
    },
    {
      "constant": true,
      "inputs": [
        {
          "internalType": "address",
          "name": "_user",
          "type": "address"
        }
      ],
      "name": "getCDPColl",
      "outputs": [
        {
          "internalType": "uint256",
          "name": "",
          "type": "uint256"
        }
      ],
      "payable": false,
      "stateMutability": "view",
      "type": "function"
    },
    {
      "constant": false,
      "inputs": [
        {
          "internalType": "address",
          "name": "_user",
          "type": "address"
        },
        {
          "internalType": "uint256",
          "name": "num",
          "type": "uint256"
        }
      ],
      "name": "setCDPStatus",
      "outputs": [],
      "payable": false,
      "stateMutability": "nonpayable",
      "type": "function"
    },
    {
      "constant": false,
      "inputs": [
        {
          "internalType": "address",
          "name": "_user",
          "type": "address"
        },
        {
          "internalType": "uint256",
          "name": "_collIncrease",
          "type": "uint256"
        }
      ],
      "name": "increaseCDPColl",
      "outputs": [
        {
          "internalType": "uint256",
          "name": "",
          "type": "uint256"
        }
      ],
      "payable": false,
      "stateMutability": "nonpayable",
      "type": "function"
    },
    {
      "constant": false,
      "inputs": [
        {
          "internalType": "address",
          "name": "_user",
          "type": "address"
        },
        {
          "internalType": "uint256",
          "name": "_collDecrease",
          "type": "uint256"
        }
      ],
      "name": "decreaseCDPColl",
      "outputs": [
        {
          "internalType": "uint256",
          "name": "",
          "type": "uint256"
        }
      ],
      "payable": false,
      "stateMutability": "nonpayable",
      "type": "function"
    },
    {
      "constant": false,
      "inputs": [
        {
          "internalType": "address",
          "name": "_user",
          "type": "address"
        },
        {
          "internalType": "uint256",
          "name": "_debtIncrease",
          "type": "uint256"
        }
      ],
      "name": "increaseCDPDebt",
      "outputs": [
        {
          "internalType": "uint256",
          "name": "",
          "type": "uint256"
        }
      ],
      "payable": false,
      "stateMutability": "nonpayable",
      "type": "function"
    },
    {
      "constant": false,
      "inputs": [
        {
          "internalType": "address",
          "name": "_user",
          "type": "address"
        },
        {
          "internalType": "uint256",
          "name": "_debtDecrease",
          "type": "uint256"
        }
      ],
      "name": "decreaseCDPDebt",
      "outputs": [
        {
          "internalType": "uint256",
          "name": "",
          "type": "uint256"
        }
      ],
      "payable": false,
      "stateMutability": "nonpayable",
      "type": "function"
    },
    {
      "constant": true,
      "inputs": [],
      "name": "echidna_alwayTrue",
      "outputs": [
        {
          "internalType": "bool",
          "name": "",
          "type": "bool"
        }
      ],
      "payable": false,
      "stateMutability": "view",
      "type": "function"
    }
  ],
  "bytecode": "0x608060405260006100176001600160e01b0361006616565b600080546001600160a01b0319166001600160a01b0383169081178255604051929350917f8be0079c531659141344cd1fd0a4f28419497f9722a3daafe3b4186f6b6457e0908290a35061006a565b3390565b613dd5806200007a6000396000f3fe608060405234801561001057600080fd5b506004361061036d5760003560e01c80638ac54b0d116101d3578063b6659dd611610104578063e2ac77b0116100a2578063f2fde38b1161007c578063f2fde38b1461095b578063f7883a8b14610981578063fe2ba848146109a7578063fefb4c58146109cd5761036d565b8063e2ac77b0146108f1578063e6a13f3014610917578063f0e665271461091f5761036d565b8063bfd0d886116100de578063bfd0d886146108ad578063d293c710146108b5578063d4a5a053146108e1578063e0abca0b146108e95761036d565b8063b6659dd61461087a578063b7f8cf9b1461089d578063bf9befb1146108a55761036d565b80639e1d6c7811610171578063ab8e5b2f1161014b578063ab8e5b2f14610818578063b08bc72214610844578063b1e9da1f1461084c578063b3fd6661146108545761036d565b80639e1d6c78146107dc578063a2a59121146107e4578063aac1846f146108105761036d565b80638f32d59b116101ad5780638f32d59b1461079e57806396d711ff146107a657806398d721e0146107ae5780639dd233d2146107d45761036d565b80638ac54b0d1461072a5780638c192ed4146107705780638da5cb5b146107965761036d565b806349e40df7116102ad578063685e91af1161024b578063794e572411610225578063794e5724146106c85780637aef6715146106d0578063807d138d146106f6578063823a3be5146106fe5761036d565b8063685e91af14610692578063715018a61461069a578063724e78da146106a25761036d565b80635733d58f116102875780635733d58f1461061257806359e96ed31461061a57806368060f07146106465780636828482d1461066c5761036d565b806349e40df71461057e5780634ecf5726146105a45780634fa93e66146105ac5761036d565b806317f1afe01161031a5780632f510eb1116102f45780632f510eb1146105025780632f8655681461052a5780633f96e9dd1461055057806343a124fa146105765761036d565b806317f1afe01461048a57806318f2817a146104b05780631ca49cdc146104d65761036d565b80630b622ab21161034b5780630b622ab2146103ef5780631673c79a1461041357806316942502146104525761036d565b8063020e799a14610372578063075e56dd146103a35780630b076557146103c9575b600080fd5b61038f6004803603602081101561038857600080fd5b50356109f3565b604080519115158252519081900360200190f35b61038f600480360360208110156103b957600080fd5b50356001600160a01b0316610d70565b61038f600480360360208110156103df57600080fd5b50356001600160a01b0316610d81565b6103f7610d8c565b604080516001600160a01b039092168252519081900360200190f35b6104396004803603602081101561042957600080fd5b50356001600160a01b0316610d9b565b6040805192835260208301919091528051918290030190f35b6104786004803603602081101561046857600080fd5b50356001600160a01b0316610db4565b60408051918252519081900360200190f35b61038f600480360360208110156104a057600080fd5b50356001600160a01b0316610dd2565b610478600480360360208110156104c657600080fd5b50356001600160a01b0316610ddd565b610478600480360360408110156104ec57600080fd5b506001600160a01b038135169060200135610de8565b6105286004803603602081101561051857600080fd5b50356001600160a01b0316610e3d565b005b61038f6004803603602081101561054057600080fd5b50356001600160a01b0316610ef5565b6104786004803603602081101561056657600080fd5b50356001600160a01b0316610fcc565b61038f610ff6565b6104786004803603602081101561059457600080fd5b50356001600160a01b03166112b9565b6103f761131c565b6105d2600480360360208110156105c257600080fd5b50356001600160a01b031661132b565b604051808681526020018581526020018481526020018360028111156105f457fe5b60ff1681526020018281526020019550505050505060405180910390f35b61047861135d565b6104786004803603604081101561063057600080fd5b506001600160a01b038135169060200135611369565b6104786004803603602081101561065c57600080fd5b50356001600160a01b0316611397565b6105286004803603602081101561068257600080fd5b50356001600160a01b03166113b5565b61047861146d565b610528611473565b610528600480360360208110156106b857600080fd5b50356001600160a01b0316611516565b6104786115d6565b610528600480360360208110156106e657600080fd5b50356001600160a01b03166115e2565b61047861169a565b6105286004803603604081101561071457600080fd5b506001600160a01b0381351690602001356116a0565b61074d6004803603604081101561074057600080fd5b50803590602001356116e4565b604080516001600160a01b03909316835260208301919091528051918290030190f35b6105286004803603602081101561078657600080fd5b50356001600160a01b03166119a4565b6103f7611a5c565b61038f611a6b565b610478611a8f565b610528600480360360208110156107c457600080fd5b50356001600160a01b0316611a95565b610478611b4d565b6103f7611b53565b610478600480360360408110156107fa57600080fd5b506001600160a01b038135169060200135611b62565b6103f7611bb1565b6104786004803603604081101561082e57600080fd5b506001600160a01b038135169060200135611bc0565b6103f7611beb565b610478611bfa565b6104786004803603602081101561086a57600080fd5b50356001600160a01b0316611c07565b6103f76004803603604081101561089057600080fd5b5080359060200135611c22565b6103f7611e1d565b610478611e2c565b610478611e32565b610478600480360360408110156108cb57600080fd5b506001600160a01b038135169060200135611e38565b61038f611ec9565b6103f7611ece565b61038f6004803603602081101561090757600080fd5b50356001600160a01b0316611edd565b6103f7611f00565b61038f6004803603608081101561093557600080fd5b508035906001600160a01b03602082013581169160408101359091169060600135611f0f565b6105286004803603602081101561097157600080fd5b50356001600160a01b03166121bf565b6105286004803603602081101561099757600080fd5b50356001600160a01b0316612224565b61038f600480360360208110156109bd57600080fd5b50356001600160a01b03166122dc565b610528600480360360208110156109e357600080fd5b50356001600160a01b03166122e7565b600080600b60009054906101000a90046001600160a01b03166001600160a01b03166398d5fdca6040518163ffffffff1660e01b815260040160206040518083038186803b158015610a4457600080fd5b505afa158015610a58573d6000803e3d6000fd5b505050506040513d6020811015610a6e57600080fd5b505190506000610a7c610ff6565b905060018115151415610c0c576000805b85821015610bff57600f5460408051634d62283160e01b815290516000926001600160a01b031691634d622831916004808301926020929190829003018186803b158015610ada57600080fd5b505afa158015610aee573d6000803e3d6000fd5b505050506040513d6020811015610b0457600080fd5b505190506000610b148287611e38565b905082610b3757610b2682828861239f565b50610b2f610ff6565b159250610b5e565b670f43fc2c04ee0000811015610b5757610b518282612899565b50610b5e565b5050610bff565b600f60009054906101000a90046001600160a01b03166001600160a01b0316631e2231436040518163ffffffff1660e01b815260040160206040518083038186803b158015610bac57600080fd5b505afa158015610bc0573d6000803e3d6000fd5b505050506040513d6020811015610bd657600080fd5b50516001600160a01b0383811691161415610bf2575050610bff565b5050600190910190610a8d565b6001945050505050610d6b565b80610d645760005b84811015610d6257600f5460408051634d62283160e01b815290516000926001600160a01b031691634d622831916004808301926020929190829003018186803b158015610c6157600080fd5b505afa158015610c75573d6000803e3d6000fd5b505050506040513d6020811015610c8b57600080fd5b505190506000610c9b8286611e38565b9050670f43fc2c04ee0000811015610cbd57610cb78282612899565b50610cc4565b5050610d62565b600f60009054906101000a90046001600160a01b03166001600160a01b0316631e2231436040518163ffffffff1660e01b815260040160206040518083038186803b158015610d1257600080fd5b505afa158015610d26573d6000803e3d6000fd5b505050506040513d6020811015610d3c57600080fd5b50516001600160a01b0383811691161415610d58575050610d62565b5050600101610c14565b505b6001925050505b919050565b6000610d7b82612a62565b92915050565b6000610d7b82612a8e565b600e546001600160a01b031681565b6017602052600090815260409020805460019091015482565b6001600160a01b031660009081526011602052604090206001015490565b6000610d7b82612bc2565b6000610d7b82612c8f565b6001600160a01b0382166000908152601160205260408120600101548190610e16908463ffffffff612d0a16565b6001600160a01b038516600090815260116020526040902060010181905591505092915050565b610e45611a6b565b610e96576040805162461bcd60e51b815260206004820181905260248201527f4f776e61626c653a2063616c6c6572206973206e6f7420746865206f776e6572604482015290519081900360640190fd5b600280546001600160a01b0383166001600160a01b03199182168117909255600180549091168217905560408051918252517f3ca631ffcd2a9b5d9ae18543fc82f58eb4ca33af9e6ab01b7a8e95331e6ed9859181900360200190a150565b600080600b60009054906101000a90046001600160a01b03166001600160a01b03166398d5fdca6040518163ffffffff1660e01b815260040160206040518083038186803b158015610f4657600080fd5b505afa158015610f5a573d6000803e3d6000fd5b505050506040513d6020811015610f7057600080fd5b505190506000610f808483611e38565b90506000610f8c610ff6565b9050610f9785612d64565b60018115151415610fb357610fad85838561239f565b50610fc4565b80610fc457610fc28583612899565b505b505050919050565b6001600160a01b03811660009081526011602052604081206003015460ff166002811115610d7b57fe5b600080600b60009054906101000a90046001600160a01b03166001600160a01b03166398d5fdca6040518163ffffffff1660e01b815260040160206040518083038186803b15801561104757600080fd5b505afa15801561105b573d6000803e3d6000fd5b505050506040513d602081101561107157600080fd5b505160055460408051630a7b61df60e11b815290519293506000926001600160a01b03909216916314f6c3be91600480820192602092909190829003018186803b1580156110be57600080fd5b505afa1580156110d2573d6000803e3d6000fd5b505050506040513d60208110156110e857600080fd5b50516005546040805163e1cf19c160e01b815290519293506000926001600160a01b039092169163e1cf19c191600480820192602092909190829003018186803b15801561113557600080fd5b505afa158015611149573d6000803e3d6000fd5b505050506040513d602081101561115f57600080fd5b505160075460408051630a7b61df60e11b815290519293506000926001600160a01b03909216916314f6c3be91600480820192602092909190829003018186803b1580156111ac57600080fd5b505afa1580156111c0573d6000803e3d6000fd5b505050506040513d60208110156111d657600080fd5b50516007546040805163e1cf19c160e01b815290519293506000926001600160a01b039092169163e1cf19c191600480820192602092909190829003018186803b15801561122357600080fd5b505afa158015611237573d6000803e3d6000fd5b505050506040513d602081101561124d57600080fd5b505190506000611263858463ffffffff612d0a16565b90506000611277858463ffffffff612d0a16565b9050600061128683838a612dcc565b90506714d1120d7b1600008110156112a9576001985050505050505050506112b6565b6000985050505050505050505b90565b60188054600181019091557fb13d2d76d1f4b7be834882e410b3e3a8afaf69f83600ae24db354391d2378d2e810180546001600160a01b0319166001600160a01b0393909316928317905560009182526011602052604090912060040181905590565b6010546001600160a01b031681565b6011602052600090815260409020805460018201546002830154600384015460049094015492939192909160ff169085565b6714d1120d7b16000081565b6001600160a01b0382166000908152601160205260408120600101548190610e16908463ffffffff612dfc16565b6001600160a01b031660009081526011602052604090206002015490565b6113bd611a6b565b61140e576040805162461bcd60e51b815260206004820181905260248201527f4f776e61626c653a2063616c6c6572206973206e6f7420746865206f776e6572604482015290519081900360640190fd5b601080546001600160a01b0383166001600160a01b03199182168117909255600f80549091168217905560408051918252517f328bb7558e87ad9d5a9ba346a1e55a13c7998dd76b12ae08ee93a729ff23147a9181900360200190a150565b60185490565b61147b611a6b565b6114cc576040805162461bcd60e51b815260206004820181905260248201527f4f776e61626c653a2063616c6c6572206973206e6f7420746865206f776e6572604482015290519081900360640190fd5b600080546040516001600160a01b03909116907f8be0079c531659141344cd1fd0a4f28419497f9722a3daafe3b4186f6b6457e0908390a3600080546001600160a01b0319169055565b61151e611a6b565b61156f576040805162461bcd60e51b815260206004820181905260248201527f4f776e61626c653a2063616c6c6572206973206e6f7420746865206f776e6572604482015290519081900360640190fd5b600c80546001600160a01b038084166001600160a01b0319928316811793849055600b80549093169390911692909217905560408051918252517f8c537274438aa850a330284665d81a85dd38267d09e4050d416bfc94142db2649181900360200190a150565b670f43fc2c04ee000081565b6115ea611a6b565b61163b576040805162461bcd60e51b815260206004820181905260248201527f4f776e61626c653a2063616c6c6572206973206e6f7420746865206f776e6572604482015290519081900360640190fd5b600480546001600160a01b0383166001600160a01b03199182168117909255600380549091168217905560408051918252517f4d839b74477afe774fbb734df87db25e56c0427973aac588bb3ce7ce937f88509181900360200190a150565b60135481565b8060028111156116ac57fe5b6001600160a01b0383166000908152601160205260409020600301805460ff191660018360028111156116db57fe5b02179055505050565b600f5460408051634d62283160e01b815290516000928392869284926001600160a01b031691634d622831916004808301926020929190829003018186803b15801561172f57600080fd5b505afa158015611743573d6000803e3d6000fd5b505050506040513d602081101561175957600080fd5b505190505b6001600160a01b038116158015906117865750670f43fc2c04ee00006117848287611e38565b105b1561180b57600f5460408051632dc9c0eb60e21b81526001600160a01b0384811660048301529151919092169163b72703ac916024808301926020929190829003018186803b1580156117d857600080fd5b505afa1580156117ec573d6000803e3d6000fd5b505050506040513d602081101561180257600080fd5b5051905061175e565b8093505b6001600160a01b038116158015906118275750600082115b1561199b57600061185f61183a83612e3e565b6001600160a01b0384166000908152601160205260409020549063ffffffff612d0a16565b90508281111561190757600061189f61187784612ec4565b6001600160a01b0385166000908152601160205260409020600101549063ffffffff612d0a16565b905060006118b3838663ffffffff612dfc16565b905060006118ef6118e28a6118d689670de0b6b3a764000063ffffffff612ef216565b9063ffffffff612f4b16565b849063ffffffff612dfc16565b90506118fc81838b612dcc565b96505050505061199b565b611917838263ffffffff612dfc16565b9250600f5460408051632dc9c0eb60e21b81526001600160a01b0385811660048301529151919092169163b72703ac916024808301926020929190829003018186803b15801561196657600080fd5b505afa15801561197a573d6000803e3d6000fd5b505050506040513d602081101561199057600080fd5b5051915061180f9050565b50509250929050565b6119ac611a6b565b6119fd576040805162461bcd60e51b815260206004820181905260248201527f4f776e61626c653a2063616c6c6572206973206e6f7420746865206f776e6572604482015290519081900360640190fd5b600880546001600160a01b0383166001600160a01b03199182168117909255600780549091168217905560408051918252517f5ee0cae2f063ed938bb55046f6a932fb6ae792bf43624806bb90abe68a50be9b9181900360200190a150565b6000546001600160a01b031690565b600080546001600160a01b0316611a80612f8d565b6001600160a01b031614905090565b60145481565b611a9d611a6b565b611aee576040805162461bcd60e51b815260206004820181905260248201527f4f776e61626c653a2063616c6c6572206973206e6f7420746865206f776e6572604482015290519081900360640190fd5b600e80546001600160a01b0383166001600160a01b03199182168117909255600d80549091168217905560408051918252517f82966d27eea39b038ee0fa30cd16532bb24f6e65d31cb58fb227aa5766cdcc7f9181900360200190a150565b60155481565b600a546001600160a01b031681565b6001600160a01b0382166000908152601160205260408120548190611b8d908463ffffffff612dfc16565b6001600160a01b038516600090815260116020526040902081905591505092915050565b6008546001600160a01b031681565b6001600160a01b0382166000908152601160205260408120548190611b8d908463ffffffff612d0a16565b6006546001600160a01b031681565b6801158e460913d0000081565b6001600160a01b031660009081526011602052604090205490565b60185460009060011115611c675760405162461bcd60e51b8152600401808060200182810382526028815260200180613d076028913960400191505060405180910390fd5b600b54604080517f98d5fdca00000000000000000000000000000000000000000000000000000000815290516000926001600160a01b0316916398d5fdca916004808301926020929190829003018186803b158015611cc557600080fd5b505afa158015611cd9573d6000803e3d6000fd5b505050506040513d6020811015611cef57600080fd5b5051600f5460408051634d62283160e01b815290519293506000926001600160a01b0390921691634d62283191600480820192602092909190829003018186803b158015611d3c57600080fd5b505afa158015611d50573d6000803e3d6000fd5b505050506040513d6020811015611d6657600080fd5b505190506000611d768284611e38565b90506000611d848783612f91565b905060015b86811015611e11576000611dae611da6428463ffffffff612d0a16565b601854612fc9565b9050600060188281548110611dbf57fe5b60009182526020822001546001600160a01b03169150611ddf8289611e38565b90506000611ded828d612f91565b905085811015611e01578196508095508297505b505060019092019150611d899050565b50919695505050505050565b6002546001600160a01b031681565b60125481565b60165481565b600080611e4484612ec4565b90506000611e5185612e3e565b6001600160a01b03861660009081526011602052604081206001015491925090611e81908463ffffffff612d0a16565b6001600160a01b03871660009081526011602052604081205491925090611eae908463ffffffff612d0a16565b90506000611ebd838389612dcc565b98975050505050505050565b600190565b600c546001600160a01b031681565b6015546001600160a01b0382166000908152601760205260409020541415919050565b6004546001600160a01b031681565b6000808590506000600b60009054906101000a90046001600160a01b03166001600160a01b03166398d5fdca6040518163ffffffff1660e01b815260040160206040518083038186803b158015611f6557600080fd5b505afa158015611f79573d6000803e3d6000fd5b505050506040513d6020811015611f8f57600080fd5b505190506000611f9f8783613000565b15611fab5750856120d5565b600f60009054906101000a90046001600160a01b03166001600160a01b0316634d6228316040518163ffffffff1660e01b815260040160206040518083038186803b158015611ff957600080fd5b505afa15801561200d573d6000803e3d6000fd5b505050506040513d602081101561202357600080fd5b505190505b6001600160a01b038116158015906120505750670f43fc2c04ee000061204e8284611e38565b105b156120d557600f5460408051632dc9c0eb60e21b81526001600160a01b0384811660048301529151919092169163b72703ac916024808301926020929190829003018186803b1580156120a257600080fd5b505afa1580156120b6573d6000803e3d6000fd5b505050506040513d60208110156120cc57600080fd5b50519050612028565b6001600160a01b038116158015906120ed5750600083115b156121b457600f5460408051632dc9c0eb60e21b81526001600160a01b0384811660048301529151600093929092169163b72703ac91602480820192602092909190829003018186803b15801561214357600080fd5b505afa158015612157573d6000803e3d6000fd5b505050506040513d602081101561216d57600080fd5b5051905061217a82612a8e565b50600061218a8386868b8b613195565b9050806121985750506121b4565b6121a8858263ffffffff612dfc16565b945081925050506120d5565b505050949350505050565b6121c7611a6b565b612218576040805162461bcd60e51b815260206004820181905260248201527f4f776e61626c653a2063616c6c6572206973206e6f7420746865206f776e6572604482015290519081900360640190fd5b6122218161349d565b50565b61222c611a6b565b61227d576040805162461bcd60e51b815260206004820181905260248201527f4f776e61626c653a2063616c6c6572206973206e6f7420746865206f776e6572604482015290519081900360640190fd5b600680546001600160a01b0383166001600160a01b03199182168117909255600580549091168217905560408051918252517f78f058b189175430c48dc02699e3a0031ea4ff781536dc2fab847de4babdd8829181900360200190a150565b6000610d7b8261353d565b6122ef611a6b565b612340576040805162461bcd60e51b815260206004820181905260248201527f4f776e61626c653a2063616c6c6572206973206e6f7420746865206f776e6572604482015290519081900360640190fd5b600a80546001600160a01b0383166001600160a01b03199182168117909255600980549091168217905560408051918252517f373a23842c9bfba0a655597bb13c6493895da5266bd6617086a73f8dcfe2ae709181900360200190a150565b6000670de0b6b3a764000083116123ef576000806123bc86613590565b915091506123c98661353d565b506123d48282613686565b506123de86612bc2565b506123e761382c565b505050612826565b670de0b6b3a76400008311801561240d5750670f43fc2c04ee000083105b156125715760008061241e86613590565b9150915061242b8661353d565b50600d546040805163e1cf19c160e01b815290516000926001600160a01b03169163e1cf19c1916004808301926020929190829003018186803b15801561247157600080fd5b505afa158015612485573d6000803e3d6000fd5b505050506040513d602081101561249b57600080fd5b50519050801561254a576003546040805163356f5b6560e21b8152600481018690526024810185905260448101849052815160009384936001600160a01b039091169263d5bd6d94926064808301939282900301818787803b15801561250057600080fd5b505af1158015612514573d6000803e3d6000fd5b505050506040513d604081101561252a57600080fd5b50805160209091015190925090506125428282613686565b505050612556565b6125548383613686565b505b61255f87612bc2565b5061256861382c565b50505050612826565b600f60009054906101000a90046001600160a01b03166001600160a01b0316634d6228316040518163ffffffff1660e01b815260040160206040518083038186803b1580156125bf57600080fd5b505afa1580156125d3573d6000803e3d6000fd5b505050506040513d60208110156125e957600080fd5b50516001600160a01b038581169116141561282657600d546040805163e1cf19c160e01b815290516000926001600160a01b03169163e1cf19c1916004808301926020929190829003018186803b15801561264357600080fd5b505afa158015612657573d6000803e3d6000fd5b505050506040513d602081101561266d57600080fd5b5051905080612680576000915050612892565b61268985612a8e565b506126938561353d565b506003546001600160a01b038681166000908152601160205260408082208054600190910154825163356f5b6560e21b81526004810192909252602482015260448101869052815192948594169263d5bd6d949260648084019391929182900301818787803b15801561270557600080fd5b505af1158015612719573d6000803e3d6000fd5b505050506040513d604081101561272f57600080fd5b5080516020909101519092509050816127565761274b87612bc2565b5061275461382c565b505b8115612822576127658161393d565b506001600160a01b03871660009081526011602052604090206001810182905582905561279187612c8f565b50600061279e8887611e38565b600f5460408051621d45b760e21b81526001600160a01b038c81166004830181905260248301869052604483018c90526064830181905260848301529151939450911691627516dc9160a48082019260009290919082900301818387803b15801561280857600080fd5b505af115801561281c573d6000803e3d6000fd5b50505050505b5050505b6001600160a01b038416600081815260116020908152604091829020805460018201546002909201548451918252928101919091528083019190915290517f2089894292d66b85abed43c6f71beaa6404b56065da9b6ef3112fddf9c53d9ac9181900360600190a25060015b9392505050565b6000670f43fc2c04ee00008211156128b357506000610d7b565b6000806128bf85613590565b915091506128cc8561353d565b50600d546040805163e1cf19c160e01b815290516000926001600160a01b03169163e1cf19c1916004808301926020929190829003018186803b15801561291257600080fd5b505afa158015612926573d6000803e3d6000fd5b505050506040513d602081101561293c57600080fd5b5051905080156129eb576003546040805163356f5b6560e21b8152600481018690526024810185905260448101849052815160009384936001600160a01b039091169263d5bd6d94926064808301939282900301818787803b1580156129a157600080fd5b505af11580156129b5573d6000803e3d6000fd5b505050506040513d60408110156129cb57600080fd5b50805160209091015190925090506129e38282613686565b5050506129f7565b6129f58383613686565b505b612a0086612bc2565b50612a0961382c565b50604080516000808252602082018190528183015290516001600160a01b038816917f2089894292d66b85abed43c6f71beaa6404b56065da9b6ef3112fddf9c53d9ac919081900360600190a250600195945050505050565b6015546001600160a01b0382166000908152601760205260409020908155601654600191820155919050565b6000612a9982611edd565b612aa557506000610d6b565b612aae82612d64565b6000612ab983612ec4565b90506000612ac684612e3e565b6001600160a01b038516600090815260116020526040902060010154909150612af5908363ffffffff612d0a16565b6001600160a01b0385166000908152601160205260409020600181019190915554612b26908263ffffffff612d0a16565b6001600160a01b038086166000908152601160209081526040808320949094556003548451631c45bad160e21b815260048101879052602481018890529451931693637116eb449360448083019491928390030190829087803b158015612b8c57600080fd5b505af1158015612ba0573d6000803e3d6000fd5b505050506040513d6020811015612bb657600080fd5b50610d62905084612a62565b6001600160a01b03818116600081815260116020908152604080832060038101805460ff191660021790556001808201859055908490556017909252808320838155909101829055600f5481517f29092d0e00000000000000000000000000000000000000000000000000000000815260048101949094529051919316916329092d0e916024808301928692919082900301818387803b158015612c6557600080fd5b505af1158015612c79573d6000803e3d6000fd5b50505050612c8682613a53565b50600192915050565b6001600160a01b0381166000908152601160205260408120600101548190612cb690613b7c565b6001600160a01b038416600090815260116020526040902060020180549082905560125491925090612d00908390612cf4908463ffffffff612dfc16565b9063ffffffff612d0a16565b6012555092915050565b600082820183811015612892576040805162461bcd60e51b815260206004820152601b60248201527f536166654d6174683a206164646974696f6e206f766572666c6f770000000000604482015290519081900360640190fd5b60016001600160a01b03821660009081526011602052604090206003015460ff166002811115612d9057fe5b146122215760405162461bcd60e51b815260040180806020018281038252602b815260200180613d55602b913960400191505060405180910390fd5b60008215612df3576000612dea846118d6878663ffffffff612ef216565b91506128929050565b50600019612892565b600061289283836040518060400160405280601e81526020017f536166654d6174683a207375627472616374696f6e206f766572666c6f770000815250613bac565b6001600160a01b0381166000908152601760205260408120600101546016548290612e6f908363ffffffff612dfc16565b905080612e8157600092505050610d6b565b6001600160a01b03841660009081526011602052604081206002015490612eba670de0b6b3a76400006118d6848663ffffffff612ef216565b9695505050505050565b6001600160a01b0381166000908152601760205260408120546015548290612e6f908363ffffffff612dfc16565b600082612f0157506000610d7b565b82820282848281612f0e57fe5b04146128925760405162461bcd60e51b8152600401808060200182810382526021815260200180613d806021913960400191505060405180910390fd5b600061289283836040518060400160405280601a81526020017f536166654d6174683a206469766973696f6e206279207a65726f000000000000815250613c43565b3390565b6000818310612fb157612faa838363ffffffff612dfc16565b9050610d7b565b81831015610d7b57612faa828463ffffffff612dfc16565b60408051602080820185905282518083038201815291830190925280519101206000908190839081612ff757fe5b06949350505050565b60006001600160a01b03831615806130a75750600f54604080517f5dbe47e80000000000000000000000000000000000000000000000000000000081526001600160a01b03868116600483015291519190921691635dbe47e8916024808301926020929190829003018186803b15801561307957600080fd5b505afa15801561308d573d6000803e3d6000fd5b505050506040513d60208110156130a357600080fd5b5051155b806130c25750670f43fc2c04ee00006130c08484611e38565b105b156130cf57506000610d7b565b600f54604080517f765e01590000000000000000000000000000000000000000000000000000000081526001600160a01b0386811660048301529151600093929092169163765e015991602480820192602092909190829003018186803b15801561313957600080fd5b505afa15801561314d573d6000803e3d6000fd5b505050506040513d602081101561316357600080fd5b505190506001600160a01b038116158061318d5750670f43fc2c04ee000061318b8285611e38565b105b949350505050565b6001600160a01b03851660009081526011602052604081205481906131bb908790613ca8565b905060006131db866118d684670de0b6b3a764000063ffffffff612ef216565b6001600160a01b03891660009081526011602052604081205491925090613208908463ffffffff612dfc16565b6001600160a01b038a1660009081526011602052604081206001015491925090613238908463ffffffff612dfc16565b9050816132c357600f5460408051621d45b760e21b81526001600160a01b038d811660048301526000196024830152604482018c9052600060648301819052608483018190529251931692627516dc9260a48084019391929182900301818387803b1580156132a657600080fd5b505af11580156132ba573d6000803e3d6000fd5b5050505061336a565b60006132d082848b612dcc565b90508681146132e757600095505050505050613494565b600f5460408051621d45b760e21b81526001600160a01b038e8116600483015260248201859052604482018d90528b811660648301819052608483015291519190921691627516dc9160a480830192600092919082900301818387803b15801561335057600080fd5b505af1158015613364573d6000803e3d6000fd5b50505050505b6001600160a01b038a1660009081526011602052604090208281556001018190556133948a612c8f565b506003546001600160a01b0316637cb19fe86133ae612f8d565b86866040518463ffffffff1660e01b815260040180846001600160a01b03166001600160a01b031681526020018381526020018281526020019350505050602060405180830381600087803b15801561340657600080fd5b505af115801561341a573d6000803e3d6000fd5b505050506040513d602081101561343057600080fd5b50506001600160a01b038a166000818152601160209081526040918290206002015482518681529182018590528183015290517f2089894292d66b85abed43c6f71beaa6404b56065da9b6ef3112fddf9c53d9ac9181900360600190a25091925050505b95945050505050565b6001600160a01b0381166134e25760405162461bcd60e51b8152600401808060200182810382526026815260200180613d2f6026913960400191505060405180910390fd5b600080546040516001600160a01b03808516939216917f8be0079c531659141344cd1fd0a4f28419497f9722a3daafe3b4186f6b6457e091a3600080546001600160a01b0319166001600160a01b0392909216919091179055565b6001600160a01b03811660009081526011602052604081206002015460125461356c908263ffffffff612dfc16565b601255506001600160a01b0390911660009081526011602052604081206002015590565b6001600160a01b038116600090815260116020526040902080546001909101546135b983611edd565b156136815760006135c984612e3e565b905060006135d685612ec4565b90506135e8848363ffffffff612d0a16565b93506135fa838263ffffffff612d0a16565b60035460408051631c45bad160e21b8152600481018690526024810185905290519295506001600160a01b0390911691637116eb44916044808201926020929091908290030181600087803b15801561365257600080fd5b505af1158015613666573d6000803e3d6000fd5b505050506040513d602081101561367c57600080fd5b505050505b915091565b60008261369557506000610d7b565b6012541561378c576019546000906136bf90612cf485670de0b6b3a764000063ffffffff612ef216565b905060006136e4601a54612cf4670de0b6b3a764000088612ef290919063ffffffff16565b905060006136fd60125484612f4b90919063ffffffff16565b9050600061371660125484612f4b90919063ffffffff16565b905061373d61373060125484612ef290919063ffffffff16565b859063ffffffff612dfc16565b601955601254613758906118e290839063ffffffff612ef216565b601a5560155461376e908363ffffffff612d0a16565b601555601654613784908263ffffffff612d0a16565b601655505050505b600354604080517fd296d1f1000000000000000000000000000000000000000000000000000000008152600481018690526024810185905290516001600160a01b039092169163d296d1f1916044808201926020929091908290030181600087803b1580156137fa57600080fd5b505af115801561380e573d6000803e3d6000fd5b505050506040513d602081101561382457600080fd5b505092915050565b60125460135560055460408051630a7b61df60e11b8152905160009283926001600160a01b03909116916314f6c3be91600480820192602092909190829003018186803b15801561387c57600080fd5b505afa158015613890573d6000803e3d6000fd5b505050506040513d60208110156138a657600080fd5b505160075460408051630a7b61df60e11b815290519293506000926001600160a01b03909216916314f6c3be91600480820192602092909190829003018186803b1580156138f357600080fd5b505afa158015613907573d6000803e3d6000fd5b505050506040513d602081101561391d57600080fd5b50519050613931828263ffffffff612d0a16565b60145550600191505090565b60125460135560055460408051630a7b61df60e11b8152905160009283926001600160a01b03909116916314f6c3be91600480820192602092909190829003018186803b15801561398d57600080fd5b505afa1580156139a1573d6000803e3d6000fd5b505050506040513d60208110156139b757600080fd5b505160075460408051630a7b61df60e11b815290519293506000926001600160a01b03909216916314f6c3be91600480820192602092909190829003018186803b158015613a0457600080fd5b505afa158015613a18573d6000803e3d6000fd5b505050506040513d6020811015613a2e57600080fd5b50519050613a4681612cf4848763ffffffff612dfc16565b6014555060019392505050565b600060026001600160a01b03831660009081526011602052604090206003015460ff166002811115613a8157fe5b14613ad3576040805162461bcd60e51b815260206004820152601f60248201527f4344504d616e616765723a20434450206973207374696c6c2061637469766500604482015290519081900360640190fd5b6001600160a01b038216600090815260116020526040812060040154601880549192916000198101908110613b0457fe5b600091825260209091200154601880546001600160a01b039092169250829184908110613b2d57fe5b600091825260208083209190910180546001600160a01b0319166001600160a01b0394851617905591831681526011909152604090206004018290556018805490610fc4906000198301613cbf565b60008060145460001415613b91575081610d7b565b6128926014546118d660135486612ef290919063ffffffff16565b60008184841115613c3b5760405162461bcd60e51b81526004018080602001828103825283818151815260200191508051906020019080838360005b83811015613c00578181015183820152602001613be8565b50505050905090810190601f168015613c2d5780820380516001836020036101000a031916815260200191505b509250505060405180910390fd5b505050900390565b60008183613c925760405162461bcd60e51b8152602060048201818152835160248401528351909283926044909101919085019080838360008315613c00578181015183820152602001613be8565b506000838581613c9e57fe5b0495945050505050565b6000818311613cb8575081610d7b565b5080610d7b565b815481835581811115613ce357600083815260209020613ce3918101908301613ce8565b505050565b6112b691905b80821115613d025760008155600101613cee565b509056fe4344504d616e616765723a20736f727465644c697374206d757374206e6f7420626520656d7074794f776e61626c653a206e6577206f776e657220697320746865207a65726f20616464726573734344504d616e616765723a2043445020646f6573206e6f74206578697374206f7220697320636c6f736564536166654d6174683a206d756c7469706c69636174696f6e206f766572666c6f77a265627a7a72315820109f744cc8005ab7e97f2acd556049716663579032a7eb7dc3ad161064f517a164736f6c63430005100032",
  "source": "pragma solidity ^0.5.16;\r\n\r\nimport \"./Interfaces/IBorrowerOperations.sol\";\r\nimport \"./Interfaces/ICDPManager.sol\";\r\nimport \"./Interfaces/IPool.sol\";\r\nimport \"./Interfaces/IStabilityPool.sol\";\r\nimport \"./Interfaces/ICLVToken.sol\";\r\nimport \"./Interfaces/IPriceFeed.sol\";\r\nimport \"./Interfaces/ISortedCDPs.sol\";\r\nimport \"./Interfaces/IPoolManager.sol\";\r\nimport \"./DeciMath.sol\";\r\n// import \"@openzeppelin/contracts/math/SafeMath.sol\";\r\n// import \"@openzeppelin/contracts/ownership/Ownable.sol\";\r\n// import \"@nomiclabs/buidler/console.sol\";\r\nimport \"./SafeMath.sol\";\r\nimport \"./Ownable.sol\";\r\nimport \"./console.sol\";\r\n\r\ncontract CDPManager is Ownable, ICDPManager {\r\n    using SafeMath for uint;\r\n\r\n    uint constant public MCR = 1100000000000000000; // Minimal collateral ratio.\r\n    uint constant public  CCR = 1500000000000000000; // Critical system collateral ratio. If the total system collateral (TCR) falls below the CCR, Recovery Mode is triggered.\r\n    uint constant public MIN_COLL_IN_USD = 20000000000000000000;\r\n    enum Status { nonExistent, active, closed }\r\n    \r\n    // --- Events --- \r\n\r\n    event BorrowerOperationsAddressChanged(address _newBorrowerOperationsAddress);\r\n    event PoolManagerAddressChanged(address _newPoolManagerAddress);\r\n    event ActivePoolAddressChanged(address _activePoolAddress);\r\n    event DefaultPoolAddressChanged(address _defaultPoolAddress);\r\n    event StabilityPoolAddressChanged(address _stabilityPoolAddress);\r\n    event PriceFeedAddressChanged(address  _newPriceFeedAddress);\r\n    event CLVTokenAddressChanged(address _newCLVTokenAddress);\r\n    event SortedCDPsAddressChanged(address _sortedCDPsAddress);\r\n\r\n    event CDPCreated(address indexed _user, uint arrayIndex);\r\n    event CDPUpdated(address indexed _user, uint _debt, uint _coll, uint stake);\r\n   \r\n    // --- Connected contract declarations ---\r\n\r\n    IBorrowerOperations borrowerOperations;\r\n    address public borrowerOperationsAddress;\r\n\r\n    IPoolManager poolManager;\r\n    address public poolManagerAddress;\r\n\r\n    IPool activePool;\r\n    address public activePoolAddress;\r\n\r\n    IPool defaultPool;\r\n    address public defaultPoolAddress;\r\n\r\n    ICLVToken CLV; \r\n    address public clvTokenAddress;\r\n\r\n    IPriceFeed priceFeed;\r\n    address public priceFeedAddress;\r\n\r\n    IStabilityPool stabilityPool;\r\n    address public stabilityPoolAddress;\r\n\r\n    // A doubly linked list of CDPs, sorted by their sorted by their collateral ratios\r\n    ISortedCDPs sortedCDPs;\r\n    address public sortedCDPsAddress;\r\n\r\n    // --- Data structures ---\r\n\r\n    // Store the necessary data for a Collateralized Debt Position (CDP)\r\n    struct CDP {\r\n        uint debt;\r\n        uint coll;\r\n        uint stake;\r\n        Status status;\r\n        uint arrayIndex;\r\n    }\r\n\r\n    mapping (address => CDP) public CDPs;\r\n\r\n    uint public totalStakes; \r\n\r\n    // snapshot of the value of totalStakes immediately after the last liquidation\r\n    uint public totalStakesSnapshot;  \r\n\r\n    // snapshot of the total collateral in ActivePool and DefaultPool, immediately after the last liquidation.\r\n    uint public totalCollateralSnapshot;    \r\n\r\n    /* L_ETH and L_CLVDebt track the sums of accumulated liquidation rewards per unit staked. During it's lifetime, each stake earns:\r\n\r\n    An ETH gain of ( stake * [L_ETH - L_ETH(0)] )\r\n    A CLVDebt gain  of ( stake * [L_CLVDebt - L_CLVDebt(0)] )\r\n    \r\n    Where L_ETH(0) and L_CLVDebt(0) are snapshots of L_ETH and L_CLVDebt for the active CDP taken at the instant the stake was made */\r\n    uint public L_ETH;     \r\n    uint public L_CLVDebt;    \r\n\r\n    // Map addresses with active CDPs to their RewardSnapshot\r\n    mapping (address => RewardSnapshot) public rewardSnapshots;  \r\n\r\n    // Object containing the ETH and CLV snapshots for a given active CDP\r\n    struct RewardSnapshot { uint ETH; uint CLVDebt;}   \r\n\r\n    // Array of all active CDP addresses - used to compute approx hint for list insertion\r\n    address[] CDPOwners;\r\n\r\n    // Error trackers for the trove redistribution calculation\r\n    uint lastETHError_Redistribution;\r\n    uint lastCLVDebtError_Redistribution;\r\n\r\n    // --- Modifiers ---\r\n\r\n    modifier onlyPoolManager {\r\n        require(_msgSender() == poolManagerAddress, \"CDPManager: Only the poolManager is authorized\");\r\n        _;\r\n    }\r\n\r\n    // --- Dependency setters --- \r\n\r\n    function setBorrowerOperations(address _borrowerOperationsAddress) public onlyOwner {\r\n        borrowerOperationsAddress = _borrowerOperationsAddress;\r\n        borrowerOperations = IBorrowerOperations(_borrowerOperationsAddress);\r\n        emit BorrowerOperationsAddressChanged(_borrowerOperationsAddress);\r\n    }\r\n    \r\n    function setPoolManager(address _poolManagerAddress) public onlyOwner {\r\n        poolManagerAddress = _poolManagerAddress;\r\n        poolManager = IPoolManager(_poolManagerAddress);\r\n        emit PoolManagerAddressChanged(_poolManagerAddress);\r\n    }\r\n\r\n    function setActivePool(address _activePoolAddress) public onlyOwner {\r\n        activePoolAddress = _activePoolAddress;\r\n        activePool = IPool(_activePoolAddress);\r\n        emit ActivePoolAddressChanged(_activePoolAddress);\r\n    }\r\n\r\n    function setDefaultPool(address _defaultPoolAddress) public onlyOwner {\r\n        defaultPoolAddress = _defaultPoolAddress;\r\n        defaultPool = IPool(_defaultPoolAddress);\r\n        emit DefaultPoolAddressChanged(_defaultPoolAddress);\r\n    }\r\n\r\n    function setStabilityPool(address _stabilityPoolAddress) public onlyOwner {\r\n        stabilityPoolAddress = _stabilityPoolAddress;\r\n        stabilityPool = IStabilityPool(_stabilityPoolAddress);\r\n        emit StabilityPoolAddressChanged(_stabilityPoolAddress);\r\n    }\r\n\r\n    function setPriceFeed(address _priceFeedAddress) public onlyOwner {\r\n        priceFeedAddress = _priceFeedAddress;\r\n        priceFeed = IPriceFeed(priceFeedAddress);\r\n        emit PriceFeedAddressChanged(_priceFeedAddress);\r\n    }\r\n\r\n    function setCLVToken(address _clvTokenAddress) public onlyOwner {\r\n        clvTokenAddress = _clvTokenAddress;\r\n        CLV = ICLVToken(_clvTokenAddress);\r\n        emit CLVTokenAddressChanged(_clvTokenAddress);\r\n    }\r\n\r\n    function setSortedCDPs(address _sortedCDPsAddress) public onlyOwner {\r\n        sortedCDPsAddress = _sortedCDPsAddress;\r\n        sortedCDPs = ISortedCDPs(_sortedCDPsAddress);\r\n        emit SortedCDPsAddressChanged(_sortedCDPsAddress);\r\n    }\r\n\r\n    // --- Getters ---\r\n    \r\n    function getCDPOwnersCount() public view returns(uint) {\r\n        return CDPOwners.length;\r\n    }\r\n    \r\n \r\n    // --- CDP Liquidation functions ---\r\n\r\n    // Closes the CDP of the specified user if its individual collateral ratio is lower than the minimum collateral ratio.\r\n    // TODO: Left public for initial testing. Make internal.\r\n    function liquidate(address _user) public returns (bool) {\r\n        uint price = priceFeed.getPrice();\r\n        uint ICR = getCurrentICR(_user, price);\r\n        \r\n        bool recoveryMode = checkRecoveryMode();\r\n\r\n        requireCDPisActive(_user);\r\n\r\n        if (recoveryMode == true) {\r\n            liquidateRecoveryMode(_user, ICR, price);\r\n        } else if (recoveryMode == false) {\r\n            liquidateNormalMode(_user, ICR);\r\n        }  \r\n    }\r\n   \r\n    function liquidateNormalMode(address _user, uint _ICR) internal returns (bool) {\r\n        // If ICR > MCR, don't liquidate \r\n        if (_ICR > MCR) { return false; }\r\n       \r\n        // Get the CDP's entire debt and coll, including pending rewards from distributions\r\n        (uint entireCDPDebt, uint entireCDPColl) = getEntireDebtAndColl(_user);\r\n        _removeStake(_user); \r\n\r\n        uint CLVInPool = stabilityPool.getCLV();\r\n\r\n        // Offset as much debt & collateral as possible against the Stability Pool, and redistribute the remainder\r\n        if (CLVInPool > 0) {\r\n            (uint CLVDebtRemainder, uint ETHRemainder) = poolManager.offset(entireCDPDebt, entireCDPColl, CLVInPool);\r\n            redistributeDebtAndColl(CLVDebtRemainder, ETHRemainder);\r\n        } else {\r\n            redistributeDebtAndColl(entireCDPDebt, entireCDPColl);\r\n        }\r\n\r\n        _closeCDP(_user);\r\n        updateSystemSnapshots();\r\n        emit CDPUpdated(_user, 0, 0, 0);\r\n\r\n        return true;\r\n    }\r\n\r\n    function liquidateRecoveryMode(address _user, uint _ICR, uint _price) internal returns (bool) {\r\n        // If ICR <= 100%, purely redistribute the CDP across all active CDPs\r\n        if (_ICR <= 1000000000000000000) {\r\n            (uint entireCDPDebt, uint entireCDPColl) = getEntireDebtAndColl(_user);\r\n            _removeStake(_user);\r\n            \r\n            redistributeDebtAndColl(entireCDPDebt, entireCDPColl);\r\n\r\n            _closeCDP(_user);\r\n            updateSystemSnapshots();\r\n\r\n        // if 100% < ICR < MCR, offset as much as possible, and redistribute the remainder\r\n        } else if ((_ICR > 1000000000000000000) && (_ICR < MCR)) {\r\n            (uint entireCDPDebt, uint entireCDPColl) = getEntireDebtAndColl(_user);\r\n            _removeStake(_user);\r\n            \r\n            uint CLVInPool = stabilityPool.getCLV();\r\n\r\n            if (CLVInPool > 0) {\r\n                (uint CLVDebtRemainder, uint ETHRemainder) = poolManager.offset(entireCDPDebt, entireCDPColl, CLVInPool);\r\n                redistributeDebtAndColl(CLVDebtRemainder, ETHRemainder);\r\n            } else {\r\n                redistributeDebtAndColl(entireCDPDebt, entireCDPColl);\r\n            }\r\n    \r\n            _closeCDP(_user);\r\n            updateSystemSnapshots();\r\n\r\n        // If CDP has the lowest ICR and there is CLV in the Stability Pool, only offset it as much as possible (no redistribution)\r\n        } else if (_user == sortedCDPs.getLast()) {\r\n            \r\n            uint CLVInPool = stabilityPool.getCLV();\r\n            if (CLVInPool == 0) { return false; }\r\n\r\n            _applyPendingRewards(_user);\r\n            _removeStake(_user);\r\n\r\n            (uint CLVDebtRemainder, uint ETHRemainder) = poolManager.offset(CDPs[_user].debt, \r\n                                                                            CDPs[_user].coll, \r\n                                                                            CLVInPool);\r\n          \r\n            // Close the CDP and update snapshots if the CDP was completely offset against CLV in Stability Pool\r\n            if (CLVDebtRemainder == 0) {\r\n                _closeCDP(_user);\r\n                updateSystemSnapshots();\r\n            }\r\n\r\n            // If loan can not be entirely offset, leave the CDP active, with a reduced coll and debt, and corresponding new stake.\r\n            if (CLVDebtRemainder > 0) {\r\n                // Update system snapshots, excluding the reduced collateral that remains in the CDP\r\n                updateSystemSnapshots_excludeCollRemainder(ETHRemainder);\r\n                \r\n                // Give the loan a new reduced coll and debt, then update stake and totalStakes\r\n                CDPs[_user].coll = ETHRemainder;\r\n                CDPs[_user].debt = CLVDebtRemainder;\r\n                _updateStakeAndTotalStakes(_user);\r\n               \r\n                uint newICR = getCurrentICR(_user, _price);\r\n          \r\n                sortedCDPs.reInsert(_user, newICR, _price, _user, _user); \r\n            }\r\n        } \r\n        emit CDPUpdated(_user, \r\n                    CDPs[_user].debt, \r\n                    CDPs[_user].coll,\r\n                    CDPs[_user].stake\r\n                    );\r\n\r\n        return true;\r\n    }\r\n\r\n    // Closes a maximum number of n multiple under-collateralized CDPs, starting from the one with the lowest collateral ratio\r\n    function liquidateCDPs(uint n) public returns (bool) {  \r\n        uint price = priceFeed.getPrice();\r\n        bool recoveryModeAtStart = checkRecoveryMode();\r\n\r\n        if (recoveryModeAtStart == true) {\r\n            uint i;\r\n            bool backToNormalMode;\r\n\r\n            while (i < n) {\r\n                address user = sortedCDPs.getLast();\r\n                uint collRatio = getCurrentICR(user, price);\r\n                \r\n                // Attempt to close CDP\r\n                if (backToNormalMode == false) {\r\n                    liquidateRecoveryMode(user, collRatio, price);\r\n                    backToNormalMode = !checkRecoveryMode();\r\n                } \r\n                else {\r\n                    if (collRatio < MCR) {\r\n                        liquidateNormalMode(user, collRatio);\r\n                    } else break;  // break if the loop reaches a CDP with ICR >= MCR\r\n                } \r\n                // Break the loop if it reaches the first CDP in the sorted list \r\n                if (user == sortedCDPs.getFirst()) { break ;}\r\n                i++;\r\n            }\r\n            return true;\r\n\r\n        } else if (recoveryModeAtStart == false) {\r\n            uint i;\r\n            while (i < n) {\r\n                address user = sortedCDPs.getLast();\r\n                uint collRatio = getCurrentICR(user, price);\r\n\r\n                // Close CDPs if it is under-collateralized\r\n                if (collRatio < MCR) {\r\n                    liquidateNormalMode(user, collRatio);\r\n                } else break;  // break if the loop reaches a CDP with ICR >= MCR\r\n                \r\n                // Break the loop if it reaches the first CDP in the sorted list \r\n                if (user == sortedCDPs.getFirst()) { break ;}\r\n                i++;\r\n            }       \r\n        }\r\n        return true;\r\n    }\r\n\r\n    // Redeem as much collateral as possible from _cdpUser's CDP in exchange for CLV up to _maxCLVamount\r\n    function redeemCollateralFromCDP(\r\n        address _cdpUser,\r\n        uint _maxCLVamount,\r\n        uint _price,\r\n        address _partialRedemptionHint,\r\n        uint _partialRedemptionHintICR\r\n    )\r\n        internal returns (uint)\r\n    {\r\n        // Determine the remaining amount (lot) to be redeemed, capped by the entire debt of the CDP\r\n        uint CLVLot = DeciMath.getMin(_maxCLVamount, CDPs[_cdpUser].debt); \r\n        \r\n        // Pure division to integer\r\n        uint ETHLot = CLVLot.mul(1e18).div(_price);\r\n        \r\n        // Decrease the debt and collateral of the current CDP according to the lot and corresponding ETH to send\r\n        uint newDebt = (CDPs[_cdpUser].debt).sub(CLVLot);\r\n        uint newColl = (CDPs[_cdpUser].coll).sub(ETHLot);\r\n\r\n        if (newDebt == 0) {\r\n            // No debt left in the CDP, therefore new ICR must be \"infinite\".\r\n            // Passing zero as hint will cause sortedCDPs to descend the list from the head, which is the correct insert position.\r\n            sortedCDPs.reInsert(_cdpUser, 2**256 - 1, _price, address(0), address(0)); \r\n        } else {\r\n            uint newICR = computeICR(newColl, newDebt, _price);\r\n\r\n            // Check if the provided hint is fresh. If not, we bail since trying to reinsert without a good hint will almost\r\n            // certainly result in running out of gas.\r\n            if (newICR != _partialRedemptionHintICR) return 0;\r\n\r\n            sortedCDPs.reInsert(_cdpUser, newICR, _price, _partialRedemptionHint, _partialRedemptionHint);\r\n        }\r\n\r\n        CDPs[_cdpUser].debt = newDebt;\r\n        CDPs[_cdpUser].coll = newColl;\r\n        _updateStakeAndTotalStakes(_cdpUser);\r\n\r\n        // Burn the calculated lot of CLV and send the corresponding ETH to _msgSender()\r\n        poolManager.redeemCollateral(_msgSender(), CLVLot, ETHLot); \r\n\r\n        emit CDPUpdated(\r\n                        _cdpUser,\r\n                        newDebt,\r\n                        newColl,\r\n                        CDPs[_cdpUser].stake\r\n                        ); \r\n\r\n        return CLVLot;\r\n    }\r\n\r\n    function validFirstRedemptionHint(address _firstRedemptionHint, uint _price) internal view returns (bool) {\r\n        if (_firstRedemptionHint == address(0) ||\r\n            !sortedCDPs.contains(_firstRedemptionHint) ||\r\n            getCurrentICR(_firstRedemptionHint, _price) < MCR\r\n        ) {\r\n            return false;\r\n        }\r\n\r\n        address nextCDP = sortedCDPs.getNext(_firstRedemptionHint);\r\n        return nextCDP == address(0) || getCurrentICR(nextCDP, _price) < MCR;\r\n    }\r\n\r\n    /* Send _CLVamount CLV to the system and redeem the corresponding amount of collateral from as many CDPs as are needed to fill the redemption\r\n     request.  Applies pending rewards to a CDP before reducing its debt and coll.\r\n\r\n    Note that if _amount is very large, this function can run out of gas. This can be easily avoided by splitting the total _amount\r\n    in appropriate chunks and calling the function multiple times.\r\n\r\n    All CDPs that are redeemed from -- with the likely exception of the last one -- will end up with no debt left, therefore they will be\r\n    reinsterted at the top of the sortedCDPs list. If the last CDP does have some remaining debt, the reinsertion could be anywhere in the\r\n    list, therefore it requires a hint. A frontend should use getRedemptionHints() to calculate what the ICR of this CDP will be\r\n    after redemption, and pass a hint for its position in the sortedCDPs list along with the ICR value that the hint was found for.\r\n\r\n    If another transaction modifies the list between calling getRedemptionHints() and passing the hints to redeemCollateral(), it\r\n    is very likely that the last (partially) redeemed CDP would end up with a different ICR than what the hint is for. In this case the\r\n    redemption will stop after the last completely redeemed CDP and the sender will keep the remaining CLV amount, which they can attempt\r\n    to redeem later.\r\n     */\r\n    function redeemCollateral(\r\n        uint _CLVamount,\r\n        address _firstRedemptionHint,\r\n        address _partialRedemptionHint,\r\n        uint _partialRedemptionHintICR\r\n    )\r\n        public returns (bool)\r\n    {\r\n        uint remainingCLV = _CLVamount;\r\n        uint price = priceFeed.getPrice();\r\n        address currentCDPuser;\r\n\r\n        if (validFirstRedemptionHint(_firstRedemptionHint, price)) {\r\n            currentCDPuser = _firstRedemptionHint;\r\n        } else {\r\n            currentCDPuser = sortedCDPs.getLast();\r\n\r\n            while (currentCDPuser != address(0) && getCurrentICR(currentCDPuser, price) < MCR) {\r\n                currentCDPuser = sortedCDPs.getPrev(currentCDPuser);\r\n            }\r\n        }\r\n\r\n        // Loop through the CDPs starting from the one with lowest collateral ratio until _amount of CLV is exchanged for collateral\r\n        while (currentCDPuser != address(0) && remainingCLV > 0) {\r\n            // Save the address of the CDP preceding the current one, before potentially modifying the list\r\n            address nextUserToCheck = sortedCDPs.getPrev(currentCDPuser);\r\n\r\n            _applyPendingRewards(currentCDPuser);\r\n\r\n            uint CLVLot = redeemCollateralFromCDP(\r\n                currentCDPuser,\r\n                remainingCLV,\r\n                price,\r\n                _partialRedemptionHint,\r\n                _partialRedemptionHintICR\r\n            );\r\n\r\n            if (CLVLot == 0) break; // Partial redemption hint got out-of-date, therefore we could not redeem from the last CDP\r\n\r\n            remainingCLV = remainingCLV.sub(CLVLot);\r\n            currentCDPuser = nextUserToCheck;\r\n        }\r\n    }\r\n\r\n    // --- Helper functions ---\r\n\r\n    /* getRedemptionHints() - Helper function for redeemCollateral().\r\n     *\r\n     * Find the first and last CDPs that will modified by calling redeemCollateral() with the same _CLVamount and _price,\r\n     * and return the address of the first one and the final ICR of the last one.\r\n     */\r\n    function getRedemptionHints(uint _CLVamount, uint _price)\r\n        public\r\n        view\r\n        returns (address firstRedemptionHint, uint partialRedemptionHintICR)\r\n    {\r\n        uint remainingCLV = _CLVamount;\r\n        address currentCDPuser = sortedCDPs.getLast();\r\n\r\n        while (currentCDPuser != address(0) && getCurrentICR(currentCDPuser, _price) < MCR) {\r\n            currentCDPuser = sortedCDPs.getPrev(currentCDPuser);\r\n        }\r\n\r\n        firstRedemptionHint = currentCDPuser;\r\n\r\n        while (currentCDPuser != address(0) && remainingCLV > 0) {\r\n            uint CLVDebt = CDPs[currentCDPuser].debt.add(computePendingCLVDebtReward(currentCDPuser));\r\n\r\n            if (CLVDebt > remainingCLV) {\r\n                uint ETH = CDPs[currentCDPuser].coll.add(computePendingETHReward(currentCDPuser));\r\n                uint newDebt = CLVDebt.sub(remainingCLV);\r\n\r\n                uint newColl = ETH.sub(remainingCLV.mul(1e18).div(_price));\r\n\r\n                partialRedemptionHintICR = computeICR(newColl, newDebt, _price);\r\n\r\n                break;\r\n            } else {\r\n                remainingCLV = remainingCLV.sub(CLVDebt);\r\n            }\r\n\r\n            currentCDPuser = sortedCDPs.getPrev(currentCDPuser);\r\n        }\r\n    }\r\n\r\n     /* getApproxHint() - return address of a CDP that is, on average, (length / numTrials) positions away in the \r\n    sortedCDPs list from the correct insert position of the CDP to be inserted. \r\n    \r\n    Note: The output address is worst-case O(n) positions away from the correct insert position, however, the function \r\n    is probabilistic. Input can be tuned to guarantee results to a high degree of confidence, e.g:\r\n\r\n    Submitting numTrials = k * sqrt(length), with k = 15 makes it very, very likely that the ouput address will \r\n    be <= sqrt(length) positions away from the correct insert position.\r\n   \r\n    Note on the use of block.timestamp for random number generation: it is known to be gameable by miners. However, no value \r\n    transmission depends on getApproxHint() - it is only used to generate hints for efficient list traversal. In this case, \r\n    there is no profitable exploit.\r\n    */\r\n    function getApproxHint(uint CR, uint numTrials) public view returns(address) {\r\n        require (CDPOwners.length >= 1, \"CDPManager: sortedList must not be empty\");\r\n        uint price = priceFeed.getPrice();\r\n        address hintAddress = sortedCDPs.getLast();\r\n        uint closestICR = getCurrentICR(hintAddress, price);\r\n        uint diff = getAbsoluteDifference(CR, closestICR);\r\n        uint i = 1;\r\n\r\n        while (i < numTrials) {\r\n            uint arrayIndex = getRandomArrayIndex(block.timestamp.add(i), CDPOwners.length);\r\n            address currentAddress = CDPOwners[arrayIndex];\r\n            uint currentICR = getCurrentICR(currentAddress, price);\r\n\r\n            // check if abs(current - CR) > abs(closest - CR), and update closest if current is closer\r\n            uint currentDiff = getAbsoluteDifference(currentICR, CR);\r\n\r\n            if (currentDiff < diff) {\r\n                closestICR = currentICR;\r\n                diff = currentDiff;\r\n                hintAddress = currentAddress;\r\n            }\r\n            i++;\r\n        }\r\n    return hintAddress;\r\n}\r\n\r\n    function getAbsoluteDifference(uint a, uint b) internal view returns(uint) {\r\n        if (a >= b) {\r\n            return a.sub(b);\r\n        } else if (a < b) {\r\n            return b.sub(a);\r\n        }\r\n    }\r\n\r\n    // Convert input to pseudo-random uint in range [0, arrayLength - 1]\r\n    function getRandomArrayIndex(uint input, uint _arrayLength) internal view returns(uint) {\r\n        uint randomIndex = uint256(keccak256(abi.encodePacked(input))) % (_arrayLength);\r\n        return randomIndex;\r\n   }\r\n\r\n    // Return the current collateral ratio (ICR) of a given CDP. Takes pending coll/debt rewards into account.\r\n    function getCurrentICR(address _user, uint _price) public view returns(uint) {\r\n        uint pendingETHReward = computePendingETHReward(_user); \r\n        uint pendingCLVDebtReward = computePendingCLVDebtReward(_user); \r\n        \r\n        uint currentETH = CDPs[_user].coll.add(pendingETHReward); \r\n        uint currentCLVDebt = CDPs[_user].debt.add(pendingCLVDebtReward); \r\n       \r\n        uint ICR = computeICR(currentETH, currentCLVDebt, _price);  \r\n        return ICR;\r\n    }\r\n\r\n    function computeICR(uint _coll, uint _debt, uint _price) view internal returns(uint) {\r\n        // Check if the total debt is higher than 0, to avoid division by 0\r\n        if (_debt > 0) {\r\n\r\n            // Pure division to decimal\r\n            uint newCollRatio = _coll.mul(_price).div(_debt);\r\n\r\n            return newCollRatio;\r\n        }\r\n        // Return the maximal value for uint256 if the CDP has a debt of 0\r\n        else {\r\n            return 2**256 - 1; \r\n        }\r\n    }\r\n\r\n    \r\n    function applyPendingRewards(address _user) external returns(bool) {\r\n        return _applyPendingRewards(_user);\r\n    }\r\n\r\n    // Add the user's coll and debt rewards earned from liquidations, to their CDP\r\n    function _applyPendingRewards(address _user) internal returns(bool) {\r\n        if (hasPendingRewards(_user) == false) { return false; }\r\n        \r\n        requireCDPisActive(_user);\r\n\r\n        // Compute pending rewards\r\n        uint pendingETHReward = computePendingETHReward(_user); \r\n        uint pendingCLVDebtReward = computePendingCLVDebtReward(_user);  \r\n\r\n        // Apply pending rewards\r\n        CDPs[_user].coll = CDPs[_user].coll.add(pendingETHReward);  \r\n        CDPs[_user].debt = CDPs[_user].debt.add(pendingCLVDebtReward); \r\n\r\n        // Tell PM to transfer from DefaultPool to ActivePool when user claims rewards\r\n        poolManager.moveDistributionRewardsToActivePool(pendingCLVDebtReward, pendingETHReward); \r\n\r\n        _updateRewardSnapshots(_user); // 5259 (no rewards)\r\n        return true;\r\n    }\r\n\r\n    // Update user's snapshots of L_ETH and L_CLVDebt to reflect the current values\r\n\r\n    function updateRewardSnapshots(address _user) external returns(bool) {\r\n       return  _updateRewardSnapshots(_user);\r\n    }\r\n\r\n    function _updateRewardSnapshots(address _user) internal returns(bool) {\r\n        rewardSnapshots[_user].ETH = L_ETH; \r\n        rewardSnapshots[_user].CLVDebt = L_CLVDebt; \r\n        return true;\r\n    }\r\n    \r\n    // Get the user's pending accumulated ETH reward, earned by its stake\r\n    function computePendingETHReward(address _user) internal view returns(uint) {\r\n        uint snapshotETH = rewardSnapshots[_user].ETH; \r\n        uint rewardPerUnitStaked = L_ETH.sub(snapshotETH); \r\n        \r\n        if ( rewardPerUnitStaked == 0 ) { return 0; }\r\n       \r\n        uint stake = CDPs[_user].stake;\r\n        \r\n        uint pendingETHReward = stake.mul(rewardPerUnitStaked).div(1e18);\r\n\r\n        return pendingETHReward;\r\n    }\r\n\r\n     // Get the user's pending accumulated CLV reward, earned by its stake\r\n    function computePendingCLVDebtReward(address _user) internal view returns(uint) {\r\n        uint snapshotCLVDebt = rewardSnapshots[_user].CLVDebt;  \r\n        uint rewardPerUnitStaked = L_CLVDebt.sub(snapshotCLVDebt); \r\n       \r\n        if ( rewardPerUnitStaked == 0 ) { return 0; }\r\n       \r\n        uint stake =  CDPs[_user].stake; \r\n      \r\n        uint pendingCLVDebtReward = stake.mul(rewardPerUnitStaked).div(1e18);\r\n     \r\n        return pendingCLVDebtReward;\r\n    }\r\n\r\n    function hasPendingRewards(address _user) public view returns (bool) {\r\n        // A CDP has pending rewards if the current reward sum differs from the CDP's snapshot\r\n        return (rewardSnapshots[_user].ETH != L_ETH);\r\n    }\r\n\r\n    /* Computes the CDPs entire debt and coll, including distribution pending rewards. Transfers any rewards \r\n    from Default Pool to Active Pool. */ \r\n    function getEntireDebtAndColl(address _user) \r\n    internal \r\n    returns (uint debt, uint coll)\r\n    {\r\n        debt = CDPs[_user].debt;\r\n        coll = CDPs[_user].coll;\r\n\r\n        if (hasPendingRewards(_user)) {\r\n            uint pendingCLVDebtReward = computePendingCLVDebtReward(_user);\r\n            uint pendingETHReward = computePendingETHReward(_user);\r\n\r\n            debt = debt.add(pendingCLVDebtReward);\r\n            coll = coll.add(pendingETHReward);\r\n\r\n            poolManager.moveDistributionRewardsToActivePool(pendingCLVDebtReward, pendingETHReward); \r\n        }\r\n\r\n        return (debt, coll);\r\n    }\r\n\r\n    function removeStake(address _user) external returns (bool) {\r\n        return _removeStake(_user);\r\n    }\r\n\r\n    // Remove use's stake from the totalStakes sum, and set their stake to 0\r\n    function _removeStake(address _user) internal returns (bool) {\r\n        uint stake = CDPs[_user].stake;\r\n        totalStakes = totalStakes.sub(stake);\r\n        CDPs[_user].stake = 0;\r\n    }\r\n\r\n    function updateStakeAndTotalStakes(address _user) external returns (uint) {\r\n        return _updateStakeAndTotalStakes(_user);\r\n    }\r\n\r\n    // Update user's stake based on their latest collateral value\r\n    function _updateStakeAndTotalStakes(address _user) internal returns (uint) {\r\n        uint newStake = computeNewStake(CDPs[_user].coll); \r\n        uint oldStake = CDPs[_user].stake;\r\n        CDPs[_user].stake = newStake;\r\n        totalStakes = totalStakes.sub(oldStake).add(newStake);\r\n\r\n        return newStake;\r\n    }\r\n\r\n    function computeNewStake(uint _coll) internal view returns (uint) {\r\n        uint stake;\r\n        if (totalCollateralSnapshot == 0) {\r\n            stake = _coll;\r\n        } else {\r\n            stake = _coll.mul(totalStakesSnapshot).div(totalCollateralSnapshot);\r\n        }\r\n     return stake;\r\n    }\r\n\r\n    function redistributeDebtAndColl(uint _debt, uint _coll) internal returns (bool) {\r\n        if (_debt == 0) { return false; }\r\n        \r\n        if (totalStakes > 0) {\r\n            // Add distributed coll and debt rewards-per-unit-staked to the running totals.\r\n            \r\n            // Division with correction\r\n            uint ETHNumerator = _coll.mul(1e18).add(lastETHError_Redistribution);\r\n            uint CLVDebtNumerator = _debt.mul(1e18).add(lastCLVDebtError_Redistribution);\r\n\r\n            uint ETHRewardPerUnitStaked = ETHNumerator.div(totalStakes);\r\n            uint CLVDebtRewardPerUnitStaked = CLVDebtNumerator.div(totalStakes);\r\n\r\n            lastETHError_Redistribution = ETHNumerator.sub(ETHRewardPerUnitStaked.mul(totalStakes));\r\n            lastCLVDebtError_Redistribution = CLVDebtNumerator.sub(CLVDebtRewardPerUnitStaked.mul(totalStakes));\r\n\r\n            L_ETH = L_ETH.add(ETHRewardPerUnitStaked);\r\n            L_CLVDebt = L_CLVDebt.add(CLVDebtRewardPerUnitStaked);\r\n        }\r\n        // Transfer coll and debt from ActivePool to DefaultPool\r\n        poolManager.liquidate(_debt, _coll);\r\n    }\r\n\r\n    function closeCDP(address _user) external returns (bool) {\r\n        return _closeCDP(_user);\r\n    }\r\n\r\n    function _closeCDP(address _user) internal returns (bool) {\r\n        CDPs[_user].status = Status.closed;\r\n        CDPs[_user].coll = 0;\r\n        CDPs[_user].debt = 0;\r\n        \r\n        rewardSnapshots[_user].ETH = 0;\r\n        rewardSnapshots[_user].CLVDebt = 0;\r\n \r\n        sortedCDPs.remove(_user);\r\n        removeCDPOwner(_user);\r\n       \r\n        return true;\r\n    }\r\n\r\n    // Update the snapshots of system stakes & system collateral\r\n    function updateSystemSnapshots() internal returns (bool) {\r\n        totalStakesSnapshot = totalStakes;\r\n\r\n        /* The total collateral snapshot is the sum of all active collateral and all pending rewards\r\n       (ActivePool ETH + DefaultPool ETH), immediately after the liquidation occurs. */\r\n        uint activeColl = activePool.getETH();\r\n        uint liquidatedColl = defaultPool.getETH();\r\n        totalCollateralSnapshot = activeColl.add(liquidatedColl);\r\n\r\n        return true;\r\n    }\r\n\r\n    // Updates snapshots of system stakes and system collateral, excluding a given collateral remainder from the calculation\r\n    function updateSystemSnapshots_excludeCollRemainder(uint _collRemainder) internal returns (bool) {\r\n        totalStakesSnapshot = totalStakes;\r\n\r\n        uint activeColl = activePool.getETH();\r\n        uint liquidatedColl = defaultPool.getETH();\r\n        totalCollateralSnapshot = activeColl.sub(_collRemainder).add(liquidatedColl);\r\n\r\n        return true;\r\n    }\r\n  \r\n    // Push the owner's address to the CDP owners list, and record the corresponding array index on the CDP struct\r\n    function addCDPOwnerToArray(address _user) external returns (uint index) {\r\n        index = CDPOwners.push(_user) - 1;\r\n        CDPs[_user].arrayIndex = index;\r\n\r\n        return index;\r\n    }\r\n\r\n     /* Remove a CDP owner from the CDPOwners array, preserving array length but not order. Deleting owner 'B' does the following: \r\n    [A B C D E] => [A E C D], and updates E's CDP struct to point to its new array index. */\r\n    function removeCDPOwner(address _user) internal returns(bool) {\r\n        require(CDPs[_user].status == Status.closed, \"CDPManager: CDP is still active\");\r\n\r\n        uint index = CDPs[_user].arrayIndex;   \r\n        address addressToMove = CDPOwners[CDPOwners.length - 1];\r\n       \r\n        CDPOwners[index] = addressToMove;   \r\n        CDPs[addressToMove].arrayIndex = index;   \r\n        CDPOwners.length--;  \r\n    }\r\n  \r\n    function checkRecoveryMode() public view returns (bool){\r\n        uint price = priceFeed.getPrice();\r\n\r\n        uint activeColl = activePool.getETH();\r\n        uint activeDebt = activePool.getCLV();\r\n        uint liquidatedColl = defaultPool.getETH();\r\n        uint closedDebt = defaultPool.getCLV();\r\n\r\n        uint totalCollateral = activeColl.add(liquidatedColl);\r\n        uint totalDebt = activeDebt.add(closedDebt); \r\n\r\n        uint TCR = computeICR(totalCollateral, totalDebt, price); \r\n        \r\n        if (TCR < CCR) {\r\n            return true;\r\n        } else {\r\n            return false;\r\n        }\r\n    }\r\n\r\n    function requireCDPisActive(address _user) internal view {\r\n        require(CDPs[_user].status == Status.active, \"CDPManager: CDP does not exist or is closed\");\r\n    }\r\n\r\n    // --- Trove property getters ---\r\n\r\n    function getCDPStatus(address _user) external view returns (uint) {\r\n        return uint(CDPs[_user].status);\r\n    }\r\n\r\n    function getCDPStake(address _user) external view returns (uint) {\r\n        return CDPs[_user].stake;\r\n    }\r\n\r\n    function getCDPDebt(address _user) external view returns (uint) {\r\n        return CDPs[_user].debt;\r\n    }\r\n\r\n    function getCDPColl(address _user) external view returns (uint) {\r\n        return CDPs[_user].coll;\r\n    }\r\n\r\n    // --- Trove property setters --- \r\n\r\n    function setCDPStatus(address _user, uint num) external {\r\n        CDPs[_user].status = Status(num);\r\n    }\r\n\r\n    function increaseCDPColl(address _user, uint _collIncrease) external returns (uint) {\r\n        uint newColl = CDPs[_user].coll.add(_collIncrease);\r\n        CDPs[_user].coll = newColl;\r\n        return newColl;\r\n    }\r\n\r\n    function decreaseCDPColl(address _user, uint _collDecrease) external returns (uint) {\r\n        uint newColl = CDPs[_user].coll.sub(_collDecrease);\r\n        CDPs[_user].coll = newColl;\r\n        return newColl;\r\n    }\r\n\r\n    function increaseCDPDebt(address _user, uint _debtIncrease) external returns (uint) {\r\n        uint newDebt = CDPs[_user].debt.add(_debtIncrease);\r\n        CDPs[_user].debt = newDebt;\r\n        return newDebt;\r\n    }\r\n\r\n    function decreaseCDPDebt(address _user, uint _debtDecrease) external returns (uint) {\r\n        uint newDebt = CDPs[_user].debt.sub(_debtDecrease);\r\n        CDPs[_user].debt = newDebt;\r\n        return newDebt;\r\n    }\r\n\r\n    // dummy echidna property\r\n    function echidna_alwayTrue() public view returns(bool){\r\n        return (true); \r\n    }\r\n}",
  "sourcePath": "/home/training/contracts/CDPManager.sol",
  "compiler": {
    "name": "solc",
    "version": "0.5.16+commit.9c3226ce.Emscripten.clang"
  },
  "schemaVersion": "3.1.0",
  "updatedAt": "2020-06-03T00:09:09.851Z",
  "devdoc": {
    "methods": {
      "isOwner()": {
        "details": "Returns true if the caller is the current owner."
      },
      "owner()": {
        "details": "Returns the address of the current owner."
      },
      "renounceOwnership()": {
        "details": "Leaves the contract without owner. It will not be possible to call `onlyOwner` functions anymore. Can only be called by the current owner.     * NOTE: Renouncing ownership will leave the contract without an owner, thereby removing any functionality that is only available to the owner."
      },
      "transferOwnership(address)": {
        "details": "Transfers ownership of the contract to a new account (`newOwner`). Can only be called by the current owner."
      }
    }
  },
  "userdoc": {
    "methods": {}
  }
}