{
  "contractName": "CDPManager",
  "abi": [
    {
      "constant": true,
      "inputs": [],
      "name": "recoveryMode",
      "outputs": [
        {
          "internalType": "bool",
          "name": "",
          "type": "bool"
        }
      ],
      "payable": false,
      "stateMutability": "view",
      "type": "function"
    },
    {
      "constant": true,
      "inputs": [
        {
          "internalType": "address",
          "name": "",
          "type": "address"
        }
      ],
      "name": "rewardSnapshots",
      "outputs": [
        {
          "internalType": "uint256",
          "name": "ETH",
          "type": "uint256"
        },
        {
          "internalType": "uint256",
          "name": "CLVDebt",
          "type": "uint256"
        }
      ],
      "payable": false,
      "stateMutability": "view",
      "type": "function"
    },
    {
      "constant": true,
      "inputs": [],
      "name": "sortedCDPsAddress",
      "outputs": [
        {
          "internalType": "address",
          "name": "",
          "type": "address"
        }
      ],
      "payable": false,
      "stateMutability": "view",
      "type": "function"
    },
    {
      "constant": true,
      "inputs": [
        {
          "internalType": "address",
          "name": "",
          "type": "address"
        }
      ],
      "name": "CDPs",
      "outputs": [
        {
          "internalType": "uint256",
          "name": "debt",
          "type": "uint256"
        },
        {
          "internalType": "uint256",
          "name": "coll",
          "type": "uint256"
        },
        {
          "internalType": "uint256",
          "name": "stake",
          "type": "uint256"
        },
        {
          "internalType": "enum CDPManager.Status",
          "name": "status",
          "type": "uint8"
        },
        {
          "internalType": "uint256",
          "name": "arrayIndex",
          "type": "uint256"
        }
      ],
      "payable": false,
      "stateMutability": "view",
      "type": "function"
    },
    {
      "constant": true,
      "inputs": [],
      "name": "CCR",
      "outputs": [
        {
          "internalType": "uint256",
          "name": "",
          "type": "uint256"
        }
      ],
      "payable": false,
      "stateMutability": "view",
      "type": "function"
    },
    {
      "constant": false,
      "inputs": [],
      "name": "renounceOwnership",
      "outputs": [],
      "payable": false,
      "stateMutability": "nonpayable",
      "type": "function"
    },
    {
      "constant": true,
      "inputs": [],
      "name": "MCR",
      "outputs": [
        {
          "internalType": "uint256",
          "name": "",
          "type": "uint256"
        }
      ],
      "payable": false,
      "stateMutability": "view",
      "type": "function"
    },
    {
      "constant": true,
      "inputs": [],
      "name": "totalStakesSnapshot",
      "outputs": [
        {
          "internalType": "uint256",
          "name": "",
          "type": "uint256"
        }
      ],
      "payable": false,
      "stateMutability": "view",
      "type": "function"
    },
    {
      "constant": true,
      "inputs": [],
      "name": "owner",
      "outputs": [
        {
          "internalType": "address",
          "name": "",
          "type": "address"
        }
      ],
      "payable": false,
      "stateMutability": "view",
      "type": "function"
    },
    {
      "constant": true,
      "inputs": [],
      "name": "isOwner",
      "outputs": [
        {
          "internalType": "bool",
          "name": "",
          "type": "bool"
        }
      ],
      "payable": false,
      "stateMutability": "view",
      "type": "function"
    },
    {
      "constant": true,
      "inputs": [],
      "name": "totalCollateralSnapshot",
      "outputs": [
        {
          "internalType": "uint256",
          "name": "",
          "type": "uint256"
        }
      ],
      "payable": false,
      "stateMutability": "view",
      "type": "function"
    },
    {
      "constant": true,
      "inputs": [],
      "name": "L_ETH",
      "outputs": [
        {
          "internalType": "uint256",
          "name": "",
          "type": "uint256"
        }
      ],
      "payable": false,
      "stateMutability": "view",
      "type": "function"
    },
    {
      "constant": true,
      "inputs": [],
      "name": "clvTokenAddress",
      "outputs": [
        {
          "internalType": "address",
          "name": "",
          "type": "address"
        }
      ],
      "payable": false,
      "stateMutability": "view",
      "type": "function"
    },
    {
      "constant": true,
      "inputs": [],
      "name": "defaultPoolAddress",
      "outputs": [
        {
          "internalType": "address",
          "name": "",
          "type": "address"
        }
      ],
      "payable": false,
      "stateMutability": "view",
      "type": "function"
    },
    {
      "constant": true,
      "inputs": [],
      "name": "activePoolAddress",
      "outputs": [
        {
          "internalType": "address",
          "name": "",
          "type": "address"
        }
      ],
      "payable": false,
      "stateMutability": "view",
      "type": "function"
    },
    {
      "constant": true,
      "inputs": [],
      "name": "MIN_COLL_IN_USD",
      "outputs": [
        {
          "internalType": "uint256",
          "name": "",
          "type": "uint256"
        }
      ],
      "payable": false,
      "stateMutability": "view",
      "type": "function"
    },
    {
      "constant": true,
      "inputs": [],
      "name": "totalStakes",
      "outputs": [
        {
          "internalType": "uint256",
          "name": "",
          "type": "uint256"
        }
      ],
      "payable": false,
      "stateMutability": "view",
      "type": "function"
    },
    {
      "constant": true,
      "inputs": [],
      "name": "L_CLVDebt",
      "outputs": [
        {
          "internalType": "uint256",
          "name": "",
          "type": "uint256"
        }
      ],
      "payable": false,
      "stateMutability": "view",
      "type": "function"
    },
    {
      "constant": true,
      "inputs": [],
      "name": "priceFeedAddress",
      "outputs": [
        {
          "internalType": "address",
          "name": "",
          "type": "address"
        }
      ],
      "payable": false,
      "stateMutability": "view",
      "type": "function"
    },
    {
      "constant": true,
      "inputs": [],
      "name": "poolManagerAddress",
      "outputs": [
        {
          "internalType": "address",
          "name": "",
          "type": "address"
        }
      ],
      "payable": false,
      "stateMutability": "view",
      "type": "function"
    },
    {
      "constant": false,
      "inputs": [
        {
          "internalType": "address",
          "name": "newOwner",
          "type": "address"
        }
      ],
      "name": "transferOwnership",
      "outputs": [],
      "payable": false,
      "stateMutability": "nonpayable",
      "type": "function"
    },
    {
      "anonymous": false,
      "inputs": [
        {
          "indexed": false,
          "internalType": "address",
          "name": "_newPoolManagerAddress",
          "type": "address"
        }
      ],
      "name": "PoolManagerAddressChanged",
      "type": "event"
    },
    {
      "anonymous": false,
      "inputs": [
        {
          "indexed": false,
          "internalType": "address",
          "name": "_activePoolAddress",
          "type": "address"
        }
      ],
      "name": "ActivePoolAddressChanged",
      "type": "event"
    },
    {
      "anonymous": false,
      "inputs": [
        {
          "indexed": false,
          "internalType": "address",
          "name": "_defaultPoolAddress",
          "type": "address"
        }
      ],
      "name": "DefaultPoolAddressChanged",
      "type": "event"
    },
    {
      "anonymous": false,
      "inputs": [
        {
          "indexed": false,
          "internalType": "address",
          "name": "_newPriceFeedAddress",
          "type": "address"
        }
      ],
      "name": "PriceFeedAddressChanged",
      "type": "event"
    },
    {
      "anonymous": false,
      "inputs": [
        {
          "indexed": false,
          "internalType": "address",
          "name": "_newCLVTokenAddress",
          "type": "address"
        }
      ],
      "name": "CLVTokenAddressChanged",
      "type": "event"
    },
    {
      "anonymous": false,
      "inputs": [
        {
          "indexed": false,
          "internalType": "address",
          "name": "_sortedCDPsAddress",
          "type": "address"
        }
      ],
      "name": "SortedCDPsAddressChanged",
      "type": "event"
    },
    {
      "anonymous": false,
      "inputs": [
        {
          "indexed": true,
          "internalType": "address",
          "name": "_user",
          "type": "address"
        },
        {
          "indexed": false,
          "internalType": "uint256",
          "name": "arrayIndex",
          "type": "uint256"
        }
      ],
      "name": "CDPCreated",
      "type": "event"
    },
    {
      "anonymous": false,
      "inputs": [
        {
          "indexed": true,
          "internalType": "address",
          "name": "_user",
          "type": "address"
        },
        {
          "indexed": false,
          "internalType": "uint256",
          "name": "_debt",
          "type": "uint256"
        },
        {
          "indexed": false,
          "internalType": "uint256",
          "name": "_coll",
          "type": "uint256"
        },
        {
          "indexed": false,
          "internalType": "uint256",
          "name": "stake",
          "type": "uint256"
        }
      ],
      "name": "CDPUpdated",
      "type": "event"
    },
    {
      "anonymous": false,
      "inputs": [
        {
          "indexed": true,
          "internalType": "address",
          "name": "previousOwner",
          "type": "address"
        },
        {
          "indexed": true,
          "internalType": "address",
          "name": "newOwner",
          "type": "address"
        }
      ],
      "name": "OwnershipTransferred",
      "type": "event"
    },
    {
      "constant": false,
      "inputs": [
        {
          "internalType": "address",
          "name": "_poolManagerAddress",
          "type": "address"
        }
      ],
      "name": "setPoolManager",
      "outputs": [],
      "payable": false,
      "stateMutability": "nonpayable",
      "type": "function"
    },
    {
      "constant": false,
      "inputs": [
        {
          "internalType": "address",
          "name": "_activePoolAddress",
          "type": "address"
        }
      ],
      "name": "setActivePool",
      "outputs": [],
      "payable": false,
      "stateMutability": "nonpayable",
      "type": "function"
    },
    {
      "constant": false,
      "inputs": [
        {
          "internalType": "address",
          "name": "_defaultPoolAddress",
          "type": "address"
        }
      ],
      "name": "setDefaultPool",
      "outputs": [],
      "payable": false,
      "stateMutability": "nonpayable",
      "type": "function"
    },
    {
      "constant": false,
      "inputs": [
        {
          "internalType": "address",
          "name": "_priceFeedAddress",
          "type": "address"
        }
      ],
      "name": "setPriceFeed",
      "outputs": [],
      "payable": false,
      "stateMutability": "nonpayable",
      "type": "function"
    },
    {
      "constant": false,
      "inputs": [
        {
          "internalType": "address",
          "name": "_clvTokenAddress",
          "type": "address"
        }
      ],
      "name": "setCLVToken",
      "outputs": [],
      "payable": false,
      "stateMutability": "nonpayable",
      "type": "function"
    },
    {
      "constant": false,
      "inputs": [
        {
          "internalType": "address",
          "name": "_sortedCDPsAddress",
          "type": "address"
        }
      ],
      "name": "setSortedCDPs",
      "outputs": [],
      "payable": false,
      "stateMutability": "nonpayable",
      "type": "function"
    },
    {
      "constant": true,
      "inputs": [],
      "name": "getCDPOwnersCount",
      "outputs": [
        {
          "internalType": "uint256",
          "name": "",
          "type": "uint256"
        }
      ],
      "payable": false,
      "stateMutability": "view",
      "type": "function"
    },
    {
      "constant": false,
      "inputs": [
        {
          "internalType": "uint256",
          "name": "_CLVAmount",
          "type": "uint256"
        },
        {
          "internalType": "address",
          "name": "_hint",
          "type": "address"
        }
      ],
      "name": "openLoan",
      "outputs": [
        {
          "internalType": "bool",
          "name": "",
          "type": "bool"
        }
      ],
      "payable": true,
      "stateMutability": "payable",
      "type": "function"
    },
    {
      "constant": false,
      "inputs": [
        {
          "internalType": "address",
          "name": "_user",
          "type": "address"
        },
        {
          "internalType": "address",
          "name": "_hint",
          "type": "address"
        }
      ],
      "name": "addColl",
      "outputs": [
        {
          "internalType": "bool",
          "name": "",
          "type": "bool"
        }
      ],
      "payable": true,
      "stateMutability": "payable",
      "type": "function"
    },
    {
      "constant": false,
      "inputs": [
        {
          "internalType": "uint256",
          "name": "_amount",
          "type": "uint256"
        },
        {
          "internalType": "address",
          "name": "_hint",
          "type": "address"
        }
      ],
      "name": "withdrawColl",
      "outputs": [
        {
          "internalType": "bool",
          "name": "",
          "type": "bool"
        }
      ],
      "payable": false,
      "stateMutability": "nonpayable",
      "type": "function"
    },
    {
      "constant": false,
      "inputs": [
        {
          "internalType": "uint256",
          "name": "_amount",
          "type": "uint256"
        },
        {
          "internalType": "address",
          "name": "_hint",
          "type": "address"
        }
      ],
      "name": "withdrawCLV",
      "outputs": [
        {
          "internalType": "bool",
          "name": "",
          "type": "bool"
        }
      ],
      "payable": false,
      "stateMutability": "nonpayable",
      "type": "function"
    },
    {
      "constant": false,
      "inputs": [
        {
          "internalType": "uint256",
          "name": "_amount",
          "type": "uint256"
        },
        {
          "internalType": "address",
          "name": "_hint",
          "type": "address"
        }
      ],
      "name": "repayCLV",
      "outputs": [
        {
          "internalType": "bool",
          "name": "",
          "type": "bool"
        }
      ],
      "payable": false,
      "stateMutability": "nonpayable",
      "type": "function"
    },
    {
      "constant": false,
      "inputs": [],
      "name": "closeLoan",
      "outputs": [
        {
          "internalType": "bool",
          "name": "",
          "type": "bool"
        }
      ],
      "payable": false,
      "stateMutability": "nonpayable",
      "type": "function"
    },
    {
      "constant": false,
      "inputs": [
        {
          "internalType": "address",
          "name": "_user",
          "type": "address"
        }
      ],
      "name": "liquidate",
      "outputs": [
        {
          "internalType": "bool",
          "name": "",
          "type": "bool"
        }
      ],
      "payable": false,
      "stateMutability": "nonpayable",
      "type": "function"
    },
    {
      "constant": false,
      "inputs": [
        {
          "internalType": "uint256",
          "name": "n",
          "type": "uint256"
        }
      ],
      "name": "liquidateCDPs",
      "outputs": [
        {
          "internalType": "bool",
          "name": "",
          "type": "bool"
        }
      ],
      "payable": false,
      "stateMutability": "nonpayable",
      "type": "function"
    },
    {
      "constant": false,
      "inputs": [
        {
          "internalType": "uint256",
          "name": "_CLVamount",
          "type": "uint256"
        },
        {
          "internalType": "address",
          "name": "_firstRedemptionHint",
          "type": "address"
        },
        {
          "internalType": "address",
          "name": "_partialRedemptionHint",
          "type": "address"
        },
        {
          "internalType": "uint256",
          "name": "_partialRedemptionHintICR",
          "type": "uint256"
        }
      ],
      "name": "redeemCollateral",
      "outputs": [
        {
          "internalType": "bool",
          "name": "",
          "type": "bool"
        }
      ],
      "payable": false,
      "stateMutability": "nonpayable",
      "type": "function"
    },
    {
      "constant": true,
      "inputs": [
        {
          "internalType": "uint256",
          "name": "_CLVamount",
          "type": "uint256"
        },
        {
          "internalType": "uint256",
          "name": "_price",
          "type": "uint256"
        }
      ],
      "name": "getRedemptionHints",
      "outputs": [
        {
          "internalType": "address",
          "name": "firstRedemptionHint",
          "type": "address"
        },
        {
          "internalType": "uint256",
          "name": "partialRedemptionHintICR",
          "type": "uint256"
        }
      ],
      "payable": false,
      "stateMutability": "view",
      "type": "function"
    },
    {
      "constant": true,
      "inputs": [
        {
          "internalType": "uint256",
          "name": "CR",
          "type": "uint256"
        },
        {
          "internalType": "uint256",
          "name": "numTrials",
          "type": "uint256"
        }
      ],
      "name": "getApproxHint",
      "outputs": [
        {
          "internalType": "address",
          "name": "",
          "type": "address"
        }
      ],
      "payable": false,
      "stateMutability": "view",
      "type": "function"
    },
    {
      "constant": true,
      "inputs": [
        {
          "internalType": "address",
          "name": "_user",
          "type": "address"
        },
        {
          "internalType": "uint256",
          "name": "_price",
          "type": "uint256"
        }
      ],
      "name": "getCurrentICR",
      "outputs": [
        {
          "internalType": "uint256",
          "name": "",
          "type": "uint256"
        }
      ],
      "payable": false,
      "stateMutability": "view",
      "type": "function"
    },
    {
      "constant": true,
      "inputs": [
        {
          "internalType": "uint256",
          "name": "_coll",
          "type": "uint256"
        },
        {
          "internalType": "uint256",
          "name": "_price",
          "type": "uint256"
        }
      ],
      "name": "getUSDValue",
      "outputs": [
        {
          "internalType": "uint256",
          "name": "",
          "type": "uint256"
        }
      ],
      "payable": false,
      "stateMutability": "view",
      "type": "function"
    },
    {
      "constant": false,
      "inputs": [
        {
          "internalType": "uint256",
          "name": "_price",
          "type": "uint256"
        }
      ],
      "name": "checkTCRAndSetRecoveryMode",
      "outputs": [
        {
          "internalType": "bool",
          "name": "",
          "type": "bool"
        }
      ],
      "payable": false,
      "stateMutability": "nonpayable",
      "type": "function"
    }
  ],
  "bytecode": "0x60806040526000620000196001600160e01b036200006916565b600080546001600160a01b0319166001600160a01b0383169081178255604051929350917f8be0079c531659141344cd1fd0a4f28419497f9722a3daafe3b4186f6b6457e0908290a3506200006d565b3390565b6159ea806200007d6000396000f3fe6080604052600436106102d15760003560e01c80638f32d59b11610179578063bf9befb1116100d6578063e6a13f301161008a578063f7883a8b11610064578063f7883a8b14610904578063f78b338814610937578063fefb4c5814610970576102d1565b8063e6a13f3014610873578063f0e6652714610888578063f2fde38b146108d1576102d1565b8063c5040474116100bb578063c5040474146107ec578063d293c71014610825578063e0abca0b1461085e576102d1565b8063bf9befb1146107c2578063bfd0d886146107d7576102d1565b8063aac1846f1161012d578063b1e9da1f11610112578063b1e9da1f14610751578063b6659dd614610766578063be32837014610796576102d1565b8063aac1846f14610727578063b08bc7221461073c576102d1565b80639dd233d21161015e5780639dd233d2146106c45780639e1d6c78146106d9578063a532483e146106ee576102d1565b80638f32d59b1461069a57806396d711ff146106af576102d1565b806368647db111610232578063794e5724116101e65780638ac54b0d116101c05780638ac54b0d146105ff5780638c192ed4146106525780638da5cb5b14610685576102d1565b8063794e5724146105a25780637aef6715146105b7578063807d138d146105ea576102d1565b80636f30d212116102175780636f30d2121461052a578063715018a61461055a578063724e78da1461056f576102d1565b806368647db1146104d2578063691fcbb714610500576102d1565b80634ecf5726116102895780635733d58f1161026e5780635733d58f146104615780636828482d14610488578063685e91af146104bd576102d1565b80634ecf5726146103bd5780634fa93e66146103ee576102d1565b80631673c79a116102ba5780631673c79a14610329578063232fa733146103755780632f8655681461038a576102d1565b8063020e799a146102d657806307a00b1f14610314575b600080fd5b3480156102e257600080fd5b50610300600480360360208110156102f957600080fd5b50356109a3565b604080519115158252519081900360200190f35b34801561032057600080fd5b50610300610cfa565b34801561033557600080fd5b5061035c6004803603602081101561034c57600080fd5b50356001600160a01b0316610d0a565b6040805192835260208301919091528051918290030190f35b34801561038157600080fd5b50610300610d23565b34801561039657600080fd5b50610300600480360360208110156103ad57600080fd5b50356001600160a01b031661105c565b3480156103c957600080fd5b506103d2611183565b604080516001600160a01b039092168252519081900360200190f35b3480156103fa57600080fd5b506104216004803603602081101561041157600080fd5b50356001600160a01b0316611192565b6040518086815260200185815260200184815260200183600281111561044357fe5b60ff1681526020018281526020019550505050505060405180910390f35b34801561046d57600080fd5b506104766111c4565b60408051918252519081900360200190f35b34801561049457600080fd5b506104bb600480360360208110156104ab57600080fd5b50356001600160a01b03166111d0565b005b3480156104c957600080fd5b50610476611288565b610300600480360360408110156104e857600080fd5b506001600160a01b038135811691602001351661128e565b34801561050c57600080fd5b506103006004803603602081101561052357600080fd5b50356116e5565b34801561053657600080fd5b506104766004803603604081101561054d57600080fd5b508035906020013561198c565b34801561056657600080fd5b506104bb6119bf565b34801561057b57600080fd5b506104bb6004803603602081101561059257600080fd5b50356001600160a01b0316611a62565b3480156105ae57600080fd5b50610476611b22565b3480156105c357600080fd5b506104bb600480360360208110156105da57600080fd5b50356001600160a01b0316611b2e565b3480156105f657600080fd5b50610476611be6565b34801561060b57600080fd5b5061062f6004803603604081101561062257600080fd5b5080359060200135611bec565b604080516001600160a01b03909316835260208301919091528051918290030190f35b34801561065e57600080fd5b506104bb6004803603602081101561067557600080fd5b50356001600160a01b0316611ea0565b34801561069157600080fd5b506103d2611f58565b3480156106a657600080fd5b50610300611f67565b3480156106bb57600080fd5b50610476611f8b565b3480156106d057600080fd5b50610476611f91565b3480156106e557600080fd5b506103d2611f97565b3480156106fa57600080fd5b506103006004803603604081101561071157600080fd5b50803590602001356001600160a01b0316611fa6565b34801561073357600080fd5b506103d261238a565b34801561074857600080fd5b506103d2612399565b34801561075d57600080fd5b506104766123a8565b34801561077257600080fd5b506103d26004803603604081101561078957600080fd5b50803590602001356123b5565b610300600480360360408110156107ac57600080fd5b50803590602001356001600160a01b03166125b0565b3480156107ce57600080fd5b50610476612aa2565b3480156107e357600080fd5b50610476612aa8565b3480156107f857600080fd5b506103006004803603604081101561080f57600080fd5b50803590602001356001600160a01b0316612aae565b34801561083157600080fd5b506104766004803603604081101561084857600080fd5b506001600160a01b038135169060200135612ece565b34801561086a57600080fd5b506103d2612f5f565b34801561087f57600080fd5b506103d2612f6e565b34801561089457600080fd5b50610300600480360360808110156108ab57600080fd5b508035906001600160a01b03602082013581169160408101359091169060600135612f7d565b3480156108dd57600080fd5b506104bb600480360360208110156108f457600080fd5b50356001600160a01b031661322d565b34801561091057600080fd5b506104bb6004803603602081101561092757600080fd5b50356001600160a01b0316613292565b34801561094357600080fd5b506103006004803603604081101561095a57600080fd5b50803590602001356001600160a01b031661334a565b34801561097c57600080fd5b506104bb6004803603602081101561099357600080fd5b50356001600160a01b0316613699565b600080600960009054906101000a90046001600160a01b03166001600160a01b03166398d5fdca6040518163ffffffff1660e01b815260040160206040518083038186803b1580156109f457600080fd5b505afa158015610a08573d6000803e3d6000fd5b505050506040513d6020811015610a1e57600080fd5b505190506000610a2d826116e5565b905060018115151415610b975760005b84811015610b8b57600b5460408051634d62283160e01b815290516000926001600160a01b031691634d622831916004808301926020929190829003018186803b158015610a8a57600080fd5b505afa158015610a9e573d6000803e3d6000fd5b505050506040513d6020811015610ab457600080fd5b505190506000610ac48286612ece565b9050610acf8261105c565b5083158015610ae65750670f43fc2c04ee00008110155b80610b755750600b60009054906101000a90046001600160a01b03166001600160a01b0316631e2231436040518163ffffffff1660e01b815260040160206040518083038186803b158015610b3a57600080fd5b505afa158015610b4e573d6000803e3d6000fd5b505050506040513d6020811015610b6457600080fd5b50516001600160a01b038381169116145b15610b81575050610b8b565b5050600101610a3d565b60019350505050610cf5565b80610cee5760005b84811015610cec57600b5460408051634d62283160e01b815290516000926001600160a01b031691634d622831916004808301926020929190829003018186803b158015610bec57600080fd5b505afa158015610c00573d6000803e3d6000fd5b505050506040513d6020811015610c1657600080fd5b505190506000610c268286612ece565b9050670f43fc2c04ee0000811015610c4757610c418261105c565b50610c4e565b5050610cec565b600b60009054906101000a90046001600160a01b03166001600160a01b0316631e2231436040518163ffffffff1660e01b815260040160206040518083038186803b158015610c9c57600080fd5b505afa158015610cb0573d6000803e3d6000fd5b505050506040513d6020811015610cc657600080fd5b50516001600160a01b0383811691161415610ce2575050610cec565b5050600101610b9f565b505b6001925050505b919050565b600c54600160a01b900460ff1681565b6013602052600090815260409020805460019091015482565b600080600960009054906101000a90046001600160a01b03166001600160a01b03166398d5fdca6040518163ffffffff1660e01b815260040160206040518083038186803b158015610d7457600080fd5b505afa158015610d88573d6000803e3d6000fd5b505050506040513d6020811015610d9e57600080fd5b505190506000610dad826116e5565b90506000610db9613751565b9050610dc481613755565b5060016001600160a01b0382166000908152600d602052604090206003015460ff166002811115610df157fe5b14610e2d5760405162461bcd60e51b815260040180806020018281038252602b815260200180615679602b913960400191505060405180910390fd5b8115610e6a5760405162461bcd60e51b81526004018080602001828103825260408152602001806156a46040913960400191505060405180910390fd5b6001600160a01b0381166000908152600d60205260408120600181015490549091610e96838388613916565b90506714d1120d7b160000811015610edf5760405162461bcd60e51b815260040180806020018281038252603881526020018061560e6038913960400191505060405180910390fd5b610ee884613b54565b50610ef284613ba7565b506001546040805163b96c518160e01b81526001600160a01b038781166004830152602482018690529151919092169163b96c51819160448083019260209291908290030181600087803b158015610f4957600080fd5b505af1158015610f5d573d6000803e3d6000fd5b505050506040513d6020811015610f7357600080fd5b505060015460408051637ab46ec760e11b81526001600160a01b038781166004830152602482018790529151919092169163f568dd8e9160448083019260209291908290030181600087803b158015610fcb57600080fd5b505af1158015610fdf573d6000803e3d6000fd5b505050506040513d6020811015610ff557600080fd5b506110019050866116e5565b50604080516000808252602082018190528183015290516001600160a01b038616917f2089894292d66b85abed43c6f71beaa6404b56065da9b6ef3112fddf9c53d9ac919081900360600190a2600196505050505050505b90565b600080600960009054906101000a90046001600160a01b03166001600160a01b03166398d5fdca6040518163ffffffff1660e01b815260040160206040518083038186803b1580156110ad57600080fd5b505afa1580156110c1573d6000803e3d6000fd5b505050506040513d60208110156110d757600080fd5b5051905060006110e6826116e5565b905060016001600160a01b0385166000908152600d602052604090206003015460ff16600281111561111457fe5b146111505760405162461bcd60e51b81526004018080602001828103825260338152602001806157196033913960400191505060405180910390fd5b6001811515141561116b576111658483613c5f565b5061117c565b8061117c5761117a8483614125565b505b5050919050565b600c546001600160a01b031681565b600d602052600090815260409020805460018201546002830154600384015460049094015492939192909160ff169085565b6714d1120d7b16000081565b6111d8611f67565b611229576040805162461bcd60e51b815260206004820181905260248201527f4f776e61626c653a2063616c6c6572206973206e6f7420746865206f776e6572604482015290519081900360640190fd5b600c80546001600160a01b0383166001600160a01b03199182168117909255600b80549091168217905560408051918252517f328bb7558e87ad9d5a9ba346a1e55a13c7998dd76b12ae08ee93a729ff23147a9181900360200190a150565b60145490565b6000806000600960009054906101000a90046001600160a01b03166001600160a01b03166398d5fdca6040518163ffffffff1660e01b815260040160206040518083038186803b1580156112e157600080fd5b505afa1580156112f5573d6000803e3d6000fd5b505050506040513d602081101561130b57600080fd5b50516001600160a01b0386166000908152600d602052604081206003015491925060ff9091169081600281111561133e57fe5b14806113555750600281600281111561135357fe5b145b156113d7576801158e460913d0000061136e348461198c565b10156113ab5760405162461bcd60e51b815260040180806020018281038252604f8152602001806158b7604f913960600191505060405180910390fd5b6001600160a01b0386166000908152600d60205260409020600301805460ff1916600190811790915592505b6113e086613755565b506001600160a01b0386166000908152600d602052604081206001015461140d903463ffffffff6142a116565b6001600160a01b0388166000908152600d602052604090206001018190559050611436876142fb565b5060006114438885612ece565b9050841561156957600b5460408051633a7bc51160e11b81526001600160a01b038b8116600483015260248201859052604482018890528a8116606483018190526084830152915191909216916374f78a229160a480830192600092919082900301818387803b1580156114b657600080fd5b505af11580156114ca573d6000803e3d6000fd5b505060148054600181019091557fce6d7b5282bd9a3661ae061feed1dbda4e52ab073b1f9285be6e155d9c38d4ec810180546001600160a01b0319166001600160a01b038d169081179091556000818152600d6020908152604091829020600401849055815193845290519194507f9aae360b1167f55ad3b0cb0b44f33887cdbbffea820e0a955295af4a05fa31f493509181900390910190a26115eb565b600b5460408051621d45b760e21b81526001600160a01b038b8116600483015260248201859052604482018890528a811660648301819052608483015291519190921691627516dc9160a480830192600092919082900301818387803b1580156115d257600080fd5b505af11580156115e6573d6000803e3d6000fd5b505050505b600160009054906101000a90046001600160a01b03166001600160a01b03166325a2e6e7346040518263ffffffff1660e01b81526004016020604051808303818588803b15801561163b57600080fd5b505af115801561164f573d6000803e3d6000fd5b50505050506040513d602081101561166657600080fd5b506116729050846116e5565b506001600160a01b0388166000818152600d6020908152604091829020805460029091015483519182529181018690528083019190915290517f2089894292d66b85abed43c6f71beaa6404b56065da9b6ef3112fddf9c53d9ac9181900360600190a26001955050505050505b92915050565b600080600360009054906101000a90046001600160a01b03166001600160a01b03166314f6c3be6040518163ffffffff1660e01b815260040160206040518083038186803b15801561173657600080fd5b505afa15801561174a573d6000803e3d6000fd5b505050506040513d602081101561176057600080fd5b50516003546040805163e1cf19c160e01b815290519293506000926001600160a01b039092169163e1cf19c191600480820192602092909190829003018186803b1580156117ad57600080fd5b505afa1580156117c1573d6000803e3d6000fd5b505050506040513d60208110156117d757600080fd5b505160055460408051630a7b61df60e11b815290519293506000926001600160a01b03909216916314f6c3be91600480820192602092909190829003018186803b15801561182457600080fd5b505afa158015611838573d6000803e3d6000fd5b505050506040513d602081101561184e57600080fd5b50516005546040805163e1cf19c160e01b815290519293506000926001600160a01b039092169163e1cf19c191600480820192602092909190829003018186803b15801561189b57600080fd5b505afa1580156118af573d6000803e3d6000fd5b505050506040513d60208110156118c557600080fd5b5051905060006118db858463ffffffff6142a116565b905060006118ef858463ffffffff6142a116565b905060006118fe83838b614379565b905060006714d1120d7b160000821080156119235750600c54600160a01b900460ff16155b156119435750600c805460ff60a01b1916600160a01b179055600161197f565b6714d1120d7b16000082101580156119695750600c54600160a01b900460ff1615156001145b1561197f5750600c805460ff60a01b1916905560005b9998505050505050505050565b6000806119b7670de0b6b3a76400006119ab858763ffffffff6143a916565b9063ffffffff61440216565b949350505050565b6119c7611f67565b611a18576040805162461bcd60e51b815260206004820181905260248201527f4f776e61626c653a2063616c6c6572206973206e6f7420746865206f776e6572604482015290519081900360640190fd5b600080546040516001600160a01b03909116907f8be0079c531659141344cd1fd0a4f28419497f9722a3daafe3b4186f6b6457e0908390a3600080546001600160a01b0319169055565b611a6a611f67565b611abb576040805162461bcd60e51b815260206004820181905260248201527f4f776e61626c653a2063616c6c6572206973206e6f7420746865206f776e6572604482015290519081900360640190fd5b600a80546001600160a01b038084166001600160a01b0319928316811793849055600980549093169390911692909217905560408051918252517f8c537274438aa850a330284665d81a85dd38267d09e4050d416bfc94142db2649181900360200190a150565b670f43fc2c04ee000081565b611b36611f67565b611b87576040805162461bcd60e51b815260206004820181905260248201527f4f776e61626c653a2063616c6c6572206973206e6f7420746865206f776e6572604482015290519081900360640190fd5b600280546001600160a01b0383166001600160a01b03199182168117909255600180549091168217905560408051918252517f4d839b74477afe774fbb734df87db25e56c0427973aac588bb3ce7ce937f88509181900360200190a150565b600f5481565b600b5460408051634d62283160e01b815290516000928392869284926001600160a01b031691634d622831916004808301926020929190829003018186803b158015611c3757600080fd5b505afa158015611c4b573d6000803e3d6000fd5b505050506040513d6020811015611c6157600080fd5b505190505b6001600160a01b03811615801590611c8e5750670f43fc2c04ee0000611c8c8287612ece565b105b15611d1357600b5460408051632dc9c0eb60e21b81526001600160a01b0384811660048301529151919092169163b72703ac916024808301926020929190829003018186803b158015611ce057600080fd5b505afa158015611cf4573d6000803e3d6000fd5b505050506040513d6020811015611d0a57600080fd5b50519050611c66565b8093505b6001600160a01b03811615801590611d2f5750600082115b15611e97576000611d67611d4283614444565b6001600160a01b0384166000908152600d60205260409020549063ffffffff6142a116565b905082811115611e03576000611da7611d7f846144ca565b6001600160a01b0385166000908152600d60205260409020600101549063ffffffff6142a116565b90506000611dbb838663ffffffff6144f816565b90506000611deb611dde8a6119ab89670de0b6b3a764000063ffffffff6143a916565b849063ffffffff6144f816565b9050611df881838b614379565b965050505050611e97565b611e13838263ffffffff6144f816565b9250600b5460408051632dc9c0eb60e21b81526001600160a01b0385811660048301529151919092169163b72703ac916024808301926020929190829003018186803b158015611e6257600080fd5b505afa158015611e76573d6000803e3d6000fd5b505050506040513d6020811015611e8c57600080fd5b50519150611d179050565b50509250929050565b611ea8611f67565b611ef9576040805162461bcd60e51b815260206004820181905260248201527f4f776e61626c653a2063616c6c6572206973206e6f7420746865206f776e6572604482015290519081900360640190fd5b600680546001600160a01b0383166001600160a01b03199182168117909255600580549091168217905560408051918252517f5ee0cae2f063ed938bb55046f6a932fb6ae792bf43624806bb90abe68a50be9b9181900360200190a150565b6000546001600160a01b031690565b600080546001600160a01b0316611f7c613751565b6001600160a01b031614905090565b60105481565b60115481565b6008546001600160a01b031681565b600080600960009054906101000a90046001600160a01b03166001600160a01b03166398d5fdca6040518163ffffffff1660e01b815260040160206040518083038186803b158015611ff757600080fd5b505afa15801561200b573d6000803e3d6000fd5b505050506040513d602081101561202157600080fd5b505190506000612030826116e5565b9050600061203c613751565b905060016001600160a01b0382166000908152600d602052604090206003015460ff16600281111561206a57fe5b146120a65760405162461bcd60e51b815260040180806020018281038252602b815260200180615679602b913960400191505060405180910390fd5b600086116120e55760405162461bcd60e51b81526004018080602001828103825260348152602001806155b46034913960400191505060405180910390fd5b6120ee81613755565b5060006120fd6000888661453a565b9050600061210c83898761474c565b9050831561214b5760405162461bcd60e51b815260040180806020018281038252603f81526020018061574c603f913960400191505060405180910390fd5b6714d1120d7b1600008210156121925760405162461bcd60e51b815260040180806020018281038252604c815260200180615824604c913960600191505060405180910390fd5b670f43fc2c04ee00008110156121d95760405162461bcd60e51b815260040180806020018281038252603c8152602001806157ac603c913960400191505060405180910390fd5b6001600160a01b0383166000908152600d6020526040812054612202908a63ffffffff6142a116565b6001600160a01b038086166000818152600d6020526040808220859055600b548151621d45b760e21b8152600481019490945260248401889052604484018c90528d8516606485018190526084850152905194955090921692627516dc9260a48084019391929182900301818387803b15801561227e57600080fd5b505af1158015612292573d6000803e3d6000fd5b5050600154604080516305d2177b60e31b81526001600160a01b038981166004830152602482018f90529151919092169350632e90bbd8925060448083019260209291908290030181600087803b1580156122ec57600080fd5b505af1158015612300573d6000803e3d6000fd5b505050506040513d602081101561231657600080fd5b50506001600160a01b0384166000818152600d602090815260409182902060018101546002909101548351868152928301919091528183015290517f2089894292d66b85abed43c6f71beaa6404b56065da9b6ef3112fddf9c53d9ac9181900360600190a250600198975050505050505050565b6006546001600160a01b031681565b6004546001600160a01b031681565b6801158e460913d0000081565b601454600090600111156123fa5760405162461bcd60e51b81526004018080602001828103825260288152602001806155116028913960400191505060405180910390fd5b600954604080517f98d5fdca00000000000000000000000000000000000000000000000000000000815290516000926001600160a01b0316916398d5fdca916004808301926020929190829003018186803b15801561245857600080fd5b505afa15801561246c573d6000803e3d6000fd5b505050506040513d602081101561248257600080fd5b5051600b5460408051634d62283160e01b815290519293506000926001600160a01b0390921691634d62283191600480820192602092909190829003018186803b1580156124cf57600080fd5b505afa1580156124e3573d6000803e3d6000fd5b505050506040513d60208110156124f957600080fd5b5051905060006125098284612ece565b9050600061251787836147e3565b905060015b868110156125a4576000612541612539428463ffffffff6142a116565b60145461481b565b905060006014828154811061255257fe5b60009182526020822001546001600160a01b031691506125728289612ece565b90506000612580828d6147e3565b905085811015612594578196508095508297505b50506001909201915061251c9050565b50919695505050505050565b600080600960009054906101000a90046001600160a01b03166001600160a01b03166398d5fdca6040518163ffffffff1660e01b815260040160206040518083038186803b15801561260157600080fd5b505afa158015612615573d6000803e3d6000fd5b505050506040513d602081101561262b57600080fd5b50519050600061263a826116e5565b90506000612646613751565b905060016001600160a01b0382166000908152600d602052604090206003015460ff16600281111561267457fe5b14156126b15760405162461bcd60e51b815260040180806020018281038252602e815260200180615941602e913960400191505060405180910390fd5b8115806126bc575085155b6126f75760405162461bcd60e51b815260040180806020018281038252603f81526020018061574c603f913960400191505060405180910390fd5b6801158e460913d0000061270b348561198c565b10156127485760405162461bcd60e51b815260040180806020018281038252604f8152602001806158b7604f913960600191505060405180910390fd5b6000612755348886614379565b9050670f43fc2c04ee000081101561279e5760405162461bcd60e51b815260040180806020018281038252603b815260200180615906603b913960400191505060405180910390fd5b60006127ab34898761453a565b90506714d1120d7b160000811015806127c2575087155b6127fd5760405162461bcd60e51b815260040180806020018281038252604c815260200180615568604c913960600191505060405180910390fd5b6001600160a01b0383166000908152600d6020526040902060038101805460ff19166001908117909155349082015588905561283883614852565b50612842836142fb565b50600b5460408051633a7bc51160e11b81526001600160a01b03868116600483015260248201869052604482018990528a8116606483018190526084830152915191909216916374f78a229160a480830192600092919082900301818387803b1580156128ae57600080fd5b505af11580156128c2573d6000803e3d6000fd5b50506014805460018082019092557fce6d7b5282bd9a3661ae061feed1dbda4e52ab073b1f9285be6e155d9c38d4ec810180546001600160a01b0319166001600160a01b038981169182179092556000908152600d6020908152604091829020600490810194909455935481517f25a2e6e70000000000000000000000000000000000000000000000000000000081529151921695506325a2e6e7945034938184019390929182900301818588803b15801561297d57600080fd5b505af1158015612991573d6000803e3d6000fd5b50505050506040513d60208110156129a857600080fd5b5050600154604080516305d2177b60e31b81526001600160a01b038681166004830152602482018c905291519190921691632e90bbd89160448083019260209291908290030181600087803b158015612a0057600080fd5b505af1158015612a14573d6000803e3d6000fd5b505050506040513d6020811015612a2a57600080fd5b50612a369050856116e5565b506001600160a01b0383166000818152600d60209081526040918290206002015482518c815234928101929092528183015290517f2089894292d66b85abed43c6f71beaa6404b56065da9b6ef3112fddf9c53d9ac9181900360600190a2506001979650505050505050565b600e5481565b60125481565b600080600960009054906101000a90046001600160a01b03166001600160a01b03166398d5fdca6040518163ffffffff1660e01b815260040160206040518083038186803b158015612aff57600080fd5b505afa158015612b13573d6000803e3d6000fd5b505050506040513d6020811015612b2957600080fd5b50519050612b36816116e5565b506000612b41613751565b905060016001600160a01b0382166000908152600d602052604090206003015460ff166002811115612b6f57fe5b14612bab5760405162461bcd60e51b815260040180806020018281038252602b815260200180615679602b913960400191505060405180910390fd5b612bb481613755565b506001600160a01b0381166000908152600d602052604090206001015485811015612c105760405162461bcd60e51b81526004018080602001828103825260338152602001806156466033913960400191505060405180910390fd5b6000612c22828863ffffffff6144f816565b90506801158e460913d00000612c38828661198c565b101580612c43575080155b612c7e5760405162461bcd60e51b81526004018080602001828103825260478152602001806158706047913960600191505060405180910390fd5b6000612c8b84898761487e565b600c54909150600160a01b900460ff1615612cd75760405162461bcd60e51b815260040180806020018281038252604781526020018061596f6047913960600191505060405180910390fd5b670f43fc2c04ee0000811015612d1e5760405162461bcd60e51b815260040180806020018281038252603c8152602001806157e8603c913960400191505060405180910390fd5b6001600160a01b0384166000908152600d60205260409020600101829055612d45846142fb565b5081612d5a57612d5484613ba7565b50612e3e565b600b5460408051621d45b760e21b81526001600160a01b03878116600483015260248201859052604482018990528a811660648301819052608483015291519190921691627516dc9160a480830192600092919082900301818387803b158015612dc357600080fd5b505af1158015612dd7573d6000803e3d6000fd5b505050506001600160a01b0384166000818152600d6020908152604091829020805460029091015483519182529181018690528083019190915290517f2089894292d66b85abed43c6f71beaa6404b56065da9b6ef3112fddf9c53d9ac9181900360600190a25b60015460408051637ab46ec760e11b81526001600160a01b038781166004830152602482018c90529151919092169163f568dd8e9160448083019260209291908290030181600087803b158015612e9457600080fd5b505af1158015612ea8573d6000803e3d6000fd5b505050506040513d6020811015612ebe57600080fd5b5060019998505050505050505050565b600080612eda846144ca565b90506000612ee785614444565b6001600160a01b0386166000908152600d602052604081206001015491925090612f17908463ffffffff6142a116565b6001600160a01b0387166000908152600d602052604081205491925090612f44908463ffffffff6142a116565b90506000612f53838389614379565b98975050505050505050565b600a546001600160a01b031681565b6002546001600160a01b031681565b6000808590506000600960009054906101000a90046001600160a01b03166001600160a01b03166398d5fdca6040518163ffffffff1660e01b815260040160206040518083038186803b158015612fd357600080fd5b505afa158015612fe7573d6000803e3d6000fd5b505050506040513d6020811015612ffd57600080fd5b50519050600061300d8783614915565b15613019575085613143565b600b60009054906101000a90046001600160a01b03166001600160a01b0316634d6228316040518163ffffffff1660e01b815260040160206040518083038186803b15801561306757600080fd5b505afa15801561307b573d6000803e3d6000fd5b505050506040513d602081101561309157600080fd5b505190505b6001600160a01b038116158015906130be5750670f43fc2c04ee00006130bc8284612ece565b105b1561314357600b5460408051632dc9c0eb60e21b81526001600160a01b0384811660048301529151919092169163b72703ac916024808301926020929190829003018186803b15801561311057600080fd5b505afa158015613124573d6000803e3d6000fd5b505050506040513d602081101561313a57600080fd5b50519050613096565b6001600160a01b0381161580159061315b5750600083115b1561322257600b5460408051632dc9c0eb60e21b81526001600160a01b0384811660048301529151600093929092169163b72703ac91602480820192602092909190829003018186803b1580156131b157600080fd5b505afa1580156131c5573d6000803e3d6000fd5b505050506040513d60208110156131db57600080fd5b505190506131e882613755565b5060006131f88386868b8b614aa9565b905080613206575050613222565b613216858263ffffffff6144f816565b94508192505050613143565b505050949350505050565b613235611f67565b613286576040805162461bcd60e51b815260206004820181905260248201527f4f776e61626c653a2063616c6c6572206973206e6f7420746865206f776e6572604482015290519081900360640190fd5b61328f81614db1565b50565b61329a611f67565b6132eb576040805162461bcd60e51b815260206004820181905260248201527f4f776e61626c653a2063616c6c6572206973206e6f7420746865206f776e6572604482015290519081900360640190fd5b600480546001600160a01b0383166001600160a01b03199182168117909255600380549091168217905560408051918252517f78f058b189175430c48dc02699e3a0031ea4ff781536dc2fab847de4babdd8829181900360200190a150565b600080600960009054906101000a90046001600160a01b03166001600160a01b03166398d5fdca6040518163ffffffff1660e01b815260040160206040518083038186803b15801561339b57600080fd5b505afa1580156133af573d6000803e3d6000fd5b505050506040513d60208110156133c557600080fd5b5051905060006133d3613751565b905060016001600160a01b0382166000908152600d602052604090206003015460ff16600281111561340157fe5b1461343d5760405162461bcd60e51b815260040180806020018281038252602b815260200180615679602b913960400191505060405180910390fd5b6000851161347c5760405162461bcd60e51b815260040180806020018281038252602f815260200180615539602f913960400191505060405180910390fd5b61348581613755565b506001600160a01b0381166000908152600d6020526040902054808611156134de5760405162461bcd60e51b81526004018080602001828103825260358152602001806156e46035913960400191505060405180910390fd5b60006134f0828863ffffffff6144f816565b6001600160a01b0384166000908152600d602052604081208290559091506135188486612ece565b600b5460408051621d45b760e21b81526001600160a01b03888116600483015260248201859052604482018a90528b81166064830181905260848301529151939450911691627516dc9160a48082019260009290919082900301818387803b15801561358357600080fd5b505af1158015613597573d6000803e3d6000fd5b50506001546040805163b96c518160e01b81526001600160a01b038981166004830152602482018e9052915191909216935063b96c5181925060448083019260209291908290030181600087803b1580156135f157600080fd5b505af1158015613605573d6000803e3d6000fd5b505050506040513d602081101561361b57600080fd5b506136279050856116e5565b506001600160a01b0384166000818152600d602090815260409182902060018101546002909101548351878152928301919091528183015290517f2089894292d66b85abed43c6f71beaa6404b56065da9b6ef3112fddf9c53d9ac9181900360600190a2506001979650505050505050565b6136a1611f67565b6136f2576040805162461bcd60e51b815260206004820181905260248201527f4f776e61626c653a2063616c6c6572206973206e6f7420746865206f776e6572604482015290519081900360640190fd5b600880546001600160a01b0383166001600160a01b03199182168117909255600780549091168217905560408051918252517f373a23842c9bfba0a655597bb13c6493895da5266bd6617086a73f8dcfe2ae709181900360200190a150565b3390565b6011546001600160a01b0382166000908152601360205260408120549091141561378157506000610cf5565b60016001600160a01b0383166000908152600d602052604090206003015460ff1660028111156137ad57fe5b146137e95760405162461bcd60e51b81526004018080602001828103825260288152602001806154e96028913960400191505060405180910390fd5b60006137f4836144ca565b9050600061380184614444565b6001600160a01b0385166000908152600d6020526040902060010154909150613830908363ffffffff6142a116565b6001600160a01b0385166000908152600d60205260409020600181019190915554613861908263ffffffff6142a116565b6001600160a01b038086166000908152600d602090815260408083209490945560015484517ff09892710000000000000000000000000000000000000000000000000000000081526004810187905260248101889052945193169363f09892719360448083019491928390030190829087803b1580156138e057600080fd5b505af11580156138f4573d6000803e3d6000fd5b505050506040513d602081101561390a57600080fd5b50610cec905084614852565b600080600360009054906101000a90046001600160a01b03166001600160a01b03166314f6c3be6040518163ffffffff1660e01b815260040160206040518083038186803b15801561396757600080fd5b505afa15801561397b573d6000803e3d6000fd5b505050506040513d602081101561399157600080fd5b50516003546040805163e1cf19c160e01b815290519293506000926001600160a01b039092169163e1cf19c191600480820192602092909190829003018186803b1580156139de57600080fd5b505afa1580156139f2573d6000803e3d6000fd5b505050506040513d6020811015613a0857600080fd5b505160055460408051630a7b61df60e11b815290519293506000926001600160a01b03909216916314f6c3be91600480820192602092909190829003018186803b158015613a5557600080fd5b505afa158015613a69573d6000803e3d6000fd5b505050506040513d6020811015613a7f57600080fd5b50516005546040805163e1cf19c160e01b815290519293506000926001600160a01b039092169163e1cf19c191600480820192602092909190829003018186803b158015613acc57600080fd5b505afa158015613ae0573d6000803e3d6000fd5b505050506040513d6020811015613af657600080fd5b505190506000613b1c89613b10878663ffffffff6142a116565b9063ffffffff6144f816565b90506000613b3489613b10878663ffffffff6142a116565b90506000613b4383838b614379565b9750505050505050505b9392505050565b6001600160a01b0381166000908152600d6020526040812060020154600e54613b83908263ffffffff6144f816565b600e55506001600160a01b039091166000908152600d602052604081206002015590565b6001600160a01b038181166000818152600d602052604080822060038101805460ff1916600217905560018101839055829055600b5481517f29092d0e00000000000000000000000000000000000000000000000000000000815260048101949094529051919316916329092d0e916024808301928692919082900301818387803b158015613c3557600080fd5b505af1158015613c49573d6000803e3d6000fd5b50505050613c5682614e51565b50600192915050565b600080613c6c8484612ece565b9050670de0b6b3a76400008111613cd557613c8684613755565b50613c9084613b54565b506001600160a01b0384166000908152600d6020526040902060018101549054613cba8282614f7a565b50613cc486613ba7565b50613ccd615119565b5050506140ac565b670de0b6b3a764000081118015613cf35750670f43fc2c04ee000081105b15613de857613d0184613755565b50613d0b84613b54565b50613d14615483565b600180546001600160a01b038781166000908152600d60205260408082208054950154815163335525ad60e01b8152600481019690965260248601528051929093169363335525ad93604480830194919391928390030190829087803b158015613d7d57600080fd5b505af1158015613d91573d6000803e3d6000fd5b505050506040513d601f19601f820116820180604052506040811015613db657600080fd5b508051602082015191925090613dcc8183614f7a565b50613dd687613ba7565b50613ddf615119565b505050506140ac565b600b60009054906101000a90046001600160a01b03166001600160a01b0316634d6228316040518163ffffffff1660e01b815260040160206040518083038186803b158015613e3657600080fd5b505afa158015613e4a573d6000803e3d6000fd5b505050506040513d6020811015613e6057600080fd5b50516001600160a01b038581169116148015613ef45750600160009054906101000a90046001600160a01b03166001600160a01b03166385cb43e86040518163ffffffff1660e01b815260040160206040518083038186803b158015613ec557600080fd5b505afa158015613ed9573d6000803e3d6000fd5b505050506040513d6020811015613eef57600080fd5b505115155b156140ac57613f0284613755565b50613f0c84613b54565b50613f15615483565b600180546001600160a01b038781166000908152600d60205260408082208054950154815163335525ad60e01b8152600481019690965260248601528051929093169363335525ad93604480830194919391928390030190829087803b158015613f7e57600080fd5b505af1158015613f92573d6000803e3d6000fd5b505050506040513d601f19601f820116820180604052506040811015613fb757600080fd5b50805160208201519192509081613fdc57613fd187613ba7565b50613fda615119565b505b81156140a857613feb8161522a565b506001600160a01b0387166000908152600d6020526040902060018101829055829055614017876142fb565b5060006140248888612ece565b600b5460408051621d45b760e21b81526001600160a01b038c81166004830181905260248301869052604483018d90526064830181905260848301529151939450911691627516dc9160a48082019260009290919082900301818387803b15801561408e57600080fd5b505af11580156140a2573d6000803e3d6000fd5b50505050505b5050505b6140b5836116e5565b506001600160a01b0384166000818152600d6020908152604091829020805460018201546002909201548451918252928101919091528083019190915290517f2089894292d66b85abed43c6f71beaa6404b56065da9b6ef3112fddf9c53d9ac9181900360600190a25092915050565b6000806141328484612ece565b9050670f43fc2c04ee000081111561414e5760009150506116df565b61415784613755565b5061416184613b54565b5061416a615483565b600180546001600160a01b038781166000908152600d60205260408082208054950154815163335525ad60e01b8152600481019690965260248601528051929093169363335525ad93604480830194919391928390030190829087803b1580156141d357600080fd5b505af11580156141e7573d6000803e3d6000fd5b505050506040513d601f19601f82011682018060405250604081101561420c57600080fd5b5080516020820151919250906142228183614f7a565b5061422c87613ba7565b50614235615119565b506001600160a01b0387166000818152600d60209081526040808320600201548151848152928301939093528181019290925290517f2089894292d66b85abed43c6f71beaa6404b56065da9b6ef3112fddf9c53d9ac9181900360600190a25060019695505050505050565b600082820183811015613b4d576040805162461bcd60e51b815260206004820152601b60248201527f536166654d6174683a206164646974696f6e206f766572666c6f770000000000604482015290519081900360640190fd5b6001600160a01b0381166000908152600d6020526040812060010154819061432290615340565b6001600160a01b0384166000908152600d60205260409020600201805490829055600e549192509061436c908390614360908463ffffffff6144f816565b9063ffffffff6142a116565b600e555060019392505050565b600082156143a0576000614397846119ab878663ffffffff6143a916565b9150613b4d9050565b50600019613b4d565b6000826143b8575060006116df565b828202828482816143c557fe5b0414613b4d5760405162461bcd60e51b815260040180806020018281038252602181526020018061578b6021913960400191505060405180910390fd5b6000613b4d83836040518060400160405280601a81526020017f536166654d6174683a206469766973696f6e206279207a65726f000000000000815250615370565b6001600160a01b0381166000908152601360205260408120600101546012548290614475908363ffffffff6144f816565b90508061448757600092505050610cf5565b6001600160a01b0384166000908152600d6020526040812060020154906144c0670de0b6b3a76400006119ab848663ffffffff6143a916565b9695505050505050565b6001600160a01b0381166000908152601360205260408120546011548290614475908363ffffffff6144f816565b6000613b4d83836040518060400160405280601e81526020017f536166654d6174683a207375627472616374696f6e206f766572666c6f770000815250615412565b600080600360009054906101000a90046001600160a01b03166001600160a01b03166314f6c3be6040518163ffffffff1660e01b815260040160206040518083038186803b15801561458b57600080fd5b505afa15801561459f573d6000803e3d6000fd5b505050506040513d60208110156145b557600080fd5b50516003546040805163e1cf19c160e01b815290519293506000926001600160a01b039092169163e1cf19c191600480820192602092909190829003018186803b15801561460257600080fd5b505afa158015614616573d6000803e3d6000fd5b505050506040513d602081101561462c57600080fd5b505160055460408051630a7b61df60e11b815290519293506000926001600160a01b03909216916314f6c3be91600480820192602092909190829003018186803b15801561467957600080fd5b505afa15801561468d573d6000803e3d6000fd5b505050506040513d60208110156146a357600080fd5b50516005546040805163e1cf19c160e01b815290519293506000926001600160a01b039092169163e1cf19c191600480820192602092909190829003018186803b1580156146f057600080fd5b505afa158015614704573d6000803e3d6000fd5b505050506040513d602081101561471a57600080fd5b50519050600061473489614360878663ffffffff6142a116565b90506000613b3489614360878663ffffffff6142a116565b600080614758856144ca565b9050600061476586614444565b6001600160a01b0387166000908152600d602052604081206001015491925090614795908463ffffffff6142a116565b6001600160a01b0388166000908152600d6020526040812054919250906147c2908463ffffffff6142a116565b905060006147d6828963ffffffff6142a116565b905061197f838289614379565b6000818310614803576147fc838363ffffffff6144f816565b90506116df565b818310156116df576147fc828463ffffffff6144f816565b6040805160208082018590528251808303820181529183019092528051910120600090819083908161484957fe5b06949350505050565b6011546001600160a01b0382166000908152601360205260409020908155601254600191820155919050565b60008061488a856144ca565b9050600061489786614444565b6001600160a01b0387166000908152600d6020526040812060010154919250906148c7908463ffffffff6142a116565b6001600160a01b0388166000908152600d6020526040812054919250906148f4908463ffffffff6142a116565b90506000614908838963ffffffff6144f816565b905061197f818389614379565b60006001600160a01b03831615806149bc5750600b54604080517f5dbe47e80000000000000000000000000000000000000000000000000000000081526001600160a01b03868116600483015291519190921691635dbe47e8916024808301926020929190829003018186803b15801561498e57600080fd5b505afa1580156149a2573d6000803e3d6000fd5b505050506040513d60208110156149b857600080fd5b5051155b806149d75750670f43fc2c04ee00006149d58484612ece565b105b156149e4575060006116df565b600b54604080517f765e01590000000000000000000000000000000000000000000000000000000081526001600160a01b0386811660048301529151600093929092169163765e015991602480820192602092909190829003018186803b158015614a4e57600080fd5b505afa158015614a62573d6000803e3d6000fd5b505050506040513d6020811015614a7857600080fd5b505190506001600160a01b03811615806119b75750670f43fc2c04ee0000614aa08285612ece565b10949350505050565b6001600160a01b0385166000908152600d60205260408120548190614acf90879061546c565b90506000614aef866119ab84670de0b6b3a764000063ffffffff6143a916565b6001600160a01b0389166000908152600d602052604081205491925090614b1c908463ffffffff6144f816565b6001600160a01b038a166000908152600d602052604081206001015491925090614b4c908463ffffffff6144f816565b905081614bd757600b5460408051621d45b760e21b81526001600160a01b038d811660048301526000196024830152604482018c9052600060648301819052608483018190529251931692627516dc9260a48084019391929182900301818387803b158015614bba57600080fd5b505af1158015614bce573d6000803e3d6000fd5b50505050614c7e565b6000614be482848b614379565b9050868114614bfb57600095505050505050614da8565b600b5460408051621d45b760e21b81526001600160a01b038e8116600483015260248201859052604482018d90528b811660648301819052608483015291519190921691627516dc9160a480830192600092919082900301818387803b158015614c6457600080fd5b505af1158015614c78573d6000803e3d6000fd5b50505050505b6001600160a01b038a166000908152600d60205260409020828155600101819055614ca88a6142fb565b506001546001600160a01b0316637cb19fe8614cc2613751565b86866040518463ffffffff1660e01b815260040180846001600160a01b03166001600160a01b031681526020018381526020018281526020019350505050602060405180830381600087803b158015614d1a57600080fd5b505af1158015614d2e573d6000803e3d6000fd5b505050506040513d6020811015614d4457600080fd5b50506001600160a01b038a166000818152600d60209081526040918290206002015482518681529182018590528183015290517f2089894292d66b85abed43c6f71beaa6404b56065da9b6ef3112fddf9c53d9ac9181900360600190a25091925050505b95945050505050565b6001600160a01b038116614df65760405162461bcd60e51b81526004018080602001828103825260268152602001806155e86026913960400191505060405180910390fd5b600080546040516001600160a01b03808516939216917f8be0079c531659141344cd1fd0a4f28419497f9722a3daafe3b4186f6b6457e091a3600080546001600160a01b0319166001600160a01b0392909216919091179055565b600060026001600160a01b0383166000908152600d602052604090206003015460ff166002811115614e7f57fe5b14614ed1576040805162461bcd60e51b815260206004820152601f60248201527f4344504d616e616765723a20434450206973207374696c6c2061637469766500604482015290519081900360640190fd5b6001600160a01b0382166000908152600d6020526040812060040154601480549192916000198101908110614f0257fe5b600091825260209091200154601480546001600160a01b039092169250829184908110614f2b57fe5b600091825260208083209190910180546001600160a01b0319166001600160a01b039485161790559183168152600d90915260409020600401829055601480549061117a9060001983016154a1565b600081156116df57600e541561507957601554600090614fac9061436086670de0b6b3a764000063ffffffff6143a916565b90506000614fd1601654614360670de0b6b3a7640000876143a990919063ffffffff16565b90506000614fea600e548461440290919063ffffffff16565b90506000615003600e548461440290919063ffffffff16565b905061502a61501d600e54846143a990919063ffffffff16565b859063ffffffff6144f816565b601555600e5461504590611dde90839063ffffffff6143a916565b60165560115461505b908363ffffffff6142a116565b601155601254615071908263ffffffff6142a116565b601255505050505b600154604080517fd296d1f1000000000000000000000000000000000000000000000000000000008152600481018590526024810186905290516001600160a01b039092169163d296d1f1916044808201926020929091908290030181600087803b1580156150e757600080fd5b505af11580156150fb573d6000803e3d6000fd5b505050506040513d602081101561511157600080fd5b505092915050565b600e54600f5560035460408051630a7b61df60e11b8152905160009283926001600160a01b03909116916314f6c3be91600480820192602092909190829003018186803b15801561516957600080fd5b505afa15801561517d573d6000803e3d6000fd5b505050506040513d602081101561519357600080fd5b505160055460408051630a7b61df60e11b815290519293506000926001600160a01b03909216916314f6c3be91600480820192602092909190829003018186803b1580156151e057600080fd5b505afa1580156151f4573d6000803e3d6000fd5b505050506040513d602081101561520a57600080fd5b5051905061521e828263ffffffff6142a116565b60105550600191505090565b600e54600f5560035460408051630a7b61df60e11b8152905160009283926001600160a01b03909116916314f6c3be91600480820192602092909190829003018186803b15801561527a57600080fd5b505afa15801561528e573d6000803e3d6000fd5b505050506040513d60208110156152a457600080fd5b505160055460408051630a7b61df60e11b815290519293506000926001600160a01b03909216916314f6c3be91600480820192602092909190829003018186803b1580156152f157600080fd5b505afa158015615305573d6000803e3d6000fd5b505050506040513d602081101561531b57600080fd5b5051905061533381614360848763ffffffff6144f816565b6010555060019392505050565b600080601054600014156153555750816116df565b613b4d6010546119ab600f54866143a990919063ffffffff16565b600081836153fc5760405162461bcd60e51b81526004018080602001828103825283818151815260200191508051906020019080838360005b838110156153c15781810151838201526020016153a9565b50505050905090810190601f1680156153ee5780820380516001836020036101000a031916815260200191505b509250505060405180910390fd5b50600083858161540857fe5b0495945050505050565b600081848411156154645760405162461bcd60e51b81526020600482018181528351602484015283519092839260449091019190850190808383600083156153c15781810151838201526020016153a9565b505050900390565b600081831161547c5750816116df565b50806116df565b60405180604001604052806002906020820280388339509192915050565b8154818355818111156154c5576000838152602090206154c59181019083016154ca565b505050565b61105991905b808211156154e457600081556001016154d0565b509056fe4344504d616e616765723a2075736572206d757374206861766520616e20616374697665204344504344504d616e616765723a20736f727465644c697374206d757374206e6f7420626520656d7074794344504d616e616765723a2052657061696420616d6f756e74206d757374206265206c6172676572207468616e20304344504d616e616765723a206f70656e696e672061206c6f616e207468617420776f756c6420726573756c7420696e206120544352203c20434352206973206e6f74207065726d69747465644344504d616e616765723a20416d6f756e7420746f207769746864726177206d757374206265206c6172676572207468616e20304f776e61626c653a206e6577206f776e657220697320746865207a65726f20616464726573734344504d616e616765723a20436c6f73696e6720746865206c6f616e206d757374206e6f742070756c6c205443522062656c6f77204343524344504d616e616765723a20496e73756666696369656e742062616c616e636520666f7220455448207769746864726177616c4344504d616e616765723a2043445020646f6573206e6f74206578697374206f7220697320636c6f7365644344504d616e616765723a20436c6f73696e672061206c6f616e206973206e6f74207065726d697474656420647572696e67205265636f76657279204d6f64654344504d616e616765723a2052657061696420616d6f756e74206973206c6172676572207468616e2063757272656e7420646562744344504d616e616765723a2043445020646f6573206e6f74206578697374206f7220697320616c726561647920636c6f7365644344504d616e616765723a20446562742069737375616e6365206973206e6f74207065726d697474656420647572696e67205265636f76657279204d6f6465536166654d6174683a206d756c7469706c69636174696f6e206f766572666c6f774344504d616e616765723a20496e73756666696369656e7420636f6c6c61746572616c20726174696f20666f7220434c56207769746864726177616c4344504d616e616765723a20496e73756666696369656e7420636f6c6c61746572616c20726174696f20666f7220455448207769746864726177616c4344504d616e616765723a206120434c56207769746864726177616c207468617420776f756c6420726573756c7420696e20544352203c20434352206973206e6f74207065726d69747465644344504d616e616765723a2052656d61696e696e6720636f6c6c61746572616c206d757374206861766520245553442076616c7565203e3d2032302c206f72206265207a65726f4344504d616e616765723a20446f6c6c61722076616c7565206f6620636f6c6c61746572616c206465706f736974206d75737420657175616c206f722065786365656420746865206d696e696d756d4344504d616e616765723a20494352206f662070726f7370656374697665206c6f616e206d757374206265203e3d207468616e20746865204d43524344504d616e616765723a20426f72726f77657220616c72656164792068617320616e20616374697665204344504344504d616e616765723a20436f6c6c61746572616c207769746864726177616c206973206e6f74207065726d697474656420647572696e67205265636f76657279204d6f6465a265627a7a72315820b055c38fa64f398ee357247fc77c91ea0e06c899bf2334fc2376860694e1818264736f6c634300050b0032",
  "source": "pragma solidity ^0.5.11;\r\n\r\nimport \"./Interfaces/ICDPManager.sol\";\r\nimport \"./Interfaces/IPool.sol\";\r\nimport \"./Interfaces/ICLVToken.sol\";\r\nimport \"./Interfaces/IPriceFeed.sol\";\r\nimport \"./Interfaces/ISortedCDPs.sol\";\r\nimport \"./Interfaces/IPoolManager.sol\";\r\nimport \"./DeciMath.sol\";\r\nimport \"@openzeppelin/contracts/math/SafeMath.sol\";\r\nimport \"@openzeppelin/contracts/ownership/Ownable.sol\";\r\nimport \"@nomiclabs/buidler/console.sol\";\r\n\r\ncontract CDPManager is Ownable, ICDPManager {\r\n    using SafeMath for uint;\r\n\r\n    uint constant public MCR = 1100000000000000000; // Minimal collateral ratio.\r\n    uint constant public  CCR = 1500000000000000000; // Critical system collateral ratio. If the total system collateral (TCR) falls below the CCR, Recovery Mode is triggered.\r\n    uint constant public MIN_COLL_IN_USD = 20000000000000000000;\r\n    enum Status { nonExistent, active, closed }\r\n    \r\n    // --- Events --- \r\n\r\n    event PoolManagerAddressChanged(address _newPoolManagerAddress);\r\n    event ActivePoolAddressChanged(address _activePoolAddress);\r\n    event DefaultPoolAddressChanged(address _defaultPoolAddress);\r\n    event PriceFeedAddressChanged(address  _newPriceFeedAddress);\r\n    event CLVTokenAddressChanged(address _newCLVTokenAddress);\r\n    event SortedCDPsAddressChanged(address _sortedCDPsAddress);\r\n\r\n    event CDPCreated(address indexed _user, uint arrayIndex);\r\n    event CDPUpdated(address indexed _user, uint _debt, uint _coll, uint stake);\r\n   \r\n    // --- Connected contract declarations ---\r\n\r\n    IPoolManager poolManager;\r\n    address public poolManagerAddress;\r\n\r\n    IPool activePool;\r\n    address public activePoolAddress;\r\n\r\n    IPool defaultPool;\r\n    address public defaultPoolAddress;\r\n\r\n    ICLVToken CLV; \r\n    address public clvTokenAddress;\r\n\r\n    IPriceFeed priceFeed;\r\n    address public priceFeedAddress;\r\n\r\n    // A doubly linked list of CDPs, sorted by their sorted by their collateral ratios\r\n    ISortedCDPs sortedCDPs;\r\n    address public sortedCDPsAddress;\r\n\r\n    // --- Data structures ---\r\n\r\n    // Store the necessary data for a Collateralized Debt Position (CDP)\r\n    struct CDP {\r\n        uint debt;\r\n        uint coll;\r\n        uint stake;\r\n        Status status;\r\n        uint arrayIndex;\r\n    }\r\n    \r\n    bool public recoveryMode;\r\n\r\n    mapping (address => CDP) public CDPs;\r\n\r\n    uint public totalStakes; \r\n\r\n    // snapshot of the value of totalStakes immediately after the last liquidation\r\n    uint public totalStakesSnapshot;  \r\n\r\n    // snapshot of the total collateral in ActivePool and DefaultPool, immediately after the last liquidation.\r\n    uint public totalCollateralSnapshot;    \r\n\r\n    /* L_ETH and L_CLVDebt track the sums of accumulated liquidation rewards per unit staked. During it's lifetime, each stake earns:\r\n\r\n    An ETH gain of ( stake * [L_ETH - L_ETH(0)] )\r\n    A CLVDebt gain  of ( stake * [L_CLVDebt - L_CLVDebt(0)] )\r\n    \r\n    Where L_ETH(0) and L_CLVDebt(0) are snapshots of L_ETH and L_CLVDebt for the active CDP taken at the instant the stake was made */\r\n    uint public L_ETH;     \r\n    uint public L_CLVDebt;    \r\n\r\n    // Map addresses with active CDPs to their RewardSnapshot\r\n    mapping (address => RewardSnapshot) public rewardSnapshots;  \r\n\r\n    // Object containing the ETH and CLV snapshots for a given active CDP\r\n    struct RewardSnapshot { uint ETH; uint CLVDebt;}   \r\n\r\n    // Array of all active CDP addresses - used to compute approx hint for list insertion\r\n    address[] CDPOwners;\r\n\r\n    // Error trackers for the trove redistribution calculation\r\n    uint lastETHError_Redistribution;\r\n    uint lastCLVDebtError_Redistribution;\r\n\r\n    // --- Modifiers ---\r\n\r\n    modifier onlyPoolManager {\r\n        require(_msgSender() == poolManagerAddress, \"CDPManager: Only the poolManager is authorized\");\r\n        _;\r\n    }\r\n\r\n    // --- Dependency setters --- \r\n\r\n    function setPoolManager(address _poolManagerAddress) public onlyOwner {\r\n        poolManagerAddress = _poolManagerAddress;\r\n        poolManager = IPoolManager(_poolManagerAddress);\r\n        emit PoolManagerAddressChanged(_poolManagerAddress);\r\n    }\r\n\r\n    function setActivePool(address _activePoolAddress) public onlyOwner {\r\n        activePoolAddress = _activePoolAddress;\r\n        activePool = IPool(_activePoolAddress);\r\n        emit ActivePoolAddressChanged(_activePoolAddress);\r\n    }\r\n\r\n    function setDefaultPool(address _defaultPoolAddress) public onlyOwner {\r\n        defaultPoolAddress = _defaultPoolAddress;\r\n        defaultPool = IPool(_defaultPoolAddress);\r\n        emit DefaultPoolAddressChanged(_defaultPoolAddress);\r\n    }\r\n\r\n    function setPriceFeed(address _priceFeedAddress) public onlyOwner {\r\n        priceFeedAddress = _priceFeedAddress;\r\n        priceFeed = IPriceFeed(priceFeedAddress);\r\n        emit PriceFeedAddressChanged(_priceFeedAddress);\r\n    }\r\n\r\n    function setCLVToken(address _clvTokenAddress) public onlyOwner {\r\n        clvTokenAddress = _clvTokenAddress;\r\n        CLV = ICLVToken(_clvTokenAddress);\r\n        emit CLVTokenAddressChanged(_clvTokenAddress);\r\n    }\r\n\r\n    function setSortedCDPs(address _sortedCDPsAddress) public onlyOwner {\r\n        sortedCDPsAddress = _sortedCDPsAddress;\r\n        sortedCDPs = ISortedCDPs(_sortedCDPsAddress);\r\n        emit SortedCDPsAddressChanged(_sortedCDPsAddress);\r\n    }\r\n\r\n    // --- Getters ---\r\n    \r\n    function getCDPOwnersCount() public view returns(uint) {\r\n        return CDPOwners.length;\r\n    }\r\n    \r\n    // --- Borrower CDP Operations ---\r\n\r\n    function openLoan(uint _CLVAmount, address _hint) public payable returns (bool) {\r\n        uint price = priceFeed.getPrice(); \r\n        bool recoveryMode = checkTCRAndSetRecoveryMode(price); \r\n        \r\n        address user = _msgSender(); \r\n       \r\n        require(CDPs[user].status != Status.active, \"CDPManager: Borrower already has an active CDP\"); \r\n        require(recoveryMode == false || _CLVAmount == 0, \"CDPManager: Debt issuance is not permitted during Recovery Mode\"); \r\n        \r\n        require(getUSDValue(msg.value, price) >= MIN_COLL_IN_USD, \r\n                \"CDPManager: Dollar value of collateral deposit must equal or exceed the minimum\");  \r\n       \r\n        uint ICR = computeICR(msg.value, _CLVAmount, price);  \r\n        require(ICR >= MCR, \"CDPManager: ICR of prospective loan must be >= than the MCR\"); \r\n      \r\n        uint newTCR = getNewTCR(msg.value, _CLVAmount, price);  \r\n        require (newTCR >= CCR || _CLVAmount == 0, \"CDPManager: opening a loan that would result in a TCR < CCR is not permitted\"); \r\n       \r\n        // Update loan properties\r\n        CDPs[user].status = Status.active;  \r\n        CDPs[user].coll = msg.value;  \r\n        CDPs[user].debt = _CLVAmount; \r\n       \r\n        updateRewardSnapshots(user); \r\n        updateStakeAndTotalStakes(user); \r\n        \r\n        sortedCDPs.insert(user, ICR, price, _hint, _hint); \r\n        \r\n        /* push the owner's address to the CDP owners list, and record \r\n        the corresponding array index on the CDP struct */\r\n        CDPs[user].arrayIndex = CDPOwners.push(user) - 1; \r\n        \r\n        // Move the ether to the activePool, and mint CLV to the borrower\r\n        poolManager.addColl.value(msg.value)(); \r\n    \r\n        poolManager.withdrawCLV(user, _CLVAmount); \r\n       \r\n        checkTCRAndSetRecoveryMode(price); \r\n        emit CDPUpdated(user, \r\n                        _CLVAmount, \r\n                        msg.value,\r\n                        CDPs[user].stake\r\n                        ); \r\n        return true;\r\n    }\r\n\r\n    // Send ETH as collateral to a CDP\r\n    function addColl(address _user, address _hint) public payable returns (bool) {\r\n        bool isFirstCollDeposit;\r\n        uint price = priceFeed.getPrice();\r\n       \r\n        Status status = CDPs[_user].status;\r\n    \r\n        if (status == Status.nonExistent || status == Status.closed ) {\r\n            require(getUSDValue(msg.value, price) >= MIN_COLL_IN_USD, \r\n                    \"CDPManager: Dollar value of collateral deposit must equal or exceed the minimum\");\r\n            isFirstCollDeposit = true; \r\n            CDPs[_user].status = Status.active;\r\n        } \r\n\r\n        applyPendingRewards(_user);\r\n       \r\n        // Update the CDP's coll and stake\r\n        uint newColl = (CDPs[_user].coll).add(msg.value);\r\n        CDPs[_user].coll = newColl;\r\n\r\n        updateStakeAndTotalStakes(_user);\r\n        \r\n        uint newICR = getCurrentICR(_user, price);\r\n   \r\n        if (isFirstCollDeposit) { \r\n            sortedCDPs.insert(_user, newICR, price, _hint, _hint);\r\n             /* push the owner's address to the CDP owners list, and record \r\n            the corresponding array index on the CDP struct */\r\n            CDPs[_user].arrayIndex = CDPOwners.push(_user) - 1;\r\n            emit CDPCreated(_user, CDPs[_user].arrayIndex);\r\n        } else {\r\n            sortedCDPs.reInsert(_user, newICR, price, _hint, _hint);  \r\n        }\r\n\r\n        // Send the received collateral to PoolManager, to forward to ActivePool\r\n        poolManager.addColl.value(msg.value)();\r\n  \r\n        checkTCRAndSetRecoveryMode(price);\r\n        emit CDPUpdated(_user, \r\n                        CDPs[_user].debt, \r\n                        newColl,\r\n                        CDPs[_user].stake\r\n                        );\r\n        return true;\r\n    }\r\n    \r\n    // Withdraw ETH collateral from a CDP\r\n    // TODO: Check re-entrancy protection\r\n    function withdrawColl(uint _amount, address _hint) public returns (bool) {\r\n        uint price = priceFeed.getPrice();\r\n        checkTCRAndSetRecoveryMode(price);\r\n\r\n        address user = _msgSender();\r\n        require(CDPs[user].status == Status.active, \"CDPManager: CDP does not exist or is closed\");\r\n       \r\n        applyPendingRewards(user);\r\n        uint coll = CDPs[user].coll;\r\n        require(coll >= _amount, \"CDPManager: Insufficient balance for ETH withdrawal\");\r\n        \r\n        uint newColl = coll.sub(_amount);\r\n        require(getUSDValue(newColl, price) >= MIN_COLL_IN_USD  || newColl == 0, \r\n                \"CDPManager: Remaining collateral must have $USD value >= 20, or be zero\");\r\n\r\n     \r\n        uint newICR = getNewICRfromCollDecrease(user, _amount, price); \r\n\r\n        require(recoveryMode == false, \"CDPManager: Collateral withdrawal is not permitted during Recovery Mode\");\r\n        require(newICR >= MCR, \"CDPManager: Insufficient collateral ratio for ETH withdrawal\");\r\n        \r\n        // Update the CDP's coll and stake\r\n        CDPs[user].coll = newColl;\r\n        updateStakeAndTotalStakes(user);\r\n\r\n        if (newColl == 0) { \r\n             closeCDP(user);  \r\n        }  else { \r\n        // Update CDP's position in sortedCDPs\r\n            sortedCDPs.reInsert(user, newICR, price, _hint, _hint);\r\n            emit CDPUpdated(user, \r\n                            CDPs[user].debt, \r\n                            newColl,\r\n                            CDPs[user].stake\r\n                            ); \r\n        }\r\n         // Remove _amount ETH from ActivePool and send it to the user\r\n        poolManager.withdrawColl(user, _amount);\r\n\r\n        return true;\r\n    }\r\n    \r\n    // Withdraw CLV tokens from a CDP: mint new CLV to the owner, and increase the debt accordingly\r\n    function withdrawCLV(uint _amount, address _hint) public returns (bool) {\r\n        uint price = priceFeed.getPrice();\r\n        bool recoveryMode = checkTCRAndSetRecoveryMode(price);\r\n\r\n        address user = _msgSender();\r\n        \r\n        require(CDPs[user].status == Status.active, \"CDPManager: CDP does not exist or is closed\");\r\n        require(_amount > 0, \"CDPManager: Amount to withdraw must be larger than 0\");\r\n        \r\n        applyPendingRewards(user);\r\n\r\n        uint newTCR = getNewTCR(0, _amount, price);\r\n        uint newICR = getNewICRfromDebtIncrease(user, _amount, price);\r\n        \r\n        require(recoveryMode == false, \"CDPManager: Debt issuance is not permitted during Recovery Mode\");\r\n        require(newTCR >= CCR, \"CDPManager: a CLV withdrawal that would result in TCR < CCR is not permitted\");\r\n        require(newICR >= MCR, \"CDPManager: Insufficient collateral ratio for CLV withdrawal\");\r\n        \r\n        // Increase the CDP's debt\r\n        uint newDebt = (CDPs[user].debt).add(_amount);\r\n        CDPs[user].debt = newDebt;\r\n\r\n        // Update CDP's position in sortedCDPs\r\n        sortedCDPs.reInsert(user, newICR, price, _hint, _hint);\r\n\r\n        // Mint the given amount of CLV to the owner's address and add them to the ActivePool\r\n        poolManager.withdrawCLV(user, _amount);\r\n        \r\n        emit CDPUpdated(user, \r\n                        newDebt, \r\n                        CDPs[user].coll, \r\n                        CDPs[user].stake\r\n                        ); \r\n        return true; \r\n    }\r\n    \r\n    // Repay CLV tokens to a CDP: Burn the repaid CLV tokens, and reduce the debt accordingly\r\n    function repayCLV(uint _amount, address _hint) public returns (bool) {\r\n        uint price = priceFeed.getPrice();\r\n        address user = _msgSender();\r\n        \r\n        require(CDPs[user].status == Status.active, \"CDPManager: CDP does not exist or is closed\");\r\n        require(_amount > 0, \"CDPManager: Repaid amount must be larger than 0\");\r\n       \r\n        applyPendingRewards(user);\r\n\r\n        uint debt = CDPs[user].debt;\r\n        require(_amount <= debt, \"CDPManager: Repaid amount is larger than current debt\");\r\n        \r\n        // Update the CDP's debt\r\n        uint newDebt = debt.sub(_amount);\r\n        CDPs[user].debt  = newDebt;\r\n\r\n        uint newICR = getCurrentICR(user, price);\r\n        \r\n        // Update CDP's position in sortedCDPs\r\n        sortedCDPs.reInsert(user, newICR, price, _hint, _hint);\r\n\r\n        // Burn the received amount of CLV from the user's balance, and remove it from the ActivePool\r\n        poolManager.repayCLV(user, _amount);\r\n        \r\n        checkTCRAndSetRecoveryMode(price);\r\n        emit CDPUpdated(user, \r\n                        newDebt, \r\n                        CDPs[user].coll,\r\n                        CDPs[user].stake\r\n                        ); \r\n        return true;\r\n    }\r\n\r\n    function closeLoan() public returns (bool) {\r\n        uint price = priceFeed.getPrice();\r\n        bool recoveryMode = checkTCRAndSetRecoveryMode(price);\r\n        \r\n        address user = _msgSender();\r\n        applyPendingRewards(user);\r\n\r\n        require(CDPs[user].status == Status.active, \"CDPManager: CDP does not exist or is closed\");\r\n        require(recoveryMode == false, \"CDPManager: Closing a loan is not permitted during Recovery Mode\");\r\n        \r\n        uint coll = CDPs[user].coll;\r\n        uint debt = CDPs[user].debt;\r\n\r\n        uint newTCR = getNewTCRFromDecrease(coll, debt, price);\r\n        require (newTCR >= CCR, \"CDPManager: Closing the loan must not pull TCR below CCR\");\r\n        \r\n        removeStake(user);\r\n        closeCDP(user);\r\n    \r\n        // Tell PM to burn the debt from the user's balance, and send the collateral back to the user\r\n        poolManager.repayCLV(user, debt);\r\n        poolManager.withdrawColl(user, coll);\r\n\r\n        checkTCRAndSetRecoveryMode(price);\r\n        emit CDPUpdated(user, 0, 0, 0);\r\n        return true; \r\n    }\r\n\r\n    // --- CDP Liquidation functions ---\r\n\r\n    // Closes the CDP of the specified user if its individual collateral ratio is lower than the minimum collateral ratio.\r\n    // TODO: Left public for initial testing. Make internal.\r\n    function liquidate(address _user) public returns (bool) {\r\n        uint price = priceFeed.getPrice();\r\n        bool recoveryMode = checkTCRAndSetRecoveryMode(price);\r\n\r\n        require(CDPs[_user].status == Status.active, \"CDPManager: CDP does not exist or is already closed\");\r\n        \r\n        if (recoveryMode == true) {\r\n            liquidateRecoveryMode(_user, price);\r\n        } else if (recoveryMode == false) {\r\n            liquidateNormalMode(_user, price);\r\n        }  \r\n    }\r\n   \r\n    function liquidateNormalMode(address _user, uint price) internal returns (bool) {\r\n        // If ICR < MCR, don't liquidate \r\n        uint ICR = getCurrentICR(_user, price);\r\n        if (ICR > MCR) { return false; }\r\n       \r\n        // Apply the CDP's rewards and remove stake\r\n        applyPendingRewards(_user); \r\n        removeStake(_user); \r\n    \r\n        // Offset as much debt & collateral as possible against the StabilityPool and save the returned remainders\r\n        uint[2] memory remainder = poolManager.offset(CDPs[_user].debt, CDPs[_user].coll);\r\n        uint CLVDebtRemainder = remainder[0];\r\n        uint ETHRemainder = remainder[1];\r\n       \r\n        redistributeCollAndDebt(ETHRemainder, CLVDebtRemainder);\r\n        closeCDP(_user); \r\n        updateSystemSnapshots();\r\n        emit CDPUpdated(_user, \r\n                    0, \r\n                    0,\r\n                    CDPs[_user].stake\r\n                    );\r\n\r\n        return true;\r\n    }\r\n\r\n    function liquidateRecoveryMode(address _user, uint price) internal returns (bool) {\r\n        uint ICR = getCurrentICR(_user, price);\r\n\r\n        // If ICR <= 100%, redistribute the CDP across all active CDPs\r\n        if (ICR <= 1000000000000000000) {\r\n            applyPendingRewards(_user);\r\n            removeStake(_user);\r\n\r\n            // Redistribute entire coll and debt \r\n            uint entireColl = CDPs[_user].coll;\r\n            uint entireDebt = CDPs[_user].debt;\r\n            redistributeCollAndDebt(entireColl, entireDebt);\r\n\r\n            closeCDP(_user);\r\n            updateSystemSnapshots();\r\n\r\n        // if 100% < ICR < MCR, offset as much as possible, and redistribute the remainder\r\n        } else if ((ICR > 1000000000000000000) && (ICR < MCR)) {\r\n            applyPendingRewards(_user);\r\n            removeStake(_user);\r\n            \r\n            // Offset as much debt & collateral as possible against the StabilityPool and save the returned remainders\r\n            uint[2] memory remainder = poolManager.offset(CDPs[_user].debt, CDPs[_user].coll);\r\n            uint CLVDebtRemainder = remainder[0];\r\n            uint ETHRemainder = remainder[1];\r\n\r\n            redistributeCollAndDebt(ETHRemainder, CLVDebtRemainder);\r\n    \r\n            closeCDP(_user);\r\n            updateSystemSnapshots();\r\n\r\n        // If CDP has the lowest ICR and there is CLV in the Stability Pool, only offset it as much as possible (no redistribution)\r\n        } else if ((_user == sortedCDPs.getLast()) && (poolManager.getStabilityPoolCLV() != 0)) {\r\n            applyPendingRewards(_user);\r\n            removeStake(_user);\r\n\r\n            // Offset as much debt & collateral as possible against the StabilityPool and save the returned remainders\r\n            uint[2] memory remainder = poolManager.offset(CDPs[_user].debt, CDPs[_user].coll);\r\n            uint CLVDebtRemainder = remainder[0];\r\n            uint ETHRemainder = remainder[1];\r\n\r\n            // Close the CDP and update snapshots if the CDP was completely offset against CLV in Stability Pool\r\n            if (CLVDebtRemainder == 0) {\r\n                closeCDP(_user);\r\n                updateSystemSnapshots();\r\n            }\r\n\r\n            // If loan can not be entirely offset, leave the CDP active, with a reduced coll and debt, and corresponding new stake.\r\n            if (CLVDebtRemainder > 0) {\r\n                // Update system snapshots, excluding the reduced collateral that remains in the CDP\r\n                updateSystemSnapshots_excludeCollRemainder(ETHRemainder);\r\n                \r\n                // Give the loan a new reduced coll and debt, then update stake and totalStakes\r\n                CDPs[_user].coll = ETHRemainder;\r\n                CDPs[_user].debt = CLVDebtRemainder;\r\n                updateStakeAndTotalStakes(_user);\r\n               \r\n                uint newICR = getCurrentICR(_user, price);\r\n              \r\n                sortedCDPs.reInsert(_user, newICR, price, _user, _user); \r\n            }\r\n        } \r\n        checkTCRAndSetRecoveryMode(price);\r\n        emit CDPUpdated(_user, \r\n                    CDPs[_user].debt, \r\n                    CDPs[_user].coll,\r\n                    CDPs[_user].stake\r\n                    );\r\n    }\r\n\r\n    // Closes a maximum number of n multiple under-collateralized CDPs, starting from the one with the lowest collateral ratio\r\n    function liquidateCDPs(uint n) public returns (bool) {  \r\n        uint price = priceFeed.getPrice();\r\n        bool recoveryMode = checkTCRAndSetRecoveryMode(price);\r\n\r\n        if (recoveryMode == true) {\r\n            uint i;\r\n            while (i < n) {\r\n                address user = sortedCDPs.getLast();\r\n                uint collRatio = getCurrentICR(user, price);\r\n                // attempt to close CDP\r\n                liquidate(user);\r\n                /* Break loop if the system has left recovery mode and all active CDPs are \r\n                above the MCR, or if the loop reaches the first CDP in the sorted list  */\r\n                if ((recoveryMode == false && collRatio >= MCR) || (user == sortedCDPs.getFirst())) { break; }\r\n                i++;\r\n            }\r\n            return true;\r\n\r\n        } else if (recoveryMode == false) {\r\n            uint i;\r\n            while (i < n) {\r\n                address user = sortedCDPs.getLast();\r\n                uint collRatio = getCurrentICR(user, price);\r\n\r\n                // Close CDPs if it is under-collateralized\r\n                if (collRatio < MCR) {\r\n                    liquidate(user);\r\n                } else break;\r\n                \r\n                // Break loop if you reach the first CDP in the sorted list \r\n                if (user == sortedCDPs.getFirst()) { break ;}\r\n                i++;\r\n            }       \r\n        }\r\n        return true;\r\n    }\r\n\r\n    // Redeem as much collateral as possible from _cdpUser's CDP in exchange for CLV up to _maxCLVamount\r\n    function redeemCollateralFromCDP(\r\n        address _cdpUser,\r\n        uint _maxCLVamount,\r\n        uint _price,\r\n        address _partialRedemptionHint,\r\n        uint _partialRedemptionHintICR\r\n    )\r\n        internal returns (uint)\r\n    {\r\n        // Determine the remaining amount (lot) to be redeemed, capped by the entire debt of the CDP\r\n        uint CLVLot = DeciMath.getMin(_maxCLVamount, CDPs[_cdpUser].debt); \r\n        \r\n        // Pure division to integer\r\n        uint ETHLot = CLVLot.mul(1e18).div(_price);\r\n        \r\n        // Decrease the debt and collateral of the current CDP according to the lot and corresponding ETH to send\r\n        uint newDebt = (CDPs[_cdpUser].debt).sub(CLVLot);\r\n        uint newColl = (CDPs[_cdpUser].coll).sub(ETHLot);\r\n\r\n        if (newDebt == 0) {\r\n            // No debt left in the CDP, therefore new ICR must be \"infinite\".\r\n            // Passing zero as hint will cause sortedCDPs to descend the list from the head, which is the correct insert position.\r\n            sortedCDPs.reInsert(_cdpUser, 2**256 - 1, _price, address(0), address(0)); \r\n        } else {\r\n            uint newICR = computeICR(newColl, newDebt, _price);\r\n\r\n            // Check if the provided hint is fresh. If not, we bail since trying to reinsert without a good hint will almost\r\n            // certainly result in running out of gas.\r\n            if (newICR != _partialRedemptionHintICR) return 0;\r\n\r\n            sortedCDPs.reInsert(_cdpUser, newICR, _price, _partialRedemptionHint, _partialRedemptionHint);\r\n        }\r\n\r\n        CDPs[_cdpUser].debt = newDebt;\r\n        CDPs[_cdpUser].coll = newColl;\r\n        updateStakeAndTotalStakes(_cdpUser);\r\n\r\n        // Burn the calculated lot of CLV and send the corresponding ETH to _msgSender()\r\n        poolManager.redeemCollateral(_msgSender(), CLVLot, ETHLot); \r\n\r\n        emit CDPUpdated(\r\n                        _cdpUser,\r\n                        newDebt,\r\n                        newColl,\r\n                        CDPs[_cdpUser].stake\r\n                        ); \r\n\r\n        return CLVLot;\r\n    }\r\n\r\n    function validFirstRedemptionHint(address _firstRedemptionHint, uint _price) internal view returns (bool) {\r\n        if (_firstRedemptionHint == address(0) ||\r\n            !sortedCDPs.contains(_firstRedemptionHint) ||\r\n            getCurrentICR(_firstRedemptionHint, _price) < MCR\r\n        ) {\r\n            return false;\r\n        }\r\n\r\n        address nextCDP = sortedCDPs.getNext(_firstRedemptionHint);\r\n        return nextCDP == address(0) || getCurrentICR(nextCDP, _price) < MCR;\r\n    }\r\n\r\n    /* Send _CLVamount CLV to the system and redeem the corresponding amount of collateral from as many CDPs as are needed to fill the redemption\r\n     request.  Applies pending rewards to a CDP before reducing its debt and coll.\r\n\r\n    Note that if _amount is very large, this function can run out of gas. This can be easily avoided by splitting the total _amount\r\n    in appropriate chunks and calling the function multiple times.\r\n\r\n    All CDPs that are redeemed from -- with the likely exception of the last one -- will end up with no debt left, therefore they will be\r\n    reinsterted at the top of the sortedCDPs list. If the last CDP does have some remaining debt, the reinsertion could be anywhere in the\r\n    list, therefore it requires a hint. A frontend should use getRedemptionHints() to calculate what the ICR of this CDP will be\r\n    after redemption, and pass a hint for its position in the sortedCDPs list along with the ICR value that the hint was found for.\r\n\r\n    If another transaction modifies the list between calling getRedemptionHints() and passing the hints to redeemCollateral(), it\r\n    is very likely that the last (partially) redeemed CDP would end up with a different ICR than what the hint is for. In this case the\r\n    redemption will stop after the last completely redeemed CDP and the sender will keep the remaining CLV amount, which they can attempt\r\n    to redeem later.\r\n     */\r\n    function redeemCollateral(\r\n        uint _CLVamount,\r\n        address _firstRedemptionHint,\r\n        address _partialRedemptionHint,\r\n        uint _partialRedemptionHintICR\r\n    )\r\n        public returns (bool)\r\n    {\r\n        uint remainingCLV = _CLVamount;\r\n        uint price = priceFeed.getPrice();\r\n        address currentCDPuser;\r\n\r\n        if (validFirstRedemptionHint(_firstRedemptionHint, price)) {\r\n            currentCDPuser = _firstRedemptionHint;\r\n        } else {\r\n            currentCDPuser = sortedCDPs.getLast();\r\n\r\n            while (currentCDPuser != address(0) && getCurrentICR(currentCDPuser, price) < MCR) {\r\n                currentCDPuser = sortedCDPs.getPrev(currentCDPuser);\r\n            }\r\n        }\r\n\r\n        // Loop through the CDPs starting from the one with lowest collateral ratio until _amount of CLV is exchanged for collateral\r\n        while (currentCDPuser != address(0) && remainingCLV > 0) {\r\n            // Save the address of the CDP preceding the current one, before potentially modifying the list\r\n            address nextUserToCheck = sortedCDPs.getPrev(currentCDPuser);\r\n\r\n            applyPendingRewards(currentCDPuser);\r\n\r\n            uint CLVLot = redeemCollateralFromCDP(\r\n                currentCDPuser,\r\n                remainingCLV,\r\n                price,\r\n                _partialRedemptionHint,\r\n                _partialRedemptionHintICR\r\n            );\r\n\r\n            if (CLVLot == 0) break; // Partial redemption hint got out-of-date, therefore we could not redeem from the last CDP\r\n\r\n            remainingCLV = remainingCLV.sub(CLVLot);\r\n            currentCDPuser = nextUserToCheck;\r\n        }\r\n    }\r\n\r\n    // --- Helper functions ---\r\n\r\n    /* getRedemptionHints() - Helper function for redeemCollateral().\r\n     *\r\n     * Find the first and last CDPs that will modified by calling redeemCollateral() with the same _CLVamount and _price,\r\n     * and return the address of the first one and the final ICR of the last one.\r\n     */\r\n    function getRedemptionHints(uint _CLVamount, uint _price)\r\n        public\r\n        view\r\n        returns (address firstRedemptionHint, uint partialRedemptionHintICR)\r\n    {\r\n        uint remainingCLV = _CLVamount;\r\n        address currentCDPuser = sortedCDPs.getLast();\r\n\r\n        while (currentCDPuser != address(0) && getCurrentICR(currentCDPuser, _price) < MCR) {\r\n            currentCDPuser = sortedCDPs.getPrev(currentCDPuser);\r\n        }\r\n\r\n        firstRedemptionHint = currentCDPuser;\r\n\r\n        while (currentCDPuser != address(0) && remainingCLV > 0) {\r\n            uint CLVDebt = CDPs[currentCDPuser].debt.add(computePendingCLVDebtReward(currentCDPuser));\r\n\r\n            if (CLVDebt > remainingCLV) {\r\n                uint ETH = CDPs[currentCDPuser].coll.add(computePendingETHReward(currentCDPuser));\r\n                uint newDebt = CLVDebt.sub(remainingCLV);\r\n\r\n                uint newColl = ETH.sub(remainingCLV.mul(1e18).div(_price));\r\n\r\n                partialRedemptionHintICR = computeICR(newColl, newDebt, _price);\r\n\r\n                break;\r\n            } else {\r\n                remainingCLV = remainingCLV.sub(CLVDebt);\r\n            }\r\n\r\n            currentCDPuser = sortedCDPs.getPrev(currentCDPuser);\r\n        }\r\n    }\r\n\r\n     /* getApproxHint() - return address of a CDP that is, on average, (length / numTrials) positions away in the \r\n    sortedCDPs list from the correct insert position of the CDP to be inserted. \r\n    \r\n    Note: The output address is worst-case O(n) positions away from the correct insert position, however, the function \r\n    is probabilistic. Input can be tuned to guarantee results to a high degree of confidence, e.g:\r\n\r\n    Submitting numTrials = k * sqrt(length), with k = 15 makes it very, very likely that the ouput address will \r\n    be <= sqrt(length) positions away from the correct insert position.\r\n   \r\n    Note on the use of block.timestamp for random number generation: it is known to be gameable by miners. However, no value \r\n    transmission depends on getApproxHint() - it is only used to generate hints for efficient list traversal. In this case, \r\n    there is no profitable exploit.\r\n    */\r\n    function getApproxHint(uint CR, uint numTrials) public view returns(address) {\r\n        require (CDPOwners.length >= 1, \"CDPManager: sortedList must not be empty\");\r\n        uint price = priceFeed.getPrice();\r\n        address hintAddress = sortedCDPs.getLast();\r\n        uint closestICR = getCurrentICR(hintAddress, price);\r\n        uint diff = getAbsoluteDifference(CR, closestICR);\r\n        uint i = 1;\r\n\r\n        while (i < numTrials) {\r\n            uint arrayIndex = getRandomArrayIndex(block.timestamp.add(i), CDPOwners.length);\r\n            address currentAddress = CDPOwners[arrayIndex];\r\n            uint currentICR = getCurrentICR(currentAddress, price);\r\n\r\n            // check if abs(current - CR) > abs(closest - CR), and update closest if current is closer\r\n            uint currentDiff = getAbsoluteDifference(currentICR, CR);\r\n\r\n            if (currentDiff < diff) {\r\n                closestICR = currentICR;\r\n                diff = currentDiff;\r\n                hintAddress = currentAddress;\r\n            }\r\n            i++;\r\n        }\r\n    return hintAddress;\r\n}\r\n\r\n    function getAbsoluteDifference(uint a, uint b) internal view returns(uint) {\r\n        if (a >= b) {\r\n            return a.sub(b);\r\n        } else if (a < b) {\r\n            return b.sub(a);\r\n        }\r\n    }\r\n\r\n    // Convert input to pseudo-random uint in range [0, arrayLength - 1]\r\n    function getRandomArrayIndex(uint input, uint _arrayLength) internal view returns(uint) {\r\n        uint randomIndex = uint256(keccak256(abi.encodePacked(input))) % (_arrayLength);\r\n        return randomIndex;\r\n   }\r\n\r\n    // Return the current collateral ratio (ICR) of a given CDP. Takes pending coll/debt rewards into account.\r\n    function getCurrentICR(address _user, uint _price) public view returns(uint) {\r\n        uint pendingETHReward = computePendingETHReward(_user); \r\n        uint pendingCLVDebtReward = computePendingCLVDebtReward(_user); \r\n        \r\n        uint currentETH = CDPs[_user].coll.add(pendingETHReward); \r\n        uint currentCLVDebt = CDPs[_user].debt.add(pendingCLVDebtReward); \r\n       \r\n        uint ICR = computeICR(currentETH, currentCLVDebt, _price);  \r\n        return ICR;\r\n    }\r\n\r\n    /* Compute the new collateral ratio, considering the collateral to be removed. Takes pending coll/debt \r\n    rewards into account. */\r\n    function getNewICRfromCollDecrease(address _user, uint _collDecrease, uint _price) view internal returns(uint) {\r\n        uint pendingETHReward = computePendingETHReward(_user);\r\n        uint pendingCLVDebtReward = computePendingCLVDebtReward(_user);\r\n\r\n        uint currentETH = CDPs[_user].coll.add(pendingETHReward);\r\n        uint currentCLVDebt = CDPs[_user].debt.add(pendingCLVDebtReward);\r\n\r\n        uint newColl = currentETH.sub(_collDecrease);\r\n        \r\n        return computeICR(newColl, currentCLVDebt, _price);\r\n    }\r\n\r\n    /* Compute the new collateral ratio, considering the debt to be added.Takes pending coll/debt rewards into account. */\r\n    function getNewICRfromDebtIncrease(address _user, uint _debtIncrease, uint _price) view internal returns(uint) {\r\n        uint pendingETHReward = computePendingETHReward(_user);\r\n        uint pendingCLVDebtReward = computePendingCLVDebtReward(_user);\r\n\r\n        uint currentETH = CDPs[_user].coll.add(pendingETHReward);\r\n        uint currentCLVDebt = CDPs[_user].debt.add(pendingCLVDebtReward);\r\n\r\n        uint newCLVDebt = currentCLVDebt.add(_debtIncrease);\r\n\r\n        return computeICR(currentETH, newCLVDebt, _price);\r\n    } \r\n\r\n    /*  Deprecrated function - liquidations now do not consider the pending SP gain, and\r\n    are now conditional only on the raw ICR. */\r\n\r\n    // function getNewICRFromPendingSPGain(address _user, uint price) internal returns (uint) {\r\n    //     // Get rewards from direct distributions\r\n    //     uint pendingETHReward = computePendingETHReward(_user);\r\n    //     uint pendingCLVDebtReward = computePendingCLVDebtReward(_user);\r\n\r\n    //     // Get ETH Gain from StabilityPool deposit\r\n    //     uint ETHGainFromSP = poolManager.getCurrentETHGain(_user);\r\n        \r\n    //     uint newColl = CDPs[_user].coll.add(pendingETHReward).add(ETHGainFromSP);\r\n    //     uint newCLVDebt = CDPs[_user].debt.add(pendingCLVDebtReward);\r\n\r\n    //     uint newICR = computeICR(newColl, newCLVDebt, price);\r\n    //     return newICR;\r\n    // }\r\n\r\n    function computeICR(uint _coll, uint _debt, uint _price) view internal returns(uint) {\r\n        // Check if the total debt is higher than 0, to avoid division by 0\r\n        if (_debt > 0) {\r\n\r\n            // Pure division to decimal\r\n            uint newCollRatio = _coll.mul(_price).div(_debt);\r\n\r\n            return newCollRatio;\r\n        }\r\n        // Return the maximal value for uint256 if the CDP has a debt of 0\r\n        else {\r\n            return 2**256 - 1; \r\n        }\r\n    }\r\n\r\n    // Add the user's coll and debt rewards earned from liquidations, to their CDP\r\n    function applyPendingRewards(address _user) internal returns(bool) {\r\n        if (rewardSnapshots[_user].ETH == L_ETH) { return false; }\r\n        require(CDPs[_user].status == Status.active, \"CDPManager: user must have an active CDP\"); \r\n\r\n        // Compute pending rewards\r\n        uint pendingETHReward = computePendingETHReward(_user); \r\n        uint pendingCLVDebtReward = computePendingCLVDebtReward(_user);  \r\n\r\n        // Apply pending rewards\r\n        CDPs[_user].coll = CDPs[_user].coll.add(pendingETHReward);  \r\n        CDPs[_user].debt = CDPs[_user].debt.add(pendingCLVDebtReward); \r\n\r\n        // Tell PM to transfer from DefaultPool to ActivePool when user claims rewards.\r\n        poolManager.applyPendingRewards(pendingCLVDebtReward, pendingETHReward); \r\n\r\n        updateRewardSnapshots(_user); // 5259 (no rewards)\r\n        return true;\r\n    }\r\n\r\n    // Update user's snapshots of L_ETH and L_CLVDebt to reflect the current values\r\n    function updateRewardSnapshots(address _user) internal returns(bool) {\r\n        rewardSnapshots[_user].ETH = L_ETH; \r\n        rewardSnapshots[_user].CLVDebt = L_CLVDebt; \r\n        return true;\r\n    }\r\n    \r\n    // Get the user's pending accumulated ETH reward, earned by its stake\r\n    function computePendingETHReward(address _user) internal view returns(uint) {\r\n        uint snapshotETH = rewardSnapshots[_user].ETH; \r\n        uint rewardPerUnitStaked = L_ETH.sub(snapshotETH); \r\n        \r\n        if ( rewardPerUnitStaked == 0 ) { return 0; }\r\n       \r\n        uint stake = CDPs[_user].stake;\r\n        \r\n        uint pendingETHReward = stake.mul(rewardPerUnitStaked).div(1e18);\r\n\r\n        return pendingETHReward;\r\n    }\r\n\r\n     // Get the user's pending accumulated CLV reward, earned by its stake\r\n    function computePendingCLVDebtReward(address _user) internal view returns(uint) {\r\n        uint snapshotCLVDebt = rewardSnapshots[_user].CLVDebt;  \r\n        uint rewardPerUnitStaked = L_CLVDebt.sub(snapshotCLVDebt); \r\n       \r\n        if ( rewardPerUnitStaked == 0 ) { return 0; }\r\n       \r\n        uint stake =  CDPs[_user].stake; \r\n      \r\n        uint pendingCLVDebtReward = stake.mul(rewardPerUnitStaked).div(1e18);\r\n     \r\n        return pendingCLVDebtReward;\r\n    }\r\n\r\n    // Remove use's stake from the totalStakes sum, and set their stake to 0\r\n    function removeStake(address _user) internal returns (bool) {\r\n        uint stake = CDPs[_user].stake;\r\n        totalStakes = totalStakes.sub(stake);\r\n        CDPs[_user].stake = 0;\r\n    }\r\n\r\n    // Update user's stake based on their latest collateral value\r\n    function updateStakeAndTotalStakes(address _user) internal returns(bool) {\r\n        uint newStake = computeNewStake(CDPs[_user].coll); \r\n        uint oldStake = CDPs[_user].stake;\r\n        CDPs[_user].stake = newStake;\r\n        totalStakes = totalStakes.sub(oldStake).add(newStake);\r\n\r\n        return true;\r\n    }\r\n\r\n    function computeNewStake(uint _coll) internal view returns (uint) {\r\n        uint stake;\r\n        if (totalCollateralSnapshot == 0) {\r\n            stake = _coll;\r\n        } else {\r\n            stake = _coll.mul(totalStakesSnapshot).div(totalCollateralSnapshot);\r\n        }\r\n     return stake;\r\n    }\r\n\r\n    function redistributeCollAndDebt(uint _coll, uint _debt) internal returns (bool) {\r\n        if (_debt > 0) {\r\n            if (totalStakes > 0) {\r\n                /*If debt could not be offset entirely, add the coll and debt rewards-per-unit-staked \r\n                to the running totals. */\r\n              \r\n                // Division with correction\r\n                uint ETHNumerator = _coll.mul(1e18).add(lastETHError_Redistribution);\r\n                uint CLVDebtNumerator = _debt.mul(1e18).add(lastCLVDebtError_Redistribution);\r\n\r\n                uint ETHRewardPerUnitStaked = ETHNumerator.div(totalStakes);\r\n                uint CLVDebtRewardPerUnitStaked = CLVDebtNumerator.div(totalStakes);\r\n\r\n                lastETHError_Redistribution = ETHNumerator.sub(ETHRewardPerUnitStaked.mul(totalStakes));\r\n                lastCLVDebtError_Redistribution = CLVDebtNumerator.sub(CLVDebtRewardPerUnitStaked.mul(totalStakes));\r\n\r\n                L_ETH = L_ETH.add(ETHRewardPerUnitStaked);\r\n                L_CLVDebt = L_CLVDebt.add(CLVDebtRewardPerUnitStaked);\r\n            }\r\n            // Transfer coll and debt from ActivePool to DefaultPool\r\n            poolManager.liquidate(_debt, _coll);\r\n        } \r\n    }\r\n\r\n    function truncateDigits(uint num, uint digits) internal returns (uint) {\r\n        return (num.div(10**digits)).mul(10**digits);\r\n    }\r\n\r\n    function closeCDP(address _user) internal returns (bool) {\r\n        CDPs[_user].status = Status.closed;\r\n        CDPs[_user].coll = 0;\r\n        CDPs[_user].debt = 0;\r\n        \r\n        sortedCDPs.remove(_user);\r\n        removeCDPOwner(_user);\r\n       \r\n        return true;\r\n    }\r\n\r\n    // Update the snapshots of system stakes & system collateral\r\n    function updateSystemSnapshots() internal returns (bool) {\r\n        totalStakesSnapshot = totalStakes;\r\n\r\n        /* The total collateral snapshot is the sum of all active collateral and all pending rewards\r\n       (ActivePool ETH + DefaultPool ETH), immediately after the liquidation occurs. */\r\n        uint activeColl = activePool.getETH();\r\n        uint liquidatedColl = defaultPool.getETH();\r\n        totalCollateralSnapshot = activeColl.add(liquidatedColl);\r\n\r\n        return true;\r\n    }\r\n\r\n    // Updates snapshots of system stakes and system collateral, excluding a given collateral remainder from the calculation\r\n     function updateSystemSnapshots_excludeCollRemainder(uint _collRemainder) internal returns (bool) {\r\n        totalStakesSnapshot = totalStakes;\r\n\r\n        uint activeColl = activePool.getETH();\r\n        uint liquidatedColl = defaultPool.getETH();\r\n        totalCollateralSnapshot = activeColl.sub(_collRemainder).add(liquidatedColl);\r\n\r\n        return true;\r\n    }\r\n  \r\n     /* Remove a CDP owner from the CDPOwners array, preserving array length but not order. Deleting owner 'B' does the following: \r\n    [A B C D E] => [A E C D], and updates E's CDP struct to point to its new array index. */\r\n    function removeCDPOwner(address _user) internal returns(bool) {\r\n        require(CDPs[_user].status == Status.closed, \"CDPManager: CDP is still active\");\r\n\r\n        uint index = CDPs[_user].arrayIndex;   \r\n        address addressToMove = CDPOwners[CDPOwners.length - 1];\r\n       \r\n        CDPOwners[index] = addressToMove;   \r\n        CDPs[addressToMove].arrayIndex = index;   \r\n        CDPOwners.length--;  \r\n    }\r\n\r\n    // Get the dollar value of collateral, as a duint\r\n    function getUSDValue(uint _coll, uint _price) public view returns (uint) {\r\n        uint usdValue = _price.mul(_coll).div(1e18);\r\n\r\n        return usdValue;\r\n    }\r\n\r\n    function getNewTCR(uint _collIncrease, uint _debtIncrease, uint _price) internal view returns (uint) {\r\n        uint activeColl = activePool.getETH();\r\n        uint activeDebt = activePool.getCLV();\r\n        uint liquidatedColl = defaultPool.getETH();\r\n        uint closedDebt = defaultPool.getCLV();\r\n\r\n        uint totalCollateral = activeColl.add(liquidatedColl).add(_collIncrease);\r\n        uint newTotalDebt = activeDebt.add(closedDebt).add(_debtIncrease);\r\n\r\n        uint newTCR = computeICR(totalCollateral, newTotalDebt, _price);\r\n        return newTCR;\r\n    }\r\n\r\n    function getNewTCRFromDecrease(uint _collDecrease, uint _debtDecrease, uint _price) internal view returns (uint) {\r\n        uint activeColl = activePool.getETH();\r\n        uint activeDebt = activePool.getCLV();\r\n        uint liquidatedColl = defaultPool.getETH();\r\n        uint closedDebt = defaultPool.getCLV();\r\n\r\n        uint totalCollateral = activeColl.add(liquidatedColl).sub(_collDecrease);\r\n        uint newTotalDebt = activeDebt.add(closedDebt).sub(_debtDecrease);\r\n\r\n        uint newTCR = computeICR(totalCollateral, newTotalDebt, _price);\r\n        return newTCR;\r\n    }\r\n\r\n    function checkTCRAndSetRecoveryMode(uint _price) public returns (bool){\r\n        uint activeColl = activePool.getETH();\r\n        uint activeDebt = activePool.getCLV();\r\n        uint liquidatedColl = defaultPool.getETH();\r\n        uint closedDebt = defaultPool.getCLV();\r\n\r\n        uint totalCollateral  = activeColl.add(liquidatedColl);\r\n       \r\n        uint totalDebt = activeDebt.add(closedDebt); \r\n\r\n        uint TCR = computeICR(totalCollateral, totalDebt, _price); \r\n        \r\n        /* if TCR falls below 150%, trigger recovery mode. If TCR rises above 150%, \r\n        disable recovery mode */\r\n        bool recoveryModeInMem;\r\n\r\n        if ((TCR < 1500000000000000000) && (recoveryMode == false)) {\r\n            recoveryMode = true;\r\n            recoveryModeInMem = true;\r\n        } else if ((TCR >= 1500000000000000000) && (recoveryMode == true)) {\r\n            recoveryMode = false;\r\n            recoveryModeInMem = false;\r\n        }\r\n        return recoveryModeInMem;\r\n    }\r\n}",
  "sourcePath": "c:/Users/Rick/Desktop/Cleverage/packages/contracts/contracts/CDPManager.sol",
  "compiler": {
    "name": "solc",
    "version": "0.5.11+commit.c082d0b4.Emscripten.clang"
  },
  "schemaVersion": "3.0.20",
  "updatedAt": "2020-04-26T18:49:44.448Z",
  "devdoc": {
    "methods": {
      "isOwner()": {
        "details": "Returns true if the caller is the current owner."
      },
      "owner()": {
        "details": "Returns the address of the current owner."
      },
      "renounceOwnership()": {
        "details": "Leaves the contract without owner. It will not be possible to call `onlyOwner` functions anymore. Can only be called by the current owner.     * NOTE: Renouncing ownership will leave the contract without an owner, thereby removing any functionality that is only available to the owner."
      },
      "transferOwnership(address)": {
        "details": "Transfers ownership of the contract to a new account (`newOwner`). Can only be called by the current owner."
      }
    }
  },
  "userdoc": {
    "methods": {}
  }
}