{
  "contractName": "CLVTokenData",
  "abi": [
    {
      "inputs": [],
      "payable": false,
      "stateMutability": "nonpayable",
      "type": "constructor"
    },
    {
      "anonymous": false,
      "inputs": [
        {
          "indexed": true,
          "internalType": "address",
          "name": "previousOwner",
          "type": "address"
        },
        {
          "indexed": true,
          "internalType": "address",
          "name": "newOwner",
          "type": "address"
        }
      ],
      "name": "OwnershipTransferred",
      "type": "event"
    },
    {
      "constant": true,
      "inputs": [
        {
          "internalType": "address",
          "name": "",
          "type": "address"
        },
        {
          "internalType": "address",
          "name": "",
          "type": "address"
        }
      ],
      "name": "allowances",
      "outputs": [
        {
          "internalType": "uint256",
          "name": "",
          "type": "uint256"
        }
      ],
      "payable": false,
      "stateMutability": "view",
      "type": "function"
    },
    {
      "constant": true,
      "inputs": [
        {
          "internalType": "address",
          "name": "",
          "type": "address"
        }
      ],
      "name": "balances",
      "outputs": [
        {
          "internalType": "uint256",
          "name": "",
          "type": "uint256"
        }
      ],
      "payable": false,
      "stateMutability": "view",
      "type": "function"
    },
    {
      "constant": true,
      "inputs": [],
      "name": "isOwner",
      "outputs": [
        {
          "internalType": "bool",
          "name": "",
          "type": "bool"
        }
      ],
      "payable": false,
      "stateMutability": "view",
      "type": "function"
    },
    {
      "constant": true,
      "inputs": [],
      "name": "owner",
      "outputs": [
        {
          "internalType": "address",
          "name": "",
          "type": "address"
        }
      ],
      "payable": false,
      "stateMutability": "view",
      "type": "function"
    },
    {
      "constant": false,
      "inputs": [],
      "name": "renounceOwnership",
      "outputs": [],
      "payable": false,
      "stateMutability": "nonpayable",
      "type": "function"
    },
    {
      "constant": false,
      "inputs": [
        {
          "internalType": "address",
          "name": "newOwner",
          "type": "address"
        }
      ],
      "name": "transferOwnership",
      "outputs": [],
      "payable": false,
      "stateMutability": "nonpayable",
      "type": "function"
    },
    {
      "constant": true,
      "inputs": [
        {
          "internalType": "address",
          "name": "account",
          "type": "address"
        }
      ],
      "name": "getBalance",
      "outputs": [
        {
          "internalType": "uint256",
          "name": "",
          "type": "uint256"
        }
      ],
      "payable": false,
      "stateMutability": "view",
      "type": "function"
    },
    {
      "constant": false,
      "inputs": [
        {
          "internalType": "address",
          "name": "account",
          "type": "address"
        },
        {
          "internalType": "uint256",
          "name": "newBalance",
          "type": "uint256"
        }
      ],
      "name": "setBalance",
      "outputs": [],
      "payable": false,
      "stateMutability": "nonpayable",
      "type": "function"
    },
    {
      "constant": false,
      "inputs": [
        {
          "internalType": "address",
          "name": "account",
          "type": "address"
        },
        {
          "internalType": "uint256",
          "name": "value",
          "type": "uint256"
        }
      ],
      "name": "addToBalance",
      "outputs": [],
      "payable": false,
      "stateMutability": "nonpayable",
      "type": "function"
    },
    {
      "constant": false,
      "inputs": [
        {
          "internalType": "address",
          "name": "account",
          "type": "address"
        },
        {
          "internalType": "uint256",
          "name": "value",
          "type": "uint256"
        }
      ],
      "name": "subFromBalance",
      "outputs": [],
      "payable": false,
      "stateMutability": "nonpayable",
      "type": "function"
    },
    {
      "constant": true,
      "inputs": [
        {
          "internalType": "address",
          "name": "owner",
          "type": "address"
        },
        {
          "internalType": "address",
          "name": "spender",
          "type": "address"
        }
      ],
      "name": "getAllowance",
      "outputs": [
        {
          "internalType": "uint256",
          "name": "",
          "type": "uint256"
        }
      ],
      "payable": false,
      "stateMutability": "view",
      "type": "function"
    },
    {
      "constant": false,
      "inputs": [
        {
          "internalType": "address",
          "name": "owner",
          "type": "address"
        },
        {
          "internalType": "address",
          "name": "spender",
          "type": "address"
        },
        {
          "internalType": "uint256",
          "name": "allowance",
          "type": "uint256"
        }
      ],
      "name": "setAllowance",
      "outputs": [],
      "payable": false,
      "stateMutability": "nonpayable",
      "type": "function"
    }
  ],
  "bytecode": "0x608060405234801561001057600080fd5b5060006100246001600160e01b036100a416565b600080546001600160a01b0319166001600160a01b0383169081178255604051929350917f8be0079c531659141344cd1fd0a4f28419497f9722a3daafe3b4186f6b6457e0908290a35061007f6001600160e01b036100a416565b600380546001600160a01b0319166001600160a01b03929092169190911790556100a8565b3390565b6109ba806100b76000396000f3fe608060405234801561001057600080fd5b50600436106100d45760003560e01c8063b08079a611610081578063e30443bc1161005b578063e30443bc14610245578063f2fde38b14610271578063f8b2cb4f14610297576100d4565b8063b08079a6146101b7578063c311fe90146101e3578063da46098c1461020f576100d4565b8063715018a6116100b2578063715018a61461016d5780638da5cb5b146101775780638f32d59b1461019b576100d4565b80630af4187d146100d957806327e235e31461011957806355b6ed5c1461013f575b600080fd5b610107600480360360408110156100ef57600080fd5b506001600160a01b03813581169160200135166102bd565b60408051918252519081900360200190f35b6101076004803603602081101561012f57600080fd5b50356001600160a01b0316610345565b6101076004803603604081101561015557600080fd5b506001600160a01b0381358116916020013516610357565b610175610374565b005b61017f610424565b604080516001600160a01b039092168252519081900360200190f35b6101a3610433565b604080519115158252519081900360200190f35b610175600480360360408110156101cd57600080fd5b506001600160a01b038135169060200135610457565b610175600480360360408110156101f957600080fd5b506001600160a01b0381351690602001356104f9565b6101756004803603606081101561022557600080fd5b506001600160a01b03813581169160208101359091169060400135610595565b6101756004803603604081101561025b57600080fd5b506001600160a01b03813516906020013561061a565b6101756004803603602081101561028757600080fd5b50356001600160a01b031661068f565b610107600480360360208110156102ad57600080fd5b50356001600160a01b03166106f4565b6003546000906001600160a01b03166102d461076c565b6001600160a01b0316146103195760405162461bcd60e51b81526004018080602001828103825260228152602001806109646022913960400191505060405180910390fd5b506001600160a01b03918216600090815260026020908152604080832093909416825291909152205490565b60016020526000908152604090205481565b600260209081526000928352604080842090915290825290205481565b61037c610433565b6103cd576040805162461bcd60e51b815260206004820181905260248201527f4f776e61626c653a2063616c6c6572206973206e6f7420746865206f776e6572604482015290519081900360640190fd5b600080546040516001600160a01b03909116907f8be0079c531659141344cd1fd0a4f28419497f9722a3daafe3b4186f6b6457e0908390a36000805473ffffffffffffffffffffffffffffffffffffffff19169055565b6000546001600160a01b031690565b600080546001600160a01b031661044861076c565b6001600160a01b031614905090565b6003546001600160a01b031661046b61076c565b6001600160a01b0316146104b05760405162461bcd60e51b81526004018080602001828103825260228152602001806109646022913960400191505060405180910390fd5b6001600160a01b0382166000908152600160205260409020546104d9908263ffffffff61077016565b6001600160a01b0390921660009081526001602052604090209190915550565b6003546001600160a01b031661050d61076c565b6001600160a01b0316146105525760405162461bcd60e51b81526004018080602001828103825260228152602001806109646022913960400191505060405180910390fd5b6104d98160405180606001604052806028815260200161093c602891396001600160a01b038516600090815260016020526040902054919063ffffffff6107d116565b6003546001600160a01b03166105a961076c565b6001600160a01b0316146105ee5760405162461bcd60e51b81526004018080602001828103825260228152602001806109646022913960400191505060405180910390fd5b6001600160a01b0392831660009081526002602090815260408083209490951682529290925291902055565b6003546001600160a01b031661062e61076c565b6001600160a01b0316146106735760405162461bcd60e51b81526004018080602001828103825260228152602001806109646022913960400191505060405180910390fd5b6001600160a01b03909116600090815260016020526040902055565b610697610433565b6106e8576040805162461bcd60e51b815260206004820181905260248201527f4f776e61626c653a2063616c6c6572206973206e6f7420746865206f776e6572604482015290519081900360640190fd5b6106f181610868565b50565b6003546000906001600160a01b031661070b61076c565b6001600160a01b0316146107505760405162461bcd60e51b81526004018080602001828103825260228152602001806109646022913960400191505060405180910390fd5b506001600160a01b031660009081526001602052604090205490565b3390565b6000828201838110156107ca576040805162461bcd60e51b815260206004820152601b60248201527f536166654d6174683a206164646974696f6e206f766572666c6f770000000000604482015290519081900360640190fd5b9392505050565b600081848411156108605760405162461bcd60e51b81526004018080602001828103825283818151815260200191508051906020019080838360005b8381101561082557818101518382015260200161080d565b50505050905090810190601f1680156108525780820380516001836020036101000a031916815260200191505b509250505060405180910390fd5b505050900390565b6001600160a01b0381166108ad5760405162461bcd60e51b81526004018080602001828103825260268152602001806109166026913960400191505060405180910390fd5b600080546040516001600160a01b03808516939216917f8be0079c531659141344cd1fd0a4f28419497f9722a3daafe3b4186f6b6457e091a36000805473ffffffffffffffffffffffffffffffffffffffff19166001600160a01b039290921691909117905556fe4f776e61626c653a206e6577206f776e657220697320746865207a65726f206164647265737345524332303a207375627472616374656420616d6f756e7420657863656564732062616c616e6365434c56546f6b656e446174613a206f6e6c7920636c76546f6b656e41646472657373a265627a7a72315820787120a7c061a483dcfae5ef16365255c41fa39c20abf064768bce0870e22b5164736f6c63430005100032",
  "source": "pragma solidity ^0.5.15;\r\n\r\n// Stores the CLV user data: token balances and spending allowances.\r\n// Functions are setters, addition and subtraction. Actual token logic resides in CLVToken.sol\r\n// import \"@openzeppelin/contracts/math/SafeMath.sol\";\r\n// import \"@openzeppelin/contracts/ownership/Ownable.sol\";\r\n// import \"@nomiclabs/buidler/console.sol\";\r\nimport \"./SafeMath.sol\";\r\nimport \"./Ownable.sol\";\r\nimport \"./console.sol\";\r\n\r\ncontract CLVTokenData is Ownable {\r\n    using SafeMath for uint;\r\n\r\n    // User data for CLV token\r\n    mapping (address => uint256) public balances;\r\n    mapping (address => mapping (address => uint256)) public allowances;\r\n\r\n    // CLV token logic contract address\r\n    address clvTokenAddress;\r\n\r\n    constructor() public {\r\n        clvTokenAddress = _msgSender();\r\n    }\r\n\r\n    modifier onlyCLVTokenAddress {\r\n        require(_msgSender() == clvTokenAddress, \"CLVTokenData: only clvTokenAddress\");\r\n        _;\r\n    }\r\n\r\n    // --- Balance functions --- \r\n\r\n    function getBalance(address account) external view onlyCLVTokenAddress returns(uint) { \r\n        return balances[account];\r\n    }\r\n\r\n    function setBalance(address account, uint256 newBalance) external  onlyCLVTokenAddress {\r\n        balances[account] = newBalance;\r\n    }\r\n\r\n    function addToBalance(address account, uint256 value) external onlyCLVTokenAddress {\r\n        balances[account] = balances[account].add(value);\r\n    }\r\n\r\n    function subFromBalance(address account, uint256 value) external onlyCLVTokenAddress {\r\n        balances[account] = balances[account].sub(value, 'ERC20: subtracted amount exceeds balance'); \r\n    }\r\n\r\n    // --- Allowance functions ---\r\n    \r\n    function getAllowance(address owner, address spender) external view onlyCLVTokenAddress returns(uint) {\r\n        return allowances[owner][spender];\r\n    }\r\n\r\n    function setAllowance(address owner, address spender, uint256 allowance) external onlyCLVTokenAddress {\r\n        allowances[owner][spender] = allowance;\r\n    }\r\n}",
  "sourcePath": "/home/training/contracts/CLVTokenData.sol",
  "compiler": {
    "name": "solc",
    "version": "0.5.16+commit.9c3226ce.Emscripten.clang"
  },
  "schemaVersion": "3.1.0",
  "updatedAt": "2020-06-03T00:09:10.050Z",
  "devdoc": {
    "methods": {
      "isOwner()": {
        "details": "Returns true if the caller is the current owner."
      },
      "owner()": {
        "details": "Returns the address of the current owner."
      },
      "renounceOwnership()": {
        "details": "Leaves the contract without owner. It will not be possible to call `onlyOwner` functions anymore. Can only be called by the current owner.     * NOTE: Renouncing ownership will leave the contract without an owner, thereby removing any functionality that is only available to the owner."
      },
      "transferOwnership(address)": {
        "details": "Transfers ownership of the contract to a new account (`newOwner`). Can only be called by the current owner."
      }
    }
  },
  "userdoc": {
    "methods": {}
  }
}