{
  "contractName": "CLVToken",
  "abi": [
    {
      "constant": true,
      "inputs": [],
      "name": "_totalSupply",
      "outputs": [
        {
          "internalType": "uint256",
          "name": "",
          "type": "uint256"
        }
      ],
      "payable": false,
      "stateMutability": "view",
      "type": "function"
    },
    {
      "constant": false,
      "inputs": [],
      "name": "renounceOwnership",
      "outputs": [],
      "payable": false,
      "stateMutability": "nonpayable",
      "type": "function"
    },
    {
      "constant": true,
      "inputs": [],
      "name": "owner",
      "outputs": [
        {
          "internalType": "address",
          "name": "",
          "type": "address"
        }
      ],
      "payable": false,
      "stateMutability": "view",
      "type": "function"
    },
    {
      "constant": true,
      "inputs": [],
      "name": "isOwner",
      "outputs": [
        {
          "internalType": "bool",
          "name": "",
          "type": "bool"
        }
      ],
      "payable": false,
      "stateMutability": "view",
      "type": "function"
    },
    {
      "constant": true,
      "inputs": [],
      "name": "tokenDataAddress",
      "outputs": [
        {
          "internalType": "address",
          "name": "",
          "type": "address"
        }
      ],
      "payable": false,
      "stateMutability": "view",
      "type": "function"
    },
    {
      "constant": true,
      "inputs": [],
      "name": "poolManagerAddress",
      "outputs": [
        {
          "internalType": "address",
          "name": "",
          "type": "address"
        }
      ],
      "payable": false,
      "stateMutability": "view",
      "type": "function"
    },
    {
      "constant": false,
      "inputs": [
        {
          "internalType": "address",
          "name": "newOwner",
          "type": "address"
        }
      ],
      "name": "transferOwnership",
      "outputs": [],
      "payable": false,
      "stateMutability": "nonpayable",
      "type": "function"
    },
    {
      "inputs": [],
      "payable": false,
      "stateMutability": "nonpayable",
      "type": "constructor"
    },
    {
      "anonymous": false,
      "inputs": [
        {
          "indexed": false,
          "internalType": "address",
          "name": "_newPoolManagerAddress",
          "type": "address"
        }
      ],
      "name": "PoolManagerAddressChanged",
      "type": "event"
    },
    {
      "anonymous": false,
      "inputs": [
        {
          "indexed": false,
          "internalType": "address",
          "name": "_user",
          "type": "address"
        },
        {
          "indexed": false,
          "internalType": "uint256",
          "name": "_amount",
          "type": "uint256"
        }
      ],
      "name": "CLVTokenBalanceUpdated",
      "type": "event"
    },
    {
      "anonymous": false,
      "inputs": [
        {
          "indexed": true,
          "internalType": "address",
          "name": "previousOwner",
          "type": "address"
        },
        {
          "indexed": true,
          "internalType": "address",
          "name": "newOwner",
          "type": "address"
        }
      ],
      "name": "OwnershipTransferred",
      "type": "event"
    },
    {
      "anonymous": false,
      "inputs": [
        {
          "indexed": true,
          "internalType": "address",
          "name": "from",
          "type": "address"
        },
        {
          "indexed": true,
          "internalType": "address",
          "name": "to",
          "type": "address"
        },
        {
          "indexed": false,
          "internalType": "uint256",
          "name": "value",
          "type": "uint256"
        }
      ],
      "name": "Transfer",
      "type": "event"
    },
    {
      "anonymous": false,
      "inputs": [
        {
          "indexed": true,
          "internalType": "address",
          "name": "owner",
          "type": "address"
        },
        {
          "indexed": true,
          "internalType": "address",
          "name": "spender",
          "type": "address"
        },
        {
          "indexed": false,
          "internalType": "uint256",
          "name": "value",
          "type": "uint256"
        }
      ],
      "name": "Approval",
      "type": "event"
    },
    {
      "constant": false,
      "inputs": [
        {
          "internalType": "address",
          "name": "_poolManagerAddress",
          "type": "address"
        }
      ],
      "name": "setPoolManagerAddress",
      "outputs": [],
      "payable": false,
      "stateMutability": "nonpayable",
      "type": "function"
    },
    {
      "constant": false,
      "inputs": [
        {
          "internalType": "address",
          "name": "_account",
          "type": "address"
        },
        {
          "internalType": "uint256",
          "name": "_amount",
          "type": "uint256"
        }
      ],
      "name": "mint",
      "outputs": [
        {
          "internalType": "bool",
          "name": "",
          "type": "bool"
        }
      ],
      "payable": false,
      "stateMutability": "nonpayable",
      "type": "function"
    },
    {
      "constant": false,
      "inputs": [
        {
          "internalType": "address",
          "name": "_account",
          "type": "address"
        },
        {
          "internalType": "uint256",
          "name": "_amount",
          "type": "uint256"
        }
      ],
      "name": "burn",
      "outputs": [
        {
          "internalType": "bool",
          "name": "",
          "type": "bool"
        }
      ],
      "payable": false,
      "stateMutability": "nonpayable",
      "type": "function"
    },
    {
      "constant": false,
      "inputs": [
        {
          "internalType": "address",
          "name": "_sender",
          "type": "address"
        },
        {
          "internalType": "address",
          "name": "poolAddress",
          "type": "address"
        },
        {
          "internalType": "uint256",
          "name": "_amount",
          "type": "uint256"
        }
      ],
      "name": "sendToPool",
      "outputs": [
        {
          "internalType": "bool",
          "name": "",
          "type": "bool"
        }
      ],
      "payable": false,
      "stateMutability": "nonpayable",
      "type": "function"
    },
    {
      "constant": false,
      "inputs": [
        {
          "internalType": "address",
          "name": "poolAddress",
          "type": "address"
        },
        {
          "internalType": "address",
          "name": "user",
          "type": "address"
        },
        {
          "internalType": "uint256",
          "name": "_amount",
          "type": "uint256"
        }
      ],
      "name": "returnFromPool",
      "outputs": [
        {
          "internalType": "bool",
          "name": "",
          "type": "bool"
        }
      ],
      "payable": false,
      "stateMutability": "nonpayable",
      "type": "function"
    },
    {
      "constant": true,
      "inputs": [],
      "name": "totalSupply",
      "outputs": [
        {
          "internalType": "uint256",
          "name": "",
          "type": "uint256"
        }
      ],
      "payable": false,
      "stateMutability": "view",
      "type": "function"
    },
    {
      "constant": true,
      "inputs": [
        {
          "internalType": "address",
          "name": "account",
          "type": "address"
        }
      ],
      "name": "balanceOf",
      "outputs": [
        {
          "internalType": "uint256",
          "name": "",
          "type": "uint256"
        }
      ],
      "payable": false,
      "stateMutability": "view",
      "type": "function"
    },
    {
      "constant": false,
      "inputs": [
        {
          "internalType": "address",
          "name": "recipient",
          "type": "address"
        },
        {
          "internalType": "uint256",
          "name": "amount",
          "type": "uint256"
        }
      ],
      "name": "transfer",
      "outputs": [
        {
          "internalType": "bool",
          "name": "",
          "type": "bool"
        }
      ],
      "payable": false,
      "stateMutability": "nonpayable",
      "type": "function"
    },
    {
      "constant": true,
      "inputs": [
        {
          "internalType": "address",
          "name": "owner",
          "type": "address"
        },
        {
          "internalType": "address",
          "name": "spender",
          "type": "address"
        }
      ],
      "name": "allowance",
      "outputs": [
        {
          "internalType": "uint256",
          "name": "",
          "type": "uint256"
        }
      ],
      "payable": false,
      "stateMutability": "view",
      "type": "function"
    },
    {
      "constant": false,
      "inputs": [
        {
          "internalType": "address",
          "name": "spender",
          "type": "address"
        },
        {
          "internalType": "uint256",
          "name": "amount",
          "type": "uint256"
        }
      ],
      "name": "approve",
      "outputs": [
        {
          "internalType": "bool",
          "name": "",
          "type": "bool"
        }
      ],
      "payable": false,
      "stateMutability": "nonpayable",
      "type": "function"
    },
    {
      "constant": false,
      "inputs": [
        {
          "internalType": "address",
          "name": "sender",
          "type": "address"
        },
        {
          "internalType": "address",
          "name": "recipient",
          "type": "address"
        },
        {
          "internalType": "uint256",
          "name": "amount",
          "type": "uint256"
        }
      ],
      "name": "transferFrom",
      "outputs": [
        {
          "internalType": "bool",
          "name": "",
          "type": "bool"
        }
      ],
      "payable": false,
      "stateMutability": "nonpayable",
      "type": "function"
    },
    {
      "constant": false,
      "inputs": [
        {
          "internalType": "address",
          "name": "spender",
          "type": "address"
        },
        {
          "internalType": "uint256",
          "name": "addedValue",
          "type": "uint256"
        }
      ],
      "name": "increaseAllowance",
      "outputs": [
        {
          "internalType": "bool",
          "name": "",
          "type": "bool"
        }
      ],
      "payable": false,
      "stateMutability": "nonpayable",
      "type": "function"
    },
    {
      "constant": false,
      "inputs": [
        {
          "internalType": "address",
          "name": "spender",
          "type": "address"
        },
        {
          "internalType": "uint256",
          "name": "subtractedValue",
          "type": "uint256"
        }
      ],
      "name": "decreaseAllowance",
      "outputs": [
        {
          "internalType": "bool",
          "name": "",
          "type": "bool"
        }
      ],
      "payable": false,
      "stateMutability": "nonpayable",
      "type": "function"
    }
  ],
  "bytecode": "0x608060405234801561001057600080fd5b5060006100246001600160e01b036100c916565b600080546001600160a01b0319166001600160a01b0383169081178255604051929350917f8be0079c531659141344cd1fd0a4f28419497f9722a3daafe3b4186f6b6457e0908290a35060405161007a906100cd565b604051809103906000f080158015610096573d6000803e3d6000fd5b50600380546001600160a01b03199081166001600160a01b039384161791829055600480549290931691161790556100da565b3390565b610a71806114a383390190565b6113ba806100e96000396000f3fe608060405234801561001057600080fd5b506004361061016c5760003560e01c80638f32d59b116100cd578063bb997bac11610081578063dd62ed3e11610066578063dd62ed3e146103a5578063e6a13f30146103d3578063f2fde38b146103db5761016c565b8063bb997bac146101cb578063cf56c99f1461039d5761016c565b8063a457c2d7116100b2578063a457c2d71461031f578063a9059cbb1461034b578063ab95b1a2146103775761016c565b80638f32d59b146102eb5780639dc29fac146102f35761016c565b80633eaaf86b1161012457806370a082311161010957806370a0823114610297578063715018a6146102bd5780638da5cb5b146102c75761016c565b80633eaaf86b1461026357806340c10f191461026b5761016c565b806320c582be1161015557806320c582be146101cb57806323b872dd1461020157806339509351146102375761016c565b8063095ea7b31461017157806318160ddd146101b1575b600080fd5b61019d6004803603604081101561018757600080fd5b506001600160a01b038135169060200135610401565b604080519115158252519081900360200190f35b6101b961041e565b60408051918252519081900360200190f35b61019d600480360360608110156101e157600080fd5b506001600160a01b03813581169160208101359091169060400135610424565b61019d6004803603606081101561021757600080fd5b506001600160a01b03813581169160208101359091169060400135610495565b61019d6004803603604081101561024d57600080fd5b506001600160a01b038135169060200135610592565b6101b9610667565b61019d6004803603604081101561028157600080fd5b506001600160a01b03813516906020013561066d565b6101b9600480360360208110156102ad57600080fd5b50356001600160a01b03166106d3565b6102c561076e565b005b6102cf61081e565b604080516001600160a01b039092168252519081900360200190f35b61019d61082d565b61019d6004803603604081101561030957600080fd5b506001600160a01b038135169060200135610851565b61019d6004803603604081101561033557600080fd5b506001600160a01b0381351690602001356108b7565b61019d6004803603604081101561036157600080fd5b506001600160a01b038135169060200135610955565b6102c56004803603602081101561038d57600080fd5b50356001600160a01b0316610969565b6102cf610a23565b6101b9600480360360408110156103bb57600080fd5b506001600160a01b0381358116916020013516610a32565b6102cf610aa4565b6102c5600480360360208110156103f157600080fd5b50356001600160a01b0316610ab3565b600061041561040e610b18565b8484610b1c565b50600192915050565b60025490565b6001546000906001600160a01b031661043b610b18565b6001600160a01b0316146104805760405162461bcd60e51b815260040180806020018281038252602581526020018061133c6025913960400191505060405180910390fd5b61048b848484610c7b565b5060019392505050565b60006104a2848484610c7b565b6000610573836040518060600160405280602881526020016112aa602891396003546001600160a01b0316630af4187d896104db610b18565b6040518363ffffffff1660e01b815260040180836001600160a01b03166001600160a01b03168152602001826001600160a01b03166001600160a01b031681526020019250505060206040518083038186803b15801561053a57600080fd5b505afa15801561054e573d6000803e3d6000fd5b505050506040513d602081101561056457600080fd5b5051919063ffffffff610e2616565b905061058785610581610b18565b83610b1c565b506001949350505050565b60035460009081906106539084906001600160a01b0316630af4187d6105b6610b18565b604080517fffffffff0000000000000000000000000000000000000000000000000000000060e085901b1681526001600160a01b039283166004820152918a166024830152516044808301926020929190829003018186803b15801561061b57600080fd5b505afa15801561062f573d6000803e3d6000fd5b505050506040513d602081101561064557600080fd5b50519063ffffffff610ebd16565b905061048b610660610b18565b8583610b1c565b60025481565b6001546000906001600160a01b0316610684610b18565b6001600160a01b0316146106c95760405162461bcd60e51b815260040180806020018281038252602581526020018061133c6025913960400191505060405180910390fd5b6104158383610f1e565b600354604080517ff8b2cb4f0000000000000000000000000000000000000000000000000000000081526001600160a01b03848116600483015291516000938493169163f8b2cb4f916024808301926020929190829003018186803b15801561073b57600080fd5b505afa15801561074f573d6000803e3d6000fd5b505050506040513d602081101561076557600080fd5b50519392505050565b61077661082d565b6107c7576040805162461bcd60e51b815260206004820181905260248201527f4f776e61626c653a2063616c6c6572206973206e6f7420746865206f776e6572604482015290519081900360640190fd5b600080546040516001600160a01b03909116907f8be0079c531659141344cd1fd0a4f28419497f9722a3daafe3b4186f6b6457e0908390a36000805473ffffffffffffffffffffffffffffffffffffffff19169055565b6000546001600160a01b031690565b600080546001600160a01b0316610842610b18565b6001600160a01b031614905090565b6001546000906001600160a01b0316610868610b18565b6001600160a01b0316146108ad5760405162461bcd60e51b815260040180806020018281038252602581526020018061133c6025913960400191505060405180910390fd5b6104158383611041565b60008061065383604051806060016040528060258152602001611361602591396003546001600160a01b0316630af4187d6108f0610b18565b604080517fffffffff0000000000000000000000000000000000000000000000000000000060e085901b1681526001600160a01b039283166004820152918b166024830152516044808301926020929190829003018186803b15801561053a57600080fd5b6000610415610962610b18565b8484610c7b565b61097161082d565b6109c2576040805162461bcd60e51b815260206004820181905260248201527f4f776e61626c653a2063616c6c6572206973206e6f7420746865206f776e6572604482015290519081900360640190fd5b600180546001600160a01b03831673ffffffffffffffffffffffffffffffffffffffff19909116811790915560408051918252517f4d839b74477afe774fbb734df87db25e56c0427973aac588bb3ce7ce937f88509181900360200190a150565b6004546001600160a01b031681565b600354604080517f0af4187d0000000000000000000000000000000000000000000000000000000081526001600160a01b038581166004830152848116602483015291516000939290921691630af4187d91604480820192602092909190829003018186803b15801561073b57600080fd5b6001546001600160a01b031681565b610abb61082d565b610b0c576040805162461bcd60e51b815260206004820181905260248201527f4f776e61626c653a2063616c6c6572206973206e6f7420746865206f776e6572604482015290519081900360640190fd5b610b158161114f565b50565b3390565b6001600160a01b038316610b615760405162461bcd60e51b81526004018080602001828103825260248152602001806113186024913960400191505060405180910390fd5b6001600160a01b038216610ba65760405162461bcd60e51b81526004018080602001828103825260228152602001806112886022913960400191505060405180910390fd5b600354604080517fda46098c0000000000000000000000000000000000000000000000000000000081526001600160a01b0386811660048301528581166024830152604482018590529151919092169163da46098c91606480830192600092919082900301818387803b158015610c1c57600080fd5b505af1158015610c30573d6000803e3d6000fd5b50506040805184815290516001600160a01b038087169450871692507f8c5be1e5ebec7d5bd14f71427d1e84f3dd0314c0f7b2291e5b200ac8c7c3b9259181900360200190a3505050565b6001600160a01b038316610cc05760405162461bcd60e51b81526004018080602001828103825260258152602001806112f36025913960400191505060405180910390fd5b6001600160a01b038216610d055760405162461bcd60e51b815260040180806020018281038252602381526020018061123f6023913960400191505060405180910390fd5b60035460408051630c311fe960e41b81526001600160a01b038681166004830152602482018590529151919092169163c311fe9091604480830192600092919082900301818387803b158015610d5a57600080fd5b505af1158015610d6e573d6000803e3d6000fd5b5050600354604080516358403cd360e11b81526001600160a01b03878116600483015260248201879052915191909216935063b08079a69250604480830192600092919082900301818387803b158015610dc757600080fd5b505af1158015610ddb573d6000803e3d6000fd5b50506040805184815290516001600160a01b038087169450871692507fddf252ad1be2c89b69c2b068fc378daa952ba7f163c4a11628f55a4df523b3ef9181900360200190a3505050565b60008184841115610eb55760405162461bcd60e51b81526004018080602001828103825283818151815260200191508051906020019080838360005b83811015610e7a578181015183820152602001610e62565b50505050905090810190601f168015610ea75780820380516001836020036101000a031916815260200191505b509250505060405180910390fd5b505050900390565b600082820183811015610f17576040805162461bcd60e51b815260206004820152601b60248201527f536166654d6174683a206164646974696f6e206f766572666c6f770000000000604482015290519081900360640190fd5b9392505050565b6001600160a01b038216610f79576040805162461bcd60e51b815260206004820152601f60248201527f45524332303a206d696e7420746f20746865207a65726f206164647265737300604482015290519081900360640190fd5b600254610f8c908263ffffffff610ebd16565b600255600354604080516358403cd360e11b81526001600160a01b038581166004830152602482018590529151919092169163b08079a691604480830192600092919082900301818387803b158015610fe457600080fd5b505af1158015610ff8573d6000803e3d6000fd5b50506040805184815290516001600160a01b0386169350600092507fddf252ad1be2c89b69c2b068fc378daa952ba7f163c4a11628f55a4df523b3ef9181900360200190a35050565b6001600160a01b0382166110865760405162461bcd60e51b81526004018080602001828103825260218152602001806112d26021913960400191505060405180910390fd5b60035460408051630c311fe960e41b81526001600160a01b038581166004830152602482018590529151919092169163c311fe9091604480830192600092919082900301818387803b1580156110db57600080fd5b505af11580156110ef573d6000803e3d6000fd5b5050600254611107925090508263ffffffff6111fc16565b6002556040805182815290516000916001600160a01b038516917fddf252ad1be2c89b69c2b068fc378daa952ba7f163c4a11628f55a4df523b3ef9181900360200190a35050565b6001600160a01b0381166111945760405162461bcd60e51b81526004018080602001828103825260268152602001806112626026913960400191505060405180910390fd5b600080546040516001600160a01b03808516939216917f8be0079c531659141344cd1fd0a4f28419497f9722a3daafe3b4186f6b6457e091a36000805473ffffffffffffffffffffffffffffffffffffffff19166001600160a01b0392909216919091179055565b6000610f1783836040518060400160405280601e81526020017f536166654d6174683a207375627472616374696f6e206f766572666c6f770000815250610e2656fe45524332303a207472616e7366657220746f20746865207a65726f20616464726573734f776e61626c653a206e6577206f776e657220697320746865207a65726f206164647265737345524332303a20617070726f766520746f20746865207a65726f206164647265737345524332303a207472616e7366657220616d6f756e74206578636565647320616c6c6f77616e636545524332303a206275726e2066726f6d20746865207a65726f206164647265737345524332303a207472616e736665722066726f6d20746865207a65726f206164647265737345524332303a20617070726f76652066726f6d20746865207a65726f2061646472657373434c56546f6b656e3a204f6e6c792074686520706f6f6c20697320617574686f72697a656445524332303a2064656372656173656420616c6c6f77616e63652062656c6f77207a65726fa265627a7a72315820ba2f85748479415674207723a355b0c0dcbcccd88e793063f6565b134636205664736f6c634300050b0032608060405234801561001057600080fd5b5060006100246001600160e01b036100a416565b600080546001600160a01b0319166001600160a01b0383169081178255604051929350917f8be0079c531659141344cd1fd0a4f28419497f9722a3daafe3b4186f6b6457e0908290a35061007f6001600160e01b036100a416565b600380546001600160a01b0319166001600160a01b03929092169190911790556100a8565b3390565b6109ba806100b76000396000f3fe608060405234801561001057600080fd5b50600436106100d45760003560e01c8063b08079a611610081578063e30443bc1161005b578063e30443bc14610245578063f2fde38b14610271578063f8b2cb4f14610297576100d4565b8063b08079a6146101b7578063c311fe90146101e3578063da46098c1461020f576100d4565b8063715018a6116100b2578063715018a61461016d5780638da5cb5b146101775780638f32d59b1461019b576100d4565b80630af4187d146100d957806327e235e31461011957806355b6ed5c1461013f575b600080fd5b610107600480360360408110156100ef57600080fd5b506001600160a01b03813581169160200135166102bd565b60408051918252519081900360200190f35b6101076004803603602081101561012f57600080fd5b50356001600160a01b0316610345565b6101076004803603604081101561015557600080fd5b506001600160a01b0381358116916020013516610357565b610175610374565b005b61017f610424565b604080516001600160a01b039092168252519081900360200190f35b6101a3610433565b604080519115158252519081900360200190f35b610175600480360360408110156101cd57600080fd5b506001600160a01b038135169060200135610457565b610175600480360360408110156101f957600080fd5b506001600160a01b0381351690602001356104f9565b6101756004803603606081101561022557600080fd5b506001600160a01b03813581169160208101359091169060400135610595565b6101756004803603604081101561025b57600080fd5b506001600160a01b03813516906020013561061a565b6101756004803603602081101561028757600080fd5b50356001600160a01b031661068f565b610107600480360360208110156102ad57600080fd5b50356001600160a01b03166106f4565b6003546000906001600160a01b03166102d461076c565b6001600160a01b0316146103195760405162461bcd60e51b81526004018080602001828103825260228152602001806109646022913960400191505060405180910390fd5b506001600160a01b03918216600090815260026020908152604080832093909416825291909152205490565b60016020526000908152604090205481565b600260209081526000928352604080842090915290825290205481565b61037c610433565b6103cd576040805162461bcd60e51b815260206004820181905260248201527f4f776e61626c653a2063616c6c6572206973206e6f7420746865206f776e6572604482015290519081900360640190fd5b600080546040516001600160a01b03909116907f8be0079c531659141344cd1fd0a4f28419497f9722a3daafe3b4186f6b6457e0908390a36000805473ffffffffffffffffffffffffffffffffffffffff19169055565b6000546001600160a01b031690565b600080546001600160a01b031661044861076c565b6001600160a01b031614905090565b6003546001600160a01b031661046b61076c565b6001600160a01b0316146104b05760405162461bcd60e51b81526004018080602001828103825260228152602001806109646022913960400191505060405180910390fd5b6001600160a01b0382166000908152600160205260409020546104d9908263ffffffff61077016565b6001600160a01b0390921660009081526001602052604090209190915550565b6003546001600160a01b031661050d61076c565b6001600160a01b0316146105525760405162461bcd60e51b81526004018080602001828103825260228152602001806109646022913960400191505060405180910390fd5b6104d98160405180606001604052806028815260200161093c602891396001600160a01b038516600090815260016020526040902054919063ffffffff6107d116565b6003546001600160a01b03166105a961076c565b6001600160a01b0316146105ee5760405162461bcd60e51b81526004018080602001828103825260228152602001806109646022913960400191505060405180910390fd5b6001600160a01b0392831660009081526002602090815260408083209490951682529290925291902055565b6003546001600160a01b031661062e61076c565b6001600160a01b0316146106735760405162461bcd60e51b81526004018080602001828103825260228152602001806109646022913960400191505060405180910390fd5b6001600160a01b03909116600090815260016020526040902055565b610697610433565b6106e8576040805162461bcd60e51b815260206004820181905260248201527f4f776e61626c653a2063616c6c6572206973206e6f7420746865206f776e6572604482015290519081900360640190fd5b6106f181610868565b50565b6003546000906001600160a01b031661070b61076c565b6001600160a01b0316146107505760405162461bcd60e51b81526004018080602001828103825260228152602001806109646022913960400191505060405180910390fd5b506001600160a01b031660009081526001602052604090205490565b3390565b6000828201838110156107ca576040805162461bcd60e51b815260206004820152601b60248201527f536166654d6174683a206164646974696f6e206f766572666c6f770000000000604482015290519081900360640190fd5b9392505050565b600081848411156108605760405162461bcd60e51b81526004018080602001828103825283818151815260200191508051906020019080838360005b8381101561082557818101518382015260200161080d565b50505050905090810190601f1680156108525780820380516001836020036101000a031916815260200191505b509250505060405180910390fd5b505050900390565b6001600160a01b0381166108ad5760405162461bcd60e51b81526004018080602001828103825260268152602001806109166026913960400191505060405180910390fd5b600080546040516001600160a01b03808516939216917f8be0079c531659141344cd1fd0a4f28419497f9722a3daafe3b4186f6b6457e091a36000805473ffffffffffffffffffffffffffffffffffffffff19166001600160a01b039290921691909117905556fe4f776e61626c653a206e6577206f776e657220697320746865207a65726f206164647265737345524332303a207375627472616374656420616d6f756e7420657863656564732062616c616e6365434c56546f6b656e446174613a206f6e6c7920636c76546f6b656e41646472657373a265627a7a7231582013d5e9b7b032a757d1c195f88dcbc9e25ea5ff4374954a7c937716fde402dd3c64736f6c634300050b0032",
  "source": "pragma solidity ^0.5.11;\r\n\r\nimport \"./Interfaces/ICLVToken.sol\";\r\nimport \"@openzeppelin/contracts/GSN/Context.sol\";\r\nimport \"@openzeppelin/contracts/math/SafeMath.sol\";\r\nimport \"@openzeppelin/contracts/ownership/Ownable.sol\";\r\nimport \"@openzeppelin/contracts/token/ERC20/ERC20.sol\";\r\nimport \"@openzeppelin/contracts/token/ERC20/IERC20.sol\";\r\nimport \"./CLVTokenData.sol\";\r\nimport \"@nomiclabs/buidler/console.sol\";\r\n\r\ncontract CLVToken is IERC20, ICLVToken, Ownable {\r\n    using SafeMath for uint256;\r\n    \r\n    event PoolManagerAddressChanged( address _newPoolManagerAddress);\r\n    event CLVTokenBalanceUpdated(address _user, uint _amount);\r\n\r\n    address public poolManagerAddress;\r\n\r\n    uint256 public _totalSupply;\r\n\r\n    CLVTokenData clvTokenData;\r\n    address public tokenDataAddress;\r\n\r\n    constructor() public {\r\n        clvTokenData = new CLVTokenData();\r\n        tokenDataAddress = address(clvTokenData);\r\n    }    \r\n\r\n     modifier onlyPoolManager {\r\n        require(_msgSender() == poolManagerAddress, \"CLVToken: Only the pool is authorized\");\r\n        _;\r\n    }\r\n\r\n    function setPoolManagerAddress(address _poolManagerAddress) public onlyOwner {\r\n        poolManagerAddress =  _poolManagerAddress;\r\n        emit PoolManagerAddressChanged(_poolManagerAddress);\r\n    }\r\n\r\n    function mint(address _account, uint256 _amount) public onlyPoolManager returns (bool) {\r\n        _mint(_account, _amount); \r\n        return true;\r\n    }\r\n    \r\n    function burn(address _account, uint256 _amount) public onlyPoolManager returns (bool) {\r\n        _burn(_account, _amount); \r\n        return true;\r\n    }\r\n    \r\n    function sendToPool(address _sender,  address poolAddress, uint256 _amount) public onlyPoolManager returns (bool) {\r\n        _transfer(_sender, poolAddress, _amount);\r\n        return true;\r\n    }\r\n    \r\n    function returnFromPool(address poolAddress, address user, uint256 _amount ) public onlyPoolManager returns (bool) {\r\n        _transfer(poolAddress, user, _amount);\r\n        return true;\r\n    }\r\n\r\n   // --- OPENZEPPELIN ERC20 FUNCTIONALITY ---\r\n\r\n   /**\r\n * @dev Implementation of the {IERC20} interface.\r\n *\r\n * This implementation is agnostic to the way tokens are created. This means\r\n * that a supply mechanism has to be added in a derived contract using {_mint}.\r\n * For a generic mechanism see {ERC20Mintable}.\r\n *\r\n * TIP: For a detailed writeup see our guide\r\n * https://forum.zeppelin.solutions/t/how-to-implement-erc20-supply-mechanisms/226[How\r\n * to implement supply mechanisms].\r\n *\r\n * We have followed general OpenZeppelin guidelines: functions revert instead\r\n * of returning `false` on failure. This behavior is nonetheless conventional\r\n * and does not conflict with the expectations of ERC20 applications.\r\n *\r\n * Additionally, an {Approval} event is emitted on calls to {transferFrom}.\r\n * This allows applications to reconstruct the allowance for all accounts just\r\n * by listening to said events. Other implementations of the EIP may not emit\r\n * these events, as it isn't required by the specification.\r\n *\r\n * Finally, the non-standard {decreaseAllowance} and {increaseAllowance}\r\n * functions have been added to mitigate the well-known issues around setting\r\n * allowances. See {IERC20-approve}.\r\n */\r\n   \r\n    /**\r\n     * @dev See {IERC20-totalSupply}.\r\n     */\r\n    function totalSupply() public view returns (uint256) {\r\n        return _totalSupply;\r\n    }\r\n\r\n    /**\r\n     * @dev See {IERC20-balanceOf}.\r\n     */\r\n    function balanceOf(address account) public view returns (uint256) {\r\n        uint balance = clvTokenData.getBalance(account); \r\n        return balance; \r\n    }\r\n\r\n    /**\r\n     * @dev See {IERC20-transfer}.\r\n     *\r\n     * Requirements:\r\n     *\r\n     * - `recipient` cannot be the zero address.\r\n     * - the caller must have a balance of at least `amount`.\r\n     */\r\n    function transfer(address recipient, uint256 amount) public returns (bool) {\r\n        _transfer(_msgSender(), recipient, amount);\r\n        return true;\r\n    }\r\n\r\n    /**\r\n     * @dev See {IERC20-allowance}.\r\n     */\r\n    function allowance(address owner, address spender) public view returns (uint256) {\r\n        return clvTokenData.getAllowance(owner, spender);\r\n    }\r\n\r\n    /**\r\n     * @dev See {IERC20-approve}.\r\n     *\r\n     * Requirements:\r\n     *\r\n     * - `spender` cannot be the zero address.\r\n     */\r\n    function approve(address spender, uint256 amount) public returns (bool) {\r\n        _approve(_msgSender(), spender, amount);\r\n        return true;\r\n    }\r\n\r\n    /**\r\n     * @dev See {IERC20-transferFrom}.\r\n     *\r\n     * Emits an {Approval} event indicating the updated allowance. This is not\r\n     * required by the EIP. See the note at the beginning of {ERC20};\r\n     *\r\n     * Requirements:\r\n     * - `sender` and `recipient` cannot be the zero address.\r\n     * - `sender` must have a balance of at least `amount`.\r\n     * - the caller must have allowance for `sender`'s tokens of at least\r\n     * `amount`.\r\n     */\r\n    function transferFrom(address sender, address recipient, uint256 amount) public returns (bool) {\r\n        _transfer(sender, recipient, amount);\r\n        uint newAllowance = clvTokenData.getAllowance(sender, _msgSender()).sub(amount, \"ERC20: transfer amount exceeds allowance\");\r\n        _approve(sender, _msgSender(), newAllowance);\r\n        return true;\r\n    }\r\n\r\n    /**\r\n     * @dev Atomically increases the allowance granted to `spender` by the caller.\r\n     *\r\n     * This is an alternative to {approve} that can be used as a mitigation for\r\n     * problems described in {IERC20-approve}.\r\n     *\r\n     * Emits an {Approval} event indicating the updated allowance.\r\n     *\r\n     * Requirements:\r\n     *\r\n     * - `spender` cannot be the zero address.\r\n     */\r\n    function increaseAllowance(address spender, uint256 addedValue) public returns (bool) {\r\n        uint newAllowance = clvTokenData.getAllowance(_msgSender(),spender).add(addedValue);\r\n        _approve(_msgSender(), spender, newAllowance);\r\n        return true;\r\n    }\r\n\r\n    /**\r\n     * @dev Atomically decreases the allowance granted to `spender` by the caller.\r\n     *\r\n     * This is an alternative to {approve} that can be used as a mitigation for\r\n     * problems described in {IERC20-approve}.\r\n     *\r\n     * Emits an {Approval} event indicating the updated allowance.\r\n     *\r\n     * Requirements:\r\n     *\r\n     * - `spender` cannot be the zero address.\r\n     * - `spender` must have allowance for the caller of at least\r\n     * `subtractedValue`.\r\n     */\r\n    function decreaseAllowance(address spender, uint256 subtractedValue) public returns (bool) {\r\n        uint newAllowance = clvTokenData.getAllowance(_msgSender(), spender).sub(subtractedValue, \"ERC20: decreased allowance below zero\");\r\n        _approve(_msgSender(), spender, newAllowance);\r\n        return true;\r\n    }\r\n\r\n    /**\r\n     * @dev Moves tokens `amount` from `sender` to `recipient`.\r\n     *\r\n     * This is internal function is equivalent to {transfer}, and can be used to\r\n     * e.g. implement automatic token fees, slashing mechanisms, etc.\r\n     *\r\n     * Emits a {Transfer} event.\r\n     *\r\n     * Requirements:\r\n     *\r\n     * - `sender` cannot be the zero address.\r\n     * - `recipient` cannot be the zero address.\r\n     * - `sender` must have a balance of at least `amount`.\r\n     */\r\n    function _transfer(address sender, address recipient, uint256 amount) internal {\r\n        require(sender != address(0), \"ERC20: transfer from the zero address\");\r\n        require(recipient != address(0), \"ERC20: transfer to the zero address\");\r\n\r\n        clvTokenData.subFromBalance(sender, amount);\r\n        clvTokenData.addToBalance(recipient, amount);\r\n        emit Transfer(sender, recipient, amount);\r\n    }\r\n\r\n    /** @dev Creates `amount` tokens and assigns them to `account`, increasing\r\n     * the total supply.\r\n     *\r\n     * Emits a {Transfer} event with `from` set to the zero address.\r\n     *\r\n     * Requirements\r\n     *\r\n     * - `to` cannot be the zero address.\r\n     */\r\n    function _mint(address account, uint256 amount) internal {\r\n        require(account != address(0), \"ERC20: mint to the zero address\");\r\n\r\n        _totalSupply = _totalSupply.add(amount);\r\n        clvTokenData.addToBalance(account, amount);\r\n        emit Transfer(address(0), account, amount);\r\n    }\r\n\r\n     /**\r\n     * @dev Destroys `amount` tokens from `account`, reducing the\r\n     * total supply.\r\n     *\r\n     * Emits a {Transfer} event with `to` set to the zero address.\r\n     *\r\n     * Requirements\r\n     *\r\n     * - `account` cannot be the zero address.\r\n     * - `account` must have at least `amount` tokens.\r\n     */\r\n    function _burn(address account, uint256 amount) internal {\r\n        require(account != address(0), \"ERC20: burn from the zero address\");  \r\n        clvTokenData.subFromBalance(account, amount);  \r\n        \r\n        _totalSupply = _totalSupply.sub(amount);  \r\n\r\n        emit Transfer(account, address(0), amount); \r\n    }\r\n\r\n    /**\r\n     * @dev Sets `amount` as the allowance of `spender` over the `owner`s tokens.\r\n     *\r\n     * This is internal function is equivalent to `approve`, and can be used to\r\n     * e.g. set automatic allowances for certain subsystems, etc.\r\n     *\r\n     * Emits an {Approval} event.\r\n     *\r\n     * Requirements:\r\n     *\r\n     * - `owner` cannot be the zero address.\r\n     * - `spender` cannot be the zero address.\r\n     */\r\n    function _approve(address owner, address spender, uint256 amount) internal {\r\n        require(owner != address(0), \"ERC20: approve from the zero address\");\r\n        require(spender != address(0), \"ERC20: approve to the zero address\");\r\n\r\n        clvTokenData.setAllowance(owner, spender, amount);\r\n        emit Approval(owner, spender, amount);\r\n    }\r\n\r\n    /**\r\n     * @dev Destroys `amount` tokens from `account`.`amount` is then deducted\r\n     * from the caller's allowance.\r\n     *\r\n     * See {_burn} and {_approve}.\r\n     */\r\n    function _burnFrom(address account, uint256 amount) internal {\r\n        _burn(account, amount);\r\n        uint newAllowance = clvTokenData.getAllowance(account, _msgSender()).sub(amount, \"ERC20: burn amount exceeds allowance\");\r\n        _approve(account, _msgSender(), newAllowance);\r\n    }\r\n}\r\n",
  "sourcePath": "c:/Users/Rick/Desktop/Cleverage/packages/contracts/contracts/CLVToken.sol",
  "compiler": {
    "name": "solc",
    "version": "0.5.11+commit.c082d0b4.Emscripten.clang"
  },
  "schemaVersion": "3.0.20",
  "updatedAt": "2020-04-26T18:49:44.614Z",
  "devdoc": {
    "methods": {
      "allowance(address,address)": {
        "details": "See {IERC20-allowance}.\r"
      },
      "approve(address,uint256)": {
        "details": "See {IERC20-approve}.\r      * Requirements:\r      * - `spender` cannot be the zero address.\r"
      },
      "balanceOf(address)": {
        "details": "See {IERC20-balanceOf}.\r"
      },
      "decreaseAllowance(address,uint256)": {
        "details": "Atomically decreases the allowance granted to `spender` by the caller.\r      * This is an alternative to {approve} that can be used as a mitigation for\r problems described in {IERC20-approve}.\r      * Emits an {Approval} event indicating the updated allowance.\r      * Requirements:\r      * - `spender` cannot be the zero address.\r - `spender` must have allowance for the caller of at least\r `subtractedValue`.\r"
      },
      "increaseAllowance(address,uint256)": {
        "details": "Atomically increases the allowance granted to `spender` by the caller.\r      * This is an alternative to {approve} that can be used as a mitigation for\r problems described in {IERC20-approve}.\r      * Emits an {Approval} event indicating the updated allowance.\r      * Requirements:\r      * - `spender` cannot be the zero address.\r"
      },
      "isOwner()": {
        "details": "Returns true if the caller is the current owner."
      },
      "owner()": {
        "details": "Returns the address of the current owner."
      },
      "renounceOwnership()": {
        "details": "Leaves the contract without owner. It will not be possible to call `onlyOwner` functions anymore. Can only be called by the current owner.     * NOTE: Renouncing ownership will leave the contract without an owner, thereby removing any functionality that is only available to the owner."
      },
      "totalSupply()": {
        "details": "See {IERC20-totalSupply}.\r"
      },
      "transfer(address,uint256)": {
        "details": "See {IERC20-transfer}.\r      * Requirements:\r      * - `recipient` cannot be the zero address.\r - the caller must have a balance of at least `amount`.\r"
      },
      "transferFrom(address,address,uint256)": {
        "details": "See {IERC20-transferFrom}.\r      * Emits an {Approval} event indicating the updated allowance. This is not\r required by the EIP. See the note at the beginning of {ERC20};\r      * Requirements:\r - `sender` and `recipient` cannot be the zero address.\r - `sender` must have a balance of at least `amount`.\r - the caller must have allowance for `sender`'s tokens of at least\r `amount`.\r"
      },
      "transferOwnership(address)": {
        "details": "Transfers ownership of the contract to a new account (`newOwner`). Can only be called by the current owner."
      }
    }
  },
  "userdoc": {
    "methods": {}
  }
}