{
  "contractName": "EchidnaProxy",
  "abi": [
    {
      "anonymous": false,
      "inputs": [
        {
          "indexed": false,
          "internalType": "address",
          "name": "_newBorrowerOperationsAddress",
          "type": "address"
        }
      ],
      "name": "BorrowerOperationsAddressChanged",
      "type": "event"
    },
    {
      "anonymous": false,
      "inputs": [
        {
          "indexed": false,
          "internalType": "address",
          "name": "_newCDPManagerAddress",
          "type": "address"
        }
      ],
      "name": "CDPManagerAddressChanged",
      "type": "event"
    },
    {
      "anonymous": false,
      "inputs": [
        {
          "indexed": true,
          "internalType": "address",
          "name": "previousOwner",
          "type": "address"
        },
        {
          "indexed": true,
          "internalType": "address",
          "name": "newOwner",
          "type": "address"
        }
      ],
      "name": "OwnershipTransferred",
      "type": "event"
    },
    {
      "anonymous": false,
      "inputs": [
        {
          "indexed": false,
          "internalType": "address",
          "name": "_newPoolManagerAddress",
          "type": "address"
        }
      ],
      "name": "PoolManagerAddressChanged",
      "type": "event"
    },
    {
      "constant": true,
      "inputs": [],
      "name": "borrowerOperationsAddress",
      "outputs": [
        {
          "internalType": "address",
          "name": "",
          "type": "address"
        }
      ],
      "payable": false,
      "stateMutability": "view",
      "type": "function"
    },
    {
      "constant": true,
      "inputs": [],
      "name": "cdpManagerAddress",
      "outputs": [
        {
          "internalType": "address",
          "name": "",
          "type": "address"
        }
      ],
      "payable": false,
      "stateMutability": "view",
      "type": "function"
    },
    {
      "constant": true,
      "inputs": [],
      "name": "isOwner",
      "outputs": [
        {
          "internalType": "bool",
          "name": "",
          "type": "bool"
        }
      ],
      "payable": false,
      "stateMutability": "view",
      "type": "function"
    },
    {
      "constant": true,
      "inputs": [],
      "name": "owner",
      "outputs": [
        {
          "internalType": "address",
          "name": "",
          "type": "address"
        }
      ],
      "payable": false,
      "stateMutability": "view",
      "type": "function"
    },
    {
      "constant": true,
      "inputs": [],
      "name": "poolManagerAddress",
      "outputs": [
        {
          "internalType": "address",
          "name": "",
          "type": "address"
        }
      ],
      "payable": false,
      "stateMutability": "view",
      "type": "function"
    },
    {
      "constant": false,
      "inputs": [],
      "name": "renounceOwnership",
      "outputs": [],
      "payable": false,
      "stateMutability": "nonpayable",
      "type": "function"
    },
    {
      "constant": false,
      "inputs": [
        {
          "internalType": "address",
          "name": "newOwner",
          "type": "address"
        }
      ],
      "name": "transferOwnership",
      "outputs": [],
      "payable": false,
      "stateMutability": "nonpayable",
      "type": "function"
    },
    {
      "constant": false,
      "inputs": [
        {
          "internalType": "address",
          "name": "_cdpManagerAddress",
          "type": "address"
        }
      ],
      "name": "setCDPManager",
      "outputs": [],
      "payable": false,
      "stateMutability": "nonpayable",
      "type": "function"
    },
    {
      "constant": false,
      "inputs": [
        {
          "internalType": "address payable",
          "name": "_poolManagerAddress",
          "type": "address"
        }
      ],
      "name": "setPoolManager",
      "outputs": [],
      "payable": false,
      "stateMutability": "nonpayable",
      "type": "function"
    },
    {
      "constant": false,
      "inputs": [
        {
          "internalType": "address",
          "name": "_borrowerOperationsAddress",
          "type": "address"
        }
      ],
      "name": "setBorrowerOperations",
      "outputs": [],
      "payable": false,
      "stateMutability": "nonpayable",
      "type": "function"
    },
    {
      "constant": true,
      "inputs": [],
      "name": "echidna_alwaysTrue",
      "outputs": [
        {
          "internalType": "bool",
          "name": "",
          "type": "bool"
        }
      ],
      "payable": false,
      "stateMutability": "view",
      "type": "function"
    },
    {
      "constant": true,
      "inputs": [],
      "name": "echidna_alwaysFalse",
      "outputs": [
        {
          "internalType": "bool",
          "name": "",
          "type": "bool"
        }
      ],
      "payable": false,
      "stateMutability": "view",
      "type": "function"
    }
  ],
  "bytecode": "0x608060405260006100176001600160e01b0361006616565b600080546001600160a01b0319166001600160a01b0383169081178255604051929350917f8be0079c531659141344cd1fd0a4f28419497f9722a3daafe3b4186f6b6457e0908290a35061006a565b3390565b61067c806100796000396000f3fe608060405234801561001057600080fd5b50600436106100d45760003560e01c80638f32d59b11610081578063c254f6961161005b578063c254f6961461018f578063e6a13f30146101b5578063f2fde38b146101bd576100d4565b80638f32d59b14610177578063a03b8bfa1461017f578063b7f8cf9b14610187576100d4565b80637aef6715116100b25780637aef67151461012d5780638222e3f3146101535780638da5cb5b1461016f576100d4565b806302f6567f146100d95780632f510eb1146100fd578063715018a614610125575b600080fd5b6100e16101e3565b604080516001600160a01b039092168252519081900360200190f35b6101236004803603602081101561011357600080fd5b50356001600160a01b03166101f2565b005b6101236102aa565b6101236004803603602081101561014357600080fd5b50356001600160a01b031661034d565b61015b610405565b604080519115158252519081900360200190f35b6100e161040a565b61015b610419565b61015b61043d565b6100e1610442565b610123600480360360208110156101a557600080fd5b50356001600160a01b0316610451565b6100e1610509565b610123600480360360208110156101d357600080fd5b50356001600160a01b0316610518565b6006546001600160a01b031681565b6101fa610419565b61024b576040805162461bcd60e51b815260206004820181905260248201527f4f776e61626c653a2063616c6c6572206973206e6f7420746865206f776e6572604482015290519081900360640190fd5b600280546001600160a01b0383166001600160a01b03199182168117909255600180549091168217905560408051918252517f3ca631ffcd2a9b5d9ae18543fc82f58eb4ca33af9e6ab01b7a8e95331e6ed9859181900360200190a150565b6102b2610419565b610303576040805162461bcd60e51b815260206004820181905260248201527f4f776e61626c653a2063616c6c6572206973206e6f7420746865206f776e6572604482015290519081900360640190fd5b600080546040516001600160a01b03909116907f8be0079c531659141344cd1fd0a4f28419497f9722a3daafe3b4186f6b6457e0908390a3600080546001600160a01b0319169055565b610355610419565b6103a6576040805162461bcd60e51b815260206004820181905260248201527f4f776e61626c653a2063616c6c6572206973206e6f7420746865206f776e6572604482015290519081900360640190fd5b600480546001600160a01b0383166001600160a01b03199182168117909255600380549091168217905560408051918252517f4d839b74477afe774fbb734df87db25e56c0427973aac588bb3ce7ce937f88509181900360200190a150565b600090565b6000546001600160a01b031690565b600080546001600160a01b031661042e61057d565b6001600160a01b031614905090565b600190565b6002546001600160a01b031681565b610459610419565b6104aa576040805162461bcd60e51b815260206004820181905260248201527f4f776e61626c653a2063616c6c6572206973206e6f7420746865206f776e6572604482015290519081900360640190fd5b600680546001600160a01b0383166001600160a01b03199182168117909255600580549091168217905560408051918252517f0addbd30df51ac41ccaf56a058c50522fbdc092b4e2ec8b829b29ad6716bd0979181900360200190a150565b6004546001600160a01b031681565b610520610419565b610571576040805162461bcd60e51b815260206004820181905260248201527f4f776e61626c653a2063616c6c6572206973206e6f7420746865206f776e6572604482015290519081900360640190fd5b61057a81610581565b50565b3390565b6001600160a01b0381166105c65760405162461bcd60e51b81526004018080602001828103825260268152602001806106226026913960400191505060405180910390fd5b600080546040516001600160a01b03808516939216917f8be0079c531659141344cd1fd0a4f28419497f9722a3daafe3b4186f6b6457e091a3600080546001600160a01b0319166001600160a01b039290921691909117905556fe4f776e61626c653a206e6577206f776e657220697320746865207a65726f2061646472657373a265627a7a72315820f95aa23e4a13b2007a30b2a1c3e9cd6ca8c4b46e7c1ebde9d549bc5eee6cfd0d64736f6c63430005100032",
  "source": "pragma solidity ^0.5.16;\r\n\r\nimport \"./Interfaces/IBorrowerOperations.sol\";\r\nimport \"./Interfaces/ICDPManager.sol\";\r\nimport \"./Interfaces/IPoolManager.sol\";\r\n// import \"@openzeppelin/contracts/math/SafeMath.sol\";\r\n// import \"@openzeppelin/contracts/ownership/Ownable.sol\";\r\nimport \"./SafeMath.sol\";\r\nimport \"./Ownable.sol\";\r\nimport \"./console.sol\";\r\n\r\n\r\n// Proxy contract for testing Liquity system properties via the Echidna fuzzing tool\r\ncontract EchidnaProxy is Ownable {\r\n\r\n    event BorrowerOperationsAddressChanged(address _newBorrowerOperationsAddress);\r\n    event PoolManagerAddressChanged(address _newPoolManagerAddress);\r\n    event CDPManagerAddressChanged(address _newCDPManagerAddress);\r\n    \r\n    IBorrowerOperations borrowerOperations;\r\n    address public borrowerOperationsAddress;\r\n\r\n    IPoolManager poolManager;\r\n    address public poolManagerAddress;\r\n\r\n    ICDPManager cdpManager;\r\n    address public cdpManagerAddress;\r\n\r\n    // --- Setters ---\r\n    function setCDPManager(address _cdpManagerAddress) public onlyOwner {\r\n        cdpManagerAddress = _cdpManagerAddress;\r\n        cdpManager = ICDPManager(_cdpManagerAddress);\r\n        emit CDPManagerAddressChanged(_cdpManagerAddress);\r\n    }\r\n\r\n    function setPoolManager(address payable _poolManagerAddress) public onlyOwner {\r\n        poolManagerAddress = _poolManagerAddress;\r\n        poolManager = IPoolManager(_poolManagerAddress);\r\n        emit PoolManagerAddressChanged(_poolManagerAddress);\r\n    }\r\n\r\n    function setBorrowerOperations(address _borrowerOperationsAddress) public onlyOwner {\r\n        borrowerOperationsAddress = _borrowerOperationsAddress;\r\n        borrowerOperations = IBorrowerOperations(_borrowerOperationsAddress);\r\n        emit BorrowerOperationsAddressChanged(_borrowerOperationsAddress);\r\n    }\r\n\r\n    // --- Basic Liquity property checks ---\r\n\r\n    // check TCR number\r\n    // function echidna_MCRConstantGreaterThan150() public returns (bool) {\r\n    //     return (cdpManager.MCR() > 110000000000000000000);\r\n    // }\r\n\r\n    // // check MCR constant in CDPManager\r\n    // function echidna_CCRConstantGreaterThan150() public returns(bool){\r\n    //     return (cdpManager.CCR() >  150000000000000000000); \r\n    // }\r\n\r\n    // // check 'Min coll in USD' constant in BorrowerOperations\r\n    // function echidna_MIN_COLL_IN_USD_GreaterThan20() public returns(bool){\r\n    //     return (borrowerOperations.MIN_COLL_IN_USD() >  20000000000000000000);\r\n    // }\r\n\r\n    function echidna_alwaysTrue() public view returns(bool){\r\n        return true;\r\n    }\r\n\r\n       function echidna_alwaysFalse() public view returns(bool){\r\n        return false;\r\n    }\r\n}",
  "sourcePath": "/home/training/contracts/EchidnaProxy.sol",
  "compiler": {
    "name": "solc",
    "version": "0.5.16+commit.9c3226ce.Emscripten.clang"
  },
  "schemaVersion": "3.1.0",
  "updatedAt": "2020-06-03T00:09:10.202Z",
  "devdoc": {
    "methods": {
      "isOwner()": {
        "details": "Returns true if the caller is the current owner."
      },
      "owner()": {
        "details": "Returns the address of the current owner."
      },
      "renounceOwnership()": {
        "details": "Leaves the contract without owner. It will not be possible to call `onlyOwner` functions anymore. Can only be called by the current owner.     * NOTE: Renouncing ownership will leave the contract without an owner, thereby removing any functionality that is only available to the owner."
      },
      "transferOwnership(address)": {
        "details": "Transfers ownership of the contract to a new account (`newOwner`). Can only be called by the current owner."
      }
    }
  },
  "userdoc": {
    "methods": {}
  }
}