{
  "contractName": "FunctionCaller",
  "abi": [
    {
      "constant": false,
      "inputs": [
        {
          "internalType": "address",
          "name": "_cdpManagerAddress",
          "type": "address"
        }
      ],
      "name": "setCDPManagerAddress",
      "outputs": [],
      "payable": false,
      "stateMutability": "nonpayable",
      "type": "function"
    },
    {
      "constant": false,
      "inputs": [
        {
          "internalType": "address",
          "name": "_sortedCDPsAddress",
          "type": "address"
        }
      ],
      "name": "setSortedCDPsAddress",
      "outputs": [],
      "payable": false,
      "stateMutability": "nonpayable",
      "type": "function"
    },
    {
      "constant": false,
      "inputs": [
        {
          "internalType": "address",
          "name": "_priceFeedAddress",
          "type": "address"
        }
      ],
      "name": "setPriceFeedAddress",
      "outputs": [],
      "payable": false,
      "stateMutability": "nonpayable",
      "type": "function"
    },
    {
      "constant": false,
      "inputs": [],
      "name": "priceFeed_getPrice",
      "outputs": [
        {
          "internalType": "uint256",
          "name": "",
          "type": "uint256"
        }
      ],
      "payable": false,
      "stateMutability": "nonpayable",
      "type": "function"
    },
    {
      "constant": false,
      "inputs": [
        {
          "internalType": "address",
          "name": "_address",
          "type": "address"
        },
        {
          "internalType": "uint256",
          "name": "_price",
          "type": "uint256"
        }
      ],
      "name": "cdpManager_getCurrentICR",
      "outputs": [
        {
          "internalType": "uint256",
          "name": "",
          "type": "uint256"
        }
      ],
      "payable": false,
      "stateMutability": "nonpayable",
      "type": "function"
    },
    {
      "constant": false,
      "inputs": [
        {
          "internalType": "uint256",
          "name": "_CR",
          "type": "uint256"
        },
        {
          "internalType": "uint256",
          "name": "_numTrials",
          "type": "uint256"
        }
      ],
      "name": "cdpManager_getApproxHint",
      "outputs": [
        {
          "internalType": "address",
          "name": "",
          "type": "address"
        }
      ],
      "payable": false,
      "stateMutability": "nonpayable",
      "type": "function"
    },
    {
      "constant": false,
      "inputs": [
        {
          "internalType": "uint256",
          "name": "_ICR",
          "type": "uint256"
        },
        {
          "internalType": "uint256",
          "name": "_price",
          "type": "uint256"
        },
        {
          "internalType": "address",
          "name": "_prevId",
          "type": "address"
        },
        {
          "internalType": "address",
          "name": "_nextId",
          "type": "address"
        }
      ],
      "name": "sortedCDPs_findInsertPosition",
      "outputs": [
        {
          "internalType": "address",
          "name": "",
          "type": "address"
        },
        {
          "internalType": "address",
          "name": "",
          "type": "address"
        }
      ],
      "payable": false,
      "stateMutability": "nonpayable",
      "type": "function"
    },
    {
      "constant": false,
      "inputs": [
        {
          "internalType": "uint256",
          "name": "a",
          "type": "uint256"
        },
        {
          "internalType": "uint256",
          "name": "b",
          "type": "uint256"
        }
      ],
      "name": "getMin",
      "outputs": [
        {
          "internalType": "uint256",
          "name": "",
          "type": "uint256"
        }
      ],
      "payable": false,
      "stateMutability": "nonpayable",
      "type": "function"
    },
    {
      "constant": false,
      "inputs": [
        {
          "internalType": "uint256",
          "name": "x",
          "type": "uint256"
        },
        {
          "internalType": "uint256",
          "name": "y",
          "type": "uint256"
        }
      ],
      "name": "decimath_decMul",
      "outputs": [
        {
          "internalType": "uint256",
          "name": "prod",
          "type": "uint256"
        }
      ],
      "payable": false,
      "stateMutability": "nonpayable",
      "type": "function"
    },
    {
      "constant": false,
      "inputs": [
        {
          "internalType": "uint256",
          "name": "x",
          "type": "uint256"
        },
        {
          "internalType": "uint256",
          "name": "y",
          "type": "uint256"
        }
      ],
      "name": "decimath_decDiv",
      "outputs": [
        {
          "internalType": "uint256",
          "name": "quotient",
          "type": "uint256"
        }
      ],
      "payable": false,
      "stateMutability": "nonpayable",
      "type": "function"
    },
    {
      "constant": false,
      "inputs": [
        {
          "internalType": "uint256",
          "name": "x",
          "type": "uint256"
        },
        {
          "internalType": "uint256",
          "name": "y",
          "type": "uint256"
        }
      ],
      "name": "decimath_div_toDuint",
      "outputs": [
        {
          "internalType": "uint256",
          "name": "quotient",
          "type": "uint256"
        }
      ],
      "payable": false,
      "stateMutability": "nonpayable",
      "type": "function"
    },
    {
      "constant": false,
      "inputs": [
        {
          "internalType": "uint256",
          "name": "x",
          "type": "uint256"
        },
        {
          "internalType": "uint256",
          "name": "y_duint",
          "type": "uint256"
        }
      ],
      "name": "decimath_mul_uintByDuint",
      "outputs": [
        {
          "internalType": "uint256",
          "name": "prod",
          "type": "uint256"
        }
      ],
      "payable": false,
      "stateMutability": "nonpayable",
      "type": "function"
    },
    {
      "constant": false,
      "inputs": [
        {
          "internalType": "int128",
          "name": "x",
          "type": "int128"
        },
        {
          "internalType": "int128",
          "name": "y",
          "type": "int128"
        }
      ],
      "name": "abdkMath_mul",
      "outputs": [
        {
          "internalType": "int128",
          "name": "",
          "type": "int128"
        }
      ],
      "payable": false,
      "stateMutability": "nonpayable",
      "type": "function"
    },
    {
      "constant": false,
      "inputs": [
        {
          "internalType": "int128",
          "name": "x",
          "type": "int128"
        },
        {
          "internalType": "int128",
          "name": "y",
          "type": "int128"
        }
      ],
      "name": "abdkMath_div",
      "outputs": [
        {
          "internalType": "int128",
          "name": "",
          "type": "int128"
        }
      ],
      "payable": false,
      "stateMutability": "nonpayable",
      "type": "function"
    },
    {
      "constant": false,
      "inputs": [
        {
          "internalType": "int128",
          "name": "x",
          "type": "int128"
        },
        {
          "internalType": "uint256",
          "name": "y",
          "type": "uint256"
        }
      ],
      "name": "abdkMath_mulu",
      "outputs": [
        {
          "internalType": "uint256",
          "name": "",
          "type": "uint256"
        }
      ],
      "payable": false,
      "stateMutability": "nonpayable",
      "type": "function"
    },
    {
      "constant": false,
      "inputs": [
        {
          "internalType": "uint256",
          "name": "x",
          "type": "uint256"
        },
        {
          "internalType": "uint256",
          "name": "y",
          "type": "uint256"
        }
      ],
      "name": "abdkMath_divu",
      "outputs": [
        {
          "internalType": "int128",
          "name": "",
          "type": "int128"
        }
      ],
      "payable": false,
      "stateMutability": "nonpayable",
      "type": "function"
    },
    {
      "constant": false,
      "inputs": [
        {
          "internalType": "uint256",
          "name": "x",
          "type": "uint256"
        }
      ],
      "name": "abdkMath_fromUInt",
      "outputs": [
        {
          "internalType": "int128",
          "name": "",
          "type": "int128"
        }
      ],
      "payable": false,
      "stateMutability": "nonpayable",
      "type": "function"
    },
    {
      "constant": false,
      "inputs": [
        {
          "internalType": "int128",
          "name": "x",
          "type": "int128"
        }
      ],
      "name": "abdkMath_toUInt",
      "outputs": [
        {
          "internalType": "int128",
          "name": "",
          "type": "int128"
        }
      ],
      "payable": false,
      "stateMutability": "nonpayable",
      "type": "function"
    },
    {
      "constant": true,
      "inputs": [
        {
          "internalType": "int128",
          "name": "x",
          "type": "int128"
        },
        {
          "internalType": "int128",
          "name": "y",
          "type": "int128"
        }
      ],
      "name": "abdkMath_mul_view",
      "outputs": [
        {
          "internalType": "int128",
          "name": "",
          "type": "int128"
        }
      ],
      "payable": false,
      "stateMutability": "view",
      "type": "function"
    },
    {
      "constant": true,
      "inputs": [
        {
          "internalType": "int128",
          "name": "x",
          "type": "int128"
        },
        {
          "internalType": "int128",
          "name": "y",
          "type": "int128"
        }
      ],
      "name": "abdkMath_div_view",
      "outputs": [
        {
          "internalType": "int128",
          "name": "",
          "type": "int128"
        }
      ],
      "payable": false,
      "stateMutability": "view",
      "type": "function"
    },
    {
      "constant": true,
      "inputs": [
        {
          "internalType": "int128",
          "name": "x",
          "type": "int128"
        },
        {
          "internalType": "uint256",
          "name": "y",
          "type": "uint256"
        }
      ],
      "name": "abdkMath_mulu_view",
      "outputs": [
        {
          "internalType": "uint256",
          "name": "",
          "type": "uint256"
        }
      ],
      "payable": false,
      "stateMutability": "view",
      "type": "function"
    },
    {
      "constant": true,
      "inputs": [
        {
          "internalType": "uint256",
          "name": "x",
          "type": "uint256"
        },
        {
          "internalType": "uint256",
          "name": "y",
          "type": "uint256"
        }
      ],
      "name": "abdkMath_divu_view",
      "outputs": [
        {
          "internalType": "int128",
          "name": "",
          "type": "int128"
        }
      ],
      "payable": false,
      "stateMutability": "view",
      "type": "function"
    },
    {
      "constant": true,
      "inputs": [
        {
          "internalType": "uint256",
          "name": "x",
          "type": "uint256"
        }
      ],
      "name": "abdkMath_fromUInt_view",
      "outputs": [
        {
          "internalType": "int128",
          "name": "",
          "type": "int128"
        }
      ],
      "payable": false,
      "stateMutability": "view",
      "type": "function"
    },
    {
      "constant": true,
      "inputs": [
        {
          "internalType": "int128",
          "name": "x",
          "type": "int128"
        }
      ],
      "name": "abdkMath_toUInt_view",
      "outputs": [
        {
          "internalType": "int128",
          "name": "",
          "type": "int128"
        }
      ],
      "payable": false,
      "stateMutability": "view",
      "type": "function"
    }
  ],
  "bytecode": "0x608060405234801561001057600080fd5b50610f12806100206000396000f3fe608060405234801561001057600080fd5b50600436106101975760003560e01c8063987954ff116100e3578063cb797f491161008c578063f5e673ec11610066578063f5e673ec1461049c578063f75964c3146104c8578063fb78511d146103ad57610197565b8063cb797f4914610453578063e25619591461035d578063ef6151a61461047657610197565b8063ba39dce9116100bd578063ba39dce9146103ad578063c0b26c06146103d0578063cb2b899a146103f357610197565b8063987954ff14610355578063a6cfe1901461035d578063b213001c1461038357610197565b8063434da5561161014557806369662a2b1161011f57806369662a2b146103015780636dffe8051461032b5780638f7ad255146102bb57610197565b8063434da556146102bb57806348c6ae73146102db5780634aa5807f1461025f57610197565b8063241306c611610176578063241306c61461021c5780632d4246b21461025f578063332111231461027c57610197565b8062cf5db41461019c5780630c24ff6c146101c45780630fd95db5146101f9575b600080fd5b6101c2600480360360208110156101b257600080fd5b50356001600160a01b03166104eb565b005b6101e7600480360360408110156101da57600080fd5b5080359060200135610524565b60408051918252519081900360200190f35b6101e76004803603604081101561020f57600080fd5b5080359060200135610539565b6102466004803603604081101561023257600080fd5b508035600f90810b9160200135900b610545565b60408051600f92830b90920b8252519081900360200190f35b6102466004803603602081101561027557600080fd5b5035610551565b61029f6004803603604081101561029257600080fd5b5080359060200135610564565b604080516001600160a01b039092168252519081900360200190f35b610246600480360360208110156102d157600080fd5b5035600f0b610604565b6101c2600480360360208110156102f157600080fd5b50356001600160a01b0316610621565b6102466004803603604081101561031757600080fd5b508035600f90810b9160200135900b61065a565b6102466004803603604081101561034157600080fd5b508035600f90810b9160200135900b61066f565b6101e761067b565b6101e76004803603604081101561037357600080fd5b508035600f0b90602001356106fc565b6102466004803603604081101561039957600080fd5b508035600f90810b9160200135900b610709565b610246600480360360408110156103c357600080fd5b5080359060200135610716565b6101e7600480360360408110156103e657600080fd5b5080359060200135610723565b61042d6004803603608081101561040957600080fd5b508035906020810135906001600160a01b0360408201358116916060013516610730565b604080516001600160a01b03938416815291909216602082015281519081900390910190f35b6101e76004803603604081101561046957600080fd5b50803590602001356107ec565b6101c26004803603602081101561048c57600080fd5b50356001600160a01b03166107f8565b6101e7600480360360408110156104b257600080fd5b506001600160a01b038135169060200135610831565b6101e7600480360360408110156104de57600080fd5b508035906020013561089f565b600580546001600160a01b0390921673ffffffffffffffffffffffffffffffffffffffff19928316811790915560048054909216179055565b600061053083836108ac565b90505b92915050565b600061053083836108ee565b60006105308383610905565b60008061055d8361094e565b9392505050565b60008054604080517fb6659dd6000000000000000000000000000000000000000000000000000000008152600481018690526024810185905290516001600160a01b039092169163b6659dd691604480820192602092909190829003018186803b1580156105d157600080fd5b505afa1580156105e5573d6000803e3d6000fd5b505050506040513d60208110156105fb57600080fd5b50519392505050565b600080610610836109b4565b67ffffffffffffffff169392505050565b600180546001600160a01b0390921673ffffffffffffffffffffffffffffffffffffffff19928316811790915560028054909216179055565b6000806106678484610905565b949350505050565b600061053083836109d0565b6000600460009054906101000a90046001600160a01b03166001600160a01b03166398d5fdca6040518163ffffffff1660e01b815260040160206040518083038186803b1580156106cb57600080fd5b505afa1580156106df573d6000803e3d6000fd5b505050506040513d60208110156106f557600080fd5b5051905090565b6000806106678484610a34565b60008061066784846109d0565b6000806106678484610ab6565b6000806106678484610aff565b600254604080517f36d2368300000000000000000000000000000000000000000000000000000000815260048101879052602481018690526001600160a01b0385811660448301528481166064830152825160009485949216926336d23683926084808301939192829003018186803b1580156107ac57600080fd5b505afa1580156107c0573d6000803e3d6000fd5b505050506040513d60408110156107d657600080fd5b5080516020909101519097909650945050505050565b60006105308383610b24565b600180546001600160a01b0390921673ffffffffffffffffffffffffffffffffffffffff19928316811790915560008054909216179055565b60008054604080517fd293c7100000000000000000000000000000000000000000000000000000000081526001600160a01b038681166004830152602482018690529151919092169163d293c710916044808301926020929190829003018186803b1580156105d157600080fd5b6000806106678484610b56565b6000806108c184670de0b6b3a7640000610b87565b905060006108d0846002610be0565b90506108e56108df8383610c22565b85610be0565b95945050505050565b60008183116108fe575081610533565b5080610533565b6000600f83810b9083900b0260401d6f7fffffffffffffffffffffffffffffff19811280159061094557506f7fffffffffffffffffffffffffffffff8113155b61053057600080fd5b6000677fffffffffffffff8211156109ad576040805162461bcd60e51b815260206004820152600760248201527f746f6f2062696700000000000000000000000000000000000000000000000000604482015290519081900360640190fd5b5060401b90565b60008082600f0b12156109c657600080fd5b50600f0b60401d90565b600081600f0b600014156109e357600080fd5b600082600f0b604085600f0b901b816109f857fe5b0590506f7fffffffffffffffffffffffffffffff19811280159061094557506f7fffffffffffffffffffffffffffffff81131561053057600080fd5b600081610a4357506000610533565b600083600f0b1215610a5457600080fd5b600f83900b6fffffffffffffffffffffffffffffffff8316810260401c90608084901c0277ffffffffffffffffffffffffffffffffffffffffffffffff811115610a9d57600080fd5b60401b8119811115610aae57600080fd5b019392505050565b600081610ac257600080fd5b6000610ace8484610c7c565b90506f7fffffffffffffffffffffffffffffff6fffffffffffffffffffffffffffffffff8216111561053057600080fd5b600080610b0b84610df2565b90506000610b1884610df2565b90506108e582826108ac565b600080610b318484610b87565b9050610667610b48826706f05b59d3b20000610c22565b670de0b6b3a7640000610be0565b600080610b6284610df2565b90506000610b708285610b24565b90506000610b7d82610e06565b9695505050505050565b600082610b9657506000610533565b82820282848281610ba357fe5b04146105305760405162461bcd60e51b8152600401808060200182810382526021815260200180610ebd6021913960400191505060405180910390fd5b600061053083836040518060400160405280601a81526020017f536166654d6174683a206469766973696f6e206279207a65726f000000000000815250610e1a565b600082820183811015610530576040805162461bcd60e51b815260206004820152601b60248201527f536166654d6174683a206164646974696f6e206f766572666c6f770000000000604482015290519081900360640190fd5b600081610c8857600080fd5b600077ffffffffffffffffffffffffffffffffffffffffffffffff8411610cbe5782604085901b81610cb657fe5b049050610dd5565b60c084811c6401000000008110610cd7576020918201911c5b620100008110610ce9576010918201911c5b6101008110610cfa576008918201911c5b60108110610d0a576004918201911c5b60048110610d1a576002918201911c5b60028110610d29576001820191505b60bf820360018603901c6001018260ff0387901b81610d4457fe5b0492506fffffffffffffffffffffffffffffffff831115610d6457600080fd5b608085901c83026fffffffffffffffffffffffffffffffff8616840260c088901c604089901b82811015610d99576001820391505b608084901b92900382811015610db0576001820391505b829003608084901c8214610dc057fe5b888181610dc957fe5b04870196505050505050505b6fffffffffffffffffffffffffffffffff81111561053057600080fd5b600061053382670de0b6b3a7640000610b87565b600061053382670de0b6b3a7640000610be0565b60008183610ea65760405162461bcd60e51b81526004018080602001828103825283818151815260200191508051906020019080838360005b83811015610e6b578181015183820152602001610e53565b50505050905090810190601f168015610e985780820380516001836020036101000a031916815260200191505b509250505060405180910390fd5b506000838581610eb257fe5b049594505050505056fe536166654d6174683a206d756c7469706c69636174696f6e206f766572666c6f77a265627a7a72315820c70f60c183f01fc5c085e21d1a005b3164e4f57398bb376a4498c3e2c56d652c64736f6c634300050b0032",
  "source": "pragma solidity ^0.5.11;\r\n\r\nimport './Interfaces/ICDPManager.sol';\r\nimport './Interfaces/ISortedCDPs.sol';\r\nimport './Interfaces/IPriceFeed.sol';\r\nimport '@nomiclabs/buidler/console.sol';\r\nimport './DeciMath.sol';\r\nimport './ABDKMath64x64.sol';\r\n\r\n// Proxy contract - used for calculating gas of read-only functions in gas calculation scripts.  Not part of the application.\r\ncontract FunctionCaller {\r\n\r\n    ICDPManager cdpManager;\r\n    address cdpManagerAddress;\r\n\r\n    ISortedCDPs sortedCDPs;\r\n    address sortedCDPsAddress;\r\n\r\n    IPriceFeed priceFeed;\r\n    address priceFeedAddress;\r\n\r\n    // --- Dependency setters ---\r\n\r\n    function setCDPManagerAddress(address _cdpManagerAddress) public {\r\n        cdpManagerAddress = _cdpManagerAddress;\r\n        cdpManager = ICDPManager(_cdpManagerAddress);\r\n    }\r\n    \r\n    function setSortedCDPsAddress(address _sortedCDPsAddress) public {\r\n        cdpManagerAddress = _sortedCDPsAddress;\r\n        sortedCDPs = ISortedCDPs(_sortedCDPsAddress);\r\n    }\r\n\r\n     function setPriceFeedAddress(address _priceFeedAddress) public {\r\n        priceFeedAddress = _priceFeedAddress;\r\n        priceFeed = IPriceFeed(_priceFeedAddress);\r\n    }\r\n\r\n    // --- PriceFeed functions ---\r\n\r\n     function priceFeed_getPrice() public returns(uint) {\r\n        return priceFeed.getPrice();\r\n    }\r\n\r\n    // --- CDPManager functions ---\r\n    function cdpManager_getCurrentICR (address _address, uint _price) public returns(uint) {\r\n        return cdpManager.getCurrentICR(_address, _price);  \r\n    }\r\n\r\n    function cdpManager_getApproxHint (uint _CR, uint _numTrials) public returns(address) {\r\n        return cdpManager.getApproxHint(_CR, _numTrials);\r\n    }\r\n\r\n    // --- SortedCDPs functions ---\r\n\r\n    function sortedCDPs_findInsertPosition(uint _ICR, uint _price, address _prevId, address _nextId) public returns(address, address) {\r\n        return sortedCDPs.findInsertPosition(_ICR, _price, _prevId, _nextId);\r\n    }\r\n\r\n    // --- DeciMath public functions ---\r\n\r\n    // function decimath_accurateMulDiv(uint x, uint y, uint z) public returns(uint fraction) {\r\n    //     return DeciMath.accurateMulDiv(x ,y, z);\r\n    // }\r\n\r\n    function getMin(uint a, uint b) public returns(uint) {\r\n        return DeciMath.getMin(a, b);\r\n    }\r\n\r\n    function decimath_decMul(uint x, uint y) public returns (uint prod) {\r\n        return DeciMath.decMul(x, y);\r\n    }\r\n   \r\n    function decimath_decDiv(uint x, uint y) public returns (uint quotient) {\r\n        return DeciMath.decDiv(x, y);\r\n    }\r\n\r\n    function decimath_div_toDuint(uint x, uint y) public returns (uint quotient) {\r\n        // console.log(\"0. gas left: %s\", gasleft());\r\n        uint quotient = DeciMath.div_toDuint(x, y); // 1097 gas\r\n        // console.log(\"1. gas left: %s\", gasleft());\r\n        return quotient;\r\n    }\r\n\r\n    function decimath_mul_uintByDuint( uint x, uint y_duint)public returns (uint prod) {\r\n        //  console.log(\"0. gas left: %s\", gasleft());\r\n        uint z = DeciMath.mul_uintByDuint(x, y_duint);  // 967 gas\r\n        //  console.log(\"1. gas left: %s\", gasleft());\r\n        return z;\r\n    }\r\n\r\n    // --- ABDK Math Functions ---\r\n\r\n    // mul\r\n    function abdkMath_mul(int128 x, int128 y) public returns(int128) {\r\n        // console.log(\"00. gas left: %s\", gasleft());\r\n        int128 z =  ABDKMath64x64.mul(x,y); // 147 gas\r\n        // console.log(\"01. gas left: %s\", gasleft());\r\n        return z;\r\n    }\r\n    // div\r\n    function abdkMath_div(int128 x, int128 y) public returns(int128) {\r\n        // console.log(\"00. gas left: %s\", gasleft());\r\n        int128 z = ABDKMath64x64.div(x,y); // 202 gas\r\n        // console.log(\"01. gas left: %s\", gasleft());\r\n        return z;\r\n    }\r\n\r\n    // mul dec by uint --> uint\r\n    function abdkMath_mulu(int128 x, uint256 y) public returns(uint256) {\r\n        // console.log(\"00. gas left: %s\", gasleft());\r\n        uint z = ABDKMath64x64.mulu(x,y);  // 243 gas\r\n        // console.log(\"01. gas left: %s\", gasleft());\r\n        return z;\r\n    }\r\n    \r\n    // div uint by uint --> dec\r\n    function abdkMath_divu(uint256 x, uint256 y) public returns(int128) {\r\n        // console.log(\"0. gas left: %s\", gasleft());\r\n        int128 z = ABDKMath64x64.divu(x,y);  // 303 gas\r\n        // console.log(\"1. gas left: %s\", gasleft());\r\n        return z;\r\n    }\r\n\r\n     function abdkMath_fromUInt(uint256 x) public returns(int128) {\r\n        // console.log(\"00. gas left: %s\", gasleft());\r\n        int128 z = ABDKMath64x64.fromUInt(x);  // 93 gas\r\n        // console.log(\"01. gas left: %s\", gasleft());\r\n        return z;    \r\n    }\r\n\r\n     function abdkMath_toUInt(int128 x) public returns(int128) {\r\n        // console.log(\"00. gas left: %s\", gasleft());\r\n        uint64 z = ABDKMath64x64.toUInt(x);  // 82 gas\r\n        // console.log(\"01. gas left: %s\", gasleft());\r\n        return z;\r\n    }\r\n\r\n  // --- 'View' ABDKMath functions - return the computed result --- \r\n\r\n      // mul 64.64dec by 64.64dec\r\n    function abdkMath_mul_view(int128 x, int128 y) public view returns(int128) {\r\n        return ABDKMath64x64.mul(x,y);\r\n    }\r\n    // div 64.64dec by 64.64dec\r\n    function abdkMath_div_view(int128 x, int128 y) public view returns(int128) {\r\n        return ABDKMath64x64.div(x,y);\r\n    }\r\n\r\n    // mul 64.64dec by uint --> uint, rounded down\r\n    function abdkMath_mulu_view(int128 x, uint256 y) public view returns(uint256) {\r\n        uint z = ABDKMath64x64.mulu(x,y);  // 243 gas\r\n        return z;\r\n    }\r\n    \r\n    // div uint by uint --> 64.64dec\r\n    function abdkMath_divu_view(uint256 x, uint256 y) public view returns(int128) {\r\n        int128 z = ABDKMath64x64.divu(x,y);  // 303 gas\r\n        return z;\r\n    }\r\n\r\n     // convert uint -> 64.64dec\r\n     function abdkMath_fromUInt_view(uint256 x) public view returns(int128) {\r\n        int128 z = ABDKMath64x64.fromUInt(x);  // 93 gas\r\n        return z;\r\n    }\r\n\r\n    function abdkMath_toUInt_view(int128 x) public view returns(int128) {\r\n        uint64 z = ABDKMath64x64.toUInt(x);  \r\n        return z;\r\n    }\r\n\r\n}\r\n\r\n",
  "sourcePath": "c:/Users/Rick/Desktop/Cleverage/packages/contracts/contracts/FunctionCaller.sol",
  "compiler": {
    "name": "solc",
    "version": "0.5.11+commit.c082d0b4.Emscripten.clang"
  },
  "schemaVersion": "3.0.20",
  "updatedAt": "2020-04-26T18:49:44.717Z",
  "devdoc": {
    "methods": {}
  },
  "userdoc": {
    "methods": {}
  }
}