{
  "contractName": "FunctionCaller",
  "abi": [
    {
      "constant": false,
      "inputs": [
        {
          "internalType": "address",
          "name": "_cdpManagerAddress",
          "type": "address"
        }
      ],
      "name": "setCDPManagerAddress",
      "outputs": [],
      "payable": false,
      "stateMutability": "nonpayable",
      "type": "function"
    },
    {
      "constant": false,
      "inputs": [
        {
          "internalType": "address",
          "name": "_sortedCDPsAddress",
          "type": "address"
        }
      ],
      "name": "setSortedCDPsAddress",
      "outputs": [],
      "payable": false,
      "stateMutability": "nonpayable",
      "type": "function"
    },
    {
      "constant": false,
      "inputs": [
        {
          "internalType": "address",
          "name": "_priceFeedAddress",
          "type": "address"
        }
      ],
      "name": "setPriceFeedAddress",
      "outputs": [],
      "payable": false,
      "stateMutability": "nonpayable",
      "type": "function"
    },
    {
      "constant": false,
      "inputs": [],
      "name": "priceFeed_getPrice",
      "outputs": [
        {
          "internalType": "uint256",
          "name": "",
          "type": "uint256"
        }
      ],
      "payable": false,
      "stateMutability": "nonpayable",
      "type": "function"
    },
    {
      "constant": false,
      "inputs": [
        {
          "internalType": "address",
          "name": "_address",
          "type": "address"
        },
        {
          "internalType": "uint256",
          "name": "_price",
          "type": "uint256"
        }
      ],
      "name": "cdpManager_getCurrentICR",
      "outputs": [
        {
          "internalType": "uint256",
          "name": "",
          "type": "uint256"
        }
      ],
      "payable": false,
      "stateMutability": "nonpayable",
      "type": "function"
    },
    {
      "constant": false,
      "inputs": [
        {
          "internalType": "uint256",
          "name": "_CR",
          "type": "uint256"
        },
        {
          "internalType": "uint256",
          "name": "_numTrials",
          "type": "uint256"
        }
      ],
      "name": "cdpManager_getApproxHint",
      "outputs": [
        {
          "internalType": "address",
          "name": "",
          "type": "address"
        }
      ],
      "payable": false,
      "stateMutability": "nonpayable",
      "type": "function"
    },
    {
      "constant": false,
      "inputs": [
        {
          "internalType": "uint256",
          "name": "_ICR",
          "type": "uint256"
        },
        {
          "internalType": "uint256",
          "name": "_price",
          "type": "uint256"
        },
        {
          "internalType": "address",
          "name": "_prevId",
          "type": "address"
        },
        {
          "internalType": "address",
          "name": "_nextId",
          "type": "address"
        }
      ],
      "name": "sortedCDPs_findInsertPosition",
      "outputs": [
        {
          "internalType": "address",
          "name": "",
          "type": "address"
        },
        {
          "internalType": "address",
          "name": "",
          "type": "address"
        }
      ],
      "payable": false,
      "stateMutability": "nonpayable",
      "type": "function"
    },
    {
      "constant": true,
      "inputs": [
        {
          "internalType": "uint256",
          "name": "a",
          "type": "uint256"
        },
        {
          "internalType": "uint256",
          "name": "b",
          "type": "uint256"
        }
      ],
      "name": "getMin",
      "outputs": [
        {
          "internalType": "uint256",
          "name": "",
          "type": "uint256"
        }
      ],
      "payable": false,
      "stateMutability": "view",
      "type": "function"
    },
    {
      "constant": false,
      "inputs": [
        {
          "internalType": "uint256",
          "name": "x",
          "type": "uint256"
        },
        {
          "internalType": "uint256",
          "name": "y",
          "type": "uint256"
        }
      ],
      "name": "decimath_decMul",
      "outputs": [
        {
          "internalType": "uint256",
          "name": "prod",
          "type": "uint256"
        }
      ],
      "payable": false,
      "stateMutability": "nonpayable",
      "type": "function"
    },
    {
      "constant": false,
      "inputs": [
        {
          "internalType": "uint256",
          "name": "x",
          "type": "uint256"
        },
        {
          "internalType": "uint256",
          "name": "y",
          "type": "uint256"
        }
      ],
      "name": "decimath_decDiv",
      "outputs": [
        {
          "internalType": "uint256",
          "name": "quotient",
          "type": "uint256"
        }
      ],
      "payable": false,
      "stateMutability": "nonpayable",
      "type": "function"
    },
    {
      "constant": false,
      "inputs": [
        {
          "internalType": "uint256",
          "name": "x",
          "type": "uint256"
        },
        {
          "internalType": "uint256",
          "name": "y",
          "type": "uint256"
        }
      ],
      "name": "decimath_div_toDuint",
      "outputs": [
        {
          "internalType": "uint256",
          "name": "quotient",
          "type": "uint256"
        }
      ],
      "payable": false,
      "stateMutability": "nonpayable",
      "type": "function"
    },
    {
      "constant": false,
      "inputs": [
        {
          "internalType": "uint256",
          "name": "x",
          "type": "uint256"
        },
        {
          "internalType": "uint256",
          "name": "y_duint",
          "type": "uint256"
        }
      ],
      "name": "decimath_mul_uintByDuint",
      "outputs": [
        {
          "internalType": "uint256",
          "name": "prod",
          "type": "uint256"
        }
      ],
      "payable": false,
      "stateMutability": "nonpayable",
      "type": "function"
    },
    {
      "constant": false,
      "inputs": [
        {
          "internalType": "uint256",
          "name": "n",
          "type": "uint256"
        }
      ],
      "name": "repeatedlySetVal",
      "outputs": [
        {
          "internalType": "uint256",
          "name": "",
          "type": "uint256"
        },
        {
          "internalType": "uint256",
          "name": "",
          "type": "uint256"
        }
      ],
      "payable": false,
      "stateMutability": "nonpayable",
      "type": "function"
    },
    {
      "constant": false,
      "inputs": [
        {
          "internalType": "uint256",
          "name": "n",
          "type": "uint256"
        }
      ],
      "name": "repeatedlySetValThenClearIt",
      "outputs": [
        {
          "internalType": "uint256",
          "name": "",
          "type": "uint256"
        },
        {
          "internalType": "uint256",
          "name": "",
          "type": "uint256"
        }
      ],
      "payable": false,
      "stateMutability": "nonpayable",
      "type": "function"
    },
    {
      "constant": false,
      "inputs": [],
      "name": "callInternalStorageCheck",
      "outputs": [
        {
          "internalType": "bool",
          "name": "",
          "type": "bool"
        }
      ],
      "payable": false,
      "stateMutability": "nonpayable",
      "type": "function"
    },
    {
      "constant": false,
      "inputs": [],
      "name": "rawStorageCheck",
      "outputs": [
        {
          "internalType": "bool",
          "name": "",
          "type": "bool"
        }
      ],
      "payable": false,
      "stateMutability": "nonpayable",
      "type": "function"
    }
  ],
  "bytecode": "0x6080604052600160005534801561001557600080fd5b50610a34806100256000396000f3fe608060405234801561001057600080fd5b50600436106100ff5760003560e01c8063cb2b899a11610097578063e3e576a511610066578063e3e576a5146102f1578063ef6151a61461030e578063f5e673ec14610334578063f75964c314610360576100ff565b8063cb2b899a14610230578063cb797f4914610290578063d142d12e146102b3578063d1a5803d146102bb576100ff565b806333211123116100d357806333211123146101a057806348c6ae73146101df578063987954ff14610205578063c0b26c061461020d576100ff565b8062cf5db4146101045780630c24ff6c1461012c5780630fd95db51461016157806332a0a3fe14610184575b600080fd5b61012a6004803603602081101561011a57600080fd5b50356001600160a01b0316610383565b005b61014f6004803603604081101561014257600080fd5b50803590602001356103bc565b60408051918252519081900360200190f35b61014f6004803603604081101561017757600080fd5b50803590602001356103d1565b61018c6103dd565b604080519115158252519081900360200190f35b6101c3600480360360408110156101b657600080fd5b50803590602001356103e6565b604080516001600160a01b039092168252519081900360200190f35b61012a600480360360208110156101f557600080fd5b50356001600160a01b0316610485565b61014f6104be565b61014f6004803603604081101561022357600080fd5b508035906020013561054d565b61026a6004803603608081101561024657600080fd5b508035906020810135906001600160a01b0360408201358116916060013516610562565b604080516001600160a01b03938416815291909216602082015281519081900390910190f35b61014f600480360360408110156102a657600080fd5b508035906020013561061e565b61018c61062a565b6102d8600480360360208110156102d157600080fd5b5035610639565b6040805192835260208301919091528051918290030190f35b6102d86004803603602081101561030757600080fd5b5035610663565b61012a6004803603602081101561032457600080fd5b50356001600160a01b0316610687565b61014f6004803603604081101561034a57600080fd5b506001600160a01b0381351690602001356106c0565b61014f6004803603604081101561037657600080fd5b5080359060200135610731565b600680546001600160a01b0390921673ffffffffffffffffffffffffffffffffffffffff19928316811790915560058054909216179055565b60006103c8838361073e565b90505b92915050565b60006103c88383610780565b600054602a1490565b600154604080517fb6659dd6000000000000000000000000000000000000000000000000000000008152600481018590526024810184905290516000926001600160a01b03169163b6659dd6916044808301926020929190829003018186803b15801561045257600080fd5b505afa158015610466573d6000803e3d6000fd5b505050506040513d602081101561047c57600080fd5b50519392505050565b600280546001600160a01b0390921673ffffffffffffffffffffffffffffffffffffffff19928316811790915560038054909216179055565b600554604080517f98d5fdca00000000000000000000000000000000000000000000000000000000815290516000926001600160a01b0316916398d5fdca916004808301926020929190829003018186803b15801561051c57600080fd5b505afa158015610530573d6000803e3d6000fd5b505050506040513d602081101561054657600080fd5b5051905090565b60008061055a8484610797565b949350505050565b600354604080517f36d2368300000000000000000000000000000000000000000000000000000000815260048101879052602481018690526001600160a01b0385811660448301528481166064830152825160009485949216926336d23683926084808301939192829003018186803b1580156105de57600080fd5b505afa1580156105f2573d6000803e3d6000fd5b505050506040513d604081101561060857600080fd5b5080516020909101519097909650945050505050565b60006103c883836107bc565b60006106346103dd565b905090565b60008060025b8360020181101561065757600081905560010161063f565b50600080559092909150565b60008060025b83600201811015610681576000819055600101610669565b50915091565b600280546001600160a01b0390921673ffffffffffffffffffffffffffffffffffffffff19928316811790915560018054909216179055565b600154604080517fd293c7100000000000000000000000000000000000000000000000000000000081526001600160a01b038581166004830152602482018590529151600093929092169163d293c71091604480820192602092909190829003018186803b15801561045257600080fd5b60008061055a84846107ee565b60008061075384670de0b6b3a764000061081f565b90506000610762846002610878565b905061077761077183836108ba565b85610878565b95945050505050565b60008183116107905750816103cb565b50806103cb565b6000806107a384610914565b905060006107b084610914565b9050610777828261073e565b6000806107c9848461081f565b905061055a6107e0826706f05b59d3b200006108ba565b670de0b6b3a7640000610878565b6000806107fa84610914565b9050600061080882856107bc565b9050600061081582610928565b9695505050505050565b60008261082e575060006103cb565b8282028284828161083b57fe5b04146103c85760405162461bcd60e51b81526004018080602001828103825260218152602001806109df6021913960400191505060405180910390fd5b60006103c883836040518060400160405280601a81526020017f536166654d6174683a206469766973696f6e206279207a65726f00000000000081525061093c565b6000828201838110156103c8576040805162461bcd60e51b815260206004820152601b60248201527f536166654d6174683a206164646974696f6e206f766572666c6f770000000000604482015290519081900360640190fd5b60006103cb82670de0b6b3a764000061081f565b60006103cb82670de0b6b3a7640000610878565b600081836109c85760405162461bcd60e51b81526004018080602001828103825283818151815260200191508051906020019080838360005b8381101561098d578181015183820152602001610975565b50505050905090810190601f1680156109ba5780820380516001836020036101000a031916815260200191505b509250505060405180910390fd5b5060008385816109d457fe5b049594505050505056fe536166654d6174683a206d756c7469706c69636174696f6e206f766572666c6f77a265627a7a723158208f0d99a0180631ea2bdc7079ca95b499fbf7081b48cd69e98d4a6686d155f11364736f6c63430005100032",
  "source": "pragma solidity ^0.5.16;\r\n\r\nimport './Interfaces/ICDPManager.sol';\r\nimport './Interfaces/ISortedCDPs.sol';\r\nimport './Interfaces/IPriceFeed.sol';\r\n// import '@nomiclabs/buidler/console.sol';\r\nimport './DeciMath.sol';\r\n\r\n// Proxy contract - used for calculating gas of read-only functions in gas calculation scripts.  Not part of the application.\r\ncontract FunctionCaller {\r\n\r\n    uint number = 1;\r\n\r\n    ICDPManager cdpManager;\r\n    address cdpManagerAddress;\r\n\r\n    ISortedCDPs sortedCDPs;\r\n    address sortedCDPsAddress;\r\n\r\n    IPriceFeed priceFeed;\r\n    address priceFeedAddress;\r\n\r\n    // --- Dependency setters ---\r\n\r\n    function setCDPManagerAddress(address _cdpManagerAddress) public {\r\n        cdpManagerAddress = _cdpManagerAddress;\r\n        cdpManager = ICDPManager(_cdpManagerAddress);\r\n    }\r\n    \r\n    function setSortedCDPsAddress(address _sortedCDPsAddress) public {\r\n        cdpManagerAddress = _sortedCDPsAddress;\r\n        sortedCDPs = ISortedCDPs(_sortedCDPsAddress);\r\n    }\r\n\r\n     function setPriceFeedAddress(address _priceFeedAddress) public {\r\n        priceFeedAddress = _priceFeedAddress;\r\n        priceFeed = IPriceFeed(_priceFeedAddress);\r\n    }\r\n\r\n    // --- PriceFeed functions ---\r\n\r\n     function priceFeed_getPrice() public returns(uint) {\r\n        return priceFeed.getPrice();\r\n    }\r\n\r\n    // --- CDPManager functions ---\r\n    function cdpManager_getCurrentICR (address _address, uint _price) public returns(uint) {\r\n        return cdpManager.getCurrentICR(_address, _price);  \r\n    }\r\n\r\n    function cdpManager_getApproxHint (uint _CR, uint _numTrials) public returns(address) {\r\n        return cdpManager.getApproxHint(_CR, _numTrials);\r\n    }\r\n\r\n    // --- SortedCDPs functions ---\r\n\r\n    function sortedCDPs_findInsertPosition(uint _ICR, uint _price, address _prevId, address _nextId) public returns(address, address) {\r\n        return sortedCDPs.findInsertPosition(_ICR, _price, _prevId, _nextId);\r\n    }\r\n\r\n    // --- DeciMath public functions ---\r\n\r\n    // function decimath_accurateMulDiv(uint x, uint y, uint z) public returns(uint fraction) {\r\n    //     return DeciMath.accurateMulDiv(x ,y, z);\r\n    // }\r\n\r\n    function getMin(uint a, uint b) public view returns(uint) {\r\n        return DeciMath.getMin(a, b);\r\n    }\r\n\r\n    function decimath_decMul(uint x, uint y) public returns (uint prod) {\r\n        return DeciMath.decMul(x, y);\r\n    }\r\n   \r\n    function decimath_decDiv(uint x, uint y) public returns (uint quotient) {\r\n        return DeciMath.decDiv(x, y);\r\n    }\r\n\r\n    function decimath_div_toDuint(uint x, uint y) public returns (uint quotient) {\r\n        // console.log(\"0. gas left: %s\", gasleft());\r\n        uint quotient = DeciMath.div_toDuint(x, y); // 1097 gas\r\n        // console.log(\"1. gas left: %s\", gasleft());\r\n        return quotient;\r\n    }\r\n\r\n    function decimath_mul_uintByDuint( uint x, uint y_duint)public returns (uint prod) {\r\n        //  console.log(\"0. gas left: %s\", gasleft());\r\n        uint z = DeciMath.mul_uintByDuint(x, y_duint);  // 967 gas\r\n        //  console.log(\"1. gas left: %s\", gasleft());\r\n        return z;\r\n    }\r\n    \r\n    //  ---- Funcs for checking write-to-storage costs ---\r\n\r\n    function repeatedlySetVal (uint n) public returns (uint, uint) {\r\n        for (uint i = 2; i < n + 2; i ++) {\r\n            number = i;\r\n        }\r\n    }\r\n    \r\n    function repeatedlySetValThenClearIt (uint n) public returns (uint, uint) {\r\n        for (uint i = 2; i < n + 2; i ++) {\r\n            number = i;\r\n        }\r\n        number = 0;\r\n    }\r\n\r\n   // --- gas costs: Internal vs raw code ---\r\n\r\n   function internalStorageCheck () internal returns (bool) {\r\n       return (number == 42);\r\n   }\r\n\r\n   // Calls internal \r\n   function callInternalStorageCheck () public returns (bool) {\r\n       return internalStorageCheck();\r\n   }\r\n\r\n    // Raw code\r\n   function rawStorageCheck () public returns (bool) {\r\n       return number == 42;\r\n   }\r\n\r\n}\r\n\r\n",
  "sourcePath": "/home/training/contracts/FunctionCaller.sol",
  "compiler": {
    "name": "solc",
    "version": "0.5.16+commit.9c3226ce.Emscripten.clang"
  },
  "schemaVersion": "3.1.0",
  "updatedAt": "2020-06-03T00:09:10.228Z",
  "devdoc": {
    "methods": {}
  },
  "userdoc": {
    "methods": {}
  }
}