{
  "contractName": "MultiCDPGetter",
  "abi": [
    {
      "inputs": [
        {
          "internalType": "contract CDPManager",
          "name": "_cdpManager",
          "type": "address"
        },
        {
          "internalType": "contract ISortedCDPs",
          "name": "_sortedCDPs",
          "type": "address"
        }
      ],
      "payable": false,
      "stateMutability": "nonpayable",
      "type": "constructor"
    },
    {
      "constant": true,
      "inputs": [
        {
          "internalType": "int256",
          "name": "_startIdx",
          "type": "int256"
        },
        {
          "internalType": "uint256",
          "name": "_count",
          "type": "uint256"
        }
      ],
      "name": "getMultipleSortedCDPs",
      "outputs": [
        {
          "components": [
            {
              "internalType": "address",
              "name": "owner",
              "type": "address"
            },
            {
              "internalType": "uint256",
              "name": "debt",
              "type": "uint256"
            },
            {
              "internalType": "uint256",
              "name": "coll",
              "type": "uint256"
            },
            {
              "internalType": "uint256",
              "name": "stake",
              "type": "uint256"
            },
            {
              "internalType": "uint256",
              "name": "snapshotETH",
              "type": "uint256"
            },
            {
              "internalType": "uint256",
              "name": "snapshotCLVDebt",
              "type": "uint256"
            }
          ],
          "internalType": "struct MultiCDPGetter.CombinedCDPData[]",
          "name": "_cdps",
          "type": "tuple[]"
        }
      ],
      "payable": false,
      "stateMutability": "view",
      "type": "function"
    }
  ],
  "bytecode": "0x608060405234801561001057600080fd5b50604051610d12380380610d1283398101604081905261002f91610071565b600080546001600160a01b039384166001600160a01b031991821617909155600180549290931691161790556100e4565b805161006b816100cd565b92915050565b6000806040838503121561008457600080fd5b60006100908585610060565b92505060206100a185828601610060565b9150509250929050565b600061006b826100c1565b600061006b826100ab565b6001600160a01b031690565b6100d6816100b6565b81146100e157600080fd5b50565b610c1f806100f36000396000f3fe608060405234801561001057600080fd5b506004361061002b5760003560e01c8063496b78d114610030575b600080fd5b61004361003e366004610964565b610059565b6040516100509190610b6a565b60405180910390f35b6060600080600085126100715750839050600161007f565b846001016000039150600090505b600154604080517fde8fa43100000000000000000000000000000000000000000000000000000000815290516000926001600160a01b03169163de8fa431916004808301926020929190829003018186803b1580156100dd57600080fd5b505afa1580156100f1573d6000803e3d6000fd5b505050506040513d601f19601f82011682018060405250610115919081019061099e565b905080831061015757604080516000808252602082019092529061014f565b61013c6108cd565b8152602001906001900390816101345790505b50935061018c565b82810380861115610166578095505b821561017d576101768487610195565b945061018a565b6101878487610535565b94505b505b50505092915050565b60606000600160009054906101000a90046001600160a01b03166001600160a01b0316631e2231436040518163ffffffff1660e01b815260040160206040518083038186803b1580156101e757600080fd5b505afa1580156101fb573d6000803e3d6000fd5b505050506040513d601f19601f8201168201806040525061021f919081019061093e565b905060005b848110156102b65760015460405163765e015960e01b81526001600160a01b039091169063765e01599061025c908590600401610b5c565b60206040518083038186803b15801561027457600080fd5b505afa158015610288573d6000803e3d6000fd5b505050506040513d601f19601f820116820180604052506102ac919081019061093e565b9150600101610224565b50826040519080825280602002602001820160405280156102f157816020015b6102de6108cd565b8152602001906001900390816102d65790505b50915060005b8381101561052d578183828151811061030c57fe5b60209081029190910101516001600160a01b0391821690526000546040516327d49f3360e11b8152911690634fa93e669061034b908590600401610b5c565b60a06040518083038186803b15801561036357600080fd5b505afa158015610377573d6000803e3d6000fd5b505050506040513d601f19601f8201168201806040525061039b91908101906109ec565b9050508584815181106103aa57fe5b60200260200101516020018685815181106103c157fe5b60200260200101516040018786815181106103d857fe5b60209081029190910101516060019290925291905252600054604051630b39e3cd60e11b81526001600160a01b0390911690631673c79a9061041e908590600401610b5c565b604080518083038186803b15801561043557600080fd5b505afa158015610449573d6000803e3d6000fd5b505050506040513d601f19601f8201168201806040525061046d91908101906109bc565b84838151811061047957fe5b602002602001015160800185848151811061049057fe5b602090810291909101015160a001919091525260015460405163765e015960e01b81526001600160a01b039091169063765e0159906104d3908590600401610b5c565b60206040518083038186803b1580156104eb57600080fd5b505afa1580156104ff573d6000803e3d6000fd5b505050506040513d601f19601f82011682018060405250610523919081019061093e565b91506001016102f7565b505092915050565b60606000600160009054906101000a90046001600160a01b03166001600160a01b0316634d6228316040518163ffffffff1660e01b815260040160206040518083038186803b15801561058757600080fd5b505afa15801561059b573d6000803e3d6000fd5b505050506040513d601f19601f820116820180604052506105bf919081019061093e565b905060005b8481101561065657600154604051632dc9c0eb60e21b81526001600160a01b039091169063b72703ac906105fc908590600401610b5c565b60206040518083038186803b15801561061457600080fd5b505afa158015610628573d6000803e3d6000fd5b505050506040513d601f19601f8201168201806040525061064c919081019061093e565b91506001016105c4565b508260405190808252806020026020018201604052801561069157816020015b61067e6108cd565b8152602001906001900390816106765790505b50915060005b8381101561052d57818382815181106106ac57fe5b60209081029190910101516001600160a01b0391821690526000546040516327d49f3360e11b8152911690634fa93e66906106eb908590600401610b5c565b60a06040518083038186803b15801561070357600080fd5b505afa158015610717573d6000803e3d6000fd5b505050506040513d601f19601f8201168201806040525061073b91908101906109ec565b90505085848151811061074a57fe5b602002602001015160200186858151811061076157fe5b602002602001015160400187868151811061077857fe5b60209081029190910101516060019290925291905252600054604051630b39e3cd60e11b81526001600160a01b0390911690631673c79a906107be908590600401610b5c565b604080518083038186803b1580156107d557600080fd5b505afa1580156107e9573d6000803e3d6000fd5b505050506040513d601f19601f8201168201806040525061080d91908101906109bc565b84838151811061081957fe5b602002602001015160800185848151811061083057fe5b602090810291909101015160a0019190915252600154604051632dc9c0eb60e21b81526001600160a01b039091169063b72703ac90610873908590600401610b5c565b60206040518083038186803b15801561088b57600080fd5b505afa15801561089f573d6000803e3d6000fd5b505050506040513d601f19601f820116820180604052506108c3919081019061093e565b9150600101610697565b6040518060c0016040528060006001600160a01b0316815260200160008152602001600081526020016000815260200160008152602001600081525090565b805161091781610baf565b92915050565b805161091781610bc6565b803561091781610bd3565b805161091781610bd3565b60006020828403121561095057600080fd5b600061095c848461090c565b949350505050565b6000806040838503121561097757600080fd5b60006109838585610928565b925050602061099485828601610928565b9150509250929050565b6000602082840312156109b057600080fd5b600061095c8484610933565b600080604083850312156109cf57600080fd5b60006109db8585610933565b925050602061099485828601610933565b600080600080600060a08688031215610a0457600080fd5b6000610a108888610933565b9550506020610a2188828901610933565b9450506040610a3288828901610933565b9350506060610a438882890161091d565b9250506080610a5488828901610933565b9150509295509295909350565b6000610a6d8383610add565b505060c00190565b610a7e81610b95565b82525050565b6000610a8f82610b88565b610a998185610b8c565b9350610aa483610b82565b8060005b83811015610ad2578151610abc8882610a61565b9750610ac783610b82565b925050600101610aa8565b509495945050505050565b805160c0830190610aee8482610a75565b506020820151610b016020850182610b53565b506040820151610b146040850182610b53565b506060820151610b276060850182610b53565b506080820151610b3a6080850182610b53565b5060a0820151610b4d60a0850182610b53565b50505050565b610a7e81610ba0565b602081016109178284610a75565b60208082528101610b7b8184610a84565b9392505050565b60200190565b5190565b90815260200190565b600061091782610ba3565b90565b6001600160a01b031690565b610bb881610b95565b8114610bc357600080fd5b50565b60038110610bc357600080fd5b610bb881610ba056fea365627a7a723158205c1b949f7081b2693b810f4e1658ba13de885806bad912a0db953ba489ff5d746c6578706572696d656e74616cf564736f6c63430005100040",
  "source": "pragma solidity ^0.5.16;\r\npragma experimental ABIEncoderV2;\r\n\r\nimport \"./CDPManager.sol\";\r\nimport \"./SortedCDPs.sol\";\r\n\r\ncontract MultiCDPGetter {\r\n    struct CombinedCDPData {\r\n        address owner;\r\n\r\n        uint debt;\r\n        uint coll;\r\n        uint stake;\r\n\r\n        uint snapshotETH;\r\n        uint snapshotCLVDebt;\r\n    }\r\n\r\n    CDPManager cdpManager; // XXX CDPs missing from ICDPManager?\r\n    ISortedCDPs sortedCDPs;\r\n\r\n    constructor(CDPManager _cdpManager, ISortedCDPs _sortedCDPs) public {\r\n        cdpManager = _cdpManager;\r\n        sortedCDPs = _sortedCDPs;\r\n    }\r\n\r\n    function min(uint a, uint b) internal pure returns (uint) {\r\n        return a < b ? a : b;\r\n    }\r\n\r\n    function getMultipleSortedCDPs(int _startIdx, uint _count)\r\n        external view returns (CombinedCDPData[] memory _cdps)\r\n    {\r\n        uint startIdx;\r\n        bool descend;\r\n\r\n        if (_startIdx >= 0) {\r\n            startIdx = uint(_startIdx);\r\n            descend = true;\r\n        } else {\r\n            startIdx = uint(-(_startIdx + 1));\r\n            descend = false;\r\n        }\r\n\r\n        uint sortedCDPsSize = sortedCDPs.getSize();\r\n\r\n        if (startIdx >= sortedCDPsSize) {\r\n            _cdps = new CombinedCDPData[](0);\r\n        } else {\r\n            uint maxCount = sortedCDPsSize - startIdx;\r\n\r\n            if (_count > maxCount) {\r\n                _count = maxCount;\r\n            }\r\n\r\n            if (descend) {\r\n                _cdps = getMultipleSortedCDPsFromHead(startIdx, _count);\r\n            } else {\r\n                _cdps = getMultipleSortedCDPsFromTail(startIdx, _count);\r\n            }\r\n        }\r\n    }\r\n\r\n    function getMultipleSortedCDPsFromHead(uint _startIdx, uint _count)\r\n        internal view returns (CombinedCDPData[] memory _cdps)\r\n    {\r\n        address currentCDPowner = sortedCDPs.getFirst();\r\n\r\n        for (uint idx = 0; idx < _startIdx; ++idx) {\r\n            currentCDPowner = sortedCDPs.getNext(currentCDPowner);\r\n        }\r\n\r\n        _cdps = new CombinedCDPData[](_count);\r\n\r\n        for (uint idx = 0; idx < _count; ++idx) {\r\n            _cdps[idx].owner = currentCDPowner;\r\n            (\r\n                _cdps[idx].debt,\r\n                _cdps[idx].coll,\r\n                _cdps[idx].stake,\r\n                /* status */,\r\n                /* arrayIndex */\r\n            ) = cdpManager.CDPs(currentCDPowner);\r\n            (\r\n                _cdps[idx].snapshotETH,\r\n                _cdps[idx].snapshotCLVDebt\r\n            ) = cdpManager.rewardSnapshots(currentCDPowner);\r\n\r\n            currentCDPowner = sortedCDPs.getNext(currentCDPowner);\r\n        }\r\n    }\r\n\r\n    function getMultipleSortedCDPsFromTail(uint _startIdx, uint _count)\r\n        internal view returns (CombinedCDPData[] memory _cdps)\r\n    {\r\n        address currentCDPowner = sortedCDPs.getLast();\r\n\r\n        for (uint idx = 0; idx < _startIdx; ++idx) {\r\n            currentCDPowner = sortedCDPs.getPrev(currentCDPowner);\r\n        }\r\n\r\n        _cdps = new CombinedCDPData[](_count);\r\n\r\n        for (uint idx = 0; idx < _count; ++idx) {\r\n            _cdps[idx].owner = currentCDPowner;\r\n            (\r\n                _cdps[idx].debt,\r\n                _cdps[idx].coll,\r\n                _cdps[idx].stake,\r\n                /* status */,\r\n                /* arrayIndex */\r\n            ) = cdpManager.CDPs(currentCDPowner);\r\n            (\r\n                _cdps[idx].snapshotETH,\r\n                _cdps[idx].snapshotCLVDebt\r\n            ) = cdpManager.rewardSnapshots(currentCDPowner);\r\n\r\n            currentCDPowner = sortedCDPs.getPrev(currentCDPowner);\r\n        }\r\n    }\r\n}\r\n",
  "sourcePath": "/home/training/contracts/MultiCDPGetter.sol",
  "compiler": {
    "name": "solc",
    "version": "0.5.16+commit.9c3226ce.Emscripten.clang"
  },
  "schemaVersion": "3.1.0",
  "updatedAt": "2020-06-03T00:09:10.493Z",
  "devdoc": {
    "methods": {}
  },
  "userdoc": {
    "methods": {}
  }
}