{
  "contractName": "NameRegistry",
  "abi": [
    {
      "constant": false,
      "inputs": [],
      "name": "renounceOwnership",
      "outputs": [],
      "payable": false,
      "stateMutability": "nonpayable",
      "type": "function"
    },
    {
      "constant": true,
      "inputs": [],
      "name": "owner",
      "outputs": [
        {
          "internalType": "address",
          "name": "",
          "type": "address"
        }
      ],
      "payable": false,
      "stateMutability": "view",
      "type": "function"
    },
    {
      "constant": true,
      "inputs": [],
      "name": "isOwner",
      "outputs": [
        {
          "internalType": "bool",
          "name": "",
          "type": "bool"
        }
      ],
      "payable": false,
      "stateMutability": "view",
      "type": "function"
    },
    {
      "constant": true,
      "inputs": [
        {
          "internalType": "string",
          "name": "",
          "type": "string"
        }
      ],
      "name": "registry",
      "outputs": [
        {
          "internalType": "address",
          "name": "",
          "type": "address"
        }
      ],
      "payable": false,
      "stateMutability": "view",
      "type": "function"
    },
    {
      "constant": false,
      "inputs": [
        {
          "internalType": "address",
          "name": "newOwner",
          "type": "address"
        }
      ],
      "name": "transferOwnership",
      "outputs": [],
      "payable": false,
      "stateMutability": "nonpayable",
      "type": "function"
    },
    {
      "anonymous": false,
      "inputs": [
        {
          "indexed": false,
          "internalType": "string",
          "name": "_name",
          "type": "string"
        },
        {
          "indexed": false,
          "internalType": "address",
          "name": "_addr",
          "type": "address"
        }
      ],
      "name": "NewContractRegistered",
      "type": "event"
    },
    {
      "anonymous": false,
      "inputs": [
        {
          "indexed": false,
          "internalType": "string",
          "name": "_name",
          "type": "string"
        },
        {
          "indexed": false,
          "internalType": "address",
          "name": "_addr",
          "type": "address"
        }
      ],
      "name": "ContractAddressUpdated",
      "type": "event"
    },
    {
      "anonymous": false,
      "inputs": [
        {
          "indexed": true,
          "internalType": "address",
          "name": "previousOwner",
          "type": "address"
        },
        {
          "indexed": true,
          "internalType": "address",
          "name": "newOwner",
          "type": "address"
        }
      ],
      "name": "OwnershipTransferred",
      "type": "event"
    },
    {
      "constant": false,
      "inputs": [
        {
          "internalType": "string",
          "name": "name",
          "type": "string"
        },
        {
          "internalType": "address",
          "name": "addr",
          "type": "address"
        }
      ],
      "name": "registerContract",
      "outputs": [
        {
          "internalType": "bool",
          "name": "",
          "type": "bool"
        }
      ],
      "payable": false,
      "stateMutability": "nonpayable",
      "type": "function"
    },
    {
      "constant": false,
      "inputs": [
        {
          "internalType": "string",
          "name": "name",
          "type": "string"
        },
        {
          "internalType": "address",
          "name": "addr",
          "type": "address"
        }
      ],
      "name": "updateAddress",
      "outputs": [
        {
          "internalType": "bool",
          "name": "",
          "type": "bool"
        }
      ],
      "payable": false,
      "stateMutability": "nonpayable",
      "type": "function"
    },
    {
      "constant": true,
      "inputs": [
        {
          "internalType": "string",
          "name": "name",
          "type": "string"
        }
      ],
      "name": "getAddress",
      "outputs": [
        {
          "internalType": "address",
          "name": "",
          "type": "address"
        }
      ],
      "payable": false,
      "stateMutability": "view",
      "type": "function"
    }
  ],
  "bytecode": "0x608060405260006100176001600160e01b0361006616565b600080546001600160a01b0319166001600160a01b0383169081178255604051929350917f8be0079c531659141344cd1fd0a4f28419497f9722a3daafe3b4186f6b6457e0908290a35061006a565b3390565b610bd1806100796000396000f3fe608060405234801561001057600080fd5b50600436106100885760003560e01c80638f32d59b1161005b5780638f32d59b1461023157806392a296c914610239578063bf40fac1146102df578063f2fde38b1461038557610088565b80633e21750a1461008d578063715018a6146101525780637f3c2c281461015c5780638da5cb5b1461020d575b600080fd5b61013e600480360360408110156100a357600080fd5b8101906020810181356401000000008111156100be57600080fd5b8201836020820111156100d057600080fd5b803590602001918460018302840111640100000000831117156100f257600080fd5b91908080601f016020809104026020016040519081016040528093929190818152602001838380828437600092019190915250929550505090356001600160a01b031691506103ab9050565b604080519115158252519081900360200190f35b61015a6105ed565b005b61013e6004803603604081101561017257600080fd5b81019060208101813564010000000081111561018d57600080fd5b82018360208201111561019f57600080fd5b803590602001918460018302840111640100000000831117156101c157600080fd5b91908080601f016020809104026020016040519081016040528093929190818152602001838380828437600092019190915250929550505090356001600160a01b0316915061069d9050565b610215610897565b604080516001600160a01b039092168252519081900360200190f35b61013e6108a6565b6102156004803603602081101561024f57600080fd5b81019060208101813564010000000081111561026a57600080fd5b82018360208201111561027c57600080fd5b8035906020019184600183028401116401000000008311171561029e57600080fd5b91908080601f0160208091040260200160405190810160405280939291908181526020018383808284376000920191909152509295506108ca945050505050565b610215600480360360208110156102f557600080fd5b81019060208101813564010000000081111561031057600080fd5b82018360208201111561032257600080fd5b8035906020019184600183028401116401000000008311171561034457600080fd5b91908080601f0160208091040260200160405190810160405280939291908181526020018383808284376000920191909152509295506108f0945050505050565b61015a6004803603602081101561039b57600080fd5b50356001600160a01b0316610a16565b60006103b56108a6565b610406576040805162461bcd60e51b815260206004820181905260248201527f4f776e61626c653a2063616c6c6572206973206e6f7420746865206f776e6572604482015290519081900360640190fd5b60006001600160a01b03166001846040518082805190602001908083835b602083106104435780518252601f199092019160209182019101610424565b51815160209384036101000a60001901801990921691161790529201948552506040519384900301909220546001600160a01b0316929092141591506104bc90505760405162461bcd60e51b8152600401808060200182810382526025815260200180610b2d6025913960400191505060405180910390fd5b816001846040518082805190602001908083835b602083106104ef5780518252601f1990920191602091820191016104d0565b51815160209384036101000a6000190180199092169116179052920194855250604080519485900382018520805473ffffffffffffffffffffffffffffffffffffffff19166001600160a01b0397881617905594871684820152848452875194840194909452505084517fa42de6429c1410f4470a8ff5afeeae27c734519ac1693e8eb58798a81715c947928692869290918291606083019186019080838360005b838110156105a9578181015183820152602001610591565b50505050905090810190601f1680156105d65780820380516001836020036101000a031916815260200191505b50935050505060405180910390a150600192915050565b6105f56108a6565b610646576040805162461bcd60e51b815260206004820181905260248201527f4f776e61626c653a2063616c6c6572206973206e6f7420746865206f776e6572604482015290519081900360640190fd5b600080546040516001600160a01b03909116907f8be0079c531659141344cd1fd0a4f28419497f9722a3daafe3b4186f6b6457e0908390a36000805473ffffffffffffffffffffffffffffffffffffffff19169055565b60006106a76108a6565b6106f8576040805162461bcd60e51b815260206004820181905260248201527f4f776e61626c653a2063616c6c6572206973206e6f7420746865206f776e6572604482015290519081900360640190fd5b60006001600160a01b03166001846040518082805190602001908083835b602083106107355780518252601f199092019160209182019101610716565b51815160209384036101000a60001901801990921691161790529201948552506040519384900301909220546001600160a01b03169290921491506107ad90505760405162461bcd60e51b8152600401808060200182810382526025815260200180610b786025913960400191505060405180910390fd5b816001846040518082805190602001908083835b602083106107e05780518252601f1990920191602091820191016107c1565b51815160209384036101000a6000190180199092169116179052920194855250604080519485900382018520805473ffffffffffffffffffffffffffffffffffffffff19166001600160a01b0397881617905594871684820152848452875194840194909452505084517f3231fef7b835f8f98159628a6b139e7c3640fc203734709553768e5ed6dc699a9286928692909182916060830191860190808383600083156105a9578181015183820152602001610591565b6000546001600160a01b031690565b600080546001600160a01b03166108bb610a7b565b6001600160a01b031614905090565b80516020818301810180516001825292820191909301209152546001600160a01b031681565b6000806001600160a01b03166001836040518082805190602001908083835b6020831061092e5780518252601f19909201916020918201910161090f565b51815160209384036101000a60001901801990921691161790529201948552506040519384900301909220546001600160a01b0316929092141591506109a790505760405162461bcd60e51b8152600401808060200182810382526025815260200180610b2d6025913960400191505060405180910390fd5b6001826040518082805190602001908083835b602083106109d95780518252601f1990920191602091820191016109ba565b51815160209384036101000a60001901801990921691161790529201948552506040519384900301909220546001600160a01b0316949350505050565b610a1e6108a6565b610a6f576040805162461bcd60e51b815260206004820181905260248201527f4f776e61626c653a2063616c6c6572206973206e6f7420746865206f776e6572604482015290519081900360640190fd5b610a7881610a7f565b50565b3390565b6001600160a01b038116610ac45760405162461bcd60e51b8152600401808060200182810382526026815260200180610b526026913960400191505060405180910390fd5b600080546040516001600160a01b03808516939216917f8be0079c531659141344cd1fd0a4f28419497f9722a3daafe3b4186f6b6457e091a36000805473ffffffffffffffffffffffffffffffffffffffff19166001600160a01b039290921691909117905556fe4e616d655265673a206e616d6520646f6573206e6f74206d617020746f20616e20616464724f776e61626c653a206e6577206f776e657220697320746865207a65726f20616464726573734e616d655265673a206e616d6520616c7265616479206d61707320746f20616e2061646472a265627a7a723158204b3bc1e5cd7b08ca6f8cbfdb654fb2702d0d059abd8a7e458bc0708fc4c8efe364736f6c634300050b0032",
  "source": "pragma solidity ^0.5.11;\r\n\r\nimport \"@openzeppelin/contracts/ownership/Ownable.sol\";\r\nimport \"@nomiclabs/buidler/console.sol\";\r\n\r\ncontract NameRegistry is Ownable {\r\n\r\n    mapping (string => address) public registry;\r\n\r\n    event NewContractRegistered(string _name, address _addr);\r\n    event ContractAddressUpdated(string _name, address _addr);\r\n\r\n    function registerContract(string memory name, address addr) public onlyOwner returns(bool) {\r\n        require(registry[name] == address(0), \"NameReg: name already maps to an addr\");\r\n        registry[name] = addr;\r\n        emit NewContractRegistered(name, addr);\r\n        return true;\r\n    }\r\n\r\n    function updateAddress(string memory name, address addr) public onlyOwner returns(bool) {\r\n        require(registry[name] != address(0), \"NameReg: name does not map to an addr\");\r\n        registry[name] = addr;\r\n        emit ContractAddressUpdated(name, addr);\r\n        return true;\r\n    }\r\n\r\n    function getAddress(string memory name) public view returns(address) {\r\n        require(registry[name] != address(0), \"NameReg: name does not map to an addr\");\r\n        return registry[name];\r\n    }\r\n}",
  "sourcePath": "c:/Users/Rick/Desktop/Cleverage/packages/contracts/contracts/NameRegistry.sol",
  "compiler": {
    "name": "solc",
    "version": "0.5.11+commit.c082d0b4.Emscripten.clang"
  },
  "schemaVersion": "3.0.20",
  "updatedAt": "2020-04-26T18:49:44.870Z",
  "devdoc": {
    "methods": {
      "isOwner()": {
        "details": "Returns true if the caller is the current owner."
      },
      "owner()": {
        "details": "Returns the address of the current owner."
      },
      "renounceOwnership()": {
        "details": "Leaves the contract without owner. It will not be possible to call `onlyOwner` functions anymore. Can only be called by the current owner.     * NOTE: Renouncing ownership will leave the contract without an owner, thereby removing any functionality that is only available to the owner."
      },
      "transferOwnership(address)": {
        "details": "Transfers ownership of the contract to a new account (`newOwner`). Can only be called by the current owner."
      }
    }
  },
  "userdoc": {
    "methods": {}
  }
}