{
  "contractName": "PoolManager",
  "abi": [
    {
      "inputs": [],
      "payable": false,
      "stateMutability": "nonpayable",
      "type": "constructor"
    },
    {
      "anonymous": false,
      "inputs": [
        {
          "indexed": false,
          "internalType": "address",
          "name": "_newActivePoolAddress",
          "type": "address"
        }
      ],
      "name": "ActivePoolAddressChanged",
      "type": "event"
    },
    {
      "anonymous": false,
      "inputs": [
        {
          "indexed": false,
          "internalType": "address",
          "name": "_newBorrowerOperationsAddress",
          "type": "address"
        }
      ],
      "name": "BorrowerOperationsAddressChanged",
      "type": "event"
    },
    {
      "anonymous": false,
      "inputs": [
        {
          "indexed": false,
          "internalType": "address",
          "name": "_newCDPManagerAddress",
          "type": "address"
        }
      ],
      "name": "CDPManagerAddressChanged",
      "type": "event"
    },
    {
      "anonymous": false,
      "inputs": [
        {
          "indexed": false,
          "internalType": "address",
          "name": "_newCLVTokenAddress",
          "type": "address"
        }
      ],
      "name": "CLVTokenAddressChanged",
      "type": "event"
    },
    {
      "anonymous": false,
      "inputs": [
        {
          "indexed": false,
          "internalType": "address",
          "name": "_newDefaultPoolAddress",
          "type": "address"
        }
      ],
      "name": "DefaultPoolAddressChanged",
      "type": "event"
    },
    {
      "anonymous": false,
      "inputs": [
        {
          "indexed": false,
          "internalType": "address",
          "name": "claimant",
          "type": "address"
        },
        {
          "indexed": false,
          "internalType": "uint256",
          "name": "claimantReward",
          "type": "uint256"
        },
        {
          "indexed": false,
          "internalType": "address",
          "name": "depositor",
          "type": "address"
        },
        {
          "indexed": false,
          "internalType": "uint256",
          "name": "remainder",
          "type": "uint256"
        }
      ],
      "name": "OverstayPenaltyClaimed",
      "type": "event"
    },
    {
      "anonymous": false,
      "inputs": [
        {
          "indexed": true,
          "internalType": "address",
          "name": "previousOwner",
          "type": "address"
        },
        {
          "indexed": true,
          "internalType": "address",
          "name": "newOwner",
          "type": "address"
        }
      ],
      "name": "OwnershipTransferred",
      "type": "event"
    },
    {
      "anonymous": false,
      "inputs": [
        {
          "indexed": false,
          "internalType": "address",
          "name": "_newPriceFeedAddress",
          "type": "address"
        }
      ],
      "name": "PriceFeedAddressChanged",
      "type": "event"
    },
    {
      "anonymous": false,
      "inputs": [
        {
          "indexed": false,
          "internalType": "uint256",
          "name": "_S_CLV",
          "type": "uint256"
        }
      ],
      "name": "S_CLVUpdated",
      "type": "event"
    },
    {
      "anonymous": false,
      "inputs": [
        {
          "indexed": false,
          "internalType": "uint256",
          "name": "_S_ETH",
          "type": "uint256"
        }
      ],
      "name": "S_ETHUpdated",
      "type": "event"
    },
    {
      "anonymous": false,
      "inputs": [
        {
          "indexed": false,
          "internalType": "address",
          "name": "_newStabilityPoolAddress",
          "type": "address"
        }
      ],
      "name": "StabilityPoolAddressChanged",
      "type": "event"
    },
    {
      "anonymous": false,
      "inputs": [
        {
          "indexed": true,
          "internalType": "address",
          "name": "_user",
          "type": "address"
        },
        {
          "indexed": false,
          "internalType": "uint256",
          "name": "_amount",
          "type": "uint256"
        }
      ],
      "name": "UserDepositChanged",
      "type": "event"
    },
    {
      "anonymous": false,
      "inputs": [
        {
          "indexed": false,
          "internalType": "uint256",
          "name": "_CLV",
          "type": "uint256"
        },
        {
          "indexed": false,
          "internalType": "uint256",
          "name": "_ETH",
          "type": "uint256"
        }
      ],
      "name": "UserSnapshotUpdated",
      "type": "event"
    },
    {
      "payable": true,
      "stateMutability": "payable",
      "type": "fallback"
    },
    {
      "constant": true,
      "inputs": [],
      "name": "S_CLV",
      "outputs": [
        {
          "internalType": "uint256",
          "name": "",
          "type": "uint256"
        }
      ],
      "payable": false,
      "stateMutability": "view",
      "type": "function"
    },
    {
      "constant": true,
      "inputs": [],
      "name": "S_ETH",
      "outputs": [
        {
          "internalType": "uint256",
          "name": "",
          "type": "uint256"
        }
      ],
      "payable": false,
      "stateMutability": "view",
      "type": "function"
    },
    {
      "constant": true,
      "inputs": [],
      "name": "activePool",
      "outputs": [
        {
          "internalType": "contract IPool",
          "name": "",
          "type": "address"
        }
      ],
      "payable": false,
      "stateMutability": "view",
      "type": "function"
    },
    {
      "constant": true,
      "inputs": [],
      "name": "activePoolAddress",
      "outputs": [
        {
          "internalType": "address",
          "name": "",
          "type": "address"
        }
      ],
      "payable": false,
      "stateMutability": "view",
      "type": "function"
    },
    {
      "constant": true,
      "inputs": [],
      "name": "borrowerOperationsAddress",
      "outputs": [
        {
          "internalType": "address",
          "name": "",
          "type": "address"
        }
      ],
      "payable": false,
      "stateMutability": "view",
      "type": "function"
    },
    {
      "constant": true,
      "inputs": [],
      "name": "cdpManagerAddress",
      "outputs": [
        {
          "internalType": "address",
          "name": "",
          "type": "address"
        }
      ],
      "payable": false,
      "stateMutability": "view",
      "type": "function"
    },
    {
      "constant": true,
      "inputs": [],
      "name": "clvAddress",
      "outputs": [
        {
          "internalType": "address",
          "name": "",
          "type": "address"
        }
      ],
      "payable": false,
      "stateMutability": "view",
      "type": "function"
    },
    {
      "constant": true,
      "inputs": [],
      "name": "defaultPool",
      "outputs": [
        {
          "internalType": "contract IPool",
          "name": "",
          "type": "address"
        }
      ],
      "payable": false,
      "stateMutability": "view",
      "type": "function"
    },
    {
      "constant": true,
      "inputs": [],
      "name": "defaultPoolAddress",
      "outputs": [
        {
          "internalType": "address",
          "name": "",
          "type": "address"
        }
      ],
      "payable": false,
      "stateMutability": "view",
      "type": "function"
    },
    {
      "constant": true,
      "inputs": [
        {
          "internalType": "address",
          "name": "",
          "type": "address"
        }
      ],
      "name": "deposit",
      "outputs": [
        {
          "internalType": "uint256",
          "name": "",
          "type": "uint256"
        }
      ],
      "payable": false,
      "stateMutability": "view",
      "type": "function"
    },
    {
      "constant": true,
      "inputs": [],
      "name": "isOwner",
      "outputs": [
        {
          "internalType": "bool",
          "name": "",
          "type": "bool"
        }
      ],
      "payable": false,
      "stateMutability": "view",
      "type": "function"
    },
    {
      "constant": true,
      "inputs": [],
      "name": "owner",
      "outputs": [
        {
          "internalType": "address",
          "name": "",
          "type": "address"
        }
      ],
      "payable": false,
      "stateMutability": "view",
      "type": "function"
    },
    {
      "constant": true,
      "inputs": [],
      "name": "priceFeedAddress",
      "outputs": [
        {
          "internalType": "address",
          "name": "",
          "type": "address"
        }
      ],
      "payable": false,
      "stateMutability": "view",
      "type": "function"
    },
    {
      "constant": false,
      "inputs": [],
      "name": "renounceOwnership",
      "outputs": [],
      "payable": false,
      "stateMutability": "nonpayable",
      "type": "function"
    },
    {
      "constant": true,
      "inputs": [
        {
          "internalType": "address",
          "name": "",
          "type": "address"
        }
      ],
      "name": "snapshot",
      "outputs": [
        {
          "internalType": "uint256",
          "name": "ETH",
          "type": "uint256"
        },
        {
          "internalType": "uint256",
          "name": "CLV",
          "type": "uint256"
        }
      ],
      "payable": false,
      "stateMutability": "view",
      "type": "function"
    },
    {
      "constant": true,
      "inputs": [],
      "name": "stabilityPool",
      "outputs": [
        {
          "internalType": "contract IStabilityPool",
          "name": "",
          "type": "address"
        }
      ],
      "payable": false,
      "stateMutability": "view",
      "type": "function"
    },
    {
      "constant": true,
      "inputs": [],
      "name": "stabilityPoolAddress",
      "outputs": [
        {
          "internalType": "address",
          "name": "",
          "type": "address"
        }
      ],
      "payable": false,
      "stateMutability": "view",
      "type": "function"
    },
    {
      "constant": false,
      "inputs": [
        {
          "internalType": "address",
          "name": "newOwner",
          "type": "address"
        }
      ],
      "name": "transferOwnership",
      "outputs": [],
      "payable": false,
      "stateMutability": "nonpayable",
      "type": "function"
    },
    {
      "constant": false,
      "inputs": [
        {
          "internalType": "address",
          "name": "_borrowerOperationsAddress",
          "type": "address"
        }
      ],
      "name": "setBorrowerOperations",
      "outputs": [],
      "payable": false,
      "stateMutability": "nonpayable",
      "type": "function"
    },
    {
      "constant": false,
      "inputs": [
        {
          "internalType": "address",
          "name": "_cdpManagerAddress",
          "type": "address"
        }
      ],
      "name": "setCDPManagerAddress",
      "outputs": [],
      "payable": false,
      "stateMutability": "nonpayable",
      "type": "function"
    },
    {
      "constant": false,
      "inputs": [
        {
          "internalType": "address",
          "name": "_priceFeedAddress",
          "type": "address"
        }
      ],
      "name": "setPriceFeed",
      "outputs": [],
      "payable": false,
      "stateMutability": "nonpayable",
      "type": "function"
    },
    {
      "constant": false,
      "inputs": [
        {
          "internalType": "address",
          "name": "_CLVAddress",
          "type": "address"
        }
      ],
      "name": "setCLVToken",
      "outputs": [],
      "payable": false,
      "stateMutability": "nonpayable",
      "type": "function"
    },
    {
      "constant": false,
      "inputs": [
        {
          "internalType": "address",
          "name": "_stabilityPoolAddress",
          "type": "address"
        }
      ],
      "name": "setStabilityPool",
      "outputs": [],
      "payable": false,
      "stateMutability": "nonpayable",
      "type": "function"
    },
    {
      "constant": false,
      "inputs": [
        {
          "internalType": "address",
          "name": "_activePoolAddress",
          "type": "address"
        }
      ],
      "name": "setActivePool",
      "outputs": [],
      "payable": false,
      "stateMutability": "nonpayable",
      "type": "function"
    },
    {
      "constant": false,
      "inputs": [
        {
          "internalType": "address",
          "name": "_defaultPoolAddress",
          "type": "address"
        }
      ],
      "name": "setDefaultPool",
      "outputs": [],
      "payable": false,
      "stateMutability": "nonpayable",
      "type": "function"
    },
    {
      "constant": true,
      "inputs": [],
      "name": "getBalance",
      "outputs": [
        {
          "internalType": "uint256",
          "name": "",
          "type": "uint256"
        }
      ],
      "payable": false,
      "stateMutability": "view",
      "type": "function"
    },
    {
      "constant": true,
      "inputs": [],
      "name": "getTCR",
      "outputs": [
        {
          "internalType": "uint256",
          "name": "",
          "type": "uint256"
        }
      ],
      "payable": false,
      "stateMutability": "view",
      "type": "function"
    },
    {
      "constant": true,
      "inputs": [],
      "name": "getActiveDebt",
      "outputs": [
        {
          "internalType": "uint256",
          "name": "",
          "type": "uint256"
        }
      ],
      "payable": false,
      "stateMutability": "view",
      "type": "function"
    },
    {
      "constant": true,
      "inputs": [],
      "name": "getActiveColl",
      "outputs": [
        {
          "internalType": "uint256",
          "name": "",
          "type": "uint256"
        }
      ],
      "payable": false,
      "stateMutability": "view",
      "type": "function"
    },
    {
      "constant": true,
      "inputs": [],
      "name": "getClosedDebt",
      "outputs": [
        {
          "internalType": "uint256",
          "name": "",
          "type": "uint256"
        }
      ],
      "payable": false,
      "stateMutability": "view",
      "type": "function"
    },
    {
      "constant": true,
      "inputs": [],
      "name": "getLiquidatedColl",
      "outputs": [
        {
          "internalType": "uint256",
          "name": "",
          "type": "uint256"
        }
      ],
      "payable": false,
      "stateMutability": "view",
      "type": "function"
    },
    {
      "constant": true,
      "inputs": [],
      "name": "getStabilityPoolCLV",
      "outputs": [
        {
          "internalType": "uint256",
          "name": "",
          "type": "uint256"
        }
      ],
      "payable": false,
      "stateMutability": "view",
      "type": "function"
    },
    {
      "constant": false,
      "inputs": [],
      "name": "addColl",
      "outputs": [
        {
          "internalType": "bool",
          "name": "",
          "type": "bool"
        }
      ],
      "payable": true,
      "stateMutability": "payable",
      "type": "function"
    },
    {
      "constant": false,
      "inputs": [
        {
          "internalType": "address",
          "name": "_account",
          "type": "address"
        },
        {
          "internalType": "uint256",
          "name": "_ETH",
          "type": "uint256"
        }
      ],
      "name": "withdrawColl",
      "outputs": [
        {
          "internalType": "bool",
          "name": "",
          "type": "bool"
        }
      ],
      "payable": false,
      "stateMutability": "nonpayable",
      "type": "function"
    },
    {
      "constant": false,
      "inputs": [
        {
          "internalType": "address",
          "name": "_account",
          "type": "address"
        },
        {
          "internalType": "uint256",
          "name": "_CLV",
          "type": "uint256"
        }
      ],
      "name": "withdrawCLV",
      "outputs": [
        {
          "internalType": "bool",
          "name": "",
          "type": "bool"
        }
      ],
      "payable": false,
      "stateMutability": "nonpayable",
      "type": "function"
    },
    {
      "constant": false,
      "inputs": [
        {
          "internalType": "address",
          "name": "_account",
          "type": "address"
        },
        {
          "internalType": "uint256",
          "name": "_CLV",
          "type": "uint256"
        }
      ],
      "name": "repayCLV",
      "outputs": [
        {
          "internalType": "bool",
          "name": "",
          "type": "bool"
        }
      ],
      "payable": false,
      "stateMutability": "nonpayable",
      "type": "function"
    },
    {
      "constant": false,
      "inputs": [
        {
          "internalType": "uint256",
          "name": "_CLV",
          "type": "uint256"
        },
        {
          "internalType": "uint256",
          "name": "_ETH",
          "type": "uint256"
        }
      ],
      "name": "liquidate",
      "outputs": [
        {
          "internalType": "bool",
          "name": "",
          "type": "bool"
        }
      ],
      "payable": false,
      "stateMutability": "nonpayable",
      "type": "function"
    },
    {
      "constant": false,
      "inputs": [
        {
          "internalType": "uint256",
          "name": "_CLV",
          "type": "uint256"
        },
        {
          "internalType": "uint256",
          "name": "_ETH",
          "type": "uint256"
        }
      ],
      "name": "moveDistributionRewardsToActivePool",
      "outputs": [
        {
          "internalType": "bool",
          "name": "",
          "type": "bool"
        }
      ],
      "payable": false,
      "stateMutability": "nonpayable",
      "type": "function"
    },
    {
      "constant": false,
      "inputs": [
        {
          "internalType": "address",
          "name": "_account",
          "type": "address"
        },
        {
          "internalType": "uint256",
          "name": "_CLV",
          "type": "uint256"
        },
        {
          "internalType": "uint256",
          "name": "_ETH",
          "type": "uint256"
        }
      ],
      "name": "redeemCollateral",
      "outputs": [
        {
          "internalType": "bool",
          "name": "",
          "type": "bool"
        }
      ],
      "payable": false,
      "stateMutability": "nonpayable",
      "type": "function"
    },
    {
      "constant": true,
      "inputs": [
        {
          "internalType": "address",
          "name": "_user",
          "type": "address"
        }
      ],
      "name": "getCurrentETHGain",
      "outputs": [
        {
          "internalType": "uint256",
          "name": "",
          "type": "uint256"
        }
      ],
      "payable": false,
      "stateMutability": "view",
      "type": "function"
    },
    {
      "constant": false,
      "inputs": [
        {
          "internalType": "uint256",
          "name": "_amount",
          "type": "uint256"
        }
      ],
      "name": "provideToSP",
      "outputs": [
        {
          "internalType": "bool",
          "name": "",
          "type": "bool"
        }
      ],
      "payable": false,
      "stateMutability": "nonpayable",
      "type": "function"
    },
    {
      "constant": false,
      "inputs": [
        {
          "internalType": "uint256",
          "name": "_amount",
          "type": "uint256"
        }
      ],
      "name": "withdrawFromSP",
      "outputs": [
        {
          "internalType": "bool",
          "name": "",
          "type": "bool"
        }
      ],
      "payable": false,
      "stateMutability": "nonpayable",
      "type": "function"
    },
    {
      "constant": false,
      "inputs": [
        {
          "internalType": "address",
          "name": "_user",
          "type": "address"
        },
        {
          "internalType": "address",
          "name": "_hint",
          "type": "address"
        }
      ],
      "name": "withdrawFromSPtoCDP",
      "outputs": [
        {
          "internalType": "bool",
          "name": "",
          "type": "bool"
        }
      ],
      "payable": false,
      "stateMutability": "nonpayable",
      "type": "function"
    },
    {
      "constant": false,
      "inputs": [
        {
          "internalType": "address",
          "name": "_address",
          "type": "address"
        }
      ],
      "name": "withdrawPenaltyFromSP",
      "outputs": [
        {
          "internalType": "bool",
          "name": "",
          "type": "bool"
        }
      ],
      "payable": false,
      "stateMutability": "nonpayable",
      "type": "function"
    },
    {
      "constant": false,
      "inputs": [
        {
          "internalType": "uint256",
          "name": "_debt",
          "type": "uint256"
        },
        {
          "internalType": "uint256",
          "name": "_coll",
          "type": "uint256"
        },
        {
          "internalType": "uint256",
          "name": "CLVInPool",
          "type": "uint256"
        }
      ],
      "name": "offset",
      "outputs": [
        {
          "internalType": "uint256",
          "name": "debtRemainder",
          "type": "uint256"
        },
        {
          "internalType": "uint256",
          "name": "collRemainder",
          "type": "uint256"
        }
      ],
      "payable": true,
      "stateMutability": "payable",
      "type": "function"
    }
  ],
  "bytecode": "0x6080604052600354600480546001600160a01b0319166001600160a01b039092169190911790553480156200003357600080fd5b506000620000496001600160e01b036200009916565b600080546001600160a01b0319166001600160a01b0383169081178255604051929350917f8be0079c531659141344cd1fd0a4f28419497f9722a3daafe3b4186f6b6457e0908290a3506200009d565b3390565b61378b80620000ad6000396000f3fe6080604052600436106102f25760003560e01c80638c192ed41161018f578063b96c5181116100e1578063ef6151a61161008a578063f568dd8e11610064578063f568dd8e1461096a578063f7883a8b146109a3578063fefb4c58146109d6576102f2565b8063ef6151a6146108d1578063f2fde38b14610904578063f340fa0114610937576102f2565b8063d31cadf6116100bb578063d31cadf61461087e578063d5bd6d9414610893578063e0abca0b146108bc576102f2565b8063b96c518114610800578063cb8d3e5414610839578063d296d1f11461084e576102f2565b8063a00f949511610143578063b08bc7221161011d578063b08bc722146107c1578063b620115d146107d6578063b7f8cf9b146107eb576102f2565b8063a00f94951461073e578063aac1846f14610779578063afc7f50f1461078e576102f2565b80638f32d59b116101745780638f32d59b146106e15780639594897d146106f657806398d721e01461070b576102f2565b80638c192ed4146106995780638da5cb5b146106cc576102f2565b80634f6cda4411610248578063715018a6116101fc5780637cb19fe8116101d65780637cb19fe8146106305780637f7dde4a1461066f57806385cb43e814610684576102f2565b8063715018a6146105be578063724e78da146105d357806378c77a2414610606576102f2565b80636bad51981161022d5780636bad519814610564578063708249b3146105795780637116eb441461058e576102f2565b80634f6cda441461051c578063697b93fd1461054f576102f2565b806325a2e6e7116102aa5780632e90bbd8116102845780632e90bbd81461049b5780632f510eb1146104d45780633cc7422514610507576102f2565b806325a2e6e71461040957806326512160146104255780632e54bf9514610471576102f2565b80630b622ab2116102db5780630b622ab2146103b857806312065fe0146103cd5780631f549907146103f4576102f2565b806302f6567f14610372578063048c661d146103a3575b600a546001600160a01b0316610306610a09565b6001600160a01b031614806103355750600c546001600160a01b031661032a610a09565b6001600160a01b0316145b6103705760405162461bcd60e51b815260040180806020018281038252603b815260200180613566603b913960400191505060405180910390fd5b005b34801561037e57600080fd5b50610387610a0e565b604080516001600160a01b039092168252519081900360200190f35b3480156103af57600080fd5b50610387610a1d565b3480156103c457600080fd5b50610387610a2c565b3480156103d957600080fd5b506103e2610a3b565b60408051918252519081900360200190f35b34801561040057600080fd5b506103e2610a3f565b610411610ab5565b604080519115158252519081900360200190f35b34801561043157600080fd5b506104586004803603602081101561044857600080fd5b50356001600160a01b0316610bae565b6040805192835260208301919091528051918290030190f35b34801561047d57600080fd5b506104116004803603602081101561049457600080fd5b5035610bc7565b3480156104a757600080fd5b50610411600480360360408110156104be57600080fd5b506001600160a01b038135169060200135610c68565b3480156104e057600080fd5b50610370600480360360208110156104f757600080fd5b50356001600160a01b0316610dcf565b34801561051357600080fd5b50610387610e87565b34801561052857600080fd5b506103e26004803603602081101561053f57600080fd5b50356001600160a01b0316610e96565b34801561055b57600080fd5b506103e2610f20565b34801561057057600080fd5b506103e2610f65565b34801561058557600080fd5b506103e2610f6b565b34801561059a57600080fd5b50610411600480360360408110156105b157600080fd5b5080359060200135610f71565b3480156105ca57600080fd5b506103706110f0565b3480156105df57600080fd5b50610370600480360360208110156105f657600080fd5b50356001600160a01b0316611193565b34801561061257600080fd5b506104116004803603602081101561062957600080fd5b503561124b565b34801561063c57600080fd5b506104116004803603606081101561065357600080fd5b506001600160a01b038135169060208101359060400135611273565b34801561067b57600080fd5b50610387611442565b34801561069057600080fd5b506103e2611451565b3480156106a557600080fd5b50610370600480360360208110156106bc57600080fd5b50356001600160a01b0316611496565b3480156106d857600080fd5b50610387611556565b3480156106ed57600080fd5b50610411611565565b34801561070257600080fd5b506103e2611589565b34801561071757600080fd5b506103706004803603602081101561072e57600080fd5b50356001600160a01b03166115ce565b34801561074a57600080fd5b506104116004803603604081101561076157600080fd5b506001600160a01b038135811691602001351661168e565b34801561078557600080fd5b5061038761175f565b34801561079a57600080fd5b50610411600480360360208110156107b157600080fd5b50356001600160a01b031661176e565b3480156107cd57600080fd5b50610387611a31565b3480156107e257600080fd5b506103e2611a40565b3480156107f757600080fd5b50610387611d2a565b34801561080c57600080fd5b506104116004803603604081101561082357600080fd5b506001600160a01b038135169060200135611d39565b34801561084557600080fd5b506103e2611e50565b34801561085a57600080fd5b506104116004803603604081101561087157600080fd5b5080359060200135611e95565b34801561088a57600080fd5b50610387612014565b610458600480360360608110156108a957600080fd5b5080359060208101359060400135612023565b3480156108c857600080fd5b50610387612498565b3480156108dd57600080fd5b50610370600480360360208110156108f457600080fd5b50356001600160a01b03166124a7565b34801561091057600080fd5b506103706004803603602081101561092757600080fd5b50356001600160a01b031661255f565b34801561094357600080fd5b506103e26004803603602081101561095a57600080fd5b50356001600160a01b03166125c4565b34801561097657600080fd5b506104116004803603604081101561098d57600080fd5b506001600160a01b0381351690602001356125d6565b3480156109af57600080fd5b50610370600480360360208110156109c657600080fd5b50356001600160a01b0316612688565b3480156109e257600080fd5b50610370600480360360208110156109f957600080fd5b50356001600160a01b0316612748565b335b90565b6003546001600160a01b031681565b6009546001600160a01b031681565b600a546001600160a01b031681565b4790565b600b5460408051630a7b61df60e11b815290516000926001600160a01b0316916314f6c3be916004808301926020929190829003018186803b158015610a8457600080fd5b505afa158015610a98573d6000803e3d6000fd5b505050506040513d6020811015610aae57600080fd5b5051905090565b6002546000906001600160a01b0316610acc610a09565b6001600160a01b031614610b115760405162461bcd60e51b815260040180806020018281038252603a8152602001806135a1603a913960400191505060405180910390fd5b600c546040516000916001600160a01b03169034908381818185875af1925050503d8060008114610b5e576040519150601f19603f3d011682016040523d82523d6000602084013e610b63565b606091505b5090915050600181151514610ba95760405162461bcd60e51b815260040180806020018281038252602f815260200180613601602f913960400191505060405180910390fd5b905090565b6012602052600090815260409020805460019091015482565b600080610bd2610a09565b6001600160a01b0381166000908152600f602052604090205490915080610c2a5760405162461bcd60e51b815260040180806020018281038252602e81526020018061368e602e913960400191505060405180910390fd5b6000610c3583612800565b50905080851015610c5b57610c5983610c54838863ffffffff612b8016565b612bc9565b505b600193505050505b919050565b6002546000906001600160a01b0316610c7f610a09565b6001600160a01b031614610cc45760405162461bcd60e51b815260040180806020018281038252603a8152602001806135a1603a913960400191505060405180910390fd5b600b5460408051634de7363160e01b81526004810185905290516001600160a01b0390921691634de736319160248082019260009290919082900301818387803b158015610d1157600080fd5b505af1158015610d25573d6000803e3d6000fd5b5050600754604080517f40c10f190000000000000000000000000000000000000000000000000000000081526001600160a01b0388811660048301526024820188905291519190921693506340c10f19925060448083019260209291908290030181600087803b158015610d9857600080fd5b505af1158015610dac573d6000803e3d6000fd5b505050506040513d6020811015610dc257600080fd5b5060019150505b92915050565b610dd7611565565b610e28576040805162461bcd60e51b815260206004820181905260248201527f4f776e61626c653a2063616c6c6572206973206e6f7420746865206f776e6572604482015290519081900360640190fd5b600280546001600160a01b0383166001600160a01b03199182168117909255600180549091168217905560408051918252517f3ca631ffcd2a9b5d9ae18543fc82f58eb4ca33af9e6ab01b7a8e95331e6ed9859181900360200190a150565b600d546001600160a01b031681565b6001600160a01b0381166000908152601260205260408120546011548290610ec4908363ffffffff612b8016565b905080610ed657600092505050610c63565b6001600160a01b0384166000908152600f6020526040902054610f17670de0b6b3a7640000610f0b838563ffffffff612e6216565b9063ffffffff612ebb16565b95945050505050565b600b546040805163e1cf19c160e01b815290516000926001600160a01b03169163e1cf19c1916004808301926020929190829003018186803b158015610a8457600080fd5b60115481565b60105481565b6003546000906001600160a01b0316610f88610a09565b6001600160a01b031614610fcd5760405162461bcd60e51b81526004018080602001828103825260298152602001806136dd6029913960400191505060405180910390fd5b600d546040805163e9c8395760e01b81526004810186905290516001600160a01b039092169163e9c839579160248082019260009290919082900301818387803b15801561101a57600080fd5b505af115801561102e573d6000803e3d6000fd5b5050600b5460408051634de7363160e01b81526004810188905290516001600160a01b039092169350634de73631925060248082019260009290919082900301818387803b15801561107f57600080fd5b505af1158015611093573d6000803e3d6000fd5b5050600d54600c54604080516364a197f360e01b81526001600160a01b0392831660048201526024810188905290519190921693506364a197f3925060448083019260209291908290030181600087803b158015610d9857600080fd5b6110f8611565565b611149576040805162461bcd60e51b815260206004820181905260248201527f4f776e61626c653a2063616c6c6572206973206e6f7420746865206f776e6572604482015290519081900360640190fd5b600080546040516001600160a01b03909116907f8be0079c531659141344cd1fd0a4f28419497f9722a3daafe3b4186f6b6457e0908390a3600080546001600160a01b0319169055565b61119b611565565b6111ec576040805162461bcd60e51b815260206004820181905260248201527f4f776e61626c653a2063616c6c6572206973206e6f7420746865206f776e6572604482015290519081900360640190fd5b600680546001600160a01b0383166001600160a01b03199182168117909255600580549091168217905560408051918252517f8c537274438aa850a330284665d81a85dd38267d09e4050d416bfc94142db2649181900360200190a150565b600080611256610a09565b9050600061126382612800565b509050838101610c593382612bc9565b6003546000906001600160a01b031661128a610a09565b6001600160a01b0316146112cf5760405162461bcd60e51b81526004018080602001828103825260298152602001806136dd6029913960400191505060405180910390fd5b600b546040805163e9c8395760e01b81526004810186905290516001600160a01b039092169163e9c839579160248082019260009290919082900301818387803b15801561131c57600080fd5b505af1158015611330573d6000803e3d6000fd5b5050600b54604080516364a197f360e01b81526001600160a01b0389811660048301526024820188905291519190921693506364a197f3925060448083019260209291908290030181600087803b15801561138a57600080fd5b505af115801561139e573d6000803e3d6000fd5b505050506040513d60208110156113b457600080fd5b505060075460408051632770a7eb60e21b81526001600160a01b0387811660048301526024820187905291519190921691639dc29fac9160448083019260209291908290030181600087803b15801561140c57600080fd5b505af1158015611420573d6000803e3d6000fd5b505050506040513d602081101561143657600080fd5b50600195945050505050565b600b546001600160a01b031681565b6009546040805163e1cf19c160e01b815290516000926001600160a01b03169163e1cf19c1916004808301926020929190829003018186803b158015610a8457600080fd5b61149e611565565b6114ef576040805162461bcd60e51b815260206004820181905260248201527f4f776e61626c653a2063616c6c6572206973206e6f7420746865206f776e6572604482015290519081900360640190fd5b600e80546001600160a01b038084166001600160a01b0319928316811793849055600d80549093169390911692909217905560408051918252517f5ee0cae2f063ed938bb55046f6a932fb6ae792bf43624806bb90abe68a50be9b9181900360200190a150565b6000546001600160a01b031690565b600080546001600160a01b031661157a610a09565b6001600160a01b031614905090565b600d546040805163e1cf19c160e01b815290516000926001600160a01b03169163e1cf19c1916004808301926020929190829003018186803b158015610a8457600080fd5b6115d6611565565b611627576040805162461bcd60e51b815260206004820181905260248201527f4f776e61626c653a2063616c6c6572206973206e6f7420746865206f776e6572604482015290519081900360640190fd5b600a80546001600160a01b038084166001600160a01b0319928316811793849055600980549093169390911692909217905560408051918252517f82966d27eea39b038ee0fa30cd16532bb24f6e65d31cb58fb227aa5766cdcc7f9181900360200190a150565b60035460009083906001600160a01b03166116a7610a09565b6001600160a01b031614806116d457506116bf610a09565b6001600160a01b0316816001600160a01b0316145b61170f5760405162461bcd60e51b81526004018080602001828103825260518152602001806137066051913960600191505060405180910390fd5b6001600160a01b0384166000908152600f602052604090205480611737576000925050611758565b60006117438686612efd565b5090506117508682612bc9565b506001935050505b5092915050565b600e546001600160a01b031681565b600080611779610a09565b905082600061178782613327565b6001600160a01b0383166000908152600f60205260409020549091508082116117e15760405162461bcd60e51b81526004018080602001828103825260298152602001806136306029913960400191505060405180910390fd5b60006117ec84610e96565b9050600061180484610f0b848663ffffffff612e6216565b90506000611818838363ffffffff612b8016565b6001600160a01b0387166000818152600f602081815260408084208481556010546012845294829020600181019590955560115490945591815291548151908152905193945091927fbce78369dccab09eec1986f4d409ab09ffbb47d65423e5148fcf98411c5111c99281900390910190a27f3ad3a0af1c72b834ff87f9409d7124fd7d9b306560756548477325e6e09f5055601054601154604051808381526020018281526020019250505060405180910390a1600954604080516364a197f360e01b81526001600160a01b038a8116600483015260248201859052915191909216916364a197f39160448083019260209291908290030181600087803b15801561192357600080fd5b505af1158015611937573d6000803e3d6000fd5b505050506040513d602081101561194d57600080fd5b5050600954604080516364a197f360e01b81526001600160a01b03898116600483015260248201869052915191909216916364a197f39160448083019260209291908290030181600087803b1580156119a557600080fd5b505af11580156119b9573d6000803e3d6000fd5b505050506040513d60208110156119cf57600080fd5b5050604080516001600160a01b03808a168252602082018490528816818301526060810184905290517f719a419f2a63c458272234c889194ae6dad9bf9b24d69cef17912f087ac8a6a89181900360800190a150600198975050505050505050565b600c546001600160a01b031681565b600080600560009054906101000a90046001600160a01b03166001600160a01b03166398d5fdca6040518163ffffffff1660e01b815260040160206040518083038186803b158015611a9157600080fd5b505afa158015611aa5573d6000803e3d6000fd5b505050506040513d6020811015611abb57600080fd5b5051600b5460408051630a7b61df60e11b815290519293506000926001600160a01b03909216916314f6c3be91600480820192602092909190829003018186803b158015611b0857600080fd5b505afa158015611b1c573d6000803e3d6000fd5b505050506040513d6020811015611b3257600080fd5b5051600b546040805163e1cf19c160e01b815290519293506000926001600160a01b039092169163e1cf19c191600480820192602092909190829003018186803b158015611b7f57600080fd5b505afa158015611b93573d6000803e3d6000fd5b505050506040513d6020811015611ba957600080fd5b5051600d5460408051630a7b61df60e11b815290519293506000926001600160a01b03909216916314f6c3be91600480820192602092909190829003018186803b158015611bf657600080fd5b505afa158015611c0a573d6000803e3d6000fd5b505050506040513d6020811015611c2057600080fd5b5051600d546040805163e1cf19c160e01b815290519293506000926001600160a01b039092169163e1cf19c191600480820192602092909190829003018186803b158015611c6d57600080fd5b505afa158015611c81573d6000803e3d6000fd5b505050506040513d6020811015611c9757600080fd5b505190506000611cad858463ffffffff61335816565b90506000611cc1858463ffffffff61335816565b905081158015611ccf575080155b15611ce4576001975050505050505050610a0b565b8115801590611cf1575080155b15611d0757600019975050505050505050610a0b565b6000611d1d82610f0b858b63ffffffff612e6216565b9850505050505050505090565b6002546001600160a01b031681565b6002546000906001600160a01b0316611d50610a09565b6001600160a01b031614611d955760405162461bcd60e51b815260040180806020018281038252603a8152602001806135a1603a913960400191505060405180910390fd5b600b546040805163e9c8395760e01b81526004810185905290516001600160a01b039092169163e9c839579160248082019260009290919082900301818387803b158015611de257600080fd5b505af1158015611df6573d6000803e3d6000fd5b505060075460408051632770a7eb60e21b81526001600160a01b038881166004830152602482018890529151919092169350639dc29fac925060448083019260209291908290030181600087803b158015610d9857600080fd5b600d5460408051630a7b61df60e11b815290516000926001600160a01b0316916314f6c3be916004808301926020929190829003018186803b158015610a8457600080fd5b6003546000906001600160a01b0316611eac610a09565b6001600160a01b031614611ef15760405162461bcd60e51b81526004018080602001828103825260298152602001806136dd6029913960400191505060405180910390fd5b600d5460408051634de7363160e01b81526004810186905290516001600160a01b0390921691634de736319160248082019260009290919082900301818387803b158015611f3e57600080fd5b505af1158015611f52573d6000803e3d6000fd5b5050600b546040805163e9c8395760e01b81526004810188905290516001600160a01b03909216935063e9c83957925060248082019260009290919082900301818387803b158015611fa357600080fd5b505af1158015611fb7573d6000803e3d6000fd5b5050600b54600e54604080516364a197f360e01b81526001600160a01b0392831660048201526024810188905290519190921693506364a197f3925060448083019260209291908290030181600087803b158015610d9857600080fd5b6008546001600160a01b031681565b60035460009081906001600160a01b031661203c610a09565b6001600160a01b0316146120815760405162461bcd60e51b81526004018080602001828103825260298152602001806136dd6029913960400191505060405180910390fd5b600954604080517fb739777600000000000000000000000000000000000000000000000000000000815290516000926001600160a01b03169163b7397776916004808301926020929190829003018186803b1580156120df57600080fd5b505afa1580156120f3573d6000803e3d6000fd5b505050506040513d602081101561210957600080fd5b50519050600061211987866133b2565b9050600061213188610f0b898563ffffffff612e6216565b90506000612162601454612156670de0b6b3a764000086612e6290919063ffffffff16565b9063ffffffff612b8016565b90506000612193601354612187670de0b6b3a764000086612e6290919063ffffffff16565b9063ffffffff61335816565b905060006121ac6001612187858963ffffffff612ebb16565b905060006121c0838863ffffffff612ebb16565b90506121d684612156848a63ffffffff612e6216565b6014556121f96121ec828963ffffffff612e6216565b849063ffffffff612b8016565b60135560105461220f908363ffffffff61335816565b601081905560408051918252517f5c256972fe7489f98ce15d224bf8dab74d0e19cc6aa966608916a15f6f60d0f79181900360200190a1601154612259908263ffffffff61335816565b601181905560408051918252517f929e5fb9f1edf861ea5c93ad246b11b366de90467ba54a72bcb6f04e4d7195919181900360200190a1600b546040805163e9c8395760e01b81526004810189905290516001600160a01b039092169163e9c839579160248082019260009290919082900301818387803b1580156122dd57600080fd5b505af11580156122f1573d6000803e3d6000fd5b50506009546040805163e9c8395760e01b8152600481018b905290516001600160a01b03909216935063e9c83957925060248082019260009290919082900301818387803b15801561234257600080fd5b505af1158015612356573d6000803e3d6000fd5b5050600b54600a54604080516364a197f360e01b81526001600160a01b039283166004820152602481018b905290519190921693506364a197f3925060448083019260209291908290030181600087803b1580156123b357600080fd5b505af11580156123c7573d6000803e3d6000fd5b505050506040513d60208110156123dd57600080fd5b5050600754600a5460408051632770a7eb60e21b81526001600160a01b039283166004820152602481018a905290519190921691639dc29fac9160448083019260209291908290030181600087803b15801561243857600080fd5b505af115801561244c573d6000803e3d6000fd5b505050506040513d602081101561246257600080fd5b5061247590508c8763ffffffff612b8016565b98506124878b8663ffffffff612b8016565b975050505050505050935093915050565b6006546001600160a01b031681565b6124af611565565b612500576040805162461bcd60e51b815260206004820181905260248201527f4f776e61626c653a2063616c6c6572206973206e6f7420746865206f776e6572604482015290519081900360640190fd5b600380546001600160a01b0383166001600160a01b03199182168117909255600480549091168217905560408051918252517f0addbd30df51ac41ccaf56a058c50522fbdc092b4e2ec8b829b29ad6716bd0979181900360200190a150565b612567611565565b6125b8576040805162461bcd60e51b815260206004820181905260248201527f4f776e61626c653a2063616c6c6572206973206e6f7420746865206f776e6572604482015290519081900360640190fd5b6125c1816133c9565b50565b600f6020526000908152604090205481565b6002546000906001600160a01b03166125ed610a09565b6001600160a01b0316146126325760405162461bcd60e51b815260040180806020018281038252603a8152602001806135a1603a913960400191505060405180910390fd5b600b54604080516364a197f360e01b81526001600160a01b03868116600483015260248201869052915191909216916364a197f39160448083019260209291908290030181600087803b158015610d9857600080fd5b612690611565565b6126e1576040805162461bcd60e51b815260206004820181905260248201527f4f776e61626c653a2063616c6c6572206973206e6f7420746865206f776e6572604482015290519081900360640190fd5b600c80546001600160a01b038084166001600160a01b0319928316811793849055600b80549093169390911692909217905560408051918252517f78f058b189175430c48dc02699e3a0031ea4ff781536dc2fab847de4babdd8829181900360200190a150565b612750611565565b6127a1576040805162461bcd60e51b815260206004820181905260248201527f4f776e61626c653a2063616c6c6572206973206e6f7420746865206f776e6572604482015290519081900360640190fd5b600880546001600160a01b0383166001600160a01b03199182168117909255600780549091168217905560408051918252517f373a23842c9bfba0a655597bb13c6493895da5266bd6617086a73f8dcfe2ae709181900360200190a150565b6001600160a01b0381166000908152600f6020526040812054819061282484610e96565b9150600061283185613327565b9050818111156128445760009350612857565b612854828263ffffffff612b8016565b93505b6001600160a01b0385166000818152600f60208181526040808420848155601054601284529482902060018101959095556011549094559181529154815190815290517fbce78369dccab09eec1986f4d409ab09ffbb47d65423e5148fcf98411c5111c9929181900390910190a27f3ad3a0af1c72b834ff87f9409d7124fd7d9b306560756548477325e6e09f5055601054601154604051808381526020018281526020019250505060405180910390a1600754600a546009546040805163e1cf19c160e01b815290516001600160a01b03948516946320c582be948116938b93612999938c939092169163e1cf19c191600480820192602092909190829003018186803b15801561296857600080fd5b505afa15801561297c573d6000803e3d6000fd5b505050506040513d602081101561299257600080fd5b50516133b2565b6040518463ffffffff1660e01b815260040180846001600160a01b03166001600160a01b03168152602001836001600160a01b03166001600160a01b031681526020018281526020019350505050602060405180830381600087803b158015612a0157600080fd5b505af1158015612a15573d6000803e3d6000fd5b505050506040513d6020811015612a2b57600080fd5b50506009546040805163e9c8395760e01b81526004810187905290516001600160a01b039092169163e9c839579160248082019260009290919082900301818387803b158015612a7a57600080fd5b505af1158015612a8e573d6000803e3d6000fd5b505060095460408051631283abc560e21b81526004810187905290516001600160a01b039092169350634a0eaf14925060248082019260009290919082900301818387803b158015612adf57600080fd5b505af1158015612af3573d6000803e3d6000fd5b5050600954604080516364a197f360e01b81526001600160a01b038a811660048301526024820189905291519190921693506364a197f3925060448083019260209291908290030181600087803b158015612b4d57600080fd5b505af1158015612b61573d6000803e3d6000fd5b505050506040513d6020811015612b7757600080fd5b50505050915091565b6000612bc283836040518060400160405280601e81526020017f536166654d6174683a207375627472616374696f6e206f766572666c6f770000815250613469565b9392505050565b6001600160a01b0382166000908152600f602052604081205415612c1e5760405162461bcd60e51b81526004018080602001828103825260358152602001806136596035913960400191505060405180910390fd5b600754600a54604080517fbb997bac0000000000000000000000000000000000000000000000000000000081526001600160a01b0387811660048301529283166024820152604481018690529051919092169163bb997bac9160648083019260209291908290030181600087803b158015612c9857600080fd5b505af1158015612cac573d6000803e3d6000fd5b505050506040513d6020811015612cc257600080fd5b505060095460408051634de7363160e01b81526004810185905290516001600160a01b0390921691634de736319160248082019260009290919082900301818387803b158015612d1157600080fd5b505af1158015612d25573d6000803e3d6000fd5b5050600954604080517fde10fb780000000000000000000000000000000000000000000000000000000081526004810187905290516001600160a01b03909216935063de10fb78925060248082019260009290919082900301818387803b158015612d8f57600080fd5b505af1158015612da3573d6000803e3d6000fd5b5050506001600160a01b0384166000908152600f602090815260408083208690556010805460128452938290206001810194909455601154938490555481519081529182019290925281517f3ad3a0af1c72b834ff87f9409d7124fd7d9b306560756548477325e6e09f505593509081900390910190a16040805183815290516001600160a01b038516917fbce78369dccab09eec1986f4d409ab09ffbb47d65423e5148fcf98411c5111c9919081900360200190a250600192915050565b600082612e7157506000610dc9565b82820282848281612e7e57fe5b0414612bc25760405162461bcd60e51b81526004018080602001828103825260218152602001806136bc6021913960400191505060405180910390fd5b6000612bc283836040518060400160405280601a81526020017f536166654d6174683a206469766973696f6e206279207a65726f000000000000815250613500565b6001600160a01b0382166000908152600f6020526040812054819080612f545760405162461bcd60e51b815260040180806020018281038252602e81526020018061368e602e913960400191505060405180910390fd5b612f5d85610e96565b91506000612f6a86613327565b905081811115612f7d5760009350612f90565b612f8d828263ffffffff612b8016565b93505b6001600160a01b0386166000818152600f60208181526040808420848155601054601284529482902060018101959095556011549094559181529154815190815290517fbce78369dccab09eec1986f4d409ab09ffbb47d65423e5148fcf98411c5111c9929181900390910190a27f3ad3a0af1c72b834ff87f9409d7124fd7d9b306560756548477325e6e09f5055601054601154604051808381526020018281526020019250505060405180910390a1600754600a546009546040805163e1cf19c160e01b815290516001600160a01b03948516946320c582be948116938c936130a1938c939092169163e1cf19c191600480820192602092909190829003018186803b15801561296857600080fd5b6040518463ffffffff1660e01b815260040180846001600160a01b03166001600160a01b03168152602001836001600160a01b03166001600160a01b031681526020018281526020019350505050602060405180830381600087803b15801561310957600080fd5b505af115801561311d573d6000803e3d6000fd5b505050506040513d602081101561313357600080fd5b50506009546040805163e9c8395760e01b81526004810187905290516001600160a01b039092169163e9c839579160248082019260009290919082900301818387803b15801561318257600080fd5b505af1158015613196573d6000803e3d6000fd5b505060095460408051631283abc560e21b81526004810187905290516001600160a01b039092169350634a0eaf14925060248082019260009290919082900301818387803b1580156131e757600080fd5b505af11580156131fb573d6000803e3d6000fd5b5050600954604080516364a197f360e01b81523060048201526024810188905290516001600160a01b0390921693506364a197f392506044808201926020929091908290030181600087803b15801561325357600080fd5b505af1158015613267573d6000803e3d6000fd5b505050506040513d602081101561327d57600080fd5b5050600154604080517f68647db10000000000000000000000000000000000000000000000000000000081526001600160a01b0389811660048301528881166024830152915191909216916368647db191869160448082019260209290919082900301818588803b1580156132f157600080fd5b505af1158015613305573d6000803e3d6000fd5b50505050506040513d602081101561331c57600080fd5b505050509250929050565b6001600160a01b0381166000908152601260205260408120600101546010548290610ec4908363ffffffff612b8016565b600082820183811015612bc2576040805162461bcd60e51b815260206004820152601b60248201527f536166654d6174683a206164646974696f6e206f766572666c6f770000000000604482015290519081900360640190fd5b60008183116133c2575081610dc9565b5080610dc9565b6001600160a01b03811661340e5760405162461bcd60e51b81526004018080602001828103825260268152602001806135db6026913960400191505060405180910390fd5b600080546040516001600160a01b03808516939216917f8be0079c531659141344cd1fd0a4f28419497f9722a3daafe3b4186f6b6457e091a3600080546001600160a01b0319166001600160a01b0392909216919091179055565b600081848411156134f85760405162461bcd60e51b81526004018080602001828103825283818151815260200191508051906020019080838360005b838110156134bd5781810151838201526020016134a5565b50505050905090810190601f1680156134ea5780820380516001836020036101000a031916815260200191505b509250505060405180910390fd5b505050900390565b6000818361354f5760405162461bcd60e51b81526020600482018181528351602484015283519092839260449091019190850190808383600083156134bd5781810151838201526020016134a5565b50600083858161355b57fe5b049594505050505056fe506f6f6c4d616e616765723a2043616c6c6572206973206e6569746865722053746162696c697479506f6f6c206e6f7220416374697665506f6f6c506f6f6c4d616e616765723a2043616c6c6572206973206e6f742074686520426f72726f7765724f7065726174696f6e7320636f6e74726163744f776e61626c653a206e6577206f776e657220697320746865207a65726f2061646472657373506f6f6c4d616e616765723a207472616e73616374696f6e20746f20616374697665506f6f6c207265766572746564506f6f6c4d616e616765723a206465706f7369746f7220686173206e6f74206f766572737461796564506f6f6c4d616e616765723a207573657220616c72656164792068617320612053746162696c697479506f6f6c206465706f736974506f6f6c4d616e616765723a2055736572206d75737420686176652061206e6f6e2d7a65726f206465706f736974536166654d6174683a206d756c7469706c69636174696f6e206f766572666c6f77506f6f6c4d616e616765723a2043616c6c6572206973206e6f7420746865204344504d616e61676572506f6f6c4d616e616765723a2054617267657420434450206d757374206265205f6d736753656e64657228292c206f74686572776973652063616c6c6572206d757374206265204344504d616e61676572a265627a7a723158206580c81d50f1660abef5564ac7b144a2594200d7b7ef22484cb212f47e5fc37a64736f6c63430005100032",
  "source": "pragma solidity ^0.5.16;\r\n\r\nimport \"./Interfaces/IBorrowerOperations.sol\";\r\nimport './Interfaces/IPool.sol';\r\nimport './Interfaces/IPoolManager.sol';\r\nimport './Interfaces/ICDPManager.sol';\r\nimport './Interfaces/IStabilityPool.sol';\r\nimport './Interfaces/IPriceFeed.sol';\r\nimport './Interfaces/ICLVToken.sol';\r\nimport './DeciMath.sol';\r\n// import '@openzeppelin/contracts/math/SafeMath.sol';\r\n// import '@openzeppelin/contracts/ownership/Ownable.sol';\r\n// import '@nomiclabs/buidler/console.sol';\r\nimport \"./SafeMath.sol\";\r\nimport \"./Ownable.sol\";\r\nimport \"./console.sol\";\r\n\r\n// PoolManager maintains all pools \r\ncontract PoolManager is Ownable, IPoolManager {\r\n    using SafeMath for uint;\r\n\r\n    // --- Events ---\r\n\r\n    event BorrowerOperationsAddressChanged(address _newBorrowerOperationsAddress);\r\n    event CDPManagerAddressChanged(address _newCDPManagerAddress);\r\n    event PriceFeedAddressChanged(address _newPriceFeedAddress);\r\n    event CLVTokenAddressChanged(address _newCLVTokenAddress);\r\n    event StabilityPoolAddressChanged(address _newStabilityPoolAddress);\r\n    event ActivePoolAddressChanged(address _newActivePoolAddress);\r\n    event DefaultPoolAddressChanged(address _newDefaultPoolAddress);\r\n    \r\n    event UserSnapshotUpdated(uint _CLV, uint _ETH);\r\n    event S_CLVUpdated(uint _S_CLV);\r\n    event S_ETHUpdated(uint _S_ETH);\r\n    event UserDepositChanged(address indexed _user, uint _amount);\r\n    event OverstayPenaltyClaimed(address claimant, uint claimantReward, address depositor, uint remainder);\r\n\r\n    // --- Connected contract declarations ---\r\n\r\n    IBorrowerOperations borrowerOperations;\r\n    address public borrowerOperationsAddress;\r\n\r\n    address public cdpManagerAddress;\r\n    ICDPManager cdpManager = ICDPManager(cdpManagerAddress);\r\n\r\n    IPriceFeed priceFeed;\r\n    address public priceFeedAddress;\r\n\r\n    ICLVToken CLV;\r\n    address public clvAddress;\r\n\r\n    IStabilityPool public stabilityPool;\r\n    address public stabilityPoolAddress;\r\n\r\n    IPool public activePool;\r\n    address public activePoolAddress;\r\n\r\n    IPool public defaultPool;\r\n    address public defaultPoolAddress;\r\n   \r\n   // --- Data structures ---\r\n   \r\n    mapping (address => uint) public deposit;\r\n\r\n    struct Snapshot {\r\n        uint ETH;\r\n        uint CLV;\r\n    }\r\n    \r\n    /* Track the sums of accumulated rewards per unit staked: S_CLV and S_ETH. During it's lifetime, each deposit earns:\r\n\r\n    A CLV *loss* of ( deposit * [S_CLV - S_CLV(0)] )\r\n    An ETH *gain* of ( deposit * [S_ETH - S_ETH(0)] )\r\n    \r\n    Where S_CLV(0) and S_ETH(0) are snapshots of S_CLV and S_ETH taken at the instant the deposit was made */\r\n    uint public S_CLV;\r\n    uint public S_ETH;\r\n\r\n    // Map users to their individual snapshots of S_CLV and the S_ETH\r\n    mapping (address => Snapshot) public snapshot;\r\n\r\n    // Error trackers for the offset calculation\r\n    uint lastETHError_Offset;\r\n    uint lastCLVLossError_Offset;\r\n\r\n    // --- Modifiers ---\r\n\r\n    modifier onlyCDPManager() {\r\n        require(_msgSender() == cdpManagerAddress, \"PoolManager: Caller is not the CDPManager\");\r\n        _;\r\n    }\r\n\r\n     modifier onlyBorrowerOperations() {\r\n        require(_msgSender() == borrowerOperationsAddress, \"PoolManager: Caller is not the BorrowerOperations contract\");\r\n        _;\r\n    }\r\n\r\n    modifier onlyCDPManagerOrUserIsSender(address _user) {\r\n        require(_msgSender()  == cdpManagerAddress || _user == _msgSender(),\r\n        \"PoolManager: Target CDP must be _msgSender(), otherwise caller must be CDPManager\");\r\n        _;\r\n    }\r\n    modifier onlyStabilityPoolorActivePool {\r\n        require(\r\n            _msgSender() == stabilityPoolAddress ||  _msgSender() ==  activePoolAddress, \r\n            \"PoolManager: Caller is neither StabilityPool nor ActivePool\");\r\n        _;\r\n    }\r\n\r\n    constructor() public {}\r\n\r\n    // --- Dependency setters ---\r\n\r\n    function setBorrowerOperations(address _borrowerOperationsAddress) public onlyOwner {\r\n        borrowerOperationsAddress = _borrowerOperationsAddress;\r\n        borrowerOperations = IBorrowerOperations(_borrowerOperationsAddress);\r\n        emit BorrowerOperationsAddressChanged(_borrowerOperationsAddress);\r\n    }\r\n\r\n    function setCDPManagerAddress(address _cdpManagerAddress) public onlyOwner {\r\n        cdpManagerAddress = _cdpManagerAddress;\r\n        cdpManager = ICDPManager(_cdpManagerAddress);\r\n        emit CDPManagerAddressChanged(_cdpManagerAddress);\r\n    }\r\n\r\n     function setPriceFeed(address _priceFeedAddress) public onlyOwner {\r\n        priceFeedAddress = _priceFeedAddress;\r\n        priceFeed = IPriceFeed(_priceFeedAddress);\r\n        emit PriceFeedAddressChanged(_priceFeedAddress);\r\n    }\r\n\r\n    function setCLVToken(address _CLVAddress) public onlyOwner {\r\n        clvAddress = _CLVAddress;\r\n        CLV = ICLVToken(_CLVAddress);\r\n        emit CLVTokenAddressChanged(_CLVAddress);\r\n    }\r\n\r\n    function setStabilityPool(address _stabilityPoolAddress) public onlyOwner {\r\n        stabilityPoolAddress = _stabilityPoolAddress;\r\n        stabilityPool = IStabilityPool(stabilityPoolAddress);\r\n        emit StabilityPoolAddressChanged(_stabilityPoolAddress);\r\n    }\r\n\r\n    function setActivePool(address _activePoolAddress) public onlyOwner {\r\n        activePoolAddress = _activePoolAddress;\r\n        activePool = IPool(activePoolAddress);\r\n        emit ActivePoolAddressChanged(_activePoolAddress);\r\n    }\r\n\r\n    function setDefaultPool(address _defaultPoolAddress) public onlyOwner {\r\n        defaultPoolAddress = _defaultPoolAddress;\r\n        defaultPool = IPool(defaultPoolAddress);\r\n        emit DefaultPoolAddressChanged(_defaultPoolAddress);\r\n    }\r\n\r\n    // --- Getters ---\r\n\r\n    // Return the current ETH balance of the PoolManager contract\r\n    function getBalance() public view returns(uint) {\r\n        return address(this).balance;\r\n    } \r\n    \r\n    // Return the total collateral ratio (TCR) of the system, based on the most recent ETH:USD price\r\n    function getTCR() view public returns (uint) {\r\n        uint price = priceFeed.getPrice();\r\n\r\n        uint activeColl = activePool.getETH();\r\n        uint activeDebt = activePool.getCLV();\r\n        uint liquidatedColl = defaultPool.getETH();\r\n        uint closedDebt = defaultPool.getCLV();\r\n\r\n        uint totalCollateral = activeColl.add(liquidatedColl);\r\n        uint totalDebt = activeDebt.add(closedDebt); \r\n\r\n        // Handle edge cases of div-by-0\r\n        if(totalCollateral == 0 && totalDebt == 0 ) {\r\n            return 1;\r\n        }  else if (totalCollateral != 0 && totalDebt == 0 ) {\r\n            return 2**256 - 1; // TCR is technically infinite\r\n        }\r\n\r\n        // Calculate TCR\r\n        uint TCR = totalCollateral.mul(price).div(totalDebt);\r\n        return TCR;\r\n    }\r\n\r\n    // Return the total active debt (in CLV) in the system\r\n    function getActiveDebt() public view returns (uint) {\r\n        return activePool.getCLV();\r\n    }    \r\n    \r\n    // Return the total active collateral (in ETH) in the system\r\n    function getActiveColl() public view returns (uint) {\r\n        return activePool.getETH();\r\n    } \r\n    \r\n    // Return the amount of closed debt (in CLV)\r\n    function getClosedDebt() public view returns (uint) {\r\n        return defaultPool.getCLV();\r\n    }    \r\n    \r\n    // Return the amount of closed collateral (in ETH)\r\n    function getLiquidatedColl() public view returns (uint) {\r\n        return defaultPool.getETH();\r\n    }\r\n    \r\n    // Return the total CLV in the Stability Pool\r\n    function getStabilityPoolCLV() public view returns (uint) {\r\n        return stabilityPool.getCLV();\r\n    }\r\n    \r\n    // Add the received ETH to the total active collateral\r\n    function addColl() public payable onlyBorrowerOperations returns (bool) {\r\n        // Send ETH to Active Pool and increase its recorded ETH balance\r\n       (bool success, ) = activePoolAddress.call.value(msg.value)(\"\");\r\n       require (success == true, 'PoolManager: transaction to activePool reverted');\r\n       return success;\r\n    }\r\n    \r\n    // Transfer the specified amount of ETH to _account and updates the total active collateral\r\n    function withdrawColl(address _account, uint _ETH) public onlyBorrowerOperations returns (bool) {\r\n        activePool.sendETH(_account, _ETH);\r\n        return true;\r\n    }\r\n    \r\n    // Issue the specified amount of CLV to _account and increases the total active debt\r\n    function withdrawCLV(address _account, uint _CLV) public onlyBorrowerOperations returns (bool) {\r\n        activePool.increaseCLV(_CLV);  // 9500\r\n        CLV.mint(_account, _CLV);  // 37500\r\n         \r\n        return true;\r\n    }\r\n    \r\n    // Burn the specified amount of CLV from _account and decreases the total active debt\r\n    function repayCLV(address _account, uint _CLV) public onlyBorrowerOperations returns (bool) {\r\n        activePool.decreaseCLV(_CLV);\r\n        CLV.burn(_account, _CLV);\r\n        return true;\r\n    }           \r\n    \r\n    // Update the Active Pool and the Default Pool when a CDP gets closed\r\n    function liquidate(uint _CLV, uint _ETH) public onlyCDPManager returns (bool) {\r\n        // Transfer the debt & coll from the Active Pool to the Default Pool\r\n        defaultPool.increaseCLV(_CLV);\r\n        activePool.decreaseCLV(_CLV);\r\n        activePool.sendETH(defaultPoolAddress, _ETH);\r\n\r\n        return true;\r\n    }\r\n\r\n    // Move a CDP's pending debt and collateral rewards from distributions, from the Default Pool to the Active Pool\r\n    function moveDistributionRewardsToActivePool(uint _CLV, uint _ETH) public onlyCDPManager returns (bool) {\r\n        // Transfer the debt & coll from the Default Pool to the Active Pool\r\n        defaultPool.decreaseCLV(_CLV);  \r\n        activePool.increaseCLV(_CLV); \r\n        defaultPool.sendETH(activePoolAddress, _ETH); \r\n \r\n        return true;\r\n    }\r\n\r\n    // Burn the received CLV, transfers the redeemed ETH to _account and updates the Active Pool\r\n    function redeemCollateral(address _account, uint _CLV, uint _ETH) public onlyCDPManager returns (bool) {\r\n        // Update Active Pool CLV, and send ETH to account\r\n        activePool.decreaseCLV(_CLV);  \r\n        activePool.sendETH(_account, _ETH); \r\n\r\n        CLV.burn(_account, _CLV); \r\n        return true;\r\n    }\r\n\r\n    // Return the accumulated change, for the user, for the duration that this deposit was held\r\n    function getCurrentETHGain(address _user) public view returns(uint) {\r\n        uint snapshotETH = snapshot[_user].ETH;  \r\n        uint ETHGainPerUnitStaked = S_ETH.sub(snapshotETH); \r\n\r\n        if (ETHGainPerUnitStaked == 0) { return 0; }\r\n      \r\n        uint userDeposit = deposit[_user];\r\n\r\n        return userDeposit.mul(ETHGainPerUnitStaked).div(1e18);\r\n    }\r\n\r\n    function getCurrentCLVLoss(address _user) internal view returns(uint) {\r\n        uint snapshotCLV = snapshot[_user].CLV; \r\n        uint CLVLossPerUnitStaked = S_CLV.sub(snapshotCLV); \r\n\r\n        if (CLVLossPerUnitStaked == 0) { return 0; }\r\n    \r\n        uint userDeposit = deposit[_user];\r\n\r\n        return userDeposit.mul(CLVLossPerUnitStaked).div(1e18);\r\n    }\r\n\r\n    // --- Internal StabilityPool functions --- \r\n\r\n    // Deposit _amount CLV from _address, to the Stability Pool.\r\n    function depositCLV(address _address, uint _amount) internal returns(bool) {\r\n        require(deposit[_address] == 0, \"PoolManager: user already has a StabilityPool deposit\");\r\n    \r\n        // Transfer the CLV tokens from the user to the Stability Pool's address, and update its recorded CLV\r\n        CLV.sendToPool(_address, stabilityPoolAddress, _amount);\r\n        stabilityPool.increaseCLV(_amount);\r\n        stabilityPool.increaseTotalCLVDeposits(_amount);\r\n        \r\n        // Record the deposit made by user\r\n        deposit[_address] = _amount;\r\n    \r\n        // Record new individual snapshots of the running totals S_CLV and S_ETH for the user\r\n        snapshot[_address].CLV = S_CLV;\r\n        snapshot[_address].ETH = S_ETH;\r\n\r\n        emit UserSnapshotUpdated(S_CLV, S_ETH);\r\n        emit UserDepositChanged(_address, _amount);\r\n        return true;\r\n    }\r\n\r\n   // Transfers _address's entitled CLV (CLVDeposit - CLVLoss) and their ETHGain, to _address.\r\n    function retrieveToUser(address _address) internal returns(uint CLVShare, uint ETHShare) {\r\n        uint userDeposit = deposit[_address];\r\n\r\n        ETHShare = getCurrentETHGain(_address);\r\n        uint CLVLoss = getCurrentCLVLoss(_address);\r\n\r\n        // If user's deposit is an 'overstay', they retrieve 0 CLV\r\n        if (CLVLoss > userDeposit) {\r\n            CLVShare = 0;\r\n        } else {\r\n            CLVShare = userDeposit.sub(CLVLoss);\r\n        }\r\n\r\n        // Update deposit and snapshots\r\n        deposit[_address] = 0;\r\n\r\n        snapshot[_address].CLV = S_CLV;\r\n        snapshot[_address].ETH = S_ETH;\r\n\r\n        emit UserDepositChanged(_address, deposit[_address]);\r\n        emit UserSnapshotUpdated(S_CLV, S_ETH);\r\n\r\n        // Send CLV to user and decrease CLV in Pool\r\n        CLV.returnFromPool(stabilityPoolAddress, _address, DeciMath.getMin(CLVShare, stabilityPool.getCLV()));\r\n        stabilityPool.decreaseCLV(CLVShare);\r\n        stabilityPool.decreaseTotalCLVDeposits(userDeposit);\r\n    \r\n        // Send ETH to user\r\n        stabilityPool.sendETH(_address, ETHShare);\r\n\r\n        return (CLVShare, ETHShare);\r\n    }\r\n\r\n    // Transfer _address's entitled CLV (userDeposit - CLVLoss) to _address, and their ETHGain to their CDP.\r\n    function retrieveToCDP(address _address, address _hint) internal returns(uint CLVShare, uint ETHShare) {\r\n        uint userDeposit = deposit[_address];  \r\n        require(userDeposit > 0, 'PoolManager: User must have a non-zero deposit');  \r\n        \r\n        ETHShare = getCurrentETHGain(_address); \r\n        uint CLVLoss = getCurrentCLVLoss(_address); \r\n      \r\n        // If user's deposit is an 'overstay', they retrieve 0 CLV\r\n        if (CLVLoss > userDeposit) {\r\n            CLVShare = 0;\r\n        } else {\r\n            CLVShare = userDeposit.sub(CLVLoss);\r\n        }\r\n\r\n        // Update deposit and snapshots\r\n        deposit[_address] = 0; \r\n        snapshot[_address].CLV = S_CLV; \r\n        snapshot[_address].ETH = S_ETH; \r\n        emit UserDepositChanged(_address, deposit[_address]); \r\n        emit UserSnapshotUpdated(S_CLV, S_ETH); \r\n      \r\n        // Send CLV to user and decrease CLV in StabilityPool\r\n        CLV.returnFromPool(stabilityPoolAddress, _address, DeciMath.getMin(CLVShare, stabilityPool.getCLV())); // 45000 gas\r\n        \r\n        stabilityPool.decreaseCLV(CLVShare);\r\n        stabilityPool.decreaseTotalCLVDeposits(userDeposit); \r\n       \r\n        // Pull ETHShare from StabilityPool, and send to CDP\r\n        stabilityPool.sendETH(address(this), ETHShare); \r\n        borrowerOperations.addColl.value(ETHShare)(_address, _hint); \r\n   \r\n        return (CLVShare, ETHShare); \r\n    }\r\n\r\n    // --- External StabilityPool Functions ---\r\n\r\n    /* Send ETHGain to user's address, and updates their deposit, \r\n    setting newDeposit = (oldDeposit - CLVLoss) + amount. */\r\n    function provideToSP(uint _amount) external returns(bool) {\r\n        address user = _msgSender();\r\n         \r\n        (uint returnedCLV, ) = retrieveToUser(user);\r\n\r\n        uint newDeposit = returnedCLV + _amount;\r\n        depositCLV(msg.sender, newDeposit);\r\n\r\n        return true;\r\n    }\r\n\r\n    /* Withdraw _amount of CLV and the callers entire ETHGain from the \r\n    Stability Pool, and updates the callers reduced deposit. \r\n\r\n    If  _amount is 0, the user only withdraws their ETHGain, no CLV.\r\n    If _amount > (userDeposit - CLVLoss), the user withdraws all their ETHGain and all available CLV.\r\n\r\n    In all cases, the entire ETHGain is sent to user, and the CLVLoss is applied to their deposit. */\r\n    function withdrawFromSP(uint _amount) external returns(bool) {\r\n        address user = _msgSender();\r\n        uint userDeposit = deposit[user];\r\n        require(userDeposit > 0, 'PoolManager: User must have a non-zero deposit');\r\n\r\n        // Retrieve all CLV and ETH for the user\r\n        (uint returnedCLV, ) = retrieveToUser(user);\r\n\r\n        // If requested withdrawal amount is less than available CLV, re-deposit the difference.\r\n        if (_amount < returnedCLV) {\r\n            depositCLV(user, returnedCLV.sub(_amount));\r\n        }\r\n\r\n        return true;\r\n    }\r\n\r\n    /* Transfer the callers entire ETHGain from the Stability Pool to the callers CDP. \r\n    Applies their CLVLoss to the deposit. */\r\n    function withdrawFromSPtoCDP(address _user, address _hint) external onlyCDPManagerOrUserIsSender(_user) returns(bool) {\r\n        uint userDeposit = deposit[_user]; \r\n       \r\n        if (userDeposit == 0) { return false; } \r\n        \r\n        // Retrieve all CLV to user's CLV balance, and ETH to their CDP\r\n        (uint returnedCLV, ) = retrieveToCDP(_user, _hint); \r\n        \r\n        // Update deposit, applying CLVLoss\r\n        depositCLV(_user, returnedCLV); \r\n        return true;\r\n    }\r\n\r\n    /* Withdraw a 'penalty' fraction of an overstayed depositor's ETHGain.  \r\n    \r\n    Callable by anyone when _depositor's CLVLoss > deposit. */\r\n    function withdrawPenaltyFromSP(address _address) external returns(bool) {\r\n        address claimant = _msgSender();\r\n        address depositor = _address;\r\n        \r\n        uint CLVLoss = getCurrentCLVLoss(depositor);\r\n        uint depositAmount = deposit[depositor];\r\n        require(CLVLoss > depositAmount, \"PoolManager: depositor has not overstayed\");\r\n\r\n        uint ETHGain = getCurrentETHGain(depositor);\r\n\r\n        /* Depositor is penalised for overstaying - i.e. letting CLVLoss grow larger than their deposit.\r\n       \r\n        Depositor's ETH entitlement is reduced to ETHGain * (deposit/CLVLoss).\r\n        The claimant retrieves ETHGain * (1 - deposit/CLVLoss). */\r\n       \r\n        uint depositorRemainder = ETHGain.mul(depositAmount).div(CLVLoss);\r\n        uint claimantReward = ETHGain.sub(depositorRemainder);\r\n        \r\n        // Update deposit and snapshots\r\n        deposit[depositor] = 0;\r\n        snapshot[depositor].CLV = S_CLV;\r\n        snapshot[depositor].ETH = S_ETH;\r\n\r\n        emit UserDepositChanged(depositor, deposit[depositor]);\r\n        emit UserSnapshotUpdated(S_CLV, S_ETH);\r\n\r\n        // Send reward to claimant, and remainder to depositor\r\n        stabilityPool.sendETH(claimant, claimantReward);\r\n        stabilityPool.sendETH(depositor, depositorRemainder);\r\n        emit OverstayPenaltyClaimed(claimant, claimantReward, depositor, depositorRemainder);\r\n\r\n        return true;\r\n    }\r\n\r\n     /* Cancel out the specified _debt against the CLV contained in the Stability Pool (as far as possible)  \r\n    and transfers the CDP's ETH collateral from ActivePool to StabilityPool. \r\n    Returns the amount of debt that could not be cancelled, and the corresponding ether.\r\n    Only callable from close() and closeCDPs() functions in CDPManager */\r\n  function offset(uint _debt, uint _coll,  uint CLVInPool) \r\n    external \r\n    payable \r\n    onlyCDPManager \r\n    returns (uint debtRemainder, uint collRemainder)  {    \r\n        uint totalCLVDeposits = stabilityPool.getTotalCLVDeposits(); \r\n        \r\n        // If the debt is larger than the deposited CLV, offset an amount of debt corresponding to the latter\r\n        uint debtToOffset = DeciMath.getMin(_debt, CLVInPool);  \r\n  \r\n        // Collateral to be added in proportion to the debt that is cancelled \r\n        uint collToAdd = _coll.mul(debtToOffset).div(_debt);\r\n        \r\n        /* \r\n        Update the running total S_CLV by adding the ratio between the distributed debt and the CLV in the pool.\r\n        Update the running total S_ETH by adding the ratio between the distributed collateral and the ETH in the pool */\r\n\r\n        // Division with corrections\r\n        uint CLVLossNumerator = debtToOffset.mul(1e18).sub(lastCLVLossError_Offset);\r\n        uint ETHNumerator = collToAdd.mul(1e18).add(lastETHError_Offset);\r\n       \r\n        uint CLVLossPerUnitStaked = (CLVLossNumerator.div(totalCLVDeposits)).add(1);  // Add 1 to make the error in the quotient positive\r\n        uint ETHGainPerUnitStaked = ETHNumerator.div(totalCLVDeposits); // Error in quotient is negative\r\n\r\n        lastCLVLossError_Offset = (CLVLossPerUnitStaked.mul(totalCLVDeposits)).sub(CLVLossNumerator);\r\n        lastETHError_Offset = ETHNumerator.sub(ETHGainPerUnitStaked.mul(totalCLVDeposits));  \r\n\r\n        S_CLV = S_CLV.add(CLVLossPerUnitStaked); \r\n        emit S_CLVUpdated(S_CLV); \r\n\r\n        S_ETH = S_ETH.add(ETHGainPerUnitStaked);\r\n        emit S_ETHUpdated(S_ETH); \r\n      \r\n        // Cancel the liquidated CLV debt with the CLV in the stability pool\r\n        activePool.decreaseCLV(debtToOffset);  \r\n        stabilityPool.decreaseCLV(debtToOffset); \r\n       \r\n        // Send ETH from Active Pool to Stability Pool\r\n        activePool.sendETH(stabilityPoolAddress, collToAdd);  \r\n\r\n        // Burn the debt that was successfully offset\r\n        CLV.burn(stabilityPoolAddress, debtToOffset); \r\n\r\n        // Return the amount of debt & coll that could not be offset against the Stability Pool due to insufficiency\r\n        debtRemainder = _debt.sub(debtToOffset);\r\n        collRemainder = _coll.sub(collToAdd);\r\n\r\n        return (debtRemainder, collRemainder);\r\n    }\r\n\r\n    function () external payable onlyStabilityPoolorActivePool {}\r\n}    ",
  "sourcePath": "/home/training/contracts/PoolManager.sol",
  "compiler": {
    "name": "solc",
    "version": "0.5.16+commit.9c3226ce.Emscripten.clang"
  },
  "schemaVersion": "3.1.0",
  "updatedAt": "2020-06-03T00:09:10.582Z",
  "devdoc": {
    "methods": {
      "isOwner()": {
        "details": "Returns true if the caller is the current owner."
      },
      "owner()": {
        "details": "Returns the address of the current owner."
      },
      "renounceOwnership()": {
        "details": "Leaves the contract without owner. It will not be possible to call `onlyOwner` functions anymore. Can only be called by the current owner.     * NOTE: Renouncing ownership will leave the contract without an owner, thereby removing any functionality that is only available to the owner."
      },
      "transferOwnership(address)": {
        "details": "Transfers ownership of the contract to a new account (`newOwner`). Can only be called by the current owner."
      }
    }
  },
  "userdoc": {
    "methods": {}
  }
}