{
  "contractName": "PoolManager",
  "abi": [
    {
      "constant": true,
      "inputs": [],
      "name": "cdpManagerAddress",
      "outputs": [
        {
          "internalType": "address",
          "name": "",
          "type": "address"
        }
      ],
      "payable": false,
      "stateMutability": "view",
      "type": "function"
    },
    {
      "constant": true,
      "inputs": [],
      "name": "stabilityPool",
      "outputs": [
        {
          "internalType": "contract IStabilityPool",
          "name": "",
          "type": "address"
        }
      ],
      "payable": false,
      "stateMutability": "view",
      "type": "function"
    },
    {
      "constant": true,
      "inputs": [],
      "name": "stabilityPoolAddress",
      "outputs": [
        {
          "internalType": "address",
          "name": "",
          "type": "address"
        }
      ],
      "payable": false,
      "stateMutability": "view",
      "type": "function"
    },
    {
      "constant": true,
      "inputs": [
        {
          "internalType": "uint256",
          "name": "",
          "type": "uint256"
        }
      ],
      "name": "scaleToSum",
      "outputs": [
        {
          "internalType": "uint256",
          "name": "",
          "type": "uint256"
        }
      ],
      "payable": false,
      "stateMutability": "view",
      "type": "function"
    },
    {
      "constant": true,
      "inputs": [
        {
          "internalType": "address",
          "name": "",
          "type": "address"
        }
      ],
      "name": "snapshot",
      "outputs": [
        {
          "internalType": "uint256",
          "name": "ETH",
          "type": "uint256"
        },
        {
          "internalType": "uint256",
          "name": "CLV",
          "type": "uint256"
        },
        {
          "internalType": "uint256",
          "name": "scale",
          "type": "uint256"
        }
      ],
      "payable": false,
      "stateMutability": "view",
      "type": "function"
    },
    {
      "constant": true,
      "inputs": [],
      "name": "defaultPool",
      "outputs": [
        {
          "internalType": "contract IPool",
          "name": "",
          "type": "address"
        }
      ],
      "payable": false,
      "stateMutability": "view",
      "type": "function"
    },
    {
      "constant": false,
      "inputs": [],
      "name": "renounceOwnership",
      "outputs": [],
      "payable": false,
      "stateMutability": "nonpayable",
      "type": "function"
    },
    {
      "constant": true,
      "inputs": [],
      "name": "activePool",
      "outputs": [
        {
          "internalType": "contract IPool",
          "name": "",
          "type": "address"
        }
      ],
      "payable": false,
      "stateMutability": "view",
      "type": "function"
    },
    {
      "constant": true,
      "inputs": [],
      "name": "owner",
      "outputs": [
        {
          "internalType": "address",
          "name": "",
          "type": "address"
        }
      ],
      "payable": false,
      "stateMutability": "view",
      "type": "function"
    },
    {
      "constant": true,
      "inputs": [],
      "name": "isOwner",
      "outputs": [
        {
          "internalType": "bool",
          "name": "",
          "type": "bool"
        }
      ],
      "payable": false,
      "stateMutability": "view",
      "type": "function"
    },
    {
      "constant": true,
      "inputs": [],
      "name": "P_CLV",
      "outputs": [
        {
          "internalType": "uint256",
          "name": "",
          "type": "uint256"
        }
      ],
      "payable": false,
      "stateMutability": "view",
      "type": "function"
    },
    {
      "constant": true,
      "inputs": [],
      "name": "defaultPoolAddress",
      "outputs": [
        {
          "internalType": "address",
          "name": "",
          "type": "address"
        }
      ],
      "payable": false,
      "stateMutability": "view",
      "type": "function"
    },
    {
      "constant": true,
      "inputs": [],
      "name": "activePoolAddress",
      "outputs": [
        {
          "internalType": "address",
          "name": "",
          "type": "address"
        }
      ],
      "payable": false,
      "stateMutability": "view",
      "type": "function"
    },
    {
      "constant": true,
      "inputs": [],
      "name": "clvAddress",
      "outputs": [
        {
          "internalType": "address",
          "name": "",
          "type": "address"
        }
      ],
      "payable": false,
      "stateMutability": "view",
      "type": "function"
    },
    {
      "constant": true,
      "inputs": [],
      "name": "priceFeedAddress",
      "outputs": [
        {
          "internalType": "address",
          "name": "",
          "type": "address"
        }
      ],
      "payable": false,
      "stateMutability": "view",
      "type": "function"
    },
    {
      "constant": false,
      "inputs": [
        {
          "internalType": "address",
          "name": "newOwner",
          "type": "address"
        }
      ],
      "name": "transferOwnership",
      "outputs": [],
      "payable": false,
      "stateMutability": "nonpayable",
      "type": "function"
    },
    {
      "constant": true,
      "inputs": [],
      "name": "scale",
      "outputs": [
        {
          "internalType": "uint256",
          "name": "",
          "type": "uint256"
        }
      ],
      "payable": false,
      "stateMutability": "view",
      "type": "function"
    },
    {
      "constant": true,
      "inputs": [
        {
          "internalType": "address",
          "name": "",
          "type": "address"
        }
      ],
      "name": "deposits",
      "outputs": [
        {
          "internalType": "uint256",
          "name": "",
          "type": "uint256"
        }
      ],
      "payable": false,
      "stateMutability": "view",
      "type": "function"
    },
    {
      "inputs": [],
      "payable": false,
      "stateMutability": "nonpayable",
      "type": "constructor"
    },
    {
      "payable": true,
      "stateMutability": "payable",
      "type": "fallback"
    },
    {
      "anonymous": false,
      "inputs": [
        {
          "indexed": false,
          "internalType": "address",
          "name": "_newCDPManagerAddress",
          "type": "address"
        }
      ],
      "name": "CDPManagerAddressChanged",
      "type": "event"
    },
    {
      "anonymous": false,
      "inputs": [
        {
          "indexed": false,
          "internalType": "address",
          "name": "_newPriceFeedAddress",
          "type": "address"
        }
      ],
      "name": "PriceFeedAddressChanged",
      "type": "event"
    },
    {
      "anonymous": false,
      "inputs": [
        {
          "indexed": false,
          "internalType": "address",
          "name": "_newCLVTokenAddress",
          "type": "address"
        }
      ],
      "name": "CLVTokenAddressChanged",
      "type": "event"
    },
    {
      "anonymous": false,
      "inputs": [
        {
          "indexed": false,
          "internalType": "address",
          "name": "_newStabilityPoolAddress",
          "type": "address"
        }
      ],
      "name": "StabilityPoolAddressChanged",
      "type": "event"
    },
    {
      "anonymous": false,
      "inputs": [
        {
          "indexed": false,
          "internalType": "address",
          "name": "_newActivePoolAddress",
          "type": "address"
        }
      ],
      "name": "ActivePoolAddressChanged",
      "type": "event"
    },
    {
      "anonymous": false,
      "inputs": [
        {
          "indexed": false,
          "internalType": "address",
          "name": "_newDefaultPoolAddress",
          "type": "address"
        }
      ],
      "name": "DefaultPoolAddressChanged",
      "type": "event"
    },
    {
      "anonymous": false,
      "inputs": [
        {
          "indexed": false,
          "internalType": "uint256",
          "name": "_CLV",
          "type": "uint256"
        },
        {
          "indexed": false,
          "internalType": "uint256",
          "name": "_ETH",
          "type": "uint256"
        }
      ],
      "name": "UserSnapshotUpdated",
      "type": "event"
    },
    {
      "anonymous": false,
      "inputs": [
        {
          "indexed": false,
          "internalType": "uint256",
          "name": "_P_CLV",
          "type": "uint256"
        }
      ],
      "name": "P_CLVUpdated",
      "type": "event"
    },
    {
      "anonymous": false,
      "inputs": [
        {
          "indexed": false,
          "internalType": "uint256",
          "name": "_S_ETH",
          "type": "uint256"
        }
      ],
      "name": "S_ETHUpdated",
      "type": "event"
    },
    {
      "anonymous": false,
      "inputs": [
        {
          "indexed": true,
          "internalType": "address",
          "name": "_user",
          "type": "address"
        },
        {
          "indexed": false,
          "internalType": "uint256",
          "name": "_amount",
          "type": "uint256"
        }
      ],
      "name": "UserDepositChanged",
      "type": "event"
    },
    {
      "anonymous": false,
      "inputs": [
        {
          "indexed": true,
          "internalType": "address",
          "name": "_user",
          "type": "address"
        },
        {
          "indexed": false,
          "internalType": "uint256",
          "name": "_ETH",
          "type": "uint256"
        }
      ],
      "name": "ETHGainWithdrawn",
      "type": "event"
    },
    {
      "anonymous": false,
      "inputs": [
        {
          "indexed": true,
          "internalType": "address",
          "name": "_CDPOwner",
          "type": "address"
        },
        {
          "indexed": false,
          "internalType": "uint256",
          "name": "_ETH",
          "type": "uint256"
        }
      ],
      "name": "ETHGainWithdrawnToCDP",
      "type": "event"
    },
    {
      "anonymous": false,
      "inputs": [
        {
          "indexed": false,
          "internalType": "uint256",
          "name": "_P_CLV",
          "type": "uint256"
        }
      ],
      "name": "S_CLVUpdated",
      "type": "event"
    },
    {
      "anonymous": false,
      "inputs": [
        {
          "indexed": false,
          "internalType": "address",
          "name": "claimant",
          "type": "address"
        },
        {
          "indexed": false,
          "internalType": "uint256",
          "name": "claimantReward",
          "type": "uint256"
        },
        {
          "indexed": false,
          "internalType": "address",
          "name": "depositor",
          "type": "address"
        },
        {
          "indexed": false,
          "internalType": "uint256",
          "name": "remainder",
          "type": "uint256"
        }
      ],
      "name": "OverstayPenaltyClaimed",
      "type": "event"
    },
    {
      "anonymous": false,
      "inputs": [
        {
          "indexed": true,
          "internalType": "address",
          "name": "previousOwner",
          "type": "address"
        },
        {
          "indexed": true,
          "internalType": "address",
          "name": "newOwner",
          "type": "address"
        }
      ],
      "name": "OwnershipTransferred",
      "type": "event"
    },
    {
      "constant": false,
      "inputs": [
        {
          "internalType": "address",
          "name": "_cdpManagerAddress",
          "type": "address"
        }
      ],
      "name": "setCDPManagerAddress",
      "outputs": [],
      "payable": false,
      "stateMutability": "nonpayable",
      "type": "function"
    },
    {
      "constant": false,
      "inputs": [
        {
          "internalType": "address",
          "name": "_priceFeedAddress",
          "type": "address"
        }
      ],
      "name": "setPriceFeed",
      "outputs": [],
      "payable": false,
      "stateMutability": "nonpayable",
      "type": "function"
    },
    {
      "constant": false,
      "inputs": [
        {
          "internalType": "address",
          "name": "_CLVAddress",
          "type": "address"
        }
      ],
      "name": "setCLVToken",
      "outputs": [],
      "payable": false,
      "stateMutability": "nonpayable",
      "type": "function"
    },
    {
      "constant": false,
      "inputs": [
        {
          "internalType": "address",
          "name": "_stabilityPoolAddress",
          "type": "address"
        }
      ],
      "name": "setStabilityPool",
      "outputs": [],
      "payable": false,
      "stateMutability": "nonpayable",
      "type": "function"
    },
    {
      "constant": false,
      "inputs": [
        {
          "internalType": "address",
          "name": "_activePoolAddress",
          "type": "address"
        }
      ],
      "name": "setActivePool",
      "outputs": [],
      "payable": false,
      "stateMutability": "nonpayable",
      "type": "function"
    },
    {
      "constant": false,
      "inputs": [
        {
          "internalType": "address",
          "name": "_defaultPoolAddress",
          "type": "address"
        }
      ],
      "name": "setDefaultPool",
      "outputs": [],
      "payable": false,
      "stateMutability": "nonpayable",
      "type": "function"
    },
    {
      "constant": true,
      "inputs": [],
      "name": "getBalance",
      "outputs": [
        {
          "internalType": "uint256",
          "name": "",
          "type": "uint256"
        }
      ],
      "payable": false,
      "stateMutability": "view",
      "type": "function"
    },
    {
      "constant": true,
      "inputs": [],
      "name": "getTCR",
      "outputs": [
        {
          "internalType": "uint256",
          "name": "",
          "type": "uint256"
        }
      ],
      "payable": false,
      "stateMutability": "view",
      "type": "function"
    },
    {
      "constant": true,
      "inputs": [],
      "name": "getActiveDebt",
      "outputs": [
        {
          "internalType": "uint256",
          "name": "",
          "type": "uint256"
        }
      ],
      "payable": false,
      "stateMutability": "view",
      "type": "function"
    },
    {
      "constant": true,
      "inputs": [],
      "name": "getActiveColl",
      "outputs": [
        {
          "internalType": "uint256",
          "name": "",
          "type": "uint256"
        }
      ],
      "payable": false,
      "stateMutability": "view",
      "type": "function"
    },
    {
      "constant": true,
      "inputs": [],
      "name": "getClosedDebt",
      "outputs": [
        {
          "internalType": "uint256",
          "name": "",
          "type": "uint256"
        }
      ],
      "payable": false,
      "stateMutability": "view",
      "type": "function"
    },
    {
      "constant": true,
      "inputs": [],
      "name": "getLiquidatedColl",
      "outputs": [
        {
          "internalType": "uint256",
          "name": "",
          "type": "uint256"
        }
      ],
      "payable": false,
      "stateMutability": "view",
      "type": "function"
    },
    {
      "constant": true,
      "inputs": [],
      "name": "getStabilityPoolCLV",
      "outputs": [
        {
          "internalType": "uint256",
          "name": "",
          "type": "uint256"
        }
      ],
      "payable": false,
      "stateMutability": "view",
      "type": "function"
    },
    {
      "constant": false,
      "inputs": [],
      "name": "addColl",
      "outputs": [
        {
          "internalType": "bool",
          "name": "",
          "type": "bool"
        }
      ],
      "payable": true,
      "stateMutability": "payable",
      "type": "function"
    },
    {
      "constant": false,
      "inputs": [
        {
          "internalType": "address",
          "name": "_account",
          "type": "address"
        },
        {
          "internalType": "uint256",
          "name": "_ETH",
          "type": "uint256"
        }
      ],
      "name": "withdrawColl",
      "outputs": [
        {
          "internalType": "bool",
          "name": "",
          "type": "bool"
        }
      ],
      "payable": false,
      "stateMutability": "nonpayable",
      "type": "function"
    },
    {
      "constant": false,
      "inputs": [
        {
          "internalType": "address",
          "name": "_account",
          "type": "address"
        },
        {
          "internalType": "uint256",
          "name": "_CLV",
          "type": "uint256"
        }
      ],
      "name": "withdrawCLV",
      "outputs": [
        {
          "internalType": "bool",
          "name": "",
          "type": "bool"
        }
      ],
      "payable": false,
      "stateMutability": "nonpayable",
      "type": "function"
    },
    {
      "constant": false,
      "inputs": [
        {
          "internalType": "address",
          "name": "_account",
          "type": "address"
        },
        {
          "internalType": "uint256",
          "name": "_CLV",
          "type": "uint256"
        }
      ],
      "name": "repayCLV",
      "outputs": [
        {
          "internalType": "bool",
          "name": "",
          "type": "bool"
        }
      ],
      "payable": false,
      "stateMutability": "nonpayable",
      "type": "function"
    },
    {
      "constant": false,
      "inputs": [
        {
          "internalType": "uint256",
          "name": "_CLV",
          "type": "uint256"
        },
        {
          "internalType": "uint256",
          "name": "_ETH",
          "type": "uint256"
        }
      ],
      "name": "liquidate",
      "outputs": [
        {
          "internalType": "bool",
          "name": "",
          "type": "bool"
        }
      ],
      "payable": false,
      "stateMutability": "nonpayable",
      "type": "function"
    },
    {
      "constant": false,
      "inputs": [
        {
          "internalType": "uint256",
          "name": "_CLV",
          "type": "uint256"
        },
        {
          "internalType": "uint256",
          "name": "_ETH",
          "type": "uint256"
        }
      ],
      "name": "applyPendingRewards",
      "outputs": [
        {
          "internalType": "bool",
          "name": "",
          "type": "bool"
        }
      ],
      "payable": false,
      "stateMutability": "nonpayable",
      "type": "function"
    },
    {
      "constant": false,
      "inputs": [
        {
          "internalType": "address",
          "name": "_account",
          "type": "address"
        },
        {
          "internalType": "uint256",
          "name": "_CLV",
          "type": "uint256"
        },
        {
          "internalType": "uint256",
          "name": "_ETH",
          "type": "uint256"
        }
      ],
      "name": "redeemCollateral",
      "outputs": [
        {
          "internalType": "bool",
          "name": "",
          "type": "bool"
        }
      ],
      "payable": false,
      "stateMutability": "nonpayable",
      "type": "function"
    },
    {
      "constant": true,
      "inputs": [
        {
          "internalType": "address",
          "name": "_user",
          "type": "address"
        }
      ],
      "name": "getCurrentETHGain",
      "outputs": [
        {
          "internalType": "uint256",
          "name": "",
          "type": "uint256"
        }
      ],
      "payable": false,
      "stateMutability": "view",
      "type": "function"
    },
    {
      "constant": false,
      "inputs": [
        {
          "internalType": "uint256",
          "name": "_amount",
          "type": "uint256"
        }
      ],
      "name": "provideToSP",
      "outputs": [
        {
          "internalType": "bool",
          "name": "",
          "type": "bool"
        }
      ],
      "payable": false,
      "stateMutability": "nonpayable",
      "type": "function"
    },
    {
      "constant": false,
      "inputs": [
        {
          "internalType": "uint256",
          "name": "_amount",
          "type": "uint256"
        }
      ],
      "name": "withdrawFromSP",
      "outputs": [
        {
          "internalType": "bool",
          "name": "",
          "type": "bool"
        }
      ],
      "payable": false,
      "stateMutability": "nonpayable",
      "type": "function"
    },
    {
      "constant": false,
      "inputs": [
        {
          "internalType": "address",
          "name": "_user",
          "type": "address"
        },
        {
          "internalType": "address",
          "name": "_hint",
          "type": "address"
        }
      ],
      "name": "withdrawFromSPtoCDP",
      "outputs": [
        {
          "internalType": "bool",
          "name": "",
          "type": "bool"
        }
      ],
      "payable": false,
      "stateMutability": "nonpayable",
      "type": "function"
    },
    {
      "constant": false,
      "inputs": [
        {
          "internalType": "uint256",
          "name": "_debt",
          "type": "uint256"
        },
        {
          "internalType": "uint256",
          "name": "_coll",
          "type": "uint256"
        }
      ],
      "name": "offset",
      "outputs": [
        {
          "internalType": "uint256[2]",
          "name": "",
          "type": "uint256[2]"
        }
      ],
      "payable": true,
      "stateMutability": "payable",
      "type": "function"
    }
  ],
  "bytecode": "0x6080604052600154600280546001600160a01b0319166001600160a01b03909216919091179055670de0b6b3a7640000600e553480156200003f57600080fd5b506000620000556001600160e01b03620000a516565b600080546001600160a01b0319166001600160a01b0383169081178255604051929350917f8be0079c531659141344cd1fd0a4f28419497f9722a3daafe3b4186f6b6457e0908290a350620000a9565b3390565b613d6f80620000b96000396000f3fe6080604052600436106102dc5760003560e01c80638da5cb5b11610184578063d296d1f1116100d6578063f2fde38b1161008a578063f7883a8b11610064578063f7883a8b14610943578063fc7e286d14610976578063fefb4c58146109a9576102dc565b8063f2fde38b146108c2578063f51e181a146108f5578063f568dd8e1461090a576102dc565b8063e0abca0b116100bb578063e0abca0b1461084a578063ef6151a61461085f578063f098927114610892576102dc565b8063d296d1f114610805578063d31cadf614610835576102dc565b8063a1d64aee11610138578063b620115d11610112578063b620115d146107a2578063b96c5181146107b7578063cb8d3e54146107f0576102dc565b8063a1d64aee14610763578063aac1846f14610778578063b08bc7221461078d576102dc565b80639594897d116101695780639594897d146106e057806398d721e0146106f5578063a00f949514610728576102dc565b80638da5cb5b146106b65780638f32d59b146106cb576102dc565b8063335525ad1161023d578063724e78da116101f15780637f7dde4a116101cb5780637f7dde4a1461065957806385cb43e81461066e5780638c192ed414610683576102dc565b8063724e78da146105bd57806378c77a24146105f05780637cb19fe81461061a576102dc565b80634f6cda44116102225780634f6cda4414610560578063697b93fd14610593578063715018a6146105a8576102dc565b8063335525ad146104ed5780633cc742251461054b576102dc565b80631f54990711610294578063265121601161027957806326512160146104395780632e54bf951461048a5780632e90bbd8146104b4576102dc565b80631f5499071461040857806325a2e6e71461041d576102dc565b80630b622ab2116102c55780630b622ab2146103a25780630bf91cfa146103b757806312065fe0146103f3576102dc565b806302f6567f1461035c578063048c661d1461038d575b6008546001600160a01b03166102f06109dc565b6001600160a01b0316148061031f5750600a546001600160a01b03166103146109dc565b6001600160a01b0316145b61035a5760405162461bcd60e51b815260040180806020018281038252603b815260200180613b8b603b913960400191505060405180910390fd5b005b34801561036857600080fd5b506103716109e1565b604080516001600160a01b039092168252519081900360200190f35b34801561039957600080fd5b506103716109f0565b3480156103ae57600080fd5b506103716109ff565b3480156103c357600080fd5b506103e1600480360360208110156103da57600080fd5b5035610a0e565b60408051918252519081900360200190f35b3480156103ff57600080fd5b506103e1610a20565b34801561041457600080fd5b506103e1610a25565b610425610a9b565b604080519115158252519081900360200190f35b34801561044557600080fd5b5061046c6004803603602081101561045c57600080fd5b50356001600160a01b0316610b94565b60408051938452602084019290925282820152519081900360600190f35b34801561049657600080fd5b50610425600480360360208110156104ad57600080fd5b5035610bb5565b3480156104c057600080fd5b50610425600480360360408110156104d757600080fd5b506001600160a01b038135169060200135610d5a565b6105106004803603604081101561050357600080fd5b5080359060200135610ec1565b6040518082600260200280838360005b83811015610538578181015183820152602001610520565b5050505090500191505060405180910390f35b34801561055757600080fd5b50610371611663565b34801561056c57600080fd5b506103e16004803603602081101561058357600080fd5b50356001600160a01b0316611672565b34801561059f57600080fd5b506103e16118e0565b3480156105b457600080fd5b5061035a611925565b3480156105c957600080fd5b5061035a600480360360208110156105e057600080fd5b50356001600160a01b03166119c8565b3480156105fc57600080fd5b506104256004803603602081101561061357600080fd5b5035611a80565b34801561062657600080fd5b506104256004803603606081101561063d57600080fd5b506001600160a01b038135169060208101359060400135611bde565b34801561066557600080fd5b50610371611dad565b34801561067a57600080fd5b506103e1611dbc565b34801561068f57600080fd5b5061035a600480360360208110156106a657600080fd5b50356001600160a01b0316611e01565b3480156106c257600080fd5b50610371611ec1565b3480156106d757600080fd5b50610425611ed0565b3480156106ec57600080fd5b506103e1611ef4565b34801561070157600080fd5b5061035a6004803603602081101561071857600080fd5b50356001600160a01b0316611f39565b34801561073457600080fd5b506104256004803603604081101561074b57600080fd5b506001600160a01b0381358116916020013516611ff9565b34801561076f57600080fd5b506103e16121c3565b34801561078457600080fd5b506103716121c9565b34801561079957600080fd5b506103716121d8565b3480156107ae57600080fd5b506103e16121e7565b3480156107c357600080fd5b50610425600480360360408110156107da57600080fd5b506001600160a01b0381351690602001356123af565b3480156107fc57600080fd5b506103e16124c6565b34801561081157600080fd5b506104256004803603604081101561082857600080fd5b508035906020013561250b565b34801561084157600080fd5b5061037161268a565b34801561085657600080fd5b50610371612699565b34801561086b57600080fd5b5061035a6004803603602081101561088257600080fd5b50356001600160a01b03166126a8565b34801561089e57600080fd5b50610425600480360360408110156108b557600080fd5b5080359060200135612760565b3480156108ce57600080fd5b5061035a600480360360208110156108e557600080fd5b50356001600160a01b03166128df565b34801561090157600080fd5b506103e1612944565b34801561091657600080fd5b506104256004803603604081101561092d57600080fd5b506001600160a01b03813516906020013561294a565b34801561094f57600080fd5b5061035a6004803603602081101561096657600080fd5b50356001600160a01b03166129fc565b34801561098257600080fd5b506103e16004803603602081101561099957600080fd5b50356001600160a01b0316612abc565b3480156109b557600080fd5b5061035a600480360360208110156109cc57600080fd5b50356001600160a01b0316612ace565b335b90565b6001546001600160a01b031681565b6007546001600160a01b031681565b6008546001600160a01b031681565b60106020526000908152604090205481565b303190565b60095460408051630a7b61df60e11b815290516000926001600160a01b0316916314f6c3be916004808301926020929190829003018186803b158015610a6a57600080fd5b505afa158015610a7e573d6000803e3d6000fd5b505050506040513d6020811015610a9457600080fd5b5051905090565b6001546000906001600160a01b0316610ab26109dc565b6001600160a01b031614610af75760405162461bcd60e51b8152600401808060200182810382526029815260200180613cc16029913960400191505060405180910390fd5b600a546040516000916001600160a01b03169034908381818185875af1925050503d8060008114610b44576040519150601f19603f3d011682016040523d82523d6000602084013e610b49565b606091505b5090915050600181151514610b8f5760405162461bcd60e51b815260040180806020018281038252602f815260200180613bec602f913960400191505060405180910390fd5b905090565b60116020526000908152604090208054600182015460029092015490919083565b600080600360009054906101000a90046001600160a01b03166001600160a01b03166398d5fdca6040518163ffffffff1660e01b815260040160206040518083038186803b158015610c0657600080fd5b505afa158015610c1a573d6000803e3d6000fd5b505050506040513d6020811015610c3057600080fd5b50516002546040805163691fcbb760e01b81526004810184905290519293506001600160a01b039091169163691fcbb7916024808201926020929091908290030181600087803b158015610c8357600080fd5b505af1158015610c97573d6000803e3d6000fd5b505050506040513d6020811015610cad57600080fd5b5060009050610cba6109dc565b6001600160a01b0381166000908152600d602052604090205490915080610d125760405162461bcd60e51b815260040180806020018281038252602e815260200180613c50602e913960400191505060405180910390fd5b610d1a613b6c565b610d2383612b86565b805190915080871015610d4b57610d4984610d44838a63ffffffff612ee716565b612f30565b505b6001955050505050505b919050565b6001546000906001600160a01b0316610d716109dc565b6001600160a01b031614610db65760405162461bcd60e51b8152600401808060200182810382526029815260200180613cc16029913960400191505060405180910390fd5b60095460408051634de7363160e01b81526004810185905290516001600160a01b0390921691634de736319160248082019260009290919082900301818387803b158015610e0357600080fd5b505af1158015610e17573d6000803e3d6000fd5b5050600554604080517f40c10f190000000000000000000000000000000000000000000000000000000081526001600160a01b0388811660048301526024820188905291519190921693506340c10f19925060448083019260209291908290030181600087803b158015610e8a57600080fd5b505af1158015610e9e573d6000803e3d6000fd5b505050506040513d6020811015610eb457600080fd5b5060019150505b92915050565b610ec9613b6c565b6001546001600160a01b0316610edd6109dc565b6001600160a01b031614610f225760405162461bcd60e51b8152600401808060200182810382526029815260200180613cc16029913960400191505060405180910390fd5b610f2a613b6c565b600754604080517fb739777600000000000000000000000000000000000000000000000000000000815290516000926001600160a01b03169163b7397776916004808301926020929190829003018186803b158015610f8857600080fd5b505afa158015610f9c573d6000803e3d6000fd5b505050506040513d6020811015610fb257600080fd5b50516007546040805163e1cf19c160e01b815290519293506000926001600160a01b039092169163e1cf19c191600480820192602092909190829003018186803b158015610fff57600080fd5b505afa158015611013573d6000803e3d6000fd5b505050506040513d602081101561102957600080fd5b50519050801580611038575081155b15611050575050838152602081018390529050610ebb565b600061105c87836131e2565b905061109d6040518060400160405280601281526020017f64656274546f4f66667365742069732025730000000000000000000000000000815250826131f9565b60006110bf886110b3898563ffffffff61337c16565b9063ffffffff6133d516565b905060006110f06013546110e4670de0b6b3a76400008661337c90919063ffffffff16565b9063ffffffff612ee716565b90506111316040518060400160405280601681526020017f434c564c6f73734e756d657261746f7220697320257300000000000000000000815250826131f9565b60125460009061115f9061115385670de0b6b3a764000063ffffffff61337c16565b9063ffffffff61341716565b905060006111786001611153858a63ffffffff6133d516565b9050600061118c838963ffffffff6133d516565b90506111a2846110e4848b63ffffffff61337c16565b6013556111c56111b8828a63ffffffff61337c16565b849063ffffffff612ee716565b6012556000670de0b6b3a76400008310156111f7576111f2670de0b6b3a76400008463ffffffff612ee716565b6111fa565b60015b905061123b6040518060400160405280601a81526020017f434c564c6f7373506572556e69745374616b6564206973202573000000000000815250846131f9565b61127a6040518060400160405280601681526020017f746f74616c434c564465706f73697473206973202573000000000000000000008152508a6131f9565b6112b96040518060400160405280601481526020017f70726f6475637420666163746f72206973202573000000000000000000000000815250826131f9565b60006112d0600e548461337c90919063ffffffff16565b600f546000908152601060205260409020549091506112f5908263ffffffff61341716565b600f80546000908152601060209081526040808320949094559154815282902054825190815291517f929e5fb9f1edf861ea5c93ad246b11b366de90467ba54a72bcb6f04e4d7195919281900390910190a1600e54670de0b6b3a764000090611364908463ffffffff61337c16565b101561139c57600e5461137d908363ffffffff61337c16565b600e55600f5461139490600163ffffffff61341716565b600f556113c1565b6113bd670de0b6b3a76400006110b384600e5461337c90919063ffffffff16565b600e555b600e5460408051918252517f6202a540140877ddcfe6565b210c532c65e48fbd799d2579014359e7c84ea88e9181900360200190a160075460408051631283abc560e21b8152600481018b905290516001600160a01b0390921691634a0eaf149160248082019260009290919082900301818387803b15801561144357600080fd5b505af1158015611457573d6000803e3d6000fd5b50506009546040805163e9c8395760e01b8152600481018d905290516001600160a01b03909216935063e9c83957925060248082019260009290919082900301818387803b1580156114a857600080fd5b505af11580156114bc573d6000803e3d6000fd5b50506007546040805163e9c8395760e01b8152600481018d905290516001600160a01b03909216935063e9c83957925060248082019260009290919082900301818387803b15801561150d57600080fd5b505af1158015611521573d6000803e3d6000fd5b5050600954600854604080516364a197f360e01b81526001600160a01b039283166004820152602481018d905290519190921693506364a197f3925060448083019260209291908290030181600087803b15801561157e57600080fd5b505af1158015611592573d6000803e3d6000fd5b505050506040513d60208110156115a857600080fd5b505060055460085460408051632770a7eb60e21b81526001600160a01b039283166004820152602481018c905290519190921691639dc29fac9160448083019260209291908290030181600087803b15801561160357600080fd5b505af1158015611617573d6000803e3d6000fd5b505050506040513d602081101561162d57600080fd5b5061164090508e8963ffffffff612ee716565b8b5261164c8d88612ee7565b60208c015250989c9b505050505050505050505050565b600b546001600160a01b031681565b6001600160a01b0381166000908152600d60209081526040808320546011909252822080546001820154600290920154600f54919291859081906116bc908463ffffffff612ee716565b9050806117125761170b670de0b6b3a76400006110b3866110b36116fe8a60106000600f54815260200190815260200160002054612ee790919063ffffffff16565b8b9063ffffffff61337c16565b91506118d5565b6117536040518060400160405280600d81526020017f504d3a3a7363616c653a20257300000000000000000000000000000000000000815250600f546131f9565b600083815260106020526040812054611772908763ffffffff612ee716565b90506117a4604051806060016040528060228152602001613c9f602291396000868152601060205260409020546131f9565b6117e36040518060400160405280601c81526020017f504d3a3a666972737420736e617073686f745f535f4554483a20257300000000815250876131f9565b6000611822670de0b6b3a764000060108361180589600163ffffffff61341716565b8152602001908152602001600020546133d590919063ffffffff16565b90506118636040518060400160405280601581526020017f504d3a3a666972737420706f7274696f6e3a2025730000000000000000000000815250836131f9565b6118a26040518060400160405280601681526020017f504d3a3a7365636f6e6420706f7274696f6e3a20257300000000000000000000815250826131f9565b6118d0670de0b6b3a76400006110b388816118c3878763ffffffff61341716565b8d9063ffffffff61337c16565b935050505b509695505050505050565b6009546040805163e1cf19c160e01b815290516000926001600160a01b03169163e1cf19c1916004808301926020929190829003018186803b158015610a6a57600080fd5b61192d611ed0565b61197e576040805162461bcd60e51b815260206004820181905260248201527f4f776e61626c653a2063616c6c6572206973206e6f7420746865206f776e6572604482015290519081900360640190fd5b600080546040516001600160a01b03909116907f8be0079c531659141344cd1fd0a4f28419497f9722a3daafe3b4186f6b6457e0908390a3600080546001600160a01b0319169055565b6119d0611ed0565b611a21576040805162461bcd60e51b815260206004820181905260248201527f4f776e61626c653a2063616c6c6572206973206e6f7420746865206f776e6572604482015290519081900360640190fd5b600480546001600160a01b0383166001600160a01b03199182168117909255600380549091168217905560408051918252517f8c537274438aa850a330284665d81a85dd38267d09e4050d416bfc94142db2649181900360200190a150565b600080600360009054906101000a90046001600160a01b03166001600160a01b03166398d5fdca6040518163ffffffff1660e01b815260040160206040518083038186803b158015611ad157600080fd5b505afa158015611ae5573d6000803e3d6000fd5b505050506040513d6020811015611afb57600080fd5b50516002546040805163691fcbb760e01b81526004810184905290519293506001600160a01b039091169163691fcbb7916024808201926020929091908290030181600087803b158015611b4e57600080fd5b505af1158015611b62573d6000803e3d6000fd5b505050506040513d6020811015611b7857600080fd5b5060009050611b856109dc565b6001600160a01b0381166000908152600d6020526040902054909150611bbb57611baf8185612f30565b50600192505050610d55565b611bc3613b6c565b611bcc82612b86565b8051909150858101610d498482612f30565b6001546000906001600160a01b0316611bf56109dc565b6001600160a01b031614611c3a5760405162461bcd60e51b8152600401808060200182810382526029815260200180613cc16029913960400191505060405180910390fd5b6009546040805163e9c8395760e01b81526004810186905290516001600160a01b039092169163e9c839579160248082019260009290919082900301818387803b158015611c8757600080fd5b505af1158015611c9b573d6000803e3d6000fd5b5050600954604080516364a197f360e01b81526001600160a01b0389811660048301526024820188905291519190921693506364a197f3925060448083019260209291908290030181600087803b158015611cf557600080fd5b505af1158015611d09573d6000803e3d6000fd5b505050506040513d6020811015611d1f57600080fd5b505060055460408051632770a7eb60e21b81526001600160a01b0387811660048301526024820187905291519190921691639dc29fac9160448083019260209291908290030181600087803b158015611d7757600080fd5b505af1158015611d8b573d6000803e3d6000fd5b505050506040513d6020811015611da157600080fd5b50600195945050505050565b6009546001600160a01b031681565b6007546040805163e1cf19c160e01b815290516000926001600160a01b03169163e1cf19c1916004808301926020929190829003018186803b158015610a6a57600080fd5b611e09611ed0565b611e5a576040805162461bcd60e51b815260206004820181905260248201527f4f776e61626c653a2063616c6c6572206973206e6f7420746865206f776e6572604482015290519081900360640190fd5b600c80546001600160a01b038084166001600160a01b0319928316811793849055600b80549093169390911692909217905560408051918252517f5ee0cae2f063ed938bb55046f6a932fb6ae792bf43624806bb90abe68a50be9b9181900360200190a150565b6000546001600160a01b031690565b600080546001600160a01b0316611ee56109dc565b6001600160a01b031614905090565b600b546040805163e1cf19c160e01b815290516000926001600160a01b03169163e1cf19c1916004808301926020929190829003018186803b158015610a6a57600080fd5b611f41611ed0565b611f92576040805162461bcd60e51b815260206004820181905260248201527f4f776e61626c653a2063616c6c6572206973206e6f7420746865206f776e6572604482015290519081900360640190fd5b600880546001600160a01b038084166001600160a01b0319928316811793849055600780549093169390911692909217905560408051918252517f82966d27eea39b038ee0fa30cd16532bb24f6e65d31cb58fb227aa5766cdcc7f9181900360200190a150565b60015460009083906001600160a01b03166120126109dc565b6001600160a01b0316148061203f575061202a6109dc565b6001600160a01b0316816001600160a01b0316145b61207a5760405162461bcd60e51b8152600401808060200182810382526051815260200180613cea6051913960600191505060405180910390fd5b60035460408051634c6afee560e11b815290516000926001600160a01b0316916398d5fdca916004808301926020929190829003018186803b1580156120bf57600080fd5b505afa1580156120d3573d6000803e3d6000fd5b505050506040513d60208110156120e957600080fd5b50516002546040805163691fcbb760e01b81526004810184905290519293506001600160a01b039091169163691fcbb7916024808201926020929091908290030181600087803b15801561213c57600080fd5b505af1158015612150573d6000803e3d6000fd5b505050506040513d602081101561216657600080fd5b50506001600160a01b0385166000908152600d602052604090205480612191576000935050506121bc565b612199613b6c565b6121a38787613471565b80519091506121b28882612f30565b5060019550505050505b5092915050565b600e5481565b600c546001600160a01b031681565b600a546001600160a01b031681565b600080600960009054906101000a90046001600160a01b03166001600160a01b03166314f6c3be6040518163ffffffff1660e01b815260040160206040518083038186803b15801561223857600080fd5b505afa15801561224c573d6000803e3d6000fd5b505050506040513d602081101561226257600080fd5b50516009546040805163e1cf19c160e01b815290519293506000926001600160a01b039092169163e1cf19c191600480820192602092909190829003018186803b1580156122af57600080fd5b505afa1580156122c3573d6000803e3d6000fd5b505050506040513d60208110156122d957600080fd5b505160035460408051634c6afee560e11b815290519293506000926001600160a01b03909216916398d5fdca91600480820192602092909190829003018186803b15801561232657600080fd5b505afa15801561233a573d6000803e3d6000fd5b505050506040513d602081101561235057600080fd5b5051905082158015612360575081155b1561237157600193505050506109de565b821580159061237e575081155b156123905760001993505050506109de565b60006123a6836110b3868563ffffffff61337c16565b94505050505090565b6001546000906001600160a01b03166123c66109dc565b6001600160a01b03161461240b5760405162461bcd60e51b8152600401808060200182810382526029815260200180613cc16029913960400191505060405180910390fd5b6009546040805163e9c8395760e01b81526004810185905290516001600160a01b039092169163e9c839579160248082019260009290919082900301818387803b15801561245857600080fd5b505af115801561246c573d6000803e3d6000fd5b505060055460408051632770a7eb60e21b81526001600160a01b038881166004830152602482018890529151919092169350639dc29fac925060448083019260209291908290030181600087803b158015610e8a57600080fd5b600b5460408051630a7b61df60e11b815290516000926001600160a01b0316916314f6c3be916004808301926020929190829003018186803b158015610a6a57600080fd5b6001546000906001600160a01b03166125226109dc565b6001600160a01b0316146125675760405162461bcd60e51b8152600401808060200182810382526029815260200180613cc16029913960400191505060405180910390fd5b600b5460408051634de7363160e01b81526004810186905290516001600160a01b0390921691634de736319160248082019260009290919082900301818387803b1580156125b457600080fd5b505af11580156125c8573d6000803e3d6000fd5b50506009546040805163e9c8395760e01b81526004810188905290516001600160a01b03909216935063e9c83957925060248082019260009290919082900301818387803b15801561261957600080fd5b505af115801561262d573d6000803e3d6000fd5b5050600954600c54604080516364a197f360e01b81526001600160a01b0392831660048201526024810188905290519190921693506364a197f3925060448083019260209291908290030181600087803b158015610e8a57600080fd5b6006546001600160a01b031681565b6004546001600160a01b031681565b6126b0611ed0565b612701576040805162461bcd60e51b815260206004820181905260248201527f4f776e61626c653a2063616c6c6572206973206e6f7420746865206f776e6572604482015290519081900360640190fd5b600180546001600160a01b0383166001600160a01b03199182168117909255600280549091168217905560408051918252517f0addbd30df51ac41ccaf56a058c50522fbdc092b4e2ec8b829b29ad6716bd0979181900360200190a150565b6001546000906001600160a01b03166127776109dc565b6001600160a01b0316146127bc5760405162461bcd60e51b8152600401808060200182810382526029815260200180613cc16029913960400191505060405180910390fd5b600b546040805163e9c8395760e01b81526004810186905290516001600160a01b039092169163e9c839579160248082019260009290919082900301818387803b15801561280957600080fd5b505af115801561281d573d6000803e3d6000fd5b505060095460408051634de7363160e01b81526004810188905290516001600160a01b039092169350634de73631925060248082019260009290919082900301818387803b15801561286e57600080fd5b505af1158015612882573d6000803e3d6000fd5b5050600b54600a54604080516364a197f360e01b81526001600160a01b0392831660048201526024810188905290519190921693506364a197f3925060448083019260209291908290030181600087803b158015610e8a57600080fd5b6128e7611ed0565b612938576040805162461bcd60e51b815260206004820181905260248201527f4f776e61626c653a2063616c6c6572206973206e6f7420746865206f776e6572604482015290519081900360640190fd5b6129418161387c565b50565b600f5481565b6001546000906001600160a01b03166129616109dc565b6001600160a01b0316146129a65760405162461bcd60e51b8152600401808060200182810382526029815260200180613cc16029913960400191505060405180910390fd5b600954604080516364a197f360e01b81526001600160a01b03868116600483015260248201869052915191909216916364a197f39160448083019260209291908290030181600087803b158015610e8a57600080fd5b612a04611ed0565b612a55576040805162461bcd60e51b815260206004820181905260248201527f4f776e61626c653a2063616c6c6572206973206e6f7420746865206f776e6572604482015290519081900360640190fd5b600a80546001600160a01b038084166001600160a01b0319928316811793849055600980549093169390911692909217905560408051918252517f78f058b189175430c48dc02699e3a0031ea4ff781536dc2fab847de4babdd8829181900360200190a150565b600d6020526000908152604090205481565b612ad6611ed0565b612b27576040805162461bcd60e51b815260206004820181905260248201527f4f776e61626c653a2063616c6c6572206973206e6f7420746865206f776e6572604482015290519081900360640190fd5b600680546001600160a01b0383166001600160a01b03199182168117909255600580549091168217905560408051918252517f373a23842c9bfba0a655597bb13c6493895da5266bd6617086a73f8dcfe2ae709181900360200190a150565b612b8e613b6c565b6001600160a01b0382166000908152600d602052604081205490612bb184611672565b90506000612bbe8561391c565b6001600160a01b0386166000818152600d6020908152604080832083905580519283525193945091927fbce78369dccab09eec1986f4d409ab09ffbb47d65423e5148fcf98411c5111c9929181900390910190a26005546008546007546040805163e1cf19c160e01b815290516001600160a01b03948516946320c582be948116938b93612ca39389939092169163e1cf19c191600480820192602092909190829003018186803b158015612c7257600080fd5b505afa158015612c86573d6000803e3d6000fd5b505050506040513d6020811015612c9c57600080fd5b50516131e2565b6040518463ffffffff1660e01b815260040180846001600160a01b03166001600160a01b03168152602001836001600160a01b03166001600160a01b031681526020018281526020019350505050602060405180830381600087803b158015612d0b57600080fd5b505af1158015612d1f573d6000803e3d6000fd5b505050506040513d6020811015612d3557600080fd5b50506007546040805163e9c8395760e01b81526004810184905290516001600160a01b039092169163e9c839579160248082019260009290919082900301818387803b158015612d8457600080fd5b505af1158015612d98573d6000803e3d6000fd5b505060075460408051631283abc560e21b81526004810186905290516001600160a01b039092169350634a0eaf14925060248082019260009290919082900301818387803b158015612de957600080fd5b505af1158015612dfd573d6000803e3d6000fd5b5050600754604080516364a197f360e01b81526001600160a01b038a811660048301526024820188905291519190921693506364a197f3925060448083019260209291908290030181600087803b158015612e5757600080fd5b505af1158015612e6b573d6000803e3d6000fd5b505050506040513d6020811015612e8157600080fd5b50506040805183815290516001600160a01b038716917f432c55ba1aa9cc0bf1df0eaddcd486211dc10fbd0a3c0103b0c2ad4bfa9213b8919081900360200190a2612eca613b6c565b506040805180820190915290815260208101919091529392505050565b6000612f2983836040518060400160405280601e81526020017f536166654d6174683a207375627472616374696f6e206f766572666c6f770000815250613a70565b9392505050565b6001600160a01b0382166000908152600d602052604081205415612f855760405162461bcd60e51b8152600401808060200182810382526035815260200180613c1b6035913960400191505060405180910390fd5b600554600854604080517fbb997bac0000000000000000000000000000000000000000000000000000000081526001600160a01b0387811660048301529283166024820152604481018690529051919092169163bb997bac9160648083019260209291908290030181600087803b158015612fff57600080fd5b505af1158015613013573d6000803e3d6000fd5b505050506040513d602081101561302957600080fd5b505060075460408051634de7363160e01b81526004810185905290516001600160a01b0390921691634de736319160248082019260009290919082900301818387803b15801561307857600080fd5b505af115801561308c573d6000803e3d6000fd5b5050600754604080517fde10fb780000000000000000000000000000000000000000000000000000000081526004810187905290516001600160a01b03909216935063de10fb78925060248082019260009290919082900301818387803b1580156130f657600080fd5b505af115801561310a573d6000803e3d6000fd5b5050506001600160a01b0384166000818152600d60209081526040808320879055600e54601180845282852060018101839055600f80548752601086528487205497909652908452858155935460029094019390935580519283529082019290925281517f3ad3a0af1c72b834ff87f9409d7124fd7d9b306560756548477325e6e09f505593509081900390910190a16040805183815290516001600160a01b038516917fbce78369dccab09eec1986f4d409ab09ffbb47d65423e5148fcf98411c5111c9919081900360200190a250600192915050565b60008183116131f2575081610ebb565b5080610ebb565b60006a636f6e736f6c652e6c6f676001600160a01b031683836040516024018080602001838152602001828103825284818151815260200191508051906020019080838360005b83811015613258578181015183820152602001613240565b50505050905090810190601f1680156132855780820380516001836020036101000a031916815260200191505b5060408051601f198184030181529181526020820180517bffffffffffffffffffffffffffffffffffffffffffffffffffffffff167f9710a9d00000000000000000000000000000000000000000000000000000000017815290518251929650945084935091508083835b6020831061330f5780518252601f1990920191602091820191016132f0565b6001836020036101000a038019825116818451168082178552505050505050905001915050600060405180830381855afa9150503d806000811461336f576040519150601f19603f3d011682016040523d82523d6000602084013e613374565b606091505b505050505050565b60008261338b57506000610ebb565b8282028284828161339857fe5b0414612f295760405162461bcd60e51b8152600401808060200182810382526021815260200180613c7e6021913960400191505060405180910390fd5b6000612f2983836040518060400160405280601a81526020017f536166654d6174683a206469766973696f6e206279207a65726f000000000000815250613b07565b600082820183811015612f29576040805162461bcd60e51b815260206004820152601b60248201527f536166654d6174683a206164646974696f6e206f766572666c6f770000000000604482015290519081900360640190fd5b613479613b6c565b6001600160a01b0383166000908152600d6020526040902054806134ce5760405162461bcd60e51b815260040180806020018281038252602e815260200180613c50602e913960400191505060405180910390fd5b60006134d985611672565b905060006134e68661391c565b6001600160a01b0387166000818152600d6020908152604080832083905580519283525193945091927fbce78369dccab09eec1986f4d409ab09ffbb47d65423e5148fcf98411c5111c9929181900390910190a26005546008546007546040805163e1cf19c160e01b815290516001600160a01b03948516946320c582be948116938c9361359a9389939092169163e1cf19c191600480820192602092909190829003018186803b158015612c7257600080fd5b6040518463ffffffff1660e01b815260040180846001600160a01b03166001600160a01b03168152602001836001600160a01b03166001600160a01b031681526020018281526020019350505050602060405180830381600087803b15801561360257600080fd5b505af1158015613616573d6000803e3d6000fd5b505050506040513d602081101561362c57600080fd5b50506007546040805163e9c8395760e01b81526004810184905290516001600160a01b039092169163e9c839579160248082019260009290919082900301818387803b15801561367b57600080fd5b505af115801561368f573d6000803e3d6000fd5b505060075460408051631283abc560e21b81526004810188905290516001600160a01b039092169350634a0eaf14925060248082019260009290919082900301818387803b1580156136e057600080fd5b505af11580156136f4573d6000803e3d6000fd5b5050600754604080516364a197f360e01b81523060048201526024810187905290516001600160a01b0390921693506364a197f392506044808201926020929091908290030181600087803b15801561374c57600080fd5b505af1158015613760573d6000803e3d6000fd5b505050506040513d602081101561377657600080fd5b5050600254604080517f68647db10000000000000000000000000000000000000000000000000000000081526001600160a01b0389811660048301528881166024830152915191909216916368647db191859160448082019260209290919082900301818588803b1580156137ea57600080fd5b505af11580156137fe573d6000803e3d6000fd5b50505050506040513d602081101561381557600080fd5b50506040805183815290516001600160a01b038816917feb72a328e797f1635eb4805f6319fe3eec72e81273c7d92d0068f7e5f13766fd919081900360200190a261385e613b6c565b50604080518082019091529081526020810191909152949350505050565b6001600160a01b0381166138c15760405162461bcd60e51b8152600401808060200182810382526026815260200180613bc66026913960400191505060405180910390fd5b600080546040516001600160a01b03808516939216917f8be0079c531659141344cd1fd0a4f28419497f9722a3daafe3b4186f6b6457e091a3600080546001600160a01b0319166001600160a01b0392909216919091179055565b6001600160a01b0381166000908152600d6020908152604080832054601190925282206001810154600290910154600f5484908190613961908463ffffffff612ee716565b90506139ca6040518060400160405280601881526020017f20736e617073686f745b5f757365725d2e434c563a2025730000000000000000815250601160008a6001600160a01b03166001600160a01b03168152602001908152602001600020600101546131f9565b801580156139ed57506139e784633b9aca0063ffffffff6133d516565b600e5410155b15613a1257613a0b846110b3600e548861337c90919063ffffffff16565b9150613a66565b806001148015613a375750613a3184633b9aca0063ffffffff6133d516565b600e5410155b15613a6157613a0b670de0b6b3a76400006110b3866110b3600e548a61337c90919063ffffffff16565b600091505b5095945050505050565b60008184841115613aff5760405162461bcd60e51b81526004018080602001828103825283818151815260200191508051906020019080838360005b83811015613ac4578181015183820152602001613aac565b50505050905090810190601f168015613af15780820380516001836020036101000a031916815260200191505b509250505060405180910390fd5b505050900390565b60008183613b565760405162461bcd60e51b8152602060048201818152835160248401528351909283926044909101919085019080838360008315613ac4578181015183820152602001613aac565b506000838581613b6257fe5b0495945050505050565b6040518060400160405280600290602082028038833950919291505056fe506f6f6c4d616e616765723a2043616c6c6572206973206e6569746865722053746162696c697479506f6f6c206e6f7220416374697665506f6f6c4f776e61626c653a206e6577206f776e657220697320746865207a65726f2061646472657373506f6f6c4d616e616765723a207472616e73616374696f6e20746f20616374697665506f6f6c207265766572746564506f6f6c4d616e616765723a207573657220616c72656164792068617320612053746162696c697479506f6f6c206465706f736974506f6f6c4d616e616765723a2055736572206d75737420686176652061206e6f6e2d7a65726f206465706f736974536166654d6174683a206d756c7469706c69636174696f6e206f766572666c6f77504d3a3a7363616c65546f53756d5b736e617073686f745f7363616c655d3a202573506f6f6c4d616e616765723a2043616c6c6572206973206e6f7420746865204344504d616e61676572506f6f6c4d616e616765723a2054617267657420434450206d757374206265205f6d736753656e64657228292c206f74686572776973652063616c6c6572206d757374206265204344504d616e61676572a265627a7a72315820422513bb8851bbece13df969d7caf693f4b485206e5995fe3428bd781a75a0c064736f6c634300050b0032",
  "source": "pragma solidity ^0.5.11;\r\n\r\nimport './Interfaces/IPool.sol';\r\nimport './Interfaces/IPoolManager.sol';\r\nimport './Interfaces/ICDPManager.sol';\r\nimport './Interfaces/IStabilityPool.sol';\r\nimport './Interfaces/IPriceFeed.sol';\r\nimport './Interfaces/ICLVToken.sol';\r\nimport './DeciMath.sol';\r\nimport '@openzeppelin/contracts/math/SafeMath.sol';\r\nimport '@openzeppelin/contracts/ownership/Ownable.sol';\r\nimport '@nomiclabs/buidler/console.sol';\r\n\r\n// PoolManager maintains all pools \r\ncontract PoolManager is Ownable, IPoolManager {\r\n    using SafeMath for uint;\r\n\r\n    // --- Events ---\r\n\r\n    event CDPManagerAddressChanged(address _newCDPManagerAddress);\r\n    event PriceFeedAddressChanged(address _newPriceFeedAddress);\r\n    event CLVTokenAddressChanged(address _newCLVTokenAddress);\r\n    event StabilityPoolAddressChanged(address _newStabilityPoolAddress);\r\n    event ActivePoolAddressChanged(address _newActivePoolAddress);\r\n    event DefaultPoolAddressChanged(address _newDefaultPoolAddress);\r\n    \r\n    event UserSnapshotUpdated(uint _CLV, uint _ETH);\r\n    event P_CLVUpdated(uint _P_CLV);\r\n    event S_ETHUpdated(uint _S_ETH);\r\n    event UserDepositChanged(address indexed _user, uint _amount);\r\n    event ETHGainWithdrawn(address indexed _user, uint _ETH);\r\n    event ETHGainWithdrawnToCDP(address indexed _CDPOwner, uint _ETH);\r\n\r\n    // --- Connected contract declarations ---\r\n\r\n    address public cdpManagerAddress;\r\n    ICDPManager cdpManager = ICDPManager(cdpManagerAddress);\r\n\r\n    IPriceFeed priceFeed;\r\n    address public priceFeedAddress;\r\n\r\n    ICLVToken CLV;\r\n    address public clvAddress;\r\n\r\n    IStabilityPool public stabilityPool;\r\n    address public stabilityPoolAddress;\r\n\r\n    IPool public activePool;\r\n    address public activePoolAddress;\r\n\r\n    IPool public defaultPool;\r\n    address public defaultPoolAddress;\r\n   \r\n   // --- Data structures ---\r\n   \r\n    mapping (address => uint) public deposits;\r\n\r\n  \r\n\r\n    struct Snapshot {\r\n        uint ETH;\r\n        uint CLV;\r\n        uint scale;\r\n    }\r\n\r\n    /* Running product by which to multiply an initial deposit, in order to find the current compounded deposit, given\r\n    a series of liquidations, each of which cancel some CLV debt with the deposit. \r\n\r\n    During its lifetime, a deposit's value evolves from d0 to (d0 * [ P_CLV / P_CLV(0)] ), where P_CLV(0) \r\n    is the snapshot of P_CLV taken at the instant the deposit was made.  18 DP decimal.  */\r\n    uint public P_CLV = 1e18;\r\n\r\n    // Every time the scale of P shifts by 1e18, the scale is incremented by 1\r\n    uint public scale;\r\n\r\n    /* Sum of accumulated ETH gains per unit staked.  During it's lifetime, each deposit d0 earns:\r\n    An ETH *gain* of ( d0 * [S_ETH - S_ETH(0)] ), where S_ETH(0) is the snapshot of S_ETH taken at the instant\r\n    the deposit was made. 18 DP decimal.  */\r\n    // uint public S_ETH;\r\n\r\n    // record the sum S at different scales\r\n    mapping (uint => uint) public scaleToSum;\r\n\r\n    // Map users to their individual snapshots of S_CLV and the S_ETH\r\n    mapping (address => Snapshot) public snapshot;\r\n\r\n    // Error trackers for the offset calculation\r\n    uint lastETHError_Offset;\r\n    uint lastCLVLossError_Offset;\r\n\r\n    // --- Modifiers ---\r\n\r\n    modifier onlyCDPManager() {\r\n        require(_msgSender() == cdpManagerAddress, \"PoolManager: Caller is not the CDPManager\");\r\n        _;\r\n    }\r\n\r\n    modifier onlyCDPManagerOrUserIsSender(address _user) {\r\n        require(_msgSender()  == cdpManagerAddress || _user == _msgSender(),\r\n        \"PoolManager: Target CDP must be _msgSender(), otherwise caller must be CDPManager\");\r\n        _;\r\n    }\r\n    modifier onlyStabilityPoolorActivePool {\r\n        require(\r\n            _msgSender() == stabilityPoolAddress ||  _msgSender() ==  activePoolAddress, \r\n            \"PoolManager: Caller is neither StabilityPool nor ActivePool\");\r\n        _;\r\n    }\r\n\r\n    constructor() public {}\r\n\r\n    // --- Dependency setters ---\r\n\r\n    function setCDPManagerAddress(address _cdpManagerAddress) public onlyOwner {\r\n        cdpManagerAddress = _cdpManagerAddress;\r\n        cdpManager = ICDPManager(_cdpManagerAddress);\r\n        emit CDPManagerAddressChanged(_cdpManagerAddress);\r\n    }\r\n\r\n     function setPriceFeed(address _priceFeedAddress) public onlyOwner {\r\n        priceFeedAddress = _priceFeedAddress;\r\n        priceFeed = IPriceFeed(_priceFeedAddress);\r\n        emit PriceFeedAddressChanged(_priceFeedAddress);\r\n    }\r\n\r\n    function setCLVToken(address _CLVAddress) public onlyOwner {\r\n        clvAddress = _CLVAddress;\r\n        CLV = ICLVToken(_CLVAddress);\r\n        emit CLVTokenAddressChanged(_CLVAddress);\r\n    }\r\n\r\n    function setStabilityPool(address _stabilityPoolAddress) public onlyOwner {\r\n        stabilityPoolAddress = _stabilityPoolAddress;\r\n        stabilityPool = IStabilityPool(stabilityPoolAddress);\r\n        emit StabilityPoolAddressChanged(_stabilityPoolAddress);\r\n    }\r\n\r\n    function setActivePool(address _activePoolAddress) public onlyOwner {\r\n        activePoolAddress = _activePoolAddress;\r\n        activePool = IPool(activePoolAddress);\r\n        emit ActivePoolAddressChanged(_activePoolAddress);\r\n    }\r\n\r\n    function setDefaultPool(address _defaultPoolAddress) public onlyOwner {\r\n        defaultPoolAddress = _defaultPoolAddress;\r\n        defaultPool = IPool(defaultPoolAddress);\r\n        emit DefaultPoolAddressChanged(_defaultPoolAddress);\r\n    }\r\n\r\n    // --- Getters ---\r\n\r\n    // Return the current ETH balance of the PoolManager contract\r\n    function getBalance() public view returns(uint) {\r\n        return address(this).balance;\r\n    } \r\n    \r\n    // Return the total collateral ratio (TCR) of the system, based on the most recent ETH:USD price\r\n    function getTCR() view public returns (uint) {\r\n        uint totalCollateral = activePool.getETH();\r\n        uint totalDebt = activePool.getCLV();\r\n        uint price = priceFeed.getPrice();\r\n\r\n        // Handle edge cases of div-by-0\r\n        if(totalCollateral == 0 && totalDebt == 0 ) {\r\n            return 1;\r\n        }  else if (totalCollateral != 0 && totalDebt == 0 ) {\r\n            return 2**256 - 1; // TCR is technically infinite\r\n        }\r\n\r\n        // Calculate TCR\r\n        uint TCR = totalCollateral.mul(price).div(totalDebt);\r\n        return TCR;\r\n    }\r\n\r\n    // Return the total active debt (in CLV) in the system\r\n    function getActiveDebt() public view returns (uint) {\r\n        return activePool.getCLV();\r\n    }    \r\n    \r\n    // Return the total active collateral (in ETH) in the system\r\n    function getActiveColl() public view returns (uint) {\r\n        return activePool.getETH();\r\n    } \r\n    \r\n    // Return the amount of closed debt (in CLV)\r\n    function getClosedDebt() public view returns (uint) {\r\n        return defaultPool.getCLV();\r\n    }    \r\n    \r\n    // Return the amount of closed collateral (in ETH)\r\n    function getLiquidatedColl() public view returns (uint) {\r\n        return defaultPool.getETH();\r\n    }\r\n    \r\n    // Return the total CLV in the Stability Pool\r\n    function getStabilityPoolCLV() public view returns (uint) {\r\n        return stabilityPool.getCLV();\r\n    }\r\n    \r\n    // Add the received ETH to the total active collateral\r\n    function addColl() public payable onlyCDPManager returns (bool) {\r\n        // Send ETH to Active Pool and increase its recorded ETH balance\r\n       (bool success, ) = activePoolAddress.call.value(msg.value)(\"\");\r\n       require (success == true, 'PoolManager: transaction to activePool reverted');\r\n       return success;\r\n    }\r\n    \r\n    // Transfer the specified amount of ETH to _account and updates the total active collateral\r\n    function withdrawColl(address _account, uint _ETH) public onlyCDPManager returns (bool) {\r\n        activePool.sendETH(_account, _ETH);\r\n        return true;\r\n    }\r\n    \r\n    // Issue the specified amount of CLV to _account and increases the total active debt\r\n    function withdrawCLV(address _account, uint _CLV) public onlyCDPManager returns (bool) {\r\n        activePool.increaseCLV(_CLV);  // 9500\r\n        CLV.mint(_account, _CLV);  // 37500\r\n         \r\n        return true;\r\n    }\r\n    \r\n    // Burn the specified amount of CLV from _account and decreases the total active debt\r\n    function repayCLV(address _account, uint _CLV) public onlyCDPManager returns (bool) {\r\n        activePool.decreaseCLV(_CLV);\r\n        CLV.burn(_account, _CLV);\r\n        return true;\r\n    }           \r\n    \r\n    // Update the Active Pool and the Default Pool when a CDP gets closed\r\n    function liquidate(uint _CLV, uint _ETH) public onlyCDPManager returns (bool) {\r\n        // Transfer the debt & coll from the Active Pool to the Default Pool\r\n        defaultPool.increaseCLV(_CLV);\r\n        activePool.decreaseCLV(_CLV);\r\n        activePool.sendETH(defaultPoolAddress, _ETH);\r\n\r\n        return true;\r\n    }\r\n\r\n    // Update the Active Pool and the Default Pool when a CDP obtains a default share\r\n    function applyPendingRewards(uint _CLV, uint _ETH) public onlyCDPManager returns (bool) {\r\n        // Transfer the debt & coll from the Default Pool to the Active Pool\r\n        defaultPool.decreaseCLV(_CLV);  \r\n        activePool.increaseCLV(_CLV); \r\n        defaultPool.sendETH(activePoolAddress, _ETH); \r\n \r\n        return true;\r\n    }\r\n\r\n    // Burn the received CLV, transfers the redeemed ETH to _account and updates the Active Pool\r\n    function redeemCollateral(address _account, uint _CLV, uint _ETH) public onlyCDPManager returns (bool) {\r\n        // Update Active Pool CLV, and send ETH to account\r\n        activePool.decreaseCLV(_CLV);  \r\n        activePool.sendETH(_account, _ETH); \r\n\r\n        CLV.burn(_account, _CLV); \r\n        return true;\r\n    }\r\n    /* Return the accumulated ETH Gain for the user, for the duration that this deposit was held.\r\n\r\n    Given by the formula:  E = d0 * (S_ETH - S_ETH(0))/P_CLV(0)\r\n    \r\n    where S_ETH(0), P_CLV(0) are snapshots of the sum S_ETH and product P_ETH, respectively.\r\n    */\r\n\r\n    function getCurrentETHGain(address _user) public view returns(uint) {\r\n        uint userDeposit = deposits[_user];\r\n        uint snapshot_S_ETH = snapshot[_user].ETH;  \r\n        uint snapshot_P_CLV = snapshot[_user].CLV;\r\n        uint snapshot_scale = snapshot[_user].scale;\r\n\r\n        uint ETHGain;\r\n        uint scaleDiff = scale.sub(snapshot_scale);\r\n\r\n        if (scaleDiff == 0) { \r\n            ETHGain = userDeposit.mul(scaleToSum[scale].sub(snapshot_S_ETH)).div(snapshot_P_CLV).div(1e18);\r\n        } else {\r\n            console.log(\"PM::scale: %s\", scale);\r\n            uint firstPortion = scaleToSum[snapshot_scale].sub(snapshot_S_ETH);\r\n            console.log(\"PM::scaleToSum[snapshot_scale]: %s\", scaleToSum[snapshot_scale] );\r\n            console.log(\"PM::first snapshot_S_ETH: %s\", snapshot_S_ETH );\r\n            uint secondPortion = scaleToSum[snapshot_scale.add(1)].div(1e18);\r\n            console.log(\"PM::first portion: %s\", firstPortion );\r\n            console.log(\"PM::second portion: %s\", secondPortion );\r\n\r\n            ETHGain = userDeposit.mul(firstPortion.add(secondPortion)).div(snapshot_P_CLV).div(1e18);\r\n        }\r\n\r\n        return ETHGain;\r\n    }\r\n\r\n    /* Return the user's compounded deposit.  \r\n\r\n    Given by the formula:  d = d0 * P_CLV/P_CLV(0)\r\n    \r\n    where P_CLV(0) is the snapshot of the product P_ETH.\r\n    */\r\n    function getCompoundedCLVDeposit(address _user) internal view returns(uint) {\r\n        uint userDeposit = deposits[_user];\r\n        uint snapshot_P_CLV = snapshot[_user].CLV; \r\n        uint snapshot_scale = snapshot[_user].scale;\r\n\r\n        uint compoundedDeposit;\r\n        uint scaleDiff = scale.sub(snapshot_scale);\r\n        \r\n        console.log(\" snapshot[_user].CLV: %s\",  snapshot[_user].CLV);\r\n\r\n        /* Return a positive deposit if compounded deposit is greater than\r\n        a particular tiny fraction of the initial deposit -- i.e. if ( d > d0 * 1e-9 ). Otherwise, return 0. */\r\n\r\n        if ((scaleDiff == 0) && (P_CLV >= snapshot_P_CLV.div(1e9))) { \r\n            compoundedDeposit = userDeposit.mul(P_CLV).div(snapshot_P_CLV);\r\n\r\n        } else if ((scaleDiff == 1) && (P_CLV >= snapshot_P_CLV.div(1e9))) {\r\n            compoundedDeposit = userDeposit.mul(P_CLV).div(snapshot_P_CLV).div(1e18);\r\n\r\n        } else {\r\n            compoundedDeposit = 0;\r\n        }\r\n   \r\n        return compoundedDeposit;\r\n    }\r\n\r\n\r\n    // --- Internal StabilityPool functions --- \r\n\r\n    // Deposit _amount CLV from _address, to the Stability Pool.\r\n    function depositCLV(address _address, uint _amount) internal returns(bool) {\r\n        require(deposits[_address] == 0, \"PoolManager: user already has a StabilityPool deposit\");\r\n    \r\n        // Transfer the CLV tokens from the user to the Stability Pool's address, and update its recorded CLV\r\n        CLV.sendToPool(_address, stabilityPoolAddress, _amount);\r\n        stabilityPool.increaseCLV(_amount);\r\n        stabilityPool.increaseTotalCLVDeposits(_amount);\r\n        \r\n        // Record the deposit made by user\r\n        deposits[_address] = _amount;\r\n    \r\n        // Record new individual snapshots of the running product P_CLV and sum S_ETH for the user\r\n        snapshot[_address].CLV = P_CLV;\r\n        snapshot[_address].ETH = scaleToSum[scale];\r\n        snapshot[_address].scale = scale;\r\n\r\n        emit UserSnapshotUpdated(snapshot[_address].CLV, snapshot[_address].ETH);\r\n        emit UserDepositChanged(_address, _amount);\r\n        return true;\r\n    }\r\n\r\n   // Transfers _address's entitled CLV (CLVDeposit - CLVLoss) and their ETHGain, to _address.\r\n    function retrieveToUser(address _address) internal returns(uint[2] memory) {\r\n        uint userDeposit = deposits[_address];\r\n\r\n        uint ETHGain = getCurrentETHGain(_address);\r\n        uint compoundedCLVDeposit = getCompoundedCLVDeposit(_address);\r\n        deposits[_address] = 0;\r\n\r\n        emit UserDepositChanged(_address, 0);\r\n\r\n        // Send CLV to user and decrease CLV in Pool\r\n        CLV.returnFromPool(stabilityPoolAddress, _address, DeciMath.getMin(compoundedCLVDeposit, stabilityPool.getCLV()));\r\n    \r\n        stabilityPool.decreaseCLV(compoundedCLVDeposit);\r\n        stabilityPool.decreaseTotalCLVDeposits(compoundedCLVDeposit);\r\n    \r\n        // Send ETH to user\r\n        stabilityPool.sendETH(_address, ETHGain);\r\n        emit ETHGainWithdrawn(_address, ETHGain);\r\n\r\n        uint[2] memory shares = [compoundedCLVDeposit, ETHGain];\r\n        return shares;\r\n    }\r\n\r\n    // Transfer _address's entitled CLV (userDeposit - CLVLoss) to _address, and their ETHGain to their CDP.\r\n    function retrieveToCDP(address _address, address _hint) internal returns(uint[2] memory) {\r\n        uint userDeposit = deposits[_address];  \r\n        require(userDeposit > 0, 'PoolManager: User must have a non-zero deposit');  \r\n        \r\n        uint ETHGain = getCurrentETHGain(_address);\r\n        uint compoundedCLVDeposit = getCompoundedCLVDeposit(_address);\r\n      \r\n        deposits[_address] = 0; \r\n       \r\n        emit UserDepositChanged(_address, 0); \r\n      \r\n        // Send CLV to user and decrease CLV in StabilityPool\r\n        CLV.returnFromPool(stabilityPoolAddress, _address, DeciMath.getMin(compoundedCLVDeposit, stabilityPool.getCLV()));\r\n        \r\n        stabilityPool.decreaseCLV(compoundedCLVDeposit);\r\n        stabilityPool.decreaseTotalCLVDeposits(userDeposit); \r\n       \r\n        // Pull ETHShare from StabilityPool, and send to CDP\r\n        stabilityPool.sendETH(address(this), ETHGain); \r\n        cdpManager.addColl.value(ETHGain)(_address, _hint); \r\n        emit ETHGainWithdrawnToCDP(_address, ETHGain);\r\n   \r\n        uint[2] memory shares = [compoundedCLVDeposit, ETHGain]; \r\n        return shares;\r\n    }\r\n\r\n    // --- External StabilityPool Functions ---\r\n\r\n    /* Send ETHGain to user's address, and updates their deposit, \r\n    setting newDeposit = (oldDeposit - CLVLoss) + amount. */\r\n    function provideToSP(uint _amount) external returns(bool) {\r\n        uint price = priceFeed.getPrice();\r\n        cdpManager.checkTCRAndSetRecoveryMode(price);\r\n\r\n        address user = _msgSender();\r\n\r\n        // If user has no deposit, make one with _amount\r\n        if (deposits[user] == 0) {\r\n            depositCLV(user, _amount);\r\n            return true;\r\n        }\r\n\r\n        /* If user already has a deposit, retrieve their ETH gain and current deposit,\r\n         then make a new composite deposit */\r\n        uint[2] memory returnedVals = retrieveToUser(user);\r\n        uint returnedCLV = returnedVals[0];\r\n\r\n        uint newDeposit = returnedCLV + _amount;\r\n        depositCLV(user, newDeposit);\r\n\r\n        return true;\r\n    }\r\n\r\n    /* Withdraw _amount of CLV and the callers entire ETHGain from the \r\n    Stability Pool, and updates the callers reduced deposit. \r\n\r\n    If  _amount is 0, the user only withdraws their ETHGain, no CLV.\r\n    If _amount > (userDeposit - CLVLoss), the user withdraws all their ETHGain and all available CLV.\r\n\r\n    In all cases, the entire ETHGain is sent to user, and the CLVLoss is applied to their deposit. */\r\n    function withdrawFromSP(uint _amount) external returns(bool) {\r\n        uint price = priceFeed.getPrice();\r\n        cdpManager.checkTCRAndSetRecoveryMode(price);\r\n\r\n        address user = _msgSender();\r\n        uint userDeposit = deposits[user];\r\n        require(userDeposit > 0, 'PoolManager: User must have a non-zero deposit');\r\n\r\n        // Retrieve all CLV and ETH for the user\r\n        uint[2] memory returnedVals = retrieveToUser(user);\r\n\r\n        uint returnedCLV = returnedVals[0];\r\n\r\n        // If requested withdrawal amount is less than available CLV, re-deposit the difference.\r\n        if (_amount < returnedCLV) {\r\n            depositCLV(user, returnedCLV.sub(_amount));\r\n        }\r\n\r\n        return true;\r\n    }\r\n\r\n    /* Transfer the callers entire ETHGain from the Stability Pool to the callers CDP. \r\n    Applies their CLVLoss to the deposit. */\r\n    function withdrawFromSPtoCDP(address _user, address _hint) external onlyCDPManagerOrUserIsSender(_user) returns(bool) {\r\n        uint price = priceFeed.getPrice();  \r\n   \r\n        cdpManager.checkTCRAndSetRecoveryMode(price); \r\n        uint userDeposit = deposits[_user]; \r\n       \r\n        if (userDeposit == 0) { return false; } \r\n        \r\n        // Retrieve all CLV to user's CLV balance, and ETH to their CDP\r\n        uint[2] memory returnedVals = retrieveToCDP(_user, _hint); \r\n \r\n        uint returnedCLV = returnedVals[0];\r\n        \r\n        // Update deposit, applying CLVLoss\r\n        depositCLV(_user, returnedCLV); \r\n        return true;\r\n    }\r\n\r\n     /* Cancel out the specified _debt against the CLV contained in the Stability Pool (as far as possible)  \r\n    and transfers the CDP's ETH collateral from ActivePool to StabilityPool. \r\n    Returns the amount of debt that could not be cancelled, and the corresponding ether.\r\n    Only callable from close() and closeCDPs() functions in CDPManager */\r\n    function offset(uint _debt, uint _coll) external payable onlyCDPManager returns (uint[2] memory) {    \r\n        uint[2] memory remainder;\r\n        uint totalCLVDeposits = stabilityPool.getTotalCLVDeposits(); \r\n        uint CLVinPool = stabilityPool.getCLV(); \r\n\r\n        // When Stability Pool has no CLV or no deposits, return all debt and coll\r\n        if (CLVinPool == 0 || totalCLVDeposits == 0 ) {\r\n            remainder[0] = _debt;\r\n            remainder[1] = _coll;\r\n            return remainder;\r\n        }\r\n        \r\n        // If the debt is larger than the deposited CLV, offset an amount of debt corresponding to the latter\r\n        uint debtToOffset = DeciMath.getMin(_debt, CLVinPool);  \r\n\r\n        console.log(\"debtToOffset is %s\", debtToOffset);\r\n\r\n        // Collateral to be added in proportion to the debt that is cancelled \r\n        uint collToAdd = _coll.mul(debtToOffset).div(_debt);\r\n        \r\n    //      console.log(\"debtToOffset is %s\", debtToOffset);\r\n    //    console.log(\"lastCLVLossError_Offset is %s\", lastCLVLossError_Offset);\r\n        uint CLVLossNumerator = debtToOffset.mul(1e18).sub(lastCLVLossError_Offset);\r\n        console.log(\"CLVLossNumerator is %s\", CLVLossNumerator);\r\n\r\n        uint ETHNumerator = collToAdd.mul(1e18).add(lastETHError_Offset);\r\n       \r\n    //    console.log(\"CLVLossNumerator is %s\", CLVLossNumerator);\r\n    //    console.log(\"totalCLVDeposits is %s\", totalCLVDeposits);\r\n\r\n        // compute the CLV and ETH rewards \r\n        uint CLVLossPerUnitStaked = (CLVLossNumerator.div(totalCLVDeposits)).add(1);  \r\n        uint ETHGainPerUnitStaked = ETHNumerator.div(totalCLVDeposits); // Error in quotient is negative\r\n\r\n        // console.log(\"CLVLossPerUnitStaked is %s\", CLVLossPerUnitStaked);\r\n        // console.log(\"ETHGainPerUnitStaked is %s\", ETHGainPerUnitStaked);\r\n        \r\n        // Error corrections\r\n        lastCLVLossError_Offset = (CLVLossPerUnitStaked.mul(totalCLVDeposits)).sub(CLVLossNumerator);\r\n        lastETHError_Offset = ETHNumerator.sub(ETHGainPerUnitStaked.mul(totalCLVDeposits));  \r\n\r\n        // console.log(\"CLVLossPerUnitStaked is %s\", CLVLossPerUnitStaked);\r\n\r\n        // Return 1 wei if product factor should be 0 from a full offset\r\n        uint productFactor = CLVLossPerUnitStaked >= 1e18 ? 1 : uint(1e18).sub(CLVLossPerUnitStaked);\r\n        console.log(\"CLVLossPerUnitStaked is %s\", CLVLossPerUnitStaked );\r\n        console.log(\"totalCLVDeposits is %s\", totalCLVDeposits);\r\n        console.log(\"product factor is %s\", productFactor );\r\n        // TODO: Error correction for P_CLV and marginalETHGain?\r\n        \r\n        // Update the sum:\r\n        uint marginalETHGain = ETHGainPerUnitStaked.mul(P_CLV);\r\n        // console.log(\"PM:: marginal ETH Gain:  %s\", marginalETHGain);\r\n        scaleToSum[scale] = scaleToSum[scale].add(marginalETHGain);\r\n        // S_ETH = S_ETH.add(marginalETHGain);\r\n        emit S_ETHUpdated(scaleToSum[scale]); \r\n\r\n        /* if multiplication by the product factor would round P to zero,\r\n        increment the scale */\r\n        if (P_CLV.mul(productFactor) < 1e18) {\r\n            // uint marginalETHGain = ETHGainPerUnitStaked.mul(P_CLV);\r\n            // scaleToSum[scale] = scaleToSum[scale].add(marginalETHGain);\r\n            P_CLV = P_CLV.mul(productFactor);\r\n            scale = scale.add(1);\r\n         } else {\r\n            // uint marginalETHGain = ETHGainPerUnitStaked.mul(P_CLV).div(1e18);\r\n            // scaleToSum[scale] = scaleToSum[scale].add(marginalETHGain);\r\n            P_CLV = P_CLV.mul(productFactor).div(1e18); \r\n        }\r\n\r\n        emit P_CLVUpdated(P_CLV); \r\n\r\n        // Decrease totalCLVDeposits\r\n        stabilityPool.decreaseTotalCLVDeposits(debtToOffset);\r\n      \r\n        // Cancel the liquidated CLV debt with the CLV in the stability pool\r\n        // console.log(\"debtToOffset is %s\", debtToOffset);\r\n        // console.log(\"activePool.getCLV() is %s\", activePool.getCLV());\r\n        activePool.decreaseCLV(debtToOffset);  \r\n        stabilityPool.decreaseCLV(debtToOffset); \r\n       \r\n        // Send ETH from Active Pool to Stability Pool\r\n        activePool.sendETH(stabilityPoolAddress, collToAdd);  \r\n\r\n        // Burn the debt that was successfully offset\r\n        CLV.burn(stabilityPoolAddress, debtToOffset); \r\n\r\n        // Return the amount of debt & coll that could not be offset against the Stability Pool due to insufficiency\r\n        remainder[0] = _debt.sub(debtToOffset);\r\n        remainder[1] = _coll.sub(collToAdd);\r\n        return remainder;\r\n    }\r\n\r\n    function () external payable onlyStabilityPoolorActivePool {}\r\n}    ",
  "sourcePath": "c:/Users/Rick/Desktop/Cleverage/packages/contracts/contracts/PoolManager.sol",
  "compiler": {
    "name": "solc",
    "version": "0.5.11+commit.c082d0b4.Emscripten.clang"
  },
  "schemaVersion": "3.0.20",
  "updatedAt": "2020-04-26T18:49:44.937Z",
  "devdoc": {
    "methods": {
      "isOwner()": {
        "details": "Returns true if the caller is the current owner."
      },
      "owner()": {
        "details": "Returns the address of the current owner."
      },
      "renounceOwnership()": {
        "details": "Leaves the contract without owner. It will not be possible to call `onlyOwner` functions anymore. Can only be called by the current owner.     * NOTE: Renouncing ownership will leave the contract without an owner, thereby removing any functionality that is only available to the owner."
      },
      "transferOwnership(address)": {
        "details": "Transfers ownership of the contract to a new account (`newOwner`). Can only be called by the current owner."
      }
    }
  },
  "userdoc": {
    "methods": {}
  }
}