{
  "contractName": "PriceFeed",
  "abi": [
    {
      "anonymous": false,
      "inputs": [
        {
          "indexed": false,
          "internalType": "address",
          "name": "_cdpManagerAddress",
          "type": "address"
        }
      ],
      "name": "CDPManagerAddressChanged",
      "type": "event"
    },
    {
      "anonymous": false,
      "inputs": [
        {
          "indexed": true,
          "internalType": "address",
          "name": "previousOwner",
          "type": "address"
        },
        {
          "indexed": true,
          "internalType": "address",
          "name": "newOwner",
          "type": "address"
        }
      ],
      "name": "OwnershipTransferred",
      "type": "event"
    },
    {
      "anonymous": false,
      "inputs": [
        {
          "indexed": false,
          "internalType": "address",
          "name": "_poolManagerAddress",
          "type": "address"
        }
      ],
      "name": "PoolManagerAddressChanged",
      "type": "event"
    },
    {
      "anonymous": false,
      "inputs": [
        {
          "indexed": false,
          "internalType": "uint256",
          "name": "_newPrice",
          "type": "uint256"
        }
      ],
      "name": "PriceUpdated",
      "type": "event"
    },
    {
      "constant": true,
      "inputs": [],
      "name": "cdpManagerAddress",
      "outputs": [
        {
          "internalType": "address",
          "name": "",
          "type": "address"
        }
      ],
      "payable": false,
      "stateMutability": "view",
      "type": "function"
    },
    {
      "constant": true,
      "inputs": [],
      "name": "isOwner",
      "outputs": [
        {
          "internalType": "bool",
          "name": "",
          "type": "bool"
        }
      ],
      "payable": false,
      "stateMutability": "view",
      "type": "function"
    },
    {
      "constant": true,
      "inputs": [],
      "name": "owner",
      "outputs": [
        {
          "internalType": "address",
          "name": "",
          "type": "address"
        }
      ],
      "payable": false,
      "stateMutability": "view",
      "type": "function"
    },
    {
      "constant": true,
      "inputs": [],
      "name": "poolManagerAddress",
      "outputs": [
        {
          "internalType": "address",
          "name": "",
          "type": "address"
        }
      ],
      "payable": false,
      "stateMutability": "view",
      "type": "function"
    },
    {
      "constant": true,
      "inputs": [],
      "name": "price",
      "outputs": [
        {
          "internalType": "uint256",
          "name": "",
          "type": "uint256"
        }
      ],
      "payable": false,
      "stateMutability": "view",
      "type": "function"
    },
    {
      "constant": true,
      "inputs": [],
      "name": "priceAggregatorAddress",
      "outputs": [
        {
          "internalType": "address",
          "name": "",
          "type": "address"
        }
      ],
      "payable": false,
      "stateMutability": "view",
      "type": "function"
    },
    {
      "constant": true,
      "inputs": [],
      "name": "priceAggregatorAddress_Testnet",
      "outputs": [
        {
          "internalType": "address",
          "name": "",
          "type": "address"
        }
      ],
      "payable": false,
      "stateMutability": "view",
      "type": "function"
    },
    {
      "constant": false,
      "inputs": [],
      "name": "renounceOwnership",
      "outputs": [],
      "payable": false,
      "stateMutability": "nonpayable",
      "type": "function"
    },
    {
      "constant": false,
      "inputs": [
        {
          "internalType": "address",
          "name": "newOwner",
          "type": "address"
        }
      ],
      "name": "transferOwnership",
      "outputs": [],
      "payable": false,
      "stateMutability": "nonpayable",
      "type": "function"
    },
    {
      "constant": false,
      "inputs": [
        {
          "internalType": "address",
          "name": "_cdpManagerAddress",
          "type": "address"
        }
      ],
      "name": "setCDPManagerAddress",
      "outputs": [],
      "payable": false,
      "stateMutability": "nonpayable",
      "type": "function"
    },
    {
      "constant": false,
      "inputs": [
        {
          "internalType": "address",
          "name": "_poolManagerAddress",
          "type": "address"
        }
      ],
      "name": "setPoolManagerAddress",
      "outputs": [],
      "payable": false,
      "stateMutability": "nonpayable",
      "type": "function"
    },
    {
      "constant": false,
      "inputs": [
        {
          "internalType": "address",
          "name": "_priceAggregatorAddress",
          "type": "address"
        }
      ],
      "name": "setAggregator",
      "outputs": [],
      "payable": false,
      "stateMutability": "nonpayable",
      "type": "function"
    },
    {
      "constant": false,
      "inputs": [
        {
          "internalType": "address",
          "name": "_priceAggregatorAddress",
          "type": "address"
        }
      ],
      "name": "setAggregator_Testnet",
      "outputs": [],
      "payable": false,
      "stateMutability": "nonpayable",
      "type": "function"
    },
    {
      "constant": true,
      "inputs": [],
      "name": "getPrice",
      "outputs": [
        {
          "internalType": "uint256",
          "name": "",
          "type": "uint256"
        }
      ],
      "payable": false,
      "stateMutability": "view",
      "type": "function"
    },
    {
      "constant": false,
      "inputs": [
        {
          "internalType": "uint256",
          "name": "_price",
          "type": "uint256"
        }
      ],
      "name": "setPrice",
      "outputs": [
        {
          "internalType": "bool",
          "name": "",
          "type": "bool"
        }
      ],
      "payable": false,
      "stateMutability": "nonpayable",
      "type": "function"
    },
    {
      "constant": false,
      "inputs": [],
      "name": "updatePrice",
      "outputs": [
        {
          "internalType": "uint256",
          "name": "",
          "type": "uint256"
        }
      ],
      "payable": false,
      "stateMutability": "nonpayable",
      "type": "function"
    },
    {
      "constant": true,
      "inputs": [],
      "name": "getLatestPrice",
      "outputs": [
        {
          "internalType": "uint256",
          "name": "",
          "type": "uint256"
        }
      ],
      "payable": false,
      "stateMutability": "view",
      "type": "function"
    },
    {
      "constant": true,
      "inputs": [],
      "name": "getLatestAnswerID",
      "outputs": [
        {
          "internalType": "uint256",
          "name": "",
          "type": "uint256"
        }
      ],
      "payable": false,
      "stateMutability": "view",
      "type": "function"
    },
    {
      "constant": true,
      "inputs": [],
      "name": "getLatestTimestamp",
      "outputs": [
        {
          "internalType": "uint256",
          "name": "",
          "type": "uint256"
        }
      ],
      "payable": false,
      "stateMutability": "view",
      "type": "function"
    },
    {
      "constant": false,
      "inputs": [],
      "name": "updatePrice_Testnet",
      "outputs": [
        {
          "internalType": "uint256",
          "name": "",
          "type": "uint256"
        }
      ],
      "payable": false,
      "stateMutability": "nonpayable",
      "type": "function"
    },
    {
      "constant": true,
      "inputs": [],
      "name": "getLatestPrice_Testnet",
      "outputs": [
        {
          "internalType": "uint256",
          "name": "",
          "type": "uint256"
        }
      ],
      "payable": false,
      "stateMutability": "view",
      "type": "function"
    },
    {
      "constant": true,
      "inputs": [],
      "name": "getLatestTimestamp_Testnet",
      "outputs": [
        {
          "internalType": "uint256",
          "name": "",
          "type": "uint256"
        }
      ],
      "payable": false,
      "stateMutability": "view",
      "type": "function"
    },
    {
      "constant": true,
      "inputs": [
        {
          "internalType": "uint256",
          "name": "_n",
          "type": "uint256"
        }
      ],
      "name": "getPreviousPrice_Testnet",
      "outputs": [
        {
          "internalType": "uint256",
          "name": "",
          "type": "uint256"
        }
      ],
      "payable": false,
      "stateMutability": "view",
      "type": "function"
    },
    {
      "constant": true,
      "inputs": [
        {
          "internalType": "uint256",
          "name": "_n",
          "type": "uint256"
        }
      ],
      "name": "getPreviousTimestamp_Testnet",
      "outputs": [
        {
          "internalType": "uint256",
          "name": "",
          "type": "uint256"
        }
      ],
      "payable": false,
      "stateMutability": "view",
      "type": "function"
    }
  ],
  "bytecode": "0x6080604052680ad78ebc5ac620000060015560006100246001600160e01b0361007316565b600080546001600160a01b0319166001600160a01b0383169081178255604051929350917f8be0079c531659141344cd1fd0a4f28419497f9722a3daafe3b4186f6b6457e0908290a350610077565b3390565b611098806100866000396000f3fe608060405234801561001057600080fd5b50600436106101985760003560e01c80638f32d59b116100e3578063e6a13f301161008c578063f43b52cb11610066578063f43b52cb14610340578063f9120af614610348578063fd98e6fe1461036e57610198565b8063e6a13f30146102ec578063ef6151a6146102f4578063f2fde38b1461031a57610198565b806398d5fdca116100bd57806398d5fdca146102b6578063a035b1fe146102be578063ab95b1a2146102c657610198565b80638f32d59b1461025757806391b7f5ed1461027357806396ea31b31461029057610198565b80635191b4f31161014557806379e1b7fc1161011f57806379e1b7fc1461022a5780638da5cb5b146102475780638e15f4731461024f57610198565b80635191b4f314610210578063673a7e2814610218578063715018a61461022057610198565b806314f11c201161017657806314f11c20146101f85780632eca58d11461020057806334a622411461020857610198565b8063024850af1461019d57806302f6567f146101b7578063073c3077146101db575b600080fd5b6101a5610376565b60408051918252519081900360200190f35b6101bf6103f9565b604080516001600160a01b039092168252519081900360200190f35b6101a5600480360360208110156101f157600080fd5b5035610408565b6101a5610575565b6101a561064f565b6101bf6106de565b6101bf6106ed565b6101a56106fc565b6102286107c3565b005b6101a56004803603602081101561024057600080fd5b5035610866565b6101bf610a2b565b6101a5610a3a565b61025f610afe565b604080519115158252519081900360200190f35b61025f6004803603602081101561028957600080fd5b5035610b22565b610228600480360360208110156102a657600080fd5b50356001600160a01b0316610b66565b6101a5610be1565b6101a5610be7565b610228600480360360208110156102dc57600080fd5b50356001600160a01b0316610bed565b6101bf610c9a565b6102286004803603602081101561030a57600080fd5b50356001600160a01b0316610ca9565b6102286004803603602081101561033057600080fd5b50356001600160a01b0316610d61565b6101a5610dc6565b6102286004803603602081101561035e57600080fd5b50356001600160a01b0316610e24565b6101a5610ea9565b600080600860009054906101000a90046001600160a01b03166001600160a01b0316638205bf6a6040518163ffffffff1660e01b815260040160206040518083038186803b1580156103c757600080fd5b505afa1580156103db573d6000803e3d6000fd5b505050506040513d60208110156103f157600080fd5b505191505090565b6002546001600160a01b031681565b600080600860009054906101000a90046001600160a01b03166001600160a01b031663668a0f026040518163ffffffff1660e01b815260040160206040518083038186803b15801561045957600080fd5b505afa15801561046d573d6000803e3d6000fd5b505050506040513d602081101561048357600080fd5b50519050808311156104dc576040805162461bcd60e51b815260206004820152601260248201527f4e6f7420656e6f75676820686973746f72790000000000000000000000000000604482015290519081900360640190fd5b600854604080517fb633620c000000000000000000000000000000000000000000000000000000008152858403600482015290516001600160a01b039092169163b633620c91602480820192602092909190829003018186803b15801561054257600080fd5b505afa158015610556573d6000803e3d6000fd5b505050506040513d602081101561056c57600080fd5b50519392505050565b600080600860009054906101000a90046001600160a01b03166001600160a01b03166350d25bcd6040518163ffffffff1660e01b815260040160206040518083038186803b1580156105c657600080fd5b505afa1580156105da573d6000803e3d6000fd5b505050506040513d60208110156105f057600080fd5b5051905060008112156106345760405162461bcd60e51b815260040180806020018281038252602e815260200180611036602e913960400191505060405180910390fd5b610649816402540be40063ffffffff610eb316565b91505090565b600654604080517f6a79b2b600000000000000000000000000000000000000000000000000000000815290516000926001600160a01b031691636a79b2b6916004808301926020929190829003018186803b1580156106ad57600080fd5b505afa1580156106c1573d6000803e3d6000fd5b505050506040513d60208110156106d757600080fd5b5051905090565b6005546001600160a01b031681565b6007546001600160a01b031681565b6002546000906001600160a01b0316610713610f15565b6001600160a01b0316148061074257506003546001600160a01b0316610737610f15565b6001600160a01b0316145b61077d5760405162461bcd60e51b8152600401808060200182810382526035815260200180610fba6035913960400191505060405180910390fd5b610785610a3a565b600181905560408051918252517f66cbca4f3c64fecf1dcb9ce094abcf7f68c3450a1d4e3a8e917dd621edb4ebe09181900360200190a15060015490565b6107cb610afe565b61081c576040805162461bcd60e51b815260206004820181905260248201527f4f776e61626c653a2063616c6c6572206973206e6f7420746865206f776e6572604482015290519081900360640190fd5b600080546040516001600160a01b03909116907f8be0079c531659141344cd1fd0a4f28419497f9722a3daafe3b4186f6b6457e0908390a3600080546001600160a01b0319169055565b600080600860009054906101000a90046001600160a01b03166001600160a01b031663668a0f026040518163ffffffff1660e01b815260040160206040518083038186803b1580156108b757600080fd5b505afa1580156108cb573d6000803e3d6000fd5b505050506040513d60208110156108e157600080fd5b505190508083111561093a576040805162461bcd60e51b815260206004820152601260248201527f4e6f7420656e6f75676820686973746f72790000000000000000000000000000604482015290519081900360640190fd5b600854604080517fb5ab58dc000000000000000000000000000000000000000000000000000000008152858403600482015290516000926001600160a01b03169163b5ab58dc916024808301926020929190829003018186803b1580156109a057600080fd5b505afa1580156109b4573d6000803e3d6000fd5b505050506040513d60208110156109ca57600080fd5b505190506000811215610a0e5760405162461bcd60e51b815260040180806020018281038252602e815260200180611036602e913960400191505060405180910390fd5b610a23816402540be40063ffffffff610eb316565b949350505050565b6000546001600160a01b031690565b600080600660009054906101000a90046001600160a01b03166001600160a01b0316637e1b4cb06040518163ffffffff1660e01b815260040160206040518083038186803b158015610a8b57600080fd5b505afa158015610a9f573d6000803e3d6000fd5b505050506040513d6020811015610ab557600080fd5b505190506000811215610af95760405162461bcd60e51b815260040180806020018281038252602e815260200180611036602e913960400191505060405180910390fd5b905090565b600080546001600160a01b0316610b13610f15565b6001600160a01b031614905090565b60018190556040805182815290516000917f66cbca4f3c64fecf1dcb9ce094abcf7f68c3450a1d4e3a8e917dd621edb4ebe0919081900360200190a1506001919050565b610b6e610afe565b610bbf576040805162461bcd60e51b815260206004820181905260248201527f4f776e61626c653a2063616c6c6572206973206e6f7420746865206f776e6572604482015290519081900360640190fd5b600880546001600160a01b0319166001600160a01b0392909216919091179055565b60015490565b60015481565b610bf5610afe565b610c46576040805162461bcd60e51b815260206004820181905260248201527f4f776e61626c653a2063616c6c6572206973206e6f7420746865206f776e6572604482015290519081900360640190fd5b600380546001600160a01b0383166001600160a01b0319909116811790915560408051918252517f4d839b74477afe774fbb734df87db25e56c0427973aac588bb3ce7ce937f88509181900360200190a150565b6003546001600160a01b031681565b610cb1610afe565b610d02576040805162461bcd60e51b815260206004820181905260248201527f4f776e61626c653a2063616c6c6572206973206e6f7420746865206f776e6572604482015290519081900360640190fd5b600280546001600160a01b0383166001600160a01b03199182168117909255600480549091168217905560408051918252517f0addbd30df51ac41ccaf56a058c50522fbdc092b4e2ec8b829b29ad6716bd0979181900360200190a150565b610d69610afe565b610dba576040805162461bcd60e51b815260206004820181905260248201527f4f776e61626c653a2063616c6c6572206973206e6f7420746865206f776e6572604482015290519081900360640190fd5b610dc381610f19565b50565b600654604080517ff9f3e03500000000000000000000000000000000000000000000000000000000815290516000926001600160a01b03169163f9f3e035916004808301926020929190829003018186803b1580156106ad57600080fd5b610e2c610afe565b610e7d576040805162461bcd60e51b815260206004820181905260248201527f4f776e61626c653a2063616c6c6572206973206e6f7420746865206f776e6572604482015290519081900360640190fd5b600580546001600160a01b039092166001600160a01b0319928316811790915560068054909216179055565b6000610785610575565b600082610ec257506000610f0f565b82820282848281610ecf57fe5b0414610f0c5760405162461bcd60e51b81526004018080602001828103825260218152602001806110156021913960400191505060405180910390fd5b90505b92915050565b3390565b6001600160a01b038116610f5e5760405162461bcd60e51b8152600401808060200182810382526026815260200180610fef6026913960400191505060405180910390fd5b600080546040516001600160a01b03808516939216917f8be0079c531659141344cd1fd0a4f28419497f9722a3daafe3b4186f6b6457e091a3600080546001600160a01b0319166001600160a01b039290921691909117905556fe5072696365466565643a206f6e6c792063616c6c61626c65206279204344504d616e61676572206f7220506f6f6c4d616e616765724f776e61626c653a206e6577206f776e657220697320746865207a65726f2061646472657373536166654d6174683a206d756c7469706c69636174696f6e206f766572666c6f77507269636520726573706f6e73652066726f6d2061676772656761746f72206973206e6567617469766520696e74a265627a7a7231582004d8b1a958d4106539a82e57188f2e24d2d8c43a19359c2cb9f4400bb1ee0fb864736f6c63430005100032",
  "source": "pragma solidity ^0.5.16;\r\n\r\n\r\nimport \"./Interfaces/ICDPManager.sol\";\r\nimport \"./Interfaces/IPriceFeed.sol\";\r\nimport \"./Interfaces/IDeployedAggregator.sol\";\r\nimport \"./Interfaces/AggregatorInterface.sol\";\r\n// import \"@openzeppelin/contracts/math/SafeMath.sol\";\r\n// import \"@openzeppelin/contracts/ownership/Ownable.sol\";\r\n// import \"@nomiclabs/buidler/console.sol\";\r\nimport \"./SafeMath.sol\";\r\nimport \"./Ownable.sol\";\r\nimport \"./console.sol\";\r\n\r\ncontract PriceFeed is Ownable, IPriceFeed {\r\n    using SafeMath for uint256;\r\n\r\n    uint256 constant DIGITS = 1e18;\r\n    uint256 public price = 200 * DIGITS;\r\n\r\n    address public cdpManagerAddress;\r\n    address public poolManagerAddress;\r\n    \r\n    ICDPManager cdpManager;\r\n\r\n    // Mainnet Chainlink aggregator\r\n    address public priceAggregatorAddress;\r\n    IDeployedAggregator priceAggregator;\r\n\r\n    // Testnet Chainlink aggregator\r\n    address public priceAggregatorAddress_Testnet;\r\n    AggregatorInterface priceAggregator_Testnet;\r\n\r\n    event PriceUpdated(uint256 _newPrice);\r\n    event CDPManagerAddressChanged(address _cdpManagerAddress);\r\n    event PoolManagerAddressChanged(address _poolManagerAddress);\r\n\r\n    // --- Dependency setters ---\r\n\r\n    function setCDPManagerAddress(address _cdpManagerAddress) public onlyOwner {\r\n        cdpManagerAddress = _cdpManagerAddress;\r\n        cdpManager = ICDPManager(_cdpManagerAddress);\r\n        emit CDPManagerAddressChanged(_cdpManagerAddress);\r\n    }\r\n\r\n    function setPoolManagerAddress(address _poolManagerAddress) public onlyOwner {\r\n        poolManagerAddress = _poolManagerAddress;\r\n        emit PoolManagerAddressChanged(_poolManagerAddress);\r\n    }\r\n\r\n    // Mainnet Chainlink address setter\r\n    function setAggregator(address _priceAggregatorAddress) public onlyOwner {\r\n        priceAggregatorAddress = _priceAggregatorAddress;\r\n        priceAggregator = IDeployedAggregator(_priceAggregatorAddress);\r\n    }\r\n\r\n    // Testnet Chainlink address setter\r\n    function setAggregator_Testnet(address _priceAggregatorAddress) public onlyOwner {\r\n        priceAggregator_Testnet = AggregatorInterface(_priceAggregatorAddress);\r\n    }\r\n\r\n    // --- Modifiers ---\r\n\r\n    modifier onlyCDPManagerOrPoolManager {\r\n        require(_msgSender() == cdpManagerAddress ||_msgSender() == poolManagerAddress,\r\n            \"PriceFeed: only callable by CDPManager or PoolManager\"\r\n        );\r\n        _;\r\n    }\r\n\r\n    // --- Functions ---\r\n\r\n    function getPrice() public view returns (uint256) {\r\n        return price;\r\n    }\r\n\r\n    // --- DEVELOPMENT FUNCTIONALITY  ---\r\n\r\n    /* Manual price setter for owner. \r\n    TODO: remove before mainnet deployment. */\r\n    function setPrice(uint256 _price) public returns (bool) {\r\n        price = _price;\r\n        emit PriceUpdated(price);\r\n        return true;\r\n    }\r\n\r\n    // --- MAINNET FUNCTIONALITY ---\r\n\r\n    // TODO: convert received Chainlink price to precision-18 before setting state variable\r\n    function updatePrice() public onlyCDPManagerOrPoolManager returns (uint256) {\r\n        price = getLatestPrice();\r\n        emit PriceUpdated(price);\r\n        return price;\r\n    }\r\n\r\n    function getLatestPrice() public view returns (uint256) {\r\n        int256 intPrice = priceAggregator.currentAnswer();\r\n        require(intPrice >= 0, \"Price response from aggregator is negative int\");\r\n\r\n        return uint256(intPrice);\r\n    }\r\n\r\n    function getLatestAnswerID() public view returns (uint256) {\r\n        return priceAggregator.latestCompletedAnswer();\r\n    }\r\n\r\n    // Get the block timestamp at which the reference price was last updated\r\n    function getLatestTimestamp() public view returns (uint256) {\r\n        return priceAggregator.updatedHeight();\r\n    }\r\n\r\n    // ---- ROPSTEN FUNCTIONALITY - TODO: Remove before Mainnet deployment ----\r\n\r\n    function updatePrice_Testnet() public returns (uint256) {\r\n        price = getLatestPrice_Testnet();\r\n        emit PriceUpdated(price);\r\n        return price;\r\n    }\r\n\r\n    function getLatestPrice_Testnet() public view returns (uint256) {\r\n        int256 intPrice = priceAggregator_Testnet.latestAnswer();\r\n        require( intPrice >= 0, \"Price response from aggregator is negative int\");\r\n\r\n        return uint256(intPrice).mul(10000000000);\r\n    }\r\n\r\n    // Get the block timestamp at which the reference data was last updated\r\n    function getLatestTimestamp_Testnet() public view returns (uint256) {\r\n        uint256 latestTimestamp = priceAggregator_Testnet.latestTimestamp();\r\n\r\n        return latestTimestamp;\r\n    }\r\n\r\n    // Get the past price from 'n' rounds ago\r\n    function getPreviousPrice_Testnet(uint256 _n) public view returns (uint256) {\r\n        uint256 latestAnswerID = priceAggregator_Testnet.latestRound();\r\n        require(_n <= latestAnswerID, \"Not enough history\");\r\n\r\n        int256 prevPrice = priceAggregator_Testnet.getAnswer(latestAnswerID - _n);\r\n        require(prevPrice >= 0, \"Price response from aggregator is negative int\");\r\n\r\n        return uint256(prevPrice).mul(10000000000);\r\n    }\r\n\r\n    // Get the block timestamp from the round that occurred 'n' rounds ago\r\n    function getPreviousTimestamp_Testnet(uint256 _n) public view returns (uint256) {\r\n        uint256 latestAnswerID = priceAggregator_Testnet.latestRound();\r\n        require(_n <= latestAnswerID, \"Not enough history\");\r\n\r\n        return priceAggregator_Testnet.getTimestamp(latestAnswerID - _n);\r\n    }\r\n}\r\n\r\n",
  "sourcePath": "/home/training/contracts/PriceFeed.sol",
  "compiler": {
    "name": "solc",
    "version": "0.5.16+commit.9c3226ce.Emscripten.clang"
  },
  "schemaVersion": "3.1.0",
  "updatedAt": "2020-06-03T00:09:10.721Z",
  "devdoc": {
    "methods": {
      "isOwner()": {
        "details": "Returns true if the caller is the current owner."
      },
      "owner()": {
        "details": "Returns the address of the current owner."
      },
      "renounceOwnership()": {
        "details": "Leaves the contract without owner. It will not be possible to call `onlyOwner` functions anymore. Can only be called by the current owner.     * NOTE: Renouncing ownership will leave the contract without an owner, thereby removing any functionality that is only available to the owner."
      },
      "transferOwnership(address)": {
        "details": "Transfers ownership of the contract to a new account (`newOwner`). Can only be called by the current owner."
      }
    }
  },
  "userdoc": {
    "methods": {}
  }
}