{
  "contractName": "SortedCDPs",
  "abi": [
    {
      "constant": false,
      "inputs": [],
      "name": "renounceOwnership",
      "outputs": [],
      "payable": false,
      "stateMutability": "nonpayable",
      "type": "function"
    },
    {
      "constant": true,
      "inputs": [],
      "name": "owner",
      "outputs": [
        {
          "internalType": "address",
          "name": "",
          "type": "address"
        }
      ],
      "payable": false,
      "stateMutability": "view",
      "type": "function"
    },
    {
      "constant": true,
      "inputs": [],
      "name": "isOwner",
      "outputs": [
        {
          "internalType": "bool",
          "name": "",
          "type": "bool"
        }
      ],
      "payable": false,
      "stateMutability": "view",
      "type": "function"
    },
    {
      "constant": false,
      "inputs": [
        {
          "internalType": "address",
          "name": "newOwner",
          "type": "address"
        }
      ],
      "name": "transferOwnership",
      "outputs": [],
      "payable": false,
      "stateMutability": "nonpayable",
      "type": "function"
    },
    {
      "inputs": [],
      "payable": false,
      "stateMutability": "nonpayable",
      "type": "constructor"
    },
    {
      "anonymous": false,
      "inputs": [
        {
          "indexed": false,
          "internalType": "address",
          "name": "_newCDPlManagerAddress",
          "type": "address"
        }
      ],
      "name": "CDPManagerAddressChanged",
      "type": "event"
    },
    {
      "anonymous": false,
      "inputs": [
        {
          "indexed": false,
          "internalType": "address",
          "name": "_sortedDoublyLLAddress",
          "type": "address"
        }
      ],
      "name": "SortedCDPsAddressChanged",
      "type": "event"
    },
    {
      "anonymous": false,
      "inputs": [
        {
          "indexed": true,
          "internalType": "address",
          "name": "previousOwner",
          "type": "address"
        },
        {
          "indexed": true,
          "internalType": "address",
          "name": "newOwner",
          "type": "address"
        }
      ],
      "name": "OwnershipTransferred",
      "type": "event"
    },
    {
      "constant": false,
      "inputs": [
        {
          "internalType": "address",
          "name": "_CDPManagerAddress",
          "type": "address"
        }
      ],
      "name": "setCDPManager",
      "outputs": [],
      "payable": false,
      "stateMutability": "nonpayable",
      "type": "function"
    },
    {
      "constant": false,
      "inputs": [
        {
          "internalType": "uint256",
          "name": "_size",
          "type": "uint256"
        }
      ],
      "name": "setMaxSize",
      "outputs": [],
      "payable": false,
      "stateMutability": "nonpayable",
      "type": "function"
    },
    {
      "constant": false,
      "inputs": [
        {
          "internalType": "address",
          "name": "_id",
          "type": "address"
        },
        {
          "internalType": "uint256",
          "name": "_ICR",
          "type": "uint256"
        },
        {
          "internalType": "uint256",
          "name": "_price",
          "type": "uint256"
        },
        {
          "internalType": "address",
          "name": "_prevId",
          "type": "address"
        },
        {
          "internalType": "address",
          "name": "_nextId",
          "type": "address"
        }
      ],
      "name": "insert",
      "outputs": [],
      "payable": false,
      "stateMutability": "nonpayable",
      "type": "function"
    },
    {
      "constant": false,
      "inputs": [
        {
          "internalType": "address",
          "name": "_id",
          "type": "address"
        }
      ],
      "name": "remove",
      "outputs": [],
      "payable": false,
      "stateMutability": "nonpayable",
      "type": "function"
    },
    {
      "constant": false,
      "inputs": [
        {
          "internalType": "address",
          "name": "_id",
          "type": "address"
        },
        {
          "internalType": "uint256",
          "name": "_newICR",
          "type": "uint256"
        },
        {
          "internalType": "uint256",
          "name": "_price",
          "type": "uint256"
        },
        {
          "internalType": "address",
          "name": "_prevId",
          "type": "address"
        },
        {
          "internalType": "address",
          "name": "_nextId",
          "type": "address"
        }
      ],
      "name": "reInsert",
      "outputs": [],
      "payable": false,
      "stateMutability": "nonpayable",
      "type": "function"
    },
    {
      "constant": true,
      "inputs": [
        {
          "internalType": "address",
          "name": "_id",
          "type": "address"
        }
      ],
      "name": "contains",
      "outputs": [
        {
          "internalType": "bool",
          "name": "",
          "type": "bool"
        }
      ],
      "payable": false,
      "stateMutability": "view",
      "type": "function"
    },
    {
      "constant": true,
      "inputs": [],
      "name": "isFull",
      "outputs": [
        {
          "internalType": "bool",
          "name": "",
          "type": "bool"
        }
      ],
      "payable": false,
      "stateMutability": "view",
      "type": "function"
    },
    {
      "constant": true,
      "inputs": [],
      "name": "isEmpty",
      "outputs": [
        {
          "internalType": "bool",
          "name": "",
          "type": "bool"
        }
      ],
      "payable": false,
      "stateMutability": "view",
      "type": "function"
    },
    {
      "constant": true,
      "inputs": [],
      "name": "getSize",
      "outputs": [
        {
          "internalType": "uint256",
          "name": "",
          "type": "uint256"
        }
      ],
      "payable": false,
      "stateMutability": "view",
      "type": "function"
    },
    {
      "constant": true,
      "inputs": [],
      "name": "getMaxSize",
      "outputs": [
        {
          "internalType": "uint256",
          "name": "",
          "type": "uint256"
        }
      ],
      "payable": false,
      "stateMutability": "view",
      "type": "function"
    },
    {
      "constant": true,
      "inputs": [],
      "name": "getFirst",
      "outputs": [
        {
          "internalType": "address",
          "name": "",
          "type": "address"
        }
      ],
      "payable": false,
      "stateMutability": "view",
      "type": "function"
    },
    {
      "constant": true,
      "inputs": [],
      "name": "getLast",
      "outputs": [
        {
          "internalType": "address",
          "name": "",
          "type": "address"
        }
      ],
      "payable": false,
      "stateMutability": "view",
      "type": "function"
    },
    {
      "constant": true,
      "inputs": [
        {
          "internalType": "address",
          "name": "_id",
          "type": "address"
        }
      ],
      "name": "getNext",
      "outputs": [
        {
          "internalType": "address",
          "name": "",
          "type": "address"
        }
      ],
      "payable": false,
      "stateMutability": "view",
      "type": "function"
    },
    {
      "constant": true,
      "inputs": [
        {
          "internalType": "address",
          "name": "_id",
          "type": "address"
        }
      ],
      "name": "getPrev",
      "outputs": [
        {
          "internalType": "address",
          "name": "",
          "type": "address"
        }
      ],
      "payable": false,
      "stateMutability": "view",
      "type": "function"
    },
    {
      "constant": true,
      "inputs": [
        {
          "internalType": "uint256",
          "name": "_ICR",
          "type": "uint256"
        },
        {
          "internalType": "uint256",
          "name": "_price",
          "type": "uint256"
        },
        {
          "internalType": "address",
          "name": "_prevId",
          "type": "address"
        },
        {
          "internalType": "address",
          "name": "_nextId",
          "type": "address"
        }
      ],
      "name": "validInsertPosition",
      "outputs": [
        {
          "internalType": "bool",
          "name": "",
          "type": "bool"
        }
      ],
      "payable": false,
      "stateMutability": "view",
      "type": "function"
    },
    {
      "constant": true,
      "inputs": [
        {
          "internalType": "uint256",
          "name": "_ICR",
          "type": "uint256"
        },
        {
          "internalType": "uint256",
          "name": "_price",
          "type": "uint256"
        },
        {
          "internalType": "address",
          "name": "_prevId",
          "type": "address"
        },
        {
          "internalType": "address",
          "name": "_nextId",
          "type": "address"
        }
      ],
      "name": "findInsertPosition",
      "outputs": [
        {
          "internalType": "address",
          "name": "",
          "type": "address"
        },
        {
          "internalType": "address",
          "name": "",
          "type": "address"
        }
      ],
      "payable": false,
      "stateMutability": "view",
      "type": "function"
    }
  ],
  "bytecode": "0x608060405234801561001057600080fd5b5060006100246001600160e01b0361007a16565b600080546001600160a01b0319166001600160a01b0383169081178255604051929350917f8be0079c531659141344cd1fd0a4f28419497f9722a3daafe3b4186f6b6457e0908290a3506298968060055561007e565b3390565b6114bf8061008d6000396000f3fe608060405234801561001057600080fd5b506004361061016b5760003560e01c8063765e0159116100cd578063b72703ac11610081578063c254f69611610066578063c254f696146103cb578063de8fa431146103f1578063f2fde38b146103f95761016b565b8063b72703ac1461039d578063babd3d9a146103c35761016b565b8063816e117c116100b2578063816e117c146103705780638da5cb5b1461038d5780638f32d59b146103955761016b565b8063765e0159146103105780638000dd4c146103365761016b565b80635dbe47e811610124578063681fe70c11610109578063681fe70c146102bc578063715018a6146102c457806374f78a22146102cc5761016b565b80635dbe47e81461026857806363e1d57c146102a25761016b565b806329092d0e1161015557806329092d0e146101da57806336d23683146102005780634d622831146102605761016b565b80627516dc146101705780631e223143146101b6575b600080fd5b6101b4600480360360a081101561018657600080fd5b506001600160a01b03813581169160208101359160408201359160608101358216916080909101351661041f565b005b6101be610454565b604080516001600160a01b039092168252519081900360200190f35b6101b4600480360360208110156101f057600080fd5b50356001600160a01b0316610463565b61023a6004803603608081101561021657600080fd5b508035906020810135906001600160a01b0360408201358116916060013516610641565b604080516001600160a01b03938416815291909216602082015281519081900390910190f35b6101be61082a565b61028e6004803603602081101561027e57600080fd5b50356001600160a01b0316610839565b604080519115158252519081900360200190f35b6102aa610857565b60408051918252519081900360200190f35b61028e61085d565b6101b4610864565b6101b4600480360360a08110156102e257600080fd5b506001600160a01b038135811691602081013591604082013591606081013582169160809091013516610907565b6101be6004803603602081101561032657600080fd5b50356001600160a01b0316610b53565b61028e6004803603608081101561034c57600080fd5b508035906020810135906001600160a01b0360408201358116916060013516610b76565b6101b46004803603602081101561038657600080fd5b5035610e1f565b6101be610e8b565b61028e610e9a565b6101be600480360360208110156103b357600080fd5b50356001600160a01b0316610ebe565b61028e610edf565b6101b4600480360360208110156103e157600080fd5b50356001600160a01b0316610ee9565b6102aa610fa1565b6101b46004803603602081101561040f57600080fd5b50356001600160a01b0316610fa7565b61042885610839565b61043157600080fd5b61043a85610463565b831561044d5761044d8585858585610907565b5050505050565b6003546001600160a01b031690565b61046c81610839565b61047557600080fd5b600654600110156105bb576003546001600160a01b03828116911614156104e4576001600160a01b03818116600090815260076020526040808220546003805461010090920485166001600160a01b0319928316179081905590931682529020600101805490911690556105b6565b6004546001600160a01b038281169116141561054b576001600160a01b0380821660009081526007602052604080822060010154600480546001600160a01b03191691851691909117908190559092168152208054610100600160a81b03191690556105b6565b6001600160a01b038082166000908152600760205260408082208054600180830180548716865284862080546101009485900489168502610100600160a81b03199091161790555492549190910485168452919092200180546001600160a01b031916919092161790555b6105d8565b600380546001600160a01b03199081169091556004805490911690555b6001600160a01b038116600090815260076020526040902080547fffffffffffffffffffffff000000000000000000000000000000000000000000168155600190810180546001600160a01b031916905560065461063b9163ffffffff61100c16565b60065550565b60008083836001600160a01b038216156106f25761065e82610839565b15806106e8575060015460408051630d293c7160e41b81526001600160a01b038581166004830152602482018b90529151919092169163d293c710916044808301926020929190829003018186803b1580156106b957600080fd5b505afa1580156106cd573d6000803e3d6000fd5b505050506040513d60208110156106e357600080fd5b505188115b156106f257600091505b6001600160a01b0381161561079d5761070a81610839565b1580610794575060015460408051630d293c7160e41b81526001600160a01b038481166004830152602482018b90529151919092169163d293c710916044808301926020929190829003018186803b15801561076557600080fd5b505afa158015610779573d6000803e3d6000fd5b505050506040513d602081101561078f57600080fd5b505188105b1561079d575060005b6001600160a01b0382161580156107bb57506001600160a01b038116155b156107e4576003546107d990899089906001600160a01b0316611055565b935093505050610821565b6001600160a01b0382166107fd576107d9888883611196565b6001600160a01b038116610816576107d9888884611055565b6107d9888884611055565b94509492505050565b6004546001600160a01b031690565b6001600160a01b031660009081526007602052604090205460ff1690565b60055490565b6006541590565b61086c610e9a565b6108bd576040805162461bcd60e51b815260206004820181905260248201527f4f776e61626c653a2063616c6c6572206973206e6f7420746865206f776e6572604482015290519081900360640190fd5b600080546040516001600160a01b03909116907f8be0079c531659141344cd1fd0a4f28419497f9722a3daafe3b4186f6b6457e0908390a3600080546001600160a01b0319169055565b61090f610edf565b1561091957600080fd5b61092285610839565b1561092c57600080fd5b6001600160a01b03851661093f57600080fd5b6000841161094c57600080fd5b818161095a86868484610b76565b6109705761096a86868484610641565b90925090505b6001600160a01b038088166000908152600760205260409020805460ff1916600117905582161580156109aa57506001600160a01b038116155b156109df57600380546001600160a01b0389166001600160a01b03199182168117909255600480549091169091179055610b33565b6001600160a01b038216610a5357600380546001600160a01b03898116600081815260076020526040808220805495851661010002610100600160a81b0319909616959095179094558454909216825291902060010180546001600160a01b03199081168317909155825416179055610b33565b6001600160a01b038116610ac357600480546001600160a01b0389811660008181526007602052604080822060010180549585166001600160a01b031996871617905585549093168152919091208054610100600160a81b03191661010083021790558254909116179055610b33565b6001600160a01b038088166000818152600760205260408082208054858716610100818102610100600160a81b031993841617845560019384018054988b166001600160a01b0319998a168117909155865284862080549188029190931617909155835291200180549092161790555b600654610b4790600163ffffffff6112cf16565b60065550505050505050565b6001600160a01b0390811660009081526007602052604090205461010090041690565b60006001600160a01b038316158015610b9657506001600160a01b038216155b15610baa57610ba361085d565b9050610e17565b6001600160a01b038316610c5a576003546001600160a01b038381169116148015610ba3575060015460408051630d293c7160e41b81526001600160a01b038581166004830152602482018890529151919092169163d293c710916044808301926020929190829003018186803b158015610c2457600080fd5b505afa158015610c38573d6000803e3d6000fd5b505050506040513d6020811015610c4e57600080fd5b50518510159050610e17565b6001600160a01b038216610d0a576004546001600160a01b038481169116148015610ba3575060015460408051630d293c7160e41b81526001600160a01b038681166004830152602482018890529151919092169163d293c710916044808301926020929190829003018186803b158015610cd457600080fd5b505afa158015610ce8573d6000803e3d6000fd5b505050506040513d6020811015610cfe57600080fd5b50518511159050610e17565b6001600160a01b0383811660009081526007602052604090205461010090048116908316148015610dbc575060015460408051630d293c7160e41b81526001600160a01b0386811660048301526024820188905291518893929092169163d293c71091604480820192602092909190829003018186803b158015610d8d57600080fd5b505afa158015610da1573d6000803e3d6000fd5b505050506040513d6020811015610db757600080fd5b505110155b8015610ba3575060015460408051630d293c7160e41b81526001600160a01b038581166004830152602482018890529151919092169163d293c710916044808301926020929190829003018186803b158015610c2457600080fd5b949350505050565b610e27610e9a565b610e78576040805162461bcd60e51b815260206004820181905260248201527f4f776e61626c653a2063616c6c6572206973206e6f7420746865206f776e6572604482015290519081900360640190fd5b6005548111610e8657600080fd5b600555565b6000546001600160a01b031690565b600080546001600160a01b0316610eaf611329565b6001600160a01b031614905090565b6001600160a01b039081166000908152600760205260409020600101541690565b6005546006541490565b610ef1610e9a565b610f42576040805162461bcd60e51b815260206004820181905260248201527f4f776e61626c653a2063616c6c6572206973206e6f7420746865206f776e6572604482015290519081900360640190fd5b600280546001600160a01b0383166001600160a01b03199182168117909255600180549091168217905560408051918252517f0addbd30df51ac41ccaf56a058c50522fbdc092b4e2ec8b829b29ad6716bd0979181900360200190a150565b60065490565b610faf610e9a565b611000576040805162461bcd60e51b815260206004820181905260248201527f4f776e61626c653a2063616c6c6572206973206e6f7420746865206f776e6572604482015290519081900360640190fd5b6110098161132d565b50565b600061104e83836040518060400160405280601e81526020017f536166654d6174683a207375627472616374696f6e206f766572666c6f7700008152506113cd565b9392505050565b60035460009081906001600160a01b0384811691161480156110f6575060015460408051630d293c7160e41b81526001600160a01b038681166004830152602482018890529151919092169163d293c710916044808301926020929190829003018186803b1580156110c657600080fd5b505afa1580156110da573d6000803e3d6000fd5b505050506040513d60208110156110f057600080fd5b50518510155b156111065750600090508161118e565b6001600160a01b038084166000908152600760205260409020548491610100909104165b6001600160a01b0382161580159061114b575061114987878484610b76565b155b1561118857506001600160a01b0390811660009081526007602052604080822054610100908190048416808452919092205490929190041661112a565b90925090505b935093915050565b60045460009081906001600160a01b038481169116148015611237575060015460408051630d293c7160e41b81526001600160a01b038681166004830152602482018890529151919092169163d293c710916044808301926020929190829003018186803b15801561120757600080fd5b505afa15801561121b573d6000803e3d6000fd5b505050506040513d602081101561123157600080fd5b50518511155b156112475750819050600061118e565b6001600160a01b038084166000908152600760205260409020600101548491165b6001600160a01b03821615801590611289575061128787878385610b76565b155b156112c457506001600160a01b0390811660009081526007602052604080822060019081015484168084529190922090910154909116611268565b969095509350505050565b60008282018381101561104e576040805162461bcd60e51b815260206004820152601b60248201527f536166654d6174683a206164646974696f6e206f766572666c6f770000000000604482015290519081900360640190fd5b3390565b6001600160a01b0381166113725760405162461bcd60e51b81526004018080602001828103825260268152602001806114656026913960400191505060405180910390fd5b600080546040516001600160a01b03808516939216917f8be0079c531659141344cd1fd0a4f28419497f9722a3daafe3b4186f6b6457e091a3600080546001600160a01b0319166001600160a01b0392909216919091179055565b6000818484111561145c5760405162461bcd60e51b81526004018080602001828103825283818151815260200191508051906020019080838360005b83811015611421578181015183820152602001611409565b50505050905090810190601f16801561144e5780820380516001836020036101000a031916815260200191505b509250505060405180910390fd5b50505090039056fe4f776e61626c653a206e6577206f776e657220697320746865207a65726f2061646472657373a265627a7a7231582042ae85d3b5561138877e2da3c8269c6c374e397d7344396f941d2bdf04fe23b964736f6c634300050b0032",
  "source": "pragma solidity ^0.5.11;\r\n\r\nimport \"./Interfaces/ISortedCDPs.sol\";\r\nimport \"./Interfaces/ICDPManager.sol\";\r\nimport '@openzeppelin/contracts/math/SafeMath.sol';\r\nimport \"@openzeppelin/contracts/ownership/Ownable.sol\";\r\nimport \"@nomiclabs/buidler/console.sol\";\r\n\r\n/* \r\nA sorted doubly linked list with nodes sorted in descending order, based on current ICRs of active CDPs. \r\nOptionally accepts insert position hints.\r\n\r\nICRs are computed dynamically at runtime, and not stored on the Node. This is because ICRs of active CDPs \r\nchange dynamically as liquidation events occur.\r\n\r\nThe list relies on the fact that liquidation events preserve ordering: a liquidation decreases the ICRs of all active CDPs, \r\nbut maintains their order. A node inserted based on current ICR will maintain the correct position, \r\nrelative to it's peers, as rewards accumulate. Thus, Nodes remain sorted by current ICR.\r\n\r\nNodes need only be re-inserted upon a CDP operation - when the owner adds or removes collateral or debt.\r\n\r\nThe list is a modification of the following audited SortedDoublyLinkedList:\r\nhttps://github.com/livepeer/protocol/blob/master/contracts/libraries/SortedDoublyLL.sol\r\n\r\nIn our variant, keys have been removed, and all ICR checks in functions now compare an ICR argument to the current ICR, \r\ncalculated at runtime. Data is stored in the 'data' state variable.\r\n*/\r\ncontract SortedCDPs is Ownable, ISortedCDPs {\r\n    using SafeMath for uint256;\r\n\r\n    event CDPManagerAddressChanged(address _newCDPlManagerAddress);\r\n\r\n    ICDPManager cdpManager;\r\n    address CDPManagerAddress;\r\n\r\n    // Information for a node in the list\r\n    struct Node {\r\n        bool exists;\r\n        address nextId;                  // Id of next node (smaller ICR) in the list\r\n        address prevId;                  // Id of previous node (larger ICR) in the list\r\n    }\r\n\r\n    // Information for the list\r\n    struct Data {\r\n        address head;                        // Head of the list. Also the node in the list with the largest ICR\r\n        address tail;                        // Tail of the list. Also the node in the list with the smallest ICR\r\n        uint256 maxSize;                     // Maximum size of the list\r\n        uint256 size;                        // Current size of the list\r\n        mapping (address => Node) nodes;     // Track the corresponding ids for each node in the list\r\n    }\r\n\r\n    Data data;\r\n\r\n    function setCDPManager(address _CDPManagerAddress) public onlyOwner {\r\n        CDPManagerAddress = _CDPManagerAddress;\r\n        cdpManager = ICDPManager(_CDPManagerAddress);\r\n        emit CDPManagerAddressChanged(_CDPManagerAddress);\r\n    }\r\n\r\n    constructor() public {\r\n        data.maxSize = 10000000;\r\n    }\r\n\r\n    /*\r\n     * @dev Set the maximum size of the list\r\n     * @param _size Maximum size\r\n     */\r\n    function setMaxSize(uint256 _size) public onlyOwner {\r\n        // New max size must be greater than old max size\r\n        require(_size > data.maxSize);\r\n\r\n        data.maxSize = _size;\r\n    }\r\n\r\n    /*\r\n     * @dev Add a node to the list\r\n     * @param _id Node's id\r\n     * @param _ICR Node's ICR\r\n     * @param _prevId Id of previous node for the insert position\r\n     * @param _nextId Id of next node for the insert position\r\n     */\r\n\r\n    function insert(address _id, uint256 _ICR, uint _price, address _prevId, address _nextId) public {\r\n        // console.log(\"SortedCDPS.insert called\");\r\n        // console.log(\"00. gas left: %s\", gasleft());\r\n        // List must not be full\r\n        require(!isFull());  // 1650 gas\r\n        // console.log(\"01. gas left: %s\", gasleft());\r\n        // List must not already contain node\r\n        require(!contains(_id));  // 900 gas\r\n        // console.log(\"02. gas left: %s\", gasleft());\r\n        // Node id must not be null\r\n        require(_id != address(0));  // 26 gas\r\n        // console.log(\"03. gas left: %s\", gasleft());\r\n        // ICR must be non-zero\r\n        require(_ICR > 0); // 16 gas\r\n        // console.log(\"04. gas left: %s\", gasleft());\r\n\r\n        address prevId = _prevId; // 2 gas\r\n        // console.log(\"05. gas left: %s\", gasleft());\r\n        address nextId = _nextId; // 3 gas\r\n        // console.log(\"06. gas left: %s\", gasleft());\r\n\r\n        if (!validInsertPosition(_ICR, _price, prevId, nextId)) {\r\n            // Sender's hint was not a valid insert position\r\n            // Use sender's hint to find a valid insert position\r\n            (prevId, nextId) = findInsertPosition(_ICR, _price, prevId, nextId);  // 14500k gas with 1 traversals  \r\n        }\r\n        // console.log(\"07. gas left: %s\", gasleft());\r\n        \r\n         data.nodes[_id].exists = true;  // *** 21000 gas for false --> true\r\n        \r\n        // console.log(\"08. gas left: %s\", gasleft());\r\n\r\n        if (prevId == address(0) && nextId == address(0)) {\r\n            // console.log(\"9a. gas left: %s\", gasleft());\r\n            // Insert as head and tail\r\n            data.head = _id; // 21000 gas\r\n            // console.log(\"9b. gas left: %s\", gasleft());\r\n            data.tail = _id; // 21000 gas\r\n            // console.log(\"9bb. gas left: %s\", gasleft());\r\n        } else if (prevId == address(0)) { // 117 gas\r\n            // console.log(\"9c. gas left: %s\", gasleft());\r\n            // Insert before `prevId` as the head\r\n            data.nodes[_id].nextId = data.head; // 2600 gas\r\n            // console.log(\"9d. gas left: %s\", gasleft());\r\n            data.nodes[data.head].prevId = _id;  // 21800 gas\r\n            // console.log(\"9e. gas left: %s\", gasleft());\r\n            data.head = _id; // 5800 gas\r\n            // console.log(\"9ee. gas left: %s\", gasleft());\r\n        } else if (nextId == address(0)) {\r\n            // console.log(\"9f. gas left: %s\", gasleft());\r\n            // Insert after `nextId` as the tail\r\n            data.nodes[_id].prevId = data.tail;\r\n            // console.log(\"9g. gas left: %s\", gasleft());\r\n            data.nodes[data.tail].nextId = _id;\r\n            // console.log(\"9h. gas left: %s\", gasleft());\r\n            data.tail = _id;\r\n            // console.log(\"9i. gas left: %s\", gasleft());\r\n        } else { // 127 gas\r\n            // console.log(\"9j. gas left: %s\", gasleft());\r\n            // Insert at insert position between `prevId` and `nextId`\r\n            data.nodes[_id].nextId = nextId; // 1800 gas\r\n            // console.log(\"9k. gas left: %s\", gasleft());\r\n            data.nodes[_id].prevId = prevId; // 21000 gas\r\n            // console.log(\"9l. gas left: %s\", gasleft());\r\n            data.nodes[prevId].nextId = _id; // 6000 gas\r\n            // console.log(\"9m. gas left: %s\", gasleft());\r\n            data.nodes[nextId].prevId = _id; // 6000 gas\r\n            // console.log(\"9n. gas left: %s\", gasleft());\r\n        }\r\n\r\n        data.size = data.size.add(1); // 5900 gas\r\n        // ;  \r\n        // console.log(\"10. gas left: %s\", gasleft());\r\n        // console.log(\"SortedCDPs.insert func end\");\r\n    }\r\n\r\n    /*\r\n     * @dev Remove a node from the list\r\n     * @param _id Node's id\r\n     */\r\n    function remove(address _id) public {\r\n        // List must contain the node\r\n        // console.log(\"00. gas left: %s\", gasleft());\r\n        require(contains(_id)); // 940 gas\r\n        // console.log(\"01. gas left: %s\", gasleft());\r\n\r\n        if (data.size > 1) { // 800 gas\r\n            // console.log(\"02. gas left: %s\", gasleft());\r\n            // List contains more than a single node\r\n            if (_id == data.head) { // 800 gas\r\n                // console.log(\"03. gas left: %s\", gasleft());\r\n                // The removed node is the head\r\n                // Set head to next node\r\n                data.head = data.nodes[_id].nextId; // 6800 gas\r\n                // console.log(\"04. gas left: %s\", gasleft());\r\n                // Set prev pointer of new head to null\r\n                data.nodes[data.head].prevId = address(0); // 6700 gas\r\n                // console.log(\"05. gas left: %s\", gasleft());\r\n            } else if (_id == data.tail) {\r\n                // console.log(\"06. gas left: %s\", gasleft());\r\n                // The removed node is the tail\r\n                // Set tail to previous node\r\n                data.tail = data.nodes[_id].prevId;\r\n                // console.log(\"07. gas left: %s\", gasleft());\r\n                // Set next pointer of new tail to null\r\n                data.nodes[data.tail].nextId = address(0);\r\n                // console.log(\"08. gas left: %s\", gasleft());\r\n            } else {\r\n                // The removed node is neither the head nor the tail\r\n                // Set next pointer of previous node to the next node\r\n                // console.log(\"09. gas left: %s\", gasleft());\r\n                data.nodes[data.nodes[_id].prevId].nextId = data.nodes[_id].nextId; // 7600 gas\r\n                //  console.log(\"10. gas left: %s\", gasleft());\r\n                // Set prev pointer of next node to the previous node\r\n                data.nodes[data.nodes[_id].nextId].prevId = data.nodes[_id].prevId; // 7600 gas\r\n                //  console.log(\"11. gas left: %s\", gasleft());\r\n            }\r\n        } else {\r\n            // List contains a single node\r\n            // Set the head and tail to null\r\n            //  console.log(\"12. gas left: %s\", gasleft());\r\n            data.head = address(0);\r\n            //  console.log(\"13. gas left: %s\", gasleft());\r\n            data.tail = address(0);\r\n            //  console.log(\"14. gas left: %s\", gasleft());\r\n        }\r\n\r\n        delete data.nodes[_id]; // ** 11100 gas\r\n        // console.log(\"15. gas left: %s\", gasleft());\r\n        data.size = data.size.sub(1); // ** 5900 gas\r\n        // console.log(\"16. gas left: %s\", gasleft());\r\n    }\r\n\r\n    /*\r\n     * @dev Re-insert the node at a new position, based on its new ICR\r\n     * @param _id Node's id\r\n     * @param _newICR Node's new ICR\r\n     * @param _prevId Id of previous node for the new insert position\r\n     * @param _nextId Id of next node for the new insert position\r\n     */\r\n    function reInsert(address _id, uint256 _newICR, uint _price, address _prevId, address _nextId) public {\r\n        // List must contain the node\r\n        require(contains(_id));\r\n\r\n        // Remove node from the list\r\n        remove(_id);\r\n\r\n        if (_newICR > 0) {\r\n            // Insert node if it has a non-zero ICR\r\n            insert(_id, _newICR, _price, _prevId, _nextId);\r\n        }\r\n    }\r\n\r\n    /*\r\n     * @dev Checks if the list contains a node\r\n     * @param _transcoder Address of transcoder\r\n     */\r\n    function contains(address _id) public view returns (bool) {\r\n        return data.nodes[_id].exists;\r\n    }\r\n\r\n    /*\r\n     * @dev Checks if the list is full\r\n     */\r\n    function isFull() public view returns (bool) {\r\n        return data.size == data.maxSize;\r\n    }\r\n\r\n    /*\r\n     * @dev Checks if the list is empty\r\n     */\r\n    function isEmpty() public view returns (bool) {\r\n        return data.size == 0;\r\n    }\r\n\r\n    /*\r\n     * @dev Returns the current size of the list\r\n     */\r\n    function getSize() public view returns (uint256) {\r\n        return data.size;\r\n    }\r\n\r\n    /*\r\n     * @dev Returns the maximum size of the list\r\n     */\r\n    function getMaxSize() public view returns (uint256) {\r\n        return data.maxSize;\r\n    }\r\n\r\n    /*\r\n     * @dev Returns the first node in the list (node with the largest ICR)\r\n     */\r\n    function getFirst() public view returns (address) {\r\n        return data.head;\r\n    }\r\n\r\n    /*\r\n     * @dev Returns the last node in the list (node with the smallest ICR)\r\n     */\r\n    function getLast() public view returns (address) {\r\n        return data.tail;\r\n    }\r\n\r\n    /*\r\n     * @dev Returns the next node (with a smaller ICR) in the list for a given node\r\n     * @param _id Node's id\r\n     */\r\n    function getNext(address _id) public view returns (address) {\r\n        return data.nodes[_id].nextId;\r\n    }\r\n\r\n    /*\r\n     * @dev Returns the previous node (with a larger ICR) in the list for a given node\r\n     * @param _id Node's id\r\n     */\r\n    function getPrev(address _id) public view returns (address) {\r\n        return data.nodes[_id].prevId;\r\n    }\r\n\r\n    /*\r\n     * @dev Check if a pair of nodes is a valid insertion point for a new node with the given ICR\r\n     * @param _ICR Node's ICR\r\n     * @param _prevId Id of previous node for the insert position\r\n     * @param _nextId Id of next node for the insert position\r\n     */\r\n    function validInsertPosition(uint256 _ICR, uint _price, address _prevId, address _nextId) public view returns (bool) {\r\n        if (_prevId == address(0) && _nextId == address(0)) {\r\n            // `(null, null)` is a valid insert position if the list is empty\r\n            return isEmpty();\r\n        } else if (_prevId == address(0)) {\r\n            // `(null, _nextId)` is a valid insert position if `_nextId` is the head of the list\r\n            return data.head == _nextId && _ICR >= cdpManager.getCurrentICR(_nextId, _price);\r\n        } else if (_nextId == address(0)) {\r\n            // `(_prevId, null)` is a valid insert position if `_prevId` is the tail of the list\r\n            return data.tail == _prevId && _ICR <= cdpManager.getCurrentICR(_prevId, _price);\r\n        } else {\r\n            // `(_prevId, _nextId)` is a valid insert position if they are adjacent nodes and `_ICR` falls between the two nodes' ICRs\r\n            return data.nodes[_prevId].nextId == _nextId && \r\n                   cdpManager.getCurrentICR(_prevId, _price) >= _ICR && \r\n                   _ICR >= cdpManager.getCurrentICR(_nextId, _price);\r\n        }\r\n    }\r\n\r\n    /*\r\n     * @dev Descend the list (larger ICRs to smaller ICRs) to find a valid insert position\r\n     * @param _ICR Node's ICR\r\n     * @param _startId Id of node to start ascending the list from\r\n     */\r\n    function descendList(uint256 _ICR, uint _price, address _startId) private view returns (address, address) {\r\n        // If `_startId` is the head, check if the insert position is before the head\r\n        if (data.head == _startId && _ICR >= cdpManager.getCurrentICR(_startId, _price)) {\r\n            return (address(0), _startId);\r\n        }\r\n\r\n        address prevId = _startId;\r\n        address nextId = data.nodes[prevId].nextId;\r\n\r\n        // Descend the list until we reach the end or until we find a valid insert position\r\n        while (prevId != address(0) && !validInsertPosition(_ICR, _price, prevId, nextId)) {\r\n            prevId = data.nodes[prevId].nextId;\r\n            nextId = data.nodes[prevId].nextId;\r\n        }\r\n\r\n        return (prevId, nextId);\r\n    }\r\n\r\n    /*\r\n     * @dev Ascend the list (smaller ICRs to larger ICRs) to find a valid insert position\r\n     * @param _ICR Node's ICR\r\n     * @param _startId Id of node to start descending the list from\r\n     */\r\n    function ascendList(uint256 _ICR, uint _price, address _startId) private view returns (address, address) {\r\n        // If `_startId` is the tail, check if the insert position is after the tail\r\n        if (data.tail == _startId && _ICR <= cdpManager.getCurrentICR(_startId, _price)) {\r\n            return (_startId, address(0));\r\n        }\r\n\r\n        address nextId = _startId;\r\n        address prevId = data.nodes[nextId].prevId;\r\n\r\n        // Ascend the list until we reach the end or until we find a valid insertion point\r\n        while (nextId != address(0) && !validInsertPosition(_ICR, _price, prevId, nextId)) {\r\n            nextId = data.nodes[nextId].prevId;\r\n            prevId = data.nodes[nextId].prevId;\r\n        }\r\n\r\n        return (prevId, nextId);\r\n    }\r\n\r\n    /*\r\n     * @dev Find the insert position for a new node with the given ICR\r\n     * @param _ICR Node's ICR\r\n     * @param _prevId Id of previous node for the insert position\r\n     * @param _nextId Id of next node for the insert position\r\n     */\r\n    function findInsertPosition(uint256 _ICR, uint _price, address _prevId, address _nextId) public view returns (address, address) {\r\n        address prevId = _prevId;\r\n        address nextId = _nextId;\r\n\r\n        if (prevId != address(0)) {\r\n            if (!contains(prevId) || _ICR > cdpManager.getCurrentICR(prevId, _price)) {\r\n                // `prevId` does not exist anymore or now has a smaller ICR than the given ICR\r\n                prevId = address(0);\r\n            }\r\n        }\r\n\r\n        if (nextId != address(0)) {\r\n            if (!contains(nextId) || _ICR < cdpManager.getCurrentICR(nextId, _price)) {\r\n                // `nextId` does not exist anymore or now has a larger ICR than the given ICR\r\n                nextId = address(0);\r\n            }\r\n        }\r\n\r\n        if (prevId == address(0) && nextId == address(0)) {\r\n            // No hint - descend list starting from head\r\n            return descendList(_ICR, _price, data.head);\r\n        } else if (prevId == address(0)) {\r\n            // No `prevId` for hint - ascend list starting from `nextId`\r\n            return ascendList(_ICR, _price, nextId);\r\n        } else if (nextId == address(0)) {\r\n            // No `nextId` for hint - descend list starting from `prevId`\r\n            return descendList(_ICR, _price, prevId);\r\n        } else {\r\n            // Descend list starting from `prevId`\r\n            return descendList(_ICR, _price, prevId);\r\n        }\r\n    }\r\n}",
  "sourcePath": "c:/Users/Rick/Desktop/Cleverage/packages/contracts/contracts/SortedCDPs.sol",
  "compiler": {
    "name": "solc",
    "version": "0.5.11+commit.c082d0b4.Emscripten.clang"
  },
  "schemaVersion": "3.0.20",
  "updatedAt": "2020-04-26T18:49:45.026Z",
  "devdoc": {
    "methods": {
      "isOwner()": {
        "details": "Returns true if the caller is the current owner."
      },
      "owner()": {
        "details": "Returns the address of the current owner."
      },
      "renounceOwnership()": {
        "details": "Leaves the contract without owner. It will not be possible to call `onlyOwner` functions anymore. Can only be called by the current owner.     * NOTE: Renouncing ownership will leave the contract without an owner, thereby removing any functionality that is only available to the owner."
      },
      "transferOwnership(address)": {
        "details": "Transfers ownership of the contract to a new account (`newOwner`). Can only be called by the current owner."
      }
    }
  },
  "userdoc": {
    "methods": {}
  }
}