{
  "contractName": "StabilityPool",
  "abi": [
    {
      "inputs": [],
      "payable": false,
      "stateMutability": "nonpayable",
      "type": "constructor"
    },
    {
      "anonymous": false,
      "inputs": [
        {
          "indexed": false,
          "internalType": "address",
          "name": "_newActivePoolAddress",
          "type": "address"
        }
      ],
      "name": "ActivePoolAddressChanged",
      "type": "event"
    },
    {
      "anonymous": false,
      "inputs": [
        {
          "indexed": false,
          "internalType": "uint256",
          "name": "_newBalance",
          "type": "uint256"
        }
      ],
      "name": "CLVBalanceUpdated",
      "type": "event"
    },
    {
      "anonymous": false,
      "inputs": [
        {
          "indexed": false,
          "internalType": "address",
          "name": "_newDefaultPoolAddress",
          "type": "address"
        }
      ],
      "name": "DefaultPoolAddressChanged",
      "type": "event"
    },
    {
      "anonymous": false,
      "inputs": [
        {
          "indexed": false,
          "internalType": "uint256",
          "name": "_newBalance",
          "type": "uint256"
        }
      ],
      "name": "ETHBalanceUpdated",
      "type": "event"
    },
    {
      "anonymous": false,
      "inputs": [
        {
          "indexed": false,
          "internalType": "address",
          "name": "_to",
          "type": "address"
        },
        {
          "indexed": false,
          "internalType": "uint256",
          "name": "_amount",
          "type": "uint256"
        }
      ],
      "name": "EtherSent",
      "type": "event"
    },
    {
      "anonymous": false,
      "inputs": [
        {
          "indexed": true,
          "internalType": "address",
          "name": "previousOwner",
          "type": "address"
        },
        {
          "indexed": true,
          "internalType": "address",
          "name": "newOwner",
          "type": "address"
        }
      ],
      "name": "OwnershipTransferred",
      "type": "event"
    },
    {
      "anonymous": false,
      "inputs": [
        {
          "indexed": false,
          "internalType": "address",
          "name": "_newAddress",
          "type": "address"
        }
      ],
      "name": "PoolManagerAddressChanged",
      "type": "event"
    },
    {
      "anonymous": false,
      "inputs": [
        {
          "indexed": false,
          "internalType": "address",
          "name": "_newStabilityPoolAddress",
          "type": "address"
        }
      ],
      "name": "StabilityPoolAddressChanged",
      "type": "event"
    },
    {
      "payable": true,
      "stateMutability": "payable",
      "type": "fallback"
    },
    {
      "constant": true,
      "inputs": [],
      "name": "CLV",
      "outputs": [
        {
          "internalType": "uint256",
          "name": "",
          "type": "uint256"
        }
      ],
      "payable": false,
      "stateMutability": "view",
      "type": "function"
    },
    {
      "constant": true,
      "inputs": [],
      "name": "ETH",
      "outputs": [
        {
          "internalType": "uint256",
          "name": "",
          "type": "uint256"
        }
      ],
      "payable": false,
      "stateMutability": "view",
      "type": "function"
    },
    {
      "constant": true,
      "inputs": [],
      "name": "activePoolAddress",
      "outputs": [
        {
          "internalType": "address",
          "name": "",
          "type": "address"
        }
      ],
      "payable": false,
      "stateMutability": "view",
      "type": "function"
    },
    {
      "constant": true,
      "inputs": [],
      "name": "defaultPoolAddress",
      "outputs": [
        {
          "internalType": "address",
          "name": "",
          "type": "address"
        }
      ],
      "payable": false,
      "stateMutability": "view",
      "type": "function"
    },
    {
      "constant": true,
      "inputs": [],
      "name": "isOwner",
      "outputs": [
        {
          "internalType": "bool",
          "name": "",
          "type": "bool"
        }
      ],
      "payable": false,
      "stateMutability": "view",
      "type": "function"
    },
    {
      "constant": true,
      "inputs": [],
      "name": "owner",
      "outputs": [
        {
          "internalType": "address",
          "name": "",
          "type": "address"
        }
      ],
      "payable": false,
      "stateMutability": "view",
      "type": "function"
    },
    {
      "constant": true,
      "inputs": [],
      "name": "poolManagerAddress",
      "outputs": [
        {
          "internalType": "address",
          "name": "",
          "type": "address"
        }
      ],
      "payable": false,
      "stateMutability": "view",
      "type": "function"
    },
    {
      "constant": false,
      "inputs": [],
      "name": "renounceOwnership",
      "outputs": [],
      "payable": false,
      "stateMutability": "nonpayable",
      "type": "function"
    },
    {
      "constant": true,
      "inputs": [],
      "name": "totalCLVDeposits",
      "outputs": [
        {
          "internalType": "uint256",
          "name": "",
          "type": "uint256"
        }
      ],
      "payable": false,
      "stateMutability": "view",
      "type": "function"
    },
    {
      "constant": false,
      "inputs": [
        {
          "internalType": "address",
          "name": "newOwner",
          "type": "address"
        }
      ],
      "name": "transferOwnership",
      "outputs": [],
      "payable": false,
      "stateMutability": "nonpayable",
      "type": "function"
    },
    {
      "constant": false,
      "inputs": [
        {
          "internalType": "address",
          "name": "_poolManagerAddress",
          "type": "address"
        }
      ],
      "name": "setPoolManagerAddress",
      "outputs": [],
      "payable": false,
      "stateMutability": "nonpayable",
      "type": "function"
    },
    {
      "constant": false,
      "inputs": [
        {
          "internalType": "address",
          "name": "_activePoolAddress",
          "type": "address"
        }
      ],
      "name": "setActivePoolAddress",
      "outputs": [],
      "payable": false,
      "stateMutability": "nonpayable",
      "type": "function"
    },
    {
      "constant": false,
      "inputs": [
        {
          "internalType": "address",
          "name": "_defaultPoolAddress",
          "type": "address"
        }
      ],
      "name": "setDefaultPoolAddress",
      "outputs": [],
      "payable": false,
      "stateMutability": "nonpayable",
      "type": "function"
    },
    {
      "constant": true,
      "inputs": [],
      "name": "getETH",
      "outputs": [
        {
          "internalType": "uint256",
          "name": "",
          "type": "uint256"
        }
      ],
      "payable": false,
      "stateMutability": "view",
      "type": "function"
    },
    {
      "constant": true,
      "inputs": [],
      "name": "getCLV",
      "outputs": [
        {
          "internalType": "uint256",
          "name": "",
          "type": "uint256"
        }
      ],
      "payable": false,
      "stateMutability": "view",
      "type": "function"
    },
    {
      "constant": true,
      "inputs": [],
      "name": "getTotalCLVDeposits",
      "outputs": [
        {
          "internalType": "uint256",
          "name": "",
          "type": "uint256"
        }
      ],
      "payable": false,
      "stateMutability": "view",
      "type": "function"
    },
    {
      "constant": false,
      "inputs": [
        {
          "internalType": "address",
          "name": "_account",
          "type": "address"
        },
        {
          "internalType": "uint256",
          "name": "_amount",
          "type": "uint256"
        }
      ],
      "name": "sendETH",
      "outputs": [
        {
          "internalType": "bool",
          "name": "",
          "type": "bool"
        }
      ],
      "payable": false,
      "stateMutability": "nonpayable",
      "type": "function"
    },
    {
      "constant": false,
      "inputs": [
        {
          "internalType": "uint256",
          "name": "_amount",
          "type": "uint256"
        }
      ],
      "name": "increaseCLV",
      "outputs": [],
      "payable": false,
      "stateMutability": "nonpayable",
      "type": "function"
    },
    {
      "constant": false,
      "inputs": [
        {
          "internalType": "uint256",
          "name": "_amount",
          "type": "uint256"
        }
      ],
      "name": "decreaseCLV",
      "outputs": [],
      "payable": false,
      "stateMutability": "nonpayable",
      "type": "function"
    },
    {
      "constant": false,
      "inputs": [
        {
          "internalType": "uint256",
          "name": "_amount",
          "type": "uint256"
        }
      ],
      "name": "increaseTotalCLVDeposits",
      "outputs": [],
      "payable": false,
      "stateMutability": "nonpayable",
      "type": "function"
    },
    {
      "constant": false,
      "inputs": [
        {
          "internalType": "uint256",
          "name": "_amount",
          "type": "uint256"
        }
      ],
      "name": "decreaseTotalCLVDeposits",
      "outputs": [],
      "payable": false,
      "stateMutability": "nonpayable",
      "type": "function"
    },
    {
      "constant": true,
      "inputs": [],
      "name": "getRawETHBalance",
      "outputs": [
        {
          "internalType": "uint256",
          "name": "",
          "type": "uint256"
        }
      ],
      "payable": false,
      "stateMutability": "view",
      "type": "function"
    }
  ],
  "bytecode": "0x608060405234801561001057600080fd5b5060006100246001600160e01b0361007316565b600080546001600160a01b0319166001600160a01b0383169081178255604051929350917f8be0079c531659141344cd1fd0a4f28419497f9722a3daafe3b4186f6b6457e0908290a350610077565b3390565b610f18806100866000396000f3fe6080604052600436106101755760003560e01c8063aac1846f116100cb578063ca8fff971161007f578063e6a13f3011610059578063e6a13f30146104c0578063e9c83957146104d5578063f2fde38b146104ff57610175565b8063ca8fff971461046c578063de10fb7814610481578063e1cf19c1146104ab57610175565b8063b08bc722116100b0578063b08bc7221461040f578063b739777614610424578063c458bffb1461043957610175565b8063aac1846f146103c7578063ab95b1a2146103dc57610175565b8063664162191161012d5780638da5cb5b116101075780638da5cb5b1461034e5780638f32d59b1461037f5780639822339d1461039457610175565b8063664162191461030f578063715018a6146103245780638322fff21461033957610175565b80634a0eaf141161015e5780634a0eaf141461026c5780634de736311461029857806364a197f3146102c257610175565b80630617edb41461023057806314f6c3be14610257575b6001546001600160a01b0316610189610532565b6001600160a01b031614806101b857506003546001600160a01b03166101ad610532565b6001600160a01b0316145b806101dd57506002546001600160a01b03166101d2610532565b6001600160a01b0316145b6102185760405162461bcd60e51b8152600401808060200182810382526038815260200180610e7b6038913960400191505060405180910390fd5b60045461022b903463ffffffff61053616565b600455005b34801561023c57600080fd5b50610245610597565b60408051918252519081900360200190f35b34801561026357600080fd5b5061024561059b565b34801561027857600080fd5b506102966004803603602081101561028f57600080fd5b50356105a1565b005b3480156102a457600080fd5b50610296600480360360208110156102bb57600080fd5b5035610613565b3480156102ce57600080fd5b506102fb600480360360408110156102e557600080fd5b506001600160a01b0381351690602001356106b9565b604080519115158252519081900360200190f35b34801561031b57600080fd5b50610245610841565b34801561033057600080fd5b50610296610847565b34801561034557600080fd5b506102456108ea565b34801561035a57600080fd5b506103636108f0565b604080516001600160a01b039092168252519081900360200190f35b34801561038b57600080fd5b506102fb6108ff565b3480156103a057600080fd5b50610296600480360360208110156103b757600080fd5b50356001600160a01b0316610923565b3480156103d357600080fd5b506103636109d6565b3480156103e857600080fd5b50610296600480360360208110156103ff57600080fd5b50356001600160a01b03166109e5565b34801561041b57600080fd5b50610363610a98565b34801561043057600080fd5b50610245610aa7565b34801561044557600080fd5b506102966004803603602081101561045c57600080fd5b50356001600160a01b0316610aad565b34801561047857600080fd5b50610245610b60565b34801561048d57600080fd5b50610296600480360360208110156104a457600080fd5b5035610b66565b3480156104b757600080fd5b50610245610bd2565b3480156104cc57600080fd5b50610363610bd8565b3480156104e157600080fd5b50610296600480360360208110156104f857600080fd5b5035610be7565b34801561050b57600080fd5b506102966004803603602081101561052257600080fd5b50356001600160a01b0316610c53565b3390565b600082820183811015610590576040805162461bcd60e51b815260206004820152601b60248201527f536166654d6174683a206164646974696f6e206f766572666c6f770000000000604482015290519081900360640190fd5b9392505050565b4790565b60045490565b6001546001600160a01b03166105b5610532565b6001600160a01b0316146105fa5760405162461bcd60e51b8152600401808060200182810382526031815260200180610eb36031913960400191505060405180910390fd5b60065461060d908263ffffffff610cb816565b60065550565b6001546001600160a01b0316610627610532565b6001600160a01b03161461066c5760405162461bcd60e51b8152600401808060200182810382526031815260200180610eb36031913960400191505060405180910390fd5b60055461067f908263ffffffff61053616565b600581905560408051918252517f2345ee7f5f8837fcb9b95ec4fe3db62d9d05d7830cab26fe632f036008a935d89181900360200190a150565b6001546000906001600160a01b03166106d0610532565b6001600160a01b0316146107155760405162461bcd60e51b8152600401808060200182810382526031815260200180610eb36031913960400191505060405180910390fd5b600454610728908363ffffffff610cb816565b6004556040516000906001600160a01b0385169084908381818185875af1925050503d8060008114610776576040519150601f19603f3d011682016040523d82523d6000602084013e61077b565b606091505b50909150506001811515146107c15760405162461bcd60e51b8152600401808060200182810382526023815260200180610e586023913960400191505060405180910390fd5b60045460408051918252517f7ab2bdf6e6d108cd138a8f6436723e8dfd0cb22727fe608e40b5adfb8357f1b99181900360200190a1604080516001600160a01b03861681526020810185905281517f6109e2559dfa766aaec7118351d48a523f0a4157f49c8d68749c8ac41318ad12929181900390910190a19392505050565b60055481565b61084f6108ff565b6108a0576040805162461bcd60e51b815260206004820181905260248201527f4f776e61626c653a2063616c6c6572206973206e6f7420746865206f776e6572604482015290519081900360640190fd5b600080546040516001600160a01b03909116907f8be0079c531659141344cd1fd0a4f28419497f9722a3daafe3b4186f6b6457e0908390a3600080546001600160a01b0319169055565b60045481565b6000546001600160a01b031690565b600080546001600160a01b0316610914610532565b6001600160a01b031614905090565b61092b6108ff565b61097c576040805162461bcd60e51b815260206004820181905260248201527f4f776e61626c653a2063616c6c6572206973206e6f7420746865206f776e6572604482015290519081900360640190fd5b600280546001600160a01b0319166001600160a01b03838116919091179182905560408051929091168252517f5ee0cae2f063ed938bb55046f6a932fb6ae792bf43624806bb90abe68a50be9b916020908290030190a150565b6002546001600160a01b031681565b6109ed6108ff565b610a3e576040805162461bcd60e51b815260206004820181905260248201527f4f776e61626c653a2063616c6c6572206973206e6f7420746865206f776e6572604482015290519081900360640190fd5b600180546001600160a01b0319166001600160a01b03838116919091179182905560408051929091168252517f4d839b74477afe774fbb734df87db25e56c0427973aac588bb3ce7ce937f8850916020908290030190a150565b6003546001600160a01b031681565b60065490565b610ab56108ff565b610b06576040805162461bcd60e51b815260206004820181905260248201527f4f776e61626c653a2063616c6c6572206973206e6f7420746865206f776e6572604482015290519081900360640190fd5b600380546001600160a01b0319166001600160a01b03838116919091179182905560408051929091168252517f78f058b189175430c48dc02699e3a0031ea4ff781536dc2fab847de4babdd882916020908290030190a150565b60065481565b6001546001600160a01b0316610b7a610532565b6001600160a01b031614610bbf5760405162461bcd60e51b8152600401808060200182810382526031815260200180610eb36031913960400191505060405180910390fd5b60065461060d908263ffffffff61053616565b60055490565b6001546001600160a01b031681565b6001546001600160a01b0316610bfb610532565b6001600160a01b031614610c405760405162461bcd60e51b8152600401808060200182810382526031815260200180610eb36031913960400191505060405180910390fd5b60055461067f908263ffffffff610cb816565b610c5b6108ff565b610cac576040805162461bcd60e51b815260206004820181905260248201527f4f776e61626c653a2063616c6c6572206973206e6f7420746865206f776e6572604482015290519081900360640190fd5b610cb581610cfa565b50565b600061059083836040518060400160405280601e81526020017f536166654d6174683a207375627472616374696f6e206f766572666c6f770000815250610d9a565b6001600160a01b038116610d3f5760405162461bcd60e51b8152600401808060200182810382526026815260200180610e326026913960400191505060405180910390fd5b600080546040516001600160a01b03808516939216917f8be0079c531659141344cd1fd0a4f28419497f9722a3daafe3b4186f6b6457e091a3600080546001600160a01b0319166001600160a01b0392909216919091179055565b60008184841115610e295760405162461bcd60e51b81526004018080602001828103825283818151815260200191508051906020019080838360005b83811015610dee578181015183820152602001610dd6565b50505050905090810190601f168015610e1b5780820380516001836020036101000a031916815260200191505b509250505060405180910390fd5b50505090039056fe4f776e61626c653a206e6577206f776e657220697320746865207a65726f206164647265737353746162696c697479506f6f6c3a207472616e73616374696f6e20726576657274656453746162696c697479506f6f6c3a206f6e6c792072656365697665204554482066726f6d20506f6f6c206f7220506f6f6c4d616e6167657253746162696c697479506f6f6c3a204f6e6c792074686520706f6f6c4d616e6167657220697320617574686f72697a6564a265627a7a723158206830b59fe100ea35e513eb839d3972d1c81f9c23bf705bc54843eb91d52de40e64736f6c63430005100032",
  "source": "pragma solidity ^0.5.16;\r\n\r\nimport './Interfaces/IStabilityPool.sol';\r\n// import '@openzeppelin/contracts/ownership/Ownable.sol';\r\n// import '@openzeppelin/contracts/math/SafeMath.sol';\r\n// import \"@nomiclabs/buidler/console.sol\";\r\nimport \"./SafeMath.sol\";\r\nimport \"./Ownable.sol\";\r\nimport \"./console.sol\";\r\n\r\ncontract StabilityPool is Ownable, IStabilityPool {\r\n    using SafeMath for uint256;\r\n\r\n    address public poolManagerAddress;\r\n    address public defaultPoolAddress;\r\n    address public activePoolAddress;\r\n    uint256 public ETH;  // deposited ether tracker\r\n    // Total CLV held in the pool. Changes when users deposit/withdraw, and when CDP debt is offset.\r\n    uint256 public CLV;  \r\n\r\n    // Total user CLV deposits. Used in proportional reward calculation in PoolManager. \r\n    //  Only changes when users deposit/withdraw.\r\n    uint256 public totalCLVDeposits; \r\n\r\n    constructor() public {}\r\n\r\n    // --- Contract setters ---\r\n\r\n    function setPoolManagerAddress(address _poolManagerAddress) public onlyOwner {\r\n        poolManagerAddress = _poolManagerAddress;\r\n        emit PoolManagerAddressChanged(poolManagerAddress);\r\n    }\r\n\r\n    function setActivePoolAddress(address _activePoolAddress) public onlyOwner {\r\n        activePoolAddress = _activePoolAddress;\r\n        emit ActivePoolAddressChanged(activePoolAddress);\r\n    }\r\n    \r\n    function setDefaultPoolAddress(address _defaultPoolAddress) public onlyOwner {\r\n        defaultPoolAddress = _defaultPoolAddress; \r\n        emit DefaultPoolAddressChanged(defaultPoolAddress);\r\n    }\r\n\r\n    // --- Getters for public variables. Required by IPool interface ---\r\n\r\n    function getETH() public view returns(uint) {\r\n        return ETH;\r\n    }\r\n\r\n    function getCLV() public view returns(uint) {\r\n        return CLV;\r\n    }\r\n\r\n    function getTotalCLVDeposits() public view returns(uint) {\r\n        return totalCLVDeposits;\r\n    }\r\n\r\n    // --- Pool functionality ---\r\n\r\n    function sendETH(address _account, uint _amount) public onlyPoolManager returns(bool){\r\n        ETH = ETH.sub(_amount);\r\n        (bool success, ) = _account.call.value(_amount)(\"\");  // use call.value()('') as per Consensys latest advice \r\n        require (success == true, 'StabilityPool: transaction reverted');\r\n        emit ETHBalanceUpdated(ETH);\r\n        emit EtherSent(_account, _amount);\r\n        return success;\r\n    }\r\n\r\n    function increaseCLV(uint _amount) public onlyPoolManager () {\r\n        CLV  = CLV.add(_amount);\r\n        emit CLVBalanceUpdated(CLV);\r\n    }\r\n\r\n    function decreaseCLV(uint _amount) public onlyPoolManager () {\r\n        CLV = CLV.sub(_amount);\r\n        emit CLVBalanceUpdated(CLV);\r\n    }\r\n\r\n    function increaseTotalCLVDeposits(uint _amount) public onlyPoolManager () {\r\n        totalCLVDeposits = totalCLVDeposits.add(_amount);\r\n\r\n    }\r\n\r\n    function decreaseTotalCLVDeposits(uint _amount) public onlyPoolManager () {\r\n        totalCLVDeposits = totalCLVDeposits.sub(_amount);\r\n    }\r\n\r\n    /* Returns the raw ether balance at StabilityPool address.  \r\n    Not necessarily equal to the ETH state variable - ether can be forcibly sent to contracts. */\r\n    function getRawETHBalance() public view returns(uint) {\r\n        return address(this).balance;\r\n    }\r\n\r\n    modifier onlyPoolManager {\r\n        require(_msgSender() == poolManagerAddress, \"StabilityPool: Only the poolManager is authorized\");\r\n        _;\r\n    }\r\n\r\n    modifier onlyPoolManagerOrPool {\r\n        require(\r\n            _msgSender() == poolManagerAddress || \r\n            _msgSender() == activePoolAddress || \r\n            _msgSender() == defaultPoolAddress, \r\n            \"StabilityPool: only receive ETH from Pool or PoolManager\");\r\n        _;\r\n    }\r\n\r\n    function () external payable onlyPoolManagerOrPool {\r\n        ETH = ETH.add(msg.value);\r\n    }\r\n}\r\n",
  "sourcePath": "/home/training/contracts/StabilityPool.sol",
  "compiler": {
    "name": "solc",
    "version": "0.5.16+commit.9c3226ce.Emscripten.clang"
  },
  "schemaVersion": "3.1.0",
  "updatedAt": "2020-06-03T00:09:10.968Z",
  "devdoc": {
    "methods": {
      "isOwner()": {
        "details": "Returns true if the caller is the current owner."
      },
      "owner()": {
        "details": "Returns the address of the current owner."
      },
      "renounceOwnership()": {
        "details": "Leaves the contract without owner. It will not be possible to call `onlyOwner` functions anymore. Can only be called by the current owner.     * NOTE: Renouncing ownership will leave the contract without an owner, thereby removing any functionality that is only available to the owner."
      },
      "transferOwnership(address)": {
        "details": "Transfers ownership of the contract to a new account (`newOwner`). Can only be called by the current owner."
      }
    }
  },
  "userdoc": {
    "methods": {}
  }
}