{
  "contractName": "CDPManager",
  "abi": [
    {
      "inputs": [],
      "payable": true,
      "stateMutability": "payable",
      "type": "constructor"
    },
    {
      "anonymous": false,
      "inputs": [
        {
          "indexed": true,
          "internalType": "address",
          "name": "previousOwner",
          "type": "address"
        },
        {
          "indexed": true,
          "internalType": "address",
          "name": "newOwner",
          "type": "address"
        }
      ],
      "name": "OwnershipTransferred",
      "type": "event"
    },
    {
      "constant": true,
      "inputs": [
        {
          "internalType": "address",
          "name": "",
          "type": "address"
        }
      ],
      "name": "CDPs",
      "outputs": [
        {
          "internalType": "uint256",
          "name": "debt",
          "type": "uint256"
        },
        {
          "internalType": "uint256",
          "name": "coll",
          "type": "uint256"
        },
        {
          "internalType": "uint256",
          "name": "ICR",
          "type": "uint256"
        },
        {
          "internalType": "enum CDPManager.Status",
          "name": "status",
          "type": "uint8"
        }
      ],
      "payable": false,
      "stateMutability": "view",
      "type": "function"
    },
    {
      "constant": true,
      "inputs": [],
      "name": "clvTokenAddress",
      "outputs": [
        {
          "internalType": "address",
          "name": "",
          "type": "address"
        }
      ],
      "payable": false,
      "stateMutability": "view",
      "type": "function"
    },
    {
      "constant": true,
      "inputs": [],
      "name": "isOwner",
      "outputs": [
        {
          "internalType": "bool",
          "name": "",
          "type": "bool"
        }
      ],
      "payable": false,
      "stateMutability": "view",
      "type": "function"
    },
    {
      "constant": true,
      "inputs": [],
      "name": "name",
      "outputs": [
        {
          "internalType": "string",
          "name": "",
          "type": "string"
        }
      ],
      "payable": false,
      "stateMutability": "view",
      "type": "function"
    },
    {
      "constant": true,
      "inputs": [],
      "name": "owner",
      "outputs": [
        {
          "internalType": "address",
          "name": "",
          "type": "address"
        }
      ],
      "payable": false,
      "stateMutability": "view",
      "type": "function"
    },
    {
      "constant": true,
      "inputs": [],
      "name": "poolManagerAddress",
      "outputs": [
        {
          "internalType": "address",
          "name": "",
          "type": "address"
        }
      ],
      "payable": false,
      "stateMutability": "view",
      "type": "function"
    },
    {
      "constant": true,
      "inputs": [],
      "name": "priceFeedAddress",
      "outputs": [
        {
          "internalType": "address",
          "name": "",
          "type": "address"
        }
      ],
      "payable": false,
      "stateMutability": "view",
      "type": "function"
    },
    {
      "constant": false,
      "inputs": [],
      "name": "renounceOwnership",
      "outputs": [],
      "payable": false,
      "stateMutability": "nonpayable",
      "type": "function"
    },
    {
      "constant": true,
      "inputs": [],
      "name": "sortedCDPs",
      "outputs": [
        {
          "internalType": "address",
          "name": "head",
          "type": "address"
        },
        {
          "internalType": "address",
          "name": "tail",
          "type": "address"
        },
        {
          "internalType": "uint256",
          "name": "maxSize",
          "type": "uint256"
        },
        {
          "internalType": "uint256",
          "name": "size",
          "type": "uint256"
        }
      ],
      "payable": false,
      "stateMutability": "view",
      "type": "function"
    },
    {
      "constant": false,
      "inputs": [
        {
          "internalType": "address",
          "name": "newOwner",
          "type": "address"
        }
      ],
      "name": "transferOwnership",
      "outputs": [],
      "payable": false,
      "stateMutability": "nonpayable",
      "type": "function"
    },
    {
      "constant": false,
      "inputs": [
        {
          "internalType": "address",
          "name": "_clvTokenAddress",
          "type": "address"
        }
      ],
      "name": "setCLVToken",
      "outputs": [],
      "payable": false,
      "stateMutability": "nonpayable",
      "type": "function"
    },
    {
      "constant": false,
      "inputs": [
        {
          "internalType": "address",
          "name": "_poolManagerAddress",
          "type": "address"
        }
      ],
      "name": "setPoolManager",
      "outputs": [],
      "payable": false,
      "stateMutability": "nonpayable",
      "type": "function"
    },
    {
      "constant": false,
      "inputs": [
        {
          "internalType": "address",
          "name": "_priceFeedAddress",
          "type": "address"
        }
      ],
      "name": "setPriceFeed",
      "outputs": [],
      "payable": false,
      "stateMutability": "nonpayable",
      "type": "function"
    },
    {
      "constant": true,
      "inputs": [
        {
          "internalType": "address",
          "name": "_debtor",
          "type": "address"
        }
      ],
      "name": "getCollRatio",
      "outputs": [
        {
          "internalType": "uint256",
          "name": "",
          "type": "uint256"
        }
      ],
      "payable": false,
      "stateMutability": "view",
      "type": "function"
    },
    {
      "constant": false,
      "inputs": [],
      "name": "create",
      "outputs": [
        {
          "internalType": "bool",
          "name": "",
          "type": "bool"
        }
      ],
      "payable": false,
      "stateMutability": "nonpayable",
      "type": "function"
    },
    {
      "constant": false,
      "inputs": [],
      "name": "addColl",
      "outputs": [
        {
          "internalType": "bool",
          "name": "",
          "type": "bool"
        }
      ],
      "payable": true,
      "stateMutability": "payable",
      "type": "function"
    },
    {
      "constant": false,
      "inputs": [],
      "name": "mockAddCDP",
      "outputs": [
        {
          "internalType": "bool",
          "name": "",
          "type": "bool"
        }
      ],
      "payable": false,
      "stateMutability": "nonpayable",
      "type": "function"
    },
    {
      "constant": false,
      "inputs": [
        {
          "internalType": "uint256",
          "name": "_amount",
          "type": "uint256"
        }
      ],
      "name": "withdrawColl",
      "outputs": [
        {
          "internalType": "bool",
          "name": "",
          "type": "bool"
        }
      ],
      "payable": false,
      "stateMutability": "nonpayable",
      "type": "function"
    },
    {
      "constant": false,
      "inputs": [
        {
          "internalType": "uint256",
          "name": "_amount",
          "type": "uint256"
        }
      ],
      "name": "withdrawCLV",
      "outputs": [
        {
          "internalType": "bool",
          "name": "",
          "type": "bool"
        }
      ],
      "payable": false,
      "stateMutability": "nonpayable",
      "type": "function"
    },
    {
      "constant": false,
      "inputs": [
        {
          "internalType": "uint256",
          "name": "_amount",
          "type": "uint256"
        }
      ],
      "name": "repayCLV",
      "outputs": [
        {
          "internalType": "bool",
          "name": "",
          "type": "bool"
        }
      ],
      "payable": false,
      "stateMutability": "nonpayable",
      "type": "function"
    },
    {
      "constant": false,
      "inputs": [
        {
          "internalType": "address",
          "name": "_debtor",
          "type": "address"
        }
      ],
      "name": "close",
      "outputs": [
        {
          "internalType": "bool",
          "name": "",
          "type": "bool"
        }
      ],
      "payable": false,
      "stateMutability": "nonpayable",
      "type": "function"
    },
    {
      "constant": false,
      "inputs": [
        {
          "internalType": "uint256",
          "name": "n",
          "type": "uint256"
        }
      ],
      "name": "closeCDPs",
      "outputs": [
        {
          "internalType": "bool",
          "name": "",
          "type": "bool"
        }
      ],
      "payable": false,
      "stateMutability": "nonpayable",
      "type": "function"
    },
    {
      "constant": false,
      "inputs": [
        {
          "internalType": "address",
          "name": "_recipient",
          "type": "address"
        },
        {
          "internalType": "uint256",
          "name": "_debt",
          "type": "uint256"
        }
      ],
      "name": "obtainDefaultShare",
      "outputs": [
        {
          "internalType": "bool",
          "name": "",
          "type": "bool"
        }
      ],
      "payable": false,
      "stateMutability": "nonpayable",
      "type": "function"
    },
    {
      "constant": false,
      "inputs": [
        {
          "internalType": "uint256",
          "name": "_amount",
          "type": "uint256"
        }
      ],
      "name": "redeemCollateral",
      "outputs": [
        {
          "internalType": "bool",
          "name": "",
          "type": "bool"
        }
      ],
      "payable": false,
      "stateMutability": "nonpayable",
      "type": "function"
    }
  ],
  "bytecode": "0x60806040526100126100d260201b60201c565b6000806101000a81548173ffffffffffffffffffffffffffffffffffffffff021916908373ffffffffffffffffffffffffffffffffffffffff1602179055506000809054906101000a900473ffffffffffffffffffffffffffffffffffffffff1673ffffffffffffffffffffffffffffffffffffffff16600073ffffffffffffffffffffffffffffffffffffffff167f8be0079c531659141344cd1fd0a4f28419497f9722a3daafe3b4186f6b6457e060405160405180910390a36100da565b600033905090565b613b6d80620000ea6000396000f3fe60806040526004361061014b5760003560e01c80638f32d59b116100b6578063cebfa6301161006f578063cebfa63014610774578063e0abca0b146107c7578063e6a13f301461081e578063efc81a8c14610875578063f2fde38b146108a4578063fefb4c58146108f55761014b565b80638f32d59b146105275780639e1d6c7814610556578063bd37b775146105ad578063beab5d2f14610600578063c6b71a2014610698578063c74073a11461070b5761014b565b8063715018a611610108578063715018a614610395578063724e78da146103ac5780637a5d5fb7146103fd5780637aef67151461045057806382680b18146104a15780638da5cb5b146104d05761014b565b806306fdde031461015057806325a2e6e7146101e05780632f1aa895146102025780634f60919b146102555780634fa93e66146102a85780636840b9aa14610330575b600080fd5b34801561015c57600080fd5b50610165610946565b6040518080602001828103825283818151815260200191508051906020019080838360005b838110156101a557808201518184015260208101905061018a565b50505050905090810190601f1680156101d25780820380516001836020036101000a031916815260200191505b509250505060405180910390f35b6101e86109e4565b604051808215151515815260200191505060405180910390f35b34801561020e57600080fd5b5061023b6004803603602081101561022557600080fd5b8101908080359060200190929190505050610d4d565b604051808215151515815260200191505060405180910390f35b34801561026157600080fd5b5061028e6004803603602081101561027857600080fd5b8101908080359060200190929190505050610f02565b604051808215151515815260200191505060405180910390f35b3480156102b457600080fd5b506102f7600480360360208110156102cb57600080fd5b81019080803573ffffffffffffffffffffffffffffffffffffffff169060200190929190505050611176565b6040518085815260200184815260200183815260200182600281111561031957fe5b60ff16815260200194505050505060405180910390f35b34801561033c57600080fd5b5061037f6004803603602081101561035357600080fd5b81019080803573ffffffffffffffffffffffffffffffffffffffff1690602001909291905050506111b3565b6040518082815260200191505060405180910390f35b3480156103a157600080fd5b506103aa6111c8565b005b3480156103b857600080fd5b506103fb600480360360208110156103cf57600080fd5b81019080803573ffffffffffffffffffffffffffffffffffffffff169060200190929190505050611301565b005b34801561040957600080fd5b506104366004803603602081101561042057600080fd5b8101908080359060200190929190505050611422565b604051808215151515815260200191505060405180910390f35b34801561045c57600080fd5b5061049f6004803603602081101561047357600080fd5b81019080803573ffffffffffffffffffffffffffffffffffffffff16906020019092919050505061186a565b005b3480156104ad57600080fd5b506104b6611969565b604051808215151515815260200191505060405180910390f35b3480156104dc57600080fd5b506104e5611a41565b604051808273ffffffffffffffffffffffffffffffffffffffff1673ffffffffffffffffffffffffffffffffffffffff16815260200191505060405180910390f35b34801561053357600080fd5b5061053c611a6a565b604051808215151515815260200191505060405180910390f35b34801561056257600080fd5b5061056b611ac8565b604051808273ffffffffffffffffffffffffffffffffffffffff1673ffffffffffffffffffffffffffffffffffffffff16815260200191505060405180910390f35b3480156105b957600080fd5b506105e6600480360360208110156105d057600080fd5b8101908080359060200190929190505050611aee565b604051808215151515815260200191505060405180910390f35b34801561060c57600080fd5b50610615612233565b604051808573ffffffffffffffffffffffffffffffffffffffff1673ffffffffffffffffffffffffffffffffffffffff1681526020018473ffffffffffffffffffffffffffffffffffffffff1673ffffffffffffffffffffffffffffffffffffffff16815260200183815260200182815260200194505050505060405180910390f35b3480156106a457600080fd5b506106f1600480360360408110156106bb57600080fd5b81019080803573ffffffffffffffffffffffffffffffffffffffff16906020019092919080359060200190929190505050612291565b604051808215151515815260200191505060405180910390f35b34801561071757600080fd5b5061075a6004803603602081101561072e57600080fd5b81019080803573ffffffffffffffffffffffffffffffffffffffff1690602001909291905050506128d3565b604051808215151515815260200191505060405180910390f35b34801561078057600080fd5b506107ad6004803603602081101561079757600080fd5b8101908080359060200190929190505050612d72565b604051808215151515815260200191505060405180910390f35b3480156107d357600080fd5b506107dc6132e6565b604051808273ffffffffffffffffffffffffffffffffffffffff1673ffffffffffffffffffffffffffffffffffffffff16815260200191505060405180910390f35b34801561082a57600080fd5b5061083361330c565b604051808273ffffffffffffffffffffffffffffffffffffffff1673ffffffffffffffffffffffffffffffffffffffff16815260200191505060405180910390f35b34801561088157600080fd5b5061088a613332565b604051808215151515815260200191505060405180910390f35b3480156108b057600080fd5b506108f3600480360360208110156108c757600080fd5b81019080803573ffffffffffffffffffffffffffffffffffffffff1690602001909291905050506134b5565b005b34801561090157600080fd5b506109446004803603602081101561091857600080fd5b81019080803573ffffffffffffffffffffffffffffffffffffffff16906020019092919050505061353b565b005b60018054600181600116156101000203166002900480601f0160208091040260200160405190810160405280929190818152602001828054600181600116156101000203166002900480156109dc5780601f106109b1576101008083540402835291602001916109dc565b820191906000526020600020905b8154815290600101906020018083116109bf57829003601f168201915b505050505081565b60006002808111156109f257fe5b600860003373ffffffffffffffffffffffffffffffffffffffff1673ffffffffffffffffffffffffffffffffffffffff16815260200190815260200160002060030160009054906101000a900460ff166002811115610a4d57fe5b1415610ac1576040517f08c379a000000000000000000000000000000000000000000000000000000000815260040180806020018281038252600d8152602001807f43445020697320636c6f7365640000000000000000000000000000000000000081525060200191505060405180910390fd5b60006002811115610ace57fe5b600860003373ffffffffffffffffffffffffffffffffffffffff1673ffffffffffffffffffffffffffffffffffffffff16815260200190815260200160002060030160009054906101000a900460ff166002811115610b2957fe5b1415610b3957610b37613332565b505b34600860003373ffffffffffffffffffffffffffffffffffffffff1673ffffffffffffffffffffffffffffffffffffffff16815260200190815260200160002060010160008282540192505081905550600660009054906101000a900473ffffffffffffffffffffffffffffffffffffffff1673ffffffffffffffffffffffffffffffffffffffff166325a2e6e7346040518263ffffffff1660e01b81526004016020604051808303818588803b158015610bf357600080fd5b505af1158015610c07573d6000803e3d6000fd5b50505050506040513d6020811015610c1e57600080fd5b810190808051906020019092919050505050600973__SortedDoublyLL________________________6338237efe909133610c58336111b3565b33336040518663ffffffff1660e01b8152600401808681526020018573ffffffffffffffffffffffffffffffffffffffff1673ffffffffffffffffffffffffffffffffffffffff1681526020018481526020018373ffffffffffffffffffffffffffffffffffffffff1673ffffffffffffffffffffffffffffffffffffffff1681526020018273ffffffffffffffffffffffffffffffffffffffff1673ffffffffffffffffffffffffffffffffffffffff1681526020019550505050505060006040518083038186803b158015610d2e57600080fd5b505af4158015610d42573d6000803e3d6000fd5b505050506001905090565b6000805b82811015610ef8576000600973__SortedDoublyLL________________________6372e40b2690916040518263ffffffff1660e01b81526004018082815260200191505060206040518083038186803b158015610dad57600080fd5b505af4158015610dc1573d6000803e3d6000fd5b505050506040513d6020811015610dd757600080fd5b81019080805190602001909291905050509050600a670de0b6b3a7640000600b0281610dff57fe5b04610e09826111b3565b1015610e1e57610e18816128d3565b50610e24565b50610ef8565b600973__SortedDoublyLL________________________632ebb2fed90916040518263ffffffff1660e01b81526004018082815260200191505060206040518083038186803b158015610e7657600080fd5b505af4158015610e8a573d6000803e3d6000fd5b505050506040513d6020811015610ea057600080fd5b810190808051906020019092919050505073ffffffffffffffffffffffffffffffffffffffff168173ffffffffffffffffffffffffffffffffffffffff161415610eea5750610ef8565b818060010192505050610d51565b6001915050919050565b600060016002811115610f1157fe5b600860003373ffffffffffffffffffffffffffffffffffffffff1673ffffffffffffffffffffffffffffffffffffffff16815260200190815260200160002060030160009054906101000a900460ff166002811115610f6c57fe5b14610fdf576040517f08c379a000000000000000000000000000000000000000000000000000000000815260040180806020018281038252601f8152602001807f43445020646f6573206e6f74206578697374206f7220697320636c6f7365640081525060200191505060405180910390fd5b60008211611038576040517f08c379a0000000000000000000000000000000000000000000000000000000008152600401808060200182810382526028815260200180613ad36028913960400191505060405180910390fd5b81600860003373ffffffffffffffffffffffffffffffffffffffff1673ffffffffffffffffffffffffffffffffffffffff16815260200190815260200160002060000160008282540192505081905550600660009054906101000a900473ffffffffffffffffffffffffffffffffffffffff1673ffffffffffffffffffffffffffffffffffffffff1663a532483e83336040518363ffffffff1660e01b8152600401808381526020018273ffffffffffffffffffffffffffffffffffffffff1673ffffffffffffffffffffffffffffffffffffffff16815260200192505050602060405180830381600087803b15801561113157600080fd5b505af1158015611145573d6000803e3d6000fd5b505050506040513d602081101561115b57600080fd5b81019080805190602001909291905050505060019050919050565b60086020528060005260406000206000915090508060000154908060010154908060020154908060030160009054906101000a900460ff16905084565b60006111c18260008061363a565b9050919050565b6111d0611a6a565b611242576040517f08c379a00000000000000000000000000000000000000000000000000000000081526004018080602001828103825260208152602001807f4f776e61626c653a2063616c6c6572206973206e6f7420746865206f776e657281525060200191505060405180910390fd5b600073ffffffffffffffffffffffffffffffffffffffff166000809054906101000a900473ffffffffffffffffffffffffffffffffffffffff1673ffffffffffffffffffffffffffffffffffffffff167f8be0079c531659141344cd1fd0a4f28419497f9722a3daafe3b4186f6b6457e060405160405180910390a360008060006101000a81548173ffffffffffffffffffffffffffffffffffffffff021916908373ffffffffffffffffffffffffffffffffffffffff160217905550565b611309611a6a565b61137b576040517f08c379a00000000000000000000000000000000000000000000000000000000081526004018080602001828103825260208152602001807f4f776e61626c653a2063616c6c6572206973206e6f7420746865206f776e657281525060200191505060405180910390fd5b80600560006101000a81548173ffffffffffffffffffffffffffffffffffffffff021916908373ffffffffffffffffffffffffffffffffffffffff160217905550600560009054906101000a900473ffffffffffffffffffffffffffffffffffffffff16600460006101000a81548173ffffffffffffffffffffffffffffffffffffffff021916908373ffffffffffffffffffffffffffffffffffffffff16021790555050565b60006001600281111561143157fe5b600860003373ffffffffffffffffffffffffffffffffffffffff1673ffffffffffffffffffffffffffffffffffffffff16815260200190815260200160002060030160009054906101000a900460ff16600281111561148c57fe5b146114ff576040517f08c379a000000000000000000000000000000000000000000000000000000000815260040180806020018281038252601f8152602001807f43445020646f6573206e6f74206578697374206f7220697320636c6f7365640081525060200191505060405180910390fd5b81600860003373ffffffffffffffffffffffffffffffffffffffff1673ffffffffffffffffffffffffffffffffffffffff16815260200190815260200160002060010154101561159a576040517f08c379a0000000000000000000000000000000000000000000000000000000008152600401808060200182810382526027815260200180613a466027913960400191505060405180910390fd5b600a670de0b6b3a7640000600b02816115af57fe5b046115bf3360008560000361363a565b1015611616576040517f08c379a0000000000000000000000000000000000000000000000000000000008152600401808060200182810382526030815260200180613a6d6030913960400191505060405180910390fd5b81600860003373ffffffffffffffffffffffffffffffffffffffff1673ffffffffffffffffffffffffffffffffffffffff16815260200190815260200160002060010160008282540392505081905550600973__SortedDoublyLL________________________6338237efe90913361168e336111b3565b33336040518663ffffffff1660e01b8152600401808681526020018573ffffffffffffffffffffffffffffffffffffffff1673ffffffffffffffffffffffffffffffffffffffff1681526020018481526020018373ffffffffffffffffffffffffffffffffffffffff1673ffffffffffffffffffffffffffffffffffffffff1681526020018273ffffffffffffffffffffffffffffffffffffffff1673ffffffffffffffffffffffffffffffffffffffff1681526020019550505050505060006040518083038186803b15801561176457600080fd5b505af4158015611778573d6000803e3d6000fd5b50505050600660009054906101000a900473ffffffffffffffffffffffffffffffffffffffff1673ffffffffffffffffffffffffffffffffffffffff1663c504047483336040518363ffffffff1660e01b8152600401808381526020018273ffffffffffffffffffffffffffffffffffffffff1673ffffffffffffffffffffffffffffffffffffffff16815260200192505050602060405180830381600087803b15801561182557600080fd5b505af1158015611839573d6000803e3d6000fd5b505050506040513d602081101561184f57600080fd5b81019080805190602001909291905050505060019050919050565b611872611a6a565b6118e4576040517f08c379a00000000000000000000000000000000000000000000000000000000081526004018080602001828103825260208152602001807f4f776e61626c653a2063616c6c6572206973206e6f7420746865206f776e657281525060200191505060405180910390fd5b80600760006101000a81548173ffffffffffffffffffffffffffffffffffffffff021916908373ffffffffffffffffffffffffffffffffffffffff16021790555080600660006101000a81548173ffffffffffffffffffffffffffffffffffffffff021916908373ffffffffffffffffffffffffffffffffffffffff16021790555050565b6000611973613957565b678ac7230489e8000081602001818152505060008160000181815250506001816060019060028111156119a257fe5b908160028111156119af57fe5b8152505080600860003373ffffffffffffffffffffffffffffffffffffffff1673ffffffffffffffffffffffffffffffffffffffff16815260200190815260200160002060008201518160000155602082015181600101556040820151816002015560608201518160030160006101000a81548160ff02191690836002811115611a3557fe5b02179055509050505090565b60008060009054906101000a900473ffffffffffffffffffffffffffffffffffffffff16905090565b60008060009054906101000a900473ffffffffffffffffffffffffffffffffffffffff1673ffffffffffffffffffffffffffffffffffffffff16611aac6137f0565b73ffffffffffffffffffffffffffffffffffffffff1614905090565b600360009054906101000a900473ffffffffffffffffffffffffffffffffffffffff1681565b600081600260009054906101000a900473ffffffffffffffffffffffffffffffffffffffff1673ffffffffffffffffffffffffffffffffffffffff166370a08231336040518263ffffffff1660e01b8152600401808273ffffffffffffffffffffffffffffffffffffffff1673ffffffffffffffffffffffffffffffffffffffff16815260200191505060206040518083038186803b158015611b9057600080fd5b505afa158015611ba4573d6000803e3d6000fd5b505050506040513d6020811015611bba57600080fd5b81019080805190602001909291905050501015611c3f576040517f08c379a000000000000000000000000000000000000000000000000000000000815260040180806020018281038252601f8152602001807f53656e6465722068617320696e73756666696369656e742062616c616e63650081525060200191505060405180910390fd5b60005b8281101561222d576000600973__SortedDoublyLL________________________6372e40b2690916040518263ffffffff1660e01b81526004018082815260200191505060206040518083038186803b158015611c9e57600080fd5b505af4158015611cb2573d6000803e3d6000fd5b505050506040513d6020811015611cc857600080fd5b81019080805190602001909291905050509050600a670de0b6b3a7640000600b0281611cf057fe5b04611cfa826111b3565b1015611d0f57611d09816128d3565b50612227565b6000611d5f838603600860008573ffffffffffffffffffffffffffffffffffffffff1673ffffffffffffffffffffffffffffffffffffffff168152602001908152602001600020600001546137f8565b905080600860008473ffffffffffffffffffffffffffffffffffffffff1673ffffffffffffffffffffffffffffffffffffffff16815260200190815260200160002060000160008282540392505081905550600460009054906101000a900473ffffffffffffffffffffffffffffffffffffffff1673ffffffffffffffffffffffffffffffffffffffff166398d5fdca6040518163ffffffff1660e01b815260040160206040518083038186803b158015611e1957600080fd5b505afa158015611e2d573d6000803e3d6000fd5b505050506040513d6020811015611e4357600080fd5b8101908080519060200190929190505050670de0b6b3a7640000820281611e6657fe5b04600860008473ffffffffffffffffffffffffffffffffffffffff1673ffffffffffffffffffffffffffffffffffffffff16815260200190815260200160002060010160008282540392505081905550600660009054906101000a900473ffffffffffffffffffffffffffffffffffffffff1673ffffffffffffffffffffffffffffffffffffffff1663d0c49f5582600460009054906101000a900473ffffffffffffffffffffffffffffffffffffffff1673ffffffffffffffffffffffffffffffffffffffff166398d5fdca6040518163ffffffff1660e01b815260040160206040518083038186803b158015611f5d57600080fd5b505afa158015611f71573d6000803e3d6000fd5b505050506040513d6020811015611f8757600080fd5b8101908080519060200190929190505050670de0b6b3a7640000850281611faa57fe5b04336040518463ffffffff1660e01b8152600401808481526020018381526020018273ffffffffffffffffffffffffffffffffffffffff1673ffffffffffffffffffffffffffffffffffffffff1681526020019350505050602060405180830381600087803b15801561201c57600080fd5b505af1158015612030573d6000803e3d6000fd5b505050506040513d602081101561204657600080fd5b8101908080519060200190929190505050506000600660009054906101000a900473ffffffffffffffffffffffffffffffffffffffff1673ffffffffffffffffffffffffffffffffffffffff1663a82555466040518163ffffffff1660e01b815260040160206040518083038186803b1580156120c257600080fd5b505afa1580156120d6573d6000803e3d6000fd5b505050506040513d60208110156120ec57600080fd5b8101908080519060200190929190505050141561210a57505061222d565b600973__SortedDoublyLL________________________6338237efe909184612132866111b3565b33336040518663ffffffff1660e01b8152600401808681526020018573ffffffffffffffffffffffffffffffffffffffff1673ffffffffffffffffffffffffffffffffffffffff1681526020018481526020018373ffffffffffffffffffffffffffffffffffffffff1673ffffffffffffffffffffffffffffffffffffffff1681526020018273ffffffffffffffffffffffffffffffffffffffff1673ffffffffffffffffffffffffffffffffffffffff1681526020019550505050505060006040518083038186803b15801561220857600080fd5b505af415801561221c573d6000803e3d6000fd5b505050508083019250505b50611c42565b50919050565b60098060000160009054906101000a900473ffffffffffffffffffffffffffffffffffffffff16908060010160009054906101000a900473ffffffffffffffffffffffffffffffffffffffff16908060020154908060030154905084565b6000600160028111156122a057fe5b600860008573ffffffffffffffffffffffffffffffffffffffff1673ffffffffffffffffffffffffffffffffffffffff16815260200190815260200160002060030160009054906101000a900460ff1660028111156122fb57fe5b1461236e576040517f08c379a00000000000000000000000000000000000000000000000000000000081526004018080602001828103825260208152602001807f526563697069656e74206d757374206f776e20616e206163746976652043445081525060200191505060405180910390fd5b600660009054906101000a900473ffffffffffffffffffffffffffffffffffffffff1673ffffffffffffffffffffffffffffffffffffffff1663b5ca20226040518163ffffffff1660e01b815260040160206040518083038186803b1580156123d657600080fd5b505afa1580156123ea573d6000803e3d6000fd5b505050506040513d602081101561240057600080fd5b8101908080519060200190929190505050821115612469576040517f08c379a000000000000000000000000000000000000000000000000000000000815260040180806020018281038252603e815260200180613afb603e913960400191505060405180910390fd5b6000600660009054906101000a900473ffffffffffffffffffffffffffffffffffffffff1673ffffffffffffffffffffffffffffffffffffffff1663b5ca20226040518163ffffffff1660e01b815260040160206040518083038186803b1580156124d357600080fd5b505afa1580156124e7573d6000803e3d6000fd5b505050506040513d60208110156124fd57600080fd5b8101908080519060200190929190505050600660009054906101000a900473ffffffffffffffffffffffffffffffffffffffff1673ffffffffffffffffffffffffffffffffffffffff166322e32e6d6040518163ffffffff1660e01b815260040160206040518083038186803b15801561257657600080fd5b505afa15801561258a573d6000803e3d6000fd5b505050506040513d60208110156125a057600080fd5b81019080805190602001909291905050508402816125ba57fe5b0490506014600660009054906101000a900473ffffffffffffffffffffffffffffffffffffffff1673ffffffffffffffffffffffffffffffffffffffff1663b620115d6040518163ffffffff1660e01b815260040160206040518083038186803b15801561262757600080fd5b505afa15801561263b573d6000803e3d6000fd5b505050506040513d602081101561265157600080fd5b81019080805190602001909291905050508161266957fe5b04600660009054906101000a900473ffffffffffffffffffffffffffffffffffffffff1673ffffffffffffffffffffffffffffffffffffffff1663b620115d6040518163ffffffff1660e01b815260040160206040518083038186803b1580156126d257600080fd5b505afa1580156126e6573d6000803e3d6000fd5b505050506040513d60208110156126fc57600080fd5b81019080805190602001909291905050500361271985858461363a565b1161276f576040517f08c379a0000000000000000000000000000000000000000000000000000000008152600401808060200182810382526036815260200180613a9d6036913960400191505060405180910390fd5b82600860008673ffffffffffffffffffffffffffffffffffffffff1673ffffffffffffffffffffffffffffffffffffffff1681526020019081526020016000206000016000828254019250508190555080600860008673ffffffffffffffffffffffffffffffffffffffff1673ffffffffffffffffffffffffffffffffffffffff16815260200190815260200160002060010160008282540192505081905550600660009054906101000a900473ffffffffffffffffffffffffffffffffffffffff1673ffffffffffffffffffffffffffffffffffffffff16634d5bc11184836040518363ffffffff1660e01b81526004018083815260200182815260200192505050602060405180830381600087803b15801561288c57600080fd5b505af11580156128a0573d6000803e3d6000fd5b505050506040513d60208110156128b657600080fd5b810190808051906020019092919050505050600191505092915050565b6000600160028111156128e257fe5b600860008473ffffffffffffffffffffffffffffffffffffffff1673ffffffffffffffffffffffffffffffffffffffff16815260200190815260200160002060030160009054906101000a900460ff16600281111561293d57fe5b14612993576040517f08c379a00000000000000000000000000000000000000000000000000000000081526004018080602001828103825260278152602001806139ad6027913960400191505060405180910390fd5b600a670de0b6b3a7640000600b02816129a857fe5b046129b2836111b3565b10612a25576040517f08c379a000000000000000000000000000000000000000000000000000000000815260040180806020018281038252601b8152602001807f434450206e6f7420756e646572636f6c6c61746572616c697a6564000000000081525060200191505060405180910390fd5b612a2d61398a565b600660009054906101000a900473ffffffffffffffffffffffffffffffffffffffff1673ffffffffffffffffffffffffffffffffffffffff1663335525ad600860008673ffffffffffffffffffffffffffffffffffffffff1673ffffffffffffffffffffffffffffffffffffffff16815260200190815260200160002060000154600860008773ffffffffffffffffffffffffffffffffffffffff1673ffffffffffffffffffffffffffffffffffffffff168152602001908152602001600020600101546040518363ffffffff1660e01b815260040180838152602001828152602001925050506040805180830381600087803b158015612b2d57600080fd5b505af1158015612b41573d6000803e3d6000fd5b505050506040513d601f19601f820116820180604052506040811015612b6657600080fd5b81019080919050509050600081600060028110612b7f57fe5b60200201511115612c6657600660009054906101000a900473ffffffffffffffffffffffffffffffffffffffff1673ffffffffffffffffffffffffffffffffffffffff1663596c897682600060028110612bd557fe5b602002015183600160028110612be757fe5b60200201516040518363ffffffff1660e01b81526004018083815260200182815260200192505050602060405180830381600087803b158015612c2957600080fd5b505af1158015612c3d573d6000803e3d6000fd5b505050506040513d6020811015612c5357600080fd5b8101908080519060200190929190505050505b6002600860008573ffffffffffffffffffffffffffffffffffffffff1673ffffffffffffffffffffffffffffffffffffffff16815260200190815260200160002060030160006101000a81548160ff02191690836002811115612cc557fe5b0217905550600973__SortedDoublyLL________________________635d35e0079091856040518363ffffffff1660e01b8152600401808381526020018273ffffffffffffffffffffffffffffffffffffffff1673ffffffffffffffffffffffffffffffffffffffff1681526020019250505060006040518083038186803b158015612d5057600080fd5b505af4158015612d64573d6000803e3d6000fd5b505050506001915050919050565b600060016002811115612d8157fe5b600860003373ffffffffffffffffffffffffffffffffffffffff1673ffffffffffffffffffffffffffffffffffffffff16815260200190815260200160002060030160009054906101000a900460ff166002811115612ddc57fe5b14612e4f576040517f08c379a000000000000000000000000000000000000000000000000000000000815260040180806020018281038252601f8152602001807f43445020646f6573206e6f74206578697374206f7220697320636c6f7365640081525060200191505060405180910390fd5b60008211612ea8576040517f08c379a0000000000000000000000000000000000000000000000000000000008152600401808060200182810382526023815260200180613a236023913960400191505060405180910390fd5b600860003373ffffffffffffffffffffffffffffffffffffffff1673ffffffffffffffffffffffffffffffffffffffff16815260200190815260200160002060000154821115612f43576040517f08c379a00000000000000000000000000000000000000000000000000000000081526004018080602001828103825260298152602001806139fa6029913960400191505060405180910390fd5b81600260009054906101000a900473ffffffffffffffffffffffffffffffffffffffff1673ffffffffffffffffffffffffffffffffffffffff166370a08231336040518263ffffffff1660e01b8152600401808273ffffffffffffffffffffffffffffffffffffffff1673ffffffffffffffffffffffffffffffffffffffff16815260200191505060206040518083038186803b158015612fe357600080fd5b505afa158015612ff7573d6000803e3d6000fd5b505050506040513d602081101561300d57600080fd5b81019080805190602001909291905050501015613092576040517f08c379a000000000000000000000000000000000000000000000000000000000815260040180806020018281038252601f8152602001807f53656e6465722068617320696e73756666696369656e742062616c616e63650081525060200191505060405180910390fd5b81600860003373ffffffffffffffffffffffffffffffffffffffff1673ffffffffffffffffffffffffffffffffffffffff16815260200190815260200160002060000160008282540392505081905550600660009054906101000a900473ffffffffffffffffffffffffffffffffffffffff1673ffffffffffffffffffffffffffffffffffffffff1663f78b338883336040518363ffffffff1660e01b8152600401808381526020018273ffffffffffffffffffffffffffffffffffffffff1673ffffffffffffffffffffffffffffffffffffffff16815260200192505050602060405180830381600087803b15801561318b57600080fd5b505af115801561319f573d6000803e3d6000fd5b505050506040513d60208110156131b557600080fd5b810190808051906020019092919050505050600973__SortedDoublyLL________________________6338237efe9091336131ef336111b3565b33336040518663ffffffff1660e01b8152600401808681526020018573ffffffffffffffffffffffffffffffffffffffff1673ffffffffffffffffffffffffffffffffffffffff1681526020018481526020018373ffffffffffffffffffffffffffffffffffffffff1673ffffffffffffffffffffffffffffffffffffffff1681526020018273ffffffffffffffffffffffffffffffffffffffff1673ffffffffffffffffffffffffffffffffffffffff1681526020019550505050505060006040518083038186803b1580156132c557600080fd5b505af41580156132d9573d6000803e3d6000fd5b5050505060019050919050565b600560009054906101000a900473ffffffffffffffffffffffffffffffffffffffff1681565b600760009054906101000a900473ffffffffffffffffffffffffffffffffffffffff1681565b60006001600860003373ffffffffffffffffffffffffffffffffffffffff1673ffffffffffffffffffffffffffffffffffffffff16815260200190815260200160002060030160006101000a81548160ff0219169083600281111561339357fe5b0217905550600973__SortedDoublyLL________________________634fbaa9a69091336133c0336111b3565b33336040518663ffffffff1660e01b8152600401808681526020018573ffffffffffffffffffffffffffffffffffffffff1673ffffffffffffffffffffffffffffffffffffffff1681526020018481526020018373ffffffffffffffffffffffffffffffffffffffff1673ffffffffffffffffffffffffffffffffffffffff1681526020018273ffffffffffffffffffffffffffffffffffffffff1673ffffffffffffffffffffffffffffffffffffffff1681526020019550505050505060006040518083038186803b15801561349657600080fd5b505af41580156134aa573d6000803e3d6000fd5b505050506001905090565b6134bd611a6a565b61352f576040517f08c379a00000000000000000000000000000000000000000000000000000000081526004018080602001828103825260208152602001807f4f776e61626c653a2063616c6c6572206973206e6f7420746865206f776e657281525060200191505060405180910390fd5b61353881613813565b50565b613543611a6a565b6135b5576040517f08c379a00000000000000000000000000000000000000000000000000000000081526004018080602001828103825260208152602001807f4f776e61626c653a2063616c6c6572206973206e6f7420746865206f776e657281525060200191505060405180910390fd5b80600360006101000a81548173ffffffffffffffffffffffffffffffffffffffff021916908373ffffffffffffffffffffffffffffffffffffffff16021790555080600260006101000a81548173ffffffffffffffffffffffffffffffffffffffff021916908373ffffffffffffffffffffffffffffffffffffffff16021790555050565b60008083600860008773ffffffffffffffffffffffffffffffffffffffff1673ffffffffffffffffffffffffffffffffffffffff168152602001908152602001600020600001540111156137c55782600860008673ffffffffffffffffffffffffffffffffffffffff1673ffffffffffffffffffffffffffffffffffffffff1681526020019081526020016000206000015401600460009054906101000a900473ffffffffffffffffffffffffffffffffffffffff1673ffffffffffffffffffffffffffffffffffffffff166398d5fdca6040518163ffffffff1660e01b815260040160206040518083038186803b15801561373557600080fd5b505afa158015613749573d6000803e3d6000fd5b505050506040513d602081101561375f57600080fd5b810190808051906020019092919050505083600860008873ffffffffffffffffffffffffffffffffffffffff1673ffffffffffffffffffffffffffffffffffffffff168152602001908152602001600020600101540102816137bd57fe5b0490506137e9565b7fffffffffffffffffffffffffffffffffffffffffffffffffffffffffffffffff90505b9392505050565b600033905090565b60008183116138095782905061380d565b8190505b92915050565b600073ffffffffffffffffffffffffffffffffffffffff168173ffffffffffffffffffffffffffffffffffffffff161415613899576040517f08c379a00000000000000000000000000000000000000000000000000000000081526004018080602001828103825260268152602001806139d46026913960400191505060405180910390fd5b8073ffffffffffffffffffffffffffffffffffffffff166000809054906101000a900473ffffffffffffffffffffffffffffffffffffffff1673ffffffffffffffffffffffffffffffffffffffff167f8be0079c531659141344cd1fd0a4f28419497f9722a3daafe3b4186f6b6457e060405160405180910390a3806000806101000a81548173ffffffffffffffffffffffffffffffffffffffff021916908373ffffffffffffffffffffffffffffffffffffffff16021790555050565b60405180608001604052806000815260200160008152602001600081526020016000600281111561398457fe5b81525090565b604051806040016040528060029060208202803883398082019150509050509056fe43445020646f6573206e6f74206578697374206f7220697320616c726561647920636c6f7365644f776e61626c653a206e6577206f776e657220697320746865207a65726f206164647265737352657061696420616d6f756e74206973206c6172676572207468616e2063757272656e74206465627452657061696420616d6f756e74206d757374206265206c6172676572207468616e2030496e73756666696369656e742062616c616e636520666f7220455448207769746864726177616c496e73756666696369656e7420636f6c6c61746572616c20726174696f20666f7220455448207769746864726177616c436f6c6c61746572616c20726174696f20776f756c6420626520647261776e2062656c6f77206d6178696d756d2064726177646f776e416d6f756e7420746f207769746864726177206d757374206265206c6172676572207468616e20304465627420696e207468652064656661756c7420706f6f6c20736d616c6c6572207468616e20746865207370656669636965642064656274207368617265a265627a7a723158205c136c5b906aeeaff215e28c4cff9400953149943ec8634a6eed299f7fccb8cc64736f6c634300050c0032",
  "source": "pragma solidity ^0.5.11;\r\n\r\n// TODO: Use SafeMath\r\nimport \"./CLVToken.sol\";\r\nimport \"./PriceFeed.sol\";\r\nimport \"./SortedDoublyLL.sol\";\r\nimport \"./PoolManager.sol\";\r\n\r\nimport '../node_modules/@openzeppelin/contracts/ownership/Ownable.sol';\r\n\r\ncontract CDPManager is Ownable {\r\n    using SortedDoublyLL for SortedDoublyLL.Data;\r\n    string public name;\r\n    uint constant DIGITS = 1e18; // Number of digits used for precision, e.g. when calculating redistribution shares. Equals \"ether\" unit.\r\n    uint constant MCR = (11 * DIGITS) / 10; // Minimal collateral ratio (e.g. 110%). TODO: Allow variable MCR\r\n    uint constant MAX_DRAWDOWN = 20; // Loans cannot be drawn down more than 5% (= 1/20) below the TCR when receiving redistribution shares\r\n    enum Status { inexistent, active, closed }\r\n    \r\n    // Declare the Token, PriceFeed and PoolManager contracts\r\n    CLVToken CLV; \r\n    address public clvTokenAddress;\r\n\r\n    PriceFeed priceFeed;\r\n    address public priceFeedAddress;\r\n\r\n    PoolManager poolManager;\r\n    address public poolManagerAddress;\r\n\r\n    // Stores the necessary data for a Collateralized Debt Position (CDP)\r\n    struct CDP {\r\n        uint debt;\r\n        uint coll;\r\n        uint ICR; // Individual Collateral Ratio\r\n        Status status;\r\n    }\r\n    \r\n    mapping (address => CDP) public CDPs; // A map of all existing (active and closed) CDPs\r\n    SortedDoublyLL.Data public sortedCDPs; // A doubly linked CDP list sorted by the collateral ratio of the CDPs\r\n\r\n    // Register the owner and the name of the CDP contract and install other contracts\r\n\r\n    constructor() \r\n        public  \r\n        payable\r\n    {\r\n        // Create the CLV token contract\r\n        // CLV = new CLVToken(\"CLV\");\r\n        // CLVAddress = address(CLV);\r\n        \r\n        // Create the ETHPriceFeed contract\r\n        // PriceFeed = new ETHPriceFeed(DIGITS);\r\n        // PriceFeedAddress = address(PriceFeed);\r\n         \r\n        // Create the StabilityPool contract\r\n        // Pools = new PoolManager(DIGITS, PriceFeedAddress, CLVAddress);\r\n        // PoolAddress = address(Pools);\r\n        \r\n        // CLV.registerPool(PoolAddress);\r\n        \r\n        // Set maximum size for sortedCDPs\r\n        // sortedCDPs.setMaxSize(1000000);\r\n\r\n        // TODO - EXTRACT TESTS\r\n\r\n    // Three default CDPs for debugging\r\n    // address constant CDP1 = 0xCA35b7d915458EF540aDe6068dFe2F44E8fa733c;\r\n    // address constant CDP2 = 0x14723A09ACff6D2A60DcdF7aA4AFf308FDDC160C;\r\n    // address constant CDP3 = 0x4B0897b0513fdC7C541B6d9D7E929C4e5364D2dB;\r\n    \r\n        // Create and initialize some example CDPs as a test scenario\r\n        // uint CDP1_debt = 400; uint CDP1_coll = 5 ether;\r\n        // uint CDP2_debt = 200; uint CDP2_coll = 2 ether;\r\n        // uint CDP3_debt = 210; uint CDP3_coll = 1 ether; // Undercollateralized!\r\n        \r\n        // Total debt at the start = 810000000000000000000\r\n        // Total coll at the start = 8000000000000000000\r\n        \r\n        // CDP 1\r\n        // CDPs[CDP1].status = Status.active;\r\n        // CDPs[CDP1].coll = CDP1_coll;\r\n        // CDPs[CDP1].debt = CDP1_debt * 1e18;\r\n        // Pools.initializeCDP.value(CDP1_coll)(CDP1, CDP1_debt * 1e18);\r\n        // sortedCDPs.insert(CDP1, getCollRatio(CDP1), CDP1, CDP1);\r\n    \r\n        // // CDP 2\r\n        // CDPs[CDP2].status = Status.active;\r\n        // CDPs[CDP2].coll = CDP2_coll;\r\n        // CDPs[CDP2].debt = CDP2_debt * 1e18;\r\n        // Pools.initializeCDP.value(CDP2_coll)(CDP2, CDP2_debt * 1e18);\r\n        // sortedCDPs.insert(CDP2, getCollRatio(CDP2), CDP1, CDP1);\r\n        \r\n        // // CDP 3\r\n        // CDPs[CDP3].status = Status.active;\r\n        // CDPs[CDP3].coll = CDP3_coll;\r\n        // CDPs[CDP3].debt = CDP3_debt * 1e18;\r\n        // Pools.initializeCDP.value(CDP3_coll)(CDP3, CDP3_debt * 1e18);\r\n        // sortedCDPs.insert(CDP3, getCollRatio(CDP3), CDP1, CDP1);\r\n        \r\n        // CDP 1 transfers all CLV tokens to address 0x583031D1113aD414F02576BD6afaBfb302140225\r\n        // Pools.transferCLV(CDP1, 0x583031D1113aD414F02576BD6afaBfb302140225, CDP1_debt * 1e18);\r\n        \r\n        // CDP 2 transfers all CLV tokens to address 0xdD870fA1b7C4700F2BD7f44238821C26f7392148\r\n        // Pools.transferCLV(CDP2, 0xdD870fA1b7C4700F2BD7f44238821C26f7392148, CDP2_debt * 1e18);\r\n    }   \r\n\r\n    // Contract setters  \r\n    function setCLVToken(address _clvTokenAddress) public onlyOwner {\r\n        clvTokenAddress = _clvTokenAddress;\r\n        CLV = CLVToken(_clvTokenAddress);\r\n    }\r\n\r\n    function setPoolManager(address _poolManagerAddress) public onlyOwner {\r\n        poolManagerAddress = _poolManagerAddress;\r\n        poolManager = PoolManager(_poolManagerAddress);\r\n    }\r\n\r\n     function setPriceFeed(address _priceFeedAddress) public onlyOwner {\r\n        priceFeedAddress = _priceFeedAddress;\r\n        priceFeed = PriceFeed(priceFeedAddress);\r\n    }\r\n\r\n    // Returns the new collateral ratio considering the debt and/or colleral that should be added or removed \r\n    function getNewCollRatio(address _debtor, uint _debt_change, uint _coll_change) \r\n        view \r\n        internal \r\n        returns (uint) \r\n    {\r\n        // Check if the total debt is higher than 0 to avoid division by 0\r\n        if (CDPs[_debtor].debt + _debt_change > 0) {\r\n            return (CDPs[_debtor].coll + _coll_change) * priceFeed.getPrice() / (CDPs[_debtor].debt + _debt_change);\r\n        }\r\n        // Return the maximal vale for uint256 if the CDP has a debt of 0\r\n        else {\r\n            return 2**256-1; \r\n        }\r\n    }\r\n    \r\n    // Returns the current collateral ratio of a specified CDP\r\n    function getCollRatio(address _debtor) \r\n        view \r\n        public \r\n        returns (uint) \r\n    {\r\n        return getNewCollRatio(_debtor, 0, 0);\r\n    }\r\n    \r\n    // Create a new CDP\r\n      // Create a new CDP\r\n    function create() \r\n        public\r\n        returns (bool) \r\n    {\r\n        // require(CDPs[msg.sender].status == Status.inexistent, \"CDP already exists\");\r\n        \r\n        CDPs[msg.sender].status = Status.active; \r\n        sortedCDPs.insert(msg.sender, getCollRatio(msg.sender), msg.sender, msg.sender);\r\n        \r\n        return true;\r\n    }\r\n    \r\n    // Pay a given number of ETH (msg.value) as collateral to a CDP \r\n    function addColl() \r\n        public \r\n        payable \r\n        returns (bool) \r\n    {\r\n        // Potential issue with using msg.sender as the key in the CDPs map: Users may not be able interact via other contracts since the \r\n        // msg.sender would then be the contract rather than the transacting user. Beware of tx.origin.\r\n        require(CDPs[msg.sender].status != Status.closed, \"CDP is closed\");\r\n        \r\n        // Create a CDP if it does not exist yet\r\n        if (CDPs[msg.sender].status == Status.inexistent) {\r\n            create();\r\n        }\r\n        \r\n        // Add the received collateral to the CDP and calculate the new collateral ratio\r\n        CDPs[msg.sender].coll += msg.value;\r\n        \r\n        // Add the received collateral to the ActivePool (note that transfer() does not work as it restricts gas usage to 2300)\r\n        poolManager.addColl.value(msg.value)();\r\n        \r\n        // Update entry in sortedCDPs\r\n        sortedCDPs.updateKey(msg.sender, getCollRatio(msg.sender), msg.sender, msg.sender);\r\n        \r\n        return true;\r\n    }\r\n\r\n    /* **** DELETE AFTER CDP FUNCTIONALITY IMPLEMENTED **** \r\n    * temporary function, used by CLVToken test suite to easily add CDPs.\r\n    Later, replace with full CDP creation process.\r\n    */\r\n    function mockAddCDP() public returns(bool) {\r\n        CDP memory cdp;\r\n        cdp.coll = 10e18;\r\n        cdp.debt = 0;\r\n        cdp.status = Status.active;\r\n\r\n        CDPs[msg.sender] = cdp;\r\n    }\r\n    \r\n    // Withdraw ETH collateral from a CDP\r\n    // TODO: Check re-entrancy protection\r\n    function withdrawColl(uint _amount) \r\n        public \r\n        returns (bool) \r\n    {\r\n        require(CDPs[msg.sender].status == Status.active, \"CDP does not exist or is closed\");\r\n        require(CDPs[msg.sender].coll >= _amount, \"Insufficient balance for ETH withdrawal\");\r\n        require(getNewCollRatio(msg.sender, 0, -_amount) >= MCR, \"Insufficient collateral ratio for ETH withdrawal\");\r\n        \r\n        // Reduce the ETH collateral by _amount\r\n        CDPs[msg.sender].coll -= _amount;\r\n        \r\n        // Update entry in sortedCDPs\r\n        sortedCDPs.updateKey(msg.sender, getCollRatio(msg.sender), msg.sender, msg.sender);\r\n        \r\n        // Remove _amount ETH from ActivePool and send it to the CDP owner (msg.sender)\r\n        poolManager.withdrawColl(_amount, msg.sender);\r\n        \r\n        return true;\r\n    }\r\n    \r\n    // Withdraw CLV tokens from a CDP: Mint new CLV and increase the debt accordingly\r\n    function withdrawCLV(uint _amount) \r\n        public \r\n        returns (bool) \r\n    {\r\n        require(CDPs[msg.sender].status == Status.active, \"CDP does not exist or is closed\");\r\n        require(_amount > 0, \"Amount to withdraw must be larger than 0\");\r\n        // require(getNewCollRatio(msg.sender, _amount, 0) >= MCR, \"Insufficient collateral ratio for CLV withdrawal\");\r\n        \r\n        // Increase the debt by the withdrawn amount of CLV\r\n        CDPs[msg.sender].debt += _amount;\r\n\r\n        // Mint the given amount of CLV, add them to the ActivePool and send them to CDP owner's address \r\n        poolManager.withdrawCLV(_amount, msg.sender);\r\n        \r\n        // Update entry in sortedCDPs\r\n        // sortedCDPs.updateKey(msg.sender, getCollRatio(msg.sender), msg.sender, msg.sender);\r\n        \r\n        return true; \r\n    }\r\n    \r\n    // Repay CLV tokens to a CDP: Burn the repaid CLV tokens and reduce the debt accordingly\r\n    function repayCLV(uint _amount) \r\n        public \r\n        returns (bool) \r\n    {\r\n        require(CDPs[msg.sender].status == Status.active, \"CDP does not exist or is closed\");\r\n        require(_amount > 0, \"Repaid amount must be larger than 0\");\r\n        require(_amount <= CDPs[msg.sender].debt, \"Repaid amount is larger than current debt\");\r\n        require(CLV.balanceOf(msg.sender) >= _amount, \"Sender has insufficient balance\");\r\n        // TODO: Maybe allow foreign accounts to repay loans\r\n        \r\n        // Reduce the debt and calculate the new collateral ratio\r\n        CDPs[msg.sender].debt -= _amount;\r\n        \r\n        // Burn the received amount of CLV and remove them from the ActivePool\r\n        poolManager.repayCLV(_amount, msg.sender);\r\n\r\n        // Update entry in sortedCDPs\r\n        sortedCDPs.updateKey(msg.sender, getCollRatio(msg.sender), msg.sender, msg.sender);\r\n        \r\n        return true;\r\n    }\r\n\r\n    // Closes the CDP of the speficied _debtor if its individual collateral ratio is lower than the minimum collateral ratio.\r\n    // TODO: This function should eventually be internal and only be called by closeCDPs(...). \r\n    function close(address _debtor) \r\n        public \r\n        returns (bool) \r\n    {\r\n        require(CDPs[_debtor].status == Status.active, \"CDP does not exist or is already closed\");\r\n        require(getCollRatio(_debtor) < MCR, \"CDP not undercollateralized\");\r\n        \r\n        // Offset as much debt & collateral as possible against the StabilityPool and save the returned remainders\r\n        uint[2] memory remainder = poolManager.offset(CDPs[_debtor].debt, CDPs[_debtor].coll);\r\n        if (remainder[0] > 0) {\r\n            // If the debt could not be offset entirely, transfer the remaining debt & collateral from Active Pool to Default Pool \r\n            // Note: remainder[0] = remaining debt; remainder[1] = remaining collateral;\r\n            poolManager.close(remainder[0], remainder[1]);\r\n        }\r\n        \r\n        // Close the CDP\r\n        CDPs[_debtor].status = Status.closed;\r\n        \r\n        // Remove CDP from sortedCDPs\r\n        sortedCDPs.remove(_debtor);\r\n        \r\n        return true;\r\n    }\r\n     \r\n    \r\n    // Closes a maximum number of n multiple undercollateralized CPDs, starting from the one with the lowest collateral ratio\r\n    // Caller: anybody \r\n    // TODO: Should probably be synchronized with PriceFeed and called every time the price is updated\r\n    function closeCDPs(uint n)\r\n        public\r\n        returns (bool)\r\n    {    \r\n        uint i;\r\n        while (i < n) {\r\n            address currentCDP = sortedCDPs.getLast();\r\n            \r\n            // Close CDPs if it is undercollateralized\r\n            if (getCollRatio(currentCDP) < MCR) {\r\n                close(currentCDP);\r\n            } else break;\r\n            \r\n            // Break loop if you reach the first CDP in the sorted list \r\n            // Check if issue with changing list position\r\n            if (currentCDP == sortedCDPs.getFirst()) \r\n                break;\r\n            \r\n            i++;\r\n        }       \r\n        return true;\r\n     }\r\n            \r\n            \r\n    // The specified _debtor obtains the given debt share and the corresponding collateral share from the default pool   \r\n    // Caller: anybody\r\n    \r\n    // TODO: Implement some more sophisticated logic that for example only allows the public to assign a debt & coll share\r\n    // to any CDP if the Default Pool is indebted (i.e. its collateral ratio is < 100%). Otherwise, only the owner of a CDP\r\n    // should be able to obtain a default share for himself. In this case, maybe impose more limits as described in the\r\n    // slide deck. Optimally, we could get rid of this mechanism alltogether and distribute undercollateralized loans that\r\n    // could not be offset against the Stability Pool in proportion to some excess collateral above a given threshold.\r\n    function obtainDefaultShare(address _recipient, uint _debt) \r\n        public \r\n        returns (bool) \r\n    {\r\n        require(CDPs[_recipient].status == Status.active, \"Recipient must own an active CDP\");\r\n        require(_debt <= poolManager.closedDebt(), \"Debt in the default pool smaller than the speficied debt share\");\r\n        \r\n        uint coll = (_debt * poolManager.closedColl()) / poolManager.closedDebt(); // Calculate collateral share coll from _debt\r\n        require(getNewCollRatio(_recipient, _debt, coll) > poolManager.getTCR() - poolManager.getTCR() / MAX_DRAWDOWN, \"Collateral ratio would be drawn below maximum drawdown\");\r\n        \r\n        // Add debt & coll share to the CDP and to the total and remove them from the default pool\r\n        CDPs[_recipient].debt += _debt;\r\n        CDPs[_recipient].coll += coll;\r\n        \r\n        poolManager.obtainDefaultShare(_debt, coll);\r\n        \r\n        return true;\r\n    }\r\n    \r\n    // Returns the lower value from two given integers\r\n    function getMin(uint a, uint b) \r\n        internal\r\n        pure\r\n        returns (uint)\r\n    {\r\n        if (a <= b) return a;\r\n        else return b;\r\n    }    \r\n    \r\n    // Sends _amount CLV to the system and redeems the corresponding amount of collateral from as many CDPs as are needed to fill the redemption\r\n    // request. Note that if _amount is very large, this function can run out of gas. This can be easily avoided by splitting the total _amount\r\n    // in appropriate chunks and calling the function multiple times.\r\n    \r\n    // TODO: Maybe also use the default pool for redemptions\r\n    // TODO: Levy a redemption fee (and maybe also impose a rate limit on redemptions)\r\n    function redeemCollateral(uint _amount) \r\n        public\r\n        returns (bool)\r\n    {\r\n        require(CLV.balanceOf(msg.sender) >= _amount, \"Sender has insufficient balance\");\r\n        uint redeemed;\r\n        \r\n        // Loop through the CDPs starting from the one with lowest collateral ratio until _amount of CLV is exchanged for collateral\r\n        while (redeemed < _amount) {\r\n            address currentCDP = sortedCDPs.getLast();\r\n            \r\n            // Close CDPs along the way that turn out to be undercollateralized\r\n            if (getCollRatio(currentCDP) < MCR) {\r\n                close(currentCDP);\r\n            }\r\n            else {\r\n                // Determine the remaining amount (lot) to be redeemed, capped by the entire debt of the current CDP \r\n                uint lot = getMin(_amount - redeemed, CDPs[currentCDP].debt);\r\n                    \r\n                // Decrease the debt and collateral of the current CDP according to the lot\r\n                CDPs[currentCDP].debt -= lot;\r\n                CDPs[currentCDP].coll -= (lot * DIGITS) / priceFeed.getPrice();\r\n\r\n                // Burn the calculated lot of CLV and send the corresponding ETH to msg.sender\r\n                poolManager.redeemCollateral(lot, (lot * DIGITS) / priceFeed.getPrice(), msg.sender);\r\n\r\n                // Break the loop if there is no more active debt to redeem \r\n                if (poolManager.activeDebt() == 0) break;    \r\n                    \r\n                // Update the sortedCDPs list and the redeemed amount\r\n                sortedCDPs.updateKey(currentCDP, getCollRatio(currentCDP), msg.sender, msg.sender); \r\n                \r\n                redeemed += lot;\r\n                \r\n            }\r\n            \r\n        }\r\n    }    \r\n}",
  "sourcePath": "C:/Users/Administrator/Desktop/Cleverage/contracts/CDPManager.sol",
  "compiler": {
    "name": "solc",
    "version": "0.5.12+commit.7709ece9.Emscripten.clang"
  },
  "schemaVersion": "3.0.19",
  "updatedAt": "2019-12-03T21:42:39.189Z",
  "networkType": "ethereum",
  "devdoc": {
    "methods": {
      "isOwner()": {
        "details": "Returns true if the caller is the current owner."
      },
      "owner()": {
        "details": "Returns the address of the current owner."
      },
      "renounceOwnership()": {
        "details": "Leaves the contract without owner. It will not be possible to call `onlyOwner` functions anymore. Can only be called by the current owner.     * NOTE: Renouncing ownership will leave the contract without an owner, thereby removing any functionality that is only available to the owner."
      },
      "transferOwnership(address)": {
        "details": "Transfers ownership of the contract to a new account (`newOwner`). Can only be called by the current owner."
      }
    }
  },
  "userdoc": {
    "methods": {}
  }
}