{
  "contractName": "CDPManager",
  "abi": [
    {
      "inputs": [],
      "payable": true,
      "stateMutability": "payable",
      "type": "constructor"
    },
    {
      "anonymous": false,
      "inputs": [
        {
          "indexed": false,
          "internalType": "address",
          "name": "_user",
          "type": "address"
        }
      ],
      "name": "CDPClosed",
      "type": "event"
    },
    {
      "anonymous": false,
      "inputs": [
        {
          "indexed": false,
          "internalType": "address",
          "name": "_user",
          "type": "address"
        }
      ],
      "name": "CDPCreated",
      "type": "event"
    },
    {
      "anonymous": false,
      "inputs": [
        {
          "indexed": false,
          "internalType": "address",
          "name": "_user",
          "type": "address"
        },
        {
          "indexed": false,
          "internalType": "uint256",
          "name": "_debt",
          "type": "uint256"
        },
        {
          "indexed": false,
          "internalType": "uint256",
          "name": "_coll",
          "type": "uint256"
        },
        {
          "indexed": false,
          "internalType": "uint256",
          "name": "ICR",
          "type": "uint256"
        }
      ],
      "name": "CDPUpdated",
      "type": "event"
    },
    {
      "anonymous": false,
      "inputs": [
        {
          "indexed": false,
          "internalType": "address",
          "name": "_user",
          "type": "address"
        },
        {
          "indexed": false,
          "internalType": "uint256",
          "name": "_amountRepayed",
          "type": "uint256"
        }
      ],
      "name": "CLVRepayed",
      "type": "event"
    },
    {
      "anonymous": false,
      "inputs": [
        {
          "indexed": false,
          "internalType": "address",
          "name": "_newCLVTokenAddress",
          "type": "address"
        }
      ],
      "name": "CLVTokenAddressChanged",
      "type": "event"
    },
    {
      "anonymous": false,
      "inputs": [
        {
          "indexed": false,
          "internalType": "address",
          "name": "_user",
          "type": "address"
        },
        {
          "indexed": false,
          "internalType": "uint256",
          "name": "_amountWithdrawn",
          "type": "uint256"
        }
      ],
      "name": "CLVWithdrawn",
      "type": "event"
    },
    {
      "anonymous": false,
      "inputs": [
        {
          "indexed": false,
          "internalType": "address",
          "name": "_user",
          "type": "address"
        },
        {
          "indexed": false,
          "internalType": "uint256",
          "name": "_amountAdded",
          "type": "uint256"
        }
      ],
      "name": "CollateralAdded",
      "type": "event"
    },
    {
      "anonymous": false,
      "inputs": [
        {
          "indexed": false,
          "internalType": "address",
          "name": "_user",
          "type": "address"
        },
        {
          "indexed": false,
          "internalType": "uint256",
          "name": "redeemedAmount",
          "type": "uint256"
        }
      ],
      "name": "CollateralRedeemed",
      "type": "event"
    },
    {
      "anonymous": false,
      "inputs": [
        {
          "indexed": false,
          "internalType": "address",
          "name": "_user",
          "type": "address"
        },
        {
          "indexed": false,
          "internalType": "uint256",
          "name": "_amountWithdrawn",
          "type": "uint256"
        }
      ],
      "name": "CollateralWithdrawn",
      "type": "event"
    },
    {
      "anonymous": false,
      "inputs": [
        {
          "indexed": true,
          "internalType": "address",
          "name": "previousOwner",
          "type": "address"
        },
        {
          "indexed": true,
          "internalType": "address",
          "name": "newOwner",
          "type": "address"
        }
      ],
      "name": "OwnershipTransferred",
      "type": "event"
    },
    {
      "anonymous": false,
      "inputs": [
        {
          "indexed": false,
          "internalType": "address",
          "name": "_newPoolManagerAddress",
          "type": "address"
        }
      ],
      "name": "PoolManagerAddressChanged",
      "type": "event"
    },
    {
      "anonymous": false,
      "inputs": [
        {
          "indexed": false,
          "internalType": "address",
          "name": "_newPriceFeedAddress",
          "type": "address"
        }
      ],
      "name": "PriceFeedAddressChanged",
      "type": "event"
    },
    {
      "constant": true,
      "inputs": [
        {
          "internalType": "address",
          "name": "",
          "type": "address"
        }
      ],
      "name": "CDPs",
      "outputs": [
        {
          "internalType": "uint256",
          "name": "debt",
          "type": "uint256"
        },
        {
          "internalType": "uint256",
          "name": "coll",
          "type": "uint256"
        },
        {
          "internalType": "uint256",
          "name": "ICR",
          "type": "uint256"
        },
        {
          "internalType": "enum CDPManager.Status",
          "name": "status",
          "type": "uint8"
        }
      ],
      "payable": false,
      "stateMutability": "view",
      "type": "function"
    },
    {
      "constant": true,
      "inputs": [],
      "name": "clvTokenAddress",
      "outputs": [
        {
          "internalType": "address",
          "name": "",
          "type": "address"
        }
      ],
      "payable": false,
      "stateMutability": "view",
      "type": "function"
    },
    {
      "constant": true,
      "inputs": [],
      "name": "isOwner",
      "outputs": [
        {
          "internalType": "bool",
          "name": "",
          "type": "bool"
        }
      ],
      "payable": false,
      "stateMutability": "view",
      "type": "function"
    },
    {
      "constant": true,
      "inputs": [],
      "name": "name",
      "outputs": [
        {
          "internalType": "string",
          "name": "",
          "type": "string"
        }
      ],
      "payable": false,
      "stateMutability": "view",
      "type": "function"
    },
    {
      "constant": true,
      "inputs": [],
      "name": "owner",
      "outputs": [
        {
          "internalType": "address",
          "name": "",
          "type": "address"
        }
      ],
      "payable": false,
      "stateMutability": "view",
      "type": "function"
    },
    {
      "constant": true,
      "inputs": [],
      "name": "poolManagerAddress",
      "outputs": [
        {
          "internalType": "address",
          "name": "",
          "type": "address"
        }
      ],
      "payable": false,
      "stateMutability": "view",
      "type": "function"
    },
    {
      "constant": true,
      "inputs": [],
      "name": "priceFeedAddress",
      "outputs": [
        {
          "internalType": "address",
          "name": "",
          "type": "address"
        }
      ],
      "payable": false,
      "stateMutability": "view",
      "type": "function"
    },
    {
      "constant": false,
      "inputs": [],
      "name": "renounceOwnership",
      "outputs": [],
      "payable": false,
      "stateMutability": "nonpayable",
      "type": "function"
    },
    {
      "constant": true,
      "inputs": [],
      "name": "sortedCDPs",
      "outputs": [
        {
          "internalType": "address",
          "name": "head",
          "type": "address"
        },
        {
          "internalType": "address",
          "name": "tail",
          "type": "address"
        },
        {
          "internalType": "uint256",
          "name": "maxSize",
          "type": "uint256"
        },
        {
          "internalType": "uint256",
          "name": "size",
          "type": "uint256"
        }
      ],
      "payable": false,
      "stateMutability": "view",
      "type": "function"
    },
    {
      "constant": false,
      "inputs": [
        {
          "internalType": "address",
          "name": "newOwner",
          "type": "address"
        }
      ],
      "name": "transferOwnership",
      "outputs": [],
      "payable": false,
      "stateMutability": "nonpayable",
      "type": "function"
    },
    {
      "constant": false,
      "inputs": [
        {
          "internalType": "address",
          "name": "_poolManagerAddress",
          "type": "address"
        }
      ],
      "name": "setPoolManager",
      "outputs": [],
      "payable": false,
      "stateMutability": "nonpayable",
      "type": "function"
    },
    {
      "constant": false,
      "inputs": [
        {
          "internalType": "address",
          "name": "_priceFeedAddress",
          "type": "address"
        }
      ],
      "name": "setPriceFeed",
      "outputs": [],
      "payable": false,
      "stateMutability": "nonpayable",
      "type": "function"
    },
    {
      "constant": false,
      "inputs": [
        {
          "internalType": "address",
          "name": "_clvTokenAddress",
          "type": "address"
        }
      ],
      "name": "setCLVToken",
      "outputs": [],
      "payable": false,
      "stateMutability": "nonpayable",
      "type": "function"
    },
    {
      "constant": true,
      "inputs": [],
      "name": "getMCR",
      "outputs": [
        {
          "internalType": "uint256",
          "name": "",
          "type": "uint256"
        }
      ],
      "payable": false,
      "stateMutability": "pure",
      "type": "function"
    },
    {
      "constant": true,
      "inputs": [
        {
          "internalType": "uint256",
          "name": "x",
          "type": "uint256"
        },
        {
          "internalType": "uint256",
          "name": "y",
          "type": "uint256"
        },
        {
          "internalType": "uint256",
          "name": "z",
          "type": "uint256"
        }
      ],
      "name": "getAccurateMulDiv",
      "outputs": [
        {
          "internalType": "uint256",
          "name": "",
          "type": "uint256"
        }
      ],
      "payable": false,
      "stateMutability": "pure",
      "type": "function"
    },
    {
      "constant": true,
      "inputs": [
        {
          "internalType": "address",
          "name": "id",
          "type": "address"
        }
      ],
      "name": "sortedCDPsContains",
      "outputs": [
        {
          "internalType": "bool",
          "name": "",
          "type": "bool"
        }
      ],
      "payable": false,
      "stateMutability": "view",
      "type": "function"
    },
    {
      "constant": true,
      "inputs": [],
      "name": "sortedCDPsIsEmpty",
      "outputs": [
        {
          "internalType": "bool",
          "name": "",
          "type": "bool"
        }
      ],
      "payable": false,
      "stateMutability": "view",
      "type": "function"
    },
    {
      "constant": true,
      "inputs": [],
      "name": "sortedCDPsIsFull",
      "outputs": [
        {
          "internalType": "bool",
          "name": "",
          "type": "bool"
        }
      ],
      "payable": false,
      "stateMutability": "view",
      "type": "function"
    },
    {
      "constant": true,
      "inputs": [],
      "name": "sortedCDPsgetSize",
      "outputs": [
        {
          "internalType": "uint256",
          "name": "",
          "type": "uint256"
        }
      ],
      "payable": false,
      "stateMutability": "view",
      "type": "function"
    },
    {
      "constant": true,
      "inputs": [],
      "name": "sortedCDPsGetMaxSize",
      "outputs": [
        {
          "internalType": "uint256",
          "name": "",
          "type": "uint256"
        }
      ],
      "payable": false,
      "stateMutability": "view",
      "type": "function"
    },
    {
      "constant": true,
      "inputs": [
        {
          "internalType": "address",
          "name": "user",
          "type": "address"
        }
      ],
      "name": "sortedCDPsGetKey",
      "outputs": [
        {
          "internalType": "uint256",
          "name": "",
          "type": "uint256"
        }
      ],
      "payable": false,
      "stateMutability": "view",
      "type": "function"
    },
    {
      "constant": true,
      "inputs": [],
      "name": "sortedCDPsGetFirst",
      "outputs": [
        {
          "internalType": "address",
          "name": "",
          "type": "address"
        }
      ],
      "payable": false,
      "stateMutability": "view",
      "type": "function"
    },
    {
      "constant": true,
      "inputs": [],
      "name": "sortedCDPsGetLast",
      "outputs": [
        {
          "internalType": "address",
          "name": "",
          "type": "address"
        }
      ],
      "payable": false,
      "stateMutability": "view",
      "type": "function"
    },
    {
      "constant": true,
      "inputs": [
        {
          "internalType": "address",
          "name": "user",
          "type": "address"
        }
      ],
      "name": "sortedCDPsGetNext",
      "outputs": [
        {
          "internalType": "address",
          "name": "",
          "type": "address"
        }
      ],
      "payable": false,
      "stateMutability": "view",
      "type": "function"
    },
    {
      "constant": true,
      "inputs": [
        {
          "internalType": "address",
          "name": "user",
          "type": "address"
        }
      ],
      "name": "sortedCDPsGetPrev",
      "outputs": [
        {
          "internalType": "address",
          "name": "",
          "type": "address"
        }
      ],
      "payable": false,
      "stateMutability": "view",
      "type": "function"
    },
    {
      "constant": true,
      "inputs": [
        {
          "internalType": "address",
          "name": "_debtor",
          "type": "address"
        }
      ],
      "name": "getCollRatio",
      "outputs": [
        {
          "internalType": "uint256",
          "name": "",
          "type": "uint256"
        }
      ],
      "payable": false,
      "stateMutability": "view",
      "type": "function"
    },
    {
      "constant": false,
      "inputs": [],
      "name": "userCreateCDP",
      "outputs": [
        {
          "internalType": "bool",
          "name": "",
          "type": "bool"
        }
      ],
      "payable": false,
      "stateMutability": "nonpayable",
      "type": "function"
    },
    {
      "constant": false,
      "inputs": [],
      "name": "addColl",
      "outputs": [
        {
          "internalType": "bool",
          "name": "",
          "type": "bool"
        }
      ],
      "payable": true,
      "stateMutability": "payable",
      "type": "function"
    },
    {
      "constant": false,
      "inputs": [],
      "name": "mockAddCDP",
      "outputs": [
        {
          "internalType": "bool",
          "name": "",
          "type": "bool"
        }
      ],
      "payable": false,
      "stateMutability": "nonpayable",
      "type": "function"
    },
    {
      "constant": false,
      "inputs": [
        {
          "internalType": "uint256",
          "name": "_amount",
          "type": "uint256"
        }
      ],
      "name": "withdrawColl",
      "outputs": [
        {
          "internalType": "bool",
          "name": "",
          "type": "bool"
        }
      ],
      "payable": false,
      "stateMutability": "nonpayable",
      "type": "function"
    },
    {
      "constant": false,
      "inputs": [
        {
          "internalType": "uint256",
          "name": "_amount",
          "type": "uint256"
        }
      ],
      "name": "withdrawCLV",
      "outputs": [
        {
          "internalType": "bool",
          "name": "",
          "type": "bool"
        }
      ],
      "payable": false,
      "stateMutability": "nonpayable",
      "type": "function"
    },
    {
      "constant": false,
      "inputs": [
        {
          "internalType": "uint256",
          "name": "_amount",
          "type": "uint256"
        }
      ],
      "name": "repayCLV",
      "outputs": [
        {
          "internalType": "bool",
          "name": "",
          "type": "bool"
        }
      ],
      "payable": false,
      "stateMutability": "nonpayable",
      "type": "function"
    },
    {
      "constant": false,
      "inputs": [
        {
          "internalType": "address",
          "name": "_debtor",
          "type": "address"
        }
      ],
      "name": "close",
      "outputs": [
        {
          "internalType": "bool",
          "name": "",
          "type": "bool"
        }
      ],
      "payable": false,
      "stateMutability": "nonpayable",
      "type": "function"
    },
    {
      "constant": false,
      "inputs": [
        {
          "internalType": "uint256",
          "name": "n",
          "type": "uint256"
        }
      ],
      "name": "closeCDPs",
      "outputs": [
        {
          "internalType": "bool",
          "name": "",
          "type": "bool"
        }
      ],
      "payable": false,
      "stateMutability": "nonpayable",
      "type": "function"
    },
    {
      "constant": false,
      "inputs": [
        {
          "internalType": "address",
          "name": "_user",
          "type": "address"
        },
        {
          "internalType": "uint256",
          "name": "_debtShare",
          "type": "uint256"
        }
      ],
      "name": "obtainDefaultShare",
      "outputs": [
        {
          "internalType": "bool",
          "name": "",
          "type": "bool"
        }
      ],
      "payable": false,
      "stateMutability": "nonpayable",
      "type": "function"
    },
    {
      "constant": false,
      "inputs": [
        {
          "internalType": "uint256",
          "name": "_amount",
          "type": "uint256"
        }
      ],
      "name": "redeemCollateral",
      "outputs": [
        {
          "internalType": "bool",
          "name": "",
          "type": "bool"
        }
      ],
      "payable": false,
      "stateMutability": "nonpayable",
      "type": "function"
    }
  ],
  "bytecode": "0x6080604052620000146200014c60201b60201c565b6000806101000a81548173ffffffffffffffffffffffffffffffffffffffff021916908373ffffffffffffffffffffffffffffffffffffffff1602179055506000809054906101000a900473ffffffffffffffffffffffffffffffffffffffff1673ffffffffffffffffffffffffffffffffffffffff16600073ffffffffffffffffffffffffffffffffffffffff167f8be0079c531659141344cd1fd0a4f28419497f9722a3daafe3b4186f6b6457e060405160405180910390a3600973__SortedDoublyLL________________________63a176adaf9091620f42406040518363ffffffff1660e01b8152600401808381526020018281526020019250505060006040518083038186803b1580156200012d57600080fd5b505af415801562000142573d6000803e3d6000fd5b5050505062000154565b600033905090565b615d5380620001646000396000f3fe60806040526004361061020f5760003560e01c80638da5cb5b11610118578063c74073a1116100a0578063e6a13f301161006f578063e6a13f3014610c37578063efb028c314610c8e578063f0dba07f14610cf1578063f2fde38b14610d48578063fefb4c5814610d995761020f565b8063c74073a114610af9578063cebfa63014610b62578063e0abca0b14610bb5578063e3bfc08814610c0c5761020f565b8063b2ceb616116100e7578063b2ceb616146108a1578063b857ce5414610932578063bd37b7751461099b578063beab5d2f146109ee578063c6b71a2014610a865761020f565b80638da5cb5b1461075f5780638f32d59b146107b6578063947be26a146107e55780639e1d6c781461084a5761020f565b80635e2429d91161019b578063724e78da1161016a578063724e78da1461060c5780637a5d5fb71461065d5780637aef6715146106b057806382680b181461070157806382cac7df146107305761020f565b80635e2429d91461053257806366351a4f146105615780636840b9aa14610590578063715018a6146105f55761020f565b80632f1aa895116101e25780632f1aa895146103485780633bb104de1461039b57806344936b101461042c5780634f60919b146104575780634fa93e66146104aa5761020f565b806306fdde0314610214578063168ea0fb146102a4578063232b5db4146102fb57806325a2e6e714610326575b600080fd5b34801561022057600080fd5b50610229610dea565b6040518080602001828103825283818151815260200191508051906020019080838360005b8381101561026957808201518184015260208101905061024e565b50505050905090810190601f1680156102965780820380516001836020036101000a031916815260200191505b509250505060405180910390f35b3480156102b057600080fd5b506102b9610e88565b604051808273ffffffffffffffffffffffffffffffffffffffff1673ffffffffffffffffffffffffffffffffffffffff16815260200191505060405180910390f35b34801561030757600080fd5b50610310610f1c565b6040518082815260200191505060405180910390f35b61032e610fb0565b604051808215151515815260200191505060405180910390f35b34801561035457600080fd5b506103816004803603602081101561036b57600080fd5b810190808035906020019092919050505061176a565b604051808215151515815260200191505060405180910390f35b3480156103a757600080fd5b506103ea600480360360208110156103be57600080fd5b81019080803573ffffffffffffffffffffffffffffffffffffffff169060200190929190505050611927565b604051808273ffffffffffffffffffffffffffffffffffffffff1673ffffffffffffffffffffffffffffffffffffffff16815260200191505060405180910390f35b34801561043857600080fd5b506104416119f1565b6040518082815260200191505060405180910390f35b34801561046357600080fd5b506104906004803603602081101561047a57600080fd5b8101908080359060200190929190505050611a0e565b604051808215151515815260200191505060405180910390f35b3480156104b657600080fd5b506104f9600480360360208110156104cd57600080fd5b81019080803573ffffffffffffffffffffffffffffffffffffffff16906020019092919050505061203c565b6040518085815260200184815260200183815260200182600381111561051b57fe5b60ff16815260200194505050505060405180910390f35b34801561053e57600080fd5b50610547612079565b604051808215151515815260200191505060405180910390f35b34801561056d57600080fd5b5061057661210d565b604051808215151515815260200191505060405180910390f35b34801561059c57600080fd5b506105df600480360360208110156105b357600080fd5b81019080803573ffffffffffffffffffffffffffffffffffffffff16906020019092919050505061212c565b6040518082815260200191505060405180910390f35b34801561060157600080fd5b5061060a612141565b005b34801561061857600080fd5b5061065b6004803603602081101561062f57600080fd5b81019080803573ffffffffffffffffffffffffffffffffffffffff16906020019092919050505061227a565b005b34801561066957600080fd5b506106966004803603602081101561068057600080fd5b81019080803590602001909291905050506123fe565b604051808215151515815260200191505060405180910390f35b3480156106bc57600080fd5b506106ff600480360360208110156106d357600080fd5b81019080803573ffffffffffffffffffffffffffffffffffffffff169060200190929190505050612a71565b005b34801561070d57600080fd5b50610716612bd3565b604051808215151515815260200191505060405180910390f35b34801561073c57600080fd5b50610745612cb2565b604051808215151515815260200191505060405180910390f35b34801561076b57600080fd5b50610774612d46565b604051808273ffffffffffffffffffffffffffffffffffffffff1673ffffffffffffffffffffffffffffffffffffffff16815260200191505060405180910390f35b3480156107c257600080fd5b506107cb612d6f565b604051808215151515815260200191505060405180910390f35b3480156107f157600080fd5b506108346004803603602081101561080857600080fd5b81019080803573ffffffffffffffffffffffffffffffffffffffff169060200190929190505050612dcd565b6040518082815260200191505060405180910390f35b34801561085657600080fd5b5061085f612e97565b604051808273ffffffffffffffffffffffffffffffffffffffff1673ffffffffffffffffffffffffffffffffffffffff16815260200191505060405180910390f35b3480156108ad57600080fd5b506108f0600480360360208110156108c457600080fd5b81019080803573ffffffffffffffffffffffffffffffffffffffff169060200190929190505050612ebd565b604051808273ffffffffffffffffffffffffffffffffffffffff1673ffffffffffffffffffffffffffffffffffffffff16815260200191505060405180910390f35b34801561093e57600080fd5b506109816004803603602081101561095557600080fd5b81019080803573ffffffffffffffffffffffffffffffffffffffff169060200190929190505050612f87565b604051808215151515815260200191505060405180910390f35b3480156109a757600080fd5b506109d4600480360360208110156109be57600080fd5b8101908080359060200190929190505050613051565b604051808215151515815260200191505060405180910390f35b3480156109fa57600080fd5b50610a036139ff565b604051808573ffffffffffffffffffffffffffffffffffffffff1673ffffffffffffffffffffffffffffffffffffffff1681526020018473ffffffffffffffffffffffffffffffffffffffff1673ffffffffffffffffffffffffffffffffffffffff16815260200183815260200182815260200194505050505060405180910390f35b348015610a9257600080fd5b50610adf60048036036040811015610aa957600080fd5b81019080803573ffffffffffffffffffffffffffffffffffffffff16906020019092919080359060200190929190505050613a5d565b604051808215151515815260200191505060405180910390f35b348015610b0557600080fd5b50610b4860048036036020811015610b1c57600080fd5b81019080803573ffffffffffffffffffffffffffffffffffffffff1690602001909291905050506141ca565b604051808215151515815260200191505060405180910390f35b348015610b6e57600080fd5b50610b9b60048036036020811015610b8557600080fd5b81019080803590602001909291905050506146af565b604051808215151515815260200191505060405180910390f35b348015610bc157600080fd5b50610bca614df2565b604051808273ffffffffffffffffffffffffffffffffffffffff1673ffffffffffffffffffffffffffffffffffffffff16815260200191505060405180910390f35b348015610c1857600080fd5b50610c21614e18565b6040518082815260200191505060405180910390f35b348015610c4357600080fd5b50610c4c614eac565b604051808273ffffffffffffffffffffffffffffffffffffffff1673ffffffffffffffffffffffffffffffffffffffff16815260200191505060405180910390f35b348015610c9a57600080fd5b50610cdb60048036036060811015610cb157600080fd5b81019080803590602001909291908035906020019092919080359060200190929190505050614ed2565b6040518082815260200191505060405180910390f35b348015610cfd57600080fd5b50610d06614f77565b604051808273ffffffffffffffffffffffffffffffffffffffff1673ffffffffffffffffffffffffffffffffffffffff16815260200191505060405180910390f35b348015610d5457600080fd5b50610d9760048036036020811015610d6b57600080fd5b81019080803573ffffffffffffffffffffffffffffffffffffffff16906020019092919050505061500b565b005b348015610da557600080fd5b50610de860048036036020811015610dbc57600080fd5b81019080803573ffffffffffffffffffffffffffffffffffffffff169060200190929190505050615091565b005b60018054600181600116156101000203166002900480601f016020809104026020016040519081016040528092919081815260200182805460018160011615610100020316600290048015610e805780601f10610e5557610100808354040283529160200191610e80565b820191906000526020600020905b815481529060010190602001808311610e6357829003601f168201915b505050505081565b6000600973__SortedDoublyLL________________________6372e40b2690916040518263ffffffff1660e01b81526004018082815260200191505060206040518083038186803b158015610edc57600080fd5b505af4158015610ef0573d6000803e3d6000fd5b505050506040513d6020811015610f0657600080fd5b8101908080519060200190929190505050905090565b6000600973__SortedDoublyLL________________________63735bc2ca90916040518263ffffffff1660e01b81526004018082815260200191505060206040518083038186803b158015610f7057600080fd5b505af4158015610f84573d6000803e3d6000fd5b505050506040513d6020811015610f9a57600080fd5b8101908080519060200190929190505050905090565b600080610fbb6151f3565b90506000809050600380811115610fce57fe5b600860008473ffffffffffffffffffffffffffffffffffffffff1673ffffffffffffffffffffffffffffffffffffffff16815260200190815260200160002060030160009054906101000a900460ff16600381111561102957fe5b141561109d576040517f08c379a00000000000000000000000000000000000000000000000000000000081526004018080602001828103825260198152602001807f4344504d616e616765723a2043445020697320636c6f7365640000000000000081525060200191505060405180910390fd5b600060038111156110aa57fe5b600860008473ffffffffffffffffffffffffffffffffffffffff1673ffffffffffffffffffffffffffffffffffffffff16815260200190815260200160002060030160009054906101000a900460ff16600381111561110557fe5b141561111e57611114826151fb565b5060019050611192565b6001600381111561112b57fe5b600860008473ffffffffffffffffffffffffffffffffffffffff1673ffffffffffffffffffffffffffffffffffffffff16815260200190815260200160002060030160009054906101000a900460ff16600381111561118657fe5b141561119157600190505b5b6002600860008473ffffffffffffffffffffffffffffffffffffffff1673ffffffffffffffffffffffffffffffffffffffff16815260200190815260200160002060030160006101000a81548160ff021916908360038111156111f157fe5b021790555061124b34600860008573ffffffffffffffffffffffffffffffffffffffff1673ffffffffffffffffffffffffffffffffffffffff168152602001908152602001600020600101546153f690919063ffffffff16565b600860008473ffffffffffffffffffffffffffffffffffffffff1673ffffffffffffffffffffffffffffffffffffffff16815260200190815260200160002060010181905550600260009054906101000a900473ffffffffffffffffffffffffffffffffffffffff1673ffffffffffffffffffffffffffffffffffffffff166325a2e6e7346040518263ffffffff1660e01b81526004016020604051808303818588803b1580156112fb57600080fd5b505af115801561130f573d6000803e3d6000fd5b50505050506040513d602081101561132657600080fd5b81019080805190602001909291905050505060006113438361212c565b905080600860008573ffffffffffffffffffffffffffffffffffffffff1673ffffffffffffffffffffffffffffffffffffffff1681526020019081526020016000206002018190555081156114a557600973__SortedDoublyLL________________________634fbaa9a69091858487886040518663ffffffff1660e01b8152600401808681526020018573ffffffffffffffffffffffffffffffffffffffff1673ffffffffffffffffffffffffffffffffffffffff1681526020018481526020018373ffffffffffffffffffffffffffffffffffffffff1673ffffffffffffffffffffffffffffffffffffffff1681526020018273ffffffffffffffffffffffffffffffffffffffff1673ffffffffffffffffffffffffffffffffffffffff1681526020019550505050505060006040518083038186803b15801561148857600080fd5b505af415801561149c573d6000803e3d6000fd5b505050506115b4565b600973__SortedDoublyLL________________________6338237efe9091858487886040518663ffffffff1660e01b8152600401808681526020018573ffffffffffffffffffffffffffffffffffffffff1673ffffffffffffffffffffffffffffffffffffffff1681526020018481526020018373ffffffffffffffffffffffffffffffffffffffff1673ffffffffffffffffffffffffffffffffffffffff1681526020018273ffffffffffffffffffffffffffffffffffffffff1673ffffffffffffffffffffffffffffffffffffffff1681526020019550505050505060006040518083038186803b15801561159b57600080fd5b505af41580156115af573d6000803e3d6000fd5b505050505b7f7dba1be544024070cd5eebfa8bdd80a8b198cea8058c7d3cc1f8dd36e41ab2f78334604051808373ffffffffffffffffffffffffffffffffffffffff1673ffffffffffffffffffffffffffffffffffffffff1681526020018281526020019250505060405180910390a17f2089894292d66b85abed43c6f71beaa6404b56065da9b6ef3112fddf9c53d9ac83600860008673ffffffffffffffffffffffffffffffffffffffff1673ffffffffffffffffffffffffffffffffffffffff16815260200190815260200160002060000154600860008773ffffffffffffffffffffffffffffffffffffffff1673ffffffffffffffffffffffffffffffffffffffff16815260200190815260200160002060010154600860008873ffffffffffffffffffffffffffffffffffffffff1673ffffffffffffffffffffffffffffffffffffffff16815260200190815260200160002060020154604051808573ffffffffffffffffffffffffffffffffffffffff1673ffffffffffffffffffffffffffffffffffffffff16815260200184815260200183815260200182815260200194505050505060405180910390a16001935050505090565b6000805b8281101561191d576000600973__SortedDoublyLL________________________6372e40b2690916040518263ffffffff1660e01b81526004018082815260200191505060206040518083038186803b1580156117ca57600080fd5b505af41580156117de573d6000803e3d6000fd5b505050506040513d60208110156117f457600080fd5b8101908080519060200190929190505050905060006118128261212c565b9050600a670de0b6b3a7640000600b028161182957fe5b048110156118405761183a826141ca565b50611847565b505061191d565b600973__SortedDoublyLL________________________632ebb2fed90916040518263ffffffff1660e01b81526004018082815260200191505060206040518083038186803b15801561189957600080fd5b505af41580156118ad573d6000803e3d6000fd5b505050506040513d60208110156118c357600080fd5b810190808051906020019092919050505073ffffffffffffffffffffffffffffffffffffffff168273ffffffffffffffffffffffffffffffffffffffff16141561190e57505061191d565b8280600101935050505061176e565b6001915050919050565b6000600973__SortedDoublyLL________________________63fe1ee7199091846040518363ffffffff1660e01b8152600401808381526020018273ffffffffffffffffffffffffffffffffffffffff1673ffffffffffffffffffffffffffffffffffffffff1681526020019250505060206040518083038186803b1580156119af57600080fd5b505af41580156119c3573d6000803e3d6000fd5b505050506040513d60208110156119d957600080fd5b81019080805190602001909291905050509050919050565b6000600a670de0b6b3a7640000600b0281611a0857fe5b04905090565b600080611a196151f3565b90506000611a298285600061547e565b905060026003811115611a3857fe5b600860008473ffffffffffffffffffffffffffffffffffffffff1673ffffffffffffffffffffffffffffffffffffffff16815260200190815260200160002060030160009054906101000a900460ff166003811115611a9357fe5b14611ae9576040517f08c379a000000000000000000000000000000000000000000000000000000000815260040180806020018281038252602b815260200180615b04602b913960400191505060405180910390fd5b60008411611b42576040517f08c379a0000000000000000000000000000000000000000000000000000000008152600401808060200182810382526034815260200180615a2d6034913960400191505060405180910390fd5b600a670de0b6b3a7640000600b0281611b5757fe5b04811015611bb0576040517f08c379a000000000000000000000000000000000000000000000000000000000815260040180806020018281038252603c815260200180615be3603c913960400191505060405180910390fd5b611c0584600860008573ffffffffffffffffffffffffffffffffffffffff1673ffffffffffffffffffffffffffffffffffffffff168152602001908152602001600020600001546153f690919063ffffffff16565b600860008473ffffffffffffffffffffffffffffffffffffffff1673ffffffffffffffffffffffffffffffffffffffff1681526020019081526020016000206000018190555080600860008473ffffffffffffffffffffffffffffffffffffffff1673ffffffffffffffffffffffffffffffffffffffff16815260200190815260200160002060020181905550600260009054906101000a900473ffffffffffffffffffffffffffffffffffffffff1673ffffffffffffffffffffffffffffffffffffffff16632e90bbd883866040518363ffffffff1660e01b8152600401808373ffffffffffffffffffffffffffffffffffffffff1673ffffffffffffffffffffffffffffffffffffffff16815260200182815260200192505050602060405180830381600087803b158015611d3b57600080fd5b505af1158015611d4f573d6000803e3d6000fd5b505050506040513d6020811015611d6557600080fd5b810190808051906020019092919050505050600973__SortedDoublyLL________________________6338237efe9091848486876040518663ffffffff1660e01b8152600401808681526020018573ffffffffffffffffffffffffffffffffffffffff1673ffffffffffffffffffffffffffffffffffffffff1681526020018481526020018373ffffffffffffffffffffffffffffffffffffffff1673ffffffffffffffffffffffffffffffffffffffff1681526020018273ffffffffffffffffffffffffffffffffffffffff1673ffffffffffffffffffffffffffffffffffffffff1681526020019550505050505060006040518083038186803b158015611e6d57600080fd5b505af4158015611e81573d6000803e3d6000fd5b505050507f640913f748017f33c962e4f95d85294d0233e0f9a254706a2d739a5b47f68ef08285604051808373ffffffffffffffffffffffffffffffffffffffff1673ffffffffffffffffffffffffffffffffffffffff1681526020018281526020019250505060405180910390a17f2089894292d66b85abed43c6f71beaa6404b56065da9b6ef3112fddf9c53d9ac82600860008573ffffffffffffffffffffffffffffffffffffffff1673ffffffffffffffffffffffffffffffffffffffff16815260200190815260200160002060000154600860008673ffffffffffffffffffffffffffffffffffffffff1673ffffffffffffffffffffffffffffffffffffffff16815260200190815260200160002060010154600860008773ffffffffffffffffffffffffffffffffffffffff1673ffffffffffffffffffffffffffffffffffffffff16815260200190815260200160002060020154604051808573ffffffffffffffffffffffffffffffffffffffff1673ffffffffffffffffffffffffffffffffffffffff16815260200184815260200183815260200182815260200194505050505060405180910390a1600192505050919050565b60086020528060005260406000206000915090508060000154908060010154908060020154908060030160009054906101000a900460ff16905084565b6000600973__SortedDoublyLL________________________634aa1299090916040518263ffffffff1660e01b81526004018082815260200191505060206040518083038186803b1580156120cd57600080fd5b505af41580156120e1573d6000803e3d6000fd5b505050506040513d60208110156120f757600080fd5b8101908080519060200190929190505050905090565b6000806121186151f3565b9050612123816151fb565b50600191505090565b600061213a8260008061547e565b9050919050565b612149612d6f565b6121bb576040517f08c379a00000000000000000000000000000000000000000000000000000000081526004018080602001828103825260208152602001807f4f776e61626c653a2063616c6c6572206973206e6f7420746865206f776e657281525060200191505060405180910390fd5b600073ffffffffffffffffffffffffffffffffffffffff166000809054906101000a900473ffffffffffffffffffffffffffffffffffffffff1673ffffffffffffffffffffffffffffffffffffffff167f8be0079c531659141344cd1fd0a4f28419497f9722a3daafe3b4186f6b6457e060405160405180910390a360008060006101000a81548173ffffffffffffffffffffffffffffffffffffffff021916908373ffffffffffffffffffffffffffffffffffffffff160217905550565b612282612d6f565b6122f4576040517f08c379a00000000000000000000000000000000000000000000000000000000081526004018080602001828103825260208152602001807f4f776e61626c653a2063616c6c6572206973206e6f7420746865206f776e657281525060200191505060405180910390fd5b80600760006101000a81548173ffffffffffffffffffffffffffffffffffffffff021916908373ffffffffffffffffffffffffffffffffffffffff160217905550600760009054906101000a900473ffffffffffffffffffffffffffffffffffffffff16600660006101000a81548173ffffffffffffffffffffffffffffffffffffffff021916908373ffffffffffffffffffffffffffffffffffffffff1602179055507f8c537274438aa850a330284665d81a85dd38267d09e4050d416bfc94142db26481604051808273ffffffffffffffffffffffffffffffffffffffff1673ffffffffffffffffffffffffffffffffffffffff16815260200191505060405180910390a150565b6000806124096151f3565b9050600061241c8260008660000361547e565b90506002600381111561242b57fe5b600860008473ffffffffffffffffffffffffffffffffffffffff1673ffffffffffffffffffffffffffffffffffffffff16815260200190815260200160002060030160009054906101000a900460ff16600381111561248657fe5b146124dc576040517f08c379a000000000000000000000000000000000000000000000000000000000815260040180806020018281038252602b815260200180615b04602b913960400191505060405180910390fd5b83600860008473ffffffffffffffffffffffffffffffffffffffff1673ffffffffffffffffffffffffffffffffffffffff168152602001908152602001600020600101541015612577576040517f08c379a0000000000000000000000000000000000000000000000000000000008152600401808060200182810382526033815260200180615ad16033913960400191505060405180910390fd5b600a670de0b6b3a7640000600b028161258c57fe5b048110156125e5576040517f08c379a000000000000000000000000000000000000000000000000000000000815260040180806020018281038252603c815260200180615c1f603c913960400191505060405180910390fd5b61263a84600860008573ffffffffffffffffffffffffffffffffffffffff1673ffffffffffffffffffffffffffffffffffffffff168152602001908152602001600020600101546156b990919063ffffffff16565b600860008473ffffffffffffffffffffffffffffffffffffffff1673ffffffffffffffffffffffffffffffffffffffff1681526020019081526020016000206001018190555080600860008473ffffffffffffffffffffffffffffffffffffffff1673ffffffffffffffffffffffffffffffffffffffff16815260200190815260200160002060020181905550600973__SortedDoublyLL________________________6338237efe9091848486876040518663ffffffff1660e01b8152600401808681526020018573ffffffffffffffffffffffffffffffffffffffff1673ffffffffffffffffffffffffffffffffffffffff1681526020018481526020018373ffffffffffffffffffffffffffffffffffffffff1673ffffffffffffffffffffffffffffffffffffffff1681526020018273ffffffffffffffffffffffffffffffffffffffff1673ffffffffffffffffffffffffffffffffffffffff1681526020019550505050505060006040518083038186803b1580156127bd57600080fd5b505af41580156127d1573d6000803e3d6000fd5b50505050600260009054906101000a900473ffffffffffffffffffffffffffffffffffffffff1673ffffffffffffffffffffffffffffffffffffffff1663f568dd8e83866040518363ffffffff1660e01b8152600401808373ffffffffffffffffffffffffffffffffffffffff1673ffffffffffffffffffffffffffffffffffffffff16815260200182815260200192505050602060405180830381600087803b15801561287e57600080fd5b505af1158015612892573d6000803e3d6000fd5b505050506040513d60208110156128a857600080fd5b8101908080519060200190929190505050507fc30fcfbcaac9e0deffa719714eaa82396ff506a0d0d0eebe170830177288715d8285604051808373ffffffffffffffffffffffffffffffffffffffff1673ffffffffffffffffffffffffffffffffffffffff1681526020018281526020019250505060405180910390a17f2089894292d66b85abed43c6f71beaa6404b56065da9b6ef3112fddf9c53d9ac82600860008573ffffffffffffffffffffffffffffffffffffffff1673ffffffffffffffffffffffffffffffffffffffff16815260200190815260200160002060000154600860008673ffffffffffffffffffffffffffffffffffffffff1673ffffffffffffffffffffffffffffffffffffffff16815260200190815260200160002060010154600860008773ffffffffffffffffffffffffffffffffffffffff1673ffffffffffffffffffffffffffffffffffffffff16815260200190815260200160002060020154604051808573ffffffffffffffffffffffffffffffffffffffff1673ffffffffffffffffffffffffffffffffffffffff16815260200184815260200183815260200182815260200194505050505060405180910390a1600192505050919050565b612a79612d6f565b612aeb576040517f08c379a00000000000000000000000000000000000000000000000000000000081526004018080602001828103825260208152602001807f4f776e61626c653a2063616c6c6572206973206e6f7420746865206f776e657281525060200191505060405180910390fd5b80600360006101000a81548173ffffffffffffffffffffffffffffffffffffffff021916908373ffffffffffffffffffffffffffffffffffffffff16021790555080600260006101000a81548173ffffffffffffffffffffffffffffffffffffffff021916908373ffffffffffffffffffffffffffffffffffffffff1602179055507f4d839b74477afe774fbb734df87db25e56c0427973aac588bb3ce7ce937f885081604051808273ffffffffffffffffffffffffffffffffffffffff1673ffffffffffffffffffffffffffffffffffffffff16815260200191505060405180910390a150565b6000612bdd6159a8565b678ac7230489e800008160200181815250506000816000018181525050600281606001906003811115612c0c57fe5b90816003811115612c1957fe5b815250508060086000612c2a6151f3565b73ffffffffffffffffffffffffffffffffffffffff1673ffffffffffffffffffffffffffffffffffffffff16815260200190815260200160002060008201518160000155602082015181600101556040820151816002015560608201518160030160006101000a81548160ff02191690836003811115612ca657fe5b02179055509050505090565b6000600973__SortedDoublyLL________________________63be6f92d490916040518263ffffffff1660e01b81526004018082815260200191505060206040518083038186803b158015612d0657600080fd5b505af4158015612d1a573d6000803e3d6000fd5b505050506040513d6020811015612d3057600080fd5b8101908080519060200190929190505050905090565b60008060009054906101000a900473ffffffffffffffffffffffffffffffffffffffff16905090565b60008060009054906101000a900473ffffffffffffffffffffffffffffffffffffffff1673ffffffffffffffffffffffffffffffffffffffff16612db16151f3565b73ffffffffffffffffffffffffffffffffffffffff1614905090565b6000600973__SortedDoublyLL________________________63d86811289091846040518363ffffffff1660e01b8152600401808381526020018273ffffffffffffffffffffffffffffffffffffffff1673ffffffffffffffffffffffffffffffffffffffff1681526020019250505060206040518083038186803b158015612e5557600080fd5b505af4158015612e69573d6000803e3d6000fd5b505050506040513d6020811015612e7f57600080fd5b81019080805190602001909291905050509050919050565b600560009054906101000a900473ffffffffffffffffffffffffffffffffffffffff1681565b6000600973__SortedDoublyLL________________________63e189dedb9091846040518363ffffffff1660e01b8152600401808381526020018273ffffffffffffffffffffffffffffffffffffffff1673ffffffffffffffffffffffffffffffffffffffff1681526020019250505060206040518083038186803b158015612f4557600080fd5b505af4158015612f59573d6000803e3d6000fd5b505050506040513d6020811015612f6f57600080fd5b81019080805190602001909291905050509050919050565b6000600973__SortedDoublyLL________________________63b0138c479091846040518363ffffffff1660e01b8152600401808381526020018273ffffffffffffffffffffffffffffffffffffffff1673ffffffffffffffffffffffffffffffffffffffff1681526020019250505060206040518083038186803b15801561300f57600080fd5b505af4158015613023573d6000803e3d6000fd5b505050506040513d602081101561303957600080fd5b81019080805190602001909291905050509050919050565b60008061305c6151f3565b905082600460009054906101000a900473ffffffffffffffffffffffffffffffffffffffff1673ffffffffffffffffffffffffffffffffffffffff166370a08231836040518263ffffffff1660e01b8152600401808273ffffffffffffffffffffffffffffffffffffffff1673ffffffffffffffffffffffffffffffffffffffff16815260200191505060206040518083038186803b1580156130fe57600080fd5b505afa158015613112573d6000803e3d6000fd5b505050506040513d602081101561312857600080fd5b81019080805190602001909291905050501015613190576040517f08c379a000000000000000000000000000000000000000000000000000000000815260040180806020018281038252602b815260200180615bb8602b913960400191505060405180910390fd5b60005b8381101561398d576000600973__SortedDoublyLL________________________6372e40b2690916040518263ffffffff1660e01b81526004018082815260200191505060206040518083038186803b1580156131ef57600080fd5b505af4158015613203573d6000803e3d6000fd5b505050506040513d602081101561321957600080fd5b8101908080519060200190929190505050905060006132378261212c565b90506000600660009054906101000a900473ffffffffffffffffffffffffffffffffffffffff1673ffffffffffffffffffffffffffffffffffffffff166398d5fdca6040518163ffffffff1660e01b815260040160206040518083038186803b1580156132a357600080fd5b505afa1580156132b7573d6000803e3d6000fd5b505050506040513d60208110156132cd57600080fd5b810190808051906020019092919050505090506000600260009054906101000a900473ffffffffffffffffffffffffffffffffffffffff1673ffffffffffffffffffffffffffffffffffffffff1663697b93fd6040518163ffffffff1660e01b815260040160206040518083038186803b15801561334a57600080fd5b505afa15801561335e573d6000803e3d6000fd5b505050506040513d602081101561337457600080fd5b81019080805190602001909291905050509050600a670de0b6b3a7640000600b028161339c57fe5b048310156133b3576133ad846141ca565b50613984565b60006134136133cb878b6156b990919063ffffffff16565b600860008873ffffffffffffffffffffffffffffffffffffffff1673ffffffffffffffffffffffffffffffffffffffff16815260200190815260200160002060000154615703565b905061346a81600860008873ffffffffffffffffffffffffffffffffffffffff1673ffffffffffffffffffffffffffffffffffffffff168152602001908152602001600020600001546156b990919063ffffffff16565b600860008773ffffffffffffffffffffffffffffffffffffffff1673ffffffffffffffffffffffffffffffffffffffff168152602001908152602001600020600001819055506135a673__DeciMath______________________________63563d4c2383670de0b6b3a7640000876040518463ffffffff1660e01b815260040180848152602001838152602001828152602001935050505060206040518083038186803b15801561351a57600080fd5b505af415801561352e573d6000803e3d6000fd5b505050506040513d602081101561354457600080fd5b8101908080519060200190929190505050600860008873ffffffffffffffffffffffffffffffffffffffff1673ffffffffffffffffffffffffffffffffffffffff168152602001908152602001600020600101546156b990919063ffffffff16565b600860008773ffffffffffffffffffffffffffffffffffffffff1673ffffffffffffffffffffffffffffffffffffffff1681526020019081526020016000206001018190555060006135f78661212c565b9050600260009054906101000a900473ffffffffffffffffffffffffffffffffffffffff1673ffffffffffffffffffffffffffffffffffffffff16637cb19fe8898487613655670de0b6b3a76400008861571e90919063ffffffff16565b8161365c57fe5b046040518463ffffffff1660e01b8152600401808473ffffffffffffffffffffffffffffffffffffffff1673ffffffffffffffffffffffffffffffffffffffff1681526020018381526020018281526020019350505050602060405180830381600087803b1580156136cd57600080fd5b505af11580156136e1573d6000803e3d6000fd5b505050506040513d60208110156136f757600080fd5b810190808051906020019092919050505050600083141561371d5750505050505061398d565b600973__SortedDoublyLL________________________6338237efe909188848c8d6040518663ffffffff1660e01b8152600401808681526020018573ffffffffffffffffffffffffffffffffffffffff1673ffffffffffffffffffffffffffffffffffffffff1681526020018481526020018373ffffffffffffffffffffffffffffffffffffffff1673ffffffffffffffffffffffffffffffffffffffff1681526020018273ffffffffffffffffffffffffffffffffffffffff1673ffffffffffffffffffffffffffffffffffffffff1681526020019550505050505060006040518083038186803b15801561381357600080fd5b505af4158015613827573d6000803e3d6000fd5b505050507f2089894292d66b85abed43c6f71beaa6404b56065da9b6ef3112fddf9c53d9ac86600860008973ffffffffffffffffffffffffffffffffffffffff1673ffffffffffffffffffffffffffffffffffffffff16815260200190815260200160002060000154600860008a73ffffffffffffffffffffffffffffffffffffffff1673ffffffffffffffffffffffffffffffffffffffff16815260200190815260200160002060010154600860008b73ffffffffffffffffffffffffffffffffffffffff1673ffffffffffffffffffffffffffffffffffffffff16815260200190815260200160002060020154604051808573ffffffffffffffffffffffffffffffffffffffff1673ffffffffffffffffffffffffffffffffffffffff16815260200184815260200183815260200182815260200194505050505060405180910390a161397f82886153f690919063ffffffff16565b965050505b50505050613193565b7fc10cd90de32483572006e673f57d6ada13c7ad52bfe762d943d5beefb802dfd38282604051808373ffffffffffffffffffffffffffffffffffffffff1673ffffffffffffffffffffffffffffffffffffffff1681526020018281526020019250505060405180910390a15050919050565b60098060000160009054906101000a900473ffffffffffffffffffffffffffffffffffffffff16908060010160009054906101000a900473ffffffffffffffffffffffffffffffffffffffff16908060020154908060030154905084565b600080600260009054906101000a900473ffffffffffffffffffffffffffffffffffffffff1673ffffffffffffffffffffffffffffffffffffffff16639594897d6040518163ffffffff1660e01b815260040160206040518083038186803b158015613ac857600080fd5b505afa158015613adc573d6000803e3d6000fd5b505050506040513d6020811015613af257600080fd5b810190808051906020019092919050505090506000600260009054906101000a900473ffffffffffffffffffffffffffffffffffffffff1673ffffffffffffffffffffffffffffffffffffffff1663b7a2a4636040518163ffffffff1660e01b815260040160206040518083038186803b158015613b6f57600080fd5b505afa158015613b83573d6000803e3d6000fd5b505050506040513d6020811015613b9957600080fd5b810190808051906020019092919050505090506000600260009054906101000a900473ffffffffffffffffffffffffffffffffffffffff1673ffffffffffffffffffffffffffffffffffffffff1663b620115d6040518163ffffffff1660e01b815260040160206040518083038186803b158015613c1657600080fd5b505afa158015613c2a573d6000803e3d6000fd5b505050506040513d6020811015613c4057600080fd5b81019080805190602001909291905050509050600073__DeciMath______________________________63563d4c238785876040518463ffffffff1660e01b815260040180848152602001838152602001828152602001935050505060206040518083038186803b158015613cb457600080fd5b505af4158015613cc8573d6000803e3d6000fd5b505050506040513d6020811015613cde57600080fd5b810190808051906020019092919050505090506000613cfe88888461547e565b905060026003811115613d0d57fe5b600860008a73ffffffffffffffffffffffffffffffffffffffff1673ffffffffffffffffffffffffffffffffffffffff16815260200190815260200160002060030160009054906101000a900460ff166003811115613d6857fe5b14613dbe576040517f08c379a000000000000000000000000000000000000000000000000000000000815260040180806020018281038252602c815260200180615c5b602c913960400191505060405180910390fd5b84871115613e17576040517f08c379a000000000000000000000000000000000000000000000000000000000815260040180806020018281038252604a815260200180615a87604a913960600191505060405180910390fd5b613e3460148481613e2457fe5b04846156b990919063ffffffff16565b8111613e8b576040517f08c379a0000000000000000000000000000000000000000000000000000000008152600401808060200182810382526042815260200180615cb66042913960600191505060405180910390fd5b613ee087600860008b73ffffffffffffffffffffffffffffffffffffffff1673ffffffffffffffffffffffffffffffffffffffff168152602001908152602001600020600001546153f690919063ffffffff16565b600860008a73ffffffffffffffffffffffffffffffffffffffff1673ffffffffffffffffffffffffffffffffffffffff16815260200190815260200160002060000181905550613f7b82600860008b73ffffffffffffffffffffffffffffffffffffffff1673ffffffffffffffffffffffffffffffffffffffff168152602001908152602001600020600001546153f690919063ffffffff16565b600860008a73ffffffffffffffffffffffffffffffffffffffff1673ffffffffffffffffffffffffffffffffffffffff16815260200190815260200160002060010181905550600260009054906101000a900473ffffffffffffffffffffffffffffffffffffffff1673ffffffffffffffffffffffffffffffffffffffff16634d5bc11188846040518363ffffffff1660e01b81526004018083815260200182815260200192505050602060405180830381600087803b15801561403e57600080fd5b505af1158015614052573d6000803e3d6000fd5b505050506040513d602081101561406857600080fd5b8101908080519060200190929190505050507f2089894292d66b85abed43c6f71beaa6404b56065da9b6ef3112fddf9c53d9ac88600860008b73ffffffffffffffffffffffffffffffffffffffff1673ffffffffffffffffffffffffffffffffffffffff16815260200190815260200160002060000154600860008c73ffffffffffffffffffffffffffffffffffffffff1673ffffffffffffffffffffffffffffffffffffffff16815260200190815260200160002060010154600860008d73ffffffffffffffffffffffffffffffffffffffff1673ffffffffffffffffffffffffffffffffffffffff16815260200190815260200160002060020154604051808573ffffffffffffffffffffffffffffffffffffffff1673ffffffffffffffffffffffffffffffffffffffff16815260200184815260200183815260200182815260200194505050505060405180910390a160019550505050505092915050565b6000600260038111156141d957fe5b600860008473ffffffffffffffffffffffffffffffffffffffff1673ffffffffffffffffffffffffffffffffffffffff16815260200190815260200160002060030160009054906101000a900460ff16600381111561423457fe5b1461428a576040517f08c379a0000000000000000000000000000000000000000000000000000000008152600401808060200182810382526033815260200180615b646033913960400191505060405180910390fd5b600a670de0b6b3a7640000600b028161429f57fe5b046142a98361212c565b106142ff576040517f08c379a0000000000000000000000000000000000000000000000000000000008152600401808060200182810382526027815260200180615cf86027913960400191505060405180910390fd5b6143076159db565b600260009054906101000a900473ffffffffffffffffffffffffffffffffffffffff1673ffffffffffffffffffffffffffffffffffffffff1663335525ad600860008673ffffffffffffffffffffffffffffffffffffffff1673ffffffffffffffffffffffffffffffffffffffff16815260200190815260200160002060000154600860008773ffffffffffffffffffffffffffffffffffffffff1673ffffffffffffffffffffffffffffffffffffffff168152602001908152602001600020600101546040518363ffffffff1660e01b815260040180838152602001828152602001925050506040805180830381600087803b15801561440757600080fd5b505af115801561441b573d6000803e3d6000fd5b505050506040513d601f19601f82011682018060405250604081101561444057600080fd5b8101908091905050905060008160006002811061445957fe5b6020020151111561454057600260009054906101000a900473ffffffffffffffffffffffffffffffffffffffff1673ffffffffffffffffffffffffffffffffffffffff1663596c8976826000600281106144af57fe5b6020020151836001600281106144c157fe5b60200201516040518363ffffffff1660e01b81526004018083815260200182815260200192505050602060405180830381600087803b15801561450357600080fd5b505af1158015614517573d6000803e3d6000fd5b505050506040513d602081101561452d57600080fd5b8101908080519060200190929190505050505b6003600860008573ffffffffffffffffffffffffffffffffffffffff1673ffffffffffffffffffffffffffffffffffffffff16815260200190815260200160002060030160006101000a81548160ff0219169083600381111561459f57fe5b0217905550600973__SortedDoublyLL________________________635d35e0079091856040518363ffffffff1660e01b8152600401808381526020018273ffffffffffffffffffffffffffffffffffffffff1673ffffffffffffffffffffffffffffffffffffffff1681526020019250505060006040518083038186803b15801561462a57600080fd5b505af415801561463e573d6000803e3d6000fd5b505050507f8dc2af76274aae5c06e0223e41dba1dfdafc467ec4844fa1742b68c987d0d81c83604051808273ffffffffffffffffffffffffffffffffffffffff1673ffffffffffffffffffffffffffffffffffffffff16815260200191505060405180910390a16001915050919050565b6000806146ba6151f3565b9050600260038111156146c957fe5b600860008373ffffffffffffffffffffffffffffffffffffffff1673ffffffffffffffffffffffffffffffffffffffff16815260200190815260200160002060030160009054906101000a900460ff16600381111561472457fe5b1461477a576040517f08c379a000000000000000000000000000000000000000000000000000000000815260040180806020018281038252602b815260200180615b04602b913960400191505060405180910390fd5b600083116147d3576040517f08c379a000000000000000000000000000000000000000000000000000000000815260040180806020018281038252602f8152602001806159fe602f913960400191505060405180910390fd5b600860008273ffffffffffffffffffffffffffffffffffffffff1673ffffffffffffffffffffffffffffffffffffffff1681526020019081526020016000206000015483111561486e576040517f08c379a0000000000000000000000000000000000000000000000000000000008152600401808060200182810382526035815260200180615b2f6035913960400191505060405180910390fd5b82600460009054906101000a900473ffffffffffffffffffffffffffffffffffffffff1673ffffffffffffffffffffffffffffffffffffffff166370a08231836040518263ffffffff1660e01b8152600401808273ffffffffffffffffffffffffffffffffffffffff1673ffffffffffffffffffffffffffffffffffffffff16815260200191505060206040518083038186803b15801561490e57600080fd5b505afa158015614922573d6000803e3d6000fd5b505050506040513d602081101561493857600080fd5b810190808051906020019092919050505010156149a0576040517f08c379a000000000000000000000000000000000000000000000000000000000815260040180806020018281038252602f815260200180615c87602f913960400191505060405180910390fd5b6149f583600860008473ffffffffffffffffffffffffffffffffffffffff1673ffffffffffffffffffffffffffffffffffffffff168152602001908152602001600020600001546156b990919063ffffffff16565b600860008373ffffffffffffffffffffffffffffffffffffffff1673ffffffffffffffffffffffffffffffffffffffff168152602001908152602001600020600001819055506000614a468261212c565b9050600973__SortedDoublyLL________________________6338237efe9091848486876040518663ffffffff1660e01b8152600401808681526020018573ffffffffffffffffffffffffffffffffffffffff1673ffffffffffffffffffffffffffffffffffffffff1681526020018481526020018373ffffffffffffffffffffffffffffffffffffffff1673ffffffffffffffffffffffffffffffffffffffff1681526020018273ffffffffffffffffffffffffffffffffffffffff1673ffffffffffffffffffffffffffffffffffffffff1681526020019550505050505060006040518083038186803b158015614b3e57600080fd5b505af4158015614b52573d6000803e3d6000fd5b50505050600260009054906101000a900473ffffffffffffffffffffffffffffffffffffffff1673ffffffffffffffffffffffffffffffffffffffff1663b96c518183866040518363ffffffff1660e01b8152600401808373ffffffffffffffffffffffffffffffffffffffff1673ffffffffffffffffffffffffffffffffffffffff16815260200182815260200192505050602060405180830381600087803b158015614bff57600080fd5b505af1158015614c13573d6000803e3d6000fd5b505050506040513d6020811015614c2957600080fd5b8101908080519060200190929190505050507fafaf8c5829f2f3411c5edb27fcaf3e40d24c78f622b01131b90ee281a49fde5a8285604051808373ffffffffffffffffffffffffffffffffffffffff1673ffffffffffffffffffffffffffffffffffffffff1681526020018281526020019250505060405180910390a17f2089894292d66b85abed43c6f71beaa6404b56065da9b6ef3112fddf9c53d9ac82600860008573ffffffffffffffffffffffffffffffffffffffff1673ffffffffffffffffffffffffffffffffffffffff16815260200190815260200160002060000154600860008673ffffffffffffffffffffffffffffffffffffffff1673ffffffffffffffffffffffffffffffffffffffff16815260200190815260200160002060010154600860008773ffffffffffffffffffffffffffffffffffffffff1673ffffffffffffffffffffffffffffffffffffffff16815260200190815260200160002060020154604051808573ffffffffffffffffffffffffffffffffffffffff1673ffffffffffffffffffffffffffffffffffffffff16815260200184815260200183815260200182815260200194505050505060405180910390a1600192505050919050565b600760009054906101000a900473ffffffffffffffffffffffffffffffffffffffff1681565b6000600973__SortedDoublyLL________________________63b32ece5890916040518263ffffffff1660e01b81526004018082815260200191505060206040518083038186803b158015614e6c57600080fd5b505af4158015614e80573d6000803e3d6000fd5b505050506040513d6020811015614e9657600080fd5b8101908080519060200190929190505050905090565b600360009054906101000a900473ffffffffffffffffffffffffffffffffffffffff1681565b600073__DeciMath______________________________63563d4c238585856040518463ffffffff1660e01b815260040180848152602001838152602001828152602001935050505060206040518083038186803b158015614f3357600080fd5b505af4158015614f47573d6000803e3d6000fd5b505050506040513d6020811015614f5d57600080fd5b810190808051906020019092919050505090509392505050565b6000600973__SortedDoublyLL________________________632ebb2fed90916040518263ffffffff1660e01b81526004018082815260200191505060206040518083038186803b158015614fcb57600080fd5b505af4158015614fdf573d6000803e3d6000fd5b505050506040513d6020811015614ff557600080fd5b8101908080519060200190929190505050905090565b615013612d6f565b615085576040517f08c379a00000000000000000000000000000000000000000000000000000000081526004018080602001828103825260208152602001807f4f776e61626c653a2063616c6c6572206973206e6f7420746865206f776e657281525060200191505060405180910390fd5b61508e816157a4565b50565b615099612d6f565b61510b576040517f08c379a00000000000000000000000000000000000000000000000000000000081526004018080602001828103825260208152602001807f4f776e61626c653a2063616c6c6572206973206e6f7420746865206f776e657281525060200191505060405180910390fd5b80600560006101000a81548173ffffffffffffffffffffffffffffffffffffffff021916908373ffffffffffffffffffffffffffffffffffffffff16021790555080600460006101000a81548173ffffffffffffffffffffffffffffffffffffffff021916908373ffffffffffffffffffffffffffffffffffffffff1602179055507f373a23842c9bfba0a655597bb13c6493895da5266bd6617086a73f8dcfe2ae7081604051808273ffffffffffffffffffffffffffffffffffffffff1673ffffffffffffffffffffffffffffffffffffffff16815260200191505060405180910390a150565b600033905090565b600080600381111561520957fe5b600860008473ffffffffffffffffffffffffffffffffffffffff1673ffffffffffffffffffffffffffffffffffffffff16815260200190815260200160002060030160009054906101000a900460ff16600381111561526457fe5b146152d7576040517f08c379a000000000000000000000000000000000000000000000000000000000815260040180806020018281038252601e8152602001807f4344504d616e616765723a2043445020616c726561647920657869737473000081525060200191505060405180910390fd5b6001600860008473ffffffffffffffffffffffffffffffffffffffff1673ffffffffffffffffffffffffffffffffffffffff16815260200190815260200160002060030160006101000a81548160ff0219169083600381111561533657fe5b02179055506153448261212c565b600860008473ffffffffffffffffffffffffffffffffffffffff1673ffffffffffffffffffffffffffffffffffffffff168152602001908152602001600020600201819055507f6d36763f752759a8d4504959c3015df7bee44c2c5726e5ce8f5496d904da863682604051808273ffffffffffffffffffffffffffffffffffffffff1673ffffffffffffffffffffffffffffffffffffffff16815260200191505060405180910390a160019050919050565b600080828401905083811015615474576040517f08c379a000000000000000000000000000000000000000000000000000000000815260040180806020018281038252601b8152602001807f536166654d6174683a206164646974696f6e206f766572666c6f77000000000081525060200191505060405180910390fd5b8091505092915050565b6000806154d683600860008873ffffffffffffffffffffffffffffffffffffffff1673ffffffffffffffffffffffffffffffffffffffff168152602001908152602001600020600101546153f690919063ffffffff16565b9050600061552f85600860008973ffffffffffffffffffffffffffffffffffffffff1673ffffffffffffffffffffffffffffffffffffffff168152602001908152602001600020600001546153f690919063ffffffff16565b90506000600660009054906101000a900473ffffffffffffffffffffffffffffffffffffffff1673ffffffffffffffffffffffffffffffffffffffff166398d5fdca6040518163ffffffff1660e01b815260040160206040518083038186803b15801561559b57600080fd5b505afa1580156155af573d6000803e3d6000fd5b505050506040513d60208110156155c557600080fd5b81019080805190602001909291905050509050600082111561568b57600073__DeciMath______________________________63563d4c238584866040518463ffffffff1660e01b815260040180848152602001838152602001828152602001935050505060206040518083038186803b15801561564257600080fd5b505af4158015615656573d6000803e3d6000fd5b505050506040513d602081101561566c57600080fd5b81019080805190602001909291905050509050809450505050506156b2565b7fffffffffffffffffffffffffffffffffffffffffffffffffffffffffffffffff93505050505b9392505050565b60006156fb83836040518060400160405280601e81526020017f536166654d6174683a207375627472616374696f6e206f766572666c6f7700008152506158e8565b905092915050565b600081831161571457829050615718565b8190505b92915050565b600080831415615731576000905061579e565b600082840290508284828161574257fe5b0414615799576040517f08c379a0000000000000000000000000000000000000000000000000000000008152600401808060200182810382526021815260200180615b976021913960400191505060405180910390fd5b809150505b92915050565b600073ffffffffffffffffffffffffffffffffffffffff168173ffffffffffffffffffffffffffffffffffffffff16141561582a576040517f08c379a0000000000000000000000000000000000000000000000000000000008152600401808060200182810382526026815260200180615a616026913960400191505060405180910390fd5b8073ffffffffffffffffffffffffffffffffffffffff166000809054906101000a900473ffffffffffffffffffffffffffffffffffffffff1673ffffffffffffffffffffffffffffffffffffffff167f8be0079c531659141344cd1fd0a4f28419497f9722a3daafe3b4186f6b6457e060405160405180910390a3806000806101000a81548173ffffffffffffffffffffffffffffffffffffffff021916908373ffffffffffffffffffffffffffffffffffffffff16021790555050565b6000838311158290615995576040517f08c379a00000000000000000000000000000000000000000000000000000000081526004018080602001828103825283818151815260200191508051906020019080838360005b8381101561595a57808201518184015260208101905061593f565b50505050905090810190601f1680156159875780820380516001836020036101000a031916815260200191505b509250505060405180910390fd5b5060008385039050809150509392505050565b6040518060800160405280600081526020016000815260200160008152602001600060038111156159d557fe5b81525090565b604051806040016040528060029060208202803883398082019150509050509056fe4344504d616e616765723a2052657061696420616d6f756e74206d757374206265206c6172676572207468616e20304344504d616e616765723a20416d6f756e7420746f207769746864726177206d757374206265206c6172676572207468616e20304f776e61626c653a206e6577206f776e657220697320746865207a65726f20616464726573734344504d616e616765723a204465627420696e207468652064656661756c7420706f6f6c20736d616c6c6572207468616e207468652073706563696669656420646562742073686172654344504d616e616765723a20496e73756666696369656e742062616c616e636520666f7220455448207769746864726177616c4344504d616e616765723a2043445020646f6573206e6f74206578697374206f7220697320636c6f7365644344504d616e616765723a2052657061696420616d6f756e74206973206c6172676572207468616e2063757272656e7420646562744344504d616e616765723a2043445020646f6573206e6f74206578697374206f7220697320616c726561647920636c6f736564536166654d6174683a206d756c7469706c69636174696f6e206f766572666c6f774344504d616e616765723a2053656e6465722068617320696e73756666696369656e742062616c616e63654344504d616e616765723a20496e73756666696369656e7420636f6c6c61746572616c20726174696f20666f7220434c56207769746864726177616c4344504d616e616765723a20496e73756666696369656e7420636f6c6c61746572616c20726174696f20666f7220455448207769746864726177616c4344504d616e616765723a20526563697069656e74206d757374206f776e20616e20616374697665204344504344504d616e616765723a2053656e6465722068617320696e73756666696369656e7420434c562062616c616e63654344504d616e616765723a20436f6c6c61746572616c20726174696f20776f756c6420626520647261776e2062656c6f77206d6178696d756d2064726177646f776e4344504d616e616765723a20434450206e6f7420756e646572636f6c6c61746572616c697a6564a265627a7a72315820fce99e20ba23c6105f8a65ea21c5818ed07c7b1b23d763470d6c416a8391067a64736f6c634300050c0032",
  "source": "pragma solidity ^0.5.11;\r\n\r\n// TODO: Use SafeMath\r\nimport \"./CLVToken.sol\";\r\nimport \"./PriceFeed.sol\";\r\nimport \"./SortedDoublyLL.sol\";\r\nimport \"./PoolManager.sol\";\r\nimport \"./DeciMath.sol\";\r\nimport \"../node_modules/@openzeppelin/contracts/math/SafeMath.sol\";\r\nimport \"../node_modules/@openzeppelin/contracts/ownership/Ownable.sol\";\r\n\r\ncontract CDPManager is Ownable {\r\n    using SafeMath for uint;\r\n    using SortedDoublyLL for SortedDoublyLL.Data;\r\n\r\n    string public name;\r\n    uint constant DIGITS = 1e18; // Number of digits used for precision, e.g. when calculating redistribution shares. Equals \"ether\" unit.\r\n    uint constant MCR = (11 * DIGITS) / 10; // Minimal collateral ratio (e.g. 110%). TODO: Allow variable MCR\r\n    uint constant MAX_DRAWDOWN = 20; // Loans cannot be drawn down more than 5% (= 1/20) below the TCR when receiving redistribution shares\r\n    enum Status { inexistent, newBorn, active, closed }\r\n    \r\n    // --- Events --- \r\n    event PoolManagerAddressChanged(address _newPoolManagerAddress);\r\n    event PriceFeedAddressChanged(address _newPriceFeedAddress);\r\n    event CLVTokenAddressChanged(address _newCLVTokenAddress);\r\n\r\n    event CDPCreated(address _user);\r\n    event CDPUpdated(address _user, uint _debt, uint _coll, uint ICR);\r\n    event CDPClosed(address _user);\r\n\r\n    event CollateralAdded(address _user, uint _amountAdded);\r\n    event CollateralWithdrawn(address _user, uint _amountWithdrawn);\r\n    event CLVWithdrawn(address _user, uint _amountWithdrawn);\r\n    event CLVRepayed(address _user, uint _amountRepayed);\r\n    event CollateralRedeemed(address _user, uint redeemedAmount);\r\n\r\n    // --- Connected contract declarations ---\r\n    PoolManager poolManager;\r\n    address public poolManagerAddress;\r\n\r\n    CLVToken CLV; \r\n    address public clvTokenAddress;\r\n\r\n    PriceFeed priceFeed;\r\n    address public priceFeedAddress;\r\n\r\n    // --- Data structures ---\r\n\r\n    // Stores the necessary data for a Collateralized Debt Position (CDP)\r\n    struct CDP {\r\n        uint debt;\r\n        uint coll;\r\n        uint ICR; // Individual Collateral Ratio\r\n        Status status;\r\n    }\r\n    \r\n    mapping (address => CDP) public CDPs; // A map of all new CDPs: created but no initial collateral\r\n    // mapping (address => CDP) public activeCDPs; // A map of all existing (active and closed) CDPs\r\n    // mapping (address => CDP) public closedCDPs;\r\n    SortedDoublyLL.Data public sortedCDPs; // A doubly linked CDP list sorted by the collateral ratio of the CDPs\r\n\r\n    // Register the owner and the name of the CDP contract and install other contracts\r\n\r\n    constructor() public payable {\r\n        sortedCDPs.setMaxSize(1000000);\r\n    }   \r\n\r\n    // --- Contract setters --- \r\n    function setPoolManager(address _poolManagerAddress) public onlyOwner {\r\n        poolManagerAddress = _poolManagerAddress;\r\n        poolManager = PoolManager(_poolManagerAddress);\r\n        emit PoolManagerAddressChanged(_poolManagerAddress);\r\n    }\r\n\r\n    function setPriceFeed(address _priceFeedAddress) public onlyOwner {\r\n        priceFeedAddress = _priceFeedAddress;\r\n        priceFeed = PriceFeed(priceFeedAddress);\r\n        emit PriceFeedAddressChanged(_priceFeedAddress);\r\n    }\r\n\r\n     function setCLVToken(address _clvTokenAddress) public onlyOwner {\r\n        clvTokenAddress = _clvTokenAddress;\r\n        CLV = CLVToken(_clvTokenAddress);\r\n        emit CLVTokenAddressChanged(_clvTokenAddress);\r\n    }\r\n\r\n    // --- Getters ---\r\n    function getMCR() public pure returns(uint) {\r\n        return MCR;\r\n    }\r\n\r\n    function getAccurateMulDiv(uint x, uint y, uint z) public pure returns(uint) {\r\n        return DeciMath.accurateMulDiv(x, y, z);\r\n    }\r\n\r\n    // function userHasActiveCDP() public pure returns(bool) {\r\n    //     uint status = CDPs[user].status;\r\n    //     if (status == Status.Active) return true;\r\n    // }\r\n    \r\n    /* --- SortedDoublyLinkedList (SDLL) getters and checkers. These enable public usage\r\n    of the corresponding SDLL functions, operating on the sortedCDPs struct --- */\r\n\r\n    function sortedCDPsContains(address id) public view returns (bool) {\r\n        return sortedCDPs.contains(id);\r\n    }\r\n\r\n    function sortedCDPsIsEmpty() public view returns (bool) {\r\n        return sortedCDPs.isEmpty();\r\n    }\r\n\r\n    function sortedCDPsIsFull() public view returns (bool) {\r\n        return sortedCDPs.isFull();\r\n    }\r\n\r\n    function sortedCDPsgetSize() public view returns(uint) {\r\n        return sortedCDPs.getSize();\r\n    }\r\n\r\n    function sortedCDPsGetMaxSize() public view returns(uint) {\r\n        return sortedCDPs.getMaxSize();\r\n    }\r\n\r\n    function sortedCDPsGetKey(address user) public view returns(uint) {\r\n        return sortedCDPs.getKey(user);\r\n    }\r\n\r\n    function sortedCDPsGetFirst() public view returns (address) {\r\n        return sortedCDPs.getFirst();\r\n    }\r\n\r\n    function sortedCDPsGetLast() public view returns (address) {\r\n        return sortedCDPs.getLast();\r\n    }\r\n\r\n    function sortedCDPsGetNext(address user) public view returns (address) {\r\n        return sortedCDPs.getNext(user);\r\n    }\r\n\r\n    function sortedCDPsGetPrev(address user) public view returns (address) {\r\n        return sortedCDPs.getPrev(user);\r\n    }\r\n\r\n    // ---\r\n\r\n    // Returns the new collateral ratio considering the debt and/or collateral that should be added or removed \r\n    function getNewCollRatio(address _debtor, uint _debt_change, uint _coll_change) \r\n        view \r\n        internal \r\n        returns (uint) \r\n    {\r\n        uint newColl = (CDPs[_debtor].coll).add(_coll_change);\r\n        uint newDebt = (CDPs[_debtor].debt).add(_debt_change);\r\n        uint price = priceFeed.getPrice();\r\n        // Check if the total debt is higher than 0 to avoid division by 0\r\n        if (newDebt > 0) {\r\n            uint newCollRatio = DeciMath.accurateMulDiv(newColl, price, newDebt);\r\n            return newCollRatio;\r\n        }\r\n        // Return the maximal value for uint256 if the CDP has a debt of 0\r\n        else {\r\n            return 2**256 - 1; \r\n        }\r\n    }\r\n    \r\n    // Returns the current collateral ratio of a specified CDP\r\n    function getCollRatio(address _debtor) \r\n        public\r\n        view \r\n        returns (uint) \r\n    {\r\n        return getNewCollRatio(_debtor, 0, 0);\r\n    }\r\n    \r\n    // Create a new CDP\r\n    function userCreateCDP() \r\n        public\r\n        returns (bool) \r\n    {\r\n        address user = _msgSender();\r\n        createCDP(user);\r\n\r\n        return true;\r\n    }\r\n\r\n    function createCDP(address _account) \r\n        internal \r\n        returns (bool) \r\n    {\r\n        require(CDPs[_account].status == Status.inexistent, \"CDPManager: CDP already exists\");\r\n        CDPs[_account].status = Status.newBorn; \r\n        CDPs[_account].ICR = getCollRatio(_account);\r\n\r\n        emit CDPCreated(_account);\r\n\r\n        return true;\r\n    }\r\n    \r\n    // Pay a given number of ETH (msg.value) as collateral to a CDP \r\n    function addColl() \r\n        public \r\n        payable \r\n        returns (bool) \r\n    {\r\n        address user = _msgSender();\r\n        bool isFirstCollDeposit = false;\r\n        // Potential issue with using _msgSender() as the key in the CDPs map: Users may not be able interact via other contracts since the \r\n        // _msgSender() would then be the contract rather than the transacting user. Beware of tx.origin.\r\n        require(CDPs[user].status != Status.closed, \"CDPManager: CDP is closed\");\r\n        \r\n        if (CDPs[user].status == Status.inexistent) {\r\n            createCDP(user);\r\n            isFirstCollDeposit = true; \r\n        } else if (CDPs[user].status == Status.newBorn) {\r\n            isFirstCollDeposit = true;\r\n        }\r\n            \r\n        CDPs[user].status = Status.active;\r\n       \r\n        // Add the received collateral to the CDP \r\n        CDPs[user].coll = (CDPs[user].coll).add(msg.value);\r\n\r\n        // Send the received collateral to PoolManager, to forward to ActivePool\r\n        poolManager.addColl.value(msg.value)();\r\n\r\n        // get user's new ICR\r\n        uint newICR = getCollRatio(user);\r\n\r\n        // update the ICR in the CDP mapping\r\n        CDPs[user].ICR = newICR;\r\n        \r\n        // Insert or update the ICR  in sortedCDPs\r\n        if (isFirstCollDeposit) {\r\n            sortedCDPs.insert(user, newICR, user, user);\r\n        } else {\r\n            sortedCDPs.updateKey(user, newICR, user, user);\r\n        }\r\n\r\n        emit CollateralAdded(user, msg.value);\r\n        emit CDPUpdated(user, CDPs[user].debt, CDPs[user].coll, CDPs[user].ICR);\r\n        return true;\r\n    }\r\n    /* --- MockAddCDP - DELETE AFTER CDP FUNCTIONALITY IMPLEMENTED --- *\r\n    * temporary function, used by CLVToken test suite to easily add CDPs.\r\n    Later, replace with full CDP creation process.\r\n    */\r\n    function mockAddCDP() public returns(bool) {\r\n        CDP memory cdp;\r\n        cdp.coll = 10e18;\r\n        cdp.debt = 0;\r\n        cdp.status = Status.active;\r\n\r\n        CDPs[_msgSender()] = cdp;\r\n    }\r\n    \r\n    // Withdraw ETH collateral from a CDP\r\n    // TODO: Check re-entrancy protection\r\n    function withdrawColl(uint _amount) \r\n        public \r\n        returns (bool) \r\n    {\r\n        address payable user = _msgSender();\r\n        uint newICR = getNewCollRatio(user, 0, -_amount);\r\n\r\n        require(CDPs[user].status == Status.active, \"CDPManager: CDP does not exist or is closed\");\r\n        require(CDPs[user].coll >= _amount, \"CDPManager: Insufficient balance for ETH withdrawal\");\r\n        require(newICR >= MCR, \"CDPManager: Insufficient collateral ratio for ETH withdrawal\");\r\n        \r\n        // Reduce the ETH collateral by _amount\r\n        CDPs[user].coll = (CDPs[user].coll).sub(_amount);\r\n\r\n        // update the ICR in the CDP mapping\r\n        CDPs[user].ICR = newICR;\r\n\r\n        // Update ICR in sortedCDPs\r\n        sortedCDPs.updateKey(user, newICR, user, user);\r\n        \r\n        // Remove _amount ETH from ActivePool and send it to the user\r\n        poolManager.withdrawColl(user, _amount);\r\n        \r\n        emit CollateralWithdrawn(user, _amount);\r\n        emit CDPUpdated(user, CDPs[user].debt, CDPs[user].coll, CDPs[user].ICR);\r\n        return true;\r\n    }\r\n    \r\n    // Withdraw CLV tokens from a CDP: Mint new CLV and increase the debt accordingly\r\n    function withdrawCLV(uint _amount) \r\n        public \r\n        returns (bool) \r\n    {\r\n        address user = _msgSender();\r\n        uint newICR = getNewCollRatio(user, _amount, 0);\r\n\r\n        require(CDPs[user].status == Status.active, \"CDPManager: CDP does not exist or is closed\");\r\n        require(_amount > 0, \"CDPManager: Amount to withdraw must be larger than 0\");\r\n        require(newICR >= MCR, \"CDPManager: Insufficient collateral ratio for CLV withdrawal\");\r\n        \r\n        // Increase the debt by the withdrawn amount of CLV\r\n        CDPs[user].debt = (CDPs[user].debt).add(_amount);\r\n\r\n        // update the ICR in the CDP mapping\r\n        CDPs[user].ICR = newICR;\r\n\r\n        // Mint the given amount of CLV, add them to the ActivePool and send them to CDP owner's address \r\n        poolManager.withdrawCLV(user, _amount);\r\n        \r\n        // Update entry in sortedCDPs\r\n        sortedCDPs.updateKey(user, newICR, user, user);\r\n\r\n        emit CLVWithdrawn(user, _amount);\r\n        emit CDPUpdated(user, CDPs[user].debt, CDPs[user].coll, CDPs[user].ICR);\r\n        return true; \r\n    }\r\n    \r\n    // Repay CLV tokens to a CDP: Burn the repaid CLV tokens and reduce the debt accordingly\r\n    function repayCLV(uint _amount) \r\n        public \r\n        returns (bool) \r\n    {\r\n        address user = _msgSender();\r\n\r\n        require(CDPs[user].status == Status.active, \"CDPManager: CDP does not exist or is closed\");\r\n        require(_amount > 0, \"CDPManager: Repaid amount must be larger than 0\");\r\n        require(_amount <= CDPs[user].debt, \"CDPManager: Repaid amount is larger than current debt\");\r\n        require(CLV.balanceOf(user) >= _amount, \"CDPManager: Sender has insufficient CLV balance\");\r\n        // TODO: Maybe allow foreign accounts to repay loans\r\n        \r\n        // Reduce the debt\r\n        CDPs[user].debt  = (CDPs[user].debt).sub(_amount);\r\n\r\n        // Calculate new Coll ratio\r\n        uint newICR = getCollRatio(user);\r\n        \r\n        // Update entry in sortedCDPs\r\n        sortedCDPs.updateKey(user, newICR, user, user);\r\n\r\n        // Burn the received amount of CLV and remove them from the ActivePool\r\n        poolManager.repayCLV(user, _amount);\r\n\r\n        emit CLVRepayed(user, _amount);\r\n        emit CDPUpdated(user, CDPs[user].debt, CDPs[user].coll, CDPs[user].ICR);\r\n        return true;\r\n    }\r\n\r\n    // Closes the CDP of the speficied _debtor if its individual collateral ratio is lower than the minimum collateral ratio.\r\n    // TODO: This function should eventually be internal and only be called by closeCDPs(...). \r\n    function close(address _debtor) \r\n        public \r\n        returns (bool) \r\n    {\r\n        require(CDPs[_debtor].status == Status.active, \"CDPManager: CDP does not exist or is already closed\");\r\n        require(getCollRatio(_debtor) < MCR, \"CDPManager: CDP not undercollateralized\");\r\n        \r\n        // Offset as much debt & collateral as possible against the StabilityPool and save the returned remainders\r\n        uint[2] memory remainder = poolManager.offset(CDPs[_debtor].debt, CDPs[_debtor].coll);\r\n        if (remainder[0] > 0) {\r\n            // If the debt could not be offset entirely, transfer the remaining debt & collateral from Active Pool to Default Pool \r\n            // Note: remainder[0] = remaining debt; remainder[1] = remaining collateral;\r\n            poolManager.close(remainder[0], remainder[1]);\r\n        }\r\n        \r\n        // Close the CDP\r\n        CDPs[_debtor].status = Status.closed;\r\n        \r\n        // Remove CDP from sortedCDPs\r\n        sortedCDPs.remove(_debtor);\r\n        emit CDPClosed(_debtor);\r\n        return true;\r\n    }\r\n     \r\n    \r\n    // Closes a maximum number of n multiple undercollateralized CPDs, starting from the one with the lowest collateral ratio\r\n    // Caller: anybody \r\n    // TODO: Should probably be synchronized with PriceFeed and called every time the price is updated\r\n    function closeCDPs(uint n)\r\n        public\r\n        returns (bool)\r\n    {    \r\n        uint i;\r\n        while (i < n) {\r\n            address currentCDP = sortedCDPs.getLast();\r\n            uint collRatio = getCollRatio(currentCDP);\r\n            \r\n            // Close CDPs if it is undercollateralized\r\n            if (collRatio < MCR) {\r\n                close(currentCDP);\r\n            } else break;\r\n            \r\n            // Break loop if you reach the first CDP in the sorted list \r\n            // Check if issue with changing list position\r\n            if (currentCDP == sortedCDPs.getFirst()) \r\n                break;\r\n            \r\n            i++;\r\n        }       \r\n        return true;\r\n     }\r\n            \r\n            \r\n    // The specified _debtor obtains the given debt share and the corresponding collateral share from the default pool   \r\n    // Caller: anybody\r\n    \r\n    // TODO: Implement some more sophisticated logic that for example only allows the public to assign a debt & coll share\r\n    // to any CDP if the Default Pool is indebted (i.e. its collateral ratio is < 100%). Otherwise, only the owner of a CDP\r\n    // should be able to obtain a default share for himself. In this case, maybe impose more limits as described in the\r\n    // slide deck. Optimally, we could get rid of this mechanism alltogether and distribute undercollateralized loans that\r\n    // could not be offset against the Stability Pool in proportion to some excess collateral above a given threshold.\r\n    function obtainDefaultShare(address _user, uint _debtShare) \r\n        public \r\n        returns (bool) \r\n    {\r\n        uint closedDebt = poolManager.getClosedDebt();\r\n        uint closedColl = poolManager.getClosedColl();\r\n        uint TCR = poolManager.getTCR();\r\n        uint collShare = DeciMath.accurateMulDiv(_debtShare, closedColl, closedDebt); // Calculate collateral share coll from _debt\r\n        uint newICR = getNewCollRatio(_user, _debtShare, collShare);\r\n        \r\n        require(CDPs[_user].status == Status.active, \"CDPManager: Recipient must own an active CDP\");\r\n        require(_debtShare <= closedDebt, \"CDPManager: Debt in the default pool smaller than the specified debt share\");\r\n        require(newICR > TCR.sub(TCR / MAX_DRAWDOWN), \"CDPManager: Collateral ratio would be drawn below maximum drawdown\");\r\n        // Add debt & coll share to the CDP and to the total and remove them from the default pool\r\n        CDPs[_user].debt  = (CDPs[_user].debt).add(_debtShare);\r\n        CDPs[_user].coll = (CDPs[_user].debt).add(collShare);\r\n        \r\n        poolManager.obtainDefaultShare(_debtShare, collShare);\r\n        emit CDPUpdated(_user, CDPs[_user].debt, CDPs[_user].coll, CDPs[_user].ICR);\r\n\r\n        return true;\r\n    }\r\n    \r\n    // Returns the lower value from two given integers\r\n    function getMin(uint a, uint b) \r\n        internal\r\n        pure\r\n        returns (uint)\r\n    {\r\n        if (a <= b) return a;\r\n        else return b;\r\n    }    \r\n    \r\n    // Sends _amount CLV to the system and redeems the corresponding amount of collateral from as many CDPs as are needed to fill the redemption\r\n    // request. Note that if _amount is very large, this function can run out of gas. This can be easily avoided by splitting the total _amount\r\n    // in appropriate chunks and calling the function multiple times.\r\n    \r\n    // TODO: Maybe also use the default pool for redemptions\r\n    // TODO: Levy a redemption fee (and maybe also impose a rate limit on redemptions)\r\n    function redeemCollateral(uint _amount) \r\n        public\r\n        returns (bool)\r\n    {\r\n        address payable user = _msgSender();\r\n        require(CLV.balanceOf(user) >= _amount, \"CDPManager: Sender has insufficient balance\");\r\n        uint redeemed;\r\n\r\n        // Loop through the CDPs starting from the one with lowest collateral ratio until _amount of CLV is exchanged for collateral\r\n        while (redeemed < _amount) {\r\n\r\n            address currentCDPuser = sortedCDPs.getLast();\r\n            uint collRatio = getCollRatio(currentCDPuser);\r\n            uint price = priceFeed.getPrice();\r\n            uint activeDebt = poolManager.getActiveDebt();\r\n            \r\n            // Close CDPs along the way that turn out to be undercollateralized\r\n            if (collRatio < MCR) {\r\n                close(currentCDPuser);\r\n            }\r\n            else {\r\n                // Determine the remaining amount (lot) to be redeemed, capped by the entire debt of the current CDP \r\n                uint lot = getMin(_amount.sub(redeemed), CDPs[currentCDPuser].debt);\r\n                    \r\n                // Decrease the debt and collateral of the current CDP according to the lot\r\n                // TODO: Readability - too dense. Extract temp vars\r\n                CDPs[currentCDPuser].debt = (CDPs[currentCDPuser].debt).sub(lot);\r\n                CDPs[currentCDPuser].coll = (CDPs[currentCDPuser].coll).sub(DeciMath.accurateMulDiv(lot, DIGITS, price));\r\n                uint newCollRatio = getCollRatio(currentCDPuser);\r\n\r\n                // Burn the calculated lot of CLV and send the corresponding ETH to _msgSender()\r\n                poolManager.redeemCollateral(user, lot, (lot.mul(DIGITS)) / price);\r\n\r\n                // TODO - Rick: What is this check for activeDebt == 0 really doing here? And should it come before\r\n                // updating the currentCDP's position in sortedCDPs?\r\n\r\n                // Break the loop if there is no more active debt to redeem \r\n                if (activeDebt == 0) break;    \r\n                \r\n                // Update the sortedCDPs list and the redeemed amount\r\n                sortedCDPs.updateKey(currentCDPuser, newCollRatio, user, user); \r\n                emit CDPUpdated(currentCDPuser, CDPs[currentCDPuser].debt, CDPs[currentCDPuser].coll, CDPs[currentCDPuser].ICR);\r\n\r\n                redeemed = redeemed.add(lot);   \r\n            }\r\n        }\r\n        emit CollateralRedeemed(user, redeemed);\r\n    }    \r\n}",
  "sourcePath": "C:/Users/Administrator/Desktop/Cleverage/contracts/CDPManager.sol",
  "compiler": {
    "name": "solc",
    "version": "0.5.12+commit.7709ece9.Emscripten.clang"
  },
  "schemaVersion": "3.0.19",
  "updatedAt": "2019-12-14T10:18:26.374Z",
  "devdoc": {
    "methods": {
      "isOwner()": {
        "details": "Returns true if the caller is the current owner."
      },
      "owner()": {
        "details": "Returns the address of the current owner."
      },
      "renounceOwnership()": {
        "details": "Leaves the contract without owner. It will not be possible to call `onlyOwner` functions anymore. Can only be called by the current owner.     * NOTE: Renouncing ownership will leave the contract without an owner, thereby removing any functionality that is only available to the owner."
      },
      "transferOwnership(address)": {
        "details": "Transfers ownership of the contract to a new account (`newOwner`). Can only be called by the current owner."
      }
    }
  },
  "userdoc": {
    "methods": {}
  }
}