{
  "contractName": "CDPManager",
  "abi": [
    {
      "inputs": [],
      "payable": true,
      "stateMutability": "payable",
      "type": "constructor"
    },
    {
      "anonymous": false,
      "inputs": [
        {
          "indexed": false,
          "internalType": "address",
          "name": "_user",
          "type": "address"
        }
      ],
      "name": "CDPClosed",
      "type": "event"
    },
    {
      "anonymous": false,
      "inputs": [
        {
          "indexed": false,
          "internalType": "address",
          "name": "_user",
          "type": "address"
        }
      ],
      "name": "CDPCreated",
      "type": "event"
    },
    {
      "anonymous": false,
      "inputs": [
        {
          "indexed": false,
          "internalType": "address",
          "name": "_user",
          "type": "address"
        },
        {
          "indexed": false,
          "internalType": "uint256",
          "name": "_debt",
          "type": "uint256"
        },
        {
          "indexed": false,
          "internalType": "uint256",
          "name": "_coll",
          "type": "uint256"
        },
        {
          "indexed": false,
          "internalType": "uint256",
          "name": "ICR",
          "type": "uint256"
        }
      ],
      "name": "CDPUpdated",
      "type": "event"
    },
    {
      "anonymous": false,
      "inputs": [
        {
          "indexed": false,
          "internalType": "address",
          "name": "_user",
          "type": "address"
        },
        {
          "indexed": false,
          "internalType": "uint256",
          "name": "_amountRepayed",
          "type": "uint256"
        }
      ],
      "name": "CLVRepayed",
      "type": "event"
    },
    {
      "anonymous": false,
      "inputs": [
        {
          "indexed": false,
          "internalType": "address",
          "name": "_newCLVTokenAddress",
          "type": "address"
        }
      ],
      "name": "CLVTokenAddressChanged",
      "type": "event"
    },
    {
      "anonymous": false,
      "inputs": [
        {
          "indexed": false,
          "internalType": "address",
          "name": "_user",
          "type": "address"
        },
        {
          "indexed": false,
          "internalType": "uint256",
          "name": "_amountWithdrawn",
          "type": "uint256"
        }
      ],
      "name": "CLVWithdrawn",
      "type": "event"
    },
    {
      "anonymous": false,
      "inputs": [
        {
          "indexed": false,
          "internalType": "address",
          "name": "_user",
          "type": "address"
        },
        {
          "indexed": false,
          "internalType": "uint256",
          "name": "_amountAdded",
          "type": "uint256"
        }
      ],
      "name": "CollateralAdded",
      "type": "event"
    },
    {
      "anonymous": false,
      "inputs": [
        {
          "indexed": false,
          "internalType": "address",
          "name": "_user",
          "type": "address"
        },
        {
          "indexed": false,
          "internalType": "uint256",
          "name": "redeemedAmount",
          "type": "uint256"
        }
      ],
      "name": "CollateralRedeemed",
      "type": "event"
    },
    {
      "anonymous": false,
      "inputs": [
        {
          "indexed": false,
          "internalType": "address",
          "name": "_user",
          "type": "address"
        },
        {
          "indexed": false,
          "internalType": "uint256",
          "name": "_amountWithdrawn",
          "type": "uint256"
        }
      ],
      "name": "CollateralWithdrawn",
      "type": "event"
    },
    {
      "anonymous": false,
      "inputs": [
        {
          "indexed": true,
          "internalType": "address",
          "name": "previousOwner",
          "type": "address"
        },
        {
          "indexed": true,
          "internalType": "address",
          "name": "newOwner",
          "type": "address"
        }
      ],
      "name": "OwnershipTransferred",
      "type": "event"
    },
    {
      "anonymous": false,
      "inputs": [
        {
          "indexed": false,
          "internalType": "address",
          "name": "_newPoolManagerAddress",
          "type": "address"
        }
      ],
      "name": "PoolManagerAddressChanged",
      "type": "event"
    },
    {
      "anonymous": false,
      "inputs": [
        {
          "indexed": false,
          "internalType": "address",
          "name": "_newPriceFeedAddress",
          "type": "address"
        }
      ],
      "name": "PriceFeedAddressChanged",
      "type": "event"
    },
    {
      "constant": true,
      "inputs": [
        {
          "internalType": "address",
          "name": "",
          "type": "address"
        }
      ],
      "name": "CDPs",
      "outputs": [
        {
          "internalType": "uint256",
          "name": "debt",
          "type": "uint256"
        },
        {
          "internalType": "uint256",
          "name": "coll",
          "type": "uint256"
        },
        {
          "internalType": "uint256",
          "name": "ICR",
          "type": "uint256"
        },
        {
          "internalType": "enum CDPManager.Status",
          "name": "status",
          "type": "uint8"
        }
      ],
      "payable": false,
      "stateMutability": "view",
      "type": "function"
    },
    {
      "constant": true,
      "inputs": [],
      "name": "clvTokenAddress",
      "outputs": [
        {
          "internalType": "address",
          "name": "",
          "type": "address"
        }
      ],
      "payable": false,
      "stateMutability": "view",
      "type": "function"
    },
    {
      "constant": true,
      "inputs": [],
      "name": "isOwner",
      "outputs": [
        {
          "internalType": "bool",
          "name": "",
          "type": "bool"
        }
      ],
      "payable": false,
      "stateMutability": "view",
      "type": "function"
    },
    {
      "constant": true,
      "inputs": [],
      "name": "name",
      "outputs": [
        {
          "internalType": "string",
          "name": "",
          "type": "string"
        }
      ],
      "payable": false,
      "stateMutability": "view",
      "type": "function"
    },
    {
      "constant": true,
      "inputs": [],
      "name": "owner",
      "outputs": [
        {
          "internalType": "address",
          "name": "",
          "type": "address"
        }
      ],
      "payable": false,
      "stateMutability": "view",
      "type": "function"
    },
    {
      "constant": true,
      "inputs": [],
      "name": "poolManagerAddress",
      "outputs": [
        {
          "internalType": "address",
          "name": "",
          "type": "address"
        }
      ],
      "payable": false,
      "stateMutability": "view",
      "type": "function"
    },
    {
      "constant": true,
      "inputs": [],
      "name": "priceFeedAddress",
      "outputs": [
        {
          "internalType": "address",
          "name": "",
          "type": "address"
        }
      ],
      "payable": false,
      "stateMutability": "view",
      "type": "function"
    },
    {
      "constant": false,
      "inputs": [],
      "name": "renounceOwnership",
      "outputs": [],
      "payable": false,
      "stateMutability": "nonpayable",
      "type": "function"
    },
    {
      "constant": true,
      "inputs": [],
      "name": "sortedCDPs",
      "outputs": [
        {
          "internalType": "address",
          "name": "head",
          "type": "address"
        },
        {
          "internalType": "address",
          "name": "tail",
          "type": "address"
        },
        {
          "internalType": "uint256",
          "name": "maxSize",
          "type": "uint256"
        },
        {
          "internalType": "uint256",
          "name": "size",
          "type": "uint256"
        }
      ],
      "payable": false,
      "stateMutability": "view",
      "type": "function"
    },
    {
      "constant": false,
      "inputs": [
        {
          "internalType": "address",
          "name": "newOwner",
          "type": "address"
        }
      ],
      "name": "transferOwnership",
      "outputs": [],
      "payable": false,
      "stateMutability": "nonpayable",
      "type": "function"
    },
    {
      "constant": false,
      "inputs": [
        {
          "internalType": "address",
          "name": "_poolManagerAddress",
          "type": "address"
        }
      ],
      "name": "setPoolManager",
      "outputs": [],
      "payable": false,
      "stateMutability": "nonpayable",
      "type": "function"
    },
    {
      "constant": false,
      "inputs": [
        {
          "internalType": "address",
          "name": "_priceFeedAddress",
          "type": "address"
        }
      ],
      "name": "setPriceFeed",
      "outputs": [],
      "payable": false,
      "stateMutability": "nonpayable",
      "type": "function"
    },
    {
      "constant": false,
      "inputs": [
        {
          "internalType": "address",
          "name": "_clvTokenAddress",
          "type": "address"
        }
      ],
      "name": "setCLVToken",
      "outputs": [],
      "payable": false,
      "stateMutability": "nonpayable",
      "type": "function"
    },
    {
      "constant": true,
      "inputs": [],
      "name": "getMCR",
      "outputs": [
        {
          "internalType": "uint256",
          "name": "",
          "type": "uint256"
        }
      ],
      "payable": false,
      "stateMutability": "pure",
      "type": "function"
    },
    {
      "constant": true,
      "inputs": [
        {
          "internalType": "uint256",
          "name": "x",
          "type": "uint256"
        },
        {
          "internalType": "uint256",
          "name": "y",
          "type": "uint256"
        },
        {
          "internalType": "uint256",
          "name": "z",
          "type": "uint256"
        }
      ],
      "name": "getAccurateMulDiv",
      "outputs": [
        {
          "internalType": "uint256",
          "name": "",
          "type": "uint256"
        }
      ],
      "payable": false,
      "stateMutability": "pure",
      "type": "function"
    },
    {
      "constant": true,
      "inputs": [
        {
          "internalType": "address",
          "name": "_user",
          "type": "address"
        }
      ],
      "name": "hasActiveCDP",
      "outputs": [
        {
          "internalType": "bool",
          "name": "",
          "type": "bool"
        }
      ],
      "payable": false,
      "stateMutability": "view",
      "type": "function"
    },
    {
      "constant": true,
      "inputs": [
        {
          "internalType": "address",
          "name": "id",
          "type": "address"
        }
      ],
      "name": "sortedCDPsContains",
      "outputs": [
        {
          "internalType": "bool",
          "name": "",
          "type": "bool"
        }
      ],
      "payable": false,
      "stateMutability": "view",
      "type": "function"
    },
    {
      "constant": true,
      "inputs": [],
      "name": "sortedCDPsIsEmpty",
      "outputs": [
        {
          "internalType": "bool",
          "name": "",
          "type": "bool"
        }
      ],
      "payable": false,
      "stateMutability": "view",
      "type": "function"
    },
    {
      "constant": true,
      "inputs": [],
      "name": "sortedCDPsIsFull",
      "outputs": [
        {
          "internalType": "bool",
          "name": "",
          "type": "bool"
        }
      ],
      "payable": false,
      "stateMutability": "view",
      "type": "function"
    },
    {
      "constant": true,
      "inputs": [],
      "name": "sortedCDPsgetSize",
      "outputs": [
        {
          "internalType": "uint256",
          "name": "",
          "type": "uint256"
        }
      ],
      "payable": false,
      "stateMutability": "view",
      "type": "function"
    },
    {
      "constant": true,
      "inputs": [],
      "name": "sortedCDPsGetMaxSize",
      "outputs": [
        {
          "internalType": "uint256",
          "name": "",
          "type": "uint256"
        }
      ],
      "payable": false,
      "stateMutability": "view",
      "type": "function"
    },
    {
      "constant": true,
      "inputs": [
        {
          "internalType": "address",
          "name": "user",
          "type": "address"
        }
      ],
      "name": "sortedCDPsGetKey",
      "outputs": [
        {
          "internalType": "uint256",
          "name": "",
          "type": "uint256"
        }
      ],
      "payable": false,
      "stateMutability": "view",
      "type": "function"
    },
    {
      "constant": true,
      "inputs": [],
      "name": "sortedCDPsGetFirst",
      "outputs": [
        {
          "internalType": "address",
          "name": "",
          "type": "address"
        }
      ],
      "payable": false,
      "stateMutability": "view",
      "type": "function"
    },
    {
      "constant": true,
      "inputs": [],
      "name": "sortedCDPsGetLast",
      "outputs": [
        {
          "internalType": "address",
          "name": "",
          "type": "address"
        }
      ],
      "payable": false,
      "stateMutability": "view",
      "type": "function"
    },
    {
      "constant": true,
      "inputs": [
        {
          "internalType": "address",
          "name": "user",
          "type": "address"
        }
      ],
      "name": "sortedCDPsGetNext",
      "outputs": [
        {
          "internalType": "address",
          "name": "",
          "type": "address"
        }
      ],
      "payable": false,
      "stateMutability": "view",
      "type": "function"
    },
    {
      "constant": true,
      "inputs": [
        {
          "internalType": "address",
          "name": "user",
          "type": "address"
        }
      ],
      "name": "sortedCDPsGetPrev",
      "outputs": [
        {
          "internalType": "address",
          "name": "",
          "type": "address"
        }
      ],
      "payable": false,
      "stateMutability": "view",
      "type": "function"
    },
    {
      "constant": true,
      "inputs": [
        {
          "internalType": "address",
          "name": "_debtor",
          "type": "address"
        }
      ],
      "name": "getCollRatio",
      "outputs": [
        {
          "internalType": "uint256",
          "name": "",
          "type": "uint256"
        }
      ],
      "payable": false,
      "stateMutability": "view",
      "type": "function"
    },
    {
      "constant": false,
      "inputs": [],
      "name": "userCreateCDP",
      "outputs": [
        {
          "internalType": "bool",
          "name": "",
          "type": "bool"
        }
      ],
      "payable": false,
      "stateMutability": "nonpayable",
      "type": "function"
    },
    {
      "constant": false,
      "inputs": [],
      "name": "addColl",
      "outputs": [
        {
          "internalType": "bool",
          "name": "",
          "type": "bool"
        }
      ],
      "payable": true,
      "stateMutability": "payable",
      "type": "function"
    },
    {
      "constant": false,
      "inputs": [],
      "name": "mockAddCDP",
      "outputs": [
        {
          "internalType": "bool",
          "name": "",
          "type": "bool"
        }
      ],
      "payable": false,
      "stateMutability": "nonpayable",
      "type": "function"
    },
    {
      "constant": false,
      "inputs": [
        {
          "internalType": "address",
          "name": "_user",
          "type": "address"
        },
        {
          "internalType": "uint256",
          "name": "ETHShare",
          "type": "uint256"
        }
      ],
      "name": "redirectETHBalanceToCDP",
      "outputs": [
        {
          "internalType": "bool",
          "name": "",
          "type": "bool"
        }
      ],
      "payable": false,
      "stateMutability": "nonpayable",
      "type": "function"
    },
    {
      "constant": false,
      "inputs": [
        {
          "internalType": "uint256",
          "name": "_amount",
          "type": "uint256"
        }
      ],
      "name": "withdrawColl",
      "outputs": [
        {
          "internalType": "bool",
          "name": "",
          "type": "bool"
        }
      ],
      "payable": false,
      "stateMutability": "nonpayable",
      "type": "function"
    },
    {
      "constant": false,
      "inputs": [
        {
          "internalType": "uint256",
          "name": "_amount",
          "type": "uint256"
        }
      ],
      "name": "withdrawCLV",
      "outputs": [
        {
          "internalType": "bool",
          "name": "",
          "type": "bool"
        }
      ],
      "payable": false,
      "stateMutability": "nonpayable",
      "type": "function"
    },
    {
      "constant": false,
      "inputs": [
        {
          "internalType": "uint256",
          "name": "_amount",
          "type": "uint256"
        }
      ],
      "name": "repayCLV",
      "outputs": [
        {
          "internalType": "bool",
          "name": "",
          "type": "bool"
        }
      ],
      "payable": false,
      "stateMutability": "nonpayable",
      "type": "function"
    },
    {
      "constant": false,
      "inputs": [
        {
          "internalType": "address",
          "name": "_debtor",
          "type": "address"
        }
      ],
      "name": "close",
      "outputs": [
        {
          "internalType": "bool",
          "name": "",
          "type": "bool"
        }
      ],
      "payable": false,
      "stateMutability": "nonpayable",
      "type": "function"
    },
    {
      "constant": false,
      "inputs": [
        {
          "internalType": "uint256",
          "name": "n",
          "type": "uint256"
        }
      ],
      "name": "closeCDPs",
      "outputs": [
        {
          "internalType": "bool",
          "name": "",
          "type": "bool"
        }
      ],
      "payable": false,
      "stateMutability": "nonpayable",
      "type": "function"
    },
    {
      "constant": false,
      "inputs": [
        {
          "internalType": "address",
          "name": "_user",
          "type": "address"
        },
        {
          "internalType": "uint256",
          "name": "_debtShare",
          "type": "uint256"
        }
      ],
      "name": "obtainDefaultShare",
      "outputs": [
        {
          "internalType": "bool",
          "name": "",
          "type": "bool"
        }
      ],
      "payable": false,
      "stateMutability": "nonpayable",
      "type": "function"
    },
    {
      "constant": false,
      "inputs": [
        {
          "internalType": "uint256",
          "name": "_amount",
          "type": "uint256"
        }
      ],
      "name": "redeemCollateral",
      "outputs": [
        {
          "internalType": "bool",
          "name": "",
          "type": "bool"
        }
      ],
      "payable": false,
      "stateMutability": "nonpayable",
      "type": "function"
    }
  ],
  "bytecode": "0x6080604052620000146200014c60201b60201c565b6000806101000a81548173ffffffffffffffffffffffffffffffffffffffff021916908373ffffffffffffffffffffffffffffffffffffffff1602179055506000809054906101000a900473ffffffffffffffffffffffffffffffffffffffff1673ffffffffffffffffffffffffffffffffffffffff16600073ffffffffffffffffffffffffffffffffffffffff167f8be0079c531659141344cd1fd0a4f28419497f9722a3daafe3b4186f6b6457e060405160405180910390a3600973__SortedDoublyLL________________________63a176adaf9091620f42406040518363ffffffff1660e01b8152600401808381526020018281526020019250505060006040518083038186803b1580156200012d57600080fd5b505af415801562000142573d6000803e3d6000fd5b5050505062000154565b600033905090565b61612180620001646000396000f3fe6080604052600436106102255760003560e01c806382cac7df11610123578063c6b71a20116100ab578063e6a13f301161006f578063e6a13f3014610d29578063efb028c314610d80578063f0dba07f14610de3578063f2fde38b14610e3a578063fefb4c5814610e8b57610225565b8063c6b71a2014610b78578063c74073a114610beb578063cebfa63014610c54578063e0abca0b14610ca7578063e3bfc08814610cfe57610225565b80639e1d6c78116100f25780639e1d6c781461093c578063b2ceb61614610993578063b857ce5414610a24578063bd37b77514610a8d578063beab5d2f14610ae057610225565b806382cac7df146108225780638da5cb5b146108515780638f32d59b146108a8578063947be26a146108d757610225565b80634f60919b116101b1578063715018a611610175578063715018a6146106e7578063724e78da146106fe5780637a5d5fb71461074f5780637aef6715146107a257806382680b18146107f357610225565b80634f60919b146105495780634fa93e661461059c5780635e2429d91461062457806366351a4f146106535780636840b9aa1461068257610225565b8063244beeff116101f8578063244beeff146103af57806325a2e6e7146104185780632f1aa8951461043a5780633bb104de1461048d57806344936b101461051e57610225565b806306fdde031461022a5780630f6c893f146102ba578063168ea0fb1461032d578063232b5db414610384575b600080fd5b34801561023657600080fd5b5061023f610edc565b6040518080602001828103825283818151815260200191508051906020019080838360005b8381101561027f578082015181840152602081019050610264565b50505050905090810190601f1680156102ac5780820380516001836020036101000a031916815260200191505b509250505060405180910390f35b3480156102c657600080fd5b50610313600480360360408110156102dd57600080fd5b81019080803573ffffffffffffffffffffffffffffffffffffffff16906020019092919080359060200190929190505050610f7a565b604051808215151515815260200191505060405180910390f35b34801561033957600080fd5b506103426111a5565b604051808273ffffffffffffffffffffffffffffffffffffffff1673ffffffffffffffffffffffffffffffffffffffff16815260200191505060405180910390f35b34801561039057600080fd5b50610399611239565b6040518082815260200191505060405180910390f35b3480156103bb57600080fd5b506103fe600480360360208110156103d257600080fd5b81019080803573ffffffffffffffffffffffffffffffffffffffff1690602001909291905050506112cd565b604051808215151515815260200191505060405180910390f35b610420611350565b604051808215151515815260200191505060405180910390f35b34801561044657600080fd5b506104736004803603602081101561045d57600080fd5b8101908080359060200190929190505050611b0a565b604051808215151515815260200191505060405180910390f35b34801561049957600080fd5b506104dc600480360360208110156104b057600080fd5b81019080803573ffffffffffffffffffffffffffffffffffffffff169060200190929190505050611cc7565b604051808273ffffffffffffffffffffffffffffffffffffffff1673ffffffffffffffffffffffffffffffffffffffff16815260200191505060405180910390f35b34801561052a57600080fd5b50610533611d91565b6040518082815260200191505060405180910390f35b34801561055557600080fd5b506105826004803603602081101561056c57600080fd5b8101908080359060200190929190505050611dae565b604051808215151515815260200191505060405180910390f35b3480156105a857600080fd5b506105eb600480360360208110156105bf57600080fd5b81019080803573ffffffffffffffffffffffffffffffffffffffff1690602001909291905050506123dc565b6040518085815260200184815260200183815260200182600381111561060d57fe5b60ff16815260200194505050505060405180910390f35b34801561063057600080fd5b50610639612419565b604051808215151515815260200191505060405180910390f35b34801561065f57600080fd5b506106686124ad565b604051808215151515815260200191505060405180910390f35b34801561068e57600080fd5b506106d1600480360360208110156106a557600080fd5b81019080803573ffffffffffffffffffffffffffffffffffffffff1690602001909291905050506124cc565b6040518082815260200191505060405180910390f35b3480156106f357600080fd5b506106fc6124e1565b005b34801561070a57600080fd5b5061074d6004803603602081101561072157600080fd5b81019080803573ffffffffffffffffffffffffffffffffffffffff16906020019092919050505061261a565b005b34801561075b57600080fd5b506107886004803603602081101561077257600080fd5b810190808035906020019092919050505061279e565b604051808215151515815260200191505060405180910390f35b3480156107ae57600080fd5b506107f1600480360360208110156107c557600080fd5b81019080803573ffffffffffffffffffffffffffffffffffffffff169060200190929190505050612e11565b005b3480156107ff57600080fd5b50610808612f73565b604051808215151515815260200191505060405180910390f35b34801561082e57600080fd5b50610837613052565b604051808215151515815260200191505060405180910390f35b34801561085d57600080fd5b506108666130e6565b604051808273ffffffffffffffffffffffffffffffffffffffff1673ffffffffffffffffffffffffffffffffffffffff16815260200191505060405180910390f35b3480156108b457600080fd5b506108bd61310f565b604051808215151515815260200191505060405180910390f35b3480156108e357600080fd5b50610926600480360360208110156108fa57600080fd5b81019080803573ffffffffffffffffffffffffffffffffffffffff16906020019092919050505061316d565b6040518082815260200191505060405180910390f35b34801561094857600080fd5b50610951613237565b604051808273ffffffffffffffffffffffffffffffffffffffff1673ffffffffffffffffffffffffffffffffffffffff16815260200191505060405180910390f35b34801561099f57600080fd5b506109e2600480360360208110156109b657600080fd5b81019080803573ffffffffffffffffffffffffffffffffffffffff16906020019092919050505061325d565b604051808273ffffffffffffffffffffffffffffffffffffffff1673ffffffffffffffffffffffffffffffffffffffff16815260200191505060405180910390f35b348015610a3057600080fd5b50610a7360048036036020811015610a4757600080fd5b81019080803573ffffffffffffffffffffffffffffffffffffffff169060200190929190505050613327565b604051808215151515815260200191505060405180910390f35b348015610a9957600080fd5b50610ac660048036036020811015610ab057600080fd5b81019080803590602001909291905050506133f1565b604051808215151515815260200191505060405180910390f35b348015610aec57600080fd5b50610af5613d9f565b604051808573ffffffffffffffffffffffffffffffffffffffff1673ffffffffffffffffffffffffffffffffffffffff1681526020018473ffffffffffffffffffffffffffffffffffffffff1673ffffffffffffffffffffffffffffffffffffffff16815260200183815260200182815260200194505050505060405180910390f35b348015610b8457600080fd5b50610bd160048036036040811015610b9b57600080fd5b81019080803573ffffffffffffffffffffffffffffffffffffffff16906020019092919080359060200190929190505050613dfd565b604051808215151515815260200191505060405180910390f35b348015610bf757600080fd5b50610c3a60048036036020811015610c0e57600080fd5b81019080803573ffffffffffffffffffffffffffffffffffffffff16906020019092919050505061456a565b604051808215151515815260200191505060405180910390f35b348015610c6057600080fd5b50610c8d60048036036020811015610c7757600080fd5b8101908080359060200190929190505050614a4f565b604051808215151515815260200191505060405180910390f35b348015610cb357600080fd5b50610cbc615192565b604051808273ffffffffffffffffffffffffffffffffffffffff1673ffffffffffffffffffffffffffffffffffffffff16815260200191505060405180910390f35b348015610d0a57600080fd5b50610d136151b8565b6040518082815260200191505060405180910390f35b348015610d3557600080fd5b50610d3e61524c565b604051808273ffffffffffffffffffffffffffffffffffffffff1673ffffffffffffffffffffffffffffffffffffffff16815260200191505060405180910390f35b348015610d8c57600080fd5b50610dcd60048036036060811015610da357600080fd5b81019080803590602001909291908035906020019092919080359060200190929190505050615272565b6040518082815260200191505060405180910390f35b348015610def57600080fd5b50610df8615317565b604051808273ffffffffffffffffffffffffffffffffffffffff1673ffffffffffffffffffffffffffffffffffffffff16815260200191505060405180910390f35b348015610e4657600080fd5b50610e8960048036036020811015610e5d57600080fd5b81019080803573ffffffffffffffffffffffffffffffffffffffff1690602001909291905050506153ab565b005b348015610e9757600080fd5b50610eda60048036036020811015610eae57600080fd5b81019080803573ffffffffffffffffffffffffffffffffffffffff169060200190929190505050615431565b005b60018054600181600116156101000203166002900480601f016020809104026020016040519081016040528092919081815260200182805460018160011615610100020316600290048015610f725780601f10610f4757610100808354040283529160200191610f72565b820191906000526020600020905b815481529060010190602001808311610f5557829003601f168201915b505050505081565b6000600360009054906101000a900473ffffffffffffffffffffffffffffffffffffffff1673ffffffffffffffffffffffffffffffffffffffff16610fbd615593565b73ffffffffffffffffffffffffffffffffffffffff1614611029576040517f08c379a000000000000000000000000000000000000000000000000000000000815260040180806020018281038252602e815260200180615d9e602e913960400191505060405180910390fd5b6002600381111561103657fe5b600860008573ffffffffffffffffffffffffffffffffffffffff1673ffffffffffffffffffffffffffffffffffffffff16815260200190815260200160002060030160009054906101000a900460ff16600381111561109157fe5b14611104576040517f08c379a000000000000000000000000000000000000000000000000000000000815260040180806020018281038252601e8152602001807f4344504d616e616765723a20434450206d75737420626520616374697665000081525060200191505060405180910390fd5b61115982600860008673ffffffffffffffffffffffffffffffffffffffff1673ffffffffffffffffffffffffffffffffffffffff1681526020019081526020016000206001015461559b90919063ffffffff16565b600860008573ffffffffffffffffffffffffffffffffffffffff1673ffffffffffffffffffffffffffffffffffffffff1681526020019081526020016000206001018190555092915050565b6000600973__SortedDoublyLL________________________6372e40b2690916040518263ffffffff1660e01b81526004018082815260200191505060206040518083038186803b1580156111f957600080fd5b505af415801561120d573d6000803e3d6000fd5b505050506040513d602081101561122357600080fd5b8101908080519060200190929190505050905090565b6000600973__SortedDoublyLL________________________63735bc2ca90916040518263ffffffff1660e01b81526004018082815260200191505060206040518083038186803b15801561128d57600080fd5b505af41580156112a1573d6000803e3d6000fd5b505050506040513d60208110156112b757600080fd5b8101908080519060200190929190505050905090565b6000600260038111156112dc57fe5b600860008473ffffffffffffffffffffffffffffffffffffffff1673ffffffffffffffffffffffffffffffffffffffff16815260200190815260200160002060030160009054906101000a900460ff16600381111561133757fe5b1415611346576001905061134b565b600090505b919050565b60008061135b615593565b9050600080905060038081111561136e57fe5b600860008473ffffffffffffffffffffffffffffffffffffffff1673ffffffffffffffffffffffffffffffffffffffff16815260200190815260200160002060030160009054906101000a900460ff1660038111156113c957fe5b141561143d576040517f08c379a00000000000000000000000000000000000000000000000000000000081526004018080602001828103825260198152602001807f4344504d616e616765723a2043445020697320636c6f7365640000000000000081525060200191505060405180910390fd5b6000600381111561144a57fe5b600860008473ffffffffffffffffffffffffffffffffffffffff1673ffffffffffffffffffffffffffffffffffffffff16815260200190815260200160002060030160009054906101000a900460ff1660038111156114a557fe5b14156114be576114b482615623565b5060019050611532565b600160038111156114cb57fe5b600860008473ffffffffffffffffffffffffffffffffffffffff1673ffffffffffffffffffffffffffffffffffffffff16815260200190815260200160002060030160009054906101000a900460ff16600381111561152657fe5b141561153157600190505b5b6002600860008473ffffffffffffffffffffffffffffffffffffffff1673ffffffffffffffffffffffffffffffffffffffff16815260200190815260200160002060030160006101000a81548160ff0219169083600381111561159157fe5b02179055506115eb34600860008573ffffffffffffffffffffffffffffffffffffffff1673ffffffffffffffffffffffffffffffffffffffff1681526020019081526020016000206001015461559b90919063ffffffff16565b600860008473ffffffffffffffffffffffffffffffffffffffff1673ffffffffffffffffffffffffffffffffffffffff16815260200190815260200160002060010181905550600260009054906101000a900473ffffffffffffffffffffffffffffffffffffffff1673ffffffffffffffffffffffffffffffffffffffff166325a2e6e7346040518263ffffffff1660e01b81526004016020604051808303818588803b15801561169b57600080fd5b505af11580156116af573d6000803e3d6000fd5b50505050506040513d60208110156116c657600080fd5b81019080805190602001909291905050505060006116e3836124cc565b905080600860008573ffffffffffffffffffffffffffffffffffffffff1673ffffffffffffffffffffffffffffffffffffffff16815260200190815260200160002060020181905550811561184557600973__SortedDoublyLL________________________634fbaa9a69091858487886040518663ffffffff1660e01b8152600401808681526020018573ffffffffffffffffffffffffffffffffffffffff1673ffffffffffffffffffffffffffffffffffffffff1681526020018481526020018373ffffffffffffffffffffffffffffffffffffffff1673ffffffffffffffffffffffffffffffffffffffff1681526020018273ffffffffffffffffffffffffffffffffffffffff1673ffffffffffffffffffffffffffffffffffffffff1681526020019550505050505060006040518083038186803b15801561182857600080fd5b505af415801561183c573d6000803e3d6000fd5b50505050611954565b600973__SortedDoublyLL________________________6338237efe9091858487886040518663ffffffff1660e01b8152600401808681526020018573ffffffffffffffffffffffffffffffffffffffff1673ffffffffffffffffffffffffffffffffffffffff1681526020018481526020018373ffffffffffffffffffffffffffffffffffffffff1673ffffffffffffffffffffffffffffffffffffffff1681526020018273ffffffffffffffffffffffffffffffffffffffff1673ffffffffffffffffffffffffffffffffffffffff1681526020019550505050505060006040518083038186803b15801561193b57600080fd5b505af415801561194f573d6000803e3d6000fd5b505050505b7f7dba1be544024070cd5eebfa8bdd80a8b198cea8058c7d3cc1f8dd36e41ab2f78334604051808373ffffffffffffffffffffffffffffffffffffffff1673ffffffffffffffffffffffffffffffffffffffff1681526020018281526020019250505060405180910390a17f2089894292d66b85abed43c6f71beaa6404b56065da9b6ef3112fddf9c53d9ac83600860008673ffffffffffffffffffffffffffffffffffffffff1673ffffffffffffffffffffffffffffffffffffffff16815260200190815260200160002060000154600860008773ffffffffffffffffffffffffffffffffffffffff1673ffffffffffffffffffffffffffffffffffffffff16815260200190815260200160002060010154600860008873ffffffffffffffffffffffffffffffffffffffff1673ffffffffffffffffffffffffffffffffffffffff16815260200190815260200160002060020154604051808573ffffffffffffffffffffffffffffffffffffffff1673ffffffffffffffffffffffffffffffffffffffff16815260200184815260200183815260200182815260200194505050505060405180910390a16001935050505090565b6000805b82811015611cbd576000600973__SortedDoublyLL________________________6372e40b2690916040518263ffffffff1660e01b81526004018082815260200191505060206040518083038186803b158015611b6a57600080fd5b505af4158015611b7e573d6000803e3d6000fd5b505050506040513d6020811015611b9457600080fd5b810190808051906020019092919050505090506000611bb2826124cc565b9050600a670de0b6b3a7640000600b0281611bc957fe5b04811015611be057611bda8261456a565b50611be7565b5050611cbd565b600973__SortedDoublyLL________________________632ebb2fed90916040518263ffffffff1660e01b81526004018082815260200191505060206040518083038186803b158015611c3957600080fd5b505af4158015611c4d573d6000803e3d6000fd5b505050506040513d6020811015611c6357600080fd5b810190808051906020019092919050505073ffffffffffffffffffffffffffffffffffffffff168273ffffffffffffffffffffffffffffffffffffffff161415611cae575050611cbd565b82806001019350505050611b0e565b6001915050919050565b6000600973__SortedDoublyLL________________________63fe1ee7199091846040518363ffffffff1660e01b8152600401808381526020018273ffffffffffffffffffffffffffffffffffffffff1673ffffffffffffffffffffffffffffffffffffffff1681526020019250505060206040518083038186803b158015611d4f57600080fd5b505af4158015611d63573d6000803e3d6000fd5b505050506040513d6020811015611d7957600080fd5b81019080805190602001909291905050509050919050565b6000600a670de0b6b3a7640000600b0281611da857fe5b04905090565b600080611db9615593565b90506000611dc98285600061581e565b905060026003811115611dd857fe5b600860008473ffffffffffffffffffffffffffffffffffffffff1673ffffffffffffffffffffffffffffffffffffffff16815260200190815260200160002060030160009054906101000a900460ff166003811115611e3357fe5b14611e89576040517f08c379a000000000000000000000000000000000000000000000000000000000815260040180806020018281038252602b815260200180615ed2602b913960400191505060405180910390fd5b60008411611ee2576040517f08c379a0000000000000000000000000000000000000000000000000000000008152600401808060200182810382526034815260200180615dfb6034913960400191505060405180910390fd5b600a670de0b6b3a7640000600b0281611ef757fe5b04811015611f50576040517f08c379a000000000000000000000000000000000000000000000000000000000815260040180806020018281038252603c815260200180615fb1603c913960400191505060405180910390fd5b611fa584600860008573ffffffffffffffffffffffffffffffffffffffff1673ffffffffffffffffffffffffffffffffffffffff1681526020019081526020016000206000015461559b90919063ffffffff16565b600860008473ffffffffffffffffffffffffffffffffffffffff1673ffffffffffffffffffffffffffffffffffffffff1681526020019081526020016000206000018190555080600860008473ffffffffffffffffffffffffffffffffffffffff1673ffffffffffffffffffffffffffffffffffffffff16815260200190815260200160002060020181905550600260009054906101000a900473ffffffffffffffffffffffffffffffffffffffff1673ffffffffffffffffffffffffffffffffffffffff16632e90bbd883866040518363ffffffff1660e01b8152600401808373ffffffffffffffffffffffffffffffffffffffff1673ffffffffffffffffffffffffffffffffffffffff16815260200182815260200192505050602060405180830381600087803b1580156120db57600080fd5b505af11580156120ef573d6000803e3d6000fd5b505050506040513d602081101561210557600080fd5b810190808051906020019092919050505050600973__SortedDoublyLL________________________6338237efe9091848486876040518663ffffffff1660e01b8152600401808681526020018573ffffffffffffffffffffffffffffffffffffffff1673ffffffffffffffffffffffffffffffffffffffff1681526020018481526020018373ffffffffffffffffffffffffffffffffffffffff1673ffffffffffffffffffffffffffffffffffffffff1681526020018273ffffffffffffffffffffffffffffffffffffffff1673ffffffffffffffffffffffffffffffffffffffff1681526020019550505050505060006040518083038186803b15801561220d57600080fd5b505af4158015612221573d6000803e3d6000fd5b505050507f640913f748017f33c962e4f95d85294d0233e0f9a254706a2d739a5b47f68ef08285604051808373ffffffffffffffffffffffffffffffffffffffff1673ffffffffffffffffffffffffffffffffffffffff1681526020018281526020019250505060405180910390a17f2089894292d66b85abed43c6f71beaa6404b56065da9b6ef3112fddf9c53d9ac82600860008573ffffffffffffffffffffffffffffffffffffffff1673ffffffffffffffffffffffffffffffffffffffff16815260200190815260200160002060000154600860008673ffffffffffffffffffffffffffffffffffffffff1673ffffffffffffffffffffffffffffffffffffffff16815260200190815260200160002060010154600860008773ffffffffffffffffffffffffffffffffffffffff1673ffffffffffffffffffffffffffffffffffffffff16815260200190815260200160002060020154604051808573ffffffffffffffffffffffffffffffffffffffff1673ffffffffffffffffffffffffffffffffffffffff16815260200184815260200183815260200182815260200194505050505060405180910390a1600192505050919050565b60086020528060005260406000206000915090508060000154908060010154908060020154908060030160009054906101000a900460ff16905084565b6000600973__SortedDoublyLL________________________634aa1299090916040518263ffffffff1660e01b81526004018082815260200191505060206040518083038186803b15801561246d57600080fd5b505af4158015612481573d6000803e3d6000fd5b505050506040513d602081101561249757600080fd5b8101908080519060200190929190505050905090565b6000806124b8615593565b90506124c381615623565b50600191505090565b60006124da8260008061581e565b9050919050565b6124e961310f565b61255b576040517f08c379a00000000000000000000000000000000000000000000000000000000081526004018080602001828103825260208152602001807f4f776e61626c653a2063616c6c6572206973206e6f7420746865206f776e657281525060200191505060405180910390fd5b600073ffffffffffffffffffffffffffffffffffffffff166000809054906101000a900473ffffffffffffffffffffffffffffffffffffffff1673ffffffffffffffffffffffffffffffffffffffff167f8be0079c531659141344cd1fd0a4f28419497f9722a3daafe3b4186f6b6457e060405160405180910390a360008060006101000a81548173ffffffffffffffffffffffffffffffffffffffff021916908373ffffffffffffffffffffffffffffffffffffffff160217905550565b61262261310f565b612694576040517f08c379a00000000000000000000000000000000000000000000000000000000081526004018080602001828103825260208152602001807f4f776e61626c653a2063616c6c6572206973206e6f7420746865206f776e657281525060200191505060405180910390fd5b80600760006101000a81548173ffffffffffffffffffffffffffffffffffffffff021916908373ffffffffffffffffffffffffffffffffffffffff160217905550600760009054906101000a900473ffffffffffffffffffffffffffffffffffffffff16600660006101000a81548173ffffffffffffffffffffffffffffffffffffffff021916908373ffffffffffffffffffffffffffffffffffffffff1602179055507f8c537274438aa850a330284665d81a85dd38267d09e4050d416bfc94142db26481604051808273ffffffffffffffffffffffffffffffffffffffff1673ffffffffffffffffffffffffffffffffffffffff16815260200191505060405180910390a150565b6000806127a9615593565b905060006127bc8260008660000361581e565b9050600260038111156127cb57fe5b600860008473ffffffffffffffffffffffffffffffffffffffff1673ffffffffffffffffffffffffffffffffffffffff16815260200190815260200160002060030160009054906101000a900460ff16600381111561282657fe5b1461287c576040517f08c379a000000000000000000000000000000000000000000000000000000000815260040180806020018281038252602b815260200180615ed2602b913960400191505060405180910390fd5b83600860008473ffffffffffffffffffffffffffffffffffffffff1673ffffffffffffffffffffffffffffffffffffffff168152602001908152602001600020600101541015612917576040517f08c379a0000000000000000000000000000000000000000000000000000000008152600401808060200182810382526033815260200180615e9f6033913960400191505060405180910390fd5b600a670de0b6b3a7640000600b028161292c57fe5b04811015612985576040517f08c379a000000000000000000000000000000000000000000000000000000000815260040180806020018281038252603c815260200180615fed603c913960400191505060405180910390fd5b6129da84600860008573ffffffffffffffffffffffffffffffffffffffff1673ffffffffffffffffffffffffffffffffffffffff16815260200190815260200160002060010154615a5990919063ffffffff16565b600860008473ffffffffffffffffffffffffffffffffffffffff1673ffffffffffffffffffffffffffffffffffffffff1681526020019081526020016000206001018190555080600860008473ffffffffffffffffffffffffffffffffffffffff1673ffffffffffffffffffffffffffffffffffffffff16815260200190815260200160002060020181905550600973__SortedDoublyLL________________________6338237efe9091848486876040518663ffffffff1660e01b8152600401808681526020018573ffffffffffffffffffffffffffffffffffffffff1673ffffffffffffffffffffffffffffffffffffffff1681526020018481526020018373ffffffffffffffffffffffffffffffffffffffff1673ffffffffffffffffffffffffffffffffffffffff1681526020018273ffffffffffffffffffffffffffffffffffffffff1673ffffffffffffffffffffffffffffffffffffffff1681526020019550505050505060006040518083038186803b158015612b5d57600080fd5b505af4158015612b71573d6000803e3d6000fd5b50505050600260009054906101000a900473ffffffffffffffffffffffffffffffffffffffff1673ffffffffffffffffffffffffffffffffffffffff1663f568dd8e83866040518363ffffffff1660e01b8152600401808373ffffffffffffffffffffffffffffffffffffffff1673ffffffffffffffffffffffffffffffffffffffff16815260200182815260200192505050602060405180830381600087803b158015612c1e57600080fd5b505af1158015612c32573d6000803e3d6000fd5b505050506040513d6020811015612c4857600080fd5b8101908080519060200190929190505050507fc30fcfbcaac9e0deffa719714eaa82396ff506a0d0d0eebe170830177288715d8285604051808373ffffffffffffffffffffffffffffffffffffffff1673ffffffffffffffffffffffffffffffffffffffff1681526020018281526020019250505060405180910390a17f2089894292d66b85abed43c6f71beaa6404b56065da9b6ef3112fddf9c53d9ac82600860008573ffffffffffffffffffffffffffffffffffffffff1673ffffffffffffffffffffffffffffffffffffffff16815260200190815260200160002060000154600860008673ffffffffffffffffffffffffffffffffffffffff1673ffffffffffffffffffffffffffffffffffffffff16815260200190815260200160002060010154600860008773ffffffffffffffffffffffffffffffffffffffff1673ffffffffffffffffffffffffffffffffffffffff16815260200190815260200160002060020154604051808573ffffffffffffffffffffffffffffffffffffffff1673ffffffffffffffffffffffffffffffffffffffff16815260200184815260200183815260200182815260200194505050505060405180910390a1600192505050919050565b612e1961310f565b612e8b576040517f08c379a00000000000000000000000000000000000000000000000000000000081526004018080602001828103825260208152602001807f4f776e61626c653a2063616c6c6572206973206e6f7420746865206f776e657281525060200191505060405180910390fd5b80600360006101000a81548173ffffffffffffffffffffffffffffffffffffffff021916908373ffffffffffffffffffffffffffffffffffffffff16021790555080600260006101000a81548173ffffffffffffffffffffffffffffffffffffffff021916908373ffffffffffffffffffffffffffffffffffffffff1602179055507f4d839b74477afe774fbb734df87db25e56c0427973aac588bb3ce7ce937f885081604051808273ffffffffffffffffffffffffffffffffffffffff1673ffffffffffffffffffffffffffffffffffffffff16815260200191505060405180910390a150565b6000612f7d615d48565b678ac7230489e800008160200181815250506000816000018181525050600281606001906003811115612fac57fe5b90816003811115612fb957fe5b815250508060086000612fca615593565b73ffffffffffffffffffffffffffffffffffffffff1673ffffffffffffffffffffffffffffffffffffffff16815260200190815260200160002060008201518160000155602082015181600101556040820151816002015560608201518160030160006101000a81548160ff0219169083600381111561304657fe5b02179055509050505090565b6000600973__SortedDoublyLL________________________63be6f92d490916040518263ffffffff1660e01b81526004018082815260200191505060206040518083038186803b1580156130a657600080fd5b505af41580156130ba573d6000803e3d6000fd5b505050506040513d60208110156130d057600080fd5b8101908080519060200190929190505050905090565b60008060009054906101000a900473ffffffffffffffffffffffffffffffffffffffff16905090565b60008060009054906101000a900473ffffffffffffffffffffffffffffffffffffffff1673ffffffffffffffffffffffffffffffffffffffff16613151615593565b73ffffffffffffffffffffffffffffffffffffffff1614905090565b6000600973__SortedDoublyLL________________________63d86811289091846040518363ffffffff1660e01b8152600401808381526020018273ffffffffffffffffffffffffffffffffffffffff1673ffffffffffffffffffffffffffffffffffffffff1681526020019250505060206040518083038186803b1580156131f557600080fd5b505af4158015613209573d6000803e3d6000fd5b505050506040513d602081101561321f57600080fd5b81019080805190602001909291905050509050919050565b600560009054906101000a900473ffffffffffffffffffffffffffffffffffffffff1681565b6000600973__SortedDoublyLL________________________63e189dedb9091846040518363ffffffff1660e01b8152600401808381526020018273ffffffffffffffffffffffffffffffffffffffff1673ffffffffffffffffffffffffffffffffffffffff1681526020019250505060206040518083038186803b1580156132e557600080fd5b505af41580156132f9573d6000803e3d6000fd5b505050506040513d602081101561330f57600080fd5b81019080805190602001909291905050509050919050565b6000600973__SortedDoublyLL________________________63b0138c479091846040518363ffffffff1660e01b8152600401808381526020018273ffffffffffffffffffffffffffffffffffffffff1673ffffffffffffffffffffffffffffffffffffffff1681526020019250505060206040518083038186803b1580156133af57600080fd5b505af41580156133c3573d6000803e3d6000fd5b505050506040513d60208110156133d957600080fd5b81019080805190602001909291905050509050919050565b6000806133fc615593565b905082600460009054906101000a900473ffffffffffffffffffffffffffffffffffffffff1673ffffffffffffffffffffffffffffffffffffffff166370a08231836040518263ffffffff1660e01b8152600401808273ffffffffffffffffffffffffffffffffffffffff1673ffffffffffffffffffffffffffffffffffffffff16815260200191505060206040518083038186803b15801561349e57600080fd5b505afa1580156134b2573d6000803e3d6000fd5b505050506040513d60208110156134c857600080fd5b81019080805190602001909291905050501015613530576040517f08c379a000000000000000000000000000000000000000000000000000000000815260040180806020018281038252602b815260200180615f86602b913960400191505060405180910390fd5b60005b83811015613d2d576000600973__SortedDoublyLL________________________6372e40b2690916040518263ffffffff1660e01b81526004018082815260200191505060206040518083038186803b15801561358f57600080fd5b505af41580156135a3573d6000803e3d6000fd5b505050506040513d60208110156135b957600080fd5b8101908080519060200190929190505050905060006135d7826124cc565b90506000600660009054906101000a900473ffffffffffffffffffffffffffffffffffffffff1673ffffffffffffffffffffffffffffffffffffffff166398d5fdca6040518163ffffffff1660e01b815260040160206040518083038186803b15801561364357600080fd5b505afa158015613657573d6000803e3d6000fd5b505050506040513d602081101561366d57600080fd5b810190808051906020019092919050505090506000600260009054906101000a900473ffffffffffffffffffffffffffffffffffffffff1673ffffffffffffffffffffffffffffffffffffffff1663697b93fd6040518163ffffffff1660e01b815260040160206040518083038186803b1580156136ea57600080fd5b505afa1580156136fe573d6000803e3d6000fd5b505050506040513d602081101561371457600080fd5b81019080805190602001909291905050509050600a670de0b6b3a7640000600b028161373c57fe5b048310156137535761374d8461456a565b50613d24565b60006137b361376b878b615a5990919063ffffffff16565b600860008873ffffffffffffffffffffffffffffffffffffffff1673ffffffffffffffffffffffffffffffffffffffff16815260200190815260200160002060000154615aa3565b905061380a81600860008873ffffffffffffffffffffffffffffffffffffffff1673ffffffffffffffffffffffffffffffffffffffff16815260200190815260200160002060000154615a5990919063ffffffff16565b600860008773ffffffffffffffffffffffffffffffffffffffff1673ffffffffffffffffffffffffffffffffffffffff1681526020019081526020016000206000018190555061394673__DeciMath______________________________63563d4c2383670de0b6b3a7640000876040518463ffffffff1660e01b815260040180848152602001838152602001828152602001935050505060206040518083038186803b1580156138ba57600080fd5b505af41580156138ce573d6000803e3d6000fd5b505050506040513d60208110156138e457600080fd5b8101908080519060200190929190505050600860008873ffffffffffffffffffffffffffffffffffffffff1673ffffffffffffffffffffffffffffffffffffffff16815260200190815260200160002060010154615a5990919063ffffffff16565b600860008773ffffffffffffffffffffffffffffffffffffffff1673ffffffffffffffffffffffffffffffffffffffff168152602001908152602001600020600101819055506000613997866124cc565b9050600260009054906101000a900473ffffffffffffffffffffffffffffffffffffffff1673ffffffffffffffffffffffffffffffffffffffff16637cb19fe88984876139f5670de0b6b3a764000088615abe90919063ffffffff16565b816139fc57fe5b046040518463ffffffff1660e01b8152600401808473ffffffffffffffffffffffffffffffffffffffff1673ffffffffffffffffffffffffffffffffffffffff1681526020018381526020018281526020019350505050602060405180830381600087803b158015613a6d57600080fd5b505af1158015613a81573d6000803e3d6000fd5b505050506040513d6020811015613a9757600080fd5b8101908080519060200190929190505050506000831415613abd57505050505050613d2d565b600973__SortedDoublyLL________________________6338237efe909188848c8d6040518663ffffffff1660e01b8152600401808681526020018573ffffffffffffffffffffffffffffffffffffffff1673ffffffffffffffffffffffffffffffffffffffff1681526020018481526020018373ffffffffffffffffffffffffffffffffffffffff1673ffffffffffffffffffffffffffffffffffffffff1681526020018273ffffffffffffffffffffffffffffffffffffffff1673ffffffffffffffffffffffffffffffffffffffff1681526020019550505050505060006040518083038186803b158015613bb357600080fd5b505af4158015613bc7573d6000803e3d6000fd5b505050507f2089894292d66b85abed43c6f71beaa6404b56065da9b6ef3112fddf9c53d9ac86600860008973ffffffffffffffffffffffffffffffffffffffff1673ffffffffffffffffffffffffffffffffffffffff16815260200190815260200160002060000154600860008a73ffffffffffffffffffffffffffffffffffffffff1673ffffffffffffffffffffffffffffffffffffffff16815260200190815260200160002060010154600860008b73ffffffffffffffffffffffffffffffffffffffff1673ffffffffffffffffffffffffffffffffffffffff16815260200190815260200160002060020154604051808573ffffffffffffffffffffffffffffffffffffffff1673ffffffffffffffffffffffffffffffffffffffff16815260200184815260200183815260200182815260200194505050505060405180910390a1613d1f828861559b90919063ffffffff16565b965050505b50505050613533565b7fc10cd90de32483572006e673f57d6ada13c7ad52bfe762d943d5beefb802dfd38282604051808373ffffffffffffffffffffffffffffffffffffffff1673ffffffffffffffffffffffffffffffffffffffff1681526020018281526020019250505060405180910390a15050919050565b60098060000160009054906101000a900473ffffffffffffffffffffffffffffffffffffffff16908060010160009054906101000a900473ffffffffffffffffffffffffffffffffffffffff16908060020154908060030154905084565b600080600260009054906101000a900473ffffffffffffffffffffffffffffffffffffffff1673ffffffffffffffffffffffffffffffffffffffff16639594897d6040518163ffffffff1660e01b815260040160206040518083038186803b158015613e6857600080fd5b505afa158015613e7c573d6000803e3d6000fd5b505050506040513d6020811015613e9257600080fd5b810190808051906020019092919050505090506000600260009054906101000a900473ffffffffffffffffffffffffffffffffffffffff1673ffffffffffffffffffffffffffffffffffffffff1663b7a2a4636040518163ffffffff1660e01b815260040160206040518083038186803b158015613f0f57600080fd5b505afa158015613f23573d6000803e3d6000fd5b505050506040513d6020811015613f3957600080fd5b810190808051906020019092919050505090506000600260009054906101000a900473ffffffffffffffffffffffffffffffffffffffff1673ffffffffffffffffffffffffffffffffffffffff1663b620115d6040518163ffffffff1660e01b815260040160206040518083038186803b158015613fb657600080fd5b505afa158015613fca573d6000803e3d6000fd5b505050506040513d6020811015613fe057600080fd5b81019080805190602001909291905050509050600073__DeciMath______________________________63563d4c238785876040518463ffffffff1660e01b815260040180848152602001838152602001828152602001935050505060206040518083038186803b15801561405457600080fd5b505af4158015614068573d6000803e3d6000fd5b505050506040513d602081101561407e57600080fd5b81019080805190602001909291905050509050600061409e88888461581e565b9050600260038111156140ad57fe5b600860008a73ffffffffffffffffffffffffffffffffffffffff1673ffffffffffffffffffffffffffffffffffffffff16815260200190815260200160002060030160009054906101000a900460ff16600381111561410857fe5b1461415e576040517f08c379a000000000000000000000000000000000000000000000000000000000815260040180806020018281038252602c815260200180616029602c913960400191505060405180910390fd5b848711156141b7576040517f08c379a000000000000000000000000000000000000000000000000000000000815260040180806020018281038252604a815260200180615e55604a913960600191505060405180910390fd5b6141d4601484816141c457fe5b0484615a5990919063ffffffff16565b811161422b576040517f08c379a00000000000000000000000000000000000000000000000000000000081526004018080602001828103825260428152602001806160846042913960600191505060405180910390fd5b61428087600860008b73ffffffffffffffffffffffffffffffffffffffff1673ffffffffffffffffffffffffffffffffffffffff1681526020019081526020016000206000015461559b90919063ffffffff16565b600860008a73ffffffffffffffffffffffffffffffffffffffff1673ffffffffffffffffffffffffffffffffffffffff1681526020019081526020016000206000018190555061431b82600860008b73ffffffffffffffffffffffffffffffffffffffff1673ffffffffffffffffffffffffffffffffffffffff1681526020019081526020016000206000015461559b90919063ffffffff16565b600860008a73ffffffffffffffffffffffffffffffffffffffff1673ffffffffffffffffffffffffffffffffffffffff16815260200190815260200160002060010181905550600260009054906101000a900473ffffffffffffffffffffffffffffffffffffffff1673ffffffffffffffffffffffffffffffffffffffff16634d5bc11188846040518363ffffffff1660e01b81526004018083815260200182815260200192505050602060405180830381600087803b1580156143de57600080fd5b505af11580156143f2573d6000803e3d6000fd5b505050506040513d602081101561440857600080fd5b8101908080519060200190929190505050507f2089894292d66b85abed43c6f71beaa6404b56065da9b6ef3112fddf9c53d9ac88600860008b73ffffffffffffffffffffffffffffffffffffffff1673ffffffffffffffffffffffffffffffffffffffff16815260200190815260200160002060000154600860008c73ffffffffffffffffffffffffffffffffffffffff1673ffffffffffffffffffffffffffffffffffffffff16815260200190815260200160002060010154600860008d73ffffffffffffffffffffffffffffffffffffffff1673ffffffffffffffffffffffffffffffffffffffff16815260200190815260200160002060020154604051808573ffffffffffffffffffffffffffffffffffffffff1673ffffffffffffffffffffffffffffffffffffffff16815260200184815260200183815260200182815260200194505050505060405180910390a160019550505050505092915050565b60006002600381111561457957fe5b600860008473ffffffffffffffffffffffffffffffffffffffff1673ffffffffffffffffffffffffffffffffffffffff16815260200190815260200160002060030160009054906101000a900460ff1660038111156145d457fe5b1461462a576040517f08c379a0000000000000000000000000000000000000000000000000000000008152600401808060200182810382526033815260200180615f326033913960400191505060405180910390fd5b600a670de0b6b3a7640000600b028161463f57fe5b04614649836124cc565b1061469f576040517f08c379a00000000000000000000000000000000000000000000000000000000081526004018080602001828103825260278152602001806160c66027913960400191505060405180910390fd5b6146a7615d7b565b600260009054906101000a900473ffffffffffffffffffffffffffffffffffffffff1673ffffffffffffffffffffffffffffffffffffffff1663335525ad600860008673ffffffffffffffffffffffffffffffffffffffff1673ffffffffffffffffffffffffffffffffffffffff16815260200190815260200160002060000154600860008773ffffffffffffffffffffffffffffffffffffffff1673ffffffffffffffffffffffffffffffffffffffff168152602001908152602001600020600101546040518363ffffffff1660e01b815260040180838152602001828152602001925050506040805180830381600087803b1580156147a757600080fd5b505af11580156147bb573d6000803e3d6000fd5b505050506040513d601f19601f8201168201806040525060408110156147e057600080fd5b810190809190505090506000816000600281106147f957fe5b602002015111156148e057600260009054906101000a900473ffffffffffffffffffffffffffffffffffffffff1673ffffffffffffffffffffffffffffffffffffffff1663596c89768260006002811061484f57fe5b60200201518360016002811061486157fe5b60200201516040518363ffffffff1660e01b81526004018083815260200182815260200192505050602060405180830381600087803b1580156148a357600080fd5b505af11580156148b7573d6000803e3d6000fd5b505050506040513d60208110156148cd57600080fd5b8101908080519060200190929190505050505b6003600860008573ffffffffffffffffffffffffffffffffffffffff1673ffffffffffffffffffffffffffffffffffffffff16815260200190815260200160002060030160006101000a81548160ff0219169083600381111561493f57fe5b0217905550600973__SortedDoublyLL________________________635d35e0079091856040518363ffffffff1660e01b8152600401808381526020018273ffffffffffffffffffffffffffffffffffffffff1673ffffffffffffffffffffffffffffffffffffffff1681526020019250505060006040518083038186803b1580156149ca57600080fd5b505af41580156149de573d6000803e3d6000fd5b505050507f8dc2af76274aae5c06e0223e41dba1dfdafc467ec4844fa1742b68c987d0d81c83604051808273ffffffffffffffffffffffffffffffffffffffff1673ffffffffffffffffffffffffffffffffffffffff16815260200191505060405180910390a16001915050919050565b600080614a5a615593565b905060026003811115614a6957fe5b600860008373ffffffffffffffffffffffffffffffffffffffff1673ffffffffffffffffffffffffffffffffffffffff16815260200190815260200160002060030160009054906101000a900460ff166003811115614ac457fe5b14614b1a576040517f08c379a000000000000000000000000000000000000000000000000000000000815260040180806020018281038252602b815260200180615ed2602b913960400191505060405180910390fd5b60008311614b73576040517f08c379a000000000000000000000000000000000000000000000000000000000815260040180806020018281038252602f815260200180615dcc602f913960400191505060405180910390fd5b600860008273ffffffffffffffffffffffffffffffffffffffff1673ffffffffffffffffffffffffffffffffffffffff16815260200190815260200160002060000154831115614c0e576040517f08c379a0000000000000000000000000000000000000000000000000000000008152600401808060200182810382526035815260200180615efd6035913960400191505060405180910390fd5b82600460009054906101000a900473ffffffffffffffffffffffffffffffffffffffff1673ffffffffffffffffffffffffffffffffffffffff166370a08231836040518263ffffffff1660e01b8152600401808273ffffffffffffffffffffffffffffffffffffffff1673ffffffffffffffffffffffffffffffffffffffff16815260200191505060206040518083038186803b158015614cae57600080fd5b505afa158015614cc2573d6000803e3d6000fd5b505050506040513d6020811015614cd857600080fd5b81019080805190602001909291905050501015614d40576040517f08c379a000000000000000000000000000000000000000000000000000000000815260040180806020018281038252602f815260200180616055602f913960400191505060405180910390fd5b614d9583600860008473ffffffffffffffffffffffffffffffffffffffff1673ffffffffffffffffffffffffffffffffffffffff16815260200190815260200160002060000154615a5990919063ffffffff16565b600860008373ffffffffffffffffffffffffffffffffffffffff1673ffffffffffffffffffffffffffffffffffffffff168152602001908152602001600020600001819055506000614de6826124cc565b9050600973__SortedDoublyLL________________________6338237efe9091848486876040518663ffffffff1660e01b8152600401808681526020018573ffffffffffffffffffffffffffffffffffffffff1673ffffffffffffffffffffffffffffffffffffffff1681526020018481526020018373ffffffffffffffffffffffffffffffffffffffff1673ffffffffffffffffffffffffffffffffffffffff1681526020018273ffffffffffffffffffffffffffffffffffffffff1673ffffffffffffffffffffffffffffffffffffffff1681526020019550505050505060006040518083038186803b158015614ede57600080fd5b505af4158015614ef2573d6000803e3d6000fd5b50505050600260009054906101000a900473ffffffffffffffffffffffffffffffffffffffff1673ffffffffffffffffffffffffffffffffffffffff1663b96c518183866040518363ffffffff1660e01b8152600401808373ffffffffffffffffffffffffffffffffffffffff1673ffffffffffffffffffffffffffffffffffffffff16815260200182815260200192505050602060405180830381600087803b158015614f9f57600080fd5b505af1158015614fb3573d6000803e3d6000fd5b505050506040513d6020811015614fc957600080fd5b8101908080519060200190929190505050507fafaf8c5829f2f3411c5edb27fcaf3e40d24c78f622b01131b90ee281a49fde5a8285604051808373ffffffffffffffffffffffffffffffffffffffff1673ffffffffffffffffffffffffffffffffffffffff1681526020018281526020019250505060405180910390a17f2089894292d66b85abed43c6f71beaa6404b56065da9b6ef3112fddf9c53d9ac82600860008573ffffffffffffffffffffffffffffffffffffffff1673ffffffffffffffffffffffffffffffffffffffff16815260200190815260200160002060000154600860008673ffffffffffffffffffffffffffffffffffffffff1673ffffffffffffffffffffffffffffffffffffffff16815260200190815260200160002060010154600860008773ffffffffffffffffffffffffffffffffffffffff1673ffffffffffffffffffffffffffffffffffffffff16815260200190815260200160002060020154604051808573ffffffffffffffffffffffffffffffffffffffff1673ffffffffffffffffffffffffffffffffffffffff16815260200184815260200183815260200182815260200194505050505060405180910390a1600192505050919050565b600760009054906101000a900473ffffffffffffffffffffffffffffffffffffffff1681565b6000600973__SortedDoublyLL________________________63b32ece5890916040518263ffffffff1660e01b81526004018082815260200191505060206040518083038186803b15801561520c57600080fd5b505af4158015615220573d6000803e3d6000fd5b505050506040513d602081101561523657600080fd5b8101908080519060200190929190505050905090565b600360009054906101000a900473ffffffffffffffffffffffffffffffffffffffff1681565b600073__DeciMath______________________________63563d4c238585856040518463ffffffff1660e01b815260040180848152602001838152602001828152602001935050505060206040518083038186803b1580156152d357600080fd5b505af41580156152e7573d6000803e3d6000fd5b505050506040513d60208110156152fd57600080fd5b810190808051906020019092919050505090509392505050565b6000600973__SortedDoublyLL________________________632ebb2fed90916040518263ffffffff1660e01b81526004018082815260200191505060206040518083038186803b15801561536b57600080fd5b505af415801561537f573d6000803e3d6000fd5b505050506040513d602081101561539557600080fd5b8101908080519060200190929190505050905090565b6153b361310f565b615425576040517f08c379a00000000000000000000000000000000000000000000000000000000081526004018080602001828103825260208152602001807f4f776e61626c653a2063616c6c6572206973206e6f7420746865206f776e657281525060200191505060405180910390fd5b61542e81615b44565b50565b61543961310f565b6154ab576040517f08c379a00000000000000000000000000000000000000000000000000000000081526004018080602001828103825260208152602001807f4f776e61626c653a2063616c6c6572206973206e6f7420746865206f776e657281525060200191505060405180910390fd5b80600560006101000a81548173ffffffffffffffffffffffffffffffffffffffff021916908373ffffffffffffffffffffffffffffffffffffffff16021790555080600460006101000a81548173ffffffffffffffffffffffffffffffffffffffff021916908373ffffffffffffffffffffffffffffffffffffffff1602179055507f373a23842c9bfba0a655597bb13c6493895da5266bd6617086a73f8dcfe2ae7081604051808273ffffffffffffffffffffffffffffffffffffffff1673ffffffffffffffffffffffffffffffffffffffff16815260200191505060405180910390a150565b600033905090565b600080828401905083811015615619576040517f08c379a000000000000000000000000000000000000000000000000000000000815260040180806020018281038252601b8152602001807f536166654d6174683a206164646974696f6e206f766572666c6f77000000000081525060200191505060405180910390fd5b8091505092915050565b600080600381111561563157fe5b600860008473ffffffffffffffffffffffffffffffffffffffff1673ffffffffffffffffffffffffffffffffffffffff16815260200190815260200160002060030160009054906101000a900460ff16600381111561568c57fe5b146156ff576040517f08c379a000000000000000000000000000000000000000000000000000000000815260040180806020018281038252601e8152602001807f4344504d616e616765723a2043445020616c726561647920657869737473000081525060200191505060405180910390fd5b6001600860008473ffffffffffffffffffffffffffffffffffffffff1673ffffffffffffffffffffffffffffffffffffffff16815260200190815260200160002060030160006101000a81548160ff0219169083600381111561575e57fe5b021790555061576c826124cc565b600860008473ffffffffffffffffffffffffffffffffffffffff1673ffffffffffffffffffffffffffffffffffffffff168152602001908152602001600020600201819055507f6d36763f752759a8d4504959c3015df7bee44c2c5726e5ce8f5496d904da863682604051808273ffffffffffffffffffffffffffffffffffffffff1673ffffffffffffffffffffffffffffffffffffffff16815260200191505060405180910390a160019050919050565b60008061587683600860008873ffffffffffffffffffffffffffffffffffffffff1673ffffffffffffffffffffffffffffffffffffffff1681526020019081526020016000206001015461559b90919063ffffffff16565b905060006158cf85600860008973ffffffffffffffffffffffffffffffffffffffff1673ffffffffffffffffffffffffffffffffffffffff1681526020019081526020016000206000015461559b90919063ffffffff16565b90506000600660009054906101000a900473ffffffffffffffffffffffffffffffffffffffff1673ffffffffffffffffffffffffffffffffffffffff166398d5fdca6040518163ffffffff1660e01b815260040160206040518083038186803b15801561593b57600080fd5b505afa15801561594f573d6000803e3d6000fd5b505050506040513d602081101561596557600080fd5b810190808051906020019092919050505090506000821115615a2b57600073__DeciMath______________________________63563d4c238584866040518463ffffffff1660e01b815260040180848152602001838152602001828152602001935050505060206040518083038186803b1580156159e257600080fd5b505af41580156159f6573d6000803e3d6000fd5b505050506040513d6020811015615a0c57600080fd5b8101908080519060200190929190505050905080945050505050615a52565b7fffffffffffffffffffffffffffffffffffffffffffffffffffffffffffffffff93505050505b9392505050565b6000615a9b83836040518060400160405280601e81526020017f536166654d6174683a207375627472616374696f6e206f766572666c6f770000815250615c88565b905092915050565b6000818311615ab457829050615ab8565b8190505b92915050565b600080831415615ad15760009050615b3e565b6000828402905082848281615ae257fe5b0414615b39576040517f08c379a0000000000000000000000000000000000000000000000000000000008152600401808060200182810382526021815260200180615f656021913960400191505060405180910390fd5b809150505b92915050565b600073ffffffffffffffffffffffffffffffffffffffff168173ffffffffffffffffffffffffffffffffffffffff161415615bca576040517f08c379a0000000000000000000000000000000000000000000000000000000008152600401808060200182810382526026815260200180615e2f6026913960400191505060405180910390fd5b8073ffffffffffffffffffffffffffffffffffffffff166000809054906101000a900473ffffffffffffffffffffffffffffffffffffffff1673ffffffffffffffffffffffffffffffffffffffff167f8be0079c531659141344cd1fd0a4f28419497f9722a3daafe3b4186f6b6457e060405160405180910390a3806000806101000a81548173ffffffffffffffffffffffffffffffffffffffff021916908373ffffffffffffffffffffffffffffffffffffffff16021790555050565b6000838311158290615d35576040517f08c379a00000000000000000000000000000000000000000000000000000000081526004018080602001828103825283818151815260200191508051906020019080838360005b83811015615cfa578082015181840152602081019050615cdf565b50505050905090810190601f168015615d275780820380516001836020036101000a031916815260200191505b509250505060405180910390fd5b5060008385039050809150509392505050565b604051806080016040528060008152602001600081526020016000815260200160006003811115615d7557fe5b81525090565b604051806040016040528060029060208202803883398082019150509050509056fe416374697665506f6f6c3a204f6e6c792074686520706f6f6c4d616e6167657220697320617574686f72697a65644344504d616e616765723a2052657061696420616d6f756e74206d757374206265206c6172676572207468616e20304344504d616e616765723a20416d6f756e7420746f207769746864726177206d757374206265206c6172676572207468616e20304f776e61626c653a206e6577206f776e657220697320746865207a65726f20616464726573734344504d616e616765723a204465627420696e207468652064656661756c7420706f6f6c20736d616c6c6572207468616e207468652073706563696669656420646562742073686172654344504d616e616765723a20496e73756666696369656e742062616c616e636520666f7220455448207769746864726177616c4344504d616e616765723a2043445020646f6573206e6f74206578697374206f7220697320636c6f7365644344504d616e616765723a2052657061696420616d6f756e74206973206c6172676572207468616e2063757272656e7420646562744344504d616e616765723a2043445020646f6573206e6f74206578697374206f7220697320616c726561647920636c6f736564536166654d6174683a206d756c7469706c69636174696f6e206f766572666c6f774344504d616e616765723a2053656e6465722068617320696e73756666696369656e742062616c616e63654344504d616e616765723a20496e73756666696369656e7420636f6c6c61746572616c20726174696f20666f7220434c56207769746864726177616c4344504d616e616765723a20496e73756666696369656e7420636f6c6c61746572616c20726174696f20666f7220455448207769746864726177616c4344504d616e616765723a20526563697069656e74206d757374206f776e20616e20616374697665204344504344504d616e616765723a2053656e6465722068617320696e73756666696369656e7420434c562062616c616e63654344504d616e616765723a20436f6c6c61746572616c20726174696f20776f756c6420626520647261776e2062656c6f77206d6178696d756d2064726177646f776e4344504d616e616765723a20434450206e6f7420756e646572636f6c6c61746572616c697a6564a265627a7a72315820d20e97d496303abbcdb4c64b9357a1f4655941c78f4d29f58093564586f9d67a64736f6c634300050c0032",
  "source": "pragma solidity ^0.5.11;\r\n\r\n// TODO: Use SafeMath\r\nimport \"./ICDPManager.sol\";\r\nimport \"./ICLVToken.sol\";\r\nimport \"./IPriceFeed.sol\";\r\nimport \"./SortedDoublyLL.sol\";\r\nimport \"./IPoolManager.sol\";\r\nimport \"./DeciMath.sol\";\r\nimport \"../node_modules/@openzeppelin/contracts/math/SafeMath.sol\";\r\nimport \"../node_modules/@openzeppelin/contracts/ownership/Ownable.sol\";\r\n\r\ncontract CDPManager is Ownable, ICDPManager {\r\n    using SafeMath for uint;\r\n    using SortedDoublyLL for SortedDoublyLL.Data;\r\n\r\n    string public name;\r\n    uint constant DIGITS = 1e18; // Number of digits used for precision, e.g. when calculating redistribution shares. Equals \"ether\" unit.\r\n    uint constant MCR = (11 * DIGITS) / 10; // Minimal collateral ratio (e.g. 110%). TODO: Allow variable MCR\r\n    uint constant MAX_DRAWDOWN = 20; // Loans cannot be drawn down more than 5% (= 1/20) below the TCR when receiving redistribution shares\r\n    enum Status { inexistent, newBorn, active, closed }\r\n    \r\n    // --- Events --- \r\n    event PoolManagerAddressChanged(address _newPoolManagerAddress);\r\n    event PriceFeedAddressChanged(address _newPriceFeedAddress);\r\n    event CLVTokenAddressChanged(address _newCLVTokenAddress);\r\n\r\n    event CDPCreated(address _user);\r\n    event CDPUpdated(address _user, uint _debt, uint _coll, uint ICR);\r\n    event CDPClosed(address _user);\r\n\r\n    event CollateralAdded(address _user, uint _amountAdded);\r\n    event CollateralWithdrawn(address _user, uint _amountWithdrawn);\r\n    event CLVWithdrawn(address _user, uint _amountWithdrawn);\r\n    event CLVRepayed(address _user, uint _amountRepayed);\r\n    event CollateralRedeemed(address _user, uint redeemedAmount);\r\n\r\n    // --- Connected contract declarations ---\r\n    IPoolManager poolManager;\r\n    address public poolManagerAddress;\r\n\r\n    ICLVToken CLV; \r\n    address public clvTokenAddress;\r\n\r\n    IPriceFeed priceFeed;\r\n    address public priceFeedAddress;\r\n\r\n    // --- Data structures ---\r\n\r\n    // Stores the necessary data for a Collateralized Debt Position (CDP)\r\n    struct CDP {\r\n        uint debt;\r\n        uint coll;\r\n        uint ICR; // Individual Collateral Ratio\r\n        Status status;\r\n    }\r\n    \r\n    mapping (address => CDP) public CDPs; // A map of all new CDPs: created but no initial collateral\r\n    SortedDoublyLL.Data public sortedCDPs; // A doubly linked CDP list sorted by the collateral ratio of the CDPs\r\n\r\n     // --- Modifiers ---\r\n    modifier onlyPoolManager {\r\n        require(_msgSender() == poolManagerAddress, \"ActivePool: Only the poolManager is authorized\");\r\n        _;\r\n    }\r\n\r\n    constructor() public payable {\r\n        sortedCDPs.setMaxSize(1000000);\r\n    }   \r\n\r\n    // --- Contract setters --- \r\n    function setPoolManager(address _poolManagerAddress) public onlyOwner {\r\n        poolManagerAddress = _poolManagerAddress;\r\n        poolManager = IPoolManager(_poolManagerAddress);\r\n        emit PoolManagerAddressChanged(_poolManagerAddress);\r\n    }\r\n\r\n    function setPriceFeed(address _priceFeedAddress) public onlyOwner {\r\n        priceFeedAddress = _priceFeedAddress;\r\n        priceFeed = IPriceFeed(priceFeedAddress);\r\n        emit PriceFeedAddressChanged(_priceFeedAddress);\r\n    }\r\n\r\n     function setCLVToken(address _clvTokenAddress) public onlyOwner {\r\n        clvTokenAddress = _clvTokenAddress;\r\n        CLV = ICLVToken(_clvTokenAddress);\r\n        emit CLVTokenAddressChanged(_clvTokenAddress);\r\n    }\r\n\r\n    // --- Getters ---\r\n    function getMCR() public pure returns(uint) {\r\n        return MCR;\r\n    }\r\n\r\n    function getAccurateMulDiv(uint x, uint y, uint z) public pure returns(uint) {\r\n        return DeciMath.accurateMulDiv(x, y, z);\r\n    }\r\n\r\n    function hasActiveCDP(address _user) public view returns(bool) {\r\n        if (CDPs[_user].status == Status.active) {\r\n            return true;\r\n        } else {\r\n            return false;\r\n        }\r\n    }\r\n    \r\n    /* --- SortedDoublyLinkedList (SDLL) getters and checkers. These enable public usage\r\n    of the corresponding SDLL functions, operating on the sortedCDPs struct --- */\r\n\r\n    function sortedCDPsContains(address id) public view returns(bool) {\r\n        return sortedCDPs.contains(id);\r\n    }\r\n\r\n    function sortedCDPsIsEmpty() public view returns (bool) {\r\n        return sortedCDPs.isEmpty();\r\n    }\r\n\r\n    function sortedCDPsIsFull() public view returns(bool) {\r\n        return sortedCDPs.isFull();\r\n    }\r\n\r\n    function sortedCDPsgetSize() public view returns(uint) {\r\n        return sortedCDPs.getSize();\r\n    }\r\n\r\n    function sortedCDPsGetMaxSize() public view returns(uint) {\r\n        return sortedCDPs.getMaxSize();\r\n    }\r\n\r\n    function sortedCDPsGetKey(address user) public view returns(uint) {\r\n        return sortedCDPs.getKey(user);\r\n    }\r\n\r\n    function sortedCDPsGetFirst() public view returns(address) {\r\n        return sortedCDPs.getFirst();\r\n    }\r\n\r\n    function sortedCDPsGetLast() public view returns(address) {\r\n        return sortedCDPs.getLast();\r\n    }\r\n\r\n    function sortedCDPsGetNext(address user) public view returns(address) {\r\n        return sortedCDPs.getNext(user);\r\n    }\r\n\r\n    function sortedCDPsGetPrev(address user) public view returns(address) {\r\n        return sortedCDPs.getPrev(user);\r\n    }\r\n\r\n    // ---\r\n\r\n    // Returns the new collateral ratio considering the debt and/or collateral that should be added or removed \r\n    function getNewCollRatio(address _debtor, uint _debt_change, uint _coll_change) \r\n        view \r\n        internal \r\n        returns (uint) \r\n    {\r\n        uint newColl = (CDPs[_debtor].coll).add(_coll_change);\r\n        uint newDebt = (CDPs[_debtor].debt).add(_debt_change);\r\n        uint price = priceFeed.getPrice();\r\n        // Check if the total debt is higher than 0 to avoid division by 0\r\n        if (newDebt > 0) {\r\n            uint newCollRatio = DeciMath.accurateMulDiv(newColl, price, newDebt);\r\n            return newCollRatio;\r\n        }\r\n        // Return the maximal value for uint256 if the CDP has a debt of 0\r\n        else {\r\n            return 2**256 - 1; \r\n        }\r\n    }\r\n    \r\n    // Returns the current collateral ratio of a specified CDP\r\n    function getCollRatio(address _debtor) \r\n        public\r\n        view \r\n        returns (uint) \r\n    {\r\n        return getNewCollRatio(_debtor, 0, 0);\r\n    }\r\n    \r\n    // Create a new CDP\r\n    function userCreateCDP() \r\n        public\r\n        returns (bool) \r\n    {\r\n        address user = _msgSender();\r\n        createCDP(user);\r\n\r\n        return true;\r\n    }\r\n\r\n    function createCDP(address _account) \r\n        internal \r\n        returns (bool) \r\n    {\r\n        require(CDPs[_account].status == Status.inexistent, \"CDPManager: CDP already exists\");\r\n        CDPs[_account].status = Status.newBorn; \r\n        CDPs[_account].ICR = getCollRatio(_account);\r\n\r\n        emit CDPCreated(_account);\r\n\r\n        return true;\r\n    }\r\n    \r\n    // Pay a given number of ETH (msg.value) as collateral to a CDP \r\n    function addColl() \r\n        public \r\n        payable \r\n        returns (bool) \r\n    {\r\n        address user = _msgSender();\r\n        bool isFirstCollDeposit = false;\r\n        // Potential issue with using _msgSender() as the key in the CDPs map: Users may not be able interact via other contracts since the \r\n        // _msgSender() would then be the contract rather than the transacting user. Beware of tx.origin.\r\n        require(CDPs[user].status != Status.closed, \"CDPManager: CDP is closed\");\r\n        \r\n        if (CDPs[user].status == Status.inexistent) {\r\n            createCDP(user);\r\n            isFirstCollDeposit = true; \r\n        } else if (CDPs[user].status == Status.newBorn) {\r\n            isFirstCollDeposit = true;\r\n        }\r\n            \r\n        CDPs[user].status = Status.active;\r\n       \r\n        // Add the received collateral to the CDP \r\n        CDPs[user].coll = (CDPs[user].coll).add(msg.value);\r\n\r\n        // Send the received collateral to PoolManager, to forward to ActivePool\r\n        poolManager.addColl.value(msg.value)();\r\n\r\n        // get user's new ICR\r\n        uint newICR = getCollRatio(user);\r\n\r\n        // update the ICR in the CDP mapping\r\n        CDPs[user].ICR = newICR;\r\n        \r\n        // Insert or update the ICR  in sortedCDPs\r\n        if (isFirstCollDeposit) {\r\n            sortedCDPs.insert(user, newICR, user, user);\r\n        } else {\r\n            sortedCDPs.updateKey(user, newICR, user, user);\r\n        }\r\n\r\n        emit CollateralAdded(user, msg.value);\r\n        emit CDPUpdated(user, CDPs[user].debt, CDPs[user].coll, CDPs[user].ICR);\r\n        return true;\r\n    }\r\n    /* --- MockAddCDP - DELETE AFTER CDP FUNCTIONALITY IMPLEMENTED --- *\r\n    * temporary function, used by CLVToken test suite to easily add CDPs.\r\n    Later, replace with full CDP creation process.\r\n    */\r\n\r\n    function mockAddCDP() public returns(bool) {\r\n        CDP memory cdp;\r\n        cdp.coll = 10e18;\r\n        cdp.debt = 0;\r\n        cdp.status = Status.active;\r\n\r\n        CDPs[_msgSender()] = cdp;\r\n    }\r\n\r\n    // Top up collateral. Called by PoolManager::retrieve()\r\n    function redirectETHBalanceToCDP(address _user, uint ETHShare) public onlyPoolManager returns(bool) {\r\n        require(CDPs[_user].status == Status.active, 'CDPManager: CDP must be active');\r\n        CDPs[_user].coll =  (CDPs[_user].coll).add(ETHShare);\r\n    }\r\n    \r\n    // Withdraw ETH collateral from a CDP\r\n    // TODO: Check re-entrancy protection\r\n    function withdrawColl(uint _amount) \r\n        public \r\n        returns (bool) \r\n    {\r\n        address payable user = _msgSender();\r\n        uint newICR = getNewCollRatio(user, 0, -_amount);\r\n\r\n        require(CDPs[user].status == Status.active, \"CDPManager: CDP does not exist or is closed\");\r\n        require(CDPs[user].coll >= _amount, \"CDPManager: Insufficient balance for ETH withdrawal\");\r\n        require(newICR >= MCR, \"CDPManager: Insufficient collateral ratio for ETH withdrawal\");\r\n        \r\n        // Reduce the ETH collateral by _amount\r\n        CDPs[user].coll = (CDPs[user].coll).sub(_amount);\r\n\r\n        // update the ICR in the CDP mapping\r\n        CDPs[user].ICR = newICR;\r\n\r\n        // Update ICR in sortedCDPs\r\n        sortedCDPs.updateKey(user, newICR, user, user);\r\n        \r\n        // Remove _amount ETH from ActivePool and send it to the user\r\n        poolManager.withdrawColl(user, _amount);\r\n        \r\n        emit CollateralWithdrawn(user, _amount);\r\n        emit CDPUpdated(user, CDPs[user].debt, CDPs[user].coll, CDPs[user].ICR);\r\n        return true;\r\n    }\r\n    \r\n    // Withdraw CLV tokens from a CDP: Mint new CLV and increase the debt accordingly\r\n    function withdrawCLV(uint _amount) \r\n        public \r\n        returns (bool) \r\n    {\r\n        address user = _msgSender();\r\n        uint newICR = getNewCollRatio(user, _amount, 0);\r\n\r\n        require(CDPs[user].status == Status.active, \"CDPManager: CDP does not exist or is closed\");\r\n        require(_amount > 0, \"CDPManager: Amount to withdraw must be larger than 0\");\r\n        require(newICR >= MCR, \"CDPManager: Insufficient collateral ratio for CLV withdrawal\");\r\n        \r\n        // Increase the debt by the withdrawn amount of CLV\r\n        CDPs[user].debt = (CDPs[user].debt).add(_amount);\r\n\r\n        // update the ICR in the CDP mapping\r\n        CDPs[user].ICR = newICR;\r\n\r\n        // Mint the given amount of CLV, add them to the ActivePool and send them to CDP owner's address \r\n        poolManager.withdrawCLV(user, _amount);\r\n        \r\n        // Update entry in sortedCDPs\r\n        sortedCDPs.updateKey(user, newICR, user, user);\r\n\r\n        emit CLVWithdrawn(user, _amount);\r\n        emit CDPUpdated(user, CDPs[user].debt, CDPs[user].coll, CDPs[user].ICR);\r\n        return true; \r\n    }\r\n    \r\n    // Repay CLV tokens to a CDP: Burn the repaid CLV tokens and reduce the debt accordingly\r\n    function repayCLV(uint _amount) \r\n        public \r\n        returns (bool) \r\n    {\r\n        address user = _msgSender();\r\n\r\n        require(CDPs[user].status == Status.active, \"CDPManager: CDP does not exist or is closed\");\r\n        require(_amount > 0, \"CDPManager: Repaid amount must be larger than 0\");\r\n        require(_amount <= CDPs[user].debt, \"CDPManager: Repaid amount is larger than current debt\");\r\n        require(CLV.balanceOf(user) >= _amount, \"CDPManager: Sender has insufficient CLV balance\");\r\n        // TODO: Maybe allow foreign accounts to repay loans\r\n        \r\n        // Reduce the debt\r\n        CDPs[user].debt  = (CDPs[user].debt).sub(_amount);\r\n\r\n        // Calculate new Coll ratio\r\n        uint newICR = getCollRatio(user);\r\n        \r\n        // Update entry in sortedCDPs\r\n        sortedCDPs.updateKey(user, newICR, user, user);\r\n\r\n        // Burn the received amount of CLV and remove them from the ActivePool\r\n        poolManager.repayCLV(user, _amount);\r\n\r\n        emit CLVRepayed(user, _amount);\r\n        emit CDPUpdated(user, CDPs[user].debt, CDPs[user].coll, CDPs[user].ICR);\r\n        return true;\r\n    }\r\n\r\n    // Closes the CDP of the speficied _debtor if its individual collateral ratio is lower than the minimum collateral ratio.\r\n    // TODO: This function should eventually be internal and only be called by closeCDPs(...). \r\n    function close(address _debtor) \r\n        public \r\n        returns (bool) \r\n    {\r\n        require(CDPs[_debtor].status == Status.active, \"CDPManager: CDP does not exist or is already closed\");\r\n        require(getCollRatio(_debtor) < MCR, \"CDPManager: CDP not undercollateralized\");\r\n        \r\n        // Offset as much debt & collateral as possible against the StabilityPool and save the returned remainders\r\n        uint[2] memory remainder = poolManager.offset(CDPs[_debtor].debt, CDPs[_debtor].coll);\r\n        if (remainder[0] > 0) {\r\n            // If the debt could not be offset entirely, transfer the remaining debt & collateral from Active Pool to Default Pool \r\n            // Note: remainder[0] = remaining debt; remainder[1] = remaining collateral;\r\n            poolManager.close(remainder[0], remainder[1]);\r\n        }\r\n        \r\n        // Close the CDP\r\n        CDPs[_debtor].status = Status.closed;\r\n        \r\n        // Remove CDP from sortedCDPs\r\n        sortedCDPs.remove(_debtor);\r\n        emit CDPClosed(_debtor);\r\n        return true;\r\n    }\r\n     \r\n    \r\n    // Closes a maximum number of n multiple undercollateralized CPDs, starting from the one with the lowest collateral ratio\r\n    // Caller: anybody \r\n    // TODO: Should probably be synchronized with PriceFeed and called every time the price is updated\r\n    function closeCDPs(uint n)\r\n        public\r\n        returns (bool)\r\n    {    \r\n        uint i;\r\n        while (i < n) {\r\n            address currentCDP = sortedCDPs.getLast();\r\n            uint collRatio = getCollRatio(currentCDP);\r\n            \r\n            // Close CDPs if it is undercollateralized\r\n            if (collRatio < MCR) {\r\n                close(currentCDP);\r\n            } else break;\r\n            \r\n            // Break loop if you reach the first CDP in the sorted list \r\n            // Check if issue with changing list position\r\n            if (currentCDP == sortedCDPs.getFirst()) \r\n                break;\r\n            \r\n            i++;\r\n        }       \r\n        return true;\r\n     }\r\n            \r\n            \r\n    // The specified _debtor obtains the given debt share and the corresponding collateral share from the default pool   \r\n    // Caller: anybody\r\n    \r\n    // TODO: Implement some more sophisticated logic that for example only allows the public to assign a debt & coll share\r\n    // to any CDP if the Default Pool is indebted (i.e. its collateral ratio is < 100%). Otherwise, only the owner of a CDP\r\n    // should be able to obtain a default share for himself. In this case, maybe impose more limits as described in the\r\n    // slide deck. Optimally, we could get rid of this mechanism alltogether and distribute undercollateralized loans that\r\n    // could not be offset against the Stability Pool in proportion to some excess collateral above a given threshold.\r\n    function obtainDefaultShare(address _user, uint _debtShare) \r\n        public \r\n        returns (bool) \r\n    {\r\n        uint closedDebt = poolManager.getClosedDebt();\r\n        uint closedColl = poolManager.getClosedColl();\r\n        uint TCR = poolManager.getTCR();\r\n        uint collShare = DeciMath.accurateMulDiv(_debtShare, closedColl, closedDebt); // Calculate collateral share coll from _debt\r\n        uint newICR = getNewCollRatio(_user, _debtShare, collShare);\r\n        \r\n        require(CDPs[_user].status == Status.active, \"CDPManager: Recipient must own an active CDP\");\r\n        require(_debtShare <= closedDebt, \"CDPManager: Debt in the default pool smaller than the specified debt share\");\r\n        require(newICR > TCR.sub(TCR / MAX_DRAWDOWN), \"CDPManager: Collateral ratio would be drawn below maximum drawdown\");\r\n        // Add debt & coll share to the CDP and to the total and remove them from the default pool\r\n        CDPs[_user].debt  = (CDPs[_user].debt).add(_debtShare);\r\n        CDPs[_user].coll = (CDPs[_user].debt).add(collShare);\r\n        \r\n        poolManager.obtainDefaultShare(_debtShare, collShare);\r\n        emit CDPUpdated(_user, CDPs[_user].debt, CDPs[_user].coll, CDPs[_user].ICR);\r\n\r\n        return true;\r\n    }\r\n    \r\n    // Returns the lower value from two given integers\r\n    function getMin(uint a, uint b) \r\n        internal\r\n        pure\r\n        returns (uint)\r\n    {\r\n        if (a <= b) return a;\r\n        else return b;\r\n    }    \r\n    \r\n    // Sends _amount CLV to the system and redeems the corresponding amount of collateral from as many CDPs as are needed to fill the redemption\r\n    // request. Note that if _amount is very large, this function can run out of gas. This can be easily avoided by splitting the total _amount\r\n    // in appropriate chunks and calling the function multiple times.\r\n    \r\n    // TODO: Maybe also use the default pool for redemptions\r\n    // TODO: Levy a redemption fee (and maybe also impose a rate limit on redemptions)\r\n    function redeemCollateral(uint _amount) \r\n        public\r\n        returns (bool)\r\n    {\r\n        address payable user = _msgSender();\r\n        require(CLV.balanceOf(user) >= _amount, \"CDPManager: Sender has insufficient balance\");\r\n        uint redeemed;\r\n\r\n        // Loop through the CDPs starting from the one with lowest collateral ratio until _amount of CLV is exchanged for collateral\r\n        while (redeemed < _amount) {\r\n\r\n            address currentCDPuser = sortedCDPs.getLast();\r\n            uint collRatio = getCollRatio(currentCDPuser);\r\n            uint price = priceFeed.getPrice();\r\n            uint activeDebt = poolManager.getActiveDebt();\r\n            \r\n            // Close CDPs along the way that turn out to be undercollateralized\r\n            if (collRatio < MCR) {\r\n                close(currentCDPuser);\r\n            }\r\n            else {\r\n                // Determine the remaining amount (lot) to be redeemed, capped by the entire debt of the current CDP \r\n                uint lot = getMin(_amount.sub(redeemed), CDPs[currentCDPuser].debt);\r\n                    \r\n                // Decrease the debt and collateral of the current CDP according to the lot\r\n                // TODO: Readability - too dense. Extract temp vars\r\n                CDPs[currentCDPuser].debt = (CDPs[currentCDPuser].debt).sub(lot);\r\n                CDPs[currentCDPuser].coll = (CDPs[currentCDPuser].coll).sub(DeciMath.accurateMulDiv(lot, DIGITS, price));\r\n                uint newCollRatio = getCollRatio(currentCDPuser);\r\n\r\n                // Burn the calculated lot of CLV and send the corresponding ETH to _msgSender()\r\n                poolManager.redeemCollateral(user, lot, (lot.mul(DIGITS)) / price);\r\n\r\n                // TODO - Rick: What is this check for activeDebt == 0 really doing here? And should it come before\r\n                // updating the currentCDP's position in sortedCDPs?\r\n\r\n                // Break the loop if there is no more active debt to redeem \r\n                if (activeDebt == 0) break;    \r\n                \r\n                // Update the sortedCDPs list and the redeemed amount\r\n                sortedCDPs.updateKey(currentCDPuser, newCollRatio, user, user); \r\n                emit CDPUpdated(currentCDPuser, CDPs[currentCDPuser].debt, CDPs[currentCDPuser].coll, CDPs[currentCDPuser].ICR);\r\n\r\n                redeemed = redeemed.add(lot);   \r\n            }\r\n        }\r\n        emit CollateralRedeemed(user, redeemed);\r\n    }    \r\n}",
  "sourcePath": "C:/Users/Administrator/Desktop/Cleverage/contracts/CDPManager.sol",
  "compiler": {
    "name": "solc",
    "version": "0.5.12+commit.7709ece9.Emscripten.clang"
  },
  "schemaVersion": "3.0.19",
  "updatedAt": "2019-12-18T20:11:50.229Z",
  "networkType": "ethereum",
  "devdoc": {
    "methods": {
      "isOwner()": {
        "details": "Returns true if the caller is the current owner."
      },
      "owner()": {
        "details": "Returns the address of the current owner."
      },
      "renounceOwnership()": {
        "details": "Leaves the contract without owner. It will not be possible to call `onlyOwner` functions anymore. Can only be called by the current owner.     * NOTE: Renouncing ownership will leave the contract without an owner, thereby removing any functionality that is only available to the owner."
      },
      "transferOwnership(address)": {
        "details": "Transfers ownership of the contract to a new account (`newOwner`). Can only be called by the current owner."
      }
    }
  },
  "userdoc": {
    "methods": {}
  }
}