{
  "contractName": "CDPManager",
  "abi": [
    {
      "inputs": [],
      "payable": true,
      "stateMutability": "payable",
      "type": "constructor"
    },
    {
      "anonymous": false,
      "inputs": [
        {
          "indexed": true,
          "internalType": "address",
          "name": "previousOwner",
          "type": "address"
        },
        {
          "indexed": true,
          "internalType": "address",
          "name": "newOwner",
          "type": "address"
        }
      ],
      "name": "OwnershipTransferred",
      "type": "event"
    },
    {
      "constant": true,
      "inputs": [
        {
          "internalType": "address",
          "name": "",
          "type": "address"
        }
      ],
      "name": "CDPs",
      "outputs": [
        {
          "internalType": "uint256",
          "name": "debt",
          "type": "uint256"
        },
        {
          "internalType": "uint256",
          "name": "coll",
          "type": "uint256"
        },
        {
          "internalType": "uint256",
          "name": "ICR",
          "type": "uint256"
        },
        {
          "internalType": "enum CDPManager.Status",
          "name": "status",
          "type": "uint8"
        }
      ],
      "payable": false,
      "stateMutability": "view",
      "type": "function"
    },
    {
      "constant": true,
      "inputs": [],
      "name": "clvTokenAddress",
      "outputs": [
        {
          "internalType": "address",
          "name": "",
          "type": "address"
        }
      ],
      "payable": false,
      "stateMutability": "view",
      "type": "function"
    },
    {
      "constant": true,
      "inputs": [],
      "name": "isOwner",
      "outputs": [
        {
          "internalType": "bool",
          "name": "",
          "type": "bool"
        }
      ],
      "payable": false,
      "stateMutability": "view",
      "type": "function"
    },
    {
      "constant": true,
      "inputs": [],
      "name": "name",
      "outputs": [
        {
          "internalType": "string",
          "name": "",
          "type": "string"
        }
      ],
      "payable": false,
      "stateMutability": "view",
      "type": "function"
    },
    {
      "constant": true,
      "inputs": [],
      "name": "owner",
      "outputs": [
        {
          "internalType": "address",
          "name": "",
          "type": "address"
        }
      ],
      "payable": false,
      "stateMutability": "view",
      "type": "function"
    },
    {
      "constant": true,
      "inputs": [],
      "name": "poolManagerAddress",
      "outputs": [
        {
          "internalType": "address",
          "name": "",
          "type": "address"
        }
      ],
      "payable": false,
      "stateMutability": "view",
      "type": "function"
    },
    {
      "constant": true,
      "inputs": [],
      "name": "priceFeedAddress",
      "outputs": [
        {
          "internalType": "address",
          "name": "",
          "type": "address"
        }
      ],
      "payable": false,
      "stateMutability": "view",
      "type": "function"
    },
    {
      "constant": false,
      "inputs": [],
      "name": "renounceOwnership",
      "outputs": [],
      "payable": false,
      "stateMutability": "nonpayable",
      "type": "function"
    },
    {
      "constant": true,
      "inputs": [],
      "name": "sortedCDPs",
      "outputs": [
        {
          "internalType": "address",
          "name": "head",
          "type": "address"
        },
        {
          "internalType": "address",
          "name": "tail",
          "type": "address"
        },
        {
          "internalType": "uint256",
          "name": "maxSize",
          "type": "uint256"
        },
        {
          "internalType": "uint256",
          "name": "size",
          "type": "uint256"
        }
      ],
      "payable": false,
      "stateMutability": "view",
      "type": "function"
    },
    {
      "constant": false,
      "inputs": [
        {
          "internalType": "address",
          "name": "newOwner",
          "type": "address"
        }
      ],
      "name": "transferOwnership",
      "outputs": [],
      "payable": false,
      "stateMutability": "nonpayable",
      "type": "function"
    },
    {
      "constant": false,
      "inputs": [
        {
          "internalType": "address",
          "name": "_clvTokenAddress",
          "type": "address"
        }
      ],
      "name": "setCLVToken",
      "outputs": [],
      "payable": false,
      "stateMutability": "nonpayable",
      "type": "function"
    },
    {
      "constant": false,
      "inputs": [
        {
          "internalType": "address",
          "name": "_poolManagerAddress",
          "type": "address"
        }
      ],
      "name": "setPoolManager",
      "outputs": [],
      "payable": false,
      "stateMutability": "nonpayable",
      "type": "function"
    },
    {
      "constant": false,
      "inputs": [
        {
          "internalType": "address",
          "name": "_priceFeedAddress",
          "type": "address"
        }
      ],
      "name": "setPriceFeed",
      "outputs": [],
      "payable": false,
      "stateMutability": "nonpayable",
      "type": "function"
    },
    {
      "constant": true,
      "inputs": [],
      "name": "getMCR",
      "outputs": [
        {
          "internalType": "uint256",
          "name": "",
          "type": "uint256"
        }
      ],
      "payable": false,
      "stateMutability": "pure",
      "type": "function"
    },
    {
      "constant": true,
      "inputs": [
        {
          "internalType": "address",
          "name": "id",
          "type": "address"
        }
      ],
      "name": "sortedCDPsContains",
      "outputs": [
        {
          "internalType": "bool",
          "name": "",
          "type": "bool"
        }
      ],
      "payable": false,
      "stateMutability": "view",
      "type": "function"
    },
    {
      "constant": true,
      "inputs": [],
      "name": "sortedCDPsIsEmpty",
      "outputs": [
        {
          "internalType": "bool",
          "name": "",
          "type": "bool"
        }
      ],
      "payable": false,
      "stateMutability": "view",
      "type": "function"
    },
    {
      "constant": true,
      "inputs": [],
      "name": "sortedCDPsIsFull",
      "outputs": [
        {
          "internalType": "bool",
          "name": "",
          "type": "bool"
        }
      ],
      "payable": false,
      "stateMutability": "view",
      "type": "function"
    },
    {
      "constant": true,
      "inputs": [],
      "name": "sortedCDPsgetSize",
      "outputs": [
        {
          "internalType": "uint256",
          "name": "",
          "type": "uint256"
        }
      ],
      "payable": false,
      "stateMutability": "view",
      "type": "function"
    },
    {
      "constant": true,
      "inputs": [],
      "name": "sortedCDPsGetMaxSize",
      "outputs": [
        {
          "internalType": "uint256",
          "name": "",
          "type": "uint256"
        }
      ],
      "payable": false,
      "stateMutability": "view",
      "type": "function"
    },
    {
      "constant": true,
      "inputs": [
        {
          "internalType": "address",
          "name": "user",
          "type": "address"
        }
      ],
      "name": "sortedCDPsGetKey",
      "outputs": [
        {
          "internalType": "uint256",
          "name": "",
          "type": "uint256"
        }
      ],
      "payable": false,
      "stateMutability": "view",
      "type": "function"
    },
    {
      "constant": true,
      "inputs": [],
      "name": "sortedCDPsGetFirst",
      "outputs": [
        {
          "internalType": "address",
          "name": "",
          "type": "address"
        }
      ],
      "payable": false,
      "stateMutability": "view",
      "type": "function"
    },
    {
      "constant": true,
      "inputs": [],
      "name": "sortedCDPsGetLast",
      "outputs": [
        {
          "internalType": "address",
          "name": "",
          "type": "address"
        }
      ],
      "payable": false,
      "stateMutability": "view",
      "type": "function"
    },
    {
      "constant": true,
      "inputs": [
        {
          "internalType": "address",
          "name": "user",
          "type": "address"
        }
      ],
      "name": "sortedCDPsGetNext",
      "outputs": [
        {
          "internalType": "address",
          "name": "",
          "type": "address"
        }
      ],
      "payable": false,
      "stateMutability": "view",
      "type": "function"
    },
    {
      "constant": true,
      "inputs": [
        {
          "internalType": "address",
          "name": "user",
          "type": "address"
        }
      ],
      "name": "sortedCDPsGetPrev",
      "outputs": [
        {
          "internalType": "address",
          "name": "",
          "type": "address"
        }
      ],
      "payable": false,
      "stateMutability": "view",
      "type": "function"
    },
    {
      "constant": true,
      "inputs": [
        {
          "internalType": "address",
          "name": "_debtor",
          "type": "address"
        }
      ],
      "name": "getCollRatio",
      "outputs": [
        {
          "internalType": "uint256",
          "name": "",
          "type": "uint256"
        }
      ],
      "payable": false,
      "stateMutability": "view",
      "type": "function"
    },
    {
      "constant": false,
      "inputs": [],
      "name": "userCreateCDP",
      "outputs": [
        {
          "internalType": "bool",
          "name": "",
          "type": "bool"
        }
      ],
      "payable": false,
      "stateMutability": "nonpayable",
      "type": "function"
    },
    {
      "constant": false,
      "inputs": [],
      "name": "addColl",
      "outputs": [
        {
          "internalType": "bool",
          "name": "",
          "type": "bool"
        }
      ],
      "payable": true,
      "stateMutability": "payable",
      "type": "function"
    },
    {
      "constant": false,
      "inputs": [],
      "name": "mockAddCDP",
      "outputs": [
        {
          "internalType": "bool",
          "name": "",
          "type": "bool"
        }
      ],
      "payable": false,
      "stateMutability": "nonpayable",
      "type": "function"
    },
    {
      "constant": false,
      "inputs": [
        {
          "internalType": "uint256",
          "name": "_amount",
          "type": "uint256"
        }
      ],
      "name": "withdrawColl",
      "outputs": [
        {
          "internalType": "bool",
          "name": "",
          "type": "bool"
        }
      ],
      "payable": false,
      "stateMutability": "nonpayable",
      "type": "function"
    },
    {
      "constant": false,
      "inputs": [
        {
          "internalType": "uint256",
          "name": "_amount",
          "type": "uint256"
        }
      ],
      "name": "withdrawCLV",
      "outputs": [
        {
          "internalType": "bool",
          "name": "",
          "type": "bool"
        }
      ],
      "payable": false,
      "stateMutability": "nonpayable",
      "type": "function"
    },
    {
      "constant": false,
      "inputs": [
        {
          "internalType": "uint256",
          "name": "_amount",
          "type": "uint256"
        }
      ],
      "name": "repayCLV",
      "outputs": [
        {
          "internalType": "bool",
          "name": "",
          "type": "bool"
        }
      ],
      "payable": false,
      "stateMutability": "nonpayable",
      "type": "function"
    },
    {
      "constant": false,
      "inputs": [
        {
          "internalType": "address",
          "name": "_debtor",
          "type": "address"
        }
      ],
      "name": "close",
      "outputs": [
        {
          "internalType": "bool",
          "name": "",
          "type": "bool"
        }
      ],
      "payable": false,
      "stateMutability": "nonpayable",
      "type": "function"
    },
    {
      "constant": false,
      "inputs": [
        {
          "internalType": "uint256",
          "name": "n",
          "type": "uint256"
        }
      ],
      "name": "closeCDPs",
      "outputs": [
        {
          "internalType": "bool",
          "name": "",
          "type": "bool"
        }
      ],
      "payable": false,
      "stateMutability": "nonpayable",
      "type": "function"
    },
    {
      "constant": false,
      "inputs": [
        {
          "internalType": "address",
          "name": "_user",
          "type": "address"
        },
        {
          "internalType": "uint256",
          "name": "_debtShare",
          "type": "uint256"
        }
      ],
      "name": "obtainDefaultShare",
      "outputs": [
        {
          "internalType": "bool",
          "name": "",
          "type": "bool"
        }
      ],
      "payable": false,
      "stateMutability": "nonpayable",
      "type": "function"
    },
    {
      "constant": false,
      "inputs": [
        {
          "internalType": "uint256",
          "name": "_amount",
          "type": "uint256"
        }
      ],
      "name": "redeemCollateral",
      "outputs": [
        {
          "internalType": "bool",
          "name": "",
          "type": "bool"
        }
      ],
      "payable": false,
      "stateMutability": "nonpayable",
      "type": "function"
    }
  ],
  "bytecode": "0x6080604052620000146200014c60201b60201c565b6000806101000a81548173ffffffffffffffffffffffffffffffffffffffff021916908373ffffffffffffffffffffffffffffffffffffffff1602179055506000809054906101000a900473ffffffffffffffffffffffffffffffffffffffff1673ffffffffffffffffffffffffffffffffffffffff16600073ffffffffffffffffffffffffffffffffffffffff167f8be0079c531659141344cd1fd0a4f28419497f9722a3daafe3b4186f6b6457e060405160405180910390a3600973__SortedDoublyLL________________________63a176adaf9091620f42406040518363ffffffff1660e01b8152600401808381526020018281526020019250505060006040518083038186803b1580156200012d57600080fd5b505af415801562000142573d6000803e3d6000fd5b5050505062000154565b600033905090565b614a0780620001646000396000f3fe6080604052600436106102045760003560e01c806382cac7df11610118578063c6b71a20116100a0578063e3bfc0881161006f578063e3bfc08814610c01578063e6a13f3014610c2c578063f0dba07f14610c83578063f2fde38b14610cda578063fefb4c5814610d2b57610204565b8063c6b71a2014610a7b578063c74073a114610aee578063cebfa63014610b57578063e0abca0b14610baa57610204565b80639e1d6c78116100e75780639e1d6c781461083f578063b2ceb61614610896578063b857ce5414610927578063bd37b77514610990578063beab5d2f146109e357610204565b806382cac7df146107255780638da5cb5b146107545780638f32d59b146107ab578063947be26a146107da57610204565b80634fa93e661161019b578063715018a61161016a578063715018a6146105ea578063724e78da146106015780637a5d5fb7146106525780637aef6715146106a557806382680b18146106f657610204565b80634fa93e661461049f5780635e2429d91461052757806366351a4f146105565780636840b9aa1461058557610204565b80632f1aa895116101d75780632f1aa8951461033d5780633bb104de1461039057806344936b10146104215780634f60919b1461044c57610204565b806306fdde0314610209578063168ea0fb14610299578063232b5db4146102f057806325a2e6e71461031b575b600080fd5b34801561021557600080fd5b5061021e610d7c565b6040518080602001828103825283818151815260200191508051906020019080838360005b8381101561025e578082015181840152602081019050610243565b50505050905090810190601f16801561028b5780820380516001836020036101000a031916815260200191505b509250505060405180910390f35b3480156102a557600080fd5b506102ae610e1a565b604051808273ffffffffffffffffffffffffffffffffffffffff1673ffffffffffffffffffffffffffffffffffffffff16815260200191505060405180910390f35b3480156102fc57600080fd5b50610305610eae565b6040518082815260200191505060405180910390f35b610323610f42565b604051808215151515815260200191505060405180910390f35b34801561034957600080fd5b506103766004803603602081101561036057600080fd5b8101908080359060200190929190505050611505565b604051808215151515815260200191505060405180910390f35b34801561039c57600080fd5b506103df600480360360208110156103b357600080fd5b81019080803573ffffffffffffffffffffffffffffffffffffffff1690602001909291905050506116c2565b604051808273ffffffffffffffffffffffffffffffffffffffff1673ffffffffffffffffffffffffffffffffffffffff16815260200191505060405180910390f35b34801561042d57600080fd5b5061043661178c565b6040518082815260200191505060405180910390f35b34801561045857600080fd5b506104856004803603602081101561046f57600080fd5b81019080803590602001909291905050506117a9565b604051808215151515815260200191505060405180910390f35b3480156104ab57600080fd5b506104ee600480360360208110156104c257600080fd5b81019080803573ffffffffffffffffffffffffffffffffffffffff169060200190929190505050611be0565b6040518085815260200184815260200183815260200182600381111561051057fe5b60ff16815260200194505050505060405180910390f35b34801561053357600080fd5b5061053c611c1d565b604051808215151515815260200191505060405180910390f35b34801561056257600080fd5b5061056b611cb1565b604051808215151515815260200191505060405180910390f35b34801561059157600080fd5b506105d4600480360360208110156105a857600080fd5b81019080803573ffffffffffffffffffffffffffffffffffffffff169060200190929190505050611cd0565b6040518082815260200191505060405180910390f35b3480156105f657600080fd5b506105ff611ce5565b005b34801561060d57600080fd5b506106506004803603602081101561062457600080fd5b81019080803573ffffffffffffffffffffffffffffffffffffffff169060200190929190505050611e1e565b005b34801561065e57600080fd5b5061068b6004803603602081101561067557600080fd5b8101908080359060200190929190505050611f3f565b604051808215151515815260200191505060405180910390f35b3480156106b157600080fd5b506106f4600480360360208110156106c857600080fd5b81019080803573ffffffffffffffffffffffffffffffffffffffff1690602001909291905050506123bb565b005b34801561070257600080fd5b5061070b6124ba565b604051808215151515815260200191505060405180910390f35b34801561073157600080fd5b5061073a612599565b604051808215151515815260200191505060405180910390f35b34801561076057600080fd5b5061076961262d565b604051808273ffffffffffffffffffffffffffffffffffffffff1673ffffffffffffffffffffffffffffffffffffffff16815260200191505060405180910390f35b3480156107b757600080fd5b506107c0612656565b604051808215151515815260200191505060405180910390f35b3480156107e657600080fd5b50610829600480360360208110156107fd57600080fd5b81019080803573ffffffffffffffffffffffffffffffffffffffff1690602001909291905050506126b4565b6040518082815260200191505060405180910390f35b34801561084b57600080fd5b5061085461277e565b604051808273ffffffffffffffffffffffffffffffffffffffff1673ffffffffffffffffffffffffffffffffffffffff16815260200191505060405180910390f35b3480156108a257600080fd5b506108e5600480360360208110156108b957600080fd5b81019080803573ffffffffffffffffffffffffffffffffffffffff1690602001909291905050506127a4565b604051808273ffffffffffffffffffffffffffffffffffffffff1673ffffffffffffffffffffffffffffffffffffffff16815260200191505060405180910390f35b34801561093357600080fd5b506109766004803603602081101561094a57600080fd5b81019080803573ffffffffffffffffffffffffffffffffffffffff16906020019092919050505061286e565b604051808215151515815260200191505060405180910390f35b34801561099c57600080fd5b506109c9600480360360208110156109b357600080fd5b8101908080359060200190929190505050612938565b604051808215151515815260200191505060405180910390f35b3480156109ef57600080fd5b506109f8612fe6565b604051808573ffffffffffffffffffffffffffffffffffffffff1673ffffffffffffffffffffffffffffffffffffffff1681526020018473ffffffffffffffffffffffffffffffffffffffff1673ffffffffffffffffffffffffffffffffffffffff16815260200183815260200182815260200194505050505060405180910390f35b348015610a8757600080fd5b50610ad460048036036040811015610a9e57600080fd5b81019080803573ffffffffffffffffffffffffffffffffffffffff16906020019092919080359060200190929190505050613044565b604051808215151515815260200191505060405180910390f35b348015610afa57600080fd5b50610b3d60048036036020811015610b1157600080fd5b81019080803573ffffffffffffffffffffffffffffffffffffffff16906020019092919050505061353c565b604051808215151515815260200191505060405180910390f35b348015610b6357600080fd5b50610b9060048036036020811015610b7a57600080fd5b81019080803590602001909291905050506139be565b604051808215151515815260200191505060405180910390f35b348015610bb657600080fd5b50610bbf613f0a565b604051808273ffffffffffffffffffffffffffffffffffffffff1673ffffffffffffffffffffffffffffffffffffffff16815260200191505060405180910390f35b348015610c0d57600080fd5b50610c16613f30565b6040518082815260200191505060405180910390f35b348015610c3857600080fd5b50610c41613fc4565b604051808273ffffffffffffffffffffffffffffffffffffffff1673ffffffffffffffffffffffffffffffffffffffff16815260200191505060405180910390f35b348015610c8f57600080fd5b50610c98613fea565b604051808273ffffffffffffffffffffffffffffffffffffffff1673ffffffffffffffffffffffffffffffffffffffff16815260200191505060405180910390f35b348015610ce657600080fd5b50610d2960048036036020811015610cfd57600080fd5b81019080803573ffffffffffffffffffffffffffffffffffffffff16906020019092919050505061407e565b005b348015610d3757600080fd5b50610d7a60048036036020811015610d4e57600080fd5b81019080803573ffffffffffffffffffffffffffffffffffffffff169060200190929190505050614104565b005b60018054600181600116156101000203166002900480601f016020809104026020016040519081016040528092919081815260200182805460018160011615610100020316600290048015610e125780601f10610de757610100808354040283529160200191610e12565b820191906000526020600020905b815481529060010190602001808311610df557829003601f168201915b505050505081565b6000600973__SortedDoublyLL________________________6372e40b2690916040518263ffffffff1660e01b81526004018082815260200191505060206040518083038186803b158015610e6e57600080fd5b505af4158015610e82573d6000803e3d6000fd5b505050506040513d6020811015610e9857600080fd5b8101908080519060200190929190505050905090565b6000600973__SortedDoublyLL________________________63735bc2ca90916040518263ffffffff1660e01b81526004018082815260200191505060206040518083038186803b158015610f0257600080fd5b505af4158015610f16573d6000803e3d6000fd5b505050506040513d6020811015610f2c57600080fd5b8101908080519060200190929190505050905090565b600080610f4d614203565b90506000809050600380811115610f6057fe5b600860008473ffffffffffffffffffffffffffffffffffffffff1673ffffffffffffffffffffffffffffffffffffffff16815260200190815260200160002060030160009054906101000a900460ff166003811115610fbb57fe5b141561102f576040517f08c379a00000000000000000000000000000000000000000000000000000000081526004018080602001828103825260198152602001807f4344504d616e616765723a2043445020697320636c6f7365640000000000000081525060200191505060405180910390fd5b6000600381111561103c57fe5b600860008473ffffffffffffffffffffffffffffffffffffffff1673ffffffffffffffffffffffffffffffffffffffff16815260200190815260200160002060030160009054906101000a900460ff16600381111561109757fe5b14156110b0576110a68261420b565b5060019050611124565b600160038111156110bd57fe5b600860008473ffffffffffffffffffffffffffffffffffffffff1673ffffffffffffffffffffffffffffffffffffffff16815260200190815260200160002060030160009054906101000a900460ff16600381111561111857fe5b141561112357600190505b5b6002600860008473ffffffffffffffffffffffffffffffffffffffff1673ffffffffffffffffffffffffffffffffffffffff16815260200190815260200160002060030160006101000a81548160ff0219169083600381111561118357fe5b021790555034600860008473ffffffffffffffffffffffffffffffffffffffff1673ffffffffffffffffffffffffffffffffffffffff16815260200190815260200160002060010160008282540192505081905550600660009054906101000a900473ffffffffffffffffffffffffffffffffffffffff1673ffffffffffffffffffffffffffffffffffffffff166325a2e6e7346040518263ffffffff1660e01b81526004016020604051808303818588803b15801561124257600080fd5b505af1158015611256573d6000803e3d6000fd5b50505050506040513d602081101561126d57600080fd5b810190808051906020019092919050505050600061128a83611cd0565b905080600860008573ffffffffffffffffffffffffffffffffffffffff1673ffffffffffffffffffffffffffffffffffffffff1681526020019081526020016000206002018190555081156113ec57600973__SortedDoublyLL________________________634fbaa9a69091858487886040518663ffffffff1660e01b8152600401808681526020018573ffffffffffffffffffffffffffffffffffffffff1673ffffffffffffffffffffffffffffffffffffffff1681526020018481526020018373ffffffffffffffffffffffffffffffffffffffff1673ffffffffffffffffffffffffffffffffffffffff1681526020018273ffffffffffffffffffffffffffffffffffffffff1673ffffffffffffffffffffffffffffffffffffffff1681526020019550505050505060006040518083038186803b1580156113cf57600080fd5b505af41580156113e3573d6000803e3d6000fd5b505050506114fb565b600973__SortedDoublyLL________________________6338237efe9091858487886040518663ffffffff1660e01b8152600401808681526020018573ffffffffffffffffffffffffffffffffffffffff1673ffffffffffffffffffffffffffffffffffffffff1681526020018481526020018373ffffffffffffffffffffffffffffffffffffffff1673ffffffffffffffffffffffffffffffffffffffff1681526020018273ffffffffffffffffffffffffffffffffffffffff1673ffffffffffffffffffffffffffffffffffffffff1681526020019550505050505060006040518083038186803b1580156114e257600080fd5b505af41580156114f6573d6000803e3d6000fd5b505050505b6001935050505090565b6000805b828110156116b8576000600973__SortedDoublyLL________________________6372e40b2690916040518263ffffffff1660e01b81526004018082815260200191505060206040518083038186803b15801561156557600080fd5b505af4158015611579573d6000803e3d6000fd5b505050506040513d602081101561158f57600080fd5b8101908080519060200190929190505050905060006115ad82611cd0565b9050600a670de0b6b3a7640000600b02816115c457fe5b048110156115db576115d58261353c565b506115e2565b50506116b8565b600973__SortedDoublyLL________________________632ebb2fed90916040518263ffffffff1660e01b81526004018082815260200191505060206040518083038186803b15801561163457600080fd5b505af4158015611648573d6000803e3d6000fd5b505050506040513d602081101561165e57600080fd5b810190808051906020019092919050505073ffffffffffffffffffffffffffffffffffffffff168273ffffffffffffffffffffffffffffffffffffffff1614156116a95750506116b8565b82806001019350505050611509565b6001915050919050565b6000600973__SortedDoublyLL________________________63fe1ee7199091846040518363ffffffff1660e01b8152600401808381526020018273ffffffffffffffffffffffffffffffffffffffff1673ffffffffffffffffffffffffffffffffffffffff1681526020019250505060206040518083038186803b15801561174a57600080fd5b505af415801561175e573d6000803e3d6000fd5b505050506040513d602081101561177457600080fd5b81019080805190602001909291905050509050919050565b6000600a670de0b6b3a7640000600b02816117a357fe5b04905090565b6000806117b4614203565b905060006117c4828560006143a3565b9050600260038111156117d357fe5b600860008473ffffffffffffffffffffffffffffffffffffffff1673ffffffffffffffffffffffffffffffffffffffff16815260200190815260200160002060030160009054906101000a900460ff16600381111561182e57fe5b14611884576040517f08c379a000000000000000000000000000000000000000000000000000000000815260040180806020018281038252602b8152602001806147e5602b913960400191505060405180910390fd5b600084116118dd576040517f08c379a000000000000000000000000000000000000000000000000000000000815260040180806020018281038252603481526020018061470e6034913960400191505060405180910390fd5b600a670de0b6b3a7640000600b02816118f257fe5b0481101561194b576040517f08c379a000000000000000000000000000000000000000000000000000000000815260040180806020018281038252603081526020018061493a6030913960400191505060405180910390fd5b83600860008473ffffffffffffffffffffffffffffffffffffffff1673ffffffffffffffffffffffffffffffffffffffff1681526020019081526020016000206000016000828254019250508190555080600860008473ffffffffffffffffffffffffffffffffffffffff1673ffffffffffffffffffffffffffffffffffffffff16815260200190815260200160002060020181905550600660009054906101000a900473ffffffffffffffffffffffffffffffffffffffff1673ffffffffffffffffffffffffffffffffffffffff16632e90bbd883866040518363ffffffff1660e01b8152600401808373ffffffffffffffffffffffffffffffffffffffff1673ffffffffffffffffffffffffffffffffffffffff16815260200182815260200192505050602060405180830381600087803b158015611a8b57600080fd5b505af1158015611a9f573d6000803e3d6000fd5b505050506040513d6020811015611ab557600080fd5b810190808051906020019092919050505050600973__SortedDoublyLL________________________6338237efe9091848486876040518663ffffffff1660e01b8152600401808681526020018573ffffffffffffffffffffffffffffffffffffffff1673ffffffffffffffffffffffffffffffffffffffff1681526020018481526020018373ffffffffffffffffffffffffffffffffffffffff1673ffffffffffffffffffffffffffffffffffffffff1681526020018273ffffffffffffffffffffffffffffffffffffffff1673ffffffffffffffffffffffffffffffffffffffff1681526020019550505050505060006040518083038186803b158015611bbd57600080fd5b505af4158015611bd1573d6000803e3d6000fd5b50505050600192505050919050565b60086020528060005260406000206000915090508060000154908060010154908060020154908060030160009054906101000a900460ff16905084565b6000600973__SortedDoublyLL________________________634aa1299090916040518263ffffffff1660e01b81526004018082815260200191505060206040518083038186803b158015611c7157600080fd5b505af4158015611c85573d6000803e3d6000fd5b505050506040513d6020811015611c9b57600080fd5b8101908080519060200190929190505050905090565b600080611cbc614203565b9050611cc78161420b565b50600191505090565b6000611cde826000806143a3565b9050919050565b611ced612656565b611d5f576040517f08c379a00000000000000000000000000000000000000000000000000000000081526004018080602001828103825260208152602001807f4f776e61626c653a2063616c6c6572206973206e6f7420746865206f776e657281525060200191505060405180910390fd5b600073ffffffffffffffffffffffffffffffffffffffff166000809054906101000a900473ffffffffffffffffffffffffffffffffffffffff1673ffffffffffffffffffffffffffffffffffffffff167f8be0079c531659141344cd1fd0a4f28419497f9722a3daafe3b4186f6b6457e060405160405180910390a360008060006101000a81548173ffffffffffffffffffffffffffffffffffffffff021916908373ffffffffffffffffffffffffffffffffffffffff160217905550565b611e26612656565b611e98576040517f08c379a00000000000000000000000000000000000000000000000000000000081526004018080602001828103825260208152602001807f4f776e61626c653a2063616c6c6572206973206e6f7420746865206f776e657281525060200191505060405180910390fd5b80600560006101000a81548173ffffffffffffffffffffffffffffffffffffffff021916908373ffffffffffffffffffffffffffffffffffffffff160217905550600560009054906101000a900473ffffffffffffffffffffffffffffffffffffffff16600460006101000a81548173ffffffffffffffffffffffffffffffffffffffff021916908373ffffffffffffffffffffffffffffffffffffffff16021790555050565b600080611f4a614203565b90506000611f5d826000866000036143a3565b905060026003811115611f6c57fe5b600860008473ffffffffffffffffffffffffffffffffffffffff1673ffffffffffffffffffffffffffffffffffffffff16815260200190815260200160002060030160009054906101000a900460ff166003811115611fc757fe5b1461201d576040517f08c379a000000000000000000000000000000000000000000000000000000000815260040180806020018281038252602b8152602001806147e5602b913960400191505060405180910390fd5b83600860008473ffffffffffffffffffffffffffffffffffffffff1673ffffffffffffffffffffffffffffffffffffffff1681526020019081526020016000206001015410156120b8576040517f08c379a00000000000000000000000000000000000000000000000000000000081526004018080602001828103825260338152602001806147b26033913960400191505060405180910390fd5b600a670de0b6b3a7640000600b02816120cd57fe5b04811015612126576040517f08c379a000000000000000000000000000000000000000000000000000000000815260040180806020018281038252603c8152602001806148a3603c913960400191505060405180910390fd5b83600860008473ffffffffffffffffffffffffffffffffffffffff1673ffffffffffffffffffffffffffffffffffffffff1681526020019081526020016000206001016000828254039250508190555080600860008473ffffffffffffffffffffffffffffffffffffffff1673ffffffffffffffffffffffffffffffffffffffff16815260200190815260200160002060020181905550600973__SortedDoublyLL________________________6338237efe9091848486876040518663ffffffff1660e01b8152600401808681526020018573ffffffffffffffffffffffffffffffffffffffff1673ffffffffffffffffffffffffffffffffffffffff1681526020018481526020018373ffffffffffffffffffffffffffffffffffffffff1673ffffffffffffffffffffffffffffffffffffffff1681526020018273ffffffffffffffffffffffffffffffffffffffff1673ffffffffffffffffffffffffffffffffffffffff1681526020019550505050505060006040518083038186803b1580156122b357600080fd5b505af41580156122c7573d6000803e3d6000fd5b50505050600660009054906101000a900473ffffffffffffffffffffffffffffffffffffffff1673ffffffffffffffffffffffffffffffffffffffff1663f568dd8e83866040518363ffffffff1660e01b8152600401808373ffffffffffffffffffffffffffffffffffffffff1673ffffffffffffffffffffffffffffffffffffffff16815260200182815260200192505050602060405180830381600087803b15801561237457600080fd5b505af1158015612388573d6000803e3d6000fd5b505050506040513d602081101561239e57600080fd5b810190808051906020019092919050505050600192505050919050565b6123c3612656565b612435576040517f08c379a00000000000000000000000000000000000000000000000000000000081526004018080602001828103825260208152602001807f4f776e61626c653a2063616c6c6572206973206e6f7420746865206f776e657281525060200191505060405180910390fd5b80600760006101000a81548173ffffffffffffffffffffffffffffffffffffffff021916908373ffffffffffffffffffffffffffffffffffffffff16021790555080600660006101000a81548173ffffffffffffffffffffffffffffffffffffffff021916908373ffffffffffffffffffffffffffffffffffffffff16021790555050565b60006124c4614689565b678ac7230489e8000081602001818152505060008160000181815250506002816060019060038111156124f357fe5b9081600381111561250057fe5b815250508060086000612511614203565b73ffffffffffffffffffffffffffffffffffffffff1673ffffffffffffffffffffffffffffffffffffffff16815260200190815260200160002060008201518160000155602082015181600101556040820151816002015560608201518160030160006101000a81548160ff0219169083600381111561258d57fe5b02179055509050505090565b6000600973__SortedDoublyLL________________________63be6f92d490916040518263ffffffff1660e01b81526004018082815260200191505060206040518083038186803b1580156125ed57600080fd5b505af4158015612601573d6000803e3d6000fd5b505050506040513d602081101561261757600080fd5b8101908080519060200190929190505050905090565b60008060009054906101000a900473ffffffffffffffffffffffffffffffffffffffff16905090565b60008060009054906101000a900473ffffffffffffffffffffffffffffffffffffffff1673ffffffffffffffffffffffffffffffffffffffff16612698614203565b73ffffffffffffffffffffffffffffffffffffffff1614905090565b6000600973__SortedDoublyLL________________________63d86811289091846040518363ffffffff1660e01b8152600401808381526020018273ffffffffffffffffffffffffffffffffffffffff1673ffffffffffffffffffffffffffffffffffffffff1681526020019250505060206040518083038186803b15801561273c57600080fd5b505af4158015612750573d6000803e3d6000fd5b505050506040513d602081101561276657600080fd5b81019080805190602001909291905050509050919050565b600360009054906101000a900473ffffffffffffffffffffffffffffffffffffffff1681565b6000600973__SortedDoublyLL________________________63e189dedb9091846040518363ffffffff1660e01b8152600401808381526020018273ffffffffffffffffffffffffffffffffffffffff1673ffffffffffffffffffffffffffffffffffffffff1681526020019250505060206040518083038186803b15801561282c57600080fd5b505af4158015612840573d6000803e3d6000fd5b505050506040513d602081101561285657600080fd5b81019080805190602001909291905050509050919050565b6000600973__SortedDoublyLL________________________63b0138c479091846040518363ffffffff1660e01b8152600401808381526020018273ffffffffffffffffffffffffffffffffffffffff1673ffffffffffffffffffffffffffffffffffffffff1681526020019250505060206040518083038186803b1580156128f657600080fd5b505af415801561290a573d6000803e3d6000fd5b505050506040513d602081101561292057600080fd5b81019080805190602001909291905050509050919050565b600080612943614203565b905082600260009054906101000a900473ffffffffffffffffffffffffffffffffffffffff1673ffffffffffffffffffffffffffffffffffffffff166370a08231836040518263ffffffff1660e01b8152600401808273ffffffffffffffffffffffffffffffffffffffff1673ffffffffffffffffffffffffffffffffffffffff16815260200191505060206040518083038186803b1580156129e557600080fd5b505afa1580156129f9573d6000803e3d6000fd5b505050506040513d6020811015612a0f57600080fd5b81019080805190602001909291905050501015612a77576040517f08c379a000000000000000000000000000000000000000000000000000000000815260040180806020018281038252602b815260200180614878602b913960400191505060405180910390fd5b60005b83811015612fdf576000600973__SortedDoublyLL________________________6372e40b2690916040518263ffffffff1660e01b81526004018082815260200191505060206040518083038186803b158015612ad657600080fd5b505af4158015612aea573d6000803e3d6000fd5b505050506040513d6020811015612b0057600080fd5b810190808051906020019092919050505090506000612b1e82611cd0565b90506000600460009054906101000a900473ffffffffffffffffffffffffffffffffffffffff1673ffffffffffffffffffffffffffffffffffffffff166398d5fdca6040518163ffffffff1660e01b815260040160206040518083038186803b158015612b8a57600080fd5b505afa158015612b9e573d6000803e3d6000fd5b505050506040513d6020811015612bb457600080fd5b810190808051906020019092919050505090506000600660009054906101000a900473ffffffffffffffffffffffffffffffffffffffff1673ffffffffffffffffffffffffffffffffffffffff1663697b93fd6040518163ffffffff1660e01b815260040160206040518083038186803b158015612c3157600080fd5b505afa158015612c45573d6000803e3d6000fd5b505050506040513d6020811015612c5b57600080fd5b81019080805190602001909291905050509050600a670de0b6b3a7640000600b0281612c8357fe5b04831015612c9a57612c948461353c565b50612fd6565b6000612cea868a03600860008873ffffffffffffffffffffffffffffffffffffffff1673ffffffffffffffffffffffffffffffffffffffff1681526020019081526020016000206000015461452a565b905080600860008773ffffffffffffffffffffffffffffffffffffffff1673ffffffffffffffffffffffffffffffffffffffff1681526020019081526020016000206000016000828254039250508190555082670de0b6b3a7640000820281612d4f57fe5b04600860008773ffffffffffffffffffffffffffffffffffffffff1673ffffffffffffffffffffffffffffffffffffffff168152602001908152602001600020600101600082825403925050819055506000612daa86611cd0565b9050600660009054906101000a900473ffffffffffffffffffffffffffffffffffffffff1673ffffffffffffffffffffffffffffffffffffffff16637cb19fe8898487670de0b6b3a7640000870281612dff57fe5b046040518463ffffffff1660e01b8152600401808473ffffffffffffffffffffffffffffffffffffffff1673ffffffffffffffffffffffffffffffffffffffff1681526020018381526020018281526020019350505050602060405180830381600087803b158015612e7057600080fd5b505af1158015612e84573d6000803e3d6000fd5b505050506040513d6020811015612e9a57600080fd5b8101908080519060200190929190505050506000831415612ec057505050505050612fdf565b600973__SortedDoublyLL________________________6338237efe909188848c8d6040518663ffffffff1660e01b8152600401808681526020018573ffffffffffffffffffffffffffffffffffffffff1673ffffffffffffffffffffffffffffffffffffffff1681526020018481526020018373ffffffffffffffffffffffffffffffffffffffff1673ffffffffffffffffffffffffffffffffffffffff1681526020018273ffffffffffffffffffffffffffffffffffffffff1673ffffffffffffffffffffffffffffffffffffffff1681526020019550505050505060006040518083038186803b158015612fb657600080fd5b505af4158015612fca573d6000803e3d6000fd5b50505050818701965050505b50505050612a7a565b5050919050565b60098060000160009054906101000a900473ffffffffffffffffffffffffffffffffffffffff16908060010160009054906101000a900473ffffffffffffffffffffffffffffffffffffffff16908060020154908060030154905084565b600080600660009054906101000a900473ffffffffffffffffffffffffffffffffffffffff1673ffffffffffffffffffffffffffffffffffffffff16639594897d6040518163ffffffff1660e01b815260040160206040518083038186803b1580156130af57600080fd5b505afa1580156130c3573d6000803e3d6000fd5b505050506040513d60208110156130d957600080fd5b810190808051906020019092919050505090506000600660009054906101000a900473ffffffffffffffffffffffffffffffffffffffff1673ffffffffffffffffffffffffffffffffffffffff1663b7a2a4636040518163ffffffff1660e01b815260040160206040518083038186803b15801561315657600080fd5b505afa15801561316a573d6000803e3d6000fd5b505050506040513d602081101561318057600080fd5b810190808051906020019092919050505090506000600660009054906101000a900473ffffffffffffffffffffffffffffffffffffffff1673ffffffffffffffffffffffffffffffffffffffff1663b620115d6040518163ffffffff1660e01b815260040160206040518083038186803b1580156131fd57600080fd5b505afa158015613211573d6000803e3d6000fd5b505050506040513d602081101561322757600080fd5b810190808051906020019092919050505090506000838387028161324757fe5b04905060006132578888846143a3565b90506002600381111561326657fe5b600860008a73ffffffffffffffffffffffffffffffffffffffff1673ffffffffffffffffffffffffffffffffffffffff16815260200190815260200160002060030160009054906101000a900460ff1660038111156132c157fe5b14613317576040517f08c379a000000000000000000000000000000000000000000000000000000000815260040180806020018281038252602c8152602001806148df602c913960400191505060405180910390fd5b84871115613370576040517f08c379a000000000000000000000000000000000000000000000000000000000815260040180806020018281038252604a815260200180614768604a913960600191505060405180910390fd5b6014838161337a57fe5b04830381116133d4576040517f08c379a000000000000000000000000000000000000000000000000000000000815260040180806020018281038252604281526020018061496a6042913960600191505060405180910390fd5b86600860008a73ffffffffffffffffffffffffffffffffffffffff1673ffffffffffffffffffffffffffffffffffffffff1681526020019081526020016000206000016000828254019250508190555081600860008a73ffffffffffffffffffffffffffffffffffffffff1673ffffffffffffffffffffffffffffffffffffffff16815260200190815260200160002060010160008282540192505081905550600660009054906101000a900473ffffffffffffffffffffffffffffffffffffffff1673ffffffffffffffffffffffffffffffffffffffff16634d5bc11188846040518363ffffffff1660e01b81526004018083815260200182815260200192505050602060405180830381600087803b1580156134f157600080fd5b505af1158015613505573d6000803e3d6000fd5b505050506040513d602081101561351b57600080fd5b81019080805190602001909291905050505060019550505050505092915050565b60006002600381111561354b57fe5b600860008473ffffffffffffffffffffffffffffffffffffffff1673ffffffffffffffffffffffffffffffffffffffff16815260200190815260200160002060030160009054906101000a900460ff1660038111156135a657fe5b146135fc576040517f08c379a00000000000000000000000000000000000000000000000000000000081526004018080602001828103825260338152602001806148456033913960400191505060405180910390fd5b600a670de0b6b3a7640000600b028161361157fe5b0461361b83611cd0565b10613671576040517f08c379a00000000000000000000000000000000000000000000000000000000081526004018080602001828103825260278152602001806149ac6027913960400191505060405180910390fd5b6136796146bc565b600660009054906101000a900473ffffffffffffffffffffffffffffffffffffffff1673ffffffffffffffffffffffffffffffffffffffff1663335525ad600860008673ffffffffffffffffffffffffffffffffffffffff1673ffffffffffffffffffffffffffffffffffffffff16815260200190815260200160002060000154600860008773ffffffffffffffffffffffffffffffffffffffff1673ffffffffffffffffffffffffffffffffffffffff168152602001908152602001600020600101546040518363ffffffff1660e01b815260040180838152602001828152602001925050506040805180830381600087803b15801561377957600080fd5b505af115801561378d573d6000803e3d6000fd5b505050506040513d601f19601f8201168201806040525060408110156137b257600080fd5b810190809190505090506000816000600281106137cb57fe5b602002015111156138b257600660009054906101000a900473ffffffffffffffffffffffffffffffffffffffff1673ffffffffffffffffffffffffffffffffffffffff1663596c89768260006002811061382157fe5b60200201518360016002811061383357fe5b60200201516040518363ffffffff1660e01b81526004018083815260200182815260200192505050602060405180830381600087803b15801561387557600080fd5b505af1158015613889573d6000803e3d6000fd5b505050506040513d602081101561389f57600080fd5b8101908080519060200190929190505050505b6003600860008573ffffffffffffffffffffffffffffffffffffffff1673ffffffffffffffffffffffffffffffffffffffff16815260200190815260200160002060030160006101000a81548160ff0219169083600381111561391157fe5b0217905550600973__SortedDoublyLL________________________635d35e0079091856040518363ffffffff1660e01b8152600401808381526020018273ffffffffffffffffffffffffffffffffffffffff1673ffffffffffffffffffffffffffffffffffffffff1681526020019250505060006040518083038186803b15801561399c57600080fd5b505af41580156139b0573d6000803e3d6000fd5b505050506001915050919050565b6000806139c9614203565b9050600260038111156139d857fe5b600860008373ffffffffffffffffffffffffffffffffffffffff1673ffffffffffffffffffffffffffffffffffffffff16815260200190815260200160002060030160009054906101000a900460ff166003811115613a3357fe5b14613a89576040517f08c379a000000000000000000000000000000000000000000000000000000000815260040180806020018281038252602b8152602001806147e5602b913960400191505060405180910390fd5b60008311613ae2576040517f08c379a000000000000000000000000000000000000000000000000000000000815260040180806020018281038252602f8152602001806146df602f913960400191505060405180910390fd5b600860008273ffffffffffffffffffffffffffffffffffffffff1673ffffffffffffffffffffffffffffffffffffffff16815260200190815260200160002060000154831115613b7d576040517f08c379a00000000000000000000000000000000000000000000000000000000081526004018080602001828103825260358152602001806148106035913960400191505060405180910390fd5b82600260009054906101000a900473ffffffffffffffffffffffffffffffffffffffff1673ffffffffffffffffffffffffffffffffffffffff166370a08231836040518263ffffffff1660e01b8152600401808273ffffffffffffffffffffffffffffffffffffffff1673ffffffffffffffffffffffffffffffffffffffff16815260200191505060206040518083038186803b158015613c1d57600080fd5b505afa158015613c31573d6000803e3d6000fd5b505050506040513d6020811015613c4757600080fd5b81019080805190602001909291905050501015613caf576040517f08c379a000000000000000000000000000000000000000000000000000000000815260040180806020018281038252602f81526020018061490b602f913960400191505060405180910390fd5b82600860008373ffffffffffffffffffffffffffffffffffffffff1673ffffffffffffffffffffffffffffffffffffffff168152602001908152602001600020600001600082825403925050819055506000613d0a82611cd0565b9050600660009054906101000a900473ffffffffffffffffffffffffffffffffffffffff1673ffffffffffffffffffffffffffffffffffffffff1663b96c518183866040518363ffffffff1660e01b8152600401808373ffffffffffffffffffffffffffffffffffffffff1673ffffffffffffffffffffffffffffffffffffffff16815260200182815260200192505050602060405180830381600087803b158015613db557600080fd5b505af1158015613dc9573d6000803e3d6000fd5b505050506040513d6020811015613ddf57600080fd5b810190808051906020019092919050505050600973__SortedDoublyLL________________________6338237efe9091848486876040518663ffffffff1660e01b8152600401808681526020018573ffffffffffffffffffffffffffffffffffffffff1673ffffffffffffffffffffffffffffffffffffffff1681526020018481526020018373ffffffffffffffffffffffffffffffffffffffff1673ffffffffffffffffffffffffffffffffffffffff1681526020018273ffffffffffffffffffffffffffffffffffffffff1673ffffffffffffffffffffffffffffffffffffffff1681526020019550505050505060006040518083038186803b158015613ee757600080fd5b505af4158015613efb573d6000803e3d6000fd5b50505050600192505050919050565b600560009054906101000a900473ffffffffffffffffffffffffffffffffffffffff1681565b6000600973__SortedDoublyLL________________________63b32ece5890916040518263ffffffff1660e01b81526004018082815260200191505060206040518083038186803b158015613f8457600080fd5b505af4158015613f98573d6000803e3d6000fd5b505050506040513d6020811015613fae57600080fd5b8101908080519060200190929190505050905090565b600760009054906101000a900473ffffffffffffffffffffffffffffffffffffffff1681565b6000600973__SortedDoublyLL________________________632ebb2fed90916040518263ffffffff1660e01b81526004018082815260200191505060206040518083038186803b15801561403e57600080fd5b505af4158015614052573d6000803e3d6000fd5b505050506040513d602081101561406857600080fd5b8101908080519060200190929190505050905090565b614086612656565b6140f8576040517f08c379a00000000000000000000000000000000000000000000000000000000081526004018080602001828103825260208152602001807f4f776e61626c653a2063616c6c6572206973206e6f7420746865206f776e657281525060200191505060405180910390fd5b61410181614545565b50565b61410c612656565b61417e576040517f08c379a00000000000000000000000000000000000000000000000000000000081526004018080602001828103825260208152602001807f4f776e61626c653a2063616c6c6572206973206e6f7420746865206f776e657281525060200191505060405180910390fd5b80600360006101000a81548173ffffffffffffffffffffffffffffffffffffffff021916908373ffffffffffffffffffffffffffffffffffffffff16021790555080600260006101000a81548173ffffffffffffffffffffffffffffffffffffffff021916908373ffffffffffffffffffffffffffffffffffffffff16021790555050565b600033905090565b600080600381111561421957fe5b600860008473ffffffffffffffffffffffffffffffffffffffff1673ffffffffffffffffffffffffffffffffffffffff16815260200190815260200160002060030160009054906101000a900460ff16600381111561427457fe5b146142e7576040517f08c379a000000000000000000000000000000000000000000000000000000000815260040180806020018281038252601e8152602001807f4344504d616e616765723a2043445020616c726561647920657869737473000081525060200191505060405180910390fd5b6001600860008473ffffffffffffffffffffffffffffffffffffffff1673ffffffffffffffffffffffffffffffffffffffff16815260200190815260200160002060030160006101000a81548160ff0219169083600381111561434657fe5b021790555061435482611cd0565b600860008473ffffffffffffffffffffffffffffffffffffffff1673ffffffffffffffffffffffffffffffffffffffff1681526020019081526020016000206002018190555060019050919050565b60008082600860008773ffffffffffffffffffffffffffffffffffffffff1673ffffffffffffffffffffffffffffffffffffffff16815260200190815260200160002060010154019050600084600860008873ffffffffffffffffffffffffffffffffffffffff1673ffffffffffffffffffffffffffffffffffffffff168152602001908152602001600020600001540190506000600460009054906101000a900473ffffffffffffffffffffffffffffffffffffffff1673ffffffffffffffffffffffffffffffffffffffff166398d5fdca6040518163ffffffff1660e01b815260040160206040518083038186803b1580156144a057600080fd5b505afa1580156144b4573d6000803e3d6000fd5b505050506040513d60208110156144ca57600080fd5b8101908080519060200190929190505050905060008211156144fc5781818402816144f157fe5b049350505050614523565b7fffffffffffffffffffffffffffffffffffffffffffffffffffffffffffffffff93505050505b9392505050565b600081831161453b5782905061453f565b8190505b92915050565b600073ffffffffffffffffffffffffffffffffffffffff168173ffffffffffffffffffffffffffffffffffffffff1614156145cb576040517f08c379a00000000000000000000000000000000000000000000000000000000081526004018080602001828103825260268152602001806147426026913960400191505060405180910390fd5b8073ffffffffffffffffffffffffffffffffffffffff166000809054906101000a900473ffffffffffffffffffffffffffffffffffffffff1673ffffffffffffffffffffffffffffffffffffffff167f8be0079c531659141344cd1fd0a4f28419497f9722a3daafe3b4186f6b6457e060405160405180910390a3806000806101000a81548173ffffffffffffffffffffffffffffffffffffffff021916908373ffffffffffffffffffffffffffffffffffffffff16021790555050565b6040518060800160405280600081526020016000815260200160008152602001600060038111156146b657fe5b81525090565b604051806040016040528060029060208202803883398082019150509050509056fe4344504d616e616765723a2052657061696420616d6f756e74206d757374206265206c6172676572207468616e20304344504d616e616765723a20416d6f756e7420746f207769746864726177206d757374206265206c6172676572207468616e20304f776e61626c653a206e6577206f776e657220697320746865207a65726f20616464726573734344504d616e616765723a204465627420696e207468652064656661756c7420706f6f6c20736d616c6c6572207468616e207468652073706563696669656420646562742073686172654344504d616e616765723a20496e73756666696369656e742062616c616e636520666f7220455448207769746864726177616c4344504d616e616765723a2043445020646f6573206e6f74206578697374206f7220697320636c6f7365644344504d616e616765723a2052657061696420616d6f756e74206973206c6172676572207468616e2063757272656e7420646562744344504d616e616765723a2043445020646f6573206e6f74206578697374206f7220697320616c726561647920636c6f7365644344504d616e616765723a2053656e6465722068617320696e73756666696369656e742062616c616e63654344504d616e616765723a20496e73756666696369656e7420636f6c6c61746572616c20726174696f20666f7220455448207769746864726177616c4344504d616e616765723a20526563697069656e74206d757374206f776e20616e20616374697665204344504344504d616e616765723a2053656e6465722068617320696e73756666696369656e7420434c562062616c616e6365496e73756666696369656e7420636f6c6c61746572616c20726174696f20666f7220434c56207769746864726177616c4344504d616e616765723a20436f6c6c61746572616c20726174696f20776f756c6420626520647261776e2062656c6f77206d6178696d756d2064726177646f776e4344504d616e616765723a20434450206e6f7420756e646572636f6c6c61746572616c697a6564a265627a7a723158202e303b3163942062f098800e05dea3e766f6ba572fc5f9fb91484f1fa6cea81a64736f6c634300050c0032",
  "source": "pragma solidity ^0.5.11;\r\n\r\n// TODO: Use SafeMath\r\nimport \"./CLVToken.sol\";\r\nimport \"./PriceFeed.sol\";\r\nimport \"./SortedDoublyLL.sol\";\r\nimport \"./PoolManager.sol\";\r\nimport \"./DeciMathBasic.sol\";\r\nimport \"../node_modules/@openzeppelin/contracts/ownership/Ownable.sol\";\r\n\r\ncontract CDPManager is Ownable {\r\n  \r\n    using SortedDoublyLL for SortedDoublyLL.Data;\r\n    string public name;\r\n    uint constant DIGITS = 1e18; // Number of digits used for precision, e.g. when calculating redistribution shares. Equals \"ether\" unit.\r\n    uint constant MCR = (11 * DIGITS) / 10; // Minimal collateral ratio (e.g. 110%). TODO: Allow variable MCR\r\n    uint constant MAX_DRAWDOWN = 20; // Loans cannot be drawn down more than 5% (= 1/20) below the TCR when receiving redistribution shares\r\n    enum Status { inexistent, newBorn, active, closed }\r\n    \r\n    // Declare the Token, PriceFeed and PoolManager contracts\r\n    CLVToken CLV; \r\n    address public clvTokenAddress;\r\n\r\n    PriceFeed priceFeed;\r\n    address public priceFeedAddress;\r\n\r\n    PoolManager poolManager;\r\n    address public poolManagerAddress;\r\n\r\n    // Stores the necessary data for a Collateralized Debt Position (CDP)\r\n    struct CDP {\r\n        uint debt;\r\n        uint coll;\r\n        uint ICR; // Individual Collateral Ratio\r\n        Status status;\r\n    }\r\n    \r\n    mapping (address => CDP) public CDPs; // A map of all new CDPs: created but no initial collateral\r\n    // mapping (address => CDP) public activeCDPs; // A map of all existing (active and closed) CDPs\r\n    // mapping (address => CDP) public closedCDPs;\r\n    SortedDoublyLL.Data public sortedCDPs; // A doubly linked CDP list sorted by the collateral ratio of the CDPs\r\n\r\n    // Register the owner and the name of the CDP contract and install other contracts\r\n\r\n    constructor() public payable {\r\n        sortedCDPs.setMaxSize(1000000);\r\n    }   \r\n\r\n    // Contract setters  \r\n    function setCLVToken(address _clvTokenAddress) public onlyOwner {\r\n        clvTokenAddress = _clvTokenAddress;\r\n        CLV = CLVToken(_clvTokenAddress);\r\n    }\r\n\r\n    function setPoolManager(address _poolManagerAddress) public onlyOwner {\r\n        poolManagerAddress = _poolManagerAddress;\r\n        poolManager = PoolManager(_poolManagerAddress);\r\n    }\r\n\r\n     function setPriceFeed(address _priceFeedAddress) public onlyOwner {\r\n        priceFeedAddress = _priceFeedAddress;\r\n        priceFeed = PriceFeed(priceFeedAddress);\r\n    }\r\n    \r\n    function getMCR() public pure returns(uint) {\r\n        return MCR;\r\n    }\r\n\r\n    /* --- SortedDoublyLinkedList (SDLL) getters and checkers. These enable public usage\r\n    of the corresponding SDLL functions, operating on the sortedCDPs struct --- */\r\n\r\n    function sortedCDPsContains(address id) public view returns (bool) {\r\n        return sortedCDPs.contains(id);\r\n    }\r\n\r\n    function sortedCDPsIsEmpty() public view returns (bool) {\r\n        return sortedCDPs.isEmpty();\r\n    }\r\n\r\n    function sortedCDPsIsFull() public view returns (bool) {\r\n        return sortedCDPs.isFull();\r\n    }\r\n\r\n    function sortedCDPsgetSize() public view returns(uint) {\r\n        return sortedCDPs.getSize();\r\n    }\r\n\r\n    function sortedCDPsGetMaxSize() public view returns(uint) {\r\n        return sortedCDPs.getMaxSize();\r\n    }\r\n\r\n    function sortedCDPsGetKey(address user) public view returns(uint) {\r\n        return sortedCDPs.getKey(user);\r\n    }\r\n\r\n    function sortedCDPsGetFirst() public view returns (address) {\r\n        return sortedCDPs.getFirst();\r\n    }\r\n\r\n    function sortedCDPsGetLast() public view returns (address) {\r\n        return sortedCDPs.getLast();\r\n    }\r\n\r\n    function sortedCDPsGetNext(address user) public view returns (address) {\r\n        return sortedCDPs.getNext(user);\r\n    }\r\n\r\n    function sortedCDPsGetPrev(address user) public view returns (address) {\r\n        return sortedCDPs.getPrev(user);\r\n    }\r\n\r\n    // ---\r\n\r\n    // Returns the new collateral ratio considering the debt and/or collateral that should be added or removed \r\n    function getNewCollRatio(address _debtor, uint _debt_change, uint _coll_change) \r\n        view \r\n        internal \r\n        returns (uint) \r\n    {\r\n        uint newColl = CDPs[_debtor].coll + _coll_change;\r\n        uint newDebt = CDPs[_debtor].debt + _debt_change;\r\n        uint price = priceFeed.getPrice();\r\n        // Check if the total debt is higher than 0 to avoid division by 0\r\n        if (newDebt > 0) {\r\n            return (newColl * price / newDebt);\r\n        }\r\n        // Return the maximal value for uint256 if the CDP has a debt of 0\r\n        else {\r\n            return 2**256-1; \r\n        }\r\n    }\r\n    \r\n    // Returns the current collateral ratio of a specified CDP\r\n    function getCollRatio(address _debtor) \r\n        public\r\n        view \r\n        returns (uint) \r\n    {\r\n        return getNewCollRatio(_debtor, 0, 0);\r\n    }\r\n    \r\n    // Create a new CDP\r\n    function userCreateCDP() \r\n        public\r\n        returns (bool) \r\n    {\r\n        address user = _msgSender();\r\n        createCDP(user);\r\n\r\n        return true;\r\n    }\r\n\r\n    function createCDP(address _account) \r\n        internal \r\n        returns (bool) \r\n    {\r\n        require(CDPs[_account].status == Status.inexistent, \"CDPManager: CDP already exists\");\r\n        CDPs[_account].status = Status.newBorn; \r\n        CDPs[_account].ICR = getCollRatio(_account);\r\n\r\n        return true;\r\n    }\r\n    \r\n    // Pay a given number of ETH (msg.value) as collateral to a CDP \r\n    function addColl() \r\n        public \r\n        payable \r\n        returns (bool) \r\n    {\r\n        address user = _msgSender();\r\n        bool isFirstCollDeposit = false;\r\n        // Potential issue with using _msgSender() as the key in the CDPs map: Users may not be able interact via other contracts since the \r\n        // _msgSender() would then be the contract rather than the transacting user. Beware of tx.origin.\r\n        require(CDPs[user].status != Status.closed, \"CDPManager: CDP is closed\");\r\n        \r\n        if (CDPs[user].status == Status.inexistent) {\r\n            createCDP(user);\r\n            isFirstCollDeposit = true; \r\n        } else if (CDPs[user].status == Status.newBorn) {\r\n            isFirstCollDeposit = true;\r\n        }\r\n            \r\n        CDPs[user].status = Status.active;\r\n       \r\n        // Add the received collateral to the CDP and calculate the new collateral ratio\r\n        CDPs[user].coll += msg.value;\r\n\r\n        // Send the received collateral to PoolManager, to forward to ActivePool\r\n        poolManager.addColl.value(msg.value)();\r\n\r\n        // get user's ICR\r\n        uint newICR = getCollRatio(user);\r\n\r\n        // update the ICR in the CDP mapping\r\n        CDPs[user].ICR = newICR;\r\n\r\n        // Insert or update the ICR  in sortedCDPs\r\n        if (isFirstCollDeposit) {\r\n            sortedCDPs.insert(user, newICR, user, user);\r\n        } else {\r\n            sortedCDPs.updateKey(user, newICR, user, user);\r\n        }\r\n        \r\n        return true;\r\n    }\r\n    /* --- MockAddCDP - DELETE AFTER CDP FUNCTIONALITY IMPLEMENTED --- *\r\n    * temporary function, used by CLVToken test suite to easily add CDPs.\r\n    Later, replace with full CDP creation process.\r\n    */\r\n    function mockAddCDP() public returns(bool) {\r\n        CDP memory cdp;\r\n        cdp.coll = 10e18;\r\n        cdp.debt = 0;\r\n        cdp.status = Status.active;\r\n\r\n        CDPs[_msgSender()] = cdp;\r\n    }\r\n    \r\n    // Withdraw ETH collateral from a CDP\r\n    // TODO: Check re-entrancy protection\r\n    function withdrawColl(uint _amount) \r\n        public \r\n        returns (bool) \r\n    {\r\n        address payable user = _msgSender();\r\n        uint newICR = getNewCollRatio(user, 0, -_amount);\r\n\r\n        require(CDPs[user].status == Status.active, \"CDPManager: CDP does not exist or is closed\");\r\n        require(CDPs[user].coll >= _amount, \"CDPManager: Insufficient balance for ETH withdrawal\");\r\n        require(newICR >= MCR, \"CDPManager: Insufficient collateral ratio for ETH withdrawal\");\r\n        \r\n        // Reduce the ETH collateral by _amount\r\n        CDPs[user].coll -= _amount;\r\n\r\n        // update the ICR in the CDP mapping\r\n        CDPs[user].ICR = newICR;\r\n\r\n        // Update ICR in sortedCDPs\r\n        sortedCDPs.updateKey(user, newICR, user, user);\r\n        \r\n        // Remove _amount ETH from ActivePool and send it to the user\r\n        poolManager.withdrawColl(user, _amount);\r\n        \r\n        return true;\r\n    }\r\n    \r\n    // Withdraw CLV tokens from a CDP: Mint new CLV and increase the debt accordingly\r\n    function withdrawCLV(uint _amount) \r\n        public \r\n        returns (bool) \r\n    {\r\n        address user = _msgSender();\r\n        uint newICR = getNewCollRatio(user, _amount, 0);\r\n\r\n        require(CDPs[user].status == Status.active, \"CDPManager: CDP does not exist or is closed\");\r\n        require(_amount > 0, \"CDPManager: Amount to withdraw must be larger than 0\");\r\n        require(newICR >= MCR, \"Insufficient collateral ratio for CLV withdrawal\");\r\n        \r\n        // Increase the debt by the withdrawn amount of CLV\r\n        CDPs[user].debt += _amount;\r\n\r\n        // update the ICR in the CDP mapping\r\n        CDPs[user].ICR = newICR;\r\n\r\n        // Mint the given amount of CLV, add them to the ActivePool and send them to CDP owner's address \r\n        poolManager.withdrawCLV(user, _amount);\r\n        \r\n        // Update entry in sortedCDPs\r\n        sortedCDPs.updateKey(user, newICR, user, user);\r\n        \r\n        return true; \r\n    }\r\n    \r\n    // Repay CLV tokens to a CDP: Burn the repaid CLV tokens and reduce the debt accordingly\r\n    function repayCLV(uint _amount) \r\n        public \r\n        returns (bool) \r\n    {\r\n        address user = _msgSender();\r\n\r\n        require(CDPs[user].status == Status.active, \"CDPManager: CDP does not exist or is closed\");\r\n        require(_amount > 0, \"CDPManager: Repaid amount must be larger than 0\");\r\n        require(_amount <= CDPs[user].debt, \"CDPManager: Repaid amount is larger than current debt\");\r\n        require(CLV.balanceOf(user) >= _amount, \"CDPManager: Sender has insufficient CLV balance\");\r\n        // TODO: Maybe allow foreign accounts to repay loans\r\n        \r\n        // Reduce the debt and calculate the new collateral ratio\r\n        CDPs[user].debt -= _amount;\r\n\r\n        uint newICR = getCollRatio(user);\r\n        \r\n        // Burn the received amount of CLV and remove them from the ActivePool\r\n        poolManager.repayCLV(user, _amount);\r\n\r\n        // Update entry in sortedCDPs\r\n        sortedCDPs.updateKey(user, newICR, user, user);\r\n        \r\n        return true;\r\n    }\r\n\r\n    // Closes the CDP of the speficied _debtor if its individual collateral ratio is lower than the minimum collateral ratio.\r\n    // TODO: This function should eventually be internal and only be called by closeCDPs(...). \r\n    function close(address _debtor) \r\n        public \r\n        returns (bool) \r\n    {\r\n        require(CDPs[_debtor].status == Status.active, \"CDPManager: CDP does not exist or is already closed\");\r\n        require(getCollRatio(_debtor) < MCR, \"CDPManager: CDP not undercollateralized\");\r\n        \r\n        // Offset as much debt & collateral as possible against the StabilityPool and save the returned remainders\r\n        uint[2] memory remainder = poolManager.offset(CDPs[_debtor].debt, CDPs[_debtor].coll);\r\n        if (remainder[0] > 0) {\r\n            // If the debt could not be offset entirely, transfer the remaining debt & collateral from Active Pool to Default Pool \r\n            // Note: remainder[0] = remaining debt; remainder[1] = remaining collateral;\r\n            poolManager.close(remainder[0], remainder[1]);\r\n        }\r\n        \r\n        // Close the CDP\r\n        CDPs[_debtor].status = Status.closed;\r\n        \r\n        // Remove CDP from sortedCDPs\r\n        sortedCDPs.remove(_debtor);\r\n        \r\n        return true;\r\n    }\r\n     \r\n    \r\n    // Closes a maximum number of n multiple undercollateralized CPDs, starting from the one with the lowest collateral ratio\r\n    // Caller: anybody \r\n    // TODO: Should probably be synchronized with PriceFeed and called every time the price is updated\r\n    function closeCDPs(uint n)\r\n        public\r\n        returns (bool)\r\n    {    \r\n        uint i;\r\n        while (i < n) {\r\n            address currentCDP = sortedCDPs.getLast();\r\n            uint collRatio = getCollRatio(currentCDP);\r\n            \r\n            // Close CDPs if it is undercollateralized\r\n            if (collRatio < MCR) {\r\n                close(currentCDP);\r\n            } else break;\r\n            \r\n            // Break loop if you reach the first CDP in the sorted list \r\n            // Check if issue with changing list position\r\n            if (currentCDP == sortedCDPs.getFirst()) \r\n                break;\r\n            \r\n            i++;\r\n        }       \r\n        return true;\r\n     }\r\n            \r\n            \r\n    // The specified _debtor obtains the given debt share and the corresponding collateral share from the default pool   \r\n    // Caller: anybody\r\n    \r\n    // TODO: Implement some more sophisticated logic that for example only allows the public to assign a debt & coll share\r\n    // to any CDP if the Default Pool is indebted (i.e. its collateral ratio is < 100%). Otherwise, only the owner of a CDP\r\n    // should be able to obtain a default share for himself. In this case, maybe impose more limits as described in the\r\n    // slide deck. Optimally, we could get rid of this mechanism alltogether and distribute undercollateralized loans that\r\n    // could not be offset against the Stability Pool in proportion to some excess collateral above a given threshold.\r\n    function obtainDefaultShare(address _user, uint _debtShare) \r\n        public \r\n        returns (bool) \r\n    {\r\n        uint closedDebt = poolManager.getClosedDebt();\r\n        uint closedColl = poolManager.getClosedColl();\r\n        uint TCR = poolManager.getTCR();\r\n        uint collShare = (_debtShare * closedColl) / closedDebt; // Calculate collateral share coll from _debt\r\n        uint newICR = getNewCollRatio(_user, _debtShare, collShare);\r\n        \r\n        require(CDPs[_user].status == Status.active, \"CDPManager: Recipient must own an active CDP\");\r\n        require(_debtShare <= closedDebt, \"CDPManager: Debt in the default pool smaller than the specified debt share\");\r\n        require(newICR > TCR - (TCR / MAX_DRAWDOWN), \"CDPManager: Collateral ratio would be drawn below maximum drawdown\");\r\n        // Add debt & coll share to the CDP and to the total and remove them from the default pool\r\n        CDPs[_user].debt += _debtShare;\r\n        CDPs[_user].coll += collShare;\r\n        \r\n        poolManager.obtainDefaultShare(_debtShare, collShare);\r\n        \r\n        return true;\r\n    }\r\n    \r\n    // Returns the lower value from two given integers\r\n    function getMin(uint a, uint b) \r\n        internal\r\n        pure\r\n        returns (uint)\r\n    {\r\n        if (a <= b) return a;\r\n        else return b;\r\n    }    \r\n    \r\n    // Sends _amount CLV to the system and redeems the corresponding amount of collateral from as many CDPs as are needed to fill the redemption\r\n    // request. Note that if _amount is very large, this function can run out of gas. This can be easily avoided by splitting the total _amount\r\n    // in appropriate chunks and calling the function multiple times.\r\n    \r\n    // TODO: Maybe also use the default pool for redemptions\r\n    // TODO: Levy a redemption fee (and maybe also impose a rate limit on redemptions)\r\n    function redeemCollateral(uint _amount) \r\n        public\r\n        returns (bool)\r\n    {\r\n        address payable user = _msgSender();\r\n        require(CLV.balanceOf(user) >= _amount, \"CDPManager: Sender has insufficient balance\");\r\n        uint redeemed;\r\n\r\n        // Loop through the CDPs starting from the one with lowest collateral ratio until _amount of CLV is exchanged for collateral\r\n        while (redeemed < _amount) {\r\n\r\n            address currentCDP = sortedCDPs.getLast();\r\n            uint collRatio = getCollRatio(currentCDP);\r\n            uint price = priceFeed.getPrice();\r\n            uint activeDebt = poolManager.getActiveDebt();\r\n            \r\n            // Close CDPs along the way that turn out to be undercollateralized\r\n            if (collRatio < MCR) {\r\n                close(currentCDP);\r\n            }\r\n            else {\r\n                // Determine the remaining amount (lot) to be redeemed, capped by the entire debt of the current CDP \r\n                uint lot = getMin(_amount - redeemed, CDPs[currentCDP].debt);\r\n                    \r\n                // Decrease the debt and collateral of the current CDP according to the lot\r\n                CDPs[currentCDP].debt -= lot;\r\n                CDPs[currentCDP].coll -= (lot * DIGITS) / price;\r\n                uint newCollRatio = getCollRatio(currentCDP);\r\n\r\n                // Burn the calculated lot of CLV and send the corresponding ETH to _msgSender()\r\n                poolManager.redeemCollateral(user, lot, (lot * DIGITS) / price);\r\n\r\n                // Break the loop if there is no more active debt to redeem \r\n                if (activeDebt == 0) break;    \r\n                \r\n\r\n                // Update the sortedCDPs list and the redeemed amount\r\n                sortedCDPs.updateKey(currentCDP, newCollRatio, user, user); \r\n                \r\n                redeemed += lot;   \r\n            }\r\n        }\r\n    }    \r\n}",
  "sourcePath": "C:/Users/Administrator/Desktop/Cleverage/contracts/CDPManager.sol",
  "compiler": {
    "name": "solc",
    "version": "0.5.12+commit.7709ece9.Emscripten.clang"
  },
  "schemaVersion": "3.0.19",
  "updatedAt": "2019-12-10T20:45:08.752Z",
  "devdoc": {
    "methods": {
      "isOwner()": {
        "details": "Returns true if the caller is the current owner."
      },
      "owner()": {
        "details": "Returns the address of the current owner."
      },
      "renounceOwnership()": {
        "details": "Leaves the contract without owner. It will not be possible to call `onlyOwner` functions anymore. Can only be called by the current owner.     * NOTE: Renouncing ownership will leave the contract without an owner, thereby removing any functionality that is only available to the owner."
      },
      "transferOwnership(address)": {
        "details": "Transfers ownership of the contract to a new account (`newOwner`). Can only be called by the current owner."
      }
    }
  },
  "userdoc": {
    "methods": {}
  }
}