{
  "contractName": "CDPManager",
  "abi": [
    {
      "constant": true,
      "inputs": [],
      "name": "name",
      "outputs": [
        {
          "internalType": "string",
          "name": "",
          "type": "string"
        }
      ],
      "payable": false,
      "stateMutability": "view",
      "type": "function"
    },
    {
      "constant": true,
      "inputs": [
        {
          "internalType": "address",
          "name": "",
          "type": "address"
        }
      ],
      "name": "CDPs",
      "outputs": [
        {
          "internalType": "uint256",
          "name": "debt",
          "type": "uint256"
        },
        {
          "internalType": "uint256",
          "name": "coll",
          "type": "uint256"
        },
        {
          "internalType": "uint256",
          "name": "ICR",
          "type": "uint256"
        },
        {
          "internalType": "enum CDPManager.Status",
          "name": "status",
          "type": "uint8"
        }
      ],
      "payable": false,
      "stateMutability": "view",
      "type": "function"
    },
    {
      "constant": false,
      "inputs": [],
      "name": "renounceOwnership",
      "outputs": [],
      "payable": false,
      "stateMutability": "nonpayable",
      "type": "function"
    },
    {
      "constant": true,
      "inputs": [],
      "name": "owner",
      "outputs": [
        {
          "internalType": "address",
          "name": "",
          "type": "address"
        }
      ],
      "payable": false,
      "stateMutability": "view",
      "type": "function"
    },
    {
      "constant": true,
      "inputs": [],
      "name": "isOwner",
      "outputs": [
        {
          "internalType": "bool",
          "name": "",
          "type": "bool"
        }
      ],
      "payable": false,
      "stateMutability": "view",
      "type": "function"
    },
    {
      "constant": true,
      "inputs": [],
      "name": "clvTokenAddress",
      "outputs": [
        {
          "internalType": "address",
          "name": "",
          "type": "address"
        }
      ],
      "payable": false,
      "stateMutability": "view",
      "type": "function"
    },
    {
      "constant": true,
      "inputs": [],
      "name": "sortedCDPs",
      "outputs": [
        {
          "internalType": "address",
          "name": "head",
          "type": "address"
        },
        {
          "internalType": "address",
          "name": "tail",
          "type": "address"
        },
        {
          "internalType": "uint256",
          "name": "maxSize",
          "type": "uint256"
        },
        {
          "internalType": "uint256",
          "name": "size",
          "type": "uint256"
        }
      ],
      "payable": false,
      "stateMutability": "view",
      "type": "function"
    },
    {
      "constant": true,
      "inputs": [],
      "name": "priceFeedAddress",
      "outputs": [
        {
          "internalType": "address",
          "name": "",
          "type": "address"
        }
      ],
      "payable": false,
      "stateMutability": "view",
      "type": "function"
    },
    {
      "constant": true,
      "inputs": [],
      "name": "poolManagerAddress",
      "outputs": [
        {
          "internalType": "address",
          "name": "",
          "type": "address"
        }
      ],
      "payable": false,
      "stateMutability": "view",
      "type": "function"
    },
    {
      "constant": false,
      "inputs": [
        {
          "internalType": "address",
          "name": "newOwner",
          "type": "address"
        }
      ],
      "name": "transferOwnership",
      "outputs": [],
      "payable": false,
      "stateMutability": "nonpayable",
      "type": "function"
    },
    {
      "inputs": [],
      "payable": true,
      "stateMutability": "payable",
      "type": "constructor"
    },
    {
      "anonymous": false,
      "inputs": [
        {
          "indexed": false,
          "internalType": "address",
          "name": "_newPoolManagerAddress",
          "type": "address"
        }
      ],
      "name": "PoolManagerAddressChanged",
      "type": "event"
    },
    {
      "anonymous": false,
      "inputs": [
        {
          "indexed": false,
          "internalType": "address",
          "name": "_newPriceFeedAddress",
          "type": "address"
        }
      ],
      "name": "PriceFeedAddressChanged",
      "type": "event"
    },
    {
      "anonymous": false,
      "inputs": [
        {
          "indexed": false,
          "internalType": "address",
          "name": "_newCLVTokenAddress",
          "type": "address"
        }
      ],
      "name": "CLVTokenAddressChanged",
      "type": "event"
    },
    {
      "anonymous": false,
      "inputs": [
        {
          "indexed": false,
          "internalType": "address",
          "name": "_user",
          "type": "address"
        }
      ],
      "name": "CDPCreated",
      "type": "event"
    },
    {
      "anonymous": false,
      "inputs": [
        {
          "indexed": false,
          "internalType": "address",
          "name": "_user",
          "type": "address"
        },
        {
          "indexed": false,
          "internalType": "uint256",
          "name": "_debt",
          "type": "uint256"
        },
        {
          "indexed": false,
          "internalType": "uint256",
          "name": "_coll",
          "type": "uint256"
        },
        {
          "indexed": false,
          "internalType": "uint256",
          "name": "ICR",
          "type": "uint256"
        }
      ],
      "name": "CDPUpdated",
      "type": "event"
    },
    {
      "anonymous": false,
      "inputs": [
        {
          "indexed": false,
          "internalType": "address",
          "name": "_user",
          "type": "address"
        }
      ],
      "name": "CDPClosed",
      "type": "event"
    },
    {
      "anonymous": false,
      "inputs": [
        {
          "indexed": false,
          "internalType": "address",
          "name": "_user",
          "type": "address"
        },
        {
          "indexed": false,
          "internalType": "uint256",
          "name": "_amountAdded",
          "type": "uint256"
        }
      ],
      "name": "CollateralAdded",
      "type": "event"
    },
    {
      "anonymous": false,
      "inputs": [
        {
          "indexed": false,
          "internalType": "address",
          "name": "_user",
          "type": "address"
        },
        {
          "indexed": false,
          "internalType": "uint256",
          "name": "_amountWithdrawn",
          "type": "uint256"
        }
      ],
      "name": "CollateralWithdrawn",
      "type": "event"
    },
    {
      "anonymous": false,
      "inputs": [
        {
          "indexed": false,
          "internalType": "address",
          "name": "_user",
          "type": "address"
        },
        {
          "indexed": false,
          "internalType": "uint256",
          "name": "_amountWithdrawn",
          "type": "uint256"
        }
      ],
      "name": "CLVWithdrawn",
      "type": "event"
    },
    {
      "anonymous": false,
      "inputs": [
        {
          "indexed": false,
          "internalType": "address",
          "name": "_user",
          "type": "address"
        },
        {
          "indexed": false,
          "internalType": "uint256",
          "name": "_amountRepayed",
          "type": "uint256"
        }
      ],
      "name": "CLVRepayed",
      "type": "event"
    },
    {
      "anonymous": false,
      "inputs": [
        {
          "indexed": false,
          "internalType": "address",
          "name": "_user",
          "type": "address"
        },
        {
          "indexed": false,
          "internalType": "uint256",
          "name": "redeemedAmount",
          "type": "uint256"
        }
      ],
      "name": "CollateralRedeemed",
      "type": "event"
    },
    {
      "anonymous": false,
      "inputs": [
        {
          "indexed": true,
          "internalType": "address",
          "name": "previousOwner",
          "type": "address"
        },
        {
          "indexed": true,
          "internalType": "address",
          "name": "newOwner",
          "type": "address"
        }
      ],
      "name": "OwnershipTransferred",
      "type": "event"
    },
    {
      "constant": false,
      "inputs": [
        {
          "internalType": "address",
          "name": "_poolManagerAddress",
          "type": "address"
        }
      ],
      "name": "setPoolManager",
      "outputs": [],
      "payable": false,
      "stateMutability": "nonpayable",
      "type": "function"
    },
    {
      "constant": false,
      "inputs": [
        {
          "internalType": "address",
          "name": "_priceFeedAddress",
          "type": "address"
        }
      ],
      "name": "setPriceFeed",
      "outputs": [],
      "payable": false,
      "stateMutability": "nonpayable",
      "type": "function"
    },
    {
      "constant": false,
      "inputs": [
        {
          "internalType": "address",
          "name": "_clvTokenAddress",
          "type": "address"
        }
      ],
      "name": "setCLVToken",
      "outputs": [],
      "payable": false,
      "stateMutability": "nonpayable",
      "type": "function"
    },
    {
      "constant": true,
      "inputs": [],
      "name": "getMCR",
      "outputs": [
        {
          "internalType": "uint256",
          "name": "",
          "type": "uint256"
        }
      ],
      "payable": false,
      "stateMutability": "pure",
      "type": "function"
    },
    {
      "constant": true,
      "inputs": [
        {
          "internalType": "uint256",
          "name": "x",
          "type": "uint256"
        },
        {
          "internalType": "uint256",
          "name": "y",
          "type": "uint256"
        },
        {
          "internalType": "uint256",
          "name": "z",
          "type": "uint256"
        }
      ],
      "name": "getAccurateMulDiv",
      "outputs": [
        {
          "internalType": "uint256",
          "name": "",
          "type": "uint256"
        }
      ],
      "payable": false,
      "stateMutability": "pure",
      "type": "function"
    },
    {
      "constant": true,
      "inputs": [
        {
          "internalType": "address",
          "name": "_user",
          "type": "address"
        }
      ],
      "name": "hasActiveCDP",
      "outputs": [
        {
          "internalType": "bool",
          "name": "",
          "type": "bool"
        }
      ],
      "payable": false,
      "stateMutability": "view",
      "type": "function"
    },
    {
      "constant": true,
      "inputs": [
        {
          "internalType": "address",
          "name": "id",
          "type": "address"
        }
      ],
      "name": "sortedCDPsContains",
      "outputs": [
        {
          "internalType": "bool",
          "name": "",
          "type": "bool"
        }
      ],
      "payable": false,
      "stateMutability": "view",
      "type": "function"
    },
    {
      "constant": true,
      "inputs": [],
      "name": "sortedCDPsIsEmpty",
      "outputs": [
        {
          "internalType": "bool",
          "name": "",
          "type": "bool"
        }
      ],
      "payable": false,
      "stateMutability": "view",
      "type": "function"
    },
    {
      "constant": true,
      "inputs": [],
      "name": "sortedCDPsIsFull",
      "outputs": [
        {
          "internalType": "bool",
          "name": "",
          "type": "bool"
        }
      ],
      "payable": false,
      "stateMutability": "view",
      "type": "function"
    },
    {
      "constant": true,
      "inputs": [],
      "name": "sortedCDPsgetSize",
      "outputs": [
        {
          "internalType": "uint256",
          "name": "",
          "type": "uint256"
        }
      ],
      "payable": false,
      "stateMutability": "view",
      "type": "function"
    },
    {
      "constant": true,
      "inputs": [],
      "name": "sortedCDPsGetMaxSize",
      "outputs": [
        {
          "internalType": "uint256",
          "name": "",
          "type": "uint256"
        }
      ],
      "payable": false,
      "stateMutability": "view",
      "type": "function"
    },
    {
      "constant": true,
      "inputs": [
        {
          "internalType": "address",
          "name": "user",
          "type": "address"
        }
      ],
      "name": "sortedCDPsGetKey",
      "outputs": [
        {
          "internalType": "uint256",
          "name": "",
          "type": "uint256"
        }
      ],
      "payable": false,
      "stateMutability": "view",
      "type": "function"
    },
    {
      "constant": true,
      "inputs": [],
      "name": "sortedCDPsGetFirst",
      "outputs": [
        {
          "internalType": "address",
          "name": "",
          "type": "address"
        }
      ],
      "payable": false,
      "stateMutability": "view",
      "type": "function"
    },
    {
      "constant": true,
      "inputs": [],
      "name": "sortedCDPsGetLast",
      "outputs": [
        {
          "internalType": "address",
          "name": "",
          "type": "address"
        }
      ],
      "payable": false,
      "stateMutability": "view",
      "type": "function"
    },
    {
      "constant": true,
      "inputs": [
        {
          "internalType": "address",
          "name": "user",
          "type": "address"
        }
      ],
      "name": "sortedCDPsGetNext",
      "outputs": [
        {
          "internalType": "address",
          "name": "",
          "type": "address"
        }
      ],
      "payable": false,
      "stateMutability": "view",
      "type": "function"
    },
    {
      "constant": true,
      "inputs": [
        {
          "internalType": "address",
          "name": "user",
          "type": "address"
        }
      ],
      "name": "sortedCDPsGetPrev",
      "outputs": [
        {
          "internalType": "address",
          "name": "",
          "type": "address"
        }
      ],
      "payable": false,
      "stateMutability": "view",
      "type": "function"
    },
    {
      "constant": true,
      "inputs": [
        {
          "internalType": "address",
          "name": "_debtor",
          "type": "address"
        }
      ],
      "name": "getCollRatio",
      "outputs": [
        {
          "internalType": "uint256",
          "name": "",
          "type": "uint256"
        }
      ],
      "payable": false,
      "stateMutability": "view",
      "type": "function"
    },
    {
      "constant": false,
      "inputs": [],
      "name": "userCreateCDP",
      "outputs": [
        {
          "internalType": "bool",
          "name": "",
          "type": "bool"
        }
      ],
      "payable": false,
      "stateMutability": "nonpayable",
      "type": "function"
    },
    {
      "constant": false,
      "inputs": [],
      "name": "addColl",
      "outputs": [
        {
          "internalType": "bool",
          "name": "",
          "type": "bool"
        }
      ],
      "payable": true,
      "stateMutability": "payable",
      "type": "function"
    },
    {
      "constant": false,
      "inputs": [],
      "name": "mockAddCDP",
      "outputs": [
        {
          "internalType": "bool",
          "name": "",
          "type": "bool"
        }
      ],
      "payable": false,
      "stateMutability": "nonpayable",
      "type": "function"
    },
    {
      "constant": false,
      "inputs": [
        {
          "internalType": "address",
          "name": "_user",
          "type": "address"
        },
        {
          "internalType": "uint256",
          "name": "ETHShare",
          "type": "uint256"
        }
      ],
      "name": "sendETHGainToCDP",
      "outputs": [
        {
          "internalType": "bool",
          "name": "",
          "type": "bool"
        }
      ],
      "payable": false,
      "stateMutability": "nonpayable",
      "type": "function"
    },
    {
      "constant": false,
      "inputs": [
        {
          "internalType": "uint256",
          "name": "_amount",
          "type": "uint256"
        }
      ],
      "name": "withdrawColl",
      "outputs": [
        {
          "internalType": "bool",
          "name": "",
          "type": "bool"
        }
      ],
      "payable": false,
      "stateMutability": "nonpayable",
      "type": "function"
    },
    {
      "constant": false,
      "inputs": [
        {
          "internalType": "uint256",
          "name": "_amount",
          "type": "uint256"
        }
      ],
      "name": "withdrawCLV",
      "outputs": [
        {
          "internalType": "bool",
          "name": "",
          "type": "bool"
        }
      ],
      "payable": false,
      "stateMutability": "nonpayable",
      "type": "function"
    },
    {
      "constant": false,
      "inputs": [
        {
          "internalType": "uint256",
          "name": "_amount",
          "type": "uint256"
        }
      ],
      "name": "repayCLV",
      "outputs": [
        {
          "internalType": "bool",
          "name": "",
          "type": "bool"
        }
      ],
      "payable": false,
      "stateMutability": "nonpayable",
      "type": "function"
    },
    {
      "constant": false,
      "inputs": [
        {
          "internalType": "address",
          "name": "_debtor",
          "type": "address"
        }
      ],
      "name": "close",
      "outputs": [
        {
          "internalType": "bool",
          "name": "",
          "type": "bool"
        }
      ],
      "payable": false,
      "stateMutability": "nonpayable",
      "type": "function"
    },
    {
      "constant": false,
      "inputs": [
        {
          "internalType": "uint256",
          "name": "n",
          "type": "uint256"
        }
      ],
      "name": "closeCDPs",
      "outputs": [
        {
          "internalType": "bool",
          "name": "",
          "type": "bool"
        }
      ],
      "payable": false,
      "stateMutability": "nonpayable",
      "type": "function"
    },
    {
      "constant": false,
      "inputs": [
        {
          "internalType": "address",
          "name": "_user",
          "type": "address"
        },
        {
          "internalType": "uint256",
          "name": "_debtShare",
          "type": "uint256"
        }
      ],
      "name": "obtainDefaultShare",
      "outputs": [
        {
          "internalType": "bool",
          "name": "",
          "type": "bool"
        }
      ],
      "payable": false,
      "stateMutability": "nonpayable",
      "type": "function"
    },
    {
      "constant": false,
      "inputs": [
        {
          "internalType": "uint256",
          "name": "_amount",
          "type": "uint256"
        }
      ],
      "name": "redeemCollateral",
      "outputs": [
        {
          "internalType": "bool",
          "name": "",
          "type": "bool"
        }
      ],
      "payable": false,
      "stateMutability": "nonpayable",
      "type": "function"
    }
  ],
  "bytecode": "0x6080604052620000176001600160e01b03620000f316565b600080546001600160a01b0319166001600160a01b03928316178082556040519216917f8be0079c531659141344cd1fd0a4f28419497f9722a3daafe3b4186f6b6457e0908290a3604080517fa176adaf00000000000000000000000000000000000000000000000000000000815260096004820152620f42406024820152905173__SortedDoublyLL________________________9163a176adaf916044808301926000929190829003018186803b158015620000d457600080fd5b505af4158015620000e9573d6000803e3d6000fd5b50505050620000f7565b3390565b613cad80620001076000396000f3fe6080604052600436106102855760003560e01c80638da5cb5b11610153578063c6b71a20116100cb578063e6a13f301161007f578063f0dba07f11610064578063f0dba07f1461087e578063f2fde38b14610893578063fefb4c58146108c657610285565b8063e6a13f3014610833578063efb028c31461084857610285565b8063cebfa630116100b0578063cebfa630146107df578063e0abca0b14610809578063e3bfc0881461081e57610285565b8063c6b71a2014610773578063c74073a1146107ac57610285565b80639e1d6c7811610122578063b857ce5411610107578063b857ce54146106cf578063bd37b77514610702578063beab5d2f1461072c57610285565b80639e1d6c7814610687578063b2ceb6161461069c57610285565b80638da5cb5b146105f15780638f32d59b14610606578063909a907f1461061b578063947be26a1461065457610285565b80634fa93e6611610201578063724e78da116101b55780637aef67151161019a5780637aef67151461059457806382680b18146105c757806382cac7df146105dc57610285565b8063724e78da146105375780637a5d5fb71461056a57610285565b806366351a4f116101e657806366351a4f146104d85780636840b9aa146104ed578063715018a61461052057610285565b80634fa93e66146104575780635e2429d9146104c357610285565b806325a2e6e7116102585780633bb104de1161023d5780633bb104de146103e557806344936b10146104185780634f60919b1461042d57610285565b806325a2e6e7146103b35780632f1aa895146103bb57610285565b806306fdde031461028a578063168ea0fb14610314578063232b5db414610345578063244beeff1461036c575b600080fd5b34801561029657600080fd5b5061029f6108f9565b6040805160208082528351818301528351919283929083019185019080838360005b838110156102d95781810151838201526020016102c1565b50505050905090810190601f1680156103065780820380516001836020036101000a031916815260200191505b509250505060405180910390f35b34801561032057600080fd5b50610329610986565b604080516001600160a01b039092168252519081900360200190f35b34801561035157600080fd5b5061035a610a0b565b60408051918252519081900360200190f35b34801561037857600080fd5b5061039f6004803603602081101561038f57600080fd5b50356001600160a01b0316610a5f565b604080519115158252519081900360200190f35b61039f610aa5565b3480156103c757600080fd5b5061039f600480360360208110156103de57600080fd5b5035610ea7565b3480156103f157600080fd5b506103296004803603602081101561040857600080fd5b50356001600160a01b031661102c565b34801561042457600080fd5b5061035a6110dc565b34801561043957600080fd5b5061039f6004803603602081101561045057600080fd5b50356110e8565b34801561046357600080fd5b5061048a6004803603602081101561047a57600080fd5b50356001600160a01b0316611414565b604051808581526020018481526020018381526020018260038111156104ac57fe5b60ff16815260200194505050505060405180910390f35b3480156104cf57600080fd5b5061039f61143e565b3480156104e457600080fd5b5061039f611492565b3480156104f957600080fd5b5061035a6004803603602081101561051057600080fd5b50356001600160a01b03166114b1565b34801561052c57600080fd5b506105356114c5565b005b34801561054357600080fd5b506105356004803603602081101561055a57600080fd5b50356001600160a01b0316611568565b34801561057657600080fd5b5061039f6004803603602081101561058d57600080fd5b5035611628565b3480156105a057600080fd5b50610535600480360360208110156105b757600080fd5b50356001600160a01b0316611977565b3480156105d357600080fd5b5061039f611a2f565b3480156105e857600080fd5b5061039f611ace565b3480156105fd57600080fd5b50610329611b22565b34801561061257600080fd5b5061039f611b31565b34801561062757600080fd5b5061039f6004803603604081101561063e57600080fd5b506001600160a01b038135169060200135611b55565b34801561066057600080fd5b5061035a6004803603602081101561067757600080fd5b50356001600160a01b0316611ddb565b34801561069357600080fd5b50610329611e59565b3480156106a857600080fd5b50610329600480360360208110156106bf57600080fd5b50356001600160a01b0316611e68565b3480156106db57600080fd5b5061039f600480360360208110156106f257600080fd5b50356001600160a01b0316611ee6565b34801561070e57600080fd5b5061039f6004803603602081101561072557600080fd5b5035611f64565b34801561073857600080fd5b50610741612595565b604080516001600160a01b03958616815293909416602084015282840191909152606082015290519081900360800190f35b34801561077f57600080fd5b5061039f6004803603604081101561079657600080fd5b506001600160a01b0381351690602001356125b4565b3480156107b857600080fd5b5061039f600480360360208110156107cf57600080fd5b50356001600160a01b0316612a5c565b3480156107eb57600080fd5b5061039f6004803603602081101561080257600080fd5b5035612d77565b34801561081557600080fd5b50610329613186565b34801561082a57600080fd5b5061035a613195565b34801561083f57600080fd5b506103296131e9565b34801561085457600080fd5b5061035a6004803603606081101561086b57600080fd5b50803590602081013590604001356131f8565b34801561088a57600080fd5b5061032961328f565b34801561089f57600080fd5b50610535600480360360208110156108b657600080fd5b50356001600160a01b03166132e3565b3480156108d257600080fd5b50610535600480360360208110156108e957600080fd5b50356001600160a01b0316613348565b60018054604080516020600284861615610100026000190190941693909304601f8101849004840282018401909252818152929183018282801561097e5780601f106109535761010080835404028352916020019161097e565b820191906000526020600020905b81548152906001019060200180831161096157829003601f168201915b505050505081565b6000600973__SortedDoublyLL________________________6372e40b2690916040518263ffffffff1660e01b81526004018082815260200191505060206040518083038186803b1580156109da57600080fd5b505af41580156109ee573d6000803e3d6000fd5b505050506040513d6020811015610a0457600080fd5b5051905090565b6000600973__SortedDoublyLL________________________63735bc2ca90916040518263ffffffff1660e01b81526004018082815260200191505060206040518083038186803b1580156109da57600080fd5b600060026001600160a01b038316600090815260086020526040902060039081015460ff1690811115610a8e57fe5b1415610a9c57506001610aa0565b5060005b919050565b600080610ab0613400565b9050600060036001600160a01b038316600090815260086020526040902060039081015460ff1690811115610ae157fe5b1415610b34576040805162461bcd60e51b815260206004820152601960248201527f4344504d616e616765723a2043445020697320636c6f73656400000000000000604482015290519081900360640190fd5b6001600160a01b038216600090815260086020526040812060039081015460ff1690811115610b5f57fe5b1415610b7857610b6e82613404565b5060019050610baf565b60016001600160a01b038316600090815260086020526040902060039081015460ff1690811115610ba557fe5b1415610baf575060015b6001600160a01b038216600090815260086020526040902060038101805460ff1916600217905560010154610be4903461350f565b6001600160a01b038084166000908152600860209081526040918290206001019390935560025481517f25a2e6e700000000000000000000000000000000000000000000000000000000815291519216926325a2e6e7923492600480820193929182900301818588803b158015610c5a57600080fd5b505af1158015610c6e573d6000803e3d6000fd5b50505050506040513d6020811015610c8557600080fd5b5060009050610c93836114b1565b6001600160a01b038416600090815260086020526040902060020181905590508115610d6557604080517f4fbaa9a6000000000000000000000000000000000000000000000000000000008152600960048201526001600160a01b0385166024820181905260448201849052606482018190526084820152905173__SortedDoublyLL________________________91634fbaa9a69160a4808301926000929190829003018186803b158015610d4857600080fd5b505af4158015610d5c573d6000803e3d6000fd5b50505050610df4565b60408051631c11bf7f60e11b8152600960048201526001600160a01b0385166024820181905260448201849052606482018190526084820152905173__SortedDoublyLL________________________916338237efe9160a4808301926000929190829003018186803b158015610ddb57600080fd5b505af4158015610def573d6000803e3d6000fd5b505050505b604080516001600160a01b038516815234602082015281517f7dba1be544024070cd5eebfa8bdd80a8b198cea8058c7d3cc1f8dd36e41ab2f7929181900390910190a16001600160a01b03831660008181526008602090815260409182902080546001820154600290920154845195865292850152838301526060830152517f2089894292d66b85abed43c6f71beaa6404b56065da9b6ef3112fddf9c53d9ac9181900360800190a16001935050505090565b6000805b82811015611023576000600973__SortedDoublyLL________________________6372e40b2690916040518263ffffffff1660e01b81526004018082815260200191505060206040518083038186803b158015610f0757600080fd5b505af4158015610f1b573d6000803e3d6000fd5b505050506040513d6020811015610f3157600080fd5b505190506000610f40826114b1565b9050670f43fc2c04ee0000811015610f6157610f5b82612a5c565b50610f68565b5050611023565b604080517f2ebb2fed00000000000000000000000000000000000000000000000000000000815260096004820152905173__SortedDoublyLL________________________91632ebb2fed916024808301926020929190829003018186803b158015610fd357600080fd5b505af4158015610fe7573d6000803e3d6000fd5b505050506040513d6020811015610ffd57600080fd5b50516001600160a01b0383811691161415611019575050611023565b5050600101610eab565b50600192915050565b604080517ffe1ee719000000000000000000000000000000000000000000000000000000008152600960048201526001600160a01b0383166024820152905160009173__SortedDoublyLL________________________9163fe1ee71991604480820192602092909190829003018186803b1580156110aa57600080fd5b505af41580156110be573d6000803e3d6000fd5b505050506040513d60208110156110d457600080fd5b505192915050565b670f43fc2c04ee000090565b6000806110f3613400565b9050600061110382856000613569565b905060026001600160a01b038316600090815260086020526040902060039081015460ff169081111561113257fe5b1461116e5760405162461bcd60e51b815260040180806020018281038252602b815260200180613a5e602b913960400191505060405180910390fd5b600084116111ad5760405162461bcd60e51b81526004018080602001828103825260348152602001806139876034913960400191505060405180910390fd5b670f43fc2c04ee00008110156111f45760405162461bcd60e51b815260040180806020018281038252603c815260200180613b3d603c913960400191505060405180910390fd5b6001600160a01b03821660009081526008602052604090205461121d908563ffffffff61350f16565b6001600160a01b0380841660008181526008602090815260408083209586556002958601879055945485517f2e90bbd80000000000000000000000000000000000000000000000000000000081526004810194909452602484018a905294519490931693632e90bbd8936044808501949193918390030190829087803b1580156112a657600080fd5b505af11580156112ba573d6000803e3d6000fd5b505050506040513d60208110156112d057600080fd5b505060408051631c11bf7f60e11b8152600960048201526001600160a01b0384166024820181905260448201849052606482018190526084820152905173__SortedDoublyLL________________________916338237efe9160a4808301926000929190829003018186803b15801561134857600080fd5b505af415801561135c573d6000803e3d6000fd5b5050604080516001600160a01b03861681526020810188905281517f640913f748017f33c962e4f95d85294d0233e0f9a254706a2d739a5b47f68ef09450908190039091019150a16001600160a01b03821660008181526008602090815260409182902080546001820154600290920154845195865292850152838301526060830152517f2089894292d66b85abed43c6f71beaa6404b56065da9b6ef3112fddf9c53d9ac9181900360800190a15060019392505050565b60086020526000908152604090208054600182015460028301546003909301549192909160ff1684565b6000600973__SortedDoublyLL________________________634aa1299090916040518263ffffffff1660e01b81526004018082815260200191505060206040518083038186803b1580156109da57600080fd5b60008061149d613400565b90506114a881613404565b50600191505090565b60006114bf82600080613569565b92915050565b6114cd611b31565b61151e576040805162461bcd60e51b815260206004820181905260248201527f4f776e61626c653a2063616c6c6572206973206e6f7420746865206f776e6572604482015290519081900360640190fd5b600080546040516001600160a01b03909116907f8be0079c531659141344cd1fd0a4f28419497f9722a3daafe3b4186f6b6457e0908390a3600080546001600160a01b0319169055565b611570611b31565b6115c1576040805162461bcd60e51b815260206004820181905260248201527f4f776e61626c653a2063616c6c6572206973206e6f7420746865206f776e6572604482015290519081900360640190fd5b600780546001600160a01b038084166001600160a01b0319928316811793849055600680549093169390911692909217905560408051918252517f8c537274438aa850a330284665d81a85dd38267d09e4050d416bfc94142db2649181900360200190a150565b600080611633613400565b9050600061164682600086600003613569565b905060026001600160a01b038316600090815260086020526040902060039081015460ff169081111561167557fe5b146116b15760405162461bcd60e51b815260040180806020018281038252602b815260200180613a5e602b913960400191505060405180910390fd5b6001600160a01b03821660009081526008602052604090206001015484111561170b5760405162461bcd60e51b8152600401808060200182810382526033815260200180613a2b6033913960400191505060405180910390fd5b670f43fc2c04ee00008110156117525760405162461bcd60e51b815260040180806020018281038252603c815260200180613b79603c913960400191505060405180910390fd5b6001600160a01b03821660009081526008602052604090206001015461177e908563ffffffff6136f016565b6001600160a01b038316600081815260086020526040808220600181019490945560029093018490558251631c11bf7f60e11b8152600960048201526024810183905260448101859052606481018390526084810192909252915173__SortedDoublyLL________________________926338237efe9260a48082019391829003018186803b15801561181057600080fd5b505af4158015611824573d6000803e3d6000fd5b5050600254604080517ff568dd8e0000000000000000000000000000000000000000000000000000000081526001600160a01b038781166004830152602482018a9052915191909216935063f568dd8e925060448083019260209291908290030181600087803b15801561189757600080fd5b505af11580156118ab573d6000803e3d6000fd5b505050506040513d60208110156118c157600080fd5b5050604080516001600160a01b03841681526020810186905281517fc30fcfbcaac9e0deffa719714eaa82396ff506a0d0d0eebe170830177288715d929181900390910190a16001600160a01b03821660008181526008602090815260409182902080546001820154600290920154845195865292850152838301526060830152517f2089894292d66b85abed43c6f71beaa6404b56065da9b6ef3112fddf9c53d9ac9181900360800190a15060019392505050565b61197f611b31565b6119d0576040805162461bcd60e51b815260206004820181905260248201527f4f776e61626c653a2063616c6c6572206973206e6f7420746865206f776e6572604482015290519081900360640190fd5b600380546001600160a01b0383166001600160a01b03199182168117909255600280549091168217905560408051918252517f4d839b74477afe774fbb734df87db25e56c0427973aac588bb3ce7ce937f88509181900360200190a150565b6000611a396138d9565b678ac7230489e8000060208201526000808252600260608301528190600890611a60613400565b6001600160a01b03166001600160a01b0316815260200190815260200160002060008201518160000155602082015181600101556040820151816002015560608201518160030160006101000a81548160ff02191690836003811115611ac257fe5b02179055509050505090565b6000600973__SortedDoublyLL________________________63be6f92d490916040518263ffffffff1660e01b81526004018082815260200191505060206040518083038186803b1580156109da57600080fd5b6000546001600160a01b031690565b600080546001600160a01b0316611b46613400565b6001600160a01b031614905090565b6003546000906001600160a01b0316611b6c613400565b6001600160a01b031614611bb15760405162461bcd60e51b815260040180806020018281038252602e81526020018061392a602e913960400191505060405180910390fd5b60026001600160a01b038416600090815260086020526040902060039081015460ff1690811115611bde57fe5b14611c30576040805162461bcd60e51b815260206004820152601e60248201527f4344504d616e616765723a20434450206d757374206265206163746976650000604482015290519081900360640190fd5b6001600160a01b038316600090815260086020526040902060010154611c5c908363ffffffff61350f16565b6001600160a01b038416600090815260086020526040812060010191909155611c84846114b1565b6001600160a01b0385166000818152600860205260408082206002018490558051631c11bf7f60e11b81526009600482015260248101849052604481018590526064810184905260848101939093525192935073__SortedDoublyLL________________________926338237efe9260a4808201939291829003018186803b158015611d0f57600080fd5b505af4158015611d23573d6000803e3d6000fd5b5050604080516001600160a01b03881681526020810187905281517f7dba1be544024070cd5eebfa8bdd80a8b198cea8058c7d3cc1f8dd36e41ab2f79450908190039091019150a16001600160a01b03841660008181526008602090815260409182902080546001820154600290920154845195865292850152838301526060830152517f2089894292d66b85abed43c6f71beaa6404b56065da9b6ef3112fddf9c53d9ac9181900360800190a15060019392505050565b604080517fd8681128000000000000000000000000000000000000000000000000000000008152600960048201526001600160a01b0383166024820152905160009173__SortedDoublyLL________________________9163d868112891604480820192602092909190829003018186803b1580156110aa57600080fd5b6005546001600160a01b031681565b604080517fe189dedb000000000000000000000000000000000000000000000000000000008152600960048201526001600160a01b0383166024820152905160009173__SortedDoublyLL________________________9163e189dedb91604480820192602092909190829003018186803b1580156110aa57600080fd5b604080517fb0138c47000000000000000000000000000000000000000000000000000000008152600960048201526001600160a01b0383166024820152905160009173__SortedDoublyLL________________________9163b0138c4791604480820192602092909190829003018186803b1580156110aa57600080fd5b600080611f6f613400565b905082600460009054906101000a90046001600160a01b03166001600160a01b03166370a08231836040518263ffffffff1660e01b815260040180826001600160a01b03166001600160a01b0316815260200191505060206040518083038186803b158015611fdd57600080fd5b505afa158015611ff1573d6000803e3d6000fd5b505050506040513d602081101561200757600080fd5b505110156120465760405162461bcd60e51b815260040180806020018281038252602b815260200180613b12602b913960400191505060405180910390fd5b60005b8381101561254a576000600973__SortedDoublyLL________________________6372e40b2690916040518263ffffffff1660e01b81526004018082815260200191505060206040518083038186803b1580156120a557600080fd5b505af41580156120b9573d6000803e3d6000fd5b505050506040513d60208110156120cf57600080fd5b5051905060006120de826114b1565b90506000600660009054906101000a90046001600160a01b03166001600160a01b03166398d5fdca6040518163ffffffff1660e01b815260040160206040518083038186803b15801561213057600080fd5b505afa158015612144573d6000803e3d6000fd5b505050506040513d602081101561215a57600080fd5b5051600254604080517f697b93fd00000000000000000000000000000000000000000000000000000000815290519293506000926001600160a01b039092169163697b93fd91600480820192602092909190829003018186803b1580156121c057600080fd5b505afa1580156121d4573d6000803e3d6000fd5b505050506040513d60208110156121ea57600080fd5b50519050670f43fc2c04ee000083101561220d5761220784612a5c565b50612541565b60006122406122228a8863ffffffff6136f016565b6001600160a01b038716600090815260086020526040902054613732565b6001600160a01b03861660009081526008602052604090205490915061226c908263ffffffff6136f016565b6001600160a01b03861660009081526008602090815260409182902092909255805163563d4c2360e01b815260048101849052670de0b6b3a764000060248201526044810186905290516123459273__DeciMath______________________________9263563d4c239260648083019392829003018186803b1580156122f157600080fd5b505af4158015612305573d6000803e3d6000fd5b505050506040513d602081101561231b57600080fd5b50516001600160a01b0387166000908152600860205260409020600101549063ffffffff6136f016565b6001600160a01b03861660009081526008602052604081206001019190915561236d866114b1565b6002549091506001600160a01b0316637cb19fe889848761239c82670de0b6b3a764000063ffffffff61374916565b816123a357fe5b046040518463ffffffff1660e01b815260040180846001600160a01b03166001600160a01b031681526020018381526020018281526020019350505050602060405180830381600087803b1580156123fa57600080fd5b505af115801561240e573d6000803e3d6000fd5b505050506040513d602081101561242457600080fd5b5050826124365750505050505061254a565b60408051631c11bf7f60e11b8152600960048201526001600160a01b038089166024830152604482018490528a16606482018190526084820152905173__SortedDoublyLL________________________916338237efe9160a4808301926000929190829003018186803b1580156124ad57600080fd5b505af41580156124c1573d6000803e3d6000fd5b5050506001600160a01b03871660008181526008602090815260409182902080546001820154600290920154845195865292850152838301526060830152517f2089894292d66b85abed43c6f71beaa6404b56065da9b6ef3112fddf9c53d9ac92509081900360800190a161253c878363ffffffff61350f16565b965050505b50505050612049565b604080516001600160a01b03841681526020810183905281517fc10cd90de32483572006e673f57d6ada13c7ad52bfe762d943d5beefb802dfd3929181900390910190a15050919050565b600954600a54600b54600c546001600160a01b03938416939092169184565b600080600260009054906101000a90046001600160a01b03166001600160a01b0316639594897d6040518163ffffffff1660e01b815260040160206040518083038186803b15801561260557600080fd5b505afa158015612619573d6000803e3d6000fd5b505050506040513d602081101561262f57600080fd5b5051600254604080517fb7a2a46300000000000000000000000000000000000000000000000000000000815290519293506000926001600160a01b039092169163b7a2a46391600480820192602092909190829003018186803b15801561269557600080fd5b505afa1580156126a9573d6000803e3d6000fd5b505050506040513d60208110156126bf57600080fd5b5051600254604080517fb620115d00000000000000000000000000000000000000000000000000000000815290519293506000926001600160a01b039092169163b620115d91600480820192602092909190829003018186803b15801561272557600080fd5b505afa158015612739573d6000803e3d6000fd5b505050506040513d602081101561274f57600080fd5b50516040805163563d4c2360e01b8152600481018890526024810185905260448101869052905191925060009173__DeciMath______________________________9163563d4c23916064808301926020929190829003018186803b1580156127b757600080fd5b505af41580156127cb573d6000803e3d6000fd5b505050506040513d60208110156127e157600080fd5b5051905060006127f2888884613569565b905060026001600160a01b038916600090815260086020526040902060039081015460ff169081111561282157fe5b1461285d5760405162461bcd60e51b815260040180806020018281038252602c815260200180613bb5602c913960400191505060405180910390fd5b8487111561289c5760405162461bcd60e51b815260040180806020018281038252604a8152602001806139e1604a913960600191505060405180910390fd5b6128a983601481046136f0565b81116128e65760405162461bcd60e51b8152600401808060200182810382526042815260200180613c106042913960600191505060405180910390fd5b6001600160a01b03881660009081526008602052604090205461290f908863ffffffff61350f16565b6001600160a01b038916600090815260086020526040902081905561293a908363ffffffff61350f16565b6001600160a01b03808a1660009081526008602090815260408083206001019490945560025484517f4d5bc111000000000000000000000000000000000000000000000000000000008152600481018d9052602481018890529451931693634d5bc1119360448083019491928390030190829087803b1580156129bc57600080fd5b505af11580156129d0573d6000803e3d6000fd5b505050506040513d60208110156129e657600080fd5b50506001600160a01b03881660008181526008602090815260409182902080546001820154600290920154845195865292850152838301526060830152517f2089894292d66b85abed43c6f71beaa6404b56065da9b6ef3112fddf9c53d9ac9181900360800190a1506001979650505050505050565b600060026001600160a01b038316600090815260086020526040902060039081015460ff1690811115612a8b57fe5b14612ac75760405162461bcd60e51b8152600401808060200182810382526033815260200180613abe6033913960400191505060405180910390fd5b670f43fc2c04ee0000612ad9836114b1565b10612b155760405162461bcd60e51b8152600401808060200182810382526027815260200180613c526027913960400191505060405180910390fd5b612b1d61390b565b6002546001600160a01b03848116600090815260086020526040808220805460019091015482517f335525ad000000000000000000000000000000000000000000000000000000008152600481019290925260248201528151939094169363335525ad9360448083019491928390030190829087803b158015612b9f57600080fd5b505af1158015612bb3573d6000803e3d6000fd5b505050506040513d601f19601f820116820180604052506040811015612bd857600080fd5b50805190915015612c83576002548151602080840151604080517f596c897600000000000000000000000000000000000000000000000000000000815260048101949094526024840191909152516001600160a01b039093169263596c89769260448082019392918290030181600087803b158015612c5657600080fd5b505af1158015612c6a573d6000803e3d6000fd5b505050506040513d6020811015612c8057600080fd5b50505b6001600160a01b0383166000818152600860205260408082206003908101805460ff1916909117905580517f5d35e0070000000000000000000000000000000000000000000000000000000081526009600482015260248101939093525173__SortedDoublyLL________________________92635d35e007926044808301939192829003018186803b158015612d1957600080fd5b505af4158015612d2d573d6000803e3d6000fd5b5050604080516001600160a01b038716815290517f8dc2af76274aae5c06e0223e41dba1dfdafc467ec4844fa1742b68c987d0d81c9350908190036020019150a150600192915050565b600080612d82613400565b905060026001600160a01b038216600090815260086020526040902060039081015460ff1690811115612db157fe5b14612ded5760405162461bcd60e51b815260040180806020018281038252602b815260200180613a5e602b913960400191505060405180910390fd5b60008311612e2c5760405162461bcd60e51b815260040180806020018281038252602f815260200180613958602f913960400191505060405180910390fd5b6001600160a01b038116600090815260086020526040902054831115612e835760405162461bcd60e51b8152600401808060200182810382526035815260200180613a896035913960400191505060405180910390fd5b60048054604080517f70a082310000000000000000000000000000000000000000000000000000000081526001600160a01b038581169482019490945290518693909216916370a0823191602480820192602092909190829003018186803b158015612eee57600080fd5b505afa158015612f02573d6000803e3d6000fd5b505050506040513d6020811015612f1857600080fd5b50511015612f575760405162461bcd60e51b815260040180806020018281038252602f815260200180613be1602f913960400191505060405180910390fd5b6001600160a01b038116600090815260086020526040902054612f80908463ffffffff6136f016565b6001600160a01b038216600090815260086020526040812091909155612fa5826114b1565b60408051631c11bf7f60e11b8152600960048201526001600160a01b0385166024820181905260448201849052606482018190526084820152905191925073__SortedDoublyLL________________________916338237efe9160a480820192600092909190829003018186803b15801561301f57600080fd5b505af4158015613033573d6000803e3d6000fd5b5050600254604080517fb96c51810000000000000000000000000000000000000000000000000000000081526001600160a01b038781166004830152602482018a9052915191909216935063b96c5181925060448083019260209291908290030181600087803b1580156130a657600080fd5b505af11580156130ba573d6000803e3d6000fd5b505050506040513d60208110156130d057600080fd5b5050604080516001600160a01b03841681526020810186905281517fafaf8c5829f2f3411c5edb27fcaf3e40d24c78f622b01131b90ee281a49fde5a929181900390910190a16001600160a01b03821660008181526008602090815260409182902080546001820154600290920154845195865292850152838301526060830152517f2089894292d66b85abed43c6f71beaa6404b56065da9b6ef3112fddf9c53d9ac9181900360800190a15060019392505050565b6007546001600160a01b031681565b6000600973__SortedDoublyLL________________________63b32ece5890916040518263ffffffff1660e01b81526004018082815260200191505060206040518083038186803b1580156109da57600080fd5b6003546001600160a01b031681565b600073__DeciMath______________________________63563d4c238585856040518463ffffffff1660e01b815260040180848152602001838152602001828152602001935050505060206040518083038186803b15801561325957600080fd5b505af415801561326d573d6000803e3d6000fd5b505050506040513d602081101561328357600080fd5b505190505b9392505050565b6000600973__SortedDoublyLL________________________632ebb2fed90916040518263ffffffff1660e01b81526004018082815260200191505060206040518083038186803b1580156109da57600080fd5b6132eb611b31565b61333c576040805162461bcd60e51b815260206004820181905260248201527f4f776e61626c653a2063616c6c6572206973206e6f7420746865206f776e6572604482015290519081900360640190fd5b613345816137a2565b50565b613350611b31565b6133a1576040805162461bcd60e51b815260206004820181905260248201527f4f776e61626c653a2063616c6c6572206973206e6f7420746865206f776e6572604482015290519081900360640190fd5b600580546001600160a01b0383166001600160a01b03199182168117909255600480549091168217905560408051918252517f373a23842c9bfba0a655597bb13c6493895da5266bd6617086a73f8dcfe2ae709181900360200190a150565b3390565b6000806001600160a01b038316600090815260086020526040902060039081015460ff169081111561343257fe5b14613484576040805162461bcd60e51b815260206004820152601e60248201527f4344504d616e616765723a2043445020616c7265616479206578697374730000604482015290519081900360640190fd5b6001600160a01b0382166000908152600860205260409020600301805460ff191660011790556134b3826114b1565b6001600160a01b038316600081815260086020908152604091829020600201939093558051918252517f6d36763f752759a8d4504959c3015df7bee44c2c5726e5ce8f5496d904da8636929181900390910190a1506001919050565b600082820183811015613288576040805162461bcd60e51b815260206004820152601b60248201527f536166654d6174683a206164646974696f6e206f766572666c6f770000000000604482015290519081900360640190fd5b6001600160a01b0383166000908152600860205260408120600101548190613597908463ffffffff61350f16565b6001600160a01b038616600090815260086020526040812054919250906135c4908663ffffffff61350f16565b90506000600660009054906101000a90046001600160a01b03166001600160a01b03166398d5fdca6040518163ffffffff1660e01b815260040160206040518083038186803b15801561361657600080fd5b505afa15801561362a573d6000803e3d6000fd5b505050506040513d602081101561364057600080fd5b5051905081156136e357600073__DeciMath______________________________63563d4c238584866040518463ffffffff1660e01b815260040180848152602001838152602001828152602001935050505060206040518083038186803b1580156136ab57600080fd5b505af41580156136bf573d6000803e3d6000fd5b505050506040513d60208110156136d557600080fd5b505194506132889350505050565b6000199350505050613288565b600061328883836040518060400160405280601e81526020017f536166654d6174683a207375627472616374696f6e206f766572666c6f770000815250613842565b60008183116137425750816114bf565b50806114bf565b600082613758575060006114bf565b8282028284828161376557fe5b04146132885760405162461bcd60e51b8152600401808060200182810382526021815260200180613af16021913960400191505060405180910390fd5b6001600160a01b0381166137e75760405162461bcd60e51b81526004018080602001828103825260268152602001806139bb6026913960400191505060405180910390fd5b600080546040516001600160a01b03808516939216917f8be0079c531659141344cd1fd0a4f28419497f9722a3daafe3b4186f6b6457e091a3600080546001600160a01b0319166001600160a01b0392909216919091179055565b600081848411156138d15760405162461bcd60e51b81526004018080602001828103825283818151815260200191508051906020019080838360005b8381101561389657818101518382015260200161387e565b50505050905090810190601f1680156138c35780820380516001836020036101000a031916815260200191505b509250505060405180910390fd5b505050900390565b60405180608001604052806000815260200160008152602001600081526020016000600381111561390657fe5b905290565b6040518060400160405280600290602082028038833950919291505056fe416374697665506f6f6c3a204f6e6c792074686520706f6f6c4d616e6167657220697320617574686f72697a65644344504d616e616765723a2052657061696420616d6f756e74206d757374206265206c6172676572207468616e20304344504d616e616765723a20416d6f756e7420746f207769746864726177206d757374206265206c6172676572207468616e20304f776e61626c653a206e6577206f776e657220697320746865207a65726f20616464726573734344504d616e616765723a204465627420696e207468652064656661756c7420706f6f6c20736d616c6c6572207468616e207468652073706563696669656420646562742073686172654344504d616e616765723a20496e73756666696369656e742062616c616e636520666f7220455448207769746864726177616c4344504d616e616765723a2043445020646f6573206e6f74206578697374206f7220697320636c6f7365644344504d616e616765723a2052657061696420616d6f756e74206973206c6172676572207468616e2063757272656e7420646562744344504d616e616765723a2043445020646f6573206e6f74206578697374206f7220697320616c726561647920636c6f736564536166654d6174683a206d756c7469706c69636174696f6e206f766572666c6f774344504d616e616765723a2053656e6465722068617320696e73756666696369656e742062616c616e63654344504d616e616765723a20496e73756666696369656e7420636f6c6c61746572616c20726174696f20666f7220434c56207769746864726177616c4344504d616e616765723a20496e73756666696369656e7420636f6c6c61746572616c20726174696f20666f7220455448207769746864726177616c4344504d616e616765723a20526563697069656e74206d757374206f776e20616e20616374697665204344504344504d616e616765723a2053656e6465722068617320696e73756666696369656e7420434c562062616c616e63654344504d616e616765723a20436f6c6c61746572616c20726174696f20776f756c6420626520647261776e2062656c6f77206d6178696d756d2064726177646f776e4344504d616e616765723a20434450206e6f7420756e646572636f6c6c61746572616c697a6564a265627a7a7231582001126b051821c9dcd9e67f66659c21a71015bf2b116fc1da24d1df701ff8864664736f6c634300050b0032",
  "source": "pragma solidity ^0.5.11;\r\n\r\n// TODO: Use SafeMath\r\nimport \"./ICDPManager.sol\";\r\nimport \"./ICLVToken.sol\";\r\nimport \"./IPriceFeed.sol\";\r\nimport \"./SortedDoublyLL.sol\";\r\nimport \"./IPoolManager.sol\";\r\nimport \"./DeciMath.sol\";\r\nimport \"../node_modules/@openzeppelin/contracts/math/SafeMath.sol\";\r\nimport \"../node_modules/@openzeppelin/contracts/ownership/Ownable.sol\";\r\n\r\ncontract CDPManager is Ownable, ICDPManager {\r\n    using SafeMath for uint;\r\n    using SortedDoublyLL for SortedDoublyLL.Data;\r\n\r\n    string public name;\r\n    uint constant DIGITS = 1e18; // Number of digits used for precision, e.g. when calculating redistribution shares. Equals \"ether\" unit.\r\n    uint constant MCR = (11 * DIGITS) / 10; // Minimal collateral ratio (e.g. 110%). TODO: Allow variable MCR\r\n    uint constant MAX_DRAWDOWN = 20; // Loans cannot be drawn down more than 5% (= 1/20) below the TCR when receiving redistribution shares\r\n    enum Status { inexistent, newBorn, active, closed }\r\n    \r\n    // --- Events --- \r\n    event PoolManagerAddressChanged(address _newPoolManagerAddress);\r\n    event PriceFeedAddressChanged(address _newPriceFeedAddress);\r\n    event CLVTokenAddressChanged(address _newCLVTokenAddress);\r\n\r\n    event CDPCreated(address _user);\r\n    event CDPUpdated(address _user, uint _debt, uint _coll, uint ICR);\r\n    event CDPClosed(address _user);\r\n\r\n    event CollateralAdded(address _user, uint _amountAdded);\r\n    event CollateralWithdrawn(address _user, uint _amountWithdrawn);\r\n    event CLVWithdrawn(address _user, uint _amountWithdrawn);\r\n    event CLVRepayed(address _user, uint _amountRepayed);\r\n    event CollateralRedeemed(address _user, uint redeemedAmount);\r\n\r\n    // --- Connected contract declarations ---\r\n    IPoolManager poolManager;\r\n    address public poolManagerAddress;\r\n\r\n    ICLVToken CLV; \r\n    address public clvTokenAddress;\r\n\r\n    IPriceFeed priceFeed;\r\n    address public priceFeedAddress;\r\n\r\n    // --- Data structures ---\r\n\r\n    // Stores the necessary data for a Collateralized Debt Position (CDP)\r\n    struct CDP {\r\n        uint debt;\r\n        uint coll;\r\n        uint ICR; // Individual Collateral Ratio\r\n        Status status;\r\n    }\r\n    \r\n    mapping (address => CDP) public CDPs; // A map of all new CDPs: created but no initial collateral\r\n    SortedDoublyLL.Data public sortedCDPs; // A doubly linked CDP list sorted by the collateral ratio of the CDPs\r\n\r\n     // --- Modifiers ---\r\n    modifier onlyPoolManager {\r\n        require(_msgSender() == poolManagerAddress, \"ActivePool: Only the poolManager is authorized\");\r\n        _;\r\n    }\r\n\r\n    constructor() public payable {\r\n        sortedCDPs.setMaxSize(1000000);\r\n    }   \r\n\r\n    // --- Contract setters --- \r\n    function setPoolManager(address _poolManagerAddress) public onlyOwner {\r\n        poolManagerAddress = _poolManagerAddress;\r\n        poolManager = IPoolManager(_poolManagerAddress);\r\n        emit PoolManagerAddressChanged(_poolManagerAddress);\r\n    }\r\n\r\n    function setPriceFeed(address _priceFeedAddress) public onlyOwner {\r\n        priceFeedAddress = _priceFeedAddress;\r\n        priceFeed = IPriceFeed(priceFeedAddress);\r\n        emit PriceFeedAddressChanged(_priceFeedAddress);\r\n    }\r\n\r\n     function setCLVToken(address _clvTokenAddress) public onlyOwner {\r\n        clvTokenAddress = _clvTokenAddress;\r\n        CLV = ICLVToken(_clvTokenAddress);\r\n        emit CLVTokenAddressChanged(_clvTokenAddress);\r\n    }\r\n\r\n    // --- Getters ---\r\n    function getMCR() public pure returns(uint) {\r\n        return MCR;\r\n    }\r\n\r\n    function getAccurateMulDiv(uint x, uint y, uint z) public pure returns(uint) {\r\n        return DeciMath.accurateMulDiv(x, y, z);\r\n    }\r\n\r\n    function hasActiveCDP(address _user) public view returns(bool) {\r\n        if (CDPs[_user].status == Status.active) {\r\n            return true;\r\n        } else {\r\n            return false;\r\n        }\r\n    }\r\n    \r\n    /* --- SortedDoublyLinkedList (SDLL) getters and checkers. These enable public usage\r\n    of the corresponding SDLL functions, operating on the sortedCDPs struct --- */\r\n\r\n    function sortedCDPsContains(address id) public view returns(bool) {\r\n        return sortedCDPs.contains(id);\r\n    }\r\n\r\n    function sortedCDPsIsEmpty() public view returns (bool) {\r\n        return sortedCDPs.isEmpty();\r\n    }\r\n\r\n    function sortedCDPsIsFull() public view returns(bool) {\r\n        return sortedCDPs.isFull();\r\n    }\r\n\r\n    function sortedCDPsgetSize() public view returns(uint) {\r\n        return sortedCDPs.getSize();\r\n    }\r\n\r\n    function sortedCDPsGetMaxSize() public view returns(uint) {\r\n        return sortedCDPs.getMaxSize();\r\n    }\r\n\r\n    function sortedCDPsGetKey(address user) public view returns(uint) {\r\n        return sortedCDPs.getKey(user);\r\n    }\r\n\r\n    function sortedCDPsGetFirst() public view returns(address) {\r\n        return sortedCDPs.getFirst();\r\n    }\r\n\r\n    function sortedCDPsGetLast() public view returns(address) {\r\n        return sortedCDPs.getLast();\r\n    }\r\n\r\n    function sortedCDPsGetNext(address user) public view returns(address) {\r\n        return sortedCDPs.getNext(user);\r\n    }\r\n\r\n    function sortedCDPsGetPrev(address user) public view returns(address) {\r\n        return sortedCDPs.getPrev(user);\r\n    }\r\n\r\n    // ---\r\n\r\n    // Returns the new collateral ratio considering the debt and/or collateral that should be added or removed \r\n    function getNewCollRatio(address _debtor, uint _debt_change, uint _coll_change) \r\n        view \r\n        internal \r\n        returns (uint) \r\n    {\r\n        uint newColl = (CDPs[_debtor].coll).add(_coll_change);\r\n        uint newDebt = (CDPs[_debtor].debt).add(_debt_change);\r\n        uint price = priceFeed.getPrice();\r\n        // Check if the total debt is higher than 0 to avoid division by 0\r\n        if (newDebt > 0) {\r\n            uint newCollRatio = DeciMath.accurateMulDiv(newColl, price, newDebt);\r\n            return newCollRatio;\r\n        }\r\n        // Return the maximal value for uint256 if the CDP has a debt of 0\r\n        else {\r\n            return 2**256 - 1; \r\n        }\r\n    }\r\n    \r\n    // Returns the current collateral ratio of a specified CDP\r\n    function getCollRatio(address _debtor) \r\n        public\r\n        view \r\n        returns (uint) \r\n    {\r\n        return getNewCollRatio(_debtor, 0, 0);\r\n    }\r\n    \r\n    // Create a new CDP\r\n    function userCreateCDP() \r\n        public\r\n        returns (bool) \r\n    {\r\n        address user = _msgSender();\r\n        createCDP(user);\r\n\r\n        return true;\r\n    }\r\n\r\n    function createCDP(address _account) \r\n        internal \r\n        returns (bool) \r\n    {\r\n        require(CDPs[_account].status == Status.inexistent, \"CDPManager: CDP already exists\");\r\n        CDPs[_account].status = Status.newBorn; \r\n        CDPs[_account].ICR = getCollRatio(_account);\r\n\r\n        emit CDPCreated(_account);\r\n\r\n        return true;\r\n    }\r\n    \r\n    // Pay a given number of ETH (msg.value) as collateral to a CDP \r\n    function addColl() \r\n        public \r\n        payable \r\n        returns (bool) \r\n    {\r\n        address user = _msgSender();\r\n        bool isFirstCollDeposit = false;\r\n        // Potential issue with using _msgSender() as the key in the CDPs map: Users may not be able interact via other contracts since the \r\n        // _msgSender() would then be the contract rather than the transacting user. Beware of tx.origin.\r\n        require(CDPs[user].status != Status.closed, \"CDPManager: CDP is closed\");\r\n        \r\n        if (CDPs[user].status == Status.inexistent) {\r\n            createCDP(user);\r\n            isFirstCollDeposit = true; \r\n        } else if (CDPs[user].status == Status.newBorn) {\r\n            isFirstCollDeposit = true;\r\n        }\r\n            \r\n        CDPs[user].status = Status.active;\r\n       \r\n        // Add the received collateral to the CDP \r\n        CDPs[user].coll = (CDPs[user].coll).add(msg.value);\r\n\r\n        // Send the received collateral to PoolManager, to forward to ActivePool\r\n        poolManager.addColl.value(msg.value)();\r\n\r\n        // get user's new ICR\r\n        uint newICR = getCollRatio(user);\r\n\r\n        // update the ICR in the CDP mapping\r\n        CDPs[user].ICR = newICR;\r\n        \r\n        // Insert or update the ICR  in sortedCDPs\r\n        if (isFirstCollDeposit) {\r\n            sortedCDPs.insert(user, newICR, user, user);\r\n        } else {\r\n            sortedCDPs.updateKey(user, newICR, user, user);\r\n        }\r\n\r\n        emit CollateralAdded(user, msg.value);\r\n        emit CDPUpdated(user, CDPs[user].debt, CDPs[user].coll, CDPs[user].ICR);\r\n        return true;\r\n    }\r\n\r\n    /* --- MockAddCDP - DELETE AFTER CDP FUNCTIONALITY IMPLEMENTED --- *\r\n    * temporary function, used by CLVToken test suite to easily add CDPs.\r\n    Later, replace with full CDP creation process.\r\n    */\r\n\r\n    function mockAddCDP() public returns(bool) {\r\n        CDP memory cdp;\r\n        cdp.coll = 10e18;\r\n        cdp.debt = 0;\r\n        cdp.status = Status.active;\r\n\r\n        CDPs[_msgSender()] = cdp;\r\n    }\r\n\r\n    // Top up collateral. Called by PoolManager::retrieve()\r\n    function sendETHGainToCDP(address _user, uint ETHShare) public onlyPoolManager returns(bool) {\r\n        require(CDPs[_user].status == Status.active, 'CDPManager: CDP must be active');\r\n   \r\n        CDPs[_user].coll =  (CDPs[_user].coll).add(ETHShare);\r\n\r\n        uint newICR = getCollRatio(_user);\r\n        CDPs[_user].ICR = newICR;\r\n        \r\n        sortedCDPs.updateKey(_user, newICR, _user, _user);\r\n        \r\n        emit CollateralAdded(_user, ETHShare);\r\n        emit CDPUpdated(_user, CDPs[_user].debt, CDPs[_user].coll, CDPs[_user].ICR);\r\n        return true;\r\n    }\r\n    \r\n    // Withdraw ETH collateral from a CDP\r\n    // TODO: Check re-entrancy protection\r\n    function withdrawColl(uint _amount) \r\n        public \r\n        returns (bool) \r\n    {\r\n        address payable user = _msgSender();\r\n        uint newICR = getNewCollRatio(user, 0, -_amount);\r\n\r\n        require(CDPs[user].status == Status.active, \"CDPManager: CDP does not exist or is closed\");\r\n        require(CDPs[user].coll >= _amount, \"CDPManager: Insufficient balance for ETH withdrawal\");\r\n        require(newICR >= MCR, \"CDPManager: Insufficient collateral ratio for ETH withdrawal\");\r\n        \r\n        // Reduce the ETH collateral by _amount\r\n        CDPs[user].coll = (CDPs[user].coll).sub(_amount);\r\n\r\n        // update the ICR in the CDP mapping\r\n        CDPs[user].ICR = newICR;\r\n\r\n        // Update ICR in sortedCDPs\r\n        sortedCDPs.updateKey(user, newICR, user, user);\r\n        \r\n        // Remove _amount ETH from ActivePool and send it to the user\r\n        poolManager.withdrawColl(user, _amount);\r\n        \r\n        emit CollateralWithdrawn(user, _amount);\r\n        emit CDPUpdated(user, CDPs[user].debt, CDPs[user].coll, CDPs[user].ICR);\r\n        return true;\r\n    }\r\n    \r\n    // Withdraw CLV tokens from a CDP: Mint new CLV and increase the debt accordingly\r\n    function withdrawCLV(uint _amount) \r\n        public \r\n        returns (bool) \r\n    {\r\n        address user = _msgSender();\r\n        uint newICR = getNewCollRatio(user, _amount, 0);\r\n\r\n        require(CDPs[user].status == Status.active, \"CDPManager: CDP does not exist or is closed\");\r\n        require(_amount > 0, \"CDPManager: Amount to withdraw must be larger than 0\");\r\n        require(newICR >= MCR, \"CDPManager: Insufficient collateral ratio for CLV withdrawal\");\r\n        \r\n        // Increase the debt by the withdrawn amount of CLV\r\n        CDPs[user].debt = (CDPs[user].debt).add(_amount);\r\n\r\n        // update the ICR in the CDP mapping\r\n        CDPs[user].ICR = newICR;\r\n\r\n        // Mint the given amount of CLV, add them to the ActivePool and send them to CDP owner's address \r\n        poolManager.withdrawCLV(user, _amount);\r\n        \r\n        // Update entry in sortedCDPs\r\n        sortedCDPs.updateKey(user, newICR, user, user);\r\n\r\n        emit CLVWithdrawn(user, _amount);\r\n        emit CDPUpdated(user, CDPs[user].debt, CDPs[user].coll, CDPs[user].ICR);\r\n        return true; \r\n    }\r\n    \r\n    // Repay CLV tokens to a CDP: Burn the repaid CLV tokens and reduce the debt accordingly\r\n    function repayCLV(uint _amount) \r\n        public \r\n        returns (bool) \r\n    {\r\n        address user = _msgSender();\r\n\r\n        require(CDPs[user].status == Status.active, \"CDPManager: CDP does not exist or is closed\");\r\n        require(_amount > 0, \"CDPManager: Repaid amount must be larger than 0\");\r\n        require(_amount <= CDPs[user].debt, \"CDPManager: Repaid amount is larger than current debt\");\r\n        require(CLV.balanceOf(user) >= _amount, \"CDPManager: Sender has insufficient CLV balance\");\r\n        // TODO: Maybe allow foreign accounts to repay loans\r\n        \r\n        // Reduce the debt\r\n        CDPs[user].debt  = (CDPs[user].debt).sub(_amount);\r\n\r\n        // Calculate new Coll ratio\r\n        uint newICR = getCollRatio(user);\r\n        \r\n        // Update entry in sortedCDPs\r\n        sortedCDPs.updateKey(user, newICR, user, user);\r\n\r\n        // Burn the received amount of CLV and remove them from the ActivePool\r\n        poolManager.repayCLV(user, _amount);\r\n\r\n        emit CLVRepayed(user, _amount);\r\n        emit CDPUpdated(user, CDPs[user].debt, CDPs[user].coll, CDPs[user].ICR);\r\n        return true;\r\n    }\r\n\r\n    // Closes the CDP of the speficied _debtor if its individual collateral ratio is lower than the minimum collateral ratio.\r\n    // TODO: This function should eventually be internal and only be called by closeCDPs(...). \r\n    function close(address _debtor) \r\n        public \r\n        returns (bool) \r\n    {\r\n        require(CDPs[_debtor].status == Status.active, \"CDPManager: CDP does not exist or is already closed\");\r\n        require(getCollRatio(_debtor) < MCR, \"CDPManager: CDP not undercollateralized\");\r\n        \r\n        // Offset as much debt & collateral as possible against the StabilityPool and save the returned remainders\r\n        uint[2] memory remainder = poolManager.offset(CDPs[_debtor].debt, CDPs[_debtor].coll);\r\n        if (remainder[0] > 0) {\r\n            // If the debt could not be offset entirely, transfer the remaining debt & collateral from Active Pool to Default Pool \r\n            // Note: remainder[0] = remaining debt; remainder[1] = remaining collateral;\r\n            poolManager.close(remainder[0], remainder[1]);\r\n        }\r\n        \r\n        // Close the CDP\r\n        CDPs[_debtor].status = Status.closed;\r\n        \r\n        // Remove CDP from sortedCDPs\r\n        sortedCDPs.remove(_debtor);\r\n        emit CDPClosed(_debtor);\r\n        return true;\r\n    }\r\n     \r\n    \r\n    // Closes a maximum number of n multiple undercollateralized CPDs, starting from the one with the lowest collateral ratio\r\n    // Caller: anybody \r\n    // TODO: Should probably be synchronized with PriceFeed and called every time the price is updated\r\n    function closeCDPs(uint n)\r\n        public\r\n        returns (bool)\r\n    {    \r\n        uint i;\r\n        while (i < n) {\r\n            address currentCDP = sortedCDPs.getLast();\r\n            uint collRatio = getCollRatio(currentCDP);\r\n            \r\n            // Close CDPs if it is undercollateralized\r\n            if (collRatio < MCR) {\r\n                close(currentCDP);\r\n            } else break;\r\n            \r\n            // Break loop if you reach the first CDP in the sorted list \r\n            // Check if issue with changing list position\r\n            if (currentCDP == sortedCDPs.getFirst()) \r\n                break;\r\n            \r\n            i++;\r\n        }       \r\n        return true;\r\n     }\r\n            \r\n            \r\n    // The specified _debtor obtains the given debt share and the corresponding collateral share from the default pool   \r\n    // Caller: anybody\r\n    \r\n    // TODO: Implement some more sophisticated logic that for example only allows the public to assign a debt & coll share\r\n    // to any CDP if the Default Pool is indebted (i.e. its collateral ratio is < 100%). Otherwise, only the owner of a CDP\r\n    // should be able to obtain a default share for himself. In this case, maybe impose more limits as described in the\r\n    // slide deck. Optimally, we could get rid of this mechanism alltogether and distribute undercollateralized loans that\r\n    // could not be offset against the Stability Pool in proportion to some excess collateral above a given threshold.\r\n    function obtainDefaultShare(address _user, uint _debtShare) \r\n        public \r\n        returns (bool) \r\n    {\r\n        uint closedDebt = poolManager.getClosedDebt();\r\n        uint closedColl = poolManager.getClosedColl();\r\n        uint TCR = poolManager.getTCR();\r\n        uint collShare = DeciMath.accurateMulDiv(_debtShare, closedColl, closedDebt); // Calculate collateral share coll from _debt\r\n        uint newICR = getNewCollRatio(_user, _debtShare, collShare);\r\n        \r\n        require(CDPs[_user].status == Status.active, \"CDPManager: Recipient must own an active CDP\");\r\n        require(_debtShare <= closedDebt, \"CDPManager: Debt in the default pool smaller than the specified debt share\");\r\n        require(newICR > TCR.sub(TCR / MAX_DRAWDOWN), \"CDPManager: Collateral ratio would be drawn below maximum drawdown\");\r\n        // Add debt & coll share to the CDP and to the total and remove them from the default pool\r\n        CDPs[_user].debt  = (CDPs[_user].debt).add(_debtShare);\r\n        CDPs[_user].coll = (CDPs[_user].debt).add(collShare);\r\n        \r\n        poolManager.obtainDefaultShare(_debtShare, collShare);\r\n        emit CDPUpdated(_user, CDPs[_user].debt, CDPs[_user].coll, CDPs[_user].ICR);\r\n\r\n        return true;\r\n    }\r\n    \r\n    // Returns the lower value from two given integers\r\n    function getMin(uint a, uint b) \r\n        internal\r\n        pure\r\n        returns (uint)\r\n    {\r\n        if (a <= b) return a;\r\n        else return b;\r\n    }    \r\n    \r\n    // Sends _amount CLV to the system and redeems the corresponding amount of collateral from as many CDPs as are needed to fill the redemption\r\n    // request. Note that if _amount is very large, this function can run out of gas. This can be easily avoided by splitting the total _amount\r\n    // in appropriate chunks and calling the function multiple times.\r\n    \r\n    // TODO: Maybe also use the default pool for redemptions\r\n    // TODO: Levy a redemption fee (and maybe also impose a rate limit on redemptions)\r\n    function redeemCollateral(uint _amount) \r\n        public\r\n        returns (bool)\r\n    {\r\n        address payable user = _msgSender();\r\n        require(CLV.balanceOf(user) >= _amount, \"CDPManager: Sender has insufficient balance\");\r\n        uint redeemed;\r\n\r\n        // Loop through the CDPs starting from the one with lowest collateral ratio until _amount of CLV is exchanged for collateral\r\n        while (redeemed < _amount) {\r\n\r\n            address currentCDPuser = sortedCDPs.getLast();\r\n            uint collRatio = getCollRatio(currentCDPuser);\r\n            uint price = priceFeed.getPrice();\r\n            uint activeDebt = poolManager.getActiveDebt();\r\n            \r\n            // Close CDPs along the way that turn out to be undercollateralized\r\n            if (collRatio < MCR) {\r\n                close(currentCDPuser);\r\n            }\r\n            else {\r\n                // Determine the remaining amount (lot) to be redeemed, capped by the entire debt of the current CDP \r\n                uint lot = getMin(_amount.sub(redeemed), CDPs[currentCDPuser].debt);\r\n                    \r\n                // Decrease the debt and collateral of the current CDP according to the lot\r\n                // TODO: Readability - too dense. Extract temp vars\r\n                CDPs[currentCDPuser].debt = (CDPs[currentCDPuser].debt).sub(lot);\r\n                CDPs[currentCDPuser].coll = (CDPs[currentCDPuser].coll).sub(DeciMath.accurateMulDiv(lot, DIGITS, price));\r\n                uint newCollRatio = getCollRatio(currentCDPuser);\r\n\r\n                // Burn the calculated lot of CLV and send the corresponding ETH to _msgSender()\r\n                poolManager.redeemCollateral(user, lot, (lot.mul(DIGITS)) / price);\r\n\r\n                // TODO - Rick: What is this check for activeDebt == 0 really doing here? And should it come before\r\n                // updating the currentCDP's position in sortedCDPs?\r\n\r\n                // Break the loop if there is no more active debt to redeem \r\n                if (activeDebt == 0) break;    \r\n                \r\n                // Update the sortedCDPs list and the redeemed amount\r\n                sortedCDPs.updateKey(currentCDPuser, newCollRatio, user, user); \r\n                emit CDPUpdated(currentCDPuser, CDPs[currentCDPuser].debt, CDPs[currentCDPuser].coll, CDPs[currentCDPuser].ICR);\r\n\r\n                redeemed = redeemed.add(lot);   \r\n            }\r\n        }\r\n        emit CollateralRedeemed(user, redeemed);\r\n    }    \r\n}",
  "sourcePath": "C:/Users/Rick/Desktop/Cleverage/contracts/CDPManager.sol",
  "compiler": {
    "name": "solc",
    "version": "0.5.11+commit.c082d0b4.Emscripten.clang"
  },
  "schemaVersion": "3.0.20",
  "updatedAt": "2019-12-26T17:22:24.801Z",
  "networkType": "ethereum",
  "devdoc": {
    "methods": {
      "isOwner()": {
        "details": "Returns true if the caller is the current owner."
      },
      "owner()": {
        "details": "Returns the address of the current owner."
      },
      "renounceOwnership()": {
        "details": "Leaves the contract without owner. It will not be possible to call `onlyOwner` functions anymore. Can only be called by the current owner.     * NOTE: Renouncing ownership will leave the contract without an owner, thereby removing any functionality that is only available to the owner."
      },
      "transferOwnership(address)": {
        "details": "Transfers ownership of the contract to a new account (`newOwner`). Can only be called by the current owner."
      }
    }
  },
  "userdoc": {
    "methods": {}
  }
}