{
  "contractName": "CLVToken",
  "abi": [
    {
      "constant": true,
      "inputs": [],
      "name": "name",
      "outputs": [
        {
          "internalType": "bytes32",
          "name": "",
          "type": "bytes32"
        }
      ],
      "payable": false,
      "stateMutability": "view",
      "type": "function"
    },
    {
      "constant": true,
      "inputs": [],
      "name": "_totalSupply",
      "outputs": [
        {
          "internalType": "uint256",
          "name": "",
          "type": "uint256"
        }
      ],
      "payable": false,
      "stateMutability": "view",
      "type": "function"
    },
    {
      "constant": false,
      "inputs": [],
      "name": "renounceOwnership",
      "outputs": [],
      "payable": false,
      "stateMutability": "nonpayable",
      "type": "function"
    },
    {
      "constant": true,
      "inputs": [],
      "name": "owner",
      "outputs": [
        {
          "internalType": "address",
          "name": "",
          "type": "address"
        }
      ],
      "payable": false,
      "stateMutability": "view",
      "type": "function"
    },
    {
      "constant": true,
      "inputs": [],
      "name": "isOwner",
      "outputs": [
        {
          "internalType": "bool",
          "name": "",
          "type": "bool"
        }
      ],
      "payable": false,
      "stateMutability": "view",
      "type": "function"
    },
    {
      "constant": true,
      "inputs": [],
      "name": "tokenDataAddress",
      "outputs": [
        {
          "internalType": "address",
          "name": "",
          "type": "address"
        }
      ],
      "payable": false,
      "stateMutability": "view",
      "type": "function"
    },
    {
      "constant": true,
      "inputs": [],
      "name": "poolManagerAddress",
      "outputs": [
        {
          "internalType": "address",
          "name": "",
          "type": "address"
        }
      ],
      "payable": false,
      "stateMutability": "view",
      "type": "function"
    },
    {
      "constant": false,
      "inputs": [
        {
          "internalType": "address",
          "name": "newOwner",
          "type": "address"
        }
      ],
      "name": "transferOwnership",
      "outputs": [],
      "payable": false,
      "stateMutability": "nonpayable",
      "type": "function"
    },
    {
      "inputs": [],
      "payable": false,
      "stateMutability": "nonpayable",
      "type": "constructor"
    },
    {
      "anonymous": false,
      "inputs": [
        {
          "indexed": false,
          "internalType": "address",
          "name": "_newPoolManagerAddress",
          "type": "address"
        }
      ],
      "name": "PoolManagerAddressChanged",
      "type": "event"
    },
    {
      "anonymous": false,
      "inputs": [
        {
          "indexed": false,
          "internalType": "address",
          "name": "_user",
          "type": "address"
        },
        {
          "indexed": false,
          "internalType": "uint256",
          "name": "_amount",
          "type": "uint256"
        }
      ],
      "name": "CLVTokenBalanceUpdated",
      "type": "event"
    },
    {
      "anonymous": false,
      "inputs": [
        {
          "indexed": true,
          "internalType": "address",
          "name": "previousOwner",
          "type": "address"
        },
        {
          "indexed": true,
          "internalType": "address",
          "name": "newOwner",
          "type": "address"
        }
      ],
      "name": "OwnershipTransferred",
      "type": "event"
    },
    {
      "anonymous": false,
      "inputs": [
        {
          "indexed": true,
          "internalType": "address",
          "name": "from",
          "type": "address"
        },
        {
          "indexed": true,
          "internalType": "address",
          "name": "to",
          "type": "address"
        },
        {
          "indexed": false,
          "internalType": "uint256",
          "name": "value",
          "type": "uint256"
        }
      ],
      "name": "Transfer",
      "type": "event"
    },
    {
      "anonymous": false,
      "inputs": [
        {
          "indexed": true,
          "internalType": "address",
          "name": "owner",
          "type": "address"
        },
        {
          "indexed": true,
          "internalType": "address",
          "name": "spender",
          "type": "address"
        },
        {
          "indexed": false,
          "internalType": "uint256",
          "name": "value",
          "type": "uint256"
        }
      ],
      "name": "Approval",
      "type": "event"
    },
    {
      "constant": false,
      "inputs": [
        {
          "internalType": "address",
          "name": "_poolManagerAddress",
          "type": "address"
        }
      ],
      "name": "setPoolManagerAddress",
      "outputs": [],
      "payable": false,
      "stateMutability": "nonpayable",
      "type": "function"
    },
    {
      "constant": false,
      "inputs": [
        {
          "internalType": "bytes32",
          "name": "_name",
          "type": "bytes32"
        }
      ],
      "name": "setName",
      "outputs": [],
      "payable": false,
      "stateMutability": "nonpayable",
      "type": "function"
    },
    {
      "constant": false,
      "inputs": [
        {
          "internalType": "address",
          "name": "_account",
          "type": "address"
        },
        {
          "internalType": "uint256",
          "name": "_amount",
          "type": "uint256"
        }
      ],
      "name": "mint",
      "outputs": [
        {
          "internalType": "bool",
          "name": "",
          "type": "bool"
        }
      ],
      "payable": false,
      "stateMutability": "nonpayable",
      "type": "function"
    },
    {
      "constant": false,
      "inputs": [
        {
          "internalType": "address",
          "name": "_account",
          "type": "address"
        },
        {
          "internalType": "uint256",
          "name": "_amount",
          "type": "uint256"
        }
      ],
      "name": "burn",
      "outputs": [
        {
          "internalType": "bool",
          "name": "",
          "type": "bool"
        }
      ],
      "payable": false,
      "stateMutability": "nonpayable",
      "type": "function"
    },
    {
      "constant": false,
      "inputs": [
        {
          "internalType": "address",
          "name": "_sender",
          "type": "address"
        },
        {
          "internalType": "address",
          "name": "poolAddress",
          "type": "address"
        },
        {
          "internalType": "uint256",
          "name": "_amount",
          "type": "uint256"
        }
      ],
      "name": "sendToPool",
      "outputs": [
        {
          "internalType": "bool",
          "name": "",
          "type": "bool"
        }
      ],
      "payable": false,
      "stateMutability": "nonpayable",
      "type": "function"
    },
    {
      "constant": false,
      "inputs": [
        {
          "internalType": "address",
          "name": "poolAddress",
          "type": "address"
        },
        {
          "internalType": "address",
          "name": "user",
          "type": "address"
        },
        {
          "internalType": "uint256",
          "name": "_amount",
          "type": "uint256"
        }
      ],
      "name": "returnFromPool",
      "outputs": [
        {
          "internalType": "bool",
          "name": "",
          "type": "bool"
        }
      ],
      "payable": false,
      "stateMutability": "nonpayable",
      "type": "function"
    },
    {
      "constant": true,
      "inputs": [],
      "name": "totalSupply",
      "outputs": [
        {
          "internalType": "uint256",
          "name": "",
          "type": "uint256"
        }
      ],
      "payable": false,
      "stateMutability": "view",
      "type": "function"
    },
    {
      "constant": true,
      "inputs": [
        {
          "internalType": "address",
          "name": "account",
          "type": "address"
        }
      ],
      "name": "balanceOf",
      "outputs": [
        {
          "internalType": "uint256",
          "name": "",
          "type": "uint256"
        }
      ],
      "payable": false,
      "stateMutability": "view",
      "type": "function"
    },
    {
      "constant": false,
      "inputs": [
        {
          "internalType": "address",
          "name": "recipient",
          "type": "address"
        },
        {
          "internalType": "uint256",
          "name": "amount",
          "type": "uint256"
        }
      ],
      "name": "transfer",
      "outputs": [
        {
          "internalType": "bool",
          "name": "",
          "type": "bool"
        }
      ],
      "payable": false,
      "stateMutability": "nonpayable",
      "type": "function"
    },
    {
      "constant": true,
      "inputs": [
        {
          "internalType": "address",
          "name": "owner",
          "type": "address"
        },
        {
          "internalType": "address",
          "name": "spender",
          "type": "address"
        }
      ],
      "name": "allowance",
      "outputs": [
        {
          "internalType": "uint256",
          "name": "",
          "type": "uint256"
        }
      ],
      "payable": false,
      "stateMutability": "view",
      "type": "function"
    },
    {
      "constant": false,
      "inputs": [
        {
          "internalType": "address",
          "name": "spender",
          "type": "address"
        },
        {
          "internalType": "uint256",
          "name": "amount",
          "type": "uint256"
        }
      ],
      "name": "approve",
      "outputs": [
        {
          "internalType": "bool",
          "name": "",
          "type": "bool"
        }
      ],
      "payable": false,
      "stateMutability": "nonpayable",
      "type": "function"
    },
    {
      "constant": false,
      "inputs": [
        {
          "internalType": "address",
          "name": "sender",
          "type": "address"
        },
        {
          "internalType": "address",
          "name": "recipient",
          "type": "address"
        },
        {
          "internalType": "uint256",
          "name": "amount",
          "type": "uint256"
        }
      ],
      "name": "transferFrom",
      "outputs": [
        {
          "internalType": "bool",
          "name": "",
          "type": "bool"
        }
      ],
      "payable": false,
      "stateMutability": "nonpayable",
      "type": "function"
    },
    {
      "constant": false,
      "inputs": [
        {
          "internalType": "address",
          "name": "spender",
          "type": "address"
        },
        {
          "internalType": "uint256",
          "name": "addedValue",
          "type": "uint256"
        }
      ],
      "name": "increaseAllowance",
      "outputs": [
        {
          "internalType": "bool",
          "name": "",
          "type": "bool"
        }
      ],
      "payable": false,
      "stateMutability": "nonpayable",
      "type": "function"
    },
    {
      "constant": false,
      "inputs": [
        {
          "internalType": "address",
          "name": "spender",
          "type": "address"
        },
        {
          "internalType": "uint256",
          "name": "subtractedValue",
          "type": "uint256"
        }
      ],
      "name": "decreaseAllowance",
      "outputs": [
        {
          "internalType": "bool",
          "name": "",
          "type": "bool"
        }
      ],
      "payable": false,
      "stateMutability": "nonpayable",
      "type": "function"
    }
  ],
  "bytecode": "0x608060405234801561001057600080fd5b506100226001600160e01b036100c516565b600080546001600160a01b0319166001600160a01b03928316178082556040519216917f8be0079c531659141344cd1fd0a4f28419497f9722a3daafe3b4186f6b6457e0908290a3604051610076906100c9565b604051809103906000f080158015610092573d6000803e3d6000fd5b50600480546001600160a01b03199081166001600160a01b039384161791829055600580549290931691161790556100d6565b3390565b610a6d806116dd83390190565b6115f8806100e56000396000f3fe608060405234801561001057600080fd5b50600436106101825760003560e01c80638da5cb5b116100d8578063ab95b1a21161008c578063dd62ed3e11610066578063dd62ed3e14610416578063e6a13f3014610444578063f2fde38b1461044c57610182565b8063ab95b1a2146103b2578063bb997bac146103d8578063cf56c99f1461040e57610182565b80639dc29fac116100bd5780639dc29fac1461032e578063a457c2d71461035a578063a9059cbb1461038657610182565b80638da5cb5b146103025780638f32d59b1461032657610182565b8063395093511161013a5780635ac801fe116101145780635ac801fe146102b557806370a08231146102d4578063715018a6146102fa57610182565b806339509351146102555780633eaaf86b1461028157806340c10f191461028957610182565b806318160ddd1161016b57806318160ddd146101e157806320c582be146101e957806323b872dd1461021f57610182565b806306fdde0314610187578063095ea7b3146101a1575b600080fd5b61018f610472565b60408051918252519081900360200190f35b6101cd600480360360408110156101b757600080fd5b506001600160a01b038135169060200135610478565b604080519115158252519081900360200190f35b61018f610495565b6101cd600480360360608110156101ff57600080fd5b506001600160a01b0381358116916020810135909116906040013561049b565b6101cd6004803603606081101561023557600080fd5b506001600160a01b03813581169160208101359091169060400135610550565b6101cd6004803603604081101561026b57600080fd5b506001600160a01b03813516906020013561064d565b61018f61072c565b6101cd6004803603604081101561029f57600080fd5b506001600160a01b038135169060200135610732565b6102d2600480360360208110156102cb57600080fd5b50356107e5565b005b61018f600480360360208110156102ea57600080fd5b50356001600160a01b0316610843565b6102d26108e1565b61030a610991565b604080516001600160a01b039092168252519081900360200190f35b6101cd6109a0565b6101cd6004803603604081101561034457600080fd5b506001600160a01b0381351690602001356109c4565b6101cd6004803603604081101561037057600080fd5b506001600160a01b038135169060200135610a2a565b6101cd6004803603604081101561039c57600080fd5b506001600160a01b038135169060200135610ac8565b6102d2600480360360208110156103c857600080fd5b50356001600160a01b0316610adc565b6101cd600480360360608110156103ee57600080fd5b506001600160a01b03813581169160208101359091169060400135610b96565b61030a610c4b565b61018f6004803603604081101561042c57600080fd5b506001600160a01b0381358116916020013516610c5a565b61030a610cce565b6102d26004803603602081101561046257600080fd5b50356001600160a01b0316610cdd565b60025481565b600061048c610485610d42565b8484610d46565b50600192915050565b60035490565b6001546000906001600160a01b03166104b2610d42565b6001600160a01b0316146104f75760405162461bcd60e51b815260040180806020018281038252602581526020018061157a6025913960400191505060405180910390fd5b610502848484610ea9565b604080516001600160a01b03861681526020810184905281517f35219d9223d5f1e0175ab717a2f671095fb0b34df51ad5255f2578870882dd9a929181900390910190a15060019392505050565b600061055d848484610ea9565b600061062e836040518060600160405280602881526020016114e8602891396004546001600160a01b0316630af4187d89610596610d42565b6040518363ffffffff1660e01b815260040180836001600160a01b03166001600160a01b03168152602001826001600160a01b03166001600160a01b031681526020019250505060206040518083038186803b1580156105f557600080fd5b505afa158015610609573d6000803e3d6000fd5b505050506040513d602081101561061f57600080fd5b5051919063ffffffff61105c16565b90506106428561063c610d42565b83610d46565b506001949350505050565b600454600090819061070e9084906001600160a01b0316630af4187d610671610d42565b604080517fffffffff0000000000000000000000000000000000000000000000000000000060e085901b1681526001600160a01b039283166004820152918a166024830152516044808301926020929190829003018186803b1580156106d657600080fd5b505afa1580156106ea573d6000803e3d6000fd5b505050506040513d602081101561070057600080fd5b50519063ffffffff6110f316565b905061072261071b610d42565b8583610d46565b5060019392505050565b60035481565b6001546000906001600160a01b0316610749610d42565b6001600160a01b03161461078e5760405162461bcd60e51b815260040180806020018281038252602581526020018061157a6025913960400191505060405180910390fd5b6107988383611154565b604080516001600160a01b03851681526020810184905281517f35219d9223d5f1e0175ab717a2f671095fb0b34df51ad5255f2578870882dd9a929181900390910190a150600192915050565b6107ed6109a0565b61083e576040805162461bcd60e51b815260206004820181905260248201527f4f776e61626c653a2063616c6c6572206973206e6f7420746865206f776e6572604482015290519081900360640190fd5b600255565b60048054604080517ff8b2cb4f0000000000000000000000000000000000000000000000000000000081526001600160a01b038581169482019490945290516000938493169163f8b2cb4f916024808301926020929190829003018186803b1580156108ae57600080fd5b505afa1580156108c2573d6000803e3d6000fd5b505050506040513d60208110156108d857600080fd5b50519392505050565b6108e96109a0565b61093a576040805162461bcd60e51b815260206004820181905260248201527f4f776e61626c653a2063616c6c6572206973206e6f7420746865206f776e6572604482015290519081900360640190fd5b600080546040516001600160a01b03909116907f8be0079c531659141344cd1fd0a4f28419497f9722a3daafe3b4186f6b6457e0908390a36000805473ffffffffffffffffffffffffffffffffffffffff19169055565b6000546001600160a01b031690565b600080546001600160a01b03166109b5610d42565b6001600160a01b031614905090565b6001546000906001600160a01b03166109db610d42565b6001600160a01b031614610a205760405162461bcd60e51b815260040180806020018281038252602581526020018061157a6025913960400191505060405180910390fd5b610798838361127b565b60008061070e8360405180606001604052806025815260200161159f602591396004546001600160a01b0316630af4187d610a63610d42565b604080517fffffffff0000000000000000000000000000000000000000000000000000000060e085901b1681526001600160a01b039283166004820152918b166024830152516044808301926020929190829003018186803b1580156105f557600080fd5b600061048c610ad5610d42565b8484610ea9565b610ae46109a0565b610b35576040805162461bcd60e51b815260206004820181905260248201527f4f776e61626c653a2063616c6c6572206973206e6f7420746865206f776e6572604482015290519081900360640190fd5b600180546001600160a01b03831673ffffffffffffffffffffffffffffffffffffffff19909116811790915560408051918252517f4d839b74477afe774fbb734df87db25e56c0427973aac588bb3ce7ce937f88509181900360200190a150565b6001546000906001600160a01b0316610bad610d42565b6001600160a01b031614610bf25760405162461bcd60e51b815260040180806020018281038252602581526020018061157a6025913960400191505060405180910390fd5b610bfd848484610ea9565b604080516001600160a01b03851681526020810184905281517f35219d9223d5f1e0175ab717a2f671095fb0b34df51ad5255f2578870882dd9a929181900390910190a15060019392505050565b6005546001600160a01b031681565b60048054604080517f0af4187d0000000000000000000000000000000000000000000000000000000081526001600160a01b03868116948201949094528484166024820152905160009390921691630af4187d91604480820192602092909190829003018186803b1580156108ae57600080fd5b6001546001600160a01b031681565b610ce56109a0565b610d36576040805162461bcd60e51b815260206004820181905260248201527f4f776e61626c653a2063616c6c6572206973206e6f7420746865206f776e6572604482015290519081900360640190fd5b610d3f8161138d565b50565b3390565b6001600160a01b038316610d8b5760405162461bcd60e51b81526004018080602001828103825260248152602001806115566024913960400191505060405180910390fd5b6001600160a01b038216610dd05760405162461bcd60e51b81526004018080602001828103825260228152602001806114c66022913960400191505060405180910390fd5b60048054604080517fda46098c0000000000000000000000000000000000000000000000000000000081526001600160a01b03878116948201949094528584166024820152604481018590529051929091169163da46098c9160648082019260009290919082900301818387803b158015610e4a57600080fd5b505af1158015610e5e573d6000803e3d6000fd5b50506040805184815290516001600160a01b038087169450871692507f8c5be1e5ebec7d5bd14f71427d1e84f3dd0314c0f7b2291e5b200ac8c7c3b9259181900360200190a3505050565b6001600160a01b038316610eee5760405162461bcd60e51b81526004018080602001828103825260258152602001806115316025913960400191505060405180910390fd5b6001600160a01b038216610f335760405162461bcd60e51b815260040180806020018281038252602381526020018061147d6023913960400191505060405180910390fd5b6004805460408051630c311fe960e41b81526001600160a01b0387811694820194909452602481018590529051929091169163c311fe909160448082019260009290919082900301818387803b158015610f8c57600080fd5b505af1158015610fa0573d6000803e3d6000fd5b505060048054604080516358403cd360e11b81526001600160a01b038881169482019490945260248101879052905192909116935063b08079a6925060448082019260009290919082900301818387803b158015610ffd57600080fd5b505af1158015611011573d6000803e3d6000fd5b50506040805184815290516001600160a01b038087169450871692507fddf252ad1be2c89b69c2b068fc378daa952ba7f163c4a11628f55a4df523b3ef9181900360200190a3505050565b600081848411156110eb5760405162461bcd60e51b81526004018080602001828103825283818151815260200191508051906020019080838360005b838110156110b0578181015183820152602001611098565b50505050905090810190601f1680156110dd5780820380516001836020036101000a031916815260200191505b509250505060405180910390fd5b505050900390565b60008282018381101561114d576040805162461bcd60e51b815260206004820152601b60248201527f536166654d6174683a206164646974696f6e206f766572666c6f770000000000604482015290519081900360640190fd5b9392505050565b6001600160a01b0382166111af576040805162461bcd60e51b815260206004820152601f60248201527f45524332303a206d696e7420746f20746865207a65726f206164647265737300604482015290519081900360640190fd5b6003546111c2908263ffffffff6110f316565b60035560048054604080516358403cd360e11b81526001600160a01b0386811694820194909452602481018590529051929091169163b08079a69160448082019260009290919082900301818387803b15801561121e57600080fd5b505af1158015611232573d6000803e3d6000fd5b50506040805184815290516001600160a01b0386169350600092507fddf252ad1be2c89b69c2b068fc378daa952ba7f163c4a11628f55a4df523b3ef9181900360200190a35050565b6001600160a01b0382166112c05760405162461bcd60e51b81526004018080602001828103825260218152602001806115106021913960400191505060405180910390fd5b6004805460408051630c311fe960e41b81526001600160a01b0386811694820194909452602481018590529051929091169163c311fe909160448082019260009290919082900301818387803b15801561131957600080fd5b505af115801561132d573d6000803e3d6000fd5b5050600354611345925090508263ffffffff61143a16565b6003556040805182815290516000916001600160a01b038516917fddf252ad1be2c89b69c2b068fc378daa952ba7f163c4a11628f55a4df523b3ef9181900360200190a35050565b6001600160a01b0381166113d25760405162461bcd60e51b81526004018080602001828103825260268152602001806114a06026913960400191505060405180910390fd5b600080546040516001600160a01b03808516939216917f8be0079c531659141344cd1fd0a4f28419497f9722a3daafe3b4186f6b6457e091a36000805473ffffffffffffffffffffffffffffffffffffffff19166001600160a01b0392909216919091179055565b600061114d83836040518060400160405280601e81526020017f536166654d6174683a207375627472616374696f6e206f766572666c6f77000081525061105c56fe45524332303a207472616e7366657220746f20746865207a65726f20616464726573734f776e61626c653a206e6577206f776e657220697320746865207a65726f206164647265737345524332303a20617070726f766520746f20746865207a65726f206164647265737345524332303a207472616e7366657220616d6f756e74206578636565647320616c6c6f77616e636545524332303a206275726e2066726f6d20746865207a65726f206164647265737345524332303a207472616e736665722066726f6d20746865207a65726f206164647265737345524332303a20617070726f76652066726f6d20746865207a65726f2061646472657373434c56546f6b656e3a204f6e6c792074686520706f6f6c20697320617574686f72697a656445524332303a2064656372656173656420616c6c6f77616e63652062656c6f77207a65726fa265627a7a723158202ea2578cb3681b73874b704b302405875b8b5d201ed6dd5a91219627dd43866064736f6c634300050b0032608060405234801561001057600080fd5b506100226001600160e01b036100a016565b600080546001600160a01b0319166001600160a01b03928316178082556040519216917f8be0079c531659141344cd1fd0a4f28419497f9722a3daafe3b4186f6b6457e0908290a361007b6001600160e01b036100a016565b600380546001600160a01b0319166001600160a01b03929092169190911790556100a4565b3390565b6109ba806100b36000396000f3fe608060405234801561001057600080fd5b50600436106100d45760003560e01c8063b08079a611610081578063e30443bc1161005b578063e30443bc14610245578063f2fde38b14610271578063f8b2cb4f14610297576100d4565b8063b08079a6146101b7578063c311fe90146101e3578063da46098c1461020f576100d4565b8063715018a6116100b2578063715018a61461016d5780638da5cb5b146101775780638f32d59b1461019b576100d4565b80630af4187d146100d957806327e235e31461011957806355b6ed5c1461013f575b600080fd5b610107600480360360408110156100ef57600080fd5b506001600160a01b03813581169160200135166102bd565b60408051918252519081900360200190f35b6101076004803603602081101561012f57600080fd5b50356001600160a01b0316610345565b6101076004803603604081101561015557600080fd5b506001600160a01b0381358116916020013516610357565b610175610374565b005b61017f610424565b604080516001600160a01b039092168252519081900360200190f35b6101a3610433565b604080519115158252519081900360200190f35b610175600480360360408110156101cd57600080fd5b506001600160a01b038135169060200135610457565b610175600480360360408110156101f957600080fd5b506001600160a01b0381351690602001356104f9565b6101756004803603606081101561022557600080fd5b506001600160a01b03813581169160208101359091169060400135610595565b6101756004803603604081101561025b57600080fd5b506001600160a01b03813516906020013561061a565b6101756004803603602081101561028757600080fd5b50356001600160a01b031661068f565b610107600480360360208110156102ad57600080fd5b50356001600160a01b03166106f4565b6003546000906001600160a01b03166102d461076c565b6001600160a01b0316146103195760405162461bcd60e51b81526004018080602001828103825260228152602001806109646022913960400191505060405180910390fd5b506001600160a01b03918216600090815260026020908152604080832093909416825291909152205490565b60016020526000908152604090205481565b600260209081526000928352604080842090915290825290205481565b61037c610433565b6103cd576040805162461bcd60e51b815260206004820181905260248201527f4f776e61626c653a2063616c6c6572206973206e6f7420746865206f776e6572604482015290519081900360640190fd5b600080546040516001600160a01b03909116907f8be0079c531659141344cd1fd0a4f28419497f9722a3daafe3b4186f6b6457e0908390a36000805473ffffffffffffffffffffffffffffffffffffffff19169055565b6000546001600160a01b031690565b600080546001600160a01b031661044861076c565b6001600160a01b031614905090565b6003546001600160a01b031661046b61076c565b6001600160a01b0316146104b05760405162461bcd60e51b81526004018080602001828103825260228152602001806109646022913960400191505060405180910390fd5b6001600160a01b0382166000908152600160205260409020546104d9908263ffffffff61077016565b6001600160a01b0390921660009081526001602052604090209190915550565b6003546001600160a01b031661050d61076c565b6001600160a01b0316146105525760405162461bcd60e51b81526004018080602001828103825260228152602001806109646022913960400191505060405180910390fd5b6104d98160405180606001604052806028815260200161093c602891396001600160a01b038516600090815260016020526040902054919063ffffffff6107d116565b6003546001600160a01b03166105a961076c565b6001600160a01b0316146105ee5760405162461bcd60e51b81526004018080602001828103825260228152602001806109646022913960400191505060405180910390fd5b6001600160a01b0392831660009081526002602090815260408083209490951682529290925291902055565b6003546001600160a01b031661062e61076c565b6001600160a01b0316146106735760405162461bcd60e51b81526004018080602001828103825260228152602001806109646022913960400191505060405180910390fd5b6001600160a01b03909116600090815260016020526040902055565b610697610433565b6106e8576040805162461bcd60e51b815260206004820181905260248201527f4f776e61626c653a2063616c6c6572206973206e6f7420746865206f776e6572604482015290519081900360640190fd5b6106f181610868565b50565b6003546000906001600160a01b031661070b61076c565b6001600160a01b0316146107505760405162461bcd60e51b81526004018080602001828103825260228152602001806109646022913960400191505060405180910390fd5b506001600160a01b031660009081526001602052604090205490565b3390565b6000828201838110156107ca576040805162461bcd60e51b815260206004820152601b60248201527f536166654d6174683a206164646974696f6e206f766572666c6f770000000000604482015290519081900360640190fd5b9392505050565b600081848411156108605760405162461bcd60e51b81526004018080602001828103825283818151815260200191508051906020019080838360005b8381101561082557818101518382015260200161080d565b50505050905090810190601f1680156108525780820380516001836020036101000a031916815260200191505b509250505060405180910390fd5b505050900390565b6001600160a01b0381166108ad5760405162461bcd60e51b81526004018080602001828103825260268152602001806109166026913960400191505060405180910390fd5b600080546040516001600160a01b03808516939216917f8be0079c531659141344cd1fd0a4f28419497f9722a3daafe3b4186f6b6457e091a36000805473ffffffffffffffffffffffffffffffffffffffff19166001600160a01b039290921691909117905556fe4f776e61626c653a206e6577206f776e657220697320746865207a65726f206164647265737345524332303a207375627472616374656420616d6f756e7420657863656564732062616c616e6365434c56546f6b656e446174613a206f6e6c7920636c76546f6b656e41646472657373a265627a7a723158209bbddfb85d426857833fb2abbd30a0bad369e9cef156626e6232d90b71a9049464736f6c634300050b0032",
  "source": "pragma solidity ^0.5.11;\r\n\r\nimport \"./ICLVToken.sol\";\r\nimport \"../node_modules/@openzeppelin/contracts/GSN/Context.sol\";\r\nimport \"../node_modules/@openzeppelin/contracts/math/SafeMath.sol\";\r\nimport \"../node_modules/@openzeppelin/contracts/ownership/Ownable.sol\";\r\nimport \"../node_modules/@openzeppelin/contracts/token/ERC20/ERC20.sol\";\r\nimport \"../node_modules/@openzeppelin/contracts/token/ERC20/IERC20.sol\";\r\nimport \"./CLVTokenData.sol\";\r\n\r\ncontract CLVToken is IERC20, ICLVToken, Ownable {\r\n    using SafeMath for uint256;\r\n    \r\n    event PoolManagerAddressChanged( address _newPoolManagerAddress);\r\n    event CLVTokenBalanceUpdated(address _user, uint _amount);\r\n\r\n    address public poolManagerAddress;\r\n    bytes32 public name;\r\n\r\n    uint256 public _totalSupply;\r\n\r\n    CLVTokenData clvTokenData;\r\n    address public tokenDataAddress;\r\n\r\n    constructor() public {\r\n        clvTokenData = new CLVTokenData();\r\n        tokenDataAddress = address(clvTokenData);\r\n    }    \r\n\r\n     modifier onlyPoolManager {\r\n        require(_msgSender() == poolManagerAddress, \"CLVToken: Only the pool is authorized\");\r\n        _;\r\n    }\r\n\r\n    function setPoolManagerAddress(address _poolManagerAddress) public onlyOwner {\r\n        poolManagerAddress =  _poolManagerAddress;\r\n        emit PoolManagerAddressChanged(_poolManagerAddress);\r\n    }\r\n    \r\n    function setName(bytes32 _name) public onlyOwner {\r\n        name = _name;\r\n    }\r\n\r\n    function mint(address _account, uint256 _amount) public onlyPoolManager returns (bool) {\r\n        _mint(_account, _amount);\r\n        emit CLVTokenBalanceUpdated(_account, _amount);\r\n        return true;\r\n    }\r\n    \r\n    function burn(address _account, uint256 _amount) public onlyPoolManager returns (bool) {\r\n        _burn(_account, _amount);\r\n         emit CLVTokenBalanceUpdated(_account, _amount);\r\n        return true;\r\n    }\r\n    \r\n    function sendToPool(address _sender,  address poolAddress, uint256 _amount) public onlyPoolManager returns (bool) {\r\n        _transfer(_sender, poolAddress, _amount);\r\n         emit CLVTokenBalanceUpdated(poolAddress, _amount);\r\n        return true;\r\n    }\r\n    \r\n    function returnFromPool(address poolAddress, address user, uint256 _amount ) public onlyPoolManager returns (bool) {\r\n        _transfer(poolAddress, user, _amount);\r\n        emit CLVTokenBalanceUpdated(poolAddress, _amount);\r\n        return true;\r\n    }\r\n\r\n   // ***** OPENZEPPELIN ERC20 FUNCTIONALITY *****\r\n\r\n   /**\r\n * @dev Implementation of the {IERC20} interface.\r\n *\r\n * This implementation is agnostic to the way tokens are created. This means\r\n * that a supply mechanism has to be added in a derived contract using {_mint}.\r\n * For a generic mechanism see {ERC20Mintable}.\r\n *\r\n * TIP: For a detailed writeup see our guide\r\n * https://forum.zeppelin.solutions/t/how-to-implement-erc20-supply-mechanisms/226[How\r\n * to implement supply mechanisms].\r\n *\r\n * We have followed general OpenZeppelin guidelines: functions revert instead\r\n * of returning `false` on failure. This behavior is nonetheless conventional\r\n * and does not conflict with the expectations of ERC20 applications.\r\n *\r\n * Additionally, an {Approval} event is emitted on calls to {transferFrom}.\r\n * This allows applications to reconstruct the allowance for all accounts just\r\n * by listening to said events. Other implementations of the EIP may not emit\r\n * these events, as it isn't required by the specification.\r\n *\r\n * Finally, the non-standard {decreaseAllowance} and {increaseAllowance}\r\n * functions have been added to mitigate the well-known issues around setting\r\n * allowances. See {IERC20-approve}.\r\n */\r\n   \r\n    /**\r\n     * @dev See {IERC20-totalSupply}.\r\n     */\r\n    function totalSupply() public view returns (uint256) {\r\n        return _totalSupply;\r\n    }\r\n\r\n    /**\r\n     * @dev See {IERC20-balanceOf}.\r\n     */\r\n    function balanceOf(address account) public view returns (uint256) {\r\n        uint balance = clvTokenData.getBalance(account); \r\n        return balance; \r\n    }\r\n\r\n    /**\r\n     * @dev See {IERC20-transfer}.\r\n     *\r\n     * Requirements:\r\n     *\r\n     * - `recipient` cannot be the zero address.\r\n     * - the caller must have a balance of at least `amount`.\r\n     */\r\n    function transfer(address recipient, uint256 amount) public returns (bool) {\r\n        _transfer(_msgSender(), recipient, amount);\r\n        return true;\r\n    }\r\n\r\n    /**\r\n     * @dev See {IERC20-allowance}.\r\n     */\r\n    function allowance(address owner, address spender) public view returns (uint256) {\r\n        return clvTokenData.getAllowance(owner, spender);\r\n    }\r\n\r\n    /**\r\n     * @dev See {IERC20-approve}.\r\n     *\r\n     * Requirements:\r\n     *\r\n     * - `spender` cannot be the zero address.\r\n     */\r\n    function approve(address spender, uint256 amount) public returns (bool) {\r\n        _approve(_msgSender(), spender, amount);\r\n        return true;\r\n    }\r\n\r\n    /**\r\n     * @dev See {IERC20-transferFrom}.\r\n     *\r\n     * Emits an {Approval} event indicating the updated allowance. This is not\r\n     * required by the EIP. See the note at the beginning of {ERC20};\r\n     *\r\n     * Requirements:\r\n     * - `sender` and `recipient` cannot be the zero address.\r\n     * - `sender` must have a balance of at least `amount`.\r\n     * - the caller must have allowance for `sender`'s tokens of at least\r\n     * `amount`.\r\n     */\r\n    function transferFrom(address sender, address recipient, uint256 amount) public returns (bool) {\r\n        _transfer(sender, recipient, amount);\r\n        uint newAllowance = clvTokenData.getAllowance(sender, _msgSender()).sub(amount, \"ERC20: transfer amount exceeds allowance\");\r\n        _approve(sender, _msgSender(), newAllowance);\r\n        return true;\r\n    }\r\n\r\n    /**\r\n     * @dev Atomically increases the allowance granted to `spender` by the caller.\r\n     *\r\n     * This is an alternative to {approve} that can be used as a mitigation for\r\n     * problems described in {IERC20-approve}.\r\n     *\r\n     * Emits an {Approval} event indicating the updated allowance.\r\n     *\r\n     * Requirements:\r\n     *\r\n     * - `spender` cannot be the zero address.\r\n     */\r\n    function increaseAllowance(address spender, uint256 addedValue) public returns (bool) {\r\n        uint newAllowance = clvTokenData.getAllowance(_msgSender(),spender).add(addedValue);\r\n        _approve(_msgSender(), spender, newAllowance);\r\n        return true;\r\n    }\r\n\r\n    /**\r\n     * @dev Atomically decreases the allowance granted to `spender` by the caller.\r\n     *\r\n     * This is an alternative to {approve} that can be used as a mitigation for\r\n     * problems described in {IERC20-approve}.\r\n     *\r\n     * Emits an {Approval} event indicating the updated allowance.\r\n     *\r\n     * Requirements:\r\n     *\r\n     * - `spender` cannot be the zero address.\r\n     * - `spender` must have allowance for the caller of at least\r\n     * `subtractedValue`.\r\n     */\r\n    function decreaseAllowance(address spender, uint256 subtractedValue) public returns (bool) {\r\n        uint newAllowance = clvTokenData.getAllowance(_msgSender(), spender).sub(subtractedValue, \"ERC20: decreased allowance below zero\");\r\n        _approve(_msgSender(), spender, newAllowance);\r\n        return true;\r\n    }\r\n\r\n    /**\r\n     * @dev Moves tokens `amount` from `sender` to `recipient`.\r\n     *\r\n     * This is internal function is equivalent to {transfer}, and can be used to\r\n     * e.g. implement automatic token fees, slashing mechanisms, etc.\r\n     *\r\n     * Emits a {Transfer} event.\r\n     *\r\n     * Requirements:\r\n     *\r\n     * - `sender` cannot be the zero address.\r\n     * - `recipient` cannot be the zero address.\r\n     * - `sender` must have a balance of at least `amount`.\r\n     */\r\n    function _transfer(address sender, address recipient, uint256 amount) internal {\r\n        require(sender != address(0), \"ERC20: transfer from the zero address\");\r\n        require(recipient != address(0), \"ERC20: transfer to the zero address\");\r\n\r\n        clvTokenData.subFromBalance(sender, amount);\r\n        clvTokenData.addToBalance(recipient, amount);\r\n        emit Transfer(sender, recipient, amount);\r\n    }\r\n\r\n    /** @dev Creates `amount` tokens and assigns them to `account`, increasing\r\n     * the total supply.\r\n     *\r\n     * Emits a {Transfer} event with `from` set to the zero address.\r\n     *\r\n     * Requirements\r\n     *\r\n     * - `to` cannot be the zero address.\r\n     */\r\n    function _mint(address account, uint256 amount) internal {\r\n        require(account != address(0), \"ERC20: mint to the zero address\");\r\n\r\n        _totalSupply = _totalSupply.add(amount);\r\n        clvTokenData.addToBalance(account, amount);\r\n        emit Transfer(address(0), account, amount);\r\n    }\r\n\r\n     /**\r\n     * @dev Destroys `amount` tokens from `account`, reducing the\r\n     * total supply.\r\n     *\r\n     * Emits a {Transfer} event with `to` set to the zero address.\r\n     *\r\n     * Requirements\r\n     *\r\n     * - `account` cannot be the zero address.\r\n     * - `account` must have at least `amount` tokens.\r\n     */\r\n    function _burn(address account, uint256 amount) internal {\r\n        require(account != address(0), \"ERC20: burn from the zero address\");\r\n\r\n        clvTokenData.subFromBalance(account, amount);\r\n        _totalSupply = _totalSupply.sub(amount);\r\n        emit Transfer(account, address(0), amount);\r\n    }\r\n\r\n    /**\r\n     * @dev Sets `amount` as the allowance of `spender` over the `owner`s tokens.\r\n     *\r\n     * This is internal function is equivalent to `approve`, and can be used to\r\n     * e.g. set automatic allowances for certain subsystems, etc.\r\n     *\r\n     * Emits an {Approval} event.\r\n     *\r\n     * Requirements:\r\n     *\r\n     * - `owner` cannot be the zero address.\r\n     * - `spender` cannot be the zero address.\r\n     */\r\n    function _approve(address owner, address spender, uint256 amount) internal {\r\n        require(owner != address(0), \"ERC20: approve from the zero address\");\r\n        require(spender != address(0), \"ERC20: approve to the zero address\");\r\n\r\n        clvTokenData.setAllowance(owner, spender, amount);\r\n        emit Approval(owner, spender, amount);\r\n    }\r\n\r\n    /**\r\n     * @dev Destroys `amount` tokens from `account`.`amount` is then deducted\r\n     * from the caller's allowance.\r\n     *\r\n     * See {_burn} and {_approve}.\r\n     */\r\n    function _burnFrom(address account, uint256 amount) internal {\r\n        _burn(account, amount);\r\n        uint newAllowance = clvTokenData.getAllowance(account, _msgSender()).sub(amount, \"ERC20: burn amount exceeds allowance\");\r\n        _approve(account, _msgSender(), newAllowance);\r\n    }\r\n}\r\n",
  "sourcePath": "C:/Users/Rick/Desktop/Cleverage/contracts/CLVToken.sol",
  "compiler": {
    "name": "solc",
    "version": "0.5.11+commit.c082d0b4.Emscripten.clang"
  },
  "schemaVersion": "3.0.20",
  "updatedAt": "2019-12-26T17:22:24.845Z",
  "networkType": "ethereum",
  "devdoc": {
    "methods": {
      "allowance(address,address)": {
        "details": "See {IERC20-allowance}.\r"
      },
      "approve(address,uint256)": {
        "details": "See {IERC20-approve}.\r      * Requirements:\r      * - `spender` cannot be the zero address.\r"
      },
      "balanceOf(address)": {
        "details": "See {IERC20-balanceOf}.\r"
      },
      "decreaseAllowance(address,uint256)": {
        "details": "Atomically decreases the allowance granted to `spender` by the caller.\r      * This is an alternative to {approve} that can be used as a mitigation for\r problems described in {IERC20-approve}.\r      * Emits an {Approval} event indicating the updated allowance.\r      * Requirements:\r      * - `spender` cannot be the zero address.\r - `spender` must have allowance for the caller of at least\r `subtractedValue`.\r"
      },
      "increaseAllowance(address,uint256)": {
        "details": "Atomically increases the allowance granted to `spender` by the caller.\r      * This is an alternative to {approve} that can be used as a mitigation for\r problems described in {IERC20-approve}.\r      * Emits an {Approval} event indicating the updated allowance.\r      * Requirements:\r      * - `spender` cannot be the zero address.\r"
      },
      "isOwner()": {
        "details": "Returns true if the caller is the current owner."
      },
      "owner()": {
        "details": "Returns the address of the current owner."
      },
      "renounceOwnership()": {
        "details": "Leaves the contract without owner. It will not be possible to call `onlyOwner` functions anymore. Can only be called by the current owner.     * NOTE: Renouncing ownership will leave the contract without an owner, thereby removing any functionality that is only available to the owner."
      },
      "totalSupply()": {
        "details": "See {IERC20-totalSupply}.\r"
      },
      "transfer(address,uint256)": {
        "details": "See {IERC20-transfer}.\r      * Requirements:\r      * - `recipient` cannot be the zero address.\r - the caller must have a balance of at least `amount`.\r"
      },
      "transferFrom(address,address,uint256)": {
        "details": "See {IERC20-transferFrom}.\r      * Emits an {Approval} event indicating the updated allowance. This is not\r required by the EIP. See the note at the beginning of {ERC20};\r      * Requirements:\r - `sender` and `recipient` cannot be the zero address.\r - `sender` must have a balance of at least `amount`.\r - the caller must have allowance for `sender`'s tokens of at least\r `amount`.\r"
      },
      "transferOwnership(address)": {
        "details": "Transfers ownership of the contract to a new account (`newOwner`). Can only be called by the current owner."
      }
    }
  },
  "userdoc": {
    "methods": {}
  }
}