{
  "contractName": "DeciMath",
  "abi": [
    {
      "constant": true,
      "inputs": [
        {
          "internalType": "uint256",
          "name": "x",
          "type": "uint256"
        },
        {
          "internalType": "uint256",
          "name": "y",
          "type": "uint256"
        },
        {
          "internalType": "uint256",
          "name": "z",
          "type": "uint256"
        }
      ],
      "name": "accurateMulDiv",
      "outputs": [
        {
          "internalType": "uint256",
          "name": "fraction",
          "type": "uint256"
        }
      ],
      "payable": false,
      "stateMutability": "pure",
      "type": "function"
    },
    {
      "constant": true,
      "inputs": [
        {
          "internalType": "uint256",
          "name": "x",
          "type": "uint256"
        },
        {
          "internalType": "uint256",
          "name": "y",
          "type": "uint256"
        }
      ],
      "name": "decDiv",
      "outputs": [
        {
          "internalType": "uint256",
          "name": "quotient",
          "type": "uint256"
        }
      ],
      "payable": false,
      "stateMutability": "pure",
      "type": "function"
    },
    {
      "constant": true,
      "inputs": [
        {
          "internalType": "uint256",
          "name": "x",
          "type": "uint256"
        },
        {
          "internalType": "uint256",
          "name": "y",
          "type": "uint256"
        }
      ],
      "name": "decMul",
      "outputs": [
        {
          "internalType": "uint256",
          "name": "prod",
          "type": "uint256"
        }
      ],
      "payable": false,
      "stateMutability": "pure",
      "type": "function"
    },
    {
      "constant": true,
      "inputs": [
        {
          "internalType": "uint256",
          "name": "integer",
          "type": "uint256"
        }
      ],
      "name": "toDuint",
      "outputs": [
        {
          "internalType": "uint256",
          "name": "",
          "type": "uint256"
        }
      ],
      "payable": false,
      "stateMutability": "pure",
      "type": "function"
    },
    {
      "constant": true,
      "inputs": [
        {
          "internalType": "uint256",
          "name": "duint",
          "type": "uint256"
        }
      ],
      "name": "fromDuint",
      "outputs": [
        {
          "internalType": "uint256",
          "name": "",
          "type": "uint256"
        }
      ],
      "payable": false,
      "stateMutability": "pure",
      "type": "function"
    },
    {
      "constant": true,
      "inputs": [
        {
          "internalType": "uint256",
          "name": "duint",
          "type": "uint256"
        }
      ],
      "name": "fromDuint_commonRounding",
      "outputs": [
        {
          "internalType": "uint256",
          "name": "",
          "type": "uint256"
        }
      ],
      "payable": false,
      "stateMutability": "pure",
      "type": "function"
    },
    {
      "constant": true,
      "inputs": [
        {
          "internalType": "uint256",
          "name": "a",
          "type": "uint256"
        },
        {
          "internalType": "uint256",
          "name": "b",
          "type": "uint256"
        }
      ],
      "name": "normalDiv",
      "outputs": [
        {
          "internalType": "uint256",
          "name": "",
          "type": "uint256"
        }
      ],
      "payable": false,
      "stateMutability": "pure",
      "type": "function"
    },
    {
      "constant": true,
      "inputs": [
        {
          "internalType": "uint256",
          "name": "a",
          "type": "uint256"
        },
        {
          "internalType": "uint256",
          "name": "b",
          "type": "uint256"
        }
      ],
      "name": "normalMul",
      "outputs": [
        {
          "internalType": "uint256",
          "name": "",
          "type": "uint256"
        }
      ],
      "payable": false,
      "stateMutability": "pure",
      "type": "function"
    }
  ],
  "bytecode": "0x61052c610026600b82828239805160001a60731461001957fe5b30600052607381538281f3fe73000000000000000000000000000000000000000030146080604052600436106100825760003560e01c80633c3e4c50146100875780634e121d31146100b6578063563d4c23146100d95780635a1b090614610102578063673e949914610125578063689ab3e8146101425780637205a09f1461015f578063d4eb144114610182575b600080fd5b6100a46004803603602081101561009d57600080fd5b50356101a5565b60408051918252519081900360200190f35b6100a4600480360360408110156100cc57600080fd5b50803590602001356101c1565b6100a4600480360360608110156100ef57600080fd5b50803590602081013590604001356101d6565b6100a46004803603604081101561011857600080fd5b5080359060200135610233565b6100a46004803603602081101561013b57600080fd5b503561023f565b6100a46004803603602081101561015857600080fd5b50356102b4565b6100a46004803603604081101561017557600080fd5b50803590602001356102c8565b6100a46004803603604081101561019857600080fd5b508035906020013561030a565b60006101b982670de0b6b3a7640000610344565b90505b919050565b60006101cd838361039d565b90505b92915050565b6000806101e2856101a5565b905060006101ef856101a5565b905060006101fc856101a5565b9050600061020a848461030a565b9050600061021882846102c8565b90506000610225826102b4565b9a9950505050505050505050565b60006101cd8383610344565b6000808061025f670de0b6b3a7640000850667016345785d8a000061039d565b9050600581106102885761027b84670de0b6b3a764000061039d565b60010192506101bc915050565b60058110156102ad576102a384670de0b6b3a764000061039d565b92506101bc915050565b5050919050565b60006101b982670de0b6b3a764000061039d565b6000806102dd84670de0b6b3a7640000610344565b905060006102ec84600261039d565b90506103016102fb83836103dc565b8561039d565b95945050505050565b6000806103178484610344565b905061033c61032e826706f05b59d3b200006103dc565b670de0b6b3a764000061039d565b949350505050565b600082610353575060006101d0565b8282028284828161036057fe5b04146101cd5760405162461bcd60e51b81526004018080602001828103825260218152602001806104d76021913960400191505060405180910390fd5b60006101cd83836040518060400160405280601a815260200179536166654d6174683a206469766973696f6e206279207a65726f60301b815250610434565b6000828201838110156101cd576040805162461bcd60e51b815260206004820152601b60248201527a536166654d6174683a206164646974696f6e206f766572666c6f7760281b604482015290519081900360640190fd5b600081836104c05760405162461bcd60e51b81526004018080602001828103825283818151815260200191508051906020019080838360005b8381101561048557818101518382015260200161046d565b50505050905090810190601f1680156104b25780820380516001836020036101000a031916815260200191505b509250505060405180910390fd5b5060008385816104cc57fe5b049594505050505056fe536166654d6174683a206d756c7469706c69636174696f6e206f766572666c6f77a265627a7a7231582068838beb5316b7b6fd2485bff79f4f826256159730a6efe6333cf141a68e805864736f6c634300050c0032",
  "source": "pragma solidity ^0.5.11;\r\n\r\nimport \"../node_modules/@openzeppelin/contracts/math/SafeMath.sol\";\r\n\r\nlibrary DeciMath {\r\n    /* \r\n    DeciMath functions use the concept of a 'duint':\r\n    \r\n    A duint is a uint representation of an 18DP decimal number. The right-most \r\n    18 digits correspond to the mantissa, i.e. the digits after the decimal point. \r\n\r\n    Examples:\r\n       1000000000000000000   represents 1\r\n       5432100000000000000   represents 5.4321\r\n               34560000000   represents 0.00000003456\r\n     370000000000000000000   represents 370\r\n                         1   represents 1e-18\r\n\r\n     etc. \r\n    */\r\n\r\n    uint constant _1E18 = 10**18;\r\n    uint constant _1E17 = 10**17;\r\n    uint constant _5E17 = 5*(10**17);\r\n\r\n    // --- Accurate decimal math functions ---\r\n\r\n    /* Accurately calculate (x * y) / z. Converts all arguments to 'duints', performs \r\n    calculations, then converts the result back to uint before returning */\r\n    function accurateMulDiv(uint x, uint y, uint z) public pure returns (uint fraction) {\r\n    // convert all uint to duint\r\n        uint x_duint = toDuint(x);\r\n        uint y_duint = toDuint(y);\r\n        uint z_duint = toDuint(z);\r\n\r\n        // perform duint operations. \r\n        uint prod_duint = decMul(x_duint, y_duint);    //  (x * y).  If y is guaranteed to be an integer (i.e. not duint) could use normalMul(x_duint, y) here to save gas.\r\n        uint res_duint = decDiv(prod_duint, z_duint);   // (x* y) / z\r\n\r\n        // convert result back to uint\r\n        uint result = fromDuint(res_duint);\r\n\r\n        return result;\r\n    }\r\n\r\n    // Accurately divides one 'duint' by another. Returns a 'duint'\r\n    function decDiv(uint x, uint y) public pure returns (uint quotient) {\r\n        uint prod_x_1E18 = SafeMath.mul(x, _1E18);\r\n        uint half_y = SafeMath.div(y, 2);\r\n\r\n        quotient = SafeMath.div(SafeMath.add( prod_x_1E18, half_y), y);\r\n        return quotient;\r\n    }\r\n\r\n     // Accurately multiplies two 'duints'. Returns a 'duint'\r\n    function decMul(uint x, uint y) public pure returns (uint prod) {\r\n        uint prod_xy = SafeMath.mul(x, y);\r\n       \r\n        prod = SafeMath.div(SafeMath.add(prod_xy, _5E17), _1E18 );\r\n        \r\n        return prod;\r\n    }\r\n\r\n     // --- Helpers. Convert to and from duints ---\r\n\r\n    function toDuint(uint integer) public pure returns(uint) {\r\n        return SafeMath.mul(integer, _1E18);\r\n    }\r\n\r\n    function fromDuint(uint duint) public pure returns(uint) {\r\n        // rounding: always round down\r\n        return SafeMath.div(duint, _1E18);\r\n    }\r\n\r\n    function fromDuint_commonRounding(uint duint) public pure returns(uint) {\r\n        // rounding: common rounding. If first mantissa digit >=5 round up, else round down.\r\n        uint integer;\r\n        uint firstDecimalDigit = SafeMath.div(duint % _1E18, _1E17); // grab 18th digit from-right\r\n        \r\n        if (firstDecimalDigit >= 5 ){\r\n            integer =  SafeMath.div(duint, _1E18) + 1;  // round up\r\n            return integer;\r\n        } else if (firstDecimalDigit < 5 ) {\r\n            integer =  SafeMath.div(duint, _1E18); // round down\r\n            return integer;\r\n        }\r\n    }\r\n\r\n     // --- Normal Solidity multiplication and floor division ---\r\n    function normalDiv(uint a, uint b) public pure returns(uint) {\r\n        return SafeMath.div(a, b);\r\n    }\r\n\r\n    function normalMul(uint a, uint b) public pure returns(uint) {\r\n        return SafeMath.mul(a, b);\r\n    }  \r\n}\r\n",
  "sourcePath": "C:\\Users\\Administrator\\Desktop\\Cleverage\\contracts\\DeciMath.sol",
  "compiler": {
    "name": "solc",
    "version": "0.5.12+commit.7709ece9.Emscripten.clang"
  },
  "schemaVersion": "3.0.19",
  "updatedAt": "2019-12-20T09:33:21.028Z",
  "networkType": "ethereum",
  "devdoc": {
    "methods": {}
  },
  "userdoc": {
    "methods": {}
  }
}