{
  "contractName": "DeciMath",
  "abi": [
    {
      "constant": true,
      "inputs": [
        {
          "internalType": "uint256",
          "name": "x",
          "type": "uint256"
        },
        {
          "internalType": "uint256",
          "name": "y",
          "type": "uint256"
        },
        {
          "internalType": "uint256",
          "name": "z",
          "type": "uint256"
        }
      ],
      "name": "accurateMulDiv",
      "outputs": [
        {
          "internalType": "uint256",
          "name": "fraction",
          "type": "uint256"
        }
      ],
      "payable": false,
      "stateMutability": "pure",
      "type": "function"
    },
    {
      "constant": true,
      "inputs": [
        {
          "internalType": "uint256",
          "name": "x",
          "type": "uint256"
        },
        {
          "internalType": "uint256",
          "name": "y",
          "type": "uint256"
        }
      ],
      "name": "decDiv",
      "outputs": [
        {
          "internalType": "uint256",
          "name": "quotient",
          "type": "uint256"
        }
      ],
      "payable": false,
      "stateMutability": "pure",
      "type": "function"
    },
    {
      "constant": true,
      "inputs": [
        {
          "internalType": "uint256",
          "name": "x",
          "type": "uint256"
        },
        {
          "internalType": "uint256",
          "name": "y",
          "type": "uint256"
        }
      ],
      "name": "decMul",
      "outputs": [
        {
          "internalType": "uint256",
          "name": "prod",
          "type": "uint256"
        }
      ],
      "payable": false,
      "stateMutability": "pure",
      "type": "function"
    },
    {
      "constant": true,
      "inputs": [
        {
          "internalType": "uint256",
          "name": "integer",
          "type": "uint256"
        }
      ],
      "name": "toDuint",
      "outputs": [
        {
          "internalType": "uint256",
          "name": "",
          "type": "uint256"
        }
      ],
      "payable": false,
      "stateMutability": "pure",
      "type": "function"
    },
    {
      "constant": true,
      "inputs": [
        {
          "internalType": "uint256",
          "name": "duint",
          "type": "uint256"
        }
      ],
      "name": "fromDuint",
      "outputs": [
        {
          "internalType": "uint256",
          "name": "",
          "type": "uint256"
        }
      ],
      "payable": false,
      "stateMutability": "pure",
      "type": "function"
    },
    {
      "constant": true,
      "inputs": [
        {
          "internalType": "uint256",
          "name": "duint",
          "type": "uint256"
        }
      ],
      "name": "fromDuint_commonRounding",
      "outputs": [
        {
          "internalType": "uint256",
          "name": "",
          "type": "uint256"
        }
      ],
      "payable": false,
      "stateMutability": "pure",
      "type": "function"
    },
    {
      "constant": true,
      "inputs": [
        {
          "internalType": "uint256",
          "name": "a",
          "type": "uint256"
        },
        {
          "internalType": "uint256",
          "name": "b",
          "type": "uint256"
        }
      ],
      "name": "normalDiv",
      "outputs": [
        {
          "internalType": "uint256",
          "name": "",
          "type": "uint256"
        }
      ],
      "payable": false,
      "stateMutability": "pure",
      "type": "function"
    },
    {
      "constant": true,
      "inputs": [
        {
          "internalType": "uint256",
          "name": "a",
          "type": "uint256"
        },
        {
          "internalType": "uint256",
          "name": "b",
          "type": "uint256"
        }
      ],
      "name": "normalMul",
      "outputs": [
        {
          "internalType": "uint256",
          "name": "",
          "type": "uint256"
        }
      ],
      "payable": false,
      "stateMutability": "pure",
      "type": "function"
    }
  ],
  "bytecode": "0x61071c610026600b82828239805160001a60731461001957fe5b30600052607381538281f3fe73000000000000000000000000000000000000000030146080604052600436106100925760003560e01c8063673e949911610065578063673e9499146101c7578063689ab3e8146102095780637205a09f1461024b578063d4eb14411461029757610092565b80633c3e4c50146100975780634e121d31146100d9578063563d4c23146101255780635a1b09061461017b575b600080fd5b6100c3600480360360208110156100ad57600080fd5b81019080803590602001909291905050506102e3565b6040518082815260200191505060405180910390f35b61010f600480360360408110156100ef57600080fd5b8101908080359060200190929190803590602001909291905050506102fe565b6040518082815260200191505060405180910390f35b6101656004803603606081101561013b57600080fd5b81019080803590602001909291908035906020019092919080359060200190929190505050610312565b6040518082815260200191505060405180910390f35b6101b16004803603604081101561019157600080fd5b810190808035906020019092919080359060200190929190505050610373565b6040518082815260200191505060405180910390f35b6101f3600480360360208110156101dd57600080fd5b8101908080359060200190929190505050610387565b6040518082815260200191505060405180910390f35b6102356004803603602081101561021f57600080fd5b8101908080359060200190929190505050610409565b6040518082815260200191505060405180910390f35b6102816004803603604081101561026157600080fd5b810190808035906020019092919080359060200190929190505050610424565b6040518082815260200191505060405180910390f35b6102cd600480360360408110156102ad57600080fd5b81019080803590602001909291908035906020019092919050505061046a565b6040518082815260200191505060405180910390f35b60006102f782670de0b6b3a76400006104a8565b9050919050565b600061030a838361052e565b905092915050565b60008061031e856102e3565b9050600061032b856102e3565b90506000610338856102e3565b90506000610346848461046a565b905060006103548284610424565b9050600061036182610409565b90508096505050505050509392505050565b600061037f83836104a8565b905092915050565b60008060006103af670de0b6b3a764000085816103a057fe5b0667016345785d8a000061052e565b9050600581106103da5760016103cd85670de0b6b3a764000061052e565b0191508192505050610404565b6005811015610401576103f584670de0b6b3a764000061052e565b91508192505050610404565b50505b919050565b600061041d82670de0b6b3a764000061052e565b9050919050565b60008061043984670de0b6b3a76400006104a8565b9050600061044884600261052e565b905061045d6104578383610578565b8561052e565b9250829250505092915050565b60008061047784846104a8565b905061049c61048e826706f05b59d3b20000610578565b670de0b6b3a764000061052e565b91508191505092915050565b6000808314156104bb5760009050610528565b60008284029050828482816104cc57fe5b0414610523576040517f08c379a00000000000000000000000000000000000000000000000000000000081526004018080602001828103825260218152602001806106c76021913960400191505060405180910390fd5b809150505b92915050565b600061057083836040518060400160405280601a81526020017f536166654d6174683a206469766973696f6e206279207a65726f000000000000815250610600565b905092915050565b6000808284019050838110156105f6576040517f08c379a000000000000000000000000000000000000000000000000000000000815260040180806020018281038252601b8152602001807f536166654d6174683a206164646974696f6e206f766572666c6f77000000000081525060200191505060405180910390fd5b8091505092915050565b600080831182906106ac576040517f08c379a00000000000000000000000000000000000000000000000000000000081526004018080602001828103825283818151815260200191508051906020019080838360005b83811015610671578082015181840152602081019050610656565b50505050905090810190601f16801561069e5780820380516001836020036101000a031916815260200191505b509250505060405180910390fd5b5060008385816106b857fe5b04905080915050939250505056fe536166654d6174683a206d756c7469706c69636174696f6e206f766572666c6f77a265627a7a72315820afe2e4016743e1bf0a033946546890adb3bc17d458d96ed4691a5905d65a715864736f6c634300050c0032",
  "source": "pragma solidity ^0.5.11;\r\n\r\nimport \"../node_modules/@openzeppelin/contracts/math/SafeMath.sol\";\r\n\r\nlibrary DeciMath {\r\n    /* \r\n    DeciMath functions use the concept of a 'duint':\r\n    \r\n    A duint is a uint representation of an 18DP decimal number. The right-most \r\n    18 digits correspond to the mantissa, i.e. the digits after the decimal point. \r\n\r\n    Examples:\r\n       1000000000000000000   represents 1\r\n       5432100000000000000   represents 5.4321\r\n               34560000000   represents 0.00000003456\r\n     370000000000000000000   represents 370\r\n                         1   represents 1e-18\r\n\r\n     etc. \r\n    */\r\n\r\n    uint constant _1E18 = 10**18;\r\n    uint constant _1E17 = 10**17;\r\n    uint constant _5E17 = 5*(10**17);\r\n\r\n    // --- Accurate decimal math functions ---\r\n\r\n    /* Accurately calculate (x * y) / z. Converts all arguments to 'duints', performs \r\n    calculations, then converts the result back to uint before returning */\r\n    function accurateMulDiv(uint x, uint y, uint z) public pure returns (uint fraction) {\r\n    // convert all uint to duint\r\n        uint x_duint = toDuint(x);\r\n        uint y_duint = toDuint(y);\r\n        uint z_duint = toDuint(z);\r\n\r\n        // perform duint operations. \r\n        uint prod_duint = decMul(x_duint, y_duint);    //  (x * y).  If y is guaranteed to be an integer (i.e. not duint) could use normalMul(x_duint, y) here to save gas.\r\n        uint res_duint = decDiv(prod_duint, z_duint);   // (x* y) / z\r\n\r\n        // convert result back to uint\r\n        uint result = fromDuint(res_duint);\r\n\r\n        return result;\r\n    }\r\n\r\n    // Accurately divides one 'duint' by another. Returns a 'duint'\r\n    function decDiv(uint x, uint y) public pure returns (uint quotient) {\r\n        uint prod_x_1E18 = SafeMath.mul(x, _1E18);\r\n        uint half_y = SafeMath.div(y, 2);\r\n\r\n        quotient = SafeMath.div(SafeMath.add( prod_x_1E18, half_y), y);\r\n        return quotient;\r\n    }\r\n\r\n     // Accurately multiplies two 'duints'. Returns a 'duint'\r\n    function decMul(uint x, uint y) public pure returns (uint prod) {\r\n        uint prod_xy = SafeMath.mul(x, y);\r\n       \r\n        prod = SafeMath.div(SafeMath.add(prod_xy, _5E17), _1E18 );\r\n        \r\n        return prod;\r\n    }\r\n\r\n     // --- Helpers. Convert to and from duints ---\r\n\r\n    function toDuint(uint integer) public pure returns(uint) {\r\n        return SafeMath.mul(integer, _1E18);\r\n    }\r\n\r\n    function fromDuint(uint duint) public pure returns(uint) {\r\n        // rounding: always round down\r\n        return SafeMath.div(duint, _1E18);\r\n    }\r\n\r\n    function fromDuint_commonRounding(uint duint) public pure returns(uint) {\r\n        // rounding: common rounding. If first mantissa digit >=5 round up, else round down.\r\n        uint integer;\r\n        uint firstDecimalDigit = SafeMath.div(duint % _1E18, _1E17); // grab 18th digit from-right\r\n        \r\n        if (firstDecimalDigit >= 5 ){\r\n            integer =  SafeMath.div(duint, _1E18) + 1;  // round up\r\n            return integer;\r\n        } else if (firstDecimalDigit < 5 ) {\r\n            integer =  SafeMath.div(duint, _1E18); // round down\r\n            return integer;\r\n        }\r\n    }\r\n\r\n     // --- Normal Solidity multiplication and floor division ---\r\n    function normalDiv(uint a, uint b) public pure returns(uint) {\r\n        return SafeMath.div(a, b);\r\n    }\r\n\r\n    function normalMul(uint a, uint b) public pure returns(uint) {\r\n        return SafeMath.mul(a, b);\r\n    }  \r\n}\r\n",
  "sourcePath": "C:\\Users\\Administrator\\Desktop\\Cleverage\\contracts\\DeciMath.sol",
  "compiler": {
    "name": "solc",
    "version": "0.5.12+commit.7709ece9.Emscripten.clang"
  },
  "schemaVersion": "3.0.19",
  "updatedAt": "2019-12-18T20:11:50.281Z",
  "networkType": "ethereum",
  "devdoc": {
    "methods": {}
  },
  "userdoc": {
    "methods": {}
  }
}