{
  "contractName": "DefaultPool",
  "abi": [
    {
      "inputs": [],
      "payable": false,
      "stateMutability": "nonpayable",
      "type": "constructor"
    },
    {
      "anonymous": false,
      "inputs": [
        {
          "indexed": false,
          "internalType": "address",
          "name": "_newActivePoolAddress",
          "type": "address"
        }
      ],
      "name": "ActivePoolAddressChanged",
      "type": "event"
    },
    {
      "anonymous": false,
      "inputs": [
        {
          "indexed": false,
          "internalType": "uint256",
          "name": "_newBalance",
          "type": "uint256"
        }
      ],
      "name": "CLVBalanceUpdated",
      "type": "event"
    },
    {
      "anonymous": false,
      "inputs": [
        {
          "indexed": false,
          "internalType": "address",
          "name": "_newDefaultPoolAddress",
          "type": "address"
        }
      ],
      "name": "DefaultPoolAddressChanged",
      "type": "event"
    },
    {
      "anonymous": false,
      "inputs": [
        {
          "indexed": false,
          "internalType": "uint256",
          "name": "_newBalance",
          "type": "uint256"
        }
      ],
      "name": "ETHBalanceUpdated",
      "type": "event"
    },
    {
      "anonymous": false,
      "inputs": [
        {
          "indexed": false,
          "internalType": "address",
          "name": "_to",
          "type": "address"
        },
        {
          "indexed": false,
          "internalType": "uint256",
          "name": "_amount",
          "type": "uint256"
        }
      ],
      "name": "EtherSent",
      "type": "event"
    },
    {
      "anonymous": false,
      "inputs": [
        {
          "indexed": true,
          "internalType": "address",
          "name": "previousOwner",
          "type": "address"
        },
        {
          "indexed": true,
          "internalType": "address",
          "name": "newOwner",
          "type": "address"
        }
      ],
      "name": "OwnershipTransferred",
      "type": "event"
    },
    {
      "anonymous": false,
      "inputs": [
        {
          "indexed": false,
          "internalType": "address",
          "name": "_newAddress",
          "type": "address"
        }
      ],
      "name": "PoolManagerAddressChanged",
      "type": "event"
    },
    {
      "anonymous": false,
      "inputs": [
        {
          "indexed": false,
          "internalType": "address",
          "name": "_newStabilityPoolAddress",
          "type": "address"
        }
      ],
      "name": "StabilityPoolAddressChanged",
      "type": "event"
    },
    {
      "payable": true,
      "stateMutability": "payable",
      "type": "fallback"
    },
    {
      "constant": true,
      "inputs": [],
      "name": "CLV",
      "outputs": [
        {
          "internalType": "uint256",
          "name": "",
          "type": "uint256"
        }
      ],
      "payable": false,
      "stateMutability": "view",
      "type": "function"
    },
    {
      "constant": true,
      "inputs": [],
      "name": "ETH",
      "outputs": [
        {
          "internalType": "uint256",
          "name": "",
          "type": "uint256"
        }
      ],
      "payable": false,
      "stateMutability": "view",
      "type": "function"
    },
    {
      "constant": true,
      "inputs": [],
      "name": "activePoolAddress",
      "outputs": [
        {
          "internalType": "address",
          "name": "",
          "type": "address"
        }
      ],
      "payable": false,
      "stateMutability": "view",
      "type": "function"
    },
    {
      "constant": true,
      "inputs": [],
      "name": "isOwner",
      "outputs": [
        {
          "internalType": "bool",
          "name": "",
          "type": "bool"
        }
      ],
      "payable": false,
      "stateMutability": "view",
      "type": "function"
    },
    {
      "constant": true,
      "inputs": [],
      "name": "owner",
      "outputs": [
        {
          "internalType": "address",
          "name": "",
          "type": "address"
        }
      ],
      "payable": false,
      "stateMutability": "view",
      "type": "function"
    },
    {
      "constant": true,
      "inputs": [],
      "name": "poolManagerAddress",
      "outputs": [
        {
          "internalType": "address",
          "name": "",
          "type": "address"
        }
      ],
      "payable": false,
      "stateMutability": "view",
      "type": "function"
    },
    {
      "constant": false,
      "inputs": [],
      "name": "renounceOwnership",
      "outputs": [],
      "payable": false,
      "stateMutability": "nonpayable",
      "type": "function"
    },
    {
      "constant": true,
      "inputs": [],
      "name": "stabilityPoolAddress",
      "outputs": [
        {
          "internalType": "address",
          "name": "",
          "type": "address"
        }
      ],
      "payable": false,
      "stateMutability": "view",
      "type": "function"
    },
    {
      "constant": false,
      "inputs": [
        {
          "internalType": "address",
          "name": "newOwner",
          "type": "address"
        }
      ],
      "name": "transferOwnership",
      "outputs": [],
      "payable": false,
      "stateMutability": "nonpayable",
      "type": "function"
    },
    {
      "constant": false,
      "inputs": [
        {
          "internalType": "address",
          "name": "_poolManagerAddress",
          "type": "address"
        }
      ],
      "name": "setPoolManagerAddress",
      "outputs": [],
      "payable": false,
      "stateMutability": "nonpayable",
      "type": "function"
    },
    {
      "constant": false,
      "inputs": [
        {
          "internalType": "address",
          "name": "_activePoolAddress",
          "type": "address"
        }
      ],
      "name": "setActivePoolAddress",
      "outputs": [],
      "payable": false,
      "stateMutability": "nonpayable",
      "type": "function"
    },
    {
      "constant": false,
      "inputs": [
        {
          "internalType": "address",
          "name": "_stabilityPoolAddress",
          "type": "address"
        }
      ],
      "name": "setStabilityPoolAddress",
      "outputs": [],
      "payable": false,
      "stateMutability": "nonpayable",
      "type": "function"
    },
    {
      "constant": false,
      "inputs": [
        {
          "internalType": "address",
          "name": "_defaultPoolAddress",
          "type": "address"
        }
      ],
      "name": "setDefaultPoolAddress",
      "outputs": [],
      "payable": false,
      "stateMutability": "nonpayable",
      "type": "function"
    },
    {
      "constant": true,
      "inputs": [],
      "name": "getActivePoolAddress",
      "outputs": [
        {
          "internalType": "address",
          "name": "",
          "type": "address"
        }
      ],
      "payable": false,
      "stateMutability": "view",
      "type": "function"
    },
    {
      "constant": true,
      "inputs": [],
      "name": "getStabilityPoolAddress",
      "outputs": [
        {
          "internalType": "address",
          "name": "",
          "type": "address"
        }
      ],
      "payable": false,
      "stateMutability": "view",
      "type": "function"
    },
    {
      "constant": true,
      "inputs": [],
      "name": "getDefaultPoolAddress",
      "outputs": [
        {
          "internalType": "address",
          "name": "",
          "type": "address"
        }
      ],
      "payable": false,
      "stateMutability": "view",
      "type": "function"
    },
    {
      "constant": true,
      "inputs": [],
      "name": "getPoolManagerAddress",
      "outputs": [
        {
          "internalType": "address",
          "name": "",
          "type": "address"
        }
      ],
      "payable": false,
      "stateMutability": "view",
      "type": "function"
    },
    {
      "constant": true,
      "inputs": [],
      "name": "getETH",
      "outputs": [
        {
          "internalType": "uint256",
          "name": "",
          "type": "uint256"
        }
      ],
      "payable": false,
      "stateMutability": "view",
      "type": "function"
    },
    {
      "constant": true,
      "inputs": [],
      "name": "getCLV",
      "outputs": [
        {
          "internalType": "uint256",
          "name": "",
          "type": "uint256"
        }
      ],
      "payable": false,
      "stateMutability": "view",
      "type": "function"
    },
    {
      "constant": false,
      "inputs": [
        {
          "internalType": "address payable",
          "name": "_account",
          "type": "address"
        },
        {
          "internalType": "uint256",
          "name": "_amount",
          "type": "uint256"
        }
      ],
      "name": "sendETH",
      "outputs": [
        {
          "internalType": "bool",
          "name": "",
          "type": "bool"
        }
      ],
      "payable": false,
      "stateMutability": "nonpayable",
      "type": "function"
    },
    {
      "constant": false,
      "inputs": [
        {
          "internalType": "uint256",
          "name": "_amount",
          "type": "uint256"
        }
      ],
      "name": "increaseCLV",
      "outputs": [],
      "payable": false,
      "stateMutability": "nonpayable",
      "type": "function"
    },
    {
      "constant": false,
      "inputs": [
        {
          "internalType": "uint256",
          "name": "_amount",
          "type": "uint256"
        }
      ],
      "name": "decreaseCLV",
      "outputs": [],
      "payable": false,
      "stateMutability": "nonpayable",
      "type": "function"
    },
    {
      "constant": true,
      "inputs": [],
      "name": "getRawETHBalance",
      "outputs": [
        {
          "internalType": "uint256",
          "name": "",
          "type": "uint256"
        }
      ],
      "payable": false,
      "stateMutability": "view",
      "type": "function"
    }
  ],
  "bytecode": "0x608060405234801561001057600080fd5b5061001f6100df60201b60201c565b6000806101000a81548173ffffffffffffffffffffffffffffffffffffffff021916908373ffffffffffffffffffffffffffffffffffffffff1602179055506000809054906101000a900473ffffffffffffffffffffffffffffffffffffffff1673ffffffffffffffffffffffffffffffffffffffff16600073ffffffffffffffffffffffffffffffffffffffff167f8be0079c531659141344cd1fd0a4f28419497f9722a3daafe3b4186f6b6457e060405160405180910390a36100e7565b600033905090565b611a3c806100f66000396000f3fe6080604052600436106101405760003560e01c80638f32d59b116100b6578063cb18f1391161006f578063cb18f1391461075f578063e1cf19c1146107b6578063e6a13f30146107e1578063e9c8395714610838578063f2fde38b14610873578063f57a3d83146108c457610140565b80638f32d59b146105955780639822339d146105c4578063ab95b1a214610615578063ad09d65814610666578063b08bc722146106b7578063c458bffb1461070e57610140565b806366416219116101085780636641621914610423578063695911951461044e578063715018a6146104a557806382a03369146104bc5780638322fff2146105135780638da5cb5b1461053e57610140565b80630617edb4146102c85780630b622ab2146102f357806314f6c3be1461034a5780634de736311461037557806364a197f3146103b0575b600160009054906101000a900473ffffffffffffffffffffffffffffffffffffffff1673ffffffffffffffffffffffffffffffffffffffff1661018161091b565b73ffffffffffffffffffffffffffffffffffffffff1614806101f75750600260009054906101000a900473ffffffffffffffffffffffffffffffffffffffff1673ffffffffffffffffffffffffffffffffffffffff166101df61091b565b73ffffffffffffffffffffffffffffffffffffffff16145b806102565750600360009054906101000a900473ffffffffffffffffffffffffffffffffffffffff1673ffffffffffffffffffffffffffffffffffffffff1661023e61091b565b73ffffffffffffffffffffffffffffffffffffffff16145b6102ab576040517f08c379a00000000000000000000000000000000000000000000000000000000081526004018080602001828103825260358152602001806119d36035913960400191505060405180910390fd5b6102c03460045461092390919063ffffffff16565b600481905550005b3480156102d457600080fd5b506102dd6109ab565b6040518082815260200191505060405180910390f35b3480156102ff57600080fd5b506103086109ca565b604051808273ffffffffffffffffffffffffffffffffffffffff1673ffffffffffffffffffffffffffffffffffffffff16815260200191505060405180910390f35b34801561035657600080fd5b5061035f6109f0565b6040518082815260200191505060405180910390f35b34801561038157600080fd5b506103ae6004803603602081101561039857600080fd5b8101908080359060200190929190505050610aa7565b005b3480156103bc57600080fd5b50610409600480360360408110156103d357600080fd5b81019080803573ffffffffffffffffffffffffffffffffffffffff16906020019092919080359060200190929190505050610bab565b604051808215151515815260200191505060405180910390f35b34801561042f57600080fd5b50610438610de9565b6040518082815260200191505060405180910390f35b34801561045a57600080fd5b50610463610def565b604051808273ffffffffffffffffffffffffffffffffffffffff1673ffffffffffffffffffffffffffffffffffffffff16815260200191505060405180910390f35b3480156104b157600080fd5b506104ba610e19565b005b3480156104c857600080fd5b506104d1610f52565b604051808273ffffffffffffffffffffffffffffffffffffffff1673ffffffffffffffffffffffffffffffffffffffff16815260200191505060405180910390f35b34801561051f57600080fd5b50610528610f7c565b6040518082815260200191505060405180910390f35b34801561054a57600080fd5b50610553610f82565b604051808273ffffffffffffffffffffffffffffffffffffffff1673ffffffffffffffffffffffffffffffffffffffff16815260200191505060405180910390f35b3480156105a157600080fd5b506105aa610fab565b604051808215151515815260200191505060405180910390f35b3480156105d057600080fd5b50610613600480360360208110156105e757600080fd5b81019080803573ffffffffffffffffffffffffffffffffffffffff169060200190929190505050611009565b005b34801561062157600080fd5b506106646004803603602081101561063857600080fd5b81019080803573ffffffffffffffffffffffffffffffffffffffff169060200190929190505050611086565b005b34801561067257600080fd5b506106b56004803603602081101561068957600080fd5b81019080803573ffffffffffffffffffffffffffffffffffffffff1690602001909291905050506111c9565b005b3480156106c357600080fd5b506106cc61130c565b604051808273ffffffffffffffffffffffffffffffffffffffff1673ffffffffffffffffffffffffffffffffffffffff16815260200191505060405180910390f35b34801561071a57600080fd5b5061075d6004803603602081101561073157600080fd5b81019080803573ffffffffffffffffffffffffffffffffffffffff169060200190929190505050611332565b005b34801561076b57600080fd5b50610774611475565b604051808273ffffffffffffffffffffffffffffffffffffffff1673ffffffffffffffffffffffffffffffffffffffff16815260200191505060405180910390f35b3480156107c257600080fd5b506107cb61149f565b6040518082815260200191505060405180910390f35b3480156107ed57600080fd5b506107f6611556565b604051808273ffffffffffffffffffffffffffffffffffffffff1673ffffffffffffffffffffffffffffffffffffffff16815260200191505060405180910390f35b34801561084457600080fd5b506108716004803603602081101561085b57600080fd5b810190808035906020019092919050505061157c565b005b34801561087f57600080fd5b506108c26004803603602081101561089657600080fd5b81019080803573ffffffffffffffffffffffffffffffffffffffff169060200190929190505050611680565b005b3480156108d057600080fd5b506108d9611706565b604051808273ffffffffffffffffffffffffffffffffffffffff1673ffffffffffffffffffffffffffffffffffffffff16815260200191505060405180910390f35b600033905090565b6000808284019050838110156109a1576040517f08c379a000000000000000000000000000000000000000000000000000000000815260040180806020018281038252601b8152602001807f536166654d6174683a206164646974696f6e206f766572666c6f77000000000081525060200191505060405180910390fd5b8091505092915050565b60003073ffffffffffffffffffffffffffffffffffffffff1631905090565b600260009054906101000a900473ffffffffffffffffffffffffffffffffffffffff1681565b6000600160009054906101000a900473ffffffffffffffffffffffffffffffffffffffff1673ffffffffffffffffffffffffffffffffffffffff16610a3361091b565b73ffffffffffffffffffffffffffffffffffffffff1614610a9f576040517f08c379a000000000000000000000000000000000000000000000000000000000815260040180806020018281038252602f815260200180611983602f913960400191505060405180910390fd5b600454905090565b600160009054906101000a900473ffffffffffffffffffffffffffffffffffffffff1673ffffffffffffffffffffffffffffffffffffffff16610ae861091b565b73ffffffffffffffffffffffffffffffffffffffff1614610b54576040517f08c379a000000000000000000000000000000000000000000000000000000000815260040180806020018281038252602f815260200180611983602f913960400191505060405180910390fd5b610b698160055461092390919063ffffffff16565b6005819055507f2345ee7f5f8837fcb9b95ec4fe3db62d9d05d7830cab26fe632f036008a935d86005546040518082815260200191505060405180910390a150565b6000600160009054906101000a900473ffffffffffffffffffffffffffffffffffffffff1673ffffffffffffffffffffffffffffffffffffffff16610bee61091b565b73ffffffffffffffffffffffffffffffffffffffff1614610c5a576040517f08c379a000000000000000000000000000000000000000000000000000000000815260040180806020018281038252602f815260200180611983602f913960400191505060405180910390fd5b610c6f8260045461170e90919063ffffffff16565b60048190555060008373ffffffffffffffffffffffffffffffffffffffff168360405180600001905060006040518083038185875af1925050503d8060008114610cd5576040519150601f19603f3d011682016040523d82523d6000602084013e610cda565b606091505b505090506001151581151514610d3b576040517f08c379a00000000000000000000000000000000000000000000000000000000081526004018080602001828103825260218152602001806119b26021913960400191505060405180910390fd5b7f7ab2bdf6e6d108cd138a8f6436723e8dfd0cb22727fe608e40b5adfb8357f1b96004546040518082815260200191505060405180910390a17f6109e2559dfa766aaec7118351d48a523f0a4157f49c8d68749c8ac41318ad128484604051808373ffffffffffffffffffffffffffffffffffffffff1673ffffffffffffffffffffffffffffffffffffffff1681526020018281526020019250505060405180910390a18091505092915050565b60055481565b6000600260009054906101000a900473ffffffffffffffffffffffffffffffffffffffff16905090565b610e21610fab565b610e93576040517f08c379a00000000000000000000000000000000000000000000000000000000081526004018080602001828103825260208152602001807f4f776e61626c653a2063616c6c6572206973206e6f7420746865206f776e657281525060200191505060405180910390fd5b600073ffffffffffffffffffffffffffffffffffffffff166000809054906101000a900473ffffffffffffffffffffffffffffffffffffffff1673ffffffffffffffffffffffffffffffffffffffff167f8be0079c531659141344cd1fd0a4f28419497f9722a3daafe3b4186f6b6457e060405160405180910390a360008060006101000a81548173ffffffffffffffffffffffffffffffffffffffff021916908373ffffffffffffffffffffffffffffffffffffffff160217905550565b6000600160009054906101000a900473ffffffffffffffffffffffffffffffffffffffff16905090565b60045481565b60008060009054906101000a900473ffffffffffffffffffffffffffffffffffffffff16905090565b60008060009054906101000a900473ffffffffffffffffffffffffffffffffffffffff1673ffffffffffffffffffffffffffffffffffffffff16610fed61091b565b73ffffffffffffffffffffffffffffffffffffffff1614905090565b611011610fab565b611083576040517f08c379a00000000000000000000000000000000000000000000000000000000081526004018080602001828103825260208152602001807f4f776e61626c653a2063616c6c6572206973206e6f7420746865206f776e657281525060200191505060405180910390fd5b50565b61108e610fab565b611100576040517f08c379a00000000000000000000000000000000000000000000000000000000081526004018080602001828103825260208152602001807f4f776e61626c653a2063616c6c6572206973206e6f7420746865206f776e657281525060200191505060405180910390fd5b80600160006101000a81548173ffffffffffffffffffffffffffffffffffffffff021916908373ffffffffffffffffffffffffffffffffffffffff1602179055507f4d839b74477afe774fbb734df87db25e56c0427973aac588bb3ce7ce937f8850600160009054906101000a900473ffffffffffffffffffffffffffffffffffffffff16604051808273ffffffffffffffffffffffffffffffffffffffff1673ffffffffffffffffffffffffffffffffffffffff16815260200191505060405180910390a150565b6111d1610fab565b611243576040517f08c379a00000000000000000000000000000000000000000000000000000000081526004018080602001828103825260208152602001807f4f776e61626c653a2063616c6c6572206973206e6f7420746865206f776e657281525060200191505060405180910390fd5b80600260006101000a81548173ffffffffffffffffffffffffffffffffffffffff021916908373ffffffffffffffffffffffffffffffffffffffff1602179055507f82966d27eea39b038ee0fa30cd16532bb24f6e65d31cb58fb227aa5766cdcc7f600260009054906101000a900473ffffffffffffffffffffffffffffffffffffffff16604051808273ffffffffffffffffffffffffffffffffffffffff1673ffffffffffffffffffffffffffffffffffffffff16815260200191505060405180910390a150565b600360009054906101000a900473ffffffffffffffffffffffffffffffffffffffff1681565b61133a610fab565b6113ac576040517f08c379a00000000000000000000000000000000000000000000000000000000081526004018080602001828103825260208152602001807f4f776e61626c653a2063616c6c6572206973206e6f7420746865206f776e657281525060200191505060405180910390fd5b80600360006101000a81548173ffffffffffffffffffffffffffffffffffffffff021916908373ffffffffffffffffffffffffffffffffffffffff1602179055507f78f058b189175430c48dc02699e3a0031ea4ff781536dc2fab847de4babdd882600360009054906101000a900473ffffffffffffffffffffffffffffffffffffffff16604051808273ffffffffffffffffffffffffffffffffffffffff1673ffffffffffffffffffffffffffffffffffffffff16815260200191505060405180910390a150565b6000600360009054906101000a900473ffffffffffffffffffffffffffffffffffffffff16905090565b6000600160009054906101000a900473ffffffffffffffffffffffffffffffffffffffff1673ffffffffffffffffffffffffffffffffffffffff166114e261091b565b73ffffffffffffffffffffffffffffffffffffffff161461154e576040517f08c379a000000000000000000000000000000000000000000000000000000000815260040180806020018281038252602f815260200180611983602f913960400191505060405180910390fd5b600554905090565b600160009054906101000a900473ffffffffffffffffffffffffffffffffffffffff1681565b600160009054906101000a900473ffffffffffffffffffffffffffffffffffffffff1673ffffffffffffffffffffffffffffffffffffffff166115bd61091b565b73ffffffffffffffffffffffffffffffffffffffff1614611629576040517f08c379a000000000000000000000000000000000000000000000000000000000815260040180806020018281038252602f815260200180611983602f913960400191505060405180910390fd5b61163e8160055461170e90919063ffffffff16565b6005819055507f2345ee7f5f8837fcb9b95ec4fe3db62d9d05d7830cab26fe632f036008a935d86005546040518082815260200191505060405180910390a150565b611688610fab565b6116fa576040517f08c379a00000000000000000000000000000000000000000000000000000000081526004018080602001828103825260208152602001807f4f776e61626c653a2063616c6c6572206973206e6f7420746865206f776e657281525060200191505060405180910390fd5b61170381611758565b50565b600030905090565b600061175083836040518060400160405280601e81526020017f536166654d6174683a207375627472616374696f6e206f766572666c6f77000081525061189c565b905092915050565b600073ffffffffffffffffffffffffffffffffffffffff168173ffffffffffffffffffffffffffffffffffffffff1614156117de576040517f08c379a000000000000000000000000000000000000000000000000000000000815260040180806020018281038252602681526020018061195d6026913960400191505060405180910390fd5b8073ffffffffffffffffffffffffffffffffffffffff166000809054906101000a900473ffffffffffffffffffffffffffffffffffffffff1673ffffffffffffffffffffffffffffffffffffffff167f8be0079c531659141344cd1fd0a4f28419497f9722a3daafe3b4186f6b6457e060405160405180910390a3806000806101000a81548173ffffffffffffffffffffffffffffffffffffffff021916908373ffffffffffffffffffffffffffffffffffffffff16021790555050565b6000838311158290611949576040517f08c379a00000000000000000000000000000000000000000000000000000000081526004018080602001828103825283818151815260200191508051906020019080838360005b8381101561190e5780820151818401526020810190506118f3565b50505050905090810190601f16801561193b5780820380516001836020036101000a031916815260200191505b509250505060405180910390fd5b506000838503905080915050939250505056fe4f776e61626c653a206e6577206f776e657220697320746865207a65726f206164647265737344656661756c74506f6f6c3a204f6e6c792074686520706f6f6c4d616e6167657220697320617574686f72697a656444656661756c74506f6f6c3a207472616e73616374696f6e207265766572746564416374697665506f6f6c3a206f6e6c792072656365697665204554482066726f6d20506f6f6c206f7220506f6f6c4d616e61676572a265627a7a7231582093bb09e9000019967b563453c077c69dced05583f98be3733ed93b04ac8e1ac864736f6c634300050c0032",
  "source": "pragma solidity ^0.5.11;\r\n\r\nimport './IPool.sol';\r\nimport '../node_modules/@openzeppelin/contracts/ownership/Ownable.sol';\r\nimport '../node_modules/@openzeppelin/contracts/math/SafeMath.sol';\r\n\r\ncontract DefaultPool is Ownable, IPool {\r\n    using SafeMath for uint256;\r\n\r\n    address public poolManagerAddress;\r\n    address public stabilityPoolAddress;\r\n    address public activePoolAddress;\r\n    uint256 public ETH;  // deposited ether tracker\r\n    uint256 public CLV;  // total outstanding CDP debt\r\n\r\n    constructor() public {}\r\n\r\n    // --- Contract setters ---\r\n    function setPoolManagerAddress(address _poolManagerAddress) public onlyOwner {\r\n        poolManagerAddress = _poolManagerAddress;\r\n        emit PoolManagerAddressChanged(poolManagerAddress);\r\n    }\r\n\r\n    function setActivePoolAddress(address _activePoolAddress) public onlyOwner {\r\n        activePoolAddress = _activePoolAddress;\r\n        emit ActivePoolAddressChanged(activePoolAddress);\r\n    }\r\n\r\n    function setStabilityPoolAddress(address _stabilityPoolAddress) public onlyOwner {\r\n        stabilityPoolAddress = _stabilityPoolAddress;\r\n        emit StabilityPoolAddressChanged(stabilityPoolAddress);\r\n    }\r\n\r\n    // Redundant function. Needed only to satisfy IPool interface\r\n    function setDefaultPoolAddress(address _defaultPoolAddress) public onlyOwner {\r\n    }\r\n\r\n    // --- Getters for public variables. Required by IPool interface ---\r\n\r\n    function getActivePoolAddress() public view returns(address) {\r\n        return activePoolAddress;\r\n    }\r\n\r\n    function getStabilityPoolAddress() public view returns(address){\r\n        return stabilityPoolAddress;\r\n    }\r\n\r\n    function getDefaultPoolAddress() public view returns(address){\r\n        return address(this);\r\n    }\r\n\r\n    function getPoolManagerAddress() public view returns(address) {\r\n        return poolManagerAddress;\r\n    }\r\n\r\n    function getETH() public view onlyPoolManager returns(uint) {\r\n        return ETH;\r\n    }\r\n\r\n    function getCLV() public view onlyPoolManager returns(uint) {\r\n        return CLV;\r\n    }\r\n\r\n    // --- Pool functionality ---\r\n    function sendETH(address payable _account, uint _amount) public onlyPoolManager returns(bool) {\r\n        ETH = ETH.sub(_amount);\r\n        (bool success, ) = _account.call.value(_amount)(\"\");  // use call.value()('') as per Consensys latest advice \r\n        require (success == true, 'DefaultPool: transaction reverted');\r\n        emit ETHBalanceUpdated(ETH);\r\n        emit EtherSent(_account, _amount);\r\n        return success;\r\n    }\r\n\r\n    // // Deprecated\r\n    // function increaseETH(uint _amount) public onlyPoolManager () {\r\n    //     ETH = ETH.add(_amount);\r\n    //     emit ETHBalanceUpdated(ETH);\r\n    // }\r\n\r\n    function increaseCLV(uint _amount) public onlyPoolManager () {\r\n        CLV  = CLV.add(_amount);\r\n        emit CLVBalanceUpdated(CLV);\r\n    }\r\n\r\n    function decreaseCLV(uint _amount) public onlyPoolManager () {\r\n        CLV = CLV.sub(_amount);\r\n        emit CLVBalanceUpdated(CLV);\r\n    }\r\n\r\n    /* Returns the raw ether balance at DefaultPool address.  \r\n    Not necessarily equal to the ETH state variable - ether can be forcibly sent to contracts. */\r\n    function getRawETHBalance() public view returns(uint) {\r\n        return address(this).balance;\r\n    }\r\n\r\n    modifier onlyPoolManager {\r\n        require(_msgSender() == poolManagerAddress, \"DefaultPool: Only the poolManager is authorized\");\r\n        _;\r\n    }\r\n\r\n    modifier onlyPoolManagerOrPool {\r\n        require(\r\n            _msgSender() == poolManagerAddress || \r\n            _msgSender() == stabilityPoolAddress || \r\n            _msgSender() == activePoolAddress, \r\n            \"ActivePool: only receive ETH from Pool or PoolManager\");\r\n        ETH = ETH.add(msg.value);\r\n        _;\r\n    }\r\n\r\n    function () external payable onlyPoolManagerOrPool {}\r\n}\r\n",
  "sourcePath": "C:/Users/Administrator/Desktop/Cleverage/contracts/DefaultPool.sol",
  "compiler": {
    "name": "solc",
    "version": "0.5.12+commit.7709ece9.Emscripten.clang"
  },
  "schemaVersion": "3.0.19",
  "updatedAt": "2019-12-20T09:33:20.961Z",
  "networkType": "ethereum",
  "devdoc": {
    "methods": {
      "isOwner()": {
        "details": "Returns true if the caller is the current owner."
      },
      "owner()": {
        "details": "Returns the address of the current owner."
      },
      "renounceOwnership()": {
        "details": "Leaves the contract without owner. It will not be possible to call `onlyOwner` functions anymore. Can only be called by the current owner.     * NOTE: Renouncing ownership will leave the contract without an owner, thereby removing any functionality that is only available to the owner."
      },
      "transferOwnership(address)": {
        "details": "Transfers ownership of the contract to a new account (`newOwner`). Can only be called by the current owner."
      }
    }
  },
  "userdoc": {
    "methods": {}
  }
}