{
  "contractName": "DefaultPool",
  "abi": [
    {
      "inputs": [],
      "payable": false,
      "stateMutability": "nonpayable",
      "type": "constructor"
    },
    {
      "anonymous": false,
      "inputs": [
        {
          "indexed": true,
          "internalType": "address",
          "name": "previousOwner",
          "type": "address"
        },
        {
          "indexed": true,
          "internalType": "address",
          "name": "newOwner",
          "type": "address"
        }
      ],
      "name": "OwnershipTransferred",
      "type": "event"
    },
    {
      "payable": true,
      "stateMutability": "payable",
      "type": "fallback"
    },
    {
      "constant": true,
      "inputs": [],
      "name": "CLV",
      "outputs": [
        {
          "internalType": "uint256",
          "name": "",
          "type": "uint256"
        }
      ],
      "payable": false,
      "stateMutability": "view",
      "type": "function"
    },
    {
      "constant": true,
      "inputs": [],
      "name": "ETH",
      "outputs": [
        {
          "internalType": "uint256",
          "name": "",
          "type": "uint256"
        }
      ],
      "payable": false,
      "stateMutability": "view",
      "type": "function"
    },
    {
      "constant": true,
      "inputs": [],
      "name": "isOwner",
      "outputs": [
        {
          "internalType": "bool",
          "name": "",
          "type": "bool"
        }
      ],
      "payable": false,
      "stateMutability": "view",
      "type": "function"
    },
    {
      "constant": true,
      "inputs": [],
      "name": "owner",
      "outputs": [
        {
          "internalType": "address",
          "name": "",
          "type": "address"
        }
      ],
      "payable": false,
      "stateMutability": "view",
      "type": "function"
    },
    {
      "constant": true,
      "inputs": [],
      "name": "poolManagerAddress",
      "outputs": [
        {
          "internalType": "address",
          "name": "",
          "type": "address"
        }
      ],
      "payable": false,
      "stateMutability": "view",
      "type": "function"
    },
    {
      "constant": false,
      "inputs": [],
      "name": "renounceOwnership",
      "outputs": [],
      "payable": false,
      "stateMutability": "nonpayable",
      "type": "function"
    },
    {
      "constant": false,
      "inputs": [
        {
          "internalType": "address",
          "name": "newOwner",
          "type": "address"
        }
      ],
      "name": "transferOwnership",
      "outputs": [],
      "payable": false,
      "stateMutability": "nonpayable",
      "type": "function"
    },
    {
      "constant": false,
      "inputs": [
        {
          "internalType": "address",
          "name": "_poolManagerAddress",
          "type": "address"
        }
      ],
      "name": "setPoolManagerAddress",
      "outputs": [],
      "payable": false,
      "stateMutability": "nonpayable",
      "type": "function"
    },
    {
      "constant": true,
      "inputs": [],
      "name": "getETH",
      "outputs": [
        {
          "internalType": "uint256",
          "name": "",
          "type": "uint256"
        }
      ],
      "payable": false,
      "stateMutability": "view",
      "type": "function"
    },
    {
      "constant": true,
      "inputs": [],
      "name": "getCLV",
      "outputs": [
        {
          "internalType": "uint256",
          "name": "",
          "type": "uint256"
        }
      ],
      "payable": false,
      "stateMutability": "view",
      "type": "function"
    },
    {
      "constant": true,
      "inputs": [],
      "name": "getPoolManagerAddress",
      "outputs": [
        {
          "internalType": "address",
          "name": "",
          "type": "address"
        }
      ],
      "payable": false,
      "stateMutability": "view",
      "type": "function"
    },
    {
      "constant": false,
      "inputs": [
        {
          "internalType": "address payable",
          "name": "_account",
          "type": "address"
        },
        {
          "internalType": "uint256",
          "name": "_amount",
          "type": "uint256"
        }
      ],
      "name": "sendETH",
      "outputs": [
        {
          "internalType": "bool",
          "name": "",
          "type": "bool"
        }
      ],
      "payable": false,
      "stateMutability": "nonpayable",
      "type": "function"
    },
    {
      "constant": false,
      "inputs": [
        {
          "internalType": "uint256",
          "name": "_amount",
          "type": "uint256"
        }
      ],
      "name": "increaseETH",
      "outputs": [],
      "payable": false,
      "stateMutability": "nonpayable",
      "type": "function"
    },
    {
      "constant": false,
      "inputs": [
        {
          "internalType": "uint256",
          "name": "_amount",
          "type": "uint256"
        }
      ],
      "name": "increaseCLV",
      "outputs": [],
      "payable": false,
      "stateMutability": "nonpayable",
      "type": "function"
    },
    {
      "constant": false,
      "inputs": [
        {
          "internalType": "uint256",
          "name": "_amount",
          "type": "uint256"
        }
      ],
      "name": "decreaseCLV",
      "outputs": [],
      "payable": false,
      "stateMutability": "nonpayable",
      "type": "function"
    },
    {
      "constant": true,
      "inputs": [],
      "name": "getRawETHBalance",
      "outputs": [
        {
          "internalType": "uint256",
          "name": "",
          "type": "uint256"
        }
      ],
      "payable": false,
      "stateMutability": "view",
      "type": "function"
    }
  ],
  "bytecode": "0x608060405234801561001057600080fd5b5061001f6100df60201b60201c565b6000806101000a81548173ffffffffffffffffffffffffffffffffffffffff021916908373ffffffffffffffffffffffffffffffffffffffff1602179055506000809054906101000a900473ffffffffffffffffffffffffffffffffffffffff1673ffffffffffffffffffffffffffffffffffffffff16600073ffffffffffffffffffffffffffffffffffffffff167f8be0079c531659141344cd1fd0a4f28419497f9722a3daafe3b4186f6b6457e060405160405180910390a36100e7565b600033905090565b61114e806100f66000396000f3fe6080604052600436106100f35760003560e01c80638da5cb5b1161008a578063e1cf19c111610059578063e1cf19c1146103cf578063e6a13f30146103fa578063e9c8395714610451578063f2fde38b1461048c576100f3565b80638da5cb5b146102bd5780638f32d59b14610314578063ab95b1a214610343578063b9c0d71f14610394576100f3565b806366416219116100c657806366416219146101f9578063715018a61461022457806382a033691461023b5780638322fff214610292576100f3565b80630617edb4146100f557806314f6c3be146101205780634de736311461014b57806364a197f314610186575b005b34801561010157600080fd5b5061010a6104dd565b6040518082815260200191505060405180910390f35b34801561012c57600080fd5b506101356104fc565b6040518082815260200191505060405180910390f35b34801561015757600080fd5b506101846004803603602081101561016e57600080fd5b81019080803590602001909291905050506105b3565b005b34801561019257600080fd5b506101df600480360360408110156101a957600080fd5b81019080803573ffffffffffffffffffffffffffffffffffffffff1690602001909291908035906020019092919050505061067e565b604051808215151515815260200191505060405180910390f35b34801561020557600080fd5b5061020e610818565b6040518082815260200191505060405180910390f35b34801561023057600080fd5b5061023961081e565b005b34801561024757600080fd5b50610250610957565b604051808273ffffffffffffffffffffffffffffffffffffffff1673ffffffffffffffffffffffffffffffffffffffff16815260200191505060405180910390f35b34801561029e57600080fd5b506102a7610981565b6040518082815260200191505060405180910390f35b3480156102c957600080fd5b506102d2610987565b604051808273ffffffffffffffffffffffffffffffffffffffff1673ffffffffffffffffffffffffffffffffffffffff16815260200191505060405180910390f35b34801561032057600080fd5b506103296109b0565b604051808215151515815260200191505060405180910390f35b34801561034f57600080fd5b506103926004803603602081101561036657600080fd5b81019080803573ffffffffffffffffffffffffffffffffffffffff169060200190929190505050610a0e565b005b3480156103a057600080fd5b506103cd600480360360208110156103b757600080fd5b8101908080359060200190929190505050610acc565b005b3480156103db57600080fd5b506103e4610b97565b6040518082815260200191505060405180910390f35b34801561040657600080fd5b5061040f610c4e565b604051808273ffffffffffffffffffffffffffffffffffffffff1673ffffffffffffffffffffffffffffffffffffffff16815260200191505060405180910390f35b34801561045d57600080fd5b5061048a6004803603602081101561047457600080fd5b8101908080359060200190929190505050610c74565b005b34801561049857600080fd5b506104db600480360360208110156104af57600080fd5b81019080803573ffffffffffffffffffffffffffffffffffffffff169060200190929190505050610d3f565b005b60003073ffffffffffffffffffffffffffffffffffffffff1631905090565b6000600160009054906101000a900473ffffffffffffffffffffffffffffffffffffffff1673ffffffffffffffffffffffffffffffffffffffff1661053f610dc5565b73ffffffffffffffffffffffffffffffffffffffff16146105ab576040517f08c379a000000000000000000000000000000000000000000000000000000000815260040180806020018281038252602f8152602001806110ca602f913960400191505060405180910390fd5b600254905090565b600160009054906101000a900473ffffffffffffffffffffffffffffffffffffffff1673ffffffffffffffffffffffffffffffffffffffff166105f4610dc5565b73ffffffffffffffffffffffffffffffffffffffff1614610660576040517f08c379a000000000000000000000000000000000000000000000000000000000815260040180806020018281038252602f8152602001806110ca602f913960400191505060405180910390fd5b61067581600354610dcd90919063ffffffff16565b60038190555050565b6000600160009054906101000a900473ffffffffffffffffffffffffffffffffffffffff1673ffffffffffffffffffffffffffffffffffffffff166106c1610dc5565b73ffffffffffffffffffffffffffffffffffffffff161461072d576040517f08c379a000000000000000000000000000000000000000000000000000000000815260040180806020018281038252602f8152602001806110ca602f913960400191505060405180910390fd5b61074282600254610e5590919063ffffffff16565b60028190555060008373ffffffffffffffffffffffffffffffffffffffff168360405180600001905060006040518083038185875af1925050503d80600081146107a8576040519150601f19603f3d011682016040523d82523d6000602084013e6107ad565b606091505b50509050600115158115151461080e576040517f08c379a00000000000000000000000000000000000000000000000000000000081526004018080602001828103825260218152602001806110f96021913960400191505060405180910390fd5b8091505092915050565b60035481565b6108266109b0565b610898576040517f08c379a00000000000000000000000000000000000000000000000000000000081526004018080602001828103825260208152602001807f4f776e61626c653a2063616c6c6572206973206e6f7420746865206f776e657281525060200191505060405180910390fd5b600073ffffffffffffffffffffffffffffffffffffffff166000809054906101000a900473ffffffffffffffffffffffffffffffffffffffff1673ffffffffffffffffffffffffffffffffffffffff167f8be0079c531659141344cd1fd0a4f28419497f9722a3daafe3b4186f6b6457e060405160405180910390a360008060006101000a81548173ffffffffffffffffffffffffffffffffffffffff021916908373ffffffffffffffffffffffffffffffffffffffff160217905550565b6000600160009054906101000a900473ffffffffffffffffffffffffffffffffffffffff16905090565b60025481565b60008060009054906101000a900473ffffffffffffffffffffffffffffffffffffffff16905090565b60008060009054906101000a900473ffffffffffffffffffffffffffffffffffffffff1673ffffffffffffffffffffffffffffffffffffffff166109f2610dc5565b73ffffffffffffffffffffffffffffffffffffffff1614905090565b610a166109b0565b610a88576040517f08c379a00000000000000000000000000000000000000000000000000000000081526004018080602001828103825260208152602001807f4f776e61626c653a2063616c6c6572206973206e6f7420746865206f776e657281525060200191505060405180910390fd5b80600160006101000a81548173ffffffffffffffffffffffffffffffffffffffff021916908373ffffffffffffffffffffffffffffffffffffffff16021790555050565b600160009054906101000a900473ffffffffffffffffffffffffffffffffffffffff1673ffffffffffffffffffffffffffffffffffffffff16610b0d610dc5565b73ffffffffffffffffffffffffffffffffffffffff1614610b79576040517f08c379a000000000000000000000000000000000000000000000000000000000815260040180806020018281038252602f8152602001806110ca602f913960400191505060405180910390fd5b610b8e81600254610dcd90919063ffffffff16565b60028190555050565b6000600160009054906101000a900473ffffffffffffffffffffffffffffffffffffffff1673ffffffffffffffffffffffffffffffffffffffff16610bda610dc5565b73ffffffffffffffffffffffffffffffffffffffff1614610c46576040517f08c379a000000000000000000000000000000000000000000000000000000000815260040180806020018281038252602f8152602001806110ca602f913960400191505060405180910390fd5b600354905090565b600160009054906101000a900473ffffffffffffffffffffffffffffffffffffffff1681565b600160009054906101000a900473ffffffffffffffffffffffffffffffffffffffff1673ffffffffffffffffffffffffffffffffffffffff16610cb5610dc5565b73ffffffffffffffffffffffffffffffffffffffff1614610d21576040517f08c379a000000000000000000000000000000000000000000000000000000000815260040180806020018281038252602f8152602001806110ca602f913960400191505060405180910390fd5b610d3681600354610e5590919063ffffffff16565b60038190555050565b610d476109b0565b610db9576040517f08c379a00000000000000000000000000000000000000000000000000000000081526004018080602001828103825260208152602001807f4f776e61626c653a2063616c6c6572206973206e6f7420746865206f776e657281525060200191505060405180910390fd5b610dc281610e9f565b50565b600033905090565b600080828401905083811015610e4b576040517f08c379a000000000000000000000000000000000000000000000000000000000815260040180806020018281038252601b8152602001807f536166654d6174683a206164646974696f6e206f766572666c6f77000000000081525060200191505060405180910390fd5b8091505092915050565b6000610e9783836040518060400160405280601e81526020017f536166654d6174683a207375627472616374696f6e206f766572666c6f770000815250610fe3565b905092915050565b600073ffffffffffffffffffffffffffffffffffffffff168173ffffffffffffffffffffffffffffffffffffffff161415610f25576040517f08c379a00000000000000000000000000000000000000000000000000000000081526004018080602001828103825260268152602001806110a46026913960400191505060405180910390fd5b8073ffffffffffffffffffffffffffffffffffffffff166000809054906101000a900473ffffffffffffffffffffffffffffffffffffffff1673ffffffffffffffffffffffffffffffffffffffff167f8be0079c531659141344cd1fd0a4f28419497f9722a3daafe3b4186f6b6457e060405160405180910390a3806000806101000a81548173ffffffffffffffffffffffffffffffffffffffff021916908373ffffffffffffffffffffffffffffffffffffffff16021790555050565b6000838311158290611090576040517f08c379a00000000000000000000000000000000000000000000000000000000081526004018080602001828103825283818151815260200191508051906020019080838360005b8381101561105557808201518184015260208101905061103a565b50505050905090810190601f1680156110825780820380516001836020036101000a031916815260200191505b509250505060405180910390fd5b506000838503905080915050939250505056fe4f776e61626c653a206e6577206f776e657220697320746865207a65726f206164647265737344656661756c74506f6f6c3a204f6e6c792074686520706f6f6c4d616e6167657220697320617574686f72697a656444656661756c74506f6f6c3a207472616e73616374696f6e207265766572746564a265627a7a723158201b4d757c0bf7795e8f990dc56e29a23fb8dd278a4a43d26926fd486ea5d1a7f464736f6c634300050c0032",
  "source": "pragma solidity ^0.5.11;\r\n\r\nimport './IPool.sol';\r\nimport '../node_modules/@openzeppelin/contracts/ownership/Ownable.sol';\r\nimport '../node_modules/@openzeppelin/contracts/math/SafeMath.sol';\r\n\r\ncontract DefaultPool is Ownable, IPool {\r\n    using SafeMath for uint256;\r\n\r\n    address public poolManagerAddress;\r\n    uint256 public ETH;  // deposited ether tracker\r\n    uint256 public CLV;  // total outstanding CDP debt\r\n\r\n    constructor() public {}\r\n\r\n    function setPoolManagerAddress(address _poolManagerAddress) public onlyOwner {\r\n        poolManagerAddress = _poolManagerAddress;\r\n    }\r\n\r\n    // --- Getters for public variables. Required by IPool interface ---\r\n    function getETH() public view onlyPoolManager returns(uint) {\r\n        return ETH;\r\n    }\r\n\r\n    function getCLV() public view onlyPoolManager returns(uint) {\r\n        return CLV;\r\n    }\r\n\r\n    function getPoolManagerAddress() public view returns(address) {\r\n        return poolManagerAddress;\r\n    }\r\n\r\n    // --- Pool functionality ---\r\n    function sendETH(address payable _account, uint _amount) public onlyPoolManager returns(bool) {\r\n        ETH = ETH.sub(_amount);\r\n        (bool success, ) = _account.call.value(_amount)(\"\");  // use call.value()('') as per Consensys latest advice \r\n        require (success == true, 'DefaultPool: transaction reverted');\r\n        return success;\r\n    }\r\n\r\n     function increaseETH(uint _amount) public onlyPoolManager () {\r\n        ETH = ETH.add(_amount);\r\n    }\r\n\r\n    function increaseCLV(uint _amount) public onlyPoolManager () {\r\n        CLV  = CLV.add(_amount);\r\n    }\r\n\r\n    function decreaseCLV(uint _amount) public onlyPoolManager () {\r\n        CLV = CLV.sub(_amount);\r\n    }\r\n\r\n    /* Returns the raw ether balance at DefaultPool address.  \r\n    Not necessarily equal to the ETH state variable - ether can be forcibly sent to contracts. */\r\n    function getRawETHBalance() public view returns(uint) {\r\n        return address(this).balance;\r\n    }\r\n\r\n    modifier onlyPoolManager {\r\n        require(_msgSender() == poolManagerAddress, \"DefaultPool: Only the poolManager is authorized\");\r\n        _;\r\n    }\r\n\r\n    function () external payable {}\r\n}\r\n",
  "sourcePath": "C:/Users/Administrator/Desktop/Cleverage/contracts/DefaultPool.sol",
  "compiler": {
    "name": "solc",
    "version": "0.5.12+commit.7709ece9.Emscripten.clang"
  },
  "schemaVersion": "3.0.19",
  "updatedAt": "2019-12-10T20:39:25.451Z",
  "devdoc": {
    "methods": {
      "isOwner()": {
        "details": "Returns true if the caller is the current owner."
      },
      "owner()": {
        "details": "Returns the address of the current owner."
      },
      "renounceOwnership()": {
        "details": "Leaves the contract without owner. It will not be possible to call `onlyOwner` functions anymore. Can only be called by the current owner.     * NOTE: Renouncing ownership will leave the contract without an owner, thereby removing any functionality that is only available to the owner."
      },
      "transferOwnership(address)": {
        "details": "Transfers ownership of the contract to a new account (`newOwner`). Can only be called by the current owner."
      }
    }
  },
  "userdoc": {
    "methods": {}
  }
}