{
  "contractName": "DefaultPool",
  "abi": [
    {
      "constant": true,
      "inputs": [],
      "name": "stabilityPoolAddress",
      "outputs": [
        {
          "internalType": "address",
          "name": "",
          "type": "address"
        }
      ],
      "payable": false,
      "stateMutability": "view",
      "type": "function"
    },
    {
      "constant": true,
      "inputs": [],
      "name": "CLV",
      "outputs": [
        {
          "internalType": "uint256",
          "name": "",
          "type": "uint256"
        }
      ],
      "payable": false,
      "stateMutability": "view",
      "type": "function"
    },
    {
      "constant": false,
      "inputs": [],
      "name": "renounceOwnership",
      "outputs": [],
      "payable": false,
      "stateMutability": "nonpayable",
      "type": "function"
    },
    {
      "constant": true,
      "inputs": [],
      "name": "ETH",
      "outputs": [
        {
          "internalType": "uint256",
          "name": "",
          "type": "uint256"
        }
      ],
      "payable": false,
      "stateMutability": "view",
      "type": "function"
    },
    {
      "constant": true,
      "inputs": [],
      "name": "owner",
      "outputs": [
        {
          "internalType": "address",
          "name": "",
          "type": "address"
        }
      ],
      "payable": false,
      "stateMutability": "view",
      "type": "function"
    },
    {
      "constant": true,
      "inputs": [],
      "name": "isOwner",
      "outputs": [
        {
          "internalType": "bool",
          "name": "",
          "type": "bool"
        }
      ],
      "payable": false,
      "stateMutability": "view",
      "type": "function"
    },
    {
      "constant": true,
      "inputs": [],
      "name": "activePoolAddress",
      "outputs": [
        {
          "internalType": "address",
          "name": "",
          "type": "address"
        }
      ],
      "payable": false,
      "stateMutability": "view",
      "type": "function"
    },
    {
      "constant": true,
      "inputs": [],
      "name": "poolManagerAddress",
      "outputs": [
        {
          "internalType": "address",
          "name": "",
          "type": "address"
        }
      ],
      "payable": false,
      "stateMutability": "view",
      "type": "function"
    },
    {
      "constant": false,
      "inputs": [
        {
          "internalType": "address",
          "name": "newOwner",
          "type": "address"
        }
      ],
      "name": "transferOwnership",
      "outputs": [],
      "payable": false,
      "stateMutability": "nonpayable",
      "type": "function"
    },
    {
      "inputs": [],
      "payable": false,
      "stateMutability": "nonpayable",
      "type": "constructor"
    },
    {
      "payable": true,
      "stateMutability": "payable",
      "type": "fallback"
    },
    {
      "anonymous": false,
      "inputs": [
        {
          "indexed": false,
          "internalType": "uint256",
          "name": "_newBalance",
          "type": "uint256"
        }
      ],
      "name": "ETHBalanceUpdated",
      "type": "event"
    },
    {
      "anonymous": false,
      "inputs": [
        {
          "indexed": false,
          "internalType": "uint256",
          "name": "_newBalance",
          "type": "uint256"
        }
      ],
      "name": "CLVBalanceUpdated",
      "type": "event"
    },
    {
      "anonymous": false,
      "inputs": [
        {
          "indexed": false,
          "internalType": "address",
          "name": "_newAddress",
          "type": "address"
        }
      ],
      "name": "PoolManagerAddressChanged",
      "type": "event"
    },
    {
      "anonymous": false,
      "inputs": [
        {
          "indexed": false,
          "internalType": "address",
          "name": "_newActivePoolAddress",
          "type": "address"
        }
      ],
      "name": "ActivePoolAddressChanged",
      "type": "event"
    },
    {
      "anonymous": false,
      "inputs": [
        {
          "indexed": false,
          "internalType": "address",
          "name": "_newDefaultPoolAddress",
          "type": "address"
        }
      ],
      "name": "DefaultPoolAddressChanged",
      "type": "event"
    },
    {
      "anonymous": false,
      "inputs": [
        {
          "indexed": false,
          "internalType": "address",
          "name": "_newStabilityPoolAddress",
          "type": "address"
        }
      ],
      "name": "StabilityPoolAddressChanged",
      "type": "event"
    },
    {
      "anonymous": false,
      "inputs": [
        {
          "indexed": false,
          "internalType": "address",
          "name": "_to",
          "type": "address"
        },
        {
          "indexed": false,
          "internalType": "uint256",
          "name": "_amount",
          "type": "uint256"
        }
      ],
      "name": "EtherSent",
      "type": "event"
    },
    {
      "anonymous": false,
      "inputs": [
        {
          "indexed": true,
          "internalType": "address",
          "name": "previousOwner",
          "type": "address"
        },
        {
          "indexed": true,
          "internalType": "address",
          "name": "newOwner",
          "type": "address"
        }
      ],
      "name": "OwnershipTransferred",
      "type": "event"
    },
    {
      "constant": false,
      "inputs": [
        {
          "internalType": "address",
          "name": "_poolManagerAddress",
          "type": "address"
        }
      ],
      "name": "setPoolManagerAddress",
      "outputs": [],
      "payable": false,
      "stateMutability": "nonpayable",
      "type": "function"
    },
    {
      "constant": false,
      "inputs": [
        {
          "internalType": "address",
          "name": "_activePoolAddress",
          "type": "address"
        }
      ],
      "name": "setActivePoolAddress",
      "outputs": [],
      "payable": false,
      "stateMutability": "nonpayable",
      "type": "function"
    },
    {
      "constant": false,
      "inputs": [
        {
          "internalType": "address",
          "name": "_stabilityPoolAddress",
          "type": "address"
        }
      ],
      "name": "setStabilityPoolAddress",
      "outputs": [],
      "payable": false,
      "stateMutability": "nonpayable",
      "type": "function"
    },
    {
      "constant": false,
      "inputs": [
        {
          "internalType": "address",
          "name": "_defaultPoolAddress",
          "type": "address"
        }
      ],
      "name": "setDefaultPoolAddress",
      "outputs": [],
      "payable": false,
      "stateMutability": "nonpayable",
      "type": "function"
    },
    {
      "constant": true,
      "inputs": [],
      "name": "getActivePoolAddress",
      "outputs": [
        {
          "internalType": "address",
          "name": "",
          "type": "address"
        }
      ],
      "payable": false,
      "stateMutability": "view",
      "type": "function"
    },
    {
      "constant": true,
      "inputs": [],
      "name": "getStabilityPoolAddress",
      "outputs": [
        {
          "internalType": "address",
          "name": "",
          "type": "address"
        }
      ],
      "payable": false,
      "stateMutability": "view",
      "type": "function"
    },
    {
      "constant": true,
      "inputs": [],
      "name": "getDefaultPoolAddress",
      "outputs": [
        {
          "internalType": "address",
          "name": "",
          "type": "address"
        }
      ],
      "payable": false,
      "stateMutability": "view",
      "type": "function"
    },
    {
      "constant": true,
      "inputs": [],
      "name": "getPoolManagerAddress",
      "outputs": [
        {
          "internalType": "address",
          "name": "",
          "type": "address"
        }
      ],
      "payable": false,
      "stateMutability": "view",
      "type": "function"
    },
    {
      "constant": true,
      "inputs": [],
      "name": "getETH",
      "outputs": [
        {
          "internalType": "uint256",
          "name": "",
          "type": "uint256"
        }
      ],
      "payable": false,
      "stateMutability": "view",
      "type": "function"
    },
    {
      "constant": true,
      "inputs": [],
      "name": "getCLV",
      "outputs": [
        {
          "internalType": "uint256",
          "name": "",
          "type": "uint256"
        }
      ],
      "payable": false,
      "stateMutability": "view",
      "type": "function"
    },
    {
      "constant": false,
      "inputs": [
        {
          "internalType": "address payable",
          "name": "_account",
          "type": "address"
        },
        {
          "internalType": "uint256",
          "name": "_amount",
          "type": "uint256"
        }
      ],
      "name": "sendETH",
      "outputs": [
        {
          "internalType": "bool",
          "name": "",
          "type": "bool"
        }
      ],
      "payable": false,
      "stateMutability": "nonpayable",
      "type": "function"
    },
    {
      "constant": false,
      "inputs": [
        {
          "internalType": "uint256",
          "name": "_amount",
          "type": "uint256"
        }
      ],
      "name": "increaseCLV",
      "outputs": [],
      "payable": false,
      "stateMutability": "nonpayable",
      "type": "function"
    },
    {
      "constant": false,
      "inputs": [
        {
          "internalType": "uint256",
          "name": "_amount",
          "type": "uint256"
        }
      ],
      "name": "decreaseCLV",
      "outputs": [],
      "payable": false,
      "stateMutability": "nonpayable",
      "type": "function"
    },
    {
      "constant": true,
      "inputs": [],
      "name": "getRawETHBalance",
      "outputs": [
        {
          "internalType": "uint256",
          "name": "",
          "type": "uint256"
        }
      ],
      "payable": false,
      "stateMutability": "view",
      "type": "function"
    }
  ],
  "bytecode": "0x608060405234801561001057600080fd5b506100226001600160e01b0361006f16565b600080546001600160a01b0319166001600160a01b03928316178082556040519216917f8be0079c531659141344cd1fd0a4f28419497f9722a3daafe3b4186f6b6457e0908290a3610073565b3390565b610f80806100826000396000f3fe6080604052600436106101805760003560e01c80638f32d59b116100d6578063cb18f1391161007f578063e9c8395711610059578063e9c83957146104d4578063f2fde38b146104fe578063f57a3d831461053157610180565b8063cb18f13914610495578063e1cf19c1146104aa578063e6a13f30146104bf57610180565b8063ad09d658116100b0578063ad09d6581461041a578063b08bc7221461044d578063c458bffb1461046257610180565b80638f32d59b1461039f5780639822339d146103b4578063ab95b1a2146103e757610180565b8063664162191161013857806382a033691161011257806382a03369146103605780638322fff2146103755780638da5cb5b1461038a57610180565b806366416219146103215780636959119514610336578063715018a61461034b57610180565b806314f6c3be1161016957806314f6c3be146102935780634de73631146102a857806364a197f3146102d457610180565b80630617edb41461023b5780630b622ab214610262575b6001546001600160a01b0316610194610546565b6001600160a01b031614806101c357506002546001600160a01b03166101b8610546565b6001600160a01b0316145b806101e857506003546001600160a01b03166101dd610546565b6001600160a01b0316145b6102235760405162461bcd60e51b8152600401808060200182810382526035815260200180610f176035913960400191505060405180910390fd5b600454610236903463ffffffff61054a16565b600455005b34801561024757600080fd5b506102506105ab565b60408051918252519081900360200190f35b34801561026e57600080fd5b506102776105b0565b604080516001600160a01b039092168252519081900360200190f35b34801561029f57600080fd5b506102506105bf565b3480156102b457600080fd5b506102d2600480360360208110156102cb57600080fd5b5035610622565b005b3480156102e057600080fd5b5061030d600480360360408110156102f757600080fd5b506001600160a01b0381351690602001356106c8565b604080519115158252519081900360200190f35b34801561032d57600080fd5b50610250610850565b34801561034257600080fd5b50610277610856565b34801561035757600080fd5b506102d2610865565b34801561036c57600080fd5b50610277610908565b34801561038157600080fd5b50610250610917565b34801561039657600080fd5b5061027761091d565b3480156103ab57600080fd5b5061030d61092c565b3480156103c057600080fd5b506102d2600480360360208110156103d757600080fd5b50356001600160a01b0316610950565b3480156103f357600080fd5b506102d26004803603602081101561040a57600080fd5b50356001600160a01b03166109ac565b34801561042657600080fd5b506102d26004803603602081101561043d57600080fd5b50356001600160a01b0316610a5f565b34801561045957600080fd5b50610277610b12565b34801561046e57600080fd5b506102d26004803603602081101561048557600080fd5b50356001600160a01b0316610b21565b3480156104a157600080fd5b50610277610bd4565b3480156104b657600080fd5b50610250610be3565b3480156104cb57600080fd5b50610277610c46565b3480156104e057600080fd5b506102d2600480360360208110156104f757600080fd5b5035610c55565b34801561050a57600080fd5b506102d26004803603602081101561052157600080fd5b50356001600160a01b0316610cc1565b34801561053d57600080fd5b50610277610d23565b3390565b6000828201838110156105a4576040805162461bcd60e51b815260206004820152601b60248201527f536166654d6174683a206164646974696f6e206f766572666c6f770000000000604482015290519081900360640190fd5b9392505050565b303190565b6002546001600160a01b031681565b6001546000906001600160a01b03166105d6610546565b6001600160a01b03161461061b5760405162461bcd60e51b815260040180806020018281038252602f815260200180610ec7602f913960400191505060405180910390fd5b5060045490565b6001546001600160a01b0316610636610546565b6001600160a01b03161461067b5760405162461bcd60e51b815260040180806020018281038252602f815260200180610ec7602f913960400191505060405180910390fd5b60055461068e908263ffffffff61054a16565b600581905560408051918252517f2345ee7f5f8837fcb9b95ec4fe3db62d9d05d7830cab26fe632f036008a935d89181900360200190a150565b6001546000906001600160a01b03166106df610546565b6001600160a01b0316146107245760405162461bcd60e51b815260040180806020018281038252602f815260200180610ec7602f913960400191505060405180910390fd5b600454610737908363ffffffff610d2716565b6004556040516000906001600160a01b0385169084908381818185875af1925050503d8060008114610785576040519150601f19603f3d011682016040523d82523d6000602084013e61078a565b606091505b50909150506001811515146107d05760405162461bcd60e51b8152600401808060200182810382526021815260200180610ef66021913960400191505060405180910390fd5b60045460408051918252517f7ab2bdf6e6d108cd138a8f6436723e8dfd0cb22727fe608e40b5adfb8357f1b99181900360200190a1604080516001600160a01b03861681526020810185905281517f6109e2559dfa766aaec7118351d48a523f0a4157f49c8d68749c8ac41318ad12929181900390910190a19392505050565b60055481565b6002546001600160a01b031690565b61086d61092c565b6108be576040805162461bcd60e51b815260206004820181905260248201527f4f776e61626c653a2063616c6c6572206973206e6f7420746865206f776e6572604482015290519081900360640190fd5b600080546040516001600160a01b03909116907f8be0079c531659141344cd1fd0a4f28419497f9722a3daafe3b4186f6b6457e0908390a3600080546001600160a01b0319169055565b6001546001600160a01b031690565b60045481565b6000546001600160a01b031690565b600080546001600160a01b0316610941610546565b6001600160a01b031614905090565b61095861092c565b6109a9576040805162461bcd60e51b815260206004820181905260248201527f4f776e61626c653a2063616c6c6572206973206e6f7420746865206f776e6572604482015290519081900360640190fd5b50565b6109b461092c565b610a05576040805162461bcd60e51b815260206004820181905260248201527f4f776e61626c653a2063616c6c6572206973206e6f7420746865206f776e6572604482015290519081900360640190fd5b600180546001600160a01b0319166001600160a01b03838116919091179182905560408051929091168252517f4d839b74477afe774fbb734df87db25e56c0427973aac588bb3ce7ce937f8850916020908290030190a150565b610a6761092c565b610ab8576040805162461bcd60e51b815260206004820181905260248201527f4f776e61626c653a2063616c6c6572206973206e6f7420746865206f776e6572604482015290519081900360640190fd5b600280546001600160a01b0319166001600160a01b03838116919091179182905560408051929091168252517f82966d27eea39b038ee0fa30cd16532bb24f6e65d31cb58fb227aa5766cdcc7f916020908290030190a150565b6003546001600160a01b031681565b610b2961092c565b610b7a576040805162461bcd60e51b815260206004820181905260248201527f4f776e61626c653a2063616c6c6572206973206e6f7420746865206f776e6572604482015290519081900360640190fd5b600380546001600160a01b0319166001600160a01b03838116919091179182905560408051929091168252517f78f058b189175430c48dc02699e3a0031ea4ff781536dc2fab847de4babdd882916020908290030190a150565b6003546001600160a01b031690565b6001546000906001600160a01b0316610bfa610546565b6001600160a01b031614610c3f5760405162461bcd60e51b815260040180806020018281038252602f815260200180610ec7602f913960400191505060405180910390fd5b5060055490565b6001546001600160a01b031681565b6001546001600160a01b0316610c69610546565b6001600160a01b031614610cae5760405162461bcd60e51b815260040180806020018281038252602f815260200180610ec7602f913960400191505060405180910390fd5b60055461068e908263ffffffff610d2716565b610cc961092c565b610d1a576040805162461bcd60e51b815260206004820181905260248201527f4f776e61626c653a2063616c6c6572206973206e6f7420746865206f776e6572604482015290519081900360640190fd5b6109a981610d69565b3090565b60006105a483836040518060400160405280601e81526020017f536166654d6174683a207375627472616374696f6e206f766572666c6f770000815250610e09565b6001600160a01b038116610dae5760405162461bcd60e51b8152600401808060200182810382526026815260200180610ea16026913960400191505060405180910390fd5b600080546040516001600160a01b03808516939216917f8be0079c531659141344cd1fd0a4f28419497f9722a3daafe3b4186f6b6457e091a3600080546001600160a01b0319166001600160a01b0392909216919091179055565b60008184841115610e985760405162461bcd60e51b81526004018080602001828103825283818151815260200191508051906020019080838360005b83811015610e5d578181015183820152602001610e45565b50505050905090810190601f168015610e8a5780820380516001836020036101000a031916815260200191505b509250505060405180910390fd5b50505090039056fe4f776e61626c653a206e6577206f776e657220697320746865207a65726f206164647265737344656661756c74506f6f6c3a204f6e6c792074686520706f6f6c4d616e6167657220697320617574686f72697a656444656661756c74506f6f6c3a207472616e73616374696f6e207265766572746564416374697665506f6f6c3a206f6e6c792072656365697665204554482066726f6d20506f6f6c206f7220506f6f6c4d616e61676572a265627a7a72315820a279aec8dc76123a202415e4832d962d467a3c1f71a9b3e5c68fedbf2392568364736f6c634300050b0032",
  "source": "pragma solidity ^0.5.11;\r\n\r\nimport './IPool.sol';\r\nimport '../node_modules/@openzeppelin/contracts/ownership/Ownable.sol';\r\nimport '../node_modules/@openzeppelin/contracts/math/SafeMath.sol';\r\n\r\ncontract DefaultPool is Ownable, IPool {\r\n    using SafeMath for uint256;\r\n\r\n    address public poolManagerAddress;\r\n    address public stabilityPoolAddress;\r\n    address public activePoolAddress;\r\n    uint256 public ETH;  // deposited ether tracker\r\n    uint256 public CLV;  // total outstanding CDP debt\r\n\r\n    constructor() public {}\r\n\r\n    // --- Contract setters ---\r\n    function setPoolManagerAddress(address _poolManagerAddress) public onlyOwner {\r\n        poolManagerAddress = _poolManagerAddress;\r\n        emit PoolManagerAddressChanged(poolManagerAddress);\r\n    }\r\n\r\n    function setActivePoolAddress(address _activePoolAddress) public onlyOwner {\r\n        activePoolAddress = _activePoolAddress;\r\n        emit ActivePoolAddressChanged(activePoolAddress);\r\n    }\r\n\r\n    function setStabilityPoolAddress(address _stabilityPoolAddress) public onlyOwner {\r\n        stabilityPoolAddress = _stabilityPoolAddress;\r\n        emit StabilityPoolAddressChanged(stabilityPoolAddress);\r\n    }\r\n\r\n    // Redundant function. Needed only to satisfy IPool interface\r\n    function setDefaultPoolAddress(address _defaultPoolAddress) public onlyOwner {\r\n    }\r\n\r\n    // --- Getters for public variables. Required by IPool interface ---\r\n\r\n    function getActivePoolAddress() public view returns(address) {\r\n        return activePoolAddress;\r\n    }\r\n\r\n    function getStabilityPoolAddress() public view returns(address){\r\n        return stabilityPoolAddress;\r\n    }\r\n\r\n    function getDefaultPoolAddress() public view returns(address){\r\n        return address(this);\r\n    }\r\n\r\n    function getPoolManagerAddress() public view returns(address) {\r\n        return poolManagerAddress;\r\n    }\r\n\r\n    function getETH() public view onlyPoolManager returns(uint) {\r\n        return ETH;\r\n    }\r\n\r\n    function getCLV() public view onlyPoolManager returns(uint) {\r\n        return CLV;\r\n    }\r\n\r\n    // --- Pool functionality ---\r\n    function sendETH(address payable _account, uint _amount) public onlyPoolManager returns(bool) {\r\n        ETH = ETH.sub(_amount);\r\n        (bool success, ) = _account.call.value(_amount)(\"\");  // use call.value()('') as per Consensys latest advice \r\n        require (success == true, 'DefaultPool: transaction reverted');\r\n        emit ETHBalanceUpdated(ETH);\r\n        emit EtherSent(_account, _amount);\r\n        return success;\r\n    }\r\n\r\n    // // Deprecated\r\n    // function increaseETH(uint _amount) public onlyPoolManager () {\r\n    //     ETH = ETH.add(_amount);\r\n    //     emit ETHBalanceUpdated(ETH);\r\n    // }\r\n\r\n    function increaseCLV(uint _amount) public onlyPoolManager () {\r\n        CLV  = CLV.add(_amount);\r\n        emit CLVBalanceUpdated(CLV);\r\n    }\r\n\r\n    function decreaseCLV(uint _amount) public onlyPoolManager () {\r\n        CLV = CLV.sub(_amount);\r\n        emit CLVBalanceUpdated(CLV);\r\n    }\r\n\r\n    /* Returns the raw ether balance at DefaultPool address.  \r\n    Not necessarily equal to the ETH state variable - ether can be forcibly sent to contracts. */\r\n    function getRawETHBalance() public view returns(uint) {\r\n        return address(this).balance;\r\n    }\r\n\r\n    modifier onlyPoolManager {\r\n        require(_msgSender() == poolManagerAddress, \"DefaultPool: Only the poolManager is authorized\");\r\n        _;\r\n    }\r\n\r\n    modifier onlyPoolManagerOrPool {\r\n        require(\r\n            _msgSender() == poolManagerAddress || \r\n            _msgSender() == stabilityPoolAddress || \r\n            _msgSender() == activePoolAddress, \r\n            \"ActivePool: only receive ETH from Pool or PoolManager\");\r\n        ETH = ETH.add(msg.value);\r\n        _;\r\n    }\r\n\r\n    function () external payable onlyPoolManagerOrPool {}\r\n}\r\n",
  "sourcePath": "c:/Users/Rick/Desktop/Cleverage/contracts/DefaultPool.sol",
  "compiler": {
    "name": "solc",
    "version": "0.5.11+commit.c082d0b4.Emscripten.clang"
  },
  "schemaVersion": "3.0.20",
  "updatedAt": "2019-12-30T00:39:24.097Z",
  "devdoc": {
    "methods": {
      "isOwner()": {
        "details": "Returns true if the caller is the current owner."
      },
      "owner()": {
        "details": "Returns the address of the current owner."
      },
      "renounceOwnership()": {
        "details": "Leaves the contract without owner. It will not be possible to call `onlyOwner` functions anymore. Can only be called by the current owner.     * NOTE: Renouncing ownership will leave the contract without an owner, thereby removing any functionality that is only available to the owner."
      },
      "transferOwnership(address)": {
        "details": "Transfers ownership of the contract to a new account (`newOwner`). Can only be called by the current owner."
      }
    }
  },
  "userdoc": {
    "methods": {}
  }
}