{
  "contractName": "ETHPriceFeed",
  "abi": [
    {
      "inputs": [
        {
          "internalType": "uint256",
          "name": "_digits",
          "type": "uint256"
        }
      ],
      "payable": false,
      "stateMutability": "nonpayable",
      "type": "constructor"
    },
    {
      "constant": false,
      "inputs": [
        {
          "internalType": "uint256",
          "name": "_price",
          "type": "uint256"
        }
      ],
      "name": "setPrice",
      "outputs": [
        {
          "internalType": "bool",
          "name": "",
          "type": "bool"
        }
      ],
      "payable": false,
      "stateMutability": "nonpayable",
      "type": "function"
    },
    {
      "constant": true,
      "inputs": [],
      "name": "getPrice",
      "outputs": [
        {
          "internalType": "uint256",
          "name": "",
          "type": "uint256"
        }
      ],
      "payable": false,
      "stateMutability": "view",
      "type": "function"
    }
  ],
  "bytecode": "0x608060405234801561001057600080fd5b5060405161014c38038061014c8339818101604052602081101561003357600080fd5b81019080805190602001909291905050508060018190555060015460c8026000819055505060e6806100666000396000f3fe6080604052348015600f57600080fd5b506004361060325760003560e01c806391b7f5ed14603757806398d5fdca14607a575b600080fd5b606060048036036020811015604b57600080fd5b81019080803590602001909291905050506096565b604051808215151515815260200191505060405180910390f35b608060a8565b6040518082815260200191505060405180910390f35b60008160008190555060019050919050565b6000805490509056fea265627a7a723158206cf5e34a07bf12a238a78079e869e5aafd4f9b59365ac75e1895993ea43e78b564736f6c634300050c0032",
  "source": "pragma solidity ^0.5.11;\r\n\r\n// A mock ETH:USD price oracle\r\ncontract ETHPriceFeed {\r\n    uint price;  \r\n    uint digits;\r\n    \r\n    constructor(uint _digits) public {\r\n        digits = _digits;\r\n        price = 200 * digits;\r\n    }   \r\n            \r\n    function setPrice(uint _price) public returns (bool) {\r\n        price = _price;\r\n        return true;\r\n    }    \r\n    \r\n    function getPrice() public view returns (uint) {\r\n        return price;\r\n    }    \r\n}",
  "sourcePath": "C:\\Users\\Administrator\\Desktop\\Cleverage\\contracts\\PriceFeed.sol",
  "compiler": {
    "name": "solc",
    "version": "0.5.12+commit.7709ece9.Emscripten.clang"
  },
  "schemaVersion": "3.0.19",
  "updatedAt": "2019-12-02T11:11:06.502Z",
  "devdoc": {
    "methods": {}
  },
  "userdoc": {
    "methods": {}
  }
}