{
  "contractName": "PoolManager",
  "abi": [
    {
      "inputs": [],
      "payable": false,
      "stateMutability": "nonpayable",
      "type": "constructor"
    },
    {
      "anonymous": false,
      "inputs": [
        {
          "indexed": true,
          "internalType": "address",
          "name": "previousOwner",
          "type": "address"
        },
        {
          "indexed": true,
          "internalType": "address",
          "name": "newOwner",
          "type": "address"
        }
      ],
      "name": "OwnershipTransferred",
      "type": "event"
    },
    {
      "constant": true,
      "inputs": [],
      "name": "S_CLV",
      "outputs": [
        {
          "internalType": "uint256",
          "name": "",
          "type": "uint256"
        }
      ],
      "payable": false,
      "stateMutability": "view",
      "type": "function"
    },
    {
      "constant": true,
      "inputs": [],
      "name": "S_ETH",
      "outputs": [
        {
          "internalType": "uint256",
          "name": "",
          "type": "uint256"
        }
      ],
      "payable": false,
      "stateMutability": "view",
      "type": "function"
    },
    {
      "constant": true,
      "inputs": [],
      "name": "activePool",
      "outputs": [
        {
          "internalType": "contract IPool",
          "name": "",
          "type": "address"
        }
      ],
      "payable": false,
      "stateMutability": "view",
      "type": "function"
    },
    {
      "constant": true,
      "inputs": [],
      "name": "activePoolAddress",
      "outputs": [
        {
          "internalType": "address payable",
          "name": "",
          "type": "address"
        }
      ],
      "payable": false,
      "stateMutability": "view",
      "type": "function"
    },
    {
      "constant": true,
      "inputs": [],
      "name": "cdpManagerAddress",
      "outputs": [
        {
          "internalType": "address",
          "name": "",
          "type": "address"
        }
      ],
      "payable": false,
      "stateMutability": "view",
      "type": "function"
    },
    {
      "constant": true,
      "inputs": [],
      "name": "clvAddress",
      "outputs": [
        {
          "internalType": "address",
          "name": "",
          "type": "address"
        }
      ],
      "payable": false,
      "stateMutability": "view",
      "type": "function"
    },
    {
      "constant": true,
      "inputs": [],
      "name": "defaultPool",
      "outputs": [
        {
          "internalType": "contract IPool",
          "name": "",
          "type": "address"
        }
      ],
      "payable": false,
      "stateMutability": "view",
      "type": "function"
    },
    {
      "constant": true,
      "inputs": [],
      "name": "defaultPoolAddress",
      "outputs": [
        {
          "internalType": "address payable",
          "name": "",
          "type": "address"
        }
      ],
      "payable": false,
      "stateMutability": "view",
      "type": "function"
    },
    {
      "constant": true,
      "inputs": [
        {
          "internalType": "address",
          "name": "",
          "type": "address"
        }
      ],
      "name": "deposit",
      "outputs": [
        {
          "internalType": "uint256",
          "name": "CLV",
          "type": "uint256"
        },
        {
          "internalType": "uint256",
          "name": "ETH",
          "type": "uint256"
        }
      ],
      "payable": false,
      "stateMutability": "view",
      "type": "function"
    },
    {
      "constant": true,
      "inputs": [],
      "name": "isOwner",
      "outputs": [
        {
          "internalType": "bool",
          "name": "",
          "type": "bool"
        }
      ],
      "payable": false,
      "stateMutability": "view",
      "type": "function"
    },
    {
      "constant": true,
      "inputs": [],
      "name": "owner",
      "outputs": [
        {
          "internalType": "address",
          "name": "",
          "type": "address"
        }
      ],
      "payable": false,
      "stateMutability": "view",
      "type": "function"
    },
    {
      "constant": true,
      "inputs": [],
      "name": "priceFeedAddress",
      "outputs": [
        {
          "internalType": "address",
          "name": "",
          "type": "address"
        }
      ],
      "payable": false,
      "stateMutability": "view",
      "type": "function"
    },
    {
      "constant": false,
      "inputs": [],
      "name": "renounceOwnership",
      "outputs": [],
      "payable": false,
      "stateMutability": "nonpayable",
      "type": "function"
    },
    {
      "constant": true,
      "inputs": [
        {
          "internalType": "address",
          "name": "",
          "type": "address"
        }
      ],
      "name": "snapshot",
      "outputs": [
        {
          "internalType": "uint256",
          "name": "CLV",
          "type": "uint256"
        },
        {
          "internalType": "uint256",
          "name": "ETH",
          "type": "uint256"
        }
      ],
      "payable": false,
      "stateMutability": "view",
      "type": "function"
    },
    {
      "constant": true,
      "inputs": [],
      "name": "stabilityPool",
      "outputs": [
        {
          "internalType": "contract IPool",
          "name": "",
          "type": "address"
        }
      ],
      "payable": false,
      "stateMutability": "view",
      "type": "function"
    },
    {
      "constant": true,
      "inputs": [],
      "name": "stabilityPoolAddress",
      "outputs": [
        {
          "internalType": "address payable",
          "name": "",
          "type": "address"
        }
      ],
      "payable": false,
      "stateMutability": "view",
      "type": "function"
    },
    {
      "constant": false,
      "inputs": [
        {
          "internalType": "address",
          "name": "newOwner",
          "type": "address"
        }
      ],
      "name": "transferOwnership",
      "outputs": [],
      "payable": false,
      "stateMutability": "nonpayable",
      "type": "function"
    },
    {
      "constant": false,
      "inputs": [
        {
          "internalType": "address",
          "name": "_CLVAddress",
          "type": "address"
        }
      ],
      "name": "setCLVToken",
      "outputs": [],
      "payable": false,
      "stateMutability": "nonpayable",
      "type": "function"
    },
    {
      "constant": false,
      "inputs": [
        {
          "internalType": "address",
          "name": "_priceFeedAddress",
          "type": "address"
        }
      ],
      "name": "setPriceFeed",
      "outputs": [],
      "payable": false,
      "stateMutability": "nonpayable",
      "type": "function"
    },
    {
      "constant": false,
      "inputs": [
        {
          "internalType": "address",
          "name": "_cdpManagerAddress",
          "type": "address"
        }
      ],
      "name": "setCDPManagerAddress",
      "outputs": [],
      "payable": false,
      "stateMutability": "nonpayable",
      "type": "function"
    },
    {
      "constant": false,
      "inputs": [
        {
          "internalType": "address payable",
          "name": "_stabilityPoolAddress",
          "type": "address"
        }
      ],
      "name": "setStabilityPool",
      "outputs": [],
      "payable": false,
      "stateMutability": "nonpayable",
      "type": "function"
    },
    {
      "constant": false,
      "inputs": [
        {
          "internalType": "address payable",
          "name": "_activePoolAddress",
          "type": "address"
        }
      ],
      "name": "setActivePool",
      "outputs": [],
      "payable": false,
      "stateMutability": "nonpayable",
      "type": "function"
    },
    {
      "constant": false,
      "inputs": [
        {
          "internalType": "address payable",
          "name": "_defaultPoolAddress",
          "type": "address"
        }
      ],
      "name": "setDefaultPool",
      "outputs": [],
      "payable": false,
      "stateMutability": "nonpayable",
      "type": "function"
    },
    {
      "constant": true,
      "inputs": [],
      "name": "getTCR",
      "outputs": [
        {
          "internalType": "uint256",
          "name": "",
          "type": "uint256"
        }
      ],
      "payable": false,
      "stateMutability": "view",
      "type": "function"
    },
    {
      "constant": true,
      "inputs": [],
      "name": "getBalance",
      "outputs": [
        {
          "internalType": "uint256",
          "name": "",
          "type": "uint256"
        }
      ],
      "payable": false,
      "stateMutability": "view",
      "type": "function"
    },
    {
      "constant": true,
      "inputs": [],
      "name": "getActiveDebt",
      "outputs": [
        {
          "internalType": "uint256",
          "name": "",
          "type": "uint256"
        }
      ],
      "payable": false,
      "stateMutability": "view",
      "type": "function"
    },
    {
      "constant": true,
      "inputs": [],
      "name": "getActiveColl",
      "outputs": [
        {
          "internalType": "uint256",
          "name": "",
          "type": "uint256"
        }
      ],
      "payable": false,
      "stateMutability": "view",
      "type": "function"
    },
    {
      "constant": true,
      "inputs": [],
      "name": "getClosedDebt",
      "outputs": [
        {
          "internalType": "uint256",
          "name": "",
          "type": "uint256"
        }
      ],
      "payable": false,
      "stateMutability": "view",
      "type": "function"
    },
    {
      "constant": true,
      "inputs": [],
      "name": "getClosedColl",
      "outputs": [
        {
          "internalType": "uint256",
          "name": "",
          "type": "uint256"
        }
      ],
      "payable": false,
      "stateMutability": "view",
      "type": "function"
    },
    {
      "constant": true,
      "inputs": [
        {
          "internalType": "uint256",
          "name": "a",
          "type": "uint256"
        },
        {
          "internalType": "uint256",
          "name": "b",
          "type": "uint256"
        }
      ],
      "name": "getMin",
      "outputs": [
        {
          "internalType": "uint256",
          "name": "",
          "type": "uint256"
        }
      ],
      "payable": false,
      "stateMutability": "pure",
      "type": "function"
    },
    {
      "constant": false,
      "inputs": [],
      "name": "addColl",
      "outputs": [
        {
          "internalType": "bool",
          "name": "",
          "type": "bool"
        }
      ],
      "payable": true,
      "stateMutability": "payable",
      "type": "function"
    },
    {
      "constant": false,
      "inputs": [
        {
          "internalType": "uint256",
          "name": "_ETH",
          "type": "uint256"
        },
        {
          "internalType": "address payable",
          "name": "_account",
          "type": "address"
        }
      ],
      "name": "withdrawColl",
      "outputs": [
        {
          "internalType": "bool",
          "name": "",
          "type": "bool"
        }
      ],
      "payable": false,
      "stateMutability": "nonpayable",
      "type": "function"
    },
    {
      "constant": false,
      "inputs": [
        {
          "internalType": "uint256",
          "name": "_CLV",
          "type": "uint256"
        },
        {
          "internalType": "address",
          "name": "_account",
          "type": "address"
        }
      ],
      "name": "withdrawCLV",
      "outputs": [
        {
          "internalType": "bool",
          "name": "",
          "type": "bool"
        }
      ],
      "payable": false,
      "stateMutability": "nonpayable",
      "type": "function"
    },
    {
      "constant": false,
      "inputs": [
        {
          "internalType": "uint256",
          "name": "_CLV",
          "type": "uint256"
        },
        {
          "internalType": "address",
          "name": "_account",
          "type": "address"
        }
      ],
      "name": "repayCLV",
      "outputs": [
        {
          "internalType": "bool",
          "name": "",
          "type": "bool"
        }
      ],
      "payable": false,
      "stateMutability": "nonpayable",
      "type": "function"
    },
    {
      "constant": false,
      "inputs": [
        {
          "internalType": "uint256",
          "name": "_CLV",
          "type": "uint256"
        },
        {
          "internalType": "uint256",
          "name": "_ETH",
          "type": "uint256"
        }
      ],
      "name": "close",
      "outputs": [
        {
          "internalType": "bool",
          "name": "",
          "type": "bool"
        }
      ],
      "payable": false,
      "stateMutability": "nonpayable",
      "type": "function"
    },
    {
      "constant": false,
      "inputs": [
        {
          "internalType": "uint256",
          "name": "_CLV",
          "type": "uint256"
        },
        {
          "internalType": "uint256",
          "name": "_ETH",
          "type": "uint256"
        }
      ],
      "name": "obtainDefaultShare",
      "outputs": [
        {
          "internalType": "bool",
          "name": "",
          "type": "bool"
        }
      ],
      "payable": false,
      "stateMutability": "nonpayable",
      "type": "function"
    },
    {
      "constant": false,
      "inputs": [
        {
          "internalType": "uint256",
          "name": "_CLV",
          "type": "uint256"
        },
        {
          "internalType": "uint256",
          "name": "_ETH",
          "type": "uint256"
        },
        {
          "internalType": "address payable",
          "name": "_account",
          "type": "address"
        }
      ],
      "name": "redeemCollateral",
      "outputs": [
        {
          "internalType": "bool",
          "name": "",
          "type": "bool"
        }
      ],
      "payable": false,
      "stateMutability": "nonpayable",
      "type": "function"
    },
    {
      "constant": false,
      "inputs": [
        {
          "internalType": "uint256",
          "name": "_amount",
          "type": "uint256"
        }
      ],
      "name": "depositCLV",
      "outputs": [
        {
          "internalType": "bool",
          "name": "",
          "type": "bool"
        }
      ],
      "payable": false,
      "stateMutability": "nonpayable",
      "type": "function"
    },
    {
      "constant": false,
      "inputs": [
        {
          "internalType": "uint256",
          "name": "_debt",
          "type": "uint256"
        },
        {
          "internalType": "uint256",
          "name": "_coll",
          "type": "uint256"
        }
      ],
      "name": "offset",
      "outputs": [
        {
          "internalType": "uint256[2]",
          "name": "",
          "type": "uint256[2]"
        }
      ],
      "payable": true,
      "stateMutability": "payable",
      "type": "function"
    },
    {
      "constant": false,
      "inputs": [],
      "name": "retrieve",
      "outputs": [
        {
          "internalType": "bool",
          "name": "",
          "type": "bool"
        }
      ],
      "payable": false,
      "stateMutability": "nonpayable",
      "type": "function"
    }
  ],
  "bytecode": "0x60806040523480156200001157600080fd5b5062000022620000e360201b60201c565b6000806101000a81548173ffffffffffffffffffffffffffffffffffffffff021916908373ffffffffffffffffffffffffffffffffffffffff1602179055506000809054906101000a900473ffffffffffffffffffffffffffffffffffffffff1673ffffffffffffffffffffffffffffffffffffffff16600073ffffffffffffffffffffffffffffffffffffffff167f8be0079c531659141344cd1fd0a4f28419497f9722a3daafe3b4186f6b6457e060405160405180910390a3620000eb565b600033905090565b61457f80620000fb6000396000f3fe60806040526004361061023b5760003560e01c80638da5cb5b1161012e578063c5040474116100ab578063f2fde38b1161006f578063f2fde38b14610c82578063f340fa0114610cd3578063f7883a8b14610d3f578063f78b338814610d90578063fefb4c5814610e035761023b565b8063c504047414610a93578063d0c49f5514610b06578063d31cadf614610b83578063e0abca0b14610bda578063ef6151a614610c315761023b565b8063aac1846f116100f2578063aac1846f1461093c578063b08bc72214610993578063b4f8adc5146109ea578063b620115d14610a3d578063b7a2a46314610a685761023b565b80638da5cb5b146107c75780638f32d59b1461081e5780639594897d1461084d57806398d721e014610878578063a532483e146108c95761023b565b80633cc74225116101bc578063708249b311610180578063708249b31461068c578063715018a6146106b7578063724e78da146106ce5780637f7dde4a1461071f5780638c192ed4146107765761023b565b80633cc74225146105255780634d5bc1111461057c578063596c8976146105d9578063697b93fd146106365780636bad5198146106615761023b565b80631f549907116102035780631f549907146103c957806325a2e6e7146103f457806326512160146104165780632e64cec114610482578063335525ad146104b15761023b565b806302f6567f14610240578063048c661d146102975780630b622ab2146102ee5780630fd95db51461034557806312065fe01461039e575b600080fd5b34801561024c57600080fd5b50610255610e54565b604051808273ffffffffffffffffffffffffffffffffffffffff1673ffffffffffffffffffffffffffffffffffffffff16815260200191505060405180910390f35b3480156102a357600080fd5b506102ac610e7a565b604051808273ffffffffffffffffffffffffffffffffffffffff1673ffffffffffffffffffffffffffffffffffffffff16815260200191505060405180910390f35b3480156102fa57600080fd5b50610303610ea0565b604051808273ffffffffffffffffffffffffffffffffffffffff1673ffffffffffffffffffffffffffffffffffffffff16815260200191505060405180910390f35b34801561035157600080fd5b506103886004803603604081101561036857600080fd5b810190808035906020019092919080359060200190929190505050610ec6565b6040518082815260200191505060405180910390f35b3480156103aa57600080fd5b506103b3610ee1565b6040518082815260200191505060405180910390f35b3480156103d557600080fd5b506103de610f00565b6040518082815260200191505060405180910390f35b6103fc610faa565b604051808215151515815260200191505060405180910390f35b34801561042257600080fd5b506104656004803603602081101561043957600080fd5b81019080803573ffffffffffffffffffffffffffffffffffffffff1690602001909291905050506111d5565b604051808381526020018281526020019250505060405180910390f35b34801561048e57600080fd5b506104976111f9565b604051808215151515815260200191505060405180910390f35b6104e7600480360360408110156104c757600080fd5b8101908080359060200190929190803590602001909291905050506117cf565b6040518082600260200280838360005b838110156105125780820151818401526020810190506104f7565b5050505090500191505060405180910390f35b34801561053157600080fd5b5061053a611fdf565b604051808273ffffffffffffffffffffffffffffffffffffffff1673ffffffffffffffffffffffffffffffffffffffff16815260200191505060405180910390f35b34801561058857600080fd5b506105bf6004803603604081101561059f57600080fd5b810190808035906020019092919080359060200190929190505050612005565b604051808215151515815260200191505060405180910390f35b3480156105e557600080fd5b5061061c600480360360408110156105fc57600080fd5b8101908080359060200190929190803590602001909291905050506122df565b604051808215151515815260200191505060405180910390f35b34801561064257600080fd5b5061064b6125b9565b6040518082815260200191505060405180910390f35b34801561066d57600080fd5b50610676612663565b6040518082815260200191505060405180910390f35b34801561069857600080fd5b506106a1612669565b6040518082815260200191505060405180910390f35b3480156106c357600080fd5b506106cc61266f565b005b3480156106da57600080fd5b5061071d600480360360208110156106f157600080fd5b81019080803573ffffffffffffffffffffffffffffffffffffffff1690602001909291905050506127a8565b005b34801561072b57600080fd5b506107346128a7565b604051808273ffffffffffffffffffffffffffffffffffffffff1673ffffffffffffffffffffffffffffffffffffffff16815260200191505060405180910390f35b34801561078257600080fd5b506107c56004803603602081101561079957600080fd5b81019080803573ffffffffffffffffffffffffffffffffffffffff1690602001909291905050506128cd565b005b3480156107d357600080fd5b506107dc6129ee565b604051808273ffffffffffffffffffffffffffffffffffffffff1673ffffffffffffffffffffffffffffffffffffffff16815260200191505060405180910390f35b34801561082a57600080fd5b50610833612a17565b604051808215151515815260200191505060405180910390f35b34801561085957600080fd5b50610862612a75565b6040518082815260200191505060405180910390f35b34801561088457600080fd5b506108c76004803603602081101561089b57600080fd5b81019080803573ffffffffffffffffffffffffffffffffffffffff169060200190929190505050612b1f565b005b3480156108d557600080fd5b50610922600480360360408110156108ec57600080fd5b8101908080359060200190929190803573ffffffffffffffffffffffffffffffffffffffff169060200190929190505050612c40565b604051808215151515815260200191505060405180910390f35b34801561094857600080fd5b50610951612e6b565b604051808273ffffffffffffffffffffffffffffffffffffffff1673ffffffffffffffffffffffffffffffffffffffff16815260200191505060405180910390f35b34801561099f57600080fd5b506109a8612e91565b604051808273ffffffffffffffffffffffffffffffffffffffff1673ffffffffffffffffffffffffffffffffffffffff16815260200191505060405180910390f35b3480156109f657600080fd5b50610a2360048036036020811015610a0d57600080fd5b8101908080359060200190929190505050612eb7565b604051808215151515815260200191505060405180910390f35b348015610a4957600080fd5b50610a526133b8565b6040518082815260200191505060405180910390f35b348015610a7457600080fd5b50610a7d613761565b6040518082815260200191505060405180910390f35b348015610a9f57600080fd5b50610aec60048036036040811015610ab657600080fd5b8101908080359060200190929190803573ffffffffffffffffffffffffffffffffffffffff16906020019092919050505061380b565b604051808215151515815260200191505060405180910390f35b348015610b1257600080fd5b50610b6960048036036060811015610b2957600080fd5b810190808035906020019092919080359060200190929190803573ffffffffffffffffffffffffffffffffffffffff1690602001909291905050506139a9565b604051808215151515815260200191505060405180910390f35b348015610b8f57600080fd5b50610b98613cba565b604051808273ffffffffffffffffffffffffffffffffffffffff1673ffffffffffffffffffffffffffffffffffffffff16815260200191505060405180910390f35b348015610be657600080fd5b50610bef613ce0565b604051808273ffffffffffffffffffffffffffffffffffffffff1673ffffffffffffffffffffffffffffffffffffffff16815260200191505060405180910390f35b348015610c3d57600080fd5b50610c8060048036036020811015610c5457600080fd5b81019080803573ffffffffffffffffffffffffffffffffffffffff169060200190929190505050613d06565b005b348015610c8e57600080fd5b50610cd160048036036020811015610ca557600080fd5b81019080803573ffffffffffffffffffffffffffffffffffffffff169060200190929190505050613dc4565b005b348015610cdf57600080fd5b50610d2260048036036020811015610cf657600080fd5b81019080803573ffffffffffffffffffffffffffffffffffffffff169060200190929190505050613e4a565b604051808381526020018281526020019250505060405180910390f35b348015610d4b57600080fd5b50610d8e60048036036020811015610d6257600080fd5b81019080803573ffffffffffffffffffffffffffffffffffffffff169060200190929190505050613e6e565b005b348015610d9c57600080fd5b50610de960048036036040811015610db357600080fd5b8101908080359060200190929190803573ffffffffffffffffffffffffffffffffffffffff169060200190929190505050613f8f565b604051808215151515815260200191505060405180910390f35b348015610e0f57600080fd5b50610e5260048036036020811015610e2657600080fd5b81019080803573ffffffffffffffffffffffffffffffffffffffff1690602001909291905050506141ba565b005b600160009054906101000a900473ffffffffffffffffffffffffffffffffffffffff1681565b600660009054906101000a900473ffffffffffffffffffffffffffffffffffffffff1681565b600760009054906101000a900473ffffffffffffffffffffffffffffffffffffffff1681565b6000818311610ed757829050610edb565b8190505b92915050565b60003073ffffffffffffffffffffffffffffffffffffffff1631905090565b6000600860009054906101000a900473ffffffffffffffffffffffffffffffffffffffff1673ffffffffffffffffffffffffffffffffffffffff166314f6c3be6040518163ffffffff1660e01b815260040160206040518083038186803b158015610f6a57600080fd5b505afa158015610f7e573d6000803e3d6000fd5b505050506040513d6020811015610f9457600080fd5b8101908080519060200190929190505050905090565b6000600160009054906101000a900473ffffffffffffffffffffffffffffffffffffffff1673ffffffffffffffffffffffffffffffffffffffff16610fed6142b9565b73ffffffffffffffffffffffffffffffffffffffff1614611059576040517f08c379a00000000000000000000000000000000000000000000000000000000081526004018080602001828103825260298152602001806144f66029913960400191505060405180910390fd5b600860009054906101000a900473ffffffffffffffffffffffffffffffffffffffff1673ffffffffffffffffffffffffffffffffffffffff1663b9c0d71f346040518263ffffffff1660e01b815260040180828152602001915050600060405180830381600087803b1580156110ce57600080fd5b505af11580156110e2573d6000803e3d6000fd5b505050506000600960009054906101000a900473ffffffffffffffffffffffffffffffffffffffff1673ffffffffffffffffffffffffffffffffffffffff163460405180600001905060006040518083038185875af1925050503d8060008114611168576040519150601f19603f3d011682016040523d82523d6000602084013e61116d565b606091505b5050905060011515811515146111ce576040517f08c379a000000000000000000000000000000000000000000000000000000000815260040180806020018281038252602f815260200180614481602f913960400191505060405180910390fd5b8091505090565b600f6020528060005260406000206000915090508060000154908060010154905082565b6000806112046142b9565b90506000600c60008373ffffffffffffffffffffffffffffffffffffffff1673ffffffffffffffffffffffffffffffffffffffff16815260200190815260200160002060000154116112a1576040517f08c379a00000000000000000000000000000000000000000000000000000000081526004018080602001828103825260228152602001806144d46022913960400191505060405180910390fd5b6000670de0b6b3a7640000600f60008473ffffffffffffffffffffffffffffffffffffffff1673ffffffffffffffffffffffffffffffffffffffff16815260200190815260200160002060000154600d5403600c60008573ffffffffffffffffffffffffffffffffffffffff1673ffffffffffffffffffffffffffffffffffffffff16815260200190815260200160002060000154028161133e57fe5b04600c60008473ffffffffffffffffffffffffffffffffffffffff1673ffffffffffffffffffffffffffffffffffffffff168152602001908152602001600020600001540390506000670de0b6b3a7640000600f60008573ffffffffffffffffffffffffffffffffffffffff1673ffffffffffffffffffffffffffffffffffffffff16815260200190815260200160002060010154600e5403600c60008673ffffffffffffffffffffffffffffffffffffffff1673ffffffffffffffffffffffffffffffffffffffff16815260200190815260200160002060000154028161142257fe5b0490506000600c60008573ffffffffffffffffffffffffffffffffffffffff1673ffffffffffffffffffffffffffffffffffffffff16815260200190815260200160002060000181905550600460009054906101000a900473ffffffffffffffffffffffffffffffffffffffff1673ffffffffffffffffffffffffffffffffffffffff166320c582be600760009054906101000a900473ffffffffffffffffffffffffffffffffffffffff168561157b86600660009054906101000a900473ffffffffffffffffffffffffffffffffffffffff1673ffffffffffffffffffffffffffffffffffffffff1663e1cf19c16040518163ffffffff1660e01b815260040160206040518083038186803b15801561153b57600080fd5b505afa15801561154f573d6000803e3d6000fd5b505050506040513d602081101561156557600080fd5b8101908080519060200190929190505050610ec6565b6040518463ffffffff1660e01b8152600401808473ffffffffffffffffffffffffffffffffffffffff1673ffffffffffffffffffffffffffffffffffffffff1681526020018373ffffffffffffffffffffffffffffffffffffffff1673ffffffffffffffffffffffffffffffffffffffff1681526020018281526020019350505050602060405180830381600087803b15801561161757600080fd5b505af115801561162b573d6000803e3d6000fd5b505050506040513d602081101561164157600080fd5b810190808051906020019092919050505050600660009054906101000a900473ffffffffffffffffffffffffffffffffffffffff1673ffffffffffffffffffffffffffffffffffffffff1663e9c83957836040518263ffffffff1660e01b815260040180828152602001915050600060405180830381600087803b1580156116c857600080fd5b505af11580156116dc573d6000803e3d6000fd5b50505050600660009054906101000a900473ffffffffffffffffffffffffffffffffffffffff1673ffffffffffffffffffffffffffffffffffffffff166364a197f384836040518363ffffffff1660e01b8152600401808373ffffffffffffffffffffffffffffffffffffffff1673ffffffffffffffffffffffffffffffffffffffff16815260200182815260200192505050602060405180830381600087803b15801561178957600080fd5b505af115801561179d573d6000803e3d6000fd5b505050506040513d60208110156117b357600080fd5b8101908080519060200190929190505050506001935050505090565b6117d7614405565b600160009054906101000a900473ffffffffffffffffffffffffffffffffffffffff1673ffffffffffffffffffffffffffffffffffffffff166118186142b9565b73ffffffffffffffffffffffffffffffffffffffff1614611884576040517f08c379a00000000000000000000000000000000000000000000000000000000081526004018080602001828103825260298152602001806144f66029913960400191505060405180910390fd5b6000600660009054906101000a900473ffffffffffffffffffffffffffffffffffffffff1673ffffffffffffffffffffffffffffffffffffffff1663e1cf19c16040518163ffffffff1660e01b815260040160206040518083038186803b1580156118ee57600080fd5b505afa158015611902573d6000803e3d6000fd5b505050506040513d602081101561191857600080fd5b81019080805190602001909291905050501161197f576040517f08c379a00000000000000000000000000000000000000000000000000000000081526004018080602001828103825260248152602001806144b06024913960400191505060405180910390fd5b6000611a2d84600660009054906101000a900473ffffffffffffffffffffffffffffffffffffffff1673ffffffffffffffffffffffffffffffffffffffff1663e1cf19c16040518163ffffffff1660e01b815260040160206040518083038186803b1580156119ed57600080fd5b505afa158015611a01573d6000803e3d6000fd5b505050506040513d6020811015611a1757600080fd5b8101908080519060200190929190505050610ec6565b90506000670de0b6b3a76400008486670de0b6b3a7640000850281611a4e57fe5b040281611a5757fe5b049050600660009054906101000a900473ffffffffffffffffffffffffffffffffffffffff1673ffffffffffffffffffffffffffffffffffffffff1663e1cf19c16040518163ffffffff1660e01b815260040160206040518083038186803b158015611ac257600080fd5b505afa158015611ad6573d6000803e3d6000fd5b505050506040513d6020811015611aec57600080fd5b8101908080519060200190929190505050670de0b6b3a7640000830281611b0f57fe5b04600d60008282540192505081905550600660009054906101000a900473ffffffffffffffffffffffffffffffffffffffff1673ffffffffffffffffffffffffffffffffffffffff1663e1cf19c16040518163ffffffff1660e01b815260040160206040518083038186803b158015611b8757600080fd5b505afa158015611b9b573d6000803e3d6000fd5b505050506040513d6020811015611bb157600080fd5b8101908080519060200190929190505050670de0b6b3a7640000820281611bd457fe5b04600e60008282540192505081905550600860009054906101000a900473ffffffffffffffffffffffffffffffffffffffff1673ffffffffffffffffffffffffffffffffffffffff1663e9c83957836040518263ffffffff1660e01b815260040180828152602001915050600060405180830381600087803b158015611c5957600080fd5b505af1158015611c6d573d6000803e3d6000fd5b50505050600660009054906101000a900473ffffffffffffffffffffffffffffffffffffffff1673ffffffffffffffffffffffffffffffffffffffff1663e9c83957836040518263ffffffff1660e01b815260040180828152602001915050600060405180830381600087803b158015611ce657600080fd5b505af1158015611cfa573d6000803e3d6000fd5b50505050600660009054906101000a900473ffffffffffffffffffffffffffffffffffffffff1673ffffffffffffffffffffffffffffffffffffffff1663b9c0d71f826040518263ffffffff1660e01b815260040180828152602001915050600060405180830381600087803b158015611d7357600080fd5b505af1158015611d87573d6000803e3d6000fd5b50505050600860009054906101000a900473ffffffffffffffffffffffffffffffffffffffff1673ffffffffffffffffffffffffffffffffffffffff166364a197f3600760009054906101000a900473ffffffffffffffffffffffffffffffffffffffff16836040518363ffffffff1660e01b8152600401808373ffffffffffffffffffffffffffffffffffffffff1673ffffffffffffffffffffffffffffffffffffffff16815260200182815260200192505050602060405180830381600087803b158015611e5657600080fd5b505af1158015611e6a573d6000803e3d6000fd5b505050506040513d6020811015611e8057600080fd5b810190808051906020019092919050505050600460009054906101000a900473ffffffffffffffffffffffffffffffffffffffff1673ffffffffffffffffffffffffffffffffffffffff16639dc29fac600760009054906101000a900473ffffffffffffffffffffffffffffffffffffffff16846040518363ffffffff1660e01b8152600401808373ffffffffffffffffffffffffffffffffffffffff1673ffffffffffffffffffffffffffffffffffffffff16815260200182815260200192505050602060405180830381600087803b158015611f5d57600080fd5b505af1158015611f71573d6000803e3d6000fd5b505050506040513d6020811015611f8757600080fd5b810190808051906020019092919050505050611fa1614405565b82860381600060028110611fb157fe5b60200201818152505081850381600160028110611fca57fe5b60200201818152505080935050505092915050565b600a60009054906101000a900473ffffffffffffffffffffffffffffffffffffffff1681565b6000600160009054906101000a900473ffffffffffffffffffffffffffffffffffffffff1673ffffffffffffffffffffffffffffffffffffffff166120486142b9565b73ffffffffffffffffffffffffffffffffffffffff16146120b4576040517f08c379a00000000000000000000000000000000000000000000000000000000081526004018080602001828103825260298152602001806144f66029913960400191505060405180910390fd5b600a60009054906101000a900473ffffffffffffffffffffffffffffffffffffffff1673ffffffffffffffffffffffffffffffffffffffff1663e9c83957846040518263ffffffff1660e01b815260040180828152602001915050600060405180830381600087803b15801561212957600080fd5b505af115801561213d573d6000803e3d6000fd5b50505050600860009054906101000a900473ffffffffffffffffffffffffffffffffffffffff1673ffffffffffffffffffffffffffffffffffffffff16634de73631846040518263ffffffff1660e01b815260040180828152602001915050600060405180830381600087803b1580156121b657600080fd5b505af11580156121ca573d6000803e3d6000fd5b50505050600a60009054906101000a900473ffffffffffffffffffffffffffffffffffffffff1673ffffffffffffffffffffffffffffffffffffffff166364a197f3600960009054906101000a900473ffffffffffffffffffffffffffffffffffffffff16846040518363ffffffff1660e01b8152600401808373ffffffffffffffffffffffffffffffffffffffff1673ffffffffffffffffffffffffffffffffffffffff16815260200182815260200192505050602060405180830381600087803b15801561229957600080fd5b505af11580156122ad573d6000803e3d6000fd5b505050506040513d60208110156122c357600080fd5b8101908080519060200190929190505050506001905092915050565b6000600160009054906101000a900473ffffffffffffffffffffffffffffffffffffffff1673ffffffffffffffffffffffffffffffffffffffff166123226142b9565b73ffffffffffffffffffffffffffffffffffffffff161461238e576040517f08c379a00000000000000000000000000000000000000000000000000000000081526004018080602001828103825260298152602001806144f66029913960400191505060405180910390fd5b600a60009054906101000a900473ffffffffffffffffffffffffffffffffffffffff1673ffffffffffffffffffffffffffffffffffffffff16634de73631846040518263ffffffff1660e01b815260040180828152602001915050600060405180830381600087803b15801561240357600080fd5b505af1158015612417573d6000803e3d6000fd5b50505050600860009054906101000a900473ffffffffffffffffffffffffffffffffffffffff1673ffffffffffffffffffffffffffffffffffffffff1663e9c83957846040518263ffffffff1660e01b815260040180828152602001915050600060405180830381600087803b15801561249057600080fd5b505af11580156124a4573d6000803e3d6000fd5b50505050600860009054906101000a900473ffffffffffffffffffffffffffffffffffffffff1673ffffffffffffffffffffffffffffffffffffffff166364a197f3600b60009054906101000a900473ffffffffffffffffffffffffffffffffffffffff16846040518363ffffffff1660e01b8152600401808373ffffffffffffffffffffffffffffffffffffffff1673ffffffffffffffffffffffffffffffffffffffff16815260200182815260200192505050602060405180830381600087803b15801561257357600080fd5b505af1158015612587573d6000803e3d6000fd5b505050506040513d602081101561259d57600080fd5b8101908080519060200190929190505050506001905092915050565b6000600860009054906101000a900473ffffffffffffffffffffffffffffffffffffffff1673ffffffffffffffffffffffffffffffffffffffff1663e1cf19c16040518163ffffffff1660e01b815260040160206040518083038186803b15801561262357600080fd5b505afa158015612637573d6000803e3d6000fd5b505050506040513d602081101561264d57600080fd5b8101908080519060200190929190505050905090565b600e5481565b600d5481565b612677612a17565b6126e9576040517f08c379a00000000000000000000000000000000000000000000000000000000081526004018080602001828103825260208152602001807f4f776e61626c653a2063616c6c6572206973206e6f7420746865206f776e657281525060200191505060405180910390fd5b600073ffffffffffffffffffffffffffffffffffffffff166000809054906101000a900473ffffffffffffffffffffffffffffffffffffffff1673ffffffffffffffffffffffffffffffffffffffff167f8be0079c531659141344cd1fd0a4f28419497f9722a3daafe3b4186f6b6457e060405160405180910390a360008060006101000a81548173ffffffffffffffffffffffffffffffffffffffff021916908373ffffffffffffffffffffffffffffffffffffffff160217905550565b6127b0612a17565b612822576040517f08c379a00000000000000000000000000000000000000000000000000000000081526004018080602001828103825260208152602001807f4f776e61626c653a2063616c6c6572206973206e6f7420746865206f776e657281525060200191505060405180910390fd5b80600360006101000a81548173ffffffffffffffffffffffffffffffffffffffff021916908373ffffffffffffffffffffffffffffffffffffffff16021790555080600260006101000a81548173ffffffffffffffffffffffffffffffffffffffff021916908373ffffffffffffffffffffffffffffffffffffffff16021790555050565b600860009054906101000a900473ffffffffffffffffffffffffffffffffffffffff1681565b6128d5612a17565b612947576040517f08c379a00000000000000000000000000000000000000000000000000000000081526004018080602001828103825260208152602001807f4f776e61626c653a2063616c6c6572206973206e6f7420746865206f776e657281525060200191505060405180910390fd5b80600b60006101000a81548173ffffffffffffffffffffffffffffffffffffffff021916908373ffffffffffffffffffffffffffffffffffffffff160217905550600b60009054906101000a900473ffffffffffffffffffffffffffffffffffffffff16600a60006101000a81548173ffffffffffffffffffffffffffffffffffffffff021916908373ffffffffffffffffffffffffffffffffffffffff16021790555050565b60008060009054906101000a900473ffffffffffffffffffffffffffffffffffffffff16905090565b60008060009054906101000a900473ffffffffffffffffffffffffffffffffffffffff1673ffffffffffffffffffffffffffffffffffffffff16612a596142b9565b73ffffffffffffffffffffffffffffffffffffffff1614905090565b6000600a60009054906101000a900473ffffffffffffffffffffffffffffffffffffffff1673ffffffffffffffffffffffffffffffffffffffff1663e1cf19c16040518163ffffffff1660e01b815260040160206040518083038186803b158015612adf57600080fd5b505afa158015612af3573d6000803e3d6000fd5b505050506040513d6020811015612b0957600080fd5b8101908080519060200190929190505050905090565b612b27612a17565b612b99576040517f08c379a00000000000000000000000000000000000000000000000000000000081526004018080602001828103825260208152602001807f4f776e61626c653a2063616c6c6572206973206e6f7420746865206f776e657281525060200191505060405180910390fd5b80600760006101000a81548173ffffffffffffffffffffffffffffffffffffffff021916908373ffffffffffffffffffffffffffffffffffffffff160217905550600760009054906101000a900473ffffffffffffffffffffffffffffffffffffffff16600660006101000a81548173ffffffffffffffffffffffffffffffffffffffff021916908373ffffffffffffffffffffffffffffffffffffffff16021790555050565b6000600160009054906101000a900473ffffffffffffffffffffffffffffffffffffffff1673ffffffffffffffffffffffffffffffffffffffff16612c836142b9565b73ffffffffffffffffffffffffffffffffffffffff1614612cef576040517f08c379a00000000000000000000000000000000000000000000000000000000081526004018080602001828103825260298152602001806144f66029913960400191505060405180910390fd5b600860009054906101000a900473ffffffffffffffffffffffffffffffffffffffff1673ffffffffffffffffffffffffffffffffffffffff16634de73631846040518263ffffffff1660e01b815260040180828152602001915050600060405180830381600087803b158015612d6457600080fd5b505af1158015612d78573d6000803e3d6000fd5b50505050600460009054906101000a900473ffffffffffffffffffffffffffffffffffffffff1673ffffffffffffffffffffffffffffffffffffffff166340c10f1983856040518363ffffffff1660e01b8152600401808373ffffffffffffffffffffffffffffffffffffffff1673ffffffffffffffffffffffffffffffffffffffff16815260200182815260200192505050602060405180830381600087803b158015612e2557600080fd5b505af1158015612e39573d6000803e3d6000fd5b505050506040513d6020811015612e4f57600080fd5b8101908080519060200190929190505050506001905092915050565b600b60009054906101000a900473ffffffffffffffffffffffffffffffffffffffff1681565b600960009054906101000a900473ffffffffffffffffffffffffffffffffffffffff1681565b600080612ec26142b9565b905060008311612f1d576040517f08c379a000000000000000000000000000000000000000000000000000000000815260040180806020018281038252603381526020018061444e6033913960400191505060405180910390fd5b82600460009054906101000a900473ffffffffffffffffffffffffffffffffffffffff1673ffffffffffffffffffffffffffffffffffffffff166370a08231836040518263ffffffff1660e01b8152600401808273ffffffffffffffffffffffffffffffffffffffff1673ffffffffffffffffffffffffffffffffffffffff16815260200191505060206040518083038186803b158015612fbd57600080fd5b505afa158015612fd1573d6000803e3d6000fd5b505050506040513d6020811015612fe757600080fd5b8101908080519060200190929190505050101561304f576040517f08c379a000000000000000000000000000000000000000000000000000000000815260040180806020018281038252602c81526020018061451f602c913960400191505060405180910390fd5b600460009054906101000a900473ffffffffffffffffffffffffffffffffffffffff1673ffffffffffffffffffffffffffffffffffffffff1663bb997bac82600760009054906101000a900473ffffffffffffffffffffffffffffffffffffffff16866040518463ffffffff1660e01b8152600401808473ffffffffffffffffffffffffffffffffffffffff1673ffffffffffffffffffffffffffffffffffffffff1681526020018373ffffffffffffffffffffffffffffffffffffffff1673ffffffffffffffffffffffffffffffffffffffff1681526020018281526020019350505050602060405180830381600087803b15801561314e57600080fd5b505af1158015613162573d6000803e3d6000fd5b505050506040513d602081101561317857600080fd5b810190808051906020019092919050505050600660009054906101000a900473ffffffffffffffffffffffffffffffffffffffff1673ffffffffffffffffffffffffffffffffffffffff16634de73631846040518263ffffffff1660e01b815260040180828152602001915050600060405180830381600087803b1580156131ff57600080fd5b505af1158015613213573d6000803e3d6000fd5b5050505082600c60006132246142b9565b73ffffffffffffffffffffffffffffffffffffffff1673ffffffffffffffffffffffffffffffffffffffff16815260200190815260200160002060000160008282540192505081905550600d54600f600061327d6142b9565b73ffffffffffffffffffffffffffffffffffffffff1673ffffffffffffffffffffffffffffffffffffffff16815260200190815260200160002060000181905550600660009054906101000a900473ffffffffffffffffffffffffffffffffffffffff1673ffffffffffffffffffffffffffffffffffffffff166314f6c3be6040518163ffffffff1660e01b815260040160206040518083038186803b15801561332657600080fd5b505afa15801561333a573d6000803e3d6000fd5b505050506040513d602081101561335057600080fd5b8101908080519060200190929190505050600f600061336d6142b9565b73ffffffffffffffffffffffffffffffffffffffff1673ffffffffffffffffffffffffffffffffffffffff168152602001908152602001600020600101819055506001915050919050565b600080600860009054906101000a900473ffffffffffffffffffffffffffffffffffffffff1673ffffffffffffffffffffffffffffffffffffffff166314f6c3be6040518163ffffffff1660e01b815260040160206040518083038186803b15801561342357600080fd5b505afa158015613437573d6000803e3d6000fd5b505050506040513d602081101561344d57600080fd5b810190808051906020019092919050505090506000600860009054906101000a900473ffffffffffffffffffffffffffffffffffffffff1673ffffffffffffffffffffffffffffffffffffffff1663e1cf19c16040518163ffffffff1660e01b815260040160206040518083038186803b1580156134ca57600080fd5b505afa1580156134de573d6000803e3d6000fd5b505050506040513d60208110156134f457600080fd5b810190808051906020019092919050505090506000821480156135175750600081145b156135275760019250505061375e565b600082141580156135385750600081145b15613567577fffffffffffffffffffffffffffffffffffffffffffffffffffffffffffffffff9250505061375e565b600860009054906101000a900473ffffffffffffffffffffffffffffffffffffffff1673ffffffffffffffffffffffffffffffffffffffff1663e1cf19c16040518163ffffffff1660e01b815260040160206040518083038186803b1580156135cf57600080fd5b505afa1580156135e3573d6000803e3d6000fd5b505050506040513d60208110156135f957600080fd5b8101908080519060200190929190505050600260009054906101000a900473ffffffffffffffffffffffffffffffffffffffff1673ffffffffffffffffffffffffffffffffffffffff166398d5fdca6040518163ffffffff1660e01b815260040160206040518083038186803b15801561367257600080fd5b505afa158015613686573d6000803e3d6000fd5b505050506040513d602081101561369c57600080fd5b8101908080519060200190929190505050600860009054906101000a900473ffffffffffffffffffffffffffffffffffffffff1673ffffffffffffffffffffffffffffffffffffffff166314f6c3be6040518163ffffffff1660e01b815260040160206040518083038186803b15801561371557600080fd5b505afa158015613729573d6000803e3d6000fd5b505050506040513d602081101561373f57600080fd5b8101908080519060200190929190505050028161375857fe5b04925050505b90565b6000600a60009054906101000a900473ffffffffffffffffffffffffffffffffffffffff1673ffffffffffffffffffffffffffffffffffffffff166314f6c3be6040518163ffffffff1660e01b815260040160206040518083038186803b1580156137cb57600080fd5b505afa1580156137df573d6000803e3d6000fd5b505050506040513d60208110156137f557600080fd5b8101908080519060200190929190505050905090565b6000600160009054906101000a900473ffffffffffffffffffffffffffffffffffffffff1673ffffffffffffffffffffffffffffffffffffffff1661384e6142b9565b73ffffffffffffffffffffffffffffffffffffffff16146138ba576040517f08c379a00000000000000000000000000000000000000000000000000000000081526004018080602001828103825260298152602001806144f66029913960400191505060405180910390fd5b600860009054906101000a900473ffffffffffffffffffffffffffffffffffffffff1673ffffffffffffffffffffffffffffffffffffffff166364a197f383856040518363ffffffff1660e01b8152600401808373ffffffffffffffffffffffffffffffffffffffff1673ffffffffffffffffffffffffffffffffffffffff16815260200182815260200192505050602060405180830381600087803b15801561396357600080fd5b505af1158015613977573d6000803e3d6000fd5b505050506040513d602081101561398d57600080fd5b8101908080519060200190929190505050506001905092915050565b6000600160009054906101000a900473ffffffffffffffffffffffffffffffffffffffff1673ffffffffffffffffffffffffffffffffffffffff166139ec6142b9565b73ffffffffffffffffffffffffffffffffffffffff1614613a58576040517f08c379a00000000000000000000000000000000000000000000000000000000081526004018080602001828103825260298152602001806144f66029913960400191505060405180910390fd5b600860009054906101000a900473ffffffffffffffffffffffffffffffffffffffff1673ffffffffffffffffffffffffffffffffffffffff1663e9c83957856040518263ffffffff1660e01b815260040180828152602001915050600060405180830381600087803b158015613acd57600080fd5b505af1158015613ae1573d6000803e3d6000fd5b50505050600860009054906101000a900473ffffffffffffffffffffffffffffffffffffffff1673ffffffffffffffffffffffffffffffffffffffff166364a197f383856040518363ffffffff1660e01b8152600401808373ffffffffffffffffffffffffffffffffffffffff1673ffffffffffffffffffffffffffffffffffffffff16815260200182815260200192505050602060405180830381600087803b158015613b8e57600080fd5b505af1158015613ba2573d6000803e3d6000fd5b505050506040513d6020811015613bb857600080fd5b810190808051906020019092919050505050600460009054906101000a900473ffffffffffffffffffffffffffffffffffffffff1673ffffffffffffffffffffffffffffffffffffffff16639dc29fac83866040518363ffffffff1660e01b8152600401808373ffffffffffffffffffffffffffffffffffffffff1673ffffffffffffffffffffffffffffffffffffffff16815260200182815260200192505050602060405180830381600087803b158015613c7357600080fd5b505af1158015613c87573d6000803e3d6000fd5b505050506040513d6020811015613c9d57600080fd5b810190808051906020019092919050505050600190509392505050565b600560009054906101000a900473ffffffffffffffffffffffffffffffffffffffff1681565b600360009054906101000a900473ffffffffffffffffffffffffffffffffffffffff1681565b613d0e612a17565b613d80576040517f08c379a00000000000000000000000000000000000000000000000000000000081526004018080602001828103825260208152602001807f4f776e61626c653a2063616c6c6572206973206e6f7420746865206f776e657281525060200191505060405180910390fd5b80600160006101000a81548173ffffffffffffffffffffffffffffffffffffffff021916908373ffffffffffffffffffffffffffffffffffffffff16021790555050565b613dcc612a17565b613e3e576040517f08c379a00000000000000000000000000000000000000000000000000000000081526004018080602001828103825260208152602001807f4f776e61626c653a2063616c6c6572206973206e6f7420746865206f776e657281525060200191505060405180910390fd5b613e47816142c1565b50565b600c6020528060005260406000206000915090508060000154908060010154905082565b613e76612a17565b613ee8576040517f08c379a00000000000000000000000000000000000000000000000000000000081526004018080602001828103825260208152602001807f4f776e61626c653a2063616c6c6572206973206e6f7420746865206f776e657281525060200191505060405180910390fd5b80600960006101000a81548173ffffffffffffffffffffffffffffffffffffffff021916908373ffffffffffffffffffffffffffffffffffffffff160217905550600960009054906101000a900473ffffffffffffffffffffffffffffffffffffffff16600860006101000a81548173ffffffffffffffffffffffffffffffffffffffff021916908373ffffffffffffffffffffffffffffffffffffffff16021790555050565b6000600160009054906101000a900473ffffffffffffffffffffffffffffffffffffffff1673ffffffffffffffffffffffffffffffffffffffff16613fd26142b9565b73ffffffffffffffffffffffffffffffffffffffff161461403e576040517f08c379a00000000000000000000000000000000000000000000000000000000081526004018080602001828103825260298152602001806144f66029913960400191505060405180910390fd5b600860009054906101000a900473ffffffffffffffffffffffffffffffffffffffff1673ffffffffffffffffffffffffffffffffffffffff1663e9c83957846040518263ffffffff1660e01b815260040180828152602001915050600060405180830381600087803b1580156140b357600080fd5b505af11580156140c7573d6000803e3d6000fd5b50505050600460009054906101000a900473ffffffffffffffffffffffffffffffffffffffff1673ffffffffffffffffffffffffffffffffffffffff16639dc29fac83856040518363ffffffff1660e01b8152600401808373ffffffffffffffffffffffffffffffffffffffff1673ffffffffffffffffffffffffffffffffffffffff16815260200182815260200192505050602060405180830381600087803b15801561417457600080fd5b505af1158015614188573d6000803e3d6000fd5b505050506040513d602081101561419e57600080fd5b8101908080519060200190929190505050506001905092915050565b6141c2612a17565b614234576040517f08c379a00000000000000000000000000000000000000000000000000000000081526004018080602001828103825260208152602001807f4f776e61626c653a2063616c6c6572206973206e6f7420746865206f776e657281525060200191505060405180910390fd5b80600560006101000a81548173ffffffffffffffffffffffffffffffffffffffff021916908373ffffffffffffffffffffffffffffffffffffffff16021790555080600460006101000a81548173ffffffffffffffffffffffffffffffffffffffff021916908373ffffffffffffffffffffffffffffffffffffffff16021790555050565b600033905090565b600073ffffffffffffffffffffffffffffffffffffffff168173ffffffffffffffffffffffffffffffffffffffff161415614347576040517f08c379a00000000000000000000000000000000000000000000000000000000081526004018080602001828103825260268152602001806144286026913960400191505060405180910390fd5b8073ffffffffffffffffffffffffffffffffffffffff166000809054906101000a900473ffffffffffffffffffffffffffffffffffffffff1673ffffffffffffffffffffffffffffffffffffffff167f8be0079c531659141344cd1fd0a4f28419497f9722a3daafe3b4186f6b6457e060405160405180910390a3806000806101000a81548173ffffffffffffffffffffffffffffffffffffffff021916908373ffffffffffffffffffffffffffffffffffffffff16021790555050565b604051806040016040528060029060208202803883398082019150509050509056fe4f776e61626c653a206e6577206f776e657220697320746865207a65726f2061646472657373506f6f6c4d616e616765723a206465706f736974656420616d6f756e74206d757374206265206c6172676572207468616e2030506f6f6c4d616e616765723a207472616e73616374696f6e20746f20616374697665506f6f6c207265766572746564506f6f6c4d616e616765723a2073746162696c69747920706f6f6c20697320656d707479506f6f6c4d616e616765723a2063616c6c657220686173206e6f206465706f736974506f6f6c4d616e616765723a2043616c6c6572206973206e6f7420746865204344504d616e61676572506f6f6c4d616e616765723a2073656e6465722068617320696e73756666696369656e742062616c616e6365a265627a7a72315820ec4b23e7b51ffb0213d077d7c8d428bc802b5fdc84f27913cd5e17a653f090f264736f6c634300050c0032",
  "source": "pragma solidity ^0.5.11;\r\n\r\n// import \"./StabilityPool.sol\";\r\n// import \"./ActivePool.sol\";\r\n// import \"./DefaultPool.sol\";\r\nimport './IPool.sol';\r\n\r\nimport \"./PriceFeed.sol\";\r\nimport \"./CLVToken.sol\";\r\nimport '../node_modules/@openzeppelin/contracts/ownership/Ownable.sol';\r\n\r\n// Maintains all pools and holds the ETH and CLV balances\r\ncontract PoolManager is Ownable {\r\n    struct Pool {\r\n        uint CLV;\r\n        uint ETH;   \r\n    }\r\n    \r\n    uint constant DIGITS = 1e18;\r\n\r\n    address public cdpManagerAddress;\r\n\r\n    PriceFeed priceFeed;\r\n    address public priceFeedAddress;\r\n\r\n    CLVToken CLV; \r\n    address public clvAddress;\r\n\r\n    IPool public stabilityPool;\r\n    address payable public stabilityPoolAddress;\r\n\r\n    IPool public activePool;\r\n    address payable public activePoolAddress;\r\n\r\n    IPool public defaultPool;\r\n    address payable public defaultPoolAddress;\r\n   \r\n    mapping (address => Pool) public deposit; // A map of all deposits\r\n    //TODO: initialise S_CLV, S_ETH?\r\n    uint public S_CLV; // A running total of the CLV fractions for gas-efficient share calculation\r\n    uint public S_ETH; // A running total of the ETH fractions for gas-efficient share calculation\r\n    mapping (address => Pool) public snapshot; // A map of individual snapshots of the S_CLV and the current Stability.ETH values\r\n    \r\n    modifier onlyCDPManager() {\r\n        require(_msgSender() == cdpManagerAddress, \"PoolManager: Caller is not the CDPManager\");\r\n        _;\r\n    }\r\n\r\n    constructor() public {\r\n    }\r\n\r\n    // Dependency setters\r\n    function setCLVToken(address _CLVAddress) public onlyOwner {\r\n        clvAddress = _CLVAddress;\r\n        CLV = CLVToken(_CLVAddress); \r\n    }\r\n     function setPriceFeed(address _priceFeedAddress) public onlyOwner {\r\n        priceFeedAddress = _priceFeedAddress;\r\n        priceFeed = PriceFeed(_priceFeedAddress);\r\n    }\r\n\r\n    function setCDPManagerAddress(address _cdpManagerAddress) public onlyOwner {\r\n        cdpManagerAddress = _cdpManagerAddress;\r\n    }\r\n\r\n    function setStabilityPool(address payable _stabilityPoolAddress) public onlyOwner {\r\n        stabilityPoolAddress = _stabilityPoolAddress;\r\n        stabilityPool = IPool(stabilityPoolAddress);\r\n    }\r\n\r\n    function setActivePool(address payable _activePoolAddress) public onlyOwner {\r\n        activePoolAddress = _activePoolAddress;\r\n        activePool = IPool(activePoolAddress);\r\n    }\r\n\r\n    function setDefaultPool(address payable _defaultPoolAddress) public onlyOwner {\r\n        defaultPoolAddress = _defaultPoolAddress;\r\n        defaultPool = IPool(defaultPoolAddress);\r\n    }\r\n\r\n    // Returns the total collateral ratio of the system\r\n    function getTCR() \r\n        view \r\n        public \r\n        returns (uint) \r\n    {\r\n        uint activePoolETH = activePool.getETH();\r\n        uint activePoolCLV = activePool.getCLV();\r\n\r\n        // Handle edge cases of div by 0\r\n        if(activePoolETH == 0 && activePoolCLV == 0 ) { \r\n            return 1;\r\n        }  else if (activePoolETH != 0 && activePoolCLV == 0 ) {\r\n            return 2**256 - 1; // TCR is technically infinite\r\n        } \r\n\r\n        // calculate TCR\r\n        return activePool.getETH() * priceFeed.getPrice() / activePool.getCLV();\r\n    }\r\n    \r\n    // Returns the current ETH balance of the TokenPools contract\r\n    function getBalance() \r\n        public\r\n        view\r\n        returns (uint)\r\n    {\r\n        return address(this).balance;\r\n    } \r\n    \r\n    // Returns the total active debt (in CLV) in the system\r\n    function getActiveDebt() \r\n        public\r\n        view\r\n        returns (uint)\r\n    {\r\n        return activePool.getCLV();\r\n    }    \r\n    \r\n    // Returns the total active collateral (in ETH) in the system\r\n    function getActiveColl() \r\n        public\r\n        view\r\n        returns (uint)\r\n    {\r\n        return activePool.getETH();\r\n    } \r\n    \r\n    // Returns the amount of closed debt (in CLV)\r\n    function getClosedDebt() \r\n        public\r\n        view\r\n        returns (uint)\r\n    {\r\n        return defaultPool.getCLV();\r\n    }    \r\n    \r\n    // Returns the amount of closed collateral (in ETH)\r\n    function getClosedColl() \r\n        public\r\n        view\r\n        returns (uint)\r\n    {\r\n        return defaultPool.getETH();\r\n    }  \r\n    \r\n    // Returns the lower value from two given integers\r\n    function getMin(uint a, uint b) \r\n        public\r\n        pure\r\n        returns (uint)\r\n    {\r\n        if (a <= b) return a;\r\n        else return b;\r\n    }    \r\n    \r\n    // ***For testing purposes only***: Initializes a CDP with the received ETH and the specified amount of CLV\r\n    // function initializeCDP(address _account, uint _CLV)\r\n    //     public\r\n    //     payable\r\n    //     onlyCDPManager\r\n    //     returns (bool)\r\n    // {\r\n    //     Active.CLV += _CLV;\r\n    //     Active.ETH += msg.value;\r\n    //     CLV.mint(_account, _CLV);\r\n        \r\n    //     return true;\r\n    // }\r\n    \r\n    // ***For testing purposes only***: Transfers the speficied amount of CLV from one account to another\r\n    // function transferCLV(address _from, address _to, uint _amount)\r\n    //     public\r\n    //     onlyCDPManager\r\n    //     returns (bool)\r\n    // {\r\n    //     CLV.burn(_from, _amount);\r\n    //     CLV.mint(_to, _amount);\r\n    // }    \r\n    \r\n    // Adds the received ETH to the total active collateral\r\n    function addColl()\r\n        public\r\n        payable\r\n        onlyCDPManager\r\n        returns (bool)\r\n    {\r\n        // send ETH to Active Pool and increase its recorded ETH balance \r\n        activePool.increaseETH(msg.value);\r\n\r\n       (bool success,) = activePoolAddress.call.value(msg.value)(\"\");\r\n       require (success == true, 'PoolManager: transaction to activePool reverted');\r\n       return success;\r\n    }\r\n    \r\n    // Transfers the specified amount of ETH to _account and updates the total active collateral \r\n    function withdrawColl(uint _ETH, address payable _account)\r\n        public\r\n        onlyCDPManager\r\n        returns (bool)\r\n    {\r\n        activePool.sendETH(_account, _ETH);\r\n        return true;\r\n    }\r\n    \r\n    // Issues the specified amount of CLV to _account and increases the total active debt\r\n    function withdrawCLV(uint _CLV, address _account)\r\n        public\r\n        onlyCDPManager\r\n        returns (bool)\r\n    {\r\n        activePool.increaseCLV(_CLV);\r\n        CLV.mint(_account, _CLV);\r\n                \r\n        return true;\r\n    }\r\n    \r\n    // Burns the specified amount of CLV from _account and decreases the total active debt\r\n    function repayCLV(uint _CLV, address _account)\r\n        public\r\n        onlyCDPManager\r\n        returns (bool)\r\n    {\r\n        activePool.decreaseCLV(_CLV);\r\n        CLV.burn(_account, _CLV);\r\n        \r\n        return true;\r\n    }           \r\n    \r\n    // Updates the Active Pool and the Default Pool when a CDP gets closed\r\n    function close(uint _CLV, uint _ETH)\r\n        public\r\n        onlyCDPManager\r\n        returns (bool)\r\n    {\r\n        // Transfer the debt & coll from the Active Pool to the Default Pool\r\n        \r\n        defaultPool.increaseCLV(_CLV);\r\n        activePool.decreaseCLV(_CLV);\r\n        activePool.sendETH(defaultPoolAddress, _ETH);\r\n        \r\n        return true;\r\n    }    \r\n    \r\n    // Updates the Active Pool and the Default Pool when a CDP obtains a default share\r\n    function obtainDefaultShare(uint _CLV, uint _ETH)\r\n        public\r\n        onlyCDPManager\r\n        returns (bool)\r\n    {    \r\n        // Transfer the debt & coll from the Default Pool to the Active Pool\r\n        defaultPool.decreaseCLV(_CLV);\r\n        activePool.increaseCLV(_CLV);\r\n        defaultPool.sendETH(activePoolAddress, _ETH);\r\n \r\n        return true;\r\n    }\r\n    \r\n    // Burns the received CLV, transfers the redeemed ETH to _account and updates the Active Pool\r\n    function redeemCollateral(uint _CLV, uint _ETH, address payable _account)\r\n        public\r\n        onlyCDPManager\r\n        returns (bool)\r\n    {    \r\n        // Update Active Pool CLV, and send ETH to account\r\n        activePool.decreaseCLV(_CLV);\r\n        activePool.sendETH(_account, _ETH);\r\n        \r\n        CLV.burn(_account, _CLV);\r\n\r\n        return true;\r\n    }    \r\n\r\n    // Deposits the specified amount to the Stability Pool using the algorithm from http://batog.info/papers/scalable-reward-distribution.pdf\r\n    // Can be called directly by anybody, not just by the owner (CDP contract) \r\n    // TODO: Support multiple deposits by the same address\r\n    // TODO: CDP holders which make a deposit should be able to redirect the received ETH to their CDPs\r\n    function depositCLV(uint _amount) \r\n        public\r\n        returns (bool)\r\n    {\r\n        address user = _msgSender();\r\n        require(_amount > 0, \"PoolManager: deposited amount must be larger than 0\");\r\n        require(CLV.balanceOf(user) >= _amount, \"PoolManager: sender has insufficient balance\");\r\n        \r\n        // Transfer the CLV tokens from the caller (_msgSender()) to the pool's address and update the amount of CLV\r\n        // Send to STABILITY Pool\r\n\r\n        CLV.sendToPool(user, stabilityPoolAddress, _amount);\r\n        // Stability.CLV += _amount;\r\n        stabilityPool.increaseCLV(_amount);\r\n        \r\n        // Record the deposit made by the caller in a map\r\n        deposit[_msgSender()].CLV += _amount;\r\n        \r\n        // Record an individual snapshot of the running totals S_CLV and S_ETH for the caller (_msgSender())\r\n        // TODO - check snapshot calcs\r\n        snapshot[_msgSender()].CLV = S_CLV;\r\n        snapshot[_msgSender()].ETH = stabilityPool.getETH();\r\n        \r\n        return true;\r\n    }   \r\n    \r\n    // Cancels out the specified _debt against the CLV contained in the Stability Pool (as far as possible)  \r\n    // and transfers the CDP's ETH collateral from Active Pool to Stability Pool. \r\n    // Returns the amount of debt & coll that could not be cancelled out.\r\n    // Can only be called via the close(...) and closeCDPs(... ) functions in CDP.sol\r\n    function offset(uint _debt, uint _coll)\r\n        public\r\n        payable\r\n        onlyCDPManager\r\n        returns (uint[2] memory) // Note: it would be nicer to return this as a struct, but struct returns are still experimental\r\n    {    \r\n        require(stabilityPool.getCLV() > 0, \"PoolManager: stability pool is empty\");\r\n        \r\n        // If the debt is larger than the deposited CLV, only offset an amount of debt corresponding to the latter\r\n        uint debtToDistribute = getMin(_debt, stabilityPool.getCLV());\r\n        // Determine the amount of collateral to be distributed in proportion to the debt that is distributed\r\n        uint collToDistribute = (((debtToDistribute * DIGITS) / _debt) * _coll) / DIGITS;\r\n        \r\n        // Update the running total S_CLV by adding the ratio between the distributed debt and the CLV in the pool\r\n        S_CLV += (debtToDistribute * DIGITS) / stabilityPool.getCLV();\r\n        // Update the running total S_ETH by adding the ratio between the distributed collateral and the ETH in the pool\r\n        S_ETH += (collToDistribute * DIGITS) / stabilityPool.getCLV();\r\n        \r\n        // Cancel the liquidated CLV debt with the CLV in the stability pool\r\n        activePool.decreaseCLV(debtToDistribute);  \r\n        stabilityPool.decreaseCLV(debtToDistribute); \r\n        // Send ETH from Active Pool to Stability Pool\r\n        stabilityPool.increaseETH(collToDistribute); // update recorded ETH balance in Stability Pool\r\n        activePool.sendETH(stabilityPoolAddress, collToDistribute);   // send ether from Active to Stability Pool\r\n        \r\n        // Burn the debt that was successfully offset\r\n        CLV.burn(stabilityPoolAddress, debtToDistribute);\r\n        \r\n        // Return the amount of debt & coll that could not be offset against the Stability Pool due to insufficiency\r\n        uint[2] memory remainder;\r\n        remainder[0] = _debt - debtToDistribute;\r\n        remainder[1] = _coll - collToDistribute;\r\n        return remainder;\r\n    }\r\n    \r\n    // Retrieves the caller's funds from the Stability Pool\r\n    // TODO: Support partial withdrawals\r\n    function retrieve() \r\n        public\r\n        returns (bool)\r\n    {   \r\n        address payable user = _msgSender();\r\n        require(deposit[user].CLV > 0, \"PoolManager: caller has no deposit\");\r\n        \r\n        // Calculate the CLV and ETH shares to be retrieved according http://batog.info/papers/scalable-reward-distribution.pdf\r\n        // TODO: Check for div/0\r\n        // Problem: Rounding errors lead to results like 666666666666666600 instead of 666666666666666666 \r\n        // TODO: check calculations\r\n        uint CLVShare = deposit[user].CLV - (deposit[user].CLV * (S_CLV - snapshot[user].CLV)) / DIGITS;\r\n        uint ETHShare = (deposit[user].CLV * (S_ETH - snapshot[user].ETH)) / DIGITS;\r\n        \r\n        //update user's deposit record\r\n        deposit[user].CLV = 0;\r\n        /* TODO: Beware of rounding errors that may lead to underflows\r\n\r\n        / TODO: Calcs? Max withdrawal calculation should come earlier, and impact withdrawable CLV and ETH.\r\n        If not enough CLV in pool, withdraw a mixture of CLV and ETH, of equal value to the user's entitlement.\r\n        */\r\n        CLV.returnFromPool(stabilityPoolAddress, user, getMin(CLVShare, stabilityPool.getCLV()));\r\n        stabilityPool.decreaseCLV(CLVShare);\r\n        \r\n        // Return the ether to the caller\r\n         stabilityPool.sendETH(user, ETHShare);\r\n        \r\n        return true;\r\n    }\r\n}    ",
  "sourcePath": "c:\\Users\\Administrator\\Desktop\\Cleverage\\contracts\\PoolManager.sol",
  "compiler": {
    "name": "solc",
    "version": "0.5.12+commit.7709ece9.Emscripten.clang"
  },
  "schemaVersion": "3.0.19",
  "updatedAt": "2019-12-06T14:03:55.432Z",
  "devdoc": {
    "methods": {
      "isOwner()": {
        "details": "Returns true if the caller is the current owner."
      },
      "owner()": {
        "details": "Returns the address of the current owner."
      },
      "renounceOwnership()": {
        "details": "Leaves the contract without owner. It will not be possible to call `onlyOwner` functions anymore. Can only be called by the current owner.     * NOTE: Renouncing ownership will leave the contract without an owner, thereby removing any functionality that is only available to the owner."
      },
      "transferOwnership(address)": {
        "details": "Transfers ownership of the contract to a new account (`newOwner`). Can only be called by the current owner."
      }
    }
  },
  "userdoc": {
    "methods": {}
  }
}