{
  "contractName": "PoolManager",
  "abi": [
    {
      "inputs": [],
      "payable": false,
      "stateMutability": "nonpayable",
      "type": "constructor"
    },
    {
      "anonymous": false,
      "inputs": [
        {
          "indexed": true,
          "internalType": "address",
          "name": "previousOwner",
          "type": "address"
        },
        {
          "indexed": true,
          "internalType": "address",
          "name": "newOwner",
          "type": "address"
        }
      ],
      "name": "OwnershipTransferred",
      "type": "event"
    },
    {
      "constant": true,
      "inputs": [],
      "name": "Active",
      "outputs": [
        {
          "internalType": "uint256",
          "name": "CLV",
          "type": "uint256"
        },
        {
          "internalType": "uint256",
          "name": "ETH",
          "type": "uint256"
        }
      ],
      "payable": false,
      "stateMutability": "view",
      "type": "function"
    },
    {
      "constant": true,
      "inputs": [],
      "name": "Default",
      "outputs": [
        {
          "internalType": "uint256",
          "name": "CLV",
          "type": "uint256"
        },
        {
          "internalType": "uint256",
          "name": "ETH",
          "type": "uint256"
        }
      ],
      "payable": false,
      "stateMutability": "view",
      "type": "function"
    },
    {
      "constant": true,
      "inputs": [],
      "name": "S_CLV",
      "outputs": [
        {
          "internalType": "uint256",
          "name": "",
          "type": "uint256"
        }
      ],
      "payable": false,
      "stateMutability": "view",
      "type": "function"
    },
    {
      "constant": true,
      "inputs": [],
      "name": "S_ETH",
      "outputs": [
        {
          "internalType": "uint256",
          "name": "",
          "type": "uint256"
        }
      ],
      "payable": false,
      "stateMutability": "view",
      "type": "function"
    },
    {
      "constant": true,
      "inputs": [],
      "name": "Stability",
      "outputs": [
        {
          "internalType": "uint256",
          "name": "CLV",
          "type": "uint256"
        },
        {
          "internalType": "uint256",
          "name": "ETH",
          "type": "uint256"
        }
      ],
      "payable": false,
      "stateMutability": "view",
      "type": "function"
    },
    {
      "constant": true,
      "inputs": [],
      "name": "cdpManagerAddress",
      "outputs": [
        {
          "internalType": "address",
          "name": "",
          "type": "address"
        }
      ],
      "payable": false,
      "stateMutability": "view",
      "type": "function"
    },
    {
      "constant": true,
      "inputs": [],
      "name": "clvAddress",
      "outputs": [
        {
          "internalType": "address",
          "name": "",
          "type": "address"
        }
      ],
      "payable": false,
      "stateMutability": "view",
      "type": "function"
    },
    {
      "constant": true,
      "inputs": [
        {
          "internalType": "address",
          "name": "",
          "type": "address"
        }
      ],
      "name": "deposit",
      "outputs": [
        {
          "internalType": "uint256",
          "name": "CLV",
          "type": "uint256"
        },
        {
          "internalType": "uint256",
          "name": "ETH",
          "type": "uint256"
        }
      ],
      "payable": false,
      "stateMutability": "view",
      "type": "function"
    },
    {
      "constant": true,
      "inputs": [],
      "name": "isOwner",
      "outputs": [
        {
          "internalType": "bool",
          "name": "",
          "type": "bool"
        }
      ],
      "payable": false,
      "stateMutability": "view",
      "type": "function"
    },
    {
      "constant": true,
      "inputs": [],
      "name": "owner",
      "outputs": [
        {
          "internalType": "address",
          "name": "",
          "type": "address"
        }
      ],
      "payable": false,
      "stateMutability": "view",
      "type": "function"
    },
    {
      "constant": true,
      "inputs": [],
      "name": "priceFeedAddress",
      "outputs": [
        {
          "internalType": "address",
          "name": "",
          "type": "address"
        }
      ],
      "payable": false,
      "stateMutability": "view",
      "type": "function"
    },
    {
      "constant": false,
      "inputs": [],
      "name": "renounceOwnership",
      "outputs": [],
      "payable": false,
      "stateMutability": "nonpayable",
      "type": "function"
    },
    {
      "constant": true,
      "inputs": [
        {
          "internalType": "address",
          "name": "",
          "type": "address"
        }
      ],
      "name": "snapshot",
      "outputs": [
        {
          "internalType": "uint256",
          "name": "CLV",
          "type": "uint256"
        },
        {
          "internalType": "uint256",
          "name": "ETH",
          "type": "uint256"
        }
      ],
      "payable": false,
      "stateMutability": "view",
      "type": "function"
    },
    {
      "constant": false,
      "inputs": [
        {
          "internalType": "address",
          "name": "newOwner",
          "type": "address"
        }
      ],
      "name": "transferOwnership",
      "outputs": [],
      "payable": false,
      "stateMutability": "nonpayable",
      "type": "function"
    },
    {
      "constant": false,
      "inputs": [
        {
          "internalType": "address",
          "name": "_CLVAddress",
          "type": "address"
        }
      ],
      "name": "setCLVToken",
      "outputs": [],
      "payable": false,
      "stateMutability": "nonpayable",
      "type": "function"
    },
    {
      "constant": false,
      "inputs": [
        {
          "internalType": "address",
          "name": "_priceFeedAddress",
          "type": "address"
        }
      ],
      "name": "setPriceFeed",
      "outputs": [],
      "payable": false,
      "stateMutability": "nonpayable",
      "type": "function"
    },
    {
      "constant": false,
      "inputs": [
        {
          "internalType": "address",
          "name": "_CDPManagerAddress",
          "type": "address"
        }
      ],
      "name": "setCDPManagerAddress",
      "outputs": [],
      "payable": false,
      "stateMutability": "nonpayable",
      "type": "function"
    },
    {
      "constant": true,
      "inputs": [],
      "name": "getTCR",
      "outputs": [
        {
          "internalType": "uint256",
          "name": "",
          "type": "uint256"
        }
      ],
      "payable": false,
      "stateMutability": "view",
      "type": "function"
    },
    {
      "constant": true,
      "inputs": [],
      "name": "getBalance",
      "outputs": [
        {
          "internalType": "uint256",
          "name": "",
          "type": "uint256"
        }
      ],
      "payable": false,
      "stateMutability": "view",
      "type": "function"
    },
    {
      "constant": true,
      "inputs": [],
      "name": "activeDebt",
      "outputs": [
        {
          "internalType": "uint256",
          "name": "",
          "type": "uint256"
        }
      ],
      "payable": false,
      "stateMutability": "view",
      "type": "function"
    },
    {
      "constant": true,
      "inputs": [],
      "name": "activeColl",
      "outputs": [
        {
          "internalType": "uint256",
          "name": "",
          "type": "uint256"
        }
      ],
      "payable": false,
      "stateMutability": "view",
      "type": "function"
    },
    {
      "constant": true,
      "inputs": [],
      "name": "closedDebt",
      "outputs": [
        {
          "internalType": "uint256",
          "name": "",
          "type": "uint256"
        }
      ],
      "payable": false,
      "stateMutability": "view",
      "type": "function"
    },
    {
      "constant": true,
      "inputs": [],
      "name": "closedColl",
      "outputs": [
        {
          "internalType": "uint256",
          "name": "",
          "type": "uint256"
        }
      ],
      "payable": false,
      "stateMutability": "view",
      "type": "function"
    },
    {
      "constant": false,
      "inputs": [
        {
          "internalType": "address",
          "name": "_account",
          "type": "address"
        },
        {
          "internalType": "uint256",
          "name": "_CLV",
          "type": "uint256"
        }
      ],
      "name": "initializeCDP",
      "outputs": [
        {
          "internalType": "bool",
          "name": "",
          "type": "bool"
        }
      ],
      "payable": true,
      "stateMutability": "payable",
      "type": "function"
    },
    {
      "constant": false,
      "inputs": [
        {
          "internalType": "address",
          "name": "_from",
          "type": "address"
        },
        {
          "internalType": "address",
          "name": "_to",
          "type": "address"
        },
        {
          "internalType": "uint256",
          "name": "_amount",
          "type": "uint256"
        }
      ],
      "name": "transferCLV",
      "outputs": [
        {
          "internalType": "bool",
          "name": "",
          "type": "bool"
        }
      ],
      "payable": false,
      "stateMutability": "nonpayable",
      "type": "function"
    },
    {
      "constant": false,
      "inputs": [],
      "name": "addColl",
      "outputs": [
        {
          "internalType": "bool",
          "name": "",
          "type": "bool"
        }
      ],
      "payable": true,
      "stateMutability": "payable",
      "type": "function"
    },
    {
      "constant": false,
      "inputs": [
        {
          "internalType": "uint256",
          "name": "_ETH",
          "type": "uint256"
        },
        {
          "internalType": "address payable",
          "name": "_account",
          "type": "address"
        }
      ],
      "name": "withdrawColl",
      "outputs": [
        {
          "internalType": "bool",
          "name": "",
          "type": "bool"
        }
      ],
      "payable": false,
      "stateMutability": "nonpayable",
      "type": "function"
    },
    {
      "constant": false,
      "inputs": [
        {
          "internalType": "uint256",
          "name": "_CLV",
          "type": "uint256"
        },
        {
          "internalType": "address",
          "name": "_account",
          "type": "address"
        }
      ],
      "name": "withdrawCLV",
      "outputs": [
        {
          "internalType": "bool",
          "name": "",
          "type": "bool"
        }
      ],
      "payable": false,
      "stateMutability": "nonpayable",
      "type": "function"
    },
    {
      "constant": false,
      "inputs": [
        {
          "internalType": "uint256",
          "name": "_CLV",
          "type": "uint256"
        },
        {
          "internalType": "address",
          "name": "_account",
          "type": "address"
        }
      ],
      "name": "repayCLV",
      "outputs": [
        {
          "internalType": "bool",
          "name": "",
          "type": "bool"
        }
      ],
      "payable": false,
      "stateMutability": "nonpayable",
      "type": "function"
    },
    {
      "constant": false,
      "inputs": [
        {
          "internalType": "uint256",
          "name": "_CLV",
          "type": "uint256"
        },
        {
          "internalType": "uint256",
          "name": "_ETH",
          "type": "uint256"
        }
      ],
      "name": "close",
      "outputs": [
        {
          "internalType": "bool",
          "name": "",
          "type": "bool"
        }
      ],
      "payable": false,
      "stateMutability": "nonpayable",
      "type": "function"
    },
    {
      "constant": false,
      "inputs": [
        {
          "internalType": "uint256",
          "name": "_CLV",
          "type": "uint256"
        },
        {
          "internalType": "uint256",
          "name": "_ETH",
          "type": "uint256"
        }
      ],
      "name": "obtainDefaultShare",
      "outputs": [
        {
          "internalType": "bool",
          "name": "",
          "type": "bool"
        }
      ],
      "payable": false,
      "stateMutability": "nonpayable",
      "type": "function"
    },
    {
      "constant": false,
      "inputs": [
        {
          "internalType": "uint256",
          "name": "_CLV",
          "type": "uint256"
        },
        {
          "internalType": "uint256",
          "name": "_ETH",
          "type": "uint256"
        },
        {
          "internalType": "address payable",
          "name": "_account",
          "type": "address"
        }
      ],
      "name": "redeemCollateral",
      "outputs": [
        {
          "internalType": "bool",
          "name": "",
          "type": "bool"
        }
      ],
      "payable": false,
      "stateMutability": "nonpayable",
      "type": "function"
    },
    {
      "constant": false,
      "inputs": [
        {
          "internalType": "uint256",
          "name": "_amount",
          "type": "uint256"
        }
      ],
      "name": "depositCLV",
      "outputs": [
        {
          "internalType": "bool",
          "name": "",
          "type": "bool"
        }
      ],
      "payable": false,
      "stateMutability": "nonpayable",
      "type": "function"
    },
    {
      "constant": false,
      "inputs": [
        {
          "internalType": "uint256",
          "name": "_debt",
          "type": "uint256"
        },
        {
          "internalType": "uint256",
          "name": "_coll",
          "type": "uint256"
        }
      ],
      "name": "offset",
      "outputs": [
        {
          "internalType": "uint256[2]",
          "name": "",
          "type": "uint256[2]"
        }
      ],
      "payable": true,
      "stateMutability": "payable",
      "type": "function"
    },
    {
      "constant": false,
      "inputs": [],
      "name": "retrieve",
      "outputs": [
        {
          "internalType": "bool",
          "name": "",
          "type": "bool"
        }
      ],
      "payable": false,
      "stateMutability": "nonpayable",
      "type": "function"
    }
  ],
  "bytecode": "0x608060405234801561001057600080fd5b5061001f6100df60201b60201c565b6000806101000a81548173ffffffffffffffffffffffffffffffffffffffff021916908373ffffffffffffffffffffffffffffffffffffffff1602179055506000809054906101000a900473ffffffffffffffffffffffffffffffffffffffff1673ffffffffffffffffffffffffffffffffffffffff16600073ffffffffffffffffffffffffffffffffffffffff167f8be0079c531659141344cd1fd0a4f28419497f9722a3daafe3b4186f6b6457e060405160405180910390a36100e7565b600033905090565b612e9680620000f76000396000f3fe6080604052600436106102045760003560e01c80638f32d59b11610118578063c9c61e20116100a0578063ef6151a61161006f578063ef6151a614610a84578063f2fde38b14610ad5578063f340fa0114610b26578063f78b338814610b92578063fefb4c5814610c0557610204565b8063c9c61e2014610927578063d0c49f5514610959578063d31cadf6146109d6578063e0abca0b14610a2d57610204565b8063b4f8adc5116100e7578063b4f8adc5146107d9578063b5ca20221461082c578063b620115d14610857578063c504047414610882578063c9b0a2a7146108f557610204565b80638f32d59b146106da578063a532483e14610709578063a82555461461077c578063b36f4504146107a757610204565b80634d5bc1111161019b578063715018a61161016a578063715018a61461058a578063724e78da146105a1578063740b0029146105f257806385c92fea1461061d5780638da5cb5b1461068357610204565b80634d5bc1111461047a578063596c8976146104d75780636bad519814610534578063708249b31461055f57610204565b806326512160116101d757806326512160146102d85780632e64cec1146103445780632fde183c14610373578063335525ad1461040657610204565b806302f6567f1461020957806312065fe01461026057806322e32e6d1461028b57806325a2e6e7146102b6575b600080fd5b34801561021557600080fd5b5061021e610c56565b604051808273ffffffffffffffffffffffffffffffffffffffff1673ffffffffffffffffffffffffffffffffffffffff16815260200191505060405180910390f35b34801561026c57600080fd5b50610275610c7c565b6040518082815260200191505060405180910390f35b34801561029757600080fd5b506102a0610c9b565b6040518082815260200191505060405180910390f35b6102be610ca8565b604051808215151515815260200191505060405180910390f35b3480156102e457600080fd5b50610327600480360360208110156102fb57600080fd5b81019080803573ffffffffffffffffffffffffffffffffffffffff169060200190929190505050610d87565b604051808381526020018281526020019250505060405180910390f35b34801561035057600080fd5b50610359610dab565b604051808215151515815260200191505060405180910390f35b34801561037f57600080fd5b506103ec6004803603606081101561039657600080fd5b81019080803573ffffffffffffffffffffffffffffffffffffffff169060200190929190803573ffffffffffffffffffffffffffffffffffffffff16906020019092919080359060200190929190505050611199565b604051808215151515815260200191505060405180910390f35b61043c6004803603604081101561041c57600080fd5b81019080803590602001909291908035906020019092919050505061142f565b6040518082600260200280838360005b8381101561046757808201518184015260208101905061044c565b5050505090500191505060405180910390f35b34801561048657600080fd5b506104bd6004803603604081101561049d57600080fd5b81019080803590602001909291908035906020019092919050505061177a565b604051808215151515815260200191505060405180910390f35b3480156104e357600080fd5b5061051a600480360360408110156104fa57600080fd5b810190808035906020019092919080359060200190929190505050611895565b604051808215151515815260200191505060405180910390f35b34801561054057600080fd5b506105496119b0565b6040518082815260200191505060405180910390f35b34801561056b57600080fd5b506105746119b6565b6040518082815260200191505060405180910390f35b34801561059657600080fd5b5061059f6119bc565b005b3480156105ad57600080fd5b506105f0600480360360208110156105c457600080fd5b81019080803573ffffffffffffffffffffffffffffffffffffffff169060200190929190505050611af5565b005b3480156105fe57600080fd5b50610607611bf4565b6040518082815260200191505060405180910390f35b6106696004803603604081101561063357600080fd5b81019080803573ffffffffffffffffffffffffffffffffffffffff16906020019092919080359060200190929190505050611c01565b604051808215151515815260200191505060405180910390f35b34801561068f57600080fd5b50610698611ddb565b604051808273ffffffffffffffffffffffffffffffffffffffff1673ffffffffffffffffffffffffffffffffffffffff16815260200191505060405180910390f35b3480156106e657600080fd5b506106ef611e04565b604051808215151515815260200191505060405180910390f35b34801561071557600080fd5b506107626004803603604081101561072c57600080fd5b8101908080359060200190929190803573ffffffffffffffffffffffffffffffffffffffff169060200190929190505050611e62565b604051808215151515815260200191505060405180910390f35b34801561078857600080fd5b50610791612029565b6040518082815260200191505060405180910390f35b3480156107b357600080fd5b506107bc612036565b604051808381526020018281526020019250505060405180910390f35b3480156107e557600080fd5b50610812600480360360208110156107fc57600080fd5b8101908080359060200190929190505050612048565b604051808215151515815260200191505060405180910390f35b34801561083857600080fd5b506108416123d7565b6040518082815260200191505060405180910390f35b34801561086357600080fd5b5061086c6123e4565b6040518082815260200191505060405180910390f35b34801561088e57600080fd5b506108db600480360360408110156108a557600080fd5b8101908080359060200190929190803573ffffffffffffffffffffffffffffffffffffffff1690602001909291905050506124a3565b604051808215151515815260200191505060405180910390f35b34801561090157600080fd5b5061090a6125cc565b604051808381526020018281526020019250505060405180910390f35b34801561093357600080fd5b5061093c6125de565b604051808381526020018281526020019250505060405180910390f35b34801561096557600080fd5b506109bc6004803603606081101561097c57600080fd5b810190808035906020019092919080359060200190929190803573ffffffffffffffffffffffffffffffffffffffff1690602001909291905050506125f0565b604051808215151515815260200191505060405180910390f35b3480156109e257600080fd5b506109eb612812565b604051808273ffffffffffffffffffffffffffffffffffffffff1673ffffffffffffffffffffffffffffffffffffffff16815260200191505060405180910390f35b348015610a3957600080fd5b50610a42612838565b604051808273ffffffffffffffffffffffffffffffffffffffff1673ffffffffffffffffffffffffffffffffffffffff16815260200191505060405180910390f35b348015610a9057600080fd5b50610ad360048036036020811015610aa757600080fd5b81019080803573ffffffffffffffffffffffffffffffffffffffff16906020019092919050505061285e565b005b348015610ae157600080fd5b50610b2460048036036020811015610af857600080fd5b81019080803573ffffffffffffffffffffffffffffffffffffffff16906020019092919050505061291c565b005b348015610b3257600080fd5b50610b7560048036036020811015610b4957600080fd5b81019080803573ffffffffffffffffffffffffffffffffffffffff1690602001909291905050506129a2565b604051808381526020018281526020019250505060405180910390f35b348015610b9e57600080fd5b50610beb60048036036040811015610bb557600080fd5b8101908080359060200190929190803573ffffffffffffffffffffffffffffffffffffffff1690602001909291905050506129c6565b604051808215151515815260200191505060405180910390f35b348015610c1157600080fd5b50610c5460048036036020811015610c2857600080fd5b81019080803573ffffffffffffffffffffffffffffffffffffffff169060200190929190505050612b8d565b005b600160009054906101000a900473ffffffffffffffffffffffffffffffffffffffff1681565b60003073ffffffffffffffffffffffffffffffffffffffff1631905090565b6000600a60010154905090565b6000600160009054906101000a900473ffffffffffffffffffffffffffffffffffffffff1673ffffffffffffffffffffffffffffffffffffffff163373ffffffffffffffffffffffffffffffffffffffff1614610d6d576040517f08c379a000000000000000000000000000000000000000000000000000000000815260040180806020018281038252601c8152602001807f43616c6c6572206973206e6f7420746865204344504d616e616765720000000081525060200191505060405180910390fd5b346008600101600082825401925050819055506001905090565b600f6020528060005260406000206000915090508060000154908060010154905082565b600080600c60003373ffffffffffffffffffffffffffffffffffffffff1673ffffffffffffffffffffffffffffffffffffffff1681526020019081526020016000206000015411610e64576040517f08c379a00000000000000000000000000000000000000000000000000000000081526004018080602001828103825260158152602001807f43616c6c657220686173206e6f206465706f736974000000000000000000000081525060200191505060405180910390fd5b6000670de0b6b3a7640000600f60003373ffffffffffffffffffffffffffffffffffffffff1673ffffffffffffffffffffffffffffffffffffffff16815260200190815260200160002060000154600d5403600c60003373ffffffffffffffffffffffffffffffffffffffff1673ffffffffffffffffffffffffffffffffffffffff168152602001908152602001600020600001540281610f0157fe5b04600c60003373ffffffffffffffffffffffffffffffffffffffff1673ffffffffffffffffffffffffffffffffffffffff168152602001908152602001600020600001540390506000670de0b6b3a7640000600f60003373ffffffffffffffffffffffffffffffffffffffff1673ffffffffffffffffffffffffffffffffffffffff16815260200190815260200160002060010154600e5403600c60003373ffffffffffffffffffffffffffffffffffffffff1673ffffffffffffffffffffffffffffffffffffffff168152602001908152602001600020600001540281610fe557fe5b04905080600660010160008282540392505081905550816006600001600082825403925050819055506000600c60003373ffffffffffffffffffffffffffffffffffffffff1673ffffffffffffffffffffffffffffffffffffffff16815260200190815260200160002060000181905550600460009054906101000a900473ffffffffffffffffffffffffffffffffffffffff1673ffffffffffffffffffffffffffffffffffffffff16631c91a4d6336110a485600660000154612c8c565b6040518363ffffffff1660e01b8152600401808373ffffffffffffffffffffffffffffffffffffffff1673ffffffffffffffffffffffffffffffffffffffff16815260200182815260200192505050602060405180830381600087803b15801561110d57600080fd5b505af1158015611121573d6000803e3d6000fd5b505050506040513d602081101561113757600080fd5b8101908080519060200190929190505050503373ffffffffffffffffffffffffffffffffffffffff166108fc829081150290604051600060405180830381858888f1935050505015801561118f573d6000803e3d6000fd5b5060019250505090565b6000600160009054906101000a900473ffffffffffffffffffffffffffffffffffffffff1673ffffffffffffffffffffffffffffffffffffffff163373ffffffffffffffffffffffffffffffffffffffff161461125e576040517f08c379a000000000000000000000000000000000000000000000000000000000815260040180806020018281038252601c8152602001807f43616c6c6572206973206e6f7420746865204344504d616e616765720000000081525060200191505060405180910390fd5b600460009054906101000a900473ffffffffffffffffffffffffffffffffffffffff1673ffffffffffffffffffffffffffffffffffffffff16639dc29fac85846040518363ffffffff1660e01b8152600401808373ffffffffffffffffffffffffffffffffffffffff1673ffffffffffffffffffffffffffffffffffffffff16815260200182815260200192505050602060405180830381600087803b15801561130757600080fd5b505af115801561131b573d6000803e3d6000fd5b505050506040513d602081101561133157600080fd5b810190808051906020019092919050505050600460009054906101000a900473ffffffffffffffffffffffffffffffffffffffff1673ffffffffffffffffffffffffffffffffffffffff166340c10f1984846040518363ffffffff1660e01b8152600401808373ffffffffffffffffffffffffffffffffffffffff1673ffffffffffffffffffffffffffffffffffffffff16815260200182815260200192505050602060405180830381600087803b1580156113ec57600080fd5b505af1158015611400573d6000803e3d6000fd5b505050506040513d602081101561141657600080fd5b8101908080519060200190929190505050509392505050565b611437612df3565b600160009054906101000a900473ffffffffffffffffffffffffffffffffffffffff1673ffffffffffffffffffffffffffffffffffffffff163373ffffffffffffffffffffffffffffffffffffffff16146114fa576040517f08c379a000000000000000000000000000000000000000000000000000000000815260040180806020018281038252601c8152602001807f43616c6c6572206973206e6f7420746865204344504d616e616765720000000081525060200191505060405180910390fd5b600060066000015411611575576040517f08c379a00000000000000000000000000000000000000000000000000000000081526004018080602001828103825260178152602001807f53746162696c69747920706f6f6c20697320656d70747900000000000000000081525060200191505060405180910390fd5b600061158684600660000154612c8c565b90506000670de0b6b3a76400008486670de0b6b3a76400008502816115a757fe5b0402816115b057fe5b049050600660000154670de0b6b3a76400008302816115cb57fe5b04600d60008282540192505081905550600660000154670de0b6b3a76400008202816115f357fe5b04600e6000828254019250508190555080600660010160008282540192505081905550816006600001600082825403925050819055508060086001016000828254039250508190555081600860000160008282540392505081905550600460009054906101000a900473ffffffffffffffffffffffffffffffffffffffff1673ffffffffffffffffffffffffffffffffffffffff16639dc29fac30846040518363ffffffff1660e01b8152600401808373ffffffffffffffffffffffffffffffffffffffff1673ffffffffffffffffffffffffffffffffffffffff16815260200182815260200192505050602060405180830381600087803b1580156116f857600080fd5b505af115801561170c573d6000803e3d6000fd5b505050506040513d602081101561172257600080fd5b81019080805190602001909291905050505061173c612df3565b8286038160006002811061174c57fe5b6020020181815250508185038160016002811061176557fe5b60200201818152505080935050505092915050565b6000600160009054906101000a900473ffffffffffffffffffffffffffffffffffffffff1673ffffffffffffffffffffffffffffffffffffffff163373ffffffffffffffffffffffffffffffffffffffff161461183f576040517f08c379a000000000000000000000000000000000000000000000000000000000815260040180806020018281038252601c8152602001807f43616c6c6572206973206e6f7420746865204344504d616e616765720000000081525060200191505060405180910390fd5b82600a6000016000828254039250508190555081600a6001016000828254039250508190555082600860000160008282540192505081905550816008600101600082825401925050819055506001905092915050565b6000600160009054906101000a900473ffffffffffffffffffffffffffffffffffffffff1673ffffffffffffffffffffffffffffffffffffffff163373ffffffffffffffffffffffffffffffffffffffff161461195a576040517f08c379a000000000000000000000000000000000000000000000000000000000815260040180806020018281038252601c8152602001807f43616c6c6572206973206e6f7420746865204344504d616e616765720000000081525060200191505060405180910390fd5b82600a6000016000828254019250508190555081600a6001016000828254019250508190555082600860000160008282540392505081905550816008600101600082825403925050819055506001905092915050565b600e5481565b600d5481565b6119c4611e04565b611a36576040517f08c379a00000000000000000000000000000000000000000000000000000000081526004018080602001828103825260208152602001807f4f776e61626c653a2063616c6c6572206973206e6f7420746865206f776e657281525060200191505060405180910390fd5b600073ffffffffffffffffffffffffffffffffffffffff166000809054906101000a900473ffffffffffffffffffffffffffffffffffffffff1673ffffffffffffffffffffffffffffffffffffffff167f8be0079c531659141344cd1fd0a4f28419497f9722a3daafe3b4186f6b6457e060405160405180910390a360008060006101000a81548173ffffffffffffffffffffffffffffffffffffffff021916908373ffffffffffffffffffffffffffffffffffffffff160217905550565b611afd611e04565b611b6f576040517f08c379a00000000000000000000000000000000000000000000000000000000081526004018080602001828103825260208152602001807f4f776e61626c653a2063616c6c6572206973206e6f7420746865206f776e657281525060200191505060405180910390fd5b80600360006101000a81548173ffffffffffffffffffffffffffffffffffffffff021916908373ffffffffffffffffffffffffffffffffffffffff16021790555080600260006101000a81548173ffffffffffffffffffffffffffffffffffffffff021916908373ffffffffffffffffffffffffffffffffffffffff16021790555050565b6000600860010154905090565b6000600160009054906101000a900473ffffffffffffffffffffffffffffffffffffffff1673ffffffffffffffffffffffffffffffffffffffff163373ffffffffffffffffffffffffffffffffffffffff1614611cc6576040517f08c379a000000000000000000000000000000000000000000000000000000000815260040180806020018281038252601c8152602001807f43616c6c6572206973206e6f7420746865204344504d616e616765720000000081525060200191505060405180910390fd5b8160086000016000828254019250508190555034600860010160008282540192505081905550600460009054906101000a900473ffffffffffffffffffffffffffffffffffffffff1673ffffffffffffffffffffffffffffffffffffffff166340c10f1984846040518363ffffffff1660e01b8152600401808373ffffffffffffffffffffffffffffffffffffffff1673ffffffffffffffffffffffffffffffffffffffff16815260200182815260200192505050602060405180830381600087803b158015611d9557600080fd5b505af1158015611da9573d6000803e3d6000fd5b505050506040513d6020811015611dbf57600080fd5b8101908080519060200190929190505050506001905092915050565b60008060009054906101000a900473ffffffffffffffffffffffffffffffffffffffff16905090565b60008060009054906101000a900473ffffffffffffffffffffffffffffffffffffffff1673ffffffffffffffffffffffffffffffffffffffff16611e46612ca7565b73ffffffffffffffffffffffffffffffffffffffff1614905090565b6000600160009054906101000a900473ffffffffffffffffffffffffffffffffffffffff1673ffffffffffffffffffffffffffffffffffffffff163373ffffffffffffffffffffffffffffffffffffffff1614611f27576040517f08c379a000000000000000000000000000000000000000000000000000000000815260040180806020018281038252601c8152602001807f43616c6c6572206973206e6f7420746865204344504d616e616765720000000081525060200191505060405180910390fd5b82600860000160008282540192505081905550600460009054906101000a900473ffffffffffffffffffffffffffffffffffffffff1673ffffffffffffffffffffffffffffffffffffffff166340c10f1983856040518363ffffffff1660e01b8152600401808373ffffffffffffffffffffffffffffffffffffffff1673ffffffffffffffffffffffffffffffffffffffff16815260200182815260200192505050602060405180830381600087803b158015611fe357600080fd5b505af1158015611ff7573d6000803e3d6000fd5b505050506040513d602081101561200d57600080fd5b8101908080519060200190929190505050506001905092915050565b6000600860000154905090565b60068060000154908060010154905082565b60008082116120a2576040517f08c379a0000000000000000000000000000000000000000000000000000000008152600401808060200182810382526026815260200180612e3c6026913960400191505060405180910390fd5b81600460009054906101000a900473ffffffffffffffffffffffffffffffffffffffff1673ffffffffffffffffffffffffffffffffffffffff166370a08231336040518263ffffffff1660e01b8152600401808273ffffffffffffffffffffffffffffffffffffffff1673ffffffffffffffffffffffffffffffffffffffff16815260200191505060206040518083038186803b15801561214257600080fd5b505afa158015612156573d6000803e3d6000fd5b505050506040513d602081101561216c57600080fd5b810190808051906020019092919050505010156121f1576040517f08c379a000000000000000000000000000000000000000000000000000000000815260040180806020018281038252601f8152602001807f53656e6465722068617320696e73756666696369656e742062616c616e63650081525060200191505060405180910390fd5b600460009054906101000a900473ffffffffffffffffffffffffffffffffffffffff1673ffffffffffffffffffffffffffffffffffffffff1663f03a95b433846040518363ffffffff1660e01b8152600401808373ffffffffffffffffffffffffffffffffffffffff1673ffffffffffffffffffffffffffffffffffffffff16815260200182815260200192505050602060405180830381600087803b15801561229a57600080fd5b505af11580156122ae573d6000803e3d6000fd5b505050506040513d60208110156122c457600080fd5b8101908080519060200190929190505050508160066000016000828254019250508190555081600c60003373ffffffffffffffffffffffffffffffffffffffff1673ffffffffffffffffffffffffffffffffffffffff16815260200190815260200160002060000160008282540192505081905550600d54600f60003373ffffffffffffffffffffffffffffffffffffffff1673ffffffffffffffffffffffffffffffffffffffff16815260200190815260200160002060000181905550600660010154600f60003373ffffffffffffffffffffffffffffffffffffffff1673ffffffffffffffffffffffffffffffffffffffff1681526020019081526020016000206001018190555060019050919050565b6000600a60000154905090565b6000600860000154600260009054906101000a900473ffffffffffffffffffffffffffffffffffffffff1673ffffffffffffffffffffffffffffffffffffffff166398d5fdca6040518163ffffffff1660e01b815260040160206040518083038186803b15801561245457600080fd5b505afa158015612468573d6000803e3d6000fd5b505050506040513d602081101561247e57600080fd5b8101908080519060200190929190505050600860010154028161249d57fe5b04905090565b6000600160009054906101000a900473ffffffffffffffffffffffffffffffffffffffff1673ffffffffffffffffffffffffffffffffffffffff163373ffffffffffffffffffffffffffffffffffffffff1614612568576040517f08c379a000000000000000000000000000000000000000000000000000000000815260040180806020018281038252601c8152602001807f43616c6c6572206973206e6f7420746865204344504d616e616765720000000081525060200191505060405180910390fd5b826008600101600082825403925050819055508173ffffffffffffffffffffffffffffffffffffffff166108fc849081150290604051600060405180830381858888f193505050501580156125c1573d6000803e3d6000fd5b506001905092915050565b60088060000154908060010154905082565b600a8060000154908060010154905082565b6000600160009054906101000a900473ffffffffffffffffffffffffffffffffffffffff1673ffffffffffffffffffffffffffffffffffffffff163373ffffffffffffffffffffffffffffffffffffffff16146126b5576040517f08c379a000000000000000000000000000000000000000000000000000000000815260040180806020018281038252601c8152602001807f43616c6c6572206973206e6f7420746865204344504d616e616765720000000081525060200191505060405180910390fd5b8360086000016000828254039250508190555082600860010160008282540392505081905550600460009054906101000a900473ffffffffffffffffffffffffffffffffffffffff1673ffffffffffffffffffffffffffffffffffffffff16639dc29fac83866040518363ffffffff1660e01b8152600401808373ffffffffffffffffffffffffffffffffffffffff1673ffffffffffffffffffffffffffffffffffffffff16815260200182815260200192505050602060405180830381600087803b15801561278457600080fd5b505af1158015612798573d6000803e3d6000fd5b505050506040513d60208110156127ae57600080fd5b8101908080519060200190929190505050508173ffffffffffffffffffffffffffffffffffffffff166108fc849081150290604051600060405180830381858888f19350505050158015612806573d6000803e3d6000fd5b50600190509392505050565b600560009054906101000a900473ffffffffffffffffffffffffffffffffffffffff1681565b600360009054906101000a900473ffffffffffffffffffffffffffffffffffffffff1681565b612866611e04565b6128d8576040517f08c379a00000000000000000000000000000000000000000000000000000000081526004018080602001828103825260208152602001807f4f776e61626c653a2063616c6c6572206973206e6f7420746865206f776e657281525060200191505060405180910390fd5b80600160006101000a81548173ffffffffffffffffffffffffffffffffffffffff021916908373ffffffffffffffffffffffffffffffffffffffff16021790555050565b612924611e04565b612996576040517f08c379a00000000000000000000000000000000000000000000000000000000081526004018080602001828103825260208152602001807f4f776e61626c653a2063616c6c6572206973206e6f7420746865206f776e657281525060200191505060405180910390fd5b61299f81612caf565b50565b600c6020528060005260406000206000915090508060000154908060010154905082565b6000600160009054906101000a900473ffffffffffffffffffffffffffffffffffffffff1673ffffffffffffffffffffffffffffffffffffffff163373ffffffffffffffffffffffffffffffffffffffff1614612a8b576040517f08c379a000000000000000000000000000000000000000000000000000000000815260040180806020018281038252601c8152602001807f43616c6c6572206973206e6f7420746865204344504d616e616765720000000081525060200191505060405180910390fd5b82600860000160008282540392505081905550600460009054906101000a900473ffffffffffffffffffffffffffffffffffffffff1673ffffffffffffffffffffffffffffffffffffffff16639dc29fac83856040518363ffffffff1660e01b8152600401808373ffffffffffffffffffffffffffffffffffffffff1673ffffffffffffffffffffffffffffffffffffffff16815260200182815260200192505050602060405180830381600087803b158015612b4757600080fd5b505af1158015612b5b573d6000803e3d6000fd5b505050506040513d6020811015612b7157600080fd5b8101908080519060200190929190505050506001905092915050565b612b95611e04565b612c07576040517f08c379a00000000000000000000000000000000000000000000000000000000081526004018080602001828103825260208152602001807f4f776e61626c653a2063616c6c6572206973206e6f7420746865206f776e657281525060200191505060405180910390fd5b80600560006101000a81548173ffffffffffffffffffffffffffffffffffffffff021916908373ffffffffffffffffffffffffffffffffffffffff16021790555080600460006101000a81548173ffffffffffffffffffffffffffffffffffffffff021916908373ffffffffffffffffffffffffffffffffffffffff16021790555050565b6000818311612c9d57829050612ca1565b8190505b92915050565b600033905090565b600073ffffffffffffffffffffffffffffffffffffffff168173ffffffffffffffffffffffffffffffffffffffff161415612d35576040517f08c379a0000000000000000000000000000000000000000000000000000000008152600401808060200182810382526026815260200180612e166026913960400191505060405180910390fd5b8073ffffffffffffffffffffffffffffffffffffffff166000809054906101000a900473ffffffffffffffffffffffffffffffffffffffff1673ffffffffffffffffffffffffffffffffffffffff167f8be0079c531659141344cd1fd0a4f28419497f9722a3daafe3b4186f6b6457e060405160405180910390a3806000806101000a81548173ffffffffffffffffffffffffffffffffffffffff021916908373ffffffffffffffffffffffffffffffffffffffff16021790555050565b604051806040016040528060029060208202803883398082019150509050509056fe4f776e61626c653a206e6577206f776e657220697320746865207a65726f20616464726573734465706f736974656420616d6f756e74206d757374206265206c6172676572207468616e2030a265627a7a72315820dd437cdc33d5c71a3473de8460221dcf50149fc9ea77dd8e399f5d03954efec564736f6c634300050c0032",
  "source": "pragma solidity ^0.5.11;\r\n\r\nimport \"./PriceFeed.sol\";\r\nimport \"./CLVToken.sol\";\r\n\r\nimport '../node_modules/@openzeppelin/contracts/ownership/Ownable.sol';\r\n\r\n// Maintains all pools and holds the ETH and CLV balances\r\ncontract PoolManager is Ownable {\r\n    struct Pool {\r\n        uint CLV;\r\n        uint ETH;   \r\n    }\r\n    \r\n    uint constant DIGITS = 1e18;\r\n\r\n    address public cdpManagerAddress;\r\n\r\n    PriceFeed priceFeed;\r\n    address public priceFeedAddress;\r\n\r\n    CLVToken CLV; \r\n    address public clvAddress;\r\n\r\n    Pool public Stability; // Stability Pool: Contains the deposited CLV and the collateral of closed CDPs\r\n    Pool public Active; // Active Pool: Contains the total amount of active collateral and debt in the system\r\n    Pool public Default; // Default Pool: Contains the the debt and collateral of closed CPDs that could not be absorbed by the Stability Pool\r\n    \r\n    mapping (address => Pool) public deposit; // A map of all deposits\r\n    uint public S_CLV; // A running total of the CLV fractions for gas-efficient share calculation\r\n    uint public S_ETH; // A running total of the ETH fractions for gas-efficient share calculation\r\n    mapping (address => Pool) public snapshot; // A map of individual snapshots of the S_CLV and the current Stability.ETH values\r\n    \r\n    // Declare these public variables for debugging in Remix\r\n    //uint256 public ETHShare;\r\n    //uint256 public CLVShare; \r\n    \r\n    \r\n    modifier onlyCDPManager() {\r\n        require(msg.sender == cdpManagerAddress, \"Caller is not the CDPManager\");\r\n        _;\r\n    }\r\n    \r\n    constructor() public {}\r\n\r\n    // Contract setters\r\n    function setCLVToken(address _CLVAddress) public onlyOwner {\r\n        clvAddress = _CLVAddress;\r\n        CLV = CLVToken(_CLVAddress); \r\n    }\r\n     function setPriceFeed(address _priceFeedAddress) public onlyOwner {\r\n        priceFeedAddress = _priceFeedAddress;\r\n        priceFeed = PriceFeed(_priceFeedAddress);\r\n    }\r\n\r\n    function setCDPManagerAddress(address _CDPManagerAddress) public onlyOwner {\r\n        cdpManagerAddress = _CDPManagerAddress;\r\n    }\r\n\r\n    // Returns the total collateral ratio of the system\r\n    function getTCR() \r\n        view \r\n        public \r\n        returns (uint) \r\n    {\r\n        return Active.ETH * priceFeed.getPrice() / Active.CLV;\r\n    }\r\n    \r\n    // Returns the current ETH balance of the TokenPools contract\r\n    function getBalance() \r\n        public\r\n        view\r\n        returns (uint)\r\n    {\r\n        return address(this).balance;\r\n    } \r\n    \r\n    // Returns the total active debt (in CLV) in the system\r\n    function activeDebt() \r\n        public\r\n        view\r\n        returns (uint)\r\n    {\r\n        return Active.CLV;\r\n    }    \r\n    \r\n    // Returns the total active collateral (in ETH) in the system\r\n    function activeColl() \r\n        public\r\n        view\r\n        returns (uint)\r\n    {\r\n        return Active.ETH;\r\n    } \r\n    \r\n    // Returns the amount of closed debt (in CLV)\r\n    function closedDebt() \r\n        public\r\n        view\r\n        returns (uint)\r\n    {\r\n        return Default.CLV;\r\n    }    \r\n    \r\n    // Returns the amount of closed collateral (in ETH)\r\n    function closedColl() \r\n        public\r\n        view\r\n        returns (uint)\r\n    {\r\n        return Default.ETH;\r\n    }  \r\n    \r\n    // Returns the lower value from two given integers\r\n    function getMin(uint a, uint b) \r\n        internal\r\n        pure\r\n        returns (uint)\r\n    {\r\n        if (a <= b) return a;\r\n        else return b;\r\n    }    \r\n    \r\n    // ***For testing purposes only***: Initializes a CDP with the received ETH and the specified amount of CLV\r\n    function initializeCDP(address _account, uint _CLV)\r\n        public\r\n        payable\r\n        onlyCDPManager\r\n        returns (bool)\r\n    {\r\n        Active.CLV += _CLV;\r\n        Active.ETH += msg.value;\r\n        CLV.mint(_account, _CLV);\r\n        \r\n        return true;\r\n    }\r\n    \r\n    // ***For testing purposes only***: Transfers the speficied amount of CLV from one account to another\r\n    function transferCLV(address _from, address _to, uint _amount)\r\n        public\r\n        onlyCDPManager\r\n        returns (bool)\r\n    {\r\n        CLV.burn(_from, _amount);\r\n        CLV.mint(_to, _amount);\r\n    }    \r\n    \r\n    // Adds the received ETH to the total active collateral\r\n    function addColl()\r\n        public\r\n        payable\r\n        onlyCDPManager\r\n        returns (bool)\r\n    {\r\n        Active.ETH += msg.value;\r\n        return true;\r\n    }\r\n    \r\n    // Transfers the specified amount of ETH to _account and updates the total active collateral \r\n    function withdrawColl(uint _ETH, address payable _account)\r\n        public\r\n        onlyCDPManager\r\n        returns (bool)\r\n    {\r\n        Active.ETH -= _ETH;\r\n        _account.transfer(_ETH);\r\n        \r\n        return true;\r\n    }\r\n    \r\n    // Issues the specified amount of CLV to _account and updates the total active debt\r\n    function withdrawCLV(uint _CLV, address _account)\r\n        public\r\n        onlyCDPManager\r\n        returns (bool)\r\n    {\r\n        Active.CLV += _CLV;\r\n        CLV.mint(_account, _CLV);\r\n                \r\n        return true;\r\n    }\r\n    \r\n    // Burns the specified amount of CLV from _account and updates the total active debt\r\n    function repayCLV(uint _CLV, address _account)\r\n        public\r\n        onlyCDPManager\r\n        returns (bool)\r\n    {\r\n        Active.CLV -= _CLV;\r\n        CLV.burn(_account, _CLV);\r\n        \r\n        return true;\r\n    }           \r\n    \r\n    // Updates the Active Pool and the Default Pool when a CDP gets closed\r\n    function close(uint _CLV, uint _ETH)\r\n        public\r\n        onlyCDPManager\r\n        returns (bool)\r\n    {\r\n        // Transfer the debt & coll from the Stability Pool to the Default Pool\r\n        Default.CLV += _CLV;\r\n        Default.ETH += _ETH;\r\n        Active.CLV -= _CLV;\r\n        Active.ETH -= _ETH;\r\n        \r\n        return true;\r\n    }    \r\n    \r\n    // Updates the Active Pool and the Default Pool when a CDP obtains a default share\r\n    function obtainDefaultShare(uint _CLV, uint _ETH)\r\n        public\r\n        onlyCDPManager\r\n        returns (bool)\r\n    {    \r\n        // Transfer the debt & coll from the Default Pool to the Stability Pool\r\n        Default.CLV -= _CLV;\r\n        Default.ETH -= _ETH;\r\n        Active.CLV += _CLV;\r\n        Active.ETH += _ETH;\r\n        \r\n        return true;\r\n    }\r\n    \r\n    // Burns the received CLV, transfers the redeemed ETH to _account and updates the Active Pool\r\n    function redeemCollateral(uint _CLV, uint _ETH, address payable _account)\r\n        public\r\n        onlyCDPManager\r\n        returns (bool)\r\n    {    \r\n        Active.CLV -= _CLV;\r\n        Active.ETH -= _ETH;\r\n        \r\n        CLV.burn(_account, _CLV);\r\n        _account.transfer(_ETH);\r\n                \r\n        return true;\r\n    }    \r\n\r\n    // Deposits the specified amount to the Stability Pool using the algorithm from http://batog.info/papers/scalable-reward-distribution.pdf\r\n    // Can be called directly by anybody, not just by the owner (CDP contract) \r\n    // TODO: Support multiple deposits by the same address\r\n    // TODO: CDP holders which make a deposit should be able to redirect the received ETH to their CDPs\r\n    function depositCLV(uint _amount) \r\n        public\r\n        returns (bool)\r\n    {\r\n        require(_amount > 0, \"Deposited amount must be larger than 0\");\r\n        require(CLV.balanceOf(msg.sender) >= _amount, \"Sender has insufficient balance\");\r\n        \r\n        // Transfer the CLV tokens from the caller (msg.sender) to the pool's address and update the amount of CLV\r\n        CLV.sendToPool(msg.sender, _amount);\r\n        Stability.CLV += _amount;\r\n        \r\n        // Record the deposit made by the caller in a map\r\n        deposit[msg.sender].CLV += _amount;\r\n        \r\n        // Record an individual snapshot of the running totals S_CLV and S_ETH for the caller (msg.sender)\r\n        snapshot[msg.sender].CLV = S_CLV;\r\n        snapshot[msg.sender].ETH = Stability.ETH;\r\n        \r\n        return true;\r\n    }   \r\n    \r\n    // Cancels out the specified _debt against the CLV contained in the Stability Pool (as far as possible)  \r\n    // and transfers the CDP's ETH collateral from Active Pool to Stability Pool. \r\n    // Returns the amount of debt & coll that could not be cancelled out.\r\n    // Can only be called via the close(...) and closeCDPs(... ) functions in CDP.sol\r\n    function offset(uint _debt, uint _coll)\r\n        public\r\n        payable\r\n        onlyCDPManager\r\n        returns (uint[2] memory) // Note: it would be nicer to return this as a struct, but struct returns are still experimental\r\n    {    \r\n        require(Stability.CLV > 0, \"Stability pool is empty\");\r\n        \r\n        // If the debt is larger than the deposited CLV, only offset an amount of debt corresponding to the latter\r\n        uint debtToDistribute = getMin(_debt, Stability.CLV);\r\n        // Determine the amount of collateral to be distributed in proportion to the debt that is distributed\r\n        uint collToDistribute = (((debtToDistribute * DIGITS) / _debt) * _coll) / DIGITS;\r\n        \r\n        // Update the running total S_CLV by adding the ratio between the distributed debt and the CLV in the pool\r\n        S_CLV += (debtToDistribute * DIGITS) / Stability.CLV;\r\n        // Update the running total S_ETH by adding the ratio between the distributed collateral and the ETH in the pool\r\n        S_ETH += (collToDistribute * DIGITS) / Stability.CLV;\r\n        \r\n        // Update the amount of ETH and CLV in the Stability Pool and the Active Pool\r\n        Stability.ETH += collToDistribute; \r\n        Stability.CLV -= debtToDistribute;\r\n        Active.ETH -= collToDistribute;\r\n        Active.CLV -= debtToDistribute;\r\n        \r\n        // Burn the debt that was successfully offset\r\n        CLV.burn(address(this), debtToDistribute);\r\n        \r\n        // Return the amount of debt & coll that could not be offset against the Stability Pool due to insufficiency\r\n        uint[2] memory remainder;\r\n        remainder[0] = _debt - debtToDistribute;\r\n        remainder[1] = _coll - collToDistribute;\r\n        return remainder;\r\n    }\r\n    \r\n    // Retrieves the caller's funds from the Stability Pool\r\n    // TODO: Support partial withdrawals\r\n    function retrieve() \r\n        public\r\n        returns (bool)\r\n    {\r\n        require(deposit[msg.sender].CLV > 0, \"Caller has no deposit\");\r\n        \r\n        // Calculate the CLV and ETH shares to be retrieved according http://batog.info/papers/scalable-reward-distribution.pdf\r\n        // TODO: Check for div/0\r\n        // Problem: Rounding errors lead to results like 666666666666666600 instead of 666666666666666666 \r\n        uint CLVShare = deposit[msg.sender].CLV - (deposit[msg.sender].CLV * (S_CLV - snapshot[msg.sender].CLV)) / DIGITS;\r\n        uint ETHShare = (deposit[msg.sender].CLV * (S_ETH - snapshot[msg.sender].ETH)) / DIGITS;\r\n        \r\n        // Updates the amounts of ETH and CLV in the Stability Pool and the Active Pool\r\n        Stability.ETH -= ETHShare; \r\n        Stability.CLV -= CLVShare;\r\n\r\n        deposit[msg.sender].CLV = 0;\r\n        // TODO: Beware of rounding errors that may lead to underflows\r\n        CLV.returnFromPool(msg.sender, getMin(CLVShare, Stability.CLV));\r\n        \r\n        // Return the ether to the caller\r\n        msg.sender.transfer(ETHShare);\r\n        \r\n        return true;\r\n    }\r\n}    ",
  "sourcePath": "C:\\Users\\Administrator\\Desktop\\Cleverage\\contracts\\PoolManager.sol",
  "compiler": {
    "name": "solc",
    "version": "0.5.12+commit.7709ece9.Emscripten.clang"
  },
  "schemaVersion": "3.0.19",
  "updatedAt": "2019-12-03T21:42:39.164Z",
  "networkType": "ethereum",
  "devdoc": {
    "methods": {
      "isOwner()": {
        "details": "Returns true if the caller is the current owner."
      },
      "owner()": {
        "details": "Returns the address of the current owner."
      },
      "renounceOwnership()": {
        "details": "Leaves the contract without owner. It will not be possible to call `onlyOwner` functions anymore. Can only be called by the current owner.     * NOTE: Renouncing ownership will leave the contract without an owner, thereby removing any functionality that is only available to the owner."
      },
      "transferOwnership(address)": {
        "details": "Transfers ownership of the contract to a new account (`newOwner`). Can only be called by the current owner."
      }
    }
  },
  "userdoc": {
    "methods": {}
  }
}