{
  "contractName": "PoolManager",
  "abi": [
    {
      "inputs": [],
      "payable": false,
      "stateMutability": "nonpayable",
      "type": "constructor"
    },
    {
      "anonymous": false,
      "inputs": [
        {
          "indexed": true,
          "internalType": "address",
          "name": "previousOwner",
          "type": "address"
        },
        {
          "indexed": true,
          "internalType": "address",
          "name": "newOwner",
          "type": "address"
        }
      ],
      "name": "OwnershipTransferred",
      "type": "event"
    },
    {
      "constant": true,
      "inputs": [],
      "name": "S_CLV",
      "outputs": [
        {
          "internalType": "uint256",
          "name": "",
          "type": "uint256"
        }
      ],
      "payable": false,
      "stateMutability": "view",
      "type": "function"
    },
    {
      "constant": true,
      "inputs": [],
      "name": "S_ETH",
      "outputs": [
        {
          "internalType": "uint256",
          "name": "",
          "type": "uint256"
        }
      ],
      "payable": false,
      "stateMutability": "view",
      "type": "function"
    },
    {
      "constant": true,
      "inputs": [],
      "name": "activePool",
      "outputs": [
        {
          "internalType": "contract IPool",
          "name": "",
          "type": "address"
        }
      ],
      "payable": false,
      "stateMutability": "view",
      "type": "function"
    },
    {
      "constant": true,
      "inputs": [],
      "name": "activePoolAddress",
      "outputs": [
        {
          "internalType": "address payable",
          "name": "",
          "type": "address"
        }
      ],
      "payable": false,
      "stateMutability": "view",
      "type": "function"
    },
    {
      "constant": true,
      "inputs": [],
      "name": "cdpManagerAddress",
      "outputs": [
        {
          "internalType": "address",
          "name": "",
          "type": "address"
        }
      ],
      "payable": false,
      "stateMutability": "view",
      "type": "function"
    },
    {
      "constant": true,
      "inputs": [],
      "name": "clvAddress",
      "outputs": [
        {
          "internalType": "address",
          "name": "",
          "type": "address"
        }
      ],
      "payable": false,
      "stateMutability": "view",
      "type": "function"
    },
    {
      "constant": true,
      "inputs": [],
      "name": "defaultPool",
      "outputs": [
        {
          "internalType": "contract IPool",
          "name": "",
          "type": "address"
        }
      ],
      "payable": false,
      "stateMutability": "view",
      "type": "function"
    },
    {
      "constant": true,
      "inputs": [],
      "name": "defaultPoolAddress",
      "outputs": [
        {
          "internalType": "address payable",
          "name": "",
          "type": "address"
        }
      ],
      "payable": false,
      "stateMutability": "view",
      "type": "function"
    },
    {
      "constant": true,
      "inputs": [
        {
          "internalType": "address",
          "name": "",
          "type": "address"
        }
      ],
      "name": "deposit",
      "outputs": [
        {
          "internalType": "uint256",
          "name": "",
          "type": "uint256"
        }
      ],
      "payable": false,
      "stateMutability": "view",
      "type": "function"
    },
    {
      "constant": true,
      "inputs": [],
      "name": "isOwner",
      "outputs": [
        {
          "internalType": "bool",
          "name": "",
          "type": "bool"
        }
      ],
      "payable": false,
      "stateMutability": "view",
      "type": "function"
    },
    {
      "constant": true,
      "inputs": [],
      "name": "owner",
      "outputs": [
        {
          "internalType": "address",
          "name": "",
          "type": "address"
        }
      ],
      "payable": false,
      "stateMutability": "view",
      "type": "function"
    },
    {
      "constant": true,
      "inputs": [],
      "name": "priceFeedAddress",
      "outputs": [
        {
          "internalType": "address",
          "name": "",
          "type": "address"
        }
      ],
      "payable": false,
      "stateMutability": "view",
      "type": "function"
    },
    {
      "constant": false,
      "inputs": [],
      "name": "renounceOwnership",
      "outputs": [],
      "payable": false,
      "stateMutability": "nonpayable",
      "type": "function"
    },
    {
      "constant": true,
      "inputs": [
        {
          "internalType": "address",
          "name": "",
          "type": "address"
        }
      ],
      "name": "snapshot",
      "outputs": [
        {
          "internalType": "uint256",
          "name": "ETH",
          "type": "uint256"
        },
        {
          "internalType": "uint256",
          "name": "CLV",
          "type": "uint256"
        }
      ],
      "payable": false,
      "stateMutability": "view",
      "type": "function"
    },
    {
      "constant": true,
      "inputs": [],
      "name": "stabilityPool",
      "outputs": [
        {
          "internalType": "contract IPool",
          "name": "",
          "type": "address"
        }
      ],
      "payable": false,
      "stateMutability": "view",
      "type": "function"
    },
    {
      "constant": true,
      "inputs": [],
      "name": "stabilityPoolAddress",
      "outputs": [
        {
          "internalType": "address payable",
          "name": "",
          "type": "address"
        }
      ],
      "payable": false,
      "stateMutability": "view",
      "type": "function"
    },
    {
      "constant": false,
      "inputs": [
        {
          "internalType": "address",
          "name": "newOwner",
          "type": "address"
        }
      ],
      "name": "transferOwnership",
      "outputs": [],
      "payable": false,
      "stateMutability": "nonpayable",
      "type": "function"
    },
    {
      "constant": false,
      "inputs": [
        {
          "internalType": "address",
          "name": "_CLVAddress",
          "type": "address"
        }
      ],
      "name": "setCLVToken",
      "outputs": [],
      "payable": false,
      "stateMutability": "nonpayable",
      "type": "function"
    },
    {
      "constant": false,
      "inputs": [
        {
          "internalType": "address",
          "name": "_priceFeedAddress",
          "type": "address"
        }
      ],
      "name": "setPriceFeed",
      "outputs": [],
      "payable": false,
      "stateMutability": "nonpayable",
      "type": "function"
    },
    {
      "constant": false,
      "inputs": [
        {
          "internalType": "address",
          "name": "_cdpManagerAddress",
          "type": "address"
        }
      ],
      "name": "setCDPManagerAddress",
      "outputs": [],
      "payable": false,
      "stateMutability": "nonpayable",
      "type": "function"
    },
    {
      "constant": false,
      "inputs": [
        {
          "internalType": "address payable",
          "name": "_stabilityPoolAddress",
          "type": "address"
        }
      ],
      "name": "setStabilityPool",
      "outputs": [],
      "payable": false,
      "stateMutability": "nonpayable",
      "type": "function"
    },
    {
      "constant": false,
      "inputs": [
        {
          "internalType": "address payable",
          "name": "_activePoolAddress",
          "type": "address"
        }
      ],
      "name": "setActivePool",
      "outputs": [],
      "payable": false,
      "stateMutability": "nonpayable",
      "type": "function"
    },
    {
      "constant": false,
      "inputs": [
        {
          "internalType": "address payable",
          "name": "_defaultPoolAddress",
          "type": "address"
        }
      ],
      "name": "setDefaultPool",
      "outputs": [],
      "payable": false,
      "stateMutability": "nonpayable",
      "type": "function"
    },
    {
      "constant": true,
      "inputs": [],
      "name": "getTCR",
      "outputs": [
        {
          "internalType": "uint256",
          "name": "",
          "type": "uint256"
        }
      ],
      "payable": false,
      "stateMutability": "view",
      "type": "function"
    },
    {
      "constant": true,
      "inputs": [],
      "name": "getBalance",
      "outputs": [
        {
          "internalType": "uint256",
          "name": "",
          "type": "uint256"
        }
      ],
      "payable": false,
      "stateMutability": "view",
      "type": "function"
    },
    {
      "constant": true,
      "inputs": [],
      "name": "getActiveDebt",
      "outputs": [
        {
          "internalType": "uint256",
          "name": "",
          "type": "uint256"
        }
      ],
      "payable": false,
      "stateMutability": "view",
      "type": "function"
    },
    {
      "constant": true,
      "inputs": [],
      "name": "getActiveColl",
      "outputs": [
        {
          "internalType": "uint256",
          "name": "",
          "type": "uint256"
        }
      ],
      "payable": false,
      "stateMutability": "view",
      "type": "function"
    },
    {
      "constant": true,
      "inputs": [],
      "name": "getClosedDebt",
      "outputs": [
        {
          "internalType": "uint256",
          "name": "",
          "type": "uint256"
        }
      ],
      "payable": false,
      "stateMutability": "view",
      "type": "function"
    },
    {
      "constant": true,
      "inputs": [],
      "name": "getClosedColl",
      "outputs": [
        {
          "internalType": "uint256",
          "name": "",
          "type": "uint256"
        }
      ],
      "payable": false,
      "stateMutability": "view",
      "type": "function"
    },
    {
      "constant": true,
      "inputs": [
        {
          "internalType": "uint256",
          "name": "a",
          "type": "uint256"
        },
        {
          "internalType": "uint256",
          "name": "b",
          "type": "uint256"
        }
      ],
      "name": "getMin",
      "outputs": [
        {
          "internalType": "uint256",
          "name": "",
          "type": "uint256"
        }
      ],
      "payable": false,
      "stateMutability": "pure",
      "type": "function"
    },
    {
      "constant": false,
      "inputs": [],
      "name": "addColl",
      "outputs": [
        {
          "internalType": "bool",
          "name": "",
          "type": "bool"
        }
      ],
      "payable": true,
      "stateMutability": "payable",
      "type": "function"
    },
    {
      "constant": false,
      "inputs": [
        {
          "internalType": "address payable",
          "name": "_account",
          "type": "address"
        },
        {
          "internalType": "uint256",
          "name": "_ETH",
          "type": "uint256"
        }
      ],
      "name": "withdrawColl",
      "outputs": [
        {
          "internalType": "bool",
          "name": "",
          "type": "bool"
        }
      ],
      "payable": false,
      "stateMutability": "nonpayable",
      "type": "function"
    },
    {
      "constant": false,
      "inputs": [
        {
          "internalType": "address",
          "name": "_account",
          "type": "address"
        },
        {
          "internalType": "uint256",
          "name": "_CLV",
          "type": "uint256"
        }
      ],
      "name": "withdrawCLV",
      "outputs": [
        {
          "internalType": "bool",
          "name": "",
          "type": "bool"
        }
      ],
      "payable": false,
      "stateMutability": "nonpayable",
      "type": "function"
    },
    {
      "constant": false,
      "inputs": [
        {
          "internalType": "address",
          "name": "_account",
          "type": "address"
        },
        {
          "internalType": "uint256",
          "name": "_CLV",
          "type": "uint256"
        }
      ],
      "name": "repayCLV",
      "outputs": [
        {
          "internalType": "bool",
          "name": "",
          "type": "bool"
        }
      ],
      "payable": false,
      "stateMutability": "nonpayable",
      "type": "function"
    },
    {
      "constant": false,
      "inputs": [
        {
          "internalType": "uint256",
          "name": "_CLV",
          "type": "uint256"
        },
        {
          "internalType": "uint256",
          "name": "_ETH",
          "type": "uint256"
        }
      ],
      "name": "close",
      "outputs": [
        {
          "internalType": "bool",
          "name": "",
          "type": "bool"
        }
      ],
      "payable": false,
      "stateMutability": "nonpayable",
      "type": "function"
    },
    {
      "constant": false,
      "inputs": [
        {
          "internalType": "uint256",
          "name": "_CLV",
          "type": "uint256"
        },
        {
          "internalType": "uint256",
          "name": "_ETH",
          "type": "uint256"
        }
      ],
      "name": "obtainDefaultShare",
      "outputs": [
        {
          "internalType": "bool",
          "name": "",
          "type": "bool"
        }
      ],
      "payable": false,
      "stateMutability": "nonpayable",
      "type": "function"
    },
    {
      "constant": false,
      "inputs": [
        {
          "internalType": "address payable",
          "name": "_account",
          "type": "address"
        },
        {
          "internalType": "uint256",
          "name": "_CLV",
          "type": "uint256"
        },
        {
          "internalType": "uint256",
          "name": "_ETH",
          "type": "uint256"
        }
      ],
      "name": "redeemCollateral",
      "outputs": [
        {
          "internalType": "bool",
          "name": "",
          "type": "bool"
        }
      ],
      "payable": false,
      "stateMutability": "nonpayable",
      "type": "function"
    },
    {
      "constant": false,
      "inputs": [
        {
          "internalType": "uint256",
          "name": "_amount",
          "type": "uint256"
        }
      ],
      "name": "depositCLV",
      "outputs": [
        {
          "internalType": "bool",
          "name": "",
          "type": "bool"
        }
      ],
      "payable": false,
      "stateMutability": "nonpayable",
      "type": "function"
    },
    {
      "constant": false,
      "inputs": [
        {
          "internalType": "uint256",
          "name": "_debt",
          "type": "uint256"
        },
        {
          "internalType": "uint256",
          "name": "_coll",
          "type": "uint256"
        }
      ],
      "name": "offset",
      "outputs": [
        {
          "internalType": "uint256[2]",
          "name": "",
          "type": "uint256[2]"
        }
      ],
      "payable": true,
      "stateMutability": "payable",
      "type": "function"
    },
    {
      "constant": false,
      "inputs": [],
      "name": "retrieve",
      "outputs": [
        {
          "internalType": "bool",
          "name": "",
          "type": "bool"
        }
      ],
      "payable": false,
      "stateMutability": "nonpayable",
      "type": "function"
    }
  ],
  "bytecode": "0x60806040523480156200001157600080fd5b5062000022620000e360201b60201c565b6000806101000a81548173ffffffffffffffffffffffffffffffffffffffff021916908373ffffffffffffffffffffffffffffffffffffffff1602179055506000809054906101000a900473ffffffffffffffffffffffffffffffffffffffff1673ffffffffffffffffffffffffffffffffffffffff16600073ffffffffffffffffffffffffffffffffffffffff167f8be0079c531659141344cd1fd0a4f28419497f9722a3daafe3b4186f6b6457e060405160405180910390a3620000eb565b600033905090565b61443a80620000fb6000396000f3fe60806040526004361061023b5760003560e01c80637f7dde4a1161012e578063b7a2a463116100ab578063f2fde38b1161006f578063f2fde38b14610c82578063f340fa0114610cd3578063f568dd8e14610d38578063f7883a8b14610dab578063fefb4c5814610dfc5761023b565b8063b7a2a46314610ae5578063b96c518114610b10578063d31cadf614610b83578063e0abca0b14610bda578063ef6151a614610c315761023b565b806398d721e0116100f257806398d721e014610968578063aac1846f146109b9578063b08bc72214610a10578063b4f8adc514610a67578063b620115d14610aba5761023b565b80637f7dde4a1461080f5780638c192ed4146108665780638da5cb5b146108b75780638f32d59b1461090e5780639594897d1461093d5761023b565b8063335525ad116101bc5780636bad5198116101805780636bad5198146106d4578063708249b3146106ff578063715018a61461072a578063724e78da146107415780637cb19fe8146107925761023b565b8063335525ad146105245780633cc74225146105985780634d5bc111146105ef578063596c89761461064c578063697b93fd146106a95761023b565b80631f549907116102035780631f549907146103c957806325a2e6e7146103f457806326512160146104165780632e64cec1146104825780632e90bbd8146104b15761023b565b806302f6567f14610240578063048c661d146102975780630b622ab2146102ee5780630fd95db51461034557806312065fe01461039e575b600080fd5b34801561024c57600080fd5b50610255610e4d565b604051808273ffffffffffffffffffffffffffffffffffffffff1673ffffffffffffffffffffffffffffffffffffffff16815260200191505060405180910390f35b3480156102a357600080fd5b506102ac610e73565b604051808273ffffffffffffffffffffffffffffffffffffffff1673ffffffffffffffffffffffffffffffffffffffff16815260200191505060405180910390f35b3480156102fa57600080fd5b50610303610e99565b604051808273ffffffffffffffffffffffffffffffffffffffff1673ffffffffffffffffffffffffffffffffffffffff16815260200191505060405180910390f35b34801561035157600080fd5b506103886004803603604081101561036857600080fd5b810190808035906020019092919080359060200190929190505050610ebf565b6040518082815260200191505060405180910390f35b3480156103aa57600080fd5b506103b3610eda565b6040518082815260200191505060405180910390f35b3480156103d557600080fd5b506103de610ef9565b6040518082815260200191505060405180910390f35b6103fc610fa3565b604051808215151515815260200191505060405180910390f35b34801561042257600080fd5b506104656004803603602081101561043957600080fd5b81019080803573ffffffffffffffffffffffffffffffffffffffff1690602001909291905050506111ce565b604051808381526020018281526020019250505060405180910390f35b34801561048e57600080fd5b506104976111f2565b604051808215151515815260200191505060405180910390f35b3480156104bd57600080fd5b5061050a600480360360408110156104d457600080fd5b81019080803573ffffffffffffffffffffffffffffffffffffffff1690602001909291908035906020019092919050505061170e565b604051808215151515815260200191505060405180910390f35b61055a6004803603604081101561053a57600080fd5b810190808035906020019092919080359060200190929190505050611939565b6040518082600260200280838360005b8381101561058557808201518184015260208101905061056a565b5050505090500191505060405180910390f35b3480156105a457600080fd5b506105ad612131565b604051808273ffffffffffffffffffffffffffffffffffffffff1673ffffffffffffffffffffffffffffffffffffffff16815260200191505060405180910390f35b3480156105fb57600080fd5b506106326004803603604081101561061257600080fd5b810190808035906020019092919080359060200190929190505050612157565b604051808215151515815260200191505060405180910390f35b34801561065857600080fd5b5061068f6004803603604081101561066f57600080fd5b8101908080359060200190929190803590602001909291905050506124be565b604051808215151515815260200191505060405180910390f35b3480156106b557600080fd5b506106be612825565b6040518082815260200191505060405180910390f35b3480156106e057600080fd5b506106e96128cf565b6040518082815260200191505060405180910390f35b34801561070b57600080fd5b506107146128d5565b6040518082815260200191505060405180910390f35b34801561073657600080fd5b5061073f6128db565b005b34801561074d57600080fd5b506107906004803603602081101561076457600080fd5b81019080803573ffffffffffffffffffffffffffffffffffffffff169060200190929190505050612a14565b005b34801561079e57600080fd5b506107f5600480360360608110156107b557600080fd5b81019080803573ffffffffffffffffffffffffffffffffffffffff1690602001909291908035906020019092919080359060200190929190505050612b13565b604051808215151515815260200191505060405180910390f35b34801561081b57600080fd5b50610824612e24565b604051808273ffffffffffffffffffffffffffffffffffffffff1673ffffffffffffffffffffffffffffffffffffffff16815260200191505060405180910390f35b34801561087257600080fd5b506108b56004803603602081101561088957600080fd5b81019080803573ffffffffffffffffffffffffffffffffffffffff169060200190929190505050612e4a565b005b3480156108c357600080fd5b506108cc612f6b565b604051808273ffffffffffffffffffffffffffffffffffffffff1673ffffffffffffffffffffffffffffffffffffffff16815260200191505060405180910390f35b34801561091a57600080fd5b50610923612f94565b604051808215151515815260200191505060405180910390f35b34801561094957600080fd5b50610952612ff2565b6040518082815260200191505060405180910390f35b34801561097457600080fd5b506109b76004803603602081101561098b57600080fd5b81019080803573ffffffffffffffffffffffffffffffffffffffff16906020019092919050505061309c565b005b3480156109c557600080fd5b506109ce6131bd565b604051808273ffffffffffffffffffffffffffffffffffffffff1673ffffffffffffffffffffffffffffffffffffffff16815260200191505060405180910390f35b348015610a1c57600080fd5b50610a256131e3565b604051808273ffffffffffffffffffffffffffffffffffffffff1673ffffffffffffffffffffffffffffffffffffffff16815260200191505060405180910390f35b348015610a7357600080fd5b50610aa060048036036020811015610a8a57600080fd5b8101908080359060200190929190505050613209565b604051808215151515815260200191505060405180910390f35b348015610ac657600080fd5b50610acf6136f2565b6040518082815260200191505060405180910390f35b348015610af157600080fd5b50610afa61395f565b6040518082815260200191505060405180910390f35b348015610b1c57600080fd5b50610b6960048036036040811015610b3357600080fd5b81019080803573ffffffffffffffffffffffffffffffffffffffff16906020019092919080359060200190929190505050613a09565b604051808215151515815260200191505060405180910390f35b348015610b8f57600080fd5b50610b98613c34565b604051808273ffffffffffffffffffffffffffffffffffffffff1673ffffffffffffffffffffffffffffffffffffffff16815260200191505060405180910390f35b348015610be657600080fd5b50610bef613c5a565b604051808273ffffffffffffffffffffffffffffffffffffffff1673ffffffffffffffffffffffffffffffffffffffff16815260200191505060405180910390f35b348015610c3d57600080fd5b50610c8060048036036020811015610c5457600080fd5b81019080803573ffffffffffffffffffffffffffffffffffffffff169060200190929190505050613c80565b005b348015610c8e57600080fd5b50610cd160048036036020811015610ca557600080fd5b81019080803573ffffffffffffffffffffffffffffffffffffffff169060200190929190505050613d3e565b005b348015610cdf57600080fd5b50610d2260048036036020811015610cf657600080fd5b81019080803573ffffffffffffffffffffffffffffffffffffffff169060200190929190505050613dc4565b6040518082815260200191505060405180910390f35b348015610d4457600080fd5b50610d9160048036036040811015610d5b57600080fd5b81019080803573ffffffffffffffffffffffffffffffffffffffff16906020019092919080359060200190929190505050613ddc565b604051808215151515815260200191505060405180910390f35b348015610db757600080fd5b50610dfa60048036036020811015610dce57600080fd5b81019080803573ffffffffffffffffffffffffffffffffffffffff169060200190929190505050613f7a565b005b348015610e0857600080fd5b50610e4b60048036036020811015610e1f57600080fd5b81019080803573ffffffffffffffffffffffffffffffffffffffff16906020019092919050505061409b565b005b600160009054906101000a900473ffffffffffffffffffffffffffffffffffffffff1681565b600660009054906101000a900473ffffffffffffffffffffffffffffffffffffffff1681565b600760009054906101000a900473ffffffffffffffffffffffffffffffffffffffff1681565b6000818311610ed057829050610ed4565b8190505b92915050565b60003073ffffffffffffffffffffffffffffffffffffffff1631905090565b6000600860009054906101000a900473ffffffffffffffffffffffffffffffffffffffff1673ffffffffffffffffffffffffffffffffffffffff166314f6c3be6040518163ffffffff1660e01b815260040160206040518083038186803b158015610f6357600080fd5b505afa158015610f77573d6000803e3d6000fd5b505050506040513d6020811015610f8d57600080fd5b8101908080519060200190929190505050905090565b6000600160009054906101000a900473ffffffffffffffffffffffffffffffffffffffff1673ffffffffffffffffffffffffffffffffffffffff16610fe661419a565b73ffffffffffffffffffffffffffffffffffffffff1614611052576040517f08c379a00000000000000000000000000000000000000000000000000000000081526004018080602001828103825260298152602001806143dd6029913960400191505060405180910390fd5b600860009054906101000a900473ffffffffffffffffffffffffffffffffffffffff1673ffffffffffffffffffffffffffffffffffffffff1663b9c0d71f346040518263ffffffff1660e01b815260040180828152602001915050600060405180830381600087803b1580156110c757600080fd5b505af11580156110db573d6000803e3d6000fd5b505050506000600960009054906101000a900473ffffffffffffffffffffffffffffffffffffffff1673ffffffffffffffffffffffffffffffffffffffff163460405180600001905060006040518083038185875af1925050503d8060008114611161576040519150601f19603f3d011682016040523d82523d6000602084013e611166565b606091505b5050905060011515811515146111c7576040517f08c379a000000000000000000000000000000000000000000000000000000000815260040180806020018281038252602f81526020018061438c602f913960400191505060405180910390fd5b8091505090565b600f6020528060005260406000206000915090508060000154908060010154905082565b6000806111fd61419a565b90506000600c60008373ffffffffffffffffffffffffffffffffffffffff1673ffffffffffffffffffffffffffffffffffffffff1681526020019081526020016000205490506000600f60008473ffffffffffffffffffffffffffffffffffffffff1673ffffffffffffffffffffffffffffffffffffffff1681526020019081526020016000206000015490506000600f60008573ffffffffffffffffffffffffffffffffffffffff1673ffffffffffffffffffffffffffffffffffffffff1681526020019081526020016000206001015490506000831161132a576040517f08c379a00000000000000000000000000000000000000000000000000000000081526004018080602001828103825260228152602001806143bb6022913960400191505060405180910390fd5b6000670de0b6b3a764000082600d540385028161134357fe5b04840390506000670de0b6b3a764000084600e540386028161136157fe5b0490506000600c60008873ffffffffffffffffffffffffffffffffffffffff1673ffffffffffffffffffffffffffffffffffffffff16815260200190815260200160002081905550600460009054906101000a900473ffffffffffffffffffffffffffffffffffffffff1673ffffffffffffffffffffffffffffffffffffffff166320c582be600760009054906101000a900473ffffffffffffffffffffffffffffffffffffffff16886114b786600660009054906101000a900473ffffffffffffffffffffffffffffffffffffffff1673ffffffffffffffffffffffffffffffffffffffff1663e1cf19c16040518163ffffffff1660e01b815260040160206040518083038186803b15801561147757600080fd5b505afa15801561148b573d6000803e3d6000fd5b505050506040513d60208110156114a157600080fd5b8101908080519060200190929190505050610ebf565b6040518463ffffffff1660e01b8152600401808473ffffffffffffffffffffffffffffffffffffffff1673ffffffffffffffffffffffffffffffffffffffff1681526020018373ffffffffffffffffffffffffffffffffffffffff1673ffffffffffffffffffffffffffffffffffffffff1681526020018281526020019350505050602060405180830381600087803b15801561155357600080fd5b505af1158015611567573d6000803e3d6000fd5b505050506040513d602081101561157d57600080fd5b810190808051906020019092919050505050600660009054906101000a900473ffffffffffffffffffffffffffffffffffffffff1673ffffffffffffffffffffffffffffffffffffffff1663e9c83957836040518263ffffffff1660e01b815260040180828152602001915050600060405180830381600087803b15801561160457600080fd5b505af1158015611618573d6000803e3d6000fd5b50505050600660009054906101000a900473ffffffffffffffffffffffffffffffffffffffff1673ffffffffffffffffffffffffffffffffffffffff166364a197f387836040518363ffffffff1660e01b8152600401808373ffffffffffffffffffffffffffffffffffffffff1673ffffffffffffffffffffffffffffffffffffffff16815260200182815260200192505050602060405180830381600087803b1580156116c557600080fd5b505af11580156116d9573d6000803e3d6000fd5b505050506040513d60208110156116ef57600080fd5b8101908080519060200190929190505050506001965050505050505090565b6000600160009054906101000a900473ffffffffffffffffffffffffffffffffffffffff1673ffffffffffffffffffffffffffffffffffffffff1661175161419a565b73ffffffffffffffffffffffffffffffffffffffff16146117bd576040517f08c379a00000000000000000000000000000000000000000000000000000000081526004018080602001828103825260298152602001806143dd6029913960400191505060405180910390fd5b600860009054906101000a900473ffffffffffffffffffffffffffffffffffffffff1673ffffffffffffffffffffffffffffffffffffffff16634de73631836040518263ffffffff1660e01b815260040180828152602001915050600060405180830381600087803b15801561183257600080fd5b505af1158015611846573d6000803e3d6000fd5b50505050600460009054906101000a900473ffffffffffffffffffffffffffffffffffffffff1673ffffffffffffffffffffffffffffffffffffffff166340c10f1984846040518363ffffffff1660e01b8152600401808373ffffffffffffffffffffffffffffffffffffffff1673ffffffffffffffffffffffffffffffffffffffff16815260200182815260200192505050602060405180830381600087803b1580156118f357600080fd5b505af1158015611907573d6000803e3d6000fd5b505050506040513d602081101561191d57600080fd5b8101908080519060200190929190505050506001905092915050565b6119416142e6565b600160009054906101000a900473ffffffffffffffffffffffffffffffffffffffff1673ffffffffffffffffffffffffffffffffffffffff1661198261419a565b73ffffffffffffffffffffffffffffffffffffffff16146119ee576040517f08c379a00000000000000000000000000000000000000000000000000000000081526004018080602001828103825260298152602001806143dd6029913960400191505060405180910390fd5b6119f66142e6565b6000600660009054906101000a900473ffffffffffffffffffffffffffffffffffffffff1673ffffffffffffffffffffffffffffffffffffffff1663e1cf19c16040518163ffffffff1660e01b815260040160206040518083038186803b158015611a6057600080fd5b505afa158015611a74573d6000803e3d6000fd5b505050506040513d6020811015611a8a57600080fd5b81019080805190602001909291905050501415611ad8578381600060028110611aaf57fe5b6020020181815250508281600160028110611ac657fe5b6020020181815250508091505061212b565b6000611b8685600660009054906101000a900473ffffffffffffffffffffffffffffffffffffffff1673ffffffffffffffffffffffffffffffffffffffff1663e1cf19c16040518163ffffffff1660e01b815260040160206040518083038186803b158015611b4657600080fd5b505afa158015611b5a573d6000803e3d6000fd5b505050506040513d6020811015611b7057600080fd5b8101908080519060200190929190505050610ebf565b90506000670de0b6b3a76400008587670de0b6b3a7640000850281611ba757fe5b040281611bb057fe5b049050600660009054906101000a900473ffffffffffffffffffffffffffffffffffffffff1673ffffffffffffffffffffffffffffffffffffffff1663e1cf19c16040518163ffffffff1660e01b815260040160206040518083038186803b158015611c1b57600080fd5b505afa158015611c2f573d6000803e3d6000fd5b505050506040513d6020811015611c4557600080fd5b8101908080519060200190929190505050670de0b6b3a7640000830281611c6857fe5b04600d60008282540192505081905550600660009054906101000a900473ffffffffffffffffffffffffffffffffffffffff1673ffffffffffffffffffffffffffffffffffffffff166314f6c3be6040518163ffffffff1660e01b815260040160206040518083038186803b158015611ce057600080fd5b505afa158015611cf4573d6000803e3d6000fd5b505050506040513d6020811015611d0a57600080fd5b8101908080519060200190929190505050670de0b6b3a7640000820281611d2d57fe5b04600e60008282540192505081905550600860009054906101000a900473ffffffffffffffffffffffffffffffffffffffff1673ffffffffffffffffffffffffffffffffffffffff1663e9c83957836040518263ffffffff1660e01b815260040180828152602001915050600060405180830381600087803b158015611db257600080fd5b505af1158015611dc6573d6000803e3d6000fd5b50505050600660009054906101000a900473ffffffffffffffffffffffffffffffffffffffff1673ffffffffffffffffffffffffffffffffffffffff1663e9c83957836040518263ffffffff1660e01b815260040180828152602001915050600060405180830381600087803b158015611e3f57600080fd5b505af1158015611e53573d6000803e3d6000fd5b50505050600660009054906101000a900473ffffffffffffffffffffffffffffffffffffffff1673ffffffffffffffffffffffffffffffffffffffff1663b9c0d71f826040518263ffffffff1660e01b815260040180828152602001915050600060405180830381600087803b158015611ecc57600080fd5b505af1158015611ee0573d6000803e3d6000fd5b50505050600860009054906101000a900473ffffffffffffffffffffffffffffffffffffffff1673ffffffffffffffffffffffffffffffffffffffff166364a197f3600760009054906101000a900473ffffffffffffffffffffffffffffffffffffffff16836040518363ffffffff1660e01b8152600401808373ffffffffffffffffffffffffffffffffffffffff1673ffffffffffffffffffffffffffffffffffffffff16815260200182815260200192505050602060405180830381600087803b158015611faf57600080fd5b505af1158015611fc3573d6000803e3d6000fd5b505050506040513d6020811015611fd957600080fd5b810190808051906020019092919050505050600460009054906101000a900473ffffffffffffffffffffffffffffffffffffffff1673ffffffffffffffffffffffffffffffffffffffff16639dc29fac600760009054906101000a900473ffffffffffffffffffffffffffffffffffffffff16846040518363ffffffff1660e01b8152600401808373ffffffffffffffffffffffffffffffffffffffff1673ffffffffffffffffffffffffffffffffffffffff16815260200182815260200192505050602060405180830381600087803b1580156120b657600080fd5b505af11580156120ca573d6000803e3d6000fd5b505050506040513d60208110156120e057600080fd5b8101908080519060200190929190505050508186038360006002811061210257fe5b6020020181815250508085038360016002811061211b57fe5b6020020181815250508293505050505b92915050565b600a60009054906101000a900473ffffffffffffffffffffffffffffffffffffffff1681565b6000600160009054906101000a900473ffffffffffffffffffffffffffffffffffffffff1673ffffffffffffffffffffffffffffffffffffffff1661219a61419a565b73ffffffffffffffffffffffffffffffffffffffff1614612206576040517f08c379a00000000000000000000000000000000000000000000000000000000081526004018080602001828103825260298152602001806143dd6029913960400191505060405180910390fd5b600a60009054906101000a900473ffffffffffffffffffffffffffffffffffffffff1673ffffffffffffffffffffffffffffffffffffffff1663e9c83957846040518263ffffffff1660e01b815260040180828152602001915050600060405180830381600087803b15801561227b57600080fd5b505af115801561228f573d6000803e3d6000fd5b50505050600860009054906101000a900473ffffffffffffffffffffffffffffffffffffffff1673ffffffffffffffffffffffffffffffffffffffff16634de73631846040518263ffffffff1660e01b815260040180828152602001915050600060405180830381600087803b15801561230857600080fd5b505af115801561231c573d6000803e3d6000fd5b50505050600860009054906101000a900473ffffffffffffffffffffffffffffffffffffffff1673ffffffffffffffffffffffffffffffffffffffff1663b9c0d71f836040518263ffffffff1660e01b815260040180828152602001915050600060405180830381600087803b15801561239557600080fd5b505af11580156123a9573d6000803e3d6000fd5b50505050600a60009054906101000a900473ffffffffffffffffffffffffffffffffffffffff1673ffffffffffffffffffffffffffffffffffffffff166364a197f3600960009054906101000a900473ffffffffffffffffffffffffffffffffffffffff16846040518363ffffffff1660e01b8152600401808373ffffffffffffffffffffffffffffffffffffffff1673ffffffffffffffffffffffffffffffffffffffff16815260200182815260200192505050602060405180830381600087803b15801561247857600080fd5b505af115801561248c573d6000803e3d6000fd5b505050506040513d60208110156124a257600080fd5b8101908080519060200190929190505050506001905092915050565b6000600160009054906101000a900473ffffffffffffffffffffffffffffffffffffffff1673ffffffffffffffffffffffffffffffffffffffff1661250161419a565b73ffffffffffffffffffffffffffffffffffffffff161461256d576040517f08c379a00000000000000000000000000000000000000000000000000000000081526004018080602001828103825260298152602001806143dd6029913960400191505060405180910390fd5b600a60009054906101000a900473ffffffffffffffffffffffffffffffffffffffff1673ffffffffffffffffffffffffffffffffffffffff16634de73631846040518263ffffffff1660e01b815260040180828152602001915050600060405180830381600087803b1580156125e257600080fd5b505af11580156125f6573d6000803e3d6000fd5b50505050600a60009054906101000a900473ffffffffffffffffffffffffffffffffffffffff1673ffffffffffffffffffffffffffffffffffffffff1663b9c0d71f836040518263ffffffff1660e01b815260040180828152602001915050600060405180830381600087803b15801561266f57600080fd5b505af1158015612683573d6000803e3d6000fd5b50505050600860009054906101000a900473ffffffffffffffffffffffffffffffffffffffff1673ffffffffffffffffffffffffffffffffffffffff1663e9c83957846040518263ffffffff1660e01b815260040180828152602001915050600060405180830381600087803b1580156126fc57600080fd5b505af1158015612710573d6000803e3d6000fd5b50505050600860009054906101000a900473ffffffffffffffffffffffffffffffffffffffff1673ffffffffffffffffffffffffffffffffffffffff166364a197f3600b60009054906101000a900473ffffffffffffffffffffffffffffffffffffffff16846040518363ffffffff1660e01b8152600401808373ffffffffffffffffffffffffffffffffffffffff1673ffffffffffffffffffffffffffffffffffffffff16815260200182815260200192505050602060405180830381600087803b1580156127df57600080fd5b505af11580156127f3573d6000803e3d6000fd5b505050506040513d602081101561280957600080fd5b8101908080519060200190929190505050506001905092915050565b6000600860009054906101000a900473ffffffffffffffffffffffffffffffffffffffff1673ffffffffffffffffffffffffffffffffffffffff1663e1cf19c16040518163ffffffff1660e01b815260040160206040518083038186803b15801561288f57600080fd5b505afa1580156128a3573d6000803e3d6000fd5b505050506040513d60208110156128b957600080fd5b8101908080519060200190929190505050905090565b600e5481565b600d5481565b6128e3612f94565b612955576040517f08c379a00000000000000000000000000000000000000000000000000000000081526004018080602001828103825260208152602001807f4f776e61626c653a2063616c6c6572206973206e6f7420746865206f776e657281525060200191505060405180910390fd5b600073ffffffffffffffffffffffffffffffffffffffff166000809054906101000a900473ffffffffffffffffffffffffffffffffffffffff1673ffffffffffffffffffffffffffffffffffffffff167f8be0079c531659141344cd1fd0a4f28419497f9722a3daafe3b4186f6b6457e060405160405180910390a360008060006101000a81548173ffffffffffffffffffffffffffffffffffffffff021916908373ffffffffffffffffffffffffffffffffffffffff160217905550565b612a1c612f94565b612a8e576040517f08c379a00000000000000000000000000000000000000000000000000000000081526004018080602001828103825260208152602001807f4f776e61626c653a2063616c6c6572206973206e6f7420746865206f776e657281525060200191505060405180910390fd5b80600360006101000a81548173ffffffffffffffffffffffffffffffffffffffff021916908373ffffffffffffffffffffffffffffffffffffffff16021790555080600260006101000a81548173ffffffffffffffffffffffffffffffffffffffff021916908373ffffffffffffffffffffffffffffffffffffffff16021790555050565b6000600160009054906101000a900473ffffffffffffffffffffffffffffffffffffffff1673ffffffffffffffffffffffffffffffffffffffff16612b5661419a565b73ffffffffffffffffffffffffffffffffffffffff1614612bc2576040517f08c379a00000000000000000000000000000000000000000000000000000000081526004018080602001828103825260298152602001806143dd6029913960400191505060405180910390fd5b600860009054906101000a900473ffffffffffffffffffffffffffffffffffffffff1673ffffffffffffffffffffffffffffffffffffffff1663e9c83957846040518263ffffffff1660e01b815260040180828152602001915050600060405180830381600087803b158015612c3757600080fd5b505af1158015612c4b573d6000803e3d6000fd5b50505050600860009054906101000a900473ffffffffffffffffffffffffffffffffffffffff1673ffffffffffffffffffffffffffffffffffffffff166364a197f385846040518363ffffffff1660e01b8152600401808373ffffffffffffffffffffffffffffffffffffffff1673ffffffffffffffffffffffffffffffffffffffff16815260200182815260200192505050602060405180830381600087803b158015612cf857600080fd5b505af1158015612d0c573d6000803e3d6000fd5b505050506040513d6020811015612d2257600080fd5b810190808051906020019092919050505050600460009054906101000a900473ffffffffffffffffffffffffffffffffffffffff1673ffffffffffffffffffffffffffffffffffffffff16639dc29fac85856040518363ffffffff1660e01b8152600401808373ffffffffffffffffffffffffffffffffffffffff1673ffffffffffffffffffffffffffffffffffffffff16815260200182815260200192505050602060405180830381600087803b158015612ddd57600080fd5b505af1158015612df1573d6000803e3d6000fd5b505050506040513d6020811015612e0757600080fd5b810190808051906020019092919050505050600190509392505050565b600860009054906101000a900473ffffffffffffffffffffffffffffffffffffffff1681565b612e52612f94565b612ec4576040517f08c379a00000000000000000000000000000000000000000000000000000000081526004018080602001828103825260208152602001807f4f776e61626c653a2063616c6c6572206973206e6f7420746865206f776e657281525060200191505060405180910390fd5b80600b60006101000a81548173ffffffffffffffffffffffffffffffffffffffff021916908373ffffffffffffffffffffffffffffffffffffffff160217905550600b60009054906101000a900473ffffffffffffffffffffffffffffffffffffffff16600a60006101000a81548173ffffffffffffffffffffffffffffffffffffffff021916908373ffffffffffffffffffffffffffffffffffffffff16021790555050565b60008060009054906101000a900473ffffffffffffffffffffffffffffffffffffffff16905090565b60008060009054906101000a900473ffffffffffffffffffffffffffffffffffffffff1673ffffffffffffffffffffffffffffffffffffffff16612fd661419a565b73ffffffffffffffffffffffffffffffffffffffff1614905090565b6000600a60009054906101000a900473ffffffffffffffffffffffffffffffffffffffff1673ffffffffffffffffffffffffffffffffffffffff1663e1cf19c16040518163ffffffff1660e01b815260040160206040518083038186803b15801561305c57600080fd5b505afa158015613070573d6000803e3d6000fd5b505050506040513d602081101561308657600080fd5b8101908080519060200190929190505050905090565b6130a4612f94565b613116576040517f08c379a00000000000000000000000000000000000000000000000000000000081526004018080602001828103825260208152602001807f4f776e61626c653a2063616c6c6572206973206e6f7420746865206f776e657281525060200191505060405180910390fd5b80600760006101000a81548173ffffffffffffffffffffffffffffffffffffffff021916908373ffffffffffffffffffffffffffffffffffffffff160217905550600760009054906101000a900473ffffffffffffffffffffffffffffffffffffffff16600660006101000a81548173ffffffffffffffffffffffffffffffffffffffff021916908373ffffffffffffffffffffffffffffffffffffffff16021790555050565b600b60009054906101000a900473ffffffffffffffffffffffffffffffffffffffff1681565b600960009054906101000a900473ffffffffffffffffffffffffffffffffffffffff1681565b60008061321461419a565b90506000831161326f576040517f08c379a00000000000000000000000000000000000000000000000000000000081526004018080602001828103825260338152602001806143596033913960400191505060405180910390fd5b82600460009054906101000a900473ffffffffffffffffffffffffffffffffffffffff1673ffffffffffffffffffffffffffffffffffffffff166370a08231836040518263ffffffff1660e01b8152600401808273ffffffffffffffffffffffffffffffffffffffff1673ffffffffffffffffffffffffffffffffffffffff16815260200191505060206040518083038186803b15801561330f57600080fd5b505afa158015613323573d6000803e3d6000fd5b505050506040513d602081101561333957600080fd5b810190808051906020019092919050505010156133a1576040517f08c379a000000000000000000000000000000000000000000000000000000000815260040180806020018281038252602a81526020018061432f602a913960400191505060405180910390fd5b600460009054906101000a900473ffffffffffffffffffffffffffffffffffffffff1673ffffffffffffffffffffffffffffffffffffffff1663bb997bac82600760009054906101000a900473ffffffffffffffffffffffffffffffffffffffff16866040518463ffffffff1660e01b8152600401808473ffffffffffffffffffffffffffffffffffffffff1673ffffffffffffffffffffffffffffffffffffffff1681526020018373ffffffffffffffffffffffffffffffffffffffff1673ffffffffffffffffffffffffffffffffffffffff1681526020018281526020019350505050602060405180830381600087803b1580156134a057600080fd5b505af11580156134b4573d6000803e3d6000fd5b505050506040513d60208110156134ca57600080fd5b810190808051906020019092919050505050600660009054906101000a900473ffffffffffffffffffffffffffffffffffffffff1673ffffffffffffffffffffffffffffffffffffffff16634de73631846040518263ffffffff1660e01b815260040180828152602001915050600060405180830381600087803b15801561355157600080fd5b505af1158015613565573d6000803e3d6000fd5b5050505082600c60008373ffffffffffffffffffffffffffffffffffffffff1673ffffffffffffffffffffffffffffffffffffffff16815260200190815260200160002060008282540192505081905550600d54600f60008373ffffffffffffffffffffffffffffffffffffffff1673ffffffffffffffffffffffffffffffffffffffff16815260200190815260200160002060010181905550600660009054906101000a900473ffffffffffffffffffffffffffffffffffffffff1673ffffffffffffffffffffffffffffffffffffffff166314f6c3be6040518163ffffffff1660e01b815260040160206040518083038186803b15801561366757600080fd5b505afa15801561367b573d6000803e3d6000fd5b505050506040513d602081101561369157600080fd5b8101908080519060200190929190505050600f60008373ffffffffffffffffffffffffffffffffffffffff1673ffffffffffffffffffffffffffffffffffffffff168152602001908152602001600020600001819055506001915050919050565b600080600860009054906101000a900473ffffffffffffffffffffffffffffffffffffffff1673ffffffffffffffffffffffffffffffffffffffff166314f6c3be6040518163ffffffff1660e01b815260040160206040518083038186803b15801561375d57600080fd5b505afa158015613771573d6000803e3d6000fd5b505050506040513d602081101561378757600080fd5b810190808051906020019092919050505090506000600860009054906101000a900473ffffffffffffffffffffffffffffffffffffffff1673ffffffffffffffffffffffffffffffffffffffff1663e1cf19c16040518163ffffffff1660e01b815260040160206040518083038186803b15801561380457600080fd5b505afa158015613818573d6000803e3d6000fd5b505050506040513d602081101561382e57600080fd5b810190808051906020019092919050505090506000600260009054906101000a900473ffffffffffffffffffffffffffffffffffffffff1673ffffffffffffffffffffffffffffffffffffffff166398d5fdca6040518163ffffffff1660e01b815260040160206040518083038186803b1580156138ab57600080fd5b505afa1580156138bf573d6000803e3d6000fd5b505050506040513d60208110156138d557600080fd5b810190808051906020019092919050505090506000831480156138f85750600082145b15613909576001935050505061395c565b6000831415801561391a5750600082145b1561394a577fffffffffffffffffffffffffffffffffffffffffffffffffffffffffffffffff935050505061395c565b818184028161395557fe5b0493505050505b90565b6000600a60009054906101000a900473ffffffffffffffffffffffffffffffffffffffff1673ffffffffffffffffffffffffffffffffffffffff166314f6c3be6040518163ffffffff1660e01b815260040160206040518083038186803b1580156139c957600080fd5b505afa1580156139dd573d6000803e3d6000fd5b505050506040513d60208110156139f357600080fd5b8101908080519060200190929190505050905090565b6000600160009054906101000a900473ffffffffffffffffffffffffffffffffffffffff1673ffffffffffffffffffffffffffffffffffffffff16613a4c61419a565b73ffffffffffffffffffffffffffffffffffffffff1614613ab8576040517f08c379a00000000000000000000000000000000000000000000000000000000081526004018080602001828103825260298152602001806143dd6029913960400191505060405180910390fd5b600860009054906101000a900473ffffffffffffffffffffffffffffffffffffffff1673ffffffffffffffffffffffffffffffffffffffff1663e9c83957836040518263ffffffff1660e01b815260040180828152602001915050600060405180830381600087803b158015613b2d57600080fd5b505af1158015613b41573d6000803e3d6000fd5b50505050600460009054906101000a900473ffffffffffffffffffffffffffffffffffffffff1673ffffffffffffffffffffffffffffffffffffffff16639dc29fac84846040518363ffffffff1660e01b8152600401808373ffffffffffffffffffffffffffffffffffffffff1673ffffffffffffffffffffffffffffffffffffffff16815260200182815260200192505050602060405180830381600087803b158015613bee57600080fd5b505af1158015613c02573d6000803e3d6000fd5b505050506040513d6020811015613c1857600080fd5b8101908080519060200190929190505050506001905092915050565b600560009054906101000a900473ffffffffffffffffffffffffffffffffffffffff1681565b600360009054906101000a900473ffffffffffffffffffffffffffffffffffffffff1681565b613c88612f94565b613cfa576040517f08c379a00000000000000000000000000000000000000000000000000000000081526004018080602001828103825260208152602001807f4f776e61626c653a2063616c6c6572206973206e6f7420746865206f776e657281525060200191505060405180910390fd5b80600160006101000a81548173ffffffffffffffffffffffffffffffffffffffff021916908373ffffffffffffffffffffffffffffffffffffffff16021790555050565b613d46612f94565b613db8576040517f08c379a00000000000000000000000000000000000000000000000000000000081526004018080602001828103825260208152602001807f4f776e61626c653a2063616c6c6572206973206e6f7420746865206f776e657281525060200191505060405180910390fd5b613dc1816141a2565b50565b600c6020528060005260406000206000915090505481565b6000600160009054906101000a900473ffffffffffffffffffffffffffffffffffffffff1673ffffffffffffffffffffffffffffffffffffffff16613e1f61419a565b73ffffffffffffffffffffffffffffffffffffffff1614613e8b576040517f08c379a00000000000000000000000000000000000000000000000000000000081526004018080602001828103825260298152602001806143dd6029913960400191505060405180910390fd5b600860009054906101000a900473ffffffffffffffffffffffffffffffffffffffff1673ffffffffffffffffffffffffffffffffffffffff166364a197f384846040518363ffffffff1660e01b8152600401808373ffffffffffffffffffffffffffffffffffffffff1673ffffffffffffffffffffffffffffffffffffffff16815260200182815260200192505050602060405180830381600087803b158015613f3457600080fd5b505af1158015613f48573d6000803e3d6000fd5b505050506040513d6020811015613f5e57600080fd5b8101908080519060200190929190505050506001905092915050565b613f82612f94565b613ff4576040517f08c379a00000000000000000000000000000000000000000000000000000000081526004018080602001828103825260208152602001807f4f776e61626c653a2063616c6c6572206973206e6f7420746865206f776e657281525060200191505060405180910390fd5b80600960006101000a81548173ffffffffffffffffffffffffffffffffffffffff021916908373ffffffffffffffffffffffffffffffffffffffff160217905550600960009054906101000a900473ffffffffffffffffffffffffffffffffffffffff16600860006101000a81548173ffffffffffffffffffffffffffffffffffffffff021916908373ffffffffffffffffffffffffffffffffffffffff16021790555050565b6140a3612f94565b614115576040517f08c379a00000000000000000000000000000000000000000000000000000000081526004018080602001828103825260208152602001807f4f776e61626c653a2063616c6c6572206973206e6f7420746865206f776e657281525060200191505060405180910390fd5b80600560006101000a81548173ffffffffffffffffffffffffffffffffffffffff021916908373ffffffffffffffffffffffffffffffffffffffff16021790555080600460006101000a81548173ffffffffffffffffffffffffffffffffffffffff021916908373ffffffffffffffffffffffffffffffffffffffff16021790555050565b600033905090565b600073ffffffffffffffffffffffffffffffffffffffff168173ffffffffffffffffffffffffffffffffffffffff161415614228576040517f08c379a00000000000000000000000000000000000000000000000000000000081526004018080602001828103825260268152602001806143096026913960400191505060405180910390fd5b8073ffffffffffffffffffffffffffffffffffffffff166000809054906101000a900473ffffffffffffffffffffffffffffffffffffffff1673ffffffffffffffffffffffffffffffffffffffff167f8be0079c531659141344cd1fd0a4f28419497f9722a3daafe3b4186f6b6457e060405160405180910390a3806000806101000a81548173ffffffffffffffffffffffffffffffffffffffff021916908373ffffffffffffffffffffffffffffffffffffffff16021790555050565b604051806040016040528060029060208202803883398082019150509050509056fe4f776e61626c653a206e6577206f776e657220697320746865207a65726f2061646472657373506f6f6c4d616e616765723a20757365722068617320696e73756666696369656e742062616c616e6365506f6f6c4d616e616765723a206465706f736974656420616d6f756e74206d757374206265206c6172676572207468616e2030506f6f6c4d616e616765723a207472616e73616374696f6e20746f20616374697665506f6f6c207265766572746564506f6f6c4d616e616765723a2063616c6c657220686173206e6f206465706f736974506f6f6c4d616e616765723a2043616c6c6572206973206e6f7420746865204344504d616e61676572a265627a7a72315820e87d1fca89036b362cf71b1a395f83655f41795d8bf714db64a242f84a3d01fb64736f6c634300050c0032",
  "source": "pragma solidity ^0.5.11;\r\n\r\n// import \"./StabilityPool.sol\";\r\n// import \"./ActivePool.sol\";\r\n// import \"./DefaultPool.sol\";\r\nimport './IPool.sol';\r\n\r\nimport \"./PriceFeed.sol\";\r\nimport \"./CLVToken.sol\";\r\nimport '../node_modules/@openzeppelin/contracts/ownership/Ownable.sol';\r\n\r\n// Maintains all pools and holds the ETH and CLV balances\r\ncontract PoolManager is Ownable {\r\n\r\n    struct Snapshot {\r\n        uint ETH;\r\n        uint CLV;\r\n    }\r\n    uint constant DIGITS = 1e18;\r\n\r\n    address public cdpManagerAddress;\r\n\r\n    PriceFeed priceFeed;\r\n    address public priceFeedAddress;\r\n\r\n    CLVToken CLV; \r\n    address public clvAddress;\r\n\r\n    IPool public stabilityPool;\r\n    address payable public stabilityPoolAddress;\r\n\r\n    IPool public activePool;\r\n    address payable public activePoolAddress;\r\n\r\n    IPool public defaultPool;\r\n    address payable public defaultPoolAddress;\r\n   \r\n    mapping (address => uint) public deposit; // A map of all deposits\r\n    \r\n    uint public S_CLV; // A running total of the CLV fractions for gas-efficient share calculation\r\n    uint public S_ETH; // A running total of the ETH fractions for gas-efficient share calculation\r\n    mapping (address => Snapshot) public snapshot; // A map of individual snapshots of the S_CLV and the current Stability.ETH values\r\n    \r\n    modifier onlyCDPManager() {\r\n        require(_msgSender() == cdpManagerAddress, \"PoolManager: Caller is not the CDPManager\");\r\n        _;\r\n    }\r\n\r\n    constructor() public {\r\n    }\r\n\r\n    // --- Dependency setters ---\r\n    function setCLVToken(address _CLVAddress) public onlyOwner {\r\n        clvAddress = _CLVAddress;\r\n        CLV = CLVToken(_CLVAddress); \r\n    }\r\n     function setPriceFeed(address _priceFeedAddress) public onlyOwner {\r\n        priceFeedAddress = _priceFeedAddress;\r\n        priceFeed = PriceFeed(_priceFeedAddress);\r\n    }\r\n\r\n    function setCDPManagerAddress(address _cdpManagerAddress) public onlyOwner {\r\n        cdpManagerAddress = _cdpManagerAddress;\r\n    }\r\n\r\n    function setStabilityPool(address payable _stabilityPoolAddress) public onlyOwner {\r\n        stabilityPoolAddress = _stabilityPoolAddress;\r\n        stabilityPool = IPool(stabilityPoolAddress);\r\n    }\r\n\r\n    function setActivePool(address payable _activePoolAddress) public onlyOwner {\r\n        activePoolAddress = _activePoolAddress;\r\n        activePool = IPool(activePoolAddress);\r\n    }\r\n\r\n    function setDefaultPool(address payable _defaultPoolAddress) public onlyOwner {\r\n        defaultPoolAddress = _defaultPoolAddress;\r\n        defaultPool = IPool(defaultPoolAddress);\r\n    }\r\n\r\n    // --- Getters ---\r\n\r\n    // Returns the total collateral ratio of the system\r\n    function getTCR() \r\n        view \r\n        public \r\n        returns (uint) \r\n    {\r\n        uint activePoolETH = activePool.getETH();\r\n        uint activePoolCLV = activePool.getCLV();\r\n        uint price = priceFeed.getPrice();\r\n        \r\n        // Handle edge cases of div by 0\r\n        if(activePoolETH == 0 && activePoolCLV == 0 ) { \r\n            return 1;\r\n        }  else if (activePoolETH != 0 && activePoolCLV == 0 ) {\r\n            return 2**256 - 1; // TCR is technically infinite\r\n        } \r\n\r\n        // calculate TCR\r\n        return activePoolETH * price / activePoolCLV;\r\n    }\r\n    \r\n    // Returns the current ETH balance of the TokenPools contract\r\n    function getBalance() \r\n        public\r\n        view\r\n        returns (uint)\r\n    {\r\n        return address(this).balance;\r\n    } \r\n    \r\n    // Returns the total active debt (in CLV) in the system\r\n    function getActiveDebt() \r\n        public\r\n        view\r\n        returns (uint)\r\n    {\r\n        return activePool.getCLV();\r\n    }    \r\n    \r\n    // Returns the total active collateral (in ETH) in the system\r\n    function getActiveColl() \r\n        public\r\n        view\r\n        returns (uint)\r\n    {\r\n        return activePool.getETH();\r\n    } \r\n    \r\n    // Returns the amount of closed debt (in CLV)\r\n    function getClosedDebt() \r\n        public\r\n        view\r\n        returns (uint)\r\n    {\r\n        return defaultPool.getCLV();\r\n    }    \r\n    \r\n    // Returns the amount of closed collateral (in ETH)\r\n    function getClosedColl() \r\n        public\r\n        view\r\n        returns (uint)\r\n    {\r\n        return defaultPool.getETH();\r\n    }  \r\n    \r\n    // Returns the lower value from two given integers\r\n    function getMin(uint a, uint b) \r\n        public\r\n        pure\r\n        returns (uint)\r\n    {\r\n        if (a <= b) return a;\r\n        else return b;\r\n    }    \r\n    \r\n    // Adds the received ETH to the total active collateral\r\n    function addColl()\r\n        public\r\n        payable\r\n        onlyCDPManager\r\n        returns (bool)\r\n    {\r\n        // send ETH to Active Pool and increase its recorded ETH balance \r\n        activePool.increaseETH(msg.value);\r\n\r\n       (bool success, ) = activePoolAddress.call.value(msg.value)(\"\");\r\n       require (success == true, 'PoolManager: transaction to activePool reverted');\r\n       return success;\r\n    }\r\n    \r\n    // Transfers the specified amount of ETH to _account and updates the total active collateral \r\n    function withdrawColl(address payable _account, uint _ETH)\r\n        public\r\n        onlyCDPManager\r\n        returns (bool)\r\n    {\r\n        activePool.sendETH(_account, _ETH);\r\n        return true;\r\n    }\r\n    \r\n    // Issues the specified amount of CLV to _account and increases the total active debt\r\n    function withdrawCLV(address _account, uint _CLV)\r\n        public\r\n        onlyCDPManager\r\n        returns (bool)\r\n    {\r\n        activePool.increaseCLV(_CLV);\r\n        CLV.mint(_account, _CLV);\r\n                \r\n        return true;\r\n    }\r\n    \r\n    // Burns the specified amount of CLV from _account and decreases the total active debt\r\n    function repayCLV(address _account, uint _CLV)\r\n        public\r\n        onlyCDPManager\r\n        returns (bool)\r\n    {\r\n        activePool.decreaseCLV(_CLV);\r\n        CLV.burn(_account, _CLV);\r\n        \r\n        return true;\r\n    }           \r\n    \r\n    // Updates the Active Pool and the Default Pool when a CDP gets closed\r\n    function close(uint _CLV, uint _ETH)\r\n        public\r\n        onlyCDPManager\r\n        returns (bool)\r\n    {\r\n        // Transfer the debt & coll from the Active Pool to the Default Pool\r\n        defaultPool.increaseCLV(_CLV);\r\n        defaultPool.increaseETH(_ETH);\r\n        activePool.decreaseCLV(_CLV);\r\n        activePool.sendETH(defaultPoolAddress, _ETH);\r\n        \r\n        return true;\r\n    }    \r\n    \r\n    // Updates the Active Pool and the Default Pool when a CDP obtains a default share\r\n    function obtainDefaultShare(uint _CLV, uint _ETH)\r\n        public\r\n        onlyCDPManager\r\n        returns (bool)\r\n    {    \r\n        // Transfer the debt & coll from the Default Pool to the Active Pool\r\n        defaultPool.decreaseCLV(_CLV);\r\n        activePool.increaseCLV(_CLV);\r\n        activePool.increaseETH(_ETH);\r\n        defaultPool.sendETH(activePoolAddress, _ETH);\r\n \r\n        return true;\r\n    }\r\n    \r\n    // Burns the received CLV, transfers the redeemed ETH to _account and updates the Active Pool\r\n    function redeemCollateral(address payable _account, uint _CLV, uint _ETH)\r\n        public\r\n        onlyCDPManager\r\n        returns (bool)\r\n    {    \r\n        // Update Active Pool CLV, and send ETH to account\r\n        activePool.decreaseCLV(_CLV);\r\n        activePool.sendETH(_account, _ETH);\r\n        \r\n        CLV.burn(_account, _CLV);\r\n\r\n        return true;\r\n    }    \r\n\r\n    // Deposits the specified amount to the Stability Pool using the algorithm from http://batog.info/papers/scalable-reward-distribution.pdf\r\n    // Can be called directly by anybody, not just by the owner (CDP contract) \r\n    // TODO: Support multiple deposits by the same address\r\n    // TODO: CDP holders which make a deposit should be able to redirect the received ETH to their CDPs\r\n    function depositCLV( uint _amount) \r\n        public\r\n        returns (bool)\r\n    {\r\n        address user = _msgSender();\r\n        require(_amount > 0, \"PoolManager: deposited amount must be larger than 0\");\r\n        require(CLV.balanceOf(user) >= _amount, \"PoolManager: user has insufficient balance\");\r\n        \r\n        // Transfer the CLV tokens from the user to the Stability Pool's address, and update its recorded CLV\r\n        CLV.sendToPool(user, stabilityPoolAddress, _amount);\r\n        // Stability.CLV += _amount;\r\n        stabilityPool.increaseCLV(_amount);\r\n        \r\n        // Record the deposit made by user\r\n        deposit[user] += _amount;\r\n        \r\n        // Record an individual snapshot of the running totals S_CLV and S_ETH for the user\r\n        snapshot[user].CLV = S_CLV;\r\n        snapshot[user].ETH = stabilityPool.getETH();\r\n        \r\n        return true;\r\n    }   \r\n    \r\n    // TODO - rename.  \"offsetAndLiquidate()\" ?\r\n    // Cancels out the specified _debt against the CLV contained in the Stability Pool (as far as possible)  \r\n    // and transfers the CDP's ETH collateral from Active Pool to Stability Pool. \r\n    // Returns the amount of debt & coll that could not be cancelled out.\r\n    // Can only be called via the close(...) and closeCDPs(... ) functions in CDPManager\r\n    function offset(uint _debt, uint _coll)\r\n        public\r\n        payable\r\n        onlyCDPManager\r\n        returns (uint[2] memory) // Note: it would be nicer to return this as a struct, but struct returns are still experimental\r\n    {    \r\n        uint[2] memory remainder;\r\n        \r\n        // When Stability Pool has no CLV, return all debt and coll\r\n        if (stabilityPool.getCLV() == 0) {\r\n            remainder[0] = _debt;\r\n            remainder[1] = _coll;\r\n            return remainder;\r\n        }\r\n        // require(stabilityPool.getCLV() > 0, \"PoolManager: stability pool is empty\");\r\n        \r\n        // If the debt is larger than the deposited CLV, only offset an amount of debt corresponding to the latter\r\n        uint debtToDistribute = getMin(_debt, stabilityPool.getCLV());\r\n        // Determine the amount of collateral to be distributed in proportion to the debt that is distributed\r\n        uint collToDistribute = ( ( (debtToDistribute * DIGITS) / _debt) * _coll) / DIGITS;\r\n        \r\n        // Update the running total S_CLV by adding the ratio between the distributed debt and the CLV in the pool\r\n        S_CLV += (debtToDistribute * DIGITS) / stabilityPool.getCLV();\r\n        // Update the running total S_ETH by adding the ratio between the distributed collateral and the ETH in the pool\r\n        S_ETH += (collToDistribute * DIGITS) / stabilityPool.getETH();\r\n        \r\n        // Cancel the liquidated CLV debt with the CLV in the stability pool\r\n        activePool.decreaseCLV(debtToDistribute);  \r\n        stabilityPool.decreaseCLV(debtToDistribute); \r\n        // Send ETH from Active Pool to Stability Pool\r\n        stabilityPool.increaseETH(collToDistribute); // update recorded ETH balance in Stability Pool\r\n        activePool.sendETH(stabilityPoolAddress, collToDistribute);   // send ether from Active to Stability Pool\r\n        \r\n        // Burn the debt that was successfully offset\r\n        CLV.burn(stabilityPoolAddress, debtToDistribute);\r\n        \r\n        // Return the amount of debt & coll that could not be offset against the Stability Pool due to insufficiency\r\n        remainder[0] = _debt - debtToDistribute;\r\n        remainder[1] = _coll - collToDistribute;\r\n        return remainder;\r\n    }\r\n    \r\n    // Retrieves the caller's funds from the Stability Pool\r\n    // TODO: Support partial withdrawals\r\n    function retrieve() \r\n        public\r\n        returns (bool)\r\n    {   \r\n        address payable user = _msgSender();\r\n\r\n        uint userDeposit = deposit[user];\r\n        uint snapshotETH = snapshot[user].ETH;\r\n        uint snapshotCLV = snapshot[user].CLV;\r\n\r\n        require(userDeposit > 0, \"PoolManager: caller has no deposit\");\r\n        \r\n        // Calculate the CLV and ETH shares to be retrieved according http://batog.info/papers/scalable-reward-distribution.pdf\r\n        // TODO: Check for div/0\r\n        // Problem: Rounding errors lead to results like 666666666666666600 instead of 666666666666666666 \r\n        // TODO: check calculations\r\n        uint CLVShare = userDeposit - (userDeposit * (S_CLV - snapshotCLV)) / DIGITS;\r\n        uint ETHShare = (userDeposit * (S_ETH - snapshotETH)) / DIGITS;\r\n        \r\n        //update user's deposit record\r\n        deposit[user] = 0;\r\n        // TODO: Beware of rounding errors that may lead to underflows\r\n\r\n        /* TODO: Calcs? Shouldn't max withdrawal calculation come earlier, and impact withdrawable CLV and ETH.\r\n        If not enough CLV in pool, withdraw a mixture of CLV and ETH, of equal value to the user's entitlement.\r\n        */\r\n        CLV.returnFromPool(stabilityPoolAddress, user, getMin(CLVShare, stabilityPool.getCLV()));\r\n        stabilityPool.decreaseCLV(CLVShare);\r\n        \r\n        // Return the ether to the caller\r\n         stabilityPool.sendETH(user, ETHShare);\r\n        \r\n        return true;\r\n    }\r\n}    ",
  "sourcePath": "C:\\Users\\Administrator\\Desktop\\Cleverage\\contracts\\PoolManager.sol",
  "compiler": {
    "name": "solc",
    "version": "0.5.12+commit.7709ece9.Emscripten.clang"
  },
  "schemaVersion": "3.0.19",
  "updatedAt": "2019-12-10T20:45:08.793Z",
  "devdoc": {
    "methods": {
      "isOwner()": {
        "details": "Returns true if the caller is the current owner."
      },
      "owner()": {
        "details": "Returns the address of the current owner."
      },
      "renounceOwnership()": {
        "details": "Leaves the contract without owner. It will not be possible to call `onlyOwner` functions anymore. Can only be called by the current owner.     * NOTE: Renouncing ownership will leave the contract without an owner, thereby removing any functionality that is only available to the owner."
      },
      "transferOwnership(address)": {
        "details": "Transfers ownership of the contract to a new account (`newOwner`). Can only be called by the current owner."
      }
    }
  },
  "userdoc": {
    "methods": {}
  }
}