{
  "contractName": "PoolManager",
  "abi": [
    {
      "constant": true,
      "inputs": [],
      "name": "cdpManagerAddress",
      "outputs": [
        {
          "internalType": "address",
          "name": "",
          "type": "address"
        }
      ],
      "payable": false,
      "stateMutability": "view",
      "type": "function"
    },
    {
      "constant": true,
      "inputs": [],
      "name": "stabilityPool",
      "outputs": [
        {
          "internalType": "contract IStabilityPool",
          "name": "",
          "type": "address"
        }
      ],
      "payable": false,
      "stateMutability": "view",
      "type": "function"
    },
    {
      "constant": true,
      "inputs": [],
      "name": "stabilityPoolAddress",
      "outputs": [
        {
          "internalType": "address payable",
          "name": "",
          "type": "address"
        }
      ],
      "payable": false,
      "stateMutability": "view",
      "type": "function"
    },
    {
      "constant": true,
      "inputs": [
        {
          "internalType": "address",
          "name": "",
          "type": "address"
        }
      ],
      "name": "snapshot",
      "outputs": [
        {
          "internalType": "uint256",
          "name": "ETH",
          "type": "uint256"
        },
        {
          "internalType": "uint256",
          "name": "CLV",
          "type": "uint256"
        }
      ],
      "payable": false,
      "stateMutability": "view",
      "type": "function"
    },
    {
      "constant": true,
      "inputs": [],
      "name": "defaultPool",
      "outputs": [
        {
          "internalType": "contract IPool",
          "name": "",
          "type": "address"
        }
      ],
      "payable": false,
      "stateMutability": "view",
      "type": "function"
    },
    {
      "constant": true,
      "inputs": [],
      "name": "S_ETH",
      "outputs": [
        {
          "internalType": "uint256",
          "name": "",
          "type": "uint256"
        }
      ],
      "payable": false,
      "stateMutability": "view",
      "type": "function"
    },
    {
      "constant": true,
      "inputs": [],
      "name": "S_CLV",
      "outputs": [
        {
          "internalType": "uint256",
          "name": "",
          "type": "uint256"
        }
      ],
      "payable": false,
      "stateMutability": "view",
      "type": "function"
    },
    {
      "constant": false,
      "inputs": [],
      "name": "renounceOwnership",
      "outputs": [],
      "payable": false,
      "stateMutability": "nonpayable",
      "type": "function"
    },
    {
      "constant": true,
      "inputs": [],
      "name": "activePool",
      "outputs": [
        {
          "internalType": "contract IPool",
          "name": "",
          "type": "address"
        }
      ],
      "payable": false,
      "stateMutability": "view",
      "type": "function"
    },
    {
      "constant": true,
      "inputs": [],
      "name": "owner",
      "outputs": [
        {
          "internalType": "address",
          "name": "",
          "type": "address"
        }
      ],
      "payable": false,
      "stateMutability": "view",
      "type": "function"
    },
    {
      "constant": true,
      "inputs": [],
      "name": "isOwner",
      "outputs": [
        {
          "internalType": "bool",
          "name": "",
          "type": "bool"
        }
      ],
      "payable": false,
      "stateMutability": "view",
      "type": "function"
    },
    {
      "constant": true,
      "inputs": [],
      "name": "defaultPoolAddress",
      "outputs": [
        {
          "internalType": "address payable",
          "name": "",
          "type": "address"
        }
      ],
      "payable": false,
      "stateMutability": "view",
      "type": "function"
    },
    {
      "constant": true,
      "inputs": [],
      "name": "activePoolAddress",
      "outputs": [
        {
          "internalType": "address payable",
          "name": "",
          "type": "address"
        }
      ],
      "payable": false,
      "stateMutability": "view",
      "type": "function"
    },
    {
      "constant": true,
      "inputs": [
        {
          "internalType": "address",
          "name": "",
          "type": "address"
        }
      ],
      "name": "totalPendingETHGain",
      "outputs": [
        {
          "internalType": "uint256",
          "name": "",
          "type": "uint256"
        }
      ],
      "payable": false,
      "stateMutability": "view",
      "type": "function"
    },
    {
      "constant": true,
      "inputs": [],
      "name": "clvAddress",
      "outputs": [
        {
          "internalType": "address",
          "name": "",
          "type": "address"
        }
      ],
      "payable": false,
      "stateMutability": "view",
      "type": "function"
    },
    {
      "constant": true,
      "inputs": [],
      "name": "priceFeedAddress",
      "outputs": [
        {
          "internalType": "address",
          "name": "",
          "type": "address"
        }
      ],
      "payable": false,
      "stateMutability": "view",
      "type": "function"
    },
    {
      "constant": true,
      "inputs": [
        {
          "internalType": "address",
          "name": "",
          "type": "address"
        }
      ],
      "name": "entitledETHGain",
      "outputs": [
        {
          "internalType": "uint256",
          "name": "",
          "type": "uint256"
        }
      ],
      "payable": false,
      "stateMutability": "view",
      "type": "function"
    },
    {
      "constant": false,
      "inputs": [
        {
          "internalType": "address",
          "name": "newOwner",
          "type": "address"
        }
      ],
      "name": "transferOwnership",
      "outputs": [],
      "payable": false,
      "stateMutability": "nonpayable",
      "type": "function"
    },
    {
      "constant": true,
      "inputs": [
        {
          "internalType": "address",
          "name": "",
          "type": "address"
        }
      ],
      "name": "deposit",
      "outputs": [
        {
          "internalType": "uint256",
          "name": "",
          "type": "uint256"
        }
      ],
      "payable": false,
      "stateMutability": "view",
      "type": "function"
    },
    {
      "constant": true,
      "inputs": [
        {
          "internalType": "address",
          "name": "",
          "type": "address"
        }
      ],
      "name": "totalPendingCLVLoss",
      "outputs": [
        {
          "internalType": "uint256",
          "name": "",
          "type": "uint256"
        }
      ],
      "payable": false,
      "stateMutability": "view",
      "type": "function"
    },
    {
      "inputs": [],
      "payable": false,
      "stateMutability": "nonpayable",
      "type": "constructor"
    },
    {
      "anonymous": false,
      "inputs": [
        {
          "indexed": false,
          "internalType": "address",
          "name": "_newCDPManagerAddress",
          "type": "address"
        }
      ],
      "name": "CDPManagerAddressChanged",
      "type": "event"
    },
    {
      "anonymous": false,
      "inputs": [
        {
          "indexed": false,
          "internalType": "address",
          "name": "_newPriceFeedAddress",
          "type": "address"
        }
      ],
      "name": "PriceFeedAddressChanged",
      "type": "event"
    },
    {
      "anonymous": false,
      "inputs": [
        {
          "indexed": false,
          "internalType": "address",
          "name": "_newCLVTokenAddress",
          "type": "address"
        }
      ],
      "name": "CLVTokenAddressChanged",
      "type": "event"
    },
    {
      "anonymous": false,
      "inputs": [
        {
          "indexed": false,
          "internalType": "address",
          "name": "_newStabilityPoolAddress",
          "type": "address"
        }
      ],
      "name": "StabilityPoolAddressChanged",
      "type": "event"
    },
    {
      "anonymous": false,
      "inputs": [
        {
          "indexed": false,
          "internalType": "address",
          "name": "_newActivePoolAddress",
          "type": "address"
        }
      ],
      "name": "ActivePoolAddressChanged",
      "type": "event"
    },
    {
      "anonymous": false,
      "inputs": [
        {
          "indexed": false,
          "internalType": "address",
          "name": "_newDefaultPoolAddress",
          "type": "address"
        }
      ],
      "name": "DefaultPoolAddressChanged",
      "type": "event"
    },
    {
      "anonymous": false,
      "inputs": [
        {
          "indexed": false,
          "internalType": "uint256",
          "name": "_CLV",
          "type": "uint256"
        },
        {
          "indexed": false,
          "internalType": "uint256",
          "name": "_ETH",
          "type": "uint256"
        }
      ],
      "name": "UserSnapshotUpdated",
      "type": "event"
    },
    {
      "anonymous": false,
      "inputs": [
        {
          "indexed": false,
          "internalType": "uint256",
          "name": "_S_CLV",
          "type": "uint256"
        }
      ],
      "name": "S_CLVUpdated",
      "type": "event"
    },
    {
      "anonymous": false,
      "inputs": [
        {
          "indexed": false,
          "internalType": "uint256",
          "name": "_S_ETH",
          "type": "uint256"
        }
      ],
      "name": "S_ETHUpdated",
      "type": "event"
    },
    {
      "anonymous": false,
      "inputs": [
        {
          "indexed": false,
          "internalType": "address",
          "name": "_user",
          "type": "address"
        },
        {
          "indexed": false,
          "internalType": "uint256",
          "name": "_amount",
          "type": "uint256"
        }
      ],
      "name": "UserDepositChanged",
      "type": "event"
    },
    {
      "anonymous": false,
      "inputs": [
        {
          "indexed": false,
          "internalType": "address",
          "name": "claimant",
          "type": "address"
        },
        {
          "indexed": false,
          "internalType": "uint256",
          "name": "claimantReward",
          "type": "uint256"
        },
        {
          "indexed": false,
          "internalType": "address",
          "name": "depositor",
          "type": "address"
        },
        {
          "indexed": false,
          "internalType": "uint256",
          "name": "remainder",
          "type": "uint256"
        }
      ],
      "name": "OverstayPenaltyClaimed",
      "type": "event"
    },
    {
      "anonymous": false,
      "inputs": [
        {
          "indexed": true,
          "internalType": "address",
          "name": "previousOwner",
          "type": "address"
        },
        {
          "indexed": true,
          "internalType": "address",
          "name": "newOwner",
          "type": "address"
        }
      ],
      "name": "OwnershipTransferred",
      "type": "event"
    },
    {
      "constant": false,
      "inputs": [
        {
          "internalType": "address",
          "name": "_cdpManagerAddress",
          "type": "address"
        }
      ],
      "name": "setCDPManagerAddress",
      "outputs": [],
      "payable": false,
      "stateMutability": "nonpayable",
      "type": "function"
    },
    {
      "constant": false,
      "inputs": [
        {
          "internalType": "address",
          "name": "_priceFeedAddress",
          "type": "address"
        }
      ],
      "name": "setPriceFeed",
      "outputs": [],
      "payable": false,
      "stateMutability": "nonpayable",
      "type": "function"
    },
    {
      "constant": false,
      "inputs": [
        {
          "internalType": "address",
          "name": "_CLVAddress",
          "type": "address"
        }
      ],
      "name": "setCLVToken",
      "outputs": [],
      "payable": false,
      "stateMutability": "nonpayable",
      "type": "function"
    },
    {
      "constant": false,
      "inputs": [
        {
          "internalType": "address payable",
          "name": "_stabilityPoolAddress",
          "type": "address"
        }
      ],
      "name": "setStabilityPool",
      "outputs": [],
      "payable": false,
      "stateMutability": "nonpayable",
      "type": "function"
    },
    {
      "constant": false,
      "inputs": [
        {
          "internalType": "address payable",
          "name": "_activePoolAddress",
          "type": "address"
        }
      ],
      "name": "setActivePool",
      "outputs": [],
      "payable": false,
      "stateMutability": "nonpayable",
      "type": "function"
    },
    {
      "constant": false,
      "inputs": [
        {
          "internalType": "address payable",
          "name": "_defaultPoolAddress",
          "type": "address"
        }
      ],
      "name": "setDefaultPool",
      "outputs": [],
      "payable": false,
      "stateMutability": "nonpayable",
      "type": "function"
    },
    {
      "constant": true,
      "inputs": [
        {
          "internalType": "uint256",
          "name": "x",
          "type": "uint256"
        },
        {
          "internalType": "uint256",
          "name": "y",
          "type": "uint256"
        },
        {
          "internalType": "uint256",
          "name": "z",
          "type": "uint256"
        }
      ],
      "name": "getAccurateMulDiv",
      "outputs": [
        {
          "internalType": "uint256",
          "name": "",
          "type": "uint256"
        }
      ],
      "payable": false,
      "stateMutability": "pure",
      "type": "function"
    },
    {
      "constant": true,
      "inputs": [],
      "name": "getTCR",
      "outputs": [
        {
          "internalType": "uint256",
          "name": "",
          "type": "uint256"
        }
      ],
      "payable": false,
      "stateMutability": "view",
      "type": "function"
    },
    {
      "constant": true,
      "inputs": [],
      "name": "getBalance",
      "outputs": [
        {
          "internalType": "uint256",
          "name": "",
          "type": "uint256"
        }
      ],
      "payable": false,
      "stateMutability": "view",
      "type": "function"
    },
    {
      "constant": true,
      "inputs": [],
      "name": "getActiveDebt",
      "outputs": [
        {
          "internalType": "uint256",
          "name": "",
          "type": "uint256"
        }
      ],
      "payable": false,
      "stateMutability": "view",
      "type": "function"
    },
    {
      "constant": true,
      "inputs": [],
      "name": "getActiveColl",
      "outputs": [
        {
          "internalType": "uint256",
          "name": "",
          "type": "uint256"
        }
      ],
      "payable": false,
      "stateMutability": "view",
      "type": "function"
    },
    {
      "constant": true,
      "inputs": [],
      "name": "getClosedDebt",
      "outputs": [
        {
          "internalType": "uint256",
          "name": "",
          "type": "uint256"
        }
      ],
      "payable": false,
      "stateMutability": "view",
      "type": "function"
    },
    {
      "constant": true,
      "inputs": [],
      "name": "getClosedColl",
      "outputs": [
        {
          "internalType": "uint256",
          "name": "",
          "type": "uint256"
        }
      ],
      "payable": false,
      "stateMutability": "view",
      "type": "function"
    },
    {
      "constant": true,
      "inputs": [
        {
          "internalType": "uint256",
          "name": "a",
          "type": "uint256"
        },
        {
          "internalType": "uint256",
          "name": "b",
          "type": "uint256"
        }
      ],
      "name": "getMin",
      "outputs": [
        {
          "internalType": "uint256",
          "name": "",
          "type": "uint256"
        }
      ],
      "payable": false,
      "stateMutability": "pure",
      "type": "function"
    },
    {
      "constant": false,
      "inputs": [],
      "name": "addColl",
      "outputs": [
        {
          "internalType": "bool",
          "name": "",
          "type": "bool"
        }
      ],
      "payable": true,
      "stateMutability": "payable",
      "type": "function"
    },
    {
      "constant": false,
      "inputs": [
        {
          "internalType": "address payable",
          "name": "_account",
          "type": "address"
        },
        {
          "internalType": "uint256",
          "name": "_ETH",
          "type": "uint256"
        }
      ],
      "name": "withdrawColl",
      "outputs": [
        {
          "internalType": "bool",
          "name": "",
          "type": "bool"
        }
      ],
      "payable": false,
      "stateMutability": "nonpayable",
      "type": "function"
    },
    {
      "constant": false,
      "inputs": [
        {
          "internalType": "address",
          "name": "_account",
          "type": "address"
        },
        {
          "internalType": "uint256",
          "name": "_CLV",
          "type": "uint256"
        }
      ],
      "name": "withdrawCLV",
      "outputs": [
        {
          "internalType": "bool",
          "name": "",
          "type": "bool"
        }
      ],
      "payable": false,
      "stateMutability": "nonpayable",
      "type": "function"
    },
    {
      "constant": false,
      "inputs": [
        {
          "internalType": "address",
          "name": "_account",
          "type": "address"
        },
        {
          "internalType": "uint256",
          "name": "_CLV",
          "type": "uint256"
        }
      ],
      "name": "repayCLV",
      "outputs": [
        {
          "internalType": "bool",
          "name": "",
          "type": "bool"
        }
      ],
      "payable": false,
      "stateMutability": "nonpayable",
      "type": "function"
    },
    {
      "constant": false,
      "inputs": [
        {
          "internalType": "uint256",
          "name": "_CLV",
          "type": "uint256"
        },
        {
          "internalType": "uint256",
          "name": "_ETH",
          "type": "uint256"
        }
      ],
      "name": "close",
      "outputs": [
        {
          "internalType": "bool",
          "name": "",
          "type": "bool"
        }
      ],
      "payable": false,
      "stateMutability": "nonpayable",
      "type": "function"
    },
    {
      "constant": false,
      "inputs": [
        {
          "internalType": "uint256",
          "name": "_CLV",
          "type": "uint256"
        },
        {
          "internalType": "uint256",
          "name": "_ETH",
          "type": "uint256"
        }
      ],
      "name": "obtainDefaultShare",
      "outputs": [
        {
          "internalType": "bool",
          "name": "",
          "type": "bool"
        }
      ],
      "payable": false,
      "stateMutability": "nonpayable",
      "type": "function"
    },
    {
      "constant": false,
      "inputs": [
        {
          "internalType": "address payable",
          "name": "_account",
          "type": "address"
        },
        {
          "internalType": "uint256",
          "name": "_CLV",
          "type": "uint256"
        },
        {
          "internalType": "uint256",
          "name": "_ETH",
          "type": "uint256"
        }
      ],
      "name": "redeemCollateral",
      "outputs": [
        {
          "internalType": "bool",
          "name": "",
          "type": "bool"
        }
      ],
      "payable": false,
      "stateMutability": "nonpayable",
      "type": "function"
    },
    {
      "constant": false,
      "inputs": [
        {
          "internalType": "uint256",
          "name": "_debt",
          "type": "uint256"
        },
        {
          "internalType": "uint256",
          "name": "_coll",
          "type": "uint256"
        }
      ],
      "name": "offset",
      "outputs": [
        {
          "internalType": "uint256[2]",
          "name": "",
          "type": "uint256[2]"
        }
      ],
      "payable": true,
      "stateMutability": "payable",
      "type": "function"
    },
    {
      "constant": false,
      "inputs": [
        {
          "internalType": "uint256",
          "name": "_amount",
          "type": "uint256"
        }
      ],
      "name": "provideToSP",
      "outputs": [
        {
          "internalType": "bool",
          "name": "",
          "type": "bool"
        }
      ],
      "payable": false,
      "stateMutability": "nonpayable",
      "type": "function"
    },
    {
      "constant": false,
      "inputs": [
        {
          "internalType": "uint256",
          "name": "_amount",
          "type": "uint256"
        }
      ],
      "name": "withdrawFromSP",
      "outputs": [
        {
          "internalType": "bool",
          "name": "",
          "type": "bool"
        }
      ],
      "payable": false,
      "stateMutability": "nonpayable",
      "type": "function"
    },
    {
      "constant": false,
      "inputs": [],
      "name": "withdrawFromSPtoCDP",
      "outputs": [
        {
          "internalType": "bool",
          "name": "",
          "type": "bool"
        }
      ],
      "payable": false,
      "stateMutability": "nonpayable",
      "type": "function"
    },
    {
      "constant": false,
      "inputs": [
        {
          "internalType": "address payable",
          "name": "_address",
          "type": "address"
        }
      ],
      "name": "withdrawPenaltyFromSP",
      "outputs": [
        {
          "internalType": "bool",
          "name": "",
          "type": "bool"
        }
      ],
      "payable": false,
      "stateMutability": "nonpayable",
      "type": "function"
    }
  ],
  "bytecode": "0x6080604052600154600280546001600160a01b0319166001600160a01b039092169190911790553480156200003357600080fd5b50620000476001600160e01b036200009516565b600080546001600160a01b0319166001600160a01b03928316178082556040519216917f8be0079c531659141344cd1fd0a4f28419497f9722a3daafe3b4186f6b6457e0908290a362000099565b3390565b613b9380620000a96000396000f3fe6080604052600436106102fd5760003560e01c80638da5cb5b1161018f578063d31cadf6116100e1578063f2fde38b1161008a578063f568dd8e11610064578063f568dd8e1461097a578063f7883a8b146109b3578063fefb4c58146109e6576102fd565b8063f2fde38b146108e1578063f340fa0114610914578063f3f9b55814610947576102fd565b8063e710bb88116100bb578063e710bb8814610845578063ef6151a614610878578063efb028c3146108ab576102fd565b8063d31cadf614610806578063d62c89c51461081b578063e0abca0b14610830576102fd565b8063afc7f50f11610143578063b72d1eee1161011d578063b72d1eee14610785578063b7a2a463146107b8578063b96c5181146107cd576102fd565b8063afc7f50f14610728578063b08bc7221461075b578063b620115d14610770576102fd565b80639594897d116101745780639594897d146106cb57806398d721e0146106e0578063aac1846f14610713576102fd565b80638da5cb5b146106a15780638f32d59b146106b6576102fd565b80633cc7422511610253578063715018a6116101fc5780637cb19fe8116101d65780637cb19fe81461061a5780637f7dde4a146106595780638c192ed41461066e576102fd565b8063715018a6146105a6578063724e78da146105bd57806378c77a24146105f0576102fd565b8063697b93fd1161022d578063697b93fd146105675780636bad51981461057c578063708249b314610591576102fd565b80633cc74225146104f25780634d5bc11114610507578063596c897614610537576102fd565b80631f549907116102b55780632e54bf951161028f5780632e54bf95146104315780632e90bbd81461045b578063335525ad14610494576102fd565b80631f549907146103b457806325a2e6e7146103c957806326512160146103e5576102fd565b80630b622ab2116102e65780630b622ab2146103485780630fd95db51461035d57806312065fe01461039f576102fd565b806302f6567f14610302578063048c661d14610333575b600080fd5b34801561030e57600080fd5b50610317610a19565b604080516001600160a01b039092168252519081900360200190f35b34801561033f57600080fd5b50610317610a28565b34801561035457600080fd5b50610317610a37565b34801561036957600080fd5b5061038d6004803603604081101561038057600080fd5b5080359060200135610a46565b60408051918252519081900360200190f35b3480156103ab57600080fd5b5061038d610a5f565b3480156103c057600080fd5b5061038d610a65565b6103d1610adb565b604080519115158252519081900360200190f35b3480156103f157600080fd5b506104186004803603602081101561040857600080fd5b50356001600160a01b0316610bd4565b6040805192835260208301919091528051918290030190f35b34801561043d57600080fd5b506103d16004803603602081101561045457600080fd5b5035610bed565b34801561046757600080fd5b506103d16004803603604081101561047e57600080fd5b506001600160a01b038135169060200135610ce3565b6104b7600480360360408110156104aa57600080fd5b5080359060200135610e48565b6040518082600260200280838360005b838110156104df5781810151838201526020016104c7565b5050505090500191505060405180910390f35b3480156104fe57600080fd5b50610317611449565b34801561051357600080fd5b506103d16004803603604081101561052a57600080fd5b5080359060200135611458565b34801561054357600080fd5b506103d16004803603604081101561055a57600080fd5b50803590602001356115d7565b34801561057357600080fd5b5061038d611756565b34801561058857600080fd5b5061038d61179b565b34801561059d57600080fd5b5061038d6117a1565b3480156105b257600080fd5b506105bb6117a7565b005b3480156105c957600080fd5b506105bb600480360360208110156105e057600080fd5b50356001600160a01b031661184a565b3480156105fc57600080fd5b506103d16004803603602081101561061357600080fd5b5035611902565b34801561062657600080fd5b506103d16004803603606081101561063d57600080fd5b506001600160a01b03813516906020810135906040013561193f565b34801561066557600080fd5b50610317611b0e565b34801561067a57600080fd5b506105bb6004803603602081101561069157600080fd5b50356001600160a01b0316611b1d565b3480156106ad57600080fd5b50610317611bdd565b3480156106c257600080fd5b506103d1611bec565b3480156106d757600080fd5b5061038d611c10565b3480156106ec57600080fd5b506105bb6004803603602081101561070357600080fd5b50356001600160a01b0316611c55565b34801561071f57600080fd5b50610317611d15565b34801561073457600080fd5b506103d16004803603602081101561074b57600080fd5b50356001600160a01b0316611d24565b34801561076757600080fd5b506103176120f2565b34801561077c57600080fd5b5061038d612101565b34801561079157600080fd5b5061038d600480360360208110156107a857600080fd5b50356001600160a01b0316612356565b3480156107c457600080fd5b5061038d612368565b3480156107d957600080fd5b506103d1600480360360408110156107f057600080fd5b506001600160a01b0381351690602001356123ad565b34801561081257600080fd5b506103176124c4565b34801561082757600080fd5b506103d16124d3565b34801561083c57600080fd5b506103176125b0565b34801561085157600080fd5b5061038d6004803603602081101561086857600080fd5b50356001600160a01b03166125bf565b34801561088457600080fd5b506105bb6004803603602081101561089b57600080fd5b50356001600160a01b03166125d1565b3480156108b757600080fd5b5061038d600480360360608110156108ce57600080fd5b5080359060208101359060400135612689565b3480156108ed57600080fd5b506105bb6004803603602081101561090457600080fd5b50356001600160a01b031661271e565b34801561092057600080fd5b5061038d6004803603602081101561093757600080fd5b50356001600160a01b0316612783565b34801561095357600080fd5b5061038d6004803603602081101561096a57600080fd5b50356001600160a01b0316612795565b34801561098657600080fd5b506103d16004803603604081101561099d57600080fd5b506001600160a01b0381351690602001356127a7565b3480156109bf57600080fd5b506105bb600480360360208110156109d657600080fd5b50356001600160a01b0316612859565b3480156109f257600080fd5b506105bb60048036036020811015610a0957600080fd5b50356001600160a01b0316612919565b6001546001600160a01b031681565b6007546001600160a01b031681565b6008546001600160a01b031681565b6000818311610a56575081610a59565b50805b92915050565b30315b90565b60095460408051630a7b61df60e11b815290516000926001600160a01b0316916314f6c3be916004808301926020929190829003018186803b158015610aaa57600080fd5b505afa158015610abe573d6000803e3d6000fd5b505050506040513d6020811015610ad457600080fd5b5051905090565b6001546000906001600160a01b0316610af26129d1565b6001600160a01b031614610b375760405162461bcd60e51b8152600401808060200182810382526029815260200180613b366029913960400191505060405180910390fd5b600a546040516000916001600160a01b03169034908381818185875af1925050503d8060008114610b84576040519150601f19603f3d011682016040523d82523d6000602084013e610b89565b606091505b5090915050600181151514610bcf5760405162461bcd60e51b815260040180806020018281038252602f815260200180613a1c602f913960400191505060405180910390fd5b905090565b6010602052600090815260409020805460019091015482565b600080610bf86129d1565b6001600160a01b0381166000908152600d6020526040812054919250610c1d836129d5565b905080821015610c5e5760405162461bcd60e51b81526004018080602001828103825260388152602001806139e46038913960400191505060405180910390fd5b60008211610c9d5760405162461bcd60e51b815260040180806020018281038252602e815260200180613aa9602e913960400191505060405180910390fd5b610ca5613969565b610cae84612aaf565b8051909150600081881115610cc557506000610cca565b508681035b610cd43382612e4f565b50600198975050505050505050565b6001546000906001600160a01b0316610cfa6129d1565b6001600160a01b031614610d3f5760405162461bcd60e51b8152600401808060200182810382526029815260200180613b366029913960400191505060405180910390fd5b60095460408051634de7363160e01b81526004810185905290516001600160a01b0390921691634de736319160248082019260009290919082900301818387803b158015610d8c57600080fd5b505af1158015610da0573d6000803e3d6000fd5b5050600554604080517f40c10f190000000000000000000000000000000000000000000000000000000081526001600160a01b0388811660048301526024820188905291519190921693506340c10f19925060448083019260209291908290030181600087803b158015610e1357600080fd5b505af1158015610e27573d6000803e3d6000fd5b505050506040513d6020811015610e3d57600080fd5b506001949350505050565b610e50613969565b6001546001600160a01b0316610e646129d1565b6001600160a01b031614610ea95760405162461bcd60e51b8152600401808060200182810382526029815260200180613b366029913960400191505060405180910390fd5b610eb1613969565b600754604080517fb739777600000000000000000000000000000000000000000000000000000000815290516000926001600160a01b03169163b7397776916004808301926020929190829003018186803b158015610f0f57600080fd5b505afa158015610f23573d6000803e3d6000fd5b505050506040513d6020811015610f3957600080fd5b50516007546040805163e1cf19c160e01b815290519293506000926001600160a01b039092169163e1cf19c191600480820192602092909190829003018186803b158015610f8657600080fd5b505afa158015610f9a573d6000803e3d6000fd5b505050506040513d6020811015610fb057600080fd5b50519050801580610fbf575081155b15610fd7575050838152602081018390529050610a59565b6000610fe38783610a46565b9050600073__DeciMath______________________________63563d4c2383898b6040518463ffffffff1660e01b815260040180848152602001838152602001828152602001935050505060206040518083038186803b15801561104657600080fd5b505af415801561105a573d6000803e3d6000fd5b505050506040513d602081101561107057600080fd5b5051604080517f563d4c2300000000000000000000000000000000000000000000000000000000815260048101859052670de0b6b3a764000060248201526044810187905290519192506111349173__DeciMath______________________________9163563d4c23916064808301926020929190829003018186803b1580156110f957600080fd5b505af415801561110d573d6000803e3d6000fd5b505050506040513d602081101561112357600080fd5b5051600e549063ffffffff6131bf16565b600e81905560408051918252517f5c256972fe7489f98ce15d224bf8dab74d0e19cc6aa966608916a15f6f60d0f79181900360200190a161121073__DeciMath______________________________63563d4c2383670de0b6b3a7640000886040518463ffffffff1660e01b815260040180848152602001838152602001828152602001935050505060206040518083038186803b1580156111d557600080fd5b505af41580156111e9573d6000803e3d6000fd5b505050506040513d60208110156111ff57600080fd5b5051600f549063ffffffff6131bf16565b600f81905560408051918252517f929e5fb9f1edf861ea5c93ad246b11b366de90467ba54a72bcb6f04e4d7195919181900360200190a16009546040805163e9c8395760e01b81526004810185905290516001600160a01b039092169163e9c839579160248082019260009290919082900301818387803b15801561129457600080fd5b505af11580156112a8573d6000803e3d6000fd5b50506007546040805163e9c8395760e01b81526004810187905290516001600160a01b03909216935063e9c83957925060248082019260009290919082900301818387803b1580156112f957600080fd5b505af115801561130d573d6000803e3d6000fd5b5050600954600854604080516364a197f360e01b81526001600160a01b0392831660048201526024810187905290519190921693506364a197f3925060448083019260209291908290030181600087803b15801561136a57600080fd5b505af115801561137e573d6000803e3d6000fd5b505050506040513d602081101561139457600080fd5b505060055460085460408051632770a7eb60e21b81526001600160a01b0392831660048201526024810186905290519190921691639dc29fac9160448083019260209291908290030181600087803b1580156113ef57600080fd5b505af1158015611403573d6000803e3d6000fd5b505050506040513d602081101561141957600080fd5b5061142c9050888363ffffffff61322016565b85526114388782613220565b602086015250929695505050505050565b600b546001600160a01b031681565b6001546000906001600160a01b031661146f6129d1565b6001600160a01b0316146114b45760405162461bcd60e51b8152600401808060200182810382526029815260200180613b366029913960400191505060405180910390fd5b600b546040805163e9c8395760e01b81526004810186905290516001600160a01b039092169163e9c839579160248082019260009290919082900301818387803b15801561150157600080fd5b505af1158015611515573d6000803e3d6000fd5b505060095460408051634de7363160e01b81526004810188905290516001600160a01b039092169350634de73631925060248082019260009290919082900301818387803b15801561156657600080fd5b505af115801561157a573d6000803e3d6000fd5b5050600b54600a54604080516364a197f360e01b81526001600160a01b0392831660048201526024810188905290519190921693506364a197f3925060448083019260209291908290030181600087803b158015610e1357600080fd5b6001546000906001600160a01b03166115ee6129d1565b6001600160a01b0316146116335760405162461bcd60e51b8152600401808060200182810382526029815260200180613b366029913960400191505060405180910390fd5b600b5460408051634de7363160e01b81526004810186905290516001600160a01b0390921691634de736319160248082019260009290919082900301818387803b15801561168057600080fd5b505af1158015611694573d6000803e3d6000fd5b50506009546040805163e9c8395760e01b81526004810188905290516001600160a01b03909216935063e9c83957925060248082019260009290919082900301818387803b1580156116e557600080fd5b505af11580156116f9573d6000803e3d6000fd5b5050600954600c54604080516364a197f360e01b81526001600160a01b0392831660048201526024810188905290519190921693506364a197f3925060448083019260209291908290030181600087803b158015610e1357600080fd5b6009546040805163e1cf19c160e01b815290516000926001600160a01b03169163e1cf19c1916004808301926020929190829003018186803b158015610aaa57600080fd5b600f5481565b600e5481565b6117af611bec565b611800576040805162461bcd60e51b815260206004820181905260248201527f4f776e61626c653a2063616c6c6572206973206e6f7420746865206f776e6572604482015290519081900360640190fd5b600080546040516001600160a01b03909116907f8be0079c531659141344cd1fd0a4f28419497f9722a3daafe3b4186f6b6457e0908390a3600080546001600160a01b0319169055565b611852611bec565b6118a3576040805162461bcd60e51b815260206004820181905260248201527f4f776e61626c653a2063616c6c6572206973206e6f7420746865206f776e6572604482015290519081900360640190fd5b600480546001600160a01b0383166001600160a01b03199182168117909255600380549091168217905560408051918252517f8c537274438aa850a330284665d81a85dd38267d09e4050d416bfc94142db2649181900360200190a150565b60008061190d6129d1565b9050611917613969565b61192082612aaf565b80519091508481016119323382612e4f565b5060019695505050505050565b6001546000906001600160a01b03166119566129d1565b6001600160a01b03161461199b5760405162461bcd60e51b8152600401808060200182810382526029815260200180613b366029913960400191505060405180910390fd5b6009546040805163e9c8395760e01b81526004810186905290516001600160a01b039092169163e9c839579160248082019260009290919082900301818387803b1580156119e857600080fd5b505af11580156119fc573d6000803e3d6000fd5b5050600954604080516364a197f360e01b81526001600160a01b0389811660048301526024820188905291519190921693506364a197f3925060448083019260209291908290030181600087803b158015611a5657600080fd5b505af1158015611a6a573d6000803e3d6000fd5b505050506040513d6020811015611a8057600080fd5b505060055460408051632770a7eb60e21b81526001600160a01b0387811660048301526024820187905291519190921691639dc29fac9160448083019260209291908290030181600087803b158015611ad857600080fd5b505af1158015611aec573d6000803e3d6000fd5b505050506040513d6020811015611b0257600080fd5b50600195945050505050565b6009546001600160a01b031681565b611b25611bec565b611b76576040805162461bcd60e51b815260206004820181905260248201527f4f776e61626c653a2063616c6c6572206973206e6f7420746865206f776e6572604482015290519081900360640190fd5b600c80546001600160a01b038084166001600160a01b0319928316811793849055600b80549093169390911692909217905560408051918252517f5ee0cae2f063ed938bb55046f6a932fb6ae792bf43624806bb90abe68a50be9b9181900360200190a150565b6000546001600160a01b031690565b600080546001600160a01b0316611c016129d1565b6001600160a01b031614905090565b600b546040805163e1cf19c160e01b815290516000926001600160a01b03169163e1cf19c1916004808301926020929190829003018186803b158015610aaa57600080fd5b611c5d611bec565b611cae576040805162461bcd60e51b815260206004820181905260248201527f4f776e61626c653a2063616c6c6572206973206e6f7420746865206f776e6572604482015290519081900360640190fd5b600880546001600160a01b038084166001600160a01b0319928316811793849055600780549093169390911692909217905560408051918252517f82966d27eea39b038ee0fa30cd16532bb24f6e65d31cb58fb227aa5766cdcc7f9181900360200190a150565b600c546001600160a01b031681565b600080611d2f6129d1565b9050826001600160a01b038083169082161415611d7d5760405162461bcd60e51b81526004018080602001828103825260368152602001806139ae6036913960400191505060405180910390fd5b6000611d88826129d5565b6001600160a01b0383166000908152600d6020526040902054909150808211611de25760405162461bcd60e51b8152600401808060200182810382526029815260200180613a4b6029913960400191505060405180910390fd5b6000611ded84613262565b9050600073__DeciMath______________________________63563d4c2384670de0b6b3a7640000876040518463ffffffff1660e01b815260040180848152602001838152602001828152602001935050505060206040518083038186803b158015611e5857600080fd5b505af4158015611e6c573d6000803e3d6000fd5b505050506040513d6020811015611e8257600080fd5b505190506000611ec0670de0b6b3a7640000611eb4611ea7828663ffffffff61322016565b869063ffffffff61329b16565b9063ffffffff6132f416565b90506000611ed4848363ffffffff61322016565b6001600160a01b0388166000818152600d60208181526040808420848155600e5460108452948290206001810195909555600f54909455918152915481519384529183019190915280519293507fbce78369dccab09eec1986f4d409ab09ffbb47d65423e5148fcf98411c5111c992918290030190a17f3ad3a0af1c72b834ff87f9409d7124fd7d9b306560756548477325e6e09f5055600e54600f54604051808381526020018281526020019250505060405180910390a1600754604080516364a197f360e01b81526001600160a01b038b8116600483015260248201869052915191909216916364a197f39160448083019260209291908290030181600087803b158015611fe357600080fd5b505af1158015611ff7573d6000803e3d6000fd5b505050506040513d602081101561200d57600080fd5b5050600754604080516364a197f360e01b81526001600160a01b038a8116600483015260248201859052915191909216916364a197f39160448083019260209291908290030181600087803b15801561206557600080fd5b505af1158015612079573d6000803e3d6000fd5b505050506040513d602081101561208f57600080fd5b5050604080516001600160a01b03808b168252602082018590528916818301526060810183905290517f719a419f2a63c458272234c889194ae6dad9bf9b24d69cef17912f087ac8a6a89181900360800190a15060019998505050505050505050565b600a546001600160a01b031681565b600080600960009054906101000a90046001600160a01b03166001600160a01b03166314f6c3be6040518163ffffffff1660e01b815260040160206040518083038186803b15801561215257600080fd5b505afa158015612166573d6000803e3d6000fd5b505050506040513d602081101561217c57600080fd5b50516009546040805163e1cf19c160e01b815290519293506000926001600160a01b039092169163e1cf19c191600480820192602092909190829003018186803b1580156121c957600080fd5b505afa1580156121dd573d6000803e3d6000fd5b505050506040513d60208110156121f357600080fd5b5051600354604080517f98d5fdca00000000000000000000000000000000000000000000000000000000815290519293506000926001600160a01b03909216916398d5fdca91600480820192602092909190829003018186803b15801561225957600080fd5b505afa15801561226d573d6000803e3d6000fd5b505050506040513d602081101561228357600080fd5b5051905082158015612293575081155b156122a45760019350505050610a62565b82158015906122b1575081155b156122c3576000199350505050610a62565b73__DeciMath______________________________63563d4c238483856040518463ffffffff1660e01b815260040180848152602001838152602001828152602001935050505060206040518083038186803b15801561232257600080fd5b505af4158015612336573d6000803e3d6000fd5b505050506040513d602081101561234c57600080fd5b5051935050505090565b60126020526000908152604090205481565b600b5460408051630a7b61df60e11b815290516000926001600160a01b0316916314f6c3be916004808301926020929190829003018186803b158015610aaa57600080fd5b6001546000906001600160a01b03166123c46129d1565b6001600160a01b0316146124095760405162461bcd60e51b8152600401808060200182810382526029815260200180613b366029913960400191505060405180910390fd5b6009546040805163e9c8395760e01b81526004810185905290516001600160a01b039092169163e9c839579160248082019260009290919082900301818387803b15801561245657600080fd5b505af115801561246a573d6000803e3d6000fd5b505060055460408051632770a7eb60e21b81526001600160a01b038881166004830152602482018890529151919092169350639dc29fac925060448083019260209291908290030181600087803b158015610e1357600080fd5b6006546001600160a01b031681565b6000806124de6129d1565b6001600160a01b0381166000908152600d6020526040812054919250612503836129d5565b9050808210156125445760405162461bcd60e51b81526004018080602001828103825260388152602001806139e46038913960400191505060405180910390fd5b600082116125835760405162461bcd60e51b815260040180806020018281038252602e815260200180613aa9602e913960400191505060405180910390fd5b61258b613969565b61259484613336565b80519091506125a33382612e4f565b5060019550505050505090565b6004546001600160a01b031681565b60136020526000908152604090205481565b6125d9611bec565b61262a576040805162461bcd60e51b815260206004820181905260248201527f4f776e61626c653a2063616c6c6572206973206e6f7420746865206f776e6572604482015290519081900360640190fd5b600180546001600160a01b0383166001600160a01b03199182168117909255600280549091168217905560408051918252517f0addbd30df51ac41ccaf56a058c50522fbdc092b4e2ec8b829b29ad6716bd0979181900360200190a150565b600073__DeciMath______________________________63563d4c238585856040518463ffffffff1660e01b815260040180848152602001838152602001828152602001935050505060206040518083038186803b1580156126ea57600080fd5b505af41580156126fe573d6000803e3d6000fd5b505050506040513d602081101561271457600080fd5b5051949350505050565b612726611bec565b612777576040805162461bcd60e51b815260206004820181905260248201527f4f776e61626c653a2063616c6c6572206973206e6f7420746865206f776e6572604482015290519081900360640190fd5b612780816137cd565b50565b600d6020526000908152604090205481565b60116020526000908152604090205481565b6001546000906001600160a01b03166127be6129d1565b6001600160a01b0316146128035760405162461bcd60e51b8152600401808060200182810382526029815260200180613b366029913960400191505060405180910390fd5b600954604080516364a197f360e01b81526001600160a01b03868116600483015260248201869052915191909216916364a197f39160448083019260209291908290030181600087803b158015610e1357600080fd5b612861611bec565b6128b2576040805162461bcd60e51b815260206004820181905260248201527f4f776e61626c653a2063616c6c6572206973206e6f7420746865206f776e6572604482015290519081900360640190fd5b600a80546001600160a01b038084166001600160a01b0319928316811793849055600980549093169390911692909217905560408051918252517f78f058b189175430c48dc02699e3a0031ea4ff781536dc2fab847de4babdd8829181900360200190a150565b612921611bec565b612972576040805162461bcd60e51b815260206004820181905260248201527f4f776e61626c653a2063616c6c6572206973206e6f7420746865206f776e6572604482015290519081900360640190fd5b600680546001600160a01b0383166001600160a01b03199182168117909255600580549091168217905560408051918252517f373a23842c9bfba0a655597bb13c6493895da5266bd6617086a73f8dcfe2ae709181900360200190a150565b3390565b6001600160a01b0381166000908152600d60209081526040808320546010909252822060010154600e548390612a11908363ffffffff61322016565b905073__DeciMath______________________________63563d4c238483670de0b6b3a76400006040518463ffffffff1660e01b815260040180848152602001838152602001828152602001935050505060206040518083038186803b158015612a7a57600080fd5b505af4158015612a8e573d6000803e3d6000fd5b505050506040513d6020811015612aa457600080fd5b505195945050505050565b612ab7613969565b6001600160a01b0382166000908152600d602052604081205490612ada84613262565b90506000612ae7856129d5565b9050600083821115612afb57506000612b00565b508083035b6001600160a01b0386166000818152600d60208181526040808420848155600e5460108452948290206001810195909555600f54909455918152915481519384529183019190915280517fbce78369dccab09eec1986f4d409ab09ffbb47d65423e5148fcf98411c5111c99281900390910190a17f3ad3a0af1c72b834ff87f9409d7124fd7d9b306560756548477325e6e09f5055600e54600f54604051808381526020018281526020019250505060405180910390a16005546008546007546040805163e1cf19c160e01b815290516001600160a01b03948516946320c582be948116938c93612c489389939092169163e1cf19c191600480820192602092909190829003018186803b158015612c1757600080fd5b505afa158015612c2b573d6000803e3d6000fd5b505050506040513d6020811015612c4157600080fd5b5051610a46565b6040518463ffffffff1660e01b815260040180846001600160a01b03166001600160a01b03168152602001836001600160a01b03166001600160a01b031681526020018281526020019350505050602060405180830381600087803b158015612cb057600080fd5b505af1158015612cc4573d6000803e3d6000fd5b505050506040513d6020811015612cda57600080fd5b50506007546040805163e9c8395760e01b81526004810184905290516001600160a01b039092169163e9c839579160248082019260009290919082900301818387803b158015612d2957600080fd5b505af1158015612d3d573d6000803e3d6000fd5b505060075460408051631283abc560e21b81526004810189905290516001600160a01b039092169350634a0eaf14925060248082019260009290919082900301818387803b158015612d8e57600080fd5b505af1158015612da2573d6000803e3d6000fd5b5050600754604080516364a197f360e01b81526001600160a01b038b811660048301526024820189905291519190921693506364a197f3925060448083019260209291908290030181600087803b158015612dfc57600080fd5b505af1158015612e10573d6000803e3d6000fd5b505050506040513d6020811015612e2657600080fd5b50612e319050613969565b50604080518082019091529081526020810192909252509392505050565b6001600160a01b0382166000908152600d602052604081205415612ea45760405162461bcd60e51b8152600401808060200182810382526035815260200180613a746035913960400191505060405180910390fd5b600554604080517f70a082310000000000000000000000000000000000000000000000000000000081526001600160a01b0386811660048301529151859392909216916370a0823191602480820192602092909190829003018186803b158015612f0d57600080fd5b505afa158015612f21573d6000803e3d6000fd5b505050506040513d6020811015612f3757600080fd5b50511015612f765760405162461bcd60e51b815260040180806020018281038252603e815260200180613af8603e913960400191505060405180910390fd5b600554600854604080517fbb997bac0000000000000000000000000000000000000000000000000000000081526001600160a01b0387811660048301529283166024820152604481018690529051919092169163bb997bac9160648083019260209291908290030181600087803b158015612ff057600080fd5b505af1158015613004573d6000803e3d6000fd5b505050506040513d602081101561301a57600080fd5b505060075460408051634de7363160e01b81526004810185905290516001600160a01b0390921691634de736319160248082019260009290919082900301818387803b15801561306957600080fd5b505af115801561307d573d6000803e3d6000fd5b5050600754604080517fde10fb780000000000000000000000000000000000000000000000000000000081526004810187905290516001600160a01b03909216935063de10fb78925060248082019260009290919082900301818387803b1580156130e757600080fd5b505af11580156130fb573d6000803e3d6000fd5b5050506001600160a01b0384166000908152600d60209081526040808320869055600e805460108452938290206001810194909455600f54938490555481519081529182019290925281517f3ad3a0af1c72b834ff87f9409d7124fd7d9b306560756548477325e6e09f505593509081900390910190a1604080516001600160a01b03851681526020810184905281517fbce78369dccab09eec1986f4d409ab09ffbb47d65423e5148fcf98411c5111c9929181900390910190a150600192915050565b600082820183811015613219576040805162461bcd60e51b815260206004820152601b60248201527f536166654d6174683a206164646974696f6e206f766572666c6f770000000000604482015290519081900360640190fd5b9392505050565b600061321983836040518060400160405280601e81526020017f536166654d6174683a207375627472616374696f6e206f766572666c6f77000081525061386d565b6001600160a01b0381166000908152600d60209081526040808320546010909252822054600f548390612a11908363ffffffff61322016565b6000826132aa57506000610a59565b828202828482816132b757fe5b04146132195760405162461bcd60e51b8152600401808060200182810382526021815260200180613ad76021913960400191505060405180910390fd5b600061321983836040518060400160405280601a81526020017f536166654d6174683a206469766973696f6e206279207a65726f000000000000815250613904565b61333e613969565b6001600160a01b038083166000818152600d60209081526040918290205460025483517f244beeff000000000000000000000000000000000000000000000000000000008152600481019590955292519094929092169263244beeff9260248083019392829003018186803b1580156133b657600080fd5b505afa1580156133ca573d6000803e3d6000fd5b505050506040513d60208110156133e057600080fd5b5051613433576040805162461bcd60e51b815260206004820152601f60248201527f41646472657373206d757374206861766520616e206163746976652043445000604482015290519081900360640190fd5b600061343e84613262565b9050600061344b856129d5565b905060008382111561345f57506000613464565b508083035b6001600160a01b0386166000818152600d60208181526040808420848155600e5460108452948290206001810195909555600f54909455918152915481519384529183019190915280517fbce78369dccab09eec1986f4d409ab09ffbb47d65423e5148fcf98411c5111c99281900390910190a17f3ad3a0af1c72b834ff87f9409d7124fd7d9b306560756548477325e6e09f5055600e54600f54604051808381526020018281526020019250505060405180910390a16005546008546007546040805163e1cf19c160e01b815290516001600160a01b03948516946320c582be948116938c9361357b9389939092169163e1cf19c191600480820192602092909190829003018186803b158015612c1757600080fd5b6040518463ffffffff1660e01b815260040180846001600160a01b03166001600160a01b03168152602001836001600160a01b03166001600160a01b031681526020018281526020019350505050602060405180830381600087803b1580156135e357600080fd5b505af11580156135f7573d6000803e3d6000fd5b505050506040513d602081101561360d57600080fd5b50506007546040805163e9c8395760e01b81526004810184905290516001600160a01b039092169163e9c839579160248082019260009290919082900301818387803b15801561365c57600080fd5b505af1158015613670573d6000803e3d6000fd5b505060075460408051631283abc560e21b81526004810189905290516001600160a01b039092169350634a0eaf14925060248082019260009290919082900301818387803b1580156136c157600080fd5b505af11580156136d5573d6000803e3d6000fd5b5050600254604080517f909a907f0000000000000000000000000000000000000000000000000000000081526001600160a01b038b8116600483015260248201899052915191909216935063909a907f925060448083019260209291908290030181600087803b15801561374857600080fd5b505af115801561375c573d6000803e3d6000fd5b505050506040513d602081101561377257600080fd5b5050600754600a54604080516364a197f360e01b81526001600160a01b03928316600482015260248101879052905191909216916364a197f39160448083019260209291908290030181600087803b158015612dfc57600080fd5b6001600160a01b0381166138125760405162461bcd60e51b81526004018080602001828103825260268152602001806139886026913960400191505060405180910390fd5b600080546040516001600160a01b03808516939216917f8be0079c531659141344cd1fd0a4f28419497f9722a3daafe3b4186f6b6457e091a3600080546001600160a01b0319166001600160a01b0392909216919091179055565b600081848411156138fc5760405162461bcd60e51b81526004018080602001828103825283818151815260200191508051906020019080838360005b838110156138c15781810151838201526020016138a9565b50505050905090810190601f1680156138ee5780820380516001836020036101000a031916815260200191505b509250505060405180910390fd5b505050900390565b600081836139535760405162461bcd60e51b81526020600482018181528351602484015283519092839260449091019190850190808383600083156138c15781810151838201526020016138a9565b50600083858161395f57fe5b0495945050505050565b6040518060400160405280600290602082028038833950919291505056fe4f776e61626c653a206e6577206f776e657220697320746865207a65726f2061646472657373506f6f6c4d616e616765723a206465706f7369746f72206d6179206e6f7420636c61696d207468656972206f776e2070656e616c7479506f6f6c4d616e616765723a2055736572206d7573742068617665206e65742d706f73697469766520434c5620746f207769746864726177506f6f6c4d616e616765723a207472616e73616374696f6e20746f20616374697665506f6f6c207265766572746564506f6f6c4d616e616765723a206465706f7369746f7220686173206e6f74206f766572737461796564506f6f6c4d616e616765723a207573657220616c72656164792068617320612053746162696c697479506f6f6c206465706f736974506f6f6c4d616e616765723a2055736572206d75737420686176652061206e6f6e2d7a65726f206465706f736974536166654d6174683a206d756c7469706c69636174696f6e206f766572666c6f77506f6f6c4d616e616765723a20757365722068617320696e73756666696369656e7420434c562062616c616e636520746f206d616b65206465706f736974506f6f6c4d616e616765723a2043616c6c6572206973206e6f7420746865204344504d616e61676572a265627a7a7231582014cc647a2a18701a6d15ae2fca9bf1f245abcc1afa6fcba556d05d3718c6e8a964736f6c634300050b0032",
  "source": "pragma solidity ^0.5.11;\r\n\r\nimport './IPool.sol';\r\nimport './IPoolManager.sol';\r\nimport './ICDPManager.sol';\r\nimport './IStabilityPool.sol';\r\nimport './IPriceFeed.sol';\r\nimport './ICLVToken.sol';\r\nimport './DeciMath.sol';\r\nimport '../node_modules/@openzeppelin/contracts/math/SafeMath.sol';\r\nimport '../node_modules/@openzeppelin/contracts/ownership/Ownable.sol';\r\n\r\n// PoolManager maintains all pools \r\ncontract PoolManager is Ownable, IPoolManager {\r\n    using SafeMath for uint;\r\n\r\n    uint constant DIGITS = 1e18;\r\n\r\n    // --- Events ---\r\n    event CDPManagerAddressChanged(address _newCDPManagerAddress);\r\n    event PriceFeedAddressChanged(address _newPriceFeedAddress);\r\n    event CLVTokenAddressChanged(address _newCLVTokenAddress);\r\n    event StabilityPoolAddressChanged(address _newStabilityPoolAddress);\r\n    event ActivePoolAddressChanged(address _newActivePoolAddress);\r\n    event DefaultPoolAddressChanged(address _newDefaultPoolAddress);\r\n    event UserSnapshotUpdated(uint _CLV, uint _ETH);\r\n    event S_CLVUpdated(uint _S_CLV);\r\n    event S_ETHUpdated(uint _S_ETH);\r\n    event UserDepositChanged(address _user, uint _amount);\r\n    event OverstayPenaltyClaimed(address claimant, uint claimantReward, address depositor, uint remainder);\r\n\r\n    // --- Connected contract declarations ---\r\n    address public cdpManagerAddress;\r\n    ICDPManager cdpManager = ICDPManager(cdpManagerAddress);\r\n\r\n    IPriceFeed priceFeed;\r\n    address public priceFeedAddress;\r\n\r\n    ICLVToken CLV; \r\n    address public clvAddress;\r\n\r\n    IStabilityPool public stabilityPool;\r\n    address payable public stabilityPoolAddress;\r\n\r\n    IPool public activePool;\r\n    address payable public activePoolAddress;\r\n\r\n    IPool public defaultPool;\r\n    address payable public defaultPoolAddress;\r\n   \r\n   // --- Data structures ---\r\n   \r\n    mapping (address => uint) public deposit; \r\n\r\n      struct Snapshot {\r\n        uint ETH;\r\n        uint CLV;\r\n    }\r\n    \r\n    uint public S_CLV; // A running total of the CLV fractions for gas-efficient share calculation\r\n    uint public S_ETH; // A running total of the ETH fractions for gas-efficient share calculation\r\n    mapping (address => Snapshot) public snapshot; // A map of individual snapshots of the S_CLV and the current StabilityPool.ETH values\r\n    \r\n     /* track the sum of users' total pending CLV and ETH changes earned by their deposit history.\r\n    The total pending is updated whenever user increases their deposit, or make a partial withdrawal.\r\n    \r\n    During it's lifetime, each deposit earns:\r\n\r\n    A CLV *loss* of ( deposit * [S_CLV - S_CLV(0)] )\r\n    An ETH *gain* of ( deposit * [S_ETH - S_ETH(0)] )\r\n\r\n    which is added to these running totals. */\r\n    mapping (address => uint) public totalPendingCLVLoss;\r\n    mapping (address => uint) public totalPendingETHGain;\r\n\r\n    /* track the realised StabilityPool ETH gains a user has earned due to deposit withdrawals, but \r\n    chosen to not cash out */\r\n    mapping (address => uint) public entitledETHGain;\r\n    enum Destination { sendToUser, sendToCDP, keepInPool }\r\n    \r\n    // --- Modifiers ---\r\n    modifier onlyCDPManager() {\r\n        require(_msgSender() == cdpManagerAddress, \"PoolManager: Caller is not the CDPManager\");\r\n        _;\r\n    }\r\n\r\n    constructor() public {}\r\n\r\n    // --- Dependency setters ---\r\n    function setCDPManagerAddress(address _cdpManagerAddress) public onlyOwner {\r\n        cdpManagerAddress = _cdpManagerAddress;\r\n        cdpManager = ICDPManager(_cdpManagerAddress);\r\n        emit CDPManagerAddressChanged(_cdpManagerAddress);\r\n    }\r\n\r\n     function setPriceFeed(address _priceFeedAddress) public onlyOwner {\r\n        priceFeedAddress = _priceFeedAddress;\r\n        priceFeed = IPriceFeed(_priceFeedAddress);\r\n        emit PriceFeedAddressChanged(_priceFeedAddress);\r\n    }\r\n\r\n    function setCLVToken(address _CLVAddress) public onlyOwner {\r\n        clvAddress = _CLVAddress;\r\n        CLV = ICLVToken(_CLVAddress); \r\n        emit CLVTokenAddressChanged(_CLVAddress);\r\n    }\r\n\r\n    function setStabilityPool(address payable _stabilityPoolAddress) public onlyOwner {\r\n        stabilityPoolAddress = _stabilityPoolAddress;\r\n        stabilityPool = IStabilityPool(stabilityPoolAddress);\r\n        emit StabilityPoolAddressChanged(_stabilityPoolAddress);\r\n    }\r\n\r\n    function setActivePool(address payable _activePoolAddress) public onlyOwner {\r\n        activePoolAddress = _activePoolAddress;\r\n        activePool = IPool(activePoolAddress);\r\n        emit ActivePoolAddressChanged(_activePoolAddress);\r\n    }\r\n\r\n    function setDefaultPool(address payable _defaultPoolAddress) public onlyOwner {\r\n        defaultPoolAddress = _defaultPoolAddress;\r\n        defaultPool = IPool(defaultPoolAddress);\r\n        emit DefaultPoolAddressChanged(_defaultPoolAddress);\r\n    }\r\n\r\n    // --- Getters ---\r\n    function getAccurateMulDiv(uint x, uint y, uint z) public pure returns(uint) {\r\n        return DeciMath.accurateMulDiv(x, y, z);\r\n    }\r\n\r\n    // Returns the total collateral ratio of the system\r\n    function getTCR() \r\n        view \r\n        public \r\n        returns (uint) \r\n    {\r\n        uint activePoolETH = activePool.getETH();\r\n        uint activePoolCLV = activePool.getCLV();\r\n        uint price = priceFeed.getPrice();\r\n        \r\n        // Handle edge cases of div by 0\r\n        if(activePoolETH == 0 && activePoolCLV == 0 ) { \r\n            return 1;\r\n        }  else if (activePoolETH != 0 && activePoolCLV == 0 ) {\r\n            return 2**256 - 1; // TCR is technically infinite\r\n        }\r\n\r\n        // calculate TCR\r\n        return DeciMath.accurateMulDiv(activePoolETH, price, activePoolCLV);\r\n    }\r\n    \r\n    // Returns the current ETH balance of the TokenPools contract\r\n    function getBalance() \r\n        public\r\n        view\r\n        returns (uint)\r\n    {\r\n        return address(this).balance;\r\n    } \r\n    \r\n    // Returns the total active debt (in CLV) in the system\r\n    function getActiveDebt() \r\n        public\r\n        view\r\n        returns (uint)\r\n    {\r\n        return activePool.getCLV();\r\n    }    \r\n    \r\n    // Returns the total active collateral (in ETH) in the system\r\n    function getActiveColl() \r\n        public\r\n        view\r\n        returns (uint)\r\n    {\r\n        return activePool.getETH();\r\n    } \r\n    \r\n    // Returns the amount of closed debt (in CLV)\r\n    function getClosedDebt() \r\n        public\r\n        view\r\n        returns (uint)\r\n    {\r\n        return defaultPool.getCLV();\r\n    }    \r\n    \r\n    // Returns the amount of closed collateral (in ETH)\r\n    function getClosedColl() \r\n        public\r\n        view\r\n        returns (uint)\r\n    {\r\n        return defaultPool.getETH();\r\n    }  \r\n    \r\n    // Returns the lower value from two given integers\r\n    function getMin(uint a, uint b) \r\n        public\r\n        pure\r\n        returns (uint)\r\n    {\r\n        if (a <= b) return a;\r\n        else return b;\r\n    }    \r\n    \r\n    // Adds the received ETH to the total active collateral\r\n    function addColl()\r\n        public\r\n        payable\r\n        onlyCDPManager\r\n        returns (bool)\r\n    {\r\n        // send ETH to Active Pool and increase its recorded ETH balance \r\n       (bool success, ) = activePoolAddress.call.value(msg.value)(\"\");\r\n       require (success == true, 'PoolManager: transaction to activePool reverted');\r\n       return success;\r\n    }\r\n    \r\n    // Transfers the specified amount of ETH to _account and updates the total active collateral \r\n    function withdrawColl(address payable _account, uint _ETH)\r\n        public\r\n        onlyCDPManager\r\n        returns (bool)\r\n    {\r\n        activePool.sendETH(_account, _ETH);\r\n        return true;\r\n    }\r\n    \r\n    // Issues the specified amount of CLV to _account and increases the total active debt\r\n    function withdrawCLV(address _account, uint _CLV)\r\n        public\r\n        onlyCDPManager\r\n        returns (bool)\r\n    {\r\n        activePool.increaseCLV(_CLV);\r\n        CLV.mint(_account, _CLV);\r\n                \r\n        return true;\r\n    }\r\n    \r\n    // Burns the specified amount of CLV from _account and decreases the total active debt\r\n    function repayCLV(address _account, uint _CLV)\r\n        public\r\n        onlyCDPManager\r\n        returns (bool)\r\n    {\r\n        activePool.decreaseCLV(_CLV);\r\n        CLV.burn(_account, _CLV);\r\n        \r\n        return true;\r\n    }           \r\n    \r\n    // Updates the Active Pool and the Default Pool when a CDP gets closed\r\n    function close(uint _CLV, uint _ETH)\r\n        public\r\n        onlyCDPManager\r\n        returns (bool)\r\n    {\r\n        // Transfer the debt & coll from the Active Pool to the Default Pool\r\n        defaultPool.increaseCLV(_CLV);\r\n        activePool.decreaseCLV(_CLV);\r\n        activePool.sendETH(defaultPoolAddress, _ETH);\r\n        \r\n        return true;\r\n    }    \r\n    \r\n    // Updates the Active Pool and the Default Pool when a CDP obtains a default share\r\n    function obtainDefaultShare(uint _CLV, uint _ETH)\r\n        public\r\n        onlyCDPManager\r\n        returns (bool)\r\n    {    \r\n        // Transfer the debt & coll from the Default Pool to the Active Pool\r\n        defaultPool.decreaseCLV(_CLV);\r\n        activePool.increaseCLV(_CLV);\r\n        defaultPool.sendETH(activePoolAddress, _ETH);\r\n \r\n        return true;\r\n    }\r\n    \r\n    // Burns the received CLV, transfers the redeemed ETH to _account and updates the Active Pool\r\n    function redeemCollateral(address payable _account, uint _CLV, uint _ETH)\r\n        public\r\n        onlyCDPManager\r\n        returns (bool)\r\n    {    \r\n        // Update Active Pool CLV, and send ETH to account\r\n        activePool.decreaseCLV(_CLV);\r\n        activePool.sendETH(_account, _ETH);\r\n        \r\n        CLV.burn(_account, _CLV);\r\n\r\n        return true;\r\n    }    \r\n\r\n    // return the accumulated change, for the user, for the duration that this deposit was held\r\n\r\n    function getCurrentETHGain(address _user) internal view returns(uint) {\r\n        uint userDeposit = deposit[_user];\r\n        uint snapshotETH = snapshot[_user].ETH;\r\n        uint rewardPerUnitStaked = S_ETH.sub(snapshotETH);\r\n        return DeciMath.accurateMulDiv(userDeposit, rewardPerUnitStaked, DIGITS);\r\n    }\r\n\r\n    function getCurrentCLVLoss(address _user) internal view returns(uint) {\r\n        uint userDeposit = deposit[_user];\r\n        uint snapshotCLV = snapshot[_user].CLV;\r\n        uint rewardPerUnitStaked = S_CLV.sub(snapshotCLV);\r\n        return DeciMath.accurateMulDiv(userDeposit, rewardPerUnitStaked, DIGITS);\r\n    }\r\n\r\n    // --- Internal  StabilityPool functions --- \r\n\r\n    /* Cancels out the specified _debt against the CLV contained in the Stability Pool (as far as possible)  \r\n    and transfers the CDP's ETH collateral from ActivePool to StabilityPool. \r\n    Returns the amount of debt that could not be cancelled, and the corresponding ether.\r\n    Only callable from close() and closeCDPs() functions in CDPManager */\r\n    function offset(uint _debt, uint _coll) external payable onlyCDPManager returns (uint[2] memory) \r\n    {    \r\n        uint[2] memory remainder;\r\n        uint totalCLVDeposits = stabilityPool.getTotalCLVDeposits();\r\n        uint CLVinPool = stabilityPool.getCLV();\r\n        \r\n        // When Stability Pool has no CLV or no deposits, return all debt and coll\r\n        if (CLVinPool == 0 || totalCLVDeposits == 0 ) {\r\n            remainder[0] = _debt;\r\n            remainder[1] = _coll;\r\n            return remainder;\r\n        }\r\n        \r\n        // If the debt is larger than the deposited CLV, offset an amount of debt corresponding to the latter\r\n        uint debtToOffset = getMin(_debt, CLVinPool);\r\n        // Collateral to be added in proportion to the debt that is cancelled\r\n        uint collToAdd =  DeciMath.accurateMulDiv(debtToOffset, _coll, _debt);\r\n        \r\n        // Update the running total S_CLV by adding the ratio between the distributed debt and the CLV in the pool\r\n        S_CLV = S_CLV.add( DeciMath.accurateMulDiv(debtToOffset,  DIGITS, totalCLVDeposits) );\r\n        emit S_CLVUpdated(S_CLV);\r\n        // Update the running total S_ETH by adding the ratio between the distributed collateral and the ETH in the pool\r\n        S_ETH = S_ETH.add( DeciMath.accurateMulDiv(collToAdd, DIGITS, totalCLVDeposits) );\r\n        emit S_ETHUpdated(S_ETH);\r\n        // Cancel the liquidated CLV debt with the CLV in the stability pool\r\n        activePool.decreaseCLV(debtToOffset);  \r\n        stabilityPool.decreaseCLV(debtToOffset); \r\n        // Send ETH from Active Pool to Stability Pool\r\n        activePool.sendETH(stabilityPoolAddress, collToAdd);  \r\n        \r\n        // Burn the debt that was successfully offset\r\n        CLV.burn(stabilityPoolAddress, debtToOffset);\r\n        \r\n        // Return the amount of debt & coll that could not be offset against the Stability Pool due to insufficiency\r\n        remainder[0] = _debt.sub(debtToOffset);\r\n        remainder[1] = _coll.sub(collToAdd);\r\n        return remainder;\r\n    }\r\n    \r\n    // Deposit _amount CLV from _address, to the Stability Pool.\r\n    function depositCLV(address _address, uint _amount) internal returns(bool) {\r\n        require(deposit[_address] == 0, \"PoolManager: user already has a StabilityPool deposit\");\r\n        require(CLV.balanceOf(_address) >= _amount, \"PoolManager: user has insufficient CLV balance to make deposit\");\r\n        \r\n        // Transfer the CLV tokens from the user to the Stability Pool's address, and update its recorded CLV\r\n        CLV.sendToPool(_address, stabilityPoolAddress, _amount);\r\n        stabilityPool.increaseCLV(_amount);\r\n        stabilityPool.increaseTotalCLVDeposits(_amount);\r\n        \r\n        // Record the deposit made by user\r\n        deposit[_address] = _amount;\r\n    \r\n        // Record new individual snapshots of the running totals S_CLV and S_ETH for the user\r\n        snapshot[_address].CLV = S_CLV;\r\n        snapshot[_address].ETH = S_ETH;\r\n\r\n        emit UserSnapshotUpdated(S_CLV, S_ETH);\r\n        emit UserDepositChanged(_address, _amount);\r\n        return true;\r\n    }\r\n\r\n   // Transfers _address's entitled CLV (CLVDeposit - CLVLoss) and their ETHGain, to _address.\r\n    function retrieveToUser(address payable _address) internal returns(uint[2] memory) {\r\n        uint userDeposit = deposit[_address];\r\n\r\n        uint ETHShare = getCurrentETHGain(_address);\r\n        uint CLVLoss = getCurrentCLVLoss(_address);\r\n        uint CLVShare;\r\n\r\n        // If user's deposit is an 'overstay', they retrieve 0 CLV\r\n        if (CLVLoss > userDeposit) {\r\n            CLVShare = 0;\r\n        } else {\r\n            CLVShare = userDeposit - CLVLoss;\r\n        }\r\n\r\n        // update deposit and snapshots\r\n        deposit[_address] = 0;\r\n\r\n        snapshot[_address].CLV = S_CLV;\r\n        snapshot[_address].ETH = S_ETH;\r\n\r\n        emit UserDepositChanged(_address, deposit[_address]);\r\n        emit UserSnapshotUpdated(S_CLV, S_ETH);\r\n\r\n        // send CLV to user and decrease CLV in Pool\r\n        CLV.returnFromPool(stabilityPoolAddress, _address, getMin(CLVShare, stabilityPool.getCLV()));\r\n        stabilityPool.decreaseCLV(CLVShare);\r\n        stabilityPool.decreaseTotalCLVDeposits(userDeposit);\r\n\r\n        // send ETH to user\r\n        stabilityPool.sendETH(_address, ETHShare);\r\n\r\n        uint[2] memory shares = [CLVShare, ETHShare];\r\n        return shares;\r\n    }\r\n\r\n    // Transfers _address's entitled CLV (CLVDeposit - CLVLoss) to _address, and their ETHGain to their CDP.\r\n    function retrieveToCDP(address payable _address) internal returns(uint[2] memory) {\r\n        uint userDeposit = deposit[_address];\r\n        require(cdpManager.hasActiveCDP(_address), \"Address must have an active CDP\");\r\n\r\n        uint ETHShare = getCurrentETHGain(_address);\r\n        uint CLVLoss = getCurrentCLVLoss(_address);\r\n        uint CLVShare;\r\n\r\n        // If user's deposit is an 'overstay', they retrieve 0 CLV\r\n        if (CLVLoss > userDeposit) {\r\n            CLVShare = 0;\r\n        } else {\r\n            CLVShare = userDeposit - CLVLoss;\r\n        }\r\n\r\n        // update deposit and snapshots\r\n        deposit[_address] = 0;\r\n\r\n        snapshot[_address].CLV = S_CLV;\r\n        snapshot[_address].ETH = S_ETH;\r\n\r\n        emit UserDepositChanged(_address, deposit[_address]);\r\n        emit UserSnapshotUpdated(S_CLV, S_ETH);\r\n\r\n        // send CLV to user and decrease CLV in Pool\r\n        CLV.returnFromPool(stabilityPoolAddress, _address, getMin(CLVShare, stabilityPool.getCLV()));\r\n        stabilityPool.decreaseCLV(CLVShare);\r\n        stabilityPool.decreaseTotalCLVDeposits(userDeposit);\r\n\r\n        // send ETH to CDP\r\n        cdpManager.sendETHGainToCDP(_address, ETHShare);\r\n        stabilityPool.sendETH(activePoolAddress, ETHShare);\r\n        \r\n        uint[2] memory shares = [CLVShare, ETHShare];\r\n        return shares;\r\n    }\r\n\r\n    // --- Public StabilityPool Functions ---\r\n\r\n    /* Sends ETHGain to user's address, and updates their deposit, \r\n    setting newDeposit = (oldDeposit - CLVLoss) + amount. */\r\n    function provideToSP(uint _amount) external returns(bool) {\r\n        address payable user = _msgSender();\r\n\r\n        uint[2] memory returnedVals = retrieveToUser(user);\r\n\r\n        uint returnedCLV = returnedVals[0];\r\n\r\n        uint newDeposit = returnedCLV + _amount;\r\n        depositCLV(msg.sender, newDeposit);\r\n\r\n        return true;\r\n    }\r\n\r\n    /* Withdraws _amount of CLV and the callers entire ETHGain from the \r\n    Stability Pool, and updates the callers reduced deposit. \r\n\r\n    If  _amount is 0, the user only withdraws their ETHGain, no CLV.\r\n\r\n    In all cases, ETHGain is sent to user, and CLVLoss is applied to their deposit. */\r\n    function withdrawFromSP(uint _amount) external returns(bool) {\r\n        address payable user = _msgSender();\r\n        uint userDeposit = deposit[user];\r\n        uint CLVLoss = getCurrentCLVLoss(user);\r\n\r\n        require(userDeposit >= CLVLoss, 'PoolManager: User must have net-positive CLV to withdraw');\r\n        require(userDeposit > 0, 'PoolManager: User must have a non-zero deposit');\r\n\r\n        // retrieve all CLV and ETH for the user\r\n        uint[2] memory returnedVals = retrieveToUser(user);\r\n\r\n        uint returnedCLV = returnedVals[0];\r\n\r\n        uint newDeposit; \r\n\r\n        // if requested withdrawal amount is greater than available CLV, simply withdraw it all.\r\n        if (_amount > returnedCLV) { \r\n            newDeposit = 0; \r\n        } else {\r\n            newDeposit = (returnedCLV - _amount);\r\n        }\r\n        depositCLV(msg.sender, newDeposit);\r\n\r\n        return true;\r\n    }\r\n\r\n    /* Transfers the callers entire ETHGain from the Stability Pool to the callers CDP. \r\n    Applies their CLVLoss to the deposit. */\r\n    function withdrawFromSPtoCDP() external returns(bool) {\r\n        address payable user = _msgSender();\r\n        uint userDeposit = deposit[user];\r\n        uint CLVLoss = getCurrentCLVLoss(user);\r\n\r\n        require(userDeposit >= CLVLoss, 'PoolManager: User must have net-positive CLV to withdraw');\r\n        require(userDeposit > 0, 'PoolManager: User must have a non-zero deposit');\r\n\r\n        // retrieve all CLV to user's CLV balance, and ETH to their CDP\r\n        uint[2] memory returnedVals = retrieveToCDP(user);\r\n\r\n        uint returnedCLV = returnedVals[0];\r\n\r\n        // update deposit, applying CLVLoss\r\n        depositCLV(msg.sender, returnedCLV);\r\n\r\n        return true;\r\n    }\r\n\r\n    /* Withdraws a 'penalty' fraction of an overstayed depositor's ETHGain.  \r\n    \r\n    Callable by anyone when _depositor's CLVLoss > deposit. */\r\n    function withdrawPenaltyFromSP(address payable _address) external returns(bool) {\r\n        address payable claimant = _msgSender();\r\n        address payable depositor = _address;\r\n        require(claimant != depositor, \"PoolManager: depositor may not claim their own penalty\");\r\n        \r\n        uint CLVLoss = getCurrentCLVLoss(depositor);\r\n        uint depositAmount = deposit[depositor];\r\n        require(CLVLoss > depositAmount, \"PoolManager: depositor has not overstayed\");\r\n\r\n        uint ETHGain = getCurrentETHGain(depositor);\r\n\r\n        /* Depositor is penalised for overstaying - i.e. letting CLVLoss grow larger than their deposit.\r\n       \r\n        Their ETH entitlement is reduced to ETHGain * (deposit/CLVLoss).\r\n        The claimant retrieves ETHGain * (1 - deposit/CLVLoss). */\r\n        uint ratio = DeciMath.accurateMulDiv(depositAmount, DIGITS, CLVLoss);\r\n        uint claimantReward = (ETHGain.mul(DIGITS.sub(ratio))).div(DIGITS);\r\n        uint remainder = ETHGain.sub(claimantReward);\r\n        \r\n        // update deposit and snapshots\r\n        deposit[depositor] = 0;\r\n        snapshot[depositor].CLV = S_CLV;\r\n        snapshot[depositor].ETH = S_ETH;\r\n\r\n        emit UserDepositChanged(depositor, deposit[depositor]);\r\n        emit UserSnapshotUpdated(S_CLV, S_ETH);\r\n\r\n        // send reward to claimant, and remainder to depositor\r\n        stabilityPool.sendETH(claimant, claimantReward);\r\n        stabilityPool.sendETH(depositor, remainder);\r\n        emit OverstayPenaltyClaimed(claimant, claimantReward, depositor, remainder);\r\n\r\n        return true;\r\n    }\r\n}    ",
  "sourcePath": "C:/Users/Rick/Desktop/Cleverage/contracts/PoolManager.sol",
  "compiler": {
    "name": "solc",
    "version": "0.5.11+commit.c082d0b4.Emscripten.clang"
  },
  "schemaVersion": "3.0.20",
  "updatedAt": "2019-12-26T17:22:24.689Z",
  "networkType": "ethereum",
  "devdoc": {
    "methods": {
      "isOwner()": {
        "details": "Returns true if the caller is the current owner."
      },
      "owner()": {
        "details": "Returns the address of the current owner."
      },
      "renounceOwnership()": {
        "details": "Leaves the contract without owner. It will not be possible to call `onlyOwner` functions anymore. Can only be called by the current owner.     * NOTE: Renouncing ownership will leave the contract without an owner, thereby removing any functionality that is only available to the owner."
      },
      "transferOwnership(address)": {
        "details": "Transfers ownership of the contract to a new account (`newOwner`). Can only be called by the current owner."
      }
    }
  },
  "userdoc": {
    "methods": {}
  }
}