{
  "contractName": "PoolManager",
  "abi": [
    {
      "constant": true,
      "inputs": [],
      "name": "cdpManagerAddress",
      "outputs": [
        {
          "internalType": "address",
          "name": "",
          "type": "address"
        }
      ],
      "payable": false,
      "stateMutability": "view",
      "type": "function"
    },
    {
      "constant": true,
      "inputs": [],
      "name": "stabilityPool",
      "outputs": [
        {
          "internalType": "contract IStabilityPool",
          "name": "",
          "type": "address"
        }
      ],
      "payable": false,
      "stateMutability": "view",
      "type": "function"
    },
    {
      "constant": true,
      "inputs": [],
      "name": "stabilityPoolAddress",
      "outputs": [
        {
          "internalType": "address payable",
          "name": "",
          "type": "address"
        }
      ],
      "payable": false,
      "stateMutability": "view",
      "type": "function"
    },
    {
      "constant": true,
      "inputs": [
        {
          "internalType": "address",
          "name": "",
          "type": "address"
        }
      ],
      "name": "snapshot",
      "outputs": [
        {
          "internalType": "uint256",
          "name": "ETH",
          "type": "uint256"
        },
        {
          "internalType": "uint256",
          "name": "CLV",
          "type": "uint256"
        }
      ],
      "payable": false,
      "stateMutability": "view",
      "type": "function"
    },
    {
      "constant": true,
      "inputs": [],
      "name": "defaultPool",
      "outputs": [
        {
          "internalType": "contract IPool",
          "name": "",
          "type": "address"
        }
      ],
      "payable": false,
      "stateMutability": "view",
      "type": "function"
    },
    {
      "constant": true,
      "inputs": [],
      "name": "S_ETH",
      "outputs": [
        {
          "internalType": "uint256",
          "name": "",
          "type": "uint256"
        }
      ],
      "payable": false,
      "stateMutability": "view",
      "type": "function"
    },
    {
      "constant": true,
      "inputs": [],
      "name": "S_CLV",
      "outputs": [
        {
          "internalType": "uint256",
          "name": "",
          "type": "uint256"
        }
      ],
      "payable": false,
      "stateMutability": "view",
      "type": "function"
    },
    {
      "constant": false,
      "inputs": [],
      "name": "renounceOwnership",
      "outputs": [],
      "payable": false,
      "stateMutability": "nonpayable",
      "type": "function"
    },
    {
      "constant": true,
      "inputs": [],
      "name": "activePool",
      "outputs": [
        {
          "internalType": "contract IPool",
          "name": "",
          "type": "address"
        }
      ],
      "payable": false,
      "stateMutability": "view",
      "type": "function"
    },
    {
      "constant": true,
      "inputs": [],
      "name": "owner",
      "outputs": [
        {
          "internalType": "address",
          "name": "",
          "type": "address"
        }
      ],
      "payable": false,
      "stateMutability": "view",
      "type": "function"
    },
    {
      "constant": true,
      "inputs": [],
      "name": "isOwner",
      "outputs": [
        {
          "internalType": "bool",
          "name": "",
          "type": "bool"
        }
      ],
      "payable": false,
      "stateMutability": "view",
      "type": "function"
    },
    {
      "constant": true,
      "inputs": [],
      "name": "defaultPoolAddress",
      "outputs": [
        {
          "internalType": "address payable",
          "name": "",
          "type": "address"
        }
      ],
      "payable": false,
      "stateMutability": "view",
      "type": "function"
    },
    {
      "constant": true,
      "inputs": [],
      "name": "activePoolAddress",
      "outputs": [
        {
          "internalType": "address payable",
          "name": "",
          "type": "address"
        }
      ],
      "payable": false,
      "stateMutability": "view",
      "type": "function"
    },
    {
      "constant": true,
      "inputs": [],
      "name": "clvAddress",
      "outputs": [
        {
          "internalType": "address",
          "name": "",
          "type": "address"
        }
      ],
      "payable": false,
      "stateMutability": "view",
      "type": "function"
    },
    {
      "constant": true,
      "inputs": [],
      "name": "priceFeedAddress",
      "outputs": [
        {
          "internalType": "address",
          "name": "",
          "type": "address"
        }
      ],
      "payable": false,
      "stateMutability": "view",
      "type": "function"
    },
    {
      "constant": false,
      "inputs": [
        {
          "internalType": "address",
          "name": "newOwner",
          "type": "address"
        }
      ],
      "name": "transferOwnership",
      "outputs": [],
      "payable": false,
      "stateMutability": "nonpayable",
      "type": "function"
    },
    {
      "constant": true,
      "inputs": [
        {
          "internalType": "address",
          "name": "",
          "type": "address"
        }
      ],
      "name": "deposit",
      "outputs": [
        {
          "internalType": "uint256",
          "name": "",
          "type": "uint256"
        }
      ],
      "payable": false,
      "stateMutability": "view",
      "type": "function"
    },
    {
      "inputs": [],
      "payable": false,
      "stateMutability": "nonpayable",
      "type": "constructor"
    },
    {
      "payable": true,
      "stateMutability": "payable",
      "type": "fallback"
    },
    {
      "anonymous": false,
      "inputs": [
        {
          "indexed": false,
          "internalType": "address",
          "name": "_newCDPManagerAddress",
          "type": "address"
        }
      ],
      "name": "CDPManagerAddressChanged",
      "type": "event"
    },
    {
      "anonymous": false,
      "inputs": [
        {
          "indexed": false,
          "internalType": "address",
          "name": "_newPriceFeedAddress",
          "type": "address"
        }
      ],
      "name": "PriceFeedAddressChanged",
      "type": "event"
    },
    {
      "anonymous": false,
      "inputs": [
        {
          "indexed": false,
          "internalType": "address",
          "name": "_newCLVTokenAddress",
          "type": "address"
        }
      ],
      "name": "CLVTokenAddressChanged",
      "type": "event"
    },
    {
      "anonymous": false,
      "inputs": [
        {
          "indexed": false,
          "internalType": "address",
          "name": "_newStabilityPoolAddress",
          "type": "address"
        }
      ],
      "name": "StabilityPoolAddressChanged",
      "type": "event"
    },
    {
      "anonymous": false,
      "inputs": [
        {
          "indexed": false,
          "internalType": "address",
          "name": "_newActivePoolAddress",
          "type": "address"
        }
      ],
      "name": "ActivePoolAddressChanged",
      "type": "event"
    },
    {
      "anonymous": false,
      "inputs": [
        {
          "indexed": false,
          "internalType": "address",
          "name": "_newDefaultPoolAddress",
          "type": "address"
        }
      ],
      "name": "DefaultPoolAddressChanged",
      "type": "event"
    },
    {
      "anonymous": false,
      "inputs": [
        {
          "indexed": false,
          "internalType": "uint256",
          "name": "_CLV",
          "type": "uint256"
        },
        {
          "indexed": false,
          "internalType": "uint256",
          "name": "_ETH",
          "type": "uint256"
        }
      ],
      "name": "UserSnapshotUpdated",
      "type": "event"
    },
    {
      "anonymous": false,
      "inputs": [
        {
          "indexed": false,
          "internalType": "uint256",
          "name": "_S_CLV",
          "type": "uint256"
        }
      ],
      "name": "S_CLVUpdated",
      "type": "event"
    },
    {
      "anonymous": false,
      "inputs": [
        {
          "indexed": false,
          "internalType": "uint256",
          "name": "_S_ETH",
          "type": "uint256"
        }
      ],
      "name": "S_ETHUpdated",
      "type": "event"
    },
    {
      "anonymous": false,
      "inputs": [
        {
          "indexed": false,
          "internalType": "address",
          "name": "_user",
          "type": "address"
        },
        {
          "indexed": false,
          "internalType": "uint256",
          "name": "_amount",
          "type": "uint256"
        }
      ],
      "name": "UserDepositChanged",
      "type": "event"
    },
    {
      "anonymous": false,
      "inputs": [
        {
          "indexed": false,
          "internalType": "address",
          "name": "claimant",
          "type": "address"
        },
        {
          "indexed": false,
          "internalType": "uint256",
          "name": "claimantReward",
          "type": "uint256"
        },
        {
          "indexed": false,
          "internalType": "address",
          "name": "depositor",
          "type": "address"
        },
        {
          "indexed": false,
          "internalType": "uint256",
          "name": "remainder",
          "type": "uint256"
        }
      ],
      "name": "OverstayPenaltyClaimed",
      "type": "event"
    },
    {
      "anonymous": false,
      "inputs": [
        {
          "indexed": true,
          "internalType": "address",
          "name": "previousOwner",
          "type": "address"
        },
        {
          "indexed": true,
          "internalType": "address",
          "name": "newOwner",
          "type": "address"
        }
      ],
      "name": "OwnershipTransferred",
      "type": "event"
    },
    {
      "constant": false,
      "inputs": [
        {
          "internalType": "address",
          "name": "_cdpManagerAddress",
          "type": "address"
        }
      ],
      "name": "setCDPManagerAddress",
      "outputs": [],
      "payable": false,
      "stateMutability": "nonpayable",
      "type": "function"
    },
    {
      "constant": false,
      "inputs": [
        {
          "internalType": "address",
          "name": "_priceFeedAddress",
          "type": "address"
        }
      ],
      "name": "setPriceFeed",
      "outputs": [],
      "payable": false,
      "stateMutability": "nonpayable",
      "type": "function"
    },
    {
      "constant": false,
      "inputs": [
        {
          "internalType": "address",
          "name": "_CLVAddress",
          "type": "address"
        }
      ],
      "name": "setCLVToken",
      "outputs": [],
      "payable": false,
      "stateMutability": "nonpayable",
      "type": "function"
    },
    {
      "constant": false,
      "inputs": [
        {
          "internalType": "address payable",
          "name": "_stabilityPoolAddress",
          "type": "address"
        }
      ],
      "name": "setStabilityPool",
      "outputs": [],
      "payable": false,
      "stateMutability": "nonpayable",
      "type": "function"
    },
    {
      "constant": false,
      "inputs": [
        {
          "internalType": "address payable",
          "name": "_activePoolAddress",
          "type": "address"
        }
      ],
      "name": "setActivePool",
      "outputs": [],
      "payable": false,
      "stateMutability": "nonpayable",
      "type": "function"
    },
    {
      "constant": false,
      "inputs": [
        {
          "internalType": "address payable",
          "name": "_defaultPoolAddress",
          "type": "address"
        }
      ],
      "name": "setDefaultPool",
      "outputs": [],
      "payable": false,
      "stateMutability": "nonpayable",
      "type": "function"
    },
    {
      "constant": true,
      "inputs": [
        {
          "internalType": "uint256",
          "name": "x",
          "type": "uint256"
        },
        {
          "internalType": "uint256",
          "name": "y",
          "type": "uint256"
        },
        {
          "internalType": "uint256",
          "name": "z",
          "type": "uint256"
        }
      ],
      "name": "getAccurateMulDiv",
      "outputs": [
        {
          "internalType": "uint256",
          "name": "",
          "type": "uint256"
        }
      ],
      "payable": false,
      "stateMutability": "pure",
      "type": "function"
    },
    {
      "constant": true,
      "inputs": [],
      "name": "getTCR",
      "outputs": [
        {
          "internalType": "uint256",
          "name": "",
          "type": "uint256"
        }
      ],
      "payable": false,
      "stateMutability": "view",
      "type": "function"
    },
    {
      "constant": true,
      "inputs": [],
      "name": "getBalance",
      "outputs": [
        {
          "internalType": "uint256",
          "name": "",
          "type": "uint256"
        }
      ],
      "payable": false,
      "stateMutability": "view",
      "type": "function"
    },
    {
      "constant": true,
      "inputs": [],
      "name": "getActiveDebt",
      "outputs": [
        {
          "internalType": "uint256",
          "name": "",
          "type": "uint256"
        }
      ],
      "payable": false,
      "stateMutability": "view",
      "type": "function"
    },
    {
      "constant": true,
      "inputs": [],
      "name": "getActiveColl",
      "outputs": [
        {
          "internalType": "uint256",
          "name": "",
          "type": "uint256"
        }
      ],
      "payable": false,
      "stateMutability": "view",
      "type": "function"
    },
    {
      "constant": true,
      "inputs": [],
      "name": "getClosedDebt",
      "outputs": [
        {
          "internalType": "uint256",
          "name": "",
          "type": "uint256"
        }
      ],
      "payable": false,
      "stateMutability": "view",
      "type": "function"
    },
    {
      "constant": true,
      "inputs": [],
      "name": "getClosedColl",
      "outputs": [
        {
          "internalType": "uint256",
          "name": "",
          "type": "uint256"
        }
      ],
      "payable": false,
      "stateMutability": "view",
      "type": "function"
    },
    {
      "constant": true,
      "inputs": [
        {
          "internalType": "uint256",
          "name": "a",
          "type": "uint256"
        },
        {
          "internalType": "uint256",
          "name": "b",
          "type": "uint256"
        }
      ],
      "name": "getMin",
      "outputs": [
        {
          "internalType": "uint256",
          "name": "",
          "type": "uint256"
        }
      ],
      "payable": false,
      "stateMutability": "pure",
      "type": "function"
    },
    {
      "constant": false,
      "inputs": [],
      "name": "addColl",
      "outputs": [
        {
          "internalType": "bool",
          "name": "",
          "type": "bool"
        }
      ],
      "payable": true,
      "stateMutability": "payable",
      "type": "function"
    },
    {
      "constant": false,
      "inputs": [
        {
          "internalType": "address payable",
          "name": "_account",
          "type": "address"
        },
        {
          "internalType": "uint256",
          "name": "_ETH",
          "type": "uint256"
        }
      ],
      "name": "withdrawColl",
      "outputs": [
        {
          "internalType": "bool",
          "name": "",
          "type": "bool"
        }
      ],
      "payable": false,
      "stateMutability": "nonpayable",
      "type": "function"
    },
    {
      "constant": false,
      "inputs": [
        {
          "internalType": "address",
          "name": "_account",
          "type": "address"
        },
        {
          "internalType": "uint256",
          "name": "_CLV",
          "type": "uint256"
        }
      ],
      "name": "withdrawCLV",
      "outputs": [
        {
          "internalType": "bool",
          "name": "",
          "type": "bool"
        }
      ],
      "payable": false,
      "stateMutability": "nonpayable",
      "type": "function"
    },
    {
      "constant": false,
      "inputs": [
        {
          "internalType": "address",
          "name": "_account",
          "type": "address"
        },
        {
          "internalType": "uint256",
          "name": "_CLV",
          "type": "uint256"
        }
      ],
      "name": "repayCLV",
      "outputs": [
        {
          "internalType": "bool",
          "name": "",
          "type": "bool"
        }
      ],
      "payable": false,
      "stateMutability": "nonpayable",
      "type": "function"
    },
    {
      "constant": false,
      "inputs": [
        {
          "internalType": "uint256",
          "name": "_CLV",
          "type": "uint256"
        },
        {
          "internalType": "uint256",
          "name": "_ETH",
          "type": "uint256"
        }
      ],
      "name": "close",
      "outputs": [
        {
          "internalType": "bool",
          "name": "",
          "type": "bool"
        }
      ],
      "payable": false,
      "stateMutability": "nonpayable",
      "type": "function"
    },
    {
      "constant": false,
      "inputs": [
        {
          "internalType": "uint256",
          "name": "_CLV",
          "type": "uint256"
        },
        {
          "internalType": "uint256",
          "name": "_ETH",
          "type": "uint256"
        }
      ],
      "name": "obtainDefaultShare",
      "outputs": [
        {
          "internalType": "bool",
          "name": "",
          "type": "bool"
        }
      ],
      "payable": false,
      "stateMutability": "nonpayable",
      "type": "function"
    },
    {
      "constant": false,
      "inputs": [
        {
          "internalType": "address payable",
          "name": "_account",
          "type": "address"
        },
        {
          "internalType": "uint256",
          "name": "_CLV",
          "type": "uint256"
        },
        {
          "internalType": "uint256",
          "name": "_ETH",
          "type": "uint256"
        }
      ],
      "name": "redeemCollateral",
      "outputs": [
        {
          "internalType": "bool",
          "name": "",
          "type": "bool"
        }
      ],
      "payable": false,
      "stateMutability": "nonpayable",
      "type": "function"
    },
    {
      "constant": false,
      "inputs": [
        {
          "internalType": "uint256",
          "name": "_amount",
          "type": "uint256"
        }
      ],
      "name": "provideToSP",
      "outputs": [
        {
          "internalType": "bool",
          "name": "",
          "type": "bool"
        }
      ],
      "payable": false,
      "stateMutability": "nonpayable",
      "type": "function"
    },
    {
      "constant": false,
      "inputs": [
        {
          "internalType": "uint256",
          "name": "_amount",
          "type": "uint256"
        }
      ],
      "name": "withdrawFromSP",
      "outputs": [
        {
          "internalType": "bool",
          "name": "",
          "type": "bool"
        }
      ],
      "payable": false,
      "stateMutability": "nonpayable",
      "type": "function"
    },
    {
      "constant": false,
      "inputs": [],
      "name": "withdrawFromSPtoCDP",
      "outputs": [
        {
          "internalType": "bool",
          "name": "",
          "type": "bool"
        }
      ],
      "payable": false,
      "stateMutability": "nonpayable",
      "type": "function"
    },
    {
      "constant": false,
      "inputs": [
        {
          "internalType": "address payable",
          "name": "_address",
          "type": "address"
        }
      ],
      "name": "withdrawPenaltyFromSP",
      "outputs": [
        {
          "internalType": "bool",
          "name": "",
          "type": "bool"
        }
      ],
      "payable": false,
      "stateMutability": "nonpayable",
      "type": "function"
    },
    {
      "constant": false,
      "inputs": [
        {
          "internalType": "uint256",
          "name": "_debt",
          "type": "uint256"
        },
        {
          "internalType": "uint256",
          "name": "_coll",
          "type": "uint256"
        }
      ],
      "name": "offset",
      "outputs": [
        {
          "internalType": "uint256[2]",
          "name": "",
          "type": "uint256[2]"
        }
      ],
      "payable": true,
      "stateMutability": "payable",
      "type": "function"
    }
  ],
  "bytecode": "0x6080604052600154600280546001600160a01b0319166001600160a01b039092169190911790553480156200003357600080fd5b50620000476001600160e01b036200009516565b600080546001600160a01b0319166001600160a01b03928316178082556040519216917f8be0079c531659141344cd1fd0a4f28419497f9722a3daafe3b4186f6b6457e0908290a362000099565b3390565b61394180620000a96000396000f3fe6080604052600436106102dc5760003560e01c80637f7dde4a11610184578063b96c5181116100d6578063efb028c31161008a578063f568dd8e11610064578063f568dd8e14610914578063f7883a8b1461094d578063fefb4c5814610980576102dc565b8063efb028c314610878578063f2fde38b146108ae578063f340fa01146108e1576102dc565b8063d62c89c5116100bb578063d62c89c51461081b578063e0abca0b14610830578063ef6151a614610845576102dc565b8063b96c5181146107cd578063d31cadf614610806576102dc565b806398d721e011610138578063b08bc72211610112578063b08bc7221461078e578063b620115d146107a3578063b7a2a463146107b8576102dc565b806398d721e014610713578063aac1846f14610746578063afc7f50f1461075b576102dc565b80638da5cb5b116101695780638da5cb5b146106d45780638f32d59b146106e95780639594897d146106fe576102dc565b80637f7dde4a1461068c5780638c192ed4146106a1576102dc565b8063335525ad1161023d5780636bad5198116101f1578063724e78da116101cb578063724e78da146105f057806378c77a24146106235780637cb19fe81461064d576102dc565b80636bad5198146105b1578063708249b3146105c6578063715018a6146105db576102dc565b80634d5bc111116102225780634d5bc1111461053c578063596c89761461056c578063697b93fd1461059c576102dc565b8063335525ad146104c95780633cc7422514610527576102dc565b80631f549907116102945780632651216011610279578063265121601461041a5780632e54bf95146104665780632e90bbd814610490576102dc565b80631f549907146103e957806325a2e6e7146103fe576102dc565b80630b622ab2116102c55780630b622ab21461037d5780630fd95db51461039257806312065fe0146103d4576102dc565b806302f6567f14610337578063048c661d14610368575b6008546001600160a01b03166102f06109b3565b6001600160a01b0316146103355760405162461bcd60e51b815260040180806020018281038252602c8152602001806138e1602c913960400191505060405180910390fd5b005b34801561034357600080fd5b5061034c6109b8565b604080516001600160a01b039092168252519081900360200190f35b34801561037457600080fd5b5061034c6109c7565b34801561038957600080fd5b5061034c6109d6565b34801561039e57600080fd5b506103c2600480360360408110156103b557600080fd5b50803590602001356109e5565b60408051918252519081900360200190f35b3480156103e057600080fd5b506103c26109fe565b3480156103f557600080fd5b506103c2610a03565b610406610a79565b604080519115158252519081900360200190f35b34801561042657600080fd5b5061044d6004803603602081101561043d57600080fd5b50356001600160a01b0316610b72565b6040805192835260208301919091528051918290030190f35b34801561047257600080fd5b506104066004803603602081101561048957600080fd5b5035610b8b565b34801561049c57600080fd5b50610406600480360360408110156104b357600080fd5b506001600160a01b038135169060200135610c34565b6104ec600480360360408110156104df57600080fd5b5080359060200135610d99565b6040518082600260200280838360005b838110156105145781810151838201526020016104fc565b5050505090500191505060405180910390f35b34801561053357600080fd5b5061034c61139a565b34801561054857600080fd5b506104066004803603604081101561055f57600080fd5b50803590602001356113a9565b34801561057857600080fd5b506104066004803603604081101561058f57600080fd5b5080359060200135611528565b3480156105a857600080fd5b506103c26116a7565b3480156105bd57600080fd5b506103c26116ec565b3480156105d257600080fd5b506103c26116f2565b3480156105e757600080fd5b506103356116f8565b3480156105fc57600080fd5b506103356004803603602081101561061357600080fd5b50356001600160a01b031661179b565b34801561062f57600080fd5b506104066004803603602081101561064657600080fd5b5035611853565b34801561065957600080fd5b506104066004803603606081101561067057600080fd5b506001600160a01b038135169060208101359060400135611883565b34801561069857600080fd5b5061034c611a52565b3480156106ad57600080fd5b50610335600480360360208110156106c457600080fd5b50356001600160a01b0316611a61565b3480156106e057600080fd5b5061034c611b21565b3480156106f557600080fd5b50610406611b30565b34801561070a57600080fd5b506103c2611b54565b34801561071f57600080fd5b506103356004803603602081101561073657600080fd5b50356001600160a01b0316611b99565b34801561075257600080fd5b5061034c611c59565b34801561076757600080fd5b506104066004803603602081101561077e57600080fd5b50356001600160a01b0316611c68565b34801561079a57600080fd5b5061034c611fdb565b3480156107af57600080fd5b506103c2611fea565b3480156107c457600080fd5b506103c261223f565b3480156107d957600080fd5b50610406600480360360408110156107f057600080fd5b506001600160a01b038135169060200135612284565b34801561081257600080fd5b5061034c61239b565b34801561082757600080fd5b506104066123aa565b34801561083c57600080fd5b5061034c612447565b34801561085157600080fd5b506103356004803603602081101561086857600080fd5b50356001600160a01b0316612456565b34801561088457600080fd5b506103c26004803603606081101561089b57600080fd5b508035906020810135906040013561250e565b3480156108ba57600080fd5b50610335600480360360208110156108d157600080fd5b50356001600160a01b03166125a3565b3480156108ed57600080fd5b506103c26004803603602081101561090457600080fd5b50356001600160a01b0316612608565b34801561092057600080fd5b506104066004803603604081101561093757600080fd5b506001600160a01b03813516906020013561261a565b34801561095957600080fd5b506103356004803603602081101561097057600080fd5b50356001600160a01b03166126cc565b34801561098c57600080fd5b50610335600480360360208110156109a357600080fd5b50356001600160a01b031661278c565b335b90565b6001546001600160a01b031681565b6007546001600160a01b031681565b6008546001600160a01b031681565b60008183116109f55750816109f8565b50805b92915050565b303190565b60095460408051630a7b61df60e11b815290516000926001600160a01b0316916314f6c3be916004808301926020929190829003018186803b158015610a4857600080fd5b505afa158015610a5c573d6000803e3d6000fd5b505050506040513d6020811015610a7257600080fd5b5051905090565b6001546000906001600160a01b0316610a906109b3565b6001600160a01b031614610ad55760405162461bcd60e51b81526004018080602001828103825260298152602001806138b86029913960400191505060405180910390fd5b600a546040516000916001600160a01b03169034908381818185875af1925050503d8060008114610b22576040519150601f19603f3d011682016040523d82523d6000602084013e610b27565b606091505b5090915050600181151514610b6d5760405162461bcd60e51b815260040180806020018281038252602f81526020018061379e602f913960400191505060405180910390fd5b905090565b6010602052600090815260409020805460019091015482565b600080610b966109b3565b6001600160a01b0381166000908152600d602052604090205490915080610bee5760405162461bcd60e51b815260040180806020018281038252602e81526020018061382b602e913960400191505060405180910390fd5b6000610bf983612844565b9050610c03613759565b610c0c8461291e565b805190915080871015610c2757610c2585888303612cbe565b505b5060019695505050505050565b6001546000906001600160a01b0316610c4b6109b3565b6001600160a01b031614610c905760405162461bcd60e51b81526004018080602001828103825260298152602001806138b86029913960400191505060405180910390fd5b60095460408051634de7363160e01b81526004810185905290516001600160a01b0390921691634de736319160248082019260009290919082900301818387803b158015610cdd57600080fd5b505af1158015610cf1573d6000803e3d6000fd5b5050600554604080517f40c10f190000000000000000000000000000000000000000000000000000000081526001600160a01b0388811660048301526024820188905291519190921693506340c10f19925060448083019260209291908290030181600087803b158015610d6457600080fd5b505af1158015610d78573d6000803e3d6000fd5b505050506040513d6020811015610d8e57600080fd5b506001949350505050565b610da1613759565b6001546001600160a01b0316610db56109b3565b6001600160a01b031614610dfa5760405162461bcd60e51b81526004018080602001828103825260298152602001806138b86029913960400191505060405180910390fd5b610e02613759565b600754604080517fb739777600000000000000000000000000000000000000000000000000000000815290516000926001600160a01b03169163b7397776916004808301926020929190829003018186803b158015610e6057600080fd5b505afa158015610e74573d6000803e3d6000fd5b505050506040513d6020811015610e8a57600080fd5b50516007546040805163e1cf19c160e01b815290519293506000926001600160a01b039092169163e1cf19c191600480820192602092909190829003018186803b158015610ed757600080fd5b505afa158015610eeb573d6000803e3d6000fd5b505050506040513d6020811015610f0157600080fd5b50519050801580610f10575081155b15610f285750508381526020810183905290506109f8565b6000610f3487836109e5565b9050600073__DeciMath______________________________63563d4c2383898b6040518463ffffffff1660e01b815260040180848152602001838152602001828152602001935050505060206040518083038186803b158015610f9757600080fd5b505af4158015610fab573d6000803e3d6000fd5b505050506040513d6020811015610fc157600080fd5b5051604080517f563d4c2300000000000000000000000000000000000000000000000000000000815260048101859052670de0b6b3a764000060248201526044810187905290519192506110859173__DeciMath______________________________9163563d4c23916064808301926020929190829003018186803b15801561104a57600080fd5b505af415801561105e573d6000803e3d6000fd5b505050506040513d602081101561107457600080fd5b5051600e549063ffffffff61302e16565b600e81905560408051918252517f5c256972fe7489f98ce15d224bf8dab74d0e19cc6aa966608916a15f6f60d0f79181900360200190a161116173__DeciMath______________________________63563d4c2383670de0b6b3a7640000886040518463ffffffff1660e01b815260040180848152602001838152602001828152602001935050505060206040518083038186803b15801561112657600080fd5b505af415801561113a573d6000803e3d6000fd5b505050506040513d602081101561115057600080fd5b5051600f549063ffffffff61302e16565b600f81905560408051918252517f929e5fb9f1edf861ea5c93ad246b11b366de90467ba54a72bcb6f04e4d7195919181900360200190a16009546040805163e9c8395760e01b81526004810185905290516001600160a01b039092169163e9c839579160248082019260009290919082900301818387803b1580156111e557600080fd5b505af11580156111f9573d6000803e3d6000fd5b50506007546040805163e9c8395760e01b81526004810187905290516001600160a01b03909216935063e9c83957925060248082019260009290919082900301818387803b15801561124a57600080fd5b505af115801561125e573d6000803e3d6000fd5b5050600954600854604080516364a197f360e01b81526001600160a01b0392831660048201526024810187905290519190921693506364a197f3925060448083019260209291908290030181600087803b1580156112bb57600080fd5b505af11580156112cf573d6000803e3d6000fd5b505050506040513d60208110156112e557600080fd5b505060055460085460408051632770a7eb60e21b81526001600160a01b0392831660048201526024810186905290519190921691639dc29fac9160448083019260209291908290030181600087803b15801561134057600080fd5b505af1158015611354573d6000803e3d6000fd5b505050506040513d602081101561136a57600080fd5b5061137d9050888363ffffffff61308f16565b8552611389878261308f565b602086015250929695505050505050565b600b546001600160a01b031681565b6001546000906001600160a01b03166113c06109b3565b6001600160a01b0316146114055760405162461bcd60e51b81526004018080602001828103825260298152602001806138b86029913960400191505060405180910390fd5b600b546040805163e9c8395760e01b81526004810186905290516001600160a01b039092169163e9c839579160248082019260009290919082900301818387803b15801561145257600080fd5b505af1158015611466573d6000803e3d6000fd5b505060095460408051634de7363160e01b81526004810188905290516001600160a01b039092169350634de73631925060248082019260009290919082900301818387803b1580156114b757600080fd5b505af11580156114cb573d6000803e3d6000fd5b5050600b54600a54604080516364a197f360e01b81526001600160a01b0392831660048201526024810188905290519190921693506364a197f3925060448083019260209291908290030181600087803b158015610d6457600080fd5b6001546000906001600160a01b031661153f6109b3565b6001600160a01b0316146115845760405162461bcd60e51b81526004018080602001828103825260298152602001806138b86029913960400191505060405180910390fd5b600b5460408051634de7363160e01b81526004810186905290516001600160a01b0390921691634de736319160248082019260009290919082900301818387803b1580156115d157600080fd5b505af11580156115e5573d6000803e3d6000fd5b50506009546040805163e9c8395760e01b81526004810188905290516001600160a01b03909216935063e9c83957925060248082019260009290919082900301818387803b15801561163657600080fd5b505af115801561164a573d6000803e3d6000fd5b5050600954600c54604080516364a197f360e01b81526001600160a01b0392831660048201526024810188905290519190921693506364a197f3925060448083019260209291908290030181600087803b158015610d6457600080fd5b6009546040805163e1cf19c160e01b815290516000926001600160a01b03169163e1cf19c1916004808301926020929190829003018186803b158015610a4857600080fd5b600f5481565b600e5481565b611700611b30565b611751576040805162461bcd60e51b815260206004820181905260248201527f4f776e61626c653a2063616c6c6572206973206e6f7420746865206f776e6572604482015290519081900360640190fd5b600080546040516001600160a01b03909116907f8be0079c531659141344cd1fd0a4f28419497f9722a3daafe3b4186f6b6457e0908390a3600080546001600160a01b0319169055565b6117a3611b30565b6117f4576040805162461bcd60e51b815260206004820181905260248201527f4f776e61626c653a2063616c6c6572206973206e6f7420746865206f776e6572604482015290519081900360640190fd5b600480546001600160a01b0383166001600160a01b03199182168117909255600380549091168217905560408051918252517f8c537274438aa850a330284665d81a85dd38267d09e4050d416bfc94142db2649181900360200190a150565b60008061185e6109b3565b9050611868613759565b6118718261291e565b8051909150848101610c273382612cbe565b6001546000906001600160a01b031661189a6109b3565b6001600160a01b0316146118df5760405162461bcd60e51b81526004018080602001828103825260298152602001806138b86029913960400191505060405180910390fd5b6009546040805163e9c8395760e01b81526004810186905290516001600160a01b039092169163e9c839579160248082019260009290919082900301818387803b15801561192c57600080fd5b505af1158015611940573d6000803e3d6000fd5b5050600954604080516364a197f360e01b81526001600160a01b0389811660048301526024820188905291519190921693506364a197f3925060448083019260209291908290030181600087803b15801561199a57600080fd5b505af11580156119ae573d6000803e3d6000fd5b505050506040513d60208110156119c457600080fd5b505060055460408051632770a7eb60e21b81526001600160a01b0387811660048301526024820187905291519190921691639dc29fac9160448083019260209291908290030181600087803b158015611a1c57600080fd5b505af1158015611a30573d6000803e3d6000fd5b505050506040513d6020811015611a4657600080fd5b50600195945050505050565b6009546001600160a01b031681565b611a69611b30565b611aba576040805162461bcd60e51b815260206004820181905260248201527f4f776e61626c653a2063616c6c6572206973206e6f7420746865206f776e6572604482015290519081900360640190fd5b600c80546001600160a01b038084166001600160a01b0319928316811793849055600b80549093169390911692909217905560408051918252517f5ee0cae2f063ed938bb55046f6a932fb6ae792bf43624806bb90abe68a50be9b9181900360200190a150565b6000546001600160a01b031690565b600080546001600160a01b0316611b456109b3565b6001600160a01b031614905090565b600b546040805163e1cf19c160e01b815290516000926001600160a01b03169163e1cf19c1916004808301926020929190829003018186803b158015610a4857600080fd5b611ba1611b30565b611bf2576040805162461bcd60e51b815260206004820181905260248201527f4f776e61626c653a2063616c6c6572206973206e6f7420746865206f776e6572604482015290519081900360640190fd5b600880546001600160a01b038084166001600160a01b0319928316811793849055600780549093169390911692909217905560408051918252517f82966d27eea39b038ee0fa30cd16532bb24f6e65d31cb58fb227aa5766cdcc7f9181900360200190a150565b600c546001600160a01b031681565b600080611c736109b3565b9050826000611c8182612844565b6001600160a01b0383166000908152600d6020526040902054909150808211611cdb5760405162461bcd60e51b81526004018080602001828103825260298152602001806137cd6029913960400191505060405180910390fd5b6000611ce6846130d1565b9050600073__DeciMath______________________________63563d4c2384670de0b6b3a7640000876040518463ffffffff1660e01b815260040180848152602001838152602001828152602001935050505060206040518083038186803b158015611d5157600080fd5b505af4158015611d65573d6000803e3d6000fd5b505050506040513d6020811015611d7b57600080fd5b505190506000611da9670de0b6b3a7640000611d9d858563ffffffff61310a16565b9063ffffffff61316316565b90506000611dbd848363ffffffff61308f16565b6001600160a01b0388166000818152600d60208181526040808420848155600e5460108452948290206001810195909555600f54909455918152915481519384529183019190915280519293507fbce78369dccab09eec1986f4d409ab09ffbb47d65423e5148fcf98411c5111c992918290030190a17f3ad3a0af1c72b834ff87f9409d7124fd7d9b306560756548477325e6e09f5055600e54600f54604051808381526020018281526020019250505060405180910390a1600754604080516364a197f360e01b81526001600160a01b038b8116600483015260248201859052915191909216916364a197f39160448083019260209291908290030181600087803b158015611ecc57600080fd5b505af1158015611ee0573d6000803e3d6000fd5b505050506040513d6020811015611ef657600080fd5b5050600754604080516364a197f360e01b81526001600160a01b038a8116600483015260248201869052915191909216916364a197f39160448083019260209291908290030181600087803b158015611f4e57600080fd5b505af1158015611f62573d6000803e3d6000fd5b505050506040513d6020811015611f7857600080fd5b5050604080516001600160a01b03808b168252602082018490528916818301526060810184905290517f719a419f2a63c458272234c889194ae6dad9bf9b24d69cef17912f087ac8a6a89181900360800190a15060019998505050505050505050565b600a546001600160a01b031681565b600080600960009054906101000a90046001600160a01b03166001600160a01b03166314f6c3be6040518163ffffffff1660e01b815260040160206040518083038186803b15801561203b57600080fd5b505afa15801561204f573d6000803e3d6000fd5b505050506040513d602081101561206557600080fd5b50516009546040805163e1cf19c160e01b815290519293506000926001600160a01b039092169163e1cf19c191600480820192602092909190829003018186803b1580156120b257600080fd5b505afa1580156120c6573d6000803e3d6000fd5b505050506040513d60208110156120dc57600080fd5b5051600354604080517f98d5fdca00000000000000000000000000000000000000000000000000000000815290519293506000926001600160a01b03909216916398d5fdca91600480820192602092909190829003018186803b15801561214257600080fd5b505afa158015612156573d6000803e3d6000fd5b505050506040513d602081101561216c57600080fd5b505190508215801561217c575081155b1561218d57600193505050506109b5565b821580159061219a575081155b156121ac5760001993505050506109b5565b73__DeciMath______________________________63563d4c238483856040518463ffffffff1660e01b815260040180848152602001838152602001828152602001935050505060206040518083038186803b15801561220b57600080fd5b505af415801561221f573d6000803e3d6000fd5b505050506040513d602081101561223557600080fd5b5051935050505090565b600b5460408051630a7b61df60e11b815290516000926001600160a01b0316916314f6c3be916004808301926020929190829003018186803b158015610a4857600080fd5b6001546000906001600160a01b031661229b6109b3565b6001600160a01b0316146122e05760405162461bcd60e51b81526004018080602001828103825260298152602001806138b86029913960400191505060405180910390fd5b6009546040805163e9c8395760e01b81526004810185905290516001600160a01b039092169163e9c839579160248082019260009290919082900301818387803b15801561232d57600080fd5b505af1158015612341573d6000803e3d6000fd5b505060055460408051632770a7eb60e21b81526001600160a01b038881166004830152602482018890529151919092169350639dc29fac925060448083019260209291908290030181600087803b158015610d6457600080fd5b6006546001600160a01b031681565b6000806123b56109b3565b6001600160a01b0381166000908152600d60205260409020549091508061240d5760405162461bcd60e51b815260040180806020018281038252602e81526020018061382b602e913960400191505060405180910390fd5b600061241883612844565b9050612422613759565b61242b846131a5565b805190915061243a3382612cbe565b5060019550505050505090565b6004546001600160a01b031681565b61245e611b30565b6124af576040805162461bcd60e51b815260206004820181905260248201527f4f776e61626c653a2063616c6c6572206973206e6f7420746865206f776e6572604482015290519081900360640190fd5b600180546001600160a01b0383166001600160a01b03199182168117909255600280549091168217905560408051918252517f0addbd30df51ac41ccaf56a058c50522fbdc092b4e2ec8b829b29ad6716bd0979181900360200190a150565b600073__DeciMath______________________________63563d4c238585856040518463ffffffff1660e01b815260040180848152602001838152602001828152602001935050505060206040518083038186803b15801561256f57600080fd5b505af4158015612583573d6000803e3d6000fd5b505050506040513d602081101561259957600080fd5b5051949350505050565b6125ab611b30565b6125fc576040805162461bcd60e51b815260206004820181905260248201527f4f776e61626c653a2063616c6c6572206973206e6f7420746865206f776e6572604482015290519081900360640190fd5b612605816135bd565b50565b600d6020526000908152604090205481565b6001546000906001600160a01b03166126316109b3565b6001600160a01b0316146126765760405162461bcd60e51b81526004018080602001828103825260298152602001806138b86029913960400191505060405180910390fd5b600954604080516364a197f360e01b81526001600160a01b03868116600483015260248201869052915191909216916364a197f39160448083019260209291908290030181600087803b158015610d6457600080fd5b6126d4611b30565b612725576040805162461bcd60e51b815260206004820181905260248201527f4f776e61626c653a2063616c6c6572206973206e6f7420746865206f776e6572604482015290519081900360640190fd5b600a80546001600160a01b038084166001600160a01b0319928316811793849055600980549093169390911692909217905560408051918252517f78f058b189175430c48dc02699e3a0031ea4ff781536dc2fab847de4babdd8829181900360200190a150565b612794611b30565b6127e5576040805162461bcd60e51b815260206004820181905260248201527f4f776e61626c653a2063616c6c6572206973206e6f7420746865206f776e6572604482015290519081900360640190fd5b600680546001600160a01b0383166001600160a01b03199182168117909255600580549091168217905560408051918252517f373a23842c9bfba0a655597bb13c6493895da5266bd6617086a73f8dcfe2ae709181900360200190a150565b6001600160a01b0381166000908152600d60209081526040808320546010909252822060010154600e548390612880908363ffffffff61308f16565b905073__DeciMath______________________________63563d4c238483670de0b6b3a76400006040518463ffffffff1660e01b815260040180848152602001838152602001828152602001935050505060206040518083038186803b1580156128e957600080fd5b505af41580156128fd573d6000803e3d6000fd5b505050506040513d602081101561291357600080fd5b505195945050505050565b612926613759565b6001600160a01b0382166000908152600d602052604081205490612949846130d1565b9050600061295685612844565b905060008382111561296a5750600061296f565b508083035b6001600160a01b0386166000818152600d60208181526040808420848155600e5460108452948290206001810195909555600f54909455918152915481519384529183019190915280517fbce78369dccab09eec1986f4d409ab09ffbb47d65423e5148fcf98411c5111c99281900390910190a17f3ad3a0af1c72b834ff87f9409d7124fd7d9b306560756548477325e6e09f5055600e54600f54604051808381526020018281526020019250505060405180910390a16005546008546007546040805163e1cf19c160e01b815290516001600160a01b03948516946320c582be948116938c93612ab79389939092169163e1cf19c191600480820192602092909190829003018186803b158015612a8657600080fd5b505afa158015612a9a573d6000803e3d6000fd5b505050506040513d6020811015612ab057600080fd5b50516109e5565b6040518463ffffffff1660e01b815260040180846001600160a01b03166001600160a01b03168152602001836001600160a01b03166001600160a01b031681526020018281526020019350505050602060405180830381600087803b158015612b1f57600080fd5b505af1158015612b33573d6000803e3d6000fd5b505050506040513d6020811015612b4957600080fd5b50506007546040805163e9c8395760e01b81526004810184905290516001600160a01b039092169163e9c839579160248082019260009290919082900301818387803b158015612b9857600080fd5b505af1158015612bac573d6000803e3d6000fd5b505060075460408051631283abc560e21b81526004810189905290516001600160a01b039092169350634a0eaf14925060248082019260009290919082900301818387803b158015612bfd57600080fd5b505af1158015612c11573d6000803e3d6000fd5b5050600754604080516364a197f360e01b81526001600160a01b038b811660048301526024820189905291519190921693506364a197f3925060448083019260209291908290030181600087803b158015612c6b57600080fd5b505af1158015612c7f573d6000803e3d6000fd5b505050506040513d6020811015612c9557600080fd5b50612ca09050613759565b50604080518082019091529081526020810192909252509392505050565b6001600160a01b0382166000908152600d602052604081205415612d135760405162461bcd60e51b81526004018080602001828103825260358152602001806137f66035913960400191505060405180910390fd5b600554604080517f70a082310000000000000000000000000000000000000000000000000000000081526001600160a01b0386811660048301529151859392909216916370a0823191602480820192602092909190829003018186803b158015612d7c57600080fd5b505afa158015612d90573d6000803e3d6000fd5b505050506040513d6020811015612da657600080fd5b50511015612de55760405162461bcd60e51b815260040180806020018281038252603e81526020018061387a603e913960400191505060405180910390fd5b600554600854604080517fbb997bac0000000000000000000000000000000000000000000000000000000081526001600160a01b0387811660048301529283166024820152604481018690529051919092169163bb997bac9160648083019260209291908290030181600087803b158015612e5f57600080fd5b505af1158015612e73573d6000803e3d6000fd5b505050506040513d6020811015612e8957600080fd5b505060075460408051634de7363160e01b81526004810185905290516001600160a01b0390921691634de736319160248082019260009290919082900301818387803b158015612ed857600080fd5b505af1158015612eec573d6000803e3d6000fd5b5050600754604080517fde10fb780000000000000000000000000000000000000000000000000000000081526004810187905290516001600160a01b03909216935063de10fb78925060248082019260009290919082900301818387803b158015612f5657600080fd5b505af1158015612f6a573d6000803e3d6000fd5b5050506001600160a01b0384166000908152600d60209081526040808320869055600e805460108452938290206001810194909455600f54938490555481519081529182019290925281517f3ad3a0af1c72b834ff87f9409d7124fd7d9b306560756548477325e6e09f505593509081900390910190a1604080516001600160a01b03851681526020810184905281517fbce78369dccab09eec1986f4d409ab09ffbb47d65423e5148fcf98411c5111c9929181900390910190a150600192915050565b600082820183811015613088576040805162461bcd60e51b815260206004820152601b60248201527f536166654d6174683a206164646974696f6e206f766572666c6f770000000000604482015290519081900360640190fd5b9392505050565b600061308883836040518060400160405280601e81526020017f536166654d6174683a207375627472616374696f6e206f766572666c6f77000081525061365d565b6001600160a01b0381166000908152600d60209081526040808320546010909252822054600f548390612880908363ffffffff61308f16565b600082613119575060006109f8565b8282028284828161312657fe5b04146130885760405162461bcd60e51b81526004018080602001828103825260218152602001806138596021913960400191505060405180910390fd5b600061308883836040518060400160405280601a81526020017f536166654d6174683a206469766973696f6e206279207a65726f0000000000008152506136f4565b6131ad613759565b6001600160a01b0382166000908152600d6020526040902054806132025760405162461bcd60e51b815260040180806020018281038252602e81526020018061382b602e913960400191505060405180910390fd5b600061320d846130d1565b9050600061321a85612844565b905060008382111561322e57506000613233565b508083035b6001600160a01b0386166000818152600d60208181526040808420848155600e5460108452948290206001810195909555600f54909455918152915481519384529183019190915280517fbce78369dccab09eec1986f4d409ab09ffbb47d65423e5148fcf98411c5111c99281900390910190a17f3ad3a0af1c72b834ff87f9409d7124fd7d9b306560756548477325e6e09f5055600e54600f54604051808381526020018281526020019250505060405180910390a16005546008546007546040805163e1cf19c160e01b815290516001600160a01b03948516946320c582be948116938c9361334a9389939092169163e1cf19c191600480820192602092909190829003018186803b158015612a8657600080fd5b6040518463ffffffff1660e01b815260040180846001600160a01b03166001600160a01b03168152602001836001600160a01b03166001600160a01b031681526020018281526020019350505050602060405180830381600087803b1580156133b257600080fd5b505af11580156133c6573d6000803e3d6000fd5b505050506040513d60208110156133dc57600080fd5b50506007546040805163e9c8395760e01b81526004810184905290516001600160a01b039092169163e9c839579160248082019260009290919082900301818387803b15801561342b57600080fd5b505af115801561343f573d6000803e3d6000fd5b505060075460408051631283abc560e21b81526004810189905290516001600160a01b039092169350634a0eaf14925060248082019260009290919082900301818387803b15801561349057600080fd5b505af11580156134a4573d6000803e3d6000fd5b5050600754604080516364a197f360e01b81523060048201526024810188905290516001600160a01b0390921693506364a197f392506044808201926020929091908290030181600087803b1580156134fc57600080fd5b505af1158015613510573d6000803e3d6000fd5b505050506040513d602081101561352657600080fd5b5050600254604080517fe4f15d7b0000000000000000000000000000000000000000000000000000000081526001600160a01b0389811660048301529151919092169163e4f15d7b91869160248082019260209290919082900301818588803b15801561359257600080fd5b505af11580156135a6573d6000803e3d6000fd5b50505050506040513d6020811015612c9557600080fd5b6001600160a01b0381166136025760405162461bcd60e51b81526004018080602001828103825260268152602001806137786026913960400191505060405180910390fd5b600080546040516001600160a01b03808516939216917f8be0079c531659141344cd1fd0a4f28419497f9722a3daafe3b4186f6b6457e091a3600080546001600160a01b0319166001600160a01b0392909216919091179055565b600081848411156136ec5760405162461bcd60e51b81526004018080602001828103825283818151815260200191508051906020019080838360005b838110156136b1578181015183820152602001613699565b50505050905090810190601f1680156136de5780820380516001836020036101000a031916815260200191505b509250505060405180910390fd5b505050900390565b600081836137435760405162461bcd60e51b81526020600482018181528351602484015283519092839260449091019190850190808383600083156136b1578181015183820152602001613699565b50600083858161374f57fe5b0495945050505050565b6040518060400160405280600290602082028038833950919291505056fe4f776e61626c653a206e6577206f776e657220697320746865207a65726f2061646472657373506f6f6c4d616e616765723a207472616e73616374696f6e20746f20616374697665506f6f6c207265766572746564506f6f6c4d616e616765723a206465706f7369746f7220686173206e6f74206f766572737461796564506f6f6c4d616e616765723a207573657220616c72656164792068617320612053746162696c697479506f6f6c206465706f736974506f6f6c4d616e616765723a2055736572206d75737420686176652061206e6f6e2d7a65726f206465706f736974536166654d6174683a206d756c7469706c69636174696f6e206f766572666c6f77506f6f6c4d616e616765723a20757365722068617320696e73756666696369656e7420434c562062616c616e636520746f206d616b65206465706f736974506f6f6c4d616e616765723a2043616c6c6572206973206e6f7420746865204344504d616e61676572506f6f6c4d616e616765723a2043616c6c6572206973206e6f74207468652053746162696c697479506f6f6ca265627a7a723158207ac9488f04823414a9d76a4b8d0cd04871f6d693093cc196945d557aeb1d681764736f6c634300050b0032",
  "source": "pragma solidity ^0.5.11;\r\n\r\nimport './IPool.sol';\r\nimport './IPoolManager.sol';\r\nimport './ICDPManager.sol';\r\nimport './IStabilityPool.sol';\r\nimport './IPriceFeed.sol';\r\nimport './ICLVToken.sol';\r\nimport './DeciMath.sol';\r\nimport '../node_modules/@openzeppelin/contracts/math/SafeMath.sol';\r\nimport '../node_modules/@openzeppelin/contracts/ownership/Ownable.sol';\r\n\r\n// PoolManager maintains all pools \r\ncontract PoolManager is Ownable, IPoolManager {\r\n    using SafeMath for uint;\r\n\r\n    uint constant DIGITS = 1e18;\r\n\r\n    // --- Events ---\r\n    event CDPManagerAddressChanged(address _newCDPManagerAddress);\r\n    event PriceFeedAddressChanged(address _newPriceFeedAddress);\r\n    event CLVTokenAddressChanged(address _newCLVTokenAddress);\r\n    event StabilityPoolAddressChanged(address _newStabilityPoolAddress);\r\n    event ActivePoolAddressChanged(address _newActivePoolAddress);\r\n    event DefaultPoolAddressChanged(address _newDefaultPoolAddress);\r\n    event UserSnapshotUpdated(uint _CLV, uint _ETH);\r\n    event S_CLVUpdated(uint _S_CLV);\r\n    event S_ETHUpdated(uint _S_ETH);\r\n    event UserDepositChanged(address _user, uint _amount);\r\n    event OverstayPenaltyClaimed(address claimant, uint claimantReward, address depositor, uint remainder);\r\n\r\n    // --- Connected contract declarations ---\r\n    address public cdpManagerAddress;\r\n    ICDPManager cdpManager = ICDPManager(cdpManagerAddress);\r\n\r\n    IPriceFeed priceFeed;\r\n    address public priceFeedAddress;\r\n\r\n    ICLVToken CLV; \r\n    address public clvAddress;\r\n\r\n    IStabilityPool public stabilityPool;\r\n    address payable public stabilityPoolAddress;\r\n\r\n    IPool public activePool;\r\n    address payable public activePoolAddress;\r\n\r\n    IPool public defaultPool;\r\n    address payable public defaultPoolAddress;\r\n   \r\n   // --- Data structures ---\r\n   \r\n    mapping (address => uint) public deposit; \r\n\r\n      struct Snapshot {\r\n        uint ETH;\r\n        uint CLV;\r\n    }\r\n    \r\n    /* Track the sums of accumulated rewards per unit staked: S_CLV and S_ETH. During it's lifetime, each deposit earns:\r\n\r\n    A CLV *loss* of ( deposit * [S_CLV - S_CLV(0)] )\r\n    An ETH *gain* of ( deposit * [S_ETH - S_ETH(0)] ) \r\n    \r\n    Where S_CLV(0) and S_ETH(0) are snapshots of S_CLV and S_ETH taken at the instant the deposit was made */\r\n    uint public S_CLV; \r\n    uint public S_ETH; \r\n\r\n    // Map users to their individual snapshots of S_CLV and the S_ETH\r\n    mapping (address => Snapshot) public snapshot;\r\n\r\n    // --- Modifiers ---\r\n    modifier onlyCDPManager() {\r\n        require(_msgSender() == cdpManagerAddress, \"PoolManager: Caller is not the CDPManager\");\r\n        _;\r\n    }\r\n\r\n    modifier onlyStabilityPool {\r\n        require(\r\n            _msgSender() == stabilityPoolAddress, \"PoolManager: Caller is not the StabilityPool\");\r\n        _;\r\n    }\r\n\r\n    constructor() public {}\r\n\r\n    // --- Dependency setters ---\r\n    function setCDPManagerAddress(address _cdpManagerAddress) public onlyOwner {\r\n        cdpManagerAddress = _cdpManagerAddress;\r\n        cdpManager = ICDPManager(_cdpManagerAddress);\r\n        emit CDPManagerAddressChanged(_cdpManagerAddress);\r\n    }\r\n\r\n     function setPriceFeed(address _priceFeedAddress) public onlyOwner {\r\n        priceFeedAddress = _priceFeedAddress;\r\n        priceFeed = IPriceFeed(_priceFeedAddress);\r\n        emit PriceFeedAddressChanged(_priceFeedAddress);\r\n    }\r\n\r\n    function setCLVToken(address _CLVAddress) public onlyOwner {\r\n        clvAddress = _CLVAddress;\r\n        CLV = ICLVToken(_CLVAddress); \r\n        emit CLVTokenAddressChanged(_CLVAddress);\r\n    }\r\n\r\n    function setStabilityPool(address payable _stabilityPoolAddress) public onlyOwner {\r\n        stabilityPoolAddress = _stabilityPoolAddress;\r\n        stabilityPool = IStabilityPool(stabilityPoolAddress);\r\n        emit StabilityPoolAddressChanged(_stabilityPoolAddress);\r\n    }\r\n\r\n    function setActivePool(address payable _activePoolAddress) public onlyOwner {\r\n        activePoolAddress = _activePoolAddress;\r\n        activePool = IPool(activePoolAddress);\r\n        emit ActivePoolAddressChanged(_activePoolAddress);\r\n    }\r\n\r\n    function setDefaultPool(address payable _defaultPoolAddress) public onlyOwner {\r\n        defaultPoolAddress = _defaultPoolAddress;\r\n        defaultPool = IPool(defaultPoolAddress);\r\n        emit DefaultPoolAddressChanged(_defaultPoolAddress);\r\n    }\r\n\r\n    // --- Getters ---\r\n    function getAccurateMulDiv(uint x, uint y, uint z) public pure returns(uint) {\r\n        return DeciMath.accurateMulDiv(x, y, z);\r\n    }\r\n\r\n    // Return the total collateral ratio of the system\r\n    function getTCR() \r\n        view \r\n        public \r\n        returns (uint) \r\n    {\r\n        uint activePoolETH = activePool.getETH();\r\n        uint activePoolCLV = activePool.getCLV();\r\n        uint price = priceFeed.getPrice();\r\n        \r\n        // Handle edge cases of div by 0\r\n        if(activePoolETH == 0 && activePoolCLV == 0 ) { \r\n            return 1;\r\n        }  else if (activePoolETH != 0 && activePoolCLV == 0 ) {\r\n            return 2**256 - 1; // TCR is technically infinite\r\n        }\r\n\r\n        // Calculate TCR\r\n        return DeciMath.accurateMulDiv(activePoolETH, price, activePoolCLV);\r\n    }\r\n    \r\n    // Return the current ETH balance of the TokenPools contract\r\n    function getBalance() \r\n        public\r\n        view\r\n        returns (uint)\r\n    {\r\n        return address(this).balance;\r\n    } \r\n    \r\n    // Return the total active debt (in CLV) in the system\r\n    function getActiveDebt() \r\n        public\r\n        view\r\n        returns (uint)\r\n    {\r\n        return activePool.getCLV();\r\n    }    \r\n    \r\n    // Return the total active collateral (in ETH) in the system\r\n    function getActiveColl() \r\n        public\r\n        view\r\n        returns (uint)\r\n    {\r\n        return activePool.getETH();\r\n    } \r\n    \r\n    // Return the amount of closed debt (in CLV)\r\n    function getClosedDebt() \r\n        public\r\n        view\r\n        returns (uint)\r\n    {\r\n        return defaultPool.getCLV();\r\n    }    \r\n    \r\n    // Return the amount of closed collateral (in ETH)\r\n    function getClosedColl() \r\n        public\r\n        view\r\n        returns (uint)\r\n    {\r\n        return defaultPool.getETH();\r\n    }  \r\n    \r\n    // Return the lower value from two given integers\r\n    function getMin(uint a, uint b) \r\n        public\r\n        pure\r\n        returns (uint)\r\n    {\r\n        if (a <= b) return a;\r\n        else return b;\r\n    }    \r\n    \r\n    // Add the received ETH to the total active collateral\r\n    function addColl()\r\n        public\r\n        payable\r\n        onlyCDPManager\r\n        returns (bool)\r\n    {\r\n        // Send ETH to Active Pool and increase its recorded ETH balance \r\n       (bool success, ) = activePoolAddress.call.value(msg.value)(\"\");\r\n       require (success == true, 'PoolManager: transaction to activePool reverted');\r\n       return success;\r\n    }\r\n    \r\n    // Transfer the specified amount of ETH to _account and updates the total active collateral \r\n    function withdrawColl(address payable _account, uint _ETH)\r\n        public\r\n        onlyCDPManager\r\n        returns (bool)\r\n    {\r\n        activePool.sendETH(_account, _ETH);\r\n        return true;\r\n    }\r\n    \r\n    // Issue the specified amount of CLV to _account and increases the total active debt\r\n    function withdrawCLV(address _account, uint _CLV)\r\n        public\r\n        onlyCDPManager\r\n        returns (bool)\r\n    {\r\n        activePool.increaseCLV(_CLV);\r\n        CLV.mint(_account, _CLV);\r\n                \r\n        return true;\r\n    }\r\n    \r\n    // Burn the specified amount of CLV from _account and decreases the total active debt\r\n    function repayCLV(address _account, uint _CLV)\r\n        public\r\n        onlyCDPManager\r\n        returns (bool)\r\n    {\r\n        activePool.decreaseCLV(_CLV);\r\n        CLV.burn(_account, _CLV);\r\n        \r\n        return true;\r\n    }           \r\n    \r\n    // Update the Active Pool and the Default Pool when a CDP gets closed\r\n    function close(uint _CLV, uint _ETH)\r\n        public\r\n        onlyCDPManager\r\n        returns (bool)\r\n    {\r\n        // Transfer the debt & coll from the Active Pool to the Default Pool\r\n        defaultPool.increaseCLV(_CLV);\r\n        activePool.decreaseCLV(_CLV);\r\n        activePool.sendETH(defaultPoolAddress, _ETH);\r\n        \r\n        return true;\r\n    }    \r\n    \r\n    // Update the Active Pool and the Default Pool when a CDP obtains a default share\r\n    function obtainDefaultShare(uint _CLV, uint _ETH)\r\n        public\r\n        onlyCDPManager\r\n        returns (bool)\r\n    {    \r\n        // Transfer the debt & coll from the Default Pool to the Active Pool\r\n        defaultPool.decreaseCLV(_CLV);\r\n        activePool.increaseCLV(_CLV);\r\n        defaultPool.sendETH(activePoolAddress, _ETH);\r\n \r\n        return true;\r\n    }\r\n    \r\n    // Burn the received CLV, transfers the redeemed ETH to _account and updates the Active Pool\r\n    function redeemCollateral(address payable _account, uint _CLV, uint _ETH)\r\n        public\r\n        onlyCDPManager\r\n        returns (bool)\r\n    {    \r\n        // Update Active Pool CLV, and send ETH to account\r\n        activePool.decreaseCLV(_CLV);\r\n        activePool.sendETH(_account, _ETH);\r\n        \r\n        CLV.burn(_account, _CLV);\r\n\r\n        return true;\r\n    }    \r\n\r\n    // Return the accumulated change, for the user, for the duration that this deposit was held\r\n    function getCurrentETHGain(address _user) internal view returns(uint) {\r\n        uint userDeposit = deposit[_user];\r\n        uint snapshotETH = snapshot[_user].ETH;\r\n        uint rewardPerUnitStaked = S_ETH.sub(snapshotETH);\r\n        return DeciMath.accurateMulDiv(userDeposit, rewardPerUnitStaked, DIGITS);\r\n    }\r\n\r\n    function getCurrentCLVLoss(address _user) internal view returns(uint) {\r\n        uint userDeposit = deposit[_user];\r\n        uint snapshotCLV = snapshot[_user].CLV;\r\n        uint rewardPerUnitStaked = S_CLV.sub(snapshotCLV);\r\n        return DeciMath.accurateMulDiv(userDeposit, rewardPerUnitStaked, DIGITS);\r\n    }\r\n\r\n    // --- Internal  StabilityPool functions --- \r\n\r\n    // Deposit _amount CLV from _address, to the Stability Pool.\r\n    function depositCLV(address _address, uint _amount) internal returns(bool) {\r\n        require(deposit[_address] == 0, \"PoolManager: user already has a StabilityPool deposit\");\r\n        require(CLV.balanceOf(_address) >= _amount, \"PoolManager: user has insufficient CLV balance to make deposit\");\r\n        \r\n        // Transfer the CLV tokens from the user to the Stability Pool's address, and update its recorded CLV\r\n        CLV.sendToPool(_address, stabilityPoolAddress, _amount);\r\n        stabilityPool.increaseCLV(_amount);\r\n        stabilityPool.increaseTotalCLVDeposits(_amount);\r\n        \r\n        // Record the deposit made by user\r\n        deposit[_address] = _amount;\r\n    \r\n        // Record new individual snapshots of the running totals S_CLV and S_ETH for the user\r\n        snapshot[_address].CLV = S_CLV;\r\n        snapshot[_address].ETH = S_ETH;\r\n\r\n        emit UserSnapshotUpdated(S_CLV, S_ETH);\r\n        emit UserDepositChanged(_address, _amount);\r\n        return true;\r\n    }\r\n\r\n   // Transfers _address's entitled CLV (CLVDeposit - CLVLoss) and their ETHGain, to _address.\r\n    function retrieveToUser(address payable _address) internal returns(uint[2] memory) {\r\n        uint userDeposit = deposit[_address];\r\n\r\n        uint ETHShare = getCurrentETHGain(_address);\r\n        uint CLVLoss = getCurrentCLVLoss(_address);\r\n        uint CLVShare;\r\n\r\n        // If user's deposit is an 'overstay', they retrieve 0 CLV\r\n        if (CLVLoss > userDeposit) {\r\n            CLVShare = 0;\r\n        } else {\r\n            CLVShare = userDeposit - CLVLoss;\r\n        }\r\n\r\n        // Update deposit and snapshots\r\n        deposit[_address] = 0;\r\n\r\n        snapshot[_address].CLV = S_CLV;\r\n        snapshot[_address].ETH = S_ETH;\r\n\r\n        emit UserDepositChanged(_address, deposit[_address]);\r\n        emit UserSnapshotUpdated(S_CLV, S_ETH);\r\n\r\n        // Send CLV to user and decrease CLV in Pool\r\n        CLV.returnFromPool(stabilityPoolAddress, _address, getMin(CLVShare, stabilityPool.getCLV()));\r\n        stabilityPool.decreaseCLV(CLVShare);\r\n        stabilityPool.decreaseTotalCLVDeposits(userDeposit);\r\n\r\n        // Send ETH to user\r\n        stabilityPool.sendETH(_address, ETHShare);\r\n\r\n        uint[2] memory shares = [CLVShare, ETHShare];\r\n        return shares;\r\n    }\r\n\r\n    // Transfer _address's entitled CLV (userDeposit - CLVLoss) to _address, and their ETHGain to their CDP.\r\n    function retrieveToCDP(address payable _address) internal returns(uint[2] memory) {\r\n        uint userDeposit = deposit[_address];\r\n        require(userDeposit > 0, 'PoolManager: User must have a non-zero deposit');\r\n        \r\n        uint ETHShare = getCurrentETHGain(_address);\r\n        uint CLVLoss = getCurrentCLVLoss(_address);\r\n        uint CLVShare;\r\n\r\n        // If user's deposit is an 'overstay', they retrieve 0 CLV\r\n        if (CLVLoss > userDeposit) {\r\n            CLVShare = 0;\r\n        } else {\r\n            CLVShare = userDeposit - CLVLoss;\r\n        }\r\n\r\n        // Update deposit and snapshots\r\n        deposit[_address] = 0;\r\n\r\n        snapshot[_address].CLV = S_CLV;\r\n        snapshot[_address].ETH = S_ETH;\r\n\r\n        emit UserDepositChanged(_address, deposit[_address]);\r\n        emit UserSnapshotUpdated(S_CLV, S_ETH);\r\n\r\n        // Send CLV to user and decrease CLV in StabilityPool\r\n        CLV.returnFromPool(stabilityPoolAddress, _address, getMin(CLVShare, stabilityPool.getCLV()));\r\n        stabilityPool.decreaseCLV(CLVShare);\r\n        stabilityPool.decreaseTotalCLVDeposits(userDeposit);\r\n\r\n        // Pull ETHShare from StabilityPool, and send to CDP\r\n        stabilityPool.sendETH(address(this), ETHShare);\r\n        cdpManager.addColl.value(ETHShare)(_address);\r\n        \r\n        uint[2] memory shares = [CLVShare, ETHShare];\r\n        return shares;\r\n    }\r\n\r\n    // --- External StabilityPool Functions ---\r\n\r\n    /* Send ETHGain to user's address, and updates their deposit, \r\n    setting newDeposit = (oldDeposit - CLVLoss) + amount. */\r\n    function provideToSP(uint _amount) external returns(bool) {\r\n        address payable user = _msgSender();\r\n\r\n        uint[2] memory returnedVals = retrieveToUser(user);\r\n\r\n        uint returnedCLV = returnedVals[0];\r\n\r\n        uint newDeposit = returnedCLV + _amount;\r\n        depositCLV(msg.sender, newDeposit);\r\n\r\n        return true;\r\n    }\r\n\r\n    /* Withdraw _amount of CLV and the callers entire ETHGain from the \r\n    Stability Pool, and updates the callers reduced deposit. \r\n\r\n    If  _amount is 0, the user only withdraws their ETHGain, no CLV.\r\n    If _amount > (userDeposit - CLVLoss), the user withdraws all their ETHGain and all available CLV.\r\n\r\n    In all cases, the entire ETHGain is sent to user, and the CLVLoss is applied to their deposit. */\r\n    function withdrawFromSP(uint _amount) external returns(bool) {\r\n        address payable user = _msgSender();\r\n        uint userDeposit = deposit[user];\r\n        require(userDeposit > 0, 'PoolManager: User must have a non-zero deposit');\r\n\r\n        uint CLVLoss = getCurrentCLVLoss(user);\r\n\r\n        // Retrieve all CLV and ETH for the user\r\n        uint[2] memory returnedVals = retrieveToUser(user);\r\n\r\n        uint returnedCLV = returnedVals[0];\r\n\r\n        // If requested withdrawal amount is less than available CLV, re-deposit the difference.\r\n        if (_amount < returnedCLV) {\r\n            depositCLV(user, returnedCLV - _amount);\r\n        }\r\n\r\n        return true;\r\n    }\r\n\r\n    /* Transfer the callers entire ETHGain from the Stability Pool to the callers CDP. \r\n    Applies their CLVLoss to the deposit. */\r\n    function withdrawFromSPtoCDP() external returns(bool) {\r\n        address payable user = _msgSender();\r\n        uint userDeposit = deposit[user];\r\n        require(userDeposit > 0, 'PoolManager: User must have a non-zero deposit');\r\n\r\n        uint CLVLoss = getCurrentCLVLoss(user);\r\n\r\n        // Retrieve all CLV to user's CLV balance, and ETH to their CDP\r\n        uint[2] memory returnedVals = retrieveToCDP(user);\r\n\r\n        uint returnedCLV = returnedVals[0];\r\n\r\n        // Update deposit, applying CLVLoss\r\n        depositCLV(msg.sender, returnedCLV);\r\n\r\n        return true;\r\n    }\r\n\r\n    /* Withdraw a 'penalty' fraction of an overstayed depositor's ETHGain.  \r\n    \r\n    Callable by anyone when _depositor's CLVLoss > deposit. */\r\n    function withdrawPenaltyFromSP(address payable _address) external returns(bool) {\r\n        address payable claimant = _msgSender();\r\n        address payable depositor = _address;\r\n        \r\n        uint CLVLoss = getCurrentCLVLoss(depositor);\r\n        uint depositAmount = deposit[depositor];\r\n        require(CLVLoss > depositAmount, \"PoolManager: depositor has not overstayed\");\r\n\r\n        uint ETHGain = getCurrentETHGain(depositor);\r\n\r\n        /* Depositor is penalised for overstaying - i.e. letting CLVLoss grow larger than their deposit.\r\n       \r\n        Depositor's ETH entitlement is reduced to ETHGain * (deposit/CLVLoss).\r\n        The claimant retrieves ETHGain * (1 - deposit/CLVLoss). */\r\n        uint ratio = DeciMath.accurateMulDiv(depositAmount, DIGITS, CLVLoss);\r\n        uint depositorRemainder = ETHGain.mul(ratio).div(DIGITS);\r\n        uint claimantReward = ETHGain.sub(depositorRemainder);\r\n        \r\n        // Update deposit and snapshots\r\n        deposit[depositor] = 0;\r\n        snapshot[depositor].CLV = S_CLV;\r\n        snapshot[depositor].ETH = S_ETH;\r\n\r\n        emit UserDepositChanged(depositor, deposit[depositor]);\r\n        emit UserSnapshotUpdated(S_CLV, S_ETH);\r\n\r\n        // Send reward to claimant, and remainder to depositor\r\n        stabilityPool.sendETH(claimant, claimantReward);\r\n        stabilityPool.sendETH(depositor, depositorRemainder);\r\n        emit OverstayPenaltyClaimed(claimant, claimantReward, depositor, depositorRemainder);\r\n\r\n        return true;\r\n    }\r\n\r\n     /* Cancel out the specified _debt against the CLV contained in the Stability Pool (as far as possible)  \r\n    and transfers the CDP's ETH collateral from ActivePool to StabilityPool. \r\n    Returns the amount of debt that could not be cancelled, and the corresponding ether.\r\n    Only callable from close() and closeCDPs() functions in CDPManager */\r\n    function offset(uint _debt, uint _coll) external payable onlyCDPManager returns (uint[2] memory) \r\n    {    \r\n        uint[2] memory remainder;\r\n        uint totalCLVDeposits = stabilityPool.getTotalCLVDeposits();\r\n        uint CLVinPool = stabilityPool.getCLV();\r\n        \r\n        // When Stability Pool has no CLV or no deposits, return all debt and coll\r\n        if (CLVinPool == 0 || totalCLVDeposits == 0 ) {\r\n            remainder[0] = _debt;\r\n            remainder[1] = _coll;\r\n            return remainder;\r\n        }\r\n        \r\n        // If the debt is larger than the deposited CLV, offset an amount of debt corresponding to the latter\r\n        uint debtToOffset = getMin(_debt, CLVinPool);\r\n        // Collateral to be added in proportion to the debt that is cancelled\r\n        uint collToAdd =  DeciMath.accurateMulDiv(debtToOffset, _coll, _debt);\r\n        \r\n        // Update the running total S_CLV by adding the ratio between the distributed debt and the CLV in the pool\r\n        S_CLV = S_CLV.add( DeciMath.accurateMulDiv(debtToOffset,  DIGITS, totalCLVDeposits) );\r\n        emit S_CLVUpdated(S_CLV);\r\n        // Update the running total S_ETH by adding the ratio between the distributed collateral and the ETH in the pool\r\n        S_ETH = S_ETH.add( DeciMath.accurateMulDiv(collToAdd, DIGITS, totalCLVDeposits) );\r\n        emit S_ETHUpdated(S_ETH);\r\n        // Cancel the liquidated CLV debt with the CLV in the stability pool\r\n        activePool.decreaseCLV(debtToOffset);  \r\n        stabilityPool.decreaseCLV(debtToOffset); \r\n        // Send ETH from Active Pool to Stability Pool\r\n        activePool.sendETH(stabilityPoolAddress, collToAdd);  \r\n        \r\n        // Burn the debt that was successfully offset\r\n        CLV.burn(stabilityPoolAddress, debtToOffset);\r\n        \r\n        // Return the amount of debt & coll that could not be offset against the Stability Pool due to insufficiency\r\n        remainder[0] = _debt.sub(debtToOffset);\r\n        remainder[1] = _coll.sub(collToAdd);\r\n        return remainder;\r\n    }\r\n\r\n    function () external payable onlyStabilityPool {}\r\n}    ",
  "sourcePath": "c:/Users/Rick/Desktop/Cleverage/contracts/PoolManager.sol",
  "compiler": {
    "name": "solc",
    "version": "0.5.11+commit.c082d0b4.Emscripten.clang"
  },
  "schemaVersion": "3.0.20",
  "updatedAt": "2019-12-30T00:39:24.240Z",
  "devdoc": {
    "methods": {
      "isOwner()": {
        "details": "Returns true if the caller is the current owner."
      },
      "owner()": {
        "details": "Returns the address of the current owner."
      },
      "renounceOwnership()": {
        "details": "Leaves the contract without owner. It will not be possible to call `onlyOwner` functions anymore. Can only be called by the current owner.     * NOTE: Renouncing ownership will leave the contract without an owner, thereby removing any functionality that is only available to the owner."
      },
      "transferOwnership(address)": {
        "details": "Transfers ownership of the contract to a new account (`newOwner`). Can only be called by the current owner."
      }
    }
  },
  "userdoc": {
    "methods": {}
  }
}