{
  "contractName": "PoolManager",
  "abi": [
    {
      "inputs": [],
      "payable": false,
      "stateMutability": "nonpayable",
      "type": "constructor"
    },
    {
      "anonymous": false,
      "inputs": [
        {
          "indexed": false,
          "internalType": "address",
          "name": "_newActivePoolAddress",
          "type": "address"
        }
      ],
      "name": "ActivePoolAddressChanged",
      "type": "event"
    },
    {
      "anonymous": false,
      "inputs": [
        {
          "indexed": false,
          "internalType": "address",
          "name": "_newCDPManagerAddress",
          "type": "address"
        }
      ],
      "name": "CDPManagerAddressChanged",
      "type": "event"
    },
    {
      "anonymous": false,
      "inputs": [
        {
          "indexed": false,
          "internalType": "address",
          "name": "_newCLVTokenAddress",
          "type": "address"
        }
      ],
      "name": "CLVTokenAddressChanged",
      "type": "event"
    },
    {
      "anonymous": false,
      "inputs": [
        {
          "indexed": false,
          "internalType": "address",
          "name": "_newDefaultPoolAddress",
          "type": "address"
        }
      ],
      "name": "DefaultPoolAddressChanged",
      "type": "event"
    },
    {
      "anonymous": false,
      "inputs": [
        {
          "indexed": true,
          "internalType": "address",
          "name": "previousOwner",
          "type": "address"
        },
        {
          "indexed": true,
          "internalType": "address",
          "name": "newOwner",
          "type": "address"
        }
      ],
      "name": "OwnershipTransferred",
      "type": "event"
    },
    {
      "anonymous": false,
      "inputs": [
        {
          "indexed": false,
          "internalType": "address",
          "name": "_newPriceFeedAddress",
          "type": "address"
        }
      ],
      "name": "PriceFeedAddressChanged",
      "type": "event"
    },
    {
      "anonymous": false,
      "inputs": [
        {
          "indexed": false,
          "internalType": "uint256",
          "name": "_S_CLV",
          "type": "uint256"
        }
      ],
      "name": "S_CLVUpdated",
      "type": "event"
    },
    {
      "anonymous": false,
      "inputs": [
        {
          "indexed": false,
          "internalType": "uint256",
          "name": "_S_ETH",
          "type": "uint256"
        }
      ],
      "name": "S_ETHUpdated",
      "type": "event"
    },
    {
      "anonymous": false,
      "inputs": [
        {
          "indexed": false,
          "internalType": "address",
          "name": "_newStabilityPoolAddress",
          "type": "address"
        }
      ],
      "name": "StabilityPoolAddressChanged",
      "type": "event"
    },
    {
      "anonymous": false,
      "inputs": [
        {
          "indexed": false,
          "internalType": "address",
          "name": "_user",
          "type": "address"
        },
        {
          "indexed": false,
          "internalType": "uint256",
          "name": "_amount",
          "type": "uint256"
        }
      ],
      "name": "UserDepositChanged",
      "type": "event"
    },
    {
      "anonymous": false,
      "inputs": [
        {
          "indexed": false,
          "internalType": "uint256",
          "name": "_CLV",
          "type": "uint256"
        },
        {
          "indexed": false,
          "internalType": "uint256",
          "name": "_ETH",
          "type": "uint256"
        }
      ],
      "name": "UserSnapshotUpdated",
      "type": "event"
    },
    {
      "constant": true,
      "inputs": [],
      "name": "S_CLV",
      "outputs": [
        {
          "internalType": "uint256",
          "name": "",
          "type": "uint256"
        }
      ],
      "payable": false,
      "stateMutability": "view",
      "type": "function"
    },
    {
      "constant": true,
      "inputs": [],
      "name": "S_ETH",
      "outputs": [
        {
          "internalType": "uint256",
          "name": "",
          "type": "uint256"
        }
      ],
      "payable": false,
      "stateMutability": "view",
      "type": "function"
    },
    {
      "constant": true,
      "inputs": [],
      "name": "activePool",
      "outputs": [
        {
          "internalType": "contract IPool",
          "name": "",
          "type": "address"
        }
      ],
      "payable": false,
      "stateMutability": "view",
      "type": "function"
    },
    {
      "constant": true,
      "inputs": [],
      "name": "activePoolAddress",
      "outputs": [
        {
          "internalType": "address payable",
          "name": "",
          "type": "address"
        }
      ],
      "payable": false,
      "stateMutability": "view",
      "type": "function"
    },
    {
      "constant": true,
      "inputs": [],
      "name": "cdpManagerAddress",
      "outputs": [
        {
          "internalType": "address",
          "name": "",
          "type": "address"
        }
      ],
      "payable": false,
      "stateMutability": "view",
      "type": "function"
    },
    {
      "constant": true,
      "inputs": [],
      "name": "clvAddress",
      "outputs": [
        {
          "internalType": "address",
          "name": "",
          "type": "address"
        }
      ],
      "payable": false,
      "stateMutability": "view",
      "type": "function"
    },
    {
      "constant": true,
      "inputs": [],
      "name": "defaultPool",
      "outputs": [
        {
          "internalType": "contract IPool",
          "name": "",
          "type": "address"
        }
      ],
      "payable": false,
      "stateMutability": "view",
      "type": "function"
    },
    {
      "constant": true,
      "inputs": [],
      "name": "defaultPoolAddress",
      "outputs": [
        {
          "internalType": "address payable",
          "name": "",
          "type": "address"
        }
      ],
      "payable": false,
      "stateMutability": "view",
      "type": "function"
    },
    {
      "constant": true,
      "inputs": [
        {
          "internalType": "address",
          "name": "",
          "type": "address"
        }
      ],
      "name": "deposit",
      "outputs": [
        {
          "internalType": "uint256",
          "name": "",
          "type": "uint256"
        }
      ],
      "payable": false,
      "stateMutability": "view",
      "type": "function"
    },
    {
      "constant": true,
      "inputs": [],
      "name": "isOwner",
      "outputs": [
        {
          "internalType": "bool",
          "name": "",
          "type": "bool"
        }
      ],
      "payable": false,
      "stateMutability": "view",
      "type": "function"
    },
    {
      "constant": true,
      "inputs": [],
      "name": "owner",
      "outputs": [
        {
          "internalType": "address",
          "name": "",
          "type": "address"
        }
      ],
      "payable": false,
      "stateMutability": "view",
      "type": "function"
    },
    {
      "constant": true,
      "inputs": [],
      "name": "priceFeedAddress",
      "outputs": [
        {
          "internalType": "address",
          "name": "",
          "type": "address"
        }
      ],
      "payable": false,
      "stateMutability": "view",
      "type": "function"
    },
    {
      "constant": false,
      "inputs": [],
      "name": "renounceOwnership",
      "outputs": [],
      "payable": false,
      "stateMutability": "nonpayable",
      "type": "function"
    },
    {
      "constant": true,
      "inputs": [
        {
          "internalType": "address",
          "name": "",
          "type": "address"
        }
      ],
      "name": "snapshot",
      "outputs": [
        {
          "internalType": "uint256",
          "name": "ETH",
          "type": "uint256"
        },
        {
          "internalType": "uint256",
          "name": "CLV",
          "type": "uint256"
        }
      ],
      "payable": false,
      "stateMutability": "view",
      "type": "function"
    },
    {
      "constant": true,
      "inputs": [],
      "name": "stabilityPool",
      "outputs": [
        {
          "internalType": "contract IStabilityPool",
          "name": "",
          "type": "address"
        }
      ],
      "payable": false,
      "stateMutability": "view",
      "type": "function"
    },
    {
      "constant": true,
      "inputs": [],
      "name": "stabilityPoolAddress",
      "outputs": [
        {
          "internalType": "address payable",
          "name": "",
          "type": "address"
        }
      ],
      "payable": false,
      "stateMutability": "view",
      "type": "function"
    },
    {
      "constant": true,
      "inputs": [
        {
          "internalType": "address",
          "name": "",
          "type": "address"
        }
      ],
      "name": "totalPendingCLVChange",
      "outputs": [
        {
          "internalType": "uint256",
          "name": "",
          "type": "uint256"
        }
      ],
      "payable": false,
      "stateMutability": "view",
      "type": "function"
    },
    {
      "constant": true,
      "inputs": [
        {
          "internalType": "address",
          "name": "",
          "type": "address"
        }
      ],
      "name": "totalPendingETHChange",
      "outputs": [
        {
          "internalType": "uint256",
          "name": "",
          "type": "uint256"
        }
      ],
      "payable": false,
      "stateMutability": "view",
      "type": "function"
    },
    {
      "constant": false,
      "inputs": [
        {
          "internalType": "address",
          "name": "newOwner",
          "type": "address"
        }
      ],
      "name": "transferOwnership",
      "outputs": [],
      "payable": false,
      "stateMutability": "nonpayable",
      "type": "function"
    },
    {
      "constant": false,
      "inputs": [
        {
          "internalType": "address",
          "name": "_cdpManagerAddress",
          "type": "address"
        }
      ],
      "name": "setCDPManagerAddress",
      "outputs": [],
      "payable": false,
      "stateMutability": "nonpayable",
      "type": "function"
    },
    {
      "constant": false,
      "inputs": [
        {
          "internalType": "address",
          "name": "_priceFeedAddress",
          "type": "address"
        }
      ],
      "name": "setPriceFeed",
      "outputs": [],
      "payable": false,
      "stateMutability": "nonpayable",
      "type": "function"
    },
    {
      "constant": false,
      "inputs": [
        {
          "internalType": "address",
          "name": "_CLVAddress",
          "type": "address"
        }
      ],
      "name": "setCLVToken",
      "outputs": [],
      "payable": false,
      "stateMutability": "nonpayable",
      "type": "function"
    },
    {
      "constant": false,
      "inputs": [
        {
          "internalType": "address payable",
          "name": "_stabilityPoolAddress",
          "type": "address"
        }
      ],
      "name": "setStabilityPool",
      "outputs": [],
      "payable": false,
      "stateMutability": "nonpayable",
      "type": "function"
    },
    {
      "constant": false,
      "inputs": [
        {
          "internalType": "address payable",
          "name": "_activePoolAddress",
          "type": "address"
        }
      ],
      "name": "setActivePool",
      "outputs": [],
      "payable": false,
      "stateMutability": "nonpayable",
      "type": "function"
    },
    {
      "constant": false,
      "inputs": [
        {
          "internalType": "address payable",
          "name": "_defaultPoolAddress",
          "type": "address"
        }
      ],
      "name": "setDefaultPool",
      "outputs": [],
      "payable": false,
      "stateMutability": "nonpayable",
      "type": "function"
    },
    {
      "constant": true,
      "inputs": [
        {
          "internalType": "uint256",
          "name": "x",
          "type": "uint256"
        },
        {
          "internalType": "uint256",
          "name": "y",
          "type": "uint256"
        },
        {
          "internalType": "uint256",
          "name": "z",
          "type": "uint256"
        }
      ],
      "name": "getAccurateMulDiv",
      "outputs": [
        {
          "internalType": "uint256",
          "name": "",
          "type": "uint256"
        }
      ],
      "payable": false,
      "stateMutability": "pure",
      "type": "function"
    },
    {
      "constant": true,
      "inputs": [],
      "name": "getTCR",
      "outputs": [
        {
          "internalType": "uint256",
          "name": "",
          "type": "uint256"
        }
      ],
      "payable": false,
      "stateMutability": "view",
      "type": "function"
    },
    {
      "constant": true,
      "inputs": [],
      "name": "getBalance",
      "outputs": [
        {
          "internalType": "uint256",
          "name": "",
          "type": "uint256"
        }
      ],
      "payable": false,
      "stateMutability": "view",
      "type": "function"
    },
    {
      "constant": true,
      "inputs": [],
      "name": "getActiveDebt",
      "outputs": [
        {
          "internalType": "uint256",
          "name": "",
          "type": "uint256"
        }
      ],
      "payable": false,
      "stateMutability": "view",
      "type": "function"
    },
    {
      "constant": true,
      "inputs": [],
      "name": "getActiveColl",
      "outputs": [
        {
          "internalType": "uint256",
          "name": "",
          "type": "uint256"
        }
      ],
      "payable": false,
      "stateMutability": "view",
      "type": "function"
    },
    {
      "constant": true,
      "inputs": [],
      "name": "getClosedDebt",
      "outputs": [
        {
          "internalType": "uint256",
          "name": "",
          "type": "uint256"
        }
      ],
      "payable": false,
      "stateMutability": "view",
      "type": "function"
    },
    {
      "constant": true,
      "inputs": [],
      "name": "getClosedColl",
      "outputs": [
        {
          "internalType": "uint256",
          "name": "",
          "type": "uint256"
        }
      ],
      "payable": false,
      "stateMutability": "view",
      "type": "function"
    },
    {
      "constant": true,
      "inputs": [
        {
          "internalType": "uint256",
          "name": "a",
          "type": "uint256"
        },
        {
          "internalType": "uint256",
          "name": "b",
          "type": "uint256"
        }
      ],
      "name": "getMin",
      "outputs": [
        {
          "internalType": "uint256",
          "name": "",
          "type": "uint256"
        }
      ],
      "payable": false,
      "stateMutability": "pure",
      "type": "function"
    },
    {
      "constant": false,
      "inputs": [],
      "name": "addColl",
      "outputs": [
        {
          "internalType": "bool",
          "name": "",
          "type": "bool"
        }
      ],
      "payable": true,
      "stateMutability": "payable",
      "type": "function"
    },
    {
      "constant": false,
      "inputs": [
        {
          "internalType": "address payable",
          "name": "_account",
          "type": "address"
        },
        {
          "internalType": "uint256",
          "name": "_ETH",
          "type": "uint256"
        }
      ],
      "name": "withdrawColl",
      "outputs": [
        {
          "internalType": "bool",
          "name": "",
          "type": "bool"
        }
      ],
      "payable": false,
      "stateMutability": "nonpayable",
      "type": "function"
    },
    {
      "constant": false,
      "inputs": [
        {
          "internalType": "address",
          "name": "_account",
          "type": "address"
        },
        {
          "internalType": "uint256",
          "name": "_CLV",
          "type": "uint256"
        }
      ],
      "name": "withdrawCLV",
      "outputs": [
        {
          "internalType": "bool",
          "name": "",
          "type": "bool"
        }
      ],
      "payable": false,
      "stateMutability": "nonpayable",
      "type": "function"
    },
    {
      "constant": false,
      "inputs": [
        {
          "internalType": "address",
          "name": "_account",
          "type": "address"
        },
        {
          "internalType": "uint256",
          "name": "_CLV",
          "type": "uint256"
        }
      ],
      "name": "repayCLV",
      "outputs": [
        {
          "internalType": "bool",
          "name": "",
          "type": "bool"
        }
      ],
      "payable": false,
      "stateMutability": "nonpayable",
      "type": "function"
    },
    {
      "constant": false,
      "inputs": [
        {
          "internalType": "uint256",
          "name": "_CLV",
          "type": "uint256"
        },
        {
          "internalType": "uint256",
          "name": "_ETH",
          "type": "uint256"
        }
      ],
      "name": "close",
      "outputs": [
        {
          "internalType": "bool",
          "name": "",
          "type": "bool"
        }
      ],
      "payable": false,
      "stateMutability": "nonpayable",
      "type": "function"
    },
    {
      "constant": false,
      "inputs": [
        {
          "internalType": "uint256",
          "name": "_CLV",
          "type": "uint256"
        },
        {
          "internalType": "uint256",
          "name": "_ETH",
          "type": "uint256"
        }
      ],
      "name": "obtainDefaultShare",
      "outputs": [
        {
          "internalType": "bool",
          "name": "",
          "type": "bool"
        }
      ],
      "payable": false,
      "stateMutability": "nonpayable",
      "type": "function"
    },
    {
      "constant": false,
      "inputs": [
        {
          "internalType": "address payable",
          "name": "_account",
          "type": "address"
        },
        {
          "internalType": "uint256",
          "name": "_CLV",
          "type": "uint256"
        },
        {
          "internalType": "uint256",
          "name": "_ETH",
          "type": "uint256"
        }
      ],
      "name": "redeemCollateral",
      "outputs": [
        {
          "internalType": "bool",
          "name": "",
          "type": "bool"
        }
      ],
      "payable": false,
      "stateMutability": "nonpayable",
      "type": "function"
    },
    {
      "constant": false,
      "inputs": [
        {
          "internalType": "uint256",
          "name": "_amount",
          "type": "uint256"
        }
      ],
      "name": "depositCLV",
      "outputs": [
        {
          "internalType": "bool",
          "name": "",
          "type": "bool"
        }
      ],
      "payable": false,
      "stateMutability": "nonpayable",
      "type": "function"
    },
    {
      "constant": false,
      "inputs": [
        {
          "internalType": "uint256",
          "name": "_debt",
          "type": "uint256"
        },
        {
          "internalType": "uint256",
          "name": "_coll",
          "type": "uint256"
        }
      ],
      "name": "offset",
      "outputs": [
        {
          "internalType": "uint256[2]",
          "name": "",
          "type": "uint256[2]"
        }
      ],
      "payable": true,
      "stateMutability": "payable",
      "type": "function"
    },
    {
      "constant": false,
      "inputs": [
        {
          "internalType": "uint256",
          "name": "_amount",
          "type": "uint256"
        }
      ],
      "name": "retrieve",
      "outputs": [
        {
          "internalType": "bool",
          "name": "",
          "type": "bool"
        }
      ],
      "payable": false,
      "stateMutability": "nonpayable",
      "type": "function"
    }
  ],
  "bytecode": "0x60806040523480156200001157600080fd5b5062000022620000e360201b60201c565b6000806101000a81548173ffffffffffffffffffffffffffffffffffffffff021916908373ffffffffffffffffffffffffffffffffffffffff1602179055506000809054906101000a900473ffffffffffffffffffffffffffffffffffffffff1673ffffffffffffffffffffffffffffffffffffffff16600073ffffffffffffffffffffffffffffffffffffffff167f8be0079c531659141344cd1fd0a4f28419497f9722a3daafe3b4186f6b6457e060405160405180910390a3620000eb565b600033905090565b61537c80620000fb6000396000f3fe60806040526004361061025c5760003560e01c80637f7dde4a11610144578063b7a2a463116100b6578063efb028c31161007a578063efb028c314610d91578063f2fde38b14610df4578063f340fa0114610e45578063f568dd8e14610eaa578063f7883a8b14610f1d578063fefb4c5814610f6e5761025c565b8063b7a2a46314610bf4578063b96c518114610c1f578063d31cadf614610c92578063e0abca0b14610ce9578063ef6151a614610d405761025c565b80639594897d116101085780639594897d14610a4c57806398d721e014610a77578063aac1846f14610ac8578063b08bc72214610b1f578063b4f8adc514610b76578063b620115d14610bc95761025c565b80637f7dde4a146108cb5780638c192ed4146109225780638da5cb5b146109735780638f32d59b146109ca5780638f88708b146109f95761025c565b8063335525ad116101dd578063697b93fd116101a1578063697b93fd146107655780636bad519814610790578063708249b3146107bb578063715018a6146107e6578063724e78da146107fd5780637cb19fe81461084e5761025c565b8063335525ad1461057b5780633cc74225146105ef57806347f2462f146106465780634d5bc111146106ab578063596c8976146107085761025c565b8063185ef83011610224578063185ef830146103ea5780631f5499071461044f57806325a2e6e71461047a578063265121601461049c5780632e90bbd8146105085761025c565b806302f6567f14610261578063048c661d146102b85780630b622ab21461030f5780630fd95db51461036657806312065fe0146103bf575b600080fd5b34801561026d57600080fd5b50610276610fbf565b604051808273ffffffffffffffffffffffffffffffffffffffff1673ffffffffffffffffffffffffffffffffffffffff16815260200191505060405180910390f35b3480156102c457600080fd5b506102cd610fe5565b604051808273ffffffffffffffffffffffffffffffffffffffff1673ffffffffffffffffffffffffffffffffffffffff16815260200191505060405180910390f35b34801561031b57600080fd5b5061032461100b565b604051808273ffffffffffffffffffffffffffffffffffffffff1673ffffffffffffffffffffffffffffffffffffffff16815260200191505060405180910390f35b34801561037257600080fd5b506103a96004803603604081101561038957600080fd5b810190808035906020019092919080359060200190929190505050611031565b6040518082815260200191505060405180910390f35b3480156103cb57600080fd5b506103d461104c565b6040518082815260200191505060405180910390f35b3480156103f657600080fd5b506104396004803603602081101561040d57600080fd5b81019080803573ffffffffffffffffffffffffffffffffffffffff16906020019092919050505061106b565b6040518082815260200191505060405180910390f35b34801561045b57600080fd5b50610464611083565b6040518082815260200191505060405180910390f35b61048261112d565b604051808215151515815260200191505060405180910390f35b3480156104a857600080fd5b506104eb600480360360208110156104bf57600080fd5b81019080803573ffffffffffffffffffffffffffffffffffffffff1690602001909291905050506112cb565b604051808381526020018281526020019250505060405180910390f35b34801561051457600080fd5b506105616004803603604081101561052b57600080fd5b81019080803573ffffffffffffffffffffffffffffffffffffffff169060200190929190803590602001909291905050506112ef565b604051808215151515815260200191505060405180910390f35b6105b16004803603604081101561059157600080fd5b81019080803590602001909291908035906020019092919050505061151a565b6040518082600260200280838360005b838110156105dc5780820151818401526020810190506105c1565b5050505090500191505060405180910390f35b3480156105fb57600080fd5b50610604611e20565b604051808273ffffffffffffffffffffffffffffffffffffffff1673ffffffffffffffffffffffffffffffffffffffff16815260200191505060405180910390f35b34801561065257600080fd5b506106956004803603602081101561066957600080fd5b81019080803573ffffffffffffffffffffffffffffffffffffffff169060200190929190505050611e46565b6040518082815260200191505060405180910390f35b3480156106b757600080fd5b506106ee600480360360408110156106ce57600080fd5b810190808035906020019092919080359060200190929190505050611e5e565b604051808215151515815260200191505060405180910390f35b34801561071457600080fd5b5061074b6004803603604081101561072b57600080fd5b810190808035906020019092919080359060200190929190505050612138565b604051808215151515815260200191505060405180910390f35b34801561077157600080fd5b5061077a612412565b6040518082815260200191505060405180910390f35b34801561079c57600080fd5b506107a56124bc565b6040518082815260200191505060405180910390f35b3480156107c757600080fd5b506107d06124c2565b6040518082815260200191505060405180910390f35b3480156107f257600080fd5b506107fb6124c8565b005b34801561080957600080fd5b5061084c6004803603602081101561082057600080fd5b81019080803573ffffffffffffffffffffffffffffffffffffffff169060200190929190505050612601565b005b34801561085a57600080fd5b506108b16004803603606081101561087157600080fd5b81019080803573ffffffffffffffffffffffffffffffffffffffff1690602001909291908035906020019092919080359060200190929190505050612763565b604051808215151515815260200191505060405180910390f35b3480156108d757600080fd5b506108e0612a74565b604051808273ffffffffffffffffffffffffffffffffffffffff1673ffffffffffffffffffffffffffffffffffffffff16815260200191505060405180910390f35b34801561092e57600080fd5b506109716004803603602081101561094557600080fd5b81019080803573ffffffffffffffffffffffffffffffffffffffff169060200190929190505050612a9a565b005b34801561097f57600080fd5b50610988612c1e565b604051808273ffffffffffffffffffffffffffffffffffffffff1673ffffffffffffffffffffffffffffffffffffffff16815260200191505060405180910390f35b3480156109d657600080fd5b506109df612c47565b604051808215151515815260200191505060405180910390f35b348015610a0557600080fd5b50610a3260048036036020811015610a1c57600080fd5b8101908080359060200190929190505050612ca5565b604051808215151515815260200191505060405180910390f35b348015610a5857600080fd5b50610a61613477565b6040518082815260200191505060405180910390f35b348015610a8357600080fd5b50610ac660048036036020811015610a9a57600080fd5b81019080803573ffffffffffffffffffffffffffffffffffffffff169060200190929190505050613521565b005b348015610ad457600080fd5b50610add6136a5565b604051808273ffffffffffffffffffffffffffffffffffffffff1673ffffffffffffffffffffffffffffffffffffffff16815260200191505060405180910390f35b348015610b2b57600080fd5b50610b346136cb565b604051808273ffffffffffffffffffffffffffffffffffffffff1673ffffffffffffffffffffffffffffffffffffffff16815260200191505060405180910390f35b348015610b8257600080fd5b50610baf60048036036020811015610b9957600080fd5b81019080803590602001909291905050506136f1565b604051808215151515815260200191505060405180910390f35b348015610bd557600080fd5b50610bde613ee0565b6040518082815260200191505060405180910390f35b348015610c0057600080fd5b50610c096141db565b6040518082815260200191505060405180910390f35b348015610c2b57600080fd5b50610c7860048036036040811015610c4257600080fd5b81019080803573ffffffffffffffffffffffffffffffffffffffff16906020019092919080359060200190929190505050614285565b604051808215151515815260200191505060405180910390f35b348015610c9e57600080fd5b50610ca76144b0565b604051808273ffffffffffffffffffffffffffffffffffffffff1673ffffffffffffffffffffffffffffffffffffffff16815260200191505060405180910390f35b348015610cf557600080fd5b50610cfe6144d6565b604051808273ffffffffffffffffffffffffffffffffffffffff1673ffffffffffffffffffffffffffffffffffffffff16815260200191505060405180910390f35b348015610d4c57600080fd5b50610d8f60048036036020811015610d6357600080fd5b81019080803573ffffffffffffffffffffffffffffffffffffffff1690602001909291905050506144fc565b005b348015610d9d57600080fd5b50610dde60048036036060811015610db457600080fd5b8101908080359060200190929190803590602001909291908035906020019092919050505061461d565b6040518082815260200191505060405180910390f35b348015610e0057600080fd5b50610e4360048036036020811015610e1757600080fd5b81019080803573ffffffffffffffffffffffffffffffffffffffff1690602001909291905050506146c2565b005b348015610e5157600080fd5b50610e9460048036036020811015610e6857600080fd5b81019080803573ffffffffffffffffffffffffffffffffffffffff169060200190929190505050614748565b6040518082815260200191505060405180910390f35b348015610eb657600080fd5b50610f0360048036036040811015610ecd57600080fd5b81019080803573ffffffffffffffffffffffffffffffffffffffff16906020019092919080359060200190929190505050614760565b604051808215151515815260200191505060405180910390f35b348015610f2957600080fd5b50610f6c60048036036020811015610f4057600080fd5b81019080803573ffffffffffffffffffffffffffffffffffffffff1690602001909291905050506148fe565b005b348015610f7a57600080fd5b50610fbd60048036036020811015610f9157600080fd5b81019080803573ffffffffffffffffffffffffffffffffffffffff169060200190929190505050614a82565b005b600160009054906101000a900473ffffffffffffffffffffffffffffffffffffffff1681565b600660009054906101000a900473ffffffffffffffffffffffffffffffffffffffff1681565b600760009054906101000a900473ffffffffffffffffffffffffffffffffffffffff1681565b600081831161104257829050611046565b8190505b92915050565b60003073ffffffffffffffffffffffffffffffffffffffff1631905090565b60116020528060005260406000206000915090505481565b6000600860009054906101000a900473ffffffffffffffffffffffffffffffffffffffff1673ffffffffffffffffffffffffffffffffffffffff166314f6c3be6040518163ffffffff1660e01b815260040160206040518083038186803b1580156110ed57600080fd5b505afa158015611101573d6000803e3d6000fd5b505050506040513d602081101561111757600080fd5b8101908080519060200190929190505050905090565b6000600160009054906101000a900473ffffffffffffffffffffffffffffffffffffffff1673ffffffffffffffffffffffffffffffffffffffff16611170614be4565b73ffffffffffffffffffffffffffffffffffffffff16146111dc576040517f08c379a000000000000000000000000000000000000000000000000000000000815260040180806020018281038252602981526020018061531f6029913960400191505060405180910390fd5b6000600960009054906101000a900473ffffffffffffffffffffffffffffffffffffffff1673ffffffffffffffffffffffffffffffffffffffff163460405180600001905060006040518083038185875af1925050503d806000811461125e576040519150601f19603f3d011682016040523d82523d6000602084013e611263565b606091505b5050905060011515811515146112c4576040517f08c379a000000000000000000000000000000000000000000000000000000000815260040180806020018281038252602f8152602001806152ce602f913960400191505060405180910390fd5b8091505090565b600f6020528060005260406000206000915090508060000154908060010154905082565b6000600160009054906101000a900473ffffffffffffffffffffffffffffffffffffffff1673ffffffffffffffffffffffffffffffffffffffff16611332614be4565b73ffffffffffffffffffffffffffffffffffffffff161461139e576040517f08c379a000000000000000000000000000000000000000000000000000000000815260040180806020018281038252602981526020018061531f6029913960400191505060405180910390fd5b600860009054906101000a900473ffffffffffffffffffffffffffffffffffffffff1673ffffffffffffffffffffffffffffffffffffffff16634de73631836040518263ffffffff1660e01b815260040180828152602001915050600060405180830381600087803b15801561141357600080fd5b505af1158015611427573d6000803e3d6000fd5b50505050600460009054906101000a900473ffffffffffffffffffffffffffffffffffffffff1673ffffffffffffffffffffffffffffffffffffffff166340c10f1984846040518363ffffffff1660e01b8152600401808373ffffffffffffffffffffffffffffffffffffffff1673ffffffffffffffffffffffffffffffffffffffff16815260200182815260200192505050602060405180830381600087803b1580156114d457600080fd5b505af11580156114e8573d6000803e3d6000fd5b505050506040513d60208110156114fe57600080fd5b8101908080519060200190929190505050506001905092915050565b6115226151ec565b600160009054906101000a900473ffffffffffffffffffffffffffffffffffffffff1673ffffffffffffffffffffffffffffffffffffffff16611563614be4565b73ffffffffffffffffffffffffffffffffffffffff16146115cf576040517f08c379a000000000000000000000000000000000000000000000000000000000815260040180806020018281038252602981526020018061531f6029913960400191505060405180910390fd5b6115d76151ec565b6000600660009054906101000a900473ffffffffffffffffffffffffffffffffffffffff1673ffffffffffffffffffffffffffffffffffffffff1663e1cf19c16040518163ffffffff1660e01b815260040160206040518083038186803b15801561164157600080fd5b505afa158015611655573d6000803e3d6000fd5b505050506040513d602081101561166b57600080fd5b810190808051906020019092919050505014156116b957838160006002811061169057fe5b60200201818152505082816001600281106116a757fe5b60200201818152505080915050611e1a565b600061176785600660009054906101000a900473ffffffffffffffffffffffffffffffffffffffff1673ffffffffffffffffffffffffffffffffffffffff1663e1cf19c16040518163ffffffff1660e01b815260040160206040518083038186803b15801561172757600080fd5b505afa15801561173b573d6000803e3d6000fd5b505050506040513d602081101561175157600080fd5b8101908080519060200190929190505050611031565b9050600073__DeciMath______________________________63563d4c238387896040518463ffffffff1660e01b815260040180848152602001838152602001828152602001935050505060206040518083038186803b1580156117ca57600080fd5b505af41580156117de573d6000803e3d6000fd5b505050506040513d60208110156117f457600080fd5b810190808051906020019092919050505090506000600660009054906101000a900473ffffffffffffffffffffffffffffffffffffffff1673ffffffffffffffffffffffffffffffffffffffff1663b73977766040518163ffffffff1660e01b815260040160206040518083038186803b15801561187157600080fd5b505afa158015611885573d6000803e3d6000fd5b505050506040513d602081101561189b57600080fd5b8101908080519060200190929190505050905061196473__DeciMath______________________________63563d4c2385670de0b6b3a7640000856040518463ffffffff1660e01b815260040180848152602001838152602001828152602001935050505060206040518083038186803b15801561191857600080fd5b505af415801561192c573d6000803e3d6000fd5b505050506040513d602081101561194257600080fd5b8101908080519060200190929190505050600d54614bec90919063ffffffff16565b600d819055507f5c256972fe7489f98ce15d224bf8dab74d0e19cc6aa966608916a15f6f60d0f7600d546040518082815260200191505060405180910390a1611a5973__DeciMath______________________________63563d4c2384670de0b6b3a7640000856040518463ffffffff1660e01b815260040180848152602001838152602001828152602001935050505060206040518083038186803b158015611a0d57600080fd5b505af4158015611a21573d6000803e3d6000fd5b505050506040513d6020811015611a3757600080fd5b8101908080519060200190929190505050600e54614bec90919063ffffffff16565b600e819055507f929e5fb9f1edf861ea5c93ad246b11b366de90467ba54a72bcb6f04e4d719591600e546040518082815260200191505060405180910390a1600860009054906101000a900473ffffffffffffffffffffffffffffffffffffffff1673ffffffffffffffffffffffffffffffffffffffff1663e9c83957846040518263ffffffff1660e01b815260040180828152602001915050600060405180830381600087803b158015611b0d57600080fd5b505af1158015611b21573d6000803e3d6000fd5b50505050600660009054906101000a900473ffffffffffffffffffffffffffffffffffffffff1673ffffffffffffffffffffffffffffffffffffffff1663e9c83957846040518263ffffffff1660e01b815260040180828152602001915050600060405180830381600087803b158015611b9a57600080fd5b505af1158015611bae573d6000803e3d6000fd5b50505050600860009054906101000a900473ffffffffffffffffffffffffffffffffffffffff1673ffffffffffffffffffffffffffffffffffffffff166364a197f3600760009054906101000a900473ffffffffffffffffffffffffffffffffffffffff16846040518363ffffffff1660e01b8152600401808373ffffffffffffffffffffffffffffffffffffffff1673ffffffffffffffffffffffffffffffffffffffff16815260200182815260200192505050602060405180830381600087803b158015611c7d57600080fd5b505af1158015611c91573d6000803e3d6000fd5b505050506040513d6020811015611ca757600080fd5b810190808051906020019092919050505050600460009054906101000a900473ffffffffffffffffffffffffffffffffffffffff1673ffffffffffffffffffffffffffffffffffffffff16639dc29fac600760009054906101000a900473ffffffffffffffffffffffffffffffffffffffff16856040518363ffffffff1660e01b8152600401808373ffffffffffffffffffffffffffffffffffffffff1673ffffffffffffffffffffffffffffffffffffffff16815260200182815260200192505050602060405180830381600087803b158015611d8457600080fd5b505af1158015611d98573d6000803e3d6000fd5b505050506040513d6020811015611dae57600080fd5b810190808051906020019092919050505050611dd38388614c7490919063ffffffff16565b84600060028110611de057fe5b602002018181525050611dfc8287614c7490919063ffffffff16565b84600160028110611e0957fe5b602002018181525050839450505050505b92915050565b600a60009054906101000a900473ffffffffffffffffffffffffffffffffffffffff1681565b60106020528060005260406000206000915090505481565b6000600160009054906101000a900473ffffffffffffffffffffffffffffffffffffffff1673ffffffffffffffffffffffffffffffffffffffff16611ea1614be4565b73ffffffffffffffffffffffffffffffffffffffff1614611f0d576040517f08c379a000000000000000000000000000000000000000000000000000000000815260040180806020018281038252602981526020018061531f6029913960400191505060405180910390fd5b600a60009054906101000a900473ffffffffffffffffffffffffffffffffffffffff1673ffffffffffffffffffffffffffffffffffffffff1663e9c83957846040518263ffffffff1660e01b815260040180828152602001915050600060405180830381600087803b158015611f8257600080fd5b505af1158015611f96573d6000803e3d6000fd5b50505050600860009054906101000a900473ffffffffffffffffffffffffffffffffffffffff1673ffffffffffffffffffffffffffffffffffffffff16634de73631846040518263ffffffff1660e01b815260040180828152602001915050600060405180830381600087803b15801561200f57600080fd5b505af1158015612023573d6000803e3d6000fd5b50505050600a60009054906101000a900473ffffffffffffffffffffffffffffffffffffffff1673ffffffffffffffffffffffffffffffffffffffff166364a197f3600960009054906101000a900473ffffffffffffffffffffffffffffffffffffffff16846040518363ffffffff1660e01b8152600401808373ffffffffffffffffffffffffffffffffffffffff1673ffffffffffffffffffffffffffffffffffffffff16815260200182815260200192505050602060405180830381600087803b1580156120f257600080fd5b505af1158015612106573d6000803e3d6000fd5b505050506040513d602081101561211c57600080fd5b8101908080519060200190929190505050506001905092915050565b6000600160009054906101000a900473ffffffffffffffffffffffffffffffffffffffff1673ffffffffffffffffffffffffffffffffffffffff1661217b614be4565b73ffffffffffffffffffffffffffffffffffffffff16146121e7576040517f08c379a000000000000000000000000000000000000000000000000000000000815260040180806020018281038252602981526020018061531f6029913960400191505060405180910390fd5b600a60009054906101000a900473ffffffffffffffffffffffffffffffffffffffff1673ffffffffffffffffffffffffffffffffffffffff16634de73631846040518263ffffffff1660e01b815260040180828152602001915050600060405180830381600087803b15801561225c57600080fd5b505af1158015612270573d6000803e3d6000fd5b50505050600860009054906101000a900473ffffffffffffffffffffffffffffffffffffffff1673ffffffffffffffffffffffffffffffffffffffff1663e9c83957846040518263ffffffff1660e01b815260040180828152602001915050600060405180830381600087803b1580156122e957600080fd5b505af11580156122fd573d6000803e3d6000fd5b50505050600860009054906101000a900473ffffffffffffffffffffffffffffffffffffffff1673ffffffffffffffffffffffffffffffffffffffff166364a197f3600b60009054906101000a900473ffffffffffffffffffffffffffffffffffffffff16846040518363ffffffff1660e01b8152600401808373ffffffffffffffffffffffffffffffffffffffff1673ffffffffffffffffffffffffffffffffffffffff16815260200182815260200192505050602060405180830381600087803b1580156123cc57600080fd5b505af11580156123e0573d6000803e3d6000fd5b505050506040513d60208110156123f657600080fd5b8101908080519060200190929190505050506001905092915050565b6000600860009054906101000a900473ffffffffffffffffffffffffffffffffffffffff1673ffffffffffffffffffffffffffffffffffffffff1663e1cf19c16040518163ffffffff1660e01b815260040160206040518083038186803b15801561247c57600080fd5b505afa158015612490573d6000803e3d6000fd5b505050506040513d60208110156124a657600080fd5b8101908080519060200190929190505050905090565b600e5481565b600d5481565b6124d0612c47565b612542576040517f08c379a00000000000000000000000000000000000000000000000000000000081526004018080602001828103825260208152602001807f4f776e61626c653a2063616c6c6572206973206e6f7420746865206f776e657281525060200191505060405180910390fd5b600073ffffffffffffffffffffffffffffffffffffffff166000809054906101000a900473ffffffffffffffffffffffffffffffffffffffff1673ffffffffffffffffffffffffffffffffffffffff167f8be0079c531659141344cd1fd0a4f28419497f9722a3daafe3b4186f6b6457e060405160405180910390a360008060006101000a81548173ffffffffffffffffffffffffffffffffffffffff021916908373ffffffffffffffffffffffffffffffffffffffff160217905550565b612609612c47565b61267b576040517f08c379a00000000000000000000000000000000000000000000000000000000081526004018080602001828103825260208152602001807f4f776e61626c653a2063616c6c6572206973206e6f7420746865206f776e657281525060200191505060405180910390fd5b80600360006101000a81548173ffffffffffffffffffffffffffffffffffffffff021916908373ffffffffffffffffffffffffffffffffffffffff16021790555080600260006101000a81548173ffffffffffffffffffffffffffffffffffffffff021916908373ffffffffffffffffffffffffffffffffffffffff1602179055507f8c537274438aa850a330284665d81a85dd38267d09e4050d416bfc94142db26481604051808273ffffffffffffffffffffffffffffffffffffffff1673ffffffffffffffffffffffffffffffffffffffff16815260200191505060405180910390a150565b6000600160009054906101000a900473ffffffffffffffffffffffffffffffffffffffff1673ffffffffffffffffffffffffffffffffffffffff166127a6614be4565b73ffffffffffffffffffffffffffffffffffffffff1614612812576040517f08c379a000000000000000000000000000000000000000000000000000000000815260040180806020018281038252602981526020018061531f6029913960400191505060405180910390fd5b600860009054906101000a900473ffffffffffffffffffffffffffffffffffffffff1673ffffffffffffffffffffffffffffffffffffffff1663e9c83957846040518263ffffffff1660e01b815260040180828152602001915050600060405180830381600087803b15801561288757600080fd5b505af115801561289b573d6000803e3d6000fd5b50505050600860009054906101000a900473ffffffffffffffffffffffffffffffffffffffff1673ffffffffffffffffffffffffffffffffffffffff166364a197f385846040518363ffffffff1660e01b8152600401808373ffffffffffffffffffffffffffffffffffffffff1673ffffffffffffffffffffffffffffffffffffffff16815260200182815260200192505050602060405180830381600087803b15801561294857600080fd5b505af115801561295c573d6000803e3d6000fd5b505050506040513d602081101561297257600080fd5b810190808051906020019092919050505050600460009054906101000a900473ffffffffffffffffffffffffffffffffffffffff1673ffffffffffffffffffffffffffffffffffffffff16639dc29fac85856040518363ffffffff1660e01b8152600401808373ffffffffffffffffffffffffffffffffffffffff1673ffffffffffffffffffffffffffffffffffffffff16815260200182815260200192505050602060405180830381600087803b158015612a2d57600080fd5b505af1158015612a41573d6000803e3d6000fd5b505050506040513d6020811015612a5757600080fd5b810190808051906020019092919050505050600190509392505050565b600860009054906101000a900473ffffffffffffffffffffffffffffffffffffffff1681565b612aa2612c47565b612b14576040517f08c379a00000000000000000000000000000000000000000000000000000000081526004018080602001828103825260208152602001807f4f776e61626c653a2063616c6c6572206973206e6f7420746865206f776e657281525060200191505060405180910390fd5b80600b60006101000a81548173ffffffffffffffffffffffffffffffffffffffff021916908373ffffffffffffffffffffffffffffffffffffffff160217905550600b60009054906101000a900473ffffffffffffffffffffffffffffffffffffffff16600a60006101000a81548173ffffffffffffffffffffffffffffffffffffffff021916908373ffffffffffffffffffffffffffffffffffffffff1602179055507f5ee0cae2f063ed938bb55046f6a932fb6ae792bf43624806bb90abe68a50be9b81604051808273ffffffffffffffffffffffffffffffffffffffff1673ffffffffffffffffffffffffffffffffffffffff16815260200191505060405180910390a150565b60008060009054906101000a900473ffffffffffffffffffffffffffffffffffffffff16905090565b60008060009054906101000a900473ffffffffffffffffffffffffffffffffffffffff1673ffffffffffffffffffffffffffffffffffffffff16612c89614be4565b73ffffffffffffffffffffffffffffffffffffffff1614905090565b600080612cb0614be4565b90506000600c60008373ffffffffffffffffffffffffffffffffffffffff1673ffffffffffffffffffffffffffffffffffffffff16815260200190815260200160002054905060008111612d4f576040517f08c379a00000000000000000000000000000000000000000000000000000000081526004018080602001828103825260228152602001806152fd6022913960400191505060405180910390fd5b80841115612da8576040517f08c379a000000000000000000000000000000000000000000000000000000000815260040180806020018281038252603c81526020018061520f603c913960400191505060405180910390fd5b6000612dbd8286614cbe90919063ffffffff16565b90506000612dcb8484614d08565b90506000612dd98585614e15565b90506000612e41612e3284601060008a73ffffffffffffffffffffffffffffffffffffffff1673ffffffffffffffffffffffffffffffffffffffff16815260200190815260200160002054614bec90919063ffffffff16565b86614c7490919063ffffffff16565b840290506000612e9983601160008a73ffffffffffffffffffffffffffffffffffffffff1673ffffffffffffffffffffffffffffffffffffffff16815260200190815260200160002054614bec90919063ffffffff16565b85029050612eef84601060008a73ffffffffffffffffffffffffffffffffffffffff1673ffffffffffffffffffffffffffffffffffffffff16815260200190815260200160002054614bec90919063ffffffff16565b8560010302601060008973ffffffffffffffffffffffffffffffffffffffff1673ffffffffffffffffffffffffffffffffffffffff16815260200190815260200160002081905550612f8983601160008a73ffffffffffffffffffffffffffffffffffffffff1673ffffffffffffffffffffffffffffffffffffffff16815260200190815260200160002054614bec90919063ffffffff16565b8560010302601160008973ffffffffffffffffffffffffffffffffffffffff1673ffffffffffffffffffffffffffffffffffffffff168152602001908152602001600020819055506000600c60008973ffffffffffffffffffffffffffffffffffffffff1673ffffffffffffffffffffffffffffffffffffffff16815260200190815260200160002081905550600460009054906101000a900473ffffffffffffffffffffffffffffffffffffffff1673ffffffffffffffffffffffffffffffffffffffff166320c582be600760009054906101000a900473ffffffffffffffffffffffffffffffffffffffff168961312486600660009054906101000a900473ffffffffffffffffffffffffffffffffffffffff1673ffffffffffffffffffffffffffffffffffffffff1663e1cf19c16040518163ffffffff1660e01b815260040160206040518083038186803b1580156130e457600080fd5b505afa1580156130f8573d6000803e3d6000fd5b505050506040513d602081101561310e57600080fd5b8101908080519060200190929190505050611031565b6040518463ffffffff1660e01b8152600401808473ffffffffffffffffffffffffffffffffffffffff1673ffffffffffffffffffffffffffffffffffffffff1681526020018373ffffffffffffffffffffffffffffffffffffffff1673ffffffffffffffffffffffffffffffffffffffff1681526020018281526020019350505050602060405180830381600087803b1580156131c057600080fd5b505af11580156131d4573d6000803e3d6000fd5b505050506040513d60208110156131ea57600080fd5b810190808051906020019092919050505050600660009054906101000a900473ffffffffffffffffffffffffffffffffffffffff1673ffffffffffffffffffffffffffffffffffffffff1663e9c83957836040518263ffffffff1660e01b815260040180828152602001915050600060405180830381600087803b15801561327157600080fd5b505af1158015613285573d6000803e3d6000fd5b50505050600660009054906101000a900473ffffffffffffffffffffffffffffffffffffffff1673ffffffffffffffffffffffffffffffffffffffff16634a0eaf14876040518263ffffffff1660e01b815260040180828152602001915050600060405180830381600087803b1580156132fe57600080fd5b505af1158015613312573d6000803e3d6000fd5b50505050600660009054906101000a900473ffffffffffffffffffffffffffffffffffffffff1673ffffffffffffffffffffffffffffffffffffffff166364a197f388836040518363ffffffff1660e01b8152600401808373ffffffffffffffffffffffffffffffffffffffff1673ffffffffffffffffffffffffffffffffffffffff16815260200182815260200192505050602060405180830381600087803b1580156133bf57600080fd5b505af11580156133d3573d6000803e3d6000fd5b505050506040513d60208110156133e957600080fd5b8101908080519060200190929190505050507fbce78369dccab09eec1986f4d409ab09ffbb47d65423e5148fcf98411c5111c9876000604051808373ffffffffffffffffffffffffffffffffffffffff1673ffffffffffffffffffffffffffffffffffffffff1681526020018281526020019250505060405180910390a16001975050505050505050919050565b6000600a60009054906101000a900473ffffffffffffffffffffffffffffffffffffffff1673ffffffffffffffffffffffffffffffffffffffff1663e1cf19c16040518163ffffffff1660e01b815260040160206040518083038186803b1580156134e157600080fd5b505afa1580156134f5573d6000803e3d6000fd5b505050506040513d602081101561350b57600080fd5b8101908080519060200190929190505050905090565b613529612c47565b61359b576040517f08c379a00000000000000000000000000000000000000000000000000000000081526004018080602001828103825260208152602001807f4f776e61626c653a2063616c6c6572206973206e6f7420746865206f776e657281525060200191505060405180910390fd5b80600760006101000a81548173ffffffffffffffffffffffffffffffffffffffff021916908373ffffffffffffffffffffffffffffffffffffffff160217905550600760009054906101000a900473ffffffffffffffffffffffffffffffffffffffff16600660006101000a81548173ffffffffffffffffffffffffffffffffffffffff021916908373ffffffffffffffffffffffffffffffffffffffff1602179055507f82966d27eea39b038ee0fa30cd16532bb24f6e65d31cb58fb227aa5766cdcc7f81604051808273ffffffffffffffffffffffffffffffffffffffff1673ffffffffffffffffffffffffffffffffffffffff16815260200191505060405180910390a150565b600b60009054906101000a900473ffffffffffffffffffffffffffffffffffffffff1681565b600960009054906101000a900473ffffffffffffffffffffffffffffffffffffffff1681565b6000806136fc614be4565b905060008311613757576040517f08c379a000000000000000000000000000000000000000000000000000000000815260040180806020018281038252603381526020018061529b6033913960400191505060405180910390fd5b82600460009054906101000a900473ffffffffffffffffffffffffffffffffffffffff1673ffffffffffffffffffffffffffffffffffffffff166370a08231836040518263ffffffff1660e01b8152600401808273ffffffffffffffffffffffffffffffffffffffff1673ffffffffffffffffffffffffffffffffffffffff16815260200191505060206040518083038186803b1580156137f757600080fd5b505afa15801561380b573d6000803e3d6000fd5b505050506040513d602081101561382157600080fd5b81019080805190602001909291905050501015613889576040517f08c379a000000000000000000000000000000000000000000000000000000000815260040180806020018281038252602a815260200180615271602a913960400191505060405180910390fd5b60006138d482600c60008573ffffffffffffffffffffffffffffffffffffffff1673ffffffffffffffffffffffffffffffffffffffff16815260200190815260200160002054614d08565b9050600061392183600c60008673ffffffffffffffffffffffffffffffffffffffff1673ffffffffffffffffffffffffffffffffffffffff16815260200190815260200160002054614e15565b905061397582601060008673ffffffffffffffffffffffffffffffffffffffff1673ffffffffffffffffffffffffffffffffffffffff16815260200190815260200160002054614bec90919063ffffffff16565b601060008573ffffffffffffffffffffffffffffffffffffffff1673ffffffffffffffffffffffffffffffffffffffff16815260200190815260200160002081905550613a0a81601160008673ffffffffffffffffffffffffffffffffffffffff1673ffffffffffffffffffffffffffffffffffffffff16815260200190815260200160002054614bec90919063ffffffff16565b601160008573ffffffffffffffffffffffffffffffffffffffff1673ffffffffffffffffffffffffffffffffffffffff16815260200190815260200160002081905550600460009054906101000a900473ffffffffffffffffffffffffffffffffffffffff1673ffffffffffffffffffffffffffffffffffffffff1663bb997bac84600760009054906101000a900473ffffffffffffffffffffffffffffffffffffffff16886040518463ffffffff1660e01b8152600401808473ffffffffffffffffffffffffffffffffffffffff1673ffffffffffffffffffffffffffffffffffffffff1681526020018373ffffffffffffffffffffffffffffffffffffffff1673ffffffffffffffffffffffffffffffffffffffff1681526020018281526020019350505050602060405180830381600087803b158015613b4c57600080fd5b505af1158015613b60573d6000803e3d6000fd5b505050506040513d6020811015613b7657600080fd5b810190808051906020019092919050505050600660009054906101000a900473ffffffffffffffffffffffffffffffffffffffff1673ffffffffffffffffffffffffffffffffffffffff16634de73631866040518263ffffffff1660e01b815260040180828152602001915050600060405180830381600087803b158015613bfd57600080fd5b505af1158015613c11573d6000803e3d6000fd5b50505050600660009054906101000a900473ffffffffffffffffffffffffffffffffffffffff1673ffffffffffffffffffffffffffffffffffffffff1663de10fb78866040518263ffffffff1660e01b815260040180828152602001915050600060405180830381600087803b158015613c8a57600080fd5b505af1158015613c9e573d6000803e3d6000fd5b50505050613cf485600c60008673ffffffffffffffffffffffffffffffffffffffff1673ffffffffffffffffffffffffffffffffffffffff16815260200190815260200160002054614bec90919063ffffffff16565b600c60008573ffffffffffffffffffffffffffffffffffffffff1673ffffffffffffffffffffffffffffffffffffffff16815260200190815260200160002081905550600d54600f60008573ffffffffffffffffffffffffffffffffffffffff1673ffffffffffffffffffffffffffffffffffffffff16815260200190815260200160002060010181905550600660009054906101000a900473ffffffffffffffffffffffffffffffffffffffff1673ffffffffffffffffffffffffffffffffffffffff166314f6c3be6040518163ffffffff1660e01b815260040160206040518083038186803b158015613de857600080fd5b505afa158015613dfc573d6000803e3d6000fd5b505050506040513d6020811015613e1257600080fd5b8101908080519060200190929190505050600f60008573ffffffffffffffffffffffffffffffffffffffff1673ffffffffffffffffffffffffffffffffffffffff168152602001908152602001600020600001819055507fbce78369dccab09eec1986f4d409ab09ffbb47d65423e5148fcf98411c5111c98386604051808373ffffffffffffffffffffffffffffffffffffffff1673ffffffffffffffffffffffffffffffffffffffff1681526020018281526020019250505060405180910390a160019350505050919050565b600080600860009054906101000a900473ffffffffffffffffffffffffffffffffffffffff1673ffffffffffffffffffffffffffffffffffffffff166314f6c3be6040518163ffffffff1660e01b815260040160206040518083038186803b158015613f4b57600080fd5b505afa158015613f5f573d6000803e3d6000fd5b505050506040513d6020811015613f7557600080fd5b810190808051906020019092919050505090506000600860009054906101000a900473ffffffffffffffffffffffffffffffffffffffff1673ffffffffffffffffffffffffffffffffffffffff1663e1cf19c16040518163ffffffff1660e01b815260040160206040518083038186803b158015613ff257600080fd5b505afa158015614006573d6000803e3d6000fd5b505050506040513d602081101561401c57600080fd5b810190808051906020019092919050505090506000600260009054906101000a900473ffffffffffffffffffffffffffffffffffffffff1673ffffffffffffffffffffffffffffffffffffffff166398d5fdca6040518163ffffffff1660e01b815260040160206040518083038186803b15801561409957600080fd5b505afa1580156140ad573d6000803e3d6000fd5b505050506040513d60208110156140c357600080fd5b810190808051906020019092919050505090506000831480156140e65750600082145b156140f757600193505050506141d8565b600083141580156141085750600082145b15614138577fffffffffffffffffffffffffffffffffffffffffffffffffffffffffffffffff93505050506141d8565b73__DeciMath______________________________63563d4c238483856040518463ffffffff1660e01b815260040180848152602001838152602001828152602001935050505060206040518083038186803b15801561419757600080fd5b505af41580156141ab573d6000803e3d6000fd5b505050506040513d60208110156141c157600080fd5b810190808051906020019092919050505093505050505b90565b6000600a60009054906101000a900473ffffffffffffffffffffffffffffffffffffffff1673ffffffffffffffffffffffffffffffffffffffff166314f6c3be6040518163ffffffff1660e01b815260040160206040518083038186803b15801561424557600080fd5b505afa158015614259573d6000803e3d6000fd5b505050506040513d602081101561426f57600080fd5b8101908080519060200190929190505050905090565b6000600160009054906101000a900473ffffffffffffffffffffffffffffffffffffffff1673ffffffffffffffffffffffffffffffffffffffff166142c8614be4565b73ffffffffffffffffffffffffffffffffffffffff1614614334576040517f08c379a000000000000000000000000000000000000000000000000000000000815260040180806020018281038252602981526020018061531f6029913960400191505060405180910390fd5b600860009054906101000a900473ffffffffffffffffffffffffffffffffffffffff1673ffffffffffffffffffffffffffffffffffffffff1663e9c83957836040518263ffffffff1660e01b815260040180828152602001915050600060405180830381600087803b1580156143a957600080fd5b505af11580156143bd573d6000803e3d6000fd5b50505050600460009054906101000a900473ffffffffffffffffffffffffffffffffffffffff1673ffffffffffffffffffffffffffffffffffffffff16639dc29fac84846040518363ffffffff1660e01b8152600401808373ffffffffffffffffffffffffffffffffffffffff1673ffffffffffffffffffffffffffffffffffffffff16815260200182815260200192505050602060405180830381600087803b15801561446a57600080fd5b505af115801561447e573d6000803e3d6000fd5b505050506040513d602081101561449457600080fd5b8101908080519060200190929190505050506001905092915050565b600560009054906101000a900473ffffffffffffffffffffffffffffffffffffffff1681565b600360009054906101000a900473ffffffffffffffffffffffffffffffffffffffff1681565b614504612c47565b614576576040517f08c379a00000000000000000000000000000000000000000000000000000000081526004018080602001828103825260208152602001807f4f776e61626c653a2063616c6c6572206973206e6f7420746865206f776e657281525060200191505060405180910390fd5b80600160006101000a81548173ffffffffffffffffffffffffffffffffffffffff021916908373ffffffffffffffffffffffffffffffffffffffff1602179055507f0addbd30df51ac41ccaf56a058c50522fbdc092b4e2ec8b829b29ad6716bd09781604051808273ffffffffffffffffffffffffffffffffffffffff1673ffffffffffffffffffffffffffffffffffffffff16815260200191505060405180910390a150565b600073__DeciMath______________________________63563d4c238585856040518463ffffffff1660e01b815260040180848152602001838152602001828152602001935050505060206040518083038186803b15801561467e57600080fd5b505af4158015614692573d6000803e3d6000fd5b505050506040513d60208110156146a857600080fd5b810190808051906020019092919050505090509392505050565b6146ca612c47565b61473c576040517f08c379a00000000000000000000000000000000000000000000000000000000081526004018080602001828103825260208152602001807f4f776e61626c653a2063616c6c6572206973206e6f7420746865206f776e657281525060200191505060405180910390fd5b61474581614f22565b50565b600c6020528060005260406000206000915090505481565b6000600160009054906101000a900473ffffffffffffffffffffffffffffffffffffffff1673ffffffffffffffffffffffffffffffffffffffff166147a3614be4565b73ffffffffffffffffffffffffffffffffffffffff161461480f576040517f08c379a000000000000000000000000000000000000000000000000000000000815260040180806020018281038252602981526020018061531f6029913960400191505060405180910390fd5b600860009054906101000a900473ffffffffffffffffffffffffffffffffffffffff1673ffffffffffffffffffffffffffffffffffffffff166364a197f384846040518363ffffffff1660e01b8152600401808373ffffffffffffffffffffffffffffffffffffffff1673ffffffffffffffffffffffffffffffffffffffff16815260200182815260200192505050602060405180830381600087803b1580156148b857600080fd5b505af11580156148cc573d6000803e3d6000fd5b505050506040513d60208110156148e257600080fd5b8101908080519060200190929190505050506001905092915050565b614906612c47565b614978576040517f08c379a00000000000000000000000000000000000000000000000000000000081526004018080602001828103825260208152602001807f4f776e61626c653a2063616c6c6572206973206e6f7420746865206f776e657281525060200191505060405180910390fd5b80600960006101000a81548173ffffffffffffffffffffffffffffffffffffffff021916908373ffffffffffffffffffffffffffffffffffffffff160217905550600960009054906101000a900473ffffffffffffffffffffffffffffffffffffffff16600860006101000a81548173ffffffffffffffffffffffffffffffffffffffff021916908373ffffffffffffffffffffffffffffffffffffffff1602179055507f78f058b189175430c48dc02699e3a0031ea4ff781536dc2fab847de4babdd88281604051808273ffffffffffffffffffffffffffffffffffffffff1673ffffffffffffffffffffffffffffffffffffffff16815260200191505060405180910390a150565b614a8a612c47565b614afc576040517f08c379a00000000000000000000000000000000000000000000000000000000081526004018080602001828103825260208152602001807f4f776e61626c653a2063616c6c6572206973206e6f7420746865206f776e657281525060200191505060405180910390fd5b80600560006101000a81548173ffffffffffffffffffffffffffffffffffffffff021916908373ffffffffffffffffffffffffffffffffffffffff16021790555080600460006101000a81548173ffffffffffffffffffffffffffffffffffffffff021916908373ffffffffffffffffffffffffffffffffffffffff1602179055507f373a23842c9bfba0a655597bb13c6493895da5266bd6617086a73f8dcfe2ae7081604051808273ffffffffffffffffffffffffffffffffffffffff1673ffffffffffffffffffffffffffffffffffffffff16815260200191505060405180910390a150565b600033905090565b600080828401905083811015614c6a576040517f08c379a000000000000000000000000000000000000000000000000000000000815260040180806020018281038252601b8152602001807f536166654d6174683a206164646974696f6e206f766572666c6f77000000000081525060200191505060405180910390fd5b8091505092915050565b6000614cb683836040518060400160405280601e81526020017f536166654d6174683a207375627472616374696f6e206f766572666c6f770000815250615066565b905092915050565b6000614d0083836040518060400160405280601a81526020017f536166654d6174683a206469766973696f6e206279207a65726f000000000000815250615126565b905092915050565b600080600f60008573ffffffffffffffffffffffffffffffffffffffff1673ffffffffffffffffffffffffffffffffffffffff1681526020019081526020016000206001015490506000614d6782600d54614c7490919063ffffffff16565b905073__DeciMath______________________________63563d4c238583670de0b6b3a76400006040518463ffffffff1660e01b815260040180848152602001838152602001828152602001935050505060206040518083038186803b158015614dd057600080fd5b505af4158015614de4573d6000803e3d6000fd5b505050506040513d6020811015614dfa57600080fd5b81019080805190602001909291905050509250505092915050565b600080600f60008573ffffffffffffffffffffffffffffffffffffffff1673ffffffffffffffffffffffffffffffffffffffff1681526020019081526020016000206000015490506000614e7482600e54614c7490919063ffffffff16565b905073__DeciMath______________________________63563d4c238583670de0b6b3a76400006040518463ffffffff1660e01b815260040180848152602001838152602001828152602001935050505060206040518083038186803b158015614edd57600080fd5b505af4158015614ef1573d6000803e3d6000fd5b505050506040513d6020811015614f0757600080fd5b81019080805190602001909291905050509250505092915050565b600073ffffffffffffffffffffffffffffffffffffffff168173ffffffffffffffffffffffffffffffffffffffff161415614fa8576040517f08c379a000000000000000000000000000000000000000000000000000000000815260040180806020018281038252602681526020018061524b6026913960400191505060405180910390fd5b8073ffffffffffffffffffffffffffffffffffffffff166000809054906101000a900473ffffffffffffffffffffffffffffffffffffffff1673ffffffffffffffffffffffffffffffffffffffff167f8be0079c531659141344cd1fd0a4f28419497f9722a3daafe3b4186f6b6457e060405160405180910390a3806000806101000a81548173ffffffffffffffffffffffffffffffffffffffff021916908373ffffffffffffffffffffffffffffffffffffffff16021790555050565b6000838311158290615113576040517f08c379a00000000000000000000000000000000000000000000000000000000081526004018080602001828103825283818151815260200191508051906020019080838360005b838110156150d85780820151818401526020810190506150bd565b50505050905090810190601f1680156151055780820380516001836020036101000a031916815260200191505b509250505060405180910390fd5b5060008385039050809150509392505050565b600080831182906151d2576040517f08c379a00000000000000000000000000000000000000000000000000000000081526004018080602001828103825283818151815260200191508051906020019080838360005b8381101561519757808201518184015260208101905061517c565b50505050905090810190601f1680156151c45780820380516001836020036101000a031916815260200191505b509250505060405180910390fd5b5060008385816151de57fe5b049050809150509392505050565b604051806040016040528060029060208202803883398082019150509050509056fe506f6f6c4d616e616765723a2063616c6c6572206d6179206e6f74207769746864726177206d6f7265207468616e207468656972206465706f7369744f776e61626c653a206e6577206f776e657220697320746865207a65726f2061646472657373506f6f6c4d616e616765723a20757365722068617320696e73756666696369656e742062616c616e6365506f6f6c4d616e616765723a206465706f736974656420616d6f756e74206d757374206265206c6172676572207468616e2030506f6f6c4d616e616765723a207472616e73616374696f6e20746f20616374697665506f6f6c207265766572746564506f6f6c4d616e616765723a2063616c6c657220686173206e6f206465706f736974506f6f6c4d616e616765723a2043616c6c6572206973206e6f7420746865204344504d616e61676572a265627a7a723158203a0f3c6c19f13a80e765ce588ff489dcbeadde4eb047441d76f7ac684f9a478c64736f6c634300050c0032",
  "source": "pragma solidity ^0.5.11;\r\n\r\nimport './IPool.sol';\r\nimport './IStabilityPool.sol';\r\nimport \"./PriceFeed.sol\";\r\nimport \"./CLVToken.sol\";\r\nimport \"./DeciMath.sol\";\r\nimport \"../node_modules/@openzeppelin/contracts/math/SafeMath.sol\";\r\nimport '../node_modules/@openzeppelin/contracts/ownership/Ownable.sol';\r\n\r\n// PoolManager maintains all pools \r\ncontract PoolManager is Ownable {\r\n    using SafeMath for uint;\r\n\r\n    uint constant DIGITS = 1e18;\r\n\r\n    // --- Events ---\r\n    event CDPManagerAddressChanged(address _newCDPManagerAddress);\r\n    event PriceFeedAddressChanged(address _newPriceFeedAddress);\r\n    event CLVTokenAddressChanged(address _newCLVTokenAddress);\r\n    event StabilityPoolAddressChanged(address _newStabilityPoolAddress);\r\n    event ActivePoolAddressChanged(address _newActivePoolAddress);\r\n    event DefaultPoolAddressChanged(address _newDefaultPoolAddress);\r\n    event UserSnapshotUpdated(uint _CLV, uint _ETH);\r\n    event S_CLVUpdated(uint _S_CLV);\r\n    event S_ETHUpdated(uint _S_ETH);\r\n    event UserDepositChanged(address _user, uint _amount);\r\n\r\n    // --- Connected contract declarations ---\r\n    address public cdpManagerAddress;\r\n\r\n    PriceFeed priceFeed;\r\n    address public priceFeedAddress;\r\n\r\n    CLVToken CLV; \r\n    address public clvAddress;\r\n\r\n    IStabilityPool public stabilityPool;\r\n    address payable public stabilityPoolAddress;\r\n\r\n    IPool public activePool;\r\n    address payable public activePoolAddress;\r\n\r\n    IPool public defaultPool;\r\n    address payable public defaultPoolAddress;\r\n   \r\n   // --- Data structures ---\r\n   \r\n    mapping (address => uint) public deposit; \r\n\r\n   \r\n\r\n      struct Snapshot {\r\n        uint ETH;\r\n        uint CLV;\r\n    }\r\n    \r\n    uint public S_CLV; // A running total of the CLV fractions for gas-efficient share calculation\r\n    uint public S_ETH; // A running total of the ETH fractions for gas-efficient share calculation\r\n    mapping (address => Snapshot) public snapshot; // A map of individual snapshots of the S_CLV and the current StabilityPool.ETH values\r\n    \r\n     /* maps StabilityPool users to the sum of their total past rewards earned by their deposit history.\r\n    The total past reward sum is updated any time they increase their deposit or make a partial withdrawal.\r\n    Each deposit earns ( deposit * [S- S(0)] ), during it's lifetime, which is added \r\n    */\r\n    mapping (address => uint) public totalPendingCLVChange;\r\n    mapping (address => uint) public totalPendingETHChange;\r\n    \r\n    // --- Modifiers ---\r\n    modifier onlyCDPManager() {\r\n        require(_msgSender() == cdpManagerAddress, \"PoolManager: Caller is not the CDPManager\");\r\n        _;\r\n    }\r\n\r\n    constructor() public {\r\n    }\r\n\r\n    // --- Dependency setters ---\r\n    function setCDPManagerAddress(address _cdpManagerAddress) public onlyOwner {\r\n        cdpManagerAddress = _cdpManagerAddress;\r\n        emit CDPManagerAddressChanged(_cdpManagerAddress);\r\n    }\r\n\r\n     function setPriceFeed(address _priceFeedAddress) public onlyOwner {\r\n        priceFeedAddress = _priceFeedAddress;\r\n        priceFeed = PriceFeed(_priceFeedAddress);\r\n        emit PriceFeedAddressChanged(_priceFeedAddress);\r\n    }\r\n\r\n    function setCLVToken(address _CLVAddress) public onlyOwner {\r\n        clvAddress = _CLVAddress;\r\n        CLV = CLVToken(_CLVAddress); \r\n        emit CLVTokenAddressChanged(_CLVAddress);\r\n    }\r\n\r\n    function setStabilityPool(address payable _stabilityPoolAddress) public onlyOwner {\r\n        stabilityPoolAddress = _stabilityPoolAddress;\r\n        stabilityPool = IStabilityPool(stabilityPoolAddress);\r\n        emit StabilityPoolAddressChanged(_stabilityPoolAddress);\r\n    }\r\n\r\n    function setActivePool(address payable _activePoolAddress) public onlyOwner {\r\n        activePoolAddress = _activePoolAddress;\r\n        activePool = IPool(activePoolAddress);\r\n        emit ActivePoolAddressChanged(_activePoolAddress);\r\n    }\r\n\r\n    function setDefaultPool(address payable _defaultPoolAddress) public onlyOwner {\r\n        defaultPoolAddress = _defaultPoolAddress;\r\n        defaultPool = IPool(defaultPoolAddress);\r\n        emit DefaultPoolAddressChanged(_defaultPoolAddress);\r\n    }\r\n\r\n    // --- Getters ---\r\n    function getAccurateMulDiv(uint x, uint y, uint z) public pure returns(uint) {\r\n        return DeciMath.accurateMulDiv(x, y, z);\r\n    }\r\n\r\n    // Returns the total collateral ratio of the system\r\n    function getTCR() \r\n        view \r\n        public \r\n        returns (uint) \r\n    {\r\n        uint activePoolETH = activePool.getETH();\r\n        uint activePoolCLV = activePool.getCLV();\r\n        uint price = priceFeed.getPrice();\r\n        \r\n        // Handle edge cases of div by 0\r\n        if(activePoolETH == 0 && activePoolCLV == 0 ) { \r\n            return 1;\r\n        }  else if (activePoolETH != 0 && activePoolCLV == 0 ) {\r\n            return 2**256 - 1; // TCR is technically infinite\r\n        }\r\n\r\n        // calculate TCR\r\n        return DeciMath.accurateMulDiv(activePoolETH, price, activePoolCLV);\r\n    }\r\n    \r\n    // Returns the current ETH balance of the TokenPools contract\r\n    function getBalance() \r\n        public\r\n        view\r\n        returns (uint)\r\n    {\r\n        return address(this).balance;\r\n    } \r\n    \r\n    // Returns the total active debt (in CLV) in the system\r\n    function getActiveDebt() \r\n        public\r\n        view\r\n        returns (uint)\r\n    {\r\n        return activePool.getCLV();\r\n    }    \r\n    \r\n    // Returns the total active collateral (in ETH) in the system\r\n    function getActiveColl() \r\n        public\r\n        view\r\n        returns (uint)\r\n    {\r\n        return activePool.getETH();\r\n    } \r\n    \r\n    // Returns the amount of closed debt (in CLV)\r\n    function getClosedDebt() \r\n        public\r\n        view\r\n        returns (uint)\r\n    {\r\n        return defaultPool.getCLV();\r\n    }    \r\n    \r\n    // Returns the amount of closed collateral (in ETH)\r\n    function getClosedColl() \r\n        public\r\n        view\r\n        returns (uint)\r\n    {\r\n        return defaultPool.getETH();\r\n    }  \r\n    \r\n    // Returns the lower value from two given integers\r\n    function getMin(uint a, uint b) \r\n        public\r\n        pure\r\n        returns (uint)\r\n    {\r\n        if (a <= b) return a;\r\n        else return b;\r\n    }    \r\n    \r\n    // Adds the received ETH to the total active collateral\r\n    function addColl()\r\n        public\r\n        payable\r\n        onlyCDPManager\r\n        returns (bool)\r\n    {\r\n        // send ETH to Active Pool and increase its recorded ETH balance \r\n       (bool success, ) = activePoolAddress.call.value(msg.value)(\"\");\r\n       require (success == true, 'PoolManager: transaction to activePool reverted');\r\n       return success;\r\n    }\r\n    \r\n    // Transfers the specified amount of ETH to _account and updates the total active collateral \r\n    function withdrawColl(address payable _account, uint _ETH)\r\n        public\r\n        onlyCDPManager\r\n        returns (bool)\r\n    {\r\n        activePool.sendETH(_account, _ETH);\r\n        return true;\r\n    }\r\n    \r\n    // Issues the specified amount of CLV to _account and increases the total active debt\r\n    function withdrawCLV(address _account, uint _CLV)\r\n        public\r\n        onlyCDPManager\r\n        returns (bool)\r\n    {\r\n        activePool.increaseCLV(_CLV);\r\n        CLV.mint(_account, _CLV);\r\n                \r\n        return true;\r\n    }\r\n    \r\n    // Burns the specified amount of CLV from _account and decreases the total active debt\r\n    function repayCLV(address _account, uint _CLV)\r\n        public\r\n        onlyCDPManager\r\n        returns (bool)\r\n    {\r\n        activePool.decreaseCLV(_CLV);\r\n        CLV.burn(_account, _CLV);\r\n        \r\n        return true;\r\n    }           \r\n    \r\n    // Updates the Active Pool and the Default Pool when a CDP gets closed\r\n    function close(uint _CLV, uint _ETH)\r\n        public\r\n        onlyCDPManager\r\n        returns (bool)\r\n    {\r\n        // Transfer the debt & coll from the Active Pool to the Default Pool\r\n        defaultPool.increaseCLV(_CLV);\r\n        activePool.decreaseCLV(_CLV);\r\n        activePool.sendETH(defaultPoolAddress, _ETH);\r\n        \r\n        return true;\r\n    }    \r\n    \r\n    // Updates the Active Pool and the Default Pool when a CDP obtains a default share\r\n    function obtainDefaultShare(uint _CLV, uint _ETH)\r\n        public\r\n        onlyCDPManager\r\n        returns (bool)\r\n    {    \r\n        // Transfer the debt & coll from the Default Pool to the Active Pool\r\n        defaultPool.decreaseCLV(_CLV);\r\n        activePool.increaseCLV(_CLV);\r\n        defaultPool.sendETH(activePoolAddress, _ETH);\r\n \r\n        return true;\r\n    }\r\n    \r\n    // Burns the received CLV, transfers the redeemed ETH to _account and updates the Active Pool\r\n    function redeemCollateral(address payable _account, uint _CLV, uint _ETH)\r\n        public\r\n        onlyCDPManager\r\n        returns (bool)\r\n    {    \r\n        // Update Active Pool CLV, and send ETH to account\r\n        activePool.decreaseCLV(_CLV);\r\n        activePool.sendETH(_account, _ETH);\r\n        \r\n        CLV.burn(_account, _CLV);\r\n\r\n        return true;\r\n    }    \r\n\r\n    // Deposits the specified amount to the Stability Pool using the algorithm from http://batog.info/papers/scalable-reward-distribution.pdf\r\n    // Can be called directly by anybody, not just by the owner (CDP contract) \r\n    // TODO: Support multiple deposits by the same address\r\n    // TODO: CDP holders which make a deposit should be able to redirect the received ETH to their CDPs\r\n    function depositCLV( uint _amount) \r\n        public\r\n        returns (bool)\r\n    {\r\n        address user = _msgSender();\r\n        require(_amount > 0, \"PoolManager: deposited amount must be larger than 0\");\r\n        require(CLV.balanceOf(user) >= _amount, \"PoolManager: user has insufficient balance\");\r\n        \r\n        // get cumulative changes earned by the most recent deposit\r\n        uint recentCumulativeCLVChange = getCurrentCumulativeCLVChange(user, deposit[user]);\r\n        uint recentCumulativeETHChange = getCurrentCumulativeETHChange(user, deposit[user]);\r\n\r\n        // add cumulative changes to the total pending changes\r\n        totalPendingCLVChange[user] = totalPendingCLVChange[user].add(recentCumulativeCLVChange);\r\n        totalPendingETHChange[user] = totalPendingETHChange[user].add(recentCumulativeETHChange);\r\n\r\n        // Transfer the CLV tokens from the user to the Stability Pool's address, and update its recorded CLV\r\n        CLV.sendToPool(user, stabilityPoolAddress, _amount);\r\n        stabilityPool.increaseCLV(_amount);\r\n        stabilityPool.increaseTotalCLVDeposits(_amount);\r\n        \r\n        // Record the deposit made by user\r\n        deposit[user] = deposit[user].add(_amount);\r\n        \r\n        // Record new individual snapshots of the running totals S_CLV and S_ETH for the user\r\n        snapshot[user].CLV = S_CLV;\r\n        snapshot[user].ETH = stabilityPool.getETH();  // Should this be S_ETH?  Snapshot current accumulated proportional rewards?\r\n        emit UserDepositChanged(user, _amount);\r\n        return true;\r\n    }   \r\n\r\n\r\n    // return the accumulated proportional change, for the user, for the duration that this deposit was held\r\n    function getCurrentCumulativeETHChange(address _user, uint _userDeposit) internal view returns(uint) {\r\n       uint snapshotETH = snapshot[_user].ETH;\r\n        uint rewardPerUnitStaked = S_ETH.sub(snapshotETH);\r\n        return DeciMath.accurateMulDiv(_userDeposit, rewardPerUnitStaked, DIGITS);\r\n    }\r\n\r\n    function getCurrentCumulativeCLVChange(address _user, uint _userDeposit) internal view returns(uint) {\r\n        uint snapshotCLV = snapshot[_user].CLV;\r\n        uint rewardPerUnitStaked = S_CLV.sub(snapshotCLV);\r\n        return DeciMath.accurateMulDiv(_userDeposit, rewardPerUnitStaked, DIGITS);\r\n    }\r\n\r\n\r\n    \r\n    // TODO - rename.  \"offsetAndLiquidate()\" ?\r\n    // Cancels out the specified _debt against the CLV contained in the Stability Pool (as far as possible)  \r\n    // and transfers the CDP's ETH collateral from Active Pool to Stability Pool. \r\n    // Returns the amount of debt that could not be cancelled, and the corresponding ether.\r\n    // Can only be called via the close(...) and closeCDPs(... ) functions in CDPManager\r\n    function offset(uint _debt, uint _coll)\r\n        public\r\n        payable\r\n        onlyCDPManager\r\n        returns (uint[2] memory) // Note: it would be nicer to return this as a struct, but struct returns are still experimental\r\n    {    \r\n        uint[2] memory remainder;\r\n        \r\n        // When Stability Pool has no CLV, return all debt and coll\r\n        if (stabilityPool.getCLV() == 0) {\r\n            remainder[0] = _debt;\r\n            remainder[1] = _coll;\r\n            return remainder;\r\n        }\r\n        \r\n        // If the debt is larger than the deposited CLV, offset an amount of debt corresponding to the latter\r\n        uint debtToOffset = getMin(_debt, stabilityPool.getCLV());\r\n        // Collateral to be added in proportion to the debt that is cancelled\r\n        uint collToAdd =  DeciMath.accurateMulDiv(debtToOffset, _coll, _debt);\r\n        \r\n        // Update the running total S_CLV by adding the ratio between the distributed debt and the CLV in the pool\r\n        uint totalCLVDeposits = stabilityPool.getTotalCLVDeposits();\r\n        S_CLV = S_CLV.add( DeciMath.accurateMulDiv(debtToOffset,  DIGITS, totalCLVDeposits) );\r\n        emit S_CLVUpdated(S_CLV);\r\n        // Update the running total S_ETH by adding the ratio between the distributed collateral and the ETH in the pool\r\n        S_ETH = S_ETH.add( DeciMath.accurateMulDiv(collToAdd, DIGITS, totalCLVDeposits) );\r\n        emit S_ETHUpdated(S_ETH);\r\n        // Cancel the liquidated CLV debt with the CLV in the stability pool\r\n        activePool.decreaseCLV(debtToOffset);  \r\n        stabilityPool.decreaseCLV(debtToOffset); \r\n        // Send ETH from Active Pool to Stability Pool\r\n        activePool.sendETH(stabilityPoolAddress, collToAdd);  \r\n        \r\n        // Burn the debt that was successfully offset\r\n        CLV.burn(stabilityPoolAddress, debtToOffset);\r\n        \r\n        // Return the amount of debt & coll that could not be offset against the Stability Pool due to insufficiency\r\n        remainder[0] = _debt.sub(debtToOffset);\r\n        remainder[1] = _coll.sub(collToAdd);\r\n        return remainder;\r\n    }\r\n    \r\n    // Retrieves the caller's funds from the Stability Pool\r\n    // TODO: Support partial withdrawals\r\n    function retrieve(uint _amount) \r\n        public\r\n        returns (bool)\r\n    {   \r\n        address payable user = _msgSender();\r\n\r\n        uint userDeposit = deposit[user];\r\n        require(userDeposit > 0, \"PoolManager: caller has no deposit\");\r\n        require (_amount <= userDeposit, \"PoolManager: caller may not withdraw more than their deposit\");\r\n        // Calculate the CLV and ETH shares to be retrieved according http://batog.info/papers/scalable-reward-distribution.pdf\r\n\r\n        uint fractionToRetrieve = _amount.div(userDeposit);\r\n        // get the cumulative changes for the user's most recent deposit value\r\n        uint recentCumulativeCLVChange = getCurrentCumulativeCLVChange(user, userDeposit);\r\n        uint recentCumulativeETHChange = getCurrentCumulativeETHChange(user, userDeposit);\r\n        \r\n        // get the total CLV to return to user\r\n      \r\n        uint CLVShare = fractionToRetrieve * userDeposit.sub(totalPendingCLVChange[user].add(recentCumulativeCLVChange));\r\n        // get the total ETH to return to user\r\n        uint ETHShare = fractionToRetrieve * (totalPendingETHChange[user].add(recentCumulativeETHChange));\r\n        \r\n        /* update the totalPending changes: reduce them by the right proportion, and add the remainder\r\n        // the most recent cumulative change, that did not get fully paid out. */\r\n        totalPendingCLVChange[user] = (1 - fractionToRetrieve) * (totalPendingCLVChange[user].add(recentCumulativeCLVChange));\r\n        totalPendingETHChange[user] = (1 - fractionToRetrieve) * (totalPendingETHChange[user].add(recentCumulativeETHChange));\r\n\r\n        //update user's deposit record\r\n        deposit[user] = 0;\r\n        \r\n        // TODO: Handle case where not enough CLV in pool to cover their share?\r\n        CLV.returnFromPool(stabilityPoolAddress, user, getMin(CLVShare, stabilityPool.getCLV()));\r\n        stabilityPool.decreaseCLV(CLVShare);\r\n        stabilityPool.decreaseTotalCLVDeposits(userDeposit);\r\n\r\n        // TODO: // Optional ETH redirection to CDP functionality\r\n        // if (_sendToCDP && cdpManager.userHasActiveCDP) {\r\n        //     // TODO - send directly to CDP functionality\r\n        // }\r\n\r\n        // Otherwise, return the ether to the caller\r\n        stabilityPool.sendETH(user, ETHShare);\r\n        emit UserDepositChanged(user, 0);\r\n        \r\n        return true;\r\n    }\r\n}    ",
  "sourcePath": "C:\\Users\\Administrator\\Desktop\\Cleverage\\contracts\\PoolManager.sol",
  "compiler": {
    "name": "solc",
    "version": "0.5.12+commit.7709ece9.Emscripten.clang"
  },
  "schemaVersion": "3.0.19",
  "updatedAt": "2019-12-14T10:18:26.424Z",
  "devdoc": {
    "methods": {
      "isOwner()": {
        "details": "Returns true if the caller is the current owner."
      },
      "owner()": {
        "details": "Returns the address of the current owner."
      },
      "renounceOwnership()": {
        "details": "Leaves the contract without owner. It will not be possible to call `onlyOwner` functions anymore. Can only be called by the current owner.     * NOTE: Renouncing ownership will leave the contract without an owner, thereby removing any functionality that is only available to the owner."
      },
      "transferOwnership(address)": {
        "details": "Transfers ownership of the contract to a new account (`newOwner`). Can only be called by the current owner."
      }
    }
  },
  "userdoc": {
    "methods": {}
  }
}