{
  "contractName": "PoolManager",
  "abi": [
    {
      "inputs": [],
      "payable": false,
      "stateMutability": "nonpayable",
      "type": "constructor"
    },
    {
      "anonymous": false,
      "inputs": [
        {
          "indexed": false,
          "internalType": "address",
          "name": "_newActivePoolAddress",
          "type": "address"
        }
      ],
      "name": "ActivePoolAddressChanged",
      "type": "event"
    },
    {
      "anonymous": false,
      "inputs": [
        {
          "indexed": false,
          "internalType": "address",
          "name": "_newCDPManagerAddress",
          "type": "address"
        }
      ],
      "name": "CDPManagerAddressChanged",
      "type": "event"
    },
    {
      "anonymous": false,
      "inputs": [
        {
          "indexed": false,
          "internalType": "address",
          "name": "_newCLVTokenAddress",
          "type": "address"
        }
      ],
      "name": "CLVTokenAddressChanged",
      "type": "event"
    },
    {
      "anonymous": false,
      "inputs": [
        {
          "indexed": false,
          "internalType": "address",
          "name": "_newDefaultPoolAddress",
          "type": "address"
        }
      ],
      "name": "DefaultPoolAddressChanged",
      "type": "event"
    },
    {
      "anonymous": false,
      "inputs": [
        {
          "indexed": false,
          "internalType": "address",
          "name": "user",
          "type": "address"
        },
        {
          "indexed": false,
          "internalType": "uint256",
          "name": "entitledETH",
          "type": "uint256"
        }
      ],
      "name": "EntitledETHRetrieved",
      "type": "event"
    },
    {
      "anonymous": false,
      "inputs": [
        {
          "indexed": true,
          "internalType": "address",
          "name": "previousOwner",
          "type": "address"
        },
        {
          "indexed": true,
          "internalType": "address",
          "name": "newOwner",
          "type": "address"
        }
      ],
      "name": "OwnershipTransferred",
      "type": "event"
    },
    {
      "anonymous": false,
      "inputs": [
        {
          "indexed": false,
          "internalType": "address",
          "name": "_newPriceFeedAddress",
          "type": "address"
        }
      ],
      "name": "PriceFeedAddressChanged",
      "type": "event"
    },
    {
      "anonymous": false,
      "inputs": [
        {
          "indexed": false,
          "internalType": "uint256",
          "name": "_S_CLV",
          "type": "uint256"
        }
      ],
      "name": "S_CLVUpdated",
      "type": "event"
    },
    {
      "anonymous": false,
      "inputs": [
        {
          "indexed": false,
          "internalType": "uint256",
          "name": "_S_ETH",
          "type": "uint256"
        }
      ],
      "name": "S_ETHUpdated",
      "type": "event"
    },
    {
      "anonymous": false,
      "inputs": [
        {
          "indexed": false,
          "internalType": "address",
          "name": "_newStabilityPoolAddress",
          "type": "address"
        }
      ],
      "name": "StabilityPoolAddressChanged",
      "type": "event"
    },
    {
      "anonymous": false,
      "inputs": [
        {
          "indexed": false,
          "internalType": "address",
          "name": "_user",
          "type": "address"
        },
        {
          "indexed": false,
          "internalType": "uint256",
          "name": "_amount",
          "type": "uint256"
        }
      ],
      "name": "UserDepositChanged",
      "type": "event"
    },
    {
      "anonymous": false,
      "inputs": [
        {
          "indexed": false,
          "internalType": "uint256",
          "name": "_CLV",
          "type": "uint256"
        },
        {
          "indexed": false,
          "internalType": "uint256",
          "name": "_ETH",
          "type": "uint256"
        }
      ],
      "name": "UserSnapshotUpdated",
      "type": "event"
    },
    {
      "constant": true,
      "inputs": [],
      "name": "S_CLV",
      "outputs": [
        {
          "internalType": "uint256",
          "name": "",
          "type": "uint256"
        }
      ],
      "payable": false,
      "stateMutability": "view",
      "type": "function"
    },
    {
      "constant": true,
      "inputs": [],
      "name": "S_ETH",
      "outputs": [
        {
          "internalType": "uint256",
          "name": "",
          "type": "uint256"
        }
      ],
      "payable": false,
      "stateMutability": "view",
      "type": "function"
    },
    {
      "constant": true,
      "inputs": [],
      "name": "activePool",
      "outputs": [
        {
          "internalType": "contract IPool",
          "name": "",
          "type": "address"
        }
      ],
      "payable": false,
      "stateMutability": "view",
      "type": "function"
    },
    {
      "constant": true,
      "inputs": [],
      "name": "activePoolAddress",
      "outputs": [
        {
          "internalType": "address payable",
          "name": "",
          "type": "address"
        }
      ],
      "payable": false,
      "stateMutability": "view",
      "type": "function"
    },
    {
      "constant": true,
      "inputs": [],
      "name": "cdpManagerAddress",
      "outputs": [
        {
          "internalType": "address",
          "name": "",
          "type": "address"
        }
      ],
      "payable": false,
      "stateMutability": "view",
      "type": "function"
    },
    {
      "constant": true,
      "inputs": [],
      "name": "clvAddress",
      "outputs": [
        {
          "internalType": "address",
          "name": "",
          "type": "address"
        }
      ],
      "payable": false,
      "stateMutability": "view",
      "type": "function"
    },
    {
      "constant": true,
      "inputs": [],
      "name": "defaultPool",
      "outputs": [
        {
          "internalType": "contract IPool",
          "name": "",
          "type": "address"
        }
      ],
      "payable": false,
      "stateMutability": "view",
      "type": "function"
    },
    {
      "constant": true,
      "inputs": [],
      "name": "defaultPoolAddress",
      "outputs": [
        {
          "internalType": "address payable",
          "name": "",
          "type": "address"
        }
      ],
      "payable": false,
      "stateMutability": "view",
      "type": "function"
    },
    {
      "constant": true,
      "inputs": [
        {
          "internalType": "address",
          "name": "",
          "type": "address"
        }
      ],
      "name": "deposit",
      "outputs": [
        {
          "internalType": "uint256",
          "name": "",
          "type": "uint256"
        }
      ],
      "payable": false,
      "stateMutability": "view",
      "type": "function"
    },
    {
      "constant": true,
      "inputs": [
        {
          "internalType": "address",
          "name": "",
          "type": "address"
        }
      ],
      "name": "entitledETHGain",
      "outputs": [
        {
          "internalType": "uint256",
          "name": "",
          "type": "uint256"
        }
      ],
      "payable": false,
      "stateMutability": "view",
      "type": "function"
    },
    {
      "constant": true,
      "inputs": [],
      "name": "isOwner",
      "outputs": [
        {
          "internalType": "bool",
          "name": "",
          "type": "bool"
        }
      ],
      "payable": false,
      "stateMutability": "view",
      "type": "function"
    },
    {
      "constant": true,
      "inputs": [],
      "name": "owner",
      "outputs": [
        {
          "internalType": "address",
          "name": "",
          "type": "address"
        }
      ],
      "payable": false,
      "stateMutability": "view",
      "type": "function"
    },
    {
      "constant": true,
      "inputs": [],
      "name": "priceFeedAddress",
      "outputs": [
        {
          "internalType": "address",
          "name": "",
          "type": "address"
        }
      ],
      "payable": false,
      "stateMutability": "view",
      "type": "function"
    },
    {
      "constant": false,
      "inputs": [],
      "name": "renounceOwnership",
      "outputs": [],
      "payable": false,
      "stateMutability": "nonpayable",
      "type": "function"
    },
    {
      "constant": true,
      "inputs": [
        {
          "internalType": "address",
          "name": "",
          "type": "address"
        }
      ],
      "name": "snapshot",
      "outputs": [
        {
          "internalType": "uint256",
          "name": "ETH",
          "type": "uint256"
        },
        {
          "internalType": "uint256",
          "name": "CLV",
          "type": "uint256"
        }
      ],
      "payable": false,
      "stateMutability": "view",
      "type": "function"
    },
    {
      "constant": true,
      "inputs": [],
      "name": "stabilityPool",
      "outputs": [
        {
          "internalType": "contract IStabilityPool",
          "name": "",
          "type": "address"
        }
      ],
      "payable": false,
      "stateMutability": "view",
      "type": "function"
    },
    {
      "constant": true,
      "inputs": [],
      "name": "stabilityPoolAddress",
      "outputs": [
        {
          "internalType": "address payable",
          "name": "",
          "type": "address"
        }
      ],
      "payable": false,
      "stateMutability": "view",
      "type": "function"
    },
    {
      "constant": true,
      "inputs": [
        {
          "internalType": "address",
          "name": "",
          "type": "address"
        }
      ],
      "name": "totalPendingCLVLoss",
      "outputs": [
        {
          "internalType": "uint256",
          "name": "",
          "type": "uint256"
        }
      ],
      "payable": false,
      "stateMutability": "view",
      "type": "function"
    },
    {
      "constant": true,
      "inputs": [
        {
          "internalType": "address",
          "name": "",
          "type": "address"
        }
      ],
      "name": "totalPendingETHGain",
      "outputs": [
        {
          "internalType": "uint256",
          "name": "",
          "type": "uint256"
        }
      ],
      "payable": false,
      "stateMutability": "view",
      "type": "function"
    },
    {
      "constant": false,
      "inputs": [
        {
          "internalType": "address",
          "name": "newOwner",
          "type": "address"
        }
      ],
      "name": "transferOwnership",
      "outputs": [],
      "payable": false,
      "stateMutability": "nonpayable",
      "type": "function"
    },
    {
      "constant": false,
      "inputs": [
        {
          "internalType": "address",
          "name": "_cdpManagerAddress",
          "type": "address"
        }
      ],
      "name": "setCDPManagerAddress",
      "outputs": [],
      "payable": false,
      "stateMutability": "nonpayable",
      "type": "function"
    },
    {
      "constant": false,
      "inputs": [
        {
          "internalType": "address",
          "name": "_priceFeedAddress",
          "type": "address"
        }
      ],
      "name": "setPriceFeed",
      "outputs": [],
      "payable": false,
      "stateMutability": "nonpayable",
      "type": "function"
    },
    {
      "constant": false,
      "inputs": [
        {
          "internalType": "address",
          "name": "_CLVAddress",
          "type": "address"
        }
      ],
      "name": "setCLVToken",
      "outputs": [],
      "payable": false,
      "stateMutability": "nonpayable",
      "type": "function"
    },
    {
      "constant": false,
      "inputs": [
        {
          "internalType": "address payable",
          "name": "_stabilityPoolAddress",
          "type": "address"
        }
      ],
      "name": "setStabilityPool",
      "outputs": [],
      "payable": false,
      "stateMutability": "nonpayable",
      "type": "function"
    },
    {
      "constant": false,
      "inputs": [
        {
          "internalType": "address payable",
          "name": "_activePoolAddress",
          "type": "address"
        }
      ],
      "name": "setActivePool",
      "outputs": [],
      "payable": false,
      "stateMutability": "nonpayable",
      "type": "function"
    },
    {
      "constant": false,
      "inputs": [
        {
          "internalType": "address payable",
          "name": "_defaultPoolAddress",
          "type": "address"
        }
      ],
      "name": "setDefaultPool",
      "outputs": [],
      "payable": false,
      "stateMutability": "nonpayable",
      "type": "function"
    },
    {
      "constant": true,
      "inputs": [
        {
          "internalType": "uint256",
          "name": "x",
          "type": "uint256"
        },
        {
          "internalType": "uint256",
          "name": "y",
          "type": "uint256"
        },
        {
          "internalType": "uint256",
          "name": "z",
          "type": "uint256"
        }
      ],
      "name": "getAccurateMulDiv",
      "outputs": [
        {
          "internalType": "uint256",
          "name": "",
          "type": "uint256"
        }
      ],
      "payable": false,
      "stateMutability": "pure",
      "type": "function"
    },
    {
      "constant": true,
      "inputs": [],
      "name": "getTCR",
      "outputs": [
        {
          "internalType": "uint256",
          "name": "",
          "type": "uint256"
        }
      ],
      "payable": false,
      "stateMutability": "view",
      "type": "function"
    },
    {
      "constant": true,
      "inputs": [],
      "name": "getBalance",
      "outputs": [
        {
          "internalType": "uint256",
          "name": "",
          "type": "uint256"
        }
      ],
      "payable": false,
      "stateMutability": "view",
      "type": "function"
    },
    {
      "constant": true,
      "inputs": [],
      "name": "getActiveDebt",
      "outputs": [
        {
          "internalType": "uint256",
          "name": "",
          "type": "uint256"
        }
      ],
      "payable": false,
      "stateMutability": "view",
      "type": "function"
    },
    {
      "constant": true,
      "inputs": [],
      "name": "getActiveColl",
      "outputs": [
        {
          "internalType": "uint256",
          "name": "",
          "type": "uint256"
        }
      ],
      "payable": false,
      "stateMutability": "view",
      "type": "function"
    },
    {
      "constant": true,
      "inputs": [],
      "name": "getClosedDebt",
      "outputs": [
        {
          "internalType": "uint256",
          "name": "",
          "type": "uint256"
        }
      ],
      "payable": false,
      "stateMutability": "view",
      "type": "function"
    },
    {
      "constant": true,
      "inputs": [],
      "name": "getClosedColl",
      "outputs": [
        {
          "internalType": "uint256",
          "name": "",
          "type": "uint256"
        }
      ],
      "payable": false,
      "stateMutability": "view",
      "type": "function"
    },
    {
      "constant": true,
      "inputs": [
        {
          "internalType": "uint256",
          "name": "a",
          "type": "uint256"
        },
        {
          "internalType": "uint256",
          "name": "b",
          "type": "uint256"
        }
      ],
      "name": "getMin",
      "outputs": [
        {
          "internalType": "uint256",
          "name": "",
          "type": "uint256"
        }
      ],
      "payable": false,
      "stateMutability": "pure",
      "type": "function"
    },
    {
      "constant": false,
      "inputs": [],
      "name": "addColl",
      "outputs": [
        {
          "internalType": "bool",
          "name": "",
          "type": "bool"
        }
      ],
      "payable": true,
      "stateMutability": "payable",
      "type": "function"
    },
    {
      "constant": false,
      "inputs": [
        {
          "internalType": "address payable",
          "name": "_account",
          "type": "address"
        },
        {
          "internalType": "uint256",
          "name": "_ETH",
          "type": "uint256"
        }
      ],
      "name": "withdrawColl",
      "outputs": [
        {
          "internalType": "bool",
          "name": "",
          "type": "bool"
        }
      ],
      "payable": false,
      "stateMutability": "nonpayable",
      "type": "function"
    },
    {
      "constant": false,
      "inputs": [
        {
          "internalType": "address",
          "name": "_account",
          "type": "address"
        },
        {
          "internalType": "uint256",
          "name": "_CLV",
          "type": "uint256"
        }
      ],
      "name": "withdrawCLV",
      "outputs": [
        {
          "internalType": "bool",
          "name": "",
          "type": "bool"
        }
      ],
      "payable": false,
      "stateMutability": "nonpayable",
      "type": "function"
    },
    {
      "constant": false,
      "inputs": [
        {
          "internalType": "address",
          "name": "_account",
          "type": "address"
        },
        {
          "internalType": "uint256",
          "name": "_CLV",
          "type": "uint256"
        }
      ],
      "name": "repayCLV",
      "outputs": [
        {
          "internalType": "bool",
          "name": "",
          "type": "bool"
        }
      ],
      "payable": false,
      "stateMutability": "nonpayable",
      "type": "function"
    },
    {
      "constant": false,
      "inputs": [
        {
          "internalType": "uint256",
          "name": "_CLV",
          "type": "uint256"
        },
        {
          "internalType": "uint256",
          "name": "_ETH",
          "type": "uint256"
        }
      ],
      "name": "close",
      "outputs": [
        {
          "internalType": "bool",
          "name": "",
          "type": "bool"
        }
      ],
      "payable": false,
      "stateMutability": "nonpayable",
      "type": "function"
    },
    {
      "constant": false,
      "inputs": [
        {
          "internalType": "uint256",
          "name": "_CLV",
          "type": "uint256"
        },
        {
          "internalType": "uint256",
          "name": "_ETH",
          "type": "uint256"
        }
      ],
      "name": "obtainDefaultShare",
      "outputs": [
        {
          "internalType": "bool",
          "name": "",
          "type": "bool"
        }
      ],
      "payable": false,
      "stateMutability": "nonpayable",
      "type": "function"
    },
    {
      "constant": false,
      "inputs": [
        {
          "internalType": "address payable",
          "name": "_account",
          "type": "address"
        },
        {
          "internalType": "uint256",
          "name": "_CLV",
          "type": "uint256"
        },
        {
          "internalType": "uint256",
          "name": "_ETH",
          "type": "uint256"
        }
      ],
      "name": "redeemCollateral",
      "outputs": [
        {
          "internalType": "bool",
          "name": "",
          "type": "bool"
        }
      ],
      "payable": false,
      "stateMutability": "nonpayable",
      "type": "function"
    },
    {
      "constant": false,
      "inputs": [
        {
          "internalType": "uint256",
          "name": "_amount",
          "type": "uint256"
        }
      ],
      "name": "depositCLV",
      "outputs": [
        {
          "internalType": "bool",
          "name": "",
          "type": "bool"
        }
      ],
      "payable": false,
      "stateMutability": "nonpayable",
      "type": "function"
    },
    {
      "constant": false,
      "inputs": [
        {
          "internalType": "uint256",
          "name": "_debt",
          "type": "uint256"
        },
        {
          "internalType": "uint256",
          "name": "_coll",
          "type": "uint256"
        }
      ],
      "name": "offset",
      "outputs": [
        {
          "internalType": "uint256[2]",
          "name": "",
          "type": "uint256[2]"
        }
      ],
      "payable": true,
      "stateMutability": "payable",
      "type": "function"
    },
    {
      "constant": false,
      "inputs": [
        {
          "internalType": "uint256",
          "name": "_amount",
          "type": "uint256"
        },
        {
          "internalType": "uint256",
          "name": "_destination",
          "type": "uint256"
        }
      ],
      "name": "retrieve",
      "outputs": [
        {
          "internalType": "bool",
          "name": "",
          "type": "bool"
        }
      ],
      "payable": false,
      "stateMutability": "nonpayable",
      "type": "function"
    },
    {
      "constant": false,
      "inputs": [
        {
          "internalType": "uint256",
          "name": "_amount",
          "type": "uint256"
        },
        {
          "internalType": "uint256",
          "name": "_destination",
          "type": "uint256"
        }
      ],
      "name": "retrieveETH",
      "outputs": [
        {
          "internalType": "bool",
          "name": "",
          "type": "bool"
        }
      ],
      "payable": false,
      "stateMutability": "nonpayable",
      "type": "function"
    },
    {
      "constant": false,
      "inputs": [],
      "name": "retrieveEntitledETH",
      "outputs": [
        {
          "internalType": "bool",
          "name": "",
          "type": "bool"
        }
      ],
      "payable": false,
      "stateMutability": "nonpayable",
      "type": "function"
    }
  ],
  "bytecode": "0x6080604052600154600280546001600160a01b0319166001600160a01b0390921691909117905534801561003257600080fd5b506100446001600160e01b0361009116565b600080546001600160a01b0319166001600160a01b03928316178082556040519216917f8be0079c531659141344cd1fd0a4f28419497f9722a3daafe3b4186f6b6457e0908290a3610095565b3390565b61345280620000a56000396000f3fe60806040526004361061020d5760003560e01c806302f6567f14610212578063048c661d146102435780630b622ab2146102585780630fd95db51461026d57806312065fe0146102af5780631f549907146102c457806325a2e6e7146102d957806326512160146102f55780632e90bbd814610341578063335525ad1461037a5780633cc74225146103d85780634d5bc111146103ed578063596c89761461041d578063697b93fd1461044d5780636bad5198146104625780636cc359dc14610477578063708249b3146104a7578063715018a6146104bc578063724e78da146104d35780637c252208146105065780637cb19fe8146105365780637f7dde4a146105755780638c192ed41461058a5780638da5cb5b146105bd5780638f32d59b146105d25780639594897d146105e757806398d721e0146105fc578063aac1846f1461062f578063b08bc72214610644578063b4f8adc514610659578063b620115d14610683578063b72d1eee14610698578063b7a2a463146106cb578063b96c5181146106e0578063c9a823f314610719578063d31cadf61461072e578063e0abca0b14610743578063e710bb8814610758578063ef6151a61461078b578063efb028c3146107be578063f2fde38b146107f4578063f340fa0114610827578063f3f9b5581461085a578063f568dd8e1461088d578063f7883a8b146108c6578063fefb4c58146108f9575b600080fd5b34801561021e57600080fd5b5061022761092c565b604080516001600160a01b039092168252519081900360200190f35b34801561024f57600080fd5b5061022761093b565b34801561026457600080fd5b5061022761094a565b34801561027957600080fd5b5061029d6004803603604081101561029057600080fd5b5080359060200135610959565b60408051918252519081900360200190f35b3480156102bb57600080fd5b5061029d610972565b3480156102d057600080fd5b5061029d610978565b6102e16109ee565b604080519115158252519081900360200190f35b34801561030157600080fd5b506103286004803603602081101561031857600080fd5b50356001600160a01b0316610ae7565b6040805192835260208301919091528051918290030190f35b34801561034d57600080fd5b506102e16004803603604081101561036457600080fd5b506001600160a01b038135169060200135610b00565b61039d6004803603604081101561039057600080fd5b5080359060200135610c4c565b6040518082600260200280838360005b838110156103c55781810151838201526020016103ad565b5050505090500191505060405180910390f35b3480156103e457600080fd5b5061022761121b565b3480156103f957600080fd5b506102e16004803603604081101561041057600080fd5b508035906020013561122a565b34801561042957600080fd5b506102e16004803603604081101561044057600080fd5b50803590602001356113a9565b34801561045957600080fd5b5061029d611528565b34801561046e57600080fd5b5061029d61156d565b34801561048357600080fd5b506102e16004803603604081101561049a57600080fd5b5080359060200135611573565b3480156104b357600080fd5b5061029d611587565b3480156104c857600080fd5b506104d161158d565b005b3480156104df57600080fd5b506104d1600480360360208110156104f657600080fd5b50356001600160a01b031661160c565b34801561051257600080fd5b506102e16004803603604081101561052957600080fd5b50803590602001356116b2565b34801561054257600080fd5b506102e16004803603606081101561055957600080fd5b506001600160a01b038135169060208101359060400135611bfa565b34801561058157600080fd5b50610227611dc9565b34801561059657600080fd5b506104d1600480360360208110156105ad57600080fd5b50356001600160a01b0316611dd8565b3480156105c957600080fd5b50610227611e86565b3480156105de57600080fd5b506102e1611e95565b3480156105f357600080fd5b5061029d611eb9565b34801561060857600080fd5b506104d16004803603602081101561061f57600080fd5b50356001600160a01b0316611efe565b34801561063b57600080fd5b50610227611fac565b34801561065057600080fd5b50610227611fbb565b34801561066557600080fd5b506102e16004803603602081101561067c57600080fd5b5035611fca565b34801561068f57600080fd5b5061029d612377565b3480156106a457600080fd5b5061029d600480360360208110156106bb57600080fd5b50356001600160a01b03166125b3565b3480156106d757600080fd5b5061029d6125c5565b3480156106ec57600080fd5b506102e16004803603604081101561070357600080fd5b506001600160a01b03813516906020013561260a565b34801561072557600080fd5b506102e1612721565b34801561073a57600080fd5b50610227612810565b34801561074f57600080fd5b5061022761281f565b34801561076457600080fd5b5061029d6004803603602081101561077b57600080fd5b50356001600160a01b031661282e565b34801561079757600080fd5b506104d1600480360360208110156107ae57600080fd5b50356001600160a01b0316612840565b3480156107ca57600080fd5b5061029d600480360360608110156107e157600080fd5b50803590602081013590604001356128e6565b34801561080057600080fd5b506104d16004803603602081101561081757600080fd5b50356001600160a01b031661297b565b34801561083357600080fd5b5061029d6004803603602081101561084a57600080fd5b50356001600160a01b03166129ce565b34801561086657600080fd5b5061029d6004803603602081101561087d57600080fd5b50356001600160a01b03166129e0565b34801561089957600080fd5b506102e1600480360360408110156108b057600080fd5b506001600160a01b0381351690602001356129f2565b3480156108d257600080fd5b506104d1600480360360208110156108e957600080fd5b50356001600160a01b0316612aa4565b34801561090557600080fd5b506104d16004803603602081101561091c57600080fd5b50356001600160a01b0316612b52565b6001546001600160a01b031681565b6007546001600160a01b031681565b6008546001600160a01b031681565b600081831161096957508161096c565b50805b92915050565b30315b90565b60095460408051630a7b61df60e11b815290516000926001600160a01b0316916314f6c3be916004808301926020929190829003018186803b1580156109bd57600080fd5b505afa1580156109d1573d6000803e3d6000fd5b505050506040513d60208110156109e757600080fd5b5051905090565b6001546000906001600160a01b0316610a05612bf8565b6001600160a01b031614610a4a5760405162461bcd60e51b81526004018080602001828103825260298152602001806133f56029913960400191505060405180910390fd5b600a546040516000916001600160a01b03169034908381818185875af1925050503d8060008114610a97576040519150601f19603f3d011682016040523d82523d6000602084013e610a9c565b606091505b5090915050600181151514610ae25760405162461bcd60e51b815260040180806020018281038252602f815260200180613323602f913960400191505060405180910390fd5b905090565b6010602052600090815260409020805460019091015482565b6001546000906001600160a01b0316610b17612bf8565b6001600160a01b031614610b5c5760405162461bcd60e51b81526004018080602001828103825260298152602001806133f56029913960400191505060405180910390fd5b60095460408051634de7363160e01b81526004810185905290516001600160a01b0390921691634de736319160248082019260009290919082900301818387803b158015610ba957600080fd5b505af1158015610bbd573d6000803e3d6000fd5b5050600554604080516340c10f1960e01b81526001600160a01b0388811660048301526024820188905291519190921693506340c10f19925060448083019260209291908290030181600087803b158015610c1757600080fd5b505af1158015610c2b573d6000803e3d6000fd5b505050506040513d6020811015610c4157600080fd5b506001949350505050565b610c54613245565b6001546001600160a01b0316610c68612bf8565b6001600160a01b031614610cad5760405162461bcd60e51b81526004018080602001828103825260298152602001806133f56029913960400191505060405180910390fd5b610cb5613245565b60075460408051635b9cbbbb60e11b815290516000926001600160a01b03169163b7397776916004808301926020929190829003018186803b158015610cfa57600080fd5b505afa158015610d0e573d6000803e3d6000fd5b505050506040513d6020811015610d2457600080fd5b50516007546040805163e1cf19c160e01b815290519293506000926001600160a01b039092169163e1cf19c191600480820192602092909190829003018186803b158015610d7157600080fd5b505afa158015610d85573d6000803e3d6000fd5b505050506040513d6020811015610d9b57600080fd5b50519050801580610daa575081155b15610dc257505083815260208101839052905061096c565b6000610dce8783610959565b9050600073__DeciMath______________________________63563d4c2383898b6040518463ffffffff1660e01b815260040180848152602001838152602001828152602001935050505060206040518083038186803b158015610e3157600080fd5b505af4158015610e45573d6000803e3d6000fd5b505050506040513d6020811015610e5b57600080fd5b50516040805163563d4c2360e01b815260048101859052670de0b6b3a76400006024820152604481018790529051919250610f069173__DeciMath______________________________9163563d4c23916064808301926020929190829003018186803b158015610ecb57600080fd5b505af4158015610edf573d6000803e3d6000fd5b505050506040513d6020811015610ef557600080fd5b5051600e549063ffffffff612bfc16565b600e81905560408051918252517f5c256972fe7489f98ce15d224bf8dab74d0e19cc6aa966608916a15f6f60d0f79181900360200190a1610fe273__DeciMath______________________________63563d4c2383670de0b6b3a7640000886040518463ffffffff1660e01b815260040180848152602001838152602001828152602001935050505060206040518083038186803b158015610fa757600080fd5b505af4158015610fbb573d6000803e3d6000fd5b505050506040513d6020811015610fd157600080fd5b5051600f549063ffffffff612bfc16565b600f81905560408051918252517f929e5fb9f1edf861ea5c93ad246b11b366de90467ba54a72bcb6f04e4d7195919181900360200190a16009546040805163e9c8395760e01b81526004810185905290516001600160a01b039092169163e9c839579160248082019260009290919082900301818387803b15801561106657600080fd5b505af115801561107a573d6000803e3d6000fd5b50506007546040805163e9c8395760e01b81526004810187905290516001600160a01b03909216935063e9c83957925060248082019260009290919082900301818387803b1580156110cb57600080fd5b505af11580156110df573d6000803e3d6000fd5b5050600954600854604080516364a197f360e01b81526001600160a01b0392831660048201526024810187905290519190921693506364a197f3925060448083019260209291908290030181600087803b15801561113c57600080fd5b505af1158015611150573d6000803e3d6000fd5b505050506040513d602081101561116657600080fd5b505060055460085460408051632770a7eb60e21b81526001600160a01b0392831660048201526024810186905290519190921691639dc29fac9160448083019260209291908290030181600087803b1580156111c157600080fd5b505af11580156111d5573d6000803e3d6000fd5b505050506040513d60208110156111eb57600080fd5b506111fe9050888363ffffffff612c5b16565b855261120a8782612c5b565b602086015250929695505050505050565b600b546001600160a01b031681565b6001546000906001600160a01b0316611241612bf8565b6001600160a01b0316146112865760405162461bcd60e51b81526004018080602001828103825260298152602001806133f56029913960400191505060405180910390fd5b600b546040805163e9c8395760e01b81526004810186905290516001600160a01b039092169163e9c839579160248082019260009290919082900301818387803b1580156112d357600080fd5b505af11580156112e7573d6000803e3d6000fd5b505060095460408051634de7363160e01b81526004810188905290516001600160a01b039092169350634de73631925060248082019260009290919082900301818387803b15801561133857600080fd5b505af115801561134c573d6000803e3d6000fd5b5050600b54600a54604080516364a197f360e01b81526001600160a01b0392831660048201526024810188905290519190921693506364a197f3925060448083019260209291908290030181600087803b158015610c1757600080fd5b6001546000906001600160a01b03166113c0612bf8565b6001600160a01b0316146114055760405162461bcd60e51b81526004018080602001828103825260298152602001806133f56029913960400191505060405180910390fd5b600b5460408051634de7363160e01b81526004810186905290516001600160a01b0390921691634de736319160248082019260009290919082900301818387803b15801561145257600080fd5b505af1158015611466573d6000803e3d6000fd5b50506009546040805163e9c8395760e01b81526004810188905290516001600160a01b03909216935063e9c83957925060248082019260009290919082900301818387803b1580156114b757600080fd5b505af11580156114cb573d6000803e3d6000fd5b5050600954600c54604080516364a197f360e01b81526001600160a01b0392831660048201526024810188905290519190921693506364a197f3925060448083019260209291908290030181600087803b158015610c1757600080fd5b6009546040805163e1cf19c160e01b815290516000926001600160a01b03169163e1cf19c1916004808301926020929190829003018186803b1580156109bd57600080fd5b600f5481565b60008061157e612bf8565b90505092915050565b600e5481565b611595611e95565b6115d4576040805162461bcd60e51b815260206004820181905260248201526000805160206133b5833981519152604482015290519081900360640190fd5b600080546040516001600160a01b03909116906000805160206133d5833981519152908390a3600080546001600160a01b0319169055565b611614611e95565b611653576040805162461bcd60e51b815260206004820181905260248201526000805160206133b5833981519152604482015290519081900360640190fd5b600480546001600160a01b0383166001600160a01b03199182168117909255600380549091168217905560408051918252517f8c537274438aa850a330284665d81a85dd38267d09e4050d416bfc94142db2649181900360200190a150565b6000806116bd612bf8565b6001600160a01b0381166000908152600d6020526040902054909150806117155760405162461bcd60e51b81526004018080602001828103825260228152602001806133726022913960400191505060405180910390fd5b808511156117545760405162461bcd60e51b815260040180806020018281038252603c815260200180613264603c913960400191505060405180910390fd5b600061177e8261177288670de0b6b3a764000063ffffffff612c9d16565b9063ffffffff612cf616565b9050600061178c8484612d35565b9050600061179a8585612e04565b6001600160a01b0386166000908152601160205260409020549091506117c6908363ffffffff612bfc16565b6001600160a01b0386166000908152601160209081526040808320939093556012905220546117fb908263ffffffff612bfc16565b6001600160a01b038616600090815260126020908152604080832093909355601190529081205461184f90670de0b6b3a76400009061184190889063ffffffff612c5b16565b86029063ffffffff612cf616565b6001600160a01b03871660009081526012602052604081205491925090611886908602670de0b6b3a764000063ffffffff612cf616565b6001600160a01b0388166000908152601160205260409020549091506118c190670de0b6b3a76400008781039091029063ffffffff612cf616565b6001600160a01b03881660009081526011602090815260408083209390935560129052205461190590670de0b6b3a76400008781039091029063ffffffff612cf616565b6001600160a01b03881660009081526012602052604090205561193b670de0b6b3a764000086810388029063ffffffff612cf616565b6001600160a01b0388166000908152600d6020908152604080832093909355600e805460108352928490206001810193909355600f54928390555483519081529081019190915281517f3ad3a0af1c72b834ff87f9409d7124fd7d9b306560756548477325e6e09f5055929181900390910190a16005546008546007546040805163e1cf19c160e01b815290516001600160a01b03948516946320c582be948116938d93611a40938a939092169163e1cf19c191600480820192602092909190829003018186803b158015611a0f57600080fd5b505afa158015611a23573d6000803e3d6000fd5b505050506040513d6020811015611a3957600080fd5b5051610959565b6040518463ffffffff1660e01b815260040180846001600160a01b03166001600160a01b03168152602001836001600160a01b03166001600160a01b031681526020018281526020019350505050602060405180830381600087803b158015611aa857600080fd5b505af1158015611abc573d6000803e3d6000fd5b505050506040513d6020811015611ad257600080fd5b50506007546040805163e9c8395760e01b81526004810185905290516001600160a01b039092169163e9c839579160248082019260009290919082900301818387803b158015611b2157600080fd5b505af1158015611b35573d6000803e3d6000fd5b505060075460408051631283abc560e21b8152600481018f905290516001600160a01b039092169350634a0eaf14925060248082019260009290919082900301818387803b158015611b8657600080fd5b505af1158015611b9a573d6000803e3d6000fd5b50505050611ba987828b612e32565b506001600160a01b0387166000818152600d60209081526040918290205482519384529083015280516000805160206133528339815191529281900390910190a15060019998505050505050505050565b6001546000906001600160a01b0316611c11612bf8565b6001600160a01b031614611c565760405162461bcd60e51b81526004018080602001828103825260298152602001806133f56029913960400191505060405180910390fd5b6009546040805163e9c8395760e01b81526004810186905290516001600160a01b039092169163e9c839579160248082019260009290919082900301818387803b158015611ca357600080fd5b505af1158015611cb7573d6000803e3d6000fd5b5050600954604080516364a197f360e01b81526001600160a01b0389811660048301526024820188905291519190921693506364a197f3925060448083019260209291908290030181600087803b158015611d1157600080fd5b505af1158015611d25573d6000803e3d6000fd5b505050506040513d6020811015611d3b57600080fd5b505060055460408051632770a7eb60e21b81526001600160a01b0387811660048301526024820187905291519190921691639dc29fac9160448083019260209291908290030181600087803b158015611d9357600080fd5b505af1158015611da7573d6000803e3d6000fd5b505050506040513d6020811015611dbd57600080fd5b50600195945050505050565b6009546001600160a01b031681565b611de0611e95565b611e1f576040805162461bcd60e51b815260206004820181905260248201526000805160206133b5833981519152604482015290519081900360640190fd5b600c80546001600160a01b038084166001600160a01b0319928316811793849055600b80549093169390911692909217905560408051918252517f5ee0cae2f063ed938bb55046f6a932fb6ae792bf43624806bb90abe68a50be9b9181900360200190a150565b6000546001600160a01b031690565b600080546001600160a01b0316611eaa612bf8565b6001600160a01b031614905090565b600b546040805163e1cf19c160e01b815290516000926001600160a01b03169163e1cf19c1916004808301926020929190829003018186803b1580156109bd57600080fd5b611f06611e95565b611f45576040805162461bcd60e51b815260206004820181905260248201526000805160206133b5833981519152604482015290519081900360640190fd5b600880546001600160a01b038084166001600160a01b0319928316811793849055600780549093169390911692909217905560408051918252517f82966d27eea39b038ee0fa30cd16532bb24f6e65d31cb58fb227aa5766cdcc7f9181900360200190a150565b600c546001600160a01b031681565b600a546001600160a01b031681565b600080611fd5612bf8565b9050600083116120165760405162461bcd60e51b81526004018080602001828103825260338152602001806132f06033913960400191505060405180910390fd5b600554604080516370a0823160e01b81526001600160a01b0384811660048301529151869392909216916370a0823191602480820192602092909190829003018186803b15801561206657600080fd5b505afa15801561207a573d6000803e3d6000fd5b505050506040513d602081101561209057600080fd5b505110156120cf5760405162461bcd60e51b815260040180806020018281038252602a8152602001806132c6602a913960400191505060405180910390fd5b6001600160a01b0381166000908152600d60205260408120546120f3908390612d35565b6001600160a01b0383166000908152600d60205260408120549192509061211b908490612e04565b6001600160a01b038416600090815260116020526040902054909150612147908363ffffffff612bfc16565b6001600160a01b03841660009081526011602090815260408083209390935560129052205461217c908263ffffffff612bfc16565b6001600160a01b038085166000818152601260209081526040808320959095556005546008548651632ee65eeb60e21b8152600481019590955285166024850152604484018b90529451949093169363bb997bac936064808501949193918390030190829087803b1580156121f057600080fd5b505af1158015612204573d6000803e3d6000fd5b505050506040513d602081101561221a57600080fd5b505060075460408051634de7363160e01b81526004810188905290516001600160a01b0390921691634de736319160248082019260009290919082900301818387803b15801561226957600080fd5b505af115801561227d573d6000803e3d6000fd5b505060075460408051631bc21f6f60e31b8152600481018a905290516001600160a01b03909216935063de10fb78925060248082019260009290919082900301818387803b1580156122ce57600080fd5b505af11580156122e2573d6000803e3d6000fd5b5050506001600160a01b0384166000908152600d602052604090205461230f91508663ffffffff612bfc16565b6001600160a01b0384166000818152600d6020908152604080832094909455600e5460108252918490206001810192909255600f54909155825191825281018790528151600080516020613352833981519152929181900390910190a1506001949350505050565b600080600960009054906101000a90046001600160a01b03166001600160a01b03166314f6c3be6040518163ffffffff1660e01b815260040160206040518083038186803b1580156123c857600080fd5b505afa1580156123dc573d6000803e3d6000fd5b505050506040513d60208110156123f257600080fd5b50516009546040805163e1cf19c160e01b815290519293506000926001600160a01b039092169163e1cf19c191600480820192602092909190829003018186803b15801561243f57600080fd5b505afa158015612453573d6000803e3d6000fd5b505050506040513d602081101561246957600080fd5b505160035460408051634c6afee560e11b815290519293506000926001600160a01b03909216916398d5fdca91600480820192602092909190829003018186803b1580156124b657600080fd5b505afa1580156124ca573d6000803e3d6000fd5b505050506040513d60208110156124e057600080fd5b50519050821580156124f0575081155b156125015760019350505050610975565b821580159061250e575081155b15612520576000199350505050610975565b73__DeciMath______________________________63563d4c238483856040518463ffffffff1660e01b815260040180848152602001838152602001828152602001935050505060206040518083038186803b15801561257f57600080fd5b505af4158015612593573d6000803e3d6000fd5b505050506040513d60208110156125a957600080fd5b5051935050505090565b60126020526000908152604090205481565b600b5460408051630a7b61df60e11b815290516000926001600160a01b0316916314f6c3be916004808301926020929190829003018186803b1580156109bd57600080fd5b6001546000906001600160a01b0316612621612bf8565b6001600160a01b0316146126665760405162461bcd60e51b81526004018080602001828103825260298152602001806133f56029913960400191505060405180910390fd5b6009546040805163e9c8395760e01b81526004810185905290516001600160a01b039092169163e9c839579160248082019260009290919082900301818387803b1580156126b357600080fd5b505af11580156126c7573d6000803e3d6000fd5b505060055460408051632770a7eb60e21b81526001600160a01b038881166004830152602482018890529151919092169350639dc29fac925060448083019260209291908290030181600087803b158015610c1757600080fd5b60008061272c612bf8565b6001600160a01b03808216600081815260136020908152604080832080549084905560075482516364a197f360e01b81526004810196909652602486018290529151969750959416936364a197f393604480820194918390030190829087803b15801561279857600080fd5b505af11580156127ac573d6000803e3d6000fd5b505050506040513d60208110156127c257600080fd5b5050604080516001600160a01b03841681526020810183905281517e76036e7ebf9bdd6e8431c0e619a2a527e715e9537d80953d39a76410d45d4b929181900390910190a160019250505090565b6006546001600160a01b031681565b6004546001600160a01b031681565b60136020526000908152604090205481565b612848611e95565b612887576040805162461bcd60e51b815260206004820181905260248201526000805160206133b5833981519152604482015290519081900360640190fd5b600180546001600160a01b0383166001600160a01b03199182168117909255600280549091168217905560408051918252517f0addbd30df51ac41ccaf56a058c50522fbdc092b4e2ec8b829b29ad6716bd0979181900360200190a150565b600073__DeciMath______________________________63563d4c238585856040518463ffffffff1660e01b815260040180848152602001838152602001828152602001935050505060206040518083038186803b15801561294757600080fd5b505af415801561295b573d6000803e3d6000fd5b505050506040513d602081101561297157600080fd5b5051949350505050565b612983611e95565b6129c2576040805162461bcd60e51b815260206004820181905260248201526000805160206133b5833981519152604482015290519081900360640190fd5b6129cb816130bb565b50565b600d6020526000908152604090205481565b60116020526000908152604090205481565b6001546000906001600160a01b0316612a09612bf8565b6001600160a01b031614612a4e5760405162461bcd60e51b81526004018080602001828103825260298152602001806133f56029913960400191505060405180910390fd5b600954604080516364a197f360e01b81526001600160a01b03868116600483015260248201869052915191909216916364a197f39160448083019260209291908290030181600087803b158015610c1757600080fd5b612aac611e95565b612aeb576040805162461bcd60e51b815260206004820181905260248201526000805160206133b5833981519152604482015290519081900360640190fd5b600a80546001600160a01b038084166001600160a01b0319928316811793849055600980549093169390911692909217905560408051918252517f78f058b189175430c48dc02699e3a0031ea4ff781536dc2fab847de4babdd8829181900360200190a150565b612b5a611e95565b612b99576040805162461bcd60e51b815260206004820181905260248201526000805160206133b5833981519152604482015290519081900360640190fd5b600680546001600160a01b0383166001600160a01b03199182168117909255600580549091168217905560408051918252517f373a23842c9bfba0a655597bb13c6493895da5266bd6617086a73f8dcfe2ae709181900360200190a150565b3390565b600082820183811015612c54576040805162461bcd60e51b815260206004820152601b60248201527a536166654d6174683a206164646974696f6e206f766572666c6f7760281b604482015290519081900360640190fd5b9392505050565b6000612c5483836040518060400160405280601e81526020017f536166654d6174683a207375627472616374696f6e206f766572666c6f770000815250613149565b600082612cac5750600061096c565b82820282848281612cb957fe5b0414612c545760405162461bcd60e51b81526004018080602001828103825260218152602001806133946021913960400191505060405180910390fd5b6000612c5483836040518060400160405280601a815260200179536166654d6174683a206469766973696f6e206279207a65726f60301b8152506131e0565b6001600160a01b038216600090815260106020526040812060010154600e548290612d66908363ffffffff612c5b16565b905073__DeciMath______________________________63563d4c238583670de0b6b3a76400006040518463ffffffff1660e01b815260040180848152602001838152602001828152602001935050505060206040518083038186803b158015612dcf57600080fd5b505af4158015612de3573d6000803e3d6000fd5b505050506040513d6020811015612df957600080fd5b505195945050505050565b6001600160a01b038216600090815260106020526040812054600f548290612d66908363ffffffff612c5b16565b6002546040805163244beeff60e01b81526001600160a01b03868116600483015291516000938493169163244beeff916024808301926020929190829003018186803b158015612e8157600080fd5b505afa158015612e95573d6000803e3d6000fd5b505050506040513d6020811015612eab57600080fd5b505190506000600160028582148015612ec15750835b15612fd357600754600a54604080516364a197f360e01b81526001600160a01b039283166004820152602481018b9052905191909216916364a197f39160448083019260209291908290030181600087803b158015612f1f57600080fd5b505af1158015612f33573d6000803e3d6000fd5b505050506040513d6020811015612f4957600080fd5b505060025460408051630f6c893f60e01b81526001600160a01b038b81166004830152602482018b905291519190921691630f6c893f9160448083019260209291908290030181600087803b158015612fa157600080fd5b505af1158015612fb5573d6000803e3d6000fd5b505050506040513d6020811015612fcb57600080fd5b506130ad9050565b80861415613022576001600160a01b038816600090815260136020526040902054613004908863ffffffff612bfc16565b6001600160a01b0389166000908152601360205260409020556130ad565b828614156130ad57600754604080516364a197f360e01b81526001600160a01b038b81166004830152602482018b9052915191909216916364a197f39160448083019260209291908290030181600087803b15801561308057600080fd5b505af1158015613094573d6000803e3d6000fd5b505050506040513d60208110156130aa57600080fd5b50505b506001979650505050505050565b6001600160a01b0381166131005760405162461bcd60e51b81526004018080602001828103825260268152602001806132a06026913960400191505060405180910390fd5b600080546040516001600160a01b03808516939216916000805160206133d583398151915291a3600080546001600160a01b0319166001600160a01b0392909216919091179055565b600081848411156131d85760405162461bcd60e51b81526004018080602001828103825283818151815260200191508051906020019080838360005b8381101561319d578181015183820152602001613185565b50505050905090810190601f1680156131ca5780820380516001836020036101000a031916815260200191505b509250505060405180910390fd5b505050900390565b6000818361322f5760405162461bcd60e51b815260206004820181815283516024840152835190928392604490910191908501908083836000831561319d578181015183820152602001613185565b50600083858161323b57fe5b0495945050505050565b6040518060400160405280600290602082028038833950919291505056fe506f6f6c4d616e616765723a2063616c6c6572206d6179206e6f74207769746864726177206d6f7265207468616e207468656972206465706f7369744f776e61626c653a206e6577206f776e657220697320746865207a65726f2061646472657373506f6f6c4d616e616765723a20757365722068617320696e73756666696369656e742062616c616e6365506f6f6c4d616e616765723a206465706f736974656420616d6f756e74206d757374206265206c6172676572207468616e2030506f6f6c4d616e616765723a207472616e73616374696f6e20746f20616374697665506f6f6c207265766572746564bce78369dccab09eec1986f4d409ab09ffbb47d65423e5148fcf98411c5111c9506f6f6c4d616e616765723a2063616c6c657220686173206e6f206465706f736974536166654d6174683a206d756c7469706c69636174696f6e206f766572666c6f774f776e61626c653a2063616c6c6572206973206e6f7420746865206f776e65728be0079c531659141344cd1fd0a4f28419497f9722a3daafe3b4186f6b6457e0506f6f6c4d616e616765723a2043616c6c6572206973206e6f7420746865204344504d616e61676572a265627a7a7231582078bd1cbe78f6e258f3a347a88f55222c12feacac6d42ce9f9c6b59bb0b4bc80c64736f6c634300050c0032",
  "source": "pragma solidity ^0.5.11;\r\n\r\nimport './IPool.sol';\r\nimport './IPoolManager.sol';\r\nimport './ICDPManager.sol';\r\nimport './IStabilityPool.sol';\r\nimport './IPriceFeed.sol';\r\nimport './ICLVToken.sol';\r\nimport './DeciMath.sol';\r\nimport '../node_modules/@openzeppelin/contracts/math/SafeMath.sol';\r\nimport '../node_modules/@openzeppelin/contracts/ownership/Ownable.sol';\r\n\r\n// PoolManager maintains all pools \r\ncontract PoolManager is Ownable, IPoolManager {\r\n    using SafeMath for uint;\r\n\r\n    uint constant DIGITS = 1e18;\r\n\r\n    // --- Events ---\r\n    event CDPManagerAddressChanged(address _newCDPManagerAddress);\r\n    event PriceFeedAddressChanged(address _newPriceFeedAddress);\r\n    event CLVTokenAddressChanged(address _newCLVTokenAddress);\r\n    event StabilityPoolAddressChanged(address _newStabilityPoolAddress);\r\n    event ActivePoolAddressChanged(address _newActivePoolAddress);\r\n    event DefaultPoolAddressChanged(address _newDefaultPoolAddress);\r\n    event UserSnapshotUpdated(uint _CLV, uint _ETH);\r\n    event S_CLVUpdated(uint _S_CLV);\r\n    event S_ETHUpdated(uint _S_ETH);\r\n    event UserDepositChanged(address _user, uint _amount);\r\n    event EntitledETHRetrieved(address user, uint entitledETH);\r\n\r\n    // --- Connected contract declarations ---\r\n    address public cdpManagerAddress;\r\n    ICDPManager cdpManager = ICDPManager(cdpManagerAddress);\r\n\r\n    IPriceFeed priceFeed;\r\n    address public priceFeedAddress;\r\n\r\n    ICLVToken CLV; \r\n    address public clvAddress;\r\n\r\n    IStabilityPool public stabilityPool;\r\n    address payable public stabilityPoolAddress;\r\n\r\n    IPool public activePool;\r\n    address payable public activePoolAddress;\r\n\r\n    IPool public defaultPool;\r\n    address payable public defaultPoolAddress;\r\n   \r\n   // --- Data structures ---\r\n   \r\n    mapping (address => uint) public deposit; \r\n\r\n      struct Snapshot {\r\n        uint ETH;\r\n        uint CLV;\r\n    }\r\n    \r\n    uint public S_CLV; // A running total of the CLV fractions for gas-efficient share calculation\r\n    uint public S_ETH; // A running total of the ETH fractions for gas-efficient share calculation\r\n    mapping (address => Snapshot) public snapshot; // A map of individual snapshots of the S_CLV and the current StabilityPool.ETH values\r\n    \r\n     /* track the sum of users' total pending CLV and ETH changes earned by their deposit history.\r\n    The total pending is updated whenever user increases their deposit, or make a partial withdrawal.\r\n    \r\n    During it's lifetime, each deposit earns:\r\n\r\n    A CLV *loss* of ( deposit * [S_CLV - S_CLV(0)] )\r\n    An ETH *gain* of ( deposit * [S_ETH - S_ETH(0)] )\r\n\r\n    which is added to these running totals. */\r\n    mapping (address => uint) public totalPendingCLVLoss;\r\n    mapping (address => uint) public totalPendingETHGain;\r\n\r\n    /* track the realised StabilityPool ETH gains a user has earned due to deposit withdrawals, but \r\n    chosen to not cash out */\r\n    mapping (address => uint) public entitledETHGain;\r\n    enum Destination { sendToUser, sendToCDP, keepInPool }\r\n    \r\n    // --- Modifiers ---\r\n    modifier onlyCDPManager() {\r\n        require(_msgSender() == cdpManagerAddress, \"PoolManager: Caller is not the CDPManager\");\r\n        _;\r\n    }\r\n\r\n    constructor() public {}\r\n\r\n    // --- Dependency setters ---\r\n    function setCDPManagerAddress(address _cdpManagerAddress) public onlyOwner {\r\n        cdpManagerAddress = _cdpManagerAddress;\r\n        cdpManager = ICDPManager(_cdpManagerAddress);\r\n        emit CDPManagerAddressChanged(_cdpManagerAddress);\r\n    }\r\n\r\n     function setPriceFeed(address _priceFeedAddress) public onlyOwner {\r\n        priceFeedAddress = _priceFeedAddress;\r\n        priceFeed = IPriceFeed(_priceFeedAddress);\r\n        emit PriceFeedAddressChanged(_priceFeedAddress);\r\n    }\r\n\r\n    function setCLVToken(address _CLVAddress) public onlyOwner {\r\n        clvAddress = _CLVAddress;\r\n        CLV = ICLVToken(_CLVAddress); \r\n        emit CLVTokenAddressChanged(_CLVAddress);\r\n    }\r\n\r\n    function setStabilityPool(address payable _stabilityPoolAddress) public onlyOwner {\r\n        stabilityPoolAddress = _stabilityPoolAddress;\r\n        stabilityPool = IStabilityPool(stabilityPoolAddress);\r\n        emit StabilityPoolAddressChanged(_stabilityPoolAddress);\r\n    }\r\n\r\n    function setActivePool(address payable _activePoolAddress) public onlyOwner {\r\n        activePoolAddress = _activePoolAddress;\r\n        activePool = IPool(activePoolAddress);\r\n        emit ActivePoolAddressChanged(_activePoolAddress);\r\n    }\r\n\r\n    function setDefaultPool(address payable _defaultPoolAddress) public onlyOwner {\r\n        defaultPoolAddress = _defaultPoolAddress;\r\n        defaultPool = IPool(defaultPoolAddress);\r\n        emit DefaultPoolAddressChanged(_defaultPoolAddress);\r\n    }\r\n\r\n    // --- Getters ---\r\n    function getAccurateMulDiv(uint x, uint y, uint z) public pure returns(uint) {\r\n        return DeciMath.accurateMulDiv(x, y, z);\r\n    }\r\n\r\n    // Returns the total collateral ratio of the system\r\n    function getTCR() \r\n        view \r\n        public \r\n        returns (uint) \r\n    {\r\n        uint activePoolETH = activePool.getETH();\r\n        uint activePoolCLV = activePool.getCLV();\r\n        uint price = priceFeed.getPrice();\r\n        \r\n        // Handle edge cases of div by 0\r\n        if(activePoolETH == 0 && activePoolCLV == 0 ) { \r\n            return 1;\r\n        }  else if (activePoolETH != 0 && activePoolCLV == 0 ) {\r\n            return 2**256 - 1; // TCR is technically infinite\r\n        }\r\n\r\n        // calculate TCR\r\n        return DeciMath.accurateMulDiv(activePoolETH, price, activePoolCLV);\r\n    }\r\n    \r\n    // Returns the current ETH balance of the TokenPools contract\r\n    function getBalance() \r\n        public\r\n        view\r\n        returns (uint)\r\n    {\r\n        return address(this).balance;\r\n    } \r\n    \r\n    // Returns the total active debt (in CLV) in the system\r\n    function getActiveDebt() \r\n        public\r\n        view\r\n        returns (uint)\r\n    {\r\n        return activePool.getCLV();\r\n    }    \r\n    \r\n    // Returns the total active collateral (in ETH) in the system\r\n    function getActiveColl() \r\n        public\r\n        view\r\n        returns (uint)\r\n    {\r\n        return activePool.getETH();\r\n    } \r\n    \r\n    // Returns the amount of closed debt (in CLV)\r\n    function getClosedDebt() \r\n        public\r\n        view\r\n        returns (uint)\r\n    {\r\n        return defaultPool.getCLV();\r\n    }    \r\n    \r\n    // Returns the amount of closed collateral (in ETH)\r\n    function getClosedColl() \r\n        public\r\n        view\r\n        returns (uint)\r\n    {\r\n        return defaultPool.getETH();\r\n    }  \r\n    \r\n    // Returns the lower value from two given integers\r\n    function getMin(uint a, uint b) \r\n        public\r\n        pure\r\n        returns (uint)\r\n    {\r\n        if (a <= b) return a;\r\n        else return b;\r\n    }    \r\n    \r\n    // Adds the received ETH to the total active collateral\r\n    function addColl()\r\n        public\r\n        payable\r\n        onlyCDPManager\r\n        returns (bool)\r\n    {\r\n        // send ETH to Active Pool and increase its recorded ETH balance \r\n       (bool success, ) = activePoolAddress.call.value(msg.value)(\"\");\r\n       require (success == true, 'PoolManager: transaction to activePool reverted');\r\n       return success;\r\n    }\r\n    \r\n    // Transfers the specified amount of ETH to _account and updates the total active collateral \r\n    function withdrawColl(address payable _account, uint _ETH)\r\n        public\r\n        onlyCDPManager\r\n        returns (bool)\r\n    {\r\n        activePool.sendETH(_account, _ETH);\r\n        return true;\r\n    }\r\n    \r\n    // Issues the specified amount of CLV to _account and increases the total active debt\r\n    function withdrawCLV(address _account, uint _CLV)\r\n        public\r\n        onlyCDPManager\r\n        returns (bool)\r\n    {\r\n        activePool.increaseCLV(_CLV);\r\n        CLV.mint(_account, _CLV);\r\n                \r\n        return true;\r\n    }\r\n    \r\n    // Burns the specified amount of CLV from _account and decreases the total active debt\r\n    function repayCLV(address _account, uint _CLV)\r\n        public\r\n        onlyCDPManager\r\n        returns (bool)\r\n    {\r\n        activePool.decreaseCLV(_CLV);\r\n        CLV.burn(_account, _CLV);\r\n        \r\n        return true;\r\n    }           \r\n    \r\n    // Updates the Active Pool and the Default Pool when a CDP gets closed\r\n    function close(uint _CLV, uint _ETH)\r\n        public\r\n        onlyCDPManager\r\n        returns (bool)\r\n    {\r\n        // Transfer the debt & coll from the Active Pool to the Default Pool\r\n        defaultPool.increaseCLV(_CLV);\r\n        activePool.decreaseCLV(_CLV);\r\n        activePool.sendETH(defaultPoolAddress, _ETH);\r\n        \r\n        return true;\r\n    }    \r\n    \r\n    // Updates the Active Pool and the Default Pool when a CDP obtains a default share\r\n    function obtainDefaultShare(uint _CLV, uint _ETH)\r\n        public\r\n        onlyCDPManager\r\n        returns (bool)\r\n    {    \r\n        // Transfer the debt & coll from the Default Pool to the Active Pool\r\n        defaultPool.decreaseCLV(_CLV);\r\n        activePool.increaseCLV(_CLV);\r\n        defaultPool.sendETH(activePoolAddress, _ETH);\r\n \r\n        return true;\r\n    }\r\n    \r\n    // Burns the received CLV, transfers the redeemed ETH to _account and updates the Active Pool\r\n    function redeemCollateral(address payable _account, uint _CLV, uint _ETH)\r\n        public\r\n        onlyCDPManager\r\n        returns (bool)\r\n    {    \r\n        // Update Active Pool CLV, and send ETH to account\r\n        activePool.decreaseCLV(_CLV);\r\n        activePool.sendETH(_account, _ETH);\r\n        \r\n        CLV.burn(_account, _CLV);\r\n\r\n        return true;\r\n    }    \r\n\r\n    // Deposits the specified amount to the Stability Pool using the algorithm from http://batog.info/papers/scalable-reward-distribution.pdf\r\n    // Can be called directly by anybody, not just by the owner (CDP contract) \r\n    // TODO: Support multiple deposits by the same address\r\n    function depositCLV( uint _amount) \r\n        public\r\n        returns (bool)\r\n    {\r\n        address user = _msgSender();\r\n        require(_amount > 0, \"PoolManager: deposited amount must be larger than 0\");\r\n        require(CLV.balanceOf(user) >= _amount, \"PoolManager: user has insufficient balance\");\r\n        \r\n        // get cumulative changes earned by the most recent deposit\r\n        uint recentCumulativeCLVChange = getCurrentCumulativeCLVChange(user, deposit[user]);\r\n        uint recentCumulativeETHChange = getCurrentCumulativeETHChange(user, deposit[user]);\r\n\r\n        // add cumulative changes to the total pending changes\r\n        totalPendingCLVLoss[user] = totalPendingCLVLoss[user].add(recentCumulativeCLVChange);\r\n        totalPendingETHGain[user] = totalPendingETHGain[user].add(recentCumulativeETHChange);\r\n\r\n        // Transfer the CLV tokens from the user to the Stability Pool's address, and update its recorded CLV\r\n        CLV.sendToPool(user, stabilityPoolAddress, _amount);\r\n        stabilityPool.increaseCLV(_amount);\r\n        stabilityPool.increaseTotalCLVDeposits(_amount);\r\n        \r\n        // Record the deposit made by user\r\n        deposit[user] = deposit[user].add(_amount);\r\n    \r\n        // Record new individual snapshots of the running totals S_CLV and S_ETH for the user\r\n        snapshot[user].CLV = S_CLV;\r\n        snapshot[user].ETH = S_ETH;  // Should this be S_ETH?  Snapshot current accumulated proportional rewards?\r\n        emit UserDepositChanged(user, _amount);\r\n        return true;\r\n    }   \r\n\r\n\r\n    // return the accumulated proportional change, for the user, for the duration that this deposit was held\r\n    function getCurrentCumulativeETHChange(address _user, uint _userDeposit) internal view returns(uint) {\r\n       uint snapshotETH = snapshot[_user].ETH;\r\n        uint rewardPerUnitStaked = S_ETH.sub(snapshotETH);\r\n        return DeciMath.accurateMulDiv(_userDeposit, rewardPerUnitStaked, DIGITS);\r\n    }\r\n\r\n    function getCurrentCumulativeCLVChange(address _user, uint _userDeposit) internal view returns(uint) {\r\n        uint snapshotCLV = snapshot[_user].CLV;\r\n        uint rewardPerUnitStaked = S_CLV.sub(snapshotCLV);\r\n        return DeciMath.accurateMulDiv(_userDeposit, rewardPerUnitStaked, DIGITS);\r\n    }\r\n\r\n    // TODO - rename.  \"offsetAndLiquidate()\" ?\r\n    // Cancels out the specified _debt against the CLV contained in the Stability Pool (as far as possible)  \r\n    // and transfers the CDP's ETH collateral from Active Pool to Stability Pool. \r\n    // Returns the amount of debt that could not be cancelled, and the corresponding ether.\r\n    // Can only be called via the close(...) and closeCDPs(... ) functions in CDPManager\r\n    function offset(uint _debt, uint _coll)\r\n        public\r\n        payable\r\n        onlyCDPManager\r\n        returns (uint[2] memory) // Note: it would be nicer to return this as a struct, but struct returns are still experimental\r\n    {    \r\n        uint[2] memory remainder;\r\n        uint totalCLVDeposits = stabilityPool.getTotalCLVDeposits();\r\n        uint CLVinPool = stabilityPool.getCLV();\r\n        \r\n        // When Stability Pool has no CLV or no deposits, return all debt and coll\r\n        if (CLVinPool == 0 || totalCLVDeposits == 0 ) {\r\n            remainder[0] = _debt;\r\n            remainder[1] = _coll;\r\n            return remainder;\r\n        }\r\n        \r\n        // If the debt is larger than the deposited CLV, offset an amount of debt corresponding to the latter\r\n        uint debtToOffset = getMin(_debt, CLVinPool);\r\n        // Collateral to be added in proportion to the debt that is cancelled\r\n        uint collToAdd =  DeciMath.accurateMulDiv(debtToOffset, _coll, _debt);\r\n        \r\n        // Update the running total S_CLV by adding the ratio between the distributed debt and the CLV in the pool\r\n        S_CLV = S_CLV.add( DeciMath.accurateMulDiv(debtToOffset,  DIGITS, totalCLVDeposits) );\r\n        emit S_CLVUpdated(S_CLV);\r\n        // Update the running total S_ETH by adding the ratio between the distributed collateral and the ETH in the pool\r\n        S_ETH = S_ETH.add( DeciMath.accurateMulDiv(collToAdd, DIGITS, totalCLVDeposits) );\r\n        emit S_ETHUpdated(S_ETH);\r\n        // Cancel the liquidated CLV debt with the CLV in the stability pool\r\n        activePool.decreaseCLV(debtToOffset);  \r\n        stabilityPool.decreaseCLV(debtToOffset); \r\n        // Send ETH from Active Pool to Stability Pool\r\n        activePool.sendETH(stabilityPoolAddress, collToAdd);  \r\n        \r\n        // Burn the debt that was successfully offset\r\n        CLV.burn(stabilityPoolAddress, debtToOffset);\r\n        \r\n        // Return the amount of debt & coll that could not be offset against the Stability Pool due to insufficiency\r\n        remainder[0] = _debt.sub(debtToOffset);\r\n        remainder[1] = _coll.sub(collToAdd);\r\n        return remainder;\r\n    }\r\n    \r\n    // Retrieves the caller's funds from the Stability Pool\r\n    function retrieve(uint _amount, uint _destination ) \r\n        public\r\n        returns (bool)\r\n    {   \r\n        address payable user = _msgSender();\r\n        \r\n        uint userDeposit = deposit[user];\r\n        require(userDeposit > 0, \"PoolManager: caller has no deposit\");\r\n        require (_amount <= userDeposit, \"PoolManager: caller may not withdraw more than their deposit\");\r\n        // Calculate the CLV and ETH shares to be retrieved according http://batog.info/papers/scalable-reward-distribution.pdf\r\n\r\n        uint fractionToRetrieve = (_amount.mul(DIGITS)).div(userDeposit);\r\n\r\n        // get the cumulative changes for the user's most recent deposit value\r\n        uint currentCLVLoss = getCurrentCumulativeCLVChange(user, userDeposit);\r\n        uint currentETHGain = getCurrentCumulativeETHChange(user, userDeposit);\r\n        // update totalPending CLV and ETH changes\r\n        totalPendingCLVLoss[user] = totalPendingCLVLoss[user].add(currentCLVLoss);\r\n        totalPendingETHGain[user] = totalPendingETHGain[user].add(currentETHGain);\r\n\r\n        // get the fraction\r\n        uint CLVShare = (fractionToRetrieve * userDeposit.sub(totalPendingCLVLoss[user])).div(DIGITS);\r\n        uint ETHShare = (fractionToRetrieve * totalPendingETHGain[user]).div(DIGITS);\r\n        \r\n        /* update the total pending changes: reduce them by the right proportion, and add the remainder \r\n        // of the most recent cumulative change, that did not get fully paid out. */\r\n        totalPendingCLVLoss[user] = ((DIGITS - fractionToRetrieve) * (totalPendingCLVLoss[user])).div(DIGITS);\r\n        totalPendingETHGain[user] = ((DIGITS - fractionToRetrieve) * (totalPendingETHGain[user])).div(DIGITS);\r\n\r\n        //update user's deposit record\r\n        deposit[user] = ((DIGITS - fractionToRetrieve) * userDeposit).div(DIGITS);\r\n        \r\n        // record new snapshots \r\n        snapshot[user].CLV = S_CLV;\r\n        snapshot[user].ETH = S_ETH;\r\n        emit UserSnapshotUpdated(S_CLV, S_ETH);\r\n\r\n        // TODO: Handle case where not enough CLV in pool to cover their share?\r\n        CLV.returnFromPool(stabilityPoolAddress, user, getMin(CLVShare, stabilityPool.getCLV()));\r\n        stabilityPool.decreaseCLV(CLVShare);\r\n        stabilityPool.decreaseTotalCLVDeposits(_amount);\r\n\r\n     /* Based on user's choices, redirect ETH to user's CDP, store for later retrieval, or send directly\r\n     to user */\r\n        sendETHShare(user, ETHShare, _destination);\r\n\r\n        emit UserDepositChanged(user, deposit[user]);\r\n        return true;\r\n    }\r\n\r\n    function retrieveETH(uint _amount, uint _destination ) public returns(bool) { \r\n        // sends   \r\n        address payable user = _msgSender();\r\n    }\r\n\r\n    // function checkOverstay () public returns{}\r\n\r\n    // function getOverstayPenalty () public returns(uint) {}\r\n\r\n\r\n    // send ETHShare to correct destination, according to user's choice\r\n    function sendETHShare(address payable _user, uint ETHShare, uint _destination ) internal returns(bool) {\r\n        bool userCDPisActive = cdpManager.hasActiveCDP(_user);\r\n\r\n        uint sendToUser = uint(Destination.sendToUser);\r\n        uint sendToCDP = uint(Destination.sendToCDP);\r\n        uint keepInPool = uint(Destination.keepInPool);\r\n        \r\n        if (_destination == sendToCDP && userCDPisActive) {\r\n            stabilityPool.sendETH(activePoolAddress, ETHShare);\r\n            cdpManager.redirectETHBalanceToCDP(_user, ETHShare);\r\n\r\n        } else if (_destination == keepInPool) {\r\n            entitledETHGain[_user] = entitledETHGain[_user].add(ETHShare);\r\n\r\n        } else if (_destination == sendToUser) {\r\n            stabilityPool.sendETH(_user, ETHShare);\r\n        }\r\n        return true;\r\n    }\r\n\r\n    function retrieveEntitledETH() public returns(bool) {\r\n        address payable user = _msgSender();\r\n        uint entitledETH = entitledETHGain[user];\r\n        entitledETHGain[user] = 0;\r\n        stabilityPool.sendETH(user, entitledETH);\r\n        emit EntitledETHRetrieved(user, entitledETH);\r\n        return true;\r\n    }\r\n}    ",
  "sourcePath": "C:/Users/Administrator/Desktop/Cleverage/contracts/PoolManager.sol",
  "compiler": {
    "name": "solc",
    "version": "0.5.12+commit.7709ece9.Emscripten.clang"
  },
  "schemaVersion": "3.0.19",
  "updatedAt": "2019-12-20T09:33:20.933Z",
  "networkType": "ethereum",
  "devdoc": {
    "methods": {
      "isOwner()": {
        "details": "Returns true if the caller is the current owner."
      },
      "owner()": {
        "details": "Returns the address of the current owner."
      },
      "renounceOwnership()": {
        "details": "Leaves the contract without owner. It will not be possible to call `onlyOwner` functions anymore. Can only be called by the current owner.     * NOTE: Renouncing ownership will leave the contract without an owner, thereby removing any functionality that is only available to the owner."
      },
      "transferOwnership(address)": {
        "details": "Transfers ownership of the contract to a new account (`newOwner`). Can only be called by the current owner."
      }
    }
  },
  "userdoc": {
    "methods": {}
  }
}