{
  "contractName": "PriceFeed",
  "abi": [
    {
      "constant": false,
      "inputs": [],
      "name": "renounceOwnership",
      "outputs": [],
      "payable": false,
      "stateMutability": "nonpayable",
      "type": "function"
    },
    {
      "constant": true,
      "inputs": [],
      "name": "owner",
      "outputs": [
        {
          "internalType": "address",
          "name": "",
          "type": "address"
        }
      ],
      "payable": false,
      "stateMutability": "view",
      "type": "function"
    },
    {
      "constant": true,
      "inputs": [],
      "name": "isOwner",
      "outputs": [
        {
          "internalType": "bool",
          "name": "",
          "type": "bool"
        }
      ],
      "payable": false,
      "stateMutability": "view",
      "type": "function"
    },
    {
      "constant": true,
      "inputs": [],
      "name": "price",
      "outputs": [
        {
          "internalType": "uint256",
          "name": "",
          "type": "uint256"
        }
      ],
      "payable": false,
      "stateMutability": "view",
      "type": "function"
    },
    {
      "constant": false,
      "inputs": [
        {
          "internalType": "address",
          "name": "newOwner",
          "type": "address"
        }
      ],
      "name": "transferOwnership",
      "outputs": [],
      "payable": false,
      "stateMutability": "nonpayable",
      "type": "function"
    },
    {
      "inputs": [],
      "payable": false,
      "stateMutability": "nonpayable",
      "type": "constructor"
    },
    {
      "anonymous": false,
      "inputs": [
        {
          "indexed": false,
          "internalType": "uint256",
          "name": "_newPrice",
          "type": "uint256"
        }
      ],
      "name": "PriceUpdated",
      "type": "event"
    },
    {
      "anonymous": false,
      "inputs": [
        {
          "indexed": true,
          "internalType": "address",
          "name": "previousOwner",
          "type": "address"
        },
        {
          "indexed": true,
          "internalType": "address",
          "name": "newOwner",
          "type": "address"
        }
      ],
      "name": "OwnershipTransferred",
      "type": "event"
    },
    {
      "constant": false,
      "inputs": [
        {
          "internalType": "uint256",
          "name": "_price",
          "type": "uint256"
        }
      ],
      "name": "setPrice",
      "outputs": [
        {
          "internalType": "bool",
          "name": "",
          "type": "bool"
        }
      ],
      "payable": false,
      "stateMutability": "nonpayable",
      "type": "function"
    },
    {
      "constant": true,
      "inputs": [],
      "name": "getPrice",
      "outputs": [
        {
          "internalType": "uint256",
          "name": "",
          "type": "uint256"
        }
      ],
      "payable": false,
      "stateMutability": "view",
      "type": "function"
    }
  ],
  "bytecode": "0x6080604052680ad78ebc5ac620000060015534801561001d57600080fd5b5061002f6001600160e01b0361007c16565b600080546001600160a01b0319166001600160a01b03928316178082556040519216917f8be0079c531659141344cd1fd0a4f28419497f9722a3daafe3b4186f6b6457e0908290a3610080565b3390565b6104c68061008f6000396000f3fe608060405234801561001057600080fd5b506004361061007d5760003560e01c806391b7f5ed1161005b57806391b7f5ed146100cc57806398d5fdca146100e9578063a035b1fe14610103578063f2fde38b1461010b5761007d565b8063715018a6146100825780638da5cb5b1461008c5780638f32d59b146100b0575b600080fd5b61008a610131565b005b6100946101e1565b604080516001600160a01b039092168252519081900360200190f35b6100b86101f0565b604080519115158252519081900360200190f35b6100b8600480360360208110156100e257600080fd5b5035610214565b6100f16102c6565b60408051918252519081900360200190f35b6100f16102cc565b61008a6004803603602081101561012157600080fd5b50356001600160a01b03166102d2565b6101396101f0565b61018a576040805162461bcd60e51b815260206004820181905260248201527f4f776e61626c653a2063616c6c6572206973206e6f7420746865206f776e6572604482015290519081900360640190fd5b600080546040516001600160a01b03909116907f8be0079c531659141344cd1fd0a4f28419497f9722a3daafe3b4186f6b6457e0908390a36000805473ffffffffffffffffffffffffffffffffffffffff19169055565b6000546001600160a01b031690565b600080546001600160a01b0316610205610337565b6001600160a01b031614905090565b600061021e6101f0565b61026f576040805162461bcd60e51b815260206004820181905260248201527f4f776e61626c653a2063616c6c6572206973206e6f7420746865206f776e6572604482015290519081900360640190fd5b61028782670de0b6b3a764000063ffffffff61033b16565b600181905560408051918252517f66cbca4f3c64fecf1dcb9ce094abcf7f68c3450a1d4e3a8e917dd621edb4ebe09181900360200190a1506001919050565b60015490565b60015481565b6102da6101f0565b61032b576040805162461bcd60e51b815260206004820181905260248201527f4f776e61626c653a2063616c6c6572206973206e6f7420746865206f776e6572604482015290519081900360640190fd5b6103348161039d565b50565b3390565b60008261034a57506000610397565b8282028284828161035757fe5b04146103945760405162461bcd60e51b81526004018080602001828103825260218152602001806104716021913960400191505060405180910390fd5b90505b92915050565b6001600160a01b0381166103e25760405162461bcd60e51b815260040180806020018281038252602681526020018061044b6026913960400191505060405180910390fd5b600080546040516001600160a01b03808516939216917f8be0079c531659141344cd1fd0a4f28419497f9722a3daafe3b4186f6b6457e091a36000805473ffffffffffffffffffffffffffffffffffffffff19166001600160a01b039290921691909117905556fe4f776e61626c653a206e6577206f776e657220697320746865207a65726f2061646472657373536166654d6174683a206d756c7469706c69636174696f6e206f766572666c6f77a265627a7a7231582044ea1d17916afbeb9cdcdd5dc927b29346f02df2d9b9f2fa201098dc0548915764736f6c634300050b0032",
  "source": "pragma solidity ^0.5.11;\r\nimport \"../node_modules/@openzeppelin/contracts/math/SafeMath.sol\";\r\nimport '../node_modules/@openzeppelin/contracts/ownership/Ownable.sol';\r\n\r\n// A mock ETH:USD price oracle\r\ncontract PriceFeed is Ownable {\r\n    using SafeMath for uint;\r\n    \r\n    uint constant DIGITS = 1e18;\r\n    uint public price = 200 * DIGITS;  \r\n   \r\n    constructor() public {\r\n    }   \r\n   \r\n   event PriceUpdated(uint _newPrice);\r\n   \r\n    function setPrice(uint _price) public onlyOwner returns (bool) {\r\n        price = _price.mul(DIGITS);\r\n        emit PriceUpdated(price);\r\n        return true;\r\n\r\n    }    \r\n    \r\n    function getPrice() public view returns (uint) {\r\n        return price;\r\n    }  \r\n}\r\n",
  "sourcePath": "c:/Users/Rick/Desktop/Cleverage/contracts/PriceFeed.sol",
  "compiler": {
    "name": "solc",
    "version": "0.5.11+commit.c082d0b4.Emscripten.clang"
  },
  "schemaVersion": "3.0.20",
  "updatedAt": "2019-12-30T00:39:24.294Z",
  "devdoc": {
    "methods": {
      "isOwner()": {
        "details": "Returns true if the caller is the current owner."
      },
      "owner()": {
        "details": "Returns the address of the current owner."
      },
      "renounceOwnership()": {
        "details": "Leaves the contract without owner. It will not be possible to call `onlyOwner` functions anymore. Can only be called by the current owner.     * NOTE: Renouncing ownership will leave the contract without an owner, thereby removing any functionality that is only available to the owner."
      },
      "transferOwnership(address)": {
        "details": "Transfers ownership of the contract to a new account (`newOwner`). Can only be called by the current owner."
      }
    }
  },
  "userdoc": {
    "methods": {}
  }
}